{
	"contracts/EligibleTokenRegistry.sol": {
		"EligibleTokenRegistry": {
			"abi": [
				{
					"inputs": [
						{
							"internalType": "address[]",
							"name": "initialTokens",
							"type": "address[]"
						}
					],
					"stateMutability": "nonpayable",
					"type": "constructor"
				},
				{
					"inputs": [
						{
							"internalType": "address",
							"name": "token",
							"type": "address"
						}
					],
					"name": "AlreadyEligible",
					"type": "error"
				},
				{
					"inputs": [
						{
							"internalType": "address",
							"name": "consumer",
							"type": "address"
						}
					],
					"name": "AlreadyRegistered",
					"type": "error"
				},
				{
					"inputs": [
						{
							"internalType": "address",
							"name": "token",
							"type": "address"
						}
					],
					"name": "NotEligible",
					"type": "error"
				},
				{
					"inputs": [
						{
							"internalType": "address",
							"name": "consumer",
							"type": "address"
						}
					],
					"name": "NotRegistered",
					"type": "error"
				},
				{
					"inputs": [
						{
							"internalType": "address",
							"name": "owner",
							"type": "address"
						}
					],
					"name": "OwnableInvalidOwner",
					"type": "error"
				},
				{
					"inputs": [
						{
							"internalType": "address",
							"name": "account",
							"type": "address"
						}
					],
					"name": "OwnableUnauthorizedAccount",
					"type": "error"
				},
				{
					"inputs": [],
					"name": "ZeroAddress",
					"type": "error"
				},
				{
					"anonymous": false,
					"inputs": [
						{
							"indexed": true,
							"internalType": "address",
							"name": "consumer",
							"type": "address"
						}
					],
					"name": "ConsumerRegistered",
					"type": "event"
				},
				{
					"anonymous": false,
					"inputs": [
						{
							"indexed": true,
							"internalType": "address",
							"name": "consumer",
							"type": "address"
						}
					],
					"name": "ConsumerRemoved",
					"type": "event"
				},
				{
					"anonymous": false,
					"inputs": [
						{
							"indexed": true,
							"internalType": "address",
							"name": "previousOwner",
							"type": "address"
						},
						{
							"indexed": true,
							"internalType": "address",
							"name": "newOwner",
							"type": "address"
						}
					],
					"name": "OwnershipTransferred",
					"type": "event"
				},
				{
					"anonymous": false,
					"inputs": [
						{
							"indexed": true,
							"internalType": "address",
							"name": "token",
							"type": "address"
						}
					],
					"name": "TokenAdded",
					"type": "event"
				},
				{
					"anonymous": false,
					"inputs": [
						{
							"indexed": true,
							"internalType": "address",
							"name": "token",
							"type": "address"
						}
					],
					"name": "TokenRemoved",
					"type": "event"
				},
				{
					"inputs": [
						{
							"internalType": "address",
							"name": "token",
							"type": "address"
						}
					],
					"name": "addToken",
					"outputs": [],
					"stateMutability": "nonpayable",
					"type": "function"
				},
				{
					"inputs": [
						{
							"internalType": "address[]",
							"name": "tokens",
							"type": "address[]"
						}
					],
					"name": "addTokens",
					"outputs": [],
					"stateMutability": "nonpayable",
					"type": "function"
				},
				{
					"inputs": [
						{
							"internalType": "address[]",
							"name": "tokens",
							"type": "address[]"
						}
					],
					"name": "areEligible",
					"outputs": [
						{
							"internalType": "bool[]",
							"name": "results",
							"type": "bool[]"
						}
					],
					"stateMutability": "view",
					"type": "function"
				},
				{
					"inputs": [
						{
							"internalType": "uint256",
							"name": "",
							"type": "uint256"
						}
					],
					"name": "consumerList",
					"outputs": [
						{
							"internalType": "address",
							"name": "",
							"type": "address"
						}
					],
					"stateMutability": "view",
					"type": "function"
				},
				{
					"inputs": [
						{
							"internalType": "uint256",
							"name": "",
							"type": "uint256"
						}
					],
					"name": "eligibleTokenList",
					"outputs": [
						{
							"internalType": "address",
							"name": "",
							"type": "address"
						}
					],
					"stateMutability": "view",
					"type": "function"
				},
				{
					"inputs": [],
					"name": "getConsumers",
					"outputs": [
						{
							"internalType": "address[]",
							"name": "",
							"type": "address[]"
						}
					],
					"stateMutability": "view",
					"type": "function"
				},
				{
					"inputs": [],
					"name": "getEligibleTokens",
					"outputs": [
						{
							"internalType": "address[]",
							"name": "eligible",
							"type": "address[]"
						}
					],
					"stateMutability": "view",
					"type": "function"
				},
				{
					"inputs": [
						{
							"internalType": "address",
							"name": "",
							"type": "address"
						}
					],
					"name": "isEligible",
					"outputs": [
						{
							"internalType": "bool",
							"name": "",
							"type": "bool"
						}
					],
					"stateMutability": "view",
					"type": "function"
				},
				{
					"inputs": [],
					"name": "owner",
					"outputs": [
						{
							"internalType": "address",
							"name": "",
							"type": "address"
						}
					],
					"stateMutability": "view",
					"type": "function"
				},
				{
					"inputs": [
						{
							"internalType": "address",
							"name": "consumer",
							"type": "address"
						}
					],
					"name": "registerConsumer",
					"outputs": [],
					"stateMutability": "nonpayable",
					"type": "function"
				},
				{
					"inputs": [
						{
							"internalType": "address",
							"name": "",
							"type": "address"
						}
					],
					"name": "registeredConsumers",
					"outputs": [
						{
							"internalType": "bool",
							"name": "",
							"type": "bool"
						}
					],
					"stateMutability": "view",
					"type": "function"
				},
				{
					"inputs": [
						{
							"internalType": "address",
							"name": "consumer",
							"type": "address"
						}
					],
					"name": "removeConsumer",
					"outputs": [],
					"stateMutability": "nonpayable",
					"type": "function"
				},
				{
					"inputs": [
						{
							"internalType": "address",
							"name": "token",
							"type": "address"
						}
					],
					"name": "removeToken",
					"outputs": [],
					"stateMutability": "nonpayable",
					"type": "function"
				},
				{
					"inputs": [],
					"name": "renounceOwnership",
					"outputs": [],
					"stateMutability": "nonpayable",
					"type": "function"
				},
				{
					"inputs": [],
					"name": "totalTokensAdded",
					"outputs": [
						{
							"internalType": "uint256",
							"name": "",
							"type": "uint256"
						}
					],
					"stateMutability": "view",
					"type": "function"
				},
				{
					"inputs": [
						{
							"internalType": "address",
							"name": "newOwner",
							"type": "address"
						}
					],
					"name": "transferOwnership",
					"outputs": [],
					"stateMutability": "nonpayable",
					"type": "function"
				}
			],
			"devdoc": {
				"errors": {
					"OwnableInvalidOwner(address)": [
						{
							"details": "The owner is not a valid owner account. (eg. `address(0)`)"
						}
					],
					"OwnableUnauthorizedAccount(address)": [
						{
							"details": "The caller account is not authorized to perform an operation."
						}
					]
				},
				"kind": "dev",
				"methods": {
					"addToken(address)": {
						"params": {
							"token": "ERC-20 token address to add."
						}
					},
					"addTokens(address[])": {
						"params": {
							"tokens": "Array of token addresses."
						}
					},
					"areEligible(address[])": {
						"details": "Useful for frontend to check multiple tokens in one call."
					},
					"constructor": {
						"params": {
							"initialTokens": "Array of token addresses eligible at deploy.                      Typically: [TIMBS, WETH, DAPP]."
						}
					},
					"getEligibleTokens()": {
						"details": "Filters out removed tokens. May be expensive for large lists —      use off-chain indexing for production UIs."
					},
					"owner()": {
						"details": "Returns the address of the current owner."
					},
					"removeToken(address)": {
						"details": "Does not remove from eligibleTokenList array (history preserved).      Sets isEligible[token] = false — takes effect immediately.",
						"params": {
							"token": "Token address to remove."
						}
					},
					"renounceOwnership()": {
						"details": "Leaves the contract without owner. It will not be possible to call `onlyOwner` functions. Can only be called by the current owner. NOTE: Renouncing ownership will leave the contract without an owner, thereby disabling any functionality that is only available to the owner."
					},
					"transferOwnership(address)": {
						"details": "Transfers ownership of the contract to a new account (`newOwner`). Can only be called by the current owner."
					}
				},
				"title": "EligibleTokenRegistry",
				"version": 1
			},
			"evm": {
				"assembly": "    /* \"contracts/EligibleTokenRegistry.sol\":1477:8211  contract EligibleTokenRegistry is Ownable {... */\n  mstore(0x40, 0x80)\n    /* \"contracts/EligibleTokenRegistry.sol\":3558:3809  constructor(address[] memory initialTokens) Ownable(msg.sender) {... */\n  callvalue\n  dup1\n  iszero\n  tag_1\n  jumpi\n  0x00\n  dup1\n  revert\ntag_1:\n  pop\n  mload(0x40)\n  sub(codesize, bytecodeSize)\n  dup1\n  bytecodeSize\n  dup4\n  codecopy\n  dup2\n  dup2\n  add\n  0x40\n  mstore\n  dup2\n  add\n  swap1\n  tag_2\n  swap2\n  swap1\n  tag_3\n  jump\t// in\ntag_2:\n    /* \"contracts/EligibleTokenRegistry.sol\":3610:3620  msg.sender */\n  caller\n    /* \"@openzeppelin/contracts/access/Ownable.sol\":1297:1298  0 */\n  0x00\n    /* \"@openzeppelin/contracts/access/Ownable.sol\":1273:1299  initialOwner == address(0) */\n  0xffffffffffffffffffffffffffffffffffffffff\n  and\n    /* \"@openzeppelin/contracts/access/Ownable.sol\":1273:1285  initialOwner */\n  dup2\n    /* \"@openzeppelin/contracts/access/Ownable.sol\":1273:1299  initialOwner == address(0) */\n  0xffffffffffffffffffffffffffffffffffffffff\n  and\n  sub\n    /* \"@openzeppelin/contracts/access/Ownable.sol\":1269:1364  if (initialOwner == address(0)) {... */\n  tag_7\n  jumpi\n    /* \"@openzeppelin/contracts/access/Ownable.sol\":1350:1351  0 */\n  0x00\n    /* \"@openzeppelin/contracts/access/Ownable.sol\":1322:1353  OwnableInvalidOwner(address(0)) */\n  mload(0x40)\n  0x1e4fbdf700000000000000000000000000000000000000000000000000000000\n  dup2\n  mstore\n  0x04\n  add\n  tag_8\n  swap2\n  swap1\n  tag_9\n  jump\t// in\ntag_8:\n  mload(0x40)\n  dup1\n  swap2\n  sub\n  swap1\n  revert\n    /* \"@openzeppelin/contracts/access/Ownable.sol\":1269:1364  if (initialOwner == address(0)) {... */\ntag_7:\n    /* \"@openzeppelin/contracts/access/Ownable.sol\":1373:1405  _transferOwnership(initialOwner) */\n  tag_10\n    /* \"@openzeppelin/contracts/access/Ownable.sol\":1392:1404  initialOwner */\n  dup2\n    /* \"@openzeppelin/contracts/access/Ownable.sol\":1373:1391  _transferOwnership */\n  shl(0x20, tag_11)\n    /* \"@openzeppelin/contracts/access/Ownable.sol\":1373:1405  _transferOwnership(initialOwner) */\n  0x20\n  shr\n  jump\t// in\ntag_10:\n    /* \"@openzeppelin/contracts/access/Ownable.sol\":1225:1412  constructor(address initialOwner) {... */\n  pop\n    /* \"contracts/EligibleTokenRegistry.sol\":3637:3646  uint256 i */\n  0x00\n    /* \"contracts/EligibleTokenRegistry.sol\":3632:3803  for (uint256 i = 0; i < initialTokens.length; i++) {... */\ntag_13:\n    /* \"contracts/EligibleTokenRegistry.sol\":3656:3669  initialTokens */\n  dup2\n    /* \"contracts/EligibleTokenRegistry.sol\":3656:3676  initialTokens.length */\n  mload\n    /* \"contracts/EligibleTokenRegistry.sol\":3652:3653  i */\n  dup2\n    /* \"contracts/EligibleTokenRegistry.sol\":3652:3676  i < initialTokens.length */\n  lt\n    /* \"contracts/EligibleTokenRegistry.sol\":3632:3803  for (uint256 i = 0; i < initialTokens.length; i++) {... */\n  iszero\n  tag_14\n  jumpi\n    /* \"contracts/EligibleTokenRegistry.sol\":3729:3730  0 */\n  0x00\n    /* \"contracts/EligibleTokenRegistry.sol\":3701:3731  initialTokens[i] != address(0) */\n  0xffffffffffffffffffffffffffffffffffffffff\n  and\n    /* \"contracts/EligibleTokenRegistry.sol\":3701:3714  initialTokens */\n  dup3\n    /* \"contracts/EligibleTokenRegistry.sol\":3715:3716  i */\n  dup3\n    /* \"contracts/EligibleTokenRegistry.sol\":3701:3717  initialTokens[i] */\n  dup2\n  mload\n  dup2\n  lt\n  tag_16\n  jumpi\n  tag_17\n  tag_18\n  jump\t// in\ntag_17:\ntag_16:\n  0x20\n  mul\n  0x20\n  add\n  add\n  mload\n    /* \"contracts/EligibleTokenRegistry.sol\":3701:3731  initialTokens[i] != address(0) */\n  0xffffffffffffffffffffffffffffffffffffffff\n  and\n  eq\n    /* \"contracts/EligibleTokenRegistry.sol\":3697:3793  if (initialTokens[i] != address(0)) {... */\n  tag_19\n  jumpi\n    /* \"contracts/EligibleTokenRegistry.sol\":3751:3778  _addToken(initialTokens[i]) */\n  tag_20\n    /* \"contracts/EligibleTokenRegistry.sol\":3761:3774  initialTokens */\n  dup3\n    /* \"contracts/EligibleTokenRegistry.sol\":3775:3776  i */\n  dup3\n    /* \"contracts/EligibleTokenRegistry.sol\":3761:3777  initialTokens[i] */\n  dup2\n  mload\n  dup2\n  lt\n  tag_21\n  jumpi\n  tag_22\n  tag_18\n  jump\t// in\ntag_22:\ntag_21:\n  0x20\n  mul\n  0x20\n  add\n  add\n  mload\n    /* \"contracts/EligibleTokenRegistry.sol\":3751:3760  _addToken */\n  shl(0x20, tag_23)\n    /* \"contracts/EligibleTokenRegistry.sol\":3751:3778  _addToken(initialTokens[i]) */\n  0x20\n  shr\n  jump\t// in\ntag_20:\n    /* \"contracts/EligibleTokenRegistry.sol\":3697:3793  if (initialTokens[i] != address(0)) {... */\ntag_19:\n    /* \"contracts/EligibleTokenRegistry.sol\":3678:3681  i++ */\n  dup1\n  dup1\n  0x01\n  add\n  swap2\n  pop\n  pop\n    /* \"contracts/EligibleTokenRegistry.sol\":3632:3803  for (uint256 i = 0; i < initialTokens.length; i++) {... */\n  jump(tag_13)\ntag_14:\n  pop\n    /* \"contracts/EligibleTokenRegistry.sol\":3558:3809  constructor(address[] memory initialTokens) Ownable(msg.sender) {... */\n  pop\n    /* \"contracts/EligibleTokenRegistry.sol\":1477:8211  contract EligibleTokenRegistry is Ownable {... */\n  jump(tag_24)\n    /* \"@openzeppelin/contracts/access/Ownable.sol\":2912:3099  function _transferOwnership(address newOwner) internal virtual {... */\ntag_11:\n    /* \"@openzeppelin/contracts/access/Ownable.sol\":2985:3001  address oldOwner */\n  0x00\n    /* \"@openzeppelin/contracts/access/Ownable.sol\":3004:3010  _owner */\n  dup1\n  0x00\n  swap1\n  sload\n  swap1\n  0x0100\n  exp\n  swap1\n  div\n  0xffffffffffffffffffffffffffffffffffffffff\n  and\n    /* \"@openzeppelin/contracts/access/Ownable.sol\":2985:3010  address oldOwner = _owner */\n  swap1\n  pop\n    /* \"@openzeppelin/contracts/access/Ownable.sol\":3029:3037  newOwner */\n  dup2\n    /* \"@openzeppelin/contracts/access/Ownable.sol\":3020:3026  _owner */\n  0x00\n  dup1\n    /* \"@openzeppelin/contracts/access/Ownable.sol\":3020:3037  _owner = newOwner */\n  0x0100\n  exp\n  dup2\n  sload\n  dup2\n  0xffffffffffffffffffffffffffffffffffffffff\n  mul\n  not\n  and\n  swap1\n  dup4\n  0xffffffffffffffffffffffffffffffffffffffff\n  and\n  mul\n  or\n  swap1\n  sstore\n  pop\n    /* \"@openzeppelin/contracts/access/Ownable.sol\":3083:3091  newOwner */\n  dup2\n    /* \"@openzeppelin/contracts/access/Ownable.sol\":3052:3092  OwnershipTransferred(oldOwner, newOwner) */\n  0xffffffffffffffffffffffffffffffffffffffff\n  and\n    /* \"@openzeppelin/contracts/access/Ownable.sol\":3073:3081  oldOwner */\n  dup2\n    /* \"@openzeppelin/contracts/access/Ownable.sol\":3052:3092  OwnershipTransferred(oldOwner, newOwner) */\n  0xffffffffffffffffffffffffffffffffffffffff\n  and\n  0x8be0079c531659141344cd1fd0a4f28419497f9722a3daafe3b4186f6b6457e0\n  mload(0x40)\n  mload(0x40)\n  dup1\n  swap2\n  sub\n  swap1\n  log3\n    /* \"@openzeppelin/contracts/access/Ownable.sol\":2975:3099  {... */\n  pop\n    /* \"@openzeppelin/contracts/access/Ownable.sol\":2912:3099  function _transferOwnership(address newOwner) internal virtual {... */\n  pop\n  jump\t// out\n    /* \"contracts/EligibleTokenRegistry.sol\":5248:5403  function _addToken(address token) internal {... */\ntag_23:\n    /* \"contracts/EligibleTokenRegistry.sol\":5321:5325  true */\n  0x01\n    /* \"contracts/EligibleTokenRegistry.sol\":5301:5311  isEligible */\n  dup1\n    /* \"contracts/EligibleTokenRegistry.sol\":5301:5318  isEligible[token] */\n  0x00\n    /* \"contracts/EligibleTokenRegistry.sol\":5312:5317  token */\n  dup4\n    /* \"contracts/EligibleTokenRegistry.sol\":5301:5318  isEligible[token] */\n  0xffffffffffffffffffffffffffffffffffffffff\n  and\n  0xffffffffffffffffffffffffffffffffffffffff\n  and\n  dup2\n  mstore\n  0x20\n  add\n  swap1\n  dup2\n  mstore\n  0x20\n  add\n  0x00\n  keccak256\n  0x00\n    /* \"contracts/EligibleTokenRegistry.sol\":5301:5325  isEligible[token] = true */\n  0x0100\n  exp\n  dup2\n  sload\n  dup2\n  0xff\n  mul\n  not\n  and\n  swap1\n  dup4\n  iszero\n  iszero\n  mul\n  or\n  swap1\n  sstore\n  pop\n    /* \"contracts/EligibleTokenRegistry.sol\":5335:5352  eligibleTokenList */\n  0x02\n    /* \"contracts/EligibleTokenRegistry.sol\":5358:5363  token */\n  dup2\n    /* \"contracts/EligibleTokenRegistry.sol\":5335:5364  eligibleTokenList.push(token) */\n  swap1\n  dup1\n  0x01\n  dup2\n  sload\n  add\n  dup1\n  dup3\n  sstore\n  dup1\n  swap2\n  pop\n  pop\n  0x01\n  swap1\n  sub\n  swap1\n  0x00\n  mstore\n  keccak256(0x00, 0x20)\n  add\n  0x00\n  swap1\n  swap2\n  swap1\n  swap2\n  swap1\n  swap2\n  0x0100\n  exp\n  dup2\n  sload\n  dup2\n  0xffffffffffffffffffffffffffffffffffffffff\n  mul\n  not\n  and\n  swap1\n  dup4\n  0xffffffffffffffffffffffffffffffffffffffff\n  and\n  mul\n  or\n  swap1\n  sstore\n  pop\n    /* \"contracts/EligibleTokenRegistry.sol\":5390:5395  token */\n  dup1\n    /* \"contracts/EligibleTokenRegistry.sol\":5379:5396  TokenAdded(token) */\n  0xffffffffffffffffffffffffffffffffffffffff\n  and\n  0x784c8f4dbf0ffedd6e72c76501c545a70f8b203b30a26ce542bf92ba87c248a4\n  mload(0x40)\n  mload(0x40)\n  dup1\n  swap2\n  sub\n  swap1\n  log2\n    /* \"contracts/EligibleTokenRegistry.sol\":5248:5403  function _addToken(address token) internal {... */\n  pop\n  jump\t// out\n    /* \"#utility.yul\":7:82   */\ntag_28:\n    /* \"#utility.yul\":40:46   */\n  0x00\n    /* \"#utility.yul\":73:75   */\n  0x40\n    /* \"#utility.yul\":67:76   */\n  mload\n    /* \"#utility.yul\":57:76   */\n  swap1\n  pop\n    /* \"#utility.yul\":7:82   */\n  swap1\n  jump\t// out\n    /* \"#utility.yul\":88:205   */\ntag_29:\n    /* \"#utility.yul\":197:198   */\n  0x00\n    /* \"#utility.yul\":194:195   */\n  dup1\n    /* \"#utility.yul\":187:199   */\n  revert\n    /* \"#utility.yul\":211:328   */\ntag_30:\n    /* \"#utility.yul\":320:321   */\n  0x00\n    /* \"#utility.yul\":317:318   */\n  dup1\n    /* \"#utility.yul\":310:322   */\n  revert\n    /* \"#utility.yul\":334:451   */\ntag_31:\n    /* \"#utility.yul\":443:444   */\n  0x00\n    /* \"#utility.yul\":440:441   */\n  dup1\n    /* \"#utility.yul\":433:445   */\n  revert\n    /* \"#utility.yul\":457:559   */\ntag_32:\n    /* \"#utility.yul\":498:504   */\n  0x00\n    /* \"#utility.yul\":549:551   */\n  0x1f\n    /* \"#utility.yul\":545:552   */\n  not\n    /* \"#utility.yul\":540:542   */\n  0x1f\n    /* \"#utility.yul\":533:538   */\n  dup4\n    /* \"#utility.yul\":529:543   */\n  add\n    /* \"#utility.yul\":525:553   */\n  and\n    /* \"#utility.yul\":515:553   */\n  swap1\n  pop\n    /* \"#utility.yul\":457:559   */\n  swap2\n  swap1\n  pop\n  jump\t// out\n    /* \"#utility.yul\":565:745   */\ntag_33:\n    /* \"#utility.yul\":613:690   */\n  0x4e487b7100000000000000000000000000000000000000000000000000000000\n    /* \"#utility.yul\":610:611   */\n  0x00\n    /* \"#utility.yul\":603:691   */\n  mstore\n    /* \"#utility.yul\":710:714   */\n  0x41\n    /* \"#utility.yul\":707:708   */\n  0x04\n    /* \"#utility.yul\":700:715   */\n  mstore\n    /* \"#utility.yul\":734:738   */\n  0x24\n    /* \"#utility.yul\":731:732   */\n  0x00\n    /* \"#utility.yul\":724:739   */\n  revert\n    /* \"#utility.yul\":751:1032   */\ntag_34:\n    /* \"#utility.yul\":834:861   */\n  tag_53\n    /* \"#utility.yul\":856:860   */\n  dup3\n    /* \"#utility.yul\":834:861   */\n  tag_32\n  jump\t// in\ntag_53:\n    /* \"#utility.yul\":826:832   */\n  dup2\n    /* \"#utility.yul\":822:862   */\n  add\n    /* \"#utility.yul\":964:970   */\n  dup2\n    /* \"#utility.yul\":952:962   */\n  dup2\n    /* \"#utility.yul\":949:971   */\n  lt\n    /* \"#utility.yul\":928:946   */\n  0xffffffffffffffff\n    /* \"#utility.yul\":916:926   */\n  dup3\n    /* \"#utility.yul\":913:947   */\n  gt\n    /* \"#utility.yul\":910:972   */\n  or\n    /* \"#utility.yul\":907:995   */\n  iszero\n  tag_54\n  jumpi\n    /* \"#utility.yul\":975:993   */\n  tag_55\n  tag_33\n  jump\t// in\ntag_55:\n    /* \"#utility.yul\":907:995   */\ntag_54:\n    /* \"#utility.yul\":1015:1025   */\n  dup1\n    /* \"#utility.yul\":1011:1013   */\n  0x40\n    /* \"#utility.yul\":1004:1026   */\n  mstore\n    /* \"#utility.yul\":794:1032   */\n  pop\n    /* \"#utility.yul\":751:1032   */\n  pop\n  pop\n  jump\t// out\n    /* \"#utility.yul\":1038:1167   */\ntag_35:\n    /* \"#utility.yul\":1072:1078   */\n  0x00\n    /* \"#utility.yul\":1099:1119   */\n  tag_57\n  tag_28\n  jump\t// in\ntag_57:\n    /* \"#utility.yul\":1089:1119   */\n  swap1\n  pop\n    /* \"#utility.yul\":1128:1161   */\n  tag_58\n    /* \"#utility.yul\":1156:1160   */\n  dup3\n    /* \"#utility.yul\":1148:1154   */\n  dup3\n    /* \"#utility.yul\":1128:1161   */\n  tag_34\n  jump\t// in\ntag_58:\n    /* \"#utility.yul\":1038:1167   */\n  swap2\n  swap1\n  pop\n  jump\t// out\n    /* \"#utility.yul\":1173:1484   */\ntag_36:\n    /* \"#utility.yul\":1250:1254   */\n  0x00\n    /* \"#utility.yul\":1340:1358   */\n  0xffffffffffffffff\n    /* \"#utility.yul\":1332:1338   */\n  dup3\n    /* \"#utility.yul\":1329:1359   */\n  gt\n    /* \"#utility.yul\":1326:1382   */\n  iszero\n  tag_60\n  jumpi\n    /* \"#utility.yul\":1362:1380   */\n  tag_61\n  tag_33\n  jump\t// in\ntag_61:\n    /* \"#utility.yul\":1326:1382   */\ntag_60:\n    /* \"#utility.yul\":1412:1416   */\n  0x20\n    /* \"#utility.yul\":1404:1410   */\n  dup3\n    /* \"#utility.yul\":1400:1417   */\n  mul\n    /* \"#utility.yul\":1392:1417   */\n  swap1\n  pop\n    /* \"#utility.yul\":1472:1476   */\n  0x20\n    /* \"#utility.yul\":1466:1470   */\n  dup2\n    /* \"#utility.yul\":1462:1477   */\n  add\n    /* \"#utility.yul\":1454:1477   */\n  swap1\n  pop\n    /* \"#utility.yul\":1173:1484   */\n  swap2\n  swap1\n  pop\n  jump\t// out\n    /* \"#utility.yul\":1490:1607   */\ntag_37:\n    /* \"#utility.yul\":1599:1600   */\n  0x00\n    /* \"#utility.yul\":1596:1597   */\n  dup1\n    /* \"#utility.yul\":1589:1601   */\n  revert\n    /* \"#utility.yul\":1613:1739   */\ntag_38:\n    /* \"#utility.yul\":1650:1657   */\n  0x00\n    /* \"#utility.yul\":1690:1732   */\n  0xffffffffffffffffffffffffffffffffffffffff\n    /* \"#utility.yul\":1683:1688   */\n  dup3\n    /* \"#utility.yul\":1679:1733   */\n  and\n    /* \"#utility.yul\":1668:1733   */\n  swap1\n  pop\n    /* \"#utility.yul\":1613:1739   */\n  swap2\n  swap1\n  pop\n  jump\t// out\n    /* \"#utility.yul\":1745:1841   */\ntag_39:\n    /* \"#utility.yul\":1782:1789   */\n  0x00\n    /* \"#utility.yul\":1811:1835   */\n  tag_65\n    /* \"#utility.yul\":1829:1834   */\n  dup3\n    /* \"#utility.yul\":1811:1835   */\n  tag_38\n  jump\t// in\ntag_65:\n    /* \"#utility.yul\":1800:1835   */\n  swap1\n  pop\n    /* \"#utility.yul\":1745:1841   */\n  swap2\n  swap1\n  pop\n  jump\t// out\n    /* \"#utility.yul\":1847:1969   */\ntag_40:\n    /* \"#utility.yul\":1920:1944   */\n  tag_67\n    /* \"#utility.yul\":1938:1943   */\n  dup2\n    /* \"#utility.yul\":1920:1944   */\n  tag_39\n  jump\t// in\ntag_67:\n    /* \"#utility.yul\":1913:1918   */\n  dup2\n    /* \"#utility.yul\":1910:1945   */\n  eq\n    /* \"#utility.yul\":1900:1963   */\n  tag_68\n  jumpi\n    /* \"#utility.yul\":1959:1960   */\n  0x00\n    /* \"#utility.yul\":1956:1957   */\n  dup1\n    /* \"#utility.yul\":1949:1961   */\n  revert\n    /* \"#utility.yul\":1900:1963   */\ntag_68:\n    /* \"#utility.yul\":1847:1969   */\n  pop\n  jump\t// out\n    /* \"#utility.yul\":1975:2118   */\ntag_41:\n    /* \"#utility.yul\":2032:2037   */\n  0x00\n    /* \"#utility.yul\":2063:2069   */\n  dup2\n    /* \"#utility.yul\":2057:2070   */\n  mload\n    /* \"#utility.yul\":2048:2070   */\n  swap1\n  pop\n    /* \"#utility.yul\":2079:2112   */\n  tag_70\n    /* \"#utility.yul\":2106:2111   */\n  dup2\n    /* \"#utility.yul\":2079:2112   */\n  tag_40\n  jump\t// in\ntag_70:\n    /* \"#utility.yul\":1975:2118   */\n  swap3\n  swap2\n  pop\n  pop\n  jump\t// out\n    /* \"#utility.yul\":2141:2873   */\ntag_42:\n    /* \"#utility.yul\":2248:2253   */\n  0x00\n    /* \"#utility.yul\":2273:2354   */\n  tag_72\n    /* \"#utility.yul\":2289:2353   */\n  tag_73\n    /* \"#utility.yul\":2346:2352   */\n  dup5\n    /* \"#utility.yul\":2289:2353   */\n  tag_36\n  jump\t// in\ntag_73:\n    /* \"#utility.yul\":2273:2354   */\n  tag_35\n  jump\t// in\ntag_72:\n    /* \"#utility.yul\":2264:2354   */\n  swap1\n  pop\n    /* \"#utility.yul\":2374:2379   */\n  dup1\n    /* \"#utility.yul\":2403:2409   */\n  dup4\n    /* \"#utility.yul\":2396:2401   */\n  dup3\n    /* \"#utility.yul\":2389:2410   */\n  mstore\n    /* \"#utility.yul\":2437:2441   */\n  0x20\n    /* \"#utility.yul\":2430:2435   */\n  dup3\n    /* \"#utility.yul\":2426:2442   */\n  add\n    /* \"#utility.yul\":2419:2442   */\n  swap1\n  pop\n    /* \"#utility.yul\":2490:2494   */\n  0x20\n    /* \"#utility.yul\":2482:2488   */\n  dup5\n    /* \"#utility.yul\":2478:2495   */\n  mul\n    /* \"#utility.yul\":2470:2476   */\n  dup4\n    /* \"#utility.yul\":2466:2496   */\n  add\n    /* \"#utility.yul\":2519:2522   */\n  dup6\n    /* \"#utility.yul\":2511:2517   */\n  dup2\n    /* \"#utility.yul\":2508:2523   */\n  gt\n    /* \"#utility.yul\":2505:2627   */\n  iszero\n  tag_74\n  jumpi\n    /* \"#utility.yul\":2538:2617   */\n  tag_75\n  tag_37\n  jump\t// in\ntag_75:\n    /* \"#utility.yul\":2505:2627   */\ntag_74:\n    /* \"#utility.yul\":2653:2659   */\n  dup4\n    /* \"#utility.yul\":2636:2867   */\ntag_76:\n    /* \"#utility.yul\":2670:2676   */\n  dup2\n    /* \"#utility.yul\":2665:2668   */\n  dup2\n    /* \"#utility.yul\":2662:2677   */\n  lt\n    /* \"#utility.yul\":2636:2867   */\n  iszero\n  tag_78\n  jumpi\n    /* \"#utility.yul\":2745:2748   */\n  dup1\n    /* \"#utility.yul\":2774:2822   */\n  tag_79\n    /* \"#utility.yul\":2818:2821   */\n  dup9\n    /* \"#utility.yul\":2806:2816   */\n  dup3\n    /* \"#utility.yul\":2774:2822   */\n  tag_41\n  jump\t// in\ntag_79:\n    /* \"#utility.yul\":2769:2772   */\n  dup5\n    /* \"#utility.yul\":2762:2823   */\n  mstore\n    /* \"#utility.yul\":2852:2856   */\n  0x20\n    /* \"#utility.yul\":2847:2850   */\n  dup5\n    /* \"#utility.yul\":2843:2857   */\n  add\n    /* \"#utility.yul\":2836:2857   */\n  swap4\n  pop\n    /* \"#utility.yul\":2712:2867   */\n  pop\n    /* \"#utility.yul\":2696:2700   */\n  0x20\n    /* \"#utility.yul\":2691:2694   */\n  dup2\n    /* \"#utility.yul\":2687:2701   */\n  add\n    /* \"#utility.yul\":2680:2701   */\n  swap1\n  pop\n    /* \"#utility.yul\":2636:2867   */\n  jump(tag_76)\ntag_78:\n    /* \"#utility.yul\":2640:2661   */\n  pop\n    /* \"#utility.yul\":2254:2873   */\n  pop\n  pop\n    /* \"#utility.yul\":2141:2873   */\n  swap4\n  swap3\n  pop\n  pop\n  pop\n  jump\t// out\n    /* \"#utility.yul\":2896:3281   */\ntag_43:\n    /* \"#utility.yul\":2978:2983   */\n  0x00\n    /* \"#utility.yul\":3027:3030   */\n  dup3\n    /* \"#utility.yul\":3020:3024   */\n  0x1f\n    /* \"#utility.yul\":3012:3018   */\n  dup4\n    /* \"#utility.yul\":3008:3025   */\n  add\n    /* \"#utility.yul\":3004:3031   */\n  slt\n    /* \"#utility.yul\":2994:3116   */\n  tag_81\n  jumpi\n    /* \"#utility.yul\":3035:3114   */\n  tag_82\n  tag_31\n  jump\t// in\ntag_82:\n    /* \"#utility.yul\":2994:3116   */\ntag_81:\n    /* \"#utility.yul\":3145:3151   */\n  dup2\n    /* \"#utility.yul\":3139:3152   */\n  mload\n    /* \"#utility.yul\":3170:3275   */\n  tag_83\n    /* \"#utility.yul\":3271:3274   */\n  dup5\n    /* \"#utility.yul\":3263:3269   */\n  dup3\n    /* \"#utility.yul\":3256:3260   */\n  0x20\n    /* \"#utility.yul\":3248:3254   */\n  dup7\n    /* \"#utility.yul\":3244:3261   */\n  add\n    /* \"#utility.yul\":3170:3275   */\n  tag_42\n  jump\t// in\ntag_83:\n    /* \"#utility.yul\":3161:3275   */\n  swap2\n  pop\n    /* \"#utility.yul\":2984:3281   */\n  pop\n    /* \"#utility.yul\":2896:3281   */\n  swap3\n  swap2\n  pop\n  pop\n  jump\t// out\n    /* \"#utility.yul\":3287:3841   */\ntag_3:\n    /* \"#utility.yul\":3382:3388   */\n  0x00\n    /* \"#utility.yul\":3431:3433   */\n  0x20\n    /* \"#utility.yul\":3419:3428   */\n  dup3\n    /* \"#utility.yul\":3410:3417   */\n  dup5\n    /* \"#utility.yul\":3406:3429   */\n  sub\n    /* \"#utility.yul\":3402:3434   */\n  slt\n    /* \"#utility.yul\":3399:3518   */\n  iszero\n  tag_85\n  jumpi\n    /* \"#utility.yul\":3437:3516   */\n  tag_86\n  tag_29\n  jump\t// in\ntag_86:\n    /* \"#utility.yul\":3399:3518   */\ntag_85:\n    /* \"#utility.yul\":3578:3579   */\n  0x00\n    /* \"#utility.yul\":3567:3576   */\n  dup3\n    /* \"#utility.yul\":3563:3580   */\n  add\n    /* \"#utility.yul\":3557:3581   */\n  mload\n    /* \"#utility.yul\":3608:3626   */\n  0xffffffffffffffff\n    /* \"#utility.yul\":3600:3606   */\n  dup2\n    /* \"#utility.yul\":3597:3627   */\n  gt\n    /* \"#utility.yul\":3594:3711   */\n  iszero\n  tag_87\n  jumpi\n    /* \"#utility.yul\":3630:3709   */\n  tag_88\n  tag_30\n  jump\t// in\ntag_88:\n    /* \"#utility.yul\":3594:3711   */\ntag_87:\n    /* \"#utility.yul\":3735:3824   */\n  tag_89\n    /* \"#utility.yul\":3816:3823   */\n  dup5\n    /* \"#utility.yul\":3807:3813   */\n  dup3\n    /* \"#utility.yul\":3796:3805   */\n  dup6\n    /* \"#utility.yul\":3792:3814   */\n  add\n    /* \"#utility.yul\":3735:3824   */\n  tag_43\n  jump\t// in\ntag_89:\n    /* \"#utility.yul\":3725:3824   */\n  swap2\n  pop\n    /* \"#utility.yul\":3528:3834   */\n  pop\n    /* \"#utility.yul\":3287:3841   */\n  swap3\n  swap2\n  pop\n  pop\n  jump\t// out\n    /* \"#utility.yul\":3847:3965   */\ntag_44:\n    /* \"#utility.yul\":3934:3958   */\n  tag_91\n    /* \"#utility.yul\":3952:3957   */\n  dup2\n    /* \"#utility.yul\":3934:3958   */\n  tag_39\n  jump\t// in\ntag_91:\n    /* \"#utility.yul\":3929:3932   */\n  dup3\n    /* \"#utility.yul\":3922:3959   */\n  mstore\n    /* \"#utility.yul\":3847:3965   */\n  pop\n  pop\n  jump\t// out\n    /* \"#utility.yul\":3971:4193   */\ntag_9:\n    /* \"#utility.yul\":4064:4068   */\n  0x00\n    /* \"#utility.yul\":4102:4104   */\n  0x20\n    /* \"#utility.yul\":4091:4100   */\n  dup3\n    /* \"#utility.yul\":4087:4105   */\n  add\n    /* \"#utility.yul\":4079:4105   */\n  swap1\n  pop\n    /* \"#utility.yul\":4115:4186   */\n  tag_93\n    /* \"#utility.yul\":4183:4184   */\n  0x00\n    /* \"#utility.yul\":4172:4181   */\n  dup4\n    /* \"#utility.yul\":4168:4185   */\n  add\n    /* \"#utility.yul\":4159:4165   */\n  dup5\n    /* \"#utility.yul\":4115:4186   */\n  tag_44\n  jump\t// in\ntag_93:\n    /* \"#utility.yul\":3971:4193   */\n  swap3\n  swap2\n  pop\n  pop\n  jump\t// out\n    /* \"#utility.yul\":4199:4379   */\ntag_18:\n    /* \"#utility.yul\":4247:4324   */\n  0x4e487b7100000000000000000000000000000000000000000000000000000000\n    /* \"#utility.yul\":4244:4245   */\n  0x00\n    /* \"#utility.yul\":4237:4325   */\n  mstore\n    /* \"#utility.yul\":4344:4348   */\n  0x32\n    /* \"#utility.yul\":4341:4342   */\n  0x04\n    /* \"#utility.yul\":4334:4349   */\n  mstore\n    /* \"#utility.yul\":4368:4372   */\n  0x24\n    /* \"#utility.yul\":4365:4366   */\n  0x00\n    /* \"#utility.yul\":4358:4373   */\n  revert\n    /* \"contracts/EligibleTokenRegistry.sol\":1477:8211  contract EligibleTokenRegistry is Ownable {... */\ntag_24:\n  dataSize(sub_0)\n  dup1\n  dataOffset(sub_0)\n  0x00\n  codecopy\n  0x00\n  return\nstop\n\nsub_0: assembly {\n        /* \"contracts/EligibleTokenRegistry.sol\":1477:8211  contract EligibleTokenRegistry is Ownable {... */\n      mstore(0x40, 0x80)\n      callvalue\n      dup1\n      iszero\n      tag_1\n      jumpi\n      0x00\n      dup1\n      revert\n    tag_1:\n      pop\n      jumpi(tag_2, lt(calldatasize, 0x04))\n      shr(0xe0, calldataload(0x00))\n      dup1\n      0x66e305fd\n      gt\n      tag_19\n      jumpi\n      dup1\n      0x8da5cb5b\n      gt\n      tag_20\n      jumpi\n      dup1\n      0x8da5cb5b\n      eq\n      tag_15\n      jumpi\n      dup1\n      0x9b7ecf22\n      eq\n      tag_16\n      jumpi\n      dup1\n      0xd48bfca7\n      eq\n      tag_17\n      jumpi\n      dup1\n      0xf2fde38b\n      eq\n      tag_18\n      jumpi\n      jump(tag_2)\n    tag_20:\n      dup1\n      0x66e305fd\n      eq\n      tag_11\n      jumpi\n      dup1\n      0x715018a6\n      eq\n      tag_12\n      jumpi\n      dup1\n      0x748cdcdc\n      eq\n      tag_13\n      jumpi\n      dup1\n      0x74d0c73f\n      eq\n      tag_14\n      jumpi\n      jump(tag_2)\n    tag_19:\n      dup1\n      0x44b22fdd\n      gt\n      tag_21\n      jumpi\n      dup1\n      0x44b22fdd\n      eq\n      tag_7\n      jumpi\n      dup1\n      0x4ae05c7d\n      eq\n      tag_8\n      jumpi\n      dup1\n      0x5914220d\n      eq\n      tag_9\n      jumpi\n      dup1\n      0x5fa7b584\n      eq\n      tag_10\n      jumpi\n      jump(tag_2)\n    tag_21:\n      dup1\n      0x0e27e3df\n      eq\n      tag_3\n      jumpi\n      dup1\n      0x15baa8c0\n      eq\n      tag_4\n      jumpi\n      dup1\n      0x1efe4b0c\n      eq\n      tag_5\n      jumpi\n      dup1\n      0x3b729b86\n      eq\n      tag_6\n      jumpi\n    tag_2:\n      0x00\n      dup1\n      revert\n        /* \"contracts/EligibleTokenRegistry.sol\":6159:6390  function removeConsumer(address consumer) external onlyOwner {... */\n    tag_3:\n      tag_22\n      0x04\n      dup1\n      calldatasize\n      sub\n      dup2\n      add\n      swap1\n      tag_23\n      swap2\n      swap1\n      tag_24\n      jump\t// in\n    tag_23:\n      tag_25\n      jump\t// in\n    tag_22:\n      stop\n        /* \"contracts/EligibleTokenRegistry.sol\":2349:2378  address[] public consumerList */\n    tag_4:\n      tag_26\n      0x04\n      dup1\n      calldatasize\n      sub\n      dup2\n      add\n      swap1\n      tag_27\n      swap2\n      swap1\n      tag_28\n      jump\t// in\n    tag_27:\n      tag_29\n      jump\t// in\n    tag_26:\n      mload(0x40)\n      tag_30\n      swap2\n      swap1\n      tag_31\n      jump\t// in\n    tag_30:\n      mload(0x40)\n      dup1\n      swap2\n      sub\n      swap1\n      return\n        /* \"contracts/EligibleTokenRegistry.sol\":2292:2343  mapping(address => bool) public registeredConsumers */\n    tag_5:\n      tag_32\n      0x04\n      dup1\n      calldatasize\n      sub\n      dup2\n      add\n      swap1\n      tag_33\n      swap2\n      swap1\n      tag_24\n      jump\t// in\n    tag_33:\n      tag_34\n      jump\t// in\n    tag_32:\n      mload(0x40)\n      tag_35\n      swap2\n      swap1\n      tag_36\n      jump\t// in\n    tag_35:\n      mload(0x40)\n      dup1\n      swap2\n      sub\n      swap1\n      return\n        /* \"contracts/EligibleTokenRegistry.sol\":7652:7753  function getConsumers() external view returns (address[] memory) {... */\n    tag_6:\n      tag_37\n      tag_38\n      jump\t// in\n    tag_37:\n      mload(0x40)\n      tag_39\n      swap2\n      swap1\n      tag_40\n      jump\t// in\n    tag_39:\n      mload(0x40)\n      dup1\n      swap2\n      sub\n      swap1\n      return\n        /* \"contracts/EligibleTokenRegistry.sol\":5745:6085  function registerConsumer(address consumer) external onlyOwner {... */\n    tag_7:\n      tag_41\n      0x04\n      dup1\n      calldatasize\n      sub\n      dup2\n      add\n      swap1\n      tag_42\n      swap2\n      swap1\n      tag_24\n      jump\t// in\n    tag_42:\n      tag_43\n      jump\t// in\n    tag_41:\n      stop\n        /* \"contracts/EligibleTokenRegistry.sol\":4431:4724  function addTokens(address[] calldata tokens) external onlyOwner {... */\n    tag_8:\n      tag_44\n      0x04\n      dup1\n      calldatasize\n      sub\n      dup2\n      add\n      swap1\n      tag_45\n      swap2\n      swap1\n      tag_46\n      jump\t// in\n    tag_45:\n      tag_47\n      jump\t// in\n    tag_44:\n      stop\n        /* \"contracts/EligibleTokenRegistry.sol\":2032:2066  address[] public eligibleTokenList */\n    tag_9:\n      tag_48\n      0x04\n      dup1\n      calldatasize\n      sub\n      dup2\n      add\n      swap1\n      tag_49\n      swap2\n      swap1\n      tag_28\n      jump\t// in\n    tag_49:\n      tag_50\n      jump\t// in\n    tag_48:\n      mload(0x40)\n      tag_51\n      swap2\n      swap1\n      tag_31\n      jump\t// in\n    tag_51:\n      mload(0x40)\n      dup1\n      swap2\n      sub\n      swap1\n      return\n        /* \"contracts/EligibleTokenRegistry.sol\":4996:5242  function removeToken(address token) external onlyOwner {... */\n    tag_10:\n      tag_52\n      0x04\n      dup1\n      calldatasize\n      sub\n      dup2\n      add\n      swap1\n      tag_53\n      swap2\n      swap1\n      tag_24\n      jump\t// in\n    tag_53:\n      tag_54\n      jump\t// in\n    tag_52:\n      stop\n        /* \"contracts/EligibleTokenRegistry.sol\":1803:1845  mapping(address => bool) public isEligible */\n    tag_11:\n      tag_55\n      0x04\n      dup1\n      calldatasize\n      sub\n      dup2\n      add\n      swap1\n      tag_56\n      swap2\n      swap1\n      tag_24\n      jump\t// in\n    tag_56:\n      tag_57\n      jump\t// in\n    tag_55:\n      mload(0x40)\n      tag_58\n      swap2\n      swap1\n      tag_36\n      jump\t// in\n    tag_58:\n      mload(0x40)\n      dup1\n      swap2\n      sub\n      swap1\n      return\n        /* \"@openzeppelin/contracts/access/Ownable.sol\":2293:2394  function renounceOwnership() public virtual onlyOwner {... */\n    tag_12:\n      tag_59\n      tag_60\n      jump\t// in\n    tag_59:\n      stop\n        /* \"contracts/EligibleTokenRegistry.sol\":6826:7364  function getEligibleTokens()... */\n    tag_13:\n      tag_61\n      tag_62\n      jump\t// in\n    tag_61:\n      mload(0x40)\n      tag_63\n      swap2\n      swap1\n      tag_40\n      jump\t// in\n    tag_63:\n      mload(0x40)\n      dup1\n      swap2\n      sub\n      swap1\n      return\n        /* \"contracts/EligibleTokenRegistry.sol\":7464:7572  function totalTokensAdded() external view returns (uint256) {... */\n    tag_14:\n      tag_64\n      tag_65\n      jump\t// in\n    tag_64:\n      mload(0x40)\n      tag_66\n      swap2\n      swap1\n      tag_67\n      jump\t// in\n    tag_66:\n      mload(0x40)\n      dup1\n      swap2\n      sub\n      swap1\n      return\n        /* \"@openzeppelin/contracts/access/Ownable.sol\":1638:1723  function owner() public view virtual returns (address) {... */\n    tag_15:\n      tag_68\n      tag_69\n      jump\t// in\n    tag_68:\n      mload(0x40)\n      tag_70\n      swap2\n      swap1\n      tag_31\n      jump\t// in\n    tag_70:\n      mload(0x40)\n      dup1\n      swap2\n      sub\n      swap1\n      return\n        /* \"contracts/EligibleTokenRegistry.sol\":7923:8209  function areEligible(address[] calldata tokens)... */\n    tag_16:\n      tag_71\n      0x04\n      dup1\n      calldatasize\n      sub\n      dup2\n      add\n      swap1\n      tag_72\n      swap2\n      swap1\n      tag_46\n      jump\t// in\n    tag_72:\n      tag_73\n      jump\t// in\n    tag_71:\n      mload(0x40)\n      tag_74\n      swap2\n      swap1\n      tag_75\n      jump\t// in\n    tag_74:\n      mload(0x40)\n      dup1\n      swap2\n      sub\n      swap1\n      return\n        /* \"contracts/EligibleTokenRegistry.sol\":4110:4314  function addToken(address token) external onlyOwner {... */\n    tag_17:\n      tag_76\n      0x04\n      dup1\n      calldatasize\n      sub\n      dup2\n      add\n      swap1\n      tag_77\n      swap2\n      swap1\n      tag_24\n      jump\t// in\n    tag_77:\n      tag_78\n      jump\t// in\n    tag_76:\n      stop\n        /* \"@openzeppelin/contracts/access/Ownable.sol\":2543:2758  function transferOwnership(address newOwner) public virtual onlyOwner {... */\n    tag_18:\n      tag_79\n      0x04\n      dup1\n      calldatasize\n      sub\n      dup2\n      add\n      swap1\n      tag_80\n      swap2\n      swap1\n      tag_24\n      jump\t// in\n    tag_80:\n      tag_81\n      jump\t// in\n    tag_79:\n      stop\n        /* \"contracts/EligibleTokenRegistry.sol\":6159:6390  function removeConsumer(address consumer) external onlyOwner {... */\n    tag_25:\n        /* \"@openzeppelin/contracts/access/Ownable.sol\":1531:1544  _checkOwner() */\n      tag_83\n        /* \"@openzeppelin/contracts/access/Ownable.sol\":1531:1542  _checkOwner */\n      tag_84\n        /* \"@openzeppelin/contracts/access/Ownable.sol\":1531:1544  _checkOwner() */\n      jump\t// in\n    tag_83:\n        /* \"contracts/EligibleTokenRegistry.sol\":6235:6254  registeredConsumers */\n      0x03\n        /* \"contracts/EligibleTokenRegistry.sol\":6235:6264  registeredConsumers[consumer] */\n      0x00\n        /* \"contracts/EligibleTokenRegistry.sol\":6255:6263  consumer */\n      dup3\n        /* \"contracts/EligibleTokenRegistry.sol\":6235:6264  registeredConsumers[consumer] */\n      0xffffffffffffffffffffffffffffffffffffffff\n      and\n      0xffffffffffffffffffffffffffffffffffffffff\n      and\n      dup2\n      mstore\n      0x20\n      add\n      swap1\n      dup2\n      mstore\n      0x20\n      add\n      0x00\n      keccak256\n      0x00\n      swap1\n      sload\n      swap1\n      0x0100\n      exp\n      swap1\n      div\n      0xff\n      and\n        /* \"contracts/EligibleTokenRegistry.sol\":6230:6296  if (!registeredConsumers[consumer]) revert NotRegistered(consumer) */\n      tag_86\n      jumpi\n        /* \"contracts/EligibleTokenRegistry.sol\":6287:6295  consumer */\n      dup1\n        /* \"contracts/EligibleTokenRegistry.sol\":6273:6296  NotRegistered(consumer) */\n      mload(0x40)\n      0xbfc6c33700000000000000000000000000000000000000000000000000000000\n      dup2\n      mstore\n      0x04\n      add\n      tag_87\n      swap2\n      swap1\n      tag_31\n      jump\t// in\n    tag_87:\n      mload(0x40)\n      dup1\n      swap2\n      sub\n      swap1\n      revert\n        /* \"contracts/EligibleTokenRegistry.sol\":6230:6296  if (!registeredConsumers[consumer]) revert NotRegistered(consumer) */\n    tag_86:\n        /* \"contracts/EligibleTokenRegistry.sol\":6338:6343  false */\n      0x00\n        /* \"contracts/EligibleTokenRegistry.sol\":6306:6325  registeredConsumers */\n      0x03\n        /* \"contracts/EligibleTokenRegistry.sol\":6306:6335  registeredConsumers[consumer] */\n      0x00\n        /* \"contracts/EligibleTokenRegistry.sol\":6326:6334  consumer */\n      dup4\n        /* \"contracts/EligibleTokenRegistry.sol\":6306:6335  registeredConsumers[consumer] */\n      0xffffffffffffffffffffffffffffffffffffffff\n      and\n      0xffffffffffffffffffffffffffffffffffffffff\n      and\n      dup2\n      mstore\n      0x20\n      add\n      swap1\n      dup2\n      mstore\n      0x20\n      add\n      0x00\n      keccak256\n      0x00\n        /* \"contracts/EligibleTokenRegistry.sol\":6306:6343  registeredConsumers[consumer] = false */\n      0x0100\n      exp\n      dup2\n      sload\n      dup2\n      0xff\n      mul\n      not\n      and\n      swap1\n      dup4\n      iszero\n      iszero\n      mul\n      or\n      swap1\n      sstore\n      pop\n        /* \"contracts/EligibleTokenRegistry.sol\":6374:6382  consumer */\n      dup1\n        /* \"contracts/EligibleTokenRegistry.sol\":6358:6383  ConsumerRemoved(consumer) */\n      0xffffffffffffffffffffffffffffffffffffffff\n      and\n      0xe3f5ed5f263f1f01764a96edfc7d025f511ec5f7d180e8816908b78bcf74f098\n      mload(0x40)\n      mload(0x40)\n      dup1\n      swap2\n      sub\n      swap1\n      log2\n        /* \"contracts/EligibleTokenRegistry.sol\":6159:6390  function removeConsumer(address consumer) external onlyOwner {... */\n      pop\n      jump\t// out\n        /* \"contracts/EligibleTokenRegistry.sol\":2349:2378  address[] public consumerList */\n    tag_29:\n      0x04\n      dup2\n      dup2\n      sload\n      dup2\n      lt\n      tag_88\n      jumpi\n      0x00\n      dup1\n      revert\n    tag_88:\n      swap1\n      0x00\n      mstore\n      keccak256(0x00, 0x20)\n      add\n      0x00\n      swap2\n      pop\n      sload\n      swap1\n      0x0100\n      exp\n      swap1\n      div\n      0xffffffffffffffffffffffffffffffffffffffff\n      and\n      dup2\n      jump\t// out\n        /* \"contracts/EligibleTokenRegistry.sol\":2292:2343  mapping(address => bool) public registeredConsumers */\n    tag_34:\n      mstore(0x20, 0x03)\n      dup1\n      0x00\n      mstore\n      keccak256(0x00, 0x40)\n      0x00\n      swap2\n      pop\n      sload\n      swap1\n      0x0100\n      exp\n      swap1\n      div\n      0xff\n      and\n      dup2\n      jump\t// out\n        /* \"contracts/EligibleTokenRegistry.sol\":7652:7753  function getConsumers() external view returns (address[] memory) {... */\n    tag_38:\n        /* \"contracts/EligibleTokenRegistry.sol\":7699:7715  address[] memory */\n      0x60\n        /* \"contracts/EligibleTokenRegistry.sol\":7734:7746  consumerList */\n      0x04\n        /* \"contracts/EligibleTokenRegistry.sol\":7727:7746  return consumerList */\n      dup1\n      sload\n      dup1\n      0x20\n      mul\n      0x20\n      add\n      mload(0x40)\n      swap1\n      dup2\n      add\n      0x40\n      mstore\n      dup1\n      swap3\n      swap2\n      swap1\n      dup2\n      dup2\n      mstore\n      0x20\n      add\n      dup3\n      dup1\n      sload\n      dup1\n      iszero\n      tag_91\n      jumpi\n      0x20\n      mul\n      dup3\n      add\n      swap2\n      swap1\n      0x00\n      mstore\n      keccak256(0x00, 0x20)\n      swap1\n    tag_92:\n      dup2\n      0x00\n      swap1\n      sload\n      swap1\n      0x0100\n      exp\n      swap1\n      div\n      0xffffffffffffffffffffffffffffffffffffffff\n      and\n      0xffffffffffffffffffffffffffffffffffffffff\n      and\n      dup2\n      mstore\n      0x20\n      add\n      swap1\n      0x01\n      add\n      swap1\n      dup1\n      dup4\n      gt\n      tag_92\n      jumpi\n    tag_91:\n      pop\n      pop\n      pop\n      pop\n      pop\n      swap1\n      pop\n        /* \"contracts/EligibleTokenRegistry.sol\":7652:7753  function getConsumers() external view returns (address[] memory) {... */\n      swap1\n      jump\t// out\n        /* \"contracts/EligibleTokenRegistry.sol\":5745:6085  function registerConsumer(address consumer) external onlyOwner {... */\n    tag_43:\n        /* \"@openzeppelin/contracts/access/Ownable.sol\":1531:1544  _checkOwner() */\n      tag_94\n        /* \"@openzeppelin/contracts/access/Ownable.sol\":1531:1542  _checkOwner */\n      tag_84\n        /* \"@openzeppelin/contracts/access/Ownable.sol\":1531:1544  _checkOwner() */\n      jump\t// in\n    tag_94:\n        /* \"contracts/EligibleTokenRegistry.sol\":5842:5843  0 */\n      0x00\n        /* \"contracts/EligibleTokenRegistry.sol\":5822:5844  consumer == address(0) */\n      0xffffffffffffffffffffffffffffffffffffffff\n      and\n        /* \"contracts/EligibleTokenRegistry.sol\":5822:5830  consumer */\n      dup2\n        /* \"contracts/EligibleTokenRegistry.sol\":5822:5844  consumer == address(0) */\n      0xffffffffffffffffffffffffffffffffffffffff\n      and\n      sub\n        /* \"contracts/EligibleTokenRegistry.sol\":5818:5873  if (consumer == address(0))        revert ZeroAddress() */\n      tag_96\n      jumpi\n        /* \"contracts/EligibleTokenRegistry.sol\":5860:5873  ZeroAddress() */\n      mload(0x40)\n      0xd92e233d00000000000000000000000000000000000000000000000000000000\n      dup2\n      mstore\n      0x04\n      add\n      mload(0x40)\n      dup1\n      swap2\n      sub\n      swap1\n      revert\n        /* \"contracts/EligibleTokenRegistry.sol\":5818:5873  if (consumer == address(0))        revert ZeroAddress() */\n    tag_96:\n        /* \"contracts/EligibleTokenRegistry.sol\":5887:5906  registeredConsumers */\n      0x03\n        /* \"contracts/EligibleTokenRegistry.sol\":5887:5916  registeredConsumers[consumer] */\n      0x00\n        /* \"contracts/EligibleTokenRegistry.sol\":5907:5915  consumer */\n      dup3\n        /* \"contracts/EligibleTokenRegistry.sol\":5887:5916  registeredConsumers[consumer] */\n      0xffffffffffffffffffffffffffffffffffffffff\n      and\n      0xffffffffffffffffffffffffffffffffffffffff\n      and\n      dup2\n      mstore\n      0x20\n      add\n      swap1\n      dup2\n      mstore\n      0x20\n      add\n      0x00\n      keccak256\n      0x00\n      swap1\n      sload\n      swap1\n      0x0100\n      exp\n      swap1\n      div\n      0xff\n      and\n        /* \"contracts/EligibleTokenRegistry.sol\":5883:5952  if (registeredConsumers[consumer]) revert AlreadyRegistered(consumer) */\n      iszero\n      tag_97\n      jumpi\n        /* \"contracts/EligibleTokenRegistry.sol\":5943:5951  consumer */\n      dup1\n        /* \"contracts/EligibleTokenRegistry.sol\":5925:5952  AlreadyRegistered(consumer) */\n      mload(0x40)\n      0x45ed80e900000000000000000000000000000000000000000000000000000000\n      dup2\n      mstore\n      0x04\n      add\n      tag_98\n      swap2\n      swap1\n      tag_31\n      jump\t// in\n    tag_98:\n      mload(0x40)\n      dup1\n      swap2\n      sub\n      swap1\n      revert\n        /* \"contracts/EligibleTokenRegistry.sol\":5883:5952  if (registeredConsumers[consumer]) revert AlreadyRegistered(consumer) */\n    tag_97:\n        /* \"contracts/EligibleTokenRegistry.sol\":5994:5998  true */\n      0x01\n        /* \"contracts/EligibleTokenRegistry.sol\":5962:5981  registeredConsumers */\n      0x03\n        /* \"contracts/EligibleTokenRegistry.sol\":5962:5991  registeredConsumers[consumer] */\n      0x00\n        /* \"contracts/EligibleTokenRegistry.sol\":5982:5990  consumer */\n      dup4\n        /* \"contracts/EligibleTokenRegistry.sol\":5962:5991  registeredConsumers[consumer] */\n      0xffffffffffffffffffffffffffffffffffffffff\n      and\n      0xffffffffffffffffffffffffffffffffffffffff\n      and\n      dup2\n      mstore\n      0x20\n      add\n      swap1\n      dup2\n      mstore\n      0x20\n      add\n      0x00\n      keccak256\n      0x00\n        /* \"contracts/EligibleTokenRegistry.sol\":5962:5998  registeredConsumers[consumer] = true */\n      0x0100\n      exp\n      dup2\n      sload\n      dup2\n      0xff\n      mul\n      not\n      and\n      swap1\n      dup4\n      iszero\n      iszero\n      mul\n      or\n      swap1\n      sstore\n      pop\n        /* \"contracts/EligibleTokenRegistry.sol\":6008:6020  consumerList */\n      0x04\n        /* \"contracts/EligibleTokenRegistry.sol\":6026:6034  consumer */\n      dup2\n        /* \"contracts/EligibleTokenRegistry.sol\":6008:6035  consumerList.push(consumer) */\n      swap1\n      dup1\n      0x01\n      dup2\n      sload\n      add\n      dup1\n      dup3\n      sstore\n      dup1\n      swap2\n      pop\n      pop\n      0x01\n      swap1\n      sub\n      swap1\n      0x00\n      mstore\n      keccak256(0x00, 0x20)\n      add\n      0x00\n      swap1\n      swap2\n      swap1\n      swap2\n      swap1\n      swap2\n      0x0100\n      exp\n      dup2\n      sload\n      dup2\n      0xffffffffffffffffffffffffffffffffffffffff\n      mul\n      not\n      and\n      swap1\n      dup4\n      0xffffffffffffffffffffffffffffffffffffffff\n      and\n      mul\n      or\n      swap1\n      sstore\n      pop\n        /* \"contracts/EligibleTokenRegistry.sol\":6069:6077  consumer */\n      dup1\n        /* \"contracts/EligibleTokenRegistry.sol\":6050:6078  ConsumerRegistered(consumer) */\n      0xffffffffffffffffffffffffffffffffffffffff\n      and\n      0x20f06cf92183fb3bd87d074ec788beb83367293faf2388c274b4bad9aecae725\n      mload(0x40)\n      mload(0x40)\n      dup1\n      swap2\n      sub\n      swap1\n      log2\n        /* \"contracts/EligibleTokenRegistry.sol\":5745:6085  function registerConsumer(address consumer) external onlyOwner {... */\n      pop\n      jump\t// out\n        /* \"contracts/EligibleTokenRegistry.sol\":4431:4724  function addTokens(address[] calldata tokens) external onlyOwner {... */\n    tag_47:\n        /* \"@openzeppelin/contracts/access/Ownable.sol\":1531:1544  _checkOwner() */\n      tag_101\n        /* \"@openzeppelin/contracts/access/Ownable.sol\":1531:1542  _checkOwner */\n      tag_84\n        /* \"@openzeppelin/contracts/access/Ownable.sol\":1531:1544  _checkOwner() */\n      jump\t// in\n    tag_101:\n        /* \"contracts/EligibleTokenRegistry.sol\":4511:4520  uint256 i */\n      0x00\n        /* \"contracts/EligibleTokenRegistry.sol\":4506:4718  for (uint256 i = 0; i < tokens.length; i++) {... */\n    tag_103:\n        /* \"contracts/EligibleTokenRegistry.sol\":4530:4536  tokens */\n      dup3\n      dup3\n        /* \"contracts/EligibleTokenRegistry.sol\":4530:4543  tokens.length */\n      swap1\n      pop\n        /* \"contracts/EligibleTokenRegistry.sol\":4526:4527  i */\n      dup2\n        /* \"contracts/EligibleTokenRegistry.sol\":4526:4543  i < tokens.length */\n      lt\n        /* \"contracts/EligibleTokenRegistry.sol\":4506:4718  for (uint256 i = 0; i < tokens.length; i++) {... */\n      iszero\n      tag_104\n      jumpi\n        /* \"contracts/EligibleTokenRegistry.sol\":4589:4590  0 */\n      0x00\n        /* \"contracts/EligibleTokenRegistry.sol\":4568:4591  tokens[i] == address(0) */\n      0xffffffffffffffffffffffffffffffffffffffff\n      and\n        /* \"contracts/EligibleTokenRegistry.sol\":4568:4574  tokens */\n      dup4\n      dup4\n        /* \"contracts/EligibleTokenRegistry.sol\":4575:4576  i */\n      dup4\n        /* \"contracts/EligibleTokenRegistry.sol\":4568:4577  tokens[i] */\n      dup2\n      dup2\n      lt\n      tag_106\n      jumpi\n      tag_107\n      tag_108\n      jump\t// in\n    tag_107:\n    tag_106:\n      swap1\n      pop\n      0x20\n      mul\n      add\n      0x20\n      dup2\n      add\n      swap1\n      tag_109\n      swap2\n      swap1\n      tag_24\n      jump\t// in\n    tag_109:\n        /* \"contracts/EligibleTokenRegistry.sol\":4568:4591  tokens[i] == address(0) */\n      0xffffffffffffffffffffffffffffffffffffffff\n      and\n      sub\n        /* \"contracts/EligibleTokenRegistry.sol\":4564:4613  if (tokens[i] == address(0)) revert ZeroAddress() */\n      tag_110\n      jumpi\n        /* \"contracts/EligibleTokenRegistry.sol\":4600:4613  ZeroAddress() */\n      mload(0x40)\n      0xd92e233d00000000000000000000000000000000000000000000000000000000\n      dup2\n      mstore\n      0x04\n      add\n      mload(0x40)\n      dup1\n      swap2\n      sub\n      swap1\n      revert\n        /* \"contracts/EligibleTokenRegistry.sol\":4564:4613  if (tokens[i] == address(0)) revert ZeroAddress() */\n    tag_110:\n        /* \"contracts/EligibleTokenRegistry.sol\":4632:4642  isEligible */\n      0x01\n        /* \"contracts/EligibleTokenRegistry.sol\":4632:4653  isEligible[tokens[i]] */\n      0x00\n        /* \"contracts/EligibleTokenRegistry.sol\":4643:4649  tokens */\n      dup5\n      dup5\n        /* \"contracts/EligibleTokenRegistry.sol\":4650:4651  i */\n      dup5\n        /* \"contracts/EligibleTokenRegistry.sol\":4643:4652  tokens[i] */\n      dup2\n      dup2\n      lt\n      tag_111\n      jumpi\n      tag_112\n      tag_108\n      jump\t// in\n    tag_112:\n    tag_111:\n      swap1\n      pop\n      0x20\n      mul\n      add\n      0x20\n      dup2\n      add\n      swap1\n      tag_113\n      swap2\n      swap1\n      tag_24\n      jump\t// in\n    tag_113:\n        /* \"contracts/EligibleTokenRegistry.sol\":4632:4653  isEligible[tokens[i]] */\n      0xffffffffffffffffffffffffffffffffffffffff\n      and\n      0xffffffffffffffffffffffffffffffffffffffff\n      and\n      dup2\n      mstore\n      0x20\n      add\n      swap1\n      dup2\n      mstore\n      0x20\n      add\n      0x00\n      keccak256\n      0x00\n      swap1\n      sload\n      swap1\n      0x0100\n      exp\n      swap1\n      div\n      0xff\n      and\n        /* \"contracts/EligibleTokenRegistry.sol\":4627:4708  if (!isEligible[tokens[i]]) {... */\n      tag_114\n      jumpi\n        /* \"contracts/EligibleTokenRegistry.sol\":4673:4693  _addToken(tokens[i]) */\n      tag_115\n        /* \"contracts/EligibleTokenRegistry.sol\":4683:4689  tokens */\n      dup4\n      dup4\n        /* \"contracts/EligibleTokenRegistry.sol\":4690:4691  i */\n      dup4\n        /* \"contracts/EligibleTokenRegistry.sol\":4683:4692  tokens[i] */\n      dup2\n      dup2\n      lt\n      tag_116\n      jumpi\n      tag_117\n      tag_108\n      jump\t// in\n    tag_117:\n    tag_116:\n      swap1\n      pop\n      0x20\n      mul\n      add\n      0x20\n      dup2\n      add\n      swap1\n      tag_118\n      swap2\n      swap1\n      tag_24\n      jump\t// in\n    tag_118:\n        /* \"contracts/EligibleTokenRegistry.sol\":4673:4682  _addToken */\n      tag_119\n        /* \"contracts/EligibleTokenRegistry.sol\":4673:4693  _addToken(tokens[i]) */\n      jump\t// in\n    tag_115:\n        /* \"contracts/EligibleTokenRegistry.sol\":4627:4708  if (!isEligible[tokens[i]]) {... */\n    tag_114:\n        /* \"contracts/EligibleTokenRegistry.sol\":4545:4548  i++ */\n      dup1\n      dup1\n      0x01\n      add\n      swap2\n      pop\n      pop\n        /* \"contracts/EligibleTokenRegistry.sol\":4506:4718  for (uint256 i = 0; i < tokens.length; i++) {... */\n      jump(tag_103)\n    tag_104:\n      pop\n        /* \"contracts/EligibleTokenRegistry.sol\":4431:4724  function addTokens(address[] calldata tokens) external onlyOwner {... */\n      pop\n      pop\n      jump\t// out\n        /* \"contracts/EligibleTokenRegistry.sol\":2032:2066  address[] public eligibleTokenList */\n    tag_50:\n      0x02\n      dup2\n      dup2\n      sload\n      dup2\n      lt\n      tag_120\n      jumpi\n      0x00\n      dup1\n      revert\n    tag_120:\n      swap1\n      0x00\n      mstore\n      keccak256(0x00, 0x20)\n      add\n      0x00\n      swap2\n      pop\n      sload\n      swap1\n      0x0100\n      exp\n      swap1\n      div\n      0xffffffffffffffffffffffffffffffffffffffff\n      and\n      dup2\n      jump\t// out\n        /* \"contracts/EligibleTokenRegistry.sol\":4996:5242  function removeToken(address token) external onlyOwner {... */\n    tag_54:\n        /* \"@openzeppelin/contracts/access/Ownable.sol\":1531:1544  _checkOwner() */\n      tag_123\n        /* \"@openzeppelin/contracts/access/Ownable.sol\":1531:1542  _checkOwner */\n      tag_84\n        /* \"@openzeppelin/contracts/access/Ownable.sol\":1531:1544  _checkOwner() */\n      jump\t// in\n    tag_123:\n        /* \"contracts/EligibleTokenRegistry.sol\":5082:5083  0 */\n      0x00\n        /* \"contracts/EligibleTokenRegistry.sol\":5065:5084  token == address(0) */\n      0xffffffffffffffffffffffffffffffffffffffff\n      and\n        /* \"contracts/EligibleTokenRegistry.sol\":5065:5070  token */\n      dup2\n        /* \"contracts/EligibleTokenRegistry.sol\":5065:5084  token == address(0) */\n      0xffffffffffffffffffffffffffffffffffffffff\n      and\n      sub\n        /* \"contracts/EligibleTokenRegistry.sol\":5061:5106  if (token == address(0)) revert ZeroAddress() */\n      tag_125\n      jumpi\n        /* \"contracts/EligibleTokenRegistry.sol\":5093:5106  ZeroAddress() */\n      mload(0x40)\n      0xd92e233d00000000000000000000000000000000000000000000000000000000\n      dup2\n      mstore\n      0x04\n      add\n      mload(0x40)\n      dup1\n      swap2\n      sub\n      swap1\n      revert\n        /* \"contracts/EligibleTokenRegistry.sol\":5061:5106  if (token == address(0)) revert ZeroAddress() */\n    tag_125:\n        /* \"contracts/EligibleTokenRegistry.sol\":5121:5131  isEligible */\n      0x01\n        /* \"contracts/EligibleTokenRegistry.sol\":5121:5138  isEligible[token] */\n      0x00\n        /* \"contracts/EligibleTokenRegistry.sol\":5132:5137  token */\n      dup3\n        /* \"contracts/EligibleTokenRegistry.sol\":5121:5138  isEligible[token] */\n      0xffffffffffffffffffffffffffffffffffffffff\n      and\n      0xffffffffffffffffffffffffffffffffffffffff\n      and\n      dup2\n      mstore\n      0x20\n      add\n      swap1\n      dup2\n      mstore\n      0x20\n      add\n      0x00\n      keccak256\n      0x00\n      swap1\n      sload\n      swap1\n      0x0100\n      exp\n      swap1\n      div\n      0xff\n      and\n        /* \"contracts/EligibleTokenRegistry.sol\":5116:5166  if (!isEligible[token])  revert NotEligible(token) */\n      tag_126\n      jumpi\n        /* \"contracts/EligibleTokenRegistry.sol\":5160:5165  token */\n      dup1\n        /* \"contracts/EligibleTokenRegistry.sol\":5148:5166  NotEligible(token) */\n      mload(0x40)\n      0x3a1c154500000000000000000000000000000000000000000000000000000000\n      dup2\n      mstore\n      0x04\n      add\n      tag_127\n      swap2\n      swap1\n      tag_31\n      jump\t// in\n    tag_127:\n      mload(0x40)\n      dup1\n      swap2\n      sub\n      swap1\n      revert\n        /* \"contracts/EligibleTokenRegistry.sol\":5116:5166  if (!isEligible[token])  revert NotEligible(token) */\n    tag_126:\n        /* \"contracts/EligibleTokenRegistry.sol\":5196:5201  false */\n      0x00\n        /* \"contracts/EligibleTokenRegistry.sol\":5176:5186  isEligible */\n      0x01\n        /* \"contracts/EligibleTokenRegistry.sol\":5176:5193  isEligible[token] */\n      0x00\n        /* \"contracts/EligibleTokenRegistry.sol\":5187:5192  token */\n      dup4\n        /* \"contracts/EligibleTokenRegistry.sol\":5176:5193  isEligible[token] */\n      0xffffffffffffffffffffffffffffffffffffffff\n      and\n      0xffffffffffffffffffffffffffffffffffffffff\n      and\n      dup2\n      mstore\n      0x20\n      add\n      swap1\n      dup2\n      mstore\n      0x20\n      add\n      0x00\n      keccak256\n      0x00\n        /* \"contracts/EligibleTokenRegistry.sol\":5176:5201  isEligible[token] = false */\n      0x0100\n      exp\n      dup2\n      sload\n      dup2\n      0xff\n      mul\n      not\n      and\n      swap1\n      dup4\n      iszero\n      iszero\n      mul\n      or\n      swap1\n      sstore\n      pop\n        /* \"contracts/EligibleTokenRegistry.sol\":5229:5234  token */\n      dup1\n        /* \"contracts/EligibleTokenRegistry.sol\":5216:5235  TokenRemoved(token) */\n      0xffffffffffffffffffffffffffffffffffffffff\n      and\n      0x4c910b69fe65a61f7531b9c5042b2329ca7179c77290aa7e2eb3afa3c8511fd3\n      mload(0x40)\n      mload(0x40)\n      dup1\n      swap2\n      sub\n      swap1\n      log2\n        /* \"contracts/EligibleTokenRegistry.sol\":4996:5242  function removeToken(address token) external onlyOwner {... */\n      pop\n      jump\t// out\n        /* \"contracts/EligibleTokenRegistry.sol\":1803:1845  mapping(address => bool) public isEligible */\n    tag_57:\n      mstore(0x20, 0x01)\n      dup1\n      0x00\n      mstore\n      keccak256(0x00, 0x40)\n      0x00\n      swap2\n      pop\n      sload\n      swap1\n      0x0100\n      exp\n      swap1\n      div\n      0xff\n      and\n      dup2\n      jump\t// out\n        /* \"@openzeppelin/contracts/access/Ownable.sol\":2293:2394  function renounceOwnership() public virtual onlyOwner {... */\n    tag_60:\n        /* \"@openzeppelin/contracts/access/Ownable.sol\":1531:1544  _checkOwner() */\n      tag_129\n        /* \"@openzeppelin/contracts/access/Ownable.sol\":1531:1542  _checkOwner */\n      tag_84\n        /* \"@openzeppelin/contracts/access/Ownable.sol\":1531:1544  _checkOwner() */\n      jump\t// in\n    tag_129:\n        /* \"@openzeppelin/contracts/access/Ownable.sol\":2357:2387  _transferOwnership(address(0)) */\n      tag_131\n        /* \"@openzeppelin/contracts/access/Ownable.sol\":2384:2385  0 */\n      0x00\n        /* \"@openzeppelin/contracts/access/Ownable.sol\":2357:2375  _transferOwnership */\n      tag_132\n        /* \"@openzeppelin/contracts/access/Ownable.sol\":2357:2387  _transferOwnership(address(0)) */\n      jump\t// in\n    tag_131:\n        /* \"@openzeppelin/contracts/access/Ownable.sol\":2293:2394  function renounceOwnership() public virtual onlyOwner {... */\n      jump\t// out\n        /* \"contracts/EligibleTokenRegistry.sol\":6826:7364  function getEligibleTokens()... */\n    tag_62:\n        /* \"contracts/EligibleTokenRegistry.sol\":6902:6927  address[] memory eligible */\n      0x60\n        /* \"contracts/EligibleTokenRegistry.sol\":6943:6956  uint256 count */\n      0x00\n        /* \"contracts/EligibleTokenRegistry.sol\":6975:6984  uint256 i */\n      dup1\n        /* \"contracts/EligibleTokenRegistry.sol\":6970:7095  for (uint256 i = 0; i < eligibleTokenList.length; i++) {... */\n    tag_134:\n        /* \"contracts/EligibleTokenRegistry.sol\":6994:7011  eligibleTokenList */\n      0x02\n        /* \"contracts/EligibleTokenRegistry.sol\":6994:7018  eligibleTokenList.length */\n      dup1\n      sload\n      swap1\n      pop\n        /* \"contracts/EligibleTokenRegistry.sol\":6990:6991  i */\n      dup2\n        /* \"contracts/EligibleTokenRegistry.sol\":6990:7018  i < eligibleTokenList.length */\n      lt\n        /* \"contracts/EligibleTokenRegistry.sol\":6970:7095  for (uint256 i = 0; i < eligibleTokenList.length; i++) {... */\n      iszero\n      tag_135\n      jumpi\n        /* \"contracts/EligibleTokenRegistry.sol\":7043:7053  isEligible */\n      0x01\n        /* \"contracts/EligibleTokenRegistry.sol\":7043:7075  isEligible[eligibleTokenList[i]] */\n      0x00\n        /* \"contracts/EligibleTokenRegistry.sol\":7054:7071  eligibleTokenList */\n      0x02\n        /* \"contracts/EligibleTokenRegistry.sol\":7072:7073  i */\n      dup4\n        /* \"contracts/EligibleTokenRegistry.sol\":7054:7074  eligibleTokenList[i] */\n      dup2\n      sload\n      dup2\n      lt\n      tag_137\n      jumpi\n      tag_138\n      tag_108\n      jump\t// in\n    tag_138:\n    tag_137:\n      swap1\n      0x00\n      mstore\n      keccak256(0x00, 0x20)\n      add\n      0x00\n      swap1\n      sload\n      swap1\n      0x0100\n      exp\n      swap1\n      div\n      0xffffffffffffffffffffffffffffffffffffffff\n      and\n        /* \"contracts/EligibleTokenRegistry.sol\":7043:7075  isEligible[eligibleTokenList[i]] */\n      0xffffffffffffffffffffffffffffffffffffffff\n      and\n      0xffffffffffffffffffffffffffffffffffffffff\n      and\n      dup2\n      mstore\n      0x20\n      add\n      swap1\n      dup2\n      mstore\n      0x20\n      add\n      0x00\n      keccak256\n      0x00\n      swap1\n      sload\n      swap1\n      0x0100\n      exp\n      swap1\n      div\n      0xff\n      and\n        /* \"contracts/EligibleTokenRegistry.sol\":7039:7084  if (isEligible[eligibleTokenList[i]]) count++ */\n      iszero\n      tag_140\n      jumpi\n        /* \"contracts/EligibleTokenRegistry.sol\":7077:7084  count++ */\n      dup2\n      dup1\n      tag_141\n      swap1\n      tag_142\n      jump\t// in\n    tag_141:\n      swap3\n      pop\n      pop\n        /* \"contracts/EligibleTokenRegistry.sol\":7039:7084  if (isEligible[eligibleTokenList[i]]) count++ */\n    tag_140:\n        /* \"contracts/EligibleTokenRegistry.sol\":7020:7023  i++ */\n      dup1\n      dup1\n      0x01\n      add\n      swap2\n      pop\n      pop\n        /* \"contracts/EligibleTokenRegistry.sol\":6970:7095  for (uint256 i = 0; i < eligibleTokenList.length; i++) {... */\n      jump(tag_134)\n    tag_135:\n      pop\n        /* \"contracts/EligibleTokenRegistry.sol\":7129:7134  count */\n      dup1\n        /* \"contracts/EligibleTokenRegistry.sol\":7115:7135  new address[](count) */\n      0xffffffffffffffff\n      dup2\n      gt\n      iszero\n      tag_143\n      jumpi\n      tag_144\n      tag_145\n      jump\t// in\n    tag_144:\n    tag_143:\n      mload(0x40)\n      swap1\n      dup1\n      dup3\n      mstore\n      dup1\n      0x20\n      mul\n      0x20\n      add\n      dup3\n      add\n      0x40\n      mstore\n      dup1\n      iszero\n      tag_146\n      jumpi\n      dup2\n      0x20\n      add\n      0x20\n      dup3\n      mul\n      dup1\n      calldatasize\n      dup4\n      calldatacopy\n      dup1\n      dup3\n      add\n      swap2\n      pop\n      pop\n      swap1\n      pop\n    tag_146:\n      pop\n        /* \"contracts/EligibleTokenRegistry.sol\":7104:7135  eligible = new address[](count) */\n      swap2\n      pop\n        /* \"contracts/EligibleTokenRegistry.sol\":7145:7156  uint256 idx */\n      0x00\n        /* \"contracts/EligibleTokenRegistry.sol\":7175:7184  uint256 i */\n      dup1\n        /* \"contracts/EligibleTokenRegistry.sol\":7170:7358  for (uint256 i = 0; i < eligibleTokenList.length; i++) {... */\n    tag_147:\n        /* \"contracts/EligibleTokenRegistry.sol\":7194:7211  eligibleTokenList */\n      0x02\n        /* \"contracts/EligibleTokenRegistry.sol\":7194:7218  eligibleTokenList.length */\n      dup1\n      sload\n      swap1\n      pop\n        /* \"contracts/EligibleTokenRegistry.sol\":7190:7191  i */\n      dup2\n        /* \"contracts/EligibleTokenRegistry.sol\":7190:7218  i < eligibleTokenList.length */\n      lt\n        /* \"contracts/EligibleTokenRegistry.sol\":7170:7358  for (uint256 i = 0; i < eligibleTokenList.length; i++) {... */\n      iszero\n      tag_148\n      jumpi\n        /* \"contracts/EligibleTokenRegistry.sol\":7243:7253  isEligible */\n      0x01\n        /* \"contracts/EligibleTokenRegistry.sol\":7243:7275  isEligible[eligibleTokenList[i]] */\n      0x00\n        /* \"contracts/EligibleTokenRegistry.sol\":7254:7271  eligibleTokenList */\n      0x02\n        /* \"contracts/EligibleTokenRegistry.sol\":7272:7273  i */\n      dup4\n        /* \"contracts/EligibleTokenRegistry.sol\":7254:7274  eligibleTokenList[i] */\n      dup2\n      sload\n      dup2\n      lt\n      tag_150\n      jumpi\n      tag_151\n      tag_108\n      jump\t// in\n    tag_151:\n    tag_150:\n      swap1\n      0x00\n      mstore\n      keccak256(0x00, 0x20)\n      add\n      0x00\n      swap1\n      sload\n      swap1\n      0x0100\n      exp\n      swap1\n      div\n      0xffffffffffffffffffffffffffffffffffffffff\n      and\n        /* \"contracts/EligibleTokenRegistry.sol\":7243:7275  isEligible[eligibleTokenList[i]] */\n      0xffffffffffffffffffffffffffffffffffffffff\n      and\n      0xffffffffffffffffffffffffffffffffffffffff\n      and\n      dup2\n      mstore\n      0x20\n      add\n      swap1\n      dup2\n      mstore\n      0x20\n      add\n      0x00\n      keccak256\n      0x00\n      swap1\n      sload\n      swap1\n      0x0100\n      exp\n      swap1\n      div\n      0xff\n      and\n        /* \"contracts/EligibleTokenRegistry.sol\":7239:7348  if (isEligible[eligibleTokenList[i]]) {... */\n      iszero\n      tag_153\n      jumpi\n        /* \"contracts/EligibleTokenRegistry.sol\":7313:7330  eligibleTokenList */\n      0x02\n        /* \"contracts/EligibleTokenRegistry.sol\":7331:7332  i */\n      dup2\n        /* \"contracts/EligibleTokenRegistry.sol\":7313:7333  eligibleTokenList[i] */\n      dup2\n      sload\n      dup2\n      lt\n      tag_154\n      jumpi\n      tag_155\n      tag_108\n      jump\t// in\n    tag_155:\n    tag_154:\n      swap1\n      0x00\n      mstore\n      keccak256(0x00, 0x20)\n      add\n      0x00\n      swap1\n      sload\n      swap1\n      0x0100\n      exp\n      swap1\n      div\n      0xffffffffffffffffffffffffffffffffffffffff\n      and\n        /* \"contracts/EligibleTokenRegistry.sol\":7295:7303  eligible */\n      dup5\n        /* \"contracts/EligibleTokenRegistry.sol\":7304:7309  idx++ */\n      dup4\n      dup1\n      tag_157\n      swap1\n      tag_142\n      jump\t// in\n    tag_157:\n      swap5\n      pop\n        /* \"contracts/EligibleTokenRegistry.sol\":7295:7310  eligible[idx++] */\n      dup2\n      mload\n      dup2\n      lt\n      tag_158\n      jumpi\n      tag_159\n      tag_108\n      jump\t// in\n    tag_159:\n    tag_158:\n      0x20\n      mul\n      0x20\n      add\n      add\n        /* \"contracts/EligibleTokenRegistry.sol\":7295:7333  eligible[idx++] = eligibleTokenList[i] */\n      swap1\n      0xffffffffffffffffffffffffffffffffffffffff\n      and\n      swap1\n      dup2\n      0xffffffffffffffffffffffffffffffffffffffff\n      and\n      dup2\n      mstore\n      pop\n      pop\n        /* \"contracts/EligibleTokenRegistry.sol\":7239:7348  if (isEligible[eligibleTokenList[i]]) {... */\n    tag_153:\n        /* \"contracts/EligibleTokenRegistry.sol\":7220:7223  i++ */\n      dup1\n      dup1\n      0x01\n      add\n      swap2\n      pop\n      pop\n        /* \"contracts/EligibleTokenRegistry.sol\":7170:7358  for (uint256 i = 0; i < eligibleTokenList.length; i++) {... */\n      jump(tag_147)\n    tag_148:\n      pop\n        /* \"contracts/EligibleTokenRegistry.sol\":6933:7364  {... */\n      pop\n      pop\n        /* \"contracts/EligibleTokenRegistry.sol\":6826:7364  function getEligibleTokens()... */\n      swap1\n      jump\t// out\n        /* \"contracts/EligibleTokenRegistry.sol\":7464:7572  function totalTokensAdded() external view returns (uint256) {... */\n    tag_65:\n        /* \"contracts/EligibleTokenRegistry.sol\":7515:7522  uint256 */\n      0x00\n        /* \"contracts/EligibleTokenRegistry.sol\":7541:7558  eligibleTokenList */\n      0x02\n        /* \"contracts/EligibleTokenRegistry.sol\":7541:7565  eligibleTokenList.length */\n      dup1\n      sload\n      swap1\n      pop\n        /* \"contracts/EligibleTokenRegistry.sol\":7534:7565  return eligibleTokenList.length */\n      swap1\n      pop\n        /* \"contracts/EligibleTokenRegistry.sol\":7464:7572  function totalTokensAdded() external view returns (uint256) {... */\n      swap1\n      jump\t// out\n        /* \"@openzeppelin/contracts/access/Ownable.sol\":1638:1723  function owner() public view virtual returns (address) {... */\n    tag_69:\n        /* \"@openzeppelin/contracts/access/Ownable.sol\":1684:1691  address */\n      0x00\n        /* \"@openzeppelin/contracts/access/Ownable.sol\":1710:1716  _owner */\n      dup1\n      0x00\n      swap1\n      sload\n      swap1\n      0x0100\n      exp\n      swap1\n      div\n      0xffffffffffffffffffffffffffffffffffffffff\n      and\n        /* \"@openzeppelin/contracts/access/Ownable.sol\":1703:1716  return _owner */\n      swap1\n      pop\n        /* \"@openzeppelin/contracts/access/Ownable.sol\":1638:1723  function owner() public view virtual returns (address) {... */\n      swap1\n      jump\t// out\n        /* \"contracts/EligibleTokenRegistry.sol\":7923:8209  function areEligible(address[] calldata tokens)... */\n    tag_73:\n        /* \"contracts/EligibleTokenRegistry.sol\":8018:8039  bool[] memory results */\n      0x60\n        /* \"contracts/EligibleTokenRegistry.sol\":8076:8082  tokens */\n      dup3\n      dup3\n        /* \"contracts/EligibleTokenRegistry.sol\":8076:8089  tokens.length */\n      swap1\n      pop\n        /* \"contracts/EligibleTokenRegistry.sol\":8065:8090  new bool[](tokens.length) */\n      0xffffffffffffffff\n      dup2\n      gt\n      iszero\n      tag_163\n      jumpi\n      tag_164\n      tag_145\n      jump\t// in\n    tag_164:\n    tag_163:\n      mload(0x40)\n      swap1\n      dup1\n      dup3\n      mstore\n      dup1\n      0x20\n      mul\n      0x20\n      add\n      dup3\n      add\n      0x40\n      mstore\n      dup1\n      iszero\n      tag_165\n      jumpi\n      dup2\n      0x20\n      add\n      0x20\n      dup3\n      mul\n      dup1\n      calldatasize\n      dup4\n      calldatacopy\n      dup1\n      dup3\n      add\n      swap2\n      pop\n      pop\n      swap1\n      pop\n    tag_165:\n      pop\n        /* \"contracts/EligibleTokenRegistry.sol\":8055:8090  results = new bool[](tokens.length) */\n      swap1\n      pop\n        /* \"contracts/EligibleTokenRegistry.sol\":8105:8114  uint256 i */\n      0x00\n        /* \"contracts/EligibleTokenRegistry.sol\":8100:8203  for (uint256 i = 0; i < tokens.length; i++) {... */\n    tag_166:\n        /* \"contracts/EligibleTokenRegistry.sol\":8124:8130  tokens */\n      dup4\n      dup4\n        /* \"contracts/EligibleTokenRegistry.sol\":8124:8137  tokens.length */\n      swap1\n      pop\n        /* \"contracts/EligibleTokenRegistry.sol\":8120:8121  i */\n      dup2\n        /* \"contracts/EligibleTokenRegistry.sol\":8120:8137  i < tokens.length */\n      lt\n        /* \"contracts/EligibleTokenRegistry.sol\":8100:8203  for (uint256 i = 0; i < tokens.length; i++) {... */\n      iszero\n      tag_167\n      jumpi\n        /* \"contracts/EligibleTokenRegistry.sol\":8171:8181  isEligible */\n      0x01\n        /* \"contracts/EligibleTokenRegistry.sol\":8171:8192  isEligible[tokens[i]] */\n      0x00\n        /* \"contracts/EligibleTokenRegistry.sol\":8182:8188  tokens */\n      dup6\n      dup6\n        /* \"contracts/EligibleTokenRegistry.sol\":8189:8190  i */\n      dup5\n        /* \"contracts/EligibleTokenRegistry.sol\":8182:8191  tokens[i] */\n      dup2\n      dup2\n      lt\n      tag_169\n      jumpi\n      tag_170\n      tag_108\n      jump\t// in\n    tag_170:\n    tag_169:\n      swap1\n      pop\n      0x20\n      mul\n      add\n      0x20\n      dup2\n      add\n      swap1\n      tag_171\n      swap2\n      swap1\n      tag_24\n      jump\t// in\n    tag_171:\n        /* \"contracts/EligibleTokenRegistry.sol\":8171:8192  isEligible[tokens[i]] */\n      0xffffffffffffffffffffffffffffffffffffffff\n      and\n      0xffffffffffffffffffffffffffffffffffffffff\n      and\n      dup2\n      mstore\n      0x20\n      add\n      swap1\n      dup2\n      mstore\n      0x20\n      add\n      0x00\n      keccak256\n      0x00\n      swap1\n      sload\n      swap1\n      0x0100\n      exp\n      swap1\n      div\n      0xff\n      and\n        /* \"contracts/EligibleTokenRegistry.sol\":8158:8165  results */\n      dup3\n        /* \"contracts/EligibleTokenRegistry.sol\":8166:8167  i */\n      dup3\n        /* \"contracts/EligibleTokenRegistry.sol\":8158:8168  results[i] */\n      dup2\n      mload\n      dup2\n      lt\n      tag_172\n      jumpi\n      tag_173\n      tag_108\n      jump\t// in\n    tag_173:\n    tag_172:\n      0x20\n      mul\n      0x20\n      add\n      add\n        /* \"contracts/EligibleTokenRegistry.sol\":8158:8192  results[i] = isEligible[tokens[i]] */\n      swap1\n      iszero\n      iszero\n      swap1\n      dup2\n      iszero\n      iszero\n      dup2\n      mstore\n      pop\n      pop\n        /* \"contracts/EligibleTokenRegistry.sol\":8139:8142  i++ */\n      dup1\n      dup1\n      0x01\n      add\n      swap2\n      pop\n      pop\n        /* \"contracts/EligibleTokenRegistry.sol\":8100:8203  for (uint256 i = 0; i < tokens.length; i++) {... */\n      jump(tag_166)\n    tag_167:\n      pop\n        /* \"contracts/EligibleTokenRegistry.sol\":7923:8209  function areEligible(address[] calldata tokens)... */\n      swap3\n      swap2\n      pop\n      pop\n      jump\t// out\n        /* \"contracts/EligibleTokenRegistry.sol\":4110:4314  function addToken(address token) external onlyOwner {... */\n    tag_78:\n        /* \"@openzeppelin/contracts/access/Ownable.sol\":1531:1544  _checkOwner() */\n      tag_175\n        /* \"@openzeppelin/contracts/access/Ownable.sol\":1531:1542  _checkOwner */\n      tag_84\n        /* \"@openzeppelin/contracts/access/Ownable.sol\":1531:1544  _checkOwner() */\n      jump\t// in\n    tag_175:\n        /* \"contracts/EligibleTokenRegistry.sol\":4193:4194  0 */\n      0x00\n        /* \"contracts/EligibleTokenRegistry.sol\":4176:4195  token == address(0) */\n      0xffffffffffffffffffffffffffffffffffffffff\n      and\n        /* \"contracts/EligibleTokenRegistry.sol\":4176:4181  token */\n      dup2\n        /* \"contracts/EligibleTokenRegistry.sol\":4176:4195  token == address(0) */\n      0xffffffffffffffffffffffffffffffffffffffff\n      and\n      sub\n        /* \"contracts/EligibleTokenRegistry.sol\":4172:4217  if (token == address(0)) revert ZeroAddress() */\n      tag_177\n      jumpi\n        /* \"contracts/EligibleTokenRegistry.sol\":4204:4217  ZeroAddress() */\n      mload(0x40)\n      0xd92e233d00000000000000000000000000000000000000000000000000000000\n      dup2\n      mstore\n      0x04\n      add\n      mload(0x40)\n      dup1\n      swap2\n      sub\n      swap1\n      revert\n        /* \"contracts/EligibleTokenRegistry.sol\":4172:4217  if (token == address(0)) revert ZeroAddress() */\n    tag_177:\n        /* \"contracts/EligibleTokenRegistry.sol\":4231:4241  isEligible */\n      0x01\n        /* \"contracts/EligibleTokenRegistry.sol\":4231:4248  isEligible[token] */\n      0x00\n        /* \"contracts/EligibleTokenRegistry.sol\":4242:4247  token */\n      dup3\n        /* \"contracts/EligibleTokenRegistry.sol\":4231:4248  isEligible[token] */\n      0xffffffffffffffffffffffffffffffffffffffff\n      and\n      0xffffffffffffffffffffffffffffffffffffffff\n      and\n      dup2\n      mstore\n      0x20\n      add\n      swap1\n      dup2\n      mstore\n      0x20\n      add\n      0x00\n      keccak256\n      0x00\n      swap1\n      sload\n      swap1\n      0x0100\n      exp\n      swap1\n      div\n      0xff\n      and\n        /* \"contracts/EligibleTokenRegistry.sol\":4227:4281  if (isEligible[token])   revert AlreadyEligible(token) */\n      iszero\n      tag_178\n      jumpi\n        /* \"contracts/EligibleTokenRegistry.sol\":4275:4280  token */\n      dup1\n        /* \"contracts/EligibleTokenRegistry.sol\":4259:4281  AlreadyEligible(token) */\n      mload(0x40)\n      0xacd4498400000000000000000000000000000000000000000000000000000000\n      dup2\n      mstore\n      0x04\n      add\n      tag_179\n      swap2\n      swap1\n      tag_31\n      jump\t// in\n    tag_179:\n      mload(0x40)\n      dup1\n      swap2\n      sub\n      swap1\n      revert\n        /* \"contracts/EligibleTokenRegistry.sol\":4227:4281  if (isEligible[token])   revert AlreadyEligible(token) */\n    tag_178:\n        /* \"contracts/EligibleTokenRegistry.sol\":4291:4307  _addToken(token) */\n      tag_180\n        /* \"contracts/EligibleTokenRegistry.sol\":4301:4306  token */\n      dup2\n        /* \"contracts/EligibleTokenRegistry.sol\":4291:4300  _addToken */\n      tag_119\n        /* \"contracts/EligibleTokenRegistry.sol\":4291:4307  _addToken(token) */\n      jump\t// in\n    tag_180:\n        /* \"contracts/EligibleTokenRegistry.sol\":4110:4314  function addToken(address token) external onlyOwner {... */\n      pop\n      jump\t// out\n        /* \"@openzeppelin/contracts/access/Ownable.sol\":2543:2758  function transferOwnership(address newOwner) public virtual onlyOwner {... */\n    tag_81:\n        /* \"@openzeppelin/contracts/access/Ownable.sol\":1531:1544  _checkOwner() */\n      tag_182\n        /* \"@openzeppelin/contracts/access/Ownable.sol\":1531:1542  _checkOwner */\n      tag_84\n        /* \"@openzeppelin/contracts/access/Ownable.sol\":1531:1544  _checkOwner() */\n      jump\t// in\n    tag_182:\n        /* \"@openzeppelin/contracts/access/Ownable.sol\":2647:2648  0 */\n      0x00\n        /* \"@openzeppelin/contracts/access/Ownable.sol\":2627:2649  newOwner == address(0) */\n      0xffffffffffffffffffffffffffffffffffffffff\n      and\n        /* \"@openzeppelin/contracts/access/Ownable.sol\":2627:2635  newOwner */\n      dup2\n        /* \"@openzeppelin/contracts/access/Ownable.sol\":2627:2649  newOwner == address(0) */\n      0xffffffffffffffffffffffffffffffffffffffff\n      and\n      sub\n        /* \"@openzeppelin/contracts/access/Ownable.sol\":2623:2714  if (newOwner == address(0)) {... */\n      tag_184\n      jumpi\n        /* \"@openzeppelin/contracts/access/Ownable.sol\":2700:2701  0 */\n      0x00\n        /* \"@openzeppelin/contracts/access/Ownable.sol\":2672:2703  OwnableInvalidOwner(address(0)) */\n      mload(0x40)\n      0x1e4fbdf700000000000000000000000000000000000000000000000000000000\n      dup2\n      mstore\n      0x04\n      add\n      tag_185\n      swap2\n      swap1\n      tag_31\n      jump\t// in\n    tag_185:\n      mload(0x40)\n      dup1\n      swap2\n      sub\n      swap1\n      revert\n        /* \"@openzeppelin/contracts/access/Ownable.sol\":2623:2714  if (newOwner == address(0)) {... */\n    tag_184:\n        /* \"@openzeppelin/contracts/access/Ownable.sol\":2723:2751  _transferOwnership(newOwner) */\n      tag_186\n        /* \"@openzeppelin/contracts/access/Ownable.sol\":2742:2750  newOwner */\n      dup2\n        /* \"@openzeppelin/contracts/access/Ownable.sol\":2723:2741  _transferOwnership */\n      tag_132\n        /* \"@openzeppelin/contracts/access/Ownable.sol\":2723:2751  _transferOwnership(newOwner) */\n      jump\t// in\n    tag_186:\n        /* \"@openzeppelin/contracts/access/Ownable.sol\":2543:2758  function transferOwnership(address newOwner) public virtual onlyOwner {... */\n      pop\n      jump\t// out\n        /* \"@openzeppelin/contracts/access/Ownable.sol\":1796:1958  function _checkOwner() internal view virtual {... */\n    tag_84:\n        /* \"@openzeppelin/contracts/access/Ownable.sol\":1866:1878  _msgSender() */\n      tag_188\n        /* \"@openzeppelin/contracts/access/Ownable.sol\":1866:1876  _msgSender */\n      tag_189\n        /* \"@openzeppelin/contracts/access/Ownable.sol\":1866:1878  _msgSender() */\n      jump\t// in\n    tag_188:\n        /* \"@openzeppelin/contracts/access/Ownable.sol\":1855:1878  owner() != _msgSender() */\n      0xffffffffffffffffffffffffffffffffffffffff\n      and\n        /* \"@openzeppelin/contracts/access/Ownable.sol\":1855:1862  owner() */\n      tag_190\n        /* \"@openzeppelin/contracts/access/Ownable.sol\":1855:1860  owner */\n      tag_69\n        /* \"@openzeppelin/contracts/access/Ownable.sol\":1855:1862  owner() */\n      jump\t// in\n    tag_190:\n        /* \"@openzeppelin/contracts/access/Ownable.sol\":1855:1878  owner() != _msgSender() */\n      0xffffffffffffffffffffffffffffffffffffffff\n      and\n      eq\n        /* \"@openzeppelin/contracts/access/Ownable.sol\":1851:1952  if (owner() != _msgSender()) {... */\n      tag_191\n      jumpi\n        /* \"@openzeppelin/contracts/access/Ownable.sol\":1928:1940  _msgSender() */\n      tag_192\n        /* \"@openzeppelin/contracts/access/Ownable.sol\":1928:1938  _msgSender */\n      tag_189\n        /* \"@openzeppelin/contracts/access/Ownable.sol\":1928:1940  _msgSender() */\n      jump\t// in\n    tag_192:\n        /* \"@openzeppelin/contracts/access/Ownable.sol\":1901:1941  OwnableUnauthorizedAccount(_msgSender()) */\n      mload(0x40)\n      0x118cdaa700000000000000000000000000000000000000000000000000000000\n      dup2\n      mstore\n      0x04\n      add\n      tag_193\n      swap2\n      swap1\n      tag_31\n      jump\t// in\n    tag_193:\n      mload(0x40)\n      dup1\n      swap2\n      sub\n      swap1\n      revert\n        /* \"@openzeppelin/contracts/access/Ownable.sol\":1851:1952  if (owner() != _msgSender()) {... */\n    tag_191:\n        /* \"@openzeppelin/contracts/access/Ownable.sol\":1796:1958  function _checkOwner() internal view virtual {... */\n      jump\t// out\n        /* \"contracts/EligibleTokenRegistry.sol\":5248:5403  function _addToken(address token) internal {... */\n    tag_119:\n        /* \"contracts/EligibleTokenRegistry.sol\":5321:5325  true */\n      0x01\n        /* \"contracts/EligibleTokenRegistry.sol\":5301:5311  isEligible */\n      dup1\n        /* \"contracts/EligibleTokenRegistry.sol\":5301:5318  isEligible[token] */\n      0x00\n        /* \"contracts/EligibleTokenRegistry.sol\":5312:5317  token */\n      dup4\n        /* \"contracts/EligibleTokenRegistry.sol\":5301:5318  isEligible[token] */\n      0xffffffffffffffffffffffffffffffffffffffff\n      and\n      0xffffffffffffffffffffffffffffffffffffffff\n      and\n      dup2\n      mstore\n      0x20\n      add\n      swap1\n      dup2\n      mstore\n      0x20\n      add\n      0x00\n      keccak256\n      0x00\n        /* \"contracts/EligibleTokenRegistry.sol\":5301:5325  isEligible[token] = true */\n      0x0100\n      exp\n      dup2\n      sload\n      dup2\n      0xff\n      mul\n      not\n      and\n      swap1\n      dup4\n      iszero\n      iszero\n      mul\n      or\n      swap1\n      sstore\n      pop\n        /* \"contracts/EligibleTokenRegistry.sol\":5335:5352  eligibleTokenList */\n      0x02\n        /* \"contracts/EligibleTokenRegistry.sol\":5358:5363  token */\n      dup2\n        /* \"contracts/EligibleTokenRegistry.sol\":5335:5364  eligibleTokenList.push(token) */\n      swap1\n      dup1\n      0x01\n      dup2\n      sload\n      add\n      dup1\n      dup3\n      sstore\n      dup1\n      swap2\n      pop\n      pop\n      0x01\n      swap1\n      sub\n      swap1\n      0x00\n      mstore\n      keccak256(0x00, 0x20)\n      add\n      0x00\n      swap1\n      swap2\n      swap1\n      swap2\n      swap1\n      swap2\n      0x0100\n      exp\n      dup2\n      sload\n      dup2\n      0xffffffffffffffffffffffffffffffffffffffff\n      mul\n      not\n      and\n      swap1\n      dup4\n      0xffffffffffffffffffffffffffffffffffffffff\n      and\n      mul\n      or\n      swap1\n      sstore\n      pop\n        /* \"contracts/EligibleTokenRegistry.sol\":5390:5395  token */\n      dup1\n        /* \"contracts/EligibleTokenRegistry.sol\":5379:5396  TokenAdded(token) */\n      0xffffffffffffffffffffffffffffffffffffffff\n      and\n      0x784c8f4dbf0ffedd6e72c76501c545a70f8b203b30a26ce542bf92ba87c248a4\n      mload(0x40)\n      mload(0x40)\n      dup1\n      swap2\n      sub\n      swap1\n      log2\n        /* \"contracts/EligibleTokenRegistry.sol\":5248:5403  function _addToken(address token) internal {... */\n      pop\n      jump\t// out\n        /* \"@openzeppelin/contracts/access/Ownable.sol\":2912:3099  function _transferOwnership(address newOwner) internal virtual {... */\n    tag_132:\n        /* \"@openzeppelin/contracts/access/Ownable.sol\":2985:3001  address oldOwner */\n      0x00\n        /* \"@openzeppelin/contracts/access/Ownable.sol\":3004:3010  _owner */\n      dup1\n      0x00\n      swap1\n      sload\n      swap1\n      0x0100\n      exp\n      swap1\n      div\n      0xffffffffffffffffffffffffffffffffffffffff\n      and\n        /* \"@openzeppelin/contracts/access/Ownable.sol\":2985:3010  address oldOwner = _owner */\n      swap1\n      pop\n        /* \"@openzeppelin/contracts/access/Ownable.sol\":3029:3037  newOwner */\n      dup2\n        /* \"@openzeppelin/contracts/access/Ownable.sol\":3020:3026  _owner */\n      0x00\n      dup1\n        /* \"@openzeppelin/contracts/access/Ownable.sol\":3020:3037  _owner = newOwner */\n      0x0100\n      exp\n      dup2\n      sload\n      dup2\n      0xffffffffffffffffffffffffffffffffffffffff\n      mul\n      not\n      and\n      swap1\n      dup4\n      0xffffffffffffffffffffffffffffffffffffffff\n      and\n      mul\n      or\n      swap1\n      sstore\n      pop\n        /* \"@openzeppelin/contracts/access/Ownable.sol\":3083:3091  newOwner */\n      dup2\n        /* \"@openzeppelin/contracts/access/Ownable.sol\":3052:3092  OwnershipTransferred(oldOwner, newOwner) */\n      0xffffffffffffffffffffffffffffffffffffffff\n      and\n        /* \"@openzeppelin/contracts/access/Ownable.sol\":3073:3081  oldOwner */\n      dup2\n        /* \"@openzeppelin/contracts/access/Ownable.sol\":3052:3092  OwnershipTransferred(oldOwner, newOwner) */\n      0xffffffffffffffffffffffffffffffffffffffff\n      and\n      0x8be0079c531659141344cd1fd0a4f28419497f9722a3daafe3b4186f6b6457e0\n      mload(0x40)\n      mload(0x40)\n      dup1\n      swap2\n      sub\n      swap1\n      log3\n        /* \"@openzeppelin/contracts/access/Ownable.sol\":2975:3099  {... */\n      pop\n        /* \"@openzeppelin/contracts/access/Ownable.sol\":2912:3099  function _transferOwnership(address newOwner) internal virtual {... */\n      pop\n      jump\t// out\n        /* \"@openzeppelin/contracts/utils/Context.sol\":656:752  function _msgSender() internal view virtual returns (address) {... */\n    tag_189:\n        /* \"@openzeppelin/contracts/utils/Context.sol\":709:716  address */\n      0x00\n        /* \"@openzeppelin/contracts/utils/Context.sol\":735:745  msg.sender */\n      caller\n        /* \"@openzeppelin/contracts/utils/Context.sol\":728:745  return msg.sender */\n      swap1\n      pop\n        /* \"@openzeppelin/contracts/utils/Context.sol\":656:752  function _msgSender() internal view virtual returns (address) {... */\n      swap1\n      jump\t// out\n        /* \"#utility.yul\":88:205   */\n    tag_199:\n        /* \"#utility.yul\":197:198   */\n      0x00\n        /* \"#utility.yul\":194:195   */\n      dup1\n        /* \"#utility.yul\":187:199   */\n      revert\n        /* \"#utility.yul\":211:328   */\n    tag_200:\n        /* \"#utility.yul\":320:321   */\n      0x00\n        /* \"#utility.yul\":317:318   */\n      dup1\n        /* \"#utility.yul\":310:322   */\n      revert\n        /* \"#utility.yul\":334:460   */\n    tag_201:\n        /* \"#utility.yul\":371:378   */\n      0x00\n        /* \"#utility.yul\":411:453   */\n      0xffffffffffffffffffffffffffffffffffffffff\n        /* \"#utility.yul\":404:409   */\n      dup3\n        /* \"#utility.yul\":400:454   */\n      and\n        /* \"#utility.yul\":389:454   */\n      swap1\n      pop\n        /* \"#utility.yul\":334:460   */\n      swap2\n      swap1\n      pop\n      jump\t// out\n        /* \"#utility.yul\":466:562   */\n    tag_202:\n        /* \"#utility.yul\":503:510   */\n      0x00\n        /* \"#utility.yul\":532:556   */\n      tag_237\n        /* \"#utility.yul\":550:555   */\n      dup3\n        /* \"#utility.yul\":532:556   */\n      tag_201\n      jump\t// in\n    tag_237:\n        /* \"#utility.yul\":521:556   */\n      swap1\n      pop\n        /* \"#utility.yul\":466:562   */\n      swap2\n      swap1\n      pop\n      jump\t// out\n        /* \"#utility.yul\":568:690   */\n    tag_203:\n        /* \"#utility.yul\":641:665   */\n      tag_239\n        /* \"#utility.yul\":659:664   */\n      dup2\n        /* \"#utility.yul\":641:665   */\n      tag_202\n      jump\t// in\n    tag_239:\n        /* \"#utility.yul\":634:639   */\n      dup2\n        /* \"#utility.yul\":631:666   */\n      eq\n        /* \"#utility.yul\":621:684   */\n      tag_240\n      jumpi\n        /* \"#utility.yul\":680:681   */\n      0x00\n        /* \"#utility.yul\":677:678   */\n      dup1\n        /* \"#utility.yul\":670:682   */\n      revert\n        /* \"#utility.yul\":621:684   */\n    tag_240:\n        /* \"#utility.yul\":568:690   */\n      pop\n      jump\t// out\n        /* \"#utility.yul\":696:835   */\n    tag_204:\n        /* \"#utility.yul\":742:747   */\n      0x00\n        /* \"#utility.yul\":780:786   */\n      dup2\n        /* \"#utility.yul\":767:787   */\n      calldataload\n        /* \"#utility.yul\":758:787   */\n      swap1\n      pop\n        /* \"#utility.yul\":796:829   */\n      tag_242\n        /* \"#utility.yul\":823:828   */\n      dup2\n        /* \"#utility.yul\":796:829   */\n      tag_203\n      jump\t// in\n    tag_242:\n        /* \"#utility.yul\":696:835   */\n      swap3\n      swap2\n      pop\n      pop\n      jump\t// out\n        /* \"#utility.yul\":841:1170   */\n    tag_24:\n        /* \"#utility.yul\":900:906   */\n      0x00\n        /* \"#utility.yul\":949:951   */\n      0x20\n        /* \"#utility.yul\":937:946   */\n      dup3\n        /* \"#utility.yul\":928:935   */\n      dup5\n        /* \"#utility.yul\":924:947   */\n      sub\n        /* \"#utility.yul\":920:952   */\n      slt\n        /* \"#utility.yul\":917:1036   */\n      iszero\n      tag_244\n      jumpi\n        /* \"#utility.yul\":955:1034   */\n      tag_245\n      tag_199\n      jump\t// in\n    tag_245:\n        /* \"#utility.yul\":917:1036   */\n    tag_244:\n        /* \"#utility.yul\":1075:1076   */\n      0x00\n        /* \"#utility.yul\":1100:1153   */\n      tag_246\n        /* \"#utility.yul\":1145:1152   */\n      dup5\n        /* \"#utility.yul\":1136:1142   */\n      dup3\n        /* \"#utility.yul\":1125:1134   */\n      dup6\n        /* \"#utility.yul\":1121:1143   */\n      add\n        /* \"#utility.yul\":1100:1153   */\n      tag_204\n      jump\t// in\n    tag_246:\n        /* \"#utility.yul\":1090:1153   */\n      swap2\n      pop\n        /* \"#utility.yul\":1046:1163   */\n      pop\n        /* \"#utility.yul\":841:1170   */\n      swap3\n      swap2\n      pop\n      pop\n      jump\t// out\n        /* \"#utility.yul\":1176:1253   */\n    tag_205:\n        /* \"#utility.yul\":1213:1220   */\n      0x00\n        /* \"#utility.yul\":1242:1247   */\n      dup2\n        /* \"#utility.yul\":1231:1247   */\n      swap1\n      pop\n        /* \"#utility.yul\":1176:1253   */\n      swap2\n      swap1\n      pop\n      jump\t// out\n        /* \"#utility.yul\":1259:1381   */\n    tag_206:\n        /* \"#utility.yul\":1332:1356   */\n      tag_249\n        /* \"#utility.yul\":1350:1355   */\n      dup2\n        /* \"#utility.yul\":1332:1356   */\n      tag_205\n      jump\t// in\n    tag_249:\n        /* \"#utility.yul\":1325:1330   */\n      dup2\n        /* \"#utility.yul\":1322:1357   */\n      eq\n        /* \"#utility.yul\":1312:1375   */\n      tag_250\n      jumpi\n        /* \"#utility.yul\":1371:1372   */\n      0x00\n        /* \"#utility.yul\":1368:1369   */\n      dup1\n        /* \"#utility.yul\":1361:1373   */\n      revert\n        /* \"#utility.yul\":1312:1375   */\n    tag_250:\n        /* \"#utility.yul\":1259:1381   */\n      pop\n      jump\t// out\n        /* \"#utility.yul\":1387:1526   */\n    tag_207:\n        /* \"#utility.yul\":1433:1438   */\n      0x00\n        /* \"#utility.yul\":1471:1477   */\n      dup2\n        /* \"#utility.yul\":1458:1478   */\n      calldataload\n        /* \"#utility.yul\":1449:1478   */\n      swap1\n      pop\n        /* \"#utility.yul\":1487:1520   */\n      tag_252\n        /* \"#utility.yul\":1514:1519   */\n      dup2\n        /* \"#utility.yul\":1487:1520   */\n      tag_206\n      jump\t// in\n    tag_252:\n        /* \"#utility.yul\":1387:1526   */\n      swap3\n      swap2\n      pop\n      pop\n      jump\t// out\n        /* \"#utility.yul\":1532:1861   */\n    tag_28:\n        /* \"#utility.yul\":1591:1597   */\n      0x00\n        /* \"#utility.yul\":1640:1642   */\n      0x20\n        /* \"#utility.yul\":1628:1637   */\n      dup3\n        /* \"#utility.yul\":1619:1626   */\n      dup5\n        /* \"#utility.yul\":1615:1638   */\n      sub\n        /* \"#utility.yul\":1611:1643   */\n      slt\n        /* \"#utility.yul\":1608:1727   */\n      iszero\n      tag_254\n      jumpi\n        /* \"#utility.yul\":1646:1725   */\n      tag_255\n      tag_199\n      jump\t// in\n    tag_255:\n        /* \"#utility.yul\":1608:1727   */\n    tag_254:\n        /* \"#utility.yul\":1766:1767   */\n      0x00\n        /* \"#utility.yul\":1791:1844   */\n      tag_256\n        /* \"#utility.yul\":1836:1843   */\n      dup5\n        /* \"#utility.yul\":1827:1833   */\n      dup3\n        /* \"#utility.yul\":1816:1825   */\n      dup6\n        /* \"#utility.yul\":1812:1834   */\n      add\n        /* \"#utility.yul\":1791:1844   */\n      tag_207\n      jump\t// in\n    tag_256:\n        /* \"#utility.yul\":1781:1844   */\n      swap2\n      pop\n        /* \"#utility.yul\":1737:1854   */\n      pop\n        /* \"#utility.yul\":1532:1861   */\n      swap3\n      swap2\n      pop\n      pop\n      jump\t// out\n        /* \"#utility.yul\":1867:1985   */\n    tag_208:\n        /* \"#utility.yul\":1954:1978   */\n      tag_258\n        /* \"#utility.yul\":1972:1977   */\n      dup2\n        /* \"#utility.yul\":1954:1978   */\n      tag_202\n      jump\t// in\n    tag_258:\n        /* \"#utility.yul\":1949:1952   */\n      dup3\n        /* \"#utility.yul\":1942:1979   */\n      mstore\n        /* \"#utility.yul\":1867:1985   */\n      pop\n      pop\n      jump\t// out\n        /* \"#utility.yul\":1991:2213   */\n    tag_31:\n        /* \"#utility.yul\":2084:2088   */\n      0x00\n        /* \"#utility.yul\":2122:2124   */\n      0x20\n        /* \"#utility.yul\":2111:2120   */\n      dup3\n        /* \"#utility.yul\":2107:2125   */\n      add\n        /* \"#utility.yul\":2099:2125   */\n      swap1\n      pop\n        /* \"#utility.yul\":2135:2206   */\n      tag_260\n        /* \"#utility.yul\":2203:2204   */\n      0x00\n        /* \"#utility.yul\":2192:2201   */\n      dup4\n        /* \"#utility.yul\":2188:2205   */\n      add\n        /* \"#utility.yul\":2179:2185   */\n      dup5\n        /* \"#utility.yul\":2135:2206   */\n      tag_208\n      jump\t// in\n    tag_260:\n        /* \"#utility.yul\":1991:2213   */\n      swap3\n      swap2\n      pop\n      pop\n      jump\t// out\n        /* \"#utility.yul\":2219:2309   */\n    tag_209:\n        /* \"#utility.yul\":2253:2260   */\n      0x00\n        /* \"#utility.yul\":2296:2301   */\n      dup2\n        /* \"#utility.yul\":2289:2302   */\n      iszero\n        /* \"#utility.yul\":2282:2303   */\n      iszero\n        /* \"#utility.yul\":2271:2303   */\n      swap1\n      pop\n        /* \"#utility.yul\":2219:2309   */\n      swap2\n      swap1\n      pop\n      jump\t// out\n        /* \"#utility.yul\":2315:2424   */\n    tag_210:\n        /* \"#utility.yul\":2396:2417   */\n      tag_263\n        /* \"#utility.yul\":2411:2416   */\n      dup2\n        /* \"#utility.yul\":2396:2417   */\n      tag_209\n      jump\t// in\n    tag_263:\n        /* \"#utility.yul\":2391:2394   */\n      dup3\n        /* \"#utility.yul\":2384:2418   */\n      mstore\n        /* \"#utility.yul\":2315:2424   */\n      pop\n      pop\n      jump\t// out\n        /* \"#utility.yul\":2430:2640   */\n    tag_36:\n        /* \"#utility.yul\":2517:2521   */\n      0x00\n        /* \"#utility.yul\":2555:2557   */\n      0x20\n        /* \"#utility.yul\":2544:2553   */\n      dup3\n        /* \"#utility.yul\":2540:2558   */\n      add\n        /* \"#utility.yul\":2532:2558   */\n      swap1\n      pop\n        /* \"#utility.yul\":2568:2633   */\n      tag_265\n        /* \"#utility.yul\":2630:2631   */\n      0x00\n        /* \"#utility.yul\":2619:2628   */\n      dup4\n        /* \"#utility.yul\":2615:2632   */\n      add\n        /* \"#utility.yul\":2606:2612   */\n      dup5\n        /* \"#utility.yul\":2568:2633   */\n      tag_210\n      jump\t// in\n    tag_265:\n        /* \"#utility.yul\":2430:2640   */\n      swap3\n      swap2\n      pop\n      pop\n      jump\t// out\n        /* \"#utility.yul\":2646:2760   */\n    tag_211:\n        /* \"#utility.yul\":2713:2719   */\n      0x00\n        /* \"#utility.yul\":2747:2752   */\n      dup2\n        /* \"#utility.yul\":2741:2753   */\n      mload\n        /* \"#utility.yul\":2731:2753   */\n      swap1\n      pop\n        /* \"#utility.yul\":2646:2760   */\n      swap2\n      swap1\n      pop\n      jump\t// out\n        /* \"#utility.yul\":2766:2950   */\n    tag_212:\n        /* \"#utility.yul\":2865:2876   */\n      0x00\n        /* \"#utility.yul\":2899:2905   */\n      dup3\n        /* \"#utility.yul\":2894:2897   */\n      dup3\n        /* \"#utility.yul\":2887:2906   */\n      mstore\n        /* \"#utility.yul\":2939:2943   */\n      0x20\n        /* \"#utility.yul\":2934:2937   */\n      dup3\n        /* \"#utility.yul\":2930:2944   */\n      add\n        /* \"#utility.yul\":2915:2944   */\n      swap1\n      pop\n        /* \"#utility.yul\":2766:2950   */\n      swap3\n      swap2\n      pop\n      pop\n      jump\t// out\n        /* \"#utility.yul\":2956:3088   */\n    tag_213:\n        /* \"#utility.yul\":3023:3027   */\n      0x00\n        /* \"#utility.yul\":3046:3049   */\n      dup2\n        /* \"#utility.yul\":3038:3049   */\n      swap1\n      pop\n        /* \"#utility.yul\":3076:3080   */\n      0x20\n        /* \"#utility.yul\":3071:3074   */\n      dup3\n        /* \"#utility.yul\":3067:3081   */\n      add\n        /* \"#utility.yul\":3059:3081   */\n      swap1\n      pop\n        /* \"#utility.yul\":2956:3088   */\n      swap2\n      swap1\n      pop\n      jump\t// out\n        /* \"#utility.yul\":3094:3202   */\n    tag_214:\n        /* \"#utility.yul\":3171:3195   */\n      tag_270\n        /* \"#utility.yul\":3189:3194   */\n      dup2\n        /* \"#utility.yul\":3171:3195   */\n      tag_202\n      jump\t// in\n    tag_270:\n        /* \"#utility.yul\":3166:3169   */\n      dup3\n        /* \"#utility.yul\":3159:3196   */\n      mstore\n        /* \"#utility.yul\":3094:3202   */\n      pop\n      pop\n      jump\t// out\n        /* \"#utility.yul\":3208:3387   */\n    tag_215:\n        /* \"#utility.yul\":3277:3287   */\n      0x00\n        /* \"#utility.yul\":3298:3344   */\n      tag_272\n        /* \"#utility.yul\":3340:3343   */\n      dup4\n        /* \"#utility.yul\":3332:3338   */\n      dup4\n        /* \"#utility.yul\":3298:3344   */\n      tag_214\n      jump\t// in\n    tag_272:\n        /* \"#utility.yul\":3376:3380   */\n      0x20\n        /* \"#utility.yul\":3371:3374   */\n      dup4\n        /* \"#utility.yul\":3367:3381   */\n      add\n        /* \"#utility.yul\":3353:3381   */\n      swap1\n      pop\n        /* \"#utility.yul\":3208:3387   */\n      swap3\n      swap2\n      pop\n      pop\n      jump\t// out\n        /* \"#utility.yul\":3393:3506   */\n    tag_216:\n        /* \"#utility.yul\":3463:3467   */\n      0x00\n        /* \"#utility.yul\":3495:3499   */\n      0x20\n        /* \"#utility.yul\":3490:3493   */\n      dup3\n        /* \"#utility.yul\":3486:3500   */\n      add\n        /* \"#utility.yul\":3478:3500   */\n      swap1\n      pop\n        /* \"#utility.yul\":3393:3506   */\n      swap2\n      swap1\n      pop\n      jump\t// out\n        /* \"#utility.yul\":3542:4274   */\n    tag_217:\n        /* \"#utility.yul\":3661:3664   */\n      0x00\n        /* \"#utility.yul\":3690:3744   */\n      tag_275\n        /* \"#utility.yul\":3738:3743   */\n      dup3\n        /* \"#utility.yul\":3690:3744   */\n      tag_211\n      jump\t// in\n    tag_275:\n        /* \"#utility.yul\":3760:3846   */\n      tag_276\n        /* \"#utility.yul\":3839:3845   */\n      dup2\n        /* \"#utility.yul\":3834:3837   */\n      dup6\n        /* \"#utility.yul\":3760:3846   */\n      tag_212\n      jump\t// in\n    tag_276:\n        /* \"#utility.yul\":3753:3846   */\n      swap4\n      pop\n        /* \"#utility.yul\":3870:3926   */\n      tag_277\n        /* \"#utility.yul\":3920:3925   */\n      dup4\n        /* \"#utility.yul\":3870:3926   */\n      tag_213\n      jump\t// in\n    tag_277:\n        /* \"#utility.yul\":3949:3956   */\n      dup1\n        /* \"#utility.yul\":3980:3981   */\n      0x00\n        /* \"#utility.yul\":3965:4249   */\n    tag_278:\n        /* \"#utility.yul\":3990:3996   */\n      dup4\n        /* \"#utility.yul\":3987:3988   */\n      dup2\n        /* \"#utility.yul\":3984:3997   */\n      lt\n        /* \"#utility.yul\":3965:4249   */\n      iszero\n      tag_280\n      jumpi\n        /* \"#utility.yul\":4066:4072   */\n      dup2\n        /* \"#utility.yul\":4060:4073   */\n      mload\n        /* \"#utility.yul\":4093:4156   */\n      tag_281\n        /* \"#utility.yul\":4152:4155   */\n      dup9\n        /* \"#utility.yul\":4137:4150   */\n      dup3\n        /* \"#utility.yul\":4093:4156   */\n      tag_215\n      jump\t// in\n    tag_281:\n        /* \"#utility.yul\":4086:4156   */\n      swap8\n      pop\n        /* \"#utility.yul\":4179:4239   */\n      tag_282\n        /* \"#utility.yul\":4232:4238   */\n      dup4\n        /* \"#utility.yul\":4179:4239   */\n      tag_216\n      jump\t// in\n    tag_282:\n        /* \"#utility.yul\":4169:4239   */\n      swap3\n      pop\n        /* \"#utility.yul\":4025:4249   */\n      pop\n        /* \"#utility.yul\":4012:4013   */\n      0x01\n        /* \"#utility.yul\":4009:4010   */\n      dup2\n        /* \"#utility.yul\":4005:4014   */\n      add\n        /* \"#utility.yul\":4000:4014   */\n      swap1\n      pop\n        /* \"#utility.yul\":3965:4249   */\n      jump(tag_278)\n    tag_280:\n        /* \"#utility.yul\":3969:3983   */\n      pop\n        /* \"#utility.yul\":4265:4268   */\n      dup6\n        /* \"#utility.yul\":4258:4268   */\n      swap4\n      pop\n        /* \"#utility.yul\":3666:4274   */\n      pop\n      pop\n      pop\n        /* \"#utility.yul\":3542:4274   */\n      swap3\n      swap2\n      pop\n      pop\n      jump\t// out\n        /* \"#utility.yul\":4280:4653   */\n    tag_40:\n        /* \"#utility.yul\":4423:4427   */\n      0x00\n        /* \"#utility.yul\":4461:4463   */\n      0x20\n        /* \"#utility.yul\":4450:4459   */\n      dup3\n        /* \"#utility.yul\":4446:4464   */\n      add\n        /* \"#utility.yul\":4438:4464   */\n      swap1\n      pop\n        /* \"#utility.yul\":4510:4519   */\n      dup2\n        /* \"#utility.yul\":4504:4508   */\n      dup2\n        /* \"#utility.yul\":4500:4520   */\n      sub\n        /* \"#utility.yul\":4496:4497   */\n      0x00\n        /* \"#utility.yul\":4485:4494   */\n      dup4\n        /* \"#utility.yul\":4481:4498   */\n      add\n        /* \"#utility.yul\":4474:4521   */\n      mstore\n        /* \"#utility.yul\":4538:4646   */\n      tag_284\n        /* \"#utility.yul\":4641:4645   */\n      dup2\n        /* \"#utility.yul\":4632:4638   */\n      dup5\n        /* \"#utility.yul\":4538:4646   */\n      tag_217\n      jump\t// in\n    tag_284:\n        /* \"#utility.yul\":4530:4646   */\n      swap1\n      pop\n        /* \"#utility.yul\":4280:4653   */\n      swap3\n      swap2\n      pop\n      pop\n      jump\t// out\n        /* \"#utility.yul\":4659:4776   */\n    tag_218:\n        /* \"#utility.yul\":4768:4769   */\n      0x00\n        /* \"#utility.yul\":4765:4766   */\n      dup1\n        /* \"#utility.yul\":4758:4770   */\n      revert\n        /* \"#utility.yul\":4782:4899   */\n    tag_219:\n        /* \"#utility.yul\":4891:4892   */\n      0x00\n        /* \"#utility.yul\":4888:4889   */\n      dup1\n        /* \"#utility.yul\":4881:4893   */\n      revert\n        /* \"#utility.yul\":4905:5022   */\n    tag_220:\n        /* \"#utility.yul\":5014:5015   */\n      0x00\n        /* \"#utility.yul\":5011:5012   */\n      dup1\n        /* \"#utility.yul\":5004:5016   */\n      revert\n        /* \"#utility.yul\":5045:5613   */\n    tag_221:\n        /* \"#utility.yul\":5118:5126   */\n      0x00\n        /* \"#utility.yul\":5128:5134   */\n      dup1\n        /* \"#utility.yul\":5178:5181   */\n      dup4\n        /* \"#utility.yul\":5171:5175   */\n      0x1f\n        /* \"#utility.yul\":5163:5169   */\n      dup5\n        /* \"#utility.yul\":5159:5176   */\n      add\n        /* \"#utility.yul\":5155:5182   */\n      slt\n        /* \"#utility.yul\":5145:5267   */\n      tag_289\n      jumpi\n        /* \"#utility.yul\":5186:5265   */\n      tag_290\n      tag_218\n      jump\t// in\n    tag_290:\n        /* \"#utility.yul\":5145:5267   */\n    tag_289:\n        /* \"#utility.yul\":5299:5305   */\n      dup3\n        /* \"#utility.yul\":5286:5306   */\n      calldataload\n        /* \"#utility.yul\":5276:5306   */\n      swap1\n      pop\n        /* \"#utility.yul\":5329:5347   */\n      0xffffffffffffffff\n        /* \"#utility.yul\":5321:5327   */\n      dup2\n        /* \"#utility.yul\":5318:5348   */\n      gt\n        /* \"#utility.yul\":5315:5432   */\n      iszero\n      tag_291\n      jumpi\n        /* \"#utility.yul\":5351:5430   */\n      tag_292\n      tag_219\n      jump\t// in\n    tag_292:\n        /* \"#utility.yul\":5315:5432   */\n    tag_291:\n        /* \"#utility.yul\":5465:5469   */\n      0x20\n        /* \"#utility.yul\":5457:5463   */\n      dup4\n        /* \"#utility.yul\":5453:5470   */\n      add\n        /* \"#utility.yul\":5441:5470   */\n      swap2\n      pop\n        /* \"#utility.yul\":5519:5522   */\n      dup4\n        /* \"#utility.yul\":5511:5515   */\n      0x20\n        /* \"#utility.yul\":5503:5509   */\n      dup3\n        /* \"#utility.yul\":5499:5516   */\n      mul\n        /* \"#utility.yul\":5489:5497   */\n      dup4\n        /* \"#utility.yul\":5485:5517   */\n      add\n        /* \"#utility.yul\":5482:5523   */\n      gt\n        /* \"#utility.yul\":5479:5607   */\n      iszero\n      tag_293\n      jumpi\n        /* \"#utility.yul\":5526:5605   */\n      tag_294\n      tag_220\n      jump\t// in\n    tag_294:\n        /* \"#utility.yul\":5479:5607   */\n    tag_293:\n        /* \"#utility.yul\":5045:5613   */\n      swap3\n      pop\n      swap3\n      swap1\n      pop\n      jump\t// out\n        /* \"#utility.yul\":5619:6178   */\n    tag_46:\n        /* \"#utility.yul\":5705:5711   */\n      0x00\n        /* \"#utility.yul\":5713:5719   */\n      dup1\n        /* \"#utility.yul\":5762:5764   */\n      0x20\n        /* \"#utility.yul\":5750:5759   */\n      dup4\n        /* \"#utility.yul\":5741:5748   */\n      dup6\n        /* \"#utility.yul\":5737:5760   */\n      sub\n        /* \"#utility.yul\":5733:5765   */\n      slt\n        /* \"#utility.yul\":5730:5849   */\n      iszero\n      tag_296\n      jumpi\n        /* \"#utility.yul\":5768:5847   */\n      tag_297\n      tag_199\n      jump\t// in\n    tag_297:\n        /* \"#utility.yul\":5730:5849   */\n    tag_296:\n        /* \"#utility.yul\":5916:5917   */\n      0x00\n        /* \"#utility.yul\":5905:5914   */\n      dup4\n        /* \"#utility.yul\":5901:5918   */\n      add\n        /* \"#utility.yul\":5888:5919   */\n      calldataload\n        /* \"#utility.yul\":5946:5964   */\n      0xffffffffffffffff\n        /* \"#utility.yul\":5938:5944   */\n      dup2\n        /* \"#utility.yul\":5935:5965   */\n      gt\n        /* \"#utility.yul\":5932:6049   */\n      iszero\n      tag_298\n      jumpi\n        /* \"#utility.yul\":5968:6047   */\n      tag_299\n      tag_200\n      jump\t// in\n    tag_299:\n        /* \"#utility.yul\":5932:6049   */\n    tag_298:\n        /* \"#utility.yul\":6081:6161   */\n      tag_300\n        /* \"#utility.yul\":6153:6160   */\n      dup6\n        /* \"#utility.yul\":6144:6150   */\n      dup3\n        /* \"#utility.yul\":6133:6142   */\n      dup7\n        /* \"#utility.yul\":6129:6151   */\n      add\n        /* \"#utility.yul\":6081:6161   */\n      tag_221\n      jump\t// in\n    tag_300:\n        /* \"#utility.yul\":6063:6161   */\n      swap3\n      pop\n      swap3\n      pop\n        /* \"#utility.yul\":5859:6171   */\n      pop\n        /* \"#utility.yul\":5619:6178   */\n      swap3\n      pop\n      swap3\n      swap1\n      pop\n      jump\t// out\n        /* \"#utility.yul\":6184:6302   */\n    tag_222:\n        /* \"#utility.yul\":6271:6295   */\n      tag_302\n        /* \"#utility.yul\":6289:6294   */\n      dup2\n        /* \"#utility.yul\":6271:6295   */\n      tag_205\n      jump\t// in\n    tag_302:\n        /* \"#utility.yul\":6266:6269   */\n      dup3\n        /* \"#utility.yul\":6259:6296   */\n      mstore\n        /* \"#utility.yul\":6184:6302   */\n      pop\n      pop\n      jump\t// out\n        /* \"#utility.yul\":6308:6530   */\n    tag_67:\n        /* \"#utility.yul\":6401:6405   */\n      0x00\n        /* \"#utility.yul\":6439:6441   */\n      0x20\n        /* \"#utility.yul\":6428:6437   */\n      dup3\n        /* \"#utility.yul\":6424:6442   */\n      add\n        /* \"#utility.yul\":6416:6442   */\n      swap1\n      pop\n        /* \"#utility.yul\":6452:6523   */\n      tag_304\n        /* \"#utility.yul\":6520:6521   */\n      0x00\n        /* \"#utility.yul\":6509:6518   */\n      dup4\n        /* \"#utility.yul\":6505:6522   */\n      add\n        /* \"#utility.yul\":6496:6502   */\n      dup5\n        /* \"#utility.yul\":6452:6523   */\n      tag_222\n      jump\t// in\n    tag_304:\n        /* \"#utility.yul\":6308:6530   */\n      swap3\n      swap2\n      pop\n      pop\n      jump\t// out\n        /* \"#utility.yul\":6536:6647   */\n    tag_223:\n        /* \"#utility.yul\":6600:6606   */\n      0x00\n        /* \"#utility.yul\":6634:6639   */\n      dup2\n        /* \"#utility.yul\":6628:6640   */\n      mload\n        /* \"#utility.yul\":6618:6640   */\n      swap1\n      pop\n        /* \"#utility.yul\":6536:6647   */\n      swap2\n      swap1\n      pop\n      jump\t// out\n        /* \"#utility.yul\":6653:6834   */\n    tag_224:\n        /* \"#utility.yul\":6749:6760   */\n      0x00\n        /* \"#utility.yul\":6783:6789   */\n      dup3\n        /* \"#utility.yul\":6778:6781   */\n      dup3\n        /* \"#utility.yul\":6771:6790   */\n      mstore\n        /* \"#utility.yul\":6823:6827   */\n      0x20\n        /* \"#utility.yul\":6818:6821   */\n      dup3\n        /* \"#utility.yul\":6814:6828   */\n      add\n        /* \"#utility.yul\":6799:6828   */\n      swap1\n      pop\n        /* \"#utility.yul\":6653:6834   */\n      swap3\n      swap2\n      pop\n      pop\n      jump\t// out\n        /* \"#utility.yul\":6840:6969   */\n    tag_225:\n        /* \"#utility.yul\":6904:6908   */\n      0x00\n        /* \"#utility.yul\":6927:6930   */\n      dup2\n        /* \"#utility.yul\":6919:6930   */\n      swap1\n      pop\n        /* \"#utility.yul\":6957:6961   */\n      0x20\n        /* \"#utility.yul\":6952:6955   */\n      dup3\n        /* \"#utility.yul\":6948:6962   */\n      add\n        /* \"#utility.yul\":6940:6962   */\n      swap1\n      pop\n        /* \"#utility.yul\":6840:6969   */\n      swap2\n      swap1\n      pop\n      jump\t// out\n        /* \"#utility.yul\":6975:7074   */\n    tag_226:\n        /* \"#utility.yul\":7046:7067   */\n      tag_309\n        /* \"#utility.yul\":7061:7066   */\n      dup2\n        /* \"#utility.yul\":7046:7067   */\n      tag_209\n      jump\t// in\n    tag_309:\n        /* \"#utility.yul\":7041:7044   */\n      dup3\n        /* \"#utility.yul\":7034:7068   */\n      mstore\n        /* \"#utility.yul\":6975:7074   */\n      pop\n      pop\n      jump\t// out\n        /* \"#utility.yul\":7080:7247   */\n    tag_227:\n        /* \"#utility.yul\":7143:7153   */\n      0x00\n        /* \"#utility.yul\":7164:7204   */\n      tag_311\n        /* \"#utility.yul\":7200:7203   */\n      dup4\n        /* \"#utility.yul\":7192:7198   */\n      dup4\n        /* \"#utility.yul\":7164:7204   */\n      tag_226\n      jump\t// in\n    tag_311:\n        /* \"#utility.yul\":7236:7240   */\n      0x20\n        /* \"#utility.yul\":7231:7234   */\n      dup4\n        /* \"#utility.yul\":7227:7241   */\n      add\n        /* \"#utility.yul\":7213:7241   */\n      swap1\n      pop\n        /* \"#utility.yul\":7080:7247   */\n      swap3\n      swap2\n      pop\n      pop\n      jump\t// out\n        /* \"#utility.yul\":7253:7363   */\n    tag_228:\n        /* \"#utility.yul\":7320:7324   */\n      0x00\n        /* \"#utility.yul\":7352:7356   */\n      0x20\n        /* \"#utility.yul\":7347:7350   */\n      dup3\n        /* \"#utility.yul\":7343:7357   */\n      add\n        /* \"#utility.yul\":7335:7357   */\n      swap1\n      pop\n        /* \"#utility.yul\":7253:7363   */\n      swap2\n      swap1\n      pop\n      jump\t// out\n        /* \"#utility.yul\":7393:8101   */\n    tag_229:\n        /* \"#utility.yul\":7506:7509   */\n      0x00\n        /* \"#utility.yul\":7535:7586   */\n      tag_314\n        /* \"#utility.yul\":7580:7585   */\n      dup3\n        /* \"#utility.yul\":7535:7586   */\n      tag_223\n      jump\t// in\n    tag_314:\n        /* \"#utility.yul\":7602:7685   */\n      tag_315\n        /* \"#utility.yul\":7678:7684   */\n      dup2\n        /* \"#utility.yul\":7673:7676   */\n      dup6\n        /* \"#utility.yul\":7602:7685   */\n      tag_224\n      jump\t// in\n    tag_315:\n        /* \"#utility.yul\":7595:7685   */\n      swap4\n      pop\n        /* \"#utility.yul\":7709:7762   */\n      tag_316\n        /* \"#utility.yul\":7756:7761   */\n      dup4\n        /* \"#utility.yul\":7709:7762   */\n      tag_225\n      jump\t// in\n    tag_316:\n        /* \"#utility.yul\":7785:7792   */\n      dup1\n        /* \"#utility.yul\":7816:7817   */\n      0x00\n        /* \"#utility.yul\":7801:8076   */\n    tag_317:\n        /* \"#utility.yul\":7826:7832   */\n      dup4\n        /* \"#utility.yul\":7823:7824   */\n      dup2\n        /* \"#utility.yul\":7820:7833   */\n      lt\n        /* \"#utility.yul\":7801:8076   */\n      iszero\n      tag_319\n      jumpi\n        /* \"#utility.yul\":7902:7908   */\n      dup2\n        /* \"#utility.yul\":7896:7909   */\n      mload\n        /* \"#utility.yul\":7929:7986   */\n      tag_320\n        /* \"#utility.yul\":7982:7985   */\n      dup9\n        /* \"#utility.yul\":7967:7980   */\n      dup3\n        /* \"#utility.yul\":7929:7986   */\n      tag_227\n      jump\t// in\n    tag_320:\n        /* \"#utility.yul\":7922:7986   */\n      swap8\n      pop\n        /* \"#utility.yul\":8009:8066   */\n      tag_321\n        /* \"#utility.yul\":8059:8065   */\n      dup4\n        /* \"#utility.yul\":8009:8066   */\n      tag_228\n      jump\t// in\n    tag_321:\n        /* \"#utility.yul\":7999:8066   */\n      swap3\n      pop\n        /* \"#utility.yul\":7861:8076   */\n      pop\n        /* \"#utility.yul\":7848:7849   */\n      0x01\n        /* \"#utility.yul\":7845:7846   */\n      dup2\n        /* \"#utility.yul\":7841:7850   */\n      add\n        /* \"#utility.yul\":7836:7850   */\n      swap1\n      pop\n        /* \"#utility.yul\":7801:8076   */\n      jump(tag_317)\n    tag_319:\n        /* \"#utility.yul\":7805:7819   */\n      pop\n        /* \"#utility.yul\":8092:8095   */\n      dup6\n        /* \"#utility.yul\":8085:8095   */\n      swap4\n      pop\n        /* \"#utility.yul\":7511:8101   */\n      pop\n      pop\n      pop\n        /* \"#utility.yul\":7393:8101   */\n      swap3\n      swap2\n      pop\n      pop\n      jump\t// out\n        /* \"#utility.yul\":8107:8468   */\n    tag_75:\n        /* \"#utility.yul\":8244:8248   */\n      0x00\n        /* \"#utility.yul\":8282:8284   */\n      0x20\n        /* \"#utility.yul\":8271:8280   */\n      dup3\n        /* \"#utility.yul\":8267:8285   */\n      add\n        /* \"#utility.yul\":8259:8285   */\n      swap1\n      pop\n        /* \"#utility.yul\":8331:8340   */\n      dup2\n        /* \"#utility.yul\":8325:8329   */\n      dup2\n        /* \"#utility.yul\":8321:8341   */\n      sub\n        /* \"#utility.yul\":8317:8318   */\n      0x00\n        /* \"#utility.yul\":8306:8315   */\n      dup4\n        /* \"#utility.yul\":8302:8319   */\n      add\n        /* \"#utility.yul\":8295:8342   */\n      mstore\n        /* \"#utility.yul\":8359:8461   */\n      tag_323\n        /* \"#utility.yul\":8456:8460   */\n      dup2\n        /* \"#utility.yul\":8447:8453   */\n      dup5\n        /* \"#utility.yul\":8359:8461   */\n      tag_229\n      jump\t// in\n    tag_323:\n        /* \"#utility.yul\":8351:8461   */\n      swap1\n      pop\n        /* \"#utility.yul\":8107:8468   */\n      swap3\n      swap2\n      pop\n      pop\n      jump\t// out\n        /* \"#utility.yul\":8474:8654   */\n    tag_108:\n        /* \"#utility.yul\":8522:8599   */\n      0x4e487b7100000000000000000000000000000000000000000000000000000000\n        /* \"#utility.yul\":8519:8520   */\n      0x00\n        /* \"#utility.yul\":8512:8600   */\n      mstore\n        /* \"#utility.yul\":8619:8623   */\n      0x32\n        /* \"#utility.yul\":8616:8617   */\n      0x04\n        /* \"#utility.yul\":8609:8624   */\n      mstore\n        /* \"#utility.yul\":8643:8647   */\n      0x24\n        /* \"#utility.yul\":8640:8641   */\n      0x00\n        /* \"#utility.yul\":8633:8648   */\n      revert\n        /* \"#utility.yul\":8660:8840   */\n    tag_230:\n        /* \"#utility.yul\":8708:8785   */\n      0x4e487b7100000000000000000000000000000000000000000000000000000000\n        /* \"#utility.yul\":8705:8706   */\n      0x00\n        /* \"#utility.yul\":8698:8786   */\n      mstore\n        /* \"#utility.yul\":8805:8809   */\n      0x11\n        /* \"#utility.yul\":8802:8803   */\n      0x04\n        /* \"#utility.yul\":8795:8810   */\n      mstore\n        /* \"#utility.yul\":8829:8833   */\n      0x24\n        /* \"#utility.yul\":8826:8827   */\n      0x00\n        /* \"#utility.yul\":8819:8834   */\n      revert\n        /* \"#utility.yul\":8846:9079   */\n    tag_142:\n        /* \"#utility.yul\":8885:8888   */\n      0x00\n        /* \"#utility.yul\":8908:8932   */\n      tag_327\n        /* \"#utility.yul\":8926:8931   */\n      dup3\n        /* \"#utility.yul\":8908:8932   */\n      tag_205\n      jump\t// in\n    tag_327:\n        /* \"#utility.yul\":8899:8932   */\n      swap2\n      pop\n        /* \"#utility.yul\":8954:9020   */\n      0xffffffffffffffffffffffffffffffffffffffffffffffffffffffffffffffff\n        /* \"#utility.yul\":8947:8952   */\n      dup3\n        /* \"#utility.yul\":8944:9021   */\n      sub\n        /* \"#utility.yul\":8941:9044   */\n      tag_328\n      jumpi\n        /* \"#utility.yul\":9024:9042   */\n      tag_329\n      tag_230\n      jump\t// in\n    tag_329:\n        /* \"#utility.yul\":8941:9044   */\n    tag_328:\n        /* \"#utility.yul\":9071:9072   */\n      0x01\n        /* \"#utility.yul\":9064:9069   */\n      dup3\n        /* \"#utility.yul\":9060:9073   */\n      add\n        /* \"#utility.yul\":9053:9073   */\n      swap1\n      pop\n        /* \"#utility.yul\":8846:9079   */\n      swap2\n      swap1\n      pop\n      jump\t// out\n        /* \"#utility.yul\":9085:9265   */\n    tag_145:\n        /* \"#utility.yul\":9133:9210   */\n      0x4e487b7100000000000000000000000000000000000000000000000000000000\n        /* \"#utility.yul\":9130:9131   */\n      0x00\n        /* \"#utility.yul\":9123:9211   */\n      mstore\n        /* \"#utility.yul\":9230:9234   */\n      0x41\n        /* \"#utility.yul\":9227:9228   */\n      0x04\n        /* \"#utility.yul\":9220:9235   */\n      mstore\n        /* \"#utility.yul\":9254:9258   */\n      0x24\n        /* \"#utility.yul\":9251:9252   */\n      0x00\n        /* \"#utility.yul\":9244:9259   */\n      revert\n\n    auxdata: 0xa264697066735822122063d77060c622d03c9378a56950f1cb27e2bcda442e248416c5187409ae45aeb664736f6c63430008180033\n}\n",
				"bytecode": {
					"linkReferences": {},
					"object": "608060405234801562000010575f80fd5b5060405162001c4238038062001c428339818101604052810190620000369190620004f7565b335f73ffffffffffffffffffffffffffffffffffffffff168173ffffffffffffffffffffffffffffffffffffffff1603620000aa575f6040517f1e4fbdf7000000000000000000000000000000000000000000000000000000008152600401620000a1919062000557565b60405180910390fd5b620000bb816200015e60201b60201c565b505f5b815181101562000156575f73ffffffffffffffffffffffffffffffffffffffff16828281518110620000f557620000f462000572565b5b602002602001015173ffffffffffffffffffffffffffffffffffffffff161462000148576200014782828151811062000133576200013262000572565b5b60200260200101516200021f60201b60201c565b5b8080600101915050620000be565b50506200059f565b5f805f9054906101000a900473ffffffffffffffffffffffffffffffffffffffff169050815f806101000a81548173ffffffffffffffffffffffffffffffffffffffff021916908373ffffffffffffffffffffffffffffffffffffffff1602179055508173ffffffffffffffffffffffffffffffffffffffff168173ffffffffffffffffffffffffffffffffffffffff167f8be0079c531659141344cd1fd0a4f28419497f9722a3daafe3b4186f6b6457e060405160405180910390a35050565b6001805f8373ffffffffffffffffffffffffffffffffffffffff1673ffffffffffffffffffffffffffffffffffffffff1681526020019081526020015f205f6101000a81548160ff021916908315150217905550600281908060018154018082558091505060019003905f5260205f20015f9091909190916101000a81548173ffffffffffffffffffffffffffffffffffffffff021916908373ffffffffffffffffffffffffffffffffffffffff1602179055508073ffffffffffffffffffffffffffffffffffffffff167f784c8f4dbf0ffedd6e72c76501c545a70f8b203b30a26ce542bf92ba87c248a460405160405180910390a250565b5f604051905090565b5f80fd5b5f80fd5b5f80fd5b5f601f19601f8301169050919050565b7f4e487b71000000000000000000000000000000000000000000000000000000005f52604160045260245ffd5b62000376826200032e565b810181811067ffffffffffffffff821117156200039857620003976200033e565b5b80604052505050565b5f620003ac62000319565b9050620003ba82826200036b565b919050565b5f67ffffffffffffffff821115620003dc57620003db6200033e565b5b602082029050602081019050919050565b5f80fd5b5f73ffffffffffffffffffffffffffffffffffffffff82169050919050565b5f6200041c82620003f1565b9050919050565b6200042e8162000410565b811462000439575f80fd5b50565b5f815190506200044c8162000423565b92915050565b5f620004686200046284620003bf565b620003a1565b905080838252602082019050602084028301858111156200048e576200048d620003ed565b5b835b81811015620004bb5780620004a688826200043c565b84526020840193505060208101905062000490565b5050509392505050565b5f82601f830112620004dc57620004db6200032a565b5b8151620004ee84826020860162000452565b91505092915050565b5f602082840312156200050f576200050e62000322565b5b5f82015167ffffffffffffffff8111156200052f576200052e62000326565b5b6200053d84828501620004c5565b91505092915050565b620005518162000410565b82525050565b5f6020820190506200056c5f83018462000546565b92915050565b7f4e487b71000000000000000000000000000000000000000000000000000000005f52603260045260245ffd5b61169580620005ad5f395ff3fe608060405234801561000f575f80fd5b50600436106100fe575f3560e01c806366e305fd116100955780638da5cb5b116100645780638da5cb5b146102965780639b7ecf22146102b4578063d48bfca7146102e4578063f2fde38b14610300576100fe565b806366e305fd14610220578063715018a614610250578063748cdcdc1461025a57806374d0c73f14610278576100fe565b806344b22fdd116100d157806344b22fdd1461019c5780634ae05c7d146101b85780635914220d146101d45780635fa7b58414610204576100fe565b80630e27e3df1461010257806315baa8c01461011e5780631efe4b0c1461014e5780633b729b861461017e575b5f80fd5b61011c6004803603810190610117919061122b565b61031c565b005b61013860048036038101906101339190611289565b610449565b60405161014591906112c3565b60405180910390f35b6101686004803603810190610163919061122b565b610484565b60405161017591906112f6565b60405180910390f35b6101866104a1565b60405161019391906113c6565b60405180910390f35b6101b660048036038101906101b1919061122b565b61052c565b005b6101d260048036038101906101cd9190611447565b610720565b005b6101ee60048036038101906101e99190611289565b610879565b6040516101fb91906112c3565b60405180910390f35b61021e6004803603810190610219919061122b565b6108b4565b005b61023a6004803603810190610235919061122b565b610a46565b60405161024791906112f6565b60405180910390f35b610258610a63565b005b610262610a76565b60405161026f91906113c6565b60405180910390f35b610280610cbd565b60405161028d91906114a1565b60405180910390f35b61029e610cc9565b6040516102ab91906112c3565b60405180910390f35b6102ce60048036038101906102c99190611447565b610cf0565b6040516102db9190611571565b60405180910390f35b6102fe60048036038101906102f9919061122b565b610df7565b005b61031a6004803603810190610315919061122b565b610efc565b005b610324610f80565b60035f8273ffffffffffffffffffffffffffffffffffffffff1673ffffffffffffffffffffffffffffffffffffffff1681526020019081526020015f205f9054906101000a900460ff166103af57806040517fbfc6c3370000000000000000000000000000000000000000000000000000000081526004016103a691906112c3565b60405180910390fd5b5f60035f8373ffffffffffffffffffffffffffffffffffffffff1673ffffffffffffffffffffffffffffffffffffffff1681526020019081526020015f205f6101000a81548160ff0219169083151502179055508073ffffffffffffffffffffffffffffffffffffffff167fe3f5ed5f263f1f01764a96edfc7d025f511ec5f7d180e8816908b78bcf74f09860405160405180910390a250565b60048181548110610458575f80fd5b905f5260205f20015f915054906101000a900473ffffffffffffffffffffffffffffffffffffffff1681565b6003602052805f5260405f205f915054906101000a900460ff1681565b6060600480548060200260200160405190810160405280929190818152602001828054801561052257602002820191905f5260205f20905b815f9054906101000a900473ffffffffffffffffffffffffffffffffffffffff1673ffffffffffffffffffffffffffffffffffffffff16815260200190600101908083116104d9575b5050505050905090565b610534610f80565b5f73ffffffffffffffffffffffffffffffffffffffff168173ffffffffffffffffffffffffffffffffffffffff1603610599576040517fd92e233d00000000000000000000000000000000000000000000000000000000815260040160405180910390fd5b60035f8273ffffffffffffffffffffffffffffffffffffffff1673ffffffffffffffffffffffffffffffffffffffff1681526020019081526020015f205f9054906101000a900460ff161561062557806040517f45ed80e900000000000000000000000000000000000000000000000000000000815260040161061c91906112c3565b60405180910390fd5b600160035f8373ffffffffffffffffffffffffffffffffffffffff1673ffffffffffffffffffffffffffffffffffffffff1681526020019081526020015f205f6101000a81548160ff021916908315150217905550600481908060018154018082558091505060019003905f5260205f20015f9091909190916101000a81548173ffffffffffffffffffffffffffffffffffffffff021916908373ffffffffffffffffffffffffffffffffffffffff1602179055508073ffffffffffffffffffffffffffffffffffffffff167f20f06cf92183fb3bd87d074ec788beb83367293faf2388c274b4bad9aecae72560405160405180910390a250565b610728610f80565b5f5b82829050811015610874575f73ffffffffffffffffffffffffffffffffffffffff1683838381811061075f5761075e611591565b5b9050602002016020810190610774919061122b565b73ffffffffffffffffffffffffffffffffffffffff16036107c1576040517fd92e233d00000000000000000000000000000000000000000000000000000000815260040160405180910390fd5b60015f8484848181106107d7576107d6611591565b5b90506020020160208101906107ec919061122b565b73ffffffffffffffffffffffffffffffffffffffff1673ffffffffffffffffffffffffffffffffffffffff1681526020019081526020015f205f9054906101000a900460ff166108675761086683838381811061084c5761084b611591565b5b9050602002016020810190610861919061122b565b611007565b5b808060010191505061072a565b505050565b60028181548110610888575f80fd5b905f5260205f20015f915054906101000a900473ffffffffffffffffffffffffffffffffffffffff1681565b6108bc610f80565b5f73ffffffffffffffffffffffffffffffffffffffff168173ffffffffffffffffffffffffffffffffffffffff1603610921576040517fd92e233d00000000000000000000000000000000000000000000000000000000815260040160405180910390fd5b60015f8273ffffffffffffffffffffffffffffffffffffffff1673ffffffffffffffffffffffffffffffffffffffff1681526020019081526020015f205f9054906101000a900460ff166109ac57806040517f3a1c15450000000000000000000000000000000000000000000000000000000081526004016109a391906112c3565b60405180910390fd5b5f60015f8373ffffffffffffffffffffffffffffffffffffffff1673ffffffffffffffffffffffffffffffffffffffff1681526020019081526020015f205f6101000a81548160ff0219169083151502179055508073ffffffffffffffffffffffffffffffffffffffff167f4c910b69fe65a61f7531b9c5042b2329ca7179c77290aa7e2eb3afa3c8511fd360405160405180910390a250565b6001602052805f5260405f205f915054906101000a900460ff1681565b610a6b610f80565b610a745f611101565b565b60605f805b600280549050811015610b2e5760015f60028381548110610a9f57610a9e611591565b5b905f5260205f20015f9054906101000a900473ffffffffffffffffffffffffffffffffffffffff1673ffffffffffffffffffffffffffffffffffffffff1673ffffffffffffffffffffffffffffffffffffffff1681526020019081526020015f205f9054906101000a900460ff1615610b21578180610b1d906115eb565b9250505b8080600101915050610a7b565b508067ffffffffffffffff811115610b4957610b48611632565b5b604051908082528060200260200182016040528015610b775781602001602082028036833780820191505090505b5091505f805b600280549050811015610cb75760015f60028381548110610ba157610ba0611591565b5b905f5260205f20015f9054906101000a900473ffffffffffffffffffffffffffffffffffffffff1673ffffffffffffffffffffffffffffffffffffffff1673ffffffffffffffffffffffffffffffffffffffff1681526020019081526020015f205f9054906101000a900460ff1615610caa5760028181548110610c2857610c27611591565b5b905f5260205f20015f9054906101000a900473ffffffffffffffffffffffffffffffffffffffff16848380610c5c906115eb565b945081518110610c6f57610c6e611591565b5b602002602001019073ffffffffffffffffffffffffffffffffffffffff16908173ffffffffffffffffffffffffffffffffffffffff16815250505b8080600101915050610b7d565b50505090565b5f600280549050905090565b5f805f9054906101000a900473ffffffffffffffffffffffffffffffffffffffff16905090565b60608282905067ffffffffffffffff811115610d0f57610d0e611632565b5b604051908082528060200260200182016040528015610d3d5781602001602082028036833780820191505090505b5090505f5b83839050811015610df05760015f858584818110610d6357610d62611591565b5b9050602002016020810190610d78919061122b565b73ffffffffffffffffffffffffffffffffffffffff1673ffffffffffffffffffffffffffffffffffffffff1681526020019081526020015f205f9054906101000a900460ff16828281518110610dd157610dd0611591565b5b6020026020010190151590811515815250508080600101915050610d42565b5092915050565b610dff610f80565b5f73ffffffffffffffffffffffffffffffffffffffff168173ffffffffffffffffffffffffffffffffffffffff1603610e64576040517fd92e233d00000000000000000000000000000000000000000000000000000000815260040160405180910390fd5b60015f8273ffffffffffffffffffffffffffffffffffffffff1673ffffffffffffffffffffffffffffffffffffffff1681526020019081526020015f205f9054906101000a900460ff1615610ef057806040517facd44984000000000000000000000000000000000000000000000000000000008152600401610ee791906112c3565b60405180910390fd5b610ef981611007565b50565b610f04610f80565b5f73ffffffffffffffffffffffffffffffffffffffff168173ffffffffffffffffffffffffffffffffffffffff1603610f74575f6040517f1e4fbdf7000000000000000000000000000000000000000000000000000000008152600401610f6b91906112c3565b60405180910390fd5b610f7d81611101565b50565b610f886111c2565b73ffffffffffffffffffffffffffffffffffffffff16610fa6610cc9565b73ffffffffffffffffffffffffffffffffffffffff161461100557610fc96111c2565b6040517f118cdaa7000000000000000000000000000000000000000000000000000000008152600401610ffc91906112c3565b60405180910390fd5b565b6001805f8373ffffffffffffffffffffffffffffffffffffffff1673ffffffffffffffffffffffffffffffffffffffff1681526020019081526020015f205f6101000a81548160ff021916908315150217905550600281908060018154018082558091505060019003905f5260205f20015f9091909190916101000a81548173ffffffffffffffffffffffffffffffffffffffff021916908373ffffffffffffffffffffffffffffffffffffffff1602179055508073ffffffffffffffffffffffffffffffffffffffff167f784c8f4dbf0ffedd6e72c76501c545a70f8b203b30a26ce542bf92ba87c248a460405160405180910390a250565b5f805f9054906101000a900473ffffffffffffffffffffffffffffffffffffffff169050815f806101000a81548173ffffffffffffffffffffffffffffffffffffffff021916908373ffffffffffffffffffffffffffffffffffffffff1602179055508173ffffffffffffffffffffffffffffffffffffffff168173ffffffffffffffffffffffffffffffffffffffff167f8be0079c531659141344cd1fd0a4f28419497f9722a3daafe3b4186f6b6457e060405160405180910390a35050565b5f33905090565b5f80fd5b5f80fd5b5f73ffffffffffffffffffffffffffffffffffffffff82169050919050565b5f6111fa826111d1565b9050919050565b61120a816111f0565b8114611214575f80fd5b50565b5f8135905061122581611201565b92915050565b5f602082840312156112405761123f6111c9565b5b5f61124d84828501611217565b91505092915050565b5f819050919050565b61126881611256565b8114611272575f80fd5b50565b5f813590506112838161125f565b92915050565b5f6020828403121561129e5761129d6111c9565b5b5f6112ab84828501611275565b91505092915050565b6112bd816111f0565b82525050565b5f6020820190506112d65f8301846112b4565b92915050565b5f8115159050919050565b6112f0816112dc565b82525050565b5f6020820190506113095f8301846112e7565b92915050565b5f81519050919050565b5f82825260208201905092915050565b5f819050602082019050919050565b611341816111f0565b82525050565b5f6113528383611338565b60208301905092915050565b5f602082019050919050565b5f6113748261130f565b61137e8185611319565b935061138983611329565b805f5b838110156113b95781516113a08882611347565b97506113ab8361135e565b92505060018101905061138c565b5085935050505092915050565b5f6020820190508181035f8301526113de818461136a565b905092915050565b5f80fd5b5f80fd5b5f80fd5b5f8083601f840112611407576114066113e6565b5b8235905067ffffffffffffffff811115611424576114236113ea565b5b6020830191508360208202830111156114405761143f6113ee565b5b9250929050565b5f806020838503121561145d5761145c6111c9565b5b5f83013567ffffffffffffffff81111561147a576114796111cd565b5b611486858286016113f2565b92509250509250929050565b61149b81611256565b82525050565b5f6020820190506114b45f830184611492565b92915050565b5f81519050919050565b5f82825260208201905092915050565b5f819050602082019050919050565b6114ec816112dc565b82525050565b5f6114fd83836114e3565b60208301905092915050565b5f602082019050919050565b5f61151f826114ba565b61152981856114c4565b9350611534836114d4565b805f5b8381101561156457815161154b88826114f2565b975061155683611509565b925050600181019050611537565b5085935050505092915050565b5f6020820190508181035f8301526115898184611515565b905092915050565b7f4e487b71000000000000000000000000000000000000000000000000000000005f52603260045260245ffd5b7f4e487b71000000000000000000000000000000000000000000000000000000005f52601160045260245ffd5b5f6115f582611256565b91507fffffffffffffffffffffffffffffffffffffffffffffffffffffffffffffffff8203611627576116266115be565b5b600182019050919050565b7f4e487b71000000000000000000000000000000000000000000000000000000005f52604160045260245ffdfea264697066735822122063d77060c622d03c9378a56950f1cb27e2bcda442e248416c5187409ae45aeb664736f6c63430008180033",
					"opcodes": "PUSH1 0x80 PUSH1 0x40 MSTORE CALLVALUE DUP1 ISZERO PUSH3 0x10 JUMPI PUSH0 DUP1 REVERT JUMPDEST POP PUSH1 0x40 MLOAD PUSH3 0x1C42 CODESIZE SUB DUP1 PUSH3 0x1C42 DUP4 CODECOPY DUP2 DUP2 ADD PUSH1 0x40 MSTORE DUP2 ADD SWAP1 PUSH3 0x36 SWAP2 SWAP1 PUSH3 0x4F7 JUMP JUMPDEST CALLER PUSH0 PUSH20 0xFFFFFFFFFFFFFFFFFFFFFFFFFFFFFFFFFFFFFFFF AND DUP2 PUSH20 0xFFFFFFFFFFFFFFFFFFFFFFFFFFFFFFFFFFFFFFFF AND SUB PUSH3 0xAA JUMPI PUSH0 PUSH1 0x40 MLOAD PUSH32 0x1E4FBDF700000000000000000000000000000000000000000000000000000000 DUP2 MSTORE PUSH1 0x4 ADD PUSH3 0xA1 SWAP2 SWAP1 PUSH3 0x557 JUMP JUMPDEST PUSH1 0x40 MLOAD DUP1 SWAP2 SUB SWAP1 REVERT JUMPDEST PUSH3 0xBB DUP2 PUSH3 0x15E PUSH1 0x20 SHL PUSH1 0x20 SHR JUMP JUMPDEST POP PUSH0 JUMPDEST DUP2 MLOAD DUP2 LT ISZERO PUSH3 0x156 JUMPI PUSH0 PUSH20 0xFFFFFFFFFFFFFFFFFFFFFFFFFFFFFFFFFFFFFFFF AND DUP3 DUP3 DUP2 MLOAD DUP2 LT PUSH3 0xF5 JUMPI PUSH3 0xF4 PUSH3 0x572 JUMP JUMPDEST JUMPDEST PUSH1 0x20 MUL PUSH1 0x20 ADD ADD MLOAD PUSH20 0xFFFFFFFFFFFFFFFFFFFFFFFFFFFFFFFFFFFFFFFF AND EQ PUSH3 0x148 JUMPI PUSH3 0x147 DUP3 DUP3 DUP2 MLOAD DUP2 LT PUSH3 0x133 JUMPI PUSH3 0x132 PUSH3 0x572 JUMP JUMPDEST JUMPDEST PUSH1 0x20 MUL PUSH1 0x20 ADD ADD MLOAD PUSH3 0x21F PUSH1 0x20 SHL PUSH1 0x20 SHR JUMP JUMPDEST JUMPDEST DUP1 DUP1 PUSH1 0x1 ADD SWAP2 POP POP PUSH3 0xBE JUMP JUMPDEST POP POP PUSH3 0x59F JUMP JUMPDEST PUSH0 DUP1 PUSH0 SWAP1 SLOAD SWAP1 PUSH2 0x100 EXP SWAP1 DIV PUSH20 0xFFFFFFFFFFFFFFFFFFFFFFFFFFFFFFFFFFFFFFFF AND SWAP1 POP DUP2 PUSH0 DUP1 PUSH2 0x100 EXP DUP2 SLOAD DUP2 PUSH20 0xFFFFFFFFFFFFFFFFFFFFFFFFFFFFFFFFFFFFFFFF MUL NOT AND SWAP1 DUP4 PUSH20 0xFFFFFFFFFFFFFFFFFFFFFFFFFFFFFFFFFFFFFFFF AND MUL OR SWAP1 SSTORE POP DUP2 PUSH20 0xFFFFFFFFFFFFFFFFFFFFFFFFFFFFFFFFFFFFFFFF AND DUP2 PUSH20 0xFFFFFFFFFFFFFFFFFFFFFFFFFFFFFFFFFFFFFFFF AND PUSH32 0x8BE0079C531659141344CD1FD0A4F28419497F9722A3DAAFE3B4186F6B6457E0 PUSH1 0x40 MLOAD PUSH1 0x40 MLOAD DUP1 SWAP2 SUB SWAP1 LOG3 POP POP JUMP JUMPDEST PUSH1 0x1 DUP1 PUSH0 DUP4 PUSH20 0xFFFFFFFFFFFFFFFFFFFFFFFFFFFFFFFFFFFFFFFF AND PUSH20 0xFFFFFFFFFFFFFFFFFFFFFFFFFFFFFFFFFFFFFFFF AND DUP2 MSTORE PUSH1 0x20 ADD SWAP1 DUP2 MSTORE PUSH1 0x20 ADD PUSH0 KECCAK256 PUSH0 PUSH2 0x100 EXP DUP2 SLOAD DUP2 PUSH1 0xFF MUL NOT AND SWAP1 DUP4 ISZERO ISZERO MUL OR SWAP1 SSTORE POP PUSH1 0x2 DUP2 SWAP1 DUP1 PUSH1 0x1 DUP2 SLOAD ADD DUP1 DUP3 SSTORE DUP1 SWAP2 POP POP PUSH1 0x1 SWAP1 SUB SWAP1 PUSH0 MSTORE PUSH1 0x20 PUSH0 KECCAK256 ADD PUSH0 SWAP1 SWAP2 SWAP1 SWAP2 SWAP1 SWAP2 PUSH2 0x100 EXP DUP2 SLOAD DUP2 PUSH20 0xFFFFFFFFFFFFFFFFFFFFFFFFFFFFFFFFFFFFFFFF MUL NOT AND SWAP1 DUP4 PUSH20 0xFFFFFFFFFFFFFFFFFFFFFFFFFFFFFFFFFFFFFFFF AND MUL OR SWAP1 SSTORE POP DUP1 PUSH20 0xFFFFFFFFFFFFFFFFFFFFFFFFFFFFFFFFFFFFFFFF AND PUSH32 0x784C8F4DBF0FFEDD6E72C76501C545A70F8B203B30A26CE542BF92BA87C248A4 PUSH1 0x40 MLOAD PUSH1 0x40 MLOAD DUP1 SWAP2 SUB SWAP1 LOG2 POP JUMP JUMPDEST PUSH0 PUSH1 0x40 MLOAD SWAP1 POP SWAP1 JUMP JUMPDEST PUSH0 DUP1 REVERT JUMPDEST PUSH0 DUP1 REVERT JUMPDEST PUSH0 DUP1 REVERT JUMPDEST PUSH0 PUSH1 0x1F NOT PUSH1 0x1F DUP4 ADD AND SWAP1 POP SWAP2 SWAP1 POP JUMP JUMPDEST PUSH32 0x4E487B7100000000000000000000000000000000000000000000000000000000 PUSH0 MSTORE PUSH1 0x41 PUSH1 0x4 MSTORE PUSH1 0x24 PUSH0 REVERT JUMPDEST PUSH3 0x376 DUP3 PUSH3 0x32E JUMP JUMPDEST DUP2 ADD DUP2 DUP2 LT PUSH8 0xFFFFFFFFFFFFFFFF DUP3 GT OR ISZERO PUSH3 0x398 JUMPI PUSH3 0x397 PUSH3 0x33E JUMP JUMPDEST JUMPDEST DUP1 PUSH1 0x40 MSTORE POP POP POP JUMP JUMPDEST PUSH0 PUSH3 0x3AC PUSH3 0x319 JUMP JUMPDEST SWAP1 POP PUSH3 0x3BA DUP3 DUP3 PUSH3 0x36B JUMP JUMPDEST SWAP2 SWAP1 POP JUMP JUMPDEST PUSH0 PUSH8 0xFFFFFFFFFFFFFFFF DUP3 GT ISZERO PUSH3 0x3DC JUMPI PUSH3 0x3DB PUSH3 0x33E JUMP JUMPDEST JUMPDEST PUSH1 0x20 DUP3 MUL SWAP1 POP PUSH1 0x20 DUP2 ADD SWAP1 POP SWAP2 SWAP1 POP JUMP JUMPDEST PUSH0 DUP1 REVERT JUMPDEST PUSH0 PUSH20 0xFFFFFFFFFFFFFFFFFFFFFFFFFFFFFFFFFFFFFFFF DUP3 AND SWAP1 POP SWAP2 SWAP1 POP JUMP JUMPDEST PUSH0 PUSH3 0x41C DUP3 PUSH3 0x3F1 JUMP JUMPDEST SWAP1 POP SWAP2 SWAP1 POP JUMP JUMPDEST PUSH3 0x42E DUP2 PUSH3 0x410 JUMP JUMPDEST DUP2 EQ PUSH3 0x439 JUMPI PUSH0 DUP1 REVERT JUMPDEST POP JUMP JUMPDEST PUSH0 DUP2 MLOAD SWAP1 POP PUSH3 0x44C DUP2 PUSH3 0x423 JUMP JUMPDEST SWAP3 SWAP2 POP POP JUMP JUMPDEST PUSH0 PUSH3 0x468 PUSH3 0x462 DUP5 PUSH3 0x3BF JUMP JUMPDEST PUSH3 0x3A1 JUMP JUMPDEST SWAP1 POP DUP1 DUP4 DUP3 MSTORE PUSH1 0x20 DUP3 ADD SWAP1 POP PUSH1 0x20 DUP5 MUL DUP4 ADD DUP6 DUP2 GT ISZERO PUSH3 0x48E JUMPI PUSH3 0x48D PUSH3 0x3ED JUMP JUMPDEST JUMPDEST DUP4 JUMPDEST DUP2 DUP2 LT ISZERO PUSH3 0x4BB JUMPI DUP1 PUSH3 0x4A6 DUP9 DUP3 PUSH3 0x43C JUMP JUMPDEST DUP5 MSTORE PUSH1 0x20 DUP5 ADD SWAP4 POP POP PUSH1 0x20 DUP2 ADD SWAP1 POP PUSH3 0x490 JUMP JUMPDEST POP POP POP SWAP4 SWAP3 POP POP POP JUMP JUMPDEST PUSH0 DUP3 PUSH1 0x1F DUP4 ADD SLT PUSH3 0x4DC JUMPI PUSH3 0x4DB PUSH3 0x32A JUMP JUMPDEST JUMPDEST DUP2 MLOAD PUSH3 0x4EE DUP5 DUP3 PUSH1 0x20 DUP7 ADD PUSH3 0x452 JUMP JUMPDEST SWAP2 POP POP SWAP3 SWAP2 POP POP JUMP JUMPDEST PUSH0 PUSH1 0x20 DUP3 DUP5 SUB SLT ISZERO PUSH3 0x50F JUMPI PUSH3 0x50E PUSH3 0x322 JUMP JUMPDEST JUMPDEST PUSH0 DUP3 ADD MLOAD PUSH8 0xFFFFFFFFFFFFFFFF DUP2 GT ISZERO PUSH3 0x52F JUMPI PUSH3 0x52E PUSH3 0x326 JUMP JUMPDEST JUMPDEST PUSH3 0x53D DUP5 DUP3 DUP6 ADD PUSH3 0x4C5 JUMP JUMPDEST SWAP2 POP POP SWAP3 SWAP2 POP POP JUMP JUMPDEST PUSH3 0x551 DUP2 PUSH3 0x410 JUMP JUMPDEST DUP3 MSTORE POP POP JUMP JUMPDEST PUSH0 PUSH1 0x20 DUP3 ADD SWAP1 POP PUSH3 0x56C PUSH0 DUP4 ADD DUP5 PUSH3 0x546 JUMP JUMPDEST SWAP3 SWAP2 POP POP JUMP JUMPDEST PUSH32 0x4E487B7100000000000000000000000000000000000000000000000000000000 PUSH0 MSTORE PUSH1 0x32 PUSH1 0x4 MSTORE PUSH1 0x24 PUSH0 REVERT JUMPDEST PUSH2 0x1695 DUP1 PUSH3 0x5AD PUSH0 CODECOPY PUSH0 RETURN INVALID PUSH1 0x80 PUSH1 0x40 MSTORE CALLVALUE DUP1 ISZERO PUSH2 0xF JUMPI PUSH0 DUP1 REVERT JUMPDEST POP PUSH1 0x4 CALLDATASIZE LT PUSH2 0xFE JUMPI PUSH0 CALLDATALOAD PUSH1 0xE0 SHR DUP1 PUSH4 0x66E305FD GT PUSH2 0x95 JUMPI DUP1 PUSH4 0x8DA5CB5B GT PUSH2 0x64 JUMPI DUP1 PUSH4 0x8DA5CB5B EQ PUSH2 0x296 JUMPI DUP1 PUSH4 0x9B7ECF22 EQ PUSH2 0x2B4 JUMPI DUP1 PUSH4 0xD48BFCA7 EQ PUSH2 0x2E4 JUMPI DUP1 PUSH4 0xF2FDE38B EQ PUSH2 0x300 JUMPI PUSH2 0xFE JUMP JUMPDEST DUP1 PUSH4 0x66E305FD EQ PUSH2 0x220 JUMPI DUP1 PUSH4 0x715018A6 EQ PUSH2 0x250 JUMPI DUP1 PUSH4 0x748CDCDC EQ PUSH2 0x25A JUMPI DUP1 PUSH4 0x74D0C73F EQ PUSH2 0x278 JUMPI PUSH2 0xFE JUMP JUMPDEST DUP1 PUSH4 0x44B22FDD GT PUSH2 0xD1 JUMPI DUP1 PUSH4 0x44B22FDD EQ PUSH2 0x19C JUMPI DUP1 PUSH4 0x4AE05C7D EQ PUSH2 0x1B8 JUMPI DUP1 PUSH4 0x5914220D EQ PUSH2 0x1D4 JUMPI DUP1 PUSH4 0x5FA7B584 EQ PUSH2 0x204 JUMPI PUSH2 0xFE JUMP JUMPDEST DUP1 PUSH4 0xE27E3DF EQ PUSH2 0x102 JUMPI DUP1 PUSH4 0x15BAA8C0 EQ PUSH2 0x11E JUMPI DUP1 PUSH4 0x1EFE4B0C EQ PUSH2 0x14E JUMPI DUP1 PUSH4 0x3B729B86 EQ PUSH2 0x17E JUMPI JUMPDEST PUSH0 DUP1 REVERT JUMPDEST PUSH2 0x11C PUSH1 0x4 DUP1 CALLDATASIZE SUB DUP2 ADD SWAP1 PUSH2 0x117 SWAP2 SWAP1 PUSH2 0x122B JUMP JUMPDEST PUSH2 0x31C JUMP JUMPDEST STOP JUMPDEST PUSH2 0x138 PUSH1 0x4 DUP1 CALLDATASIZE SUB DUP2 ADD SWAP1 PUSH2 0x133 SWAP2 SWAP1 PUSH2 0x1289 JUMP JUMPDEST PUSH2 0x449 JUMP JUMPDEST PUSH1 0x40 MLOAD PUSH2 0x145 SWAP2 SWAP1 PUSH2 0x12C3 JUMP JUMPDEST PUSH1 0x40 MLOAD DUP1 SWAP2 SUB SWAP1 RETURN JUMPDEST PUSH2 0x168 PUSH1 0x4 DUP1 CALLDATASIZE SUB DUP2 ADD SWAP1 PUSH2 0x163 SWAP2 SWAP1 PUSH2 0x122B JUMP JUMPDEST PUSH2 0x484 JUMP JUMPDEST PUSH1 0x40 MLOAD PUSH2 0x175 SWAP2 SWAP1 PUSH2 0x12F6 JUMP JUMPDEST PUSH1 0x40 MLOAD DUP1 SWAP2 SUB SWAP1 RETURN JUMPDEST PUSH2 0x186 PUSH2 0x4A1 JUMP JUMPDEST PUSH1 0x40 MLOAD PUSH2 0x193 SWAP2 SWAP1 PUSH2 0x13C6 JUMP JUMPDEST PUSH1 0x40 MLOAD DUP1 SWAP2 SUB SWAP1 RETURN JUMPDEST PUSH2 0x1B6 PUSH1 0x4 DUP1 CALLDATASIZE SUB DUP2 ADD SWAP1 PUSH2 0x1B1 SWAP2 SWAP1 PUSH2 0x122B JUMP JUMPDEST PUSH2 0x52C JUMP JUMPDEST STOP JUMPDEST PUSH2 0x1D2 PUSH1 0x4 DUP1 CALLDATASIZE SUB DUP2 ADD SWAP1 PUSH2 0x1CD SWAP2 SWAP1 PUSH2 0x1447 JUMP JUMPDEST PUSH2 0x720 JUMP JUMPDEST STOP JUMPDEST PUSH2 0x1EE PUSH1 0x4 DUP1 CALLDATASIZE SUB DUP2 ADD SWAP1 PUSH2 0x1E9 SWAP2 SWAP1 PUSH2 0x1289 JUMP JUMPDEST PUSH2 0x879 JUMP JUMPDEST PUSH1 0x40 MLOAD PUSH2 0x1FB SWAP2 SWAP1 PUSH2 0x12C3 JUMP JUMPDEST PUSH1 0x40 MLOAD DUP1 SWAP2 SUB SWAP1 RETURN JUMPDEST PUSH2 0x21E PUSH1 0x4 DUP1 CALLDATASIZE SUB DUP2 ADD SWAP1 PUSH2 0x219 SWAP2 SWAP1 PUSH2 0x122B JUMP JUMPDEST PUSH2 0x8B4 JUMP JUMPDEST STOP JUMPDEST PUSH2 0x23A PUSH1 0x4 DUP1 CALLDATASIZE SUB DUP2 ADD SWAP1 PUSH2 0x235 SWAP2 SWAP1 PUSH2 0x122B JUMP JUMPDEST PUSH2 0xA46 JUMP JUMPDEST PUSH1 0x40 MLOAD PUSH2 0x247 SWAP2 SWAP1 PUSH2 0x12F6 JUMP JUMPDEST PUSH1 0x40 MLOAD DUP1 SWAP2 SUB SWAP1 RETURN JUMPDEST PUSH2 0x258 PUSH2 0xA63 JUMP JUMPDEST STOP JUMPDEST PUSH2 0x262 PUSH2 0xA76 JUMP JUMPDEST PUSH1 0x40 MLOAD PUSH2 0x26F SWAP2 SWAP1 PUSH2 0x13C6 JUMP JUMPDEST PUSH1 0x40 MLOAD DUP1 SWAP2 SUB SWAP1 RETURN JUMPDEST PUSH2 0x280 PUSH2 0xCBD JUMP JUMPDEST PUSH1 0x40 MLOAD PUSH2 0x28D SWAP2 SWAP1 PUSH2 0x14A1 JUMP JUMPDEST PUSH1 0x40 MLOAD DUP1 SWAP2 SUB SWAP1 RETURN JUMPDEST PUSH2 0x29E PUSH2 0xCC9 JUMP JUMPDEST PUSH1 0x40 MLOAD PUSH2 0x2AB SWAP2 SWAP1 PUSH2 0x12C3 JUMP JUMPDEST PUSH1 0x40 MLOAD DUP1 SWAP2 SUB SWAP1 RETURN JUMPDEST PUSH2 0x2CE PUSH1 0x4 DUP1 CALLDATASIZE SUB DUP2 ADD SWAP1 PUSH2 0x2C9 SWAP2 SWAP1 PUSH2 0x1447 JUMP JUMPDEST PUSH2 0xCF0 JUMP JUMPDEST PUSH1 0x40 MLOAD PUSH2 0x2DB SWAP2 SWAP1 PUSH2 0x1571 JUMP JUMPDEST PUSH1 0x40 MLOAD DUP1 SWAP2 SUB SWAP1 RETURN JUMPDEST PUSH2 0x2FE PUSH1 0x4 DUP1 CALLDATASIZE SUB DUP2 ADD SWAP1 PUSH2 0x2F9 SWAP2 SWAP1 PUSH2 0x122B JUMP JUMPDEST PUSH2 0xDF7 JUMP JUMPDEST STOP JUMPDEST PUSH2 0x31A PUSH1 0x4 DUP1 CALLDATASIZE SUB DUP2 ADD SWAP1 PUSH2 0x315 SWAP2 SWAP1 PUSH2 0x122B JUMP JUMPDEST PUSH2 0xEFC JUMP JUMPDEST STOP JUMPDEST PUSH2 0x324 PUSH2 0xF80 JUMP JUMPDEST PUSH1 0x3 PUSH0 DUP3 PUSH20 0xFFFFFFFFFFFFFFFFFFFFFFFFFFFFFFFFFFFFFFFF AND PUSH20 0xFFFFFFFFFFFFFFFFFFFFFFFFFFFFFFFFFFFFFFFF AND DUP2 MSTORE PUSH1 0x20 ADD SWAP1 DUP2 MSTORE PUSH1 0x20 ADD PUSH0 KECCAK256 PUSH0 SWAP1 SLOAD SWAP1 PUSH2 0x100 EXP SWAP1 DIV PUSH1 0xFF AND PUSH2 0x3AF JUMPI DUP1 PUSH1 0x40 MLOAD PUSH32 0xBFC6C33700000000000000000000000000000000000000000000000000000000 DUP2 MSTORE PUSH1 0x4 ADD PUSH2 0x3A6 SWAP2 SWAP1 PUSH2 0x12C3 JUMP JUMPDEST PUSH1 0x40 MLOAD DUP1 SWAP2 SUB SWAP1 REVERT JUMPDEST PUSH0 PUSH1 0x3 PUSH0 DUP4 PUSH20 0xFFFFFFFFFFFFFFFFFFFFFFFFFFFFFFFFFFFFFFFF AND PUSH20 0xFFFFFFFFFFFFFFFFFFFFFFFFFFFFFFFFFFFFFFFF AND DUP2 MSTORE PUSH1 0x20 ADD SWAP1 DUP2 MSTORE PUSH1 0x20 ADD PUSH0 KECCAK256 PUSH0 PUSH2 0x100 EXP DUP2 SLOAD DUP2 PUSH1 0xFF MUL NOT AND SWAP1 DUP4 ISZERO ISZERO MUL OR SWAP1 SSTORE POP DUP1 PUSH20 0xFFFFFFFFFFFFFFFFFFFFFFFFFFFFFFFFFFFFFFFF AND PUSH32 0xE3F5ED5F263F1F01764A96EDFC7D025F511EC5F7D180E8816908B78BCF74F098 PUSH1 0x40 MLOAD PUSH1 0x40 MLOAD DUP1 SWAP2 SUB SWAP1 LOG2 POP JUMP JUMPDEST PUSH1 0x4 DUP2 DUP2 SLOAD DUP2 LT PUSH2 0x458 JUMPI PUSH0 DUP1 REVERT JUMPDEST SWAP1 PUSH0 MSTORE PUSH1 0x20 PUSH0 KECCAK256 ADD PUSH0 SWAP2 POP SLOAD SWAP1 PUSH2 0x100 EXP SWAP1 DIV PUSH20 0xFFFFFFFFFFFFFFFFFFFFFFFFFFFFFFFFFFFFFFFF AND DUP2 JUMP JUMPDEST PUSH1 0x3 PUSH1 0x20 MSTORE DUP1 PUSH0 MSTORE PUSH1 0x40 PUSH0 KECCAK256 PUSH0 SWAP2 POP SLOAD SWAP1 PUSH2 0x100 EXP SWAP1 DIV PUSH1 0xFF AND DUP2 JUMP JUMPDEST PUSH1 0x60 PUSH1 0x4 DUP1 SLOAD DUP1 PUSH1 0x20 MUL PUSH1 0x20 ADD PUSH1 0x40 MLOAD SWAP1 DUP2 ADD PUSH1 0x40 MSTORE DUP1 SWAP3 SWAP2 SWAP1 DUP2 DUP2 MSTORE PUSH1 0x20 ADD DUP3 DUP1 SLOAD DUP1 ISZERO PUSH2 0x522 JUMPI PUSH1 0x20 MUL DUP3 ADD SWAP2 SWAP1 PUSH0 MSTORE PUSH1 0x20 PUSH0 KECCAK256 SWAP1 JUMPDEST DUP2 PUSH0 SWAP1 SLOAD SWAP1 PUSH2 0x100 EXP SWAP1 DIV PUSH20 0xFFFFFFFFFFFFFFFFFFFFFFFFFFFFFFFFFFFFFFFF AND PUSH20 0xFFFFFFFFFFFFFFFFFFFFFFFFFFFFFFFFFFFFFFFF AND DUP2 MSTORE PUSH1 0x20 ADD SWAP1 PUSH1 0x1 ADD SWAP1 DUP1 DUP4 GT PUSH2 0x4D9 JUMPI JUMPDEST POP POP POP POP POP SWAP1 POP SWAP1 JUMP JUMPDEST PUSH2 0x534 PUSH2 0xF80 JUMP JUMPDEST PUSH0 PUSH20 0xFFFFFFFFFFFFFFFFFFFFFFFFFFFFFFFFFFFFFFFF AND DUP2 PUSH20 0xFFFFFFFFFFFFFFFFFFFFFFFFFFFFFFFFFFFFFFFF AND SUB PUSH2 0x599 JUMPI PUSH1 0x40 MLOAD PUSH32 0xD92E233D00000000000000000000000000000000000000000000000000000000 DUP2 MSTORE PUSH1 0x4 ADD PUSH1 0x40 MLOAD DUP1 SWAP2 SUB SWAP1 REVERT JUMPDEST PUSH1 0x3 PUSH0 DUP3 PUSH20 0xFFFFFFFFFFFFFFFFFFFFFFFFFFFFFFFFFFFFFFFF AND PUSH20 0xFFFFFFFFFFFFFFFFFFFFFFFFFFFFFFFFFFFFFFFF AND DUP2 MSTORE PUSH1 0x20 ADD SWAP1 DUP2 MSTORE PUSH1 0x20 ADD PUSH0 KECCAK256 PUSH0 SWAP1 SLOAD SWAP1 PUSH2 0x100 EXP SWAP1 DIV PUSH1 0xFF AND ISZERO PUSH2 0x625 JUMPI DUP1 PUSH1 0x40 MLOAD PUSH32 0x45ED80E900000000000000000000000000000000000000000000000000000000 DUP2 MSTORE PUSH1 0x4 ADD PUSH2 0x61C SWAP2 SWAP1 PUSH2 0x12C3 JUMP JUMPDEST PUSH1 0x40 MLOAD DUP1 SWAP2 SUB SWAP1 REVERT JUMPDEST PUSH1 0x1 PUSH1 0x3 PUSH0 DUP4 PUSH20 0xFFFFFFFFFFFFFFFFFFFFFFFFFFFFFFFFFFFFFFFF AND PUSH20 0xFFFFFFFFFFFFFFFFFFFFFFFFFFFFFFFFFFFFFFFF AND DUP2 MSTORE PUSH1 0x20 ADD SWAP1 DUP2 MSTORE PUSH1 0x20 ADD PUSH0 KECCAK256 PUSH0 PUSH2 0x100 EXP DUP2 SLOAD DUP2 PUSH1 0xFF MUL NOT AND SWAP1 DUP4 ISZERO ISZERO MUL OR SWAP1 SSTORE POP PUSH1 0x4 DUP2 SWAP1 DUP1 PUSH1 0x1 DUP2 SLOAD ADD DUP1 DUP3 SSTORE DUP1 SWAP2 POP POP PUSH1 0x1 SWAP1 SUB SWAP1 PUSH0 MSTORE PUSH1 0x20 PUSH0 KECCAK256 ADD PUSH0 SWAP1 SWAP2 SWAP1 SWAP2 SWAP1 SWAP2 PUSH2 0x100 EXP DUP2 SLOAD DUP2 PUSH20 0xFFFFFFFFFFFFFFFFFFFFFFFFFFFFFFFFFFFFFFFF MUL NOT AND SWAP1 DUP4 PUSH20 0xFFFFFFFFFFFFFFFFFFFFFFFFFFFFFFFFFFFFFFFF AND MUL OR SWAP1 SSTORE POP DUP1 PUSH20 0xFFFFFFFFFFFFFFFFFFFFFFFFFFFFFFFFFFFFFFFF AND PUSH32 0x20F06CF92183FB3BD87D074EC788BEB83367293FAF2388C274B4BAD9AECAE725 PUSH1 0x40 MLOAD PUSH1 0x40 MLOAD DUP1 SWAP2 SUB SWAP1 LOG2 POP JUMP JUMPDEST PUSH2 0x728 PUSH2 0xF80 JUMP JUMPDEST PUSH0 JUMPDEST DUP3 DUP3 SWAP1 POP DUP2 LT ISZERO PUSH2 0x874 JUMPI PUSH0 PUSH20 0xFFFFFFFFFFFFFFFFFFFFFFFFFFFFFFFFFFFFFFFF AND DUP4 DUP4 DUP4 DUP2 DUP2 LT PUSH2 0x75F JUMPI PUSH2 0x75E PUSH2 0x1591 JUMP JUMPDEST JUMPDEST SWAP1 POP PUSH1 0x20 MUL ADD PUSH1 0x20 DUP2 ADD SWAP1 PUSH2 0x774 SWAP2 SWAP1 PUSH2 0x122B JUMP JUMPDEST PUSH20 0xFFFFFFFFFFFFFFFFFFFFFFFFFFFFFFFFFFFFFFFF AND SUB PUSH2 0x7C1 JUMPI PUSH1 0x40 MLOAD PUSH32 0xD92E233D00000000000000000000000000000000000000000000000000000000 DUP2 MSTORE PUSH1 0x4 ADD PUSH1 0x40 MLOAD DUP1 SWAP2 SUB SWAP1 REVERT JUMPDEST PUSH1 0x1 PUSH0 DUP5 DUP5 DUP5 DUP2 DUP2 LT PUSH2 0x7D7 JUMPI PUSH2 0x7D6 PUSH2 0x1591 JUMP JUMPDEST JUMPDEST SWAP1 POP PUSH1 0x20 MUL ADD PUSH1 0x20 DUP2 ADD SWAP1 PUSH2 0x7EC SWAP2 SWAP1 PUSH2 0x122B JUMP JUMPDEST PUSH20 0xFFFFFFFFFFFFFFFFFFFFFFFFFFFFFFFFFFFFFFFF AND PUSH20 0xFFFFFFFFFFFFFFFFFFFFFFFFFFFFFFFFFFFFFFFF AND DUP2 MSTORE PUSH1 0x20 ADD SWAP1 DUP2 MSTORE PUSH1 0x20 ADD PUSH0 KECCAK256 PUSH0 SWAP1 SLOAD SWAP1 PUSH2 0x100 EXP SWAP1 DIV PUSH1 0xFF AND PUSH2 0x867 JUMPI PUSH2 0x866 DUP4 DUP4 DUP4 DUP2 DUP2 LT PUSH2 0x84C JUMPI PUSH2 0x84B PUSH2 0x1591 JUMP JUMPDEST JUMPDEST SWAP1 POP PUSH1 0x20 MUL ADD PUSH1 0x20 DUP2 ADD SWAP1 PUSH2 0x861 SWAP2 SWAP1 PUSH2 0x122B JUMP JUMPDEST PUSH2 0x1007 JUMP JUMPDEST JUMPDEST DUP1 DUP1 PUSH1 0x1 ADD SWAP2 POP POP PUSH2 0x72A JUMP JUMPDEST POP POP POP JUMP JUMPDEST PUSH1 0x2 DUP2 DUP2 SLOAD DUP2 LT PUSH2 0x888 JUMPI PUSH0 DUP1 REVERT JUMPDEST SWAP1 PUSH0 MSTORE PUSH1 0x20 PUSH0 KECCAK256 ADD PUSH0 SWAP2 POP SLOAD SWAP1 PUSH2 0x100 EXP SWAP1 DIV PUSH20 0xFFFFFFFFFFFFFFFFFFFFFFFFFFFFFFFFFFFFFFFF AND DUP2 JUMP JUMPDEST PUSH2 0x8BC PUSH2 0xF80 JUMP JUMPDEST PUSH0 PUSH20 0xFFFFFFFFFFFFFFFFFFFFFFFFFFFFFFFFFFFFFFFF AND DUP2 PUSH20 0xFFFFFFFFFFFFFFFFFFFFFFFFFFFFFFFFFFFFFFFF AND SUB PUSH2 0x921 JUMPI PUSH1 0x40 MLOAD PUSH32 0xD92E233D00000000000000000000000000000000000000000000000000000000 DUP2 MSTORE PUSH1 0x4 ADD PUSH1 0x40 MLOAD DUP1 SWAP2 SUB SWAP1 REVERT JUMPDEST PUSH1 0x1 PUSH0 DUP3 PUSH20 0xFFFFFFFFFFFFFFFFFFFFFFFFFFFFFFFFFFFFFFFF AND PUSH20 0xFFFFFFFFFFFFFFFFFFFFFFFFFFFFFFFFFFFFFFFF AND DUP2 MSTORE PUSH1 0x20 ADD SWAP1 DUP2 MSTORE PUSH1 0x20 ADD PUSH0 KECCAK256 PUSH0 SWAP1 SLOAD SWAP1 PUSH2 0x100 EXP SWAP1 DIV PUSH1 0xFF AND PUSH2 0x9AC JUMPI DUP1 PUSH1 0x40 MLOAD PUSH32 0x3A1C154500000000000000000000000000000000000000000000000000000000 DUP2 MSTORE PUSH1 0x4 ADD PUSH2 0x9A3 SWAP2 SWAP1 PUSH2 0x12C3 JUMP JUMPDEST PUSH1 0x40 MLOAD DUP1 SWAP2 SUB SWAP1 REVERT JUMPDEST PUSH0 PUSH1 0x1 PUSH0 DUP4 PUSH20 0xFFFFFFFFFFFFFFFFFFFFFFFFFFFFFFFFFFFFFFFF AND PUSH20 0xFFFFFFFFFFFFFFFFFFFFFFFFFFFFFFFFFFFFFFFF AND DUP2 MSTORE PUSH1 0x20 ADD SWAP1 DUP2 MSTORE PUSH1 0x20 ADD PUSH0 KECCAK256 PUSH0 PUSH2 0x100 EXP DUP2 SLOAD DUP2 PUSH1 0xFF MUL NOT AND SWAP1 DUP4 ISZERO ISZERO MUL OR SWAP1 SSTORE POP DUP1 PUSH20 0xFFFFFFFFFFFFFFFFFFFFFFFFFFFFFFFFFFFFFFFF AND PUSH32 0x4C910B69FE65A61F7531B9C5042B2329CA7179C77290AA7E2EB3AFA3C8511FD3 PUSH1 0x40 MLOAD PUSH1 0x40 MLOAD DUP1 SWAP2 SUB SWAP1 LOG2 POP JUMP JUMPDEST PUSH1 0x1 PUSH1 0x20 MSTORE DUP1 PUSH0 MSTORE PUSH1 0x40 PUSH0 KECCAK256 PUSH0 SWAP2 POP SLOAD SWAP1 PUSH2 0x100 EXP SWAP1 DIV PUSH1 0xFF AND DUP2 JUMP JUMPDEST PUSH2 0xA6B PUSH2 0xF80 JUMP JUMPDEST PUSH2 0xA74 PUSH0 PUSH2 0x1101 JUMP JUMPDEST JUMP JUMPDEST PUSH1 0x60 PUSH0 DUP1 JUMPDEST PUSH1 0x2 DUP1 SLOAD SWAP1 POP DUP2 LT ISZERO PUSH2 0xB2E JUMPI PUSH1 0x1 PUSH0 PUSH1 0x2 DUP4 DUP2 SLOAD DUP2 LT PUSH2 0xA9F JUMPI PUSH2 0xA9E PUSH2 0x1591 JUMP JUMPDEST JUMPDEST SWAP1 PUSH0 MSTORE PUSH1 0x20 PUSH0 KECCAK256 ADD PUSH0 SWAP1 SLOAD SWAP1 PUSH2 0x100 EXP SWAP1 DIV PUSH20 0xFFFFFFFFFFFFFFFFFFFFFFFFFFFFFFFFFFFFFFFF AND PUSH20 0xFFFFFFFFFFFFFFFFFFFFFFFFFFFFFFFFFFFFFFFF AND PUSH20 0xFFFFFFFFFFFFFFFFFFFFFFFFFFFFFFFFFFFFFFFF AND DUP2 MSTORE PUSH1 0x20 ADD SWAP1 DUP2 MSTORE PUSH1 0x20 ADD PUSH0 KECCAK256 PUSH0 SWAP1 SLOAD SWAP1 PUSH2 0x100 EXP SWAP1 DIV PUSH1 0xFF AND ISZERO PUSH2 0xB21 JUMPI DUP2 DUP1 PUSH2 0xB1D SWAP1 PUSH2 0x15EB JUMP JUMPDEST SWAP3 POP POP JUMPDEST DUP1 DUP1 PUSH1 0x1 ADD SWAP2 POP POP PUSH2 0xA7B JUMP JUMPDEST POP DUP1 PUSH8 0xFFFFFFFFFFFFFFFF DUP2 GT ISZERO PUSH2 0xB49 JUMPI PUSH2 0xB48 PUSH2 0x1632 JUMP JUMPDEST JUMPDEST PUSH1 0x40 MLOAD SWAP1 DUP1 DUP3 MSTORE DUP1 PUSH1 0x20 MUL PUSH1 0x20 ADD DUP3 ADD PUSH1 0x40 MSTORE DUP1 ISZERO PUSH2 0xB77 JUMPI DUP2 PUSH1 0x20 ADD PUSH1 0x20 DUP3 MUL DUP1 CALLDATASIZE DUP4 CALLDATACOPY DUP1 DUP3 ADD SWAP2 POP POP SWAP1 POP JUMPDEST POP SWAP2 POP PUSH0 DUP1 JUMPDEST PUSH1 0x2 DUP1 SLOAD SWAP1 POP DUP2 LT ISZERO PUSH2 0xCB7 JUMPI PUSH1 0x1 PUSH0 PUSH1 0x2 DUP4 DUP2 SLOAD DUP2 LT PUSH2 0xBA1 JUMPI PUSH2 0xBA0 PUSH2 0x1591 JUMP JUMPDEST JUMPDEST SWAP1 PUSH0 MSTORE PUSH1 0x20 PUSH0 KECCAK256 ADD PUSH0 SWAP1 SLOAD SWAP1 PUSH2 0x100 EXP SWAP1 DIV PUSH20 0xFFFFFFFFFFFFFFFFFFFFFFFFFFFFFFFFFFFFFFFF AND PUSH20 0xFFFFFFFFFFFFFFFFFFFFFFFFFFFFFFFFFFFFFFFF AND PUSH20 0xFFFFFFFFFFFFFFFFFFFFFFFFFFFFFFFFFFFFFFFF AND DUP2 MSTORE PUSH1 0x20 ADD SWAP1 DUP2 MSTORE PUSH1 0x20 ADD PUSH0 KECCAK256 PUSH0 SWAP1 SLOAD SWAP1 PUSH2 0x100 EXP SWAP1 DIV PUSH1 0xFF AND ISZERO PUSH2 0xCAA JUMPI PUSH1 0x2 DUP2 DUP2 SLOAD DUP2 LT PUSH2 0xC28 JUMPI PUSH2 0xC27 PUSH2 0x1591 JUMP JUMPDEST JUMPDEST SWAP1 PUSH0 MSTORE PUSH1 0x20 PUSH0 KECCAK256 ADD PUSH0 SWAP1 SLOAD SWAP1 PUSH2 0x100 EXP SWAP1 DIV PUSH20 0xFFFFFFFFFFFFFFFFFFFFFFFFFFFFFFFFFFFFFFFF AND DUP5 DUP4 DUP1 PUSH2 0xC5C SWAP1 PUSH2 0x15EB JUMP JUMPDEST SWAP5 POP DUP2 MLOAD DUP2 LT PUSH2 0xC6F JUMPI PUSH2 0xC6E PUSH2 0x1591 JUMP JUMPDEST JUMPDEST PUSH1 0x20 MUL PUSH1 0x20 ADD ADD SWAP1 PUSH20 0xFFFFFFFFFFFFFFFFFFFFFFFFFFFFFFFFFFFFFFFF AND SWAP1 DUP2 PUSH20 0xFFFFFFFFFFFFFFFFFFFFFFFFFFFFFFFFFFFFFFFF AND DUP2 MSTORE POP POP JUMPDEST DUP1 DUP1 PUSH1 0x1 ADD SWAP2 POP POP PUSH2 0xB7D JUMP JUMPDEST POP POP POP SWAP1 JUMP JUMPDEST PUSH0 PUSH1 0x2 DUP1 SLOAD SWAP1 POP SWAP1 POP SWAP1 JUMP JUMPDEST PUSH0 DUP1 PUSH0 SWAP1 SLOAD SWAP1 PUSH2 0x100 EXP SWAP1 DIV PUSH20 0xFFFFFFFFFFFFFFFFFFFFFFFFFFFFFFFFFFFFFFFF AND SWAP1 POP SWAP1 JUMP JUMPDEST PUSH1 0x60 DUP3 DUP3 SWAP1 POP PUSH8 0xFFFFFFFFFFFFFFFF DUP2 GT ISZERO PUSH2 0xD0F JUMPI PUSH2 0xD0E PUSH2 0x1632 JUMP JUMPDEST JUMPDEST PUSH1 0x40 MLOAD SWAP1 DUP1 DUP3 MSTORE DUP1 PUSH1 0x20 MUL PUSH1 0x20 ADD DUP3 ADD PUSH1 0x40 MSTORE DUP1 ISZERO PUSH2 0xD3D JUMPI DUP2 PUSH1 0x20 ADD PUSH1 0x20 DUP3 MUL DUP1 CALLDATASIZE DUP4 CALLDATACOPY DUP1 DUP3 ADD SWAP2 POP POP SWAP1 POP JUMPDEST POP SWAP1 POP PUSH0 JUMPDEST DUP4 DUP4 SWAP1 POP DUP2 LT ISZERO PUSH2 0xDF0 JUMPI PUSH1 0x1 PUSH0 DUP6 DUP6 DUP5 DUP2 DUP2 LT PUSH2 0xD63 JUMPI PUSH2 0xD62 PUSH2 0x1591 JUMP JUMPDEST JUMPDEST SWAP1 POP PUSH1 0x20 MUL ADD PUSH1 0x20 DUP2 ADD SWAP1 PUSH2 0xD78 SWAP2 SWAP1 PUSH2 0x122B JUMP JUMPDEST PUSH20 0xFFFFFFFFFFFFFFFFFFFFFFFFFFFFFFFFFFFFFFFF AND PUSH20 0xFFFFFFFFFFFFFFFFFFFFFFFFFFFFFFFFFFFFFFFF AND DUP2 MSTORE PUSH1 0x20 ADD SWAP1 DUP2 MSTORE PUSH1 0x20 ADD PUSH0 KECCAK256 PUSH0 SWAP1 SLOAD SWAP1 PUSH2 0x100 EXP SWAP1 DIV PUSH1 0xFF AND DUP3 DUP3 DUP2 MLOAD DUP2 LT PUSH2 0xDD1 JUMPI PUSH2 0xDD0 PUSH2 0x1591 JUMP JUMPDEST JUMPDEST PUSH1 0x20 MUL PUSH1 0x20 ADD ADD SWAP1 ISZERO ISZERO SWAP1 DUP2 ISZERO ISZERO DUP2 MSTORE POP POP DUP1 DUP1 PUSH1 0x1 ADD SWAP2 POP POP PUSH2 0xD42 JUMP JUMPDEST POP SWAP3 SWAP2 POP POP JUMP JUMPDEST PUSH2 0xDFF PUSH2 0xF80 JUMP JUMPDEST PUSH0 PUSH20 0xFFFFFFFFFFFFFFFFFFFFFFFFFFFFFFFFFFFFFFFF AND DUP2 PUSH20 0xFFFFFFFFFFFFFFFFFFFFFFFFFFFFFFFFFFFFFFFF AND SUB PUSH2 0xE64 JUMPI PUSH1 0x40 MLOAD PUSH32 0xD92E233D00000000000000000000000000000000000000000000000000000000 DUP2 MSTORE PUSH1 0x4 ADD PUSH1 0x40 MLOAD DUP1 SWAP2 SUB SWAP1 REVERT JUMPDEST PUSH1 0x1 PUSH0 DUP3 PUSH20 0xFFFFFFFFFFFFFFFFFFFFFFFFFFFFFFFFFFFFFFFF AND PUSH20 0xFFFFFFFFFFFFFFFFFFFFFFFFFFFFFFFFFFFFFFFF AND DUP2 MSTORE PUSH1 0x20 ADD SWAP1 DUP2 MSTORE PUSH1 0x20 ADD PUSH0 KECCAK256 PUSH0 SWAP1 SLOAD SWAP1 PUSH2 0x100 EXP SWAP1 DIV PUSH1 0xFF AND ISZERO PUSH2 0xEF0 JUMPI DUP1 PUSH1 0x40 MLOAD PUSH32 0xACD4498400000000000000000000000000000000000000000000000000000000 DUP2 MSTORE PUSH1 0x4 ADD PUSH2 0xEE7 SWAP2 SWAP1 PUSH2 0x12C3 JUMP JUMPDEST PUSH1 0x40 MLOAD DUP1 SWAP2 SUB SWAP1 REVERT JUMPDEST PUSH2 0xEF9 DUP2 PUSH2 0x1007 JUMP JUMPDEST POP JUMP JUMPDEST PUSH2 0xF04 PUSH2 0xF80 JUMP JUMPDEST PUSH0 PUSH20 0xFFFFFFFFFFFFFFFFFFFFFFFFFFFFFFFFFFFFFFFF AND DUP2 PUSH20 0xFFFFFFFFFFFFFFFFFFFFFFFFFFFFFFFFFFFFFFFF AND SUB PUSH2 0xF74 JUMPI PUSH0 PUSH1 0x40 MLOAD PUSH32 0x1E4FBDF700000000000000000000000000000000000000000000000000000000 DUP2 MSTORE PUSH1 0x4 ADD PUSH2 0xF6B SWAP2 SWAP1 PUSH2 0x12C3 JUMP JUMPDEST PUSH1 0x40 MLOAD DUP1 SWAP2 SUB SWAP1 REVERT JUMPDEST PUSH2 0xF7D DUP2 PUSH2 0x1101 JUMP JUMPDEST POP JUMP JUMPDEST PUSH2 0xF88 PUSH2 0x11C2 JUMP JUMPDEST PUSH20 0xFFFFFFFFFFFFFFFFFFFFFFFFFFFFFFFFFFFFFFFF AND PUSH2 0xFA6 PUSH2 0xCC9 JUMP JUMPDEST PUSH20 0xFFFFFFFFFFFFFFFFFFFFFFFFFFFFFFFFFFFFFFFF AND EQ PUSH2 0x1005 JUMPI PUSH2 0xFC9 PUSH2 0x11C2 JUMP JUMPDEST PUSH1 0x40 MLOAD PUSH32 0x118CDAA700000000000000000000000000000000000000000000000000000000 DUP2 MSTORE PUSH1 0x4 ADD PUSH2 0xFFC SWAP2 SWAP1 PUSH2 0x12C3 JUMP JUMPDEST PUSH1 0x40 MLOAD DUP1 SWAP2 SUB SWAP1 REVERT JUMPDEST JUMP JUMPDEST PUSH1 0x1 DUP1 PUSH0 DUP4 PUSH20 0xFFFFFFFFFFFFFFFFFFFFFFFFFFFFFFFFFFFFFFFF AND PUSH20 0xFFFFFFFFFFFFFFFFFFFFFFFFFFFFFFFFFFFFFFFF AND DUP2 MSTORE PUSH1 0x20 ADD SWAP1 DUP2 MSTORE PUSH1 0x20 ADD PUSH0 KECCAK256 PUSH0 PUSH2 0x100 EXP DUP2 SLOAD DUP2 PUSH1 0xFF MUL NOT AND SWAP1 DUP4 ISZERO ISZERO MUL OR SWAP1 SSTORE POP PUSH1 0x2 DUP2 SWAP1 DUP1 PUSH1 0x1 DUP2 SLOAD ADD DUP1 DUP3 SSTORE DUP1 SWAP2 POP POP PUSH1 0x1 SWAP1 SUB SWAP1 PUSH0 MSTORE PUSH1 0x20 PUSH0 KECCAK256 ADD PUSH0 SWAP1 SWAP2 SWAP1 SWAP2 SWAP1 SWAP2 PUSH2 0x100 EXP DUP2 SLOAD DUP2 PUSH20 0xFFFFFFFFFFFFFFFFFFFFFFFFFFFFFFFFFFFFFFFF MUL NOT AND SWAP1 DUP4 PUSH20 0xFFFFFFFFFFFFFFFFFFFFFFFFFFFFFFFFFFFFFFFF AND MUL OR SWAP1 SSTORE POP DUP1 PUSH20 0xFFFFFFFFFFFFFFFFFFFFFFFFFFFFFFFFFFFFFFFF AND PUSH32 0x784C8F4DBF0FFEDD6E72C76501C545A70F8B203B30A26CE542BF92BA87C248A4 PUSH1 0x40 MLOAD PUSH1 0x40 MLOAD DUP1 SWAP2 SUB SWAP1 LOG2 POP JUMP JUMPDEST PUSH0 DUP1 PUSH0 SWAP1 SLOAD SWAP1 PUSH2 0x100 EXP SWAP1 DIV PUSH20 0xFFFFFFFFFFFFFFFFFFFFFFFFFFFFFFFFFFFFFFFF AND SWAP1 POP DUP2 PUSH0 DUP1 PUSH2 0x100 EXP DUP2 SLOAD DUP2 PUSH20 0xFFFFFFFFFFFFFFFFFFFFFFFFFFFFFFFFFFFFFFFF MUL NOT AND SWAP1 DUP4 PUSH20 0xFFFFFFFFFFFFFFFFFFFFFFFFFFFFFFFFFFFFFFFF AND MUL OR SWAP1 SSTORE POP DUP2 PUSH20 0xFFFFFFFFFFFFFFFFFFFFFFFFFFFFFFFFFFFFFFFF AND DUP2 PUSH20 0xFFFFFFFFFFFFFFFFFFFFFFFFFFFFFFFFFFFFFFFF AND PUSH32 0x8BE0079C531659141344CD1FD0A4F28419497F9722A3DAAFE3B4186F6B6457E0 PUSH1 0x40 MLOAD PUSH1 0x40 MLOAD DUP1 SWAP2 SUB SWAP1 LOG3 POP POP JUMP JUMPDEST PUSH0 CALLER SWAP1 POP SWAP1 JUMP JUMPDEST PUSH0 DUP1 REVERT JUMPDEST PUSH0 DUP1 REVERT JUMPDEST PUSH0 PUSH20 0xFFFFFFFFFFFFFFFFFFFFFFFFFFFFFFFFFFFFFFFF DUP3 AND SWAP1 POP SWAP2 SWAP1 POP JUMP JUMPDEST PUSH0 PUSH2 0x11FA DUP3 PUSH2 0x11D1 JUMP JUMPDEST SWAP1 POP SWAP2 SWAP1 POP JUMP JUMPDEST PUSH2 0x120A DUP2 PUSH2 0x11F0 JUMP JUMPDEST DUP2 EQ PUSH2 0x1214 JUMPI PUSH0 DUP1 REVERT JUMPDEST POP JUMP JUMPDEST PUSH0 DUP2 CALLDATALOAD SWAP1 POP PUSH2 0x1225 DUP2 PUSH2 0x1201 JUMP JUMPDEST SWAP3 SWAP2 POP POP JUMP JUMPDEST PUSH0 PUSH1 0x20 DUP3 DUP5 SUB SLT ISZERO PUSH2 0x1240 JUMPI PUSH2 0x123F PUSH2 0x11C9 JUMP JUMPDEST JUMPDEST PUSH0 PUSH2 0x124D DUP5 DUP3 DUP6 ADD PUSH2 0x1217 JUMP JUMPDEST SWAP2 POP POP SWAP3 SWAP2 POP POP JUMP JUMPDEST PUSH0 DUP2 SWAP1 POP SWAP2 SWAP1 POP JUMP JUMPDEST PUSH2 0x1268 DUP2 PUSH2 0x1256 JUMP JUMPDEST DUP2 EQ PUSH2 0x1272 JUMPI PUSH0 DUP1 REVERT JUMPDEST POP JUMP JUMPDEST PUSH0 DUP2 CALLDATALOAD SWAP1 POP PUSH2 0x1283 DUP2 PUSH2 0x125F JUMP JUMPDEST SWAP3 SWAP2 POP POP JUMP JUMPDEST PUSH0 PUSH1 0x20 DUP3 DUP5 SUB SLT ISZERO PUSH2 0x129E JUMPI PUSH2 0x129D PUSH2 0x11C9 JUMP JUMPDEST JUMPDEST PUSH0 PUSH2 0x12AB DUP5 DUP3 DUP6 ADD PUSH2 0x1275 JUMP JUMPDEST SWAP2 POP POP SWAP3 SWAP2 POP POP JUMP JUMPDEST PUSH2 0x12BD DUP2 PUSH2 0x11F0 JUMP JUMPDEST DUP3 MSTORE POP POP JUMP JUMPDEST PUSH0 PUSH1 0x20 DUP3 ADD SWAP1 POP PUSH2 0x12D6 PUSH0 DUP4 ADD DUP5 PUSH2 0x12B4 JUMP JUMPDEST SWAP3 SWAP2 POP POP JUMP JUMPDEST PUSH0 DUP2 ISZERO ISZERO SWAP1 POP SWAP2 SWAP1 POP JUMP JUMPDEST PUSH2 0x12F0 DUP2 PUSH2 0x12DC JUMP JUMPDEST DUP3 MSTORE POP POP JUMP JUMPDEST PUSH0 PUSH1 0x20 DUP3 ADD SWAP1 POP PUSH2 0x1309 PUSH0 DUP4 ADD DUP5 PUSH2 0x12E7 JUMP JUMPDEST SWAP3 SWAP2 POP POP JUMP JUMPDEST PUSH0 DUP2 MLOAD SWAP1 POP SWAP2 SWAP1 POP JUMP JUMPDEST PUSH0 DUP3 DUP3 MSTORE PUSH1 0x20 DUP3 ADD SWAP1 POP SWAP3 SWAP2 POP POP JUMP JUMPDEST PUSH0 DUP2 SWAP1 POP PUSH1 0x20 DUP3 ADD SWAP1 POP SWAP2 SWAP1 POP JUMP JUMPDEST PUSH2 0x1341 DUP2 PUSH2 0x11F0 JUMP JUMPDEST DUP3 MSTORE POP POP JUMP JUMPDEST PUSH0 PUSH2 0x1352 DUP4 DUP4 PUSH2 0x1338 JUMP JUMPDEST PUSH1 0x20 DUP4 ADD SWAP1 POP SWAP3 SWAP2 POP POP JUMP JUMPDEST PUSH0 PUSH1 0x20 DUP3 ADD SWAP1 POP SWAP2 SWAP1 POP JUMP JUMPDEST PUSH0 PUSH2 0x1374 DUP3 PUSH2 0x130F JUMP JUMPDEST PUSH2 0x137E DUP2 DUP6 PUSH2 0x1319 JUMP JUMPDEST SWAP4 POP PUSH2 0x1389 DUP4 PUSH2 0x1329 JUMP JUMPDEST DUP1 PUSH0 JUMPDEST DUP4 DUP2 LT ISZERO PUSH2 0x13B9 JUMPI DUP2 MLOAD PUSH2 0x13A0 DUP9 DUP3 PUSH2 0x1347 JUMP JUMPDEST SWAP8 POP PUSH2 0x13AB DUP4 PUSH2 0x135E JUMP JUMPDEST SWAP3 POP POP PUSH1 0x1 DUP2 ADD SWAP1 POP PUSH2 0x138C JUMP JUMPDEST POP DUP6 SWAP4 POP POP POP POP SWAP3 SWAP2 POP POP JUMP JUMPDEST PUSH0 PUSH1 0x20 DUP3 ADD SWAP1 POP DUP2 DUP2 SUB PUSH0 DUP4 ADD MSTORE PUSH2 0x13DE DUP2 DUP5 PUSH2 0x136A JUMP JUMPDEST SWAP1 POP SWAP3 SWAP2 POP POP JUMP JUMPDEST PUSH0 DUP1 REVERT JUMPDEST PUSH0 DUP1 REVERT JUMPDEST PUSH0 DUP1 REVERT JUMPDEST PUSH0 DUP1 DUP4 PUSH1 0x1F DUP5 ADD SLT PUSH2 0x1407 JUMPI PUSH2 0x1406 PUSH2 0x13E6 JUMP JUMPDEST JUMPDEST DUP3 CALLDATALOAD SWAP1 POP PUSH8 0xFFFFFFFFFFFFFFFF DUP2 GT ISZERO PUSH2 0x1424 JUMPI PUSH2 0x1423 PUSH2 0x13EA JUMP JUMPDEST JUMPDEST PUSH1 0x20 DUP4 ADD SWAP2 POP DUP4 PUSH1 0x20 DUP3 MUL DUP4 ADD GT ISZERO PUSH2 0x1440 JUMPI PUSH2 0x143F PUSH2 0x13EE JUMP JUMPDEST JUMPDEST SWAP3 POP SWAP3 SWAP1 POP JUMP JUMPDEST PUSH0 DUP1 PUSH1 0x20 DUP4 DUP6 SUB SLT ISZERO PUSH2 0x145D JUMPI PUSH2 0x145C PUSH2 0x11C9 JUMP JUMPDEST JUMPDEST PUSH0 DUP4 ADD CALLDATALOAD PUSH8 0xFFFFFFFFFFFFFFFF DUP2 GT ISZERO PUSH2 0x147A JUMPI PUSH2 0x1479 PUSH2 0x11CD JUMP JUMPDEST JUMPDEST PUSH2 0x1486 DUP6 DUP3 DUP7 ADD PUSH2 0x13F2 JUMP JUMPDEST SWAP3 POP SWAP3 POP POP SWAP3 POP SWAP3 SWAP1 POP JUMP JUMPDEST PUSH2 0x149B DUP2 PUSH2 0x1256 JUMP JUMPDEST DUP3 MSTORE POP POP JUMP JUMPDEST PUSH0 PUSH1 0x20 DUP3 ADD SWAP1 POP PUSH2 0x14B4 PUSH0 DUP4 ADD DUP5 PUSH2 0x1492 JUMP JUMPDEST SWAP3 SWAP2 POP POP JUMP JUMPDEST PUSH0 DUP2 MLOAD SWAP1 POP SWAP2 SWAP1 POP JUMP JUMPDEST PUSH0 DUP3 DUP3 MSTORE PUSH1 0x20 DUP3 ADD SWAP1 POP SWAP3 SWAP2 POP POP JUMP JUMPDEST PUSH0 DUP2 SWAP1 POP PUSH1 0x20 DUP3 ADD SWAP1 POP SWAP2 SWAP1 POP JUMP JUMPDEST PUSH2 0x14EC DUP2 PUSH2 0x12DC JUMP JUMPDEST DUP3 MSTORE POP POP JUMP JUMPDEST PUSH0 PUSH2 0x14FD DUP4 DUP4 PUSH2 0x14E3 JUMP JUMPDEST PUSH1 0x20 DUP4 ADD SWAP1 POP SWAP3 SWAP2 POP POP JUMP JUMPDEST PUSH0 PUSH1 0x20 DUP3 ADD SWAP1 POP SWAP2 SWAP1 POP JUMP JUMPDEST PUSH0 PUSH2 0x151F DUP3 PUSH2 0x14BA JUMP JUMPDEST PUSH2 0x1529 DUP2 DUP6 PUSH2 0x14C4 JUMP JUMPDEST SWAP4 POP PUSH2 0x1534 DUP4 PUSH2 0x14D4 JUMP JUMPDEST DUP1 PUSH0 JUMPDEST DUP4 DUP2 LT ISZERO PUSH2 0x1564 JUMPI DUP2 MLOAD PUSH2 0x154B DUP9 DUP3 PUSH2 0x14F2 JUMP JUMPDEST SWAP8 POP PUSH2 0x1556 DUP4 PUSH2 0x1509 JUMP JUMPDEST SWAP3 POP POP PUSH1 0x1 DUP2 ADD SWAP1 POP PUSH2 0x1537 JUMP JUMPDEST POP DUP6 SWAP4 POP POP POP POP SWAP3 SWAP2 POP POP JUMP JUMPDEST PUSH0 PUSH1 0x20 DUP3 ADD SWAP1 POP DUP2 DUP2 SUB PUSH0 DUP4 ADD MSTORE PUSH2 0x1589 DUP2 DUP5 PUSH2 0x1515 JUMP JUMPDEST SWAP1 POP SWAP3 SWAP2 POP POP JUMP JUMPDEST PUSH32 0x4E487B7100000000000000000000000000000000000000000000000000000000 PUSH0 MSTORE PUSH1 0x32 PUSH1 0x4 MSTORE PUSH1 0x24 PUSH0 REVERT JUMPDEST PUSH32 0x4E487B7100000000000000000000000000000000000000000000000000000000 PUSH0 MSTORE PUSH1 0x11 PUSH1 0x4 MSTORE PUSH1 0x24 PUSH0 REVERT JUMPDEST PUSH0 PUSH2 0x15F5 DUP3 PUSH2 0x1256 JUMP JUMPDEST SWAP2 POP PUSH32 0xFFFFFFFFFFFFFFFFFFFFFFFFFFFFFFFFFFFFFFFFFFFFFFFFFFFFFFFFFFFFFFFF DUP3 SUB PUSH2 0x1627 JUMPI PUSH2 0x1626 PUSH2 0x15BE JUMP JUMPDEST JUMPDEST PUSH1 0x1 DUP3 ADD SWAP1 POP SWAP2 SWAP1 POP JUMP JUMPDEST PUSH32 0x4E487B7100000000000000000000000000000000000000000000000000000000 PUSH0 MSTORE PUSH1 0x41 PUSH1 0x4 MSTORE PUSH1 0x24 PUSH0 REVERT INVALID LOG2 PUSH5 0x6970667358 0x22 SLT KECCAK256 PUSH4 0xD77060C6 0x22 0xD0 EXTCODECOPY SWAP4 PUSH25 0xA56950F1CB27E2BCDA442E248416C5187409AE45AEB664736F PUSH13 0x63430008180033000000000000 "
				},
				"gasEstimates": {
					"creation": {
						"codeDepositCost": "1156200",
						"executionCost": "infinite",
						"totalCost": "infinite"
					},
					"external": {
						"addToken(address)": "infinite",
						"addTokens(address[])": "infinite",
						"areEligible(address[])": "infinite",
						"consumerList(uint256)": "4990",
						"eligibleTokenList(uint256)": "5011",
						"getConsumers()": "infinite",
						"getEligibleTokens()": "infinite",
						"isEligible(address)": "2856",
						"owner()": "2537",
						"registerConsumer(address)": "infinite",
						"registeredConsumers(address)": "2901",
						"removeConsumer(address)": "infinite",
						"removeToken(address)": "infinite",
						"renounceOwnership()": "infinite",
						"totalTokensAdded()": "2529",
						"transferOwnership(address)": "infinite"
					},
					"internal": {
						"_addToken(address)": "74111"
					}
				},
				"methodIdentifiers": {
					"addToken(address)": "d48bfca7",
					"addTokens(address[])": "4ae05c7d",
					"areEligible(address[])": "9b7ecf22",
					"consumerList(uint256)": "15baa8c0",
					"eligibleTokenList(uint256)": "5914220d",
					"getConsumers()": "3b729b86",
					"getEligibleTokens()": "748cdcdc",
					"isEligible(address)": "66e305fd",
					"owner()": "8da5cb5b",
					"registerConsumer(address)": "44b22fdd",
					"registeredConsumers(address)": "1efe4b0c",
					"removeConsumer(address)": "0e27e3df",
					"removeToken(address)": "5fa7b584",
					"renounceOwnership()": "715018a6",
					"totalTokensAdded()": "74d0c73f",
					"transferOwnership(address)": "f2fde38b"
				}
			},
			"storageLayout": {
				"storage": [
					{
						"astId": 8,
						"contract": "contracts/EligibleTokenRegistry.sol:EligibleTokenRegistry",
						"label": "_owner",
						"offset": 0,
						"slot": "0",
						"type": "t_address"
					},
					{
						"astId": 188,
						"contract": "contracts/EligibleTokenRegistry.sol:EligibleTokenRegistry",
						"label": "isEligible",
						"offset": 0,
						"slot": "1",
						"type": "t_mapping(t_address,t_bool)"
					},
					{
						"astId": 192,
						"contract": "contracts/EligibleTokenRegistry.sol:EligibleTokenRegistry",
						"label": "eligibleTokenList",
						"offset": 0,
						"slot": "2",
						"type": "t_array(t_address)dyn_storage"
					},
					{
						"astId": 197,
						"contract": "contracts/EligibleTokenRegistry.sol:EligibleTokenRegistry",
						"label": "registeredConsumers",
						"offset": 0,
						"slot": "3",
						"type": "t_mapping(t_address,t_bool)"
					},
					{
						"astId": 200,
						"contract": "contracts/EligibleTokenRegistry.sol:EligibleTokenRegistry",
						"label": "consumerList",
						"offset": 0,
						"slot": "4",
						"type": "t_array(t_address)dyn_storage"
					}
				],
				"types": {
					"t_address": {
						"encoding": "inplace",
						"label": "address",
						"numberOfBytes": "20"
					},
					"t_array(t_address)dyn_storage": {
						"base": "t_address",
						"encoding": "dynamic_array",
						"label": "address[]",
						"numberOfBytes": "32"
					},
					"t_bool": {
						"encoding": "inplace",
						"label": "bool",
						"numberOfBytes": "1"
					},
					"t_mapping(t_address,t_bool)": {
						"encoding": "mapping",
						"key": "t_address",
						"label": "mapping(address => bool)",
						"numberOfBytes": "32",
						"value": "t_bool"
					}
				}
			},
			"userdoc": {
				"kind": "user",
				"methods": {
					"addToken(address)": {
						"notice": "Add a token to the eligible list."
					},
					"addTokens(address[])": {
						"notice": "Add multiple tokens in one call."
					},
					"areEligible(address[])": {
						"notice": "Batch eligibility check — returns bool array matching input."
					},
					"eligibleTokenList(uint256)": {
						"notice": "Ordered list of all ever-added eligible tokens.         Tokens removed from eligibility remain in the array         but isEligible[token] == false."
					},
					"getConsumers()": {
						"notice": "Returns all registered consumer contracts."
					},
					"getEligibleTokens()": {
						"notice": "Returns all currently eligible token addresses."
					},
					"isEligible(address)": {
						"notice": "token address → eligible for swap influence."
					},
					"registerConsumer(address)": {
						"notice": "Register a consumer contract (Router, TimbPrize).         Informational — tracks which contracts read this registry."
					},
					"registeredConsumers(address)": {
						"notice": "Registered consumer contracts (Router, TimbPrize).         Informational — reads are permissionless so no enforcement         needed, but tracked for transparency and frontend queries."
					},
					"removeConsumer(address)": {
						"notice": "Remove a consumer from the registry."
					},
					"removeToken(address)": {
						"notice": "Remove a token from the eligible list."
					},
					"totalTokensAdded()": {
						"notice": "Returns total number of tokens ever added (including removed)."
					}
				},
				"notice": "Shared registry of tokens eligible to influence the TimbSwap         prize game scroll position via swap activity. Purpose:   - Single source of truth for eligible token list.   - Consumed by TimbSwapRouter (before nudgeScroll call) and     TimbPrize (for validation at settlement).   - Decoupled from both contracts — list can be updated without     redeploying Router or TimbPrize. Eligible tokens at launch:   - TIMBS (TimbSwap native token)   - ETH / WETH   - DAPP (existing ecosystem token)   - Owner-extendable at any time. Authorised callers:   - Owner: add/remove tokens.   - Any address: read isEligible() — public view.   - Registered consumers (Router, TimbPrize): no special permissions     needed — reads are permissionless. Security:   - Owner-only writes. No reentrancy risk (no token transfers).   - Removing a token mid-round does not retroactively invalidate     scroll nudges already recorded — those are final on-chain.   - Adding a token takes effect immediately for future swaps. Deployment:   1. Deploy EligibleTokenRegistry(initialTokens[])   2. router.setEligibleRegistry(address(this))   3. timbPrize.setEligibleRegistry(address(this)) (after TimbPrize deploy)   4. Verify on Sourcify",
				"version": 1
			}
		}
	}
}