{
	"contracts/TimbSwapFactory.sol": {
		"TimbSwapFactory": {
			"abi": [
				{
					"inputs": [
						{
							"internalType": "address",
							"name": "_feeTo",
							"type": "address"
						}
					],
					"stateMutability": "nonpayable",
					"type": "constructor"
				},
				{
					"inputs": [],
					"name": "IdenticalAddresses",
					"type": "error"
				},
				{
					"inputs": [],
					"name": "InvalidFee",
					"type": "error"
				},
				{
					"inputs": [],
					"name": "NotRouter",
					"type": "error"
				},
				{
					"inputs": [
						{
							"internalType": "address",
							"name": "owner",
							"type": "address"
						}
					],
					"name": "OwnableInvalidOwner",
					"type": "error"
				},
				{
					"inputs": [
						{
							"internalType": "address",
							"name": "account",
							"type": "address"
						}
					],
					"name": "OwnableUnauthorizedAccount",
					"type": "error"
				},
				{
					"inputs": [],
					"name": "PairCreationPaused",
					"type": "error"
				},
				{
					"inputs": [
						{
							"internalType": "address",
							"name": "pair",
							"type": "address"
						}
					],
					"name": "PairExists",
					"type": "error"
				},
				{
					"inputs": [],
					"name": "PairNotFound",
					"type": "error"
				},
				{
					"inputs": [],
					"name": "ReentrancyGuardReentrantCall",
					"type": "error"
				},
				{
					"inputs": [],
					"name": "ZeroAddress",
					"type": "error"
				},
				{
					"anonymous": false,
					"inputs": [
						{
							"indexed": true,
							"internalType": "address",
							"name": "pair",
							"type": "address"
						},
						{
							"indexed": false,
							"internalType": "bool",
							"name": "whitelisted",
							"type": "bool"
						}
					],
					"name": "EmissionsWhitelistUpdated",
					"type": "event"
				},
				{
					"anonymous": false,
					"inputs": [
						{
							"indexed": true,
							"internalType": "address",
							"name": "oldFeeTo",
							"type": "address"
						},
						{
							"indexed": true,
							"internalType": "address",
							"name": "newFeeTo",
							"type": "address"
						}
					],
					"name": "FeeToUpdated",
					"type": "event"
				},
				{
					"anonymous": false,
					"inputs": [
						{
							"indexed": true,
							"internalType": "address",
							"name": "previousOwner",
							"type": "address"
						},
						{
							"indexed": true,
							"internalType": "address",
							"name": "newOwner",
							"type": "address"
						}
					],
					"name": "OwnershipTransferred",
					"type": "event"
				},
				{
					"anonymous": false,
					"inputs": [
						{
							"indexed": true,
							"internalType": "address",
							"name": "token0",
							"type": "address"
						},
						{
							"indexed": true,
							"internalType": "address",
							"name": "token1",
							"type": "address"
						},
						{
							"indexed": false,
							"internalType": "address",
							"name": "pair",
							"type": "address"
						},
						{
							"indexed": false,
							"internalType": "uint256",
							"name": "pairIndex",
							"type": "uint256"
						}
					],
					"name": "PairCreated",
					"type": "event"
				},
				{
					"anonymous": false,
					"inputs": [
						{
							"indexed": true,
							"internalType": "address",
							"name": "pair",
							"type": "address"
						},
						{
							"indexed": true,
							"internalType": "address",
							"name": "destination",
							"type": "address"
						},
						{
							"indexed": false,
							"internalType": "bool",
							"name": "active",
							"type": "bool"
						}
					],
					"name": "PartnerPoolSet",
					"type": "event"
				},
				{
					"anonymous": false,
					"inputs": [
						{
							"indexed": true,
							"internalType": "address",
							"name": "by",
							"type": "address"
						}
					],
					"name": "Paused",
					"type": "event"
				},
				{
					"anonymous": false,
					"inputs": [
						{
							"indexed": true,
							"internalType": "address",
							"name": "router",
							"type": "address"
						}
					],
					"name": "RouterSet",
					"type": "event"
				},
				{
					"anonymous": false,
					"inputs": [
						{
							"indexed": true,
							"internalType": "address",
							"name": "timbsToken",
							"type": "address"
						}
					],
					"name": "TimbsTokenSet",
					"type": "event"
				},
				{
					"anonymous": false,
					"inputs": [
						{
							"indexed": true,
							"internalType": "address",
							"name": "by",
							"type": "address"
						}
					],
					"name": "Unpaused",
					"type": "event"
				},
				{
					"inputs": [],
					"name": "LP_FEE_BPS",
					"outputs": [
						{
							"internalType": "uint256",
							"name": "",
							"type": "uint256"
						}
					],
					"stateMutability": "view",
					"type": "function"
				},
				{
					"inputs": [],
					"name": "PROTOCOL_FEE_BPS",
					"outputs": [
						{
							"internalType": "uint256",
							"name": "",
							"type": "uint256"
						}
					],
					"stateMutability": "view",
					"type": "function"
				},
				{
					"inputs": [],
					"name": "TOTAL_FEE_BPS",
					"outputs": [
						{
							"internalType": "uint256",
							"name": "",
							"type": "uint256"
						}
					],
					"stateMutability": "view",
					"type": "function"
				},
				{
					"inputs": [
						{
							"internalType": "uint256",
							"name": "",
							"type": "uint256"
						}
					],
					"name": "allPairs",
					"outputs": [
						{
							"internalType": "address",
							"name": "",
							"type": "address"
						}
					],
					"stateMutability": "view",
					"type": "function"
				},
				{
					"inputs": [],
					"name": "allPairsLength",
					"outputs": [
						{
							"internalType": "uint256",
							"name": "",
							"type": "uint256"
						}
					],
					"stateMutability": "view",
					"type": "function"
				},
				{
					"inputs": [
						{
							"internalType": "address",
							"name": "tokenA",
							"type": "address"
						},
						{
							"internalType": "address",
							"name": "tokenB",
							"type": "address"
						}
					],
					"name": "createPair",
					"outputs": [
						{
							"internalType": "address",
							"name": "pair",
							"type": "address"
						}
					],
					"stateMutability": "nonpayable",
					"type": "function"
				},
				{
					"inputs": [
						{
							"internalType": "address",
							"name": "",
							"type": "address"
						}
					],
					"name": "emissionsWhitelist",
					"outputs": [
						{
							"internalType": "bool",
							"name": "",
							"type": "bool"
						}
					],
					"stateMutability": "view",
					"type": "function"
				},
				{
					"inputs": [],
					"name": "feeTo",
					"outputs": [
						{
							"internalType": "address",
							"name": "",
							"type": "address"
						}
					],
					"stateMutability": "view",
					"type": "function"
				},
				{
					"inputs": [],
					"name": "getFeeConfig",
					"outputs": [
						{
							"internalType": "uint256",
							"name": "totalBps",
							"type": "uint256"
						},
						{
							"internalType": "uint256",
							"name": "lpBps",
							"type": "uint256"
						},
						{
							"internalType": "uint256",
							"name": "protocolBps",
							"type": "uint256"
						},
						{
							"internalType": "uint256",
							"name": "denominator",
							"type": "uint256"
						}
					],
					"stateMutability": "pure",
					"type": "function"
				},
				{
					"inputs": [
						{
							"internalType": "address",
							"name": "",
							"type": "address"
						},
						{
							"internalType": "address",
							"name": "",
							"type": "address"
						}
					],
					"name": "getPair",
					"outputs": [
						{
							"internalType": "address",
							"name": "",
							"type": "address"
						}
					],
					"stateMutability": "view",
					"type": "function"
				},
				{
					"inputs": [
						{
							"internalType": "address",
							"name": "tokenA",
							"type": "address"
						},
						{
							"internalType": "address",
							"name": "tokenB",
							"type": "address"
						}
					],
					"name": "getPairAddress",
					"outputs": [
						{
							"internalType": "address",
							"name": "pair",
							"type": "address"
						}
					],
					"stateMutability": "view",
					"type": "function"
				},
				{
					"inputs": [
						{
							"internalType": "address",
							"name": "pair",
							"type": "address"
						}
					],
					"name": "getPartnerConfig",
					"outputs": [
						{
							"internalType": "bool",
							"name": "active",
							"type": "bool"
						},
						{
							"internalType": "address",
							"name": "destination",
							"type": "address"
						}
					],
					"stateMutability": "view",
					"type": "function"
				},
				{
					"inputs": [
						{
							"internalType": "address",
							"name": "pair",
							"type": "address"
						}
					],
					"name": "isPairEmissionsEligible",
					"outputs": [
						{
							"internalType": "bool",
							"name": "",
							"type": "bool"
						}
					],
					"stateMutability": "view",
					"type": "function"
				},
				{
					"inputs": [
						{
							"internalType": "address",
							"name": "",
							"type": "address"
						}
					],
					"name": "isPartnerPool",
					"outputs": [
						{
							"internalType": "bool",
							"name": "",
							"type": "bool"
						}
					],
					"stateMutability": "view",
					"type": "function"
				},
				{
					"inputs": [],
					"name": "owner",
					"outputs": [
						{
							"internalType": "address",
							"name": "",
							"type": "address"
						}
					],
					"stateMutability": "view",
					"type": "function"
				},
				{
					"inputs": [
						{
							"internalType": "address",
							"name": "",
							"type": "address"
						}
					],
					"name": "partnerDestination",
					"outputs": [
						{
							"internalType": "address",
							"name": "",
							"type": "address"
						}
					],
					"stateMutability": "view",
					"type": "function"
				},
				{
					"inputs": [],
					"name": "pause",
					"outputs": [],
					"stateMutability": "nonpayable",
					"type": "function"
				},
				{
					"inputs": [],
					"name": "paused",
					"outputs": [
						{
							"internalType": "bool",
							"name": "",
							"type": "bool"
						}
					],
					"stateMutability": "view",
					"type": "function"
				},
				{
					"inputs": [],
					"name": "renounceOwnership",
					"outputs": [],
					"stateMutability": "nonpayable",
					"type": "function"
				},
				{
					"inputs": [],
					"name": "router",
					"outputs": [
						{
							"internalType": "address",
							"name": "",
							"type": "address"
						}
					],
					"stateMutability": "view",
					"type": "function"
				},
				{
					"inputs": [
						{
							"internalType": "address",
							"name": "pair",
							"type": "address"
						},
						{
							"internalType": "bool",
							"name": "whitelisted",
							"type": "bool"
						}
					],
					"name": "setEmissionsWhitelist",
					"outputs": [],
					"stateMutability": "nonpayable",
					"type": "function"
				},
				{
					"inputs": [
						{
							"internalType": "address",
							"name": "_feeTo",
							"type": "address"
						}
					],
					"name": "setFeeTo",
					"outputs": [],
					"stateMutability": "nonpayable",
					"type": "function"
				},
				{
					"inputs": [
						{
							"internalType": "address",
							"name": "pair",
							"type": "address"
						},
						{
							"internalType": "address",
							"name": "destination",
							"type": "address"
						},
						{
							"internalType": "bool",
							"name": "active",
							"type": "bool"
						}
					],
					"name": "setPartnerPool",
					"outputs": [],
					"stateMutability": "nonpayable",
					"type": "function"
				},
				{
					"inputs": [
						{
							"internalType": "address",
							"name": "_router",
							"type": "address"
						}
					],
					"name": "setRouter",
					"outputs": [],
					"stateMutability": "nonpayable",
					"type": "function"
				},
				{
					"inputs": [
						{
							"internalType": "address",
							"name": "_timbsToken",
							"type": "address"
						}
					],
					"name": "setTimbsToken",
					"outputs": [],
					"stateMutability": "nonpayable",
					"type": "function"
				},
				{
					"inputs": [],
					"name": "timbsToken",
					"outputs": [
						{
							"internalType": "address",
							"name": "",
							"type": "address"
						}
					],
					"stateMutability": "view",
					"type": "function"
				},
				{
					"inputs": [
						{
							"internalType": "address",
							"name": "newOwner",
							"type": "address"
						}
					],
					"name": "transferOwnership",
					"outputs": [],
					"stateMutability": "nonpayable",
					"type": "function"
				},
				{
					"inputs": [],
					"name": "unpause",
					"outputs": [],
					"stateMutability": "nonpayable",
					"type": "function"
				}
			],
			"devdoc": {
				"errors": {
					"OwnableInvalidOwner(address)": [
						{
							"details": "The owner is not a valid owner account. (eg. `address(0)`)"
						}
					],
					"OwnableUnauthorizedAccount(address)": [
						{
							"details": "The caller account is not authorized to perform an operation."
						}
					],
					"ReentrancyGuardReentrantCall()": [
						{
							"details": "Unauthorized reentrant call."
						}
					]
				},
				"kind": "dev",
				"methods": {
					"constructor": {
						"params": {
							"_feeTo": "Address that receives protocol fees (TimbTreasury)."
						}
					},
					"createPair(address,address)": {
						"details": "Permissionless — anyone can create a pair.      Pair address is fully determined (CREATE2) before any external      calls, preventing bonding-curve / reentrancy manipulation.      Tokens are sorted so token0 < token1 (canonical ordering).",
						"params": {
							"tokenA": "First token address.",
							"tokenB": "Second token address."
						},
						"returns": {
							"pair": "The address of the newly created pair contract."
						}
					},
					"getFeeConfig()": {
						"details": "Useful for Router to calculate fee distribution without      hardcoding values."
					},
					"owner()": {
						"details": "Returns the address of the current owner."
					},
					"renounceOwnership()": {
						"details": "Leaves the contract without owner. It will not be possible to call `onlyOwner` functions. Can only be called by the current owner. NOTE: Renouncing ownership will leave the contract without an owner, thereby disabling any functionality that is only available to the owner."
					},
					"setEmissionsWhitelist(address,bool)": {
						"details": "Only whitelisted pairs receive TIMBS staking/farm emissions.      At launch: TIMBS/ETH only. Owner-extendable."
					},
					"setPartnerPool(address,address,bool)": {
						"details": "When active, the pair routes LP fees to `destination`      instead of distributing pro-rata to LPs.      Use case: route fees to BlockpotDAO PrizeVault v3.      Not active at launch — opt-in per pool.",
						"params": {
							"active": "True to enable, false to disable.",
							"destination": "Where LP fees are sent (e.g. PrizeVault).",
							"pair": "The pair contract address."
						}
					},
					"setTimbsToken(address)": {
						"details": "Used to identify the TIMBS/ETH pair for emissions routing."
					},
					"transferOwnership(address)": {
						"details": "Transfers ownership of the contract to a new account (`newOwner`). Can only be called by the current owner."
					}
				},
				"title": "TimbSwapFactory",
				"version": 1
			},
			"evm": {
				"assembly": "    /* \"contracts/TimbSwapFactory.sol\":1581:13432  contract TimbSwapFactory is Ownable, ReentrancyGuard {... */\n  mstore(0x40, 0x80)\n    /* \"contracts/TimbSwapFactory.sol\":5682:5864  constructor(address _feeTo) Ownable(msg.sender) {... */\n  callvalue\n  dup1\n  iszero\n  tag_1\n  jumpi\n  0x00\n  dup1\n  revert\ntag_1:\n  pop\n  mload(0x40)\n  sub(codesize, bytecodeSize)\n  dup1\n  bytecodeSize\n  dup4\n  codecopy\n  dup2\n  add\n  0x40\n  dup2\n  swap1\n  mstore\n  tag_2\n  swap2\n  tag_3\n  jump\t// in\ntag_2:\n    /* \"contracts/TimbSwapFactory.sol\":5718:5728  msg.sender */\n  caller\n  dup1\n    /* \"@openzeppelin/contracts/access/Ownable.sol\":1269:1364  if (initialOwner == address(0)) {... */\n  tag_8\n  jumpi\n    /* \"@openzeppelin/contracts/access/Ownable.sol\":1322:1353  OwnableInvalidOwner(address(0)) */\n  mload(0x40)\n  shl(0xe0, 0x1e4fbdf7)\n  dup2\n  mstore\n    /* \"@openzeppelin/contracts/access/Ownable.sol\":1350:1351  0 */\n  0x00\n    /* \"@openzeppelin/contracts/access/Ownable.sol\":1322:1353  OwnableInvalidOwner(address(0)) */\n  0x04\n  dup3\n  add\n    /* \"#utility.yul\":455:506   */\n  mstore\n    /* \"#utility.yul\":428:446   */\n  0x24\n  add\n    /* \"@openzeppelin/contracts/access/Ownable.sol\":1322:1353  OwnableInvalidOwner(address(0)) */\n  mload(0x40)\n  dup1\n  swap2\n  sub\n  swap1\n  revert\n    /* \"@openzeppelin/contracts/access/Ownable.sol\":1269:1364  if (initialOwner == address(0)) {... */\ntag_8:\n    /* \"@openzeppelin/contracts/access/Ownable.sol\":1373:1405  _transferOwnership(initialOwner) */\n  tag_11\n    /* \"@openzeppelin/contracts/access/Ownable.sol\":1392:1404  initialOwner */\n  dup2\n    /* \"@openzeppelin/contracts/access/Ownable.sol\":1373:1391  _transferOwnership */\n  tag_12\n    /* \"@openzeppelin/contracts/access/Ownable.sol\":1373:1405  _transferOwnership(initialOwner) */\n  jump\t// in\ntag_11:\n  pop\n    /* \"@openzeppelin/contracts/utils/ReentrancyGuard.sol\":2365:2366  1 */\n  0x01\n    /* \"@openzeppelin/contracts/utils/ReentrancyGuard.sol\":1505:1571  0x9b779b17422d0df92223018b32b4d1fa46e071723d6817e2486d003becc55f00 */\n  0x9b779b17422d0df92223018b32b4d1fa46e071723d6817e2486d003becc55f00\n    /* \"@openzeppelin/contracts/utils/ReentrancyGuard.sol\":2539:2605  _reentrancyGuardStorageSlot().getUint256Slot().value = NOT_ENTERED */\n  sstore\n  sub(shl(0xa0, 0x01), 0x01)\n    /* \"contracts/TimbSwapFactory.sol\":5744:5764  _feeTo == address(0) */\n  dup2\n  and\n    /* \"contracts/TimbSwapFactory.sol\":5740:5786  if (_feeTo == address(0)) revert ZeroAddress() */\n  tag_19\n  jumpi\n    /* \"contracts/TimbSwapFactory.sol\":5773:5786  ZeroAddress() */\n  mload(0x40)\n  shl(0xe0, 0xd92e233d)\n  dup2\n  mstore\n  0x04\n  add\n  mload(0x40)\n  dup1\n  swap2\n  sub\n  swap1\n  revert\n    /* \"contracts/TimbSwapFactory.sol\":5740:5786  if (_feeTo == address(0)) revert ZeroAddress() */\ntag_19:\n    /* \"contracts/TimbSwapFactory.sol\":5796:5801  feeTo */\n  0x01\n    /* \"contracts/TimbSwapFactory.sol\":5796:5810  feeTo = _feeTo */\n  dup1\n  sload\n  not(sub(shl(0xa0, 0x01), 0x01))\n  and\n  sub(shl(0xa0, 0x01), 0x01)\n  dup4\n  and\n  swap1\n  dup2\n  or\n  swap1\n  swap2\n  sstore\n    /* \"contracts/TimbSwapFactory.sol\":5825:5857  FeeToUpdated(address(0), _feeTo) */\n  mload(0x40)\n  0x00\n  swap1\n  0x8f93286d6f131e956d1aa672d3ecdc817f24efc20b223b0de5d591f454edc347\n  swap1\n  dup3\n  swap1\n  log3\n    /* \"contracts/TimbSwapFactory.sol\":5682:5864  constructor(address _feeTo) Ownable(msg.sender) {... */\n  pop\n    /* \"contracts/TimbSwapFactory.sol\":1581:13432  contract TimbSwapFactory is Ownable, ReentrancyGuard {... */\n  jump(tag_24)\n    /* \"@openzeppelin/contracts/access/Ownable.sol\":2912:3099  function _transferOwnership(address newOwner) internal virtual {... */\ntag_12:\n    /* \"@openzeppelin/contracts/access/Ownable.sol\":2985:3001  address oldOwner */\n  0x00\n    /* \"@openzeppelin/contracts/access/Ownable.sol\":3004:3010  _owner */\n  dup1\n  sload\n  sub(shl(0xa0, 0x01), 0x01)\n    /* \"@openzeppelin/contracts/access/Ownable.sol\":3020:3037  _owner = newOwner */\n  dup4\n  dup2\n  and\n  not(sub(shl(0xa0, 0x01), 0x01))\n  dup4\n  and\n  dup2\n  or\n  dup5\n  sstore\n    /* \"@openzeppelin/contracts/access/Ownable.sol\":3052:3092  OwnershipTransferred(oldOwner, newOwner) */\n  mload(0x40)\n    /* \"@openzeppelin/contracts/access/Ownable.sol\":3004:3010  _owner */\n  swap2\n  swap1\n  swap3\n  and\n  swap3\n  dup4\n  swap2\n    /* \"@openzeppelin/contracts/access/Ownable.sol\":3052:3092  OwnershipTransferred(oldOwner, newOwner) */\n  0x8be0079c531659141344cd1fd0a4f28419497f9722a3daafe3b4186f6b6457e0\n  swap2\n    /* \"@openzeppelin/contracts/access/Ownable.sol\":2985:3001  address oldOwner */\n  swap1\n    /* \"@openzeppelin/contracts/access/Ownable.sol\":3052:3092  OwnershipTransferred(oldOwner, newOwner) */\n  log3\n    /* \"@openzeppelin/contracts/access/Ownable.sol\":2975:3099  {... */\n  pop\n    /* \"@openzeppelin/contracts/access/Ownable.sol\":2912:3099  function _transferOwnership(address newOwner) internal virtual {... */\n  pop\n  jump\t// out\n    /* \"#utility.yul\":14:304   */\ntag_3:\n    /* \"#utility.yul\":84:90   */\n  0x00\n    /* \"#utility.yul\":137:139   */\n  0x20\n    /* \"#utility.yul\":125:134   */\n  dup3\n    /* \"#utility.yul\":116:123   */\n  dup5\n    /* \"#utility.yul\":112:135   */\n  sub\n    /* \"#utility.yul\":108:140   */\n  slt\n    /* \"#utility.yul\":105:157   */\n  iszero\n  tag_26\n  jumpi\n    /* \"#utility.yul\":153:154   */\n  0x00\n    /* \"#utility.yul\":150:151   */\n  dup1\n    /* \"#utility.yul\":143:155   */\n  revert\n    /* \"#utility.yul\":105:157   */\ntag_26:\n    /* \"#utility.yul\":179:195   */\n  dup2\n  mload\n  sub(shl(0xa0, 0x01), 0x01)\n    /* \"#utility.yul\":224:255   */\n  dup2\n  and\n    /* \"#utility.yul\":214:256   */\n  dup2\n  eq\n    /* \"#utility.yul\":204:274   */\n  tag_27\n  jumpi\n    /* \"#utility.yul\":270:271   */\n  0x00\n    /* \"#utility.yul\":267:268   */\n  dup1\n    /* \"#utility.yul\":260:272   */\n  revert\n    /* \"#utility.yul\":204:274   */\ntag_27:\n    /* \"#utility.yul\":293:298   */\n  swap4\n    /* \"#utility.yul\":14:304   */\n  swap3\n  pop\n  pop\n  pop\n  jump\t// out\n    /* \"#utility.yul\":309:512   */\ntag_24:\n    /* \"contracts/TimbSwapFactory.sol\":1581:13432  contract TimbSwapFactory is Ownable, ReentrancyGuard {... */\n  dataSize(sub_0)\n  dup1\n  dataOffset(sub_0)\n  0x00\n  codecopy\n  0x00\n  return\nstop\n\nsub_0: assembly {\n        /* \"contracts/TimbSwapFactory.sol\":1581:13432  contract TimbSwapFactory is Ownable, ReentrancyGuard {... */\n      mstore(0x40, 0x80)\n      callvalue\n      dup1\n      iszero\n      tag_1\n      jumpi\n      0x00\n      dup1\n      revert\n    tag_1:\n      pop\n      jumpi(tag_2, lt(calldatasize, 0x04))\n      shr(0xe0, calldataload(0x00))\n      dup1\n      0xa2092a32\n      gt\n      tag_31\n      jumpi\n      dup1\n      0xc0d78655\n      gt\n      tag_32\n      jumpi\n      dup1\n      0xe6a43905\n      gt\n      tag_33\n      jumpi\n      dup1\n      0xe6a43905\n      eq\n      tag_27\n      jumpi\n      dup1\n      0xf2fde38b\n      eq\n      tag_28\n      jumpi\n      dup1\n      0xf46901ed\n      eq\n      tag_29\n      jumpi\n      dup1\n      0xf887ea40\n      eq\n      tag_30\n      jumpi\n      0x00\n      dup1\n      revert\n    tag_33:\n      dup1\n      0xc0d78655\n      eq\n      tag_24\n      jumpi\n      dup1\n      0xc49823b2\n      eq\n      tag_25\n      jumpi\n      dup1\n      0xc9c65396\n      eq\n      tag_26\n      jumpi\n      0x00\n      dup1\n      revert\n    tag_32:\n      dup1\n      0xae416e27\n      gt\n      tag_34\n      jumpi\n      dup1\n      0xae416e27\n      eq\n      tag_20\n      jumpi\n      dup1\n      0xb4f69a2f\n      eq\n      tag_21\n      jumpi\n      dup1\n      0xba5d27d1\n      eq\n      tag_22\n      jumpi\n      dup1\n      0xbe378228\n      eq\n      tag_23\n      jumpi\n      0x00\n      dup1\n      revert\n    tag_34:\n      dup1\n      0xa2092a32\n      eq\n      tag_17\n      jumpi\n      dup1\n      0xa5258210\n      eq\n      tag_18\n      jumpi\n      dup1\n      0xa97ead83\n      eq\n      tag_19\n      jumpi\n      0x00\n      dup1\n      revert\n    tag_31:\n      dup1\n      0x5fbbc0d2\n      gt\n      tag_35\n      jumpi\n      dup1\n      0x7b3fa96d\n      gt\n      tag_36\n      jumpi\n      dup1\n      0x7b3fa96d\n      eq\n      tag_13\n      jumpi\n      dup1\n      0x8456cb59\n      eq\n      tag_14\n      jumpi\n      dup1\n      0x85cfef96\n      eq\n      tag_15\n      jumpi\n      dup1\n      0x8da5cb5b\n      eq\n      tag_16\n      jumpi\n      0x00\n      dup1\n      revert\n    tag_36:\n      dup1\n      0x5fbbc0d2\n      eq\n      tag_10\n      jumpi\n      dup1\n      0x6f28507c\n      eq\n      tag_11\n      jumpi\n      dup1\n      0x715018a6\n      eq\n      tag_12\n      jumpi\n      0x00\n      dup1\n      revert\n    tag_35:\n      dup1\n      0x3f4ba83a\n      gt\n      tag_37\n      jumpi\n      dup1\n      0x3f4ba83a\n      eq\n      tag_6\n      jumpi\n      dup1\n      0x55974c4b\n      eq\n      tag_7\n      jumpi\n      dup1\n      0x574f2ba3\n      eq\n      tag_8\n      jumpi\n      dup1\n      0x5c975abb\n      eq\n      tag_9\n      jumpi\n      0x00\n      dup1\n      revert\n    tag_37:\n      dup1\n      0x017e7e58\n      eq\n      tag_3\n      jumpi\n      dup1\n      0x0e31648f\n      eq\n      tag_4\n      jumpi\n      dup1\n      0x1e3dd18b\n      eq\n      tag_5\n      jumpi\n    tag_2:\n      0x00\n      dup1\n      revert\n        /* \"contracts/TimbSwapFactory.sol\":2547:2567  address public feeTo */\n    tag_3:\n      sload(0x01)\n      tag_38\n      swap1\n      sub(shl(0xa0, 0x01), 0x01)\n      and\n      dup2\n      jump\n    tag_38:\n      mload(0x40)\n      sub(shl(0xa0, 0x01), 0x01)\n        /* \"#utility.yul\":178:210   */\n      swap1\n      swap2\n      and\n        /* \"#utility.yul\":160:211   */\n      dup2\n      mstore\n        /* \"#utility.yul\":148:150   */\n      0x20\n        /* \"#utility.yul\":133:151   */\n      add\n        /* \"contracts/TimbSwapFactory.sol\":2547:2567  address public feeTo */\n    tag_40:\n      mload(0x40)\n      dup1\n      swap2\n      sub\n      swap1\n      return\n        /* \"contracts/TimbSwapFactory.sol\":2800:2825  address public timbsToken */\n    tag_4:\n      sload(0x03)\n      tag_38\n      swap1\n      sub(shl(0xa0, 0x01), 0x01)\n      and\n      dup2\n      jump\n        /* \"contracts/TimbSwapFactory.sol\":3143:3168  address[] public allPairs */\n    tag_5:\n      tag_38\n      tag_46\n      calldatasize\n      0x04\n      tag_47\n      jump\t// in\n    tag_46:\n      tag_48\n      jump\t// in\n        /* \"contracts/TimbSwapFactory.sol\":11522:11626  function unpause() external onlyOwner {... */\n    tag_6:\n      tag_50\n      tag_51\n      jump\t// in\n    tag_50:\n      stop\n        /* \"contracts/TimbSwapFactory.sol\":12531:12683  function isPairEmissionsEligible(address pair)... */\n    tag_7:\n      tag_52\n      tag_53\n      calldatasize\n      0x04\n      tag_54\n      jump\t// in\n    tag_53:\n      sub(shl(0xa0, 0x01), 0x01)\n        /* \"contracts/TimbSwapFactory.sol\":12652:12676  emissionsWhitelist[pair] */\n      and\n        /* \"contracts/TimbSwapFactory.sol\":12625:12629  bool */\n      0x00\n        /* \"contracts/TimbSwapFactory.sol\":12652:12676  emissionsWhitelist[pair] */\n      swap1\n      dup2\n      mstore\n        /* \"contracts/TimbSwapFactory.sol\":12652:12670  emissionsWhitelist */\n      0x06\n        /* \"contracts/TimbSwapFactory.sol\":12652:12676  emissionsWhitelist[pair] */\n      0x20\n      mstore\n      0x40\n      swap1\n      keccak256\n      sload\n      0xff\n      and\n      swap1\n        /* \"contracts/TimbSwapFactory.sol\":12531:12683  function isPairEmissionsEligible(address pair)... */\n      jump\n    tag_52:\n      mload(0x40)\n        /* \"#utility.yul\":941:955   */\n      swap1\n      iszero\n        /* \"#utility.yul\":934:956   */\n      iszero\n        /* \"#utility.yul\":916:957   */\n      dup2\n      mstore\n        /* \"#utility.yul\":904:906   */\n      0x20\n        /* \"#utility.yul\":889:907   */\n      add\n        /* \"contracts/TimbSwapFactory.sol\":12531:12683  function isPairEmissionsEligible(address pair)... */\n      tag_40\n        /* \"#utility.yul\":776:963   */\n      jump\n        /* \"contracts/TimbSwapFactory.sol\":11897:11994  function allPairsLength() external view returns (uint256) {... */\n    tag_8:\n        /* \"contracts/TimbSwapFactory.sol\":11972:11980  allPairs */\n      0x05\n        /* \"contracts/TimbSwapFactory.sol\":11972:11987  allPairs.length */\n      sload\n        /* \"contracts/TimbSwapFactory.sol\":11897:11994  function allPairsLength() external view returns (uint256) {... */\n    tag_58:\n      mload(0x40)\n        /* \"#utility.yul\":1114:1139   */\n      swap1\n      dup2\n      mstore\n        /* \"#utility.yul\":1102:1104   */\n      0x20\n        /* \"#utility.yul\":1087:1105   */\n      add\n        /* \"contracts/TimbSwapFactory.sol\":11897:11994  function allPairsLength() external view returns (uint256) {... */\n      tag_40\n        /* \"#utility.yul\":968:1145   */\n      jump\n        /* \"contracts/TimbSwapFactory.sol\":2882:2900  bool public paused */\n    tag_9:\n      sload(0x03)\n      tag_52\n      swap1\n      shl(0xa0, 0x01)\n      swap1\n      div\n      0xff\n      and\n      dup2\n      jump\n        /* \"contracts/TimbSwapFactory.sol\":13136:13430  function getFeeConfig()... */\n    tag_10:\n      0x40\n      dup1\n      mload\n        /* \"contracts/TimbSwapFactory.sol\":1951:1953  30 */\n      0x1e\n        /* \"#utility.yul\":1381:1406   */\n      dup2\n      mstore\n        /* \"contracts/TimbSwapFactory.sol\":2069:2071  25 */\n      0x19\n        /* \"#utility.yul\":1437:1439   */\n      0x20\n        /* \"#utility.yul\":1422:1440   */\n      dup3\n      add\n        /* \"#utility.yul\":1415:1449   */\n      mstore\n        /* \"contracts/TimbSwapFactory.sol\":2198:2199  5 */\n      0x05\n        /* \"#utility.yul\":1465:1483   */\n      swap2\n      dup2\n      add\n        /* \"#utility.yul\":1458:1492   */\n      swap2\n      swap1\n      swap2\n      mstore\n        /* \"contracts/TimbSwapFactory.sol\":2249:2255  10_000 */\n      0x2710\n        /* \"#utility.yul\":1523:1525   */\n      0x60\n        /* \"#utility.yul\":1508:1526   */\n      dup3\n      add\n        /* \"#utility.yul\":1501:1535   */\n      mstore\n        /* \"#utility.yul\":1368:1371   */\n      0x80\n        /* \"#utility.yul\":1353:1372   */\n      add\n        /* \"contracts/TimbSwapFactory.sol\":13136:13430  function getFeeConfig()... */\n      tag_40\n        /* \"#utility.yul\":1150:1541   */\n      jump\n        /* \"contracts/TimbSwapFactory.sol\":1911:1953  uint256 public constant TOTAL_FEE_BPS = 30 */\n    tag_11:\n      tag_58\n        /* \"contracts/TimbSwapFactory.sol\":1951:1953  30 */\n      0x1e\n        /* \"contracts/TimbSwapFactory.sol\":1911:1953  uint256 public constant TOTAL_FEE_BPS = 30 */\n      dup2\n      jump\n        /* \"@openzeppelin/contracts/access/Ownable.sol\":2293:2394  function renounceOwnership() public virtual onlyOwner {... */\n    tag_12:\n      tag_50\n      tag_73\n      jump\t// in\n        /* \"contracts/TimbSwapFactory.sol\":3566:3611  mapping(address => bool) public isPartnerPool */\n    tag_13:\n      tag_52\n      tag_75\n      calldatasize\n      0x04\n      tag_54\n      jump\t// in\n    tag_75:\n      mstore(0x20, 0x07)\n      0x00\n      swap1\n      dup2\n      mstore\n      0x40\n      swap1\n      keccak256\n      sload\n      0xff\n      and\n      dup2\n      jump\n        /* \"contracts/TimbSwapFactory.sol\":11363:11462  function pause() external onlyOwner {... */\n    tag_14:\n      tag_50\n      tag_79\n      jump\t// in\n        /* \"contracts/TimbSwapFactory.sol\":12760:12956  function getPartnerConfig(address pair)... */\n    tag_15:\n      tag_80\n      tag_81\n      calldatasize\n      0x04\n      tag_54\n      jump\t// in\n    tag_81:\n      sub(shl(0xa0, 0x01), 0x01)\n        /* \"contracts/TimbSwapFactory.sol\":12903:12922  isPartnerPool[pair] */\n      swap1\n      dup2\n      and\n        /* \"contracts/TimbSwapFactory.sol\":12847:12858  bool active */\n      0x00\n        /* \"contracts/TimbSwapFactory.sol\":12903:12922  isPartnerPool[pair] */\n      swap1\n      dup2\n      mstore\n        /* \"contracts/TimbSwapFactory.sol\":12903:12916  isPartnerPool */\n      0x07\n        /* \"contracts/TimbSwapFactory.sol\":12903:12922  isPartnerPool[pair] */\n      0x20\n      swap1\n      dup2\n      mstore\n      0x40\n      dup1\n      dup4\n      keccak256\n      sload\n        /* \"contracts/TimbSwapFactory.sol\":12924:12942  partnerDestination */\n      0x08\n        /* \"contracts/TimbSwapFactory.sol\":12924:12948  partnerDestination[pair] */\n      swap1\n      swap3\n      mstore\n      swap1\n      swap2\n      keccak256\n      sload\n        /* \"contracts/TimbSwapFactory.sol\":12903:12922  isPartnerPool[pair] */\n      0xff\n      swap1\n      swap2\n      and\n      swap3\n        /* \"contracts/TimbSwapFactory.sol\":12924:12948  partnerDestination[pair] */\n      swap2\n      and\n      swap1\n        /* \"contracts/TimbSwapFactory.sol\":12760:12956  function getPartnerConfig(address pair)... */\n      jump\n    tag_80:\n      0x40\n      dup1\n      mload\n        /* \"#utility.yul\":1739:1753   */\n      swap3\n      iszero\n        /* \"#utility.yul\":1732:1754   */\n      iszero\n        /* \"#utility.yul\":1714:1755   */\n      dup4\n      mstore\n      sub(shl(0xa0, 0x01), 0x01)\n        /* \"#utility.yul\":1791:1823   */\n      swap1\n      swap2\n      and\n        /* \"#utility.yul\":1786:1788   */\n      0x20\n        /* \"#utility.yul\":1771:1789   */\n      dup4\n      add\n        /* \"#utility.yul\":1764:1824   */\n      mstore\n        /* \"#utility.yul\":1687:1705   */\n      add\n        /* \"contracts/TimbSwapFactory.sol\":12760:12956  function getPartnerConfig(address pair)... */\n      tag_40\n        /* \"#utility.yul\":1546:1830   */\n      jump\n        /* \"@openzeppelin/contracts/access/Ownable.sol\":1638:1723  function owner() public view virtual returns (address) {... */\n    tag_16:\n        /* \"@openzeppelin/contracts/access/Ownable.sol\":1684:1691  address */\n      0x00\n        /* \"@openzeppelin/contracts/access/Ownable.sol\":1710:1716  _owner */\n      sload\n      sub(shl(0xa0, 0x01), 0x01)\n      and\n        /* \"@openzeppelin/contracts/access/Ownable.sol\":1638:1723  function owner() public view virtual returns (address) {... */\n      jump(tag_38)\n        /* \"contracts/TimbSwapFactory.sol\":9678:9884  function setTimbsToken(address _timbsToken) external onlyOwner {... */\n    tag_17:\n      tag_50\n      tag_89\n      calldatasize\n      0x04\n      tag_54\n      jump\t// in\n    tag_89:\n      tag_90\n      jump\t// in\n        /* \"contracts/TimbSwapFactory.sol\":2032:2071  uint256 public constant LP_FEE_BPS = 25 */\n    tag_18:\n      tag_58\n        /* \"contracts/TimbSwapFactory.sol\":2069:2071  25 */\n      0x19\n        /* \"contracts/TimbSwapFactory.sol\":2032:2071  uint256 public constant LP_FEE_BPS = 25 */\n      dup2\n      jump\n        /* \"contracts/TimbSwapFactory.sol\":10868:11285  function setPartnerPool(... */\n    tag_19:\n      tag_50\n      tag_95\n      calldatasize\n      0x04\n      tag_96\n      jump\t// in\n    tag_95:\n      tag_97\n      jump\t// in\n        /* \"contracts/TimbSwapFactory.sol\":3742:3795  mapping(address => address) public partnerDestination */\n    tag_20:\n      tag_38\n      tag_99\n      calldatasize\n      0x04\n      tag_54\n      jump\t// in\n    tag_99:\n      mstore(0x20, 0x08)\n      0x00\n      swap1\n      dup2\n      mstore\n      0x40\n      swap1\n      keccak256\n      sload\n      sub(shl(0xa0, 0x01), 0x01)\n      and\n      dup2\n      jump\n        /* \"contracts/TimbSwapFactory.sol\":12148:12438  function getPairAddress(address tokenA, address tokenB)... */\n    tag_21:\n      tag_38\n      tag_103\n      calldatasize\n      0x04\n      tag_104\n      jump\t// in\n    tag_103:\n      tag_105\n      jump\t// in\n        /* \"contracts/TimbSwapFactory.sol\":10108:10378  function setEmissionsWhitelist(address pair, bool whitelisted)... */\n    tag_22:\n      tag_50\n      tag_108\n      calldatasize\n      0x04\n      tag_109\n      jump\t// in\n    tag_108:\n      tag_110\n      jump\t// in\n        /* \"contracts/TimbSwapFactory.sol\":2155:2199  uint256 public constant PROTOCOL_FEE_BPS = 5 */\n    tag_23:\n      tag_58\n        /* \"contracts/TimbSwapFactory.sol\":2198:2199  5 */\n      0x05\n        /* \"contracts/TimbSwapFactory.sol\":2155:2199  uint256 public constant PROTOCOL_FEE_BPS = 5 */\n      dup2\n      jump\n        /* \"contracts/TimbSwapFactory.sol\":9363:9541  function setRouter(address _router) external onlyOwner {... */\n    tag_24:\n      tag_50\n      tag_115\n      calldatasize\n      0x04\n      tag_54\n      jump\t// in\n    tag_115:\n      tag_116\n      jump\t// in\n        /* \"contracts/TimbSwapFactory.sol\":3301:3351  mapping(address => bool) public emissionsWhitelist */\n    tag_25:\n      tag_52\n      tag_118\n      calldatasize\n      0x04\n      tag_54\n      jump\t// in\n    tag_118:\n      mstore(0x20, 0x06)\n      0x00\n      swap1\n      dup2\n      mstore\n      0x40\n      swap1\n      keccak256\n      sload\n      0xff\n      and\n      dup2\n      jump\n        /* \"contracts/TimbSwapFactory.sol\":6574:8033  function createPair(address tokenA, address tokenB)... */\n    tag_26:\n      tag_38\n      tag_122\n      calldatasize\n      0x04\n      tag_104\n      jump\t// in\n    tag_122:\n      tag_123\n      jump\t// in\n        /* \"contracts/TimbSwapFactory.sol\":3018:3080  mapping(address => mapping(address => address)) public getPair */\n    tag_27:\n      tag_38\n      tag_126\n      calldatasize\n      0x04\n      tag_104\n      jump\t// in\n    tag_126:\n      0x04\n      0x20\n      swap1\n      dup2\n      mstore\n      0x00\n      swap3\n      dup4\n      mstore\n      0x40\n      dup1\n      dup5\n      keccak256\n      swap1\n      swap2\n      mstore\n      swap1\n      dup3\n      mstore\n      swap1\n      keccak256\n      sload\n      sub(shl(0xa0, 0x01), 0x01)\n      and\n      dup2\n      jump\n        /* \"@openzeppelin/contracts/access/Ownable.sol\":2543:2758  function transferOwnership(address newOwner) public virtual onlyOwner {... */\n    tag_28:\n      tag_50\n      tag_130\n      calldatasize\n      0x04\n      tag_54\n      jump\t// in\n    tag_130:\n      tag_131\n      jump\t// in\n        /* \"contracts/TimbSwapFactory.sol\":9088:9270  function setFeeTo(address _feeTo) external onlyOwner {... */\n    tag_29:\n      tag_50\n      tag_133\n      calldatasize\n      0x04\n      tag_54\n      jump\t// in\n    tag_133:\n      tag_134\n      jump\t// in\n        /* \"contracts/TimbSwapFactory.sol\":2695:2716  address public router */\n    tag_30:\n      sload(0x02)\n      tag_38\n      swap1\n      sub(shl(0xa0, 0x01), 0x01)\n      and\n      dup2\n      jump\n        /* \"contracts/TimbSwapFactory.sol\":3143:3168  address[] public allPairs */\n    tag_48:\n      0x05\n      dup2\n      dup2\n      sload\n      dup2\n      lt\n      tag_138\n      jumpi\n      0x00\n      dup1\n      revert\n    tag_138:\n      0x00\n      swap2\n      dup3\n      mstore\n      0x20\n      swap1\n      swap2\n      keccak256\n      add\n      sload\n      sub(shl(0xa0, 0x01), 0x01)\n      and\n      swap1\n      pop\n      dup2\n      jump\t// out\n        /* \"contracts/TimbSwapFactory.sol\":11522:11626  function unpause() external onlyOwner {... */\n    tag_51:\n        /* \"@openzeppelin/contracts/access/Ownable.sol\":1531:1544  _checkOwner() */\n      tag_141\n        /* \"@openzeppelin/contracts/access/Ownable.sol\":1531:1542  _checkOwner */\n      tag_142\n        /* \"@openzeppelin/contracts/access/Ownable.sol\":1531:1544  _checkOwner() */\n      jump\t// in\n    tag_141:\n        /* \"contracts/TimbSwapFactory.sol\":11570:11576  paused */\n      0x03\n        /* \"contracts/TimbSwapFactory.sol\":11570:11584  paused = false */\n      dup1\n      sload\n      not(shl(0xa0, 0xff))\n      and\n      swap1\n      sstore\n        /* \"contracts/TimbSwapFactory.sol\":11599:11619  Unpaused(msg.sender) */\n      mload(0x40)\n        /* \"contracts/TimbSwapFactory.sol\":11608:11618  msg.sender */\n      caller\n      swap1\n        /* \"contracts/TimbSwapFactory.sol\":11599:11619  Unpaused(msg.sender) */\n      0x5db9ee0a495bf2e6ff9c91a7834c1ba4fdd244a5e8aa4e537bd38aeae4b073aa\n      swap1\n        /* \"contracts/TimbSwapFactory.sol\":11579:11584  false */\n      0x00\n      swap1\n        /* \"contracts/TimbSwapFactory.sol\":11599:11619  Unpaused(msg.sender) */\n      log2\n        /* \"contracts/TimbSwapFactory.sol\":11522:11626  function unpause() external onlyOwner {... */\n      jump\t// out\n        /* \"@openzeppelin/contracts/access/Ownable.sol\":2293:2394  function renounceOwnership() public virtual onlyOwner {... */\n    tag_73:\n        /* \"@openzeppelin/contracts/access/Ownable.sol\":1531:1544  _checkOwner() */\n      tag_148\n        /* \"@openzeppelin/contracts/access/Ownable.sol\":1531:1542  _checkOwner */\n      tag_142\n        /* \"@openzeppelin/contracts/access/Ownable.sol\":1531:1544  _checkOwner() */\n      jump\t// in\n    tag_148:\n        /* \"@openzeppelin/contracts/access/Ownable.sol\":2357:2387  _transferOwnership(address(0)) */\n      tag_150\n        /* \"@openzeppelin/contracts/access/Ownable.sol\":2384:2385  0 */\n      0x00\n        /* \"@openzeppelin/contracts/access/Ownable.sol\":2357:2375  _transferOwnership */\n      tag_151\n        /* \"@openzeppelin/contracts/access/Ownable.sol\":2357:2387  _transferOwnership(address(0)) */\n      jump\t// in\n    tag_150:\n        /* \"@openzeppelin/contracts/access/Ownable.sol\":2293:2394  function renounceOwnership() public virtual onlyOwner {... */\n      jump\t// out\n        /* \"contracts/TimbSwapFactory.sol\":11363:11462  function pause() external onlyOwner {... */\n    tag_79:\n        /* \"@openzeppelin/contracts/access/Ownable.sol\":1531:1544  _checkOwner() */\n      tag_153\n        /* \"@openzeppelin/contracts/access/Ownable.sol\":1531:1542  _checkOwner */\n      tag_142\n        /* \"@openzeppelin/contracts/access/Ownable.sol\":1531:1544  _checkOwner() */\n      jump\t// in\n    tag_153:\n        /* \"contracts/TimbSwapFactory.sol\":11409:11415  paused */\n      0x03\n        /* \"contracts/TimbSwapFactory.sol\":11409:11422  paused = true */\n      dup1\n      sload\n      not(shl(0xa0, 0xff))\n      and\n      shl(0xa0, 0x01)\n      or\n      swap1\n      sstore\n        /* \"contracts/TimbSwapFactory.sol\":11437:11455  Paused(msg.sender) */\n      mload(0x40)\n        /* \"contracts/TimbSwapFactory.sol\":11444:11454  msg.sender */\n      caller\n      swap1\n        /* \"contracts/TimbSwapFactory.sol\":11437:11455  Paused(msg.sender) */\n      0x62e78cea01bee320cd4e420270b5ea74000d11b0c9f74754ebdbfc544b05a258\n      swap1\n        /* \"contracts/TimbSwapFactory.sol\":11409:11422  paused = true */\n      0x00\n      swap1\n        /* \"contracts/TimbSwapFactory.sol\":11437:11455  Paused(msg.sender) */\n      log2\n        /* \"contracts/TimbSwapFactory.sol\":11363:11462  function pause() external onlyOwner {... */\n      jump\t// out\n        /* \"contracts/TimbSwapFactory.sol\":9678:9884  function setTimbsToken(address _timbsToken) external onlyOwner {... */\n    tag_90:\n        /* \"@openzeppelin/contracts/access/Ownable.sol\":1531:1544  _checkOwner() */\n      tag_158\n        /* \"@openzeppelin/contracts/access/Ownable.sol\":1531:1542  _checkOwner */\n      tag_142\n        /* \"@openzeppelin/contracts/access/Ownable.sol\":1531:1544  _checkOwner() */\n      jump\t// in\n    tag_158:\n      sub(shl(0xa0, 0x01), 0x01)\n        /* \"contracts/TimbSwapFactory.sol\":9755:9780  _timbsToken == address(0) */\n      dup2\n      and\n        /* \"contracts/TimbSwapFactory.sol\":9751:9802  if (_timbsToken == address(0)) revert ZeroAddress() */\n      tag_160\n      jumpi\n        /* \"contracts/TimbSwapFactory.sol\":9789:9802  ZeroAddress() */\n      mload(0x40)\n      shl(0xe0, 0xd92e233d)\n      dup2\n      mstore\n      0x04\n      add\n      mload(0x40)\n      dup1\n      swap2\n      sub\n      swap1\n      revert\n        /* \"contracts/TimbSwapFactory.sol\":9751:9802  if (_timbsToken == address(0)) revert ZeroAddress() */\n    tag_160:\n        /* \"contracts/TimbSwapFactory.sol\":9812:9822  timbsToken */\n      0x03\n        /* \"contracts/TimbSwapFactory.sol\":9812:9836  timbsToken = _timbsToken */\n      dup1\n      sload\n      not(sub(shl(0xa0, 0x01), 0x01))\n      and\n      sub(shl(0xa0, 0x01), 0x01)\n      dup4\n      and\n      swap1\n      dup2\n      or\n      swap1\n      swap2\n      sstore\n        /* \"contracts/TimbSwapFactory.sol\":9851:9877  TimbsTokenSet(_timbsToken) */\n      mload(0x40)\n      0xa90daac379131812d11a08b83166a4f607749a36c47f239451c1f35b185b46a2\n      swap1\n      0x00\n      swap1\n      log2\n        /* \"contracts/TimbSwapFactory.sol\":9678:9884  function setTimbsToken(address _timbsToken) external onlyOwner {... */\n      pop\n      jump\t// out\n        /* \"contracts/TimbSwapFactory.sol\":10868:11285  function setPartnerPool(... */\n    tag_97:\n        /* \"@openzeppelin/contracts/access/Ownable.sol\":1531:1544  _checkOwner() */\n      tag_162\n        /* \"@openzeppelin/contracts/access/Ownable.sol\":1531:1542  _checkOwner */\n      tag_142\n        /* \"@openzeppelin/contracts/access/Ownable.sol\":1531:1544  _checkOwner() */\n      jump\t// in\n    tag_162:\n      sub(shl(0xa0, 0x01), 0x01)\n        /* \"contracts/TimbSwapFactory.sol\":11003:11021  pair == address(0) */\n      dup4\n      and\n        /* \"contracts/TimbSwapFactory.sol\":10999:11043  if (pair == address(0)) revert ZeroAddress() */\n      tag_164\n      jumpi\n        /* \"contracts/TimbSwapFactory.sol\":11030:11043  ZeroAddress() */\n      mload(0x40)\n      shl(0xe0, 0xd92e233d)\n      dup2\n      mstore\n      0x04\n      add\n      mload(0x40)\n      dup1\n      swap2\n      sub\n      swap1\n      revert\n        /* \"contracts/TimbSwapFactory.sol\":10999:11043  if (pair == address(0)) revert ZeroAddress() */\n    tag_164:\n        /* \"contracts/TimbSwapFactory.sol\":11057:11063  active */\n      dup1\n        /* \"contracts/TimbSwapFactory.sol\":11057:11092  active && destination == address(0) */\n      dup1\n      iszero\n      tag_165\n      jumpi\n      pop\n      sub(shl(0xa0, 0x01), 0x01)\n        /* \"contracts/TimbSwapFactory.sol\":11067:11092  destination == address(0) */\n      dup3\n      and\n      iszero\n        /* \"contracts/TimbSwapFactory.sol\":11057:11092  active && destination == address(0) */\n    tag_165:\n        /* \"contracts/TimbSwapFactory.sol\":11053:11114  if (active && destination == address(0)) revert ZeroAddress() */\n      iszero\n      tag_166\n      jumpi\n        /* \"contracts/TimbSwapFactory.sol\":11101:11114  ZeroAddress() */\n      mload(0x40)\n      shl(0xe0, 0xd92e233d)\n      dup2\n      mstore\n      0x04\n      add\n      mload(0x40)\n      dup1\n      swap2\n      sub\n      swap1\n      revert\n        /* \"contracts/TimbSwapFactory.sol\":11053:11114  if (active && destination == address(0)) revert ZeroAddress() */\n    tag_166:\n      sub(shl(0xa0, 0x01), 0x01)\n        /* \"contracts/TimbSwapFactory.sol\":11124:11143  isPartnerPool[pair] */\n      dup4\n      and\n      0x00\n      swap1\n      dup2\n      mstore\n        /* \"contracts/TimbSwapFactory.sol\":11124:11137  isPartnerPool */\n      0x07\n        /* \"contracts/TimbSwapFactory.sol\":11124:11143  isPartnerPool[pair] */\n      0x20\n      mstore\n      0x40\n      swap1\n      keccak256\n        /* \"contracts/TimbSwapFactory.sol\":11124:11152  isPartnerPool[pair] = active */\n      dup1\n      sload\n      not(0xff)\n      and\n      dup3\n      iszero\n      iszero\n      or\n      swap1\n      sstore\n      dup1\n        /* \"contracts/TimbSwapFactory.sol\":11189:11222  active ? destination : address(0) */\n      tag_167\n      jumpi\n        /* \"contracts/TimbSwapFactory.sol\":11220:11221  0 */\n      0x00\n        /* \"contracts/TimbSwapFactory.sol\":11189:11222  active ? destination : address(0) */\n      jump(tag_168)\n    tag_167:\n        /* \"contracts/TimbSwapFactory.sol\":11198:11209  destination */\n      dup2\n        /* \"contracts/TimbSwapFactory.sol\":11189:11222  active ? destination : address(0) */\n    tag_168:\n      sub(shl(0xa0, 0x01), 0x01)\n        /* \"contracts/TimbSwapFactory.sol\":11162:11186  partnerDestination[pair] */\n      dup5\n      dup2\n      and\n      0x00\n      dup2\n      dup2\n      mstore\n        /* \"contracts/TimbSwapFactory.sol\":11162:11180  partnerDestination */\n      0x08\n        /* \"contracts/TimbSwapFactory.sol\":11162:11186  partnerDestination[pair] */\n      0x20\n      swap1\n      dup2\n      mstore\n      0x40\n      swap2\n      dup3\n      swap1\n      keccak256\n        /* \"contracts/TimbSwapFactory.sol\":11162:11222  partnerDestination[pair] = active ? destination : address(0) */\n      dup1\n      sload\n      not(sub(shl(0xa0, 0x01), 0x01))\n      and\n      swap6\n      dup6\n      and\n      swap6\n      swap1\n      swap6\n      or\n      swap1\n      swap5\n      sstore\n        /* \"contracts/TimbSwapFactory.sol\":11237:11278  PartnerPoolSet(pair, destination, active) */\n      mload\n        /* \"#utility.yul\":941:955   */\n      dup5\n      iszero\n        /* \"#utility.yul\":934:956   */\n      iszero\n        /* \"#utility.yul\":916:957   */\n      dup2\n      mstore\n        /* \"contracts/TimbSwapFactory.sol\":11237:11278  PartnerPoolSet(pair, destination, active) */\n      swap2\n      dup6\n      and\n      swap3\n        /* \"contracts/TimbSwapFactory.sol\":11162:11186  partnerDestination[pair] */\n      swap1\n      swap2\n        /* \"contracts/TimbSwapFactory.sol\":11237:11278  PartnerPoolSet(pair, destination, active) */\n      0x261b3ada3e776c76fef449b1ff19e4a768d4d8351061b04cdbf332d5bfa2c4be\n      swap2\n        /* \"#utility.yul\":889:907   */\n      add\n        /* \"contracts/TimbSwapFactory.sol\":11237:11278  PartnerPoolSet(pair, destination, active) */\n      mload(0x40)\n      dup1\n      swap2\n      sub\n      swap1\n      log3\n        /* \"contracts/TimbSwapFactory.sol\":10868:11285  function setPartnerPool(... */\n      pop\n      pop\n      pop\n      jump\t// out\n        /* \"contracts/TimbSwapFactory.sol\":12148:12438  function getPairAddress(address tokenA, address tokenB)... */\n    tag_105:\n        /* \"contracts/TimbSwapFactory.sol\":12251:12263  address pair */\n      0x00\n        /* \"contracts/TimbSwapFactory.sol\":12280:12294  address token0 */\n      dup1\n        /* \"contracts/TimbSwapFactory.sol\":12296:12310  address token1 */\n      0x00\n        /* \"contracts/TimbSwapFactory.sol\":12323:12329  tokenB */\n      dup4\n      sub(shl(0xa0, 0x01), 0x01)\n        /* \"contracts/TimbSwapFactory.sol\":12314:12329  tokenA < tokenB */\n      and\n        /* \"contracts/TimbSwapFactory.sol\":12314:12320  tokenA */\n      dup6\n      sub(shl(0xa0, 0x01), 0x01)\n        /* \"contracts/TimbSwapFactory.sol\":12314:12329  tokenA < tokenB */\n      and\n      lt\n        /* \"contracts/TimbSwapFactory.sol\":12314:12391  tokenA < tokenB... */\n      tag_171\n      jumpi\n        /* \"contracts/TimbSwapFactory.sol\":12376:12382  tokenB */\n      dup4\n        /* \"contracts/TimbSwapFactory.sol\":12384:12390  tokenA */\n      dup6\n        /* \"contracts/TimbSwapFactory.sol\":12314:12391  tokenA < tokenB... */\n      jump(tag_172)\n    tag_171:\n        /* \"contracts/TimbSwapFactory.sol\":12345:12351  tokenA */\n      dup5\n        /* \"contracts/TimbSwapFactory.sol\":12353:12359  tokenB */\n      dup5\n        /* \"contracts/TimbSwapFactory.sol\":12314:12391  tokenA < tokenB... */\n    tag_172:\n      sub(shl(0xa0, 0x01), 0x01)\n        /* \"contracts/TimbSwapFactory.sol\":12408:12423  getPair[token0] */\n      swap2\n      dup3\n      and\n      0x00\n      swap1\n      dup2\n      mstore\n        /* \"contracts/TimbSwapFactory.sol\":12408:12415  getPair */\n      0x04\n        /* \"contracts/TimbSwapFactory.sol\":12408:12423  getPair[token0] */\n      0x20\n      swap1\n      dup2\n      mstore\n      0x40\n      dup1\n      dup4\n      keccak256\n        /* \"contracts/TimbSwapFactory.sol\":12408:12431  getPair[token0][token1] */\n      swap4\n      dup6\n      and\n      dup4\n      mstore\n      swap3\n      swap1\n      mstore\n      keccak256\n      sload\n      and\n      swap3\n      pop\n      pop\n      pop\n        /* \"contracts/TimbSwapFactory.sol\":12148:12438  function getPairAddress(address tokenA, address tokenB)... */\n    tag_170:\n      swap3\n      swap2\n      pop\n      pop\n      jump\t// out\n        /* \"contracts/TimbSwapFactory.sol\":10108:10378  function setEmissionsWhitelist(address pair, bool whitelisted)... */\n    tag_110:\n        /* \"@openzeppelin/contracts/access/Ownable.sol\":1531:1544  _checkOwner() */\n      tag_174\n        /* \"@openzeppelin/contracts/access/Ownable.sol\":1531:1542  _checkOwner */\n      tag_142\n        /* \"@openzeppelin/contracts/access/Ownable.sol\":1531:1544  _checkOwner() */\n      jump\t// in\n    tag_174:\n      sub(shl(0xa0, 0x01), 0x01)\n        /* \"contracts/TimbSwapFactory.sol\":10224:10242  pair == address(0) */\n      dup3\n      and\n        /* \"contracts/TimbSwapFactory.sol\":10220:10264  if (pair == address(0)) revert ZeroAddress() */\n      tag_176\n      jumpi\n        /* \"contracts/TimbSwapFactory.sol\":10251:10264  ZeroAddress() */\n      mload(0x40)\n      shl(0xe0, 0xd92e233d)\n      dup2\n      mstore\n      0x04\n      add\n      mload(0x40)\n      dup1\n      swap2\n      sub\n      swap1\n      revert\n        /* \"contracts/TimbSwapFactory.sol\":10220:10264  if (pair == address(0)) revert ZeroAddress() */\n    tag_176:\n      sub(shl(0xa0, 0x01), 0x01)\n        /* \"contracts/TimbSwapFactory.sol\":10274:10298  emissionsWhitelist[pair] */\n      dup3\n      and\n      0x00\n      dup2\n      dup2\n      mstore\n        /* \"contracts/TimbSwapFactory.sol\":10274:10292  emissionsWhitelist */\n      0x06\n        /* \"contracts/TimbSwapFactory.sol\":10274:10298  emissionsWhitelist[pair] */\n      0x20\n      swap1\n      dup2\n      mstore\n      0x40\n      swap2\n      dup3\n      swap1\n      keccak256\n        /* \"contracts/TimbSwapFactory.sol\":10274:10312  emissionsWhitelist[pair] = whitelisted */\n      dup1\n      sload\n      not(0xff)\n      and\n      dup6\n      iszero\n      iszero\n      swap1\n      dup2\n      or\n      swap1\n      swap2\n      sstore\n        /* \"contracts/TimbSwapFactory.sol\":10327:10371  EmissionsWhitelistUpdated(pair, whitelisted) */\n      swap2\n      mload\n        /* \"#utility.yul\":916:957   */\n      swap2\n      dup3\n      mstore\n        /* \"contracts/TimbSwapFactory.sol\":10327:10371  EmissionsWhitelistUpdated(pair, whitelisted) */\n      0x27cb2e738bd9aec3e5a96db124fda6677c365fcc053f5789638bf9054f0f1dab\n      swap2\n        /* \"#utility.yul\":889:907   */\n      add\n        /* \"contracts/TimbSwapFactory.sol\":10327:10371  EmissionsWhitelistUpdated(pair, whitelisted) */\n      mload(0x40)\n      dup1\n      swap2\n      sub\n      swap1\n      log2\n        /* \"contracts/TimbSwapFactory.sol\":10108:10378  function setEmissionsWhitelist(address pair, bool whitelisted)... */\n      pop\n      pop\n      jump\t// out\n        /* \"contracts/TimbSwapFactory.sol\":9363:9541  function setRouter(address _router) external onlyOwner {... */\n    tag_116:\n        /* \"@openzeppelin/contracts/access/Ownable.sol\":1531:1544  _checkOwner() */\n      tag_179\n        /* \"@openzeppelin/contracts/access/Ownable.sol\":1531:1542  _checkOwner */\n      tag_142\n        /* \"@openzeppelin/contracts/access/Ownable.sol\":1531:1544  _checkOwner() */\n      jump\t// in\n    tag_179:\n      sub(shl(0xa0, 0x01), 0x01)\n        /* \"contracts/TimbSwapFactory.sol\":9432:9453  _router == address(0) */\n      dup2\n      and\n        /* \"contracts/TimbSwapFactory.sol\":9428:9475  if (_router == address(0)) revert ZeroAddress() */\n      tag_181\n      jumpi\n        /* \"contracts/TimbSwapFactory.sol\":9462:9475  ZeroAddress() */\n      mload(0x40)\n      shl(0xe0, 0xd92e233d)\n      dup2\n      mstore\n      0x04\n      add\n      mload(0x40)\n      dup1\n      swap2\n      sub\n      swap1\n      revert\n        /* \"contracts/TimbSwapFactory.sol\":9428:9475  if (_router == address(0)) revert ZeroAddress() */\n    tag_181:\n        /* \"contracts/TimbSwapFactory.sol\":9485:9491  router */\n      0x02\n        /* \"contracts/TimbSwapFactory.sol\":9485:9501  router = _router */\n      dup1\n      sload\n      not(sub(shl(0xa0, 0x01), 0x01))\n      and\n      sub(shl(0xa0, 0x01), 0x01)\n      dup4\n      and\n      swap1\n      dup2\n      or\n      swap1\n      swap2\n      sstore\n        /* \"contracts/TimbSwapFactory.sol\":9516:9534  RouterSet(_router) */\n      mload(0x40)\n      0xc6b438e6a8a59579ce6a4406cbd203b740e0d47b458aae6596339bcd40c40d15\n      swap1\n      0x00\n      swap1\n      log2\n        /* \"contracts/TimbSwapFactory.sol\":9363:9541  function setRouter(address _router) external onlyOwner {... */\n      pop\n      jump\t// out\n        /* \"contracts/TimbSwapFactory.sol\":6574:8033  function createPair(address tokenA, address tokenB)... */\n    tag_123:\n        /* \"contracts/TimbSwapFactory.sol\":6703:6715  address pair */\n      0x00\n        /* \"@openzeppelin/contracts/utils/ReentrancyGuard.sol\":3023:3044  _nonReentrantBefore() */\n      tag_183\n        /* \"@openzeppelin/contracts/utils/ReentrancyGuard.sol\":3023:3042  _nonReentrantBefore */\n      tag_184\n        /* \"@openzeppelin/contracts/utils/ReentrancyGuard.sol\":3023:3044  _nonReentrantBefore() */\n      jump\t// in\n    tag_183:\n        /* \"contracts/TimbSwapFactory.sol\":5232:5238  paused */\n      sload(0x03)\n      shl(0xa0, 0x01)\n      swap1\n      div\n      0xff\n      and\n        /* \"contracts/TimbSwapFactory.sol\":5228:5267  if (paused) revert PairCreationPaused() */\n      iszero\n      tag_186\n      jumpi\n        /* \"contracts/TimbSwapFactory.sol\":5247:5267  PairCreationPaused() */\n      mload(0x40)\n      shl(0xe1, 0x55768c99)\n      dup2\n      mstore\n      0x04\n      add\n      mload(0x40)\n      dup1\n      swap2\n      sub\n      swap1\n      revert\n        /* \"contracts/TimbSwapFactory.sol\":5228:5267  if (paused) revert PairCreationPaused() */\n    tag_186:\n        /* \"contracts/TimbSwapFactory.sol\":6745:6751  tokenB */\n      dup2\n      sub(shl(0xa0, 0x01), 0x01)\n        /* \"contracts/TimbSwapFactory.sol\":6735:6751  tokenA == tokenB */\n      and\n        /* \"contracts/TimbSwapFactory.sol\":6735:6741  tokenA */\n      dup4\n      sub(shl(0xa0, 0x01), 0x01)\n        /* \"contracts/TimbSwapFactory.sol\":6735:6751  tokenA == tokenB */\n      and\n      sub\n        /* \"contracts/TimbSwapFactory.sol\":6731:6780  if (tokenA == tokenB) revert IdenticalAddresses() */\n      tag_188\n      jumpi\n        /* \"contracts/TimbSwapFactory.sol\":6760:6780  IdenticalAddresses() */\n      mload(0x40)\n      shl(0xe4, 0x0bd969eb)\n      dup2\n      mstore\n      0x04\n      add\n      mload(0x40)\n      dup1\n      swap2\n      sub\n      swap1\n      revert\n        /* \"contracts/TimbSwapFactory.sol\":6731:6780  if (tokenA == tokenB) revert IdenticalAddresses() */\n    tag_188:\n      sub(shl(0xa0, 0x01), 0x01)\n        /* \"contracts/TimbSwapFactory.sol\":6794:6814  tokenA == address(0) */\n      dup4\n      and\n      iszero\n      dup1\n        /* \"contracts/TimbSwapFactory.sol\":6794:6838  tokenA == address(0) || tokenB == address(0) */\n      tag_189\n      jumpi\n      pop\n      sub(shl(0xa0, 0x01), 0x01)\n        /* \"contracts/TimbSwapFactory.sol\":6818:6838  tokenB == address(0) */\n      dup3\n      and\n      iszero\n        /* \"contracts/TimbSwapFactory.sol\":6794:6838  tokenA == address(0) || tokenB == address(0) */\n    tag_189:\n        /* \"contracts/TimbSwapFactory.sol\":6790:6860  if (tokenA == address(0) || tokenB == address(0)) revert ZeroAddress() */\n      iszero\n      tag_190\n      jumpi\n        /* \"contracts/TimbSwapFactory.sol\":6847:6860  ZeroAddress() */\n      mload(0x40)\n      shl(0xe0, 0xd92e233d)\n      dup2\n      mstore\n      0x04\n      add\n      mload(0x40)\n      dup1\n      swap2\n      sub\n      swap1\n      revert\n        /* \"contracts/TimbSwapFactory.sol\":6790:6860  if (tokenA == address(0) || tokenB == address(0)) revert ZeroAddress() */\n    tag_190:\n        /* \"contracts/TimbSwapFactory.sol\":6935:6949  address token0 */\n      0x00\n        /* \"contracts/TimbSwapFactory.sol\":6951:6965  address token1 */\n      dup1\n        /* \"contracts/TimbSwapFactory.sol\":6978:6984  tokenB */\n      dup4\n      sub(shl(0xa0, 0x01), 0x01)\n        /* \"contracts/TimbSwapFactory.sol\":6969:6984  tokenA < tokenB */\n      and\n        /* \"contracts/TimbSwapFactory.sol\":6969:6975  tokenA */\n      dup6\n      sub(shl(0xa0, 0x01), 0x01)\n        /* \"contracts/TimbSwapFactory.sol\":6969:6984  tokenA < tokenB */\n      and\n      lt\n        /* \"contracts/TimbSwapFactory.sol\":6969:7046  tokenA < tokenB... */\n      tag_191\n      jumpi\n        /* \"contracts/TimbSwapFactory.sol\":7031:7037  tokenB */\n      dup4\n        /* \"contracts/TimbSwapFactory.sol\":7039:7045  tokenA */\n      dup6\n        /* \"contracts/TimbSwapFactory.sol\":6969:7046  tokenA < tokenB... */\n      jump(tag_192)\n    tag_191:\n        /* \"contracts/TimbSwapFactory.sol\":7000:7006  tokenA */\n      dup5\n        /* \"contracts/TimbSwapFactory.sol\":7008:7014  tokenB */\n      dup5\n        /* \"contracts/TimbSwapFactory.sol\":6969:7046  tokenA < tokenB... */\n    tag_192:\n      sub(shl(0xa0, 0x01), 0x01)\n        /* \"contracts/TimbSwapFactory.sol\":7105:7120  getPair[token0] */\n      dup1\n      dup4\n      and\n        /* \"contracts/TimbSwapFactory.sol\":7140:7141  0 */\n      0x00\n        /* \"contracts/TimbSwapFactory.sol\":7105:7120  getPair[token0] */\n      swap1\n      dup2\n      mstore\n        /* \"contracts/TimbSwapFactory.sol\":7105:7112  getPair */\n      0x04\n        /* \"contracts/TimbSwapFactory.sol\":7105:7120  getPair[token0] */\n      0x20\n      swap1\n      dup2\n      mstore\n      0x40\n      dup1\n      dup4\n      keccak256\n        /* \"contracts/TimbSwapFactory.sol\":7105:7128  getPair[token0][token1] */\n      dup5\n      dup7\n      and\n      dup5\n      mstore\n      swap1\n      swap2\n      mstore\n      swap1\n      keccak256\n      sload\n        /* \"contracts/TimbSwapFactory.sol\":6934:7046  (address token0, address token1) = tokenA < tokenB... */\n      swap3\n      swap5\n      pop\n      swap1\n      swap3\n      pop\n        /* \"contracts/TimbSwapFactory.sol\":7105:7128  getPair[token0][token1] */\n      and\n        /* \"contracts/TimbSwapFactory.sol\":7105:7142  getPair[token0][token1] != address(0) */\n      iszero\n        /* \"contracts/TimbSwapFactory.sol\":7101:7211  if (getPair[token0][token1] != address(0)) {... */\n      tag_193\n      jumpi\n      sub(shl(0xa0, 0x01), 0x01)\n        /* \"contracts/TimbSwapFactory.sol\":7176:7191  getPair[token0] */\n      dup3\n      dup2\n      and\n      0x00\n      swap1\n      dup2\n      mstore\n        /* \"contracts/TimbSwapFactory.sol\":7176:7183  getPair */\n      0x04\n        /* \"contracts/TimbSwapFactory.sol\":7176:7191  getPair[token0] */\n      0x20\n      dup2\n      dup2\n      mstore\n      0x40\n      dup1\n      dup5\n      keccak256\n        /* \"contracts/TimbSwapFactory.sol\":7176:7199  getPair[token0][token1] */\n      dup7\n      dup7\n      and\n      dup6\n      mstore\n      swap1\n      swap2\n      mstore\n      swap2\n      dup3\n      swap1\n      keccak256\n      sload\n        /* \"contracts/TimbSwapFactory.sol\":7165:7200  PairExists(getPair[token0][token1]) */\n      swap2\n      mload\n      shl(0xe0, 0x3a55c9ad)\n      dup2\n      mstore\n        /* \"contracts/TimbSwapFactory.sol\":7176:7199  getPair[token0][token1] */\n      swap2\n      swap1\n      swap3\n      and\n        /* \"contracts/TimbSwapFactory.sol\":7165:7200  PairExists(getPair[token0][token1]) */\n      swap2\n      dup2\n      add\n        /* \"#utility.yul\":160:211   */\n      swap2\n      swap1\n      swap2\n      mstore\n        /* \"#utility.yul\":133:151   */\n      0x24\n      add\n        /* \"contracts/TimbSwapFactory.sol\":7165:7200  PairExists(getPair[token0][token1]) */\n    tag_194:\n      mload(0x40)\n      dup1\n      swap2\n      sub\n      swap1\n      revert\n        /* \"contracts/TimbSwapFactory.sol\":7101:7211  if (getPair[token0][token1] != address(0)) {... */\n    tag_193:\n        /* \"contracts/TimbSwapFactory.sol\":7306:7338  abi.encodePacked(token0, token1) */\n      mload(0x40)\n      not(sub(shl(0x60, 0x01), 0x01))\n        /* \"#utility.yul\":3084:3086   */\n      0x60\n        /* \"#utility.yul\":3080:3095   */\n      dup5\n      dup2\n      shl\n        /* \"#utility.yul\":3076:3100   */\n      dup3\n      and\n        /* \"contracts/TimbSwapFactory.sol\":7306:7338  abi.encodePacked(token0, token1) */\n      0x20\n      dup5\n      add\n        /* \"#utility.yul\":3064:3101   */\n      mstore\n        /* \"#utility.yul\":3135:3150   */\n      dup4\n      swap1\n      shl\n        /* \"#utility.yul\":3131:3155   */\n      and\n        /* \"#utility.yul\":3117:3129   */\n      0x34\n      dup3\n      add\n        /* \"#utility.yul\":3110:3156   */\n      mstore\n        /* \"contracts/TimbSwapFactory.sol\":7281:7293  bytes32 salt */\n      0x00\n      swap1\n        /* \"#utility.yul\":3172:3184   */\n      0x48\n      add\n        /* \"contracts/TimbSwapFactory.sol\":7306:7338  abi.encodePacked(token0, token1) */\n      mload(0x40)\n      0x20\n      dup2\n      dup4\n      sub\n      sub\n      dup2\n      mstore\n      swap1\n      0x40\n      mstore\n        /* \"contracts/TimbSwapFactory.sol\":7296:7339  keccak256(abi.encodePacked(token0, token1)) */\n      dup1\n      mload\n      swap1\n      0x20\n      add\n      keccak256\n        /* \"contracts/TimbSwapFactory.sol\":7281:7339  bytes32 salt = keccak256(abi.encodePacked(token0, token1)) */\n      swap1\n      pop\n        /* \"contracts/TimbSwapFactory.sol\":7684:7725  _computePairAddress(token0, token1, salt) */\n      tag_197\n        /* \"contracts/TimbSwapFactory.sol\":7704:7710  token0 */\n      dup4\n        /* \"contracts/TimbSwapFactory.sol\":7712:7718  token1 */\n      dup4\n        /* \"contracts/TimbSwapFactory.sol\":7720:7724  salt */\n      dup4\n        /* \"contracts/TimbSwapFactory.sol\":7684:7703  _computePairAddress */\n      tag_198\n        /* \"contracts/TimbSwapFactory.sol\":7684:7725  _computePairAddress(token0, token1, salt) */\n      jump\t// in\n    tag_197:\n      sub(shl(0xa0, 0x01), 0x01)\n        /* \"contracts/TimbSwapFactory.sol\":7822:7837  getPair[token0] */\n      dup1\n      dup6\n      and\n      0x00\n      dup2\n      dup2\n      mstore\n        /* \"contracts/TimbSwapFactory.sol\":7822:7829  getPair */\n      0x04\n        /* \"contracts/TimbSwapFactory.sol\":7822:7837  getPair[token0] */\n      0x20\n      dup2\n      dup2\n      mstore\n      0x40\n      dup1\n      dup5\n      keccak256\n        /* \"contracts/TimbSwapFactory.sol\":7822:7845  getPair[token0][token1] */\n      dup10\n      dup8\n      and\n      dup1\n      dup7\n      mstore\n      swap1\n      dup4\n      mstore\n      dup2\n      dup6\n      keccak256\n        /* \"contracts/TimbSwapFactory.sol\":7822:7852  getPair[token0][token1] = pair */\n      dup1\n      sload\n      swap8\n      dup10\n      and\n      not(sub(shl(0xa0, 0x01), 0x01))\n      swap9\n      dup10\n      and\n      dup2\n      or\n      swap1\n      swap2\n      sstore\n        /* \"contracts/TimbSwapFactory.sol\":7862:7877  getPair[token1] */\n      swap4\n      dup4\n      mstore\n      dup2\n      dup6\n      keccak256\n        /* \"contracts/TimbSwapFactory.sol\":7862:7885  getPair[token1][token0] */\n      dup7\n      dup7\n      mstore\n      swap1\n      swap3\n      mstore\n      dup4\n      keccak256\n        /* \"contracts/TimbSwapFactory.sol\":7862:7892  getPair[token1][token0] = pair */\n      dup1\n      sload\n      dup7\n      and\n      dup4\n      or\n      swap1\n      sstore\n        /* \"contracts/TimbSwapFactory.sol\":7937:7945  allPairs */\n      0x05\n        /* \"contracts/TimbSwapFactory.sol\":7937:7956  allPairs.push(pair) */\n      dup1\n      sload\n        /* \"contracts/TimbSwapFactory.sol\":7822:7852  getPair[token0][token1] = pair */\n      0x01\n        /* \"contracts/TimbSwapFactory.sol\":7937:7956  allPairs.push(pair) */\n      dup2\n      dup2\n      add\n      dup4\n      sstore\n      swap5\n      dup3\n      swap1\n      mstore\n      0x036b6384b5eca791c62761152d0c79bb0604c104a5fb6f4eb0703f3154bb3db0\n      add\n      dup1\n      sload\n      swap1\n      swap7\n      and\n      swap1\n      swap3\n      or\n      swap1\n      swap5\n      sstore\n        /* \"contracts/TimbSwapFactory.sol\":8006:8021  allPairs.length */\n      sload\n        /* \"contracts/TimbSwapFactory.sol\":7677:7725  pair = _computePairAddress(token0, token1, salt) */\n      swap4\n      swap8\n      pop\n        /* \"contracts/TimbSwapFactory.sol\":7822:7845  getPair[token0][token1] */\n      swap2\n      swap3\n        /* \"contracts/TimbSwapFactory.sol\":7822:7837  getPair[token0] */\n      swap1\n      swap2\n        /* \"contracts/TimbSwapFactory.sol\":7972:8026  PairCreated(token0, token1, pair, allPairs.length - 1) */\n      0x0d3648bd0f6ba80134a33ba9275ac585d9d315f0ad8355cddefde31afa28d0e9\n      swap2\n        /* \"contracts/TimbSwapFactory.sol\":7677:7725  pair = _computePairAddress(token0, token1, salt) */\n      dup9\n      swap2\n        /* \"contracts/TimbSwapFactory.sol\":8006:8025  allPairs.length - 1 */\n      tag_200\n      swap2\n      tag_201\n      jump\t// in\n    tag_200:\n        /* \"contracts/TimbSwapFactory.sol\":7972:8026  PairCreated(token0, token1, pair, allPairs.length - 1) */\n      0x40\n      dup1\n      mload\n      sub(shl(0xa0, 0x01), 0x01)\n        /* \"#utility.yul\":3617:3649   */\n      swap1\n      swap4\n      and\n        /* \"#utility.yul\":3599:3650   */\n      dup4\n      mstore\n        /* \"#utility.yul\":3681:3683   */\n      0x20\n        /* \"#utility.yul\":3666:3684   */\n      dup4\n      add\n        /* \"#utility.yul\":3659:3693   */\n      swap2\n      swap1\n      swap2\n      mstore\n        /* \"#utility.yul\":3572:3590   */\n      add\n        /* \"contracts/TimbSwapFactory.sol\":7972:8026  PairCreated(token0, token1, pair, allPairs.length - 1) */\n      mload(0x40)\n      dup1\n      swap2\n      sub\n      swap1\n      log3\n        /* \"contracts/TimbSwapFactory.sol\":6721:8033  {... */\n      pop\n      pop\n      pop\n        /* \"@openzeppelin/contracts/utils/ReentrancyGuard.sol\":3065:3085  _nonReentrantAfter() */\n      tag_170\n        /* \"@openzeppelin/contracts/utils/ReentrancyGuard.sol\":2365:2366  1 */\n      0x01\n        /* \"@openzeppelin/contracts/utils/ReentrancyGuard.sol\":1505:1571  0x9b779b17422d0df92223018b32b4d1fa46e071723d6817e2486d003becc55f00 */\n      0x9b779b17422d0df92223018b32b4d1fa46e071723d6817e2486d003becc55f00\n        /* \"@openzeppelin/contracts/utils/ReentrancyGuard.sol\":3972:4034  _reentrancyGuardStorageSlot().getUint256Slot().value = ENTERED */\n      sstore\n        /* \"@openzeppelin/contracts/utils/ReentrancyGuard.sol\":3749:4041  function _nonReentrantBefore() private {... */\n      jump\n        /* \"@openzeppelin/contracts/access/Ownable.sol\":2543:2758  function transferOwnership(address newOwner) public virtual onlyOwner {... */\n    tag_131:\n        /* \"@openzeppelin/contracts/access/Ownable.sol\":1531:1544  _checkOwner() */\n      tag_207\n        /* \"@openzeppelin/contracts/access/Ownable.sol\":1531:1542  _checkOwner */\n      tag_142\n        /* \"@openzeppelin/contracts/access/Ownable.sol\":1531:1544  _checkOwner() */\n      jump\t// in\n    tag_207:\n      sub(shl(0xa0, 0x01), 0x01)\n        /* \"@openzeppelin/contracts/access/Ownable.sol\":2627:2649  newOwner == address(0) */\n      dup2\n      and\n        /* \"@openzeppelin/contracts/access/Ownable.sol\":2623:2714  if (newOwner == address(0)) {... */\n      tag_209\n      jumpi\n        /* \"@openzeppelin/contracts/access/Ownable.sol\":2672:2703  OwnableInvalidOwner(address(0)) */\n      mload(0x40)\n      shl(0xe0, 0x1e4fbdf7)\n      dup2\n      mstore\n        /* \"@openzeppelin/contracts/access/Ownable.sol\":2700:2701  0 */\n      0x00\n        /* \"@openzeppelin/contracts/access/Ownable.sol\":2672:2703  OwnableInvalidOwner(address(0)) */\n      0x04\n      dup3\n      add\n        /* \"#utility.yul\":160:211   */\n      mstore\n        /* \"#utility.yul\":133:151   */\n      0x24\n      add\n        /* \"@openzeppelin/contracts/access/Ownable.sol\":2672:2703  OwnableInvalidOwner(address(0)) */\n      tag_194\n        /* \"#utility.yul\":14:217   */\n      jump\n        /* \"@openzeppelin/contracts/access/Ownable.sol\":2623:2714  if (newOwner == address(0)) {... */\n    tag_209:\n        /* \"@openzeppelin/contracts/access/Ownable.sol\":2723:2751  _transferOwnership(newOwner) */\n      tag_211\n        /* \"@openzeppelin/contracts/access/Ownable.sol\":2742:2750  newOwner */\n      dup2\n        /* \"@openzeppelin/contracts/access/Ownable.sol\":2723:2741  _transferOwnership */\n      tag_151\n        /* \"@openzeppelin/contracts/access/Ownable.sol\":2723:2751  _transferOwnership(newOwner) */\n      jump\t// in\n    tag_211:\n        /* \"@openzeppelin/contracts/access/Ownable.sol\":2543:2758  function transferOwnership(address newOwner) public virtual onlyOwner {... */\n      pop\n      jump\t// out\n        /* \"contracts/TimbSwapFactory.sol\":9088:9270  function setFeeTo(address _feeTo) external onlyOwner {... */\n    tag_134:\n        /* \"@openzeppelin/contracts/access/Ownable.sol\":1531:1544  _checkOwner() */\n      tag_213\n        /* \"@openzeppelin/contracts/access/Ownable.sol\":1531:1542  _checkOwner */\n      tag_142\n        /* \"@openzeppelin/contracts/access/Ownable.sol\":1531:1544  _checkOwner() */\n      jump\t// in\n    tag_213:\n      sub(shl(0xa0, 0x01), 0x01)\n        /* \"contracts/TimbSwapFactory.sol\":9155:9175  _feeTo == address(0) */\n      dup2\n      and\n        /* \"contracts/TimbSwapFactory.sol\":9151:9197  if (_feeTo == address(0)) revert ZeroAddress() */\n      tag_215\n      jumpi\n        /* \"contracts/TimbSwapFactory.sol\":9184:9197  ZeroAddress() */\n      mload(0x40)\n      shl(0xe0, 0xd92e233d)\n      dup2\n      mstore\n      0x04\n      add\n      mload(0x40)\n      dup1\n      swap2\n      sub\n      swap1\n      revert\n        /* \"contracts/TimbSwapFactory.sol\":9151:9197  if (_feeTo == address(0)) revert ZeroAddress() */\n    tag_215:\n        /* \"contracts/TimbSwapFactory.sol\":9225:9230  feeTo */\n      sload(0x01)\n        /* \"contracts/TimbSwapFactory.sol\":9212:9239  FeeToUpdated(feeTo, _feeTo) */\n      mload(0x40)\n      sub(shl(0xa0, 0x01), 0x01)\n      dup1\n      dup5\n      and\n      swap3\n        /* \"contracts/TimbSwapFactory.sol\":9225:9230  feeTo */\n      and\n      swap1\n        /* \"contracts/TimbSwapFactory.sol\":9212:9239  FeeToUpdated(feeTo, _feeTo) */\n      0x8f93286d6f131e956d1aa672d3ecdc817f24efc20b223b0de5d591f454edc347\n      swap1\n        /* \"contracts/TimbSwapFactory.sol\":9225:9230  feeTo */\n      0x00\n      swap1\n        /* \"contracts/TimbSwapFactory.sol\":9212:9239  FeeToUpdated(feeTo, _feeTo) */\n      log3\n        /* \"contracts/TimbSwapFactory.sol\":9249:9254  feeTo */\n      0x01\n        /* \"contracts/TimbSwapFactory.sol\":9249:9263  feeTo = _feeTo */\n      dup1\n      sload\n      not(sub(shl(0xa0, 0x01), 0x01))\n      and\n      sub(shl(0xa0, 0x01), 0x01)\n      swap3\n      swap1\n      swap3\n      and\n      swap2\n      swap1\n      swap2\n      or\n      swap1\n      sstore\n        /* \"contracts/TimbSwapFactory.sol\":9088:9270  function setFeeTo(address _feeTo) external onlyOwner {... */\n      jump\t// out\n        /* \"@openzeppelin/contracts/access/Ownable.sol\":1796:1958  function _checkOwner() internal view virtual {... */\n    tag_142:\n        /* \"@openzeppelin/contracts/access/Ownable.sol\":1684:1691  address */\n      0x00\n        /* \"@openzeppelin/contracts/access/Ownable.sol\":1710:1716  _owner */\n      sload\n      sub(shl(0xa0, 0x01), 0x01)\n      and\n        /* \"@openzeppelin/contracts/utils/Context.sol\":735:745  msg.sender */\n      caller\n        /* \"@openzeppelin/contracts/access/Ownable.sol\":1855:1878  owner() != _msgSender() */\n      eq\n        /* \"@openzeppelin/contracts/access/Ownable.sol\":1851:1952  if (owner() != _msgSender()) {... */\n      tag_150\n      jumpi\n        /* \"@openzeppelin/contracts/access/Ownable.sol\":1901:1941  OwnableUnauthorizedAccount(_msgSender()) */\n      mload(0x40)\n      shl(0xe0, 0x118cdaa7)\n      dup2\n      mstore\n        /* \"@openzeppelin/contracts/utils/Context.sol\":735:745  msg.sender */\n      caller\n        /* \"@openzeppelin/contracts/access/Ownable.sol\":1901:1941  OwnableUnauthorizedAccount(_msgSender()) */\n      0x04\n      dup3\n      add\n        /* \"#utility.yul\":160:211   */\n      mstore\n        /* \"#utility.yul\":133:151   */\n      0x24\n      add\n        /* \"@openzeppelin/contracts/access/Ownable.sol\":1901:1941  OwnableUnauthorizedAccount(_msgSender()) */\n      tag_194\n        /* \"#utility.yul\":14:217   */\n      jump\n        /* \"@openzeppelin/contracts/access/Ownable.sol\":2912:3099  function _transferOwnership(address newOwner) internal virtual {... */\n    tag_151:\n        /* \"@openzeppelin/contracts/access/Ownable.sol\":2985:3001  address oldOwner */\n      0x00\n        /* \"@openzeppelin/contracts/access/Ownable.sol\":3004:3010  _owner */\n      dup1\n      sload\n      sub(shl(0xa0, 0x01), 0x01)\n        /* \"@openzeppelin/contracts/access/Ownable.sol\":3020:3037  _owner = newOwner */\n      dup4\n      dup2\n      and\n      not(sub(shl(0xa0, 0x01), 0x01))\n      dup4\n      and\n      dup2\n      or\n      dup5\n      sstore\n        /* \"@openzeppelin/contracts/access/Ownable.sol\":3052:3092  OwnershipTransferred(oldOwner, newOwner) */\n      mload(0x40)\n        /* \"@openzeppelin/contracts/access/Ownable.sol\":3004:3010  _owner */\n      swap2\n      swap1\n      swap3\n      and\n      swap3\n      dup4\n      swap2\n        /* \"@openzeppelin/contracts/access/Ownable.sol\":3052:3092  OwnershipTransferred(oldOwner, newOwner) */\n      0x8be0079c531659141344cd1fd0a4f28419497f9722a3daafe3b4186f6b6457e0\n      swap2\n        /* \"@openzeppelin/contracts/access/Ownable.sol\":2985:3001  address oldOwner */\n      swap1\n        /* \"@openzeppelin/contracts/access/Ownable.sol\":3052:3092  OwnershipTransferred(oldOwner, newOwner) */\n      log3\n        /* \"@openzeppelin/contracts/access/Ownable.sol\":2975:3099  {... */\n      pop\n        /* \"@openzeppelin/contracts/access/Ownable.sol\":2912:3099  function _transferOwnership(address newOwner) internal virtual {... */\n      pop\n      jump\t// out\n        /* \"@openzeppelin/contracts/utils/ReentrancyGuard.sol\":3749:4041  function _nonReentrantBefore() private {... */\n    tag_184:\n        /* \"@openzeppelin/contracts/utils/ReentrancyGuard.sol\":3872:3897  _nonReentrantBeforeView() */\n      tag_225\n        /* \"@openzeppelin/contracts/utils/ReentrancyGuard.sol\":3872:3895  _nonReentrantBeforeView */\n      tag_226\n        /* \"@openzeppelin/contracts/utils/ReentrancyGuard.sol\":3872:3897  _nonReentrantBeforeView() */\n      jump\t// in\n    tag_225:\n        /* \"@openzeppelin/contracts/utils/ReentrancyGuard.sol\":2407:2408  2 */\n      0x02\n        /* \"@openzeppelin/contracts/utils/ReentrancyGuard.sol\":1505:1571  0x9b779b17422d0df92223018b32b4d1fa46e071723d6817e2486d003becc55f00 */\n      0x9b779b17422d0df92223018b32b4d1fa46e071723d6817e2486d003becc55f00\n        /* \"@openzeppelin/contracts/utils/ReentrancyGuard.sol\":3972:4034  _reentrancyGuardStorageSlot().getUint256Slot().value = ENTERED */\n      sstore\n        /* \"@openzeppelin/contracts/utils/ReentrancyGuard.sol\":3749:4041  function _nonReentrantBefore() private {... */\n      jump\t// out\n        /* \"contracts/TimbSwapFactory.sol\":8236:8818  function _computePairAddress(... */\n    tag_198:\n        /* \"contracts/TimbSwapFactory.sol\":8749:8796  abi.encodePacked(token0, token1, block.chainid) */\n      mload(0x40)\n      not(sub(shl(0x60, 0x01), 0x01))\n        /* \"#utility.yul\":3959:3961   */\n      0x60\n        /* \"#utility.yul\":3955:3970   */\n      dup6\n      dup2\n      shl\n        /* \"#utility.yul\":3951:3975   */\n      dup3\n      and\n        /* \"contracts/TimbSwapFactory.sol\":8749:8796  abi.encodePacked(token0, token1, block.chainid) */\n      0x20\n      dup5\n      add\n        /* \"#utility.yul\":3939:3976   */\n      mstore\n        /* \"#utility.yul\":4010:4025   */\n      dup5\n      swap1\n      shl\n        /* \"#utility.yul\":4006:4030   */\n      and\n        /* \"#utility.yul\":3992:4004   */\n      0x34\n      dup3\n      add\n        /* \"#utility.yul\":3985:4031   */\n      mstore\n        /* \"contracts/TimbSwapFactory.sol\":8782:8795  block.chainid */\n      chainid\n        /* \"#utility.yul\":4047:4059   */\n      0x48\n      dup3\n      add\n        /* \"#utility.yul\":4040:4068   */\n      mstore\n        /* \"contracts/TimbSwapFactory.sol\":8364:8371  address */\n      0x00\n      swap1\n      not(sub(shl(0xf8, 0x01), 0x01))\n        /* \"contracts/TimbSwapFactory.sol\":8668:8680  bytes1(0xff) */\n      swap1\n        /* \"contracts/TimbSwapFactory.sol\":8702:8706  this */\n      address\n      swap1\n        /* \"contracts/TimbSwapFactory.sol\":8721:8725  salt */\n      dup5\n      swap1\n        /* \"#utility.yul\":4084:4096   */\n      0x68\n      add\n        /* \"contracts/TimbSwapFactory.sol\":8749:8796  abi.encodePacked(token0, token1, block.chainid) */\n      mload(0x40)\n      0x20\n      dup2\n      dup4\n      sub\n      sub\n      dup2\n      mstore\n      swap1\n      0x40\n      mstore\n        /* \"contracts/TimbSwapFactory.sol\":8739:8797  keccak256(abi.encodePacked(token0, token1, block.chainid)) */\n      dup1\n      mload\n      swap1\n      0x20\n      add\n      keccak256\n        /* \"contracts/TimbSwapFactory.sol\":8638:8807  abi.encodePacked(... */\n      add(0x20, mload(0x40))\n      tag_234\n      swap5\n      swap4\n      swap3\n      swap2\n      swap1\n      not(sub(shl(0xf8, 0x01), 0x01))\n        /* \"#utility.yul\":4330:4356   */\n      swap5\n      swap1\n      swap5\n      and\n        /* \"#utility.yul\":4318:4357   */\n      dup5\n      mstore\n        /* \"#utility.yul\":4394:4396   */\n      0x60\n        /* \"#utility.yul\":4390:4405   */\n      swap3\n      swap1\n      swap3\n      shl\n      not(sub(shl(0x60, 0x01), 0x01))\n        /* \"#utility.yul\":4386:4439   */\n      and\n        /* \"#utility.yul\":4382:4383   */\n      0x01\n        /* \"#utility.yul\":4373:4384   */\n      dup5\n      add\n        /* \"#utility.yul\":4366:4440   */\n      mstore\n        /* \"#utility.yul\":4465:4467   */\n      0x15\n        /* \"#utility.yul\":4456:4468   */\n      dup4\n      add\n        /* \"#utility.yul\":4449:4477   */\n      mstore\n        /* \"#utility.yul\":4502:4504   */\n      0x35\n        /* \"#utility.yul\":4493:4505   */\n      dup3\n      add\n        /* \"#utility.yul\":4486:4514   */\n      mstore\n        /* \"#utility.yul\":4539:4541   */\n      0x55\n        /* \"#utility.yul\":4530:4542   */\n      add\n      swap1\n        /* \"#utility.yul\":4107:4548   */\n      jump\n        /* \"contracts/TimbSwapFactory.sol\":8638:8807  abi.encodePacked(... */\n    tag_234:\n      0x40\n      dup1\n      mload\n      not(0x1f)\n      dup2\n      dup5\n      sub\n      add\n      dup2\n      mstore\n      swap2\n      swap1\n      mstore\n        /* \"contracts/TimbSwapFactory.sol\":8628:8808  keccak256(abi.encodePacked(... */\n      dup1\n      mload\n        /* \"contracts/TimbSwapFactory.sol\":8638:8807  abi.encodePacked(... */\n      0x20\n        /* \"contracts/TimbSwapFactory.sol\":8628:8808  keccak256(abi.encodePacked(... */\n      swap1\n      swap2\n      add\n      keccak256\n      swap5\n        /* \"contracts/TimbSwapFactory.sol\":8236:8818  function _computePairAddress(... */\n      swap4\n      pop\n      pop\n      pop\n      pop\n      jump\t// out\n        /* \"@openzeppelin/contracts/utils/ReentrancyGuard.sol\":3586:3743  function _nonReentrantBeforeView() private view {... */\n    tag_226:\n        /* \"@openzeppelin/contracts/utils/ReentrancyGuard.sol\":1505:1571  0x9b779b17422d0df92223018b32b4d1fa46e071723d6817e2486d003becc55f00 */\n      0x9b779b17422d0df92223018b32b4d1fa46e071723d6817e2486d003becc55f00\n        /* \"@openzeppelin/contracts/utils/ReentrancyGuard.sol\":4560:4612  _reentrancyGuardStorageSlot().getUint256Slot().value */\n      sload\n        /* \"@openzeppelin/contracts/utils/ReentrancyGuard.sol\":2407:2408  2 */\n      0x02\n        /* \"@openzeppelin/contracts/utils/ReentrancyGuard.sol\":4560:4623  _reentrancyGuardStorageSlot().getUint256Slot().value == ENTERED */\n      sub\n        /* \"@openzeppelin/contracts/utils/ReentrancyGuard.sol\":3644:3737  if (_reentrancyGuardEntered()) {... */\n      tag_150\n      jumpi\n        /* \"@openzeppelin/contracts/utils/ReentrancyGuard.sol\":3696:3726  ReentrancyGuardReentrantCall() */\n      mload(0x40)\n      shl(0xe0, 0x3ee5aeb5)\n      dup2\n      mstore\n      0x04\n      add\n      mload(0x40)\n      dup1\n      swap2\n      sub\n      swap1\n      revert\n        /* \"#utility.yul\":222:402   */\n    tag_47:\n        /* \"#utility.yul\":281:287   */\n      0x00\n        /* \"#utility.yul\":334:336   */\n      0x20\n        /* \"#utility.yul\":322:331   */\n      dup3\n        /* \"#utility.yul\":313:320   */\n      dup5\n        /* \"#utility.yul\":309:332   */\n      sub\n        /* \"#utility.yul\":305:337   */\n      slt\n        /* \"#utility.yul\":302:354   */\n      iszero\n      tag_254\n      jumpi\n        /* \"#utility.yul\":350:351   */\n      0x00\n        /* \"#utility.yul\":347:348   */\n      dup1\n        /* \"#utility.yul\":340:352   */\n      revert\n        /* \"#utility.yul\":302:354   */\n    tag_254:\n      pop\n        /* \"#utility.yul\":373:396   */\n      calldataload\n      swap2\n        /* \"#utility.yul\":222:402   */\n      swap1\n      pop\n      jump\t// out\n        /* \"#utility.yul\":407:580   */\n    tag_249:\n        /* \"#utility.yul\":475:495   */\n      dup1\n      calldataload\n      sub(shl(0xa0, 0x01), 0x01)\n        /* \"#utility.yul\":524:555   */\n      dup2\n      and\n        /* \"#utility.yul\":514:556   */\n      dup2\n      eq\n        /* \"#utility.yul\":504:574   */\n      tag_256\n      jumpi\n        /* \"#utility.yul\":570:571   */\n      0x00\n        /* \"#utility.yul\":567:568   */\n      dup1\n        /* \"#utility.yul\":560:572   */\n      revert\n        /* \"#utility.yul\":504:574   */\n    tag_256:\n        /* \"#utility.yul\":407:580   */\n      swap2\n      swap1\n      pop\n      jump\t// out\n        /* \"#utility.yul\":585:771   */\n    tag_54:\n        /* \"#utility.yul\":644:650   */\n      0x00\n        /* \"#utility.yul\":697:699   */\n      0x20\n        /* \"#utility.yul\":685:694   */\n      dup3\n        /* \"#utility.yul\":676:683   */\n      dup5\n        /* \"#utility.yul\":672:695   */\n      sub\n        /* \"#utility.yul\":668:700   */\n      slt\n        /* \"#utility.yul\":665:717   */\n      iszero\n      tag_258\n      jumpi\n        /* \"#utility.yul\":713:714   */\n      0x00\n        /* \"#utility.yul\":710:711   */\n      dup1\n        /* \"#utility.yul\":703:715   */\n      revert\n        /* \"#utility.yul\":665:717   */\n    tag_258:\n        /* \"#utility.yul\":736:765   */\n      tag_259\n        /* \"#utility.yul\":755:764   */\n      dup3\n        /* \"#utility.yul\":736:765   */\n      tag_249\n      jump\t// in\n    tag_259:\n        /* \"#utility.yul\":726:765   */\n      swap4\n        /* \"#utility.yul\":585:771   */\n      swap3\n      pop\n      pop\n      pop\n      jump\t// out\n        /* \"#utility.yul\":1835:1995   */\n    tag_250:\n        /* \"#utility.yul\":1900:1920   */\n      dup1\n      calldataload\n        /* \"#utility.yul\":1956:1969   */\n      dup1\n      iszero\n        /* \"#utility.yul\":1949:1970   */\n      iszero\n        /* \"#utility.yul\":1939:1971   */\n      dup2\n      eq\n        /* \"#utility.yul\":1929:1989   */\n      tag_256\n      jumpi\n        /* \"#utility.yul\":1985:1986   */\n      0x00\n        /* \"#utility.yul\":1982:1983   */\n      dup1\n        /* \"#utility.yul\":1975:1987   */\n      revert\n        /* \"#utility.yul\":2000:2328   */\n    tag_96:\n        /* \"#utility.yul\":2074:2080   */\n      0x00\n        /* \"#utility.yul\":2082:2088   */\n      dup1\n        /* \"#utility.yul\":2090:2096   */\n      0x00\n        /* \"#utility.yul\":2143:2145   */\n      0x60\n        /* \"#utility.yul\":2131:2140   */\n      dup5\n        /* \"#utility.yul\":2122:2129   */\n      dup7\n        /* \"#utility.yul\":2118:2141   */\n      sub\n        /* \"#utility.yul\":2114:2146   */\n      slt\n        /* \"#utility.yul\":2111:2163   */\n      iszero\n      tag_267\n      jumpi\n        /* \"#utility.yul\":2159:2160   */\n      0x00\n        /* \"#utility.yul\":2156:2157   */\n      dup1\n        /* \"#utility.yul\":2149:2161   */\n      revert\n        /* \"#utility.yul\":2111:2163   */\n    tag_267:\n        /* \"#utility.yul\":2182:2211   */\n      tag_268\n        /* \"#utility.yul\":2201:2210   */\n      dup5\n        /* \"#utility.yul\":2182:2211   */\n      tag_249\n      jump\t// in\n    tag_268:\n        /* \"#utility.yul\":2172:2211   */\n      swap3\n      pop\n        /* \"#utility.yul\":2230:2268   */\n      tag_269\n        /* \"#utility.yul\":2264:2266   */\n      0x20\n        /* \"#utility.yul\":2253:2262   */\n      dup6\n        /* \"#utility.yul\":2249:2267   */\n      add\n        /* \"#utility.yul\":2230:2268   */\n      tag_249\n      jump\t// in\n    tag_269:\n        /* \"#utility.yul\":2220:2268   */\n      swap2\n      pop\n        /* \"#utility.yul\":2287:2322   */\n      tag_270\n        /* \"#utility.yul\":2318:2320   */\n      0x40\n        /* \"#utility.yul\":2307:2316   */\n      dup6\n        /* \"#utility.yul\":2303:2321   */\n      add\n        /* \"#utility.yul\":2287:2322   */\n      tag_250\n      jump\t// in\n    tag_270:\n        /* \"#utility.yul\":2277:2322   */\n      swap1\n      pop\n        /* \"#utility.yul\":2000:2328   */\n      swap3\n      pop\n      swap3\n      pop\n      swap3\n      jump\t// out\n        /* \"#utility.yul\":2333:2593   */\n    tag_104:\n        /* \"#utility.yul\":2401:2407   */\n      0x00\n        /* \"#utility.yul\":2409:2415   */\n      dup1\n        /* \"#utility.yul\":2462:2464   */\n      0x40\n        /* \"#utility.yul\":2450:2459   */\n      dup4\n        /* \"#utility.yul\":2441:2448   */\n      dup6\n        /* \"#utility.yul\":2437:2460   */\n      sub\n        /* \"#utility.yul\":2433:2465   */\n      slt\n        /* \"#utility.yul\":2430:2482   */\n      iszero\n      tag_272\n      jumpi\n        /* \"#utility.yul\":2478:2479   */\n      0x00\n        /* \"#utility.yul\":2475:2476   */\n      dup1\n        /* \"#utility.yul\":2468:2480   */\n      revert\n        /* \"#utility.yul\":2430:2482   */\n    tag_272:\n        /* \"#utility.yul\":2501:2530   */\n      tag_273\n        /* \"#utility.yul\":2520:2529   */\n      dup4\n        /* \"#utility.yul\":2501:2530   */\n      tag_249\n      jump\t// in\n    tag_273:\n        /* \"#utility.yul\":2491:2530   */\n      swap2\n      pop\n        /* \"#utility.yul\":2549:2587   */\n      tag_274\n        /* \"#utility.yul\":2583:2585   */\n      0x20\n        /* \"#utility.yul\":2572:2581   */\n      dup5\n        /* \"#utility.yul\":2568:2586   */\n      add\n        /* \"#utility.yul\":2549:2587   */\n      tag_249\n      jump\t// in\n    tag_274:\n        /* \"#utility.yul\":2539:2587   */\n      swap1\n      pop\n        /* \"#utility.yul\":2333:2593   */\n      swap3\n      pop\n      swap3\n      swap1\n      pop\n      jump\t// out\n        /* \"#utility.yul\":2598:2852   */\n    tag_109:\n        /* \"#utility.yul\":2663:2669   */\n      0x00\n        /* \"#utility.yul\":2671:2677   */\n      dup1\n        /* \"#utility.yul\":2724:2726   */\n      0x40\n        /* \"#utility.yul\":2712:2721   */\n      dup4\n        /* \"#utility.yul\":2703:2710   */\n      dup6\n        /* \"#utility.yul\":2699:2722   */\n      sub\n        /* \"#utility.yul\":2695:2727   */\n      slt\n        /* \"#utility.yul\":2692:2744   */\n      iszero\n      tag_276\n      jumpi\n        /* \"#utility.yul\":2740:2741   */\n      0x00\n        /* \"#utility.yul\":2737:2738   */\n      dup1\n        /* \"#utility.yul\":2730:2742   */\n      revert\n        /* \"#utility.yul\":2692:2744   */\n    tag_276:\n        /* \"#utility.yul\":2763:2792   */\n      tag_277\n        /* \"#utility.yul\":2782:2791   */\n      dup4\n        /* \"#utility.yul\":2763:2792   */\n      tag_249\n      jump\t// in\n    tag_277:\n        /* \"#utility.yul\":2753:2792   */\n      swap2\n      pop\n        /* \"#utility.yul\":2811:2846   */\n      tag_274\n        /* \"#utility.yul\":2842:2844   */\n      0x20\n        /* \"#utility.yul\":2831:2840   */\n      dup5\n        /* \"#utility.yul\":2827:2845   */\n      add\n        /* \"#utility.yul\":2811:2846   */\n      tag_250\n      jump\t// in\n        /* \"#utility.yul\":3195:3420   */\n    tag_201:\n        /* \"#utility.yul\":3262:3271   */\n      dup2\n      dup2\n      sub\n        /* \"#utility.yul\":3283:3294   */\n      dup2\n      dup2\n      gt\n        /* \"#utility.yul\":3280:3414   */\n      iszero\n      tag_170\n      jumpi\n        /* \"#utility.yul\":3336:3346   */\n      0x4e487b71\n        /* \"#utility.yul\":3331:3334   */\n      0xe0\n        /* \"#utility.yul\":3327:3347   */\n      shl\n        /* \"#utility.yul\":3324:3325   */\n      0x00\n        /* \"#utility.yul\":3317:3348   */\n      mstore\n        /* \"#utility.yul\":3371:3375   */\n      0x11\n        /* \"#utility.yul\":3368:3369   */\n      0x04\n        /* \"#utility.yul\":3361:3376   */\n      mstore\n        /* \"#utility.yul\":3399:3403   */\n      0x24\n        /* \"#utility.yul\":3396:3397   */\n      0x00\n        /* \"#utility.yul\":3389:3404   */\n      revert\n\n    auxdata: 0xa2646970667358221220d0e6297d23a3fd483f88cab750fdc7e287fdc32bbf9941f86389e880784e7ed364736f6c63430008180033\n}\n",
				"bytecode": {
					"linkReferences": {},
					"object": "608060405234801561001057600080fd5b5060405161103038038061103083398101604081905261002f91610149565b338061005557604051631e4fbdf760e01b81526000600482015260240160405180910390fd5b61005e816100f9565b5060017f9b779b17422d0df92223018b32b4d1fa46e071723d6817e2486d003becc55f00556001600160a01b0381166100aa5760405163d92e233d60e01b815260040160405180910390fd5b600180546001600160a01b0319166001600160a01b0383169081179091556040516000907f8f93286d6f131e956d1aa672d3ecdc817f24efc20b223b0de5d591f454edc347908290a350610179565b600080546001600160a01b038381166001600160a01b0319831681178455604051919092169283917f8be0079c531659141344cd1fd0a4f28419497f9722a3daafe3b4186f6b6457e09190a35050565b60006020828403121561015b57600080fd5b81516001600160a01b038116811461017257600080fd5b9392505050565b610ea8806101886000396000f3fe608060405234801561001057600080fd5b50600436106101c45760003560e01c8063a2092a32116100f9578063c0d7865511610097578063e6a4390511610071578063e6a439051461042b578063f2fde38b1461045f578063f46901ed14610472578063f887ea401461048557600080fd5b8063c0d78655146103e2578063c49823b2146103f5578063c9c653961461041857600080fd5b8063ae416e27116100d3578063ae416e271461038b578063b4f69a2f146103b4578063ba5d27d1146103c7578063be378228146103da57600080fd5b8063a2092a321461035d578063a525821014610370578063a97ead831461037857600080fd5b80635fbbc0d2116101665780637b3fa96d116101405780637b3fa96d146102c35780638456cb59146102e657806385cfef96146102ee5780638da5cb5b1461034c57600080fd5b80635fbbc0d21461028b5780636f28507c146102b3578063715018a6146102bb57600080fd5b80633f4ba83a116101a25780633f4ba83a1461021f57806355974c4b14610229578063574f2ba3146102655780635c975abb1461027757600080fd5b8063017e7e58146101c95780630e31648f146101f95780631e3dd18b1461020c575b600080fd5b6001546101dc906001600160a01b031681565b6040516001600160a01b0390911681526020015b60405180910390f35b6003546101dc906001600160a01b031681565b6101dc61021a366004610d4a565b610498565b6102276104c2565b005b610255610237366004610d7f565b6001600160a01b031660009081526006602052604090205460ff1690565b60405190151581526020016101f0565b6005545b6040519081526020016101f0565b60035461025590600160a01b900460ff1681565b60408051601e81526019602082015260059181019190915261271060608201526080016101f0565b610269601e81565b610227610504565b6102556102d1366004610d7f565b60076020526000908152604090205460ff1681565b610227610518565b61032d6102fc366004610d7f565b6001600160a01b0390811660009081526007602090815260408083205460089092529091205460ff90911692911690565b6040805192151583526001600160a01b039091166020830152016101f0565b6000546001600160a01b03166101dc565b61022761036b366004610d7f565b610560565b610269601981565b610227610386366004610db1565b6105d9565b6101dc610399366004610d7f565b6008602052600090815260409020546001600160a01b031681565b6101dc6103c2366004610df4565b6106db565b6102276103d5366004610e27565b610735565b610269600581565b6102276103f0366004610d7f565b6107c3565b610255610403366004610d7f565b60066020526000908152604090205460ff1681565b6101dc610426366004610df4565b61083c565b6101dc610439366004610df4565b60046020908152600092835260408084209091529082529020546001600160a01b031681565b61022761046d366004610d7f565b610ae1565b610227610480366004610d7f565b610b1f565b6002546101dc906001600160a01b031681565b600581815481106104a857600080fd5b6000918252602090912001546001600160a01b0316905081565b6104ca610baa565b6003805460ff60a01b1916905560405133907f5db9ee0a495bf2e6ff9c91a7834c1ba4fdd244a5e8aa4e537bd38aeae4b073aa90600090a2565b61050c610baa565b6105166000610bd7565b565b610520610baa565b6003805460ff60a01b1916600160a01b17905560405133907f62e78cea01bee320cd4e420270b5ea74000d11b0c9f74754ebdbfc544b05a25890600090a2565b610568610baa565b6001600160a01b03811661058f5760405163d92e233d60e01b815260040160405180910390fd5b600380546001600160a01b0319166001600160a01b0383169081179091556040517fa90daac379131812d11a08b83166a4f607749a36c47f239451c1f35b185b46a290600090a250565b6105e1610baa565b6001600160a01b0383166106085760405163d92e233d60e01b815260040160405180910390fd5b80801561061c57506001600160a01b038216155b1561063a5760405163d92e233d60e01b815260040160405180910390fd5b6001600160a01b0383166000908152600760205260409020805460ff19168215151790558061066a57600061066c565b815b6001600160a01b0384811660008181526008602090815260409182902080546001600160a01b031916958516959095179094555184151581529185169290917f261b3ada3e776c76fef449b1ff19e4a768d4d8351061b04cdbf332d5bfa2c4be910160405180910390a3505050565b6000806000836001600160a01b0316856001600160a01b031610610700578385610703565b84845b6001600160a01b0391821660009081526004602090815260408083209385168352929052205416925050505b92915050565b61073d610baa565b6001600160a01b0382166107645760405163d92e233d60e01b815260040160405180910390fd5b6001600160a01b038216600081815260066020908152604091829020805460ff191685151590811790915591519182527f27cb2e738bd9aec3e5a96db124fda6677c365fcc053f5789638bf9054f0f1dab910160405180910390a25050565b6107cb610baa565b6001600160a01b0381166107f25760405163d92e233d60e01b815260040160405180910390fd5b600280546001600160a01b0319166001600160a01b0383169081179091556040517fc6b438e6a8a59579ce6a4406cbd203b740e0d47b458aae6596339bcd40c40d1590600090a250565b6000610846610c27565b600354600160a01b900460ff1615610871576040516355768c9960e11b815260040160405180910390fd5b816001600160a01b0316836001600160a01b0316036108a357604051630bd969eb60e41b815260040160405180910390fd5b6001600160a01b03831615806108c057506001600160a01b038216155b156108de5760405163d92e233d60e01b815260040160405180910390fd5b600080836001600160a01b0316856001600160a01b031610610901578385610904565b84845b6001600160a01b03808316600090815260046020908152604080832084861684529091529020549294509092501615610984576001600160a01b038281166000908152600460208181526040808420868616855290915291829020549151633a55c9ad60e01b815291909216918101919091526024015b60405180910390fd5b6040516001600160601b0319606084811b8216602084015283901b1660348201526000906048016040516020818303038152906040528051906020012090506109ce838383610c55565b6001600160a01b03808516600081815260046020818152604080842089871680865290835281852080549789166001600160a01b03199889168117909155938352818520868652909252832080548616831790556005805460018181018355948290527f036b6384b5eca791c62761152d0c79bb0604c104a5fb6f4eb0703f3154bb3db001805490961690921790945554939750919290917f0d3648bd0f6ba80134a33ba9275ac585d9d315f0ad8355cddefde31afa28d0e9918891610a9391610e51565b604080516001600160a01b03909316835260208301919091520160405180910390a350505061072f60017f9b779b17422d0df92223018b32b4d1fa46e071723d6817e2486d003becc55f0055565b610ae9610baa565b6001600160a01b038116610b1357604051631e4fbdf760e01b81526000600482015260240161097b565b610b1c81610bd7565b50565b610b27610baa565b6001600160a01b038116610b4e5760405163d92e233d60e01b815260040160405180910390fd5b6001546040516001600160a01b038084169216907f8f93286d6f131e956d1aa672d3ecdc817f24efc20b223b0de5d591f454edc34790600090a3600180546001600160a01b0319166001600160a01b0392909216919091179055565b6000546001600160a01b031633146105165760405163118cdaa760e01b815233600482015260240161097b565b600080546001600160a01b038381166001600160a01b0319831681178455604051919092169283917f8be0079c531659141344cd1fd0a4f28419497f9722a3daafe3b4186f6b6457e09190a35050565b610c2f610d08565b60027f9b779b17422d0df92223018b32b4d1fa46e071723d6817e2486d003becc55f0055565b6040516001600160601b0319606085811b8216602084015284901b1660348201524660488201526000906001600160f81b0319903090849060680160405160208183030381529060405280519060200120604051602001610ce894939291906001600160f81b031994909416845260609290921b6001600160601b03191660018401526015830152603582015260550190565b60408051601f198184030181529190528051602090910120949350505050565b7f9b779b17422d0df92223018b32b4d1fa46e071723d6817e2486d003becc55f005460020361051657604051633ee5aeb560e01b815260040160405180910390fd5b600060208284031215610d5c57600080fd5b5035919050565b80356001600160a01b0381168114610d7a57600080fd5b919050565b600060208284031215610d9157600080fd5b610d9a82610d63565b9392505050565b80358015158114610d7a57600080fd5b600080600060608486031215610dc657600080fd5b610dcf84610d63565b9250610ddd60208501610d63565b9150610deb60408501610da1565b90509250925092565b60008060408385031215610e0757600080fd5b610e1083610d63565b9150610e1e60208401610d63565b90509250929050565b60008060408385031215610e3a57600080fd5b610e4383610d63565b9150610e1e60208401610da1565b8181038181111561072f57634e487b7160e01b600052601160045260246000fdfea2646970667358221220d0e6297d23a3fd483f88cab750fdc7e287fdc32bbf9941f86389e880784e7ed364736f6c63430008180033",
					"opcodes": "PUSH1 0x80 PUSH1 0x40 MSTORE CALLVALUE DUP1 ISZERO PUSH2 0x10 JUMPI PUSH1 0x0 DUP1 REVERT JUMPDEST POP PUSH1 0x40 MLOAD PUSH2 0x1030 CODESIZE SUB DUP1 PUSH2 0x1030 DUP4 CODECOPY DUP2 ADD PUSH1 0x40 DUP2 SWAP1 MSTORE PUSH2 0x2F SWAP2 PUSH2 0x149 JUMP JUMPDEST CALLER DUP1 PUSH2 0x55 JUMPI PUSH1 0x40 MLOAD PUSH4 0x1E4FBDF7 PUSH1 0xE0 SHL DUP2 MSTORE PUSH1 0x0 PUSH1 0x4 DUP3 ADD MSTORE PUSH1 0x24 ADD PUSH1 0x40 MLOAD DUP1 SWAP2 SUB SWAP1 REVERT JUMPDEST PUSH2 0x5E DUP2 PUSH2 0xF9 JUMP JUMPDEST POP PUSH1 0x1 PUSH32 0x9B779B17422D0DF92223018B32B4D1FA46E071723D6817E2486D003BECC55F00 SSTORE PUSH1 0x1 PUSH1 0x1 PUSH1 0xA0 SHL SUB DUP2 AND PUSH2 0xAA JUMPI PUSH1 0x40 MLOAD PUSH4 0xD92E233D PUSH1 0xE0 SHL DUP2 MSTORE PUSH1 0x4 ADD PUSH1 0x40 MLOAD DUP1 SWAP2 SUB SWAP1 REVERT JUMPDEST PUSH1 0x1 DUP1 SLOAD PUSH1 0x1 PUSH1 0x1 PUSH1 0xA0 SHL SUB NOT AND PUSH1 0x1 PUSH1 0x1 PUSH1 0xA0 SHL SUB DUP4 AND SWAP1 DUP2 OR SWAP1 SWAP2 SSTORE PUSH1 0x40 MLOAD PUSH1 0x0 SWAP1 PUSH32 0x8F93286D6F131E956D1AA672D3ECDC817F24EFC20B223B0DE5D591F454EDC347 SWAP1 DUP3 SWAP1 LOG3 POP PUSH2 0x179 JUMP JUMPDEST PUSH1 0x0 DUP1 SLOAD PUSH1 0x1 PUSH1 0x1 PUSH1 0xA0 SHL SUB DUP4 DUP2 AND PUSH1 0x1 PUSH1 0x1 PUSH1 0xA0 SHL SUB NOT DUP4 AND DUP2 OR DUP5 SSTORE PUSH1 0x40 MLOAD SWAP2 SWAP1 SWAP3 AND SWAP3 DUP4 SWAP2 PUSH32 0x8BE0079C531659141344CD1FD0A4F28419497F9722A3DAAFE3B4186F6B6457E0 SWAP2 SWAP1 LOG3 POP POP JUMP JUMPDEST PUSH1 0x0 PUSH1 0x20 DUP3 DUP5 SUB SLT ISZERO PUSH2 0x15B JUMPI PUSH1 0x0 DUP1 REVERT JUMPDEST DUP2 MLOAD PUSH1 0x1 PUSH1 0x1 PUSH1 0xA0 SHL SUB DUP2 AND DUP2 EQ PUSH2 0x172 JUMPI PUSH1 0x0 DUP1 REVERT JUMPDEST SWAP4 SWAP3 POP POP POP JUMP JUMPDEST PUSH2 0xEA8 DUP1 PUSH2 0x188 PUSH1 0x0 CODECOPY PUSH1 0x0 RETURN INVALID PUSH1 0x80 PUSH1 0x40 MSTORE CALLVALUE DUP1 ISZERO PUSH2 0x10 JUMPI PUSH1 0x0 DUP1 REVERT JUMPDEST POP PUSH1 0x4 CALLDATASIZE LT PUSH2 0x1C4 JUMPI PUSH1 0x0 CALLDATALOAD PUSH1 0xE0 SHR DUP1 PUSH4 0xA2092A32 GT PUSH2 0xF9 JUMPI DUP1 PUSH4 0xC0D78655 GT PUSH2 0x97 JUMPI DUP1 PUSH4 0xE6A43905 GT PUSH2 0x71 JUMPI DUP1 PUSH4 0xE6A43905 EQ PUSH2 0x42B JUMPI DUP1 PUSH4 0xF2FDE38B EQ PUSH2 0x45F JUMPI DUP1 PUSH4 0xF46901ED EQ PUSH2 0x472 JUMPI DUP1 PUSH4 0xF887EA40 EQ PUSH2 0x485 JUMPI PUSH1 0x0 DUP1 REVERT JUMPDEST DUP1 PUSH4 0xC0D78655 EQ PUSH2 0x3E2 JUMPI DUP1 PUSH4 0xC49823B2 EQ PUSH2 0x3F5 JUMPI DUP1 PUSH4 0xC9C65396 EQ PUSH2 0x418 JUMPI PUSH1 0x0 DUP1 REVERT JUMPDEST DUP1 PUSH4 0xAE416E27 GT PUSH2 0xD3 JUMPI DUP1 PUSH4 0xAE416E27 EQ PUSH2 0x38B JUMPI DUP1 PUSH4 0xB4F69A2F EQ PUSH2 0x3B4 JUMPI DUP1 PUSH4 0xBA5D27D1 EQ PUSH2 0x3C7 JUMPI DUP1 PUSH4 0xBE378228 EQ PUSH2 0x3DA JUMPI PUSH1 0x0 DUP1 REVERT JUMPDEST DUP1 PUSH4 0xA2092A32 EQ PUSH2 0x35D JUMPI DUP1 PUSH4 0xA5258210 EQ PUSH2 0x370 JUMPI DUP1 PUSH4 0xA97EAD83 EQ PUSH2 0x378 JUMPI PUSH1 0x0 DUP1 REVERT JUMPDEST DUP1 PUSH4 0x5FBBC0D2 GT PUSH2 0x166 JUMPI DUP1 PUSH4 0x7B3FA96D GT PUSH2 0x140 JUMPI DUP1 PUSH4 0x7B3FA96D EQ PUSH2 0x2C3 JUMPI DUP1 PUSH4 0x8456CB59 EQ PUSH2 0x2E6 JUMPI DUP1 PUSH4 0x85CFEF96 EQ PUSH2 0x2EE JUMPI DUP1 PUSH4 0x8DA5CB5B EQ PUSH2 0x34C JUMPI PUSH1 0x0 DUP1 REVERT JUMPDEST DUP1 PUSH4 0x5FBBC0D2 EQ PUSH2 0x28B JUMPI DUP1 PUSH4 0x6F28507C EQ PUSH2 0x2B3 JUMPI DUP1 PUSH4 0x715018A6 EQ PUSH2 0x2BB JUMPI PUSH1 0x0 DUP1 REVERT JUMPDEST DUP1 PUSH4 0x3F4BA83A GT PUSH2 0x1A2 JUMPI DUP1 PUSH4 0x3F4BA83A EQ PUSH2 0x21F JUMPI DUP1 PUSH4 0x55974C4B EQ PUSH2 0x229 JUMPI DUP1 PUSH4 0x574F2BA3 EQ PUSH2 0x265 JUMPI DUP1 PUSH4 0x5C975ABB EQ PUSH2 0x277 JUMPI PUSH1 0x0 DUP1 REVERT JUMPDEST DUP1 PUSH4 0x17E7E58 EQ PUSH2 0x1C9 JUMPI DUP1 PUSH4 0xE31648F EQ PUSH2 0x1F9 JUMPI DUP1 PUSH4 0x1E3DD18B EQ PUSH2 0x20C JUMPI JUMPDEST PUSH1 0x0 DUP1 REVERT JUMPDEST PUSH1 0x1 SLOAD PUSH2 0x1DC SWAP1 PUSH1 0x1 PUSH1 0x1 PUSH1 0xA0 SHL SUB AND DUP2 JUMP JUMPDEST PUSH1 0x40 MLOAD PUSH1 0x1 PUSH1 0x1 PUSH1 0xA0 SHL SUB SWAP1 SWAP2 AND DUP2 MSTORE PUSH1 0x20 ADD JUMPDEST PUSH1 0x40 MLOAD DUP1 SWAP2 SUB SWAP1 RETURN JUMPDEST PUSH1 0x3 SLOAD PUSH2 0x1DC SWAP1 PUSH1 0x1 PUSH1 0x1 PUSH1 0xA0 SHL SUB AND DUP2 JUMP JUMPDEST PUSH2 0x1DC PUSH2 0x21A CALLDATASIZE PUSH1 0x4 PUSH2 0xD4A JUMP JUMPDEST PUSH2 0x498 JUMP JUMPDEST PUSH2 0x227 PUSH2 0x4C2 JUMP JUMPDEST STOP JUMPDEST PUSH2 0x255 PUSH2 0x237 CALLDATASIZE PUSH1 0x4 PUSH2 0xD7F JUMP JUMPDEST PUSH1 0x1 PUSH1 0x1 PUSH1 0xA0 SHL SUB AND PUSH1 0x0 SWAP1 DUP2 MSTORE PUSH1 0x6 PUSH1 0x20 MSTORE PUSH1 0x40 SWAP1 KECCAK256 SLOAD PUSH1 0xFF AND SWAP1 JUMP JUMPDEST PUSH1 0x40 MLOAD SWAP1 ISZERO ISZERO DUP2 MSTORE PUSH1 0x20 ADD PUSH2 0x1F0 JUMP JUMPDEST PUSH1 0x5 SLOAD JUMPDEST PUSH1 0x40 MLOAD SWAP1 DUP2 MSTORE PUSH1 0x20 ADD PUSH2 0x1F0 JUMP JUMPDEST PUSH1 0x3 SLOAD PUSH2 0x255 SWAP1 PUSH1 0x1 PUSH1 0xA0 SHL SWAP1 DIV PUSH1 0xFF AND DUP2 JUMP JUMPDEST PUSH1 0x40 DUP1 MLOAD PUSH1 0x1E DUP2 MSTORE PUSH1 0x19 PUSH1 0x20 DUP3 ADD MSTORE PUSH1 0x5 SWAP2 DUP2 ADD SWAP2 SWAP1 SWAP2 MSTORE PUSH2 0x2710 PUSH1 0x60 DUP3 ADD MSTORE PUSH1 0x80 ADD PUSH2 0x1F0 JUMP JUMPDEST PUSH2 0x269 PUSH1 0x1E DUP2 JUMP JUMPDEST PUSH2 0x227 PUSH2 0x504 JUMP JUMPDEST PUSH2 0x255 PUSH2 0x2D1 CALLDATASIZE PUSH1 0x4 PUSH2 0xD7F JUMP JUMPDEST PUSH1 0x7 PUSH1 0x20 MSTORE PUSH1 0x0 SWAP1 DUP2 MSTORE PUSH1 0x40 SWAP1 KECCAK256 SLOAD PUSH1 0xFF AND DUP2 JUMP JUMPDEST PUSH2 0x227 PUSH2 0x518 JUMP JUMPDEST PUSH2 0x32D PUSH2 0x2FC CALLDATASIZE PUSH1 0x4 PUSH2 0xD7F JUMP JUMPDEST PUSH1 0x1 PUSH1 0x1 PUSH1 0xA0 SHL SUB SWAP1 DUP2 AND PUSH1 0x0 SWAP1 DUP2 MSTORE PUSH1 0x7 PUSH1 0x20 SWAP1 DUP2 MSTORE PUSH1 0x40 DUP1 DUP4 KECCAK256 SLOAD PUSH1 0x8 SWAP1 SWAP3 MSTORE SWAP1 SWAP2 KECCAK256 SLOAD PUSH1 0xFF SWAP1 SWAP2 AND SWAP3 SWAP2 AND SWAP1 JUMP JUMPDEST PUSH1 0x40 DUP1 MLOAD SWAP3 ISZERO ISZERO DUP4 MSTORE PUSH1 0x1 PUSH1 0x1 PUSH1 0xA0 SHL SUB SWAP1 SWAP2 AND PUSH1 0x20 DUP4 ADD MSTORE ADD PUSH2 0x1F0 JUMP JUMPDEST PUSH1 0x0 SLOAD PUSH1 0x1 PUSH1 0x1 PUSH1 0xA0 SHL SUB AND PUSH2 0x1DC JUMP JUMPDEST PUSH2 0x227 PUSH2 0x36B CALLDATASIZE PUSH1 0x4 PUSH2 0xD7F JUMP JUMPDEST PUSH2 0x560 JUMP JUMPDEST PUSH2 0x269 PUSH1 0x19 DUP2 JUMP JUMPDEST PUSH2 0x227 PUSH2 0x386 CALLDATASIZE PUSH1 0x4 PUSH2 0xDB1 JUMP JUMPDEST PUSH2 0x5D9 JUMP JUMPDEST PUSH2 0x1DC PUSH2 0x399 CALLDATASIZE PUSH1 0x4 PUSH2 0xD7F JUMP JUMPDEST PUSH1 0x8 PUSH1 0x20 MSTORE PUSH1 0x0 SWAP1 DUP2 MSTORE PUSH1 0x40 SWAP1 KECCAK256 SLOAD PUSH1 0x1 PUSH1 0x1 PUSH1 0xA0 SHL SUB AND DUP2 JUMP JUMPDEST PUSH2 0x1DC PUSH2 0x3C2 CALLDATASIZE PUSH1 0x4 PUSH2 0xDF4 JUMP JUMPDEST PUSH2 0x6DB JUMP JUMPDEST PUSH2 0x227 PUSH2 0x3D5 CALLDATASIZE PUSH1 0x4 PUSH2 0xE27 JUMP JUMPDEST PUSH2 0x735 JUMP JUMPDEST PUSH2 0x269 PUSH1 0x5 DUP2 JUMP JUMPDEST PUSH2 0x227 PUSH2 0x3F0 CALLDATASIZE PUSH1 0x4 PUSH2 0xD7F JUMP JUMPDEST PUSH2 0x7C3 JUMP JUMPDEST PUSH2 0x255 PUSH2 0x403 CALLDATASIZE PUSH1 0x4 PUSH2 0xD7F JUMP JUMPDEST PUSH1 0x6 PUSH1 0x20 MSTORE PUSH1 0x0 SWAP1 DUP2 MSTORE PUSH1 0x40 SWAP1 KECCAK256 SLOAD PUSH1 0xFF AND DUP2 JUMP JUMPDEST PUSH2 0x1DC PUSH2 0x426 CALLDATASIZE PUSH1 0x4 PUSH2 0xDF4 JUMP JUMPDEST PUSH2 0x83C JUMP JUMPDEST PUSH2 0x1DC PUSH2 0x439 CALLDATASIZE PUSH1 0x4 PUSH2 0xDF4 JUMP JUMPDEST PUSH1 0x4 PUSH1 0x20 SWAP1 DUP2 MSTORE PUSH1 0x0 SWAP3 DUP4 MSTORE PUSH1 0x40 DUP1 DUP5 KECCAK256 SWAP1 SWAP2 MSTORE SWAP1 DUP3 MSTORE SWAP1 KECCAK256 SLOAD PUSH1 0x1 PUSH1 0x1 PUSH1 0xA0 SHL SUB AND DUP2 JUMP JUMPDEST PUSH2 0x227 PUSH2 0x46D CALLDATASIZE PUSH1 0x4 PUSH2 0xD7F JUMP JUMPDEST PUSH2 0xAE1 JUMP JUMPDEST PUSH2 0x227 PUSH2 0x480 CALLDATASIZE PUSH1 0x4 PUSH2 0xD7F JUMP JUMPDEST PUSH2 0xB1F JUMP JUMPDEST PUSH1 0x2 SLOAD PUSH2 0x1DC SWAP1 PUSH1 0x1 PUSH1 0x1 PUSH1 0xA0 SHL SUB AND DUP2 JUMP JUMPDEST PUSH1 0x5 DUP2 DUP2 SLOAD DUP2 LT PUSH2 0x4A8 JUMPI PUSH1 0x0 DUP1 REVERT JUMPDEST PUSH1 0x0 SWAP2 DUP3 MSTORE PUSH1 0x20 SWAP1 SWAP2 KECCAK256 ADD SLOAD PUSH1 0x1 PUSH1 0x1 PUSH1 0xA0 SHL SUB AND SWAP1 POP DUP2 JUMP JUMPDEST PUSH2 0x4CA PUSH2 0xBAA JUMP JUMPDEST PUSH1 0x3 DUP1 SLOAD PUSH1 0xFF PUSH1 0xA0 SHL NOT AND SWAP1 SSTORE PUSH1 0x40 MLOAD CALLER SWAP1 PUSH32 0x5DB9EE0A495BF2E6FF9C91A7834C1BA4FDD244A5E8AA4E537BD38AEAE4B073AA SWAP1 PUSH1 0x0 SWAP1 LOG2 JUMP JUMPDEST PUSH2 0x50C PUSH2 0xBAA JUMP JUMPDEST PUSH2 0x516 PUSH1 0x0 PUSH2 0xBD7 JUMP JUMPDEST JUMP JUMPDEST PUSH2 0x520 PUSH2 0xBAA JUMP JUMPDEST PUSH1 0x3 DUP1 SLOAD PUSH1 0xFF PUSH1 0xA0 SHL NOT AND PUSH1 0x1 PUSH1 0xA0 SHL OR SWAP1 SSTORE PUSH1 0x40 MLOAD CALLER SWAP1 PUSH32 0x62E78CEA01BEE320CD4E420270B5EA74000D11B0C9F74754EBDBFC544B05A258 SWAP1 PUSH1 0x0 SWAP1 LOG2 JUMP JUMPDEST PUSH2 0x568 PUSH2 0xBAA JUMP JUMPDEST PUSH1 0x1 PUSH1 0x1 PUSH1 0xA0 SHL SUB DUP2 AND PUSH2 0x58F JUMPI PUSH1 0x40 MLOAD PUSH4 0xD92E233D PUSH1 0xE0 SHL DUP2 MSTORE PUSH1 0x4 ADD PUSH1 0x40 MLOAD DUP1 SWAP2 SUB SWAP1 REVERT JUMPDEST PUSH1 0x3 DUP1 SLOAD PUSH1 0x1 PUSH1 0x1 PUSH1 0xA0 SHL SUB NOT AND PUSH1 0x1 PUSH1 0x1 PUSH1 0xA0 SHL SUB DUP4 AND SWAP1 DUP2 OR SWAP1 SWAP2 SSTORE PUSH1 0x40 MLOAD PUSH32 0xA90DAAC379131812D11A08B83166A4F607749A36C47F239451C1F35B185B46A2 SWAP1 PUSH1 0x0 SWAP1 LOG2 POP JUMP JUMPDEST PUSH2 0x5E1 PUSH2 0xBAA JUMP JUMPDEST PUSH1 0x1 PUSH1 0x1 PUSH1 0xA0 SHL SUB DUP4 AND PUSH2 0x608 JUMPI PUSH1 0x40 MLOAD PUSH4 0xD92E233D PUSH1 0xE0 SHL DUP2 MSTORE PUSH1 0x4 ADD PUSH1 0x40 MLOAD DUP1 SWAP2 SUB SWAP1 REVERT JUMPDEST DUP1 DUP1 ISZERO PUSH2 0x61C JUMPI POP PUSH1 0x1 PUSH1 0x1 PUSH1 0xA0 SHL SUB DUP3 AND ISZERO JUMPDEST ISZERO PUSH2 0x63A JUMPI PUSH1 0x40 MLOAD PUSH4 0xD92E233D PUSH1 0xE0 SHL DUP2 MSTORE PUSH1 0x4 ADD PUSH1 0x40 MLOAD DUP1 SWAP2 SUB SWAP1 REVERT JUMPDEST PUSH1 0x1 PUSH1 0x1 PUSH1 0xA0 SHL SUB DUP4 AND PUSH1 0x0 SWAP1 DUP2 MSTORE PUSH1 0x7 PUSH1 0x20 MSTORE PUSH1 0x40 SWAP1 KECCAK256 DUP1 SLOAD PUSH1 0xFF NOT AND DUP3 ISZERO ISZERO OR SWAP1 SSTORE DUP1 PUSH2 0x66A JUMPI PUSH1 0x0 PUSH2 0x66C JUMP JUMPDEST DUP2 JUMPDEST PUSH1 0x1 PUSH1 0x1 PUSH1 0xA0 SHL SUB DUP5 DUP2 AND PUSH1 0x0 DUP2 DUP2 MSTORE PUSH1 0x8 PUSH1 0x20 SWAP1 DUP2 MSTORE PUSH1 0x40 SWAP2 DUP3 SWAP1 KECCAK256 DUP1 SLOAD PUSH1 0x1 PUSH1 0x1 PUSH1 0xA0 SHL SUB NOT AND SWAP6 DUP6 AND SWAP6 SWAP1 SWAP6 OR SWAP1 SWAP5 SSTORE MLOAD DUP5 ISZERO ISZERO DUP2 MSTORE SWAP2 DUP6 AND SWAP3 SWAP1 SWAP2 PUSH32 0x261B3ADA3E776C76FEF449B1FF19E4A768D4D8351061B04CDBF332D5BFA2C4BE SWAP2 ADD PUSH1 0x40 MLOAD DUP1 SWAP2 SUB SWAP1 LOG3 POP POP POP JUMP JUMPDEST PUSH1 0x0 DUP1 PUSH1 0x0 DUP4 PUSH1 0x1 PUSH1 0x1 PUSH1 0xA0 SHL SUB AND DUP6 PUSH1 0x1 PUSH1 0x1 PUSH1 0xA0 SHL SUB AND LT PUSH2 0x700 JUMPI DUP4 DUP6 PUSH2 0x703 JUMP JUMPDEST DUP5 DUP5 JUMPDEST PUSH1 0x1 PUSH1 0x1 PUSH1 0xA0 SHL SUB SWAP2 DUP3 AND PUSH1 0x0 SWAP1 DUP2 MSTORE PUSH1 0x4 PUSH1 0x20 SWAP1 DUP2 MSTORE PUSH1 0x40 DUP1 DUP4 KECCAK256 SWAP4 DUP6 AND DUP4 MSTORE SWAP3 SWAP1 MSTORE KECCAK256 SLOAD AND SWAP3 POP POP POP JUMPDEST SWAP3 SWAP2 POP POP JUMP JUMPDEST PUSH2 0x73D PUSH2 0xBAA JUMP JUMPDEST PUSH1 0x1 PUSH1 0x1 PUSH1 0xA0 SHL SUB DUP3 AND PUSH2 0x764 JUMPI PUSH1 0x40 MLOAD PUSH4 0xD92E233D PUSH1 0xE0 SHL DUP2 MSTORE PUSH1 0x4 ADD PUSH1 0x40 MLOAD DUP1 SWAP2 SUB SWAP1 REVERT JUMPDEST PUSH1 0x1 PUSH1 0x1 PUSH1 0xA0 SHL SUB DUP3 AND PUSH1 0x0 DUP2 DUP2 MSTORE PUSH1 0x6 PUSH1 0x20 SWAP1 DUP2 MSTORE PUSH1 0x40 SWAP2 DUP3 SWAP1 KECCAK256 DUP1 SLOAD PUSH1 0xFF NOT AND DUP6 ISZERO ISZERO SWAP1 DUP2 OR SWAP1 SWAP2 SSTORE SWAP2 MLOAD SWAP2 DUP3 MSTORE PUSH32 0x27CB2E738BD9AEC3E5A96DB124FDA6677C365FCC053F5789638BF9054F0F1DAB SWAP2 ADD PUSH1 0x40 MLOAD DUP1 SWAP2 SUB SWAP1 LOG2 POP POP JUMP JUMPDEST PUSH2 0x7CB PUSH2 0xBAA JUMP JUMPDEST PUSH1 0x1 PUSH1 0x1 PUSH1 0xA0 SHL SUB DUP2 AND PUSH2 0x7F2 JUMPI PUSH1 0x40 MLOAD PUSH4 0xD92E233D PUSH1 0xE0 SHL DUP2 MSTORE PUSH1 0x4 ADD PUSH1 0x40 MLOAD DUP1 SWAP2 SUB SWAP1 REVERT JUMPDEST PUSH1 0x2 DUP1 SLOAD PUSH1 0x1 PUSH1 0x1 PUSH1 0xA0 SHL SUB NOT AND PUSH1 0x1 PUSH1 0x1 PUSH1 0xA0 SHL SUB DUP4 AND SWAP1 DUP2 OR SWAP1 SWAP2 SSTORE PUSH1 0x40 MLOAD PUSH32 0xC6B438E6A8A59579CE6A4406CBD203B740E0D47B458AAE6596339BCD40C40D15 SWAP1 PUSH1 0x0 SWAP1 LOG2 POP JUMP JUMPDEST PUSH1 0x0 PUSH2 0x846 PUSH2 0xC27 JUMP JUMPDEST PUSH1 0x3 SLOAD PUSH1 0x1 PUSH1 0xA0 SHL SWAP1 DIV PUSH1 0xFF AND ISZERO PUSH2 0x871 JUMPI PUSH1 0x40 MLOAD PUSH4 0x55768C99 PUSH1 0xE1 SHL DUP2 MSTORE PUSH1 0x4 ADD PUSH1 0x40 MLOAD DUP1 SWAP2 SUB SWAP1 REVERT JUMPDEST DUP2 PUSH1 0x1 PUSH1 0x1 PUSH1 0xA0 SHL SUB AND DUP4 PUSH1 0x1 PUSH1 0x1 PUSH1 0xA0 SHL SUB AND SUB PUSH2 0x8A3 JUMPI PUSH1 0x40 MLOAD PUSH4 0xBD969EB PUSH1 0xE4 SHL DUP2 MSTORE PUSH1 0x4 ADD PUSH1 0x40 MLOAD DUP1 SWAP2 SUB SWAP1 REVERT JUMPDEST PUSH1 0x1 PUSH1 0x1 PUSH1 0xA0 SHL SUB DUP4 AND ISZERO DUP1 PUSH2 0x8C0 JUMPI POP PUSH1 0x1 PUSH1 0x1 PUSH1 0xA0 SHL SUB DUP3 AND ISZERO JUMPDEST ISZERO PUSH2 0x8DE JUMPI PUSH1 0x40 MLOAD PUSH4 0xD92E233D PUSH1 0xE0 SHL DUP2 MSTORE PUSH1 0x4 ADD PUSH1 0x40 MLOAD DUP1 SWAP2 SUB SWAP1 REVERT JUMPDEST PUSH1 0x0 DUP1 DUP4 PUSH1 0x1 PUSH1 0x1 PUSH1 0xA0 SHL SUB AND DUP6 PUSH1 0x1 PUSH1 0x1 PUSH1 0xA0 SHL SUB AND LT PUSH2 0x901 JUMPI DUP4 DUP6 PUSH2 0x904 JUMP JUMPDEST DUP5 DUP5 JUMPDEST PUSH1 0x1 PUSH1 0x1 PUSH1 0xA0 SHL SUB DUP1 DUP4 AND PUSH1 0x0 SWAP1 DUP2 MSTORE PUSH1 0x4 PUSH1 0x20 SWAP1 DUP2 MSTORE PUSH1 0x40 DUP1 DUP4 KECCAK256 DUP5 DUP7 AND DUP5 MSTORE SWAP1 SWAP2 MSTORE SWAP1 KECCAK256 SLOAD SWAP3 SWAP5 POP SWAP1 SWAP3 POP AND ISZERO PUSH2 0x984 JUMPI PUSH1 0x1 PUSH1 0x1 PUSH1 0xA0 SHL SUB DUP3 DUP2 AND PUSH1 0x0 SWAP1 DUP2 MSTORE PUSH1 0x4 PUSH1 0x20 DUP2 DUP2 MSTORE PUSH1 0x40 DUP1 DUP5 KECCAK256 DUP7 DUP7 AND DUP6 MSTORE SWAP1 SWAP2 MSTORE SWAP2 DUP3 SWAP1 KECCAK256 SLOAD SWAP2 MLOAD PUSH4 0x3A55C9AD PUSH1 0xE0 SHL DUP2 MSTORE SWAP2 SWAP1 SWAP3 AND SWAP2 DUP2 ADD SWAP2 SWAP1 SWAP2 MSTORE PUSH1 0x24 ADD JUMPDEST PUSH1 0x40 MLOAD DUP1 SWAP2 SUB SWAP1 REVERT JUMPDEST PUSH1 0x40 MLOAD PUSH1 0x1 PUSH1 0x1 PUSH1 0x60 SHL SUB NOT PUSH1 0x60 DUP5 DUP2 SHL DUP3 AND PUSH1 0x20 DUP5 ADD MSTORE DUP4 SWAP1 SHL AND PUSH1 0x34 DUP3 ADD MSTORE PUSH1 0x0 SWAP1 PUSH1 0x48 ADD PUSH1 0x40 MLOAD PUSH1 0x20 DUP2 DUP4 SUB SUB DUP2 MSTORE SWAP1 PUSH1 0x40 MSTORE DUP1 MLOAD SWAP1 PUSH1 0x20 ADD KECCAK256 SWAP1 POP PUSH2 0x9CE DUP4 DUP4 DUP4 PUSH2 0xC55 JUMP JUMPDEST PUSH1 0x1 PUSH1 0x1 PUSH1 0xA0 SHL SUB DUP1 DUP6 AND PUSH1 0x0 DUP2 DUP2 MSTORE PUSH1 0x4 PUSH1 0x20 DUP2 DUP2 MSTORE PUSH1 0x40 DUP1 DUP5 KECCAK256 DUP10 DUP8 AND DUP1 DUP7 MSTORE SWAP1 DUP4 MSTORE DUP2 DUP6 KECCAK256 DUP1 SLOAD SWAP8 DUP10 AND PUSH1 0x1 PUSH1 0x1 PUSH1 0xA0 SHL SUB NOT SWAP9 DUP10 AND DUP2 OR SWAP1 SWAP2 SSTORE SWAP4 DUP4 MSTORE DUP2 DUP6 KECCAK256 DUP7 DUP7 MSTORE SWAP1 SWAP3 MSTORE DUP4 KECCAK256 DUP1 SLOAD DUP7 AND DUP4 OR SWAP1 SSTORE PUSH1 0x5 DUP1 SLOAD PUSH1 0x1 DUP2 DUP2 ADD DUP4 SSTORE SWAP5 DUP3 SWAP1 MSTORE PUSH32 0x36B6384B5ECA791C62761152D0C79BB0604C104A5FB6F4EB0703F3154BB3DB0 ADD DUP1 SLOAD SWAP1 SWAP7 AND SWAP1 SWAP3 OR SWAP1 SWAP5 SSTORE SLOAD SWAP4 SWAP8 POP SWAP2 SWAP3 SWAP1 SWAP2 PUSH32 0xD3648BD0F6BA80134A33BA9275AC585D9D315F0AD8355CDDEFDE31AFA28D0E9 SWAP2 DUP9 SWAP2 PUSH2 0xA93 SWAP2 PUSH2 0xE51 JUMP JUMPDEST PUSH1 0x40 DUP1 MLOAD PUSH1 0x1 PUSH1 0x1 PUSH1 0xA0 SHL SUB SWAP1 SWAP4 AND DUP4 MSTORE PUSH1 0x20 DUP4 ADD SWAP2 SWAP1 SWAP2 MSTORE ADD PUSH1 0x40 MLOAD DUP1 SWAP2 SUB SWAP1 LOG3 POP POP POP PUSH2 0x72F PUSH1 0x1 PUSH32 0x9B779B17422D0DF92223018B32B4D1FA46E071723D6817E2486D003BECC55F00 SSTORE JUMP JUMPDEST PUSH2 0xAE9 PUSH2 0xBAA JUMP JUMPDEST PUSH1 0x1 PUSH1 0x1 PUSH1 0xA0 SHL SUB DUP2 AND PUSH2 0xB13 JUMPI PUSH1 0x40 MLOAD PUSH4 0x1E4FBDF7 PUSH1 0xE0 SHL DUP2 MSTORE PUSH1 0x0 PUSH1 0x4 DUP3 ADD MSTORE PUSH1 0x24 ADD PUSH2 0x97B JUMP JUMPDEST PUSH2 0xB1C DUP2 PUSH2 0xBD7 JUMP JUMPDEST POP JUMP JUMPDEST PUSH2 0xB27 PUSH2 0xBAA JUMP JUMPDEST PUSH1 0x1 PUSH1 0x1 PUSH1 0xA0 SHL SUB DUP2 AND PUSH2 0xB4E JUMPI PUSH1 0x40 MLOAD PUSH4 0xD92E233D PUSH1 0xE0 SHL DUP2 MSTORE PUSH1 0x4 ADD PUSH1 0x40 MLOAD DUP1 SWAP2 SUB SWAP1 REVERT JUMPDEST PUSH1 0x1 SLOAD PUSH1 0x40 MLOAD PUSH1 0x1 PUSH1 0x1 PUSH1 0xA0 SHL SUB DUP1 DUP5 AND SWAP3 AND SWAP1 PUSH32 0x8F93286D6F131E956D1AA672D3ECDC817F24EFC20B223B0DE5D591F454EDC347 SWAP1 PUSH1 0x0 SWAP1 LOG3 PUSH1 0x1 DUP1 SLOAD PUSH1 0x1 PUSH1 0x1 PUSH1 0xA0 SHL SUB NOT AND PUSH1 0x1 PUSH1 0x1 PUSH1 0xA0 SHL SUB SWAP3 SWAP1 SWAP3 AND SWAP2 SWAP1 SWAP2 OR SWAP1 SSTORE JUMP JUMPDEST PUSH1 0x0 SLOAD PUSH1 0x1 PUSH1 0x1 PUSH1 0xA0 SHL SUB AND CALLER EQ PUSH2 0x516 JUMPI PUSH1 0x40 MLOAD PUSH4 0x118CDAA7 PUSH1 0xE0 SHL DUP2 MSTORE CALLER PUSH1 0x4 DUP3 ADD MSTORE PUSH1 0x24 ADD PUSH2 0x97B JUMP JUMPDEST PUSH1 0x0 DUP1 SLOAD PUSH1 0x1 PUSH1 0x1 PUSH1 0xA0 SHL SUB DUP4 DUP2 AND PUSH1 0x1 PUSH1 0x1 PUSH1 0xA0 SHL SUB NOT DUP4 AND DUP2 OR DUP5 SSTORE PUSH1 0x40 MLOAD SWAP2 SWAP1 SWAP3 AND SWAP3 DUP4 SWAP2 PUSH32 0x8BE0079C531659141344CD1FD0A4F28419497F9722A3DAAFE3B4186F6B6457E0 SWAP2 SWAP1 LOG3 POP POP JUMP JUMPDEST PUSH2 0xC2F PUSH2 0xD08 JUMP JUMPDEST PUSH1 0x2 PUSH32 0x9B779B17422D0DF92223018B32B4D1FA46E071723D6817E2486D003BECC55F00 SSTORE JUMP JUMPDEST PUSH1 0x40 MLOAD PUSH1 0x1 PUSH1 0x1 PUSH1 0x60 SHL SUB NOT PUSH1 0x60 DUP6 DUP2 SHL DUP3 AND PUSH1 0x20 DUP5 ADD MSTORE DUP5 SWAP1 SHL AND PUSH1 0x34 DUP3 ADD MSTORE CHAINID PUSH1 0x48 DUP3 ADD MSTORE PUSH1 0x0 SWAP1 PUSH1 0x1 PUSH1 0x1 PUSH1 0xF8 SHL SUB NOT SWAP1 ADDRESS SWAP1 DUP5 SWAP1 PUSH1 0x68 ADD PUSH1 0x40 MLOAD PUSH1 0x20 DUP2 DUP4 SUB SUB DUP2 MSTORE SWAP1 PUSH1 0x40 MSTORE DUP1 MLOAD SWAP1 PUSH1 0x20 ADD KECCAK256 PUSH1 0x40 MLOAD PUSH1 0x20 ADD PUSH2 0xCE8 SWAP5 SWAP4 SWAP3 SWAP2 SWAP1 PUSH1 0x1 PUSH1 0x1 PUSH1 0xF8 SHL SUB NOT SWAP5 SWAP1 SWAP5 AND DUP5 MSTORE PUSH1 0x60 SWAP3 SWAP1 SWAP3 SHL PUSH1 0x1 PUSH1 0x1 PUSH1 0x60 SHL SUB NOT AND PUSH1 0x1 DUP5 ADD MSTORE PUSH1 0x15 DUP4 ADD MSTORE PUSH1 0x35 DUP3 ADD MSTORE PUSH1 0x55 ADD SWAP1 JUMP JUMPDEST PUSH1 0x40 DUP1 MLOAD PUSH1 0x1F NOT DUP2 DUP5 SUB ADD DUP2 MSTORE SWAP2 SWAP1 MSTORE DUP1 MLOAD PUSH1 0x20 SWAP1 SWAP2 ADD KECCAK256 SWAP5 SWAP4 POP POP POP POP JUMP JUMPDEST PUSH32 0x9B779B17422D0DF92223018B32B4D1FA46E071723D6817E2486D003BECC55F00 SLOAD PUSH1 0x2 SUB PUSH2 0x516 JUMPI PUSH1 0x40 MLOAD PUSH4 0x3EE5AEB5 PUSH1 0xE0 SHL DUP2 MSTORE PUSH1 0x4 ADD PUSH1 0x40 MLOAD DUP1 SWAP2 SUB SWAP1 REVERT JUMPDEST PUSH1 0x0 PUSH1 0x20 DUP3 DUP5 SUB SLT ISZERO PUSH2 0xD5C JUMPI PUSH1 0x0 DUP1 REVERT JUMPDEST POP CALLDATALOAD SWAP2 SWAP1 POP JUMP JUMPDEST DUP1 CALLDATALOAD PUSH1 0x1 PUSH1 0x1 PUSH1 0xA0 SHL SUB DUP2 AND DUP2 EQ PUSH2 0xD7A JUMPI PUSH1 0x0 DUP1 REVERT JUMPDEST SWAP2 SWAP1 POP JUMP JUMPDEST PUSH1 0x0 PUSH1 0x20 DUP3 DUP5 SUB SLT ISZERO PUSH2 0xD91 JUMPI PUSH1 0x0 DUP1 REVERT JUMPDEST PUSH2 0xD9A DUP3 PUSH2 0xD63 JUMP JUMPDEST SWAP4 SWAP3 POP POP POP JUMP JUMPDEST DUP1 CALLDATALOAD DUP1 ISZERO ISZERO DUP2 EQ PUSH2 0xD7A JUMPI PUSH1 0x0 DUP1 REVERT JUMPDEST PUSH1 0x0 DUP1 PUSH1 0x0 PUSH1 0x60 DUP5 DUP7 SUB SLT ISZERO PUSH2 0xDC6 JUMPI PUSH1 0x0 DUP1 REVERT JUMPDEST PUSH2 0xDCF DUP5 PUSH2 0xD63 JUMP JUMPDEST SWAP3 POP PUSH2 0xDDD PUSH1 0x20 DUP6 ADD PUSH2 0xD63 JUMP JUMPDEST SWAP2 POP PUSH2 0xDEB PUSH1 0x40 DUP6 ADD PUSH2 0xDA1 JUMP JUMPDEST SWAP1 POP SWAP3 POP SWAP3 POP SWAP3 JUMP JUMPDEST PUSH1 0x0 DUP1 PUSH1 0x40 DUP4 DUP6 SUB SLT ISZERO PUSH2 0xE07 JUMPI PUSH1 0x0 DUP1 REVERT JUMPDEST PUSH2 0xE10 DUP4 PUSH2 0xD63 JUMP JUMPDEST SWAP2 POP PUSH2 0xE1E PUSH1 0x20 DUP5 ADD PUSH2 0xD63 JUMP JUMPDEST SWAP1 POP SWAP3 POP SWAP3 SWAP1 POP JUMP JUMPDEST PUSH1 0x0 DUP1 PUSH1 0x40 DUP4 DUP6 SUB SLT ISZERO PUSH2 0xE3A JUMPI PUSH1 0x0 DUP1 REVERT JUMPDEST PUSH2 0xE43 DUP4 PUSH2 0xD63 JUMP JUMPDEST SWAP2 POP PUSH2 0xE1E PUSH1 0x20 DUP5 ADD PUSH2 0xDA1 JUMP JUMPDEST DUP2 DUP2 SUB DUP2 DUP2 GT ISZERO PUSH2 0x72F JUMPI PUSH4 0x4E487B71 PUSH1 0xE0 SHL PUSH1 0x0 MSTORE PUSH1 0x11 PUSH1 0x4 MSTORE PUSH1 0x24 PUSH1 0x0 REVERT INVALID LOG2 PUSH5 0x6970667358 0x22 SLT KECCAK256 0xD0 0xE6 0x29 PUSH30 0x23A3FD483F88CAB750FDC7E287FDC32BBF9941F86389E880784E7ED36473 PUSH16 0x6C634300081800330000000000000000 "
				},
				"gasEstimates": {
					"creation": {
						"codeDepositCost": "750400",
						"executionCost": "infinite",
						"totalCost": "infinite"
					},
					"external": {
						"LP_FEE_BPS()": "263",
						"PROTOCOL_FEE_BPS()": "306",
						"TOTAL_FEE_BPS()": "263",
						"allPairs(uint256)": "4694",
						"allPairsLength()": "2371",
						"createPair(address,address)": "infinite",
						"emissionsWhitelist(address)": "2598",
						"feeTo()": "2373",
						"getFeeConfig()": "289",
						"getPair(address,address)": "infinite",
						"getPairAddress(address,address)": "infinite",
						"getPartnerConfig(address)": "4867",
						"isPairEmissionsEligible(address)": "2617",
						"isPartnerPool(address)": "2576",
						"owner()": "2431",
						"partnerDestination(address)": "2592",
						"pause()": "27759",
						"paused()": "2439",
						"renounceOwnership()": "infinite",
						"router()": "2436",
						"setEmissionsWhitelist(address,bool)": "infinite",
						"setFeeTo(address)": "30512",
						"setPartnerPool(address,address,bool)": "infinite",
						"setRouter(address)": "27954",
						"setTimbsToken(address)": "27955",
						"timbsToken()": "2395",
						"transferOwnership(address)": "28399",
						"unpause()": "27726"
					},
					"internal": {
						"_computePairAddress(address,address,bytes32)": "infinite"
					}
				},
				"methodIdentifiers": {
					"LP_FEE_BPS()": "a5258210",
					"PROTOCOL_FEE_BPS()": "be378228",
					"TOTAL_FEE_BPS()": "6f28507c",
					"allPairs(uint256)": "1e3dd18b",
					"allPairsLength()": "574f2ba3",
					"createPair(address,address)": "c9c65396",
					"emissionsWhitelist(address)": "c49823b2",
					"feeTo()": "017e7e58",
					"getFeeConfig()": "5fbbc0d2",
					"getPair(address,address)": "e6a43905",
					"getPairAddress(address,address)": "b4f69a2f",
					"getPartnerConfig(address)": "85cfef96",
					"isPairEmissionsEligible(address)": "55974c4b",
					"isPartnerPool(address)": "7b3fa96d",
					"owner()": "8da5cb5b",
					"partnerDestination(address)": "ae416e27",
					"pause()": "8456cb59",
					"paused()": "5c975abb",
					"renounceOwnership()": "715018a6",
					"router()": "f887ea40",
					"setEmissionsWhitelist(address,bool)": "ba5d27d1",
					"setFeeTo(address)": "f46901ed",
					"setPartnerPool(address,address,bool)": "a97ead83",
					"setRouter(address)": "c0d78655",
					"setTimbsToken(address)": "a2092a32",
					"timbsToken()": "0e31648f",
					"transferOwnership(address)": "f2fde38b",
					"unpause()": "3f4ba83a"
				}
			},
			"storageLayout": {
				"storage": [
					{
						"astId": 8,
						"contract": "contracts/TimbSwapFactory.sol:TimbSwapFactory",
						"label": "_owner",
						"offset": 0,
						"slot": "0",
						"type": "t_address"
					},
					{
						"astId": 441,
						"contract": "contracts/TimbSwapFactory.sol:TimbSwapFactory",
						"label": "feeTo",
						"offset": 0,
						"slot": "1",
						"type": "t_address"
					},
					{
						"astId": 444,
						"contract": "contracts/TimbSwapFactory.sol:TimbSwapFactory",
						"label": "router",
						"offset": 0,
						"slot": "2",
						"type": "t_address"
					},
					{
						"astId": 447,
						"contract": "contracts/TimbSwapFactory.sol:TimbSwapFactory",
						"label": "timbsToken",
						"offset": 0,
						"slot": "3",
						"type": "t_address"
					},
					{
						"astId": 450,
						"contract": "contracts/TimbSwapFactory.sol:TimbSwapFactory",
						"label": "paused",
						"offset": 20,
						"slot": "3",
						"type": "t_bool"
					},
					{
						"astId": 457,
						"contract": "contracts/TimbSwapFactory.sol:TimbSwapFactory",
						"label": "getPair",
						"offset": 0,
						"slot": "4",
						"type": "t_mapping(t_address,t_mapping(t_address,t_address))"
					},
					{
						"astId": 461,
						"contract": "contracts/TimbSwapFactory.sol:TimbSwapFactory",
						"label": "allPairs",
						"offset": 0,
						"slot": "5",
						"type": "t_array(t_address)dyn_storage"
					},
					{
						"astId": 466,
						"contract": "contracts/TimbSwapFactory.sol:TimbSwapFactory",
						"label": "emissionsWhitelist",
						"offset": 0,
						"slot": "6",
						"type": "t_mapping(t_address,t_bool)"
					},
					{
						"astId": 471,
						"contract": "contracts/TimbSwapFactory.sol:TimbSwapFactory",
						"label": "isPartnerPool",
						"offset": 0,
						"slot": "7",
						"type": "t_mapping(t_address,t_bool)"
					},
					{
						"astId": 476,
						"contract": "contracts/TimbSwapFactory.sol:TimbSwapFactory",
						"label": "partnerDestination",
						"offset": 0,
						"slot": "8",
						"type": "t_mapping(t_address,t_address)"
					}
				],
				"types": {
					"t_address": {
						"encoding": "inplace",
						"label": "address",
						"numberOfBytes": "20"
					},
					"t_array(t_address)dyn_storage": {
						"base": "t_address",
						"encoding": "dynamic_array",
						"label": "address[]",
						"numberOfBytes": "32"
					},
					"t_bool": {
						"encoding": "inplace",
						"label": "bool",
						"numberOfBytes": "1"
					},
					"t_mapping(t_address,t_address)": {
						"encoding": "mapping",
						"key": "t_address",
						"label": "mapping(address => address)",
						"numberOfBytes": "32",
						"value": "t_address"
					},
					"t_mapping(t_address,t_bool)": {
						"encoding": "mapping",
						"key": "t_address",
						"label": "mapping(address => bool)",
						"numberOfBytes": "32",
						"value": "t_bool"
					},
					"t_mapping(t_address,t_mapping(t_address,t_address))": {
						"encoding": "mapping",
						"key": "t_address",
						"label": "mapping(address => mapping(address => address))",
						"numberOfBytes": "32",
						"value": "t_mapping(t_address,t_address)"
					}
				}
			},
			"userdoc": {
				"kind": "user",
				"methods": {
					"LP_FEE_BPS()": {
						"notice": "LP share of total fee in basis points (0.25% = 25 bps)."
					},
					"PROTOCOL_FEE_BPS()": {
						"notice": "Protocol share of total fee in basis points (0.05% = 5 bps)."
					},
					"TOTAL_FEE_BPS()": {
						"notice": "Total swap fee in basis points (0.3% = 30 bps)."
					},
					"allPairs(uint256)": {
						"notice": "All created pairs in order of creation."
					},
					"allPairsLength()": {
						"notice": "Total number of pairs created."
					},
					"createPair(address,address)": {
						"notice": "Create a new AMM pair for tokenA and tokenB."
					},
					"emissionsWhitelist(address)": {
						"notice": "Pairs eligible for TIMBS emissions rewards.         Only TIMBS/ETH LP at launch — owner-extendable."
					},
					"feeTo()": {
						"notice": "Address that receives the protocol fee (TimbTreasury)."
					},
					"getFeeConfig()": {
						"notice": "Returns protocol fee split in basis points."
					},
					"getPair(address,address)": {
						"notice": "token0 => token1 => pair address.         token0 < token1 always (sorted on creation)."
					},
					"getPairAddress(address,address)": {
						"notice": "Returns the pair address for two tokens (either order).         Returns address(0) if the pair doesn't exist."
					},
					"getPartnerConfig(address)": {
						"notice": "Returns partner pool config for a pair."
					},
					"isPairEmissionsEligible(address)": {
						"notice": "Returns whether a pair is eligible for TIMBS emissions."
					},
					"isPartnerPool(address)": {
						"notice": "Partner pool flag — pair routes LP fees to an external         destination instead of distributing to LPs directly.         Opt-in, owner-set per pair. Not active at launch."
					},
					"partnerDestination(address)": {
						"notice": "Partner destination per pair — where LP fees are routed         when isPartnerPool[pair] == true."
					},
					"pause()": {
						"notice": "Pause pair creation. Emergency use only."
					},
					"paused()": {
						"notice": "Pair creation paused (emergency)."
					},
					"router()": {
						"notice": "Registered TimbSwapRouter — only address allowed to         call privileged factory functions."
					},
					"setEmissionsWhitelist(address,bool)": {
						"notice": "Add or remove a pair from the TIMBS emissions whitelist."
					},
					"setFeeTo(address)": {
						"notice": "Update the protocol fee recipient (TimbTreasury)."
					},
					"setPartnerPool(address,address,bool)": {
						"notice": "Designate a pair as a partner pool."
					},
					"setRouter(address)": {
						"notice": "Register the TimbSwapRouter. Required before any swaps."
					},
					"setTimbsToken(address)": {
						"notice": "Set the TIMBS token address."
					},
					"timbsToken()": {
						"notice": "TIMBS token address — used to identify the emissions pair."
					},
					"unpause()": {
						"notice": "Unpause pair creation."
					}
				},
				"notice": "Creates and indexes TimbSwap AMM pairs. Architecture:   - Uniswap v2-style factory: one pair per token0/token1 combination.   - 0.3% flat fee per swap (0.25% LP, 0.05% protocol).   - Partner pool flag: any pair can be designated to route LP fees     to an external destination (e.g. BlockpotDAO PrizeVault v3).     This is opt-in, owner-configurable per pair, not active at launch.   - Permissionless pair creation — anyone can create a pair.   - Emissions whitelist — only owner can add pairs to TIMBS rewards list. Security (defiSKILL):   - ReentrancyGuard on createPair() — pair address determined before     any external calls (prevents bonding-curve / phi H-06 pattern).   - Pair stored atomically: allPairs + getPair updated in same tx.   - No TOCTOU on pair creation (existence check before CREATE2).   - Emergency pause on pair creation.   - Router authorization stored here — Router must be registered     before it can call privileged factory functions. Deployment order:   1. Deploy TimbSwapFactory(feeTo, protocolFeeBps)   2. Deploy TimbSwapRouter(factory)   3. Call factory.setRouter(router)   4. Deploy TIMBSToken, then call setTimbsToken(address)   5. createPair(TIMBS, WETH) — seeds the emissions pair   6. addToEmissionsWhitelist(pair) for TIMBS/ETH pair only",
				"version": 1
			}
		}
	}
}