{
	"contracts/TimbSwapRouter.sol": {
		"TimbSwapRouter": {
			"abi": [
				{
					"inputs": [
						{
							"internalType": "address",
							"name": "_factory",
							"type": "address"
						},
						{
							"internalType": "address",
							"name": "_treasury",
							"type": "address"
						},
						{
							"internalType": "address",
							"name": "_eligibleRegistry",
							"type": "address"
						},
						{
							"internalType": "address",
							"name": "_timbPrize",
							"type": "address"
						}
					],
					"stateMutability": "nonpayable",
					"type": "constructor"
				},
				{
					"inputs": [],
					"name": "ExcessiveInputAmount",
					"type": "error"
				},
				{
					"inputs": [
						{
							"internalType": "uint256",
							"name": "deadline",
							"type": "uint256"
						}
					],
					"name": "Expired",
					"type": "error"
				},
				{
					"inputs": [
						{
							"internalType": "uint256",
							"name": "amountA",
							"type": "uint256"
						},
						{
							"internalType": "uint256",
							"name": "amountAMin",
							"type": "uint256"
						}
					],
					"name": "InsufficientAAmount",
					"type": "error"
				},
				{
					"inputs": [
						{
							"internalType": "uint256",
							"name": "amountB",
							"type": "uint256"
						},
						{
							"internalType": "uint256",
							"name": "amountBMin",
							"type": "uint256"
						}
					],
					"name": "InsufficientBAmount",
					"type": "error"
				},
				{
					"inputs": [
						{
							"internalType": "uint256",
							"name": "amountOut",
							"type": "uint256"
						},
						{
							"internalType": "uint256",
							"name": "amountOutMin",
							"type": "uint256"
						}
					],
					"name": "InsufficientOutputAmount",
					"type": "error"
				},
				{
					"inputs": [
						{
							"internalType": "address",
							"name": "owner",
							"type": "address"
						}
					],
					"name": "OwnableInvalidOwner",
					"type": "error"
				},
				{
					"inputs": [
						{
							"internalType": "address",
							"name": "account",
							"type": "address"
						}
					],
					"name": "OwnableUnauthorizedAccount",
					"type": "error"
				},
				{
					"inputs": [
						{
							"internalType": "address",
							"name": "tokenA",
							"type": "address"
						},
						{
							"internalType": "address",
							"name": "tokenB",
							"type": "address"
						}
					],
					"name": "PairNotFound",
					"type": "error"
				},
				{
					"inputs": [],
					"name": "ReentrancyGuardReentrantCall",
					"type": "error"
				},
				{
					"inputs": [],
					"name": "RouterPaused",
					"type": "error"
				},
				{
					"inputs": [
						{
							"internalType": "address",
							"name": "token",
							"type": "address"
						}
					],
					"name": "SafeERC20FailedOperation",
					"type": "error"
				},
				{
					"inputs": [],
					"name": "ZeroAddress",
					"type": "error"
				},
				{
					"inputs": [],
					"name": "ZeroAmount",
					"type": "error"
				},
				{
					"anonymous": false,
					"inputs": [
						{
							"indexed": true,
							"internalType": "address",
							"name": "registry",
							"type": "address"
						}
					],
					"name": "EligibleRegistrySet",
					"type": "event"
				},
				{
					"anonymous": false,
					"inputs": [
						{
							"indexed": true,
							"internalType": "address",
							"name": "pair",
							"type": "address"
						},
						{
							"indexed": true,
							"internalType": "address",
							"name": "provider",
							"type": "address"
						},
						{
							"indexed": false,
							"internalType": "uint256",
							"name": "amountA",
							"type": "uint256"
						},
						{
							"indexed": false,
							"internalType": "uint256",
							"name": "amountB",
							"type": "uint256"
						},
						{
							"indexed": false,
							"internalType": "uint256",
							"name": "liquidity",
							"type": "uint256"
						}
					],
					"name": "LiquidityAdded",
					"type": "event"
				},
				{
					"anonymous": false,
					"inputs": [
						{
							"indexed": true,
							"internalType": "address",
							"name": "pair",
							"type": "address"
						},
						{
							"indexed": true,
							"internalType": "address",
							"name": "provider",
							"type": "address"
						},
						{
							"indexed": false,
							"internalType": "uint256",
							"name": "amountA",
							"type": "uint256"
						},
						{
							"indexed": false,
							"internalType": "uint256",
							"name": "amountB",
							"type": "uint256"
						},
						{
							"indexed": false,
							"internalType": "uint256",
							"name": "liquidity",
							"type": "uint256"
						}
					],
					"name": "LiquidityRemoved",
					"type": "event"
				},
				{
					"anonymous": false,
					"inputs": [
						{
							"indexed": true,
							"internalType": "address",
							"name": "previousOwner",
							"type": "address"
						},
						{
							"indexed": true,
							"internalType": "address",
							"name": "newOwner",
							"type": "address"
						}
					],
					"name": "OwnershipTransferred",
					"type": "event"
				},
				{
					"anonymous": false,
					"inputs": [
						{
							"indexed": true,
							"internalType": "address",
							"name": "by",
							"type": "address"
						}
					],
					"name": "Paused",
					"type": "event"
				},
				{
					"anonymous": false,
					"inputs": [
						{
							"indexed": true,
							"internalType": "address",
							"name": "treasury",
							"type": "address"
						},
						{
							"indexed": true,
							"internalType": "address",
							"name": "token",
							"type": "address"
						},
						{
							"indexed": false,
							"internalType": "uint256",
							"name": "amount",
							"type": "uint256"
						}
					],
					"name": "ProtocolFeeSent",
					"type": "event"
				},
				{
					"anonymous": false,
					"inputs": [
						{
							"indexed": true,
							"internalType": "address",
							"name": "swapper",
							"type": "address"
						},
						{
							"indexed": true,
							"internalType": "address",
							"name": "tokenIn",
							"type": "address"
						}
					],
					"name": "ScrollNudged",
					"type": "event"
				},
				{
					"anonymous": false,
					"inputs": [
						{
							"indexed": false,
							"internalType": "address",
							"name": "sender",
							"type": "address"
						},
						{
							"indexed": false,
							"internalType": "address",
							"name": "tokenIn",
							"type": "address"
						},
						{
							"indexed": false,
							"internalType": "address",
							"name": "tokenOut",
							"type": "address"
						},
						{
							"indexed": false,
							"internalType": "uint256",
							"name": "amountIn",
							"type": "uint256"
						},
						{
							"indexed": false,
							"internalType": "uint256",
							"name": "amountOut",
							"type": "uint256"
						},
						{
							"indexed": false,
							"internalType": "address",
							"name": "to",
							"type": "address"
						}
					],
					"name": "SwapExecuted",
					"type": "event"
				},
				{
					"anonymous": false,
					"inputs": [
						{
							"indexed": true,
							"internalType": "address",
							"name": "timbPrize",
							"type": "address"
						}
					],
					"name": "TimbPrizeSet",
					"type": "event"
				},
				{
					"anonymous": false,
					"inputs": [
						{
							"indexed": true,
							"internalType": "address",
							"name": "oldTreasury",
							"type": "address"
						},
						{
							"indexed": true,
							"internalType": "address",
							"name": "newTreasury",
							"type": "address"
						}
					],
					"name": "TreasuryUpdated",
					"type": "event"
				},
				{
					"anonymous": false,
					"inputs": [
						{
							"indexed": true,
							"internalType": "address",
							"name": "by",
							"type": "address"
						}
					],
					"name": "Unpaused",
					"type": "event"
				},
				{
					"inputs": [],
					"name": "BPS_DENOMINATOR",
					"outputs": [
						{
							"internalType": "uint256",
							"name": "",
							"type": "uint256"
						}
					],
					"stateMutability": "view",
					"type": "function"
				},
				{
					"inputs": [],
					"name": "PROTOCOL_FEE_BPS",
					"outputs": [
						{
							"internalType": "uint256",
							"name": "",
							"type": "uint256"
						}
					],
					"stateMutability": "view",
					"type": "function"
				},
				{
					"inputs": [],
					"name": "eligibleRegistry",
					"outputs": [
						{
							"internalType": "address",
							"name": "",
							"type": "address"
						}
					],
					"stateMutability": "view",
					"type": "function"
				},
				{
					"inputs": [],
					"name": "factory",
					"outputs": [
						{
							"internalType": "address",
							"name": "",
							"type": "address"
						}
					],
					"stateMutability": "view",
					"type": "function"
				},
				{
					"inputs": [
						{
							"internalType": "uint256",
							"name": "amountOut",
							"type": "uint256"
						},
						{
							"internalType": "uint256",
							"name": "reserveIn",
							"type": "uint256"
						},
						{
							"internalType": "uint256",
							"name": "reserveOut",
							"type": "uint256"
						}
					],
					"name": "getAmountIn",
					"outputs": [
						{
							"internalType": "uint256",
							"name": "",
							"type": "uint256"
						}
					],
					"stateMutability": "pure",
					"type": "function"
				},
				{
					"inputs": [
						{
							"internalType": "uint256",
							"name": "amountIn",
							"type": "uint256"
						},
						{
							"internalType": "uint256",
							"name": "reserveIn",
							"type": "uint256"
						},
						{
							"internalType": "uint256",
							"name": "reserveOut",
							"type": "uint256"
						}
					],
					"name": "getAmountOut",
					"outputs": [
						{
							"internalType": "uint256",
							"name": "",
							"type": "uint256"
						}
					],
					"stateMutability": "pure",
					"type": "function"
				},
				{
					"inputs": [
						{
							"internalType": "address",
							"name": "tokenA",
							"type": "address"
						},
						{
							"internalType": "address",
							"name": "tokenB",
							"type": "address"
						}
					],
					"name": "getReserves",
					"outputs": [
						{
							"internalType": "uint256",
							"name": "reserveA",
							"type": "uint256"
						},
						{
							"internalType": "uint256",
							"name": "reserveB",
							"type": "uint256"
						}
					],
					"stateMutability": "view",
					"type": "function"
				},
				{
					"inputs": [],
					"name": "owner",
					"outputs": [
						{
							"internalType": "address",
							"name": "",
							"type": "address"
						}
					],
					"stateMutability": "view",
					"type": "function"
				},
				{
					"inputs": [],
					"name": "pause",
					"outputs": [],
					"stateMutability": "nonpayable",
					"type": "function"
				},
				{
					"inputs": [],
					"name": "paused",
					"outputs": [
						{
							"internalType": "bool",
							"name": "",
							"type": "bool"
						}
					],
					"stateMutability": "view",
					"type": "function"
				},
				{
					"inputs": [
						{
							"internalType": "uint256",
							"name": "amountA",
							"type": "uint256"
						},
						{
							"internalType": "uint256",
							"name": "reserveA",
							"type": "uint256"
						},
						{
							"internalType": "uint256",
							"name": "reserveB",
							"type": "uint256"
						}
					],
					"name": "quote",
					"outputs": [
						{
							"internalType": "uint256",
							"name": "",
							"type": "uint256"
						}
					],
					"stateMutability": "pure",
					"type": "function"
				},
				{
					"inputs": [],
					"name": "renounceOwnership",
					"outputs": [],
					"stateMutability": "nonpayable",
					"type": "function"
				},
				{
					"inputs": [
						{
							"internalType": "address",
							"name": "_r",
							"type": "address"
						}
					],
					"name": "setEligibleRegistry",
					"outputs": [],
					"stateMutability": "nonpayable",
					"type": "function"
				},
				{
					"inputs": [
						{
							"internalType": "address",
							"name": "_p",
							"type": "address"
						}
					],
					"name": "setTimbPrize",
					"outputs": [],
					"stateMutability": "nonpayable",
					"type": "function"
				},
				{
					"inputs": [
						{
							"internalType": "address",
							"name": "_treasury",
							"type": "address"
						}
					],
					"name": "setTreasury",
					"outputs": [],
					"stateMutability": "nonpayable",
					"type": "function"
				},
				{
					"inputs": [
						{
							"internalType": "uint256",
							"name": "amountIn",
							"type": "uint256"
						},
						{
							"internalType": "uint256",
							"name": "amountOutMin",
							"type": "uint256"
						},
						{
							"internalType": "address",
							"name": "tokenIn",
							"type": "address"
						},
						{
							"internalType": "address",
							"name": "tokenOut",
							"type": "address"
						},
						{
							"internalType": "address",
							"name": "to",
							"type": "address"
						},
						{
							"internalType": "uint256",
							"name": "deadline",
							"type": "uint256"
						},
						{
							"internalType": "bool",
							"name": "influencePrize",
							"type": "bool"
						}
					],
					"name": "swapExactTokensForTokens",
					"outputs": [
						{
							"internalType": "uint256",
							"name": "amountOut",
							"type": "uint256"
						}
					],
					"stateMutability": "nonpayable",
					"type": "function"
				},
				{
					"inputs": [
						{
							"internalType": "uint256",
							"name": "amountOut",
							"type": "uint256"
						},
						{
							"internalType": "uint256",
							"name": "amountInMax",
							"type": "uint256"
						},
						{
							"internalType": "address",
							"name": "tokenIn",
							"type": "address"
						},
						{
							"internalType": "address",
							"name": "tokenOut",
							"type": "address"
						},
						{
							"internalType": "address",
							"name": "to",
							"type": "address"
						},
						{
							"internalType": "uint256",
							"name": "deadline",
							"type": "uint256"
						},
						{
							"internalType": "bool",
							"name": "influencePrize",
							"type": "bool"
						}
					],
					"name": "swapTokensForExactTokens",
					"outputs": [
						{
							"internalType": "uint256",
							"name": "amountIn",
							"type": "uint256"
						}
					],
					"stateMutability": "nonpayable",
					"type": "function"
				},
				{
					"inputs": [],
					"name": "timbPrize",
					"outputs": [
						{
							"internalType": "address",
							"name": "",
							"type": "address"
						}
					],
					"stateMutability": "view",
					"type": "function"
				},
				{
					"inputs": [
						{
							"internalType": "address",
							"name": "newOwner",
							"type": "address"
						}
					],
					"name": "transferOwnership",
					"outputs": [],
					"stateMutability": "nonpayable",
					"type": "function"
				},
				{
					"inputs": [],
					"name": "treasury",
					"outputs": [
						{
							"internalType": "address",
							"name": "",
							"type": "address"
						}
					],
					"stateMutability": "view",
					"type": "function"
				},
				{
					"inputs": [],
					"name": "unpause",
					"outputs": [],
					"stateMutability": "nonpayable",
					"type": "function"
				}
			],
			"devdoc": {
				"errors": {
					"OwnableInvalidOwner(address)": [
						{
							"details": "The owner is not a valid owner account. (eg. `address(0)`)"
						}
					],
					"OwnableUnauthorizedAccount(address)": [
						{
							"details": "The caller account is not authorized to perform an operation."
						}
					],
					"ReentrancyGuardReentrantCall()": [
						{
							"details": "Unauthorized reentrant call."
						}
					],
					"SafeERC20FailedOperation(address)": [
						{
							"details": "An operation with an ERC-20 token failed."
						}
					]
				},
				"kind": "dev",
				"methods": {
					"owner()": {
						"details": "Returns the address of the current owner."
					},
					"renounceOwnership()": {
						"details": "Leaves the contract without owner. It will not be possible to call `onlyOwner` functions. Can only be called by the current owner. NOTE: Renouncing ownership will leave the contract without an owner, thereby disabling any functionality that is only available to the owner."
					},
					"swapExactTokensForTokens(uint256,uint256,address,address,address,uint256,bool)": {
						"params": {
							"amountIn": "Exact input amount.",
							"amountOutMin": "Minimum output (slippage protection).",
							"deadline": "Unix timestamp.",
							"influencePrize": "If true, nudge prize scroll after swap.",
							"to": "Recipient of output tokens.",
							"tokenIn": "Token being sold.",
							"tokenOut": "Token being bought."
						},
						"returns": {
							"amountOut": "    Actual output received."
						}
					},
					"swapTokensForExactTokens(uint256,uint256,address,address,address,uint256,bool)": {
						"params": {
							"amountInMax": "Maximum input (slippage protection).",
							"amountOut": "Exact output desired.",
							"deadline": "Unix timestamp.",
							"influencePrize": "If true, nudge prize scroll after swap.",
							"to": "Recipient of output tokens.",
							"tokenIn": "Token being sold.",
							"tokenOut": "Token being bought."
						},
						"returns": {
							"amountIn": "     Actual input spent."
						}
					},
					"transferOwnership(address)": {
						"details": "Transfers ownership of the contract to a new account (`newOwner`). Can only be called by the current owner."
					}
				},
				"title": "TimbSwapRouter",
				"version": 1
			},
			"evm": {
				"assembly": "    /* \"contracts/TimbSwapRouter.sol\":1625:14731  contract TimbSwapRouter is Ownable, ReentrancyGuard {... */\n  mstore(0x40, 0xa0)\n    /* \"contracts/TimbSwapRouter.sol\":4863:5302  constructor(... */\n  callvalue\n  dup1\n  iszero\n  tag_1\n  jumpi\n  0x00\n  dup1\n  revert\ntag_1:\n  pop\n  mload(0x40)\n  sub(codesize, bytecodeSize)\n  dup1\n  bytecodeSize\n  dup4\n  codecopy\n  dup2\n  add\n  0x40\n  dup2\n  swap1\n  mstore\n  tag_2\n  swap2\n  tag_3\n  jump\t// in\ntag_2:\n    /* \"contracts/TimbSwapRouter.sol\":5005:5015  msg.sender */\n  caller\n  dup1\n    /* \"@openzeppelin/contracts/access/Ownable.sol\":1269:1364  if (initialOwner == address(0)) {... */\n  tag_8\n  jumpi\n    /* \"@openzeppelin/contracts/access/Ownable.sol\":1322:1353  OwnableInvalidOwner(address(0)) */\n  mload(0x40)\n  shl(0xe0, 0x1e4fbdf7)\n  dup2\n  mstore\n    /* \"@openzeppelin/contracts/access/Ownable.sol\":1350:1351  0 */\n  0x00\n    /* \"@openzeppelin/contracts/access/Ownable.sol\":1322:1353  OwnableInvalidOwner(address(0)) */\n  0x04\n  dup3\n  add\n    /* \"#utility.yul\":811:862   */\n  mstore\n    /* \"#utility.yul\":784:802   */\n  0x24\n  add\n    /* \"@openzeppelin/contracts/access/Ownable.sol\":1322:1353  OwnableInvalidOwner(address(0)) */\n  mload(0x40)\n  dup1\n  swap2\n  sub\n  swap1\n  revert\n    /* \"@openzeppelin/contracts/access/Ownable.sol\":1269:1364  if (initialOwner == address(0)) {... */\ntag_8:\n    /* \"@openzeppelin/contracts/access/Ownable.sol\":1373:1405  _transferOwnership(initialOwner) */\n  tag_11\n    /* \"@openzeppelin/contracts/access/Ownable.sol\":1392:1404  initialOwner */\n  dup2\n    /* \"@openzeppelin/contracts/access/Ownable.sol\":1373:1391  _transferOwnership */\n  tag_12\n    /* \"@openzeppelin/contracts/access/Ownable.sol\":1373:1405  _transferOwnership(initialOwner) */\n  jump\t// in\ntag_11:\n  pop\n    /* \"@openzeppelin/contracts/utils/ReentrancyGuard.sol\":2365:2366  1 */\n  0x01\n    /* \"@openzeppelin/contracts/utils/ReentrancyGuard.sol\":1505:1571  0x9b779b17422d0df92223018b32b4d1fa46e071723d6817e2486d003becc55f00 */\n  0x9b779b17422d0df92223018b32b4d1fa46e071723d6817e2486d003becc55f00\n    /* \"@openzeppelin/contracts/utils/ReentrancyGuard.sol\":2539:2605  _reentrancyGuardStorageSlot().getUint256Slot().value = NOT_ENTERED */\n  sstore\n  sub(shl(0xa0, 0x01), 0x01)\n    /* \"contracts/TimbSwapRouter.sol\":5031:5054  _factory  == address(0) */\n  dup5\n  and\n    /* \"contracts/TimbSwapRouter.sol\":5027:5076  if (_factory  == address(0)) revert ZeroAddress() */\n  tag_19\n  jumpi\n    /* \"contracts/TimbSwapRouter.sol\":5063:5076  ZeroAddress() */\n  mload(0x40)\n  shl(0xe0, 0xd92e233d)\n  dup2\n  mstore\n  0x04\n  add\n  mload(0x40)\n  dup1\n  swap2\n  sub\n  swap1\n  revert\n    /* \"contracts/TimbSwapRouter.sol\":5027:5076  if (_factory  == address(0)) revert ZeroAddress() */\ntag_19:\n  sub(shl(0xa0, 0x01), 0x01)\n    /* \"contracts/TimbSwapRouter.sol\":5090:5113  _treasury == address(0) */\n  dup4\n  and\n    /* \"contracts/TimbSwapRouter.sol\":5086:5135  if (_treasury == address(0)) revert ZeroAddress() */\n  tag_20\n  jumpi\n    /* \"contracts/TimbSwapRouter.sol\":5122:5135  ZeroAddress() */\n  mload(0x40)\n  shl(0xe0, 0xd92e233d)\n  dup2\n  mstore\n  0x04\n  add\n  mload(0x40)\n  dup1\n  swap2\n  sub\n  swap1\n  revert\n    /* \"contracts/TimbSwapRouter.sol\":5086:5135  if (_treasury == address(0)) revert ZeroAddress() */\ntag_20:\n  sub(shl(0xa0, 0x01), 0x01)\n    /* \"contracts/TimbSwapRouter.sol\":5145:5172  factory          = _factory */\n  swap4\n  dup5\n  and\n  0x80\n  mstore\n    /* \"contracts/TimbSwapRouter.sol\":5182:5190  treasury */\n  0x01\n    /* \"contracts/TimbSwapRouter.sol\":5182:5210  treasury         = _treasury */\n  dup1\n  sload\n  swap4\n  dup6\n  and\n  not(sub(shl(0xa0, 0x01), 0x01))\n  swap5\n  dup6\n  and\n  or\n  swap1\n  sstore\n    /* \"contracts/TimbSwapRouter.sol\":5220:5236  eligibleRegistry */\n  0x02\n    /* \"contracts/TimbSwapRouter.sol\":5220:5256  eligibleRegistry = _eligibleRegistry */\n  dup1\n  sload\n  swap3\n  dup6\n  and\n  swap3\n  dup5\n  and\n  swap3\n  swap1\n  swap3\n  or\n  swap1\n  swap2\n  sstore\n    /* \"contracts/TimbSwapRouter.sol\":5266:5275  timbPrize */\n  0x03\n    /* \"contracts/TimbSwapRouter.sol\":5266:5295  timbPrize        = _timbPrize */\n  dup1\n  sload\n  swap2\n  swap1\n  swap4\n  and\n  swap2\n  and\n  or\n  swap1\n  sstore\n    /* \"contracts/TimbSwapRouter.sol\":1625:14731  contract TimbSwapRouter is Ownable, ReentrancyGuard {... */\n  jump(tag_26)\n    /* \"@openzeppelin/contracts/access/Ownable.sol\":2912:3099  function _transferOwnership(address newOwner) internal virtual {... */\ntag_12:\n    /* \"@openzeppelin/contracts/access/Ownable.sol\":2985:3001  address oldOwner */\n  0x00\n    /* \"@openzeppelin/contracts/access/Ownable.sol\":3004:3010  _owner */\n  dup1\n  sload\n  sub(shl(0xa0, 0x01), 0x01)\n    /* \"@openzeppelin/contracts/access/Ownable.sol\":3020:3037  _owner = newOwner */\n  dup4\n  dup2\n  and\n  not(sub(shl(0xa0, 0x01), 0x01))\n  dup4\n  and\n  dup2\n  or\n  dup5\n  sstore\n    /* \"@openzeppelin/contracts/access/Ownable.sol\":3052:3092  OwnershipTransferred(oldOwner, newOwner) */\n  mload(0x40)\n    /* \"@openzeppelin/contracts/access/Ownable.sol\":3004:3010  _owner */\n  swap2\n  swap1\n  swap3\n  and\n  swap3\n  dup4\n  swap2\n    /* \"@openzeppelin/contracts/access/Ownable.sol\":3052:3092  OwnershipTransferred(oldOwner, newOwner) */\n  0x8be0079c531659141344cd1fd0a4f28419497f9722a3daafe3b4186f6b6457e0\n  swap2\n    /* \"@openzeppelin/contracts/access/Ownable.sol\":2985:3001  address oldOwner */\n  swap1\n    /* \"@openzeppelin/contracts/access/Ownable.sol\":3052:3092  OwnershipTransferred(oldOwner, newOwner) */\n  log3\n    /* \"@openzeppelin/contracts/access/Ownable.sol\":2975:3099  {... */\n  pop\n    /* \"@openzeppelin/contracts/access/Ownable.sol\":2912:3099  function _transferOwnership(address newOwner) internal virtual {... */\n  pop\n  jump\t// out\n    /* \"#utility.yul\":14:191   */\ntag_25:\n    /* \"#utility.yul\":93:106   */\n  dup1\n  mload\n  sub(shl(0xa0, 0x01), 0x01)\n    /* \"#utility.yul\":135:166   */\n  dup2\n  and\n    /* \"#utility.yul\":125:167   */\n  dup2\n  eq\n    /* \"#utility.yul\":115:185   */\n  tag_28\n  jumpi\n    /* \"#utility.yul\":181:182   */\n  0x00\n    /* \"#utility.yul\":178:179   */\n  dup1\n    /* \"#utility.yul\":171:183   */\n  revert\n    /* \"#utility.yul\":115:185   */\ntag_28:\n    /* \"#utility.yul\":14:191   */\n  swap2\n  swap1\n  pop\n  jump\t// out\n    /* \"#utility.yul\":196:660   */\ntag_3:\n    /* \"#utility.yul\":293:299   */\n  0x00\n    /* \"#utility.yul\":301:307   */\n  dup1\n    /* \"#utility.yul\":309:315   */\n  0x00\n    /* \"#utility.yul\":317:323   */\n  dup1\n    /* \"#utility.yul\":370:373   */\n  0x80\n    /* \"#utility.yul\":358:367   */\n  dup6\n    /* \"#utility.yul\":349:356   */\n  dup8\n    /* \"#utility.yul\":345:368   */\n  sub\n    /* \"#utility.yul\":341:374   */\n  slt\n    /* \"#utility.yul\":338:391   */\n  iszero\n  tag_30\n  jumpi\n    /* \"#utility.yul\":387:388   */\n  0x00\n    /* \"#utility.yul\":384:385   */\n  dup1\n    /* \"#utility.yul\":377:389   */\n  revert\n    /* \"#utility.yul\":338:391   */\ntag_30:\n    /* \"#utility.yul\":410:450   */\n  tag_31\n    /* \"#utility.yul\":440:449   */\n  dup6\n    /* \"#utility.yul\":410:450   */\n  tag_25\n  jump\t// in\ntag_31:\n    /* \"#utility.yul\":400:450   */\n  swap4\n  pop\n    /* \"#utility.yul\":469:518   */\n  tag_32\n    /* \"#utility.yul\":514:516   */\n  0x20\n    /* \"#utility.yul\":503:512   */\n  dup7\n    /* \"#utility.yul\":499:517   */\n  add\n    /* \"#utility.yul\":469:518   */\n  tag_25\n  jump\t// in\ntag_32:\n    /* \"#utility.yul\":459:518   */\n  swap3\n  pop\n    /* \"#utility.yul\":537:586   */\n  tag_33\n    /* \"#utility.yul\":582:584   */\n  0x40\n    /* \"#utility.yul\":571:580   */\n  dup7\n    /* \"#utility.yul\":567:585   */\n  add\n    /* \"#utility.yul\":537:586   */\n  tag_25\n  jump\t// in\ntag_33:\n    /* \"#utility.yul\":527:586   */\n  swap2\n  pop\n    /* \"#utility.yul\":605:654   */\n  tag_34\n    /* \"#utility.yul\":650:652   */\n  0x60\n    /* \"#utility.yul\":639:648   */\n  dup7\n    /* \"#utility.yul\":635:653   */\n  add\n    /* \"#utility.yul\":605:654   */\n  tag_25\n  jump\t// in\ntag_34:\n    /* \"#utility.yul\":595:654   */\n  swap1\n  pop\n    /* \"#utility.yul\":196:660   */\n  swap3\n  swap6\n  swap2\n  swap5\n  pop\n  swap3\n  pop\n  jump\t// out\n    /* \"#utility.yul\":665:868   */\ntag_26:\n    /* \"contracts/TimbSwapRouter.sol\":1625:14731  contract TimbSwapRouter is Ownable, ReentrancyGuard {... */\n  mload(0x80)\n  codecopy(0x00, dataOffset(sub_0), dataSize(sub_0))\n  0x00\n  assignImmutable(\"0xe9cf9669d9e5ab0721fa533aa525e1db68a03c1f18695dcab12e6ac685254f11\")\n  return(0x00, dataSize(sub_0))\nstop\n\nsub_0: assembly {\n        /* \"contracts/TimbSwapRouter.sol\":1625:14731  contract TimbSwapRouter is Ownable, ReentrancyGuard {... */\n      mstore(0x40, 0x80)\n      callvalue\n      dup1\n      iszero\n      tag_1\n      jumpi\n      0x00\n      dup1\n      revert\n    tag_1:\n      pop\n      jumpi(tag_2, lt(calldatasize, 0x04))\n      shr(0xe0, calldataload(0x00))\n      dup1\n      0x8da5cb5b\n      gt\n      tag_24\n      jumpi\n      dup1\n      0xd52bb6f4\n      gt\n      tag_25\n      jumpi\n      dup1\n      0xd52bb6f4\n      eq\n      tag_18\n      jumpi\n      dup1\n      0xe1a45218\n      eq\n      tag_19\n      jumpi\n      dup1\n      0xe98f6797\n      eq\n      tag_20\n      jumpi\n      dup1\n      0xf0f44260\n      eq\n      tag_21\n      jumpi\n      dup1\n      0xf13afb90\n      eq\n      tag_22\n      jumpi\n      dup1\n      0xf2fde38b\n      eq\n      tag_23\n      jumpi\n      0x00\n      dup1\n      revert\n    tag_25:\n      dup1\n      0x8da5cb5b\n      eq\n      tag_13\n      jumpi\n      dup1\n      0x92eaa9d9\n      eq\n      tag_14\n      jumpi\n      dup1\n      0xad615dec\n      eq\n      tag_15\n      jumpi\n      dup1\n      0xbe378228\n      eq\n      tag_16\n      jumpi\n      dup1\n      0xc45a0155\n      eq\n      tag_17\n      jumpi\n      0x00\n      dup1\n      revert\n    tag_24:\n      dup1\n      0x5c975abb\n      gt\n      tag_26\n      jumpi\n      dup1\n      0x5c975abb\n      eq\n      tag_8\n      jumpi\n      dup1\n      0x61d027b3\n      eq\n      tag_9\n      jumpi\n      dup1\n      0x715018a6\n      eq\n      tag_10\n      jumpi\n      dup1\n      0x8456cb59\n      eq\n      tag_11\n      jumpi\n      dup1\n      0x85f8c259\n      eq\n      tag_12\n      jumpi\n      0x00\n      dup1\n      revert\n    tag_26:\n      dup1\n      0x054d50d4\n      eq\n      tag_3\n      jumpi\n      dup1\n      0x27b23849\n      eq\n      tag_4\n      jumpi\n      dup1\n      0x3824659c\n      eq\n      tag_5\n      jumpi\n      dup1\n      0x3f4ba83a\n      eq\n      tag_6\n      jumpi\n      dup1\n      0x5364276d\n      eq\n      tag_7\n      jumpi\n    tag_2:\n      0x00\n      dup1\n      revert\n        /* \"contracts/TimbSwapRouter.sol\":10823:11004  function getAmountOut(uint256 amountIn, uint256 reserveIn, uint256 reserveOut)... */\n    tag_3:\n      tag_27\n      tag_28\n      calldatasize\n      0x04\n      tag_29\n      jump\t// in\n    tag_28:\n      tag_30\n      jump\t// in\n    tag_27:\n      mload(0x40)\n        /* \"#utility.yul\":481:506   */\n      swap1\n      dup2\n      mstore\n        /* \"#utility.yul\":469:471   */\n      0x20\n        /* \"#utility.yul\":454:472   */\n      add\n        /* \"contracts/TimbSwapRouter.sol\":10823:11004  function getAmountOut(uint256 amountIn, uint256 reserveIn, uint256 reserveOut)... */\n    tag_31:\n      mload(0x40)\n      dup1\n      swap2\n      sub\n      swap1\n      return\n        /* \"contracts/TimbSwapRouter.sol\":5865:5980  function setTimbPrize(address _p) external onlyOwner {... */\n    tag_4:\n      tag_33\n      tag_34\n      calldatasize\n      0x04\n      tag_35\n      jump\t// in\n    tag_34:\n      tag_36\n      jump\t// in\n    tag_33:\n      stop\n        /* \"contracts/TimbSwapRouter.sol\":12394:13217  function swapExactTokensForTokens(... */\n    tag_5:\n      tag_27\n      tag_38\n      calldatasize\n      0x04\n      tag_39\n      jump\t// in\n    tag_38:\n      tag_40\n      jump\t// in\n        /* \"contracts/TimbSwapRouter.sol\":6073:6157  function unpause() external onlyOwner { paused = false; emit Unpaused(msg.sender); } */\n    tag_6:\n      tag_33\n      tag_43\n      jump\t// in\n        /* \"contracts/TimbSwapRouter.sol\":2211:2235  address public timbPrize */\n    tag_7:\n      sload(0x03)\n      tag_44\n      swap1\n      sub(shl(0xa0, 0x01), 0x01)\n      and\n      dup2\n      jump\n    tag_44:\n      mload(0x40)\n      sub(shl(0xa0, 0x01), 0x01)\n        /* \"#utility.yul\":2069:2101   */\n      swap1\n      swap2\n      and\n        /* \"#utility.yul\":2051:2102   */\n      dup2\n      mstore\n        /* \"#utility.yul\":2039:2041   */\n      0x20\n        /* \"#utility.yul\":2024:2042   */\n      add\n        /* \"contracts/TimbSwapRouter.sol\":2211:2235  address public timbPrize */\n      tag_31\n        /* \"#utility.yul\":1905:2108   */\n      jump\n        /* \"contracts/TimbSwapRouter.sol\":2241:2262  bool    public paused */\n    tag_8:\n      sload(0x03)\n      tag_48\n      swap1\n      shl(0xa0, 0x01)\n      swap1\n      div\n      0xff\n      and\n      dup2\n      jump\n    tag_48:\n      mload(0x40)\n        /* \"#utility.yul\":2278:2292   */\n      swap1\n      iszero\n        /* \"#utility.yul\":2271:2293   */\n      iszero\n        /* \"#utility.yul\":2253:2294   */\n      dup2\n      mstore\n        /* \"#utility.yul\":2241:2243   */\n      0x20\n        /* \"#utility.yul\":2226:2244   */\n      add\n        /* \"contracts/TimbSwapRouter.sol\":2241:2262  bool    public paused */\n      tag_31\n        /* \"#utility.yul\":2113:2300   */\n      jump\n        /* \"contracts/TimbSwapRouter.sol\":2145:2168  address public treasury */\n    tag_9:\n      sload(0x01)\n      tag_44\n      swap1\n      sub(shl(0xa0, 0x01), 0x01)\n      and\n      dup2\n      jump\n        /* \"@openzeppelin/contracts/access/Ownable.sol\":2293:2394  function renounceOwnership() public virtual onlyOwner {... */\n    tag_10:\n      tag_33\n      tag_56\n      jump\t// in\n        /* \"contracts/TimbSwapRouter.sol\":5986:6068  function pause()   external onlyOwner { paused = true;  emit Paused(msg.sender); } */\n    tag_11:\n      tag_33\n      tag_58\n      jump\t// in\n        /* \"contracts/TimbSwapRouter.sol\":11010:11191  function getAmountIn(uint256 amountOut, uint256 reserveIn, uint256 reserveOut)... */\n    tag_12:\n      tag_27\n      tag_60\n      calldatasize\n      0x04\n      tag_29\n      jump\t// in\n    tag_60:\n      tag_61\n      jump\t// in\n        /* \"@openzeppelin/contracts/access/Ownable.sol\":1638:1723  function owner() public view virtual returns (address) {... */\n    tag_13:\n        /* \"@openzeppelin/contracts/access/Ownable.sol\":1684:1691  address */\n      0x00\n        /* \"@openzeppelin/contracts/access/Ownable.sol\":1710:1716  _owner */\n      sload\n      sub(shl(0xa0, 0x01), 0x01)\n      and\n        /* \"@openzeppelin/contracts/access/Ownable.sol\":1638:1723  function owner() public view virtual returns (address) {... */\n      jump(tag_44)\n        /* \"contracts/TimbSwapRouter.sol\":2174:2205  address public eligibleRegistry */\n    tag_14:\n      sload(0x02)\n      tag_44\n      swap1\n      sub(shl(0xa0, 0x01), 0x01)\n      and\n      dup2\n      jump\n        /* \"contracts/TimbSwapRouter.sol\":11197:11356  function quote(uint256 amountA, uint256 reserveA, uint256 reserveB)... */\n    tag_15:\n      tag_27\n      tag_70\n      calldatasize\n      0x04\n      tag_29\n      jump\t// in\n    tag_70:\n      tag_71\n      jump\t// in\n        /* \"contracts/TimbSwapRouter.sol\":2475:2519  uint256 public constant PROTOCOL_FEE_BPS = 5 */\n    tag_16:\n      tag_27\n        /* \"contracts/TimbSwapRouter.sol\":2518:2519  5 */\n      0x05\n        /* \"contracts/TimbSwapRouter.sol\":2475:2519  uint256 public constant PROTOCOL_FEE_BPS = 5 */\n      dup2\n      jump\n        /* \"contracts/TimbSwapRouter.sol\":1892:1924  address public immutable factory */\n    tag_17:\n      tag_44\n      immutable(\"0xe9cf9669d9e5ab0721fa533aa525e1db68a03c1f18695dcab12e6ac685254f11\")\n      dup2\n      jump\n        /* \"contracts/TimbSwapRouter.sol\":11362:11656  function getReserves(address tokenA, address tokenB)... */\n    tag_18:\n      tag_79\n      tag_80\n      calldatasize\n      0x04\n      tag_81\n      jump\t// in\n    tag_80:\n      tag_82\n      jump\t// in\n    tag_79:\n      0x40\n      dup1\n      mload\n        /* \"#utility.yul\":2872:2897   */\n      swap3\n      dup4\n      mstore\n        /* \"#utility.yul\":2928:2930   */\n      0x20\n        /* \"#utility.yul\":2913:2931   */\n      dup4\n      add\n        /* \"#utility.yul\":2906:2940   */\n      swap2\n      swap1\n      swap2\n      mstore\n        /* \"#utility.yul\":2845:2863   */\n      add\n        /* \"contracts/TimbSwapRouter.sol\":11362:11656  function getReserves(address tokenA, address tokenB)... */\n      tag_31\n        /* \"#utility.yul\":2698:2946   */\n      jump\n        /* \"contracts/TimbSwapRouter.sol\":2525:2574  uint256 public constant BPS_DENOMINATOR  = 10_000 */\n    tag_19:\n      tag_27\n        /* \"contracts/TimbSwapRouter.sol\":2568:2574  10_000 */\n      0x2710\n        /* \"contracts/TimbSwapRouter.sol\":2525:2574  uint256 public constant BPS_DENOMINATOR  = 10_000 */\n      dup2\n      jump\n        /* \"contracts/TimbSwapRouter.sol\":13949:14729  function swapTokensForExactTokens(... */\n    tag_20:\n      tag_27\n      tag_89\n      calldatasize\n      0x04\n      tag_39\n      jump\t// in\n    tag_89:\n      tag_90\n      jump\t// in\n        /* \"contracts/TimbSwapRouter.sol\":5511:5717  function setTreasury(address _treasury) external onlyOwner {... */\n    tag_21:\n      tag_33\n      tag_93\n      calldatasize\n      0x04\n      tag_35\n      jump\t// in\n    tag_93:\n      tag_94\n      jump\t// in\n        /* \"contracts/TimbSwapRouter.sol\":5723:5859  function setEligibleRegistry(address _r) external onlyOwner {... */\n    tag_22:\n      tag_33\n      tag_96\n      calldatasize\n      0x04\n      tag_35\n      jump\t// in\n    tag_96:\n      tag_97\n      jump\t// in\n        /* \"@openzeppelin/contracts/access/Ownable.sol\":2543:2758  function transferOwnership(address newOwner) public virtual onlyOwner {... */\n    tag_23:\n      tag_33\n      tag_99\n      calldatasize\n      0x04\n      tag_35\n      jump\t// in\n    tag_99:\n      tag_100\n      jump\t// in\n        /* \"contracts/TimbSwapRouter.sol\":10823:11004  function getAmountOut(uint256 amountIn, uint256 reserveIn, uint256 reserveOut)... */\n    tag_30:\n        /* \"contracts/TimbSwapRouter.sol\":10933:10940  uint256 */\n      0x00\n        /* \"contracts/TimbSwapRouter.sol\":10955:11001  _getAmountOut(amountIn, reserveIn, reserveOut) */\n      tag_102\n        /* \"contracts/TimbSwapRouter.sol\":10969:10977  amountIn */\n      dup5\n        /* \"contracts/TimbSwapRouter.sol\":10979:10988  reserveIn */\n      dup5\n        /* \"contracts/TimbSwapRouter.sol\":10990:11000  reserveOut */\n      dup5\n        /* \"contracts/TimbSwapRouter.sol\":10955:10968  _getAmountOut */\n      tag_103\n        /* \"contracts/TimbSwapRouter.sol\":10955:11001  _getAmountOut(amountIn, reserveIn, reserveOut) */\n      jump\t// in\n    tag_102:\n        /* \"contracts/TimbSwapRouter.sol\":10948:11001  return _getAmountOut(amountIn, reserveIn, reserveOut) */\n      swap5\n        /* \"contracts/TimbSwapRouter.sol\":10823:11004  function getAmountOut(uint256 amountIn, uint256 reserveIn, uint256 reserveOut)... */\n      swap4\n      pop\n      pop\n      pop\n      pop\n      jump\t// out\n        /* \"contracts/TimbSwapRouter.sol\":5865:5980  function setTimbPrize(address _p) external onlyOwner {... */\n    tag_36:\n        /* \"@openzeppelin/contracts/access/Ownable.sol\":1531:1544  _checkOwner() */\n      tag_105\n        /* \"@openzeppelin/contracts/access/Ownable.sol\":1531:1542  _checkOwner */\n      tag_106\n        /* \"@openzeppelin/contracts/access/Ownable.sol\":1531:1544  _checkOwner() */\n      jump\t// in\n    tag_105:\n        /* \"contracts/TimbSwapRouter.sol\":5928:5937  timbPrize */\n      0x03\n        /* \"contracts/TimbSwapRouter.sol\":5928:5942  timbPrize = _p */\n      dup1\n      sload\n      not(sub(shl(0xa0, 0x01), 0x01))\n      and\n      sub(shl(0xa0, 0x01), 0x01)\n      dup4\n      and\n      swap1\n      dup2\n      or\n      swap1\n      swap2\n      sstore\n        /* \"contracts/TimbSwapRouter.sol\":5957:5973  TimbPrizeSet(_p) */\n      mload(0x40)\n      0x89386b8711bad3ec737a1746dbcc52de03de68add300345f9acb944c28ae03f3\n      swap1\n      0x00\n      swap1\n      log2\n        /* \"contracts/TimbSwapRouter.sol\":5865:5980  function setTimbPrize(address _p) external onlyOwner {... */\n      pop\n      jump\t// out\n        /* \"contracts/TimbSwapRouter.sol\":12394:13217  function swapExactTokensForTokens(... */\n    tag_40:\n        /* \"contracts/TimbSwapRouter.sol\":12721:12738  uint256 amountOut */\n      0x00\n        /* \"@openzeppelin/contracts/utils/ReentrancyGuard.sol\":3023:3044  _nonReentrantBefore() */\n      tag_109\n        /* \"@openzeppelin/contracts/utils/ReentrancyGuard.sol\":3023:3042  _nonReentrantBefore */\n      tag_110\n        /* \"@openzeppelin/contracts/utils/ReentrancyGuard.sol\":3023:3044  _nonReentrantBefore() */\n      jump\t// in\n    tag_109:\n        /* \"contracts/TimbSwapRouter.sol\":4608:4614  paused */\n      sload(0x03)\n      shl(0xa0, 0x01)\n      swap1\n      div\n      0xff\n      and\n        /* \"contracts/TimbSwapRouter.sol\":4604:4637  if (paused) revert RouterPaused() */\n      iszero\n      tag_112\n      jumpi\n        /* \"contracts/TimbSwapRouter.sol\":4623:4637  RouterPaused() */\n      mload(0x40)\n      shl(0xe5, 0x07ab15ad)\n      dup2\n      mstore\n      0x04\n      add\n      mload(0x40)\n      dup1\n      swap2\n      sub\n      swap1\n      revert\n        /* \"contracts/TimbSwapRouter.sol\":4604:4637  if (paused) revert RouterPaused() */\n    tag_112:\n        /* \"contracts/TimbSwapRouter.sol\":12694:12702  deadline */\n      dup3\n        /* \"contracts/TimbSwapRouter.sol\":4511:4519  deadline */\n      dup1\n        /* \"contracts/TimbSwapRouter.sol\":4493:4508  block.timestamp */\n      timestamp\n        /* \"contracts/TimbSwapRouter.sol\":4493:4519  block.timestamp > deadline */\n      gt\n        /* \"contracts/TimbSwapRouter.sol\":4489:4545  if (block.timestamp > deadline) revert Expired(deadline) */\n      iszero\n      tag_114\n      jumpi\n        /* \"contracts/TimbSwapRouter.sol\":4528:4545  Expired(deadline) */\n      mload(0x40)\n      shl(0xe1, 0x7c06dd75)\n      dup2\n      mstore\n      0x04\n      dup2\n      add\n        /* \"#utility.yul\":481:506   */\n      dup3\n      swap1\n      mstore\n        /* \"#utility.yul\":454:472   */\n      0x24\n      add\n        /* \"contracts/TimbSwapRouter.sol\":4528:4545  Expired(deadline) */\n    tag_115:\n      mload(0x40)\n      dup1\n      swap2\n      sub\n      swap1\n      revert\n        /* \"contracts/TimbSwapRouter.sol\":4489:4545  if (block.timestamp > deadline) revert Expired(deadline) */\n    tag_114:\n        /* \"contracts/TimbSwapRouter.sol\":12758:12766  amountIn */\n      dup9\n        /* \"contracts/TimbSwapRouter.sol\":12770:12771  0 */\n      0x00\n        /* \"contracts/TimbSwapRouter.sol\":12758:12771  amountIn == 0 */\n      sub\n        /* \"contracts/TimbSwapRouter.sol\":12754:12795  if (amountIn == 0)    revert ZeroAmount() */\n      tag_117\n      jumpi\n        /* \"contracts/TimbSwapRouter.sol\":12783:12795  ZeroAmount() */\n      mload(0x40)\n      shl(0xe0, 0x1f2a2005)\n      dup2\n      mstore\n      0x04\n      add\n      mload(0x40)\n      dup1\n      swap2\n      sub\n      swap1\n      revert\n        /* \"contracts/TimbSwapRouter.sol\":12754:12795  if (amountIn == 0)    revert ZeroAmount() */\n    tag_117:\n      sub(shl(0xa0, 0x01), 0x01)\n        /* \"contracts/TimbSwapRouter.sol\":12809:12825  to == address(0) */\n      dup6\n      and\n        /* \"contracts/TimbSwapRouter.sol\":12805:12847  if (to == address(0)) revert ZeroAddress() */\n      tag_118\n      jumpi\n        /* \"contracts/TimbSwapRouter.sol\":12834:12847  ZeroAddress() */\n      mload(0x40)\n      shl(0xe0, 0xd92e233d)\n      dup2\n      mstore\n      0x04\n      add\n      mload(0x40)\n      dup1\n      swap2\n      sub\n      swap1\n      revert\n        /* \"contracts/TimbSwapRouter.sol\":12805:12847  if (to == address(0)) revert ZeroAddress() */\n    tag_118:\n        /* \"contracts/TimbSwapRouter.sol\":12859:12876  uint256 reserveIn */\n      0x00\n        /* \"contracts/TimbSwapRouter.sol\":12878:12896  uint256 reserveOut */\n      dup1\n        /* \"contracts/TimbSwapRouter.sol\":12900:12950  _getReserves(_getPair(tokenIn, tokenOut), tokenIn) */\n      tag_119\n        /* \"contracts/TimbSwapRouter.sol\":12913:12940  _getPair(tokenIn, tokenOut) */\n      tag_120\n        /* \"contracts/TimbSwapRouter.sol\":12922:12929  tokenIn */\n      dup11\n        /* \"contracts/TimbSwapRouter.sol\":12931:12939  tokenOut */\n      dup11\n        /* \"contracts/TimbSwapRouter.sol\":12913:12921  _getPair */\n      tag_121\n        /* \"contracts/TimbSwapRouter.sol\":12913:12940  _getPair(tokenIn, tokenOut) */\n      jump\t// in\n    tag_120:\n        /* \"contracts/TimbSwapRouter.sol\":12942:12949  tokenIn */\n      dup11\n        /* \"contracts/TimbSwapRouter.sol\":12900:12912  _getReserves */\n      tag_122\n        /* \"contracts/TimbSwapRouter.sol\":12900:12950  _getReserves(_getPair(tokenIn, tokenOut), tokenIn) */\n      jump\t// in\n    tag_119:\n        /* \"contracts/TimbSwapRouter.sol\":12858:12950  (uint256 reserveIn, uint256 reserveOut) = _getReserves(_getPair(tokenIn, tokenOut), tokenIn) */\n      swap2\n      pop\n      swap2\n      pop\n        /* \"contracts/TimbSwapRouter.sol\":12972:13018  _getAmountOut(amountIn, reserveIn, reserveOut) */\n      tag_123\n        /* \"contracts/TimbSwapRouter.sol\":12986:12994  amountIn */\n      dup12\n        /* \"contracts/TimbSwapRouter.sol\":12996:13005  reserveIn */\n      dup4\n        /* \"contracts/TimbSwapRouter.sol\":13007:13017  reserveOut */\n      dup4\n        /* \"contracts/TimbSwapRouter.sol\":12972:12985  _getAmountOut */\n      tag_103\n        /* \"contracts/TimbSwapRouter.sol\":12972:13018  _getAmountOut(amountIn, reserveIn, reserveOut) */\n      jump\t// in\n    tag_123:\n        /* \"contracts/TimbSwapRouter.sol\":12960:13018  amountOut = _getAmountOut(amountIn, reserveIn, reserveOut) */\n      swap4\n      pop\n        /* \"contracts/TimbSwapRouter.sol\":13045:13057  amountOutMin */\n      dup10\n        /* \"contracts/TimbSwapRouter.sol\":13033:13042  amountOut */\n      dup5\n        /* \"contracts/TimbSwapRouter.sol\":13033:13057  amountOut < amountOutMin */\n      lt\n        /* \"contracts/TimbSwapRouter.sol\":13029:13127  if (amountOut < amountOutMin)... */\n      iszero\n      tag_124\n      jumpi\n        /* \"contracts/TimbSwapRouter.sol\":13078:13127  InsufficientOutputAmount(amountOut, amountOutMin) */\n      mload(0x40)\n      shl(0xe0, 0xd28d3eb5)\n      dup2\n      mstore\n      0x04\n      dup2\n      add\n        /* \"#utility.yul\":2872:2897   */\n      dup6\n      swap1\n      mstore\n        /* \"#utility.yul\":2913:2931   */\n      0x24\n      dup2\n      add\n        /* \"#utility.yul\":2906:2940   */\n      dup12\n      swap1\n      mstore\n        /* \"#utility.yul\":2845:2863   */\n      0x44\n      add\n        /* \"contracts/TimbSwapRouter.sol\":13078:13127  InsufficientOutputAmount(amountOut, amountOutMin) */\n      tag_115\n        /* \"#utility.yul\":2698:2946   */\n      jump\n        /* \"contracts/TimbSwapRouter.sol\":13029:13127  if (amountOut < amountOutMin)... */\n    tag_124:\n        /* \"contracts/TimbSwapRouter.sol\":13138:13210  _executeSwap(tokenIn, tokenOut, amountIn, amountOut, to, influencePrize) */\n      tag_126\n        /* \"contracts/TimbSwapRouter.sol\":13151:13158  tokenIn */\n      dup10\n        /* \"contracts/TimbSwapRouter.sol\":13160:13168  tokenOut */\n      dup10\n        /* \"contracts/TimbSwapRouter.sol\":13170:13178  amountIn */\n      dup14\n        /* \"contracts/TimbSwapRouter.sol\":13180:13189  amountOut */\n      dup8\n        /* \"contracts/TimbSwapRouter.sol\":13191:13193  to */\n      dup12\n        /* \"contracts/TimbSwapRouter.sol\":13195:13209  influencePrize */\n      dup11\n        /* \"contracts/TimbSwapRouter.sol\":13138:13150  _executeSwap */\n      tag_127\n        /* \"contracts/TimbSwapRouter.sol\":13138:13210  _executeSwap(tokenIn, tokenOut, amountIn, amountOut, to, influencePrize) */\n      jump\t// in\n    tag_126:\n        /* \"contracts/TimbSwapRouter.sol\":12744:13217  {... */\n      pop\n      pop\n        /* \"contracts/TimbSwapRouter.sol\":4647:4648  _ */\n      pop\n        /* \"@openzeppelin/contracts/utils/ReentrancyGuard.sol\":3065:3085  _nonReentrantAfter() */\n      tag_128\n        /* \"@openzeppelin/contracts/utils/ReentrancyGuard.sol\":2365:2366  1 */\n      0x01\n        /* \"@openzeppelin/contracts/utils/ReentrancyGuard.sol\":1505:1571  0x9b779b17422d0df92223018b32b4d1fa46e071723d6817e2486d003becc55f00 */\n      0x9b779b17422d0df92223018b32b4d1fa46e071723d6817e2486d003becc55f00\n        /* \"@openzeppelin/contracts/utils/ReentrancyGuard.sol\":3972:4034  _reentrancyGuardStorageSlot().getUint256Slot().value = ENTERED */\n      sstore\n        /* \"@openzeppelin/contracts/utils/ReentrancyGuard.sol\":3749:4041  function _nonReentrantBefore() private {... */\n      jump\n        /* \"@openzeppelin/contracts/utils/ReentrancyGuard.sol\":3065:3085  _nonReentrantAfter() */\n    tag_128:\n        /* \"contracts/TimbSwapRouter.sol\":12394:13217  function swapExactTokensForTokens(... */\n      swap8\n      swap7\n      pop\n      pop\n      pop\n      pop\n      pop\n      pop\n      pop\n      jump\t// out\n        /* \"contracts/TimbSwapRouter.sol\":6073:6157  function unpause() external onlyOwner { paused = false; emit Unpaused(msg.sender); } */\n    tag_43:\n        /* \"@openzeppelin/contracts/access/Ownable.sol\":1531:1544  _checkOwner() */\n      tag_131\n        /* \"@openzeppelin/contracts/access/Ownable.sol\":1531:1542  _checkOwner */\n      tag_106\n        /* \"@openzeppelin/contracts/access/Ownable.sol\":1531:1544  _checkOwner() */\n      jump\t// in\n    tag_131:\n        /* \"contracts/TimbSwapRouter.sol\":6113:6119  paused */\n      0x03\n        /* \"contracts/TimbSwapRouter.sol\":6113:6127  paused = false */\n      dup1\n      sload\n      not(shl(0xa0, 0xff))\n      and\n      swap1\n      sstore\n        /* \"contracts/TimbSwapRouter.sol\":6134:6154  Unpaused(msg.sender) */\n      mload(0x40)\n        /* \"contracts/TimbSwapRouter.sol\":6143:6153  msg.sender */\n      caller\n      swap1\n        /* \"contracts/TimbSwapRouter.sol\":6134:6154  Unpaused(msg.sender) */\n      0x5db9ee0a495bf2e6ff9c91a7834c1ba4fdd244a5e8aa4e537bd38aeae4b073aa\n      swap1\n        /* \"contracts/TimbSwapRouter.sol\":6122:6127  false */\n      0x00\n      swap1\n        /* \"contracts/TimbSwapRouter.sol\":6134:6154  Unpaused(msg.sender) */\n      log2\n        /* \"contracts/TimbSwapRouter.sol\":6073:6157  function unpause() external onlyOwner { paused = false; emit Unpaused(msg.sender); } */\n      jump\t// out\n        /* \"@openzeppelin/contracts/access/Ownable.sol\":2293:2394  function renounceOwnership() public virtual onlyOwner {... */\n    tag_56:\n        /* \"@openzeppelin/contracts/access/Ownable.sol\":1531:1544  _checkOwner() */\n      tag_134\n        /* \"@openzeppelin/contracts/access/Ownable.sol\":1531:1542  _checkOwner */\n      tag_106\n        /* \"@openzeppelin/contracts/access/Ownable.sol\":1531:1544  _checkOwner() */\n      jump\t// in\n    tag_134:\n        /* \"@openzeppelin/contracts/access/Ownable.sol\":2357:2387  _transferOwnership(address(0)) */\n      tag_136\n        /* \"@openzeppelin/contracts/access/Ownable.sol\":2384:2385  0 */\n      0x00\n        /* \"@openzeppelin/contracts/access/Ownable.sol\":2357:2375  _transferOwnership */\n      tag_137\n        /* \"@openzeppelin/contracts/access/Ownable.sol\":2357:2387  _transferOwnership(address(0)) */\n      jump\t// in\n    tag_136:\n        /* \"@openzeppelin/contracts/access/Ownable.sol\":2293:2394  function renounceOwnership() public virtual onlyOwner {... */\n      jump\t// out\n        /* \"contracts/TimbSwapRouter.sol\":5986:6068  function pause()   external onlyOwner { paused = true;  emit Paused(msg.sender); } */\n    tag_58:\n        /* \"@openzeppelin/contracts/access/Ownable.sol\":1531:1544  _checkOwner() */\n      tag_139\n        /* \"@openzeppelin/contracts/access/Ownable.sol\":1531:1542  _checkOwner */\n      tag_106\n        /* \"@openzeppelin/contracts/access/Ownable.sol\":1531:1544  _checkOwner() */\n      jump\t// in\n    tag_139:\n        /* \"contracts/TimbSwapRouter.sol\":6026:6032  paused */\n      0x03\n        /* \"contracts/TimbSwapRouter.sol\":6026:6039  paused = true */\n      dup1\n      sload\n      not(shl(0xa0, 0xff))\n      and\n      shl(0xa0, 0x01)\n      or\n      swap1\n      sstore\n        /* \"contracts/TimbSwapRouter.sol\":6047:6065  Paused(msg.sender) */\n      mload(0x40)\n        /* \"contracts/TimbSwapRouter.sol\":6054:6064  msg.sender */\n      caller\n      swap1\n        /* \"contracts/TimbSwapRouter.sol\":6047:6065  Paused(msg.sender) */\n      0x62e78cea01bee320cd4e420270b5ea74000d11b0c9f74754ebdbfc544b05a258\n      swap1\n        /* \"contracts/TimbSwapRouter.sol\":6026:6039  paused = true */\n      0x00\n      swap1\n        /* \"contracts/TimbSwapRouter.sol\":6047:6065  Paused(msg.sender) */\n      log2\n        /* \"contracts/TimbSwapRouter.sol\":5986:6068  function pause()   external onlyOwner { paused = true;  emit Paused(msg.sender); } */\n      jump\t// out\n        /* \"contracts/TimbSwapRouter.sol\":11010:11191  function getAmountIn(uint256 amountOut, uint256 reserveIn, uint256 reserveOut)... */\n    tag_61:\n        /* \"contracts/TimbSwapRouter.sol\":11120:11127  uint256 */\n      0x00\n        /* \"contracts/TimbSwapRouter.sol\":11142:11188  _getAmountIn(amountOut, reserveIn, reserveOut) */\n      tag_102\n        /* \"contracts/TimbSwapRouter.sol\":11155:11164  amountOut */\n      dup5\n        /* \"contracts/TimbSwapRouter.sol\":11166:11175  reserveIn */\n      dup5\n        /* \"contracts/TimbSwapRouter.sol\":11177:11187  reserveOut */\n      dup5\n        /* \"contracts/TimbSwapRouter.sol\":11142:11154  _getAmountIn */\n      tag_143\n        /* \"contracts/TimbSwapRouter.sol\":11142:11188  _getAmountIn(amountOut, reserveIn, reserveOut) */\n      jump\t// in\n        /* \"contracts/TimbSwapRouter.sol\":11197:11356  function quote(uint256 amountA, uint256 reserveA, uint256 reserveB)... */\n    tag_71:\n        /* \"contracts/TimbSwapRouter.sol\":11296:11303  uint256 */\n      0x00\n        /* \"contracts/TimbSwapRouter.sol\":11318:11353  _quote(amountA, reserveA, reserveB) */\n      tag_102\n        /* \"contracts/TimbSwapRouter.sol\":11325:11332  amountA */\n      dup5\n        /* \"contracts/TimbSwapRouter.sol\":11334:11342  reserveA */\n      dup5\n        /* \"contracts/TimbSwapRouter.sol\":11344:11352  reserveB */\n      dup5\n        /* \"contracts/TimbSwapRouter.sol\":11318:11324  _quote */\n      tag_147\n        /* \"contracts/TimbSwapRouter.sol\":11318:11353  _quote(amountA, reserveA, reserveB) */\n      jump\t// in\n        /* \"contracts/TimbSwapRouter.sol\":11362:11656  function getReserves(address tokenA, address tokenB)... */\n    tag_82:\n        /* \"contracts/TimbSwapRouter.sol\":11511:11559  IFactory(factory).getPairAddress(tokenA, tokenB) */\n      mload(0x40)\n      shl(0xe0, 0xb4f69a2f)\n      dup2\n      mstore\n      sub(shl(0xa0, 0x01), 0x01)\n        /* \"#utility.yul\":3181:3196   */\n      dup4\n      dup2\n      and\n        /* \"contracts/TimbSwapRouter.sol\":11511:11559  IFactory(factory).getPairAddress(tokenA, tokenB) */\n      0x04\n      dup4\n      add\n        /* \"#utility.yul\":3163:3197   */\n      mstore\n        /* \"#utility.yul\":3233:3248   */\n      dup3\n      dup2\n      and\n        /* \"#utility.yul\":3213:3231   */\n      0x24\n      dup4\n      add\n        /* \"#utility.yul\":3206:3249   */\n      mstore\n      0x00\n      swap2\n      dup3\n      swap2\n      dup3\n      swap2\n        /* \"contracts/TimbSwapRouter.sol\":11520:11527  factory */\n      immutable(\"0xe9cf9669d9e5ab0721fa533aa525e1db68a03c1f18695dcab12e6ac685254f11\")\n        /* \"contracts/TimbSwapRouter.sol\":11511:11543  IFactory(factory).getPairAddress */\n      swap1\n      swap2\n      and\n      swap1\n      0xb4f69a2f\n      swap1\n        /* \"#utility.yul\":3098:3116   */\n      0x44\n      add\n        /* \"contracts/TimbSwapRouter.sol\":11511:11559  IFactory(factory).getPairAddress(tokenA, tokenB) */\n      0x20\n      mload(0x40)\n      dup1\n      dup4\n      sub\n      dup2\n      dup7\n      gas\n      staticcall\n      iszero\n      dup1\n      iszero\n      tag_152\n      jumpi\n      returndatasize\n      0x00\n      dup1\n      returndatacopy\n      revert(0x00, returndatasize)\n    tag_152:\n      pop\n      pop\n      pop\n      pop\n      mload(0x40)\n      returndatasize\n      not(0x1f)\n      0x1f\n      dup3\n      add\n      and\n      dup3\n      add\n      dup1\n      0x40\n      mstore\n      pop\n      dup2\n      add\n      swap1\n      tag_153\n      swap2\n      swap1\n      tag_154\n      jump\t// in\n    tag_153:\n        /* \"contracts/TimbSwapRouter.sol\":11496:11559  address pair = IFactory(factory).getPairAddress(tokenA, tokenB) */\n      swap1\n      pop\n      sub(shl(0xa0, 0x01), 0x01)\n        /* \"contracts/TimbSwapRouter.sol\":11573:11591  pair == address(0) */\n      dup2\n      and\n        /* \"contracts/TimbSwapRouter.sol\":11569:11606  if (pair == address(0)) return (0, 0) */\n      tag_155\n      jumpi\n        /* \"contracts/TimbSwapRouter.sol\":11601:11602  0 */\n      0x00\n        /* \"contracts/TimbSwapRouter.sol\":11604:11605  0 */\n      dup1\n        /* \"contracts/TimbSwapRouter.sol\":11593:11606  return (0, 0) */\n      swap3\n      pop\n      swap3\n      pop\n      pop\n      jump(tag_148)\n        /* \"contracts/TimbSwapRouter.sol\":11569:11606  if (pair == address(0)) return (0, 0) */\n    tag_155:\n        /* \"contracts/TimbSwapRouter.sol\":11623:11649  _getReserves(pair, tokenA) */\n      tag_156\n        /* \"contracts/TimbSwapRouter.sol\":11636:11640  pair */\n      dup2\n        /* \"contracts/TimbSwapRouter.sol\":11642:11648  tokenA */\n      dup7\n        /* \"contracts/TimbSwapRouter.sol\":11623:11635  _getReserves */\n      tag_122\n        /* \"contracts/TimbSwapRouter.sol\":11623:11649  _getReserves(pair, tokenA) */\n      jump\t// in\n    tag_156:\n        /* \"contracts/TimbSwapRouter.sol\":11616:11649  return _getReserves(pair, tokenA) */\n      swap3\n      pop\n      swap3\n      pop\n      pop\n        /* \"contracts/TimbSwapRouter.sol\":11362:11656  function getReserves(address tokenA, address tokenB)... */\n    tag_148:\n      swap3\n      pop\n      swap3\n      swap1\n      pop\n      jump\t// out\n        /* \"contracts/TimbSwapRouter.sol\":13949:14729  function swapTokensForExactTokens(... */\n    tag_90:\n        /* \"contracts/TimbSwapRouter.sol\":14276:14292  uint256 amountIn */\n      0x00\n        /* \"@openzeppelin/contracts/utils/ReentrancyGuard.sol\":3023:3044  _nonReentrantBefore() */\n      tag_158\n        /* \"@openzeppelin/contracts/utils/ReentrancyGuard.sol\":3023:3042  _nonReentrantBefore */\n      tag_110\n        /* \"@openzeppelin/contracts/utils/ReentrancyGuard.sol\":3023:3044  _nonReentrantBefore() */\n      jump\t// in\n    tag_158:\n        /* \"contracts/TimbSwapRouter.sol\":4608:4614  paused */\n      sload(0x03)\n      shl(0xa0, 0x01)\n      swap1\n      div\n      0xff\n      and\n        /* \"contracts/TimbSwapRouter.sol\":4604:4637  if (paused) revert RouterPaused() */\n      iszero\n      tag_160\n      jumpi\n        /* \"contracts/TimbSwapRouter.sol\":4623:4637  RouterPaused() */\n      mload(0x40)\n      shl(0xe5, 0x07ab15ad)\n      dup2\n      mstore\n      0x04\n      add\n      mload(0x40)\n      dup1\n      swap2\n      sub\n      swap1\n      revert\n        /* \"contracts/TimbSwapRouter.sol\":4604:4637  if (paused) revert RouterPaused() */\n    tag_160:\n        /* \"contracts/TimbSwapRouter.sol\":14249:14257  deadline */\n      dup3\n        /* \"contracts/TimbSwapRouter.sol\":4511:4519  deadline */\n      dup1\n        /* \"contracts/TimbSwapRouter.sol\":4493:4508  block.timestamp */\n      timestamp\n        /* \"contracts/TimbSwapRouter.sol\":4493:4519  block.timestamp > deadline */\n      gt\n        /* \"contracts/TimbSwapRouter.sol\":4489:4545  if (block.timestamp > deadline) revert Expired(deadline) */\n      iszero\n      tag_162\n      jumpi\n        /* \"contracts/TimbSwapRouter.sol\":4528:4545  Expired(deadline) */\n      mload(0x40)\n      shl(0xe1, 0x7c06dd75)\n      dup2\n      mstore\n      0x04\n      dup2\n      add\n        /* \"#utility.yul\":481:506   */\n      dup3\n      swap1\n      mstore\n        /* \"#utility.yul\":454:472   */\n      0x24\n      add\n        /* \"contracts/TimbSwapRouter.sol\":4528:4545  Expired(deadline) */\n      tag_115\n        /* \"#utility.yul\":335:512   */\n      jump\n        /* \"contracts/TimbSwapRouter.sol\":4489:4545  if (block.timestamp > deadline) revert Expired(deadline) */\n    tag_162:\n        /* \"contracts/TimbSwapRouter.sol\":14312:14321  amountOut */\n      dup9\n        /* \"contracts/TimbSwapRouter.sol\":14325:14326  0 */\n      0x00\n        /* \"contracts/TimbSwapRouter.sol\":14312:14326  amountOut == 0 */\n      sub\n        /* \"contracts/TimbSwapRouter.sol\":14308:14349  if (amountOut == 0)   revert ZeroAmount() */\n      tag_165\n      jumpi\n        /* \"contracts/TimbSwapRouter.sol\":14337:14349  ZeroAmount() */\n      mload(0x40)\n      shl(0xe0, 0x1f2a2005)\n      dup2\n      mstore\n      0x04\n      add\n      mload(0x40)\n      dup1\n      swap2\n      sub\n      swap1\n      revert\n        /* \"contracts/TimbSwapRouter.sol\":14308:14349  if (amountOut == 0)   revert ZeroAmount() */\n    tag_165:\n      sub(shl(0xa0, 0x01), 0x01)\n        /* \"contracts/TimbSwapRouter.sol\":14363:14379  to == address(0) */\n      dup6\n      and\n        /* \"contracts/TimbSwapRouter.sol\":14359:14401  if (to == address(0)) revert ZeroAddress() */\n      tag_166\n      jumpi\n        /* \"contracts/TimbSwapRouter.sol\":14388:14401  ZeroAddress() */\n      mload(0x40)\n      shl(0xe0, 0xd92e233d)\n      dup2\n      mstore\n      0x04\n      add\n      mload(0x40)\n      dup1\n      swap2\n      sub\n      swap1\n      revert\n        /* \"contracts/TimbSwapRouter.sol\":14359:14401  if (to == address(0)) revert ZeroAddress() */\n    tag_166:\n        /* \"contracts/TimbSwapRouter.sol\":14413:14430  uint256 reserveIn */\n      0x00\n        /* \"contracts/TimbSwapRouter.sol\":14432:14450  uint256 reserveOut */\n      dup1\n        /* \"contracts/TimbSwapRouter.sol\":14454:14504  _getReserves(_getPair(tokenIn, tokenOut), tokenIn) */\n      tag_167\n        /* \"contracts/TimbSwapRouter.sol\":14467:14494  _getPair(tokenIn, tokenOut) */\n      tag_120\n        /* \"contracts/TimbSwapRouter.sol\":14476:14483  tokenIn */\n      dup11\n        /* \"contracts/TimbSwapRouter.sol\":14485:14493  tokenOut */\n      dup11\n        /* \"contracts/TimbSwapRouter.sol\":14467:14475  _getPair */\n      tag_121\n        /* \"contracts/TimbSwapRouter.sol\":14467:14494  _getPair(tokenIn, tokenOut) */\n      jump\t// in\n        /* \"contracts/TimbSwapRouter.sol\":14454:14504  _getReserves(_getPair(tokenIn, tokenOut), tokenIn) */\n    tag_167:\n        /* \"contracts/TimbSwapRouter.sol\":14412:14504  (uint256 reserveIn, uint256 reserveOut) = _getReserves(_getPair(tokenIn, tokenOut), tokenIn) */\n      swap2\n      pop\n      swap2\n      pop\n        /* \"contracts/TimbSwapRouter.sol\":14525:14571  _getAmountIn(amountOut, reserveIn, reserveOut) */\n      tag_169\n        /* \"contracts/TimbSwapRouter.sol\":14538:14547  amountOut */\n      dup12\n        /* \"contracts/TimbSwapRouter.sol\":14549:14558  reserveIn */\n      dup4\n        /* \"contracts/TimbSwapRouter.sol\":14560:14570  reserveOut */\n      dup4\n        /* \"contracts/TimbSwapRouter.sol\":14525:14537  _getAmountIn */\n      tag_143\n        /* \"contracts/TimbSwapRouter.sol\":14525:14571  _getAmountIn(amountOut, reserveIn, reserveOut) */\n      jump\t// in\n    tag_169:\n        /* \"contracts/TimbSwapRouter.sol\":14514:14571  amountIn = _getAmountIn(amountOut, reserveIn, reserveOut) */\n      swap4\n      pop\n        /* \"contracts/TimbSwapRouter.sol\":14597:14608  amountInMax */\n      dup10\n        /* \"contracts/TimbSwapRouter.sol\":14586:14594  amountIn */\n      dup5\n        /* \"contracts/TimbSwapRouter.sol\":14586:14608  amountIn > amountInMax */\n      gt\n        /* \"contracts/TimbSwapRouter.sol\":14582:14639  if (amountIn > amountInMax) revert ExcessiveInputAmount() */\n      iszero\n      tag_170\n      jumpi\n        /* \"contracts/TimbSwapRouter.sol\":14617:14639  ExcessiveInputAmount() */\n      mload(0x40)\n      shl(0xe0, 0xe1b0da4f)\n      dup2\n      mstore\n      0x04\n      add\n      mload(0x40)\n      dup1\n      swap2\n      sub\n      swap1\n      revert\n        /* \"contracts/TimbSwapRouter.sol\":14582:14639  if (amountIn > amountInMax) revert ExcessiveInputAmount() */\n    tag_170:\n        /* \"contracts/TimbSwapRouter.sol\":14650:14722  _executeSwap(tokenIn, tokenOut, amountIn, amountOut, to, influencePrize) */\n      tag_126\n        /* \"contracts/TimbSwapRouter.sol\":14663:14670  tokenIn */\n      dup10\n        /* \"contracts/TimbSwapRouter.sol\":14672:14680  tokenOut */\n      dup10\n        /* \"contracts/TimbSwapRouter.sol\":14682:14690  amountIn */\n      dup7\n        /* \"contracts/TimbSwapRouter.sol\":14692:14701  amountOut */\n      dup15\n        /* \"contracts/TimbSwapRouter.sol\":14703:14705  to */\n      dup12\n        /* \"contracts/TimbSwapRouter.sol\":14707:14721  influencePrize */\n      dup11\n        /* \"contracts/TimbSwapRouter.sol\":14650:14662  _executeSwap */\n      tag_127\n        /* \"contracts/TimbSwapRouter.sol\":14650:14722  _executeSwap(tokenIn, tokenOut, amountIn, amountOut, to, influencePrize) */\n      jump\t// in\n        /* \"contracts/TimbSwapRouter.sol\":5511:5717  function setTreasury(address _treasury) external onlyOwner {... */\n    tag_94:\n        /* \"@openzeppelin/contracts/access/Ownable.sol\":1531:1544  _checkOwner() */\n      tag_174\n        /* \"@openzeppelin/contracts/access/Ownable.sol\":1531:1542  _checkOwner */\n      tag_106\n        /* \"@openzeppelin/contracts/access/Ownable.sol\":1531:1544  _checkOwner() */\n      jump\t// in\n    tag_174:\n      sub(shl(0xa0, 0x01), 0x01)\n        /* \"contracts/TimbSwapRouter.sol\":5584:5607  _treasury == address(0) */\n      dup2\n      and\n        /* \"contracts/TimbSwapRouter.sol\":5580:5629  if (_treasury == address(0)) revert ZeroAddress() */\n      tag_176\n      jumpi\n        /* \"contracts/TimbSwapRouter.sol\":5616:5629  ZeroAddress() */\n      mload(0x40)\n      shl(0xe0, 0xd92e233d)\n      dup2\n      mstore\n      0x04\n      add\n      mload(0x40)\n      dup1\n      swap2\n      sub\n      swap1\n      revert\n        /* \"contracts/TimbSwapRouter.sol\":5580:5629  if (_treasury == address(0)) revert ZeroAddress() */\n    tag_176:\n        /* \"contracts/TimbSwapRouter.sol\":5660:5668  treasury */\n      sload(0x01)\n        /* \"contracts/TimbSwapRouter.sol\":5644:5680  TreasuryUpdated(treasury, _treasury) */\n      mload(0x40)\n      sub(shl(0xa0, 0x01), 0x01)\n      dup1\n      dup5\n      and\n      swap3\n        /* \"contracts/TimbSwapRouter.sol\":5660:5668  treasury */\n      and\n      swap1\n        /* \"contracts/TimbSwapRouter.sol\":5644:5680  TreasuryUpdated(treasury, _treasury) */\n      0x4ab5be82436d353e61ca18726e984e561f5c1cc7c6d38b29d2553c790434705a\n      swap1\n        /* \"contracts/TimbSwapRouter.sol\":5660:5668  treasury */\n      0x00\n      swap1\n        /* \"contracts/TimbSwapRouter.sol\":5644:5680  TreasuryUpdated(treasury, _treasury) */\n      log3\n        /* \"contracts/TimbSwapRouter.sol\":5690:5698  treasury */\n      0x01\n        /* \"contracts/TimbSwapRouter.sol\":5690:5710  treasury = _treasury */\n      dup1\n      sload\n      not(sub(shl(0xa0, 0x01), 0x01))\n      and\n      sub(shl(0xa0, 0x01), 0x01)\n      swap3\n      swap1\n      swap3\n      and\n      swap2\n      swap1\n      swap2\n      or\n      swap1\n      sstore\n        /* \"contracts/TimbSwapRouter.sol\":5511:5717  function setTreasury(address _treasury) external onlyOwner {... */\n      jump\t// out\n        /* \"contracts/TimbSwapRouter.sol\":5723:5859  function setEligibleRegistry(address _r) external onlyOwner {... */\n    tag_97:\n        /* \"@openzeppelin/contracts/access/Ownable.sol\":1531:1544  _checkOwner() */\n      tag_178\n        /* \"@openzeppelin/contracts/access/Ownable.sol\":1531:1542  _checkOwner */\n      tag_106\n        /* \"@openzeppelin/contracts/access/Ownable.sol\":1531:1544  _checkOwner() */\n      jump\t// in\n    tag_178:\n        /* \"contracts/TimbSwapRouter.sol\":5793:5809  eligibleRegistry */\n      0x02\n        /* \"contracts/TimbSwapRouter.sol\":5793:5814  eligibleRegistry = _r */\n      dup1\n      sload\n      not(sub(shl(0xa0, 0x01), 0x01))\n      and\n      sub(shl(0xa0, 0x01), 0x01)\n      dup4\n      and\n      swap1\n      dup2\n      or\n      swap1\n      swap2\n      sstore\n        /* \"contracts/TimbSwapRouter.sol\":5829:5852  EligibleRegistrySet(_r) */\n      mload(0x40)\n      0x34b668b6f49e81b64bdb88c7de7501c0a197d9b12c46848ef3bcd59152843210\n      swap1\n      0x00\n      swap1\n      log2\n        /* \"contracts/TimbSwapRouter.sol\":5723:5859  function setEligibleRegistry(address _r) external onlyOwner {... */\n      pop\n      jump\t// out\n        /* \"@openzeppelin/contracts/access/Ownable.sol\":2543:2758  function transferOwnership(address newOwner) public virtual onlyOwner {... */\n    tag_100:\n        /* \"@openzeppelin/contracts/access/Ownable.sol\":1531:1544  _checkOwner() */\n      tag_181\n        /* \"@openzeppelin/contracts/access/Ownable.sol\":1531:1542  _checkOwner */\n      tag_106\n        /* \"@openzeppelin/contracts/access/Ownable.sol\":1531:1544  _checkOwner() */\n      jump\t// in\n    tag_181:\n      sub(shl(0xa0, 0x01), 0x01)\n        /* \"@openzeppelin/contracts/access/Ownable.sol\":2627:2649  newOwner == address(0) */\n      dup2\n      and\n        /* \"@openzeppelin/contracts/access/Ownable.sol\":2623:2714  if (newOwner == address(0)) {... */\n      tag_183\n      jumpi\n        /* \"@openzeppelin/contracts/access/Ownable.sol\":2672:2703  OwnableInvalidOwner(address(0)) */\n      mload(0x40)\n      shl(0xe0, 0x1e4fbdf7)\n      dup2\n      mstore\n        /* \"@openzeppelin/contracts/access/Ownable.sol\":2700:2701  0 */\n      0x00\n        /* \"@openzeppelin/contracts/access/Ownable.sol\":2672:2703  OwnableInvalidOwner(address(0)) */\n      0x04\n      dup3\n      add\n        /* \"#utility.yul\":2051:2102   */\n      mstore\n        /* \"#utility.yul\":2024:2042   */\n      0x24\n      add\n        /* \"@openzeppelin/contracts/access/Ownable.sol\":2672:2703  OwnableInvalidOwner(address(0)) */\n      tag_115\n        /* \"#utility.yul\":1905:2108   */\n      jump\n        /* \"@openzeppelin/contracts/access/Ownable.sol\":2623:2714  if (newOwner == address(0)) {... */\n    tag_183:\n        /* \"@openzeppelin/contracts/access/Ownable.sol\":2723:2751  _transferOwnership(newOwner) */\n      tag_185\n        /* \"@openzeppelin/contracts/access/Ownable.sol\":2742:2750  newOwner */\n      dup2\n        /* \"@openzeppelin/contracts/access/Ownable.sol\":2723:2741  _transferOwnership */\n      tag_137\n        /* \"@openzeppelin/contracts/access/Ownable.sol\":2723:2751  _transferOwnership(newOwner) */\n      jump\t// in\n    tag_185:\n        /* \"@openzeppelin/contracts/access/Ownable.sol\":2543:2758  function transferOwnership(address newOwner) public virtual onlyOwner {... */\n      pop\n      jump\t// out\n        /* \"contracts/TimbSwapRouter.sol\":7135:7470  function _getAmountOut(... */\n    tag_103:\n        /* \"contracts/TimbSwapRouter.sol\":7268:7275  uint256 */\n      0x00\n        /* \"contracts/TimbSwapRouter.sol\":7291:7304  amountIn == 0 */\n      dup4\n      iszero\n      dup1\n        /* \"contracts/TimbSwapRouter.sol\":7291:7322  amountIn == 0 || reserveIn == 0 */\n      tag_187\n      jumpi\n      pop\n        /* \"contracts/TimbSwapRouter.sol\":7308:7322  reserveIn == 0 */\n      dup3\n      iszero\n        /* \"contracts/TimbSwapRouter.sol\":7291:7322  amountIn == 0 || reserveIn == 0 */\n    tag_187:\n        /* \"contracts/TimbSwapRouter.sol\":7291:7341  amountIn == 0 || reserveIn == 0 || reserveOut == 0 */\n      dup1\n      tag_188\n      jumpi\n      pop\n        /* \"contracts/TimbSwapRouter.sol\":7326:7341  reserveOut == 0 */\n      dup2\n      iszero\n        /* \"contracts/TimbSwapRouter.sol\":7291:7341  amountIn == 0 || reserveIn == 0 || reserveOut == 0 */\n    tag_188:\n        /* \"contracts/TimbSwapRouter.sol\":7287:7362  if (amountIn == 0 || reserveIn == 0 || reserveOut == 0) revert ZeroAmount() */\n      iszero\n      tag_189\n      jumpi\n        /* \"contracts/TimbSwapRouter.sol\":7350:7362  ZeroAmount() */\n      mload(0x40)\n      shl(0xe0, 0x1f2a2005)\n      dup2\n      mstore\n      0x04\n      add\n      mload(0x40)\n      dup1\n      swap2\n      sub\n      swap1\n      revert\n        /* \"contracts/TimbSwapRouter.sol\":7287:7362  if (amountIn == 0 || reserveIn == 0 || reserveOut == 0) revert ZeroAmount() */\n    tag_189:\n        /* \"contracts/TimbSwapRouter.sol\":7372:7383  uint256 fee */\n      0x00\n        /* \"contracts/TimbSwapRouter.sol\":7386:7400  amountIn * 997 */\n      tag_190\n        /* \"contracts/TimbSwapRouter.sol\":7386:7394  amountIn */\n      dup6\n        /* \"contracts/TimbSwapRouter.sol\":7397:7400  997 */\n      0x03e5\n        /* \"contracts/TimbSwapRouter.sol\":7386:7400  amountIn * 997 */\n      tag_191\n      jump\t// in\n    tag_190:\n        /* \"contracts/TimbSwapRouter.sol\":7372:7400  uint256 fee = amountIn * 997 */\n      swap1\n      pop\n      dup1\n        /* \"contracts/TimbSwapRouter.sol\":7439:7456  reserveIn * 1_000 */\n      tag_192\n        /* \"contracts/TimbSwapRouter.sol\":7439:7448  reserveIn */\n      dup6\n        /* \"contracts/TimbSwapRouter.sol\":7451:7456  1_000 */\n      0x03e8\n        /* \"contracts/TimbSwapRouter.sol\":7439:7456  reserveIn * 1_000 */\n      tag_191\n      jump\t// in\n    tag_192:\n        /* \"contracts/TimbSwapRouter.sol\":7439:7462  reserveIn * 1_000 + fee */\n      tag_193\n      swap2\n      swap1\n      tag_194\n      jump\t// in\n    tag_193:\n        /* \"contracts/TimbSwapRouter.sol\":7418:7434  fee * reserveOut */\n      tag_195\n        /* \"contracts/TimbSwapRouter.sol\":7424:7434  reserveOut */\n      dup5\n        /* \"contracts/TimbSwapRouter.sol\":7418:7421  fee */\n      dup4\n        /* \"contracts/TimbSwapRouter.sol\":7418:7434  fee * reserveOut */\n      tag_191\n      jump\t// in\n    tag_195:\n        /* \"contracts/TimbSwapRouter.sol\":7417:7463  (fee * reserveOut) / (reserveIn * 1_000 + fee) */\n      tag_196\n      swap2\n      swap1\n      tag_197\n      jump\t// in\n    tag_196:\n        /* \"contracts/TimbSwapRouter.sol\":7410:7463  return (fee * reserveOut) / (reserveIn * 1_000 + fee) */\n      swap6\n        /* \"contracts/TimbSwapRouter.sol\":7135:7470  function _getAmountOut(... */\n      swap5\n      pop\n      pop\n      pop\n      pop\n      pop\n      jump\t// out\n        /* \"@openzeppelin/contracts/access/Ownable.sol\":1796:1958  function _checkOwner() internal view virtual {... */\n    tag_106:\n        /* \"@openzeppelin/contracts/access/Ownable.sol\":1684:1691  address */\n      0x00\n        /* \"@openzeppelin/contracts/access/Ownable.sol\":1710:1716  _owner */\n      sload\n      sub(shl(0xa0, 0x01), 0x01)\n      and\n        /* \"@openzeppelin/contracts/utils/Context.sol\":735:745  msg.sender */\n      caller\n        /* \"@openzeppelin/contracts/access/Ownable.sol\":1855:1878  owner() != _msgSender() */\n      eq\n        /* \"@openzeppelin/contracts/access/Ownable.sol\":1851:1952  if (owner() != _msgSender()) {... */\n      tag_136\n      jumpi\n        /* \"@openzeppelin/contracts/access/Ownable.sol\":1901:1941  OwnableUnauthorizedAccount(_msgSender()) */\n      mload(0x40)\n      shl(0xe0, 0x118cdaa7)\n      dup2\n      mstore\n        /* \"@openzeppelin/contracts/utils/Context.sol\":735:745  msg.sender */\n      caller\n        /* \"@openzeppelin/contracts/access/Ownable.sol\":1901:1941  OwnableUnauthorizedAccount(_msgSender()) */\n      0x04\n      dup3\n      add\n        /* \"#utility.yul\":2051:2102   */\n      mstore\n        /* \"#utility.yul\":2024:2042   */\n      0x24\n      add\n        /* \"@openzeppelin/contracts/access/Ownable.sol\":1901:1941  OwnableUnauthorizedAccount(_msgSender()) */\n      tag_115\n        /* \"#utility.yul\":1905:2108   */\n      jump\n        /* \"@openzeppelin/contracts/utils/ReentrancyGuard.sol\":3749:4041  function _nonReentrantBefore() private {... */\n    tag_110:\n        /* \"@openzeppelin/contracts/utils/ReentrancyGuard.sol\":3872:3897  _nonReentrantBeforeView() */\n      tag_206\n        /* \"@openzeppelin/contracts/utils/ReentrancyGuard.sol\":3872:3895  _nonReentrantBeforeView */\n      tag_207\n        /* \"@openzeppelin/contracts/utils/ReentrancyGuard.sol\":3872:3897  _nonReentrantBeforeView() */\n      jump\t// in\n    tag_206:\n        /* \"@openzeppelin/contracts/utils/ReentrancyGuard.sol\":2407:2408  2 */\n      0x02\n        /* \"@openzeppelin/contracts/utils/ReentrancyGuard.sol\":1505:1571  0x9b779b17422d0df92223018b32b4d1fa46e071723d6817e2486d003becc55f00 */\n      0x9b779b17422d0df92223018b32b4d1fa46e071723d6817e2486d003becc55f00\n        /* \"@openzeppelin/contracts/utils/ReentrancyGuard.sol\":3972:4034  _reentrancyGuardStorageSlot().getUint256Slot().value = ENTERED */\n      sstore\n        /* \"@openzeppelin/contracts/utils/ReentrancyGuard.sol\":3749:4041  function _nonReentrantBefore() private {... */\n      jump\t// out\n        /* \"contracts/TimbSwapRouter.sol\":6346:6586  function _getPair(address tokenA, address tokenB)... */\n    tag_121:\n        /* \"contracts/TimbSwapRouter.sol\":6462:6510  IFactory(factory).getPairAddress(tokenA, tokenB) */\n      mload(0x40)\n      shl(0xe0, 0xb4f69a2f)\n      dup2\n      mstore\n      sub(shl(0xa0, 0x01), 0x01)\n        /* \"#utility.yul\":3181:3196   */\n      dup4\n      dup2\n      and\n        /* \"contracts/TimbSwapRouter.sol\":6462:6510  IFactory(factory).getPairAddress(tokenA, tokenB) */\n      0x04\n      dup4\n      add\n        /* \"#utility.yul\":3163:3197   */\n      mstore\n        /* \"#utility.yul\":3233:3248   */\n      dup3\n      dup2\n      and\n        /* \"#utility.yul\":3213:3231   */\n      0x24\n      dup4\n      add\n        /* \"#utility.yul\":3206:3249   */\n      mstore\n        /* \"contracts/TimbSwapRouter.sol\":6427:6439  address pair */\n      0x00\n      swap2\n        /* \"contracts/TimbSwapRouter.sol\":6471:6478  factory */\n      immutable(\"0xe9cf9669d9e5ab0721fa533aa525e1db68a03c1f18695dcab12e6ac685254f11\")\n        /* \"contracts/TimbSwapRouter.sol\":6462:6494  IFactory(factory).getPairAddress */\n      swap1\n      swap2\n      and\n      swap1\n      0xb4f69a2f\n      swap1\n        /* \"#utility.yul\":3098:3116   */\n      0x44\n      add\n        /* \"contracts/TimbSwapRouter.sol\":6462:6510  IFactory(factory).getPairAddress(tokenA, tokenB) */\n      0x20\n      mload(0x40)\n      dup1\n      dup4\n      sub\n      dup2\n      dup7\n      gas\n      staticcall\n      iszero\n      dup1\n      iszero\n      tag_215\n      jumpi\n      returndatasize\n      0x00\n      dup1\n      returndatacopy\n      revert(0x00, returndatasize)\n    tag_215:\n      pop\n      pop\n      pop\n      pop\n      mload(0x40)\n      returndatasize\n      not(0x1f)\n      0x1f\n      dup3\n      add\n      and\n      dup3\n      add\n      dup1\n      0x40\n      mstore\n      pop\n      dup2\n      add\n      swap1\n      tag_216\n      swap2\n      swap1\n      tag_154\n      jump\t// in\n    tag_216:\n        /* \"contracts/TimbSwapRouter.sol\":6455:6510  pair = IFactory(factory).getPairAddress(tokenA, tokenB) */\n      swap1\n      pop\n      sub(shl(0xa0, 0x01), 0x01)\n        /* \"contracts/TimbSwapRouter.sol\":6524:6542  pair == address(0) */\n      dup2\n      and\n        /* \"contracts/TimbSwapRouter.sol\":6520:6579  if (pair == address(0)) revert PairNotFound(tokenA, tokenB) */\n      tag_217\n      jumpi\n        /* \"contracts/TimbSwapRouter.sol\":6551:6579  PairNotFound(tokenA, tokenB) */\n      mload(0x40)\n      shl(0xe2, 0x136c5c75)\n      dup2\n      mstore\n      sub(shl(0xa0, 0x01), 0x01)\n        /* \"#utility.yul\":3181:3196   */\n      dup1\n      dup6\n      and\n        /* \"contracts/TimbSwapRouter.sol\":6551:6579  PairNotFound(tokenA, tokenB) */\n      0x04\n      dup4\n      add\n        /* \"#utility.yul\":3163:3197   */\n      mstore\n        /* \"#utility.yul\":3233:3248   */\n      dup4\n      and\n        /* \"#utility.yul\":3213:3231   */\n      0x24\n      dup3\n      add\n        /* \"#utility.yul\":3206:3249   */\n      mstore\n        /* \"#utility.yul\":3098:3116   */\n      0x44\n      add\n        /* \"contracts/TimbSwapRouter.sol\":6551:6579  PairNotFound(tokenA, tokenB) */\n      tag_115\n        /* \"#utility.yul\":2951:3255   */\n      jump\n        /* \"contracts/TimbSwapRouter.sol\":6520:6579  if (pair == address(0)) revert PairNotFound(tokenA, tokenB) */\n    tag_217:\n        /* \"contracts/TimbSwapRouter.sol\":6346:6586  function _getPair(address tokenA, address tokenB)... */\n      swap3\n      swap2\n      pop\n      pop\n      jump\t// out\n        /* \"contracts/TimbSwapRouter.sol\":6592:6930  function _getReserves(address pair, address tokenA)... */\n    tag_122:\n        /* \"contracts/TimbSwapRouter.sol\":6675:6691  uint256 reserveA */\n      0x00\n        /* \"contracts/TimbSwapRouter.sol\":6693:6709  uint256 reserveB */\n      dup1\n        /* \"contracts/TimbSwapRouter.sol\":6726:6736  uint112 r0 */\n      0x00\n        /* \"contracts/TimbSwapRouter.sol\":6738:6748  uint112 r1 */\n      dup1\n        /* \"contracts/TimbSwapRouter.sol\":6759:6763  pair */\n      dup6\n      sub(shl(0xa0, 0x01), 0x01)\n        /* \"contracts/TimbSwapRouter.sol\":6753:6776  IPair(pair).getReserves */\n      and\n      0x0902f1ac\n        /* \"contracts/TimbSwapRouter.sol\":6753:6778  IPair(pair).getReserves() */\n      mload(0x40)\n      dup2\n      0xffffffff\n      and\n      0xe0\n      shl\n      dup2\n      mstore\n      0x04\n      add\n      0x60\n      mload(0x40)\n      dup1\n      dup4\n      sub\n      dup2\n      dup7\n      gas\n      staticcall\n      iszero\n      dup1\n      iszero\n      tag_221\n      jumpi\n      returndatasize\n      0x00\n      dup1\n      returndatacopy\n      revert(0x00, returndatasize)\n    tag_221:\n      pop\n      pop\n      pop\n      pop\n      mload(0x40)\n      returndatasize\n      not(0x1f)\n      0x1f\n      dup3\n      add\n      and\n      dup3\n      add\n      dup1\n      0x40\n      mstore\n      pop\n      dup2\n      add\n      swap1\n      tag_222\n      swap2\n      swap1\n      tag_223\n      jump\t// in\n    tag_222:\n        /* \"contracts/TimbSwapRouter.sol\":6725:6778  (uint112 r0, uint112 r1,) = IPair(pair).getReserves() */\n      pop\n      swap2\n      pop\n      swap2\n      pop\n        /* \"contracts/TimbSwapRouter.sol\":6827:6831  pair */\n      dup6\n      sub(shl(0xa0, 0x01), 0x01)\n        /* \"contracts/TimbSwapRouter.sol\":6821:6839  IPair(pair).token0 */\n      and\n      0x0dfe1681\n        /* \"contracts/TimbSwapRouter.sol\":6821:6841  IPair(pair).token0() */\n      mload(0x40)\n      dup2\n      0xffffffff\n      and\n      0xe0\n      shl\n      dup2\n      mstore\n      0x04\n      add\n      0x20\n      mload(0x40)\n      dup1\n      dup4\n      sub\n      dup2\n      dup7\n      gas\n      staticcall\n      iszero\n      dup1\n      iszero\n      tag_225\n      jumpi\n      returndatasize\n      0x00\n      dup1\n      returndatacopy\n      revert(0x00, returndatasize)\n    tag_225:\n      pop\n      pop\n      pop\n      pop\n      mload(0x40)\n      returndatasize\n      not(0x1f)\n      0x1f\n      dup3\n      add\n      and\n      dup3\n      add\n      dup1\n      0x40\n      mstore\n      pop\n      dup2\n      add\n      swap1\n      tag_226\n      swap2\n      swap1\n      tag_154\n      jump\t// in\n    tag_226:\n      sub(shl(0xa0, 0x01), 0x01)\n        /* \"contracts/TimbSwapRouter.sol\":6811:6841  tokenA == IPair(pair).token0() */\n      and\n        /* \"contracts/TimbSwapRouter.sol\":6811:6817  tokenA */\n      dup6\n      sub(shl(0xa0, 0x01), 0x01)\n        /* \"contracts/TimbSwapRouter.sol\":6811:6841  tokenA == IPair(pair).token0() */\n      and\n      eq\n        /* \"contracts/TimbSwapRouter.sol\":6811:6923  tokenA == IPair(pair).token0()... */\n      tag_227\n      jumpi\n        /* \"contracts/TimbSwapRouter.sol\":6906:6908  r1 */\n      dup1\n      sub(shl(0x70, 0x01), 0x01)\n        /* \"contracts/TimbSwapRouter.sol\":6898:6909  uint256(r1) */\n      and\n        /* \"contracts/TimbSwapRouter.sol\":6919:6921  r0 */\n      dup3\n      sub(shl(0x70, 0x01), 0x01)\n        /* \"contracts/TimbSwapRouter.sol\":6911:6922  uint256(r0) */\n      and\n        /* \"contracts/TimbSwapRouter.sol\":6811:6923  tokenA == IPair(pair).token0()... */\n      jump(tag_228)\n    tag_227:\n        /* \"contracts/TimbSwapRouter.sol\":6865:6867  r0 */\n      dup2\n      sub(shl(0x70, 0x01), 0x01)\n        /* \"contracts/TimbSwapRouter.sol\":6857:6868  uint256(r0) */\n      and\n        /* \"contracts/TimbSwapRouter.sol\":6878:6880  r1 */\n      dup2\n      sub(shl(0x70, 0x01), 0x01)\n        /* \"contracts/TimbSwapRouter.sol\":6870:6881  uint256(r1) */\n      and\n        /* \"contracts/TimbSwapRouter.sol\":6811:6923  tokenA == IPair(pair).token0()... */\n    tag_228:\n        /* \"contracts/TimbSwapRouter.sol\":6788:6923  (reserveA, reserveB) = tokenA == IPair(pair).token0()... */\n      swap1\n      swap8\n      swap1\n      swap7\n      pop\n        /* \"contracts/TimbSwapRouter.sol\":6592:6930  function _getReserves(address pair, address tokenA)... */\n      swap5\n      pop\n      pop\n      pop\n      pop\n      pop\n      jump\t// out\n        /* \"contracts/TimbSwapRouter.sol\":10081:10628  function _executeSwap(... */\n    tag_127:\n        /* \"contracts/TimbSwapRouter.sol\":10281:10293  address pair */\n      0x00\n        /* \"contracts/TimbSwapRouter.sol\":10296:10323  _getPair(tokenIn, tokenOut) */\n      tag_230\n        /* \"contracts/TimbSwapRouter.sol\":10305:10312  tokenIn */\n      dup8\n        /* \"contracts/TimbSwapRouter.sol\":10314:10322  tokenOut */\n      dup8\n        /* \"contracts/TimbSwapRouter.sol\":10296:10304  _getPair */\n      tag_121\n        /* \"contracts/TimbSwapRouter.sol\":10296:10323  _getPair(tokenIn, tokenOut) */\n      jump\t// in\n    tag_230:\n        /* \"contracts/TimbSwapRouter.sol\":10281:10323  address pair = _getPair(tokenIn, tokenOut) */\n      swap1\n      pop\n        /* \"contracts/TimbSwapRouter.sol\":10333:10393  IERC20(tokenIn).safeTransferFrom(msg.sender, pair, amountIn) */\n      tag_231\n      sub(shl(0xa0, 0x01), 0x01)\n        /* \"contracts/TimbSwapRouter.sol\":10333:10365  IERC20(tokenIn).safeTransferFrom */\n      dup9\n      and\n        /* \"contracts/TimbSwapRouter.sol\":10366:10376  msg.sender */\n      caller\n        /* \"contracts/TimbSwapRouter.sol\":10281:10323  address pair = _getPair(tokenIn, tokenOut) */\n      dup4\n        /* \"contracts/TimbSwapRouter.sol\":10384:10392  amountIn */\n      dup9\n        /* \"contracts/TimbSwapRouter.sol\":10333:10365  IERC20(tokenIn).safeTransferFrom */\n      tag_232\n        /* \"contracts/TimbSwapRouter.sol\":10333:10393  IERC20(tokenIn).safeTransferFrom(msg.sender, pair, amountIn) */\n      jump\t// in\n    tag_231:\n        /* \"contracts/TimbSwapRouter.sol\":10403:10441  _collectProtocolFee(tokenIn, amountIn) */\n      tag_233\n        /* \"contracts/TimbSwapRouter.sol\":10423:10430  tokenIn */\n      dup8\n        /* \"contracts/TimbSwapRouter.sol\":10432:10440  amountIn */\n      dup7\n        /* \"contracts/TimbSwapRouter.sol\":10403:10422  _collectProtocolFee */\n      tag_234\n        /* \"contracts/TimbSwapRouter.sol\":10403:10441  _collectProtocolFee(tokenIn, amountIn) */\n      jump\t// in\n    tag_233:\n        /* \"contracts/TimbSwapRouter.sol\":10451:10492  _swapOnPair(pair, tokenIn, amountOut, to) */\n      tag_235\n        /* \"contracts/TimbSwapRouter.sol\":10463:10467  pair */\n      dup2\n        /* \"contracts/TimbSwapRouter.sol\":10469:10476  tokenIn */\n      dup9\n        /* \"contracts/TimbSwapRouter.sol\":10478:10487  amountOut */\n      dup7\n        /* \"contracts/TimbSwapRouter.sol\":10489:10491  to */\n      dup7\n        /* \"contracts/TimbSwapRouter.sol\":10451:10462  _swapOnPair */\n      tag_236\n        /* \"contracts/TimbSwapRouter.sol\":10451:10492  _swapOnPair(pair, tokenIn, amountOut, to) */\n      jump\t// in\n    tag_235:\n        /* \"contracts/TimbSwapRouter.sol\":10502:10538  _maybeNudge(tokenIn, influencePrize) */\n      tag_237\n        /* \"contracts/TimbSwapRouter.sol\":10514:10521  tokenIn */\n      dup8\n        /* \"contracts/TimbSwapRouter.sol\":10523:10537  influencePrize */\n      dup4\n        /* \"contracts/TimbSwapRouter.sol\":10502:10513  _maybeNudge */\n      tag_238\n        /* \"contracts/TimbSwapRouter.sol\":10502:10538  _maybeNudge(tokenIn, influencePrize) */\n      jump\t// in\n    tag_237:\n        /* \"contracts/TimbSwapRouter.sol\":10553:10621  SwapExecuted(msg.sender, tokenIn, tokenOut, amountIn, amountOut, to) */\n      0x40\n      dup1\n      mload\n        /* \"contracts/TimbSwapRouter.sol\":10566:10576  msg.sender */\n      caller\n        /* \"#utility.yul\":5146:5180   */\n      dup2\n      mstore\n      sub(shl(0xa0, 0x01), 0x01)\n        /* \"#utility.yul\":5216:5231   */\n      dup10\n      dup2\n      and\n        /* \"#utility.yul\":5211:5213   */\n      0x20\n        /* \"#utility.yul\":5196:5214   */\n      dup4\n      add\n        /* \"#utility.yul\":5189:5232   */\n      mstore\n        /* \"#utility.yul\":5268:5283   */\n      dup9\n      dup2\n      and\n        /* \"#utility.yul\":5248:5266   */\n      dup3\n      dup5\n      add\n        /* \"#utility.yul\":5241:5284   */\n      mstore\n        /* \"#utility.yul\":5315:5317   */\n      0x60\n        /* \"#utility.yul\":5300:5318   */\n      dup3\n      add\n        /* \"#utility.yul\":5293:5327   */\n      dup9\n      swap1\n      mstore\n        /* \"#utility.yul\":5358:5361   */\n      0x80\n        /* \"#utility.yul\":5343:5362   */\n      dup3\n      add\n        /* \"#utility.yul\":5336:5371   */\n      dup8\n      swap1\n      mstore\n        /* \"#utility.yul\":5408:5423   */\n      dup6\n      and\n        /* \"#utility.yul\":5126:5129   */\n      0xa0\n        /* \"#utility.yul\":5387:5406   */\n      dup3\n      add\n        /* \"#utility.yul\":5380:5424   */\n      mstore\n        /* \"contracts/TimbSwapRouter.sol\":10553:10621  SwapExecuted(msg.sender, tokenIn, tokenOut, amountIn, amountOut, to) */\n      swap1\n      mload\n      0x300b4a9ac356114be2eaffe0f530cd615f14560df4b634adc11142d1358e8976\n      swap2\n      dup2\n      swap1\n      sub\n        /* \"#utility.yul\":5095:5098   */\n      0xc0\n        /* \"contracts/TimbSwapRouter.sol\":10553:10621  SwapExecuted(msg.sender, tokenIn, tokenOut, amountIn, amountOut, to) */\n      add\n      swap1\n      log1\n        /* \"contracts/TimbSwapRouter.sol\":10271:10628  {... */\n      pop\n        /* \"contracts/TimbSwapRouter.sol\":10081:10628  function _executeSwap(... */\n      pop\n      pop\n      pop\n      pop\n      pop\n      pop\n      jump\t// out\n        /* \"@openzeppelin/contracts/access/Ownable.sol\":2912:3099  function _transferOwnership(address newOwner) internal virtual {... */\n    tag_137:\n        /* \"@openzeppelin/contracts/access/Ownable.sol\":2985:3001  address oldOwner */\n      0x00\n        /* \"@openzeppelin/contracts/access/Ownable.sol\":3004:3010  _owner */\n      dup1\n      sload\n      sub(shl(0xa0, 0x01), 0x01)\n        /* \"@openzeppelin/contracts/access/Ownable.sol\":3020:3037  _owner = newOwner */\n      dup4\n      dup2\n      and\n      not(sub(shl(0xa0, 0x01), 0x01))\n      dup4\n      and\n      dup2\n      or\n      dup5\n      sstore\n        /* \"@openzeppelin/contracts/access/Ownable.sol\":3052:3092  OwnershipTransferred(oldOwner, newOwner) */\n      mload(0x40)\n        /* \"@openzeppelin/contracts/access/Ownable.sol\":3004:3010  _owner */\n      swap2\n      swap1\n      swap3\n      and\n      swap3\n      dup4\n      swap2\n        /* \"@openzeppelin/contracts/access/Ownable.sol\":3052:3092  OwnershipTransferred(oldOwner, newOwner) */\n      0x8be0079c531659141344cd1fd0a4f28419497f9722a3daafe3b4186f6b6457e0\n      swap2\n        /* \"@openzeppelin/contracts/access/Ownable.sol\":2985:3001  address oldOwner */\n      swap1\n        /* \"@openzeppelin/contracts/access/Ownable.sol\":3052:3092  OwnershipTransferred(oldOwner, newOwner) */\n      log3\n        /* \"@openzeppelin/contracts/access/Ownable.sol\":2975:3099  {... */\n      pop\n        /* \"@openzeppelin/contracts/access/Ownable.sol\":2912:3099  function _transferOwnership(address newOwner) internal virtual {... */\n      pop\n      jump\t// out\n        /* \"contracts/TimbSwapRouter.sol\":7476:7798  function _getAmountIn(... */\n    tag_143:\n        /* \"contracts/TimbSwapRouter.sol\":7609:7616  uint256 */\n      0x00\n        /* \"contracts/TimbSwapRouter.sol\":7632:7646  amountOut == 0 */\n      dup4\n      iszero\n      dup1\n        /* \"contracts/TimbSwapRouter.sol\":7632:7664  amountOut == 0 || reserveIn == 0 */\n      tag_246\n      jumpi\n      pop\n        /* \"contracts/TimbSwapRouter.sol\":7650:7664  reserveIn == 0 */\n      dup3\n      iszero\n        /* \"contracts/TimbSwapRouter.sol\":7632:7664  amountOut == 0 || reserveIn == 0 */\n    tag_246:\n        /* \"contracts/TimbSwapRouter.sol\":7632:7683  amountOut == 0 || reserveIn == 0 || reserveOut == 0 */\n      dup1\n      tag_247\n      jumpi\n      pop\n        /* \"contracts/TimbSwapRouter.sol\":7668:7683  reserveOut == 0 */\n      dup2\n      iszero\n        /* \"contracts/TimbSwapRouter.sol\":7632:7683  amountOut == 0 || reserveIn == 0 || reserveOut == 0 */\n    tag_247:\n        /* \"contracts/TimbSwapRouter.sol\":7628:7704  if (amountOut == 0 || reserveIn == 0 || reserveOut == 0) revert ZeroAmount() */\n      iszero\n      tag_248\n      jumpi\n        /* \"contracts/TimbSwapRouter.sol\":7692:7704  ZeroAmount() */\n      mload(0x40)\n      shl(0xe0, 0x1f2a2005)\n      dup2\n      mstore\n      0x04\n      add\n      mload(0x40)\n      dup1\n      swap2\n      sub\n      swap1\n      revert\n        /* \"contracts/TimbSwapRouter.sol\":7628:7704  if (amountOut == 0 || reserveIn == 0 || reserveOut == 0) revert ZeroAmount() */\n    tag_248:\n        /* \"contracts/TimbSwapRouter.sol\":7757:7779  reserveOut - amountOut */\n      tag_249\n        /* \"contracts/TimbSwapRouter.sol\":7770:7779  amountOut */\n      dup5\n        /* \"contracts/TimbSwapRouter.sol\":7757:7767  reserveOut */\n      dup4\n        /* \"contracts/TimbSwapRouter.sol\":7757:7779  reserveOut - amountOut */\n      tag_250\n      jump\t// in\n    tag_249:\n        /* \"contracts/TimbSwapRouter.sol\":7756:7786  (reserveOut - amountOut) * 997 */\n      tag_251\n      swap1\n        /* \"contracts/TimbSwapRouter.sol\":7783:7786  997 */\n      0x03e5\n        /* \"contracts/TimbSwapRouter.sol\":7756:7786  (reserveOut - amountOut) * 997 */\n      tag_191\n      jump\t// in\n    tag_251:\n        /* \"contracts/TimbSwapRouter.sol\":7722:7743  reserveIn * amountOut */\n      tag_252\n        /* \"contracts/TimbSwapRouter.sol\":7734:7743  amountOut */\n      dup6\n        /* \"contracts/TimbSwapRouter.sol\":7722:7731  reserveIn */\n      dup6\n        /* \"contracts/TimbSwapRouter.sol\":7722:7743  reserveIn * amountOut */\n      tag_191\n      jump\t// in\n    tag_252:\n        /* \"contracts/TimbSwapRouter.sol\":7722:7751  reserveIn * amountOut * 1_000 */\n      tag_253\n      swap1\n        /* \"contracts/TimbSwapRouter.sol\":7746:7751  1_000 */\n      0x03e8\n        /* \"contracts/TimbSwapRouter.sol\":7722:7751  reserveIn * amountOut * 1_000 */\n      tag_191\n      jump\t// in\n    tag_253:\n        /* \"contracts/TimbSwapRouter.sol\":7721:7787  (reserveIn * amountOut * 1_000) / ((reserveOut - amountOut) * 997) */\n      tag_254\n      swap2\n      swap1\n      tag_197\n      jump\t// in\n    tag_254:\n        /* \"contracts/TimbSwapRouter.sol\":7721:7791  (reserveIn * amountOut * 1_000) / ((reserveOut - amountOut) * 997) + 1 */\n      tag_102\n      swap1\n        /* \"contracts/TimbSwapRouter.sol\":7790:7791  1 */\n      0x01\n        /* \"contracts/TimbSwapRouter.sol\":7721:7791  (reserveIn * amountOut * 1_000) / ((reserveOut - amountOut) * 997) + 1 */\n      tag_194\n      jump\t// in\n        /* \"contracts/TimbSwapRouter.sol\":7804:8053  function _quote(uint256 amountA, uint256 reserveA, uint256 reserveB)... */\n    tag_147:\n        /* \"contracts/TimbSwapRouter.sol\":7904:7911  uint256 */\n      0x00\n        /* \"contracts/TimbSwapRouter.sol\":7931:7943  amountA == 0 */\n      dup4\n      iszero\n      dup1\n        /* \"contracts/TimbSwapRouter.sol\":7931:7960  amountA == 0 || reserveA == 0 */\n      tag_257\n      jumpi\n      pop\n        /* \"contracts/TimbSwapRouter.sol\":7947:7960  reserveA == 0 */\n      dup3\n      iszero\n        /* \"contracts/TimbSwapRouter.sol\":7931:7960  amountA == 0 || reserveA == 0 */\n    tag_257:\n        /* \"contracts/TimbSwapRouter.sol\":7931:7977  amountA == 0 || reserveA == 0 || reserveB == 0 */\n      dup1\n      tag_258\n      jumpi\n      pop\n        /* \"contracts/TimbSwapRouter.sol\":7964:7977  reserveB == 0 */\n      dup2\n      iszero\n        /* \"contracts/TimbSwapRouter.sol\":7931:7977  amountA == 0 || reserveA == 0 || reserveB == 0 */\n    tag_258:\n        /* \"contracts/TimbSwapRouter.sol\":7927:7998  if (amountA == 0 || reserveA == 0 || reserveB == 0) revert ZeroAmount() */\n      iszero\n      tag_259\n      jumpi\n        /* \"contracts/TimbSwapRouter.sol\":7986:7998  ZeroAmount() */\n      mload(0x40)\n      shl(0xe0, 0x1f2a2005)\n      dup2\n      mstore\n      0x04\n      add\n      mload(0x40)\n      dup1\n      swap2\n      sub\n      swap1\n      revert\n        /* \"contracts/TimbSwapRouter.sol\":7927:7998  if (amountA == 0 || reserveA == 0 || reserveB == 0) revert ZeroAmount() */\n    tag_259:\n        /* \"contracts/TimbSwapRouter.sol\":8038:8046  reserveA */\n      dup3\n        /* \"contracts/TimbSwapRouter.sol\":8016:8034  amountA * reserveB */\n      tag_260\n        /* \"contracts/TimbSwapRouter.sol\":8026:8034  reserveB */\n      dup4\n        /* \"contracts/TimbSwapRouter.sol\":8016:8023  amountA */\n      dup7\n        /* \"contracts/TimbSwapRouter.sol\":8016:8034  amountA * reserveB */\n      tag_191\n      jump\t// in\n    tag_260:\n        /* \"contracts/TimbSwapRouter.sol\":8015:8046  (amountA * reserveB) / reserveA */\n      tag_102\n      swap2\n      swap1\n      tag_197\n      jump\t// in\n        /* \"@openzeppelin/contracts/utils/ReentrancyGuard.sol\":3586:3743  function _nonReentrantBeforeView() private view {... */\n    tag_207:\n        /* \"@openzeppelin/contracts/utils/ReentrancyGuard.sol\":1505:1571  0x9b779b17422d0df92223018b32b4d1fa46e071723d6817e2486d003becc55f00 */\n      0x9b779b17422d0df92223018b32b4d1fa46e071723d6817e2486d003becc55f00\n        /* \"@openzeppelin/contracts/utils/ReentrancyGuard.sol\":4560:4612  _reentrancyGuardStorageSlot().getUint256Slot().value */\n      sload\n        /* \"@openzeppelin/contracts/utils/ReentrancyGuard.sol\":2407:2408  2 */\n      0x02\n        /* \"@openzeppelin/contracts/utils/ReentrancyGuard.sol\":4560:4623  _reentrancyGuardStorageSlot().getUint256Slot().value == ENTERED */\n      sub\n        /* \"@openzeppelin/contracts/utils/ReentrancyGuard.sol\":3644:3737  if (_reentrancyGuardEntered()) {... */\n      tag_136\n      jumpi\n        /* \"@openzeppelin/contracts/utils/ReentrancyGuard.sol\":3696:3726  ReentrancyGuardReentrantCall() */\n      mload(0x40)\n      shl(0xe0, 0x3ee5aeb5)\n      dup2\n      mstore\n      0x04\n      add\n      mload(0x40)\n      dup1\n      swap2\n      sub\n      swap1\n      revert\n        /* \"@openzeppelin/contracts/token/ERC20/utils/SafeERC20.sol\":1662:1894  function safeTransferFrom(IERC20 token, address from, address to, uint256 value) internal {... */\n    tag_232:\n        /* \"@openzeppelin/contracts/token/ERC20/utils/SafeERC20.sol\":1767:1814  _safeTransferFrom(token, from, to, value, true) */\n      tag_270\n        /* \"@openzeppelin/contracts/token/ERC20/utils/SafeERC20.sol\":1785:1790  token */\n      dup5\n        /* \"@openzeppelin/contracts/token/ERC20/utils/SafeERC20.sol\":1792:1796  from */\n      dup5\n        /* \"@openzeppelin/contracts/token/ERC20/utils/SafeERC20.sol\":1798:1800  to */\n      dup5\n        /* \"@openzeppelin/contracts/token/ERC20/utils/SafeERC20.sol\":1802:1807  value */\n      dup5\n        /* \"@openzeppelin/contracts/token/ERC20/utils/SafeERC20.sol\":1809:1813  true */\n      0x01\n        /* \"@openzeppelin/contracts/token/ERC20/utils/SafeERC20.sol\":1767:1784  _safeTransferFrom */\n      tag_271\n        /* \"@openzeppelin/contracts/token/ERC20/utils/SafeERC20.sol\":1767:1814  _safeTransferFrom(token, from, to, value, true) */\n      jump\t// in\n    tag_270:\n        /* \"@openzeppelin/contracts/token/ERC20/utils/SafeERC20.sol\":1762:1888  if (!_safeTransferFrom(token, from, to, value, true)) {... */\n      tag_272\n      jumpi\n        /* \"@openzeppelin/contracts/token/ERC20/utils/SafeERC20.sol\":1837:1877  SafeERC20FailedOperation(address(token)) */\n      mload(0x40)\n      shl(0xe0, 0x5274afe7)\n      dup2\n      mstore\n      sub(shl(0xa0, 0x01), 0x01)\n        /* \"#utility.yul\":2069:2101   */\n      dup6\n      and\n        /* \"@openzeppelin/contracts/token/ERC20/utils/SafeERC20.sol\":1837:1877  SafeERC20FailedOperation(address(token)) */\n      0x04\n      dup3\n      add\n        /* \"#utility.yul\":2051:2102   */\n      mstore\n        /* \"#utility.yul\":2024:2042   */\n      0x24\n      add\n        /* \"@openzeppelin/contracts/token/ERC20/utils/SafeERC20.sol\":1837:1877  SafeERC20FailedOperation(address(token)) */\n      tag_115\n        /* \"#utility.yul\":1905:2108   */\n      jump\n        /* \"@openzeppelin/contracts/token/ERC20/utils/SafeERC20.sol\":1762:1888  if (!_safeTransferFrom(token, from, to, value, true)) {... */\n    tag_272:\n        /* \"@openzeppelin/contracts/token/ERC20/utils/SafeERC20.sol\":1662:1894  function safeTransferFrom(IERC20 token, address from, address to, uint256 value) internal {... */\n      pop\n      pop\n      pop\n      pop\n      jump\t// out\n        /* \"contracts/TimbSwapRouter.sol\":8242:8577  function _collectProtocolFee(address token, uint256 amountIn) internal {... */\n    tag_234:\n        /* \"contracts/TimbSwapRouter.sol\":8323:8334  uint256 fee */\n      0x00\n        /* \"contracts/TimbSwapRouter.sol\":2568:2574  10_000 */\n      0x2710\n        /* \"contracts/TimbSwapRouter.sol\":8338:8365  amountIn * PROTOCOL_FEE_BPS */\n      tag_275\n        /* \"contracts/TimbSwapRouter.sol\":2518:2519  5 */\n      0x05\n        /* \"contracts/TimbSwapRouter.sol\":8338:8346  amountIn */\n      dup5\n        /* \"contracts/TimbSwapRouter.sol\":8338:8365  amountIn * PROTOCOL_FEE_BPS */\n      tag_191\n      jump\t// in\n    tag_275:\n        /* \"contracts/TimbSwapRouter.sol\":8337:8384  (amountIn * PROTOCOL_FEE_BPS) / BPS_DENOMINATOR */\n      tag_276\n      swap2\n      swap1\n      tag_197\n      jump\t// in\n    tag_276:\n        /* \"contracts/TimbSwapRouter.sol\":8323:8384  uint256 fee = (amountIn * PROTOCOL_FEE_BPS) / BPS_DENOMINATOR */\n      swap1\n      pop\n        /* \"contracts/TimbSwapRouter.sol\":8404:8405  0 */\n      0x00\n        /* \"contracts/TimbSwapRouter.sol\":8398:8401  fee */\n      dup2\n        /* \"contracts/TimbSwapRouter.sol\":8398:8405  fee > 0 */\n      gt\n        /* \"contracts/TimbSwapRouter.sol\":8398:8431  fee > 0 && treasury != address(0) */\n      dup1\n      iszero\n      tag_277\n      jumpi\n      pop\n        /* \"contracts/TimbSwapRouter.sol\":8409:8417  treasury */\n      and(sub(shl(0xa0, 0x01), 0x01), sload(0x01))\n        /* \"contracts/TimbSwapRouter.sol\":8409:8431  treasury != address(0) */\n      iszero\n      iszero\n        /* \"contracts/TimbSwapRouter.sol\":8398:8431  fee > 0 && treasury != address(0) */\n    tag_277:\n        /* \"contracts/TimbSwapRouter.sol\":8394:8571  if (fee > 0 && treasury != address(0)) {... */\n      iszero\n      tag_278\n      jumpi\n        /* \"contracts/TimbSwapRouter.sol\":8490:8498  treasury */\n      sload(0x01)\n        /* \"contracts/TimbSwapRouter.sol\":8447:8504  IERC20(token).safeTransferFrom(msg.sender, treasury, fee) */\n      tag_279\n      swap1\n      sub(shl(0xa0, 0x01), 0x01)\n        /* \"contracts/TimbSwapRouter.sol\":8447:8477  IERC20(token).safeTransferFrom */\n      dup6\n      dup2\n      and\n      swap2\n        /* \"contracts/TimbSwapRouter.sol\":8478:8488  msg.sender */\n      caller\n      swap2\n        /* \"contracts/TimbSwapRouter.sol\":8490:8498  treasury */\n      and\n        /* \"contracts/TimbSwapRouter.sol\":8500:8503  fee */\n      dup5\n        /* \"contracts/TimbSwapRouter.sol\":8447:8477  IERC20(token).safeTransferFrom */\n      tag_232\n        /* \"contracts/TimbSwapRouter.sol\":8447:8504  IERC20(token).safeTransferFrom(msg.sender, treasury, fee) */\n      jump\t// in\n    tag_279:\n        /* \"contracts/TimbSwapRouter.sol\":8539:8547  treasury */\n      sload(0x01)\n        /* \"contracts/TimbSwapRouter.sol\":8523:8560  ProtocolFeeSent(treasury, token, fee) */\n      mload(0x40)\n        /* \"#utility.yul\":481:506   */\n      dup3\n      dup2\n      mstore\n      sub(shl(0xa0, 0x01), 0x01)\n        /* \"contracts/TimbSwapRouter.sol\":8523:8560  ProtocolFeeSent(treasury, token, fee) */\n      dup6\n      dup2\n      and\n      swap3\n        /* \"contracts/TimbSwapRouter.sol\":8539:8547  treasury */\n      and\n      swap1\n        /* \"contracts/TimbSwapRouter.sol\":8523:8560  ProtocolFeeSent(treasury, token, fee) */\n      0x493fdd1f2099b9854729d46428ce244dbb655e5209e74967fd51b0f0e9fe4e1e\n      swap1\n        /* \"#utility.yul\":469:471   */\n      0x20\n        /* \"#utility.yul\":454:472   */\n      add\n        /* \"contracts/TimbSwapRouter.sol\":8523:8560  ProtocolFeeSent(treasury, token, fee) */\n      mload(0x40)\n      dup1\n      swap2\n      sub\n      swap1\n      log3\n        /* \"contracts/TimbSwapRouter.sol\":8394:8571  if (fee > 0 && treasury != address(0)) {... */\n    tag_278:\n        /* \"contracts/TimbSwapRouter.sol\":8313:8577  {... */\n      pop\n        /* \"contracts/TimbSwapRouter.sol\":8242:8577  function _collectProtocolFee(address token, uint256 amountIn) internal {... */\n      pop\n      pop\n      jump\t// out\n        /* \"contracts/TimbSwapRouter.sol\":9572:9899  function _swapOnPair(address pair, address tokenIn, uint256 amountOut, address to)... */\n    tag_236:\n        /* \"contracts/TimbSwapRouter.sol\":9686:9699  bool isToken0 */\n      0x00\n        /* \"contracts/TimbSwapRouter.sol\":9726:9733  tokenIn */\n      dup4\n      sub(shl(0xa0, 0x01), 0x01)\n        /* \"contracts/TimbSwapRouter.sol\":9702:9733  IPair(pair).token0() == tokenIn */\n      and\n        /* \"contracts/TimbSwapRouter.sol\":9708:9712  pair */\n      dup6\n      sub(shl(0xa0, 0x01), 0x01)\n        /* \"contracts/TimbSwapRouter.sol\":9702:9720  IPair(pair).token0 */\n      and\n      0x0dfe1681\n        /* \"contracts/TimbSwapRouter.sol\":9702:9722  IPair(pair).token0() */\n      mload(0x40)\n      dup2\n      0xffffffff\n      and\n      0xe0\n      shl\n      dup2\n      mstore\n      0x04\n      add\n      0x20\n      mload(0x40)\n      dup1\n      dup4\n      sub\n      dup2\n      dup7\n      gas\n      staticcall\n      iszero\n      dup1\n      iszero\n      tag_283\n      jumpi\n      returndatasize\n      0x00\n      dup1\n      returndatacopy\n      revert(0x00, returndatasize)\n    tag_283:\n      pop\n      pop\n      pop\n      pop\n      mload(0x40)\n      returndatasize\n      not(0x1f)\n      0x1f\n      dup3\n      add\n      and\n      dup3\n      add\n      dup1\n      0x40\n      mstore\n      pop\n      dup2\n      add\n      swap1\n      tag_284\n      swap2\n      swap1\n      tag_154\n      jump\t// in\n    tag_284:\n      sub(shl(0xa0, 0x01), 0x01)\n        /* \"contracts/TimbSwapRouter.sol\":9702:9733  IPair(pair).token0() == tokenIn */\n      and\n      eq\n        /* \"contracts/TimbSwapRouter.sol\":9686:9733  bool isToken0 = IPair(pair).token0() == tokenIn */\n      swap1\n      pop\n        /* \"contracts/TimbSwapRouter.sol\":9744:9754  uint256 a0 */\n      0x00\n        /* \"contracts/TimbSwapRouter.sol\":9756:9766  uint256 a1 */\n      dup1\n        /* \"contracts/TimbSwapRouter.sol\":9770:9778  isToken0 */\n      dup3\n        /* \"contracts/TimbSwapRouter.sol\":9770:9854  isToken0... */\n      tag_285\n      jumpi\n        /* \"contracts/TimbSwapRouter.sol\":9832:9841  amountOut */\n      dup5\n        /* \"contracts/TimbSwapRouter.sol\":9851:9852  0 */\n      0x00\n        /* \"contracts/TimbSwapRouter.sol\":9770:9854  isToken0... */\n      jump(tag_286)\n    tag_285:\n        /* \"contracts/TimbSwapRouter.sol\":9802:9803  0 */\n      0x00\n        /* \"contracts/TimbSwapRouter.sol\":9806:9815  amountOut */\n      dup6\n        /* \"contracts/TimbSwapRouter.sol\":9770:9854  isToken0... */\n    tag_286:\n        /* \"contracts/TimbSwapRouter.sol\":9864:9892  IPair(pair).swap(a0, a1, to) */\n      mload(0x40)\n      shl(0xe1, 0x36cd3205)\n      dup2\n      mstore\n      0x04\n      dup2\n      add\n        /* \"#utility.yul\":5770:5795   */\n      dup4\n      swap1\n      mstore\n        /* \"#utility.yul\":5811:5829   */\n      0x24\n      dup2\n      add\n        /* \"#utility.yul\":5804:5838   */\n      dup3\n      swap1\n      mstore\n      sub(shl(0xa0, 0x01), 0x01)\n        /* \"#utility.yul\":5874:5906   */\n      dup8\n      dup2\n      and\n        /* \"#utility.yul\":5854:5872   */\n      0x44\n      dup4\n      add\n        /* \"#utility.yul\":5847:5907   */\n      mstore\n        /* \"contracts/TimbSwapRouter.sol\":9743:9854  (uint256 a0, uint256 a1) = isToken0... */\n      swap3\n      swap5\n      pop\n      swap1\n      swap3\n      pop\n        /* \"contracts/TimbSwapRouter.sol\":9864:9880  IPair(pair).swap */\n      swap1\n      dup9\n      and\n      swap1\n      0x6d9a640a\n      swap1\n        /* \"#utility.yul\":5743:5761   */\n      0x64\n      add\n        /* \"contracts/TimbSwapRouter.sol\":9864:9892  IPair(pair).swap(a0, a1, to) */\n      0x00\n      mload(0x40)\n      dup1\n      dup4\n      sub\n      dup2\n      0x00\n      dup8\n      dup1\n      extcodesize\n      iszero\n      dup1\n      iszero\n      tag_289\n      jumpi\n      0x00\n      dup1\n      revert\n    tag_289:\n      pop\n      gas\n      call\n      iszero\n      dup1\n      iszero\n      tag_291\n      jumpi\n      returndatasize\n      0x00\n      dup1\n      returndatacopy\n      revert(0x00, returndatasize)\n    tag_291:\n      pop\n      pop\n      pop\n      pop\n        /* \"contracts/TimbSwapRouter.sol\":9676:9899  {... */\n      pop\n      pop\n      pop\n        /* \"contracts/TimbSwapRouter.sol\":9572:9899  function _swapOnPair(address pair, address tokenIn, uint256 amountOut, address to)... */\n      pop\n      pop\n      pop\n      pop\n      jump\t// out\n        /* \"contracts/TimbSwapRouter.sol\":8768:9387  function _maybeNudge(address tokenIn, bool influencePrize) internal {... */\n    tag_238:\n        /* \"contracts/TimbSwapRouter.sol\":8851:8865  influencePrize */\n      dup1\n        /* \"contracts/TimbSwapRouter.sol\":8846:8889  if (!influencePrize)                return; */\n      tag_293\n      jumpi\n        /* \"contracts/TimbSwapRouter.sol\":8768:9387  function _maybeNudge(address tokenIn, bool influencePrize) internal {... */\n      pop\n      pop\n      jump\t// out\n        /* \"contracts/TimbSwapRouter.sol\":8846:8889  if (!influencePrize)                return; */\n    tag_293:\n        /* \"contracts/TimbSwapRouter.sol\":8902:8911  timbPrize */\n      and(sub(shl(0xa0, 0x01), 0x01), sload(0x03))\n        /* \"contracts/TimbSwapRouter.sol\":8898:8941  if (timbPrize == address(0))        return; */\n      tag_294\n      jumpi\n        /* \"contracts/TimbSwapRouter.sol\":8768:9387  function _maybeNudge(address tokenIn, bool influencePrize) internal {... */\n      pop\n      pop\n      jump\t// out\n        /* \"contracts/TimbSwapRouter.sol\":8898:8941  if (timbPrize == address(0))        return; */\n    tag_294:\n        /* \"contracts/TimbSwapRouter.sol\":8954:8970  eligibleRegistry */\n      and(sub(shl(0xa0, 0x01), 0x01), sload(0x02))\n        /* \"contracts/TimbSwapRouter.sol\":8950:8993  if (eligibleRegistry == address(0)) return; */\n      tag_295\n      jumpi\n        /* \"contracts/TimbSwapRouter.sol\":8768:9387  function _maybeNudge(address tokenIn, bool influencePrize) internal {... */\n      pop\n      pop\n      jump\t// out\n        /* \"contracts/TimbSwapRouter.sol\":8950:8993  if (eligibleRegistry == address(0)) return; */\n    tag_295:\n        /* \"contracts/TimbSwapRouter.sol\":9029:9045  eligibleRegistry */\n      sload(0x02)\n        /* \"contracts/TimbSwapRouter.sol\":9006:9066  IEligibleTokenRegistry(eligibleRegistry).isEligible(tokenIn) */\n      mload(0x40)\n      shl(0xe0, 0x66e305fd)\n      dup2\n      mstore\n      sub(shl(0xa0, 0x01), 0x01)\n        /* \"#utility.yul\":2069:2101   */\n      dup5\n      dup2\n      and\n        /* \"contracts/TimbSwapRouter.sol\":9006:9066  IEligibleTokenRegistry(eligibleRegistry).isEligible(tokenIn) */\n      0x04\n      dup4\n      add\n        /* \"#utility.yul\":2051:2102   */\n      mstore\n        /* \"contracts/TimbSwapRouter.sol\":9029:9045  eligibleRegistry */\n      swap1\n      swap2\n      and\n      swap1\n        /* \"contracts/TimbSwapRouter.sol\":9006:9057  IEligibleTokenRegistry(eligibleRegistry).isEligible */\n      0x66e305fd\n      swap1\n        /* \"#utility.yul\":2024:2042   */\n      0x24\n      add\n        /* \"contracts/TimbSwapRouter.sol\":9006:9066  IEligibleTokenRegistry(eligibleRegistry).isEligible(tokenIn) */\n      0x20\n      mload(0x40)\n      dup1\n      dup4\n      sub\n      dup2\n      dup7\n      gas\n      staticcall\n      swap3\n      pop\n      pop\n      pop\n      dup1\n      iszero\n      tag_297\n      jumpi\n      pop\n      0x40\n      dup1\n      mload\n      0x1f\n      returndatasize\n      swap1\n      dup2\n      add\n      not(0x1f)\n      and\n      dup3\n      add\n      swap1\n      swap3\n      mstore\n      tag_298\n      swap2\n      dup2\n      add\n      swap1\n      tag_299\n      jump\t// in\n    tag_298:\n      0x01\n    tag_297:\n        /* \"contracts/TimbSwapRouter.sol\":9002:9135  try IEligibleTokenRegistry(eligibleRegistry).isEligible(tokenIn)... */\n      tag_300\n      jumpi\n        /* \"contracts/TimbSwapRouter.sol\":8768:9387  function _maybeNudge(address tokenIn, bool influencePrize) internal {... */\n      pop\n      pop\n      jump\t// out\n        /* \"contracts/TimbSwapRouter.sol\":9002:9135  try IEligibleTokenRegistry(eligibleRegistry).isEligible(tokenIn)... */\n    tag_300:\n        /* \"contracts/TimbSwapRouter.sol\":9104:9106  ok */\n      dup1\n        /* \"contracts/TimbSwapRouter.sol\":9099:9115  if (!ok) return; */\n      tag_305\n      jumpi\n        /* \"contracts/TimbSwapRouter.sol\":9108:9115  return; */\n      pop\n        /* \"contracts/TimbSwapRouter.sol\":8768:9387  function _maybeNudge(address tokenIn, bool influencePrize) internal {... */\n      pop\n      pop\n      jump\t// out\n        /* \"contracts/TimbSwapRouter.sol\":9099:9115  if (!ok) return; */\n    tag_305:\n        /* \"contracts/TimbSwapRouter.sol\":9079:9117  returns (bool ok) { if (!ok) return; } */\n      pop\n        /* \"contracts/TimbSwapRouter.sol\":9159:9168  timbPrize */\n      0x03\n      0x00\n      swap1\n      sload\n      swap1\n      0x0100\n      exp\n      swap1\n      div\n      sub(shl(0xa0, 0x01), 0x01)\n      and\n      sub(shl(0xa0, 0x01), 0x01)\n        /* \"contracts/TimbSwapRouter.sol\":9148:9188  ITimbPrize(timbPrize).isSettlementWindow */\n      and\n      0xc33b7586\n        /* \"contracts/TimbSwapRouter.sol\":9148:9190  ITimbPrize(timbPrize).isSettlementWindow() */\n      mload(0x40)\n      dup2\n      0xffffffff\n      and\n      0xe0\n      shl\n      dup2\n      mstore\n      0x04\n      add\n      0x20\n      mload(0x40)\n      dup1\n      dup4\n      sub\n      dup2\n      dup7\n      gas\n      staticcall\n      swap3\n      pop\n      pop\n      pop\n      dup1\n      iszero\n      tag_306\n      jumpi\n      pop\n      0x40\n      dup1\n      mload\n      0x1f\n      returndatasize\n      swap1\n      dup2\n      add\n      not(0x1f)\n      and\n      dup3\n      add\n      swap1\n      swap3\n      mstore\n      tag_307\n      swap2\n      dup2\n      add\n      swap1\n      tag_299\n      jump\t// in\n    tag_307:\n      0x01\n    tag_306:\n        /* \"contracts/TimbSwapRouter.sol\":9144:9260  try ITimbPrize(timbPrize).isSettlementWindow()... */\n      tag_308\n      jumpi\n        /* \"contracts/TimbSwapRouter.sol\":8768:9387  function _maybeNudge(address tokenIn, bool influencePrize) internal {... */\n      pop\n      pop\n      jump\t// out\n        /* \"contracts/TimbSwapRouter.sol\":9144:9260  try ITimbPrize(timbPrize).isSettlementWindow()... */\n    tag_308:\n        /* \"contracts/TimbSwapRouter.sol\":9228:9231  win */\n      dup1\n        /* \"contracts/TimbSwapRouter.sol\":9224:9240  if (win) return; */\n      iszero\n      tag_313\n      jumpi\n        /* \"contracts/TimbSwapRouter.sol\":9233:9240  return; */\n      pop\n        /* \"contracts/TimbSwapRouter.sol\":8768:9387  function _maybeNudge(address tokenIn, bool influencePrize) internal {... */\n      pop\n      pop\n      jump\t// out\n        /* \"contracts/TimbSwapRouter.sol\":9224:9240  if (win) return; */\n    tag_313:\n        /* \"contracts/TimbSwapRouter.sol\":9203:9242  returns (bool win) { if (win) return; } */\n      pop\n        /* \"contracts/TimbSwapRouter.sol\":9284:9293  timbPrize */\n      0x03\n      0x00\n      swap1\n      sload\n      swap1\n      0x0100\n      exp\n      swap1\n      div\n      sub(shl(0xa0, 0x01), 0x01)\n      and\n      sub(shl(0xa0, 0x01), 0x01)\n        /* \"contracts/TimbSwapRouter.sol\":9273:9306  ITimbPrize(timbPrize).nudgeScroll */\n      and\n      0x0b7a567b\n        /* \"contracts/TimbSwapRouter.sol\":9273:9308  ITimbPrize(timbPrize).nudgeScroll() */\n      mload(0x40)\n      dup2\n      0xffffffff\n      and\n      0xe0\n      shl\n      dup2\n      mstore\n      0x04\n      add\n      0x00\n      mload(0x40)\n      dup1\n      dup4\n      sub\n      dup2\n      0x00\n      dup8\n      dup1\n      extcodesize\n      iszero\n      dup1\n      iszero\n      tag_314\n      jumpi\n      0x00\n      dup1\n      revert\n    tag_314:\n      pop\n      gas\n      call\n      swap3\n      pop\n      pop\n      pop\n      dup1\n      iszero\n      tag_315\n      jumpi\n      pop\n      0x01\n    tag_315:\n        /* \"contracts/TimbSwapRouter.sol\":9269:9381  try ITimbPrize(timbPrize).nudgeScroll() {... */\n      iszero\n      tag_320\n      jumpi\n        /* \"contracts/TimbSwapRouter.sol\":9328:9361  ScrollNudged(msg.sender, tokenIn) */\n      mload(0x40)\n      sub(shl(0xa0, 0x01), 0x01)\n      dup4\n      and\n      swap1\n        /* \"contracts/TimbSwapRouter.sol\":9341:9351  msg.sender */\n      caller\n      swap1\n        /* \"contracts/TimbSwapRouter.sol\":9328:9361  ScrollNudged(msg.sender, tokenIn) */\n      0xc991fdc6f1d37402cf43cd51be704037ef268e0e50a068c178918a86b1919238\n      swap1\n      0x00\n      swap1\n      log3\n        /* \"contracts/TimbSwapRouter.sol\":9269:9381  try ITimbPrize(timbPrize).nudgeScroll() {... */\n    tag_320:\n        /* \"contracts/TimbSwapRouter.sol\":8768:9387  function _maybeNudge(address tokenIn, bool influencePrize) internal {... */\n      pop\n      pop\n      jump\t// out\n        /* \"@openzeppelin/contracts/token/ERC20/utils/SafeERC20.sol\":10165:11558  function _safeTransferFrom(... */\n    tag_271:\n        /* \"@openzeppelin/contracts/token/ERC20/utils/SafeERC20.sol\":10460:10464  0x40 */\n      0x40\n        /* \"@openzeppelin/contracts/token/ERC20/utils/SafeERC20.sol\":10454:10465  mload(0x40) */\n      mload\n      shl(0xe0, 0x23b872dd)\n        /* \"@openzeppelin/contracts/token/ERC20/utils/SafeERC20.sol\":10323:10335  bool success */\n      0x00\n        /* \"@openzeppelin/contracts/token/ERC20/utils/SafeERC20.sol\":10478:10500  mstore(0x00, selector) */\n      dup2\n      dup2\n      mstore\n      sub(shl(0xa0, 0x01), 0x01)\n        /* \"@openzeppelin/contracts/token/ERC20/utils/SafeERC20.sol\":10526:10552  and(from, shr(96, not(0))) */\n      dup8\n      dup2\n      and\n        /* \"@openzeppelin/contracts/token/ERC20/utils/SafeERC20.sol\":10520:10524  0x04 */\n      0x04\n        /* \"@openzeppelin/contracts/token/ERC20/utils/SafeERC20.sol\":10513:10553  mstore(0x04, and(from, shr(96, not(0)))) */\n      mstore\n        /* \"@openzeppelin/contracts/token/ERC20/utils/SafeERC20.sol\":10579:10603  and(to, shr(96, not(0))) */\n      dup7\n      and\n        /* \"@openzeppelin/contracts/token/ERC20/utils/SafeERC20.sol\":10573:10577  0x24 */\n      0x24\n        /* \"@openzeppelin/contracts/token/ERC20/utils/SafeERC20.sol\":10566:10604  mstore(0x24, and(to, shr(96, not(0)))) */\n      mstore\n        /* \"@openzeppelin/contracts/token/ERC20/utils/SafeERC20.sol\":10624:10628  0x44 */\n      0x44\n        /* \"@openzeppelin/contracts/token/ERC20/utils/SafeERC20.sol\":10617:10636  mstore(0x44, value) */\n      dup6\n      swap1\n      mstore\n        /* \"@openzeppelin/contracts/token/ERC20/utils/SafeERC20.sol\":10323:10335  bool success */\n      swap2\n        /* \"@openzeppelin/contracts/token/ERC20/utils/SafeERC20.sol\":10700:10704  0x20 */\n      0x20\n        /* \"@openzeppelin/contracts/token/ERC20/utils/SafeERC20.sol\":10323:10335  bool success */\n      dup4\n        /* \"@openzeppelin/contracts/token/ERC20/utils/SafeERC20.sol\":10688:10692  0x64 */\n      0x64\n        /* \"@openzeppelin/contracts/token/ERC20/utils/SafeERC20.sol\":10323:10335  bool success */\n      dup2\n      dup1\n        /* \"@openzeppelin/contracts/token/ERC20/utils/SafeERC20.sol\":10672:10677  token */\n      dup13\n        /* \"@openzeppelin/contracts/token/ERC20/utils/SafeERC20.sol\":10665:10670  gas() */\n      gas\n        /* \"@openzeppelin/contracts/token/ERC20/utils/SafeERC20.sol\":10660:10705  call(gas(), token, 0, 0x00, 0x64, 0x00, 0x20) */\n      call\n        /* \"@openzeppelin/contracts/token/ERC20/utils/SafeERC20.sol\":10649:10705  success := call(gas(), token, 0, 0x00, 0x64, 0x00, 0x20) */\n      swap3\n      pop\n        /* \"@openzeppelin/contracts/token/ERC20/utils/SafeERC20.sol\":10917:10918  1 */\n      0x01\n        /* \"@openzeppelin/contracts/token/ERC20/utils/SafeERC20.sol\":10910:10914  0x00 */\n      0x00\n        /* \"@openzeppelin/contracts/token/ERC20/utils/SafeERC20.sol\":10904:10915  mload(0x00) */\n      mload\n        /* \"@openzeppelin/contracts/token/ERC20/utils/SafeERC20.sol\":10901:10919  eq(mload(0x00), 1) */\n      eq\n        /* \"@openzeppelin/contracts/token/ERC20/utils/SafeERC20.sol\":10892:10899  success */\n      dup4\n        /* \"@openzeppelin/contracts/token/ERC20/utils/SafeERC20.sol\":10888:10920  and(success, eq(mload(0x00), 1)) */\n      and\n        /* \"@openzeppelin/contracts/token/ERC20/utils/SafeERC20.sol\":10878:11484  if iszero(and(success, eq(mload(0x00), 1))) {... */\n      tag_325\n      jumpi\n        /* \"@openzeppelin/contracts/token/ERC20/utils/SafeERC20.sol\":11049:11055  bubble */\n      dup4\n        /* \"@openzeppelin/contracts/token/ERC20/utils/SafeERC20.sol\":11039:11046  success */\n      dup4\n        /* \"@openzeppelin/contracts/token/ERC20/utils/SafeERC20.sol\":11032:11047  iszero(success) */\n      iszero\n        /* \"@openzeppelin/contracts/token/ERC20/utils/SafeERC20.sol\":11028:11056  and(iszero(success), bubble) */\n      and\n        /* \"@openzeppelin/contracts/token/ERC20/utils/SafeERC20.sol\":11025:11190  if and(iszero(success), bubble) {... */\n      iszero\n      tag_326\n      jumpi\n        /* \"@openzeppelin/contracts/token/ERC20/utils/SafeERC20.sol\":11105:11121  returndatasize() */\n      returndatasize\n        /* \"@openzeppelin/contracts/token/ERC20/utils/SafeERC20.sol\":11099:11103  0x00 */\n      0x00\n        /* \"@openzeppelin/contracts/token/ERC20/utils/SafeERC20.sol\":11094:11097  fmp */\n      dup3\n        /* \"@openzeppelin/contracts/token/ERC20/utils/SafeERC20.sol\":11079:11122  returndatacopy(fmp, 0x00, returndatasize()) */\n      returndatacopy\n        /* \"@openzeppelin/contracts/token/ERC20/utils/SafeERC20.sol\":11155:11171  returndatasize() */\n      returndatasize\n        /* \"@openzeppelin/contracts/token/ERC20/utils/SafeERC20.sol\":11150:11153  fmp */\n      dup2\n        /* \"@openzeppelin/contracts/token/ERC20/utils/SafeERC20.sol\":11143:11172  revert(fmp, returndatasize()) */\n      revert\n        /* \"@openzeppelin/contracts/token/ERC20/utils/SafeERC20.sol\":11025:11190  if and(iszero(success), bubble) {... */\n    tag_326:\n        /* \"@openzeppelin/contracts/token/ERC20/utils/SafeERC20.sol\":11466:11467  0 */\n      0x00\n        /* \"@openzeppelin/contracts/token/ERC20/utils/SafeERC20.sol\":11458:11463  token */\n      dup9\n        /* \"@openzeppelin/contracts/token/ERC20/utils/SafeERC20.sol\":11446:11464  extcodesize(token) */\n      extcodesize\n        /* \"@openzeppelin/contracts/token/ERC20/utils/SafeERC20.sol\":11443:11468  gt(extcodesize(token), 0) */\n      gt\n        /* \"@openzeppelin/contracts/token/ERC20/utils/SafeERC20.sol\":11424:11440  returndatasize() */\n      returndatasize\n        /* \"@openzeppelin/contracts/token/ERC20/utils/SafeERC20.sol\":11417:11441  iszero(returndatasize()) */\n      iszero\n        /* \"@openzeppelin/contracts/token/ERC20/utils/SafeERC20.sol\":11413:11469  and(iszero(returndatasize()), gt(extcodesize(token), 0)) */\n      and\n        /* \"@openzeppelin/contracts/token/ERC20/utils/SafeERC20.sol\":11404:11411  success */\n      dup4\n        /* \"@openzeppelin/contracts/token/ERC20/utils/SafeERC20.sol\":11400:11470  and(success, and(iszero(returndatasize()), gt(extcodesize(token), 0))) */\n      and\n        /* \"@openzeppelin/contracts/token/ERC20/utils/SafeERC20.sol\":11389:11470  success := and(success, and(iszero(returndatasize()), gt(extcodesize(token), 0))) */\n      swap3\n      pop\n        /* \"@openzeppelin/contracts/token/ERC20/utils/SafeERC20.sol\":10878:11484  if iszero(and(success, eq(mload(0x00), 1))) {... */\n    tag_325:\n        /* \"@openzeppelin/contracts/token/ERC20/utils/SafeERC20.sol\":11504:11508  0x40 */\n      0x40\n        /* \"@openzeppelin/contracts/token/ERC20/utils/SafeERC20.sol\":11497:11514  mstore(0x40, fmp) */\n      mstore\n      pop\n        /* \"@openzeppelin/contracts/token/ERC20/utils/SafeERC20.sol\":11540:11541  0 */\n      0x00\n        /* \"@openzeppelin/contracts/token/ERC20/utils/SafeERC20.sol\":11534:11538  0x60 */\n      0x60\n        /* \"@openzeppelin/contracts/token/ERC20/utils/SafeERC20.sol\":11527:11542  mstore(0x60, 0) */\n      mstore\n        /* \"@openzeppelin/contracts/token/ERC20/utils/SafeERC20.sol\":10165:11558  function _safeTransferFrom(... */\n      swap6\n      swap5\n      pop\n      pop\n      pop\n      pop\n      pop\n      jump\t// out\n        /* \"#utility.yul\":14:330   */\n    tag_29:\n        /* \"#utility.yul\":91:97   */\n      0x00\n        /* \"#utility.yul\":99:105   */\n      dup1\n        /* \"#utility.yul\":107:113   */\n      0x00\n        /* \"#utility.yul\":160:162   */\n      0x60\n        /* \"#utility.yul\":148:157   */\n      dup5\n        /* \"#utility.yul\":139:146   */\n      dup7\n        /* \"#utility.yul\":135:158   */\n      sub\n        /* \"#utility.yul\":131:163   */\n      slt\n        /* \"#utility.yul\":128:180   */\n      iszero\n      tag_333\n      jumpi\n        /* \"#utility.yul\":176:177   */\n      0x00\n        /* \"#utility.yul\":173:174   */\n      dup1\n        /* \"#utility.yul\":166:178   */\n      revert\n        /* \"#utility.yul\":128:180   */\n    tag_333:\n      pop\n      pop\n        /* \"#utility.yul\":199:222   */\n      dup2\n      calldataload\n      swap4\n        /* \"#utility.yul\":269:271   */\n      0x20\n        /* \"#utility.yul\":254:272   */\n      dup4\n      add\n        /* \"#utility.yul\":241:273   */\n      calldataload\n      swap4\n      pop\n        /* \"#utility.yul\":320:322   */\n      0x40\n        /* \"#utility.yul\":305:323   */\n      swap1\n      swap3\n      add\n        /* \"#utility.yul\":292:324   */\n      calldataload\n      swap2\n        /* \"#utility.yul\":14:330   */\n      swap1\n      pop\n      jump\t// out\n        /* \"#utility.yul\":517:648   */\n    tag_327:\n      sub(shl(0xa0, 0x01), 0x01)\n        /* \"#utility.yul\":592:623   */\n      dup2\n      and\n        /* \"#utility.yul\":582:624   */\n      dup2\n      eq\n        /* \"#utility.yul\":572:642   */\n      tag_185\n      jumpi\n        /* \"#utility.yul\":638:639   */\n      0x00\n        /* \"#utility.yul\":635:636   */\n      dup1\n        /* \"#utility.yul\":628:640   */\n      revert\n        /* \"#utility.yul\":653:900   */\n    tag_35:\n        /* \"#utility.yul\":712:718   */\n      0x00\n        /* \"#utility.yul\":765:767   */\n      0x20\n        /* \"#utility.yul\":753:762   */\n      dup3\n        /* \"#utility.yul\":744:751   */\n      dup5\n        /* \"#utility.yul\":740:763   */\n      sub\n        /* \"#utility.yul\":736:768   */\n      slt\n        /* \"#utility.yul\":733:785   */\n      iszero\n      tag_338\n      jumpi\n        /* \"#utility.yul\":781:782   */\n      0x00\n        /* \"#utility.yul\":778:779   */\n      dup1\n        /* \"#utility.yul\":771:783   */\n      revert\n        /* \"#utility.yul\":733:785   */\n    tag_338:\n        /* \"#utility.yul\":820:829   */\n      dup2\n        /* \"#utility.yul\":807:830   */\n      calldataload\n        /* \"#utility.yul\":839:870   */\n      tag_339\n        /* \"#utility.yul\":864:869   */\n      dup2\n        /* \"#utility.yul\":839:870   */\n      tag_327\n      jump\t// in\n    tag_339:\n        /* \"#utility.yul\":889:894   */\n      swap4\n        /* \"#utility.yul\":653:900   */\n      swap3\n      pop\n      pop\n      pop\n      jump\t// out\n        /* \"#utility.yul\":905:1023   */\n    tag_328:\n        /* \"#utility.yul\":991:996   */\n      dup1\n        /* \"#utility.yul\":984:997   */\n      iszero\n        /* \"#utility.yul\":977:998   */\n      iszero\n        /* \"#utility.yul\":970:975   */\n      dup2\n        /* \"#utility.yul\":967:999   */\n      eq\n        /* \"#utility.yul\":957:1017   */\n      tag_185\n      jumpi\n        /* \"#utility.yul\":1013:1014   */\n      0x00\n        /* \"#utility.yul\":1010:1011   */\n      dup1\n        /* \"#utility.yul\":1003:1015   */\n      revert\n        /* \"#utility.yul\":1028:1900   */\n    tag_39:\n        /* \"#utility.yul\":1138:1144   */\n      0x00\n        /* \"#utility.yul\":1146:1152   */\n      dup1\n        /* \"#utility.yul\":1154:1160   */\n      0x00\n        /* \"#utility.yul\":1162:1168   */\n      dup1\n        /* \"#utility.yul\":1170:1176   */\n      0x00\n        /* \"#utility.yul\":1178:1184   */\n      dup1\n        /* \"#utility.yul\":1186:1192   */\n      0x00\n        /* \"#utility.yul\":1239:1242   */\n      0xe0\n        /* \"#utility.yul\":1227:1236   */\n      dup9\n        /* \"#utility.yul\":1218:1225   */\n      dup11\n        /* \"#utility.yul\":1214:1237   */\n      sub\n        /* \"#utility.yul\":1210:1243   */\n      slt\n        /* \"#utility.yul\":1207:1260   */\n      iszero\n      tag_343\n      jumpi\n        /* \"#utility.yul\":1256:1257   */\n      0x00\n        /* \"#utility.yul\":1253:1254   */\n      dup1\n        /* \"#utility.yul\":1246:1258   */\n      revert\n        /* \"#utility.yul\":1207:1260   */\n    tag_343:\n        /* \"#utility.yul\":1292:1301   */\n      dup8\n        /* \"#utility.yul\":1279:1302   */\n      calldataload\n        /* \"#utility.yul\":1269:1302   */\n      swap7\n      pop\n        /* \"#utility.yul\":1349:1351   */\n      0x20\n        /* \"#utility.yul\":1338:1347   */\n      dup9\n        /* \"#utility.yul\":1334:1352   */\n      add\n        /* \"#utility.yul\":1321:1353   */\n      calldataload\n        /* \"#utility.yul\":1311:1353   */\n      swap6\n      pop\n        /* \"#utility.yul\":1403:1405   */\n      0x40\n        /* \"#utility.yul\":1392:1401   */\n      dup9\n        /* \"#utility.yul\":1388:1406   */\n      add\n        /* \"#utility.yul\":1375:1407   */\n      calldataload\n        /* \"#utility.yul\":1416:1447   */\n      tag_344\n        /* \"#utility.yul\":1441:1446   */\n      dup2\n        /* \"#utility.yul\":1416:1447   */\n      tag_327\n      jump\t// in\n    tag_344:\n        /* \"#utility.yul\":1466:1471   */\n      swap5\n      pop\n        /* \"#utility.yul\":1523:1525   */\n      0x60\n        /* \"#utility.yul\":1508:1526   */\n      dup9\n      add\n        /* \"#utility.yul\":1495:1527   */\n      calldataload\n        /* \"#utility.yul\":1536:1569   */\n      tag_345\n        /* \"#utility.yul\":1495:1527   */\n      dup2\n        /* \"#utility.yul\":1536:1569   */\n      tag_327\n      jump\t// in\n    tag_345:\n        /* \"#utility.yul\":1588:1595   */\n      swap4\n      pop\n        /* \"#utility.yul\":1647:1650   */\n      0x80\n        /* \"#utility.yul\":1632:1651   */\n      dup9\n      add\n        /* \"#utility.yul\":1619:1652   */\n      calldataload\n        /* \"#utility.yul\":1661:1694   */\n      tag_346\n        /* \"#utility.yul\":1619:1652   */\n      dup2\n        /* \"#utility.yul\":1661:1694   */\n      tag_327\n      jump\t// in\n    tag_346:\n        /* \"#utility.yul\":1713:1720   */\n      swap3\n      pop\n        /* \"#utility.yul\":1767:1770   */\n      0xa0\n        /* \"#utility.yul\":1752:1771   */\n      dup9\n      add\n        /* \"#utility.yul\":1739:1772   */\n      calldataload\n      swap2\n      pop\n        /* \"#utility.yul\":1824:1827   */\n      0xc0\n        /* \"#utility.yul\":1809:1828   */\n      dup9\n      add\n        /* \"#utility.yul\":1796:1829   */\n      calldataload\n        /* \"#utility.yul\":1838:1868   */\n      tag_347\n        /* \"#utility.yul\":1796:1829   */\n      dup2\n        /* \"#utility.yul\":1838:1868   */\n      tag_328\n      jump\t// in\n    tag_347:\n        /* \"#utility.yul\":1887:1894   */\n      dup1\n        /* \"#utility.yul\":1877:1894   */\n      swap2\n      pop\n      pop\n        /* \"#utility.yul\":1028:1900   */\n      swap3\n      swap6\n      swap9\n      swap2\n      swap5\n      swap8\n      pop\n      swap3\n      swap6\n      pop\n      jump\t// out\n        /* \"#utility.yul\":2305:2693   */\n    tag_81:\n        /* \"#utility.yul\":2373:2379   */\n      0x00\n        /* \"#utility.yul\":2381:2387   */\n      dup1\n        /* \"#utility.yul\":2434:2436   */\n      0x40\n        /* \"#utility.yul\":2422:2431   */\n      dup4\n        /* \"#utility.yul\":2413:2420   */\n      dup6\n        /* \"#utility.yul\":2409:2432   */\n      sub\n        /* \"#utility.yul\":2405:2437   */\n      slt\n        /* \"#utility.yul\":2402:2454   */\n      iszero\n      tag_351\n      jumpi\n        /* \"#utility.yul\":2450:2451   */\n      0x00\n        /* \"#utility.yul\":2447:2448   */\n      dup1\n        /* \"#utility.yul\":2440:2452   */\n      revert\n        /* \"#utility.yul\":2402:2454   */\n    tag_351:\n        /* \"#utility.yul\":2489:2498   */\n      dup3\n        /* \"#utility.yul\":2476:2499   */\n      calldataload\n        /* \"#utility.yul\":2508:2539   */\n      tag_352\n        /* \"#utility.yul\":2533:2538   */\n      dup2\n        /* \"#utility.yul\":2508:2539   */\n      tag_327\n      jump\t// in\n    tag_352:\n        /* \"#utility.yul\":2558:2563   */\n      swap2\n      pop\n        /* \"#utility.yul\":2615:2617   */\n      0x20\n        /* \"#utility.yul\":2600:2618   */\n      dup4\n      add\n        /* \"#utility.yul\":2587:2619   */\n      calldataload\n        /* \"#utility.yul\":2628:2661   */\n      tag_353\n        /* \"#utility.yul\":2587:2619   */\n      dup2\n        /* \"#utility.yul\":2628:2661   */\n      tag_327\n      jump\t// in\n    tag_353:\n        /* \"#utility.yul\":2680:2687   */\n      dup1\n        /* \"#utility.yul\":2670:2687   */\n      swap2\n      pop\n      pop\n        /* \"#utility.yul\":2305:2693   */\n      swap3\n      pop\n      swap3\n      swap1\n      pop\n      jump\t// out\n        /* \"#utility.yul\":3260:3511   */\n    tag_154:\n        /* \"#utility.yul\":3330:3336   */\n      0x00\n        /* \"#utility.yul\":3383:3385   */\n      0x20\n        /* \"#utility.yul\":3371:3380   */\n      dup3\n        /* \"#utility.yul\":3362:3369   */\n      dup5\n        /* \"#utility.yul\":3358:3381   */\n      sub\n        /* \"#utility.yul\":3354:3386   */\n      slt\n        /* \"#utility.yul\":3351:3403   */\n      iszero\n      tag_357\n      jumpi\n        /* \"#utility.yul\":3399:3400   */\n      0x00\n        /* \"#utility.yul\":3396:3397   */\n      dup1\n        /* \"#utility.yul\":3389:3401   */\n      revert\n        /* \"#utility.yul\":3351:3403   */\n    tag_357:\n        /* \"#utility.yul\":3431:3440   */\n      dup2\n        /* \"#utility.yul\":3425:3441   */\n      mload\n        /* \"#utility.yul\":3450:3481   */\n      tag_339\n        /* \"#utility.yul\":3475:3480   */\n      dup2\n        /* \"#utility.yul\":3450:3481   */\n      tag_327\n      jump\t// in\n        /* \"#utility.yul\":3516:3643   */\n    tag_329:\n        /* \"#utility.yul\":3577:3587   */\n      0x4e487b71\n        /* \"#utility.yul\":3572:3575   */\n      0xe0\n        /* \"#utility.yul\":3568:3588   */\n      shl\n        /* \"#utility.yul\":3565:3566   */\n      0x00\n        /* \"#utility.yul\":3558:3589   */\n      mstore\n        /* \"#utility.yul\":3608:3612   */\n      0x11\n        /* \"#utility.yul\":3605:3606   */\n      0x04\n        /* \"#utility.yul\":3598:3613   */\n      mstore\n        /* \"#utility.yul\":3632:3636   */\n      0x24\n        /* \"#utility.yul\":3629:3630   */\n      0x00\n        /* \"#utility.yul\":3622:3637   */\n      revert\n        /* \"#utility.yul\":3648:3816   */\n    tag_191:\n        /* \"#utility.yul\":3721:3730   */\n      dup1\n      dup3\n      mul\n        /* \"#utility.yul\":3752:3761   */\n      dup2\n      iszero\n        /* \"#utility.yul\":3769:3784   */\n      dup3\n      dup3\n      div\n        /* \"#utility.yul\":3763:3785   */\n      dup5\n      eq\n        /* \"#utility.yul\":3749:3786   */\n      or\n        /* \"#utility.yul\":3739:3810   */\n      tag_217\n      jumpi\n        /* \"#utility.yul\":3790:3808   */\n      tag_217\n      tag_329\n      jump\t// in\n        /* \"#utility.yul\":3821:3946   */\n    tag_194:\n        /* \"#utility.yul\":3886:3895   */\n      dup1\n      dup3\n      add\n        /* \"#utility.yul\":3907:3917   */\n      dup1\n      dup3\n      gt\n        /* \"#utility.yul\":3904:3940   */\n      iszero\n      tag_217\n      jumpi\n        /* \"#utility.yul\":3920:3938   */\n      tag_217\n      tag_329\n      jump\t// in\n        /* \"#utility.yul\":3951:4168   */\n    tag_197:\n        /* \"#utility.yul\":3991:3992   */\n      0x00\n        /* \"#utility.yul\":4017:4018   */\n      dup3\n        /* \"#utility.yul\":4007:4139   */\n      tag_367\n      jumpi\n        /* \"#utility.yul\":4061:4071   */\n      0x4e487b71\n        /* \"#utility.yul\":4056:4059   */\n      0xe0\n        /* \"#utility.yul\":4052:4072   */\n      shl\n        /* \"#utility.yul\":4049:4050   */\n      0x00\n        /* \"#utility.yul\":4042:4073   */\n      mstore\n        /* \"#utility.yul\":4096:4100   */\n      0x12\n        /* \"#utility.yul\":4093:4094   */\n      0x04\n        /* \"#utility.yul\":4086:4101   */\n      mstore\n        /* \"#utility.yul\":4124:4128   */\n      0x24\n        /* \"#utility.yul\":4121:4122   */\n      0x00\n        /* \"#utility.yul\":4114:4129   */\n      revert\n        /* \"#utility.yul\":4007:4139   */\n    tag_367:\n      pop\n        /* \"#utility.yul\":4153:4162   */\n      div\n      swap1\n        /* \"#utility.yul\":3951:4168   */\n      jump\t// out\n        /* \"#utility.yul\":4173:4361   */\n    tag_330:\n        /* \"#utility.yul\":4252:4265   */\n      dup1\n      mload\n      sub(shl(0x70, 0x01), 0x01)\n        /* \"#utility.yul\":4294:4336   */\n      dup2\n      and\n        /* \"#utility.yul\":4284:4337   */\n      dup2\n      eq\n        /* \"#utility.yul\":4274:4355   */\n      tag_369\n      jumpi\n        /* \"#utility.yul\":4351:4352   */\n      0x00\n        /* \"#utility.yul\":4348:4349   */\n      dup1\n        /* \"#utility.yul\":4341:4353   */\n      revert\n        /* \"#utility.yul\":4274:4355   */\n    tag_369:\n        /* \"#utility.yul\":4173:4361   */\n      swap2\n      swap1\n      pop\n      jump\t// out\n        /* \"#utility.yul\":4366:4816   */\n    tag_223:\n        /* \"#utility.yul\":4453:4459   */\n      0x00\n        /* \"#utility.yul\":4461:4467   */\n      dup1\n        /* \"#utility.yul\":4469:4475   */\n      0x00\n        /* \"#utility.yul\":4522:4524   */\n      0x60\n        /* \"#utility.yul\":4510:4519   */\n      dup5\n        /* \"#utility.yul\":4501:4508   */\n      dup7\n        /* \"#utility.yul\":4497:4520   */\n      sub\n        /* \"#utility.yul\":4493:4525   */\n      slt\n        /* \"#utility.yul\":4490:4542   */\n      iszero\n      tag_371\n      jumpi\n        /* \"#utility.yul\":4538:4539   */\n      0x00\n        /* \"#utility.yul\":4535:4536   */\n      dup1\n        /* \"#utility.yul\":4528:4540   */\n      revert\n        /* \"#utility.yul\":4490:4542   */\n    tag_371:\n        /* \"#utility.yul\":4561:4601   */\n      tag_372\n        /* \"#utility.yul\":4591:4600   */\n      dup5\n        /* \"#utility.yul\":4561:4601   */\n      tag_330\n      jump\t// in\n    tag_372:\n        /* \"#utility.yul\":4551:4601   */\n      swap3\n      pop\n        /* \"#utility.yul\":4620:4669   */\n      tag_373\n        /* \"#utility.yul\":4665:4667   */\n      0x20\n        /* \"#utility.yul\":4654:4663   */\n      dup6\n        /* \"#utility.yul\":4650:4668   */\n      add\n        /* \"#utility.yul\":4620:4669   */\n      tag_330\n      jump\t// in\n    tag_373:\n        /* \"#utility.yul\":4610:4669   */\n      swap2\n      pop\n        /* \"#utility.yul\":4712:4714   */\n      0x40\n        /* \"#utility.yul\":4701:4710   */\n      dup5\n        /* \"#utility.yul\":4697:4715   */\n      add\n        /* \"#utility.yul\":4691:4716   */\n      mload\n        /* \"#utility.yul\":4756:4766   */\n      0xffffffff\n        /* \"#utility.yul\":4749:4754   */\n      dup2\n        /* \"#utility.yul\":4745:4767   */\n      and\n        /* \"#utility.yul\":4738:4743   */\n      dup2\n        /* \"#utility.yul\":4735:4768   */\n      eq\n        /* \"#utility.yul\":4725:4786   */\n      tag_374\n      jumpi\n        /* \"#utility.yul\":4782:4783   */\n      0x00\n        /* \"#utility.yul\":4779:4780   */\n      dup1\n        /* \"#utility.yul\":4772:4784   */\n      revert\n        /* \"#utility.yul\":4725:4786   */\n    tag_374:\n        /* \"#utility.yul\":4805:4810   */\n      dup1\n        /* \"#utility.yul\":4795:4810   */\n      swap2\n      pop\n      pop\n        /* \"#utility.yul\":4366:4816   */\n      swap3\n      pop\n      swap3\n      pop\n      swap3\n      jump\t// out\n        /* \"#utility.yul\":5435:5563   */\n    tag_250:\n        /* \"#utility.yul\":5502:5511   */\n      dup2\n      dup2\n      sub\n        /* \"#utility.yul\":5523:5534   */\n      dup2\n      dup2\n      gt\n        /* \"#utility.yul\":5520:5557   */\n      iszero\n      tag_217\n      jumpi\n        /* \"#utility.yul\":5537:5555   */\n      tag_217\n      tag_329\n      jump\t// in\n        /* \"#utility.yul\":5918:6163   */\n    tag_299:\n        /* \"#utility.yul\":5985:5991   */\n      0x00\n        /* \"#utility.yul\":6038:6040   */\n      0x20\n        /* \"#utility.yul\":6026:6035   */\n      dup3\n        /* \"#utility.yul\":6017:6024   */\n      dup5\n        /* \"#utility.yul\":6013:6036   */\n      sub\n        /* \"#utility.yul\":6009:6041   */\n      slt\n        /* \"#utility.yul\":6006:6058   */\n      iszero\n      tag_381\n      jumpi\n        /* \"#utility.yul\":6054:6055   */\n      0x00\n        /* \"#utility.yul\":6051:6052   */\n      dup1\n        /* \"#utility.yul\":6044:6056   */\n      revert\n        /* \"#utility.yul\":6006:6058   */\n    tag_381:\n        /* \"#utility.yul\":6086:6095   */\n      dup2\n        /* \"#utility.yul\":6080:6096   */\n      mload\n        /* \"#utility.yul\":6105:6133   */\n      tag_339\n        /* \"#utility.yul\":6127:6132   */\n      dup2\n        /* \"#utility.yul\":6105:6133   */\n      tag_328\n      jump\t// in\n\n    auxdata: 0xa2646970667358221220a922ed00dcee6b0cf9b2d2d8d13f1baa8f8f48fee0c4b4850ddd63ff422779c864736f6c63430008180033\n}\n",
				"bytecode": {
					"linkReferences": {},
					"object": "60a06040523480156200001157600080fd5b50604051620015af380380620015af833981016040819052620000349162000190565b33806200005b57604051631e4fbdf760e01b81526000600482015260240160405180910390fd5b620000668162000123565b5060017f9b779b17422d0df92223018b32b4d1fa46e071723d6817e2486d003becc55f00556001600160a01b038416620000b35760405163d92e233d60e01b815260040160405180910390fd5b6001600160a01b038316620000db5760405163d92e233d60e01b815260040160405180910390fd5b6001600160a01b03938416608052600180549385166001600160a01b0319948516179055600280549285169284169290921790915560038054919093169116179055620001ed565b600080546001600160a01b038381166001600160a01b0319831681178455604051919092169283917f8be0079c531659141344cd1fd0a4f28419497f9722a3daafe3b4186f6b6457e09190a35050565b80516001600160a01b03811681146200018b57600080fd5b919050565b60008060008060808587031215620001a757600080fd5b620001b28562000173565b9350620001c26020860162000173565b9250620001d26040860162000173565b9150620001e26060860162000173565b905092959194509250565b608051611398620002176000396000818161025b01528181610585015261093001526113986000f3fe608060405234801561001057600080fd5b50600436106101375760003560e01c80638da5cb5b116100b8578063d52bb6f41161007c578063d52bb6f41461027d578063e1a45218146102a5578063e98f6797146102ae578063f0f44260146102c1578063f13afb90146102d4578063f2fde38b146102e757600080fd5b80638da5cb5b1461021757806392eaa9d914610228578063ad615dec1461023b578063be3782281461024e578063c45a01551461025657600080fd5b80635c975abb116100ff5780635c975abb146101bd57806361d027b3146101e1578063715018a6146101f45780638456cb59146101fc57806385f8c2591461020457600080fd5b8063054d50d41461013c57806327b23849146101625780633824659c146101775780633f4ba83a1461018a5780635364276d14610192575b600080fd5b61014f61014a366004611120565b6102fa565b6040519081526020015b60405180910390f35b610175610170366004611161565b61030f565b005b61014f610185366004611193565b610361565b61017561049f565b6003546101a5906001600160a01b031681565b6040516001600160a01b039091168152602001610159565b6003546101d190600160a01b900460ff1681565b6040519015158152602001610159565b6001546101a5906001600160a01b031681565b6101756104e1565b6101756104f5565b61014f610212366004611120565b61053d565b6000546001600160a01b03166101a5565b6002546101a5906001600160a01b031681565b61014f610249366004611120565b61054a565b61014f600581565b6101a57f000000000000000000000000000000000000000000000000000000000000000081565b61029061028b36600461120e565b610557565b60408051928352602083019190915201610159565b61014f61271081565b61014f6102bc366004611193565b610626565b6101756102cf366004611161565b610718565b6101756102e2366004611161565b6107a3565b6101756102f5366004611161565b6107f5565b6000610307848484610833565b949350505050565b6103176108ab565b600380546001600160a01b0319166001600160a01b0383169081179091556040517f89386b8711bad3ec737a1746dbcc52de03de68add300345f9acb944c28ae03f390600090a250565b600061036b6108d8565b600354600160a01b900460ff1615610396576040516307ab15ad60e51b815260040160405180910390fd5b82804211156103c057604051637c06dd7560e11b8152600481018290526024015b60405180910390fd5b886000036103e157604051631f2a200560e01b815260040160405180910390fd5b6001600160a01b0385166104085760405163d92e233d60e01b815260040160405180910390fd5b60008061041e6104188a8a610906565b8a6109df565b9150915061042d8b8383610833565b93508984101561045a5760405163d28d3eb560e01b815260048101859052602481018b90526044016103b7565b61046889898d878b8a610b01565b50505061049460017f9b779b17422d0df92223018b32b4d1fa46e071723d6817e2486d003becc55f0055565b979650505050505050565b6104a76108ab565b6003805460ff60a01b1916905560405133907f5db9ee0a495bf2e6ff9c91a7834c1ba4fdd244a5e8aa4e537bd38aeae4b073aa90600090a2565b6104e96108ab565b6104f36000610bac565b565b6104fd6108ab565b6003805460ff60a01b1916600160a01b17905560405133907f62e78cea01bee320cd4e420270b5ea74000d11b0c9f74754ebdbfc544b05a25890600090a2565b6000610307848484610bfc565b6000610307848484610c71565b60405163b4f69a2f60e01b81526001600160a01b0383811660048301528281166024830152600091829182917f00000000000000000000000000000000000000000000000000000000000000009091169063b4f69a2f90604401602060405180830381865afa1580156105ce573d6000803e3d6000fd5b505050506040513d601f19601f820116820180604052508101906105f29190611247565b90506001600160a01b03811661060f57600080925092505061061f565b61061981866109df565b92509250505b9250929050565b60006106306108d8565b600354600160a01b900460ff161561065b576040516307ab15ad60e51b815260040160405180910390fd5b828042111561068057604051637c06dd7560e11b8152600481018290526024016103b7565b886000036106a157604051631f2a200560e01b815260040160405180910390fd5b6001600160a01b0385166106c85760405163d92e233d60e01b815260040160405180910390fd5b6000806106d86104188a8a610906565b915091506106e78b8383610bfc565b93508984111561070a5760405163e1b0da4f60e01b815260040160405180910390fd5b6104688989868e8b8a610b01565b6107206108ab565b6001600160a01b0381166107475760405163d92e233d60e01b815260040160405180910390fd5b6001546040516001600160a01b038084169216907f4ab5be82436d353e61ca18726e984e561f5c1cc7c6d38b29d2553c790434705a90600090a3600180546001600160a01b0319166001600160a01b0392909216919091179055565b6107ab6108ab565b600280546001600160a01b0319166001600160a01b0383169081179091556040517f34b668b6f49e81b64bdb88c7de7501c0a197d9b12c46848ef3bcd5915284321090600090a250565b6107fd6108ab565b6001600160a01b03811661082757604051631e4fbdf760e01b8152600060048201526024016103b7565b61083081610bac565b50565b6000831580610840575082155b80610849575081155b1561086757604051631f2a200560e01b815260040160405180910390fd5b6000610875856103e561127a565b905080610884856103e861127a565b61088e9190611291565b610898848361127a565b6108a291906112a4565b95945050505050565b6000546001600160a01b031633146104f35760405163118cdaa760e01b81523360048201526024016103b7565b6108e0610cba565b60027f9b779b17422d0df92223018b32b4d1fa46e071723d6817e2486d003becc55f0055565b60405163b4f69a2f60e01b81526001600160a01b03838116600483015282811660248301526000917f00000000000000000000000000000000000000000000000000000000000000009091169063b4f69a2f90604401602060405180830381865afa158015610979573d6000803e3d6000fd5b505050506040513d601f19601f8201168201806040525081019061099d9190611247565b90506001600160a01b0381166109d95760405163136c5c7560e21b81526001600160a01b038085166004830152831660248201526044016103b7565b92915050565b600080600080856001600160a01b0316630902f1ac6040518163ffffffff1660e01b8152600401606060405180830381865afa158015610a23573d6000803e3d6000fd5b505050506040513d601f19601f82011682018060405250810190610a4791906112e2565b5091509150856001600160a01b0316630dfe16816040518163ffffffff1660e01b8152600401602060405180830381865afa158015610a8a573d6000803e3d6000fd5b505050506040513d601f19601f82011682018060405250810190610aae9190611247565b6001600160a01b0316856001600160a01b031614610adf57806001600160701b0316826001600160701b0316610af4565b816001600160701b0316816001600160701b03165b9097909650945050505050565b6000610b0d8787610906565b9050610b246001600160a01b038816338388610cfc565b610b2e8786610d38565b610b3a81888686610dd9565b610b448783610ee0565b604080513381526001600160a01b038981166020830152888116828401526060820188905260808201879052851660a082015290517f300b4a9ac356114be2eaffe0f530cd615f14560df4b634adc11142d1358e89769181900360c00190a150505050505050565b600080546001600160a01b038381166001600160a01b0319831681178455604051919092169283917f8be0079c531659141344cd1fd0a4f28419497f9722a3daafe3b4186f6b6457e09190a35050565b6000831580610c09575082155b80610c12575081155b15610c3057604051631f2a200560e01b815260040160405180910390fd5b610c3a8483611332565b610c46906103e561127a565b610c50858561127a565b610c5c906103e861127a565b610c6691906112a4565b610307906001611291565b6000831580610c7e575082155b80610c87575081155b15610ca557604051631f2a200560e01b815260040160405180910390fd5b82610cb0838661127a565b61030791906112a4565b7f9b779b17422d0df92223018b32b4d1fa46e071723d6817e2486d003becc55f00546002036104f357604051633ee5aeb560e01b815260040160405180910390fd5b610d0a8484848460016110ae565b610d3257604051635274afe760e01b81526001600160a01b03851660048201526024016103b7565b50505050565b6000612710610d4860058461127a565b610d5291906112a4565b9050600081118015610d6e57506001546001600160a01b031615155b15610dd457600154610d8f906001600160a01b038581169133911684610cfc565b6001546040518281526001600160a01b038581169216907f493fdd1f2099b9854729d46428ce244dbb655e5209e74967fd51b0f0e9fe4e1e9060200160405180910390a35b505050565b6000836001600160a01b0316856001600160a01b0316630dfe16816040518163ffffffff1660e01b8152600401602060405180830381865afa158015610e23573d6000803e3d6000fd5b505050506040513d601f19601f82011682018060405250810190610e479190611247565b6001600160a01b031614905060008082610e6357846000610e67565b6000855b6040516336cd320560e11b815260048101839052602481018290526001600160a01b03878116604483015292945090925090881690636d9a640a90606401600060405180830381600087803b158015610ebf57600080fd5b505af1158015610ed3573d6000803e3d6000fd5b5050505050505050505050565b80610ee9575050565b6003546001600160a01b0316610efd575050565b6002546001600160a01b0316610f11575050565b6002546040516366e305fd60e01b81526001600160a01b038481166004830152909116906366e305fd90602401602060405180830381865afa925050508015610f77575060408051601f3d908101601f19168201909252610f7491810190611345565b60015b610f7f575050565b80610f8957505050565b50600360009054906101000a90046001600160a01b03166001600160a01b031663c33b75866040518163ffffffff1660e01b8152600401602060405180830381865afa925050508015610ff9575060408051601f3d908101601f19168201909252610ff691810190611345565b60015b611001575050565b801561100c57505050565b50600360009054906101000a90046001600160a01b03166001600160a01b0316630b7a567b6040518163ffffffff1660e01b8152600401600060405180830381600087803b15801561105d57600080fd5b505af192505050801561106e575060015b156110aa576040516001600160a01b0383169033907fc991fdc6f1d37402cf43cd51be704037ef268e0e50a068c178918a86b191923890600090a35b5050565b6040516323b872dd60e01b60008181526001600160a01b038781166004528616602452604485905291602083606481808c5af19250600160005114831661110e578383151615611101573d6000823e3d81fd5b6000883b113d1516831692505b60405250600060605295945050505050565b60008060006060848603121561113557600080fd5b505081359360208301359350604090920135919050565b6001600160a01b038116811461083057600080fd5b60006020828403121561117357600080fd5b813561117e8161114c565b9392505050565b801515811461083057600080fd5b600080600080600080600060e0888a0312156111ae57600080fd5b873596506020880135955060408801356111c78161114c565b945060608801356111d78161114c565b935060808801356111e78161114c565b925060a0880135915060c08801356111fe81611185565b8091505092959891949750929550565b6000806040838503121561122157600080fd5b823561122c8161114c565b9150602083013561123c8161114c565b809150509250929050565b60006020828403121561125957600080fd5b815161117e8161114c565b634e487b7160e01b600052601160045260246000fd5b80820281158282048414176109d9576109d9611264565b808201808211156109d9576109d9611264565b6000826112c157634e487b7160e01b600052601260045260246000fd5b500490565b80516001600160701b03811681146112dd57600080fd5b919050565b6000806000606084860312156112f757600080fd5b611300846112c6565b925061130e602085016112c6565b9150604084015163ffffffff8116811461132757600080fd5b809150509250925092565b818103818111156109d9576109d9611264565b60006020828403121561135757600080fd5b815161117e8161118556fea2646970667358221220a922ed00dcee6b0cf9b2d2d8d13f1baa8f8f48fee0c4b4850ddd63ff422779c864736f6c63430008180033",
					"opcodes": "PUSH1 0xA0 PUSH1 0x40 MSTORE CALLVALUE DUP1 ISZERO PUSH3 0x11 JUMPI PUSH1 0x0 DUP1 REVERT JUMPDEST POP PUSH1 0x40 MLOAD PUSH3 0x15AF CODESIZE SUB DUP1 PUSH3 0x15AF DUP4 CODECOPY DUP2 ADD PUSH1 0x40 DUP2 SWAP1 MSTORE PUSH3 0x34 SWAP2 PUSH3 0x190 JUMP JUMPDEST CALLER DUP1 PUSH3 0x5B JUMPI PUSH1 0x40 MLOAD PUSH4 0x1E4FBDF7 PUSH1 0xE0 SHL DUP2 MSTORE PUSH1 0x0 PUSH1 0x4 DUP3 ADD MSTORE PUSH1 0x24 ADD PUSH1 0x40 MLOAD DUP1 SWAP2 SUB SWAP1 REVERT JUMPDEST PUSH3 0x66 DUP2 PUSH3 0x123 JUMP JUMPDEST POP PUSH1 0x1 PUSH32 0x9B779B17422D0DF92223018B32B4D1FA46E071723D6817E2486D003BECC55F00 SSTORE PUSH1 0x1 PUSH1 0x1 PUSH1 0xA0 SHL SUB DUP5 AND PUSH3 0xB3 JUMPI PUSH1 0x40 MLOAD PUSH4 0xD92E233D PUSH1 0xE0 SHL DUP2 MSTORE PUSH1 0x4 ADD PUSH1 0x40 MLOAD DUP1 SWAP2 SUB SWAP1 REVERT JUMPDEST PUSH1 0x1 PUSH1 0x1 PUSH1 0xA0 SHL SUB DUP4 AND PUSH3 0xDB JUMPI PUSH1 0x40 MLOAD PUSH4 0xD92E233D PUSH1 0xE0 SHL DUP2 MSTORE PUSH1 0x4 ADD PUSH1 0x40 MLOAD DUP1 SWAP2 SUB SWAP1 REVERT JUMPDEST PUSH1 0x1 PUSH1 0x1 PUSH1 0xA0 SHL SUB SWAP4 DUP5 AND PUSH1 0x80 MSTORE PUSH1 0x1 DUP1 SLOAD SWAP4 DUP6 AND PUSH1 0x1 PUSH1 0x1 PUSH1 0xA0 SHL SUB NOT SWAP5 DUP6 AND OR SWAP1 SSTORE PUSH1 0x2 DUP1 SLOAD SWAP3 DUP6 AND SWAP3 DUP5 AND SWAP3 SWAP1 SWAP3 OR SWAP1 SWAP2 SSTORE PUSH1 0x3 DUP1 SLOAD SWAP2 SWAP1 SWAP4 AND SWAP2 AND OR SWAP1 SSTORE PUSH3 0x1ED JUMP JUMPDEST PUSH1 0x0 DUP1 SLOAD PUSH1 0x1 PUSH1 0x1 PUSH1 0xA0 SHL SUB DUP4 DUP2 AND PUSH1 0x1 PUSH1 0x1 PUSH1 0xA0 SHL SUB NOT DUP4 AND DUP2 OR DUP5 SSTORE PUSH1 0x40 MLOAD SWAP2 SWAP1 SWAP3 AND SWAP3 DUP4 SWAP2 PUSH32 0x8BE0079C531659141344CD1FD0A4F28419497F9722A3DAAFE3B4186F6B6457E0 SWAP2 SWAP1 LOG3 POP POP JUMP JUMPDEST DUP1 MLOAD PUSH1 0x1 PUSH1 0x1 PUSH1 0xA0 SHL SUB DUP2 AND DUP2 EQ PUSH3 0x18B JUMPI PUSH1 0x0 DUP1 REVERT JUMPDEST SWAP2 SWAP1 POP JUMP JUMPDEST PUSH1 0x0 DUP1 PUSH1 0x0 DUP1 PUSH1 0x80 DUP6 DUP8 SUB SLT ISZERO PUSH3 0x1A7 JUMPI PUSH1 0x0 DUP1 REVERT JUMPDEST PUSH3 0x1B2 DUP6 PUSH3 0x173 JUMP JUMPDEST SWAP4 POP PUSH3 0x1C2 PUSH1 0x20 DUP7 ADD PUSH3 0x173 JUMP JUMPDEST SWAP3 POP PUSH3 0x1D2 PUSH1 0x40 DUP7 ADD PUSH3 0x173 JUMP JUMPDEST SWAP2 POP PUSH3 0x1E2 PUSH1 0x60 DUP7 ADD PUSH3 0x173 JUMP JUMPDEST SWAP1 POP SWAP3 SWAP6 SWAP2 SWAP5 POP SWAP3 POP JUMP JUMPDEST PUSH1 0x80 MLOAD PUSH2 0x1398 PUSH3 0x217 PUSH1 0x0 CODECOPY PUSH1 0x0 DUP2 DUP2 PUSH2 0x25B ADD MSTORE DUP2 DUP2 PUSH2 0x585 ADD MSTORE PUSH2 0x930 ADD MSTORE PUSH2 0x1398 PUSH1 0x0 RETURN INVALID PUSH1 0x80 PUSH1 0x40 MSTORE CALLVALUE DUP1 ISZERO PUSH2 0x10 JUMPI PUSH1 0x0 DUP1 REVERT JUMPDEST POP PUSH1 0x4 CALLDATASIZE LT PUSH2 0x137 JUMPI PUSH1 0x0 CALLDATALOAD PUSH1 0xE0 SHR DUP1 PUSH4 0x8DA5CB5B GT PUSH2 0xB8 JUMPI DUP1 PUSH4 0xD52BB6F4 GT PUSH2 0x7C JUMPI DUP1 PUSH4 0xD52BB6F4 EQ PUSH2 0x27D JUMPI DUP1 PUSH4 0xE1A45218 EQ PUSH2 0x2A5 JUMPI DUP1 PUSH4 0xE98F6797 EQ PUSH2 0x2AE JUMPI DUP1 PUSH4 0xF0F44260 EQ PUSH2 0x2C1 JUMPI DUP1 PUSH4 0xF13AFB90 EQ PUSH2 0x2D4 JUMPI DUP1 PUSH4 0xF2FDE38B EQ PUSH2 0x2E7 JUMPI PUSH1 0x0 DUP1 REVERT JUMPDEST DUP1 PUSH4 0x8DA5CB5B EQ PUSH2 0x217 JUMPI DUP1 PUSH4 0x92EAA9D9 EQ PUSH2 0x228 JUMPI DUP1 PUSH4 0xAD615DEC EQ PUSH2 0x23B JUMPI DUP1 PUSH4 0xBE378228 EQ PUSH2 0x24E JUMPI DUP1 PUSH4 0xC45A0155 EQ PUSH2 0x256 JUMPI PUSH1 0x0 DUP1 REVERT JUMPDEST DUP1 PUSH4 0x5C975ABB GT PUSH2 0xFF JUMPI DUP1 PUSH4 0x5C975ABB EQ PUSH2 0x1BD JUMPI DUP1 PUSH4 0x61D027B3 EQ PUSH2 0x1E1 JUMPI DUP1 PUSH4 0x715018A6 EQ PUSH2 0x1F4 JUMPI DUP1 PUSH4 0x8456CB59 EQ PUSH2 0x1FC JUMPI DUP1 PUSH4 0x85F8C259 EQ PUSH2 0x204 JUMPI PUSH1 0x0 DUP1 REVERT JUMPDEST DUP1 PUSH4 0x54D50D4 EQ PUSH2 0x13C JUMPI DUP1 PUSH4 0x27B23849 EQ PUSH2 0x162 JUMPI DUP1 PUSH4 0x3824659C EQ PUSH2 0x177 JUMPI DUP1 PUSH4 0x3F4BA83A EQ PUSH2 0x18A JUMPI DUP1 PUSH4 0x5364276D EQ PUSH2 0x192 JUMPI JUMPDEST PUSH1 0x0 DUP1 REVERT JUMPDEST PUSH2 0x14F PUSH2 0x14A CALLDATASIZE PUSH1 0x4 PUSH2 0x1120 JUMP JUMPDEST PUSH2 0x2FA JUMP JUMPDEST PUSH1 0x40 MLOAD SWAP1 DUP2 MSTORE PUSH1 0x20 ADD JUMPDEST PUSH1 0x40 MLOAD DUP1 SWAP2 SUB SWAP1 RETURN JUMPDEST PUSH2 0x175 PUSH2 0x170 CALLDATASIZE PUSH1 0x4 PUSH2 0x1161 JUMP JUMPDEST PUSH2 0x30F JUMP JUMPDEST STOP JUMPDEST PUSH2 0x14F PUSH2 0x185 CALLDATASIZE PUSH1 0x4 PUSH2 0x1193 JUMP JUMPDEST PUSH2 0x361 JUMP JUMPDEST PUSH2 0x175 PUSH2 0x49F JUMP JUMPDEST PUSH1 0x3 SLOAD PUSH2 0x1A5 SWAP1 PUSH1 0x1 PUSH1 0x1 PUSH1 0xA0 SHL SUB AND DUP2 JUMP JUMPDEST PUSH1 0x40 MLOAD PUSH1 0x1 PUSH1 0x1 PUSH1 0xA0 SHL SUB SWAP1 SWAP2 AND DUP2 MSTORE PUSH1 0x20 ADD PUSH2 0x159 JUMP JUMPDEST PUSH1 0x3 SLOAD PUSH2 0x1D1 SWAP1 PUSH1 0x1 PUSH1 0xA0 SHL SWAP1 DIV PUSH1 0xFF AND DUP2 JUMP JUMPDEST PUSH1 0x40 MLOAD SWAP1 ISZERO ISZERO DUP2 MSTORE PUSH1 0x20 ADD PUSH2 0x159 JUMP JUMPDEST PUSH1 0x1 SLOAD PUSH2 0x1A5 SWAP1 PUSH1 0x1 PUSH1 0x1 PUSH1 0xA0 SHL SUB AND DUP2 JUMP JUMPDEST PUSH2 0x175 PUSH2 0x4E1 JUMP JUMPDEST PUSH2 0x175 PUSH2 0x4F5 JUMP JUMPDEST PUSH2 0x14F PUSH2 0x212 CALLDATASIZE PUSH1 0x4 PUSH2 0x1120 JUMP JUMPDEST PUSH2 0x53D JUMP JUMPDEST PUSH1 0x0 SLOAD PUSH1 0x1 PUSH1 0x1 PUSH1 0xA0 SHL SUB AND PUSH2 0x1A5 JUMP JUMPDEST PUSH1 0x2 SLOAD PUSH2 0x1A5 SWAP1 PUSH1 0x1 PUSH1 0x1 PUSH1 0xA0 SHL SUB AND DUP2 JUMP JUMPDEST PUSH2 0x14F PUSH2 0x249 CALLDATASIZE PUSH1 0x4 PUSH2 0x1120 JUMP JUMPDEST PUSH2 0x54A JUMP JUMPDEST PUSH2 0x14F PUSH1 0x5 DUP2 JUMP JUMPDEST PUSH2 0x1A5 PUSH32 0x0 DUP2 JUMP JUMPDEST PUSH2 0x290 PUSH2 0x28B CALLDATASIZE PUSH1 0x4 PUSH2 0x120E JUMP JUMPDEST PUSH2 0x557 JUMP JUMPDEST PUSH1 0x40 DUP1 MLOAD SWAP3 DUP4 MSTORE PUSH1 0x20 DUP4 ADD SWAP2 SWAP1 SWAP2 MSTORE ADD PUSH2 0x159 JUMP JUMPDEST PUSH2 0x14F PUSH2 0x2710 DUP2 JUMP JUMPDEST PUSH2 0x14F PUSH2 0x2BC CALLDATASIZE PUSH1 0x4 PUSH2 0x1193 JUMP JUMPDEST PUSH2 0x626 JUMP JUMPDEST PUSH2 0x175 PUSH2 0x2CF CALLDATASIZE PUSH1 0x4 PUSH2 0x1161 JUMP JUMPDEST PUSH2 0x718 JUMP JUMPDEST PUSH2 0x175 PUSH2 0x2E2 CALLDATASIZE PUSH1 0x4 PUSH2 0x1161 JUMP JUMPDEST PUSH2 0x7A3 JUMP JUMPDEST PUSH2 0x175 PUSH2 0x2F5 CALLDATASIZE PUSH1 0x4 PUSH2 0x1161 JUMP JUMPDEST PUSH2 0x7F5 JUMP JUMPDEST PUSH1 0x0 PUSH2 0x307 DUP5 DUP5 DUP5 PUSH2 0x833 JUMP JUMPDEST SWAP5 SWAP4 POP POP POP POP JUMP JUMPDEST PUSH2 0x317 PUSH2 0x8AB JUMP JUMPDEST PUSH1 0x3 DUP1 SLOAD PUSH1 0x1 PUSH1 0x1 PUSH1 0xA0 SHL SUB NOT AND PUSH1 0x1 PUSH1 0x1 PUSH1 0xA0 SHL SUB DUP4 AND SWAP1 DUP2 OR SWAP1 SWAP2 SSTORE PUSH1 0x40 MLOAD PUSH32 0x89386B8711BAD3EC737A1746DBCC52DE03DE68ADD300345F9ACB944C28AE03F3 SWAP1 PUSH1 0x0 SWAP1 LOG2 POP JUMP JUMPDEST PUSH1 0x0 PUSH2 0x36B PUSH2 0x8D8 JUMP JUMPDEST PUSH1 0x3 SLOAD PUSH1 0x1 PUSH1 0xA0 SHL SWAP1 DIV PUSH1 0xFF AND ISZERO PUSH2 0x396 JUMPI PUSH1 0x40 MLOAD PUSH4 0x7AB15AD PUSH1 0xE5 SHL DUP2 MSTORE PUSH1 0x4 ADD PUSH1 0x40 MLOAD DUP1 SWAP2 SUB SWAP1 REVERT JUMPDEST DUP3 DUP1 TIMESTAMP GT ISZERO PUSH2 0x3C0 JUMPI PUSH1 0x40 MLOAD PUSH4 0x7C06DD75 PUSH1 0xE1 SHL DUP2 MSTORE PUSH1 0x4 DUP2 ADD DUP3 SWAP1 MSTORE PUSH1 0x24 ADD JUMPDEST PUSH1 0x40 MLOAD DUP1 SWAP2 SUB SWAP1 REVERT JUMPDEST DUP9 PUSH1 0x0 SUB PUSH2 0x3E1 JUMPI PUSH1 0x40 MLOAD PUSH4 0x1F2A2005 PUSH1 0xE0 SHL DUP2 MSTORE PUSH1 0x4 ADD PUSH1 0x40 MLOAD DUP1 SWAP2 SUB SWAP1 REVERT JUMPDEST PUSH1 0x1 PUSH1 0x1 PUSH1 0xA0 SHL SUB DUP6 AND PUSH2 0x408 JUMPI PUSH1 0x40 MLOAD PUSH4 0xD92E233D PUSH1 0xE0 SHL DUP2 MSTORE PUSH1 0x4 ADD PUSH1 0x40 MLOAD DUP1 SWAP2 SUB SWAP1 REVERT JUMPDEST PUSH1 0x0 DUP1 PUSH2 0x41E PUSH2 0x418 DUP11 DUP11 PUSH2 0x906 JUMP JUMPDEST DUP11 PUSH2 0x9DF JUMP JUMPDEST SWAP2 POP SWAP2 POP PUSH2 0x42D DUP12 DUP4 DUP4 PUSH2 0x833 JUMP JUMPDEST SWAP4 POP DUP10 DUP5 LT ISZERO PUSH2 0x45A JUMPI PUSH1 0x40 MLOAD PUSH4 0xD28D3EB5 PUSH1 0xE0 SHL DUP2 MSTORE PUSH1 0x4 DUP2 ADD DUP6 SWAP1 MSTORE PUSH1 0x24 DUP2 ADD DUP12 SWAP1 MSTORE PUSH1 0x44 ADD PUSH2 0x3B7 JUMP JUMPDEST PUSH2 0x468 DUP10 DUP10 DUP14 DUP8 DUP12 DUP11 PUSH2 0xB01 JUMP JUMPDEST POP POP POP PUSH2 0x494 PUSH1 0x1 PUSH32 0x9B779B17422D0DF92223018B32B4D1FA46E071723D6817E2486D003BECC55F00 SSTORE JUMP JUMPDEST SWAP8 SWAP7 POP POP POP POP POP POP POP JUMP JUMPDEST PUSH2 0x4A7 PUSH2 0x8AB JUMP JUMPDEST PUSH1 0x3 DUP1 SLOAD PUSH1 0xFF PUSH1 0xA0 SHL NOT AND SWAP1 SSTORE PUSH1 0x40 MLOAD CALLER SWAP1 PUSH32 0x5DB9EE0A495BF2E6FF9C91A7834C1BA4FDD244A5E8AA4E537BD38AEAE4B073AA SWAP1 PUSH1 0x0 SWAP1 LOG2 JUMP JUMPDEST PUSH2 0x4E9 PUSH2 0x8AB JUMP JUMPDEST PUSH2 0x4F3 PUSH1 0x0 PUSH2 0xBAC JUMP JUMPDEST JUMP JUMPDEST PUSH2 0x4FD PUSH2 0x8AB JUMP JUMPDEST PUSH1 0x3 DUP1 SLOAD PUSH1 0xFF PUSH1 0xA0 SHL NOT AND PUSH1 0x1 PUSH1 0xA0 SHL OR SWAP1 SSTORE PUSH1 0x40 MLOAD CALLER SWAP1 PUSH32 0x62E78CEA01BEE320CD4E420270B5EA74000D11B0C9F74754EBDBFC544B05A258 SWAP1 PUSH1 0x0 SWAP1 LOG2 JUMP JUMPDEST PUSH1 0x0 PUSH2 0x307 DUP5 DUP5 DUP5 PUSH2 0xBFC JUMP JUMPDEST PUSH1 0x0 PUSH2 0x307 DUP5 DUP5 DUP5 PUSH2 0xC71 JUMP JUMPDEST PUSH1 0x40 MLOAD PUSH4 0xB4F69A2F PUSH1 0xE0 SHL DUP2 MSTORE PUSH1 0x1 PUSH1 0x1 PUSH1 0xA0 SHL SUB DUP4 DUP2 AND PUSH1 0x4 DUP4 ADD MSTORE DUP3 DUP2 AND PUSH1 0x24 DUP4 ADD MSTORE PUSH1 0x0 SWAP2 DUP3 SWAP2 DUP3 SWAP2 PUSH32 0x0 SWAP1 SWAP2 AND SWAP1 PUSH4 0xB4F69A2F SWAP1 PUSH1 0x44 ADD PUSH1 0x20 PUSH1 0x40 MLOAD DUP1 DUP4 SUB DUP2 DUP7 GAS STATICCALL ISZERO DUP1 ISZERO PUSH2 0x5CE JUMPI RETURNDATASIZE PUSH1 0x0 DUP1 RETURNDATACOPY RETURNDATASIZE PUSH1 0x0 REVERT JUMPDEST POP POP POP POP PUSH1 0x40 MLOAD RETURNDATASIZE PUSH1 0x1F NOT PUSH1 0x1F DUP3 ADD AND DUP3 ADD DUP1 PUSH1 0x40 MSTORE POP DUP2 ADD SWAP1 PUSH2 0x5F2 SWAP2 SWAP1 PUSH2 0x1247 JUMP JUMPDEST SWAP1 POP PUSH1 0x1 PUSH1 0x1 PUSH1 0xA0 SHL SUB DUP2 AND PUSH2 0x60F JUMPI PUSH1 0x0 DUP1 SWAP3 POP SWAP3 POP POP PUSH2 0x61F JUMP JUMPDEST PUSH2 0x619 DUP2 DUP7 PUSH2 0x9DF JUMP JUMPDEST SWAP3 POP SWAP3 POP POP JUMPDEST SWAP3 POP SWAP3 SWAP1 POP JUMP JUMPDEST PUSH1 0x0 PUSH2 0x630 PUSH2 0x8D8 JUMP JUMPDEST PUSH1 0x3 SLOAD PUSH1 0x1 PUSH1 0xA0 SHL SWAP1 DIV PUSH1 0xFF AND ISZERO PUSH2 0x65B JUMPI PUSH1 0x40 MLOAD PUSH4 0x7AB15AD PUSH1 0xE5 SHL DUP2 MSTORE PUSH1 0x4 ADD PUSH1 0x40 MLOAD DUP1 SWAP2 SUB SWAP1 REVERT JUMPDEST DUP3 DUP1 TIMESTAMP GT ISZERO PUSH2 0x680 JUMPI PUSH1 0x40 MLOAD PUSH4 0x7C06DD75 PUSH1 0xE1 SHL DUP2 MSTORE PUSH1 0x4 DUP2 ADD DUP3 SWAP1 MSTORE PUSH1 0x24 ADD PUSH2 0x3B7 JUMP JUMPDEST DUP9 PUSH1 0x0 SUB PUSH2 0x6A1 JUMPI PUSH1 0x40 MLOAD PUSH4 0x1F2A2005 PUSH1 0xE0 SHL DUP2 MSTORE PUSH1 0x4 ADD PUSH1 0x40 MLOAD DUP1 SWAP2 SUB SWAP1 REVERT JUMPDEST PUSH1 0x1 PUSH1 0x1 PUSH1 0xA0 SHL SUB DUP6 AND PUSH2 0x6C8 JUMPI PUSH1 0x40 MLOAD PUSH4 0xD92E233D PUSH1 0xE0 SHL DUP2 MSTORE PUSH1 0x4 ADD PUSH1 0x40 MLOAD DUP1 SWAP2 SUB SWAP1 REVERT JUMPDEST PUSH1 0x0 DUP1 PUSH2 0x6D8 PUSH2 0x418 DUP11 DUP11 PUSH2 0x906 JUMP JUMPDEST SWAP2 POP SWAP2 POP PUSH2 0x6E7 DUP12 DUP4 DUP4 PUSH2 0xBFC JUMP JUMPDEST SWAP4 POP DUP10 DUP5 GT ISZERO PUSH2 0x70A JUMPI PUSH1 0x40 MLOAD PUSH4 0xE1B0DA4F PUSH1 0xE0 SHL DUP2 MSTORE PUSH1 0x4 ADD PUSH1 0x40 MLOAD DUP1 SWAP2 SUB SWAP1 REVERT JUMPDEST PUSH2 0x468 DUP10 DUP10 DUP7 DUP15 DUP12 DUP11 PUSH2 0xB01 JUMP JUMPDEST PUSH2 0x720 PUSH2 0x8AB JUMP JUMPDEST PUSH1 0x1 PUSH1 0x1 PUSH1 0xA0 SHL SUB DUP2 AND PUSH2 0x747 JUMPI PUSH1 0x40 MLOAD PUSH4 0xD92E233D PUSH1 0xE0 SHL DUP2 MSTORE PUSH1 0x4 ADD PUSH1 0x40 MLOAD DUP1 SWAP2 SUB SWAP1 REVERT JUMPDEST PUSH1 0x1 SLOAD PUSH1 0x40 MLOAD PUSH1 0x1 PUSH1 0x1 PUSH1 0xA0 SHL SUB DUP1 DUP5 AND SWAP3 AND SWAP1 PUSH32 0x4AB5BE82436D353E61CA18726E984E561F5C1CC7C6D38B29D2553C790434705A SWAP1 PUSH1 0x0 SWAP1 LOG3 PUSH1 0x1 DUP1 SLOAD PUSH1 0x1 PUSH1 0x1 PUSH1 0xA0 SHL SUB NOT AND PUSH1 0x1 PUSH1 0x1 PUSH1 0xA0 SHL SUB SWAP3 SWAP1 SWAP3 AND SWAP2 SWAP1 SWAP2 OR SWAP1 SSTORE JUMP JUMPDEST PUSH2 0x7AB PUSH2 0x8AB JUMP JUMPDEST PUSH1 0x2 DUP1 SLOAD PUSH1 0x1 PUSH1 0x1 PUSH1 0xA0 SHL SUB NOT AND PUSH1 0x1 PUSH1 0x1 PUSH1 0xA0 SHL SUB DUP4 AND SWAP1 DUP2 OR SWAP1 SWAP2 SSTORE PUSH1 0x40 MLOAD PUSH32 0x34B668B6F49E81B64BDB88C7DE7501C0A197D9B12C46848EF3BCD59152843210 SWAP1 PUSH1 0x0 SWAP1 LOG2 POP JUMP JUMPDEST PUSH2 0x7FD PUSH2 0x8AB JUMP JUMPDEST PUSH1 0x1 PUSH1 0x1 PUSH1 0xA0 SHL SUB DUP2 AND PUSH2 0x827 JUMPI PUSH1 0x40 MLOAD PUSH4 0x1E4FBDF7 PUSH1 0xE0 SHL DUP2 MSTORE PUSH1 0x0 PUSH1 0x4 DUP3 ADD MSTORE PUSH1 0x24 ADD PUSH2 0x3B7 JUMP JUMPDEST PUSH2 0x830 DUP2 PUSH2 0xBAC JUMP JUMPDEST POP JUMP JUMPDEST PUSH1 0x0 DUP4 ISZERO DUP1 PUSH2 0x840 JUMPI POP DUP3 ISZERO JUMPDEST DUP1 PUSH2 0x849 JUMPI POP DUP2 ISZERO JUMPDEST ISZERO PUSH2 0x867 JUMPI PUSH1 0x40 MLOAD PUSH4 0x1F2A2005 PUSH1 0xE0 SHL DUP2 MSTORE PUSH1 0x4 ADD PUSH1 0x40 MLOAD DUP1 SWAP2 SUB SWAP1 REVERT JUMPDEST PUSH1 0x0 PUSH2 0x875 DUP6 PUSH2 0x3E5 PUSH2 0x127A JUMP JUMPDEST SWAP1 POP DUP1 PUSH2 0x884 DUP6 PUSH2 0x3E8 PUSH2 0x127A JUMP JUMPDEST PUSH2 0x88E SWAP2 SWAP1 PUSH2 0x1291 JUMP JUMPDEST PUSH2 0x898 DUP5 DUP4 PUSH2 0x127A JUMP JUMPDEST PUSH2 0x8A2 SWAP2 SWAP1 PUSH2 0x12A4 JUMP JUMPDEST SWAP6 SWAP5 POP POP POP POP POP JUMP JUMPDEST PUSH1 0x0 SLOAD PUSH1 0x1 PUSH1 0x1 PUSH1 0xA0 SHL SUB AND CALLER EQ PUSH2 0x4F3 JUMPI PUSH1 0x40 MLOAD PUSH4 0x118CDAA7 PUSH1 0xE0 SHL DUP2 MSTORE CALLER PUSH1 0x4 DUP3 ADD MSTORE PUSH1 0x24 ADD PUSH2 0x3B7 JUMP JUMPDEST PUSH2 0x8E0 PUSH2 0xCBA JUMP JUMPDEST PUSH1 0x2 PUSH32 0x9B779B17422D0DF92223018B32B4D1FA46E071723D6817E2486D003BECC55F00 SSTORE JUMP JUMPDEST PUSH1 0x40 MLOAD PUSH4 0xB4F69A2F PUSH1 0xE0 SHL DUP2 MSTORE PUSH1 0x1 PUSH1 0x1 PUSH1 0xA0 SHL SUB DUP4 DUP2 AND PUSH1 0x4 DUP4 ADD MSTORE DUP3 DUP2 AND PUSH1 0x24 DUP4 ADD MSTORE PUSH1 0x0 SWAP2 PUSH32 0x0 SWAP1 SWAP2 AND SWAP1 PUSH4 0xB4F69A2F SWAP1 PUSH1 0x44 ADD PUSH1 0x20 PUSH1 0x40 MLOAD DUP1 DUP4 SUB DUP2 DUP7 GAS STATICCALL ISZERO DUP1 ISZERO PUSH2 0x979 JUMPI RETURNDATASIZE PUSH1 0x0 DUP1 RETURNDATACOPY RETURNDATASIZE PUSH1 0x0 REVERT JUMPDEST POP POP POP POP PUSH1 0x40 MLOAD RETURNDATASIZE PUSH1 0x1F NOT PUSH1 0x1F DUP3 ADD AND DUP3 ADD DUP1 PUSH1 0x40 MSTORE POP DUP2 ADD SWAP1 PUSH2 0x99D SWAP2 SWAP1 PUSH2 0x1247 JUMP JUMPDEST SWAP1 POP PUSH1 0x1 PUSH1 0x1 PUSH1 0xA0 SHL SUB DUP2 AND PUSH2 0x9D9 JUMPI PUSH1 0x40 MLOAD PUSH4 0x136C5C75 PUSH1 0xE2 SHL DUP2 MSTORE PUSH1 0x1 PUSH1 0x1 PUSH1 0xA0 SHL SUB DUP1 DUP6 AND PUSH1 0x4 DUP4 ADD MSTORE DUP4 AND PUSH1 0x24 DUP3 ADD MSTORE PUSH1 0x44 ADD PUSH2 0x3B7 JUMP JUMPDEST SWAP3 SWAP2 POP POP JUMP JUMPDEST PUSH1 0x0 DUP1 PUSH1 0x0 DUP1 DUP6 PUSH1 0x1 PUSH1 0x1 PUSH1 0xA0 SHL SUB AND PUSH4 0x902F1AC PUSH1 0x40 MLOAD DUP2 PUSH4 0xFFFFFFFF AND PUSH1 0xE0 SHL DUP2 MSTORE PUSH1 0x4 ADD PUSH1 0x60 PUSH1 0x40 MLOAD DUP1 DUP4 SUB DUP2 DUP7 GAS STATICCALL ISZERO DUP1 ISZERO PUSH2 0xA23 JUMPI RETURNDATASIZE PUSH1 0x0 DUP1 RETURNDATACOPY RETURNDATASIZE PUSH1 0x0 REVERT JUMPDEST POP POP POP POP PUSH1 0x40 MLOAD RETURNDATASIZE PUSH1 0x1F NOT PUSH1 0x1F DUP3 ADD AND DUP3 ADD DUP1 PUSH1 0x40 MSTORE POP DUP2 ADD SWAP1 PUSH2 0xA47 SWAP2 SWAP1 PUSH2 0x12E2 JUMP JUMPDEST POP SWAP2 POP SWAP2 POP DUP6 PUSH1 0x1 PUSH1 0x1 PUSH1 0xA0 SHL SUB AND PUSH4 0xDFE1681 PUSH1 0x40 MLOAD DUP2 PUSH4 0xFFFFFFFF AND PUSH1 0xE0 SHL DUP2 MSTORE PUSH1 0x4 ADD PUSH1 0x20 PUSH1 0x40 MLOAD DUP1 DUP4 SUB DUP2 DUP7 GAS STATICCALL ISZERO DUP1 ISZERO PUSH2 0xA8A JUMPI RETURNDATASIZE PUSH1 0x0 DUP1 RETURNDATACOPY RETURNDATASIZE PUSH1 0x0 REVERT JUMPDEST POP POP POP POP PUSH1 0x40 MLOAD RETURNDATASIZE PUSH1 0x1F NOT PUSH1 0x1F DUP3 ADD AND DUP3 ADD DUP1 PUSH1 0x40 MSTORE POP DUP2 ADD SWAP1 PUSH2 0xAAE SWAP2 SWAP1 PUSH2 0x1247 JUMP JUMPDEST PUSH1 0x1 PUSH1 0x1 PUSH1 0xA0 SHL SUB AND DUP6 PUSH1 0x1 PUSH1 0x1 PUSH1 0xA0 SHL SUB AND EQ PUSH2 0xADF JUMPI DUP1 PUSH1 0x1 PUSH1 0x1 PUSH1 0x70 SHL SUB AND DUP3 PUSH1 0x1 PUSH1 0x1 PUSH1 0x70 SHL SUB AND PUSH2 0xAF4 JUMP JUMPDEST DUP2 PUSH1 0x1 PUSH1 0x1 PUSH1 0x70 SHL SUB AND DUP2 PUSH1 0x1 PUSH1 0x1 PUSH1 0x70 SHL SUB AND JUMPDEST SWAP1 SWAP8 SWAP1 SWAP7 POP SWAP5 POP POP POP POP POP JUMP JUMPDEST PUSH1 0x0 PUSH2 0xB0D DUP8 DUP8 PUSH2 0x906 JUMP JUMPDEST SWAP1 POP PUSH2 0xB24 PUSH1 0x1 PUSH1 0x1 PUSH1 0xA0 SHL SUB DUP9 AND CALLER DUP4 DUP9 PUSH2 0xCFC JUMP JUMPDEST PUSH2 0xB2E DUP8 DUP7 PUSH2 0xD38 JUMP JUMPDEST PUSH2 0xB3A DUP2 DUP9 DUP7 DUP7 PUSH2 0xDD9 JUMP JUMPDEST PUSH2 0xB44 DUP8 DUP4 PUSH2 0xEE0 JUMP JUMPDEST PUSH1 0x40 DUP1 MLOAD CALLER DUP2 MSTORE PUSH1 0x1 PUSH1 0x1 PUSH1 0xA0 SHL SUB DUP10 DUP2 AND PUSH1 0x20 DUP4 ADD MSTORE DUP9 DUP2 AND DUP3 DUP5 ADD MSTORE PUSH1 0x60 DUP3 ADD DUP9 SWAP1 MSTORE PUSH1 0x80 DUP3 ADD DUP8 SWAP1 MSTORE DUP6 AND PUSH1 0xA0 DUP3 ADD MSTORE SWAP1 MLOAD PUSH32 0x300B4A9AC356114BE2EAFFE0F530CD615F14560DF4B634ADC11142D1358E8976 SWAP2 DUP2 SWAP1 SUB PUSH1 0xC0 ADD SWAP1 LOG1 POP POP POP POP POP POP POP JUMP JUMPDEST PUSH1 0x0 DUP1 SLOAD PUSH1 0x1 PUSH1 0x1 PUSH1 0xA0 SHL SUB DUP4 DUP2 AND PUSH1 0x1 PUSH1 0x1 PUSH1 0xA0 SHL SUB NOT DUP4 AND DUP2 OR DUP5 SSTORE PUSH1 0x40 MLOAD SWAP2 SWAP1 SWAP3 AND SWAP3 DUP4 SWAP2 PUSH32 0x8BE0079C531659141344CD1FD0A4F28419497F9722A3DAAFE3B4186F6B6457E0 SWAP2 SWAP1 LOG3 POP POP JUMP JUMPDEST PUSH1 0x0 DUP4 ISZERO DUP1 PUSH2 0xC09 JUMPI POP DUP3 ISZERO JUMPDEST DUP1 PUSH2 0xC12 JUMPI POP DUP2 ISZERO JUMPDEST ISZERO PUSH2 0xC30 JUMPI PUSH1 0x40 MLOAD PUSH4 0x1F2A2005 PUSH1 0xE0 SHL DUP2 MSTORE PUSH1 0x4 ADD PUSH1 0x40 MLOAD DUP1 SWAP2 SUB SWAP1 REVERT JUMPDEST PUSH2 0xC3A DUP5 DUP4 PUSH2 0x1332 JUMP JUMPDEST PUSH2 0xC46 SWAP1 PUSH2 0x3E5 PUSH2 0x127A JUMP JUMPDEST PUSH2 0xC50 DUP6 DUP6 PUSH2 0x127A JUMP JUMPDEST PUSH2 0xC5C SWAP1 PUSH2 0x3E8 PUSH2 0x127A JUMP JUMPDEST PUSH2 0xC66 SWAP2 SWAP1 PUSH2 0x12A4 JUMP JUMPDEST PUSH2 0x307 SWAP1 PUSH1 0x1 PUSH2 0x1291 JUMP JUMPDEST PUSH1 0x0 DUP4 ISZERO DUP1 PUSH2 0xC7E JUMPI POP DUP3 ISZERO JUMPDEST DUP1 PUSH2 0xC87 JUMPI POP DUP2 ISZERO JUMPDEST ISZERO PUSH2 0xCA5 JUMPI PUSH1 0x40 MLOAD PUSH4 0x1F2A2005 PUSH1 0xE0 SHL DUP2 MSTORE PUSH1 0x4 ADD PUSH1 0x40 MLOAD DUP1 SWAP2 SUB SWAP1 REVERT JUMPDEST DUP3 PUSH2 0xCB0 DUP4 DUP7 PUSH2 0x127A JUMP JUMPDEST PUSH2 0x307 SWAP2 SWAP1 PUSH2 0x12A4 JUMP JUMPDEST PUSH32 0x9B779B17422D0DF92223018B32B4D1FA46E071723D6817E2486D003BECC55F00 SLOAD PUSH1 0x2 SUB PUSH2 0x4F3 JUMPI PUSH1 0x40 MLOAD PUSH4 0x3EE5AEB5 PUSH1 0xE0 SHL DUP2 MSTORE PUSH1 0x4 ADD PUSH1 0x40 MLOAD DUP1 SWAP2 SUB SWAP1 REVERT JUMPDEST PUSH2 0xD0A DUP5 DUP5 DUP5 DUP5 PUSH1 0x1 PUSH2 0x10AE JUMP JUMPDEST PUSH2 0xD32 JUMPI PUSH1 0x40 MLOAD PUSH4 0x5274AFE7 PUSH1 0xE0 SHL DUP2 MSTORE PUSH1 0x1 PUSH1 0x1 PUSH1 0xA0 SHL SUB DUP6 AND PUSH1 0x4 DUP3 ADD MSTORE PUSH1 0x24 ADD PUSH2 0x3B7 JUMP JUMPDEST POP POP POP POP JUMP JUMPDEST PUSH1 0x0 PUSH2 0x2710 PUSH2 0xD48 PUSH1 0x5 DUP5 PUSH2 0x127A JUMP JUMPDEST PUSH2 0xD52 SWAP2 SWAP1 PUSH2 0x12A4 JUMP JUMPDEST SWAP1 POP PUSH1 0x0 DUP2 GT DUP1 ISZERO PUSH2 0xD6E JUMPI POP PUSH1 0x1 SLOAD PUSH1 0x1 PUSH1 0x1 PUSH1 0xA0 SHL SUB AND ISZERO ISZERO JUMPDEST ISZERO PUSH2 0xDD4 JUMPI PUSH1 0x1 SLOAD PUSH2 0xD8F SWAP1 PUSH1 0x1 PUSH1 0x1 PUSH1 0xA0 SHL SUB DUP6 DUP2 AND SWAP2 CALLER SWAP2 AND DUP5 PUSH2 0xCFC JUMP JUMPDEST PUSH1 0x1 SLOAD PUSH1 0x40 MLOAD DUP3 DUP2 MSTORE PUSH1 0x1 PUSH1 0x1 PUSH1 0xA0 SHL SUB DUP6 DUP2 AND SWAP3 AND SWAP1 PUSH32 0x493FDD1F2099B9854729D46428CE244DBB655E5209E74967FD51B0F0E9FE4E1E SWAP1 PUSH1 0x20 ADD PUSH1 0x40 MLOAD DUP1 SWAP2 SUB SWAP1 LOG3 JUMPDEST POP POP POP JUMP JUMPDEST PUSH1 0x0 DUP4 PUSH1 0x1 PUSH1 0x1 PUSH1 0xA0 SHL SUB AND DUP6 PUSH1 0x1 PUSH1 0x1 PUSH1 0xA0 SHL SUB AND PUSH4 0xDFE1681 PUSH1 0x40 MLOAD DUP2 PUSH4 0xFFFFFFFF AND PUSH1 0xE0 SHL DUP2 MSTORE PUSH1 0x4 ADD PUSH1 0x20 PUSH1 0x40 MLOAD DUP1 DUP4 SUB DUP2 DUP7 GAS STATICCALL ISZERO DUP1 ISZERO PUSH2 0xE23 JUMPI RETURNDATASIZE PUSH1 0x0 DUP1 RETURNDATACOPY RETURNDATASIZE PUSH1 0x0 REVERT JUMPDEST POP POP POP POP PUSH1 0x40 MLOAD RETURNDATASIZE PUSH1 0x1F NOT PUSH1 0x1F DUP3 ADD AND DUP3 ADD DUP1 PUSH1 0x40 MSTORE POP DUP2 ADD SWAP1 PUSH2 0xE47 SWAP2 SWAP1 PUSH2 0x1247 JUMP JUMPDEST PUSH1 0x1 PUSH1 0x1 PUSH1 0xA0 SHL SUB AND EQ SWAP1 POP PUSH1 0x0 DUP1 DUP3 PUSH2 0xE63 JUMPI DUP5 PUSH1 0x0 PUSH2 0xE67 JUMP JUMPDEST PUSH1 0x0 DUP6 JUMPDEST PUSH1 0x40 MLOAD PUSH4 0x36CD3205 PUSH1 0xE1 SHL DUP2 MSTORE PUSH1 0x4 DUP2 ADD DUP4 SWAP1 MSTORE PUSH1 0x24 DUP2 ADD DUP3 SWAP1 MSTORE PUSH1 0x1 PUSH1 0x1 PUSH1 0xA0 SHL SUB DUP8 DUP2 AND PUSH1 0x44 DUP4 ADD MSTORE SWAP3 SWAP5 POP SWAP1 SWAP3 POP SWAP1 DUP9 AND SWAP1 PUSH4 0x6D9A640A SWAP1 PUSH1 0x64 ADD PUSH1 0x0 PUSH1 0x40 MLOAD DUP1 DUP4 SUB DUP2 PUSH1 0x0 DUP8 DUP1 EXTCODESIZE ISZERO DUP1 ISZERO PUSH2 0xEBF JUMPI PUSH1 0x0 DUP1 REVERT JUMPDEST POP GAS CALL ISZERO DUP1 ISZERO PUSH2 0xED3 JUMPI RETURNDATASIZE PUSH1 0x0 DUP1 RETURNDATACOPY RETURNDATASIZE PUSH1 0x0 REVERT JUMPDEST POP POP POP POP POP POP POP POP POP POP POP JUMP JUMPDEST DUP1 PUSH2 0xEE9 JUMPI POP POP JUMP JUMPDEST PUSH1 0x3 SLOAD PUSH1 0x1 PUSH1 0x1 PUSH1 0xA0 SHL SUB AND PUSH2 0xEFD JUMPI POP POP JUMP JUMPDEST PUSH1 0x2 SLOAD PUSH1 0x1 PUSH1 0x1 PUSH1 0xA0 SHL SUB AND PUSH2 0xF11 JUMPI POP POP JUMP JUMPDEST PUSH1 0x2 SLOAD PUSH1 0x40 MLOAD PUSH4 0x66E305FD PUSH1 0xE0 SHL DUP2 MSTORE PUSH1 0x1 PUSH1 0x1 PUSH1 0xA0 SHL SUB DUP5 DUP2 AND PUSH1 0x4 DUP4 ADD MSTORE SWAP1 SWAP2 AND SWAP1 PUSH4 0x66E305FD SWAP1 PUSH1 0x24 ADD PUSH1 0x20 PUSH1 0x40 MLOAD DUP1 DUP4 SUB DUP2 DUP7 GAS STATICCALL SWAP3 POP POP POP DUP1 ISZERO PUSH2 0xF77 JUMPI POP PUSH1 0x40 DUP1 MLOAD PUSH1 0x1F RETURNDATASIZE SWAP1 DUP2 ADD PUSH1 0x1F NOT AND DUP3 ADD SWAP1 SWAP3 MSTORE PUSH2 0xF74 SWAP2 DUP2 ADD SWAP1 PUSH2 0x1345 JUMP JUMPDEST PUSH1 0x1 JUMPDEST PUSH2 0xF7F JUMPI POP POP JUMP JUMPDEST DUP1 PUSH2 0xF89 JUMPI POP POP POP JUMP JUMPDEST POP PUSH1 0x3 PUSH1 0x0 SWAP1 SLOAD SWAP1 PUSH2 0x100 EXP SWAP1 DIV PUSH1 0x1 PUSH1 0x1 PUSH1 0xA0 SHL SUB AND PUSH1 0x1 PUSH1 0x1 PUSH1 0xA0 SHL SUB AND PUSH4 0xC33B7586 PUSH1 0x40 MLOAD DUP2 PUSH4 0xFFFFFFFF AND PUSH1 0xE0 SHL DUP2 MSTORE PUSH1 0x4 ADD PUSH1 0x20 PUSH1 0x40 MLOAD DUP1 DUP4 SUB DUP2 DUP7 GAS STATICCALL SWAP3 POP POP POP DUP1 ISZERO PUSH2 0xFF9 JUMPI POP PUSH1 0x40 DUP1 MLOAD PUSH1 0x1F RETURNDATASIZE SWAP1 DUP2 ADD PUSH1 0x1F NOT AND DUP3 ADD SWAP1 SWAP3 MSTORE PUSH2 0xFF6 SWAP2 DUP2 ADD SWAP1 PUSH2 0x1345 JUMP JUMPDEST PUSH1 0x1 JUMPDEST PUSH2 0x1001 JUMPI POP POP JUMP JUMPDEST DUP1 ISZERO PUSH2 0x100C JUMPI POP POP POP JUMP JUMPDEST POP PUSH1 0x3 PUSH1 0x0 SWAP1 SLOAD SWAP1 PUSH2 0x100 EXP SWAP1 DIV PUSH1 0x1 PUSH1 0x1 PUSH1 0xA0 SHL SUB AND PUSH1 0x1 PUSH1 0x1 PUSH1 0xA0 SHL SUB AND PUSH4 0xB7A567B PUSH1 0x40 MLOAD DUP2 PUSH4 0xFFFFFFFF AND PUSH1 0xE0 SHL DUP2 MSTORE PUSH1 0x4 ADD PUSH1 0x0 PUSH1 0x40 MLOAD DUP1 DUP4 SUB DUP2 PUSH1 0x0 DUP8 DUP1 EXTCODESIZE ISZERO DUP1 ISZERO PUSH2 0x105D JUMPI PUSH1 0x0 DUP1 REVERT JUMPDEST POP GAS CALL SWAP3 POP POP POP DUP1 ISZERO PUSH2 0x106E JUMPI POP PUSH1 0x1 JUMPDEST ISZERO PUSH2 0x10AA JUMPI PUSH1 0x40 MLOAD PUSH1 0x1 PUSH1 0x1 PUSH1 0xA0 SHL SUB DUP4 AND SWAP1 CALLER SWAP1 PUSH32 0xC991FDC6F1D37402CF43CD51BE704037EF268E0E50A068C178918A86B1919238 SWAP1 PUSH1 0x0 SWAP1 LOG3 JUMPDEST POP POP JUMP JUMPDEST PUSH1 0x40 MLOAD PUSH4 0x23B872DD PUSH1 0xE0 SHL PUSH1 0x0 DUP2 DUP2 MSTORE PUSH1 0x1 PUSH1 0x1 PUSH1 0xA0 SHL SUB DUP8 DUP2 AND PUSH1 0x4 MSTORE DUP7 AND PUSH1 0x24 MSTORE PUSH1 0x44 DUP6 SWAP1 MSTORE SWAP2 PUSH1 0x20 DUP4 PUSH1 0x64 DUP2 DUP1 DUP13 GAS CALL SWAP3 POP PUSH1 0x1 PUSH1 0x0 MLOAD EQ DUP4 AND PUSH2 0x110E JUMPI DUP4 DUP4 ISZERO AND ISZERO PUSH2 0x1101 JUMPI RETURNDATASIZE PUSH1 0x0 DUP3 RETURNDATACOPY RETURNDATASIZE DUP2 REVERT JUMPDEST PUSH1 0x0 DUP9 EXTCODESIZE GT RETURNDATASIZE ISZERO AND DUP4 AND SWAP3 POP JUMPDEST PUSH1 0x40 MSTORE POP PUSH1 0x0 PUSH1 0x60 MSTORE SWAP6 SWAP5 POP POP POP POP POP JUMP JUMPDEST PUSH1 0x0 DUP1 PUSH1 0x0 PUSH1 0x60 DUP5 DUP7 SUB SLT ISZERO PUSH2 0x1135 JUMPI PUSH1 0x0 DUP1 REVERT JUMPDEST POP POP DUP2 CALLDATALOAD SWAP4 PUSH1 0x20 DUP4 ADD CALLDATALOAD SWAP4 POP PUSH1 0x40 SWAP1 SWAP3 ADD CALLDATALOAD SWAP2 SWAP1 POP JUMP JUMPDEST PUSH1 0x1 PUSH1 0x1 PUSH1 0xA0 SHL SUB DUP2 AND DUP2 EQ PUSH2 0x830 JUMPI PUSH1 0x0 DUP1 REVERT JUMPDEST PUSH1 0x0 PUSH1 0x20 DUP3 DUP5 SUB SLT ISZERO PUSH2 0x1173 JUMPI PUSH1 0x0 DUP1 REVERT JUMPDEST DUP2 CALLDATALOAD PUSH2 0x117E DUP2 PUSH2 0x114C JUMP JUMPDEST SWAP4 SWAP3 POP POP POP JUMP JUMPDEST DUP1 ISZERO ISZERO DUP2 EQ PUSH2 0x830 JUMPI PUSH1 0x0 DUP1 REVERT JUMPDEST PUSH1 0x0 DUP1 PUSH1 0x0 DUP1 PUSH1 0x0 DUP1 PUSH1 0x0 PUSH1 0xE0 DUP9 DUP11 SUB SLT ISZERO PUSH2 0x11AE JUMPI PUSH1 0x0 DUP1 REVERT JUMPDEST DUP8 CALLDATALOAD SWAP7 POP PUSH1 0x20 DUP9 ADD CALLDATALOAD SWAP6 POP PUSH1 0x40 DUP9 ADD CALLDATALOAD PUSH2 0x11C7 DUP2 PUSH2 0x114C JUMP JUMPDEST SWAP5 POP PUSH1 0x60 DUP9 ADD CALLDATALOAD PUSH2 0x11D7 DUP2 PUSH2 0x114C JUMP JUMPDEST SWAP4 POP PUSH1 0x80 DUP9 ADD CALLDATALOAD PUSH2 0x11E7 DUP2 PUSH2 0x114C JUMP JUMPDEST SWAP3 POP PUSH1 0xA0 DUP9 ADD CALLDATALOAD SWAP2 POP PUSH1 0xC0 DUP9 ADD CALLDATALOAD PUSH2 0x11FE DUP2 PUSH2 0x1185 JUMP JUMPDEST DUP1 SWAP2 POP POP SWAP3 SWAP6 SWAP9 SWAP2 SWAP5 SWAP8 POP SWAP3 SWAP6 POP JUMP JUMPDEST PUSH1 0x0 DUP1 PUSH1 0x40 DUP4 DUP6 SUB SLT ISZERO PUSH2 0x1221 JUMPI PUSH1 0x0 DUP1 REVERT JUMPDEST DUP3 CALLDATALOAD PUSH2 0x122C DUP2 PUSH2 0x114C JUMP JUMPDEST SWAP2 POP PUSH1 0x20 DUP4 ADD CALLDATALOAD PUSH2 0x123C DUP2 PUSH2 0x114C JUMP JUMPDEST DUP1 SWAP2 POP POP SWAP3 POP SWAP3 SWAP1 POP JUMP JUMPDEST PUSH1 0x0 PUSH1 0x20 DUP3 DUP5 SUB SLT ISZERO PUSH2 0x1259 JUMPI PUSH1 0x0 DUP1 REVERT JUMPDEST DUP2 MLOAD PUSH2 0x117E DUP2 PUSH2 0x114C JUMP JUMPDEST PUSH4 0x4E487B71 PUSH1 0xE0 SHL PUSH1 0x0 MSTORE PUSH1 0x11 PUSH1 0x4 MSTORE PUSH1 0x24 PUSH1 0x0 REVERT JUMPDEST DUP1 DUP3 MUL DUP2 ISZERO DUP3 DUP3 DIV DUP5 EQ OR PUSH2 0x9D9 JUMPI PUSH2 0x9D9 PUSH2 0x1264 JUMP JUMPDEST DUP1 DUP3 ADD DUP1 DUP3 GT ISZERO PUSH2 0x9D9 JUMPI PUSH2 0x9D9 PUSH2 0x1264 JUMP JUMPDEST PUSH1 0x0 DUP3 PUSH2 0x12C1 JUMPI PUSH4 0x4E487B71 PUSH1 0xE0 SHL PUSH1 0x0 MSTORE PUSH1 0x12 PUSH1 0x4 MSTORE PUSH1 0x24 PUSH1 0x0 REVERT JUMPDEST POP DIV SWAP1 JUMP JUMPDEST DUP1 MLOAD PUSH1 0x1 PUSH1 0x1 PUSH1 0x70 SHL SUB DUP2 AND DUP2 EQ PUSH2 0x12DD JUMPI PUSH1 0x0 DUP1 REVERT JUMPDEST SWAP2 SWAP1 POP JUMP JUMPDEST PUSH1 0x0 DUP1 PUSH1 0x0 PUSH1 0x60 DUP5 DUP7 SUB SLT ISZERO PUSH2 0x12F7 JUMPI PUSH1 0x0 DUP1 REVERT JUMPDEST PUSH2 0x1300 DUP5 PUSH2 0x12C6 JUMP JUMPDEST SWAP3 POP PUSH2 0x130E PUSH1 0x20 DUP6 ADD PUSH2 0x12C6 JUMP JUMPDEST SWAP2 POP PUSH1 0x40 DUP5 ADD MLOAD PUSH4 0xFFFFFFFF DUP2 AND DUP2 EQ PUSH2 0x1327 JUMPI PUSH1 0x0 DUP1 REVERT JUMPDEST DUP1 SWAP2 POP POP SWAP3 POP SWAP3 POP SWAP3 JUMP JUMPDEST DUP2 DUP2 SUB DUP2 DUP2 GT ISZERO PUSH2 0x9D9 JUMPI PUSH2 0x9D9 PUSH2 0x1264 JUMP JUMPDEST PUSH1 0x0 PUSH1 0x20 DUP3 DUP5 SUB SLT ISZERO PUSH2 0x1357 JUMPI PUSH1 0x0 DUP1 REVERT JUMPDEST DUP2 MLOAD PUSH2 0x117E DUP2 PUSH2 0x1185 JUMP INVALID LOG2 PUSH5 0x6970667358 0x22 SLT KECCAK256 0xA9 0x22 0xED STOP 0xDC 0xEE PUSH12 0xCF9B2D2D8D13F1BAA8F8F48 INVALID 0xE0 0xC4 0xB4 DUP6 0xD 0xDD PUSH4 0xFF422779 0xC8 PUSH5 0x736F6C6343 STOP ADDMOD XOR STOP CALLER "
				},
				"gasEstimates": {
					"creation": {
						"codeDepositCost": "1003200",
						"executionCost": "infinite",
						"totalCost": "infinite"
					},
					"external": {
						"BPS_DENOMINATOR()": "228",
						"PROTOCOL_FEE_BPS()": "273",
						"eligibleRegistry()": "2382",
						"factory()": "infinite",
						"getAmountIn(uint256,uint256,uint256)": "infinite",
						"getAmountOut(uint256,uint256,uint256)": "infinite",
						"getReserves(address,address)": "infinite",
						"owner()": "2354",
						"pause()": "27781",
						"paused()": "2350",
						"quote(uint256,uint256,uint256)": "infinite",
						"renounceOwnership()": "infinite",
						"setEligibleRegistry(address)": "27978",
						"setTimbPrize(address)": "27914",
						"setTreasury(address)": "30506",
						"swapExactTokensForTokens(uint256,uint256,address,address,address,uint256,bool)": "infinite",
						"swapTokensForExactTokens(uint256,uint256,address,address,address,uint256,bool)": "infinite",
						"timbPrize()": "2449",
						"transferOwnership(address)": "infinite",
						"treasury()": "2382",
						"unpause()": "27770"
					},
					"internal": {
						"_collectProtocolFee(address,uint256)": "infinite",
						"_executeSwap(address,address,uint256,uint256,address,bool)": "infinite",
						"_getAmountIn(uint256,uint256,uint256)": "infinite",
						"_getAmountOut(uint256,uint256,uint256)": "infinite",
						"_getPair(address,address)": "infinite",
						"_getReserves(address,address)": "infinite",
						"_maybeNudge(address,bool)": "infinite",
						"_quote(uint256,uint256,uint256)": "infinite",
						"_swapOnPair(address,address,uint256,address)": "infinite"
					}
				},
				"methodIdentifiers": {
					"BPS_DENOMINATOR()": "e1a45218",
					"PROTOCOL_FEE_BPS()": "be378228",
					"eligibleRegistry()": "92eaa9d9",
					"factory()": "c45a0155",
					"getAmountIn(uint256,uint256,uint256)": "85f8c259",
					"getAmountOut(uint256,uint256,uint256)": "054d50d4",
					"getReserves(address,address)": "d52bb6f4",
					"owner()": "8da5cb5b",
					"pause()": "8456cb59",
					"paused()": "5c975abb",
					"quote(uint256,uint256,uint256)": "ad615dec",
					"renounceOwnership()": "715018a6",
					"setEligibleRegistry(address)": "f13afb90",
					"setTimbPrize(address)": "27b23849",
					"setTreasury(address)": "f0f44260",
					"swapExactTokensForTokens(uint256,uint256,address,address,address,uint256,bool)": "3824659c",
					"swapTokensForExactTokens(uint256,uint256,address,address,address,uint256,bool)": "e98f6797",
					"timbPrize()": "5364276d",
					"transferOwnership(address)": "f2fde38b",
					"treasury()": "61d027b3",
					"unpause()": "3f4ba83a"
				}
			},
			"storageLayout": {
				"storage": [
					{
						"astId": 8,
						"contract": "contracts/TimbSwapRouter.sol:TimbSwapRouter",
						"label": "_owner",
						"offset": 0,
						"slot": "0",
						"type": "t_address"
					},
					{
						"astId": 1140,
						"contract": "contracts/TimbSwapRouter.sol:TimbSwapRouter",
						"label": "treasury",
						"offset": 0,
						"slot": "1",
						"type": "t_address"
					},
					{
						"astId": 1142,
						"contract": "contracts/TimbSwapRouter.sol:TimbSwapRouter",
						"label": "eligibleRegistry",
						"offset": 0,
						"slot": "2",
						"type": "t_address"
					},
					{
						"astId": 1144,
						"contract": "contracts/TimbSwapRouter.sol:TimbSwapRouter",
						"label": "timbPrize",
						"offset": 0,
						"slot": "3",
						"type": "t_address"
					},
					{
						"astId": 1146,
						"contract": "contracts/TimbSwapRouter.sol:TimbSwapRouter",
						"label": "paused",
						"offset": 20,
						"slot": "3",
						"type": "t_bool"
					}
				],
				"types": {
					"t_address": {
						"encoding": "inplace",
						"label": "address",
						"numberOfBytes": "20"
					},
					"t_bool": {
						"encoding": "inplace",
						"label": "bool",
						"numberOfBytes": "1"
					}
				}
			},
			"userdoc": {
				"kind": "user",
				"methods": {
					"swapExactTokensForTokens(uint256,uint256,address,address,address,uint256,bool)": {
						"notice": "Swap an exact amount of tokenIn for as much tokenOut as possible."
					},
					"swapTokensForExactTokens(uint256,uint256,address,address,address,uint256,bool)": {
						"notice": "Swap as little tokenIn as possible for an exact tokenOut amount."
					}
				},
				"notice": "Routes swaps and liquidity through TimbSwap AMM pairs.",
				"version": 1
			}
		}
	}
}