{
	"contracts/TimbStaking.sol": {
		"TimbStaking": {
			"abi": [
				{
					"inputs": [
						{
							"internalType": "address",
							"name": "_timbsToken",
							"type": "address"
						},
						{
							"internalType": "uint256",
							"name": "_rewardRatePerSecond",
							"type": "uint256"
						}
					],
					"stateMutability": "nonpayable",
					"type": "constructor"
				},
				{
					"inputs": [],
					"name": "ContractPaused",
					"type": "error"
				},
				{
					"inputs": [
						{
							"internalType": "uint256",
							"name": "required",
							"type": "uint256"
						},
						{
							"internalType": "uint256",
							"name": "available",
							"type": "uint256"
						}
					],
					"name": "InsufficientRewardBalance",
					"type": "error"
				},
				{
					"inputs": [
						{
							"internalType": "uint256",
							"name": "requested",
							"type": "uint256"
						},
						{
							"internalType": "uint256",
							"name": "available",
							"type": "uint256"
						}
					],
					"name": "InsufficientStake",
					"type": "error"
				},
				{
					"inputs": [],
					"name": "NoPendingRewards",
					"type": "error"
				},
				{
					"inputs": [],
					"name": "NotAuthorised",
					"type": "error"
				},
				{
					"inputs": [
						{
							"internalType": "address",
							"name": "owner",
							"type": "address"
						}
					],
					"name": "OwnableInvalidOwner",
					"type": "error"
				},
				{
					"inputs": [
						{
							"internalType": "address",
							"name": "account",
							"type": "address"
						}
					],
					"name": "OwnableUnauthorizedAccount",
					"type": "error"
				},
				{
					"inputs": [],
					"name": "ReentrancyGuardReentrantCall",
					"type": "error"
				},
				{
					"inputs": [
						{
							"internalType": "address",
							"name": "token",
							"type": "address"
						}
					],
					"name": "SafeERC20FailedOperation",
					"type": "error"
				},
				{
					"inputs": [],
					"name": "ZeroAddress",
					"type": "error"
				},
				{
					"inputs": [],
					"name": "ZeroAmount",
					"type": "error"
				},
				{
					"anonymous": false,
					"inputs": [
						{
							"indexed": true,
							"internalType": "address",
							"name": "user",
							"type": "address"
						},
						{
							"indexed": false,
							"internalType": "uint256",
							"name": "amount",
							"type": "uint256"
						}
					],
					"name": "EmergencyWithdraw",
					"type": "event"
				},
				{
					"anonymous": false,
					"inputs": [
						{
							"indexed": true,
							"internalType": "address",
							"name": "previousOwner",
							"type": "address"
						},
						{
							"indexed": true,
							"internalType": "address",
							"name": "newOwner",
							"type": "address"
						}
					],
					"name": "OwnershipTransferred",
					"type": "event"
				},
				{
					"anonymous": false,
					"inputs": [
						{
							"indexed": true,
							"internalType": "address",
							"name": "by",
							"type": "address"
						}
					],
					"name": "Paused",
					"type": "event"
				},
				{
					"anonymous": false,
					"inputs": [
						{
							"indexed": true,
							"internalType": "address",
							"name": "notifier",
							"type": "address"
						},
						{
							"indexed": false,
							"internalType": "uint256",
							"name": "amount",
							"type": "uint256"
						},
						{
							"indexed": false,
							"internalType": "uint256",
							"name": "duration",
							"type": "uint256"
						}
					],
					"name": "RewardNotified",
					"type": "event"
				},
				{
					"anonymous": false,
					"inputs": [
						{
							"indexed": true,
							"internalType": "address",
							"name": "notifier",
							"type": "address"
						},
						{
							"indexed": false,
							"internalType": "bool",
							"name": "authorised",
							"type": "bool"
						}
					],
					"name": "RewardNotifierSet",
					"type": "event"
				},
				{
					"anonymous": false,
					"inputs": [
						{
							"indexed": false,
							"internalType": "uint256",
							"name": "newRatePerSecond",
							"type": "uint256"
						}
					],
					"name": "RewardRateSet",
					"type": "event"
				},
				{
					"anonymous": false,
					"inputs": [
						{
							"indexed": true,
							"internalType": "address",
							"name": "user",
							"type": "address"
						},
						{
							"indexed": false,
							"internalType": "uint256",
							"name": "amount",
							"type": "uint256"
						}
					],
					"name": "RewardsClaimed",
					"type": "event"
				},
				{
					"anonymous": false,
					"inputs": [
						{
							"indexed": true,
							"internalType": "address",
							"name": "user",
							"type": "address"
						},
						{
							"indexed": false,
							"internalType": "uint256",
							"name": "amount",
							"type": "uint256"
						}
					],
					"name": "Staked",
					"type": "event"
				},
				{
					"anonymous": false,
					"inputs": [
						{
							"indexed": true,
							"internalType": "address",
							"name": "treasury",
							"type": "address"
						}
					],
					"name": "TreasurySet",
					"type": "event"
				},
				{
					"anonymous": false,
					"inputs": [
						{
							"indexed": true,
							"internalType": "address",
							"name": "by",
							"type": "address"
						}
					],
					"name": "Unpaused",
					"type": "event"
				},
				{
					"anonymous": false,
					"inputs": [
						{
							"indexed": true,
							"internalType": "address",
							"name": "user",
							"type": "address"
						},
						{
							"indexed": false,
							"internalType": "uint256",
							"name": "amount",
							"type": "uint256"
						}
					],
					"name": "Unstaked",
					"type": "event"
				},
				{
					"inputs": [],
					"name": "claimRewards",
					"outputs": [],
					"stateMutability": "nonpayable",
					"type": "function"
				},
				{
					"inputs": [
						{
							"internalType": "address",
							"name": "account",
							"type": "address"
						}
					],
					"name": "earned",
					"outputs": [
						{
							"internalType": "uint256",
							"name": "",
							"type": "uint256"
						}
					],
					"stateMutability": "view",
					"type": "function"
				},
				{
					"inputs": [],
					"name": "emergencyWithdraw",
					"outputs": [],
					"stateMutability": "nonpayable",
					"type": "function"
				},
				{
					"inputs": [],
					"name": "estimatedAPR",
					"outputs": [
						{
							"internalType": "uint256",
							"name": "aprBps",
							"type": "uint256"
						}
					],
					"stateMutability": "view",
					"type": "function"
				},
				{
					"inputs": [],
					"name": "exit",
					"outputs": [],
					"stateMutability": "nonpayable",
					"type": "function"
				},
				{
					"inputs": [],
					"name": "lastTimeRewardApplicable",
					"outputs": [
						{
							"internalType": "uint256",
							"name": "",
							"type": "uint256"
						}
					],
					"stateMutability": "view",
					"type": "function"
				},
				{
					"inputs": [],
					"name": "lastUpdateTime",
					"outputs": [
						{
							"internalType": "uint256",
							"name": "",
							"type": "uint256"
						}
					],
					"stateMutability": "view",
					"type": "function"
				},
				{
					"inputs": [
						{
							"internalType": "uint256",
							"name": "amount",
							"type": "uint256"
						},
						{
							"internalType": "uint256",
							"name": "duration",
							"type": "uint256"
						}
					],
					"name": "notifyRewardAmount",
					"outputs": [],
					"stateMutability": "nonpayable",
					"type": "function"
				},
				{
					"inputs": [],
					"name": "owner",
					"outputs": [
						{
							"internalType": "address",
							"name": "",
							"type": "address"
						}
					],
					"stateMutability": "view",
					"type": "function"
				},
				{
					"inputs": [],
					"name": "pause",
					"outputs": [],
					"stateMutability": "nonpayable",
					"type": "function"
				},
				{
					"inputs": [],
					"name": "paused",
					"outputs": [
						{
							"internalType": "bool",
							"name": "",
							"type": "bool"
						}
					],
					"stateMutability": "view",
					"type": "function"
				},
				{
					"inputs": [
						{
							"internalType": "address",
							"name": "",
							"type": "address"
						}
					],
					"name": "pendingRewards",
					"outputs": [
						{
							"internalType": "uint256",
							"name": "",
							"type": "uint256"
						}
					],
					"stateMutability": "view",
					"type": "function"
				},
				{
					"inputs": [],
					"name": "periodFinish",
					"outputs": [
						{
							"internalType": "uint256",
							"name": "",
							"type": "uint256"
						}
					],
					"stateMutability": "view",
					"type": "function"
				},
				{
					"inputs": [
						{
							"internalType": "address",
							"name": "token",
							"type": "address"
						},
						{
							"internalType": "uint256",
							"name": "amount",
							"type": "uint256"
						}
					],
					"name": "recoverERC20",
					"outputs": [],
					"stateMutability": "nonpayable",
					"type": "function"
				},
				{
					"inputs": [],
					"name": "renounceOwnership",
					"outputs": [],
					"stateMutability": "nonpayable",
					"type": "function"
				},
				{
					"inputs": [
						{
							"internalType": "address",
							"name": "",
							"type": "address"
						}
					],
					"name": "rewardNotifiers",
					"outputs": [
						{
							"internalType": "bool",
							"name": "",
							"type": "bool"
						}
					],
					"stateMutability": "view",
					"type": "function"
				},
				{
					"inputs": [],
					"name": "rewardPerToken",
					"outputs": [
						{
							"internalType": "uint256",
							"name": "",
							"type": "uint256"
						}
					],
					"stateMutability": "view",
					"type": "function"
				},
				{
					"inputs": [],
					"name": "rewardPerTokenStored",
					"outputs": [
						{
							"internalType": "uint256",
							"name": "",
							"type": "uint256"
						}
					],
					"stateMutability": "view",
					"type": "function"
				},
				{
					"inputs": [],
					"name": "rewardRatePerSecond",
					"outputs": [
						{
							"internalType": "uint256",
							"name": "",
							"type": "uint256"
						}
					],
					"stateMutability": "view",
					"type": "function"
				},
				{
					"inputs": [
						{
							"internalType": "address",
							"name": "notifier",
							"type": "address"
						},
						{
							"internalType": "bool",
							"name": "authorised",
							"type": "bool"
						}
					],
					"name": "setRewardNotifier",
					"outputs": [],
					"stateMutability": "nonpayable",
					"type": "function"
				},
				{
					"inputs": [
						{
							"internalType": "uint256",
							"name": "_ratePerSecond",
							"type": "uint256"
						}
					],
					"name": "setRewardRate",
					"outputs": [],
					"stateMutability": "nonpayable",
					"type": "function"
				},
				{
					"inputs": [
						{
							"internalType": "address",
							"name": "_treasury",
							"type": "address"
						}
					],
					"name": "setTreasury",
					"outputs": [],
					"stateMutability": "nonpayable",
					"type": "function"
				},
				{
					"inputs": [
						{
							"internalType": "uint256",
							"name": "amount",
							"type": "uint256"
						}
					],
					"name": "stake",
					"outputs": [],
					"stateMutability": "nonpayable",
					"type": "function"
				},
				{
					"inputs": [
						{
							"internalType": "address",
							"name": "",
							"type": "address"
						}
					],
					"name": "stakedBalance",
					"outputs": [
						{
							"internalType": "uint256",
							"name": "",
							"type": "uint256"
						}
					],
					"stateMutability": "view",
					"type": "function"
				},
				{
					"inputs": [],
					"name": "timbsToken",
					"outputs": [
						{
							"internalType": "contract IERC20",
							"name": "",
							"type": "address"
						}
					],
					"stateMutability": "view",
					"type": "function"
				},
				{
					"inputs": [],
					"name": "totalStaked",
					"outputs": [
						{
							"internalType": "uint256",
							"name": "",
							"type": "uint256"
						}
					],
					"stateMutability": "view",
					"type": "function"
				},
				{
					"inputs": [
						{
							"internalType": "address",
							"name": "newOwner",
							"type": "address"
						}
					],
					"name": "transferOwnership",
					"outputs": [],
					"stateMutability": "nonpayable",
					"type": "function"
				},
				{
					"inputs": [],
					"name": "treasury",
					"outputs": [
						{
							"internalType": "address",
							"name": "",
							"type": "address"
						}
					],
					"stateMutability": "view",
					"type": "function"
				},
				{
					"inputs": [],
					"name": "unpause",
					"outputs": [],
					"stateMutability": "nonpayable",
					"type": "function"
				},
				{
					"inputs": [
						{
							"internalType": "uint256",
							"name": "amount",
							"type": "uint256"
						}
					],
					"name": "unstake",
					"outputs": [],
					"stateMutability": "nonpayable",
					"type": "function"
				},
				{
					"inputs": [
						{
							"internalType": "address",
							"name": "",
							"type": "address"
						}
					],
					"name": "userRewardPerTokenPaid",
					"outputs": [
						{
							"internalType": "uint256",
							"name": "",
							"type": "uint256"
						}
					],
					"stateMutability": "view",
					"type": "function"
				}
			],
			"devdoc": {
				"errors": {
					"OwnableInvalidOwner(address)": [
						{
							"details": "The owner is not a valid owner account. (eg. `address(0)`)"
						}
					],
					"OwnableUnauthorizedAccount(address)": [
						{
							"details": "The caller account is not authorized to perform an operation."
						}
					],
					"ReentrancyGuardReentrantCall()": [
						{
							"details": "Unauthorized reentrant call."
						}
					],
					"SafeERC20FailedOperation(address)": [
						{
							"details": "An operation with an ERC-20 token failed."
						}
					]
				},
				"kind": "dev",
				"methods": {
					"claimRewards()": {
						"details": "Reward balance checked before transfer —      reverts if contract doesn't have enough TIMBS to pay."
					},
					"constructor": {
						"params": {
							"_rewardRatePerSecond": "Initial reward rate (TIMBS wei per second).",
							"_timbsToken": "TIMBS ERC-20 token address."
						}
					},
					"emergencyWithdraw()": {
						"details": "Safety valve only. Rewards are NOT paid on emergency withdraw."
					},
					"notifyRewardAmount(uint256,uint256)": {
						"details": "Called by owner or TimbTreasury (after buyback) to deposit      TIMBS and activate a new reward period.      If a period is still active, remaining rewards are rolled      into the new period before recalculating the rate.",
						"params": {
							"amount": "TIMBS amount to add to reward pool.",
							"duration": "Duration in seconds over which to distribute."
						}
					},
					"owner()": {
						"details": "Returns the address of the current owner."
					},
					"recoverERC20(address,uint256)": {
						"details": "Cannot recover staked TIMBS (protected by totalStaked check)."
					},
					"renounceOwnership()": {
						"details": "Leaves the contract without owner. It will not be possible to call `onlyOwner` functions. Can only be called by the current owner. NOTE: Renouncing ownership will leave the contract without an owner, thereby disabling any functionality that is only available to the owner."
					},
					"setRewardRate(uint256)": {
						"details": "Snapshots accumulator before changing rate.      Use notifyRewardAmount() for funding + rate update in one call."
					},
					"stake(uint256)": {
						"details": "No unique stake IDs — adds to accumulated balance.      Caller must approve this contract before calling.",
						"params": {
							"amount": "TIMBS amount to stake (18 decimals)."
						}
					},
					"transferOwnership(address)": {
						"details": "Transfers ownership of the contract to a new account (`newOwner`). Can only be called by the current owner."
					},
					"unstake(uint256)": {
						"details": "Collateral ownership verified: msg.sender can only unstake      their own balance. No delegate unstake.      Pending rewards are NOT auto-claimed — call claimRewards() separately      or use exit() for a combined unstake + claim.",
						"params": {
							"amount": "TIMBS amount to unstake."
						}
					}
				},
				"title": "TimbStaking",
				"version": 1
			},
			"evm": {
				"assembly": "    /* \"contracts/TimbStaking.sol\":1908:16567  contract TimbStaking is Ownable, ReentrancyGuard {... */\n  mstore(0x40, 0xa0)\n    /* \"contracts/TimbStaking.sol\":5887:6197  constructor(address _timbsToken, uint256 _rewardRatePerSecond)... */\n  callvalue\n  dup1\n  iszero\n  tag_1\n  jumpi\n  0x00\n  dup1\n  revert\ntag_1:\n  pop\n  mload(0x40)\n  sub(codesize, bytecodeSize)\n  dup1\n  bytecodeSize\n  dup4\n  codecopy\n  dup2\n  dup2\n  add\n  0x40\n  mstore\n  dup2\n  add\n  swap1\n  tag_2\n  swap2\n  swap1\n  tag_3\n  jump\t// in\ntag_2:\n    /* \"contracts/TimbStaking.sol\":5966:5976  msg.sender */\n  caller\n    /* \"@openzeppelin/contracts/access/Ownable.sol\":1297:1298  0 */\n  0x00\n    /* \"@openzeppelin/contracts/access/Ownable.sol\":1273:1299  initialOwner == address(0) */\n  0xffffffffffffffffffffffffffffffffffffffff\n  and\n    /* \"@openzeppelin/contracts/access/Ownable.sol\":1273:1285  initialOwner */\n  dup2\n    /* \"@openzeppelin/contracts/access/Ownable.sol\":1273:1299  initialOwner == address(0) */\n  0xffffffffffffffffffffffffffffffffffffffff\n  and\n  sub\n    /* \"@openzeppelin/contracts/access/Ownable.sol\":1269:1364  if (initialOwner == address(0)) {... */\n  tag_8\n  jumpi\n    /* \"@openzeppelin/contracts/access/Ownable.sol\":1350:1351  0 */\n  0x00\n    /* \"@openzeppelin/contracts/access/Ownable.sol\":1322:1353  OwnableInvalidOwner(address(0)) */\n  mload(0x40)\n  0x1e4fbdf700000000000000000000000000000000000000000000000000000000\n  dup2\n  mstore\n  0x04\n  add\n  tag_9\n  swap2\n  swap1\n  tag_10\n  jump\t// in\ntag_9:\n  mload(0x40)\n  dup1\n  swap2\n  sub\n  swap1\n  revert\n    /* \"@openzeppelin/contracts/access/Ownable.sol\":1269:1364  if (initialOwner == address(0)) {... */\ntag_8:\n    /* \"@openzeppelin/contracts/access/Ownable.sol\":1373:1405  _transferOwnership(initialOwner) */\n  tag_11\n    /* \"@openzeppelin/contracts/access/Ownable.sol\":1392:1404  initialOwner */\n  dup2\n    /* \"@openzeppelin/contracts/access/Ownable.sol\":1373:1391  _transferOwnership */\n  shl(0x20, tag_12)\n    /* \"@openzeppelin/contracts/access/Ownable.sol\":1373:1405  _transferOwnership(initialOwner) */\n  0x20\n  shr\n  jump\t// in\ntag_11:\n    /* \"@openzeppelin/contracts/access/Ownable.sol\":1225:1412  constructor(address initialOwner) {... */\n  pop\n    /* \"@openzeppelin/contracts/utils/ReentrancyGuard.sol\":2365:2366  1 */\n  0x01\n    /* \"@openzeppelin/contracts/utils/ReentrancyGuard.sol\":2539:2585  _reentrancyGuardStorageSlot().getUint256Slot() */\n  tag_14\n    /* \"@openzeppelin/contracts/utils/ReentrancyGuard.sol\":2539:2568  _reentrancyGuardStorageSlot() */\n  tag_15\n    /* \"@openzeppelin/contracts/utils/ReentrancyGuard.sol\":2539:2566  _reentrancyGuardStorageSlot */\n  shl(0x20, tag_16)\n    /* \"@openzeppelin/contracts/utils/ReentrancyGuard.sol\":2539:2568  _reentrancyGuardStorageSlot() */\n  0x20\n  shr\n  jump\t// in\ntag_15:\n    /* \"@openzeppelin/contracts/utils/ReentrancyGuard.sol\":2539:2583  _reentrancyGuardStorageSlot().getUint256Slot */\n  shl(0x20, tag_17)\n    /* \"@openzeppelin/contracts/utils/ReentrancyGuard.sol\":2539:2585  _reentrancyGuardStorageSlot().getUint256Slot() */\n  0x20\n  shr\n  jump\t// in\ntag_14:\n    /* \"@openzeppelin/contracts/utils/ReentrancyGuard.sol\":2539:2591  _reentrancyGuardStorageSlot().getUint256Slot().value */\n  0x00\n  add\n    /* \"@openzeppelin/contracts/utils/ReentrancyGuard.sol\":2539:2605  _reentrancyGuardStorageSlot().getUint256Slot().value = NOT_ENTERED */\n  dup2\n  swap1\n  sstore\n  pop\n    /* \"contracts/TimbStaking.sol\":6019:6020  0 */\n  0x00\n    /* \"contracts/TimbStaking.sol\":5996:6021  _timbsToken == address(0) */\n  0xffffffffffffffffffffffffffffffffffffffff\n  and\n    /* \"contracts/TimbStaking.sol\":5996:6007  _timbsToken */\n  dup3\n    /* \"contracts/TimbStaking.sol\":5996:6021  _timbsToken == address(0) */\n  0xffffffffffffffffffffffffffffffffffffffff\n  and\n  sub\n    /* \"contracts/TimbStaking.sol\":5992:6043  if (_timbsToken == address(0)) revert ZeroAddress() */\n  tag_19\n  jumpi\n    /* \"contracts/TimbStaking.sol\":6030:6043  ZeroAddress() */\n  mload(0x40)\n  0xd92e233d00000000000000000000000000000000000000000000000000000000\n  dup2\n  mstore\n  0x04\n  add\n  mload(0x40)\n  dup1\n  swap2\n  sub\n  swap1\n  revert\n    /* \"contracts/TimbStaking.sol\":5992:6043  if (_timbsToken == address(0)) revert ZeroAddress() */\ntag_19:\n    /* \"contracts/TimbStaking.sol\":6082:6093  _timbsToken */\n  dup2\n    /* \"contracts/TimbStaking.sol\":6053:6094  timbsToken          = IERC20(_timbsToken) */\n  0xffffffffffffffffffffffffffffffffffffffff\n  and\n  0x80\n  dup2\n  0xffffffffffffffffffffffffffffffffffffffff\n  and\n  dup2\n  mstore\n  pop\n  pop\n    /* \"contracts/TimbStaking.sol\":6126:6146  _rewardRatePerSecond */\n  dup1\n    /* \"contracts/TimbStaking.sol\":6104:6123  rewardRatePerSecond */\n  0x02\n    /* \"contracts/TimbStaking.sol\":6104:6146  rewardRatePerSecond = _rewardRatePerSecond */\n  dup2\n  swap1\n  sstore\n  pop\n    /* \"contracts/TimbStaking.sol\":6186:6190  true */\n  0x01\n    /* \"contracts/TimbStaking.sol\":6156:6171  rewardNotifiers */\n  0x0a\n    /* \"contracts/TimbStaking.sol\":6156:6183  rewardNotifiers[msg.sender] */\n  0x00\n    /* \"contracts/TimbStaking.sol\":6172:6182  msg.sender */\n  caller\n    /* \"contracts/TimbStaking.sol\":6156:6183  rewardNotifiers[msg.sender] */\n  0xffffffffffffffffffffffffffffffffffffffff\n  and\n  0xffffffffffffffffffffffffffffffffffffffff\n  and\n  dup2\n  mstore\n  0x20\n  add\n  swap1\n  dup2\n  mstore\n  0x20\n  add\n  0x00\n  keccak256\n  0x00\n    /* \"contracts/TimbStaking.sol\":6156:6190  rewardNotifiers[msg.sender] = true */\n  0x0100\n  exp\n  dup2\n  sload\n  dup2\n  0xff\n  mul\n  not\n  and\n  swap1\n  dup4\n  iszero\n  iszero\n  mul\n  or\n  swap1\n  sstore\n  pop\n    /* \"contracts/TimbStaking.sol\":5887:6197  constructor(address _timbsToken, uint256 _rewardRatePerSecond)... */\n  pop\n  pop\n    /* \"contracts/TimbStaking.sol\":1908:16567  contract TimbStaking is Ownable, ReentrancyGuard {... */\n  jump(tag_20)\n    /* \"@openzeppelin/contracts/access/Ownable.sol\":2912:3099  function _transferOwnership(address newOwner) internal virtual {... */\ntag_12:\n    /* \"@openzeppelin/contracts/access/Ownable.sol\":2985:3001  address oldOwner */\n  0x00\n    /* \"@openzeppelin/contracts/access/Ownable.sol\":3004:3010  _owner */\n  dup1\n  0x00\n  swap1\n  sload\n  swap1\n  0x0100\n  exp\n  swap1\n  div\n  0xffffffffffffffffffffffffffffffffffffffff\n  and\n    /* \"@openzeppelin/contracts/access/Ownable.sol\":2985:3010  address oldOwner = _owner */\n  swap1\n  pop\n    /* \"@openzeppelin/contracts/access/Ownable.sol\":3029:3037  newOwner */\n  dup2\n    /* \"@openzeppelin/contracts/access/Ownable.sol\":3020:3026  _owner */\n  0x00\n  dup1\n    /* \"@openzeppelin/contracts/access/Ownable.sol\":3020:3037  _owner = newOwner */\n  0x0100\n  exp\n  dup2\n  sload\n  dup2\n  0xffffffffffffffffffffffffffffffffffffffff\n  mul\n  not\n  and\n  swap1\n  dup4\n  0xffffffffffffffffffffffffffffffffffffffff\n  and\n  mul\n  or\n  swap1\n  sstore\n  pop\n    /* \"@openzeppelin/contracts/access/Ownable.sol\":3083:3091  newOwner */\n  dup2\n    /* \"@openzeppelin/contracts/access/Ownable.sol\":3052:3092  OwnershipTransferred(oldOwner, newOwner) */\n  0xffffffffffffffffffffffffffffffffffffffff\n  and\n    /* \"@openzeppelin/contracts/access/Ownable.sol\":3073:3081  oldOwner */\n  dup2\n    /* \"@openzeppelin/contracts/access/Ownable.sol\":3052:3092  OwnershipTransferred(oldOwner, newOwner) */\n  0xffffffffffffffffffffffffffffffffffffffff\n  and\n  0x8be0079c531659141344cd1fd0a4f28419497f9722a3daafe3b4186f6b6457e0\n  mload(0x40)\n  mload(0x40)\n  dup1\n  swap2\n  sub\n  swap1\n  log3\n    /* \"@openzeppelin/contracts/access/Ownable.sol\":2975:3099  {... */\n  pop\n    /* \"@openzeppelin/contracts/access/Ownable.sol\":2912:3099  function _transferOwnership(address newOwner) internal virtual {... */\n  pop\n  jump\t// out\n    /* \"@openzeppelin/contracts/utils/ReentrancyGuard.sol\":4636:4763  function _reentrancyGuardStorageSlot() internal pure virtual returns (bytes32) {... */\ntag_16:\n    /* \"@openzeppelin/contracts/utils/ReentrancyGuard.sol\":4706:4713  bytes32 */\n  0x00\n    /* \"@openzeppelin/contracts/utils/ReentrancyGuard.sol\":1505:1571  0x9b779b17422d0df92223018b32b4d1fa46e071723d6817e2486d003becc55f00 */\n  0x9b779b17422d0df92223018b32b4d1fa46e071723d6817e2486d003becc55f00\n    /* \"@openzeppelin/contracts/utils/ReentrancyGuard.sol\":4732:4756  REENTRANCY_GUARD_STORAGE */\n  0x00\n  shl\n    /* \"@openzeppelin/contracts/utils/ReentrancyGuard.sol\":4725:4756  return REENTRANCY_GUARD_STORAGE */\n  swap1\n  pop\n    /* \"@openzeppelin/contracts/utils/ReentrancyGuard.sol\":4636:4763  function _reentrancyGuardStorageSlot() internal pure virtual returns (bytes32) {... */\n  swap1\n  jump\t// out\n    /* \"@openzeppelin/contracts/utils/StorageSlot.sol\":2679:2842  function getUint256Slot(bytes32 slot) internal pure returns (Uint256Slot storage r) {... */\ntag_17:\n    /* \"@openzeppelin/contracts/utils/StorageSlot.sol\":2740:2761  Uint256Slot storage r */\n  0x00\n    /* \"@openzeppelin/contracts/utils/StorageSlot.sol\":2822:2826  slot */\n  dup2\n    /* \"@openzeppelin/contracts/utils/StorageSlot.sol\":2812:2826  r.slot := slot */\n  swap1\n  pop\n    /* \"@openzeppelin/contracts/utils/StorageSlot.sol\":2679:2842  function getUint256Slot(bytes32 slot) internal pure returns (Uint256Slot storage r) {... */\n  swap2\n  swap1\n  pop\n  jump\t// out\n    /* \"#utility.yul\":88:205   */\ntag_25:\n    /* \"#utility.yul\":197:198   */\n  0x00\n    /* \"#utility.yul\":194:195   */\n  dup1\n    /* \"#utility.yul\":187:199   */\n  revert\n    /* \"#utility.yul\":334:460   */\ntag_27:\n    /* \"#utility.yul\":371:378   */\n  0x00\n    /* \"#utility.yul\":411:453   */\n  0xffffffffffffffffffffffffffffffffffffffff\n    /* \"#utility.yul\":404:409   */\n  dup3\n    /* \"#utility.yul\":400:454   */\n  and\n    /* \"#utility.yul\":389:454   */\n  swap1\n  pop\n    /* \"#utility.yul\":334:460   */\n  swap2\n  swap1\n  pop\n  jump\t// out\n    /* \"#utility.yul\":466:562   */\ntag_28:\n    /* \"#utility.yul\":503:510   */\n  0x00\n    /* \"#utility.yul\":532:556   */\n  tag_41\n    /* \"#utility.yul\":550:555   */\n  dup3\n    /* \"#utility.yul\":532:556   */\n  tag_27\n  jump\t// in\ntag_41:\n    /* \"#utility.yul\":521:556   */\n  swap1\n  pop\n    /* \"#utility.yul\":466:562   */\n  swap2\n  swap1\n  pop\n  jump\t// out\n    /* \"#utility.yul\":568:690   */\ntag_29:\n    /* \"#utility.yul\":641:665   */\n  tag_43\n    /* \"#utility.yul\":659:664   */\n  dup2\n    /* \"#utility.yul\":641:665   */\n  tag_28\n  jump\t// in\ntag_43:\n    /* \"#utility.yul\":634:639   */\n  dup2\n    /* \"#utility.yul\":631:666   */\n  eq\n    /* \"#utility.yul\":621:684   */\n  tag_44\n  jumpi\n    /* \"#utility.yul\":680:681   */\n  0x00\n    /* \"#utility.yul\":677:678   */\n  dup1\n    /* \"#utility.yul\":670:682   */\n  revert\n    /* \"#utility.yul\":621:684   */\ntag_44:\n    /* \"#utility.yul\":568:690   */\n  pop\n  jump\t// out\n    /* \"#utility.yul\":696:839   */\ntag_30:\n    /* \"#utility.yul\":753:758   */\n  0x00\n    /* \"#utility.yul\":784:790   */\n  dup2\n    /* \"#utility.yul\":778:791   */\n  mload\n    /* \"#utility.yul\":769:791   */\n  swap1\n  pop\n    /* \"#utility.yul\":800:833   */\n  tag_46\n    /* \"#utility.yul\":827:832   */\n  dup2\n    /* \"#utility.yul\":800:833   */\n  tag_29\n  jump\t// in\ntag_46:\n    /* \"#utility.yul\":696:839   */\n  swap3\n  swap2\n  pop\n  pop\n  jump\t// out\n    /* \"#utility.yul\":845:922   */\ntag_31:\n    /* \"#utility.yul\":882:889   */\n  0x00\n    /* \"#utility.yul\":911:916   */\n  dup2\n    /* \"#utility.yul\":900:916   */\n  swap1\n  pop\n    /* \"#utility.yul\":845:922   */\n  swap2\n  swap1\n  pop\n  jump\t// out\n    /* \"#utility.yul\":928:1050   */\ntag_32:\n    /* \"#utility.yul\":1001:1025   */\n  tag_49\n    /* \"#utility.yul\":1019:1024   */\n  dup2\n    /* \"#utility.yul\":1001:1025   */\n  tag_31\n  jump\t// in\ntag_49:\n    /* \"#utility.yul\":994:999   */\n  dup2\n    /* \"#utility.yul\":991:1026   */\n  eq\n    /* \"#utility.yul\":981:1044   */\n  tag_50\n  jumpi\n    /* \"#utility.yul\":1040:1041   */\n  0x00\n    /* \"#utility.yul\":1037:1038   */\n  dup1\n    /* \"#utility.yul\":1030:1042   */\n  revert\n    /* \"#utility.yul\":981:1044   */\ntag_50:\n    /* \"#utility.yul\":928:1050   */\n  pop\n  jump\t// out\n    /* \"#utility.yul\":1056:1199   */\ntag_33:\n    /* \"#utility.yul\":1113:1118   */\n  0x00\n    /* \"#utility.yul\":1144:1150   */\n  dup2\n    /* \"#utility.yul\":1138:1151   */\n  mload\n    /* \"#utility.yul\":1129:1151   */\n  swap1\n  pop\n    /* \"#utility.yul\":1160:1193   */\n  tag_52\n    /* \"#utility.yul\":1187:1192   */\n  dup2\n    /* \"#utility.yul\":1160:1193   */\n  tag_32\n  jump\t// in\ntag_52:\n    /* \"#utility.yul\":1056:1199   */\n  swap3\n  swap2\n  pop\n  pop\n  jump\t// out\n    /* \"#utility.yul\":1205:1712   */\ntag_3:\n    /* \"#utility.yul\":1284:1290   */\n  0x00\n    /* \"#utility.yul\":1292:1298   */\n  dup1\n    /* \"#utility.yul\":1341:1343   */\n  0x40\n    /* \"#utility.yul\":1329:1338   */\n  dup4\n    /* \"#utility.yul\":1320:1327   */\n  dup6\n    /* \"#utility.yul\":1316:1339   */\n  sub\n    /* \"#utility.yul\":1312:1344   */\n  slt\n    /* \"#utility.yul\":1309:1428   */\n  iszero\n  tag_54\n  jumpi\n    /* \"#utility.yul\":1347:1426   */\n  tag_55\n  tag_25\n  jump\t// in\ntag_55:\n    /* \"#utility.yul\":1309:1428   */\ntag_54:\n    /* \"#utility.yul\":1467:1468   */\n  0x00\n    /* \"#utility.yul\":1492:1556   */\n  tag_56\n    /* \"#utility.yul\":1548:1555   */\n  dup6\n    /* \"#utility.yul\":1539:1545   */\n  dup3\n    /* \"#utility.yul\":1528:1537   */\n  dup7\n    /* \"#utility.yul\":1524:1546   */\n  add\n    /* \"#utility.yul\":1492:1556   */\n  tag_30\n  jump\t// in\ntag_56:\n    /* \"#utility.yul\":1482:1556   */\n  swap3\n  pop\n    /* \"#utility.yul\":1438:1566   */\n  pop\n    /* \"#utility.yul\":1605:1607   */\n  0x20\n    /* \"#utility.yul\":1631:1695   */\n  tag_57\n    /* \"#utility.yul\":1687:1694   */\n  dup6\n    /* \"#utility.yul\":1678:1684   */\n  dup3\n    /* \"#utility.yul\":1667:1676   */\n  dup7\n    /* \"#utility.yul\":1663:1685   */\n  add\n    /* \"#utility.yul\":1631:1695   */\n  tag_33\n  jump\t// in\ntag_57:\n    /* \"#utility.yul\":1621:1695   */\n  swap2\n  pop\n    /* \"#utility.yul\":1576:1705   */\n  pop\n    /* \"#utility.yul\":1205:1712   */\n  swap3\n  pop\n  swap3\n  swap1\n  pop\n  jump\t// out\n    /* \"#utility.yul\":1718:1836   */\ntag_34:\n    /* \"#utility.yul\":1805:1829   */\n  tag_59\n    /* \"#utility.yul\":1823:1828   */\n  dup2\n    /* \"#utility.yul\":1805:1829   */\n  tag_28\n  jump\t// in\ntag_59:\n    /* \"#utility.yul\":1800:1803   */\n  dup3\n    /* \"#utility.yul\":1793:1830   */\n  mstore\n    /* \"#utility.yul\":1718:1836   */\n  pop\n  pop\n  jump\t// out\n    /* \"#utility.yul\":1842:2064   */\ntag_10:\n    /* \"#utility.yul\":1935:1939   */\n  0x00\n    /* \"#utility.yul\":1973:1975   */\n  0x20\n    /* \"#utility.yul\":1962:1971   */\n  dup3\n    /* \"#utility.yul\":1958:1976   */\n  add\n    /* \"#utility.yul\":1950:1976   */\n  swap1\n  pop\n    /* \"#utility.yul\":1986:2057   */\n  tag_61\n    /* \"#utility.yul\":2054:2055   */\n  0x00\n    /* \"#utility.yul\":2043:2052   */\n  dup4\n    /* \"#utility.yul\":2039:2056   */\n  add\n    /* \"#utility.yul\":2030:2036   */\n  dup5\n    /* \"#utility.yul\":1986:2057   */\n  tag_34\n  jump\t// in\ntag_61:\n    /* \"#utility.yul\":1842:2064   */\n  swap3\n  swap2\n  pop\n  pop\n  jump\t// out\n    /* \"contracts/TimbStaking.sol\":1908:16567  contract TimbStaking is Ownable, ReentrancyGuard {... */\ntag_20:\n  mload(0x80)\n  codecopy(0x00, dataOffset(sub_0), dataSize(sub_0))\n  0x00\n  assignImmutable(\"0x962c584afcd4dd6cb0e25fef291e59a13b9ae1b34d13f25b13a34669b807535c\")\n  return(0x00, dataSize(sub_0))\nstop\n\nsub_0: assembly {\n        /* \"contracts/TimbStaking.sol\":1908:16567  contract TimbStaking is Ownable, ReentrancyGuard {... */\n      mstore(0x40, 0x80)\n      callvalue\n      dup1\n      iszero\n      tag_1\n      jumpi\n      0x00\n      dup1\n      revert\n    tag_1:\n      pop\n      jumpi(tag_2, lt(calldatasize, 0x04))\n      shr(0xe0, calldataload(0x00))\n      dup1\n      0x817b1cd2\n      gt\n      tag_34\n      jumpi\n      dup1\n      0xcd3daf9d\n      gt\n      tag_35\n      jumpi\n      dup1\n      0xe9fad8ee\n      gt\n      tag_36\n      jumpi\n      dup1\n      0xe9fad8ee\n      eq\n      tag_30\n      jumpi\n      dup1\n      0xebe2b12b\n      eq\n      tag_31\n      jumpi\n      dup1\n      0xf0f44260\n      eq\n      tag_32\n      jumpi\n      dup1\n      0xf2fde38b\n      eq\n      tag_33\n      jumpi\n      jump(tag_2)\n    tag_36:\n      dup1\n      0xcd3daf9d\n      eq\n      tag_26\n      jumpi\n      dup1\n      0xd15166ff\n      eq\n      tag_27\n      jumpi\n      dup1\n      0xdb2e21bc\n      eq\n      tag_28\n      jumpi\n      dup1\n      0xdf136d65\n      eq\n      tag_29\n      jumpi\n      jump(tag_2)\n    tag_35:\n      dup1\n      0x8da5cb5b\n      gt\n      tag_37\n      jumpi\n      dup1\n      0x8da5cb5b\n      eq\n      tag_22\n      jumpi\n      dup1\n      0x9e447fc6\n      eq\n      tag_23\n      jumpi\n      dup1\n      0xa694fc3a\n      eq\n      tag_24\n      jumpi\n      dup1\n      0xc8f33c91\n      eq\n      tag_25\n      jumpi\n      jump(tag_2)\n    tag_37:\n      dup1\n      0x817b1cd2\n      eq\n      tag_18\n      jumpi\n      dup1\n      0x8456cb59\n      eq\n      tag_19\n      jumpi\n      dup1\n      0x8980f11f\n      eq\n      tag_20\n      jumpi\n      dup1\n      0x8b876347\n      eq\n      tag_21\n      jumpi\n      jump(tag_2)\n    tag_34:\n      dup1\n      0x3f4ba83a\n      gt\n      tag_38\n      jumpi\n      dup1\n      0x60217267\n      gt\n      tag_39\n      jumpi\n      dup1\n      0x60217267\n      eq\n      tag_14\n      jumpi\n      dup1\n      0x61d027b3\n      eq\n      tag_15\n      jumpi\n      dup1\n      0x715018a6\n      eq\n      tag_16\n      jumpi\n      dup1\n      0x80faa57d\n      eq\n      tag_17\n      jumpi\n      jump(tag_2)\n    tag_39:\n      dup1\n      0x3f4ba83a\n      eq\n      tag_10\n      jumpi\n      dup1\n      0x5a5cd45e\n      eq\n      tag_11\n      jumpi\n      dup1\n      0x5c975abb\n      eq\n      tag_12\n      jumpi\n      dup1\n      0x5d773b2c\n      eq\n      tag_13\n      jumpi\n      jump(tag_2)\n    tag_38:\n      dup1\n      0x255a4f73\n      gt\n      tag_40\n      jumpi\n      dup1\n      0x255a4f73\n      eq\n      tag_6\n      jumpi\n      dup1\n      0x2e17de78\n      eq\n      tag_7\n      jumpi\n      dup1\n      0x31d7a262\n      eq\n      tag_8\n      jumpi\n      dup1\n      0x372500ab\n      eq\n      tag_9\n      jumpi\n      jump(tag_2)\n    tag_40:\n      dup1\n      0x8cc262\n      eq\n      tag_3\n      jumpi\n      dup1\n      0x0e31648f\n      eq\n      tag_4\n      jumpi\n      dup1\n      0x246132f9\n      eq\n      tag_5\n      jumpi\n    tag_2:\n      0x00\n      dup1\n      revert\n        /* \"contracts/TimbStaking.sol\":7245:7498  function earned(address account) public view returns (uint256) {... */\n    tag_3:\n      tag_41\n      0x04\n      dup1\n      calldatasize\n      sub\n      dup2\n      add\n      swap1\n      tag_42\n      swap2\n      swap1\n      tag_43\n      jump\t// in\n    tag_42:\n      tag_44\n      jump\t// in\n    tag_41:\n      mload(0x40)\n      tag_45\n      swap2\n      swap1\n      tag_46\n      jump\t// in\n    tag_45:\n      mload(0x40)\n      dup1\n      swap2\n      sub\n      swap1\n      return\n        /* \"contracts/TimbStaking.sol\":2261:2295  IERC20 public immutable timbsToken */\n    tag_4:\n      tag_47\n      tag_48\n      jump\t// in\n    tag_47:\n      mload(0x40)\n      tag_49\n      swap2\n      swap1\n      tag_50\n      jump\t// in\n    tag_49:\n      mload(0x40)\n      dup1\n      swap2\n      sub\n      swap1\n      return\n        /* \"contracts/TimbStaking.sol\":12570:13537  function notifyRewardAmount(uint256 amount, uint256 duration)... */\n    tag_5:\n      tag_51\n      0x04\n      dup1\n      calldatasize\n      sub\n      dup2\n      add\n      swap1\n      tag_52\n      swap2\n      swap1\n      tag_53\n      jump\t// in\n    tag_52:\n      tag_54\n      jump\t// in\n    tag_51:\n      stop\n        /* \"contracts/TimbStaking.sol\":14746:15014  function setRewardNotifier(address notifier, bool authorised)... */\n    tag_6:\n      tag_55\n      0x04\n      dup1\n      calldatasize\n      sub\n      dup2\n      add\n      swap1\n      tag_56\n      swap2\n      swap1\n      tag_57\n      jump\t// in\n    tag_56:\n      tag_58\n      jump\t// in\n    tag_55:\n      stop\n        /* \"contracts/TimbStaking.sol\":9426:9931  function unstake(uint256 amount)... */\n    tag_7:\n      tag_59\n      0x04\n      dup1\n      calldatasize\n      sub\n      dup2\n      add\n      swap1\n      tag_60\n      swap2\n      swap1\n      tag_61\n      jump\t// in\n    tag_60:\n      tag_62\n      jump\t// in\n    tag_59:\n      stop\n        /* \"contracts/TimbStaking.sol\":3324:3373  mapping(address => uint256) public pendingRewards */\n    tag_8:\n      tag_63\n      0x04\n      dup1\n      calldatasize\n      sub\n      dup2\n      add\n      swap1\n      tag_64\n      swap2\n      swap1\n      tag_43\n      jump\t// in\n    tag_64:\n      tag_65\n      jump\t// in\n    tag_63:\n      mload(0x40)\n      tag_66\n      swap2\n      swap1\n      tag_46\n      jump\t// in\n    tag_66:\n      mload(0x40)\n      dup1\n      swap2\n      sub\n      swap1\n      return\n        /* \"contracts/TimbStaking.sol\":10323:10907  function claimRewards()... */\n    tag_9:\n      tag_67\n      tag_68\n      jump\t// in\n    tag_67:\n      stop\n        /* \"contracts/TimbStaking.sol\":15185:15269  function unpause() external onlyOwner { paused = false; emit Unpaused(msg.sender); } */\n    tag_10:\n      tag_69\n      tag_70\n      jump\t// in\n    tag_69:\n      stop\n        /* \"contracts/TimbStaking.sol\":7669:7962  function estimatedAPR() external view returns (uint256 aprBps) {... */\n    tag_11:\n      tag_71\n      tag_72\n      jump\t// in\n    tag_71:\n      mload(0x40)\n      tag_73\n      swap2\n      swap1\n      tag_46\n      jump\t// in\n    tag_73:\n      mload(0x40)\n      dup1\n      swap2\n      sub\n      swap1\n      return\n        /* \"contracts/TimbStaking.sol\":3574:3592  bool public paused */\n    tag_12:\n      tag_74\n      tag_75\n      jump\t// in\n    tag_74:\n      mload(0x40)\n      tag_76\n      swap2\n      swap1\n      tag_77\n      jump\t// in\n    tag_76:\n      mload(0x40)\n      dup1\n      swap2\n      sub\n      swap1\n      return\n        /* \"contracts/TimbStaking.sol\":2561:2595  uint256 public rewardRatePerSecond */\n    tag_13:\n      tag_78\n      tag_79\n      jump\t// in\n    tag_78:\n      mload(0x40)\n      tag_80\n      swap2\n      swap1\n      tag_46\n      jump\t// in\n    tag_80:\n      mload(0x40)\n      dup1\n      swap2\n      sub\n      swap1\n      return\n        /* \"contracts/TimbStaking.sol\":3061:3109  mapping(address => uint256) public stakedBalance */\n    tag_14:\n      tag_81\n      0x04\n      dup1\n      calldatasize\n      sub\n      dup2\n      add\n      swap1\n      tag_82\n      swap2\n      swap1\n      tag_43\n      jump\t// in\n    tag_82:\n      tag_83\n      jump\t// in\n    tag_81:\n      mload(0x40)\n      tag_84\n      swap2\n      swap1\n      tag_46\n      jump\t// in\n    tag_84:\n      mload(0x40)\n      dup1\n      swap2\n      sub\n      swap1\n      return\n        /* \"contracts/TimbStaking.sol\":2376:2399  address public treasury */\n    tag_15:\n      tag_85\n      tag_86\n      jump\t// in\n    tag_85:\n      mload(0x40)\n      tag_87\n      swap2\n      swap1\n      tag_88\n      jump\t// in\n    tag_87:\n      mload(0x40)\n      dup1\n      swap2\n      sub\n      swap1\n      return\n        /* \"@openzeppelin/contracts/access/Ownable.sol\":2293:2394  function renounceOwnership() public virtual onlyOwner {... */\n    tag_16:\n      tag_89\n      tag_90\n      jump\t// in\n    tag_89:\n      stop\n        /* \"contracts/TimbStaking.sol\":6541:6694  function lastTimeRewardApplicable() public view returns (uint256) {... */\n    tag_17:\n      tag_91\n      tag_92\n      jump\t// in\n    tag_91:\n      mload(0x40)\n      tag_93\n      swap2\n      swap1\n      tag_46\n      jump\t// in\n    tag_93:\n      mload(0x40)\n      dup1\n      swap2\n      sub\n      swap1\n      return\n        /* \"contracts/TimbStaking.sol\":2984:3010  uint256 public totalStaked */\n    tag_18:\n      tag_94\n      tag_95\n      jump\t// in\n    tag_94:\n      mload(0x40)\n      tag_96\n      swap2\n      swap1\n      tag_46\n      jump\t// in\n    tag_96:\n      mload(0x40)\n      dup1\n      swap2\n      sub\n      swap1\n      return\n        /* \"contracts/TimbStaking.sol\":15098:15180  function pause()   external onlyOwner { paused = true;  emit Paused(msg.sender); } */\n    tag_19:\n      tag_97\n      tag_98\n      jump\t// in\n    tag_97:\n      stop\n        /* \"contracts/TimbStaking.sol\":16132:16565  function recoverERC20(address token, uint256 amount) external onlyOwner {... */\n    tag_20:\n      tag_99\n      0x04\n      dup1\n      calldatasize\n      sub\n      dup2\n      add\n      swap1\n      tag_100\n      swap2\n      swap1\n      tag_101\n      jump\t// in\n    tag_100:\n      tag_102\n      jump\t// in\n    tag_99:\n      stop\n        /* \"contracts/TimbStaking.sol\":3192:3249  mapping(address => uint256) public userRewardPerTokenPaid */\n    tag_21:\n      tag_103\n      0x04\n      dup1\n      calldatasize\n      sub\n      dup2\n      add\n      swap1\n      tag_104\n      swap2\n      swap1\n      tag_43\n      jump\t// in\n    tag_104:\n      tag_105\n      jump\t// in\n    tag_103:\n      mload(0x40)\n      tag_106\n      swap2\n      swap1\n      tag_46\n      jump\t// in\n    tag_106:\n      mload(0x40)\n      dup1\n      swap2\n      sub\n      swap1\n      return\n        /* \"@openzeppelin/contracts/access/Ownable.sol\":1638:1723  function owner() public view virtual returns (address) {... */\n    tag_22:\n      tag_107\n      tag_108\n      jump\t// in\n    tag_107:\n      mload(0x40)\n      tag_109\n      swap2\n      swap1\n      tag_88\n      jump\t// in\n    tag_109:\n      mload(0x40)\n      dup1\n      swap2\n      sub\n      swap1\n      return\n        /* \"contracts/TimbStaking.sol\":13752:13968  function setRewardRate(uint256 _ratePerSecond)... */\n    tag_23:\n      tag_110\n      0x04\n      dup1\n      calldatasize\n      sub\n      dup2\n      add\n      swap1\n      tag_111\n      swap2\n      swap1\n      tag_61\n      jump\t// in\n    tag_111:\n      tag_112\n      jump\t// in\n    tag_110:\n      stop\n        /* \"contracts/TimbStaking.sol\":8439:8826  function stake(uint256 amount)... */\n    tag_24:\n      tag_113\n      0x04\n      dup1\n      calldatasize\n      sub\n      dup2\n      add\n      swap1\n      tag_114\n      swap2\n      swap1\n      tag_61\n      jump\t// in\n    tag_114:\n      tag_115\n      jump\t// in\n    tag_113:\n      stop\n        /* \"contracts/TimbStaking.sol\":2760:2789  uint256 public lastUpdateTime */\n    tag_25:\n      tag_116\n      tag_117\n      jump\t// in\n    tag_116:\n      mload(0x40)\n      tag_118\n      swap2\n      swap1\n      tag_46\n      jump\t// in\n    tag_118:\n      mload(0x40)\n      dup1\n      swap2\n      sub\n      swap1\n      return\n        /* \"contracts/TimbStaking.sol\":6794:7140  function rewardPerToken() public view returns (uint256) {... */\n    tag_26:\n      tag_119\n      tag_120\n      jump\t// in\n    tag_119:\n      mload(0x40)\n      tag_121\n      swap2\n      swap1\n      tag_46\n      jump\t// in\n    tag_121:\n      mload(0x40)\n      dup1\n      swap2\n      sub\n      swap1\n      return\n        /* \"contracts/TimbStaking.sol\":3482:3529  mapping(address => bool) public rewardNotifiers */\n    tag_27:\n      tag_122\n      0x04\n      dup1\n      calldatasize\n      sub\n      dup2\n      add\n      swap1\n      tag_123\n      swap2\n      swap1\n      tag_43\n      jump\t// in\n    tag_123:\n      tag_124\n      jump\t// in\n    tag_122:\n      mload(0x40)\n      tag_125\n      swap2\n      swap1\n      tag_77\n      jump\t// in\n    tag_125:\n      mload(0x40)\n      dup1\n      swap2\n      sub\n      swap1\n      return\n        /* \"contracts/TimbStaking.sol\":15499:15954  function emergencyWithdraw() external nonReentrant {... */\n    tag_28:\n      tag_126\n      tag_127\n      jump\t// in\n    tag_126:\n      stop\n        /* \"contracts/TimbStaking.sol\":2879:2914  uint256 public rewardPerTokenStored */\n    tag_29:\n      tag_128\n      tag_129\n      jump\t// in\n    tag_128:\n      mload(0x40)\n      tag_130\n      swap2\n      swap1\n      tag_46\n      jump\t// in\n    tag_130:\n      mload(0x40)\n      dup1\n      swap2\n      sub\n      swap1\n      return\n        /* \"contracts/TimbStaking.sol\":11003:11896  function exit()... */\n    tag_30:\n      tag_131\n      tag_132\n      jump\t// in\n    tag_131:\n      stop\n        /* \"contracts/TimbStaking.sol\":2661:2688  uint256 public periodFinish */\n    tag_31:\n      tag_133\n      tag_134\n      jump\t// in\n    tag_133:\n      mload(0x40)\n      tag_135\n      swap2\n      swap1\n      tag_46\n      jump\t// in\n    tag_135:\n      mload(0x40)\n      dup1\n      swap2\n      sub\n      swap1\n      return\n        /* \"contracts/TimbStaking.sol\":14270:14668  function setTreasury(address _treasury) external onlyOwner {... */\n    tag_32:\n      tag_136\n      0x04\n      dup1\n      calldatasize\n      sub\n      dup2\n      add\n      swap1\n      tag_137\n      swap2\n      swap1\n      tag_43\n      jump\t// in\n    tag_137:\n      tag_138\n      jump\t// in\n    tag_136:\n      stop\n        /* \"@openzeppelin/contracts/access/Ownable.sol\":2543:2758  function transferOwnership(address newOwner) public virtual onlyOwner {... */\n    tag_33:\n      tag_139\n      0x04\n      dup1\n      calldatasize\n      sub\n      dup2\n      add\n      swap1\n      tag_140\n      swap2\n      swap1\n      tag_43\n      jump\t// in\n    tag_140:\n      tag_141\n      jump\t// in\n    tag_139:\n      stop\n        /* \"contracts/TimbStaking.sol\":7245:7498  function earned(address account) public view returns (uint256) {... */\n    tag_44:\n        /* \"contracts/TimbStaking.sol\":7299:7306  uint256 */\n      0x00\n        /* \"contracts/TimbStaking.sol\":7468:7482  pendingRewards */\n      0x09\n        /* \"contracts/TimbStaking.sol\":7468:7491  pendingRewards[account] */\n      0x00\n        /* \"contracts/TimbStaking.sol\":7483:7490  account */\n      dup4\n        /* \"contracts/TimbStaking.sol\":7468:7491  pendingRewards[account] */\n      0xffffffffffffffffffffffffffffffffffffffff\n      and\n      0xffffffffffffffffffffffffffffffffffffffff\n      and\n      dup2\n      mstore\n      0x20\n      add\n      swap1\n      dup2\n      mstore\n      0x20\n      add\n      0x00\n      keccak256\n      sload\n        /* \"contracts/TimbStaking.sol\":7451:7455  1e18 */\n      0x0de0b6b3a7640000\n        /* \"contracts/TimbStaking.sol\":7400:7422  userRewardPerTokenPaid */\n      0x08\n        /* \"contracts/TimbStaking.sol\":7400:7431  userRewardPerTokenPaid[account] */\n      0x00\n        /* \"contracts/TimbStaking.sol\":7423:7430  account */\n      dup6\n        /* \"contracts/TimbStaking.sol\":7400:7431  userRewardPerTokenPaid[account] */\n      0xffffffffffffffffffffffffffffffffffffffff\n      and\n      0xffffffffffffffffffffffffffffffffffffffff\n      and\n      dup2\n      mstore\n      0x20\n      add\n      swap1\n      dup2\n      mstore\n      0x20\n      add\n      0x00\n      keccak256\n      sload\n        /* \"contracts/TimbStaking.sol\":7381:7397  rewardPerToken() */\n      tag_143\n        /* \"contracts/TimbStaking.sol\":7381:7395  rewardPerToken */\n      tag_120\n        /* \"contracts/TimbStaking.sol\":7381:7397  rewardPerToken() */\n      jump\t// in\n    tag_143:\n        /* \"contracts/TimbStaking.sol\":7381:7431  rewardPerToken() - userRewardPerTokenPaid[account] */\n      tag_144\n      swap2\n      swap1\n      tag_145\n      jump\t// in\n    tag_144:\n        /* \"contracts/TimbStaking.sol\":7339:7352  stakedBalance */\n      0x07\n        /* \"contracts/TimbStaking.sol\":7339:7361  stakedBalance[account] */\n      0x00\n        /* \"contracts/TimbStaking.sol\":7353:7360  account */\n      dup7\n        /* \"contracts/TimbStaking.sol\":7339:7361  stakedBalance[account] */\n      0xffffffffffffffffffffffffffffffffffffffff\n      and\n      0xffffffffffffffffffffffffffffffffffffffff\n      and\n      dup2\n      mstore\n      0x20\n      add\n      swap1\n      dup2\n      mstore\n      0x20\n      add\n      0x00\n      keccak256\n      sload\n        /* \"contracts/TimbStaking.sol\":7339:7432  stakedBalance[account]... */\n      tag_146\n      swap2\n      swap1\n      tag_147\n      jump\t// in\n    tag_146:\n        /* \"contracts/TimbStaking.sol\":7339:7455  stakedBalance[account]... */\n      tag_148\n      swap2\n      swap1\n      tag_149\n      jump\t// in\n    tag_148:\n        /* \"contracts/TimbStaking.sol\":7325:7491  (... */\n      tag_150\n      swap2\n      swap1\n      tag_151\n      jump\t// in\n    tag_150:\n        /* \"contracts/TimbStaking.sol\":7318:7491  return (... */\n      swap1\n      pop\n        /* \"contracts/TimbStaking.sol\":7245:7498  function earned(address account) public view returns (uint256) {... */\n      swap2\n      swap1\n      pop\n      jump\t// out\n        /* \"contracts/TimbStaking.sol\":2261:2295  IERC20 public immutable timbsToken */\n    tag_48:\n      immutable(\"0x962c584afcd4dd6cb0e25fef291e59a13b9ae1b34d13f25b13a34669b807535c\")\n      dup2\n      jump\t// out\n        /* \"contracts/TimbStaking.sol\":12570:13537  function notifyRewardAmount(uint256 amount, uint256 duration)... */\n    tag_54:\n        /* \"@openzeppelin/contracts/utils/ReentrancyGuard.sol\":3023:3044  _nonReentrantBefore() */\n      tag_153\n        /* \"@openzeppelin/contracts/utils/ReentrancyGuard.sol\":3023:3042  _nonReentrantBefore */\n      tag_154\n        /* \"@openzeppelin/contracts/utils/ReentrancyGuard.sol\":3023:3044  _nonReentrantBefore() */\n      jump\t// in\n    tag_153:\n        /* \"contracts/TimbStaking.sol\":12699:12700  0 */\n      0x00\n        /* \"contracts/TimbStaking.sol\":5253:5269  rewardPerToken() */\n      tag_156\n        /* \"contracts/TimbStaking.sol\":5253:5267  rewardPerToken */\n      tag_120\n        /* \"contracts/TimbStaking.sol\":5253:5269  rewardPerToken() */\n      jump\t// in\n    tag_156:\n        /* \"contracts/TimbStaking.sol\":5230:5250  rewardPerTokenStored */\n      0x05\n        /* \"contracts/TimbStaking.sol\":5230:5269  rewardPerTokenStored = rewardPerToken() */\n      dup2\n      swap1\n      sstore\n      pop\n        /* \"contracts/TimbStaking.sol\":5302:5328  lastTimeRewardApplicable() */\n      tag_157\n        /* \"contracts/TimbStaking.sol\":5302:5326  lastTimeRewardApplicable */\n      tag_92\n        /* \"contracts/TimbStaking.sol\":5302:5328  lastTimeRewardApplicable() */\n      jump\t// in\n    tag_157:\n        /* \"contracts/TimbStaking.sol\":5279:5293  lastUpdateTime */\n      0x04\n        /* \"contracts/TimbStaking.sol\":5279:5328  lastUpdateTime       = lastTimeRewardApplicable() */\n      dup2\n      swap1\n      sstore\n      pop\n        /* \"contracts/TimbStaking.sol\":5361:5362  0 */\n      0x00\n        /* \"contracts/TimbStaking.sol\":5342:5363  account != address(0) */\n      0xffffffffffffffffffffffffffffffffffffffff\n      and\n        /* \"contracts/TimbStaking.sol\":5342:5349  account */\n      dup2\n        /* \"contracts/TimbStaking.sol\":5342:5363  account != address(0) */\n      0xffffffffffffffffffffffffffffffffffffffff\n      and\n      eq\n        /* \"contracts/TimbStaking.sol\":5338:5506  if (account != address(0)) {... */\n      tag_158\n      jumpi\n        /* \"contracts/TimbStaking.sol\":5412:5427  earned(account) */\n      tag_159\n        /* \"contracts/TimbStaking.sol\":5419:5426  account */\n      dup2\n        /* \"contracts/TimbStaking.sol\":5412:5418  earned */\n      tag_44\n        /* \"contracts/TimbStaking.sol\":5412:5427  earned(account) */\n      jump\t// in\n    tag_159:\n        /* \"contracts/TimbStaking.sol\":5379:5393  pendingRewards */\n      0x09\n        /* \"contracts/TimbStaking.sol\":5379:5402  pendingRewards[account] */\n      0x00\n        /* \"contracts/TimbStaking.sol\":5394:5401  account */\n      dup4\n        /* \"contracts/TimbStaking.sol\":5379:5402  pendingRewards[account] */\n      0xffffffffffffffffffffffffffffffffffffffff\n      and\n      0xffffffffffffffffffffffffffffffffffffffff\n      and\n      dup2\n      mstore\n      0x20\n      add\n      swap1\n      dup2\n      mstore\n      0x20\n      add\n      0x00\n      keccak256\n        /* \"contracts/TimbStaking.sol\":5379:5427  pendingRewards[account]        = earned(account) */\n      dup2\n      swap1\n      sstore\n      pop\n        /* \"contracts/TimbStaking.sol\":5475:5495  rewardPerTokenStored */\n      sload(0x05)\n        /* \"contracts/TimbStaking.sol\":5441:5463  userRewardPerTokenPaid */\n      0x08\n        /* \"contracts/TimbStaking.sol\":5441:5472  userRewardPerTokenPaid[account] */\n      0x00\n        /* \"contracts/TimbStaking.sol\":5464:5471  account */\n      dup4\n        /* \"contracts/TimbStaking.sol\":5441:5472  userRewardPerTokenPaid[account] */\n      0xffffffffffffffffffffffffffffffffffffffff\n      and\n      0xffffffffffffffffffffffffffffffffffffffff\n      and\n      dup2\n      mstore\n      0x20\n      add\n      swap1\n      dup2\n      mstore\n      0x20\n      add\n      0x00\n      keccak256\n        /* \"contracts/TimbStaking.sol\":5441:5495  userRewardPerTokenPaid[account] = rewardPerTokenStored */\n      dup2\n      swap1\n      sstore\n      pop\n        /* \"contracts/TimbStaking.sol\":5338:5506  if (account != address(0)) {... */\n    tag_158:\n        /* \"contracts/TimbStaking.sol\":12722:12737  rewardNotifiers */\n      0x0a\n        /* \"contracts/TimbStaking.sol\":12722:12749  rewardNotifiers[msg.sender] */\n      0x00\n        /* \"contracts/TimbStaking.sol\":12738:12748  msg.sender */\n      caller\n        /* \"contracts/TimbStaking.sol\":12722:12749  rewardNotifiers[msg.sender] */\n      0xffffffffffffffffffffffffffffffffffffffff\n      and\n      0xffffffffffffffffffffffffffffffffffffffff\n      and\n      dup2\n      mstore\n      0x20\n      add\n      swap1\n      dup2\n      mstore\n      0x20\n      add\n      0x00\n      keccak256\n      0x00\n      swap1\n      sload\n      swap1\n      0x0100\n      exp\n      swap1\n      div\n      0xff\n      and\n        /* \"contracts/TimbStaking.sol\":12721:12749  !rewardNotifiers[msg.sender] */\n      iszero\n        /* \"contracts/TimbStaking.sol\":12721:12774  !rewardNotifiers[msg.sender] && msg.sender != owner() */\n      dup1\n      iszero\n      tag_161\n      jumpi\n      pop\n        /* \"contracts/TimbStaking.sol\":12767:12774  owner() */\n      tag_162\n        /* \"contracts/TimbStaking.sol\":12767:12772  owner */\n      tag_108\n        /* \"contracts/TimbStaking.sol\":12767:12774  owner() */\n      jump\t// in\n    tag_162:\n        /* \"contracts/TimbStaking.sol\":12753:12774  msg.sender != owner() */\n      0xffffffffffffffffffffffffffffffffffffffff\n      and\n        /* \"contracts/TimbStaking.sol\":12753:12763  msg.sender */\n      caller\n        /* \"contracts/TimbStaking.sol\":12753:12774  msg.sender != owner() */\n      0xffffffffffffffffffffffffffffffffffffffff\n      and\n      eq\n      iszero\n        /* \"contracts/TimbStaking.sol\":12721:12774  !rewardNotifiers[msg.sender] && msg.sender != owner() */\n    tag_161:\n        /* \"contracts/TimbStaking.sol\":12717:12823  if (!rewardNotifiers[msg.sender] && msg.sender != owner()) {... */\n      iszero\n      tag_163\n      jumpi\n        /* \"contracts/TimbStaking.sol\":12797:12812  NotAuthorised() */\n      mload(0x40)\n      0x1648fd0100000000000000000000000000000000000000000000000000000000\n      dup2\n      mstore\n      0x04\n      add\n      mload(0x40)\n      dup1\n      swap2\n      sub\n      swap1\n      revert\n        /* \"contracts/TimbStaking.sol\":12717:12823  if (!rewardNotifiers[msg.sender] && msg.sender != owner()) {... */\n    tag_163:\n        /* \"contracts/TimbStaking.sol\":12846:12847  0 */\n      0x00\n        /* \"contracts/TimbStaking.sol\":12836:12842  amount */\n      dup4\n        /* \"contracts/TimbStaking.sol\":12836:12847  amount == 0 */\n      sub\n        /* \"contracts/TimbStaking.sol\":12832:12870  if (amount == 0)   revert ZeroAmount() */\n      tag_164\n      jumpi\n        /* \"contracts/TimbStaking.sol\":12858:12870  ZeroAmount() */\n      mload(0x40)\n      0x1f2a200500000000000000000000000000000000000000000000000000000000\n      dup2\n      mstore\n      0x04\n      add\n      mload(0x40)\n      dup1\n      swap2\n      sub\n      swap1\n      revert\n        /* \"contracts/TimbStaking.sol\":12832:12870  if (amount == 0)   revert ZeroAmount() */\n    tag_164:\n        /* \"contracts/TimbStaking.sol\":12896:12897  0 */\n      0x00\n        /* \"contracts/TimbStaking.sol\":12884:12892  duration */\n      dup3\n        /* \"contracts/TimbStaking.sol\":12884:12897  duration == 0 */\n      sub\n        /* \"contracts/TimbStaking.sol\":12880:12918  if (duration == 0) revert ZeroAmount() */\n      tag_165\n      jumpi\n        /* \"contracts/TimbStaking.sol\":12906:12918  ZeroAmount() */\n      mload(0x40)\n      0x1f2a200500000000000000000000000000000000000000000000000000000000\n      dup2\n      mstore\n      0x04\n      add\n      mload(0x40)\n      dup1\n      swap2\n      sub\n      swap1\n      revert\n        /* \"contracts/TimbStaking.sol\":12880:12918  if (duration == 0) revert ZeroAmount() */\n    tag_165:\n        /* \"contracts/TimbStaking.sol\":12929:12991  timbsToken.safeTransferFrom(msg.sender, address(this), amount) */\n      tag_166\n        /* \"contracts/TimbStaking.sol\":12957:12967  msg.sender */\n      caller\n        /* \"contracts/TimbStaking.sol\":12977:12981  this */\n      address\n        /* \"contracts/TimbStaking.sol\":12984:12990  amount */\n      dup6\n        /* \"contracts/TimbStaking.sol\":12929:12939  timbsToken */\n      immutable(\"0x962c584afcd4dd6cb0e25fef291e59a13b9ae1b34d13f25b13a34669b807535c\")\n        /* \"contracts/TimbStaking.sol\":12929:12956  timbsToken.safeTransferFrom */\n      0xffffffffffffffffffffffffffffffffffffffff\n      and\n      tag_167\n      swap1\n        /* \"contracts/TimbStaking.sol\":12929:12991  timbsToken.safeTransferFrom(msg.sender, address(this), amount) */\n      swap4\n      swap3\n      swap2\n      swap1\n      0xffffffff\n      and\n      jump\t// in\n    tag_166:\n        /* \"contracts/TimbStaking.sol\":13024:13036  periodFinish */\n      sload(0x03)\n        /* \"contracts/TimbStaking.sol\":13006:13021  block.timestamp */\n      timestamp\n        /* \"contracts/TimbStaking.sol\":13006:13036  block.timestamp < periodFinish */\n      lt\n        /* \"contracts/TimbStaking.sol\":13002:13375  if (block.timestamp < periodFinish) {... */\n      iszero\n      tag_168\n      jumpi\n        /* \"contracts/TimbStaking.sol\":13106:13123  uint256 remaining */\n      0x00\n        /* \"contracts/TimbStaking.sol\":13144:13159  block.timestamp */\n      timestamp\n        /* \"contracts/TimbStaking.sol\":13129:13141  periodFinish */\n      sload(0x03)\n        /* \"contracts/TimbStaking.sol\":13129:13159  periodFinish - block.timestamp */\n      tag_169\n      swap2\n      swap1\n      tag_145\n      jump\t// in\n    tag_169:\n        /* \"contracts/TimbStaking.sol\":13106:13159  uint256 remaining    = periodFinish - block.timestamp */\n      swap1\n      pop\n        /* \"contracts/TimbStaking.sol\":13173:13189  uint256 leftover */\n      0x00\n        /* \"contracts/TimbStaking.sol\":13208:13227  rewardRatePerSecond */\n      sload(0x02)\n        /* \"contracts/TimbStaking.sol\":13196:13205  remaining */\n      dup3\n        /* \"contracts/TimbStaking.sol\":13196:13227  remaining * rewardRatePerSecond */\n      tag_170\n      swap2\n      swap1\n      tag_147\n      jump\t// in\n    tag_170:\n        /* \"contracts/TimbStaking.sol\":13173:13227  uint256 leftover     = remaining * rewardRatePerSecond */\n      swap1\n      pop\n        /* \"contracts/TimbStaking.sol\":13286:13294  duration */\n      dup4\n        /* \"contracts/TimbStaking.sol\":13274:13282  leftover */\n      dup2\n        /* \"contracts/TimbStaking.sol\":13265:13271  amount */\n      dup7\n        /* \"contracts/TimbStaking.sol\":13265:13282  amount + leftover */\n      tag_171\n      swap2\n      swap1\n      tag_151\n      jump\t// in\n    tag_171:\n        /* \"contracts/TimbStaking.sol\":13264:13294  (amount + leftover) / duration */\n      tag_172\n      swap2\n      swap1\n      tag_149\n      jump\t// in\n    tag_172:\n        /* \"contracts/TimbStaking.sol\":13241:13260  rewardRatePerSecond */\n      0x02\n        /* \"contracts/TimbStaking.sol\":13241:13294  rewardRatePerSecond  = (amount + leftover) / duration */\n      dup2\n      swap1\n      sstore\n      pop\n        /* \"contracts/TimbStaking.sol\":13038:13305  {... */\n      pop\n      pop\n        /* \"contracts/TimbStaking.sol\":13002:13375  if (block.timestamp < periodFinish) {... */\n      jump(tag_173)\n    tag_168:\n        /* \"contracts/TimbStaking.sol\":13356:13364  duration */\n      dup2\n        /* \"contracts/TimbStaking.sol\":13347:13353  amount */\n      dup4\n        /* \"contracts/TimbStaking.sol\":13347:13364  amount / duration */\n      tag_174\n      swap2\n      swap1\n      tag_149\n      jump\t// in\n    tag_174:\n        /* \"contracts/TimbStaking.sol\":13325:13344  rewardRatePerSecond */\n      0x02\n        /* \"contracts/TimbStaking.sol\":13325:13364  rewardRatePerSecond = amount / duration */\n      dup2\n      swap1\n      sstore\n      pop\n        /* \"contracts/TimbStaking.sol\":13002:13375  if (block.timestamp < periodFinish) {... */\n    tag_173:\n        /* \"contracts/TimbStaking.sol\":13402:13417  block.timestamp */\n      timestamp\n        /* \"contracts/TimbStaking.sol\":13385:13399  lastUpdateTime */\n      0x04\n        /* \"contracts/TimbStaking.sol\":13385:13417  lastUpdateTime = block.timestamp */\n      dup2\n      swap1\n      sstore\n      pop\n        /* \"contracts/TimbStaking.sol\":13462:13470  duration */\n      dup2\n        /* \"contracts/TimbStaking.sol\":13444:13459  block.timestamp */\n      timestamp\n        /* \"contracts/TimbStaking.sol\":13444:13470  block.timestamp + duration */\n      tag_175\n      swap2\n      swap1\n      tag_151\n      jump\t// in\n    tag_175:\n        /* \"contracts/TimbStaking.sol\":13427:13439  periodFinish */\n      0x03\n        /* \"contracts/TimbStaking.sol\":13427:13470  periodFinish   = block.timestamp + duration */\n      dup2\n      swap1\n      sstore\n      pop\n        /* \"contracts/TimbStaking.sol\":13501:13511  msg.sender */\n      caller\n        /* \"contracts/TimbStaking.sol\":13486:13530  RewardNotified(msg.sender, amount, duration) */\n      0xffffffffffffffffffffffffffffffffffffffff\n      and\n      0x8a888ea653a580e40660778ee0c0dabd23a81e8e2c8dcfb938e40982a157d819\n        /* \"contracts/TimbStaking.sol\":13513:13519  amount */\n      dup5\n        /* \"contracts/TimbStaking.sol\":13521:13529  duration */\n      dup5\n        /* \"contracts/TimbStaking.sol\":13486:13530  RewardNotified(msg.sender, amount, duration) */\n      mload(0x40)\n      tag_176\n      swap3\n      swap2\n      swap1\n      tag_177\n      jump\t// in\n    tag_176:\n      mload(0x40)\n      dup1\n      swap2\n      sub\n      swap1\n      log2\n        /* \"@openzeppelin/contracts/utils/ReentrancyGuard.sol\":3054:3055  _ */\n      pop\n        /* \"@openzeppelin/contracts/utils/ReentrancyGuard.sol\":3065:3085  _nonReentrantAfter() */\n      tag_178\n        /* \"@openzeppelin/contracts/utils/ReentrancyGuard.sol\":3065:3083  _nonReentrantAfter */\n      tag_179\n        /* \"@openzeppelin/contracts/utils/ReentrancyGuard.sol\":3065:3085  _nonReentrantAfter() */\n      jump\t// in\n    tag_178:\n        /* \"contracts/TimbStaking.sol\":12570:13537  function notifyRewardAmount(uint256 amount, uint256 duration)... */\n      pop\n      pop\n      jump\t// out\n        /* \"contracts/TimbStaking.sol\":14746:15014  function setRewardNotifier(address notifier, bool authorised)... */\n    tag_58:\n        /* \"@openzeppelin/contracts/access/Ownable.sol\":1531:1544  _checkOwner() */\n      tag_181\n        /* \"@openzeppelin/contracts/access/Ownable.sol\":1531:1542  _checkOwner */\n      tag_182\n        /* \"@openzeppelin/contracts/access/Ownable.sol\":1531:1544  _checkOwner() */\n      jump\t// in\n    tag_181:\n        /* \"contracts/TimbStaking.sol\":14881:14882  0 */\n      0x00\n        /* \"contracts/TimbStaking.sol\":14861:14883  notifier == address(0) */\n      0xffffffffffffffffffffffffffffffffffffffff\n      and\n        /* \"contracts/TimbStaking.sol\":14861:14869  notifier */\n      dup3\n        /* \"contracts/TimbStaking.sol\":14861:14883  notifier == address(0) */\n      0xffffffffffffffffffffffffffffffffffffffff\n      and\n      sub\n        /* \"contracts/TimbStaking.sol\":14857:14905  if (notifier == address(0)) revert ZeroAddress() */\n      tag_184\n      jumpi\n        /* \"contracts/TimbStaking.sol\":14892:14905  ZeroAddress() */\n      mload(0x40)\n      0xd92e233d00000000000000000000000000000000000000000000000000000000\n      dup2\n      mstore\n      0x04\n      add\n      mload(0x40)\n      dup1\n      swap2\n      sub\n      swap1\n      revert\n        /* \"contracts/TimbStaking.sol\":14857:14905  if (notifier == address(0)) revert ZeroAddress() */\n    tag_184:\n        /* \"contracts/TimbStaking.sol\":14943:14953  authorised */\n      dup1\n        /* \"contracts/TimbStaking.sol\":14915:14930  rewardNotifiers */\n      0x0a\n        /* \"contracts/TimbStaking.sol\":14915:14940  rewardNotifiers[notifier] */\n      0x00\n        /* \"contracts/TimbStaking.sol\":14931:14939  notifier */\n      dup5\n        /* \"contracts/TimbStaking.sol\":14915:14940  rewardNotifiers[notifier] */\n      0xffffffffffffffffffffffffffffffffffffffff\n      and\n      0xffffffffffffffffffffffffffffffffffffffff\n      and\n      dup2\n      mstore\n      0x20\n      add\n      swap1\n      dup2\n      mstore\n      0x20\n      add\n      0x00\n      keccak256\n      0x00\n        /* \"contracts/TimbStaking.sol\":14915:14953  rewardNotifiers[notifier] = authorised */\n      0x0100\n      exp\n      dup2\n      sload\n      dup2\n      0xff\n      mul\n      not\n      and\n      swap1\n      dup4\n      iszero\n      iszero\n      mul\n      or\n      swap1\n      sstore\n      pop\n        /* \"contracts/TimbStaking.sol\":14986:14994  notifier */\n      dup2\n        /* \"contracts/TimbStaking.sol\":14968:15007  RewardNotifierSet(notifier, authorised) */\n      0xffffffffffffffffffffffffffffffffffffffff\n      and\n      0xb33ca1dabfb28a2e1bd06b332c396b1a3d538278691341a5503bbad53f919197\n        /* \"contracts/TimbStaking.sol\":14996:15006  authorised */\n      dup3\n        /* \"contracts/TimbStaking.sol\":14968:15007  RewardNotifierSet(notifier, authorised) */\n      mload(0x40)\n      tag_185\n      swap2\n      swap1\n      tag_77\n      jump\t// in\n    tag_185:\n      mload(0x40)\n      dup1\n      swap2\n      sub\n      swap1\n      log2\n        /* \"contracts/TimbStaking.sol\":14746:15014  function setRewardNotifier(address notifier, bool authorised)... */\n      pop\n      pop\n      jump\t// out\n        /* \"contracts/TimbStaking.sol\":9426:9931  function unstake(uint256 amount)... */\n    tag_62:\n        /* \"@openzeppelin/contracts/utils/ReentrancyGuard.sol\":3023:3044  _nonReentrantBefore() */\n      tag_187\n        /* \"@openzeppelin/contracts/utils/ReentrancyGuard.sol\":3023:3042  _nonReentrantBefore */\n      tag_154\n        /* \"@openzeppelin/contracts/utils/ReentrancyGuard.sol\":3023:3044  _nonReentrantBefore() */\n      jump\t// in\n    tag_187:\n        /* \"contracts/TimbStaking.sol\":5126:5132  paused */\n      0x0b\n      0x00\n      swap1\n      sload\n      swap1\n      0x0100\n      exp\n      swap1\n      div\n      0xff\n      and\n        /* \"contracts/TimbStaking.sol\":5122:5157  if (paused) revert ContractPaused() */\n      iszero\n      tag_189\n      jumpi\n        /* \"contracts/TimbStaking.sol\":5141:5157  ContractPaused() */\n      mload(0x40)\n      0xab35696f00000000000000000000000000000000000000000000000000000000\n      dup2\n      mstore\n      0x04\n      add\n      mload(0x40)\n      dup1\n      swap2\n      sub\n      swap1\n      revert\n        /* \"contracts/TimbStaking.sol\":5122:5157  if (paused) revert ContractPaused() */\n    tag_189:\n        /* \"contracts/TimbStaking.sol\":9540:9550  msg.sender */\n      caller\n        /* \"contracts/TimbStaking.sol\":5253:5269  rewardPerToken() */\n      tag_191\n        /* \"contracts/TimbStaking.sol\":5253:5267  rewardPerToken */\n      tag_120\n        /* \"contracts/TimbStaking.sol\":5253:5269  rewardPerToken() */\n      jump\t// in\n    tag_191:\n        /* \"contracts/TimbStaking.sol\":5230:5250  rewardPerTokenStored */\n      0x05\n        /* \"contracts/TimbStaking.sol\":5230:5269  rewardPerTokenStored = rewardPerToken() */\n      dup2\n      swap1\n      sstore\n      pop\n        /* \"contracts/TimbStaking.sol\":5302:5328  lastTimeRewardApplicable() */\n      tag_192\n        /* \"contracts/TimbStaking.sol\":5302:5326  lastTimeRewardApplicable */\n      tag_92\n        /* \"contracts/TimbStaking.sol\":5302:5328  lastTimeRewardApplicable() */\n      jump\t// in\n    tag_192:\n        /* \"contracts/TimbStaking.sol\":5279:5293  lastUpdateTime */\n      0x04\n        /* \"contracts/TimbStaking.sol\":5279:5328  lastUpdateTime       = lastTimeRewardApplicable() */\n      dup2\n      swap1\n      sstore\n      pop\n        /* \"contracts/TimbStaking.sol\":5361:5362  0 */\n      0x00\n        /* \"contracts/TimbStaking.sol\":5342:5363  account != address(0) */\n      0xffffffffffffffffffffffffffffffffffffffff\n      and\n        /* \"contracts/TimbStaking.sol\":5342:5349  account */\n      dup2\n        /* \"contracts/TimbStaking.sol\":5342:5363  account != address(0) */\n      0xffffffffffffffffffffffffffffffffffffffff\n      and\n      eq\n        /* \"contracts/TimbStaking.sol\":5338:5506  if (account != address(0)) {... */\n      tag_193\n      jumpi\n        /* \"contracts/TimbStaking.sol\":5412:5427  earned(account) */\n      tag_194\n        /* \"contracts/TimbStaking.sol\":5419:5426  account */\n      dup2\n        /* \"contracts/TimbStaking.sol\":5412:5418  earned */\n      tag_44\n        /* \"contracts/TimbStaking.sol\":5412:5427  earned(account) */\n      jump\t// in\n    tag_194:\n        /* \"contracts/TimbStaking.sol\":5379:5393  pendingRewards */\n      0x09\n        /* \"contracts/TimbStaking.sol\":5379:5402  pendingRewards[account] */\n      0x00\n        /* \"contracts/TimbStaking.sol\":5394:5401  account */\n      dup4\n        /* \"contracts/TimbStaking.sol\":5379:5402  pendingRewards[account] */\n      0xffffffffffffffffffffffffffffffffffffffff\n      and\n      0xffffffffffffffffffffffffffffffffffffffff\n      and\n      dup2\n      mstore\n      0x20\n      add\n      swap1\n      dup2\n      mstore\n      0x20\n      add\n      0x00\n      keccak256\n        /* \"contracts/TimbStaking.sol\":5379:5427  pendingRewards[account]        = earned(account) */\n      dup2\n      swap1\n      sstore\n      pop\n        /* \"contracts/TimbStaking.sol\":5475:5495  rewardPerTokenStored */\n      sload(0x05)\n        /* \"contracts/TimbStaking.sol\":5441:5463  userRewardPerTokenPaid */\n      0x08\n        /* \"contracts/TimbStaking.sol\":5441:5472  userRewardPerTokenPaid[account] */\n      0x00\n        /* \"contracts/TimbStaking.sol\":5464:5471  account */\n      dup4\n        /* \"contracts/TimbStaking.sol\":5441:5472  userRewardPerTokenPaid[account] */\n      0xffffffffffffffffffffffffffffffffffffffff\n      and\n      0xffffffffffffffffffffffffffffffffffffffff\n      and\n      dup2\n      mstore\n      0x20\n      add\n      swap1\n      dup2\n      mstore\n      0x20\n      add\n      0x00\n      keccak256\n        /* \"contracts/TimbStaking.sol\":5441:5495  userRewardPerTokenPaid[account] = rewardPerTokenStored */\n      dup2\n      swap1\n      sstore\n      pop\n        /* \"contracts/TimbStaking.sol\":5338:5506  if (account != address(0)) {... */\n    tag_193:\n        /* \"contracts/TimbStaking.sol\":9580:9581  0 */\n      0x00\n        /* \"contracts/TimbStaking.sol\":9570:9576  amount */\n      dup3\n        /* \"contracts/TimbStaking.sol\":9570:9581  amount == 0 */\n      sub\n        /* \"contracts/TimbStaking.sol\":9566:9602  if (amount == 0) revert ZeroAmount() */\n      tag_196\n      jumpi\n        /* \"contracts/TimbStaking.sol\":9590:9602  ZeroAmount() */\n      mload(0x40)\n      0x1f2a200500000000000000000000000000000000000000000000000000000000\n      dup2\n      mstore\n      0x04\n      add\n      mload(0x40)\n      dup1\n      swap2\n      sub\n      swap1\n      revert\n        /* \"contracts/TimbStaking.sol\":9566:9602  if (amount == 0) revert ZeroAmount() */\n    tag_196:\n        /* \"contracts/TimbStaking.sol\":9625:9638  stakedBalance */\n      0x07\n        /* \"contracts/TimbStaking.sol\":9625:9650  stakedBalance[msg.sender] */\n      0x00\n        /* \"contracts/TimbStaking.sol\":9639:9649  msg.sender */\n      caller\n        /* \"contracts/TimbStaking.sol\":9625:9650  stakedBalance[msg.sender] */\n      0xffffffffffffffffffffffffffffffffffffffff\n      and\n      0xffffffffffffffffffffffffffffffffffffffff\n      and\n      dup2\n      mstore\n      0x20\n      add\n      swap1\n      dup2\n      mstore\n      0x20\n      add\n      0x00\n      keccak256\n      sload\n        /* \"contracts/TimbStaking.sol\":9616:9622  amount */\n      dup3\n        /* \"contracts/TimbStaking.sol\":9616:9650  amount > stakedBalance[msg.sender] */\n      gt\n        /* \"contracts/TimbStaking.sol\":9612:9736  if (amount > stakedBalance[msg.sender]) {... */\n      iszero\n      tag_197\n      jumpi\n        /* \"contracts/TimbStaking.sol\":9691:9697  amount */\n      dup2\n        /* \"contracts/TimbStaking.sol\":9699:9712  stakedBalance */\n      0x07\n        /* \"contracts/TimbStaking.sol\":9699:9724  stakedBalance[msg.sender] */\n      0x00\n        /* \"contracts/TimbStaking.sol\":9713:9723  msg.sender */\n      caller\n        /* \"contracts/TimbStaking.sol\":9699:9724  stakedBalance[msg.sender] */\n      0xffffffffffffffffffffffffffffffffffffffff\n      and\n      0xffffffffffffffffffffffffffffffffffffffff\n      and\n      dup2\n      mstore\n      0x20\n      add\n      swap1\n      dup2\n      mstore\n      0x20\n      add\n      0x00\n      keccak256\n      sload\n        /* \"contracts/TimbStaking.sol\":9673:9725  InsufficientStake(amount, stakedBalance[msg.sender]) */\n      mload(0x40)\n      0x45be0a2600000000000000000000000000000000000000000000000000000000\n      dup2\n      mstore\n      0x04\n      add\n      tag_198\n      swap3\n      swap2\n      swap1\n      tag_177\n      jump\t// in\n    tag_198:\n      mload(0x40)\n      dup1\n      swap2\n      sub\n      swap1\n      revert\n        /* \"contracts/TimbStaking.sol\":9612:9736  if (amount > stakedBalance[msg.sender]) {... */\n    tag_197:\n        /* \"contracts/TimbStaking.sol\":9775:9781  amount */\n      dup2\n        /* \"contracts/TimbStaking.sol\":9746:9759  stakedBalance */\n      0x07\n        /* \"contracts/TimbStaking.sol\":9746:9771  stakedBalance[msg.sender] */\n      0x00\n        /* \"contracts/TimbStaking.sol\":9760:9770  msg.sender */\n      caller\n        /* \"contracts/TimbStaking.sol\":9746:9771  stakedBalance[msg.sender] */\n      0xffffffffffffffffffffffffffffffffffffffff\n      and\n      0xffffffffffffffffffffffffffffffffffffffff\n      and\n      dup2\n      mstore\n      0x20\n      add\n      swap1\n      dup2\n      mstore\n      0x20\n      add\n      0x00\n      keccak256\n      0x00\n        /* \"contracts/TimbStaking.sol\":9746:9781  stakedBalance[msg.sender] -= amount */\n      dup3\n      dup3\n      sload\n      tag_199\n      swap2\n      swap1\n      tag_145\n      jump\t// in\n    tag_199:\n      swap3\n      pop\n      pop\n      dup2\n      swap1\n      sstore\n      pop\n        /* \"contracts/TimbStaking.sol\":9820:9826  amount */\n      dup2\n        /* \"contracts/TimbStaking.sol\":9791:9802  totalStaked */\n      0x06\n      0x00\n        /* \"contracts/TimbStaking.sol\":9791:9826  totalStaked               -= amount */\n      dup3\n      dup3\n      sload\n      tag_200\n      swap2\n      swap1\n      tag_145\n      jump\t// in\n    tag_200:\n      swap3\n      pop\n      pop\n      dup2\n      swap1\n      sstore\n      pop\n        /* \"contracts/TimbStaking.sol\":9837:9880  timbsToken.safeTransfer(msg.sender, amount) */\n      tag_201\n        /* \"contracts/TimbStaking.sol\":9861:9871  msg.sender */\n      caller\n        /* \"contracts/TimbStaking.sol\":9873:9879  amount */\n      dup4\n        /* \"contracts/TimbStaking.sol\":9837:9847  timbsToken */\n      immutable(\"0x962c584afcd4dd6cb0e25fef291e59a13b9ae1b34d13f25b13a34669b807535c\")\n        /* \"contracts/TimbStaking.sol\":9837:9860  timbsToken.safeTransfer */\n      0xffffffffffffffffffffffffffffffffffffffff\n      and\n      tag_202\n      swap1\n        /* \"contracts/TimbStaking.sol\":9837:9880  timbsToken.safeTransfer(msg.sender, amount) */\n      swap3\n      swap2\n      swap1\n      0xffffffff\n      and\n      jump\t// in\n    tag_201:\n        /* \"contracts/TimbStaking.sol\":9905:9915  msg.sender */\n      caller\n        /* \"contracts/TimbStaking.sol\":9896:9924  Unstaked(msg.sender, amount) */\n      0xffffffffffffffffffffffffffffffffffffffff\n      and\n      0x0f5bb82176feb1b5e747e28471aa92156a04d9f3ab9f45f28e2d704232b93f75\n        /* \"contracts/TimbStaking.sol\":9917:9923  amount */\n      dup4\n        /* \"contracts/TimbStaking.sol\":9896:9924  Unstaked(msg.sender, amount) */\n      mload(0x40)\n      tag_203\n      swap2\n      swap1\n      tag_46\n      jump\t// in\n    tag_203:\n      mload(0x40)\n      dup1\n      swap2\n      sub\n      swap1\n      log2\n        /* \"contracts/TimbStaking.sol\":5167:5168  _ */\n      pop\n        /* \"@openzeppelin/contracts/utils/ReentrancyGuard.sol\":3065:3085  _nonReentrantAfter() */\n      tag_204\n        /* \"@openzeppelin/contracts/utils/ReentrancyGuard.sol\":3065:3083  _nonReentrantAfter */\n      tag_179\n        /* \"@openzeppelin/contracts/utils/ReentrancyGuard.sol\":3065:3085  _nonReentrantAfter() */\n      jump\t// in\n    tag_204:\n        /* \"contracts/TimbStaking.sol\":9426:9931  function unstake(uint256 amount)... */\n      pop\n      jump\t// out\n        /* \"contracts/TimbStaking.sol\":3324:3373  mapping(address => uint256) public pendingRewards */\n    tag_65:\n      mstore(0x20, 0x09)\n      dup1\n      0x00\n      mstore\n      keccak256(0x00, 0x40)\n      0x00\n      swap2\n      pop\n      swap1\n      pop\n      sload\n      dup2\n      jump\t// out\n        /* \"contracts/TimbStaking.sol\":10323:10907  function claimRewards()... */\n    tag_68:\n        /* \"@openzeppelin/contracts/utils/ReentrancyGuard.sol\":3023:3044  _nonReentrantBefore() */\n      tag_206\n        /* \"@openzeppelin/contracts/utils/ReentrancyGuard.sol\":3023:3042  _nonReentrantBefore */\n      tag_154\n        /* \"@openzeppelin/contracts/utils/ReentrancyGuard.sol\":3023:3044  _nonReentrantBefore() */\n      jump\t// in\n    tag_206:\n        /* \"contracts/TimbStaking.sol\":5126:5132  paused */\n      0x0b\n      0x00\n      swap1\n      sload\n      swap1\n      0x0100\n      exp\n      swap1\n      div\n      0xff\n      and\n        /* \"contracts/TimbStaking.sol\":5122:5157  if (paused) revert ContractPaused() */\n      iszero\n      tag_208\n      jumpi\n        /* \"contracts/TimbStaking.sol\":5141:5157  ContractPaused() */\n      mload(0x40)\n      0xab35696f00000000000000000000000000000000000000000000000000000000\n      dup2\n      mstore\n      0x04\n      add\n      mload(0x40)\n      dup1\n      swap2\n      sub\n      swap1\n      revert\n        /* \"contracts/TimbStaking.sol\":5122:5157  if (paused) revert ContractPaused() */\n    tag_208:\n        /* \"contracts/TimbStaking.sol\":10428:10438  msg.sender */\n      caller\n        /* \"contracts/TimbStaking.sol\":5253:5269  rewardPerToken() */\n      tag_210\n        /* \"contracts/TimbStaking.sol\":5253:5267  rewardPerToken */\n      tag_120\n        /* \"contracts/TimbStaking.sol\":5253:5269  rewardPerToken() */\n      jump\t// in\n    tag_210:\n        /* \"contracts/TimbStaking.sol\":5230:5250  rewardPerTokenStored */\n      0x05\n        /* \"contracts/TimbStaking.sol\":5230:5269  rewardPerTokenStored = rewardPerToken() */\n      dup2\n      swap1\n      sstore\n      pop\n        /* \"contracts/TimbStaking.sol\":5302:5328  lastTimeRewardApplicable() */\n      tag_211\n        /* \"contracts/TimbStaking.sol\":5302:5326  lastTimeRewardApplicable */\n      tag_92\n        /* \"contracts/TimbStaking.sol\":5302:5328  lastTimeRewardApplicable() */\n      jump\t// in\n    tag_211:\n        /* \"contracts/TimbStaking.sol\":5279:5293  lastUpdateTime */\n      0x04\n        /* \"contracts/TimbStaking.sol\":5279:5328  lastUpdateTime       = lastTimeRewardApplicable() */\n      dup2\n      swap1\n      sstore\n      pop\n        /* \"contracts/TimbStaking.sol\":5361:5362  0 */\n      0x00\n        /* \"contracts/TimbStaking.sol\":5342:5363  account != address(0) */\n      0xffffffffffffffffffffffffffffffffffffffff\n      and\n        /* \"contracts/TimbStaking.sol\":5342:5349  account */\n      dup2\n        /* \"contracts/TimbStaking.sol\":5342:5363  account != address(0) */\n      0xffffffffffffffffffffffffffffffffffffffff\n      and\n      eq\n        /* \"contracts/TimbStaking.sol\":5338:5506  if (account != address(0)) {... */\n      tag_212\n      jumpi\n        /* \"contracts/TimbStaking.sol\":5412:5427  earned(account) */\n      tag_213\n        /* \"contracts/TimbStaking.sol\":5419:5426  account */\n      dup2\n        /* \"contracts/TimbStaking.sol\":5412:5418  earned */\n      tag_44\n        /* \"contracts/TimbStaking.sol\":5412:5427  earned(account) */\n      jump\t// in\n    tag_213:\n        /* \"contracts/TimbStaking.sol\":5379:5393  pendingRewards */\n      0x09\n        /* \"contracts/TimbStaking.sol\":5379:5402  pendingRewards[account] */\n      0x00\n        /* \"contracts/TimbStaking.sol\":5394:5401  account */\n      dup4\n        /* \"contracts/TimbStaking.sol\":5379:5402  pendingRewards[account] */\n      0xffffffffffffffffffffffffffffffffffffffff\n      and\n      0xffffffffffffffffffffffffffffffffffffffff\n      and\n      dup2\n      mstore\n      0x20\n      add\n      swap1\n      dup2\n      mstore\n      0x20\n      add\n      0x00\n      keccak256\n        /* \"contracts/TimbStaking.sol\":5379:5427  pendingRewards[account]        = earned(account) */\n      dup2\n      swap1\n      sstore\n      pop\n        /* \"contracts/TimbStaking.sol\":5475:5495  rewardPerTokenStored */\n      sload(0x05)\n        /* \"contracts/TimbStaking.sol\":5441:5463  userRewardPerTokenPaid */\n      0x08\n        /* \"contracts/TimbStaking.sol\":5441:5472  userRewardPerTokenPaid[account] */\n      0x00\n        /* \"contracts/TimbStaking.sol\":5464:5471  account */\n      dup4\n        /* \"contracts/TimbStaking.sol\":5441:5472  userRewardPerTokenPaid[account] */\n      0xffffffffffffffffffffffffffffffffffffffff\n      and\n      0xffffffffffffffffffffffffffffffffffffffff\n      and\n      dup2\n      mstore\n      0x20\n      add\n      swap1\n      dup2\n      mstore\n      0x20\n      add\n      0x00\n      keccak256\n        /* \"contracts/TimbStaking.sol\":5441:5495  userRewardPerTokenPaid[account] = rewardPerTokenStored */\n      dup2\n      swap1\n      sstore\n      pop\n        /* \"contracts/TimbStaking.sol\":5338:5506  if (account != address(0)) {... */\n    tag_212:\n        /* \"contracts/TimbStaking.sol\":10454:10468  uint256 reward */\n      0x00\n        /* \"contracts/TimbStaking.sol\":10471:10485  pendingRewards */\n      0x09\n        /* \"contracts/TimbStaking.sol\":10471:10497  pendingRewards[msg.sender] */\n      0x00\n        /* \"contracts/TimbStaking.sol\":10486:10496  msg.sender */\n      caller\n        /* \"contracts/TimbStaking.sol\":10471:10497  pendingRewards[msg.sender] */\n      0xffffffffffffffffffffffffffffffffffffffff\n      and\n      0xffffffffffffffffffffffffffffffffffffffff\n      and\n      dup2\n      mstore\n      0x20\n      add\n      swap1\n      dup2\n      mstore\n      0x20\n      add\n      0x00\n      keccak256\n      sload\n        /* \"contracts/TimbStaking.sol\":10454:10497  uint256 reward = pendingRewards[msg.sender] */\n      swap1\n      pop\n        /* \"contracts/TimbStaking.sol\":10521:10522  0 */\n      0x00\n        /* \"contracts/TimbStaking.sol\":10511:10517  reward */\n      dup2\n        /* \"contracts/TimbStaking.sol\":10511:10522  reward == 0 */\n      sub\n        /* \"contracts/TimbStaking.sol\":10507:10549  if (reward == 0) revert NoPendingRewards() */\n      tag_215\n      jumpi\n        /* \"contracts/TimbStaking.sol\":10531:10549  NoPendingRewards() */\n      mload(0x40)\n      0xb71ea17e00000000000000000000000000000000000000000000000000000000\n      dup2\n      mstore\n      0x04\n      add\n      mload(0x40)\n      dup1\n      swap2\n      sub\n      swap1\n      revert\n        /* \"contracts/TimbStaking.sol\":10507:10549  if (reward == 0) revert NoPendingRewards() */\n    tag_215:\n        /* \"contracts/TimbStaking.sol\":10560:10583  uint256 contractBalance */\n      0x00\n        /* \"contracts/TimbStaking.sol\":10624:10635  totalStaked */\n      sload(0x06)\n        /* \"contracts/TimbStaking.sol\":10586:10596  timbsToken */\n      immutable(\"0x962c584afcd4dd6cb0e25fef291e59a13b9ae1b34d13f25b13a34669b807535c\")\n        /* \"contracts/TimbStaking.sol\":10586:10606  timbsToken.balanceOf */\n      0xffffffffffffffffffffffffffffffffffffffff\n      and\n      0x70a08231\n        /* \"contracts/TimbStaking.sol\":10615:10619  this */\n      address\n        /* \"contracts/TimbStaking.sol\":10586:10621  timbsToken.balanceOf(address(this)) */\n      mload(0x40)\n      dup3\n      0xffffffff\n      and\n      0xe0\n      shl\n      dup2\n      mstore\n      0x04\n      add\n      tag_216\n      swap2\n      swap1\n      tag_88\n      jump\t// in\n    tag_216:\n      0x20\n      mload(0x40)\n      dup1\n      dup4\n      sub\n      dup2\n      dup7\n      gas\n      staticcall\n      iszero\n      dup1\n      iszero\n      tag_218\n      jumpi\n      returndatasize\n      0x00\n      dup1\n      returndatacopy\n      revert(0x00, returndatasize)\n    tag_218:\n      pop\n      pop\n      pop\n      pop\n      mload(0x40)\n      returndatasize\n      not(0x1f)\n      0x1f\n      dup3\n      add\n      and\n      dup3\n      add\n      dup1\n      0x40\n      mstore\n      pop\n      dup2\n      add\n      swap1\n      tag_219\n      swap2\n      swap1\n      tag_220\n      jump\t// in\n    tag_219:\n        /* \"contracts/TimbStaking.sol\":10586:10635  timbsToken.balanceOf(address(this)) - totalStaked */\n      tag_221\n      swap2\n      swap1\n      tag_145\n      jump\t// in\n    tag_221:\n        /* \"contracts/TimbStaking.sol\":10560:10635  uint256 contractBalance = timbsToken.balanceOf(address(this)) - totalStaked */\n      swap1\n      pop\n        /* \"contracts/TimbStaking.sol\":10658:10673  contractBalance */\n      dup1\n        /* \"contracts/TimbStaking.sol\":10649:10655  reward */\n      dup3\n        /* \"contracts/TimbStaking.sol\":10649:10673  reward > contractBalance */\n      gt\n        /* \"contracts/TimbStaking.sol\":10645:10757  if (reward > contractBalance) {... */\n      iszero\n      tag_222\n      jumpi\n        /* \"contracts/TimbStaking.sol\":10722:10728  reward */\n      dup2\n        /* \"contracts/TimbStaking.sol\":10730:10745  contractBalance */\n      dup2\n        /* \"contracts/TimbStaking.sol\":10696:10746  InsufficientRewardBalance(reward, contractBalance) */\n      mload(0x40)\n      0x65ac9d4300000000000000000000000000000000000000000000000000000000\n      dup2\n      mstore\n      0x04\n      add\n      tag_223\n      swap3\n      swap2\n      swap1\n      tag_177\n      jump\t// in\n    tag_223:\n      mload(0x40)\n      dup1\n      swap2\n      sub\n      swap1\n      revert\n        /* \"contracts/TimbStaking.sol\":10645:10757  if (reward > contractBalance) {... */\n    tag_222:\n        /* \"contracts/TimbStaking.sol\":10796:10797  0 */\n      0x00\n        /* \"contracts/TimbStaking.sol\":10767:10781  pendingRewards */\n      0x09\n        /* \"contracts/TimbStaking.sol\":10767:10793  pendingRewards[msg.sender] */\n      0x00\n        /* \"contracts/TimbStaking.sol\":10782:10792  msg.sender */\n      caller\n        /* \"contracts/TimbStaking.sol\":10767:10793  pendingRewards[msg.sender] */\n      0xffffffffffffffffffffffffffffffffffffffff\n      and\n      0xffffffffffffffffffffffffffffffffffffffff\n      and\n      dup2\n      mstore\n      0x20\n      add\n      swap1\n      dup2\n      mstore\n      0x20\n      add\n      0x00\n      keccak256\n        /* \"contracts/TimbStaking.sol\":10767:10797  pendingRewards[msg.sender] = 0 */\n      dup2\n      swap1\n      sstore\n      pop\n        /* \"contracts/TimbStaking.sol\":10807:10850  timbsToken.safeTransfer(msg.sender, reward) */\n      tag_224\n        /* \"contracts/TimbStaking.sol\":10831:10841  msg.sender */\n      caller\n        /* \"contracts/TimbStaking.sol\":10843:10849  reward */\n      dup4\n        /* \"contracts/TimbStaking.sol\":10807:10817  timbsToken */\n      immutable(\"0x962c584afcd4dd6cb0e25fef291e59a13b9ae1b34d13f25b13a34669b807535c\")\n        /* \"contracts/TimbStaking.sol\":10807:10830  timbsToken.safeTransfer */\n      0xffffffffffffffffffffffffffffffffffffffff\n      and\n      tag_202\n      swap1\n        /* \"contracts/TimbStaking.sol\":10807:10850  timbsToken.safeTransfer(msg.sender, reward) */\n      swap3\n      swap2\n      swap1\n      0xffffffff\n      and\n      jump\t// in\n    tag_224:\n        /* \"contracts/TimbStaking.sol\":10881:10891  msg.sender */\n      caller\n        /* \"contracts/TimbStaking.sol\":10866:10900  RewardsClaimed(msg.sender, reward) */\n      0xffffffffffffffffffffffffffffffffffffffff\n      and\n      0xfc30cddea38e2bf4d6ea7d3f9ed3b6ad7f176419f4963bd81318067a4aee73fe\n        /* \"contracts/TimbStaking.sol\":10893:10899  reward */\n      dup4\n        /* \"contracts/TimbStaking.sol\":10866:10900  RewardsClaimed(msg.sender, reward) */\n      mload(0x40)\n      tag_225\n      swap2\n      swap1\n      tag_46\n      jump\t// in\n    tag_225:\n      mload(0x40)\n      dup1\n      swap2\n      sub\n      swap1\n      log2\n        /* \"contracts/TimbStaking.sol\":10444:10907  {... */\n      pop\n      pop\n        /* \"contracts/TimbStaking.sol\":5167:5168  _ */\n      pop\n        /* \"@openzeppelin/contracts/utils/ReentrancyGuard.sol\":3065:3085  _nonReentrantAfter() */\n      tag_226\n        /* \"@openzeppelin/contracts/utils/ReentrancyGuard.sol\":3065:3083  _nonReentrantAfter */\n      tag_179\n        /* \"@openzeppelin/contracts/utils/ReentrancyGuard.sol\":3065:3085  _nonReentrantAfter() */\n      jump\t// in\n    tag_226:\n        /* \"contracts/TimbStaking.sol\":10323:10907  function claimRewards()... */\n      jump\t// out\n        /* \"contracts/TimbStaking.sol\":15185:15269  function unpause() external onlyOwner { paused = false; emit Unpaused(msg.sender); } */\n    tag_70:\n        /* \"@openzeppelin/contracts/access/Ownable.sol\":1531:1544  _checkOwner() */\n      tag_228\n        /* \"@openzeppelin/contracts/access/Ownable.sol\":1531:1542  _checkOwner */\n      tag_182\n        /* \"@openzeppelin/contracts/access/Ownable.sol\":1531:1544  _checkOwner() */\n      jump\t// in\n    tag_228:\n        /* \"contracts/TimbStaking.sol\":15234:15239  false */\n      0x00\n        /* \"contracts/TimbStaking.sol\":15225:15231  paused */\n      0x0b\n      0x00\n        /* \"contracts/TimbStaking.sol\":15225:15239  paused = false */\n      0x0100\n      exp\n      dup2\n      sload\n      dup2\n      0xff\n      mul\n      not\n      and\n      swap1\n      dup4\n      iszero\n      iszero\n      mul\n      or\n      swap1\n      sstore\n      pop\n        /* \"contracts/TimbStaking.sol\":15255:15265  msg.sender */\n      caller\n        /* \"contracts/TimbStaking.sol\":15246:15266  Unpaused(msg.sender) */\n      0xffffffffffffffffffffffffffffffffffffffff\n      and\n      0x5db9ee0a495bf2e6ff9c91a7834c1ba4fdd244a5e8aa4e537bd38aeae4b073aa\n      mload(0x40)\n      mload(0x40)\n      dup1\n      swap2\n      sub\n      swap1\n      log2\n        /* \"contracts/TimbStaking.sol\":15185:15269  function unpause() external onlyOwner { paused = false; emit Unpaused(msg.sender); } */\n      jump\t// out\n        /* \"contracts/TimbStaking.sol\":7669:7962  function estimatedAPR() external view returns (uint256 aprBps) {... */\n    tag_72:\n        /* \"contracts/TimbStaking.sol\":7716:7730  uint256 aprBps */\n      0x00\n        /* \"contracts/TimbStaking.sol\":7761:7762  0 */\n      dup1\n        /* \"contracts/TimbStaking.sol\":7746:7757  totalStaked */\n      sload(0x06)\n        /* \"contracts/TimbStaking.sol\":7746:7762  totalStaked == 0 */\n      sub\n        /* \"contracts/TimbStaking.sol\":7742:7772  if (totalStaked == 0) return 0 */\n      tag_231\n      jumpi\n        /* \"contracts/TimbStaking.sol\":7771:7772  0 */\n      0x00\n        /* \"contracts/TimbStaking.sol\":7764:7772  return 0 */\n      swap1\n      pop\n      jump(tag_230)\n        /* \"contracts/TimbStaking.sol\":7742:7772  if (totalStaked == 0) return 0 */\n    tag_231:\n        /* \"contracts/TimbStaking.sol\":7844:7865  uint256 annualRewards */\n      0x00\n        /* \"contracts/TimbStaking.sol\":7890:7898  365 days */\n      0x01e13380\n        /* \"contracts/TimbStaking.sol\":7868:7887  rewardRatePerSecond */\n      sload(0x02)\n        /* \"contracts/TimbStaking.sol\":7868:7898  rewardRatePerSecond * 365 days */\n      tag_232\n      swap2\n      swap1\n      tag_147\n      jump\t// in\n    tag_232:\n        /* \"contracts/TimbStaking.sol\":7844:7898  uint256 annualRewards = rewardRatePerSecond * 365 days */\n      swap1\n      pop\n        /* \"contracts/TimbStaking.sol\":7944:7955  totalStaked */\n      sload(0x06)\n        /* \"contracts/TimbStaking.sol\":7934:7940  10_000 */\n      0x2710\n        /* \"contracts/TimbStaking.sol\":7918:7931  annualRewards */\n      dup3\n        /* \"contracts/TimbStaking.sol\":7918:7940  annualRewards * 10_000 */\n      tag_233\n      swap2\n      swap1\n      tag_147\n      jump\t// in\n    tag_233:\n        /* \"contracts/TimbStaking.sol\":7917:7955  (annualRewards * 10_000) / totalStaked */\n      tag_234\n      swap2\n      swap1\n      tag_149\n      jump\t// in\n    tag_234:\n        /* \"contracts/TimbStaking.sol\":7908:7955  aprBps = (annualRewards * 10_000) / totalStaked */\n      swap2\n      pop\n        /* \"contracts/TimbStaking.sol\":7732:7962  {... */\n      pop\n        /* \"contracts/TimbStaking.sol\":7669:7962  function estimatedAPR() external view returns (uint256 aprBps) {... */\n    tag_230:\n      swap1\n      jump\t// out\n        /* \"contracts/TimbStaking.sol\":3574:3592  bool public paused */\n    tag_75:\n      0x0b\n      0x00\n      swap1\n      sload\n      swap1\n      0x0100\n      exp\n      swap1\n      div\n      0xff\n      and\n      dup2\n      jump\t// out\n        /* \"contracts/TimbStaking.sol\":2561:2595  uint256 public rewardRatePerSecond */\n    tag_79:\n      sload(0x02)\n      dup2\n      jump\t// out\n        /* \"contracts/TimbStaking.sol\":3061:3109  mapping(address => uint256) public stakedBalance */\n    tag_83:\n      mstore(0x20, 0x07)\n      dup1\n      0x00\n      mstore\n      keccak256(0x00, 0x40)\n      0x00\n      swap2\n      pop\n      swap1\n      pop\n      sload\n      dup2\n      jump\t// out\n        /* \"contracts/TimbStaking.sol\":2376:2399  address public treasury */\n    tag_86:\n      0x01\n      0x00\n      swap1\n      sload\n      swap1\n      0x0100\n      exp\n      swap1\n      div\n      0xffffffffffffffffffffffffffffffffffffffff\n      and\n      dup2\n      jump\t// out\n        /* \"@openzeppelin/contracts/access/Ownable.sol\":2293:2394  function renounceOwnership() public virtual onlyOwner {... */\n    tag_90:\n        /* \"@openzeppelin/contracts/access/Ownable.sol\":1531:1544  _checkOwner() */\n      tag_236\n        /* \"@openzeppelin/contracts/access/Ownable.sol\":1531:1542  _checkOwner */\n      tag_182\n        /* \"@openzeppelin/contracts/access/Ownable.sol\":1531:1544  _checkOwner() */\n      jump\t// in\n    tag_236:\n        /* \"@openzeppelin/contracts/access/Ownable.sol\":2357:2387  _transferOwnership(address(0)) */\n      tag_238\n        /* \"@openzeppelin/contracts/access/Ownable.sol\":2384:2385  0 */\n      0x00\n        /* \"@openzeppelin/contracts/access/Ownable.sol\":2357:2375  _transferOwnership */\n      tag_239\n        /* \"@openzeppelin/contracts/access/Ownable.sol\":2357:2387  _transferOwnership(address(0)) */\n      jump\t// in\n    tag_238:\n        /* \"@openzeppelin/contracts/access/Ownable.sol\":2293:2394  function renounceOwnership() public virtual onlyOwner {... */\n      jump\t// out\n        /* \"contracts/TimbStaking.sol\":6541:6694  function lastTimeRewardApplicable() public view returns (uint256) {... */\n    tag_92:\n        /* \"contracts/TimbStaking.sol\":6598:6605  uint256 */\n      0x00\n        /* \"contracts/TimbStaking.sol\":6642:6654  periodFinish */\n      sload(0x03)\n        /* \"contracts/TimbStaking.sol\":6624:6639  block.timestamp */\n      timestamp\n        /* \"contracts/TimbStaking.sol\":6624:6654  block.timestamp < periodFinish */\n      lt\n        /* \"contracts/TimbStaking.sol\":6624:6687  block.timestamp < periodFinish ? block.timestamp : periodFinish */\n      tag_241\n      jumpi\n        /* \"contracts/TimbStaking.sol\":6675:6687  periodFinish */\n      sload(0x03)\n        /* \"contracts/TimbStaking.sol\":6624:6687  block.timestamp < periodFinish ? block.timestamp : periodFinish */\n      jump(tag_242)\n    tag_241:\n        /* \"contracts/TimbStaking.sol\":6657:6672  block.timestamp */\n      timestamp\n        /* \"contracts/TimbStaking.sol\":6624:6687  block.timestamp < periodFinish ? block.timestamp : periodFinish */\n    tag_242:\n        /* \"contracts/TimbStaking.sol\":6617:6687  return block.timestamp < periodFinish ? block.timestamp : periodFinish */\n      swap1\n      pop\n        /* \"contracts/TimbStaking.sol\":6541:6694  function lastTimeRewardApplicable() public view returns (uint256) {... */\n      swap1\n      jump\t// out\n        /* \"contracts/TimbStaking.sol\":2984:3010  uint256 public totalStaked */\n    tag_95:\n      sload(0x06)\n      dup2\n      jump\t// out\n        /* \"contracts/TimbStaking.sol\":15098:15180  function pause()   external onlyOwner { paused = true;  emit Paused(msg.sender); } */\n    tag_98:\n        /* \"@openzeppelin/contracts/access/Ownable.sol\":1531:1544  _checkOwner() */\n      tag_244\n        /* \"@openzeppelin/contracts/access/Ownable.sol\":1531:1542  _checkOwner */\n      tag_182\n        /* \"@openzeppelin/contracts/access/Ownable.sol\":1531:1544  _checkOwner() */\n      jump\t// in\n    tag_244:\n        /* \"contracts/TimbStaking.sol\":15147:15151  true */\n      0x01\n        /* \"contracts/TimbStaking.sol\":15138:15144  paused */\n      0x0b\n      0x00\n        /* \"contracts/TimbStaking.sol\":15138:15151  paused = true */\n      0x0100\n      exp\n      dup2\n      sload\n      dup2\n      0xff\n      mul\n      not\n      and\n      swap1\n      dup4\n      iszero\n      iszero\n      mul\n      or\n      swap1\n      sstore\n      pop\n        /* \"contracts/TimbStaking.sol\":15166:15176  msg.sender */\n      caller\n        /* \"contracts/TimbStaking.sol\":15159:15177  Paused(msg.sender) */\n      0xffffffffffffffffffffffffffffffffffffffff\n      and\n      0x62e78cea01bee320cd4e420270b5ea74000d11b0c9f74754ebdbfc544b05a258\n      mload(0x40)\n      mload(0x40)\n      dup1\n      swap2\n      sub\n      swap1\n      log2\n        /* \"contracts/TimbStaking.sol\":15098:15180  function pause()   external onlyOwner { paused = true;  emit Paused(msg.sender); } */\n      jump\t// out\n        /* \"contracts/TimbStaking.sol\":16132:16565  function recoverERC20(address token, uint256 amount) external onlyOwner {... */\n    tag_102:\n        /* \"@openzeppelin/contracts/access/Ownable.sol\":1531:1544  _checkOwner() */\n      tag_247\n        /* \"@openzeppelin/contracts/access/Ownable.sol\":1531:1542  _checkOwner */\n      tag_182\n        /* \"@openzeppelin/contracts/access/Ownable.sol\":1531:1544  _checkOwner() */\n      jump\t// in\n    tag_247:\n        /* \"contracts/TimbStaking.sol\":16235:16245  timbsToken */\n      immutable(\"0x962c584afcd4dd6cb0e25fef291e59a13b9ae1b34d13f25b13a34669b807535c\")\n        /* \"contracts/TimbStaking.sol\":16218:16246  token == address(timbsToken) */\n      0xffffffffffffffffffffffffffffffffffffffff\n      and\n        /* \"contracts/TimbStaking.sol\":16218:16223  token */\n      dup3\n        /* \"contracts/TimbStaking.sol\":16218:16246  token == address(timbsToken) */\n      0xffffffffffffffffffffffffffffffffffffffff\n      and\n      sub\n        /* \"contracts/TimbStaking.sol\":16214:16506  if (token == address(timbsToken)) {... */\n      tag_249\n      jumpi\n        /* \"contracts/TimbStaking.sol\":16331:16350  uint256 recoverable */\n      0x00\n        /* \"contracts/TimbStaking.sol\":16391:16402  totalStaked */\n      sload(0x06)\n        /* \"contracts/TimbStaking.sol\":16353:16363  timbsToken */\n      immutable(\"0x962c584afcd4dd6cb0e25fef291e59a13b9ae1b34d13f25b13a34669b807535c\")\n        /* \"contracts/TimbStaking.sol\":16353:16373  timbsToken.balanceOf */\n      0xffffffffffffffffffffffffffffffffffffffff\n      and\n      0x70a08231\n        /* \"contracts/TimbStaking.sol\":16382:16386  this */\n      address\n        /* \"contracts/TimbStaking.sol\":16353:16388  timbsToken.balanceOf(address(this)) */\n      mload(0x40)\n      dup3\n      0xffffffff\n      and\n      0xe0\n      shl\n      dup2\n      mstore\n      0x04\n      add\n      tag_250\n      swap2\n      swap1\n      tag_88\n      jump\t// in\n    tag_250:\n      0x20\n      mload(0x40)\n      dup1\n      dup4\n      sub\n      dup2\n      dup7\n      gas\n      staticcall\n      iszero\n      dup1\n      iszero\n      tag_252\n      jumpi\n      returndatasize\n      0x00\n      dup1\n      returndatacopy\n      revert(0x00, returndatasize)\n    tag_252:\n      pop\n      pop\n      pop\n      pop\n      mload(0x40)\n      returndatasize\n      not(0x1f)\n      0x1f\n      dup3\n      add\n      and\n      dup3\n      add\n      dup1\n      0x40\n      mstore\n      pop\n      dup2\n      add\n      swap1\n      tag_253\n      swap2\n      swap1\n      tag_220\n      jump\t// in\n    tag_253:\n        /* \"contracts/TimbStaking.sol\":16353:16402  timbsToken.balanceOf(address(this)) - totalStaked */\n      tag_254\n      swap2\n      swap1\n      tag_145\n      jump\t// in\n    tag_254:\n        /* \"contracts/TimbStaking.sol\":16331:16402  uint256 recoverable = timbsToken.balanceOf(address(this)) - totalStaked */\n      swap1\n      pop\n        /* \"contracts/TimbStaking.sol\":16429:16440  recoverable */\n      dup1\n        /* \"contracts/TimbStaking.sol\":16420:16426  amount */\n      dup3\n        /* \"contracts/TimbStaking.sol\":16420:16440  amount > recoverable */\n      gt\n        /* \"contracts/TimbStaking.sol\":16416:16495  if (amount > recoverable) revert InsufficientRewardBalance(amount, recoverable) */\n      iszero\n      tag_255\n      jumpi\n        /* \"contracts/TimbStaking.sol\":16475:16481  amount */\n      dup2\n        /* \"contracts/TimbStaking.sol\":16483:16494  recoverable */\n      dup2\n        /* \"contracts/TimbStaking.sol\":16449:16495  InsufficientRewardBalance(amount, recoverable) */\n      mload(0x40)\n      0x65ac9d4300000000000000000000000000000000000000000000000000000000\n      dup2\n      mstore\n      0x04\n      add\n      tag_256\n      swap3\n      swap2\n      swap1\n      tag_177\n      jump\t// in\n    tag_256:\n      mload(0x40)\n      dup1\n      swap2\n      sub\n      swap1\n      revert\n        /* \"contracts/TimbStaking.sol\":16416:16495  if (amount > recoverable) revert InsufficientRewardBalance(amount, recoverable) */\n    tag_255:\n        /* \"contracts/TimbStaking.sol\":16248:16506  {... */\n      pop\n        /* \"contracts/TimbStaking.sol\":16214:16506  if (token == address(timbsToken)) {... */\n    tag_249:\n        /* \"contracts/TimbStaking.sol\":16515:16558  IERC20(token).safeTransfer(owner(), amount) */\n      tag_257\n        /* \"contracts/TimbStaking.sol\":16542:16549  owner() */\n      tag_258\n        /* \"contracts/TimbStaking.sol\":16542:16547  owner */\n      tag_108\n        /* \"contracts/TimbStaking.sol\":16542:16549  owner() */\n      jump\t// in\n    tag_258:\n        /* \"contracts/TimbStaking.sol\":16551:16557  amount */\n      dup3\n        /* \"contracts/TimbStaking.sol\":16522:16527  token */\n      dup5\n        /* \"contracts/TimbStaking.sol\":16515:16541  IERC20(token).safeTransfer */\n      0xffffffffffffffffffffffffffffffffffffffff\n      and\n      tag_202\n      swap1\n        /* \"contracts/TimbStaking.sol\":16515:16558  IERC20(token).safeTransfer(owner(), amount) */\n      swap3\n      swap2\n      swap1\n      0xffffffff\n      and\n      jump\t// in\n    tag_257:\n        /* \"contracts/TimbStaking.sol\":16132:16565  function recoverERC20(address token, uint256 amount) external onlyOwner {... */\n      pop\n      pop\n      jump\t// out\n        /* \"contracts/TimbStaking.sol\":3192:3249  mapping(address => uint256) public userRewardPerTokenPaid */\n    tag_105:\n      mstore(0x20, 0x08)\n      dup1\n      0x00\n      mstore\n      keccak256(0x00, 0x40)\n      0x00\n      swap2\n      pop\n      swap1\n      pop\n      sload\n      dup2\n      jump\t// out\n        /* \"@openzeppelin/contracts/access/Ownable.sol\":1638:1723  function owner() public view virtual returns (address) {... */\n    tag_108:\n        /* \"@openzeppelin/contracts/access/Ownable.sol\":1684:1691  address */\n      0x00\n        /* \"@openzeppelin/contracts/access/Ownable.sol\":1710:1716  _owner */\n      dup1\n      0x00\n      swap1\n      sload\n      swap1\n      0x0100\n      exp\n      swap1\n      div\n      0xffffffffffffffffffffffffffffffffffffffff\n      and\n        /* \"@openzeppelin/contracts/access/Ownable.sol\":1703:1716  return _owner */\n      swap1\n      pop\n        /* \"@openzeppelin/contracts/access/Ownable.sol\":1638:1723  function owner() public view virtual returns (address) {... */\n      swap1\n      jump\t// out\n        /* \"contracts/TimbStaking.sol\":13752:13968  function setRewardRate(uint256 _ratePerSecond)... */\n    tag_112:\n        /* \"@openzeppelin/contracts/access/Ownable.sol\":1531:1544  _checkOwner() */\n      tag_261\n        /* \"@openzeppelin/contracts/access/Ownable.sol\":1531:1542  _checkOwner */\n      tag_182\n        /* \"@openzeppelin/contracts/access/Ownable.sol\":1531:1544  _checkOwner() */\n      jump\t// in\n    tag_261:\n        /* \"contracts/TimbStaking.sol\":13863:13864  0 */\n      0x00\n        /* \"contracts/TimbStaking.sol\":5253:5269  rewardPerToken() */\n      tag_263\n        /* \"contracts/TimbStaking.sol\":5253:5267  rewardPerToken */\n      tag_120\n        /* \"contracts/TimbStaking.sol\":5253:5269  rewardPerToken() */\n      jump\t// in\n    tag_263:\n        /* \"contracts/TimbStaking.sol\":5230:5250  rewardPerTokenStored */\n      0x05\n        /* \"contracts/TimbStaking.sol\":5230:5269  rewardPerTokenStored = rewardPerToken() */\n      dup2\n      swap1\n      sstore\n      pop\n        /* \"contracts/TimbStaking.sol\":5302:5328  lastTimeRewardApplicable() */\n      tag_264\n        /* \"contracts/TimbStaking.sol\":5302:5326  lastTimeRewardApplicable */\n      tag_92\n        /* \"contracts/TimbStaking.sol\":5302:5328  lastTimeRewardApplicable() */\n      jump\t// in\n    tag_264:\n        /* \"contracts/TimbStaking.sol\":5279:5293  lastUpdateTime */\n      0x04\n        /* \"contracts/TimbStaking.sol\":5279:5328  lastUpdateTime       = lastTimeRewardApplicable() */\n      dup2\n      swap1\n      sstore\n      pop\n        /* \"contracts/TimbStaking.sol\":5361:5362  0 */\n      0x00\n        /* \"contracts/TimbStaking.sol\":5342:5363  account != address(0) */\n      0xffffffffffffffffffffffffffffffffffffffff\n      and\n        /* \"contracts/TimbStaking.sol\":5342:5349  account */\n      dup2\n        /* \"contracts/TimbStaking.sol\":5342:5363  account != address(0) */\n      0xffffffffffffffffffffffffffffffffffffffff\n      and\n      eq\n        /* \"contracts/TimbStaking.sol\":5338:5506  if (account != address(0)) {... */\n      tag_265\n      jumpi\n        /* \"contracts/TimbStaking.sol\":5412:5427  earned(account) */\n      tag_266\n        /* \"contracts/TimbStaking.sol\":5419:5426  account */\n      dup2\n        /* \"contracts/TimbStaking.sol\":5412:5418  earned */\n      tag_44\n        /* \"contracts/TimbStaking.sol\":5412:5427  earned(account) */\n      jump\t// in\n    tag_266:\n        /* \"contracts/TimbStaking.sol\":5379:5393  pendingRewards */\n      0x09\n        /* \"contracts/TimbStaking.sol\":5379:5402  pendingRewards[account] */\n      0x00\n        /* \"contracts/TimbStaking.sol\":5394:5401  account */\n      dup4\n        /* \"contracts/TimbStaking.sol\":5379:5402  pendingRewards[account] */\n      0xffffffffffffffffffffffffffffffffffffffff\n      and\n      0xffffffffffffffffffffffffffffffffffffffff\n      and\n      dup2\n      mstore\n      0x20\n      add\n      swap1\n      dup2\n      mstore\n      0x20\n      add\n      0x00\n      keccak256\n        /* \"contracts/TimbStaking.sol\":5379:5427  pendingRewards[account]        = earned(account) */\n      dup2\n      swap1\n      sstore\n      pop\n        /* \"contracts/TimbStaking.sol\":5475:5495  rewardPerTokenStored */\n      sload(0x05)\n        /* \"contracts/TimbStaking.sol\":5441:5463  userRewardPerTokenPaid */\n      0x08\n        /* \"contracts/TimbStaking.sol\":5441:5472  userRewardPerTokenPaid[account] */\n      0x00\n        /* \"contracts/TimbStaking.sol\":5464:5471  account */\n      dup4\n        /* \"contracts/TimbStaking.sol\":5441:5472  userRewardPerTokenPaid[account] */\n      0xffffffffffffffffffffffffffffffffffffffff\n      and\n      0xffffffffffffffffffffffffffffffffffffffff\n      and\n      dup2\n      mstore\n      0x20\n      add\n      swap1\n      dup2\n      mstore\n      0x20\n      add\n      0x00\n      keccak256\n        /* \"contracts/TimbStaking.sol\":5441:5495  userRewardPerTokenPaid[account] = rewardPerTokenStored */\n      dup2\n      swap1\n      sstore\n      pop\n        /* \"contracts/TimbStaking.sol\":5338:5506  if (account != address(0)) {... */\n    tag_265:\n        /* \"contracts/TimbStaking.sol\":13903:13917  _ratePerSecond */\n      dup2\n        /* \"contracts/TimbStaking.sol\":13881:13900  rewardRatePerSecond */\n      0x02\n        /* \"contracts/TimbStaking.sol\":13881:13917  rewardRatePerSecond = _ratePerSecond */\n      dup2\n      swap1\n      sstore\n      pop\n        /* \"contracts/TimbStaking.sol\":13932:13961  RewardRateSet(_ratePerSecond) */\n      0x8cbfafc8e0d9c5c81401c4b9c6e7d201198adc7eb8f8f1556c195ecd4c0a0e7b\n        /* \"contracts/TimbStaking.sol\":13946:13960  _ratePerSecond */\n      dup3\n        /* \"contracts/TimbStaking.sol\":13932:13961  RewardRateSet(_ratePerSecond) */\n      mload(0x40)\n      tag_268\n      swap2\n      swap1\n      tag_46\n      jump\t// in\n    tag_268:\n      mload(0x40)\n      dup1\n      swap2\n      sub\n      swap1\n      log1\n        /* \"@openzeppelin/contracts/access/Ownable.sol\":1554:1555  _ */\n      pop\n        /* \"contracts/TimbStaking.sol\":13752:13968  function setRewardRate(uint256 _ratePerSecond)... */\n      pop\n      jump\t// out\n        /* \"contracts/TimbStaking.sol\":8439:8826  function stake(uint256 amount)... */\n    tag_115:\n        /* \"@openzeppelin/contracts/utils/ReentrancyGuard.sol\":3023:3044  _nonReentrantBefore() */\n      tag_270\n        /* \"@openzeppelin/contracts/utils/ReentrancyGuard.sol\":3023:3042  _nonReentrantBefore */\n      tag_154\n        /* \"@openzeppelin/contracts/utils/ReentrancyGuard.sol\":3023:3044  _nonReentrantBefore() */\n      jump\t// in\n    tag_270:\n        /* \"contracts/TimbStaking.sol\":5126:5132  paused */\n      0x0b\n      0x00\n      swap1\n      sload\n      swap1\n      0x0100\n      exp\n      swap1\n      div\n      0xff\n      and\n        /* \"contracts/TimbStaking.sol\":5122:5157  if (paused) revert ContractPaused() */\n      iszero\n      tag_272\n      jumpi\n        /* \"contracts/TimbStaking.sol\":5141:5157  ContractPaused() */\n      mload(0x40)\n      0xab35696f00000000000000000000000000000000000000000000000000000000\n      dup2\n      mstore\n      0x04\n      add\n      mload(0x40)\n      dup1\n      swap2\n      sub\n      swap1\n      revert\n        /* \"contracts/TimbStaking.sol\":5122:5157  if (paused) revert ContractPaused() */\n    tag_272:\n        /* \"contracts/TimbStaking.sol\":8551:8561  msg.sender */\n      caller\n        /* \"contracts/TimbStaking.sol\":5253:5269  rewardPerToken() */\n      tag_274\n        /* \"contracts/TimbStaking.sol\":5253:5267  rewardPerToken */\n      tag_120\n        /* \"contracts/TimbStaking.sol\":5253:5269  rewardPerToken() */\n      jump\t// in\n    tag_274:\n        /* \"contracts/TimbStaking.sol\":5230:5250  rewardPerTokenStored */\n      0x05\n        /* \"contracts/TimbStaking.sol\":5230:5269  rewardPerTokenStored = rewardPerToken() */\n      dup2\n      swap1\n      sstore\n      pop\n        /* \"contracts/TimbStaking.sol\":5302:5328  lastTimeRewardApplicable() */\n      tag_275\n        /* \"contracts/TimbStaking.sol\":5302:5326  lastTimeRewardApplicable */\n      tag_92\n        /* \"contracts/TimbStaking.sol\":5302:5328  lastTimeRewardApplicable() */\n      jump\t// in\n    tag_275:\n        /* \"contracts/TimbStaking.sol\":5279:5293  lastUpdateTime */\n      0x04\n        /* \"contracts/TimbStaking.sol\":5279:5328  lastUpdateTime       = lastTimeRewardApplicable() */\n      dup2\n      swap1\n      sstore\n      pop\n        /* \"contracts/TimbStaking.sol\":5361:5362  0 */\n      0x00\n        /* \"contracts/TimbStaking.sol\":5342:5363  account != address(0) */\n      0xffffffffffffffffffffffffffffffffffffffff\n      and\n        /* \"contracts/TimbStaking.sol\":5342:5349  account */\n      dup2\n        /* \"contracts/TimbStaking.sol\":5342:5363  account != address(0) */\n      0xffffffffffffffffffffffffffffffffffffffff\n      and\n      eq\n        /* \"contracts/TimbStaking.sol\":5338:5506  if (account != address(0)) {... */\n      tag_276\n      jumpi\n        /* \"contracts/TimbStaking.sol\":5412:5427  earned(account) */\n      tag_277\n        /* \"contracts/TimbStaking.sol\":5419:5426  account */\n      dup2\n        /* \"contracts/TimbStaking.sol\":5412:5418  earned */\n      tag_44\n        /* \"contracts/TimbStaking.sol\":5412:5427  earned(account) */\n      jump\t// in\n    tag_277:\n        /* \"contracts/TimbStaking.sol\":5379:5393  pendingRewards */\n      0x09\n        /* \"contracts/TimbStaking.sol\":5379:5402  pendingRewards[account] */\n      0x00\n        /* \"contracts/TimbStaking.sol\":5394:5401  account */\n      dup4\n        /* \"contracts/TimbStaking.sol\":5379:5402  pendingRewards[account] */\n      0xffffffffffffffffffffffffffffffffffffffff\n      and\n      0xffffffffffffffffffffffffffffffffffffffff\n      and\n      dup2\n      mstore\n      0x20\n      add\n      swap1\n      dup2\n      mstore\n      0x20\n      add\n      0x00\n      keccak256\n        /* \"contracts/TimbStaking.sol\":5379:5427  pendingRewards[account]        = earned(account) */\n      dup2\n      swap1\n      sstore\n      pop\n        /* \"contracts/TimbStaking.sol\":5475:5495  rewardPerTokenStored */\n      sload(0x05)\n        /* \"contracts/TimbStaking.sol\":5441:5463  userRewardPerTokenPaid */\n      0x08\n        /* \"contracts/TimbStaking.sol\":5441:5472  userRewardPerTokenPaid[account] */\n      0x00\n        /* \"contracts/TimbStaking.sol\":5464:5471  account */\n      dup4\n        /* \"contracts/TimbStaking.sol\":5441:5472  userRewardPerTokenPaid[account] */\n      0xffffffffffffffffffffffffffffffffffffffff\n      and\n      0xffffffffffffffffffffffffffffffffffffffff\n      and\n      dup2\n      mstore\n      0x20\n      add\n      swap1\n      dup2\n      mstore\n      0x20\n      add\n      0x00\n      keccak256\n        /* \"contracts/TimbStaking.sol\":5441:5495  userRewardPerTokenPaid[account] = rewardPerTokenStored */\n      dup2\n      swap1\n      sstore\n      pop\n        /* \"contracts/TimbStaking.sol\":5338:5506  if (account != address(0)) {... */\n    tag_276:\n        /* \"contracts/TimbStaking.sol\":8591:8592  0 */\n      0x00\n        /* \"contracts/TimbStaking.sol\":8581:8587  amount */\n      dup3\n        /* \"contracts/TimbStaking.sol\":8581:8592  amount == 0 */\n      sub\n        /* \"contracts/TimbStaking.sol\":8577:8613  if (amount == 0) revert ZeroAmount() */\n      tag_279\n      jumpi\n        /* \"contracts/TimbStaking.sol\":8601:8613  ZeroAmount() */\n      mload(0x40)\n      0x1f2a200500000000000000000000000000000000000000000000000000000000\n      dup2\n      mstore\n      0x04\n      add\n      mload(0x40)\n      dup1\n      swap2\n      sub\n      swap1\n      revert\n        /* \"contracts/TimbStaking.sol\":8577:8613  if (amount == 0) revert ZeroAmount() */\n    tag_279:\n        /* \"contracts/TimbStaking.sol\":8653:8659  amount */\n      dup2\n        /* \"contracts/TimbStaking.sol\":8624:8637  stakedBalance */\n      0x07\n        /* \"contracts/TimbStaking.sol\":8624:8649  stakedBalance[msg.sender] */\n      0x00\n        /* \"contracts/TimbStaking.sol\":8638:8648  msg.sender */\n      caller\n        /* \"contracts/TimbStaking.sol\":8624:8649  stakedBalance[msg.sender] */\n      0xffffffffffffffffffffffffffffffffffffffff\n      and\n      0xffffffffffffffffffffffffffffffffffffffff\n      and\n      dup2\n      mstore\n      0x20\n      add\n      swap1\n      dup2\n      mstore\n      0x20\n      add\n      0x00\n      keccak256\n      0x00\n        /* \"contracts/TimbStaking.sol\":8624:8659  stakedBalance[msg.sender] += amount */\n      dup3\n      dup3\n      sload\n      tag_280\n      swap2\n      swap1\n      tag_151\n      jump\t// in\n    tag_280:\n      swap3\n      pop\n      pop\n      dup2\n      swap1\n      sstore\n      pop\n        /* \"contracts/TimbStaking.sol\":8698:8704  amount */\n      dup2\n        /* \"contracts/TimbStaking.sol\":8669:8680  totalStaked */\n      0x06\n      0x00\n        /* \"contracts/TimbStaking.sol\":8669:8704  totalStaked               += amount */\n      dup3\n      dup3\n      sload\n      tag_281\n      swap2\n      swap1\n      tag_151\n      jump\t// in\n    tag_281:\n      swap3\n      pop\n      pop\n      dup2\n      swap1\n      sstore\n      pop\n        /* \"contracts/TimbStaking.sol\":8715:8777  timbsToken.safeTransferFrom(msg.sender, address(this), amount) */\n      tag_282\n        /* \"contracts/TimbStaking.sol\":8743:8753  msg.sender */\n      caller\n        /* \"contracts/TimbStaking.sol\":8763:8767  this */\n      address\n        /* \"contracts/TimbStaking.sol\":8770:8776  amount */\n      dup5\n        /* \"contracts/TimbStaking.sol\":8715:8725  timbsToken */\n      immutable(\"0x962c584afcd4dd6cb0e25fef291e59a13b9ae1b34d13f25b13a34669b807535c\")\n        /* \"contracts/TimbStaking.sol\":8715:8742  timbsToken.safeTransferFrom */\n      0xffffffffffffffffffffffffffffffffffffffff\n      and\n      tag_167\n      swap1\n        /* \"contracts/TimbStaking.sol\":8715:8777  timbsToken.safeTransferFrom(msg.sender, address(this), amount) */\n      swap4\n      swap3\n      swap2\n      swap1\n      0xffffffff\n      and\n      jump\t// in\n    tag_282:\n        /* \"contracts/TimbStaking.sol\":8800:8810  msg.sender */\n      caller\n        /* \"contracts/TimbStaking.sol\":8793:8819  Staked(msg.sender, amount) */\n      0xffffffffffffffffffffffffffffffffffffffff\n      and\n      0x9e71bc8eea02a63969f509818f2dafb9254532904319f9dbda79b67bd34a5f3d\n        /* \"contracts/TimbStaking.sol\":8812:8818  amount */\n      dup4\n        /* \"contracts/TimbStaking.sol\":8793:8819  Staked(msg.sender, amount) */\n      mload(0x40)\n      tag_283\n      swap2\n      swap1\n      tag_46\n      jump\t// in\n    tag_283:\n      mload(0x40)\n      dup1\n      swap2\n      sub\n      swap1\n      log2\n        /* \"contracts/TimbStaking.sol\":5167:5168  _ */\n      pop\n        /* \"@openzeppelin/contracts/utils/ReentrancyGuard.sol\":3065:3085  _nonReentrantAfter() */\n      tag_284\n        /* \"@openzeppelin/contracts/utils/ReentrancyGuard.sol\":3065:3083  _nonReentrantAfter */\n      tag_179\n        /* \"@openzeppelin/contracts/utils/ReentrancyGuard.sol\":3065:3085  _nonReentrantAfter() */\n      jump\t// in\n    tag_284:\n        /* \"contracts/TimbStaking.sol\":8439:8826  function stake(uint256 amount)... */\n      pop\n      jump\t// out\n        /* \"contracts/TimbStaking.sol\":2760:2789  uint256 public lastUpdateTime */\n    tag_117:\n      sload(0x04)\n      dup2\n      jump\t// out\n        /* \"contracts/TimbStaking.sol\":6794:7140  function rewardPerToken() public view returns (uint256) {... */\n    tag_120:\n        /* \"contracts/TimbStaking.sol\":6841:6848  uint256 */\n      0x00\n        /* \"contracts/TimbStaking.sol\":6879:6880  0 */\n      dup1\n        /* \"contracts/TimbStaking.sol\":6864:6875  totalStaked */\n      sload(0x06)\n        /* \"contracts/TimbStaking.sol\":6864:6880  totalStaked == 0 */\n      sub\n        /* \"contracts/TimbStaking.sol\":6860:6934  if (totalStaked == 0) {... */\n      tag_286\n      jumpi\n        /* \"contracts/TimbStaking.sol\":6903:6923  rewardPerTokenStored */\n      sload(0x05)\n        /* \"contracts/TimbStaking.sol\":6896:6923  return rewardPerTokenStored */\n      swap1\n      pop\n      jump(tag_285)\n        /* \"contracts/TimbStaking.sol\":6860:6934  if (totalStaked == 0) {... */\n    tag_286:\n        /* \"contracts/TimbStaking.sol\":7112:7123  totalStaked */\n      sload(0x06)\n        /* \"contracts/TimbStaking.sol\":7089:7093  1e18 */\n      0x0de0b6b3a7640000\n        /* \"contracts/TimbStaking.sol\":7051:7070  rewardRatePerSecond */\n      sload(0x02)\n        /* \"contracts/TimbStaking.sol\":7017:7031  lastUpdateTime */\n      sload(0x04)\n        /* \"contracts/TimbStaking.sol\":6988:7014  lastTimeRewardApplicable() */\n      tag_287\n        /* \"contracts/TimbStaking.sol\":6988:7012  lastTimeRewardApplicable */\n      tag_92\n        /* \"contracts/TimbStaking.sol\":6988:7014  lastTimeRewardApplicable() */\n      jump\t// in\n    tag_287:\n        /* \"contracts/TimbStaking.sol\":6988:7031  lastTimeRewardApplicable() - lastUpdateTime */\n      tag_288\n      swap2\n      swap1\n      tag_145\n      jump\t// in\n    tag_288:\n        /* \"contracts/TimbStaking.sol\":6987:7070  (lastTimeRewardApplicable() - lastUpdateTime)... */\n      tag_289\n      swap2\n      swap1\n      tag_147\n      jump\t// in\n    tag_289:\n        /* \"contracts/TimbStaking.sol\":6987:7093  (lastTimeRewardApplicable() - lastUpdateTime)... */\n      tag_290\n      swap2\n      swap1\n      tag_147\n      jump\t// in\n    tag_290:\n        /* \"contracts/TimbStaking.sol\":6987:7123  (lastTimeRewardApplicable() - lastUpdateTime)... */\n      tag_291\n      swap2\n      swap1\n      tag_149\n      jump\t// in\n    tag_291:\n        /* \"contracts/TimbStaking.sol\":6950:6970  rewardPerTokenStored */\n      sload(0x05)\n        /* \"contracts/TimbStaking.sol\":6950:7133  rewardPerTokenStored + (... */\n      tag_292\n      swap2\n      swap1\n      tag_151\n      jump\t// in\n    tag_292:\n        /* \"contracts/TimbStaking.sol\":6943:7133  return rewardPerTokenStored + (... */\n      swap1\n      pop\n        /* \"contracts/TimbStaking.sol\":6794:7140  function rewardPerToken() public view returns (uint256) {... */\n    tag_285:\n      swap1\n      jump\t// out\n        /* \"contracts/TimbStaking.sol\":3482:3529  mapping(address => bool) public rewardNotifiers */\n    tag_124:\n      mstore(0x20, 0x0a)\n      dup1\n      0x00\n      mstore\n      keccak256(0x00, 0x40)\n      0x00\n      swap2\n      pop\n      sload\n      swap1\n      0x0100\n      exp\n      swap1\n      div\n      0xff\n      and\n      dup2\n      jump\t// out\n        /* \"contracts/TimbStaking.sol\":15499:15954  function emergencyWithdraw() external nonReentrant {... */\n    tag_127:\n        /* \"@openzeppelin/contracts/utils/ReentrancyGuard.sol\":3023:3044  _nonReentrantBefore() */\n      tag_294\n        /* \"@openzeppelin/contracts/utils/ReentrancyGuard.sol\":3023:3042  _nonReentrantBefore */\n      tag_154\n        /* \"@openzeppelin/contracts/utils/ReentrancyGuard.sol\":3023:3044  _nonReentrantBefore() */\n      jump\t// in\n    tag_294:\n        /* \"contracts/TimbStaking.sol\":15560:15574  uint256 staked */\n      0x00\n        /* \"contracts/TimbStaking.sol\":15577:15590  stakedBalance */\n      0x07\n        /* \"contracts/TimbStaking.sol\":15577:15602  stakedBalance[msg.sender] */\n      0x00\n        /* \"contracts/TimbStaking.sol\":15591:15601  msg.sender */\n      caller\n        /* \"contracts/TimbStaking.sol\":15577:15602  stakedBalance[msg.sender] */\n      0xffffffffffffffffffffffffffffffffffffffff\n      and\n      0xffffffffffffffffffffffffffffffffffffffff\n      and\n      dup2\n      mstore\n      0x20\n      add\n      swap1\n      dup2\n      mstore\n      0x20\n      add\n      0x00\n      keccak256\n      sload\n        /* \"contracts/TimbStaking.sol\":15560:15602  uint256 staked = stakedBalance[msg.sender] */\n      swap1\n      pop\n        /* \"contracts/TimbStaking.sol\":15626:15627  0 */\n      0x00\n        /* \"contracts/TimbStaking.sol\":15616:15622  staked */\n      dup2\n        /* \"contracts/TimbStaking.sol\":15616:15627  staked == 0 */\n      sub\n        /* \"contracts/TimbStaking.sol\":15612:15648  if (staked == 0) revert ZeroAmount() */\n      tag_296\n      jumpi\n        /* \"contracts/TimbStaking.sol\":15636:15648  ZeroAmount() */\n      mload(0x40)\n      0x1f2a200500000000000000000000000000000000000000000000000000000000\n      dup2\n      mstore\n      0x04\n      add\n      mload(0x40)\n      dup1\n      swap2\n      sub\n      swap1\n      revert\n        /* \"contracts/TimbStaking.sol\":15612:15648  if (staked == 0) revert ZeroAmount() */\n    tag_296:\n        /* \"contracts/TimbStaking.sol\":15694:15695  0 */\n      0x00\n        /* \"contracts/TimbStaking.sol\":15659:15672  stakedBalance */\n      0x07\n        /* \"contracts/TimbStaking.sol\":15659:15684  stakedBalance[msg.sender] */\n      0x00\n        /* \"contracts/TimbStaking.sol\":15673:15683  msg.sender */\n      caller\n        /* \"contracts/TimbStaking.sol\":15659:15684  stakedBalance[msg.sender] */\n      0xffffffffffffffffffffffffffffffffffffffff\n      and\n      0xffffffffffffffffffffffffffffffffffffffff\n      and\n      dup2\n      mstore\n      0x20\n      add\n      swap1\n      dup2\n      mstore\n      0x20\n      add\n      0x00\n      keccak256\n        /* \"contracts/TimbStaking.sol\":15659:15695  stakedBalance[msg.sender]        = 0 */\n      dup2\n      swap1\n      sstore\n      pop\n        /* \"contracts/TimbStaking.sol\":15740:15741  0 */\n      0x00\n        /* \"contracts/TimbStaking.sol\":15705:15719  pendingRewards */\n      0x09\n        /* \"contracts/TimbStaking.sol\":15705:15731  pendingRewards[msg.sender] */\n      0x00\n        /* \"contracts/TimbStaking.sol\":15720:15730  msg.sender */\n      caller\n        /* \"contracts/TimbStaking.sol\":15705:15731  pendingRewards[msg.sender] */\n      0xffffffffffffffffffffffffffffffffffffffff\n      and\n      0xffffffffffffffffffffffffffffffffffffffff\n      and\n      dup2\n      mstore\n      0x20\n      add\n      swap1\n      dup2\n      mstore\n      0x20\n      add\n      0x00\n      keccak256\n        /* \"contracts/TimbStaking.sol\":15705:15741  pendingRewards[msg.sender]       = 0 */\n      dup2\n      swap1\n      sstore\n      pop\n        /* \"contracts/TimbStaking.sol\":15788:15789  0 */\n      0x00\n        /* \"contracts/TimbStaking.sol\":15751:15773  userRewardPerTokenPaid */\n      0x08\n        /* \"contracts/TimbStaking.sol\":15751:15785  userRewardPerTokenPaid[msg.sender] */\n      0x00\n        /* \"contracts/TimbStaking.sol\":15774:15784  msg.sender */\n      caller\n        /* \"contracts/TimbStaking.sol\":15751:15785  userRewardPerTokenPaid[msg.sender] */\n      0xffffffffffffffffffffffffffffffffffffffff\n      and\n      0xffffffffffffffffffffffffffffffffffffffff\n      and\n      dup2\n      mstore\n      0x20\n      add\n      swap1\n      dup2\n      mstore\n      0x20\n      add\n      0x00\n      keccak256\n        /* \"contracts/TimbStaking.sol\":15751:15789  userRewardPerTokenPaid[msg.sender] = 0 */\n      dup2\n      swap1\n      sstore\n      pop\n        /* \"contracts/TimbStaking.sol\":15835:15841  staked */\n      dup1\n        /* \"contracts/TimbStaking.sol\":15799:15810  totalStaked */\n      0x06\n      0x00\n        /* \"contracts/TimbStaking.sol\":15799:15841  totalStaked                      -= staked */\n      dup3\n      dup3\n      sload\n      tag_297\n      swap2\n      swap1\n      tag_145\n      jump\t// in\n    tag_297:\n      swap3\n      pop\n      pop\n      dup2\n      swap1\n      sstore\n      pop\n        /* \"contracts/TimbStaking.sol\":15852:15895  timbsToken.safeTransfer(msg.sender, staked) */\n      tag_298\n        /* \"contracts/TimbStaking.sol\":15876:15886  msg.sender */\n      caller\n        /* \"contracts/TimbStaking.sol\":15888:15894  staked */\n      dup3\n        /* \"contracts/TimbStaking.sol\":15852:15862  timbsToken */\n      immutable(\"0x962c584afcd4dd6cb0e25fef291e59a13b9ae1b34d13f25b13a34669b807535c\")\n        /* \"contracts/TimbStaking.sol\":15852:15875  timbsToken.safeTransfer */\n      0xffffffffffffffffffffffffffffffffffffffff\n      and\n      tag_202\n      swap1\n        /* \"contracts/TimbStaking.sol\":15852:15895  timbsToken.safeTransfer(msg.sender, staked) */\n      swap3\n      swap2\n      swap1\n      0xffffffff\n      and\n      jump\t// in\n    tag_298:\n        /* \"contracts/TimbStaking.sol\":15928:15938  msg.sender */\n      caller\n        /* \"contracts/TimbStaking.sol\":15910:15947  EmergencyWithdraw(msg.sender, staked) */\n      0xffffffffffffffffffffffffffffffffffffffff\n      and\n      0x5fafa99d0643513820be26656b45130b01e1c03062e1266bf36f88cbd3bd9695\n        /* \"contracts/TimbStaking.sol\":15940:15946  staked */\n      dup3\n        /* \"contracts/TimbStaking.sol\":15910:15947  EmergencyWithdraw(msg.sender, staked) */\n      mload(0x40)\n      tag_299\n      swap2\n      swap1\n      tag_46\n      jump\t// in\n    tag_299:\n      mload(0x40)\n      dup1\n      swap2\n      sub\n      swap1\n      log2\n        /* \"contracts/TimbStaking.sol\":15550:15954  {... */\n      pop\n        /* \"@openzeppelin/contracts/utils/ReentrancyGuard.sol\":3065:3085  _nonReentrantAfter() */\n      tag_300\n        /* \"@openzeppelin/contracts/utils/ReentrancyGuard.sol\":3065:3083  _nonReentrantAfter */\n      tag_179\n        /* \"@openzeppelin/contracts/utils/ReentrancyGuard.sol\":3065:3085  _nonReentrantAfter() */\n      jump\t// in\n    tag_300:\n        /* \"contracts/TimbStaking.sol\":15499:15954  function emergencyWithdraw() external nonReentrant {... */\n      jump\t// out\n        /* \"contracts/TimbStaking.sol\":2879:2914  uint256 public rewardPerTokenStored */\n    tag_129:\n      sload(0x05)\n      dup2\n      jump\t// out\n        /* \"contracts/TimbStaking.sol\":11003:11896  function exit()... */\n    tag_132:\n        /* \"@openzeppelin/contracts/utils/ReentrancyGuard.sol\":3023:3044  _nonReentrantBefore() */\n      tag_302\n        /* \"@openzeppelin/contracts/utils/ReentrancyGuard.sol\":3023:3042  _nonReentrantBefore */\n      tag_154\n        /* \"@openzeppelin/contracts/utils/ReentrancyGuard.sol\":3023:3044  _nonReentrantBefore() */\n      jump\t// in\n    tag_302:\n        /* \"contracts/TimbStaking.sol\":5126:5132  paused */\n      0x0b\n      0x00\n      swap1\n      sload\n      swap1\n      0x0100\n      exp\n      swap1\n      div\n      0xff\n      and\n        /* \"contracts/TimbStaking.sol\":5122:5157  if (paused) revert ContractPaused() */\n      iszero\n      tag_304\n      jumpi\n        /* \"contracts/TimbStaking.sol\":5141:5157  ContractPaused() */\n      mload(0x40)\n      0xab35696f00000000000000000000000000000000000000000000000000000000\n      dup2\n      mstore\n      0x04\n      add\n      mload(0x40)\n      dup1\n      swap2\n      sub\n      swap1\n      revert\n        /* \"contracts/TimbStaking.sol\":5122:5157  if (paused) revert ContractPaused() */\n    tag_304:\n        /* \"contracts/TimbStaking.sol\":11100:11110  msg.sender */\n      caller\n        /* \"contracts/TimbStaking.sol\":5253:5269  rewardPerToken() */\n      tag_306\n        /* \"contracts/TimbStaking.sol\":5253:5267  rewardPerToken */\n      tag_120\n        /* \"contracts/TimbStaking.sol\":5253:5269  rewardPerToken() */\n      jump\t// in\n    tag_306:\n        /* \"contracts/TimbStaking.sol\":5230:5250  rewardPerTokenStored */\n      0x05\n        /* \"contracts/TimbStaking.sol\":5230:5269  rewardPerTokenStored = rewardPerToken() */\n      dup2\n      swap1\n      sstore\n      pop\n        /* \"contracts/TimbStaking.sol\":5302:5328  lastTimeRewardApplicable() */\n      tag_307\n        /* \"contracts/TimbStaking.sol\":5302:5326  lastTimeRewardApplicable */\n      tag_92\n        /* \"contracts/TimbStaking.sol\":5302:5328  lastTimeRewardApplicable() */\n      jump\t// in\n    tag_307:\n        /* \"contracts/TimbStaking.sol\":5279:5293  lastUpdateTime */\n      0x04\n        /* \"contracts/TimbStaking.sol\":5279:5328  lastUpdateTime       = lastTimeRewardApplicable() */\n      dup2\n      swap1\n      sstore\n      pop\n        /* \"contracts/TimbStaking.sol\":5361:5362  0 */\n      0x00\n        /* \"contracts/TimbStaking.sol\":5342:5363  account != address(0) */\n      0xffffffffffffffffffffffffffffffffffffffff\n      and\n        /* \"contracts/TimbStaking.sol\":5342:5349  account */\n      dup2\n        /* \"contracts/TimbStaking.sol\":5342:5363  account != address(0) */\n      0xffffffffffffffffffffffffffffffffffffffff\n      and\n      eq\n        /* \"contracts/TimbStaking.sol\":5338:5506  if (account != address(0)) {... */\n      tag_308\n      jumpi\n        /* \"contracts/TimbStaking.sol\":5412:5427  earned(account) */\n      tag_309\n        /* \"contracts/TimbStaking.sol\":5419:5426  account */\n      dup2\n        /* \"contracts/TimbStaking.sol\":5412:5418  earned */\n      tag_44\n        /* \"contracts/TimbStaking.sol\":5412:5427  earned(account) */\n      jump\t// in\n    tag_309:\n        /* \"contracts/TimbStaking.sol\":5379:5393  pendingRewards */\n      0x09\n        /* \"contracts/TimbStaking.sol\":5379:5402  pendingRewards[account] */\n      0x00\n        /* \"contracts/TimbStaking.sol\":5394:5401  account */\n      dup4\n        /* \"contracts/TimbStaking.sol\":5379:5402  pendingRewards[account] */\n      0xffffffffffffffffffffffffffffffffffffffff\n      and\n      0xffffffffffffffffffffffffffffffffffffffff\n      and\n      dup2\n      mstore\n      0x20\n      add\n      swap1\n      dup2\n      mstore\n      0x20\n      add\n      0x00\n      keccak256\n        /* \"contracts/TimbStaking.sol\":5379:5427  pendingRewards[account]        = earned(account) */\n      dup2\n      swap1\n      sstore\n      pop\n        /* \"contracts/TimbStaking.sol\":5475:5495  rewardPerTokenStored */\n      sload(0x05)\n        /* \"contracts/TimbStaking.sol\":5441:5463  userRewardPerTokenPaid */\n      0x08\n        /* \"contracts/TimbStaking.sol\":5441:5472  userRewardPerTokenPaid[account] */\n      0x00\n        /* \"contracts/TimbStaking.sol\":5464:5471  account */\n      dup4\n        /* \"contracts/TimbStaking.sol\":5441:5472  userRewardPerTokenPaid[account] */\n      0xffffffffffffffffffffffffffffffffffffffff\n      and\n      0xffffffffffffffffffffffffffffffffffffffff\n      and\n      dup2\n      mstore\n      0x20\n      add\n      swap1\n      dup2\n      mstore\n      0x20\n      add\n      0x00\n      keccak256\n        /* \"contracts/TimbStaking.sol\":5441:5495  userRewardPerTokenPaid[account] = rewardPerTokenStored */\n      dup2\n      swap1\n      sstore\n      pop\n        /* \"contracts/TimbStaking.sol\":5338:5506  if (account != address(0)) {... */\n    tag_308:\n        /* \"contracts/TimbStaking.sol\":11126:11140  uint256 staked */\n      0x00\n        /* \"contracts/TimbStaking.sol\":11143:11156  stakedBalance */\n      0x07\n        /* \"contracts/TimbStaking.sol\":11143:11168  stakedBalance[msg.sender] */\n      0x00\n        /* \"contracts/TimbStaking.sol\":11157:11167  msg.sender */\n      caller\n        /* \"contracts/TimbStaking.sol\":11143:11168  stakedBalance[msg.sender] */\n      0xffffffffffffffffffffffffffffffffffffffff\n      and\n      0xffffffffffffffffffffffffffffffffffffffff\n      and\n      dup2\n      mstore\n      0x20\n      add\n      swap1\n      dup2\n      mstore\n      0x20\n      add\n      0x00\n      keccak256\n      sload\n        /* \"contracts/TimbStaking.sol\":11126:11168  uint256 staked = stakedBalance[msg.sender] */\n      swap1\n      pop\n        /* \"contracts/TimbStaking.sol\":11178:11192  uint256 reward */\n      0x00\n        /* \"contracts/TimbStaking.sol\":11195:11209  pendingRewards */\n      0x09\n        /* \"contracts/TimbStaking.sol\":11195:11221  pendingRewards[msg.sender] */\n      0x00\n        /* \"contracts/TimbStaking.sol\":11210:11220  msg.sender */\n      caller\n        /* \"contracts/TimbStaking.sol\":11195:11221  pendingRewards[msg.sender] */\n      0xffffffffffffffffffffffffffffffffffffffff\n      and\n      0xffffffffffffffffffffffffffffffffffffffff\n      and\n      dup2\n      mstore\n      0x20\n      add\n      swap1\n      dup2\n      mstore\n      0x20\n      add\n      0x00\n      keccak256\n      sload\n        /* \"contracts/TimbStaking.sol\":11178:11221  uint256 reward = pendingRewards[msg.sender] */\n      swap1\n      pop\n        /* \"contracts/TimbStaking.sol\":11245:11246  0 */\n      0x00\n        /* \"contracts/TimbStaking.sol\":11236:11242  staked */\n      dup3\n        /* \"contracts/TimbStaking.sol\":11236:11246  staked > 0 */\n      gt\n        /* \"contracts/TimbStaking.sol\":11232:11454  if (staked > 0) {... */\n      iszero\n      tag_311\n      jumpi\n        /* \"contracts/TimbStaking.sol\":11290:11291  0 */\n      0x00\n        /* \"contracts/TimbStaking.sol\":11262:11275  stakedBalance */\n      0x07\n        /* \"contracts/TimbStaking.sol\":11262:11287  stakedBalance[msg.sender] */\n      0x00\n        /* \"contracts/TimbStaking.sol\":11276:11286  msg.sender */\n      caller\n        /* \"contracts/TimbStaking.sol\":11262:11287  stakedBalance[msg.sender] */\n      0xffffffffffffffffffffffffffffffffffffffff\n      and\n      0xffffffffffffffffffffffffffffffffffffffff\n      and\n      dup2\n      mstore\n      0x20\n      add\n      swap1\n      dup2\n      mstore\n      0x20\n      add\n      0x00\n      keccak256\n        /* \"contracts/TimbStaking.sol\":11262:11291  stakedBalance[msg.sender] = 0 */\n      dup2\n      swap1\n      sstore\n      pop\n        /* \"contracts/TimbStaking.sol\":11333:11339  staked */\n      dup2\n        /* \"contracts/TimbStaking.sol\":11305:11316  totalStaked */\n      0x06\n      0x00\n        /* \"contracts/TimbStaking.sol\":11305:11339  totalStaked              -= staked */\n      dup3\n      dup3\n      sload\n      tag_312\n      swap2\n      swap1\n      tag_145\n      jump\t// in\n    tag_312:\n      swap3\n      pop\n      pop\n      dup2\n      swap1\n      sstore\n      pop\n        /* \"contracts/TimbStaking.sol\":11353:11396  timbsToken.safeTransfer(msg.sender, staked) */\n      tag_313\n        /* \"contracts/TimbStaking.sol\":11377:11387  msg.sender */\n      caller\n        /* \"contracts/TimbStaking.sol\":11389:11395  staked */\n      dup4\n        /* \"contracts/TimbStaking.sol\":11353:11363  timbsToken */\n      immutable(\"0x962c584afcd4dd6cb0e25fef291e59a13b9ae1b34d13f25b13a34669b807535c\")\n        /* \"contracts/TimbStaking.sol\":11353:11376  timbsToken.safeTransfer */\n      0xffffffffffffffffffffffffffffffffffffffff\n      and\n      tag_202\n      swap1\n        /* \"contracts/TimbStaking.sol\":11353:11396  timbsToken.safeTransfer(msg.sender, staked) */\n      swap3\n      swap2\n      swap1\n      0xffffffff\n      and\n      jump\t// in\n    tag_313:\n        /* \"contracts/TimbStaking.sol\":11424:11434  msg.sender */\n      caller\n        /* \"contracts/TimbStaking.sol\":11415:11443  Unstaked(msg.sender, staked) */\n      0xffffffffffffffffffffffffffffffffffffffff\n      and\n      0x0f5bb82176feb1b5e747e28471aa92156a04d9f3ab9f45f28e2d704232b93f75\n        /* \"contracts/TimbStaking.sol\":11436:11442  staked */\n      dup4\n        /* \"contracts/TimbStaking.sol\":11415:11443  Unstaked(msg.sender, staked) */\n      mload(0x40)\n      tag_314\n      swap2\n      swap1\n      tag_46\n      jump\t// in\n    tag_314:\n      mload(0x40)\n      dup1\n      swap2\n      sub\n      swap1\n      log2\n        /* \"contracts/TimbStaking.sol\":11232:11454  if (staked > 0) {... */\n    tag_311:\n        /* \"contracts/TimbStaking.sol\":11477:11478  0 */\n      0x00\n        /* \"contracts/TimbStaking.sol\":11468:11474  reward */\n      dup2\n        /* \"contracts/TimbStaking.sol\":11468:11478  reward > 0 */\n      gt\n        /* \"contracts/TimbStaking.sol\":11464:11890  if (reward > 0) {... */\n      iszero\n      tag_315\n      jumpi\n        /* \"contracts/TimbStaking.sol\":11494:11517  uint256 contractBalance */\n      0x00\n        /* \"contracts/TimbStaking.sol\":11558:11569  totalStaked */\n      sload(0x06)\n        /* \"contracts/TimbStaking.sol\":11520:11530  timbsToken */\n      immutable(\"0x962c584afcd4dd6cb0e25fef291e59a13b9ae1b34d13f25b13a34669b807535c\")\n        /* \"contracts/TimbStaking.sol\":11520:11540  timbsToken.balanceOf */\n      0xffffffffffffffffffffffffffffffffffffffff\n      and\n      0x70a08231\n        /* \"contracts/TimbStaking.sol\":11549:11553  this */\n      address\n        /* \"contracts/TimbStaking.sol\":11520:11555  timbsToken.balanceOf(address(this)) */\n      mload(0x40)\n      dup3\n      0xffffffff\n      and\n      0xe0\n      shl\n      dup2\n      mstore\n      0x04\n      add\n      tag_316\n      swap2\n      swap1\n      tag_88\n      jump\t// in\n    tag_316:\n      0x20\n      mload(0x40)\n      dup1\n      dup4\n      sub\n      dup2\n      dup7\n      gas\n      staticcall\n      iszero\n      dup1\n      iszero\n      tag_318\n      jumpi\n      returndatasize\n      0x00\n      dup1\n      returndatacopy\n      revert(0x00, returndatasize)\n    tag_318:\n      pop\n      pop\n      pop\n      pop\n      mload(0x40)\n      returndatasize\n      not(0x1f)\n      0x1f\n      dup3\n      add\n      and\n      dup3\n      add\n      dup1\n      0x40\n      mstore\n      pop\n      dup2\n      add\n      swap1\n      tag_319\n      swap2\n      swap1\n      tag_220\n      jump\t// in\n    tag_319:\n        /* \"contracts/TimbStaking.sol\":11520:11569  timbsToken.balanceOf(address(this)) - totalStaked */\n      tag_320\n      swap2\n      swap1\n      tag_145\n      jump\t// in\n    tag_320:\n        /* \"contracts/TimbStaking.sol\":11494:11569  uint256 contractBalance = timbsToken.balanceOf(address(this)) - totalStaked */\n      swap1\n      pop\n        /* \"contracts/TimbStaking.sol\":11597:11612  contractBalance */\n      dup1\n        /* \"contracts/TimbStaking.sol\":11587:11593  reward */\n      dup3\n        /* \"contracts/TimbStaking.sol\":11587:11612  reward <= contractBalance */\n      gt\n        /* \"contracts/TimbStaking.sol\":11583:11795  if (reward <= contractBalance) {... */\n      tag_321\n      jumpi\n        /* \"contracts/TimbStaking.sol\":11661:11662  0 */\n      0x00\n        /* \"contracts/TimbStaking.sol\":11632:11646  pendingRewards */\n      0x09\n        /* \"contracts/TimbStaking.sol\":11632:11658  pendingRewards[msg.sender] */\n      0x00\n        /* \"contracts/TimbStaking.sol\":11647:11657  msg.sender */\n      caller\n        /* \"contracts/TimbStaking.sol\":11632:11658  pendingRewards[msg.sender] */\n      0xffffffffffffffffffffffffffffffffffffffff\n      and\n      0xffffffffffffffffffffffffffffffffffffffff\n      and\n      dup2\n      mstore\n      0x20\n      add\n      swap1\n      dup2\n      mstore\n      0x20\n      add\n      0x00\n      keccak256\n        /* \"contracts/TimbStaking.sol\":11632:11662  pendingRewards[msg.sender] = 0 */\n      dup2\n      swap1\n      sstore\n      pop\n        /* \"contracts/TimbStaking.sol\":11680:11723  timbsToken.safeTransfer(msg.sender, reward) */\n      tag_322\n        /* \"contracts/TimbStaking.sol\":11704:11714  msg.sender */\n      caller\n        /* \"contracts/TimbStaking.sol\":11716:11722  reward */\n      dup4\n        /* \"contracts/TimbStaking.sol\":11680:11690  timbsToken */\n      immutable(\"0x962c584afcd4dd6cb0e25fef291e59a13b9ae1b34d13f25b13a34669b807535c\")\n        /* \"contracts/TimbStaking.sol\":11680:11703  timbsToken.safeTransfer */\n      0xffffffffffffffffffffffffffffffffffffffff\n      and\n      tag_202\n      swap1\n        /* \"contracts/TimbStaking.sol\":11680:11723  timbsToken.safeTransfer(msg.sender, reward) */\n      swap3\n      swap2\n      swap1\n      0xffffffff\n      and\n      jump\t// in\n    tag_322:\n        /* \"contracts/TimbStaking.sol\":11761:11771  msg.sender */\n      caller\n        /* \"contracts/TimbStaking.sol\":11746:11780  RewardsClaimed(msg.sender, reward) */\n      0xffffffffffffffffffffffffffffffffffffffff\n      and\n      0xfc30cddea38e2bf4d6ea7d3f9ed3b6ad7f176419f4963bd81318067a4aee73fe\n        /* \"contracts/TimbStaking.sol\":11773:11779  reward */\n      dup4\n        /* \"contracts/TimbStaking.sol\":11746:11780  RewardsClaimed(msg.sender, reward) */\n      mload(0x40)\n      tag_323\n      swap2\n      swap1\n      tag_46\n      jump\t// in\n    tag_323:\n      mload(0x40)\n      dup1\n      swap2\n      sub\n      swap1\n      log2\n        /* \"contracts/TimbStaking.sol\":11583:11795  if (reward <= contractBalance) {... */\n    tag_321:\n        /* \"contracts/TimbStaking.sol\":11480:11890  {... */\n      pop\n        /* \"contracts/TimbStaking.sol\":11464:11890  if (reward > 0) {... */\n    tag_315:\n        /* \"contracts/TimbStaking.sol\":11116:11896  {... */\n      pop\n      pop\n        /* \"contracts/TimbStaking.sol\":5167:5168  _ */\n      pop\n        /* \"@openzeppelin/contracts/utils/ReentrancyGuard.sol\":3065:3085  _nonReentrantAfter() */\n      tag_324\n        /* \"@openzeppelin/contracts/utils/ReentrancyGuard.sol\":3065:3083  _nonReentrantAfter */\n      tag_179\n        /* \"@openzeppelin/contracts/utils/ReentrancyGuard.sol\":3065:3085  _nonReentrantAfter() */\n      jump\t// in\n    tag_324:\n        /* \"contracts/TimbStaking.sol\":11003:11896  function exit()... */\n      jump\t// out\n        /* \"contracts/TimbStaking.sol\":2661:2688  uint256 public periodFinish */\n    tag_134:\n      sload(0x03)\n      dup2\n      jump\t// out\n        /* \"contracts/TimbStaking.sol\":14270:14668  function setTreasury(address _treasury) external onlyOwner {... */\n    tag_138:\n        /* \"@openzeppelin/contracts/access/Ownable.sol\":1531:1544  _checkOwner() */\n      tag_326\n        /* \"@openzeppelin/contracts/access/Ownable.sol\":1531:1542  _checkOwner */\n      tag_182\n        /* \"@openzeppelin/contracts/access/Ownable.sol\":1531:1544  _checkOwner() */\n      jump\t// in\n    tag_326:\n        /* \"contracts/TimbStaking.sol\":14364:14365  0 */\n      0x00\n        /* \"contracts/TimbStaking.sol\":14343:14366  _treasury == address(0) */\n      0xffffffffffffffffffffffffffffffffffffffff\n      and\n        /* \"contracts/TimbStaking.sol\":14343:14352  _treasury */\n      dup2\n        /* \"contracts/TimbStaking.sol\":14343:14366  _treasury == address(0) */\n      0xffffffffffffffffffffffffffffffffffffffff\n      and\n      sub\n        /* \"contracts/TimbStaking.sol\":14339:14388  if (_treasury == address(0)) revert ZeroAddress() */\n      tag_328\n      jumpi\n        /* \"contracts/TimbStaking.sol\":14375:14388  ZeroAddress() */\n      mload(0x40)\n      0xd92e233d00000000000000000000000000000000000000000000000000000000\n      dup2\n      mstore\n      0x04\n      add\n      mload(0x40)\n      dup1\n      swap2\n      sub\n      swap1\n      revert\n        /* \"contracts/TimbStaking.sol\":14339:14388  if (_treasury == address(0)) revert ZeroAddress() */\n    tag_328:\n        /* \"contracts/TimbStaking.sol\":14465:14466  0 */\n      0x00\n        /* \"contracts/TimbStaking.sol\":14445:14467  treasury != address(0) */\n      0xffffffffffffffffffffffffffffffffffffffff\n      and\n        /* \"contracts/TimbStaking.sol\":14445:14453  treasury */\n      0x01\n      0x00\n      swap1\n      sload\n      swap1\n      0x0100\n      exp\n      swap1\n      div\n      0xffffffffffffffffffffffffffffffffffffffff\n      and\n        /* \"contracts/TimbStaking.sol\":14445:14467  treasury != address(0) */\n      0xffffffffffffffffffffffffffffffffffffffff\n      and\n      eq\n        /* \"contracts/TimbStaking.sol\":14441:14502  if (treasury != address(0)) rewardNotifiers[treasury] = false */\n      tag_329\n      jumpi\n        /* \"contracts/TimbStaking.sol\":14497:14502  false */\n      0x00\n        /* \"contracts/TimbStaking.sol\":14469:14484  rewardNotifiers */\n      0x0a\n        /* \"contracts/TimbStaking.sol\":14469:14494  rewardNotifiers[treasury] */\n      0x00\n        /* \"contracts/TimbStaking.sol\":14485:14493  treasury */\n      0x01\n      0x00\n      swap1\n      sload\n      swap1\n      0x0100\n      exp\n      swap1\n      div\n      0xffffffffffffffffffffffffffffffffffffffff\n      and\n        /* \"contracts/TimbStaking.sol\":14469:14494  rewardNotifiers[treasury] */\n      0xffffffffffffffffffffffffffffffffffffffff\n      and\n      0xffffffffffffffffffffffffffffffffffffffff\n      and\n      dup2\n      mstore\n      0x20\n      add\n      swap1\n      dup2\n      mstore\n      0x20\n      add\n      0x00\n      keccak256\n      0x00\n        /* \"contracts/TimbStaking.sol\":14469:14502  rewardNotifiers[treasury] = false */\n      0x0100\n      exp\n      dup2\n      sload\n      dup2\n      0xff\n      mul\n      not\n      and\n      swap1\n      dup4\n      iszero\n      iszero\n      mul\n      or\n      swap1\n      sstore\n      pop\n        /* \"contracts/TimbStaking.sol\":14441:14502  if (treasury != address(0)) rewardNotifiers[treasury] = false */\n    tag_329:\n        /* \"contracts/TimbStaking.sol\":14523:14532  _treasury */\n      dup1\n        /* \"contracts/TimbStaking.sol\":14512:14520  treasury */\n      0x01\n      0x00\n        /* \"contracts/TimbStaking.sol\":14512:14532  treasury = _treasury */\n      0x0100\n      exp\n      dup2\n      sload\n      dup2\n      0xffffffffffffffffffffffffffffffffffffffff\n      mul\n      not\n      and\n      swap1\n      dup4\n      0xffffffffffffffffffffffffffffffffffffffff\n      and\n      mul\n      or\n      swap1\n      sstore\n      pop\n        /* \"contracts/TimbStaking.sol\":14571:14575  true */\n      0x01\n        /* \"contracts/TimbStaking.sol\":14542:14557  rewardNotifiers */\n      0x0a\n        /* \"contracts/TimbStaking.sol\":14542:14568  rewardNotifiers[_treasury] */\n      0x00\n        /* \"contracts/TimbStaking.sol\":14558:14567  _treasury */\n      dup4\n        /* \"contracts/TimbStaking.sol\":14542:14568  rewardNotifiers[_treasury] */\n      0xffffffffffffffffffffffffffffffffffffffff\n      and\n      0xffffffffffffffffffffffffffffffffffffffff\n      and\n      dup2\n      mstore\n      0x20\n      add\n      swap1\n      dup2\n      mstore\n      0x20\n      add\n      0x00\n      keccak256\n      0x00\n        /* \"contracts/TimbStaking.sol\":14542:14575  rewardNotifiers[_treasury] = true */\n      0x0100\n      exp\n      dup2\n      sload\n      dup2\n      0xff\n      mul\n      not\n      and\n      swap1\n      dup4\n      iszero\n      iszero\n      mul\n      or\n      swap1\n      sstore\n      pop\n        /* \"contracts/TimbStaking.sol\":14602:14611  _treasury */\n      dup1\n        /* \"contracts/TimbStaking.sol\":14590:14612  TreasurySet(_treasury) */\n      0xffffffffffffffffffffffffffffffffffffffff\n      and\n      0x3c864541ef71378c6229510ed90f376565ee42d9c5e0904a984a9e863e6db44f\n      mload(0x40)\n      mload(0x40)\n      dup1\n      swap2\n      sub\n      swap1\n      log2\n        /* \"contracts/TimbStaking.sol\":14645:14654  _treasury */\n      dup1\n        /* \"contracts/TimbStaking.sol\":14627:14661  RewardNotifierSet(_treasury, true) */\n      0xffffffffffffffffffffffffffffffffffffffff\n      and\n      0xb33ca1dabfb28a2e1bd06b332c396b1a3d538278691341a5503bbad53f919197\n        /* \"contracts/TimbStaking.sol\":14656:14660  true */\n      0x01\n        /* \"contracts/TimbStaking.sol\":14627:14661  RewardNotifierSet(_treasury, true) */\n      mload(0x40)\n      tag_330\n      swap2\n      swap1\n      tag_77\n      jump\t// in\n    tag_330:\n      mload(0x40)\n      dup1\n      swap2\n      sub\n      swap1\n      log2\n        /* \"contracts/TimbStaking.sol\":14270:14668  function setTreasury(address _treasury) external onlyOwner {... */\n      pop\n      jump\t// out\n        /* \"@openzeppelin/contracts/access/Ownable.sol\":2543:2758  function transferOwnership(address newOwner) public virtual onlyOwner {... */\n    tag_141:\n        /* \"@openzeppelin/contracts/access/Ownable.sol\":1531:1544  _checkOwner() */\n      tag_332\n        /* \"@openzeppelin/contracts/access/Ownable.sol\":1531:1542  _checkOwner */\n      tag_182\n        /* \"@openzeppelin/contracts/access/Ownable.sol\":1531:1544  _checkOwner() */\n      jump\t// in\n    tag_332:\n        /* \"@openzeppelin/contracts/access/Ownable.sol\":2647:2648  0 */\n      0x00\n        /* \"@openzeppelin/contracts/access/Ownable.sol\":2627:2649  newOwner == address(0) */\n      0xffffffffffffffffffffffffffffffffffffffff\n      and\n        /* \"@openzeppelin/contracts/access/Ownable.sol\":2627:2635  newOwner */\n      dup2\n        /* \"@openzeppelin/contracts/access/Ownable.sol\":2627:2649  newOwner == address(0) */\n      0xffffffffffffffffffffffffffffffffffffffff\n      and\n      sub\n        /* \"@openzeppelin/contracts/access/Ownable.sol\":2623:2714  if (newOwner == address(0)) {... */\n      tag_334\n      jumpi\n        /* \"@openzeppelin/contracts/access/Ownable.sol\":2700:2701  0 */\n      0x00\n        /* \"@openzeppelin/contracts/access/Ownable.sol\":2672:2703  OwnableInvalidOwner(address(0)) */\n      mload(0x40)\n      0x1e4fbdf700000000000000000000000000000000000000000000000000000000\n      dup2\n      mstore\n      0x04\n      add\n      tag_335\n      swap2\n      swap1\n      tag_88\n      jump\t// in\n    tag_335:\n      mload(0x40)\n      dup1\n      swap2\n      sub\n      swap1\n      revert\n        /* \"@openzeppelin/contracts/access/Ownable.sol\":2623:2714  if (newOwner == address(0)) {... */\n    tag_334:\n        /* \"@openzeppelin/contracts/access/Ownable.sol\":2723:2751  _transferOwnership(newOwner) */\n      tag_336\n        /* \"@openzeppelin/contracts/access/Ownable.sol\":2742:2750  newOwner */\n      dup2\n        /* \"@openzeppelin/contracts/access/Ownable.sol\":2723:2741  _transferOwnership */\n      tag_239\n        /* \"@openzeppelin/contracts/access/Ownable.sol\":2723:2751  _transferOwnership(newOwner) */\n      jump\t// in\n    tag_336:\n        /* \"@openzeppelin/contracts/access/Ownable.sol\":2543:2758  function transferOwnership(address newOwner) public virtual onlyOwner {... */\n      pop\n      jump\t// out\n        /* \"@openzeppelin/contracts/utils/ReentrancyGuard.sol\":3749:4041  function _nonReentrantBefore() private {... */\n    tag_154:\n        /* \"@openzeppelin/contracts/utils/ReentrancyGuard.sol\":3872:3897  _nonReentrantBeforeView() */\n      tag_338\n        /* \"@openzeppelin/contracts/utils/ReentrancyGuard.sol\":3872:3895  _nonReentrantBeforeView */\n      tag_339\n        /* \"@openzeppelin/contracts/utils/ReentrancyGuard.sol\":3872:3897  _nonReentrantBeforeView() */\n      jump\t// in\n    tag_338:\n        /* \"@openzeppelin/contracts/utils/ReentrancyGuard.sol\":2407:2408  2 */\n      0x02\n        /* \"@openzeppelin/contracts/utils/ReentrancyGuard.sol\":3972:4018  _reentrancyGuardStorageSlot().getUint256Slot() */\n      tag_340\n        /* \"@openzeppelin/contracts/utils/ReentrancyGuard.sol\":3972:4001  _reentrancyGuardStorageSlot() */\n      tag_341\n        /* \"@openzeppelin/contracts/utils/ReentrancyGuard.sol\":3972:3999  _reentrancyGuardStorageSlot */\n      tag_342\n        /* \"@openzeppelin/contracts/utils/ReentrancyGuard.sol\":3972:4001  _reentrancyGuardStorageSlot() */\n      jump\t// in\n    tag_341:\n        /* \"@openzeppelin/contracts/utils/ReentrancyGuard.sol\":3972:4016  _reentrancyGuardStorageSlot().getUint256Slot */\n      tag_343\n        /* \"@openzeppelin/contracts/utils/ReentrancyGuard.sol\":3972:4018  _reentrancyGuardStorageSlot().getUint256Slot() */\n      jump\t// in\n    tag_340:\n        /* \"@openzeppelin/contracts/utils/ReentrancyGuard.sol\":3972:4024  _reentrancyGuardStorageSlot().getUint256Slot().value */\n      0x00\n      add\n        /* \"@openzeppelin/contracts/utils/ReentrancyGuard.sol\":3972:4034  _reentrancyGuardStorageSlot().getUint256Slot().value = ENTERED */\n      dup2\n      swap1\n      sstore\n      pop\n        /* \"@openzeppelin/contracts/utils/ReentrancyGuard.sol\":3749:4041  function _nonReentrantBefore() private {... */\n      jump\t// out\n        /* \"@openzeppelin/contracts/token/ERC20/utils/SafeERC20.sol\":1662:1894  function safeTransferFrom(IERC20 token, address from, address to, uint256 value) internal {... */\n    tag_167:\n        /* \"@openzeppelin/contracts/token/ERC20/utils/SafeERC20.sol\":1767:1814  _safeTransferFrom(token, from, to, value, true) */\n      tag_345\n        /* \"@openzeppelin/contracts/token/ERC20/utils/SafeERC20.sol\":1785:1790  token */\n      dup5\n        /* \"@openzeppelin/contracts/token/ERC20/utils/SafeERC20.sol\":1792:1796  from */\n      dup5\n        /* \"@openzeppelin/contracts/token/ERC20/utils/SafeERC20.sol\":1798:1800  to */\n      dup5\n        /* \"@openzeppelin/contracts/token/ERC20/utils/SafeERC20.sol\":1802:1807  value */\n      dup5\n        /* \"@openzeppelin/contracts/token/ERC20/utils/SafeERC20.sol\":1809:1813  true */\n      0x01\n        /* \"@openzeppelin/contracts/token/ERC20/utils/SafeERC20.sol\":1767:1784  _safeTransferFrom */\n      tag_346\n        /* \"@openzeppelin/contracts/token/ERC20/utils/SafeERC20.sol\":1767:1814  _safeTransferFrom(token, from, to, value, true) */\n      jump\t// in\n    tag_345:\n        /* \"@openzeppelin/contracts/token/ERC20/utils/SafeERC20.sol\":1762:1888  if (!_safeTransferFrom(token, from, to, value, true)) {... */\n      tag_347\n      jumpi\n        /* \"@openzeppelin/contracts/token/ERC20/utils/SafeERC20.sol\":1870:1875  token */\n      dup4\n        /* \"@openzeppelin/contracts/token/ERC20/utils/SafeERC20.sol\":1837:1877  SafeERC20FailedOperation(address(token)) */\n      mload(0x40)\n      0x5274afe700000000000000000000000000000000000000000000000000000000\n      dup2\n      mstore\n      0x04\n      add\n      tag_348\n      swap2\n      swap1\n      tag_88\n      jump\t// in\n    tag_348:\n      mload(0x40)\n      dup1\n      swap2\n      sub\n      swap1\n      revert\n        /* \"@openzeppelin/contracts/token/ERC20/utils/SafeERC20.sol\":1762:1888  if (!_safeTransferFrom(token, from, to, value, true)) {... */\n    tag_347:\n        /* \"@openzeppelin/contracts/token/ERC20/utils/SafeERC20.sol\":1662:1894  function safeTransferFrom(IERC20 token, address from, address to, uint256 value) internal {... */\n      pop\n      pop\n      pop\n      pop\n      jump\t// out\n        /* \"@openzeppelin/contracts/utils/ReentrancyGuard.sol\":4047:4300  function _nonReentrantAfter() private {... */\n    tag_179:\n        /* \"@openzeppelin/contracts/utils/ReentrancyGuard.sol\":2365:2366  1 */\n      0x01\n        /* \"@openzeppelin/contracts/utils/ReentrancyGuard.sol\":4227:4273  _reentrancyGuardStorageSlot().getUint256Slot() */\n      tag_350\n        /* \"@openzeppelin/contracts/utils/ReentrancyGuard.sol\":4227:4256  _reentrancyGuardStorageSlot() */\n      tag_351\n        /* \"@openzeppelin/contracts/utils/ReentrancyGuard.sol\":4227:4254  _reentrancyGuardStorageSlot */\n      tag_342\n        /* \"@openzeppelin/contracts/utils/ReentrancyGuard.sol\":4227:4256  _reentrancyGuardStorageSlot() */\n      jump\t// in\n    tag_351:\n        /* \"@openzeppelin/contracts/utils/ReentrancyGuard.sol\":4227:4271  _reentrancyGuardStorageSlot().getUint256Slot */\n      tag_343\n        /* \"@openzeppelin/contracts/utils/ReentrancyGuard.sol\":4227:4273  _reentrancyGuardStorageSlot().getUint256Slot() */\n      jump\t// in\n    tag_350:\n        /* \"@openzeppelin/contracts/utils/ReentrancyGuard.sol\":4227:4279  _reentrancyGuardStorageSlot().getUint256Slot().value */\n      0x00\n      add\n        /* \"@openzeppelin/contracts/utils/ReentrancyGuard.sol\":4227:4293  _reentrancyGuardStorageSlot().getUint256Slot().value = NOT_ENTERED */\n      dup2\n      swap1\n      sstore\n      pop\n        /* \"@openzeppelin/contracts/utils/ReentrancyGuard.sol\":4047:4300  function _nonReentrantAfter() private {... */\n      jump\t// out\n        /* \"@openzeppelin/contracts/access/Ownable.sol\":1796:1958  function _checkOwner() internal view virtual {... */\n    tag_182:\n        /* \"@openzeppelin/contracts/access/Ownable.sol\":1866:1878  _msgSender() */\n      tag_353\n        /* \"@openzeppelin/contracts/access/Ownable.sol\":1866:1876  _msgSender */\n      tag_354\n        /* \"@openzeppelin/contracts/access/Ownable.sol\":1866:1878  _msgSender() */\n      jump\t// in\n    tag_353:\n        /* \"@openzeppelin/contracts/access/Ownable.sol\":1855:1878  owner() != _msgSender() */\n      0xffffffffffffffffffffffffffffffffffffffff\n      and\n        /* \"@openzeppelin/contracts/access/Ownable.sol\":1855:1862  owner() */\n      tag_355\n        /* \"@openzeppelin/contracts/access/Ownable.sol\":1855:1860  owner */\n      tag_108\n        /* \"@openzeppelin/contracts/access/Ownable.sol\":1855:1862  owner() */\n      jump\t// in\n    tag_355:\n        /* \"@openzeppelin/contracts/access/Ownable.sol\":1855:1878  owner() != _msgSender() */\n      0xffffffffffffffffffffffffffffffffffffffff\n      and\n      eq\n        /* \"@openzeppelin/contracts/access/Ownable.sol\":1851:1952  if (owner() != _msgSender()) {... */\n      tag_356\n      jumpi\n        /* \"@openzeppelin/contracts/access/Ownable.sol\":1928:1940  _msgSender() */\n      tag_357\n        /* \"@openzeppelin/contracts/access/Ownable.sol\":1928:1938  _msgSender */\n      tag_354\n        /* \"@openzeppelin/contracts/access/Ownable.sol\":1928:1940  _msgSender() */\n      jump\t// in\n    tag_357:\n        /* \"@openzeppelin/contracts/access/Ownable.sol\":1901:1941  OwnableUnauthorizedAccount(_msgSender()) */\n      mload(0x40)\n      0x118cdaa700000000000000000000000000000000000000000000000000000000\n      dup2\n      mstore\n      0x04\n      add\n      tag_358\n      swap2\n      swap1\n      tag_88\n      jump\t// in\n    tag_358:\n      mload(0x40)\n      dup1\n      swap2\n      sub\n      swap1\n      revert\n        /* \"@openzeppelin/contracts/access/Ownable.sol\":1851:1952  if (owner() != _msgSender()) {... */\n    tag_356:\n        /* \"@openzeppelin/contracts/access/Ownable.sol\":1796:1958  function _checkOwner() internal view virtual {... */\n      jump\t// out\n        /* \"@openzeppelin/contracts/token/ERC20/utils/SafeERC20.sol\":1219:1423  function safeTransfer(IERC20 token, address to, uint256 value) internal {... */\n    tag_202:\n        /* \"@openzeppelin/contracts/token/ERC20/utils/SafeERC20.sol\":1306:1343  _safeTransfer(token, to, value, true) */\n      tag_360\n        /* \"@openzeppelin/contracts/token/ERC20/utils/SafeERC20.sol\":1320:1325  token */\n      dup4\n        /* \"@openzeppelin/contracts/token/ERC20/utils/SafeERC20.sol\":1327:1329  to */\n      dup4\n        /* \"@openzeppelin/contracts/token/ERC20/utils/SafeERC20.sol\":1331:1336  value */\n      dup4\n        /* \"@openzeppelin/contracts/token/ERC20/utils/SafeERC20.sol\":1338:1342  true */\n      0x01\n        /* \"@openzeppelin/contracts/token/ERC20/utils/SafeERC20.sol\":1306:1319  _safeTransfer */\n      tag_361\n        /* \"@openzeppelin/contracts/token/ERC20/utils/SafeERC20.sol\":1306:1343  _safeTransfer(token, to, value, true) */\n      jump\t// in\n    tag_360:\n        /* \"@openzeppelin/contracts/token/ERC20/utils/SafeERC20.sol\":1301:1417  if (!_safeTransfer(token, to, value, true)) {... */\n      tag_362\n      jumpi\n        /* \"@openzeppelin/contracts/token/ERC20/utils/SafeERC20.sol\":1399:1404  token */\n      dup3\n        /* \"@openzeppelin/contracts/token/ERC20/utils/SafeERC20.sol\":1366:1406  SafeERC20FailedOperation(address(token)) */\n      mload(0x40)\n      0x5274afe700000000000000000000000000000000000000000000000000000000\n      dup2\n      mstore\n      0x04\n      add\n      tag_363\n      swap2\n      swap1\n      tag_88\n      jump\t// in\n    tag_363:\n      mload(0x40)\n      dup1\n      swap2\n      sub\n      swap1\n      revert\n        /* \"@openzeppelin/contracts/token/ERC20/utils/SafeERC20.sol\":1301:1417  if (!_safeTransfer(token, to, value, true)) {... */\n    tag_362:\n        /* \"@openzeppelin/contracts/token/ERC20/utils/SafeERC20.sol\":1219:1423  function safeTransfer(IERC20 token, address to, uint256 value) internal {... */\n      pop\n      pop\n      pop\n      jump\t// out\n        /* \"@openzeppelin/contracts/access/Ownable.sol\":2912:3099  function _transferOwnership(address newOwner) internal virtual {... */\n    tag_239:\n        /* \"@openzeppelin/contracts/access/Ownable.sol\":2985:3001  address oldOwner */\n      0x00\n        /* \"@openzeppelin/contracts/access/Ownable.sol\":3004:3010  _owner */\n      dup1\n      0x00\n      swap1\n      sload\n      swap1\n      0x0100\n      exp\n      swap1\n      div\n      0xffffffffffffffffffffffffffffffffffffffff\n      and\n        /* \"@openzeppelin/contracts/access/Ownable.sol\":2985:3010  address oldOwner = _owner */\n      swap1\n      pop\n        /* \"@openzeppelin/contracts/access/Ownable.sol\":3029:3037  newOwner */\n      dup2\n        /* \"@openzeppelin/contracts/access/Ownable.sol\":3020:3026  _owner */\n      0x00\n      dup1\n        /* \"@openzeppelin/contracts/access/Ownable.sol\":3020:3037  _owner = newOwner */\n      0x0100\n      exp\n      dup2\n      sload\n      dup2\n      0xffffffffffffffffffffffffffffffffffffffff\n      mul\n      not\n      and\n      swap1\n      dup4\n      0xffffffffffffffffffffffffffffffffffffffff\n      and\n      mul\n      or\n      swap1\n      sstore\n      pop\n        /* \"@openzeppelin/contracts/access/Ownable.sol\":3083:3091  newOwner */\n      dup2\n        /* \"@openzeppelin/contracts/access/Ownable.sol\":3052:3092  OwnershipTransferred(oldOwner, newOwner) */\n      0xffffffffffffffffffffffffffffffffffffffff\n      and\n        /* \"@openzeppelin/contracts/access/Ownable.sol\":3073:3081  oldOwner */\n      dup2\n        /* \"@openzeppelin/contracts/access/Ownable.sol\":3052:3092  OwnershipTransferred(oldOwner, newOwner) */\n      0xffffffffffffffffffffffffffffffffffffffff\n      and\n      0x8be0079c531659141344cd1fd0a4f28419497f9722a3daafe3b4186f6b6457e0\n      mload(0x40)\n      mload(0x40)\n      dup1\n      swap2\n      sub\n      swap1\n      log3\n        /* \"@openzeppelin/contracts/access/Ownable.sol\":2975:3099  {... */\n      pop\n        /* \"@openzeppelin/contracts/access/Ownable.sol\":2912:3099  function _transferOwnership(address newOwner) internal virtual {... */\n      pop\n      jump\t// out\n        /* \"@openzeppelin/contracts/utils/ReentrancyGuard.sol\":3586:3743  function _nonReentrantBeforeView() private view {... */\n    tag_339:\n        /* \"@openzeppelin/contracts/utils/ReentrancyGuard.sol\":3648:3673  _reentrancyGuardEntered() */\n      tag_366\n        /* \"@openzeppelin/contracts/utils/ReentrancyGuard.sol\":3648:3671  _reentrancyGuardEntered */\n      tag_367\n        /* \"@openzeppelin/contracts/utils/ReentrancyGuard.sol\":3648:3673  _reentrancyGuardEntered() */\n      jump\t// in\n    tag_366:\n        /* \"@openzeppelin/contracts/utils/ReentrancyGuard.sol\":3644:3737  if (_reentrancyGuardEntered()) {... */\n      iszero\n      tag_368\n      jumpi\n        /* \"@openzeppelin/contracts/utils/ReentrancyGuard.sol\":3696:3726  ReentrancyGuardReentrantCall() */\n      mload(0x40)\n      0x3ee5aeb500000000000000000000000000000000000000000000000000000000\n      dup2\n      mstore\n      0x04\n      add\n      mload(0x40)\n      dup1\n      swap2\n      sub\n      swap1\n      revert\n        /* \"@openzeppelin/contracts/utils/ReentrancyGuard.sol\":3644:3737  if (_reentrancyGuardEntered()) {... */\n    tag_368:\n        /* \"@openzeppelin/contracts/utils/ReentrancyGuard.sol\":3586:3743  function _nonReentrantBeforeView() private view {... */\n      jump\t// out\n        /* \"@openzeppelin/contracts/utils/ReentrancyGuard.sol\":4636:4763  function _reentrancyGuardStorageSlot() internal pure virtual returns (bytes32) {... */\n    tag_342:\n        /* \"@openzeppelin/contracts/utils/ReentrancyGuard.sol\":4706:4713  bytes32 */\n      0x00\n        /* \"@openzeppelin/contracts/utils/ReentrancyGuard.sol\":1505:1571  0x9b779b17422d0df92223018b32b4d1fa46e071723d6817e2486d003becc55f00 */\n      0x9b779b17422d0df92223018b32b4d1fa46e071723d6817e2486d003becc55f00\n        /* \"@openzeppelin/contracts/utils/ReentrancyGuard.sol\":4732:4756  REENTRANCY_GUARD_STORAGE */\n      0x00\n      shl\n        /* \"@openzeppelin/contracts/utils/ReentrancyGuard.sol\":4725:4756  return REENTRANCY_GUARD_STORAGE */\n      swap1\n      pop\n        /* \"@openzeppelin/contracts/utils/ReentrancyGuard.sol\":4636:4763  function _reentrancyGuardStorageSlot() internal pure virtual returns (bytes32) {... */\n      swap1\n      jump\t// out\n        /* \"@openzeppelin/contracts/utils/StorageSlot.sol\":2679:2842  function getUint256Slot(bytes32 slot) internal pure returns (Uint256Slot storage r) {... */\n    tag_343:\n        /* \"@openzeppelin/contracts/utils/StorageSlot.sol\":2740:2761  Uint256Slot storage r */\n      0x00\n        /* \"@openzeppelin/contracts/utils/StorageSlot.sol\":2822:2826  slot */\n      dup2\n        /* \"@openzeppelin/contracts/utils/StorageSlot.sol\":2812:2826  r.slot := slot */\n      swap1\n      pop\n        /* \"@openzeppelin/contracts/utils/StorageSlot.sol\":2679:2842  function getUint256Slot(bytes32 slot) internal pure returns (Uint256Slot storage r) {... */\n      swap2\n      swap1\n      pop\n      jump\t// out\n        /* \"@openzeppelin/contracts/token/ERC20/utils/SafeERC20.sol\":10165:11558  function _safeTransferFrom(... */\n    tag_346:\n        /* \"@openzeppelin/contracts/token/ERC20/utils/SafeERC20.sol\":10323:10335  bool success */\n      0x00\n        /* \"@openzeppelin/contracts/token/ERC20/utils/SafeERC20.sol\":10347:10362  bytes4 selector */\n      dup1\n        /* \"@openzeppelin/contracts/token/ERC20/utils/SafeERC20.sol\":10365:10393  IERC20.transferFrom.selector */\n      shl(0xe0, 0x23b872dd)\n        /* \"@openzeppelin/contracts/token/ERC20/utils/SafeERC20.sol\":10347:10393  bytes4 selector = IERC20.transferFrom.selector */\n      swap1\n      pop\n        /* \"@openzeppelin/contracts/token/ERC20/utils/SafeERC20.sol\":10460:10464  0x40 */\n      0x40\n        /* \"@openzeppelin/contracts/token/ERC20/utils/SafeERC20.sol\":10454:10465  mload(0x40) */\n      mload\n        /* \"@openzeppelin/contracts/token/ERC20/utils/SafeERC20.sol\":10491:10499  selector */\n      dup2\n        /* \"@openzeppelin/contracts/token/ERC20/utils/SafeERC20.sol\":10485:10489  0x00 */\n      0x00\n        /* \"@openzeppelin/contracts/token/ERC20/utils/SafeERC20.sol\":10478:10500  mstore(0x00, selector) */\n      mstore\n        /* \"@openzeppelin/contracts/token/ERC20/utils/SafeERC20.sol\":10548:10549  0 */\n      0x00\n        /* \"@openzeppelin/contracts/token/ERC20/utils/SafeERC20.sol\":10544:10550  not(0) */\n      not\n        /* \"@openzeppelin/contracts/token/ERC20/utils/SafeERC20.sol\":10540:10542  96 */\n      0x60\n        /* \"@openzeppelin/contracts/token/ERC20/utils/SafeERC20.sol\":10536:10551  shr(96, not(0)) */\n      shr\n        /* \"@openzeppelin/contracts/token/ERC20/utils/SafeERC20.sol\":10530:10534  from */\n      dup8\n        /* \"@openzeppelin/contracts/token/ERC20/utils/SafeERC20.sol\":10526:10552  and(from, shr(96, not(0))) */\n      and\n        /* \"@openzeppelin/contracts/token/ERC20/utils/SafeERC20.sol\":10520:10524  0x04 */\n      0x04\n        /* \"@openzeppelin/contracts/token/ERC20/utils/SafeERC20.sol\":10513:10553  mstore(0x04, and(from, shr(96, not(0)))) */\n      mstore\n        /* \"@openzeppelin/contracts/token/ERC20/utils/SafeERC20.sol\":10599:10600  0 */\n      0x00\n        /* \"@openzeppelin/contracts/token/ERC20/utils/SafeERC20.sol\":10595:10601  not(0) */\n      not\n        /* \"@openzeppelin/contracts/token/ERC20/utils/SafeERC20.sol\":10591:10593  96 */\n      0x60\n        /* \"@openzeppelin/contracts/token/ERC20/utils/SafeERC20.sol\":10587:10602  shr(96, not(0)) */\n      shr\n        /* \"@openzeppelin/contracts/token/ERC20/utils/SafeERC20.sol\":10583:10585  to */\n      dup7\n        /* \"@openzeppelin/contracts/token/ERC20/utils/SafeERC20.sol\":10579:10603  and(to, shr(96, not(0))) */\n      and\n        /* \"@openzeppelin/contracts/token/ERC20/utils/SafeERC20.sol\":10573:10577  0x24 */\n      0x24\n        /* \"@openzeppelin/contracts/token/ERC20/utils/SafeERC20.sol\":10566:10604  mstore(0x24, and(to, shr(96, not(0)))) */\n      mstore\n        /* \"@openzeppelin/contracts/token/ERC20/utils/SafeERC20.sol\":10630:10635  value */\n      dup5\n        /* \"@openzeppelin/contracts/token/ERC20/utils/SafeERC20.sol\":10624:10628  0x44 */\n      0x44\n        /* \"@openzeppelin/contracts/token/ERC20/utils/SafeERC20.sol\":10617:10636  mstore(0x44, value) */\n      mstore\n        /* \"@openzeppelin/contracts/token/ERC20/utils/SafeERC20.sol\":10700:10704  0x20 */\n      0x20\n        /* \"@openzeppelin/contracts/token/ERC20/utils/SafeERC20.sol\":10694:10698  0x00 */\n      0x00\n        /* \"@openzeppelin/contracts/token/ERC20/utils/SafeERC20.sol\":10688:10692  0x64 */\n      0x64\n        /* \"@openzeppelin/contracts/token/ERC20/utils/SafeERC20.sol\":10682:10686  0x00 */\n      0x00\n        /* \"@openzeppelin/contracts/token/ERC20/utils/SafeERC20.sol\":10679:10680  0 */\n      dup1\n        /* \"@openzeppelin/contracts/token/ERC20/utils/SafeERC20.sol\":10672:10677  token */\n      dup13\n        /* \"@openzeppelin/contracts/token/ERC20/utils/SafeERC20.sol\":10665:10670  gas() */\n      gas\n        /* \"@openzeppelin/contracts/token/ERC20/utils/SafeERC20.sol\":10660:10705  call(gas(), token, 0, 0x00, 0x64, 0x00, 0x20) */\n      call\n        /* \"@openzeppelin/contracts/token/ERC20/utils/SafeERC20.sol\":10649:10705  success := call(gas(), token, 0, 0x00, 0x64, 0x00, 0x20) */\n      swap3\n      pop\n        /* \"@openzeppelin/contracts/token/ERC20/utils/SafeERC20.sol\":10917:10918  1 */\n      0x01\n        /* \"@openzeppelin/contracts/token/ERC20/utils/SafeERC20.sol\":10910:10914  0x00 */\n      0x00\n        /* \"@openzeppelin/contracts/token/ERC20/utils/SafeERC20.sol\":10904:10915  mload(0x00) */\n      mload\n        /* \"@openzeppelin/contracts/token/ERC20/utils/SafeERC20.sol\":10901:10919  eq(mload(0x00), 1) */\n      eq\n        /* \"@openzeppelin/contracts/token/ERC20/utils/SafeERC20.sol\":10892:10899  success */\n      dup4\n        /* \"@openzeppelin/contracts/token/ERC20/utils/SafeERC20.sol\":10888:10920  and(success, eq(mload(0x00), 1)) */\n      and\n        /* \"@openzeppelin/contracts/token/ERC20/utils/SafeERC20.sol\":10878:11484  if iszero(and(success, eq(mload(0x00), 1))) {... */\n      tag_372\n      jumpi\n        /* \"@openzeppelin/contracts/token/ERC20/utils/SafeERC20.sol\":11049:11055  bubble */\n      dup4\n        /* \"@openzeppelin/contracts/token/ERC20/utils/SafeERC20.sol\":11039:11046  success */\n      dup4\n        /* \"@openzeppelin/contracts/token/ERC20/utils/SafeERC20.sol\":11032:11047  iszero(success) */\n      iszero\n        /* \"@openzeppelin/contracts/token/ERC20/utils/SafeERC20.sol\":11028:11056  and(iszero(success), bubble) */\n      and\n        /* \"@openzeppelin/contracts/token/ERC20/utils/SafeERC20.sol\":11025:11190  if and(iszero(success), bubble) {... */\n      iszero\n      tag_373\n      jumpi\n        /* \"@openzeppelin/contracts/token/ERC20/utils/SafeERC20.sol\":11105:11121  returndatasize() */\n      returndatasize\n        /* \"@openzeppelin/contracts/token/ERC20/utils/SafeERC20.sol\":11099:11103  0x00 */\n      0x00\n        /* \"@openzeppelin/contracts/token/ERC20/utils/SafeERC20.sol\":11094:11097  fmp */\n      dup3\n        /* \"@openzeppelin/contracts/token/ERC20/utils/SafeERC20.sol\":11079:11122  returndatacopy(fmp, 0x00, returndatasize()) */\n      returndatacopy\n        /* \"@openzeppelin/contracts/token/ERC20/utils/SafeERC20.sol\":11155:11171  returndatasize() */\n      returndatasize\n        /* \"@openzeppelin/contracts/token/ERC20/utils/SafeERC20.sol\":11150:11153  fmp */\n      dup2\n        /* \"@openzeppelin/contracts/token/ERC20/utils/SafeERC20.sol\":11143:11172  revert(fmp, returndatasize()) */\n      revert\n        /* \"@openzeppelin/contracts/token/ERC20/utils/SafeERC20.sol\":11025:11190  if and(iszero(success), bubble) {... */\n    tag_373:\n        /* \"@openzeppelin/contracts/token/ERC20/utils/SafeERC20.sol\":11466:11467  0 */\n      0x00\n        /* \"@openzeppelin/contracts/token/ERC20/utils/SafeERC20.sol\":11458:11463  token */\n      dup9\n        /* \"@openzeppelin/contracts/token/ERC20/utils/SafeERC20.sol\":11446:11464  extcodesize(token) */\n      extcodesize\n        /* \"@openzeppelin/contracts/token/ERC20/utils/SafeERC20.sol\":11443:11468  gt(extcodesize(token), 0) */\n      gt\n        /* \"@openzeppelin/contracts/token/ERC20/utils/SafeERC20.sol\":11424:11440  returndatasize() */\n      returndatasize\n        /* \"@openzeppelin/contracts/token/ERC20/utils/SafeERC20.sol\":11417:11441  iszero(returndatasize()) */\n      iszero\n        /* \"@openzeppelin/contracts/token/ERC20/utils/SafeERC20.sol\":11413:11469  and(iszero(returndatasize()), gt(extcodesize(token), 0)) */\n      and\n        /* \"@openzeppelin/contracts/token/ERC20/utils/SafeERC20.sol\":11404:11411  success */\n      dup4\n        /* \"@openzeppelin/contracts/token/ERC20/utils/SafeERC20.sol\":11400:11470  and(success, and(iszero(returndatasize()), gt(extcodesize(token), 0))) */\n      and\n        /* \"@openzeppelin/contracts/token/ERC20/utils/SafeERC20.sol\":11389:11470  success := and(success, and(iszero(returndatasize()), gt(extcodesize(token), 0))) */\n      swap3\n      pop\n        /* \"@openzeppelin/contracts/token/ERC20/utils/SafeERC20.sol\":10878:11484  if iszero(and(success, eq(mload(0x00), 1))) {... */\n    tag_372:\n        /* \"@openzeppelin/contracts/token/ERC20/utils/SafeERC20.sol\":11510:11513  fmp */\n      dup1\n        /* \"@openzeppelin/contracts/token/ERC20/utils/SafeERC20.sol\":11504:11508  0x40 */\n      0x40\n        /* \"@openzeppelin/contracts/token/ERC20/utils/SafeERC20.sol\":11497:11514  mstore(0x40, fmp) */\n      mstore\n        /* \"@openzeppelin/contracts/token/ERC20/utils/SafeERC20.sol\":11540:11541  0 */\n      0x00\n        /* \"@openzeppelin/contracts/token/ERC20/utils/SafeERC20.sol\":11534:11538  0x60 */\n      0x60\n        /* \"@openzeppelin/contracts/token/ERC20/utils/SafeERC20.sol\":11527:11542  mstore(0x60, 0) */\n      mstore\n        /* \"@openzeppelin/contracts/token/ERC20/utils/SafeERC20.sol\":10429:11552  {... */\n      pop\n      pop\n        /* \"@openzeppelin/contracts/token/ERC20/utils/SafeERC20.sol\":10165:11558  function _safeTransferFrom(... */\n      swap6\n      swap5\n      pop\n      pop\n      pop\n      pop\n      pop\n      jump\t// out\n        /* \"@openzeppelin/contracts/utils/Context.sol\":656:752  function _msgSender() internal view virtual returns (address) {... */\n    tag_354:\n        /* \"@openzeppelin/contracts/utils/Context.sol\":709:716  address */\n      0x00\n        /* \"@openzeppelin/contracts/utils/Context.sol\":735:745  msg.sender */\n      caller\n        /* \"@openzeppelin/contracts/utils/Context.sol\":728:745  return msg.sender */\n      swap1\n      pop\n        /* \"@openzeppelin/contracts/utils/Context.sol\":656:752  function _msgSender() internal view virtual returns (address) {... */\n      swap1\n      jump\t// out\n        /* \"@openzeppelin/contracts/token/ERC20/utils/SafeERC20.sol\":8373:9617  function _safeTransfer(IERC20 token, address to, uint256 value, bool bubble) private returns (bool success) {... */\n    tag_361:\n        /* \"@openzeppelin/contracts/token/ERC20/utils/SafeERC20.sol\":8467:8479  bool success */\n      0x00\n        /* \"@openzeppelin/contracts/token/ERC20/utils/SafeERC20.sol\":8491:8506  bytes4 selector */\n      dup1\n        /* \"@openzeppelin/contracts/token/ERC20/utils/SafeERC20.sol\":8509:8533  IERC20.transfer.selector */\n      shl(0xe0, 0xa9059cbb)\n        /* \"@openzeppelin/contracts/token/ERC20/utils/SafeERC20.sol\":8491:8533  bytes4 selector = IERC20.transfer.selector */\n      swap1\n      pop\n        /* \"@openzeppelin/contracts/token/ERC20/utils/SafeERC20.sol\":8600:8604  0x40 */\n      0x40\n        /* \"@openzeppelin/contracts/token/ERC20/utils/SafeERC20.sol\":8594:8605  mload(0x40) */\n      mload\n        /* \"@openzeppelin/contracts/token/ERC20/utils/SafeERC20.sol\":8631:8639  selector */\n      dup2\n        /* \"@openzeppelin/contracts/token/ERC20/utils/SafeERC20.sol\":8625:8629  0x00 */\n      0x00\n        /* \"@openzeppelin/contracts/token/ERC20/utils/SafeERC20.sol\":8618:8640  mstore(0x00, selector) */\n      mstore\n        /* \"@openzeppelin/contracts/token/ERC20/utils/SafeERC20.sol\":8686:8687  0 */\n      0x00\n        /* \"@openzeppelin/contracts/token/ERC20/utils/SafeERC20.sol\":8682:8688  not(0) */\n      not\n        /* \"@openzeppelin/contracts/token/ERC20/utils/SafeERC20.sol\":8678:8680  96 */\n      0x60\n        /* \"@openzeppelin/contracts/token/ERC20/utils/SafeERC20.sol\":8674:8689  shr(96, not(0)) */\n      shr\n        /* \"@openzeppelin/contracts/token/ERC20/utils/SafeERC20.sol\":8670:8672  to */\n      dup7\n        /* \"@openzeppelin/contracts/token/ERC20/utils/SafeERC20.sol\":8666:8690  and(to, shr(96, not(0))) */\n      and\n        /* \"@openzeppelin/contracts/token/ERC20/utils/SafeERC20.sol\":8660:8664  0x04 */\n      0x04\n        /* \"@openzeppelin/contracts/token/ERC20/utils/SafeERC20.sol\":8653:8691  mstore(0x04, and(to, shr(96, not(0)))) */\n      mstore\n        /* \"@openzeppelin/contracts/token/ERC20/utils/SafeERC20.sol\":8717:8722  value */\n      dup5\n        /* \"@openzeppelin/contracts/token/ERC20/utils/SafeERC20.sol\":8711:8715  0x24 */\n      0x24\n        /* \"@openzeppelin/contracts/token/ERC20/utils/SafeERC20.sol\":8704:8723  mstore(0x24, value) */\n      mstore\n        /* \"@openzeppelin/contracts/token/ERC20/utils/SafeERC20.sol\":8787:8791  0x20 */\n      0x20\n        /* \"@openzeppelin/contracts/token/ERC20/utils/SafeERC20.sol\":8781:8785  0x00 */\n      0x00\n        /* \"@openzeppelin/contracts/token/ERC20/utils/SafeERC20.sol\":8775:8779  0x44 */\n      0x44\n        /* \"@openzeppelin/contracts/token/ERC20/utils/SafeERC20.sol\":8769:8773  0x00 */\n      0x00\n        /* \"@openzeppelin/contracts/token/ERC20/utils/SafeERC20.sol\":8766:8767  0 */\n      dup1\n        /* \"@openzeppelin/contracts/token/ERC20/utils/SafeERC20.sol\":8759:8764  token */\n      dup12\n        /* \"@openzeppelin/contracts/token/ERC20/utils/SafeERC20.sol\":8752:8757  gas() */\n      gas\n        /* \"@openzeppelin/contracts/token/ERC20/utils/SafeERC20.sol\":8747:8792  call(gas(), token, 0, 0x00, 0x44, 0x00, 0x20) */\n      call\n        /* \"@openzeppelin/contracts/token/ERC20/utils/SafeERC20.sol\":8736:8792  success := call(gas(), token, 0, 0x00, 0x44, 0x00, 0x20) */\n      swap3\n      pop\n        /* \"@openzeppelin/contracts/token/ERC20/utils/SafeERC20.sol\":9004:9005  1 */\n      0x01\n        /* \"@openzeppelin/contracts/token/ERC20/utils/SafeERC20.sol\":8997:9001  0x00 */\n      0x00\n        /* \"@openzeppelin/contracts/token/ERC20/utils/SafeERC20.sol\":8991:9002  mload(0x00) */\n      mload\n        /* \"@openzeppelin/contracts/token/ERC20/utils/SafeERC20.sol\":8988:9006  eq(mload(0x00), 1) */\n      eq\n        /* \"@openzeppelin/contracts/token/ERC20/utils/SafeERC20.sol\":8979:8986  success */\n      dup4\n        /* \"@openzeppelin/contracts/token/ERC20/utils/SafeERC20.sol\":8975:9007  and(success, eq(mload(0x00), 1)) */\n      and\n        /* \"@openzeppelin/contracts/token/ERC20/utils/SafeERC20.sol\":8965:9571  if iszero(and(success, eq(mload(0x00), 1))) {... */\n      tag_376\n      jumpi\n        /* \"@openzeppelin/contracts/token/ERC20/utils/SafeERC20.sol\":9136:9142  bubble */\n      dup4\n        /* \"@openzeppelin/contracts/token/ERC20/utils/SafeERC20.sol\":9126:9133  success */\n      dup4\n        /* \"@openzeppelin/contracts/token/ERC20/utils/SafeERC20.sol\":9119:9134  iszero(success) */\n      iszero\n        /* \"@openzeppelin/contracts/token/ERC20/utils/SafeERC20.sol\":9115:9143  and(iszero(success), bubble) */\n      and\n        /* \"@openzeppelin/contracts/token/ERC20/utils/SafeERC20.sol\":9112:9277  if and(iszero(success), bubble) {... */\n      iszero\n      tag_377\n      jumpi\n        /* \"@openzeppelin/contracts/token/ERC20/utils/SafeERC20.sol\":9192:9208  returndatasize() */\n      returndatasize\n        /* \"@openzeppelin/contracts/token/ERC20/utils/SafeERC20.sol\":9186:9190  0x00 */\n      0x00\n        /* \"@openzeppelin/contracts/token/ERC20/utils/SafeERC20.sol\":9181:9184  fmp */\n      dup3\n        /* \"@openzeppelin/contracts/token/ERC20/utils/SafeERC20.sol\":9166:9209  returndatacopy(fmp, 0x00, returndatasize()) */\n      returndatacopy\n        /* \"@openzeppelin/contracts/token/ERC20/utils/SafeERC20.sol\":9242:9258  returndatasize() */\n      returndatasize\n        /* \"@openzeppelin/contracts/token/ERC20/utils/SafeERC20.sol\":9237:9240  fmp */\n      dup2\n        /* \"@openzeppelin/contracts/token/ERC20/utils/SafeERC20.sol\":9230:9259  revert(fmp, returndatasize()) */\n      revert\n        /* \"@openzeppelin/contracts/token/ERC20/utils/SafeERC20.sol\":9112:9277  if and(iszero(success), bubble) {... */\n    tag_377:\n        /* \"@openzeppelin/contracts/token/ERC20/utils/SafeERC20.sol\":9553:9554  0 */\n      0x00\n        /* \"@openzeppelin/contracts/token/ERC20/utils/SafeERC20.sol\":9545:9550  token */\n      dup8\n        /* \"@openzeppelin/contracts/token/ERC20/utils/SafeERC20.sol\":9533:9551  extcodesize(token) */\n      extcodesize\n        /* \"@openzeppelin/contracts/token/ERC20/utils/SafeERC20.sol\":9530:9555  gt(extcodesize(token), 0) */\n      gt\n        /* \"@openzeppelin/contracts/token/ERC20/utils/SafeERC20.sol\":9511:9527  returndatasize() */\n      returndatasize\n        /* \"@openzeppelin/contracts/token/ERC20/utils/SafeERC20.sol\":9504:9528  iszero(returndatasize()) */\n      iszero\n        /* \"@openzeppelin/contracts/token/ERC20/utils/SafeERC20.sol\":9500:9556  and(iszero(returndatasize()), gt(extcodesize(token), 0)) */\n      and\n        /* \"@openzeppelin/contracts/token/ERC20/utils/SafeERC20.sol\":9491:9498  success */\n      dup4\n        /* \"@openzeppelin/contracts/token/ERC20/utils/SafeERC20.sol\":9487:9557  and(success, and(iszero(returndatasize()), gt(extcodesize(token), 0))) */\n      and\n        /* \"@openzeppelin/contracts/token/ERC20/utils/SafeERC20.sol\":9476:9557  success := and(success, and(iszero(returndatasize()), gt(extcodesize(token), 0))) */\n      swap3\n      pop\n        /* \"@openzeppelin/contracts/token/ERC20/utils/SafeERC20.sol\":8965:9571  if iszero(and(success, eq(mload(0x00), 1))) {... */\n    tag_376:\n        /* \"@openzeppelin/contracts/token/ERC20/utils/SafeERC20.sol\":9597:9600  fmp */\n      dup1\n        /* \"@openzeppelin/contracts/token/ERC20/utils/SafeERC20.sol\":9591:9595  0x40 */\n      0x40\n        /* \"@openzeppelin/contracts/token/ERC20/utils/SafeERC20.sol\":9584:9601  mstore(0x40, fmp) */\n      mstore\n        /* \"@openzeppelin/contracts/token/ERC20/utils/SafeERC20.sol\":8569:9611  {... */\n      pop\n      pop\n        /* \"@openzeppelin/contracts/token/ERC20/utils/SafeERC20.sol\":8373:9617  function _safeTransfer(IERC20 token, address to, uint256 value, bool bubble) private returns (bool success) {... */\n      swap5\n      swap4\n      pop\n      pop\n      pop\n      pop\n      jump\t// out\n        /* \"@openzeppelin/contracts/utils/ReentrancyGuard.sol\":4479:4630  function _reentrancyGuardEntered() internal view returns (bool) {... */\n    tag_367:\n        /* \"@openzeppelin/contracts/utils/ReentrancyGuard.sol\":4537:4541  bool */\n      0x00\n        /* \"@openzeppelin/contracts/utils/ReentrancyGuard.sol\":2407:2408  2 */\n      0x02\n        /* \"@openzeppelin/contracts/utils/ReentrancyGuard.sol\":4560:4606  _reentrancyGuardStorageSlot().getUint256Slot() */\n      tag_379\n        /* \"@openzeppelin/contracts/utils/ReentrancyGuard.sol\":4560:4589  _reentrancyGuardStorageSlot() */\n      tag_380\n        /* \"@openzeppelin/contracts/utils/ReentrancyGuard.sol\":4560:4587  _reentrancyGuardStorageSlot */\n      tag_342\n        /* \"@openzeppelin/contracts/utils/ReentrancyGuard.sol\":4560:4589  _reentrancyGuardStorageSlot() */\n      jump\t// in\n    tag_380:\n        /* \"@openzeppelin/contracts/utils/ReentrancyGuard.sol\":4560:4604  _reentrancyGuardStorageSlot().getUint256Slot */\n      tag_343\n        /* \"@openzeppelin/contracts/utils/ReentrancyGuard.sol\":4560:4606  _reentrancyGuardStorageSlot().getUint256Slot() */\n      jump\t// in\n    tag_379:\n        /* \"@openzeppelin/contracts/utils/ReentrancyGuard.sol\":4560:4612  _reentrancyGuardStorageSlot().getUint256Slot().value */\n      0x00\n      add\n      sload\n        /* \"@openzeppelin/contracts/utils/ReentrancyGuard.sol\":4560:4623  _reentrancyGuardStorageSlot().getUint256Slot().value == ENTERED */\n      eq\n        /* \"@openzeppelin/contracts/utils/ReentrancyGuard.sol\":4553:4623  return _reentrancyGuardStorageSlot().getUint256Slot().value == ENTERED */\n      swap1\n      pop\n        /* \"@openzeppelin/contracts/utils/ReentrancyGuard.sol\":4479:4630  function _reentrancyGuardEntered() internal view returns (bool) {... */\n      swap1\n      jump\t// out\n        /* \"#utility.yul\":88:205   */\n    tag_382:\n        /* \"#utility.yul\":197:198   */\n      0x00\n        /* \"#utility.yul\":194:195   */\n      dup1\n        /* \"#utility.yul\":187:199   */\n      revert\n        /* \"#utility.yul\":334:460   */\n    tag_384:\n        /* \"#utility.yul\":371:378   */\n      0x00\n        /* \"#utility.yul\":411:453   */\n      0xffffffffffffffffffffffffffffffffffffffff\n        /* \"#utility.yul\":404:409   */\n      dup3\n        /* \"#utility.yul\":400:454   */\n      and\n        /* \"#utility.yul\":389:454   */\n      swap1\n      pop\n        /* \"#utility.yul\":334:460   */\n      swap2\n      swap1\n      pop\n      jump\t// out\n        /* \"#utility.yul\":466:562   */\n    tag_385:\n        /* \"#utility.yul\":503:510   */\n      0x00\n        /* \"#utility.yul\":532:556   */\n      tag_411\n        /* \"#utility.yul\":550:555   */\n      dup3\n        /* \"#utility.yul\":532:556   */\n      tag_384\n      jump\t// in\n    tag_411:\n        /* \"#utility.yul\":521:556   */\n      swap1\n      pop\n        /* \"#utility.yul\":466:562   */\n      swap2\n      swap1\n      pop\n      jump\t// out\n        /* \"#utility.yul\":568:690   */\n    tag_386:\n        /* \"#utility.yul\":641:665   */\n      tag_413\n        /* \"#utility.yul\":659:664   */\n      dup2\n        /* \"#utility.yul\":641:665   */\n      tag_385\n      jump\t// in\n    tag_413:\n        /* \"#utility.yul\":634:639   */\n      dup2\n        /* \"#utility.yul\":631:666   */\n      eq\n        /* \"#utility.yul\":621:684   */\n      tag_414\n      jumpi\n        /* \"#utility.yul\":680:681   */\n      0x00\n        /* \"#utility.yul\":677:678   */\n      dup1\n        /* \"#utility.yul\":670:682   */\n      revert\n        /* \"#utility.yul\":621:684   */\n    tag_414:\n        /* \"#utility.yul\":568:690   */\n      pop\n      jump\t// out\n        /* \"#utility.yul\":696:835   */\n    tag_387:\n        /* \"#utility.yul\":742:747   */\n      0x00\n        /* \"#utility.yul\":780:786   */\n      dup2\n        /* \"#utility.yul\":767:787   */\n      calldataload\n        /* \"#utility.yul\":758:787   */\n      swap1\n      pop\n        /* \"#utility.yul\":796:829   */\n      tag_416\n        /* \"#utility.yul\":823:828   */\n      dup2\n        /* \"#utility.yul\":796:829   */\n      tag_386\n      jump\t// in\n    tag_416:\n        /* \"#utility.yul\":696:835   */\n      swap3\n      swap2\n      pop\n      pop\n      jump\t// out\n        /* \"#utility.yul\":841:1170   */\n    tag_43:\n        /* \"#utility.yul\":900:906   */\n      0x00\n        /* \"#utility.yul\":949:951   */\n      0x20\n        /* \"#utility.yul\":937:946   */\n      dup3\n        /* \"#utility.yul\":928:935   */\n      dup5\n        /* \"#utility.yul\":924:947   */\n      sub\n        /* \"#utility.yul\":920:952   */\n      slt\n        /* \"#utility.yul\":917:1036   */\n      iszero\n      tag_418\n      jumpi\n        /* \"#utility.yul\":955:1034   */\n      tag_419\n      tag_382\n      jump\t// in\n    tag_419:\n        /* \"#utility.yul\":917:1036   */\n    tag_418:\n        /* \"#utility.yul\":1075:1076   */\n      0x00\n        /* \"#utility.yul\":1100:1153   */\n      tag_420\n        /* \"#utility.yul\":1145:1152   */\n      dup5\n        /* \"#utility.yul\":1136:1142   */\n      dup3\n        /* \"#utility.yul\":1125:1134   */\n      dup6\n        /* \"#utility.yul\":1121:1143   */\n      add\n        /* \"#utility.yul\":1100:1153   */\n      tag_387\n      jump\t// in\n    tag_420:\n        /* \"#utility.yul\":1090:1153   */\n      swap2\n      pop\n        /* \"#utility.yul\":1046:1163   */\n      pop\n        /* \"#utility.yul\":841:1170   */\n      swap3\n      swap2\n      pop\n      pop\n      jump\t// out\n        /* \"#utility.yul\":1176:1253   */\n    tag_388:\n        /* \"#utility.yul\":1213:1220   */\n      0x00\n        /* \"#utility.yul\":1242:1247   */\n      dup2\n        /* \"#utility.yul\":1231:1247   */\n      swap1\n      pop\n        /* \"#utility.yul\":1176:1253   */\n      swap2\n      swap1\n      pop\n      jump\t// out\n        /* \"#utility.yul\":1259:1377   */\n    tag_389:\n        /* \"#utility.yul\":1346:1370   */\n      tag_423\n        /* \"#utility.yul\":1364:1369   */\n      dup2\n        /* \"#utility.yul\":1346:1370   */\n      tag_388\n      jump\t// in\n    tag_423:\n        /* \"#utility.yul\":1341:1344   */\n      dup3\n        /* \"#utility.yul\":1334:1371   */\n      mstore\n        /* \"#utility.yul\":1259:1377   */\n      pop\n      pop\n      jump\t// out\n        /* \"#utility.yul\":1383:1605   */\n    tag_46:\n        /* \"#utility.yul\":1476:1480   */\n      0x00\n        /* \"#utility.yul\":1514:1516   */\n      0x20\n        /* \"#utility.yul\":1503:1512   */\n      dup3\n        /* \"#utility.yul\":1499:1517   */\n      add\n        /* \"#utility.yul\":1491:1517   */\n      swap1\n      pop\n        /* \"#utility.yul\":1527:1598   */\n      tag_425\n        /* \"#utility.yul\":1595:1596   */\n      0x00\n        /* \"#utility.yul\":1584:1593   */\n      dup4\n        /* \"#utility.yul\":1580:1597   */\n      add\n        /* \"#utility.yul\":1571:1577   */\n      dup5\n        /* \"#utility.yul\":1527:1598   */\n      tag_389\n      jump\t// in\n    tag_425:\n        /* \"#utility.yul\":1383:1605   */\n      swap3\n      swap2\n      pop\n      pop\n      jump\t// out\n        /* \"#utility.yul\":1611:1671   */\n    tag_390:\n        /* \"#utility.yul\":1639:1642   */\n      0x00\n        /* \"#utility.yul\":1660:1665   */\n      dup2\n        /* \"#utility.yul\":1653:1665   */\n      swap1\n      pop\n        /* \"#utility.yul\":1611:1671   */\n      swap2\n      swap1\n      pop\n      jump\t// out\n        /* \"#utility.yul\":1677:1819   */\n    tag_391:\n        /* \"#utility.yul\":1727:1736   */\n      0x00\n        /* \"#utility.yul\":1760:1813   */\n      tag_428\n        /* \"#utility.yul\":1778:1812   */\n      tag_429\n        /* \"#utility.yul\":1787:1811   */\n      tag_430\n        /* \"#utility.yul\":1805:1810   */\n      dup5\n        /* \"#utility.yul\":1787:1811   */\n      tag_384\n      jump\t// in\n    tag_430:\n        /* \"#utility.yul\":1778:1812   */\n      tag_390\n      jump\t// in\n    tag_429:\n        /* \"#utility.yul\":1760:1813   */\n      tag_384\n      jump\t// in\n    tag_428:\n        /* \"#utility.yul\":1747:1813   */\n      swap1\n      pop\n        /* \"#utility.yul\":1677:1819   */\n      swap2\n      swap1\n      pop\n      jump\t// out\n        /* \"#utility.yul\":1825:1951   */\n    tag_392:\n        /* \"#utility.yul\":1875:1884   */\n      0x00\n        /* \"#utility.yul\":1908:1945   */\n      tag_432\n        /* \"#utility.yul\":1939:1944   */\n      dup3\n        /* \"#utility.yul\":1908:1945   */\n      tag_391\n      jump\t// in\n    tag_432:\n        /* \"#utility.yul\":1895:1945   */\n      swap1\n      pop\n        /* \"#utility.yul\":1825:1951   */\n      swap2\n      swap1\n      pop\n      jump\t// out\n        /* \"#utility.yul\":1957:2097   */\n    tag_393:\n        /* \"#utility.yul\":2021:2030   */\n      0x00\n        /* \"#utility.yul\":2054:2091   */\n      tag_434\n        /* \"#utility.yul\":2085:2090   */\n      dup3\n        /* \"#utility.yul\":2054:2091   */\n      tag_392\n      jump\t// in\n    tag_434:\n        /* \"#utility.yul\":2041:2091   */\n      swap1\n      pop\n        /* \"#utility.yul\":1957:2097   */\n      swap2\n      swap1\n      pop\n      jump\t// out\n        /* \"#utility.yul\":2103:2262   */\n    tag_394:\n        /* \"#utility.yul\":2204:2255   */\n      tag_436\n        /* \"#utility.yul\":2249:2254   */\n      dup2\n        /* \"#utility.yul\":2204:2255   */\n      tag_393\n      jump\t// in\n    tag_436:\n        /* \"#utility.yul\":2199:2202   */\n      dup3\n        /* \"#utility.yul\":2192:2256   */\n      mstore\n        /* \"#utility.yul\":2103:2262   */\n      pop\n      pop\n      jump\t// out\n        /* \"#utility.yul\":2268:2518   */\n    tag_50:\n        /* \"#utility.yul\":2375:2379   */\n      0x00\n        /* \"#utility.yul\":2413:2415   */\n      0x20\n        /* \"#utility.yul\":2402:2411   */\n      dup3\n        /* \"#utility.yul\":2398:2416   */\n      add\n        /* \"#utility.yul\":2390:2416   */\n      swap1\n      pop\n        /* \"#utility.yul\":2426:2511   */\n      tag_438\n        /* \"#utility.yul\":2508:2509   */\n      0x00\n        /* \"#utility.yul\":2497:2506   */\n      dup4\n        /* \"#utility.yul\":2493:2510   */\n      add\n        /* \"#utility.yul\":2484:2490   */\n      dup5\n        /* \"#utility.yul\":2426:2511   */\n      tag_394\n      jump\t// in\n    tag_438:\n        /* \"#utility.yul\":2268:2518   */\n      swap3\n      swap2\n      pop\n      pop\n      jump\t// out\n        /* \"#utility.yul\":2524:2646   */\n    tag_395:\n        /* \"#utility.yul\":2597:2621   */\n      tag_440\n        /* \"#utility.yul\":2615:2620   */\n      dup2\n        /* \"#utility.yul\":2597:2621   */\n      tag_388\n      jump\t// in\n    tag_440:\n        /* \"#utility.yul\":2590:2595   */\n      dup2\n        /* \"#utility.yul\":2587:2622   */\n      eq\n        /* \"#utility.yul\":2577:2640   */\n      tag_441\n      jumpi\n        /* \"#utility.yul\":2636:2637   */\n      0x00\n        /* \"#utility.yul\":2633:2634   */\n      dup1\n        /* \"#utility.yul\":2626:2638   */\n      revert\n        /* \"#utility.yul\":2577:2640   */\n    tag_441:\n        /* \"#utility.yul\":2524:2646   */\n      pop\n      jump\t// out\n        /* \"#utility.yul\":2652:2791   */\n    tag_396:\n        /* \"#utility.yul\":2698:2703   */\n      0x00\n        /* \"#utility.yul\":2736:2742   */\n      dup2\n        /* \"#utility.yul\":2723:2743   */\n      calldataload\n        /* \"#utility.yul\":2714:2743   */\n      swap1\n      pop\n        /* \"#utility.yul\":2752:2785   */\n      tag_443\n        /* \"#utility.yul\":2779:2784   */\n      dup2\n        /* \"#utility.yul\":2752:2785   */\n      tag_395\n      jump\t// in\n    tag_443:\n        /* \"#utility.yul\":2652:2791   */\n      swap3\n      swap2\n      pop\n      pop\n      jump\t// out\n        /* \"#utility.yul\":2797:3271   */\n    tag_53:\n        /* \"#utility.yul\":2865:2871   */\n      0x00\n        /* \"#utility.yul\":2873:2879   */\n      dup1\n        /* \"#utility.yul\":2922:2924   */\n      0x40\n        /* \"#utility.yul\":2910:2919   */\n      dup4\n        /* \"#utility.yul\":2901:2908   */\n      dup6\n        /* \"#utility.yul\":2897:2920   */\n      sub\n        /* \"#utility.yul\":2893:2925   */\n      slt\n        /* \"#utility.yul\":2890:3009   */\n      iszero\n      tag_445\n      jumpi\n        /* \"#utility.yul\":2928:3007   */\n      tag_446\n      tag_382\n      jump\t// in\n    tag_446:\n        /* \"#utility.yul\":2890:3009   */\n    tag_445:\n        /* \"#utility.yul\":3048:3049   */\n      0x00\n        /* \"#utility.yul\":3073:3126   */\n      tag_447\n        /* \"#utility.yul\":3118:3125   */\n      dup6\n        /* \"#utility.yul\":3109:3115   */\n      dup3\n        /* \"#utility.yul\":3098:3107   */\n      dup7\n        /* \"#utility.yul\":3094:3116   */\n      add\n        /* \"#utility.yul\":3073:3126   */\n      tag_396\n      jump\t// in\n    tag_447:\n        /* \"#utility.yul\":3063:3126   */\n      swap3\n      pop\n        /* \"#utility.yul\":3019:3136   */\n      pop\n        /* \"#utility.yul\":3175:3177   */\n      0x20\n        /* \"#utility.yul\":3201:3254   */\n      tag_448\n        /* \"#utility.yul\":3246:3253   */\n      dup6\n        /* \"#utility.yul\":3237:3243   */\n      dup3\n        /* \"#utility.yul\":3226:3235   */\n      dup7\n        /* \"#utility.yul\":3222:3244   */\n      add\n        /* \"#utility.yul\":3201:3254   */\n      tag_396\n      jump\t// in\n    tag_448:\n        /* \"#utility.yul\":3191:3254   */\n      swap2\n      pop\n        /* \"#utility.yul\":3146:3264   */\n      pop\n        /* \"#utility.yul\":2797:3271   */\n      swap3\n      pop\n      swap3\n      swap1\n      pop\n      jump\t// out\n        /* \"#utility.yul\":3277:3367   */\n    tag_397:\n        /* \"#utility.yul\":3311:3318   */\n      0x00\n        /* \"#utility.yul\":3354:3359   */\n      dup2\n        /* \"#utility.yul\":3347:3360   */\n      iszero\n        /* \"#utility.yul\":3340:3361   */\n      iszero\n        /* \"#utility.yul\":3329:3361   */\n      swap1\n      pop\n        /* \"#utility.yul\":3277:3367   */\n      swap2\n      swap1\n      pop\n      jump\t// out\n        /* \"#utility.yul\":3373:3489   */\n    tag_398:\n        /* \"#utility.yul\":3443:3464   */\n      tag_451\n        /* \"#utility.yul\":3458:3463   */\n      dup2\n        /* \"#utility.yul\":3443:3464   */\n      tag_397\n      jump\t// in\n    tag_451:\n        /* \"#utility.yul\":3436:3441   */\n      dup2\n        /* \"#utility.yul\":3433:3465   */\n      eq\n        /* \"#utility.yul\":3423:3483   */\n      tag_452\n      jumpi\n        /* \"#utility.yul\":3479:3480   */\n      0x00\n        /* \"#utility.yul\":3476:3477   */\n      dup1\n        /* \"#utility.yul\":3469:3481   */\n      revert\n        /* \"#utility.yul\":3423:3483   */\n    tag_452:\n        /* \"#utility.yul\":3373:3489   */\n      pop\n      jump\t// out\n        /* \"#utility.yul\":3495:3628   */\n    tag_399:\n        /* \"#utility.yul\":3538:3543   */\n      0x00\n        /* \"#utility.yul\":3576:3582   */\n      dup2\n        /* \"#utility.yul\":3563:3583   */\n      calldataload\n        /* \"#utility.yul\":3554:3583   */\n      swap1\n      pop\n        /* \"#utility.yul\":3592:3622   */\n      tag_454\n        /* \"#utility.yul\":3616:3621   */\n      dup2\n        /* \"#utility.yul\":3592:3622   */\n      tag_398\n      jump\t// in\n    tag_454:\n        /* \"#utility.yul\":3495:3628   */\n      swap3\n      swap2\n      pop\n      pop\n      jump\t// out\n        /* \"#utility.yul\":3634:4102   */\n    tag_57:\n        /* \"#utility.yul\":3699:3705   */\n      0x00\n        /* \"#utility.yul\":3707:3713   */\n      dup1\n        /* \"#utility.yul\":3756:3758   */\n      0x40\n        /* \"#utility.yul\":3744:3753   */\n      dup4\n        /* \"#utility.yul\":3735:3742   */\n      dup6\n        /* \"#utility.yul\":3731:3754   */\n      sub\n        /* \"#utility.yul\":3727:3759   */\n      slt\n        /* \"#utility.yul\":3724:3843   */\n      iszero\n      tag_456\n      jumpi\n        /* \"#utility.yul\":3762:3841   */\n      tag_457\n      tag_382\n      jump\t// in\n    tag_457:\n        /* \"#utility.yul\":3724:3843   */\n    tag_456:\n        /* \"#utility.yul\":3882:3883   */\n      0x00\n        /* \"#utility.yul\":3907:3960   */\n      tag_458\n        /* \"#utility.yul\":3952:3959   */\n      dup6\n        /* \"#utility.yul\":3943:3949   */\n      dup3\n        /* \"#utility.yul\":3932:3941   */\n      dup7\n        /* \"#utility.yul\":3928:3950   */\n      add\n        /* \"#utility.yul\":3907:3960   */\n      tag_387\n      jump\t// in\n    tag_458:\n        /* \"#utility.yul\":3897:3960   */\n      swap3\n      pop\n        /* \"#utility.yul\":3853:3970   */\n      pop\n        /* \"#utility.yul\":4009:4011   */\n      0x20\n        /* \"#utility.yul\":4035:4085   */\n      tag_459\n        /* \"#utility.yul\":4077:4084   */\n      dup6\n        /* \"#utility.yul\":4068:4074   */\n      dup3\n        /* \"#utility.yul\":4057:4066   */\n      dup7\n        /* \"#utility.yul\":4053:4075   */\n      add\n        /* \"#utility.yul\":4035:4085   */\n      tag_399\n      jump\t// in\n    tag_459:\n        /* \"#utility.yul\":4025:4085   */\n      swap2\n      pop\n        /* \"#utility.yul\":3980:4095   */\n      pop\n        /* \"#utility.yul\":3634:4102   */\n      swap3\n      pop\n      swap3\n      swap1\n      pop\n      jump\t// out\n        /* \"#utility.yul\":4108:4437   */\n    tag_61:\n        /* \"#utility.yul\":4167:4173   */\n      0x00\n        /* \"#utility.yul\":4216:4218   */\n      0x20\n        /* \"#utility.yul\":4204:4213   */\n      dup3\n        /* \"#utility.yul\":4195:4202   */\n      dup5\n        /* \"#utility.yul\":4191:4214   */\n      sub\n        /* \"#utility.yul\":4187:4219   */\n      slt\n        /* \"#utility.yul\":4184:4303   */\n      iszero\n      tag_461\n      jumpi\n        /* \"#utility.yul\":4222:4301   */\n      tag_462\n      tag_382\n      jump\t// in\n    tag_462:\n        /* \"#utility.yul\":4184:4303   */\n    tag_461:\n        /* \"#utility.yul\":4342:4343   */\n      0x00\n        /* \"#utility.yul\":4367:4420   */\n      tag_463\n        /* \"#utility.yul\":4412:4419   */\n      dup5\n        /* \"#utility.yul\":4403:4409   */\n      dup3\n        /* \"#utility.yul\":4392:4401   */\n      dup6\n        /* \"#utility.yul\":4388:4410   */\n      add\n        /* \"#utility.yul\":4367:4420   */\n      tag_396\n      jump\t// in\n    tag_463:\n        /* \"#utility.yul\":4357:4420   */\n      swap2\n      pop\n        /* \"#utility.yul\":4313:4430   */\n      pop\n        /* \"#utility.yul\":4108:4437   */\n      swap3\n      swap2\n      pop\n      pop\n      jump\t// out\n        /* \"#utility.yul\":4443:4552   */\n    tag_400:\n        /* \"#utility.yul\":4524:4545   */\n      tag_465\n        /* \"#utility.yul\":4539:4544   */\n      dup2\n        /* \"#utility.yul\":4524:4545   */\n      tag_397\n      jump\t// in\n    tag_465:\n        /* \"#utility.yul\":4519:4522   */\n      dup3\n        /* \"#utility.yul\":4512:4546   */\n      mstore\n        /* \"#utility.yul\":4443:4552   */\n      pop\n      pop\n      jump\t// out\n        /* \"#utility.yul\":4558:4768   */\n    tag_77:\n        /* \"#utility.yul\":4645:4649   */\n      0x00\n        /* \"#utility.yul\":4683:4685   */\n      0x20\n        /* \"#utility.yul\":4672:4681   */\n      dup3\n        /* \"#utility.yul\":4668:4686   */\n      add\n        /* \"#utility.yul\":4660:4686   */\n      swap1\n      pop\n        /* \"#utility.yul\":4696:4761   */\n      tag_467\n        /* \"#utility.yul\":4758:4759   */\n      0x00\n        /* \"#utility.yul\":4747:4756   */\n      dup4\n        /* \"#utility.yul\":4743:4760   */\n      add\n        /* \"#utility.yul\":4734:4740   */\n      dup5\n        /* \"#utility.yul\":4696:4761   */\n      tag_400\n      jump\t// in\n    tag_467:\n        /* \"#utility.yul\":4558:4768   */\n      swap3\n      swap2\n      pop\n      pop\n      jump\t// out\n        /* \"#utility.yul\":4774:4892   */\n    tag_401:\n        /* \"#utility.yul\":4861:4885   */\n      tag_469\n        /* \"#utility.yul\":4879:4884   */\n      dup2\n        /* \"#utility.yul\":4861:4885   */\n      tag_385\n      jump\t// in\n    tag_469:\n        /* \"#utility.yul\":4856:4859   */\n      dup3\n        /* \"#utility.yul\":4849:4886   */\n      mstore\n        /* \"#utility.yul\":4774:4892   */\n      pop\n      pop\n      jump\t// out\n        /* \"#utility.yul\":4898:5120   */\n    tag_88:\n        /* \"#utility.yul\":4991:4995   */\n      0x00\n        /* \"#utility.yul\":5029:5031   */\n      0x20\n        /* \"#utility.yul\":5018:5027   */\n      dup3\n        /* \"#utility.yul\":5014:5032   */\n      add\n        /* \"#utility.yul\":5006:5032   */\n      swap1\n      pop\n        /* \"#utility.yul\":5042:5113   */\n      tag_471\n        /* \"#utility.yul\":5110:5111   */\n      0x00\n        /* \"#utility.yul\":5099:5108   */\n      dup4\n        /* \"#utility.yul\":5095:5112   */\n      add\n        /* \"#utility.yul\":5086:5092   */\n      dup5\n        /* \"#utility.yul\":5042:5113   */\n      tag_401\n      jump\t// in\n    tag_471:\n        /* \"#utility.yul\":4898:5120   */\n      swap3\n      swap2\n      pop\n      pop\n      jump\t// out\n        /* \"#utility.yul\":5126:5600   */\n    tag_101:\n        /* \"#utility.yul\":5194:5200   */\n      0x00\n        /* \"#utility.yul\":5202:5208   */\n      dup1\n        /* \"#utility.yul\":5251:5253   */\n      0x40\n        /* \"#utility.yul\":5239:5248   */\n      dup4\n        /* \"#utility.yul\":5230:5237   */\n      dup6\n        /* \"#utility.yul\":5226:5249   */\n      sub\n        /* \"#utility.yul\":5222:5254   */\n      slt\n        /* \"#utility.yul\":5219:5338   */\n      iszero\n      tag_473\n      jumpi\n        /* \"#utility.yul\":5257:5336   */\n      tag_474\n      tag_382\n      jump\t// in\n    tag_474:\n        /* \"#utility.yul\":5219:5338   */\n    tag_473:\n        /* \"#utility.yul\":5377:5378   */\n      0x00\n        /* \"#utility.yul\":5402:5455   */\n      tag_475\n        /* \"#utility.yul\":5447:5454   */\n      dup6\n        /* \"#utility.yul\":5438:5444   */\n      dup3\n        /* \"#utility.yul\":5427:5436   */\n      dup7\n        /* \"#utility.yul\":5423:5445   */\n      add\n        /* \"#utility.yul\":5402:5455   */\n      tag_387\n      jump\t// in\n    tag_475:\n        /* \"#utility.yul\":5392:5455   */\n      swap3\n      pop\n        /* \"#utility.yul\":5348:5465   */\n      pop\n        /* \"#utility.yul\":5504:5506   */\n      0x20\n        /* \"#utility.yul\":5530:5583   */\n      tag_476\n        /* \"#utility.yul\":5575:5582   */\n      dup6\n        /* \"#utility.yul\":5566:5572   */\n      dup3\n        /* \"#utility.yul\":5555:5564   */\n      dup7\n        /* \"#utility.yul\":5551:5573   */\n      add\n        /* \"#utility.yul\":5530:5583   */\n      tag_396\n      jump\t// in\n    tag_476:\n        /* \"#utility.yul\":5520:5583   */\n      swap2\n      pop\n        /* \"#utility.yul\":5475:5593   */\n      pop\n        /* \"#utility.yul\":5126:5600   */\n      swap3\n      pop\n      swap3\n      swap1\n      pop\n      jump\t// out\n        /* \"#utility.yul\":5606:5786   */\n    tag_402:\n        /* \"#utility.yul\":5654:5731   */\n      0x4e487b7100000000000000000000000000000000000000000000000000000000\n        /* \"#utility.yul\":5651:5652   */\n      0x00\n        /* \"#utility.yul\":5644:5732   */\n      mstore\n        /* \"#utility.yul\":5751:5755   */\n      0x11\n        /* \"#utility.yul\":5748:5749   */\n      0x04\n        /* \"#utility.yul\":5741:5756   */\n      mstore\n        /* \"#utility.yul\":5775:5779   */\n      0x24\n        /* \"#utility.yul\":5772:5773   */\n      0x00\n        /* \"#utility.yul\":5765:5780   */\n      revert\n        /* \"#utility.yul\":5792:5986   */\n    tag_145:\n        /* \"#utility.yul\":5832:5836   */\n      0x00\n        /* \"#utility.yul\":5852:5872   */\n      tag_479\n        /* \"#utility.yul\":5870:5871   */\n      dup3\n        /* \"#utility.yul\":5852:5872   */\n      tag_388\n      jump\t// in\n    tag_479:\n        /* \"#utility.yul\":5847:5872   */\n      swap2\n      pop\n        /* \"#utility.yul\":5886:5906   */\n      tag_480\n        /* \"#utility.yul\":5904:5905   */\n      dup4\n        /* \"#utility.yul\":5886:5906   */\n      tag_388\n      jump\t// in\n    tag_480:\n        /* \"#utility.yul\":5881:5906   */\n      swap3\n      pop\n        /* \"#utility.yul\":5930:5931   */\n      dup3\n        /* \"#utility.yul\":5927:5928   */\n      dup3\n        /* \"#utility.yul\":5923:5932   */\n      sub\n        /* \"#utility.yul\":5915:5932   */\n      swap1\n      pop\n        /* \"#utility.yul\":5954:5955   */\n      dup2\n        /* \"#utility.yul\":5948:5952   */\n      dup2\n        /* \"#utility.yul\":5945:5956   */\n      gt\n        /* \"#utility.yul\":5942:5979   */\n      iszero\n      tag_481\n      jumpi\n        /* \"#utility.yul\":5959:5977   */\n      tag_482\n      tag_402\n      jump\t// in\n    tag_482:\n        /* \"#utility.yul\":5942:5979   */\n    tag_481:\n        /* \"#utility.yul\":5792:5986   */\n      swap3\n      swap2\n      pop\n      pop\n      jump\t// out\n        /* \"#utility.yul\":5992:6402   */\n    tag_147:\n        /* \"#utility.yul\":6032:6039   */\n      0x00\n        /* \"#utility.yul\":6055:6075   */\n      tag_484\n        /* \"#utility.yul\":6073:6074   */\n      dup3\n        /* \"#utility.yul\":6055:6075   */\n      tag_388\n      jump\t// in\n    tag_484:\n        /* \"#utility.yul\":6050:6075   */\n      swap2\n      pop\n        /* \"#utility.yul\":6089:6109   */\n      tag_485\n        /* \"#utility.yul\":6107:6108   */\n      dup4\n        /* \"#utility.yul\":6089:6109   */\n      tag_388\n      jump\t// in\n    tag_485:\n        /* \"#utility.yul\":6084:6109   */\n      swap3\n      pop\n        /* \"#utility.yul\":6144:6145   */\n      dup3\n        /* \"#utility.yul\":6141:6142   */\n      dup3\n        /* \"#utility.yul\":6137:6146   */\n      mul\n        /* \"#utility.yul\":6166:6196   */\n      tag_486\n        /* \"#utility.yul\":6184:6195   */\n      dup2\n        /* \"#utility.yul\":6166:6196   */\n      tag_388\n      jump\t// in\n    tag_486:\n        /* \"#utility.yul\":6155:6196   */\n      swap2\n      pop\n        /* \"#utility.yul\":6345:6346   */\n      dup3\n        /* \"#utility.yul\":6336:6343   */\n      dup3\n        /* \"#utility.yul\":6332:6347   */\n      div\n        /* \"#utility.yul\":6329:6330   */\n      dup5\n        /* \"#utility.yul\":6326:6348   */\n      eq\n        /* \"#utility.yul\":6306:6307   */\n      dup4\n        /* \"#utility.yul\":6299:6308   */\n      iszero\n        /* \"#utility.yul\":6279:6362   */\n      or\n        /* \"#utility.yul\":6256:6395   */\n      tag_487\n      jumpi\n        /* \"#utility.yul\":6375:6393   */\n      tag_488\n      tag_402\n      jump\t// in\n    tag_488:\n        /* \"#utility.yul\":6256:6395   */\n    tag_487:\n        /* \"#utility.yul\":6040:6402   */\n      pop\n        /* \"#utility.yul\":5992:6402   */\n      swap3\n      swap2\n      pop\n      pop\n      jump\t// out\n        /* \"#utility.yul\":6408:6588   */\n    tag_403:\n        /* \"#utility.yul\":6456:6533   */\n      0x4e487b7100000000000000000000000000000000000000000000000000000000\n        /* \"#utility.yul\":6453:6454   */\n      0x00\n        /* \"#utility.yul\":6446:6534   */\n      mstore\n        /* \"#utility.yul\":6553:6557   */\n      0x12\n        /* \"#utility.yul\":6550:6551   */\n      0x04\n        /* \"#utility.yul\":6543:6558   */\n      mstore\n        /* \"#utility.yul\":6577:6581   */\n      0x24\n        /* \"#utility.yul\":6574:6575   */\n      0x00\n        /* \"#utility.yul\":6567:6582   */\n      revert\n        /* \"#utility.yul\":6594:6779   */\n    tag_149:\n        /* \"#utility.yul\":6634:6635   */\n      0x00\n        /* \"#utility.yul\":6651:6671   */\n      tag_491\n        /* \"#utility.yul\":6669:6670   */\n      dup3\n        /* \"#utility.yul\":6651:6671   */\n      tag_388\n      jump\t// in\n    tag_491:\n        /* \"#utility.yul\":6646:6671   */\n      swap2\n      pop\n        /* \"#utility.yul\":6685:6705   */\n      tag_492\n        /* \"#utility.yul\":6703:6704   */\n      dup4\n        /* \"#utility.yul\":6685:6705   */\n      tag_388\n      jump\t// in\n    tag_492:\n        /* \"#utility.yul\":6680:6705   */\n      swap3\n      pop\n        /* \"#utility.yul\":6724:6725   */\n      dup3\n        /* \"#utility.yul\":6714:6749   */\n      tag_493\n      jumpi\n        /* \"#utility.yul\":6729:6747   */\n      tag_494\n      tag_403\n      jump\t// in\n    tag_494:\n        /* \"#utility.yul\":6714:6749   */\n    tag_493:\n        /* \"#utility.yul\":6771:6772   */\n      dup3\n        /* \"#utility.yul\":6768:6769   */\n      dup3\n        /* \"#utility.yul\":6764:6773   */\n      div\n        /* \"#utility.yul\":6759:6773   */\n      swap1\n      pop\n        /* \"#utility.yul\":6594:6779   */\n      swap3\n      swap2\n      pop\n      pop\n      jump\t// out\n        /* \"#utility.yul\":6785:6976   */\n    tag_151:\n        /* \"#utility.yul\":6825:6828   */\n      0x00\n        /* \"#utility.yul\":6844:6864   */\n      tag_496\n        /* \"#utility.yul\":6862:6863   */\n      dup3\n        /* \"#utility.yul\":6844:6864   */\n      tag_388\n      jump\t// in\n    tag_496:\n        /* \"#utility.yul\":6839:6864   */\n      swap2\n      pop\n        /* \"#utility.yul\":6878:6898   */\n      tag_497\n        /* \"#utility.yul\":6896:6897   */\n      dup4\n        /* \"#utility.yul\":6878:6898   */\n      tag_388\n      jump\t// in\n    tag_497:\n        /* \"#utility.yul\":6873:6898   */\n      swap3\n      pop\n        /* \"#utility.yul\":6921:6922   */\n      dup3\n        /* \"#utility.yul\":6918:6919   */\n      dup3\n        /* \"#utility.yul\":6914:6923   */\n      add\n        /* \"#utility.yul\":6907:6923   */\n      swap1\n      pop\n        /* \"#utility.yul\":6942:6945   */\n      dup1\n        /* \"#utility.yul\":6939:6940   */\n      dup3\n        /* \"#utility.yul\":6936:6946   */\n      gt\n        /* \"#utility.yul\":6933:6969   */\n      iszero\n      tag_498\n      jumpi\n        /* \"#utility.yul\":6949:6967   */\n      tag_499\n      tag_402\n      jump\t// in\n    tag_499:\n        /* \"#utility.yul\":6933:6969   */\n    tag_498:\n        /* \"#utility.yul\":6785:6976   */\n      swap3\n      swap2\n      pop\n      pop\n      jump\t// out\n        /* \"#utility.yul\":6982:7314   */\n    tag_177:\n        /* \"#utility.yul\":7103:7107   */\n      0x00\n        /* \"#utility.yul\":7141:7143   */\n      0x40\n        /* \"#utility.yul\":7130:7139   */\n      dup3\n        /* \"#utility.yul\":7126:7144   */\n      add\n        /* \"#utility.yul\":7118:7144   */\n      swap1\n      pop\n        /* \"#utility.yul\":7154:7225   */\n      tag_501\n        /* \"#utility.yul\":7222:7223   */\n      0x00\n        /* \"#utility.yul\":7211:7220   */\n      dup4\n        /* \"#utility.yul\":7207:7224   */\n      add\n        /* \"#utility.yul\":7198:7204   */\n      dup6\n        /* \"#utility.yul\":7154:7225   */\n      tag_389\n      jump\t// in\n    tag_501:\n        /* \"#utility.yul\":7235:7307   */\n      tag_502\n        /* \"#utility.yul\":7303:7305   */\n      0x20\n        /* \"#utility.yul\":7292:7301   */\n      dup4\n        /* \"#utility.yul\":7288:7306   */\n      add\n        /* \"#utility.yul\":7279:7285   */\n      dup5\n        /* \"#utility.yul\":7235:7307   */\n      tag_389\n      jump\t// in\n    tag_502:\n        /* \"#utility.yul\":6982:7314   */\n      swap4\n      swap3\n      pop\n      pop\n      pop\n      jump\t// out\n        /* \"#utility.yul\":7320:7463   */\n    tag_404:\n        /* \"#utility.yul\":7377:7382   */\n      0x00\n        /* \"#utility.yul\":7408:7414   */\n      dup2\n        /* \"#utility.yul\":7402:7415   */\n      mload\n        /* \"#utility.yul\":7393:7415   */\n      swap1\n      pop\n        /* \"#utility.yul\":7424:7457   */\n      tag_504\n        /* \"#utility.yul\":7451:7456   */\n      dup2\n        /* \"#utility.yul\":7424:7457   */\n      tag_395\n      jump\t// in\n    tag_504:\n        /* \"#utility.yul\":7320:7463   */\n      swap3\n      swap2\n      pop\n      pop\n      jump\t// out\n        /* \"#utility.yul\":7469:7820   */\n    tag_220:\n        /* \"#utility.yul\":7539:7545   */\n      0x00\n        /* \"#utility.yul\":7588:7590   */\n      0x20\n        /* \"#utility.yul\":7576:7585   */\n      dup3\n        /* \"#utility.yul\":7567:7574   */\n      dup5\n        /* \"#utility.yul\":7563:7586   */\n      sub\n        /* \"#utility.yul\":7559:7591   */\n      slt\n        /* \"#utility.yul\":7556:7675   */\n      iszero\n      tag_506\n      jumpi\n        /* \"#utility.yul\":7594:7673   */\n      tag_507\n      tag_382\n      jump\t// in\n    tag_507:\n        /* \"#utility.yul\":7556:7675   */\n    tag_506:\n        /* \"#utility.yul\":7714:7715   */\n      0x00\n        /* \"#utility.yul\":7739:7803   */\n      tag_508\n        /* \"#utility.yul\":7795:7802   */\n      dup5\n        /* \"#utility.yul\":7786:7792   */\n      dup3\n        /* \"#utility.yul\":7775:7784   */\n      dup6\n        /* \"#utility.yul\":7771:7793   */\n      add\n        /* \"#utility.yul\":7739:7803   */\n      tag_404\n      jump\t// in\n    tag_508:\n        /* \"#utility.yul\":7729:7803   */\n      swap2\n      pop\n        /* \"#utility.yul\":7685:7813   */\n      pop\n        /* \"#utility.yul\":7469:7820   */\n      swap3\n      swap2\n      pop\n      pop\n      jump\t// out\n\n    auxdata: 0xa2646970667358221220be34a85245453fffb145496d3ec6737525a9990eccef758736d4bcf87b93f2f064736f6c63430008180033\n}\n",
				"bytecode": {
					"linkReferences": {},
					"object": "60a060405234801562000010575f80fd5b5060405162002eca38038062002eca833981810160405281019062000036919062000372565b335f73ffffffffffffffffffffffffffffffffffffffff168173ffffffffffffffffffffffffffffffffffffffff1603620000aa575f6040517f1e4fbdf7000000000000000000000000000000000000000000000000000000008152600401620000a19190620003c8565b60405180910390fd5b620000bb81620001e260201b60201c565b506001620000de620000d2620002a360201b60201c565b620002cc60201b60201c565b5f01819055505f73ffffffffffffffffffffffffffffffffffffffff168273ffffffffffffffffffffffffffffffffffffffff16036200014a576040517fd92e233d00000000000000000000000000000000000000000000000000000000815260040160405180910390fd5b8173ffffffffffffffffffffffffffffffffffffffff1660808173ffffffffffffffffffffffffffffffffffffffff1681525050806002819055506001600a5f3373ffffffffffffffffffffffffffffffffffffffff1673ffffffffffffffffffffffffffffffffffffffff1681526020019081526020015f205f6101000a81548160ff0219169083151502179055505050620003e3565b5f805f9054906101000a900473ffffffffffffffffffffffffffffffffffffffff169050815f806101000a81548173ffffffffffffffffffffffffffffffffffffffff021916908373ffffffffffffffffffffffffffffffffffffffff1602179055508173ffffffffffffffffffffffffffffffffffffffff168173ffffffffffffffffffffffffffffffffffffffff167f8be0079c531659141344cd1fd0a4f28419497f9722a3daafe3b4186f6b6457e060405160405180910390a35050565b5f7f9b779b17422d0df92223018b32b4d1fa46e071723d6817e2486d003becc55f005f1b905090565b5f819050919050565b5f80fd5b5f73ffffffffffffffffffffffffffffffffffffffff82169050919050565b5f6200030482620002d9565b9050919050565b6200031681620002f8565b811462000321575f80fd5b50565b5f8151905062000334816200030b565b92915050565b5f819050919050565b6200034e816200033a565b811462000359575f80fd5b50565b5f815190506200036c8162000343565b92915050565b5f80604083850312156200038b576200038a620002d5565b5b5f6200039a8582860162000324565b9250506020620003ad858286016200035c565b9150509250929050565b620003c281620002f8565b82525050565b5f602082019050620003dd5f830184620003b7565b92915050565b608051612a81620004495f395f81816106570152818161089b01528181610d6501528181610fc5015281816110f70152818161133a01528181611391015281816117f001528181611a8201528181611d3d01528181611dde0152611ed00152612a815ff3fe608060405234801561000f575f80fd5b50600436106101e2575f3560e01c8063817b1cd21161010d578063cd3daf9d116100a0578063e9fad8ee1161006f578063e9fad8ee146104fa578063ebe2b12b14610504578063f0f4426014610522578063f2fde38b1461053e576101e2565b8063cd3daf9d14610484578063d15166ff146104a2578063db2e21bc146104d2578063df136d65146104dc576101e2565b80638da5cb5b116100dc5780638da5cb5b146104105780639e447fc61461042e578063a694fc3a1461044a578063c8f33c9114610466576101e2565b8063817b1cd21461039c5780638456cb59146103ba5780638980f11f146103c45780638b876347146103e0576101e2565b80633f4ba83a116101855780636021726711610154578063602172671461032657806361d027b314610356578063715018a61461037457806380faa57d1461037e576101e2565b80633f4ba83a146102c25780635a5cd45e146102cc5780635c975abb146102ea5780635d773b2c14610308576101e2565b8063255a4f73116101c1578063255a4f73146102505780632e17de781461026c57806331d7a26214610288578063372500ab146102b8576101e2565b80628cc262146101e65780630e31648f14610216578063246132f914610234575b5f80fd5b61020060048036038101906101fb9190612650565b61055a565b60405161020d9190612693565b60405180910390f35b61021e610655565b60405161022b9190612707565b60405180910390f35b61024e6004803603810190610249919061274a565b610679565b005b61026a600480360381019061026591906127bd565b6109b9565b005b610286600480360381019061028191906127fb565b610acc565b005b6102a2600480360381019061029d9190612650565b610e03565b6040516102af9190612693565b60405180910390f35b6102c0610e18565b005b6102ca611196565b005b6102d46111fc565b6040516102e19190612693565b60405180910390f35b6102f2611245565b6040516102ff9190612835565b60405180910390f35b610310611257565b60405161031d9190612693565b60405180910390f35b610340600480360381019061033b9190612650565b61125d565b60405161034d9190612693565b60405180910390f35b61035e611272565b60405161036b919061285d565b60405180910390f35b61037c611297565b005b6103866112aa565b6040516103939190612693565b60405180910390f35b6103a46112c3565b6040516103b19190612693565b60405180910390f35b6103c26112c9565b005b6103de60048036038101906103d99190612876565b611330565b005b6103fa60048036038101906103f59190612650565b6114b2565b6040516104079190612693565b60405180910390f35b6104186114c7565b604051610425919061285d565b60405180910390f35b610448600480360381019061044391906127fb565b6114ee565b005b610464600480360381019061045f91906127fb565b611617565b005b61046e61188f565b60405161047b9190612693565b60405180910390f35b61048c611895565b6040516104999190612693565b60405180910390f35b6104bc60048036038101906104b79190612650565b6118fe565b6040516104c99190612835565b60405180910390f35b6104da61191b565b005b6104e4611b1f565b6040516104f19190612693565b60405180910390f35b610502611b25565b005b61050c611f72565b6040516105199190612693565b60405180910390f35b61053c60048036038101906105379190612650565b611f78565b005b61055860048036038101906105539190612650565b6121d9565b005b5f60095f8373ffffffffffffffffffffffffffffffffffffffff1673ffffffffffffffffffffffffffffffffffffffff1681526020019081526020015f2054670de0b6b3a764000060085f8573ffffffffffffffffffffffffffffffffffffffff1673ffffffffffffffffffffffffffffffffffffffff1681526020019081526020015f20546105e8611895565b6105f291906128e1565b60075f8673ffffffffffffffffffffffffffffffffffffffff1673ffffffffffffffffffffffffffffffffffffffff1681526020019081526020015f205461063a9190612914565b6106449190612982565b61064e91906129b2565b9050919050565b7f000000000000000000000000000000000000000000000000000000000000000081565b61068161225d565b5f61068a611895565b6005819055506106986112aa565b6004819055505f73ffffffffffffffffffffffffffffffffffffffff168173ffffffffffffffffffffffffffffffffffffffff1614610760576106da8161055a565b60095f8373ffffffffffffffffffffffffffffffffffffffff1673ffffffffffffffffffffffffffffffffffffffff1681526020019081526020015f208190555060055460085f8373ffffffffffffffffffffffffffffffffffffffff1673ffffffffffffffffffffffffffffffffffffffff1681526020019081526020015f20819055505b600a5f3373ffffffffffffffffffffffffffffffffffffffff1673ffffffffffffffffffffffffffffffffffffffff1681526020019081526020015f205f9054906101000a900460ff161580156107ea57506107ba6114c7565b73ffffffffffffffffffffffffffffffffffffffff163373ffffffffffffffffffffffffffffffffffffffff1614155b15610821576040517f1648fd0100000000000000000000000000000000000000000000000000000000815260040160405180910390fd5b5f830361085a576040517f1f2a200500000000000000000000000000000000000000000000000000000000815260040160405180910390fd5b5f8203610893576040517f1f2a200500000000000000000000000000000000000000000000000000000000815260040160405180910390fd5b6108e03330857f000000000000000000000000000000000000000000000000000000000000000073ffffffffffffffffffffffffffffffffffffffff1661227f909392919063ffffffff16565b600354421015610930575f426003546108f991906128e1565b90505f6002548261090a9190612914565b905083818661091991906129b2565b6109239190612982565b6002819055505050610943565b818361093c9190612982565b6002819055505b42600481905550814261095691906129b2565b6003819055503373ffffffffffffffffffffffffffffffffffffffff167f8a888ea653a580e40660778ee0c0dabd23a81e8e2c8dcfb938e40982a157d81984846040516109a49291906129e5565b60405180910390a2506109b56122d4565b5050565b6109c16122ee565b5f73ffffffffffffffffffffffffffffffffffffffff168273ffffffffffffffffffffffffffffffffffffffff1603610a26576040517fd92e233d00000000000000000000000000000000000000000000000000000000815260040160405180910390fd5b80600a5f8473ffffffffffffffffffffffffffffffffffffffff1673ffffffffffffffffffffffffffffffffffffffff1681526020019081526020015f205f6101000a81548160ff0219169083151502179055508173ffffffffffffffffffffffffffffffffffffffff167fb33ca1dabfb28a2e1bd06b332c396b1a3d538278691341a5503bbad53f91919782604051610ac09190612835565b60405180910390a25050565b610ad461225d565b600b5f9054906101000a900460ff1615610b1a576040517fab35696f00000000000000000000000000000000000000000000000000000000815260040160405180910390fd5b33610b23611895565b600581905550610b316112aa565b6004819055505f73ffffffffffffffffffffffffffffffffffffffff168173ffffffffffffffffffffffffffffffffffffffff1614610bf957610b738161055a565b60095f8373ffffffffffffffffffffffffffffffffffffffff1673ffffffffffffffffffffffffffffffffffffffff1681526020019081526020015f208190555060055460085f8373ffffffffffffffffffffffffffffffffffffffff1673ffffffffffffffffffffffffffffffffffffffff1681526020019081526020015f20819055505b5f8203610c32576040517f1f2a200500000000000000000000000000000000000000000000000000000000815260040160405180910390fd5b60075f3373ffffffffffffffffffffffffffffffffffffffff1673ffffffffffffffffffffffffffffffffffffffff1681526020019081526020015f2054821115610cf3578160075f3373ffffffffffffffffffffffffffffffffffffffff1673ffffffffffffffffffffffffffffffffffffffff1681526020019081526020015f20546040517f45be0a26000000000000000000000000000000000000000000000000000000008152600401610cea9291906129e5565b60405180910390fd5b8160075f3373ffffffffffffffffffffffffffffffffffffffff1673ffffffffffffffffffffffffffffffffffffffff1681526020019081526020015f205f828254610d3f91906128e1565b925050819055508160065f828254610d5791906128e1565b92505081905550610da933837f000000000000000000000000000000000000000000000000000000000000000073ffffffffffffffffffffffffffffffffffffffff166123759092919063ffffffff16565b3373ffffffffffffffffffffffffffffffffffffffff167f0f5bb82176feb1b5e747e28471aa92156a04d9f3ab9f45f28e2d704232b93f7583604051610def9190612693565b60405180910390a250610e006122d4565b50565b6009602052805f5260405f205f915090505481565b610e2061225d565b600b5f9054906101000a900460ff1615610e66576040517fab35696f00000000000000000000000000000000000000000000000000000000815260040160405180910390fd5b33610e6f611895565b600581905550610e7d6112aa565b6004819055505f73ffffffffffffffffffffffffffffffffffffffff168173ffffffffffffffffffffffffffffffffffffffff1614610f4557610ebf8161055a565b60095f8373ffffffffffffffffffffffffffffffffffffffff1673ffffffffffffffffffffffffffffffffffffffff1681526020019081526020015f208190555060055460085f8373ffffffffffffffffffffffffffffffffffffffff1673ffffffffffffffffffffffffffffffffffffffff1681526020019081526020015f20819055505b5f60095f3373ffffffffffffffffffffffffffffffffffffffff1673ffffffffffffffffffffffffffffffffffffffff1681526020019081526020015f205490505f8103610fbf576040517fb71ea17e00000000000000000000000000000000000000000000000000000000815260040160405180910390fd5b5f6006547f000000000000000000000000000000000000000000000000000000000000000073ffffffffffffffffffffffffffffffffffffffff166370a08231306040518263ffffffff1660e01b815260040161101c919061285d565b602060405180830381865afa158015611037573d5f803e3d5ffd5b505050506040513d601f19601f8201168201806040525081019061105b9190612a20565b61106591906128e1565b9050808211156110ae5781816040517f65ac9d430000000000000000000000000000000000000000000000000000000081526004016110a59291906129e5565b60405180910390fd5b5f60095f3373ffffffffffffffffffffffffffffffffffffffff1673ffffffffffffffffffffffffffffffffffffffff1681526020019081526020015f208190555061113b33837f000000000000000000000000000000000000000000000000000000000000000073ffffffffffffffffffffffffffffffffffffffff166123759092919063ffffffff16565b3373ffffffffffffffffffffffffffffffffffffffff167ffc30cddea38e2bf4d6ea7d3f9ed3b6ad7f176419f4963bd81318067a4aee73fe836040516111819190612693565b60405180910390a25050506111946122d4565b565b61119e6122ee565b5f600b5f6101000a81548160ff0219169083151502179055503373ffffffffffffffffffffffffffffffffffffffff167f5db9ee0a495bf2e6ff9c91a7834c1ba4fdd244a5e8aa4e537bd38aeae4b073aa60405160405180910390a2565b5f806006540361120e575f9050611242565b5f6301e133806002546112219190612914565b9050600654612710826112349190612914565b61123e9190612982565b9150505b90565b600b5f9054906101000a900460ff1681565b60025481565b6007602052805f5260405f205f915090505481565b60015f9054906101000a900473ffffffffffffffffffffffffffffffffffffffff1681565b61129f6122ee565b6112a85f6123c8565b565b5f60035442106112bc576003546112be565b425b905090565b60065481565b6112d16122ee565b6001600b5f6101000a81548160ff0219169083151502179055503373ffffffffffffffffffffffffffffffffffffffff167f62e78cea01bee320cd4e420270b5ea74000d11b0c9f74754ebdbfc544b05a25860405160405180910390a2565b6113386122ee565b7f000000000000000000000000000000000000000000000000000000000000000073ffffffffffffffffffffffffffffffffffffffff168273ffffffffffffffffffffffffffffffffffffffff160361147c575f6006547f000000000000000000000000000000000000000000000000000000000000000073ffffffffffffffffffffffffffffffffffffffff166370a08231306040518263ffffffff1660e01b81526004016113e8919061285d565b602060405180830381865afa158015611403573d5f803e3d5ffd5b505050506040513d601f19601f820116820180604052508101906114279190612a20565b61143191906128e1565b90508082111561147a5781816040517f65ac9d430000000000000000000000000000000000000000000000000000000081526004016114719291906129e5565b60405180910390fd5b505b6114ae6114876114c7565b828473ffffffffffffffffffffffffffffffffffffffff166123759092919063ffffffff16565b5050565b6008602052805f5260405f205f915090505481565b5f805f9054906101000a900473ffffffffffffffffffffffffffffffffffffffff16905090565b6114f66122ee565b5f6114ff611895565b60058190555061150d6112aa565b6004819055505f73ffffffffffffffffffffffffffffffffffffffff168173ffffffffffffffffffffffffffffffffffffffff16146115d55761154f8161055a565b60095f8373ffffffffffffffffffffffffffffffffffffffff1673ffffffffffffffffffffffffffffffffffffffff1681526020019081526020015f208190555060055460085f8373ffffffffffffffffffffffffffffffffffffffff1673ffffffffffffffffffffffffffffffffffffffff1681526020019081526020015f20819055505b816002819055507f8cbfafc8e0d9c5c81401c4b9c6e7d201198adc7eb8f8f1556c195ecd4c0a0e7b8260405161160b9190612693565b60405180910390a15050565b61161f61225d565b600b5f9054906101000a900460ff1615611665576040517fab35696f00000000000000000000000000000000000000000000000000000000815260040160405180910390fd5b3361166e611895565b60058190555061167c6112aa565b6004819055505f73ffffffffffffffffffffffffffffffffffffffff168173ffffffffffffffffffffffffffffffffffffffff1614611744576116be8161055a565b60095f8373ffffffffffffffffffffffffffffffffffffffff1673ffffffffffffffffffffffffffffffffffffffff1681526020019081526020015f208190555060055460085f8373ffffffffffffffffffffffffffffffffffffffff1673ffffffffffffffffffffffffffffffffffffffff1681526020019081526020015f20819055505b5f820361177d576040517f1f2a200500000000000000000000000000000000000000000000000000000000815260040160405180910390fd5b8160075f3373ffffffffffffffffffffffffffffffffffffffff1673ffffffffffffffffffffffffffffffffffffffff1681526020019081526020015f205f8282546117c991906129b2565b925050819055508160065f8282546117e191906129b2565b925050819055506118353330847f000000000000000000000000000000000000000000000000000000000000000073ffffffffffffffffffffffffffffffffffffffff1661227f909392919063ffffffff16565b3373ffffffffffffffffffffffffffffffffffffffff167f9e71bc8eea02a63969f509818f2dafb9254532904319f9dbda79b67bd34a5f3d8360405161187b9190612693565b60405180910390a25061188c6122d4565b50565b60045481565b5f80600654036118a95760055490506118fb565b600654670de0b6b3a76400006002546004546118c36112aa565b6118cd91906128e1565b6118d79190612914565b6118e19190612914565b6118eb9190612982565b6005546118f891906129b2565b90505b90565b600a602052805f5260405f205f915054906101000a900460ff1681565b61192361225d565b5f60075f3373ffffffffffffffffffffffffffffffffffffffff1673ffffffffffffffffffffffffffffffffffffffff1681526020019081526020015f205490505f810361199d576040517f1f2a200500000000000000000000000000000000000000000000000000000000815260040160405180910390fd5b5f60075f3373ffffffffffffffffffffffffffffffffffffffff1673ffffffffffffffffffffffffffffffffffffffff1681526020019081526020015f20819055505f60095f3373ffffffffffffffffffffffffffffffffffffffff1673ffffffffffffffffffffffffffffffffffffffff1681526020019081526020015f20819055505f60085f3373ffffffffffffffffffffffffffffffffffffffff1673ffffffffffffffffffffffffffffffffffffffff1681526020019081526020015f20819055508060065f828254611a7491906128e1565b92505081905550611ac633827f000000000000000000000000000000000000000000000000000000000000000073ffffffffffffffffffffffffffffffffffffffff166123759092919063ffffffff16565b3373ffffffffffffffffffffffffffffffffffffffff167f5fafa99d0643513820be26656b45130b01e1c03062e1266bf36f88cbd3bd969582604051611b0c9190612693565b60405180910390a250611b1d6122d4565b565b60055481565b611b2d61225d565b600b5f9054906101000a900460ff1615611b73576040517fab35696f00000000000000000000000000000000000000000000000000000000815260040160405180910390fd5b33611b7c611895565b600581905550611b8a6112aa565b6004819055505f73ffffffffffffffffffffffffffffffffffffffff168173ffffffffffffffffffffffffffffffffffffffff1614611c5257611bcc8161055a565b60095f8373ffffffffffffffffffffffffffffffffffffffff1673ffffffffffffffffffffffffffffffffffffffff1681526020019081526020015f208190555060055460085f8373ffffffffffffffffffffffffffffffffffffffff1673ffffffffffffffffffffffffffffffffffffffff1681526020019081526020015f20819055505b5f60075f3373ffffffffffffffffffffffffffffffffffffffff1673ffffffffffffffffffffffffffffffffffffffff1681526020019081526020015f205490505f60095f3373ffffffffffffffffffffffffffffffffffffffff1673ffffffffffffffffffffffffffffffffffffffff1681526020019081526020015f205490505f821115611dd0575f60075f3373ffffffffffffffffffffffffffffffffffffffff1673ffffffffffffffffffffffffffffffffffffffff1681526020019081526020015f20819055508160065f828254611d2f91906128e1565b92505081905550611d8133837f000000000000000000000000000000000000000000000000000000000000000073ffffffffffffffffffffffffffffffffffffffff166123759092919063ffffffff16565b3373ffffffffffffffffffffffffffffffffffffffff167f0f5bb82176feb1b5e747e28471aa92156a04d9f3ab9f45f28e2d704232b93f7583604051611dc79190612693565b60405180910390a25b5f811115611f65575f6006547f000000000000000000000000000000000000000000000000000000000000000073ffffffffffffffffffffffffffffffffffffffff166370a08231306040518263ffffffff1660e01b8152600401611e35919061285d565b602060405180830381865afa158015611e50573d5f803e3d5ffd5b505050506040513d601f19601f82011682018060405250810190611e749190612a20565b611e7e91906128e1565b9050808211611f63575f60095f3373ffffffffffffffffffffffffffffffffffffffff1673ffffffffffffffffffffffffffffffffffffffff1681526020019081526020015f2081905550611f1433837f000000000000000000000000000000000000000000000000000000000000000073ffffffffffffffffffffffffffffffffffffffff166123759092919063ffffffff16565b3373ffffffffffffffffffffffffffffffffffffffff167ffc30cddea38e2bf4d6ea7d3f9ed3b6ad7f176419f4963bd81318067a4aee73fe83604051611f5a9190612693565b60405180910390a25b505b505050611f706122d4565b565b60035481565b611f806122ee565b5f73ffffffffffffffffffffffffffffffffffffffff168173ffffffffffffffffffffffffffffffffffffffff1603611fe5576040517fd92e233d00000000000000000000000000000000000000000000000000000000815260040160405180910390fd5b5f73ffffffffffffffffffffffffffffffffffffffff1660015f9054906101000a900473ffffffffffffffffffffffffffffffffffffffff1673ffffffffffffffffffffffffffffffffffffffff16146120af575f600a5f60015f9054906101000a900473ffffffffffffffffffffffffffffffffffffffff1673ffffffffffffffffffffffffffffffffffffffff1673ffffffffffffffffffffffffffffffffffffffff1681526020019081526020015f205f6101000a81548160ff0219169083151502179055505b8060015f6101000a81548173ffffffffffffffffffffffffffffffffffffffff021916908373ffffffffffffffffffffffffffffffffffffffff1602179055506001600a5f8373ffffffffffffffffffffffffffffffffffffffff1673ffffffffffffffffffffffffffffffffffffffff1681526020019081526020015f205f6101000a81548160ff0219169083151502179055508073ffffffffffffffffffffffffffffffffffffffff167f3c864541ef71378c6229510ed90f376565ee42d9c5e0904a984a9e863e6db44f60405160405180910390a28073ffffffffffffffffffffffffffffffffffffffff167fb33ca1dabfb28a2e1bd06b332c396b1a3d538278691341a5503bbad53f91919760016040516121ce9190612835565b60405180910390a250565b6121e16122ee565b5f73ffffffffffffffffffffffffffffffffffffffff168173ffffffffffffffffffffffffffffffffffffffff1603612251575f6040517f1e4fbdf7000000000000000000000000000000000000000000000000000000008152600401612248919061285d565b60405180910390fd5b61225a816123c8565b50565b612265612489565b60026122776122726124ca565b6124f3565b5f0181905550565b61228d8484848460016124fc565b6122ce57836040517f5274afe70000000000000000000000000000000000000000000000000000000081526004016122c5919061285d565b60405180910390fd5b50505050565b60016122e66122e16124ca565b6124f3565b5f0181905550565b6122f661256d565b73ffffffffffffffffffffffffffffffffffffffff166123146114c7565b73ffffffffffffffffffffffffffffffffffffffff16146123735761233761256d565b6040517f118cdaa700000000000000000000000000000000000000000000000000000000815260040161236a919061285d565b60405180910390fd5b565b6123828383836001612574565b6123c357826040517f5274afe70000000000000000000000000000000000000000000000000000000081526004016123ba919061285d565b60405180910390fd5b505050565b5f805f9054906101000a900473ffffffffffffffffffffffffffffffffffffffff169050815f806101000a81548173ffffffffffffffffffffffffffffffffffffffff021916908373ffffffffffffffffffffffffffffffffffffffff1602179055508173ffffffffffffffffffffffffffffffffffffffff168173ffffffffffffffffffffffffffffffffffffffff167f8be0079c531659141344cd1fd0a4f28419497f9722a3daafe3b4186f6b6457e060405160405180910390a35050565b6124916125d6565b156124c8576040517f3ee5aeb500000000000000000000000000000000000000000000000000000000815260040160405180910390fd5b565b5f7f9b779b17422d0df92223018b32b4d1fa46e071723d6817e2486d003becc55f005f1b905090565b5f819050919050565b5f806323b872dd60e01b9050604051815f525f1960601c87166004525f1960601c86166024528460445260205f60645f808c5af1925060015f5114831661255a57838315161561254e573d5f823e3d81fd5b5f883b113d1516831692505b806040525f606052505095945050505050565b5f33905090565b5f8063a9059cbb60e01b9050604051815f525f1960601c86166004528460245260205f60445f808b5af1925060015f511483166125c85783831516156125bc573d5f823e3d81fd5b5f873b113d1516831692505b806040525050949350505050565b5f60026125e96125e46124ca565b6124f3565b5f015414905090565b5f80fd5b5f73ffffffffffffffffffffffffffffffffffffffff82169050919050565b5f61261f826125f6565b9050919050565b61262f81612615565b8114612639575f80fd5b50565b5f8135905061264a81612626565b92915050565b5f60208284031215612665576126646125f2565b5b5f6126728482850161263c565b91505092915050565b5f819050919050565b61268d8161267b565b82525050565b5f6020820190506126a65f830184612684565b92915050565b5f819050919050565b5f6126cf6126ca6126c5846125f6565b6126ac565b6125f6565b9050919050565b5f6126e0826126b5565b9050919050565b5f6126f1826126d6565b9050919050565b612701816126e7565b82525050565b5f60208201905061271a5f8301846126f8565b92915050565b6127298161267b565b8114612733575f80fd5b50565b5f8135905061274481612720565b92915050565b5f80604083850312156127605761275f6125f2565b5b5f61276d85828601612736565b925050602061277e85828601612736565b9150509250929050565b5f8115159050919050565b61279c81612788565b81146127a6575f80fd5b50565b5f813590506127b781612793565b92915050565b5f80604083850312156127d3576127d26125f2565b5b5f6127e08582860161263c565b92505060206127f1858286016127a9565b9150509250929050565b5f602082840312156128105761280f6125f2565b5b5f61281d84828501612736565b91505092915050565b61282f81612788565b82525050565b5f6020820190506128485f830184612826565b92915050565b61285781612615565b82525050565b5f6020820190506128705f83018461284e565b92915050565b5f806040838503121561288c5761288b6125f2565b5b5f6128998582860161263c565b92505060206128aa85828601612736565b9150509250929050565b7f4e487b71000000000000000000000000000000000000000000000000000000005f52601160045260245ffd5b5f6128eb8261267b565b91506128f68361267b565b925082820390508181111561290e5761290d6128b4565b5b92915050565b5f61291e8261267b565b91506129298361267b565b92508282026129378161267b565b9150828204841483151761294e5761294d6128b4565b5b5092915050565b7f4e487b71000000000000000000000000000000000000000000000000000000005f52601260045260245ffd5b5f61298c8261267b565b91506129978361267b565b9250826129a7576129a6612955565b5b828204905092915050565b5f6129bc8261267b565b91506129c78361267b565b92508282019050808211156129df576129de6128b4565b5b92915050565b5f6040820190506129f85f830185612684565b612a056020830184612684565b9392505050565b5f81519050612a1a81612720565b92915050565b5f60208284031215612a3557612a346125f2565b5b5f612a4284828501612a0c565b9150509291505056fea2646970667358221220be34a85245453fffb145496d3ec6737525a9990eccef758736d4bcf87b93f2f064736f6c63430008180033",
					"opcodes": "PUSH1 0xA0 PUSH1 0x40 MSTORE CALLVALUE DUP1 ISZERO PUSH3 0x10 JUMPI PUSH0 DUP1 REVERT JUMPDEST POP PUSH1 0x40 MLOAD PUSH3 0x2ECA CODESIZE SUB DUP1 PUSH3 0x2ECA DUP4 CODECOPY DUP2 DUP2 ADD PUSH1 0x40 MSTORE DUP2 ADD SWAP1 PUSH3 0x36 SWAP2 SWAP1 PUSH3 0x372 JUMP JUMPDEST CALLER PUSH0 PUSH20 0xFFFFFFFFFFFFFFFFFFFFFFFFFFFFFFFFFFFFFFFF AND DUP2 PUSH20 0xFFFFFFFFFFFFFFFFFFFFFFFFFFFFFFFFFFFFFFFF AND SUB PUSH3 0xAA JUMPI PUSH0 PUSH1 0x40 MLOAD PUSH32 0x1E4FBDF700000000000000000000000000000000000000000000000000000000 DUP2 MSTORE PUSH1 0x4 ADD PUSH3 0xA1 SWAP2 SWAP1 PUSH3 0x3C8 JUMP JUMPDEST PUSH1 0x40 MLOAD DUP1 SWAP2 SUB SWAP1 REVERT JUMPDEST PUSH3 0xBB DUP2 PUSH3 0x1E2 PUSH1 0x20 SHL PUSH1 0x20 SHR JUMP JUMPDEST POP PUSH1 0x1 PUSH3 0xDE PUSH3 0xD2 PUSH3 0x2A3 PUSH1 0x20 SHL PUSH1 0x20 SHR JUMP JUMPDEST PUSH3 0x2CC PUSH1 0x20 SHL PUSH1 0x20 SHR JUMP JUMPDEST PUSH0 ADD DUP2 SWAP1 SSTORE POP PUSH0 PUSH20 0xFFFFFFFFFFFFFFFFFFFFFFFFFFFFFFFFFFFFFFFF AND DUP3 PUSH20 0xFFFFFFFFFFFFFFFFFFFFFFFFFFFFFFFFFFFFFFFF AND SUB PUSH3 0x14A JUMPI PUSH1 0x40 MLOAD PUSH32 0xD92E233D00000000000000000000000000000000000000000000000000000000 DUP2 MSTORE PUSH1 0x4 ADD PUSH1 0x40 MLOAD DUP1 SWAP2 SUB SWAP1 REVERT JUMPDEST DUP2 PUSH20 0xFFFFFFFFFFFFFFFFFFFFFFFFFFFFFFFFFFFFFFFF AND PUSH1 0x80 DUP2 PUSH20 0xFFFFFFFFFFFFFFFFFFFFFFFFFFFFFFFFFFFFFFFF AND DUP2 MSTORE POP POP DUP1 PUSH1 0x2 DUP2 SWAP1 SSTORE POP PUSH1 0x1 PUSH1 0xA PUSH0 CALLER PUSH20 0xFFFFFFFFFFFFFFFFFFFFFFFFFFFFFFFFFFFFFFFF AND PUSH20 0xFFFFFFFFFFFFFFFFFFFFFFFFFFFFFFFFFFFFFFFF AND DUP2 MSTORE PUSH1 0x20 ADD SWAP1 DUP2 MSTORE PUSH1 0x20 ADD PUSH0 KECCAK256 PUSH0 PUSH2 0x100 EXP DUP2 SLOAD DUP2 PUSH1 0xFF MUL NOT AND SWAP1 DUP4 ISZERO ISZERO MUL OR SWAP1 SSTORE POP POP POP PUSH3 0x3E3 JUMP JUMPDEST PUSH0 DUP1 PUSH0 SWAP1 SLOAD SWAP1 PUSH2 0x100 EXP SWAP1 DIV PUSH20 0xFFFFFFFFFFFFFFFFFFFFFFFFFFFFFFFFFFFFFFFF AND SWAP1 POP DUP2 PUSH0 DUP1 PUSH2 0x100 EXP DUP2 SLOAD DUP2 PUSH20 0xFFFFFFFFFFFFFFFFFFFFFFFFFFFFFFFFFFFFFFFF MUL NOT AND SWAP1 DUP4 PUSH20 0xFFFFFFFFFFFFFFFFFFFFFFFFFFFFFFFFFFFFFFFF AND MUL OR SWAP1 SSTORE POP DUP2 PUSH20 0xFFFFFFFFFFFFFFFFFFFFFFFFFFFFFFFFFFFFFFFF AND DUP2 PUSH20 0xFFFFFFFFFFFFFFFFFFFFFFFFFFFFFFFFFFFFFFFF AND PUSH32 0x8BE0079C531659141344CD1FD0A4F28419497F9722A3DAAFE3B4186F6B6457E0 PUSH1 0x40 MLOAD PUSH1 0x40 MLOAD DUP1 SWAP2 SUB SWAP1 LOG3 POP POP JUMP JUMPDEST PUSH0 PUSH32 0x9B779B17422D0DF92223018B32B4D1FA46E071723D6817E2486D003BECC55F00 PUSH0 SHL SWAP1 POP SWAP1 JUMP JUMPDEST PUSH0 DUP2 SWAP1 POP SWAP2 SWAP1 POP JUMP JUMPDEST PUSH0 DUP1 REVERT JUMPDEST PUSH0 PUSH20 0xFFFFFFFFFFFFFFFFFFFFFFFFFFFFFFFFFFFFFFFF DUP3 AND SWAP1 POP SWAP2 SWAP1 POP JUMP JUMPDEST PUSH0 PUSH3 0x304 DUP3 PUSH3 0x2D9 JUMP JUMPDEST SWAP1 POP SWAP2 SWAP1 POP JUMP JUMPDEST PUSH3 0x316 DUP2 PUSH3 0x2F8 JUMP JUMPDEST DUP2 EQ PUSH3 0x321 JUMPI PUSH0 DUP1 REVERT JUMPDEST POP JUMP JUMPDEST PUSH0 DUP2 MLOAD SWAP1 POP PUSH3 0x334 DUP2 PUSH3 0x30B JUMP JUMPDEST SWAP3 SWAP2 POP POP JUMP JUMPDEST PUSH0 DUP2 SWAP1 POP SWAP2 SWAP1 POP JUMP JUMPDEST PUSH3 0x34E DUP2 PUSH3 0x33A JUMP JUMPDEST DUP2 EQ PUSH3 0x359 JUMPI PUSH0 DUP1 REVERT JUMPDEST POP JUMP JUMPDEST PUSH0 DUP2 MLOAD SWAP1 POP PUSH3 0x36C DUP2 PUSH3 0x343 JUMP JUMPDEST SWAP3 SWAP2 POP POP JUMP JUMPDEST PUSH0 DUP1 PUSH1 0x40 DUP4 DUP6 SUB SLT ISZERO PUSH3 0x38B JUMPI PUSH3 0x38A PUSH3 0x2D5 JUMP JUMPDEST JUMPDEST PUSH0 PUSH3 0x39A DUP6 DUP3 DUP7 ADD PUSH3 0x324 JUMP JUMPDEST SWAP3 POP POP PUSH1 0x20 PUSH3 0x3AD DUP6 DUP3 DUP7 ADD PUSH3 0x35C JUMP JUMPDEST SWAP2 POP POP SWAP3 POP SWAP3 SWAP1 POP JUMP JUMPDEST PUSH3 0x3C2 DUP2 PUSH3 0x2F8 JUMP JUMPDEST DUP3 MSTORE POP POP JUMP JUMPDEST PUSH0 PUSH1 0x20 DUP3 ADD SWAP1 POP PUSH3 0x3DD PUSH0 DUP4 ADD DUP5 PUSH3 0x3B7 JUMP JUMPDEST SWAP3 SWAP2 POP POP JUMP JUMPDEST PUSH1 0x80 MLOAD PUSH2 0x2A81 PUSH3 0x449 PUSH0 CODECOPY PUSH0 DUP2 DUP2 PUSH2 0x657 ADD MSTORE DUP2 DUP2 PUSH2 0x89B ADD MSTORE DUP2 DUP2 PUSH2 0xD65 ADD MSTORE DUP2 DUP2 PUSH2 0xFC5 ADD MSTORE DUP2 DUP2 PUSH2 0x10F7 ADD MSTORE DUP2 DUP2 PUSH2 0x133A ADD MSTORE DUP2 DUP2 PUSH2 0x1391 ADD MSTORE DUP2 DUP2 PUSH2 0x17F0 ADD MSTORE DUP2 DUP2 PUSH2 0x1A82 ADD MSTORE DUP2 DUP2 PUSH2 0x1D3D ADD MSTORE DUP2 DUP2 PUSH2 0x1DDE ADD MSTORE PUSH2 0x1ED0 ADD MSTORE PUSH2 0x2A81 PUSH0 RETURN INVALID PUSH1 0x80 PUSH1 0x40 MSTORE CALLVALUE DUP1 ISZERO PUSH2 0xF JUMPI PUSH0 DUP1 REVERT JUMPDEST POP PUSH1 0x4 CALLDATASIZE LT PUSH2 0x1E2 JUMPI PUSH0 CALLDATALOAD PUSH1 0xE0 SHR DUP1 PUSH4 0x817B1CD2 GT PUSH2 0x10D JUMPI DUP1 PUSH4 0xCD3DAF9D GT PUSH2 0xA0 JUMPI DUP1 PUSH4 0xE9FAD8EE GT PUSH2 0x6F JUMPI DUP1 PUSH4 0xE9FAD8EE EQ PUSH2 0x4FA JUMPI DUP1 PUSH4 0xEBE2B12B EQ PUSH2 0x504 JUMPI DUP1 PUSH4 0xF0F44260 EQ PUSH2 0x522 JUMPI DUP1 PUSH4 0xF2FDE38B EQ PUSH2 0x53E JUMPI PUSH2 0x1E2 JUMP JUMPDEST DUP1 PUSH4 0xCD3DAF9D EQ PUSH2 0x484 JUMPI DUP1 PUSH4 0xD15166FF EQ PUSH2 0x4A2 JUMPI DUP1 PUSH4 0xDB2E21BC EQ PUSH2 0x4D2 JUMPI DUP1 PUSH4 0xDF136D65 EQ PUSH2 0x4DC JUMPI PUSH2 0x1E2 JUMP JUMPDEST DUP1 PUSH4 0x8DA5CB5B GT PUSH2 0xDC JUMPI DUP1 PUSH4 0x8DA5CB5B EQ PUSH2 0x410 JUMPI DUP1 PUSH4 0x9E447FC6 EQ PUSH2 0x42E JUMPI DUP1 PUSH4 0xA694FC3A EQ PUSH2 0x44A JUMPI DUP1 PUSH4 0xC8F33C91 EQ PUSH2 0x466 JUMPI PUSH2 0x1E2 JUMP JUMPDEST DUP1 PUSH4 0x817B1CD2 EQ PUSH2 0x39C JUMPI DUP1 PUSH4 0x8456CB59 EQ PUSH2 0x3BA JUMPI DUP1 PUSH4 0x8980F11F EQ PUSH2 0x3C4 JUMPI DUP1 PUSH4 0x8B876347 EQ PUSH2 0x3E0 JUMPI PUSH2 0x1E2 JUMP JUMPDEST DUP1 PUSH4 0x3F4BA83A GT PUSH2 0x185 JUMPI DUP1 PUSH4 0x60217267 GT PUSH2 0x154 JUMPI DUP1 PUSH4 0x60217267 EQ PUSH2 0x326 JUMPI DUP1 PUSH4 0x61D027B3 EQ PUSH2 0x356 JUMPI DUP1 PUSH4 0x715018A6 EQ PUSH2 0x374 JUMPI DUP1 PUSH4 0x80FAA57D EQ PUSH2 0x37E JUMPI PUSH2 0x1E2 JUMP JUMPDEST DUP1 PUSH4 0x3F4BA83A EQ PUSH2 0x2C2 JUMPI DUP1 PUSH4 0x5A5CD45E EQ PUSH2 0x2CC JUMPI DUP1 PUSH4 0x5C975ABB EQ PUSH2 0x2EA JUMPI DUP1 PUSH4 0x5D773B2C EQ PUSH2 0x308 JUMPI PUSH2 0x1E2 JUMP JUMPDEST DUP1 PUSH4 0x255A4F73 GT PUSH2 0x1C1 JUMPI DUP1 PUSH4 0x255A4F73 EQ PUSH2 0x250 JUMPI DUP1 PUSH4 0x2E17DE78 EQ PUSH2 0x26C JUMPI DUP1 PUSH4 0x31D7A262 EQ PUSH2 0x288 JUMPI DUP1 PUSH4 0x372500AB EQ PUSH2 0x2B8 JUMPI PUSH2 0x1E2 JUMP JUMPDEST DUP1 PUSH3 0x8CC262 EQ PUSH2 0x1E6 JUMPI DUP1 PUSH4 0xE31648F EQ PUSH2 0x216 JUMPI DUP1 PUSH4 0x246132F9 EQ PUSH2 0x234 JUMPI JUMPDEST PUSH0 DUP1 REVERT JUMPDEST PUSH2 0x200 PUSH1 0x4 DUP1 CALLDATASIZE SUB DUP2 ADD SWAP1 PUSH2 0x1FB SWAP2 SWAP1 PUSH2 0x2650 JUMP JUMPDEST PUSH2 0x55A JUMP JUMPDEST PUSH1 0x40 MLOAD PUSH2 0x20D SWAP2 SWAP1 PUSH2 0x2693 JUMP JUMPDEST PUSH1 0x40 MLOAD DUP1 SWAP2 SUB SWAP1 RETURN JUMPDEST PUSH2 0x21E PUSH2 0x655 JUMP JUMPDEST PUSH1 0x40 MLOAD PUSH2 0x22B SWAP2 SWAP1 PUSH2 0x2707 JUMP JUMPDEST PUSH1 0x40 MLOAD DUP1 SWAP2 SUB SWAP1 RETURN JUMPDEST PUSH2 0x24E PUSH1 0x4 DUP1 CALLDATASIZE SUB DUP2 ADD SWAP1 PUSH2 0x249 SWAP2 SWAP1 PUSH2 0x274A JUMP JUMPDEST PUSH2 0x679 JUMP JUMPDEST STOP JUMPDEST PUSH2 0x26A PUSH1 0x4 DUP1 CALLDATASIZE SUB DUP2 ADD SWAP1 PUSH2 0x265 SWAP2 SWAP1 PUSH2 0x27BD JUMP JUMPDEST PUSH2 0x9B9 JUMP JUMPDEST STOP JUMPDEST PUSH2 0x286 PUSH1 0x4 DUP1 CALLDATASIZE SUB DUP2 ADD SWAP1 PUSH2 0x281 SWAP2 SWAP1 PUSH2 0x27FB JUMP JUMPDEST PUSH2 0xACC JUMP JUMPDEST STOP JUMPDEST PUSH2 0x2A2 PUSH1 0x4 DUP1 CALLDATASIZE SUB DUP2 ADD SWAP1 PUSH2 0x29D SWAP2 SWAP1 PUSH2 0x2650 JUMP JUMPDEST PUSH2 0xE03 JUMP JUMPDEST PUSH1 0x40 MLOAD PUSH2 0x2AF SWAP2 SWAP1 PUSH2 0x2693 JUMP JUMPDEST PUSH1 0x40 MLOAD DUP1 SWAP2 SUB SWAP1 RETURN JUMPDEST PUSH2 0x2C0 PUSH2 0xE18 JUMP JUMPDEST STOP JUMPDEST PUSH2 0x2CA PUSH2 0x1196 JUMP JUMPDEST STOP JUMPDEST PUSH2 0x2D4 PUSH2 0x11FC JUMP JUMPDEST PUSH1 0x40 MLOAD PUSH2 0x2E1 SWAP2 SWAP1 PUSH2 0x2693 JUMP JUMPDEST PUSH1 0x40 MLOAD DUP1 SWAP2 SUB SWAP1 RETURN JUMPDEST PUSH2 0x2F2 PUSH2 0x1245 JUMP JUMPDEST PUSH1 0x40 MLOAD PUSH2 0x2FF SWAP2 SWAP1 PUSH2 0x2835 JUMP JUMPDEST PUSH1 0x40 MLOAD DUP1 SWAP2 SUB SWAP1 RETURN JUMPDEST PUSH2 0x310 PUSH2 0x1257 JUMP JUMPDEST PUSH1 0x40 MLOAD PUSH2 0x31D SWAP2 SWAP1 PUSH2 0x2693 JUMP JUMPDEST PUSH1 0x40 MLOAD DUP1 SWAP2 SUB SWAP1 RETURN JUMPDEST PUSH2 0x340 PUSH1 0x4 DUP1 CALLDATASIZE SUB DUP2 ADD SWAP1 PUSH2 0x33B SWAP2 SWAP1 PUSH2 0x2650 JUMP JUMPDEST PUSH2 0x125D JUMP JUMPDEST PUSH1 0x40 MLOAD PUSH2 0x34D SWAP2 SWAP1 PUSH2 0x2693 JUMP JUMPDEST PUSH1 0x40 MLOAD DUP1 SWAP2 SUB SWAP1 RETURN JUMPDEST PUSH2 0x35E PUSH2 0x1272 JUMP JUMPDEST PUSH1 0x40 MLOAD PUSH2 0x36B SWAP2 SWAP1 PUSH2 0x285D JUMP JUMPDEST PUSH1 0x40 MLOAD DUP1 SWAP2 SUB SWAP1 RETURN JUMPDEST PUSH2 0x37C PUSH2 0x1297 JUMP JUMPDEST STOP JUMPDEST PUSH2 0x386 PUSH2 0x12AA JUMP JUMPDEST PUSH1 0x40 MLOAD PUSH2 0x393 SWAP2 SWAP1 PUSH2 0x2693 JUMP JUMPDEST PUSH1 0x40 MLOAD DUP1 SWAP2 SUB SWAP1 RETURN JUMPDEST PUSH2 0x3A4 PUSH2 0x12C3 JUMP JUMPDEST PUSH1 0x40 MLOAD PUSH2 0x3B1 SWAP2 SWAP1 PUSH2 0x2693 JUMP JUMPDEST PUSH1 0x40 MLOAD DUP1 SWAP2 SUB SWAP1 RETURN JUMPDEST PUSH2 0x3C2 PUSH2 0x12C9 JUMP JUMPDEST STOP JUMPDEST PUSH2 0x3DE PUSH1 0x4 DUP1 CALLDATASIZE SUB DUP2 ADD SWAP1 PUSH2 0x3D9 SWAP2 SWAP1 PUSH2 0x2876 JUMP JUMPDEST PUSH2 0x1330 JUMP JUMPDEST STOP JUMPDEST PUSH2 0x3FA PUSH1 0x4 DUP1 CALLDATASIZE SUB DUP2 ADD SWAP1 PUSH2 0x3F5 SWAP2 SWAP1 PUSH2 0x2650 JUMP JUMPDEST PUSH2 0x14B2 JUMP JUMPDEST PUSH1 0x40 MLOAD PUSH2 0x407 SWAP2 SWAP1 PUSH2 0x2693 JUMP JUMPDEST PUSH1 0x40 MLOAD DUP1 SWAP2 SUB SWAP1 RETURN JUMPDEST PUSH2 0x418 PUSH2 0x14C7 JUMP JUMPDEST PUSH1 0x40 MLOAD PUSH2 0x425 SWAP2 SWAP1 PUSH2 0x285D JUMP JUMPDEST PUSH1 0x40 MLOAD DUP1 SWAP2 SUB SWAP1 RETURN JUMPDEST PUSH2 0x448 PUSH1 0x4 DUP1 CALLDATASIZE SUB DUP2 ADD SWAP1 PUSH2 0x443 SWAP2 SWAP1 PUSH2 0x27FB JUMP JUMPDEST PUSH2 0x14EE JUMP JUMPDEST STOP JUMPDEST PUSH2 0x464 PUSH1 0x4 DUP1 CALLDATASIZE SUB DUP2 ADD SWAP1 PUSH2 0x45F SWAP2 SWAP1 PUSH2 0x27FB JUMP JUMPDEST PUSH2 0x1617 JUMP JUMPDEST STOP JUMPDEST PUSH2 0x46E PUSH2 0x188F JUMP JUMPDEST PUSH1 0x40 MLOAD PUSH2 0x47B SWAP2 SWAP1 PUSH2 0x2693 JUMP JUMPDEST PUSH1 0x40 MLOAD DUP1 SWAP2 SUB SWAP1 RETURN JUMPDEST PUSH2 0x48C PUSH2 0x1895 JUMP JUMPDEST PUSH1 0x40 MLOAD PUSH2 0x499 SWAP2 SWAP1 PUSH2 0x2693 JUMP JUMPDEST PUSH1 0x40 MLOAD DUP1 SWAP2 SUB SWAP1 RETURN JUMPDEST PUSH2 0x4BC PUSH1 0x4 DUP1 CALLDATASIZE SUB DUP2 ADD SWAP1 PUSH2 0x4B7 SWAP2 SWAP1 PUSH2 0x2650 JUMP JUMPDEST PUSH2 0x18FE JUMP JUMPDEST PUSH1 0x40 MLOAD PUSH2 0x4C9 SWAP2 SWAP1 PUSH2 0x2835 JUMP JUMPDEST PUSH1 0x40 MLOAD DUP1 SWAP2 SUB SWAP1 RETURN JUMPDEST PUSH2 0x4DA PUSH2 0x191B JUMP JUMPDEST STOP JUMPDEST PUSH2 0x4E4 PUSH2 0x1B1F JUMP JUMPDEST PUSH1 0x40 MLOAD PUSH2 0x4F1 SWAP2 SWAP1 PUSH2 0x2693 JUMP JUMPDEST PUSH1 0x40 MLOAD DUP1 SWAP2 SUB SWAP1 RETURN JUMPDEST PUSH2 0x502 PUSH2 0x1B25 JUMP JUMPDEST STOP JUMPDEST PUSH2 0x50C PUSH2 0x1F72 JUMP JUMPDEST PUSH1 0x40 MLOAD PUSH2 0x519 SWAP2 SWAP1 PUSH2 0x2693 JUMP JUMPDEST PUSH1 0x40 MLOAD DUP1 SWAP2 SUB SWAP1 RETURN JUMPDEST PUSH2 0x53C PUSH1 0x4 DUP1 CALLDATASIZE SUB DUP2 ADD SWAP1 PUSH2 0x537 SWAP2 SWAP1 PUSH2 0x2650 JUMP JUMPDEST PUSH2 0x1F78 JUMP JUMPDEST STOP JUMPDEST PUSH2 0x558 PUSH1 0x4 DUP1 CALLDATASIZE SUB DUP2 ADD SWAP1 PUSH2 0x553 SWAP2 SWAP1 PUSH2 0x2650 JUMP JUMPDEST PUSH2 0x21D9 JUMP JUMPDEST STOP JUMPDEST PUSH0 PUSH1 0x9 PUSH0 DUP4 PUSH20 0xFFFFFFFFFFFFFFFFFFFFFFFFFFFFFFFFFFFFFFFF AND PUSH20 0xFFFFFFFFFFFFFFFFFFFFFFFFFFFFFFFFFFFFFFFF AND DUP2 MSTORE PUSH1 0x20 ADD SWAP1 DUP2 MSTORE PUSH1 0x20 ADD PUSH0 KECCAK256 SLOAD PUSH8 0xDE0B6B3A7640000 PUSH1 0x8 PUSH0 DUP6 PUSH20 0xFFFFFFFFFFFFFFFFFFFFFFFFFFFFFFFFFFFFFFFF AND PUSH20 0xFFFFFFFFFFFFFFFFFFFFFFFFFFFFFFFFFFFFFFFF AND DUP2 MSTORE PUSH1 0x20 ADD SWAP1 DUP2 MSTORE PUSH1 0x20 ADD PUSH0 KECCAK256 SLOAD PUSH2 0x5E8 PUSH2 0x1895 JUMP JUMPDEST PUSH2 0x5F2 SWAP2 SWAP1 PUSH2 0x28E1 JUMP JUMPDEST PUSH1 0x7 PUSH0 DUP7 PUSH20 0xFFFFFFFFFFFFFFFFFFFFFFFFFFFFFFFFFFFFFFFF AND PUSH20 0xFFFFFFFFFFFFFFFFFFFFFFFFFFFFFFFFFFFFFFFF AND DUP2 MSTORE PUSH1 0x20 ADD SWAP1 DUP2 MSTORE PUSH1 0x20 ADD PUSH0 KECCAK256 SLOAD PUSH2 0x63A SWAP2 SWAP1 PUSH2 0x2914 JUMP JUMPDEST PUSH2 0x644 SWAP2 SWAP1 PUSH2 0x2982 JUMP JUMPDEST PUSH2 0x64E SWAP2 SWAP1 PUSH2 0x29B2 JUMP JUMPDEST SWAP1 POP SWAP2 SWAP1 POP JUMP JUMPDEST PUSH32 0x0 DUP2 JUMP JUMPDEST PUSH2 0x681 PUSH2 0x225D JUMP JUMPDEST PUSH0 PUSH2 0x68A PUSH2 0x1895 JUMP JUMPDEST PUSH1 0x5 DUP2 SWAP1 SSTORE POP PUSH2 0x698 PUSH2 0x12AA JUMP JUMPDEST PUSH1 0x4 DUP2 SWAP1 SSTORE POP PUSH0 PUSH20 0xFFFFFFFFFFFFFFFFFFFFFFFFFFFFFFFFFFFFFFFF AND DUP2 PUSH20 0xFFFFFFFFFFFFFFFFFFFFFFFFFFFFFFFFFFFFFFFF AND EQ PUSH2 0x760 JUMPI PUSH2 0x6DA DUP2 PUSH2 0x55A JUMP JUMPDEST PUSH1 0x9 PUSH0 DUP4 PUSH20 0xFFFFFFFFFFFFFFFFFFFFFFFFFFFFFFFFFFFFFFFF AND PUSH20 0xFFFFFFFFFFFFFFFFFFFFFFFFFFFFFFFFFFFFFFFF AND DUP2 MSTORE PUSH1 0x20 ADD SWAP1 DUP2 MSTORE PUSH1 0x20 ADD PUSH0 KECCAK256 DUP2 SWAP1 SSTORE POP PUSH1 0x5 SLOAD PUSH1 0x8 PUSH0 DUP4 PUSH20 0xFFFFFFFFFFFFFFFFFFFFFFFFFFFFFFFFFFFFFFFF AND PUSH20 0xFFFFFFFFFFFFFFFFFFFFFFFFFFFFFFFFFFFFFFFF AND DUP2 MSTORE PUSH1 0x20 ADD SWAP1 DUP2 MSTORE PUSH1 0x20 ADD PUSH0 KECCAK256 DUP2 SWAP1 SSTORE POP JUMPDEST PUSH1 0xA PUSH0 CALLER PUSH20 0xFFFFFFFFFFFFFFFFFFFFFFFFFFFFFFFFFFFFFFFF AND PUSH20 0xFFFFFFFFFFFFFFFFFFFFFFFFFFFFFFFFFFFFFFFF AND DUP2 MSTORE PUSH1 0x20 ADD SWAP1 DUP2 MSTORE PUSH1 0x20 ADD PUSH0 KECCAK256 PUSH0 SWAP1 SLOAD SWAP1 PUSH2 0x100 EXP SWAP1 DIV PUSH1 0xFF AND ISZERO DUP1 ISZERO PUSH2 0x7EA JUMPI POP PUSH2 0x7BA PUSH2 0x14C7 JUMP JUMPDEST PUSH20 0xFFFFFFFFFFFFFFFFFFFFFFFFFFFFFFFFFFFFFFFF AND CALLER PUSH20 0xFFFFFFFFFFFFFFFFFFFFFFFFFFFFFFFFFFFFFFFF AND EQ ISZERO JUMPDEST ISZERO PUSH2 0x821 JUMPI PUSH1 0x40 MLOAD PUSH32 0x1648FD0100000000000000000000000000000000000000000000000000000000 DUP2 MSTORE PUSH1 0x4 ADD PUSH1 0x40 MLOAD DUP1 SWAP2 SUB SWAP1 REVERT JUMPDEST PUSH0 DUP4 SUB PUSH2 0x85A JUMPI PUSH1 0x40 MLOAD PUSH32 0x1F2A200500000000000000000000000000000000000000000000000000000000 DUP2 MSTORE PUSH1 0x4 ADD PUSH1 0x40 MLOAD DUP1 SWAP2 SUB SWAP1 REVERT JUMPDEST PUSH0 DUP3 SUB PUSH2 0x893 JUMPI PUSH1 0x40 MLOAD PUSH32 0x1F2A200500000000000000000000000000000000000000000000000000000000 DUP2 MSTORE PUSH1 0x4 ADD PUSH1 0x40 MLOAD DUP1 SWAP2 SUB SWAP1 REVERT JUMPDEST PUSH2 0x8E0 CALLER ADDRESS DUP6 PUSH32 0x0 PUSH20 0xFFFFFFFFFFFFFFFFFFFFFFFFFFFFFFFFFFFFFFFF AND PUSH2 0x227F SWAP1 SWAP4 SWAP3 SWAP2 SWAP1 PUSH4 0xFFFFFFFF AND JUMP JUMPDEST PUSH1 0x3 SLOAD TIMESTAMP LT ISZERO PUSH2 0x930 JUMPI PUSH0 TIMESTAMP PUSH1 0x3 SLOAD PUSH2 0x8F9 SWAP2 SWAP1 PUSH2 0x28E1 JUMP JUMPDEST SWAP1 POP PUSH0 PUSH1 0x2 SLOAD DUP3 PUSH2 0x90A SWAP2 SWAP1 PUSH2 0x2914 JUMP JUMPDEST SWAP1 POP DUP4 DUP2 DUP7 PUSH2 0x919 SWAP2 SWAP1 PUSH2 0x29B2 JUMP JUMPDEST PUSH2 0x923 SWAP2 SWAP1 PUSH2 0x2982 JUMP JUMPDEST PUSH1 0x2 DUP2 SWAP1 SSTORE POP POP POP PUSH2 0x943 JUMP JUMPDEST DUP2 DUP4 PUSH2 0x93C SWAP2 SWAP1 PUSH2 0x2982 JUMP JUMPDEST PUSH1 0x2 DUP2 SWAP1 SSTORE POP JUMPDEST TIMESTAMP PUSH1 0x4 DUP2 SWAP1 SSTORE POP DUP2 TIMESTAMP PUSH2 0x956 SWAP2 SWAP1 PUSH2 0x29B2 JUMP JUMPDEST PUSH1 0x3 DUP2 SWAP1 SSTORE POP CALLER PUSH20 0xFFFFFFFFFFFFFFFFFFFFFFFFFFFFFFFFFFFFFFFF AND PUSH32 0x8A888EA653A580E40660778EE0C0DABD23A81E8E2C8DCFB938E40982A157D819 DUP5 DUP5 PUSH1 0x40 MLOAD PUSH2 0x9A4 SWAP3 SWAP2 SWAP1 PUSH2 0x29E5 JUMP JUMPDEST PUSH1 0x40 MLOAD DUP1 SWAP2 SUB SWAP1 LOG2 POP PUSH2 0x9B5 PUSH2 0x22D4 JUMP JUMPDEST POP POP JUMP JUMPDEST PUSH2 0x9C1 PUSH2 0x22EE JUMP JUMPDEST PUSH0 PUSH20 0xFFFFFFFFFFFFFFFFFFFFFFFFFFFFFFFFFFFFFFFF AND DUP3 PUSH20 0xFFFFFFFFFFFFFFFFFFFFFFFFFFFFFFFFFFFFFFFF AND SUB PUSH2 0xA26 JUMPI PUSH1 0x40 MLOAD PUSH32 0xD92E233D00000000000000000000000000000000000000000000000000000000 DUP2 MSTORE PUSH1 0x4 ADD PUSH1 0x40 MLOAD DUP1 SWAP2 SUB SWAP1 REVERT JUMPDEST DUP1 PUSH1 0xA PUSH0 DUP5 PUSH20 0xFFFFFFFFFFFFFFFFFFFFFFFFFFFFFFFFFFFFFFFF AND PUSH20 0xFFFFFFFFFFFFFFFFFFFFFFFFFFFFFFFFFFFFFFFF AND DUP2 MSTORE PUSH1 0x20 ADD SWAP1 DUP2 MSTORE PUSH1 0x20 ADD PUSH0 KECCAK256 PUSH0 PUSH2 0x100 EXP DUP2 SLOAD DUP2 PUSH1 0xFF MUL NOT AND SWAP1 DUP4 ISZERO ISZERO MUL OR SWAP1 SSTORE POP DUP2 PUSH20 0xFFFFFFFFFFFFFFFFFFFFFFFFFFFFFFFFFFFFFFFF AND PUSH32 0xB33CA1DABFB28A2E1BD06B332C396B1A3D538278691341A5503BBAD53F919197 DUP3 PUSH1 0x40 MLOAD PUSH2 0xAC0 SWAP2 SWAP1 PUSH2 0x2835 JUMP JUMPDEST PUSH1 0x40 MLOAD DUP1 SWAP2 SUB SWAP1 LOG2 POP POP JUMP JUMPDEST PUSH2 0xAD4 PUSH2 0x225D JUMP JUMPDEST PUSH1 0xB PUSH0 SWAP1 SLOAD SWAP1 PUSH2 0x100 EXP SWAP1 DIV PUSH1 0xFF AND ISZERO PUSH2 0xB1A JUMPI PUSH1 0x40 MLOAD PUSH32 0xAB35696F00000000000000000000000000000000000000000000000000000000 DUP2 MSTORE PUSH1 0x4 ADD PUSH1 0x40 MLOAD DUP1 SWAP2 SUB SWAP1 REVERT JUMPDEST CALLER PUSH2 0xB23 PUSH2 0x1895 JUMP JUMPDEST PUSH1 0x5 DUP2 SWAP1 SSTORE POP PUSH2 0xB31 PUSH2 0x12AA JUMP JUMPDEST PUSH1 0x4 DUP2 SWAP1 SSTORE POP PUSH0 PUSH20 0xFFFFFFFFFFFFFFFFFFFFFFFFFFFFFFFFFFFFFFFF AND DUP2 PUSH20 0xFFFFFFFFFFFFFFFFFFFFFFFFFFFFFFFFFFFFFFFF AND EQ PUSH2 0xBF9 JUMPI PUSH2 0xB73 DUP2 PUSH2 0x55A JUMP JUMPDEST PUSH1 0x9 PUSH0 DUP4 PUSH20 0xFFFFFFFFFFFFFFFFFFFFFFFFFFFFFFFFFFFFFFFF AND PUSH20 0xFFFFFFFFFFFFFFFFFFFFFFFFFFFFFFFFFFFFFFFF AND DUP2 MSTORE PUSH1 0x20 ADD SWAP1 DUP2 MSTORE PUSH1 0x20 ADD PUSH0 KECCAK256 DUP2 SWAP1 SSTORE POP PUSH1 0x5 SLOAD PUSH1 0x8 PUSH0 DUP4 PUSH20 0xFFFFFFFFFFFFFFFFFFFFFFFFFFFFFFFFFFFFFFFF AND PUSH20 0xFFFFFFFFFFFFFFFFFFFFFFFFFFFFFFFFFFFFFFFF AND DUP2 MSTORE PUSH1 0x20 ADD SWAP1 DUP2 MSTORE PUSH1 0x20 ADD PUSH0 KECCAK256 DUP2 SWAP1 SSTORE POP JUMPDEST PUSH0 DUP3 SUB PUSH2 0xC32 JUMPI PUSH1 0x40 MLOAD PUSH32 0x1F2A200500000000000000000000000000000000000000000000000000000000 DUP2 MSTORE PUSH1 0x4 ADD PUSH1 0x40 MLOAD DUP1 SWAP2 SUB SWAP1 REVERT JUMPDEST PUSH1 0x7 PUSH0 CALLER PUSH20 0xFFFFFFFFFFFFFFFFFFFFFFFFFFFFFFFFFFFFFFFF AND PUSH20 0xFFFFFFFFFFFFFFFFFFFFFFFFFFFFFFFFFFFFFFFF AND DUP2 MSTORE PUSH1 0x20 ADD SWAP1 DUP2 MSTORE PUSH1 0x20 ADD PUSH0 KECCAK256 SLOAD DUP3 GT ISZERO PUSH2 0xCF3 JUMPI DUP2 PUSH1 0x7 PUSH0 CALLER PUSH20 0xFFFFFFFFFFFFFFFFFFFFFFFFFFFFFFFFFFFFFFFF AND PUSH20 0xFFFFFFFFFFFFFFFFFFFFFFFFFFFFFFFFFFFFFFFF AND DUP2 MSTORE PUSH1 0x20 ADD SWAP1 DUP2 MSTORE PUSH1 0x20 ADD PUSH0 KECCAK256 SLOAD PUSH1 0x40 MLOAD PUSH32 0x45BE0A2600000000000000000000000000000000000000000000000000000000 DUP2 MSTORE PUSH1 0x4 ADD PUSH2 0xCEA SWAP3 SWAP2 SWAP1 PUSH2 0x29E5 JUMP JUMPDEST PUSH1 0x40 MLOAD DUP1 SWAP2 SUB SWAP1 REVERT JUMPDEST DUP2 PUSH1 0x7 PUSH0 CALLER PUSH20 0xFFFFFFFFFFFFFFFFFFFFFFFFFFFFFFFFFFFFFFFF AND PUSH20 0xFFFFFFFFFFFFFFFFFFFFFFFFFFFFFFFFFFFFFFFF AND DUP2 MSTORE PUSH1 0x20 ADD SWAP1 DUP2 MSTORE PUSH1 0x20 ADD PUSH0 KECCAK256 PUSH0 DUP3 DUP3 SLOAD PUSH2 0xD3F SWAP2 SWAP1 PUSH2 0x28E1 JUMP JUMPDEST SWAP3 POP POP DUP2 SWAP1 SSTORE POP DUP2 PUSH1 0x6 PUSH0 DUP3 DUP3 SLOAD PUSH2 0xD57 SWAP2 SWAP1 PUSH2 0x28E1 JUMP JUMPDEST SWAP3 POP POP DUP2 SWAP1 SSTORE POP PUSH2 0xDA9 CALLER DUP4 PUSH32 0x0 PUSH20 0xFFFFFFFFFFFFFFFFFFFFFFFFFFFFFFFFFFFFFFFF AND PUSH2 0x2375 SWAP1 SWAP3 SWAP2 SWAP1 PUSH4 0xFFFFFFFF AND JUMP JUMPDEST CALLER PUSH20 0xFFFFFFFFFFFFFFFFFFFFFFFFFFFFFFFFFFFFFFFF AND PUSH32 0xF5BB82176FEB1B5E747E28471AA92156A04D9F3AB9F45F28E2D704232B93F75 DUP4 PUSH1 0x40 MLOAD PUSH2 0xDEF SWAP2 SWAP1 PUSH2 0x2693 JUMP JUMPDEST PUSH1 0x40 MLOAD DUP1 SWAP2 SUB SWAP1 LOG2 POP PUSH2 0xE00 PUSH2 0x22D4 JUMP JUMPDEST POP JUMP JUMPDEST PUSH1 0x9 PUSH1 0x20 MSTORE DUP1 PUSH0 MSTORE PUSH1 0x40 PUSH0 KECCAK256 PUSH0 SWAP2 POP SWAP1 POP SLOAD DUP2 JUMP JUMPDEST PUSH2 0xE20 PUSH2 0x225D JUMP JUMPDEST PUSH1 0xB PUSH0 SWAP1 SLOAD SWAP1 PUSH2 0x100 EXP SWAP1 DIV PUSH1 0xFF AND ISZERO PUSH2 0xE66 JUMPI PUSH1 0x40 MLOAD PUSH32 0xAB35696F00000000000000000000000000000000000000000000000000000000 DUP2 MSTORE PUSH1 0x4 ADD PUSH1 0x40 MLOAD DUP1 SWAP2 SUB SWAP1 REVERT JUMPDEST CALLER PUSH2 0xE6F PUSH2 0x1895 JUMP JUMPDEST PUSH1 0x5 DUP2 SWAP1 SSTORE POP PUSH2 0xE7D PUSH2 0x12AA JUMP JUMPDEST PUSH1 0x4 DUP2 SWAP1 SSTORE POP PUSH0 PUSH20 0xFFFFFFFFFFFFFFFFFFFFFFFFFFFFFFFFFFFFFFFF AND DUP2 PUSH20 0xFFFFFFFFFFFFFFFFFFFFFFFFFFFFFFFFFFFFFFFF AND EQ PUSH2 0xF45 JUMPI PUSH2 0xEBF DUP2 PUSH2 0x55A JUMP JUMPDEST PUSH1 0x9 PUSH0 DUP4 PUSH20 0xFFFFFFFFFFFFFFFFFFFFFFFFFFFFFFFFFFFFFFFF AND PUSH20 0xFFFFFFFFFFFFFFFFFFFFFFFFFFFFFFFFFFFFFFFF AND DUP2 MSTORE PUSH1 0x20 ADD SWAP1 DUP2 MSTORE PUSH1 0x20 ADD PUSH0 KECCAK256 DUP2 SWAP1 SSTORE POP PUSH1 0x5 SLOAD PUSH1 0x8 PUSH0 DUP4 PUSH20 0xFFFFFFFFFFFFFFFFFFFFFFFFFFFFFFFFFFFFFFFF AND PUSH20 0xFFFFFFFFFFFFFFFFFFFFFFFFFFFFFFFFFFFFFFFF AND DUP2 MSTORE PUSH1 0x20 ADD SWAP1 DUP2 MSTORE PUSH1 0x20 ADD PUSH0 KECCAK256 DUP2 SWAP1 SSTORE POP JUMPDEST PUSH0 PUSH1 0x9 PUSH0 CALLER PUSH20 0xFFFFFFFFFFFFFFFFFFFFFFFFFFFFFFFFFFFFFFFF AND PUSH20 0xFFFFFFFFFFFFFFFFFFFFFFFFFFFFFFFFFFFFFFFF AND DUP2 MSTORE PUSH1 0x20 ADD SWAP1 DUP2 MSTORE PUSH1 0x20 ADD PUSH0 KECCAK256 SLOAD SWAP1 POP PUSH0 DUP2 SUB PUSH2 0xFBF JUMPI PUSH1 0x40 MLOAD PUSH32 0xB71EA17E00000000000000000000000000000000000000000000000000000000 DUP2 MSTORE PUSH1 0x4 ADD PUSH1 0x40 MLOAD DUP1 SWAP2 SUB SWAP1 REVERT JUMPDEST PUSH0 PUSH1 0x6 SLOAD PUSH32 0x0 PUSH20 0xFFFFFFFFFFFFFFFFFFFFFFFFFFFFFFFFFFFFFFFF AND PUSH4 0x70A08231 ADDRESS PUSH1 0x40 MLOAD DUP3 PUSH4 0xFFFFFFFF AND PUSH1 0xE0 SHL DUP2 MSTORE PUSH1 0x4 ADD PUSH2 0x101C SWAP2 SWAP1 PUSH2 0x285D JUMP JUMPDEST PUSH1 0x20 PUSH1 0x40 MLOAD DUP1 DUP4 SUB DUP2 DUP7 GAS STATICCALL ISZERO DUP1 ISZERO PUSH2 0x1037 JUMPI RETURNDATASIZE PUSH0 DUP1 RETURNDATACOPY RETURNDATASIZE PUSH0 REVERT JUMPDEST POP POP POP POP PUSH1 0x40 MLOAD RETURNDATASIZE PUSH1 0x1F NOT PUSH1 0x1F DUP3 ADD AND DUP3 ADD DUP1 PUSH1 0x40 MSTORE POP DUP2 ADD SWAP1 PUSH2 0x105B SWAP2 SWAP1 PUSH2 0x2A20 JUMP JUMPDEST PUSH2 0x1065 SWAP2 SWAP1 PUSH2 0x28E1 JUMP JUMPDEST SWAP1 POP DUP1 DUP3 GT ISZERO PUSH2 0x10AE JUMPI DUP2 DUP2 PUSH1 0x40 MLOAD PUSH32 0x65AC9D4300000000000000000000000000000000000000000000000000000000 DUP2 MSTORE PUSH1 0x4 ADD PUSH2 0x10A5 SWAP3 SWAP2 SWAP1 PUSH2 0x29E5 JUMP JUMPDEST PUSH1 0x40 MLOAD DUP1 SWAP2 SUB SWAP1 REVERT JUMPDEST PUSH0 PUSH1 0x9 PUSH0 CALLER PUSH20 0xFFFFFFFFFFFFFFFFFFFFFFFFFFFFFFFFFFFFFFFF AND PUSH20 0xFFFFFFFFFFFFFFFFFFFFFFFFFFFFFFFFFFFFFFFF AND DUP2 MSTORE PUSH1 0x20 ADD SWAP1 DUP2 MSTORE PUSH1 0x20 ADD PUSH0 KECCAK256 DUP2 SWAP1 SSTORE POP PUSH2 0x113B CALLER DUP4 PUSH32 0x0 PUSH20 0xFFFFFFFFFFFFFFFFFFFFFFFFFFFFFFFFFFFFFFFF AND PUSH2 0x2375 SWAP1 SWAP3 SWAP2 SWAP1 PUSH4 0xFFFFFFFF AND JUMP JUMPDEST CALLER PUSH20 0xFFFFFFFFFFFFFFFFFFFFFFFFFFFFFFFFFFFFFFFF AND PUSH32 0xFC30CDDEA38E2BF4D6EA7D3F9ED3B6AD7F176419F4963BD81318067A4AEE73FE DUP4 PUSH1 0x40 MLOAD PUSH2 0x1181 SWAP2 SWAP1 PUSH2 0x2693 JUMP JUMPDEST PUSH1 0x40 MLOAD DUP1 SWAP2 SUB SWAP1 LOG2 POP POP POP PUSH2 0x1194 PUSH2 0x22D4 JUMP JUMPDEST JUMP JUMPDEST PUSH2 0x119E PUSH2 0x22EE JUMP JUMPDEST PUSH0 PUSH1 0xB PUSH0 PUSH2 0x100 EXP DUP2 SLOAD DUP2 PUSH1 0xFF MUL NOT AND SWAP1 DUP4 ISZERO ISZERO MUL OR SWAP1 SSTORE POP CALLER PUSH20 0xFFFFFFFFFFFFFFFFFFFFFFFFFFFFFFFFFFFFFFFF AND PUSH32 0x5DB9EE0A495BF2E6FF9C91A7834C1BA4FDD244A5E8AA4E537BD38AEAE4B073AA PUSH1 0x40 MLOAD PUSH1 0x40 MLOAD DUP1 SWAP2 SUB SWAP1 LOG2 JUMP JUMPDEST PUSH0 DUP1 PUSH1 0x6 SLOAD SUB PUSH2 0x120E JUMPI PUSH0 SWAP1 POP PUSH2 0x1242 JUMP JUMPDEST PUSH0 PUSH4 0x1E13380 PUSH1 0x2 SLOAD PUSH2 0x1221 SWAP2 SWAP1 PUSH2 0x2914 JUMP JUMPDEST SWAP1 POP PUSH1 0x6 SLOAD PUSH2 0x2710 DUP3 PUSH2 0x1234 SWAP2 SWAP1 PUSH2 0x2914 JUMP JUMPDEST PUSH2 0x123E SWAP2 SWAP1 PUSH2 0x2982 JUMP JUMPDEST SWAP2 POP POP JUMPDEST SWAP1 JUMP JUMPDEST PUSH1 0xB PUSH0 SWAP1 SLOAD SWAP1 PUSH2 0x100 EXP SWAP1 DIV PUSH1 0xFF AND DUP2 JUMP JUMPDEST PUSH1 0x2 SLOAD DUP2 JUMP JUMPDEST PUSH1 0x7 PUSH1 0x20 MSTORE DUP1 PUSH0 MSTORE PUSH1 0x40 PUSH0 KECCAK256 PUSH0 SWAP2 POP SWAP1 POP SLOAD DUP2 JUMP JUMPDEST PUSH1 0x1 PUSH0 SWAP1 SLOAD SWAP1 PUSH2 0x100 EXP SWAP1 DIV PUSH20 0xFFFFFFFFFFFFFFFFFFFFFFFFFFFFFFFFFFFFFFFF AND DUP2 JUMP JUMPDEST PUSH2 0x129F PUSH2 0x22EE JUMP JUMPDEST PUSH2 0x12A8 PUSH0 PUSH2 0x23C8 JUMP JUMPDEST JUMP JUMPDEST PUSH0 PUSH1 0x3 SLOAD TIMESTAMP LT PUSH2 0x12BC JUMPI PUSH1 0x3 SLOAD PUSH2 0x12BE JUMP JUMPDEST TIMESTAMP JUMPDEST SWAP1 POP SWAP1 JUMP JUMPDEST PUSH1 0x6 SLOAD DUP2 JUMP JUMPDEST PUSH2 0x12D1 PUSH2 0x22EE JUMP JUMPDEST PUSH1 0x1 PUSH1 0xB PUSH0 PUSH2 0x100 EXP DUP2 SLOAD DUP2 PUSH1 0xFF MUL NOT AND SWAP1 DUP4 ISZERO ISZERO MUL OR SWAP1 SSTORE POP CALLER PUSH20 0xFFFFFFFFFFFFFFFFFFFFFFFFFFFFFFFFFFFFFFFF AND PUSH32 0x62E78CEA01BEE320CD4E420270B5EA74000D11B0C9F74754EBDBFC544B05A258 PUSH1 0x40 MLOAD PUSH1 0x40 MLOAD DUP1 SWAP2 SUB SWAP1 LOG2 JUMP JUMPDEST PUSH2 0x1338 PUSH2 0x22EE JUMP JUMPDEST PUSH32 0x0 PUSH20 0xFFFFFFFFFFFFFFFFFFFFFFFFFFFFFFFFFFFFFFFF AND DUP3 PUSH20 0xFFFFFFFFFFFFFFFFFFFFFFFFFFFFFFFFFFFFFFFF AND SUB PUSH2 0x147C JUMPI PUSH0 PUSH1 0x6 SLOAD PUSH32 0x0 PUSH20 0xFFFFFFFFFFFFFFFFFFFFFFFFFFFFFFFFFFFFFFFF AND PUSH4 0x70A08231 ADDRESS PUSH1 0x40 MLOAD DUP3 PUSH4 0xFFFFFFFF AND PUSH1 0xE0 SHL DUP2 MSTORE PUSH1 0x4 ADD PUSH2 0x13E8 SWAP2 SWAP1 PUSH2 0x285D JUMP JUMPDEST PUSH1 0x20 PUSH1 0x40 MLOAD DUP1 DUP4 SUB DUP2 DUP7 GAS STATICCALL ISZERO DUP1 ISZERO PUSH2 0x1403 JUMPI RETURNDATASIZE PUSH0 DUP1 RETURNDATACOPY RETURNDATASIZE PUSH0 REVERT JUMPDEST POP POP POP POP PUSH1 0x40 MLOAD RETURNDATASIZE PUSH1 0x1F NOT PUSH1 0x1F DUP3 ADD AND DUP3 ADD DUP1 PUSH1 0x40 MSTORE POP DUP2 ADD SWAP1 PUSH2 0x1427 SWAP2 SWAP1 PUSH2 0x2A20 JUMP JUMPDEST PUSH2 0x1431 SWAP2 SWAP1 PUSH2 0x28E1 JUMP JUMPDEST SWAP1 POP DUP1 DUP3 GT ISZERO PUSH2 0x147A JUMPI DUP2 DUP2 PUSH1 0x40 MLOAD PUSH32 0x65AC9D4300000000000000000000000000000000000000000000000000000000 DUP2 MSTORE PUSH1 0x4 ADD PUSH2 0x1471 SWAP3 SWAP2 SWAP1 PUSH2 0x29E5 JUMP JUMPDEST PUSH1 0x40 MLOAD DUP1 SWAP2 SUB SWAP1 REVERT JUMPDEST POP JUMPDEST PUSH2 0x14AE PUSH2 0x1487 PUSH2 0x14C7 JUMP JUMPDEST DUP3 DUP5 PUSH20 0xFFFFFFFFFFFFFFFFFFFFFFFFFFFFFFFFFFFFFFFF AND PUSH2 0x2375 SWAP1 SWAP3 SWAP2 SWAP1 PUSH4 0xFFFFFFFF AND JUMP JUMPDEST POP POP JUMP JUMPDEST PUSH1 0x8 PUSH1 0x20 MSTORE DUP1 PUSH0 MSTORE PUSH1 0x40 PUSH0 KECCAK256 PUSH0 SWAP2 POP SWAP1 POP SLOAD DUP2 JUMP JUMPDEST PUSH0 DUP1 PUSH0 SWAP1 SLOAD SWAP1 PUSH2 0x100 EXP SWAP1 DIV PUSH20 0xFFFFFFFFFFFFFFFFFFFFFFFFFFFFFFFFFFFFFFFF AND SWAP1 POP SWAP1 JUMP JUMPDEST PUSH2 0x14F6 PUSH2 0x22EE JUMP JUMPDEST PUSH0 PUSH2 0x14FF PUSH2 0x1895 JUMP JUMPDEST PUSH1 0x5 DUP2 SWAP1 SSTORE POP PUSH2 0x150D PUSH2 0x12AA JUMP JUMPDEST PUSH1 0x4 DUP2 SWAP1 SSTORE POP PUSH0 PUSH20 0xFFFFFFFFFFFFFFFFFFFFFFFFFFFFFFFFFFFFFFFF AND DUP2 PUSH20 0xFFFFFFFFFFFFFFFFFFFFFFFFFFFFFFFFFFFFFFFF AND EQ PUSH2 0x15D5 JUMPI PUSH2 0x154F DUP2 PUSH2 0x55A JUMP JUMPDEST PUSH1 0x9 PUSH0 DUP4 PUSH20 0xFFFFFFFFFFFFFFFFFFFFFFFFFFFFFFFFFFFFFFFF AND PUSH20 0xFFFFFFFFFFFFFFFFFFFFFFFFFFFFFFFFFFFFFFFF AND DUP2 MSTORE PUSH1 0x20 ADD SWAP1 DUP2 MSTORE PUSH1 0x20 ADD PUSH0 KECCAK256 DUP2 SWAP1 SSTORE POP PUSH1 0x5 SLOAD PUSH1 0x8 PUSH0 DUP4 PUSH20 0xFFFFFFFFFFFFFFFFFFFFFFFFFFFFFFFFFFFFFFFF AND PUSH20 0xFFFFFFFFFFFFFFFFFFFFFFFFFFFFFFFFFFFFFFFF AND DUP2 MSTORE PUSH1 0x20 ADD SWAP1 DUP2 MSTORE PUSH1 0x20 ADD PUSH0 KECCAK256 DUP2 SWAP1 SSTORE POP JUMPDEST DUP2 PUSH1 0x2 DUP2 SWAP1 SSTORE POP PUSH32 0x8CBFAFC8E0D9C5C81401C4B9C6E7D201198ADC7EB8F8F1556C195ECD4C0A0E7B DUP3 PUSH1 0x40 MLOAD PUSH2 0x160B SWAP2 SWAP1 PUSH2 0x2693 JUMP JUMPDEST PUSH1 0x40 MLOAD DUP1 SWAP2 SUB SWAP1 LOG1 POP POP JUMP JUMPDEST PUSH2 0x161F PUSH2 0x225D JUMP JUMPDEST PUSH1 0xB PUSH0 SWAP1 SLOAD SWAP1 PUSH2 0x100 EXP SWAP1 DIV PUSH1 0xFF AND ISZERO PUSH2 0x1665 JUMPI PUSH1 0x40 MLOAD PUSH32 0xAB35696F00000000000000000000000000000000000000000000000000000000 DUP2 MSTORE PUSH1 0x4 ADD PUSH1 0x40 MLOAD DUP1 SWAP2 SUB SWAP1 REVERT JUMPDEST CALLER PUSH2 0x166E PUSH2 0x1895 JUMP JUMPDEST PUSH1 0x5 DUP2 SWAP1 SSTORE POP PUSH2 0x167C PUSH2 0x12AA JUMP JUMPDEST PUSH1 0x4 DUP2 SWAP1 SSTORE POP PUSH0 PUSH20 0xFFFFFFFFFFFFFFFFFFFFFFFFFFFFFFFFFFFFFFFF AND DUP2 PUSH20 0xFFFFFFFFFFFFFFFFFFFFFFFFFFFFFFFFFFFFFFFF AND EQ PUSH2 0x1744 JUMPI PUSH2 0x16BE DUP2 PUSH2 0x55A JUMP JUMPDEST PUSH1 0x9 PUSH0 DUP4 PUSH20 0xFFFFFFFFFFFFFFFFFFFFFFFFFFFFFFFFFFFFFFFF AND PUSH20 0xFFFFFFFFFFFFFFFFFFFFFFFFFFFFFFFFFFFFFFFF AND DUP2 MSTORE PUSH1 0x20 ADD SWAP1 DUP2 MSTORE PUSH1 0x20 ADD PUSH0 KECCAK256 DUP2 SWAP1 SSTORE POP PUSH1 0x5 SLOAD PUSH1 0x8 PUSH0 DUP4 PUSH20 0xFFFFFFFFFFFFFFFFFFFFFFFFFFFFFFFFFFFFFFFF AND PUSH20 0xFFFFFFFFFFFFFFFFFFFFFFFFFFFFFFFFFFFFFFFF AND DUP2 MSTORE PUSH1 0x20 ADD SWAP1 DUP2 MSTORE PUSH1 0x20 ADD PUSH0 KECCAK256 DUP2 SWAP1 SSTORE POP JUMPDEST PUSH0 DUP3 SUB PUSH2 0x177D JUMPI PUSH1 0x40 MLOAD PUSH32 0x1F2A200500000000000000000000000000000000000000000000000000000000 DUP2 MSTORE PUSH1 0x4 ADD PUSH1 0x40 MLOAD DUP1 SWAP2 SUB SWAP1 REVERT JUMPDEST DUP2 PUSH1 0x7 PUSH0 CALLER PUSH20 0xFFFFFFFFFFFFFFFFFFFFFFFFFFFFFFFFFFFFFFFF AND PUSH20 0xFFFFFFFFFFFFFFFFFFFFFFFFFFFFFFFFFFFFFFFF AND DUP2 MSTORE PUSH1 0x20 ADD SWAP1 DUP2 MSTORE PUSH1 0x20 ADD PUSH0 KECCAK256 PUSH0 DUP3 DUP3 SLOAD PUSH2 0x17C9 SWAP2 SWAP1 PUSH2 0x29B2 JUMP JUMPDEST SWAP3 POP POP DUP2 SWAP1 SSTORE POP DUP2 PUSH1 0x6 PUSH0 DUP3 DUP3 SLOAD PUSH2 0x17E1 SWAP2 SWAP1 PUSH2 0x29B2 JUMP JUMPDEST SWAP3 POP POP DUP2 SWAP1 SSTORE POP PUSH2 0x1835 CALLER ADDRESS DUP5 PUSH32 0x0 PUSH20 0xFFFFFFFFFFFFFFFFFFFFFFFFFFFFFFFFFFFFFFFF AND PUSH2 0x227F SWAP1 SWAP4 SWAP3 SWAP2 SWAP1 PUSH4 0xFFFFFFFF AND JUMP JUMPDEST CALLER PUSH20 0xFFFFFFFFFFFFFFFFFFFFFFFFFFFFFFFFFFFFFFFF AND PUSH32 0x9E71BC8EEA02A63969F509818F2DAFB9254532904319F9DBDA79B67BD34A5F3D DUP4 PUSH1 0x40 MLOAD PUSH2 0x187B SWAP2 SWAP1 PUSH2 0x2693 JUMP JUMPDEST PUSH1 0x40 MLOAD DUP1 SWAP2 SUB SWAP1 LOG2 POP PUSH2 0x188C PUSH2 0x22D4 JUMP JUMPDEST POP JUMP JUMPDEST PUSH1 0x4 SLOAD DUP2 JUMP JUMPDEST PUSH0 DUP1 PUSH1 0x6 SLOAD SUB PUSH2 0x18A9 JUMPI PUSH1 0x5 SLOAD SWAP1 POP PUSH2 0x18FB JUMP JUMPDEST PUSH1 0x6 SLOAD PUSH8 0xDE0B6B3A7640000 PUSH1 0x2 SLOAD PUSH1 0x4 SLOAD PUSH2 0x18C3 PUSH2 0x12AA JUMP JUMPDEST PUSH2 0x18CD SWAP2 SWAP1 PUSH2 0x28E1 JUMP JUMPDEST PUSH2 0x18D7 SWAP2 SWAP1 PUSH2 0x2914 JUMP JUMPDEST PUSH2 0x18E1 SWAP2 SWAP1 PUSH2 0x2914 JUMP JUMPDEST PUSH2 0x18EB SWAP2 SWAP1 PUSH2 0x2982 JUMP JUMPDEST PUSH1 0x5 SLOAD PUSH2 0x18F8 SWAP2 SWAP1 PUSH2 0x29B2 JUMP JUMPDEST SWAP1 POP JUMPDEST SWAP1 JUMP JUMPDEST PUSH1 0xA PUSH1 0x20 MSTORE DUP1 PUSH0 MSTORE PUSH1 0x40 PUSH0 KECCAK256 PUSH0 SWAP2 POP SLOAD SWAP1 PUSH2 0x100 EXP SWAP1 DIV PUSH1 0xFF AND DUP2 JUMP JUMPDEST PUSH2 0x1923 PUSH2 0x225D JUMP JUMPDEST PUSH0 PUSH1 0x7 PUSH0 CALLER PUSH20 0xFFFFFFFFFFFFFFFFFFFFFFFFFFFFFFFFFFFFFFFF AND PUSH20 0xFFFFFFFFFFFFFFFFFFFFFFFFFFFFFFFFFFFFFFFF AND DUP2 MSTORE PUSH1 0x20 ADD SWAP1 DUP2 MSTORE PUSH1 0x20 ADD PUSH0 KECCAK256 SLOAD SWAP1 POP PUSH0 DUP2 SUB PUSH2 0x199D JUMPI PUSH1 0x40 MLOAD PUSH32 0x1F2A200500000000000000000000000000000000000000000000000000000000 DUP2 MSTORE PUSH1 0x4 ADD PUSH1 0x40 MLOAD DUP1 SWAP2 SUB SWAP1 REVERT JUMPDEST PUSH0 PUSH1 0x7 PUSH0 CALLER PUSH20 0xFFFFFFFFFFFFFFFFFFFFFFFFFFFFFFFFFFFFFFFF AND PUSH20 0xFFFFFFFFFFFFFFFFFFFFFFFFFFFFFFFFFFFFFFFF AND DUP2 MSTORE PUSH1 0x20 ADD SWAP1 DUP2 MSTORE PUSH1 0x20 ADD PUSH0 KECCAK256 DUP2 SWAP1 SSTORE POP PUSH0 PUSH1 0x9 PUSH0 CALLER PUSH20 0xFFFFFFFFFFFFFFFFFFFFFFFFFFFFFFFFFFFFFFFF AND PUSH20 0xFFFFFFFFFFFFFFFFFFFFFFFFFFFFFFFFFFFFFFFF AND DUP2 MSTORE PUSH1 0x20 ADD SWAP1 DUP2 MSTORE PUSH1 0x20 ADD PUSH0 KECCAK256 DUP2 SWAP1 SSTORE POP PUSH0 PUSH1 0x8 PUSH0 CALLER PUSH20 0xFFFFFFFFFFFFFFFFFFFFFFFFFFFFFFFFFFFFFFFF AND PUSH20 0xFFFFFFFFFFFFFFFFFFFFFFFFFFFFFFFFFFFFFFFF AND DUP2 MSTORE PUSH1 0x20 ADD SWAP1 DUP2 MSTORE PUSH1 0x20 ADD PUSH0 KECCAK256 DUP2 SWAP1 SSTORE POP DUP1 PUSH1 0x6 PUSH0 DUP3 DUP3 SLOAD PUSH2 0x1A74 SWAP2 SWAP1 PUSH2 0x28E1 JUMP JUMPDEST SWAP3 POP POP DUP2 SWAP1 SSTORE POP PUSH2 0x1AC6 CALLER DUP3 PUSH32 0x0 PUSH20 0xFFFFFFFFFFFFFFFFFFFFFFFFFFFFFFFFFFFFFFFF AND PUSH2 0x2375 SWAP1 SWAP3 SWAP2 SWAP1 PUSH4 0xFFFFFFFF AND JUMP JUMPDEST CALLER PUSH20 0xFFFFFFFFFFFFFFFFFFFFFFFFFFFFFFFFFFFFFFFF AND PUSH32 0x5FAFA99D0643513820BE26656B45130B01E1C03062E1266BF36F88CBD3BD9695 DUP3 PUSH1 0x40 MLOAD PUSH2 0x1B0C SWAP2 SWAP1 PUSH2 0x2693 JUMP JUMPDEST PUSH1 0x40 MLOAD DUP1 SWAP2 SUB SWAP1 LOG2 POP PUSH2 0x1B1D PUSH2 0x22D4 JUMP JUMPDEST JUMP JUMPDEST PUSH1 0x5 SLOAD DUP2 JUMP JUMPDEST PUSH2 0x1B2D PUSH2 0x225D JUMP JUMPDEST PUSH1 0xB PUSH0 SWAP1 SLOAD SWAP1 PUSH2 0x100 EXP SWAP1 DIV PUSH1 0xFF AND ISZERO PUSH2 0x1B73 JUMPI PUSH1 0x40 MLOAD PUSH32 0xAB35696F00000000000000000000000000000000000000000000000000000000 DUP2 MSTORE PUSH1 0x4 ADD PUSH1 0x40 MLOAD DUP1 SWAP2 SUB SWAP1 REVERT JUMPDEST CALLER PUSH2 0x1B7C PUSH2 0x1895 JUMP JUMPDEST PUSH1 0x5 DUP2 SWAP1 SSTORE POP PUSH2 0x1B8A PUSH2 0x12AA JUMP JUMPDEST PUSH1 0x4 DUP2 SWAP1 SSTORE POP PUSH0 PUSH20 0xFFFFFFFFFFFFFFFFFFFFFFFFFFFFFFFFFFFFFFFF AND DUP2 PUSH20 0xFFFFFFFFFFFFFFFFFFFFFFFFFFFFFFFFFFFFFFFF AND EQ PUSH2 0x1C52 JUMPI PUSH2 0x1BCC DUP2 PUSH2 0x55A JUMP JUMPDEST PUSH1 0x9 PUSH0 DUP4 PUSH20 0xFFFFFFFFFFFFFFFFFFFFFFFFFFFFFFFFFFFFFFFF AND PUSH20 0xFFFFFFFFFFFFFFFFFFFFFFFFFFFFFFFFFFFFFFFF AND DUP2 MSTORE PUSH1 0x20 ADD SWAP1 DUP2 MSTORE PUSH1 0x20 ADD PUSH0 KECCAK256 DUP2 SWAP1 SSTORE POP PUSH1 0x5 SLOAD PUSH1 0x8 PUSH0 DUP4 PUSH20 0xFFFFFFFFFFFFFFFFFFFFFFFFFFFFFFFFFFFFFFFF AND PUSH20 0xFFFFFFFFFFFFFFFFFFFFFFFFFFFFFFFFFFFFFFFF AND DUP2 MSTORE PUSH1 0x20 ADD SWAP1 DUP2 MSTORE PUSH1 0x20 ADD PUSH0 KECCAK256 DUP2 SWAP1 SSTORE POP JUMPDEST PUSH0 PUSH1 0x7 PUSH0 CALLER PUSH20 0xFFFFFFFFFFFFFFFFFFFFFFFFFFFFFFFFFFFFFFFF AND PUSH20 0xFFFFFFFFFFFFFFFFFFFFFFFFFFFFFFFFFFFFFFFF AND DUP2 MSTORE PUSH1 0x20 ADD SWAP1 DUP2 MSTORE PUSH1 0x20 ADD PUSH0 KECCAK256 SLOAD SWAP1 POP PUSH0 PUSH1 0x9 PUSH0 CALLER PUSH20 0xFFFFFFFFFFFFFFFFFFFFFFFFFFFFFFFFFFFFFFFF AND PUSH20 0xFFFFFFFFFFFFFFFFFFFFFFFFFFFFFFFFFFFFFFFF AND DUP2 MSTORE PUSH1 0x20 ADD SWAP1 DUP2 MSTORE PUSH1 0x20 ADD PUSH0 KECCAK256 SLOAD SWAP1 POP PUSH0 DUP3 GT ISZERO PUSH2 0x1DD0 JUMPI PUSH0 PUSH1 0x7 PUSH0 CALLER PUSH20 0xFFFFFFFFFFFFFFFFFFFFFFFFFFFFFFFFFFFFFFFF AND PUSH20 0xFFFFFFFFFFFFFFFFFFFFFFFFFFFFFFFFFFFFFFFF AND DUP2 MSTORE PUSH1 0x20 ADD SWAP1 DUP2 MSTORE PUSH1 0x20 ADD PUSH0 KECCAK256 DUP2 SWAP1 SSTORE POP DUP2 PUSH1 0x6 PUSH0 DUP3 DUP3 SLOAD PUSH2 0x1D2F SWAP2 SWAP1 PUSH2 0x28E1 JUMP JUMPDEST SWAP3 POP POP DUP2 SWAP1 SSTORE POP PUSH2 0x1D81 CALLER DUP4 PUSH32 0x0 PUSH20 0xFFFFFFFFFFFFFFFFFFFFFFFFFFFFFFFFFFFFFFFF AND PUSH2 0x2375 SWAP1 SWAP3 SWAP2 SWAP1 PUSH4 0xFFFFFFFF AND JUMP JUMPDEST CALLER PUSH20 0xFFFFFFFFFFFFFFFFFFFFFFFFFFFFFFFFFFFFFFFF AND PUSH32 0xF5BB82176FEB1B5E747E28471AA92156A04D9F3AB9F45F28E2D704232B93F75 DUP4 PUSH1 0x40 MLOAD PUSH2 0x1DC7 SWAP2 SWAP1 PUSH2 0x2693 JUMP JUMPDEST PUSH1 0x40 MLOAD DUP1 SWAP2 SUB SWAP1 LOG2 JUMPDEST PUSH0 DUP2 GT ISZERO PUSH2 0x1F65 JUMPI PUSH0 PUSH1 0x6 SLOAD PUSH32 0x0 PUSH20 0xFFFFFFFFFFFFFFFFFFFFFFFFFFFFFFFFFFFFFFFF AND PUSH4 0x70A08231 ADDRESS PUSH1 0x40 MLOAD DUP3 PUSH4 0xFFFFFFFF AND PUSH1 0xE0 SHL DUP2 MSTORE PUSH1 0x4 ADD PUSH2 0x1E35 SWAP2 SWAP1 PUSH2 0x285D JUMP JUMPDEST PUSH1 0x20 PUSH1 0x40 MLOAD DUP1 DUP4 SUB DUP2 DUP7 GAS STATICCALL ISZERO DUP1 ISZERO PUSH2 0x1E50 JUMPI RETURNDATASIZE PUSH0 DUP1 RETURNDATACOPY RETURNDATASIZE PUSH0 REVERT JUMPDEST POP POP POP POP PUSH1 0x40 MLOAD RETURNDATASIZE PUSH1 0x1F NOT PUSH1 0x1F DUP3 ADD AND DUP3 ADD DUP1 PUSH1 0x40 MSTORE POP DUP2 ADD SWAP1 PUSH2 0x1E74 SWAP2 SWAP1 PUSH2 0x2A20 JUMP JUMPDEST PUSH2 0x1E7E SWAP2 SWAP1 PUSH2 0x28E1 JUMP JUMPDEST SWAP1 POP DUP1 DUP3 GT PUSH2 0x1F63 JUMPI PUSH0 PUSH1 0x9 PUSH0 CALLER PUSH20 0xFFFFFFFFFFFFFFFFFFFFFFFFFFFFFFFFFFFFFFFF AND PUSH20 0xFFFFFFFFFFFFFFFFFFFFFFFFFFFFFFFFFFFFFFFF AND DUP2 MSTORE PUSH1 0x20 ADD SWAP1 DUP2 MSTORE PUSH1 0x20 ADD PUSH0 KECCAK256 DUP2 SWAP1 SSTORE POP PUSH2 0x1F14 CALLER DUP4 PUSH32 0x0 PUSH20 0xFFFFFFFFFFFFFFFFFFFFFFFFFFFFFFFFFFFFFFFF AND PUSH2 0x2375 SWAP1 SWAP3 SWAP2 SWAP1 PUSH4 0xFFFFFFFF AND JUMP JUMPDEST CALLER PUSH20 0xFFFFFFFFFFFFFFFFFFFFFFFFFFFFFFFFFFFFFFFF AND PUSH32 0xFC30CDDEA38E2BF4D6EA7D3F9ED3B6AD7F176419F4963BD81318067A4AEE73FE DUP4 PUSH1 0x40 MLOAD PUSH2 0x1F5A SWAP2 SWAP1 PUSH2 0x2693 JUMP JUMPDEST PUSH1 0x40 MLOAD DUP1 SWAP2 SUB SWAP1 LOG2 JUMPDEST POP JUMPDEST POP POP POP PUSH2 0x1F70 PUSH2 0x22D4 JUMP JUMPDEST JUMP JUMPDEST PUSH1 0x3 SLOAD DUP2 JUMP JUMPDEST PUSH2 0x1F80 PUSH2 0x22EE JUMP JUMPDEST PUSH0 PUSH20 0xFFFFFFFFFFFFFFFFFFFFFFFFFFFFFFFFFFFFFFFF AND DUP2 PUSH20 0xFFFFFFFFFFFFFFFFFFFFFFFFFFFFFFFFFFFFFFFF AND SUB PUSH2 0x1FE5 JUMPI PUSH1 0x40 MLOAD PUSH32 0xD92E233D00000000000000000000000000000000000000000000000000000000 DUP2 MSTORE PUSH1 0x4 ADD PUSH1 0x40 MLOAD DUP1 SWAP2 SUB SWAP1 REVERT JUMPDEST PUSH0 PUSH20 0xFFFFFFFFFFFFFFFFFFFFFFFFFFFFFFFFFFFFFFFF AND PUSH1 0x1 PUSH0 SWAP1 SLOAD SWAP1 PUSH2 0x100 EXP SWAP1 DIV PUSH20 0xFFFFFFFFFFFFFFFFFFFFFFFFFFFFFFFFFFFFFFFF AND PUSH20 0xFFFFFFFFFFFFFFFFFFFFFFFFFFFFFFFFFFFFFFFF AND EQ PUSH2 0x20AF JUMPI PUSH0 PUSH1 0xA PUSH0 PUSH1 0x1 PUSH0 SWAP1 SLOAD SWAP1 PUSH2 0x100 EXP SWAP1 DIV PUSH20 0xFFFFFFFFFFFFFFFFFFFFFFFFFFFFFFFFFFFFFFFF AND PUSH20 0xFFFFFFFFFFFFFFFFFFFFFFFFFFFFFFFFFFFFFFFF AND PUSH20 0xFFFFFFFFFFFFFFFFFFFFFFFFFFFFFFFFFFFFFFFF AND DUP2 MSTORE PUSH1 0x20 ADD SWAP1 DUP2 MSTORE PUSH1 0x20 ADD PUSH0 KECCAK256 PUSH0 PUSH2 0x100 EXP DUP2 SLOAD DUP2 PUSH1 0xFF MUL NOT AND SWAP1 DUP4 ISZERO ISZERO MUL OR SWAP1 SSTORE POP JUMPDEST DUP1 PUSH1 0x1 PUSH0 PUSH2 0x100 EXP DUP2 SLOAD DUP2 PUSH20 0xFFFFFFFFFFFFFFFFFFFFFFFFFFFFFFFFFFFFFFFF MUL NOT AND SWAP1 DUP4 PUSH20 0xFFFFFFFFFFFFFFFFFFFFFFFFFFFFFFFFFFFFFFFF AND MUL OR SWAP1 SSTORE POP PUSH1 0x1 PUSH1 0xA PUSH0 DUP4 PUSH20 0xFFFFFFFFFFFFFFFFFFFFFFFFFFFFFFFFFFFFFFFF AND PUSH20 0xFFFFFFFFFFFFFFFFFFFFFFFFFFFFFFFFFFFFFFFF AND DUP2 MSTORE PUSH1 0x20 ADD SWAP1 DUP2 MSTORE PUSH1 0x20 ADD PUSH0 KECCAK256 PUSH0 PUSH2 0x100 EXP DUP2 SLOAD DUP2 PUSH1 0xFF MUL NOT AND SWAP1 DUP4 ISZERO ISZERO MUL OR SWAP1 SSTORE POP DUP1 PUSH20 0xFFFFFFFFFFFFFFFFFFFFFFFFFFFFFFFFFFFFFFFF AND PUSH32 0x3C864541EF71378C6229510ED90F376565EE42D9C5E0904A984A9E863E6DB44F PUSH1 0x40 MLOAD PUSH1 0x40 MLOAD DUP1 SWAP2 SUB SWAP1 LOG2 DUP1 PUSH20 0xFFFFFFFFFFFFFFFFFFFFFFFFFFFFFFFFFFFFFFFF AND PUSH32 0xB33CA1DABFB28A2E1BD06B332C396B1A3D538278691341A5503BBAD53F919197 PUSH1 0x1 PUSH1 0x40 MLOAD PUSH2 0x21CE SWAP2 SWAP1 PUSH2 0x2835 JUMP JUMPDEST PUSH1 0x40 MLOAD DUP1 SWAP2 SUB SWAP1 LOG2 POP JUMP JUMPDEST PUSH2 0x21E1 PUSH2 0x22EE JUMP JUMPDEST PUSH0 PUSH20 0xFFFFFFFFFFFFFFFFFFFFFFFFFFFFFFFFFFFFFFFF AND DUP2 PUSH20 0xFFFFFFFFFFFFFFFFFFFFFFFFFFFFFFFFFFFFFFFF AND SUB PUSH2 0x2251 JUMPI PUSH0 PUSH1 0x40 MLOAD PUSH32 0x1E4FBDF700000000000000000000000000000000000000000000000000000000 DUP2 MSTORE PUSH1 0x4 ADD PUSH2 0x2248 SWAP2 SWAP1 PUSH2 0x285D JUMP JUMPDEST PUSH1 0x40 MLOAD DUP1 SWAP2 SUB SWAP1 REVERT JUMPDEST PUSH2 0x225A DUP2 PUSH2 0x23C8 JUMP JUMPDEST POP JUMP JUMPDEST PUSH2 0x2265 PUSH2 0x2489 JUMP JUMPDEST PUSH1 0x2 PUSH2 0x2277 PUSH2 0x2272 PUSH2 0x24CA JUMP JUMPDEST PUSH2 0x24F3 JUMP JUMPDEST PUSH0 ADD DUP2 SWAP1 SSTORE POP JUMP JUMPDEST PUSH2 0x228D DUP5 DUP5 DUP5 DUP5 PUSH1 0x1 PUSH2 0x24FC JUMP JUMPDEST PUSH2 0x22CE JUMPI DUP4 PUSH1 0x40 MLOAD PUSH32 0x5274AFE700000000000000000000000000000000000000000000000000000000 DUP2 MSTORE PUSH1 0x4 ADD PUSH2 0x22C5 SWAP2 SWAP1 PUSH2 0x285D JUMP JUMPDEST PUSH1 0x40 MLOAD DUP1 SWAP2 SUB SWAP1 REVERT JUMPDEST POP POP POP POP JUMP JUMPDEST PUSH1 0x1 PUSH2 0x22E6 PUSH2 0x22E1 PUSH2 0x24CA JUMP JUMPDEST PUSH2 0x24F3 JUMP JUMPDEST PUSH0 ADD DUP2 SWAP1 SSTORE POP JUMP JUMPDEST PUSH2 0x22F6 PUSH2 0x256D JUMP JUMPDEST PUSH20 0xFFFFFFFFFFFFFFFFFFFFFFFFFFFFFFFFFFFFFFFF AND PUSH2 0x2314 PUSH2 0x14C7 JUMP JUMPDEST PUSH20 0xFFFFFFFFFFFFFFFFFFFFFFFFFFFFFFFFFFFFFFFF AND EQ PUSH2 0x2373 JUMPI PUSH2 0x2337 PUSH2 0x256D JUMP JUMPDEST PUSH1 0x40 MLOAD PUSH32 0x118CDAA700000000000000000000000000000000000000000000000000000000 DUP2 MSTORE PUSH1 0x4 ADD PUSH2 0x236A SWAP2 SWAP1 PUSH2 0x285D JUMP JUMPDEST PUSH1 0x40 MLOAD DUP1 SWAP2 SUB SWAP1 REVERT JUMPDEST JUMP JUMPDEST PUSH2 0x2382 DUP4 DUP4 DUP4 PUSH1 0x1 PUSH2 0x2574 JUMP JUMPDEST PUSH2 0x23C3 JUMPI DUP3 PUSH1 0x40 MLOAD PUSH32 0x5274AFE700000000000000000000000000000000000000000000000000000000 DUP2 MSTORE PUSH1 0x4 ADD PUSH2 0x23BA SWAP2 SWAP1 PUSH2 0x285D JUMP JUMPDEST PUSH1 0x40 MLOAD DUP1 SWAP2 SUB SWAP1 REVERT JUMPDEST POP POP POP JUMP JUMPDEST PUSH0 DUP1 PUSH0 SWAP1 SLOAD SWAP1 PUSH2 0x100 EXP SWAP1 DIV PUSH20 0xFFFFFFFFFFFFFFFFFFFFFFFFFFFFFFFFFFFFFFFF AND SWAP1 POP DUP2 PUSH0 DUP1 PUSH2 0x100 EXP DUP2 SLOAD DUP2 PUSH20 0xFFFFFFFFFFFFFFFFFFFFFFFFFFFFFFFFFFFFFFFF MUL NOT AND SWAP1 DUP4 PUSH20 0xFFFFFFFFFFFFFFFFFFFFFFFFFFFFFFFFFFFFFFFF AND MUL OR SWAP1 SSTORE POP DUP2 PUSH20 0xFFFFFFFFFFFFFFFFFFFFFFFFFFFFFFFFFFFFFFFF AND DUP2 PUSH20 0xFFFFFFFFFFFFFFFFFFFFFFFFFFFFFFFFFFFFFFFF AND PUSH32 0x8BE0079C531659141344CD1FD0A4F28419497F9722A3DAAFE3B4186F6B6457E0 PUSH1 0x40 MLOAD PUSH1 0x40 MLOAD DUP1 SWAP2 SUB SWAP1 LOG3 POP POP JUMP JUMPDEST PUSH2 0x2491 PUSH2 0x25D6 JUMP JUMPDEST ISZERO PUSH2 0x24C8 JUMPI PUSH1 0x40 MLOAD PUSH32 0x3EE5AEB500000000000000000000000000000000000000000000000000000000 DUP2 MSTORE PUSH1 0x4 ADD PUSH1 0x40 MLOAD DUP1 SWAP2 SUB SWAP1 REVERT JUMPDEST JUMP JUMPDEST PUSH0 PUSH32 0x9B779B17422D0DF92223018B32B4D1FA46E071723D6817E2486D003BECC55F00 PUSH0 SHL SWAP1 POP SWAP1 JUMP JUMPDEST PUSH0 DUP2 SWAP1 POP SWAP2 SWAP1 POP JUMP JUMPDEST PUSH0 DUP1 PUSH4 0x23B872DD PUSH1 0xE0 SHL SWAP1 POP PUSH1 0x40 MLOAD DUP2 PUSH0 MSTORE PUSH0 NOT PUSH1 0x60 SHR DUP8 AND PUSH1 0x4 MSTORE PUSH0 NOT PUSH1 0x60 SHR DUP7 AND PUSH1 0x24 MSTORE DUP5 PUSH1 0x44 MSTORE PUSH1 0x20 PUSH0 PUSH1 0x64 PUSH0 DUP1 DUP13 GAS CALL SWAP3 POP PUSH1 0x1 PUSH0 MLOAD EQ DUP4 AND PUSH2 0x255A JUMPI DUP4 DUP4 ISZERO AND ISZERO PUSH2 0x254E JUMPI RETURNDATASIZE PUSH0 DUP3 RETURNDATACOPY RETURNDATASIZE DUP2 REVERT JUMPDEST PUSH0 DUP9 EXTCODESIZE GT RETURNDATASIZE ISZERO AND DUP4 AND SWAP3 POP JUMPDEST DUP1 PUSH1 0x40 MSTORE PUSH0 PUSH1 0x60 MSTORE POP POP SWAP6 SWAP5 POP POP POP POP POP JUMP JUMPDEST PUSH0 CALLER SWAP1 POP SWAP1 JUMP JUMPDEST PUSH0 DUP1 PUSH4 0xA9059CBB PUSH1 0xE0 SHL SWAP1 POP PUSH1 0x40 MLOAD DUP2 PUSH0 MSTORE PUSH0 NOT PUSH1 0x60 SHR DUP7 AND PUSH1 0x4 MSTORE DUP5 PUSH1 0x24 MSTORE PUSH1 0x20 PUSH0 PUSH1 0x44 PUSH0 DUP1 DUP12 GAS CALL SWAP3 POP PUSH1 0x1 PUSH0 MLOAD EQ DUP4 AND PUSH2 0x25C8 JUMPI DUP4 DUP4 ISZERO AND ISZERO PUSH2 0x25BC JUMPI RETURNDATASIZE PUSH0 DUP3 RETURNDATACOPY RETURNDATASIZE DUP2 REVERT JUMPDEST PUSH0 DUP8 EXTCODESIZE GT RETURNDATASIZE ISZERO AND DUP4 AND SWAP3 POP JUMPDEST DUP1 PUSH1 0x40 MSTORE POP POP SWAP5 SWAP4 POP POP POP POP JUMP JUMPDEST PUSH0 PUSH1 0x2 PUSH2 0x25E9 PUSH2 0x25E4 PUSH2 0x24CA JUMP JUMPDEST PUSH2 0x24F3 JUMP JUMPDEST PUSH0 ADD SLOAD EQ SWAP1 POP SWAP1 JUMP JUMPDEST PUSH0 DUP1 REVERT JUMPDEST PUSH0 PUSH20 0xFFFFFFFFFFFFFFFFFFFFFFFFFFFFFFFFFFFFFFFF DUP3 AND SWAP1 POP SWAP2 SWAP1 POP JUMP JUMPDEST PUSH0 PUSH2 0x261F DUP3 PUSH2 0x25F6 JUMP JUMPDEST SWAP1 POP SWAP2 SWAP1 POP JUMP JUMPDEST PUSH2 0x262F DUP2 PUSH2 0x2615 JUMP JUMPDEST DUP2 EQ PUSH2 0x2639 JUMPI PUSH0 DUP1 REVERT JUMPDEST POP JUMP JUMPDEST PUSH0 DUP2 CALLDATALOAD SWAP1 POP PUSH2 0x264A DUP2 PUSH2 0x2626 JUMP JUMPDEST SWAP3 SWAP2 POP POP JUMP JUMPDEST PUSH0 PUSH1 0x20 DUP3 DUP5 SUB SLT ISZERO PUSH2 0x2665 JUMPI PUSH2 0x2664 PUSH2 0x25F2 JUMP JUMPDEST JUMPDEST PUSH0 PUSH2 0x2672 DUP5 DUP3 DUP6 ADD PUSH2 0x263C JUMP JUMPDEST SWAP2 POP POP SWAP3 SWAP2 POP POP JUMP JUMPDEST PUSH0 DUP2 SWAP1 POP SWAP2 SWAP1 POP JUMP JUMPDEST PUSH2 0x268D DUP2 PUSH2 0x267B JUMP JUMPDEST DUP3 MSTORE POP POP JUMP JUMPDEST PUSH0 PUSH1 0x20 DUP3 ADD SWAP1 POP PUSH2 0x26A6 PUSH0 DUP4 ADD DUP5 PUSH2 0x2684 JUMP JUMPDEST SWAP3 SWAP2 POP POP JUMP JUMPDEST PUSH0 DUP2 SWAP1 POP SWAP2 SWAP1 POP JUMP JUMPDEST PUSH0 PUSH2 0x26CF PUSH2 0x26CA PUSH2 0x26C5 DUP5 PUSH2 0x25F6 JUMP JUMPDEST PUSH2 0x26AC JUMP JUMPDEST PUSH2 0x25F6 JUMP JUMPDEST SWAP1 POP SWAP2 SWAP1 POP JUMP JUMPDEST PUSH0 PUSH2 0x26E0 DUP3 PUSH2 0x26B5 JUMP JUMPDEST SWAP1 POP SWAP2 SWAP1 POP JUMP JUMPDEST PUSH0 PUSH2 0x26F1 DUP3 PUSH2 0x26D6 JUMP JUMPDEST SWAP1 POP SWAP2 SWAP1 POP JUMP JUMPDEST PUSH2 0x2701 DUP2 PUSH2 0x26E7 JUMP JUMPDEST DUP3 MSTORE POP POP JUMP JUMPDEST PUSH0 PUSH1 0x20 DUP3 ADD SWAP1 POP PUSH2 0x271A PUSH0 DUP4 ADD DUP5 PUSH2 0x26F8 JUMP JUMPDEST SWAP3 SWAP2 POP POP JUMP JUMPDEST PUSH2 0x2729 DUP2 PUSH2 0x267B JUMP JUMPDEST DUP2 EQ PUSH2 0x2733 JUMPI PUSH0 DUP1 REVERT JUMPDEST POP JUMP JUMPDEST PUSH0 DUP2 CALLDATALOAD SWAP1 POP PUSH2 0x2744 DUP2 PUSH2 0x2720 JUMP JUMPDEST SWAP3 SWAP2 POP POP JUMP JUMPDEST PUSH0 DUP1 PUSH1 0x40 DUP4 DUP6 SUB SLT ISZERO PUSH2 0x2760 JUMPI PUSH2 0x275F PUSH2 0x25F2 JUMP JUMPDEST JUMPDEST PUSH0 PUSH2 0x276D DUP6 DUP3 DUP7 ADD PUSH2 0x2736 JUMP JUMPDEST SWAP3 POP POP PUSH1 0x20 PUSH2 0x277E DUP6 DUP3 DUP7 ADD PUSH2 0x2736 JUMP JUMPDEST SWAP2 POP POP SWAP3 POP SWAP3 SWAP1 POP JUMP JUMPDEST PUSH0 DUP2 ISZERO ISZERO SWAP1 POP SWAP2 SWAP1 POP JUMP JUMPDEST PUSH2 0x279C DUP2 PUSH2 0x2788 JUMP JUMPDEST DUP2 EQ PUSH2 0x27A6 JUMPI PUSH0 DUP1 REVERT JUMPDEST POP JUMP JUMPDEST PUSH0 DUP2 CALLDATALOAD SWAP1 POP PUSH2 0x27B7 DUP2 PUSH2 0x2793 JUMP JUMPDEST SWAP3 SWAP2 POP POP JUMP JUMPDEST PUSH0 DUP1 PUSH1 0x40 DUP4 DUP6 SUB SLT ISZERO PUSH2 0x27D3 JUMPI PUSH2 0x27D2 PUSH2 0x25F2 JUMP JUMPDEST JUMPDEST PUSH0 PUSH2 0x27E0 DUP6 DUP3 DUP7 ADD PUSH2 0x263C JUMP JUMPDEST SWAP3 POP POP PUSH1 0x20 PUSH2 0x27F1 DUP6 DUP3 DUP7 ADD PUSH2 0x27A9 JUMP JUMPDEST SWAP2 POP POP SWAP3 POP SWAP3 SWAP1 POP JUMP JUMPDEST PUSH0 PUSH1 0x20 DUP3 DUP5 SUB SLT ISZERO PUSH2 0x2810 JUMPI PUSH2 0x280F PUSH2 0x25F2 JUMP JUMPDEST JUMPDEST PUSH0 PUSH2 0x281D DUP5 DUP3 DUP6 ADD PUSH2 0x2736 JUMP JUMPDEST SWAP2 POP POP SWAP3 SWAP2 POP POP JUMP JUMPDEST PUSH2 0x282F DUP2 PUSH2 0x2788 JUMP JUMPDEST DUP3 MSTORE POP POP JUMP JUMPDEST PUSH0 PUSH1 0x20 DUP3 ADD SWAP1 POP PUSH2 0x2848 PUSH0 DUP4 ADD DUP5 PUSH2 0x2826 JUMP JUMPDEST SWAP3 SWAP2 POP POP JUMP JUMPDEST PUSH2 0x2857 DUP2 PUSH2 0x2615 JUMP JUMPDEST DUP3 MSTORE POP POP JUMP JUMPDEST PUSH0 PUSH1 0x20 DUP3 ADD SWAP1 POP PUSH2 0x2870 PUSH0 DUP4 ADD DUP5 PUSH2 0x284E JUMP JUMPDEST SWAP3 SWAP2 POP POP JUMP JUMPDEST PUSH0 DUP1 PUSH1 0x40 DUP4 DUP6 SUB SLT ISZERO PUSH2 0x288C JUMPI PUSH2 0x288B PUSH2 0x25F2 JUMP JUMPDEST JUMPDEST PUSH0 PUSH2 0x2899 DUP6 DUP3 DUP7 ADD PUSH2 0x263C JUMP JUMPDEST SWAP3 POP POP PUSH1 0x20 PUSH2 0x28AA DUP6 DUP3 DUP7 ADD PUSH2 0x2736 JUMP JUMPDEST SWAP2 POP POP SWAP3 POP SWAP3 SWAP1 POP JUMP JUMPDEST PUSH32 0x4E487B7100000000000000000000000000000000000000000000000000000000 PUSH0 MSTORE PUSH1 0x11 PUSH1 0x4 MSTORE PUSH1 0x24 PUSH0 REVERT JUMPDEST PUSH0 PUSH2 0x28EB DUP3 PUSH2 0x267B JUMP JUMPDEST SWAP2 POP PUSH2 0x28F6 DUP4 PUSH2 0x267B JUMP JUMPDEST SWAP3 POP DUP3 DUP3 SUB SWAP1 POP DUP2 DUP2 GT ISZERO PUSH2 0x290E JUMPI PUSH2 0x290D PUSH2 0x28B4 JUMP JUMPDEST JUMPDEST SWAP3 SWAP2 POP POP JUMP JUMPDEST PUSH0 PUSH2 0x291E DUP3 PUSH2 0x267B JUMP JUMPDEST SWAP2 POP PUSH2 0x2929 DUP4 PUSH2 0x267B JUMP JUMPDEST SWAP3 POP DUP3 DUP3 MUL PUSH2 0x2937 DUP2 PUSH2 0x267B JUMP JUMPDEST SWAP2 POP DUP3 DUP3 DIV DUP5 EQ DUP4 ISZERO OR PUSH2 0x294E JUMPI PUSH2 0x294D PUSH2 0x28B4 JUMP JUMPDEST JUMPDEST POP SWAP3 SWAP2 POP POP JUMP JUMPDEST PUSH32 0x4E487B7100000000000000000000000000000000000000000000000000000000 PUSH0 MSTORE PUSH1 0x12 PUSH1 0x4 MSTORE PUSH1 0x24 PUSH0 REVERT JUMPDEST PUSH0 PUSH2 0x298C DUP3 PUSH2 0x267B JUMP JUMPDEST SWAP2 POP PUSH2 0x2997 DUP4 PUSH2 0x267B JUMP JUMPDEST SWAP3 POP DUP3 PUSH2 0x29A7 JUMPI PUSH2 0x29A6 PUSH2 0x2955 JUMP JUMPDEST JUMPDEST DUP3 DUP3 DIV SWAP1 POP SWAP3 SWAP2 POP POP JUMP JUMPDEST PUSH0 PUSH2 0x29BC DUP3 PUSH2 0x267B JUMP JUMPDEST SWAP2 POP PUSH2 0x29C7 DUP4 PUSH2 0x267B JUMP JUMPDEST SWAP3 POP DUP3 DUP3 ADD SWAP1 POP DUP1 DUP3 GT ISZERO PUSH2 0x29DF JUMPI PUSH2 0x29DE PUSH2 0x28B4 JUMP JUMPDEST JUMPDEST SWAP3 SWAP2 POP POP JUMP JUMPDEST PUSH0 PUSH1 0x40 DUP3 ADD SWAP1 POP PUSH2 0x29F8 PUSH0 DUP4 ADD DUP6 PUSH2 0x2684 JUMP JUMPDEST PUSH2 0x2A05 PUSH1 0x20 DUP4 ADD DUP5 PUSH2 0x2684 JUMP JUMPDEST SWAP4 SWAP3 POP POP POP JUMP JUMPDEST PUSH0 DUP2 MLOAD SWAP1 POP PUSH2 0x2A1A DUP2 PUSH2 0x2720 JUMP JUMPDEST SWAP3 SWAP2 POP POP JUMP JUMPDEST PUSH0 PUSH1 0x20 DUP3 DUP5 SUB SLT ISZERO PUSH2 0x2A35 JUMPI PUSH2 0x2A34 PUSH2 0x25F2 JUMP JUMPDEST JUMPDEST PUSH0 PUSH2 0x2A42 DUP5 DUP3 DUP6 ADD PUSH2 0x2A0C JUMP JUMPDEST SWAP2 POP POP SWAP3 SWAP2 POP POP JUMP INVALID LOG2 PUSH5 0x6970667358 0x22 SLT KECCAK256 0xBE CALLVALUE 0xA8 MSTORE GASLIMIT GASLIMIT EXTCODEHASH SELFDESTRUCT 0xB1 GASLIMIT BLOBHASH PUSH14 0x3EC6737525A9990ECCEF758736D4 0xBC 0xF8 PUSH28 0x93F2F064736F6C634300081800330000000000000000000000000000 "
				},
				"gasEstimates": {
					"creation": {
						"codeDepositCost": "2176200",
						"executionCost": "infinite",
						"totalCost": "infinite"
					},
					"external": {
						"claimRewards()": "infinite",
						"earned(address)": "infinite",
						"emergencyWithdraw()": "infinite",
						"estimatedAPR()": "infinite",
						"exit()": "infinite",
						"lastTimeRewardApplicable()": "4676",
						"lastUpdateTime()": "2536",
						"notifyRewardAmount(uint256,uint256)": "infinite",
						"owner()": "2560",
						"pause()": "infinite",
						"paused()": "2556",
						"pendingRewards(address)": "2892",
						"periodFinish()": "2491",
						"recoverERC20(address,uint256)": "infinite",
						"renounceOwnership()": "infinite",
						"rewardNotifiers(address)": "2900",
						"rewardPerToken()": "infinite",
						"rewardPerTokenStored()": "2536",
						"rewardRatePerSecond()": "2537",
						"setRewardNotifier(address,bool)": "infinite",
						"setRewardRate(uint256)": "infinite",
						"setTreasury(address)": "infinite",
						"stake(uint256)": "infinite",
						"stakedBalance(address)": "2847",
						"timbsToken()": "infinite",
						"totalStaked()": "2471",
						"transferOwnership(address)": "infinite",
						"treasury()": "2575",
						"unpause()": "infinite",
						"unstake(uint256)": "infinite",
						"userRewardPerTokenPaid(address)": "2914"
					}
				},
				"methodIdentifiers": {
					"claimRewards()": "372500ab",
					"earned(address)": "008cc262",
					"emergencyWithdraw()": "db2e21bc",
					"estimatedAPR()": "5a5cd45e",
					"exit()": "e9fad8ee",
					"lastTimeRewardApplicable()": "80faa57d",
					"lastUpdateTime()": "c8f33c91",
					"notifyRewardAmount(uint256,uint256)": "246132f9",
					"owner()": "8da5cb5b",
					"pause()": "8456cb59",
					"paused()": "5c975abb",
					"pendingRewards(address)": "31d7a262",
					"periodFinish()": "ebe2b12b",
					"recoverERC20(address,uint256)": "8980f11f",
					"renounceOwnership()": "715018a6",
					"rewardNotifiers(address)": "d15166ff",
					"rewardPerToken()": "cd3daf9d",
					"rewardPerTokenStored()": "df136d65",
					"rewardRatePerSecond()": "5d773b2c",
					"setRewardNotifier(address,bool)": "255a4f73",
					"setRewardRate(uint256)": "9e447fc6",
					"setTreasury(address)": "f0f44260",
					"stake(uint256)": "a694fc3a",
					"stakedBalance(address)": "60217267",
					"timbsToken()": "0e31648f",
					"totalStaked()": "817b1cd2",
					"transferOwnership(address)": "f2fde38b",
					"treasury()": "61d027b3",
					"unpause()": "3f4ba83a",
					"unstake(uint256)": "2e17de78",
					"userRewardPerTokenPaid(address)": "8b876347"
				}
			},
			"storageLayout": {
				"storage": [
					{
						"astId": 8,
						"contract": "contracts/TimbStaking.sol:TimbStaking",
						"label": "_owner",
						"offset": 0,
						"slot": "0",
						"type": "t_address"
					},
					{
						"astId": 1071,
						"contract": "contracts/TimbStaking.sol:TimbStaking",
						"label": "treasury",
						"offset": 0,
						"slot": "1",
						"type": "t_address"
					},
					{
						"astId": 1074,
						"contract": "contracts/TimbStaking.sol:TimbStaking",
						"label": "rewardRatePerSecond",
						"offset": 0,
						"slot": "2",
						"type": "t_uint256"
					},
					{
						"astId": 1077,
						"contract": "contracts/TimbStaking.sol:TimbStaking",
						"label": "periodFinish",
						"offset": 0,
						"slot": "3",
						"type": "t_uint256"
					},
					{
						"astId": 1080,
						"contract": "contracts/TimbStaking.sol:TimbStaking",
						"label": "lastUpdateTime",
						"offset": 0,
						"slot": "4",
						"type": "t_uint256"
					},
					{
						"astId": 1083,
						"contract": "contracts/TimbStaking.sol:TimbStaking",
						"label": "rewardPerTokenStored",
						"offset": 0,
						"slot": "5",
						"type": "t_uint256"
					},
					{
						"astId": 1086,
						"contract": "contracts/TimbStaking.sol:TimbStaking",
						"label": "totalStaked",
						"offset": 0,
						"slot": "6",
						"type": "t_uint256"
					},
					{
						"astId": 1091,
						"contract": "contracts/TimbStaking.sol:TimbStaking",
						"label": "stakedBalance",
						"offset": 0,
						"slot": "7",
						"type": "t_mapping(t_address,t_uint256)"
					},
					{
						"astId": 1096,
						"contract": "contracts/TimbStaking.sol:TimbStaking",
						"label": "userRewardPerTokenPaid",
						"offset": 0,
						"slot": "8",
						"type": "t_mapping(t_address,t_uint256)"
					},
					{
						"astId": 1101,
						"contract": "contracts/TimbStaking.sol:TimbStaking",
						"label": "pendingRewards",
						"offset": 0,
						"slot": "9",
						"type": "t_mapping(t_address,t_uint256)"
					},
					{
						"astId": 1106,
						"contract": "contracts/TimbStaking.sol:TimbStaking",
						"label": "rewardNotifiers",
						"offset": 0,
						"slot": "10",
						"type": "t_mapping(t_address,t_bool)"
					},
					{
						"astId": 1109,
						"contract": "contracts/TimbStaking.sol:TimbStaking",
						"label": "paused",
						"offset": 0,
						"slot": "11",
						"type": "t_bool"
					}
				],
				"types": {
					"t_address": {
						"encoding": "inplace",
						"label": "address",
						"numberOfBytes": "20"
					},
					"t_bool": {
						"encoding": "inplace",
						"label": "bool",
						"numberOfBytes": "1"
					},
					"t_mapping(t_address,t_bool)": {
						"encoding": "mapping",
						"key": "t_address",
						"label": "mapping(address => bool)",
						"numberOfBytes": "32",
						"value": "t_bool"
					},
					"t_mapping(t_address,t_uint256)": {
						"encoding": "mapping",
						"key": "t_address",
						"label": "mapping(address => uint256)",
						"numberOfBytes": "32",
						"value": "t_uint256"
					},
					"t_uint256": {
						"encoding": "inplace",
						"label": "uint256",
						"numberOfBytes": "32"
					}
				}
			},
			"userdoc": {
				"kind": "user",
				"methods": {
					"claimRewards()": {
						"notice": "Claim all pending TIMBS rewards."
					},
					"earned(address)": {
						"notice": "Returns total TIMBS earned (pending + unsnapshotted) for `account`."
					},
					"emergencyWithdraw()": {
						"notice": "Emergency withdraw — allows user to recover staked TIMBS         even when paused. Forfeits pending rewards."
					},
					"estimatedAPR()": {
						"notice": "Estimated annual yield for `account` at current rate.         Informational — actual yield depends on total staked changing."
					},
					"exit()": {
						"notice": "Unstake all TIMBS and claim all pending rewards in one tx."
					},
					"lastTimeRewardApplicable()": {
						"notice": "Returns the applicable timestamp for reward accrual.         Caps at periodFinish so rewards stop after the period ends."
					},
					"lastUpdateTime()": {
						"notice": "Last timestamp rewardPerTokenStored was updated."
					},
					"notifyRewardAmount(uint256,uint256)": {
						"notice": "Fund the reward pool and set the distribution period."
					},
					"pause()": {
						"notice": "Emergency pause — halts stake/unstake/claim."
					},
					"paused()": {
						"notice": "Emergency pause flag."
					},
					"pendingRewards(address)": {
						"notice": "Pending (earned but unclaimed) rewards per address."
					},
					"periodFinish()": {
						"notice": "Timestamp when current reward period ends."
					},
					"recoverERC20(address,uint256)": {
						"notice": "Owner can recover ERC20 tokens accidentally sent to this contract."
					},
					"rewardNotifiers(address)": {
						"notice": "Addresses authorised to call notifyRewardAmount()         (owner + treasury)."
					},
					"rewardPerToken()": {
						"notice": "Returns cumulative TIMBS earned per staked TIMBS since deploy."
					},
					"rewardPerTokenStored()": {
						"notice": "Cumulative TIMBS earned per staked TIMBS (18-decimal fixed point)."
					},
					"rewardRatePerSecond()": {
						"notice": "TIMBS rewards distributed per second across all stakers.         Owner-set. Changing mid-period snapshots the current accumulator."
					},
					"setRewardNotifier(address,bool)": {
						"notice": "Add or remove a reward notifier address."
					},
					"setRewardRate(uint256)": {
						"notice": "Update the reward rate directly (owner only)."
					},
					"setTreasury(address)": {
						"notice": "Set TimbTreasury address and authorise it as a reward notifier."
					},
					"stake(uint256)": {
						"notice": "Stake TIMBS to start earning rewards."
					},
					"stakedBalance(address)": {
						"notice": "Staked balance per address."
					},
					"timbsToken()": {
						"notice": "TIMBS token — staked and earned."
					},
					"totalStaked()": {
						"notice": "Total TIMBS currently staked across all users."
					},
					"treasury()": {
						"notice": "TimbTreasury — authorised to call notifyRewardAmount()."
					},
					"unstake(uint256)": {
						"notice": "Reduce or fully withdraw staked TIMBS."
					},
					"userRewardPerTokenPaid(address)": {
						"notice": "Snapshot of rewardPerTokenStored when user last interacted."
					}
				},
				"notice": "Single-asset TIMBS staking pool. Model:   - Stake TIMBS, earn TIMBS distributions.   - Reward source: treasury-seeded allocation + buyback distributions     sent by TimbTreasury after each buyback execution.   - Fixed APR set by owner (changeable anytime).   - Rewards accrue per-second proportional to staker's share.   - No unique stake IDs — single accumulated balance per address.   - Free add/reduce/withdraw anytime — no lock, no penalty. Reward calculation (MasterChef-style rewardPerToken accumulator):   rewardPerTokenStored tracks cumulative TIMBS earned per staked TIMBS.   On every interaction, pending rewards are snapshotted for the user.   This avoids looping over stakers and scales to any number of users. Security (defiSKILL):   - ReentrancyGuard on stake(), unstake(), claimRewards().   - Collateral ownership: all functions verify msg.sender owns the stake     (no delegate staking without explicit approval).   - Flash loan protection: reward accrual uses time-weighted accumulator,     not spot balance — flash staking earns nothing meaningful.   - SafeERC20 on all token transfers.   - Emergency pause on stake/unstake/claim.   - notifyRewardAmount() restricted to owner + treasury (authorised callers). Deployment:   1. Deploy TimbStaking(timbsToken, rewardRatePerSecond)   2. TIMBSToken.setStakingPool(address(this))   3. Fund with initial TIMBS reward allocation from treasury   4. TimbTreasury.setStakingPool(address(this)) for buyback distributions",
				"version": 1
			}
		}
	}
}