{
	"/contracts/PrizeEscrow.sol": {
		"PrizeEscrow": {
			"abi": [
				{
					"inputs": [],
					"stateMutability": "nonpayable",
					"type": "constructor"
				},
				{
					"inputs": [
						{
							"internalType": "uint256",
							"name": "requested",
							"type": "uint256"
						},
						{
							"internalType": "uint256",
							"name": "available",
							"type": "uint256"
						}
					],
					"name": "InsufficientBalance",
					"type": "error"
				},
				{
					"inputs": [],
					"name": "NotTimbPrize",
					"type": "error"
				},
				{
					"inputs": [
						{
							"internalType": "address",
							"name": "owner",
							"type": "address"
						}
					],
					"name": "OwnableInvalidOwner",
					"type": "error"
				},
				{
					"inputs": [
						{
							"internalType": "address",
							"name": "account",
							"type": "address"
						}
					],
					"name": "OwnableUnauthorizedAccount",
					"type": "error"
				},
				{
					"inputs": [],
					"name": "ReentrancyGuardReentrantCall",
					"type": "error"
				},
				{
					"inputs": [],
					"name": "TransferFailed",
					"type": "error"
				},
				{
					"inputs": [],
					"name": "ZeroAddress",
					"type": "error"
				},
				{
					"inputs": [],
					"name": "ZeroAmount",
					"type": "error"
				},
				{
					"anonymous": false,
					"inputs": [
						{
							"indexed": true,
							"internalType": "address",
							"name": "from",
							"type": "address"
						},
						{
							"indexed": false,
							"internalType": "uint256",
							"name": "amount",
							"type": "uint256"
						}
					],
					"name": "Deposited",
					"type": "event"
				},
				{
					"anonymous": false,
					"inputs": [
						{
							"indexed": true,
							"internalType": "address",
							"name": "to",
							"type": "address"
						},
						{
							"indexed": false,
							"internalType": "uint256",
							"name": "amount",
							"type": "uint256"
						}
					],
					"name": "EmergencyWithdrawn",
					"type": "event"
				},
				{
					"anonymous": false,
					"inputs": [
						{
							"indexed": true,
							"internalType": "address",
							"name": "previousOwner",
							"type": "address"
						},
						{
							"indexed": true,
							"internalType": "address",
							"name": "newOwner",
							"type": "address"
						}
					],
					"name": "OwnershipTransferred",
					"type": "event"
				},
				{
					"anonymous": false,
					"inputs": [
						{
							"indexed": true,
							"internalType": "address",
							"name": "timbPrize",
							"type": "address"
						}
					],
					"name": "TimbPrizeSet",
					"type": "event"
				},
				{
					"anonymous": false,
					"inputs": [
						{
							"indexed": true,
							"internalType": "address",
							"name": "winner",
							"type": "address"
						},
						{
							"indexed": false,
							"internalType": "uint256",
							"name": "amount",
							"type": "uint256"
						},
						{
							"indexed": true,
							"internalType": "uint256",
							"name": "round",
							"type": "uint256"
						}
					],
					"name": "WinnerPaid",
					"type": "event"
				},
				{
					"inputs": [],
					"name": "balance",
					"outputs": [
						{
							"internalType": "uint256",
							"name": "",
							"type": "uint256"
						}
					],
					"stateMutability": "view",
					"type": "function"
				},
				{
					"inputs": [],
					"name": "deposit",
					"outputs": [],
					"stateMutability": "payable",
					"type": "function"
				},
				{
					"inputs": [
						{
							"internalType": "address",
							"name": "to",
							"type": "address"
						},
						{
							"internalType": "uint256",
							"name": "amount",
							"type": "uint256"
						}
					],
					"name": "emergencyWithdraw",
					"outputs": [],
					"stateMutability": "nonpayable",
					"type": "function"
				},
				{
					"inputs": [],
					"name": "owner",
					"outputs": [
						{
							"internalType": "address",
							"name": "",
							"type": "address"
						}
					],
					"stateMutability": "view",
					"type": "function"
				},
				{
					"inputs": [
						{
							"internalType": "address",
							"name": "to",
							"type": "address"
						},
						{
							"internalType": "uint256",
							"name": "amount",
							"type": "uint256"
						},
						{
							"internalType": "uint256",
							"name": "round",
							"type": "uint256"
						}
					],
					"name": "pay",
					"outputs": [],
					"stateMutability": "nonpayable",
					"type": "function"
				},
				{
					"inputs": [],
					"name": "renounceOwnership",
					"outputs": [],
					"stateMutability": "nonpayable",
					"type": "function"
				},
				{
					"inputs": [
						{
							"internalType": "address",
							"name": "_timbPrize",
							"type": "address"
						}
					],
					"name": "setTimbPrize",
					"outputs": [],
					"stateMutability": "nonpayable",
					"type": "function"
				},
				{
					"inputs": [],
					"name": "timbPrize",
					"outputs": [
						{
							"internalType": "address",
							"name": "",
							"type": "address"
						}
					],
					"stateMutability": "view",
					"type": "function"
				},
				{
					"inputs": [
						{
							"internalType": "address",
							"name": "newOwner",
							"type": "address"
						}
					],
					"name": "transferOwnership",
					"outputs": [],
					"stateMutability": "nonpayable",
					"type": "function"
				},
				{
					"stateMutability": "payable",
					"type": "receive"
				}
			],
			"devdoc": {
				"errors": {
					"OwnableInvalidOwner(address)": [
						{
							"details": "The owner is not a valid owner account. (eg. `address(0)`)"
						}
					],
					"OwnableUnauthorizedAccount(address)": [
						{
							"details": "The caller account is not authorized to perform an operation."
						}
					],
					"ReentrancyGuardReentrantCall()": [
						{
							"details": "Unauthorized reentrant call."
						}
					]
				},
				"kind": "dev",
				"methods": {
					"deposit()": {
						"details": "Called by TimbTreasury, TimbPrize.fundPot(), or owner seeding.      Also accepts direct ETH via receive()."
					},
					"owner()": {
						"details": "Returns the address of the current owner."
					},
					"pay(address,uint256,uint256)": {
						"params": {
							"amount": "ETH amount in wei.",
							"round": "Round number for event indexing.",
							"to": "Winner address."
						}
					},
					"renounceOwnership()": {
						"details": "Leaves the contract without owner. It will not be possible to call `onlyOwner` functions. Can only be called by the current owner. NOTE: Renouncing ownership will leave the contract without an owner, thereby disabling any functionality that is only available to the owner."
					},
					"transferOwnership(address)": {
						"details": "Transfers ownership of the contract to a new account (`newOwner`). Can only be called by the current owner."
					}
				},
				"title": "PrizeEscrow",
				"version": 1
			},
			"evm": {
				"assembly": "    /* \"/contracts/PrizeEscrow.sol\":1152:5820  contract PrizeEscrow is Ownable, ReentrancyGuard {... */\n  mstore(0x40, 0x80)\n    /* \"/contracts/PrizeEscrow.sol\":2583:2619  constructor() Ownable(msg.sender) {} */\n  callvalue\n  dup1\n  iszero\n  tag_1\n  jumpi\n  0x00\n  dup1\n  revert\ntag_1:\n  pop\n    /* \"/contracts/PrizeEscrow.sol\":2605:2615  msg.sender */\n  caller\n  dup1\n    /* \"@openzeppelin/contracts/access/Ownable.sol\":1269:1364  if (initialOwner == address(0)) {... */\n  tag_6\n  jumpi\n    /* \"@openzeppelin/contracts/access/Ownable.sol\":1322:1353  OwnableInvalidOwner(address(0)) */\n  mload(0x40)\n  shl(0xe0, 0x1e4fbdf7)\n  dup2\n  mstore\n    /* \"@openzeppelin/contracts/access/Ownable.sol\":1350:1351  0 */\n  0x00\n    /* \"@openzeppelin/contracts/access/Ownable.sol\":1322:1353  OwnableInvalidOwner(address(0)) */\n  0x04\n  dup3\n  add\n    /* \"#utility.yul\":160:211   */\n  mstore\n    /* \"#utility.yul\":133:151   */\n  0x24\n  add\n    /* \"@openzeppelin/contracts/access/Ownable.sol\":1322:1353  OwnableInvalidOwner(address(0)) */\n  mload(0x40)\n  dup1\n  swap2\n  sub\n  swap1\n  revert\n    /* \"@openzeppelin/contracts/access/Ownable.sol\":1269:1364  if (initialOwner == address(0)) {... */\ntag_6:\n    /* \"@openzeppelin/contracts/access/Ownable.sol\":1373:1405  _transferOwnership(initialOwner) */\n  tag_9\n    /* \"@openzeppelin/contracts/access/Ownable.sol\":1392:1404  initialOwner */\n  dup2\n    /* \"@openzeppelin/contracts/access/Ownable.sol\":1373:1391  _transferOwnership */\n  tag_10\n    /* \"@openzeppelin/contracts/access/Ownable.sol\":1373:1405  _transferOwnership(initialOwner) */\n  jump\t// in\ntag_9:\n  pop\n    /* \"@openzeppelin/contracts/utils/ReentrancyGuard.sol\":2365:2366  1 */\n  0x01\n    /* \"@openzeppelin/contracts/utils/ReentrancyGuard.sol\":1505:1571  0x9b779b17422d0df92223018b32b4d1fa46e071723d6817e2486d003becc55f00 */\n  0x9b779b17422d0df92223018b32b4d1fa46e071723d6817e2486d003becc55f00\n    /* \"@openzeppelin/contracts/utils/ReentrancyGuard.sol\":2539:2605  _reentrancyGuardStorageSlot().getUint256Slot().value = NOT_ENTERED */\n  sstore\n    /* \"/contracts/PrizeEscrow.sol\":1152:5820  contract PrizeEscrow is Ownable, ReentrancyGuard {... */\n  jump(tag_21)\n    /* \"@openzeppelin/contracts/access/Ownable.sol\":2912:3099  function _transferOwnership(address newOwner) internal virtual {... */\ntag_10:\n    /* \"@openzeppelin/contracts/access/Ownable.sol\":2985:3001  address oldOwner */\n  0x00\n    /* \"@openzeppelin/contracts/access/Ownable.sol\":3004:3010  _owner */\n  dup1\n  sload\n  sub(shl(0xa0, 0x01), 0x01)\n    /* \"@openzeppelin/contracts/access/Ownable.sol\":3020:3037  _owner = newOwner */\n  dup4\n  dup2\n  and\n  not(sub(shl(0xa0, 0x01), 0x01))\n  dup4\n  and\n  dup2\n  or\n  dup5\n  sstore\n    /* \"@openzeppelin/contracts/access/Ownable.sol\":3052:3092  OwnershipTransferred(oldOwner, newOwner) */\n  mload(0x40)\n    /* \"@openzeppelin/contracts/access/Ownable.sol\":3004:3010  _owner */\n  swap2\n  swap1\n  swap3\n  and\n  swap3\n  dup4\n  swap2\n    /* \"@openzeppelin/contracts/access/Ownable.sol\":3052:3092  OwnershipTransferred(oldOwner, newOwner) */\n  0x8be0079c531659141344cd1fd0a4f28419497f9722a3daafe3b4186f6b6457e0\n  swap2\n    /* \"@openzeppelin/contracts/access/Ownable.sol\":2985:3001  address oldOwner */\n  swap1\n    /* \"@openzeppelin/contracts/access/Ownable.sol\":3052:3092  OwnershipTransferred(oldOwner, newOwner) */\n  log3\n    /* \"@openzeppelin/contracts/access/Ownable.sol\":2975:3099  {... */\n  pop\n    /* \"@openzeppelin/contracts/access/Ownable.sol\":2912:3099  function _transferOwnership(address newOwner) internal virtual {... */\n  pop\n  jump\t// out\n    /* \"#utility.yul\":14:217   */\ntag_21:\n    /* \"/contracts/PrizeEscrow.sol\":1152:5820  contract PrizeEscrow is Ownable, ReentrancyGuard {... */\n  dataSize(sub_0)\n  dup1\n  dataOffset(sub_0)\n  0x00\n  codecopy\n  0x00\n  return\nstop\n\nsub_0: assembly {\n        /* \"/contracts/PrizeEscrow.sol\":1152:5820  contract PrizeEscrow is Ownable, ReentrancyGuard {... */\n      mstore(0x40, 0x80)\n      jumpi(tag_1, lt(calldatasize, 0x04))\n      shr(0xe0, calldataload(0x00))\n      dup1\n      0x8da5cb5b\n      gt\n      tag_12\n      jumpi\n      dup1\n      0x8da5cb5b\n      eq\n      tag_7\n      jumpi\n      dup1\n      0x95ccea67\n      eq\n      tag_8\n      jumpi\n      dup1\n      0xb69ef8a8\n      eq\n      tag_9\n      jumpi\n      dup1\n      0xd0e30db0\n      eq\n      tag_10\n      jumpi\n      dup1\n      0xf2fde38b\n      eq\n      tag_11\n      jumpi\n      0x00\n      dup1\n      revert\n    tag_12:\n      dup1\n      0x27b23849\n      eq\n      tag_3\n      jumpi\n      dup1\n      0x5364276d\n      eq\n      tag_4\n      jumpi\n      dup1\n      0x5f065346\n      eq\n      tag_5\n      jumpi\n      dup1\n      0x715018a6\n      eq\n      tag_6\n      jumpi\n      0x00\n      dup1\n      revert\n    tag_1:\n      jumpi(tag_2, calldatasize)\n        /* \"/contracts/PrizeEscrow.sol\":5759:5768  msg.value */\n      callvalue\n        /* \"/contracts/PrizeEscrow.sol\":5759:5772  msg.value > 0 */\n      iszero\n        /* \"/contracts/PrizeEscrow.sol\":5755:5811  if (msg.value > 0) emit Deposited(msg.sender, msg.value) */\n      tag_15\n      jumpi\n        /* \"/contracts/PrizeEscrow.sol\":5779:5811  Deposited(msg.sender, msg.value) */\n      mload(0x40)\n        /* \"/contracts/PrizeEscrow.sol\":5801:5810  msg.value */\n      callvalue\n        /* \"#utility.yul\":160:185   */\n      dup2\n      mstore\n        /* \"/contracts/PrizeEscrow.sol\":5789:5799  msg.sender */\n      caller\n      swap1\n        /* \"/contracts/PrizeEscrow.sol\":5779:5811  Deposited(msg.sender, msg.value) */\n      0x2da466a7b24304f47e87fa2e1e5a81b9831ce54fec19055ce277ca2f39ba42c4\n      swap1\n        /* \"#utility.yul\":148:150   */\n      0x20\n        /* \"#utility.yul\":133:151   */\n      add\n        /* \"/contracts/PrizeEscrow.sol\":5779:5811  Deposited(msg.sender, msg.value) */\n      mload(0x40)\n      dup1\n      swap2\n      sub\n      swap1\n      log2\n        /* \"/contracts/PrizeEscrow.sol\":5755:5811  if (msg.value > 0) emit Deposited(msg.sender, msg.value) */\n    tag_15:\n        /* \"/contracts/PrizeEscrow.sol\":1152:5820  contract PrizeEscrow is Ownable, ReentrancyGuard {... */\n      stop\n    tag_2:\n      0x00\n      dup1\n      revert\n        /* \"/contracts/PrizeEscrow.sol\":4470:4669  function setTimbPrize(address _timbPrize) external onlyOwner {... */\n    tag_3:\n      callvalue\n      dup1\n      iszero\n      tag_18\n      jumpi\n      0x00\n      dup1\n      revert\n    tag_18:\n      pop\n      tag_15\n      tag_20\n      calldatasize\n      0x04\n      tag_21\n      jump\t// in\n    tag_20:\n      tag_22\n      jump\t// in\n        /* \"/contracts/PrizeEscrow.sol\":1491:1515  address public timbPrize */\n    tag_4:\n      callvalue\n      dup1\n      iszero\n      tag_23\n      jumpi\n      0x00\n      dup1\n      revert\n    tag_23:\n      pop\n      sload(0x01)\n      tag_24\n      swap1\n      sub(shl(0xa0, 0x01), 0x01)\n      and\n      dup2\n      jump\n    tag_24:\n      mload(0x40)\n      sub(shl(0xa0, 0x01), 0x01)\n        /* \"#utility.yul\":729:761   */\n      swap1\n      swap2\n      and\n        /* \"#utility.yul\":711:762   */\n      dup2\n      mstore\n        /* \"#utility.yul\":699:701   */\n      0x20\n        /* \"#utility.yul\":684:702   */\n      add\n        /* \"/contracts/PrizeEscrow.sol\":1491:1515  address public timbPrize */\n    tag_26:\n      mload(0x40)\n      dup1\n      swap2\n      sub\n      swap1\n      return\n        /* \"/contracts/PrizeEscrow.sol\":3044:3620  function pay(address to, uint256 amount, uint256 round)... */\n    tag_5:\n      callvalue\n      dup1\n      iszero\n      tag_28\n      jumpi\n      0x00\n      dup1\n      revert\n    tag_28:\n      pop\n      tag_15\n      tag_30\n      calldatasize\n      0x04\n      tag_31\n      jump\t// in\n    tag_30:\n      tag_32\n      jump\t// in\n        /* \"@openzeppelin/contracts/access/Ownable.sol\":2293:2394  function renounceOwnership() public virtual onlyOwner {... */\n    tag_6:\n      callvalue\n      dup1\n      iszero\n      tag_33\n      jumpi\n      0x00\n      dup1\n      revert\n    tag_33:\n      pop\n      tag_15\n      tag_35\n      jump\t// in\n        /* \"@openzeppelin/contracts/access/Ownable.sol\":1638:1723  function owner() public view virtual returns (address) {... */\n    tag_7:\n      callvalue\n      dup1\n      iszero\n      tag_36\n      jumpi\n      0x00\n      dup1\n      revert\n    tag_36:\n      pop\n        /* \"@openzeppelin/contracts/access/Ownable.sol\":1684:1691  address */\n      0x00\n        /* \"@openzeppelin/contracts/access/Ownable.sol\":1710:1716  _owner */\n      sload\n      sub(shl(0xa0, 0x01), 0x01)\n      and\n        /* \"@openzeppelin/contracts/access/Ownable.sol\":1638:1723  function owner() public view virtual returns (address) {... */\n      jump(tag_24)\n        /* \"/contracts/PrizeEscrow.sol\":4756:5281  function emergencyWithdraw(address to, uint256 amount)... */\n    tag_8:\n      callvalue\n      dup1\n      iszero\n      tag_40\n      jumpi\n      0x00\n      dup1\n      revert\n    tag_40:\n      pop\n      tag_15\n      tag_42\n      calldatasize\n      0x04\n      tag_43\n      jump\t// in\n    tag_42:\n      tag_44\n      jump\t// in\n        /* \"/contracts/PrizeEscrow.sol\":5573:5669  function balance() external view returns (uint256) {... */\n    tag_9:\n      callvalue\n      dup1\n      iszero\n      tag_45\n      jumpi\n      0x00\n      dup1\n      revert\n    tag_45:\n      pop\n      mload(0x40)\n        /* \"/contracts/PrizeEscrow.sol\":5641:5662  address(this).balance */\n      selfbalance\n        /* \"#utility.yul\":160:185   */\n      dup2\n      mstore\n        /* \"#utility.yul\":148:150   */\n      0x20\n        /* \"#utility.yul\":133:151   */\n      add\n        /* \"/contracts/PrizeEscrow.sol\":5573:5669  function balance() external view returns (uint256) {... */\n      tag_26\n        /* \"#utility.yul\":14:191   */\n      jump\n        /* \"/contracts/PrizeEscrow.sol\":4029:4168  function deposit() external payable {... */\n    tag_10:\n      tag_15\n      tag_50\n      jump\t// in\n        /* \"@openzeppelin/contracts/access/Ownable.sol\":2543:2758  function transferOwnership(address newOwner) public virtual onlyOwner {... */\n    tag_11:\n      callvalue\n      dup1\n      iszero\n      tag_51\n      jumpi\n      0x00\n      dup1\n      revert\n    tag_51:\n      pop\n      tag_15\n      tag_53\n      calldatasize\n      0x04\n      tag_21\n      jump\t// in\n    tag_53:\n      tag_54\n      jump\t// in\n        /* \"/contracts/PrizeEscrow.sol\":4470:4669  function setTimbPrize(address _timbPrize) external onlyOwner {... */\n    tag_22:\n        /* \"@openzeppelin/contracts/access/Ownable.sol\":1531:1544  _checkOwner() */\n      tag_56\n        /* \"@openzeppelin/contracts/access/Ownable.sol\":1531:1542  _checkOwner */\n      tag_57\n        /* \"@openzeppelin/contracts/access/Ownable.sol\":1531:1544  _checkOwner() */\n      jump\t// in\n    tag_56:\n      sub(shl(0xa0, 0x01), 0x01)\n        /* \"/contracts/PrizeEscrow.sol\":4545:4569  _timbPrize == address(0) */\n      dup2\n      and\n        /* \"/contracts/PrizeEscrow.sol\":4541:4591  if (_timbPrize == address(0)) revert ZeroAddress() */\n      tag_59\n      jumpi\n        /* \"/contracts/PrizeEscrow.sol\":4578:4591  ZeroAddress() */\n      mload(0x40)\n      shl(0xe0, 0xd92e233d)\n      dup2\n      mstore\n      0x04\n      add\n      mload(0x40)\n      dup1\n      swap2\n      sub\n      swap1\n      revert\n        /* \"/contracts/PrizeEscrow.sol\":4541:4591  if (_timbPrize == address(0)) revert ZeroAddress() */\n    tag_59:\n        /* \"/contracts/PrizeEscrow.sol\":4601:4610  timbPrize */\n      0x01\n        /* \"/contracts/PrizeEscrow.sol\":4601:4623  timbPrize = _timbPrize */\n      dup1\n      sload\n      not(sub(shl(0xa0, 0x01), 0x01))\n      and\n      sub(shl(0xa0, 0x01), 0x01)\n      dup4\n      and\n      swap1\n      dup2\n      or\n      swap1\n      swap2\n      sstore\n        /* \"/contracts/PrizeEscrow.sol\":4638:4662  TimbPrizeSet(_timbPrize) */\n      mload(0x40)\n      0x89386b8711bad3ec737a1746dbcc52de03de68add300345f9acb944c28ae03f3\n      swap1\n      0x00\n      swap1\n      log2\n        /* \"/contracts/PrizeEscrow.sol\":4470:4669  function setTimbPrize(address _timbPrize) external onlyOwner {... */\n      pop\n      jump\t// out\n        /* \"/contracts/PrizeEscrow.sol\":3044:3620  function pay(address to, uint256 amount, uint256 round)... */\n    tag_32:\n        /* \"@openzeppelin/contracts/utils/ReentrancyGuard.sol\":3023:3044  _nonReentrantBefore() */\n      tag_61\n        /* \"@openzeppelin/contracts/utils/ReentrancyGuard.sol\":3023:3042  _nonReentrantBefore */\n      tag_62\n        /* \"@openzeppelin/contracts/utils/ReentrancyGuard.sol\":3023:3044  _nonReentrantBefore() */\n      jump\t// in\n    tag_61:\n        /* \"/contracts/PrizeEscrow.sol\":3170:3179  timbPrize */\n      and(sub(shl(0xa0, 0x01), 0x01), sload(0x01))\n        /* \"/contracts/PrizeEscrow.sol\":3156:3166  msg.sender */\n      caller\n        /* \"/contracts/PrizeEscrow.sol\":3156:3179  msg.sender != timbPrize */\n      eq\n        /* \"/contracts/PrizeEscrow.sol\":3152:3209  if (msg.sender != timbPrize)        revert NotTimbPrize() */\n      tag_64\n      jumpi\n        /* \"/contracts/PrizeEscrow.sol\":3195:3209  NotTimbPrize() */\n      mload(0x40)\n      shl(0xe0, 0x3e94dce9)\n      dup2\n      mstore\n      0x04\n      add\n      mload(0x40)\n      dup1\n      swap2\n      sub\n      swap1\n      revert\n        /* \"/contracts/PrizeEscrow.sol\":3152:3209  if (msg.sender != timbPrize)        revert NotTimbPrize() */\n    tag_64:\n      sub(shl(0xa0, 0x01), 0x01)\n        /* \"/contracts/PrizeEscrow.sol\":3223:3239  to == address(0) */\n      dup4\n      and\n        /* \"/contracts/PrizeEscrow.sol\":3219:3275  if (to == address(0))               revert ZeroAddress() */\n      tag_65\n      jumpi\n        /* \"/contracts/PrizeEscrow.sol\":3262:3275  ZeroAddress() */\n      mload(0x40)\n      shl(0xe0, 0xd92e233d)\n      dup2\n      mstore\n      0x04\n      add\n      mload(0x40)\n      dup1\n      swap2\n      sub\n      swap1\n      revert\n        /* \"/contracts/PrizeEscrow.sol\":3219:3275  if (to == address(0))               revert ZeroAddress() */\n    tag_65:\n        /* \"/contracts/PrizeEscrow.sol\":3289:3295  amount */\n      dup2\n        /* \"/contracts/PrizeEscrow.sol\":3299:3300  0 */\n      0x00\n        /* \"/contracts/PrizeEscrow.sol\":3289:3300  amount == 0 */\n      sub\n        /* \"/contracts/PrizeEscrow.sol\":3285:3340  if (amount == 0)                    revert ZeroAmount() */\n      tag_66\n      jumpi\n        /* \"/contracts/PrizeEscrow.sol\":3328:3340  ZeroAmount() */\n      mload(0x40)\n      shl(0xe0, 0x1f2a2005)\n      dup2\n      mstore\n      0x04\n      add\n      mload(0x40)\n      dup1\n      swap2\n      sub\n      swap1\n      revert\n        /* \"/contracts/PrizeEscrow.sol\":3285:3340  if (amount == 0)                    revert ZeroAmount() */\n    tag_66:\n        /* \"/contracts/PrizeEscrow.sol\":3363:3384  address(this).balance */\n      selfbalance\n        /* \"/contracts/PrizeEscrow.sol\":3354:3360  amount */\n      dup3\n        /* \"/contracts/PrizeEscrow.sol\":3354:3384  amount > address(this).balance */\n      gt\n        /* \"/contracts/PrizeEscrow.sol\":3350:3468  if (amount > address(this).balance) {... */\n      iszero\n      tag_67\n      jumpi\n        /* \"/contracts/PrizeEscrow.sol\":3407:3457  InsufficientBalance(amount, address(this).balance) */\n      mload(0x40)\n      shl(0xe0, 0xcf479181)\n      dup2\n      mstore\n      0x04\n      dup2\n      add\n        /* \"#utility.yul\":1533:1558   */\n      dup4\n      swap1\n      mstore\n        /* \"/contracts/PrizeEscrow.sol\":3435:3456  address(this).balance */\n      selfbalance\n        /* \"#utility.yul\":1574:1592   */\n      0x24\n      dup3\n      add\n        /* \"#utility.yul\":1567:1601   */\n      mstore\n        /* \"#utility.yul\":1506:1524   */\n      0x44\n      add\n        /* \"/contracts/PrizeEscrow.sol\":3407:3457  InsufficientBalance(amount, address(this).balance) */\n    tag_68:\n      mload(0x40)\n      dup1\n      swap2\n      sub\n      swap1\n      revert\n        /* \"/contracts/PrizeEscrow.sol\":3350:3468  if (amount > address(this).balance) {... */\n    tag_67:\n        /* \"/contracts/PrizeEscrow.sol\":3479:3486  bool ok */\n      0x00\n        /* \"/contracts/PrizeEscrow.sol\":3499:3501  to */\n      dup4\n      sub(shl(0xa0, 0x01), 0x01)\n        /* \"/contracts/PrizeEscrow.sol\":3491:3507  payable(to).call */\n      and\n        /* \"/contracts/PrizeEscrow.sol\":3515:3521  amount */\n      dup4\n        /* \"/contracts/PrizeEscrow.sol\":3491:3526  payable(to).call{value: amount}(\"\") */\n      mload(0x40)\n      0x00\n      mload(0x40)\n      dup1\n      dup4\n      sub\n      dup2\n      dup6\n      dup8\n      gas\n      call\n      swap3\n      pop\n      pop\n      pop\n      returndatasize\n      dup1\n      0x00\n      dup2\n      eq\n      tag_74\n      jumpi\n      mload(0x40)\n      swap2\n      pop\n      and(add(returndatasize, 0x3f), not(0x1f))\n      dup3\n      add\n      0x40\n      mstore\n      returndatasize\n      dup3\n      mstore\n      returndatasize\n      0x00\n      0x20\n      dup5\n      add\n      returndatacopy\n      jump(tag_73)\n    tag_74:\n      0x60\n      swap2\n      pop\n    tag_73:\n      pop\n        /* \"/contracts/PrizeEscrow.sol\":3478:3526  (bool ok,) = payable(to).call{value: amount}(\"\") */\n      pop\n      swap1\n      pop\n        /* \"/contracts/PrizeEscrow.sol\":3541:3543  ok */\n      dup1\n        /* \"/contracts/PrizeEscrow.sol\":3536:3568  if (!ok) revert TransferFailed() */\n      tag_75\n      jumpi\n        /* \"/contracts/PrizeEscrow.sol\":3552:3568  TransferFailed() */\n      mload(0x40)\n      shl(0xe3, 0x12171d83)\n      dup2\n      mstore\n      0x04\n      add\n      mload(0x40)\n      dup1\n      swap2\n      sub\n      swap1\n      revert\n        /* \"/contracts/PrizeEscrow.sol\":3536:3568  if (!ok) revert TransferFailed() */\n    tag_75:\n        /* \"/contracts/PrizeEscrow.sol\":3607:3612  round */\n      dup2\n        /* \"/contracts/PrizeEscrow.sol\":3595:3597  to */\n      dup5\n      sub(shl(0xa0, 0x01), 0x01)\n        /* \"/contracts/PrizeEscrow.sol\":3584:3613  WinnerPaid(to, amount, round) */\n      and\n      0x88f3705f0c4d3c5b1a1d29fe4fd3f87e889a5a0ce0a1e37989766b3248603fe9\n        /* \"/contracts/PrizeEscrow.sol\":3599:3605  amount */\n      dup6\n        /* \"/contracts/PrizeEscrow.sol\":3584:3613  WinnerPaid(to, amount, round) */\n      mload(0x40)\n      tag_76\n      swap2\n        /* \"#utility.yul\":160:185   */\n      dup2\n      mstore\n        /* \"#utility.yul\":148:150   */\n      0x20\n        /* \"#utility.yul\":133:151   */\n      add\n      swap1\n        /* \"#utility.yul\":14:191   */\n      jump\n        /* \"/contracts/PrizeEscrow.sol\":3584:3613  WinnerPaid(to, amount, round) */\n    tag_76:\n      mload(0x40)\n      dup1\n      swap2\n      sub\n      swap1\n      log3\n        /* \"/contracts/PrizeEscrow.sol\":3142:3620  {... */\n      pop\n        /* \"@openzeppelin/contracts/utils/ReentrancyGuard.sol\":3065:3085  _nonReentrantAfter() */\n      tag_77\n        /* \"@openzeppelin/contracts/utils/ReentrancyGuard.sol\":2365:2366  1 */\n      0x01\n      0x00\n      dup1\n      mload\n      0x20\n      data_c8669cf8eaf883002b9f48e28846a8d408c9b58ea6613bace374265e43c9bc43\n      dup4\n      codecopy\n      dup2\n      mload\n      swap2\n      mstore\n        /* \"@openzeppelin/contracts/utils/ReentrancyGuard.sol\":3972:4034  _reentrancyGuardStorageSlot().getUint256Slot().value = ENTERED */\n      sstore\n        /* \"@openzeppelin/contracts/utils/ReentrancyGuard.sol\":3749:4041  function _nonReentrantBefore() private {... */\n      jump\n        /* \"@openzeppelin/contracts/utils/ReentrancyGuard.sol\":3065:3085  _nonReentrantAfter() */\n    tag_77:\n        /* \"/contracts/PrizeEscrow.sol\":3044:3620  function pay(address to, uint256 amount, uint256 round)... */\n      pop\n      pop\n      pop\n      jump\t// out\n        /* \"@openzeppelin/contracts/access/Ownable.sol\":2293:2394  function renounceOwnership() public virtual onlyOwner {... */\n    tag_35:\n        /* \"@openzeppelin/contracts/access/Ownable.sol\":1531:1544  _checkOwner() */\n      tag_80\n        /* \"@openzeppelin/contracts/access/Ownable.sol\":1531:1542  _checkOwner */\n      tag_57\n        /* \"@openzeppelin/contracts/access/Ownable.sol\":1531:1544  _checkOwner() */\n      jump\t// in\n    tag_80:\n        /* \"@openzeppelin/contracts/access/Ownable.sol\":2357:2387  _transferOwnership(address(0)) */\n      tag_82\n        /* \"@openzeppelin/contracts/access/Ownable.sol\":2384:2385  0 */\n      0x00\n        /* \"@openzeppelin/contracts/access/Ownable.sol\":2357:2375  _transferOwnership */\n      tag_83\n        /* \"@openzeppelin/contracts/access/Ownable.sol\":2357:2387  _transferOwnership(address(0)) */\n      jump\t// in\n    tag_82:\n        /* \"@openzeppelin/contracts/access/Ownable.sol\":2293:2394  function renounceOwnership() public virtual onlyOwner {... */\n      jump\t// out\n        /* \"/contracts/PrizeEscrow.sol\":4756:5281  function emergencyWithdraw(address to, uint256 amount)... */\n    tag_44:\n        /* \"@openzeppelin/contracts/utils/ReentrancyGuard.sol\":3023:3044  _nonReentrantBefore() */\n      tag_86\n        /* \"@openzeppelin/contracts/utils/ReentrancyGuard.sol\":3023:3042  _nonReentrantBefore */\n      tag_62\n        /* \"@openzeppelin/contracts/utils/ReentrancyGuard.sol\":3023:3044  _nonReentrantBefore() */\n      jump\t// in\n    tag_86:\n        /* \"@openzeppelin/contracts/access/Ownable.sol\":1531:1544  _checkOwner() */\n      tag_88\n        /* \"@openzeppelin/contracts/access/Ownable.sol\":1531:1542  _checkOwner */\n      tag_57\n        /* \"@openzeppelin/contracts/access/Ownable.sol\":1531:1544  _checkOwner() */\n      jump\t// in\n    tag_88:\n      sub(shl(0xa0, 0x01), 0x01)\n        /* \"/contracts/PrizeEscrow.sol\":4885:4901  to == address(0) */\n      dup3\n      and\n        /* \"/contracts/PrizeEscrow.sol\":4881:4937  if (to == address(0))               revert ZeroAddress() */\n      tag_90\n      jumpi\n        /* \"/contracts/PrizeEscrow.sol\":4924:4937  ZeroAddress() */\n      mload(0x40)\n      shl(0xe0, 0xd92e233d)\n      dup2\n      mstore\n      0x04\n      add\n      mload(0x40)\n      dup1\n      swap2\n      sub\n      swap1\n      revert\n        /* \"/contracts/PrizeEscrow.sol\":4881:4937  if (to == address(0))               revert ZeroAddress() */\n    tag_90:\n        /* \"/contracts/PrizeEscrow.sol\":4951:4957  amount */\n      dup1\n        /* \"/contracts/PrizeEscrow.sol\":4961:4962  0 */\n      0x00\n        /* \"/contracts/PrizeEscrow.sol\":4951:4962  amount == 0 */\n      sub\n        /* \"/contracts/PrizeEscrow.sol\":4947:5002  if (amount == 0)                    revert ZeroAmount() */\n      tag_91\n      jumpi\n        /* \"/contracts/PrizeEscrow.sol\":4990:5002  ZeroAmount() */\n      mload(0x40)\n      shl(0xe0, 0x1f2a2005)\n      dup2\n      mstore\n      0x04\n      add\n      mload(0x40)\n      dup1\n      swap2\n      sub\n      swap1\n      revert\n        /* \"/contracts/PrizeEscrow.sol\":4947:5002  if (amount == 0)                    revert ZeroAmount() */\n    tag_91:\n        /* \"/contracts/PrizeEscrow.sol\":5025:5046  address(this).balance */\n      selfbalance\n        /* \"/contracts/PrizeEscrow.sol\":5016:5022  amount */\n      dup2\n        /* \"/contracts/PrizeEscrow.sol\":5016:5046  amount > address(this).balance */\n      gt\n        /* \"/contracts/PrizeEscrow.sol\":5012:5130  if (amount > address(this).balance) {... */\n      iszero\n      tag_92\n      jumpi\n        /* \"/contracts/PrizeEscrow.sol\":5069:5119  InsufficientBalance(amount, address(this).balance) */\n      mload(0x40)\n      shl(0xe0, 0xcf479181)\n      dup2\n      mstore\n      0x04\n      dup2\n      add\n        /* \"#utility.yul\":1533:1558   */\n      dup3\n      swap1\n      mstore\n        /* \"/contracts/PrizeEscrow.sol\":5097:5118  address(this).balance */\n      selfbalance\n        /* \"#utility.yul\":1574:1592   */\n      0x24\n      dup3\n      add\n        /* \"#utility.yul\":1567:1601   */\n      mstore\n        /* \"#utility.yul\":1506:1524   */\n      0x44\n      add\n        /* \"/contracts/PrizeEscrow.sol\":5069:5119  InsufficientBalance(amount, address(this).balance) */\n      tag_68\n        /* \"#utility.yul\":1359:1607   */\n      jump\n        /* \"/contracts/PrizeEscrow.sol\":5012:5130  if (amount > address(this).balance) {... */\n    tag_92:\n        /* \"/contracts/PrizeEscrow.sol\":5140:5147  bool ok */\n      0x00\n        /* \"/contracts/PrizeEscrow.sol\":5160:5162  to */\n      dup3\n      sub(shl(0xa0, 0x01), 0x01)\n        /* \"/contracts/PrizeEscrow.sol\":5152:5168  payable(to).call */\n      and\n        /* \"/contracts/PrizeEscrow.sol\":5176:5182  amount */\n      dup3\n        /* \"/contracts/PrizeEscrow.sol\":5152:5187  payable(to).call{value: amount}(\"\") */\n      mload(0x40)\n      0x00\n      mload(0x40)\n      dup1\n      dup4\n      sub\n      dup2\n      dup6\n      dup8\n      gas\n      call\n      swap3\n      pop\n      pop\n      pop\n      returndatasize\n      dup1\n      0x00\n      dup2\n      eq\n      tag_97\n      jumpi\n      mload(0x40)\n      swap2\n      pop\n      and(add(returndatasize, 0x3f), not(0x1f))\n      dup3\n      add\n      0x40\n      mstore\n      returndatasize\n      dup3\n      mstore\n      returndatasize\n      0x00\n      0x20\n      dup5\n      add\n      returndatacopy\n      jump(tag_96)\n    tag_97:\n      0x60\n      swap2\n      pop\n    tag_96:\n      pop\n        /* \"/contracts/PrizeEscrow.sol\":5139:5187  (bool ok,) = payable(to).call{value: amount}(\"\") */\n      pop\n      swap1\n      pop\n        /* \"/contracts/PrizeEscrow.sol\":5202:5204  ok */\n      dup1\n        /* \"/contracts/PrizeEscrow.sol\":5197:5229  if (!ok) revert TransferFailed() */\n      tag_98\n      jumpi\n        /* \"/contracts/PrizeEscrow.sol\":5213:5229  TransferFailed() */\n      mload(0x40)\n      shl(0xe3, 0x12171d83)\n      dup2\n      mstore\n      0x04\n      add\n      mload(0x40)\n      dup1\n      swap2\n      sub\n      swap1\n      revert\n        /* \"/contracts/PrizeEscrow.sol\":5197:5229  if (!ok) revert TransferFailed() */\n    tag_98:\n        /* \"/contracts/PrizeEscrow.sol\":5263:5265  to */\n      dup3\n      sub(shl(0xa0, 0x01), 0x01)\n        /* \"/contracts/PrizeEscrow.sol\":5244:5274  EmergencyWithdrawn(to, amount) */\n      and\n      0x2e39961a70a10f4d46383948095ac2752b3ee642a7c76aa827410aaff08c2e51\n        /* \"/contracts/PrizeEscrow.sol\":5267:5273  amount */\n      dup4\n        /* \"/contracts/PrizeEscrow.sol\":5244:5274  EmergencyWithdrawn(to, amount) */\n      mload(0x40)\n      tag_99\n      swap2\n        /* \"#utility.yul\":160:185   */\n      dup2\n      mstore\n        /* \"#utility.yul\":148:150   */\n      0x20\n        /* \"#utility.yul\":133:151   */\n      add\n      swap1\n        /* \"#utility.yul\":14:191   */\n      jump\n        /* \"/contracts/PrizeEscrow.sol\":5244:5274  EmergencyWithdrawn(to, amount) */\n    tag_99:\n      mload(0x40)\n      dup1\n      swap2\n      sub\n      swap1\n      log2\n        /* \"/contracts/PrizeEscrow.sol\":4871:5281  {... */\n      pop\n        /* \"@openzeppelin/contracts/utils/ReentrancyGuard.sol\":3065:3085  _nonReentrantAfter() */\n      tag_100\n        /* \"@openzeppelin/contracts/utils/ReentrancyGuard.sol\":2365:2366  1 */\n      0x01\n      0x00\n      dup1\n      mload\n      0x20\n      data_c8669cf8eaf883002b9f48e28846a8d408c9b58ea6613bace374265e43c9bc43\n      dup4\n      codecopy\n      dup2\n      mload\n      swap2\n      mstore\n        /* \"@openzeppelin/contracts/utils/ReentrancyGuard.sol\":3972:4034  _reentrancyGuardStorageSlot().getUint256Slot().value = ENTERED */\n      sstore\n        /* \"@openzeppelin/contracts/utils/ReentrancyGuard.sol\":3749:4041  function _nonReentrantBefore() private {... */\n      jump\n        /* \"@openzeppelin/contracts/utils/ReentrancyGuard.sol\":3065:3085  _nonReentrantAfter() */\n    tag_100:\n        /* \"/contracts/PrizeEscrow.sol\":4756:5281  function emergencyWithdraw(address to, uint256 amount)... */\n      pop\n      pop\n      jump\t// out\n        /* \"/contracts/PrizeEscrow.sol\":4029:4168  function deposit() external payable {... */\n    tag_50:\n        /* \"/contracts/PrizeEscrow.sol\":4079:4088  msg.value */\n      callvalue\n        /* \"/contracts/PrizeEscrow.sol\":4092:4093  0 */\n      0x00\n        /* \"/contracts/PrizeEscrow.sol\":4079:4093  msg.value == 0 */\n      sub\n        /* \"/contracts/PrizeEscrow.sol\":4075:4114  if (msg.value == 0) revert ZeroAmount() */\n      tag_103\n      jumpi\n        /* \"/contracts/PrizeEscrow.sol\":4102:4114  ZeroAmount() */\n      mload(0x40)\n      shl(0xe0, 0x1f2a2005)\n      dup2\n      mstore\n      0x04\n      add\n      mload(0x40)\n      dup1\n      swap2\n      sub\n      swap1\n      revert\n        /* \"/contracts/PrizeEscrow.sol\":4075:4114  if (msg.value == 0) revert ZeroAmount() */\n    tag_103:\n        /* \"/contracts/PrizeEscrow.sol\":4129:4161  Deposited(msg.sender, msg.value) */\n      mload(0x40)\n        /* \"/contracts/PrizeEscrow.sol\":4151:4160  msg.value */\n      callvalue\n        /* \"#utility.yul\":160:185   */\n      dup2\n      mstore\n        /* \"/contracts/PrizeEscrow.sol\":4139:4149  msg.sender */\n      caller\n      swap1\n        /* \"/contracts/PrizeEscrow.sol\":4129:4161  Deposited(msg.sender, msg.value) */\n      0x2da466a7b24304f47e87fa2e1e5a81b9831ce54fec19055ce277ca2f39ba42c4\n      swap1\n        /* \"#utility.yul\":148:150   */\n      0x20\n        /* \"#utility.yul\":133:151   */\n      add\n        /* \"/contracts/PrizeEscrow.sol\":4129:4161  Deposited(msg.sender, msg.value) */\n      mload(0x40)\n      dup1\n      swap2\n      sub\n      swap1\n      log2\n        /* \"/contracts/PrizeEscrow.sol\":4029:4168  function deposit() external payable {... */\n      jump\t// out\n        /* \"@openzeppelin/contracts/access/Ownable.sol\":2543:2758  function transferOwnership(address newOwner) public virtual onlyOwner {... */\n    tag_54:\n        /* \"@openzeppelin/contracts/access/Ownable.sol\":1531:1544  _checkOwner() */\n      tag_106\n        /* \"@openzeppelin/contracts/access/Ownable.sol\":1531:1542  _checkOwner */\n      tag_57\n        /* \"@openzeppelin/contracts/access/Ownable.sol\":1531:1544  _checkOwner() */\n      jump\t// in\n    tag_106:\n      sub(shl(0xa0, 0x01), 0x01)\n        /* \"@openzeppelin/contracts/access/Ownable.sol\":2627:2649  newOwner == address(0) */\n      dup2\n      and\n        /* \"@openzeppelin/contracts/access/Ownable.sol\":2623:2714  if (newOwner == address(0)) {... */\n      tag_108\n      jumpi\n        /* \"@openzeppelin/contracts/access/Ownable.sol\":2672:2703  OwnableInvalidOwner(address(0)) */\n      mload(0x40)\n      shl(0xe0, 0x1e4fbdf7)\n      dup2\n      mstore\n        /* \"@openzeppelin/contracts/access/Ownable.sol\":2700:2701  0 */\n      0x00\n        /* \"@openzeppelin/contracts/access/Ownable.sol\":2672:2703  OwnableInvalidOwner(address(0)) */\n      0x04\n      dup3\n      add\n        /* \"#utility.yul\":711:762   */\n      mstore\n        /* \"#utility.yul\":684:702   */\n      0x24\n      add\n        /* \"@openzeppelin/contracts/access/Ownable.sol\":2672:2703  OwnableInvalidOwner(address(0)) */\n      tag_68\n        /* \"#utility.yul\":565:768   */\n      jump\n        /* \"@openzeppelin/contracts/access/Ownable.sol\":2623:2714  if (newOwner == address(0)) {... */\n    tag_108:\n        /* \"@openzeppelin/contracts/access/Ownable.sol\":2723:2751  _transferOwnership(newOwner) */\n      tag_110\n        /* \"@openzeppelin/contracts/access/Ownable.sol\":2742:2750  newOwner */\n      dup2\n        /* \"@openzeppelin/contracts/access/Ownable.sol\":2723:2741  _transferOwnership */\n      tag_83\n        /* \"@openzeppelin/contracts/access/Ownable.sol\":2723:2751  _transferOwnership(newOwner) */\n      jump\t// in\n    tag_110:\n        /* \"@openzeppelin/contracts/access/Ownable.sol\":2543:2758  function transferOwnership(address newOwner) public virtual onlyOwner {... */\n      pop\n      jump\t// out\n        /* \"@openzeppelin/contracts/access/Ownable.sol\":1796:1958  function _checkOwner() internal view virtual {... */\n    tag_57:\n        /* \"@openzeppelin/contracts/access/Ownable.sol\":1684:1691  address */\n      0x00\n        /* \"@openzeppelin/contracts/access/Ownable.sol\":1710:1716  _owner */\n      sload\n      sub(shl(0xa0, 0x01), 0x01)\n      and\n        /* \"@openzeppelin/contracts/utils/Context.sol\":735:745  msg.sender */\n      caller\n        /* \"@openzeppelin/contracts/access/Ownable.sol\":1855:1878  owner() != _msgSender() */\n      eq\n        /* \"@openzeppelin/contracts/access/Ownable.sol\":1851:1952  if (owner() != _msgSender()) {... */\n      tag_82\n      jumpi\n        /* \"@openzeppelin/contracts/access/Ownable.sol\":1901:1941  OwnableUnauthorizedAccount(_msgSender()) */\n      mload(0x40)\n      shl(0xe0, 0x118cdaa7)\n      dup2\n      mstore\n        /* \"@openzeppelin/contracts/utils/Context.sol\":735:745  msg.sender */\n      caller\n        /* \"@openzeppelin/contracts/access/Ownable.sol\":1901:1941  OwnableUnauthorizedAccount(_msgSender()) */\n      0x04\n      dup3\n      add\n        /* \"#utility.yul\":711:762   */\n      mstore\n        /* \"#utility.yul\":684:702   */\n      0x24\n      add\n        /* \"@openzeppelin/contracts/access/Ownable.sol\":1901:1941  OwnableUnauthorizedAccount(_msgSender()) */\n      tag_68\n        /* \"#utility.yul\":565:768   */\n      jump\n        /* \"@openzeppelin/contracts/utils/ReentrancyGuard.sol\":3749:4041  function _nonReentrantBefore() private {... */\n    tag_62:\n        /* \"@openzeppelin/contracts/utils/ReentrancyGuard.sol\":3872:3897  _nonReentrantBeforeView() */\n      tag_119\n        /* \"@openzeppelin/contracts/utils/ReentrancyGuard.sol\":3872:3895  _nonReentrantBeforeView */\n      tag_120\n        /* \"@openzeppelin/contracts/utils/ReentrancyGuard.sol\":3872:3897  _nonReentrantBeforeView() */\n      jump\t// in\n    tag_119:\n        /* \"@openzeppelin/contracts/utils/ReentrancyGuard.sol\":2407:2408  2 */\n      0x02\n      0x00\n      dup1\n      mload\n      0x20\n      data_c8669cf8eaf883002b9f48e28846a8d408c9b58ea6613bace374265e43c9bc43\n      dup4\n      codecopy\n      dup2\n      mload\n      swap2\n      mstore\n        /* \"@openzeppelin/contracts/utils/ReentrancyGuard.sol\":3972:4034  _reentrancyGuardStorageSlot().getUint256Slot().value = ENTERED */\n      sstore\n        /* \"@openzeppelin/contracts/utils/ReentrancyGuard.sol\":3749:4041  function _nonReentrantBefore() private {... */\n      jump\t// out\n        /* \"@openzeppelin/contracts/access/Ownable.sol\":2912:3099  function _transferOwnership(address newOwner) internal virtual {... */\n    tag_83:\n        /* \"@openzeppelin/contracts/access/Ownable.sol\":2985:3001  address oldOwner */\n      0x00\n        /* \"@openzeppelin/contracts/access/Ownable.sol\":3004:3010  _owner */\n      dup1\n      sload\n      sub(shl(0xa0, 0x01), 0x01)\n        /* \"@openzeppelin/contracts/access/Ownable.sol\":3020:3037  _owner = newOwner */\n      dup4\n      dup2\n      and\n      not(sub(shl(0xa0, 0x01), 0x01))\n      dup4\n      and\n      dup2\n      or\n      dup5\n      sstore\n        /* \"@openzeppelin/contracts/access/Ownable.sol\":3052:3092  OwnershipTransferred(oldOwner, newOwner) */\n      mload(0x40)\n        /* \"@openzeppelin/contracts/access/Ownable.sol\":3004:3010  _owner */\n      swap2\n      swap1\n      swap3\n      and\n      swap3\n      dup4\n      swap2\n        /* \"@openzeppelin/contracts/access/Ownable.sol\":3052:3092  OwnershipTransferred(oldOwner, newOwner) */\n      0x8be0079c531659141344cd1fd0a4f28419497f9722a3daafe3b4186f6b6457e0\n      swap2\n        /* \"@openzeppelin/contracts/access/Ownable.sol\":2985:3001  address oldOwner */\n      swap1\n        /* \"@openzeppelin/contracts/access/Ownable.sol\":3052:3092  OwnershipTransferred(oldOwner, newOwner) */\n      log3\n        /* \"@openzeppelin/contracts/access/Ownable.sol\":2975:3099  {... */\n      pop\n        /* \"@openzeppelin/contracts/access/Ownable.sol\":2912:3099  function _transferOwnership(address newOwner) internal virtual {... */\n      pop\n      jump\t// out\n        /* \"@openzeppelin/contracts/utils/ReentrancyGuard.sol\":3586:3743  function _nonReentrantBeforeView() private view {... */\n    tag_120:\n      0x00\n      dup1\n      mload\n      0x20\n      data_c8669cf8eaf883002b9f48e28846a8d408c9b58ea6613bace374265e43c9bc43\n      dup4\n      codecopy\n      dup2\n      mload\n      swap2\n      mstore\n        /* \"@openzeppelin/contracts/utils/ReentrancyGuard.sol\":4560:4612  _reentrancyGuardStorageSlot().getUint256Slot().value */\n      sload\n        /* \"@openzeppelin/contracts/utils/ReentrancyGuard.sol\":2407:2408  2 */\n      0x02\n        /* \"@openzeppelin/contracts/utils/ReentrancyGuard.sol\":4560:4623  _reentrancyGuardStorageSlot().getUint256Slot().value == ENTERED */\n      sub\n        /* \"@openzeppelin/contracts/utils/ReentrancyGuard.sol\":3644:3737  if (_reentrancyGuardEntered()) {... */\n      tag_82\n      jumpi\n        /* \"@openzeppelin/contracts/utils/ReentrancyGuard.sol\":3696:3726  ReentrancyGuardReentrantCall() */\n      mload(0x40)\n      shl(0xe0, 0x3ee5aeb5)\n      dup2\n      mstore\n      0x04\n      add\n      mload(0x40)\n      dup1\n      swap2\n      sub\n      swap1\n      revert\n        /* \"#utility.yul\":196:369   */\n    tag_139:\n        /* \"#utility.yul\":264:284   */\n      dup1\n      calldataload\n      sub(shl(0xa0, 0x01), 0x01)\n        /* \"#utility.yul\":313:344   */\n      dup2\n      and\n        /* \"#utility.yul\":303:345   */\n      dup2\n      eq\n        /* \"#utility.yul\":293:363   */\n      tag_143\n      jumpi\n        /* \"#utility.yul\":359:360   */\n      0x00\n        /* \"#utility.yul\":356:357   */\n      dup1\n        /* \"#utility.yul\":349:361   */\n      revert\n        /* \"#utility.yul\":293:363   */\n    tag_143:\n        /* \"#utility.yul\":196:369   */\n      swap2\n      swap1\n      pop\n      jump\t// out\n        /* \"#utility.yul\":374:560   */\n    tag_21:\n        /* \"#utility.yul\":433:439   */\n      0x00\n        /* \"#utility.yul\":486:488   */\n      0x20\n        /* \"#utility.yul\":474:483   */\n      dup3\n        /* \"#utility.yul\":465:472   */\n      dup5\n        /* \"#utility.yul\":461:484   */\n      sub\n        /* \"#utility.yul\":457:489   */\n      slt\n        /* \"#utility.yul\":454:506   */\n      iszero\n      tag_145\n      jumpi\n        /* \"#utility.yul\":502:503   */\n      0x00\n        /* \"#utility.yul\":499:500   */\n      dup1\n        /* \"#utility.yul\":492:504   */\n      revert\n        /* \"#utility.yul\":454:506   */\n    tag_145:\n        /* \"#utility.yul\":525:554   */\n      tag_146\n        /* \"#utility.yul\":544:553   */\n      dup3\n        /* \"#utility.yul\":525:554   */\n      tag_139\n      jump\t// in\n    tag_146:\n        /* \"#utility.yul\":515:554   */\n      swap4\n        /* \"#utility.yul\":374:560   */\n      swap3\n      pop\n      pop\n      pop\n      jump\t// out\n        /* \"#utility.yul\":773:1095   */\n    tag_31:\n        /* \"#utility.yul\":850:856   */\n      0x00\n        /* \"#utility.yul\":858:864   */\n      dup1\n        /* \"#utility.yul\":866:872   */\n      0x00\n        /* \"#utility.yul\":919:921   */\n      0x60\n        /* \"#utility.yul\":907:916   */\n      dup5\n        /* \"#utility.yul\":898:905   */\n      dup7\n        /* \"#utility.yul\":894:917   */\n      sub\n        /* \"#utility.yul\":890:922   */\n      slt\n        /* \"#utility.yul\":887:939   */\n      iszero\n      tag_149\n      jumpi\n        /* \"#utility.yul\":935:936   */\n      0x00\n        /* \"#utility.yul\":932:933   */\n      dup1\n        /* \"#utility.yul\":925:937   */\n      revert\n        /* \"#utility.yul\":887:939   */\n    tag_149:\n        /* \"#utility.yul\":958:987   */\n      tag_150\n        /* \"#utility.yul\":977:986   */\n      dup5\n        /* \"#utility.yul\":958:987   */\n      tag_139\n      jump\t// in\n    tag_150:\n        /* \"#utility.yul\":948:987   */\n      swap6\n        /* \"#utility.yul\":1034:1036   */\n      0x20\n        /* \"#utility.yul\":1019:1037   */\n      dup6\n      add\n        /* \"#utility.yul\":1006:1038   */\n      calldataload\n      swap6\n      pop\n        /* \"#utility.yul\":1085:1087   */\n      0x40\n        /* \"#utility.yul\":1070:1088   */\n      swap1\n      swap5\n      add\n        /* \"#utility.yul\":1057:1089   */\n      calldataload\n      swap4\n        /* \"#utility.yul\":773:1095   */\n      swap3\n      pop\n      pop\n      pop\n      jump\t// out\n        /* \"#utility.yul\":1100:1354   */\n    tag_43:\n        /* \"#utility.yul\":1168:1174   */\n      0x00\n        /* \"#utility.yul\":1176:1182   */\n      dup1\n        /* \"#utility.yul\":1229:1231   */\n      0x40\n        /* \"#utility.yul\":1217:1226   */\n      dup4\n        /* \"#utility.yul\":1208:1215   */\n      dup6\n        /* \"#utility.yul\":1204:1227   */\n      sub\n        /* \"#utility.yul\":1200:1232   */\n      slt\n        /* \"#utility.yul\":1197:1249   */\n      iszero\n      tag_152\n      jumpi\n        /* \"#utility.yul\":1245:1246   */\n      0x00\n        /* \"#utility.yul\":1242:1243   */\n      dup1\n        /* \"#utility.yul\":1235:1247   */\n      revert\n        /* \"#utility.yul\":1197:1249   */\n    tag_152:\n        /* \"#utility.yul\":1268:1297   */\n      tag_153\n        /* \"#utility.yul\":1287:1296   */\n      dup4\n        /* \"#utility.yul\":1268:1297   */\n      tag_139\n      jump\t// in\n    tag_153:\n        /* \"#utility.yul\":1258:1297   */\n      swap5\n        /* \"#utility.yul\":1344:1346   */\n      0x20\n        /* \"#utility.yul\":1329:1347   */\n      swap4\n      swap1\n      swap4\n      add\n        /* \"#utility.yul\":1316:1348   */\n      calldataload\n      swap4\n      pop\n      pop\n      pop\n        /* \"#utility.yul\":1100:1354   */\n      jump\t// out\n    stop\n    data_c8669cf8eaf883002b9f48e28846a8d408c9b58ea6613bace374265e43c9bc43 9b779b17422d0df92223018b32b4d1fa46e071723d6817e2486d003becc55f00\n\n    auxdata: 0xa264697066735822122014ff1c7ff9c524316994b158629912b9db33dcaf73630140804a4448d681497264736f6c63430008140033\n}\n",
				"bytecode": {
					"linkReferences": {},
					"object": "608060405234801561001057600080fd5b50338061003757604051631e4fbdf760e01b81526000600482015260240160405180910390fd5b6100408161006a565b5060017f9b779b17422d0df92223018b32b4d1fa46e071723d6817e2486d003becc55f00556100ba565b600080546001600160a01b038381166001600160a01b0319831681178455604051919092169283917f8be0079c531659141344cd1fd0a4f28419497f9722a3daafe3b4186f6b6457e09190a35050565b610796806100c96000396000f3fe60806040526004361061008a5760003560e01c80638da5cb5b116100595780638da5cb5b1461016457806395ccea6714610182578063b69ef8a8146101a2578063d0e30db0146101bd578063f2fde38b146101c557600080fd5b806327b23849146100d25780635364276d146100f25780635f0653461461012f578063715018a61461014f57600080fd5b366100cd5734156100cb5760405134815233907f2da466a7b24304f47e87fa2e1e5a81b9831ce54fec19055ce277ca2f39ba42c49060200160405180910390a25b005b600080fd5b3480156100de57600080fd5b506100cb6100ed3660046106c1565b6101e5565b3480156100fe57600080fd5b50600154610112906001600160a01b031681565b6040516001600160a01b0390911681526020015b60405180910390f35b34801561013b57600080fd5b506100cb61014a3660046106e3565b61025e565b34801561015b57600080fd5b506100cb6103dd565b34801561017057600080fd5b506000546001600160a01b0316610112565b34801561018e57600080fd5b506100cb61019d366004610716565b6103f1565b3480156101ae57600080fd5b50604051478152602001610126565b6100cb610546565b3480156101d157600080fd5b506100cb6101e03660046106c1565b61059e565b6101ed6105dc565b6001600160a01b0381166102145760405163d92e233d60e01b815260040160405180910390fd5b600180546001600160a01b0319166001600160a01b0383169081179091556040517f89386b8711bad3ec737a1746dbcc52de03de68add300345f9acb944c28ae03f390600090a250565b610266610609565b6001546001600160a01b0316331461029157604051633e94dce960e01b815260040160405180910390fd5b6001600160a01b0383166102b85760405163d92e233d60e01b815260040160405180910390fd5b816000036102d957604051631f2a200560e01b815260040160405180910390fd5b478211156103085760405163cf47918160e01b8152600481018390524760248201526044015b60405180910390fd5b6000836001600160a01b03168360405160006040518083038185875af1925050503d8060008114610355576040519150601f19603f3d011682016040523d82523d6000602084013e61035a565b606091505b505090508061037c576040516312171d8360e31b815260040160405180910390fd5b81846001600160a01b03167f88f3705f0c4d3c5b1a1d29fe4fd3f87e889a5a0ce0a1e37989766b3248603fe9856040516103b891815260200190565b60405180910390a3506103d8600160008051602061074183398151915255565b505050565b6103e56105dc565b6103ef6000610625565b565b6103f9610609565b6104016105dc565b6001600160a01b0382166104285760405163d92e233d60e01b815260040160405180910390fd5b8060000361044957604051631f2a200560e01b815260040160405180910390fd5b478111156104735760405163cf47918160e01b8152600481018290524760248201526044016102ff565b6000826001600160a01b03168260405160006040518083038185875af1925050503d80600081146104c0576040519150601f19603f3d011682016040523d82523d6000602084013e6104c5565b606091505b50509050806104e7576040516312171d8360e31b815260040160405180910390fd5b826001600160a01b03167f2e39961a70a10f4d46383948095ac2752b3ee642a7c76aa827410aaff08c2e518360405161052291815260200190565b60405180910390a250610542600160008051602061074183398151915255565b5050565b3460000361056757604051631f2a200560e01b815260040160405180910390fd5b60405134815233907f2da466a7b24304f47e87fa2e1e5a81b9831ce54fec19055ce277ca2f39ba42c49060200160405180910390a2565b6105a66105dc565b6001600160a01b0381166105d057604051631e4fbdf760e01b8152600060048201526024016102ff565b6105d981610625565b50565b6000546001600160a01b031633146103ef5760405163118cdaa760e01b81523360048201526024016102ff565b610611610675565b600260008051602061074183398151915255565b600080546001600160a01b038381166001600160a01b0319831681178455604051919092169283917f8be0079c531659141344cd1fd0a4f28419497f9722a3daafe3b4186f6b6457e09190a35050565b600080516020610741833981519152546002036103ef57604051633ee5aeb560e01b815260040160405180910390fd5b80356001600160a01b03811681146106bc57600080fd5b919050565b6000602082840312156106d357600080fd5b6106dc826106a5565b9392505050565b6000806000606084860312156106f857600080fd5b610701846106a5565b95602085013595506040909401359392505050565b6000806040838503121561072957600080fd5b610732836106a5565b94602093909301359350505056fe9b779b17422d0df92223018b32b4d1fa46e071723d6817e2486d003becc55f00a264697066735822122014ff1c7ff9c524316994b158629912b9db33dcaf73630140804a4448d681497264736f6c63430008140033",
					"opcodes": "PUSH1 0x80 PUSH1 0x40 MSTORE CALLVALUE DUP1 ISZERO PUSH2 0x10 JUMPI PUSH1 0x0 DUP1 REVERT JUMPDEST POP CALLER DUP1 PUSH2 0x37 JUMPI PUSH1 0x40 MLOAD PUSH4 0x1E4FBDF7 PUSH1 0xE0 SHL DUP2 MSTORE PUSH1 0x0 PUSH1 0x4 DUP3 ADD MSTORE PUSH1 0x24 ADD PUSH1 0x40 MLOAD DUP1 SWAP2 SUB SWAP1 REVERT JUMPDEST PUSH2 0x40 DUP2 PUSH2 0x6A JUMP JUMPDEST POP PUSH1 0x1 PUSH32 0x9B779B17422D0DF92223018B32B4D1FA46E071723D6817E2486D003BECC55F00 SSTORE PUSH2 0xBA JUMP JUMPDEST PUSH1 0x0 DUP1 SLOAD PUSH1 0x1 PUSH1 0x1 PUSH1 0xA0 SHL SUB DUP4 DUP2 AND PUSH1 0x1 PUSH1 0x1 PUSH1 0xA0 SHL SUB NOT DUP4 AND DUP2 OR DUP5 SSTORE PUSH1 0x40 MLOAD SWAP2 SWAP1 SWAP3 AND SWAP3 DUP4 SWAP2 PUSH32 0x8BE0079C531659141344CD1FD0A4F28419497F9722A3DAAFE3B4186F6B6457E0 SWAP2 SWAP1 LOG3 POP POP JUMP JUMPDEST PUSH2 0x796 DUP1 PUSH2 0xC9 PUSH1 0x0 CODECOPY PUSH1 0x0 RETURN INVALID PUSH1 0x80 PUSH1 0x40 MSTORE PUSH1 0x4 CALLDATASIZE LT PUSH2 0x8A JUMPI PUSH1 0x0 CALLDATALOAD PUSH1 0xE0 SHR DUP1 PUSH4 0x8DA5CB5B GT PUSH2 0x59 JUMPI DUP1 PUSH4 0x8DA5CB5B EQ PUSH2 0x164 JUMPI DUP1 PUSH4 0x95CCEA67 EQ PUSH2 0x182 JUMPI DUP1 PUSH4 0xB69EF8A8 EQ PUSH2 0x1A2 JUMPI DUP1 PUSH4 0xD0E30DB0 EQ PUSH2 0x1BD JUMPI DUP1 PUSH4 0xF2FDE38B EQ PUSH2 0x1C5 JUMPI PUSH1 0x0 DUP1 REVERT JUMPDEST DUP1 PUSH4 0x27B23849 EQ PUSH2 0xD2 JUMPI DUP1 PUSH4 0x5364276D EQ PUSH2 0xF2 JUMPI DUP1 PUSH4 0x5F065346 EQ PUSH2 0x12F JUMPI DUP1 PUSH4 0x715018A6 EQ PUSH2 0x14F JUMPI PUSH1 0x0 DUP1 REVERT JUMPDEST CALLDATASIZE PUSH2 0xCD JUMPI CALLVALUE ISZERO PUSH2 0xCB JUMPI PUSH1 0x40 MLOAD CALLVALUE DUP2 MSTORE CALLER SWAP1 PUSH32 0x2DA466A7B24304F47E87FA2E1E5A81B9831CE54FEC19055CE277CA2F39BA42C4 SWAP1 PUSH1 0x20 ADD PUSH1 0x40 MLOAD DUP1 SWAP2 SUB SWAP1 LOG2 JUMPDEST STOP JUMPDEST PUSH1 0x0 DUP1 REVERT JUMPDEST CALLVALUE DUP1 ISZERO PUSH2 0xDE JUMPI PUSH1 0x0 DUP1 REVERT JUMPDEST POP PUSH2 0xCB PUSH2 0xED CALLDATASIZE PUSH1 0x4 PUSH2 0x6C1 JUMP JUMPDEST PUSH2 0x1E5 JUMP JUMPDEST CALLVALUE DUP1 ISZERO PUSH2 0xFE JUMPI PUSH1 0x0 DUP1 REVERT JUMPDEST POP PUSH1 0x1 SLOAD PUSH2 0x112 SWAP1 PUSH1 0x1 PUSH1 0x1 PUSH1 0xA0 SHL SUB AND DUP2 JUMP JUMPDEST PUSH1 0x40 MLOAD PUSH1 0x1 PUSH1 0x1 PUSH1 0xA0 SHL SUB SWAP1 SWAP2 AND DUP2 MSTORE PUSH1 0x20 ADD JUMPDEST PUSH1 0x40 MLOAD DUP1 SWAP2 SUB SWAP1 RETURN JUMPDEST CALLVALUE DUP1 ISZERO PUSH2 0x13B JUMPI PUSH1 0x0 DUP1 REVERT JUMPDEST POP PUSH2 0xCB PUSH2 0x14A CALLDATASIZE PUSH1 0x4 PUSH2 0x6E3 JUMP JUMPDEST PUSH2 0x25E JUMP JUMPDEST CALLVALUE DUP1 ISZERO PUSH2 0x15B JUMPI PUSH1 0x0 DUP1 REVERT JUMPDEST POP PUSH2 0xCB PUSH2 0x3DD JUMP JUMPDEST CALLVALUE DUP1 ISZERO PUSH2 0x170 JUMPI PUSH1 0x0 DUP1 REVERT JUMPDEST POP PUSH1 0x0 SLOAD PUSH1 0x1 PUSH1 0x1 PUSH1 0xA0 SHL SUB AND PUSH2 0x112 JUMP JUMPDEST CALLVALUE DUP1 ISZERO PUSH2 0x18E JUMPI PUSH1 0x0 DUP1 REVERT JUMPDEST POP PUSH2 0xCB PUSH2 0x19D CALLDATASIZE PUSH1 0x4 PUSH2 0x716 JUMP JUMPDEST PUSH2 0x3F1 JUMP JUMPDEST CALLVALUE DUP1 ISZERO PUSH2 0x1AE JUMPI PUSH1 0x0 DUP1 REVERT JUMPDEST POP PUSH1 0x40 MLOAD SELFBALANCE DUP2 MSTORE PUSH1 0x20 ADD PUSH2 0x126 JUMP JUMPDEST PUSH2 0xCB PUSH2 0x546 JUMP JUMPDEST CALLVALUE DUP1 ISZERO PUSH2 0x1D1 JUMPI PUSH1 0x0 DUP1 REVERT JUMPDEST POP PUSH2 0xCB PUSH2 0x1E0 CALLDATASIZE PUSH1 0x4 PUSH2 0x6C1 JUMP JUMPDEST PUSH2 0x59E JUMP JUMPDEST PUSH2 0x1ED PUSH2 0x5DC JUMP JUMPDEST PUSH1 0x1 PUSH1 0x1 PUSH1 0xA0 SHL SUB DUP2 AND PUSH2 0x214 JUMPI PUSH1 0x40 MLOAD PUSH4 0xD92E233D PUSH1 0xE0 SHL DUP2 MSTORE PUSH1 0x4 ADD PUSH1 0x40 MLOAD DUP1 SWAP2 SUB SWAP1 REVERT JUMPDEST PUSH1 0x1 DUP1 SLOAD PUSH1 0x1 PUSH1 0x1 PUSH1 0xA0 SHL SUB NOT AND PUSH1 0x1 PUSH1 0x1 PUSH1 0xA0 SHL SUB DUP4 AND SWAP1 DUP2 OR SWAP1 SWAP2 SSTORE PUSH1 0x40 MLOAD PUSH32 0x89386B8711BAD3EC737A1746DBCC52DE03DE68ADD300345F9ACB944C28AE03F3 SWAP1 PUSH1 0x0 SWAP1 LOG2 POP JUMP JUMPDEST PUSH2 0x266 PUSH2 0x609 JUMP JUMPDEST PUSH1 0x1 SLOAD PUSH1 0x1 PUSH1 0x1 PUSH1 0xA0 SHL SUB AND CALLER EQ PUSH2 0x291 JUMPI PUSH1 0x40 MLOAD PUSH4 0x3E94DCE9 PUSH1 0xE0 SHL DUP2 MSTORE PUSH1 0x4 ADD PUSH1 0x40 MLOAD DUP1 SWAP2 SUB SWAP1 REVERT JUMPDEST PUSH1 0x1 PUSH1 0x1 PUSH1 0xA0 SHL SUB DUP4 AND PUSH2 0x2B8 JUMPI PUSH1 0x40 MLOAD PUSH4 0xD92E233D PUSH1 0xE0 SHL DUP2 MSTORE PUSH1 0x4 ADD PUSH1 0x40 MLOAD DUP1 SWAP2 SUB SWAP1 REVERT JUMPDEST DUP2 PUSH1 0x0 SUB PUSH2 0x2D9 JUMPI PUSH1 0x40 MLOAD PUSH4 0x1F2A2005 PUSH1 0xE0 SHL DUP2 MSTORE PUSH1 0x4 ADD PUSH1 0x40 MLOAD DUP1 SWAP2 SUB SWAP1 REVERT JUMPDEST SELFBALANCE DUP3 GT ISZERO PUSH2 0x308 JUMPI PUSH1 0x40 MLOAD PUSH4 0xCF479181 PUSH1 0xE0 SHL DUP2 MSTORE PUSH1 0x4 DUP2 ADD DUP4 SWAP1 MSTORE SELFBALANCE PUSH1 0x24 DUP3 ADD MSTORE PUSH1 0x44 ADD JUMPDEST PUSH1 0x40 MLOAD DUP1 SWAP2 SUB SWAP1 REVERT JUMPDEST PUSH1 0x0 DUP4 PUSH1 0x1 PUSH1 0x1 PUSH1 0xA0 SHL SUB AND DUP4 PUSH1 0x40 MLOAD PUSH1 0x0 PUSH1 0x40 MLOAD DUP1 DUP4 SUB DUP2 DUP6 DUP8 GAS CALL SWAP3 POP POP POP RETURNDATASIZE DUP1 PUSH1 0x0 DUP2 EQ PUSH2 0x355 JUMPI PUSH1 0x40 MLOAD SWAP2 POP PUSH1 0x1F NOT PUSH1 0x3F RETURNDATASIZE ADD AND DUP3 ADD PUSH1 0x40 MSTORE RETURNDATASIZE DUP3 MSTORE RETURNDATASIZE PUSH1 0x0 PUSH1 0x20 DUP5 ADD RETURNDATACOPY PUSH2 0x35A JUMP JUMPDEST PUSH1 0x60 SWAP2 POP JUMPDEST POP POP SWAP1 POP DUP1 PUSH2 0x37C JUMPI PUSH1 0x40 MLOAD PUSH4 0x12171D83 PUSH1 0xE3 SHL DUP2 MSTORE PUSH1 0x4 ADD PUSH1 0x40 MLOAD DUP1 SWAP2 SUB SWAP1 REVERT JUMPDEST DUP2 DUP5 PUSH1 0x1 PUSH1 0x1 PUSH1 0xA0 SHL SUB AND PUSH32 0x88F3705F0C4D3C5B1A1D29FE4FD3F87E889A5A0CE0A1E37989766B3248603FE9 DUP6 PUSH1 0x40 MLOAD PUSH2 0x3B8 SWAP2 DUP2 MSTORE PUSH1 0x20 ADD SWAP1 JUMP JUMPDEST PUSH1 0x40 MLOAD DUP1 SWAP2 SUB SWAP1 LOG3 POP PUSH2 0x3D8 PUSH1 0x1 PUSH1 0x0 DUP1 MLOAD PUSH1 0x20 PUSH2 0x741 DUP4 CODECOPY DUP2 MLOAD SWAP2 MSTORE SSTORE JUMP JUMPDEST POP POP POP JUMP JUMPDEST PUSH2 0x3E5 PUSH2 0x5DC JUMP JUMPDEST PUSH2 0x3EF PUSH1 0x0 PUSH2 0x625 JUMP JUMPDEST JUMP JUMPDEST PUSH2 0x3F9 PUSH2 0x609 JUMP JUMPDEST PUSH2 0x401 PUSH2 0x5DC JUMP JUMPDEST PUSH1 0x1 PUSH1 0x1 PUSH1 0xA0 SHL SUB DUP3 AND PUSH2 0x428 JUMPI PUSH1 0x40 MLOAD PUSH4 0xD92E233D PUSH1 0xE0 SHL DUP2 MSTORE PUSH1 0x4 ADD PUSH1 0x40 MLOAD DUP1 SWAP2 SUB SWAP1 REVERT JUMPDEST DUP1 PUSH1 0x0 SUB PUSH2 0x449 JUMPI PUSH1 0x40 MLOAD PUSH4 0x1F2A2005 PUSH1 0xE0 SHL DUP2 MSTORE PUSH1 0x4 ADD PUSH1 0x40 MLOAD DUP1 SWAP2 SUB SWAP1 REVERT JUMPDEST SELFBALANCE DUP2 GT ISZERO PUSH2 0x473 JUMPI PUSH1 0x40 MLOAD PUSH4 0xCF479181 PUSH1 0xE0 SHL DUP2 MSTORE PUSH1 0x4 DUP2 ADD DUP3 SWAP1 MSTORE SELFBALANCE PUSH1 0x24 DUP3 ADD MSTORE PUSH1 0x44 ADD PUSH2 0x2FF JUMP JUMPDEST PUSH1 0x0 DUP3 PUSH1 0x1 PUSH1 0x1 PUSH1 0xA0 SHL SUB AND DUP3 PUSH1 0x40 MLOAD PUSH1 0x0 PUSH1 0x40 MLOAD DUP1 DUP4 SUB DUP2 DUP6 DUP8 GAS CALL SWAP3 POP POP POP RETURNDATASIZE DUP1 PUSH1 0x0 DUP2 EQ PUSH2 0x4C0 JUMPI PUSH1 0x40 MLOAD SWAP2 POP PUSH1 0x1F NOT PUSH1 0x3F RETURNDATASIZE ADD AND DUP3 ADD PUSH1 0x40 MSTORE RETURNDATASIZE DUP3 MSTORE RETURNDATASIZE PUSH1 0x0 PUSH1 0x20 DUP5 ADD RETURNDATACOPY PUSH2 0x4C5 JUMP JUMPDEST PUSH1 0x60 SWAP2 POP JUMPDEST POP POP SWAP1 POP DUP1 PUSH2 0x4E7 JUMPI PUSH1 0x40 MLOAD PUSH4 0x12171D83 PUSH1 0xE3 SHL DUP2 MSTORE PUSH1 0x4 ADD PUSH1 0x40 MLOAD DUP1 SWAP2 SUB SWAP1 REVERT JUMPDEST DUP3 PUSH1 0x1 PUSH1 0x1 PUSH1 0xA0 SHL SUB AND PUSH32 0x2E39961A70A10F4D46383948095AC2752B3EE642A7C76AA827410AAFF08C2E51 DUP4 PUSH1 0x40 MLOAD PUSH2 0x522 SWAP2 DUP2 MSTORE PUSH1 0x20 ADD SWAP1 JUMP JUMPDEST PUSH1 0x40 MLOAD DUP1 SWAP2 SUB SWAP1 LOG2 POP PUSH2 0x542 PUSH1 0x1 PUSH1 0x0 DUP1 MLOAD PUSH1 0x20 PUSH2 0x741 DUP4 CODECOPY DUP2 MLOAD SWAP2 MSTORE SSTORE JUMP JUMPDEST POP POP JUMP JUMPDEST CALLVALUE PUSH1 0x0 SUB PUSH2 0x567 JUMPI PUSH1 0x40 MLOAD PUSH4 0x1F2A2005 PUSH1 0xE0 SHL DUP2 MSTORE PUSH1 0x4 ADD PUSH1 0x40 MLOAD DUP1 SWAP2 SUB SWAP1 REVERT JUMPDEST PUSH1 0x40 MLOAD CALLVALUE DUP2 MSTORE CALLER SWAP1 PUSH32 0x2DA466A7B24304F47E87FA2E1E5A81B9831CE54FEC19055CE277CA2F39BA42C4 SWAP1 PUSH1 0x20 ADD PUSH1 0x40 MLOAD DUP1 SWAP2 SUB SWAP1 LOG2 JUMP JUMPDEST PUSH2 0x5A6 PUSH2 0x5DC JUMP JUMPDEST PUSH1 0x1 PUSH1 0x1 PUSH1 0xA0 SHL SUB DUP2 AND PUSH2 0x5D0 JUMPI PUSH1 0x40 MLOAD PUSH4 0x1E4FBDF7 PUSH1 0xE0 SHL DUP2 MSTORE PUSH1 0x0 PUSH1 0x4 DUP3 ADD MSTORE PUSH1 0x24 ADD PUSH2 0x2FF JUMP JUMPDEST PUSH2 0x5D9 DUP2 PUSH2 0x625 JUMP JUMPDEST POP JUMP JUMPDEST PUSH1 0x0 SLOAD PUSH1 0x1 PUSH1 0x1 PUSH1 0xA0 SHL SUB AND CALLER EQ PUSH2 0x3EF JUMPI PUSH1 0x40 MLOAD PUSH4 0x118CDAA7 PUSH1 0xE0 SHL DUP2 MSTORE CALLER PUSH1 0x4 DUP3 ADD MSTORE PUSH1 0x24 ADD PUSH2 0x2FF JUMP JUMPDEST PUSH2 0x611 PUSH2 0x675 JUMP JUMPDEST PUSH1 0x2 PUSH1 0x0 DUP1 MLOAD PUSH1 0x20 PUSH2 0x741 DUP4 CODECOPY DUP2 MLOAD SWAP2 MSTORE SSTORE JUMP JUMPDEST PUSH1 0x0 DUP1 SLOAD PUSH1 0x1 PUSH1 0x1 PUSH1 0xA0 SHL SUB DUP4 DUP2 AND PUSH1 0x1 PUSH1 0x1 PUSH1 0xA0 SHL SUB NOT DUP4 AND DUP2 OR DUP5 SSTORE PUSH1 0x40 MLOAD SWAP2 SWAP1 SWAP3 AND SWAP3 DUP4 SWAP2 PUSH32 0x8BE0079C531659141344CD1FD0A4F28419497F9722A3DAAFE3B4186F6B6457E0 SWAP2 SWAP1 LOG3 POP POP JUMP JUMPDEST PUSH1 0x0 DUP1 MLOAD PUSH1 0x20 PUSH2 0x741 DUP4 CODECOPY DUP2 MLOAD SWAP2 MSTORE SLOAD PUSH1 0x2 SUB PUSH2 0x3EF JUMPI PUSH1 0x40 MLOAD PUSH4 0x3EE5AEB5 PUSH1 0xE0 SHL DUP2 MSTORE PUSH1 0x4 ADD PUSH1 0x40 MLOAD DUP1 SWAP2 SUB SWAP1 REVERT JUMPDEST DUP1 CALLDATALOAD PUSH1 0x1 PUSH1 0x1 PUSH1 0xA0 SHL SUB DUP2 AND DUP2 EQ PUSH2 0x6BC JUMPI PUSH1 0x0 DUP1 REVERT JUMPDEST SWAP2 SWAP1 POP JUMP JUMPDEST PUSH1 0x0 PUSH1 0x20 DUP3 DUP5 SUB SLT ISZERO PUSH2 0x6D3 JUMPI PUSH1 0x0 DUP1 REVERT JUMPDEST PUSH2 0x6DC DUP3 PUSH2 0x6A5 JUMP JUMPDEST SWAP4 SWAP3 POP POP POP JUMP JUMPDEST PUSH1 0x0 DUP1 PUSH1 0x0 PUSH1 0x60 DUP5 DUP7 SUB SLT ISZERO PUSH2 0x6F8 JUMPI PUSH1 0x0 DUP1 REVERT JUMPDEST PUSH2 0x701 DUP5 PUSH2 0x6A5 JUMP JUMPDEST SWAP6 PUSH1 0x20 DUP6 ADD CALLDATALOAD SWAP6 POP PUSH1 0x40 SWAP1 SWAP5 ADD CALLDATALOAD SWAP4 SWAP3 POP POP POP JUMP JUMPDEST PUSH1 0x0 DUP1 PUSH1 0x40 DUP4 DUP6 SUB SLT ISZERO PUSH2 0x729 JUMPI PUSH1 0x0 DUP1 REVERT JUMPDEST PUSH2 0x732 DUP4 PUSH2 0x6A5 JUMP JUMPDEST SWAP5 PUSH1 0x20 SWAP4 SWAP1 SWAP4 ADD CALLDATALOAD SWAP4 POP POP POP JUMP INVALID SWAP12 PUSH24 0x9B17422D0DF92223018B32B4D1FA46E071723D6817E2486D STOP EXTCODESIZE 0xEC 0xC5 PUSH0 STOP LOG2 PUSH5 0x6970667358 0x22 SLT KECCAK256 EQ SELFDESTRUCT SHR PUSH32 0xF9C524316994B158629912B9DB33DCAF73630140804A4448D681497264736F6C PUSH4 0x43000814 STOP CALLER "
				},
				"gasEstimates": {
					"creation": {
						"codeDepositCost": "388400",
						"executionCost": "48393",
						"totalCost": "436793"
					},
					"external": {
						"balance()": "223",
						"deposit()": "1644",
						"emergencyWithdraw(address,uint256)": "infinite",
						"owner()": "2320",
						"pay(address,uint256,uint256)": "infinite",
						"renounceOwnership()": "infinite",
						"setTimbPrize(address)": "27910",
						"timbPrize()": "2349",
						"transferOwnership(address)": "28421"
					}
				},
				"methodIdentifiers": {
					"balance()": "b69ef8a8",
					"deposit()": "d0e30db0",
					"emergencyWithdraw(address,uint256)": "95ccea67",
					"owner()": "8da5cb5b",
					"pay(address,uint256,uint256)": "5f065346",
					"renounceOwnership()": "715018a6",
					"setTimbPrize(address)": "27b23849",
					"timbPrize()": "5364276d",
					"transferOwnership(address)": "f2fde38b"
				}
			},
			"storageLayout": {
				"storage": [
					{
						"astId": 295,
						"contract": "/contracts/PrizeEscrow.sol:PrizeEscrow",
						"label": "_owner",
						"offset": 0,
						"slot": "0",
						"type": "t_address"
					},
					{
						"astId": 11,
						"contract": "/contracts/PrizeEscrow.sol:PrizeEscrow",
						"label": "timbPrize",
						"offset": 0,
						"slot": "1",
						"type": "t_address"
					}
				],
				"types": {
					"t_address": {
						"encoding": "inplace",
						"label": "address",
						"numberOfBytes": "20"
					}
				}
			},
			"userdoc": {
				"kind": "user",
				"methods": {
					"balance()": {
						"notice": "Current ETH balance held in escrow."
					},
					"deposit()": {
						"notice": "Deposit ETH into the prize pool."
					},
					"emergencyWithdraw(address,uint256)": {
						"notice": "Emergency withdrawal — owner only. Last resort."
					},
					"pay(address,uint256,uint256)": {
						"notice": "Pay a winner. Only callable by TimbPrize."
					},
					"setTimbPrize(address)": {
						"notice": "Set the TimbPrize address — only address that can call pay()."
					},
					"timbPrize()": {
						"notice": "TimbPrize — only address authorised to call pay()."
					}
				},
				"notice": "Holds all prize ETH for the TimbSwap prize game.         Pays winners exclusively on instruction from TimbPrize. Design:   - Single responsibility: hold ETH, pay on authorised instruction.   - Only TimbPrize can call pay(). No other address can move funds.   - Owner and TimbTreasury can deposit ETH (seeding + fee routing).   - Balance is always queryable — feeds the prize pot display.   - No accounting logic — TimbPrize owns the accounting layer. Security:   - ReentrancyGuard on pay() and emergencyWithdraw().   - Only TimbPrize can instruct payouts.   - Emergency withdrawal restricted to owner only.   - ETH transfer uses call{value} with success check.   - ETH only — no ERC-20 tokens. Deployment:   1. Deploy PrizeEscrow()   2. Deploy TimbPrize(prizeEscrow, ...)   3. setTimbPrize(timbPrize)   4. Fund via deposit() or direct ETH send   5. Verify on Sourcify",
				"version": 1
			}
		}
	}
}