{
	"/contracts/TimbLockVault.sol": {
		"TimbLockVault": {
			"abi": [
				{
					"inputs": [
						{
							"internalType": "address",
							"name": "_timbsToken",
							"type": "address"
						}
					],
					"stateMutability": "nonpayable",
					"type": "constructor"
				},
				{
					"inputs": [
						{
							"internalType": "uint256",
							"name": "existingLockId",
							"type": "uint256"
						}
					],
					"name": "ActiveLockExists",
					"type": "error"
				},
				{
					"inputs": [
						{
							"internalType": "uint256",
							"name": "lockId",
							"type": "uint256"
						}
					],
					"name": "AlreadyWithdrawn",
					"type": "error"
				},
				{
					"inputs": [
						{
							"internalType": "uint256",
							"name": "provided",
							"type": "uint256"
						},
						{
							"internalType": "uint256",
							"name": "maximum",
							"type": "uint256"
						}
					],
					"name": "DurationTooLong",
					"type": "error"
				},
				{
					"inputs": [
						{
							"internalType": "uint256",
							"name": "provided",
							"type": "uint256"
						},
						{
							"internalType": "uint256",
							"name": "minimum",
							"type": "uint256"
						}
					],
					"name": "DurationTooShort",
					"type": "error"
				},
				{
					"inputs": [
						{
							"internalType": "uint256",
							"name": "lockId",
							"type": "uint256"
						}
					],
					"name": "LockNotFound",
					"type": "error"
				},
				{
					"inputs": [
						{
							"internalType": "uint256",
							"name": "unlockAt",
							"type": "uint256"
						},
						{
							"internalType": "uint256",
							"name": "currentTime",
							"type": "uint256"
						}
					],
					"name": "LockNotUnlocked",
					"type": "error"
				},
				{
					"inputs": [],
					"name": "LockingCurrentlyPaused",
					"type": "error"
				},
				{
					"inputs": [
						{
							"internalType": "address",
							"name": "caller",
							"type": "address"
						},
						{
							"internalType": "address",
							"name": "locker",
							"type": "address"
						}
					],
					"name": "NotLocker",
					"type": "error"
				},
				{
					"inputs": [
						{
							"internalType": "address",
							"name": "owner",
							"type": "address"
						}
					],
					"name": "OwnableInvalidOwner",
					"type": "error"
				},
				{
					"inputs": [
						{
							"internalType": "address",
							"name": "account",
							"type": "address"
						}
					],
					"name": "OwnableUnauthorizedAccount",
					"type": "error"
				},
				{
					"inputs": [],
					"name": "ReentrancyGuardReentrantCall",
					"type": "error"
				},
				{
					"inputs": [
						{
							"internalType": "address",
							"name": "token",
							"type": "address"
						}
					],
					"name": "SafeERC20FailedOperation",
					"type": "error"
				},
				{
					"inputs": [
						{
							"internalType": "address",
							"name": "token",
							"type": "address"
						}
					],
					"name": "TokenNotWhitelisted",
					"type": "error"
				},
				{
					"inputs": [],
					"name": "TransferAmountMismatch",
					"type": "error"
				},
				{
					"inputs": [],
					"name": "ZeroAddress",
					"type": "error"
				},
				{
					"inputs": [],
					"name": "ZeroAmount",
					"type": "error"
				},
				{
					"anonymous": false,
					"inputs": [
						{
							"indexed": true,
							"internalType": "uint256",
							"name": "lockId",
							"type": "uint256"
						},
						{
							"indexed": true,
							"internalType": "address",
							"name": "locker",
							"type": "address"
						},
						{
							"indexed": true,
							"internalType": "address",
							"name": "token",
							"type": "address"
						},
						{
							"indexed": false,
							"internalType": "uint256",
							"name": "amount",
							"type": "uint256"
						},
						{
							"indexed": false,
							"internalType": "uint256",
							"name": "unlockAt",
							"type": "uint256"
						},
						{
							"indexed": false,
							"internalType": "bool",
							"name": "isTimbs",
							"type": "bool"
						}
					],
					"name": "Locked",
					"type": "event"
				},
				{
					"anonymous": false,
					"inputs": [
						{
							"indexed": true,
							"internalType": "address",
							"name": "by",
							"type": "address"
						}
					],
					"name": "LockingPaused",
					"type": "event"
				},
				{
					"anonymous": false,
					"inputs": [
						{
							"indexed": true,
							"internalType": "address",
							"name": "by",
							"type": "address"
						}
					],
					"name": "LockingUnpaused",
					"type": "event"
				},
				{
					"anonymous": false,
					"inputs": [
						{
							"indexed": true,
							"internalType": "address",
							"name": "previousOwner",
							"type": "address"
						},
						{
							"indexed": true,
							"internalType": "address",
							"name": "newOwner",
							"type": "address"
						}
					],
					"name": "OwnershipTransferred",
					"type": "event"
				},
				{
					"anonymous": false,
					"inputs": [
						{
							"indexed": true,
							"internalType": "address",
							"name": "token",
							"type": "address"
						},
						{
							"indexed": false,
							"internalType": "bool",
							"name": "allowed",
							"type": "bool"
						}
					],
					"name": "TokenWhitelisted",
					"type": "event"
				},
				{
					"anonymous": false,
					"inputs": [
						{
							"indexed": true,
							"internalType": "uint256",
							"name": "lockId",
							"type": "uint256"
						},
						{
							"indexed": true,
							"internalType": "address",
							"name": "locker",
							"type": "address"
						},
						{
							"indexed": true,
							"internalType": "address",
							"name": "token",
							"type": "address"
						},
						{
							"indexed": false,
							"internalType": "uint256",
							"name": "amount",
							"type": "uint256"
						}
					],
					"name": "Withdrawn",
					"type": "event"
				},
				{
					"inputs": [],
					"name": "MAX_DURATION",
					"outputs": [
						{
							"internalType": "uint256",
							"name": "",
							"type": "uint256"
						}
					],
					"stateMutability": "view",
					"type": "function"
				},
				{
					"inputs": [],
					"name": "MIN_DURATION",
					"outputs": [
						{
							"internalType": "uint256",
							"name": "",
							"type": "uint256"
						}
					],
					"stateMutability": "view",
					"type": "function"
				},
				{
					"inputs": [
						{
							"internalType": "address",
							"name": "",
							"type": "address"
						},
						{
							"internalType": "address",
							"name": "",
							"type": "address"
						}
					],
					"name": "activeLockId",
					"outputs": [
						{
							"internalType": "uint256",
							"name": "",
							"type": "uint256"
						}
					],
					"stateMutability": "view",
					"type": "function"
				},
				{
					"inputs": [
						{
							"internalType": "address[]",
							"name": "tokens",
							"type": "address[]"
						}
					],
					"name": "addManyToWhitelist",
					"outputs": [],
					"stateMutability": "nonpayable",
					"type": "function"
				},
				{
					"inputs": [
						{
							"internalType": "address",
							"name": "token",
							"type": "address"
						}
					],
					"name": "addToWhitelist",
					"outputs": [],
					"stateMutability": "nonpayable",
					"type": "function"
				},
				{
					"inputs": [
						{
							"internalType": "address",
							"name": "locker",
							"type": "address"
						},
						{
							"internalType": "address",
							"name": "token",
							"type": "address"
						}
					],
					"name": "getActiveLock",
					"outputs": [
						{
							"components": [
								{
									"internalType": "uint256",
									"name": "lockId",
									"type": "uint256"
								},
								{
									"internalType": "address",
									"name": "locker",
									"type": "address"
								},
								{
									"internalType": "address",
									"name": "token",
									"type": "address"
								},
								{
									"internalType": "uint256",
									"name": "amount",
									"type": "uint256"
								},
								{
									"internalType": "uint256",
									"name": "lockedAt",
									"type": "uint256"
								},
								{
									"internalType": "uint256",
									"name": "unlockAt",
									"type": "uint256"
								},
								{
									"internalType": "enum TimbLockVault.LockStatus",
									"name": "status",
									"type": "uint8"
								},
								{
									"internalType": "bool",
									"name": "isTimbs",
									"type": "bool"
								}
							],
							"internalType": "struct TimbLockVault.LockEntry",
							"name": "",
							"type": "tuple"
						}
					],
					"stateMutability": "view",
					"type": "function"
				},
				{
					"inputs": [
						{
							"internalType": "uint256",
							"name": "lockId",
							"type": "uint256"
						}
					],
					"name": "getLock",
					"outputs": [
						{
							"components": [
								{
									"internalType": "uint256",
									"name": "lockId",
									"type": "uint256"
								},
								{
									"internalType": "address",
									"name": "locker",
									"type": "address"
								},
								{
									"internalType": "address",
									"name": "token",
									"type": "address"
								},
								{
									"internalType": "uint256",
									"name": "amount",
									"type": "uint256"
								},
								{
									"internalType": "uint256",
									"name": "lockedAt",
									"type": "uint256"
								},
								{
									"internalType": "uint256",
									"name": "unlockAt",
									"type": "uint256"
								},
								{
									"internalType": "enum TimbLockVault.LockStatus",
									"name": "status",
									"type": "uint8"
								},
								{
									"internalType": "bool",
									"name": "isTimbs",
									"type": "bool"
								}
							],
							"internalType": "struct TimbLockVault.LockEntry",
							"name": "",
							"type": "tuple"
						}
					],
					"stateMutability": "view",
					"type": "function"
				},
				{
					"inputs": [
						{
							"internalType": "address",
							"name": "locker",
							"type": "address"
						}
					],
					"name": "getLockerHistory",
					"outputs": [
						{
							"internalType": "uint256[]",
							"name": "",
							"type": "uint256[]"
						}
					],
					"stateMutability": "view",
					"type": "function"
				},
				{
					"inputs": [
						{
							"internalType": "address",
							"name": "locker",
							"type": "address"
						}
					],
					"name": "getLockerLocks",
					"outputs": [
						{
							"components": [
								{
									"internalType": "uint256",
									"name": "lockId",
									"type": "uint256"
								},
								{
									"internalType": "address",
									"name": "locker",
									"type": "address"
								},
								{
									"internalType": "address",
									"name": "token",
									"type": "address"
								},
								{
									"internalType": "uint256",
									"name": "amount",
									"type": "uint256"
								},
								{
									"internalType": "uint256",
									"name": "lockedAt",
									"type": "uint256"
								},
								{
									"internalType": "uint256",
									"name": "unlockAt",
									"type": "uint256"
								},
								{
									"internalType": "enum TimbLockVault.LockStatus",
									"name": "status",
									"type": "uint8"
								},
								{
									"internalType": "bool",
									"name": "isTimbs",
									"type": "bool"
								}
							],
							"internalType": "struct TimbLockVault.LockEntry[]",
							"name": "entries",
							"type": "tuple[]"
						}
					],
					"stateMutability": "view",
					"type": "function"
				},
				{
					"inputs": [],
					"name": "getWhitelistedTokens",
					"outputs": [
						{
							"internalType": "address[]",
							"name": "",
							"type": "address[]"
						}
					],
					"stateMutability": "view",
					"type": "function"
				},
				{
					"inputs": [
						{
							"internalType": "address",
							"name": "token",
							"type": "address"
						},
						{
							"internalType": "uint256",
							"name": "amount",
							"type": "uint256"
						},
						{
							"internalType": "uint256",
							"name": "durationSeconds",
							"type": "uint256"
						}
					],
					"name": "lock",
					"outputs": [
						{
							"internalType": "uint256",
							"name": "lockId",
							"type": "uint256"
						}
					],
					"stateMutability": "nonpayable",
					"type": "function"
				},
				{
					"inputs": [
						{
							"internalType": "address",
							"name": "",
							"type": "address"
						},
						{
							"internalType": "uint256",
							"name": "",
							"type": "uint256"
						}
					],
					"name": "lockerHistory",
					"outputs": [
						{
							"internalType": "uint256",
							"name": "",
							"type": "uint256"
						}
					],
					"stateMutability": "view",
					"type": "function"
				},
				{
					"inputs": [],
					"name": "lockingPaused",
					"outputs": [
						{
							"internalType": "bool",
							"name": "",
							"type": "bool"
						}
					],
					"stateMutability": "view",
					"type": "function"
				},
				{
					"inputs": [
						{
							"internalType": "uint256",
							"name": "",
							"type": "uint256"
						}
					],
					"name": "locks",
					"outputs": [
						{
							"internalType": "uint256",
							"name": "lockId",
							"type": "uint256"
						},
						{
							"internalType": "address",
							"name": "locker",
							"type": "address"
						},
						{
							"internalType": "address",
							"name": "token",
							"type": "address"
						},
						{
							"internalType": "uint256",
							"name": "amount",
							"type": "uint256"
						},
						{
							"internalType": "uint256",
							"name": "lockedAt",
							"type": "uint256"
						},
						{
							"internalType": "uint256",
							"name": "unlockAt",
							"type": "uint256"
						},
						{
							"internalType": "enum TimbLockVault.LockStatus",
							"name": "status",
							"type": "uint8"
						},
						{
							"internalType": "bool",
							"name": "isTimbs",
							"type": "bool"
						}
					],
					"stateMutability": "view",
					"type": "function"
				},
				{
					"inputs": [],
					"name": "nextLockId",
					"outputs": [
						{
							"internalType": "uint256",
							"name": "",
							"type": "uint256"
						}
					],
					"stateMutability": "view",
					"type": "function"
				},
				{
					"inputs": [],
					"name": "owner",
					"outputs": [
						{
							"internalType": "address",
							"name": "",
							"type": "address"
						}
					],
					"stateMutability": "view",
					"type": "function"
				},
				{
					"inputs": [],
					"name": "pauseLocking",
					"outputs": [],
					"stateMutability": "nonpayable",
					"type": "function"
				},
				{
					"inputs": [
						{
							"internalType": "address",
							"name": "token",
							"type": "address"
						}
					],
					"name": "removeFromWhitelist",
					"outputs": [],
					"stateMutability": "nonpayable",
					"type": "function"
				},
				{
					"inputs": [],
					"name": "renounceOwnership",
					"outputs": [],
					"stateMutability": "nonpayable",
					"type": "function"
				},
				{
					"inputs": [],
					"name": "timbsToken",
					"outputs": [
						{
							"internalType": "address",
							"name": "",
							"type": "address"
						}
					],
					"stateMutability": "view",
					"type": "function"
				},
				{
					"inputs": [
						{
							"internalType": "uint256",
							"name": "lockId",
							"type": "uint256"
						}
					],
					"name": "timeUntilUnlock",
					"outputs": [
						{
							"internalType": "uint256",
							"name": "",
							"type": "uint256"
						}
					],
					"stateMutability": "view",
					"type": "function"
				},
				{
					"inputs": [
						{
							"internalType": "address",
							"name": "",
							"type": "address"
						}
					],
					"name": "tokenWhitelist",
					"outputs": [
						{
							"internalType": "bool",
							"name": "",
							"type": "bool"
						}
					],
					"stateMutability": "view",
					"type": "function"
				},
				{
					"inputs": [],
					"name": "totalLocks",
					"outputs": [
						{
							"internalType": "uint256",
							"name": "",
							"type": "uint256"
						}
					],
					"stateMutability": "view",
					"type": "function"
				},
				{
					"inputs": [
						{
							"internalType": "address",
							"name": "newOwner",
							"type": "address"
						}
					],
					"name": "transferOwnership",
					"outputs": [],
					"stateMutability": "nonpayable",
					"type": "function"
				},
				{
					"inputs": [],
					"name": "unpauseLocking",
					"outputs": [],
					"stateMutability": "nonpayable",
					"type": "function"
				},
				{
					"inputs": [
						{
							"internalType": "uint256",
							"name": "",
							"type": "uint256"
						}
					],
					"name": "whitelistedTokens",
					"outputs": [
						{
							"internalType": "address",
							"name": "",
							"type": "address"
						}
					],
					"stateMutability": "view",
					"type": "function"
				},
				{
					"inputs": [
						{
							"internalType": "uint256",
							"name": "lockId",
							"type": "uint256"
						}
					],
					"name": "withdraw",
					"outputs": [],
					"stateMutability": "nonpayable",
					"type": "function"
				}
			],
			"devdoc": {
				"errors": {
					"OwnableInvalidOwner(address)": [
						{
							"details": "The owner is not a valid owner account. (eg. `address(0)`)"
						}
					],
					"OwnableUnauthorizedAccount(address)": [
						{
							"details": "The caller account is not authorized to perform an operation."
						}
					],
					"ReentrancyGuardReentrantCall()": [
						{
							"details": "Unauthorized reentrant call."
						}
					],
					"SafeERC20FailedOperation(address)": [
						{
							"details": "An operation with an ERC-20 token failed."
						}
					]
				},
				"kind": "dev",
				"methods": {
					"constructor": {
						"params": {
							"_timbsToken": "TIMBS token address — locks of this get isTimbs flag."
						}
					},
					"getLockerLocks(address)": {
						"details": "Potentially large — use off-chain indexing for production UI."
					},
					"lock(address,uint256,uint256)": {
						"details": "Tokens transferred to this contract and held until unlockAt.      Balance check before/after transfer records actual received amount      — handles fee-on-transfer tokens correctly.      One active lock per wallet per token enforced.",
						"params": {
							"amount": "Amount to lock (pre-transfer, in token decimals).",
							"durationSeconds": "Lock duration in seconds (24h–320h).",
							"token": "ERC-20 token to lock (must be whitelisted)."
						},
						"returns": {
							"lockId": "        The assigned lock ID."
						}
					},
					"owner()": {
						"details": "Returns the address of the current owner."
					},
					"removeFromWhitelist(address)": {
						"details": "Existing locks of this token are unaffected — only new locks blocked."
					},
					"renounceOwnership()": {
						"details": "Leaves the contract without owner. It will not be possible to call `onlyOwner` functions. Can only be called by the current owner. NOTE: Renouncing ownership will leave the contract without an owner, thereby disabling any functionality that is only available to the owner."
					},
					"transferOwnership(address)": {
						"details": "Transfers ownership of the contract to a new account (`newOwner`). Can only be called by the current owner."
					},
					"withdraw(uint256)": {
						"details": "Only the original locker can withdraw.      Withdrawals always permitted regardless of lockingPaused.",
						"params": {
							"lockId": "The lock ID to withdraw from."
						}
					}
				},
				"title": "TimbLockVault",
				"version": 1
			},
			"evm": {
				"assembly": "    /* \"/contracts/TimbLockVault.sol\":1851:14929  contract TimbLockVault is Ownable, ReentrancyGuard {... */\n  mstore(0x40, 0xa0)\n    /* \"/contracts/TimbLockVault.sol\":6120:6453  constructor(address _timbsToken) Ownable(msg.sender) {... */\n  callvalue\n  dup1\n  iszero\n  tag_1\n  jumpi\n  0x00\n  dup1\n  revert\ntag_1:\n  pop\n  mload(0x40)\n  sub(codesize, bytecodeSize)\n  dup1\n  bytecodeSize\n  dup4\n  codecopy\n  dup2\n  add\n  0x40\n  dup2\n  swap1\n  mstore\n  tag_2\n  swap2\n  tag_3\n  jump\t// in\ntag_2:\n    /* \"/contracts/TimbLockVault.sol\":6161:6171  msg.sender */\n  caller\n  dup1\n    /* \"@openzeppelin/contracts/access/Ownable.sol\":1269:1364  if (initialOwner == address(0)) {... */\n  tag_8\n  jumpi\n    /* \"@openzeppelin/contracts/access/Ownable.sol\":1322:1353  OwnableInvalidOwner(address(0)) */\n  mload(0x40)\n  shl(0xe0, 0x1e4fbdf7)\n  dup2\n  mstore\n    /* \"@openzeppelin/contracts/access/Ownable.sol\":1350:1351  0 */\n  0x00\n    /* \"@openzeppelin/contracts/access/Ownable.sol\":1322:1353  OwnableInvalidOwner(address(0)) */\n  0x04\n  dup3\n  add\n    /* \"#utility.yul\":455:506   */\n  mstore\n    /* \"#utility.yul\":428:446   */\n  0x24\n  add\n    /* \"@openzeppelin/contracts/access/Ownable.sol\":1322:1353  OwnableInvalidOwner(address(0)) */\n  mload(0x40)\n  dup1\n  swap2\n  sub\n  swap1\n  revert\n    /* \"@openzeppelin/contracts/access/Ownable.sol\":1269:1364  if (initialOwner == address(0)) {... */\ntag_8:\n    /* \"@openzeppelin/contracts/access/Ownable.sol\":1373:1405  _transferOwnership(initialOwner) */\n  tag_11\n    /* \"@openzeppelin/contracts/access/Ownable.sol\":1392:1404  initialOwner */\n  dup2\n    /* \"@openzeppelin/contracts/access/Ownable.sol\":1373:1391  _transferOwnership */\n  tag_12\n    /* \"@openzeppelin/contracts/access/Ownable.sol\":1373:1405  _transferOwnership(initialOwner) */\n  jump\t// in\ntag_11:\n  pop\n    /* \"@openzeppelin/contracts/utils/ReentrancyGuard.sol\":2365:2366  1 */\n  0x01\n    /* \"@openzeppelin/contracts/utils/ReentrancyGuard.sol\":1505:1571  0x9b779b17422d0df92223018b32b4d1fa46e071723d6817e2486d003becc55f00 */\n  0x9b779b17422d0df92223018b32b4d1fa46e071723d6817e2486d003becc55f00\n    /* \"@openzeppelin/contracts/utils/ReentrancyGuard.sol\":2539:2605  _reentrancyGuardStorageSlot().getUint256Slot().value = NOT_ENTERED */\n  sstore\n  sub(shl(0xa0, 0x01), 0x01)\n    /* \"/contracts/TimbLockVault.sol\":6187:6212  _timbsToken == address(0) */\n  dup2\n  and\n    /* \"/contracts/TimbLockVault.sol\":6183:6234  if (_timbsToken == address(0)) revert ZeroAddress() */\n  tag_19\n  jumpi\n    /* \"/contracts/TimbLockVault.sol\":6221:6234  ZeroAddress() */\n  mload(0x40)\n  shl(0xe0, 0xd92e233d)\n  dup2\n  mstore\n  0x04\n  add\n  mload(0x40)\n  dup1\n  swap2\n  sub\n  swap1\n  revert\n    /* \"/contracts/TimbLockVault.sol\":6183:6234  if (_timbsToken == address(0)) revert ZeroAddress() */\ntag_19:\n  sub(shl(0xa0, 0x01), 0x01)\n    /* \"/contracts/TimbLockVault.sol\":6244:6268  timbsToken = _timbsToken */\n  dup2\n  and\n  0x80\n  mstore\n    /* \"/contracts/TimbLockVault.sol\":6322:6350  _addToWhitelist(_timbsToken) */\n  tag_20\n    /* \"/contracts/TimbLockVault.sol\":6257:6268  _timbsToken */\n  dup2\n    /* \"/contracts/TimbLockVault.sol\":6322:6337  _addToWhitelist */\n  tag_21\n    /* \"/contracts/TimbLockVault.sol\":6322:6350  _addToWhitelist(_timbsToken) */\n  jump\t// in\ntag_20:\n  pop\n    /* \"/contracts/TimbLockVault.sol\":6445:6446  1 */\n  0x01\n    /* \"/contracts/TimbLockVault.sol\":6432:6446  nextLockId = 1 */\n  dup1\n  sstore\n    /* \"/contracts/TimbLockVault.sol\":1851:14929  contract TimbLockVault is Ownable, ReentrancyGuard {... */\n  jump(tag_31)\n    /* \"@openzeppelin/contracts/access/Ownable.sol\":2912:3099  function _transferOwnership(address newOwner) internal virtual {... */\ntag_12:\n    /* \"@openzeppelin/contracts/access/Ownable.sol\":2985:3001  address oldOwner */\n  0x00\n    /* \"@openzeppelin/contracts/access/Ownable.sol\":3004:3010  _owner */\n  dup1\n  sload\n  sub(shl(0xa0, 0x01), 0x01)\n    /* \"@openzeppelin/contracts/access/Ownable.sol\":3020:3037  _owner = newOwner */\n  dup4\n  dup2\n  and\n  not(sub(shl(0xa0, 0x01), 0x01))\n  dup4\n  and\n  dup2\n  or\n  dup5\n  sstore\n    /* \"@openzeppelin/contracts/access/Ownable.sol\":3052:3092  OwnershipTransferred(oldOwner, newOwner) */\n  mload(0x40)\n    /* \"@openzeppelin/contracts/access/Ownable.sol\":3004:3010  _owner */\n  swap2\n  swap1\n  swap3\n  and\n  swap3\n  dup4\n  swap2\n    /* \"@openzeppelin/contracts/access/Ownable.sol\":3052:3092  OwnershipTransferred(oldOwner, newOwner) */\n  0x8be0079c531659141344cd1fd0a4f28419497f9722a3daafe3b4186f6b6457e0\n  swap2\n    /* \"@openzeppelin/contracts/access/Ownable.sol\":2985:3001  address oldOwner */\n  swap1\n    /* \"@openzeppelin/contracts/access/Ownable.sol\":3052:3092  OwnershipTransferred(oldOwner, newOwner) */\n  log3\n    /* \"@openzeppelin/contracts/access/Ownable.sol\":2975:3099  {... */\n  pop\n    /* \"@openzeppelin/contracts/access/Ownable.sol\":2912:3099  function _transferOwnership(address newOwner) internal virtual {... */\n  pop\n  jump\t// out\n    /* \"/contracts/TimbLockVault.sol\":11679:11916  function _addToWhitelist(address token) internal {... */\ntag_21:\n  sub(shl(0xa0, 0x01), 0x01)\n    /* \"/contracts/TimbLockVault.sol\":11743:11764  tokenWhitelist[token] */\n  dup2\n  and\n  0x00\n  swap1\n  dup2\n  mstore\n    /* \"/contracts/TimbLockVault.sol\":11743:11757  tokenWhitelist */\n  0x04\n    /* \"/contracts/TimbLockVault.sol\":11743:11764  tokenWhitelist[token] */\n  0x20\n  mstore\n  0x40\n  swap1\n  keccak256\n  sload\n  0xff\n  and\n    /* \"/contracts/TimbLockVault.sol\":11738:11910  if (!tokenWhitelist[token]) {... */\n  tag_27\n  jumpi\n  sub(shl(0xa0, 0x01), 0x01)\n    /* \"/contracts/TimbLockVault.sol\":11780:11801  tokenWhitelist[token] */\n  dup2\n  and\n  0x00\n  dup2\n  dup2\n  mstore\n    /* \"/contracts/TimbLockVault.sol\":11780:11794  tokenWhitelist */\n  0x04\n    /* \"/contracts/TimbLockVault.sol\":11780:11801  tokenWhitelist[token] */\n  0x20\n  swap1\n  dup2\n  mstore\n  0x40\n  dup1\n  dup4\n  keccak256\n    /* \"/contracts/TimbLockVault.sol\":11780:11808  tokenWhitelist[token] = true */\n  dup1\n  sload\n  not(0xff)\n  and\n    /* \"/contracts/TimbLockVault.sol\":11804:11808  true */\n  0x01\n    /* \"/contracts/TimbLockVault.sol\":11780:11808  tokenWhitelist[token] = true */\n  swap1\n  dup2\n  or\n  swap1\n  swap2\n  sstore\n    /* \"/contracts/TimbLockVault.sol\":11822:11839  whitelistedTokens */\n  0x05\n    /* \"/contracts/TimbLockVault.sol\":11822:11851  whitelistedTokens.push(token) */\n  dup1\n  sload\n  dup1\n  dup4\n  add\n  dup3\n  sstore\n  swap5\n  mstore\n  0x036b6384b5eca791c62761152d0c79bb0604c104a5fb6f4eb0703f3154bb3db0\n  swap1\n  swap4\n  add\n  dup1\n  sload\n  not(sub(shl(0xa0, 0x01), 0x01))\n  and\n  dup6\n  or\n  swap1\n  sstore\n    /* \"/contracts/TimbLockVault.sol\":11870:11899  TokenWhitelisted(token, true) */\n  mload\n    /* \"#utility.yul\":657:698   */\n  swap2\n  dup3\n  mstore\n    /* \"/contracts/TimbLockVault.sol\":11870:11899  TokenWhitelisted(token, true) */\n  0xef81a9943b96c8df4ef243401c9bf5159146166211356898b52d382086168d92\n  swap2\n    /* \"#utility.yul\":630:648   */\n  add\n    /* \"/contracts/TimbLockVault.sol\":11870:11899  TokenWhitelisted(token, true) */\n  mload(0x40)\n  dup1\n  swap2\n  sub\n  swap1\n  log2\n    /* \"/contracts/TimbLockVault.sol\":11738:11910  if (!tokenWhitelist[token]) {... */\ntag_27:\n    /* \"/contracts/TimbLockVault.sol\":11679:11916  function _addToWhitelist(address token) internal {... */\n  pop\n  jump\t// out\n    /* \"#utility.yul\":14:304   */\ntag_3:\n    /* \"#utility.yul\":84:90   */\n  0x00\n    /* \"#utility.yul\":137:139   */\n  0x20\n    /* \"#utility.yul\":125:134   */\n  dup3\n    /* \"#utility.yul\":116:123   */\n  dup5\n    /* \"#utility.yul\":112:135   */\n  sub\n    /* \"#utility.yul\":108:140   */\n  slt\n    /* \"#utility.yul\":105:157   */\n  iszero\n  tag_33\n  jumpi\n    /* \"#utility.yul\":153:154   */\n  0x00\n    /* \"#utility.yul\":150:151   */\n  dup1\n    /* \"#utility.yul\":143:155   */\n  revert\n    /* \"#utility.yul\":105:157   */\ntag_33:\n    /* \"#utility.yul\":179:195   */\n  dup2\n  mload\n  sub(shl(0xa0, 0x01), 0x01)\n    /* \"#utility.yul\":224:255   */\n  dup2\n  and\n    /* \"#utility.yul\":214:256   */\n  dup2\n  eq\n    /* \"#utility.yul\":204:274   */\n  tag_34\n  jumpi\n    /* \"#utility.yul\":270:271   */\n  0x00\n    /* \"#utility.yul\":267:268   */\n  dup1\n    /* \"#utility.yul\":260:272   */\n  revert\n    /* \"#utility.yul\":204:274   */\ntag_34:\n    /* \"#utility.yul\":293:298   */\n  swap4\n    /* \"#utility.yul\":14:304   */\n  swap3\n  pop\n  pop\n  pop\n  jump\t// out\n    /* \"#utility.yul\":517:704   */\ntag_31:\n    /* \"/contracts/TimbLockVault.sol\":1851:14929  contract TimbLockVault is Ownable, ReentrancyGuard {... */\n  mload(0x80)\n  codecopy(0x00, dataOffset(sub_0), dataSize(sub_0))\n  0x00\n  assignImmutable(\"0xeb09910a03c892999c305d4a86a46fa82693119d981eef22c8d043b31f9e8a31\")\n  return(0x00, dataSize(sub_0))\nstop\n\nsub_0: assembly {\n        /* \"/contracts/TimbLockVault.sol\":1851:14929  contract TimbLockVault is Ownable, ReentrancyGuard {... */\n      mstore(0x40, 0x80)\n      callvalue\n      dup1\n      iszero\n      tag_1\n      jumpi\n      0x00\n      dup1\n      revert\n    tag_1:\n      pop\n      jumpi(tag_2, lt(calldatasize, 0x04))\n      shr(0xe0, calldataload(0x00))\n      dup1\n      0x8a5cd91e\n      gt\n      tag_30\n      jumpi\n      dup1\n      0xd68f4dd1\n      gt\n      tag_31\n      jumpi\n      dup1\n      0xe2ab691d\n      gt\n      tag_32\n      jumpi\n      dup1\n      0xe2ab691d\n      eq\n      tag_26\n      jumpi\n      dup1\n      0xe43252d7\n      eq\n      tag_27\n      jumpi\n      dup1\n      0xf2fde38b\n      eq\n      tag_28\n      jumpi\n      dup1\n      0xf4dadc61\n      eq\n      tag_29\n      jumpi\n      0x00\n      dup1\n      revert\n    tag_32:\n      dup1\n      0xd68f4dd1\n      eq\n      tag_23\n      jumpi\n      dup1\n      0xdff35c30\n      eq\n      tag_24\n      jumpi\n      dup1\n      0xe26f7900\n      eq\n      tag_25\n      jumpi\n      0x00\n      dup1\n      revert\n    tag_31:\n      dup1\n      0x8da5cb5b\n      gt\n      tag_33\n      jumpi\n      dup1\n      0x8da5cb5b\n      eq\n      tag_19\n      jumpi\n      dup1\n      0xb1724b46\n      eq\n      tag_20\n      jumpi\n      dup1\n      0xb6a6d177\n      eq\n      tag_21\n      jumpi\n      dup1\n      0xd2d18eac\n      eq\n      tag_22\n      jumpi\n      0x00\n      dup1\n      revert\n    tag_33:\n      dup1\n      0x8a5cd91e\n      eq\n      tag_16\n      jumpi\n      dup1\n      0x8ab1d681\n      eq\n      tag_17\n      jumpi\n      dup1\n      0x8c10671c\n      eq\n      tag_18\n      jumpi\n      0x00\n      dup1\n      revert\n    tag_30:\n      dup1\n      0x4c2cc0a8\n      gt\n      tag_34\n      jumpi\n      dup1\n      0x715018a6\n      gt\n      tag_35\n      jumpi\n      dup1\n      0x715018a6\n      eq\n      tag_12\n      jumpi\n      dup1\n      0x71c7552f\n      eq\n      tag_13\n      jumpi\n      dup1\n      0x753d7563\n      eq\n      tag_14\n      jumpi\n      dup1\n      0x7e3f71d5\n      eq\n      tag_15\n      jumpi\n      0x00\n      dup1\n      revert\n    tag_35:\n      dup1\n      0x4c2cc0a8\n      eq\n      tag_9\n      jumpi\n      dup1\n      0x6518a0b3\n      eq\n      tag_10\n      jumpi\n      dup1\n      0x6842ad90\n      eq\n      tag_11\n      jumpi\n      0x00\n      dup1\n      revert\n    tag_34:\n      dup1\n      0x0e31648f\n      eq\n      tag_3\n      jumpi\n      dup1\n      0x1b934ce5\n      eq\n      tag_4\n      jumpi\n      dup1\n      0x2154bc44\n      eq\n      tag_5\n      jumpi\n      dup1\n      0x2e1a7d4d\n      eq\n      tag_6\n      jumpi\n      dup1\n      0x34e37539\n      eq\n      tag_7\n      jumpi\n      dup1\n      0x3e836b3d\n      eq\n      tag_8\n      jumpi\n    tag_2:\n      0x00\n      dup1\n      revert\n        /* \"/contracts/TimbLockVault.sol\":3504:3539  address public immutable timbsToken */\n    tag_3:\n      tag_36\n      immutable(\"0xeb09910a03c892999c305d4a86a46fa82693119d981eef22c8d043b31f9e8a31\")\n      dup2\n      jump\n    tag_36:\n      mload(0x40)\n      sub(shl(0xa0, 0x01), 0x01)\n        /* \"#utility.yul\":178:210   */\n      swap1\n      swap2\n      and\n        /* \"#utility.yul\":160:211   */\n      dup2\n      mstore\n        /* \"#utility.yul\":148:150   */\n      0x20\n        /* \"#utility.yul\":133:151   */\n      add\n        /* \"/contracts/TimbLockVault.sol\":3504:3539  address public immutable timbsToken */\n    tag_38:\n      mload(0x40)\n      dup1\n      swap2\n      sub\n      swap1\n      return\n        /* \"/contracts/TimbLockVault.sol\":14595:14927  function timeUntilUnlock(uint256 lockId)... */\n    tag_4:\n      tag_40\n      tag_41\n      calldatasize\n      0x04\n      tag_42\n      jump\t// in\n    tag_41:\n      tag_43\n      jump\t// in\n    tag_40:\n      mload(0x40)\n        /* \"#utility.yul\":553:578   */\n      swap1\n      dup2\n      mstore\n        /* \"#utility.yul\":541:543   */\n      0x20\n        /* \"#utility.yul\":526:544   */\n      add\n        /* \"/contracts/TimbLockVault.sol\":14595:14927  function timeUntilUnlock(uint256 lockId)... */\n      tag_38\n        /* \"#utility.yul\":407:584   */\n      jump\n        /* \"/contracts/TimbLockVault.sol\":4085:4119  address[] public whitelistedTokens */\n    tag_5:\n      tag_36\n      tag_47\n      calldatasize\n      0x04\n      tag_42\n      jump\t// in\n    tag_47:\n      tag_48\n      jump\t// in\n        /* \"/contracts/TimbLockVault.sol\":9829:10553  function withdraw(uint256 lockId) external nonReentrant {... */\n    tag_6:\n      tag_50\n      tag_51\n      calldatasize\n      0x04\n      tag_42\n      jump\t// in\n    tag_51:\n      tag_52\n      jump\t// in\n    tag_50:\n      stop\n        /* \"/contracts/TimbLockVault.sol\":13755:14065  function getActiveLock(address locker, address token)... */\n    tag_7:\n      tag_53\n      tag_54\n      calldatasize\n      0x04\n      tag_55\n      jump\t// in\n    tag_54:\n      tag_56\n      jump\t// in\n    tag_53:\n      mload(0x40)\n      tag_38\n      swap2\n      swap1\n      tag_58\n      jump\t// in\n        /* \"/contracts/TimbLockVault.sol\":12337:12462  function unpauseLocking() external onlyOwner {... */\n    tag_8:\n      tag_50\n      tag_60\n      jump\t// in\n        /* \"/contracts/TimbLockVault.sol\":4188:4238  mapping(address => uint256[]) public lockerHistory */\n    tag_9:\n      tag_40\n      tag_62\n      calldatasize\n      0x04\n      tag_63\n      jump\t// in\n    tag_62:\n      tag_64\n      jump\t// in\n        /* \"/contracts/TimbLockVault.sol\":3586:3611  uint256 public nextLockId */\n    tag_10:\n      tag_40\n      sload(0x01)\n      dup2\n      jump\n        /* \"/contracts/TimbLockVault.sol\":3826:3893  mapping(address => mapping(address => uint256)) public activeLockId */\n    tag_11:\n      tag_40\n      tag_70\n      calldatasize\n      0x04\n      tag_55\n      jump\t// in\n    tag_70:\n      0x03\n      0x20\n      swap1\n      dup2\n      mstore\n      0x00\n      swap3\n      dup4\n      mstore\n      0x40\n      dup1\n      dup5\n      keccak256\n      swap1\n      swap2\n      mstore\n      swap1\n      dup3\n      mstore\n      swap1\n      keccak256\n      sload\n      dup2\n      jump\n        /* \"@openzeppelin/contracts/access/Ownable.sol\":2293:2394  function renounceOwnership() public virtual onlyOwner {... */\n    tag_12:\n      tag_50\n      tag_74\n      jump\t// in\n        /* \"/contracts/TimbLockVault.sol\":12944:13100  function getLockerHistory(address locker)... */\n    tag_13:\n      tag_75\n      tag_76\n      calldatasize\n      0x04\n      tag_77\n      jump\t// in\n    tag_76:\n      tag_78\n      jump\t// in\n    tag_75:\n      mload(0x40)\n      tag_38\n      swap2\n      swap1\n      tag_80\n      jump\t// in\n        /* \"/contracts/TimbLockVault.sol\":3965:4011  mapping(address => bool) public tokenWhitelist */\n    tag_14:\n      tag_81\n      tag_82\n      calldatasize\n      0x04\n      tag_77\n      jump\t// in\n    tag_82:\n      mstore(0x20, 0x04)\n      0x00\n      swap1\n      dup2\n      mstore\n      0x40\n      swap1\n      keccak256\n      sload\n      0xff\n      and\n      dup2\n      jump\n    tag_81:\n      mload(0x40)\n        /* \"#utility.yul\":3582:3596   */\n      swap1\n      iszero\n        /* \"#utility.yul\":3575:3597   */\n      iszero\n        /* \"#utility.yul\":3557:3598   */\n      dup2\n      mstore\n        /* \"#utility.yul\":3545:3547   */\n      0x20\n        /* \"#utility.yul\":3530:3548   */\n      add\n        /* \"/contracts/TimbLockVault.sol\":3965:4011  mapping(address => bool) public tokenWhitelist */\n      tag_38\n        /* \"#utility.yul\":3417:3604   */\n      jump\n        /* \"/contracts/TimbLockVault.sol\":4321:4346  bool public lockingPaused */\n    tag_15:\n      sload(0x07)\n      tag_81\n      swap1\n      0xff\n      and\n      dup2\n      jump\n        /* \"/contracts/TimbLockVault.sol\":12211:12331  function pauseLocking() external onlyOwner {... */\n    tag_16:\n      tag_50\n      tag_90\n      jump\t// in\n        /* \"/contracts/TimbLockVault.sol\":11464:11673  function removeFromWhitelist(address token) external onlyOwner {... */\n    tag_17:\n      tag_50\n      tag_92\n      calldatasize\n      0x04\n      tag_77\n      jump\t// in\n    tag_92:\n      tag_93\n      jump\t// in\n        /* \"/contracts/TimbLockVault.sol\":11062:11308  function addManyToWhitelist(address[] calldata tokens) external onlyOwner {... */\n    tag_18:\n      tag_50\n      tag_95\n      calldatasize\n      0x04\n      tag_96\n      jump\t// in\n    tag_95:\n      tag_97\n      jump\t// in\n        /* \"@openzeppelin/contracts/access/Ownable.sol\":1638:1723  function owner() public view virtual returns (address) {... */\n    tag_19:\n        /* \"@openzeppelin/contracts/access/Ownable.sol\":1684:1691  address */\n      0x00\n        /* \"@openzeppelin/contracts/access/Ownable.sol\":1710:1716  _owner */\n      sload\n      sub(shl(0xa0, 0x01), 0x01)\n      and\n        /* \"@openzeppelin/contracts/access/Ownable.sol\":1638:1723  function owner() public view virtual returns (address) {... */\n      jump(tag_36)\n        /* \"/contracts/TimbLockVault.sol\":2324:2372  uint256 public constant MAX_DURATION = 320 hours */\n    tag_20:\n      tag_40\n        /* \"/contracts/TimbLockVault.sol\":2363:2372  320 hours */\n      0x119400\n        /* \"/contracts/TimbLockVault.sol\":2324:2372  uint256 public constant MAX_DURATION = 320 hours */\n      dup2\n      jump\n        /* \"/contracts/TimbLockVault.sol\":2208:2255  uint256 public constant MIN_DURATION = 24 hours */\n    tag_21:\n      tag_40\n        /* \"/contracts/TimbLockVault.sol\":2247:2255  24 hours */\n      0x015180\n        /* \"/contracts/TimbLockVault.sol\":2208:2255  uint256 public constant MIN_DURATION = 24 hours */\n      dup2\n      jump\n        /* \"/contracts/TimbLockVault.sol\":14366:14458  function totalLocks() external view returns (uint256) {... */\n    tag_22:\n      tag_40\n      tag_108\n      jump\t// in\n        /* \"/contracts/TimbLockVault.sol\":12726:12865  function getLock(uint256 lockId)... */\n    tag_23:\n      tag_53\n      tag_111\n      calldatasize\n      0x04\n      tag_42\n      jump\t// in\n    tag_111:\n      tag_112\n      jump\t// in\n        /* \"/contracts/TimbLockVault.sol\":13267:13595  function getLockerLocks(address locker)... */\n    tag_24:\n      tag_114\n      tag_115\n      calldatasize\n      0x04\n      tag_77\n      jump\t// in\n    tag_115:\n      tag_116\n      jump\t// in\n    tag_114:\n      mload(0x40)\n      tag_38\n      swap2\n      swap1\n      tag_118\n      jump\t// in\n        /* \"/contracts/TimbLockVault.sol\":14143:14285  function getWhitelistedTokens()... */\n    tag_25:\n      tag_119\n      tag_120\n      jump\t// in\n    tag_119:\n      mload(0x40)\n      tag_38\n      swap2\n      swap1\n      tag_122\n      jump\t// in\n        /* \"/contracts/TimbLockVault.sol\":7308:9353  function lock(... */\n    tag_26:\n      tag_40\n      tag_124\n      calldatasize\n      0x04\n      tag_125\n      jump\t// in\n    tag_124:\n      tag_126\n      jump\t// in\n        /* \"/contracts/TimbLockVault.sol\":10827:10979  function addToWhitelist(address token) external onlyOwner {... */\n    tag_27:\n      tag_50\n      tag_129\n      calldatasize\n      0x04\n      tag_77\n      jump\t// in\n    tag_129:\n      tag_130\n      jump\t// in\n        /* \"@openzeppelin/contracts/access/Ownable.sol\":2543:2758  function transferOwnership(address newOwner) public virtual onlyOwner {... */\n    tag_28:\n      tag_50\n      tag_132\n      calldatasize\n      0x04\n      tag_77\n      jump\t// in\n    tag_132:\n      tag_133\n      jump\t// in\n        /* \"/contracts/TimbLockVault.sol\":3651:3693  mapping(uint256 => LockEntry) public locks */\n    tag_29:\n      tag_134\n      tag_135\n      calldatasize\n      0x04\n      tag_42\n      jump\t// in\n    tag_135:\n      0x02\n      0x20\n      dup2\n      swap1\n      mstore\n      0x00\n      swap2\n      dup3\n      mstore\n      0x40\n      swap1\n      swap2\n      keccak256\n      dup1\n      sload\n      0x01\n      dup3\n      add\n      sload\n      swap3\n      dup3\n      add\n      sload\n      0x03\n      dup4\n      add\n      sload\n      0x04\n      dup5\n      add\n      sload\n      0x05\n      dup6\n      add\n      sload\n      0x06\n      swap1\n      swap6\n      add\n      sload\n      swap4\n      swap6\n      sub(shl(0xa0, 0x01), 0x01)\n      swap1\n      dup2\n      and\n      swap6\n      swap4\n      and\n      swap4\n      swap2\n      swap3\n      swap1\n      swap2\n      0xff\n      dup1\n      dup3\n      and\n      swap2\n      0x0100\n      swap1\n      div\n      and\n      dup9\n      jump\n    tag_134:\n      mload(0x40)\n      tag_38\n      swap9\n      swap8\n      swap7\n      swap6\n      swap5\n      swap4\n      swap3\n      swap2\n      swap1\n      tag_138\n      jump\t// in\n        /* \"/contracts/TimbLockVault.sol\":14595:14927  function timeUntilUnlock(uint256 lockId)... */\n    tag_43:\n        /* \"/contracts/TimbLockVault.sol\":14683:14690  uint256 */\n      0x00\n        /* \"/contracts/TimbLockVault.sol\":14732:14745  locks[lockId] */\n      dup2\n      dup2\n      mstore\n        /* \"/contracts/TimbLockVault.sol\":14732:14737  locks */\n      0x02\n        /* \"/contracts/TimbLockVault.sol\":14732:14745  locks[lockId] */\n      0x20\n      mstore\n      0x40\n      dup2\n      keccak256\n        /* \"/contracts/TimbLockVault.sol\":14759:14771  entry.locker */\n      0x01\n      dup2\n      add\n      sload\n      sub(shl(0xa0, 0x01), 0x01)\n      and\n        /* \"/contracts/TimbLockVault.sol\":14755:14814  if (entry.locker == address(0)) revert LockNotFound(lockId) */\n      tag_140\n      jumpi\n        /* \"/contracts/TimbLockVault.sol\":14794:14814  LockNotFound(lockId) */\n      mload(0x40)\n      shl(0xe0, 0xd58d6779)\n      dup2\n      mstore\n      0x04\n      dup2\n      add\n        /* \"#utility.yul\":553:578   */\n      dup5\n      swap1\n      mstore\n        /* \"#utility.yul\":526:544   */\n      0x24\n      add\n        /* \"/contracts/TimbLockVault.sol\":14794:14814  LockNotFound(lockId) */\n    tag_141:\n      mload(0x40)\n      dup1\n      swap2\n      sub\n      swap1\n      revert\n        /* \"/contracts/TimbLockVault.sol\":14755:14814  if (entry.locker == address(0)) revert LockNotFound(lockId) */\n    tag_140:\n        /* \"/contracts/TimbLockVault.sol\":14847:14852  entry */\n      dup1\n        /* \"/contracts/TimbLockVault.sol\":14847:14861  entry.unlockAt */\n      0x05\n      add\n      sload\n        /* \"/contracts/TimbLockVault.sol\":14828:14843  block.timestamp */\n      timestamp\n        /* \"/contracts/TimbLockVault.sol\":14828:14861  block.timestamp >= entry.unlockAt */\n      lt\n        /* \"/contracts/TimbLockVault.sol\":14824:14871  if (block.timestamp >= entry.unlockAt) return 0 */\n      tag_142\n      jumpi\n      pop\n        /* \"/contracts/TimbLockVault.sol\":14870:14871  0 */\n      0x00\n      swap3\n        /* \"/contracts/TimbLockVault.sol\":14595:14927  function timeUntilUnlock(uint256 lockId)... */\n      swap2\n      pop\n      pop\n      jump\t// out\n        /* \"/contracts/TimbLockVault.sol\":14824:14871  if (block.timestamp >= entry.unlockAt) return 0 */\n    tag_142:\n        /* \"/contracts/TimbLockVault.sol\":14905:14920  block.timestamp */\n      timestamp\n        /* \"/contracts/TimbLockVault.sol\":14888:14893  entry */\n      dup2\n        /* \"/contracts/TimbLockVault.sol\":14888:14902  entry.unlockAt */\n      0x05\n      add\n      sload\n        /* \"/contracts/TimbLockVault.sol\":14888:14920  entry.unlockAt - block.timestamp */\n      tag_143\n      swap2\n      swap1\n      tag_144\n      jump\t// in\n    tag_143:\n        /* \"/contracts/TimbLockVault.sol\":14881:14920  return entry.unlockAt - block.timestamp */\n      swap4\n        /* \"/contracts/TimbLockVault.sol\":14595:14927  function timeUntilUnlock(uint256 lockId)... */\n      swap3\n      pop\n      pop\n      pop\n      jump\t// out\n        /* \"/contracts/TimbLockVault.sol\":4085:4119  address[] public whitelistedTokens */\n    tag_48:\n      0x05\n      dup2\n      dup2\n      sload\n      dup2\n      lt\n      tag_145\n      jumpi\n      0x00\n      dup1\n      revert\n    tag_145:\n      0x00\n      swap2\n      dup3\n      mstore\n      0x20\n      swap1\n      swap2\n      keccak256\n      add\n      sload\n      sub(shl(0xa0, 0x01), 0x01)\n      and\n      swap1\n      pop\n      dup2\n      jump\t// out\n        /* \"/contracts/TimbLockVault.sol\":9829:10553  function withdraw(uint256 lockId) external nonReentrant {... */\n    tag_52:\n        /* \"@openzeppelin/contracts/utils/ReentrancyGuard.sol\":3023:3044  _nonReentrantBefore() */\n      tag_148\n        /* \"@openzeppelin/contracts/utils/ReentrancyGuard.sol\":3023:3042  _nonReentrantBefore */\n      tag_149\n        /* \"@openzeppelin/contracts/utils/ReentrancyGuard.sol\":3023:3044  _nonReentrantBefore() */\n      jump\t// in\n    tag_148:\n        /* \"/contracts/TimbLockVault.sol\":9895:9918  LockEntry storage entry */\n      0x00\n        /* \"/contracts/TimbLockVault.sol\":9921:9934  locks[lockId] */\n      dup2\n      dup2\n      mstore\n        /* \"/contracts/TimbLockVault.sol\":9921:9926  locks */\n      0x02\n        /* \"/contracts/TimbLockVault.sol\":9921:9934  locks[lockId] */\n      0x20\n      mstore\n      0x40\n      swap1\n      keccak256\n        /* \"/contracts/TimbLockVault.sol\":9949:9961  entry.locker */\n      0x01\n      dup2\n      add\n      sload\n      sub(shl(0xa0, 0x01), 0x01)\n      and\n        /* \"/contracts/TimbLockVault.sol\":9945:10009  if (entry.locker == address(0))      revert LockNotFound(lockId) */\n      tag_151\n      jumpi\n        /* \"/contracts/TimbLockVault.sol\":9989:10009  LockNotFound(lockId) */\n      mload(0x40)\n      shl(0xe0, 0xd58d6779)\n      dup2\n      mstore\n      0x04\n      dup2\n      add\n        /* \"#utility.yul\":553:578   */\n      dup4\n      swap1\n      mstore\n        /* \"#utility.yul\":526:544   */\n      0x24\n      add\n        /* \"/contracts/TimbLockVault.sol\":9989:10009  LockNotFound(lockId) */\n      tag_141\n        /* \"#utility.yul\":407:584   */\n      jump\n        /* \"/contracts/TimbLockVault.sol\":9945:10009  if (entry.locker == address(0))      revert LockNotFound(lockId) */\n    tag_151:\n        /* \"/contracts/TimbLockVault.sol\":10023:10035  entry.locker */\n      0x01\n      dup2\n      add\n      sload\n      sub(shl(0xa0, 0x01), 0x01)\n      and\n        /* \"/contracts/TimbLockVault.sol\":10039:10049  msg.sender */\n      caller\n        /* \"/contracts/TimbLockVault.sol\":10023:10049  entry.locker != msg.sender */\n      eq\n        /* \"/contracts/TimbLockVault.sol\":10019:10098  if (entry.locker != msg.sender)      revert NotLocker(msg.sender, entry.locker) */\n      tag_153\n      jumpi\n        /* \"/contracts/TimbLockVault.sol\":10085:10097  entry.locker */\n      0x01\n      dup2\n      add\n      sload\n        /* \"/contracts/TimbLockVault.sol\":10063:10098  NotLocker(msg.sender, entry.locker) */\n      mload(0x40)\n      shl(0xe3, 0x070982db)\n      dup2\n      mstore\n        /* \"/contracts/TimbLockVault.sol\":10073:10083  msg.sender */\n      caller\n        /* \"/contracts/TimbLockVault.sol\":10063:10098  NotLocker(msg.sender, entry.locker) */\n      0x04\n      dup3\n      add\n        /* \"#utility.yul\":7189:7223   */\n      mstore\n      sub(shl(0xa0, 0x01), 0x01)\n        /* \"/contracts/TimbLockVault.sol\":10085:10097  entry.locker */\n      swap1\n      swap2\n      and\n        /* \"#utility.yul\":7239:7257   */\n      0x24\n      dup3\n      add\n        /* \"#utility.yul\":7232:7275   */\n      mstore\n        /* \"#utility.yul\":7124:7142   */\n      0x44\n      add\n        /* \"/contracts/TimbLockVault.sol\":10063:10098  NotLocker(msg.sender, entry.locker) */\n      tag_141\n        /* \"#utility.yul\":6977:7281   */\n      jump\n        /* \"/contracts/TimbLockVault.sol\":10019:10098  if (entry.locker != msg.sender)      revert NotLocker(msg.sender, entry.locker) */\n    tag_153:\n        /* \"/contracts/TimbLockVault.sol\":10128:10148  LockStatus.Withdrawn */\n      0x02\n        /* \"/contracts/TimbLockVault.sol\":10112:10124  entry.status */\n      0x06\n      dup3\n      add\n      sload\n      0xff\n      and\n        /* \"/contracts/TimbLockVault.sol\":10112:10148  entry.status == LockStatus.Withdrawn */\n      0x02\n      dup2\n      gt\n      iszero\n      tag_160\n      jumpi\n      tag_160\n      tag_158\n      jump\t// in\n    tag_160:\n      sub\n        /* \"/contracts/TimbLockVault.sol\":10108:10181  if (entry.status == LockStatus.Withdrawn) revert AlreadyWithdrawn(lockId) */\n      tag_161\n      jumpi\n        /* \"/contracts/TimbLockVault.sol\":10157:10181  AlreadyWithdrawn(lockId) */\n      mload(0x40)\n      shl(0xe0, 0x54225c2b)\n      dup2\n      mstore\n      0x04\n      dup2\n      add\n        /* \"#utility.yul\":553:578   */\n      dup4\n      swap1\n      mstore\n        /* \"#utility.yul\":526:544   */\n      0x24\n      add\n        /* \"/contracts/TimbLockVault.sol\":10157:10181  AlreadyWithdrawn(lockId) */\n      tag_141\n        /* \"#utility.yul\":407:584   */\n      jump\n        /* \"/contracts/TimbLockVault.sol\":10108:10181  if (entry.status == LockStatus.Withdrawn) revert AlreadyWithdrawn(lockId) */\n    tag_161:\n        /* \"/contracts/TimbLockVault.sol\":10213:10218  entry */\n      dup1\n        /* \"/contracts/TimbLockVault.sol\":10213:10227  entry.unlockAt */\n      0x05\n      add\n      sload\n        /* \"/contracts/TimbLockVault.sol\":10195:10210  block.timestamp */\n      timestamp\n        /* \"/contracts/TimbLockVault.sol\":10195:10227  block.timestamp < entry.unlockAt */\n      lt\n        /* \"/contracts/TimbLockVault.sol\":10191:10309  if (block.timestamp < entry.unlockAt) {... */\n      iszero\n      tag_163\n      jumpi\n        /* \"/contracts/TimbLockVault.sol\":10266:10280  entry.unlockAt */\n      0x05\n      dup2\n      add\n      sload\n        /* \"/contracts/TimbLockVault.sol\":10250:10298  LockNotUnlocked(entry.unlockAt, block.timestamp) */\n      mload(0x40)\n      shl(0xe0, 0x605928d9)\n      dup2\n      mstore\n      0x04\n      dup2\n      add\n        /* \"#utility.yul\":7460:7485   */\n      swap2\n      swap1\n      swap2\n      mstore\n        /* \"/contracts/TimbLockVault.sol\":10282:10297  block.timestamp */\n      timestamp\n        /* \"#utility.yul\":7501:7519   */\n      0x24\n      dup3\n      add\n        /* \"#utility.yul\":7494:7528   */\n      mstore\n        /* \"#utility.yul\":7433:7451   */\n      0x44\n      add\n        /* \"/contracts/TimbLockVault.sol\":10250:10298  LockNotUnlocked(entry.unlockAt, block.timestamp) */\n      tag_141\n        /* \"#utility.yul\":7286:7534   */\n      jump\n        /* \"/contracts/TimbLockVault.sol\":10191:10309  if (block.timestamp < entry.unlockAt) {... */\n    tag_163:\n        /* \"/contracts/TimbLockVault.sol\":10319:10331  entry.status */\n      0x06\n      dup2\n      add\n        /* \"/contracts/TimbLockVault.sol\":10319:10354  entry.status = LockStatus.Withdrawn */\n      dup1\n      sload\n      not(0xff)\n      and\n        /* \"/contracts/TimbLockVault.sol\":10334:10354  LockStatus.Withdrawn */\n      0x02\n        /* \"/contracts/TimbLockVault.sol\":10319:10354  entry.status = LockStatus.Withdrawn */\n      swap1\n      dup2\n      or\n      swap1\n      swap2\n      sstore\n        /* \"/contracts/TimbLockVault.sol\":10377:10387  msg.sender */\n      caller\n      0x00\n        /* \"/contracts/TimbLockVault.sol\":10364:10388  activeLockId[msg.sender] */\n      dup2\n      dup2\n      mstore\n        /* \"/contracts/TimbLockVault.sol\":10364:10376  activeLockId */\n      0x03\n        /* \"/contracts/TimbLockVault.sol\":10364:10388  activeLockId[msg.sender] */\n      0x20\n      dup2\n      dup2\n      mstore\n      0x40\n      dup1\n      dup5\n      keccak256\n        /* \"/contracts/TimbLockVault.sol\":10389:10400  entry.token */\n      swap6\n      dup8\n      add\n      dup1\n      sload\n      sub(shl(0xa0, 0x01), 0x01)\n      swap1\n      dup2\n      and\n        /* \"/contracts/TimbLockVault.sol\":10364:10401  activeLockId[msg.sender][entry.token] */\n      dup7\n      mstore\n      swap7\n      swap1\n      swap3\n      mstore\n      dup4\n      keccak256\n        /* \"/contracts/TimbLockVault.sol\":10364:10405  activeLockId[msg.sender][entry.token] = 0 */\n      swap3\n      swap1\n      swap3\n      sstore\n        /* \"/contracts/TimbLockVault.sol\":10461:10473  entry.amount */\n      dup5\n      add\n      sload\n        /* \"/contracts/TimbLockVault.sol\":10423:10434  entry.token */\n      swap1\n      sload\n        /* \"/contracts/TimbLockVault.sol\":10416:10474  IERC20(entry.token).safeTransfer(msg.sender, entry.amount) */\n      tag_168\n      swap4\n        /* \"/contracts/TimbLockVault.sol\":10423:10434  entry.token */\n      and\n      swap2\n        /* \"/contracts/TimbLockVault.sol\":10377:10387  msg.sender */\n      swap1\n        /* \"/contracts/TimbLockVault.sol\":10416:10448  IERC20(entry.token).safeTransfer */\n      tag_169\n        /* \"/contracts/TimbLockVault.sol\":10416:10474  IERC20(entry.token).safeTransfer(msg.sender, entry.amount) */\n      jump\t// in\n    tag_168:\n        /* \"/contracts/TimbLockVault.sol\":10520:10531  entry.token */\n      0x02\n      dup2\n      add\n      sload\n        /* \"/contracts/TimbLockVault.sol\":10533:10545  entry.amount */\n      0x03\n      dup3\n      add\n      sload\n        /* \"/contracts/TimbLockVault.sol\":10490:10546  Withdrawn(lockId, msg.sender, entry.token, entry.amount) */\n      mload(0x40)\n        /* \"#utility.yul\":553:578   */\n      swap1\n      dup2\n      mstore\n      sub(shl(0xa0, 0x01), 0x01)\n        /* \"/contracts/TimbLockVault.sol\":10520:10531  entry.token */\n      swap1\n      swap2\n      and\n      swap1\n        /* \"/contracts/TimbLockVault.sol\":10508:10518  msg.sender */\n      caller\n      swap1\n        /* \"/contracts/TimbLockVault.sol\":10500:10506  lockId */\n      dup5\n      swap1\n        /* \"/contracts/TimbLockVault.sol\":10490:10546  Withdrawn(lockId, msg.sender, entry.token, entry.amount) */\n      0xe5df19de43c8c04fd192bc68e484b2593570925fbb6ad8c07ccafbc2aa5c37a1\n      swap1\n        /* \"#utility.yul\":541:543   */\n      0x20\n        /* \"#utility.yul\":526:544   */\n      add\n        /* \"/contracts/TimbLockVault.sol\":10490:10546  Withdrawn(lockId, msg.sender, entry.token, entry.amount) */\n      mload(0x40)\n      dup1\n      swap2\n      sub\n      swap1\n      log4\n        /* \"/contracts/TimbLockVault.sol\":9885:10553  {... */\n      pop\n        /* \"@openzeppelin/contracts/utils/ReentrancyGuard.sol\":3065:3085  _nonReentrantAfter() */\n      tag_171\n        /* \"@openzeppelin/contracts/utils/ReentrancyGuard.sol\":2365:2366  1 */\n      0x01\n      0x00\n      dup1\n      mload\n      0x20\n      data_c8669cf8eaf883002b9f48e28846a8d408c9b58ea6613bace374265e43c9bc43\n      dup4\n      codecopy\n      dup2\n      mload\n      swap2\n      mstore\n        /* \"@openzeppelin/contracts/utils/ReentrancyGuard.sol\":3972:4034  _reentrancyGuardStorageSlot().getUint256Slot().value = ENTERED */\n      sstore\n        /* \"@openzeppelin/contracts/utils/ReentrancyGuard.sol\":3749:4041  function _nonReentrantBefore() private {... */\n      jump\n        /* \"@openzeppelin/contracts/utils/ReentrancyGuard.sol\":3065:3085  _nonReentrantAfter() */\n    tag_171:\n        /* \"/contracts/TimbLockVault.sol\":9829:10553  function withdraw(uint256 lockId) external nonReentrant {... */\n      pop\n      jump\t// out\n        /* \"/contracts/TimbLockVault.sol\":13755:14065  function getActiveLock(address locker, address token)... */\n    tag_56:\n        /* \"/contracts/TimbLockVault.sol\":13856:13872  LockEntry memory */\n      tag_173\n      tag_174\n      jump\t// in\n    tag_173:\n      sub(shl(0xa0, 0x01), 0x01)\n        /* \"/contracts/TimbLockVault.sol\":13901:13921  activeLockId[locker] */\n      dup1\n      dup5\n      and\n        /* \"/contracts/TimbLockVault.sol\":13888:13898  uint256 id */\n      0x00\n        /* \"/contracts/TimbLockVault.sol\":13901:13921  activeLockId[locker] */\n      swap1\n      dup2\n      mstore\n        /* \"/contracts/TimbLockVault.sol\":13901:13913  activeLockId */\n      0x03\n        /* \"/contracts/TimbLockVault.sol\":13901:13921  activeLockId[locker] */\n      0x20\n      swap1\n      dup2\n      mstore\n      0x40\n      dup1\n      dup4\n      keccak256\n        /* \"/contracts/TimbLockVault.sol\":13901:13928  activeLockId[locker][token] */\n      swap4\n      dup7\n      and\n      dup4\n      mstore\n      swap3\n      swap1\n      mstore\n      swap1\n      dup2\n      keccak256\n      sload\n      swap1\n        /* \"/contracts/TimbLockVault.sol\":13942:13949  id == 0 */\n      dup2\n      swap1\n      sub\n        /* \"/contracts/TimbLockVault.sol\":13938:14032  if (id == 0) return LockEntry(0, address(0), address(0), 0, 0, 0, LockStatus.Withdrawn, false) */\n      tag_176\n      jumpi\n        /* \"/contracts/TimbLockVault.sol\":13958:14032  LockEntry(0, address(0), address(0), 0, 0, 0, LockStatus.Withdrawn, false) */\n      mload(0x40)\n      dup1\n      0x0100\n      add\n      0x40\n      mstore\n      dup1\n        /* \"/contracts/TimbLockVault.sol\":13968:13969  0 */\n      0x00\n        /* \"/contracts/TimbLockVault.sol\":13958:14032  LockEntry(0, address(0), address(0), 0, 0, 0, LockStatus.Withdrawn, false) */\n      dup2\n      mstore\n      0x20\n      add\n        /* \"/contracts/TimbLockVault.sol\":13979:13980  0 */\n      0x00\n      sub(shl(0xa0, 0x01), 0x01)\n        /* \"/contracts/TimbLockVault.sol\":13958:14032  LockEntry(0, address(0), address(0), 0, 0, 0, LockStatus.Withdrawn, false) */\n      and\n      dup2\n      mstore\n      0x20\n      add\n        /* \"/contracts/TimbLockVault.sol\":13991:13992  0 */\n      0x00\n      sub(shl(0xa0, 0x01), 0x01)\n        /* \"/contracts/TimbLockVault.sol\":13958:14032  LockEntry(0, address(0), address(0), 0, 0, 0, LockStatus.Withdrawn, false) */\n      and\n      dup2\n      mstore\n      0x20\n      add\n        /* \"/contracts/TimbLockVault.sol\":13995:13996  0 */\n      0x00\n        /* \"/contracts/TimbLockVault.sol\":13958:14032  LockEntry(0, address(0), address(0), 0, 0, 0, LockStatus.Withdrawn, false) */\n      dup2\n      mstore\n      0x20\n      add\n        /* \"/contracts/TimbLockVault.sol\":13998:13999  0 */\n      0x00\n        /* \"/contracts/TimbLockVault.sol\":13958:14032  LockEntry(0, address(0), address(0), 0, 0, 0, LockStatus.Withdrawn, false) */\n      dup2\n      mstore\n      0x20\n      add\n        /* \"/contracts/TimbLockVault.sol\":14001:14002  0 */\n      0x00\n        /* \"/contracts/TimbLockVault.sol\":13958:14032  LockEntry(0, address(0), address(0), 0, 0, 0, LockStatus.Withdrawn, false) */\n      dup2\n      mstore\n      0x20\n      add\n        /* \"/contracts/TimbLockVault.sol\":14004:14024  LockStatus.Withdrawn */\n      0x02\n        /* \"/contracts/TimbLockVault.sol\":13958:14032  LockEntry(0, address(0), address(0), 0, 0, 0, LockStatus.Withdrawn, false) */\n      dup1\n      dup2\n      gt\n      iszero\n      tag_178\n      jumpi\n      tag_178\n      tag_158\n      jump\t// in\n    tag_178:\n      dup2\n      mstore\n        /* \"/contracts/TimbLockVault.sol\":14026:14031  false */\n      0x00\n        /* \"/contracts/TimbLockVault.sol\":13958:14032  LockEntry(0, address(0), address(0), 0, 0, 0, LockStatus.Withdrawn, false) */\n      0x20\n      swap1\n      swap2\n      add\n      mstore\n        /* \"/contracts/TimbLockVault.sol\":13951:14032  return LockEntry(0, address(0), address(0), 0, 0, 0, LockStatus.Withdrawn, false) */\n      swap2\n      pop\n      tag_175\n      swap1\n      pop\n      jump\n        /* \"/contracts/TimbLockVault.sol\":13938:14032  if (id == 0) return LockEntry(0, address(0), address(0), 0, 0, 0, LockStatus.Withdrawn, false) */\n    tag_176:\n        /* \"/contracts/TimbLockVault.sol\":14049:14058  locks[id] */\n      0x00\n      dup2\n      dup2\n      mstore\n        /* \"/contracts/TimbLockVault.sol\":14049:14054  locks */\n      0x02\n        /* \"/contracts/TimbLockVault.sol\":14049:14058  locks[id] */\n      0x20\n      dup2\n      dup2\n      mstore\n      0x40\n      swap3\n      dup4\n      swap1\n      keccak256\n        /* \"/contracts/TimbLockVault.sol\":14042:14058  return locks[id] */\n      dup4\n      mload\n      0x0100\n      dup2\n      add\n      dup6\n      mstore\n      dup2\n      sload\n      dup2\n      mstore\n      0x01\n      dup3\n      add\n      sload\n      sub(shl(0xa0, 0x01), 0x01)\n      swap1\n      dup2\n      and\n      swap4\n      dup3\n      add\n      swap4\n      swap1\n      swap4\n      mstore\n      dup2\n      dup5\n      add\n      sload\n      swap1\n      swap3\n      and\n      swap4\n      dup3\n      add\n      swap4\n      swap1\n      swap4\n      mstore\n      0x03\n      dup4\n      add\n      sload\n      0x60\n      dup3\n      add\n      mstore\n      0x04\n      dup4\n      add\n      sload\n      0x80\n      dup3\n      add\n      mstore\n      0x05\n      dup4\n      add\n      sload\n      0xa0\n      dup3\n      add\n      mstore\n      0x06\n      dup4\n      add\n      sload\n      swap1\n      swap3\n        /* \"/contracts/TimbLockVault.sol\":14049:14058  locks[id] */\n      swap2\n        /* \"/contracts/TimbLockVault.sol\":14042:14058  return locks[id] */\n      0xc0\n      dup5\n      add\n      swap2\n      0xff\n      and\n      swap1\n      dup2\n      gt\n      iszero\n      tag_180\n      jumpi\n      tag_180\n      tag_158\n      jump\t// in\n    tag_180:\n      0x02\n      dup2\n      gt\n      iszero\n      tag_182\n      jumpi\n      tag_182\n      tag_158\n      jump\t// in\n    tag_182:\n      dup2\n      mstore\n      0x06\n      swap2\n      swap1\n      swap2\n      add\n      sload\n      0x0100\n      swap1\n      div\n      0xff\n      and\n      iszero\n      iszero\n      0x20\n      swap1\n      swap2\n      add\n      mstore\n      swap2\n      pop\n      pop\n        /* \"/contracts/TimbLockVault.sol\":13755:14065  function getActiveLock(address locker, address token)... */\n    tag_175:\n      swap3\n      swap2\n      pop\n      pop\n      jump\t// out\n        /* \"/contracts/TimbLockVault.sol\":12337:12462  function unpauseLocking() external onlyOwner {... */\n    tag_60:\n        /* \"@openzeppelin/contracts/access/Ownable.sol\":1531:1544  _checkOwner() */\n      tag_184\n        /* \"@openzeppelin/contracts/access/Ownable.sol\":1531:1542  _checkOwner */\n      tag_185\n        /* \"@openzeppelin/contracts/access/Ownable.sol\":1531:1544  _checkOwner() */\n      jump\t// in\n    tag_184:\n        /* \"/contracts/TimbLockVault.sol\":12392:12405  lockingPaused */\n      0x07\n        /* \"/contracts/TimbLockVault.sol\":12392:12413  lockingPaused = false */\n      dup1\n      sload\n      not(0xff)\n      and\n      swap1\n      sstore\n        /* \"/contracts/TimbLockVault.sol\":12428:12455  LockingUnpaused(msg.sender) */\n      mload(0x40)\n        /* \"/contracts/TimbLockVault.sol\":12444:12454  msg.sender */\n      caller\n      swap1\n        /* \"/contracts/TimbLockVault.sol\":12428:12455  LockingUnpaused(msg.sender) */\n      0xe4d661cf4dbac198aa48814db275aceae60ebb813370577006f983ac792dd9c3\n      swap1\n        /* \"/contracts/TimbLockVault.sol\":12408:12413  false */\n      0x00\n      swap1\n        /* \"/contracts/TimbLockVault.sol\":12428:12455  LockingUnpaused(msg.sender) */\n      log2\n        /* \"/contracts/TimbLockVault.sol\":12337:12462  function unpauseLocking() external onlyOwner {... */\n      jump\t// out\n        /* \"/contracts/TimbLockVault.sol\":4188:4238  mapping(address => uint256[]) public lockerHistory */\n    tag_64:\n      mstore(0x20, 0x06)\n      dup2\n      0x00\n      mstore\n      keccak256(0x00, 0x40)\n      dup2\n      dup2\n      sload\n      dup2\n      lt\n      tag_187\n      jumpi\n      0x00\n      dup1\n      revert\n    tag_187:\n      swap1\n      0x00\n      mstore\n      keccak256(0x00, 0x20)\n      add\n      0x00\n      swap2\n      pop\n      swap2\n      pop\n      pop\n      sload\n      dup2\n      jump\t// out\n        /* \"@openzeppelin/contracts/access/Ownable.sol\":2293:2394  function renounceOwnership() public virtual onlyOwner {... */\n    tag_74:\n        /* \"@openzeppelin/contracts/access/Ownable.sol\":1531:1544  _checkOwner() */\n      tag_190\n        /* \"@openzeppelin/contracts/access/Ownable.sol\":1531:1542  _checkOwner */\n      tag_185\n        /* \"@openzeppelin/contracts/access/Ownable.sol\":1531:1544  _checkOwner() */\n      jump\t// in\n    tag_190:\n        /* \"@openzeppelin/contracts/access/Ownable.sol\":2357:2387  _transferOwnership(address(0)) */\n      tag_192\n        /* \"@openzeppelin/contracts/access/Ownable.sol\":2384:2385  0 */\n      0x00\n        /* \"@openzeppelin/contracts/access/Ownable.sol\":2357:2375  _transferOwnership */\n      tag_193\n        /* \"@openzeppelin/contracts/access/Ownable.sol\":2357:2387  _transferOwnership(address(0)) */\n      jump\t// in\n    tag_192:\n        /* \"@openzeppelin/contracts/access/Ownable.sol\":2293:2394  function renounceOwnership() public virtual onlyOwner {... */\n      jump\t// out\n        /* \"/contracts/TimbLockVault.sol\":12944:13100  function getLockerHistory(address locker)... */\n    tag_78:\n      sub(shl(0xa0, 0x01), 0x01)\n        /* \"/contracts/TimbLockVault.sol\":13072:13093  lockerHistory[locker] */\n      dup2\n      and\n      0x00\n      swap1\n      dup2\n      mstore\n        /* \"/contracts/TimbLockVault.sol\":13072:13085  lockerHistory */\n      0x06\n        /* \"/contracts/TimbLockVault.sol\":13072:13093  lockerHistory[locker] */\n      0x20\n      swap1\n      dup2\n      mstore\n      0x40\n      swap2\n      dup3\n      swap1\n      keccak256\n        /* \"/contracts/TimbLockVault.sol\":13065:13093  return lockerHistory[locker] */\n      dup1\n      sload\n      dup4\n      mload\n      dup2\n      dup5\n      mul\n      dup2\n      add\n      dup5\n      add\n      swap1\n      swap5\n      mstore\n      dup1\n      dup5\n      mstore\n        /* \"/contracts/TimbLockVault.sol\":13033:13049  uint256[] memory */\n      0x60\n      swap4\n        /* \"/contracts/TimbLockVault.sol\":13065:13093  return lockerHistory[locker] */\n      swap3\n      dup4\n      add\n        /* \"/contracts/TimbLockVault.sol\":13072:13093  lockerHistory[locker] */\n      dup3\n        /* \"/contracts/TimbLockVault.sol\":13065:13093  return lockerHistory[locker] */\n      dup3\n      dup1\n      iszero\n      tag_195\n      jumpi\n      0x20\n      mul\n      dup3\n      add\n      swap2\n      swap1\n      0x00\n      mstore\n      keccak256(0x00, 0x20)\n      swap1\n    tag_196:\n      dup2\n      sload\n      dup2\n      mstore\n      0x20\n      add\n      swap1\n      0x01\n      add\n      swap1\n      dup1\n      dup4\n      gt\n      tag_196\n      jumpi\n    tag_195:\n      pop\n      pop\n      pop\n      pop\n      pop\n      swap1\n      pop\n        /* \"/contracts/TimbLockVault.sol\":12944:13100  function getLockerHistory(address locker)... */\n      swap2\n      swap1\n      pop\n      jump\t// out\n        /* \"/contracts/TimbLockVault.sol\":12211:12331  function pauseLocking() external onlyOwner {... */\n    tag_90:\n        /* \"@openzeppelin/contracts/access/Ownable.sol\":1531:1544  _checkOwner() */\n      tag_198\n        /* \"@openzeppelin/contracts/access/Ownable.sol\":1531:1542  _checkOwner */\n      tag_185\n        /* \"@openzeppelin/contracts/access/Ownable.sol\":1531:1544  _checkOwner() */\n      jump\t// in\n    tag_198:\n        /* \"/contracts/TimbLockVault.sol\":12264:12277  lockingPaused */\n      0x07\n        /* \"/contracts/TimbLockVault.sol\":12264:12284  lockingPaused = true */\n      dup1\n      sload\n      not(0xff)\n      and\n        /* \"/contracts/TimbLockVault.sol\":12280:12284  true */\n      0x01\n        /* \"/contracts/TimbLockVault.sol\":12264:12284  lockingPaused = true */\n      or\n      swap1\n      sstore\n        /* \"/contracts/TimbLockVault.sol\":12299:12324  LockingPaused(msg.sender) */\n      mload(0x40)\n        /* \"/contracts/TimbLockVault.sol\":12313:12323  msg.sender */\n      caller\n      swap1\n        /* \"/contracts/TimbLockVault.sol\":12299:12324  LockingPaused(msg.sender) */\n      0x60d69e86d39426177a4402939d9e1eb94b8afde904ea468ce126a945fa13cef2\n      swap1\n        /* \"/contracts/TimbLockVault.sol\":12264:12277  lockingPaused */\n      0x00\n      swap1\n        /* \"/contracts/TimbLockVault.sol\":12299:12324  LockingPaused(msg.sender) */\n      log2\n        /* \"/contracts/TimbLockVault.sol\":12211:12331  function pauseLocking() external onlyOwner {... */\n      jump\t// out\n        /* \"/contracts/TimbLockVault.sol\":11464:11673  function removeFromWhitelist(address token) external onlyOwner {... */\n    tag_93:\n        /* \"@openzeppelin/contracts/access/Ownable.sol\":1531:1544  _checkOwner() */\n      tag_201\n        /* \"@openzeppelin/contracts/access/Ownable.sol\":1531:1542  _checkOwner */\n      tag_185\n        /* \"@openzeppelin/contracts/access/Ownable.sol\":1531:1544  _checkOwner() */\n      jump\t// in\n    tag_201:\n      sub(shl(0xa0, 0x01), 0x01)\n        /* \"/contracts/TimbLockVault.sol\":11541:11560  token == address(0) */\n      dup2\n      and\n        /* \"/contracts/TimbLockVault.sol\":11537:11582  if (token == address(0)) revert ZeroAddress() */\n      tag_203\n      jumpi\n        /* \"/contracts/TimbLockVault.sol\":11569:11582  ZeroAddress() */\n      mload(0x40)\n      shl(0xe0, 0xd92e233d)\n      dup2\n      mstore\n      0x04\n      add\n      mload(0x40)\n      dup1\n      swap2\n      sub\n      swap1\n      revert\n        /* \"/contracts/TimbLockVault.sol\":11537:11582  if (token == address(0)) revert ZeroAddress() */\n    tag_203:\n      sub(shl(0xa0, 0x01), 0x01)\n        /* \"/contracts/TimbLockVault.sol\":11592:11613  tokenWhitelist[token] */\n      dup2\n      and\n        /* \"/contracts/TimbLockVault.sol\":11616:11621  false */\n      0x00\n        /* \"/contracts/TimbLockVault.sol\":11592:11613  tokenWhitelist[token] */\n      dup2\n      dup2\n      mstore\n        /* \"/contracts/TimbLockVault.sol\":11592:11606  tokenWhitelist */\n      0x04\n        /* \"/contracts/TimbLockVault.sol\":11592:11613  tokenWhitelist[token] */\n      0x20\n      swap1\n      dup2\n      mstore\n      0x40\n      dup1\n      dup4\n      keccak256\n        /* \"/contracts/TimbLockVault.sol\":11592:11621  tokenWhitelist[token] = false */\n      dup1\n      sload\n      not(0xff)\n      and\n      swap1\n      sstore\n        /* \"/contracts/TimbLockVault.sol\":11636:11666  TokenWhitelisted(token, false) */\n      mload\n        /* \"#utility.yul\":3557:3598   */\n      swap2\n      dup3\n      mstore\n        /* \"/contracts/TimbLockVault.sol\":11636:11666  TokenWhitelisted(token, false) */\n      0xef81a9943b96c8df4ef243401c9bf5159146166211356898b52d382086168d92\n      swap2\n        /* \"#utility.yul\":3530:3548   */\n      add\n        /* \"/contracts/TimbLockVault.sol\":11636:11666  TokenWhitelisted(token, false) */\n    tag_204:\n      mload(0x40)\n      dup1\n      swap2\n      sub\n      swap1\n      log2\n        /* \"/contracts/TimbLockVault.sol\":11464:11673  function removeFromWhitelist(address token) external onlyOwner {... */\n      pop\n      jump\t// out\n        /* \"/contracts/TimbLockVault.sol\":11062:11308  function addManyToWhitelist(address[] calldata tokens) external onlyOwner {... */\n    tag_97:\n        /* \"@openzeppelin/contracts/access/Ownable.sol\":1531:1544  _checkOwner() */\n      tag_206\n        /* \"@openzeppelin/contracts/access/Ownable.sol\":1531:1542  _checkOwner */\n      tag_185\n        /* \"@openzeppelin/contracts/access/Ownable.sol\":1531:1544  _checkOwner() */\n      jump\t// in\n    tag_206:\n        /* \"/contracts/TimbLockVault.sol\":11151:11160  uint256 i */\n      0x00\n        /* \"/contracts/TimbLockVault.sol\":11146:11302  for (uint256 i = 0; i < tokens.length; i++) {... */\n    tag_208:\n        /* \"/contracts/TimbLockVault.sol\":11166:11183  i < tokens.length */\n      dup2\n      dup2\n      lt\n        /* \"/contracts/TimbLockVault.sol\":11146:11302  for (uint256 i = 0; i < tokens.length; i++) {... */\n      iszero\n      tag_209\n      jumpi\n        /* \"/contracts/TimbLockVault.sol\":11229:11230  0 */\n      0x00\n        /* \"/contracts/TimbLockVault.sol\":11208:11214  tokens */\n      dup4\n      dup4\n        /* \"/contracts/TimbLockVault.sol\":11215:11216  i */\n      dup4\n        /* \"/contracts/TimbLockVault.sol\":11208:11217  tokens[i] */\n      dup2\n      dup2\n      lt\n      tag_212\n      jumpi\n      tag_212\n      tag_213\n      jump\t// in\n    tag_212:\n      swap1\n      pop\n      0x20\n      mul\n      add\n      0x20\n      dup2\n      add\n      swap1\n      tag_214\n      swap2\n      swap1\n      tag_77\n      jump\t// in\n    tag_214:\n      sub(shl(0xa0, 0x01), 0x01)\n        /* \"/contracts/TimbLockVault.sol\":11208:11231  tokens[i] != address(0) */\n      and\n      eq\n        /* \"/contracts/TimbLockVault.sol\":11204:11292  if (tokens[i] != address(0)) {... */\n      tag_216\n      jumpi\n        /* \"/contracts/TimbLockVault.sol\":11251:11277  _addToWhitelist(tokens[i]) */\n      tag_216\n        /* \"/contracts/TimbLockVault.sol\":11267:11273  tokens */\n      dup4\n      dup4\n        /* \"/contracts/TimbLockVault.sol\":11274:11275  i */\n      dup4\n        /* \"/contracts/TimbLockVault.sol\":11267:11276  tokens[i] */\n      dup2\n      dup2\n      lt\n      tag_218\n      jumpi\n      tag_218\n      tag_213\n      jump\t// in\n    tag_218:\n      swap1\n      pop\n      0x20\n      mul\n      add\n      0x20\n      dup2\n      add\n      swap1\n      tag_219\n      swap2\n      swap1\n      tag_77\n      jump\t// in\n    tag_219:\n        /* \"/contracts/TimbLockVault.sol\":11251:11266  _addToWhitelist */\n      tag_220\n        /* \"/contracts/TimbLockVault.sol\":11251:11277  _addToWhitelist(tokens[i]) */\n      jump\t// in\n    tag_216:\n        /* \"/contracts/TimbLockVault.sol\":11185:11188  i++ */\n      dup1\n      tag_221\n      dup2\n      tag_222\n      jump\t// in\n    tag_221:\n      swap2\n      pop\n      pop\n        /* \"/contracts/TimbLockVault.sol\":11146:11302  for (uint256 i = 0; i < tokens.length; i++) {... */\n      jump(tag_208)\n    tag_209:\n      pop\n        /* \"/contracts/TimbLockVault.sol\":11062:11308  function addManyToWhitelist(address[] calldata tokens) external onlyOwner {... */\n      pop\n      pop\n      jump\t// out\n        /* \"/contracts/TimbLockVault.sol\":14366:14458  function totalLocks() external view returns (uint256) {... */\n    tag_108:\n        /* \"/contracts/TimbLockVault.sol\":14411:14418  uint256 */\n      0x00\n        /* \"/contracts/TimbLockVault.sol\":14450:14451  1 */\n      0x01\n        /* \"/contracts/TimbLockVault.sol\":14437:14447  nextLockId */\n      dup1\n      sload\n        /* \"/contracts/TimbLockVault.sol\":14437:14451  nextLockId - 1 */\n      tag_225\n      swap2\n      swap1\n      tag_144\n      jump\t// in\n    tag_225:\n        /* \"/contracts/TimbLockVault.sol\":14430:14451  return nextLockId - 1 */\n      swap1\n      pop\n        /* \"/contracts/TimbLockVault.sol\":14366:14458  function totalLocks() external view returns (uint256) {... */\n      swap1\n      jump\t// out\n        /* \"/contracts/TimbLockVault.sol\":12726:12865  function getLock(uint256 lockId)... */\n    tag_112:\n        /* \"/contracts/TimbLockVault.sol\":12806:12822  LockEntry memory */\n      tag_226\n      tag_174\n      jump\t// in\n    tag_226:\n        /* \"/contracts/TimbLockVault.sol\":12845:12858  locks[lockId] */\n      0x00\n      dup3\n      dup2\n      mstore\n        /* \"/contracts/TimbLockVault.sol\":12845:12850  locks */\n      0x02\n        /* \"/contracts/TimbLockVault.sol\":12845:12858  locks[lockId] */\n      0x20\n      dup2\n      dup2\n      mstore\n      0x40\n      swap3\n      dup4\n      swap1\n      keccak256\n        /* \"/contracts/TimbLockVault.sol\":12838:12858  return locks[lockId] */\n      dup4\n      mload\n      0x0100\n      dup2\n      add\n      dup6\n      mstore\n      dup2\n      sload\n      dup2\n      mstore\n      0x01\n      dup3\n      add\n      sload\n      sub(shl(0xa0, 0x01), 0x01)\n      swap1\n      dup2\n      and\n      swap4\n      dup3\n      add\n      swap4\n      swap1\n      swap4\n      mstore\n      dup2\n      dup5\n      add\n      sload\n      swap1\n      swap3\n      and\n      swap4\n      dup3\n      add\n      swap4\n      swap1\n      swap4\n      mstore\n      0x03\n      dup4\n      add\n      sload\n      0x60\n      dup3\n      add\n      mstore\n      0x04\n      dup4\n      add\n      sload\n      0x80\n      dup3\n      add\n      mstore\n      0x05\n      dup4\n      add\n      sload\n      0xa0\n      dup3\n      add\n      mstore\n      0x06\n      dup4\n      add\n      sload\n      swap1\n      swap3\n        /* \"/contracts/TimbLockVault.sol\":12845:12858  locks[lockId] */\n      swap2\n        /* \"/contracts/TimbLockVault.sol\":12838:12858  return locks[lockId] */\n      0xc0\n      dup5\n      add\n      swap2\n      0xff\n      and\n      swap1\n      dup2\n      gt\n      iszero\n      tag_229\n      jumpi\n      tag_229\n      tag_158\n      jump\t// in\n    tag_229:\n      0x02\n      dup2\n      gt\n      iszero\n      tag_231\n      jumpi\n      tag_231\n      tag_158\n      jump\t// in\n    tag_231:\n      dup2\n      mstore\n      0x06\n      swap2\n      swap1\n      swap2\n      add\n      sload\n      0x0100\n      swap1\n      div\n      0xff\n      and\n      iszero\n      iszero\n      0x20\n      swap1\n      swap2\n      add\n      mstore\n      swap3\n      swap2\n      pop\n      pop\n        /* \"/contracts/TimbLockVault.sol\":12726:12865  function getLock(uint256 lockId)... */\n      jump\t// out\n        /* \"/contracts/TimbLockVault.sol\":13267:13595  function getLockerLocks(address locker)... */\n    tag_116:\n      sub(shl(0xa0, 0x01), 0x01)\n        /* \"/contracts/TimbLockVault.sol\":13419:13440  lockerHistory[locker] */\n      dup2\n      and\n        /* \"/contracts/TimbLockVault.sol\":13396:13416  uint256[] memory ids */\n      0x00\n        /* \"/contracts/TimbLockVault.sol\":13419:13440  lockerHistory[locker] */\n      swap1\n      dup2\n      mstore\n        /* \"/contracts/TimbLockVault.sol\":13419:13432  lockerHistory */\n      0x06\n        /* \"/contracts/TimbLockVault.sol\":13419:13440  lockerHistory[locker] */\n      0x20\n      swap1\n      dup2\n      mstore\n      0x40\n      dup1\n      dup4\n      keccak256\n        /* \"/contracts/TimbLockVault.sol\":13396:13440  uint256[] memory ids = lockerHistory[locker] */\n      dup1\n      sload\n      dup3\n      mload\n      dup2\n      dup6\n      mul\n      dup2\n      add\n      dup6\n      add\n      swap1\n      swap4\n      mstore\n      dup1\n      dup4\n      mstore\n        /* \"/contracts/TimbLockVault.sol\":13354:13380  LockEntry[] memory entries */\n      0x60\n      swap5\n        /* \"/contracts/TimbLockVault.sol\":13396:13416  uint256[] memory ids */\n      swap4\n        /* \"/contracts/TimbLockVault.sol\":13396:13440  uint256[] memory ids = lockerHistory[locker] */\n      dup4\n      add\n        /* \"/contracts/TimbLockVault.sol\":13419:13440  lockerHistory[locker] */\n      dup3\n        /* \"/contracts/TimbLockVault.sol\":13396:13440  uint256[] memory ids = lockerHistory[locker] */\n      dup3\n      dup1\n      iszero\n      tag_233\n      jumpi\n      0x20\n      mul\n      dup3\n      add\n      swap2\n      swap1\n      0x00\n      mstore\n      keccak256(0x00, 0x20)\n      swap1\n    tag_234:\n      dup2\n      sload\n      dup2\n      mstore\n      0x20\n      add\n      swap1\n      0x01\n      add\n      swap1\n      dup1\n      dup4\n      gt\n      tag_234\n      jumpi\n    tag_233:\n      pop\n      pop\n      pop\n      pop\n      pop\n      swap1\n      pop\n        /* \"/contracts/TimbLockVault.sol\":13476:13479  ids */\n      dup1\n        /* \"/contracts/TimbLockVault.sol\":13476:13486  ids.length */\n      mload\n        /* \"/contracts/TimbLockVault.sol\":13460:13487  new LockEntry[](ids.length) */\n      0xffffffffffffffff\n      dup2\n      gt\n      iszero\n      tag_236\n      jumpi\n      tag_236\n      tag_237\n      jump\t// in\n    tag_236:\n      mload(0x40)\n      swap1\n      dup1\n      dup3\n      mstore\n      dup1\n      0x20\n      mul\n      0x20\n      add\n      dup3\n      add\n      0x40\n      mstore\n      dup1\n      iszero\n      tag_238\n      jumpi\n      dup2\n      0x20\n      add\n    tag_239:\n      tag_240\n      tag_174\n      jump\t// in\n    tag_240:\n      dup2\n      mstore\n      0x20\n      add\n      swap1\n      0x01\n      swap1\n      sub\n      swap1\n      dup2\n      tag_239\n      jumpi\n      swap1\n      pop\n    tag_238:\n      pop\n        /* \"/contracts/TimbLockVault.sol\":13450:13487  entries = new LockEntry[](ids.length) */\n      swap2\n      pop\n        /* \"/contracts/TimbLockVault.sol\":13502:13511  uint256 i */\n      0x00\n        /* \"/contracts/TimbLockVault.sol\":13497:13589  for (uint256 i = 0; i < ids.length; i++) {... */\n    tag_241:\n        /* \"/contracts/TimbLockVault.sol\":13521:13524  ids */\n      dup2\n        /* \"/contracts/TimbLockVault.sol\":13521:13531  ids.length */\n      mload\n        /* \"/contracts/TimbLockVault.sol\":13517:13518  i */\n      dup2\n        /* \"/contracts/TimbLockVault.sol\":13517:13531  i < ids.length */\n      lt\n        /* \"/contracts/TimbLockVault.sol\":13497:13589  for (uint256 i = 0; i < ids.length; i++) {... */\n      iszero\n      tag_242\n      jumpi\n        /* \"/contracts/TimbLockVault.sol\":13565:13570  locks */\n      0x02\n        /* \"/contracts/TimbLockVault.sol\":13565:13578  locks[ids[i]] */\n      0x00\n        /* \"/contracts/TimbLockVault.sol\":13571:13574  ids */\n      dup4\n        /* \"/contracts/TimbLockVault.sol\":13575:13576  i */\n      dup4\n        /* \"/contracts/TimbLockVault.sol\":13571:13577  ids[i] */\n      dup2\n      mload\n      dup2\n      lt\n      tag_245\n      jumpi\n      tag_245\n      tag_213\n      jump\t// in\n    tag_245:\n      0x20\n      swap1\n      dup2\n      mul\n      swap2\n      swap1\n      swap2\n      add\n      dup2\n      add\n      mload\n        /* \"/contracts/TimbLockVault.sol\":13565:13578  locks[ids[i]] */\n      dup3\n      mstore\n      dup2\n      dup2\n      add\n      swap3\n      swap1\n      swap3\n      mstore\n      0x40\n      swap1\n      dup2\n      add\n      0x00\n      keccak256\n        /* \"/contracts/TimbLockVault.sol\":13552:13578  entries[i] = locks[ids[i]] */\n      dup2\n      mload\n      0x0100\n      dup2\n      add\n      dup4\n      mstore\n      dup2\n      sload\n      dup2\n      mstore\n      0x01\n      dup3\n      add\n      sload\n      sub(shl(0xa0, 0x01), 0x01)\n      swap1\n      dup2\n      and\n      swap5\n      dup3\n      add\n      swap5\n      swap1\n      swap5\n      mstore\n      0x02\n      dup1\n      dup4\n      add\n      sload\n      swap1\n      swap5\n      and\n      swap3\n      dup2\n      add\n      swap3\n      swap1\n      swap3\n      mstore\n      0x03\n      dup2\n      add\n      sload\n      0x60\n      dup4\n      add\n      mstore\n      0x04\n      dup2\n      add\n      sload\n      0x80\n      dup4\n      add\n      mstore\n      0x05\n      dup2\n      add\n      sload\n      0xa0\n      dup4\n      add\n      mstore\n      0x06\n      dup2\n      add\n      sload\n      swap2\n      swap3\n        /* \"/contracts/TimbLockVault.sol\":13565:13578  locks[ids[i]] */\n      swap1\n      swap2\n        /* \"/contracts/TimbLockVault.sol\":13552:13578  entries[i] = locks[ids[i]] */\n      0xc0\n      dup5\n      add\n      swap2\n      0xff\n      swap1\n      swap2\n      and\n      swap1\n      dup2\n      gt\n      iszero\n      tag_247\n      jumpi\n      tag_247\n      tag_158\n      jump\t// in\n    tag_247:\n      0x02\n      dup2\n      gt\n      iszero\n      tag_249\n      jumpi\n      tag_249\n      tag_158\n      jump\t// in\n    tag_249:\n      dup2\n      mstore\n      0x06\n      swap2\n      swap1\n      swap2\n      add\n      sload\n      0x0100\n      swap1\n      div\n      0xff\n      and\n      iszero\n      iszero\n      0x20\n      swap1\n      swap2\n      add\n      mstore\n        /* \"/contracts/TimbLockVault.sol\":13552:13562  entries[i] */\n      dup4\n      mload\n      dup5\n      swap1\n        /* \"/contracts/TimbLockVault.sol\":13560:13561  i */\n      dup4\n      swap1\n        /* \"/contracts/TimbLockVault.sol\":13552:13562  entries[i] */\n      dup2\n      lt\n      tag_251\n      jumpi\n      tag_251\n      tag_213\n      jump\t// in\n    tag_251:\n      0x20\n      mul\n      0x20\n      add\n      add\n        /* \"/contracts/TimbLockVault.sol\":13552:13578  entries[i] = locks[ids[i]] */\n      dup2\n      swap1\n      mstore\n      pop\n        /* \"/contracts/TimbLockVault.sol\":13533:13536  i++ */\n      dup1\n      dup1\n      tag_252\n      swap1\n      tag_222\n      jump\t// in\n    tag_252:\n      swap2\n      pop\n      pop\n        /* \"/contracts/TimbLockVault.sol\":13497:13589  for (uint256 i = 0; i < ids.length; i++) {... */\n      jump(tag_241)\n    tag_242:\n      pop\n        /* \"/contracts/TimbLockVault.sol\":13386:13595  {... */\n      pop\n        /* \"/contracts/TimbLockVault.sol\":13267:13595  function getLockerLocks(address locker)... */\n      swap2\n      swap1\n      pop\n      jump\t// out\n        /* \"/contracts/TimbLockVault.sol\":14143:14285  function getWhitelistedTokens()... */\n    tag_120:\n        /* \"/contracts/TimbLockVault.sol\":14222:14238  address[] memory */\n      0x60\n        /* \"/contracts/TimbLockVault.sol\":14261:14278  whitelistedTokens */\n      0x05\n        /* \"/contracts/TimbLockVault.sol\":14254:14278  return whitelistedTokens */\n      dup1\n      sload\n      dup1\n      0x20\n      mul\n      0x20\n      add\n      mload(0x40)\n      swap1\n      dup2\n      add\n      0x40\n      mstore\n      dup1\n      swap3\n      swap2\n      swap1\n      dup2\n      dup2\n      mstore\n      0x20\n      add\n      dup3\n      dup1\n      sload\n      dup1\n      iszero\n      tag_254\n      jumpi\n      0x20\n      mul\n      dup3\n      add\n      swap2\n      swap1\n      0x00\n      mstore\n      keccak256(0x00, 0x20)\n      swap1\n    tag_255:\n      dup2\n      sload\n      sub(shl(0xa0, 0x01), 0x01)\n      and\n      dup2\n      mstore\n      0x01\n      swap1\n      swap2\n      add\n      swap1\n      0x20\n      add\n      dup1\n      dup4\n      gt\n      tag_255\n      jumpi\n    tag_254:\n      pop\n      pop\n      pop\n      pop\n      pop\n      swap1\n      pop\n        /* \"/contracts/TimbLockVault.sol\":14143:14285  function getWhitelistedTokens()... */\n      swap1\n      jump\t// out\n        /* \"/contracts/TimbLockVault.sol\":7308:9353  function lock(... */\n    tag_126:\n        /* \"/contracts/TimbLockVault.sol\":7463:7477  uint256 lockId */\n      0x00\n        /* \"@openzeppelin/contracts/utils/ReentrancyGuard.sol\":3023:3044  _nonReentrantBefore() */\n      tag_257\n        /* \"@openzeppelin/contracts/utils/ReentrancyGuard.sol\":3023:3042  _nonReentrantBefore */\n      tag_149\n        /* \"@openzeppelin/contracts/utils/ReentrancyGuard.sol\":3023:3044  _nonReentrantBefore() */\n      jump\t// in\n    tag_257:\n        /* \"/contracts/TimbLockVault.sol\":7497:7510  lockingPaused */\n      and(0xff, sload(0x07))\n        /* \"/contracts/TimbLockVault.sol\":7493:7543  if (lockingPaused) revert LockingCurrentlyPaused() */\n      iszero\n      tag_259\n      jumpi\n        /* \"/contracts/TimbLockVault.sol\":7519:7543  LockingCurrentlyPaused() */\n      mload(0x40)\n      shl(0xe2, 0x0bdce99d)\n      dup2\n      mstore\n      0x04\n      add\n      mload(0x40)\n      dup1\n      swap2\n      sub\n      swap1\n      revert\n        /* \"/contracts/TimbLockVault.sol\":7493:7543  if (lockingPaused) revert LockingCurrentlyPaused() */\n    tag_259:\n      sub(shl(0xa0, 0x01), 0x01)\n        /* \"/contracts/TimbLockVault.sol\":7557:7577  token  == address(0) */\n      dup5\n      and\n        /* \"/contracts/TimbLockVault.sol\":7553:7599  if (token  == address(0)) revert ZeroAddress() */\n      tag_260\n      jumpi\n        /* \"/contracts/TimbLockVault.sol\":7586:7599  ZeroAddress() */\n      mload(0x40)\n      shl(0xe0, 0xd92e233d)\n      dup2\n      mstore\n      0x04\n      add\n      mload(0x40)\n      dup1\n      swap2\n      sub\n      swap1\n      revert\n        /* \"/contracts/TimbLockVault.sol\":7553:7599  if (token  == address(0)) revert ZeroAddress() */\n    tag_260:\n        /* \"/contracts/TimbLockVault.sol\":7613:7619  amount */\n      dup3\n        /* \"/contracts/TimbLockVault.sol\":7623:7624  0 */\n      0x00\n        /* \"/contracts/TimbLockVault.sol\":7613:7624  amount == 0 */\n      sub\n        /* \"/contracts/TimbLockVault.sol\":7609:7654  if (amount == 0)          revert ZeroAmount() */\n      tag_261\n      jumpi\n        /* \"/contracts/TimbLockVault.sol\":7642:7654  ZeroAmount() */\n      mload(0x40)\n      shl(0xe0, 0x1f2a2005)\n      dup2\n      mstore\n      0x04\n      add\n      mload(0x40)\n      dup1\n      swap2\n      sub\n      swap1\n      revert\n        /* \"/contracts/TimbLockVault.sol\":7609:7654  if (amount == 0)          revert ZeroAmount() */\n    tag_261:\n      sub(shl(0xa0, 0x01), 0x01)\n        /* \"/contracts/TimbLockVault.sol\":7669:7690  tokenWhitelist[token] */\n      dup5\n      and\n      0x00\n      swap1\n      dup2\n      mstore\n        /* \"/contracts/TimbLockVault.sol\":7669:7683  tokenWhitelist */\n      0x04\n        /* \"/contracts/TimbLockVault.sol\":7669:7690  tokenWhitelist[token] */\n      0x20\n      mstore\n      0x40\n      swap1\n      keccak256\n      sload\n      0xff\n      and\n        /* \"/contracts/TimbLockVault.sol\":7664:7725  if (!tokenWhitelist[token]) revert TokenNotWhitelisted(token) */\n      tag_262\n      jumpi\n        /* \"/contracts/TimbLockVault.sol\":7699:7725  TokenNotWhitelisted(token) */\n      mload(0x40)\n      shl(0xe1, 0x751dff97)\n      dup2\n      mstore\n      sub(shl(0xa0, 0x01), 0x01)\n        /* \"#utility.yul\":178:210   */\n      dup6\n      and\n        /* \"/contracts/TimbLockVault.sol\":7699:7725  TokenNotWhitelisted(token) */\n      0x04\n      dup3\n      add\n        /* \"#utility.yul\":160:211   */\n      mstore\n        /* \"#utility.yul\":133:151   */\n      0x24\n      add\n        /* \"/contracts/TimbLockVault.sol\":7699:7725  TokenNotWhitelisted(token) */\n      tag_141\n        /* \"#utility.yul\":14:217   */\n      jump\n        /* \"/contracts/TimbLockVault.sol\":7664:7725  if (!tokenWhitelist[token]) revert TokenNotWhitelisted(token) */\n    tag_262:\n        /* \"/contracts/TimbLockVault.sol\":2247:2255  24 hours */\n      0x015180\n        /* \"/contracts/TimbLockVault.sol\":7740:7755  durationSeconds */\n      dup3\n        /* \"/contracts/TimbLockVault.sol\":7740:7770  durationSeconds < MIN_DURATION */\n      lt\n        /* \"/contracts/TimbLockVault.sol\":7736:7851  if (durationSeconds < MIN_DURATION) {... */\n      iszero\n      tag_264\n      jumpi\n        /* \"/contracts/TimbLockVault.sol\":7793:7840  DurationTooShort(durationSeconds, MIN_DURATION) */\n      mload(0x40)\n      shl(0xe1, 0x40867033)\n      dup2\n      mstore\n      0x04\n      dup2\n      add\n        /* \"#utility.yul\":7460:7485   */\n      dup4\n      swap1\n      mstore\n        /* \"/contracts/TimbLockVault.sol\":2247:2255  24 hours */\n      0x015180\n        /* \"#utility.yul\":7501:7519   */\n      0x24\n      dup3\n      add\n        /* \"#utility.yul\":7494:7528   */\n      mstore\n        /* \"#utility.yul\":7433:7451   */\n      0x44\n      add\n        /* \"/contracts/TimbLockVault.sol\":7793:7840  DurationTooShort(durationSeconds, MIN_DURATION) */\n      tag_141\n        /* \"#utility.yul\":7286:7534   */\n      jump\n        /* \"/contracts/TimbLockVault.sol\":7736:7851  if (durationSeconds < MIN_DURATION) {... */\n    tag_264:\n        /* \"/contracts/TimbLockVault.sol\":2363:2372  320 hours */\n      0x119400\n        /* \"/contracts/TimbLockVault.sol\":7864:7879  durationSeconds */\n      dup3\n        /* \"/contracts/TimbLockVault.sol\":7864:7894  durationSeconds > MAX_DURATION */\n      gt\n        /* \"/contracts/TimbLockVault.sol\":7860:7974  if (durationSeconds > MAX_DURATION) {... */\n      iszero\n      tag_266\n      jumpi\n        /* \"/contracts/TimbLockVault.sol\":7917:7963  DurationTooLong(durationSeconds, MAX_DURATION) */\n      mload(0x40)\n      shl(0xe1, 0x08f08db3)\n      dup2\n      mstore\n      0x04\n      dup2\n      add\n        /* \"#utility.yul\":7460:7485   */\n      dup4\n      swap1\n      mstore\n        /* \"/contracts/TimbLockVault.sol\":2363:2372  320 hours */\n      0x119400\n        /* \"#utility.yul\":7501:7519   */\n      0x24\n      dup3\n      add\n        /* \"#utility.yul\":7494:7528   */\n      mstore\n        /* \"#utility.yul\":7433:7451   */\n      0x44\n      add\n        /* \"/contracts/TimbLockVault.sol\":7917:7963  DurationTooLong(durationSeconds, MAX_DURATION) */\n      tag_141\n        /* \"#utility.yul\":7286:7534   */\n      jump\n        /* \"/contracts/TimbLockVault.sol\":7860:7974  if (durationSeconds > MAX_DURATION) {... */\n    tag_266:\n        /* \"/contracts/TimbLockVault.sol\":8074:8084  msg.sender */\n      caller\n        /* \"/contracts/TimbLockVault.sol\":8040:8058  uint256 existingId */\n      0x00\n        /* \"/contracts/TimbLockVault.sol\":8061:8085  activeLockId[msg.sender] */\n      swap1\n      dup2\n      mstore\n        /* \"/contracts/TimbLockVault.sol\":8061:8073  activeLockId */\n      0x03\n        /* \"/contracts/TimbLockVault.sol\":8061:8085  activeLockId[msg.sender] */\n      0x20\n      swap1\n      dup2\n      mstore\n      0x40\n      dup1\n      dup4\n      keccak256\n      sub(shl(0xa0, 0x01), 0x01)\n        /* \"/contracts/TimbLockVault.sol\":8061:8092  activeLockId[msg.sender][token] */\n      dup9\n      and\n      dup5\n      mstore\n      swap1\n      swap2\n      mstore\n      swap1\n      keccak256\n      sload\n        /* \"/contracts/TimbLockVault.sol\":8106:8121  existingId != 0 */\n      dup1\n      iszero\n        /* \"/contracts/TimbLockVault.sol\":8102:8317  if (existingId != 0) {... */\n      tag_268\n      jumpi\n        /* \"/contracts/TimbLockVault.sol\":8137:8163  LockEntry storage existing */\n      0x00\n        /* \"/contracts/TimbLockVault.sol\":8166:8183  locks[existingId] */\n      dup2\n      dup2\n      mstore\n        /* \"/contracts/TimbLockVault.sol\":8166:8171  locks */\n      0x02\n        /* \"/contracts/TimbLockVault.sol\":8166:8183  locks[existingId] */\n      0x20\n      mstore\n      0x40\n      dup2\n      keccak256\n      swap1\n        /* \"/contracts/TimbLockVault.sol\":8201:8216  existing.status */\n      0x06\n      dup3\n      add\n      sload\n      0xff\n      and\n        /* \"/contracts/TimbLockVault.sol\":8201:8237  existing.status == LockStatus.Active */\n      0x02\n      dup2\n      gt\n      iszero\n      tag_272\n      jumpi\n      tag_272\n      tag_158\n      jump\t// in\n    tag_272:\n      sub\n        /* \"/contracts/TimbLockVault.sol\":8197:8307  if (existing.status == LockStatus.Active) {... */\n      tag_273\n      jumpi\n        /* \"/contracts/TimbLockVault.sol\":8264:8292  ActiveLockExists(existingId) */\n      mload(0x40)\n      shl(0xe1, 0x102a8011)\n      dup2\n      mstore\n      0x04\n      dup2\n      add\n        /* \"#utility.yul\":553:578   */\n      dup4\n      swap1\n      mstore\n        /* \"#utility.yul\":526:544   */\n      0x24\n      add\n        /* \"/contracts/TimbLockVault.sol\":8264:8292  ActiveLockExists(existingId) */\n      tag_141\n        /* \"#utility.yul\":407:584   */\n      jump\n        /* \"/contracts/TimbLockVault.sol\":8197:8307  if (existing.status == LockStatus.Active) {... */\n    tag_273:\n        /* \"/contracts/TimbLockVault.sol\":8123:8317  {... */\n      pop\n        /* \"/contracts/TimbLockVault.sol\":8102:8317  if (existingId != 0) {... */\n    tag_268:\n        /* \"/contracts/TimbLockVault.sol\":8427:8465  IERC20(token).balanceOf(address(this)) */\n      mload(0x40)\n      shl(0xe0, 0x70a08231)\n      dup2\n      mstore\n        /* \"/contracts/TimbLockVault.sol\":8459:8463  this */\n      address\n        /* \"/contracts/TimbLockVault.sol\":8427:8465  IERC20(token).balanceOf(address(this)) */\n      0x04\n      dup3\n      add\n        /* \"#utility.yul\":160:211   */\n      mstore\n        /* \"/contracts/TimbLockVault.sol\":8403:8424  uint256 balanceBefore */\n      0x00\n      swap1\n      sub(shl(0xa0, 0x01), 0x01)\n        /* \"/contracts/TimbLockVault.sol\":8427:8450  IERC20(token).balanceOf */\n      dup8\n      and\n      swap1\n      0x70a08231\n      swap1\n        /* \"#utility.yul\":133:151   */\n      0x24\n      add\n        /* \"/contracts/TimbLockVault.sol\":8427:8465  IERC20(token).balanceOf(address(this)) */\n      0x20\n      mload(0x40)\n      dup1\n      dup4\n      sub\n      dup2\n      dup7\n      gas\n      staticcall\n      iszero\n      dup1\n      iszero\n      tag_277\n      jumpi\n      returndatasize\n      0x00\n      dup1\n      returndatacopy\n      revert(0x00, returndatasize)\n    tag_277:\n      pop\n      pop\n      pop\n      pop\n      mload(0x40)\n      returndatasize\n      not(0x1f)\n      0x1f\n      dup3\n      add\n      and\n      dup3\n      add\n      dup1\n      0x40\n      mstore\n      pop\n      dup2\n      add\n      swap1\n      tag_278\n      swap2\n      swap1\n      tag_279\n      jump\t// in\n    tag_278:\n        /* \"/contracts/TimbLockVault.sol\":8403:8465  uint256 balanceBefore = IERC20(token).balanceOf(address(this)) */\n      swap1\n      pop\n        /* \"/contracts/TimbLockVault.sol\":8475:8540  IERC20(token).safeTransferFrom(msg.sender, address(this), amount) */\n      tag_280\n      sub(shl(0xa0, 0x01), 0x01)\n        /* \"/contracts/TimbLockVault.sol\":8475:8505  IERC20(token).safeTransferFrom */\n      dup8\n      and\n        /* \"/contracts/TimbLockVault.sol\":8506:8516  msg.sender */\n      caller\n        /* \"/contracts/TimbLockVault.sol\":8526:8530  this */\n      address\n        /* \"/contracts/TimbLockVault.sol\":8533:8539  amount */\n      dup9\n        /* \"/contracts/TimbLockVault.sol\":8475:8505  IERC20(token).safeTransferFrom */\n      tag_281\n        /* \"/contracts/TimbLockVault.sol\":8475:8540  IERC20(token).safeTransferFrom(msg.sender, address(this), amount) */\n      jump\t// in\n    tag_280:\n        /* \"/contracts/TimbLockVault.sol\":8574:8612  IERC20(token).balanceOf(address(this)) */\n      mload(0x40)\n      shl(0xe0, 0x70a08231)\n      dup2\n      mstore\n        /* \"/contracts/TimbLockVault.sol\":8606:8610  this */\n      address\n        /* \"/contracts/TimbLockVault.sol\":8574:8612  IERC20(token).balanceOf(address(this)) */\n      0x04\n      dup3\n      add\n        /* \"#utility.yul\":160:211   */\n      mstore\n        /* \"/contracts/TimbLockVault.sol\":8550:8570  uint256 balanceAfter */\n      0x00\n      swap1\n      sub(shl(0xa0, 0x01), 0x01)\n        /* \"/contracts/TimbLockVault.sol\":8574:8597  IERC20(token).balanceOf */\n      dup9\n      and\n      swap1\n      0x70a08231\n      swap1\n        /* \"#utility.yul\":133:151   */\n      0x24\n      add\n        /* \"/contracts/TimbLockVault.sol\":8574:8612  IERC20(token).balanceOf(address(this)) */\n      0x20\n      mload(0x40)\n      dup1\n      dup4\n      sub\n      dup2\n      dup7\n      gas\n      staticcall\n      iszero\n      dup1\n      iszero\n      tag_284\n      jumpi\n      returndatasize\n      0x00\n      dup1\n      returndatacopy\n      revert(0x00, returndatasize)\n    tag_284:\n      pop\n      pop\n      pop\n      pop\n      mload(0x40)\n      returndatasize\n      not(0x1f)\n      0x1f\n      dup3\n      add\n      and\n      dup3\n      add\n      dup1\n      0x40\n      mstore\n      pop\n      dup2\n      add\n      swap1\n      tag_285\n      swap2\n      swap1\n      tag_279\n      jump\t// in\n    tag_285:\n        /* \"/contracts/TimbLockVault.sol\":8550:8612  uint256 balanceAfter  = IERC20(token).balanceOf(address(this)) */\n      swap1\n      pop\n        /* \"/contracts/TimbLockVault.sol\":8622:8642  uint256 actualAmount */\n      0x00\n        /* \"/contracts/TimbLockVault.sol\":8646:8674  balanceAfter - balanceBefore */\n      tag_286\n        /* \"/contracts/TimbLockVault.sol\":8661:8674  balanceBefore */\n      dup4\n        /* \"/contracts/TimbLockVault.sol\":8550:8612  uint256 balanceAfter  = IERC20(token).balanceOf(address(this)) */\n      dup4\n        /* \"/contracts/TimbLockVault.sol\":8646:8674  balanceAfter - balanceBefore */\n      tag_144\n      jump\t// in\n    tag_286:\n        /* \"/contracts/TimbLockVault.sol\":8622:8674  uint256 actualAmount  = balanceAfter - balanceBefore */\n      swap1\n      pop\n        /* \"/contracts/TimbLockVault.sol\":8689:8701  actualAmount */\n      dup1\n        /* \"/contracts/TimbLockVault.sol\":8705:8706  0 */\n      0x00\n        /* \"/contracts/TimbLockVault.sol\":8689:8706  actualAmount == 0 */\n      sub\n        /* \"/contracts/TimbLockVault.sol\":8685:8727  if (actualAmount == 0) revert ZeroAmount() */\n      tag_287\n      jumpi\n        /* \"/contracts/TimbLockVault.sol\":8715:8727  ZeroAmount() */\n      mload(0x40)\n      shl(0xe0, 0x1f2a2005)\n      dup2\n      mstore\n      0x04\n      add\n      mload(0x40)\n      dup1\n      swap2\n      sub\n      swap1\n      revert\n        /* \"/contracts/TimbLockVault.sol\":8685:8727  if (actualAmount == 0) revert ZeroAmount() */\n    tag_287:\n        /* \"/contracts/TimbLockVault.sol\":8747:8757  nextLockId */\n      0x01\n        /* \"/contracts/TimbLockVault.sol\":8747:8759  nextLockId++ */\n      dup1\n      sload\n      swap1\n        /* \"/contracts/TimbLockVault.sol\":8747:8757  nextLockId */\n      0x00\n        /* \"/contracts/TimbLockVault.sol\":8747:8759  nextLockId++ */\n      tag_288\n      dup4\n      tag_222\n      jump\t// in\n    tag_288:\n      swap1\n      swap2\n      sstore\n      pop\n        /* \"/contracts/TimbLockVault.sol\":8738:8759  lockId = nextLockId++ */\n      swap5\n      pop\n        /* \"/contracts/TimbLockVault.sol\":8769:8785  uint256 unlockAt */\n      0x00\n        /* \"/contracts/TimbLockVault.sol\":8788:8821  block.timestamp + durationSeconds */\n      tag_289\n        /* \"/contracts/TimbLockVault.sol\":8806:8821  durationSeconds */\n      dup8\n        /* \"/contracts/TimbLockVault.sol\":8788:8803  block.timestamp */\n      timestamp\n        /* \"/contracts/TimbLockVault.sol\":8788:8821  block.timestamp + durationSeconds */\n      tag_290\n      jump\t// in\n    tag_289:\n        /* \"/contracts/TimbLockVault.sol\":8769:8821  uint256 unlockAt = block.timestamp + durationSeconds */\n      swap1\n      pop\n        /* \"/contracts/TimbLockVault.sol\":8848:9153  LockEntry({... */\n      mload(0x40)\n      dup1\n      0x0100\n      add\n      0x40\n      mstore\n      dup1\n        /* \"/contracts/TimbLockVault.sol\":8882:8888  lockId */\n      dup8\n        /* \"/contracts/TimbLockVault.sol\":8848:9153  LockEntry({... */\n      dup2\n      mstore\n      0x20\n      add\n        /* \"/contracts/TimbLockVault.sol\":8912:8922  msg.sender */\n      caller\n      sub(shl(0xa0, 0x01), 0x01)\n        /* \"/contracts/TimbLockVault.sol\":8848:9153  LockEntry({... */\n      and\n      dup2\n      mstore\n      0x20\n      add\n        /* \"/contracts/TimbLockVault.sol\":8946:8951  token */\n      dup11\n      sub(shl(0xa0, 0x01), 0x01)\n        /* \"/contracts/TimbLockVault.sol\":8848:9153  LockEntry({... */\n      and\n      dup2\n      mstore\n      0x20\n      add\n        /* \"/contracts/TimbLockVault.sol\":8975:8987  actualAmount */\n      dup4\n        /* \"/contracts/TimbLockVault.sol\":8848:9153  LockEntry({... */\n      dup2\n      mstore\n      0x20\n      add\n        /* \"/contracts/TimbLockVault.sol\":9011:9026  block.timestamp */\n      timestamp\n        /* \"/contracts/TimbLockVault.sol\":8848:9153  LockEntry({... */\n      dup2\n      mstore\n      0x20\n      add\n        /* \"/contracts/TimbLockVault.sol\":9050:9058  unlockAt */\n      dup3\n        /* \"/contracts/TimbLockVault.sol\":8848:9153  LockEntry({... */\n      dup2\n      mstore\n      0x20\n      add\n        /* \"/contracts/TimbLockVault.sol\":9082:9099  LockStatus.Active */\n      0x00\n        /* \"/contracts/TimbLockVault.sol\":8848:9153  LockEntry({... */\n      0x02\n      dup2\n      gt\n      iszero\n      tag_292\n      jumpi\n      tag_292\n      tag_158\n      jump\t// in\n    tag_292:\n      dup2\n      mstore\n      sub(shl(0xa0, 0x01), 0x01)\n        /* \"/contracts/TimbLockVault.sol\":9123:9142  token == timbsToken */\n      dup12\n      dup2\n      and\n        /* \"/contracts/TimbLockVault.sol\":9132:9142  timbsToken */\n      immutable(\"0xeb09910a03c892999c305d4a86a46fa82693119d981eef22c8d043b31f9e8a31\")\n        /* \"/contracts/TimbLockVault.sol\":9123:9142  token == timbsToken */\n      dup3\n      and\n      eq\n        /* \"/contracts/TimbLockVault.sol\":8848:9153  LockEntry({... */\n      0x20\n      swap3\n      dup4\n      add\n      mstore\n      0x00\n        /* \"/contracts/TimbLockVault.sol\":8832:8845  locks[lockId] */\n      dup10\n      dup2\n      mstore\n        /* \"/contracts/TimbLockVault.sol\":8832:8837  locks */\n      0x02\n        /* \"/contracts/TimbLockVault.sol\":8832:8845  locks[lockId] */\n      dup1\n      dup5\n      mstore\n      0x40\n      swap2\n      dup3\n      swap1\n      keccak256\n        /* \"/contracts/TimbLockVault.sol\":8832:9153  locks[lockId] = LockEntry({... */\n      dup6\n      mload\n      dup2\n      sstore\n      swap4\n      dup6\n      add\n      mload\n      0x01\n      dup1\n      dup7\n      add\n      dup1\n      sload\n      swap3\n      dup7\n      and\n      not(sub(shl(0xa0, 0x01), 0x01))\n      swap4\n      dup5\n      and\n      or\n      swap1\n      sstore\n      swap3\n      dup7\n      add\n      mload\n      dup6\n      dup4\n      add\n      dup1\n      sload\n      swap2\n      swap1\n      swap6\n      and\n      swap2\n      and\n      or\n      swap1\n      swap3\n      sstore\n      0x60\n      dup5\n      add\n      mload\n      0x03\n      dup5\n      add\n      sstore\n      0x80\n      dup5\n      add\n      mload\n      0x04\n      dup5\n      add\n      sstore\n      0xa0\n      dup5\n      add\n      mload\n      0x05\n      dup5\n      add\n      sstore\n      0xc0\n      dup5\n      add\n      mload\n      0x06\n      dup5\n      add\n      dup1\n      sload\n      swap2\n      swap4\n      swap1\n      swap3\n      not(0xff)\n      swap1\n      swap3\n      and\n      swap2\n      swap1\n      dup5\n      swap1\n      dup2\n      gt\n      iszero\n      tag_294\n      jumpi\n      tag_294\n      tag_158\n      jump\t// in\n    tag_294:\n      mul\n      or\n      swap1\n      sstore\n      pop\n      0xe0\n      swap2\n      swap1\n      swap2\n      add\n      mload\n      0x06\n      swap2\n      dup3\n      add\n      dup1\n      sload\n      not(0xff00)\n      and\n      0x0100\n      swap3\n      iszero\n      iszero\n      swap3\n      swap1\n      swap3\n      mul\n      swap2\n      swap1\n      swap2\n      or\n      swap1\n      sstore\n        /* \"/contracts/TimbLockVault.sol\":9177:9187  msg.sender */\n      caller\n      0x00\n        /* \"/contracts/TimbLockVault.sol\":9164:9188  activeLockId[msg.sender] */\n      dup2\n      dup2\n      mstore\n        /* \"/contracts/TimbLockVault.sol\":9164:9176  activeLockId */\n      0x03\n        /* \"/contracts/TimbLockVault.sol\":9164:9188  activeLockId[msg.sender] */\n      0x20\n      swap1\n      dup2\n      mstore\n      0x40\n      dup1\n      dup4\n      keccak256\n      sub(shl(0xa0, 0x01), 0x01)\n        /* \"/contracts/TimbLockVault.sol\":9164:9195  activeLockId[msg.sender][token] */\n      dup16\n      dup2\n      and\n      dup1\n      dup7\n      mstore\n      swap2\n      dup5\n      mstore\n      dup3\n      dup6\n      keccak256\n        /* \"/contracts/TimbLockVault.sol\":9164:9204  activeLockId[msg.sender][token] = lockId */\n      dup14\n      swap1\n      sstore\n        /* \"/contracts/TimbLockVault.sol\":9214:9239  lockerHistory[msg.sender] */\n      dup6\n      dup6\n      mstore\n      swap6\n      dup4\n      mstore\n      dup2\n      dup5\n      keccak256\n        /* \"/contracts/TimbLockVault.sol\":9214:9252  lockerHistory[msg.sender].push(lockId) */\n      dup1\n      sload\n      0x01\n      dup2\n      add\n      dup3\n      sstore\n      swap1\n      dup6\n      mstore\n      swap4\n      dup4\n      swap1\n      keccak256\n      swap1\n      swap4\n      add\n      dup12\n      swap1\n      sstore\n        /* \"/contracts/TimbLockVault.sol\":9268:9346  Locked(lockId, msg.sender, token, actualAmount, unlockAt, token == timbsToken) */\n      dup1\n      mload\n        /* \"#utility.yul\":8458:8483   */\n      dup8\n      dup2\n      mstore\n        /* \"#utility.yul\":8499:8517   */\n      swap2\n      dup3\n      add\n        /* \"#utility.yul\":8492:8526   */\n      dup7\n      swap1\n      mstore\n        /* \"/contracts/TimbLockVault.sol\":9335:9345  timbsToken */\n      immutable(\"0xeb09910a03c892999c305d4a86a46fa82693119d981eef22c8d043b31f9e8a31\")\n        /* \"/contracts/TimbLockVault.sol\":9326:9345  token == timbsToken */\n      swap1\n      swap5\n      and\n      dup3\n      eq\n        /* \"#utility.yul\":8542:8560   */\n      dup2\n      dup6\n      add\n        /* \"#utility.yul\":8535:8585   */\n      mstore\n        /* \"/contracts/TimbLockVault.sol\":9268:9346  Locked(lockId, msg.sender, token, actualAmount, unlockAt, token == timbsToken) */\n      swap3\n      mload\n        /* \"/contracts/TimbLockVault.sol\":9164:9195  activeLockId[msg.sender][token] */\n      swap1\n      swap3\n        /* \"/contracts/TimbLockVault.sol\":9164:9204  activeLockId[msg.sender][token] = lockId */\n      dup10\n      swap2\n        /* \"/contracts/TimbLockVault.sol\":9268:9346  Locked(lockId, msg.sender, token, actualAmount, unlockAt, token == timbsToken) */\n      0x5029bc3a88a9f0b34b30a3f1ad2d2716e2d4a8ee9cb1eb127f56b1ed8326da96\n      swap2\n      dup2\n      swap1\n      sub\n        /* \"#utility.yul\":8446:8448   */\n      0x60\n        /* \"/contracts/TimbLockVault.sol\":9268:9346  Locked(lockId, msg.sender, token, actualAmount, unlockAt, token == timbsToken) */\n      add\n      swap1\n      log4\n        /* \"/contracts/TimbLockVault.sol\":7483:9353  {... */\n      pop\n      pop\n      pop\n      pop\n      pop\n        /* \"@openzeppelin/contracts/utils/ReentrancyGuard.sol\":3065:3085  _nonReentrantAfter() */\n      tag_143\n        /* \"@openzeppelin/contracts/utils/ReentrancyGuard.sol\":2365:2366  1 */\n      0x01\n      0x00\n      dup1\n      mload\n      0x20\n      data_c8669cf8eaf883002b9f48e28846a8d408c9b58ea6613bace374265e43c9bc43\n      dup4\n      codecopy\n      dup2\n      mload\n      swap2\n      mstore\n        /* \"@openzeppelin/contracts/utils/ReentrancyGuard.sol\":3972:4034  _reentrancyGuardStorageSlot().getUint256Slot().value = ENTERED */\n      sstore\n        /* \"@openzeppelin/contracts/utils/ReentrancyGuard.sol\":3749:4041  function _nonReentrantBefore() private {... */\n      jump\n        /* \"/contracts/TimbLockVault.sol\":10827:10979  function addToWhitelist(address token) external onlyOwner {... */\n    tag_130:\n        /* \"@openzeppelin/contracts/access/Ownable.sol\":1531:1544  _checkOwner() */\n      tag_300\n        /* \"@openzeppelin/contracts/access/Ownable.sol\":1531:1542  _checkOwner */\n      tag_185\n        /* \"@openzeppelin/contracts/access/Ownable.sol\":1531:1544  _checkOwner() */\n      jump\t// in\n    tag_300:\n      sub(shl(0xa0, 0x01), 0x01)\n        /* \"/contracts/TimbLockVault.sol\":10899:10918  token == address(0) */\n      dup2\n      and\n        /* \"/contracts/TimbLockVault.sol\":10895:10940  if (token == address(0)) revert ZeroAddress() */\n      tag_302\n      jumpi\n        /* \"/contracts/TimbLockVault.sol\":10927:10940  ZeroAddress() */\n      mload(0x40)\n      shl(0xe0, 0xd92e233d)\n      dup2\n      mstore\n      0x04\n      add\n      mload(0x40)\n      dup1\n      swap2\n      sub\n      swap1\n      revert\n        /* \"/contracts/TimbLockVault.sol\":10895:10940  if (token == address(0)) revert ZeroAddress() */\n    tag_302:\n        /* \"/contracts/TimbLockVault.sol\":10950:10972  _addToWhitelist(token) */\n      tag_171\n        /* \"/contracts/TimbLockVault.sol\":10966:10971  token */\n      dup2\n        /* \"/contracts/TimbLockVault.sol\":10950:10965  _addToWhitelist */\n      tag_220\n        /* \"/contracts/TimbLockVault.sol\":10950:10972  _addToWhitelist(token) */\n      jump\t// in\n        /* \"@openzeppelin/contracts/access/Ownable.sol\":2543:2758  function transferOwnership(address newOwner) public virtual onlyOwner {... */\n    tag_133:\n        /* \"@openzeppelin/contracts/access/Ownable.sol\":1531:1544  _checkOwner() */\n      tag_305\n        /* \"@openzeppelin/contracts/access/Ownable.sol\":1531:1542  _checkOwner */\n      tag_185\n        /* \"@openzeppelin/contracts/access/Ownable.sol\":1531:1544  _checkOwner() */\n      jump\t// in\n    tag_305:\n      sub(shl(0xa0, 0x01), 0x01)\n        /* \"@openzeppelin/contracts/access/Ownable.sol\":2627:2649  newOwner == address(0) */\n      dup2\n      and\n        /* \"@openzeppelin/contracts/access/Ownable.sol\":2623:2714  if (newOwner == address(0)) {... */\n      tag_307\n      jumpi\n        /* \"@openzeppelin/contracts/access/Ownable.sol\":2672:2703  OwnableInvalidOwner(address(0)) */\n      mload(0x40)\n      shl(0xe0, 0x1e4fbdf7)\n      dup2\n      mstore\n        /* \"@openzeppelin/contracts/access/Ownable.sol\":2700:2701  0 */\n      0x00\n        /* \"@openzeppelin/contracts/access/Ownable.sol\":2672:2703  OwnableInvalidOwner(address(0)) */\n      0x04\n      dup3\n      add\n        /* \"#utility.yul\":160:211   */\n      mstore\n        /* \"#utility.yul\":133:151   */\n      0x24\n      add\n        /* \"@openzeppelin/contracts/access/Ownable.sol\":2672:2703  OwnableInvalidOwner(address(0)) */\n      tag_141\n        /* \"#utility.yul\":14:217   */\n      jump\n        /* \"@openzeppelin/contracts/access/Ownable.sol\":2623:2714  if (newOwner == address(0)) {... */\n    tag_307:\n        /* \"@openzeppelin/contracts/access/Ownable.sol\":2723:2751  _transferOwnership(newOwner) */\n      tag_171\n        /* \"@openzeppelin/contracts/access/Ownable.sol\":2742:2750  newOwner */\n      dup2\n        /* \"@openzeppelin/contracts/access/Ownable.sol\":2723:2741  _transferOwnership */\n      tag_193\n        /* \"@openzeppelin/contracts/access/Ownable.sol\":2723:2751  _transferOwnership(newOwner) */\n      jump\t// in\n        /* \"@openzeppelin/contracts/utils/ReentrancyGuard.sol\":3749:4041  function _nonReentrantBefore() private {... */\n    tag_149:\n        /* \"@openzeppelin/contracts/utils/ReentrancyGuard.sol\":3872:3897  _nonReentrantBeforeView() */\n      tag_311\n        /* \"@openzeppelin/contracts/utils/ReentrancyGuard.sol\":3872:3895  _nonReentrantBeforeView */\n      tag_312\n        /* \"@openzeppelin/contracts/utils/ReentrancyGuard.sol\":3872:3897  _nonReentrantBeforeView() */\n      jump\t// in\n    tag_311:\n        /* \"@openzeppelin/contracts/utils/ReentrancyGuard.sol\":2407:2408  2 */\n      0x02\n      0x00\n      dup1\n      mload\n      0x20\n      data_c8669cf8eaf883002b9f48e28846a8d408c9b58ea6613bace374265e43c9bc43\n      dup4\n      codecopy\n      dup2\n      mload\n      swap2\n      mstore\n        /* \"@openzeppelin/contracts/utils/ReentrancyGuard.sol\":3972:4034  _reentrancyGuardStorageSlot().getUint256Slot().value = ENTERED */\n      sstore\n        /* \"@openzeppelin/contracts/utils/ReentrancyGuard.sol\":3749:4041  function _nonReentrantBefore() private {... */\n      jump\t// out\n        /* \"@openzeppelin/contracts/token/ERC20/utils/SafeERC20.sol\":1219:1423  function safeTransfer(IERC20 token, address to, uint256 value) internal {... */\n    tag_169:\n        /* \"@openzeppelin/contracts/token/ERC20/utils/SafeERC20.sol\":1306:1343  _safeTransfer(token, to, value, true) */\n      tag_318\n        /* \"@openzeppelin/contracts/token/ERC20/utils/SafeERC20.sol\":1320:1325  token */\n      dup4\n        /* \"@openzeppelin/contracts/token/ERC20/utils/SafeERC20.sol\":1327:1329  to */\n      dup4\n        /* \"@openzeppelin/contracts/token/ERC20/utils/SafeERC20.sol\":1331:1336  value */\n      dup4\n        /* \"@openzeppelin/contracts/token/ERC20/utils/SafeERC20.sol\":1338:1342  true */\n      0x01\n        /* \"@openzeppelin/contracts/token/ERC20/utils/SafeERC20.sol\":1306:1319  _safeTransfer */\n      tag_319\n        /* \"@openzeppelin/contracts/token/ERC20/utils/SafeERC20.sol\":1306:1343  _safeTransfer(token, to, value, true) */\n      jump\t// in\n    tag_318:\n        /* \"@openzeppelin/contracts/token/ERC20/utils/SafeERC20.sol\":1301:1417  if (!_safeTransfer(token, to, value, true)) {... */\n      tag_209\n      jumpi\n        /* \"@openzeppelin/contracts/token/ERC20/utils/SafeERC20.sol\":1366:1406  SafeERC20FailedOperation(address(token)) */\n      mload(0x40)\n      shl(0xe0, 0x5274afe7)\n      dup2\n      mstore\n      sub(shl(0xa0, 0x01), 0x01)\n        /* \"#utility.yul\":178:210   */\n      dup5\n      and\n        /* \"@openzeppelin/contracts/token/ERC20/utils/SafeERC20.sol\":1366:1406  SafeERC20FailedOperation(address(token)) */\n      0x04\n      dup3\n      add\n        /* \"#utility.yul\":160:211   */\n      mstore\n        /* \"#utility.yul\":133:151   */\n      0x24\n      add\n        /* \"@openzeppelin/contracts/token/ERC20/utils/SafeERC20.sol\":1366:1406  SafeERC20FailedOperation(address(token)) */\n      tag_141\n        /* \"#utility.yul\":14:217   */\n      jump\n        /* \"@openzeppelin/contracts/access/Ownable.sol\":1796:1958  function _checkOwner() internal view virtual {... */\n    tag_185:\n        /* \"@openzeppelin/contracts/access/Ownable.sol\":1684:1691  address */\n      0x00\n        /* \"@openzeppelin/contracts/access/Ownable.sol\":1710:1716  _owner */\n      sload\n      sub(shl(0xa0, 0x01), 0x01)\n      and\n        /* \"@openzeppelin/contracts/utils/Context.sol\":735:745  msg.sender */\n      caller\n        /* \"@openzeppelin/contracts/access/Ownable.sol\":1855:1878  owner() != _msgSender() */\n      eq\n        /* \"@openzeppelin/contracts/access/Ownable.sol\":1851:1952  if (owner() != _msgSender()) {... */\n      tag_192\n      jumpi\n        /* \"@openzeppelin/contracts/access/Ownable.sol\":1901:1941  OwnableUnauthorizedAccount(_msgSender()) */\n      mload(0x40)\n      shl(0xe0, 0x118cdaa7)\n      dup2\n      mstore\n        /* \"@openzeppelin/contracts/utils/Context.sol\":735:745  msg.sender */\n      caller\n        /* \"@openzeppelin/contracts/access/Ownable.sol\":1901:1941  OwnableUnauthorizedAccount(_msgSender()) */\n      0x04\n      dup3\n      add\n        /* \"#utility.yul\":160:211   */\n      mstore\n        /* \"#utility.yul\":133:151   */\n      0x24\n      add\n        /* \"@openzeppelin/contracts/access/Ownable.sol\":1901:1941  OwnableUnauthorizedAccount(_msgSender()) */\n      tag_141\n        /* \"#utility.yul\":14:217   */\n      jump\n        /* \"@openzeppelin/contracts/access/Ownable.sol\":2912:3099  function _transferOwnership(address newOwner) internal virtual {... */\n    tag_193:\n        /* \"@openzeppelin/contracts/access/Ownable.sol\":2985:3001  address oldOwner */\n      0x00\n        /* \"@openzeppelin/contracts/access/Ownable.sol\":3004:3010  _owner */\n      dup1\n      sload\n      sub(shl(0xa0, 0x01), 0x01)\n        /* \"@openzeppelin/contracts/access/Ownable.sol\":3020:3037  _owner = newOwner */\n      dup4\n      dup2\n      and\n      not(sub(shl(0xa0, 0x01), 0x01))\n      dup4\n      and\n      dup2\n      or\n      dup5\n      sstore\n        /* \"@openzeppelin/contracts/access/Ownable.sol\":3052:3092  OwnershipTransferred(oldOwner, newOwner) */\n      mload(0x40)\n        /* \"@openzeppelin/contracts/access/Ownable.sol\":3004:3010  _owner */\n      swap2\n      swap1\n      swap3\n      and\n      swap3\n      dup4\n      swap2\n        /* \"@openzeppelin/contracts/access/Ownable.sol\":3052:3092  OwnershipTransferred(oldOwner, newOwner) */\n      0x8be0079c531659141344cd1fd0a4f28419497f9722a3daafe3b4186f6b6457e0\n      swap2\n        /* \"@openzeppelin/contracts/access/Ownable.sol\":2985:3001  address oldOwner */\n      swap1\n        /* \"@openzeppelin/contracts/access/Ownable.sol\":3052:3092  OwnershipTransferred(oldOwner, newOwner) */\n      log3\n        /* \"@openzeppelin/contracts/access/Ownable.sol\":2975:3099  {... */\n      pop\n        /* \"@openzeppelin/contracts/access/Ownable.sol\":2912:3099  function _transferOwnership(address newOwner) internal virtual {... */\n      pop\n      jump\t// out\n        /* \"/contracts/TimbLockVault.sol\":11679:11916  function _addToWhitelist(address token) internal {... */\n    tag_220:\n      sub(shl(0xa0, 0x01), 0x01)\n        /* \"/contracts/TimbLockVault.sol\":11743:11764  tokenWhitelist[token] */\n      dup2\n      and\n      0x00\n      swap1\n      dup2\n      mstore\n        /* \"/contracts/TimbLockVault.sol\":11743:11757  tokenWhitelist */\n      0x04\n        /* \"/contracts/TimbLockVault.sol\":11743:11764  tokenWhitelist[token] */\n      0x20\n      mstore\n      0x40\n      swap1\n      keccak256\n      sload\n      0xff\n      and\n        /* \"/contracts/TimbLockVault.sol\":11738:11910  if (!tokenWhitelist[token]) {... */\n      tag_171\n      jumpi\n      sub(shl(0xa0, 0x01), 0x01)\n        /* \"/contracts/TimbLockVault.sol\":11780:11801  tokenWhitelist[token] */\n      dup2\n      and\n      0x00\n      dup2\n      dup2\n      mstore\n        /* \"/contracts/TimbLockVault.sol\":11780:11794  tokenWhitelist */\n      0x04\n        /* \"/contracts/TimbLockVault.sol\":11780:11801  tokenWhitelist[token] */\n      0x20\n      swap1\n      dup2\n      mstore\n      0x40\n      dup1\n      dup4\n      keccak256\n        /* \"/contracts/TimbLockVault.sol\":11780:11808  tokenWhitelist[token] = true */\n      dup1\n      sload\n      not(0xff)\n      and\n        /* \"/contracts/TimbLockVault.sol\":11804:11808  true */\n      0x01\n        /* \"/contracts/TimbLockVault.sol\":11780:11808  tokenWhitelist[token] = true */\n      swap1\n      dup2\n      or\n      swap1\n      swap2\n      sstore\n        /* \"/contracts/TimbLockVault.sol\":11822:11839  whitelistedTokens */\n      0x05\n        /* \"/contracts/TimbLockVault.sol\":11822:11851  whitelistedTokens.push(token) */\n      dup1\n      sload\n      dup1\n      dup4\n      add\n      dup3\n      sstore\n      swap5\n      mstore\n      0x036b6384b5eca791c62761152d0c79bb0604c104a5fb6f4eb0703f3154bb3db0\n      swap1\n      swap4\n      add\n      dup1\n      sload\n      not(sub(shl(0xa0, 0x01), 0x01))\n      and\n      dup6\n      or\n      swap1\n      sstore\n        /* \"/contracts/TimbLockVault.sol\":11870:11899  TokenWhitelisted(token, true) */\n      mload\n        /* \"#utility.yul\":3557:3598   */\n      swap2\n      dup3\n      mstore\n        /* \"/contracts/TimbLockVault.sol\":11870:11899  TokenWhitelisted(token, true) */\n      0xef81a9943b96c8df4ef243401c9bf5159146166211356898b52d382086168d92\n      swap2\n        /* \"#utility.yul\":3530:3548   */\n      add\n        /* \"/contracts/TimbLockVault.sol\":11870:11899  TokenWhitelisted(token, true) */\n      tag_204\n        /* \"#utility.yul\":3417:3604   */\n      jump\n        /* \"@openzeppelin/contracts/token/ERC20/utils/SafeERC20.sol\":1662:1894  function safeTransferFrom(IERC20 token, address from, address to, uint256 value) internal {... */\n    tag_281:\n        /* \"@openzeppelin/contracts/token/ERC20/utils/SafeERC20.sol\":1767:1814  _safeTransferFrom(token, from, to, value, true) */\n      tag_338\n        /* \"@openzeppelin/contracts/token/ERC20/utils/SafeERC20.sol\":1785:1790  token */\n      dup5\n        /* \"@openzeppelin/contracts/token/ERC20/utils/SafeERC20.sol\":1792:1796  from */\n      dup5\n        /* \"@openzeppelin/contracts/token/ERC20/utils/SafeERC20.sol\":1798:1800  to */\n      dup5\n        /* \"@openzeppelin/contracts/token/ERC20/utils/SafeERC20.sol\":1802:1807  value */\n      dup5\n        /* \"@openzeppelin/contracts/token/ERC20/utils/SafeERC20.sol\":1809:1813  true */\n      0x01\n        /* \"@openzeppelin/contracts/token/ERC20/utils/SafeERC20.sol\":1767:1784  _safeTransferFrom */\n      tag_339\n        /* \"@openzeppelin/contracts/token/ERC20/utils/SafeERC20.sol\":1767:1814  _safeTransferFrom(token, from, to, value, true) */\n      jump\t// in\n    tag_338:\n        /* \"@openzeppelin/contracts/token/ERC20/utils/SafeERC20.sol\":1762:1888  if (!_safeTransferFrom(token, from, to, value, true)) {... */\n      tag_340\n      jumpi\n        /* \"@openzeppelin/contracts/token/ERC20/utils/SafeERC20.sol\":1837:1877  SafeERC20FailedOperation(address(token)) */\n      mload(0x40)\n      shl(0xe0, 0x5274afe7)\n      dup2\n      mstore\n      sub(shl(0xa0, 0x01), 0x01)\n        /* \"#utility.yul\":178:210   */\n      dup6\n      and\n        /* \"@openzeppelin/contracts/token/ERC20/utils/SafeERC20.sol\":1837:1877  SafeERC20FailedOperation(address(token)) */\n      0x04\n      dup3\n      add\n        /* \"#utility.yul\":160:211   */\n      mstore\n        /* \"#utility.yul\":133:151   */\n      0x24\n      add\n        /* \"@openzeppelin/contracts/token/ERC20/utils/SafeERC20.sol\":1837:1877  SafeERC20FailedOperation(address(token)) */\n      tag_141\n        /* \"#utility.yul\":14:217   */\n      jump\n        /* \"@openzeppelin/contracts/token/ERC20/utils/SafeERC20.sol\":1762:1888  if (!_safeTransferFrom(token, from, to, value, true)) {... */\n    tag_340:\n        /* \"@openzeppelin/contracts/token/ERC20/utils/SafeERC20.sol\":1662:1894  function safeTransferFrom(IERC20 token, address from, address to, uint256 value) internal {... */\n      pop\n      pop\n      pop\n      pop\n      jump\t// out\n        /* \"@openzeppelin/contracts/utils/ReentrancyGuard.sol\":3586:3743  function _nonReentrantBeforeView() private view {... */\n    tag_312:\n      0x00\n      dup1\n      mload\n      0x20\n      data_c8669cf8eaf883002b9f48e28846a8d408c9b58ea6613bace374265e43c9bc43\n      dup4\n      codecopy\n      dup2\n      mload\n      swap2\n      mstore\n        /* \"@openzeppelin/contracts/utils/ReentrancyGuard.sol\":4560:4612  _reentrancyGuardStorageSlot().getUint256Slot().value */\n      sload\n        /* \"@openzeppelin/contracts/utils/ReentrancyGuard.sol\":2407:2408  2 */\n      0x02\n        /* \"@openzeppelin/contracts/utils/ReentrancyGuard.sol\":4560:4623  _reentrancyGuardStorageSlot().getUint256Slot().value == ENTERED */\n      sub\n        /* \"@openzeppelin/contracts/utils/ReentrancyGuard.sol\":3644:3737  if (_reentrancyGuardEntered()) {... */\n      tag_192\n      jumpi\n        /* \"@openzeppelin/contracts/utils/ReentrancyGuard.sol\":3696:3726  ReentrancyGuardReentrantCall() */\n      mload(0x40)\n      shl(0xe0, 0x3ee5aeb5)\n      dup2\n      mstore\n      0x04\n      add\n      mload(0x40)\n      dup1\n      swap2\n      sub\n      swap1\n      revert\n        /* \"@openzeppelin/contracts/token/ERC20/utils/SafeERC20.sol\":8373:9617  function _safeTransfer(IERC20 token, address to, uint256 value, bool bubble) private returns (bool success) {... */\n    tag_319:\n        /* \"@openzeppelin/contracts/token/ERC20/utils/SafeERC20.sol\":8600:8604  0x40 */\n      0x40\n        /* \"@openzeppelin/contracts/token/ERC20/utils/SafeERC20.sol\":8594:8605  mload(0x40) */\n      mload\n      shl(0xe0, 0xa9059cbb)\n        /* \"@openzeppelin/contracts/token/ERC20/utils/SafeERC20.sol\":8467:8479  bool success */\n      0x00\n        /* \"@openzeppelin/contracts/token/ERC20/utils/SafeERC20.sol\":8618:8640  mstore(0x00, selector) */\n      dup2\n      dup2\n      mstore\n      sub(shl(0xa0, 0x01), 0x01)\n        /* \"@openzeppelin/contracts/token/ERC20/utils/SafeERC20.sol\":8666:8690  and(to, shr(96, not(0))) */\n      dup7\n      and\n        /* \"@openzeppelin/contracts/token/ERC20/utils/SafeERC20.sol\":8660:8664  0x04 */\n      0x04\n        /* \"@openzeppelin/contracts/token/ERC20/utils/SafeERC20.sol\":8653:8691  mstore(0x04, and(to, shr(96, not(0)))) */\n      mstore\n        /* \"@openzeppelin/contracts/token/ERC20/utils/SafeERC20.sol\":8711:8715  0x24 */\n      0x24\n        /* \"@openzeppelin/contracts/token/ERC20/utils/SafeERC20.sol\":8704:8723  mstore(0x24, value) */\n      dup6\n      swap1\n      mstore\n        /* \"@openzeppelin/contracts/token/ERC20/utils/SafeERC20.sol\":8467:8479  bool success */\n      swap2\n        /* \"@openzeppelin/contracts/token/ERC20/utils/SafeERC20.sol\":8787:8791  0x20 */\n      0x20\n        /* \"@openzeppelin/contracts/token/ERC20/utils/SafeERC20.sol\":8467:8479  bool success */\n      dup4\n        /* \"@openzeppelin/contracts/token/ERC20/utils/SafeERC20.sol\":8775:8779  0x44 */\n      0x44\n        /* \"@openzeppelin/contracts/token/ERC20/utils/SafeERC20.sol\":8467:8479  bool success */\n      dup2\n      dup1\n        /* \"@openzeppelin/contracts/token/ERC20/utils/SafeERC20.sol\":8759:8764  token */\n      dup12\n        /* \"@openzeppelin/contracts/token/ERC20/utils/SafeERC20.sol\":8752:8757  gas() */\n      gas\n        /* \"@openzeppelin/contracts/token/ERC20/utils/SafeERC20.sol\":8747:8792  call(gas(), token, 0, 0x00, 0x44, 0x00, 0x20) */\n      call\n        /* \"@openzeppelin/contracts/token/ERC20/utils/SafeERC20.sol\":8736:8792  success := call(gas(), token, 0, 0x00, 0x44, 0x00, 0x20) */\n      swap3\n      pop\n        /* \"@openzeppelin/contracts/token/ERC20/utils/SafeERC20.sol\":9004:9005  1 */\n      0x01\n        /* \"@openzeppelin/contracts/token/ERC20/utils/SafeERC20.sol\":8997:9001  0x00 */\n      0x00\n        /* \"@openzeppelin/contracts/token/ERC20/utils/SafeERC20.sol\":8991:9002  mload(0x00) */\n      mload\n        /* \"@openzeppelin/contracts/token/ERC20/utils/SafeERC20.sol\":8988:9006  eq(mload(0x00), 1) */\n      eq\n        /* \"@openzeppelin/contracts/token/ERC20/utils/SafeERC20.sol\":8979:8986  success */\n      dup4\n        /* \"@openzeppelin/contracts/token/ERC20/utils/SafeERC20.sol\":8975:9007  and(success, eq(mload(0x00), 1)) */\n      and\n        /* \"@openzeppelin/contracts/token/ERC20/utils/SafeERC20.sol\":8965:9571  if iszero(and(success, eq(mload(0x00), 1))) {... */\n      tag_349\n      jumpi\n        /* \"@openzeppelin/contracts/token/ERC20/utils/SafeERC20.sol\":9136:9142  bubble */\n      dup4\n        /* \"@openzeppelin/contracts/token/ERC20/utils/SafeERC20.sol\":9126:9133  success */\n      dup4\n        /* \"@openzeppelin/contracts/token/ERC20/utils/SafeERC20.sol\":9119:9134  iszero(success) */\n      iszero\n        /* \"@openzeppelin/contracts/token/ERC20/utils/SafeERC20.sol\":9115:9143  and(iszero(success), bubble) */\n      and\n        /* \"@openzeppelin/contracts/token/ERC20/utils/SafeERC20.sol\":9112:9277  if and(iszero(success), bubble) {... */\n      iszero\n      tag_350\n      jumpi\n        /* \"@openzeppelin/contracts/token/ERC20/utils/SafeERC20.sol\":9192:9208  returndatasize() */\n      returndatasize\n        /* \"@openzeppelin/contracts/token/ERC20/utils/SafeERC20.sol\":9186:9190  0x00 */\n      0x00\n        /* \"@openzeppelin/contracts/token/ERC20/utils/SafeERC20.sol\":9181:9184  fmp */\n      dup3\n        /* \"@openzeppelin/contracts/token/ERC20/utils/SafeERC20.sol\":9166:9209  returndatacopy(fmp, 0x00, returndatasize()) */\n      returndatacopy\n        /* \"@openzeppelin/contracts/token/ERC20/utils/SafeERC20.sol\":9242:9258  returndatasize() */\n      returndatasize\n        /* \"@openzeppelin/contracts/token/ERC20/utils/SafeERC20.sol\":9237:9240  fmp */\n      dup2\n        /* \"@openzeppelin/contracts/token/ERC20/utils/SafeERC20.sol\":9230:9259  revert(fmp, returndatasize()) */\n      revert\n        /* \"@openzeppelin/contracts/token/ERC20/utils/SafeERC20.sol\":9112:9277  if and(iszero(success), bubble) {... */\n    tag_350:\n        /* \"@openzeppelin/contracts/token/ERC20/utils/SafeERC20.sol\":9553:9554  0 */\n      0x00\n        /* \"@openzeppelin/contracts/token/ERC20/utils/SafeERC20.sol\":9545:9550  token */\n      dup8\n        /* \"@openzeppelin/contracts/token/ERC20/utils/SafeERC20.sol\":9533:9551  extcodesize(token) */\n      extcodesize\n        /* \"@openzeppelin/contracts/token/ERC20/utils/SafeERC20.sol\":9530:9555  gt(extcodesize(token), 0) */\n      gt\n        /* \"@openzeppelin/contracts/token/ERC20/utils/SafeERC20.sol\":9511:9527  returndatasize() */\n      returndatasize\n        /* \"@openzeppelin/contracts/token/ERC20/utils/SafeERC20.sol\":9504:9528  iszero(returndatasize()) */\n      iszero\n        /* \"@openzeppelin/contracts/token/ERC20/utils/SafeERC20.sol\":9500:9556  and(iszero(returndatasize()), gt(extcodesize(token), 0)) */\n      and\n        /* \"@openzeppelin/contracts/token/ERC20/utils/SafeERC20.sol\":9491:9498  success */\n      dup4\n        /* \"@openzeppelin/contracts/token/ERC20/utils/SafeERC20.sol\":9487:9557  and(success, and(iszero(returndatasize()), gt(extcodesize(token), 0))) */\n      and\n        /* \"@openzeppelin/contracts/token/ERC20/utils/SafeERC20.sol\":9476:9557  success := and(success, and(iszero(returndatasize()), gt(extcodesize(token), 0))) */\n      swap3\n      pop\n        /* \"@openzeppelin/contracts/token/ERC20/utils/SafeERC20.sol\":8965:9571  if iszero(and(success, eq(mload(0x00), 1))) {... */\n    tag_349:\n        /* \"@openzeppelin/contracts/token/ERC20/utils/SafeERC20.sol\":9591:9595  0x40 */\n      0x40\n        /* \"@openzeppelin/contracts/token/ERC20/utils/SafeERC20.sol\":9584:9601  mstore(0x40, fmp) */\n      mstore\n      pop\n        /* \"@openzeppelin/contracts/token/ERC20/utils/SafeERC20.sol\":8373:9617  function _safeTransfer(IERC20 token, address to, uint256 value, bool bubble) private returns (bool success) {... */\n      swap5\n      swap4\n      pop\n      pop\n      pop\n      pop\n      jump\t// out\n        /* \"@openzeppelin/contracts/token/ERC20/utils/SafeERC20.sol\":10165:11558  function _safeTransferFrom(... */\n    tag_339:\n        /* \"@openzeppelin/contracts/token/ERC20/utils/SafeERC20.sol\":10460:10464  0x40 */\n      0x40\n        /* \"@openzeppelin/contracts/token/ERC20/utils/SafeERC20.sol\":10454:10465  mload(0x40) */\n      mload\n      shl(0xe0, 0x23b872dd)\n        /* \"@openzeppelin/contracts/token/ERC20/utils/SafeERC20.sol\":10323:10335  bool success */\n      0x00\n        /* \"@openzeppelin/contracts/token/ERC20/utils/SafeERC20.sol\":10478:10500  mstore(0x00, selector) */\n      dup2\n      dup2\n      mstore\n      sub(shl(0xa0, 0x01), 0x01)\n        /* \"@openzeppelin/contracts/token/ERC20/utils/SafeERC20.sol\":10526:10552  and(from, shr(96, not(0))) */\n      dup8\n      dup2\n      and\n        /* \"@openzeppelin/contracts/token/ERC20/utils/SafeERC20.sol\":10520:10524  0x04 */\n      0x04\n        /* \"@openzeppelin/contracts/token/ERC20/utils/SafeERC20.sol\":10513:10553  mstore(0x04, and(from, shr(96, not(0)))) */\n      mstore\n        /* \"@openzeppelin/contracts/token/ERC20/utils/SafeERC20.sol\":10579:10603  and(to, shr(96, not(0))) */\n      dup7\n      and\n        /* \"@openzeppelin/contracts/token/ERC20/utils/SafeERC20.sol\":10573:10577  0x24 */\n      0x24\n        /* \"@openzeppelin/contracts/token/ERC20/utils/SafeERC20.sol\":10566:10604  mstore(0x24, and(to, shr(96, not(0)))) */\n      mstore\n        /* \"@openzeppelin/contracts/token/ERC20/utils/SafeERC20.sol\":10624:10628  0x44 */\n      0x44\n        /* \"@openzeppelin/contracts/token/ERC20/utils/SafeERC20.sol\":10617:10636  mstore(0x44, value) */\n      dup6\n      swap1\n      mstore\n        /* \"@openzeppelin/contracts/token/ERC20/utils/SafeERC20.sol\":10323:10335  bool success */\n      swap2\n        /* \"@openzeppelin/contracts/token/ERC20/utils/SafeERC20.sol\":10700:10704  0x20 */\n      0x20\n        /* \"@openzeppelin/contracts/token/ERC20/utils/SafeERC20.sol\":10323:10335  bool success */\n      dup4\n        /* \"@openzeppelin/contracts/token/ERC20/utils/SafeERC20.sol\":10688:10692  0x64 */\n      0x64\n        /* \"@openzeppelin/contracts/token/ERC20/utils/SafeERC20.sol\":10323:10335  bool success */\n      dup2\n      dup1\n        /* \"@openzeppelin/contracts/token/ERC20/utils/SafeERC20.sol\":10672:10677  token */\n      dup13\n        /* \"@openzeppelin/contracts/token/ERC20/utils/SafeERC20.sol\":10665:10670  gas() */\n      gas\n        /* \"@openzeppelin/contracts/token/ERC20/utils/SafeERC20.sol\":10660:10705  call(gas(), token, 0, 0x00, 0x64, 0x00, 0x20) */\n      call\n        /* \"@openzeppelin/contracts/token/ERC20/utils/SafeERC20.sol\":10649:10705  success := call(gas(), token, 0, 0x00, 0x64, 0x00, 0x20) */\n      swap3\n      pop\n        /* \"@openzeppelin/contracts/token/ERC20/utils/SafeERC20.sol\":10917:10918  1 */\n      0x01\n        /* \"@openzeppelin/contracts/token/ERC20/utils/SafeERC20.sol\":10910:10914  0x00 */\n      0x00\n        /* \"@openzeppelin/contracts/token/ERC20/utils/SafeERC20.sol\":10904:10915  mload(0x00) */\n      mload\n        /* \"@openzeppelin/contracts/token/ERC20/utils/SafeERC20.sol\":10901:10919  eq(mload(0x00), 1) */\n      eq\n        /* \"@openzeppelin/contracts/token/ERC20/utils/SafeERC20.sol\":10892:10899  success */\n      dup4\n        /* \"@openzeppelin/contracts/token/ERC20/utils/SafeERC20.sol\":10888:10920  and(success, eq(mload(0x00), 1)) */\n      and\n        /* \"@openzeppelin/contracts/token/ERC20/utils/SafeERC20.sol\":10878:11484  if iszero(and(success, eq(mload(0x00), 1))) {... */\n      tag_353\n      jumpi\n        /* \"@openzeppelin/contracts/token/ERC20/utils/SafeERC20.sol\":11049:11055  bubble */\n      dup4\n        /* \"@openzeppelin/contracts/token/ERC20/utils/SafeERC20.sol\":11039:11046  success */\n      dup4\n        /* \"@openzeppelin/contracts/token/ERC20/utils/SafeERC20.sol\":11032:11047  iszero(success) */\n      iszero\n        /* \"@openzeppelin/contracts/token/ERC20/utils/SafeERC20.sol\":11028:11056  and(iszero(success), bubble) */\n      and\n        /* \"@openzeppelin/contracts/token/ERC20/utils/SafeERC20.sol\":11025:11190  if and(iszero(success), bubble) {... */\n      iszero\n      tag_354\n      jumpi\n        /* \"@openzeppelin/contracts/token/ERC20/utils/SafeERC20.sol\":11105:11121  returndatasize() */\n      returndatasize\n        /* \"@openzeppelin/contracts/token/ERC20/utils/SafeERC20.sol\":11099:11103  0x00 */\n      0x00\n        /* \"@openzeppelin/contracts/token/ERC20/utils/SafeERC20.sol\":11094:11097  fmp */\n      dup3\n        /* \"@openzeppelin/contracts/token/ERC20/utils/SafeERC20.sol\":11079:11122  returndatacopy(fmp, 0x00, returndatasize()) */\n      returndatacopy\n        /* \"@openzeppelin/contracts/token/ERC20/utils/SafeERC20.sol\":11155:11171  returndatasize() */\n      returndatasize\n        /* \"@openzeppelin/contracts/token/ERC20/utils/SafeERC20.sol\":11150:11153  fmp */\n      dup2\n        /* \"@openzeppelin/contracts/token/ERC20/utils/SafeERC20.sol\":11143:11172  revert(fmp, returndatasize()) */\n      revert\n        /* \"@openzeppelin/contracts/token/ERC20/utils/SafeERC20.sol\":11025:11190  if and(iszero(success), bubble) {... */\n    tag_354:\n        /* \"@openzeppelin/contracts/token/ERC20/utils/SafeERC20.sol\":11466:11467  0 */\n      0x00\n        /* \"@openzeppelin/contracts/token/ERC20/utils/SafeERC20.sol\":11458:11463  token */\n      dup9\n        /* \"@openzeppelin/contracts/token/ERC20/utils/SafeERC20.sol\":11446:11464  extcodesize(token) */\n      extcodesize\n        /* \"@openzeppelin/contracts/token/ERC20/utils/SafeERC20.sol\":11443:11468  gt(extcodesize(token), 0) */\n      gt\n        /* \"@openzeppelin/contracts/token/ERC20/utils/SafeERC20.sol\":11424:11440  returndatasize() */\n      returndatasize\n        /* \"@openzeppelin/contracts/token/ERC20/utils/SafeERC20.sol\":11417:11441  iszero(returndatasize()) */\n      iszero\n        /* \"@openzeppelin/contracts/token/ERC20/utils/SafeERC20.sol\":11413:11469  and(iszero(returndatasize()), gt(extcodesize(token), 0)) */\n      and\n        /* \"@openzeppelin/contracts/token/ERC20/utils/SafeERC20.sol\":11404:11411  success */\n      dup4\n        /* \"@openzeppelin/contracts/token/ERC20/utils/SafeERC20.sol\":11400:11470  and(success, and(iszero(returndatasize()), gt(extcodesize(token), 0))) */\n      and\n        /* \"@openzeppelin/contracts/token/ERC20/utils/SafeERC20.sol\":11389:11470  success := and(success, and(iszero(returndatasize()), gt(extcodesize(token), 0))) */\n      swap3\n      pop\n        /* \"@openzeppelin/contracts/token/ERC20/utils/SafeERC20.sol\":10878:11484  if iszero(and(success, eq(mload(0x00), 1))) {... */\n    tag_353:\n        /* \"@openzeppelin/contracts/token/ERC20/utils/SafeERC20.sol\":11504:11508  0x40 */\n      0x40\n        /* \"@openzeppelin/contracts/token/ERC20/utils/SafeERC20.sol\":11497:11514  mstore(0x40, fmp) */\n      mstore\n      pop\n        /* \"@openzeppelin/contracts/token/ERC20/utils/SafeERC20.sol\":11540:11541  0 */\n      0x00\n        /* \"@openzeppelin/contracts/token/ERC20/utils/SafeERC20.sol\":11534:11538  0x60 */\n      0x60\n        /* \"@openzeppelin/contracts/token/ERC20/utils/SafeERC20.sol\":11527:11542  mstore(0x60, 0) */\n      mstore\n        /* \"@openzeppelin/contracts/token/ERC20/utils/SafeERC20.sol\":10165:11558  function _safeTransferFrom(... */\n      swap6\n      swap5\n      pop\n      pop\n      pop\n      pop\n      pop\n      jump\t// out\n    tag_174:\n      mload(0x40)\n      dup1\n      0x0100\n      add\n      0x40\n      mstore\n      dup1\n      0x00\n      dup2\n      mstore\n      0x20\n      add\n      and(sub(shl(0xa0, 0x01), 0x01), 0x00)\n      dup2\n      mstore\n      0x20\n      add\n      and(sub(shl(0xa0, 0x01), 0x01), 0x00)\n      dup2\n      mstore\n      0x20\n      add\n      0x00\n      dup2\n      mstore\n      0x20\n      add\n      0x00\n      dup2\n      mstore\n      0x20\n      add\n      0x00\n      dup2\n      mstore\n      0x20\n      add\n      0x00\n      0x02\n      dup2\n      gt\n      iszero\n      tag_359\n      jumpi\n      tag_359\n      tag_158\n      jump\t// in\n    tag_359:\n      dup2\n      mstore\n      0x00\n      0x20\n      swap1\n      swap2\n      add\n      mstore\n      swap1\n      jump\t// out\n        /* \"#utility.yul\":222:402   */\n    tag_42:\n        /* \"#utility.yul\":281:287   */\n      0x00\n        /* \"#utility.yul\":334:336   */\n      0x20\n        /* \"#utility.yul\":322:331   */\n      dup3\n        /* \"#utility.yul\":313:320   */\n      dup5\n        /* \"#utility.yul\":309:332   */\n      sub\n        /* \"#utility.yul\":305:337   */\n      slt\n        /* \"#utility.yul\":302:354   */\n      iszero\n      tag_367\n      jumpi\n        /* \"#utility.yul\":350:351   */\n      0x00\n        /* \"#utility.yul\":347:348   */\n      dup1\n        /* \"#utility.yul\":340:352   */\n      revert\n        /* \"#utility.yul\":302:354   */\n    tag_367:\n      pop\n        /* \"#utility.yul\":373:396   */\n      calldataload\n      swap2\n        /* \"#utility.yul\":222:402   */\n      swap1\n      pop\n      jump\t// out\n        /* \"#utility.yul\":589:762   */\n    tag_360:\n        /* \"#utility.yul\":657:677   */\n      dup1\n      calldataload\n      sub(shl(0xa0, 0x01), 0x01)\n        /* \"#utility.yul\":706:737   */\n      dup2\n      and\n        /* \"#utility.yul\":696:738   */\n      dup2\n      eq\n        /* \"#utility.yul\":686:756   */\n      tag_370\n      jumpi\n        /* \"#utility.yul\":752:753   */\n      0x00\n        /* \"#utility.yul\":749:750   */\n      dup1\n        /* \"#utility.yul\":742:754   */\n      revert\n        /* \"#utility.yul\":686:756   */\n    tag_370:\n        /* \"#utility.yul\":589:762   */\n      swap2\n      swap1\n      pop\n      jump\t// out\n        /* \"#utility.yul\":767:1027   */\n    tag_55:\n        /* \"#utility.yul\":835:841   */\n      0x00\n        /* \"#utility.yul\":843:849   */\n      dup1\n        /* \"#utility.yul\":896:898   */\n      0x40\n        /* \"#utility.yul\":884:893   */\n      dup4\n        /* \"#utility.yul\":875:882   */\n      dup6\n        /* \"#utility.yul\":871:894   */\n      sub\n        /* \"#utility.yul\":867:899   */\n      slt\n        /* \"#utility.yul\":864:916   */\n      iszero\n      tag_372\n      jumpi\n        /* \"#utility.yul\":912:913   */\n      0x00\n        /* \"#utility.yul\":909:910   */\n      dup1\n        /* \"#utility.yul\":902:914   */\n      revert\n        /* \"#utility.yul\":864:916   */\n    tag_372:\n        /* \"#utility.yul\":935:964   */\n      tag_373\n        /* \"#utility.yul\":954:963   */\n      dup4\n        /* \"#utility.yul\":935:964   */\n      tag_360\n      jump\t// in\n    tag_373:\n        /* \"#utility.yul\":925:964   */\n      swap2\n      pop\n        /* \"#utility.yul\":983:1021   */\n      tag_374\n        /* \"#utility.yul\":1017:1019   */\n      0x20\n        /* \"#utility.yul\":1006:1015   */\n      dup5\n        /* \"#utility.yul\":1002:1020   */\n      add\n        /* \"#utility.yul\":983:1021   */\n      tag_360\n      jump\t// in\n    tag_374:\n        /* \"#utility.yul\":973:1021   */\n      swap1\n      pop\n        /* \"#utility.yul\":767:1027   */\n      swap3\n      pop\n      swap3\n      swap1\n      pop\n      jump\t// out\n        /* \"#utility.yul\":1032:1159   */\n    tag_158:\n        /* \"#utility.yul\":1093:1103   */\n      0x4e487b71\n        /* \"#utility.yul\":1088:1091   */\n      0xe0\n        /* \"#utility.yul\":1084:1104   */\n      shl\n        /* \"#utility.yul\":1081:1082   */\n      0x00\n        /* \"#utility.yul\":1074:1105   */\n      mstore\n        /* \"#utility.yul\":1124:1128   */\n      0x21\n        /* \"#utility.yul\":1121:1122   */\n      0x04\n        /* \"#utility.yul\":1114:1129   */\n      mstore\n        /* \"#utility.yul\":1148:1152   */\n      0x24\n        /* \"#utility.yul\":1145:1146   */\n      0x00\n        /* \"#utility.yul\":1138:1153   */\n      revert\n        /* \"#utility.yul\":1164:1402   */\n    tag_361:\n        /* \"#utility.yul\":1246:1247   */\n      0x03\n        /* \"#utility.yul\":1239:1244   */\n      dup2\n        /* \"#utility.yul\":1236:1248   */\n      lt\n        /* \"#utility.yul\":1226:1369   */\n      tag_377\n      jumpi\n        /* \"#utility.yul\":1291:1301   */\n      0x4e487b71\n        /* \"#utility.yul\":1286:1289   */\n      0xe0\n        /* \"#utility.yul\":1282:1302   */\n      shl\n        /* \"#utility.yul\":1279:1280   */\n      0x00\n        /* \"#utility.yul\":1272:1303   */\n      mstore\n        /* \"#utility.yul\":1326:1330   */\n      0x21\n        /* \"#utility.yul\":1323:1324   */\n      0x04\n        /* \"#utility.yul\":1316:1331   */\n      mstore\n        /* \"#utility.yul\":1354:1358   */\n      0x24\n        /* \"#utility.yul\":1351:1352   */\n      0x00\n        /* \"#utility.yul\":1344:1359   */\n      revert\n        /* \"#utility.yul\":1226:1369   */\n    tag_377:\n        /* \"#utility.yul\":1378:1396   */\n      swap1\n      mstore\n        /* \"#utility.yul\":1164:1402   */\n      jump\t// out\n        /* \"#utility.yul\":1407:2071   */\n    tag_362:\n        /* \"#utility.yul\":1488:1493   */\n      dup1\n        /* \"#utility.yul\":1482:1494   */\n      mload\n        /* \"#utility.yul\":1477:1480   */\n      dup3\n        /* \"#utility.yul\":1470:1495   */\n      mstore\n        /* \"#utility.yul\":1541:1545   */\n      0x20\n        /* \"#utility.yul\":1534:1539   */\n      dup2\n        /* \"#utility.yul\":1530:1546   */\n      add\n        /* \"#utility.yul\":1524:1547   */\n      mload\n        /* \"#utility.yul\":1583:1584   */\n      0x01\n        /* \"#utility.yul\":1579:1580   */\n      dup1\n        /* \"#utility.yul\":1574:1577   */\n      0xa0\n        /* \"#utility.yul\":1570:1581   */\n      shl\n        /* \"#utility.yul\":1566:1585   */\n      sub\n        /* \"#utility.yul\":1635:1637   */\n      dup1\n        /* \"#utility.yul\":1621:1633   */\n      dup3\n        /* \"#utility.yul\":1617:1638   */\n      and\n        /* \"#utility.yul\":1610:1614   */\n      0x20\n        /* \"#utility.yul\":1605:1608   */\n      dup6\n        /* \"#utility.yul\":1601:1615   */\n      add\n        /* \"#utility.yul\":1594:1639   */\n      mstore\n        /* \"#utility.yul\":1700:1702   */\n      dup1\n        /* \"#utility.yul\":1692:1696   */\n      0x40\n        /* \"#utility.yul\":1685:1690   */\n      dup5\n        /* \"#utility.yul\":1681:1697   */\n      add\n        /* \"#utility.yul\":1675:1698   */\n      mload\n        /* \"#utility.yul\":1671:1703   */\n      and\n        /* \"#utility.yul\":1664:1668   */\n      0x40\n        /* \"#utility.yul\":1659:1662   */\n      dup6\n        /* \"#utility.yul\":1655:1669   */\n      add\n        /* \"#utility.yul\":1648:1704   */\n      mstore\n      pop\n      pop\n        /* \"#utility.yul\":1753:1757   */\n      0x60\n        /* \"#utility.yul\":1746:1751   */\n      dup2\n        /* \"#utility.yul\":1742:1758   */\n      add\n        /* \"#utility.yul\":1736:1759   */\n      mload\n        /* \"#utility.yul\":1729:1733   */\n      0x60\n        /* \"#utility.yul\":1724:1727   */\n      dup4\n        /* \"#utility.yul\":1720:1734   */\n      add\n        /* \"#utility.yul\":1713:1760   */\n      mstore\n        /* \"#utility.yul\":1809:1813   */\n      0x80\n        /* \"#utility.yul\":1802:1807   */\n      dup2\n        /* \"#utility.yul\":1798:1814   */\n      add\n        /* \"#utility.yul\":1792:1815   */\n      mload\n        /* \"#utility.yul\":1785:1789   */\n      0x80\n        /* \"#utility.yul\":1780:1783   */\n      dup4\n        /* \"#utility.yul\":1776:1790   */\n      add\n        /* \"#utility.yul\":1769:1816   */\n      mstore\n        /* \"#utility.yul\":1865:1869   */\n      0xa0\n        /* \"#utility.yul\":1858:1863   */\n      dup2\n        /* \"#utility.yul\":1854:1870   */\n      add\n        /* \"#utility.yul\":1848:1871   */\n      mload\n        /* \"#utility.yul\":1841:1845   */\n      0xa0\n        /* \"#utility.yul\":1836:1839   */\n      dup4\n        /* \"#utility.yul\":1832:1846   */\n      add\n        /* \"#utility.yul\":1825:1872   */\n      mstore\n        /* \"#utility.yul\":1920:1924   */\n      0xc0\n        /* \"#utility.yul\":1913:1918   */\n      dup2\n        /* \"#utility.yul\":1909:1925   */\n      add\n        /* \"#utility.yul\":1903:1926   */\n      mload\n        /* \"#utility.yul\":1935:1993   */\n      tag_379\n        /* \"#utility.yul\":1987:1991   */\n      0xc0\n        /* \"#utility.yul\":1982:1985   */\n      dup5\n        /* \"#utility.yul\":1978:1992   */\n      add\n        /* \"#utility.yul\":1962:1976   */\n      dup3\n        /* \"#utility.yul\":1935:1993   */\n      tag_361\n      jump\t// in\n    tag_379:\n      pop\n        /* \"#utility.yul\":2056:2060   */\n      0xe0\n        /* \"#utility.yul\":2045:2061   */\n      swap1\n      dup2\n      add\n        /* \"#utility.yul\":2039:2062   */\n      mload\n        /* \"#utility.yul\":2032:2063   */\n      iszero\n        /* \"#utility.yul\":2025:2064   */\n      iszero\n        /* \"#utility.yul\":2009:2023   */\n      swap2\n      add\n        /* \"#utility.yul\":2002:2065   */\n      mstore\n        /* \"#utility.yul\":1407:2071   */\n      jump\t// out\n        /* \"#utility.yul\":2076:2325   */\n    tag_58:\n        /* \"#utility.yul\":2260:2263   */\n      0x0100\n        /* \"#utility.yul\":2245:2264   */\n      dup2\n      add\n        /* \"#utility.yul\":2273:2319   */\n      tag_175\n        /* \"#utility.yul\":2249:2258   */\n      dup3\n        /* \"#utility.yul\":2301:2307   */\n      dup5\n        /* \"#utility.yul\":2273:2319   */\n      tag_362\n      jump\t// in\n        /* \"#utility.yul\":2330:2584   */\n    tag_63:\n        /* \"#utility.yul\":2398:2404   */\n      0x00\n        /* \"#utility.yul\":2406:2412   */\n      dup1\n        /* \"#utility.yul\":2459:2461   */\n      0x40\n        /* \"#utility.yul\":2447:2456   */\n      dup4\n        /* \"#utility.yul\":2438:2445   */\n      dup6\n        /* \"#utility.yul\":2434:2457   */\n      sub\n        /* \"#utility.yul\":2430:2462   */\n      slt\n        /* \"#utility.yul\":2427:2479   */\n      iszero\n      tag_383\n      jumpi\n        /* \"#utility.yul\":2475:2476   */\n      0x00\n        /* \"#utility.yul\":2472:2473   */\n      dup1\n        /* \"#utility.yul\":2465:2477   */\n      revert\n        /* \"#utility.yul\":2427:2479   */\n    tag_383:\n        /* \"#utility.yul\":2498:2527   */\n      tag_384\n        /* \"#utility.yul\":2517:2526   */\n      dup4\n        /* \"#utility.yul\":2498:2527   */\n      tag_360\n      jump\t// in\n    tag_384:\n        /* \"#utility.yul\":2488:2527   */\n      swap5\n        /* \"#utility.yul\":2574:2576   */\n      0x20\n        /* \"#utility.yul\":2559:2577   */\n      swap4\n      swap1\n      swap4\n      add\n        /* \"#utility.yul\":2546:2578   */\n      calldataload\n      swap4\n      pop\n      pop\n      pop\n        /* \"#utility.yul\":2330:2584   */\n      jump\t// out\n        /* \"#utility.yul\":2589:2775   */\n    tag_77:\n        /* \"#utility.yul\":2648:2654   */\n      0x00\n        /* \"#utility.yul\":2701:2703   */\n      0x20\n        /* \"#utility.yul\":2689:2698   */\n      dup3\n        /* \"#utility.yul\":2680:2687   */\n      dup5\n        /* \"#utility.yul\":2676:2699   */\n      sub\n        /* \"#utility.yul\":2672:2704   */\n      slt\n        /* \"#utility.yul\":2669:2721   */\n      iszero\n      tag_386\n      jumpi\n        /* \"#utility.yul\":2717:2718   */\n      0x00\n        /* \"#utility.yul\":2714:2715   */\n      dup1\n        /* \"#utility.yul\":2707:2719   */\n      revert\n        /* \"#utility.yul\":2669:2721   */\n    tag_386:\n        /* \"#utility.yul\":2740:2769   */\n      tag_143\n        /* \"#utility.yul\":2759:2768   */\n      dup3\n        /* \"#utility.yul\":2740:2769   */\n      tag_360\n      jump\t// in\n        /* \"#utility.yul\":2780:3412   */\n    tag_80:\n        /* \"#utility.yul\":2951:2953   */\n      0x20\n        /* \"#utility.yul\":3003:3024   */\n      dup1\n      dup3\n      mstore\n        /* \"#utility.yul\":3073:3086   */\n      dup3\n      mload\n        /* \"#utility.yul\":2976:2994   */\n      dup3\n      dup3\n      add\n        /* \"#utility.yul\":3095:3117   */\n      dup2\n      swap1\n      mstore\n        /* \"#utility.yul\":2922:2926   */\n      0x00\n      swap2\n        /* \"#utility.yul\":2951:2953   */\n      swap1\n        /* \"#utility.yul\":3174:3189   */\n      dup5\n      dup3\n      add\n      swap1\n        /* \"#utility.yul\":3148:3150   */\n      0x40\n        /* \"#utility.yul\":3133:3151   */\n      dup6\n      add\n      swap1\n        /* \"#utility.yul\":2922:2926   */\n      dup5\n        /* \"#utility.yul\":3217:3386   */\n    tag_389:\n        /* \"#utility.yul\":3231:3237   */\n      dup2\n        /* \"#utility.yul\":3228:3229   */\n      dup2\n        /* \"#utility.yul\":3225:3238   */\n      lt\n        /* \"#utility.yul\":3217:3386   */\n      iszero\n      tag_391\n      jumpi\n        /* \"#utility.yul\":3292:3305   */\n      dup4\n      mload\n        /* \"#utility.yul\":3280:3306   */\n      dup4\n      mstore\n        /* \"#utility.yul\":3361:3376   */\n      swap3\n      dup5\n      add\n      swap3\n        /* \"#utility.yul\":3326:3338   */\n      swap2\n      dup5\n      add\n      swap2\n        /* \"#utility.yul\":3253:3254   */\n      0x01\n        /* \"#utility.yul\":3246:3255   */\n      add\n        /* \"#utility.yul\":3217:3386   */\n      jump(tag_389)\n    tag_391:\n      pop\n        /* \"#utility.yul\":3403:3406   */\n      swap1\n      swap7\n        /* \"#utility.yul\":2780:3412   */\n      swap6\n      pop\n      pop\n      pop\n      pop\n      pop\n      pop\n      jump\t// out\n        /* \"#utility.yul\":3609:4224   */\n    tag_96:\n        /* \"#utility.yul\":3695:3701   */\n      0x00\n        /* \"#utility.yul\":3703:3709   */\n      dup1\n        /* \"#utility.yul\":3756:3758   */\n      0x20\n        /* \"#utility.yul\":3744:3753   */\n      dup4\n        /* \"#utility.yul\":3735:3742   */\n      dup6\n        /* \"#utility.yul\":3731:3754   */\n      sub\n        /* \"#utility.yul\":3727:3759   */\n      slt\n        /* \"#utility.yul\":3724:3776   */\n      iszero\n      tag_394\n      jumpi\n        /* \"#utility.yul\":3772:3773   */\n      0x00\n        /* \"#utility.yul\":3769:3770   */\n      dup1\n        /* \"#utility.yul\":3762:3774   */\n      revert\n        /* \"#utility.yul\":3724:3776   */\n    tag_394:\n        /* \"#utility.yul\":3812:3821   */\n      dup3\n        /* \"#utility.yul\":3799:3822   */\n      calldataload\n        /* \"#utility.yul\":3841:3859   */\n      0xffffffffffffffff\n        /* \"#utility.yul\":3882:3884   */\n      dup1\n        /* \"#utility.yul\":3874:3880   */\n      dup3\n        /* \"#utility.yul\":3871:3885   */\n      gt\n        /* \"#utility.yul\":3868:3902   */\n      iszero\n      tag_395\n      jumpi\n        /* \"#utility.yul\":3898:3899   */\n      0x00\n        /* \"#utility.yul\":3895:3896   */\n      dup1\n        /* \"#utility.yul\":3888:3900   */\n      revert\n        /* \"#utility.yul\":3868:3902   */\n    tag_395:\n        /* \"#utility.yul\":3936:3942   */\n      dup2\n        /* \"#utility.yul\":3925:3934   */\n      dup6\n        /* \"#utility.yul\":3921:3943   */\n      add\n        /* \"#utility.yul\":3911:3943   */\n      swap2\n      pop\n        /* \"#utility.yul\":3981:3988   */\n      dup6\n        /* \"#utility.yul\":3974:3978   */\n      0x1f\n        /* \"#utility.yul\":3970:3972   */\n      dup4\n        /* \"#utility.yul\":3966:3979   */\n      add\n        /* \"#utility.yul\":3962:3989   */\n      slt\n        /* \"#utility.yul\":3952:4007   */\n      tag_396\n      jumpi\n        /* \"#utility.yul\":4003:4004   */\n      0x00\n        /* \"#utility.yul\":4000:4001   */\n      dup1\n        /* \"#utility.yul\":3993:4005   */\n      revert\n        /* \"#utility.yul\":3952:4007   */\n    tag_396:\n        /* \"#utility.yul\":4043:4045   */\n      dup2\n        /* \"#utility.yul\":4030:4046   */\n      calldataload\n        /* \"#utility.yul\":4069:4071   */\n      dup2\n        /* \"#utility.yul\":4061:4067   */\n      dup2\n        /* \"#utility.yul\":4058:4072   */\n      gt\n        /* \"#utility.yul\":4055:4089   */\n      iszero\n      tag_397\n      jumpi\n        /* \"#utility.yul\":4085:4086   */\n      0x00\n        /* \"#utility.yul\":4082:4083   */\n      dup1\n        /* \"#utility.yul\":4075:4087   */\n      revert\n        /* \"#utility.yul\":4055:4089   */\n    tag_397:\n        /* \"#utility.yul\":4138:4145   */\n      dup7\n        /* \"#utility.yul\":4133:4135   */\n      0x20\n        /* \"#utility.yul\":4123:4129   */\n      dup3\n        /* \"#utility.yul\":4120:4121   */\n      0x05\n        /* \"#utility.yul\":4116:4130   */\n      shl\n        /* \"#utility.yul\":4112:4114   */\n      dup6\n        /* \"#utility.yul\":4108:4131   */\n      add\n        /* \"#utility.yul\":4104:4136   */\n      add\n        /* \"#utility.yul\":4101:4146   */\n      gt\n        /* \"#utility.yul\":4098:4163   */\n      iszero\n      tag_398\n      jumpi\n        /* \"#utility.yul\":4159:4160   */\n      0x00\n        /* \"#utility.yul\":4156:4157   */\n      dup1\n        /* \"#utility.yul\":4149:4161   */\n      revert\n        /* \"#utility.yul\":4098:4163   */\n    tag_398:\n        /* \"#utility.yul\":4190:4192   */\n      0x20\n        /* \"#utility.yul\":4182:4193   */\n      swap3\n      swap1\n      swap3\n      add\n      swap7\n        /* \"#utility.yul\":4212:4218   */\n      swap2\n      swap6\n      pop\n        /* \"#utility.yul\":3609:4224   */\n      swap1\n      swap4\n      pop\n      pop\n      pop\n      pop\n      jump\t// out\n        /* \"#utility.yul\":4229:4936   */\n    tag_118:\n        /* \"#utility.yul\":4450:4452   */\n      0x20\n        /* \"#utility.yul\":4502:4523   */\n      dup1\n      dup3\n      mstore\n        /* \"#utility.yul\":4572:4585   */\n      dup3\n      mload\n        /* \"#utility.yul\":4475:4493   */\n      dup3\n      dup3\n      add\n        /* \"#utility.yul\":4594:4616   */\n      dup2\n      swap1\n      mstore\n        /* \"#utility.yul\":4421:4425   */\n      0x00\n      swap2\n        /* \"#utility.yul\":4450:4452   */\n      swap1\n        /* \"#utility.yul\":4673:4688   */\n      dup5\n      dup3\n      add\n      swap1\n        /* \"#utility.yul\":4647:4649   */\n      0x40\n        /* \"#utility.yul\":4632:4650   */\n      dup6\n      add\n      swap1\n        /* \"#utility.yul\":4421:4425   */\n      dup5\n        /* \"#utility.yul\":4716:4910   */\n    tag_400:\n        /* \"#utility.yul\":4730:4736   */\n      dup2\n        /* \"#utility.yul\":4727:4728   */\n      dup2\n        /* \"#utility.yul\":4724:4737   */\n      lt\n        /* \"#utility.yul\":4716:4910   */\n      iszero\n      tag_391\n      jumpi\n        /* \"#utility.yul\":4779:4826   */\n      tag_403\n        /* \"#utility.yul\":4822:4825   */\n      dup4\n        /* \"#utility.yul\":4813:4819   */\n      dup6\n        /* \"#utility.yul\":4807:4820   */\n      mload\n        /* \"#utility.yul\":4779:4826   */\n      tag_362\n      jump\t// in\n    tag_403:\n        /* \"#utility.yul\":4885:4900   */\n      swap3\n      dup5\n      add\n      swap3\n        /* \"#utility.yul\":4855:4861   */\n      0x0100\n        /* \"#utility.yul\":4846:4862   */\n      swap3\n      swap1\n      swap3\n      add\n      swap2\n        /* \"#utility.yul\":4752:4753   */\n      0x01\n        /* \"#utility.yul\":4745:4754   */\n      add\n        /* \"#utility.yul\":4716:4910   */\n      jump(tag_400)\n        /* \"#utility.yul\":4941:5599   */\n    tag_122:\n        /* \"#utility.yul\":5112:5114   */\n      0x20\n        /* \"#utility.yul\":5164:5185   */\n      dup1\n      dup3\n      mstore\n        /* \"#utility.yul\":5234:5247   */\n      dup3\n      mload\n        /* \"#utility.yul\":5137:5155   */\n      dup3\n      dup3\n      add\n        /* \"#utility.yul\":5256:5278   */\n      dup2\n      swap1\n      mstore\n        /* \"#utility.yul\":5083:5087   */\n      0x00\n      swap2\n        /* \"#utility.yul\":5112:5114   */\n      swap1\n        /* \"#utility.yul\":5335:5350   */\n      dup5\n      dup3\n      add\n      swap1\n        /* \"#utility.yul\":5309:5311   */\n      0x40\n        /* \"#utility.yul\":5294:5312   */\n      dup6\n      add\n      swap1\n        /* \"#utility.yul\":5083:5087   */\n      dup5\n        /* \"#utility.yul\":5378:5573   */\n    tag_405:\n        /* \"#utility.yul\":5392:5398   */\n      dup2\n        /* \"#utility.yul\":5389:5390   */\n      dup2\n        /* \"#utility.yul\":5386:5399   */\n      lt\n        /* \"#utility.yul\":5378:5573   */\n      iszero\n      tag_391\n      jumpi\n        /* \"#utility.yul\":5457:5470   */\n      dup4\n      mload\n      sub(shl(0xa0, 0x01), 0x01)\n        /* \"#utility.yul\":5453:5492   */\n      and\n        /* \"#utility.yul\":5441:5493   */\n      dup4\n      mstore\n        /* \"#utility.yul\":5548:5563   */\n      swap3\n      dup5\n      add\n      swap3\n        /* \"#utility.yul\":5513:5525   */\n      swap2\n      dup5\n      add\n      swap2\n        /* \"#utility.yul\":5489:5490   */\n      0x01\n        /* \"#utility.yul\":5407:5416   */\n      add\n        /* \"#utility.yul\":5378:5573   */\n      jump(tag_405)\n        /* \"#utility.yul\":5604:5926   */\n    tag_125:\n        /* \"#utility.yul\":5681:5687   */\n      0x00\n        /* \"#utility.yul\":5689:5695   */\n      dup1\n        /* \"#utility.yul\":5697:5703   */\n      0x00\n        /* \"#utility.yul\":5750:5752   */\n      0x60\n        /* \"#utility.yul\":5738:5747   */\n      dup5\n        /* \"#utility.yul\":5729:5736   */\n      dup7\n        /* \"#utility.yul\":5725:5748   */\n      sub\n        /* \"#utility.yul\":5721:5753   */\n      slt\n        /* \"#utility.yul\":5718:5770   */\n      iszero\n      tag_409\n      jumpi\n        /* \"#utility.yul\":5766:5767   */\n      0x00\n        /* \"#utility.yul\":5763:5764   */\n      dup1\n        /* \"#utility.yul\":5756:5768   */\n      revert\n        /* \"#utility.yul\":5718:5770   */\n    tag_409:\n        /* \"#utility.yul\":5789:5818   */\n      tag_410\n        /* \"#utility.yul\":5808:5817   */\n      dup5\n        /* \"#utility.yul\":5789:5818   */\n      tag_360\n      jump\t// in\n    tag_410:\n        /* \"#utility.yul\":5779:5818   */\n      swap6\n        /* \"#utility.yul\":5865:5867   */\n      0x20\n        /* \"#utility.yul\":5850:5868   */\n      dup6\n      add\n        /* \"#utility.yul\":5837:5869   */\n      calldataload\n      swap6\n      pop\n        /* \"#utility.yul\":5916:5918   */\n      0x40\n        /* \"#utility.yul\":5901:5919   */\n      swap1\n      swap5\n      add\n        /* \"#utility.yul\":5888:5920   */\n      calldataload\n      swap4\n        /* \"#utility.yul\":5604:5926   */\n      swap3\n      pop\n      pop\n      pop\n      jump\t// out\n        /* \"#utility.yul\":5931:6707   */\n    tag_138:\n        /* \"#utility.yul\":6279:6304   */\n      dup9\n      dup2\n      mstore\n      sub(shl(0xa0, 0x01), 0x01)\n        /* \"#utility.yul\":6378:6393   */\n      dup9\n      dup2\n      and\n        /* \"#utility.yul\":6373:6375   */\n      0x20\n        /* \"#utility.yul\":6358:6376   */\n      dup4\n      add\n        /* \"#utility.yul\":6351:6394   */\n      mstore\n        /* \"#utility.yul\":6430:6445   */\n      dup8\n      and\n        /* \"#utility.yul\":6425:6427   */\n      0x40\n        /* \"#utility.yul\":6410:6428   */\n      dup3\n      add\n        /* \"#utility.yul\":6403:6446   */\n      mstore\n        /* \"#utility.yul\":6477:6479   */\n      0x60\n        /* \"#utility.yul\":6462:6480   */\n      dup2\n      add\n        /* \"#utility.yul\":6455:6489   */\n      dup7\n      swap1\n      mstore\n        /* \"#utility.yul\":6520:6523   */\n      0x80\n        /* \"#utility.yul\":6505:6524   */\n      dup2\n      add\n        /* \"#utility.yul\":6498:6533   */\n      dup6\n      swap1\n      mstore\n        /* \"#utility.yul\":6331:6334   */\n      0xa0\n        /* \"#utility.yul\":6549:6568   */\n      dup2\n      add\n        /* \"#utility.yul\":6542:6577   */\n      dup5\n      swap1\n      mstore\n        /* \"#utility.yul\":6266:6269   */\n      0x0100\n        /* \"#utility.yul\":6251:6270   */\n      dup2\n      add\n        /* \"#utility.yul\":6586:6641   */\n      tag_412\n        /* \"#utility.yul\":6636:6639   */\n      0xc0\n        /* \"#utility.yul\":6621:6640   */\n      dup4\n      add\n        /* \"#utility.yul\":6613:6619   */\n      dup6\n        /* \"#utility.yul\":6586:6641   */\n      tag_361\n      jump\t// in\n    tag_412:\n        /* \"#utility.yul\":6692:6698   */\n      dup3\n        /* \"#utility.yul\":6685:6699   */\n      iszero\n        /* \"#utility.yul\":6678:6700   */\n      iszero\n        /* \"#utility.yul\":6672:6675   */\n      0xe0\n        /* \"#utility.yul\":6661:6670   */\n      dup4\n        /* \"#utility.yul\":6657:6676   */\n      add\n        /* \"#utility.yul\":6650:6701   */\n      mstore\n        /* \"#utility.yul\":5931:6707   */\n      swap10\n      swap9\n      pop\n      pop\n      pop\n      pop\n      pop\n      pop\n      pop\n      pop\n      pop\n      jump\t// out\n        /* \"#utility.yul\":6712:6839   */\n    tag_363:\n        /* \"#utility.yul\":6773:6783   */\n      0x4e487b71\n        /* \"#utility.yul\":6768:6771   */\n      0xe0\n        /* \"#utility.yul\":6764:6784   */\n      shl\n        /* \"#utility.yul\":6761:6762   */\n      0x00\n        /* \"#utility.yul\":6754:6785   */\n      mstore\n        /* \"#utility.yul\":6804:6808   */\n      0x11\n        /* \"#utility.yul\":6801:6802   */\n      0x04\n        /* \"#utility.yul\":6794:6809   */\n      mstore\n        /* \"#utility.yul\":6828:6832   */\n      0x24\n        /* \"#utility.yul\":6825:6826   */\n      0x00\n        /* \"#utility.yul\":6818:6833   */\n      revert\n        /* \"#utility.yul\":6844:6972   */\n    tag_144:\n        /* \"#utility.yul\":6911:6920   */\n      dup2\n      dup2\n      sub\n        /* \"#utility.yul\":6932:6943   */\n      dup2\n      dup2\n      gt\n        /* \"#utility.yul\":6929:6966   */\n      iszero\n      tag_175\n      jumpi\n        /* \"#utility.yul\":6946:6964   */\n      tag_175\n      tag_363\n      jump\t// in\n        /* \"#utility.yul\":7539:7666   */\n    tag_213:\n        /* \"#utility.yul\":7600:7610   */\n      0x4e487b71\n        /* \"#utility.yul\":7595:7598   */\n      0xe0\n        /* \"#utility.yul\":7591:7611   */\n      shl\n        /* \"#utility.yul\":7588:7589   */\n      0x00\n        /* \"#utility.yul\":7581:7612   */\n      mstore\n        /* \"#utility.yul\":7631:7635   */\n      0x32\n        /* \"#utility.yul\":7628:7629   */\n      0x04\n        /* \"#utility.yul\":7621:7636   */\n      mstore\n        /* \"#utility.yul\":7655:7659   */\n      0x24\n        /* \"#utility.yul\":7652:7653   */\n      0x00\n        /* \"#utility.yul\":7645:7660   */\n      revert\n        /* \"#utility.yul\":7671:7806   */\n    tag_222:\n        /* \"#utility.yul\":7710:7713   */\n      0x00\n        /* \"#utility.yul\":7731:7748   */\n      0x01\n      dup3\n      add\n        /* \"#utility.yul\":7728:7771   */\n      tag_422\n      jumpi\n        /* \"#utility.yul\":7751:7769   */\n      tag_422\n      tag_363\n      jump\t// in\n    tag_422:\n      pop\n        /* \"#utility.yul\":7798:7799   */\n      0x01\n        /* \"#utility.yul\":7787:7800   */\n      add\n      swap1\n        /* \"#utility.yul\":7671:7806   */\n      jump\t// out\n        /* \"#utility.yul\":7811:7938   */\n    tag_237:\n        /* \"#utility.yul\":7872:7882   */\n      0x4e487b71\n        /* \"#utility.yul\":7867:7870   */\n      0xe0\n        /* \"#utility.yul\":7863:7883   */\n      shl\n        /* \"#utility.yul\":7860:7861   */\n      0x00\n        /* \"#utility.yul\":7853:7884   */\n      mstore\n        /* \"#utility.yul\":7903:7907   */\n      0x41\n        /* \"#utility.yul\":7900:7901   */\n      0x04\n        /* \"#utility.yul\":7893:7908   */\n      mstore\n        /* \"#utility.yul\":7927:7931   */\n      0x24\n        /* \"#utility.yul\":7924:7925   */\n      0x00\n        /* \"#utility.yul\":7917:7932   */\n      revert\n        /* \"#utility.yul\":7943:8127   */\n    tag_279:\n        /* \"#utility.yul\":8013:8019   */\n      0x00\n        /* \"#utility.yul\":8066:8068   */\n      0x20\n        /* \"#utility.yul\":8054:8063   */\n      dup3\n        /* \"#utility.yul\":8045:8052   */\n      dup5\n        /* \"#utility.yul\":8041:8064   */\n      sub\n        /* \"#utility.yul\":8037:8069   */\n      slt\n        /* \"#utility.yul\":8034:8086   */\n      iszero\n      tag_425\n      jumpi\n        /* \"#utility.yul\":8082:8083   */\n      0x00\n        /* \"#utility.yul\":8079:8080   */\n      dup1\n        /* \"#utility.yul\":8072:8084   */\n      revert\n        /* \"#utility.yul\":8034:8086   */\n    tag_425:\n      pop\n        /* \"#utility.yul\":8105:8121   */\n      mload\n      swap2\n        /* \"#utility.yul\":7943:8127   */\n      swap1\n      pop\n      jump\t// out\n        /* \"#utility.yul\":8132:8257   */\n    tag_290:\n        /* \"#utility.yul\":8197:8206   */\n      dup1\n      dup3\n      add\n        /* \"#utility.yul\":8218:8228   */\n      dup1\n      dup3\n      gt\n        /* \"#utility.yul\":8215:8251   */\n      iszero\n      tag_175\n      jumpi\n        /* \"#utility.yul\":8231:8249   */\n      tag_175\n      tag_363\n      jump\t// in\n    stop\n    data_c8669cf8eaf883002b9f48e28846a8d408c9b58ea6613bace374265e43c9bc43 9b779b17422d0df92223018b32b4d1fa46e071723d6817e2486d003becc55f00\n\n    auxdata: 0xa2646970667358221220d42c5bf825bc7a46429dce6a139215f8ef0f5f2db6069a4b44fc2133dcafc8a364736f6c63430008140033\n}\n",
				"bytecode": {
					"linkReferences": {},
					"object": "60a06040523480156200001157600080fd5b5060405162001c1638038062001c168339810160408190526200003491620001e2565b33806200005b57604051631e4fbdf760e01b81526000600482015260240160405180910390fd5b6200006681620000d6565b5060017f9b779b17422d0df92223018b32b4d1fa46e071723d6817e2486d003becc55f00556001600160a01b038116620000b35760405163d92e233d60e01b815260040160405180910390fd5b6001600160a01b038116608052620000cb8162000126565b506001805562000214565b600080546001600160a01b038381166001600160a01b0319831681178455604051919092169283917f8be0079c531659141344cd1fd0a4f28419497f9722a3daafe3b4186f6b6457e09190a35050565b6001600160a01b03811660009081526004602052604090205460ff16620001df576001600160a01b0381166000818152600460209081526040808320805460ff1916600190811790915560058054808301825594527f036b6384b5eca791c62761152d0c79bb0604c104a5fb6f4eb0703f3154bb3db090930180546001600160a01b03191685179055519182527fef81a9943b96c8df4ef243401c9bf5159146166211356898b52d382086168d92910160405180910390a25b50565b600060208284031215620001f557600080fd5b81516001600160a01b03811681146200020d57600080fd5b9392505050565b6080516119d86200023e600039600081816101b30152818161108701526111b501526119d86000f3fe608060405234801561001057600080fd5b50600436106101a95760003560e01c80638a5cd91e116100f9578063d68f4dd111610097578063e2ab691d11610071578063e2ab691d146103b5578063e43252d7146103c8578063f2fde38b146103db578063f4dadc61146103ee57600080fd5b8063d68f4dd11461036d578063dff35c3014610380578063e26f7900146103a057600080fd5b80638da5cb5b116100d35780638da5cb5b14610340578063b1724b4614610351578063b6a6d1771461035b578063d2d18eac1461036557600080fd5b80638a5cd91e146103125780638ab1d6811461031a5780638c10671c1461032d57600080fd5b80634c2cc0a811610166578063715018a611610140578063715018a6146102aa57806371c7552f146102b2578063753d7563146102d25780637e3f71d51461030557600080fd5b80634c2cc0a8146102635780636518a0b3146102765780636842ad901461027f57600080fd5b80630e31648f146101ae5780631b934ce5146101f25780632154bc44146102135780632e1a7d4d1461022657806334e375391461023b5780633e836b3d1461025b575b600080fd5b6101d57f000000000000000000000000000000000000000000000000000000000000000081565b6040516001600160a01b0390911681526020015b60405180910390f35b6102056102003660046115ca565b610465565b6040519081526020016101e9565b6101d56102213660046115ca565b6104d1565b6102396102343660046115ca565b6104fb565b005b61024e6102493660046115ff565b6106ac565b6040516101e991906116ce565b610239610807565b6102056102713660046116dd565b610846565b61020560015481565b61020561028d3660046115ff565b600360209081526000928352604080842090915290825290205481565b610239610877565b6102c56102c0366004611707565b61088b565b6040516101e99190611722565b6102f56102e0366004611707565b60046020526000908152604090205460ff1681565b60405190151581526020016101e9565b6007546102f59060ff1681565b6102396108f7565b610239610328366004611707565b610939565b61023961033b366004611766565b6109be565b6000546001600160a01b03166101d5565b6102056211940081565b6102056201518081565b610205610a4e565b61024e61037b3660046115ca565b610a63565b61039361038e366004611707565b610b1d565b6040516101e991906117db565b6103a8610cf0565b6040516101e9919061181e565b6102056103c336600461185f565b610d52565b6102396103d6366004611707565b611229565b6102396103e9366004611707565b611261565b6104516103fc3660046115ca565b6002602081905260009182526040909120805460018201549282015460038301546004840154600585015460069095015493956001600160a01b03908116959316939192909160ff8082169161010090041688565b6040516101e9989796959493929190611892565b600081815260026020526040812060018101546001600160a01b03166104a65760405163d58d677960e01b8152600481018490526024015b60405180910390fd5b806005015442106104ba5750600092915050565b4281600501546104ca91906118fe565b9392505050565b600581815481106104e157600080fd5b6000918252602090912001546001600160a01b0316905081565b61050361129c565b600081815260026020526040902060018101546001600160a01b031661053f5760405163d58d677960e01b81526004810183905260240161049d565b60018101546001600160a01b0316331461058357600181015460405163070982db60e31b81523360048201526001600160a01b03909116602482015260440161049d565b6002600682015460ff16600281111561059e5761059e611632565b036105bf576040516354225c2b60e01b81526004810183905260240161049d565b80600501544210156105f357600581015460405163605928d960e01b8152600481019190915242602482015260440161049d565b60068101805460ff1916600290811790915533600081815260036020818152604080842095870180546001600160a01b039081168652969092528320929092558401549054610644931691906112b8565b600281015460038201546040519081526001600160a01b0390911690339084907fe5df19de43c8c04fd192bc68e484b2593570925fbb6ad8c07ccafbc2aa5c37a19060200160405180910390a4506106a9600160008051602061198383398151915255565b50565b6106b4611562565b6001600160a01b03808416600090815260036020908152604080832093861683529290529081205490819003610751576040518061010001604052806000815260200160006001600160a01b0316815260200160006001600160a01b0316815260200160008152602001600081526020016000815260200160028081111561073e5761073e611632565b8152600060209091015291506108019050565b6000818152600260208181526040928390208351610100810185528154815260018201546001600160a01b039081169382019390935281840154909216938201939093526003830154606082015260048301546080820152600583015460a0820152600683015490929160c084019160ff16908111156107d3576107d3611632565b60028111156107e4576107e4611632565b815260069190910154610100900460ff1615156020909101529150505b92915050565b61080f6112ed565b6007805460ff1916905560405133907fe4d661cf4dbac198aa48814db275aceae60ebb813370577006f983ac792dd9c390600090a2565b6006602052816000526040600020818154811061086257600080fd5b90600052602060002001600091509150505481565b61087f6112ed565b610889600061131a565b565b6001600160a01b0381166000908152600660209081526040918290208054835181840281018401909452808452606093928301828280156108eb57602002820191906000526020600020905b8154815260200190600101908083116108d7575b50505050509050919050565b6108ff6112ed565b6007805460ff1916600117905560405133907f60d69e86d39426177a4402939d9e1eb94b8afde904ea468ce126a945fa13cef290600090a2565b6109416112ed565b6001600160a01b0381166109685760405163d92e233d60e01b815260040160405180910390fd5b6001600160a01b0381166000818152600460209081526040808320805460ff19169055519182527fef81a9943b96c8df4ef243401c9bf5159146166211356898b52d382086168d9291015b60405180910390a250565b6109c66112ed565b60005b81811015610a495760008383838181106109e5576109e5611911565b90506020020160208101906109fa9190611707565b6001600160a01b031614610a3757610a37838383818110610a1d57610a1d611911565b9050602002016020810190610a329190611707565b61136a565b80610a4181611927565b9150506109c9565b505050565b600060018054610a5e91906118fe565b905090565b610a6b611562565b6000828152600260208181526040928390208351610100810185528154815260018201546001600160a01b039081169382019390935281840154909216938201939093526003830154606082015260048301546080820152600583015460a0820152600683015490929160c084019160ff1690811115610aed57610aed611632565b6002811115610afe57610afe611632565b815260069190910154610100900460ff16151560209091015292915050565b6001600160a01b0381166000908152600660209081526040808320805482518185028101850190935280835260609493830182828015610b7c57602002820191906000526020600020905b815481526020019060010190808311610b68575b50505050509050805167ffffffffffffffff811115610b9d57610b9d611940565b604051908082528060200260200182016040528015610bd657816020015b610bc3611562565b815260200190600190039081610bbb5790505b50915060005b8151811015610ce95760026000838381518110610bfb57610bfb611911565b60209081029190910181015182528181019290925260409081016000208151610100810183528154815260018201546001600160a01b0390811694820194909452600280830154909416928101929092526003810154606083015260048101546080830152600581015460a083015260068101549192909160c084019160ff90911690811115610c8d57610c8d611632565b6002811115610c9e57610c9e611632565b815260069190910154610100900460ff1615156020909101528351849083908110610ccb57610ccb611911565b60200260200101819052508080610ce190611927565b915050610bdc565b5050919050565b60606005805480602002602001604051908101604052809291908181526020018280548015610d4857602002820191906000526020600020905b81546001600160a01b03168152600190910190602001808311610d2a575b5050505050905090565b6000610d5c61129c565b60075460ff1615610d8057604051630bdce99d60e21b815260040160405180910390fd5b6001600160a01b038416610da75760405163d92e233d60e01b815260040160405180910390fd5b82600003610dc857604051631f2a200560e01b815260040160405180910390fd5b6001600160a01b03841660009081526004602052604090205460ff16610e0c5760405163751dff9760e11b81526001600160a01b038516600482015260240161049d565b62015180821015610e3c57604051634086703360e11b81526004810183905262015180602482015260440161049d565b62119400821115610e6c576040516308f08db360e11b81526004810183905262119400602482015260440161049d565b3360009081526003602090815260408083206001600160a01b03881684529091529020548015610ee157600081815260026020526040812090600682015460ff166002811115610ebe57610ebe611632565b03610edf5760405163102a801160e11b81526004810183905260240161049d565b505b6040516370a0823160e01b81523060048201526000906001600160a01b038716906370a0823190602401602060405180830381865afa158015610f28573d6000803e3d6000fd5b505050506040513d601f19601f82011682018060405250810190610f4c9190611956565b9050610f636001600160a01b03871633308861141e565b6040516370a0823160e01b81523060048201526000906001600160a01b038816906370a0823190602401602060405180830381865afa158015610faa573d6000803e3d6000fd5b505050506040513d601f19601f82011682018060405250810190610fce9190611956565b90506000610fdc83836118fe565b905080600003610fff57604051631f2a200560e01b815260040160405180910390fd5b6001805490600061100f83611927565b9091555094506000611021874261196f565b9050604051806101000160405280878152602001336001600160a01b031681526020018a6001600160a01b031681526020018381526020014281526020018281526020016000600281111561107857611078611632565b81526001600160a01b038b81167f0000000000000000000000000000000000000000000000000000000000000000821614602092830152600089815260028084526040918290208551815593850151600180860180549286166001600160a01b031993841617905592860151858301805491909516911617909255606084015160038401556080840151600484015560a0840151600584015560c08401516006840180549193909260ff199092169190849081111561113957611139611632565b021790555060e091909101516006918201805461ff001916610100921515929092029190911790553360008181526003602090815260408083206001600160a01b038f81168086529184528285208d90558585529583528184208054600181018255908552938390209093018b905580518781529182018690527f00000000000000000000000000000000000000000000000000000000000000009094168214818501529251909289917f5029bc3a88a9f0b34b30a3f1ad2d2716e2d4a8ee9cb1eb127f56b1ed8326da969181900360600190a450505050506104ca600160008051602061198383398151915255565b6112316112ed565b6001600160a01b0381166112585760405163d92e233d60e01b815260040160405180910390fd5b6106a98161136a565b6112696112ed565b6001600160a01b03811661129357604051631e4fbdf760e01b81526000600482015260240161049d565b6106a98161131a565b6112a461145a565b600260008051602061198383398151915255565b6112c5838383600161148a565b610a4957604051635274afe760e01b81526001600160a01b038416600482015260240161049d565b6000546001600160a01b031633146108895760405163118cdaa760e01b815233600482015260240161049d565b600080546001600160a01b038381166001600160a01b0319831681178455604051919092169283917f8be0079c531659141344cd1fd0a4f28419497f9722a3daafe3b4186f6b6457e09190a35050565b6001600160a01b03811660009081526004602052604090205460ff166106a9576001600160a01b0381166000818152600460209081526040808320805460ff1916600190811790915560058054808301825594527f036b6384b5eca791c62761152d0c79bb0604c104a5fb6f4eb0703f3154bb3db090930180546001600160a01b03191685179055519182527fef81a9943b96c8df4ef243401c9bf5159146166211356898b52d382086168d9291016109b3565b61142c8484848460016114f0565b61145457604051635274afe760e01b81526001600160a01b038516600482015260240161049d565b50505050565b6000805160206119838339815191525460020361088957604051633ee5aeb560e01b815260040160405180910390fd5b60405163a9059cbb60e01b60008181526001600160a01b038616600452602485905291602083604481808b5af1925060016000511483166114e45783831516156114d7573d6000823e3d81fd5b6000873b113d1516831692505b60405250949350505050565b6040516323b872dd60e01b60008181526001600160a01b038781166004528616602452604485905291602083606481808c5af192506001600051148316611550578383151615611543573d6000823e3d81fd5b6000883b113d1516831692505b60405250600060605295945050505050565b6040518061010001604052806000815260200160006001600160a01b0316815260200160006001600160a01b03168152602001600081526020016000815260200160008152602001600060028111156115bd576115bd611632565b8152600060209091015290565b6000602082840312156115dc57600080fd5b5035919050565b80356001600160a01b03811681146115fa57600080fd5b919050565b6000806040838503121561161257600080fd5b61161b836115e3565b9150611629602084016115e3565b90509250929050565b634e487b7160e01b600052602160045260246000fd5b6003811061166657634e487b7160e01b600052602160045260246000fd5b9052565b80518252602081015160018060a01b0380821660208501528060408401511660408501525050606081015160608301526080810151608083015260a081015160a083015260c08101516116c060c0840182611648565b5060e0908101511515910152565b6101008101610801828461166a565b600080604083850312156116f057600080fd5b6116f9836115e3565b946020939093013593505050565b60006020828403121561171957600080fd5b6104ca826115e3565b6020808252825182820181905260009190848201906040850190845b8181101561175a5783518352928401929184019160010161173e565b50909695505050505050565b6000806020838503121561177957600080fd5b823567ffffffffffffffff8082111561179157600080fd5b818501915085601f8301126117a557600080fd5b8135818111156117b457600080fd5b8660208260051b85010111156117c957600080fd5b60209290920196919550909350505050565b6020808252825182820181905260009190848201906040850190845b8181101561175a5761180a83855161166a565b9284019261010092909201916001016117f7565b6020808252825182820181905260009190848201906040850190845b8181101561175a5783516001600160a01b03168352928401929184019160010161183a565b60008060006060848603121561187457600080fd5b61187d846115e3565b95602085013595506040909401359392505050565b8881526001600160a01b03888116602083015287166040820152606081018690526080810185905260a0810184905261010081016118d360c0830185611648565b82151560e08301529998505050505050505050565b634e487b7160e01b600052601160045260246000fd5b81810381811115610801576108016118e8565b634e487b7160e01b600052603260045260246000fd5b600060018201611939576119396118e8565b5060010190565b634e487b7160e01b600052604160045260246000fd5b60006020828403121561196857600080fd5b5051919050565b80820180821115610801576108016118e856fe9b779b17422d0df92223018b32b4d1fa46e071723d6817e2486d003becc55f00a2646970667358221220d42c5bf825bc7a46429dce6a139215f8ef0f5f2db6069a4b44fc2133dcafc8a364736f6c63430008140033",
					"opcodes": "PUSH1 0xA0 PUSH1 0x40 MSTORE CALLVALUE DUP1 ISZERO PUSH3 0x11 JUMPI PUSH1 0x0 DUP1 REVERT JUMPDEST POP PUSH1 0x40 MLOAD PUSH3 0x1C16 CODESIZE SUB DUP1 PUSH3 0x1C16 DUP4 CODECOPY DUP2 ADD PUSH1 0x40 DUP2 SWAP1 MSTORE PUSH3 0x34 SWAP2 PUSH3 0x1E2 JUMP JUMPDEST CALLER DUP1 PUSH3 0x5B JUMPI PUSH1 0x40 MLOAD PUSH4 0x1E4FBDF7 PUSH1 0xE0 SHL DUP2 MSTORE PUSH1 0x0 PUSH1 0x4 DUP3 ADD MSTORE PUSH1 0x24 ADD PUSH1 0x40 MLOAD DUP1 SWAP2 SUB SWAP1 REVERT JUMPDEST PUSH3 0x66 DUP2 PUSH3 0xD6 JUMP JUMPDEST POP PUSH1 0x1 PUSH32 0x9B779B17422D0DF92223018B32B4D1FA46E071723D6817E2486D003BECC55F00 SSTORE PUSH1 0x1 PUSH1 0x1 PUSH1 0xA0 SHL SUB DUP2 AND PUSH3 0xB3 JUMPI PUSH1 0x40 MLOAD PUSH4 0xD92E233D PUSH1 0xE0 SHL DUP2 MSTORE PUSH1 0x4 ADD PUSH1 0x40 MLOAD DUP1 SWAP2 SUB SWAP1 REVERT JUMPDEST PUSH1 0x1 PUSH1 0x1 PUSH1 0xA0 SHL SUB DUP2 AND PUSH1 0x80 MSTORE PUSH3 0xCB DUP2 PUSH3 0x126 JUMP JUMPDEST POP PUSH1 0x1 DUP1 SSTORE PUSH3 0x214 JUMP JUMPDEST PUSH1 0x0 DUP1 SLOAD PUSH1 0x1 PUSH1 0x1 PUSH1 0xA0 SHL SUB DUP4 DUP2 AND PUSH1 0x1 PUSH1 0x1 PUSH1 0xA0 SHL SUB NOT DUP4 AND DUP2 OR DUP5 SSTORE PUSH1 0x40 MLOAD SWAP2 SWAP1 SWAP3 AND SWAP3 DUP4 SWAP2 PUSH32 0x8BE0079C531659141344CD1FD0A4F28419497F9722A3DAAFE3B4186F6B6457E0 SWAP2 SWAP1 LOG3 POP POP JUMP JUMPDEST PUSH1 0x1 PUSH1 0x1 PUSH1 0xA0 SHL SUB DUP2 AND PUSH1 0x0 SWAP1 DUP2 MSTORE PUSH1 0x4 PUSH1 0x20 MSTORE PUSH1 0x40 SWAP1 KECCAK256 SLOAD PUSH1 0xFF AND PUSH3 0x1DF JUMPI PUSH1 0x1 PUSH1 0x1 PUSH1 0xA0 SHL SUB DUP2 AND PUSH1 0x0 DUP2 DUP2 MSTORE PUSH1 0x4 PUSH1 0x20 SWAP1 DUP2 MSTORE PUSH1 0x40 DUP1 DUP4 KECCAK256 DUP1 SLOAD PUSH1 0xFF NOT AND PUSH1 0x1 SWAP1 DUP2 OR SWAP1 SWAP2 SSTORE PUSH1 0x5 DUP1 SLOAD DUP1 DUP4 ADD DUP3 SSTORE SWAP5 MSTORE PUSH32 0x36B6384B5ECA791C62761152D0C79BB0604C104A5FB6F4EB0703F3154BB3DB0 SWAP1 SWAP4 ADD DUP1 SLOAD PUSH1 0x1 PUSH1 0x1 PUSH1 0xA0 SHL SUB NOT AND DUP6 OR SWAP1 SSTORE MLOAD SWAP2 DUP3 MSTORE PUSH32 0xEF81A9943B96C8DF4EF243401C9BF5159146166211356898B52D382086168D92 SWAP2 ADD PUSH1 0x40 MLOAD DUP1 SWAP2 SUB SWAP1 LOG2 JUMPDEST POP JUMP JUMPDEST PUSH1 0x0 PUSH1 0x20 DUP3 DUP5 SUB SLT ISZERO PUSH3 0x1F5 JUMPI PUSH1 0x0 DUP1 REVERT JUMPDEST DUP2 MLOAD PUSH1 0x1 PUSH1 0x1 PUSH1 0xA0 SHL SUB DUP2 AND DUP2 EQ PUSH3 0x20D JUMPI PUSH1 0x0 DUP1 REVERT JUMPDEST SWAP4 SWAP3 POP POP POP JUMP JUMPDEST PUSH1 0x80 MLOAD PUSH2 0x19D8 PUSH3 0x23E PUSH1 0x0 CODECOPY PUSH1 0x0 DUP2 DUP2 PUSH2 0x1B3 ADD MSTORE DUP2 DUP2 PUSH2 0x1087 ADD MSTORE PUSH2 0x11B5 ADD MSTORE PUSH2 0x19D8 PUSH1 0x0 RETURN INVALID PUSH1 0x80 PUSH1 0x40 MSTORE CALLVALUE DUP1 ISZERO PUSH2 0x10 JUMPI PUSH1 0x0 DUP1 REVERT JUMPDEST POP PUSH1 0x4 CALLDATASIZE LT PUSH2 0x1A9 JUMPI PUSH1 0x0 CALLDATALOAD PUSH1 0xE0 SHR DUP1 PUSH4 0x8A5CD91E GT PUSH2 0xF9 JUMPI DUP1 PUSH4 0xD68F4DD1 GT PUSH2 0x97 JUMPI DUP1 PUSH4 0xE2AB691D GT PUSH2 0x71 JUMPI DUP1 PUSH4 0xE2AB691D EQ PUSH2 0x3B5 JUMPI DUP1 PUSH4 0xE43252D7 EQ PUSH2 0x3C8 JUMPI DUP1 PUSH4 0xF2FDE38B EQ PUSH2 0x3DB JUMPI DUP1 PUSH4 0xF4DADC61 EQ PUSH2 0x3EE JUMPI PUSH1 0x0 DUP1 REVERT JUMPDEST DUP1 PUSH4 0xD68F4DD1 EQ PUSH2 0x36D JUMPI DUP1 PUSH4 0xDFF35C30 EQ PUSH2 0x380 JUMPI DUP1 PUSH4 0xE26F7900 EQ PUSH2 0x3A0 JUMPI PUSH1 0x0 DUP1 REVERT JUMPDEST DUP1 PUSH4 0x8DA5CB5B GT PUSH2 0xD3 JUMPI DUP1 PUSH4 0x8DA5CB5B EQ PUSH2 0x340 JUMPI DUP1 PUSH4 0xB1724B46 EQ PUSH2 0x351 JUMPI DUP1 PUSH4 0xB6A6D177 EQ PUSH2 0x35B JUMPI DUP1 PUSH4 0xD2D18EAC EQ PUSH2 0x365 JUMPI PUSH1 0x0 DUP1 REVERT JUMPDEST DUP1 PUSH4 0x8A5CD91E EQ PUSH2 0x312 JUMPI DUP1 PUSH4 0x8AB1D681 EQ PUSH2 0x31A JUMPI DUP1 PUSH4 0x8C10671C EQ PUSH2 0x32D JUMPI PUSH1 0x0 DUP1 REVERT JUMPDEST DUP1 PUSH4 0x4C2CC0A8 GT PUSH2 0x166 JUMPI DUP1 PUSH4 0x715018A6 GT PUSH2 0x140 JUMPI DUP1 PUSH4 0x715018A6 EQ PUSH2 0x2AA JUMPI DUP1 PUSH4 0x71C7552F EQ PUSH2 0x2B2 JUMPI DUP1 PUSH4 0x753D7563 EQ PUSH2 0x2D2 JUMPI DUP1 PUSH4 0x7E3F71D5 EQ PUSH2 0x305 JUMPI PUSH1 0x0 DUP1 REVERT JUMPDEST DUP1 PUSH4 0x4C2CC0A8 EQ PUSH2 0x263 JUMPI DUP1 PUSH4 0x6518A0B3 EQ PUSH2 0x276 JUMPI DUP1 PUSH4 0x6842AD90 EQ PUSH2 0x27F JUMPI PUSH1 0x0 DUP1 REVERT JUMPDEST DUP1 PUSH4 0xE31648F EQ PUSH2 0x1AE JUMPI DUP1 PUSH4 0x1B934CE5 EQ PUSH2 0x1F2 JUMPI DUP1 PUSH4 0x2154BC44 EQ PUSH2 0x213 JUMPI DUP1 PUSH4 0x2E1A7D4D EQ PUSH2 0x226 JUMPI DUP1 PUSH4 0x34E37539 EQ PUSH2 0x23B JUMPI DUP1 PUSH4 0x3E836B3D EQ PUSH2 0x25B JUMPI JUMPDEST PUSH1 0x0 DUP1 REVERT JUMPDEST PUSH2 0x1D5 PUSH32 0x0 DUP2 JUMP JUMPDEST PUSH1 0x40 MLOAD PUSH1 0x1 PUSH1 0x1 PUSH1 0xA0 SHL SUB SWAP1 SWAP2 AND DUP2 MSTORE PUSH1 0x20 ADD JUMPDEST PUSH1 0x40 MLOAD DUP1 SWAP2 SUB SWAP1 RETURN JUMPDEST PUSH2 0x205 PUSH2 0x200 CALLDATASIZE PUSH1 0x4 PUSH2 0x15CA JUMP JUMPDEST PUSH2 0x465 JUMP JUMPDEST PUSH1 0x40 MLOAD SWAP1 DUP2 MSTORE PUSH1 0x20 ADD PUSH2 0x1E9 JUMP JUMPDEST PUSH2 0x1D5 PUSH2 0x221 CALLDATASIZE PUSH1 0x4 PUSH2 0x15CA JUMP JUMPDEST PUSH2 0x4D1 JUMP JUMPDEST PUSH2 0x239 PUSH2 0x234 CALLDATASIZE PUSH1 0x4 PUSH2 0x15CA JUMP JUMPDEST PUSH2 0x4FB JUMP JUMPDEST STOP JUMPDEST PUSH2 0x24E PUSH2 0x249 CALLDATASIZE PUSH1 0x4 PUSH2 0x15FF JUMP JUMPDEST PUSH2 0x6AC JUMP JUMPDEST PUSH1 0x40 MLOAD PUSH2 0x1E9 SWAP2 SWAP1 PUSH2 0x16CE JUMP JUMPDEST PUSH2 0x239 PUSH2 0x807 JUMP JUMPDEST PUSH2 0x205 PUSH2 0x271 CALLDATASIZE PUSH1 0x4 PUSH2 0x16DD JUMP JUMPDEST PUSH2 0x846 JUMP JUMPDEST PUSH2 0x205 PUSH1 0x1 SLOAD DUP2 JUMP JUMPDEST PUSH2 0x205 PUSH2 0x28D CALLDATASIZE PUSH1 0x4 PUSH2 0x15FF JUMP JUMPDEST PUSH1 0x3 PUSH1 0x20 SWAP1 DUP2 MSTORE PUSH1 0x0 SWAP3 DUP4 MSTORE PUSH1 0x40 DUP1 DUP5 KECCAK256 SWAP1 SWAP2 MSTORE SWAP1 DUP3 MSTORE SWAP1 KECCAK256 SLOAD DUP2 JUMP JUMPDEST PUSH2 0x239 PUSH2 0x877 JUMP JUMPDEST PUSH2 0x2C5 PUSH2 0x2C0 CALLDATASIZE PUSH1 0x4 PUSH2 0x1707 JUMP JUMPDEST PUSH2 0x88B JUMP JUMPDEST PUSH1 0x40 MLOAD PUSH2 0x1E9 SWAP2 SWAP1 PUSH2 0x1722 JUMP JUMPDEST PUSH2 0x2F5 PUSH2 0x2E0 CALLDATASIZE PUSH1 0x4 PUSH2 0x1707 JUMP JUMPDEST PUSH1 0x4 PUSH1 0x20 MSTORE PUSH1 0x0 SWAP1 DUP2 MSTORE PUSH1 0x40 SWAP1 KECCAK256 SLOAD PUSH1 0xFF AND DUP2 JUMP JUMPDEST PUSH1 0x40 MLOAD SWAP1 ISZERO ISZERO DUP2 MSTORE PUSH1 0x20 ADD PUSH2 0x1E9 JUMP JUMPDEST PUSH1 0x7 SLOAD PUSH2 0x2F5 SWAP1 PUSH1 0xFF AND DUP2 JUMP JUMPDEST PUSH2 0x239 PUSH2 0x8F7 JUMP JUMPDEST PUSH2 0x239 PUSH2 0x328 CALLDATASIZE PUSH1 0x4 PUSH2 0x1707 JUMP JUMPDEST PUSH2 0x939 JUMP JUMPDEST PUSH2 0x239 PUSH2 0x33B CALLDATASIZE PUSH1 0x4 PUSH2 0x1766 JUMP JUMPDEST PUSH2 0x9BE JUMP JUMPDEST PUSH1 0x0 SLOAD PUSH1 0x1 PUSH1 0x1 PUSH1 0xA0 SHL SUB AND PUSH2 0x1D5 JUMP JUMPDEST PUSH2 0x205 PUSH3 0x119400 DUP2 JUMP JUMPDEST PUSH2 0x205 PUSH3 0x15180 DUP2 JUMP JUMPDEST PUSH2 0x205 PUSH2 0xA4E JUMP JUMPDEST PUSH2 0x24E PUSH2 0x37B CALLDATASIZE PUSH1 0x4 PUSH2 0x15CA JUMP JUMPDEST PUSH2 0xA63 JUMP JUMPDEST PUSH2 0x393 PUSH2 0x38E CALLDATASIZE PUSH1 0x4 PUSH2 0x1707 JUMP JUMPDEST PUSH2 0xB1D JUMP JUMPDEST PUSH1 0x40 MLOAD PUSH2 0x1E9 SWAP2 SWAP1 PUSH2 0x17DB JUMP JUMPDEST PUSH2 0x3A8 PUSH2 0xCF0 JUMP JUMPDEST PUSH1 0x40 MLOAD PUSH2 0x1E9 SWAP2 SWAP1 PUSH2 0x181E JUMP JUMPDEST PUSH2 0x205 PUSH2 0x3C3 CALLDATASIZE PUSH1 0x4 PUSH2 0x185F JUMP JUMPDEST PUSH2 0xD52 JUMP JUMPDEST PUSH2 0x239 PUSH2 0x3D6 CALLDATASIZE PUSH1 0x4 PUSH2 0x1707 JUMP JUMPDEST PUSH2 0x1229 JUMP JUMPDEST PUSH2 0x239 PUSH2 0x3E9 CALLDATASIZE PUSH1 0x4 PUSH2 0x1707 JUMP JUMPDEST PUSH2 0x1261 JUMP JUMPDEST PUSH2 0x451 PUSH2 0x3FC CALLDATASIZE PUSH1 0x4 PUSH2 0x15CA JUMP JUMPDEST PUSH1 0x2 PUSH1 0x20 DUP2 SWAP1 MSTORE PUSH1 0x0 SWAP2 DUP3 MSTORE PUSH1 0x40 SWAP1 SWAP2 KECCAK256 DUP1 SLOAD PUSH1 0x1 DUP3 ADD SLOAD SWAP3 DUP3 ADD SLOAD PUSH1 0x3 DUP4 ADD SLOAD PUSH1 0x4 DUP5 ADD SLOAD PUSH1 0x5 DUP6 ADD SLOAD PUSH1 0x6 SWAP1 SWAP6 ADD SLOAD SWAP4 SWAP6 PUSH1 0x1 PUSH1 0x1 PUSH1 0xA0 SHL SUB SWAP1 DUP2 AND SWAP6 SWAP4 AND SWAP4 SWAP2 SWAP3 SWAP1 SWAP2 PUSH1 0xFF DUP1 DUP3 AND SWAP2 PUSH2 0x100 SWAP1 DIV AND DUP9 JUMP JUMPDEST PUSH1 0x40 MLOAD PUSH2 0x1E9 SWAP9 SWAP8 SWAP7 SWAP6 SWAP5 SWAP4 SWAP3 SWAP2 SWAP1 PUSH2 0x1892 JUMP JUMPDEST PUSH1 0x0 DUP2 DUP2 MSTORE PUSH1 0x2 PUSH1 0x20 MSTORE PUSH1 0x40 DUP2 KECCAK256 PUSH1 0x1 DUP2 ADD SLOAD PUSH1 0x1 PUSH1 0x1 PUSH1 0xA0 SHL SUB AND PUSH2 0x4A6 JUMPI PUSH1 0x40 MLOAD PUSH4 0xD58D6779 PUSH1 0xE0 SHL DUP2 MSTORE PUSH1 0x4 DUP2 ADD DUP5 SWAP1 MSTORE PUSH1 0x24 ADD JUMPDEST PUSH1 0x40 MLOAD DUP1 SWAP2 SUB SWAP1 REVERT JUMPDEST DUP1 PUSH1 0x5 ADD SLOAD TIMESTAMP LT PUSH2 0x4BA JUMPI POP PUSH1 0x0 SWAP3 SWAP2 POP POP JUMP JUMPDEST TIMESTAMP DUP2 PUSH1 0x5 ADD SLOAD PUSH2 0x4CA SWAP2 SWAP1 PUSH2 0x18FE JUMP JUMPDEST SWAP4 SWAP3 POP POP POP JUMP JUMPDEST PUSH1 0x5 DUP2 DUP2 SLOAD DUP2 LT PUSH2 0x4E1 JUMPI PUSH1 0x0 DUP1 REVERT JUMPDEST PUSH1 0x0 SWAP2 DUP3 MSTORE PUSH1 0x20 SWAP1 SWAP2 KECCAK256 ADD SLOAD PUSH1 0x1 PUSH1 0x1 PUSH1 0xA0 SHL SUB AND SWAP1 POP DUP2 JUMP JUMPDEST PUSH2 0x503 PUSH2 0x129C JUMP JUMPDEST PUSH1 0x0 DUP2 DUP2 MSTORE PUSH1 0x2 PUSH1 0x20 MSTORE PUSH1 0x40 SWAP1 KECCAK256 PUSH1 0x1 DUP2 ADD SLOAD PUSH1 0x1 PUSH1 0x1 PUSH1 0xA0 SHL SUB AND PUSH2 0x53F JUMPI PUSH1 0x40 MLOAD PUSH4 0xD58D6779 PUSH1 0xE0 SHL DUP2 MSTORE PUSH1 0x4 DUP2 ADD DUP4 SWAP1 MSTORE PUSH1 0x24 ADD PUSH2 0x49D JUMP JUMPDEST PUSH1 0x1 DUP2 ADD SLOAD PUSH1 0x1 PUSH1 0x1 PUSH1 0xA0 SHL SUB AND CALLER EQ PUSH2 0x583 JUMPI PUSH1 0x1 DUP2 ADD SLOAD PUSH1 0x40 MLOAD PUSH4 0x70982DB PUSH1 0xE3 SHL DUP2 MSTORE CALLER PUSH1 0x4 DUP3 ADD MSTORE PUSH1 0x1 PUSH1 0x1 PUSH1 0xA0 SHL SUB SWAP1 SWAP2 AND PUSH1 0x24 DUP3 ADD MSTORE PUSH1 0x44 ADD PUSH2 0x49D JUMP JUMPDEST PUSH1 0x2 PUSH1 0x6 DUP3 ADD SLOAD PUSH1 0xFF AND PUSH1 0x2 DUP2 GT ISZERO PUSH2 0x59E JUMPI PUSH2 0x59E PUSH2 0x1632 JUMP JUMPDEST SUB PUSH2 0x5BF JUMPI PUSH1 0x40 MLOAD PUSH4 0x54225C2B PUSH1 0xE0 SHL DUP2 MSTORE PUSH1 0x4 DUP2 ADD DUP4 SWAP1 MSTORE PUSH1 0x24 ADD PUSH2 0x49D JUMP JUMPDEST DUP1 PUSH1 0x5 ADD SLOAD TIMESTAMP LT ISZERO PUSH2 0x5F3 JUMPI PUSH1 0x5 DUP2 ADD SLOAD PUSH1 0x40 MLOAD PUSH4 0x605928D9 PUSH1 0xE0 SHL DUP2 MSTORE PUSH1 0x4 DUP2 ADD SWAP2 SWAP1 SWAP2 MSTORE TIMESTAMP PUSH1 0x24 DUP3 ADD MSTORE PUSH1 0x44 ADD PUSH2 0x49D JUMP JUMPDEST PUSH1 0x6 DUP2 ADD DUP1 SLOAD PUSH1 0xFF NOT AND PUSH1 0x2 SWAP1 DUP2 OR SWAP1 SWAP2 SSTORE CALLER PUSH1 0x0 DUP2 DUP2 MSTORE PUSH1 0x3 PUSH1 0x20 DUP2 DUP2 MSTORE PUSH1 0x40 DUP1 DUP5 KECCAK256 SWAP6 DUP8 ADD DUP1 SLOAD PUSH1 0x1 PUSH1 0x1 PUSH1 0xA0 SHL SUB SWAP1 DUP2 AND DUP7 MSTORE SWAP7 SWAP1 SWAP3 MSTORE DUP4 KECCAK256 SWAP3 SWAP1 SWAP3 SSTORE DUP5 ADD SLOAD SWAP1 SLOAD PUSH2 0x644 SWAP4 AND SWAP2 SWAP1 PUSH2 0x12B8 JUMP JUMPDEST PUSH1 0x2 DUP2 ADD SLOAD PUSH1 0x3 DUP3 ADD SLOAD PUSH1 0x40 MLOAD SWAP1 DUP2 MSTORE PUSH1 0x1 PUSH1 0x1 PUSH1 0xA0 SHL SUB SWAP1 SWAP2 AND SWAP1 CALLER SWAP1 DUP5 SWAP1 PUSH32 0xE5DF19DE43C8C04FD192BC68E484B2593570925FBB6AD8C07CCAFBC2AA5C37A1 SWAP1 PUSH1 0x20 ADD PUSH1 0x40 MLOAD DUP1 SWAP2 SUB SWAP1 LOG4 POP PUSH2 0x6A9 PUSH1 0x1 PUSH1 0x0 DUP1 MLOAD PUSH1 0x20 PUSH2 0x1983 DUP4 CODECOPY DUP2 MLOAD SWAP2 MSTORE SSTORE JUMP JUMPDEST POP JUMP JUMPDEST PUSH2 0x6B4 PUSH2 0x1562 JUMP JUMPDEST PUSH1 0x1 PUSH1 0x1 PUSH1 0xA0 SHL SUB DUP1 DUP5 AND PUSH1 0x0 SWAP1 DUP2 MSTORE PUSH1 0x3 PUSH1 0x20 SWAP1 DUP2 MSTORE PUSH1 0x40 DUP1 DUP4 KECCAK256 SWAP4 DUP7 AND DUP4 MSTORE SWAP3 SWAP1 MSTORE SWAP1 DUP2 KECCAK256 SLOAD SWAP1 DUP2 SWAP1 SUB PUSH2 0x751 JUMPI PUSH1 0x40 MLOAD DUP1 PUSH2 0x100 ADD PUSH1 0x40 MSTORE DUP1 PUSH1 0x0 DUP2 MSTORE PUSH1 0x20 ADD PUSH1 0x0 PUSH1 0x1 PUSH1 0x1 PUSH1 0xA0 SHL SUB AND DUP2 MSTORE PUSH1 0x20 ADD PUSH1 0x0 PUSH1 0x1 PUSH1 0x1 PUSH1 0xA0 SHL SUB AND DUP2 MSTORE PUSH1 0x20 ADD PUSH1 0x0 DUP2 MSTORE PUSH1 0x20 ADD PUSH1 0x0 DUP2 MSTORE PUSH1 0x20 ADD PUSH1 0x0 DUP2 MSTORE PUSH1 0x20 ADD PUSH1 0x2 DUP1 DUP2 GT ISZERO PUSH2 0x73E JUMPI PUSH2 0x73E PUSH2 0x1632 JUMP JUMPDEST DUP2 MSTORE PUSH1 0x0 PUSH1 0x20 SWAP1 SWAP2 ADD MSTORE SWAP2 POP PUSH2 0x801 SWAP1 POP JUMP JUMPDEST PUSH1 0x0 DUP2 DUP2 MSTORE PUSH1 0x2 PUSH1 0x20 DUP2 DUP2 MSTORE PUSH1 0x40 SWAP3 DUP4 SWAP1 KECCAK256 DUP4 MLOAD PUSH2 0x100 DUP2 ADD DUP6 MSTORE DUP2 SLOAD DUP2 MSTORE PUSH1 0x1 DUP3 ADD SLOAD PUSH1 0x1 PUSH1 0x1 PUSH1 0xA0 SHL SUB SWAP1 DUP2 AND SWAP4 DUP3 ADD SWAP4 SWAP1 SWAP4 MSTORE DUP2 DUP5 ADD SLOAD SWAP1 SWAP3 AND SWAP4 DUP3 ADD SWAP4 SWAP1 SWAP4 MSTORE PUSH1 0x3 DUP4 ADD SLOAD PUSH1 0x60 DUP3 ADD MSTORE PUSH1 0x4 DUP4 ADD SLOAD PUSH1 0x80 DUP3 ADD MSTORE PUSH1 0x5 DUP4 ADD SLOAD PUSH1 0xA0 DUP3 ADD MSTORE PUSH1 0x6 DUP4 ADD SLOAD SWAP1 SWAP3 SWAP2 PUSH1 0xC0 DUP5 ADD SWAP2 PUSH1 0xFF AND SWAP1 DUP2 GT ISZERO PUSH2 0x7D3 JUMPI PUSH2 0x7D3 PUSH2 0x1632 JUMP JUMPDEST PUSH1 0x2 DUP2 GT ISZERO PUSH2 0x7E4 JUMPI PUSH2 0x7E4 PUSH2 0x1632 JUMP JUMPDEST DUP2 MSTORE PUSH1 0x6 SWAP2 SWAP1 SWAP2 ADD SLOAD PUSH2 0x100 SWAP1 DIV PUSH1 0xFF AND ISZERO ISZERO PUSH1 0x20 SWAP1 SWAP2 ADD MSTORE SWAP2 POP POP JUMPDEST SWAP3 SWAP2 POP POP JUMP JUMPDEST PUSH2 0x80F PUSH2 0x12ED JUMP JUMPDEST PUSH1 0x7 DUP1 SLOAD PUSH1 0xFF NOT AND SWAP1 SSTORE PUSH1 0x40 MLOAD CALLER SWAP1 PUSH32 0xE4D661CF4DBAC198AA48814DB275ACEAE60EBB813370577006F983AC792DD9C3 SWAP1 PUSH1 0x0 SWAP1 LOG2 JUMP JUMPDEST PUSH1 0x6 PUSH1 0x20 MSTORE DUP2 PUSH1 0x0 MSTORE PUSH1 0x40 PUSH1 0x0 KECCAK256 DUP2 DUP2 SLOAD DUP2 LT PUSH2 0x862 JUMPI PUSH1 0x0 DUP1 REVERT JUMPDEST SWAP1 PUSH1 0x0 MSTORE PUSH1 0x20 PUSH1 0x0 KECCAK256 ADD PUSH1 0x0 SWAP2 POP SWAP2 POP POP SLOAD DUP2 JUMP JUMPDEST PUSH2 0x87F PUSH2 0x12ED JUMP JUMPDEST PUSH2 0x889 PUSH1 0x0 PUSH2 0x131A JUMP JUMPDEST JUMP JUMPDEST PUSH1 0x1 PUSH1 0x1 PUSH1 0xA0 SHL SUB DUP2 AND PUSH1 0x0 SWAP1 DUP2 MSTORE PUSH1 0x6 PUSH1 0x20 SWAP1 DUP2 MSTORE PUSH1 0x40 SWAP2 DUP3 SWAP1 KECCAK256 DUP1 SLOAD DUP4 MLOAD DUP2 DUP5 MUL DUP2 ADD DUP5 ADD SWAP1 SWAP5 MSTORE DUP1 DUP5 MSTORE PUSH1 0x60 SWAP4 SWAP3 DUP4 ADD DUP3 DUP3 DUP1 ISZERO PUSH2 0x8EB JUMPI PUSH1 0x20 MUL DUP3 ADD SWAP2 SWAP1 PUSH1 0x0 MSTORE PUSH1 0x20 PUSH1 0x0 KECCAK256 SWAP1 JUMPDEST DUP2 SLOAD DUP2 MSTORE PUSH1 0x20 ADD SWAP1 PUSH1 0x1 ADD SWAP1 DUP1 DUP4 GT PUSH2 0x8D7 JUMPI JUMPDEST POP POP POP POP POP SWAP1 POP SWAP2 SWAP1 POP JUMP JUMPDEST PUSH2 0x8FF PUSH2 0x12ED JUMP JUMPDEST PUSH1 0x7 DUP1 SLOAD PUSH1 0xFF NOT AND PUSH1 0x1 OR SWAP1 SSTORE PUSH1 0x40 MLOAD CALLER SWAP1 PUSH32 0x60D69E86D39426177A4402939D9E1EB94B8AFDE904EA468CE126A945FA13CEF2 SWAP1 PUSH1 0x0 SWAP1 LOG2 JUMP JUMPDEST PUSH2 0x941 PUSH2 0x12ED JUMP JUMPDEST PUSH1 0x1 PUSH1 0x1 PUSH1 0xA0 SHL SUB DUP2 AND PUSH2 0x968 JUMPI PUSH1 0x40 MLOAD PUSH4 0xD92E233D PUSH1 0xE0 SHL DUP2 MSTORE PUSH1 0x4 ADD PUSH1 0x40 MLOAD DUP1 SWAP2 SUB SWAP1 REVERT JUMPDEST PUSH1 0x1 PUSH1 0x1 PUSH1 0xA0 SHL SUB DUP2 AND PUSH1 0x0 DUP2 DUP2 MSTORE PUSH1 0x4 PUSH1 0x20 SWAP1 DUP2 MSTORE PUSH1 0x40 DUP1 DUP4 KECCAK256 DUP1 SLOAD PUSH1 0xFF NOT AND SWAP1 SSTORE MLOAD SWAP2 DUP3 MSTORE PUSH32 0xEF81A9943B96C8DF4EF243401C9BF5159146166211356898B52D382086168D92 SWAP2 ADD JUMPDEST PUSH1 0x40 MLOAD DUP1 SWAP2 SUB SWAP1 LOG2 POP JUMP JUMPDEST PUSH2 0x9C6 PUSH2 0x12ED JUMP JUMPDEST PUSH1 0x0 JUMPDEST DUP2 DUP2 LT ISZERO PUSH2 0xA49 JUMPI PUSH1 0x0 DUP4 DUP4 DUP4 DUP2 DUP2 LT PUSH2 0x9E5 JUMPI PUSH2 0x9E5 PUSH2 0x1911 JUMP JUMPDEST SWAP1 POP PUSH1 0x20 MUL ADD PUSH1 0x20 DUP2 ADD SWAP1 PUSH2 0x9FA SWAP2 SWAP1 PUSH2 0x1707 JUMP JUMPDEST PUSH1 0x1 PUSH1 0x1 PUSH1 0xA0 SHL SUB AND EQ PUSH2 0xA37 JUMPI PUSH2 0xA37 DUP4 DUP4 DUP4 DUP2 DUP2 LT PUSH2 0xA1D JUMPI PUSH2 0xA1D PUSH2 0x1911 JUMP JUMPDEST SWAP1 POP PUSH1 0x20 MUL ADD PUSH1 0x20 DUP2 ADD SWAP1 PUSH2 0xA32 SWAP2 SWAP1 PUSH2 0x1707 JUMP JUMPDEST PUSH2 0x136A JUMP JUMPDEST DUP1 PUSH2 0xA41 DUP2 PUSH2 0x1927 JUMP JUMPDEST SWAP2 POP POP PUSH2 0x9C9 JUMP JUMPDEST POP POP POP JUMP JUMPDEST PUSH1 0x0 PUSH1 0x1 DUP1 SLOAD PUSH2 0xA5E SWAP2 SWAP1 PUSH2 0x18FE JUMP JUMPDEST SWAP1 POP SWAP1 JUMP JUMPDEST PUSH2 0xA6B PUSH2 0x1562 JUMP JUMPDEST PUSH1 0x0 DUP3 DUP2 MSTORE PUSH1 0x2 PUSH1 0x20 DUP2 DUP2 MSTORE PUSH1 0x40 SWAP3 DUP4 SWAP1 KECCAK256 DUP4 MLOAD PUSH2 0x100 DUP2 ADD DUP6 MSTORE DUP2 SLOAD DUP2 MSTORE PUSH1 0x1 DUP3 ADD SLOAD PUSH1 0x1 PUSH1 0x1 PUSH1 0xA0 SHL SUB SWAP1 DUP2 AND SWAP4 DUP3 ADD SWAP4 SWAP1 SWAP4 MSTORE DUP2 DUP5 ADD SLOAD SWAP1 SWAP3 AND SWAP4 DUP3 ADD SWAP4 SWAP1 SWAP4 MSTORE PUSH1 0x3 DUP4 ADD SLOAD PUSH1 0x60 DUP3 ADD MSTORE PUSH1 0x4 DUP4 ADD SLOAD PUSH1 0x80 DUP3 ADD MSTORE PUSH1 0x5 DUP4 ADD SLOAD PUSH1 0xA0 DUP3 ADD MSTORE PUSH1 0x6 DUP4 ADD SLOAD SWAP1 SWAP3 SWAP2 PUSH1 0xC0 DUP5 ADD SWAP2 PUSH1 0xFF AND SWAP1 DUP2 GT ISZERO PUSH2 0xAED JUMPI PUSH2 0xAED PUSH2 0x1632 JUMP JUMPDEST PUSH1 0x2 DUP2 GT ISZERO PUSH2 0xAFE JUMPI PUSH2 0xAFE PUSH2 0x1632 JUMP JUMPDEST DUP2 MSTORE PUSH1 0x6 SWAP2 SWAP1 SWAP2 ADD SLOAD PUSH2 0x100 SWAP1 DIV PUSH1 0xFF AND ISZERO ISZERO PUSH1 0x20 SWAP1 SWAP2 ADD MSTORE SWAP3 SWAP2 POP POP JUMP JUMPDEST PUSH1 0x1 PUSH1 0x1 PUSH1 0xA0 SHL SUB DUP2 AND PUSH1 0x0 SWAP1 DUP2 MSTORE PUSH1 0x6 PUSH1 0x20 SWAP1 DUP2 MSTORE PUSH1 0x40 DUP1 DUP4 KECCAK256 DUP1 SLOAD DUP3 MLOAD DUP2 DUP6 MUL DUP2 ADD DUP6 ADD SWAP1 SWAP4 MSTORE DUP1 DUP4 MSTORE PUSH1 0x60 SWAP5 SWAP4 DUP4 ADD DUP3 DUP3 DUP1 ISZERO PUSH2 0xB7C JUMPI PUSH1 0x20 MUL DUP3 ADD SWAP2 SWAP1 PUSH1 0x0 MSTORE PUSH1 0x20 PUSH1 0x0 KECCAK256 SWAP1 JUMPDEST DUP2 SLOAD DUP2 MSTORE PUSH1 0x20 ADD SWAP1 PUSH1 0x1 ADD SWAP1 DUP1 DUP4 GT PUSH2 0xB68 JUMPI JUMPDEST POP POP POP POP POP SWAP1 POP DUP1 MLOAD PUSH8 0xFFFFFFFFFFFFFFFF DUP2 GT ISZERO PUSH2 0xB9D JUMPI PUSH2 0xB9D PUSH2 0x1940 JUMP JUMPDEST PUSH1 0x40 MLOAD SWAP1 DUP1 DUP3 MSTORE DUP1 PUSH1 0x20 MUL PUSH1 0x20 ADD DUP3 ADD PUSH1 0x40 MSTORE DUP1 ISZERO PUSH2 0xBD6 JUMPI DUP2 PUSH1 0x20 ADD JUMPDEST PUSH2 0xBC3 PUSH2 0x1562 JUMP JUMPDEST DUP2 MSTORE PUSH1 0x20 ADD SWAP1 PUSH1 0x1 SWAP1 SUB SWAP1 DUP2 PUSH2 0xBBB JUMPI SWAP1 POP JUMPDEST POP SWAP2 POP PUSH1 0x0 JUMPDEST DUP2 MLOAD DUP2 LT ISZERO PUSH2 0xCE9 JUMPI PUSH1 0x2 PUSH1 0x0 DUP4 DUP4 DUP2 MLOAD DUP2 LT PUSH2 0xBFB JUMPI PUSH2 0xBFB PUSH2 0x1911 JUMP JUMPDEST PUSH1 0x20 SWAP1 DUP2 MUL SWAP2 SWAP1 SWAP2 ADD DUP2 ADD MLOAD DUP3 MSTORE DUP2 DUP2 ADD SWAP3 SWAP1 SWAP3 MSTORE PUSH1 0x40 SWAP1 DUP2 ADD PUSH1 0x0 KECCAK256 DUP2 MLOAD PUSH2 0x100 DUP2 ADD DUP4 MSTORE DUP2 SLOAD DUP2 MSTORE PUSH1 0x1 DUP3 ADD SLOAD PUSH1 0x1 PUSH1 0x1 PUSH1 0xA0 SHL SUB SWAP1 DUP2 AND SWAP5 DUP3 ADD SWAP5 SWAP1 SWAP5 MSTORE PUSH1 0x2 DUP1 DUP4 ADD SLOAD SWAP1 SWAP5 AND SWAP3 DUP2 ADD SWAP3 SWAP1 SWAP3 MSTORE PUSH1 0x3 DUP2 ADD SLOAD PUSH1 0x60 DUP4 ADD MSTORE PUSH1 0x4 DUP2 ADD SLOAD PUSH1 0x80 DUP4 ADD MSTORE PUSH1 0x5 DUP2 ADD SLOAD PUSH1 0xA0 DUP4 ADD MSTORE PUSH1 0x6 DUP2 ADD SLOAD SWAP2 SWAP3 SWAP1 SWAP2 PUSH1 0xC0 DUP5 ADD SWAP2 PUSH1 0xFF SWAP1 SWAP2 AND SWAP1 DUP2 GT ISZERO PUSH2 0xC8D JUMPI PUSH2 0xC8D PUSH2 0x1632 JUMP JUMPDEST PUSH1 0x2 DUP2 GT ISZERO PUSH2 0xC9E JUMPI PUSH2 0xC9E PUSH2 0x1632 JUMP JUMPDEST DUP2 MSTORE PUSH1 0x6 SWAP2 SWAP1 SWAP2 ADD SLOAD PUSH2 0x100 SWAP1 DIV PUSH1 0xFF AND ISZERO ISZERO PUSH1 0x20 SWAP1 SWAP2 ADD MSTORE DUP4 MLOAD DUP5 SWAP1 DUP4 SWAP1 DUP2 LT PUSH2 0xCCB JUMPI PUSH2 0xCCB PUSH2 0x1911 JUMP JUMPDEST PUSH1 0x20 MUL PUSH1 0x20 ADD ADD DUP2 SWAP1 MSTORE POP DUP1 DUP1 PUSH2 0xCE1 SWAP1 PUSH2 0x1927 JUMP JUMPDEST SWAP2 POP POP PUSH2 0xBDC JUMP JUMPDEST POP POP SWAP2 SWAP1 POP JUMP JUMPDEST PUSH1 0x60 PUSH1 0x5 DUP1 SLOAD DUP1 PUSH1 0x20 MUL PUSH1 0x20 ADD PUSH1 0x40 MLOAD SWAP1 DUP2 ADD PUSH1 0x40 MSTORE DUP1 SWAP3 SWAP2 SWAP1 DUP2 DUP2 MSTORE PUSH1 0x20 ADD DUP3 DUP1 SLOAD DUP1 ISZERO PUSH2 0xD48 JUMPI PUSH1 0x20 MUL DUP3 ADD SWAP2 SWAP1 PUSH1 0x0 MSTORE PUSH1 0x20 PUSH1 0x0 KECCAK256 SWAP1 JUMPDEST DUP2 SLOAD PUSH1 0x1 PUSH1 0x1 PUSH1 0xA0 SHL SUB AND DUP2 MSTORE PUSH1 0x1 SWAP1 SWAP2 ADD SWAP1 PUSH1 0x20 ADD DUP1 DUP4 GT PUSH2 0xD2A JUMPI JUMPDEST POP POP POP POP POP SWAP1 POP SWAP1 JUMP JUMPDEST PUSH1 0x0 PUSH2 0xD5C PUSH2 0x129C JUMP JUMPDEST PUSH1 0x7 SLOAD PUSH1 0xFF AND ISZERO PUSH2 0xD80 JUMPI PUSH1 0x40 MLOAD PUSH4 0xBDCE99D PUSH1 0xE2 SHL DUP2 MSTORE PUSH1 0x4 ADD PUSH1 0x40 MLOAD DUP1 SWAP2 SUB SWAP1 REVERT JUMPDEST PUSH1 0x1 PUSH1 0x1 PUSH1 0xA0 SHL SUB DUP5 AND PUSH2 0xDA7 JUMPI PUSH1 0x40 MLOAD PUSH4 0xD92E233D PUSH1 0xE0 SHL DUP2 MSTORE PUSH1 0x4 ADD PUSH1 0x40 MLOAD DUP1 SWAP2 SUB SWAP1 REVERT JUMPDEST DUP3 PUSH1 0x0 SUB PUSH2 0xDC8 JUMPI PUSH1 0x40 MLOAD PUSH4 0x1F2A2005 PUSH1 0xE0 SHL DUP2 MSTORE PUSH1 0x4 ADD PUSH1 0x40 MLOAD DUP1 SWAP2 SUB SWAP1 REVERT JUMPDEST PUSH1 0x1 PUSH1 0x1 PUSH1 0xA0 SHL SUB DUP5 AND PUSH1 0x0 SWAP1 DUP2 MSTORE PUSH1 0x4 PUSH1 0x20 MSTORE PUSH1 0x40 SWAP1 KECCAK256 SLOAD PUSH1 0xFF AND PUSH2 0xE0C JUMPI PUSH1 0x40 MLOAD PUSH4 0x751DFF97 PUSH1 0xE1 SHL DUP2 MSTORE PUSH1 0x1 PUSH1 0x1 PUSH1 0xA0 SHL SUB DUP6 AND PUSH1 0x4 DUP3 ADD MSTORE PUSH1 0x24 ADD PUSH2 0x49D JUMP JUMPDEST PUSH3 0x15180 DUP3 LT ISZERO PUSH2 0xE3C JUMPI PUSH1 0x40 MLOAD PUSH4 0x40867033 PUSH1 0xE1 SHL DUP2 MSTORE PUSH1 0x4 DUP2 ADD DUP4 SWAP1 MSTORE PUSH3 0x15180 PUSH1 0x24 DUP3 ADD MSTORE PUSH1 0x44 ADD PUSH2 0x49D JUMP JUMPDEST PUSH3 0x119400 DUP3 GT ISZERO PUSH2 0xE6C JUMPI PUSH1 0x40 MLOAD PUSH4 0x8F08DB3 PUSH1 0xE1 SHL DUP2 MSTORE PUSH1 0x4 DUP2 ADD DUP4 SWAP1 MSTORE PUSH3 0x119400 PUSH1 0x24 DUP3 ADD MSTORE PUSH1 0x44 ADD PUSH2 0x49D JUMP JUMPDEST CALLER PUSH1 0x0 SWAP1 DUP2 MSTORE PUSH1 0x3 PUSH1 0x20 SWAP1 DUP2 MSTORE PUSH1 0x40 DUP1 DUP4 KECCAK256 PUSH1 0x1 PUSH1 0x1 PUSH1 0xA0 SHL SUB DUP9 AND DUP5 MSTORE SWAP1 SWAP2 MSTORE SWAP1 KECCAK256 SLOAD DUP1 ISZERO PUSH2 0xEE1 JUMPI PUSH1 0x0 DUP2 DUP2 MSTORE PUSH1 0x2 PUSH1 0x20 MSTORE PUSH1 0x40 DUP2 KECCAK256 SWAP1 PUSH1 0x6 DUP3 ADD SLOAD PUSH1 0xFF AND PUSH1 0x2 DUP2 GT ISZERO PUSH2 0xEBE JUMPI PUSH2 0xEBE PUSH2 0x1632 JUMP JUMPDEST SUB PUSH2 0xEDF JUMPI PUSH1 0x40 MLOAD PUSH4 0x102A8011 PUSH1 0xE1 SHL DUP2 MSTORE PUSH1 0x4 DUP2 ADD DUP4 SWAP1 MSTORE PUSH1 0x24 ADD PUSH2 0x49D JUMP JUMPDEST POP JUMPDEST PUSH1 0x40 MLOAD PUSH4 0x70A08231 PUSH1 0xE0 SHL DUP2 MSTORE ADDRESS PUSH1 0x4 DUP3 ADD MSTORE PUSH1 0x0 SWAP1 PUSH1 0x1 PUSH1 0x1 PUSH1 0xA0 SHL SUB DUP8 AND SWAP1 PUSH4 0x70A08231 SWAP1 PUSH1 0x24 ADD PUSH1 0x20 PUSH1 0x40 MLOAD DUP1 DUP4 SUB DUP2 DUP7 GAS STATICCALL ISZERO DUP1 ISZERO PUSH2 0xF28 JUMPI RETURNDATASIZE PUSH1 0x0 DUP1 RETURNDATACOPY RETURNDATASIZE PUSH1 0x0 REVERT JUMPDEST POP POP POP POP PUSH1 0x40 MLOAD RETURNDATASIZE PUSH1 0x1F NOT PUSH1 0x1F DUP3 ADD AND DUP3 ADD DUP1 PUSH1 0x40 MSTORE POP DUP2 ADD SWAP1 PUSH2 0xF4C SWAP2 SWAP1 PUSH2 0x1956 JUMP JUMPDEST SWAP1 POP PUSH2 0xF63 PUSH1 0x1 PUSH1 0x1 PUSH1 0xA0 SHL SUB DUP8 AND CALLER ADDRESS DUP9 PUSH2 0x141E JUMP JUMPDEST PUSH1 0x40 MLOAD PUSH4 0x70A08231 PUSH1 0xE0 SHL DUP2 MSTORE ADDRESS PUSH1 0x4 DUP3 ADD MSTORE PUSH1 0x0 SWAP1 PUSH1 0x1 PUSH1 0x1 PUSH1 0xA0 SHL SUB DUP9 AND SWAP1 PUSH4 0x70A08231 SWAP1 PUSH1 0x24 ADD PUSH1 0x20 PUSH1 0x40 MLOAD DUP1 DUP4 SUB DUP2 DUP7 GAS STATICCALL ISZERO DUP1 ISZERO PUSH2 0xFAA JUMPI RETURNDATASIZE PUSH1 0x0 DUP1 RETURNDATACOPY RETURNDATASIZE PUSH1 0x0 REVERT JUMPDEST POP POP POP POP PUSH1 0x40 MLOAD RETURNDATASIZE PUSH1 0x1F NOT PUSH1 0x1F DUP3 ADD AND DUP3 ADD DUP1 PUSH1 0x40 MSTORE POP DUP2 ADD SWAP1 PUSH2 0xFCE SWAP2 SWAP1 PUSH2 0x1956 JUMP JUMPDEST SWAP1 POP PUSH1 0x0 PUSH2 0xFDC DUP4 DUP4 PUSH2 0x18FE JUMP JUMPDEST SWAP1 POP DUP1 PUSH1 0x0 SUB PUSH2 0xFFF JUMPI PUSH1 0x40 MLOAD PUSH4 0x1F2A2005 PUSH1 0xE0 SHL DUP2 MSTORE PUSH1 0x4 ADD PUSH1 0x40 MLOAD DUP1 SWAP2 SUB SWAP1 REVERT JUMPDEST PUSH1 0x1 DUP1 SLOAD SWAP1 PUSH1 0x0 PUSH2 0x100F DUP4 PUSH2 0x1927 JUMP JUMPDEST SWAP1 SWAP2 SSTORE POP SWAP5 POP PUSH1 0x0 PUSH2 0x1021 DUP8 TIMESTAMP PUSH2 0x196F JUMP JUMPDEST SWAP1 POP PUSH1 0x40 MLOAD DUP1 PUSH2 0x100 ADD PUSH1 0x40 MSTORE DUP1 DUP8 DUP2 MSTORE PUSH1 0x20 ADD CALLER PUSH1 0x1 PUSH1 0x1 PUSH1 0xA0 SHL SUB AND DUP2 MSTORE PUSH1 0x20 ADD DUP11 PUSH1 0x1 PUSH1 0x1 PUSH1 0xA0 SHL SUB AND DUP2 MSTORE PUSH1 0x20 ADD DUP4 DUP2 MSTORE PUSH1 0x20 ADD TIMESTAMP DUP2 MSTORE PUSH1 0x20 ADD DUP3 DUP2 MSTORE PUSH1 0x20 ADD PUSH1 0x0 PUSH1 0x2 DUP2 GT ISZERO PUSH2 0x1078 JUMPI PUSH2 0x1078 PUSH2 0x1632 JUMP JUMPDEST DUP2 MSTORE PUSH1 0x1 PUSH1 0x1 PUSH1 0xA0 SHL SUB DUP12 DUP2 AND PUSH32 0x0 DUP3 AND EQ PUSH1 0x20 SWAP3 DUP4 ADD MSTORE PUSH1 0x0 DUP10 DUP2 MSTORE PUSH1 0x2 DUP1 DUP5 MSTORE PUSH1 0x40 SWAP2 DUP3 SWAP1 KECCAK256 DUP6 MLOAD DUP2 SSTORE SWAP4 DUP6 ADD MLOAD PUSH1 0x1 DUP1 DUP7 ADD DUP1 SLOAD SWAP3 DUP7 AND PUSH1 0x1 PUSH1 0x1 PUSH1 0xA0 SHL SUB NOT SWAP4 DUP5 AND OR SWAP1 SSTORE SWAP3 DUP7 ADD MLOAD DUP6 DUP4 ADD DUP1 SLOAD SWAP2 SWAP1 SWAP6 AND SWAP2 AND OR SWAP1 SWAP3 SSTORE PUSH1 0x60 DUP5 ADD MLOAD PUSH1 0x3 DUP5 ADD SSTORE PUSH1 0x80 DUP5 ADD MLOAD PUSH1 0x4 DUP5 ADD SSTORE PUSH1 0xA0 DUP5 ADD MLOAD PUSH1 0x5 DUP5 ADD SSTORE PUSH1 0xC0 DUP5 ADD MLOAD PUSH1 0x6 DUP5 ADD DUP1 SLOAD SWAP2 SWAP4 SWAP1 SWAP3 PUSH1 0xFF NOT SWAP1 SWAP3 AND SWAP2 SWAP1 DUP5 SWAP1 DUP2 GT ISZERO PUSH2 0x1139 JUMPI PUSH2 0x1139 PUSH2 0x1632 JUMP JUMPDEST MUL OR SWAP1 SSTORE POP PUSH1 0xE0 SWAP2 SWAP1 SWAP2 ADD MLOAD PUSH1 0x6 SWAP2 DUP3 ADD DUP1 SLOAD PUSH2 0xFF00 NOT AND PUSH2 0x100 SWAP3 ISZERO ISZERO SWAP3 SWAP1 SWAP3 MUL SWAP2 SWAP1 SWAP2 OR SWAP1 SSTORE CALLER PUSH1 0x0 DUP2 DUP2 MSTORE PUSH1 0x3 PUSH1 0x20 SWAP1 DUP2 MSTORE PUSH1 0x40 DUP1 DUP4 KECCAK256 PUSH1 0x1 PUSH1 0x1 PUSH1 0xA0 SHL SUB DUP16 DUP2 AND DUP1 DUP7 MSTORE SWAP2 DUP5 MSTORE DUP3 DUP6 KECCAK256 DUP14 SWAP1 SSTORE DUP6 DUP6 MSTORE SWAP6 DUP4 MSTORE DUP2 DUP5 KECCAK256 DUP1 SLOAD PUSH1 0x1 DUP2 ADD DUP3 SSTORE SWAP1 DUP6 MSTORE SWAP4 DUP4 SWAP1 KECCAK256 SWAP1 SWAP4 ADD DUP12 SWAP1 SSTORE DUP1 MLOAD DUP8 DUP2 MSTORE SWAP2 DUP3 ADD DUP7 SWAP1 MSTORE PUSH32 0x0 SWAP1 SWAP5 AND DUP3 EQ DUP2 DUP6 ADD MSTORE SWAP3 MLOAD SWAP1 SWAP3 DUP10 SWAP2 PUSH32 0x5029BC3A88A9F0B34B30A3F1AD2D2716E2D4A8EE9CB1EB127F56B1ED8326DA96 SWAP2 DUP2 SWAP1 SUB PUSH1 0x60 ADD SWAP1 LOG4 POP POP POP POP POP PUSH2 0x4CA PUSH1 0x1 PUSH1 0x0 DUP1 MLOAD PUSH1 0x20 PUSH2 0x1983 DUP4 CODECOPY DUP2 MLOAD SWAP2 MSTORE SSTORE JUMP JUMPDEST PUSH2 0x1231 PUSH2 0x12ED JUMP JUMPDEST PUSH1 0x1 PUSH1 0x1 PUSH1 0xA0 SHL SUB DUP2 AND PUSH2 0x1258 JUMPI PUSH1 0x40 MLOAD PUSH4 0xD92E233D PUSH1 0xE0 SHL DUP2 MSTORE PUSH1 0x4 ADD PUSH1 0x40 MLOAD DUP1 SWAP2 SUB SWAP1 REVERT JUMPDEST PUSH2 0x6A9 DUP2 PUSH2 0x136A JUMP JUMPDEST PUSH2 0x1269 PUSH2 0x12ED JUMP JUMPDEST PUSH1 0x1 PUSH1 0x1 PUSH1 0xA0 SHL SUB DUP2 AND PUSH2 0x1293 JUMPI PUSH1 0x40 MLOAD PUSH4 0x1E4FBDF7 PUSH1 0xE0 SHL DUP2 MSTORE PUSH1 0x0 PUSH1 0x4 DUP3 ADD MSTORE PUSH1 0x24 ADD PUSH2 0x49D JUMP JUMPDEST PUSH2 0x6A9 DUP2 PUSH2 0x131A JUMP JUMPDEST PUSH2 0x12A4 PUSH2 0x145A JUMP JUMPDEST PUSH1 0x2 PUSH1 0x0 DUP1 MLOAD PUSH1 0x20 PUSH2 0x1983 DUP4 CODECOPY DUP2 MLOAD SWAP2 MSTORE SSTORE JUMP JUMPDEST PUSH2 0x12C5 DUP4 DUP4 DUP4 PUSH1 0x1 PUSH2 0x148A JUMP JUMPDEST PUSH2 0xA49 JUMPI PUSH1 0x40 MLOAD PUSH4 0x5274AFE7 PUSH1 0xE0 SHL DUP2 MSTORE PUSH1 0x1 PUSH1 0x1 PUSH1 0xA0 SHL SUB DUP5 AND PUSH1 0x4 DUP3 ADD MSTORE PUSH1 0x24 ADD PUSH2 0x49D JUMP JUMPDEST PUSH1 0x0 SLOAD PUSH1 0x1 PUSH1 0x1 PUSH1 0xA0 SHL SUB AND CALLER EQ PUSH2 0x889 JUMPI PUSH1 0x40 MLOAD PUSH4 0x118CDAA7 PUSH1 0xE0 SHL DUP2 MSTORE CALLER PUSH1 0x4 DUP3 ADD MSTORE PUSH1 0x24 ADD PUSH2 0x49D JUMP JUMPDEST PUSH1 0x0 DUP1 SLOAD PUSH1 0x1 PUSH1 0x1 PUSH1 0xA0 SHL SUB DUP4 DUP2 AND PUSH1 0x1 PUSH1 0x1 PUSH1 0xA0 SHL SUB NOT DUP4 AND DUP2 OR DUP5 SSTORE PUSH1 0x40 MLOAD SWAP2 SWAP1 SWAP3 AND SWAP3 DUP4 SWAP2 PUSH32 0x8BE0079C531659141344CD1FD0A4F28419497F9722A3DAAFE3B4186F6B6457E0 SWAP2 SWAP1 LOG3 POP POP JUMP JUMPDEST PUSH1 0x1 PUSH1 0x1 PUSH1 0xA0 SHL SUB DUP2 AND PUSH1 0x0 SWAP1 DUP2 MSTORE PUSH1 0x4 PUSH1 0x20 MSTORE PUSH1 0x40 SWAP1 KECCAK256 SLOAD PUSH1 0xFF AND PUSH2 0x6A9 JUMPI PUSH1 0x1 PUSH1 0x1 PUSH1 0xA0 SHL SUB DUP2 AND PUSH1 0x0 DUP2 DUP2 MSTORE PUSH1 0x4 PUSH1 0x20 SWAP1 DUP2 MSTORE PUSH1 0x40 DUP1 DUP4 KECCAK256 DUP1 SLOAD PUSH1 0xFF NOT AND PUSH1 0x1 SWAP1 DUP2 OR SWAP1 SWAP2 SSTORE PUSH1 0x5 DUP1 SLOAD DUP1 DUP4 ADD DUP3 SSTORE SWAP5 MSTORE PUSH32 0x36B6384B5ECA791C62761152D0C79BB0604C104A5FB6F4EB0703F3154BB3DB0 SWAP1 SWAP4 ADD DUP1 SLOAD PUSH1 0x1 PUSH1 0x1 PUSH1 0xA0 SHL SUB NOT AND DUP6 OR SWAP1 SSTORE MLOAD SWAP2 DUP3 MSTORE PUSH32 0xEF81A9943B96C8DF4EF243401C9BF5159146166211356898B52D382086168D92 SWAP2 ADD PUSH2 0x9B3 JUMP JUMPDEST PUSH2 0x142C DUP5 DUP5 DUP5 DUP5 PUSH1 0x1 PUSH2 0x14F0 JUMP JUMPDEST PUSH2 0x1454 JUMPI PUSH1 0x40 MLOAD PUSH4 0x5274AFE7 PUSH1 0xE0 SHL DUP2 MSTORE PUSH1 0x1 PUSH1 0x1 PUSH1 0xA0 SHL SUB DUP6 AND PUSH1 0x4 DUP3 ADD MSTORE PUSH1 0x24 ADD PUSH2 0x49D JUMP JUMPDEST POP POP POP POP JUMP JUMPDEST PUSH1 0x0 DUP1 MLOAD PUSH1 0x20 PUSH2 0x1983 DUP4 CODECOPY DUP2 MLOAD SWAP2 MSTORE SLOAD PUSH1 0x2 SUB PUSH2 0x889 JUMPI PUSH1 0x40 MLOAD PUSH4 0x3EE5AEB5 PUSH1 0xE0 SHL DUP2 MSTORE PUSH1 0x4 ADD PUSH1 0x40 MLOAD DUP1 SWAP2 SUB SWAP1 REVERT JUMPDEST PUSH1 0x40 MLOAD PUSH4 0xA9059CBB PUSH1 0xE0 SHL PUSH1 0x0 DUP2 DUP2 MSTORE PUSH1 0x1 PUSH1 0x1 PUSH1 0xA0 SHL SUB DUP7 AND PUSH1 0x4 MSTORE PUSH1 0x24 DUP6 SWAP1 MSTORE SWAP2 PUSH1 0x20 DUP4 PUSH1 0x44 DUP2 DUP1 DUP12 GAS CALL SWAP3 POP PUSH1 0x1 PUSH1 0x0 MLOAD EQ DUP4 AND PUSH2 0x14E4 JUMPI DUP4 DUP4 ISZERO AND ISZERO PUSH2 0x14D7 JUMPI RETURNDATASIZE PUSH1 0x0 DUP3 RETURNDATACOPY RETURNDATASIZE DUP2 REVERT JUMPDEST PUSH1 0x0 DUP8 EXTCODESIZE GT RETURNDATASIZE ISZERO AND DUP4 AND SWAP3 POP JUMPDEST PUSH1 0x40 MSTORE POP SWAP5 SWAP4 POP POP POP POP JUMP JUMPDEST PUSH1 0x40 MLOAD PUSH4 0x23B872DD PUSH1 0xE0 SHL PUSH1 0x0 DUP2 DUP2 MSTORE PUSH1 0x1 PUSH1 0x1 PUSH1 0xA0 SHL SUB DUP8 DUP2 AND PUSH1 0x4 MSTORE DUP7 AND PUSH1 0x24 MSTORE PUSH1 0x44 DUP6 SWAP1 MSTORE SWAP2 PUSH1 0x20 DUP4 PUSH1 0x64 DUP2 DUP1 DUP13 GAS CALL SWAP3 POP PUSH1 0x1 PUSH1 0x0 MLOAD EQ DUP4 AND PUSH2 0x1550 JUMPI DUP4 DUP4 ISZERO AND ISZERO PUSH2 0x1543 JUMPI RETURNDATASIZE PUSH1 0x0 DUP3 RETURNDATACOPY RETURNDATASIZE DUP2 REVERT JUMPDEST PUSH1 0x0 DUP9 EXTCODESIZE GT RETURNDATASIZE ISZERO AND DUP4 AND SWAP3 POP JUMPDEST PUSH1 0x40 MSTORE POP PUSH1 0x0 PUSH1 0x60 MSTORE SWAP6 SWAP5 POP POP POP POP POP JUMP JUMPDEST PUSH1 0x40 MLOAD DUP1 PUSH2 0x100 ADD PUSH1 0x40 MSTORE DUP1 PUSH1 0x0 DUP2 MSTORE PUSH1 0x20 ADD PUSH1 0x0 PUSH1 0x1 PUSH1 0x1 PUSH1 0xA0 SHL SUB AND DUP2 MSTORE PUSH1 0x20 ADD PUSH1 0x0 PUSH1 0x1 PUSH1 0x1 PUSH1 0xA0 SHL SUB AND DUP2 MSTORE PUSH1 0x20 ADD PUSH1 0x0 DUP2 MSTORE PUSH1 0x20 ADD PUSH1 0x0 DUP2 MSTORE PUSH1 0x20 ADD PUSH1 0x0 DUP2 MSTORE PUSH1 0x20 ADD PUSH1 0x0 PUSH1 0x2 DUP2 GT ISZERO PUSH2 0x15BD JUMPI PUSH2 0x15BD PUSH2 0x1632 JUMP JUMPDEST DUP2 MSTORE PUSH1 0x0 PUSH1 0x20 SWAP1 SWAP2 ADD MSTORE SWAP1 JUMP JUMPDEST PUSH1 0x0 PUSH1 0x20 DUP3 DUP5 SUB SLT ISZERO PUSH2 0x15DC JUMPI PUSH1 0x0 DUP1 REVERT JUMPDEST POP CALLDATALOAD SWAP2 SWAP1 POP JUMP JUMPDEST DUP1 CALLDATALOAD PUSH1 0x1 PUSH1 0x1 PUSH1 0xA0 SHL SUB DUP2 AND DUP2 EQ PUSH2 0x15FA JUMPI PUSH1 0x0 DUP1 REVERT JUMPDEST SWAP2 SWAP1 POP JUMP JUMPDEST PUSH1 0x0 DUP1 PUSH1 0x40 DUP4 DUP6 SUB SLT ISZERO PUSH2 0x1612 JUMPI PUSH1 0x0 DUP1 REVERT JUMPDEST PUSH2 0x161B DUP4 PUSH2 0x15E3 JUMP JUMPDEST SWAP2 POP PUSH2 0x1629 PUSH1 0x20 DUP5 ADD PUSH2 0x15E3 JUMP JUMPDEST SWAP1 POP SWAP3 POP SWAP3 SWAP1 POP JUMP JUMPDEST PUSH4 0x4E487B71 PUSH1 0xE0 SHL PUSH1 0x0 MSTORE PUSH1 0x21 PUSH1 0x4 MSTORE PUSH1 0x24 PUSH1 0x0 REVERT JUMPDEST PUSH1 0x3 DUP2 LT PUSH2 0x1666 JUMPI PUSH4 0x4E487B71 PUSH1 0xE0 SHL PUSH1 0x0 MSTORE PUSH1 0x21 PUSH1 0x4 MSTORE PUSH1 0x24 PUSH1 0x0 REVERT JUMPDEST SWAP1 MSTORE JUMP JUMPDEST DUP1 MLOAD DUP3 MSTORE PUSH1 0x20 DUP2 ADD MLOAD PUSH1 0x1 DUP1 PUSH1 0xA0 SHL SUB DUP1 DUP3 AND PUSH1 0x20 DUP6 ADD MSTORE DUP1 PUSH1 0x40 DUP5 ADD MLOAD AND PUSH1 0x40 DUP6 ADD MSTORE POP POP PUSH1 0x60 DUP2 ADD MLOAD PUSH1 0x60 DUP4 ADD MSTORE PUSH1 0x80 DUP2 ADD MLOAD PUSH1 0x80 DUP4 ADD MSTORE PUSH1 0xA0 DUP2 ADD MLOAD PUSH1 0xA0 DUP4 ADD MSTORE PUSH1 0xC0 DUP2 ADD MLOAD PUSH2 0x16C0 PUSH1 0xC0 DUP5 ADD DUP3 PUSH2 0x1648 JUMP JUMPDEST POP PUSH1 0xE0 SWAP1 DUP2 ADD MLOAD ISZERO ISZERO SWAP2 ADD MSTORE JUMP JUMPDEST PUSH2 0x100 DUP2 ADD PUSH2 0x801 DUP3 DUP5 PUSH2 0x166A JUMP JUMPDEST PUSH1 0x0 DUP1 PUSH1 0x40 DUP4 DUP6 SUB SLT ISZERO PUSH2 0x16F0 JUMPI PUSH1 0x0 DUP1 REVERT JUMPDEST PUSH2 0x16F9 DUP4 PUSH2 0x15E3 JUMP JUMPDEST SWAP5 PUSH1 0x20 SWAP4 SWAP1 SWAP4 ADD CALLDATALOAD SWAP4 POP POP POP JUMP JUMPDEST PUSH1 0x0 PUSH1 0x20 DUP3 DUP5 SUB SLT ISZERO PUSH2 0x1719 JUMPI PUSH1 0x0 DUP1 REVERT JUMPDEST PUSH2 0x4CA DUP3 PUSH2 0x15E3 JUMP JUMPDEST PUSH1 0x20 DUP1 DUP3 MSTORE DUP3 MLOAD DUP3 DUP3 ADD DUP2 SWAP1 MSTORE PUSH1 0x0 SWAP2 SWAP1 DUP5 DUP3 ADD SWAP1 PUSH1 0x40 DUP6 ADD SWAP1 DUP5 JUMPDEST DUP2 DUP2 LT ISZERO PUSH2 0x175A JUMPI DUP4 MLOAD DUP4 MSTORE SWAP3 DUP5 ADD SWAP3 SWAP2 DUP5 ADD SWAP2 PUSH1 0x1 ADD PUSH2 0x173E JUMP JUMPDEST POP SWAP1 SWAP7 SWAP6 POP POP POP POP POP POP JUMP JUMPDEST PUSH1 0x0 DUP1 PUSH1 0x20 DUP4 DUP6 SUB SLT ISZERO PUSH2 0x1779 JUMPI PUSH1 0x0 DUP1 REVERT JUMPDEST DUP3 CALLDATALOAD PUSH8 0xFFFFFFFFFFFFFFFF DUP1 DUP3 GT ISZERO PUSH2 0x1791 JUMPI PUSH1 0x0 DUP1 REVERT JUMPDEST DUP2 DUP6 ADD SWAP2 POP DUP6 PUSH1 0x1F DUP4 ADD SLT PUSH2 0x17A5 JUMPI PUSH1 0x0 DUP1 REVERT JUMPDEST DUP2 CALLDATALOAD DUP2 DUP2 GT ISZERO PUSH2 0x17B4 JUMPI PUSH1 0x0 DUP1 REVERT JUMPDEST DUP7 PUSH1 0x20 DUP3 PUSH1 0x5 SHL DUP6 ADD ADD GT ISZERO PUSH2 0x17C9 JUMPI PUSH1 0x0 DUP1 REVERT JUMPDEST PUSH1 0x20 SWAP3 SWAP1 SWAP3 ADD SWAP7 SWAP2 SWAP6 POP SWAP1 SWAP4 POP POP POP POP JUMP JUMPDEST PUSH1 0x20 DUP1 DUP3 MSTORE DUP3 MLOAD DUP3 DUP3 ADD DUP2 SWAP1 MSTORE PUSH1 0x0 SWAP2 SWAP1 DUP5 DUP3 ADD SWAP1 PUSH1 0x40 DUP6 ADD SWAP1 DUP5 JUMPDEST DUP2 DUP2 LT ISZERO PUSH2 0x175A JUMPI PUSH2 0x180A DUP4 DUP6 MLOAD PUSH2 0x166A JUMP JUMPDEST SWAP3 DUP5 ADD SWAP3 PUSH2 0x100 SWAP3 SWAP1 SWAP3 ADD SWAP2 PUSH1 0x1 ADD PUSH2 0x17F7 JUMP JUMPDEST PUSH1 0x20 DUP1 DUP3 MSTORE DUP3 MLOAD DUP3 DUP3 ADD DUP2 SWAP1 MSTORE PUSH1 0x0 SWAP2 SWAP1 DUP5 DUP3 ADD SWAP1 PUSH1 0x40 DUP6 ADD SWAP1 DUP5 JUMPDEST DUP2 DUP2 LT ISZERO PUSH2 0x175A JUMPI DUP4 MLOAD PUSH1 0x1 PUSH1 0x1 PUSH1 0xA0 SHL SUB AND DUP4 MSTORE SWAP3 DUP5 ADD SWAP3 SWAP2 DUP5 ADD SWAP2 PUSH1 0x1 ADD PUSH2 0x183A JUMP JUMPDEST PUSH1 0x0 DUP1 PUSH1 0x0 PUSH1 0x60 DUP5 DUP7 SUB SLT ISZERO PUSH2 0x1874 JUMPI PUSH1 0x0 DUP1 REVERT JUMPDEST PUSH2 0x187D DUP5 PUSH2 0x15E3 JUMP JUMPDEST SWAP6 PUSH1 0x20 DUP6 ADD CALLDATALOAD SWAP6 POP PUSH1 0x40 SWAP1 SWAP5 ADD CALLDATALOAD SWAP4 SWAP3 POP POP POP JUMP JUMPDEST DUP9 DUP2 MSTORE PUSH1 0x1 PUSH1 0x1 PUSH1 0xA0 SHL SUB DUP9 DUP2 AND PUSH1 0x20 DUP4 ADD MSTORE DUP8 AND PUSH1 0x40 DUP3 ADD MSTORE PUSH1 0x60 DUP2 ADD DUP7 SWAP1 MSTORE PUSH1 0x80 DUP2 ADD DUP6 SWAP1 MSTORE PUSH1 0xA0 DUP2 ADD DUP5 SWAP1 MSTORE PUSH2 0x100 DUP2 ADD PUSH2 0x18D3 PUSH1 0xC0 DUP4 ADD DUP6 PUSH2 0x1648 JUMP JUMPDEST DUP3 ISZERO ISZERO PUSH1 0xE0 DUP4 ADD MSTORE SWAP10 SWAP9 POP POP POP POP POP POP POP POP POP JUMP JUMPDEST PUSH4 0x4E487B71 PUSH1 0xE0 SHL PUSH1 0x0 MSTORE PUSH1 0x11 PUSH1 0x4 MSTORE PUSH1 0x24 PUSH1 0x0 REVERT JUMPDEST DUP2 DUP2 SUB DUP2 DUP2 GT ISZERO PUSH2 0x801 JUMPI PUSH2 0x801 PUSH2 0x18E8 JUMP JUMPDEST PUSH4 0x4E487B71 PUSH1 0xE0 SHL PUSH1 0x0 MSTORE PUSH1 0x32 PUSH1 0x4 MSTORE PUSH1 0x24 PUSH1 0x0 REVERT JUMPDEST PUSH1 0x0 PUSH1 0x1 DUP3 ADD PUSH2 0x1939 JUMPI PUSH2 0x1939 PUSH2 0x18E8 JUMP JUMPDEST POP PUSH1 0x1 ADD SWAP1 JUMP JUMPDEST PUSH4 0x4E487B71 PUSH1 0xE0 SHL PUSH1 0x0 MSTORE PUSH1 0x41 PUSH1 0x4 MSTORE PUSH1 0x24 PUSH1 0x0 REVERT JUMPDEST PUSH1 0x0 PUSH1 0x20 DUP3 DUP5 SUB SLT ISZERO PUSH2 0x1968 JUMPI PUSH1 0x0 DUP1 REVERT JUMPDEST POP MLOAD SWAP2 SWAP1 POP JUMP JUMPDEST DUP1 DUP3 ADD DUP1 DUP3 GT ISZERO PUSH2 0x801 JUMPI PUSH2 0x801 PUSH2 0x18E8 JUMP INVALID SWAP12 PUSH24 0x9B17422D0DF92223018B32B4D1FA46E071723D6817E2486D STOP EXTCODESIZE 0xEC 0xC5 PUSH0 STOP LOG2 PUSH5 0x6970667358 0x22 SLT KECCAK256 0xD4 0x2C JUMPDEST 0xF8 0x25 0xBC PUSH27 0x46429DCE6A139215F8EF0F5F2DB6069A4B44FC2133DCAFC8A36473 PUSH16 0x6C634300081400330000000000000000 "
				},
				"gasEstimates": {
					"creation": {
						"codeDepositCost": "1323200",
						"executionCost": "infinite",
						"totalCost": "infinite"
					},
					"external": {
						"MAX_DURATION()": "262",
						"MIN_DURATION()": "284",
						"activeLockId(address,address)": "infinite",
						"addManyToWhitelist(address[])": "infinite",
						"addToWhitelist(address)": "79043",
						"getActiveLock(address,address)": "infinite",
						"getLock(uint256)": "18174",
						"getLockerHistory(address)": "infinite",
						"getLockerLocks(address)": "infinite",
						"getWhitelistedTokens()": "infinite",
						"lock(address,uint256,uint256)": "infinite",
						"lockerHistory(address,uint256)": "4790",
						"lockingPaused()": "2421",
						"locks(uint256)": "15581",
						"nextLockId()": "2363",
						"owner()": "2365",
						"pauseLocking()": "27726",
						"removeFromWhitelist(address)": "28312",
						"renounceOwnership()": "infinite",
						"timbsToken()": "infinite",
						"timeUntilUnlock(uint256)": "6860",
						"tokenWhitelist(address)": "2620",
						"totalLocks()": "2504",
						"transferOwnership(address)": "28421",
						"unpauseLocking()": "27808",
						"whitelistedTokens(uint256)": "4671",
						"withdraw(uint256)": "infinite"
					},
					"internal": {
						"_addToWhitelist(address)": "infinite"
					}
				},
				"methodIdentifiers": {
					"MAX_DURATION()": "b1724b46",
					"MIN_DURATION()": "b6a6d177",
					"activeLockId(address,address)": "6842ad90",
					"addManyToWhitelist(address[])": "8c10671c",
					"addToWhitelist(address)": "e43252d7",
					"getActiveLock(address,address)": "34e37539",
					"getLock(uint256)": "d68f4dd1",
					"getLockerHistory(address)": "71c7552f",
					"getLockerLocks(address)": "dff35c30",
					"getWhitelistedTokens()": "e26f7900",
					"lock(address,uint256,uint256)": "e2ab691d",
					"lockerHistory(address,uint256)": "4c2cc0a8",
					"lockingPaused()": "7e3f71d5",
					"locks(uint256)": "f4dadc61",
					"nextLockId()": "6518a0b3",
					"owner()": "8da5cb5b",
					"pauseLocking()": "8a5cd91e",
					"removeFromWhitelist(address)": "8ab1d681",
					"renounceOwnership()": "715018a6",
					"timbsToken()": "0e31648f",
					"timeUntilUnlock(uint256)": "1b934ce5",
					"tokenWhitelist(address)": "753d7563",
					"totalLocks()": "d2d18eac",
					"transferOwnership(address)": "f2fde38b",
					"unpauseLocking()": "3e836b3d",
					"whitelistedTokens(uint256)": "2154bc44",
					"withdraw(uint256)": "2e1a7d4d"
				}
			},
			"storageLayout": {
				"storage": [
					{
						"astId": 864,
						"contract": "/contracts/TimbLockVault.sol:TimbLockVault",
						"label": "_owner",
						"offset": 0,
						"slot": "0",
						"type": "t_address"
					},
					{
						"astId": 50,
						"contract": "/contracts/TimbLockVault.sol:TimbLockVault",
						"label": "nextLockId",
						"offset": 0,
						"slot": "1",
						"type": "t_uint256"
					},
					{
						"astId": 56,
						"contract": "/contracts/TimbLockVault.sol:TimbLockVault",
						"label": "locks",
						"offset": 0,
						"slot": "2",
						"type": "t_mapping(t_uint256,t_struct(LockEntry)44_storage)"
					},
					{
						"astId": 63,
						"contract": "/contracts/TimbLockVault.sol:TimbLockVault",
						"label": "activeLockId",
						"offset": 0,
						"slot": "3",
						"type": "t_mapping(t_address,t_mapping(t_address,t_uint256))"
					},
					{
						"astId": 68,
						"contract": "/contracts/TimbLockVault.sol:TimbLockVault",
						"label": "tokenWhitelist",
						"offset": 0,
						"slot": "4",
						"type": "t_mapping(t_address,t_bool)"
					},
					{
						"astId": 72,
						"contract": "/contracts/TimbLockVault.sol:TimbLockVault",
						"label": "whitelistedTokens",
						"offset": 0,
						"slot": "5",
						"type": "t_array(t_address)dyn_storage"
					},
					{
						"astId": 78,
						"contract": "/contracts/TimbLockVault.sol:TimbLockVault",
						"label": "lockerHistory",
						"offset": 0,
						"slot": "6",
						"type": "t_mapping(t_address,t_array(t_uint256)dyn_storage)"
					},
					{
						"astId": 81,
						"contract": "/contracts/TimbLockVault.sol:TimbLockVault",
						"label": "lockingPaused",
						"offset": 0,
						"slot": "7",
						"type": "t_bool"
					}
				],
				"types": {
					"t_address": {
						"encoding": "inplace",
						"label": "address",
						"numberOfBytes": "20"
					},
					"t_array(t_address)dyn_storage": {
						"base": "t_address",
						"encoding": "dynamic_array",
						"label": "address[]",
						"numberOfBytes": "32"
					},
					"t_array(t_uint256)dyn_storage": {
						"base": "t_uint256",
						"encoding": "dynamic_array",
						"label": "uint256[]",
						"numberOfBytes": "32"
					},
					"t_bool": {
						"encoding": "inplace",
						"label": "bool",
						"numberOfBytes": "1"
					},
					"t_enum(LockStatus)26": {
						"encoding": "inplace",
						"label": "enum TimbLockVault.LockStatus",
						"numberOfBytes": "1"
					},
					"t_mapping(t_address,t_array(t_uint256)dyn_storage)": {
						"encoding": "mapping",
						"key": "t_address",
						"label": "mapping(address => uint256[])",
						"numberOfBytes": "32",
						"value": "t_array(t_uint256)dyn_storage"
					},
					"t_mapping(t_address,t_bool)": {
						"encoding": "mapping",
						"key": "t_address",
						"label": "mapping(address => bool)",
						"numberOfBytes": "32",
						"value": "t_bool"
					},
					"t_mapping(t_address,t_mapping(t_address,t_uint256))": {
						"encoding": "mapping",
						"key": "t_address",
						"label": "mapping(address => mapping(address => uint256))",
						"numberOfBytes": "32",
						"value": "t_mapping(t_address,t_uint256)"
					},
					"t_mapping(t_address,t_uint256)": {
						"encoding": "mapping",
						"key": "t_address",
						"label": "mapping(address => uint256)",
						"numberOfBytes": "32",
						"value": "t_uint256"
					},
					"t_mapping(t_uint256,t_struct(LockEntry)44_storage)": {
						"encoding": "mapping",
						"key": "t_uint256",
						"label": "mapping(uint256 => struct TimbLockVault.LockEntry)",
						"numberOfBytes": "32",
						"value": "t_struct(LockEntry)44_storage"
					},
					"t_struct(LockEntry)44_storage": {
						"encoding": "inplace",
						"label": "struct TimbLockVault.LockEntry",
						"members": [
							{
								"astId": 28,
								"contract": "/contracts/TimbLockVault.sol:TimbLockVault",
								"label": "lockId",
								"offset": 0,
								"slot": "0",
								"type": "t_uint256"
							},
							{
								"astId": 30,
								"contract": "/contracts/TimbLockVault.sol:TimbLockVault",
								"label": "locker",
								"offset": 0,
								"slot": "1",
								"type": "t_address"
							},
							{
								"astId": 32,
								"contract": "/contracts/TimbLockVault.sol:TimbLockVault",
								"label": "token",
								"offset": 0,
								"slot": "2",
								"type": "t_address"
							},
							{
								"astId": 34,
								"contract": "/contracts/TimbLockVault.sol:TimbLockVault",
								"label": "amount",
								"offset": 0,
								"slot": "3",
								"type": "t_uint256"
							},
							{
								"astId": 36,
								"contract": "/contracts/TimbLockVault.sol:TimbLockVault",
								"label": "lockedAt",
								"offset": 0,
								"slot": "4",
								"type": "t_uint256"
							},
							{
								"astId": 38,
								"contract": "/contracts/TimbLockVault.sol:TimbLockVault",
								"label": "unlockAt",
								"offset": 0,
								"slot": "5",
								"type": "t_uint256"
							},
							{
								"astId": 41,
								"contract": "/contracts/TimbLockVault.sol:TimbLockVault",
								"label": "status",
								"offset": 0,
								"slot": "6",
								"type": "t_enum(LockStatus)26"
							},
							{
								"astId": 43,
								"contract": "/contracts/TimbLockVault.sol:TimbLockVault",
								"label": "isTimbs",
								"offset": 1,
								"slot": "6",
								"type": "t_bool"
							}
						],
						"numberOfBytes": "224"
					},
					"t_uint256": {
						"encoding": "inplace",
						"label": "uint256",
						"numberOfBytes": "32"
					}
				}
			},
			"userdoc": {
				"kind": "user",
				"methods": {
					"MAX_DURATION()": {
						"notice": "Maximum lock duration in seconds (320 hours)."
					},
					"MIN_DURATION()": {
						"notice": "Minimum lock duration in seconds (24 hours)."
					},
					"activeLockId(address,address)": {
						"notice": "locker → token → active lockId (0 = none).         Enforces one active lock per wallet per token."
					},
					"addManyToWhitelist(address[])": {
						"notice": "Add multiple tokens to whitelist in one call."
					},
					"addToWhitelist(address)": {
						"notice": "Add a token to the global lock whitelist."
					},
					"getActiveLock(address,address)": {
						"notice": "Returns the active lock for a wallet + token combination.         Returns an empty struct if no active lock exists."
					},
					"getLock(uint256)": {
						"notice": "Returns a lock entry by ID."
					},
					"getLockerHistory(address)": {
						"notice": "Returns all lock IDs created by `locker`."
					},
					"getLockerLocks(address)": {
						"notice": "Returns all lock entries for a locker (full history)."
					},
					"getWhitelistedTokens()": {
						"notice": "Returns all whitelisted token addresses."
					},
					"lock(address,uint256,uint256)": {
						"notice": "Lock `amount` of `token` for `durationSeconds`."
					},
					"lockerHistory(address,uint256)": {
						"notice": "All lock IDs created by an address (history)."
					},
					"lockingPaused()": {
						"notice": "Emergency pause on lock() — withdrawals always permitted."
					},
					"locks(uint256)": {
						"notice": "All locks by ID."
					},
					"nextLockId()": {
						"notice": "Global lock ID counter."
					},
					"pauseLocking()": {
						"notice": "Pause new lock creation. Withdrawals always available."
					},
					"removeFromWhitelist(address)": {
						"notice": "Remove a token from the whitelist."
					},
					"timbsToken()": {
						"notice": "TIMBS token address — locks of this token get isTimbs flag."
					},
					"timeUntilUnlock(uint256)": {
						"notice": "Returns time remaining until a lock can be withdrawn.         Returns 0 if already unlocked."
					},
					"tokenWhitelist(address)": {
						"notice": "Global whitelist of tokens allowed to be locked."
					},
					"totalLocks()": {
						"notice": "Returns total number of locks ever created."
					},
					"whitelistedTokens(uint256)": {
						"notice": "All whitelisted token addresses (for enumeration)."
					},
					"withdraw(uint256)": {
						"notice": "Withdraw tokens from a lock after the unlock timestamp."
					}
				},
				"notice": "Public ERC-20 token locking vault. Model:   - Any address can lock any whitelisted ERC-20 token for 24–320 hours.   - Tokens are held in this contract and returned to the locker after     the unlock timestamp. No early exit permitted.   - All locks are publicly indexed — anyone can read the registry.   - TIMBS locks receive a flag for UI badge/highlight.   - Default whitelist set by owner. Users can permissionlessly add tokens     to their own personal import list (tracked off-chain via events,     not stored on-chain per-user to save gas).   - One active lock per wallet per token at a time. A new lock on the     same token extends/replaces only after the previous one is withdrawn. Lock lifecycle:   Active → Unlocked (after unlock timestamp) → Withdrawn (claimed) Security (defiSKILL):   - ReentrancyGuard on lock(), withdraw().   - Collateral ownership: only the original locker can withdraw.   - SafeERC20 on all transfers — handles non-standard tokens.   - Token whitelist prevents locking arbitrary malicious tokens.   - Balance check before and after transfer — catches fee-on-transfer     tokens and records actual received amount.   - Emergency pause on lock() only — withdrawals always available.   - Owner can permissionlessly add tokens to the global whitelist. Deployment:   1. Deploy TimbLockVault(timbsToken)   2. addToWhitelist([TIMBS, ETH_wrapper, DAPP, LINK])   3. Verify on Sourcify",
				"version": 1
			}
		}
	}
}