{
	"contractss/GameRegistry.sol": {
		"GameRegistry": {
			"abi": [
				{
					"inputs": [
						{
							"internalType": "address",
							"name": "_timbsToken",
							"type": "address"
						},
						{
							"internalType": "address",
							"name": "_protocolSink",
							"type": "address"
						},
						{
							"internalType": "address",
							"name": "_timbPrize",
							"type": "address"
						}
					],
					"stateMutability": "nonpayable",
					"type": "constructor"
				},
				{
					"inputs": [
						{
							"internalType": "uint256",
							"name": "playRound",
							"type": "uint256"
						}
					],
					"name": "ActiveEntryExists",
					"type": "error"
				},
				{
					"inputs": [],
					"name": "AlreadyRefunded",
					"type": "error"
				},
				{
					"inputs": [
						{
							"internalType": "uint256",
							"name": "lastEligibleRound",
							"type": "uint256"
						},
						{
							"internalType": "uint256",
							"name": "currentRound",
							"type": "uint256"
						}
					],
					"name": "ClaimWindowClosed",
					"type": "error"
				},
				{
					"inputs": [],
					"name": "ContractPaused",
					"type": "error"
				},
				{
					"inputs": [
						{
							"internalType": "enum GameRegistry.EntryStatus",
							"name": "status",
							"type": "uint8"
						}
					],
					"name": "EntryNotActive",
					"type": "error"
				},
				{
					"inputs": [
						{
							"internalType": "enum GameRegistry.EntryStatus",
							"name": "status",
							"type": "uint8"
						}
					],
					"name": "EntryNotExpired",
					"type": "error"
				},
				{
					"inputs": [
						{
							"internalType": "uint256",
							"name": "required",
							"type": "uint256"
						},
						{
							"internalType": "uint256",
							"name": "available",
							"type": "uint256"
						}
					],
					"name": "InsufficientAllowance",
					"type": "error"
				},
				{
					"inputs": [
						{
							"internalType": "bytes1",
							"name": "char",
							"type": "bytes1"
						}
					],
					"name": "InvalidCharacter",
					"type": "error"
				},
				{
					"inputs": [
						{
							"internalType": "uint256",
							"name": "length",
							"type": "uint256"
						}
					],
					"name": "InvalidStringLength",
					"type": "error"
				},
				{
					"inputs": [
						{
							"internalType": "address",
							"name": "player",
							"type": "address"
						},
						{
							"internalType": "uint256",
							"name": "round",
							"type": "uint256"
						}
					],
					"name": "NoEntryFound",
					"type": "error"
				},
				{
					"inputs": [],
					"name": "NotTimbPrize",
					"type": "error"
				},
				{
					"inputs": [
						{
							"internalType": "address",
							"name": "owner",
							"type": "address"
						}
					],
					"name": "OwnableInvalidOwner",
					"type": "error"
				},
				{
					"inputs": [
						{
							"internalType": "address",
							"name": "account",
							"type": "address"
						}
					],
					"name": "OwnableUnauthorizedAccount",
					"type": "error"
				},
				{
					"inputs": [],
					"name": "ReentrancyGuardReentrantCall",
					"type": "error"
				},
				{
					"inputs": [
						{
							"internalType": "bytes1",
							"name": "char",
							"type": "bytes1"
						}
					],
					"name": "RepeatingCharacter",
					"type": "error"
				},
				{
					"inputs": [
						{
							"internalType": "address",
							"name": "token",
							"type": "address"
						}
					],
					"name": "SafeERC20FailedOperation",
					"type": "error"
				},
				{
					"inputs": [
						{
							"internalType": "uint256",
							"name": "sent",
							"type": "uint256"
						},
						{
							"internalType": "uint256",
							"name": "required",
							"type": "uint256"
						}
					],
					"name": "WrongEscrowAmount",
					"type": "error"
				},
				{
					"inputs": [],
					"name": "ZeroAddress",
					"type": "error"
				},
				{
					"inputs": [],
					"name": "ZeroAmount",
					"type": "error"
				},
				{
					"anonymous": false,
					"inputs": [
						{
							"indexed": true,
							"internalType": "address",
							"name": "player",
							"type": "address"
						},
						{
							"indexed": false,
							"internalType": "uint256",
							"name": "timbsAmount",
							"type": "uint256"
						}
					],
					"name": "AdditionalRoundSinked",
					"type": "event"
				},
				{
					"anonymous": false,
					"inputs": [
						{
							"indexed": false,
							"internalType": "uint256",
							"name": "round",
							"type": "uint256"
						}
					],
					"name": "CurrentRoundUpdated",
					"type": "event"
				},
				{
					"anonymous": false,
					"inputs": [
						{
							"indexed": false,
							"internalType": "uint256",
							"name": "timbsCost",
							"type": "uint256"
						},
						{
							"indexed": false,
							"internalType": "uint256",
							"name": "ethCost",
							"type": "uint256"
						}
					],
					"name": "EntryCostUpdated",
					"type": "event"
				},
				{
					"anonymous": false,
					"inputs": [
						{
							"indexed": true,
							"internalType": "address",
							"name": "player",
							"type": "address"
						},
						{
							"indexed": true,
							"internalType": "uint256",
							"name": "playRound",
							"type": "uint256"
						},
						{
							"indexed": false,
							"internalType": "bytes6",
							"name": "oldString",
							"type": "bytes6"
						},
						{
							"indexed": false,
							"internalType": "bytes6",
							"name": "newString",
							"type": "bytes6"
						},
						{
							"indexed": false,
							"internalType": "uint256",
							"name": "additionalTimbs",
							"type": "uint256"
						}
					],
					"name": "EntryReplaced",
					"type": "event"
				},
				{
					"anonymous": false,
					"inputs": [
						{
							"indexed": true,
							"internalType": "address",
							"name": "player",
							"type": "address"
						},
						{
							"indexed": true,
							"internalType": "uint256",
							"name": "round",
							"type": "uint256"
						},
						{
							"indexed": false,
							"internalType": "enum GameRegistry.EntryStatus",
							"name": "newStatus",
							"type": "uint8"
						}
					],
					"name": "EntryStatusUpdated",
					"type": "event"
				},
				{
					"anonymous": false,
					"inputs": [
						{
							"indexed": true,
							"internalType": "address",
							"name": "player",
							"type": "address"
						},
						{
							"indexed": true,
							"internalType": "uint256",
							"name": "playRound",
							"type": "uint256"
						},
						{
							"indexed": false,
							"internalType": "bytes6",
							"name": "string6",
							"type": "bytes6"
						},
						{
							"indexed": false,
							"internalType": "uint256",
							"name": "escrowAmount",
							"type": "uint256"
						},
						{
							"indexed": false,
							"internalType": "address",
							"name": "escrowToken",
							"type": "address"
						},
						{
							"indexed": false,
							"internalType": "uint256",
							"name": "lastEligibleRound",
							"type": "uint256"
						}
					],
					"name": "EntrySubmitted",
					"type": "event"
				},
				{
					"anonymous": false,
					"inputs": [
						{
							"indexed": true,
							"internalType": "address",
							"name": "player",
							"type": "address"
						},
						{
							"indexed": true,
							"internalType": "uint256",
							"name": "round",
							"type": "uint256"
						},
						{
							"indexed": false,
							"internalType": "uint256",
							"name": "amount",
							"type": "uint256"
						},
						{
							"indexed": false,
							"internalType": "address",
							"name": "token",
							"type": "address"
						}
					],
					"name": "EscrowRefunded",
					"type": "event"
				},
				{
					"anonymous": false,
					"inputs": [
						{
							"indexed": true,
							"internalType": "address",
							"name": "previousOwner",
							"type": "address"
						},
						{
							"indexed": true,
							"internalType": "address",
							"name": "newOwner",
							"type": "address"
						}
					],
					"name": "OwnershipTransferred",
					"type": "event"
				},
				{
					"anonymous": false,
					"inputs": [
						{
							"indexed": true,
							"internalType": "address",
							"name": "by",
							"type": "address"
						}
					],
					"name": "Paused",
					"type": "event"
				},
				{
					"anonymous": false,
					"inputs": [
						{
							"indexed": true,
							"internalType": "address",
							"name": "sink",
							"type": "address"
						}
					],
					"name": "ProtocolSinkSet",
					"type": "event"
				},
				{
					"anonymous": false,
					"inputs": [
						{
							"indexed": true,
							"internalType": "address",
							"name": "timbPrize",
							"type": "address"
						}
					],
					"name": "TimbPrizeSet",
					"type": "event"
				},
				{
					"anonymous": false,
					"inputs": [
						{
							"indexed": true,
							"internalType": "address",
							"name": "by",
							"type": "address"
						}
					],
					"name": "Unpaused",
					"type": "event"
				},
				{
					"inputs": [
						{
							"internalType": "uint256",
							"name": "round",
							"type": "uint256"
						},
						{
							"internalType": "address[]",
							"name": "players",
							"type": "address[]"
						}
					],
					"name": "activateRoundEntries",
					"outputs": [],
					"stateMutability": "nonpayable",
					"type": "function"
				},
				{
					"inputs": [
						{
							"internalType": "uint256",
							"name": "extraRounds",
							"type": "uint256"
						}
					],
					"name": "additionalRoundCost",
					"outputs": [
						{
							"internalType": "uint256",
							"name": "",
							"type": "uint256"
						}
					],
					"stateMutability": "view",
					"type": "function"
				},
				{
					"inputs": [
						{
							"internalType": "uint256",
							"name": "round",
							"type": "uint256"
						}
					],
					"name": "claimRefund",
					"outputs": [],
					"stateMutability": "nonpayable",
					"type": "function"
				},
				{
					"inputs": [],
					"name": "currentRound",
					"outputs": [
						{
							"internalType": "uint256",
							"name": "",
							"type": "uint256"
						}
					],
					"stateMutability": "view",
					"type": "function"
				},
				{
					"inputs": [
						{
							"internalType": "address",
							"name": "",
							"type": "address"
						},
						{
							"internalType": "uint256",
							"name": "",
							"type": "uint256"
						}
					],
					"name": "entries",
					"outputs": [
						{
							"internalType": "bytes6",
							"name": "string6",
							"type": "bytes6"
						},
						{
							"internalType": "uint256",
							"name": "entryRound",
							"type": "uint256"
						},
						{
							"internalType": "uint256",
							"name": "lastEligibleRound",
							"type": "uint256"
						},
						{
							"internalType": "uint256",
							"name": "escrowAmount",
							"type": "uint256"
						},
						{
							"internalType": "address",
							"name": "escrowToken",
							"type": "address"
						},
						{
							"internalType": "enum GameRegistry.EntryStatus",
							"name": "status",
							"type": "uint8"
						},
						{
							"internalType": "bool",
							"name": "exists",
							"type": "bool"
						}
					],
					"stateMutability": "view",
					"type": "function"
				},
				{
					"inputs": [],
					"name": "entryCostETH",
					"outputs": [
						{
							"internalType": "uint256",
							"name": "",
							"type": "uint256"
						}
					],
					"stateMutability": "view",
					"type": "function"
				},
				{
					"inputs": [],
					"name": "entryCostTIMBS",
					"outputs": [
						{
							"internalType": "uint256",
							"name": "",
							"type": "uint256"
						}
					],
					"stateMutability": "view",
					"type": "function"
				},
				{
					"inputs": [
						{
							"internalType": "address",
							"name": "player",
							"type": "address"
						},
						{
							"internalType": "uint256",
							"name": "round",
							"type": "uint256"
						}
					],
					"name": "expireEntry",
					"outputs": [],
					"stateMutability": "nonpayable",
					"type": "function"
				},
				{
					"inputs": [
						{
							"internalType": "address",
							"name": "player",
							"type": "address"
						},
						{
							"internalType": "uint256",
							"name": "round",
							"type": "uint256"
						}
					],
					"name": "getEntry",
					"outputs": [
						{
							"components": [
								{
									"internalType": "bytes6",
									"name": "string6",
									"type": "bytes6"
								},
								{
									"internalType": "uint256",
									"name": "entryRound",
									"type": "uint256"
								},
								{
									"internalType": "uint256",
									"name": "lastEligibleRound",
									"type": "uint256"
								},
								{
									"internalType": "uint256",
									"name": "escrowAmount",
									"type": "uint256"
								},
								{
									"internalType": "address",
									"name": "escrowToken",
									"type": "address"
								},
								{
									"internalType": "enum GameRegistry.EntryStatus",
									"name": "status",
									"type": "uint8"
								},
								{
									"internalType": "bool",
									"name": "exists",
									"type": "bool"
								}
							],
							"internalType": "struct GameRegistry.EntryData",
							"name": "",
							"type": "tuple"
						}
					],
					"stateMutability": "view",
					"type": "function"
				},
				{
					"inputs": [
						{
							"internalType": "bytes6",
							"name": "string6",
							"type": "bytes6"
						}
					],
					"name": "getIdenticalCount",
					"outputs": [
						{
							"internalType": "uint256",
							"name": "",
							"type": "uint256"
						}
					],
					"stateMutability": "view",
					"type": "function"
				},
				{
					"inputs": [
						{
							"internalType": "address",
							"name": "player",
							"type": "address"
						}
					],
					"name": "getPlayerHistory",
					"outputs": [
						{
							"components": [
								{
									"internalType": "bytes6",
									"name": "string6",
									"type": "bytes6"
								},
								{
									"internalType": "uint256",
									"name": "entryRound",
									"type": "uint256"
								},
								{
									"internalType": "uint256",
									"name": "lastEligibleRound",
									"type": "uint256"
								},
								{
									"internalType": "uint256",
									"name": "escrowAmount",
									"type": "uint256"
								},
								{
									"internalType": "address",
									"name": "escrowToken",
									"type": "address"
								},
								{
									"internalType": "enum GameRegistry.EntryStatus",
									"name": "status",
									"type": "uint8"
								},
								{
									"internalType": "bool",
									"name": "exists",
									"type": "bool"
								}
							],
							"internalType": "struct GameRegistry.EntryData[]",
							"name": "history",
							"type": "tuple[]"
						}
					],
					"stateMutability": "view",
					"type": "function"
				},
				{
					"inputs": [
						{
							"internalType": "address",
							"name": "player",
							"type": "address"
						}
					],
					"name": "getPlayerRounds",
					"outputs": [
						{
							"internalType": "uint256[]",
							"name": "",
							"type": "uint256[]"
						}
					],
					"stateMutability": "view",
					"type": "function"
				},
				{
					"inputs": [
						{
							"internalType": "uint256",
							"name": "round",
							"type": "uint256"
						}
					],
					"name": "getRoundEntrants",
					"outputs": [
						{
							"internalType": "address[]",
							"name": "",
							"type": "address[]"
						}
					],
					"stateMutability": "view",
					"type": "function"
				},
				{
					"inputs": [
						{
							"internalType": "uint256",
							"name": "round",
							"type": "uint256"
						},
						{
							"internalType": "bytes6",
							"name": "string6",
							"type": "bytes6"
						}
					],
					"name": "getStringEntrants",
					"outputs": [
						{
							"internalType": "address[]",
							"name": "",
							"type": "address[]"
						}
					],
					"stateMutability": "view",
					"type": "function"
				},
				{
					"inputs": [
						{
							"internalType": "uint256",
							"name": "",
							"type": "uint256"
						},
						{
							"internalType": "address",
							"name": "",
							"type": "address"
						}
					],
					"name": "hasEntryInRound",
					"outputs": [
						{
							"internalType": "bool",
							"name": "",
							"type": "bool"
						}
					],
					"stateMutability": "view",
					"type": "function"
				},
				{
					"inputs": [
						{
							"internalType": "address",
							"name": "player",
							"type": "address"
						},
						{
							"internalType": "uint256",
							"name": "round",
							"type": "uint256"
						}
					],
					"name": "markInactive",
					"outputs": [],
					"stateMutability": "nonpayable",
					"type": "function"
				},
				{
					"inputs": [],
					"name": "owner",
					"outputs": [
						{
							"internalType": "address",
							"name": "",
							"type": "address"
						}
					],
					"stateMutability": "view",
					"type": "function"
				},
				{
					"inputs": [],
					"name": "pause",
					"outputs": [],
					"stateMutability": "nonpayable",
					"type": "function"
				},
				{
					"inputs": [],
					"name": "paused",
					"outputs": [
						{
							"internalType": "bool",
							"name": "",
							"type": "bool"
						}
					],
					"stateMutability": "view",
					"type": "function"
				},
				{
					"inputs": [
						{
							"internalType": "address",
							"name": "",
							"type": "address"
						},
						{
							"internalType": "uint256",
							"name": "",
							"type": "uint256"
						}
					],
					"name": "playerRounds",
					"outputs": [
						{
							"internalType": "uint256",
							"name": "",
							"type": "uint256"
						}
					],
					"stateMutability": "view",
					"type": "function"
				},
				{
					"inputs": [],
					"name": "protocolSink",
					"outputs": [
						{
							"internalType": "address",
							"name": "",
							"type": "address"
						}
					],
					"stateMutability": "view",
					"type": "function"
				},
				{
					"inputs": [],
					"name": "renounceOwnership",
					"outputs": [],
					"stateMutability": "nonpayable",
					"type": "function"
				},
				{
					"inputs": [
						{
							"internalType": "bytes6",
							"name": "newString6",
							"type": "bytes6"
						},
						{
							"internalType": "uint256",
							"name": "extraRounds",
							"type": "uint256"
						}
					],
					"name": "replaceEntry",
					"outputs": [],
					"stateMutability": "payable",
					"type": "function"
				},
				{
					"inputs": [
						{
							"internalType": "uint256",
							"name": "",
							"type": "uint256"
						},
						{
							"internalType": "uint256",
							"name": "",
							"type": "uint256"
						}
					],
					"name": "roundEntrants",
					"outputs": [
						{
							"internalType": "address",
							"name": "",
							"type": "address"
						}
					],
					"stateMutability": "view",
					"type": "function"
				},
				{
					"inputs": [
						{
							"internalType": "uint256",
							"name": "round",
							"type": "uint256"
						}
					],
					"name": "setCurrentRound",
					"outputs": [],
					"stateMutability": "nonpayable",
					"type": "function"
				},
				{
					"inputs": [
						{
							"internalType": "uint256",
							"name": "_timbsCost",
							"type": "uint256"
						},
						{
							"internalType": "uint256",
							"name": "_ethCost",
							"type": "uint256"
						}
					],
					"name": "setEntryCosts",
					"outputs": [],
					"stateMutability": "nonpayable",
					"type": "function"
				},
				{
					"inputs": [
						{
							"internalType": "address",
							"name": "_sink",
							"type": "address"
						}
					],
					"name": "setProtocolSink",
					"outputs": [],
					"stateMutability": "nonpayable",
					"type": "function"
				},
				{
					"inputs": [
						{
							"internalType": "address",
							"name": "_timbPrize",
							"type": "address"
						}
					],
					"name": "setTimbPrize",
					"outputs": [],
					"stateMutability": "nonpayable",
					"type": "function"
				},
				{
					"inputs": [
						{
							"internalType": "uint256",
							"name": "",
							"type": "uint256"
						},
						{
							"internalType": "bytes6",
							"name": "",
							"type": "bytes6"
						},
						{
							"internalType": "uint256",
							"name": "",
							"type": "uint256"
						}
					],
					"name": "stringEntrants",
					"outputs": [
						{
							"internalType": "address",
							"name": "",
							"type": "address"
						}
					],
					"stateMutability": "view",
					"type": "function"
				},
				{
					"inputs": [
						{
							"internalType": "bytes6",
							"name": "string6",
							"type": "bytes6"
						},
						{
							"internalType": "bool",
							"name": "useETH",
							"type": "bool"
						},
						{
							"internalType": "uint256",
							"name": "extraRounds",
							"type": "uint256"
						}
					],
					"name": "submitEntry",
					"outputs": [],
					"stateMutability": "payable",
					"type": "function"
				},
				{
					"inputs": [],
					"name": "timbPrize",
					"outputs": [
						{
							"internalType": "address",
							"name": "",
							"type": "address"
						}
					],
					"stateMutability": "view",
					"type": "function"
				},
				{
					"inputs": [],
					"name": "timbsToken",
					"outputs": [
						{
							"internalType": "contract IERC20",
							"name": "",
							"type": "address"
						}
					],
					"stateMutability": "view",
					"type": "function"
				},
				{
					"inputs": [
						{
							"internalType": "address",
							"name": "newOwner",
							"type": "address"
						}
					],
					"name": "transferOwnership",
					"outputs": [],
					"stateMutability": "nonpayable",
					"type": "function"
				},
				{
					"inputs": [],
					"name": "unpause",
					"outputs": [],
					"stateMutability": "nonpayable",
					"type": "function"
				},
				{
					"inputs": [
						{
							"internalType": "bytes6",
							"name": "s",
							"type": "bytes6"
						}
					],
					"name": "validateString",
					"outputs": [
						{
							"internalType": "bool",
							"name": "valid",
							"type": "bool"
						},
						{
							"internalType": "string",
							"name": "reason",
							"type": "string"
						}
					],
					"stateMutability": "pure",
					"type": "function"
				},
				{
					"inputs": [
						{
							"internalType": "address",
							"name": "player",
							"type": "address"
						},
						{
							"internalType": "uint256",
							"name": "round",
							"type": "uint256"
						}
					],
					"name": "verifyEntryExisted",
					"outputs": [
						{
							"internalType": "bool",
							"name": "exists",
							"type": "bool"
						},
						{
							"internalType": "bytes6",
							"name": "string6",
							"type": "bytes6"
						}
					],
					"stateMutability": "view",
					"type": "function"
				},
				{
					"inputs": [
						{
							"internalType": "address",
							"name": "player",
							"type": "address"
						},
						{
							"internalType": "uint256",
							"name": "round",
							"type": "uint256"
						}
					],
					"name": "verifyEntryValid",
					"outputs": [
						{
							"internalType": "bool",
							"name": "valid",
							"type": "bool"
						},
						{
							"internalType": "bytes6",
							"name": "string6",
							"type": "bytes6"
						}
					],
					"stateMutability": "view",
					"type": "function"
				},
				{
					"stateMutability": "payable",
					"type": "receive"
				}
			],
			"devdoc": {
				"errors": {
					"OwnableInvalidOwner(address)": [
						{
							"details": "The owner is not a valid owner account. (eg. `address(0)`)"
						}
					],
					"OwnableUnauthorizedAccount(address)": [
						{
							"details": "The caller account is not authorized to perform an operation."
						}
					],
					"ReentrancyGuardReentrantCall()": [
						{
							"details": "Unauthorized reentrant call."
						}
					],
					"SafeERC20FailedOperation(address)": [
						{
							"details": "An operation with an ERC-20 token failed."
						}
					]
				},
				"kind": "dev",
				"methods": {
					"activateRoundEntries(uint256,address[])": {
						"details": "Called by TimbPrize when a new round begins.      Sets all Pending entries for this round to Active.      Only TimbPrize can call.",
						"params": {
							"players": "Array of player addresses with entries in this round.",
							"round": "The round number being activated."
						}
					},
					"claimRefund(uint256)": {
						"details": "Available after entry's lastEligibleRound has passed AND      claim window (2 rounds) has not closed.      Caller must be the original entry owner.",
						"params": {
							"round": "The round the entry was playing in."
						}
					},
					"constructor": {
						"params": {
							"_protocolSink": "Address that receives additional-round TIMBS sinks.",
							"_timbPrize": "TimbPrize contract (can be set later via setTimbPrize).",
							"_timbsToken": "TIMBS ERC-20 address."
						}
					},
					"expireEntry(address,uint256)": {
						"details": "Called by TimbPrize at round close for entries past their window."
					},
					"getIdenticalCount(bytes6)": {
						"details": "Frontend calls this after entry submission to show collision count."
					},
					"getStringEntrants(uint256,bytes6)": {
						"details": "Used by TimbPrize at settlement to find winner candidates.      Returns raw list — settlement applies dual-layer filter."
					},
					"markInactive(address,uint256)": {
						"details": "Called by TimbPrize when unclaimed window expires."
					},
					"owner()": {
						"details": "Returns the address of the current owner."
					},
					"renounceOwnership()": {
						"details": "Leaves the contract without owner. It will not be possible to call `onlyOwner` functions. Can only be called by the current owner. NOTE: Renouncing ownership will leave the contract without an owner, thereby disabling any functionality that is only available to the owner."
					},
					"replaceEntry(bytes6,uint256)": {
						"details": "All-in-one atomic transaction:   1. Pre-flight: verify contract can pull new fees.   2. Old initial deposit transfers to new string entry.   3. Old additional-round TIMBS already in sink — no action needed.   4. New string set on-chain.   5. New additional-round TIMBS pulled to sink if extraRounds > 0.      Pre-flight check happens BEFORE any state changes (defiSKILL).",
						"params": {
							"extraRounds": "New total extra rounds beyond N+1.",
							"newString6": "New 6-char string."
						}
					},
					"setCurrentRound(uint256)": {
						"details": "Called by TimbPrize at each round start."
					},
					"setEntryCosts(uint256,uint256)": {
						"details": "Called by owner when governance updates entryCostTIMBS or      when TIMBS/ETH price moves and ETH cost needs updating."
					},
					"submitEntry(bytes6,bool,uint256)": {
						"details": "Entries set in currentRound play in currentRound + 1.      ETH entries: send msg.value == entryCostETH.      TIMBS entries: approve this contract for entryCostTIMBS first.      Additional rounds: must also approve        extraRounds × entryCostTIMBS additional TIMBS.",
						"params": {
							"extraRounds": "Additional rounds to keep string active beyond N+1.                      Each costs entryCostTIMBS TIMBS (non-refundable).",
							"string6": "6-char entry string (A-Z, 0-9, no repeats, uppercase).",
							"useETH": "True = pay initial cost in ETH, false = TIMBS."
						}
					},
					"transferOwnership(address)": {
						"details": "Transfers ownership of the contract to a new account (`newOwner`). Can only be called by the current owner."
					},
					"validateString(bytes6)": {
						"returns": {
							"reason": "Empty string if valid, human-readable reason if not.",
							"valid": "True if the string passes all validation rules."
						}
					},
					"verifyEntryExisted(address,uint256)": {
						"params": {
							"player": "Wallet address.",
							"round": "Round number to check."
						},
						"returns": {
							"exists": "True if entry was submitted for this round.",
							"string6": "The entry string (bytes6(0) if not found)."
						}
					},
					"verifyEntryValid(address,uint256)": {
						"params": {
							"player": "Wallet address.",
							"round": "Round number."
						},
						"returns": {
							"string6": "The current entry string.",
							"valid": " True if entry is Active and round <= lastEligibleRound."
						}
					}
				},
				"title": "GameRegistry",
				"version": 1
			},
			"evm": {
				"assembly": "    /* \"contractss/GameRegistry.sol\":2182:27271  contract GameRegistry is Ownable, ReentrancyGuard {... */\n  mstore(0x40, 0xa0)\n    /* \"contractss/GameRegistry.sol\":7951:8361  constructor(... */\n  callvalue\n  dup1\n  iszero\n  tag_1\n  jumpi\n  0x00\n  dup1\n  revert\ntag_1:\n  pop\n  mload(0x40)\n  sub(codesize, bytecodeSize)\n  dup1\n  bytecodeSize\n  dup4\n  codecopy\n  dup2\n  add\n  0x40\n  dup2\n  swap1\n  mstore\n  tag_2\n  swap2\n  tag_3\n  jump\t// in\ntag_2:\n    /* \"contractss/GameRegistry.sol\":8065:8075  msg.sender */\n  caller\n  dup1\n    /* \"@openzeppelin/contracts/access/Ownable.sol\":1269:1364  if (initialOwner == address(0)) {... */\n  tag_8\n  jumpi\n    /* \"@openzeppelin/contracts/access/Ownable.sol\":1322:1353  OwnableInvalidOwner(address(0)) */\n  mload(0x40)\n  shl(0xe0, 0x1e4fbdf7)\n  dup2\n  mstore\n    /* \"@openzeppelin/contracts/access/Ownable.sol\":1350:1351  0 */\n  0x00\n    /* \"@openzeppelin/contracts/access/Ownable.sol\":1322:1353  OwnableInvalidOwner(address(0)) */\n  0x04\n  dup3\n  add\n    /* \"#utility.yul\":725:776   */\n  mstore\n    /* \"#utility.yul\":698:716   */\n  0x24\n  add\n    /* \"@openzeppelin/contracts/access/Ownable.sol\":1322:1353  OwnableInvalidOwner(address(0)) */\n  mload(0x40)\n  dup1\n  swap2\n  sub\n  swap1\n  revert\n    /* \"@openzeppelin/contracts/access/Ownable.sol\":1269:1364  if (initialOwner == address(0)) {... */\ntag_8:\n    /* \"@openzeppelin/contracts/access/Ownable.sol\":1373:1405  _transferOwnership(initialOwner) */\n  tag_11\n    /* \"@openzeppelin/contracts/access/Ownable.sol\":1392:1404  initialOwner */\n  dup2\n    /* \"@openzeppelin/contracts/access/Ownable.sol\":1373:1391  _transferOwnership */\n  tag_12\n    /* \"@openzeppelin/contracts/access/Ownable.sol\":1373:1405  _transferOwnership(initialOwner) */\n  jump\t// in\ntag_11:\n  pop\n    /* \"@openzeppelin/contracts/utils/ReentrancyGuard.sol\":2365:2366  1 */\n  0x01\n    /* \"@openzeppelin/contracts/utils/ReentrancyGuard.sol\":1505:1571  0x9b779b17422d0df92223018b32b4d1fa46e071723d6817e2486d003becc55f00 */\n  0x9b779b17422d0df92223018b32b4d1fa46e071723d6817e2486d003becc55f00\n    /* \"@openzeppelin/contracts/utils/ReentrancyGuard.sol\":2539:2605  _reentrancyGuardStorageSlot().getUint256Slot().value = NOT_ENTERED */\n  sstore\n  sub(shl(0xa0, 0x01), 0x01)\n    /* \"contractss/GameRegistry.sol\":8091:8119  _timbsToken    == address(0) */\n  dup4\n  and\n    /* \"contractss/GameRegistry.sol\":8087:8141  if (_timbsToken    == address(0)) revert ZeroAddress() */\n  tag_19\n  jumpi\n    /* \"contractss/GameRegistry.sol\":8128:8141  ZeroAddress() */\n  mload(0x40)\n  shl(0xe0, 0xd92e233d)\n  dup2\n  mstore\n  0x04\n  add\n  mload(0x40)\n  dup1\n  swap2\n  sub\n  swap1\n  revert\n    /* \"contractss/GameRegistry.sol\":8087:8141  if (_timbsToken    == address(0)) revert ZeroAddress() */\ntag_19:\n  sub(shl(0xa0, 0x01), 0x01)\n    /* \"contractss/GameRegistry.sol\":8155:8183  _protocolSink  == address(0) */\n  dup3\n  and\n    /* \"contractss/GameRegistry.sol\":8151:8205  if (_protocolSink  == address(0)) revert ZeroAddress() */\n  tag_20\n  jumpi\n    /* \"contractss/GameRegistry.sol\":8192:8205  ZeroAddress() */\n  mload(0x40)\n  shl(0xe0, 0xd92e233d)\n  dup2\n  mstore\n  0x04\n  add\n  mload(0x40)\n  dup1\n  swap2\n  sub\n  swap1\n  revert\n    /* \"contractss/GameRegistry.sol\":8151:8205  if (_protocolSink  == address(0)) revert ZeroAddress() */\ntag_20:\n  sub(shl(0xa0, 0x01), 0x01)\n    /* \"contractss/GameRegistry.sol\":8215:8249  timbsToken   = IERC20(_timbsToken) */\n  swap3\n  dup4\n  and\n  0x80\n  mstore\n    /* \"contractss/GameRegistry.sol\":8259:8271  protocolSink */\n  0x01\n    /* \"contractss/GameRegistry.sol\":8259:8287  protocolSink = _protocolSink */\n  dup1\n  sload\n  swap3\n  dup5\n  and\n  not(sub(shl(0xa0, 0x01), 0x01))\n  swap4\n  dup5\n  and\n  or\n  swap1\n  sstore\n    /* \"contractss/GameRegistry.sol\":8297:8306  timbPrize */\n  0x02\n    /* \"contractss/GameRegistry.sol\":8297:8322  timbPrize    = _timbPrize */\n  dup1\n  sload\n  swap2\n  swap1\n  swap4\n  and\n  swap2\n  and\n  or\n  swap1\n  sstore\n    /* \"contractss/GameRegistry.sol\":2182:27271  contract GameRegistry is Ownable, ReentrancyGuard {... */\n  jump(tag_26)\n    /* \"@openzeppelin/contracts/access/Ownable.sol\":2912:3099  function _transferOwnership(address newOwner) internal virtual {... */\ntag_12:\n    /* \"@openzeppelin/contracts/access/Ownable.sol\":2985:3001  address oldOwner */\n  0x00\n    /* \"@openzeppelin/contracts/access/Ownable.sol\":3004:3010  _owner */\n  dup1\n  sload\n  sub(shl(0xa0, 0x01), 0x01)\n    /* \"@openzeppelin/contracts/access/Ownable.sol\":3020:3037  _owner = newOwner */\n  dup4\n  dup2\n  and\n  not(sub(shl(0xa0, 0x01), 0x01))\n  dup4\n  and\n  dup2\n  or\n  dup5\n  sstore\n    /* \"@openzeppelin/contracts/access/Ownable.sol\":3052:3092  OwnershipTransferred(oldOwner, newOwner) */\n  mload(0x40)\n    /* \"@openzeppelin/contracts/access/Ownable.sol\":3004:3010  _owner */\n  swap2\n  swap1\n  swap3\n  and\n  swap3\n  dup4\n  swap2\n    /* \"@openzeppelin/contracts/access/Ownable.sol\":3052:3092  OwnershipTransferred(oldOwner, newOwner) */\n  0x8be0079c531659141344cd1fd0a4f28419497f9722a3daafe3b4186f6b6457e0\n  swap2\n    /* \"@openzeppelin/contracts/access/Ownable.sol\":2985:3001  address oldOwner */\n  swap1\n    /* \"@openzeppelin/contracts/access/Ownable.sol\":3052:3092  OwnershipTransferred(oldOwner, newOwner) */\n  log3\n    /* \"@openzeppelin/contracts/access/Ownable.sol\":2975:3099  {... */\n  pop\n    /* \"@openzeppelin/contracts/access/Ownable.sol\":2912:3099  function _transferOwnership(address newOwner) internal virtual {... */\n  pop\n  jump\t// out\n    /* \"#utility.yul\":14:191   */\ntag_25:\n    /* \"#utility.yul\":93:106   */\n  dup1\n  mload\n  sub(shl(0xa0, 0x01), 0x01)\n    /* \"#utility.yul\":135:166   */\n  dup2\n  and\n    /* \"#utility.yul\":125:167   */\n  dup2\n  eq\n    /* \"#utility.yul\":115:185   */\n  tag_28\n  jumpi\n    /* \"#utility.yul\":181:182   */\n  0x00\n    /* \"#utility.yul\":178:179   */\n  dup1\n    /* \"#utility.yul\":171:183   */\n  revert\n    /* \"#utility.yul\":115:185   */\ntag_28:\n    /* \"#utility.yul\":14:191   */\n  swap2\n  swap1\n  pop\n  jump\t// out\n    /* \"#utility.yul\":196:574   */\ntag_3:\n    /* \"#utility.yul\":284:290   */\n  0x00\n    /* \"#utility.yul\":292:298   */\n  dup1\n    /* \"#utility.yul\":300:306   */\n  0x00\n    /* \"#utility.yul\":353:355   */\n  0x60\n    /* \"#utility.yul\":341:350   */\n  dup5\n    /* \"#utility.yul\":332:339   */\n  dup7\n    /* \"#utility.yul\":328:351   */\n  sub\n    /* \"#utility.yul\":324:356   */\n  slt\n    /* \"#utility.yul\":321:373   */\n  iszero\n  tag_30\n  jumpi\n    /* \"#utility.yul\":369:370   */\n  0x00\n    /* \"#utility.yul\":366:367   */\n  dup1\n    /* \"#utility.yul\":359:371   */\n  revert\n    /* \"#utility.yul\":321:373   */\ntag_30:\n    /* \"#utility.yul\":392:432   */\n  tag_31\n    /* \"#utility.yul\":422:431   */\n  dup5\n    /* \"#utility.yul\":392:432   */\n  tag_25\n  jump\t// in\ntag_31:\n    /* \"#utility.yul\":382:432   */\n  swap3\n  pop\n    /* \"#utility.yul\":451:500   */\n  tag_32\n    /* \"#utility.yul\":496:498   */\n  0x20\n    /* \"#utility.yul\":485:494   */\n  dup6\n    /* \"#utility.yul\":481:499   */\n  add\n    /* \"#utility.yul\":451:500   */\n  tag_25\n  jump\t// in\ntag_32:\n    /* \"#utility.yul\":441:500   */\n  swap2\n  pop\n    /* \"#utility.yul\":519:568   */\n  tag_33\n    /* \"#utility.yul\":564:566   */\n  0x40\n    /* \"#utility.yul\":553:562   */\n  dup6\n    /* \"#utility.yul\":549:567   */\n  add\n    /* \"#utility.yul\":519:568   */\n  tag_25\n  jump\t// in\ntag_33:\n    /* \"#utility.yul\":509:568   */\n  swap1\n  pop\n    /* \"#utility.yul\":196:574   */\n  swap3\n  pop\n  swap3\n  pop\n  swap3\n  jump\t// out\n    /* \"#utility.yul\":579:782   */\ntag_26:\n    /* \"contractss/GameRegistry.sol\":2182:27271  contract GameRegistry is Ownable, ReentrancyGuard {... */\n  mload(0x80)\n  codecopy(0x00, dataOffset(sub_0), dataSize(sub_0))\n  0x00\n  assignImmutable(\"0xcc1cf32daa775edd624f71ddb0d100d39c31c65becb67e6d2e7789fa58c10fe0\")\n  return(0x00, dataSize(sub_0))\nstop\n\nsub_0: assembly {\n        /* \"contractss/GameRegistry.sol\":2182:27271  contract GameRegistry is Ownable, ReentrancyGuard {... */\n      mstore(0x40, 0x80)\n      jumpi(tag_1, lt(calldatasize, 0x04))\n      shr(0xe0, calldataload(0x00))\n      dup1\n      0x715018a6\n      gt\n      tag_40\n      jumpi\n      dup1\n      0x8da5cb5b\n      gt\n      tag_41\n      jumpi\n      dup1\n      0xb8a740e0\n      gt\n      tag_42\n      jumpi\n      dup1\n      0xb8a740e0\n      eq\n      tag_35\n      jumpi\n      dup1\n      0xc106aee3\n      eq\n      tag_36\n      jumpi\n      dup1\n      0xd6b7e9d9\n      eq\n      tag_37\n      jumpi\n      dup1\n      0xecdd4f9f\n      eq\n      tag_38\n      jumpi\n      dup1\n      0xf2fde38b\n      eq\n      tag_39\n      jumpi\n      0x00\n      dup1\n      revert\n    tag_42:\n      dup1\n      0x8da5cb5b\n      eq\n      tag_30\n      jumpi\n      dup1\n      0x9fd11627\n      eq\n      tag_31\n      jumpi\n      dup1\n      0xa4ce555d\n      eq\n      tag_32\n      jumpi\n      dup1\n      0xa96de4f5\n      eq\n      tag_33\n      jumpi\n      dup1\n      0xb5740c9c\n      eq\n      tag_34\n      jumpi\n      0x00\n      dup1\n      revert\n    tag_41:\n      dup1\n      0x83d5d801\n      gt\n      tag_43\n      jumpi\n      dup1\n      0x83d5d801\n      eq\n      tag_25\n      jumpi\n      dup1\n      0x8456cb59\n      eq\n      tag_26\n      jumpi\n      dup1\n      0x87c3ac08\n      eq\n      tag_27\n      jumpi\n      dup1\n      0x8a19c8bc\n      eq\n      tag_28\n      jumpi\n      dup1\n      0x8d88f8d1\n      eq\n      tag_29\n      jumpi\n      0x00\n      dup1\n      revert\n    tag_43:\n      dup1\n      0x715018a6\n      eq\n      tag_21\n      jumpi\n      dup1\n      0x74c47393\n      eq\n      tag_22\n      jumpi\n      dup1\n      0x7a03ce4f\n      eq\n      tag_23\n      jumpi\n      dup1\n      0x8249a69c\n      eq\n      tag_24\n      jumpi\n      0x00\n      dup1\n      revert\n    tag_40:\n      dup1\n      0x42610993\n      gt\n      tag_44\n      jumpi\n      dup1\n      0x4ce04501\n      gt\n      tag_45\n      jumpi\n      dup1\n      0x4ce04501\n      eq\n      tag_16\n      jumpi\n      dup1\n      0x5364276d\n      eq\n      tag_17\n      jumpi\n      dup1\n      0x53b65d40\n      eq\n      tag_18\n      jumpi\n      dup1\n      0x5b7baf64\n      eq\n      tag_19\n      jumpi\n      dup1\n      0x5c975abb\n      eq\n      tag_20\n      jumpi\n      0x00\n      dup1\n      revert\n    tag_45:\n      dup1\n      0x42610993\n      eq\n      tag_12\n      jumpi\n      dup1\n      0x454ac84e\n      eq\n      tag_13\n      jumpi\n      dup1\n      0x45c952cb\n      eq\n      tag_14\n      jumpi\n      dup1\n      0x47f43ef2\n      eq\n      tag_15\n      jumpi\n      0x00\n      dup1\n      revert\n    tag_44:\n      dup1\n      0x2768a49f\n      gt\n      tag_46\n      jumpi\n      dup1\n      0x2768a49f\n      eq\n      tag_7\n      jumpi\n      dup1\n      0x27b23849\n      eq\n      tag_8\n      jumpi\n      dup1\n      0x338f0856\n      eq\n      tag_9\n      jumpi\n      dup1\n      0x3bc91e28\n      eq\n      tag_10\n      jumpi\n      dup1\n      0x3f4ba83a\n      eq\n      tag_11\n      jumpi\n      0x00\n      dup1\n      revert\n    tag_46:\n      dup1\n      0x0bd4c399\n      eq\n      tag_3\n      jumpi\n      dup1\n      0x0e31648f\n      eq\n      tag_4\n      jumpi\n      dup1\n      0x1330cd86\n      eq\n      tag_5\n      jumpi\n      dup1\n      0x233507b9\n      eq\n      tag_6\n      jumpi\n      0x00\n      dup1\n      revert\n    tag_1:\n      jumpi(tag_2, calldatasize)\n      stop\n    tag_2:\n      0x00\n      dup1\n      revert\n        /* \"contractss/GameRegistry.sol\":4468:4538  mapping(uint256 => mapping(bytes6 => address[])) public stringEntrants */\n    tag_3:\n      callvalue\n      dup1\n      iszero\n      tag_49\n      jumpi\n      0x00\n      dup1\n      revert\n    tag_49:\n      pop\n      tag_50\n      tag_51\n      calldatasize\n      0x04\n      tag_52\n      jump\t// in\n    tag_51:\n      tag_53\n      jump\t// in\n    tag_50:\n      mload(0x40)\n      sub(shl(0xa0, 0x01), 0x01)\n        /* \"#utility.yul\":685:717   */\n      swap1\n      swap2\n      and\n        /* \"#utility.yul\":667:718   */\n      dup2\n      mstore\n        /* \"#utility.yul\":655:657   */\n      0x20\n        /* \"#utility.yul\":640:658   */\n      add\n        /* \"contractss/GameRegistry.sol\":4468:4538  mapping(uint256 => mapping(bytes6 => address[])) public stringEntrants */\n    tag_54:\n      mload(0x40)\n      dup1\n      swap2\n      sub\n      swap1\n      return\n        /* \"contractss/GameRegistry.sol\":3379:3413  IERC20 public immutable timbsToken */\n    tag_4:\n      callvalue\n      dup1\n      iszero\n      tag_56\n      jumpi\n      0x00\n      dup1\n      revert\n    tag_56:\n      pop\n      tag_50\n      immutable(\"0xcc1cf32daa775edd624f71ddb0d100d39c31c65becb67e6d2e7789fa58c10fe0\")\n      dup2\n      jump\n        /* \"contractss/GameRegistry.sol\":19811:20281  function activateRoundEntries(uint256 round, address[] calldata players)... */\n    tag_5:\n      callvalue\n      dup1\n      iszero\n      tag_61\n      jumpi\n      0x00\n      dup1\n      revert\n    tag_61:\n      pop\n      tag_62\n      tag_63\n      calldatasize\n      0x04\n      tag_64\n      jump\t// in\n    tag_63:\n      tag_65\n      jump\t// in\n    tag_62:\n      stop\n        /* \"contractss/GameRegistry.sol\":26351:26505  function getPlayerRounds(address player)... */\n    tag_6:\n      callvalue\n      dup1\n      iszero\n      tag_66\n      jumpi\n      0x00\n      dup1\n      revert\n    tag_66:\n      pop\n      tag_67\n      tag_68\n      calldatasize\n      0x04\n      tag_69\n      jump\t// in\n    tag_68:\n      tag_70\n      jump\t// in\n    tag_67:\n      mload(0x40)\n      tag_54\n      swap2\n      swap1\n      tag_72\n      jump\t// in\n        /* \"contractss/GameRegistry.sol\":4622:4671  mapping(address => uint256[]) public playerRounds */\n    tag_7:\n      callvalue\n      dup1\n      iszero\n      tag_73\n      jumpi\n      0x00\n      dup1\n      revert\n    tag_73:\n      pop\n      tag_74\n      tag_75\n      calldatasize\n      0x04\n      tag_76\n      jump\t// in\n    tag_75:\n      tag_77\n      jump\t// in\n    tag_74:\n      mload(0x40)\n        /* \"#utility.yul\":3050:3075   */\n      swap1\n      dup2\n      mstore\n        /* \"#utility.yul\":3038:3040   */\n      0x20\n        /* \"#utility.yul\":3023:3041   */\n      add\n        /* \"contractss/GameRegistry.sol\":4622:4671  mapping(address => uint256[]) public playerRounds */\n      tag_54\n        /* \"#utility.yul\":2904:3081   */\n      jump\n        /* \"contractss/GameRegistry.sol\":25188:25387  function setTimbPrize(address _timbPrize) external onlyOwner {... */\n    tag_8:\n      callvalue\n      dup1\n      iszero\n      tag_80\n      jumpi\n      0x00\n      dup1\n      revert\n    tag_80:\n      pop\n      tag_62\n      tag_82\n      calldatasize\n      0x04\n      tag_69\n      jump\t// in\n    tag_82:\n      tag_83\n      jump\t// in\n        /* \"contractss/GameRegistry.sol\":9963:10788  function validateString(bytes6 s)... */\n    tag_9:\n      callvalue\n      dup1\n      iszero\n      tag_84\n      jumpi\n      0x00\n      dup1\n      revert\n    tag_84:\n      pop\n      tag_85\n      tag_86\n      calldatasize\n      0x04\n      tag_87\n      jump\t// in\n    tag_86:\n      tag_88\n      jump\t// in\n    tag_85:\n      mload(0x40)\n      tag_54\n      swap3\n      swap2\n      swap1\n      tag_90\n      jump\t// in\n        /* \"contractss/GameRegistry.sol\":21670:21811  function setCurrentRound(uint256 round) external onlyTimbPrize {... */\n    tag_10:\n      callvalue\n      dup1\n      iszero\n      tag_91\n      jumpi\n      0x00\n      dup1\n      revert\n    tag_91:\n      pop\n      tag_62\n      tag_93\n      calldatasize\n      0x04\n      tag_94\n      jump\t// in\n    tag_93:\n      tag_95\n      jump\t// in\n        /* \"contractss/GameRegistry.sol\":25735:25819  function unpause() external onlyOwner { paused = false; emit Unpaused(msg.sender); } */\n    tag_11:\n      callvalue\n      dup1\n      iszero\n      tag_96\n      jumpi\n      0x00\n      dup1\n      revert\n    tag_96:\n      pop\n      tag_62\n      tag_98\n      jump\t// in\n        /* \"contractss/GameRegistry.sol\":11691:14900  function submitEntry(... */\n    tag_12:\n      tag_62\n      tag_100\n      calldatasize\n      0x04\n      tag_101\n      jump\t// in\n    tag_100:\n      tag_102\n      jump\t// in\n        /* \"contractss/GameRegistry.sol\":23915:24069  function getRoundEntrants(uint256 round)... */\n    tag_13:\n      callvalue\n      dup1\n      iszero\n      tag_103\n      jumpi\n      0x00\n      dup1\n      revert\n    tag_103:\n      pop\n      tag_104\n      tag_105\n      calldatasize\n      0x04\n      tag_94\n      jump\t// in\n    tag_105:\n      tag_106\n      jump\t// in\n    tag_104:\n      mload(0x40)\n      tag_54\n      swap2\n      swap1\n      tag_108\n      jump\t// in\n        /* \"contractss/GameRegistry.sol\":3741:3770  uint256 public entryCostTIMBS */\n    tag_14:\n      callvalue\n      dup1\n      iszero\n      tag_109\n      jumpi\n      0x00\n      dup1\n      revert\n    tag_109:\n      pop\n      tag_74\n      sload(0x03)\n      dup2\n      jump\n        /* \"contractss/GameRegistry.sol\":20457:20814  function expireEntry(address player, uint256 round)... */\n    tag_15:\n      callvalue\n      dup1\n      iszero\n      tag_113\n      jumpi\n      0x00\n      dup1\n      revert\n    tag_113:\n      pop\n      tag_62\n      tag_115\n      calldatasize\n      0x04\n      tag_76\n      jump\t// in\n    tag_115:\n      tag_116\n      jump\t// in\n        /* \"contractss/GameRegistry.sol\":3508:3535  address public protocolSink */\n    tag_16:\n      callvalue\n      dup1\n      iszero\n      tag_117\n      jumpi\n      0x00\n      dup1\n      revert\n    tag_117:\n      pop\n      sload(0x01)\n      tag_50\n      swap1\n      sub(shl(0xa0, 0x01), 0x01)\n      and\n      dup2\n      jump\n        /* \"contractss/GameRegistry.sol\":3621:3645  address public timbPrize */\n    tag_17:\n      callvalue\n      dup1\n      iszero\n      tag_121\n      jumpi\n      0x00\n      dup1\n      revert\n    tag_121:\n      pop\n      sload(0x02)\n      tag_50\n      swap1\n      sub(shl(0xa0, 0x01), 0x01)\n      and\n      dup2\n      jump\n        /* \"contractss/GameRegistry.sol\":4273:4337  mapping(address => mapping(uint256 => EntryData)) public entries */\n    tag_18:\n      callvalue\n      dup1\n      iszero\n      tag_125\n      jumpi\n      0x00\n      dup1\n      revert\n    tag_125:\n      pop\n      tag_126\n      tag_127\n      calldatasize\n      0x04\n      tag_76\n      jump\t// in\n    tag_127:\n      0x07\n      0x20\n      swap1\n      dup2\n      mstore\n      0x00\n      swap3\n      dup4\n      mstore\n      0x40\n      dup1\n      dup5\n      keccak256\n      swap1\n      swap2\n      mstore\n      swap1\n      dup3\n      mstore\n      swap1\n      keccak256\n      dup1\n      sload\n      0x01\n      dup3\n      add\n      sload\n      0x02\n      dup4\n      add\n      sload\n      0x03\n      dup5\n      add\n      sload\n      0x04\n      swap1\n      swap5\n      add\n      sload\n      0xd0\n      swap4\n      swap1\n      swap4\n      shl\n      swap4\n      swap2\n      swap3\n      swap1\n      swap2\n      swap1\n      sub(shl(0xa0, 0x01), 0x01)\n      dup2\n      and\n      swap1\n      0xff\n      shl(0xa0, 0x01)\n      dup3\n      div\n      dup2\n      and\n      swap2\n      shl(0xa8, 0x01)\n      swap1\n      div\n      and\n      dup8\n      jump\n    tag_126:\n      mload(0x40)\n      tag_54\n      swap8\n      swap7\n      swap6\n      swap5\n      swap4\n      swap3\n      swap2\n      swap1\n      tag_130\n      jump\t// in\n        /* \"contractss/GameRegistry.sol\":17992:19277  function claimRefund(uint256 round) external nonReentrant {... */\n    tag_19:\n      callvalue\n      dup1\n      iszero\n      tag_131\n      jumpi\n      0x00\n      dup1\n      revert\n    tag_131:\n      pop\n      tag_62\n      tag_133\n      calldatasize\n      0x04\n      tag_94\n      jump\t// in\n    tag_133:\n      tag_134\n      jump\t// in\n        /* \"contractss/GameRegistry.sol\":4200:4218  bool public paused */\n    tag_20:\n      callvalue\n      dup1\n      iszero\n      tag_135\n      jumpi\n      0x00\n      dup1\n      revert\n    tag_135:\n      pop\n      sload(0x06)\n      tag_136\n      swap1\n      0xff\n      and\n      dup2\n      jump\n    tag_136:\n      mload(0x40)\n        /* \"#utility.yul\":6428:6442   */\n      swap1\n      iszero\n        /* \"#utility.yul\":6421:6443   */\n      iszero\n        /* \"#utility.yul\":6403:6444   */\n      dup2\n      mstore\n        /* \"#utility.yul\":6391:6393   */\n      0x20\n        /* \"#utility.yul\":6376:6394   */\n      add\n        /* \"contractss/GameRegistry.sol\":4200:4218  bool public paused */\n      tag_54\n        /* \"#utility.yul\":6263:6450   */\n      jump\n        /* \"@openzeppelin/contracts/access/Ownable.sol\":2293:2394  function renounceOwnership() public virtual onlyOwner {... */\n    tag_21:\n      callvalue\n      dup1\n      iszero\n      tag_140\n      jumpi\n      0x00\n      dup1\n      revert\n    tag_140:\n      pop\n      tag_62\n      tag_142\n      jump\t// in\n        /* \"contractss/GameRegistry.sol\":25454:25642  function setProtocolSink(address _sink) external onlyOwner {... */\n    tag_22:\n      callvalue\n      dup1\n      iszero\n      tag_143\n      jumpi\n      0x00\n      dup1\n      revert\n    tag_143:\n      pop\n      tag_62\n      tag_145\n      calldatasize\n      0x04\n      tag_69\n      jump\t// in\n    tag_145:\n      tag_146\n      jump\t// in\n        /* \"contractss/GameRegistry.sol\":20978:21551  function markInactive(address player, uint256 round)... */\n    tag_23:\n      callvalue\n      dup1\n      iszero\n      tag_147\n      jumpi\n      0x00\n      dup1\n      revert\n    tag_147:\n      pop\n      tag_62\n      tag_149\n      calldatasize\n      0x04\n      tag_76\n      jump\t// in\n    tag_149:\n      tag_150\n      jump\t// in\n        /* \"contractss/GameRegistry.sol\":26581:26932  function getPlayerHistory(address player)... */\n    tag_24:\n      callvalue\n      dup1\n      iszero\n      tag_151\n      jumpi\n      0x00\n      dup1\n      revert\n    tag_151:\n      pop\n      tag_152\n      tag_153\n      calldatasize\n      0x04\n      tag_69\n      jump\t// in\n    tag_153:\n      tag_154\n      jump\t// in\n    tag_152:\n      mload(0x40)\n      tag_54\n      swap2\n      swap1\n      tag_156\n      jump\t// in\n        /* \"contractss/GameRegistry.sol\":3860:3887  uint256 public entryCostETH */\n    tag_25:\n      callvalue\n      dup1\n      iszero\n      tag_157\n      jumpi\n      0x00\n      dup1\n      revert\n    tag_157:\n      pop\n      tag_74\n      sload(0x04)\n      dup2\n      jump\n        /* \"contractss/GameRegistry.sol\":25648:25730  function pause()   external onlyOwner { paused = true;  emit Paused(msg.sender); } */\n    tag_26:\n      callvalue\n      dup1\n      iszero\n      tag_161\n      jumpi\n      0x00\n      dup1\n      revert\n    tag_161:\n      pop\n      tag_62\n      tag_163\n      jump\t// in\n        /* \"contractss/GameRegistry.sol\":15731:17472  function replaceEntry(bytes6 newString6, uint256 extraRounds)... */\n    tag_27:\n      tag_62\n      tag_165\n      calldatasize\n      0x04\n      tag_166\n      jump\t// in\n    tag_165:\n      tag_167\n      jump\t// in\n        /* \"contractss/GameRegistry.sol\":4084:4111  uint256 public currentRound */\n    tag_28:\n      callvalue\n      dup1\n      iszero\n      tag_168\n      jumpi\n      0x00\n      dup1\n      revert\n    tag_168:\n      pop\n      tag_74\n      sload(0x05)\n      dup2\n      jump\n        /* \"contractss/GameRegistry.sol\":24819:25118  function setEntryCosts(uint256 _timbsCost, uint256 _ethCost)... */\n    tag_29:\n      callvalue\n      dup1\n      iszero\n      tag_172\n      jumpi\n      0x00\n      dup1\n      revert\n    tag_172:\n      pop\n      tag_62\n      tag_174\n      calldatasize\n      0x04\n      tag_175\n      jump\t// in\n    tag_174:\n      tag_176\n      jump\t// in\n        /* \"@openzeppelin/contracts/access/Ownable.sol\":1638:1723  function owner() public view virtual returns (address) {... */\n    tag_30:\n      callvalue\n      dup1\n      iszero\n      tag_177\n      jumpi\n      0x00\n      dup1\n      revert\n    tag_177:\n      pop\n        /* \"@openzeppelin/contracts/access/Ownable.sol\":1684:1691  address */\n      0x00\n        /* \"@openzeppelin/contracts/access/Ownable.sol\":1710:1716  _owner */\n      sload\n      sub(shl(0xa0, 0x01), 0x01)\n      and\n        /* \"@openzeppelin/contracts/access/Ownable.sol\":1638:1723  function owner() public view virtual returns (address) {... */\n      jump(tag_50)\n        /* \"contractss/GameRegistry.sol\":23643:23824  function getStringEntrants(uint256 round, bytes6 string6)... */\n    tag_31:\n      callvalue\n      dup1\n      iszero\n      tag_181\n      jumpi\n      0x00\n      dup1\n      revert\n    tag_181:\n      pop\n      tag_104\n      tag_183\n      calldatasize\n      0x04\n      tag_184\n      jump\t// in\n    tag_183:\n      tag_185\n      jump\t// in\n        /* \"contractss/GameRegistry.sol\":24248:24423  function getIdenticalCount(bytes6 string6)... */\n    tag_32:\n      callvalue\n      dup1\n      iszero\n      tag_187\n      jumpi\n      0x00\n      dup1\n      revert\n    tag_187:\n      pop\n      tag_74\n      tag_189\n      calldatasize\n      0x04\n      tag_87\n      jump\t// in\n    tag_189:\n      tag_190\n      jump\t// in\n        /* \"contractss/GameRegistry.sol\":22290:22586  function verifyEntryExisted(address player, uint256 round)... */\n    tag_33:\n      callvalue\n      dup1\n      iszero\n      tag_192\n      jumpi\n      0x00\n      dup1\n      revert\n    tag_192:\n      pop\n      tag_193\n      tag_194\n      calldatasize\n      0x04\n      tag_76\n      jump\t// in\n    tag_194:\n      tag_195\n      jump\t// in\n    tag_193:\n      0x40\n      dup1\n      mload\n        /* \"#utility.yul\":8697:8711   */\n      swap3\n      iszero\n        /* \"#utility.yul\":8690:8712   */\n      iszero\n        /* \"#utility.yul\":8672:8713   */\n      dup4\n      mstore\n      not(sub(shl(0xd0, 0x01), 0x01))\n        /* \"#utility.yul\":8749:8786   */\n      swap1\n      swap2\n      and\n        /* \"#utility.yul\":8744:8746   */\n      0x20\n        /* \"#utility.yul\":8729:8747   */\n      dup4\n      add\n        /* \"#utility.yul\":8722:8787   */\n      mstore\n        /* \"#utility.yul\":8645:8663   */\n      add\n        /* \"contractss/GameRegistry.sol\":22290:22586  function verifyEntryExisted(address player, uint256 round)... */\n      tag_54\n        /* \"#utility.yul\":8506:8793   */\n      jump\n        /* \"contractss/GameRegistry.sol\":4876:4943  mapping(uint256 => mapping(address => bool)) public hasEntryInRound */\n    tag_34:\n      callvalue\n      dup1\n      iszero\n      tag_198\n      jumpi\n      0x00\n      dup1\n      revert\n    tag_198:\n      pop\n      tag_136\n      tag_200\n      calldatasize\n      0x04\n      tag_201\n      jump\t// in\n    tag_200:\n      0x0b\n      0x20\n      swap1\n      dup2\n      mstore\n      0x00\n      swap3\n      dup4\n      mstore\n      0x40\n      dup1\n      dup5\n      keccak256\n      swap1\n      swap2\n      mstore\n      swap1\n      dup3\n      mstore\n      swap1\n      keccak256\n      sload\n      0xff\n      and\n      dup2\n      jump\n        /* \"contractss/GameRegistry.sol\":26106:26270  function getEntry(address player, uint256 round)... */\n    tag_35:\n      callvalue\n      dup1\n      iszero\n      tag_204\n      jumpi\n      0x00\n      dup1\n      revert\n    tag_204:\n      pop\n      tag_205\n      tag_206\n      calldatasize\n      0x04\n      tag_76\n      jump\t// in\n    tag_206:\n      tag_207\n      jump\t// in\n    tag_205:\n      mload(0x40)\n      tag_54\n      swap2\n      swap1\n      tag_209\n      jump\t// in\n        /* \"contractss/GameRegistry.sol\":22876:23401  function verifyEntryValid(address player, uint256 round)... */\n    tag_36:\n      callvalue\n      dup1\n      iszero\n      tag_210\n      jumpi\n      0x00\n      dup1\n      revert\n    tag_210:\n      pop\n      tag_193\n      tag_212\n      calldatasize\n      0x04\n      tag_76\n      jump\t// in\n    tag_212:\n      tag_213\n      jump\t// in\n        /* \"contractss/GameRegistry.sol\":27019:27181  function additionalRoundCost(uint256 extraRounds)... */\n    tag_37:\n      callvalue\n      dup1\n      iszero\n      tag_215\n      jumpi\n      0x00\n      dup1\n      revert\n    tag_215:\n      pop\n      tag_74\n      tag_217\n      calldatasize\n      0x04\n      tag_94\n      jump\t// in\n    tag_217:\n      tag_218\n      jump\t// in\n        /* \"contractss/GameRegistry.sol\":4740:4790  mapping(uint256 => address[]) public roundEntrants */\n    tag_38:\n      callvalue\n      dup1\n      iszero\n      tag_220\n      jumpi\n      0x00\n      dup1\n      revert\n    tag_220:\n      pop\n      tag_50\n      tag_222\n      calldatasize\n      0x04\n      tag_175\n      jump\t// in\n    tag_222:\n      tag_223\n      jump\t// in\n        /* \"@openzeppelin/contracts/access/Ownable.sol\":2543:2758  function transferOwnership(address newOwner) public virtual onlyOwner {... */\n    tag_39:\n      callvalue\n      dup1\n      iszero\n      tag_225\n      jumpi\n      0x00\n      dup1\n      revert\n    tag_225:\n      pop\n      tag_62\n      tag_227\n      calldatasize\n      0x04\n      tag_69\n      jump\t// in\n    tag_227:\n      tag_228\n      jump\t// in\n        /* \"contractss/GameRegistry.sol\":4468:4538  mapping(uint256 => mapping(bytes6 => address[])) public stringEntrants */\n    tag_53:\n      mstore(0x20, 0x08)\n      dup3\n      0x00\n      mstore\n      mstore(0x20, keccak256(0x00, 0x40))\n      dup2\n      0x00\n      mstore\n      keccak256(0x00, 0x40)\n      dup2\n      dup2\n      sload\n      dup2\n      lt\n      tag_229\n      jumpi\n      0x00\n      dup1\n      revert\n    tag_229:\n      0x00\n      swap2\n      dup3\n      mstore\n      0x20\n      swap1\n      swap2\n      keccak256\n      add\n      sload\n      sub(shl(0xa0, 0x01), 0x01)\n      and\n      swap3\n      pop\n      dup4\n      swap2\n      pop\n      pop\n      jump\t// out\n        /* \"contractss/GameRegistry.sol\":19811:20281  function activateRoundEntries(uint256 round, address[] calldata players)... */\n    tag_65:\n        /* \"contractss/GameRegistry.sol\":7460:7469  timbPrize */\n      and(sub(shl(0xa0, 0x01), 0x01), sload(0x02))\n        /* \"contractss/GameRegistry.sol\":7446:7456  msg.sender */\n      caller\n        /* \"contractss/GameRegistry.sol\":7446:7469  msg.sender != timbPrize */\n      eq\n        /* \"contractss/GameRegistry.sol\":7442:7492  if (msg.sender != timbPrize) revert NotTimbPrize() */\n      tag_232\n      jumpi\n        /* \"contractss/GameRegistry.sol\":7478:7492  NotTimbPrize() */\n      mload(0x40)\n      shl(0xe0, 0x3e94dce9)\n      dup2\n      mstore\n      0x04\n      add\n      mload(0x40)\n      dup1\n      swap2\n      sub\n      swap1\n      revert\n        /* \"contractss/GameRegistry.sol\":7442:7492  if (msg.sender != timbPrize) revert NotTimbPrize() */\n    tag_232:\n        /* \"contractss/GameRegistry.sol\":19942:19951  uint256 i */\n      0x00\n        /* \"contractss/GameRegistry.sol\":19937:20275  for (uint256 i = 0; i < players.length; i++) {... */\n    tag_234:\n        /* \"contractss/GameRegistry.sol\":19957:19975  i < players.length */\n      dup2\n      dup2\n      lt\n        /* \"contractss/GameRegistry.sol\":19937:20275  for (uint256 i = 0; i < players.length; i++) {... */\n      iszero\n      tag_235\n      jumpi\n        /* \"contractss/GameRegistry.sol\":19996:20019  EntryData storage entry */\n      0x00\n        /* \"contractss/GameRegistry.sol\":20022:20029  entries */\n      0x07\n        /* \"contractss/GameRegistry.sol\":20022:20041  entries[players[i]] */\n      0x00\n        /* \"contractss/GameRegistry.sol\":20030:20037  players */\n      dup6\n      dup6\n        /* \"contractss/GameRegistry.sol\":20038:20039  i */\n      dup6\n        /* \"contractss/GameRegistry.sol\":20030:20040  players[i] */\n      dup2\n      dup2\n      lt\n      tag_238\n      jumpi\n      tag_238\n      tag_239\n      jump\t// in\n    tag_238:\n      swap1\n      pop\n      0x20\n      mul\n      add\n      0x20\n      dup2\n      add\n      swap1\n      tag_240\n      swap2\n      swap1\n      tag_69\n      jump\t// in\n    tag_240:\n      sub(shl(0xa0, 0x01), 0x01)\n        /* \"contractss/GameRegistry.sol\":20022:20041  entries[players[i]] */\n      and\n      dup2\n      mstore\n      0x20\n      dup1\n      dup3\n      add\n      swap3\n      swap1\n      swap3\n      mstore\n      0x40\n      swap1\n      dup2\n      add\n      0x00\n      swap1\n      dup2\n      keccak256\n        /* \"contractss/GameRegistry.sol\":20022:20048  entries[players[i]][round] */\n      dup9\n      dup3\n      mstore\n      swap1\n      swap3\n      mstore\n      swap1\n      keccak256\n        /* \"contractss/GameRegistry.sol\":20066:20078  entry.exists */\n      0x04\n      dup2\n      add\n      sload\n        /* \"contractss/GameRegistry.sol\":20022:20048  entries[players[i]][round] */\n      swap1\n      swap2\n      pop\n      shl(0xa8, 0x01)\n        /* \"contractss/GameRegistry.sol\":20066:20078  entry.exists */\n      swap1\n      div\n      0xff\n      and\n        /* \"contractss/GameRegistry.sol\":20066:20117  entry.exists && entry.status == EntryStatus.Pending */\n      dup1\n      iszero\n      tag_241\n      jumpi\n      pop\n        /* \"contractss/GameRegistry.sol\":20098:20117  EntryStatus.Pending */\n      0x00\n        /* \"contractss/GameRegistry.sol\":20082:20094  entry.status */\n      0x04\n      dup3\n      dup2\n      add\n      sload\n      shl(0xa0, 0x01)\n      swap1\n      div\n      0xff\n      and\n      swap1\n        /* \"contractss/GameRegistry.sol\":20082:20117  entry.status == EntryStatus.Pending */\n      dup2\n      gt\n      iszero\n      tag_246\n      jumpi\n      tag_246\n      tag_244\n      jump\t// in\n    tag_246:\n      eq\n        /* \"contractss/GameRegistry.sol\":20066:20117  entry.exists && entry.status == EntryStatus.Pending */\n    tag_241:\n        /* \"contractss/GameRegistry.sol\":20062:20265  if (entry.exists && entry.status == EntryStatus.Pending) {... */\n      iszero\n      tag_247\n      jumpi\n        /* \"contractss/GameRegistry.sol\":20137:20149  entry.status */\n      0x04\n      dup2\n      add\n        /* \"contractss/GameRegistry.sol\":20137:20170  entry.status = EntryStatus.Active */\n      dup1\n      sload\n      not(shl(0xa0, 0xff))\n      and\n      shl(0xa0, 0x01)\n      or\n      swap1\n      sstore\n        /* \"contractss/GameRegistry.sol\":20224:20229  round */\n      dup5\n        /* \"contractss/GameRegistry.sol\":20212:20219  players */\n      dup5\n      dup5\n        /* \"contractss/GameRegistry.sol\":20220:20221  i */\n      dup5\n        /* \"contractss/GameRegistry.sol\":20212:20222  players[i] */\n      dup2\n      dup2\n      lt\n      tag_251\n      jumpi\n      tag_251\n      tag_239\n      jump\t// in\n    tag_251:\n      swap1\n      pop\n      0x20\n      mul\n      add\n      0x20\n      dup2\n      add\n      swap1\n      tag_252\n      swap2\n      swap1\n      tag_69\n      jump\t// in\n    tag_252:\n      sub(shl(0xa0, 0x01), 0x01)\n        /* \"contractss/GameRegistry.sol\":20193:20250  EntryStatusUpdated(players[i], round, EntryStatus.Active) */\n      and\n      0x1415547ac25cccddfd82d3b4bcad6c1a8383110d39e6799a32b6cc5f2987e914\n        /* \"contractss/GameRegistry.sol\":20231:20249  EntryStatus.Active */\n      0x01\n        /* \"contractss/GameRegistry.sol\":20193:20250  EntryStatusUpdated(players[i], round, EntryStatus.Active) */\n      mload(0x40)\n      tag_253\n      swap2\n      swap1\n      tag_254\n      jump\t// in\n    tag_253:\n      mload(0x40)\n      dup1\n      swap2\n      sub\n      swap1\n      log3\n        /* \"contractss/GameRegistry.sol\":20062:20265  if (entry.exists && entry.status == EntryStatus.Pending) {... */\n    tag_247:\n      pop\n        /* \"contractss/GameRegistry.sol\":19977:19980  i++ */\n      dup1\n      tag_255\n      dup2\n      tag_256\n      jump\t// in\n    tag_255:\n      swap2\n      pop\n      pop\n        /* \"contractss/GameRegistry.sol\":19937:20275  for (uint256 i = 0; i < players.length; i++) {... */\n      jump(tag_234)\n    tag_235:\n      pop\n        /* \"contractss/GameRegistry.sol\":19811:20281  function activateRoundEntries(uint256 round, address[] calldata players)... */\n      pop\n      pop\n      pop\n      jump\t// out\n        /* \"contractss/GameRegistry.sol\":26351:26505  function getPlayerRounds(address player)... */\n    tag_70:\n      sub(shl(0xa0, 0x01), 0x01)\n        /* \"contractss/GameRegistry.sol\":26478:26498  playerRounds[player] */\n      dup2\n      and\n      0x00\n      swap1\n      dup2\n      mstore\n        /* \"contractss/GameRegistry.sol\":26478:26490  playerRounds */\n      0x09\n        /* \"contractss/GameRegistry.sol\":26478:26498  playerRounds[player] */\n      0x20\n      swap1\n      dup2\n      mstore\n      0x40\n      swap2\n      dup3\n      swap1\n      keccak256\n        /* \"contractss/GameRegistry.sol\":26471:26498  return playerRounds[player] */\n      dup1\n      sload\n      dup4\n      mload\n      dup2\n      dup5\n      mul\n      dup2\n      add\n      dup5\n      add\n      swap1\n      swap5\n      mstore\n      dup1\n      dup5\n      mstore\n        /* \"contractss/GameRegistry.sol\":26439:26455  uint256[] memory */\n      0x60\n      swap4\n        /* \"contractss/GameRegistry.sol\":26471:26498  return playerRounds[player] */\n      swap3\n      dup4\n      add\n        /* \"contractss/GameRegistry.sol\":26478:26498  playerRounds[player] */\n      dup3\n        /* \"contractss/GameRegistry.sol\":26471:26498  return playerRounds[player] */\n      dup3\n      dup1\n      iszero\n      tag_258\n      jumpi\n      0x20\n      mul\n      dup3\n      add\n      swap2\n      swap1\n      0x00\n      mstore\n      keccak256(0x00, 0x20)\n      swap1\n    tag_259:\n      dup2\n      sload\n      dup2\n      mstore\n      0x20\n      add\n      swap1\n      0x01\n      add\n      swap1\n      dup1\n      dup4\n      gt\n      tag_259\n      jumpi\n    tag_258:\n      pop\n      pop\n      pop\n      pop\n      pop\n      swap1\n      pop\n        /* \"contractss/GameRegistry.sol\":26351:26505  function getPlayerRounds(address player)... */\n      swap2\n      swap1\n      pop\n      jump\t// out\n        /* \"contractss/GameRegistry.sol\":4622:4671  mapping(address => uint256[]) public playerRounds */\n    tag_77:\n      mstore(0x20, 0x09)\n      dup2\n      0x00\n      mstore\n      keccak256(0x00, 0x40)\n      dup2\n      dup2\n      sload\n      dup2\n      lt\n      tag_260\n      jumpi\n      0x00\n      dup1\n      revert\n    tag_260:\n      swap1\n      0x00\n      mstore\n      keccak256(0x00, 0x20)\n      add\n      0x00\n      swap2\n      pop\n      swap2\n      pop\n      pop\n      sload\n      dup2\n      jump\t// out\n        /* \"contractss/GameRegistry.sol\":25188:25387  function setTimbPrize(address _timbPrize) external onlyOwner {... */\n    tag_83:\n        /* \"@openzeppelin/contracts/access/Ownable.sol\":1531:1544  _checkOwner() */\n      tag_263\n        /* \"@openzeppelin/contracts/access/Ownable.sol\":1531:1542  _checkOwner */\n      tag_264\n        /* \"@openzeppelin/contracts/access/Ownable.sol\":1531:1544  _checkOwner() */\n      jump\t// in\n    tag_263:\n      sub(shl(0xa0, 0x01), 0x01)\n        /* \"contractss/GameRegistry.sol\":25263:25287  _timbPrize == address(0) */\n      dup2\n      and\n        /* \"contractss/GameRegistry.sol\":25259:25309  if (_timbPrize == address(0)) revert ZeroAddress() */\n      tag_266\n      jumpi\n        /* \"contractss/GameRegistry.sol\":25296:25309  ZeroAddress() */\n      mload(0x40)\n      shl(0xe0, 0xd92e233d)\n      dup2\n      mstore\n      0x04\n      add\n      mload(0x40)\n      dup1\n      swap2\n      sub\n      swap1\n      revert\n        /* \"contractss/GameRegistry.sol\":25259:25309  if (_timbPrize == address(0)) revert ZeroAddress() */\n    tag_266:\n        /* \"contractss/GameRegistry.sol\":25319:25328  timbPrize */\n      0x02\n        /* \"contractss/GameRegistry.sol\":25319:25341  timbPrize = _timbPrize */\n      dup1\n      sload\n      not(sub(shl(0xa0, 0x01), 0x01))\n      and\n      sub(shl(0xa0, 0x01), 0x01)\n      dup4\n      and\n      swap1\n      dup2\n      or\n      swap1\n      swap2\n      sstore\n        /* \"contractss/GameRegistry.sol\":25356:25380  TimbPrizeSet(_timbPrize) */\n      mload(0x40)\n      0x89386b8711bad3ec737a1746dbcc52de03de68add300345f9acb944c28ae03f3\n      swap1\n      0x00\n      swap1\n      log2\n        /* \"contractss/GameRegistry.sol\":25188:25387  function setTimbPrize(address _timbPrize) external onlyOwner {... */\n      pop\n      jump\t// out\n        /* \"contractss/GameRegistry.sol\":9963:10788  function validateString(bytes6 s)... */\n    tag_88:\n        /* \"contractss/GameRegistry.sol\":10044:10054  bool valid */\n      0x00\n        /* \"contractss/GameRegistry.sol\":10056:10076  string memory reason */\n      0x60\n        /* \"contractss/GameRegistry.sol\":10119:10130  uint64 seen */\n      0x00\n        /* \"contractss/GameRegistry.sol\":10149:10158  uint256 i */\n      dup1\n        /* \"contractss/GameRegistry.sol\":10144:10755  for (uint256 i = 0; i < 6; i++) {... */\n    tag_268:\n        /* \"contractss/GameRegistry.sol\":10168:10169  6 */\n      0x06\n        /* \"contractss/GameRegistry.sol\":10164:10165  i */\n      dup2\n        /* \"contractss/GameRegistry.sol\":10164:10169  i < 6 */\n      lt\n        /* \"contractss/GameRegistry.sol\":10144:10755  for (uint256 i = 0; i < 6; i++) {... */\n      iszero\n      tag_269\n      jumpi\n        /* \"contractss/GameRegistry.sol\":10190:10198  bytes1 c */\n      0x00\n        /* \"contractss/GameRegistry.sol\":10201:10202  s */\n      dup6\n        /* \"contractss/GameRegistry.sol\":10203:10204  i */\n      dup3\n        /* \"contractss/GameRegistry.sol\":10201:10205  s[i] */\n      0x06\n      dup2\n      lt\n      tag_272\n      jumpi\n      tag_272\n      tag_239\n      jump\t// in\n    tag_272:\n      byte\n      0xf8\n      shl\n      swap1\n      pop\n        /* \"contractss/GameRegistry.sol\":10219:10231  bool isUpper */\n      0x00\n      shl(0xf8, 0x41)\n      not(sub(shl(0xf8, 0x01), 0x01))\n        /* \"contractss/GameRegistry.sol\":10234:10243  c >= 0x41 */\n      dup4\n      and\n      lt\n      dup1\n      iszero\n      swap1\n        /* \"contractss/GameRegistry.sol\":10234:10256  c >= 0x41 && c <= 0x5A */\n      tag_273\n      jumpi\n      pop\n      shl(0xf9, 0x2d)\n      not(sub(shl(0xf8, 0x01), 0x01))\n        /* \"contractss/GameRegistry.sol\":10247:10256  c <= 0x5A */\n      dup4\n      and\n      gt\n      iszero\n        /* \"contractss/GameRegistry.sol\":10234:10256  c >= 0x41 && c <= 0x5A */\n    tag_273:\n        /* \"contractss/GameRegistry.sol\":10219:10256  bool isUpper = c >= 0x41 && c <= 0x5A */\n      swap1\n      pop\n        /* \"contractss/GameRegistry.sol\":10270:10282  bool isDigit */\n      0x00\n      shl(0xfc, 0x03)\n      not(sub(shl(0xf8, 0x01), 0x01))\n        /* \"contractss/GameRegistry.sol\":10285:10294  c >= 0x30 */\n      dup5\n      and\n      lt\n      dup1\n      iszero\n      swap1\n        /* \"contractss/GameRegistry.sol\":10285:10307  c >= 0x30 && c <= 0x39 */\n      tag_274\n      jumpi\n      pop\n      shl(0xf8, 0x39)\n      not(sub(shl(0xf8, 0x01), 0x01))\n        /* \"contractss/GameRegistry.sol\":10298:10307  c <= 0x39 */\n      dup5\n      and\n      gt\n      iszero\n        /* \"contractss/GameRegistry.sol\":10285:10307  c >= 0x30 && c <= 0x39 */\n    tag_274:\n        /* \"contractss/GameRegistry.sol\":10270:10307  bool isDigit = c >= 0x30 && c <= 0x39 */\n      swap1\n      pop\n        /* \"contractss/GameRegistry.sol\":10326:10333  isUpper */\n      dup2\n        /* \"contractss/GameRegistry.sol\":10325:10333  !isUpper */\n      iszero\n        /* \"contractss/GameRegistry.sol\":10325:10345  !isUpper && !isDigit */\n      dup1\n      iszero\n      tag_275\n      jumpi\n      pop\n        /* \"contractss/GameRegistry.sol\":10338:10345  isDigit */\n      dup1\n        /* \"contractss/GameRegistry.sol\":10337:10345  !isDigit */\n      iszero\n        /* \"contractss/GameRegistry.sol\":10325:10345  !isUpper && !isDigit */\n    tag_275:\n        /* \"contractss/GameRegistry.sol\":10321:10435  if (!isUpper && !isDigit) {... */\n      iszero\n      tag_276\n      jumpi\n        /* \"contractss/GameRegistry.sol\":10373:10378  false */\n      0x00\n        /* \"contractss/GameRegistry.sol\":10365:10420  return (false, \"Invalid character: must be A-Z or 0-9\") */\n      mload(0x40)\n      dup1\n      0x60\n      add\n      0x40\n      mstore\n      dup1\n      0x25\n      dup2\n      mstore\n      0x20\n      add\n      data_582bea4712673084765ac4d486dc94552284f9754b6452fea1ba251783f98b88\n      0x25\n      swap2\n      codecopy\n      swap7\n      pop\n      swap7\n      pop\n      pop\n      pop\n      pop\n      pop\n      pop\n        /* \"contractss/GameRegistry.sol\":9963:10788  function validateString(bytes6 s)... */\n      swap2\n      pop\n      swap2\n      jump\t// out\n        /* \"contractss/GameRegistry.sol\":10321:10435  if (!isUpper && !isDigit) {... */\n    tag_276:\n        /* \"contractss/GameRegistry.sol\":10448:10459  uint256 idx */\n      0x00\n        /* \"contractss/GameRegistry.sol\":10462:10469  isUpper */\n      dup3\n        /* \"contractss/GameRegistry.sol\":10462:10560  isUpper... */\n      tag_277\n      jumpi\n        /* \"contractss/GameRegistry.sol\":10531:10555  uint256(uint8(c)) - 0x30 */\n      tag_278\n        /* \"contractss/GameRegistry.sol\":10551:10555  0x30 */\n      0x30\n        /* \"contractss/GameRegistry.sol\":10539:10547  uint8(c) */\n      0xf8\n      dup7\n      swap1\n      shr\n        /* \"contractss/GameRegistry.sol\":10531:10555  uint256(uint8(c)) - 0x30 */\n      tag_279\n      jump\t// in\n    tag_278:\n        /* \"contractss/GameRegistry.sol\":10531:10560  uint256(uint8(c)) - 0x30 + 26 */\n      tag_280\n      swap1\n        /* \"contractss/GameRegistry.sol\":10558:10560  26 */\n      0x1a\n        /* \"contractss/GameRegistry.sol\":10531:10560  uint256(uint8(c)) - 0x30 + 26 */\n      tag_281\n      jump\t// in\n    tag_280:\n        /* \"contractss/GameRegistry.sol\":10462:10560  isUpper... */\n      jump(tag_283)\n    tag_277:\n        /* \"contractss/GameRegistry.sol\":10488:10512  uint256(uint8(c)) - 0x41 */\n      tag_283\n        /* \"contractss/GameRegistry.sol\":10508:10512  0x41 */\n      0x41\n        /* \"contractss/GameRegistry.sol\":10496:10504  uint8(c) */\n      0xf8\n      dup7\n      swap1\n      shr\n        /* \"contractss/GameRegistry.sol\":10488:10512  uint256(uint8(c)) - 0x41 */\n      tag_279\n      jump\t// in\n    tag_283:\n        /* \"contractss/GameRegistry.sol\":10448:10560  uint256 idx = isUpper... */\n      swap1\n      pop\n        /* \"contractss/GameRegistry.sol\":10594:10595  1 */\n      0x01\n        /* \"contractss/GameRegistry.sol\":10594:10602  1 << idx */\n      dup2\n      shl\n        /* \"contractss/GameRegistry.sol\":10621:10636  seen & bit != 0 */\n      0xffffffffffffffff\n        /* \"contractss/GameRegistry.sol\":10621:10631  seen & bit */\n      dup8\n      dup3\n      and\n        /* \"contractss/GameRegistry.sol\":10621:10636  seen & bit != 0 */\n      and\n      iszero\n        /* \"contractss/GameRegistry.sol\":10617:10720  if (seen & bit != 0) {... */\n      tag_284\n      jumpi\n        /* \"contractss/GameRegistry.sol\":10664:10669  false */\n      0x00\n        /* \"contractss/GameRegistry.sol\":10656:10705  return (false, \"Repeating character not allowed\") */\n      mload(0x40)\n      dup1\n      0x40\n      add\n      0x40\n      mstore\n      dup1\n      0x1f\n      dup2\n      mstore\n      0x20\n      add\n      0x526570656174696e6720636861726163746572206e6f7420616c6c6f77656400\n      dup2\n      mstore\n      pop\n      swap9\n      pop\n      swap9\n      pop\n      pop\n      pop\n      pop\n      pop\n      pop\n      pop\n      pop\n        /* \"contractss/GameRegistry.sol\":9963:10788  function validateString(bytes6 s)... */\n      swap2\n      pop\n      swap2\n      jump\t// out\n        /* \"contractss/GameRegistry.sol\":10617:10720  if (seen & bit != 0) {... */\n    tag_284:\n        /* \"contractss/GameRegistry.sol\":10741:10744  bit */\n      dup1\n        /* \"contractss/GameRegistry.sol\":10733:10744  seen |= bit */\n      dup8\n      or\n      swap7\n      pop\n        /* \"contractss/GameRegistry.sol\":10176:10755  {... */\n      pop\n      pop\n      pop\n      pop\n      pop\n        /* \"contractss/GameRegistry.sol\":10171:10174  i++ */\n      dup1\n      dup1\n      tag_285\n      swap1\n      tag_256\n      jump\t// in\n    tag_285:\n      swap2\n      pop\n      pop\n        /* \"contractss/GameRegistry.sol\":10144:10755  for (uint256 i = 0; i < 6; i++) {... */\n      jump(tag_268)\n    tag_269:\n      pop\n        /* \"contractss/GameRegistry.sol\":10772:10776  true */\n      0x01\n        /* \"contractss/GameRegistry.sol\":10764:10781  return (true, \"\") */\n      mload(0x40)\n      dup1\n      0x20\n      add\n      0x40\n      mstore\n      dup1\n      0x00\n      dup2\n      mstore\n      pop\n      swap3\n      pop\n      swap3\n      pop\n      pop\n        /* \"contractss/GameRegistry.sol\":9963:10788  function validateString(bytes6 s)... */\n      swap2\n      pop\n      swap2\n      jump\t// out\n        /* \"contractss/GameRegistry.sol\":21670:21811  function setCurrentRound(uint256 round) external onlyTimbPrize {... */\n    tag_95:\n        /* \"contractss/GameRegistry.sol\":7460:7469  timbPrize */\n      and(sub(shl(0xa0, 0x01), 0x01), sload(0x02))\n        /* \"contractss/GameRegistry.sol\":7446:7456  msg.sender */\n      caller\n        /* \"contractss/GameRegistry.sol\":7446:7469  msg.sender != timbPrize */\n      eq\n        /* \"contractss/GameRegistry.sol\":7442:7492  if (msg.sender != timbPrize) revert NotTimbPrize() */\n      tag_287\n      jumpi\n        /* \"contractss/GameRegistry.sol\":7478:7492  NotTimbPrize() */\n      mload(0x40)\n      shl(0xe0, 0x3e94dce9)\n      dup2\n      mstore\n      0x04\n      add\n      mload(0x40)\n      dup1\n      swap2\n      sub\n      swap1\n      revert\n        /* \"contractss/GameRegistry.sol\":7442:7492  if (msg.sender != timbPrize) revert NotTimbPrize() */\n    tag_287:\n        /* \"contractss/GameRegistry.sol\":21743:21755  currentRound */\n      0x05\n        /* \"contractss/GameRegistry.sol\":21743:21763  currentRound = round */\n      dup2\n      swap1\n      sstore\n        /* \"contractss/GameRegistry.sol\":21778:21804  CurrentRoundUpdated(round) */\n      mload(0x40)\n        /* \"#utility.yul\":3050:3075   */\n      dup2\n      dup2\n      mstore\n        /* \"contractss/GameRegistry.sol\":21778:21804  CurrentRoundUpdated(round) */\n      0x04db6a5933824de781cbd9e4632fb41f1d4100b9e8e62949ed7361f323ac1dd5\n      swap1\n        /* \"#utility.yul\":3038:3040   */\n      0x20\n        /* \"#utility.yul\":3023:3041   */\n      add\n        /* \"contractss/GameRegistry.sol\":21778:21804  CurrentRoundUpdated(round) */\n      mload(0x40)\n      dup1\n      swap2\n      sub\n      swap1\n      log1\n        /* \"contractss/GameRegistry.sol\":21670:21811  function setCurrentRound(uint256 round) external onlyTimbPrize {... */\n      pop\n      jump\t// out\n        /* \"contractss/GameRegistry.sol\":25735:25819  function unpause() external onlyOwner { paused = false; emit Unpaused(msg.sender); } */\n    tag_98:\n        /* \"@openzeppelin/contracts/access/Ownable.sol\":1531:1544  _checkOwner() */\n      tag_291\n        /* \"@openzeppelin/contracts/access/Ownable.sol\":1531:1542  _checkOwner */\n      tag_264\n        /* \"@openzeppelin/contracts/access/Ownable.sol\":1531:1544  _checkOwner() */\n      jump\t// in\n    tag_291:\n        /* \"contractss/GameRegistry.sol\":25775:25781  paused */\n      0x06\n        /* \"contractss/GameRegistry.sol\":25775:25789  paused = false */\n      dup1\n      sload\n      not(0xff)\n      and\n      swap1\n      sstore\n        /* \"contractss/GameRegistry.sol\":25796:25816  Unpaused(msg.sender) */\n      mload(0x40)\n        /* \"contractss/GameRegistry.sol\":25805:25815  msg.sender */\n      caller\n      swap1\n        /* \"contractss/GameRegistry.sol\":25796:25816  Unpaused(msg.sender) */\n      0x5db9ee0a495bf2e6ff9c91a7834c1ba4fdd244a5e8aa4e537bd38aeae4b073aa\n      swap1\n        /* \"contractss/GameRegistry.sol\":25784:25789  false */\n      0x00\n      swap1\n        /* \"contractss/GameRegistry.sol\":25796:25816  Unpaused(msg.sender) */\n      log2\n        /* \"contractss/GameRegistry.sol\":25735:25819  function unpause() external onlyOwner { paused = false; emit Unpaused(msg.sender); } */\n      jump\t// out\n        /* \"contractss/GameRegistry.sol\":11691:14900  function submitEntry(... */\n    tag_102:\n        /* \"@openzeppelin/contracts/utils/ReentrancyGuard.sol\":3023:3044  _nonReentrantBefore() */\n      tag_294\n        /* \"@openzeppelin/contracts/utils/ReentrancyGuard.sol\":3023:3042  _nonReentrantBefore */\n      tag_295\n        /* \"@openzeppelin/contracts/utils/ReentrancyGuard.sol\":3023:3044  _nonReentrantBefore() */\n      jump\t// in\n    tag_294:\n        /* \"contractss/GameRegistry.sol\":7352:7358  paused */\n      and(0xff, sload(0x06))\n        /* \"contractss/GameRegistry.sol\":7348:7383  if (paused) revert ContractPaused() */\n      iszero\n      tag_297\n      jumpi\n        /* \"contractss/GameRegistry.sol\":7367:7383  ContractPaused() */\n      mload(0x40)\n      shl(0xe0, 0xab35696f)\n      dup2\n      mstore\n      0x04\n      add\n      mload(0x40)\n      dup1\n      swap2\n      sub\n      swap1\n      revert\n        /* \"contractss/GameRegistry.sol\":7348:7383  if (paused) revert ContractPaused() */\n    tag_297:\n        /* \"contractss/GameRegistry.sol\":11886:11903  uint256 playRound */\n      0x00\n        /* \"contractss/GameRegistry.sol\":11906:11918  currentRound */\n      sload(0x05)\n        /* \"contractss/GameRegistry.sol\":11921:11922  1 */\n      0x01\n        /* \"contractss/GameRegistry.sol\":11906:11922  currentRound + 1 */\n      tag_299\n      swap2\n      swap1\n      tag_281\n      jump\t// in\n    tag_299:\n        /* \"contractss/GameRegistry.sol\":12005:12015  msg.sender */\n      caller\n        /* \"contractss/GameRegistry.sol\":11997:12016  entries[msg.sender] */\n      0x00\n      swap1\n      dup2\n      mstore\n        /* \"contractss/GameRegistry.sol\":11997:12004  entries */\n      0x07\n        /* \"contractss/GameRegistry.sol\":11997:12016  entries[msg.sender] */\n      0x20\n      swap1\n      dup2\n      mstore\n      0x40\n      dup1\n      dup4\n      keccak256\n        /* \"contractss/GameRegistry.sol\":11997:12027  entries[msg.sender][playRound] */\n      dup5\n      dup5\n      mstore\n      swap1\n      swap2\n      mstore\n      swap1\n      keccak256\n        /* \"contractss/GameRegistry.sol\":11997:12034  entries[msg.sender][playRound].exists */\n      0x04\n      add\n      sload\n        /* \"contractss/GameRegistry.sol\":11997:12027  entries[msg.sender][playRound] */\n      swap1\n      swap2\n      pop\n      shl(0xa8, 0x01)\n        /* \"contractss/GameRegistry.sol\":11997:12034  entries[msg.sender][playRound].exists */\n      swap1\n      div\n      0xff\n      and\n        /* \"contractss/GameRegistry.sol\":11993:12273  if (entries[msg.sender][playRound].exists) {... */\n      iszero\n      tag_310\n      jumpi\n        /* \"contractss/GameRegistry.sol\":12095:12113  EntryStatus.Active */\n      0x01\n        /* \"contractss/GameRegistry.sol\":12062:12072  msg.sender */\n      caller\n        /* \"contractss/GameRegistry.sol\":12054:12073  entries[msg.sender] */\n      0x00\n      swap1\n      dup2\n      mstore\n        /* \"contractss/GameRegistry.sol\":12054:12061  entries */\n      0x07\n        /* \"contractss/GameRegistry.sol\":12054:12073  entries[msg.sender] */\n      0x20\n      swap1\n      dup2\n      mstore\n      0x40\n      dup1\n      dup4\n      keccak256\n        /* \"contractss/GameRegistry.sol\":12054:12084  entries[msg.sender][playRound] */\n      dup6\n      dup5\n      mstore\n      swap1\n      swap2\n      mstore\n      swap1\n      keccak256\n        /* \"contractss/GameRegistry.sol\":12054:12091  entries[msg.sender][playRound].status */\n      0x04\n      swap1\n      dup2\n      add\n      sload\n      shl(0xa0, 0x01)\n      swap1\n      div\n      0xff\n      and\n      swap1\n        /* \"contractss/GameRegistry.sol\":12054:12113  entries[msg.sender][playRound].status == EntryStatus.Active */\n      dup2\n      gt\n      iszero\n      tag_304\n      jumpi\n      tag_304\n      tag_244\n      jump\t// in\n    tag_304:\n      eq\n        /* \"contractss/GameRegistry.sol\":12054:12193  entries[msg.sender][playRound].status == EntryStatus.Active ||... */\n      dup1\n      tag_305\n      jumpi\n      pop\n        /* \"contractss/GameRegistry.sol\":12174:12193  EntryStatus.Pending */\n      0x00\n        /* \"contractss/GameRegistry.sol\":12141:12151  msg.sender */\n      caller\n        /* \"contractss/GameRegistry.sol\":12133:12152  entries[msg.sender] */\n      0x00\n      swap1\n      dup2\n      mstore\n        /* \"contractss/GameRegistry.sol\":12133:12140  entries */\n      0x07\n        /* \"contractss/GameRegistry.sol\":12133:12152  entries[msg.sender] */\n      0x20\n      swap1\n      dup2\n      mstore\n      0x40\n      dup1\n      dup4\n      keccak256\n        /* \"contractss/GameRegistry.sol\":12133:12163  entries[msg.sender][playRound] */\n      dup6\n      dup5\n      mstore\n      swap1\n      swap2\n      mstore\n      swap1\n      keccak256\n        /* \"contractss/GameRegistry.sol\":12133:12170  entries[msg.sender][playRound].status */\n      0x04\n      swap1\n      dup2\n      add\n      sload\n      shl(0xa0, 0x01)\n      swap1\n      div\n      0xff\n      and\n      swap1\n        /* \"contractss/GameRegistry.sol\":12133:12193  entries[msg.sender][playRound].status == EntryStatus.Pending */\n      dup2\n      gt\n      iszero\n      tag_309\n      jumpi\n      tag_309\n      tag_244\n      jump\t// in\n    tag_309:\n      eq\n        /* \"contractss/GameRegistry.sol\":12054:12193  entries[msg.sender][playRound].status == EntryStatus.Active ||... */\n    tag_305:\n        /* \"contractss/GameRegistry.sol\":12050:12263  if (entries[msg.sender][playRound].status == EntryStatus.Active ||... */\n      iszero\n      tag_310\n      jumpi\n        /* \"contractss/GameRegistry.sol\":12220:12248  ActiveEntryExists(playRound) */\n      mload(0x40)\n      shl(0xe0, 0x9d50e103)\n      dup2\n      mstore\n      0x04\n      dup2\n      add\n        /* \"#utility.yul\":3050:3075   */\n      dup3\n      swap1\n      mstore\n        /* \"#utility.yul\":3023:3041   */\n      0x24\n      add\n        /* \"contractss/GameRegistry.sol\":12220:12248  ActiveEntryExists(playRound) */\n    tag_311:\n      mload(0x40)\n      dup1\n      swap2\n      sub\n      swap1\n      revert\n        /* \"contractss/GameRegistry.sol\":12050:12263  if (entries[msg.sender][playRound].status == EntryStatus.Active ||... */\n    tag_310:\n        /* \"contractss/GameRegistry.sol\":12310:12334  _validateString(string6) */\n      tag_312\n        /* \"contractss/GameRegistry.sol\":12326:12333  string6 */\n      dup5\n        /* \"contractss/GameRegistry.sol\":12310:12325  _validateString */\n      tag_313\n        /* \"contractss/GameRegistry.sol\":12310:12334  _validateString(string6) */\n      jump\t// in\n    tag_312:\n        /* \"contractss/GameRegistry.sol\":12378:12398  uint256 escrowAmount */\n      0x00\n        /* \"contractss/GameRegistry.sol\":12408:12427  address escrowToken */\n      dup1\n        /* \"contractss/GameRegistry.sol\":12442:12448  useETH */\n      dup5\n        /* \"contractss/GameRegistry.sol\":12438:13340  if (useETH) {... */\n      iszero\n      tag_314\n      jumpi\n        /* \"contractss/GameRegistry.sol\":12468:12477  msg.value */\n      callvalue\n        /* \"contractss/GameRegistry.sol\":12468:12482  msg.value == 0 */\n      iszero\n      dup1\n        /* \"contractss/GameRegistry.sol\":12468:12510  msg.value == 0 || msg.value < entryCostETH */\n      tag_315\n      jumpi\n      pop\n        /* \"contractss/GameRegistry.sol\":12498:12510  entryCostETH */\n      sload(0x04)\n        /* \"contractss/GameRegistry.sol\":12486:12495  msg.value */\n      callvalue\n        /* \"contractss/GameRegistry.sol\":12486:12510  msg.value < entryCostETH */\n      lt\n        /* \"contractss/GameRegistry.sol\":12468:12510  msg.value == 0 || msg.value < entryCostETH */\n    tag_315:\n        /* \"contractss/GameRegistry.sol\":12464:12594  if (msg.value == 0 || msg.value < entryCostETH) {... */\n      iszero\n      tag_316\n      jumpi\n        /* \"contractss/GameRegistry.sol\":12566:12578  entryCostETH */\n      0x04\n      dup1\n      sload\n        /* \"contractss/GameRegistry.sol\":12537:12579  WrongEscrowAmount(msg.value, entryCostETH) */\n      mload(0x40)\n      shl(0xe0, 0x0ee6446f)\n      dup2\n      mstore\n        /* \"contractss/GameRegistry.sol\":12555:12564  msg.value */\n      callvalue\n        /* \"contractss/GameRegistry.sol\":12537:12579  WrongEscrowAmount(msg.value, entryCostETH) */\n      swap3\n      dup2\n      add\n        /* \"#utility.yul\":10373:10398   */\n      swap3\n      swap1\n      swap3\n      mstore\n        /* \"#utility.yul\":10414:10432   */\n      0x24\n      dup3\n      add\n        /* \"#utility.yul\":10407:10441   */\n      mstore\n        /* \"#utility.yul\":10346:10364   */\n      0x44\n      add\n        /* \"contractss/GameRegistry.sol\":12537:12579  WrongEscrowAmount(msg.value, entryCostETH) */\n      tag_311\n        /* \"#utility.yul\":10199:10447   */\n      jump\n        /* \"contractss/GameRegistry.sol\":12464:12594  if (msg.value == 0 || msg.value < entryCostETH) {... */\n    tag_316:\n      pop\n      pop\n        /* \"contractss/GameRegistry.sol\":12622:12634  entryCostETH */\n      sload(0x04)\n        /* \"contractss/GameRegistry.sol\":12671:12672  0 */\n      0x00\n        /* \"contractss/GameRegistry.sol\":12725:12734  msg.value */\n      callvalue\n        /* \"contractss/GameRegistry.sol\":12725:12749  msg.value > entryCostETH */\n      dup3\n      lt\n        /* \"contractss/GameRegistry.sol\":12721:12908  if (msg.value > entryCostETH) {... */\n      iszero\n      tag_319\n      jumpi\n        /* \"contractss/GameRegistry.sol\":12826:12838  entryCostETH */\n      sload(0x04)\n        /* \"contractss/GameRegistry.sol\":12770:12777  bool ok */\n      0x00\n      swap1\n        /* \"contractss/GameRegistry.sol\":12790:12800  msg.sender */\n      caller\n      swap1\n        /* \"contractss/GameRegistry.sol\":12814:12838  msg.value - entryCostETH */\n      tag_320\n      swap1\n        /* \"contractss/GameRegistry.sol\":12814:12823  msg.value */\n      callvalue\n        /* \"contractss/GameRegistry.sol\":12814:12838  msg.value - entryCostETH */\n      tag_279\n      jump\t// in\n    tag_320:\n        /* \"contractss/GameRegistry.sol\":12782:12843  payable(msg.sender).call{value: msg.value - entryCostETH}(\"\") */\n      mload(0x40)\n      0x00\n      dup2\n      dup2\n      dup2\n      dup6\n      dup8\n      gas\n      call\n      swap3\n      pop\n      pop\n      pop\n      returndatasize\n      dup1\n      0x00\n      dup2\n      eq\n      tag_325\n      jumpi\n      mload(0x40)\n      swap2\n      pop\n      and(add(returndatasize, 0x3f), not(0x1f))\n      dup3\n      add\n      0x40\n      mstore\n      returndatasize\n      dup3\n      mstore\n      returndatasize\n      0x00\n      0x20\n      dup5\n      add\n      returndatacopy\n      jump(tag_324)\n    tag_325:\n      0x60\n      swap2\n      pop\n    tag_324:\n      pop\n        /* \"contractss/GameRegistry.sol\":12769:12843  (bool ok,) = payable(msg.sender).call{value: msg.value - entryCostETH}(\"\") */\n      pop\n      swap1\n      pop\n        /* \"contractss/GameRegistry.sol\":12869:12871  ok */\n      dup1\n        /* \"contractss/GameRegistry.sol\":12861:12893  require(ok, \"ETH refund failed\") */\n      tag_326\n      jumpi\n      mload(0x40)\n      shl(0xe5, 0x461bcd)\n      dup2\n      mstore\n      0x04\n      add\n      tag_311\n      swap1\n      tag_328\n      jump\t// in\n    tag_326:\n        /* \"contractss/GameRegistry.sol\":12751:12908  {... */\n      pop\n        /* \"contractss/GameRegistry.sol\":12721:12908  if (msg.value > entryCostETH) {... */\n    tag_319:\n        /* \"contractss/GameRegistry.sol\":12438:13340  if (useETH) {... */\n      jump(tag_337)\n    tag_314:\n        /* \"contractss/GameRegistry.sol\":12942:12951  msg.value */\n      callvalue\n        /* \"contractss/GameRegistry.sol\":12942:12955  msg.value > 0 */\n      iszero\n        /* \"contractss/GameRegistry.sol\":12938:13155  if (msg.value > 0) {... */\n      tag_330\n      jumpi\n        /* \"contractss/GameRegistry.sol\":13044:13090  payable(msg.sender).call{value: msg.value}(\"\") */\n      mload(0x40)\n        /* \"contractss/GameRegistry.sol\":13032:13039  bool ok */\n      0x00\n      swap1\n        /* \"contractss/GameRegistry.sol\":13052:13062  msg.sender */\n      caller\n      swap1\n        /* \"contractss/GameRegistry.sol\":13076:13085  msg.value */\n      callvalue\n      swap1\n        /* \"contractss/GameRegistry.sol\":13032:13039  bool ok */\n      dup4\n        /* \"contractss/GameRegistry.sol\":13044:13090  payable(msg.sender).call{value: msg.value}(\"\") */\n      dup2\n        /* \"contractss/GameRegistry.sol\":13032:13039  bool ok */\n      dup2\n        /* \"contractss/GameRegistry.sol\":13044:13090  payable(msg.sender).call{value: msg.value}(\"\") */\n      dup2\n        /* \"contractss/GameRegistry.sol\":13076:13085  msg.value */\n      dup6\n        /* \"contractss/GameRegistry.sol\":13052:13062  msg.sender */\n      dup8\n        /* \"contractss/GameRegistry.sol\":13044:13090  payable(msg.sender).call{value: msg.value}(\"\") */\n      gas\n      call\n      swap3\n      pop\n      pop\n      pop\n      returndatasize\n      dup1\n      0x00\n      dup2\n      eq\n      tag_334\n      jumpi\n      mload(0x40)\n      swap2\n      pop\n      and(add(returndatasize, 0x3f), not(0x1f))\n      dup3\n      add\n      0x40\n      mstore\n      returndatasize\n      dup3\n      mstore\n      returndatasize\n      0x00\n      0x20\n      dup5\n      add\n      returndatacopy\n      jump(tag_333)\n    tag_334:\n      0x60\n      swap2\n      pop\n    tag_333:\n      pop\n        /* \"contractss/GameRegistry.sol\":13031:13090  (bool ok,) = payable(msg.sender).call{value: msg.value}(\"\") */\n      pop\n      swap1\n      pop\n        /* \"contractss/GameRegistry.sol\":13116:13118  ok */\n      dup1\n        /* \"contractss/GameRegistry.sol\":13108:13140  require(ok, \"ETH refund failed\") */\n      tag_335\n      jumpi\n      mload(0x40)\n      shl(0xe5, 0x461bcd)\n      dup2\n      mstore\n      0x04\n      add\n      tag_311\n      swap1\n      tag_328\n      jump\t// in\n    tag_335:\n        /* \"contractss/GameRegistry.sol\":12957:13155  {... */\n      pop\n        /* \"contractss/GameRegistry.sol\":12938:13155  if (msg.value > 0) {... */\n    tag_330:\n      pop\n      pop\n        /* \"contractss/GameRegistry.sol\":13183:13197  entryCostTIMBS */\n      sload(0x03)\n        /* \"contractss/GameRegistry.sol\":13234:13244  timbsToken */\n      immutable(\"0xcc1cf32daa775edd624f71ddb0d100d39c31c65becb67e6d2e7789fa58c10fe0\")\n        /* \"contractss/GameRegistry.sol\":13259:13329  timbsToken.safeTransferFrom(msg.sender, address(this), entryCostTIMBS) */\n      tag_337\n      sub(shl(0xa0, 0x01), 0x01)\n        /* \"contractss/GameRegistry.sol\":13259:13286  timbsToken.safeTransferFrom */\n      dup3\n      and\n        /* \"contractss/GameRegistry.sol\":13287:13297  msg.sender */\n      caller\n        /* \"contractss/GameRegistry.sol\":13307:13311  this */\n      address\n        /* \"contractss/GameRegistry.sol\":13183:13197  entryCostTIMBS */\n      dup6\n        /* \"contractss/GameRegistry.sol\":13259:13286  timbsToken.safeTransferFrom */\n      tag_338\n        /* \"contractss/GameRegistry.sol\":13259:13329  timbsToken.safeTransferFrom(msg.sender, address(this), entryCostTIMBS) */\n      jump\t// in\n    tag_337:\n        /* \"contractss/GameRegistry.sol\":13424:13446  uint256 additionalCost */\n      0x00\n        /* \"contractss/GameRegistry.sol\":13463:13477  entryCostTIMBS */\n      sload(0x03)\n        /* \"contractss/GameRegistry.sol\":13449:13460  extraRounds */\n      dup6\n        /* \"contractss/GameRegistry.sol\":13449:13477  extraRounds * entryCostTIMBS */\n      tag_339\n      swap2\n      swap1\n      tag_340\n      jump\t// in\n    tag_339:\n        /* \"contractss/GameRegistry.sol\":13424:13477  uint256 additionalCost = extraRounds * entryCostTIMBS */\n      swap1\n      pop\n        /* \"contractss/GameRegistry.sol\":13491:13509  additionalCost > 0 */\n      dup1\n      iszero\n        /* \"contractss/GameRegistry.sol\":13487:13673  if (additionalCost > 0) {... */\n      tag_341\n      jumpi\n        /* \"contractss/GameRegistry.sol\":13565:13577  protocolSink */\n      sload(0x01)\n        /* \"contractss/GameRegistry.sol\":13525:13594  timbsToken.safeTransferFrom(msg.sender, protocolSink, additionalCost) */\n      tag_342\n      swap1\n      sub(shl(0xa0, 0x01), 0x01)\n        /* \"contractss/GameRegistry.sol\":13525:13535  timbsToken */\n      immutable(\"0xcc1cf32daa775edd624f71ddb0d100d39c31c65becb67e6d2e7789fa58c10fe0\")\n        /* \"contractss/GameRegistry.sol\":13525:13552  timbsToken.safeTransferFrom */\n      dup2\n      and\n      swap2\n        /* \"contractss/GameRegistry.sol\":13553:13563  msg.sender */\n      caller\n      swap2\n        /* \"contractss/GameRegistry.sol\":13565:13577  protocolSink */\n      and\n        /* \"contractss/GameRegistry.sol\":13579:13593  additionalCost */\n      dup5\n        /* \"contractss/GameRegistry.sol\":13525:13552  timbsToken.safeTransferFrom */\n      tag_338\n        /* \"contractss/GameRegistry.sol\":13525:13594  timbsToken.safeTransferFrom(msg.sender, protocolSink, additionalCost) */\n      jump\t// in\n    tag_342:\n        /* \"contractss/GameRegistry.sol\":13613:13662  AdditionalRoundSinked(msg.sender, additionalCost) */\n      mload(0x40)\n        /* \"#utility.yul\":3050:3075   */\n      dup2\n      dup2\n      mstore\n        /* \"contractss/GameRegistry.sol\":13635:13645  msg.sender */\n      caller\n      swap1\n        /* \"contractss/GameRegistry.sol\":13613:13662  AdditionalRoundSinked(msg.sender, additionalCost) */\n      0x41a209ee6a3eb8344a3f83b585bb4d93349bfbbd34dce09ea38d8023516f2da0\n      swap1\n        /* \"#utility.yul\":3038:3040   */\n      0x20\n        /* \"#utility.yul\":3023:3041   */\n      add\n        /* \"contractss/GameRegistry.sol\":13613:13662  AdditionalRoundSinked(msg.sender, additionalCost) */\n      mload(0x40)\n      dup1\n      swap2\n      sub\n      swap1\n      log2\n        /* \"contractss/GameRegistry.sol\":13487:13673  if (additionalCost > 0) {... */\n    tag_341:\n        /* \"contractss/GameRegistry.sol\":13683:13708  uint256 lastEligibleRound */\n      0x00\n        /* \"contractss/GameRegistry.sol\":13711:13734  playRound + extraRounds */\n      tag_344\n        /* \"contractss/GameRegistry.sol\":13723:13734  extraRounds */\n      dup7\n        /* \"contractss/GameRegistry.sol\":13711:13720  playRound */\n      dup7\n        /* \"contractss/GameRegistry.sol\":13711:13734  playRound + extraRounds */\n      tag_281\n      jump\t// in\n    tag_344:\n        /* \"contractss/GameRegistry.sol\":13801:14135  EntryData({... */\n      0x40\n      dup1\n      mload\n      0xe0\n      dup2\n      add\n      dup3\n      mstore\n      not(sub(shl(0xd0, 0x01), 0x01))\n      dup12\n      and\n      dup2\n      mstore\n        /* \"contractss/GameRegistry.sol\":13884:13896  currentRound */\n      sload(0x05)\n        /* \"contractss/GameRegistry.sol\":13801:14135  EntryData({... */\n      0x20\n      dup3\n      add\n      mstore\n      swap1\n      dup2\n      add\n      dup3\n      swap1\n      mstore\n      0x60\n      dup2\n      add\n      dup7\n      swap1\n      mstore\n      sub(shl(0xa0, 0x01), 0x01)\n      dup6\n      and\n      0x80\n      dup3\n      add\n      mstore\n        /* \"contractss/GameRegistry.sol\":13683:13734  uint256 lastEligibleRound = playRound + extraRounds */\n      swap1\n      swap2\n      pop\n        /* \"contractss/GameRegistry.sol\":13801:14135  EntryData({... */\n      0xa0\n      dup2\n      add\n      0x00\n      dup2\n      mstore\n        /* \"contractss/GameRegistry.sol\":14120:14124  true */\n      0x01\n        /* \"contractss/GameRegistry.sol\":13801:14135  EntryData({... */\n      0x20\n      swap2\n      dup3\n      add\n      dup2\n      swap1\n      mstore\n        /* \"contractss/GameRegistry.sol\":13776:13786  msg.sender */\n      caller\n        /* \"contractss/GameRegistry.sol\":13801:14135  EntryData({... */\n      0x00\n        /* \"contractss/GameRegistry.sol\":13768:13787  entries[msg.sender] */\n      swap1\n      dup2\n      mstore\n        /* \"contractss/GameRegistry.sol\":13768:13775  entries */\n      0x07\n        /* \"contractss/GameRegistry.sol\":13768:13787  entries[msg.sender] */\n      dup4\n      mstore\n      0x40\n      dup1\n      dup3\n      keccak256\n        /* \"contractss/GameRegistry.sol\":13768:13798  entries[msg.sender][playRound] */\n      dup11\n      dup4\n      mstore\n      dup5\n      mstore\n      swap1\n      dup2\n      swap1\n      keccak256\n        /* \"contractss/GameRegistry.sol\":13768:14135  entries[msg.sender][playRound] = EntryData({... */\n      dup5\n      mload\n      dup2\n      sload\n      0xd0\n      swap2\n      swap1\n      swap2\n      shr\n      not(0xffffffffffff)\n      swap1\n      swap2\n      and\n      or\n      dup2\n      sstore\n      swap3\n      dup5\n      add\n      mload\n      swap2\n      dup4\n      add\n      swap2\n      swap1\n      swap2\n      sstore\n      dup3\n      add\n      mload\n      0x02\n      dup3\n      add\n      sstore\n      0x60\n      dup3\n      add\n      mload\n      0x03\n      dup3\n      add\n      sstore\n      0x80\n      dup3\n      add\n      mload\n      0x04\n      dup1\n      dup4\n      add\n      dup1\n      sload\n      sub(shl(0xa0, 0x01), 0x01)\n      swap4\n      swap1\n      swap4\n      and\n      not(sub(shl(0xa0, 0x01), 0x01))\n      dup5\n      and\n      dup2\n      or\n      dup3\n      sstore\n      0xa0\n      dup7\n      add\n      mload\n      swap4\n      swap2\n      swap3\n      not(sub(shl(0xa8, 0x01), 0x01))\n      swap1\n      swap3\n      and\n      or\n      swap1\n      shl(0xa0, 0x01)\n      swap1\n      dup5\n      swap1\n      dup2\n      gt\n      iszero\n      tag_348\n      jumpi\n      tag_348\n      tag_244\n      jump\t// in\n    tag_348:\n      mul\n      or\n      swap1\n      sstore\n      pop\n      0xc0\n      swap2\n      swap1\n      swap2\n      add\n      mload\n      0x04\n      swap1\n      swap2\n      add\n      dup1\n      sload\n      swap2\n      iszero\n      iszero\n      shl(0xa8, 0x01)\n      mul\n      not(shl(0xa8, 0xff))\n      swap1\n      swap3\n      and\n      swap2\n      swap1\n      swap2\n      or\n      swap1\n      sstore\n      0x00\n        /* \"contractss/GameRegistry.sol\":14190:14216  hasEntryInRound[playRound] */\n      dup6\n      dup2\n      mstore\n        /* \"contractss/GameRegistry.sol\":14190:14205  hasEntryInRound */\n      0x0b\n        /* \"contractss/GameRegistry.sol\":14190:14216  hasEntryInRound[playRound] */\n      0x20\n      swap1\n      dup2\n      mstore\n      0x40\n      dup1\n      dup4\n      keccak256\n        /* \"contractss/GameRegistry.sol\":14217:14227  msg.sender */\n      caller\n        /* \"contractss/GameRegistry.sol\":14190:14228  hasEntryInRound[playRound][msg.sender] */\n      dup5\n      mstore\n      swap1\n      swap2\n      mstore\n      swap1\n      keccak256\n      sload\n        /* \"contractss/GameRegistry.sol\":13768:14135  entries[msg.sender][playRound] = EntryData({... */\n      0xff\n        /* \"contractss/GameRegistry.sol\":14190:14228  hasEntryInRound[playRound][msg.sender] */\n      and\n        /* \"contractss/GameRegistry.sol\":14185:14704  if (!hasEntryInRound[playRound][msg.sender]) {... */\n      tag_349\n      jumpi\n        /* \"contractss/GameRegistry.sol\":14244:14269  stringEntrants[playRound] */\n      0x00\n      dup6\n      dup2\n      mstore\n        /* \"contractss/GameRegistry.sol\":14244:14258  stringEntrants */\n      0x08\n        /* \"contractss/GameRegistry.sol\":14244:14269  stringEntrants[playRound] */\n      0x20\n      swap1\n      dup2\n      mstore\n      0x40\n      dup1\n      dup4\n      keccak256\n      not(sub(shl(0xd0, 0x01), 0x01))\n        /* \"contractss/GameRegistry.sol\":14244:14278  stringEntrants[playRound][string6] */\n      dup13\n      and\n      dup5\n      mstore\n      dup3\n      mstore\n      dup1\n      dup4\n      keccak256\n        /* \"contractss/GameRegistry.sol\":14244:14295  stringEntrants[playRound][string6].push(msg.sender) */\n      dup1\n      sload\n      0x01\n      dup1\n      dup3\n      add\n      dup4\n      sstore\n      swap2\n      dup6\n      mstore\n      dup4\n      dup6\n      keccak256\n      add\n      dup1\n      sload\n        /* \"contractss/GameRegistry.sol\":14284:14294  msg.sender */\n      caller\n      not(sub(shl(0xa0, 0x01), 0x01))\n        /* \"contractss/GameRegistry.sol\":14244:14295  stringEntrants[playRound][string6].push(msg.sender) */\n      swap2\n      dup3\n      and\n      dup2\n      or\n      swap1\n      swap3\n      sstore\n        /* \"contractss/GameRegistry.sol\":14309:14333  roundEntrants[playRound] */\n      dup11\n      dup7\n      mstore\n        /* \"contractss/GameRegistry.sol\":14309:14322  roundEntrants */\n      0x0a\n        /* \"contractss/GameRegistry.sol\":14309:14333  roundEntrants[playRound] */\n      dup6\n      mstore\n      dup4\n      dup7\n      keccak256\n        /* \"contractss/GameRegistry.sol\":14309:14350  roundEntrants[playRound].push(msg.sender) */\n      dup1\n      sload\n      dup1\n      dup6\n      add\n      dup3\n      sstore\n      swap1\n      dup8\n      mstore\n      dup6\n      dup8\n      keccak256\n      add\n      dup1\n      sload\n      swap1\n      swap2\n      and\n      dup3\n      or\n      swap1\n      sstore\n        /* \"contractss/GameRegistry.sol\":14364:14390  hasEntryInRound[playRound] */\n      dup10\n      dup6\n      mstore\n        /* \"contractss/GameRegistry.sol\":14364:14379  hasEntryInRound */\n      0x0b\n        /* \"contractss/GameRegistry.sol\":14364:14390  hasEntryInRound[playRound] */\n      dup5\n      mstore\n      dup3\n      dup6\n      keccak256\n        /* \"contractss/GameRegistry.sol\":14364:14402  hasEntryInRound[playRound][msg.sender] */\n      swap1\n      dup6\n      mstore\n      dup4\n      mstore\n      dup2\n      dup5\n      keccak256\n        /* \"contractss/GameRegistry.sol\":14364:14409  hasEntryInRound[playRound][msg.sender] = true */\n      dup1\n      sload\n      not(0xff)\n      and\n      dup3\n      or\n      swap1\n      sstore\n        /* \"contractss/GameRegistry.sol\":14423:14435  playerRounds */\n      0x09\n        /* \"contractss/GameRegistry.sol\":14423:14447  playerRounds[msg.sender] */\n      dup4\n      mstore\n      swap1\n      dup4\n      keccak256\n        /* \"contractss/GameRegistry.sol\":14423:14463  playerRounds[msg.sender].push(playRound) */\n      dup1\n      sload\n      swap2\n      dup3\n      add\n      dup2\n      sstore\n      dup4\n      mstore\n      swap2\n      keccak256\n      add\n      dup6\n      swap1\n      sstore\n        /* \"contractss/GameRegistry.sol\":14185:14704  if (!hasEntryInRound[playRound][msg.sender]) {... */\n      jump(tag_353)\n    tag_349:\n        /* \"contractss/GameRegistry.sol\":14642:14667  stringEntrants[playRound] */\n      0x00\n      dup6\n      dup2\n      mstore\n        /* \"contractss/GameRegistry.sol\":14642:14656  stringEntrants */\n      0x08\n        /* \"contractss/GameRegistry.sol\":14642:14667  stringEntrants[playRound] */\n      0x20\n      swap1\n      dup2\n      mstore\n      0x40\n      dup1\n      dup4\n      keccak256\n      not(sub(shl(0xd0, 0x01), 0x01))\n        /* \"contractss/GameRegistry.sol\":14642:14676  stringEntrants[playRound][string6] */\n      dup13\n      and\n      dup5\n      mstore\n      dup3\n      mstore\n      dup3\n      keccak256\n        /* \"contractss/GameRegistry.sol\":14642:14693  stringEntrants[playRound][string6].push(msg.sender) */\n      dup1\n      sload\n      0x01\n      dup2\n      add\n      dup3\n      sstore\n      swap1\n      dup4\n      mstore\n      swap2\n      keccak256\n      add\n      dup1\n      sload\n      not(sub(shl(0xa0, 0x01), 0x01))\n      and\n        /* \"contractss/GameRegistry.sol\":14682:14692  msg.sender */\n      caller\n        /* \"contractss/GameRegistry.sol\":14642:14693  stringEntrants[playRound][string6].push(msg.sender) */\n      or\n      swap1\n      sstore\n        /* \"contractss/GameRegistry.sol\":14185:14704  if (!hasEntryInRound[playRound][msg.sender]) {... */\n    tag_353:\n        /* \"contractss/GameRegistry.sol\":14719:14893  EntrySubmitted(... */\n      0x40\n      dup1\n      mload\n      not(sub(shl(0xd0, 0x01), 0x01))\n        /* \"#utility.yul\":11428:11465   */\n      dup11\n      and\n        /* \"#utility.yul\":11410:11466   */\n      dup2\n      mstore\n        /* \"#utility.yul\":11497:11499   */\n      0x20\n        /* \"#utility.yul\":11482:11500   */\n      dup2\n      add\n        /* \"#utility.yul\":11475:11509   */\n      dup7\n      swap1\n      mstore\n      sub(shl(0xa0, 0x01), 0x01)\n        /* \"#utility.yul\":11545:11577   */\n      dup6\n      and\n        /* \"#utility.yul\":11525:11543   */\n      dup2\n      dup4\n      add\n        /* \"#utility.yul\":11518:11578   */\n      mstore\n        /* \"#utility.yul\":11609:11611   */\n      0x60\n        /* \"#utility.yul\":11594:11612   */\n      dup2\n      add\n        /* \"#utility.yul\":11587:11621   */\n      dup4\n      swap1\n      mstore\n        /* \"contractss/GameRegistry.sol\":14719:14893  EntrySubmitted(... */\n      swap1\n      mload\n        /* \"contractss/GameRegistry.sol\":14771:14780  playRound */\n      dup7\n      swap2\n        /* \"contractss/GameRegistry.sol\":14747:14757  msg.sender */\n      caller\n      swap2\n        /* \"contractss/GameRegistry.sol\":14719:14893  EntrySubmitted(... */\n      0xd87332d5905526492c72528b38ead8c7c478e7806af135f39be5df875e4f24bb\n      swap2\n      dup2\n      swap1\n      sub\n        /* \"#utility.yul\":11397:11400   */\n      0x80\n        /* \"contractss/GameRegistry.sol\":14719:14893  EntrySubmitted(... */\n      add\n      swap1\n      log3\n        /* \"contractss/GameRegistry.sol\":11876:14900  {... */\n      pop\n      pop\n      pop\n      pop\n      pop\n        /* \"@openzeppelin/contracts/utils/ReentrancyGuard.sol\":3065:3085  _nonReentrantAfter() */\n      tag_357\n        /* \"@openzeppelin/contracts/utils/ReentrancyGuard.sol\":2365:2366  1 */\n      0x01\n      0x00\n      dup1\n      mload\n      0x20\n      data_c8669cf8eaf883002b9f48e28846a8d408c9b58ea6613bace374265e43c9bc43\n      dup4\n      codecopy\n      dup2\n      mload\n      swap2\n      mstore\n        /* \"@openzeppelin/contracts/utils/ReentrancyGuard.sol\":3972:4034  _reentrancyGuardStorageSlot().getUint256Slot().value = ENTERED */\n      sstore\n        /* \"@openzeppelin/contracts/utils/ReentrancyGuard.sol\":3749:4041  function _nonReentrantBefore() private {... */\n      jump\n        /* \"@openzeppelin/contracts/utils/ReentrancyGuard.sol\":3065:3085  _nonReentrantAfter() */\n    tag_357:\n        /* \"contractss/GameRegistry.sol\":11691:14900  function submitEntry(... */\n      pop\n      pop\n      pop\n      jump\t// out\n        /* \"contractss/GameRegistry.sol\":23915:24069  function getRoundEntrants(uint256 round)... */\n    tag_106:\n        /* \"contractss/GameRegistry.sol\":24042:24062  roundEntrants[round] */\n      0x00\n      dup2\n      dup2\n      mstore\n        /* \"contractss/GameRegistry.sol\":24042:24055  roundEntrants */\n      0x0a\n        /* \"contractss/GameRegistry.sol\":24042:24062  roundEntrants[round] */\n      0x20\n      swap1\n      dup2\n      mstore\n      0x40\n      swap2\n      dup3\n      swap1\n      keccak256\n        /* \"contractss/GameRegistry.sol\":24035:24062  return roundEntrants[round] */\n      dup1\n      sload\n      dup4\n      mload\n      dup2\n      dup5\n      mul\n      dup2\n      add\n      dup5\n      add\n      swap1\n      swap5\n      mstore\n      dup1\n      dup5\n      mstore\n        /* \"contractss/GameRegistry.sol\":24003:24019  address[] memory */\n      0x60\n      swap4\n        /* \"contractss/GameRegistry.sol\":24035:24062  return roundEntrants[round] */\n      swap3\n      dup4\n      add\n        /* \"contractss/GameRegistry.sol\":24042:24062  roundEntrants[round] */\n      dup3\n        /* \"contractss/GameRegistry.sol\":24035:24062  return roundEntrants[round] */\n      dup3\n      dup1\n      iszero\n      tag_258\n      jumpi\n      0x20\n      mul\n      dup3\n      add\n      swap2\n      swap1\n      0x00\n      mstore\n      keccak256(0x00, 0x20)\n      swap1\n    tag_361:\n      dup2\n      sload\n      sub(shl(0xa0, 0x01), 0x01)\n      and\n      dup2\n      mstore\n      0x01\n      swap1\n      swap2\n      add\n      swap1\n      0x20\n      add\n      dup1\n      dup4\n      gt\n      tag_361\n      jumpi\n      pop\n      pop\n      pop\n      pop\n      pop\n      swap1\n      pop\n        /* \"contractss/GameRegistry.sol\":23915:24069  function getRoundEntrants(uint256 round)... */\n      swap2\n      swap1\n      pop\n      jump\t// out\n        /* \"contractss/GameRegistry.sol\":20457:20814  function expireEntry(address player, uint256 round)... */\n    tag_116:\n        /* \"contractss/GameRegistry.sol\":7460:7469  timbPrize */\n      and(sub(shl(0xa0, 0x01), 0x01), sload(0x02))\n        /* \"contractss/GameRegistry.sol\":7446:7456  msg.sender */\n      caller\n        /* \"contractss/GameRegistry.sol\":7446:7469  msg.sender != timbPrize */\n      eq\n        /* \"contractss/GameRegistry.sol\":7442:7492  if (msg.sender != timbPrize) revert NotTimbPrize() */\n      tag_363\n      jumpi\n        /* \"contractss/GameRegistry.sol\":7478:7492  NotTimbPrize() */\n      mload(0x40)\n      shl(0xe0, 0x3e94dce9)\n      dup2\n      mstore\n      0x04\n      add\n      mload(0x40)\n      dup1\n      swap2\n      sub\n      swap1\n      revert\n        /* \"contractss/GameRegistry.sol\":7442:7492  if (msg.sender != timbPrize) revert NotTimbPrize() */\n    tag_363:\n      sub(shl(0xa0, 0x01), 0x01)\n        /* \"contractss/GameRegistry.sol\":20588:20603  entries[player] */\n      dup3\n      and\n        /* \"contractss/GameRegistry.sol\":20562:20585  EntryData storage entry */\n      0x00\n        /* \"contractss/GameRegistry.sol\":20588:20603  entries[player] */\n      swap1\n      dup2\n      mstore\n        /* \"contractss/GameRegistry.sol\":20588:20595  entries */\n      0x07\n        /* \"contractss/GameRegistry.sol\":20588:20603  entries[player] */\n      0x20\n      swap1\n      dup2\n      mstore\n      0x40\n      dup1\n      dup4\n      keccak256\n        /* \"contractss/GameRegistry.sol\":20588:20610  entries[player][round] */\n      dup5\n      dup5\n      mstore\n      swap1\n      swap2\n      mstore\n      swap1\n      keccak256\n        /* \"contractss/GameRegistry.sol\":20624:20636  entry.exists */\n      0x04\n      dup2\n      add\n      sload\n      shl(0xa8, 0x01)\n      swap1\n      div\n      0xff\n      and\n        /* \"contractss/GameRegistry.sol\":20624:20674  entry.exists && entry.status == EntryStatus.Active */\n      dup1\n      iszero\n      tag_365\n      jumpi\n      pop\n        /* \"contractss/GameRegistry.sol\":20656:20674  EntryStatus.Active */\n      0x01\n        /* \"contractss/GameRegistry.sol\":20640:20652  entry.status */\n      0x04\n      dup3\n      dup2\n      add\n      sload\n      shl(0xa0, 0x01)\n      swap1\n      div\n      0xff\n      and\n      swap1\n        /* \"contractss/GameRegistry.sol\":20640:20674  entry.status == EntryStatus.Active */\n      dup2\n      gt\n      iszero\n      tag_369\n      jumpi\n      tag_369\n      tag_244\n      jump\t// in\n    tag_369:\n      eq\n        /* \"contractss/GameRegistry.sol\":20624:20674  entry.exists && entry.status == EntryStatus.Active */\n    tag_365:\n        /* \"contractss/GameRegistry.sol\":20620:20808  if (entry.exists && entry.status == EntryStatus.Active) {... */\n      iszero\n      tag_357\n      jumpi\n        /* \"contractss/GameRegistry.sol\":20690:20702  entry.status */\n      0x04\n      dup2\n      add\n        /* \"contractss/GameRegistry.sol\":20690:20724  entry.status = EntryStatus.Expired */\n      dup1\n      sload\n      not(shl(0xa0, 0xff))\n      and\n      shl(0xa1, 0x01)\n      or\n      swap1\n      sstore\n        /* \"contractss/GameRegistry.sol\":20743:20797  EntryStatusUpdated(player, round, EntryStatus.Expired) */\n      mload(0x40)\n        /* \"contractss/GameRegistry.sol\":20770:20775  round */\n      dup3\n      swap1\n      sub(shl(0xa0, 0x01), 0x01)\n        /* \"contractss/GameRegistry.sol\":20743:20797  EntryStatusUpdated(player, round, EntryStatus.Expired) */\n      dup6\n      and\n      swap1\n      0x1415547ac25cccddfd82d3b4bcad6c1a8383110d39e6799a32b6cc5f2987e914\n      swap1\n      tag_373\n      swap1\n        /* \"contractss/GameRegistry.sol\":20705:20724  EntryStatus.Expired */\n      0x02\n      swap1\n        /* \"contractss/GameRegistry.sol\":20743:20797  EntryStatusUpdated(player, round, EntryStatus.Expired) */\n      tag_254\n      jump\t// in\n    tag_373:\n      mload(0x40)\n      dup1\n      swap2\n      sub\n      swap1\n      log3\n        /* \"contractss/GameRegistry.sol\":20552:20814  {... */\n      pop\n        /* \"contractss/GameRegistry.sol\":20457:20814  function expireEntry(address player, uint256 round)... */\n      pop\n      pop\n      jump\t// out\n        /* \"contractss/GameRegistry.sol\":17992:19277  function claimRefund(uint256 round) external nonReentrant {... */\n    tag_134:\n        /* \"@openzeppelin/contracts/utils/ReentrancyGuard.sol\":3023:3044  _nonReentrantBefore() */\n      tag_375\n        /* \"@openzeppelin/contracts/utils/ReentrancyGuard.sol\":3023:3042  _nonReentrantBefore */\n      tag_295\n        /* \"@openzeppelin/contracts/utils/ReentrancyGuard.sol\":3023:3044  _nonReentrantBefore() */\n      jump\t// in\n    tag_375:\n        /* \"contractss/GameRegistry.sol\":18094:18104  msg.sender */\n      caller\n        /* \"contractss/GameRegistry.sol\":18060:18083  EntryData storage entry */\n      0x00\n        /* \"contractss/GameRegistry.sol\":18086:18105  entries[msg.sender] */\n      swap1\n      dup2\n      mstore\n        /* \"contractss/GameRegistry.sol\":18086:18093  entries */\n      0x07\n        /* \"contractss/GameRegistry.sol\":18086:18105  entries[msg.sender] */\n      0x20\n      swap1\n      dup2\n      mstore\n      0x40\n      dup1\n      dup4\n      keccak256\n        /* \"contractss/GameRegistry.sol\":18086:18112  entries[msg.sender][round] */\n      dup5\n      dup5\n      mstore\n      swap1\n      swap2\n      mstore\n      swap1\n      keccak256\n        /* \"contractss/GameRegistry.sol\":18128:18140  entry.exists */\n      0x04\n      dup2\n      add\n      sload\n      shl(0xa8, 0x01)\n      swap1\n      div\n      0xff\n      and\n        /* \"contractss/GameRegistry.sol\":18123:18180  if (!entry.exists) revert NoEntryFound(msg.sender, round) */\n      tag_377\n      jumpi\n        /* \"contractss/GameRegistry.sol\":18149:18180  NoEntryFound(msg.sender, round) */\n      mload(0x40)\n      shl(0xe0, 0x9477d825)\n      dup2\n      mstore\n        /* \"contractss/GameRegistry.sol\":18162:18172  msg.sender */\n      caller\n        /* \"contractss/GameRegistry.sol\":18149:18180  NoEntryFound(msg.sender, round) */\n      0x04\n      dup3\n      add\n        /* \"#utility.yul\":11806:11857   */\n      mstore\n        /* \"#utility.yul\":11873:11891   */\n      0x24\n      dup2\n      add\n        /* \"#utility.yul\":11866:11900   */\n      dup4\n      swap1\n      mstore\n        /* \"#utility.yul\":11779:11797   */\n      0x44\n      add\n        /* \"contractss/GameRegistry.sol\":18149:18180  NoEntryFound(msg.sender, round) */\n      tag_311\n        /* \"#utility.yul\":11632:11906   */\n      jump\n        /* \"contractss/GameRegistry.sol\":18123:18180  if (!entry.exists) revert NoEntryFound(msg.sender, round) */\n    tag_377:\n        /* \"contractss/GameRegistry.sol\":18210:18229  EntryStatus.Claimed */\n      0x03\n        /* \"contractss/GameRegistry.sol\":18194:18206  entry.status */\n      0x04\n      dup3\n      dup2\n      add\n      sload\n      shl(0xa0, 0x01)\n      swap1\n      div\n      0xff\n      and\n      swap1\n        /* \"contractss/GameRegistry.sol\":18194:18229  entry.status == EntryStatus.Claimed */\n      dup2\n      gt\n      iszero\n      tag_383\n      jumpi\n      tag_383\n      tag_244\n      jump\t// in\n    tag_383:\n      eq\n        /* \"contractss/GameRegistry.sol\":18194:18281  entry.status == EntryStatus.Claimed ||... */\n      dup1\n      tag_384\n      jumpi\n      pop\n        /* \"contractss/GameRegistry.sol\":18261:18281  EntryStatus.Inactive */\n      0x04\n        /* \"contractss/GameRegistry.sol\":18245:18257  entry.status */\n      dup1\n      dup3\n      dup2\n      add\n      sload\n      shl(0xa0, 0x01)\n      swap1\n      div\n      0xff\n      and\n      swap1\n        /* \"contractss/GameRegistry.sol\":18245:18281  entry.status == EntryStatus.Inactive */\n      dup2\n      gt\n      iszero\n      tag_388\n      jumpi\n      tag_388\n      tag_244\n      jump\t// in\n    tag_388:\n      eq\n        /* \"contractss/GameRegistry.sol\":18194:18281  entry.status == EntryStatus.Claimed ||... */\n    tag_384:\n        /* \"contractss/GameRegistry.sol\":18190:18332  if (entry.status == EntryStatus.Claimed ||... */\n      iszero\n      tag_389\n      jumpi\n        /* \"contractss/GameRegistry.sol\":18304:18321  AlreadyRefunded() */\n      mload(0x40)\n      shl(0xe1, 0x542f378d)\n      dup2\n      mstore\n      0x04\n      add\n      mload(0x40)\n      dup1\n      swap2\n      sub\n      swap1\n      revert\n        /* \"contractss/GameRegistry.sol\":18190:18332  if (entry.status == EntryStatus.Claimed ||... */\n    tag_389:\n        /* \"contractss/GameRegistry.sol\":18420:18425  entry */\n      dup1\n        /* \"contractss/GameRegistry.sol\":18420:18443  entry.lastEligibleRound */\n      0x02\n      add\n      sload\n        /* \"contractss/GameRegistry.sol\":18404:18416  currentRound */\n      sload(0x05)\n        /* \"contractss/GameRegistry.sol\":18404:18443  currentRound <= entry.lastEligibleRound */\n      gt\n        /* \"contractss/GameRegistry.sol\":18400:18506  if (currentRound <= entry.lastEligibleRound) {... */\n      tag_390\n      jumpi\n        /* \"contractss/GameRegistry.sol\":18482:18487  entry */\n      dup1\n        /* \"contractss/GameRegistry.sol\":18482:18494  entry.status */\n      0x04\n      add\n      0x14\n      swap1\n      sload\n      swap1\n      0x0100\n      exp\n      swap1\n      div\n      0xff\n      and\n        /* \"contractss/GameRegistry.sol\":18466:18495  EntryNotExpired(entry.status) */\n      mload(0x40)\n      shl(0xe6, 0x037e7063)\n      dup2\n      mstore\n      0x04\n      add\n      tag_311\n      swap2\n      swap1\n      tag_254\n      jump\t// in\n        /* \"contractss/GameRegistry.sol\":18400:18506  if (currentRound <= entry.lastEligibleRound) {... */\n    tag_390:\n        /* \"contractss/GameRegistry.sol\":18586:18607  uint256 claimDeadline */\n      0x00\n        /* \"contractss/GameRegistry.sol\":18610:18615  entry */\n      dup2\n        /* \"contractss/GameRegistry.sol\":18610:18633  entry.lastEligibleRound */\n      0x02\n      add\n      sload\n        /* \"contractss/GameRegistry.sol\":18636:18637  2 */\n      0x02\n        /* \"contractss/GameRegistry.sol\":18610:18637  entry.lastEligibleRound + 2 */\n      tag_392\n      swap2\n      swap1\n      tag_281\n      jump\t// in\n    tag_392:\n        /* \"contractss/GameRegistry.sol\":18586:18637  uint256 claimDeadline = entry.lastEligibleRound + 2 */\n      swap1\n      pop\n        /* \"contractss/GameRegistry.sol\":18666:18679  claimDeadline */\n      dup1\n        /* \"contractss/GameRegistry.sol\":18651:18663  currentRound */\n      sload(0x05)\n        /* \"contractss/GameRegistry.sol\":18651:18679  currentRound > claimDeadline */\n      gt\n        /* \"contractss/GameRegistry.sol\":18647:18769  if (currentRound > claimDeadline) {... */\n      iszero\n      tag_393\n      jumpi\n        /* \"contractss/GameRegistry.sol\":18720:18743  entry.lastEligibleRound */\n      0x02\n      dup3\n      add\n      sload\n        /* \"contractss/GameRegistry.sol\":18745:18757  currentRound */\n      sload(0x05)\n        /* \"contractss/GameRegistry.sol\":18702:18758  ClaimWindowClosed(entry.lastEligibleRound, currentRound) */\n      mload(0x40)\n      shl(0xe1, 0x0972e7ff)\n      dup2\n      mstore\n      0x04\n      dup2\n      add\n        /* \"#utility.yul\":10373:10398   */\n      swap3\n      swap1\n      swap3\n      mstore\n        /* \"#utility.yul\":10414:10432   */\n      0x24\n      dup3\n      add\n        /* \"#utility.yul\":10407:10441   */\n      mstore\n        /* \"#utility.yul\":10346:10364   */\n      0x44\n      add\n        /* \"contractss/GameRegistry.sol\":18702:18758  ClaimWindowClosed(entry.lastEligibleRound, currentRound) */\n      tag_311\n        /* \"#utility.yul\":10199:10447   */\n      jump\n        /* \"contractss/GameRegistry.sol\":18647:18769  if (currentRound > claimDeadline) {... */\n    tag_393:\n        /* \"contractss/GameRegistry.sol\":18796:18814  entry.escrowAmount */\n      0x03\n      dup3\n      add\n      dup1\n      sload\n        /* \"contractss/GameRegistry.sol\":18841:18858  entry.escrowToken */\n      0x04\n      dup5\n      add\n      dup1\n      sload\n      shl(0xa0, 0x03)\n      not(shl(0xa0, 0xff))\n        /* \"contractss/GameRegistry.sol\":18869:18909  entry.status       = EntryStatus.Claimed */\n      dup3\n      and\n      or\n      swap1\n      swap2\n      sstore\n      0x00\n        /* \"contractss/GameRegistry.sol\":18919:18941  entry.escrowAmount = 0 */\n      swap1\n      swap3\n      sstore\n        /* \"contractss/GameRegistry.sol\":18796:18814  entry.escrowAmount */\n      swap1\n      sub(shl(0xa0, 0x01), 0x01)\n        /* \"contractss/GameRegistry.sol\":18841:18858  entry.escrowToken */\n      and\n      dup1\n        /* \"contractss/GameRegistry.sol\":18952:19207  if (token == address(0)) {... */\n      tag_397\n      jumpi\n        /* \"contractss/GameRegistry.sol\":19030:19073  payable(msg.sender).call{value: amount}(\"\") */\n      mload(0x40)\n        /* \"contractss/GameRegistry.sol\":19018:19025  bool ok */\n      0x00\n      swap1\n        /* \"contractss/GameRegistry.sol\":19038:19048  msg.sender */\n      caller\n      swap1\n        /* \"contractss/GameRegistry.sol\":19062:19068  amount */\n      dup5\n      swap1\n        /* \"contractss/GameRegistry.sol\":19018:19025  bool ok */\n      dup4\n        /* \"contractss/GameRegistry.sol\":19030:19073  payable(msg.sender).call{value: amount}(\"\") */\n      dup2\n        /* \"contractss/GameRegistry.sol\":19018:19025  bool ok */\n      dup2\n        /* \"contractss/GameRegistry.sol\":19030:19073  payable(msg.sender).call{value: amount}(\"\") */\n      dup2\n        /* \"contractss/GameRegistry.sol\":19062:19068  amount */\n      dup6\n        /* \"contractss/GameRegistry.sol\":19038:19048  msg.sender */\n      dup8\n        /* \"contractss/GameRegistry.sol\":19030:19073  payable(msg.sender).call{value: amount}(\"\") */\n      gas\n      call\n      swap3\n      pop\n      pop\n      pop\n      returndatasize\n      dup1\n      0x00\n      dup2\n      eq\n      tag_401\n      jumpi\n      mload(0x40)\n      swap2\n      pop\n      and(add(returndatasize, 0x3f), not(0x1f))\n      dup3\n      add\n      0x40\n      mstore\n      returndatasize\n      dup3\n      mstore\n      returndatasize\n      0x00\n      0x20\n      dup5\n      add\n      returndatacopy\n      jump(tag_400)\n    tag_401:\n      0x60\n      swap2\n      pop\n    tag_400:\n      pop\n        /* \"contractss/GameRegistry.sol\":19017:19073  (bool ok,) = payable(msg.sender).call{value: amount}(\"\") */\n      pop\n      swap1\n      pop\n        /* \"contractss/GameRegistry.sol\":19095:19097  ok */\n      dup1\n        /* \"contractss/GameRegistry.sol\":19087:19119  require(ok, \"ETH refund failed\") */\n      tag_402\n      jumpi\n      mload(0x40)\n      shl(0xe5, 0x461bcd)\n      dup2\n      mstore\n      0x04\n      add\n      tag_311\n      swap1\n      tag_328\n      jump\t// in\n    tag_402:\n        /* \"contractss/GameRegistry.sol\":18977:19130  {... */\n      pop\n        /* \"contractss/GameRegistry.sol\":18952:19207  if (token == address(0)) {... */\n      jump(tag_405)\n    tag_397:\n        /* \"contractss/GameRegistry.sol\":19150:19196  IERC20(token).safeTransfer(msg.sender, amount) */\n      tag_405\n      sub(shl(0xa0, 0x01), 0x01)\n        /* \"contractss/GameRegistry.sol\":19150:19176  IERC20(token).safeTransfer */\n      dup3\n      and\n        /* \"contractss/GameRegistry.sol\":19177:19187  msg.sender */\n      caller\n        /* \"contractss/GameRegistry.sol\":19189:19195  amount */\n      dup5\n        /* \"contractss/GameRegistry.sol\":19150:19176  IERC20(token).safeTransfer */\n      tag_406\n        /* \"contractss/GameRegistry.sol\":19150:19196  IERC20(token).safeTransfer(msg.sender, amount) */\n      jump\t// in\n    tag_405:\n        /* \"contractss/GameRegistry.sol\":19222:19270  EscrowRefunded(msg.sender, round, amount, token) */\n      0x40\n      dup1\n      mload\n        /* \"#utility.yul\":12085:12110   */\n      dup4\n      dup2\n      mstore\n      sub(shl(0xa0, 0x01), 0x01)\n        /* \"#utility.yul\":12146:12178   */\n      dup4\n      and\n        /* \"#utility.yul\":12141:12143   */\n      0x20\n        /* \"#utility.yul\":12126:12144   */\n      dup3\n      add\n        /* \"#utility.yul\":12119:12179   */\n      mstore\n        /* \"contractss/GameRegistry.sol\":19249:19254  round */\n      dup7\n      swap2\n        /* \"contractss/GameRegistry.sol\":19237:19247  msg.sender */\n      caller\n      swap2\n        /* \"contractss/GameRegistry.sol\":19222:19270  EscrowRefunded(msg.sender, round, amount, token) */\n      0xad8270d9f16e19a32ba47f589e09c7c69d78067b4d2f59f4d7d95f4a37b792a1\n      swap2\n        /* \"#utility.yul\":12058:12076   */\n      add\n        /* \"contractss/GameRegistry.sol\":19222:19270  EscrowRefunded(msg.sender, round, amount, token) */\n      mload(0x40)\n      dup1\n      swap2\n      sub\n      swap1\n      log3\n        /* \"contractss/GameRegistry.sol\":18050:19277  {... */\n      pop\n      pop\n      pop\n      pop\n        /* \"@openzeppelin/contracts/utils/ReentrancyGuard.sol\":3065:3085  _nonReentrantAfter() */\n      tag_409\n        /* \"@openzeppelin/contracts/utils/ReentrancyGuard.sol\":2365:2366  1 */\n      0x01\n      0x00\n      dup1\n      mload\n      0x20\n      data_c8669cf8eaf883002b9f48e28846a8d408c9b58ea6613bace374265e43c9bc43\n      dup4\n      codecopy\n      dup2\n      mload\n      swap2\n      mstore\n        /* \"@openzeppelin/contracts/utils/ReentrancyGuard.sol\":3972:4034  _reentrancyGuardStorageSlot().getUint256Slot().value = ENTERED */\n      sstore\n        /* \"@openzeppelin/contracts/utils/ReentrancyGuard.sol\":3749:4041  function _nonReentrantBefore() private {... */\n      jump\n        /* \"@openzeppelin/contracts/utils/ReentrancyGuard.sol\":3065:3085  _nonReentrantAfter() */\n    tag_409:\n        /* \"contractss/GameRegistry.sol\":17992:19277  function claimRefund(uint256 round) external nonReentrant {... */\n      pop\n      jump\t// out\n        /* \"@openzeppelin/contracts/access/Ownable.sol\":2293:2394  function renounceOwnership() public virtual onlyOwner {... */\n    tag_142:\n        /* \"@openzeppelin/contracts/access/Ownable.sol\":1531:1544  _checkOwner() */\n      tag_411\n        /* \"@openzeppelin/contracts/access/Ownable.sol\":1531:1542  _checkOwner */\n      tag_264\n        /* \"@openzeppelin/contracts/access/Ownable.sol\":1531:1544  _checkOwner() */\n      jump\t// in\n    tag_411:\n        /* \"@openzeppelin/contracts/access/Ownable.sol\":2357:2387  _transferOwnership(address(0)) */\n      tag_413\n        /* \"@openzeppelin/contracts/access/Ownable.sol\":2384:2385  0 */\n      0x00\n        /* \"@openzeppelin/contracts/access/Ownable.sol\":2357:2375  _transferOwnership */\n      tag_414\n        /* \"@openzeppelin/contracts/access/Ownable.sol\":2357:2387  _transferOwnership(address(0)) */\n      jump\t// in\n    tag_413:\n        /* \"@openzeppelin/contracts/access/Ownable.sol\":2293:2394  function renounceOwnership() public virtual onlyOwner {... */\n      jump\t// out\n        /* \"contractss/GameRegistry.sol\":25454:25642  function setProtocolSink(address _sink) external onlyOwner {... */\n    tag_146:\n        /* \"@openzeppelin/contracts/access/Ownable.sol\":1531:1544  _checkOwner() */\n      tag_416\n        /* \"@openzeppelin/contracts/access/Ownable.sol\":1531:1542  _checkOwner */\n      tag_264\n        /* \"@openzeppelin/contracts/access/Ownable.sol\":1531:1544  _checkOwner() */\n      jump\t// in\n    tag_416:\n      sub(shl(0xa0, 0x01), 0x01)\n        /* \"contractss/GameRegistry.sol\":25527:25546  _sink == address(0) */\n      dup2\n      and\n        /* \"contractss/GameRegistry.sol\":25523:25568  if (_sink == address(0)) revert ZeroAddress() */\n      tag_418\n      jumpi\n        /* \"contractss/GameRegistry.sol\":25555:25568  ZeroAddress() */\n      mload(0x40)\n      shl(0xe0, 0xd92e233d)\n      dup2\n      mstore\n      0x04\n      add\n      mload(0x40)\n      dup1\n      swap2\n      sub\n      swap1\n      revert\n        /* \"contractss/GameRegistry.sol\":25523:25568  if (_sink == address(0)) revert ZeroAddress() */\n    tag_418:\n        /* \"contractss/GameRegistry.sol\":25578:25590  protocolSink */\n      0x01\n        /* \"contractss/GameRegistry.sol\":25578:25598  protocolSink = _sink */\n      dup1\n      sload\n      not(sub(shl(0xa0, 0x01), 0x01))\n      and\n      sub(shl(0xa0, 0x01), 0x01)\n      dup4\n      and\n      swap1\n      dup2\n      or\n      swap1\n      swap2\n      sstore\n        /* \"contractss/GameRegistry.sol\":25613:25635  ProtocolSinkSet(_sink) */\n      mload(0x40)\n      0x02b48ab5a397c976981a15213f5c994553b8fb01c27d3b77542c6095a483379d\n      swap1\n      0x00\n      swap1\n      log2\n        /* \"contractss/GameRegistry.sol\":25454:25642  function setProtocolSink(address _sink) external onlyOwner {... */\n      pop\n      jump\t// out\n        /* \"contractss/GameRegistry.sol\":20978:21551  function markInactive(address player, uint256 round)... */\n    tag_150:\n        /* \"contractss/GameRegistry.sol\":7460:7469  timbPrize */\n      and(sub(shl(0xa0, 0x01), 0x01), sload(0x02))\n        /* \"contractss/GameRegistry.sol\":7446:7456  msg.sender */\n      caller\n        /* \"contractss/GameRegistry.sol\":7446:7469  msg.sender != timbPrize */\n      eq\n        /* \"contractss/GameRegistry.sol\":7442:7492  if (msg.sender != timbPrize) revert NotTimbPrize() */\n      tag_420\n      jumpi\n        /* \"contractss/GameRegistry.sol\":7478:7492  NotTimbPrize() */\n      mload(0x40)\n      shl(0xe0, 0x3e94dce9)\n      dup2\n      mstore\n      0x04\n      add\n      mload(0x40)\n      dup1\n      swap2\n      sub\n      swap1\n      revert\n        /* \"contractss/GameRegistry.sol\":7442:7492  if (msg.sender != timbPrize) revert NotTimbPrize() */\n    tag_420:\n      sub(shl(0xa0, 0x01), 0x01)\n        /* \"contractss/GameRegistry.sol\":21110:21125  entries[player] */\n      dup3\n      and\n        /* \"contractss/GameRegistry.sol\":21084:21107  EntryData storage entry */\n      0x00\n        /* \"contractss/GameRegistry.sol\":21110:21125  entries[player] */\n      swap1\n      dup2\n      mstore\n        /* \"contractss/GameRegistry.sol\":21110:21117  entries */\n      0x07\n        /* \"contractss/GameRegistry.sol\":21110:21125  entries[player] */\n      0x20\n      swap1\n      dup2\n      mstore\n      0x40\n      dup1\n      dup4\n      keccak256\n        /* \"contractss/GameRegistry.sol\":21110:21132  entries[player][round] */\n      dup5\n      dup5\n      mstore\n      swap1\n      swap2\n      mstore\n      swap1\n      keccak256\n        /* \"contractss/GameRegistry.sol\":21146:21158  entry.exists */\n      0x04\n      dup2\n      add\n      sload\n      shl(0xa8, 0x01)\n      swap1\n      div\n      0xff\n      and\n        /* \"contractss/GameRegistry.sol\":21146:21271  entry.exists && (... */\n      dup1\n      iszero\n      tag_427\n      jumpi\n      pop\n        /* \"contractss/GameRegistry.sol\":21192:21211  EntryStatus.Expired */\n      0x02\n        /* \"contractss/GameRegistry.sol\":21176:21188  entry.status */\n      0x04\n      dup3\n      dup2\n      add\n      sload\n      shl(0xa0, 0x01)\n      swap1\n      div\n      0xff\n      and\n      swap1\n        /* \"contractss/GameRegistry.sol\":21176:21211  entry.status == EntryStatus.Expired */\n      dup2\n      gt\n      iszero\n      tag_426\n      jumpi\n      tag_426\n      tag_244\n      jump\t// in\n    tag_426:\n      eq\n        /* \"contractss/GameRegistry.sol\":21176:21261  entry.status == EntryStatus.Expired ||... */\n      dup1\n      tag_427\n      jumpi\n      pop\n        /* \"contractss/GameRegistry.sol\":21243:21261  EntryStatus.Active */\n      0x01\n        /* \"contractss/GameRegistry.sol\":21227:21239  entry.status */\n      0x04\n      dup3\n      dup2\n      add\n      sload\n      shl(0xa0, 0x01)\n      swap1\n      div\n      0xff\n      and\n      swap1\n        /* \"contractss/GameRegistry.sol\":21227:21261  entry.status == EntryStatus.Active */\n      dup2\n      gt\n      iszero\n      tag_431\n      jumpi\n      tag_431\n      tag_244\n      jump\t// in\n    tag_431:\n      eq\n        /* \"contractss/GameRegistry.sol\":21176:21261  entry.status == EntryStatus.Expired ||... */\n    tag_427:\n        /* \"contractss/GameRegistry.sol\":21142:21545  if (entry.exists && (... */\n      iszero\n      tag_357\n      jumpi\n        /* \"contractss/GameRegistry.sol\":21440:21460  EntryStatus.Inactive */\n      0x04\n        /* \"contractss/GameRegistry.sol\":21425:21437  entry.status */\n      dup2\n      dup2\n      add\n        /* \"contractss/GameRegistry.sol\":21425:21460  entry.status = EntryStatus.Inactive */\n      dup1\n      sload\n      not(shl(0xa0, 0xff))\n      and\n      shl(0xa0, 0x01)\n        /* \"contractss/GameRegistry.sol\":21440:21460  EntryStatus.Inactive */\n      dup4\n        /* \"contractss/GameRegistry.sol\":21425:21460  entry.status = EntryStatus.Inactive */\n      mul\n      or\n      swap1\n      sstore\n      pop\n        /* \"contractss/GameRegistry.sol\":21506:21511  round */\n      dup2\n        /* \"contractss/GameRegistry.sol\":21498:21504  player */\n      dup4\n      sub(shl(0xa0, 0x01), 0x01)\n        /* \"contractss/GameRegistry.sol\":21479:21534  EntryStatusUpdated(player, round, EntryStatus.Inactive) */\n      and\n      0x1415547ac25cccddfd82d3b4bcad6c1a8383110d39e6799a32b6cc5f2987e914\n        /* \"contractss/GameRegistry.sol\":21513:21533  EntryStatus.Inactive */\n      0x04\n        /* \"contractss/GameRegistry.sol\":21479:21534  EntryStatusUpdated(player, round, EntryStatus.Inactive) */\n      mload(0x40)\n      tag_373\n      swap2\n      swap1\n      tag_254\n      jump\t// in\n        /* \"contractss/GameRegistry.sol\":26581:26932  function getPlayerHistory(address player)... */\n    tag_154:\n      sub(shl(0xa0, 0x01), 0x01)\n        /* \"contractss/GameRegistry.sol\":26738:26758  playerRounds[player] */\n      dup2\n      and\n        /* \"contractss/GameRegistry.sol\":26712:26735  uint256[] memory rounds */\n      0x00\n        /* \"contractss/GameRegistry.sol\":26738:26758  playerRounds[player] */\n      swap1\n      dup2\n      mstore\n        /* \"contractss/GameRegistry.sol\":26738:26750  playerRounds */\n      0x09\n        /* \"contractss/GameRegistry.sol\":26738:26758  playerRounds[player] */\n      0x20\n      swap1\n      dup2\n      mstore\n      0x40\n      dup1\n      dup4\n      keccak256\n        /* \"contractss/GameRegistry.sol\":26712:26758  uint256[] memory rounds = playerRounds[player] */\n      dup1\n      sload\n      dup3\n      mload\n      dup2\n      dup6\n      mul\n      dup2\n      add\n      dup6\n      add\n      swap1\n      swap4\n      mstore\n      dup1\n      dup4\n      mstore\n        /* \"contractss/GameRegistry.sol\":26670:26696  EntryData[] memory history */\n      0x60\n      swap5\n        /* \"contractss/GameRegistry.sol\":26712:26735  uint256[] memory rounds */\n      swap4\n        /* \"contractss/GameRegistry.sol\":26712:26758  uint256[] memory rounds = playerRounds[player] */\n      dup4\n      add\n        /* \"contractss/GameRegistry.sol\":26738:26758  playerRounds[player] */\n      dup3\n        /* \"contractss/GameRegistry.sol\":26712:26758  uint256[] memory rounds = playerRounds[player] */\n      dup3\n      dup1\n      iszero\n      tag_437\n      jumpi\n      0x20\n      mul\n      dup3\n      add\n      swap2\n      swap1\n      0x00\n      mstore\n      keccak256(0x00, 0x20)\n      swap1\n    tag_438:\n      dup2\n      sload\n      dup2\n      mstore\n      0x20\n      add\n      swap1\n      0x01\n      add\n      swap1\n      dup1\n      dup4\n      gt\n      tag_438\n      jumpi\n    tag_437:\n      pop\n      pop\n      pop\n      pop\n      pop\n      swap1\n      pop\n        /* \"contractss/GameRegistry.sol\":26794:26800  rounds */\n      dup1\n        /* \"contractss/GameRegistry.sol\":26794:26807  rounds.length */\n      mload\n        /* \"contractss/GameRegistry.sol\":26778:26808  new EntryData[](rounds.length) */\n      0xffffffffffffffff\n      dup2\n      gt\n      iszero\n      tag_440\n      jumpi\n      tag_440\n      tag_441\n      jump\t// in\n    tag_440:\n      mload(0x40)\n      swap1\n      dup1\n      dup3\n      mstore\n      dup1\n      0x20\n      mul\n      0x20\n      add\n      dup3\n      add\n      0x40\n      mstore\n      dup1\n      iszero\n      tag_442\n      jumpi\n      dup2\n      0x20\n      add\n    tag_443:\n      0x40\n      dup1\n      mload\n      0xe0\n      dup2\n      add\n      dup3\n      mstore\n      0x00\n      dup1\n      dup3\n      mstore\n      0x20\n      dup1\n      dup4\n      add\n      dup3\n      swap1\n      mstore\n      swap3\n      dup3\n      add\n      dup2\n      swap1\n      mstore\n      0x60\n      dup3\n      add\n      dup2\n      swap1\n      mstore\n      0x80\n      dup3\n      add\n      dup2\n      swap1\n      mstore\n      0xa0\n      dup3\n      add\n      dup2\n      swap1\n      mstore\n      0xc0\n      dup3\n      add\n      mstore\n      dup3\n      mstore\n      not(0x00)\n      swap1\n      swap3\n      add\n      swap2\n      add\n      dup2\n      tag_443\n      jumpi\n      swap1\n      pop\n    tag_442:\n      pop\n        /* \"contractss/GameRegistry.sol\":26768:26808  history = new EntryData[](rounds.length) */\n      swap2\n      pop\n        /* \"contractss/GameRegistry.sol\":26823:26832  uint256 i */\n      0x00\n        /* \"contractss/GameRegistry.sol\":26818:26926  for (uint256 i = 0; i < rounds.length; i++) {... */\n    tag_446:\n        /* \"contractss/GameRegistry.sol\":26842:26848  rounds */\n      dup2\n        /* \"contractss/GameRegistry.sol\":26842:26855  rounds.length */\n      mload\n        /* \"contractss/GameRegistry.sol\":26838:26839  i */\n      dup2\n        /* \"contractss/GameRegistry.sol\":26838:26855  i < rounds.length */\n      lt\n        /* \"contractss/GameRegistry.sol\":26818:26926  for (uint256 i = 0; i < rounds.length; i++) {... */\n      iszero\n      tag_447\n      jumpi\n      sub(shl(0xa0, 0x01), 0x01)\n        /* \"contractss/GameRegistry.sol\":26889:26904  entries[player] */\n      dup5\n      and\n      0x00\n      swap1\n      dup2\n      mstore\n        /* \"contractss/GameRegistry.sol\":26889:26896  entries */\n      0x07\n        /* \"contractss/GameRegistry.sol\":26889:26904  entries[player] */\n      0x20\n      mstore\n      0x40\n      dup2\n      keccak256\n        /* \"contractss/GameRegistry.sol\":26905:26914  rounds[i] */\n      dup4\n      mload\n        /* \"contractss/GameRegistry.sol\":26889:26904  entries[player] */\n      swap1\n      swap2\n      swap1\n        /* \"contractss/GameRegistry.sol\":26905:26911  rounds */\n      dup5\n      swap1\n        /* \"contractss/GameRegistry.sol\":26912:26913  i */\n      dup5\n      swap1\n        /* \"contractss/GameRegistry.sol\":26905:26914  rounds[i] */\n      dup2\n      lt\n      tag_450\n      jumpi\n      tag_450\n      tag_239\n      jump\t// in\n    tag_450:\n      0x20\n      swap1\n      dup2\n      mul\n      swap2\n      swap1\n      swap2\n      add\n      dup2\n      add\n      mload\n        /* \"contractss/GameRegistry.sol\":26889:26915  entries[player][rounds[i]] */\n      dup3\n      mstore\n      dup2\n      dup2\n      add\n      swap3\n      swap1\n      swap3\n      mstore\n      0x40\n      swap1\n      dup2\n      add\n      0x00\n      keccak256\n        /* \"contractss/GameRegistry.sol\":26876:26915  history[i] = entries[player][rounds[i]] */\n      dup2\n      mload\n      0xe0\n      dup2\n      add\n      dup4\n      mstore\n      dup2\n      sload\n      0xd0\n      shl\n      not(sub(shl(0xd0, 0x01), 0x01))\n      and\n      dup2\n      mstore\n      0x01\n      dup3\n      add\n      sload\n      swap4\n      dup2\n      add\n      swap4\n      swap1\n      swap4\n      mstore\n      0x02\n      dup2\n      add\n      sload\n      swap2\n      dup4\n      add\n      swap2\n      swap1\n      swap2\n      mstore\n      0x03\n      dup2\n      add\n      sload\n      0x60\n      dup4\n      add\n      mstore\n      0x04\n      dup1\n      dup3\n      add\n      sload\n      sub(shl(0xa0, 0x01), 0x01)\n      dup2\n      and\n      0x80\n      dup6\n      add\n      mstore\n      0xa0\n      dup5\n      add\n      swap2\n      shl(0xa0, 0x01)\n      swap1\n      swap2\n      div\n      0xff\n      and\n      swap1\n      dup2\n      gt\n      iszero\n      tag_452\n      jumpi\n      tag_452\n      tag_244\n      jump\t// in\n    tag_452:\n      0x04\n      dup2\n      gt\n      iszero\n      tag_454\n      jumpi\n      tag_454\n      tag_244\n      jump\t// in\n    tag_454:\n      dup2\n      mstore\n      0x04\n      swap2\n      swap1\n      swap2\n      add\n      sload\n      shl(0xa8, 0x01)\n      swap1\n      div\n      0xff\n      and\n      iszero\n      iszero\n      0x20\n      swap1\n      swap2\n      add\n      mstore\n        /* \"contractss/GameRegistry.sol\":26876:26886  history[i] */\n      dup4\n      mload\n      dup5\n      swap1\n        /* \"contractss/GameRegistry.sol\":26884:26885  i */\n      dup4\n      swap1\n        /* \"contractss/GameRegistry.sol\":26876:26886  history[i] */\n      dup2\n      lt\n      tag_456\n      jumpi\n      tag_456\n      tag_239\n      jump\t// in\n    tag_456:\n      0x20\n      mul\n      0x20\n      add\n      add\n        /* \"contractss/GameRegistry.sol\":26876:26915  history[i] = entries[player][rounds[i]] */\n      dup2\n      swap1\n      mstore\n      pop\n        /* \"contractss/GameRegistry.sol\":26857:26860  i++ */\n      dup1\n      dup1\n      tag_457\n      swap1\n      tag_256\n      jump\t// in\n    tag_457:\n      swap2\n      pop\n      pop\n        /* \"contractss/GameRegistry.sol\":26818:26926  for (uint256 i = 0; i < rounds.length; i++) {... */\n      jump(tag_446)\n    tag_447:\n      pop\n        /* \"contractss/GameRegistry.sol\":26702:26932  {... */\n      pop\n        /* \"contractss/GameRegistry.sol\":26581:26932  function getPlayerHistory(address player)... */\n      swap2\n      swap1\n      pop\n      jump\t// out\n        /* \"contractss/GameRegistry.sol\":25648:25730  function pause()   external onlyOwner { paused = true;  emit Paused(msg.sender); } */\n    tag_163:\n        /* \"@openzeppelin/contracts/access/Ownable.sol\":1531:1544  _checkOwner() */\n      tag_459\n        /* \"@openzeppelin/contracts/access/Ownable.sol\":1531:1542  _checkOwner */\n      tag_264\n        /* \"@openzeppelin/contracts/access/Ownable.sol\":1531:1544  _checkOwner() */\n      jump\t// in\n    tag_459:\n        /* \"contractss/GameRegistry.sol\":25688:25694  paused */\n      0x06\n        /* \"contractss/GameRegistry.sol\":25688:25701  paused = true */\n      dup1\n      sload\n      not(0xff)\n      and\n        /* \"contractss/GameRegistry.sol\":25697:25701  true */\n      0x01\n        /* \"contractss/GameRegistry.sol\":25688:25701  paused = true */\n      or\n      swap1\n      sstore\n        /* \"contractss/GameRegistry.sol\":25709:25727  Paused(msg.sender) */\n      mload(0x40)\n        /* \"contractss/GameRegistry.sol\":25716:25726  msg.sender */\n      caller\n      swap1\n        /* \"contractss/GameRegistry.sol\":25709:25727  Paused(msg.sender) */\n      0x62e78cea01bee320cd4e420270b5ea74000d11b0c9f74754ebdbfc544b05a258\n      swap1\n        /* \"contractss/GameRegistry.sol\":25688:25694  paused */\n      0x00\n      swap1\n        /* \"contractss/GameRegistry.sol\":25709:25727  Paused(msg.sender) */\n      log2\n        /* \"contractss/GameRegistry.sol\":25648:25730  function pause()   external onlyOwner { paused = true;  emit Paused(msg.sender); } */\n      jump\t// out\n        /* \"contractss/GameRegistry.sol\":15731:17472  function replaceEntry(bytes6 newString6, uint256 extraRounds)... */\n    tag_167:\n        /* \"@openzeppelin/contracts/utils/ReentrancyGuard.sol\":3023:3044  _nonReentrantBefore() */\n      tag_462\n        /* \"@openzeppelin/contracts/utils/ReentrancyGuard.sol\":3023:3042  _nonReentrantBefore */\n      tag_295\n        /* \"@openzeppelin/contracts/utils/ReentrancyGuard.sol\":3023:3044  _nonReentrantBefore() */\n      jump\t// in\n    tag_462:\n        /* \"contractss/GameRegistry.sol\":7352:7358  paused */\n      and(0xff, sload(0x06))\n        /* \"contractss/GameRegistry.sol\":7348:7383  if (paused) revert ContractPaused() */\n      iszero\n      tag_464\n      jumpi\n        /* \"contractss/GameRegistry.sol\":7367:7383  ContractPaused() */\n      mload(0x40)\n      shl(0xe0, 0xab35696f)\n      dup2\n      mstore\n      0x04\n      add\n      mload(0x40)\n      dup1\n      swap2\n      sub\n      swap1\n      revert\n        /* \"contractss/GameRegistry.sol\":7348:7383  if (paused) revert ContractPaused() */\n    tag_464:\n        /* \"contractss/GameRegistry.sol\":15883:15900  uint256 playRound */\n      0x00\n        /* \"contractss/GameRegistry.sol\":15903:15915  currentRound */\n      sload(0x05)\n        /* \"contractss/GameRegistry.sol\":15918:15919  1 */\n      0x01\n        /* \"contractss/GameRegistry.sol\":15903:15919  currentRound + 1 */\n      tag_466\n      swap2\n      swap1\n      tag_281\n      jump\t// in\n    tag_466:\n        /* \"contractss/GameRegistry.sol\":15963:15973  msg.sender */\n      caller\n        /* \"contractss/GameRegistry.sol\":15929:15952  EntryData storage entry */\n      0x00\n        /* \"contractss/GameRegistry.sol\":15955:15974  entries[msg.sender] */\n      swap1\n      dup2\n      mstore\n        /* \"contractss/GameRegistry.sol\":15955:15962  entries */\n      0x07\n        /* \"contractss/GameRegistry.sol\":15955:15974  entries[msg.sender] */\n      0x20\n      swap1\n      dup2\n      mstore\n      0x40\n      dup1\n      dup4\n      keccak256\n        /* \"contractss/GameRegistry.sol\":15955:15985  entries[msg.sender][playRound] */\n      dup5\n      dup5\n      mstore\n      swap1\n      swap2\n      mstore\n      swap1\n      keccak256\n        /* \"contractss/GameRegistry.sol\":16001:16013  entry.exists */\n      0x04\n      dup2\n      add\n      sload\n        /* \"contractss/GameRegistry.sol\":15955:15985  entries[msg.sender][playRound] */\n      swap2\n      swap3\n      pop\n      swap1\n      shl(0xa8, 0x01)\n        /* \"contractss/GameRegistry.sol\":16001:16013  entry.exists */\n      swap1\n      div\n      0xff\n      and\n        /* \"contractss/GameRegistry.sol\":15996:16057  if (!entry.exists) revert NoEntryFound(msg.sender, playRound) */\n      tag_467\n      jumpi\n        /* \"contractss/GameRegistry.sol\":16022:16057  NoEntryFound(msg.sender, playRound) */\n      mload(0x40)\n      shl(0xe0, 0x9477d825)\n      dup2\n      mstore\n        /* \"contractss/GameRegistry.sol\":16035:16045  msg.sender */\n      caller\n        /* \"contractss/GameRegistry.sol\":16022:16057  NoEntryFound(msg.sender, playRound) */\n      0x04\n      dup3\n      add\n        /* \"#utility.yul\":11806:11857   */\n      mstore\n        /* \"#utility.yul\":11873:11891   */\n      0x24\n      dup2\n      add\n        /* \"#utility.yul\":11866:11900   */\n      dup4\n      swap1\n      mstore\n        /* \"#utility.yul\":11779:11797   */\n      0x44\n      add\n        /* \"contractss/GameRegistry.sol\":16022:16057  NoEntryFound(msg.sender, playRound) */\n      tag_311\n        /* \"#utility.yul\":11632:11906   */\n      jump\n        /* \"contractss/GameRegistry.sol\":15996:16057  if (!entry.exists) revert NoEntryFound(msg.sender, playRound) */\n    tag_467:\n        /* \"contractss/GameRegistry.sol\":16087:16106  EntryStatus.Pending */\n      0x00\n        /* \"contractss/GameRegistry.sol\":16071:16083  entry.status */\n      0x04\n      dup3\n      dup2\n      add\n      sload\n      shl(0xa0, 0x01)\n      swap1\n      div\n      0xff\n      and\n      swap1\n        /* \"contractss/GameRegistry.sol\":16071:16106  entry.status != EntryStatus.Pending */\n      dup2\n      gt\n      iszero\n      tag_472\n      jumpi\n      tag_472\n      tag_244\n      jump\t// in\n    tag_472:\n      eq\n      iszero\n        /* \"contractss/GameRegistry.sol\":16071:16156  entry.status != EntryStatus.Pending &&... */\n      dup1\n      iszero\n      tag_473\n      jumpi\n      pop\n        /* \"contractss/GameRegistry.sol\":16138:16156  EntryStatus.Active */\n      0x01\n        /* \"contractss/GameRegistry.sol\":16122:16134  entry.status */\n      0x04\n      dup3\n      dup2\n      add\n      sload\n      shl(0xa0, 0x01)\n      swap1\n      div\n      0xff\n      and\n      swap1\n        /* \"contractss/GameRegistry.sol\":16122:16156  entry.status != EntryStatus.Active */\n      dup2\n      gt\n      iszero\n      tag_477\n      jumpi\n      tag_477\n      tag_244\n      jump\t// in\n    tag_477:\n      eq\n      iszero\n        /* \"contractss/GameRegistry.sol\":16071:16156  entry.status != EntryStatus.Pending &&... */\n    tag_473:\n        /* \"contractss/GameRegistry.sol\":16067:16218  if (entry.status != EntryStatus.Pending &&... */\n      iszero\n      tag_478\n      jumpi\n        /* \"contractss/GameRegistry.sol\":16194:16199  entry */\n      dup1\n        /* \"contractss/GameRegistry.sol\":16194:16206  entry.status */\n      0x04\n      add\n      0x14\n      swap1\n      sload\n      swap1\n      0x0100\n      exp\n      swap1\n      div\n      0xff\n      and\n        /* \"contractss/GameRegistry.sol\":16179:16207  EntryNotActive(entry.status) */\n      mload(0x40)\n      shl(0xe0, 0x97b79d03)\n      dup2\n      mstore\n      0x04\n      add\n      tag_311\n      swap2\n      swap1\n      tag_254\n      jump\t// in\n        /* \"contractss/GameRegistry.sol\":16067:16218  if (entry.status != EntryStatus.Pending &&... */\n    tag_478:\n        /* \"contractss/GameRegistry.sol\":16259:16286  _validateString(newString6) */\n      tag_480\n        /* \"contractss/GameRegistry.sol\":16275:16285  newString6 */\n      dup5\n        /* \"contractss/GameRegistry.sol\":16259:16274  _validateString */\n      tag_313\n        /* \"contractss/GameRegistry.sol\":16259:16286  _validateString(newString6) */\n      jump\t// in\n    tag_480:\n        /* \"contractss/GameRegistry.sol\":16372:16394  uint256 additionalCost */\n      0x00\n        /* \"contractss/GameRegistry.sol\":16411:16425  entryCostTIMBS */\n      sload(0x03)\n        /* \"contractss/GameRegistry.sol\":16397:16408  extraRounds */\n      dup5\n        /* \"contractss/GameRegistry.sol\":16397:16425  extraRounds * entryCostTIMBS */\n      tag_481\n      swap2\n      swap1\n      tag_340\n      jump\t// in\n    tag_481:\n        /* \"contractss/GameRegistry.sol\":16372:16425  uint256 additionalCost = extraRounds * entryCostTIMBS */\n      swap1\n      pop\n        /* \"contractss/GameRegistry.sol\":16439:16457  additionalCost > 0 */\n      dup1\n      iszero\n        /* \"contractss/GameRegistry.sol\":16435:16684  if (additionalCost > 0) {... */\n      tag_482\n      jumpi\n        /* \"contractss/GameRegistry.sol\":16493:16540  timbsToken.allowance(msg.sender, address(this)) */\n      mload(0x40)\n      shl(0xe1, 0x6eb1769f)\n      dup2\n      mstore\n        /* \"contractss/GameRegistry.sol\":16514:16524  msg.sender */\n      caller\n        /* \"contractss/GameRegistry.sol\":16493:16540  timbsToken.allowance(msg.sender, address(this)) */\n      0x04\n      dup3\n      add\n        /* \"#utility.yul\":12534:12568   */\n      mstore\n        /* \"contractss/GameRegistry.sol\":16534:16538  this */\n      address\n        /* \"#utility.yul\":12584:12602   */\n      0x24\n      dup3\n      add\n        /* \"#utility.yul\":12577:12620   */\n      mstore\n        /* \"contractss/GameRegistry.sol\":16473:16490  uint256 allowance */\n      0x00\n      swap1\n        /* \"contractss/GameRegistry.sol\":16493:16503  timbsToken */\n      immutable(\"0xcc1cf32daa775edd624f71ddb0d100d39c31c65becb67e6d2e7789fa58c10fe0\")\n      sub(shl(0xa0, 0x01), 0x01)\n        /* \"contractss/GameRegistry.sol\":16493:16513  timbsToken.allowance */\n      and\n      swap1\n      0xdd62ed3e\n      swap1\n        /* \"#utility.yul\":12469:12487   */\n      0x44\n      add\n        /* \"contractss/GameRegistry.sol\":16493:16540  timbsToken.allowance(msg.sender, address(this)) */\n      0x20\n      mload(0x40)\n      dup1\n      dup4\n      sub\n      dup2\n      dup7\n      gas\n      staticcall\n      iszero\n      dup1\n      iszero\n      tag_486\n      jumpi\n      returndatasize\n      0x00\n      dup1\n      returndatacopy\n      revert(0x00, returndatasize)\n    tag_486:\n      pop\n      pop\n      pop\n      pop\n      mload(0x40)\n      returndatasize\n      not(0x1f)\n      0x1f\n      dup3\n      add\n      and\n      dup3\n      add\n      dup1\n      0x40\n      mstore\n      pop\n      dup2\n      add\n      swap1\n      tag_487\n      swap2\n      swap1\n      tag_488\n      jump\t// in\n    tag_487:\n        /* \"contractss/GameRegistry.sol\":16473:16540  uint256 allowance = timbsToken.allowance(msg.sender, address(this)) */\n      swap1\n      pop\n        /* \"contractss/GameRegistry.sol\":16570:16584  additionalCost */\n      dup2\n        /* \"contractss/GameRegistry.sol\":16558:16567  allowance */\n      dup2\n        /* \"contractss/GameRegistry.sol\":16558:16584  allowance < additionalCost */\n      lt\n        /* \"contractss/GameRegistry.sol\":16554:16674  if (allowance < additionalCost) {... */\n      iszero\n      tag_489\n      jumpi\n        /* \"contractss/GameRegistry.sol\":16611:16659  InsufficientAllowance(additionalCost, allowance) */\n      mload(0x40)\n      shl(0xe3, 0x054365bb)\n      dup2\n      mstore\n      0x04\n      dup2\n      add\n        /* \"#utility.yul\":10373:10398   */\n      dup4\n      swap1\n      mstore\n        /* \"#utility.yul\":10414:10432   */\n      0x24\n      dup2\n      add\n        /* \"#utility.yul\":10407:10441   */\n      dup3\n      swap1\n      mstore\n        /* \"#utility.yul\":10346:10364   */\n      0x44\n      add\n        /* \"contractss/GameRegistry.sol\":16611:16659  InsufficientAllowance(additionalCost, allowance) */\n      tag_311\n        /* \"#utility.yul\":10199:10447   */\n      jump\n        /* \"contractss/GameRegistry.sol\":16554:16674  if (allowance < additionalCost) {... */\n    tag_489:\n        /* \"contractss/GameRegistry.sol\":16459:16684  {... */\n      pop\n        /* \"contractss/GameRegistry.sol\":16435:16684  if (additionalCost > 0) {... */\n    tag_482:\n        /* \"contractss/GameRegistry.sol\":16713:16726  entry.string6 */\n      dup2\n      sload\n      0xd0\n        /* \"contractss/GameRegistry.sol\":16824:16860  entry.string6           = newString6 */\n      dup7\n      dup2\n      shr\n      not(0xffffffffffff)\n      dup4\n      and\n      or\n      dup5\n      sstore\n        /* \"contractss/GameRegistry.sol\":16713:16726  entry.string6 */\n      shl\n        /* \"contractss/GameRegistry.sol\":16896:16919  playRound + extraRounds */\n      tag_491\n        /* \"contractss/GameRegistry.sol\":16908:16919  extraRounds */\n      dup6\n        /* \"contractss/GameRegistry.sol\":16896:16905  playRound */\n      dup6\n        /* \"contractss/GameRegistry.sol\":16896:16919  playRound + extraRounds */\n      tag_281\n      jump\t// in\n    tag_491:\n        /* \"contractss/GameRegistry.sol\":16870:16893  entry.lastEligibleRound */\n      0x02\n      dup5\n      add\n        /* \"contractss/GameRegistry.sol\":16870:16919  entry.lastEligibleRound = playRound + extraRounds */\n      sstore\n        /* \"contractss/GameRegistry.sol\":16970:16995  stringEntrants[playRound] */\n      0x00\n      dup5\n      dup2\n      mstore\n        /* \"contractss/GameRegistry.sol\":16970:16984  stringEntrants */\n      0x08\n        /* \"contractss/GameRegistry.sol\":16970:16995  stringEntrants[playRound] */\n      0x20\n      swap1\n      dup2\n      mstore\n      0x40\n      dup1\n      dup4\n      keccak256\n      not(sub(shl(0xd0, 0x01), 0x01))\n        /* \"contractss/GameRegistry.sol\":16970:17007  stringEntrants[playRound][newString6] */\n      dup11\n      and\n      dup5\n      mstore\n      dup3\n      mstore\n      dup3\n      keccak256\n        /* \"contractss/GameRegistry.sol\":16970:17024  stringEntrants[playRound][newString6].push(msg.sender) */\n      dup1\n      sload\n      0x01\n      dup2\n      add\n      dup3\n      sstore\n      swap1\n      dup4\n      mstore\n      swap2\n      keccak256\n      add\n      dup1\n      sload\n      not(sub(shl(0xa0, 0x01), 0x01))\n      and\n        /* \"contractss/GameRegistry.sol\":17013:17023  msg.sender */\n      caller\n        /* \"contractss/GameRegistry.sol\":16970:17024  stringEntrants[playRound][newString6].push(msg.sender) */\n      or\n      swap1\n      sstore\n        /* \"contractss/GameRegistry.sol\":17123:17141  additionalCost > 0 */\n      dup2\n      iszero\n        /* \"contractss/GameRegistry.sol\":17119:17305  if (additionalCost > 0) {... */\n      tag_493\n      jumpi\n        /* \"contractss/GameRegistry.sol\":17197:17209  protocolSink */\n      sload(0x01)\n        /* \"contractss/GameRegistry.sol\":17157:17226  timbsToken.safeTransferFrom(msg.sender, protocolSink, additionalCost) */\n      tag_494\n      swap1\n      sub(shl(0xa0, 0x01), 0x01)\n        /* \"contractss/GameRegistry.sol\":17157:17167  timbsToken */\n      immutable(\"0xcc1cf32daa775edd624f71ddb0d100d39c31c65becb67e6d2e7789fa58c10fe0\")\n        /* \"contractss/GameRegistry.sol\":17157:17184  timbsToken.safeTransferFrom */\n      dup2\n      and\n      swap2\n        /* \"contractss/GameRegistry.sol\":17185:17195  msg.sender */\n      caller\n      swap2\n        /* \"contractss/GameRegistry.sol\":17197:17209  protocolSink */\n      and\n        /* \"contractss/GameRegistry.sol\":17211:17225  additionalCost */\n      dup6\n        /* \"contractss/GameRegistry.sol\":17157:17184  timbsToken.safeTransferFrom */\n      tag_338\n        /* \"contractss/GameRegistry.sol\":17157:17226  timbsToken.safeTransferFrom(msg.sender, protocolSink, additionalCost) */\n      jump\t// in\n    tag_494:\n        /* \"contractss/GameRegistry.sol\":17245:17294  AdditionalRoundSinked(msg.sender, additionalCost) */\n      mload(0x40)\n        /* \"#utility.yul\":3050:3075   */\n      dup3\n      dup2\n      mstore\n        /* \"contractss/GameRegistry.sol\":17267:17277  msg.sender */\n      caller\n      swap1\n        /* \"contractss/GameRegistry.sol\":17245:17294  AdditionalRoundSinked(msg.sender, additionalCost) */\n      0x41a209ee6a3eb8344a3f83b585bb4d93349bfbbd34dce09ea38d8023516f2da0\n      swap1\n        /* \"#utility.yul\":3038:3040   */\n      0x20\n        /* \"#utility.yul\":3023:3041   */\n      add\n        /* \"contractss/GameRegistry.sol\":17245:17294  AdditionalRoundSinked(msg.sender, additionalCost) */\n      mload(0x40)\n      dup1\n      swap2\n      sub\n      swap1\n      log2\n        /* \"contractss/GameRegistry.sol\":17119:17305  if (additionalCost > 0) {... */\n    tag_493:\n        /* \"contractss/GameRegistry.sol\":17320:17465  EntryReplaced(... */\n      0x40\n      dup1\n      mload\n      not(sub(shl(0xd0, 0x01), 0x01))\n        /* \"#utility.yul\":13079:13094   */\n      dup1\n      dup5\n      and\n        /* \"#utility.yul\":13061:13095   */\n      dup3\n      mstore\n        /* \"#utility.yul\":13131:13146   */\n      dup9\n      and\n        /* \"#utility.yul\":13126:13128   */\n      0x20\n        /* \"#utility.yul\":13111:13129   */\n      dup3\n      add\n        /* \"#utility.yul\":13104:13147   */\n      mstore\n        /* \"#utility.yul\":13163:13181   */\n      swap1\n      dup2\n      add\n        /* \"#utility.yul\":13156:13190   */\n      dup4\n      swap1\n      mstore\n        /* \"contractss/GameRegistry.sol\":17371:17380  playRound */\n      dup5\n      swap1\n        /* \"contractss/GameRegistry.sol\":17347:17357  msg.sender */\n      caller\n      swap1\n        /* \"contractss/GameRegistry.sol\":17320:17465  EntryReplaced(... */\n      0xab313771997efca336c32b9e87cd8a060e3f223ab8b4e494e49c21e2342fb73c\n      swap1\n        /* \"#utility.yul\":13006:13008   */\n      0x60\n        /* \"#utility.yul\":12991:13009   */\n      add\n        /* \"contractss/GameRegistry.sol\":17320:17465  EntryReplaced(... */\n      mload(0x40)\n      dup1\n      swap2\n      sub\n      swap1\n      log3\n        /* \"contractss/GameRegistry.sol\":15873:17472  {... */\n      pop\n      pop\n      pop\n      pop\n        /* \"@openzeppelin/contracts/utils/ReentrancyGuard.sol\":3065:3085  _nonReentrantAfter() */\n      tag_498\n        /* \"@openzeppelin/contracts/utils/ReentrancyGuard.sol\":2365:2366  1 */\n      0x01\n      0x00\n      dup1\n      mload\n      0x20\n      data_c8669cf8eaf883002b9f48e28846a8d408c9b58ea6613bace374265e43c9bc43\n      dup4\n      codecopy\n      dup2\n      mload\n      swap2\n      mstore\n        /* \"@openzeppelin/contracts/utils/ReentrancyGuard.sol\":3972:4034  _reentrancyGuardStorageSlot().getUint256Slot().value = ENTERED */\n      sstore\n        /* \"@openzeppelin/contracts/utils/ReentrancyGuard.sol\":3749:4041  function _nonReentrantBefore() private {... */\n      jump\n        /* \"@openzeppelin/contracts/utils/ReentrancyGuard.sol\":3065:3085  _nonReentrantAfter() */\n    tag_498:\n        /* \"contractss/GameRegistry.sol\":15731:17472  function replaceEntry(bytes6 newString6, uint256 extraRounds)... */\n      pop\n      pop\n      jump\t// out\n        /* \"contractss/GameRegistry.sol\":24819:25118  function setEntryCosts(uint256 _timbsCost, uint256 _ethCost)... */\n    tag_176:\n        /* \"@openzeppelin/contracts/access/Ownable.sol\":1531:1544  _checkOwner() */\n      tag_500\n        /* \"@openzeppelin/contracts/access/Ownable.sol\":1531:1542  _checkOwner */\n      tag_264\n        /* \"@openzeppelin/contracts/access/Ownable.sol\":1531:1544  _checkOwner() */\n      jump\t// in\n    tag_500:\n        /* \"contractss/GameRegistry.sol\":24933:24948  _timbsCost == 0 */\n      dup2\n      iszero\n      dup1\n        /* \"contractss/GameRegistry.sol\":24933:24965  _timbsCost == 0 || _ethCost == 0 */\n      tag_502\n      jumpi\n      pop\n        /* \"contractss/GameRegistry.sol\":24952:24965  _ethCost == 0 */\n      dup1\n      iszero\n        /* \"contractss/GameRegistry.sol\":24933:24965  _timbsCost == 0 || _ethCost == 0 */\n    tag_502:\n        /* \"contractss/GameRegistry.sol\":24929:24986  if (_timbsCost == 0 || _ethCost == 0) revert ZeroAmount() */\n      iszero\n      tag_503\n      jumpi\n        /* \"contractss/GameRegistry.sol\":24974:24986  ZeroAmount() */\n      mload(0x40)\n      shl(0xe0, 0x1f2a2005)\n      dup2\n      mstore\n      0x04\n      add\n      mload(0x40)\n      dup1\n      swap2\n      sub\n      swap1\n      revert\n        /* \"contractss/GameRegistry.sol\":24929:24986  if (_timbsCost == 0 || _ethCost == 0) revert ZeroAmount() */\n    tag_503:\n        /* \"contractss/GameRegistry.sol\":24996:25010  entryCostTIMBS */\n      0x03\n        /* \"contractss/GameRegistry.sol\":24996:25023  entryCostTIMBS = _timbsCost */\n      dup3\n      swap1\n      sstore\n        /* \"contractss/GameRegistry.sol\":25033:25045  entryCostETH */\n      0x04\n        /* \"contractss/GameRegistry.sol\":25033:25058  entryCostETH   = _ethCost */\n      dup2\n      swap1\n      sstore\n        /* \"contractss/GameRegistry.sol\":25073:25111  EntryCostUpdated(_timbsCost, _ethCost) */\n      0x40\n      dup1\n      mload\n        /* \"#utility.yul\":10373:10398   */\n      dup4\n      dup2\n      mstore\n        /* \"#utility.yul\":10429:10431   */\n      0x20\n        /* \"#utility.yul\":10414:10432   */\n      dup2\n      add\n        /* \"#utility.yul\":10407:10441   */\n      dup4\n      swap1\n      mstore\n        /* \"contractss/GameRegistry.sol\":25073:25111  EntryCostUpdated(_timbsCost, _ethCost) */\n      0x5299e127ac8bdc64fd0e551dd406ba1e1fbaebc96d458ce9b1a5e69caecdf376\n      swap2\n        /* \"#utility.yul\":10346:10364   */\n      add\n        /* \"contractss/GameRegistry.sol\":25073:25111  EntryCostUpdated(_timbsCost, _ethCost) */\n      mload(0x40)\n      dup1\n      swap2\n      sub\n      swap1\n      log1\n        /* \"contractss/GameRegistry.sol\":24819:25118  function setEntryCosts(uint256 _timbsCost, uint256 _ethCost)... */\n      pop\n      pop\n      jump\t// out\n        /* \"contractss/GameRegistry.sol\":23643:23824  function getStringEntrants(uint256 round, bytes6 string6)... */\n    tag_185:\n        /* \"contractss/GameRegistry.sol\":23787:23808  stringEntrants[round] */\n      0x00\n      dup3\n      dup2\n      mstore\n        /* \"contractss/GameRegistry.sol\":23787:23801  stringEntrants */\n      0x08\n        /* \"contractss/GameRegistry.sol\":23787:23808  stringEntrants[round] */\n      0x20\n      swap1\n      dup2\n      mstore\n      0x40\n      dup1\n      dup4\n      keccak256\n      not(sub(shl(0xd0, 0x01), 0x01))\n        /* \"contractss/GameRegistry.sol\":23787:23817  stringEntrants[round][string6] */\n      dup6\n      and\n      dup5\n      mstore\n      dup3\n      mstore\n      swap2\n      dup3\n      swap1\n      keccak256\n        /* \"contractss/GameRegistry.sol\":23780:23817  return stringEntrants[round][string6] */\n      dup1\n      sload\n      dup4\n      mload\n      dup2\n      dup5\n      mul\n      dup2\n      add\n      dup5\n      add\n      swap1\n      swap5\n      mstore\n      dup1\n      dup5\n      mstore\n        /* \"contractss/GameRegistry.sol\":23748:23764  address[] memory */\n      0x60\n      swap4\n        /* \"contractss/GameRegistry.sol\":23780:23817  return stringEntrants[round][string6] */\n      swap3\n      dup4\n      add\n        /* \"contractss/GameRegistry.sol\":23787:23817  stringEntrants[round][string6] */\n      dup3\n        /* \"contractss/GameRegistry.sol\":23780:23817  return stringEntrants[round][string6] */\n      dup3\n      dup1\n      iszero\n      tag_507\n      jumpi\n      0x20\n      mul\n      dup3\n      add\n      swap2\n      swap1\n      0x00\n      mstore\n      keccak256(0x00, 0x20)\n      swap1\n    tag_508:\n      dup2\n      sload\n      sub(shl(0xa0, 0x01), 0x01)\n      and\n      dup2\n      mstore\n      0x01\n      swap1\n      swap2\n      add\n      swap1\n      0x20\n      add\n      dup1\n      dup4\n      gt\n      tag_508\n      jumpi\n    tag_507:\n      pop\n      pop\n      pop\n      pop\n      pop\n      swap1\n      pop\n        /* \"contractss/GameRegistry.sol\":23643:23824  function getStringEntrants(uint256 round, bytes6 string6)... */\n    tag_506:\n      swap3\n      swap2\n      pop\n      pop\n      jump\t// out\n        /* \"contractss/GameRegistry.sol\":24248:24423  function getIdenticalCount(bytes6 string6)... */\n    tag_190:\n        /* \"contractss/GameRegistry.sol\":24338:24345  uint256 */\n      0x00\n        /* \"contractss/GameRegistry.sol\":24368:24382  stringEntrants */\n      0x08\n        /* \"contractss/GameRegistry.sol\":24368:24400  stringEntrants[currentRound + 1] */\n      0x00\n        /* \"contractss/GameRegistry.sol\":24383:24395  currentRound */\n      sload(0x05)\n        /* \"contractss/GameRegistry.sol\":24398:24399  1 */\n      0x01\n        /* \"contractss/GameRegistry.sol\":24383:24399  currentRound + 1 */\n      tag_510\n      swap2\n      swap1\n      tag_281\n      jump\t// in\n    tag_510:\n        /* \"contractss/GameRegistry.sol\":24368:24400  stringEntrants[currentRound + 1] */\n      dup2\n      mstore\n      0x20\n      dup1\n      dup3\n      add\n      swap3\n      swap1\n      swap3\n      mstore\n      0x40\n      swap1\n      dup2\n      add\n      0x00\n      swap1\n      dup2\n      keccak256\n      not(sub(shl(0xd0, 0x01), 0x01))\n        /* \"contractss/GameRegistry.sol\":24368:24409  stringEntrants[currentRound + 1][string6] */\n      swap1\n      swap6\n      and\n      dup2\n      mstore\n      swap4\n      swap1\n      swap2\n      mstore\n      swap1\n      swap2\n      keccak256\n        /* \"contractss/GameRegistry.sol\":24368:24416  stringEntrants[currentRound + 1][string6].length */\n      sload\n      swap2\n        /* \"contractss/GameRegistry.sol\":24248:24423  function getIdenticalCount(bytes6 string6)... */\n      swap1\n      pop\n      jump\t// out\n        /* \"contractss/GameRegistry.sol\":22290:22586  function verifyEntryExisted(address player, uint256 round)... */\n    tag_195:\n      sub(shl(0xa0, 0x01), 0x01)\n        /* \"contractss/GameRegistry.sol\":22465:22480  entries[player] */\n      dup3\n      and\n        /* \"contractss/GameRegistry.sol\":22396:22407  bool exists */\n      0x00\n        /* \"contractss/GameRegistry.sol\":22465:22480  entries[player] */\n      swap1\n      dup2\n      mstore\n        /* \"contractss/GameRegistry.sol\":22465:22472  entries */\n      0x07\n        /* \"contractss/GameRegistry.sol\":22465:22480  entries[player] */\n      0x20\n      swap1\n      dup2\n      mstore\n      0x40\n      dup1\n      dup4\n      keccak256\n        /* \"contractss/GameRegistry.sol\":22465:22487  entries[player][round] */\n      dup5\n      dup5\n      mstore\n      swap1\n      swap2\n      mstore\n      dup2\n      keccak256\n        /* \"contractss/GameRegistry.sol\":22502:22514  entry.exists */\n      0x04\n      dup2\n      add\n      sload\n        /* \"contractss/GameRegistry.sol\":22396:22407  bool exists */\n      dup3\n      swap2\n        /* \"contractss/GameRegistry.sol\":22465:22487  entries[player][round] */\n      swap1\n      shl(0xa8, 0x01)\n        /* \"contractss/GameRegistry.sol\":22502:22514  entry.exists */\n      swap1\n      div\n      0xff\n      and\n        /* \"contractss/GameRegistry.sol\":22497:22541  if (!entry.exists) return (false, bytes6(0)) */\n      tag_512\n      jumpi\n      pop\n        /* \"contractss/GameRegistry.sol\":22524:22529  false */\n      0x00\n      swap2\n      pop\n      dup2\n      swap1\n      pop\n        /* \"contractss/GameRegistry.sol\":22516:22541  return (false, bytes6(0)) */\n      jump(tag_511)\n        /* \"contractss/GameRegistry.sol\":22497:22541  if (!entry.exists) return (false, bytes6(0)) */\n    tag_512:\n        /* \"contractss/GameRegistry.sol\":22565:22578  entry.string6 */\n      sload\n        /* \"contractss/GameRegistry.sol\":22559:22563  true */\n      0x01\n      swap3\n      pop\n        /* \"contractss/GameRegistry.sol\":22565:22578  entry.string6 */\n      0xd0\n      shl\n      swap1\n      pop\n        /* \"contractss/GameRegistry.sol\":22290:22586  function verifyEntryExisted(address player, uint256 round)... */\n    tag_511:\n      swap3\n      pop\n      swap3\n      swap1\n      pop\n      jump\t// out\n        /* \"contractss/GameRegistry.sol\":26106:26270  function getEntry(address player, uint256 round)... */\n    tag_207:\n      0x40\n      dup1\n      mload\n      0xe0\n      dup2\n      add\n      dup3\n      mstore\n      0x00\n      dup1\n      dup3\n      mstore\n      0x20\n      dup3\n      add\n      dup2\n      swap1\n      mstore\n      swap2\n      dup2\n      add\n      dup3\n      swap1\n      mstore\n      0x60\n      dup2\n      add\n      dup3\n      swap1\n      mstore\n      0x80\n      dup2\n      add\n      dup3\n      swap1\n      mstore\n      0xa0\n      dup2\n      add\n      dup3\n      swap1\n      mstore\n      0xc0\n      dup2\n      add\n      swap2\n      swap1\n      swap2\n      mstore\n      sub(shl(0xa0, 0x01), 0x01)\n        /* \"contractss/GameRegistry.sol\":26241:26256  entries[player] */\n      dup4\n      dup2\n      and\n      0x00\n      swap1\n      dup2\n      mstore\n        /* \"contractss/GameRegistry.sol\":26241:26248  entries */\n      0x07\n        /* \"contractss/GameRegistry.sol\":26241:26256  entries[player] */\n      0x20\n      swap1\n      dup2\n      mstore\n      0x40\n      dup1\n      dup4\n      keccak256\n        /* \"contractss/GameRegistry.sol\":26241:26263  entries[player][round] */\n      dup7\n      dup5\n      mstore\n      dup3\n      mstore\n      swap2\n      dup3\n      swap1\n      keccak256\n        /* \"contractss/GameRegistry.sol\":26234:26263  return entries[player][round] */\n      dup3\n      mload\n      0xe0\n      dup2\n      add\n      dup5\n      mstore\n      dup2\n      sload\n      0xd0\n      shl\n      not(sub(shl(0xd0, 0x01), 0x01))\n      and\n      dup2\n      mstore\n      0x01\n      dup3\n      add\n      sload\n      swap3\n      dup2\n      add\n      swap3\n      swap1\n      swap3\n      mstore\n      0x02\n      dup2\n      add\n      sload\n      swap3\n      dup3\n      add\n      swap3\n      swap1\n      swap3\n      mstore\n      0x03\n      dup3\n      add\n      sload\n      0x60\n      dup3\n      add\n      mstore\n      0x04\n      dup1\n      dup4\n      add\n      sload\n      swap4\n      dup5\n      and\n      0x80\n      dup4\n      add\n      mstore\n      swap1\n      swap3\n      0xa0\n      dup5\n      add\n      swap2\n      shl(0xa0, 0x01)\n      swap1\n      swap2\n      div\n      0xff\n      and\n      swap1\n      dup2\n      gt\n      iszero\n      tag_516\n      jumpi\n      tag_516\n      tag_244\n      jump\t// in\n    tag_516:\n      0x04\n      dup2\n      gt\n      iszero\n      tag_518\n      jumpi\n      tag_518\n      tag_244\n      jump\t// in\n    tag_518:\n      dup2\n      mstore\n      0x04\n      swap2\n      swap1\n      swap2\n      add\n      sload\n      shl(0xa8, 0x01)\n      swap1\n      div\n      0xff\n      and\n      iszero\n      iszero\n      0x20\n      swap1\n      swap2\n      add\n      mstore\n      swap4\n        /* \"contractss/GameRegistry.sol\":26106:26270  function getEntry(address player, uint256 round)... */\n      swap3\n      pop\n      pop\n      pop\n      jump\t// out\n        /* \"contractss/GameRegistry.sol\":22876:23401  function verifyEntryValid(address player, uint256 round)... */\n    tag_213:\n      sub(shl(0xa0, 0x01), 0x01)\n        /* \"contractss/GameRegistry.sol\":23048:23063  entries[player] */\n      dup3\n      and\n        /* \"contractss/GameRegistry.sol\":22980:22990  bool valid */\n      0x00\n        /* \"contractss/GameRegistry.sol\":23048:23063  entries[player] */\n      swap1\n      dup2\n      mstore\n        /* \"contractss/GameRegistry.sol\":23048:23055  entries */\n      0x07\n        /* \"contractss/GameRegistry.sol\":23048:23063  entries[player] */\n      0x20\n      swap1\n      dup2\n      mstore\n      0x40\n      dup1\n      dup4\n      keccak256\n        /* \"contractss/GameRegistry.sol\":23048:23070  entries[player][round] */\n      dup5\n      dup5\n      mstore\n      swap1\n      swap2\n      mstore\n      dup2\n      keccak256\n        /* \"contractss/GameRegistry.sol\":23085:23097  entry.exists */\n      0x04\n      dup2\n      add\n      sload\n        /* \"contractss/GameRegistry.sol\":22980:22990  bool valid */\n      dup3\n      swap2\n        /* \"contractss/GameRegistry.sol\":23048:23070  entries[player][round] */\n      swap1\n      shl(0xa8, 0x01)\n        /* \"contractss/GameRegistry.sol\":23085:23097  entry.exists */\n      swap1\n      div\n      0xff\n      and\n        /* \"contractss/GameRegistry.sol\":23080:23149  if (!entry.exists)                          return (false, bytes6(0)) */\n      tag_520\n      jumpi\n      pop\n        /* \"contractss/GameRegistry.sol\":23132:23137  false */\n      0x00\n      swap2\n      pop\n      dup2\n      swap1\n      pop\n        /* \"contractss/GameRegistry.sol\":23124:23149  return (false, bytes6(0)) */\n      jump(tag_511)\n        /* \"contractss/GameRegistry.sol\":23080:23149  if (!entry.exists)                          return (false, bytes6(0)) */\n    tag_520:\n        /* \"contractss/GameRegistry.sol\":23179:23197  EntryStatus.Active */\n      0x01\n        /* \"contractss/GameRegistry.sol\":23163:23175  entry.status */\n      0x04\n      dup3\n      dup2\n      add\n      sload\n      shl(0xa0, 0x01)\n      swap1\n      div\n      0xff\n      and\n      swap1\n        /* \"contractss/GameRegistry.sol\":23163:23197  entry.status != EntryStatus.Active */\n      dup2\n      gt\n      iszero\n      tag_524\n      jumpi\n      tag_524\n      tag_244\n      jump\t// in\n    tag_524:\n      eq\n      iszero\n        /* \"contractss/GameRegistry.sol\":23163:23248  entry.status != EntryStatus.Active &&... */\n      dup1\n      iszero\n      tag_525\n      jumpi\n      pop\n        /* \"contractss/GameRegistry.sol\":23229:23248  EntryStatus.Pending */\n      0x00\n        /* \"contractss/GameRegistry.sol\":23213:23225  entry.status */\n      0x04\n      dup3\n      dup2\n      add\n      sload\n      shl(0xa0, 0x01)\n      swap1\n      div\n      0xff\n      and\n      swap1\n        /* \"contractss/GameRegistry.sol\":23213:23248  entry.status != EntryStatus.Pending */\n      dup2\n      gt\n      iszero\n      tag_529\n      jumpi\n      tag_529\n      tag_244\n      jump\t// in\n    tag_529:\n      eq\n      iszero\n        /* \"contractss/GameRegistry.sol\":23163:23248  entry.status != EntryStatus.Active &&... */\n    tag_525:\n        /* \"contractss/GameRegistry.sol\":23159:23277  if (entry.status != EntryStatus.Active &&... */\n      iszero\n      tag_530\n      jumpi\n      pop\n        /* \"contractss/GameRegistry.sol\":23260:23265  false */\n      0x00\n      swap2\n      pop\n      dup2\n      swap1\n      pop\n        /* \"contractss/GameRegistry.sol\":23252:23277  return (false, bytes6(0)) */\n      jump(tag_511)\n        /* \"contractss/GameRegistry.sol\":23159:23277  if (entry.status != EntryStatus.Active &&... */\n    tag_530:\n        /* \"contractss/GameRegistry.sol\":23299:23304  entry */\n      dup1\n        /* \"contractss/GameRegistry.sol\":23299:23322  entry.lastEligibleRound */\n      0x02\n      add\n      sload\n        /* \"contractss/GameRegistry.sol\":23291:23296  round */\n      dup5\n        /* \"contractss/GameRegistry.sol\":23291:23322  round > entry.lastEligibleRound */\n      gt\n        /* \"contractss/GameRegistry.sol\":23287:23356  if (round > entry.lastEligibleRound)        return (false, bytes6(0)) */\n      iszero\n      tag_512\n      jumpi\n      pop\n        /* \"contractss/GameRegistry.sol\":23339:23344  false */\n      0x00\n      swap2\n      pop\n      dup2\n      swap1\n      pop\n        /* \"contractss/GameRegistry.sol\":23331:23356  return (false, bytes6(0)) */\n      jump(tag_511)\n        /* \"contractss/GameRegistry.sol\":27019:27181  function additionalRoundCost(uint256 extraRounds)... */\n    tag_218:\n        /* \"contractss/GameRegistry.sol\":27116:27123  uint256 */\n      0x00\n        /* \"contractss/GameRegistry.sol\":27160:27174  entryCostTIMBS */\n      sload(0x03)\n        /* \"contractss/GameRegistry.sol\":27146:27157  extraRounds */\n      dup3\n        /* \"contractss/GameRegistry.sol\":27146:27174  extraRounds * entryCostTIMBS */\n      tag_506\n      swap2\n      swap1\n      tag_340\n      jump\t// in\n        /* \"contractss/GameRegistry.sol\":4740:4790  mapping(uint256 => address[]) public roundEntrants */\n    tag_223:\n      mstore(0x20, 0x0a)\n      dup2\n      0x00\n      mstore\n      keccak256(0x00, 0x40)\n      dup2\n      dup2\n      sload\n      dup2\n      lt\n      tag_534\n      jumpi\n      0x00\n      dup1\n      revert\n    tag_534:\n      0x00\n      swap2\n      dup3\n      mstore\n      0x20\n      swap1\n      swap2\n      keccak256\n      add\n      sload\n      sub(shl(0xa0, 0x01), 0x01)\n      and\n      swap2\n      pop\n      dup3\n      swap1\n      pop\n      jump\t// out\n        /* \"@openzeppelin/contracts/access/Ownable.sol\":2543:2758  function transferOwnership(address newOwner) public virtual onlyOwner {... */\n    tag_228:\n        /* \"@openzeppelin/contracts/access/Ownable.sol\":1531:1544  _checkOwner() */\n      tag_537\n        /* \"@openzeppelin/contracts/access/Ownable.sol\":1531:1542  _checkOwner */\n      tag_264\n        /* \"@openzeppelin/contracts/access/Ownable.sol\":1531:1544  _checkOwner() */\n      jump\t// in\n    tag_537:\n      sub(shl(0xa0, 0x01), 0x01)\n        /* \"@openzeppelin/contracts/access/Ownable.sol\":2627:2649  newOwner == address(0) */\n      dup2\n      and\n        /* \"@openzeppelin/contracts/access/Ownable.sol\":2623:2714  if (newOwner == address(0)) {... */\n      tag_539\n      jumpi\n        /* \"@openzeppelin/contracts/access/Ownable.sol\":2672:2703  OwnableInvalidOwner(address(0)) */\n      mload(0x40)\n      shl(0xe0, 0x1e4fbdf7)\n      dup2\n      mstore\n        /* \"@openzeppelin/contracts/access/Ownable.sol\":2700:2701  0 */\n      0x00\n        /* \"@openzeppelin/contracts/access/Ownable.sol\":2672:2703  OwnableInvalidOwner(address(0)) */\n      0x04\n      dup3\n      add\n        /* \"#utility.yul\":667:718   */\n      mstore\n        /* \"#utility.yul\":640:658   */\n      0x24\n      add\n        /* \"@openzeppelin/contracts/access/Ownable.sol\":2672:2703  OwnableInvalidOwner(address(0)) */\n      tag_311\n        /* \"#utility.yul\":521:724   */\n      jump\n        /* \"@openzeppelin/contracts/access/Ownable.sol\":2623:2714  if (newOwner == address(0)) {... */\n    tag_539:\n        /* \"@openzeppelin/contracts/access/Ownable.sol\":2723:2751  _transferOwnership(newOwner) */\n      tag_409\n        /* \"@openzeppelin/contracts/access/Ownable.sol\":2742:2750  newOwner */\n      dup2\n        /* \"@openzeppelin/contracts/access/Ownable.sol\":2723:2741  _transferOwnership */\n      tag_414\n        /* \"@openzeppelin/contracts/access/Ownable.sol\":2723:2751  _transferOwnership(newOwner) */\n      jump\t// in\n        /* \"@openzeppelin/contracts/access/Ownable.sol\":1796:1958  function _checkOwner() internal view virtual {... */\n    tag_264:\n        /* \"@openzeppelin/contracts/access/Ownable.sol\":1684:1691  address */\n      0x00\n        /* \"@openzeppelin/contracts/access/Ownable.sol\":1710:1716  _owner */\n      sload\n      sub(shl(0xa0, 0x01), 0x01)\n      and\n        /* \"@openzeppelin/contracts/utils/Context.sol\":735:745  msg.sender */\n      caller\n        /* \"@openzeppelin/contracts/access/Ownable.sol\":1855:1878  owner() != _msgSender() */\n      eq\n        /* \"@openzeppelin/contracts/access/Ownable.sol\":1851:1952  if (owner() != _msgSender()) {... */\n      tag_413\n      jumpi\n        /* \"@openzeppelin/contracts/access/Ownable.sol\":1901:1941  OwnableUnauthorizedAccount(_msgSender()) */\n      mload(0x40)\n      shl(0xe0, 0x118cdaa7)\n      dup2\n      mstore\n        /* \"@openzeppelin/contracts/utils/Context.sol\":735:745  msg.sender */\n      caller\n        /* \"@openzeppelin/contracts/access/Ownable.sol\":1901:1941  OwnableUnauthorizedAccount(_msgSender()) */\n      0x04\n      dup3\n      add\n        /* \"#utility.yul\":667:718   */\n      mstore\n        /* \"#utility.yul\":640:658   */\n      0x24\n      add\n        /* \"@openzeppelin/contracts/access/Ownable.sol\":1901:1941  OwnableUnauthorizedAccount(_msgSender()) */\n      tag_311\n        /* \"#utility.yul\":521:724   */\n      jump\n        /* \"@openzeppelin/contracts/utils/ReentrancyGuard.sol\":3749:4041  function _nonReentrantBefore() private {... */\n    tag_295:\n        /* \"@openzeppelin/contracts/utils/ReentrancyGuard.sol\":3872:3897  _nonReentrantBeforeView() */\n      tag_550\n        /* \"@openzeppelin/contracts/utils/ReentrancyGuard.sol\":3872:3895  _nonReentrantBeforeView */\n      tag_551\n        /* \"@openzeppelin/contracts/utils/ReentrancyGuard.sol\":3872:3897  _nonReentrantBeforeView() */\n      jump\t// in\n    tag_550:\n        /* \"@openzeppelin/contracts/utils/ReentrancyGuard.sol\":2407:2408  2 */\n      0x02\n      0x00\n      dup1\n      mload\n      0x20\n      data_c8669cf8eaf883002b9f48e28846a8d408c9b58ea6613bace374265e43c9bc43\n      dup4\n      codecopy\n      dup2\n      mload\n      swap2\n      mstore\n        /* \"@openzeppelin/contracts/utils/ReentrancyGuard.sol\":3972:4034  _reentrancyGuardStorageSlot().getUint256Slot().value = ENTERED */\n      sstore\n        /* \"@openzeppelin/contracts/utils/ReentrancyGuard.sol\":3749:4041  function _nonReentrantBefore() private {... */\n      jump\t// out\n        /* \"contractss/GameRegistry.sol\":8920:9730  function _validateString(bytes6 s) internal pure {... */\n    tag_313:\n        /* \"contractss/GameRegistry.sol\":9060:9071  uint64 seen */\n      0x00\n        /* \"contractss/GameRegistry.sol\":9091:9100  uint256 i */\n      dup1\n        /* \"contractss/GameRegistry.sol\":9086:9724  for (uint256 i = 0; i < 6; i++) {... */\n    tag_557:\n        /* \"contractss/GameRegistry.sol\":9110:9111  6 */\n      0x06\n        /* \"contractss/GameRegistry.sol\":9106:9107  i */\n      dup2\n        /* \"contractss/GameRegistry.sol\":9106:9111  i < 6 */\n      lt\n        /* \"contractss/GameRegistry.sol\":9086:9724  for (uint256 i = 0; i < 6; i++) {... */\n      iszero\n      tag_357\n      jumpi\n        /* \"contractss/GameRegistry.sol\":9132:9140  bytes1 c */\n      0x00\n        /* \"contractss/GameRegistry.sol\":9143:9144  s */\n      dup4\n        /* \"contractss/GameRegistry.sol\":9145:9146  i */\n      dup3\n        /* \"contractss/GameRegistry.sol\":9143:9147  s[i] */\n      0x06\n      dup2\n      lt\n      tag_561\n      jumpi\n      tag_561\n      tag_239\n      jump\t// in\n    tag_561:\n      byte\n      0xf8\n      shl\n      swap1\n      pop\n        /* \"contractss/GameRegistry.sol\":9196:9208  bool isUpper */\n      0x00\n      shl(0xf8, 0x41)\n      not(sub(shl(0xf8, 0x01), 0x01))\n        /* \"contractss/GameRegistry.sol\":9212:9221  c >= 0x41 */\n      dup4\n      and\n      lt\n      dup1\n      iszero\n      swap1\n        /* \"contractss/GameRegistry.sol\":9212:9234  c >= 0x41 && c <= 0x5A */\n      tag_562\n      jumpi\n      pop\n      shl(0xf9, 0x2d)\n      not(sub(shl(0xf8, 0x01), 0x01))\n        /* \"contractss/GameRegistry.sol\":9225:9234  c <= 0x5A */\n      dup4\n      and\n      gt\n      iszero\n        /* \"contractss/GameRegistry.sol\":9212:9234  c >= 0x41 && c <= 0x5A */\n    tag_562:\n        /* \"contractss/GameRegistry.sol\":9196:9234  bool isUpper  = c >= 0x41 && c <= 0x5A */\n      swap1\n      pop\n        /* \"contractss/GameRegistry.sol\":9255:9267  bool isDigit */\n      0x00\n      shl(0xfc, 0x03)\n      not(sub(shl(0xf8, 0x01), 0x01))\n        /* \"contractss/GameRegistry.sol\":9271:9280  c >= 0x30 */\n      dup5\n      and\n      lt\n      dup1\n      iszero\n      swap1\n        /* \"contractss/GameRegistry.sol\":9271:9293  c >= 0x30 && c <= 0x39 */\n      tag_563\n      jumpi\n      pop\n      shl(0xf8, 0x39)\n      not(sub(shl(0xf8, 0x01), 0x01))\n        /* \"contractss/GameRegistry.sol\":9284:9293  c <= 0x39 */\n      dup5\n      and\n      gt\n      iszero\n        /* \"contractss/GameRegistry.sol\":9271:9293  c >= 0x30 && c <= 0x39 */\n    tag_563:\n        /* \"contractss/GameRegistry.sol\":9255:9293  bool isDigit  = c >= 0x30 && c <= 0x39 */\n      swap1\n      pop\n        /* \"contractss/GameRegistry.sol\":9319:9326  isUpper */\n      dup2\n        /* \"contractss/GameRegistry.sol\":9318:9326  !isUpper */\n      iszero\n        /* \"contractss/GameRegistry.sol\":9318:9338  !isUpper && !isDigit */\n      dup1\n      iszero\n      tag_564\n      jumpi\n      pop\n        /* \"contractss/GameRegistry.sol\":9331:9338  isDigit */\n      dup1\n        /* \"contractss/GameRegistry.sol\":9330:9338  !isDigit */\n      iszero\n        /* \"contractss/GameRegistry.sol\":9318:9338  !isUpper && !isDigit */\n    tag_564:\n        /* \"contractss/GameRegistry.sol\":9314:9366  if (!isUpper && !isDigit) revert InvalidCharacter(c) */\n      iszero\n      tag_565\n      jumpi\n        /* \"contractss/GameRegistry.sol\":9347:9366  InvalidCharacter(c) */\n      mload(0x40)\n      shl(0xe0, 0x3fd7c867)\n      dup2\n      mstore\n      not(sub(shl(0xf8, 0x01), 0x01))\n        /* \"#utility.yul\":13363:13389   */\n      dup5\n      and\n        /* \"contractss/GameRegistry.sol\":9347:9366  InvalidCharacter(c) */\n      0x04\n      dup3\n      add\n        /* \"#utility.yul\":13345:13390   */\n      mstore\n        /* \"#utility.yul\":13318:13336   */\n      0x24\n      add\n        /* \"contractss/GameRegistry.sol\":9347:9366  InvalidCharacter(c) */\n      tag_311\n        /* \"#utility.yul\":13201:13396   */\n      jump\n        /* \"contractss/GameRegistry.sol\":9314:9366  if (!isUpper && !isDigit) revert InvalidCharacter(c) */\n    tag_565:\n        /* \"contractss/GameRegistry.sol\":9437:9448  uint256 idx */\n      0x00\n        /* \"contractss/GameRegistry.sol\":9451:9458  isUpper */\n      dup3\n        /* \"contractss/GameRegistry.sol\":9451:9549  isUpper... */\n      tag_568\n      jumpi\n        /* \"contractss/GameRegistry.sol\":9520:9544  uint256(uint8(c)) - 0x30 */\n      tag_569\n        /* \"contractss/GameRegistry.sol\":9540:9544  0x30 */\n      0x30\n        /* \"contractss/GameRegistry.sol\":9528:9536  uint8(c) */\n      0xf8\n      dup7\n      swap1\n      shr\n        /* \"contractss/GameRegistry.sol\":9520:9544  uint256(uint8(c)) - 0x30 */\n      tag_279\n      jump\t// in\n    tag_569:\n        /* \"contractss/GameRegistry.sol\":9520:9549  uint256(uint8(c)) - 0x30 + 26 */\n      tag_570\n      swap1\n        /* \"contractss/GameRegistry.sol\":9547:9549  26 */\n      0x1a\n        /* \"contractss/GameRegistry.sol\":9520:9549  uint256(uint8(c)) - 0x30 + 26 */\n      tag_281\n      jump\t// in\n    tag_570:\n        /* \"contractss/GameRegistry.sol\":9451:9549  isUpper... */\n      jump(tag_572)\n    tag_568:\n        /* \"contractss/GameRegistry.sol\":9477:9501  uint256(uint8(c)) - 0x41 */\n      tag_572\n        /* \"contractss/GameRegistry.sol\":9497:9501  0x41 */\n      0x41\n        /* \"contractss/GameRegistry.sol\":9485:9493  uint8(c) */\n      0xf8\n      dup7\n      swap1\n      shr\n        /* \"contractss/GameRegistry.sol\":9477:9501  uint256(uint8(c)) - 0x41 */\n      tag_279\n      jump\t// in\n    tag_572:\n        /* \"contractss/GameRegistry.sol\":9437:9549  uint256 idx = isUpper... */\n      swap1\n      pop\n        /* \"contractss/GameRegistry.sol\":9616:9617  1 */\n      0x01\n        /* \"contractss/GameRegistry.sol\":9616:9624  1 << idx */\n      dup2\n      shl\n        /* \"contractss/GameRegistry.sol\":9643:9658  seen & bit != 0 */\n      0xffffffffffffffff\n        /* \"contractss/GameRegistry.sol\":9643:9653  seen & bit */\n      dup8\n      dup3\n      and\n        /* \"contractss/GameRegistry.sol\":9643:9658  seen & bit != 0 */\n      and\n      iszero\n        /* \"contractss/GameRegistry.sol\":9639:9688  if (seen & bit != 0) revert RepeatingCharacter(c) */\n      tag_573\n      jumpi\n        /* \"contractss/GameRegistry.sol\":9667:9688  RepeatingCharacter(c) */\n      mload(0x40)\n      shl(0xe0, 0x8cd88f69)\n      dup2\n      mstore\n      not(sub(shl(0xf8, 0x01), 0x01))\n        /* \"#utility.yul\":13363:13389   */\n      dup7\n      and\n        /* \"contractss/GameRegistry.sol\":9667:9688  RepeatingCharacter(c) */\n      0x04\n      dup3\n      add\n        /* \"#utility.yul\":13345:13390   */\n      mstore\n        /* \"#utility.yul\":13318:13336   */\n      0x24\n      add\n        /* \"contractss/GameRegistry.sol\":9667:9688  RepeatingCharacter(c) */\n      tag_311\n        /* \"#utility.yul\":13201:13396   */\n      jump\n        /* \"contractss/GameRegistry.sol\":9639:9688  if (seen & bit != 0) revert RepeatingCharacter(c) */\n    tag_573:\n        /* \"contractss/GameRegistry.sol\":9710:9713  bit */\n      dup1\n        /* \"contractss/GameRegistry.sol\":9702:9713  seen |= bit */\n      dup8\n      or\n      swap7\n      pop\n        /* \"contractss/GameRegistry.sol\":9118:9724  {... */\n      pop\n      pop\n      pop\n      pop\n      pop\n        /* \"contractss/GameRegistry.sol\":9113:9116  i++ */\n      dup1\n      dup1\n      tag_575\n      swap1\n      tag_256\n      jump\t// in\n    tag_575:\n      swap2\n      pop\n      pop\n        /* \"contractss/GameRegistry.sol\":9086:9724  for (uint256 i = 0; i < 6; i++) {... */\n      jump(tag_557)\n        /* \"@openzeppelin/contracts/token/ERC20/utils/SafeERC20.sol\":1662:1894  function safeTransferFrom(IERC20 token, address from, address to, uint256 value) internal {... */\n    tag_338:\n        /* \"@openzeppelin/contracts/token/ERC20/utils/SafeERC20.sol\":1767:1814  _safeTransferFrom(token, from, to, value, true) */\n      tag_577\n        /* \"@openzeppelin/contracts/token/ERC20/utils/SafeERC20.sol\":1785:1790  token */\n      dup5\n        /* \"@openzeppelin/contracts/token/ERC20/utils/SafeERC20.sol\":1792:1796  from */\n      dup5\n        /* \"@openzeppelin/contracts/token/ERC20/utils/SafeERC20.sol\":1798:1800  to */\n      dup5\n        /* \"@openzeppelin/contracts/token/ERC20/utils/SafeERC20.sol\":1802:1807  value */\n      dup5\n        /* \"@openzeppelin/contracts/token/ERC20/utils/SafeERC20.sol\":1809:1813  true */\n      0x01\n        /* \"@openzeppelin/contracts/token/ERC20/utils/SafeERC20.sol\":1767:1784  _safeTransferFrom */\n      tag_578\n        /* \"@openzeppelin/contracts/token/ERC20/utils/SafeERC20.sol\":1767:1814  _safeTransferFrom(token, from, to, value, true) */\n      jump\t// in\n    tag_577:\n        /* \"@openzeppelin/contracts/token/ERC20/utils/SafeERC20.sol\":1762:1888  if (!_safeTransferFrom(token, from, to, value, true)) {... */\n      tag_235\n      jumpi\n        /* \"@openzeppelin/contracts/token/ERC20/utils/SafeERC20.sol\":1837:1877  SafeERC20FailedOperation(address(token)) */\n      mload(0x40)\n      shl(0xe0, 0x5274afe7)\n      dup2\n      mstore\n      sub(shl(0xa0, 0x01), 0x01)\n        /* \"#utility.yul\":685:717   */\n      dup6\n      and\n        /* \"@openzeppelin/contracts/token/ERC20/utils/SafeERC20.sol\":1837:1877  SafeERC20FailedOperation(address(token)) */\n      0x04\n      dup3\n      add\n        /* \"#utility.yul\":667:718   */\n      mstore\n        /* \"#utility.yul\":640:658   */\n      0x24\n      add\n        /* \"@openzeppelin/contracts/token/ERC20/utils/SafeERC20.sol\":1837:1877  SafeERC20FailedOperation(address(token)) */\n      tag_311\n        /* \"#utility.yul\":521:724   */\n      jump\n        /* \"@openzeppelin/contracts/token/ERC20/utils/SafeERC20.sol\":1219:1423  function safeTransfer(IERC20 token, address to, uint256 value) internal {... */\n    tag_406:\n        /* \"@openzeppelin/contracts/token/ERC20/utils/SafeERC20.sol\":1306:1343  _safeTransfer(token, to, value, true) */\n      tag_585\n        /* \"@openzeppelin/contracts/token/ERC20/utils/SafeERC20.sol\":1320:1325  token */\n      dup4\n        /* \"@openzeppelin/contracts/token/ERC20/utils/SafeERC20.sol\":1327:1329  to */\n      dup4\n        /* \"@openzeppelin/contracts/token/ERC20/utils/SafeERC20.sol\":1331:1336  value */\n      dup4\n        /* \"@openzeppelin/contracts/token/ERC20/utils/SafeERC20.sol\":1338:1342  true */\n      0x01\n        /* \"@openzeppelin/contracts/token/ERC20/utils/SafeERC20.sol\":1306:1319  _safeTransfer */\n      tag_586\n        /* \"@openzeppelin/contracts/token/ERC20/utils/SafeERC20.sol\":1306:1343  _safeTransfer(token, to, value, true) */\n      jump\t// in\n    tag_585:\n        /* \"@openzeppelin/contracts/token/ERC20/utils/SafeERC20.sol\":1301:1417  if (!_safeTransfer(token, to, value, true)) {... */\n      tag_357\n      jumpi\n        /* \"@openzeppelin/contracts/token/ERC20/utils/SafeERC20.sol\":1366:1406  SafeERC20FailedOperation(address(token)) */\n      mload(0x40)\n      shl(0xe0, 0x5274afe7)\n      dup2\n      mstore\n      sub(shl(0xa0, 0x01), 0x01)\n        /* \"#utility.yul\":685:717   */\n      dup5\n      and\n        /* \"@openzeppelin/contracts/token/ERC20/utils/SafeERC20.sol\":1366:1406  SafeERC20FailedOperation(address(token)) */\n      0x04\n      dup3\n      add\n        /* \"#utility.yul\":667:718   */\n      mstore\n        /* \"#utility.yul\":640:658   */\n      0x24\n      add\n        /* \"@openzeppelin/contracts/token/ERC20/utils/SafeERC20.sol\":1366:1406  SafeERC20FailedOperation(address(token)) */\n      tag_311\n        /* \"#utility.yul\":521:724   */\n      jump\n        /* \"@openzeppelin/contracts/access/Ownable.sol\":2912:3099  function _transferOwnership(address newOwner) internal virtual {... */\n    tag_414:\n        /* \"@openzeppelin/contracts/access/Ownable.sol\":2985:3001  address oldOwner */\n      0x00\n        /* \"@openzeppelin/contracts/access/Ownable.sol\":3004:3010  _owner */\n      dup1\n      sload\n      sub(shl(0xa0, 0x01), 0x01)\n        /* \"@openzeppelin/contracts/access/Ownable.sol\":3020:3037  _owner = newOwner */\n      dup4\n      dup2\n      and\n      not(sub(shl(0xa0, 0x01), 0x01))\n      dup4\n      and\n      dup2\n      or\n      dup5\n      sstore\n        /* \"@openzeppelin/contracts/access/Ownable.sol\":3052:3092  OwnershipTransferred(oldOwner, newOwner) */\n      mload(0x40)\n        /* \"@openzeppelin/contracts/access/Ownable.sol\":3004:3010  _owner */\n      swap2\n      swap1\n      swap3\n      and\n      swap3\n      dup4\n      swap2\n        /* \"@openzeppelin/contracts/access/Ownable.sol\":3052:3092  OwnershipTransferred(oldOwner, newOwner) */\n      0x8be0079c531659141344cd1fd0a4f28419497f9722a3daafe3b4186f6b6457e0\n      swap2\n        /* \"@openzeppelin/contracts/access/Ownable.sol\":2985:3001  address oldOwner */\n      swap1\n        /* \"@openzeppelin/contracts/access/Ownable.sol\":3052:3092  OwnershipTransferred(oldOwner, newOwner) */\n      log3\n        /* \"@openzeppelin/contracts/access/Ownable.sol\":2975:3099  {... */\n      pop\n        /* \"@openzeppelin/contracts/access/Ownable.sol\":2912:3099  function _transferOwnership(address newOwner) internal virtual {... */\n      pop\n      jump\t// out\n        /* \"@openzeppelin/contracts/utils/ReentrancyGuard.sol\":3586:3743  function _nonReentrantBeforeView() private view {... */\n    tag_551:\n      0x00\n      dup1\n      mload\n      0x20\n      data_c8669cf8eaf883002b9f48e28846a8d408c9b58ea6613bace374265e43c9bc43\n      dup4\n      codecopy\n      dup2\n      mload\n      swap2\n      mstore\n        /* \"@openzeppelin/contracts/utils/ReentrancyGuard.sol\":4560:4612  _reentrancyGuardStorageSlot().getUint256Slot().value */\n      sload\n        /* \"@openzeppelin/contracts/utils/ReentrancyGuard.sol\":2407:2408  2 */\n      0x02\n        /* \"@openzeppelin/contracts/utils/ReentrancyGuard.sol\":4560:4623  _reentrancyGuardStorageSlot().getUint256Slot().value == ENTERED */\n      sub\n        /* \"@openzeppelin/contracts/utils/ReentrancyGuard.sol\":3644:3737  if (_reentrancyGuardEntered()) {... */\n      tag_413\n      jumpi\n        /* \"@openzeppelin/contracts/utils/ReentrancyGuard.sol\":3696:3726  ReentrancyGuardReentrantCall() */\n      mload(0x40)\n      shl(0xe0, 0x3ee5aeb5)\n      dup2\n      mstore\n      0x04\n      add\n      mload(0x40)\n      dup1\n      swap2\n      sub\n      swap1\n      revert\n        /* \"@openzeppelin/contracts/token/ERC20/utils/SafeERC20.sol\":10165:11558  function _safeTransferFrom(... */\n    tag_578:\n        /* \"@openzeppelin/contracts/token/ERC20/utils/SafeERC20.sol\":10460:10464  0x40 */\n      0x40\n        /* \"@openzeppelin/contracts/token/ERC20/utils/SafeERC20.sol\":10454:10465  mload(0x40) */\n      mload\n      shl(0xe0, 0x23b872dd)\n        /* \"@openzeppelin/contracts/token/ERC20/utils/SafeERC20.sol\":10323:10335  bool success */\n      0x00\n        /* \"@openzeppelin/contracts/token/ERC20/utils/SafeERC20.sol\":10478:10500  mstore(0x00, selector) */\n      dup2\n      dup2\n      mstore\n      sub(shl(0xa0, 0x01), 0x01)\n        /* \"@openzeppelin/contracts/token/ERC20/utils/SafeERC20.sol\":10526:10552  and(from, shr(96, not(0))) */\n      dup8\n      dup2\n      and\n        /* \"@openzeppelin/contracts/token/ERC20/utils/SafeERC20.sol\":10520:10524  0x04 */\n      0x04\n        /* \"@openzeppelin/contracts/token/ERC20/utils/SafeERC20.sol\":10513:10553  mstore(0x04, and(from, shr(96, not(0)))) */\n      mstore\n        /* \"@openzeppelin/contracts/token/ERC20/utils/SafeERC20.sol\":10579:10603  and(to, shr(96, not(0))) */\n      dup7\n      and\n        /* \"@openzeppelin/contracts/token/ERC20/utils/SafeERC20.sol\":10573:10577  0x24 */\n      0x24\n        /* \"@openzeppelin/contracts/token/ERC20/utils/SafeERC20.sol\":10566:10604  mstore(0x24, and(to, shr(96, not(0)))) */\n      mstore\n        /* \"@openzeppelin/contracts/token/ERC20/utils/SafeERC20.sol\":10624:10628  0x44 */\n      0x44\n        /* \"@openzeppelin/contracts/token/ERC20/utils/SafeERC20.sol\":10617:10636  mstore(0x44, value) */\n      dup6\n      swap1\n      mstore\n        /* \"@openzeppelin/contracts/token/ERC20/utils/SafeERC20.sol\":10323:10335  bool success */\n      swap2\n        /* \"@openzeppelin/contracts/token/ERC20/utils/SafeERC20.sol\":10700:10704  0x20 */\n      0x20\n        /* \"@openzeppelin/contracts/token/ERC20/utils/SafeERC20.sol\":10323:10335  bool success */\n      dup4\n        /* \"@openzeppelin/contracts/token/ERC20/utils/SafeERC20.sol\":10688:10692  0x64 */\n      0x64\n        /* \"@openzeppelin/contracts/token/ERC20/utils/SafeERC20.sol\":10323:10335  bool success */\n      dup2\n      dup1\n        /* \"@openzeppelin/contracts/token/ERC20/utils/SafeERC20.sol\":10672:10677  token */\n      dup13\n        /* \"@openzeppelin/contracts/token/ERC20/utils/SafeERC20.sol\":10665:10670  gas() */\n      gas\n        /* \"@openzeppelin/contracts/token/ERC20/utils/SafeERC20.sol\":10660:10705  call(gas(), token, 0, 0x00, 0x64, 0x00, 0x20) */\n      call\n        /* \"@openzeppelin/contracts/token/ERC20/utils/SafeERC20.sol\":10649:10705  success := call(gas(), token, 0, 0x00, 0x64, 0x00, 0x20) */\n      swap3\n      pop\n        /* \"@openzeppelin/contracts/token/ERC20/utils/SafeERC20.sol\":10917:10918  1 */\n      0x01\n        /* \"@openzeppelin/contracts/token/ERC20/utils/SafeERC20.sol\":10910:10914  0x00 */\n      0x00\n        /* \"@openzeppelin/contracts/token/ERC20/utils/SafeERC20.sol\":10904:10915  mload(0x00) */\n      mload\n        /* \"@openzeppelin/contracts/token/ERC20/utils/SafeERC20.sol\":10901:10919  eq(mload(0x00), 1) */\n      eq\n        /* \"@openzeppelin/contracts/token/ERC20/utils/SafeERC20.sol\":10892:10899  success */\n      dup4\n        /* \"@openzeppelin/contracts/token/ERC20/utils/SafeERC20.sol\":10888:10920  and(success, eq(mload(0x00), 1)) */\n      and\n        /* \"@openzeppelin/contracts/token/ERC20/utils/SafeERC20.sol\":10878:11484  if iszero(and(success, eq(mload(0x00), 1))) {... */\n      tag_598\n      jumpi\n        /* \"@openzeppelin/contracts/token/ERC20/utils/SafeERC20.sol\":11049:11055  bubble */\n      dup4\n        /* \"@openzeppelin/contracts/token/ERC20/utils/SafeERC20.sol\":11039:11046  success */\n      dup4\n        /* \"@openzeppelin/contracts/token/ERC20/utils/SafeERC20.sol\":11032:11047  iszero(success) */\n      iszero\n        /* \"@openzeppelin/contracts/token/ERC20/utils/SafeERC20.sol\":11028:11056  and(iszero(success), bubble) */\n      and\n        /* \"@openzeppelin/contracts/token/ERC20/utils/SafeERC20.sol\":11025:11190  if and(iszero(success), bubble) {... */\n      iszero\n      tag_599\n      jumpi\n        /* \"@openzeppelin/contracts/token/ERC20/utils/SafeERC20.sol\":11105:11121  returndatasize() */\n      returndatasize\n        /* \"@openzeppelin/contracts/token/ERC20/utils/SafeERC20.sol\":11099:11103  0x00 */\n      0x00\n        /* \"@openzeppelin/contracts/token/ERC20/utils/SafeERC20.sol\":11094:11097  fmp */\n      dup3\n        /* \"@openzeppelin/contracts/token/ERC20/utils/SafeERC20.sol\":11079:11122  returndatacopy(fmp, 0x00, returndatasize()) */\n      returndatacopy\n        /* \"@openzeppelin/contracts/token/ERC20/utils/SafeERC20.sol\":11155:11171  returndatasize() */\n      returndatasize\n        /* \"@openzeppelin/contracts/token/ERC20/utils/SafeERC20.sol\":11150:11153  fmp */\n      dup2\n        /* \"@openzeppelin/contracts/token/ERC20/utils/SafeERC20.sol\":11143:11172  revert(fmp, returndatasize()) */\n      revert\n        /* \"@openzeppelin/contracts/token/ERC20/utils/SafeERC20.sol\":11025:11190  if and(iszero(success), bubble) {... */\n    tag_599:\n        /* \"@openzeppelin/contracts/token/ERC20/utils/SafeERC20.sol\":11466:11467  0 */\n      0x00\n        /* \"@openzeppelin/contracts/token/ERC20/utils/SafeERC20.sol\":11458:11463  token */\n      dup9\n        /* \"@openzeppelin/contracts/token/ERC20/utils/SafeERC20.sol\":11446:11464  extcodesize(token) */\n      extcodesize\n        /* \"@openzeppelin/contracts/token/ERC20/utils/SafeERC20.sol\":11443:11468  gt(extcodesize(token), 0) */\n      gt\n        /* \"@openzeppelin/contracts/token/ERC20/utils/SafeERC20.sol\":11424:11440  returndatasize() */\n      returndatasize\n        /* \"@openzeppelin/contracts/token/ERC20/utils/SafeERC20.sol\":11417:11441  iszero(returndatasize()) */\n      iszero\n        /* \"@openzeppelin/contracts/token/ERC20/utils/SafeERC20.sol\":11413:11469  and(iszero(returndatasize()), gt(extcodesize(token), 0)) */\n      and\n        /* \"@openzeppelin/contracts/token/ERC20/utils/SafeERC20.sol\":11404:11411  success */\n      dup4\n        /* \"@openzeppelin/contracts/token/ERC20/utils/SafeERC20.sol\":11400:11470  and(success, and(iszero(returndatasize()), gt(extcodesize(token), 0))) */\n      and\n        /* \"@openzeppelin/contracts/token/ERC20/utils/SafeERC20.sol\":11389:11470  success := and(success, and(iszero(returndatasize()), gt(extcodesize(token), 0))) */\n      swap3\n      pop\n        /* \"@openzeppelin/contracts/token/ERC20/utils/SafeERC20.sol\":10878:11484  if iszero(and(success, eq(mload(0x00), 1))) {... */\n    tag_598:\n        /* \"@openzeppelin/contracts/token/ERC20/utils/SafeERC20.sol\":11504:11508  0x40 */\n      0x40\n        /* \"@openzeppelin/contracts/token/ERC20/utils/SafeERC20.sol\":11497:11514  mstore(0x40, fmp) */\n      mstore\n      pop\n        /* \"@openzeppelin/contracts/token/ERC20/utils/SafeERC20.sol\":11540:11541  0 */\n      0x00\n        /* \"@openzeppelin/contracts/token/ERC20/utils/SafeERC20.sol\":11534:11538  0x60 */\n      0x60\n        /* \"@openzeppelin/contracts/token/ERC20/utils/SafeERC20.sol\":11527:11542  mstore(0x60, 0) */\n      mstore\n        /* \"@openzeppelin/contracts/token/ERC20/utils/SafeERC20.sol\":10165:11558  function _safeTransferFrom(... */\n      swap6\n      swap5\n      pop\n      pop\n      pop\n      pop\n      pop\n      jump\t// out\n        /* \"@openzeppelin/contracts/token/ERC20/utils/SafeERC20.sol\":8373:9617  function _safeTransfer(IERC20 token, address to, uint256 value, bool bubble) private returns (bool success) {... */\n    tag_586:\n        /* \"@openzeppelin/contracts/token/ERC20/utils/SafeERC20.sol\":8600:8604  0x40 */\n      0x40\n        /* \"@openzeppelin/contracts/token/ERC20/utils/SafeERC20.sol\":8594:8605  mload(0x40) */\n      mload\n      shl(0xe0, 0xa9059cbb)\n        /* \"@openzeppelin/contracts/token/ERC20/utils/SafeERC20.sol\":8467:8479  bool success */\n      0x00\n        /* \"@openzeppelin/contracts/token/ERC20/utils/SafeERC20.sol\":8618:8640  mstore(0x00, selector) */\n      dup2\n      dup2\n      mstore\n      sub(shl(0xa0, 0x01), 0x01)\n        /* \"@openzeppelin/contracts/token/ERC20/utils/SafeERC20.sol\":8666:8690  and(to, shr(96, not(0))) */\n      dup7\n      and\n        /* \"@openzeppelin/contracts/token/ERC20/utils/SafeERC20.sol\":8660:8664  0x04 */\n      0x04\n        /* \"@openzeppelin/contracts/token/ERC20/utils/SafeERC20.sol\":8653:8691  mstore(0x04, and(to, shr(96, not(0)))) */\n      mstore\n        /* \"@openzeppelin/contracts/token/ERC20/utils/SafeERC20.sol\":8711:8715  0x24 */\n      0x24\n        /* \"@openzeppelin/contracts/token/ERC20/utils/SafeERC20.sol\":8704:8723  mstore(0x24, value) */\n      dup6\n      swap1\n      mstore\n        /* \"@openzeppelin/contracts/token/ERC20/utils/SafeERC20.sol\":8467:8479  bool success */\n      swap2\n        /* \"@openzeppelin/contracts/token/ERC20/utils/SafeERC20.sol\":8787:8791  0x20 */\n      0x20\n        /* \"@openzeppelin/contracts/token/ERC20/utils/SafeERC20.sol\":8467:8479  bool success */\n      dup4\n        /* \"@openzeppelin/contracts/token/ERC20/utils/SafeERC20.sol\":8775:8779  0x44 */\n      0x44\n        /* \"@openzeppelin/contracts/token/ERC20/utils/SafeERC20.sol\":8467:8479  bool success */\n      dup2\n      dup1\n        /* \"@openzeppelin/contracts/token/ERC20/utils/SafeERC20.sol\":8759:8764  token */\n      dup12\n        /* \"@openzeppelin/contracts/token/ERC20/utils/SafeERC20.sol\":8752:8757  gas() */\n      gas\n        /* \"@openzeppelin/contracts/token/ERC20/utils/SafeERC20.sol\":8747:8792  call(gas(), token, 0, 0x00, 0x44, 0x00, 0x20) */\n      call\n        /* \"@openzeppelin/contracts/token/ERC20/utils/SafeERC20.sol\":8736:8792  success := call(gas(), token, 0, 0x00, 0x44, 0x00, 0x20) */\n      swap3\n      pop\n        /* \"@openzeppelin/contracts/token/ERC20/utils/SafeERC20.sol\":9004:9005  1 */\n      0x01\n        /* \"@openzeppelin/contracts/token/ERC20/utils/SafeERC20.sol\":8997:9001  0x00 */\n      0x00\n        /* \"@openzeppelin/contracts/token/ERC20/utils/SafeERC20.sol\":8991:9002  mload(0x00) */\n      mload\n        /* \"@openzeppelin/contracts/token/ERC20/utils/SafeERC20.sol\":8988:9006  eq(mload(0x00), 1) */\n      eq\n        /* \"@openzeppelin/contracts/token/ERC20/utils/SafeERC20.sol\":8979:8986  success */\n      dup4\n        /* \"@openzeppelin/contracts/token/ERC20/utils/SafeERC20.sol\":8975:9007  and(success, eq(mload(0x00), 1)) */\n      and\n        /* \"@openzeppelin/contracts/token/ERC20/utils/SafeERC20.sol\":8965:9571  if iszero(and(success, eq(mload(0x00), 1))) {... */\n      tag_601\n      jumpi\n        /* \"@openzeppelin/contracts/token/ERC20/utils/SafeERC20.sol\":9136:9142  bubble */\n      dup4\n        /* \"@openzeppelin/contracts/token/ERC20/utils/SafeERC20.sol\":9126:9133  success */\n      dup4\n        /* \"@openzeppelin/contracts/token/ERC20/utils/SafeERC20.sol\":9119:9134  iszero(success) */\n      iszero\n        /* \"@openzeppelin/contracts/token/ERC20/utils/SafeERC20.sol\":9115:9143  and(iszero(success), bubble) */\n      and\n        /* \"@openzeppelin/contracts/token/ERC20/utils/SafeERC20.sol\":9112:9277  if and(iszero(success), bubble) {... */\n      iszero\n      tag_602\n      jumpi\n        /* \"@openzeppelin/contracts/token/ERC20/utils/SafeERC20.sol\":9192:9208  returndatasize() */\n      returndatasize\n        /* \"@openzeppelin/contracts/token/ERC20/utils/SafeERC20.sol\":9186:9190  0x00 */\n      0x00\n        /* \"@openzeppelin/contracts/token/ERC20/utils/SafeERC20.sol\":9181:9184  fmp */\n      dup3\n        /* \"@openzeppelin/contracts/token/ERC20/utils/SafeERC20.sol\":9166:9209  returndatacopy(fmp, 0x00, returndatasize()) */\n      returndatacopy\n        /* \"@openzeppelin/contracts/token/ERC20/utils/SafeERC20.sol\":9242:9258  returndatasize() */\n      returndatasize\n        /* \"@openzeppelin/contracts/token/ERC20/utils/SafeERC20.sol\":9237:9240  fmp */\n      dup2\n        /* \"@openzeppelin/contracts/token/ERC20/utils/SafeERC20.sol\":9230:9259  revert(fmp, returndatasize()) */\n      revert\n        /* \"@openzeppelin/contracts/token/ERC20/utils/SafeERC20.sol\":9112:9277  if and(iszero(success), bubble) {... */\n    tag_602:\n        /* \"@openzeppelin/contracts/token/ERC20/utils/SafeERC20.sol\":9553:9554  0 */\n      0x00\n        /* \"@openzeppelin/contracts/token/ERC20/utils/SafeERC20.sol\":9545:9550  token */\n      dup8\n        /* \"@openzeppelin/contracts/token/ERC20/utils/SafeERC20.sol\":9533:9551  extcodesize(token) */\n      extcodesize\n        /* \"@openzeppelin/contracts/token/ERC20/utils/SafeERC20.sol\":9530:9555  gt(extcodesize(token), 0) */\n      gt\n        /* \"@openzeppelin/contracts/token/ERC20/utils/SafeERC20.sol\":9511:9527  returndatasize() */\n      returndatasize\n        /* \"@openzeppelin/contracts/token/ERC20/utils/SafeERC20.sol\":9504:9528  iszero(returndatasize()) */\n      iszero\n        /* \"@openzeppelin/contracts/token/ERC20/utils/SafeERC20.sol\":9500:9556  and(iszero(returndatasize()), gt(extcodesize(token), 0)) */\n      and\n        /* \"@openzeppelin/contracts/token/ERC20/utils/SafeERC20.sol\":9491:9498  success */\n      dup4\n        /* \"@openzeppelin/contracts/token/ERC20/utils/SafeERC20.sol\":9487:9557  and(success, and(iszero(returndatasize()), gt(extcodesize(token), 0))) */\n      and\n        /* \"@openzeppelin/contracts/token/ERC20/utils/SafeERC20.sol\":9476:9557  success := and(success, and(iszero(returndatasize()), gt(extcodesize(token), 0))) */\n      swap3\n      pop\n        /* \"@openzeppelin/contracts/token/ERC20/utils/SafeERC20.sol\":8965:9571  if iszero(and(success, eq(mload(0x00), 1))) {... */\n    tag_601:\n        /* \"@openzeppelin/contracts/token/ERC20/utils/SafeERC20.sol\":9591:9595  0x40 */\n      0x40\n        /* \"@openzeppelin/contracts/token/ERC20/utils/SafeERC20.sol\":9584:9601  mstore(0x40, fmp) */\n      mstore\n      pop\n        /* \"@openzeppelin/contracts/token/ERC20/utils/SafeERC20.sol\":8373:9617  function _safeTransfer(IERC20 token, address to, uint256 value, bool bubble) private returns (bool success) {... */\n      swap5\n      swap4\n      pop\n      pop\n      pop\n      pop\n      jump\t// out\n        /* \"#utility.yul\":14:191   */\n    tag_608:\n        /* \"#utility.yul\":81:101   */\n      dup1\n      calldataload\n      not(sub(shl(0xd0, 0x01), 0x01))\n        /* \"#utility.yul\":130:166   */\n      dup2\n      and\n        /* \"#utility.yul\":120:167   */\n      dup2\n      eq\n        /* \"#utility.yul\":110:185   */\n      tag_615\n      jumpi\n        /* \"#utility.yul\":181:182   */\n      0x00\n        /* \"#utility.yul\":178:179   */\n      dup1\n        /* \"#utility.yul\":171:183   */\n      revert\n        /* \"#utility.yul\":110:185   */\n    tag_615:\n        /* \"#utility.yul\":14:191   */\n      swap2\n      swap1\n      pop\n      jump\t// out\n        /* \"#utility.yul\":196:516   */\n    tag_52:\n        /* \"#utility.yul\":272:278   */\n      0x00\n        /* \"#utility.yul\":280:286   */\n      dup1\n        /* \"#utility.yul\":288:294   */\n      0x00\n        /* \"#utility.yul\":341:343   */\n      0x60\n        /* \"#utility.yul\":329:338   */\n      dup5\n        /* \"#utility.yul\":320:327   */\n      dup7\n        /* \"#utility.yul\":316:339   */\n      sub\n        /* \"#utility.yul\":312:344   */\n      slt\n        /* \"#utility.yul\":309:361   */\n      iszero\n      tag_617\n      jumpi\n        /* \"#utility.yul\":357:358   */\n      0x00\n        /* \"#utility.yul\":354:355   */\n      dup1\n        /* \"#utility.yul\":347:359   */\n      revert\n        /* \"#utility.yul\":309:361   */\n    tag_617:\n        /* \"#utility.yul\":393:402   */\n      dup4\n        /* \"#utility.yul\":380:403   */\n      calldataload\n        /* \"#utility.yul\":370:403   */\n      swap3\n      pop\n        /* \"#utility.yul\":422:459   */\n      tag_618\n        /* \"#utility.yul\":455:457   */\n      0x20\n        /* \"#utility.yul\":444:453   */\n      dup6\n        /* \"#utility.yul\":440:458   */\n      add\n        /* \"#utility.yul\":422:459   */\n      tag_608\n      jump\t// in\n    tag_618:\n        /* \"#utility.yul\":412:459   */\n      swap2\n      pop\n        /* \"#utility.yul\":506:508   */\n      0x40\n        /* \"#utility.yul\":495:504   */\n      dup5\n        /* \"#utility.yul\":491:509   */\n      add\n        /* \"#utility.yul\":478:510   */\n      calldataload\n        /* \"#utility.yul\":468:510   */\n      swap1\n      pop\n        /* \"#utility.yul\":196:516   */\n      swap3\n      pop\n      swap3\n      pop\n      swap3\n      jump\t// out\n        /* \"#utility.yul\":951:1634   */\n    tag_64:\n        /* \"#utility.yul\":1046:1052   */\n      0x00\n        /* \"#utility.yul\":1054:1060   */\n      dup1\n        /* \"#utility.yul\":1062:1068   */\n      0x00\n        /* \"#utility.yul\":1115:1117   */\n      0x40\n        /* \"#utility.yul\":1103:1112   */\n      dup5\n        /* \"#utility.yul\":1094:1101   */\n      dup7\n        /* \"#utility.yul\":1090:1113   */\n      sub\n        /* \"#utility.yul\":1086:1118   */\n      slt\n        /* \"#utility.yul\":1083:1135   */\n      iszero\n      tag_622\n      jumpi\n        /* \"#utility.yul\":1131:1132   */\n      0x00\n        /* \"#utility.yul\":1128:1129   */\n      dup1\n        /* \"#utility.yul\":1121:1133   */\n      revert\n        /* \"#utility.yul\":1083:1135   */\n    tag_622:\n        /* \"#utility.yul\":1167:1176   */\n      dup4\n        /* \"#utility.yul\":1154:1177   */\n      calldataload\n        /* \"#utility.yul\":1144:1177   */\n      swap3\n      pop\n        /* \"#utility.yul\":1228:1230   */\n      0x20\n        /* \"#utility.yul\":1217:1226   */\n      dup5\n        /* \"#utility.yul\":1213:1231   */\n      add\n        /* \"#utility.yul\":1200:1232   */\n      calldataload\n        /* \"#utility.yul\":1251:1269   */\n      0xffffffffffffffff\n        /* \"#utility.yul\":1292:1294   */\n      dup1\n        /* \"#utility.yul\":1284:1290   */\n      dup3\n        /* \"#utility.yul\":1281:1295   */\n      gt\n        /* \"#utility.yul\":1278:1312   */\n      iszero\n      tag_623\n      jumpi\n        /* \"#utility.yul\":1308:1309   */\n      0x00\n        /* \"#utility.yul\":1305:1306   */\n      dup1\n        /* \"#utility.yul\":1298:1310   */\n      revert\n        /* \"#utility.yul\":1278:1312   */\n    tag_623:\n        /* \"#utility.yul\":1346:1352   */\n      dup2\n        /* \"#utility.yul\":1335:1344   */\n      dup7\n        /* \"#utility.yul\":1331:1353   */\n      add\n        /* \"#utility.yul\":1321:1353   */\n      swap2\n      pop\n        /* \"#utility.yul\":1391:1398   */\n      dup7\n        /* \"#utility.yul\":1384:1388   */\n      0x1f\n        /* \"#utility.yul\":1380:1382   */\n      dup4\n        /* \"#utility.yul\":1376:1389   */\n      add\n        /* \"#utility.yul\":1372:1399   */\n      slt\n        /* \"#utility.yul\":1362:1417   */\n      tag_624\n      jumpi\n        /* \"#utility.yul\":1413:1414   */\n      0x00\n        /* \"#utility.yul\":1410:1411   */\n      dup1\n        /* \"#utility.yul\":1403:1415   */\n      revert\n        /* \"#utility.yul\":1362:1417   */\n    tag_624:\n        /* \"#utility.yul\":1453:1455   */\n      dup2\n        /* \"#utility.yul\":1440:1456   */\n      calldataload\n        /* \"#utility.yul\":1479:1481   */\n      dup2\n        /* \"#utility.yul\":1471:1477   */\n      dup2\n        /* \"#utility.yul\":1468:1482   */\n      gt\n        /* \"#utility.yul\":1465:1499   */\n      iszero\n      tag_625\n      jumpi\n        /* \"#utility.yul\":1495:1496   */\n      0x00\n        /* \"#utility.yul\":1492:1493   */\n      dup1\n        /* \"#utility.yul\":1485:1497   */\n      revert\n        /* \"#utility.yul\":1465:1499   */\n    tag_625:\n        /* \"#utility.yul\":1548:1555   */\n      dup8\n        /* \"#utility.yul\":1543:1545   */\n      0x20\n        /* \"#utility.yul\":1533:1539   */\n      dup3\n        /* \"#utility.yul\":1530:1531   */\n      0x05\n        /* \"#utility.yul\":1526:1540   */\n      shl\n        /* \"#utility.yul\":1522:1524   */\n      dup6\n        /* \"#utility.yul\":1518:1541   */\n      add\n        /* \"#utility.yul\":1514:1546   */\n      add\n        /* \"#utility.yul\":1511:1556   */\n      gt\n        /* \"#utility.yul\":1508:1573   */\n      iszero\n      tag_626\n      jumpi\n        /* \"#utility.yul\":1569:1570   */\n      0x00\n        /* \"#utility.yul\":1566:1567   */\n      dup1\n        /* \"#utility.yul\":1559:1571   */\n      revert\n        /* \"#utility.yul\":1508:1573   */\n    tag_626:\n        /* \"#utility.yul\":1600:1602   */\n      0x20\n        /* \"#utility.yul\":1596:1598   */\n      dup4\n        /* \"#utility.yul\":1592:1603   */\n      add\n        /* \"#utility.yul\":1582:1603   */\n      swap5\n      pop\n        /* \"#utility.yul\":1622:1628   */\n      dup1\n        /* \"#utility.yul\":1612:1628   */\n      swap4\n      pop\n      pop\n      pop\n      pop\n        /* \"#utility.yul\":951:1634   */\n      swap3\n      pop\n      swap3\n      pop\n      swap3\n      jump\t// out\n        /* \"#utility.yul\":1639:1812   */\n    tag_609:\n        /* \"#utility.yul\":1707:1727   */\n      dup1\n      calldataload\n      sub(shl(0xa0, 0x01), 0x01)\n        /* \"#utility.yul\":1756:1787   */\n      dup2\n      and\n        /* \"#utility.yul\":1746:1788   */\n      dup2\n      eq\n        /* \"#utility.yul\":1736:1806   */\n      tag_615\n      jumpi\n        /* \"#utility.yul\":1802:1803   */\n      0x00\n        /* \"#utility.yul\":1799:1800   */\n      dup1\n        /* \"#utility.yul\":1792:1804   */\n      revert\n        /* \"#utility.yul\":1817:2003   */\n    tag_69:\n        /* \"#utility.yul\":1876:1882   */\n      0x00\n        /* \"#utility.yul\":1929:1931   */\n      0x20\n        /* \"#utility.yul\":1917:1926   */\n      dup3\n        /* \"#utility.yul\":1908:1915   */\n      dup5\n        /* \"#utility.yul\":1904:1927   */\n      sub\n        /* \"#utility.yul\":1900:1932   */\n      slt\n        /* \"#utility.yul\":1897:1949   */\n      iszero\n      tag_630\n      jumpi\n        /* \"#utility.yul\":1945:1946   */\n      0x00\n        /* \"#utility.yul\":1942:1943   */\n      dup1\n        /* \"#utility.yul\":1935:1947   */\n      revert\n        /* \"#utility.yul\":1897:1949   */\n    tag_630:\n        /* \"#utility.yul\":1968:1997   */\n      tag_631\n        /* \"#utility.yul\":1987:1996   */\n      dup3\n        /* \"#utility.yul\":1968:1997   */\n      tag_609\n      jump\t// in\n    tag_631:\n        /* \"#utility.yul\":1958:1997   */\n      swap4\n        /* \"#utility.yul\":1817:2003   */\n      swap3\n      pop\n      pop\n      pop\n      jump\t// out\n        /* \"#utility.yul\":2008:2640   */\n    tag_72:\n        /* \"#utility.yul\":2179:2181   */\n      0x20\n        /* \"#utility.yul\":2231:2252   */\n      dup1\n      dup3\n      mstore\n        /* \"#utility.yul\":2301:2314   */\n      dup3\n      mload\n        /* \"#utility.yul\":2204:2222   */\n      dup3\n      dup3\n      add\n        /* \"#utility.yul\":2323:2345   */\n      dup2\n      swap1\n      mstore\n        /* \"#utility.yul\":2150:2154   */\n      0x00\n      swap2\n        /* \"#utility.yul\":2179:2181   */\n      swap1\n        /* \"#utility.yul\":2402:2417   */\n      dup5\n      dup3\n      add\n      swap1\n        /* \"#utility.yul\":2376:2378   */\n      0x40\n        /* \"#utility.yul\":2361:2379   */\n      dup6\n      add\n      swap1\n        /* \"#utility.yul\":2150:2154   */\n      dup5\n        /* \"#utility.yul\":2445:2614   */\n    tag_633:\n        /* \"#utility.yul\":2459:2465   */\n      dup2\n        /* \"#utility.yul\":2456:2457   */\n      dup2\n        /* \"#utility.yul\":2453:2466   */\n      lt\n        /* \"#utility.yul\":2445:2614   */\n      iszero\n      tag_635\n      jumpi\n        /* \"#utility.yul\":2520:2533   */\n      dup4\n      mload\n        /* \"#utility.yul\":2508:2534   */\n      dup4\n      mstore\n        /* \"#utility.yul\":2589:2604   */\n      swap3\n      dup5\n      add\n      swap3\n        /* \"#utility.yul\":2554:2566   */\n      swap2\n      dup5\n      add\n      swap2\n        /* \"#utility.yul\":2481:2482   */\n      0x01\n        /* \"#utility.yul\":2474:2483   */\n      add\n        /* \"#utility.yul\":2445:2614   */\n      jump(tag_633)\n    tag_635:\n      pop\n        /* \"#utility.yul\":2631:2634   */\n      swap1\n      swap7\n        /* \"#utility.yul\":2008:2640   */\n      swap6\n      pop\n      pop\n      pop\n      pop\n      pop\n      pop\n      jump\t// out\n        /* \"#utility.yul\":2645:2899   */\n    tag_76:\n        /* \"#utility.yul\":2713:2719   */\n      0x00\n        /* \"#utility.yul\":2721:2727   */\n      dup1\n        /* \"#utility.yul\":2774:2776   */\n      0x40\n        /* \"#utility.yul\":2762:2771   */\n      dup4\n        /* \"#utility.yul\":2753:2760   */\n      dup6\n        /* \"#utility.yul\":2749:2772   */\n      sub\n        /* \"#utility.yul\":2745:2777   */\n      slt\n        /* \"#utility.yul\":2742:2794   */\n      iszero\n      tag_637\n      jumpi\n        /* \"#utility.yul\":2790:2791   */\n      0x00\n        /* \"#utility.yul\":2787:2788   */\n      dup1\n        /* \"#utility.yul\":2780:2792   */\n      revert\n        /* \"#utility.yul\":2742:2794   */\n    tag_637:\n        /* \"#utility.yul\":2813:2842   */\n      tag_638\n        /* \"#utility.yul\":2832:2841   */\n      dup4\n        /* \"#utility.yul\":2813:2842   */\n      tag_609\n      jump\t// in\n    tag_638:\n        /* \"#utility.yul\":2803:2842   */\n      swap5\n        /* \"#utility.yul\":2889:2891   */\n      0x20\n        /* \"#utility.yul\":2874:2892   */\n      swap4\n      swap1\n      swap4\n      add\n        /* \"#utility.yul\":2861:2893   */\n      calldataload\n      swap4\n      pop\n      pop\n      pop\n        /* \"#utility.yul\":2645:2899   */\n      jump\t// out\n        /* \"#utility.yul\":3086:3270   */\n    tag_87:\n        /* \"#utility.yul\":3144:3150   */\n      0x00\n        /* \"#utility.yul\":3197:3199   */\n      0x20\n        /* \"#utility.yul\":3185:3194   */\n      dup3\n        /* \"#utility.yul\":3176:3183   */\n      dup5\n        /* \"#utility.yul\":3172:3195   */\n      sub\n        /* \"#utility.yul\":3168:3200   */\n      slt\n        /* \"#utility.yul\":3165:3217   */\n      iszero\n      tag_641\n      jumpi\n        /* \"#utility.yul\":3213:3214   */\n      0x00\n        /* \"#utility.yul\":3210:3211   */\n      dup1\n        /* \"#utility.yul\":3203:3215   */\n      revert\n        /* \"#utility.yul\":3165:3217   */\n    tag_641:\n        /* \"#utility.yul\":3236:3264   */\n      tag_631\n        /* \"#utility.yul\":3254:3263   */\n      dup3\n        /* \"#utility.yul\":3236:3264   */\n      tag_608\n      jump\t// in\n        /* \"#utility.yul\":3275:3904   */\n    tag_90:\n        /* \"#utility.yul\":3460:3466   */\n      dup3\n        /* \"#utility.yul\":3453:3467   */\n      iszero\n        /* \"#utility.yul\":3446:3468   */\n      iszero\n        /* \"#utility.yul\":3435:3444   */\n      dup2\n        /* \"#utility.yul\":3428:3469   */\n      mstore\n        /* \"#utility.yul\":3409:3413   */\n      0x00\n        /* \"#utility.yul\":3488:3490   */\n      0x20\n        /* \"#utility.yul\":3526:3528   */\n      0x40\n        /* \"#utility.yul\":3521:3523   */\n      dup2\n        /* \"#utility.yul\":3510:3519   */\n      dup5\n        /* \"#utility.yul\":3506:3524   */\n      add\n        /* \"#utility.yul\":3499:3529   */\n      mstore\n        /* \"#utility.yul\":3558:3564   */\n      dup4\n        /* \"#utility.yul\":3552:3565   */\n      mload\n        /* \"#utility.yul\":3601:3607   */\n      dup1\n        /* \"#utility.yul\":3596:3598   */\n      0x40\n        /* \"#utility.yul\":3585:3594   */\n      dup6\n        /* \"#utility.yul\":3581:3599   */\n      add\n        /* \"#utility.yul\":3574:3608   */\n      mstore\n        /* \"#utility.yul\":3626:3627   */\n      0x00\n        /* \"#utility.yul\":3636:3776   */\n    tag_644:\n        /* \"#utility.yul\":3650:3656   */\n      dup2\n        /* \"#utility.yul\":3647:3648   */\n      dup2\n        /* \"#utility.yul\":3644:3657   */\n      lt\n        /* \"#utility.yul\":3636:3776   */\n      iszero\n      tag_646\n      jumpi\n        /* \"#utility.yul\":3745:3759   */\n      dup6\n      dup2\n      add\n        /* \"#utility.yul\":3741:3764   */\n      dup4\n      add\n        /* \"#utility.yul\":3735:3765   */\n      mload\n        /* \"#utility.yul\":3711:3728   */\n      dup6\n      dup3\n      add\n        /* \"#utility.yul\":3730:3732   */\n      0x60\n        /* \"#utility.yul\":3707:3733   */\n      add\n        /* \"#utility.yul\":3700:3766   */\n      mstore\n        /* \"#utility.yul\":3665:3675   */\n      dup3\n      add\n        /* \"#utility.yul\":3636:3776   */\n      jump(tag_644)\n    tag_646:\n        /* \"#utility.yul\":3640:3643   */\n      pop\n        /* \"#utility.yul\":3825:3826   */\n      0x00\n        /* \"#utility.yul\":3820:3822   */\n      0x60\n        /* \"#utility.yul\":3811:3817   */\n      dup3\n        /* \"#utility.yul\":3800:3809   */\n      dup7\n        /* \"#utility.yul\":3796:3818   */\n      add\n        /* \"#utility.yul\":3792:3823   */\n      add\n        /* \"#utility.yul\":3785:3827   */\n      mstore\n        /* \"#utility.yul\":3895:3897   */\n      0x60\n        /* \"#utility.yul\":3888:3890   */\n      0x1f\n        /* \"#utility.yul\":3884:3891   */\n      not\n        /* \"#utility.yul\":3879:3881   */\n      0x1f\n        /* \"#utility.yul\":3871:3877   */\n      dup4\n        /* \"#utility.yul\":3867:3882   */\n      add\n        /* \"#utility.yul\":3863:3892   */\n      and\n        /* \"#utility.yul\":3852:3861   */\n      dup6\n        /* \"#utility.yul\":3848:3893   */\n      add\n        /* \"#utility.yul\":3844:3898   */\n      add\n        /* \"#utility.yul\":3836:3898   */\n      swap3\n      pop\n      pop\n      pop\n        /* \"#utility.yul\":3275:3904   */\n      swap4\n      swap3\n      pop\n      pop\n      pop\n      jump\t// out\n        /* \"#utility.yul\":3909:4089   */\n    tag_94:\n        /* \"#utility.yul\":3968:3974   */\n      0x00\n        /* \"#utility.yul\":4021:4023   */\n      0x20\n        /* \"#utility.yul\":4009:4018   */\n      dup3\n        /* \"#utility.yul\":4000:4007   */\n      dup5\n        /* \"#utility.yul\":3996:4019   */\n      sub\n        /* \"#utility.yul\":3992:4024   */\n      slt\n        /* \"#utility.yul\":3989:4041   */\n      iszero\n      tag_648\n      jumpi\n        /* \"#utility.yul\":4037:4038   */\n      0x00\n        /* \"#utility.yul\":4034:4035   */\n      dup1\n        /* \"#utility.yul\":4027:4039   */\n      revert\n        /* \"#utility.yul\":3989:4041   */\n    tag_648:\n      pop\n        /* \"#utility.yul\":4060:4083   */\n      calldataload\n      swap2\n        /* \"#utility.yul\":3909:4089   */\n      swap1\n      pop\n      jump\t// out\n        /* \"#utility.yul\":4094:4507   */\n    tag_101:\n        /* \"#utility.yul\":4167:4173   */\n      0x00\n        /* \"#utility.yul\":4175:4181   */\n      dup1\n        /* \"#utility.yul\":4183:4189   */\n      0x00\n        /* \"#utility.yul\":4236:4238   */\n      0x60\n        /* \"#utility.yul\":4224:4233   */\n      dup5\n        /* \"#utility.yul\":4215:4222   */\n      dup7\n        /* \"#utility.yul\":4211:4234   */\n      sub\n        /* \"#utility.yul\":4207:4239   */\n      slt\n        /* \"#utility.yul\":4204:4256   */\n      iszero\n      tag_650\n      jumpi\n        /* \"#utility.yul\":4252:4253   */\n      0x00\n        /* \"#utility.yul\":4249:4250   */\n      dup1\n        /* \"#utility.yul\":4242:4254   */\n      revert\n        /* \"#utility.yul\":4204:4256   */\n    tag_650:\n        /* \"#utility.yul\":4275:4303   */\n      tag_651\n        /* \"#utility.yul\":4293:4302   */\n      dup5\n        /* \"#utility.yul\":4275:4303   */\n      tag_608\n      jump\t// in\n    tag_651:\n        /* \"#utility.yul\":4265:4303   */\n      swap3\n      pop\n        /* \"#utility.yul\":4353:4355   */\n      0x20\n        /* \"#utility.yul\":4342:4351   */\n      dup5\n        /* \"#utility.yul\":4338:4356   */\n      add\n        /* \"#utility.yul\":4325:4357   */\n      calldataload\n        /* \"#utility.yul\":4400:4405   */\n      dup1\n        /* \"#utility.yul\":4393:4406   */\n      iszero\n        /* \"#utility.yul\":4386:4407   */\n      iszero\n        /* \"#utility.yul\":4379:4384   */\n      dup2\n        /* \"#utility.yul\":4376:4408   */\n      eq\n        /* \"#utility.yul\":4366:4426   */\n      tag_652\n      jumpi\n        /* \"#utility.yul\":4422:4423   */\n      0x00\n        /* \"#utility.yul\":4419:4420   */\n      dup1\n        /* \"#utility.yul\":4412:4424   */\n      revert\n        /* \"#utility.yul\":4366:4426   */\n    tag_652:\n        /* \"#utility.yul\":4094:4507   */\n      swap3\n      swap6\n        /* \"#utility.yul\":4445:4450   */\n      swap3\n      swap5\n      pop\n      pop\n      pop\n        /* \"#utility.yul\":4497:4499   */\n      0x40\n        /* \"#utility.yul\":4482:4500   */\n      swap2\n      swap1\n      swap2\n      add\n        /* \"#utility.yul\":4469:4501   */\n      calldataload\n      swap1\n        /* \"#utility.yul\":4094:4507   */\n      jump\t// out\n        /* \"#utility.yul\":4512:5170   */\n    tag_108:\n        /* \"#utility.yul\":4683:4685   */\n      0x20\n        /* \"#utility.yul\":4735:4756   */\n      dup1\n      dup3\n      mstore\n        /* \"#utility.yul\":4805:4818   */\n      dup3\n      mload\n        /* \"#utility.yul\":4708:4726   */\n      dup3\n      dup3\n      add\n        /* \"#utility.yul\":4827:4849   */\n      dup2\n      swap1\n      mstore\n        /* \"#utility.yul\":4654:4658   */\n      0x00\n      swap2\n        /* \"#utility.yul\":4683:4685   */\n      swap1\n        /* \"#utility.yul\":4906:4921   */\n      dup5\n      dup3\n      add\n      swap1\n        /* \"#utility.yul\":4880:4882   */\n      0x40\n        /* \"#utility.yul\":4865:4883   */\n      dup6\n      add\n      swap1\n        /* \"#utility.yul\":4654:4658   */\n      dup5\n        /* \"#utility.yul\":4949:5144   */\n    tag_654:\n        /* \"#utility.yul\":4963:4969   */\n      dup2\n        /* \"#utility.yul\":4960:4961   */\n      dup2\n        /* \"#utility.yul\":4957:4970   */\n      lt\n        /* \"#utility.yul\":4949:5144   */\n      iszero\n      tag_635\n      jumpi\n        /* \"#utility.yul\":5028:5041   */\n      dup4\n      mload\n      sub(shl(0xa0, 0x01), 0x01)\n        /* \"#utility.yul\":5024:5063   */\n      and\n        /* \"#utility.yul\":5012:5064   */\n      dup4\n      mstore\n        /* \"#utility.yul\":5119:5134   */\n      swap3\n      dup5\n      add\n      swap3\n        /* \"#utility.yul\":5084:5096   */\n      swap2\n      dup5\n      add\n      swap2\n        /* \"#utility.yul\":5060:5061   */\n      0x01\n        /* \"#utility.yul\":4978:4987   */\n      add\n        /* \"#utility.yul\":4949:5144   */\n      jump(tag_654)\n        /* \"#utility.yul\":5175:5302   */\n    tag_244:\n        /* \"#utility.yul\":5236:5246   */\n      0x4e487b71\n        /* \"#utility.yul\":5231:5234   */\n      0xe0\n        /* \"#utility.yul\":5227:5247   */\n      shl\n        /* \"#utility.yul\":5224:5225   */\n      0x00\n        /* \"#utility.yul\":5217:5248   */\n      mstore\n        /* \"#utility.yul\":5267:5271   */\n      0x21\n        /* \"#utility.yul\":5264:5265   */\n      0x04\n        /* \"#utility.yul\":5257:5272   */\n      mstore\n        /* \"#utility.yul\":5291:5295   */\n      0x24\n        /* \"#utility.yul\":5288:5289   */\n      0x00\n        /* \"#utility.yul\":5281:5296   */\n      revert\n        /* \"#utility.yul\":5307:5546   */\n    tag_610:\n        /* \"#utility.yul\":5390:5391   */\n      0x05\n        /* \"#utility.yul\":5383:5388   */\n      dup2\n        /* \"#utility.yul\":5380:5392   */\n      lt\n        /* \"#utility.yul\":5370:5513   */\n      tag_659\n      jumpi\n        /* \"#utility.yul\":5435:5445   */\n      0x4e487b71\n        /* \"#utility.yul\":5430:5433   */\n      0xe0\n        /* \"#utility.yul\":5426:5446   */\n      shl\n        /* \"#utility.yul\":5423:5424   */\n      0x00\n        /* \"#utility.yul\":5416:5447   */\n      mstore\n        /* \"#utility.yul\":5470:5474   */\n      0x21\n        /* \"#utility.yul\":5467:5468   */\n      0x04\n        /* \"#utility.yul\":5460:5475   */\n      mstore\n        /* \"#utility.yul\":5498:5502   */\n      0x24\n        /* \"#utility.yul\":5495:5496   */\n      0x00\n        /* \"#utility.yul\":5488:5503   */\n      revert\n        /* \"#utility.yul\":5370:5513   */\n    tag_659:\n        /* \"#utility.yul\":5522:5540   */\n      swap1\n      mstore\n        /* \"#utility.yul\":5307:5546   */\n      jump\t// out\n        /* \"#utility.yul\":5551:6258   */\n    tag_130:\n      not(sub(shl(0xd0, 0x01), 0x01))\n        /* \"#utility.yul\":5890:5927   */\n      dup9\n      and\n        /* \"#utility.yul\":5872:5928   */\n      dup2\n      mstore\n        /* \"#utility.yul\":5959:5961   */\n      0x20\n        /* \"#utility.yul\":5944:5962   */\n      dup2\n      add\n        /* \"#utility.yul\":5937:5971   */\n      dup8\n      swap1\n      mstore\n        /* \"#utility.yul\":6002:6004   */\n      0x40\n        /* \"#utility.yul\":5987:6005   */\n      dup2\n      add\n        /* \"#utility.yul\":5980:6014   */\n      dup7\n      swap1\n      mstore\n        /* \"#utility.yul\":6045:6047   */\n      0x60\n        /* \"#utility.yul\":6030:6048   */\n      dup2\n      add\n        /* \"#utility.yul\":6023:6057   */\n      dup6\n      swap1\n      mstore\n      sub(shl(0xa0, 0x01), 0x01)\n        /* \"#utility.yul\":6094:6126   */\n      dup5\n      and\n        /* \"#utility.yul\":6088:6091   */\n      0x80\n        /* \"#utility.yul\":6073:6092   */\n      dup3\n      add\n        /* \"#utility.yul\":6066:6127   */\n      mstore\n        /* \"#utility.yul\":5859:5862   */\n      0xe0\n        /* \"#utility.yul\":5844:5863   */\n      dup2\n      add\n        /* \"#utility.yul\":6136:6192   */\n      tag_661\n        /* \"#utility.yul\":6114:6117   */\n      0xa0\n        /* \"#utility.yul\":6172:6191   */\n      dup4\n      add\n        /* \"#utility.yul\":6164:6170   */\n      dup6\n        /* \"#utility.yul\":6136:6192   */\n      tag_610\n      jump\t// in\n    tag_661:\n        /* \"#utility.yul\":6243:6249   */\n      dup3\n        /* \"#utility.yul\":6236:6250   */\n      iszero\n        /* \"#utility.yul\":6229:6251   */\n      iszero\n        /* \"#utility.yul\":6223:6226   */\n      0xc0\n        /* \"#utility.yul\":6212:6221   */\n      dup4\n        /* \"#utility.yul\":6208:6227   */\n      add\n        /* \"#utility.yul\":6201:6252   */\n      mstore\n        /* \"#utility.yul\":5551:6258   */\n      swap9\n      swap8\n      pop\n      pop\n      pop\n      pop\n      pop\n      pop\n      pop\n      pop\n      jump\t// out\n        /* \"#utility.yul\":6455:7020   */\n    tag_611:\n        /* \"#utility.yul\":6557:6571   */\n      0xffffffffffff\n        /* \"#utility.yul\":6552:6555   */\n      0xd0\n        /* \"#utility.yul\":6548:6572   */\n      shl\n        /* \"#utility.yul\":6540:6545   */\n      dup2\n        /* \"#utility.yul\":6534:6546   */\n      mload\n        /* \"#utility.yul\":6530:6573   */\n      and\n        /* \"#utility.yul\":6525:6528   */\n      dup3\n        /* \"#utility.yul\":6518:6574   */\n      mstore\n        /* \"#utility.yul\":6623:6627   */\n      0x20\n        /* \"#utility.yul\":6616:6621   */\n      dup2\n        /* \"#utility.yul\":6612:6628   */\n      add\n        /* \"#utility.yul\":6606:6629   */\n      mload\n        /* \"#utility.yul\":6599:6603   */\n      0x20\n        /* \"#utility.yul\":6594:6597   */\n      dup4\n        /* \"#utility.yul\":6590:6604   */\n      add\n        /* \"#utility.yul\":6583:6630   */\n      mstore\n        /* \"#utility.yul\":6679:6683   */\n      0x40\n        /* \"#utility.yul\":6672:6677   */\n      dup2\n        /* \"#utility.yul\":6668:6684   */\n      add\n        /* \"#utility.yul\":6662:6685   */\n      mload\n        /* \"#utility.yul\":6655:6659   */\n      0x40\n        /* \"#utility.yul\":6650:6653   */\n      dup4\n        /* \"#utility.yul\":6646:6660   */\n      add\n        /* \"#utility.yul\":6639:6686   */\n      mstore\n        /* \"#utility.yul\":6735:6739   */\n      0x60\n        /* \"#utility.yul\":6728:6733   */\n      dup2\n        /* \"#utility.yul\":6724:6740   */\n      add\n        /* \"#utility.yul\":6718:6741   */\n      mload\n        /* \"#utility.yul\":6711:6715   */\n      0x60\n        /* \"#utility.yul\":6706:6709   */\n      dup4\n        /* \"#utility.yul\":6702:6716   */\n      add\n        /* \"#utility.yul\":6695:6742   */\n      mstore\n        /* \"#utility.yul\":6820:6821   */\n      0x01\n        /* \"#utility.yul\":6816:6817   */\n      dup1\n        /* \"#utility.yul\":6811:6814   */\n      0xa0\n        /* \"#utility.yul\":6807:6818   */\n      shl\n        /* \"#utility.yul\":6803:6822   */\n      sub\n        /* \"#utility.yul\":6795:6799   */\n      0x80\n        /* \"#utility.yul\":6788:6793   */\n      dup3\n        /* \"#utility.yul\":6784:6800   */\n      add\n        /* \"#utility.yul\":6778:6801   */\n      mload\n        /* \"#utility.yul\":6774:6823   */\n      and\n        /* \"#utility.yul\":6767:6771   */\n      0x80\n        /* \"#utility.yul\":6762:6765   */\n      dup4\n        /* \"#utility.yul\":6758:6772   */\n      add\n        /* \"#utility.yul\":6751:6824   */\n      mstore\n        /* \"#utility.yul\":6870:6874   */\n      0xa0\n        /* \"#utility.yul\":6863:6868   */\n      dup2\n        /* \"#utility.yul\":6859:6875   */\n      add\n        /* \"#utility.yul\":6853:6876   */\n      mload\n        /* \"#utility.yul\":6885:6942   */\n      tag_664\n        /* \"#utility.yul\":6936:6940   */\n      0xa0\n        /* \"#utility.yul\":6931:6934   */\n      dup5\n        /* \"#utility.yul\":6927:6941   */\n      add\n        /* \"#utility.yul\":6913:6925   */\n      dup3\n        /* \"#utility.yul\":6885:6942   */\n      tag_610\n      jump\t// in\n    tag_664:\n      pop\n        /* \"#utility.yul\":7005:7009   */\n      0xc0\n        /* \"#utility.yul\":6994:7010   */\n      swap1\n      dup2\n      add\n        /* \"#utility.yul\":6988:7011   */\n      mload\n        /* \"#utility.yul\":6981:7012   */\n      iszero\n        /* \"#utility.yul\":6974:7013   */\n      iszero\n        /* \"#utility.yul\":6958:6972   */\n      swap2\n      add\n        /* \"#utility.yul\":6951:7014   */\n      mstore\n        /* \"#utility.yul\":6455:7020   */\n      jump\t// out\n        /* \"#utility.yul\":7025:7734   */\n    tag_156:\n        /* \"#utility.yul\":7250:7252   */\n      0x20\n        /* \"#utility.yul\":7302:7323   */\n      dup1\n      dup3\n      mstore\n        /* \"#utility.yul\":7372:7385   */\n      dup3\n      mload\n        /* \"#utility.yul\":7275:7293   */\n      dup3\n      dup3\n      add\n        /* \"#utility.yul\":7394:7416   */\n      dup2\n      swap1\n      mstore\n        /* \"#utility.yul\":7221:7225   */\n      0x00\n      swap2\n        /* \"#utility.yul\":7250:7252   */\n      swap1\n        /* \"#utility.yul\":7473:7488   */\n      dup5\n      dup3\n      add\n      swap1\n        /* \"#utility.yul\":7447:7449   */\n      0x40\n        /* \"#utility.yul\":7432:7450   */\n      dup6\n      add\n      swap1\n        /* \"#utility.yul\":7221:7225   */\n      dup5\n        /* \"#utility.yul\":7516:7708   */\n    tag_666:\n        /* \"#utility.yul\":7530:7536   */\n      dup2\n        /* \"#utility.yul\":7527:7528   */\n      dup2\n        /* \"#utility.yul\":7524:7537   */\n      lt\n        /* \"#utility.yul\":7516:7708   */\n      iszero\n      tag_635\n      jumpi\n        /* \"#utility.yul\":7579:7626   */\n      tag_669\n        /* \"#utility.yul\":7622:7625   */\n      dup4\n        /* \"#utility.yul\":7613:7619   */\n      dup6\n        /* \"#utility.yul\":7607:7620   */\n      mload\n        /* \"#utility.yul\":7579:7626   */\n      tag_611\n      jump\t// in\n    tag_669:\n        /* \"#utility.yul\":7683:7698   */\n      swap3\n      dup5\n      add\n      swap3\n        /* \"#utility.yul\":7655:7659   */\n      0xe0\n        /* \"#utility.yul\":7646:7660   */\n      swap3\n      swap1\n      swap3\n      add\n      swap2\n        /* \"#utility.yul\":7552:7553   */\n      0x01\n        /* \"#utility.yul\":7545:7554   */\n      add\n        /* \"#utility.yul\":7516:7708   */\n      jump(tag_666)\n        /* \"#utility.yul\":7739:7991   */\n    tag_166:\n        /* \"#utility.yul\":7806:7812   */\n      0x00\n        /* \"#utility.yul\":7814:7820   */\n      dup1\n        /* \"#utility.yul\":7867:7869   */\n      0x40\n        /* \"#utility.yul\":7855:7864   */\n      dup4\n        /* \"#utility.yul\":7846:7853   */\n      dup6\n        /* \"#utility.yul\":7842:7865   */\n      sub\n        /* \"#utility.yul\":7838:7870   */\n      slt\n        /* \"#utility.yul\":7835:7887   */\n      iszero\n      tag_671\n      jumpi\n        /* \"#utility.yul\":7883:7884   */\n      0x00\n        /* \"#utility.yul\":7880:7881   */\n      dup1\n        /* \"#utility.yul\":7873:7885   */\n      revert\n        /* \"#utility.yul\":7835:7887   */\n    tag_671:\n        /* \"#utility.yul\":7906:7934   */\n      tag_638\n        /* \"#utility.yul\":7924:7933   */\n      dup4\n        /* \"#utility.yul\":7906:7934   */\n      tag_608\n      jump\t// in\n        /* \"#utility.yul\":7996:8244   */\n    tag_175:\n        /* \"#utility.yul\":8064:8070   */\n      0x00\n        /* \"#utility.yul\":8072:8078   */\n      dup1\n        /* \"#utility.yul\":8125:8127   */\n      0x40\n        /* \"#utility.yul\":8113:8122   */\n      dup4\n        /* \"#utility.yul\":8104:8111   */\n      dup6\n        /* \"#utility.yul\":8100:8123   */\n      sub\n        /* \"#utility.yul\":8096:8128   */\n      slt\n        /* \"#utility.yul\":8093:8145   */\n      iszero\n      tag_674\n      jumpi\n        /* \"#utility.yul\":8141:8142   */\n      0x00\n        /* \"#utility.yul\":8138:8139   */\n      dup1\n        /* \"#utility.yul\":8131:8143   */\n      revert\n        /* \"#utility.yul\":8093:8145   */\n    tag_674:\n      pop\n      pop\n        /* \"#utility.yul\":8164:8187   */\n      dup1\n      calldataload\n      swap3\n        /* \"#utility.yul\":8234:8236   */\n      0x20\n        /* \"#utility.yul\":8219:8237   */\n      swap1\n      swap2\n      add\n        /* \"#utility.yul\":8206:8238   */\n      calldataload\n      swap2\n      pop\n        /* \"#utility.yul\":7996:8244   */\n      jump\t// out\n        /* \"#utility.yul\":8249:8501   */\n    tag_184:\n        /* \"#utility.yul\":8316:8322   */\n      0x00\n        /* \"#utility.yul\":8324:8330   */\n      dup1\n        /* \"#utility.yul\":8377:8379   */\n      0x40\n        /* \"#utility.yul\":8365:8374   */\n      dup4\n        /* \"#utility.yul\":8356:8363   */\n      dup6\n        /* \"#utility.yul\":8352:8375   */\n      sub\n        /* \"#utility.yul\":8348:8380   */\n      slt\n        /* \"#utility.yul\":8345:8397   */\n      iszero\n      tag_676\n      jumpi\n        /* \"#utility.yul\":8393:8394   */\n      0x00\n        /* \"#utility.yul\":8390:8391   */\n      dup1\n        /* \"#utility.yul\":8383:8395   */\n      revert\n        /* \"#utility.yul\":8345:8397   */\n    tag_676:\n        /* \"#utility.yul\":8429:8438   */\n      dup3\n        /* \"#utility.yul\":8416:8439   */\n      calldataload\n        /* \"#utility.yul\":8406:8439   */\n      swap2\n      pop\n        /* \"#utility.yul\":8458:8495   */\n      tag_677\n        /* \"#utility.yul\":8491:8493   */\n      0x20\n        /* \"#utility.yul\":8480:8489   */\n      dup5\n        /* \"#utility.yul\":8476:8494   */\n      add\n        /* \"#utility.yul\":8458:8495   */\n      tag_608\n      jump\t// in\n    tag_677:\n        /* \"#utility.yul\":8448:8495   */\n      swap1\n      pop\n        /* \"#utility.yul\":8249:8501   */\n      swap3\n      pop\n      swap3\n      swap1\n      pop\n      jump\t// out\n        /* \"#utility.yul\":8798:9052   */\n    tag_201:\n        /* \"#utility.yul\":8866:8872   */\n      0x00\n        /* \"#utility.yul\":8874:8880   */\n      dup1\n        /* \"#utility.yul\":8927:8929   */\n      0x40\n        /* \"#utility.yul\":8915:8924   */\n      dup4\n        /* \"#utility.yul\":8906:8913   */\n      dup6\n        /* \"#utility.yul\":8902:8925   */\n      sub\n        /* \"#utility.yul\":8898:8930   */\n      slt\n        /* \"#utility.yul\":8895:8947   */\n      iszero\n      tag_680\n      jumpi\n        /* \"#utility.yul\":8943:8944   */\n      0x00\n        /* \"#utility.yul\":8940:8941   */\n      dup1\n        /* \"#utility.yul\":8933:8945   */\n      revert\n        /* \"#utility.yul\":8895:8947   */\n    tag_680:\n        /* \"#utility.yul\":8979:8988   */\n      dup3\n        /* \"#utility.yul\":8966:8989   */\n      calldataload\n        /* \"#utility.yul\":8956:8989   */\n      swap2\n      pop\n        /* \"#utility.yul\":9008:9046   */\n      tag_677\n        /* \"#utility.yul\":9042:9044   */\n      0x20\n        /* \"#utility.yul\":9031:9040   */\n      dup5\n        /* \"#utility.yul\":9027:9045   */\n      add\n        /* \"#utility.yul\":9008:9046   */\n      tag_609\n      jump\t// in\n        /* \"#utility.yul\":9057:9310   */\n    tag_209:\n        /* \"#utility.yul\":9245:9248   */\n      0xe0\n        /* \"#utility.yul\":9230:9249   */\n      dup2\n      add\n        /* \"#utility.yul\":9258:9304   */\n      tag_506\n        /* \"#utility.yul\":9234:9243   */\n      dup3\n        /* \"#utility.yul\":9286:9292   */\n      dup5\n        /* \"#utility.yul\":9258:9304   */\n      tag_611\n      jump\t// in\n        /* \"#utility.yul\":9315:9442   */\n    tag_239:\n        /* \"#utility.yul\":9376:9386   */\n      0x4e487b71\n        /* \"#utility.yul\":9371:9374   */\n      0xe0\n        /* \"#utility.yul\":9367:9387   */\n      shl\n        /* \"#utility.yul\":9364:9365   */\n      0x00\n        /* \"#utility.yul\":9357:9388   */\n      mstore\n        /* \"#utility.yul\":9407:9411   */\n      0x32\n        /* \"#utility.yul\":9404:9405   */\n      0x04\n        /* \"#utility.yul\":9397:9412   */\n      mstore\n        /* \"#utility.yul\":9431:9435   */\n      0x24\n        /* \"#utility.yul\":9428:9429   */\n      0x00\n        /* \"#utility.yul\":9421:9436   */\n      revert\n        /* \"#utility.yul\":9447:9659   */\n    tag_254:\n        /* \"#utility.yul\":9595:9597   */\n      0x20\n        /* \"#utility.yul\":9580:9598   */\n      dup2\n      add\n        /* \"#utility.yul\":9607:9653   */\n      tag_506\n        /* \"#utility.yul\":9584:9593   */\n      dup3\n        /* \"#utility.yul\":9635:9641   */\n      dup5\n        /* \"#utility.yul\":9607:9653   */\n      tag_610\n      jump\t// in\n        /* \"#utility.yul\":9664:9791   */\n    tag_612:\n        /* \"#utility.yul\":9725:9735   */\n      0x4e487b71\n        /* \"#utility.yul\":9720:9723   */\n      0xe0\n        /* \"#utility.yul\":9716:9736   */\n      shl\n        /* \"#utility.yul\":9713:9714   */\n      0x00\n        /* \"#utility.yul\":9706:9737   */\n      mstore\n        /* \"#utility.yul\":9756:9760   */\n      0x11\n        /* \"#utility.yul\":9753:9754   */\n      0x04\n        /* \"#utility.yul\":9746:9761   */\n      mstore\n        /* \"#utility.yul\":9780:9784   */\n      0x24\n        /* \"#utility.yul\":9777:9778   */\n      0x00\n        /* \"#utility.yul\":9770:9785   */\n      revert\n        /* \"#utility.yul\":9796:9931   */\n    tag_256:\n        /* \"#utility.yul\":9835:9838   */\n      0x00\n        /* \"#utility.yul\":9856:9873   */\n      0x01\n      dup3\n      add\n        /* \"#utility.yul\":9853:9896   */\n      tag_690\n      jumpi\n        /* \"#utility.yul\":9876:9894   */\n      tag_690\n      tag_612\n      jump\t// in\n    tag_690:\n      pop\n        /* \"#utility.yul\":9923:9924   */\n      0x01\n        /* \"#utility.yul\":9912:9925   */\n      add\n      swap1\n        /* \"#utility.yul\":9796:9931   */\n      jump\t// out\n        /* \"#utility.yul\":9936:10064   */\n    tag_279:\n        /* \"#utility.yul\":10003:10012   */\n      dup2\n      dup2\n      sub\n        /* \"#utility.yul\":10024:10035   */\n      dup2\n      dup2\n      gt\n        /* \"#utility.yul\":10021:10058   */\n      iszero\n      tag_506\n      jumpi\n        /* \"#utility.yul\":10038:10056   */\n      tag_506\n      tag_612\n      jump\t// in\n        /* \"#utility.yul\":10069:10194   */\n    tag_281:\n        /* \"#utility.yul\":10134:10143   */\n      dup1\n      dup3\n      add\n        /* \"#utility.yul\":10155:10165   */\n      dup1\n      dup3\n      gt\n        /* \"#utility.yul\":10152:10188   */\n      iszero\n      tag_506\n      jumpi\n        /* \"#utility.yul\":10168:10186   */\n      tag_506\n      tag_612\n      jump\t// in\n        /* \"#utility.yul\":10662:11003   */\n    tag_328:\n        /* \"#utility.yul\":10864:10866   */\n      0x20\n        /* \"#utility.yul\":10846:10867   */\n      dup1\n      dup3\n      mstore\n        /* \"#utility.yul\":10903:10905   */\n      0x11\n        /* \"#utility.yul\":10883:10901   */\n      swap1\n      dup3\n      add\n        /* \"#utility.yul\":10876:10906   */\n      mstore\n      shl(0x7a, 0x115512081c99599d5b990819985a5b1959)\n        /* \"#utility.yul\":10937:10939   */\n      0x40\n        /* \"#utility.yul\":10922:10940   */\n      dup3\n      add\n        /* \"#utility.yul\":10915:10962   */\n      mstore\n        /* \"#utility.yul\":10994:10996   */\n      0x60\n        /* \"#utility.yul\":10979:10997   */\n      add\n      swap1\n        /* \"#utility.yul\":10662:11003   */\n      jump\t// out\n        /* \"#utility.yul\":11008:11176   */\n    tag_340:\n        /* \"#utility.yul\":11081:11090   */\n      dup1\n      dup3\n      mul\n        /* \"#utility.yul\":11112:11121   */\n      dup2\n      iszero\n        /* \"#utility.yul\":11129:11144   */\n      dup3\n      dup3\n      div\n        /* \"#utility.yul\":11123:11145   */\n      dup5\n      eq\n        /* \"#utility.yul\":11109:11146   */\n      or\n        /* \"#utility.yul\":11099:11170   */\n      tag_506\n      jumpi\n        /* \"#utility.yul\":11150:11168   */\n      tag_506\n      tag_612\n      jump\t// in\n        /* \"#utility.yul\":12190:12317   */\n    tag_441:\n        /* \"#utility.yul\":12251:12261   */\n      0x4e487b71\n        /* \"#utility.yul\":12246:12249   */\n      0xe0\n        /* \"#utility.yul\":12242:12262   */\n      shl\n        /* \"#utility.yul\":12239:12240   */\n      0x00\n        /* \"#utility.yul\":12232:12263   */\n      mstore\n        /* \"#utility.yul\":12282:12286   */\n      0x41\n        /* \"#utility.yul\":12279:12280   */\n      0x04\n        /* \"#utility.yul\":12272:12287   */\n      mstore\n        /* \"#utility.yul\":12306:12310   */\n      0x24\n        /* \"#utility.yul\":12303:12304   */\n      0x00\n        /* \"#utility.yul\":12296:12311   */\n      revert\n        /* \"#utility.yul\":12631:12815   */\n    tag_488:\n        /* \"#utility.yul\":12701:12707   */\n      0x00\n        /* \"#utility.yul\":12754:12756   */\n      0x20\n        /* \"#utility.yul\":12742:12751   */\n      dup3\n        /* \"#utility.yul\":12733:12740   */\n      dup5\n        /* \"#utility.yul\":12729:12752   */\n      sub\n        /* \"#utility.yul\":12725:12757   */\n      slt\n        /* \"#utility.yul\":12722:12774   */\n      iszero\n      tag_709\n      jumpi\n        /* \"#utility.yul\":12770:12771   */\n      0x00\n        /* \"#utility.yul\":12767:12768   */\n      dup1\n        /* \"#utility.yul\":12760:12772   */\n      revert\n        /* \"#utility.yul\":12722:12774   */\n    tag_709:\n      pop\n        /* \"#utility.yul\":12793:12809   */\n      mload\n      swap2\n        /* \"#utility.yul\":12631:12815   */\n      swap1\n      pop\n      jump\t// out\n    stop\n    data_582bea4712673084765ac4d486dc94552284f9754b6452fea1ba251783f98b88 496e76616c6964206368617261637465723a206d75737420626520412d5a206f7220302d39\n    data_c8669cf8eaf883002b9f48e28846a8d408c9b58ea6613bace374265e43c9bc43 9b779b17422d0df92223018b32b4d1fa46e071723d6817e2486d003becc55f00\n\n    auxdata: 0xa2646970667358221220a57690008e22b863baf548b1c3dc978ffdf98b21e9ffa601fd56ac2ff8d0e27864736f6c63430008140033\n}\n",
				"bytecode": {
					"linkReferences": {},
					"object": "60a06040523480156200001157600080fd5b5060405162002c2338038062002c2383398101604081905262000034916200017f565b33806200005b57604051631e4fbdf760e01b81526000600482015260240160405180910390fd5b620000668162000112565b5060017f9b779b17422d0df92223018b32b4d1fa46e071723d6817e2486d003becc55f00556001600160a01b038316620000b35760405163d92e233d60e01b815260040160405180910390fd5b6001600160a01b038216620000db5760405163d92e233d60e01b815260040160405180910390fd5b6001600160a01b03928316608052600180549284166001600160a01b031993841617905560028054919093169116179055620001c9565b600080546001600160a01b038381166001600160a01b0319831681178455604051919092169283917f8be0079c531659141344cd1fd0a4f28419497f9722a3daafe3b4186f6b6457e09190a35050565b80516001600160a01b03811681146200017a57600080fd5b919050565b6000806000606084860312156200019557600080fd5b620001a08462000162565b9250620001b06020850162000162565b9150620001c06040850162000162565b90509250925092565b608051612a22620002016000396000818161027901528181610efa01528181610f5701528181611b500152611c6d0152612a226000f3fe60806040526004361061021e5760003560e01c8063715018a6116101235780638da5cb5b116100ab578063b8a740e01161006f578063b8a740e0146106f6578063c106aee314610723578063d6b7e9d914610743578063ecdd4f9f14610763578063f2fde38b1461078357600080fd5b80638da5cb5b1461061d5780639fd116271461063b578063a4ce555d1461065b578063a96de4f51461067b578063b5740c9c146106bb57600080fd5b806383d5d801116100f257806383d5d801146105a95780638456cb59146105bf57806387c3ac08146105d45780638a19c8bc146105e75780638d88f8d1146105fd57600080fd5b8063715018a61461052757806374c473931461053c5780637a03ce4f1461055c5780638249a69c1461057c57600080fd5b806342610993116101a65780634ce04501116101755780634ce04501146104115780635364276d1461043157806353b65d40146104515780635b7baf64146104dd5780635c975abb146104fd57600080fd5b8063426109931461039b578063454ac84e146103ae57806345c952cb146103db57806347f43ef2146103f157600080fd5b80632768a49f116101ed5780632768a49f146102ea57806327b2384914610318578063338f0856146103385780633bc91e28146103665780633f4ba83a1461038657600080fd5b80630bd4c3991461022a5780630e31648f146102675780631330cd861461029b578063233507b9146102bd57600080fd5b3661022557005b600080fd5b34801561023657600080fd5b5061024a610245366004612487565b6107a3565b6040516001600160a01b0390911681526020015b60405180910390f35b34801561027357600080fd5b5061024a7f000000000000000000000000000000000000000000000000000000000000000081565b3480156102a757600080fd5b506102bb6102b63660046124bc565b6107e8565b005b3480156102c957600080fd5b506102dd6102d8366004612552565b61094b565b60405161025e9190612574565b3480156102f657600080fd5b5061030a6103053660046125b8565b6109b7565b60405190815260200161025e565b34801561032457600080fd5b506102bb610333366004612552565b6109e8565b34801561034457600080fd5b506103586103533660046125e2565b610a61565b60405161025e9291906125fd565b34801561037257600080fd5b506102bb610381366004612655565b610bf5565b34801561039257600080fd5b506102bb610c5b565b6102bb6103a936600461266e565b610c9a565b3480156103ba57600080fd5b506103ce6103c9366004612655565b61125f565b60405161025e91906126b2565b3480156103e757600080fd5b5061030a60035481565b3480156103fd57600080fd5b506102bb61040c3660046125b8565b6112ca565b34801561041d57600080fd5b5060015461024a906001600160a01b031681565b34801561043d57600080fd5b5060025461024a906001600160a01b031681565b34801561045d57600080fd5b506104ca61046c3660046125b8565b60076020908152600092835260408084209091529082529020805460018201546002830154600384015460049094015460d09390931b9391929091906001600160a01b0381169060ff600160a01b8204811691600160a81b90041687565b60405161025e979695949392919061272b565b3480156104e957600080fd5b506102bb6104f8366004612655565b6113b7565b34801561050957600080fd5b506006546105179060ff1681565b604051901515815260200161025e565b34801561053357600080fd5b506102bb611610565b34801561054857600080fd5b506102bb610557366004612552565b611624565b34801561056857600080fd5b506102bb6105773660046125b8565b61169d565b34801561058857600080fd5b5061059c610597366004612552565b6117a7565b60405161025e91906127e0565b3480156105b557600080fd5b5061030a60045481565b3480156105cb57600080fd5b506102bb6119be565b6102bb6105e2366004612822565b611a00565b3480156105f357600080fd5b5061030a60055481565b34801561060957600080fd5b506102bb61061836600461283e565b611d3d565b34801561062957600080fd5b506000546001600160a01b031661024a565b34801561064757600080fd5b506103ce610656366004612860565b611db5565b34801561066757600080fd5b5061030a6106763660046125e2565b611e35565b34801561068757600080fd5b5061069b6106963660046125b8565b611e7a565b6040805192151583526001600160d01b031990911660208301520161025e565b3480156106c757600080fd5b506105176106d636600461288c565b600b60209081526000928352604080842090915290825290205460ff1681565b34801561070257600080fd5b506107166107113660046125b8565b611ed2565b60405161025e91906128af565b34801561072f57600080fd5b5061069b61073e3660046125b8565b611fce565b34801561074f57600080fd5b5061030a61075e366004612655565b61208f565b34801561076f57600080fd5b5061024a61077e36600461283e565b61209f565b34801561078f57600080fd5b506102bb61079e366004612552565b6120d7565b600860205282600052604060002060205281600052604060002081815481106107cb57600080fd5b6000918252602090912001546001600160a01b0316925083915050565b6002546001600160a01b0316331461081357604051633e94dce960e01b815260040160405180910390fd5b60005b8181101561094557600060076000858585818110610836576108366128bd565b905060200201602081019061084b9190612552565b6001600160a01b031681526020808201929092526040908101600090812088825290925290206004810154909150600160a81b900460ff1680156108ae57506000600482810154600160a01b900460ff16908111156108ac576108ac6126f3565b145b156109325760048101805460ff60a01b1916600160a01b179055848484848181106108db576108db6128bd565b90506020020160208101906108f09190612552565b6001600160a01b03167f1415547ac25cccddfd82d3b4bcad6c1a8383110d39e6799a32b6cc5f2987e914600160405161092991906128d3565b60405180910390a35b508061093d816128f7565b915050610816565b50505050565b6001600160a01b0381166000908152600960209081526040918290208054835181840281018401909452808452606093928301828280156109ab57602002820191906000526020600020905b815481526020019060010190808311610997575b50505050509050919050565b600960205281600052604060002081815481106109d357600080fd5b90600052602060002001600091509150505481565b6109f0612112565b6001600160a01b038116610a175760405163d92e233d60e01b815260040160405180910390fd5b600280546001600160a01b0319166001600160a01b0383169081179091556040517f89386b8711bad3ec737a1746dbcc52de03de68add300345f9acb944c28ae03f390600090a250565b600060606000805b6006811015610bd8576000858260068110610a8657610a866128bd565b1a60f81b90506000604160f81b6001600160f81b0319831610801590610aba5750602d60f91b6001600160f81b0319831611155b90506000600360fc1b6001600160f81b0319841610801590610aea5750603960f81b6001600160f81b0319841611155b905081158015610af8575080155b15610b265760006040518060600160405280602581526020016129a860259139965096505050505050915091565b600082610b4c57610b3c603060f886901c612910565b610b4790601a612923565b610b5b565b610b5b604160f886901c612910565b90506001811b67ffffffffffffffff8782161615610bbb5760006040518060400160405280601f81526020017f526570656174696e6720636861726163746572206e6f7420616c6c6f776564008152509850985050505050505050915091565b808717965050505050508080610bd0906128f7565b915050610a69565b506001604051806020016040528060008152509250925050915091565b6002546001600160a01b03163314610c2057604051633e94dce960e01b815260040160405180910390fd5b60058190556040518181527f04db6a5933824de781cbd9e4632fb41f1d4100b9e8e62949ed7361f323ac1dd59060200160405180910390a150565b610c63612112565b6006805460ff1916905560405133907f5db9ee0a495bf2e6ff9c91a7834c1ba4fdd244a5e8aa4e537bd38aeae4b073aa90600090a2565b610ca261213f565b60065460ff1615610cc65760405163ab35696f60e01b815260040160405180910390fd5b60006005546001610cd79190612923565b336000908152600760209081526040808320848452909152902060040154909150600160a81b900460ff1615610dae5760013360009081526007602090815260408083208584529091529020600490810154600160a01b900460ff1690811115610d4357610d436126f3565b1480610d88575060003360009081526007602090815260408083208584529091529020600490810154600160a01b900460ff1690811115610d8657610d866126f3565b145b15610dae57604051639d50e10360e01b8152600481018290526024015b60405180910390fd5b610db78461215b565b6000808415610e8357341580610dce575060045434105b15610df95760048054604051630ee6446f60e01b815234928101929092526024820152604401610da5565b5050600454600034821015610e7e576004546000903390610e1a9034612910565b604051600081818185875af1925050503d8060008114610e56576040519150601f19603f3d011682016040523d82523d6000602084013e610e5b565b606091505b5050905080610e7c5760405162461bcd60e51b8152600401610da590612936565b505b610f2e565b3415610ef357604051600090339034908381818185875af1925050503d8060008114610ecb576040519150601f19603f3d011682016040523d82523d6000602084013e610ed0565b606091505b5050905080610ef15760405162461bcd60e51b8152600401610da590612936565b505b50506003547f0000000000000000000000000000000000000000000000000000000000000000610f2e6001600160a01b0382163330856122a7565b600060035485610f3e9190612961565b90508015610fb857600154610f82906001600160a01b037f0000000000000000000000000000000000000000000000000000000000000000811691339116846122a7565b60405181815233907f41a209ee6a3eb8344a3f83b585bb4d93349bfbbd34dce09ea38d8023516f2da09060200160405180910390a25b6000610fc48686612923565b6040805160e0810182526001600160d01b03198b1681526005546020820152908101829052606081018690526001600160a01b038516608082015290915060a0810160008152600160209182018190523360009081526007835260408082208a83528452908190208451815460d09190911c65ffffffffffff1990911617815592840151918301919091558201516002820155606082015160038201556080820151600480830180546001600160a01b03939093166001600160a01b031984168117825560a08601519391926001600160a81b03199092161790600160a01b9084908111156110b5576110b56126f3565b021790555060c0919091015160049091018054911515600160a81b0260ff60a81b199092169190911790556000858152600b6020908152604080832033845290915290205460ff166111a05760008581526008602090815260408083206001600160d01b03198c1684528252808320805460018082018355918552838520018054336001600160a01b031991821681179092558a8652600a85528386208054808501825590875285872001805490911682179055898552600b84528285209085528352818420805460ff191682179055600983529083208054918201815583529120018590556111e1565b60008581526008602090815260408083206001600160d01b03198c16845282528220805460018101825590835291200180546001600160a01b031916331790555b604080516001600160d01b03198a168152602081018690526001600160a01b03851681830152606081018390529051869133917fd87332d5905526492c72528b38ead8c7c478e7806af135f39be5df875e4f24bb9181900360800190a3505050505061125a60016000805160206129cd83398151915255565b505050565b6000818152600a60209081526040918290208054835181840281018401909452808452606093928301828280156109ab57602002820191906000526020600020905b81546001600160a01b031681526001909101906020018083116112a15750505050509050919050565b6002546001600160a01b031633146112f557604051633e94dce960e01b815260040160405180910390fd5b6001600160a01b038216600090815260076020908152604080832084845290915290206004810154600160a81b900460ff16801561135257506001600482810154600160a01b900460ff1690811115611350576113506126f3565b145b1561125a5760048101805460ff60a01b1916600160a11b17905560405182906001600160a01b038516907f1415547ac25cccddfd82d3b4bcad6c1a8383110d39e6799a32b6cc5f2987e914906113aa906002906128d3565b60405180910390a3505050565b6113bf61213f565b33600090815260076020908152604080832084845290915290206004810154600160a81b900460ff1661140e57604051639477d82560e01b815233600482015260248101839052604401610da5565b6003600482810154600160a01b900460ff1690811115611430576114306126f3565b148061145a575060048082810154600160a01b900460ff1690811115611458576114586126f3565b145b156114785760405163542f378d60e11b815260040160405180910390fd5b8060020154600554116114b1578060040160149054906101000a900460ff1660405163037e706360e61b8152600401610da591906128d3565b6000816002015460026114c49190612923565b90508060055411156114fa576002820154600554604051630972e7ff60e11b815260048101929092526024820152604401610da5565b600382018054600484018054600360a01b60ff60a01b198216179091556000909255906001600160a01b03168061159957604051600090339084908381818185875af1925050503d806000811461156d576040519150601f19603f3d011682016040523d82523d6000602084013e611572565b606091505b50509050806115935760405162461bcd60e51b8152600401610da590612936565b506115ad565b6115ad6001600160a01b03821633846122dd565b604080518381526001600160a01b0383166020820152869133917fad8270d9f16e19a32ba47f589e09c7c69d78067b4d2f59f4d7d95f4a37b792a1910160405180910390a35050505061160d60016000805160206129cd83398151915255565b50565b611618612112565b6116226000612312565b565b61162c612112565b6001600160a01b0381166116535760405163d92e233d60e01b815260040160405180910390fd5b600180546001600160a01b0319166001600160a01b0383169081179091556040517f02b48ab5a397c976981a15213f5c994553b8fb01c27d3b77542c6095a483379d90600090a250565b6002546001600160a01b031633146116c857604051633e94dce960e01b815260040160405180910390fd5b6001600160a01b038216600090815260076020908152604080832084845290915290206004810154600160a81b900460ff16801561174e57506002600482810154600160a01b900460ff1690811115611723576117236126f3565b148061174e57506001600482810154600160a01b900460ff169081111561174c5761174c6126f3565b145b1561125a576004818101805460ff60a01b1916600160a01b83021790555081836001600160a01b03167f1415547ac25cccddfd82d3b4bcad6c1a8383110d39e6799a32b6cc5f2987e91460046040516113aa91906128d3565b6001600160a01b038116600090815260096020908152604080832080548251818502810185019093528083526060949383018282801561180657602002820191906000526020600020905b8154815260200190600101908083116117f2575b50505050509050805167ffffffffffffffff81111561182757611827612978565b60405190808252806020026020018201604052801561188e57816020015b6040805160e08101825260008082526020808301829052928201819052606082018190526080820181905260a0820181905260c082015282526000199092019101816118455790505b50915060005b81518110156119b7576001600160a01b038416600090815260076020526040812083519091908490849081106118cc576118cc6128bd565b6020908102919091018101518252818101929092526040908101600020815160e081018352815460d01b6001600160d01b0319168152600182015493810193909352600281015491830191909152600381015460608301526004808201546001600160a01b038116608085015260a0840191600160a01b90910460ff1690811115611959576119596126f3565b600481111561196a5761196a6126f3565b815260049190910154600160a81b900460ff1615156020909101528351849083908110611999576119996128bd565b602002602001018190525080806119af906128f7565b915050611894565b5050919050565b6119c6612112565b6006805460ff1916600117905560405133907f62e78cea01bee320cd4e420270b5ea74000d11b0c9f74754ebdbfc544b05a25890600090a2565b611a0861213f565b60065460ff1615611a2c5760405163ab35696f60e01b815260040160405180910390fd5b60006005546001611a3d9190612923565b3360009081526007602090815260408083208484529091529020600481015491925090600160a81b900460ff16611a9057604051639477d82560e01b815233600482015260248101839052604401610da5565b6000600482810154600160a01b900460ff1690811115611ab257611ab26126f3565b14158015611ae057506001600482810154600160a01b900460ff1690811115611add57611add6126f3565b14155b15611b11578060040160149054906101000a900460ff166040516397b79d0360e01b8152600401610da591906128d3565b611b1a8461215b565b600060035484611b2a9190612961565b90508015611bf257604051636eb1769f60e11b81523360048201523060248201526000907f00000000000000000000000000000000000000000000000000000000000000006001600160a01b03169063dd62ed3e90604401602060405180830381865afa158015611b9f573d6000803e3d6000fd5b505050506040513d601f19601f82011682018060405250810190611bc3919061298e565b905081811015611bf05760405163054365bb60e31b81526004810183905260248101829052604401610da5565b505b815460d086811c65ffffffffffff1983161784551b611c118585612923565b600284015560008481526008602090815260408083206001600160d01b03198a16845282528220805460018101825590835291200180546001600160a01b031916331790558115611cce57600154611c98906001600160a01b037f0000000000000000000000000000000000000000000000000000000000000000811691339116856122a7565b60405182815233907f41a209ee6a3eb8344a3f83b585bb4d93349bfbbd34dce09ea38d8023516f2da09060200160405180910390a25b604080516001600160d01b0319808416825288166020820152908101839052849033907fab313771997efca336c32b9e87cd8a060e3f223ab8b4e494e49c21e2342fb73c9060600160405180910390a350505050611d3960016000805160206129cd83398151915255565b5050565b611d45612112565b811580611d50575080155b15611d6e57604051631f2a200560e01b815260040160405180910390fd5b6003829055600481905560408051838152602081018390527f5299e127ac8bdc64fd0e551dd406ba1e1fbaebc96d458ce9b1a5e69caecdf376910160405180910390a15050565b60008281526008602090815260408083206001600160d01b031985168452825291829020805483518184028101840190945280845260609392830182828015611e2757602002820191906000526020600020905b81546001600160a01b03168152600190910190602001808311611e09575b505050505090505b92915050565b6000600860006005546001611e4a9190612923565b8152602080820192909252604090810160009081206001600160d01b031990951681529390915290912054919050565b6001600160a01b038216600090815260076020908152604080832084845290915281206004810154829190600160a81b900460ff16611ec0575060009150819050611ecb565b546001925060d01b90505b9250929050565b6040805160e081018252600080825260208201819052918101829052606081018290526080810182905260a0810182905260c08101919091526001600160a01b038381166000908152600760209081526040808320868452825291829020825160e081018452815460d01b6001600160d01b0319168152600182015492810192909252600281015492820192909252600382015460608201526004808301549384166080830152909260a0840191600160a01b90910460ff1690811115611f9b57611f9b6126f3565b6004811115611fac57611fac6126f3565b815260049190910154600160a81b900460ff1615156020909101529392505050565b6001600160a01b038216600090815260076020908152604080832084845290915281206004810154829190600160a81b900460ff16612014575060009150819050611ecb565b6001600482810154600160a01b900460ff1690811115612036576120366126f3565b1415801561206457506000600482810154600160a01b900460ff1690811115612061576120616126f3565b14155b15612076575060009150819050611ecb565b8060020154841115611ec0575060009150819050611ecb565b600060035482611e2f9190612961565b600a60205281600052604060002081815481106120bb57600080fd5b6000918252602090912001546001600160a01b03169150829050565b6120df612112565b6001600160a01b03811661210957604051631e4fbdf760e01b815260006004820152602401610da5565b61160d81612312565b6000546001600160a01b031633146116225760405163118cdaa760e01b8152336004820152602401610da5565b612147612362565b60026000805160206129cd83398151915255565b6000805b600681101561125a57600083826006811061217c5761217c6128bd565b1a60f81b90506000604160f81b6001600160f81b03198316108015906121b05750602d60f91b6001600160f81b0319831611155b90506000600360fc1b6001600160f81b03198416108015906121e05750603960f81b6001600160f81b0319841611155b9050811580156121ee575080155b1561221857604051633fd7c86760e01b81526001600160f81b031984166004820152602401610da5565b60008261223e5761222e603060f886901c612910565b61223990601a612923565b61224d565b61224d604160f886901c612910565b90506001811b67ffffffffffffffff878216161561228a57604051638cd88f6960e01b81526001600160f81b031986166004820152602401610da5565b80871796505050505050808061229f906128f7565b91505061215f565b6122b5848484846001612392565b61094557604051635274afe760e01b81526001600160a01b0385166004820152602401610da5565b6122ea8383836001612404565b61125a57604051635274afe760e01b81526001600160a01b0384166004820152602401610da5565b600080546001600160a01b038381166001600160a01b0319831681178455604051919092169283917f8be0079c531659141344cd1fd0a4f28419497f9722a3daafe3b4186f6b6457e09190a35050565b6000805160206129cd8339815191525460020361162257604051633ee5aeb560e01b815260040160405180910390fd5b6040516323b872dd60e01b60008181526001600160a01b038781166004528616602452604485905291602083606481808c5af1925060016000511483166123f25783831516156123e5573d6000823e3d81fd5b6000883b113d1516831692505b60405250600060605295945050505050565b60405163a9059cbb60e01b60008181526001600160a01b038616600452602485905291602083604481808b5af19250600160005114831661245e578383151615612451573d6000823e3d81fd5b6000873b113d1516831692505b60405250949350505050565b80356001600160d01b03198116811461248257600080fd5b919050565b60008060006060848603121561249c57600080fd5b833592506124ac6020850161246a565b9150604084013590509250925092565b6000806000604084860312156124d157600080fd5b83359250602084013567ffffffffffffffff808211156124f057600080fd5b818601915086601f83011261250457600080fd5b81358181111561251357600080fd5b8760208260051b850101111561252857600080fd5b6020830194508093505050509250925092565b80356001600160a01b038116811461248257600080fd5b60006020828403121561256457600080fd5b61256d8261253b565b9392505050565b6020808252825182820181905260009190848201906040850190845b818110156125ac57835183529284019291840191600101612590565b50909695505050505050565b600080604083850312156125cb57600080fd5b6125d48361253b565b946020939093013593505050565b6000602082840312156125f457600080fd5b61256d8261246a565b821515815260006020604081840152835180604085015260005b8181101561263357858101830151858201606001528201612617565b506000606082860101526060601f19601f830116850101925050509392505050565b60006020828403121561266757600080fd5b5035919050565b60008060006060848603121561268357600080fd5b61268c8461246a565b9250602084013580151581146126a157600080fd5b929592945050506040919091013590565b6020808252825182820181905260009190848201906040850190845b818110156125ac5783516001600160a01b0316835292840192918401916001016126ce565b634e487b7160e01b600052602160045260246000fd5b6005811061272757634e487b7160e01b600052602160045260246000fd5b9052565b6001600160d01b0319881681526020810187905260408101869052606081018590526001600160a01b038416608082015260e0810161276d60a0830185612709565b82151560c083015298975050505050505050565b65ffffffffffff60d01b815116825260208101516020830152604081015160408301526060810151606083015260018060a01b03608082015116608083015260a08101516127d260a0840182612709565b5060c0908101511515910152565b6020808252825182820181905260009190848201906040850190845b818110156125ac5761280f838551612781565b9284019260e092909201916001016127fc565b6000806040838503121561283557600080fd5b6125d48361246a565b6000806040838503121561285157600080fd5b50508035926020909101359150565b6000806040838503121561287357600080fd5b823591506128836020840161246a565b90509250929050565b6000806040838503121561289f57600080fd5b823591506128836020840161253b565b60e08101611e2f8284612781565b634e487b7160e01b600052603260045260246000fd5b60208101611e2f8284612709565b634e487b7160e01b600052601160045260246000fd5b600060018201612909576129096128e1565b5060010190565b81810381811115611e2f57611e2f6128e1565b80820180821115611e2f57611e2f6128e1565b602080825260119082015270115512081c99599d5b990819985a5b1959607a1b604082015260600190565b8082028115828204841417611e2f57611e2f6128e1565b634e487b7160e01b600052604160045260246000fd5b6000602082840312156129a057600080fd5b505191905056fe496e76616c6964206368617261637465723a206d75737420626520412d5a206f7220302d399b779b17422d0df92223018b32b4d1fa46e071723d6817e2486d003becc55f00a2646970667358221220a57690008e22b863baf548b1c3dc978ffdf98b21e9ffa601fd56ac2ff8d0e27864736f6c63430008140033",
					"opcodes": "PUSH1 0xA0 PUSH1 0x40 MSTORE CALLVALUE DUP1 ISZERO PUSH3 0x11 JUMPI PUSH1 0x0 DUP1 REVERT JUMPDEST POP PUSH1 0x40 MLOAD PUSH3 0x2C23 CODESIZE SUB DUP1 PUSH3 0x2C23 DUP4 CODECOPY DUP2 ADD PUSH1 0x40 DUP2 SWAP1 MSTORE PUSH3 0x34 SWAP2 PUSH3 0x17F JUMP JUMPDEST CALLER DUP1 PUSH3 0x5B JUMPI PUSH1 0x40 MLOAD PUSH4 0x1E4FBDF7 PUSH1 0xE0 SHL DUP2 MSTORE PUSH1 0x0 PUSH1 0x4 DUP3 ADD MSTORE PUSH1 0x24 ADD PUSH1 0x40 MLOAD DUP1 SWAP2 SUB SWAP1 REVERT JUMPDEST PUSH3 0x66 DUP2 PUSH3 0x112 JUMP JUMPDEST POP PUSH1 0x1 PUSH32 0x9B779B17422D0DF92223018B32B4D1FA46E071723D6817E2486D003BECC55F00 SSTORE PUSH1 0x1 PUSH1 0x1 PUSH1 0xA0 SHL SUB DUP4 AND PUSH3 0xB3 JUMPI PUSH1 0x40 MLOAD PUSH4 0xD92E233D PUSH1 0xE0 SHL DUP2 MSTORE PUSH1 0x4 ADD PUSH1 0x40 MLOAD DUP1 SWAP2 SUB SWAP1 REVERT JUMPDEST PUSH1 0x1 PUSH1 0x1 PUSH1 0xA0 SHL SUB DUP3 AND PUSH3 0xDB JUMPI PUSH1 0x40 MLOAD PUSH4 0xD92E233D PUSH1 0xE0 SHL DUP2 MSTORE PUSH1 0x4 ADD PUSH1 0x40 MLOAD DUP1 SWAP2 SUB SWAP1 REVERT JUMPDEST PUSH1 0x1 PUSH1 0x1 PUSH1 0xA0 SHL SUB SWAP3 DUP4 AND PUSH1 0x80 MSTORE PUSH1 0x1 DUP1 SLOAD SWAP3 DUP5 AND PUSH1 0x1 PUSH1 0x1 PUSH1 0xA0 SHL SUB NOT SWAP4 DUP5 AND OR SWAP1 SSTORE PUSH1 0x2 DUP1 SLOAD SWAP2 SWAP1 SWAP4 AND SWAP2 AND OR SWAP1 SSTORE PUSH3 0x1C9 JUMP JUMPDEST PUSH1 0x0 DUP1 SLOAD PUSH1 0x1 PUSH1 0x1 PUSH1 0xA0 SHL SUB DUP4 DUP2 AND PUSH1 0x1 PUSH1 0x1 PUSH1 0xA0 SHL SUB NOT DUP4 AND DUP2 OR DUP5 SSTORE PUSH1 0x40 MLOAD SWAP2 SWAP1 SWAP3 AND SWAP3 DUP4 SWAP2 PUSH32 0x8BE0079C531659141344CD1FD0A4F28419497F9722A3DAAFE3B4186F6B6457E0 SWAP2 SWAP1 LOG3 POP POP JUMP JUMPDEST DUP1 MLOAD PUSH1 0x1 PUSH1 0x1 PUSH1 0xA0 SHL SUB DUP2 AND DUP2 EQ PUSH3 0x17A JUMPI PUSH1 0x0 DUP1 REVERT JUMPDEST SWAP2 SWAP1 POP JUMP JUMPDEST PUSH1 0x0 DUP1 PUSH1 0x0 PUSH1 0x60 DUP5 DUP7 SUB SLT ISZERO PUSH3 0x195 JUMPI PUSH1 0x0 DUP1 REVERT JUMPDEST PUSH3 0x1A0 DUP5 PUSH3 0x162 JUMP JUMPDEST SWAP3 POP PUSH3 0x1B0 PUSH1 0x20 DUP6 ADD PUSH3 0x162 JUMP JUMPDEST SWAP2 POP PUSH3 0x1C0 PUSH1 0x40 DUP6 ADD PUSH3 0x162 JUMP JUMPDEST SWAP1 POP SWAP3 POP SWAP3 POP SWAP3 JUMP JUMPDEST PUSH1 0x80 MLOAD PUSH2 0x2A22 PUSH3 0x201 PUSH1 0x0 CODECOPY PUSH1 0x0 DUP2 DUP2 PUSH2 0x279 ADD MSTORE DUP2 DUP2 PUSH2 0xEFA ADD MSTORE DUP2 DUP2 PUSH2 0xF57 ADD MSTORE DUP2 DUP2 PUSH2 0x1B50 ADD MSTORE PUSH2 0x1C6D ADD MSTORE PUSH2 0x2A22 PUSH1 0x0 RETURN INVALID PUSH1 0x80 PUSH1 0x40 MSTORE PUSH1 0x4 CALLDATASIZE LT PUSH2 0x21E JUMPI PUSH1 0x0 CALLDATALOAD PUSH1 0xE0 SHR DUP1 PUSH4 0x715018A6 GT PUSH2 0x123 JUMPI DUP1 PUSH4 0x8DA5CB5B GT PUSH2 0xAB JUMPI DUP1 PUSH4 0xB8A740E0 GT PUSH2 0x6F JUMPI DUP1 PUSH4 0xB8A740E0 EQ PUSH2 0x6F6 JUMPI DUP1 PUSH4 0xC106AEE3 EQ PUSH2 0x723 JUMPI DUP1 PUSH4 0xD6B7E9D9 EQ PUSH2 0x743 JUMPI DUP1 PUSH4 0xECDD4F9F EQ PUSH2 0x763 JUMPI DUP1 PUSH4 0xF2FDE38B EQ PUSH2 0x783 JUMPI PUSH1 0x0 DUP1 REVERT JUMPDEST DUP1 PUSH4 0x8DA5CB5B EQ PUSH2 0x61D JUMPI DUP1 PUSH4 0x9FD11627 EQ PUSH2 0x63B JUMPI DUP1 PUSH4 0xA4CE555D EQ PUSH2 0x65B JUMPI DUP1 PUSH4 0xA96DE4F5 EQ PUSH2 0x67B JUMPI DUP1 PUSH4 0xB5740C9C EQ PUSH2 0x6BB JUMPI PUSH1 0x0 DUP1 REVERT JUMPDEST DUP1 PUSH4 0x83D5D801 GT PUSH2 0xF2 JUMPI DUP1 PUSH4 0x83D5D801 EQ PUSH2 0x5A9 JUMPI DUP1 PUSH4 0x8456CB59 EQ PUSH2 0x5BF JUMPI DUP1 PUSH4 0x87C3AC08 EQ PUSH2 0x5D4 JUMPI DUP1 PUSH4 0x8A19C8BC EQ PUSH2 0x5E7 JUMPI DUP1 PUSH4 0x8D88F8D1 EQ PUSH2 0x5FD JUMPI PUSH1 0x0 DUP1 REVERT JUMPDEST DUP1 PUSH4 0x715018A6 EQ PUSH2 0x527 JUMPI DUP1 PUSH4 0x74C47393 EQ PUSH2 0x53C JUMPI DUP1 PUSH4 0x7A03CE4F EQ PUSH2 0x55C JUMPI DUP1 PUSH4 0x8249A69C EQ PUSH2 0x57C JUMPI PUSH1 0x0 DUP1 REVERT JUMPDEST DUP1 PUSH4 0x42610993 GT PUSH2 0x1A6 JUMPI DUP1 PUSH4 0x4CE04501 GT PUSH2 0x175 JUMPI DUP1 PUSH4 0x4CE04501 EQ PUSH2 0x411 JUMPI DUP1 PUSH4 0x5364276D EQ PUSH2 0x431 JUMPI DUP1 PUSH4 0x53B65D40 EQ PUSH2 0x451 JUMPI DUP1 PUSH4 0x5B7BAF64 EQ PUSH2 0x4DD JUMPI DUP1 PUSH4 0x5C975ABB EQ PUSH2 0x4FD JUMPI PUSH1 0x0 DUP1 REVERT JUMPDEST DUP1 PUSH4 0x42610993 EQ PUSH2 0x39B JUMPI DUP1 PUSH4 0x454AC84E EQ PUSH2 0x3AE JUMPI DUP1 PUSH4 0x45C952CB EQ PUSH2 0x3DB JUMPI DUP1 PUSH4 0x47F43EF2 EQ PUSH2 0x3F1 JUMPI PUSH1 0x0 DUP1 REVERT JUMPDEST DUP1 PUSH4 0x2768A49F GT PUSH2 0x1ED JUMPI DUP1 PUSH4 0x2768A49F EQ PUSH2 0x2EA JUMPI DUP1 PUSH4 0x27B23849 EQ PUSH2 0x318 JUMPI DUP1 PUSH4 0x338F0856 EQ PUSH2 0x338 JUMPI DUP1 PUSH4 0x3BC91E28 EQ PUSH2 0x366 JUMPI DUP1 PUSH4 0x3F4BA83A EQ PUSH2 0x386 JUMPI PUSH1 0x0 DUP1 REVERT JUMPDEST DUP1 PUSH4 0xBD4C399 EQ PUSH2 0x22A JUMPI DUP1 PUSH4 0xE31648F EQ PUSH2 0x267 JUMPI DUP1 PUSH4 0x1330CD86 EQ PUSH2 0x29B JUMPI DUP1 PUSH4 0x233507B9 EQ PUSH2 0x2BD JUMPI PUSH1 0x0 DUP1 REVERT JUMPDEST CALLDATASIZE PUSH2 0x225 JUMPI STOP JUMPDEST PUSH1 0x0 DUP1 REVERT JUMPDEST CALLVALUE DUP1 ISZERO PUSH2 0x236 JUMPI PUSH1 0x0 DUP1 REVERT JUMPDEST POP PUSH2 0x24A PUSH2 0x245 CALLDATASIZE PUSH1 0x4 PUSH2 0x2487 JUMP JUMPDEST PUSH2 0x7A3 JUMP JUMPDEST PUSH1 0x40 MLOAD PUSH1 0x1 PUSH1 0x1 PUSH1 0xA0 SHL SUB SWAP1 SWAP2 AND DUP2 MSTORE PUSH1 0x20 ADD JUMPDEST PUSH1 0x40 MLOAD DUP1 SWAP2 SUB SWAP1 RETURN JUMPDEST CALLVALUE DUP1 ISZERO PUSH2 0x273 JUMPI PUSH1 0x0 DUP1 REVERT JUMPDEST POP PUSH2 0x24A PUSH32 0x0 DUP2 JUMP JUMPDEST CALLVALUE DUP1 ISZERO PUSH2 0x2A7 JUMPI PUSH1 0x0 DUP1 REVERT JUMPDEST POP PUSH2 0x2BB PUSH2 0x2B6 CALLDATASIZE PUSH1 0x4 PUSH2 0x24BC JUMP JUMPDEST PUSH2 0x7E8 JUMP JUMPDEST STOP JUMPDEST CALLVALUE DUP1 ISZERO PUSH2 0x2C9 JUMPI PUSH1 0x0 DUP1 REVERT JUMPDEST POP PUSH2 0x2DD PUSH2 0x2D8 CALLDATASIZE PUSH1 0x4 PUSH2 0x2552 JUMP JUMPDEST PUSH2 0x94B JUMP JUMPDEST PUSH1 0x40 MLOAD PUSH2 0x25E SWAP2 SWAP1 PUSH2 0x2574 JUMP JUMPDEST CALLVALUE DUP1 ISZERO PUSH2 0x2F6 JUMPI PUSH1 0x0 DUP1 REVERT JUMPDEST POP PUSH2 0x30A PUSH2 0x305 CALLDATASIZE PUSH1 0x4 PUSH2 0x25B8 JUMP JUMPDEST PUSH2 0x9B7 JUMP JUMPDEST PUSH1 0x40 MLOAD SWAP1 DUP2 MSTORE PUSH1 0x20 ADD PUSH2 0x25E JUMP JUMPDEST CALLVALUE DUP1 ISZERO PUSH2 0x324 JUMPI PUSH1 0x0 DUP1 REVERT JUMPDEST POP PUSH2 0x2BB PUSH2 0x333 CALLDATASIZE PUSH1 0x4 PUSH2 0x2552 JUMP JUMPDEST PUSH2 0x9E8 JUMP JUMPDEST CALLVALUE DUP1 ISZERO PUSH2 0x344 JUMPI PUSH1 0x0 DUP1 REVERT JUMPDEST POP PUSH2 0x358 PUSH2 0x353 CALLDATASIZE PUSH1 0x4 PUSH2 0x25E2 JUMP JUMPDEST PUSH2 0xA61 JUMP JUMPDEST PUSH1 0x40 MLOAD PUSH2 0x25E SWAP3 SWAP2 SWAP1 PUSH2 0x25FD JUMP JUMPDEST CALLVALUE DUP1 ISZERO PUSH2 0x372 JUMPI PUSH1 0x0 DUP1 REVERT JUMPDEST POP PUSH2 0x2BB PUSH2 0x381 CALLDATASIZE PUSH1 0x4 PUSH2 0x2655 JUMP JUMPDEST PUSH2 0xBF5 JUMP JUMPDEST CALLVALUE DUP1 ISZERO PUSH2 0x392 JUMPI PUSH1 0x0 DUP1 REVERT JUMPDEST POP PUSH2 0x2BB PUSH2 0xC5B JUMP JUMPDEST PUSH2 0x2BB PUSH2 0x3A9 CALLDATASIZE PUSH1 0x4 PUSH2 0x266E JUMP JUMPDEST PUSH2 0xC9A JUMP JUMPDEST CALLVALUE DUP1 ISZERO PUSH2 0x3BA JUMPI PUSH1 0x0 DUP1 REVERT JUMPDEST POP PUSH2 0x3CE PUSH2 0x3C9 CALLDATASIZE PUSH1 0x4 PUSH2 0x2655 JUMP JUMPDEST PUSH2 0x125F JUMP JUMPDEST PUSH1 0x40 MLOAD PUSH2 0x25E SWAP2 SWAP1 PUSH2 0x26B2 JUMP JUMPDEST CALLVALUE DUP1 ISZERO PUSH2 0x3E7 JUMPI PUSH1 0x0 DUP1 REVERT JUMPDEST POP PUSH2 0x30A PUSH1 0x3 SLOAD DUP2 JUMP JUMPDEST CALLVALUE DUP1 ISZERO PUSH2 0x3FD JUMPI PUSH1 0x0 DUP1 REVERT JUMPDEST POP PUSH2 0x2BB PUSH2 0x40C CALLDATASIZE PUSH1 0x4 PUSH2 0x25B8 JUMP JUMPDEST PUSH2 0x12CA JUMP JUMPDEST CALLVALUE DUP1 ISZERO PUSH2 0x41D JUMPI PUSH1 0x0 DUP1 REVERT JUMPDEST POP PUSH1 0x1 SLOAD PUSH2 0x24A SWAP1 PUSH1 0x1 PUSH1 0x1 PUSH1 0xA0 SHL SUB AND DUP2 JUMP JUMPDEST CALLVALUE DUP1 ISZERO PUSH2 0x43D JUMPI PUSH1 0x0 DUP1 REVERT JUMPDEST POP PUSH1 0x2 SLOAD PUSH2 0x24A SWAP1 PUSH1 0x1 PUSH1 0x1 PUSH1 0xA0 SHL SUB AND DUP2 JUMP JUMPDEST CALLVALUE DUP1 ISZERO PUSH2 0x45D JUMPI PUSH1 0x0 DUP1 REVERT JUMPDEST POP PUSH2 0x4CA PUSH2 0x46C CALLDATASIZE PUSH1 0x4 PUSH2 0x25B8 JUMP JUMPDEST PUSH1 0x7 PUSH1 0x20 SWAP1 DUP2 MSTORE PUSH1 0x0 SWAP3 DUP4 MSTORE PUSH1 0x40 DUP1 DUP5 KECCAK256 SWAP1 SWAP2 MSTORE SWAP1 DUP3 MSTORE SWAP1 KECCAK256 DUP1 SLOAD PUSH1 0x1 DUP3 ADD SLOAD PUSH1 0x2 DUP4 ADD SLOAD PUSH1 0x3 DUP5 ADD SLOAD PUSH1 0x4 SWAP1 SWAP5 ADD SLOAD PUSH1 0xD0 SWAP4 SWAP1 SWAP4 SHL SWAP4 SWAP2 SWAP3 SWAP1 SWAP2 SWAP1 PUSH1 0x1 PUSH1 0x1 PUSH1 0xA0 SHL SUB DUP2 AND SWAP1 PUSH1 0xFF PUSH1 0x1 PUSH1 0xA0 SHL DUP3 DIV DUP2 AND SWAP2 PUSH1 0x1 PUSH1 0xA8 SHL SWAP1 DIV AND DUP8 JUMP JUMPDEST PUSH1 0x40 MLOAD PUSH2 0x25E SWAP8 SWAP7 SWAP6 SWAP5 SWAP4 SWAP3 SWAP2 SWAP1 PUSH2 0x272B JUMP JUMPDEST CALLVALUE DUP1 ISZERO PUSH2 0x4E9 JUMPI PUSH1 0x0 DUP1 REVERT JUMPDEST POP PUSH2 0x2BB PUSH2 0x4F8 CALLDATASIZE PUSH1 0x4 PUSH2 0x2655 JUMP JUMPDEST PUSH2 0x13B7 JUMP JUMPDEST CALLVALUE DUP1 ISZERO PUSH2 0x509 JUMPI PUSH1 0x0 DUP1 REVERT JUMPDEST POP PUSH1 0x6 SLOAD PUSH2 0x517 SWAP1 PUSH1 0xFF AND DUP2 JUMP JUMPDEST PUSH1 0x40 MLOAD SWAP1 ISZERO ISZERO DUP2 MSTORE PUSH1 0x20 ADD PUSH2 0x25E JUMP JUMPDEST CALLVALUE DUP1 ISZERO PUSH2 0x533 JUMPI PUSH1 0x0 DUP1 REVERT JUMPDEST POP PUSH2 0x2BB PUSH2 0x1610 JUMP JUMPDEST CALLVALUE DUP1 ISZERO PUSH2 0x548 JUMPI PUSH1 0x0 DUP1 REVERT JUMPDEST POP PUSH2 0x2BB PUSH2 0x557 CALLDATASIZE PUSH1 0x4 PUSH2 0x2552 JUMP JUMPDEST PUSH2 0x1624 JUMP JUMPDEST CALLVALUE DUP1 ISZERO PUSH2 0x568 JUMPI PUSH1 0x0 DUP1 REVERT JUMPDEST POP PUSH2 0x2BB PUSH2 0x577 CALLDATASIZE PUSH1 0x4 PUSH2 0x25B8 JUMP JUMPDEST PUSH2 0x169D JUMP JUMPDEST CALLVALUE DUP1 ISZERO PUSH2 0x588 JUMPI PUSH1 0x0 DUP1 REVERT JUMPDEST POP PUSH2 0x59C PUSH2 0x597 CALLDATASIZE PUSH1 0x4 PUSH2 0x2552 JUMP JUMPDEST PUSH2 0x17A7 JUMP JUMPDEST PUSH1 0x40 MLOAD PUSH2 0x25E SWAP2 SWAP1 PUSH2 0x27E0 JUMP JUMPDEST CALLVALUE DUP1 ISZERO PUSH2 0x5B5 JUMPI PUSH1 0x0 DUP1 REVERT JUMPDEST POP PUSH2 0x30A PUSH1 0x4 SLOAD DUP2 JUMP JUMPDEST CALLVALUE DUP1 ISZERO PUSH2 0x5CB JUMPI PUSH1 0x0 DUP1 REVERT JUMPDEST POP PUSH2 0x2BB PUSH2 0x19BE JUMP JUMPDEST PUSH2 0x2BB PUSH2 0x5E2 CALLDATASIZE PUSH1 0x4 PUSH2 0x2822 JUMP JUMPDEST PUSH2 0x1A00 JUMP JUMPDEST CALLVALUE DUP1 ISZERO PUSH2 0x5F3 JUMPI PUSH1 0x0 DUP1 REVERT JUMPDEST POP PUSH2 0x30A PUSH1 0x5 SLOAD DUP2 JUMP JUMPDEST CALLVALUE DUP1 ISZERO PUSH2 0x609 JUMPI PUSH1 0x0 DUP1 REVERT JUMPDEST POP PUSH2 0x2BB PUSH2 0x618 CALLDATASIZE PUSH1 0x4 PUSH2 0x283E JUMP JUMPDEST PUSH2 0x1D3D JUMP JUMPDEST CALLVALUE DUP1 ISZERO PUSH2 0x629 JUMPI PUSH1 0x0 DUP1 REVERT JUMPDEST POP PUSH1 0x0 SLOAD PUSH1 0x1 PUSH1 0x1 PUSH1 0xA0 SHL SUB AND PUSH2 0x24A JUMP JUMPDEST CALLVALUE DUP1 ISZERO PUSH2 0x647 JUMPI PUSH1 0x0 DUP1 REVERT JUMPDEST POP PUSH2 0x3CE PUSH2 0x656 CALLDATASIZE PUSH1 0x4 PUSH2 0x2860 JUMP JUMPDEST PUSH2 0x1DB5 JUMP JUMPDEST CALLVALUE DUP1 ISZERO PUSH2 0x667 JUMPI PUSH1 0x0 DUP1 REVERT JUMPDEST POP PUSH2 0x30A PUSH2 0x676 CALLDATASIZE PUSH1 0x4 PUSH2 0x25E2 JUMP JUMPDEST PUSH2 0x1E35 JUMP JUMPDEST CALLVALUE DUP1 ISZERO PUSH2 0x687 JUMPI PUSH1 0x0 DUP1 REVERT JUMPDEST POP PUSH2 0x69B PUSH2 0x696 CALLDATASIZE PUSH1 0x4 PUSH2 0x25B8 JUMP JUMPDEST PUSH2 0x1E7A JUMP JUMPDEST PUSH1 0x40 DUP1 MLOAD SWAP3 ISZERO ISZERO DUP4 MSTORE PUSH1 0x1 PUSH1 0x1 PUSH1 0xD0 SHL SUB NOT SWAP1 SWAP2 AND PUSH1 0x20 DUP4 ADD MSTORE ADD PUSH2 0x25E JUMP JUMPDEST CALLVALUE DUP1 ISZERO PUSH2 0x6C7 JUMPI PUSH1 0x0 DUP1 REVERT JUMPDEST POP PUSH2 0x517 PUSH2 0x6D6 CALLDATASIZE PUSH1 0x4 PUSH2 0x288C JUMP JUMPDEST PUSH1 0xB PUSH1 0x20 SWAP1 DUP2 MSTORE PUSH1 0x0 SWAP3 DUP4 MSTORE PUSH1 0x40 DUP1 DUP5 KECCAK256 SWAP1 SWAP2 MSTORE SWAP1 DUP3 MSTORE SWAP1 KECCAK256 SLOAD PUSH1 0xFF AND DUP2 JUMP JUMPDEST CALLVALUE DUP1 ISZERO PUSH2 0x702 JUMPI PUSH1 0x0 DUP1 REVERT JUMPDEST POP PUSH2 0x716 PUSH2 0x711 CALLDATASIZE PUSH1 0x4 PUSH2 0x25B8 JUMP JUMPDEST PUSH2 0x1ED2 JUMP JUMPDEST PUSH1 0x40 MLOAD PUSH2 0x25E SWAP2 SWAP1 PUSH2 0x28AF JUMP JUMPDEST CALLVALUE DUP1 ISZERO PUSH2 0x72F JUMPI PUSH1 0x0 DUP1 REVERT JUMPDEST POP PUSH2 0x69B PUSH2 0x73E CALLDATASIZE PUSH1 0x4 PUSH2 0x25B8 JUMP JUMPDEST PUSH2 0x1FCE JUMP JUMPDEST CALLVALUE DUP1 ISZERO PUSH2 0x74F JUMPI PUSH1 0x0 DUP1 REVERT JUMPDEST POP PUSH2 0x30A PUSH2 0x75E CALLDATASIZE PUSH1 0x4 PUSH2 0x2655 JUMP JUMPDEST PUSH2 0x208F JUMP JUMPDEST CALLVALUE DUP1 ISZERO PUSH2 0x76F JUMPI PUSH1 0x0 DUP1 REVERT JUMPDEST POP PUSH2 0x24A PUSH2 0x77E CALLDATASIZE PUSH1 0x4 PUSH2 0x283E JUMP JUMPDEST PUSH2 0x209F JUMP JUMPDEST CALLVALUE DUP1 ISZERO PUSH2 0x78F JUMPI PUSH1 0x0 DUP1 REVERT JUMPDEST POP PUSH2 0x2BB PUSH2 0x79E CALLDATASIZE PUSH1 0x4 PUSH2 0x2552 JUMP JUMPDEST PUSH2 0x20D7 JUMP JUMPDEST PUSH1 0x8 PUSH1 0x20 MSTORE DUP3 PUSH1 0x0 MSTORE PUSH1 0x40 PUSH1 0x0 KECCAK256 PUSH1 0x20 MSTORE DUP2 PUSH1 0x0 MSTORE PUSH1 0x40 PUSH1 0x0 KECCAK256 DUP2 DUP2 SLOAD DUP2 LT PUSH2 0x7CB JUMPI PUSH1 0x0 DUP1 REVERT JUMPDEST PUSH1 0x0 SWAP2 DUP3 MSTORE PUSH1 0x20 SWAP1 SWAP2 KECCAK256 ADD SLOAD PUSH1 0x1 PUSH1 0x1 PUSH1 0xA0 SHL SUB AND SWAP3 POP DUP4 SWAP2 POP POP JUMP JUMPDEST PUSH1 0x2 SLOAD PUSH1 0x1 PUSH1 0x1 PUSH1 0xA0 SHL SUB AND CALLER EQ PUSH2 0x813 JUMPI PUSH1 0x40 MLOAD PUSH4 0x3E94DCE9 PUSH1 0xE0 SHL DUP2 MSTORE PUSH1 0x4 ADD PUSH1 0x40 MLOAD DUP1 SWAP2 SUB SWAP1 REVERT JUMPDEST PUSH1 0x0 JUMPDEST DUP2 DUP2 LT ISZERO PUSH2 0x945 JUMPI PUSH1 0x0 PUSH1 0x7 PUSH1 0x0 DUP6 DUP6 DUP6 DUP2 DUP2 LT PUSH2 0x836 JUMPI PUSH2 0x836 PUSH2 0x28BD JUMP JUMPDEST SWAP1 POP PUSH1 0x20 MUL ADD PUSH1 0x20 DUP2 ADD SWAP1 PUSH2 0x84B SWAP2 SWAP1 PUSH2 0x2552 JUMP JUMPDEST PUSH1 0x1 PUSH1 0x1 PUSH1 0xA0 SHL SUB AND DUP2 MSTORE PUSH1 0x20 DUP1 DUP3 ADD SWAP3 SWAP1 SWAP3 MSTORE PUSH1 0x40 SWAP1 DUP2 ADD PUSH1 0x0 SWAP1 DUP2 KECCAK256 DUP9 DUP3 MSTORE SWAP1 SWAP3 MSTORE SWAP1 KECCAK256 PUSH1 0x4 DUP2 ADD SLOAD SWAP1 SWAP2 POP PUSH1 0x1 PUSH1 0xA8 SHL SWAP1 DIV PUSH1 0xFF AND DUP1 ISZERO PUSH2 0x8AE JUMPI POP PUSH1 0x0 PUSH1 0x4 DUP3 DUP2 ADD SLOAD PUSH1 0x1 PUSH1 0xA0 SHL SWAP1 DIV PUSH1 0xFF AND SWAP1 DUP2 GT ISZERO PUSH2 0x8AC JUMPI PUSH2 0x8AC PUSH2 0x26F3 JUMP JUMPDEST EQ JUMPDEST ISZERO PUSH2 0x932 JUMPI PUSH1 0x4 DUP2 ADD DUP1 SLOAD PUSH1 0xFF PUSH1 0xA0 SHL NOT AND PUSH1 0x1 PUSH1 0xA0 SHL OR SWAP1 SSTORE DUP5 DUP5 DUP5 DUP5 DUP2 DUP2 LT PUSH2 0x8DB JUMPI PUSH2 0x8DB PUSH2 0x28BD JUMP JUMPDEST SWAP1 POP PUSH1 0x20 MUL ADD PUSH1 0x20 DUP2 ADD SWAP1 PUSH2 0x8F0 SWAP2 SWAP1 PUSH2 0x2552 JUMP JUMPDEST PUSH1 0x1 PUSH1 0x1 PUSH1 0xA0 SHL SUB AND PUSH32 0x1415547AC25CCCDDFD82D3B4BCAD6C1A8383110D39E6799A32B6CC5F2987E914 PUSH1 0x1 PUSH1 0x40 MLOAD PUSH2 0x929 SWAP2 SWAP1 PUSH2 0x28D3 JUMP JUMPDEST PUSH1 0x40 MLOAD DUP1 SWAP2 SUB SWAP1 LOG3 JUMPDEST POP DUP1 PUSH2 0x93D DUP2 PUSH2 0x28F7 JUMP JUMPDEST SWAP2 POP POP PUSH2 0x816 JUMP JUMPDEST POP POP POP POP JUMP JUMPDEST PUSH1 0x1 PUSH1 0x1 PUSH1 0xA0 SHL SUB DUP2 AND PUSH1 0x0 SWAP1 DUP2 MSTORE PUSH1 0x9 PUSH1 0x20 SWAP1 DUP2 MSTORE PUSH1 0x40 SWAP2 DUP3 SWAP1 KECCAK256 DUP1 SLOAD DUP4 MLOAD DUP2 DUP5 MUL DUP2 ADD DUP5 ADD SWAP1 SWAP5 MSTORE DUP1 DUP5 MSTORE PUSH1 0x60 SWAP4 SWAP3 DUP4 ADD DUP3 DUP3 DUP1 ISZERO PUSH2 0x9AB JUMPI PUSH1 0x20 MUL DUP3 ADD SWAP2 SWAP1 PUSH1 0x0 MSTORE PUSH1 0x20 PUSH1 0x0 KECCAK256 SWAP1 JUMPDEST DUP2 SLOAD DUP2 MSTORE PUSH1 0x20 ADD SWAP1 PUSH1 0x1 ADD SWAP1 DUP1 DUP4 GT PUSH2 0x997 JUMPI JUMPDEST POP POP POP POP POP SWAP1 POP SWAP2 SWAP1 POP JUMP JUMPDEST PUSH1 0x9 PUSH1 0x20 MSTORE DUP2 PUSH1 0x0 MSTORE PUSH1 0x40 PUSH1 0x0 KECCAK256 DUP2 DUP2 SLOAD DUP2 LT PUSH2 0x9D3 JUMPI PUSH1 0x0 DUP1 REVERT JUMPDEST SWAP1 PUSH1 0x0 MSTORE PUSH1 0x20 PUSH1 0x0 KECCAK256 ADD PUSH1 0x0 SWAP2 POP SWAP2 POP POP SLOAD DUP2 JUMP JUMPDEST PUSH2 0x9F0 PUSH2 0x2112 JUMP JUMPDEST PUSH1 0x1 PUSH1 0x1 PUSH1 0xA0 SHL SUB DUP2 AND PUSH2 0xA17 JUMPI PUSH1 0x40 MLOAD PUSH4 0xD92E233D PUSH1 0xE0 SHL DUP2 MSTORE PUSH1 0x4 ADD PUSH1 0x40 MLOAD DUP1 SWAP2 SUB SWAP1 REVERT JUMPDEST PUSH1 0x2 DUP1 SLOAD PUSH1 0x1 PUSH1 0x1 PUSH1 0xA0 SHL SUB NOT AND PUSH1 0x1 PUSH1 0x1 PUSH1 0xA0 SHL SUB DUP4 AND SWAP1 DUP2 OR SWAP1 SWAP2 SSTORE PUSH1 0x40 MLOAD PUSH32 0x89386B8711BAD3EC737A1746DBCC52DE03DE68ADD300345F9ACB944C28AE03F3 SWAP1 PUSH1 0x0 SWAP1 LOG2 POP JUMP JUMPDEST PUSH1 0x0 PUSH1 0x60 PUSH1 0x0 DUP1 JUMPDEST PUSH1 0x6 DUP2 LT ISZERO PUSH2 0xBD8 JUMPI PUSH1 0x0 DUP6 DUP3 PUSH1 0x6 DUP2 LT PUSH2 0xA86 JUMPI PUSH2 0xA86 PUSH2 0x28BD JUMP JUMPDEST BYTE PUSH1 0xF8 SHL SWAP1 POP PUSH1 0x0 PUSH1 0x41 PUSH1 0xF8 SHL PUSH1 0x1 PUSH1 0x1 PUSH1 0xF8 SHL SUB NOT DUP4 AND LT DUP1 ISZERO SWAP1 PUSH2 0xABA JUMPI POP PUSH1 0x2D PUSH1 0xF9 SHL PUSH1 0x1 PUSH1 0x1 PUSH1 0xF8 SHL SUB NOT DUP4 AND GT ISZERO JUMPDEST SWAP1 POP PUSH1 0x0 PUSH1 0x3 PUSH1 0xFC SHL PUSH1 0x1 PUSH1 0x1 PUSH1 0xF8 SHL SUB NOT DUP5 AND LT DUP1 ISZERO SWAP1 PUSH2 0xAEA JUMPI POP PUSH1 0x39 PUSH1 0xF8 SHL PUSH1 0x1 PUSH1 0x1 PUSH1 0xF8 SHL SUB NOT DUP5 AND GT ISZERO JUMPDEST SWAP1 POP DUP2 ISZERO DUP1 ISZERO PUSH2 0xAF8 JUMPI POP DUP1 ISZERO JUMPDEST ISZERO PUSH2 0xB26 JUMPI PUSH1 0x0 PUSH1 0x40 MLOAD DUP1 PUSH1 0x60 ADD PUSH1 0x40 MSTORE DUP1 PUSH1 0x25 DUP2 MSTORE PUSH1 0x20 ADD PUSH2 0x29A8 PUSH1 0x25 SWAP2 CODECOPY SWAP7 POP SWAP7 POP POP POP POP POP POP SWAP2 POP SWAP2 JUMP JUMPDEST PUSH1 0x0 DUP3 PUSH2 0xB4C JUMPI PUSH2 0xB3C PUSH1 0x30 PUSH1 0xF8 DUP7 SWAP1 SHR PUSH2 0x2910 JUMP JUMPDEST PUSH2 0xB47 SWAP1 PUSH1 0x1A PUSH2 0x2923 JUMP JUMPDEST PUSH2 0xB5B JUMP JUMPDEST PUSH2 0xB5B PUSH1 0x41 PUSH1 0xF8 DUP7 SWAP1 SHR PUSH2 0x2910 JUMP JUMPDEST SWAP1 POP PUSH1 0x1 DUP2 SHL PUSH8 0xFFFFFFFFFFFFFFFF DUP8 DUP3 AND AND ISZERO PUSH2 0xBBB JUMPI PUSH1 0x0 PUSH1 0x40 MLOAD DUP1 PUSH1 0x40 ADD PUSH1 0x40 MSTORE DUP1 PUSH1 0x1F DUP2 MSTORE PUSH1 0x20 ADD PUSH32 0x526570656174696E6720636861726163746572206E6F7420616C6C6F77656400 DUP2 MSTORE POP SWAP9 POP SWAP9 POP POP POP POP POP POP POP POP SWAP2 POP SWAP2 JUMP JUMPDEST DUP1 DUP8 OR SWAP7 POP POP POP POP POP POP DUP1 DUP1 PUSH2 0xBD0 SWAP1 PUSH2 0x28F7 JUMP JUMPDEST SWAP2 POP POP PUSH2 0xA69 JUMP JUMPDEST POP PUSH1 0x1 PUSH1 0x40 MLOAD DUP1 PUSH1 0x20 ADD PUSH1 0x40 MSTORE DUP1 PUSH1 0x0 DUP2 MSTORE POP SWAP3 POP SWAP3 POP POP SWAP2 POP SWAP2 JUMP JUMPDEST PUSH1 0x2 SLOAD PUSH1 0x1 PUSH1 0x1 PUSH1 0xA0 SHL SUB AND CALLER EQ PUSH2 0xC20 JUMPI PUSH1 0x40 MLOAD PUSH4 0x3E94DCE9 PUSH1 0xE0 SHL DUP2 MSTORE PUSH1 0x4 ADD PUSH1 0x40 MLOAD DUP1 SWAP2 SUB SWAP1 REVERT JUMPDEST PUSH1 0x5 DUP2 SWAP1 SSTORE PUSH1 0x40 MLOAD DUP2 DUP2 MSTORE PUSH32 0x4DB6A5933824DE781CBD9E4632FB41F1D4100B9E8E62949ED7361F323AC1DD5 SWAP1 PUSH1 0x20 ADD PUSH1 0x40 MLOAD DUP1 SWAP2 SUB SWAP1 LOG1 POP JUMP JUMPDEST PUSH2 0xC63 PUSH2 0x2112 JUMP JUMPDEST PUSH1 0x6 DUP1 SLOAD PUSH1 0xFF NOT AND SWAP1 SSTORE PUSH1 0x40 MLOAD CALLER SWAP1 PUSH32 0x5DB9EE0A495BF2E6FF9C91A7834C1BA4FDD244A5E8AA4E537BD38AEAE4B073AA SWAP1 PUSH1 0x0 SWAP1 LOG2 JUMP JUMPDEST PUSH2 0xCA2 PUSH2 0x213F JUMP JUMPDEST PUSH1 0x6 SLOAD PUSH1 0xFF AND ISZERO PUSH2 0xCC6 JUMPI PUSH1 0x40 MLOAD PUSH4 0xAB35696F PUSH1 0xE0 SHL DUP2 MSTORE PUSH1 0x4 ADD PUSH1 0x40 MLOAD DUP1 SWAP2 SUB SWAP1 REVERT JUMPDEST PUSH1 0x0 PUSH1 0x5 SLOAD PUSH1 0x1 PUSH2 0xCD7 SWAP2 SWAP1 PUSH2 0x2923 JUMP JUMPDEST CALLER PUSH1 0x0 SWAP1 DUP2 MSTORE PUSH1 0x7 PUSH1 0x20 SWAP1 DUP2 MSTORE PUSH1 0x40 DUP1 DUP4 KECCAK256 DUP5 DUP5 MSTORE SWAP1 SWAP2 MSTORE SWAP1 KECCAK256 PUSH1 0x4 ADD SLOAD SWAP1 SWAP2 POP PUSH1 0x1 PUSH1 0xA8 SHL SWAP1 DIV PUSH1 0xFF AND ISZERO PUSH2 0xDAE JUMPI PUSH1 0x1 CALLER PUSH1 0x0 SWAP1 DUP2 MSTORE PUSH1 0x7 PUSH1 0x20 SWAP1 DUP2 MSTORE PUSH1 0x40 DUP1 DUP4 KECCAK256 DUP6 DUP5 MSTORE SWAP1 SWAP2 MSTORE SWAP1 KECCAK256 PUSH1 0x4 SWAP1 DUP2 ADD SLOAD PUSH1 0x1 PUSH1 0xA0 SHL SWAP1 DIV PUSH1 0xFF AND SWAP1 DUP2 GT ISZERO PUSH2 0xD43 JUMPI PUSH2 0xD43 PUSH2 0x26F3 JUMP JUMPDEST EQ DUP1 PUSH2 0xD88 JUMPI POP PUSH1 0x0 CALLER PUSH1 0x0 SWAP1 DUP2 MSTORE PUSH1 0x7 PUSH1 0x20 SWAP1 DUP2 MSTORE PUSH1 0x40 DUP1 DUP4 KECCAK256 DUP6 DUP5 MSTORE SWAP1 SWAP2 MSTORE SWAP1 KECCAK256 PUSH1 0x4 SWAP1 DUP2 ADD SLOAD PUSH1 0x1 PUSH1 0xA0 SHL SWAP1 DIV PUSH1 0xFF AND SWAP1 DUP2 GT ISZERO PUSH2 0xD86 JUMPI PUSH2 0xD86 PUSH2 0x26F3 JUMP JUMPDEST EQ JUMPDEST ISZERO PUSH2 0xDAE JUMPI PUSH1 0x40 MLOAD PUSH4 0x9D50E103 PUSH1 0xE0 SHL DUP2 MSTORE PUSH1 0x4 DUP2 ADD DUP3 SWAP1 MSTORE PUSH1 0x24 ADD JUMPDEST PUSH1 0x40 MLOAD DUP1 SWAP2 SUB SWAP1 REVERT JUMPDEST PUSH2 0xDB7 DUP5 PUSH2 0x215B JUMP JUMPDEST PUSH1 0x0 DUP1 DUP5 ISZERO PUSH2 0xE83 JUMPI CALLVALUE ISZERO DUP1 PUSH2 0xDCE JUMPI POP PUSH1 0x4 SLOAD CALLVALUE LT JUMPDEST ISZERO PUSH2 0xDF9 JUMPI PUSH1 0x4 DUP1 SLOAD PUSH1 0x40 MLOAD PUSH4 0xEE6446F PUSH1 0xE0 SHL DUP2 MSTORE CALLVALUE SWAP3 DUP2 ADD SWAP3 SWAP1 SWAP3 MSTORE PUSH1 0x24 DUP3 ADD MSTORE PUSH1 0x44 ADD PUSH2 0xDA5 JUMP JUMPDEST POP POP PUSH1 0x4 SLOAD PUSH1 0x0 CALLVALUE DUP3 LT ISZERO PUSH2 0xE7E JUMPI PUSH1 0x4 SLOAD PUSH1 0x0 SWAP1 CALLER SWAP1 PUSH2 0xE1A SWAP1 CALLVALUE PUSH2 0x2910 JUMP JUMPDEST PUSH1 0x40 MLOAD PUSH1 0x0 DUP2 DUP2 DUP2 DUP6 DUP8 GAS CALL SWAP3 POP POP POP RETURNDATASIZE DUP1 PUSH1 0x0 DUP2 EQ PUSH2 0xE56 JUMPI PUSH1 0x40 MLOAD SWAP2 POP PUSH1 0x1F NOT PUSH1 0x3F RETURNDATASIZE ADD AND DUP3 ADD PUSH1 0x40 MSTORE RETURNDATASIZE DUP3 MSTORE RETURNDATASIZE PUSH1 0x0 PUSH1 0x20 DUP5 ADD RETURNDATACOPY PUSH2 0xE5B JUMP JUMPDEST PUSH1 0x60 SWAP2 POP JUMPDEST POP POP SWAP1 POP DUP1 PUSH2 0xE7C JUMPI PUSH1 0x40 MLOAD PUSH3 0x461BCD PUSH1 0xE5 SHL DUP2 MSTORE PUSH1 0x4 ADD PUSH2 0xDA5 SWAP1 PUSH2 0x2936 JUMP JUMPDEST POP JUMPDEST PUSH2 0xF2E JUMP JUMPDEST CALLVALUE ISZERO PUSH2 0xEF3 JUMPI PUSH1 0x40 MLOAD PUSH1 0x0 SWAP1 CALLER SWAP1 CALLVALUE SWAP1 DUP4 DUP2 DUP2 DUP2 DUP6 DUP8 GAS CALL SWAP3 POP POP POP RETURNDATASIZE DUP1 PUSH1 0x0 DUP2 EQ PUSH2 0xECB JUMPI PUSH1 0x40 MLOAD SWAP2 POP PUSH1 0x1F NOT PUSH1 0x3F RETURNDATASIZE ADD AND DUP3 ADD PUSH1 0x40 MSTORE RETURNDATASIZE DUP3 MSTORE RETURNDATASIZE PUSH1 0x0 PUSH1 0x20 DUP5 ADD RETURNDATACOPY PUSH2 0xED0 JUMP JUMPDEST PUSH1 0x60 SWAP2 POP JUMPDEST POP POP SWAP1 POP DUP1 PUSH2 0xEF1 JUMPI PUSH1 0x40 MLOAD PUSH3 0x461BCD PUSH1 0xE5 SHL DUP2 MSTORE PUSH1 0x4 ADD PUSH2 0xDA5 SWAP1 PUSH2 0x2936 JUMP JUMPDEST POP JUMPDEST POP POP PUSH1 0x3 SLOAD PUSH32 0x0 PUSH2 0xF2E PUSH1 0x1 PUSH1 0x1 PUSH1 0xA0 SHL SUB DUP3 AND CALLER ADDRESS DUP6 PUSH2 0x22A7 JUMP JUMPDEST PUSH1 0x0 PUSH1 0x3 SLOAD DUP6 PUSH2 0xF3E SWAP2 SWAP1 PUSH2 0x2961 JUMP JUMPDEST SWAP1 POP DUP1 ISZERO PUSH2 0xFB8 JUMPI PUSH1 0x1 SLOAD PUSH2 0xF82 SWAP1 PUSH1 0x1 PUSH1 0x1 PUSH1 0xA0 SHL SUB PUSH32 0x0 DUP2 AND SWAP2 CALLER SWAP2 AND DUP5 PUSH2 0x22A7 JUMP JUMPDEST PUSH1 0x40 MLOAD DUP2 DUP2 MSTORE CALLER SWAP1 PUSH32 0x41A209EE6A3EB8344A3F83B585BB4D93349BFBBD34DCE09EA38D8023516F2DA0 SWAP1 PUSH1 0x20 ADD PUSH1 0x40 MLOAD DUP1 SWAP2 SUB SWAP1 LOG2 JUMPDEST PUSH1 0x0 PUSH2 0xFC4 DUP7 DUP7 PUSH2 0x2923 JUMP JUMPDEST PUSH1 0x40 DUP1 MLOAD PUSH1 0xE0 DUP2 ADD DUP3 MSTORE PUSH1 0x1 PUSH1 0x1 PUSH1 0xD0 SHL SUB NOT DUP12 AND DUP2 MSTORE PUSH1 0x5 SLOAD PUSH1 0x20 DUP3 ADD MSTORE SWAP1 DUP2 ADD DUP3 SWAP1 MSTORE PUSH1 0x60 DUP2 ADD DUP7 SWAP1 MSTORE PUSH1 0x1 PUSH1 0x1 PUSH1 0xA0 SHL SUB DUP6 AND PUSH1 0x80 DUP3 ADD MSTORE SWAP1 SWAP2 POP PUSH1 0xA0 DUP2 ADD PUSH1 0x0 DUP2 MSTORE PUSH1 0x1 PUSH1 0x20 SWAP2 DUP3 ADD DUP2 SWAP1 MSTORE CALLER PUSH1 0x0 SWAP1 DUP2 MSTORE PUSH1 0x7 DUP4 MSTORE PUSH1 0x40 DUP1 DUP3 KECCAK256 DUP11 DUP4 MSTORE DUP5 MSTORE SWAP1 DUP2 SWAP1 KECCAK256 DUP5 MLOAD DUP2 SLOAD PUSH1 0xD0 SWAP2 SWAP1 SWAP2 SHR PUSH6 0xFFFFFFFFFFFF NOT SWAP1 SWAP2 AND OR DUP2 SSTORE SWAP3 DUP5 ADD MLOAD SWAP2 DUP4 ADD SWAP2 SWAP1 SWAP2 SSTORE DUP3 ADD MLOAD PUSH1 0x2 DUP3 ADD SSTORE PUSH1 0x60 DUP3 ADD MLOAD PUSH1 0x3 DUP3 ADD SSTORE PUSH1 0x80 DUP3 ADD MLOAD PUSH1 0x4 DUP1 DUP4 ADD DUP1 SLOAD PUSH1 0x1 PUSH1 0x1 PUSH1 0xA0 SHL SUB SWAP4 SWAP1 SWAP4 AND PUSH1 0x1 PUSH1 0x1 PUSH1 0xA0 SHL SUB NOT DUP5 AND DUP2 OR DUP3 SSTORE PUSH1 0xA0 DUP7 ADD MLOAD SWAP4 SWAP2 SWAP3 PUSH1 0x1 PUSH1 0x1 PUSH1 0xA8 SHL SUB NOT SWAP1 SWAP3 AND OR SWAP1 PUSH1 0x1 PUSH1 0xA0 SHL SWAP1 DUP5 SWAP1 DUP2 GT ISZERO PUSH2 0x10B5 JUMPI PUSH2 0x10B5 PUSH2 0x26F3 JUMP JUMPDEST MUL OR SWAP1 SSTORE POP PUSH1 0xC0 SWAP2 SWAP1 SWAP2 ADD MLOAD PUSH1 0x4 SWAP1 SWAP2 ADD DUP1 SLOAD SWAP2 ISZERO ISZERO PUSH1 0x1 PUSH1 0xA8 SHL MUL PUSH1 0xFF PUSH1 0xA8 SHL NOT SWAP1 SWAP3 AND SWAP2 SWAP1 SWAP2 OR SWAP1 SSTORE PUSH1 0x0 DUP6 DUP2 MSTORE PUSH1 0xB PUSH1 0x20 SWAP1 DUP2 MSTORE PUSH1 0x40 DUP1 DUP4 KECCAK256 CALLER DUP5 MSTORE SWAP1 SWAP2 MSTORE SWAP1 KECCAK256 SLOAD PUSH1 0xFF AND PUSH2 0x11A0 JUMPI PUSH1 0x0 DUP6 DUP2 MSTORE PUSH1 0x8 PUSH1 0x20 SWAP1 DUP2 MSTORE PUSH1 0x40 DUP1 DUP4 KECCAK256 PUSH1 0x1 PUSH1 0x1 PUSH1 0xD0 SHL SUB NOT DUP13 AND DUP5 MSTORE DUP3 MSTORE DUP1 DUP4 KECCAK256 DUP1 SLOAD PUSH1 0x1 DUP1 DUP3 ADD DUP4 SSTORE SWAP2 DUP6 MSTORE DUP4 DUP6 KECCAK256 ADD DUP1 SLOAD CALLER PUSH1 0x1 PUSH1 0x1 PUSH1 0xA0 SHL SUB NOT SWAP2 DUP3 AND DUP2 OR SWAP1 SWAP3 SSTORE DUP11 DUP7 MSTORE PUSH1 0xA DUP6 MSTORE DUP4 DUP7 KECCAK256 DUP1 SLOAD DUP1 DUP6 ADD DUP3 SSTORE SWAP1 DUP8 MSTORE DUP6 DUP8 KECCAK256 ADD DUP1 SLOAD SWAP1 SWAP2 AND DUP3 OR SWAP1 SSTORE DUP10 DUP6 MSTORE PUSH1 0xB DUP5 MSTORE DUP3 DUP6 KECCAK256 SWAP1 DUP6 MSTORE DUP4 MSTORE DUP2 DUP5 KECCAK256 DUP1 SLOAD PUSH1 0xFF NOT AND DUP3 OR SWAP1 SSTORE PUSH1 0x9 DUP4 MSTORE SWAP1 DUP4 KECCAK256 DUP1 SLOAD SWAP2 DUP3 ADD DUP2 SSTORE DUP4 MSTORE SWAP2 KECCAK256 ADD DUP6 SWAP1 SSTORE PUSH2 0x11E1 JUMP JUMPDEST PUSH1 0x0 DUP6 DUP2 MSTORE PUSH1 0x8 PUSH1 0x20 SWAP1 DUP2 MSTORE PUSH1 0x40 DUP1 DUP4 KECCAK256 PUSH1 0x1 PUSH1 0x1 PUSH1 0xD0 SHL SUB NOT DUP13 AND DUP5 MSTORE DUP3 MSTORE DUP3 KECCAK256 DUP1 SLOAD PUSH1 0x1 DUP2 ADD DUP3 SSTORE SWAP1 DUP4 MSTORE SWAP2 KECCAK256 ADD DUP1 SLOAD PUSH1 0x1 PUSH1 0x1 PUSH1 0xA0 SHL SUB NOT AND CALLER OR SWAP1 SSTORE JUMPDEST PUSH1 0x40 DUP1 MLOAD PUSH1 0x1 PUSH1 0x1 PUSH1 0xD0 SHL SUB NOT DUP11 AND DUP2 MSTORE PUSH1 0x20 DUP2 ADD DUP7 SWAP1 MSTORE PUSH1 0x1 PUSH1 0x1 PUSH1 0xA0 SHL SUB DUP6 AND DUP2 DUP4 ADD MSTORE PUSH1 0x60 DUP2 ADD DUP4 SWAP1 MSTORE SWAP1 MLOAD DUP7 SWAP2 CALLER SWAP2 PUSH32 0xD87332D5905526492C72528B38EAD8C7C478E7806AF135F39BE5DF875E4F24BB SWAP2 DUP2 SWAP1 SUB PUSH1 0x80 ADD SWAP1 LOG3 POP POP POP POP POP PUSH2 0x125A PUSH1 0x1 PUSH1 0x0 DUP1 MLOAD PUSH1 0x20 PUSH2 0x29CD DUP4 CODECOPY DUP2 MLOAD SWAP2 MSTORE SSTORE JUMP JUMPDEST POP POP POP JUMP JUMPDEST PUSH1 0x0 DUP2 DUP2 MSTORE PUSH1 0xA PUSH1 0x20 SWAP1 DUP2 MSTORE PUSH1 0x40 SWAP2 DUP3 SWAP1 KECCAK256 DUP1 SLOAD DUP4 MLOAD DUP2 DUP5 MUL DUP2 ADD DUP5 ADD SWAP1 SWAP5 MSTORE DUP1 DUP5 MSTORE PUSH1 0x60 SWAP4 SWAP3 DUP4 ADD DUP3 DUP3 DUP1 ISZERO PUSH2 0x9AB JUMPI PUSH1 0x20 MUL DUP3 ADD SWAP2 SWAP1 PUSH1 0x0 MSTORE PUSH1 0x20 PUSH1 0x0 KECCAK256 SWAP1 JUMPDEST DUP2 SLOAD PUSH1 0x1 PUSH1 0x1 PUSH1 0xA0 SHL SUB AND DUP2 MSTORE PUSH1 0x1 SWAP1 SWAP2 ADD SWAP1 PUSH1 0x20 ADD DUP1 DUP4 GT PUSH2 0x12A1 JUMPI POP POP POP POP POP SWAP1 POP SWAP2 SWAP1 POP JUMP JUMPDEST PUSH1 0x2 SLOAD PUSH1 0x1 PUSH1 0x1 PUSH1 0xA0 SHL SUB AND CALLER EQ PUSH2 0x12F5 JUMPI PUSH1 0x40 MLOAD PUSH4 0x3E94DCE9 PUSH1 0xE0 SHL DUP2 MSTORE PUSH1 0x4 ADD PUSH1 0x40 MLOAD DUP1 SWAP2 SUB SWAP1 REVERT JUMPDEST PUSH1 0x1 PUSH1 0x1 PUSH1 0xA0 SHL SUB DUP3 AND PUSH1 0x0 SWAP1 DUP2 MSTORE PUSH1 0x7 PUSH1 0x20 SWAP1 DUP2 MSTORE PUSH1 0x40 DUP1 DUP4 KECCAK256 DUP5 DUP5 MSTORE SWAP1 SWAP2 MSTORE SWAP1 KECCAK256 PUSH1 0x4 DUP2 ADD SLOAD PUSH1 0x1 PUSH1 0xA8 SHL SWAP1 DIV PUSH1 0xFF AND DUP1 ISZERO PUSH2 0x1352 JUMPI POP PUSH1 0x1 PUSH1 0x4 DUP3 DUP2 ADD SLOAD PUSH1 0x1 PUSH1 0xA0 SHL SWAP1 DIV PUSH1 0xFF AND SWAP1 DUP2 GT ISZERO PUSH2 0x1350 JUMPI PUSH2 0x1350 PUSH2 0x26F3 JUMP JUMPDEST EQ JUMPDEST ISZERO PUSH2 0x125A JUMPI PUSH1 0x4 DUP2 ADD DUP1 SLOAD PUSH1 0xFF PUSH1 0xA0 SHL NOT AND PUSH1 0x1 PUSH1 0xA1 SHL OR SWAP1 SSTORE PUSH1 0x40 MLOAD DUP3 SWAP1 PUSH1 0x1 PUSH1 0x1 PUSH1 0xA0 SHL SUB DUP6 AND SWAP1 PUSH32 0x1415547AC25CCCDDFD82D3B4BCAD6C1A8383110D39E6799A32B6CC5F2987E914 SWAP1 PUSH2 0x13AA SWAP1 PUSH1 0x2 SWAP1 PUSH2 0x28D3 JUMP JUMPDEST PUSH1 0x40 MLOAD DUP1 SWAP2 SUB SWAP1 LOG3 POP POP POP JUMP JUMPDEST PUSH2 0x13BF PUSH2 0x213F JUMP JUMPDEST CALLER PUSH1 0x0 SWAP1 DUP2 MSTORE PUSH1 0x7 PUSH1 0x20 SWAP1 DUP2 MSTORE PUSH1 0x40 DUP1 DUP4 KECCAK256 DUP5 DUP5 MSTORE SWAP1 SWAP2 MSTORE SWAP1 KECCAK256 PUSH1 0x4 DUP2 ADD SLOAD PUSH1 0x1 PUSH1 0xA8 SHL SWAP1 DIV PUSH1 0xFF AND PUSH2 0x140E JUMPI PUSH1 0x40 MLOAD PUSH4 0x9477D825 PUSH1 0xE0 SHL DUP2 MSTORE CALLER PUSH1 0x4 DUP3 ADD MSTORE PUSH1 0x24 DUP2 ADD DUP4 SWAP1 MSTORE PUSH1 0x44 ADD PUSH2 0xDA5 JUMP JUMPDEST PUSH1 0x3 PUSH1 0x4 DUP3 DUP2 ADD SLOAD PUSH1 0x1 PUSH1 0xA0 SHL SWAP1 DIV PUSH1 0xFF AND SWAP1 DUP2 GT ISZERO PUSH2 0x1430 JUMPI PUSH2 0x1430 PUSH2 0x26F3 JUMP JUMPDEST EQ DUP1 PUSH2 0x145A JUMPI POP PUSH1 0x4 DUP1 DUP3 DUP2 ADD SLOAD PUSH1 0x1 PUSH1 0xA0 SHL SWAP1 DIV PUSH1 0xFF AND SWAP1 DUP2 GT ISZERO PUSH2 0x1458 JUMPI PUSH2 0x1458 PUSH2 0x26F3 JUMP JUMPDEST EQ JUMPDEST ISZERO PUSH2 0x1478 JUMPI PUSH1 0x40 MLOAD PUSH4 0x542F378D PUSH1 0xE1 SHL DUP2 MSTORE PUSH1 0x4 ADD PUSH1 0x40 MLOAD DUP1 SWAP2 SUB SWAP1 REVERT JUMPDEST DUP1 PUSH1 0x2 ADD SLOAD PUSH1 0x5 SLOAD GT PUSH2 0x14B1 JUMPI DUP1 PUSH1 0x4 ADD PUSH1 0x14 SWAP1 SLOAD SWAP1 PUSH2 0x100 EXP SWAP1 DIV PUSH1 0xFF AND PUSH1 0x40 MLOAD PUSH4 0x37E7063 PUSH1 0xE6 SHL DUP2 MSTORE PUSH1 0x4 ADD PUSH2 0xDA5 SWAP2 SWAP1 PUSH2 0x28D3 JUMP JUMPDEST PUSH1 0x0 DUP2 PUSH1 0x2 ADD SLOAD PUSH1 0x2 PUSH2 0x14C4 SWAP2 SWAP1 PUSH2 0x2923 JUMP JUMPDEST SWAP1 POP DUP1 PUSH1 0x5 SLOAD GT ISZERO PUSH2 0x14FA JUMPI PUSH1 0x2 DUP3 ADD SLOAD PUSH1 0x5 SLOAD PUSH1 0x40 MLOAD PUSH4 0x972E7FF PUSH1 0xE1 SHL DUP2 MSTORE PUSH1 0x4 DUP2 ADD SWAP3 SWAP1 SWAP3 MSTORE PUSH1 0x24 DUP3 ADD MSTORE PUSH1 0x44 ADD PUSH2 0xDA5 JUMP JUMPDEST PUSH1 0x3 DUP3 ADD DUP1 SLOAD PUSH1 0x4 DUP5 ADD DUP1 SLOAD PUSH1 0x3 PUSH1 0xA0 SHL PUSH1 0xFF PUSH1 0xA0 SHL NOT DUP3 AND OR SWAP1 SWAP2 SSTORE PUSH1 0x0 SWAP1 SWAP3 SSTORE SWAP1 PUSH1 0x1 PUSH1 0x1 PUSH1 0xA0 SHL SUB AND DUP1 PUSH2 0x1599 JUMPI PUSH1 0x40 MLOAD PUSH1 0x0 SWAP1 CALLER SWAP1 DUP5 SWAP1 DUP4 DUP2 DUP2 DUP2 DUP6 DUP8 GAS CALL SWAP3 POP POP POP RETURNDATASIZE DUP1 PUSH1 0x0 DUP2 EQ PUSH2 0x156D JUMPI PUSH1 0x40 MLOAD SWAP2 POP PUSH1 0x1F NOT PUSH1 0x3F RETURNDATASIZE ADD AND DUP3 ADD PUSH1 0x40 MSTORE RETURNDATASIZE DUP3 MSTORE RETURNDATASIZE PUSH1 0x0 PUSH1 0x20 DUP5 ADD RETURNDATACOPY PUSH2 0x1572 JUMP JUMPDEST PUSH1 0x60 SWAP2 POP JUMPDEST POP POP SWAP1 POP DUP1 PUSH2 0x1593 JUMPI PUSH1 0x40 MLOAD PUSH3 0x461BCD PUSH1 0xE5 SHL DUP2 MSTORE PUSH1 0x4 ADD PUSH2 0xDA5 SWAP1 PUSH2 0x2936 JUMP JUMPDEST POP PUSH2 0x15AD JUMP JUMPDEST PUSH2 0x15AD PUSH1 0x1 PUSH1 0x1 PUSH1 0xA0 SHL SUB DUP3 AND CALLER DUP5 PUSH2 0x22DD JUMP JUMPDEST PUSH1 0x40 DUP1 MLOAD DUP4 DUP2 MSTORE PUSH1 0x1 PUSH1 0x1 PUSH1 0xA0 SHL SUB DUP4 AND PUSH1 0x20 DUP3 ADD MSTORE DUP7 SWAP2 CALLER SWAP2 PUSH32 0xAD8270D9F16E19A32BA47F589E09C7C69D78067B4D2F59F4D7D95F4A37B792A1 SWAP2 ADD PUSH1 0x40 MLOAD DUP1 SWAP2 SUB SWAP1 LOG3 POP POP POP POP PUSH2 0x160D PUSH1 0x1 PUSH1 0x0 DUP1 MLOAD PUSH1 0x20 PUSH2 0x29CD DUP4 CODECOPY DUP2 MLOAD SWAP2 MSTORE SSTORE JUMP JUMPDEST POP JUMP JUMPDEST PUSH2 0x1618 PUSH2 0x2112 JUMP JUMPDEST PUSH2 0x1622 PUSH1 0x0 PUSH2 0x2312 JUMP JUMPDEST JUMP JUMPDEST PUSH2 0x162C PUSH2 0x2112 JUMP JUMPDEST PUSH1 0x1 PUSH1 0x1 PUSH1 0xA0 SHL SUB DUP2 AND PUSH2 0x1653 JUMPI PUSH1 0x40 MLOAD PUSH4 0xD92E233D PUSH1 0xE0 SHL DUP2 MSTORE PUSH1 0x4 ADD PUSH1 0x40 MLOAD DUP1 SWAP2 SUB SWAP1 REVERT JUMPDEST PUSH1 0x1 DUP1 SLOAD PUSH1 0x1 PUSH1 0x1 PUSH1 0xA0 SHL SUB NOT AND PUSH1 0x1 PUSH1 0x1 PUSH1 0xA0 SHL SUB DUP4 AND SWAP1 DUP2 OR SWAP1 SWAP2 SSTORE PUSH1 0x40 MLOAD PUSH32 0x2B48AB5A397C976981A15213F5C994553B8FB01C27D3B77542C6095A483379D SWAP1 PUSH1 0x0 SWAP1 LOG2 POP JUMP JUMPDEST PUSH1 0x2 SLOAD PUSH1 0x1 PUSH1 0x1 PUSH1 0xA0 SHL SUB AND CALLER EQ PUSH2 0x16C8 JUMPI PUSH1 0x40 MLOAD PUSH4 0x3E94DCE9 PUSH1 0xE0 SHL DUP2 MSTORE PUSH1 0x4 ADD PUSH1 0x40 MLOAD DUP1 SWAP2 SUB SWAP1 REVERT JUMPDEST PUSH1 0x1 PUSH1 0x1 PUSH1 0xA0 SHL SUB DUP3 AND PUSH1 0x0 SWAP1 DUP2 MSTORE PUSH1 0x7 PUSH1 0x20 SWAP1 DUP2 MSTORE PUSH1 0x40 DUP1 DUP4 KECCAK256 DUP5 DUP5 MSTORE SWAP1 SWAP2 MSTORE SWAP1 KECCAK256 PUSH1 0x4 DUP2 ADD SLOAD PUSH1 0x1 PUSH1 0xA8 SHL SWAP1 DIV PUSH1 0xFF AND DUP1 ISZERO PUSH2 0x174E JUMPI POP PUSH1 0x2 PUSH1 0x4 DUP3 DUP2 ADD SLOAD PUSH1 0x1 PUSH1 0xA0 SHL SWAP1 DIV PUSH1 0xFF AND SWAP1 DUP2 GT ISZERO PUSH2 0x1723 JUMPI PUSH2 0x1723 PUSH2 0x26F3 JUMP JUMPDEST EQ DUP1 PUSH2 0x174E JUMPI POP PUSH1 0x1 PUSH1 0x4 DUP3 DUP2 ADD SLOAD PUSH1 0x1 PUSH1 0xA0 SHL SWAP1 DIV PUSH1 0xFF AND SWAP1 DUP2 GT ISZERO PUSH2 0x174C JUMPI PUSH2 0x174C PUSH2 0x26F3 JUMP JUMPDEST EQ JUMPDEST ISZERO PUSH2 0x125A JUMPI PUSH1 0x4 DUP2 DUP2 ADD DUP1 SLOAD PUSH1 0xFF PUSH1 0xA0 SHL NOT AND PUSH1 0x1 PUSH1 0xA0 SHL DUP4 MUL OR SWAP1 SSTORE POP DUP2 DUP4 PUSH1 0x1 PUSH1 0x1 PUSH1 0xA0 SHL SUB AND PUSH32 0x1415547AC25CCCDDFD82D3B4BCAD6C1A8383110D39E6799A32B6CC5F2987E914 PUSH1 0x4 PUSH1 0x40 MLOAD PUSH2 0x13AA SWAP2 SWAP1 PUSH2 0x28D3 JUMP JUMPDEST PUSH1 0x1 PUSH1 0x1 PUSH1 0xA0 SHL SUB DUP2 AND PUSH1 0x0 SWAP1 DUP2 MSTORE PUSH1 0x9 PUSH1 0x20 SWAP1 DUP2 MSTORE PUSH1 0x40 DUP1 DUP4 KECCAK256 DUP1 SLOAD DUP3 MLOAD DUP2 DUP6 MUL DUP2 ADD DUP6 ADD SWAP1 SWAP4 MSTORE DUP1 DUP4 MSTORE PUSH1 0x60 SWAP5 SWAP4 DUP4 ADD DUP3 DUP3 DUP1 ISZERO PUSH2 0x1806 JUMPI PUSH1 0x20 MUL DUP3 ADD SWAP2 SWAP1 PUSH1 0x0 MSTORE PUSH1 0x20 PUSH1 0x0 KECCAK256 SWAP1 JUMPDEST DUP2 SLOAD DUP2 MSTORE PUSH1 0x20 ADD SWAP1 PUSH1 0x1 ADD SWAP1 DUP1 DUP4 GT PUSH2 0x17F2 JUMPI JUMPDEST POP POP POP POP POP SWAP1 POP DUP1 MLOAD PUSH8 0xFFFFFFFFFFFFFFFF DUP2 GT ISZERO PUSH2 0x1827 JUMPI PUSH2 0x1827 PUSH2 0x2978 JUMP JUMPDEST PUSH1 0x40 MLOAD SWAP1 DUP1 DUP3 MSTORE DUP1 PUSH1 0x20 MUL PUSH1 0x20 ADD DUP3 ADD PUSH1 0x40 MSTORE DUP1 ISZERO PUSH2 0x188E JUMPI DUP2 PUSH1 0x20 ADD JUMPDEST PUSH1 0x40 DUP1 MLOAD PUSH1 0xE0 DUP2 ADD DUP3 MSTORE PUSH1 0x0 DUP1 DUP3 MSTORE PUSH1 0x20 DUP1 DUP4 ADD DUP3 SWAP1 MSTORE SWAP3 DUP3 ADD DUP2 SWAP1 MSTORE PUSH1 0x60 DUP3 ADD DUP2 SWAP1 MSTORE PUSH1 0x80 DUP3 ADD DUP2 SWAP1 MSTORE PUSH1 0xA0 DUP3 ADD DUP2 SWAP1 MSTORE PUSH1 0xC0 DUP3 ADD MSTORE DUP3 MSTORE PUSH1 0x0 NOT SWAP1 SWAP3 ADD SWAP2 ADD DUP2 PUSH2 0x1845 JUMPI SWAP1 POP JUMPDEST POP SWAP2 POP PUSH1 0x0 JUMPDEST DUP2 MLOAD DUP2 LT ISZERO PUSH2 0x19B7 JUMPI PUSH1 0x1 PUSH1 0x1 PUSH1 0xA0 SHL SUB DUP5 AND PUSH1 0x0 SWAP1 DUP2 MSTORE PUSH1 0x7 PUSH1 0x20 MSTORE PUSH1 0x40 DUP2 KECCAK256 DUP4 MLOAD SWAP1 SWAP2 SWAP1 DUP5 SWAP1 DUP5 SWAP1 DUP2 LT PUSH2 0x18CC JUMPI PUSH2 0x18CC PUSH2 0x28BD JUMP JUMPDEST PUSH1 0x20 SWAP1 DUP2 MUL SWAP2 SWAP1 SWAP2 ADD DUP2 ADD MLOAD DUP3 MSTORE DUP2 DUP2 ADD SWAP3 SWAP1 SWAP3 MSTORE PUSH1 0x40 SWAP1 DUP2 ADD PUSH1 0x0 KECCAK256 DUP2 MLOAD PUSH1 0xE0 DUP2 ADD DUP4 MSTORE DUP2 SLOAD PUSH1 0xD0 SHL PUSH1 0x1 PUSH1 0x1 PUSH1 0xD0 SHL SUB NOT AND DUP2 MSTORE PUSH1 0x1 DUP3 ADD SLOAD SWAP4 DUP2 ADD SWAP4 SWAP1 SWAP4 MSTORE PUSH1 0x2 DUP2 ADD SLOAD SWAP2 DUP4 ADD SWAP2 SWAP1 SWAP2 MSTORE PUSH1 0x3 DUP2 ADD SLOAD PUSH1 0x60 DUP4 ADD MSTORE PUSH1 0x4 DUP1 DUP3 ADD SLOAD PUSH1 0x1 PUSH1 0x1 PUSH1 0xA0 SHL SUB DUP2 AND PUSH1 0x80 DUP6 ADD MSTORE PUSH1 0xA0 DUP5 ADD SWAP2 PUSH1 0x1 PUSH1 0xA0 SHL SWAP1 SWAP2 DIV PUSH1 0xFF AND SWAP1 DUP2 GT ISZERO PUSH2 0x1959 JUMPI PUSH2 0x1959 PUSH2 0x26F3 JUMP JUMPDEST PUSH1 0x4 DUP2 GT ISZERO PUSH2 0x196A JUMPI PUSH2 0x196A PUSH2 0x26F3 JUMP JUMPDEST DUP2 MSTORE PUSH1 0x4 SWAP2 SWAP1 SWAP2 ADD SLOAD PUSH1 0x1 PUSH1 0xA8 SHL SWAP1 DIV PUSH1 0xFF AND ISZERO ISZERO PUSH1 0x20 SWAP1 SWAP2 ADD MSTORE DUP4 MLOAD DUP5 SWAP1 DUP4 SWAP1 DUP2 LT PUSH2 0x1999 JUMPI PUSH2 0x1999 PUSH2 0x28BD JUMP JUMPDEST PUSH1 0x20 MUL PUSH1 0x20 ADD ADD DUP2 SWAP1 MSTORE POP DUP1 DUP1 PUSH2 0x19AF SWAP1 PUSH2 0x28F7 JUMP JUMPDEST SWAP2 POP POP PUSH2 0x1894 JUMP JUMPDEST POP POP SWAP2 SWAP1 POP JUMP JUMPDEST PUSH2 0x19C6 PUSH2 0x2112 JUMP JUMPDEST PUSH1 0x6 DUP1 SLOAD PUSH1 0xFF NOT AND PUSH1 0x1 OR SWAP1 SSTORE PUSH1 0x40 MLOAD CALLER SWAP1 PUSH32 0x62E78CEA01BEE320CD4E420270B5EA74000D11B0C9F74754EBDBFC544B05A258 SWAP1 PUSH1 0x0 SWAP1 LOG2 JUMP JUMPDEST PUSH2 0x1A08 PUSH2 0x213F JUMP JUMPDEST PUSH1 0x6 SLOAD PUSH1 0xFF AND ISZERO PUSH2 0x1A2C JUMPI PUSH1 0x40 MLOAD PUSH4 0xAB35696F PUSH1 0xE0 SHL DUP2 MSTORE PUSH1 0x4 ADD PUSH1 0x40 MLOAD DUP1 SWAP2 SUB SWAP1 REVERT JUMPDEST PUSH1 0x0 PUSH1 0x5 SLOAD PUSH1 0x1 PUSH2 0x1A3D SWAP2 SWAP1 PUSH2 0x2923 JUMP JUMPDEST CALLER PUSH1 0x0 SWAP1 DUP2 MSTORE PUSH1 0x7 PUSH1 0x20 SWAP1 DUP2 MSTORE PUSH1 0x40 DUP1 DUP4 KECCAK256 DUP5 DUP5 MSTORE SWAP1 SWAP2 MSTORE SWAP1 KECCAK256 PUSH1 0x4 DUP2 ADD SLOAD SWAP2 SWAP3 POP SWAP1 PUSH1 0x1 PUSH1 0xA8 SHL SWAP1 DIV PUSH1 0xFF AND PUSH2 0x1A90 JUMPI PUSH1 0x40 MLOAD PUSH4 0x9477D825 PUSH1 0xE0 SHL DUP2 MSTORE CALLER PUSH1 0x4 DUP3 ADD MSTORE PUSH1 0x24 DUP2 ADD DUP4 SWAP1 MSTORE PUSH1 0x44 ADD PUSH2 0xDA5 JUMP JUMPDEST PUSH1 0x0 PUSH1 0x4 DUP3 DUP2 ADD SLOAD PUSH1 0x1 PUSH1 0xA0 SHL SWAP1 DIV PUSH1 0xFF AND SWAP1 DUP2 GT ISZERO PUSH2 0x1AB2 JUMPI PUSH2 0x1AB2 PUSH2 0x26F3 JUMP JUMPDEST EQ ISZERO DUP1 ISZERO PUSH2 0x1AE0 JUMPI POP PUSH1 0x1 PUSH1 0x4 DUP3 DUP2 ADD SLOAD PUSH1 0x1 PUSH1 0xA0 SHL SWAP1 DIV PUSH1 0xFF AND SWAP1 DUP2 GT ISZERO PUSH2 0x1ADD JUMPI PUSH2 0x1ADD PUSH2 0x26F3 JUMP JUMPDEST EQ ISZERO JUMPDEST ISZERO PUSH2 0x1B11 JUMPI DUP1 PUSH1 0x4 ADD PUSH1 0x14 SWAP1 SLOAD SWAP1 PUSH2 0x100 EXP SWAP1 DIV PUSH1 0xFF AND PUSH1 0x40 MLOAD PUSH4 0x97B79D03 PUSH1 0xE0 SHL DUP2 MSTORE PUSH1 0x4 ADD PUSH2 0xDA5 SWAP2 SWAP1 PUSH2 0x28D3 JUMP JUMPDEST PUSH2 0x1B1A DUP5 PUSH2 0x215B JUMP JUMPDEST PUSH1 0x0 PUSH1 0x3 SLOAD DUP5 PUSH2 0x1B2A SWAP2 SWAP1 PUSH2 0x2961 JUMP JUMPDEST SWAP1 POP DUP1 ISZERO PUSH2 0x1BF2 JUMPI PUSH1 0x40 MLOAD PUSH4 0x6EB1769F PUSH1 0xE1 SHL DUP2 MSTORE CALLER PUSH1 0x4 DUP3 ADD MSTORE ADDRESS PUSH1 0x24 DUP3 ADD MSTORE PUSH1 0x0 SWAP1 PUSH32 0x0 PUSH1 0x1 PUSH1 0x1 PUSH1 0xA0 SHL SUB AND SWAP1 PUSH4 0xDD62ED3E SWAP1 PUSH1 0x44 ADD PUSH1 0x20 PUSH1 0x40 MLOAD DUP1 DUP4 SUB DUP2 DUP7 GAS STATICCALL ISZERO DUP1 ISZERO PUSH2 0x1B9F JUMPI RETURNDATASIZE PUSH1 0x0 DUP1 RETURNDATACOPY RETURNDATASIZE PUSH1 0x0 REVERT JUMPDEST POP POP POP POP PUSH1 0x40 MLOAD RETURNDATASIZE PUSH1 0x1F NOT PUSH1 0x1F DUP3 ADD AND DUP3 ADD DUP1 PUSH1 0x40 MSTORE POP DUP2 ADD SWAP1 PUSH2 0x1BC3 SWAP2 SWAP1 PUSH2 0x298E JUMP JUMPDEST SWAP1 POP DUP2 DUP2 LT ISZERO PUSH2 0x1BF0 JUMPI PUSH1 0x40 MLOAD PUSH4 0x54365BB PUSH1 0xE3 SHL DUP2 MSTORE PUSH1 0x4 DUP2 ADD DUP4 SWAP1 MSTORE PUSH1 0x24 DUP2 ADD DUP3 SWAP1 MSTORE PUSH1 0x44 ADD PUSH2 0xDA5 JUMP JUMPDEST POP JUMPDEST DUP2 SLOAD PUSH1 0xD0 DUP7 DUP2 SHR PUSH6 0xFFFFFFFFFFFF NOT DUP4 AND OR DUP5 SSTORE SHL PUSH2 0x1C11 DUP6 DUP6 PUSH2 0x2923 JUMP JUMPDEST PUSH1 0x2 DUP5 ADD SSTORE PUSH1 0x0 DUP5 DUP2 MSTORE PUSH1 0x8 PUSH1 0x20 SWAP1 DUP2 MSTORE PUSH1 0x40 DUP1 DUP4 KECCAK256 PUSH1 0x1 PUSH1 0x1 PUSH1 0xD0 SHL SUB NOT DUP11 AND DUP5 MSTORE DUP3 MSTORE DUP3 KECCAK256 DUP1 SLOAD PUSH1 0x1 DUP2 ADD DUP3 SSTORE SWAP1 DUP4 MSTORE SWAP2 KECCAK256 ADD DUP1 SLOAD PUSH1 0x1 PUSH1 0x1 PUSH1 0xA0 SHL SUB NOT AND CALLER OR SWAP1 SSTORE DUP2 ISZERO PUSH2 0x1CCE JUMPI PUSH1 0x1 SLOAD PUSH2 0x1C98 SWAP1 PUSH1 0x1 PUSH1 0x1 PUSH1 0xA0 SHL SUB PUSH32 0x0 DUP2 AND SWAP2 CALLER SWAP2 AND DUP6 PUSH2 0x22A7 JUMP JUMPDEST PUSH1 0x40 MLOAD DUP3 DUP2 MSTORE CALLER SWAP1 PUSH32 0x41A209EE6A3EB8344A3F83B585BB4D93349BFBBD34DCE09EA38D8023516F2DA0 SWAP1 PUSH1 0x20 ADD PUSH1 0x40 MLOAD DUP1 SWAP2 SUB SWAP1 LOG2 JUMPDEST PUSH1 0x40 DUP1 MLOAD PUSH1 0x1 PUSH1 0x1 PUSH1 0xD0 SHL SUB NOT DUP1 DUP5 AND DUP3 MSTORE DUP9 AND PUSH1 0x20 DUP3 ADD MSTORE SWAP1 DUP2 ADD DUP4 SWAP1 MSTORE DUP5 SWAP1 CALLER SWAP1 PUSH32 0xAB313771997EFCA336C32B9E87CD8A060E3F223AB8B4E494E49C21E2342FB73C SWAP1 PUSH1 0x60 ADD PUSH1 0x40 MLOAD DUP1 SWAP2 SUB SWAP1 LOG3 POP POP POP POP PUSH2 0x1D39 PUSH1 0x1 PUSH1 0x0 DUP1 MLOAD PUSH1 0x20 PUSH2 0x29CD DUP4 CODECOPY DUP2 MLOAD SWAP2 MSTORE SSTORE JUMP JUMPDEST POP POP JUMP JUMPDEST PUSH2 0x1D45 PUSH2 0x2112 JUMP JUMPDEST DUP2 ISZERO DUP1 PUSH2 0x1D50 JUMPI POP DUP1 ISZERO JUMPDEST ISZERO PUSH2 0x1D6E JUMPI PUSH1 0x40 MLOAD PUSH4 0x1F2A2005 PUSH1 0xE0 SHL DUP2 MSTORE PUSH1 0x4 ADD PUSH1 0x40 MLOAD DUP1 SWAP2 SUB SWAP1 REVERT JUMPDEST PUSH1 0x3 DUP3 SWAP1 SSTORE PUSH1 0x4 DUP2 SWAP1 SSTORE PUSH1 0x40 DUP1 MLOAD DUP4 DUP2 MSTORE PUSH1 0x20 DUP2 ADD DUP4 SWAP1 MSTORE PUSH32 0x5299E127AC8BDC64FD0E551DD406BA1E1FBAEBC96D458CE9B1A5E69CAECDF376 SWAP2 ADD PUSH1 0x40 MLOAD DUP1 SWAP2 SUB SWAP1 LOG1 POP POP JUMP JUMPDEST PUSH1 0x0 DUP3 DUP2 MSTORE PUSH1 0x8 PUSH1 0x20 SWAP1 DUP2 MSTORE PUSH1 0x40 DUP1 DUP4 KECCAK256 PUSH1 0x1 PUSH1 0x1 PUSH1 0xD0 SHL SUB NOT DUP6 AND DUP5 MSTORE DUP3 MSTORE SWAP2 DUP3 SWAP1 KECCAK256 DUP1 SLOAD DUP4 MLOAD DUP2 DUP5 MUL DUP2 ADD DUP5 ADD SWAP1 SWAP5 MSTORE DUP1 DUP5 MSTORE PUSH1 0x60 SWAP4 SWAP3 DUP4 ADD DUP3 DUP3 DUP1 ISZERO PUSH2 0x1E27 JUMPI PUSH1 0x20 MUL DUP3 ADD SWAP2 SWAP1 PUSH1 0x0 MSTORE PUSH1 0x20 PUSH1 0x0 KECCAK256 SWAP1 JUMPDEST DUP2 SLOAD PUSH1 0x1 PUSH1 0x1 PUSH1 0xA0 SHL SUB AND DUP2 MSTORE PUSH1 0x1 SWAP1 SWAP2 ADD SWAP1 PUSH1 0x20 ADD DUP1 DUP4 GT PUSH2 0x1E09 JUMPI JUMPDEST POP POP POP POP POP SWAP1 POP JUMPDEST SWAP3 SWAP2 POP POP JUMP JUMPDEST PUSH1 0x0 PUSH1 0x8 PUSH1 0x0 PUSH1 0x5 SLOAD PUSH1 0x1 PUSH2 0x1E4A SWAP2 SWAP1 PUSH2 0x2923 JUMP JUMPDEST DUP2 MSTORE PUSH1 0x20 DUP1 DUP3 ADD SWAP3 SWAP1 SWAP3 MSTORE PUSH1 0x40 SWAP1 DUP2 ADD PUSH1 0x0 SWAP1 DUP2 KECCAK256 PUSH1 0x1 PUSH1 0x1 PUSH1 0xD0 SHL SUB NOT SWAP1 SWAP6 AND DUP2 MSTORE SWAP4 SWAP1 SWAP2 MSTORE SWAP1 SWAP2 KECCAK256 SLOAD SWAP2 SWAP1 POP JUMP JUMPDEST PUSH1 0x1 PUSH1 0x1 PUSH1 0xA0 SHL SUB DUP3 AND PUSH1 0x0 SWAP1 DUP2 MSTORE PUSH1 0x7 PUSH1 0x20 SWAP1 DUP2 MSTORE PUSH1 0x40 DUP1 DUP4 KECCAK256 DUP5 DUP5 MSTORE SWAP1 SWAP2 MSTORE DUP2 KECCAK256 PUSH1 0x4 DUP2 ADD SLOAD DUP3 SWAP2 SWAP1 PUSH1 0x1 PUSH1 0xA8 SHL SWAP1 DIV PUSH1 0xFF AND PUSH2 0x1EC0 JUMPI POP PUSH1 0x0 SWAP2 POP DUP2 SWAP1 POP PUSH2 0x1ECB JUMP JUMPDEST SLOAD PUSH1 0x1 SWAP3 POP PUSH1 0xD0 SHL SWAP1 POP JUMPDEST SWAP3 POP SWAP3 SWAP1 POP JUMP JUMPDEST PUSH1 0x40 DUP1 MLOAD PUSH1 0xE0 DUP2 ADD DUP3 MSTORE PUSH1 0x0 DUP1 DUP3 MSTORE PUSH1 0x20 DUP3 ADD DUP2 SWAP1 MSTORE SWAP2 DUP2 ADD DUP3 SWAP1 MSTORE PUSH1 0x60 DUP2 ADD DUP3 SWAP1 MSTORE PUSH1 0x80 DUP2 ADD DUP3 SWAP1 MSTORE PUSH1 0xA0 DUP2 ADD DUP3 SWAP1 MSTORE PUSH1 0xC0 DUP2 ADD SWAP2 SWAP1 SWAP2 MSTORE PUSH1 0x1 PUSH1 0x1 PUSH1 0xA0 SHL SUB DUP4 DUP2 AND PUSH1 0x0 SWAP1 DUP2 MSTORE PUSH1 0x7 PUSH1 0x20 SWAP1 DUP2 MSTORE PUSH1 0x40 DUP1 DUP4 KECCAK256 DUP7 DUP5 MSTORE DUP3 MSTORE SWAP2 DUP3 SWAP1 KECCAK256 DUP3 MLOAD PUSH1 0xE0 DUP2 ADD DUP5 MSTORE DUP2 SLOAD PUSH1 0xD0 SHL PUSH1 0x1 PUSH1 0x1 PUSH1 0xD0 SHL SUB NOT AND DUP2 MSTORE PUSH1 0x1 DUP3 ADD SLOAD SWAP3 DUP2 ADD SWAP3 SWAP1 SWAP3 MSTORE PUSH1 0x2 DUP2 ADD SLOAD SWAP3 DUP3 ADD SWAP3 SWAP1 SWAP3 MSTORE PUSH1 0x3 DUP3 ADD SLOAD PUSH1 0x60 DUP3 ADD MSTORE PUSH1 0x4 DUP1 DUP4 ADD SLOAD SWAP4 DUP5 AND PUSH1 0x80 DUP4 ADD MSTORE SWAP1 SWAP3 PUSH1 0xA0 DUP5 ADD SWAP2 PUSH1 0x1 PUSH1 0xA0 SHL SWAP1 SWAP2 DIV PUSH1 0xFF AND SWAP1 DUP2 GT ISZERO PUSH2 0x1F9B JUMPI PUSH2 0x1F9B PUSH2 0x26F3 JUMP JUMPDEST PUSH1 0x4 DUP2 GT ISZERO PUSH2 0x1FAC JUMPI PUSH2 0x1FAC PUSH2 0x26F3 JUMP JUMPDEST DUP2 MSTORE PUSH1 0x4 SWAP2 SWAP1 SWAP2 ADD SLOAD PUSH1 0x1 PUSH1 0xA8 SHL SWAP1 DIV PUSH1 0xFF AND ISZERO ISZERO PUSH1 0x20 SWAP1 SWAP2 ADD MSTORE SWAP4 SWAP3 POP POP POP JUMP JUMPDEST PUSH1 0x1 PUSH1 0x1 PUSH1 0xA0 SHL SUB DUP3 AND PUSH1 0x0 SWAP1 DUP2 MSTORE PUSH1 0x7 PUSH1 0x20 SWAP1 DUP2 MSTORE PUSH1 0x40 DUP1 DUP4 KECCAK256 DUP5 DUP5 MSTORE SWAP1 SWAP2 MSTORE DUP2 KECCAK256 PUSH1 0x4 DUP2 ADD SLOAD DUP3 SWAP2 SWAP1 PUSH1 0x1 PUSH1 0xA8 SHL SWAP1 DIV PUSH1 0xFF AND PUSH2 0x2014 JUMPI POP PUSH1 0x0 SWAP2 POP DUP2 SWAP1 POP PUSH2 0x1ECB JUMP JUMPDEST PUSH1 0x1 PUSH1 0x4 DUP3 DUP2 ADD SLOAD PUSH1 0x1 PUSH1 0xA0 SHL SWAP1 DIV PUSH1 0xFF AND SWAP1 DUP2 GT ISZERO PUSH2 0x2036 JUMPI PUSH2 0x2036 PUSH2 0x26F3 JUMP JUMPDEST EQ ISZERO DUP1 ISZERO PUSH2 0x2064 JUMPI POP PUSH1 0x0 PUSH1 0x4 DUP3 DUP2 ADD SLOAD PUSH1 0x1 PUSH1 0xA0 SHL SWAP1 DIV PUSH1 0xFF AND SWAP1 DUP2 GT ISZERO PUSH2 0x2061 JUMPI PUSH2 0x2061 PUSH2 0x26F3 JUMP JUMPDEST EQ ISZERO JUMPDEST ISZERO PUSH2 0x2076 JUMPI POP PUSH1 0x0 SWAP2 POP DUP2 SWAP1 POP PUSH2 0x1ECB JUMP JUMPDEST DUP1 PUSH1 0x2 ADD SLOAD DUP5 GT ISZERO PUSH2 0x1EC0 JUMPI POP PUSH1 0x0 SWAP2 POP DUP2 SWAP1 POP PUSH2 0x1ECB JUMP JUMPDEST PUSH1 0x0 PUSH1 0x3 SLOAD DUP3 PUSH2 0x1E2F SWAP2 SWAP1 PUSH2 0x2961 JUMP JUMPDEST PUSH1 0xA PUSH1 0x20 MSTORE DUP2 PUSH1 0x0 MSTORE PUSH1 0x40 PUSH1 0x0 KECCAK256 DUP2 DUP2 SLOAD DUP2 LT PUSH2 0x20BB JUMPI PUSH1 0x0 DUP1 REVERT JUMPDEST PUSH1 0x0 SWAP2 DUP3 MSTORE PUSH1 0x20 SWAP1 SWAP2 KECCAK256 ADD SLOAD PUSH1 0x1 PUSH1 0x1 PUSH1 0xA0 SHL SUB AND SWAP2 POP DUP3 SWAP1 POP JUMP JUMPDEST PUSH2 0x20DF PUSH2 0x2112 JUMP JUMPDEST PUSH1 0x1 PUSH1 0x1 PUSH1 0xA0 SHL SUB DUP2 AND PUSH2 0x2109 JUMPI PUSH1 0x40 MLOAD PUSH4 0x1E4FBDF7 PUSH1 0xE0 SHL DUP2 MSTORE PUSH1 0x0 PUSH1 0x4 DUP3 ADD MSTORE PUSH1 0x24 ADD PUSH2 0xDA5 JUMP JUMPDEST PUSH2 0x160D DUP2 PUSH2 0x2312 JUMP JUMPDEST PUSH1 0x0 SLOAD PUSH1 0x1 PUSH1 0x1 PUSH1 0xA0 SHL SUB AND CALLER EQ PUSH2 0x1622 JUMPI PUSH1 0x40 MLOAD PUSH4 0x118CDAA7 PUSH1 0xE0 SHL DUP2 MSTORE CALLER PUSH1 0x4 DUP3 ADD MSTORE PUSH1 0x24 ADD PUSH2 0xDA5 JUMP JUMPDEST PUSH2 0x2147 PUSH2 0x2362 JUMP JUMPDEST PUSH1 0x2 PUSH1 0x0 DUP1 MLOAD PUSH1 0x20 PUSH2 0x29CD DUP4 CODECOPY DUP2 MLOAD SWAP2 MSTORE SSTORE JUMP JUMPDEST PUSH1 0x0 DUP1 JUMPDEST PUSH1 0x6 DUP2 LT ISZERO PUSH2 0x125A JUMPI PUSH1 0x0 DUP4 DUP3 PUSH1 0x6 DUP2 LT PUSH2 0x217C JUMPI PUSH2 0x217C PUSH2 0x28BD JUMP JUMPDEST BYTE PUSH1 0xF8 SHL SWAP1 POP PUSH1 0x0 PUSH1 0x41 PUSH1 0xF8 SHL PUSH1 0x1 PUSH1 0x1 PUSH1 0xF8 SHL SUB NOT DUP4 AND LT DUP1 ISZERO SWAP1 PUSH2 0x21B0 JUMPI POP PUSH1 0x2D PUSH1 0xF9 SHL PUSH1 0x1 PUSH1 0x1 PUSH1 0xF8 SHL SUB NOT DUP4 AND GT ISZERO JUMPDEST SWAP1 POP PUSH1 0x0 PUSH1 0x3 PUSH1 0xFC SHL PUSH1 0x1 PUSH1 0x1 PUSH1 0xF8 SHL SUB NOT DUP5 AND LT DUP1 ISZERO SWAP1 PUSH2 0x21E0 JUMPI POP PUSH1 0x39 PUSH1 0xF8 SHL PUSH1 0x1 PUSH1 0x1 PUSH1 0xF8 SHL SUB NOT DUP5 AND GT ISZERO JUMPDEST SWAP1 POP DUP2 ISZERO DUP1 ISZERO PUSH2 0x21EE JUMPI POP DUP1 ISZERO JUMPDEST ISZERO PUSH2 0x2218 JUMPI PUSH1 0x40 MLOAD PUSH4 0x3FD7C867 PUSH1 0xE0 SHL DUP2 MSTORE PUSH1 0x1 PUSH1 0x1 PUSH1 0xF8 SHL SUB NOT DUP5 AND PUSH1 0x4 DUP3 ADD MSTORE PUSH1 0x24 ADD PUSH2 0xDA5 JUMP JUMPDEST PUSH1 0x0 DUP3 PUSH2 0x223E JUMPI PUSH2 0x222E PUSH1 0x30 PUSH1 0xF8 DUP7 SWAP1 SHR PUSH2 0x2910 JUMP JUMPDEST PUSH2 0x2239 SWAP1 PUSH1 0x1A PUSH2 0x2923 JUMP JUMPDEST PUSH2 0x224D JUMP JUMPDEST PUSH2 0x224D PUSH1 0x41 PUSH1 0xF8 DUP7 SWAP1 SHR PUSH2 0x2910 JUMP JUMPDEST SWAP1 POP PUSH1 0x1 DUP2 SHL PUSH8 0xFFFFFFFFFFFFFFFF DUP8 DUP3 AND AND ISZERO PUSH2 0x228A JUMPI PUSH1 0x40 MLOAD PUSH4 0x8CD88F69 PUSH1 0xE0 SHL DUP2 MSTORE PUSH1 0x1 PUSH1 0x1 PUSH1 0xF8 SHL SUB NOT DUP7 AND PUSH1 0x4 DUP3 ADD MSTORE PUSH1 0x24 ADD PUSH2 0xDA5 JUMP JUMPDEST DUP1 DUP8 OR SWAP7 POP POP POP POP POP POP DUP1 DUP1 PUSH2 0x229F SWAP1 PUSH2 0x28F7 JUMP JUMPDEST SWAP2 POP POP PUSH2 0x215F JUMP JUMPDEST PUSH2 0x22B5 DUP5 DUP5 DUP5 DUP5 PUSH1 0x1 PUSH2 0x2392 JUMP JUMPDEST PUSH2 0x945 JUMPI PUSH1 0x40 MLOAD PUSH4 0x5274AFE7 PUSH1 0xE0 SHL DUP2 MSTORE PUSH1 0x1 PUSH1 0x1 PUSH1 0xA0 SHL SUB DUP6 AND PUSH1 0x4 DUP3 ADD MSTORE PUSH1 0x24 ADD PUSH2 0xDA5 JUMP JUMPDEST PUSH2 0x22EA DUP4 DUP4 DUP4 PUSH1 0x1 PUSH2 0x2404 JUMP JUMPDEST PUSH2 0x125A JUMPI PUSH1 0x40 MLOAD PUSH4 0x5274AFE7 PUSH1 0xE0 SHL DUP2 MSTORE PUSH1 0x1 PUSH1 0x1 PUSH1 0xA0 SHL SUB DUP5 AND PUSH1 0x4 DUP3 ADD MSTORE PUSH1 0x24 ADD PUSH2 0xDA5 JUMP JUMPDEST PUSH1 0x0 DUP1 SLOAD PUSH1 0x1 PUSH1 0x1 PUSH1 0xA0 SHL SUB DUP4 DUP2 AND PUSH1 0x1 PUSH1 0x1 PUSH1 0xA0 SHL SUB NOT DUP4 AND DUP2 OR DUP5 SSTORE PUSH1 0x40 MLOAD SWAP2 SWAP1 SWAP3 AND SWAP3 DUP4 SWAP2 PUSH32 0x8BE0079C531659141344CD1FD0A4F28419497F9722A3DAAFE3B4186F6B6457E0 SWAP2 SWAP1 LOG3 POP POP JUMP JUMPDEST PUSH1 0x0 DUP1 MLOAD PUSH1 0x20 PUSH2 0x29CD DUP4 CODECOPY DUP2 MLOAD SWAP2 MSTORE SLOAD PUSH1 0x2 SUB PUSH2 0x1622 JUMPI PUSH1 0x40 MLOAD PUSH4 0x3EE5AEB5 PUSH1 0xE0 SHL DUP2 MSTORE PUSH1 0x4 ADD PUSH1 0x40 MLOAD DUP1 SWAP2 SUB SWAP1 REVERT JUMPDEST PUSH1 0x40 MLOAD PUSH4 0x23B872DD PUSH1 0xE0 SHL PUSH1 0x0 DUP2 DUP2 MSTORE PUSH1 0x1 PUSH1 0x1 PUSH1 0xA0 SHL SUB DUP8 DUP2 AND PUSH1 0x4 MSTORE DUP7 AND PUSH1 0x24 MSTORE PUSH1 0x44 DUP6 SWAP1 MSTORE SWAP2 PUSH1 0x20 DUP4 PUSH1 0x64 DUP2 DUP1 DUP13 GAS CALL SWAP3 POP PUSH1 0x1 PUSH1 0x0 MLOAD EQ DUP4 AND PUSH2 0x23F2 JUMPI DUP4 DUP4 ISZERO AND ISZERO PUSH2 0x23E5 JUMPI RETURNDATASIZE PUSH1 0x0 DUP3 RETURNDATACOPY RETURNDATASIZE DUP2 REVERT JUMPDEST PUSH1 0x0 DUP9 EXTCODESIZE GT RETURNDATASIZE ISZERO AND DUP4 AND SWAP3 POP JUMPDEST PUSH1 0x40 MSTORE POP PUSH1 0x0 PUSH1 0x60 MSTORE SWAP6 SWAP5 POP POP POP POP POP JUMP JUMPDEST PUSH1 0x40 MLOAD PUSH4 0xA9059CBB PUSH1 0xE0 SHL PUSH1 0x0 DUP2 DUP2 MSTORE PUSH1 0x1 PUSH1 0x1 PUSH1 0xA0 SHL SUB DUP7 AND PUSH1 0x4 MSTORE PUSH1 0x24 DUP6 SWAP1 MSTORE SWAP2 PUSH1 0x20 DUP4 PUSH1 0x44 DUP2 DUP1 DUP12 GAS CALL SWAP3 POP PUSH1 0x1 PUSH1 0x0 MLOAD EQ DUP4 AND PUSH2 0x245E JUMPI DUP4 DUP4 ISZERO AND ISZERO PUSH2 0x2451 JUMPI RETURNDATASIZE PUSH1 0x0 DUP3 RETURNDATACOPY RETURNDATASIZE DUP2 REVERT JUMPDEST PUSH1 0x0 DUP8 EXTCODESIZE GT RETURNDATASIZE ISZERO AND DUP4 AND SWAP3 POP JUMPDEST PUSH1 0x40 MSTORE POP SWAP5 SWAP4 POP POP POP POP JUMP JUMPDEST DUP1 CALLDATALOAD PUSH1 0x1 PUSH1 0x1 PUSH1 0xD0 SHL SUB NOT DUP2 AND DUP2 EQ PUSH2 0x2482 JUMPI PUSH1 0x0 DUP1 REVERT JUMPDEST SWAP2 SWAP1 POP JUMP JUMPDEST PUSH1 0x0 DUP1 PUSH1 0x0 PUSH1 0x60 DUP5 DUP7 SUB SLT ISZERO PUSH2 0x249C JUMPI PUSH1 0x0 DUP1 REVERT JUMPDEST DUP4 CALLDATALOAD SWAP3 POP PUSH2 0x24AC PUSH1 0x20 DUP6 ADD PUSH2 0x246A JUMP JUMPDEST SWAP2 POP PUSH1 0x40 DUP5 ADD CALLDATALOAD SWAP1 POP SWAP3 POP SWAP3 POP SWAP3 JUMP JUMPDEST PUSH1 0x0 DUP1 PUSH1 0x0 PUSH1 0x40 DUP5 DUP7 SUB SLT ISZERO PUSH2 0x24D1 JUMPI PUSH1 0x0 DUP1 REVERT JUMPDEST DUP4 CALLDATALOAD SWAP3 POP PUSH1 0x20 DUP5 ADD CALLDATALOAD PUSH8 0xFFFFFFFFFFFFFFFF DUP1 DUP3 GT ISZERO PUSH2 0x24F0 JUMPI PUSH1 0x0 DUP1 REVERT JUMPDEST DUP2 DUP7 ADD SWAP2 POP DUP7 PUSH1 0x1F DUP4 ADD SLT PUSH2 0x2504 JUMPI PUSH1 0x0 DUP1 REVERT JUMPDEST DUP2 CALLDATALOAD DUP2 DUP2 GT ISZERO PUSH2 0x2513 JUMPI PUSH1 0x0 DUP1 REVERT JUMPDEST DUP8 PUSH1 0x20 DUP3 PUSH1 0x5 SHL DUP6 ADD ADD GT ISZERO PUSH2 0x2528 JUMPI PUSH1 0x0 DUP1 REVERT JUMPDEST PUSH1 0x20 DUP4 ADD SWAP5 POP DUP1 SWAP4 POP POP POP POP SWAP3 POP SWAP3 POP SWAP3 JUMP JUMPDEST DUP1 CALLDATALOAD PUSH1 0x1 PUSH1 0x1 PUSH1 0xA0 SHL SUB DUP2 AND DUP2 EQ PUSH2 0x2482 JUMPI PUSH1 0x0 DUP1 REVERT JUMPDEST PUSH1 0x0 PUSH1 0x20 DUP3 DUP5 SUB SLT ISZERO PUSH2 0x2564 JUMPI PUSH1 0x0 DUP1 REVERT JUMPDEST PUSH2 0x256D DUP3 PUSH2 0x253B JUMP JUMPDEST SWAP4 SWAP3 POP POP POP JUMP JUMPDEST PUSH1 0x20 DUP1 DUP3 MSTORE DUP3 MLOAD DUP3 DUP3 ADD DUP2 SWAP1 MSTORE PUSH1 0x0 SWAP2 SWAP1 DUP5 DUP3 ADD SWAP1 PUSH1 0x40 DUP6 ADD SWAP1 DUP5 JUMPDEST DUP2 DUP2 LT ISZERO PUSH2 0x25AC JUMPI DUP4 MLOAD DUP4 MSTORE SWAP3 DUP5 ADD SWAP3 SWAP2 DUP5 ADD SWAP2 PUSH1 0x1 ADD PUSH2 0x2590 JUMP JUMPDEST POP SWAP1 SWAP7 SWAP6 POP POP POP POP POP POP JUMP JUMPDEST PUSH1 0x0 DUP1 PUSH1 0x40 DUP4 DUP6 SUB SLT ISZERO PUSH2 0x25CB JUMPI PUSH1 0x0 DUP1 REVERT JUMPDEST PUSH2 0x25D4 DUP4 PUSH2 0x253B JUMP JUMPDEST SWAP5 PUSH1 0x20 SWAP4 SWAP1 SWAP4 ADD CALLDATALOAD SWAP4 POP POP POP JUMP JUMPDEST PUSH1 0x0 PUSH1 0x20 DUP3 DUP5 SUB SLT ISZERO PUSH2 0x25F4 JUMPI PUSH1 0x0 DUP1 REVERT JUMPDEST PUSH2 0x256D DUP3 PUSH2 0x246A JUMP JUMPDEST DUP3 ISZERO ISZERO DUP2 MSTORE PUSH1 0x0 PUSH1 0x20 PUSH1 0x40 DUP2 DUP5 ADD MSTORE DUP4 MLOAD DUP1 PUSH1 0x40 DUP6 ADD MSTORE PUSH1 0x0 JUMPDEST DUP2 DUP2 LT ISZERO PUSH2 0x2633 JUMPI DUP6 DUP2 ADD DUP4 ADD MLOAD DUP6 DUP3 ADD PUSH1 0x60 ADD MSTORE DUP3 ADD PUSH2 0x2617 JUMP JUMPDEST POP PUSH1 0x0 PUSH1 0x60 DUP3 DUP7 ADD ADD MSTORE PUSH1 0x60 PUSH1 0x1F NOT PUSH1 0x1F DUP4 ADD AND DUP6 ADD ADD SWAP3 POP POP POP SWAP4 SWAP3 POP POP POP JUMP JUMPDEST PUSH1 0x0 PUSH1 0x20 DUP3 DUP5 SUB SLT ISZERO PUSH2 0x2667 JUMPI PUSH1 0x0 DUP1 REVERT JUMPDEST POP CALLDATALOAD SWAP2 SWAP1 POP JUMP JUMPDEST PUSH1 0x0 DUP1 PUSH1 0x0 PUSH1 0x60 DUP5 DUP7 SUB SLT ISZERO PUSH2 0x2683 JUMPI PUSH1 0x0 DUP1 REVERT JUMPDEST PUSH2 0x268C DUP5 PUSH2 0x246A JUMP JUMPDEST SWAP3 POP PUSH1 0x20 DUP5 ADD CALLDATALOAD DUP1 ISZERO ISZERO DUP2 EQ PUSH2 0x26A1 JUMPI PUSH1 0x0 DUP1 REVERT JUMPDEST SWAP3 SWAP6 SWAP3 SWAP5 POP POP POP PUSH1 0x40 SWAP2 SWAP1 SWAP2 ADD CALLDATALOAD SWAP1 JUMP JUMPDEST PUSH1 0x20 DUP1 DUP3 MSTORE DUP3 MLOAD DUP3 DUP3 ADD DUP2 SWAP1 MSTORE PUSH1 0x0 SWAP2 SWAP1 DUP5 DUP3 ADD SWAP1 PUSH1 0x40 DUP6 ADD SWAP1 DUP5 JUMPDEST DUP2 DUP2 LT ISZERO PUSH2 0x25AC JUMPI DUP4 MLOAD PUSH1 0x1 PUSH1 0x1 PUSH1 0xA0 SHL SUB AND DUP4 MSTORE SWAP3 DUP5 ADD SWAP3 SWAP2 DUP5 ADD SWAP2 PUSH1 0x1 ADD PUSH2 0x26CE JUMP JUMPDEST PUSH4 0x4E487B71 PUSH1 0xE0 SHL PUSH1 0x0 MSTORE PUSH1 0x21 PUSH1 0x4 MSTORE PUSH1 0x24 PUSH1 0x0 REVERT JUMPDEST PUSH1 0x5 DUP2 LT PUSH2 0x2727 JUMPI PUSH4 0x4E487B71 PUSH1 0xE0 SHL PUSH1 0x0 MSTORE PUSH1 0x21 PUSH1 0x4 MSTORE PUSH1 0x24 PUSH1 0x0 REVERT JUMPDEST SWAP1 MSTORE JUMP JUMPDEST PUSH1 0x1 PUSH1 0x1 PUSH1 0xD0 SHL SUB NOT DUP9 AND DUP2 MSTORE PUSH1 0x20 DUP2 ADD DUP8 SWAP1 MSTORE PUSH1 0x40 DUP2 ADD DUP7 SWAP1 MSTORE PUSH1 0x60 DUP2 ADD DUP6 SWAP1 MSTORE PUSH1 0x1 PUSH1 0x1 PUSH1 0xA0 SHL SUB DUP5 AND PUSH1 0x80 DUP3 ADD MSTORE PUSH1 0xE0 DUP2 ADD PUSH2 0x276D PUSH1 0xA0 DUP4 ADD DUP6 PUSH2 0x2709 JUMP JUMPDEST DUP3 ISZERO ISZERO PUSH1 0xC0 DUP4 ADD MSTORE SWAP9 SWAP8 POP POP POP POP POP POP POP POP JUMP JUMPDEST PUSH6 0xFFFFFFFFFFFF PUSH1 0xD0 SHL DUP2 MLOAD AND DUP3 MSTORE PUSH1 0x20 DUP2 ADD MLOAD PUSH1 0x20 DUP4 ADD MSTORE PUSH1 0x40 DUP2 ADD MLOAD PUSH1 0x40 DUP4 ADD MSTORE PUSH1 0x60 DUP2 ADD MLOAD PUSH1 0x60 DUP4 ADD MSTORE PUSH1 0x1 DUP1 PUSH1 0xA0 SHL SUB PUSH1 0x80 DUP3 ADD MLOAD AND PUSH1 0x80 DUP4 ADD MSTORE PUSH1 0xA0 DUP2 ADD MLOAD PUSH2 0x27D2 PUSH1 0xA0 DUP5 ADD DUP3 PUSH2 0x2709 JUMP JUMPDEST POP PUSH1 0xC0 SWAP1 DUP2 ADD MLOAD ISZERO ISZERO SWAP2 ADD MSTORE JUMP JUMPDEST PUSH1 0x20 DUP1 DUP3 MSTORE DUP3 MLOAD DUP3 DUP3 ADD DUP2 SWAP1 MSTORE PUSH1 0x0 SWAP2 SWAP1 DUP5 DUP3 ADD SWAP1 PUSH1 0x40 DUP6 ADD SWAP1 DUP5 JUMPDEST DUP2 DUP2 LT ISZERO PUSH2 0x25AC JUMPI PUSH2 0x280F DUP4 DUP6 MLOAD PUSH2 0x2781 JUMP JUMPDEST SWAP3 DUP5 ADD SWAP3 PUSH1 0xE0 SWAP3 SWAP1 SWAP3 ADD SWAP2 PUSH1 0x1 ADD PUSH2 0x27FC JUMP JUMPDEST PUSH1 0x0 DUP1 PUSH1 0x40 DUP4 DUP6 SUB SLT ISZERO PUSH2 0x2835 JUMPI PUSH1 0x0 DUP1 REVERT JUMPDEST PUSH2 0x25D4 DUP4 PUSH2 0x246A JUMP JUMPDEST PUSH1 0x0 DUP1 PUSH1 0x40 DUP4 DUP6 SUB SLT ISZERO PUSH2 0x2851 JUMPI PUSH1 0x0 DUP1 REVERT JUMPDEST POP POP DUP1 CALLDATALOAD SWAP3 PUSH1 0x20 SWAP1 SWAP2 ADD CALLDATALOAD SWAP2 POP JUMP JUMPDEST PUSH1 0x0 DUP1 PUSH1 0x40 DUP4 DUP6 SUB SLT ISZERO PUSH2 0x2873 JUMPI PUSH1 0x0 DUP1 REVERT JUMPDEST DUP3 CALLDATALOAD SWAP2 POP PUSH2 0x2883 PUSH1 0x20 DUP5 ADD PUSH2 0x246A JUMP JUMPDEST SWAP1 POP SWAP3 POP SWAP3 SWAP1 POP JUMP JUMPDEST PUSH1 0x0 DUP1 PUSH1 0x40 DUP4 DUP6 SUB SLT ISZERO PUSH2 0x289F JUMPI PUSH1 0x0 DUP1 REVERT JUMPDEST DUP3 CALLDATALOAD SWAP2 POP PUSH2 0x2883 PUSH1 0x20 DUP5 ADD PUSH2 0x253B JUMP JUMPDEST PUSH1 0xE0 DUP2 ADD PUSH2 0x1E2F DUP3 DUP5 PUSH2 0x2781 JUMP JUMPDEST PUSH4 0x4E487B71 PUSH1 0xE0 SHL PUSH1 0x0 MSTORE PUSH1 0x32 PUSH1 0x4 MSTORE PUSH1 0x24 PUSH1 0x0 REVERT JUMPDEST PUSH1 0x20 DUP2 ADD PUSH2 0x1E2F DUP3 DUP5 PUSH2 0x2709 JUMP JUMPDEST PUSH4 0x4E487B71 PUSH1 0xE0 SHL PUSH1 0x0 MSTORE PUSH1 0x11 PUSH1 0x4 MSTORE PUSH1 0x24 PUSH1 0x0 REVERT JUMPDEST PUSH1 0x0 PUSH1 0x1 DUP3 ADD PUSH2 0x2909 JUMPI PUSH2 0x2909 PUSH2 0x28E1 JUMP JUMPDEST POP PUSH1 0x1 ADD SWAP1 JUMP JUMPDEST DUP2 DUP2 SUB DUP2 DUP2 GT ISZERO PUSH2 0x1E2F JUMPI PUSH2 0x1E2F PUSH2 0x28E1 JUMP JUMPDEST DUP1 DUP3 ADD DUP1 DUP3 GT ISZERO PUSH2 0x1E2F JUMPI PUSH2 0x1E2F PUSH2 0x28E1 JUMP JUMPDEST PUSH1 0x20 DUP1 DUP3 MSTORE PUSH1 0x11 SWAP1 DUP3 ADD MSTORE PUSH17 0x115512081C99599D5B990819985A5B1959 PUSH1 0x7A SHL PUSH1 0x40 DUP3 ADD MSTORE PUSH1 0x60 ADD SWAP1 JUMP JUMPDEST DUP1 DUP3 MUL DUP2 ISZERO DUP3 DUP3 DIV DUP5 EQ OR PUSH2 0x1E2F JUMPI PUSH2 0x1E2F PUSH2 0x28E1 JUMP JUMPDEST PUSH4 0x4E487B71 PUSH1 0xE0 SHL PUSH1 0x0 MSTORE PUSH1 0x41 PUSH1 0x4 MSTORE PUSH1 0x24 PUSH1 0x0 REVERT JUMPDEST PUSH1 0x0 PUSH1 0x20 DUP3 DUP5 SUB SLT ISZERO PUSH2 0x29A0 JUMPI PUSH1 0x0 DUP1 REVERT JUMPDEST POP MLOAD SWAP2 SWAP1 POP JUMP INVALID 0x49 PUSH15 0x76616C696420636861726163746572 GASPRICE KECCAK256 PUSH14 0x75737420626520412D5A206F7220 ADDRESS 0x2D CODECOPY SWAP12 PUSH24 0x9B17422D0DF92223018B32B4D1FA46E071723D6817E2486D STOP EXTCODESIZE 0xEC 0xC5 PUSH0 STOP LOG2 PUSH5 0x6970667358 0x22 SLT KECCAK256 0xA5 PUSH23 0x90008E22B863BAF548B1C3DC978FFDF98B21E9FFA601FD JUMP 0xAC 0x2F 0xF8 0xD0 0xE2 PUSH25 0x64736F6C634300081400330000000000000000000000000000 "
				},
				"gasEstimates": {
					"creation": {
						"codeDepositCost": "2157200",
						"executionCost": "infinite",
						"totalCost": "infinite"
					},
					"external": {
						"activateRoundEntries(uint256,address[])": "infinite",
						"additionalRoundCost(uint256)": "infinite",
						"claimRefund(uint256)": "infinite",
						"currentRound()": "2406",
						"entries(address,uint256)": "11522",
						"entryCostETH()": "2340",
						"entryCostTIMBS()": "2385",
						"expireEntry(address,uint256)": "33255",
						"getEntry(address,uint256)": "14043",
						"getIdenticalCount(bytes6)": "4935",
						"getPlayerHistory(address)": "infinite",
						"getPlayerRounds(address)": "infinite",
						"getRoundEntrants(uint256)": "infinite",
						"getStringEntrants(uint256,bytes6)": "infinite",
						"hasEntryInRound(uint256,address)": "2762",
						"markInactive(address,uint256)": "35422",
						"owner()": "2365",
						"pause()": "27747",
						"paused()": "2443",
						"playerRounds(address,uint256)": "4790",
						"protocolSink()": "2371",
						"renounceOwnership()": "infinite",
						"replaceEntry(bytes6,uint256)": "infinite",
						"roundEntrants(uint256,uint256)": "4804",
						"setCurrentRound(uint256)": "25641",
						"setEntryCosts(uint256,uint256)": "48145",
						"setProtocolSink(address)": "27977",
						"setTimbPrize(address)": "27977",
						"stringEntrants(uint256,bytes6,uint256)": "4913",
						"submitEntry(bytes6,bool,uint256)": "infinite",
						"timbPrize()": "2393",
						"timbsToken()": "infinite",
						"transferOwnership(address)": "28465",
						"unpause()": "27808",
						"validateString(bytes6)": "infinite",
						"verifyEntryExisted(address,uint256)": "4989",
						"verifyEntryValid(address,uint256)": "11455"
					},
					"internal": {
						"_validateString(bytes6)": "infinite"
					}
				},
				"methodIdentifiers": {
					"activateRoundEntries(uint256,address[])": "1330cd86",
					"additionalRoundCost(uint256)": "d6b7e9d9",
					"claimRefund(uint256)": "5b7baf64",
					"currentRound()": "8a19c8bc",
					"entries(address,uint256)": "53b65d40",
					"entryCostETH()": "83d5d801",
					"entryCostTIMBS()": "45c952cb",
					"expireEntry(address,uint256)": "47f43ef2",
					"getEntry(address,uint256)": "b8a740e0",
					"getIdenticalCount(bytes6)": "a4ce555d",
					"getPlayerHistory(address)": "8249a69c",
					"getPlayerRounds(address)": "233507b9",
					"getRoundEntrants(uint256)": "454ac84e",
					"getStringEntrants(uint256,bytes6)": "9fd11627",
					"hasEntryInRound(uint256,address)": "b5740c9c",
					"markInactive(address,uint256)": "7a03ce4f",
					"owner()": "8da5cb5b",
					"pause()": "8456cb59",
					"paused()": "5c975abb",
					"playerRounds(address,uint256)": "2768a49f",
					"protocolSink()": "4ce04501",
					"renounceOwnership()": "715018a6",
					"replaceEntry(bytes6,uint256)": "87c3ac08",
					"roundEntrants(uint256,uint256)": "ecdd4f9f",
					"setCurrentRound(uint256)": "3bc91e28",
					"setEntryCosts(uint256,uint256)": "8d88f8d1",
					"setProtocolSink(address)": "74c47393",
					"setTimbPrize(address)": "27b23849",
					"stringEntrants(uint256,bytes6,uint256)": "0bd4c399",
					"submitEntry(bytes6,bool,uint256)": "42610993",
					"timbPrize()": "5364276d",
					"timbsToken()": "0e31648f",
					"transferOwnership(address)": "f2fde38b",
					"unpause()": "3f4ba83a",
					"validateString(bytes6)": "338f0856",
					"verifyEntryExisted(address,uint256)": "a96de4f5",
					"verifyEntryValid(address,uint256)": "c106aee3"
				}
			},
			"storageLayout": {
				"storage": [
					{
						"astId": 8,
						"contract": "contractss/GameRegistry.sol:GameRegistry",
						"label": "_owner",
						"offset": 0,
						"slot": "0",
						"type": "t_address"
					},
					{
						"astId": 1094,
						"contract": "contractss/GameRegistry.sol:GameRegistry",
						"label": "protocolSink",
						"offset": 0,
						"slot": "1",
						"type": "t_address"
					},
					{
						"astId": 1097,
						"contract": "contractss/GameRegistry.sol:GameRegistry",
						"label": "timbPrize",
						"offset": 0,
						"slot": "2",
						"type": "t_address"
					},
					{
						"astId": 1100,
						"contract": "contractss/GameRegistry.sol:GameRegistry",
						"label": "entryCostTIMBS",
						"offset": 0,
						"slot": "3",
						"type": "t_uint256"
					},
					{
						"astId": 1103,
						"contract": "contractss/GameRegistry.sol:GameRegistry",
						"label": "entryCostETH",
						"offset": 0,
						"slot": "4",
						"type": "t_uint256"
					},
					{
						"astId": 1106,
						"contract": "contractss/GameRegistry.sol:GameRegistry",
						"label": "currentRound",
						"offset": 0,
						"slot": "5",
						"type": "t_uint256"
					},
					{
						"astId": 1109,
						"contract": "contractss/GameRegistry.sol:GameRegistry",
						"label": "paused",
						"offset": 0,
						"slot": "6",
						"type": "t_bool"
					},
					{
						"astId": 1117,
						"contract": "contractss/GameRegistry.sol:GameRegistry",
						"label": "entries",
						"offset": 0,
						"slot": "7",
						"type": "t_mapping(t_address,t_mapping(t_uint256,t_struct(EntryData)1087_storage))"
					},
					{
						"astId": 1125,
						"contract": "contractss/GameRegistry.sol:GameRegistry",
						"label": "stringEntrants",
						"offset": 0,
						"slot": "8",
						"type": "t_mapping(t_uint256,t_mapping(t_bytes6,t_array(t_address)dyn_storage))"
					},
					{
						"astId": 1131,
						"contract": "contractss/GameRegistry.sol:GameRegistry",
						"label": "playerRounds",
						"offset": 0,
						"slot": "9",
						"type": "t_mapping(t_address,t_array(t_uint256)dyn_storage)"
					},
					{
						"astId": 1137,
						"contract": "contractss/GameRegistry.sol:GameRegistry",
						"label": "roundEntrants",
						"offset": 0,
						"slot": "10",
						"type": "t_mapping(t_uint256,t_array(t_address)dyn_storage)"
					},
					{
						"astId": 1144,
						"contract": "contractss/GameRegistry.sol:GameRegistry",
						"label": "hasEntryInRound",
						"offset": 0,
						"slot": "11",
						"type": "t_mapping(t_uint256,t_mapping(t_address,t_bool))"
					}
				],
				"types": {
					"t_address": {
						"encoding": "inplace",
						"label": "address",
						"numberOfBytes": "20"
					},
					"t_array(t_address)dyn_storage": {
						"base": "t_address",
						"encoding": "dynamic_array",
						"label": "address[]",
						"numberOfBytes": "32"
					},
					"t_array(t_uint256)dyn_storage": {
						"base": "t_uint256",
						"encoding": "dynamic_array",
						"label": "uint256[]",
						"numberOfBytes": "32"
					},
					"t_bool": {
						"encoding": "inplace",
						"label": "bool",
						"numberOfBytes": "1"
					},
					"t_bytes6": {
						"encoding": "inplace",
						"label": "bytes6",
						"numberOfBytes": "6"
					},
					"t_enum(EntryStatus)1070": {
						"encoding": "inplace",
						"label": "enum GameRegistry.EntryStatus",
						"numberOfBytes": "1"
					},
					"t_mapping(t_address,t_array(t_uint256)dyn_storage)": {
						"encoding": "mapping",
						"key": "t_address",
						"label": "mapping(address => uint256[])",
						"numberOfBytes": "32",
						"value": "t_array(t_uint256)dyn_storage"
					},
					"t_mapping(t_address,t_bool)": {
						"encoding": "mapping",
						"key": "t_address",
						"label": "mapping(address => bool)",
						"numberOfBytes": "32",
						"value": "t_bool"
					},
					"t_mapping(t_address,t_mapping(t_uint256,t_struct(EntryData)1087_storage))": {
						"encoding": "mapping",
						"key": "t_address",
						"label": "mapping(address => mapping(uint256 => struct GameRegistry.EntryData))",
						"numberOfBytes": "32",
						"value": "t_mapping(t_uint256,t_struct(EntryData)1087_storage)"
					},
					"t_mapping(t_bytes6,t_array(t_address)dyn_storage)": {
						"encoding": "mapping",
						"key": "t_bytes6",
						"label": "mapping(bytes6 => address[])",
						"numberOfBytes": "32",
						"value": "t_array(t_address)dyn_storage"
					},
					"t_mapping(t_uint256,t_array(t_address)dyn_storage)": {
						"encoding": "mapping",
						"key": "t_uint256",
						"label": "mapping(uint256 => address[])",
						"numberOfBytes": "32",
						"value": "t_array(t_address)dyn_storage"
					},
					"t_mapping(t_uint256,t_mapping(t_address,t_bool))": {
						"encoding": "mapping",
						"key": "t_uint256",
						"label": "mapping(uint256 => mapping(address => bool))",
						"numberOfBytes": "32",
						"value": "t_mapping(t_address,t_bool)"
					},
					"t_mapping(t_uint256,t_mapping(t_bytes6,t_array(t_address)dyn_storage))": {
						"encoding": "mapping",
						"key": "t_uint256",
						"label": "mapping(uint256 => mapping(bytes6 => address[]))",
						"numberOfBytes": "32",
						"value": "t_mapping(t_bytes6,t_array(t_address)dyn_storage)"
					},
					"t_mapping(t_uint256,t_struct(EntryData)1087_storage)": {
						"encoding": "mapping",
						"key": "t_uint256",
						"label": "mapping(uint256 => struct GameRegistry.EntryData)",
						"numberOfBytes": "32",
						"value": "t_struct(EntryData)1087_storage"
					},
					"t_struct(EntryData)1087_storage": {
						"encoding": "inplace",
						"label": "struct GameRegistry.EntryData",
						"members": [
							{
								"astId": 1073,
								"contract": "contractss/GameRegistry.sol:GameRegistry",
								"label": "string6",
								"offset": 0,
								"slot": "0",
								"type": "t_bytes6"
							},
							{
								"astId": 1075,
								"contract": "contractss/GameRegistry.sol:GameRegistry",
								"label": "entryRound",
								"offset": 0,
								"slot": "1",
								"type": "t_uint256"
							},
							{
								"astId": 1077,
								"contract": "contractss/GameRegistry.sol:GameRegistry",
								"label": "lastEligibleRound",
								"offset": 0,
								"slot": "2",
								"type": "t_uint256"
							},
							{
								"astId": 1079,
								"contract": "contractss/GameRegistry.sol:GameRegistry",
								"label": "escrowAmount",
								"offset": 0,
								"slot": "3",
								"type": "t_uint256"
							},
							{
								"astId": 1081,
								"contract": "contractss/GameRegistry.sol:GameRegistry",
								"label": "escrowToken",
								"offset": 0,
								"slot": "4",
								"type": "t_address"
							},
							{
								"astId": 1084,
								"contract": "contractss/GameRegistry.sol:GameRegistry",
								"label": "status",
								"offset": 20,
								"slot": "4",
								"type": "t_enum(EntryStatus)1070"
							},
							{
								"astId": 1086,
								"contract": "contractss/GameRegistry.sol:GameRegistry",
								"label": "exists",
								"offset": 21,
								"slot": "4",
								"type": "t_bool"
							}
						],
						"numberOfBytes": "160"
					},
					"t_uint256": {
						"encoding": "inplace",
						"label": "uint256",
						"numberOfBytes": "32"
					}
				}
			},
			"userdoc": {
				"kind": "user",
				"methods": {
					"activateRoundEntries(uint256,address[])": {
						"notice": "Activate entries for a round at round start."
					},
					"additionalRoundCost(uint256)": {
						"notice": "Returns additional round cost for N extra rounds."
					},
					"claimRefund(uint256)": {
						"notice": "Claim principal escrow refund for an expired entry."
					},
					"currentRound()": {
						"notice": "Current active round number (set by TimbPrize)."
					},
					"entries(address,uint256)": {
						"notice": "wallet → round → EntryData."
					},
					"entryCostETH()": {
						"notice": "Entry cost in ETH wei (derived from TIMBS price, owner-updatable)."
					},
					"entryCostTIMBS()": {
						"notice": "Entry cost in TIMBS (governance-set, mirrors TIMBSToken.entryCostTIMBS)."
					},
					"expireEntry(address,uint256)": {
						"notice": "Mark an entry as expired after its lastEligibleRound passes."
					},
					"getEntry(address,uint256)": {
						"notice": "Returns a player's entry for a specific round."
					},
					"getIdenticalCount(bytes6)": {
						"notice": "Returns identical entry count for a string in the next round."
					},
					"getPlayerHistory(address)": {
						"notice": "Returns a player's full entry history."
					},
					"getPlayerRounds(address)": {
						"notice": "Returns all rounds a player has entries in."
					},
					"getRoundEntrants(uint256)": {
						"notice": "Returns all wallet addresses with entries in a round."
					},
					"getStringEntrants(uint256,bytes6)": {
						"notice": "Returns all wallets that submitted a given string for a round."
					},
					"hasEntryInRound(uint256,address)": {
						"notice": "round → wallet → index in roundEntrants (for dedup check)."
					},
					"markInactive(address,uint256)": {
						"notice": "Mark an entry as Inactive (claim window closed, no claim made)."
					},
					"paused()": {
						"notice": "Emergency pause — blocks new entries, refunds always available."
					},
					"playerRounds(address,uint256)": {
						"notice": "wallet → rounds they have active entries in (for history)."
					},
					"protocolSink()": {
						"notice": "Protocol sink — receives additional-round TIMBS (out of circulation)."
					},
					"replaceEntry(bytes6,uint256)": {
						"notice": "Replace an existing entry string and/or round count."
					},
					"roundEntrants(uint256,uint256)": {
						"notice": "round → all wallets that submitted entries."
					},
					"setCurrentRound(uint256)": {
						"notice": "Update current round number."
					},
					"setEntryCosts(uint256,uint256)": {
						"notice": "Update entry costs."
					},
					"setProtocolSink(address)": {
						"notice": "Update protocol sink address."
					},
					"setTimbPrize(address)": {
						"notice": "Set or update TimbPrize address."
					},
					"stringEntrants(uint256,bytes6,uint256)": {
						"notice": "round → string → wallets that submitted that string.         Used for settlement winner lookup."
					},
					"submitEntry(bytes6,bool,uint256)": {
						"notice": "Submit a new entry for the next round."
					},
					"timbPrize()": {
						"notice": "TimbPrize — only address allowed to call settlement updates."
					},
					"timbsToken()": {
						"notice": "TIMBS token."
					},
					"validateString(bytes6)": {
						"notice": "Public view to validate a string before submitting."
					},
					"verifyEntryExisted(address,uint256)": {
						"notice": "Layer 1: Verify entry existed at round start."
					},
					"verifyEntryValid(address,uint256)": {
						"notice": "Layer 2: Verify entry is still valid at settlement."
					}
				},
				"notice": "Prize game entry storage, escrow, and lifecycle management. Responsibilities:   - Store player entries (6-char strings) for each round.   - Hold entry escrow (ETH or TIMBS) — ringfenced, never mingles     with protocol revenue or prize pool.   - Enforce string validation (6 chars, A-Z 0-9, no repeats, all caps).   - Manage entry lifecycle: Pending → Active → Expired → Claimed/Inactive.   - Handle entry replacement (all-in-one tx): old deposit transfers,     old additional-round TIMBS kept as protocol sink.   - Process principal refunds for expired entries.   - Expose dual-layer verification for TimbPrize settlement. Entry rules:   - 1 entry per wallet per round (replaceable).   - Entries set in round N play in round N+1.   - Initial entry cost: ETH (address(0)) or TIMBS — always refundable.   - Additional rounds: TIMBS only, non-refundable, protocol sink.   - ETH cost derived from TIMBSToken.entryCostTIMBS at entry time.   - No repeating characters in string.   - Claim window: 2 rounds after lastEligibleRound. Security (defiSKILL):   - ReentrancyGuard on all state-changing functions.   - msg.sender verified as entry owner before any escrow operation.   - ETH held as msg.value, TIMBS via safeTransferFrom.   - Additional-round TIMBS sent directly to protocol sink address     (never held in this contract).   - Pre-flight approval check on replacement before any state changes.   - Emergency pause on new entries — refunds always available.   - Only TimbPrize (authorised) can update entry status at settlement. Deployment:   1. Deploy GameRegistry(timbsToken, protocolSink, timbPrize)   2. setEntryCostParams(entryCostTIMBS, ethCostWei)   3. timbPrize.setGameRegistry(address(this))   4. Verify on Sourcify",
				"version": 1
			}
		}
	}
}