{
	"contracts/TimbStaking.sol": {
		"TimbStaking": {
			"abi": [
				{
					"inputs": [
						{
							"internalType": "address",
							"name": "_timbsToken",
							"type": "address"
						},
						{
							"internalType": "uint256",
							"name": "_rewardRatePerSecond",
							"type": "uint256"
						}
					],
					"stateMutability": "nonpayable",
					"type": "constructor"
				},
				{
					"inputs": [],
					"name": "ContractPaused",
					"type": "error"
				},
				{
					"inputs": [
						{
							"internalType": "uint256",
							"name": "required",
							"type": "uint256"
						},
						{
							"internalType": "uint256",
							"name": "available",
							"type": "uint256"
						}
					],
					"name": "InsufficientRewardBalance",
					"type": "error"
				},
				{
					"inputs": [
						{
							"internalType": "uint256",
							"name": "requested",
							"type": "uint256"
						},
						{
							"internalType": "uint256",
							"name": "available",
							"type": "uint256"
						}
					],
					"name": "InsufficientStake",
					"type": "error"
				},
				{
					"inputs": [],
					"name": "NoPendingRewards",
					"type": "error"
				},
				{
					"inputs": [],
					"name": "NotAuthorised",
					"type": "error"
				},
				{
					"inputs": [
						{
							"internalType": "address",
							"name": "owner",
							"type": "address"
						}
					],
					"name": "OwnableInvalidOwner",
					"type": "error"
				},
				{
					"inputs": [
						{
							"internalType": "address",
							"name": "account",
							"type": "address"
						}
					],
					"name": "OwnableUnauthorizedAccount",
					"type": "error"
				},
				{
					"inputs": [],
					"name": "ReentrancyGuardReentrantCall",
					"type": "error"
				},
				{
					"inputs": [
						{
							"internalType": "address",
							"name": "token",
							"type": "address"
						}
					],
					"name": "SafeERC20FailedOperation",
					"type": "error"
				},
				{
					"inputs": [],
					"name": "ZeroAddress",
					"type": "error"
				},
				{
					"inputs": [],
					"name": "ZeroAmount",
					"type": "error"
				},
				{
					"anonymous": false,
					"inputs": [
						{
							"indexed": true,
							"internalType": "address",
							"name": "user",
							"type": "address"
						},
						{
							"indexed": false,
							"internalType": "uint256",
							"name": "amount",
							"type": "uint256"
						}
					],
					"name": "EmergencyWithdraw",
					"type": "event"
				},
				{
					"anonymous": false,
					"inputs": [
						{
							"indexed": true,
							"internalType": "address",
							"name": "previousOwner",
							"type": "address"
						},
						{
							"indexed": true,
							"internalType": "address",
							"name": "newOwner",
							"type": "address"
						}
					],
					"name": "OwnershipTransferred",
					"type": "event"
				},
				{
					"anonymous": false,
					"inputs": [
						{
							"indexed": true,
							"internalType": "address",
							"name": "by",
							"type": "address"
						}
					],
					"name": "Paused",
					"type": "event"
				},
				{
					"anonymous": false,
					"inputs": [
						{
							"indexed": true,
							"internalType": "address",
							"name": "notifier",
							"type": "address"
						},
						{
							"indexed": false,
							"internalType": "uint256",
							"name": "amount",
							"type": "uint256"
						},
						{
							"indexed": false,
							"internalType": "uint256",
							"name": "duration",
							"type": "uint256"
						}
					],
					"name": "RewardNotified",
					"type": "event"
				},
				{
					"anonymous": false,
					"inputs": [
						{
							"indexed": true,
							"internalType": "address",
							"name": "notifier",
							"type": "address"
						},
						{
							"indexed": false,
							"internalType": "bool",
							"name": "authorised",
							"type": "bool"
						}
					],
					"name": "RewardNotifierSet",
					"type": "event"
				},
				{
					"anonymous": false,
					"inputs": [
						{
							"indexed": false,
							"internalType": "uint256",
							"name": "newRatePerSecond",
							"type": "uint256"
						}
					],
					"name": "RewardRateSet",
					"type": "event"
				},
				{
					"anonymous": false,
					"inputs": [
						{
							"indexed": true,
							"internalType": "address",
							"name": "user",
							"type": "address"
						},
						{
							"indexed": false,
							"internalType": "uint256",
							"name": "amount",
							"type": "uint256"
						}
					],
					"name": "RewardsClaimed",
					"type": "event"
				},
				{
					"anonymous": false,
					"inputs": [
						{
							"indexed": true,
							"internalType": "address",
							"name": "user",
							"type": "address"
						},
						{
							"indexed": false,
							"internalType": "uint256",
							"name": "amount",
							"type": "uint256"
						}
					],
					"name": "Staked",
					"type": "event"
				},
				{
					"anonymous": false,
					"inputs": [
						{
							"indexed": true,
							"internalType": "address",
							"name": "treasury",
							"type": "address"
						}
					],
					"name": "TreasurySet",
					"type": "event"
				},
				{
					"anonymous": false,
					"inputs": [
						{
							"indexed": true,
							"internalType": "address",
							"name": "by",
							"type": "address"
						}
					],
					"name": "Unpaused",
					"type": "event"
				},
				{
					"anonymous": false,
					"inputs": [
						{
							"indexed": true,
							"internalType": "address",
							"name": "user",
							"type": "address"
						},
						{
							"indexed": false,
							"internalType": "uint256",
							"name": "amount",
							"type": "uint256"
						}
					],
					"name": "Unstaked",
					"type": "event"
				},
				{
					"inputs": [],
					"name": "claimRewards",
					"outputs": [],
					"stateMutability": "nonpayable",
					"type": "function"
				},
				{
					"inputs": [
						{
							"internalType": "address",
							"name": "account",
							"type": "address"
						}
					],
					"name": "earned",
					"outputs": [
						{
							"internalType": "uint256",
							"name": "",
							"type": "uint256"
						}
					],
					"stateMutability": "view",
					"type": "function"
				},
				{
					"inputs": [],
					"name": "emergencyWithdraw",
					"outputs": [],
					"stateMutability": "nonpayable",
					"type": "function"
				},
				{
					"inputs": [],
					"name": "estimatedAPR",
					"outputs": [
						{
							"internalType": "uint256",
							"name": "aprBps",
							"type": "uint256"
						}
					],
					"stateMutability": "view",
					"type": "function"
				},
				{
					"inputs": [],
					"name": "exit",
					"outputs": [],
					"stateMutability": "nonpayable",
					"type": "function"
				},
				{
					"inputs": [],
					"name": "lastTimeRewardApplicable",
					"outputs": [
						{
							"internalType": "uint256",
							"name": "",
							"type": "uint256"
						}
					],
					"stateMutability": "view",
					"type": "function"
				},
				{
					"inputs": [],
					"name": "lastUpdateTime",
					"outputs": [
						{
							"internalType": "uint256",
							"name": "",
							"type": "uint256"
						}
					],
					"stateMutability": "view",
					"type": "function"
				},
				{
					"inputs": [
						{
							"internalType": "uint256",
							"name": "amount",
							"type": "uint256"
						},
						{
							"internalType": "uint256",
							"name": "duration",
							"type": "uint256"
						}
					],
					"name": "notifyRewardAmount",
					"outputs": [],
					"stateMutability": "nonpayable",
					"type": "function"
				},
				{
					"inputs": [],
					"name": "owner",
					"outputs": [
						{
							"internalType": "address",
							"name": "",
							"type": "address"
						}
					],
					"stateMutability": "view",
					"type": "function"
				},
				{
					"inputs": [],
					"name": "pause",
					"outputs": [],
					"stateMutability": "nonpayable",
					"type": "function"
				},
				{
					"inputs": [],
					"name": "paused",
					"outputs": [
						{
							"internalType": "bool",
							"name": "",
							"type": "bool"
						}
					],
					"stateMutability": "view",
					"type": "function"
				},
				{
					"inputs": [
						{
							"internalType": "address",
							"name": "",
							"type": "address"
						}
					],
					"name": "pendingRewards",
					"outputs": [
						{
							"internalType": "uint256",
							"name": "",
							"type": "uint256"
						}
					],
					"stateMutability": "view",
					"type": "function"
				},
				{
					"inputs": [],
					"name": "periodFinish",
					"outputs": [
						{
							"internalType": "uint256",
							"name": "",
							"type": "uint256"
						}
					],
					"stateMutability": "view",
					"type": "function"
				},
				{
					"inputs": [
						{
							"internalType": "address",
							"name": "token",
							"type": "address"
						},
						{
							"internalType": "uint256",
							"name": "amount",
							"type": "uint256"
						}
					],
					"name": "recoverERC20",
					"outputs": [],
					"stateMutability": "nonpayable",
					"type": "function"
				},
				{
					"inputs": [],
					"name": "renounceOwnership",
					"outputs": [],
					"stateMutability": "nonpayable",
					"type": "function"
				},
				{
					"inputs": [
						{
							"internalType": "address",
							"name": "",
							"type": "address"
						}
					],
					"name": "rewardNotifiers",
					"outputs": [
						{
							"internalType": "bool",
							"name": "",
							"type": "bool"
						}
					],
					"stateMutability": "view",
					"type": "function"
				},
				{
					"inputs": [],
					"name": "rewardPerToken",
					"outputs": [
						{
							"internalType": "uint256",
							"name": "",
							"type": "uint256"
						}
					],
					"stateMutability": "view",
					"type": "function"
				},
				{
					"inputs": [],
					"name": "rewardPerTokenStored",
					"outputs": [
						{
							"internalType": "uint256",
							"name": "",
							"type": "uint256"
						}
					],
					"stateMutability": "view",
					"type": "function"
				},
				{
					"inputs": [],
					"name": "rewardRatePerSecond",
					"outputs": [
						{
							"internalType": "uint256",
							"name": "",
							"type": "uint256"
						}
					],
					"stateMutability": "view",
					"type": "function"
				},
				{
					"inputs": [
						{
							"internalType": "address",
							"name": "notifier",
							"type": "address"
						},
						{
							"internalType": "bool",
							"name": "authorised",
							"type": "bool"
						}
					],
					"name": "setRewardNotifier",
					"outputs": [],
					"stateMutability": "nonpayable",
					"type": "function"
				},
				{
					"inputs": [
						{
							"internalType": "uint256",
							"name": "_ratePerSecond",
							"type": "uint256"
						}
					],
					"name": "setRewardRate",
					"outputs": [],
					"stateMutability": "nonpayable",
					"type": "function"
				},
				{
					"inputs": [
						{
							"internalType": "address",
							"name": "_treasury",
							"type": "address"
						}
					],
					"name": "setTreasury",
					"outputs": [],
					"stateMutability": "nonpayable",
					"type": "function"
				},
				{
					"inputs": [
						{
							"internalType": "uint256",
							"name": "amount",
							"type": "uint256"
						}
					],
					"name": "stake",
					"outputs": [],
					"stateMutability": "nonpayable",
					"type": "function"
				},
				{
					"inputs": [
						{
							"internalType": "address",
							"name": "",
							"type": "address"
						}
					],
					"name": "stakedBalance",
					"outputs": [
						{
							"internalType": "uint256",
							"name": "",
							"type": "uint256"
						}
					],
					"stateMutability": "view",
					"type": "function"
				},
				{
					"inputs": [],
					"name": "timbsToken",
					"outputs": [
						{
							"internalType": "contract IERC20",
							"name": "",
							"type": "address"
						}
					],
					"stateMutability": "view",
					"type": "function"
				},
				{
					"inputs": [],
					"name": "totalStaked",
					"outputs": [
						{
							"internalType": "uint256",
							"name": "",
							"type": "uint256"
						}
					],
					"stateMutability": "view",
					"type": "function"
				},
				{
					"inputs": [
						{
							"internalType": "address",
							"name": "newOwner",
							"type": "address"
						}
					],
					"name": "transferOwnership",
					"outputs": [],
					"stateMutability": "nonpayable",
					"type": "function"
				},
				{
					"inputs": [],
					"name": "treasury",
					"outputs": [
						{
							"internalType": "address",
							"name": "",
							"type": "address"
						}
					],
					"stateMutability": "view",
					"type": "function"
				},
				{
					"inputs": [],
					"name": "unpause",
					"outputs": [],
					"stateMutability": "nonpayable",
					"type": "function"
				},
				{
					"inputs": [
						{
							"internalType": "uint256",
							"name": "amount",
							"type": "uint256"
						}
					],
					"name": "unstake",
					"outputs": [],
					"stateMutability": "nonpayable",
					"type": "function"
				},
				{
					"inputs": [
						{
							"internalType": "address",
							"name": "",
							"type": "address"
						}
					],
					"name": "userRewardPerTokenPaid",
					"outputs": [
						{
							"internalType": "uint256",
							"name": "",
							"type": "uint256"
						}
					],
					"stateMutability": "view",
					"type": "function"
				}
			],
			"devdoc": {
				"errors": {
					"OwnableInvalidOwner(address)": [
						{
							"details": "The owner is not a valid owner account. (eg. `address(0)`)"
						}
					],
					"OwnableUnauthorizedAccount(address)": [
						{
							"details": "The caller account is not authorized to perform an operation."
						}
					],
					"ReentrancyGuardReentrantCall()": [
						{
							"details": "Unauthorized reentrant call."
						}
					],
					"SafeERC20FailedOperation(address)": [
						{
							"details": "An operation with an ERC-20 token failed."
						}
					]
				},
				"kind": "dev",
				"methods": {
					"claimRewards()": {
						"details": "Reward balance checked before transfer —      reverts if contract doesn't have enough TIMBS to pay."
					},
					"constructor": {
						"params": {
							"_rewardRatePerSecond": "Initial reward rate (TIMBS wei per second).",
							"_timbsToken": "TIMBS ERC-20 token address."
						}
					},
					"emergencyWithdraw()": {
						"details": "Safety valve only. Rewards are NOT paid on emergency withdraw."
					},
					"notifyRewardAmount(uint256,uint256)": {
						"details": "Called by owner or TimbTreasury (after buyback) to deposit      TIMBS and activate a new reward period.      If a period is still active, remaining rewards are rolled      into the new period before recalculating the rate.",
						"params": {
							"amount": "TIMBS amount to add to reward pool.",
							"duration": "Duration in seconds over which to distribute."
						}
					},
					"owner()": {
						"details": "Returns the address of the current owner."
					},
					"recoverERC20(address,uint256)": {
						"details": "Cannot recover staked TIMBS (protected by totalStaked check)."
					},
					"renounceOwnership()": {
						"details": "Leaves the contract without owner. It will not be possible to call `onlyOwner` functions. Can only be called by the current owner. NOTE: Renouncing ownership will leave the contract without an owner, thereby disabling any functionality that is only available to the owner."
					},
					"setRewardRate(uint256)": {
						"details": "Snapshots accumulator before changing rate.      Use notifyRewardAmount() for funding + rate update in one call."
					},
					"stake(uint256)": {
						"details": "No unique stake IDs — adds to accumulated balance.      Caller must approve this contract before calling.",
						"params": {
							"amount": "TIMBS amount to stake (18 decimals)."
						}
					},
					"transferOwnership(address)": {
						"details": "Transfers ownership of the contract to a new account (`newOwner`). Can only be called by the current owner."
					},
					"unstake(uint256)": {
						"details": "Collateral ownership verified: msg.sender can only unstake      their own balance. No delegate unstake.      Pending rewards are NOT auto-claimed — call claimRewards() separately      or use exit() for a combined unstake + claim.",
						"params": {
							"amount": "TIMBS amount to unstake."
						}
					}
				},
				"title": "TimbStaking",
				"version": 1
			},
			"evm": {
				"assembly": "    /* \"contracts/TimbStaking.sol\":1908:16567  contract TimbStaking is Ownable, ReentrancyGuard {... */\n  mstore(0x40, 0xa0)\n    /* \"contracts/TimbStaking.sol\":5887:6197  constructor(address _timbsToken, uint256 _rewardRatePerSecond)... */\n  callvalue\n  dup1\n  iszero\n  tag_1\n  jumpi\n  0x00\n  dup1\n  revert\ntag_1:\n  pop\n  mload(0x40)\n  sub(codesize, bytecodeSize)\n  dup1\n  bytecodeSize\n  dup4\n  codecopy\n  dup2\n  add\n  0x40\n  dup2\n  swap1\n  mstore\n  tag_2\n  swap2\n  tag_3\n  jump\t// in\ntag_2:\n    /* \"contracts/TimbStaking.sol\":5966:5976  msg.sender */\n  caller\n  dup1\n    /* \"@openzeppelin/contracts/access/Ownable.sol\":1269:1364  if (initialOwner == address(0)) {... */\n  tag_8\n  jumpi\n    /* \"@openzeppelin/contracts/access/Ownable.sol\":1322:1353  OwnableInvalidOwner(address(0)) */\n  mload(0x40)\n  shl(0xe0, 0x1e4fbdf7)\n  dup2\n  mstore\n    /* \"@openzeppelin/contracts/access/Ownable.sol\":1350:1351  0 */\n  0x00\n    /* \"@openzeppelin/contracts/access/Ownable.sol\":1322:1353  OwnableInvalidOwner(address(0)) */\n  0x04\n  dup3\n  add\n    /* \"#utility.yul\":516:567   */\n  mstore\n    /* \"#utility.yul\":489:507   */\n  0x24\n  add\n    /* \"@openzeppelin/contracts/access/Ownable.sol\":1322:1353  OwnableInvalidOwner(address(0)) */\n  mload(0x40)\n  dup1\n  swap2\n  sub\n  swap1\n  revert\n    /* \"@openzeppelin/contracts/access/Ownable.sol\":1269:1364  if (initialOwner == address(0)) {... */\ntag_8:\n    /* \"@openzeppelin/contracts/access/Ownable.sol\":1373:1405  _transferOwnership(initialOwner) */\n  tag_11\n    /* \"@openzeppelin/contracts/access/Ownable.sol\":1392:1404  initialOwner */\n  dup2\n    /* \"@openzeppelin/contracts/access/Ownable.sol\":1373:1391  _transferOwnership */\n  tag_12\n    /* \"@openzeppelin/contracts/access/Ownable.sol\":1373:1405  _transferOwnership(initialOwner) */\n  jump\t// in\ntag_11:\n  pop\n    /* \"@openzeppelin/contracts/utils/ReentrancyGuard.sol\":2365:2366  1 */\n  0x01\n    /* \"@openzeppelin/contracts/utils/ReentrancyGuard.sol\":1505:1571  0x9b779b17422d0df92223018b32b4d1fa46e071723d6817e2486d003becc55f00 */\n  0x9b779b17422d0df92223018b32b4d1fa46e071723d6817e2486d003becc55f00\n    /* \"@openzeppelin/contracts/utils/ReentrancyGuard.sol\":2539:2605  _reentrancyGuardStorageSlot().getUint256Slot().value = NOT_ENTERED */\n  sstore\n  sub(shl(0xa0, 0x01), 0x01)\n    /* \"contracts/TimbStaking.sol\":5996:6021  _timbsToken == address(0) */\n  dup3\n  and\n    /* \"contracts/TimbStaking.sol\":5992:6043  if (_timbsToken == address(0)) revert ZeroAddress() */\n  tag_19\n  jumpi\n    /* \"contracts/TimbStaking.sol\":6030:6043  ZeroAddress() */\n  mload(0x40)\n  shl(0xe0, 0xd92e233d)\n  dup2\n  mstore\n  0x04\n  add\n  mload(0x40)\n  dup1\n  swap2\n  sub\n  swap1\n  revert\n    /* \"contracts/TimbStaking.sol\":5992:6043  if (_timbsToken == address(0)) revert ZeroAddress() */\ntag_19:\n  sub(shl(0xa0, 0x01), 0x01)\n    /* \"contracts/TimbStaking.sol\":6053:6094  timbsToken          = IERC20(_timbsToken) */\n  swap1\n  swap2\n  and\n  0x80\n  mstore\n    /* \"contracts/TimbStaking.sol\":6104:6123  rewardRatePerSecond */\n  0x02\n    /* \"contracts/TimbStaking.sol\":6104:6146  rewardRatePerSecond = _rewardRatePerSecond */\n  sstore\n    /* \"contracts/TimbStaking.sol\":6172:6182  msg.sender */\n  caller\n    /* \"contracts/TimbStaking.sol\":6156:6183  rewardNotifiers[msg.sender] */\n  0x00\n  swap1\n  dup2\n  mstore\n    /* \"contracts/TimbStaking.sol\":6156:6171  rewardNotifiers */\n  0x0a\n    /* \"contracts/TimbStaking.sol\":6156:6183  rewardNotifiers[msg.sender] */\n  0x20\n  mstore\n  0x40\n  swap1\n  keccak256\n    /* \"contracts/TimbStaking.sol\":6156:6190  rewardNotifiers[msg.sender] = true */\n  dup1\n  sload\n  not(0xff)\n  and\n    /* \"contracts/TimbStaking.sol\":6186:6190  true */\n  0x01\n    /* \"contracts/TimbStaking.sol\":6156:6190  rewardNotifiers[msg.sender] = true */\n  or\n  swap1\n  sstore\n    /* \"contracts/TimbStaking.sol\":1908:16567  contract TimbStaking is Ownable, ReentrancyGuard {... */\n  jump(tag_24)\n    /* \"@openzeppelin/contracts/access/Ownable.sol\":2912:3099  function _transferOwnership(address newOwner) internal virtual {... */\ntag_12:\n    /* \"@openzeppelin/contracts/access/Ownable.sol\":2985:3001  address oldOwner */\n  0x00\n    /* \"@openzeppelin/contracts/access/Ownable.sol\":3004:3010  _owner */\n  dup1\n  sload\n  sub(shl(0xa0, 0x01), 0x01)\n    /* \"@openzeppelin/contracts/access/Ownable.sol\":3020:3037  _owner = newOwner */\n  dup4\n  dup2\n  and\n  not(sub(shl(0xa0, 0x01), 0x01))\n  dup4\n  and\n  dup2\n  or\n  dup5\n  sstore\n    /* \"@openzeppelin/contracts/access/Ownable.sol\":3052:3092  OwnershipTransferred(oldOwner, newOwner) */\n  mload(0x40)\n    /* \"@openzeppelin/contracts/access/Ownable.sol\":3004:3010  _owner */\n  swap2\n  swap1\n  swap3\n  and\n  swap3\n  dup4\n  swap2\n    /* \"@openzeppelin/contracts/access/Ownable.sol\":3052:3092  OwnershipTransferred(oldOwner, newOwner) */\n  0x8be0079c531659141344cd1fd0a4f28419497f9722a3daafe3b4186f6b6457e0\n  swap2\n    /* \"@openzeppelin/contracts/access/Ownable.sol\":2985:3001  address oldOwner */\n  swap1\n    /* \"@openzeppelin/contracts/access/Ownable.sol\":3052:3092  OwnershipTransferred(oldOwner, newOwner) */\n  log3\n    /* \"@openzeppelin/contracts/access/Ownable.sol\":2975:3099  {... */\n  pop\n    /* \"@openzeppelin/contracts/access/Ownable.sol\":2912:3099  function _transferOwnership(address newOwner) internal virtual {... */\n  pop\n  jump\t// out\n    /* \"#utility.yul\":14:365   */\ntag_3:\n    /* \"#utility.yul\":93:99   */\n  0x00\n    /* \"#utility.yul\":101:107   */\n  dup1\n    /* \"#utility.yul\":154:156   */\n  0x40\n    /* \"#utility.yul\":142:151   */\n  dup4\n    /* \"#utility.yul\":133:140   */\n  dup6\n    /* \"#utility.yul\":129:152   */\n  sub\n    /* \"#utility.yul\":125:157   */\n  slt\n    /* \"#utility.yul\":122:174   */\n  iszero\n  tag_26\n  jumpi\n    /* \"#utility.yul\":170:171   */\n  0x00\n    /* \"#utility.yul\":167:168   */\n  dup1\n    /* \"#utility.yul\":160:172   */\n  revert\n    /* \"#utility.yul\":122:174   */\ntag_26:\n    /* \"#utility.yul\":196:212   */\n  dup3\n  mload\n  sub(shl(0xa0, 0x01), 0x01)\n    /* \"#utility.yul\":241:272   */\n  dup2\n  and\n    /* \"#utility.yul\":231:273   */\n  dup2\n  eq\n    /* \"#utility.yul\":221:291   */\n  tag_27\n  jumpi\n    /* \"#utility.yul\":287:288   */\n  0x00\n    /* \"#utility.yul\":284:285   */\n  dup1\n    /* \"#utility.yul\":277:289   */\n  revert\n    /* \"#utility.yul\":221:291   */\ntag_27:\n    /* \"#utility.yul\":355:357   */\n  0x20\n    /* \"#utility.yul\":340:358   */\n  swap4\n  swap1\n  swap4\n  add\n    /* \"#utility.yul\":334:359   */\n  mload\n    /* \"#utility.yul\":310:315   */\n  swap3\n  swap5\n    /* \"#utility.yul\":334:359   */\n  swap3\n  swap4\n  pop\n  pop\n  pop\n    /* \"#utility.yul\":14:365   */\n  jump\t// out\n    /* \"#utility.yul\":370:573   */\ntag_24:\n    /* \"contracts/TimbStaking.sol\":1908:16567  contract TimbStaking is Ownable, ReentrancyGuard {... */\n  mload(0x80)\n  codecopy(0x00, dataOffset(sub_0), dataSize(sub_0))\n  0x00\n  assignImmutable(\"0x962c584afcd4dd6cb0e25fef291e59a13b9ae1b34d13f25b13a34669b807535c\")\n  return(0x00, dataSize(sub_0))\nstop\n\nsub_0: assembly {\n        /* \"contracts/TimbStaking.sol\":1908:16567  contract TimbStaking is Ownable, ReentrancyGuard {... */\n      mstore(0x40, 0x80)\n      callvalue\n      dup1\n      iszero\n      tag_1\n      jumpi\n      0x00\n      dup1\n      revert\n    tag_1:\n      pop\n      jumpi(tag_2, lt(calldatasize, 0x04))\n      shr(0xe0, calldataload(0x00))\n      dup1\n      0x817b1cd2\n      gt\n      tag_34\n      jumpi\n      dup1\n      0xcd3daf9d\n      gt\n      tag_35\n      jumpi\n      dup1\n      0xe9fad8ee\n      gt\n      tag_36\n      jumpi\n      dup1\n      0xe9fad8ee\n      eq\n      tag_30\n      jumpi\n      dup1\n      0xebe2b12b\n      eq\n      tag_31\n      jumpi\n      dup1\n      0xf0f44260\n      eq\n      tag_32\n      jumpi\n      dup1\n      0xf2fde38b\n      eq\n      tag_33\n      jumpi\n      0x00\n      dup1\n      revert\n    tag_36:\n      dup1\n      0xcd3daf9d\n      eq\n      tag_26\n      jumpi\n      dup1\n      0xd15166ff\n      eq\n      tag_27\n      jumpi\n      dup1\n      0xdb2e21bc\n      eq\n      tag_28\n      jumpi\n      dup1\n      0xdf136d65\n      eq\n      tag_29\n      jumpi\n      0x00\n      dup1\n      revert\n    tag_35:\n      dup1\n      0x8da5cb5b\n      gt\n      tag_37\n      jumpi\n      dup1\n      0x8da5cb5b\n      eq\n      tag_22\n      jumpi\n      dup1\n      0x9e447fc6\n      eq\n      tag_23\n      jumpi\n      dup1\n      0xa694fc3a\n      eq\n      tag_24\n      jumpi\n      dup1\n      0xc8f33c91\n      eq\n      tag_25\n      jumpi\n      0x00\n      dup1\n      revert\n    tag_37:\n      dup1\n      0x817b1cd2\n      eq\n      tag_18\n      jumpi\n      dup1\n      0x8456cb59\n      eq\n      tag_19\n      jumpi\n      dup1\n      0x8980f11f\n      eq\n      tag_20\n      jumpi\n      dup1\n      0x8b876347\n      eq\n      tag_21\n      jumpi\n      0x00\n      dup1\n      revert\n    tag_34:\n      dup1\n      0x3f4ba83a\n      gt\n      tag_38\n      jumpi\n      dup1\n      0x60217267\n      gt\n      tag_39\n      jumpi\n      dup1\n      0x60217267\n      eq\n      tag_14\n      jumpi\n      dup1\n      0x61d027b3\n      eq\n      tag_15\n      jumpi\n      dup1\n      0x715018a6\n      eq\n      tag_16\n      jumpi\n      dup1\n      0x80faa57d\n      eq\n      tag_17\n      jumpi\n      0x00\n      dup1\n      revert\n    tag_39:\n      dup1\n      0x3f4ba83a\n      eq\n      tag_10\n      jumpi\n      dup1\n      0x5a5cd45e\n      eq\n      tag_11\n      jumpi\n      dup1\n      0x5c975abb\n      eq\n      tag_12\n      jumpi\n      dup1\n      0x5d773b2c\n      eq\n      tag_13\n      jumpi\n      0x00\n      dup1\n      revert\n    tag_38:\n      dup1\n      0x255a4f73\n      gt\n      tag_40\n      jumpi\n      dup1\n      0x255a4f73\n      eq\n      tag_6\n      jumpi\n      dup1\n      0x2e17de78\n      eq\n      tag_7\n      jumpi\n      dup1\n      0x31d7a262\n      eq\n      tag_8\n      jumpi\n      dup1\n      0x372500ab\n      eq\n      tag_9\n      jumpi\n      0x00\n      dup1\n      revert\n    tag_40:\n      dup1\n      0x8cc262\n      eq\n      tag_3\n      jumpi\n      dup1\n      0x0e31648f\n      eq\n      tag_4\n      jumpi\n      dup1\n      0x246132f9\n      eq\n      tag_5\n      jumpi\n    tag_2:\n      0x00\n      dup1\n      revert\n        /* \"contracts/TimbStaking.sol\":7245:7498  function earned(address account) public view returns (uint256) {... */\n    tag_3:\n      tag_41\n      tag_42\n      calldatasize\n      0x04\n      tag_43\n      jump\t// in\n    tag_42:\n      tag_44\n      jump\t// in\n    tag_41:\n      mload(0x40)\n        /* \"#utility.yul\":529:554   */\n      swap1\n      dup2\n      mstore\n        /* \"#utility.yul\":517:519   */\n      0x20\n        /* \"#utility.yul\":502:520   */\n      add\n        /* \"contracts/TimbStaking.sol\":7245:7498  function earned(address account) public view returns (uint256) {... */\n    tag_45:\n      mload(0x40)\n      dup1\n      swap2\n      sub\n      swap1\n      return\n        /* \"contracts/TimbStaking.sol\":2261:2295  IERC20 public immutable timbsToken */\n    tag_4:\n      tag_47\n      immutable(\"0x962c584afcd4dd6cb0e25fef291e59a13b9ae1b34d13f25b13a34669b807535c\")\n      dup2\n      jump\n    tag_47:\n      mload(0x40)\n      sub(shl(0xa0, 0x01), 0x01)\n        /* \"#utility.yul\":743:775   */\n      swap1\n      swap2\n      and\n        /* \"#utility.yul\":725:776   */\n      dup2\n      mstore\n        /* \"#utility.yul\":713:715   */\n      0x20\n        /* \"#utility.yul\":698:716   */\n      add\n        /* \"contracts/TimbStaking.sol\":2261:2295  IERC20 public immutable timbsToken */\n      tag_45\n        /* \"#utility.yul\":565:782   */\n      jump\n        /* \"contracts/TimbStaking.sol\":12570:13537  function notifyRewardAmount(uint256 amount, uint256 duration)... */\n    tag_5:\n      tag_51\n      tag_52\n      calldatasize\n      0x04\n      tag_53\n      jump\t// in\n    tag_52:\n      tag_54\n      jump\t// in\n    tag_51:\n      stop\n        /* \"contracts/TimbStaking.sol\":14746:15014  function setRewardNotifier(address notifier, bool authorised)... */\n    tag_6:\n      tag_51\n      tag_56\n      calldatasize\n      0x04\n      tag_57\n      jump\t// in\n    tag_56:\n      tag_58\n      jump\t// in\n        /* \"contracts/TimbStaking.sol\":9426:9931  function unstake(uint256 amount)... */\n    tag_7:\n      tag_51\n      tag_60\n      calldatasize\n      0x04\n      tag_61\n      jump\t// in\n    tag_60:\n      tag_62\n      jump\t// in\n        /* \"contracts/TimbStaking.sol\":3324:3373  mapping(address => uint256) public pendingRewards */\n    tag_8:\n      tag_41\n      tag_64\n      calldatasize\n      0x04\n      tag_43\n      jump\t// in\n    tag_64:\n      mstore(0x20, 0x09)\n      0x00\n      swap1\n      dup2\n      mstore\n      0x40\n      swap1\n      keccak256\n      sload\n      dup2\n      jump\n        /* \"contracts/TimbStaking.sol\":10323:10907  function claimRewards()... */\n    tag_9:\n      tag_51\n      tag_68\n      jump\t// in\n        /* \"contracts/TimbStaking.sol\":15185:15269  function unpause() external onlyOwner { paused = false; emit Unpaused(msg.sender); } */\n    tag_10:\n      tag_51\n      tag_70\n      jump\t// in\n        /* \"contracts/TimbStaking.sol\":7669:7962  function estimatedAPR() external view returns (uint256 aprBps) {... */\n    tag_11:\n      tag_41\n      tag_72\n      jump\t// in\n        /* \"contracts/TimbStaking.sol\":3574:3592  bool public paused */\n    tag_12:\n      sload(0x0b)\n      tag_74\n      swap1\n      0xff\n      and\n      dup2\n      jump\n    tag_74:\n      mload(0x40)\n        /* \"#utility.yul\":1742:1756   */\n      swap1\n      iszero\n        /* \"#utility.yul\":1735:1757   */\n      iszero\n        /* \"#utility.yul\":1717:1758   */\n      dup2\n      mstore\n        /* \"#utility.yul\":1705:1707   */\n      0x20\n        /* \"#utility.yul\":1690:1708   */\n      add\n        /* \"contracts/TimbStaking.sol\":3574:3592  bool public paused */\n      tag_45\n        /* \"#utility.yul\":1577:1764   */\n      jump\n        /* \"contracts/TimbStaking.sol\":2561:2595  uint256 public rewardRatePerSecond */\n    tag_13:\n      tag_41\n      sload(0x02)\n      dup2\n      jump\n        /* \"contracts/TimbStaking.sol\":3061:3109  mapping(address => uint256) public stakedBalance */\n    tag_14:\n      tag_41\n      tag_82\n      calldatasize\n      0x04\n      tag_43\n      jump\t// in\n    tag_82:\n      mstore(0x20, 0x07)\n      0x00\n      swap1\n      dup2\n      mstore\n      0x40\n      swap1\n      keccak256\n      sload\n      dup2\n      jump\n        /* \"contracts/TimbStaking.sol\":2376:2399  address public treasury */\n    tag_15:\n      sload(0x01)\n      tag_47\n      swap1\n      sub(shl(0xa0, 0x01), 0x01)\n      and\n      dup2\n      jump\n        /* \"@openzeppelin/contracts/access/Ownable.sol\":2293:2394  function renounceOwnership() public virtual onlyOwner {... */\n    tag_16:\n      tag_51\n      tag_90\n      jump\t// in\n        /* \"contracts/TimbStaking.sol\":6541:6694  function lastTimeRewardApplicable() public view returns (uint256) {... */\n    tag_17:\n      tag_41\n      tag_92\n      jump\t// in\n        /* \"contracts/TimbStaking.sol\":2984:3010  uint256 public totalStaked */\n    tag_18:\n      tag_41\n      sload(0x06)\n      dup2\n      jump\n        /* \"contracts/TimbStaking.sol\":15098:15180  function pause()   external onlyOwner { paused = true;  emit Paused(msg.sender); } */\n    tag_19:\n      tag_51\n      tag_98\n      jump\t// in\n        /* \"contracts/TimbStaking.sol\":16132:16565  function recoverERC20(address token, uint256 amount) external onlyOwner {... */\n    tag_20:\n      tag_51\n      tag_100\n      calldatasize\n      0x04\n      tag_101\n      jump\t// in\n    tag_100:\n      tag_102\n      jump\t// in\n        /* \"contracts/TimbStaking.sol\":3192:3249  mapping(address => uint256) public userRewardPerTokenPaid */\n    tag_21:\n      tag_41\n      tag_104\n      calldatasize\n      0x04\n      tag_43\n      jump\t// in\n    tag_104:\n      mstore(0x20, 0x08)\n      0x00\n      swap1\n      dup2\n      mstore\n      0x40\n      swap1\n      keccak256\n      sload\n      dup2\n      jump\n        /* \"@openzeppelin/contracts/access/Ownable.sol\":1638:1723  function owner() public view virtual returns (address) {... */\n    tag_22:\n        /* \"@openzeppelin/contracts/access/Ownable.sol\":1684:1691  address */\n      0x00\n        /* \"@openzeppelin/contracts/access/Ownable.sol\":1710:1716  _owner */\n      sload\n      sub(shl(0xa0, 0x01), 0x01)\n      and\n        /* \"@openzeppelin/contracts/access/Ownable.sol\":1638:1723  function owner() public view virtual returns (address) {... */\n      jump(tag_47)\n        /* \"contracts/TimbStaking.sol\":13752:13968  function setRewardRate(uint256 _ratePerSecond)... */\n    tag_23:\n      tag_51\n      tag_111\n      calldatasize\n      0x04\n      tag_61\n      jump\t// in\n    tag_111:\n      tag_112\n      jump\t// in\n        /* \"contracts/TimbStaking.sol\":8439:8826  function stake(uint256 amount)... */\n    tag_24:\n      tag_51\n      tag_114\n      calldatasize\n      0x04\n      tag_61\n      jump\t// in\n    tag_114:\n      tag_115\n      jump\t// in\n        /* \"contracts/TimbStaking.sol\":2760:2789  uint256 public lastUpdateTime */\n    tag_25:\n      tag_41\n      sload(0x04)\n      dup2\n      jump\n        /* \"contracts/TimbStaking.sol\":6794:7140  function rewardPerToken() public view returns (uint256) {... */\n    tag_26:\n      tag_41\n      tag_120\n      jump\t// in\n        /* \"contracts/TimbStaking.sol\":3482:3529  mapping(address => bool) public rewardNotifiers */\n    tag_27:\n      tag_74\n      tag_123\n      calldatasize\n      0x04\n      tag_43\n      jump\t// in\n    tag_123:\n      mstore(0x20, 0x0a)\n      0x00\n      swap1\n      dup2\n      mstore\n      0x40\n      swap1\n      keccak256\n      sload\n      0xff\n      and\n      dup2\n      jump\n        /* \"contracts/TimbStaking.sol\":15499:15954  function emergencyWithdraw() external nonReentrant {... */\n    tag_28:\n      tag_51\n      tag_127\n      jump\t// in\n        /* \"contracts/TimbStaking.sol\":2879:2914  uint256 public rewardPerTokenStored */\n    tag_29:\n      tag_41\n      sload(0x05)\n      dup2\n      jump\n        /* \"contracts/TimbStaking.sol\":11003:11896  function exit()... */\n    tag_30:\n      tag_51\n      tag_132\n      jump\t// in\n        /* \"contracts/TimbStaking.sol\":2661:2688  uint256 public periodFinish */\n    tag_31:\n      tag_41\n      sload(0x03)\n      dup2\n      jump\n        /* \"contracts/TimbStaking.sol\":14270:14668  function setTreasury(address _treasury) external onlyOwner {... */\n    tag_32:\n      tag_51\n      tag_137\n      calldatasize\n      0x04\n      tag_43\n      jump\t// in\n    tag_137:\n      tag_138\n      jump\t// in\n        /* \"@openzeppelin/contracts/access/Ownable.sol\":2543:2758  function transferOwnership(address newOwner) public virtual onlyOwner {... */\n    tag_33:\n      tag_51\n      tag_140\n      calldatasize\n      0x04\n      tag_43\n      jump\t// in\n    tag_140:\n      tag_141\n      jump\t// in\n        /* \"contracts/TimbStaking.sol\":7245:7498  function earned(address account) public view returns (uint256) {... */\n    tag_44:\n      sub(shl(0xa0, 0x01), 0x01)\n        /* \"contracts/TimbStaking.sol\":7468:7491  pendingRewards[account] */\n      dup2\n      and\n        /* \"contracts/TimbStaking.sol\":7299:7306  uint256 */\n      0x00\n        /* \"contracts/TimbStaking.sol\":7468:7491  pendingRewards[account] */\n      swap1\n      dup2\n      mstore\n        /* \"contracts/TimbStaking.sol\":7468:7482  pendingRewards */\n      0x09\n        /* \"contracts/TimbStaking.sol\":7468:7491  pendingRewards[account] */\n      0x20\n      swap1\n      dup2\n      mstore\n      0x40\n      dup1\n      dup4\n      keccak256\n      sload\n        /* \"contracts/TimbStaking.sol\":7400:7422  userRewardPerTokenPaid */\n      0x08\n        /* \"contracts/TimbStaking.sol\":7400:7431  userRewardPerTokenPaid[account] */\n      swap1\n      swap3\n      mstore\n      dup3\n      keccak256\n      sload\n        /* \"contracts/TimbStaking.sol\":7451:7455  1e18 */\n      0x0de0b6b3a7640000\n      swap1\n        /* \"contracts/TimbStaking.sol\":7381:7397  rewardPerToken() */\n      tag_143\n        /* \"contracts/TimbStaking.sol\":7381:7395  rewardPerToken */\n      tag_120\n        /* \"contracts/TimbStaking.sol\":7381:7397  rewardPerToken() */\n      jump\t// in\n    tag_143:\n        /* \"contracts/TimbStaking.sol\":7381:7431  rewardPerToken() - userRewardPerTokenPaid[account] */\n      tag_144\n      swap2\n      swap1\n      tag_145\n      jump\t// in\n    tag_144:\n      sub(shl(0xa0, 0x01), 0x01)\n        /* \"contracts/TimbStaking.sol\":7339:7361  stakedBalance[account] */\n      dup6\n      and\n      0x00\n      swap1\n      dup2\n      mstore\n        /* \"contracts/TimbStaking.sol\":7339:7352  stakedBalance */\n      0x07\n        /* \"contracts/TimbStaking.sol\":7339:7361  stakedBalance[account] */\n      0x20\n      mstore\n      0x40\n      swap1\n      keccak256\n      sload\n        /* \"contracts/TimbStaking.sol\":7339:7432  stakedBalance[account]... */\n      tag_146\n      swap2\n      swap1\n      tag_147\n      jump\t// in\n    tag_146:\n        /* \"contracts/TimbStaking.sol\":7339:7455  stakedBalance[account]... */\n      tag_148\n      swap2\n      swap1\n      tag_149\n      jump\t// in\n    tag_148:\n        /* \"contracts/TimbStaking.sol\":7325:7491  (... */\n      tag_150\n      swap2\n      swap1\n      tag_151\n      jump\t// in\n    tag_150:\n        /* \"contracts/TimbStaking.sol\":7318:7491  return (... */\n      swap3\n        /* \"contracts/TimbStaking.sol\":7245:7498  function earned(address account) public view returns (uint256) {... */\n      swap2\n      pop\n      pop\n      jump\t// out\n        /* \"contracts/TimbStaking.sol\":12570:13537  function notifyRewardAmount(uint256 amount, uint256 duration)... */\n    tag_54:\n        /* \"@openzeppelin/contracts/utils/ReentrancyGuard.sol\":3023:3044  _nonReentrantBefore() */\n      tag_153\n        /* \"@openzeppelin/contracts/utils/ReentrancyGuard.sol\":3023:3042  _nonReentrantBefore */\n      tag_154\n        /* \"@openzeppelin/contracts/utils/ReentrancyGuard.sol\":3023:3044  _nonReentrantBefore() */\n      jump\t// in\n    tag_153:\n        /* \"contracts/TimbStaking.sol\":12699:12700  0 */\n      0x00\n        /* \"contracts/TimbStaking.sol\":5253:5269  rewardPerToken() */\n      tag_156\n        /* \"contracts/TimbStaking.sol\":5253:5267  rewardPerToken */\n      tag_120\n        /* \"contracts/TimbStaking.sol\":5253:5269  rewardPerToken() */\n      jump\t// in\n    tag_156:\n        /* \"contracts/TimbStaking.sol\":5230:5250  rewardPerTokenStored */\n      0x05\n        /* \"contracts/TimbStaking.sol\":5230:5269  rewardPerTokenStored = rewardPerToken() */\n      sstore\n        /* \"contracts/TimbStaking.sol\":5302:5328  lastTimeRewardApplicable() */\n      tag_157\n        /* \"contracts/TimbStaking.sol\":5302:5326  lastTimeRewardApplicable */\n      tag_92\n        /* \"contracts/TimbStaking.sol\":5302:5328  lastTimeRewardApplicable() */\n      jump\t// in\n    tag_157:\n        /* \"contracts/TimbStaking.sol\":5279:5293  lastUpdateTime */\n      0x04\n        /* \"contracts/TimbStaking.sol\":5279:5328  lastUpdateTime       = lastTimeRewardApplicable() */\n      sstore\n      sub(shl(0xa0, 0x01), 0x01)\n        /* \"contracts/TimbStaking.sol\":5342:5363  account != address(0) */\n      dup2\n      and\n      iszero\n        /* \"contracts/TimbStaking.sol\":5338:5506  if (account != address(0)) {... */\n      tag_158\n      jumpi\n        /* \"contracts/TimbStaking.sol\":5412:5427  earned(account) */\n      tag_159\n        /* \"contracts/TimbStaking.sol\":5419:5426  account */\n      dup2\n        /* \"contracts/TimbStaking.sol\":5412:5418  earned */\n      tag_44\n        /* \"contracts/TimbStaking.sol\":5412:5427  earned(account) */\n      jump\t// in\n    tag_159:\n      sub(shl(0xa0, 0x01), 0x01)\n        /* \"contracts/TimbStaking.sol\":5379:5402  pendingRewards[account] */\n      dup3\n      and\n      0x00\n      swap1\n      dup2\n      mstore\n        /* \"contracts/TimbStaking.sol\":5379:5393  pendingRewards */\n      0x09\n        /* \"contracts/TimbStaking.sol\":5379:5402  pendingRewards[account] */\n      0x20\n      swap1\n      dup2\n      mstore\n      0x40\n      dup1\n      dup4\n      keccak256\n        /* \"contracts/TimbStaking.sol\":5379:5427  pendingRewards[account]        = earned(account) */\n      swap4\n      swap1\n      swap4\n      sstore\n        /* \"contracts/TimbStaking.sol\":5475:5495  rewardPerTokenStored */\n      sload(0x05)\n        /* \"contracts/TimbStaking.sol\":5441:5463  userRewardPerTokenPaid */\n      0x08\n        /* \"contracts/TimbStaking.sol\":5441:5472  userRewardPerTokenPaid[account] */\n      swap1\n      swap2\n      mstore\n      swap2\n      swap1\n      keccak256\n        /* \"contracts/TimbStaking.sol\":5441:5495  userRewardPerTokenPaid[account] = rewardPerTokenStored */\n      sstore\n        /* \"contracts/TimbStaking.sol\":5338:5506  if (account != address(0)) {... */\n    tag_158:\n        /* \"contracts/TimbStaking.sol\":12738:12748  msg.sender */\n      caller\n        /* \"contracts/TimbStaking.sol\":12722:12749  rewardNotifiers[msg.sender] */\n      0x00\n      swap1\n      dup2\n      mstore\n        /* \"contracts/TimbStaking.sol\":12722:12737  rewardNotifiers */\n      0x0a\n        /* \"contracts/TimbStaking.sol\":12722:12749  rewardNotifiers[msg.sender] */\n      0x20\n      mstore\n      0x40\n      swap1\n      keccak256\n      sload\n      0xff\n      and\n        /* \"contracts/TimbStaking.sol\":12721:12749  !rewardNotifiers[msg.sender] */\n      iszero\n        /* \"contracts/TimbStaking.sol\":12721:12774  !rewardNotifiers[msg.sender] && msg.sender != owner() */\n      dup1\n      iszero\n      tag_161\n      jumpi\n      pop\n        /* \"@openzeppelin/contracts/access/Ownable.sol\":1684:1691  address */\n      0x00\n        /* \"@openzeppelin/contracts/access/Ownable.sol\":1710:1716  _owner */\n      sload\n      sub(shl(0xa0, 0x01), 0x01)\n      and\n        /* \"contracts/TimbStaking.sol\":12753:12763  msg.sender */\n      caller\n        /* \"contracts/TimbStaking.sol\":12753:12774  msg.sender != owner() */\n      eq\n      iszero\n        /* \"contracts/TimbStaking.sol\":12721:12774  !rewardNotifiers[msg.sender] && msg.sender != owner() */\n    tag_161:\n        /* \"contracts/TimbStaking.sol\":12717:12823  if (!rewardNotifiers[msg.sender] && msg.sender != owner()) {... */\n      iszero\n      tag_163\n      jumpi\n        /* \"contracts/TimbStaking.sol\":12797:12812  NotAuthorised() */\n      mload(0x40)\n      shl(0xe0, 0x1648fd01)\n      dup2\n      mstore\n      0x04\n      add\n      mload(0x40)\n      dup1\n      swap2\n      sub\n      swap1\n      revert\n        /* \"contracts/TimbStaking.sol\":12717:12823  if (!rewardNotifiers[msg.sender] && msg.sender != owner()) {... */\n    tag_163:\n        /* \"contracts/TimbStaking.sol\":12836:12842  amount */\n      dup3\n        /* \"contracts/TimbStaking.sol\":12846:12847  0 */\n      0x00\n        /* \"contracts/TimbStaking.sol\":12836:12847  amount == 0 */\n      sub\n        /* \"contracts/TimbStaking.sol\":12832:12870  if (amount == 0)   revert ZeroAmount() */\n      tag_164\n      jumpi\n        /* \"contracts/TimbStaking.sol\":12858:12870  ZeroAmount() */\n      mload(0x40)\n      shl(0xe0, 0x1f2a2005)\n      dup2\n      mstore\n      0x04\n      add\n      mload(0x40)\n      dup1\n      swap2\n      sub\n      swap1\n      revert\n        /* \"contracts/TimbStaking.sol\":12832:12870  if (amount == 0)   revert ZeroAmount() */\n    tag_164:\n        /* \"contracts/TimbStaking.sol\":12884:12892  duration */\n      dup2\n        /* \"contracts/TimbStaking.sol\":12896:12897  0 */\n      0x00\n        /* \"contracts/TimbStaking.sol\":12884:12897  duration == 0 */\n      sub\n        /* \"contracts/TimbStaking.sol\":12880:12918  if (duration == 0) revert ZeroAmount() */\n      tag_165\n      jumpi\n        /* \"contracts/TimbStaking.sol\":12906:12918  ZeroAmount() */\n      mload(0x40)\n      shl(0xe0, 0x1f2a2005)\n      dup2\n      mstore\n      0x04\n      add\n      mload(0x40)\n      dup1\n      swap2\n      sub\n      swap1\n      revert\n        /* \"contracts/TimbStaking.sol\":12880:12918  if (duration == 0) revert ZeroAmount() */\n    tag_165:\n        /* \"contracts/TimbStaking.sol\":12929:12991  timbsToken.safeTransferFrom(msg.sender, address(this), amount) */\n      tag_166\n      sub(shl(0xa0, 0x01), 0x01)\n        /* \"contracts/TimbStaking.sol\":12929:12939  timbsToken */\n      immutable(\"0x962c584afcd4dd6cb0e25fef291e59a13b9ae1b34d13f25b13a34669b807535c\")\n        /* \"contracts/TimbStaking.sol\":12929:12956  timbsToken.safeTransferFrom */\n      and\n        /* \"contracts/TimbStaking.sol\":12957:12967  msg.sender */\n      caller\n        /* \"contracts/TimbStaking.sol\":12977:12981  this */\n      address\n        /* \"contracts/TimbStaking.sol\":12984:12990  amount */\n      dup7\n        /* \"contracts/TimbStaking.sol\":12929:12956  timbsToken.safeTransferFrom */\n      tag_167\n        /* \"contracts/TimbStaking.sol\":12929:12991  timbsToken.safeTransferFrom(msg.sender, address(this), amount) */\n      jump\t// in\n    tag_166:\n        /* \"contracts/TimbStaking.sol\":13024:13036  periodFinish */\n      sload(0x03)\n        /* \"contracts/TimbStaking.sol\":13006:13021  block.timestamp */\n      timestamp\n        /* \"contracts/TimbStaking.sol\":13006:13036  block.timestamp < periodFinish */\n      lt\n        /* \"contracts/TimbStaking.sol\":13002:13375  if (block.timestamp < periodFinish) {... */\n      iszero\n      tag_168\n      jumpi\n        /* \"contracts/TimbStaking.sol\":13106:13123  uint256 remaining */\n      0x00\n        /* \"contracts/TimbStaking.sol\":13144:13159  block.timestamp */\n      timestamp\n        /* \"contracts/TimbStaking.sol\":13129:13141  periodFinish */\n      sload(0x03)\n        /* \"contracts/TimbStaking.sol\":13129:13159  periodFinish - block.timestamp */\n      tag_169\n      swap2\n      swap1\n      tag_145\n      jump\t// in\n    tag_169:\n        /* \"contracts/TimbStaking.sol\":13106:13159  uint256 remaining    = periodFinish - block.timestamp */\n      swap1\n      pop\n        /* \"contracts/TimbStaking.sol\":13173:13189  uint256 leftover */\n      0x00\n        /* \"contracts/TimbStaking.sol\":13208:13227  rewardRatePerSecond */\n      sload(0x02)\n        /* \"contracts/TimbStaking.sol\":13196:13205  remaining */\n      dup3\n        /* \"contracts/TimbStaking.sol\":13196:13227  remaining * rewardRatePerSecond */\n      tag_170\n      swap2\n      swap1\n      tag_147\n      jump\t// in\n    tag_170:\n        /* \"contracts/TimbStaking.sol\":13173:13227  uint256 leftover     = remaining * rewardRatePerSecond */\n      swap1\n      pop\n        /* \"contracts/TimbStaking.sol\":13286:13294  duration */\n      dup4\n        /* \"contracts/TimbStaking.sol\":13265:13282  amount + leftover */\n      tag_171\n        /* \"contracts/TimbStaking.sol\":13173:13227  uint256 leftover     = remaining * rewardRatePerSecond */\n      dup3\n        /* \"contracts/TimbStaking.sol\":13265:13271  amount */\n      dup8\n        /* \"contracts/TimbStaking.sol\":13265:13282  amount + leftover */\n      tag_151\n      jump\t// in\n    tag_171:\n        /* \"contracts/TimbStaking.sol\":13264:13294  (amount + leftover) / duration */\n      tag_172\n      swap2\n      swap1\n      tag_149\n      jump\t// in\n    tag_172:\n        /* \"contracts/TimbStaking.sol\":13241:13260  rewardRatePerSecond */\n      0x02\n        /* \"contracts/TimbStaking.sol\":13241:13294  rewardRatePerSecond  = (amount + leftover) / duration */\n      sstore\n      pop\n        /* \"contracts/TimbStaking.sol\":13002:13375  if (block.timestamp < periodFinish) {... */\n      tag_173\n      swap1\n      pop\n      jump\n    tag_168:\n        /* \"contracts/TimbStaking.sol\":13347:13364  amount / duration */\n      tag_174\n        /* \"contracts/TimbStaking.sol\":13356:13364  duration */\n      dup3\n        /* \"contracts/TimbStaking.sol\":13347:13353  amount */\n      dup5\n        /* \"contracts/TimbStaking.sol\":13347:13364  amount / duration */\n      tag_149\n      jump\t// in\n    tag_174:\n        /* \"contracts/TimbStaking.sol\":13325:13344  rewardRatePerSecond */\n      0x02\n        /* \"contracts/TimbStaking.sol\":13325:13364  rewardRatePerSecond = amount / duration */\n      sstore\n        /* \"contracts/TimbStaking.sol\":13002:13375  if (block.timestamp < periodFinish) {... */\n    tag_173:\n        /* \"contracts/TimbStaking.sol\":13402:13417  block.timestamp */\n      timestamp\n        /* \"contracts/TimbStaking.sol\":13385:13399  lastUpdateTime */\n      0x04\n        /* \"contracts/TimbStaking.sol\":13385:13417  lastUpdateTime = block.timestamp */\n      dup2\n      swap1\n      sstore\n        /* \"contracts/TimbStaking.sol\":13444:13470  block.timestamp + duration */\n      tag_175\n      swap1\n        /* \"contracts/TimbStaking.sol\":13462:13470  duration */\n      dup4\n      swap1\n        /* \"contracts/TimbStaking.sol\":13444:13470  block.timestamp + duration */\n      tag_151\n      jump\t// in\n    tag_175:\n        /* \"contracts/TimbStaking.sol\":13427:13439  periodFinish */\n      0x03\n        /* \"contracts/TimbStaking.sol\":13427:13470  periodFinish   = block.timestamp + duration */\n      sstore\n        /* \"contracts/TimbStaking.sol\":13486:13530  RewardNotified(msg.sender, amount, duration) */\n      0x40\n      dup1\n      mload\n        /* \"#utility.yul\":3200:3225   */\n      dup5\n      dup2\n      mstore\n        /* \"#utility.yul\":3256:3258   */\n      0x20\n        /* \"#utility.yul\":3241:3259   */\n      dup2\n      add\n        /* \"#utility.yul\":3234:3268   */\n      dup5\n      swap1\n      mstore\n        /* \"contracts/TimbStaking.sol\":13501:13511  msg.sender */\n      caller\n      swap2\n        /* \"contracts/TimbStaking.sol\":13486:13530  RewardNotified(msg.sender, amount, duration) */\n      0x8a888ea653a580e40660778ee0c0dabd23a81e8e2c8dcfb938e40982a157d819\n      swap2\n        /* \"#utility.yul\":3173:3191   */\n      add\n        /* \"contracts/TimbStaking.sol\":13486:13530  RewardNotified(msg.sender, amount, duration) */\n      mload(0x40)\n      dup1\n      swap2\n      sub\n      swap1\n      log2\n        /* \"@openzeppelin/contracts/utils/ReentrancyGuard.sol\":3054:3055  _ */\n      pop\n        /* \"@openzeppelin/contracts/utils/ReentrancyGuard.sol\":3065:3085  _nonReentrantAfter() */\n      tag_178\n        /* \"@openzeppelin/contracts/utils/ReentrancyGuard.sol\":2365:2366  1 */\n      0x01\n      0x00\n      dup1\n      mload\n      0x20\n      data_c8669cf8eaf883002b9f48e28846a8d408c9b58ea6613bace374265e43c9bc43\n      dup4\n      codecopy\n      dup2\n      mload\n      swap2\n      mstore\n        /* \"@openzeppelin/contracts/utils/ReentrancyGuard.sol\":3972:4034  _reentrancyGuardStorageSlot().getUint256Slot().value = ENTERED */\n      sstore\n        /* \"@openzeppelin/contracts/utils/ReentrancyGuard.sol\":3749:4041  function _nonReentrantBefore() private {... */\n      jump\n        /* \"@openzeppelin/contracts/utils/ReentrancyGuard.sol\":3065:3085  _nonReentrantAfter() */\n    tag_178:\n        /* \"contracts/TimbStaking.sol\":12570:13537  function notifyRewardAmount(uint256 amount, uint256 duration)... */\n      pop\n      pop\n      jump\t// out\n        /* \"contracts/TimbStaking.sol\":14746:15014  function setRewardNotifier(address notifier, bool authorised)... */\n    tag_58:\n        /* \"@openzeppelin/contracts/access/Ownable.sol\":1531:1544  _checkOwner() */\n      tag_181\n        /* \"@openzeppelin/contracts/access/Ownable.sol\":1531:1542  _checkOwner */\n      tag_182\n        /* \"@openzeppelin/contracts/access/Ownable.sol\":1531:1544  _checkOwner() */\n      jump\t// in\n    tag_181:\n      sub(shl(0xa0, 0x01), 0x01)\n        /* \"contracts/TimbStaking.sol\":14861:14883  notifier == address(0) */\n      dup3\n      and\n        /* \"contracts/TimbStaking.sol\":14857:14905  if (notifier == address(0)) revert ZeroAddress() */\n      tag_184\n      jumpi\n        /* \"contracts/TimbStaking.sol\":14892:14905  ZeroAddress() */\n      mload(0x40)\n      shl(0xe0, 0xd92e233d)\n      dup2\n      mstore\n      0x04\n      add\n      mload(0x40)\n      dup1\n      swap2\n      sub\n      swap1\n      revert\n        /* \"contracts/TimbStaking.sol\":14857:14905  if (notifier == address(0)) revert ZeroAddress() */\n    tag_184:\n      sub(shl(0xa0, 0x01), 0x01)\n        /* \"contracts/TimbStaking.sol\":14915:14940  rewardNotifiers[notifier] */\n      dup3\n      and\n      0x00\n      dup2\n      dup2\n      mstore\n        /* \"contracts/TimbStaking.sol\":14915:14930  rewardNotifiers */\n      0x0a\n        /* \"contracts/TimbStaking.sol\":14915:14940  rewardNotifiers[notifier] */\n      0x20\n      swap1\n      dup2\n      mstore\n      0x40\n      swap2\n      dup3\n      swap1\n      keccak256\n        /* \"contracts/TimbStaking.sol\":14915:14953  rewardNotifiers[notifier] = authorised */\n      dup1\n      sload\n      not(0xff)\n      and\n      dup6\n      iszero\n      iszero\n      swap1\n      dup2\n      or\n      swap1\n      swap2\n      sstore\n        /* \"contracts/TimbStaking.sol\":14968:15007  RewardNotifierSet(notifier, authorised) */\n      swap2\n      mload\n        /* \"#utility.yul\":1717:1758   */\n      swap2\n      dup3\n      mstore\n        /* \"contracts/TimbStaking.sol\":14968:15007  RewardNotifierSet(notifier, authorised) */\n      0xb33ca1dabfb28a2e1bd06b332c396b1a3d538278691341a5503bbad53f919197\n      swap2\n        /* \"#utility.yul\":1690:1708   */\n      add\n        /* \"contracts/TimbStaking.sol\":14968:15007  RewardNotifierSet(notifier, authorised) */\n      mload(0x40)\n      dup1\n      swap2\n      sub\n      swap1\n      log2\n        /* \"contracts/TimbStaking.sol\":14746:15014  function setRewardNotifier(address notifier, bool authorised)... */\n      pop\n      pop\n      jump\t// out\n        /* \"contracts/TimbStaking.sol\":9426:9931  function unstake(uint256 amount)... */\n    tag_62:\n        /* \"@openzeppelin/contracts/utils/ReentrancyGuard.sol\":3023:3044  _nonReentrantBefore() */\n      tag_187\n        /* \"@openzeppelin/contracts/utils/ReentrancyGuard.sol\":3023:3042  _nonReentrantBefore */\n      tag_154\n        /* \"@openzeppelin/contracts/utils/ReentrancyGuard.sol\":3023:3044  _nonReentrantBefore() */\n      jump\t// in\n    tag_187:\n        /* \"contracts/TimbStaking.sol\":5126:5132  paused */\n      and(0xff, sload(0x0b))\n        /* \"contracts/TimbStaking.sol\":5122:5157  if (paused) revert ContractPaused() */\n      iszero\n      tag_189\n      jumpi\n        /* \"contracts/TimbStaking.sol\":5141:5157  ContractPaused() */\n      mload(0x40)\n      shl(0xe0, 0xab35696f)\n      dup2\n      mstore\n      0x04\n      add\n      mload(0x40)\n      dup1\n      swap2\n      sub\n      swap1\n      revert\n        /* \"contracts/TimbStaking.sol\":5122:5157  if (paused) revert ContractPaused() */\n    tag_189:\n        /* \"contracts/TimbStaking.sol\":9540:9550  msg.sender */\n      caller\n        /* \"contracts/TimbStaking.sol\":5253:5269  rewardPerToken() */\n      tag_191\n        /* \"contracts/TimbStaking.sol\":5253:5267  rewardPerToken */\n      tag_120\n        /* \"contracts/TimbStaking.sol\":5253:5269  rewardPerToken() */\n      jump\t// in\n    tag_191:\n        /* \"contracts/TimbStaking.sol\":5230:5250  rewardPerTokenStored */\n      0x05\n        /* \"contracts/TimbStaking.sol\":5230:5269  rewardPerTokenStored = rewardPerToken() */\n      sstore\n        /* \"contracts/TimbStaking.sol\":5302:5328  lastTimeRewardApplicable() */\n      tag_192\n        /* \"contracts/TimbStaking.sol\":5302:5326  lastTimeRewardApplicable */\n      tag_92\n        /* \"contracts/TimbStaking.sol\":5302:5328  lastTimeRewardApplicable() */\n      jump\t// in\n    tag_192:\n        /* \"contracts/TimbStaking.sol\":5279:5293  lastUpdateTime */\n      0x04\n        /* \"contracts/TimbStaking.sol\":5279:5328  lastUpdateTime       = lastTimeRewardApplicable() */\n      sstore\n      sub(shl(0xa0, 0x01), 0x01)\n        /* \"contracts/TimbStaking.sol\":5342:5363  account != address(0) */\n      dup2\n      and\n      iszero\n        /* \"contracts/TimbStaking.sol\":5338:5506  if (account != address(0)) {... */\n      tag_193\n      jumpi\n        /* \"contracts/TimbStaking.sol\":5412:5427  earned(account) */\n      tag_194\n        /* \"contracts/TimbStaking.sol\":5419:5426  account */\n      dup2\n        /* \"contracts/TimbStaking.sol\":5412:5418  earned */\n      tag_44\n        /* \"contracts/TimbStaking.sol\":5412:5427  earned(account) */\n      jump\t// in\n    tag_194:\n      sub(shl(0xa0, 0x01), 0x01)\n        /* \"contracts/TimbStaking.sol\":5379:5402  pendingRewards[account] */\n      dup3\n      and\n      0x00\n      swap1\n      dup2\n      mstore\n        /* \"contracts/TimbStaking.sol\":5379:5393  pendingRewards */\n      0x09\n        /* \"contracts/TimbStaking.sol\":5379:5402  pendingRewards[account] */\n      0x20\n      swap1\n      dup2\n      mstore\n      0x40\n      dup1\n      dup4\n      keccak256\n        /* \"contracts/TimbStaking.sol\":5379:5427  pendingRewards[account]        = earned(account) */\n      swap4\n      swap1\n      swap4\n      sstore\n        /* \"contracts/TimbStaking.sol\":5475:5495  rewardPerTokenStored */\n      sload(0x05)\n        /* \"contracts/TimbStaking.sol\":5441:5463  userRewardPerTokenPaid */\n      0x08\n        /* \"contracts/TimbStaking.sol\":5441:5472  userRewardPerTokenPaid[account] */\n      swap1\n      swap2\n      mstore\n      swap2\n      swap1\n      keccak256\n        /* \"contracts/TimbStaking.sol\":5441:5495  userRewardPerTokenPaid[account] = rewardPerTokenStored */\n      sstore\n        /* \"contracts/TimbStaking.sol\":5338:5506  if (account != address(0)) {... */\n    tag_193:\n        /* \"contracts/TimbStaking.sol\":9570:9576  amount */\n      dup2\n        /* \"contracts/TimbStaking.sol\":9580:9581  0 */\n      0x00\n        /* \"contracts/TimbStaking.sol\":9570:9581  amount == 0 */\n      sub\n        /* \"contracts/TimbStaking.sol\":9566:9602  if (amount == 0) revert ZeroAmount() */\n      tag_196\n      jumpi\n        /* \"contracts/TimbStaking.sol\":9590:9602  ZeroAmount() */\n      mload(0x40)\n      shl(0xe0, 0x1f2a2005)\n      dup2\n      mstore\n      0x04\n      add\n      mload(0x40)\n      dup1\n      swap2\n      sub\n      swap1\n      revert\n        /* \"contracts/TimbStaking.sol\":9566:9602  if (amount == 0) revert ZeroAmount() */\n    tag_196:\n        /* \"contracts/TimbStaking.sol\":9639:9649  msg.sender */\n      caller\n        /* \"contracts/TimbStaking.sol\":9625:9650  stakedBalance[msg.sender] */\n      0x00\n      swap1\n      dup2\n      mstore\n        /* \"contracts/TimbStaking.sol\":9625:9638  stakedBalance */\n      0x07\n        /* \"contracts/TimbStaking.sol\":9625:9650  stakedBalance[msg.sender] */\n      0x20\n      mstore\n      0x40\n      swap1\n      keccak256\n      sload\n        /* \"contracts/TimbStaking.sol\":9616:9650  amount > stakedBalance[msg.sender] */\n      dup3\n      gt\n        /* \"contracts/TimbStaking.sol\":9612:9736  if (amount > stakedBalance[msg.sender]) {... */\n      iszero\n      tag_197\n      jumpi\n        /* \"contracts/TimbStaking.sol\":9713:9723  msg.sender */\n      caller\n        /* \"contracts/TimbStaking.sol\":9699:9724  stakedBalance[msg.sender] */\n      0x00\n      swap1\n      dup2\n      mstore\n        /* \"contracts/TimbStaking.sol\":9699:9712  stakedBalance */\n      0x07\n        /* \"contracts/TimbStaking.sol\":9699:9724  stakedBalance[msg.sender] */\n      0x20\n      mstore\n      0x40\n      swap1\n      dup2\n      swap1\n      keccak256\n      sload\n        /* \"contracts/TimbStaking.sol\":9673:9725  InsufficientStake(amount, stakedBalance[msg.sender]) */\n      swap1\n      mload\n      shl(0xe1, 0x22df0513)\n      dup2\n      mstore\n      tag_198\n      swap2\n        /* \"contracts/TimbStaking.sol\":9691:9697  amount */\n      dup5\n      swap2\n        /* \"contracts/TimbStaking.sol\":9673:9725  InsufficientStake(amount, stakedBalance[msg.sender]) */\n      0x04\n      add\n        /* \"#utility.yul\":3200:3225   */\n      swap2\n      dup3\n      mstore\n        /* \"#utility.yul\":3256:3258   */\n      0x20\n        /* \"#utility.yul\":3241:3259   */\n      dup3\n      add\n        /* \"#utility.yul\":3234:3268   */\n      mstore\n        /* \"#utility.yul\":3188:3190   */\n      0x40\n        /* \"#utility.yul\":3173:3191   */\n      add\n      swap1\n        /* \"#utility.yul\":3026:3274   */\n      jump\n        /* \"contracts/TimbStaking.sol\":9673:9725  InsufficientStake(amount, stakedBalance[msg.sender]) */\n    tag_198:\n      mload(0x40)\n      dup1\n      swap2\n      sub\n      swap1\n      revert\n        /* \"contracts/TimbStaking.sol\":9612:9736  if (amount > stakedBalance[msg.sender]) {... */\n    tag_197:\n        /* \"contracts/TimbStaking.sol\":9760:9770  msg.sender */\n      caller\n        /* \"contracts/TimbStaking.sol\":9746:9771  stakedBalance[msg.sender] */\n      0x00\n      swap1\n      dup2\n      mstore\n        /* \"contracts/TimbStaking.sol\":9746:9759  stakedBalance */\n      0x07\n        /* \"contracts/TimbStaking.sol\":9746:9771  stakedBalance[msg.sender] */\n      0x20\n      mstore\n      0x40\n      dup2\n      keccak256\n        /* \"contracts/TimbStaking.sol\":9746:9781  stakedBalance[msg.sender] -= amount */\n      dup1\n      sload\n        /* \"contracts/TimbStaking.sol\":9775:9781  amount */\n      dup5\n      swap3\n        /* \"contracts/TimbStaking.sol\":9746:9771  stakedBalance[msg.sender] */\n      swap1\n        /* \"contracts/TimbStaking.sol\":9746:9781  stakedBalance[msg.sender] -= amount */\n      tag_199\n      swap1\n        /* \"contracts/TimbStaking.sol\":9775:9781  amount */\n      dup5\n      swap1\n        /* \"contracts/TimbStaking.sol\":9746:9781  stakedBalance[msg.sender] -= amount */\n      tag_145\n      jump\t// in\n    tag_199:\n      swap3\n      pop\n      pop\n      dup2\n      swap1\n      sstore\n      pop\n        /* \"contracts/TimbStaking.sol\":9820:9826  amount */\n      dup2\n        /* \"contracts/TimbStaking.sol\":9791:9802  totalStaked */\n      0x06\n      0x00\n        /* \"contracts/TimbStaking.sol\":9791:9826  totalStaked               -= amount */\n      dup3\n      dup3\n      sload\n      tag_200\n      swap2\n      swap1\n      tag_145\n      jump\t// in\n    tag_200:\n      swap1\n      swap2\n      sstore\n      pop\n        /* \"contracts/TimbStaking.sol\":9837:9880  timbsToken.safeTransfer(msg.sender, amount) */\n      tag_201\n      swap1\n      pop\n      sub(shl(0xa0, 0x01), 0x01)\n        /* \"contracts/TimbStaking.sol\":9837:9847  timbsToken */\n      immutable(\"0x962c584afcd4dd6cb0e25fef291e59a13b9ae1b34d13f25b13a34669b807535c\")\n        /* \"contracts/TimbStaking.sol\":9837:9860  timbsToken.safeTransfer */\n      and\n        /* \"contracts/TimbStaking.sol\":9861:9871  msg.sender */\n      caller\n        /* \"contracts/TimbStaking.sol\":9873:9879  amount */\n      dup5\n        /* \"contracts/TimbStaking.sol\":9837:9860  timbsToken.safeTransfer */\n      tag_202\n        /* \"contracts/TimbStaking.sol\":9837:9880  timbsToken.safeTransfer(msg.sender, amount) */\n      jump\t// in\n    tag_201:\n        /* \"contracts/TimbStaking.sol\":9896:9924  Unstaked(msg.sender, amount) */\n      mload(0x40)\n        /* \"#utility.yul\":529:554   */\n      dup3\n      dup2\n      mstore\n        /* \"contracts/TimbStaking.sol\":9905:9915  msg.sender */\n      caller\n      swap1\n        /* \"contracts/TimbStaking.sol\":9896:9924  Unstaked(msg.sender, amount) */\n      0x0f5bb82176feb1b5e747e28471aa92156a04d9f3ab9f45f28e2d704232b93f75\n      swap1\n        /* \"#utility.yul\":517:519   */\n      0x20\n        /* \"#utility.yul\":502:520   */\n      add\n        /* \"contracts/TimbStaking.sol\":9896:9924  Unstaked(msg.sender, amount) */\n    tag_203:\n      mload(0x40)\n      dup1\n      swap2\n      sub\n      swap1\n      log2\n        /* \"contracts/TimbStaking.sol\":5167:5168  _ */\n      pop\n        /* \"@openzeppelin/contracts/utils/ReentrancyGuard.sol\":3065:3085  _nonReentrantAfter() */\n      tag_204\n        /* \"@openzeppelin/contracts/utils/ReentrancyGuard.sol\":2365:2366  1 */\n      0x01\n      0x00\n      dup1\n      mload\n      0x20\n      data_c8669cf8eaf883002b9f48e28846a8d408c9b58ea6613bace374265e43c9bc43\n      dup4\n      codecopy\n      dup2\n      mload\n      swap2\n      mstore\n        /* \"@openzeppelin/contracts/utils/ReentrancyGuard.sol\":3972:4034  _reentrancyGuardStorageSlot().getUint256Slot().value = ENTERED */\n      sstore\n        /* \"@openzeppelin/contracts/utils/ReentrancyGuard.sol\":3749:4041  function _nonReentrantBefore() private {... */\n      jump\n        /* \"@openzeppelin/contracts/utils/ReentrancyGuard.sol\":3065:3085  _nonReentrantAfter() */\n    tag_204:\n        /* \"contracts/TimbStaking.sol\":9426:9931  function unstake(uint256 amount)... */\n      pop\n      jump\t// out\n        /* \"contracts/TimbStaking.sol\":10323:10907  function claimRewards()... */\n    tag_68:\n        /* \"@openzeppelin/contracts/utils/ReentrancyGuard.sol\":3023:3044  _nonReentrantBefore() */\n      tag_206\n        /* \"@openzeppelin/contracts/utils/ReentrancyGuard.sol\":3023:3042  _nonReentrantBefore */\n      tag_154\n        /* \"@openzeppelin/contracts/utils/ReentrancyGuard.sol\":3023:3044  _nonReentrantBefore() */\n      jump\t// in\n    tag_206:\n        /* \"contracts/TimbStaking.sol\":5126:5132  paused */\n      and(0xff, sload(0x0b))\n        /* \"contracts/TimbStaking.sol\":5122:5157  if (paused) revert ContractPaused() */\n      iszero\n      tag_208\n      jumpi\n        /* \"contracts/TimbStaking.sol\":5141:5157  ContractPaused() */\n      mload(0x40)\n      shl(0xe0, 0xab35696f)\n      dup2\n      mstore\n      0x04\n      add\n      mload(0x40)\n      dup1\n      swap2\n      sub\n      swap1\n      revert\n        /* \"contracts/TimbStaking.sol\":5122:5157  if (paused) revert ContractPaused() */\n    tag_208:\n        /* \"contracts/TimbStaking.sol\":10428:10438  msg.sender */\n      caller\n        /* \"contracts/TimbStaking.sol\":5253:5269  rewardPerToken() */\n      tag_210\n        /* \"contracts/TimbStaking.sol\":5253:5267  rewardPerToken */\n      tag_120\n        /* \"contracts/TimbStaking.sol\":5253:5269  rewardPerToken() */\n      jump\t// in\n    tag_210:\n        /* \"contracts/TimbStaking.sol\":5230:5250  rewardPerTokenStored */\n      0x05\n        /* \"contracts/TimbStaking.sol\":5230:5269  rewardPerTokenStored = rewardPerToken() */\n      sstore\n        /* \"contracts/TimbStaking.sol\":5302:5328  lastTimeRewardApplicable() */\n      tag_211\n        /* \"contracts/TimbStaking.sol\":5302:5326  lastTimeRewardApplicable */\n      tag_92\n        /* \"contracts/TimbStaking.sol\":5302:5328  lastTimeRewardApplicable() */\n      jump\t// in\n    tag_211:\n        /* \"contracts/TimbStaking.sol\":5279:5293  lastUpdateTime */\n      0x04\n        /* \"contracts/TimbStaking.sol\":5279:5328  lastUpdateTime       = lastTimeRewardApplicable() */\n      sstore\n      sub(shl(0xa0, 0x01), 0x01)\n        /* \"contracts/TimbStaking.sol\":5342:5363  account != address(0) */\n      dup2\n      and\n      iszero\n        /* \"contracts/TimbStaking.sol\":5338:5506  if (account != address(0)) {... */\n      tag_212\n      jumpi\n        /* \"contracts/TimbStaking.sol\":5412:5427  earned(account) */\n      tag_213\n        /* \"contracts/TimbStaking.sol\":5419:5426  account */\n      dup2\n        /* \"contracts/TimbStaking.sol\":5412:5418  earned */\n      tag_44\n        /* \"contracts/TimbStaking.sol\":5412:5427  earned(account) */\n      jump\t// in\n    tag_213:\n      sub(shl(0xa0, 0x01), 0x01)\n        /* \"contracts/TimbStaking.sol\":5379:5402  pendingRewards[account] */\n      dup3\n      and\n      0x00\n      swap1\n      dup2\n      mstore\n        /* \"contracts/TimbStaking.sol\":5379:5393  pendingRewards */\n      0x09\n        /* \"contracts/TimbStaking.sol\":5379:5402  pendingRewards[account] */\n      0x20\n      swap1\n      dup2\n      mstore\n      0x40\n      dup1\n      dup4\n      keccak256\n        /* \"contracts/TimbStaking.sol\":5379:5427  pendingRewards[account]        = earned(account) */\n      swap4\n      swap1\n      swap4\n      sstore\n        /* \"contracts/TimbStaking.sol\":5475:5495  rewardPerTokenStored */\n      sload(0x05)\n        /* \"contracts/TimbStaking.sol\":5441:5463  userRewardPerTokenPaid */\n      0x08\n        /* \"contracts/TimbStaking.sol\":5441:5472  userRewardPerTokenPaid[account] */\n      swap1\n      swap2\n      mstore\n      swap2\n      swap1\n      keccak256\n        /* \"contracts/TimbStaking.sol\":5441:5495  userRewardPerTokenPaid[account] = rewardPerTokenStored */\n      sstore\n        /* \"contracts/TimbStaking.sol\":5338:5506  if (account != address(0)) {... */\n    tag_212:\n        /* \"contracts/TimbStaking.sol\":10486:10496  msg.sender */\n      caller\n        /* \"contracts/TimbStaking.sol\":10454:10468  uint256 reward */\n      0x00\n        /* \"contracts/TimbStaking.sol\":10471:10497  pendingRewards[msg.sender] */\n      swap1\n      dup2\n      mstore\n        /* \"contracts/TimbStaking.sol\":10471:10485  pendingRewards */\n      0x09\n        /* \"contracts/TimbStaking.sol\":10471:10497  pendingRewards[msg.sender] */\n      0x20\n      mstore\n      0x40\n      dup2\n      keccak256\n      sload\n      swap1\n        /* \"contracts/TimbStaking.sol\":10511:10522  reward == 0 */\n      dup2\n      swap1\n      sub\n        /* \"contracts/TimbStaking.sol\":10507:10549  if (reward == 0) revert NoPendingRewards() */\n      tag_215\n      jumpi\n        /* \"contracts/TimbStaking.sol\":10531:10549  NoPendingRewards() */\n      mload(0x40)\n      shl(0xe1, 0x5b8f50bf)\n      dup2\n      mstore\n      0x04\n      add\n      mload(0x40)\n      dup1\n      swap2\n      sub\n      swap1\n      revert\n        /* \"contracts/TimbStaking.sol\":10507:10549  if (reward == 0) revert NoPendingRewards() */\n    tag_215:\n        /* \"contracts/TimbStaking.sol\":10624:10635  totalStaked */\n      sload(0x06)\n        /* \"contracts/TimbStaking.sol\":10586:10621  timbsToken.balanceOf(address(this)) */\n      mload(0x40)\n      shl(0xe0, 0x70a08231)\n      dup2\n      mstore\n        /* \"contracts/TimbStaking.sol\":10615:10619  this */\n      address\n        /* \"contracts/TimbStaking.sol\":10586:10621  timbsToken.balanceOf(address(this)) */\n      0x04\n      dup3\n      add\n        /* \"#utility.yul\":725:776   */\n      mstore\n        /* \"contracts/TimbStaking.sol\":10560:10583  uint256 contractBalance */\n      0x00\n      swap2\n        /* \"contracts/TimbStaking.sol\":10624:10635  totalStaked */\n      swap1\n      sub(shl(0xa0, 0x01), 0x01)\n        /* \"contracts/TimbStaking.sol\":10586:10596  timbsToken */\n      immutable(\"0x962c584afcd4dd6cb0e25fef291e59a13b9ae1b34d13f25b13a34669b807535c\")\n        /* \"contracts/TimbStaking.sol\":10586:10606  timbsToken.balanceOf */\n      and\n      swap1\n      0x70a08231\n      swap1\n        /* \"#utility.yul\":698:716   */\n      0x24\n      add\n        /* \"contracts/TimbStaking.sol\":10586:10621  timbsToken.balanceOf(address(this)) */\n      0x20\n      mload(0x40)\n      dup1\n      dup4\n      sub\n      dup2\n      dup7\n      gas\n      staticcall\n      iszero\n      dup1\n      iszero\n      tag_218\n      jumpi\n      returndatasize\n      0x00\n      dup1\n      returndatacopy\n      revert(0x00, returndatasize)\n    tag_218:\n      pop\n      pop\n      pop\n      pop\n      mload(0x40)\n      returndatasize\n      not(0x1f)\n      0x1f\n      dup3\n      add\n      and\n      dup3\n      add\n      dup1\n      0x40\n      mstore\n      pop\n      dup2\n      add\n      swap1\n      tag_219\n      swap2\n      swap1\n      tag_220\n      jump\t// in\n    tag_219:\n        /* \"contracts/TimbStaking.sol\":10586:10635  timbsToken.balanceOf(address(this)) - totalStaked */\n      tag_221\n      swap2\n      swap1\n      tag_145\n      jump\t// in\n    tag_221:\n        /* \"contracts/TimbStaking.sol\":10560:10635  uint256 contractBalance = timbsToken.balanceOf(address(this)) - totalStaked */\n      swap1\n      pop\n        /* \"contracts/TimbStaking.sol\":10658:10673  contractBalance */\n      dup1\n        /* \"contracts/TimbStaking.sol\":10649:10655  reward */\n      dup3\n        /* \"contracts/TimbStaking.sol\":10649:10673  reward > contractBalance */\n      gt\n        /* \"contracts/TimbStaking.sol\":10645:10757  if (reward > contractBalance) {... */\n      iszero\n      tag_222\n      jumpi\n        /* \"contracts/TimbStaking.sol\":10696:10746  InsufficientRewardBalance(reward, contractBalance) */\n      mload(0x40)\n      shl(0xe0, 0x65ac9d43)\n      dup2\n      mstore\n      0x04\n      dup2\n      add\n        /* \"#utility.yul\":3200:3225   */\n      dup4\n      swap1\n      mstore\n        /* \"#utility.yul\":3241:3259   */\n      0x24\n      dup2\n      add\n        /* \"#utility.yul\":3234:3268   */\n      dup3\n      swap1\n      mstore\n        /* \"#utility.yul\":3173:3191   */\n      0x44\n      add\n        /* \"contracts/TimbStaking.sol\":10696:10746  InsufficientRewardBalance(reward, contractBalance) */\n      tag_198\n        /* \"#utility.yul\":3026:3274   */\n      jump\n        /* \"contracts/TimbStaking.sol\":10645:10757  if (reward > contractBalance) {... */\n    tag_222:\n        /* \"contracts/TimbStaking.sol\":10782:10792  msg.sender */\n      caller\n        /* \"contracts/TimbStaking.sol\":10796:10797  0 */\n      0x00\n        /* \"contracts/TimbStaking.sol\":10767:10793  pendingRewards[msg.sender] */\n      dup2\n      dup2\n      mstore\n        /* \"contracts/TimbStaking.sol\":10767:10781  pendingRewards */\n      0x09\n        /* \"contracts/TimbStaking.sol\":10767:10793  pendingRewards[msg.sender] */\n      0x20\n      mstore\n      0x40\n      dup2\n      keccak256\n        /* \"contracts/TimbStaking.sol\":10767:10797  pendingRewards[msg.sender] = 0 */\n      sstore\n        /* \"contracts/TimbStaking.sol\":10807:10850  timbsToken.safeTransfer(msg.sender, reward) */\n      tag_224\n      swap1\n        /* \"contracts/TimbStaking.sol\":10807:10817  timbsToken */\n      immutable(\"0x962c584afcd4dd6cb0e25fef291e59a13b9ae1b34d13f25b13a34669b807535c\")\n      sub(shl(0xa0, 0x01), 0x01)\n        /* \"contracts/TimbStaking.sol\":10807:10830  timbsToken.safeTransfer */\n      and\n      swap1\n        /* \"contracts/TimbStaking.sol\":10843:10849  reward */\n      dup5\n        /* \"contracts/TimbStaking.sol\":10807:10830  timbsToken.safeTransfer */\n      tag_202\n        /* \"contracts/TimbStaking.sol\":10807:10850  timbsToken.safeTransfer(msg.sender, reward) */\n      jump\t// in\n    tag_224:\n        /* \"contracts/TimbStaking.sol\":10866:10900  RewardsClaimed(msg.sender, reward) */\n      mload(0x40)\n        /* \"#utility.yul\":529:554   */\n      dup3\n      dup2\n      mstore\n        /* \"contracts/TimbStaking.sol\":10881:10891  msg.sender */\n      caller\n      swap1\n        /* \"contracts/TimbStaking.sol\":10866:10900  RewardsClaimed(msg.sender, reward) */\n      0xfc30cddea38e2bf4d6ea7d3f9ed3b6ad7f176419f4963bd81318067a4aee73fe\n      swap1\n        /* \"#utility.yul\":517:519   */\n      0x20\n        /* \"#utility.yul\":502:520   */\n      add\n        /* \"contracts/TimbStaking.sol\":10866:10900  RewardsClaimed(msg.sender, reward) */\n      mload(0x40)\n      dup1\n      swap2\n      sub\n      swap1\n      log2\n        /* \"contracts/TimbStaking.sol\":10444:10907  {... */\n      pop\n      pop\n        /* \"contracts/TimbStaking.sol\":5167:5168  _ */\n      pop\n        /* \"@openzeppelin/contracts/utils/ReentrancyGuard.sol\":3065:3085  _nonReentrantAfter() */\n      tag_226\n        /* \"@openzeppelin/contracts/utils/ReentrancyGuard.sol\":2365:2366  1 */\n      0x01\n      0x00\n      dup1\n      mload\n      0x20\n      data_c8669cf8eaf883002b9f48e28846a8d408c9b58ea6613bace374265e43c9bc43\n      dup4\n      codecopy\n      dup2\n      mload\n      swap2\n      mstore\n        /* \"@openzeppelin/contracts/utils/ReentrancyGuard.sol\":3972:4034  _reentrancyGuardStorageSlot().getUint256Slot().value = ENTERED */\n      sstore\n        /* \"@openzeppelin/contracts/utils/ReentrancyGuard.sol\":3749:4041  function _nonReentrantBefore() private {... */\n      jump\n        /* \"@openzeppelin/contracts/utils/ReentrancyGuard.sol\":3065:3085  _nonReentrantAfter() */\n    tag_226:\n        /* \"contracts/TimbStaking.sol\":10323:10907  function claimRewards()... */\n      jump\t// out\n        /* \"contracts/TimbStaking.sol\":15185:15269  function unpause() external onlyOwner { paused = false; emit Unpaused(msg.sender); } */\n    tag_70:\n        /* \"@openzeppelin/contracts/access/Ownable.sol\":1531:1544  _checkOwner() */\n      tag_228\n        /* \"@openzeppelin/contracts/access/Ownable.sol\":1531:1542  _checkOwner */\n      tag_182\n        /* \"@openzeppelin/contracts/access/Ownable.sol\":1531:1544  _checkOwner() */\n      jump\t// in\n    tag_228:\n        /* \"contracts/TimbStaking.sol\":15225:15231  paused */\n      0x0b\n        /* \"contracts/TimbStaking.sol\":15225:15239  paused = false */\n      dup1\n      sload\n      not(0xff)\n      and\n      swap1\n      sstore\n        /* \"contracts/TimbStaking.sol\":15246:15266  Unpaused(msg.sender) */\n      mload(0x40)\n        /* \"contracts/TimbStaking.sol\":15255:15265  msg.sender */\n      caller\n      swap1\n        /* \"contracts/TimbStaking.sol\":15246:15266  Unpaused(msg.sender) */\n      0x5db9ee0a495bf2e6ff9c91a7834c1ba4fdd244a5e8aa4e537bd38aeae4b073aa\n      swap1\n        /* \"contracts/TimbStaking.sol\":15234:15239  false */\n      0x00\n      swap1\n        /* \"contracts/TimbStaking.sol\":15246:15266  Unpaused(msg.sender) */\n      log2\n        /* \"contracts/TimbStaking.sol\":15185:15269  function unpause() external onlyOwner { paused = false; emit Unpaused(msg.sender); } */\n      jump\t// out\n        /* \"contracts/TimbStaking.sol\":7669:7962  function estimatedAPR() external view returns (uint256 aprBps) {... */\n    tag_72:\n        /* \"contracts/TimbStaking.sol\":7716:7730  uint256 aprBps */\n      0x00\n        /* \"contracts/TimbStaking.sol\":7746:7757  totalStaked */\n      sload(0x06)\n        /* \"contracts/TimbStaking.sol\":7761:7762  0 */\n      0x00\n        /* \"contracts/TimbStaking.sol\":7746:7762  totalStaked == 0 */\n      sub\n        /* \"contracts/TimbStaking.sol\":7742:7772  if (totalStaked == 0) return 0 */\n      tag_231\n      jumpi\n      pop\n        /* \"contracts/TimbStaking.sol\":7771:7772  0 */\n      0x00\n      swap1\n        /* \"contracts/TimbStaking.sol\":7669:7962  function estimatedAPR() external view returns (uint256 aprBps) {... */\n      jump\t// out\n        /* \"contracts/TimbStaking.sol\":7742:7772  if (totalStaked == 0) return 0 */\n    tag_231:\n        /* \"contracts/TimbStaking.sol\":7844:7865  uint256 annualRewards */\n      0x00\n        /* \"contracts/TimbStaking.sol\":7868:7887  rewardRatePerSecond */\n      sload(0x02)\n        /* \"contracts/TimbStaking.sol\":7890:7898  365 days */\n      0x01e13380\n        /* \"contracts/TimbStaking.sol\":7868:7898  rewardRatePerSecond * 365 days */\n      tag_232\n      swap2\n      swap1\n      tag_147\n      jump\t// in\n    tag_232:\n        /* \"contracts/TimbStaking.sol\":7944:7955  totalStaked */\n      sload(0x06)\n        /* \"contracts/TimbStaking.sol\":7844:7898  uint256 annualRewards = rewardRatePerSecond * 365 days */\n      swap1\n      swap2\n      pop\n        /* \"contracts/TimbStaking.sol\":7918:7940  annualRewards * 10_000 */\n      tag_233\n        /* \"contracts/TimbStaking.sol\":7844:7898  uint256 annualRewards = rewardRatePerSecond * 365 days */\n      dup3\n        /* \"contracts/TimbStaking.sol\":7934:7940  10_000 */\n      0x2710\n        /* \"contracts/TimbStaking.sol\":7918:7940  annualRewards * 10_000 */\n      tag_147\n      jump\t// in\n    tag_233:\n        /* \"contracts/TimbStaking.sol\":7917:7955  (annualRewards * 10_000) / totalStaked */\n      tag_234\n      swap2\n      swap1\n      tag_149\n      jump\t// in\n    tag_234:\n        /* \"contracts/TimbStaking.sol\":7908:7955  aprBps = (annualRewards * 10_000) / totalStaked */\n      swap2\n      pop\n        /* \"contracts/TimbStaking.sol\":7732:7962  {... */\n      pop\n        /* \"contracts/TimbStaking.sol\":7669:7962  function estimatedAPR() external view returns (uint256 aprBps) {... */\n      swap1\n      jump\t// out\n        /* \"@openzeppelin/contracts/access/Ownable.sol\":2293:2394  function renounceOwnership() public virtual onlyOwner {... */\n    tag_90:\n        /* \"@openzeppelin/contracts/access/Ownable.sol\":1531:1544  _checkOwner() */\n      tag_236\n        /* \"@openzeppelin/contracts/access/Ownable.sol\":1531:1542  _checkOwner */\n      tag_182\n        /* \"@openzeppelin/contracts/access/Ownable.sol\":1531:1544  _checkOwner() */\n      jump\t// in\n    tag_236:\n        /* \"@openzeppelin/contracts/access/Ownable.sol\":2357:2387  _transferOwnership(address(0)) */\n      tag_226\n        /* \"@openzeppelin/contracts/access/Ownable.sol\":2384:2385  0 */\n      0x00\n        /* \"@openzeppelin/contracts/access/Ownable.sol\":2357:2375  _transferOwnership */\n      tag_239\n        /* \"@openzeppelin/contracts/access/Ownable.sol\":2357:2387  _transferOwnership(address(0)) */\n      jump\t// in\n        /* \"contracts/TimbStaking.sol\":6541:6694  function lastTimeRewardApplicable() public view returns (uint256) {... */\n    tag_92:\n        /* \"contracts/TimbStaking.sol\":6598:6605  uint256 */\n      0x00\n        /* \"contracts/TimbStaking.sol\":6642:6654  periodFinish */\n      sload(0x03)\n        /* \"contracts/TimbStaking.sol\":6624:6639  block.timestamp */\n      timestamp\n        /* \"contracts/TimbStaking.sol\":6624:6654  block.timestamp < periodFinish */\n      lt\n        /* \"contracts/TimbStaking.sol\":6624:6687  block.timestamp < periodFinish ? block.timestamp : periodFinish */\n      tag_241\n      jumpi\n      pop\n        /* \"contracts/TimbStaking.sol\":6675:6687  periodFinish */\n      sload(0x03)\n      swap1\n        /* \"contracts/TimbStaking.sol\":6541:6694  function lastTimeRewardApplicable() public view returns (uint256) {... */\n      jump\t// out\n        /* \"contracts/TimbStaking.sol\":6624:6687  block.timestamp < periodFinish ? block.timestamp : periodFinish */\n    tag_241:\n        /* \"contracts/TimbStaking.sol\":6657:6672  block.timestamp */\n      timestamp\n        /* \"contracts/TimbStaking.sol\":6624:6687  block.timestamp < periodFinish ? block.timestamp : periodFinish */\n    tag_242:\n        /* \"contracts/TimbStaking.sol\":6617:6687  return block.timestamp < periodFinish ? block.timestamp : periodFinish */\n      swap1\n      pop\n        /* \"contracts/TimbStaking.sol\":6541:6694  function lastTimeRewardApplicable() public view returns (uint256) {... */\n      swap1\n      jump\t// out\n        /* \"contracts/TimbStaking.sol\":15098:15180  function pause()   external onlyOwner { paused = true;  emit Paused(msg.sender); } */\n    tag_98:\n        /* \"@openzeppelin/contracts/access/Ownable.sol\":1531:1544  _checkOwner() */\n      tag_244\n        /* \"@openzeppelin/contracts/access/Ownable.sol\":1531:1542  _checkOwner */\n      tag_182\n        /* \"@openzeppelin/contracts/access/Ownable.sol\":1531:1544  _checkOwner() */\n      jump\t// in\n    tag_244:\n        /* \"contracts/TimbStaking.sol\":15138:15144  paused */\n      0x0b\n        /* \"contracts/TimbStaking.sol\":15138:15151  paused = true */\n      dup1\n      sload\n      not(0xff)\n      and\n        /* \"contracts/TimbStaking.sol\":15147:15151  true */\n      0x01\n        /* \"contracts/TimbStaking.sol\":15138:15151  paused = true */\n      or\n      swap1\n      sstore\n        /* \"contracts/TimbStaking.sol\":15159:15177  Paused(msg.sender) */\n      mload(0x40)\n        /* \"contracts/TimbStaking.sol\":15166:15176  msg.sender */\n      caller\n      swap1\n        /* \"contracts/TimbStaking.sol\":15159:15177  Paused(msg.sender) */\n      0x62e78cea01bee320cd4e420270b5ea74000d11b0c9f74754ebdbfc544b05a258\n      swap1\n        /* \"contracts/TimbStaking.sol\":15138:15144  paused */\n      0x00\n      swap1\n        /* \"contracts/TimbStaking.sol\":15159:15177  Paused(msg.sender) */\n      log2\n        /* \"contracts/TimbStaking.sol\":15098:15180  function pause()   external onlyOwner { paused = true;  emit Paused(msg.sender); } */\n      jump\t// out\n        /* \"contracts/TimbStaking.sol\":16132:16565  function recoverERC20(address token, uint256 amount) external onlyOwner {... */\n    tag_102:\n        /* \"@openzeppelin/contracts/access/Ownable.sol\":1531:1544  _checkOwner() */\n      tag_247\n        /* \"@openzeppelin/contracts/access/Ownable.sol\":1531:1542  _checkOwner */\n      tag_182\n        /* \"@openzeppelin/contracts/access/Ownable.sol\":1531:1544  _checkOwner() */\n      jump\t// in\n    tag_247:\n        /* \"contracts/TimbStaking.sol\":16235:16245  timbsToken */\n      immutable(\"0x962c584afcd4dd6cb0e25fef291e59a13b9ae1b34d13f25b13a34669b807535c\")\n      sub(shl(0xa0, 0x01), 0x01)\n        /* \"contracts/TimbStaking.sol\":16218:16246  token == address(timbsToken) */\n      and\n        /* \"contracts/TimbStaking.sol\":16218:16223  token */\n      dup3\n      sub(shl(0xa0, 0x01), 0x01)\n        /* \"contracts/TimbStaking.sol\":16218:16246  token == address(timbsToken) */\n      and\n      sub\n        /* \"contracts/TimbStaking.sol\":16214:16506  if (token == address(timbsToken)) {... */\n      tag_249\n      jumpi\n        /* \"contracts/TimbStaking.sol\":16391:16402  totalStaked */\n      sload(0x06)\n        /* \"contracts/TimbStaking.sol\":16353:16388  timbsToken.balanceOf(address(this)) */\n      mload(0x40)\n      shl(0xe0, 0x70a08231)\n      dup2\n      mstore\n        /* \"contracts/TimbStaking.sol\":16382:16386  this */\n      address\n        /* \"contracts/TimbStaking.sol\":16353:16388  timbsToken.balanceOf(address(this)) */\n      0x04\n      dup3\n      add\n        /* \"#utility.yul\":725:776   */\n      mstore\n        /* \"contracts/TimbStaking.sol\":16331:16350  uint256 recoverable */\n      0x00\n      swap2\n        /* \"contracts/TimbStaking.sol\":16391:16402  totalStaked */\n      swap1\n      sub(shl(0xa0, 0x01), 0x01)\n        /* \"contracts/TimbStaking.sol\":16353:16363  timbsToken */\n      immutable(\"0x962c584afcd4dd6cb0e25fef291e59a13b9ae1b34d13f25b13a34669b807535c\")\n        /* \"contracts/TimbStaking.sol\":16353:16373  timbsToken.balanceOf */\n      and\n      swap1\n      0x70a08231\n      swap1\n        /* \"#utility.yul\":698:716   */\n      0x24\n      add\n        /* \"contracts/TimbStaking.sol\":16353:16388  timbsToken.balanceOf(address(this)) */\n      0x20\n      mload(0x40)\n      dup1\n      dup4\n      sub\n      dup2\n      dup7\n      gas\n      staticcall\n      iszero\n      dup1\n      iszero\n      tag_252\n      jumpi\n      returndatasize\n      0x00\n      dup1\n      returndatacopy\n      revert(0x00, returndatasize)\n    tag_252:\n      pop\n      pop\n      pop\n      pop\n      mload(0x40)\n      returndatasize\n      not(0x1f)\n      0x1f\n      dup3\n      add\n      and\n      dup3\n      add\n      dup1\n      0x40\n      mstore\n      pop\n      dup2\n      add\n      swap1\n      tag_253\n      swap2\n      swap1\n      tag_220\n      jump\t// in\n    tag_253:\n        /* \"contracts/TimbStaking.sol\":16353:16402  timbsToken.balanceOf(address(this)) - totalStaked */\n      tag_254\n      swap2\n      swap1\n      tag_145\n      jump\t// in\n    tag_254:\n        /* \"contracts/TimbStaking.sol\":16331:16402  uint256 recoverable = timbsToken.balanceOf(address(this)) - totalStaked */\n      swap1\n      pop\n        /* \"contracts/TimbStaking.sol\":16429:16440  recoverable */\n      dup1\n        /* \"contracts/TimbStaking.sol\":16420:16426  amount */\n      dup3\n        /* \"contracts/TimbStaking.sol\":16420:16440  amount > recoverable */\n      gt\n        /* \"contracts/TimbStaking.sol\":16416:16495  if (amount > recoverable) revert InsufficientRewardBalance(amount, recoverable) */\n      iszero\n      tag_255\n      jumpi\n        /* \"contracts/TimbStaking.sol\":16449:16495  InsufficientRewardBalance(amount, recoverable) */\n      mload(0x40)\n      shl(0xe0, 0x65ac9d43)\n      dup2\n      mstore\n      0x04\n      dup2\n      add\n        /* \"#utility.yul\":3200:3225   */\n      dup4\n      swap1\n      mstore\n        /* \"#utility.yul\":3241:3259   */\n      0x24\n      dup2\n      add\n        /* \"#utility.yul\":3234:3268   */\n      dup3\n      swap1\n      mstore\n        /* \"#utility.yul\":3173:3191   */\n      0x44\n      add\n        /* \"contracts/TimbStaking.sol\":16449:16495  InsufficientRewardBalance(amount, recoverable) */\n      tag_198\n        /* \"#utility.yul\":3026:3274   */\n      jump\n        /* \"contracts/TimbStaking.sol\":16416:16495  if (amount > recoverable) revert InsufficientRewardBalance(amount, recoverable) */\n    tag_255:\n        /* \"contracts/TimbStaking.sol\":16248:16506  {... */\n      pop\n        /* \"contracts/TimbStaking.sol\":16214:16506  if (token == address(timbsToken)) {... */\n    tag_249:\n        /* \"contracts/TimbStaking.sol\":16515:16558  IERC20(token).safeTransfer(owner(), amount) */\n      tag_178\n        /* \"contracts/TimbStaking.sol\":16542:16549  owner() */\n      tag_258\n        /* \"@openzeppelin/contracts/access/Ownable.sol\":1684:1691  address */\n      0x00\n        /* \"@openzeppelin/contracts/access/Ownable.sol\":1710:1716  _owner */\n      sload\n      sub(shl(0xa0, 0x01), 0x01)\n      and\n      swap1\n        /* \"@openzeppelin/contracts/access/Ownable.sol\":1638:1723  function owner() public view virtual returns (address) {... */\n      jump\n        /* \"contracts/TimbStaking.sol\":16542:16549  owner() */\n    tag_258:\n      sub(shl(0xa0, 0x01), 0x01)\n        /* \"contracts/TimbStaking.sol\":16515:16541  IERC20(token).safeTransfer */\n      dup5\n      and\n      swap1\n        /* \"contracts/TimbStaking.sol\":16551:16557  amount */\n      dup4\n        /* \"contracts/TimbStaking.sol\":16515:16541  IERC20(token).safeTransfer */\n      tag_202\n        /* \"contracts/TimbStaking.sol\":16515:16558  IERC20(token).safeTransfer(owner(), amount) */\n      jump\t// in\n        /* \"contracts/TimbStaking.sol\":13752:13968  function setRewardRate(uint256 _ratePerSecond)... */\n    tag_112:\n        /* \"@openzeppelin/contracts/access/Ownable.sol\":1531:1544  _checkOwner() */\n      tag_261\n        /* \"@openzeppelin/contracts/access/Ownable.sol\":1531:1542  _checkOwner */\n      tag_182\n        /* \"@openzeppelin/contracts/access/Ownable.sol\":1531:1544  _checkOwner() */\n      jump\t// in\n    tag_261:\n        /* \"contracts/TimbStaking.sol\":13863:13864  0 */\n      0x00\n        /* \"contracts/TimbStaking.sol\":5253:5269  rewardPerToken() */\n      tag_263\n        /* \"contracts/TimbStaking.sol\":5253:5267  rewardPerToken */\n      tag_120\n        /* \"contracts/TimbStaking.sol\":5253:5269  rewardPerToken() */\n      jump\t// in\n    tag_263:\n        /* \"contracts/TimbStaking.sol\":5230:5250  rewardPerTokenStored */\n      0x05\n        /* \"contracts/TimbStaking.sol\":5230:5269  rewardPerTokenStored = rewardPerToken() */\n      sstore\n        /* \"contracts/TimbStaking.sol\":5302:5328  lastTimeRewardApplicable() */\n      tag_264\n        /* \"contracts/TimbStaking.sol\":5302:5326  lastTimeRewardApplicable */\n      tag_92\n        /* \"contracts/TimbStaking.sol\":5302:5328  lastTimeRewardApplicable() */\n      jump\t// in\n    tag_264:\n        /* \"contracts/TimbStaking.sol\":5279:5293  lastUpdateTime */\n      0x04\n        /* \"contracts/TimbStaking.sol\":5279:5328  lastUpdateTime       = lastTimeRewardApplicable() */\n      sstore\n      sub(shl(0xa0, 0x01), 0x01)\n        /* \"contracts/TimbStaking.sol\":5342:5363  account != address(0) */\n      dup2\n      and\n      iszero\n        /* \"contracts/TimbStaking.sol\":5338:5506  if (account != address(0)) {... */\n      tag_265\n      jumpi\n        /* \"contracts/TimbStaking.sol\":5412:5427  earned(account) */\n      tag_266\n        /* \"contracts/TimbStaking.sol\":5419:5426  account */\n      dup2\n        /* \"contracts/TimbStaking.sol\":5412:5418  earned */\n      tag_44\n        /* \"contracts/TimbStaking.sol\":5412:5427  earned(account) */\n      jump\t// in\n    tag_266:\n      sub(shl(0xa0, 0x01), 0x01)\n        /* \"contracts/TimbStaking.sol\":5379:5402  pendingRewards[account] */\n      dup3\n      and\n      0x00\n      swap1\n      dup2\n      mstore\n        /* \"contracts/TimbStaking.sol\":5379:5393  pendingRewards */\n      0x09\n        /* \"contracts/TimbStaking.sol\":5379:5402  pendingRewards[account] */\n      0x20\n      swap1\n      dup2\n      mstore\n      0x40\n      dup1\n      dup4\n      keccak256\n        /* \"contracts/TimbStaking.sol\":5379:5427  pendingRewards[account]        = earned(account) */\n      swap4\n      swap1\n      swap4\n      sstore\n        /* \"contracts/TimbStaking.sol\":5475:5495  rewardPerTokenStored */\n      sload(0x05)\n        /* \"contracts/TimbStaking.sol\":5441:5463  userRewardPerTokenPaid */\n      0x08\n        /* \"contracts/TimbStaking.sol\":5441:5472  userRewardPerTokenPaid[account] */\n      swap1\n      swap2\n      mstore\n      swap2\n      swap1\n      keccak256\n        /* \"contracts/TimbStaking.sol\":5441:5495  userRewardPerTokenPaid[account] = rewardPerTokenStored */\n      sstore\n        /* \"contracts/TimbStaking.sol\":5338:5506  if (account != address(0)) {... */\n    tag_265:\n        /* \"contracts/TimbStaking.sol\":13881:13900  rewardRatePerSecond */\n      0x02\n        /* \"contracts/TimbStaking.sol\":13881:13917  rewardRatePerSecond = _ratePerSecond */\n      dup3\n      swap1\n      sstore\n        /* \"contracts/TimbStaking.sol\":13932:13961  RewardRateSet(_ratePerSecond) */\n      mload(0x40)\n        /* \"#utility.yul\":529:554   */\n      dup3\n      dup2\n      mstore\n        /* \"contracts/TimbStaking.sol\":13932:13961  RewardRateSet(_ratePerSecond) */\n      0x8cbfafc8e0d9c5c81401c4b9c6e7d201198adc7eb8f8f1556c195ecd4c0a0e7b\n      swap1\n        /* \"#utility.yul\":517:519   */\n      0x20\n        /* \"#utility.yul\":502:520   */\n      add\n        /* \"contracts/TimbStaking.sol\":13932:13961  RewardRateSet(_ratePerSecond) */\n      mload(0x40)\n      dup1\n      swap2\n      sub\n      swap1\n      log1\n        /* \"@openzeppelin/contracts/access/Ownable.sol\":1554:1555  _ */\n      pop\n        /* \"contracts/TimbStaking.sol\":13752:13968  function setRewardRate(uint256 _ratePerSecond)... */\n      pop\n      jump\t// out\n        /* \"contracts/TimbStaking.sol\":8439:8826  function stake(uint256 amount)... */\n    tag_115:\n        /* \"@openzeppelin/contracts/utils/ReentrancyGuard.sol\":3023:3044  _nonReentrantBefore() */\n      tag_270\n        /* \"@openzeppelin/contracts/utils/ReentrancyGuard.sol\":3023:3042  _nonReentrantBefore */\n      tag_154\n        /* \"@openzeppelin/contracts/utils/ReentrancyGuard.sol\":3023:3044  _nonReentrantBefore() */\n      jump\t// in\n    tag_270:\n        /* \"contracts/TimbStaking.sol\":5126:5132  paused */\n      and(0xff, sload(0x0b))\n        /* \"contracts/TimbStaking.sol\":5122:5157  if (paused) revert ContractPaused() */\n      iszero\n      tag_272\n      jumpi\n        /* \"contracts/TimbStaking.sol\":5141:5157  ContractPaused() */\n      mload(0x40)\n      shl(0xe0, 0xab35696f)\n      dup2\n      mstore\n      0x04\n      add\n      mload(0x40)\n      dup1\n      swap2\n      sub\n      swap1\n      revert\n        /* \"contracts/TimbStaking.sol\":5122:5157  if (paused) revert ContractPaused() */\n    tag_272:\n        /* \"contracts/TimbStaking.sol\":8551:8561  msg.sender */\n      caller\n        /* \"contracts/TimbStaking.sol\":5253:5269  rewardPerToken() */\n      tag_274\n        /* \"contracts/TimbStaking.sol\":5253:5267  rewardPerToken */\n      tag_120\n        /* \"contracts/TimbStaking.sol\":5253:5269  rewardPerToken() */\n      jump\t// in\n    tag_274:\n        /* \"contracts/TimbStaking.sol\":5230:5250  rewardPerTokenStored */\n      0x05\n        /* \"contracts/TimbStaking.sol\":5230:5269  rewardPerTokenStored = rewardPerToken() */\n      sstore\n        /* \"contracts/TimbStaking.sol\":5302:5328  lastTimeRewardApplicable() */\n      tag_275\n        /* \"contracts/TimbStaking.sol\":5302:5326  lastTimeRewardApplicable */\n      tag_92\n        /* \"contracts/TimbStaking.sol\":5302:5328  lastTimeRewardApplicable() */\n      jump\t// in\n    tag_275:\n        /* \"contracts/TimbStaking.sol\":5279:5293  lastUpdateTime */\n      0x04\n        /* \"contracts/TimbStaking.sol\":5279:5328  lastUpdateTime       = lastTimeRewardApplicable() */\n      sstore\n      sub(shl(0xa0, 0x01), 0x01)\n        /* \"contracts/TimbStaking.sol\":5342:5363  account != address(0) */\n      dup2\n      and\n      iszero\n        /* \"contracts/TimbStaking.sol\":5338:5506  if (account != address(0)) {... */\n      tag_276\n      jumpi\n        /* \"contracts/TimbStaking.sol\":5412:5427  earned(account) */\n      tag_277\n        /* \"contracts/TimbStaking.sol\":5419:5426  account */\n      dup2\n        /* \"contracts/TimbStaking.sol\":5412:5418  earned */\n      tag_44\n        /* \"contracts/TimbStaking.sol\":5412:5427  earned(account) */\n      jump\t// in\n    tag_277:\n      sub(shl(0xa0, 0x01), 0x01)\n        /* \"contracts/TimbStaking.sol\":5379:5402  pendingRewards[account] */\n      dup3\n      and\n      0x00\n      swap1\n      dup2\n      mstore\n        /* \"contracts/TimbStaking.sol\":5379:5393  pendingRewards */\n      0x09\n        /* \"contracts/TimbStaking.sol\":5379:5402  pendingRewards[account] */\n      0x20\n      swap1\n      dup2\n      mstore\n      0x40\n      dup1\n      dup4\n      keccak256\n        /* \"contracts/TimbStaking.sol\":5379:5427  pendingRewards[account]        = earned(account) */\n      swap4\n      swap1\n      swap4\n      sstore\n        /* \"contracts/TimbStaking.sol\":5475:5495  rewardPerTokenStored */\n      sload(0x05)\n        /* \"contracts/TimbStaking.sol\":5441:5463  userRewardPerTokenPaid */\n      0x08\n        /* \"contracts/TimbStaking.sol\":5441:5472  userRewardPerTokenPaid[account] */\n      swap1\n      swap2\n      mstore\n      swap2\n      swap1\n      keccak256\n        /* \"contracts/TimbStaking.sol\":5441:5495  userRewardPerTokenPaid[account] = rewardPerTokenStored */\n      sstore\n        /* \"contracts/TimbStaking.sol\":5338:5506  if (account != address(0)) {... */\n    tag_276:\n        /* \"contracts/TimbStaking.sol\":8581:8587  amount */\n      dup2\n        /* \"contracts/TimbStaking.sol\":8591:8592  0 */\n      0x00\n        /* \"contracts/TimbStaking.sol\":8581:8592  amount == 0 */\n      sub\n        /* \"contracts/TimbStaking.sol\":8577:8613  if (amount == 0) revert ZeroAmount() */\n      tag_279\n      jumpi\n        /* \"contracts/TimbStaking.sol\":8601:8613  ZeroAmount() */\n      mload(0x40)\n      shl(0xe0, 0x1f2a2005)\n      dup2\n      mstore\n      0x04\n      add\n      mload(0x40)\n      dup1\n      swap2\n      sub\n      swap1\n      revert\n        /* \"contracts/TimbStaking.sol\":8577:8613  if (amount == 0) revert ZeroAmount() */\n    tag_279:\n        /* \"contracts/TimbStaking.sol\":8638:8648  msg.sender */\n      caller\n        /* \"contracts/TimbStaking.sol\":8624:8649  stakedBalance[msg.sender] */\n      0x00\n      swap1\n      dup2\n      mstore\n        /* \"contracts/TimbStaking.sol\":8624:8637  stakedBalance */\n      0x07\n        /* \"contracts/TimbStaking.sol\":8624:8649  stakedBalance[msg.sender] */\n      0x20\n      mstore\n      0x40\n      dup2\n      keccak256\n        /* \"contracts/TimbStaking.sol\":8624:8659  stakedBalance[msg.sender] += amount */\n      dup1\n      sload\n        /* \"contracts/TimbStaking.sol\":8653:8659  amount */\n      dup5\n      swap3\n        /* \"contracts/TimbStaking.sol\":8624:8649  stakedBalance[msg.sender] */\n      swap1\n        /* \"contracts/TimbStaking.sol\":8624:8659  stakedBalance[msg.sender] += amount */\n      tag_280\n      swap1\n        /* \"contracts/TimbStaking.sol\":8653:8659  amount */\n      dup5\n      swap1\n        /* \"contracts/TimbStaking.sol\":8624:8659  stakedBalance[msg.sender] += amount */\n      tag_151\n      jump\t// in\n    tag_280:\n      swap3\n      pop\n      pop\n      dup2\n      swap1\n      sstore\n      pop\n        /* \"contracts/TimbStaking.sol\":8698:8704  amount */\n      dup2\n        /* \"contracts/TimbStaking.sol\":8669:8680  totalStaked */\n      0x06\n      0x00\n        /* \"contracts/TimbStaking.sol\":8669:8704  totalStaked               += amount */\n      dup3\n      dup3\n      sload\n      tag_281\n      swap2\n      swap1\n      tag_151\n      jump\t// in\n    tag_281:\n      swap1\n      swap2\n      sstore\n      pop\n        /* \"contracts/TimbStaking.sol\":8715:8777  timbsToken.safeTransferFrom(msg.sender, address(this), amount) */\n      tag_282\n      swap1\n      pop\n      sub(shl(0xa0, 0x01), 0x01)\n        /* \"contracts/TimbStaking.sol\":8715:8725  timbsToken */\n      immutable(\"0x962c584afcd4dd6cb0e25fef291e59a13b9ae1b34d13f25b13a34669b807535c\")\n        /* \"contracts/TimbStaking.sol\":8715:8742  timbsToken.safeTransferFrom */\n      and\n        /* \"contracts/TimbStaking.sol\":8743:8753  msg.sender */\n      caller\n        /* \"contracts/TimbStaking.sol\":8763:8767  this */\n      address\n        /* \"contracts/TimbStaking.sol\":8770:8776  amount */\n      dup6\n        /* \"contracts/TimbStaking.sol\":8715:8742  timbsToken.safeTransferFrom */\n      tag_167\n        /* \"contracts/TimbStaking.sol\":8715:8777  timbsToken.safeTransferFrom(msg.sender, address(this), amount) */\n      jump\t// in\n    tag_282:\n        /* \"contracts/TimbStaking.sol\":8793:8819  Staked(msg.sender, amount) */\n      mload(0x40)\n        /* \"#utility.yul\":529:554   */\n      dup3\n      dup2\n      mstore\n        /* \"contracts/TimbStaking.sol\":8800:8810  msg.sender */\n      caller\n      swap1\n        /* \"contracts/TimbStaking.sol\":8793:8819  Staked(msg.sender, amount) */\n      0x9e71bc8eea02a63969f509818f2dafb9254532904319f9dbda79b67bd34a5f3d\n      swap1\n        /* \"#utility.yul\":517:519   */\n      0x20\n        /* \"#utility.yul\":502:520   */\n      add\n        /* \"contracts/TimbStaking.sol\":8793:8819  Staked(msg.sender, amount) */\n      tag_203\n        /* \"#utility.yul\":383:560   */\n      jump\n        /* \"contracts/TimbStaking.sol\":6794:7140  function rewardPerToken() public view returns (uint256) {... */\n    tag_120:\n        /* \"contracts/TimbStaking.sol\":6841:6848  uint256 */\n      0x00\n        /* \"contracts/TimbStaking.sol\":6864:6875  totalStaked */\n      sload(0x06)\n        /* \"contracts/TimbStaking.sol\":6879:6880  0 */\n      0x00\n        /* \"contracts/TimbStaking.sol\":6864:6880  totalStaked == 0 */\n      sub\n        /* \"contracts/TimbStaking.sol\":6860:6934  if (totalStaked == 0) {... */\n      tag_286\n      jumpi\n      pop\n        /* \"contracts/TimbStaking.sol\":6903:6923  rewardPerTokenStored */\n      sload(0x05)\n      swap1\n        /* \"contracts/TimbStaking.sol\":6794:7140  function rewardPerToken() public view returns (uint256) {... */\n      jump\t// out\n        /* \"contracts/TimbStaking.sol\":6860:6934  if (totalStaked == 0) {... */\n    tag_286:\n        /* \"contracts/TimbStaking.sol\":7112:7123  totalStaked */\n      sload(0x06)\n        /* \"contracts/TimbStaking.sol\":7051:7070  rewardRatePerSecond */\n      sload(0x02)\n        /* \"contracts/TimbStaking.sol\":7017:7031  lastUpdateTime */\n      sload(0x04)\n        /* \"contracts/TimbStaking.sol\":6988:7014  lastTimeRewardApplicable() */\n      tag_287\n        /* \"contracts/TimbStaking.sol\":6988:7012  lastTimeRewardApplicable */\n      tag_92\n        /* \"contracts/TimbStaking.sol\":6988:7014  lastTimeRewardApplicable() */\n      jump\t// in\n    tag_287:\n        /* \"contracts/TimbStaking.sol\":6988:7031  lastTimeRewardApplicable() - lastUpdateTime */\n      tag_288\n      swap2\n      swap1\n      tag_145\n      jump\t// in\n    tag_288:\n        /* \"contracts/TimbStaking.sol\":6987:7070  (lastTimeRewardApplicable() - lastUpdateTime)... */\n      tag_289\n      swap2\n      swap1\n      tag_147\n      jump\t// in\n    tag_289:\n        /* \"contracts/TimbStaking.sol\":6987:7093  (lastTimeRewardApplicable() - lastUpdateTime)... */\n      tag_290\n      swap1\n        /* \"contracts/TimbStaking.sol\":7089:7093  1e18 */\n      0x0de0b6b3a7640000\n        /* \"contracts/TimbStaking.sol\":6987:7093  (lastTimeRewardApplicable() - lastUpdateTime)... */\n      tag_147\n      jump\t// in\n    tag_290:\n        /* \"contracts/TimbStaking.sol\":6987:7123  (lastTimeRewardApplicable() - lastUpdateTime)... */\n      tag_291\n      swap2\n      swap1\n      tag_149\n      jump\t// in\n    tag_291:\n        /* \"contracts/TimbStaking.sol\":6950:6970  rewardPerTokenStored */\n      sload(0x05)\n        /* \"contracts/TimbStaking.sol\":6950:7133  rewardPerTokenStored + (... */\n      tag_242\n      swap2\n      swap1\n      tag_151\n      jump\t// in\n        /* \"contracts/TimbStaking.sol\":15499:15954  function emergencyWithdraw() external nonReentrant {... */\n    tag_127:\n        /* \"@openzeppelin/contracts/utils/ReentrancyGuard.sol\":3023:3044  _nonReentrantBefore() */\n      tag_294\n        /* \"@openzeppelin/contracts/utils/ReentrancyGuard.sol\":3023:3042  _nonReentrantBefore */\n      tag_154\n        /* \"@openzeppelin/contracts/utils/ReentrancyGuard.sol\":3023:3044  _nonReentrantBefore() */\n      jump\t// in\n    tag_294:\n        /* \"contracts/TimbStaking.sol\":15591:15601  msg.sender */\n      caller\n        /* \"contracts/TimbStaking.sol\":15560:15574  uint256 staked */\n      0x00\n        /* \"contracts/TimbStaking.sol\":15577:15602  stakedBalance[msg.sender] */\n      swap1\n      dup2\n      mstore\n        /* \"contracts/TimbStaking.sol\":15577:15590  stakedBalance */\n      0x07\n        /* \"contracts/TimbStaking.sol\":15577:15602  stakedBalance[msg.sender] */\n      0x20\n      mstore\n      0x40\n      dup2\n      keccak256\n      sload\n      swap1\n        /* \"contracts/TimbStaking.sol\":15616:15627  staked == 0 */\n      dup2\n      swap1\n      sub\n        /* \"contracts/TimbStaking.sol\":15612:15648  if (staked == 0) revert ZeroAmount() */\n      tag_296\n      jumpi\n        /* \"contracts/TimbStaking.sol\":15636:15648  ZeroAmount() */\n      mload(0x40)\n      shl(0xe0, 0x1f2a2005)\n      dup2\n      mstore\n      0x04\n      add\n      mload(0x40)\n      dup1\n      swap2\n      sub\n      swap1\n      revert\n        /* \"contracts/TimbStaking.sol\":15612:15648  if (staked == 0) revert ZeroAmount() */\n    tag_296:\n        /* \"contracts/TimbStaking.sol\":15673:15683  msg.sender */\n      caller\n        /* \"contracts/TimbStaking.sol\":15694:15695  0 */\n      0x00\n        /* \"contracts/TimbStaking.sol\":15659:15684  stakedBalance[msg.sender] */\n      swap1\n      dup2\n      mstore\n        /* \"contracts/TimbStaking.sol\":15659:15672  stakedBalance */\n      0x07\n        /* \"contracts/TimbStaking.sol\":15659:15684  stakedBalance[msg.sender] */\n      0x20\n      swap1\n      dup2\n      mstore\n      0x40\n      dup1\n      dup4\n      keccak256\n        /* \"contracts/TimbStaking.sol\":15659:15695  stakedBalance[msg.sender]        = 0 */\n      dup4\n      swap1\n      sstore\n        /* \"contracts/TimbStaking.sol\":15705:15719  pendingRewards */\n      0x09\n        /* \"contracts/TimbStaking.sol\":15705:15731  pendingRewards[msg.sender] */\n      dup3\n      mstore\n      dup1\n      dup4\n      keccak256\n        /* \"contracts/TimbStaking.sol\":15705:15741  pendingRewards[msg.sender]       = 0 */\n      dup4\n      swap1\n      sstore\n        /* \"contracts/TimbStaking.sol\":15751:15773  userRewardPerTokenPaid */\n      0x08\n        /* \"contracts/TimbStaking.sol\":15751:15785  userRewardPerTokenPaid[msg.sender] */\n      swap1\n      swap2\n      mstore\n      dup2\n      keccak256\n        /* \"contracts/TimbStaking.sol\":15751:15789  userRewardPerTokenPaid[msg.sender] = 0 */\n      dup2\n      swap1\n      sstore\n        /* \"contracts/TimbStaking.sol\":15799:15810  totalStaked */\n      0x06\n        /* \"contracts/TimbStaking.sol\":15799:15841  totalStaked                      -= staked */\n      dup1\n      sload\n        /* \"contracts/TimbStaking.sol\":15835:15841  staked */\n      dup4\n      swap3\n        /* \"contracts/TimbStaking.sol\":15694:15695  0 */\n      swap1\n        /* \"contracts/TimbStaking.sol\":15799:15841  totalStaked                      -= staked */\n      tag_297\n      swap1\n        /* \"contracts/TimbStaking.sol\":15835:15841  staked */\n      dup5\n      swap1\n        /* \"contracts/TimbStaking.sol\":15799:15841  totalStaked                      -= staked */\n      tag_145\n      jump\t// in\n    tag_297:\n      swap1\n      swap2\n      sstore\n      pop\n        /* \"contracts/TimbStaking.sol\":15852:15895  timbsToken.safeTransfer(msg.sender, staked) */\n      tag_298\n      swap1\n      pop\n      sub(shl(0xa0, 0x01), 0x01)\n        /* \"contracts/TimbStaking.sol\":15852:15862  timbsToken */\n      immutable(\"0x962c584afcd4dd6cb0e25fef291e59a13b9ae1b34d13f25b13a34669b807535c\")\n        /* \"contracts/TimbStaking.sol\":15852:15875  timbsToken.safeTransfer */\n      and\n        /* \"contracts/TimbStaking.sol\":15876:15886  msg.sender */\n      caller\n        /* \"contracts/TimbStaking.sol\":15888:15894  staked */\n      dup4\n        /* \"contracts/TimbStaking.sol\":15852:15875  timbsToken.safeTransfer */\n      tag_202\n        /* \"contracts/TimbStaking.sol\":15852:15895  timbsToken.safeTransfer(msg.sender, staked) */\n      jump\t// in\n    tag_298:\n        /* \"contracts/TimbStaking.sol\":15910:15947  EmergencyWithdraw(msg.sender, staked) */\n      mload(0x40)\n        /* \"#utility.yul\":529:554   */\n      dup2\n      dup2\n      mstore\n        /* \"contracts/TimbStaking.sol\":15928:15938  msg.sender */\n      caller\n      swap1\n        /* \"contracts/TimbStaking.sol\":15910:15947  EmergencyWithdraw(msg.sender, staked) */\n      0x5fafa99d0643513820be26656b45130b01e1c03062e1266bf36f88cbd3bd9695\n      swap1\n        /* \"#utility.yul\":517:519   */\n      0x20\n        /* \"#utility.yul\":502:520   */\n      add\n        /* \"contracts/TimbStaking.sol\":15910:15947  EmergencyWithdraw(msg.sender, staked) */\n      mload(0x40)\n      dup1\n      swap2\n      sub\n      swap1\n      log2\n        /* \"contracts/TimbStaking.sol\":15550:15954  {... */\n      pop\n        /* \"@openzeppelin/contracts/utils/ReentrancyGuard.sol\":3065:3085  _nonReentrantAfter() */\n      tag_226\n        /* \"@openzeppelin/contracts/utils/ReentrancyGuard.sol\":2365:2366  1 */\n      0x01\n      0x00\n      dup1\n      mload\n      0x20\n      data_c8669cf8eaf883002b9f48e28846a8d408c9b58ea6613bace374265e43c9bc43\n      dup4\n      codecopy\n      dup2\n      mload\n      swap2\n      mstore\n        /* \"@openzeppelin/contracts/utils/ReentrancyGuard.sol\":3972:4034  _reentrancyGuardStorageSlot().getUint256Slot().value = ENTERED */\n      sstore\n        /* \"@openzeppelin/contracts/utils/ReentrancyGuard.sol\":3749:4041  function _nonReentrantBefore() private {... */\n      jump\n        /* \"contracts/TimbStaking.sol\":11003:11896  function exit()... */\n    tag_132:\n        /* \"@openzeppelin/contracts/utils/ReentrancyGuard.sol\":3023:3044  _nonReentrantBefore() */\n      tag_302\n        /* \"@openzeppelin/contracts/utils/ReentrancyGuard.sol\":3023:3042  _nonReentrantBefore */\n      tag_154\n        /* \"@openzeppelin/contracts/utils/ReentrancyGuard.sol\":3023:3044  _nonReentrantBefore() */\n      jump\t// in\n    tag_302:\n        /* \"contracts/TimbStaking.sol\":5126:5132  paused */\n      and(0xff, sload(0x0b))\n        /* \"contracts/TimbStaking.sol\":5122:5157  if (paused) revert ContractPaused() */\n      iszero\n      tag_304\n      jumpi\n        /* \"contracts/TimbStaking.sol\":5141:5157  ContractPaused() */\n      mload(0x40)\n      shl(0xe0, 0xab35696f)\n      dup2\n      mstore\n      0x04\n      add\n      mload(0x40)\n      dup1\n      swap2\n      sub\n      swap1\n      revert\n        /* \"contracts/TimbStaking.sol\":5122:5157  if (paused) revert ContractPaused() */\n    tag_304:\n        /* \"contracts/TimbStaking.sol\":11100:11110  msg.sender */\n      caller\n        /* \"contracts/TimbStaking.sol\":5253:5269  rewardPerToken() */\n      tag_306\n        /* \"contracts/TimbStaking.sol\":5253:5267  rewardPerToken */\n      tag_120\n        /* \"contracts/TimbStaking.sol\":5253:5269  rewardPerToken() */\n      jump\t// in\n    tag_306:\n        /* \"contracts/TimbStaking.sol\":5230:5250  rewardPerTokenStored */\n      0x05\n        /* \"contracts/TimbStaking.sol\":5230:5269  rewardPerTokenStored = rewardPerToken() */\n      sstore\n        /* \"contracts/TimbStaking.sol\":5302:5328  lastTimeRewardApplicable() */\n      tag_307\n        /* \"contracts/TimbStaking.sol\":5302:5326  lastTimeRewardApplicable */\n      tag_92\n        /* \"contracts/TimbStaking.sol\":5302:5328  lastTimeRewardApplicable() */\n      jump\t// in\n    tag_307:\n        /* \"contracts/TimbStaking.sol\":5279:5293  lastUpdateTime */\n      0x04\n        /* \"contracts/TimbStaking.sol\":5279:5328  lastUpdateTime       = lastTimeRewardApplicable() */\n      sstore\n      sub(shl(0xa0, 0x01), 0x01)\n        /* \"contracts/TimbStaking.sol\":5342:5363  account != address(0) */\n      dup2\n      and\n      iszero\n        /* \"contracts/TimbStaking.sol\":5338:5506  if (account != address(0)) {... */\n      tag_308\n      jumpi\n        /* \"contracts/TimbStaking.sol\":5412:5427  earned(account) */\n      tag_309\n        /* \"contracts/TimbStaking.sol\":5419:5426  account */\n      dup2\n        /* \"contracts/TimbStaking.sol\":5412:5418  earned */\n      tag_44\n        /* \"contracts/TimbStaking.sol\":5412:5427  earned(account) */\n      jump\t// in\n    tag_309:\n      sub(shl(0xa0, 0x01), 0x01)\n        /* \"contracts/TimbStaking.sol\":5379:5402  pendingRewards[account] */\n      dup3\n      and\n      0x00\n      swap1\n      dup2\n      mstore\n        /* \"contracts/TimbStaking.sol\":5379:5393  pendingRewards */\n      0x09\n        /* \"contracts/TimbStaking.sol\":5379:5402  pendingRewards[account] */\n      0x20\n      swap1\n      dup2\n      mstore\n      0x40\n      dup1\n      dup4\n      keccak256\n        /* \"contracts/TimbStaking.sol\":5379:5427  pendingRewards[account]        = earned(account) */\n      swap4\n      swap1\n      swap4\n      sstore\n        /* \"contracts/TimbStaking.sol\":5475:5495  rewardPerTokenStored */\n      sload(0x05)\n        /* \"contracts/TimbStaking.sol\":5441:5463  userRewardPerTokenPaid */\n      0x08\n        /* \"contracts/TimbStaking.sol\":5441:5472  userRewardPerTokenPaid[account] */\n      swap1\n      swap2\n      mstore\n      swap2\n      swap1\n      keccak256\n        /* \"contracts/TimbStaking.sol\":5441:5495  userRewardPerTokenPaid[account] = rewardPerTokenStored */\n      sstore\n        /* \"contracts/TimbStaking.sol\":5338:5506  if (account != address(0)) {... */\n    tag_308:\n        /* \"contracts/TimbStaking.sol\":11157:11167  msg.sender */\n      caller\n        /* \"contracts/TimbStaking.sol\":11126:11140  uint256 staked */\n      0x00\n        /* \"contracts/TimbStaking.sol\":11143:11168  stakedBalance[msg.sender] */\n      swap1\n      dup2\n      mstore\n        /* \"contracts/TimbStaking.sol\":11143:11156  stakedBalance */\n      0x07\n        /* \"contracts/TimbStaking.sol\":11143:11168  stakedBalance[msg.sender] */\n      0x20\n      swap1\n      dup2\n      mstore\n      0x40\n      dup1\n      dup4\n      keccak256\n      sload\n        /* \"contracts/TimbStaking.sol\":11195:11209  pendingRewards */\n      0x09\n        /* \"contracts/TimbStaking.sol\":11195:11221  pendingRewards[msg.sender] */\n      swap1\n      swap3\n      mstore\n      swap1\n      swap2\n      keccak256\n      sload\n        /* \"contracts/TimbStaking.sol\":11236:11246  staked > 0 */\n      dup2\n      iszero\n        /* \"contracts/TimbStaking.sol\":11232:11454  if (staked > 0) {... */\n      tag_311\n      jumpi\n        /* \"contracts/TimbStaking.sol\":11276:11286  msg.sender */\n      caller\n        /* \"contracts/TimbStaking.sol\":11290:11291  0 */\n      0x00\n        /* \"contracts/TimbStaking.sol\":11262:11287  stakedBalance[msg.sender] */\n      swap1\n      dup2\n      mstore\n        /* \"contracts/TimbStaking.sol\":11262:11275  stakedBalance */\n      0x07\n        /* \"contracts/TimbStaking.sol\":11262:11287  stakedBalance[msg.sender] */\n      0x20\n      mstore\n      0x40\n      dup2\n      keccak256\n        /* \"contracts/TimbStaking.sol\":11262:11291  stakedBalance[msg.sender] = 0 */\n      dup2\n      swap1\n      sstore\n        /* \"contracts/TimbStaking.sol\":11305:11316  totalStaked */\n      0x06\n        /* \"contracts/TimbStaking.sol\":11305:11339  totalStaked              -= staked */\n      dup1\n      sload\n        /* \"contracts/TimbStaking.sol\":11333:11339  staked */\n      dup5\n      swap3\n        /* \"contracts/TimbStaking.sol\":11290:11291  0 */\n      swap1\n        /* \"contracts/TimbStaking.sol\":11305:11339  totalStaked              -= staked */\n      tag_312\n      swap1\n        /* \"contracts/TimbStaking.sol\":11333:11339  staked */\n      dup5\n      swap1\n        /* \"contracts/TimbStaking.sol\":11305:11339  totalStaked              -= staked */\n      tag_145\n      jump\t// in\n    tag_312:\n      swap1\n      swap2\n      sstore\n      pop\n        /* \"contracts/TimbStaking.sol\":11353:11396  timbsToken.safeTransfer(msg.sender, staked) */\n      tag_313\n      swap1\n      pop\n      sub(shl(0xa0, 0x01), 0x01)\n        /* \"contracts/TimbStaking.sol\":11353:11363  timbsToken */\n      immutable(\"0x962c584afcd4dd6cb0e25fef291e59a13b9ae1b34d13f25b13a34669b807535c\")\n        /* \"contracts/TimbStaking.sol\":11353:11376  timbsToken.safeTransfer */\n      and\n        /* \"contracts/TimbStaking.sol\":11377:11387  msg.sender */\n      caller\n        /* \"contracts/TimbStaking.sol\":11389:11395  staked */\n      dup5\n        /* \"contracts/TimbStaking.sol\":11353:11376  timbsToken.safeTransfer */\n      tag_202\n        /* \"contracts/TimbStaking.sol\":11353:11396  timbsToken.safeTransfer(msg.sender, staked) */\n      jump\t// in\n    tag_313:\n        /* \"contracts/TimbStaking.sol\":11415:11443  Unstaked(msg.sender, staked) */\n      mload(0x40)\n        /* \"#utility.yul\":529:554   */\n      dup3\n      dup2\n      mstore\n        /* \"contracts/TimbStaking.sol\":11424:11434  msg.sender */\n      caller\n      swap1\n        /* \"contracts/TimbStaking.sol\":11415:11443  Unstaked(msg.sender, staked) */\n      0x0f5bb82176feb1b5e747e28471aa92156a04d9f3ab9f45f28e2d704232b93f75\n      swap1\n        /* \"#utility.yul\":517:519   */\n      0x20\n        /* \"#utility.yul\":502:520   */\n      add\n        /* \"contracts/TimbStaking.sol\":11415:11443  Unstaked(msg.sender, staked) */\n      mload(0x40)\n      dup1\n      swap2\n      sub\n      swap1\n      log2\n        /* \"contracts/TimbStaking.sol\":11232:11454  if (staked > 0) {... */\n    tag_311:\n        /* \"contracts/TimbStaking.sol\":11468:11478  reward > 0 */\n      dup1\n      iszero\n        /* \"contracts/TimbStaking.sol\":11464:11890  if (reward > 0) {... */\n      tag_315\n      jumpi\n        /* \"contracts/TimbStaking.sol\":11558:11569  totalStaked */\n      sload(0x06)\n        /* \"contracts/TimbStaking.sol\":11520:11555  timbsToken.balanceOf(address(this)) */\n      mload(0x40)\n      shl(0xe0, 0x70a08231)\n      dup2\n      mstore\n        /* \"contracts/TimbStaking.sol\":11549:11553  this */\n      address\n        /* \"contracts/TimbStaking.sol\":11520:11555  timbsToken.balanceOf(address(this)) */\n      0x04\n      dup3\n      add\n        /* \"#utility.yul\":725:776   */\n      mstore\n        /* \"contracts/TimbStaking.sol\":11494:11517  uint256 contractBalance */\n      0x00\n      swap2\n        /* \"contracts/TimbStaking.sol\":11558:11569  totalStaked */\n      swap1\n      sub(shl(0xa0, 0x01), 0x01)\n        /* \"contracts/TimbStaking.sol\":11520:11530  timbsToken */\n      immutable(\"0x962c584afcd4dd6cb0e25fef291e59a13b9ae1b34d13f25b13a34669b807535c\")\n        /* \"contracts/TimbStaking.sol\":11520:11540  timbsToken.balanceOf */\n      and\n      swap1\n      0x70a08231\n      swap1\n        /* \"#utility.yul\":698:716   */\n      0x24\n      add\n        /* \"contracts/TimbStaking.sol\":11520:11555  timbsToken.balanceOf(address(this)) */\n      0x20\n      mload(0x40)\n      dup1\n      dup4\n      sub\n      dup2\n      dup7\n      gas\n      staticcall\n      iszero\n      dup1\n      iszero\n      tag_318\n      jumpi\n      returndatasize\n      0x00\n      dup1\n      returndatacopy\n      revert(0x00, returndatasize)\n    tag_318:\n      pop\n      pop\n      pop\n      pop\n      mload(0x40)\n      returndatasize\n      not(0x1f)\n      0x1f\n      dup3\n      add\n      and\n      dup3\n      add\n      dup1\n      0x40\n      mstore\n      pop\n      dup2\n      add\n      swap1\n      tag_319\n      swap2\n      swap1\n      tag_220\n      jump\t// in\n    tag_319:\n        /* \"contracts/TimbStaking.sol\":11520:11569  timbsToken.balanceOf(address(this)) - totalStaked */\n      tag_320\n      swap2\n      swap1\n      tag_145\n      jump\t// in\n    tag_320:\n        /* \"contracts/TimbStaking.sol\":11494:11569  uint256 contractBalance = timbsToken.balanceOf(address(this)) - totalStaked */\n      swap1\n      pop\n        /* \"contracts/TimbStaking.sol\":11597:11612  contractBalance */\n      dup1\n        /* \"contracts/TimbStaking.sol\":11587:11593  reward */\n      dup3\n        /* \"contracts/TimbStaking.sol\":11587:11612  reward <= contractBalance */\n      gt\n        /* \"contracts/TimbStaking.sol\":11583:11795  if (reward <= contractBalance) {... */\n      tag_321\n      jumpi\n        /* \"contracts/TimbStaking.sol\":11647:11657  msg.sender */\n      caller\n        /* \"contracts/TimbStaking.sol\":11661:11662  0 */\n      0x00\n        /* \"contracts/TimbStaking.sol\":11632:11658  pendingRewards[msg.sender] */\n      dup2\n      dup2\n      mstore\n        /* \"contracts/TimbStaking.sol\":11632:11646  pendingRewards */\n      0x09\n        /* \"contracts/TimbStaking.sol\":11632:11658  pendingRewards[msg.sender] */\n      0x20\n      mstore\n      0x40\n      dup2\n      keccak256\n        /* \"contracts/TimbStaking.sol\":11632:11662  pendingRewards[msg.sender] = 0 */\n      sstore\n        /* \"contracts/TimbStaking.sol\":11680:11723  timbsToken.safeTransfer(msg.sender, reward) */\n      tag_322\n      swap1\n        /* \"contracts/TimbStaking.sol\":11680:11690  timbsToken */\n      immutable(\"0x962c584afcd4dd6cb0e25fef291e59a13b9ae1b34d13f25b13a34669b807535c\")\n      sub(shl(0xa0, 0x01), 0x01)\n        /* \"contracts/TimbStaking.sol\":11680:11703  timbsToken.safeTransfer */\n      and\n      swap1\n        /* \"contracts/TimbStaking.sol\":11716:11722  reward */\n      dup5\n        /* \"contracts/TimbStaking.sol\":11680:11703  timbsToken.safeTransfer */\n      tag_202\n        /* \"contracts/TimbStaking.sol\":11680:11723  timbsToken.safeTransfer(msg.sender, reward) */\n      jump\t// in\n    tag_322:\n        /* \"contracts/TimbStaking.sol\":11746:11780  RewardsClaimed(msg.sender, reward) */\n      mload(0x40)\n        /* \"#utility.yul\":529:554   */\n      dup3\n      dup2\n      mstore\n        /* \"contracts/TimbStaking.sol\":11761:11771  msg.sender */\n      caller\n      swap1\n        /* \"contracts/TimbStaking.sol\":11746:11780  RewardsClaimed(msg.sender, reward) */\n      0xfc30cddea38e2bf4d6ea7d3f9ed3b6ad7f176419f4963bd81318067a4aee73fe\n      swap1\n        /* \"#utility.yul\":517:519   */\n      0x20\n        /* \"#utility.yul\":502:520   */\n      add\n        /* \"contracts/TimbStaking.sol\":11746:11780  RewardsClaimed(msg.sender, reward) */\n      mload(0x40)\n      dup1\n      swap2\n      sub\n      swap1\n      log2\n        /* \"contracts/TimbStaking.sol\":11583:11795  if (reward <= contractBalance) {... */\n    tag_321:\n        /* \"contracts/TimbStaking.sol\":11480:11890  {... */\n      pop\n        /* \"contracts/TimbStaking.sol\":11464:11890  if (reward > 0) {... */\n    tag_315:\n        /* \"contracts/TimbStaking.sol\":11116:11896  {... */\n      pop\n      pop\n        /* \"contracts/TimbStaking.sol\":5167:5168  _ */\n      pop\n        /* \"@openzeppelin/contracts/utils/ReentrancyGuard.sol\":3065:3085  _nonReentrantAfter() */\n      tag_226\n        /* \"@openzeppelin/contracts/utils/ReentrancyGuard.sol\":2365:2366  1 */\n      0x01\n      0x00\n      dup1\n      mload\n      0x20\n      data_c8669cf8eaf883002b9f48e28846a8d408c9b58ea6613bace374265e43c9bc43\n      dup4\n      codecopy\n      dup2\n      mload\n      swap2\n      mstore\n        /* \"@openzeppelin/contracts/utils/ReentrancyGuard.sol\":3972:4034  _reentrancyGuardStorageSlot().getUint256Slot().value = ENTERED */\n      sstore\n        /* \"@openzeppelin/contracts/utils/ReentrancyGuard.sol\":3749:4041  function _nonReentrantBefore() private {... */\n      jump\n        /* \"contracts/TimbStaking.sol\":14270:14668  function setTreasury(address _treasury) external onlyOwner {... */\n    tag_138:\n        /* \"@openzeppelin/contracts/access/Ownable.sol\":1531:1544  _checkOwner() */\n      tag_326\n        /* \"@openzeppelin/contracts/access/Ownable.sol\":1531:1542  _checkOwner */\n      tag_182\n        /* \"@openzeppelin/contracts/access/Ownable.sol\":1531:1544  _checkOwner() */\n      jump\t// in\n    tag_326:\n      sub(shl(0xa0, 0x01), 0x01)\n        /* \"contracts/TimbStaking.sol\":14343:14366  _treasury == address(0) */\n      dup2\n      and\n        /* \"contracts/TimbStaking.sol\":14339:14388  if (_treasury == address(0)) revert ZeroAddress() */\n      tag_328\n      jumpi\n        /* \"contracts/TimbStaking.sol\":14375:14388  ZeroAddress() */\n      mload(0x40)\n      shl(0xe0, 0xd92e233d)\n      dup2\n      mstore\n      0x04\n      add\n      mload(0x40)\n      dup1\n      swap2\n      sub\n      swap1\n      revert\n        /* \"contracts/TimbStaking.sol\":14339:14388  if (_treasury == address(0)) revert ZeroAddress() */\n    tag_328:\n        /* \"contracts/TimbStaking.sol\":14445:14453  treasury */\n      and(sub(shl(0xa0, 0x01), 0x01), sload(0x01))\n        /* \"contracts/TimbStaking.sol\":14445:14467  treasury != address(0) */\n      iszero\n        /* \"contracts/TimbStaking.sol\":14441:14502  if (treasury != address(0)) rewardNotifiers[treasury] = false */\n      tag_329\n      jumpi\n        /* \"contracts/TimbStaking.sol\":14485:14493  treasury */\n      and(sub(shl(0xa0, 0x01), 0x01), sload(0x01))\n        /* \"contracts/TimbStaking.sol\":14497:14502  false */\n      0x00\n        /* \"contracts/TimbStaking.sol\":14469:14494  rewardNotifiers[treasury] */\n      swap1\n      dup2\n      mstore\n        /* \"contracts/TimbStaking.sol\":14469:14484  rewardNotifiers */\n      0x0a\n        /* \"contracts/TimbStaking.sol\":14469:14494  rewardNotifiers[treasury] */\n      0x20\n      mstore\n      0x40\n      swap1\n      keccak256\n        /* \"contracts/TimbStaking.sol\":14469:14502  rewardNotifiers[treasury] = false */\n      dup1\n      sload\n      not(0xff)\n      and\n      swap1\n      sstore\n        /* \"contracts/TimbStaking.sol\":14441:14502  if (treasury != address(0)) rewardNotifiers[treasury] = false */\n    tag_329:\n        /* \"contracts/TimbStaking.sol\":14512:14520  treasury */\n      0x01\n        /* \"contracts/TimbStaking.sol\":14512:14532  treasury = _treasury */\n      dup1\n      sload\n      not(sub(shl(0xa0, 0x01), 0x01))\n      and\n      sub(shl(0xa0, 0x01), 0x01)\n      dup4\n      and\n      swap1\n      dup2\n      or\n      dup3\n      sstore\n      0x00\n        /* \"contracts/TimbStaking.sol\":14542:14568  rewardNotifiers[_treasury] */\n      dup2\n      dup2\n      mstore\n        /* \"contracts/TimbStaking.sol\":14542:14557  rewardNotifiers */\n      0x0a\n        /* \"contracts/TimbStaking.sol\":14542:14568  rewardNotifiers[_treasury] */\n      0x20\n      mstore\n      0x40\n      dup1\n      dup3\n      keccak256\n        /* \"contracts/TimbStaking.sol\":14542:14575  rewardNotifiers[_treasury] = true */\n      dup1\n      sload\n      not(0xff)\n      and\n      swap1\n      swap5\n      or\n      swap1\n      swap4\n      sstore\n        /* \"contracts/TimbStaking.sol\":14590:14612  TreasurySet(_treasury) */\n      swap2\n      mload\n        /* \"contracts/TimbStaking.sol\":14512:14532  treasury = _treasury */\n      swap1\n      swap2\n        /* \"contracts/TimbStaking.sol\":14590:14612  TreasurySet(_treasury) */\n      0x3c864541ef71378c6229510ed90f376565ee42d9c5e0904a984a9e863e6db44f\n      swap2\n      log2\n        /* \"contracts/TimbStaking.sol\":14627:14661  RewardNotifierSet(_treasury, true) */\n      mload(0x40)\n        /* \"contracts/TimbStaking.sol\":14656:14660  true */\n      0x01\n        /* \"#utility.yul\":1717:1758   */\n      dup2\n      mstore\n      sub(shl(0xa0, 0x01), 0x01)\n        /* \"contracts/TimbStaking.sol\":14627:14661  RewardNotifierSet(_treasury, true) */\n      dup3\n      and\n      swap1\n      0xb33ca1dabfb28a2e1bd06b332c396b1a3d538278691341a5503bbad53f919197\n      swap1\n        /* \"#utility.yul\":1705:1707   */\n      0x20\n        /* \"#utility.yul\":1690:1708   */\n      add\n        /* \"contracts/TimbStaking.sol\":14627:14661  RewardNotifierSet(_treasury, true) */\n      mload(0x40)\n      dup1\n      swap2\n      sub\n      swap1\n      log2\n        /* \"contracts/TimbStaking.sol\":14270:14668  function setTreasury(address _treasury) external onlyOwner {... */\n      pop\n      jump\t// out\n        /* \"@openzeppelin/contracts/access/Ownable.sol\":2543:2758  function transferOwnership(address newOwner) public virtual onlyOwner {... */\n    tag_141:\n        /* \"@openzeppelin/contracts/access/Ownable.sol\":1531:1544  _checkOwner() */\n      tag_332\n        /* \"@openzeppelin/contracts/access/Ownable.sol\":1531:1542  _checkOwner */\n      tag_182\n        /* \"@openzeppelin/contracts/access/Ownable.sol\":1531:1544  _checkOwner() */\n      jump\t// in\n    tag_332:\n      sub(shl(0xa0, 0x01), 0x01)\n        /* \"@openzeppelin/contracts/access/Ownable.sol\":2627:2649  newOwner == address(0) */\n      dup2\n      and\n        /* \"@openzeppelin/contracts/access/Ownable.sol\":2623:2714  if (newOwner == address(0)) {... */\n      tag_334\n      jumpi\n        /* \"@openzeppelin/contracts/access/Ownable.sol\":2672:2703  OwnableInvalidOwner(address(0)) */\n      mload(0x40)\n      shl(0xe0, 0x1e4fbdf7)\n      dup2\n      mstore\n        /* \"@openzeppelin/contracts/access/Ownable.sol\":2700:2701  0 */\n      0x00\n        /* \"@openzeppelin/contracts/access/Ownable.sol\":2672:2703  OwnableInvalidOwner(address(0)) */\n      0x04\n      dup3\n      add\n        /* \"#utility.yul\":725:776   */\n      mstore\n        /* \"#utility.yul\":698:716   */\n      0x24\n      add\n        /* \"@openzeppelin/contracts/access/Ownable.sol\":2672:2703  OwnableInvalidOwner(address(0)) */\n      tag_198\n        /* \"#utility.yul\":565:782   */\n      jump\n        /* \"@openzeppelin/contracts/access/Ownable.sol\":2623:2714  if (newOwner == address(0)) {... */\n    tag_334:\n        /* \"@openzeppelin/contracts/access/Ownable.sol\":2723:2751  _transferOwnership(newOwner) */\n      tag_204\n        /* \"@openzeppelin/contracts/access/Ownable.sol\":2742:2750  newOwner */\n      dup2\n        /* \"@openzeppelin/contracts/access/Ownable.sol\":2723:2741  _transferOwnership */\n      tag_239\n        /* \"@openzeppelin/contracts/access/Ownable.sol\":2723:2751  _transferOwnership(newOwner) */\n      jump\t// in\n        /* \"@openzeppelin/contracts/utils/ReentrancyGuard.sol\":3749:4041  function _nonReentrantBefore() private {... */\n    tag_154:\n        /* \"@openzeppelin/contracts/utils/ReentrancyGuard.sol\":3872:3897  _nonReentrantBeforeView() */\n      tag_338\n        /* \"@openzeppelin/contracts/utils/ReentrancyGuard.sol\":3872:3895  _nonReentrantBeforeView */\n      tag_339\n        /* \"@openzeppelin/contracts/utils/ReentrancyGuard.sol\":3872:3897  _nonReentrantBeforeView() */\n      jump\t// in\n    tag_338:\n        /* \"@openzeppelin/contracts/utils/ReentrancyGuard.sol\":2407:2408  2 */\n      0x02\n      0x00\n      dup1\n      mload\n      0x20\n      data_c8669cf8eaf883002b9f48e28846a8d408c9b58ea6613bace374265e43c9bc43\n      dup4\n      codecopy\n      dup2\n      mload\n      swap2\n      mstore\n        /* \"@openzeppelin/contracts/utils/ReentrancyGuard.sol\":3972:4034  _reentrancyGuardStorageSlot().getUint256Slot().value = ENTERED */\n      sstore\n        /* \"@openzeppelin/contracts/utils/ReentrancyGuard.sol\":3749:4041  function _nonReentrantBefore() private {... */\n      jump\t// out\n        /* \"@openzeppelin/contracts/token/ERC20/utils/SafeERC20.sol\":1662:1894  function safeTransferFrom(IERC20 token, address from, address to, uint256 value) internal {... */\n    tag_167:\n        /* \"@openzeppelin/contracts/token/ERC20/utils/SafeERC20.sol\":1767:1814  _safeTransferFrom(token, from, to, value, true) */\n      tag_345\n        /* \"@openzeppelin/contracts/token/ERC20/utils/SafeERC20.sol\":1785:1790  token */\n      dup5\n        /* \"@openzeppelin/contracts/token/ERC20/utils/SafeERC20.sol\":1792:1796  from */\n      dup5\n        /* \"@openzeppelin/contracts/token/ERC20/utils/SafeERC20.sol\":1798:1800  to */\n      dup5\n        /* \"@openzeppelin/contracts/token/ERC20/utils/SafeERC20.sol\":1802:1807  value */\n      dup5\n        /* \"@openzeppelin/contracts/token/ERC20/utils/SafeERC20.sol\":1809:1813  true */\n      0x01\n        /* \"@openzeppelin/contracts/token/ERC20/utils/SafeERC20.sol\":1767:1784  _safeTransferFrom */\n      tag_346\n        /* \"@openzeppelin/contracts/token/ERC20/utils/SafeERC20.sol\":1767:1814  _safeTransferFrom(token, from, to, value, true) */\n      jump\t// in\n    tag_345:\n        /* \"@openzeppelin/contracts/token/ERC20/utils/SafeERC20.sol\":1762:1888  if (!_safeTransferFrom(token, from, to, value, true)) {... */\n      tag_347\n      jumpi\n        /* \"@openzeppelin/contracts/token/ERC20/utils/SafeERC20.sol\":1837:1877  SafeERC20FailedOperation(address(token)) */\n      mload(0x40)\n      shl(0xe0, 0x5274afe7)\n      dup2\n      mstore\n      sub(shl(0xa0, 0x01), 0x01)\n        /* \"#utility.yul\":743:775   */\n      dup6\n      and\n        /* \"@openzeppelin/contracts/token/ERC20/utils/SafeERC20.sol\":1837:1877  SafeERC20FailedOperation(address(token)) */\n      0x04\n      dup3\n      add\n        /* \"#utility.yul\":725:776   */\n      mstore\n        /* \"#utility.yul\":698:716   */\n      0x24\n      add\n        /* \"@openzeppelin/contracts/token/ERC20/utils/SafeERC20.sol\":1837:1877  SafeERC20FailedOperation(address(token)) */\n      tag_198\n        /* \"#utility.yul\":565:782   */\n      jump\n        /* \"@openzeppelin/contracts/token/ERC20/utils/SafeERC20.sol\":1762:1888  if (!_safeTransferFrom(token, from, to, value, true)) {... */\n    tag_347:\n        /* \"@openzeppelin/contracts/token/ERC20/utils/SafeERC20.sol\":1662:1894  function safeTransferFrom(IERC20 token, address from, address to, uint256 value) internal {... */\n      pop\n      pop\n      pop\n      pop\n      jump\t// out\n        /* \"@openzeppelin/contracts/access/Ownable.sol\":1796:1958  function _checkOwner() internal view virtual {... */\n    tag_182:\n        /* \"@openzeppelin/contracts/access/Ownable.sol\":1684:1691  address */\n      0x00\n        /* \"@openzeppelin/contracts/access/Ownable.sol\":1710:1716  _owner */\n      sload\n      sub(shl(0xa0, 0x01), 0x01)\n      and\n        /* \"@openzeppelin/contracts/utils/Context.sol\":735:745  msg.sender */\n      caller\n        /* \"@openzeppelin/contracts/access/Ownable.sol\":1855:1878  owner() != _msgSender() */\n      eq\n        /* \"@openzeppelin/contracts/access/Ownable.sol\":1851:1952  if (owner() != _msgSender()) {... */\n      tag_226\n      jumpi\n        /* \"@openzeppelin/contracts/access/Ownable.sol\":1901:1941  OwnableUnauthorizedAccount(_msgSender()) */\n      mload(0x40)\n      shl(0xe0, 0x118cdaa7)\n      dup2\n      mstore\n        /* \"@openzeppelin/contracts/utils/Context.sol\":735:745  msg.sender */\n      caller\n        /* \"@openzeppelin/contracts/access/Ownable.sol\":1901:1941  OwnableUnauthorizedAccount(_msgSender()) */\n      0x04\n      dup3\n      add\n        /* \"#utility.yul\":725:776   */\n      mstore\n        /* \"#utility.yul\":698:716   */\n      0x24\n      add\n        /* \"@openzeppelin/contracts/access/Ownable.sol\":1901:1941  OwnableUnauthorizedAccount(_msgSender()) */\n      tag_198\n        /* \"#utility.yul\":565:782   */\n      jump\n        /* \"@openzeppelin/contracts/token/ERC20/utils/SafeERC20.sol\":1219:1423  function safeTransfer(IERC20 token, address to, uint256 value) internal {... */\n    tag_202:\n        /* \"@openzeppelin/contracts/token/ERC20/utils/SafeERC20.sol\":1306:1343  _safeTransfer(token, to, value, true) */\n      tag_360\n        /* \"@openzeppelin/contracts/token/ERC20/utils/SafeERC20.sol\":1320:1325  token */\n      dup4\n        /* \"@openzeppelin/contracts/token/ERC20/utils/SafeERC20.sol\":1327:1329  to */\n      dup4\n        /* \"@openzeppelin/contracts/token/ERC20/utils/SafeERC20.sol\":1331:1336  value */\n      dup4\n        /* \"@openzeppelin/contracts/token/ERC20/utils/SafeERC20.sol\":1338:1342  true */\n      0x01\n        /* \"@openzeppelin/contracts/token/ERC20/utils/SafeERC20.sol\":1306:1319  _safeTransfer */\n      tag_361\n        /* \"@openzeppelin/contracts/token/ERC20/utils/SafeERC20.sol\":1306:1343  _safeTransfer(token, to, value, true) */\n      jump\t// in\n    tag_360:\n        /* \"@openzeppelin/contracts/token/ERC20/utils/SafeERC20.sol\":1301:1417  if (!_safeTransfer(token, to, value, true)) {... */\n      tag_362\n      jumpi\n        /* \"@openzeppelin/contracts/token/ERC20/utils/SafeERC20.sol\":1366:1406  SafeERC20FailedOperation(address(token)) */\n      mload(0x40)\n      shl(0xe0, 0x5274afe7)\n      dup2\n      mstore\n      sub(shl(0xa0, 0x01), 0x01)\n        /* \"#utility.yul\":743:775   */\n      dup5\n      and\n        /* \"@openzeppelin/contracts/token/ERC20/utils/SafeERC20.sol\":1366:1406  SafeERC20FailedOperation(address(token)) */\n      0x04\n      dup3\n      add\n        /* \"#utility.yul\":725:776   */\n      mstore\n        /* \"#utility.yul\":698:716   */\n      0x24\n      add\n        /* \"@openzeppelin/contracts/token/ERC20/utils/SafeERC20.sol\":1366:1406  SafeERC20FailedOperation(address(token)) */\n      tag_198\n        /* \"#utility.yul\":565:782   */\n      jump\n        /* \"@openzeppelin/contracts/token/ERC20/utils/SafeERC20.sol\":1301:1417  if (!_safeTransfer(token, to, value, true)) {... */\n    tag_362:\n        /* \"@openzeppelin/contracts/token/ERC20/utils/SafeERC20.sol\":1219:1423  function safeTransfer(IERC20 token, address to, uint256 value) internal {... */\n      pop\n      pop\n      pop\n      jump\t// out\n        /* \"@openzeppelin/contracts/access/Ownable.sol\":2912:3099  function _transferOwnership(address newOwner) internal virtual {... */\n    tag_239:\n        /* \"@openzeppelin/contracts/access/Ownable.sol\":2985:3001  address oldOwner */\n      0x00\n        /* \"@openzeppelin/contracts/access/Ownable.sol\":3004:3010  _owner */\n      dup1\n      sload\n      sub(shl(0xa0, 0x01), 0x01)\n        /* \"@openzeppelin/contracts/access/Ownable.sol\":3020:3037  _owner = newOwner */\n      dup4\n      dup2\n      and\n      not(sub(shl(0xa0, 0x01), 0x01))\n      dup4\n      and\n      dup2\n      or\n      dup5\n      sstore\n        /* \"@openzeppelin/contracts/access/Ownable.sol\":3052:3092  OwnershipTransferred(oldOwner, newOwner) */\n      mload(0x40)\n        /* \"@openzeppelin/contracts/access/Ownable.sol\":3004:3010  _owner */\n      swap2\n      swap1\n      swap3\n      and\n      swap3\n      dup4\n      swap2\n        /* \"@openzeppelin/contracts/access/Ownable.sol\":3052:3092  OwnershipTransferred(oldOwner, newOwner) */\n      0x8be0079c531659141344cd1fd0a4f28419497f9722a3daafe3b4186f6b6457e0\n      swap2\n        /* \"@openzeppelin/contracts/access/Ownable.sol\":2985:3001  address oldOwner */\n      swap1\n        /* \"@openzeppelin/contracts/access/Ownable.sol\":3052:3092  OwnershipTransferred(oldOwner, newOwner) */\n      log3\n        /* \"@openzeppelin/contracts/access/Ownable.sol\":2975:3099  {... */\n      pop\n        /* \"@openzeppelin/contracts/access/Ownable.sol\":2912:3099  function _transferOwnership(address newOwner) internal virtual {... */\n      pop\n      jump\t// out\n        /* \"@openzeppelin/contracts/utils/ReentrancyGuard.sol\":3586:3743  function _nonReentrantBeforeView() private view {... */\n    tag_339:\n      0x00\n      dup1\n      mload\n      0x20\n      data_c8669cf8eaf883002b9f48e28846a8d408c9b58ea6613bace374265e43c9bc43\n      dup4\n      codecopy\n      dup2\n      mload\n      swap2\n      mstore\n        /* \"@openzeppelin/contracts/utils/ReentrancyGuard.sol\":4560:4612  _reentrancyGuardStorageSlot().getUint256Slot().value */\n      sload\n        /* \"@openzeppelin/contracts/utils/ReentrancyGuard.sol\":2407:2408  2 */\n      0x02\n        /* \"@openzeppelin/contracts/utils/ReentrancyGuard.sol\":4560:4623  _reentrancyGuardStorageSlot().getUint256Slot().value == ENTERED */\n      sub\n        /* \"@openzeppelin/contracts/utils/ReentrancyGuard.sol\":3644:3737  if (_reentrancyGuardEntered()) {... */\n      tag_226\n      jumpi\n        /* \"@openzeppelin/contracts/utils/ReentrancyGuard.sol\":3696:3726  ReentrancyGuardReentrantCall() */\n      mload(0x40)\n      shl(0xe0, 0x3ee5aeb5)\n      dup2\n      mstore\n      0x04\n      add\n      mload(0x40)\n      dup1\n      swap2\n      sub\n      swap1\n      revert\n        /* \"@openzeppelin/contracts/token/ERC20/utils/SafeERC20.sol\":10165:11558  function _safeTransferFrom(... */\n    tag_346:\n        /* \"@openzeppelin/contracts/token/ERC20/utils/SafeERC20.sol\":10460:10464  0x40 */\n      0x40\n        /* \"@openzeppelin/contracts/token/ERC20/utils/SafeERC20.sol\":10454:10465  mload(0x40) */\n      mload\n      shl(0xe0, 0x23b872dd)\n        /* \"@openzeppelin/contracts/token/ERC20/utils/SafeERC20.sol\":10323:10335  bool success */\n      0x00\n        /* \"@openzeppelin/contracts/token/ERC20/utils/SafeERC20.sol\":10478:10500  mstore(0x00, selector) */\n      dup2\n      dup2\n      mstore\n      sub(shl(0xa0, 0x01), 0x01)\n        /* \"@openzeppelin/contracts/token/ERC20/utils/SafeERC20.sol\":10526:10552  and(from, shr(96, not(0))) */\n      dup8\n      dup2\n      and\n        /* \"@openzeppelin/contracts/token/ERC20/utils/SafeERC20.sol\":10520:10524  0x04 */\n      0x04\n        /* \"@openzeppelin/contracts/token/ERC20/utils/SafeERC20.sol\":10513:10553  mstore(0x04, and(from, shr(96, not(0)))) */\n      mstore\n        /* \"@openzeppelin/contracts/token/ERC20/utils/SafeERC20.sol\":10579:10603  and(to, shr(96, not(0))) */\n      dup7\n      and\n        /* \"@openzeppelin/contracts/token/ERC20/utils/SafeERC20.sol\":10573:10577  0x24 */\n      0x24\n        /* \"@openzeppelin/contracts/token/ERC20/utils/SafeERC20.sol\":10566:10604  mstore(0x24, and(to, shr(96, not(0)))) */\n      mstore\n        /* \"@openzeppelin/contracts/token/ERC20/utils/SafeERC20.sol\":10624:10628  0x44 */\n      0x44\n        /* \"@openzeppelin/contracts/token/ERC20/utils/SafeERC20.sol\":10617:10636  mstore(0x44, value) */\n      dup6\n      swap1\n      mstore\n        /* \"@openzeppelin/contracts/token/ERC20/utils/SafeERC20.sol\":10323:10335  bool success */\n      swap2\n        /* \"@openzeppelin/contracts/token/ERC20/utils/SafeERC20.sol\":10700:10704  0x20 */\n      0x20\n        /* \"@openzeppelin/contracts/token/ERC20/utils/SafeERC20.sol\":10323:10335  bool success */\n      dup4\n        /* \"@openzeppelin/contracts/token/ERC20/utils/SafeERC20.sol\":10688:10692  0x64 */\n      0x64\n        /* \"@openzeppelin/contracts/token/ERC20/utils/SafeERC20.sol\":10323:10335  bool success */\n      dup2\n      dup1\n        /* \"@openzeppelin/contracts/token/ERC20/utils/SafeERC20.sol\":10672:10677  token */\n      dup13\n        /* \"@openzeppelin/contracts/token/ERC20/utils/SafeERC20.sol\":10665:10670  gas() */\n      gas\n        /* \"@openzeppelin/contracts/token/ERC20/utils/SafeERC20.sol\":10660:10705  call(gas(), token, 0, 0x00, 0x64, 0x00, 0x20) */\n      call\n        /* \"@openzeppelin/contracts/token/ERC20/utils/SafeERC20.sol\":10649:10705  success := call(gas(), token, 0, 0x00, 0x64, 0x00, 0x20) */\n      swap3\n      pop\n        /* \"@openzeppelin/contracts/token/ERC20/utils/SafeERC20.sol\":10917:10918  1 */\n      0x01\n        /* \"@openzeppelin/contracts/token/ERC20/utils/SafeERC20.sol\":10910:10914  0x00 */\n      0x00\n        /* \"@openzeppelin/contracts/token/ERC20/utils/SafeERC20.sol\":10904:10915  mload(0x00) */\n      mload\n        /* \"@openzeppelin/contracts/token/ERC20/utils/SafeERC20.sol\":10901:10919  eq(mload(0x00), 1) */\n      eq\n        /* \"@openzeppelin/contracts/token/ERC20/utils/SafeERC20.sol\":10892:10899  success */\n      dup4\n        /* \"@openzeppelin/contracts/token/ERC20/utils/SafeERC20.sol\":10888:10920  and(success, eq(mload(0x00), 1)) */\n      and\n        /* \"@openzeppelin/contracts/token/ERC20/utils/SafeERC20.sol\":10878:11484  if iszero(and(success, eq(mload(0x00), 1))) {... */\n      tag_372\n      jumpi\n        /* \"@openzeppelin/contracts/token/ERC20/utils/SafeERC20.sol\":11049:11055  bubble */\n      dup4\n        /* \"@openzeppelin/contracts/token/ERC20/utils/SafeERC20.sol\":11039:11046  success */\n      dup4\n        /* \"@openzeppelin/contracts/token/ERC20/utils/SafeERC20.sol\":11032:11047  iszero(success) */\n      iszero\n        /* \"@openzeppelin/contracts/token/ERC20/utils/SafeERC20.sol\":11028:11056  and(iszero(success), bubble) */\n      and\n        /* \"@openzeppelin/contracts/token/ERC20/utils/SafeERC20.sol\":11025:11190  if and(iszero(success), bubble) {... */\n      iszero\n      tag_373\n      jumpi\n        /* \"@openzeppelin/contracts/token/ERC20/utils/SafeERC20.sol\":11105:11121  returndatasize() */\n      returndatasize\n        /* \"@openzeppelin/contracts/token/ERC20/utils/SafeERC20.sol\":11099:11103  0x00 */\n      0x00\n        /* \"@openzeppelin/contracts/token/ERC20/utils/SafeERC20.sol\":11094:11097  fmp */\n      dup3\n        /* \"@openzeppelin/contracts/token/ERC20/utils/SafeERC20.sol\":11079:11122  returndatacopy(fmp, 0x00, returndatasize()) */\n      returndatacopy\n        /* \"@openzeppelin/contracts/token/ERC20/utils/SafeERC20.sol\":11155:11171  returndatasize() */\n      returndatasize\n        /* \"@openzeppelin/contracts/token/ERC20/utils/SafeERC20.sol\":11150:11153  fmp */\n      dup2\n        /* \"@openzeppelin/contracts/token/ERC20/utils/SafeERC20.sol\":11143:11172  revert(fmp, returndatasize()) */\n      revert\n        /* \"@openzeppelin/contracts/token/ERC20/utils/SafeERC20.sol\":11025:11190  if and(iszero(success), bubble) {... */\n    tag_373:\n        /* \"@openzeppelin/contracts/token/ERC20/utils/SafeERC20.sol\":11466:11467  0 */\n      0x00\n        /* \"@openzeppelin/contracts/token/ERC20/utils/SafeERC20.sol\":11458:11463  token */\n      dup9\n        /* \"@openzeppelin/contracts/token/ERC20/utils/SafeERC20.sol\":11446:11464  extcodesize(token) */\n      extcodesize\n        /* \"@openzeppelin/contracts/token/ERC20/utils/SafeERC20.sol\":11443:11468  gt(extcodesize(token), 0) */\n      gt\n        /* \"@openzeppelin/contracts/token/ERC20/utils/SafeERC20.sol\":11424:11440  returndatasize() */\n      returndatasize\n        /* \"@openzeppelin/contracts/token/ERC20/utils/SafeERC20.sol\":11417:11441  iszero(returndatasize()) */\n      iszero\n        /* \"@openzeppelin/contracts/token/ERC20/utils/SafeERC20.sol\":11413:11469  and(iszero(returndatasize()), gt(extcodesize(token), 0)) */\n      and\n        /* \"@openzeppelin/contracts/token/ERC20/utils/SafeERC20.sol\":11404:11411  success */\n      dup4\n        /* \"@openzeppelin/contracts/token/ERC20/utils/SafeERC20.sol\":11400:11470  and(success, and(iszero(returndatasize()), gt(extcodesize(token), 0))) */\n      and\n        /* \"@openzeppelin/contracts/token/ERC20/utils/SafeERC20.sol\":11389:11470  success := and(success, and(iszero(returndatasize()), gt(extcodesize(token), 0))) */\n      swap3\n      pop\n        /* \"@openzeppelin/contracts/token/ERC20/utils/SafeERC20.sol\":10878:11484  if iszero(and(success, eq(mload(0x00), 1))) {... */\n    tag_372:\n        /* \"@openzeppelin/contracts/token/ERC20/utils/SafeERC20.sol\":11504:11508  0x40 */\n      0x40\n        /* \"@openzeppelin/contracts/token/ERC20/utils/SafeERC20.sol\":11497:11514  mstore(0x40, fmp) */\n      mstore\n      pop\n        /* \"@openzeppelin/contracts/token/ERC20/utils/SafeERC20.sol\":11540:11541  0 */\n      0x00\n        /* \"@openzeppelin/contracts/token/ERC20/utils/SafeERC20.sol\":11534:11538  0x60 */\n      0x60\n        /* \"@openzeppelin/contracts/token/ERC20/utils/SafeERC20.sol\":11527:11542  mstore(0x60, 0) */\n      mstore\n        /* \"@openzeppelin/contracts/token/ERC20/utils/SafeERC20.sol\":10165:11558  function _safeTransferFrom(... */\n      swap6\n      swap5\n      pop\n      pop\n      pop\n      pop\n      pop\n      jump\t// out\n        /* \"@openzeppelin/contracts/token/ERC20/utils/SafeERC20.sol\":8373:9617  function _safeTransfer(IERC20 token, address to, uint256 value, bool bubble) private returns (bool success) {... */\n    tag_361:\n        /* \"@openzeppelin/contracts/token/ERC20/utils/SafeERC20.sol\":8600:8604  0x40 */\n      0x40\n        /* \"@openzeppelin/contracts/token/ERC20/utils/SafeERC20.sol\":8594:8605  mload(0x40) */\n      mload\n      shl(0xe0, 0xa9059cbb)\n        /* \"@openzeppelin/contracts/token/ERC20/utils/SafeERC20.sol\":8467:8479  bool success */\n      0x00\n        /* \"@openzeppelin/contracts/token/ERC20/utils/SafeERC20.sol\":8618:8640  mstore(0x00, selector) */\n      dup2\n      dup2\n      mstore\n      sub(shl(0xa0, 0x01), 0x01)\n        /* \"@openzeppelin/contracts/token/ERC20/utils/SafeERC20.sol\":8666:8690  and(to, shr(96, not(0))) */\n      dup7\n      and\n        /* \"@openzeppelin/contracts/token/ERC20/utils/SafeERC20.sol\":8660:8664  0x04 */\n      0x04\n        /* \"@openzeppelin/contracts/token/ERC20/utils/SafeERC20.sol\":8653:8691  mstore(0x04, and(to, shr(96, not(0)))) */\n      mstore\n        /* \"@openzeppelin/contracts/token/ERC20/utils/SafeERC20.sol\":8711:8715  0x24 */\n      0x24\n        /* \"@openzeppelin/contracts/token/ERC20/utils/SafeERC20.sol\":8704:8723  mstore(0x24, value) */\n      dup6\n      swap1\n      mstore\n        /* \"@openzeppelin/contracts/token/ERC20/utils/SafeERC20.sol\":8467:8479  bool success */\n      swap2\n        /* \"@openzeppelin/contracts/token/ERC20/utils/SafeERC20.sol\":8787:8791  0x20 */\n      0x20\n        /* \"@openzeppelin/contracts/token/ERC20/utils/SafeERC20.sol\":8467:8479  bool success */\n      dup4\n        /* \"@openzeppelin/contracts/token/ERC20/utils/SafeERC20.sol\":8775:8779  0x44 */\n      0x44\n        /* \"@openzeppelin/contracts/token/ERC20/utils/SafeERC20.sol\":8467:8479  bool success */\n      dup2\n      dup1\n        /* \"@openzeppelin/contracts/token/ERC20/utils/SafeERC20.sol\":8759:8764  token */\n      dup12\n        /* \"@openzeppelin/contracts/token/ERC20/utils/SafeERC20.sol\":8752:8757  gas() */\n      gas\n        /* \"@openzeppelin/contracts/token/ERC20/utils/SafeERC20.sol\":8747:8792  call(gas(), token, 0, 0x00, 0x44, 0x00, 0x20) */\n      call\n        /* \"@openzeppelin/contracts/token/ERC20/utils/SafeERC20.sol\":8736:8792  success := call(gas(), token, 0, 0x00, 0x44, 0x00, 0x20) */\n      swap3\n      pop\n        /* \"@openzeppelin/contracts/token/ERC20/utils/SafeERC20.sol\":9004:9005  1 */\n      0x01\n        /* \"@openzeppelin/contracts/token/ERC20/utils/SafeERC20.sol\":8997:9001  0x00 */\n      0x00\n        /* \"@openzeppelin/contracts/token/ERC20/utils/SafeERC20.sol\":8991:9002  mload(0x00) */\n      mload\n        /* \"@openzeppelin/contracts/token/ERC20/utils/SafeERC20.sol\":8988:9006  eq(mload(0x00), 1) */\n      eq\n        /* \"@openzeppelin/contracts/token/ERC20/utils/SafeERC20.sol\":8979:8986  success */\n      dup4\n        /* \"@openzeppelin/contracts/token/ERC20/utils/SafeERC20.sol\":8975:9007  and(success, eq(mload(0x00), 1)) */\n      and\n        /* \"@openzeppelin/contracts/token/ERC20/utils/SafeERC20.sol\":8965:9571  if iszero(and(success, eq(mload(0x00), 1))) {... */\n      tag_376\n      jumpi\n        /* \"@openzeppelin/contracts/token/ERC20/utils/SafeERC20.sol\":9136:9142  bubble */\n      dup4\n        /* \"@openzeppelin/contracts/token/ERC20/utils/SafeERC20.sol\":9126:9133  success */\n      dup4\n        /* \"@openzeppelin/contracts/token/ERC20/utils/SafeERC20.sol\":9119:9134  iszero(success) */\n      iszero\n        /* \"@openzeppelin/contracts/token/ERC20/utils/SafeERC20.sol\":9115:9143  and(iszero(success), bubble) */\n      and\n        /* \"@openzeppelin/contracts/token/ERC20/utils/SafeERC20.sol\":9112:9277  if and(iszero(success), bubble) {... */\n      iszero\n      tag_377\n      jumpi\n        /* \"@openzeppelin/contracts/token/ERC20/utils/SafeERC20.sol\":9192:9208  returndatasize() */\n      returndatasize\n        /* \"@openzeppelin/contracts/token/ERC20/utils/SafeERC20.sol\":9186:9190  0x00 */\n      0x00\n        /* \"@openzeppelin/contracts/token/ERC20/utils/SafeERC20.sol\":9181:9184  fmp */\n      dup3\n        /* \"@openzeppelin/contracts/token/ERC20/utils/SafeERC20.sol\":9166:9209  returndatacopy(fmp, 0x00, returndatasize()) */\n      returndatacopy\n        /* \"@openzeppelin/contracts/token/ERC20/utils/SafeERC20.sol\":9242:9258  returndatasize() */\n      returndatasize\n        /* \"@openzeppelin/contracts/token/ERC20/utils/SafeERC20.sol\":9237:9240  fmp */\n      dup2\n        /* \"@openzeppelin/contracts/token/ERC20/utils/SafeERC20.sol\":9230:9259  revert(fmp, returndatasize()) */\n      revert\n        /* \"@openzeppelin/contracts/token/ERC20/utils/SafeERC20.sol\":9112:9277  if and(iszero(success), bubble) {... */\n    tag_377:\n        /* \"@openzeppelin/contracts/token/ERC20/utils/SafeERC20.sol\":9553:9554  0 */\n      0x00\n        /* \"@openzeppelin/contracts/token/ERC20/utils/SafeERC20.sol\":9545:9550  token */\n      dup8\n        /* \"@openzeppelin/contracts/token/ERC20/utils/SafeERC20.sol\":9533:9551  extcodesize(token) */\n      extcodesize\n        /* \"@openzeppelin/contracts/token/ERC20/utils/SafeERC20.sol\":9530:9555  gt(extcodesize(token), 0) */\n      gt\n        /* \"@openzeppelin/contracts/token/ERC20/utils/SafeERC20.sol\":9511:9527  returndatasize() */\n      returndatasize\n        /* \"@openzeppelin/contracts/token/ERC20/utils/SafeERC20.sol\":9504:9528  iszero(returndatasize()) */\n      iszero\n        /* \"@openzeppelin/contracts/token/ERC20/utils/SafeERC20.sol\":9500:9556  and(iszero(returndatasize()), gt(extcodesize(token), 0)) */\n      and\n        /* \"@openzeppelin/contracts/token/ERC20/utils/SafeERC20.sol\":9491:9498  success */\n      dup4\n        /* \"@openzeppelin/contracts/token/ERC20/utils/SafeERC20.sol\":9487:9557  and(success, and(iszero(returndatasize()), gt(extcodesize(token), 0))) */\n      and\n        /* \"@openzeppelin/contracts/token/ERC20/utils/SafeERC20.sol\":9476:9557  success := and(success, and(iszero(returndatasize()), gt(extcodesize(token), 0))) */\n      swap3\n      pop\n        /* \"@openzeppelin/contracts/token/ERC20/utils/SafeERC20.sol\":8965:9571  if iszero(and(success, eq(mload(0x00), 1))) {... */\n    tag_376:\n        /* \"@openzeppelin/contracts/token/ERC20/utils/SafeERC20.sol\":9591:9595  0x40 */\n      0x40\n        /* \"@openzeppelin/contracts/token/ERC20/utils/SafeERC20.sol\":9584:9601  mstore(0x40, fmp) */\n      mstore\n      pop\n        /* \"@openzeppelin/contracts/token/ERC20/utils/SafeERC20.sol\":8373:9617  function _safeTransfer(IERC20 token, address to, uint256 value, bool bubble) private returns (bool success) {... */\n      swap5\n      swap4\n      pop\n      pop\n      pop\n      pop\n      jump\t// out\n        /* \"#utility.yul\":14:187   */\n    tag_381:\n        /* \"#utility.yul\":82:102   */\n      dup1\n      calldataload\n      sub(shl(0xa0, 0x01), 0x01)\n        /* \"#utility.yul\":131:162   */\n      dup2\n      and\n        /* \"#utility.yul\":121:163   */\n      dup2\n      eq\n        /* \"#utility.yul\":111:181   */\n      tag_385\n      jumpi\n        /* \"#utility.yul\":177:178   */\n      0x00\n        /* \"#utility.yul\":174:175   */\n      dup1\n        /* \"#utility.yul\":167:179   */\n      revert\n        /* \"#utility.yul\":111:181   */\n    tag_385:\n        /* \"#utility.yul\":14:187   */\n      swap2\n      swap1\n      pop\n      jump\t// out\n        /* \"#utility.yul\":192:378   */\n    tag_43:\n        /* \"#utility.yul\":251:257   */\n      0x00\n        /* \"#utility.yul\":304:306   */\n      0x20\n        /* \"#utility.yul\":292:301   */\n      dup3\n        /* \"#utility.yul\":283:290   */\n      dup5\n        /* \"#utility.yul\":279:302   */\n      sub\n        /* \"#utility.yul\":275:307   */\n      slt\n        /* \"#utility.yul\":272:324   */\n      iszero\n      tag_387\n      jumpi\n        /* \"#utility.yul\":320:321   */\n      0x00\n        /* \"#utility.yul\":317:318   */\n      dup1\n        /* \"#utility.yul\":310:322   */\n      revert\n        /* \"#utility.yul\":272:324   */\n    tag_387:\n        /* \"#utility.yul\":343:372   */\n      tag_388\n        /* \"#utility.yul\":362:371   */\n      dup3\n        /* \"#utility.yul\":343:372   */\n      tag_381\n      jump\t// in\n    tag_388:\n        /* \"#utility.yul\":333:372   */\n      swap4\n        /* \"#utility.yul\":192:378   */\n      swap3\n      pop\n      pop\n      pop\n      jump\t// out\n        /* \"#utility.yul\":787:1035   */\n    tag_53:\n        /* \"#utility.yul\":855:861   */\n      0x00\n        /* \"#utility.yul\":863:869   */\n      dup1\n        /* \"#utility.yul\":916:918   */\n      0x40\n        /* \"#utility.yul\":904:913   */\n      dup4\n        /* \"#utility.yul\":895:902   */\n      dup6\n        /* \"#utility.yul\":891:914   */\n      sub\n        /* \"#utility.yul\":887:919   */\n      slt\n        /* \"#utility.yul\":884:936   */\n      iszero\n      tag_392\n      jumpi\n        /* \"#utility.yul\":932:933   */\n      0x00\n        /* \"#utility.yul\":929:930   */\n      dup1\n        /* \"#utility.yul\":922:934   */\n      revert\n        /* \"#utility.yul\":884:936   */\n    tag_392:\n      pop\n      pop\n        /* \"#utility.yul\":955:978   */\n      dup1\n      calldataload\n      swap3\n        /* \"#utility.yul\":1025:1027   */\n      0x20\n        /* \"#utility.yul\":1010:1028   */\n      swap1\n      swap2\n      add\n        /* \"#utility.yul\":997:1029   */\n      calldataload\n      swap2\n      pop\n        /* \"#utility.yul\":787:1035   */\n      jump\t// out\n        /* \"#utility.yul\":1040:1387   */\n    tag_57:\n        /* \"#utility.yul\":1105:1111   */\n      0x00\n        /* \"#utility.yul\":1113:1119   */\n      dup1\n        /* \"#utility.yul\":1166:1168   */\n      0x40\n        /* \"#utility.yul\":1154:1163   */\n      dup4\n        /* \"#utility.yul\":1145:1152   */\n      dup6\n        /* \"#utility.yul\":1141:1164   */\n      sub\n        /* \"#utility.yul\":1137:1169   */\n      slt\n        /* \"#utility.yul\":1134:1186   */\n      iszero\n      tag_394\n      jumpi\n        /* \"#utility.yul\":1182:1183   */\n      0x00\n        /* \"#utility.yul\":1179:1180   */\n      dup1\n        /* \"#utility.yul\":1172:1184   */\n      revert\n        /* \"#utility.yul\":1134:1186   */\n    tag_394:\n        /* \"#utility.yul\":1205:1234   */\n      tag_395\n        /* \"#utility.yul\":1224:1233   */\n      dup4\n        /* \"#utility.yul\":1205:1234   */\n      tag_381\n      jump\t// in\n    tag_395:\n        /* \"#utility.yul\":1195:1234   */\n      swap2\n      pop\n        /* \"#utility.yul\":1284:1286   */\n      0x20\n        /* \"#utility.yul\":1273:1282   */\n      dup4\n        /* \"#utility.yul\":1269:1287   */\n      add\n        /* \"#utility.yul\":1256:1288   */\n      calldataload\n        /* \"#utility.yul\":1331:1336   */\n      dup1\n        /* \"#utility.yul\":1324:1337   */\n      iszero\n        /* \"#utility.yul\":1317:1338   */\n      iszero\n        /* \"#utility.yul\":1310:1315   */\n      dup2\n        /* \"#utility.yul\":1307:1339   */\n      eq\n        /* \"#utility.yul\":1297:1357   */\n      tag_396\n      jumpi\n        /* \"#utility.yul\":1353:1354   */\n      0x00\n        /* \"#utility.yul\":1350:1351   */\n      dup1\n        /* \"#utility.yul\":1343:1355   */\n      revert\n        /* \"#utility.yul\":1297:1357   */\n    tag_396:\n        /* \"#utility.yul\":1376:1381   */\n      dup1\n        /* \"#utility.yul\":1366:1381   */\n      swap2\n      pop\n      pop\n        /* \"#utility.yul\":1040:1387   */\n      swap3\n      pop\n      swap3\n      swap1\n      pop\n      jump\t// out\n        /* \"#utility.yul\":1392:1572   */\n    tag_61:\n        /* \"#utility.yul\":1451:1457   */\n      0x00\n        /* \"#utility.yul\":1504:1506   */\n      0x20\n        /* \"#utility.yul\":1492:1501   */\n      dup3\n        /* \"#utility.yul\":1483:1490   */\n      dup5\n        /* \"#utility.yul\":1479:1502   */\n      sub\n        /* \"#utility.yul\":1475:1507   */\n      slt\n        /* \"#utility.yul\":1472:1524   */\n      iszero\n      tag_398\n      jumpi\n        /* \"#utility.yul\":1520:1521   */\n      0x00\n        /* \"#utility.yul\":1517:1518   */\n      dup1\n        /* \"#utility.yul\":1510:1522   */\n      revert\n        /* \"#utility.yul\":1472:1524   */\n    tag_398:\n      pop\n        /* \"#utility.yul\":1543:1566   */\n      calldataload\n      swap2\n        /* \"#utility.yul\":1392:1572   */\n      swap1\n      pop\n      jump\t// out\n        /* \"#utility.yul\":1977:2231   */\n    tag_101:\n        /* \"#utility.yul\":2045:2051   */\n      0x00\n        /* \"#utility.yul\":2053:2059   */\n      dup1\n        /* \"#utility.yul\":2106:2108   */\n      0x40\n        /* \"#utility.yul\":2094:2103   */\n      dup4\n        /* \"#utility.yul\":2085:2092   */\n      dup6\n        /* \"#utility.yul\":2081:2104   */\n      sub\n        /* \"#utility.yul\":2077:2109   */\n      slt\n        /* \"#utility.yul\":2074:2126   */\n      iszero\n      tag_402\n      jumpi\n        /* \"#utility.yul\":2122:2123   */\n      0x00\n        /* \"#utility.yul\":2119:2120   */\n      dup1\n        /* \"#utility.yul\":2112:2124   */\n      revert\n        /* \"#utility.yul\":2074:2126   */\n    tag_402:\n        /* \"#utility.yul\":2145:2174   */\n      tag_403\n        /* \"#utility.yul\":2164:2173   */\n      dup4\n        /* \"#utility.yul\":2145:2174   */\n      tag_381\n      jump\t// in\n    tag_403:\n        /* \"#utility.yul\":2135:2174   */\n      swap5\n        /* \"#utility.yul\":2221:2223   */\n      0x20\n        /* \"#utility.yul\":2206:2224   */\n      swap4\n      swap1\n      swap4\n      add\n        /* \"#utility.yul\":2193:2225   */\n      calldataload\n      swap4\n      pop\n      pop\n      pop\n        /* \"#utility.yul\":1977:2231   */\n      jump\t// out\n        /* \"#utility.yul\":2236:2363   */\n    tag_382:\n        /* \"#utility.yul\":2297:2307   */\n      0x4e487b71\n        /* \"#utility.yul\":2292:2295   */\n      0xe0\n        /* \"#utility.yul\":2288:2308   */\n      shl\n        /* \"#utility.yul\":2285:2286   */\n      0x00\n        /* \"#utility.yul\":2278:2309   */\n      mstore\n        /* \"#utility.yul\":2328:2332   */\n      0x11\n        /* \"#utility.yul\":2325:2326   */\n      0x04\n        /* \"#utility.yul\":2318:2333   */\n      mstore\n        /* \"#utility.yul\":2352:2356   */\n      0x24\n        /* \"#utility.yul\":2349:2350   */\n      0x00\n        /* \"#utility.yul\":2342:2357   */\n      revert\n        /* \"#utility.yul\":2368:2496   */\n    tag_145:\n        /* \"#utility.yul\":2435:2444   */\n      dup2\n      dup2\n      sub\n        /* \"#utility.yul\":2456:2467   */\n      dup2\n      dup2\n      gt\n        /* \"#utility.yul\":2453:2490   */\n      iszero\n      tag_150\n      jumpi\n        /* \"#utility.yul\":2470:2488   */\n      tag_150\n      tag_382\n      jump\t// in\n        /* \"#utility.yul\":2501:2669   */\n    tag_147:\n        /* \"#utility.yul\":2574:2583   */\n      dup1\n      dup3\n      mul\n        /* \"#utility.yul\":2605:2614   */\n      dup2\n      iszero\n        /* \"#utility.yul\":2622:2637   */\n      dup3\n      dup3\n      div\n        /* \"#utility.yul\":2616:2638   */\n      dup5\n      eq\n        /* \"#utility.yul\":2602:2639   */\n      or\n        /* \"#utility.yul\":2592:2663   */\n      tag_150\n      jumpi\n        /* \"#utility.yul\":2643:2661   */\n      tag_150\n      tag_382\n      jump\t// in\n        /* \"#utility.yul\":2674:2891   */\n    tag_149:\n        /* \"#utility.yul\":2714:2715   */\n      0x00\n        /* \"#utility.yul\":2740:2741   */\n      dup3\n        /* \"#utility.yul\":2730:2862   */\n      tag_412\n      jumpi\n        /* \"#utility.yul\":2784:2794   */\n      0x4e487b71\n        /* \"#utility.yul\":2779:2782   */\n      0xe0\n        /* \"#utility.yul\":2775:2795   */\n      shl\n        /* \"#utility.yul\":2772:2773   */\n      0x00\n        /* \"#utility.yul\":2765:2796   */\n      mstore\n        /* \"#utility.yul\":2819:2823   */\n      0x12\n        /* \"#utility.yul\":2816:2817   */\n      0x04\n        /* \"#utility.yul\":2809:2824   */\n      mstore\n        /* \"#utility.yul\":2847:2851   */\n      0x24\n        /* \"#utility.yul\":2844:2845   */\n      0x00\n        /* \"#utility.yul\":2837:2852   */\n      revert\n        /* \"#utility.yul\":2730:2862   */\n    tag_412:\n      pop\n        /* \"#utility.yul\":2876:2885   */\n      div\n      swap1\n        /* \"#utility.yul\":2674:2891   */\n      jump\t// out\n        /* \"#utility.yul\":2896:3021   */\n    tag_151:\n        /* \"#utility.yul\":2961:2970   */\n      dup1\n      dup3\n      add\n        /* \"#utility.yul\":2982:2992   */\n      dup1\n      dup3\n      gt\n        /* \"#utility.yul\":2979:3015   */\n      iszero\n      tag_150\n      jumpi\n        /* \"#utility.yul\":2995:3013   */\n      tag_150\n      tag_382\n      jump\t// in\n        /* \"#utility.yul\":3279:3463   */\n    tag_220:\n        /* \"#utility.yul\":3349:3355   */\n      0x00\n        /* \"#utility.yul\":3402:3404   */\n      0x20\n        /* \"#utility.yul\":3390:3399   */\n      dup3\n        /* \"#utility.yul\":3381:3388   */\n      dup5\n        /* \"#utility.yul\":3377:3400   */\n      sub\n        /* \"#utility.yul\":3373:3405   */\n      slt\n        /* \"#utility.yul\":3370:3422   */\n      iszero\n      tag_418\n      jumpi\n        /* \"#utility.yul\":3418:3419   */\n      0x00\n        /* \"#utility.yul\":3415:3416   */\n      dup1\n        /* \"#utility.yul\":3408:3420   */\n      revert\n        /* \"#utility.yul\":3370:3422   */\n    tag_418:\n      pop\n        /* \"#utility.yul\":3441:3457   */\n      mload\n      swap2\n        /* \"#utility.yul\":3279:3463   */\n      swap1\n      pop\n      jump\t// out\n    stop\n    data_c8669cf8eaf883002b9f48e28846a8d408c9b58ea6613bace374265e43c9bc43 9b779b17422d0df92223018b32b4d1fa46e071723d6817e2486d003becc55f00\n\n    auxdata: 0xa264697066735822122071d2be6a732091e16fa54a8201026883c8c5d0a2baa0698ac2d86dc33c4e765d64736f6c63430008180033\n}\n",
				"bytecode": {
					"linkReferences": {},
					"object": "60a06040523480156200001157600080fd5b50604051620019c5380380620019c5833981016040819052620000349162000134565b33806200005b57604051631e4fbdf760e01b81526000600482015260240160405180910390fd5b6200006681620000e4565b5060017f9b779b17422d0df92223018b32b4d1fa46e071723d6817e2486d003becc55f00556001600160a01b038216620000b35760405163d92e233d60e01b815260040160405180910390fd5b6001600160a01b03909116608052600255336000908152600a60205260409020805460ff1916600117905562000170565b600080546001600160a01b038381166001600160a01b0319831681178455604051919092169283917f8be0079c531659141344cd1fd0a4f28419497f9722a3daafe3b4186f6b6457e09190a35050565b600080604083850312156200014857600080fd5b82516001600160a01b03811681146200016057600080fd5b6020939093015192949293505050565b6080516117ec620001d9600039600081816102140152818161059a0152818161085f015281816109b301528181610a6b01528181610be901528181610c4401528181610ea101528181610fe301528181611137015281816111be015261125201526117ec6000f3fe608060405234801561001057600080fd5b50600436106101e45760003560e01c8063817b1cd21161010f578063cd3daf9d116100a2578063e9fad8ee11610071578063e9fad8ee146103ea578063ebe2b12b146103f2578063f0f44260146103fb578063f2fde38b1461040e57600080fd5b8063cd3daf9d146103ae578063d15166ff146103b6578063db2e21bc146103d9578063df136d65146103e157600080fd5b80638da5cb5b116100de5780638da5cb5b1461036e5780639e447fc61461037f578063a694fc3a14610392578063c8f33c91146103a557600080fd5b8063817b1cd21461032a5780638456cb59146103335780638980f11f1461033b5780638b8763471461034e57600080fd5b80633f4ba83a11610187578063602172671161015657806360217267146102e757806361d027b314610307578063715018a61461031a57806380faa57d1461032257600080fd5b80633f4ba83a146102b15780635a5cd45e146102b95780635c975abb146102c15780635d773b2c146102de57600080fd5b8063255a4f73116101c3578063255a4f73146102635780632e17de781461027657806331d7a26214610289578063372500ab146102a957600080fd5b80628cc262146101e95780630e31648f1461020f578063246132f91461024e575b600080fd5b6101fc6101f7366004611645565b610421565b6040519081526020015b60405180910390f35b6102367f000000000000000000000000000000000000000000000000000000000000000081565b6040516001600160a01b039091168152602001610206565b61026161025c366004611667565b61049e565b005b610261610271366004611689565b610689565b6102616102843660046116c5565b610717565b6101fc610297366004611645565b60096020526000908152604090205481565b6102616108d7565b610261610aeb565b6101fc610b2a565b600b546102ce9060ff1681565b6040519015158152602001610206565b6101fc60025481565b6101fc6102f5366004611645565b60076020526000908152604090205481565b600154610236906001600160a01b031681565b610261610b72565b6101fc610b84565b6101fc60065481565b610261610b9d565b6102616103493660046116de565b610bdf565b6101fc61035c366004611645565b60086020526000908152604090205481565b6000546001600160a01b0316610236565b61026161038d3660046116c5565b610d0e565b6102616103a03660046116c5565b610dae565b6101fc60045481565b6101fc610efb565b6102ce6103c4366004611645565b600a6020526000908152604090205460ff1681565b610261610f5c565b6101fc60055481565b610261611057565b6101fc60035481565b610261610409366004611645565b6112d3565b61026161041c366004611645565b6113d7565b6001600160a01b0381166000908152600960209081526040808320546008909252822054670de0b6b3a764000090610457610efb565b610461919061171e565b6001600160a01b0385166000908152600760205260409020546104849190611731565b61048e9190611748565b610498919061176a565b92915050565b6104a6611412565b60006104b0610efb565b6005556104bb610b84565b6004556001600160a01b03811615610502576104d681610421565b6001600160a01b0382166000908152600960209081526040808320939093556005546008909152919020555b336000908152600a602052604090205460ff1615801561052d57506000546001600160a01b03163314155b1561054b57604051631648fd0160e01b815260040160405180910390fd5b8260000361056c57604051631f2a200560e01b815260040160405180910390fd5b8160000361058d57604051631f2a200560e01b815260040160405180910390fd5b6105c26001600160a01b037f00000000000000000000000000000000000000000000000000000000000000001633308661142e565b600354421015610610576000426003546105dc919061171e565b90506000600254826105ee9190611731565b9050836105fb828761176a565b6106059190611748565b6002555061061e9050565b61061a8284611748565b6002555b42600481905561062f90839061176a565b600355604080518481526020810184905233917f8a888ea653a580e40660778ee0c0dabd23a81e8e2c8dcfb938e40982a157d819910160405180910390a250610685600160008051602061179783398151915255565b5050565b61069161146a565b6001600160a01b0382166106b85760405163d92e233d60e01b815260040160405180910390fd5b6001600160a01b0382166000818152600a6020908152604091829020805460ff191685151590811790915591519182527fb33ca1dabfb28a2e1bd06b332c396b1a3d538278691341a5503bbad53f919197910160405180910390a25050565b61071f611412565b600b5460ff16156107435760405163ab35696f60e01b815260040160405180910390fd5b3361074c610efb565b600555610757610b84565b6004556001600160a01b0381161561079e5761077281610421565b6001600160a01b0382166000908152600960209081526040808320939093556005546008909152919020555b816000036107bf57604051631f2a200560e01b815260040160405180910390fd5b336000908152600760205260409020548211156108145733600090815260076020526040908190205490516322df051360e11b815261080b918491600401918252602082015260400190565b60405180910390fd5b336000908152600760205260408120805484929061083390849061171e565b92505081905550816006600082825461084c919061171e565b9091555061088690506001600160a01b037f0000000000000000000000000000000000000000000000000000000000000000163384611497565b60405182815233907f0f5bb82176feb1b5e747e28471aa92156a04d9f3ab9f45f28e2d704232b93f75906020015b60405180910390a2506108d4600160008051602061179783398151915255565b50565b6108df611412565b600b5460ff16156109035760405163ab35696f60e01b815260040160405180910390fd5b3361090c610efb565b600555610917610b84565b6004556001600160a01b0381161561095e5761093281610421565b6001600160a01b0382166000908152600960209081526040808320939093556005546008909152919020555b336000908152600960205260408120549081900361098f57604051635b8f50bf60e11b815260040160405180910390fd5b6006546040516370a0823160e01b8152306004820152600091906001600160a01b037f000000000000000000000000000000000000000000000000000000000000000016906370a0823190602401602060405180830381865afa1580156109fa573d6000803e3d6000fd5b505050506040513d601f19601f82011682018060405250810190610a1e919061177d565b610a28919061171e565b905080821115610a55576040516365ac9d4360e01b8152600481018390526024810182905260440161080b565b33600081815260096020526040812055610a9a907f00000000000000000000000000000000000000000000000000000000000000006001600160a01b03169084611497565b60405182815233907ffc30cddea38e2bf4d6ea7d3f9ed3b6ad7f176419f4963bd81318067a4aee73fe9060200160405180910390a2505050610ae9600160008051602061179783398151915255565b565b610af361146a565b600b805460ff1916905560405133907f5db9ee0a495bf2e6ff9c91a7834c1ba4fdd244a5e8aa4e537bd38aeae4b073aa90600090a2565b6000600654600003610b3c5750600090565b60006002546301e13380610b509190611731565b600654909150610b6282612710611731565b610b6c9190611748565b91505090565b610b7a61146a565b610ae960006114d1565b60006003544210610b96575060035490565b425b905090565b610ba561146a565b600b805460ff1916600117905560405133907f62e78cea01bee320cd4e420270b5ea74000d11b0c9f74754ebdbfc544b05a25890600090a2565b610be761146a565b7f00000000000000000000000000000000000000000000000000000000000000006001600160a01b0316826001600160a01b031603610ce8576006546040516370a0823160e01b8152306004820152600091906001600160a01b037f000000000000000000000000000000000000000000000000000000000000000016906370a0823190602401602060405180830381865afa158015610c8b573d6000803e3d6000fd5b505050506040513d601f19601f82011682018060405250810190610caf919061177d565b610cb9919061171e565b905080821115610ce6576040516365ac9d4360e01b8152600481018390526024810182905260440161080b565b505b610685610cfd6000546001600160a01b031690565b6001600160a01b0384169083611497565b610d1661146a565b6000610d20610efb565b600555610d2b610b84565b6004556001600160a01b03811615610d7257610d4681610421565b6001600160a01b0382166000908152600960209081526040808320939093556005546008909152919020555b60028290556040518281527f8cbfafc8e0d9c5c81401c4b9c6e7d201198adc7eb8f8f1556c195ecd4c0a0e7b9060200160405180910390a15050565b610db6611412565b600b5460ff1615610dda5760405163ab35696f60e01b815260040160405180910390fd5b33610de3610efb565b600555610dee610b84565b6004556001600160a01b03811615610e3557610e0981610421565b6001600160a01b0382166000908152600960209081526040808320939093556005546008909152919020555b81600003610e5657604051631f2a200560e01b815260040160405180910390fd5b3360009081526007602052604081208054849290610e7590849061176a565b925050819055508160066000828254610e8e919061176a565b90915550610ec990506001600160a01b037f00000000000000000000000000000000000000000000000000000000000000001633308561142e565b60405182815233907f9e71bc8eea02a63969f509818f2dafb9254532904319f9dbda79b67bd34a5f3d906020016108b4565b6000600654600003610f0e575060055490565b600654600254600454610f1f610b84565b610f29919061171e565b610f339190611731565b610f4590670de0b6b3a7640000611731565b610f4f9190611748565b600554610b98919061176a565b610f64611412565b3360009081526007602052604081205490819003610f9557604051631f2a200560e01b815260040160405180910390fd5b336000908152600760209081526040808320839055600982528083208390556008909152812081905560068054839290610fd090849061171e565b9091555061100a90506001600160a01b037f0000000000000000000000000000000000000000000000000000000000000000163383611497565b60405181815233907f5fafa99d0643513820be26656b45130b01e1c03062e1266bf36f88cbd3bd96959060200160405180910390a250610ae9600160008051602061179783398151915255565b61105f611412565b600b5460ff16156110835760405163ab35696f60e01b815260040160405180910390fd5b3361108c610efb565b600555611097610b84565b6004556001600160a01b038116156110de576110b281610421565b6001600160a01b0382166000908152600960209081526040808320939093556005546008909152919020555b336000908152600760209081526040808320546009909252909120548115611194573360009081526007602052604081208190556006805484929061112490849061171e565b9091555061115e90506001600160a01b037f0000000000000000000000000000000000000000000000000000000000000000163384611497565b60405182815233907f0f5bb82176feb1b5e747e28471aa92156a04d9f3ab9f45f28e2d704232b93f759060200160405180910390a25b80156112b9576006546040516370a0823160e01b8152306004820152600091906001600160a01b037f000000000000000000000000000000000000000000000000000000000000000016906370a0823190602401602060405180830381865afa158015611205573d6000803e3d6000fd5b505050506040513d601f19601f82011682018060405250810190611229919061177d565b611233919061171e565b90508082116112b75733600081815260096020526040812055611281907f00000000000000000000000000000000000000000000000000000000000000006001600160a01b03169084611497565b60405182815233907ffc30cddea38e2bf4d6ea7d3f9ed3b6ad7f176419f4963bd81318067a4aee73fe9060200160405180910390a25b505b505050610ae9600160008051602061179783398151915255565b6112db61146a565b6001600160a01b0381166113025760405163d92e233d60e01b815260040160405180910390fd5b6001546001600160a01b031615611336576001546001600160a01b03166000908152600a60205260409020805460ff191690555b600180546001600160a01b0319166001600160a01b03831690811782556000818152600a6020526040808220805460ff1916909417909355915190917f3c864541ef71378c6229510ed90f376565ee42d9c5e0904a984a9e863e6db44f91a2604051600181526001600160a01b038216907fb33ca1dabfb28a2e1bd06b332c396b1a3d538278691341a5503bbad53f9191979060200160405180910390a250565b6113df61146a565b6001600160a01b03811661140957604051631e4fbdf760e01b81526000600482015260240161080b565b6108d4816114d1565b61141a611521565b600260008051602061179783398151915255565b61143c848484846001611551565b61146457604051635274afe760e01b81526001600160a01b038516600482015260240161080b565b50505050565b6000546001600160a01b03163314610ae95760405163118cdaa760e01b815233600482015260240161080b565b6114a483838360016115c3565b6114cc57604051635274afe760e01b81526001600160a01b038416600482015260240161080b565b505050565b600080546001600160a01b038381166001600160a01b0319831681178455604051919092169283917f8be0079c531659141344cd1fd0a4f28419497f9722a3daafe3b4186f6b6457e09190a35050565b60008051602061179783398151915254600203610ae957604051633ee5aeb560e01b815260040160405180910390fd5b6040516323b872dd60e01b60008181526001600160a01b038781166004528616602452604485905291602083606481808c5af1925060016000511483166115b15783831516156115a4573d6000823e3d81fd5b6000883b113d1516831692505b60405250600060605295945050505050565b60405163a9059cbb60e01b60008181526001600160a01b038616600452602485905291602083604481808b5af19250600160005114831661161d578383151615611610573d6000823e3d81fd5b6000873b113d1516831692505b60405250949350505050565b80356001600160a01b038116811461164057600080fd5b919050565b60006020828403121561165757600080fd5b61166082611629565b9392505050565b6000806040838503121561167a57600080fd5b50508035926020909101359150565b6000806040838503121561169c57600080fd5b6116a583611629565b9150602083013580151581146116ba57600080fd5b809150509250929050565b6000602082840312156116d757600080fd5b5035919050565b600080604083850312156116f157600080fd5b6116fa83611629565b946020939093013593505050565b634e487b7160e01b600052601160045260246000fd5b8181038181111561049857610498611708565b808202811582820484141761049857610498611708565b60008261176557634e487b7160e01b600052601260045260246000fd5b500490565b8082018082111561049857610498611708565b60006020828403121561178f57600080fd5b505191905056fe9b779b17422d0df92223018b32b4d1fa46e071723d6817e2486d003becc55f00a264697066735822122071d2be6a732091e16fa54a8201026883c8c5d0a2baa0698ac2d86dc33c4e765d64736f6c63430008180033",
					"opcodes": "PUSH1 0xA0 PUSH1 0x40 MSTORE CALLVALUE DUP1 ISZERO PUSH3 0x11 JUMPI PUSH1 0x0 DUP1 REVERT JUMPDEST POP PUSH1 0x40 MLOAD PUSH3 0x19C5 CODESIZE SUB DUP1 PUSH3 0x19C5 DUP4 CODECOPY DUP2 ADD PUSH1 0x40 DUP2 SWAP1 MSTORE PUSH3 0x34 SWAP2 PUSH3 0x134 JUMP JUMPDEST CALLER DUP1 PUSH3 0x5B JUMPI PUSH1 0x40 MLOAD PUSH4 0x1E4FBDF7 PUSH1 0xE0 SHL DUP2 MSTORE PUSH1 0x0 PUSH1 0x4 DUP3 ADD MSTORE PUSH1 0x24 ADD PUSH1 0x40 MLOAD DUP1 SWAP2 SUB SWAP1 REVERT JUMPDEST PUSH3 0x66 DUP2 PUSH3 0xE4 JUMP JUMPDEST POP PUSH1 0x1 PUSH32 0x9B779B17422D0DF92223018B32B4D1FA46E071723D6817E2486D003BECC55F00 SSTORE PUSH1 0x1 PUSH1 0x1 PUSH1 0xA0 SHL SUB DUP3 AND PUSH3 0xB3 JUMPI PUSH1 0x40 MLOAD PUSH4 0xD92E233D PUSH1 0xE0 SHL DUP2 MSTORE PUSH1 0x4 ADD PUSH1 0x40 MLOAD DUP1 SWAP2 SUB SWAP1 REVERT JUMPDEST PUSH1 0x1 PUSH1 0x1 PUSH1 0xA0 SHL SUB SWAP1 SWAP2 AND PUSH1 0x80 MSTORE PUSH1 0x2 SSTORE CALLER PUSH1 0x0 SWAP1 DUP2 MSTORE PUSH1 0xA PUSH1 0x20 MSTORE PUSH1 0x40 SWAP1 KECCAK256 DUP1 SLOAD PUSH1 0xFF NOT AND PUSH1 0x1 OR SWAP1 SSTORE PUSH3 0x170 JUMP JUMPDEST PUSH1 0x0 DUP1 SLOAD PUSH1 0x1 PUSH1 0x1 PUSH1 0xA0 SHL SUB DUP4 DUP2 AND PUSH1 0x1 PUSH1 0x1 PUSH1 0xA0 SHL SUB NOT DUP4 AND DUP2 OR DUP5 SSTORE PUSH1 0x40 MLOAD SWAP2 SWAP1 SWAP3 AND SWAP3 DUP4 SWAP2 PUSH32 0x8BE0079C531659141344CD1FD0A4F28419497F9722A3DAAFE3B4186F6B6457E0 SWAP2 SWAP1 LOG3 POP POP JUMP JUMPDEST PUSH1 0x0 DUP1 PUSH1 0x40 DUP4 DUP6 SUB SLT ISZERO PUSH3 0x148 JUMPI PUSH1 0x0 DUP1 REVERT JUMPDEST DUP3 MLOAD PUSH1 0x1 PUSH1 0x1 PUSH1 0xA0 SHL SUB DUP2 AND DUP2 EQ PUSH3 0x160 JUMPI PUSH1 0x0 DUP1 REVERT JUMPDEST PUSH1 0x20 SWAP4 SWAP1 SWAP4 ADD MLOAD SWAP3 SWAP5 SWAP3 SWAP4 POP POP POP JUMP JUMPDEST PUSH1 0x80 MLOAD PUSH2 0x17EC PUSH3 0x1D9 PUSH1 0x0 CODECOPY PUSH1 0x0 DUP2 DUP2 PUSH2 0x214 ADD MSTORE DUP2 DUP2 PUSH2 0x59A ADD MSTORE DUP2 DUP2 PUSH2 0x85F ADD MSTORE DUP2 DUP2 PUSH2 0x9B3 ADD MSTORE DUP2 DUP2 PUSH2 0xA6B ADD MSTORE DUP2 DUP2 PUSH2 0xBE9 ADD MSTORE DUP2 DUP2 PUSH2 0xC44 ADD MSTORE DUP2 DUP2 PUSH2 0xEA1 ADD MSTORE DUP2 DUP2 PUSH2 0xFE3 ADD MSTORE DUP2 DUP2 PUSH2 0x1137 ADD MSTORE DUP2 DUP2 PUSH2 0x11BE ADD MSTORE PUSH2 0x1252 ADD MSTORE PUSH2 0x17EC PUSH1 0x0 RETURN INVALID PUSH1 0x80 PUSH1 0x40 MSTORE CALLVALUE DUP1 ISZERO PUSH2 0x10 JUMPI PUSH1 0x0 DUP1 REVERT JUMPDEST POP PUSH1 0x4 CALLDATASIZE LT PUSH2 0x1E4 JUMPI PUSH1 0x0 CALLDATALOAD PUSH1 0xE0 SHR DUP1 PUSH4 0x817B1CD2 GT PUSH2 0x10F JUMPI DUP1 PUSH4 0xCD3DAF9D GT PUSH2 0xA2 JUMPI DUP1 PUSH4 0xE9FAD8EE GT PUSH2 0x71 JUMPI DUP1 PUSH4 0xE9FAD8EE EQ PUSH2 0x3EA JUMPI DUP1 PUSH4 0xEBE2B12B EQ PUSH2 0x3F2 JUMPI DUP1 PUSH4 0xF0F44260 EQ PUSH2 0x3FB JUMPI DUP1 PUSH4 0xF2FDE38B EQ PUSH2 0x40E JUMPI PUSH1 0x0 DUP1 REVERT JUMPDEST DUP1 PUSH4 0xCD3DAF9D EQ PUSH2 0x3AE JUMPI DUP1 PUSH4 0xD15166FF EQ PUSH2 0x3B6 JUMPI DUP1 PUSH4 0xDB2E21BC EQ PUSH2 0x3D9 JUMPI DUP1 PUSH4 0xDF136D65 EQ PUSH2 0x3E1 JUMPI PUSH1 0x0 DUP1 REVERT JUMPDEST DUP1 PUSH4 0x8DA5CB5B GT PUSH2 0xDE JUMPI DUP1 PUSH4 0x8DA5CB5B EQ PUSH2 0x36E JUMPI DUP1 PUSH4 0x9E447FC6 EQ PUSH2 0x37F JUMPI DUP1 PUSH4 0xA694FC3A EQ PUSH2 0x392 JUMPI DUP1 PUSH4 0xC8F33C91 EQ PUSH2 0x3A5 JUMPI PUSH1 0x0 DUP1 REVERT JUMPDEST DUP1 PUSH4 0x817B1CD2 EQ PUSH2 0x32A JUMPI DUP1 PUSH4 0x8456CB59 EQ PUSH2 0x333 JUMPI DUP1 PUSH4 0x8980F11F EQ PUSH2 0x33B JUMPI DUP1 PUSH4 0x8B876347 EQ PUSH2 0x34E JUMPI PUSH1 0x0 DUP1 REVERT JUMPDEST DUP1 PUSH4 0x3F4BA83A GT PUSH2 0x187 JUMPI DUP1 PUSH4 0x60217267 GT PUSH2 0x156 JUMPI DUP1 PUSH4 0x60217267 EQ PUSH2 0x2E7 JUMPI DUP1 PUSH4 0x61D027B3 EQ PUSH2 0x307 JUMPI DUP1 PUSH4 0x715018A6 EQ PUSH2 0x31A JUMPI DUP1 PUSH4 0x80FAA57D EQ PUSH2 0x322 JUMPI PUSH1 0x0 DUP1 REVERT JUMPDEST DUP1 PUSH4 0x3F4BA83A EQ PUSH2 0x2B1 JUMPI DUP1 PUSH4 0x5A5CD45E EQ PUSH2 0x2B9 JUMPI DUP1 PUSH4 0x5C975ABB EQ PUSH2 0x2C1 JUMPI DUP1 PUSH4 0x5D773B2C EQ PUSH2 0x2DE JUMPI PUSH1 0x0 DUP1 REVERT JUMPDEST DUP1 PUSH4 0x255A4F73 GT PUSH2 0x1C3 JUMPI DUP1 PUSH4 0x255A4F73 EQ PUSH2 0x263 JUMPI DUP1 PUSH4 0x2E17DE78 EQ PUSH2 0x276 JUMPI DUP1 PUSH4 0x31D7A262 EQ PUSH2 0x289 JUMPI DUP1 PUSH4 0x372500AB EQ PUSH2 0x2A9 JUMPI PUSH1 0x0 DUP1 REVERT JUMPDEST DUP1 PUSH3 0x8CC262 EQ PUSH2 0x1E9 JUMPI DUP1 PUSH4 0xE31648F EQ PUSH2 0x20F JUMPI DUP1 PUSH4 0x246132F9 EQ PUSH2 0x24E JUMPI JUMPDEST PUSH1 0x0 DUP1 REVERT JUMPDEST PUSH2 0x1FC PUSH2 0x1F7 CALLDATASIZE PUSH1 0x4 PUSH2 0x1645 JUMP JUMPDEST PUSH2 0x421 JUMP JUMPDEST PUSH1 0x40 MLOAD SWAP1 DUP2 MSTORE PUSH1 0x20 ADD JUMPDEST PUSH1 0x40 MLOAD DUP1 SWAP2 SUB SWAP1 RETURN JUMPDEST PUSH2 0x236 PUSH32 0x0 DUP2 JUMP JUMPDEST PUSH1 0x40 MLOAD PUSH1 0x1 PUSH1 0x1 PUSH1 0xA0 SHL SUB SWAP1 SWAP2 AND DUP2 MSTORE PUSH1 0x20 ADD PUSH2 0x206 JUMP JUMPDEST PUSH2 0x261 PUSH2 0x25C CALLDATASIZE PUSH1 0x4 PUSH2 0x1667 JUMP JUMPDEST PUSH2 0x49E JUMP JUMPDEST STOP JUMPDEST PUSH2 0x261 PUSH2 0x271 CALLDATASIZE PUSH1 0x4 PUSH2 0x1689 JUMP JUMPDEST PUSH2 0x689 JUMP JUMPDEST PUSH2 0x261 PUSH2 0x284 CALLDATASIZE PUSH1 0x4 PUSH2 0x16C5 JUMP JUMPDEST PUSH2 0x717 JUMP JUMPDEST PUSH2 0x1FC PUSH2 0x297 CALLDATASIZE PUSH1 0x4 PUSH2 0x1645 JUMP JUMPDEST PUSH1 0x9 PUSH1 0x20 MSTORE PUSH1 0x0 SWAP1 DUP2 MSTORE PUSH1 0x40 SWAP1 KECCAK256 SLOAD DUP2 JUMP JUMPDEST PUSH2 0x261 PUSH2 0x8D7 JUMP JUMPDEST PUSH2 0x261 PUSH2 0xAEB JUMP JUMPDEST PUSH2 0x1FC PUSH2 0xB2A JUMP JUMPDEST PUSH1 0xB SLOAD PUSH2 0x2CE SWAP1 PUSH1 0xFF AND DUP2 JUMP JUMPDEST PUSH1 0x40 MLOAD SWAP1 ISZERO ISZERO DUP2 MSTORE PUSH1 0x20 ADD PUSH2 0x206 JUMP JUMPDEST PUSH2 0x1FC PUSH1 0x2 SLOAD DUP2 JUMP JUMPDEST PUSH2 0x1FC PUSH2 0x2F5 CALLDATASIZE PUSH1 0x4 PUSH2 0x1645 JUMP JUMPDEST PUSH1 0x7 PUSH1 0x20 MSTORE PUSH1 0x0 SWAP1 DUP2 MSTORE PUSH1 0x40 SWAP1 KECCAK256 SLOAD DUP2 JUMP JUMPDEST PUSH1 0x1 SLOAD PUSH2 0x236 SWAP1 PUSH1 0x1 PUSH1 0x1 PUSH1 0xA0 SHL SUB AND DUP2 JUMP JUMPDEST PUSH2 0x261 PUSH2 0xB72 JUMP JUMPDEST PUSH2 0x1FC PUSH2 0xB84 JUMP JUMPDEST PUSH2 0x1FC PUSH1 0x6 SLOAD DUP2 JUMP JUMPDEST PUSH2 0x261 PUSH2 0xB9D JUMP JUMPDEST PUSH2 0x261 PUSH2 0x349 CALLDATASIZE PUSH1 0x4 PUSH2 0x16DE JUMP JUMPDEST PUSH2 0xBDF JUMP JUMPDEST PUSH2 0x1FC PUSH2 0x35C CALLDATASIZE PUSH1 0x4 PUSH2 0x1645 JUMP JUMPDEST PUSH1 0x8 PUSH1 0x20 MSTORE PUSH1 0x0 SWAP1 DUP2 MSTORE PUSH1 0x40 SWAP1 KECCAK256 SLOAD DUP2 JUMP JUMPDEST PUSH1 0x0 SLOAD PUSH1 0x1 PUSH1 0x1 PUSH1 0xA0 SHL SUB AND PUSH2 0x236 JUMP JUMPDEST PUSH2 0x261 PUSH2 0x38D CALLDATASIZE PUSH1 0x4 PUSH2 0x16C5 JUMP JUMPDEST PUSH2 0xD0E JUMP JUMPDEST PUSH2 0x261 PUSH2 0x3A0 CALLDATASIZE PUSH1 0x4 PUSH2 0x16C5 JUMP JUMPDEST PUSH2 0xDAE JUMP JUMPDEST PUSH2 0x1FC PUSH1 0x4 SLOAD DUP2 JUMP JUMPDEST PUSH2 0x1FC PUSH2 0xEFB JUMP JUMPDEST PUSH2 0x2CE PUSH2 0x3C4 CALLDATASIZE PUSH1 0x4 PUSH2 0x1645 JUMP JUMPDEST PUSH1 0xA PUSH1 0x20 MSTORE PUSH1 0x0 SWAP1 DUP2 MSTORE PUSH1 0x40 SWAP1 KECCAK256 SLOAD PUSH1 0xFF AND DUP2 JUMP JUMPDEST PUSH2 0x261 PUSH2 0xF5C JUMP JUMPDEST PUSH2 0x1FC PUSH1 0x5 SLOAD DUP2 JUMP JUMPDEST PUSH2 0x261 PUSH2 0x1057 JUMP JUMPDEST PUSH2 0x1FC PUSH1 0x3 SLOAD DUP2 JUMP JUMPDEST PUSH2 0x261 PUSH2 0x409 CALLDATASIZE PUSH1 0x4 PUSH2 0x1645 JUMP JUMPDEST PUSH2 0x12D3 JUMP JUMPDEST PUSH2 0x261 PUSH2 0x41C CALLDATASIZE PUSH1 0x4 PUSH2 0x1645 JUMP JUMPDEST PUSH2 0x13D7 JUMP JUMPDEST PUSH1 0x1 PUSH1 0x1 PUSH1 0xA0 SHL SUB DUP2 AND PUSH1 0x0 SWAP1 DUP2 MSTORE PUSH1 0x9 PUSH1 0x20 SWAP1 DUP2 MSTORE PUSH1 0x40 DUP1 DUP4 KECCAK256 SLOAD PUSH1 0x8 SWAP1 SWAP3 MSTORE DUP3 KECCAK256 SLOAD PUSH8 0xDE0B6B3A7640000 SWAP1 PUSH2 0x457 PUSH2 0xEFB JUMP JUMPDEST PUSH2 0x461 SWAP2 SWAP1 PUSH2 0x171E JUMP JUMPDEST PUSH1 0x1 PUSH1 0x1 PUSH1 0xA0 SHL SUB DUP6 AND PUSH1 0x0 SWAP1 DUP2 MSTORE PUSH1 0x7 PUSH1 0x20 MSTORE PUSH1 0x40 SWAP1 KECCAK256 SLOAD PUSH2 0x484 SWAP2 SWAP1 PUSH2 0x1731 JUMP JUMPDEST PUSH2 0x48E SWAP2 SWAP1 PUSH2 0x1748 JUMP JUMPDEST PUSH2 0x498 SWAP2 SWAP1 PUSH2 0x176A JUMP JUMPDEST SWAP3 SWAP2 POP POP JUMP JUMPDEST PUSH2 0x4A6 PUSH2 0x1412 JUMP JUMPDEST PUSH1 0x0 PUSH2 0x4B0 PUSH2 0xEFB JUMP JUMPDEST PUSH1 0x5 SSTORE PUSH2 0x4BB PUSH2 0xB84 JUMP JUMPDEST PUSH1 0x4 SSTORE PUSH1 0x1 PUSH1 0x1 PUSH1 0xA0 SHL SUB DUP2 AND ISZERO PUSH2 0x502 JUMPI PUSH2 0x4D6 DUP2 PUSH2 0x421 JUMP JUMPDEST PUSH1 0x1 PUSH1 0x1 PUSH1 0xA0 SHL SUB DUP3 AND PUSH1 0x0 SWAP1 DUP2 MSTORE PUSH1 0x9 PUSH1 0x20 SWAP1 DUP2 MSTORE PUSH1 0x40 DUP1 DUP4 KECCAK256 SWAP4 SWAP1 SWAP4 SSTORE PUSH1 0x5 SLOAD PUSH1 0x8 SWAP1 SWAP2 MSTORE SWAP2 SWAP1 KECCAK256 SSTORE JUMPDEST CALLER PUSH1 0x0 SWAP1 DUP2 MSTORE PUSH1 0xA PUSH1 0x20 MSTORE PUSH1 0x40 SWAP1 KECCAK256 SLOAD PUSH1 0xFF AND ISZERO DUP1 ISZERO PUSH2 0x52D JUMPI POP PUSH1 0x0 SLOAD PUSH1 0x1 PUSH1 0x1 PUSH1 0xA0 SHL SUB AND CALLER EQ ISZERO JUMPDEST ISZERO PUSH2 0x54B JUMPI PUSH1 0x40 MLOAD PUSH4 0x1648FD01 PUSH1 0xE0 SHL DUP2 MSTORE PUSH1 0x4 ADD PUSH1 0x40 MLOAD DUP1 SWAP2 SUB SWAP1 REVERT JUMPDEST DUP3 PUSH1 0x0 SUB PUSH2 0x56C JUMPI PUSH1 0x40 MLOAD PUSH4 0x1F2A2005 PUSH1 0xE0 SHL DUP2 MSTORE PUSH1 0x4 ADD PUSH1 0x40 MLOAD DUP1 SWAP2 SUB SWAP1 REVERT JUMPDEST DUP2 PUSH1 0x0 SUB PUSH2 0x58D JUMPI PUSH1 0x40 MLOAD PUSH4 0x1F2A2005 PUSH1 0xE0 SHL DUP2 MSTORE PUSH1 0x4 ADD PUSH1 0x40 MLOAD DUP1 SWAP2 SUB SWAP1 REVERT JUMPDEST PUSH2 0x5C2 PUSH1 0x1 PUSH1 0x1 PUSH1 0xA0 SHL SUB PUSH32 0x0 AND CALLER ADDRESS DUP7 PUSH2 0x142E JUMP JUMPDEST PUSH1 0x3 SLOAD TIMESTAMP LT ISZERO PUSH2 0x610 JUMPI PUSH1 0x0 TIMESTAMP PUSH1 0x3 SLOAD PUSH2 0x5DC SWAP2 SWAP1 PUSH2 0x171E JUMP JUMPDEST SWAP1 POP PUSH1 0x0 PUSH1 0x2 SLOAD DUP3 PUSH2 0x5EE SWAP2 SWAP1 PUSH2 0x1731 JUMP JUMPDEST SWAP1 POP DUP4 PUSH2 0x5FB DUP3 DUP8 PUSH2 0x176A JUMP JUMPDEST PUSH2 0x605 SWAP2 SWAP1 PUSH2 0x1748 JUMP JUMPDEST PUSH1 0x2 SSTORE POP PUSH2 0x61E SWAP1 POP JUMP JUMPDEST PUSH2 0x61A DUP3 DUP5 PUSH2 0x1748 JUMP JUMPDEST PUSH1 0x2 SSTORE JUMPDEST TIMESTAMP PUSH1 0x4 DUP2 SWAP1 SSTORE PUSH2 0x62F SWAP1 DUP4 SWAP1 PUSH2 0x176A JUMP JUMPDEST PUSH1 0x3 SSTORE PUSH1 0x40 DUP1 MLOAD DUP5 DUP2 MSTORE PUSH1 0x20 DUP2 ADD DUP5 SWAP1 MSTORE CALLER SWAP2 PUSH32 0x8A888EA653A580E40660778EE0C0DABD23A81E8E2C8DCFB938E40982A157D819 SWAP2 ADD PUSH1 0x40 MLOAD DUP1 SWAP2 SUB SWAP1 LOG2 POP PUSH2 0x685 PUSH1 0x1 PUSH1 0x0 DUP1 MLOAD PUSH1 0x20 PUSH2 0x1797 DUP4 CODECOPY DUP2 MLOAD SWAP2 MSTORE SSTORE JUMP JUMPDEST POP POP JUMP JUMPDEST PUSH2 0x691 PUSH2 0x146A JUMP JUMPDEST PUSH1 0x1 PUSH1 0x1 PUSH1 0xA0 SHL SUB DUP3 AND PUSH2 0x6B8 JUMPI PUSH1 0x40 MLOAD PUSH4 0xD92E233D PUSH1 0xE0 SHL DUP2 MSTORE PUSH1 0x4 ADD PUSH1 0x40 MLOAD DUP1 SWAP2 SUB SWAP1 REVERT JUMPDEST PUSH1 0x1 PUSH1 0x1 PUSH1 0xA0 SHL SUB DUP3 AND PUSH1 0x0 DUP2 DUP2 MSTORE PUSH1 0xA PUSH1 0x20 SWAP1 DUP2 MSTORE PUSH1 0x40 SWAP2 DUP3 SWAP1 KECCAK256 DUP1 SLOAD PUSH1 0xFF NOT AND DUP6 ISZERO ISZERO SWAP1 DUP2 OR SWAP1 SWAP2 SSTORE SWAP2 MLOAD SWAP2 DUP3 MSTORE PUSH32 0xB33CA1DABFB28A2E1BD06B332C396B1A3D538278691341A5503BBAD53F919197 SWAP2 ADD PUSH1 0x40 MLOAD DUP1 SWAP2 SUB SWAP1 LOG2 POP POP JUMP JUMPDEST PUSH2 0x71F PUSH2 0x1412 JUMP JUMPDEST PUSH1 0xB SLOAD PUSH1 0xFF AND ISZERO PUSH2 0x743 JUMPI PUSH1 0x40 MLOAD PUSH4 0xAB35696F PUSH1 0xE0 SHL DUP2 MSTORE PUSH1 0x4 ADD PUSH1 0x40 MLOAD DUP1 SWAP2 SUB SWAP1 REVERT JUMPDEST CALLER PUSH2 0x74C PUSH2 0xEFB JUMP JUMPDEST PUSH1 0x5 SSTORE PUSH2 0x757 PUSH2 0xB84 JUMP JUMPDEST PUSH1 0x4 SSTORE PUSH1 0x1 PUSH1 0x1 PUSH1 0xA0 SHL SUB DUP2 AND ISZERO PUSH2 0x79E JUMPI PUSH2 0x772 DUP2 PUSH2 0x421 JUMP JUMPDEST PUSH1 0x1 PUSH1 0x1 PUSH1 0xA0 SHL SUB DUP3 AND PUSH1 0x0 SWAP1 DUP2 MSTORE PUSH1 0x9 PUSH1 0x20 SWAP1 DUP2 MSTORE PUSH1 0x40 DUP1 DUP4 KECCAK256 SWAP4 SWAP1 SWAP4 SSTORE PUSH1 0x5 SLOAD PUSH1 0x8 SWAP1 SWAP2 MSTORE SWAP2 SWAP1 KECCAK256 SSTORE JUMPDEST DUP2 PUSH1 0x0 SUB PUSH2 0x7BF JUMPI PUSH1 0x40 MLOAD PUSH4 0x1F2A2005 PUSH1 0xE0 SHL DUP2 MSTORE PUSH1 0x4 ADD PUSH1 0x40 MLOAD DUP1 SWAP2 SUB SWAP1 REVERT JUMPDEST CALLER PUSH1 0x0 SWAP1 DUP2 MSTORE PUSH1 0x7 PUSH1 0x20 MSTORE PUSH1 0x40 SWAP1 KECCAK256 SLOAD DUP3 GT ISZERO PUSH2 0x814 JUMPI CALLER PUSH1 0x0 SWAP1 DUP2 MSTORE PUSH1 0x7 PUSH1 0x20 MSTORE PUSH1 0x40 SWAP1 DUP2 SWAP1 KECCAK256 SLOAD SWAP1 MLOAD PUSH4 0x22DF0513 PUSH1 0xE1 SHL DUP2 MSTORE PUSH2 0x80B SWAP2 DUP5 SWAP2 PUSH1 0x4 ADD SWAP2 DUP3 MSTORE PUSH1 0x20 DUP3 ADD MSTORE PUSH1 0x40 ADD SWAP1 JUMP JUMPDEST PUSH1 0x40 MLOAD DUP1 SWAP2 SUB SWAP1 REVERT JUMPDEST CALLER PUSH1 0x0 SWAP1 DUP2 MSTORE PUSH1 0x7 PUSH1 0x20 MSTORE PUSH1 0x40 DUP2 KECCAK256 DUP1 SLOAD DUP5 SWAP3 SWAP1 PUSH2 0x833 SWAP1 DUP5 SWAP1 PUSH2 0x171E JUMP JUMPDEST SWAP3 POP POP DUP2 SWAP1 SSTORE POP DUP2 PUSH1 0x6 PUSH1 0x0 DUP3 DUP3 SLOAD PUSH2 0x84C SWAP2 SWAP1 PUSH2 0x171E JUMP JUMPDEST SWAP1 SWAP2 SSTORE POP PUSH2 0x886 SWAP1 POP PUSH1 0x1 PUSH1 0x1 PUSH1 0xA0 SHL SUB PUSH32 0x0 AND CALLER DUP5 PUSH2 0x1497 JUMP JUMPDEST PUSH1 0x40 MLOAD DUP3 DUP2 MSTORE CALLER SWAP1 PUSH32 0xF5BB82176FEB1B5E747E28471AA92156A04D9F3AB9F45F28E2D704232B93F75 SWAP1 PUSH1 0x20 ADD JUMPDEST PUSH1 0x40 MLOAD DUP1 SWAP2 SUB SWAP1 LOG2 POP PUSH2 0x8D4 PUSH1 0x1 PUSH1 0x0 DUP1 MLOAD PUSH1 0x20 PUSH2 0x1797 DUP4 CODECOPY DUP2 MLOAD SWAP2 MSTORE SSTORE JUMP JUMPDEST POP JUMP JUMPDEST PUSH2 0x8DF PUSH2 0x1412 JUMP JUMPDEST PUSH1 0xB SLOAD PUSH1 0xFF AND ISZERO PUSH2 0x903 JUMPI PUSH1 0x40 MLOAD PUSH4 0xAB35696F PUSH1 0xE0 SHL DUP2 MSTORE PUSH1 0x4 ADD PUSH1 0x40 MLOAD DUP1 SWAP2 SUB SWAP1 REVERT JUMPDEST CALLER PUSH2 0x90C PUSH2 0xEFB JUMP JUMPDEST PUSH1 0x5 SSTORE PUSH2 0x917 PUSH2 0xB84 JUMP JUMPDEST PUSH1 0x4 SSTORE PUSH1 0x1 PUSH1 0x1 PUSH1 0xA0 SHL SUB DUP2 AND ISZERO PUSH2 0x95E JUMPI PUSH2 0x932 DUP2 PUSH2 0x421 JUMP JUMPDEST PUSH1 0x1 PUSH1 0x1 PUSH1 0xA0 SHL SUB DUP3 AND PUSH1 0x0 SWAP1 DUP2 MSTORE PUSH1 0x9 PUSH1 0x20 SWAP1 DUP2 MSTORE PUSH1 0x40 DUP1 DUP4 KECCAK256 SWAP4 SWAP1 SWAP4 SSTORE PUSH1 0x5 SLOAD PUSH1 0x8 SWAP1 SWAP2 MSTORE SWAP2 SWAP1 KECCAK256 SSTORE JUMPDEST CALLER PUSH1 0x0 SWAP1 DUP2 MSTORE PUSH1 0x9 PUSH1 0x20 MSTORE PUSH1 0x40 DUP2 KECCAK256 SLOAD SWAP1 DUP2 SWAP1 SUB PUSH2 0x98F JUMPI PUSH1 0x40 MLOAD PUSH4 0x5B8F50BF PUSH1 0xE1 SHL DUP2 MSTORE PUSH1 0x4 ADD PUSH1 0x40 MLOAD DUP1 SWAP2 SUB SWAP1 REVERT JUMPDEST PUSH1 0x6 SLOAD PUSH1 0x40 MLOAD PUSH4 0x70A08231 PUSH1 0xE0 SHL DUP2 MSTORE ADDRESS PUSH1 0x4 DUP3 ADD MSTORE PUSH1 0x0 SWAP2 SWAP1 PUSH1 0x1 PUSH1 0x1 PUSH1 0xA0 SHL SUB PUSH32 0x0 AND SWAP1 PUSH4 0x70A08231 SWAP1 PUSH1 0x24 ADD PUSH1 0x20 PUSH1 0x40 MLOAD DUP1 DUP4 SUB DUP2 DUP7 GAS STATICCALL ISZERO DUP1 ISZERO PUSH2 0x9FA JUMPI RETURNDATASIZE PUSH1 0x0 DUP1 RETURNDATACOPY RETURNDATASIZE PUSH1 0x0 REVERT JUMPDEST POP POP POP POP PUSH1 0x40 MLOAD RETURNDATASIZE PUSH1 0x1F NOT PUSH1 0x1F DUP3 ADD AND DUP3 ADD DUP1 PUSH1 0x40 MSTORE POP DUP2 ADD SWAP1 PUSH2 0xA1E SWAP2 SWAP1 PUSH2 0x177D JUMP JUMPDEST PUSH2 0xA28 SWAP2 SWAP1 PUSH2 0x171E JUMP JUMPDEST SWAP1 POP DUP1 DUP3 GT ISZERO PUSH2 0xA55 JUMPI PUSH1 0x40 MLOAD PUSH4 0x65AC9D43 PUSH1 0xE0 SHL DUP2 MSTORE PUSH1 0x4 DUP2 ADD DUP4 SWAP1 MSTORE PUSH1 0x24 DUP2 ADD DUP3 SWAP1 MSTORE PUSH1 0x44 ADD PUSH2 0x80B JUMP JUMPDEST CALLER PUSH1 0x0 DUP2 DUP2 MSTORE PUSH1 0x9 PUSH1 0x20 MSTORE PUSH1 0x40 DUP2 KECCAK256 SSTORE PUSH2 0xA9A SWAP1 PUSH32 0x0 PUSH1 0x1 PUSH1 0x1 PUSH1 0xA0 SHL SUB AND SWAP1 DUP5 PUSH2 0x1497 JUMP JUMPDEST PUSH1 0x40 MLOAD DUP3 DUP2 MSTORE CALLER SWAP1 PUSH32 0xFC30CDDEA38E2BF4D6EA7D3F9ED3B6AD7F176419F4963BD81318067A4AEE73FE SWAP1 PUSH1 0x20 ADD PUSH1 0x40 MLOAD DUP1 SWAP2 SUB SWAP1 LOG2 POP POP POP PUSH2 0xAE9 PUSH1 0x1 PUSH1 0x0 DUP1 MLOAD PUSH1 0x20 PUSH2 0x1797 DUP4 CODECOPY DUP2 MLOAD SWAP2 MSTORE SSTORE JUMP JUMPDEST JUMP JUMPDEST PUSH2 0xAF3 PUSH2 0x146A JUMP JUMPDEST PUSH1 0xB DUP1 SLOAD PUSH1 0xFF NOT AND SWAP1 SSTORE PUSH1 0x40 MLOAD CALLER SWAP1 PUSH32 0x5DB9EE0A495BF2E6FF9C91A7834C1BA4FDD244A5E8AA4E537BD38AEAE4B073AA SWAP1 PUSH1 0x0 SWAP1 LOG2 JUMP JUMPDEST PUSH1 0x0 PUSH1 0x6 SLOAD PUSH1 0x0 SUB PUSH2 0xB3C JUMPI POP PUSH1 0x0 SWAP1 JUMP JUMPDEST PUSH1 0x0 PUSH1 0x2 SLOAD PUSH4 0x1E13380 PUSH2 0xB50 SWAP2 SWAP1 PUSH2 0x1731 JUMP JUMPDEST PUSH1 0x6 SLOAD SWAP1 SWAP2 POP PUSH2 0xB62 DUP3 PUSH2 0x2710 PUSH2 0x1731 JUMP JUMPDEST PUSH2 0xB6C SWAP2 SWAP1 PUSH2 0x1748 JUMP JUMPDEST SWAP2 POP POP SWAP1 JUMP JUMPDEST PUSH2 0xB7A PUSH2 0x146A JUMP JUMPDEST PUSH2 0xAE9 PUSH1 0x0 PUSH2 0x14D1 JUMP JUMPDEST PUSH1 0x0 PUSH1 0x3 SLOAD TIMESTAMP LT PUSH2 0xB96 JUMPI POP PUSH1 0x3 SLOAD SWAP1 JUMP JUMPDEST TIMESTAMP JUMPDEST SWAP1 POP SWAP1 JUMP JUMPDEST PUSH2 0xBA5 PUSH2 0x146A JUMP JUMPDEST PUSH1 0xB DUP1 SLOAD PUSH1 0xFF NOT AND PUSH1 0x1 OR SWAP1 SSTORE PUSH1 0x40 MLOAD CALLER SWAP1 PUSH32 0x62E78CEA01BEE320CD4E420270B5EA74000D11B0C9F74754EBDBFC544B05A258 SWAP1 PUSH1 0x0 SWAP1 LOG2 JUMP JUMPDEST PUSH2 0xBE7 PUSH2 0x146A JUMP JUMPDEST PUSH32 0x0 PUSH1 0x1 PUSH1 0x1 PUSH1 0xA0 SHL SUB AND DUP3 PUSH1 0x1 PUSH1 0x1 PUSH1 0xA0 SHL SUB AND SUB PUSH2 0xCE8 JUMPI PUSH1 0x6 SLOAD PUSH1 0x40 MLOAD PUSH4 0x70A08231 PUSH1 0xE0 SHL DUP2 MSTORE ADDRESS PUSH1 0x4 DUP3 ADD MSTORE PUSH1 0x0 SWAP2 SWAP1 PUSH1 0x1 PUSH1 0x1 PUSH1 0xA0 SHL SUB PUSH32 0x0 AND SWAP1 PUSH4 0x70A08231 SWAP1 PUSH1 0x24 ADD PUSH1 0x20 PUSH1 0x40 MLOAD DUP1 DUP4 SUB DUP2 DUP7 GAS STATICCALL ISZERO DUP1 ISZERO PUSH2 0xC8B JUMPI RETURNDATASIZE PUSH1 0x0 DUP1 RETURNDATACOPY RETURNDATASIZE PUSH1 0x0 REVERT JUMPDEST POP POP POP POP PUSH1 0x40 MLOAD RETURNDATASIZE PUSH1 0x1F NOT PUSH1 0x1F DUP3 ADD AND DUP3 ADD DUP1 PUSH1 0x40 MSTORE POP DUP2 ADD SWAP1 PUSH2 0xCAF SWAP2 SWAP1 PUSH2 0x177D JUMP JUMPDEST PUSH2 0xCB9 SWAP2 SWAP1 PUSH2 0x171E JUMP JUMPDEST SWAP1 POP DUP1 DUP3 GT ISZERO PUSH2 0xCE6 JUMPI PUSH1 0x40 MLOAD PUSH4 0x65AC9D43 PUSH1 0xE0 SHL DUP2 MSTORE PUSH1 0x4 DUP2 ADD DUP4 SWAP1 MSTORE PUSH1 0x24 DUP2 ADD DUP3 SWAP1 MSTORE PUSH1 0x44 ADD PUSH2 0x80B JUMP JUMPDEST POP JUMPDEST PUSH2 0x685 PUSH2 0xCFD PUSH1 0x0 SLOAD PUSH1 0x1 PUSH1 0x1 PUSH1 0xA0 SHL SUB AND SWAP1 JUMP JUMPDEST PUSH1 0x1 PUSH1 0x1 PUSH1 0xA0 SHL SUB DUP5 AND SWAP1 DUP4 PUSH2 0x1497 JUMP JUMPDEST PUSH2 0xD16 PUSH2 0x146A JUMP JUMPDEST PUSH1 0x0 PUSH2 0xD20 PUSH2 0xEFB JUMP JUMPDEST PUSH1 0x5 SSTORE PUSH2 0xD2B PUSH2 0xB84 JUMP JUMPDEST PUSH1 0x4 SSTORE PUSH1 0x1 PUSH1 0x1 PUSH1 0xA0 SHL SUB DUP2 AND ISZERO PUSH2 0xD72 JUMPI PUSH2 0xD46 DUP2 PUSH2 0x421 JUMP JUMPDEST PUSH1 0x1 PUSH1 0x1 PUSH1 0xA0 SHL SUB DUP3 AND PUSH1 0x0 SWAP1 DUP2 MSTORE PUSH1 0x9 PUSH1 0x20 SWAP1 DUP2 MSTORE PUSH1 0x40 DUP1 DUP4 KECCAK256 SWAP4 SWAP1 SWAP4 SSTORE PUSH1 0x5 SLOAD PUSH1 0x8 SWAP1 SWAP2 MSTORE SWAP2 SWAP1 KECCAK256 SSTORE JUMPDEST PUSH1 0x2 DUP3 SWAP1 SSTORE PUSH1 0x40 MLOAD DUP3 DUP2 MSTORE PUSH32 0x8CBFAFC8E0D9C5C81401C4B9C6E7D201198ADC7EB8F8F1556C195ECD4C0A0E7B SWAP1 PUSH1 0x20 ADD PUSH1 0x40 MLOAD DUP1 SWAP2 SUB SWAP1 LOG1 POP POP JUMP JUMPDEST PUSH2 0xDB6 PUSH2 0x1412 JUMP JUMPDEST PUSH1 0xB SLOAD PUSH1 0xFF AND ISZERO PUSH2 0xDDA JUMPI PUSH1 0x40 MLOAD PUSH4 0xAB35696F PUSH1 0xE0 SHL DUP2 MSTORE PUSH1 0x4 ADD PUSH1 0x40 MLOAD DUP1 SWAP2 SUB SWAP1 REVERT JUMPDEST CALLER PUSH2 0xDE3 PUSH2 0xEFB JUMP JUMPDEST PUSH1 0x5 SSTORE PUSH2 0xDEE PUSH2 0xB84 JUMP JUMPDEST PUSH1 0x4 SSTORE PUSH1 0x1 PUSH1 0x1 PUSH1 0xA0 SHL SUB DUP2 AND ISZERO PUSH2 0xE35 JUMPI PUSH2 0xE09 DUP2 PUSH2 0x421 JUMP JUMPDEST PUSH1 0x1 PUSH1 0x1 PUSH1 0xA0 SHL SUB DUP3 AND PUSH1 0x0 SWAP1 DUP2 MSTORE PUSH1 0x9 PUSH1 0x20 SWAP1 DUP2 MSTORE PUSH1 0x40 DUP1 DUP4 KECCAK256 SWAP4 SWAP1 SWAP4 SSTORE PUSH1 0x5 SLOAD PUSH1 0x8 SWAP1 SWAP2 MSTORE SWAP2 SWAP1 KECCAK256 SSTORE JUMPDEST DUP2 PUSH1 0x0 SUB PUSH2 0xE56 JUMPI PUSH1 0x40 MLOAD PUSH4 0x1F2A2005 PUSH1 0xE0 SHL DUP2 MSTORE PUSH1 0x4 ADD PUSH1 0x40 MLOAD DUP1 SWAP2 SUB SWAP1 REVERT JUMPDEST CALLER PUSH1 0x0 SWAP1 DUP2 MSTORE PUSH1 0x7 PUSH1 0x20 MSTORE PUSH1 0x40 DUP2 KECCAK256 DUP1 SLOAD DUP5 SWAP3 SWAP1 PUSH2 0xE75 SWAP1 DUP5 SWAP1 PUSH2 0x176A JUMP JUMPDEST SWAP3 POP POP DUP2 SWAP1 SSTORE POP DUP2 PUSH1 0x6 PUSH1 0x0 DUP3 DUP3 SLOAD PUSH2 0xE8E SWAP2 SWAP1 PUSH2 0x176A JUMP JUMPDEST SWAP1 SWAP2 SSTORE POP PUSH2 0xEC9 SWAP1 POP PUSH1 0x1 PUSH1 0x1 PUSH1 0xA0 SHL SUB PUSH32 0x0 AND CALLER ADDRESS DUP6 PUSH2 0x142E JUMP JUMPDEST PUSH1 0x40 MLOAD DUP3 DUP2 MSTORE CALLER SWAP1 PUSH32 0x9E71BC8EEA02A63969F509818F2DAFB9254532904319F9DBDA79B67BD34A5F3D SWAP1 PUSH1 0x20 ADD PUSH2 0x8B4 JUMP JUMPDEST PUSH1 0x0 PUSH1 0x6 SLOAD PUSH1 0x0 SUB PUSH2 0xF0E JUMPI POP PUSH1 0x5 SLOAD SWAP1 JUMP JUMPDEST PUSH1 0x6 SLOAD PUSH1 0x2 SLOAD PUSH1 0x4 SLOAD PUSH2 0xF1F PUSH2 0xB84 JUMP JUMPDEST PUSH2 0xF29 SWAP2 SWAP1 PUSH2 0x171E JUMP JUMPDEST PUSH2 0xF33 SWAP2 SWAP1 PUSH2 0x1731 JUMP JUMPDEST PUSH2 0xF45 SWAP1 PUSH8 0xDE0B6B3A7640000 PUSH2 0x1731 JUMP JUMPDEST PUSH2 0xF4F SWAP2 SWAP1 PUSH2 0x1748 JUMP JUMPDEST PUSH1 0x5 SLOAD PUSH2 0xB98 SWAP2 SWAP1 PUSH2 0x176A JUMP JUMPDEST PUSH2 0xF64 PUSH2 0x1412 JUMP JUMPDEST CALLER PUSH1 0x0 SWAP1 DUP2 MSTORE PUSH1 0x7 PUSH1 0x20 MSTORE PUSH1 0x40 DUP2 KECCAK256 SLOAD SWAP1 DUP2 SWAP1 SUB PUSH2 0xF95 JUMPI PUSH1 0x40 MLOAD PUSH4 0x1F2A2005 PUSH1 0xE0 SHL DUP2 MSTORE PUSH1 0x4 ADD PUSH1 0x40 MLOAD DUP1 SWAP2 SUB SWAP1 REVERT JUMPDEST CALLER PUSH1 0x0 SWAP1 DUP2 MSTORE PUSH1 0x7 PUSH1 0x20 SWAP1 DUP2 MSTORE PUSH1 0x40 DUP1 DUP4 KECCAK256 DUP4 SWAP1 SSTORE PUSH1 0x9 DUP3 MSTORE DUP1 DUP4 KECCAK256 DUP4 SWAP1 SSTORE PUSH1 0x8 SWAP1 SWAP2 MSTORE DUP2 KECCAK256 DUP2 SWAP1 SSTORE PUSH1 0x6 DUP1 SLOAD DUP4 SWAP3 SWAP1 PUSH2 0xFD0 SWAP1 DUP5 SWAP1 PUSH2 0x171E JUMP JUMPDEST SWAP1 SWAP2 SSTORE POP PUSH2 0x100A SWAP1 POP PUSH1 0x1 PUSH1 0x1 PUSH1 0xA0 SHL SUB PUSH32 0x0 AND CALLER DUP4 PUSH2 0x1497 JUMP JUMPDEST PUSH1 0x40 MLOAD DUP2 DUP2 MSTORE CALLER SWAP1 PUSH32 0x5FAFA99D0643513820BE26656B45130B01E1C03062E1266BF36F88CBD3BD9695 SWAP1 PUSH1 0x20 ADD PUSH1 0x40 MLOAD DUP1 SWAP2 SUB SWAP1 LOG2 POP PUSH2 0xAE9 PUSH1 0x1 PUSH1 0x0 DUP1 MLOAD PUSH1 0x20 PUSH2 0x1797 DUP4 CODECOPY DUP2 MLOAD SWAP2 MSTORE SSTORE JUMP JUMPDEST PUSH2 0x105F PUSH2 0x1412 JUMP JUMPDEST PUSH1 0xB SLOAD PUSH1 0xFF AND ISZERO PUSH2 0x1083 JUMPI PUSH1 0x40 MLOAD PUSH4 0xAB35696F PUSH1 0xE0 SHL DUP2 MSTORE PUSH1 0x4 ADD PUSH1 0x40 MLOAD DUP1 SWAP2 SUB SWAP1 REVERT JUMPDEST CALLER PUSH2 0x108C PUSH2 0xEFB JUMP JUMPDEST PUSH1 0x5 SSTORE PUSH2 0x1097 PUSH2 0xB84 JUMP JUMPDEST PUSH1 0x4 SSTORE PUSH1 0x1 PUSH1 0x1 PUSH1 0xA0 SHL SUB DUP2 AND ISZERO PUSH2 0x10DE JUMPI PUSH2 0x10B2 DUP2 PUSH2 0x421 JUMP JUMPDEST PUSH1 0x1 PUSH1 0x1 PUSH1 0xA0 SHL SUB DUP3 AND PUSH1 0x0 SWAP1 DUP2 MSTORE PUSH1 0x9 PUSH1 0x20 SWAP1 DUP2 MSTORE PUSH1 0x40 DUP1 DUP4 KECCAK256 SWAP4 SWAP1 SWAP4 SSTORE PUSH1 0x5 SLOAD PUSH1 0x8 SWAP1 SWAP2 MSTORE SWAP2 SWAP1 KECCAK256 SSTORE JUMPDEST CALLER PUSH1 0x0 SWAP1 DUP2 MSTORE PUSH1 0x7 PUSH1 0x20 SWAP1 DUP2 MSTORE PUSH1 0x40 DUP1 DUP4 KECCAK256 SLOAD PUSH1 0x9 SWAP1 SWAP3 MSTORE SWAP1 SWAP2 KECCAK256 SLOAD DUP2 ISZERO PUSH2 0x1194 JUMPI CALLER PUSH1 0x0 SWAP1 DUP2 MSTORE PUSH1 0x7 PUSH1 0x20 MSTORE PUSH1 0x40 DUP2 KECCAK256 DUP2 SWAP1 SSTORE PUSH1 0x6 DUP1 SLOAD DUP5 SWAP3 SWAP1 PUSH2 0x1124 SWAP1 DUP5 SWAP1 PUSH2 0x171E JUMP JUMPDEST SWAP1 SWAP2 SSTORE POP PUSH2 0x115E SWAP1 POP PUSH1 0x1 PUSH1 0x1 PUSH1 0xA0 SHL SUB PUSH32 0x0 AND CALLER DUP5 PUSH2 0x1497 JUMP JUMPDEST PUSH1 0x40 MLOAD DUP3 DUP2 MSTORE CALLER SWAP1 PUSH32 0xF5BB82176FEB1B5E747E28471AA92156A04D9F3AB9F45F28E2D704232B93F75 SWAP1 PUSH1 0x20 ADD PUSH1 0x40 MLOAD DUP1 SWAP2 SUB SWAP1 LOG2 JUMPDEST DUP1 ISZERO PUSH2 0x12B9 JUMPI PUSH1 0x6 SLOAD PUSH1 0x40 MLOAD PUSH4 0x70A08231 PUSH1 0xE0 SHL DUP2 MSTORE ADDRESS PUSH1 0x4 DUP3 ADD MSTORE PUSH1 0x0 SWAP2 SWAP1 PUSH1 0x1 PUSH1 0x1 PUSH1 0xA0 SHL SUB PUSH32 0x0 AND SWAP1 PUSH4 0x70A08231 SWAP1 PUSH1 0x24 ADD PUSH1 0x20 PUSH1 0x40 MLOAD DUP1 DUP4 SUB DUP2 DUP7 GAS STATICCALL ISZERO DUP1 ISZERO PUSH2 0x1205 JUMPI RETURNDATASIZE PUSH1 0x0 DUP1 RETURNDATACOPY RETURNDATASIZE PUSH1 0x0 REVERT JUMPDEST POP POP POP POP PUSH1 0x40 MLOAD RETURNDATASIZE PUSH1 0x1F NOT PUSH1 0x1F DUP3 ADD AND DUP3 ADD DUP1 PUSH1 0x40 MSTORE POP DUP2 ADD SWAP1 PUSH2 0x1229 SWAP2 SWAP1 PUSH2 0x177D JUMP JUMPDEST PUSH2 0x1233 SWAP2 SWAP1 PUSH2 0x171E JUMP JUMPDEST SWAP1 POP DUP1 DUP3 GT PUSH2 0x12B7 JUMPI CALLER PUSH1 0x0 DUP2 DUP2 MSTORE PUSH1 0x9 PUSH1 0x20 MSTORE PUSH1 0x40 DUP2 KECCAK256 SSTORE PUSH2 0x1281 SWAP1 PUSH32 0x0 PUSH1 0x1 PUSH1 0x1 PUSH1 0xA0 SHL SUB AND SWAP1 DUP5 PUSH2 0x1497 JUMP JUMPDEST PUSH1 0x40 MLOAD DUP3 DUP2 MSTORE CALLER SWAP1 PUSH32 0xFC30CDDEA38E2BF4D6EA7D3F9ED3B6AD7F176419F4963BD81318067A4AEE73FE SWAP1 PUSH1 0x20 ADD PUSH1 0x40 MLOAD DUP1 SWAP2 SUB SWAP1 LOG2 JUMPDEST POP JUMPDEST POP POP POP PUSH2 0xAE9 PUSH1 0x1 PUSH1 0x0 DUP1 MLOAD PUSH1 0x20 PUSH2 0x1797 DUP4 CODECOPY DUP2 MLOAD SWAP2 MSTORE SSTORE JUMP JUMPDEST PUSH2 0x12DB PUSH2 0x146A JUMP JUMPDEST PUSH1 0x1 PUSH1 0x1 PUSH1 0xA0 SHL SUB DUP2 AND PUSH2 0x1302 JUMPI PUSH1 0x40 MLOAD PUSH4 0xD92E233D PUSH1 0xE0 SHL DUP2 MSTORE PUSH1 0x4 ADD PUSH1 0x40 MLOAD DUP1 SWAP2 SUB SWAP1 REVERT JUMPDEST PUSH1 0x1 SLOAD PUSH1 0x1 PUSH1 0x1 PUSH1 0xA0 SHL SUB AND ISZERO PUSH2 0x1336 JUMPI PUSH1 0x1 SLOAD PUSH1 0x1 PUSH1 0x1 PUSH1 0xA0 SHL SUB AND PUSH1 0x0 SWAP1 DUP2 MSTORE PUSH1 0xA PUSH1 0x20 MSTORE PUSH1 0x40 SWAP1 KECCAK256 DUP1 SLOAD PUSH1 0xFF NOT AND SWAP1 SSTORE JUMPDEST PUSH1 0x1 DUP1 SLOAD PUSH1 0x1 PUSH1 0x1 PUSH1 0xA0 SHL SUB NOT AND PUSH1 0x1 PUSH1 0x1 PUSH1 0xA0 SHL SUB DUP4 AND SWAP1 DUP2 OR DUP3 SSTORE PUSH1 0x0 DUP2 DUP2 MSTORE PUSH1 0xA PUSH1 0x20 MSTORE PUSH1 0x40 DUP1 DUP3 KECCAK256 DUP1 SLOAD PUSH1 0xFF NOT AND SWAP1 SWAP5 OR SWAP1 SWAP4 SSTORE SWAP2 MLOAD SWAP1 SWAP2 PUSH32 0x3C864541EF71378C6229510ED90F376565EE42D9C5E0904A984A9E863E6DB44F SWAP2 LOG2 PUSH1 0x40 MLOAD PUSH1 0x1 DUP2 MSTORE PUSH1 0x1 PUSH1 0x1 PUSH1 0xA0 SHL SUB DUP3 AND SWAP1 PUSH32 0xB33CA1DABFB28A2E1BD06B332C396B1A3D538278691341A5503BBAD53F919197 SWAP1 PUSH1 0x20 ADD PUSH1 0x40 MLOAD DUP1 SWAP2 SUB SWAP1 LOG2 POP JUMP JUMPDEST PUSH2 0x13DF PUSH2 0x146A JUMP JUMPDEST PUSH1 0x1 PUSH1 0x1 PUSH1 0xA0 SHL SUB DUP2 AND PUSH2 0x1409 JUMPI PUSH1 0x40 MLOAD PUSH4 0x1E4FBDF7 PUSH1 0xE0 SHL DUP2 MSTORE PUSH1 0x0 PUSH1 0x4 DUP3 ADD MSTORE PUSH1 0x24 ADD PUSH2 0x80B JUMP JUMPDEST PUSH2 0x8D4 DUP2 PUSH2 0x14D1 JUMP JUMPDEST PUSH2 0x141A PUSH2 0x1521 JUMP JUMPDEST PUSH1 0x2 PUSH1 0x0 DUP1 MLOAD PUSH1 0x20 PUSH2 0x1797 DUP4 CODECOPY DUP2 MLOAD SWAP2 MSTORE SSTORE JUMP JUMPDEST PUSH2 0x143C DUP5 DUP5 DUP5 DUP5 PUSH1 0x1 PUSH2 0x1551 JUMP JUMPDEST PUSH2 0x1464 JUMPI PUSH1 0x40 MLOAD PUSH4 0x5274AFE7 PUSH1 0xE0 SHL DUP2 MSTORE PUSH1 0x1 PUSH1 0x1 PUSH1 0xA0 SHL SUB DUP6 AND PUSH1 0x4 DUP3 ADD MSTORE PUSH1 0x24 ADD PUSH2 0x80B JUMP JUMPDEST POP POP POP POP JUMP JUMPDEST PUSH1 0x0 SLOAD PUSH1 0x1 PUSH1 0x1 PUSH1 0xA0 SHL SUB AND CALLER EQ PUSH2 0xAE9 JUMPI PUSH1 0x40 MLOAD PUSH4 0x118CDAA7 PUSH1 0xE0 SHL DUP2 MSTORE CALLER PUSH1 0x4 DUP3 ADD MSTORE PUSH1 0x24 ADD PUSH2 0x80B JUMP JUMPDEST PUSH2 0x14A4 DUP4 DUP4 DUP4 PUSH1 0x1 PUSH2 0x15C3 JUMP JUMPDEST PUSH2 0x14CC JUMPI PUSH1 0x40 MLOAD PUSH4 0x5274AFE7 PUSH1 0xE0 SHL DUP2 MSTORE PUSH1 0x1 PUSH1 0x1 PUSH1 0xA0 SHL SUB DUP5 AND PUSH1 0x4 DUP3 ADD MSTORE PUSH1 0x24 ADD PUSH2 0x80B JUMP JUMPDEST POP POP POP JUMP JUMPDEST PUSH1 0x0 DUP1 SLOAD PUSH1 0x1 PUSH1 0x1 PUSH1 0xA0 SHL SUB DUP4 DUP2 AND PUSH1 0x1 PUSH1 0x1 PUSH1 0xA0 SHL SUB NOT DUP4 AND DUP2 OR DUP5 SSTORE PUSH1 0x40 MLOAD SWAP2 SWAP1 SWAP3 AND SWAP3 DUP4 SWAP2 PUSH32 0x8BE0079C531659141344CD1FD0A4F28419497F9722A3DAAFE3B4186F6B6457E0 SWAP2 SWAP1 LOG3 POP POP JUMP JUMPDEST PUSH1 0x0 DUP1 MLOAD PUSH1 0x20 PUSH2 0x1797 DUP4 CODECOPY DUP2 MLOAD SWAP2 MSTORE SLOAD PUSH1 0x2 SUB PUSH2 0xAE9 JUMPI PUSH1 0x40 MLOAD PUSH4 0x3EE5AEB5 PUSH1 0xE0 SHL DUP2 MSTORE PUSH1 0x4 ADD PUSH1 0x40 MLOAD DUP1 SWAP2 SUB SWAP1 REVERT JUMPDEST PUSH1 0x40 MLOAD PUSH4 0x23B872DD PUSH1 0xE0 SHL PUSH1 0x0 DUP2 DUP2 MSTORE PUSH1 0x1 PUSH1 0x1 PUSH1 0xA0 SHL SUB DUP8 DUP2 AND PUSH1 0x4 MSTORE DUP7 AND PUSH1 0x24 MSTORE PUSH1 0x44 DUP6 SWAP1 MSTORE SWAP2 PUSH1 0x20 DUP4 PUSH1 0x64 DUP2 DUP1 DUP13 GAS CALL SWAP3 POP PUSH1 0x1 PUSH1 0x0 MLOAD EQ DUP4 AND PUSH2 0x15B1 JUMPI DUP4 DUP4 ISZERO AND ISZERO PUSH2 0x15A4 JUMPI RETURNDATASIZE PUSH1 0x0 DUP3 RETURNDATACOPY RETURNDATASIZE DUP2 REVERT JUMPDEST PUSH1 0x0 DUP9 EXTCODESIZE GT RETURNDATASIZE ISZERO AND DUP4 AND SWAP3 POP JUMPDEST PUSH1 0x40 MSTORE POP PUSH1 0x0 PUSH1 0x60 MSTORE SWAP6 SWAP5 POP POP POP POP POP JUMP JUMPDEST PUSH1 0x40 MLOAD PUSH4 0xA9059CBB PUSH1 0xE0 SHL PUSH1 0x0 DUP2 DUP2 MSTORE PUSH1 0x1 PUSH1 0x1 PUSH1 0xA0 SHL SUB DUP7 AND PUSH1 0x4 MSTORE PUSH1 0x24 DUP6 SWAP1 MSTORE SWAP2 PUSH1 0x20 DUP4 PUSH1 0x44 DUP2 DUP1 DUP12 GAS CALL SWAP3 POP PUSH1 0x1 PUSH1 0x0 MLOAD EQ DUP4 AND PUSH2 0x161D JUMPI DUP4 DUP4 ISZERO AND ISZERO PUSH2 0x1610 JUMPI RETURNDATASIZE PUSH1 0x0 DUP3 RETURNDATACOPY RETURNDATASIZE DUP2 REVERT JUMPDEST PUSH1 0x0 DUP8 EXTCODESIZE GT RETURNDATASIZE ISZERO AND DUP4 AND SWAP3 POP JUMPDEST PUSH1 0x40 MSTORE POP SWAP5 SWAP4 POP POP POP POP JUMP JUMPDEST DUP1 CALLDATALOAD PUSH1 0x1 PUSH1 0x1 PUSH1 0xA0 SHL SUB DUP2 AND DUP2 EQ PUSH2 0x1640 JUMPI PUSH1 0x0 DUP1 REVERT JUMPDEST SWAP2 SWAP1 POP JUMP JUMPDEST PUSH1 0x0 PUSH1 0x20 DUP3 DUP5 SUB SLT ISZERO PUSH2 0x1657 JUMPI PUSH1 0x0 DUP1 REVERT JUMPDEST PUSH2 0x1660 DUP3 PUSH2 0x1629 JUMP JUMPDEST SWAP4 SWAP3 POP POP POP JUMP JUMPDEST PUSH1 0x0 DUP1 PUSH1 0x40 DUP4 DUP6 SUB SLT ISZERO PUSH2 0x167A JUMPI PUSH1 0x0 DUP1 REVERT JUMPDEST POP POP DUP1 CALLDATALOAD SWAP3 PUSH1 0x20 SWAP1 SWAP2 ADD CALLDATALOAD SWAP2 POP JUMP JUMPDEST PUSH1 0x0 DUP1 PUSH1 0x40 DUP4 DUP6 SUB SLT ISZERO PUSH2 0x169C JUMPI PUSH1 0x0 DUP1 REVERT JUMPDEST PUSH2 0x16A5 DUP4 PUSH2 0x1629 JUMP JUMPDEST SWAP2 POP PUSH1 0x20 DUP4 ADD CALLDATALOAD DUP1 ISZERO ISZERO DUP2 EQ PUSH2 0x16BA JUMPI PUSH1 0x0 DUP1 REVERT JUMPDEST DUP1 SWAP2 POP POP SWAP3 POP SWAP3 SWAP1 POP JUMP JUMPDEST PUSH1 0x0 PUSH1 0x20 DUP3 DUP5 SUB SLT ISZERO PUSH2 0x16D7 JUMPI PUSH1 0x0 DUP1 REVERT JUMPDEST POP CALLDATALOAD SWAP2 SWAP1 POP JUMP JUMPDEST PUSH1 0x0 DUP1 PUSH1 0x40 DUP4 DUP6 SUB SLT ISZERO PUSH2 0x16F1 JUMPI PUSH1 0x0 DUP1 REVERT JUMPDEST PUSH2 0x16FA DUP4 PUSH2 0x1629 JUMP JUMPDEST SWAP5 PUSH1 0x20 SWAP4 SWAP1 SWAP4 ADD CALLDATALOAD SWAP4 POP POP POP JUMP JUMPDEST PUSH4 0x4E487B71 PUSH1 0xE0 SHL PUSH1 0x0 MSTORE PUSH1 0x11 PUSH1 0x4 MSTORE PUSH1 0x24 PUSH1 0x0 REVERT JUMPDEST DUP2 DUP2 SUB DUP2 DUP2 GT ISZERO PUSH2 0x498 JUMPI PUSH2 0x498 PUSH2 0x1708 JUMP JUMPDEST DUP1 DUP3 MUL DUP2 ISZERO DUP3 DUP3 DIV DUP5 EQ OR PUSH2 0x498 JUMPI PUSH2 0x498 PUSH2 0x1708 JUMP JUMPDEST PUSH1 0x0 DUP3 PUSH2 0x1765 JUMPI PUSH4 0x4E487B71 PUSH1 0xE0 SHL PUSH1 0x0 MSTORE PUSH1 0x12 PUSH1 0x4 MSTORE PUSH1 0x24 PUSH1 0x0 REVERT JUMPDEST POP DIV SWAP1 JUMP JUMPDEST DUP1 DUP3 ADD DUP1 DUP3 GT ISZERO PUSH2 0x498 JUMPI PUSH2 0x498 PUSH2 0x1708 JUMP JUMPDEST PUSH1 0x0 PUSH1 0x20 DUP3 DUP5 SUB SLT ISZERO PUSH2 0x178F JUMPI PUSH1 0x0 DUP1 REVERT JUMPDEST POP MLOAD SWAP2 SWAP1 POP JUMP INVALID SWAP12 PUSH24 0x9B17422D0DF92223018B32B4D1FA46E071723D6817E2486D STOP EXTCODESIZE 0xEC 0xC5 PUSH0 STOP LOG2 PUSH5 0x6970667358 0x22 SLT KECCAK256 PUSH18 0xD2BE6A732091E16FA54A8201026883C8C5D0 LOG2 0xBA LOG0 PUSH10 0x8AC2D86DC33C4E765D64 PUSH20 0x6F6C634300081800330000000000000000000000 "
				},
				"gasEstimates": {
					"creation": {
						"codeDepositCost": "1224800",
						"executionCost": "infinite",
						"totalCost": "infinite"
					},
					"external": {
						"claimRewards()": "infinite",
						"earned(address)": "infinite",
						"emergencyWithdraw()": "infinite",
						"estimatedAPR()": "infinite",
						"exit()": "infinite",
						"lastTimeRewardApplicable()": "4533",
						"lastUpdateTime()": "2395",
						"notifyRewardAmount(uint256,uint256)": "infinite",
						"owner()": "2376",
						"pause()": "27748",
						"paused()": "2400",
						"pendingRewards(address)": "2598",
						"periodFinish()": "2350",
						"recoverERC20(address,uint256)": "infinite",
						"renounceOwnership()": "infinite",
						"rewardNotifiers(address)": "2598",
						"rewardPerToken()": "infinite",
						"rewardPerTokenStored()": "2395",
						"rewardRatePerSecond()": "2396",
						"setRewardNotifier(address,bool)": "28378",
						"setRewardRate(uint256)": "78382",
						"setTreasury(address)": "82292",
						"stake(uint256)": "infinite",
						"stakedBalance(address)": "2553",
						"timbsToken()": "infinite",
						"totalStaked()": "2330",
						"transferOwnership(address)": "28443",
						"treasury()": "2404",
						"unpause()": "27720",
						"unstake(uint256)": "infinite",
						"userRewardPerTokenPaid(address)": "2620"
					}
				},
				"methodIdentifiers": {
					"claimRewards()": "372500ab",
					"earned(address)": "008cc262",
					"emergencyWithdraw()": "db2e21bc",
					"estimatedAPR()": "5a5cd45e",
					"exit()": "e9fad8ee",
					"lastTimeRewardApplicable()": "80faa57d",
					"lastUpdateTime()": "c8f33c91",
					"notifyRewardAmount(uint256,uint256)": "246132f9",
					"owner()": "8da5cb5b",
					"pause()": "8456cb59",
					"paused()": "5c975abb",
					"pendingRewards(address)": "31d7a262",
					"periodFinish()": "ebe2b12b",
					"recoverERC20(address,uint256)": "8980f11f",
					"renounceOwnership()": "715018a6",
					"rewardNotifiers(address)": "d15166ff",
					"rewardPerToken()": "cd3daf9d",
					"rewardPerTokenStored()": "df136d65",
					"rewardRatePerSecond()": "5d773b2c",
					"setRewardNotifier(address,bool)": "255a4f73",
					"setRewardRate(uint256)": "9e447fc6",
					"setTreasury(address)": "f0f44260",
					"stake(uint256)": "a694fc3a",
					"stakedBalance(address)": "60217267",
					"timbsToken()": "0e31648f",
					"totalStaked()": "817b1cd2",
					"transferOwnership(address)": "f2fde38b",
					"treasury()": "61d027b3",
					"unpause()": "3f4ba83a",
					"unstake(uint256)": "2e17de78",
					"userRewardPerTokenPaid(address)": "8b876347"
				}
			},
			"storageLayout": {
				"storage": [
					{
						"astId": 8,
						"contract": "contracts/TimbStaking.sol:TimbStaking",
						"label": "_owner",
						"offset": 0,
						"slot": "0",
						"type": "t_address"
					},
					{
						"astId": 1071,
						"contract": "contracts/TimbStaking.sol:TimbStaking",
						"label": "treasury",
						"offset": 0,
						"slot": "1",
						"type": "t_address"
					},
					{
						"astId": 1074,
						"contract": "contracts/TimbStaking.sol:TimbStaking",
						"label": "rewardRatePerSecond",
						"offset": 0,
						"slot": "2",
						"type": "t_uint256"
					},
					{
						"astId": 1077,
						"contract": "contracts/TimbStaking.sol:TimbStaking",
						"label": "periodFinish",
						"offset": 0,
						"slot": "3",
						"type": "t_uint256"
					},
					{
						"astId": 1080,
						"contract": "contracts/TimbStaking.sol:TimbStaking",
						"label": "lastUpdateTime",
						"offset": 0,
						"slot": "4",
						"type": "t_uint256"
					},
					{
						"astId": 1083,
						"contract": "contracts/TimbStaking.sol:TimbStaking",
						"label": "rewardPerTokenStored",
						"offset": 0,
						"slot": "5",
						"type": "t_uint256"
					},
					{
						"astId": 1086,
						"contract": "contracts/TimbStaking.sol:TimbStaking",
						"label": "totalStaked",
						"offset": 0,
						"slot": "6",
						"type": "t_uint256"
					},
					{
						"astId": 1091,
						"contract": "contracts/TimbStaking.sol:TimbStaking",
						"label": "stakedBalance",
						"offset": 0,
						"slot": "7",
						"type": "t_mapping(t_address,t_uint256)"
					},
					{
						"astId": 1096,
						"contract": "contracts/TimbStaking.sol:TimbStaking",
						"label": "userRewardPerTokenPaid",
						"offset": 0,
						"slot": "8",
						"type": "t_mapping(t_address,t_uint256)"
					},
					{
						"astId": 1101,
						"contract": "contracts/TimbStaking.sol:TimbStaking",
						"label": "pendingRewards",
						"offset": 0,
						"slot": "9",
						"type": "t_mapping(t_address,t_uint256)"
					},
					{
						"astId": 1106,
						"contract": "contracts/TimbStaking.sol:TimbStaking",
						"label": "rewardNotifiers",
						"offset": 0,
						"slot": "10",
						"type": "t_mapping(t_address,t_bool)"
					},
					{
						"astId": 1109,
						"contract": "contracts/TimbStaking.sol:TimbStaking",
						"label": "paused",
						"offset": 0,
						"slot": "11",
						"type": "t_bool"
					}
				],
				"types": {
					"t_address": {
						"encoding": "inplace",
						"label": "address",
						"numberOfBytes": "20"
					},
					"t_bool": {
						"encoding": "inplace",
						"label": "bool",
						"numberOfBytes": "1"
					},
					"t_mapping(t_address,t_bool)": {
						"encoding": "mapping",
						"key": "t_address",
						"label": "mapping(address => bool)",
						"numberOfBytes": "32",
						"value": "t_bool"
					},
					"t_mapping(t_address,t_uint256)": {
						"encoding": "mapping",
						"key": "t_address",
						"label": "mapping(address => uint256)",
						"numberOfBytes": "32",
						"value": "t_uint256"
					},
					"t_uint256": {
						"encoding": "inplace",
						"label": "uint256",
						"numberOfBytes": "32"
					}
				}
			},
			"userdoc": {
				"kind": "user",
				"methods": {
					"claimRewards()": {
						"notice": "Claim all pending TIMBS rewards."
					},
					"earned(address)": {
						"notice": "Returns total TIMBS earned (pending + unsnapshotted) for `account`."
					},
					"emergencyWithdraw()": {
						"notice": "Emergency withdraw — allows user to recover staked TIMBS         even when paused. Forfeits pending rewards."
					},
					"estimatedAPR()": {
						"notice": "Estimated annual yield for `account` at current rate.         Informational — actual yield depends on total staked changing."
					},
					"exit()": {
						"notice": "Unstake all TIMBS and claim all pending rewards in one tx."
					},
					"lastTimeRewardApplicable()": {
						"notice": "Returns the applicable timestamp for reward accrual.         Caps at periodFinish so rewards stop after the period ends."
					},
					"lastUpdateTime()": {
						"notice": "Last timestamp rewardPerTokenStored was updated."
					},
					"notifyRewardAmount(uint256,uint256)": {
						"notice": "Fund the reward pool and set the distribution period."
					},
					"pause()": {
						"notice": "Emergency pause — halts stake/unstake/claim."
					},
					"paused()": {
						"notice": "Emergency pause flag."
					},
					"pendingRewards(address)": {
						"notice": "Pending (earned but unclaimed) rewards per address."
					},
					"periodFinish()": {
						"notice": "Timestamp when current reward period ends."
					},
					"recoverERC20(address,uint256)": {
						"notice": "Owner can recover ERC20 tokens accidentally sent to this contract."
					},
					"rewardNotifiers(address)": {
						"notice": "Addresses authorised to call notifyRewardAmount()         (owner + treasury)."
					},
					"rewardPerToken()": {
						"notice": "Returns cumulative TIMBS earned per staked TIMBS since deploy."
					},
					"rewardPerTokenStored()": {
						"notice": "Cumulative TIMBS earned per staked TIMBS (18-decimal fixed point)."
					},
					"rewardRatePerSecond()": {
						"notice": "TIMBS rewards distributed per second across all stakers.         Owner-set. Changing mid-period snapshots the current accumulator."
					},
					"setRewardNotifier(address,bool)": {
						"notice": "Add or remove a reward notifier address."
					},
					"setRewardRate(uint256)": {
						"notice": "Update the reward rate directly (owner only)."
					},
					"setTreasury(address)": {
						"notice": "Set TimbTreasury address and authorise it as a reward notifier."
					},
					"stake(uint256)": {
						"notice": "Stake TIMBS to start earning rewards."
					},
					"stakedBalance(address)": {
						"notice": "Staked balance per address."
					},
					"timbsToken()": {
						"notice": "TIMBS token — staked and earned."
					},
					"totalStaked()": {
						"notice": "Total TIMBS currently staked across all users."
					},
					"treasury()": {
						"notice": "TimbTreasury — authorised to call notifyRewardAmount()."
					},
					"unstake(uint256)": {
						"notice": "Reduce or fully withdraw staked TIMBS."
					},
					"userRewardPerTokenPaid(address)": {
						"notice": "Snapshot of rewardPerTokenStored when user last interacted."
					}
				},
				"notice": "Single-asset TIMBS staking pool. Model:   - Stake TIMBS, earn TIMBS distributions.   - Reward source: treasury-seeded allocation + buyback distributions     sent by TimbTreasury after each buyback execution.   - Fixed APR set by owner (changeable anytime).   - Rewards accrue per-second proportional to staker's share.   - No unique stake IDs — single accumulated balance per address.   - Free add/reduce/withdraw anytime — no lock, no penalty. Reward calculation (MasterChef-style rewardPerToken accumulator):   rewardPerTokenStored tracks cumulative TIMBS earned per staked TIMBS.   On every interaction, pending rewards are snapshotted for the user.   This avoids looping over stakers and scales to any number of users. Security (defiSKILL):   - ReentrancyGuard on stake(), unstake(), claimRewards().   - Collateral ownership: all functions verify msg.sender owns the stake     (no delegate staking without explicit approval).   - Flash loan protection: reward accrual uses time-weighted accumulator,     not spot balance — flash staking earns nothing meaningful.   - SafeERC20 on all token transfers.   - Emergency pause on stake/unstake/claim.   - notifyRewardAmount() restricted to owner + treasury (authorised callers). Deployment:   1. Deploy TimbStaking(timbsToken, rewardRatePerSecond)   2. TIMBSToken.setStakingPool(address(this))   3. Fund with initial TIMBS reward allocation from treasury   4. TimbTreasury.setStakingPool(address(this)) for buyback distributions",
				"version": 1
			}
		}
	}
}