{
	"/contracts/EligibleTokenRegistry.sol": {
		"EligibleTokenRegistry": {
			"abi": [
				{
					"inputs": [
						{
							"internalType": "address[]",
							"name": "initialTokens",
							"type": "address[]"
						}
					],
					"stateMutability": "nonpayable",
					"type": "constructor"
				},
				{
					"inputs": [
						{
							"internalType": "address",
							"name": "token",
							"type": "address"
						}
					],
					"name": "AlreadyEligible",
					"type": "error"
				},
				{
					"inputs": [
						{
							"internalType": "address",
							"name": "consumer",
							"type": "address"
						}
					],
					"name": "AlreadyRegistered",
					"type": "error"
				},
				{
					"inputs": [
						{
							"internalType": "address",
							"name": "token",
							"type": "address"
						}
					],
					"name": "NotEligible",
					"type": "error"
				},
				{
					"inputs": [
						{
							"internalType": "address",
							"name": "consumer",
							"type": "address"
						}
					],
					"name": "NotRegistered",
					"type": "error"
				},
				{
					"inputs": [
						{
							"internalType": "address",
							"name": "owner",
							"type": "address"
						}
					],
					"name": "OwnableInvalidOwner",
					"type": "error"
				},
				{
					"inputs": [
						{
							"internalType": "address",
							"name": "account",
							"type": "address"
						}
					],
					"name": "OwnableUnauthorizedAccount",
					"type": "error"
				},
				{
					"inputs": [],
					"name": "ZeroAddress",
					"type": "error"
				},
				{
					"anonymous": false,
					"inputs": [
						{
							"indexed": true,
							"internalType": "address",
							"name": "consumer",
							"type": "address"
						}
					],
					"name": "ConsumerRegistered",
					"type": "event"
				},
				{
					"anonymous": false,
					"inputs": [
						{
							"indexed": true,
							"internalType": "address",
							"name": "consumer",
							"type": "address"
						}
					],
					"name": "ConsumerRemoved",
					"type": "event"
				},
				{
					"anonymous": false,
					"inputs": [
						{
							"indexed": true,
							"internalType": "address",
							"name": "previousOwner",
							"type": "address"
						},
						{
							"indexed": true,
							"internalType": "address",
							"name": "newOwner",
							"type": "address"
						}
					],
					"name": "OwnershipTransferred",
					"type": "event"
				},
				{
					"anonymous": false,
					"inputs": [
						{
							"indexed": true,
							"internalType": "address",
							"name": "token",
							"type": "address"
						}
					],
					"name": "TokenAdded",
					"type": "event"
				},
				{
					"anonymous": false,
					"inputs": [
						{
							"indexed": true,
							"internalType": "address",
							"name": "token",
							"type": "address"
						}
					],
					"name": "TokenRemoved",
					"type": "event"
				},
				{
					"inputs": [
						{
							"internalType": "address",
							"name": "token",
							"type": "address"
						}
					],
					"name": "addToken",
					"outputs": [],
					"stateMutability": "nonpayable",
					"type": "function"
				},
				{
					"inputs": [
						{
							"internalType": "address[]",
							"name": "tokens",
							"type": "address[]"
						}
					],
					"name": "addTokens",
					"outputs": [],
					"stateMutability": "nonpayable",
					"type": "function"
				},
				{
					"inputs": [
						{
							"internalType": "address[]",
							"name": "tokens",
							"type": "address[]"
						}
					],
					"name": "areEligible",
					"outputs": [
						{
							"internalType": "bool[]",
							"name": "results",
							"type": "bool[]"
						}
					],
					"stateMutability": "view",
					"type": "function"
				},
				{
					"inputs": [
						{
							"internalType": "uint256",
							"name": "",
							"type": "uint256"
						}
					],
					"name": "consumerList",
					"outputs": [
						{
							"internalType": "address",
							"name": "",
							"type": "address"
						}
					],
					"stateMutability": "view",
					"type": "function"
				},
				{
					"inputs": [
						{
							"internalType": "uint256",
							"name": "",
							"type": "uint256"
						}
					],
					"name": "eligibleTokenList",
					"outputs": [
						{
							"internalType": "address",
							"name": "",
							"type": "address"
						}
					],
					"stateMutability": "view",
					"type": "function"
				},
				{
					"inputs": [],
					"name": "getConsumers",
					"outputs": [
						{
							"internalType": "address[]",
							"name": "",
							"type": "address[]"
						}
					],
					"stateMutability": "view",
					"type": "function"
				},
				{
					"inputs": [],
					"name": "getEligibleTokens",
					"outputs": [
						{
							"internalType": "address[]",
							"name": "eligible",
							"type": "address[]"
						}
					],
					"stateMutability": "view",
					"type": "function"
				},
				{
					"inputs": [
						{
							"internalType": "address",
							"name": "",
							"type": "address"
						}
					],
					"name": "isEligible",
					"outputs": [
						{
							"internalType": "bool",
							"name": "",
							"type": "bool"
						}
					],
					"stateMutability": "view",
					"type": "function"
				},
				{
					"inputs": [],
					"name": "owner",
					"outputs": [
						{
							"internalType": "address",
							"name": "",
							"type": "address"
						}
					],
					"stateMutability": "view",
					"type": "function"
				},
				{
					"inputs": [
						{
							"internalType": "address",
							"name": "consumer",
							"type": "address"
						}
					],
					"name": "registerConsumer",
					"outputs": [],
					"stateMutability": "nonpayable",
					"type": "function"
				},
				{
					"inputs": [
						{
							"internalType": "address",
							"name": "",
							"type": "address"
						}
					],
					"name": "registeredConsumers",
					"outputs": [
						{
							"internalType": "bool",
							"name": "",
							"type": "bool"
						}
					],
					"stateMutability": "view",
					"type": "function"
				},
				{
					"inputs": [
						{
							"internalType": "address",
							"name": "consumer",
							"type": "address"
						}
					],
					"name": "removeConsumer",
					"outputs": [],
					"stateMutability": "nonpayable",
					"type": "function"
				},
				{
					"inputs": [
						{
							"internalType": "address",
							"name": "token",
							"type": "address"
						}
					],
					"name": "removeToken",
					"outputs": [],
					"stateMutability": "nonpayable",
					"type": "function"
				},
				{
					"inputs": [],
					"name": "renounceOwnership",
					"outputs": [],
					"stateMutability": "nonpayable",
					"type": "function"
				},
				{
					"inputs": [],
					"name": "totalTokensAdded",
					"outputs": [
						{
							"internalType": "uint256",
							"name": "",
							"type": "uint256"
						}
					],
					"stateMutability": "view",
					"type": "function"
				},
				{
					"inputs": [
						{
							"internalType": "address",
							"name": "newOwner",
							"type": "address"
						}
					],
					"name": "transferOwnership",
					"outputs": [],
					"stateMutability": "nonpayable",
					"type": "function"
				}
			],
			"devdoc": {
				"errors": {
					"OwnableInvalidOwner(address)": [
						{
							"details": "The owner is not a valid owner account. (eg. `address(0)`)"
						}
					],
					"OwnableUnauthorizedAccount(address)": [
						{
							"details": "The caller account is not authorized to perform an operation."
						}
					]
				},
				"kind": "dev",
				"methods": {
					"addToken(address)": {
						"params": {
							"token": "ERC-20 token address to add."
						}
					},
					"addTokens(address[])": {
						"params": {
							"tokens": "Array of token addresses."
						}
					},
					"areEligible(address[])": {
						"details": "Useful for frontend to check multiple tokens in one call."
					},
					"constructor": {
						"params": {
							"initialTokens": "Array of token addresses eligible at deploy.                      Typically: [TIMBS, WETH, DAPP]."
						}
					},
					"getEligibleTokens()": {
						"details": "Filters out removed tokens. May be expensive for large lists —      use off-chain indexing for production UIs."
					},
					"owner()": {
						"details": "Returns the address of the current owner."
					},
					"removeToken(address)": {
						"details": "Does not remove from eligibleTokenList array (history preserved).      Sets isEligible[token] = false — takes effect immediately.",
						"params": {
							"token": "Token address to remove."
						}
					},
					"renounceOwnership()": {
						"details": "Leaves the contract without owner. It will not be possible to call `onlyOwner` functions. Can only be called by the current owner. NOTE: Renouncing ownership will leave the contract without an owner, thereby disabling any functionality that is only available to the owner."
					},
					"transferOwnership(address)": {
						"details": "Transfers ownership of the contract to a new account (`newOwner`). Can only be called by the current owner."
					}
				},
				"title": "EligibleTokenRegistry",
				"version": 1
			},
			"evm": {
				"assembly": "    /* \"/contracts/EligibleTokenRegistry.sol\":1477:8211  contract EligibleTokenRegistry is Ownable {... */\n  mstore(0x40, 0x80)\n    /* \"/contracts/EligibleTokenRegistry.sol\":3558:3809  constructor(address[] memory initialTokens) Ownable(msg.sender) {... */\n  callvalue\n  dup1\n  iszero\n  tag_1\n  jumpi\n  0x00\n  dup1\n  revert\ntag_1:\n  pop\n  mload(0x40)\n  sub(codesize, bytecodeSize)\n  dup1\n  bytecodeSize\n  dup4\n  codecopy\n  dup2\n  add\n  0x40\n  dup2\n  swap1\n  mstore\n  tag_2\n  swap2\n  tag_3\n  jump\t// in\ntag_2:\n    /* \"/contracts/EligibleTokenRegistry.sol\":3610:3620  msg.sender */\n  caller\n  dup1\n    /* \"@openzeppelin/contracts/access/Ownable.sol\":1269:1364  if (initialOwner == address(0)) {... */\n  tag_7\n  jumpi\n    /* \"@openzeppelin/contracts/access/Ownable.sol\":1322:1353  OwnableInvalidOwner(address(0)) */\n  mload(0x40)\n  shl(0xe0, 0x1e4fbdf7)\n  dup2\n  mstore\n    /* \"@openzeppelin/contracts/access/Ownable.sol\":1350:1351  0 */\n  0x00\n    /* \"@openzeppelin/contracts/access/Ownable.sol\":1322:1353  OwnableInvalidOwner(address(0)) */\n  0x04\n  dup3\n  add\n    /* \"#utility.yul\":1608:1659   */\n  mstore\n    /* \"#utility.yul\":1581:1599   */\n  0x24\n  add\n    /* \"@openzeppelin/contracts/access/Ownable.sol\":1322:1353  OwnableInvalidOwner(address(0)) */\n  mload(0x40)\n  dup1\n  swap2\n  sub\n  swap1\n  revert\n    /* \"@openzeppelin/contracts/access/Ownable.sol\":1269:1364  if (initialOwner == address(0)) {... */\ntag_7:\n    /* \"@openzeppelin/contracts/access/Ownable.sol\":1373:1405  _transferOwnership(initialOwner) */\n  tag_10\n    /* \"@openzeppelin/contracts/access/Ownable.sol\":1392:1404  initialOwner */\n  dup2\n    /* \"@openzeppelin/contracts/access/Ownable.sol\":1373:1391  _transferOwnership */\n  tag_11\n    /* \"@openzeppelin/contracts/access/Ownable.sol\":1373:1405  _transferOwnership(initialOwner) */\n  jump\t// in\ntag_10:\n    /* \"@openzeppelin/contracts/access/Ownable.sol\":1225:1412  constructor(address initialOwner) {... */\n  pop\n    /* \"/contracts/EligibleTokenRegistry.sol\":3637:3646  uint256 i */\n  0x00\n    /* \"/contracts/EligibleTokenRegistry.sol\":3632:3803  for (uint256 i = 0; i < initialTokens.length; i++) {... */\ntag_13:\n    /* \"/contracts/EligibleTokenRegistry.sol\":3656:3669  initialTokens */\n  dup2\n    /* \"/contracts/EligibleTokenRegistry.sol\":3656:3676  initialTokens.length */\n  mload\n    /* \"/contracts/EligibleTokenRegistry.sol\":3652:3653  i */\n  dup2\n    /* \"/contracts/EligibleTokenRegistry.sol\":3652:3676  i < initialTokens.length */\n  lt\n    /* \"/contracts/EligibleTokenRegistry.sol\":3632:3803  for (uint256 i = 0; i < initialTokens.length; i++) {... */\n  iszero\n  tag_14\n  jumpi\n    /* \"/contracts/EligibleTokenRegistry.sol\":3729:3730  0 */\n  0x00\n  sub(shl(0xa0, 0x01), 0x01)\n    /* \"/contracts/EligibleTokenRegistry.sol\":3701:3731  initialTokens[i] != address(0) */\n  and\n    /* \"/contracts/EligibleTokenRegistry.sol\":3701:3714  initialTokens */\n  dup3\n    /* \"/contracts/EligibleTokenRegistry.sol\":3715:3716  i */\n  dup3\n    /* \"/contracts/EligibleTokenRegistry.sol\":3701:3717  initialTokens[i] */\n  dup2\n  mload\n  dup2\n  lt\n  tag_17\n  jumpi\n  tag_17\n  tag_18\n  jump\t// in\ntag_17:\n  0x20\n  mul\n  0x20\n  add\n  add\n  mload\n  sub(shl(0xa0, 0x01), 0x01)\n    /* \"/contracts/EligibleTokenRegistry.sol\":3701:3731  initialTokens[i] != address(0) */\n  and\n  eq\n    /* \"/contracts/EligibleTokenRegistry.sol\":3697:3793  if (initialTokens[i] != address(0)) {... */\n  tag_20\n  jumpi\n    /* \"/contracts/EligibleTokenRegistry.sol\":3751:3778  _addToken(initialTokens[i]) */\n  tag_20\n    /* \"/contracts/EligibleTokenRegistry.sol\":3761:3774  initialTokens */\n  dup3\n    /* \"/contracts/EligibleTokenRegistry.sol\":3775:3776  i */\n  dup3\n    /* \"/contracts/EligibleTokenRegistry.sol\":3761:3777  initialTokens[i] */\n  dup2\n  mload\n  dup2\n  lt\n  tag_22\n  jumpi\n  tag_22\n  tag_18\n  jump\t// in\ntag_22:\n  0x20\n  mul\n  0x20\n  add\n  add\n  mload\n    /* \"/contracts/EligibleTokenRegistry.sol\":3751:3760  _addToken */\n  shl(0x20, tag_23)\n    /* \"/contracts/EligibleTokenRegistry.sol\":3751:3778  _addToken(initialTokens[i]) */\n  0x20\n  shr\n  jump\t// in\ntag_20:\n    /* \"/contracts/EligibleTokenRegistry.sol\":3678:3681  i++ */\n  dup1\n  tag_24\n  dup2\n  tag_25\n  jump\t// in\ntag_24:\n  swap2\n  pop\n  pop\n    /* \"/contracts/EligibleTokenRegistry.sol\":3632:3803  for (uint256 i = 0; i < initialTokens.length; i++) {... */\n  jump(tag_13)\ntag_14:\n  pop\n    /* \"/contracts/EligibleTokenRegistry.sol\":3558:3809  constructor(address[] memory initialTokens) Ownable(msg.sender) {... */\n  pop\n    /* \"/contracts/EligibleTokenRegistry.sol\":1477:8211  contract EligibleTokenRegistry is Ownable {... */\n  jump(tag_32)\n    /* \"@openzeppelin/contracts/access/Ownable.sol\":2912:3099  function _transferOwnership(address newOwner) internal virtual {... */\ntag_11:\n    /* \"@openzeppelin/contracts/access/Ownable.sol\":2985:3001  address oldOwner */\n  0x00\n    /* \"@openzeppelin/contracts/access/Ownable.sol\":3004:3010  _owner */\n  dup1\n  sload\n  sub(shl(0xa0, 0x01), 0x01)\n    /* \"@openzeppelin/contracts/access/Ownable.sol\":3020:3037  _owner = newOwner */\n  dup4\n  dup2\n  and\n  not(sub(shl(0xa0, 0x01), 0x01))\n  dup4\n  and\n  dup2\n  or\n  dup5\n  sstore\n    /* \"@openzeppelin/contracts/access/Ownable.sol\":3052:3092  OwnershipTransferred(oldOwner, newOwner) */\n  mload(0x40)\n    /* \"@openzeppelin/contracts/access/Ownable.sol\":3004:3010  _owner */\n  swap2\n  swap1\n  swap3\n  and\n  swap3\n  dup4\n  swap2\n    /* \"@openzeppelin/contracts/access/Ownable.sol\":3052:3092  OwnershipTransferred(oldOwner, newOwner) */\n  0x8be0079c531659141344cd1fd0a4f28419497f9722a3daafe3b4186f6b6457e0\n  swap2\n    /* \"@openzeppelin/contracts/access/Ownable.sol\":2985:3001  address oldOwner */\n  swap1\n    /* \"@openzeppelin/contracts/access/Ownable.sol\":3052:3092  OwnershipTransferred(oldOwner, newOwner) */\n  log3\n    /* \"@openzeppelin/contracts/access/Ownable.sol\":2975:3099  {... */\n  pop\n    /* \"@openzeppelin/contracts/access/Ownable.sol\":2912:3099  function _transferOwnership(address newOwner) internal virtual {... */\n  pop\n  jump\t// out\n    /* \"/contracts/EligibleTokenRegistry.sol\":5248:5403  function _addToken(address token) internal {... */\ntag_23:\n  sub(shl(0xa0, 0x01), 0x01)\n    /* \"/contracts/EligibleTokenRegistry.sol\":5301:5318  isEligible[token] */\n  dup2\n  and\n  0x00\n  dup2\n  dup2\n  mstore\n    /* \"/contracts/EligibleTokenRegistry.sol\":5321:5325  true */\n  0x01\n    /* \"/contracts/EligibleTokenRegistry.sol\":5301:5318  isEligible[token] */\n  0x20\n  dup2\n  swap1\n  mstore\n  0x40\n  dup1\n  dup4\n  keccak256\n    /* \"/contracts/EligibleTokenRegistry.sol\":5301:5325  isEligible[token] = true */\n  dup1\n  sload\n  not(0xff)\n  and\n  dup4\n  or\n  swap1\n  sstore\n    /* \"/contracts/EligibleTokenRegistry.sol\":5335:5352  eligibleTokenList */\n  0x02\n    /* \"/contracts/EligibleTokenRegistry.sol\":5335:5364  eligibleTokenList.push(token) */\n  dup1\n  sload\n  swap3\n  dup4\n  add\n  dup2\n  sstore\n  dup4\n  mstore\n  0x405787fa12a823e0f2b7631cc41b3ba8828b3321ca811111fa75cd3aa3bb5ace\n  swap1\n  swap2\n  add\n  dup1\n  sload\n  not(sub(shl(0xa0, 0x01), 0x01))\n  and\n  dup5\n  or\n  swap1\n  sstore\n    /* \"/contracts/EligibleTokenRegistry.sol\":5379:5396  TokenAdded(token) */\n  mload\n  0x784c8f4dbf0ffedd6e72c76501c545a70f8b203b30a26ce542bf92ba87c248a4\n  swap2\n    /* \"/contracts/EligibleTokenRegistry.sol\":5301:5318  isEligible[token] */\n  swap1\n    /* \"/contracts/EligibleTokenRegistry.sol\":5379:5396  TokenAdded(token) */\n  log2\n    /* \"/contracts/EligibleTokenRegistry.sol\":5248:5403  function _addToken(address token) internal {... */\n  pop\n  jump\t// out\n    /* \"#utility.yul\":14:141   */\ntag_30:\n    /* \"#utility.yul\":75:85   */\n  0x4e487b71\n    /* \"#utility.yul\":70:73   */\n  0xe0\n    /* \"#utility.yul\":66:86   */\n  shl\n    /* \"#utility.yul\":63:64   */\n  0x00\n    /* \"#utility.yul\":56:87   */\n  mstore\n    /* \"#utility.yul\":106:110   */\n  0x41\n    /* \"#utility.yul\":103:104   */\n  0x04\n    /* \"#utility.yul\":96:111   */\n  mstore\n    /* \"#utility.yul\":130:134   */\n  0x24\n    /* \"#utility.yul\":127:128   */\n  0x00\n    /* \"#utility.yul\":120:135   */\n  revert\n    /* \"#utility.yul\":146:323   */\ntag_31:\n    /* \"#utility.yul\":225:238   */\n  dup1\n  mload\n  sub(shl(0xa0, 0x01), 0x01)\n    /* \"#utility.yul\":267:298   */\n  dup2\n  and\n    /* \"#utility.yul\":257:299   */\n  dup2\n  eq\n    /* \"#utility.yul\":247:317   */\n  tag_35\n  jumpi\n    /* \"#utility.yul\":313:314   */\n  0x00\n    /* \"#utility.yul\":310:311   */\n  dup1\n    /* \"#utility.yul\":303:315   */\n  revert\n    /* \"#utility.yul\":247:317   */\ntag_35:\n    /* \"#utility.yul\":146:323   */\n  swap2\n  swap1\n  pop\n  jump\t// out\n    /* \"#utility.yul\":328:1457   */\ntag_3:\n    /* \"#utility.yul\":423:429   */\n  0x00\n    /* \"#utility.yul\":454:456   */\n  0x20\n    /* \"#utility.yul\":497:499   */\n  dup1\n    /* \"#utility.yul\":485:494   */\n  dup4\n    /* \"#utility.yul\":476:483   */\n  dup6\n    /* \"#utility.yul\":472:495   */\n  sub\n    /* \"#utility.yul\":468:500   */\n  slt\n    /* \"#utility.yul\":465:517   */\n  iszero\n  tag_37\n  jumpi\n    /* \"#utility.yul\":513:514   */\n  0x00\n    /* \"#utility.yul\":510:511   */\n  dup1\n    /* \"#utility.yul\":503:515   */\n  revert\n    /* \"#utility.yul\":465:517   */\ntag_37:\n    /* \"#utility.yul\":540:556   */\n  dup3\n  mload\n  sub(shl(0x40, 0x01), 0x01)\n    /* \"#utility.yul\":605:619   */\n  dup1\n  dup3\n  gt\n    /* \"#utility.yul\":602:636   */\n  iszero\n  tag_38\n  jumpi\n    /* \"#utility.yul\":632:633   */\n  0x00\n    /* \"#utility.yul\":629:630   */\n  dup1\n    /* \"#utility.yul\":622:634   */\n  revert\n    /* \"#utility.yul\":602:636   */\ntag_38:\n    /* \"#utility.yul\":670:676   */\n  dup2\n    /* \"#utility.yul\":659:668   */\n  dup6\n    /* \"#utility.yul\":655:677   */\n  add\n    /* \"#utility.yul\":645:677   */\n  swap2\n  pop\n    /* \"#utility.yul\":715:722   */\n  dup6\n    /* \"#utility.yul\":708:712   */\n  0x1f\n    /* \"#utility.yul\":704:706   */\n  dup4\n    /* \"#utility.yul\":700:713   */\n  add\n    /* \"#utility.yul\":696:723   */\n  slt\n    /* \"#utility.yul\":686:741   */\n  tag_39\n  jumpi\n    /* \"#utility.yul\":737:738   */\n  0x00\n    /* \"#utility.yul\":734:735   */\n  dup1\n    /* \"#utility.yul\":727:739   */\n  revert\n    /* \"#utility.yul\":686:741   */\ntag_39:\n    /* \"#utility.yul\":766:768   */\n  dup2\n    /* \"#utility.yul\":760:769   */\n  mload\n    /* \"#utility.yul\":788:790   */\n  dup2\n    /* \"#utility.yul\":784:786   */\n  dup2\n    /* \"#utility.yul\":781:791   */\n  gt\n    /* \"#utility.yul\":778:814   */\n  iszero\n  tag_41\n  jumpi\n    /* \"#utility.yul\":794:812   */\n  tag_41\n  tag_30\n  jump\t// in\ntag_41:\n    /* \"#utility.yul\":840:842   */\n  dup1\n    /* \"#utility.yul\":837:838   */\n  0x05\n    /* \"#utility.yul\":833:843   */\n  shl\n    /* \"#utility.yul\":872:874   */\n  0x40\n    /* \"#utility.yul\":866:875   */\n  mload\n    /* \"#utility.yul\":935:937   */\n  0x1f\n    /* \"#utility.yul\":931:938   */\n  not\n    /* \"#utility.yul\":926:928   */\n  0x3f\n    /* \"#utility.yul\":922:924   */\n  dup4\n    /* \"#utility.yul\":918:929   */\n  add\n    /* \"#utility.yul\":914:939   */\n  and\n    /* \"#utility.yul\":906:912   */\n  dup2\n    /* \"#utility.yul\":902:940   */\n  add\n    /* \"#utility.yul\":990:996   */\n  dup2\n    /* \"#utility.yul\":978:988   */\n  dup2\n    /* \"#utility.yul\":975:997   */\n  lt\n    /* \"#utility.yul\":970:972   */\n  dup6\n    /* \"#utility.yul\":958:968   */\n  dup3\n    /* \"#utility.yul\":955:973   */\n  gt\n    /* \"#utility.yul\":952:998   */\n  or\n    /* \"#utility.yul\":949:1021   */\n  iszero\n  tag_43\n  jumpi\n    /* \"#utility.yul\":1001:1019   */\n  tag_43\n  tag_30\n  jump\t// in\ntag_43:\n    /* \"#utility.yul\":1037:1039   */\n  0x40\n    /* \"#utility.yul\":1030:1052   */\n  mstore\n    /* \"#utility.yul\":1087:1105   */\n  swap2\n  dup3\n  mstore\n    /* \"#utility.yul\":1121:1136   */\n  dup5\n  dup3\n  add\n  swap3\n  pop\n    /* \"#utility.yul\":1163:1174   */\n  dup4\n  dup2\n  add\n    /* \"#utility.yul\":1159:1179   */\n  dup6\n  add\n  swap2\n    /* \"#utility.yul\":1191:1210   */\n  dup9\n  dup4\n  gt\n    /* \"#utility.yul\":1188:1227   */\n  iszero\n  tag_44\n  jumpi\n    /* \"#utility.yul\":1223:1224   */\n  0x00\n    /* \"#utility.yul\":1220:1221   */\n  dup1\n    /* \"#utility.yul\":1213:1225   */\n  revert\n    /* \"#utility.yul\":1188:1227   */\ntag_44:\n    /* \"#utility.yul\":1247:1258   */\n  swap4\n  dup6\n  add\n  swap4\n    /* \"#utility.yul\":1267:1426   */\ntag_45:\n    /* \"#utility.yul\":1283:1289   */\n  dup3\n    /* \"#utility.yul\":1278:1281   */\n  dup6\n    /* \"#utility.yul\":1275:1290   */\n  lt\n    /* \"#utility.yul\":1267:1426   */\n  iszero\n  tag_47\n  jumpi\n    /* \"#utility.yul\":1349:1383   */\n  tag_48\n    /* \"#utility.yul\":1379:1382   */\n  dup6\n    /* \"#utility.yul\":1349:1383   */\n  tag_31\n  jump\t// in\ntag_48:\n    /* \"#utility.yul\":1337:1384   */\n  dup5\n  mstore\n    /* \"#utility.yul\":1300:1312   */\n  swap4\n  dup6\n  add\n  swap4\n    /* \"#utility.yul\":1404:1416   */\n  swap3\n  dup6\n  add\n  swap3\n    /* \"#utility.yul\":1267:1426   */\n  jump(tag_45)\ntag_47:\n    /* \"#utility.yul\":1445:1451   */\n  swap9\n    /* \"#utility.yul\":328:1457   */\n  swap8\n  pop\n  pop\n  pop\n  pop\n  pop\n  pop\n  pop\n  pop\n  jump\t// out\n    /* \"#utility.yul\":1670:1797   */\ntag_18:\n    /* \"#utility.yul\":1731:1741   */\n  0x4e487b71\n    /* \"#utility.yul\":1726:1729   */\n  0xe0\n    /* \"#utility.yul\":1722:1742   */\n  shl\n    /* \"#utility.yul\":1719:1720   */\n  0x00\n    /* \"#utility.yul\":1712:1743   */\n  mstore\n    /* \"#utility.yul\":1762:1766   */\n  0x32\n    /* \"#utility.yul\":1759:1760   */\n  0x04\n    /* \"#utility.yul\":1752:1767   */\n  mstore\n    /* \"#utility.yul\":1786:1790   */\n  0x24\n    /* \"#utility.yul\":1783:1784   */\n  0x00\n    /* \"#utility.yul\":1776:1791   */\n  revert\n    /* \"#utility.yul\":1802:2034   */\ntag_25:\n    /* \"#utility.yul\":1841:1844   */\n  0x00\n    /* \"#utility.yul\":1862:1879   */\n  0x01\n  dup3\n  add\n    /* \"#utility.yul\":1859:1999   */\n  tag_52\n  jumpi\n    /* \"#utility.yul\":1921:1931   */\n  0x4e487b71\n    /* \"#utility.yul\":1916:1919   */\n  0xe0\n    /* \"#utility.yul\":1912:1932   */\n  shl\n    /* \"#utility.yul\":1909:1910   */\n  0x00\n    /* \"#utility.yul\":1902:1933   */\n  mstore\n    /* \"#utility.yul\":1956:1960   */\n  0x11\n    /* \"#utility.yul\":1953:1954   */\n  0x04\n    /* \"#utility.yul\":1946:1961   */\n  mstore\n    /* \"#utility.yul\":1984:1988   */\n  0x24\n    /* \"#utility.yul\":1981:1982   */\n  0x00\n    /* \"#utility.yul\":1974:1989   */\n  revert\n    /* \"#utility.yul\":1859:1999   */\ntag_52:\n  pop\n    /* \"#utility.yul\":2026:2027   */\n  0x01\n    /* \"#utility.yul\":2015:2028   */\n  add\n  swap1\n    /* \"#utility.yul\":1802:2034   */\n  jump\t// out\ntag_32:\n    /* \"/contracts/EligibleTokenRegistry.sol\":1477:8211  contract EligibleTokenRegistry is Ownable {... */\n  dataSize(sub_0)\n  dup1\n  dataOffset(sub_0)\n  0x00\n  codecopy\n  0x00\n  return\nstop\n\nsub_0: assembly {\n        /* \"/contracts/EligibleTokenRegistry.sol\":1477:8211  contract EligibleTokenRegistry is Ownable {... */\n      mstore(0x40, 0x80)\n      callvalue\n      dup1\n      iszero\n      tag_1\n      jumpi\n      0x00\n      dup1\n      revert\n    tag_1:\n      pop\n      jumpi(tag_2, lt(calldatasize, 0x04))\n      shr(0xe0, calldataload(0x00))\n      dup1\n      0x66e305fd\n      gt\n      tag_19\n      jumpi\n      dup1\n      0x8da5cb5b\n      gt\n      tag_20\n      jumpi\n      dup1\n      0x8da5cb5b\n      eq\n      tag_15\n      jumpi\n      dup1\n      0x9b7ecf22\n      eq\n      tag_16\n      jumpi\n      dup1\n      0xd48bfca7\n      eq\n      tag_17\n      jumpi\n      dup1\n      0xf2fde38b\n      eq\n      tag_18\n      jumpi\n      0x00\n      dup1\n      revert\n    tag_20:\n      dup1\n      0x66e305fd\n      eq\n      tag_11\n      jumpi\n      dup1\n      0x715018a6\n      eq\n      tag_12\n      jumpi\n      dup1\n      0x748cdcdc\n      eq\n      tag_13\n      jumpi\n      dup1\n      0x74d0c73f\n      eq\n      tag_14\n      jumpi\n      0x00\n      dup1\n      revert\n    tag_19:\n      dup1\n      0x44b22fdd\n      gt\n      tag_21\n      jumpi\n      dup1\n      0x44b22fdd\n      eq\n      tag_7\n      jumpi\n      dup1\n      0x4ae05c7d\n      eq\n      tag_8\n      jumpi\n      dup1\n      0x5914220d\n      eq\n      tag_9\n      jumpi\n      dup1\n      0x5fa7b584\n      eq\n      tag_10\n      jumpi\n      0x00\n      dup1\n      revert\n    tag_21:\n      dup1\n      0x0e27e3df\n      eq\n      tag_3\n      jumpi\n      dup1\n      0x15baa8c0\n      eq\n      tag_4\n      jumpi\n      dup1\n      0x1efe4b0c\n      eq\n      tag_5\n      jumpi\n      dup1\n      0x3b729b86\n      eq\n      tag_6\n      jumpi\n    tag_2:\n      0x00\n      dup1\n      revert\n        /* \"/contracts/EligibleTokenRegistry.sol\":6159:6390  function removeConsumer(address consumer) external onlyOwner {... */\n    tag_3:\n      tag_22\n      tag_23\n      calldatasize\n      0x04\n      tag_24\n      jump\t// in\n    tag_23:\n      tag_25\n      jump\t// in\n    tag_22:\n      stop\n        /* \"/contracts/EligibleTokenRegistry.sol\":2349:2378  address[] public consumerList */\n    tag_4:\n      tag_26\n      tag_27\n      calldatasize\n      0x04\n      tag_28\n      jump\t// in\n    tag_27:\n      tag_29\n      jump\t// in\n    tag_26:\n      mload(0x40)\n      sub(shl(0xa0, 0x01), 0x01)\n        /* \"#utility.yul\":654:686   */\n      swap1\n      swap2\n      and\n        /* \"#utility.yul\":636:687   */\n      dup2\n      mstore\n        /* \"#utility.yul\":624:626   */\n      0x20\n        /* \"#utility.yul\":609:627   */\n      add\n        /* \"/contracts/EligibleTokenRegistry.sol\":2349:2378  address[] public consumerList */\n    tag_30:\n      mload(0x40)\n      dup1\n      swap2\n      sub\n      swap1\n      return\n        /* \"/contracts/EligibleTokenRegistry.sol\":2292:2343  mapping(address => bool) public registeredConsumers */\n    tag_5:\n      tag_32\n      tag_33\n      calldatasize\n      0x04\n      tag_24\n      jump\t// in\n    tag_33:\n      mstore(0x20, 0x03)\n      0x00\n      swap1\n      dup2\n      mstore\n      0x40\n      swap1\n      keccak256\n      sload\n      0xff\n      and\n      dup2\n      jump\n    tag_32:\n      mload(0x40)\n        /* \"#utility.yul\":863:877   */\n      swap1\n      iszero\n        /* \"#utility.yul\":856:878   */\n      iszero\n        /* \"#utility.yul\":838:879   */\n      dup2\n      mstore\n        /* \"#utility.yul\":826:828   */\n      0x20\n        /* \"#utility.yul\":811:829   */\n      add\n        /* \"/contracts/EligibleTokenRegistry.sol\":2292:2343  mapping(address => bool) public registeredConsumers */\n      tag_30\n        /* \"#utility.yul\":698:885   */\n      jump\n        /* \"/contracts/EligibleTokenRegistry.sol\":7652:7753  function getConsumers() external view returns (address[] memory) {... */\n    tag_6:\n      tag_37\n      tag_38\n      jump\t// in\n    tag_37:\n      mload(0x40)\n      tag_30\n      swap2\n      swap1\n      tag_40\n      jump\t// in\n        /* \"/contracts/EligibleTokenRegistry.sol\":5745:6085  function registerConsumer(address consumer) external onlyOwner {... */\n    tag_7:\n      tag_22\n      tag_42\n      calldatasize\n      0x04\n      tag_24\n      jump\t// in\n    tag_42:\n      tag_43\n      jump\t// in\n        /* \"/contracts/EligibleTokenRegistry.sol\":4431:4724  function addTokens(address[] calldata tokens) external onlyOwner {... */\n    tag_8:\n      tag_22\n      tag_45\n      calldatasize\n      0x04\n      tag_46\n      jump\t// in\n    tag_45:\n      tag_47\n      jump\t// in\n        /* \"/contracts/EligibleTokenRegistry.sol\":2032:2066  address[] public eligibleTokenList */\n    tag_9:\n      tag_26\n      tag_49\n      calldatasize\n      0x04\n      tag_28\n      jump\t// in\n    tag_49:\n      tag_50\n      jump\t// in\n        /* \"/contracts/EligibleTokenRegistry.sol\":4996:5242  function removeToken(address token) external onlyOwner {... */\n    tag_10:\n      tag_22\n      tag_53\n      calldatasize\n      0x04\n      tag_24\n      jump\t// in\n    tag_53:\n      tag_54\n      jump\t// in\n        /* \"/contracts/EligibleTokenRegistry.sol\":1803:1845  mapping(address => bool) public isEligible */\n    tag_11:\n      tag_32\n      tag_56\n      calldatasize\n      0x04\n      tag_24\n      jump\t// in\n    tag_56:\n      mstore(0x20, 0x01)\n      0x00\n      swap1\n      dup2\n      mstore\n      0x40\n      swap1\n      keccak256\n      sload\n      0xff\n      and\n      dup2\n      jump\n        /* \"@openzeppelin/contracts/access/Ownable.sol\":2293:2394  function renounceOwnership() public virtual onlyOwner {... */\n    tag_12:\n      tag_22\n      tag_60\n      jump\t// in\n        /* \"/contracts/EligibleTokenRegistry.sol\":6826:7364  function getEligibleTokens()... */\n    tag_13:\n      tag_37\n      tag_62\n      jump\t// in\n        /* \"/contracts/EligibleTokenRegistry.sol\":7464:7572  function totalTokensAdded() external view returns (uint256) {... */\n    tag_14:\n        /* \"/contracts/EligibleTokenRegistry.sol\":7541:7558  eligibleTokenList */\n      0x02\n        /* \"/contracts/EligibleTokenRegistry.sol\":7541:7565  eligibleTokenList.length */\n      sload\n        /* \"/contracts/EligibleTokenRegistry.sol\":7464:7572  function totalTokensAdded() external view returns (uint256) {... */\n      mload(0x40)\n        /* \"#utility.yul\":2319:2344   */\n      swap1\n      dup2\n      mstore\n        /* \"#utility.yul\":2307:2309   */\n      0x20\n        /* \"#utility.yul\":2292:2310   */\n      add\n        /* \"/contracts/EligibleTokenRegistry.sol\":7464:7572  function totalTokensAdded() external view returns (uint256) {... */\n      tag_30\n        /* \"#utility.yul\":2173:2350   */\n      jump\n        /* \"@openzeppelin/contracts/access/Ownable.sol\":1638:1723  function owner() public view virtual returns (address) {... */\n    tag_15:\n        /* \"@openzeppelin/contracts/access/Ownable.sol\":1684:1691  address */\n      0x00\n        /* \"@openzeppelin/contracts/access/Ownable.sol\":1710:1716  _owner */\n      sload\n      sub(shl(0xa0, 0x01), 0x01)\n      and\n        /* \"@openzeppelin/contracts/access/Ownable.sol\":1638:1723  function owner() public view virtual returns (address) {... */\n      jump(tag_26)\n        /* \"/contracts/EligibleTokenRegistry.sol\":7923:8209  function areEligible(address[] calldata tokens)... */\n    tag_16:\n      tag_71\n      tag_72\n      calldatasize\n      0x04\n      tag_46\n      jump\t// in\n    tag_72:\n      tag_73\n      jump\t// in\n    tag_71:\n      mload(0x40)\n      tag_30\n      swap2\n      swap1\n      tag_75\n      jump\t// in\n        /* \"/contracts/EligibleTokenRegistry.sol\":4110:4314  function addToken(address token) external onlyOwner {... */\n    tag_17:\n      tag_22\n      tag_77\n      calldatasize\n      0x04\n      tag_24\n      jump\t// in\n    tag_77:\n      tag_78\n      jump\t// in\n        /* \"@openzeppelin/contracts/access/Ownable.sol\":2543:2758  function transferOwnership(address newOwner) public virtual onlyOwner {... */\n    tag_18:\n      tag_22\n      tag_80\n      calldatasize\n      0x04\n      tag_24\n      jump\t// in\n    tag_80:\n      tag_81\n      jump\t// in\n        /* \"/contracts/EligibleTokenRegistry.sol\":6159:6390  function removeConsumer(address consumer) external onlyOwner {... */\n    tag_25:\n        /* \"@openzeppelin/contracts/access/Ownable.sol\":1531:1544  _checkOwner() */\n      tag_83\n        /* \"@openzeppelin/contracts/access/Ownable.sol\":1531:1542  _checkOwner */\n      tag_84\n        /* \"@openzeppelin/contracts/access/Ownable.sol\":1531:1544  _checkOwner() */\n      jump\t// in\n    tag_83:\n      sub(shl(0xa0, 0x01), 0x01)\n        /* \"/contracts/EligibleTokenRegistry.sol\":6235:6264  registeredConsumers[consumer] */\n      dup2\n      and\n      0x00\n      swap1\n      dup2\n      mstore\n        /* \"/contracts/EligibleTokenRegistry.sol\":6235:6254  registeredConsumers */\n      0x03\n        /* \"/contracts/EligibleTokenRegistry.sol\":6235:6264  registeredConsumers[consumer] */\n      0x20\n      mstore\n      0x40\n      swap1\n      keccak256\n      sload\n      0xff\n      and\n        /* \"/contracts/EligibleTokenRegistry.sol\":6230:6296  if (!registeredConsumers[consumer]) revert NotRegistered(consumer) */\n      tag_86\n      jumpi\n        /* \"/contracts/EligibleTokenRegistry.sol\":6273:6296  NotRegistered(consumer) */\n      mload(0x40)\n      shl(0xe0, 0xbfc6c337)\n      dup2\n      mstore\n      sub(shl(0xa0, 0x01), 0x01)\n        /* \"#utility.yul\":654:686   */\n      dup3\n      and\n        /* \"/contracts/EligibleTokenRegistry.sol\":6273:6296  NotRegistered(consumer) */\n      0x04\n      dup3\n      add\n        /* \"#utility.yul\":636:687   */\n      mstore\n        /* \"#utility.yul\":609:627   */\n      0x24\n      add\n        /* \"/contracts/EligibleTokenRegistry.sol\":6273:6296  NotRegistered(consumer) */\n    tag_87:\n      mload(0x40)\n      dup1\n      swap2\n      sub\n      swap1\n      revert\n        /* \"/contracts/EligibleTokenRegistry.sol\":6230:6296  if (!registeredConsumers[consumer]) revert NotRegistered(consumer) */\n    tag_86:\n      sub(shl(0xa0, 0x01), 0x01)\n        /* \"/contracts/EligibleTokenRegistry.sol\":6306:6335  registeredConsumers[consumer] */\n      dup2\n      and\n        /* \"/contracts/EligibleTokenRegistry.sol\":6338:6343  false */\n      0x00\n        /* \"/contracts/EligibleTokenRegistry.sol\":6306:6335  registeredConsumers[consumer] */\n      dup2\n      dup2\n      mstore\n        /* \"/contracts/EligibleTokenRegistry.sol\":6306:6325  registeredConsumers */\n      0x03\n        /* \"/contracts/EligibleTokenRegistry.sol\":6306:6335  registeredConsumers[consumer] */\n      0x20\n      mstore\n      0x40\n      dup1\n      dup3\n      keccak256\n        /* \"/contracts/EligibleTokenRegistry.sol\":6306:6343  registeredConsumers[consumer] = false */\n      dup1\n      sload\n      not(0xff)\n      and\n      swap1\n      sstore\n        /* \"/contracts/EligibleTokenRegistry.sol\":6358:6383  ConsumerRemoved(consumer) */\n      mload\n      0xe3f5ed5f263f1f01764a96edfc7d025f511ec5f7d180e8816908b78bcf74f098\n      swap2\n        /* \"/contracts/EligibleTokenRegistry.sol\":6338:6343  false */\n      swap1\n        /* \"/contracts/EligibleTokenRegistry.sol\":6358:6383  ConsumerRemoved(consumer) */\n      log2\n        /* \"/contracts/EligibleTokenRegistry.sol\":6159:6390  function removeConsumer(address consumer) external onlyOwner {... */\n      pop\n      jump\t// out\n        /* \"/contracts/EligibleTokenRegistry.sol\":2349:2378  address[] public consumerList */\n    tag_29:\n      0x04\n      dup2\n      dup2\n      sload\n      dup2\n      lt\n      tag_88\n      jumpi\n      0x00\n      dup1\n      revert\n    tag_88:\n      0x00\n      swap2\n      dup3\n      mstore\n      0x20\n      swap1\n      swap2\n      keccak256\n      add\n      sload\n      sub(shl(0xa0, 0x01), 0x01)\n      and\n      swap1\n      pop\n      dup2\n      jump\t// out\n        /* \"/contracts/EligibleTokenRegistry.sol\":7652:7753  function getConsumers() external view returns (address[] memory) {... */\n    tag_38:\n        /* \"/contracts/EligibleTokenRegistry.sol\":7699:7715  address[] memory */\n      0x60\n        /* \"/contracts/EligibleTokenRegistry.sol\":7734:7746  consumerList */\n      0x04\n        /* \"/contracts/EligibleTokenRegistry.sol\":7727:7746  return consumerList */\n      dup1\n      sload\n      dup1\n      0x20\n      mul\n      0x20\n      add\n      mload(0x40)\n      swap1\n      dup2\n      add\n      0x40\n      mstore\n      dup1\n      swap3\n      swap2\n      swap1\n      dup2\n      dup2\n      mstore\n      0x20\n      add\n      dup3\n      dup1\n      sload\n      dup1\n      iszero\n      tag_91\n      jumpi\n      0x20\n      mul\n      dup3\n      add\n      swap2\n      swap1\n      0x00\n      mstore\n      keccak256(0x00, 0x20)\n      swap1\n    tag_92:\n      dup2\n      sload\n      sub(shl(0xa0, 0x01), 0x01)\n      and\n      dup2\n      mstore\n      0x01\n      swap1\n      swap2\n      add\n      swap1\n      0x20\n      add\n      dup1\n      dup4\n      gt\n      tag_92\n      jumpi\n    tag_91:\n      pop\n      pop\n      pop\n      pop\n      pop\n      swap1\n      pop\n        /* \"/contracts/EligibleTokenRegistry.sol\":7652:7753  function getConsumers() external view returns (address[] memory) {... */\n      swap1\n      jump\t// out\n        /* \"/contracts/EligibleTokenRegistry.sol\":5745:6085  function registerConsumer(address consumer) external onlyOwner {... */\n    tag_43:\n        /* \"@openzeppelin/contracts/access/Ownable.sol\":1531:1544  _checkOwner() */\n      tag_94\n        /* \"@openzeppelin/contracts/access/Ownable.sol\":1531:1542  _checkOwner */\n      tag_84\n        /* \"@openzeppelin/contracts/access/Ownable.sol\":1531:1544  _checkOwner() */\n      jump\t// in\n    tag_94:\n      sub(shl(0xa0, 0x01), 0x01)\n        /* \"/contracts/EligibleTokenRegistry.sol\":5822:5844  consumer == address(0) */\n      dup2\n      and\n        /* \"/contracts/EligibleTokenRegistry.sol\":5818:5873  if (consumer == address(0))        revert ZeroAddress() */\n      tag_96\n      jumpi\n        /* \"/contracts/EligibleTokenRegistry.sol\":5860:5873  ZeroAddress() */\n      mload(0x40)\n      shl(0xe0, 0xd92e233d)\n      dup2\n      mstore\n      0x04\n      add\n      mload(0x40)\n      dup1\n      swap2\n      sub\n      swap1\n      revert\n        /* \"/contracts/EligibleTokenRegistry.sol\":5818:5873  if (consumer == address(0))        revert ZeroAddress() */\n    tag_96:\n      sub(shl(0xa0, 0x01), 0x01)\n        /* \"/contracts/EligibleTokenRegistry.sol\":5887:5916  registeredConsumers[consumer] */\n      dup2\n      and\n      0x00\n      swap1\n      dup2\n      mstore\n        /* \"/contracts/EligibleTokenRegistry.sol\":5887:5906  registeredConsumers */\n      0x03\n        /* \"/contracts/EligibleTokenRegistry.sol\":5887:5916  registeredConsumers[consumer] */\n      0x20\n      mstore\n      0x40\n      swap1\n      keccak256\n      sload\n      0xff\n      and\n        /* \"/contracts/EligibleTokenRegistry.sol\":5883:5952  if (registeredConsumers[consumer]) revert AlreadyRegistered(consumer) */\n      iszero\n      tag_97\n      jumpi\n        /* \"/contracts/EligibleTokenRegistry.sol\":5925:5952  AlreadyRegistered(consumer) */\n      mload(0x40)\n      shl(0xe0, 0x45ed80e9)\n      dup2\n      mstore\n      sub(shl(0xa0, 0x01), 0x01)\n        /* \"#utility.yul\":654:686   */\n      dup3\n      and\n        /* \"/contracts/EligibleTokenRegistry.sol\":5925:5952  AlreadyRegistered(consumer) */\n      0x04\n      dup3\n      add\n        /* \"#utility.yul\":636:687   */\n      mstore\n        /* \"#utility.yul\":609:627   */\n      0x24\n      add\n        /* \"/contracts/EligibleTokenRegistry.sol\":5925:5952  AlreadyRegistered(consumer) */\n      tag_87\n        /* \"#utility.yul\":490:693   */\n      jump\n        /* \"/contracts/EligibleTokenRegistry.sol\":5883:5952  if (registeredConsumers[consumer]) revert AlreadyRegistered(consumer) */\n    tag_97:\n      sub(shl(0xa0, 0x01), 0x01)\n        /* \"/contracts/EligibleTokenRegistry.sol\":5962:5991  registeredConsumers[consumer] */\n      dup2\n      and\n      0x00\n      dup2\n      dup2\n      mstore\n        /* \"/contracts/EligibleTokenRegistry.sol\":5962:5981  registeredConsumers */\n      0x03\n        /* \"/contracts/EligibleTokenRegistry.sol\":5962:5991  registeredConsumers[consumer] */\n      0x20\n      mstore\n      0x40\n      dup1\n      dup3\n      keccak256\n        /* \"/contracts/EligibleTokenRegistry.sol\":5962:5998  registeredConsumers[consumer] = true */\n      dup1\n      sload\n      not(0xff)\n      and\n        /* \"/contracts/EligibleTokenRegistry.sol\":5994:5998  true */\n      0x01\n        /* \"/contracts/EligibleTokenRegistry.sol\":5962:5998  registeredConsumers[consumer] = true */\n      swap1\n      dup2\n      or\n      swap1\n      swap2\n      sstore\n        /* \"/contracts/EligibleTokenRegistry.sol\":6008:6020  consumerList */\n      0x04\n        /* \"/contracts/EligibleTokenRegistry.sol\":6008:6035  consumerList.push(consumer) */\n      dup1\n      sload\n      swap2\n      dup3\n      add\n      dup2\n      sstore\n      dup4\n      mstore\n      0x8a35acfbc15ff81a39ae7d344fd709f28e8600b4aa8c65c6b64bfe7fe36bd19b\n      add\n      dup1\n      sload\n      not(sub(shl(0xa0, 0x01), 0x01))\n      and\n      dup5\n      or\n      swap1\n      sstore\n        /* \"/contracts/EligibleTokenRegistry.sol\":6050:6078  ConsumerRegistered(consumer) */\n      mload\n      0x20f06cf92183fb3bd87d074ec788beb83367293faf2388c274b4bad9aecae725\n      swap2\n        /* \"/contracts/EligibleTokenRegistry.sol\":5962:5991  registeredConsumers[consumer] */\n      swap1\n        /* \"/contracts/EligibleTokenRegistry.sol\":6050:6078  ConsumerRegistered(consumer) */\n      log2\n        /* \"/contracts/EligibleTokenRegistry.sol\":5745:6085  function registerConsumer(address consumer) external onlyOwner {... */\n      pop\n      jump\t// out\n        /* \"/contracts/EligibleTokenRegistry.sol\":4431:4724  function addTokens(address[] calldata tokens) external onlyOwner {... */\n    tag_47:\n        /* \"@openzeppelin/contracts/access/Ownable.sol\":1531:1544  _checkOwner() */\n      tag_101\n        /* \"@openzeppelin/contracts/access/Ownable.sol\":1531:1542  _checkOwner */\n      tag_84\n        /* \"@openzeppelin/contracts/access/Ownable.sol\":1531:1544  _checkOwner() */\n      jump\t// in\n    tag_101:\n        /* \"/contracts/EligibleTokenRegistry.sol\":4511:4520  uint256 i */\n      0x00\n        /* \"/contracts/EligibleTokenRegistry.sol\":4506:4718  for (uint256 i = 0; i < tokens.length; i++) {... */\n    tag_103:\n        /* \"/contracts/EligibleTokenRegistry.sol\":4526:4543  i < tokens.length */\n      dup2\n      dup2\n      lt\n        /* \"/contracts/EligibleTokenRegistry.sol\":4506:4718  for (uint256 i = 0; i < tokens.length; i++) {... */\n      iszero\n      tag_104\n      jumpi\n        /* \"/contracts/EligibleTokenRegistry.sol\":4589:4590  0 */\n      0x00\n        /* \"/contracts/EligibleTokenRegistry.sol\":4568:4574  tokens */\n      dup4\n      dup4\n        /* \"/contracts/EligibleTokenRegistry.sol\":4575:4576  i */\n      dup4\n        /* \"/contracts/EligibleTokenRegistry.sol\":4568:4577  tokens[i] */\n      dup2\n      dup2\n      lt\n      tag_107\n      jumpi\n      tag_107\n      tag_108\n      jump\t// in\n    tag_107:\n      swap1\n      pop\n      0x20\n      mul\n      add\n      0x20\n      dup2\n      add\n      swap1\n      tag_109\n      swap2\n      swap1\n      tag_24\n      jump\t// in\n    tag_109:\n      sub(shl(0xa0, 0x01), 0x01)\n        /* \"/contracts/EligibleTokenRegistry.sol\":4568:4591  tokens[i] == address(0) */\n      and\n      sub\n        /* \"/contracts/EligibleTokenRegistry.sol\":4564:4613  if (tokens[i] == address(0)) revert ZeroAddress() */\n      tag_110\n      jumpi\n        /* \"/contracts/EligibleTokenRegistry.sol\":4600:4613  ZeroAddress() */\n      mload(0x40)\n      shl(0xe0, 0xd92e233d)\n      dup2\n      mstore\n      0x04\n      add\n      mload(0x40)\n      dup1\n      swap2\n      sub\n      swap1\n      revert\n        /* \"/contracts/EligibleTokenRegistry.sol\":4564:4613  if (tokens[i] == address(0)) revert ZeroAddress() */\n    tag_110:\n        /* \"/contracts/EligibleTokenRegistry.sol\":4632:4642  isEligible */\n      0x01\n        /* \"/contracts/EligibleTokenRegistry.sol\":4632:4653  isEligible[tokens[i]] */\n      0x00\n        /* \"/contracts/EligibleTokenRegistry.sol\":4643:4649  tokens */\n      dup5\n      dup5\n        /* \"/contracts/EligibleTokenRegistry.sol\":4650:4651  i */\n      dup5\n        /* \"/contracts/EligibleTokenRegistry.sol\":4643:4652  tokens[i] */\n      dup2\n      dup2\n      lt\n      tag_112\n      jumpi\n      tag_112\n      tag_108\n      jump\t// in\n    tag_112:\n      swap1\n      pop\n      0x20\n      mul\n      add\n      0x20\n      dup2\n      add\n      swap1\n      tag_113\n      swap2\n      swap1\n      tag_24\n      jump\t// in\n    tag_113:\n      sub(shl(0xa0, 0x01), 0x01)\n        /* \"/contracts/EligibleTokenRegistry.sol\":4632:4653  isEligible[tokens[i]] */\n      and\n      dup2\n      mstore\n      0x20\n      dup2\n      add\n      swap2\n      swap1\n      swap2\n      mstore\n      0x40\n      add\n      0x00\n      keccak256\n      sload\n      0xff\n      and\n        /* \"/contracts/EligibleTokenRegistry.sol\":4627:4708  if (!isEligible[tokens[i]]) {... */\n      tag_115\n      jumpi\n        /* \"/contracts/EligibleTokenRegistry.sol\":4673:4693  _addToken(tokens[i]) */\n      tag_115\n        /* \"/contracts/EligibleTokenRegistry.sol\":4683:4689  tokens */\n      dup4\n      dup4\n        /* \"/contracts/EligibleTokenRegistry.sol\":4690:4691  i */\n      dup4\n        /* \"/contracts/EligibleTokenRegistry.sol\":4683:4692  tokens[i] */\n      dup2\n      dup2\n      lt\n      tag_117\n      jumpi\n      tag_117\n      tag_108\n      jump\t// in\n    tag_117:\n      swap1\n      pop\n      0x20\n      mul\n      add\n      0x20\n      dup2\n      add\n      swap1\n      tag_118\n      swap2\n      swap1\n      tag_24\n      jump\t// in\n    tag_118:\n        /* \"/contracts/EligibleTokenRegistry.sol\":4673:4682  _addToken */\n      tag_119\n        /* \"/contracts/EligibleTokenRegistry.sol\":4673:4693  _addToken(tokens[i]) */\n      jump\t// in\n    tag_115:\n        /* \"/contracts/EligibleTokenRegistry.sol\":4545:4548  i++ */\n      dup1\n      tag_120\n      dup2\n      tag_121\n      jump\t// in\n    tag_120:\n      swap2\n      pop\n      pop\n        /* \"/contracts/EligibleTokenRegistry.sol\":4506:4718  for (uint256 i = 0; i < tokens.length; i++) {... */\n      jump(tag_103)\n    tag_104:\n      pop\n        /* \"/contracts/EligibleTokenRegistry.sol\":4431:4724  function addTokens(address[] calldata tokens) external onlyOwner {... */\n      pop\n      pop\n      jump\t// out\n        /* \"/contracts/EligibleTokenRegistry.sol\":2032:2066  address[] public eligibleTokenList */\n    tag_50:\n      0x02\n      dup2\n      dup2\n      sload\n      dup2\n      lt\n      tag_88\n      jumpi\n      0x00\n      dup1\n      revert\n        /* \"/contracts/EligibleTokenRegistry.sol\":4996:5242  function removeToken(address token) external onlyOwner {... */\n    tag_54:\n        /* \"@openzeppelin/contracts/access/Ownable.sol\":1531:1544  _checkOwner() */\n      tag_125\n        /* \"@openzeppelin/contracts/access/Ownable.sol\":1531:1542  _checkOwner */\n      tag_84\n        /* \"@openzeppelin/contracts/access/Ownable.sol\":1531:1544  _checkOwner() */\n      jump\t// in\n    tag_125:\n      sub(shl(0xa0, 0x01), 0x01)\n        /* \"/contracts/EligibleTokenRegistry.sol\":5065:5084  token == address(0) */\n      dup2\n      and\n        /* \"/contracts/EligibleTokenRegistry.sol\":5061:5106  if (token == address(0)) revert ZeroAddress() */\n      tag_127\n      jumpi\n        /* \"/contracts/EligibleTokenRegistry.sol\":5093:5106  ZeroAddress() */\n      mload(0x40)\n      shl(0xe0, 0xd92e233d)\n      dup2\n      mstore\n      0x04\n      add\n      mload(0x40)\n      dup1\n      swap2\n      sub\n      swap1\n      revert\n        /* \"/contracts/EligibleTokenRegistry.sol\":5061:5106  if (token == address(0)) revert ZeroAddress() */\n    tag_127:\n      sub(shl(0xa0, 0x01), 0x01)\n        /* \"/contracts/EligibleTokenRegistry.sol\":5121:5138  isEligible[token] */\n      dup2\n      and\n      0x00\n      swap1\n      dup2\n      mstore\n        /* \"/contracts/EligibleTokenRegistry.sol\":5121:5131  isEligible */\n      0x01\n        /* \"/contracts/EligibleTokenRegistry.sol\":5121:5138  isEligible[token] */\n      0x20\n      mstore\n      0x40\n      swap1\n      keccak256\n      sload\n      0xff\n      and\n        /* \"/contracts/EligibleTokenRegistry.sol\":5116:5166  if (!isEligible[token])  revert NotEligible(token) */\n      tag_128\n      jumpi\n        /* \"/contracts/EligibleTokenRegistry.sol\":5148:5166  NotEligible(token) */\n      mload(0x40)\n      shl(0xe0, 0x3a1c1545)\n      dup2\n      mstore\n      sub(shl(0xa0, 0x01), 0x01)\n        /* \"#utility.yul\":654:686   */\n      dup3\n      and\n        /* \"/contracts/EligibleTokenRegistry.sol\":5148:5166  NotEligible(token) */\n      0x04\n      dup3\n      add\n        /* \"#utility.yul\":636:687   */\n      mstore\n        /* \"#utility.yul\":609:627   */\n      0x24\n      add\n        /* \"/contracts/EligibleTokenRegistry.sol\":5148:5166  NotEligible(token) */\n      tag_87\n        /* \"#utility.yul\":490:693   */\n      jump\n        /* \"/contracts/EligibleTokenRegistry.sol\":5116:5166  if (!isEligible[token])  revert NotEligible(token) */\n    tag_128:\n      sub(shl(0xa0, 0x01), 0x01)\n        /* \"/contracts/EligibleTokenRegistry.sol\":5176:5193  isEligible[token] */\n      dup2\n      and\n        /* \"/contracts/EligibleTokenRegistry.sol\":5196:5201  false */\n      0x00\n        /* \"/contracts/EligibleTokenRegistry.sol\":5176:5193  isEligible[token] */\n      dup2\n      dup2\n      mstore\n        /* \"/contracts/EligibleTokenRegistry.sol\":5176:5186  isEligible */\n      0x01\n        /* \"/contracts/EligibleTokenRegistry.sol\":5176:5193  isEligible[token] */\n      0x20\n      mstore\n      0x40\n      dup1\n      dup3\n      keccak256\n        /* \"/contracts/EligibleTokenRegistry.sol\":5176:5201  isEligible[token] = false */\n      dup1\n      sload\n      not(0xff)\n      and\n      swap1\n      sstore\n        /* \"/contracts/EligibleTokenRegistry.sol\":5216:5235  TokenRemoved(token) */\n      mload\n      0x4c910b69fe65a61f7531b9c5042b2329ca7179c77290aa7e2eb3afa3c8511fd3\n      swap2\n        /* \"/contracts/EligibleTokenRegistry.sol\":5196:5201  false */\n      swap1\n        /* \"/contracts/EligibleTokenRegistry.sol\":5216:5235  TokenRemoved(token) */\n      log2\n        /* \"/contracts/EligibleTokenRegistry.sol\":4996:5242  function removeToken(address token) external onlyOwner {... */\n      pop\n      jump\t// out\n        /* \"@openzeppelin/contracts/access/Ownable.sol\":2293:2394  function renounceOwnership() public virtual onlyOwner {... */\n    tag_60:\n        /* \"@openzeppelin/contracts/access/Ownable.sol\":1531:1544  _checkOwner() */\n      tag_131\n        /* \"@openzeppelin/contracts/access/Ownable.sol\":1531:1542  _checkOwner */\n      tag_84\n        /* \"@openzeppelin/contracts/access/Ownable.sol\":1531:1544  _checkOwner() */\n      jump\t// in\n    tag_131:\n        /* \"@openzeppelin/contracts/access/Ownable.sol\":2357:2387  _transferOwnership(address(0)) */\n      tag_133\n        /* \"@openzeppelin/contracts/access/Ownable.sol\":2384:2385  0 */\n      0x00\n        /* \"@openzeppelin/contracts/access/Ownable.sol\":2357:2375  _transferOwnership */\n      tag_134\n        /* \"@openzeppelin/contracts/access/Ownable.sol\":2357:2387  _transferOwnership(address(0)) */\n      jump\t// in\n    tag_133:\n        /* \"@openzeppelin/contracts/access/Ownable.sol\":2293:2394  function renounceOwnership() public virtual onlyOwner {... */\n      jump\t// out\n        /* \"/contracts/EligibleTokenRegistry.sol\":6826:7364  function getEligibleTokens()... */\n    tag_62:\n        /* \"/contracts/EligibleTokenRegistry.sol\":6902:6927  address[] memory eligible */\n      0x60\n        /* \"/contracts/EligibleTokenRegistry.sol\":6943:6956  uint256 count */\n      0x00\n        /* \"/contracts/EligibleTokenRegistry.sol\":6975:6984  uint256 i */\n      dup1\n        /* \"/contracts/EligibleTokenRegistry.sol\":6970:7095  for (uint256 i = 0; i < eligibleTokenList.length; i++) {... */\n    tag_136:\n        /* \"/contracts/EligibleTokenRegistry.sol\":6994:7011  eligibleTokenList */\n      0x02\n        /* \"/contracts/EligibleTokenRegistry.sol\":6994:7018  eligibleTokenList.length */\n      sload\n        /* \"/contracts/EligibleTokenRegistry.sol\":6990:7018  i < eligibleTokenList.length */\n      dup2\n      lt\n        /* \"/contracts/EligibleTokenRegistry.sol\":6970:7095  for (uint256 i = 0; i < eligibleTokenList.length; i++) {... */\n      iszero\n      tag_137\n      jumpi\n        /* \"/contracts/EligibleTokenRegistry.sol\":7043:7053  isEligible */\n      0x01\n        /* \"/contracts/EligibleTokenRegistry.sol\":7043:7075  isEligible[eligibleTokenList[i]] */\n      0x00\n        /* \"/contracts/EligibleTokenRegistry.sol\":7054:7071  eligibleTokenList */\n      0x02\n        /* \"/contracts/EligibleTokenRegistry.sol\":7072:7073  i */\n      dup4\n        /* \"/contracts/EligibleTokenRegistry.sol\":7054:7074  eligibleTokenList[i] */\n      dup2\n      sload\n      dup2\n      lt\n      tag_140\n      jumpi\n      tag_140\n      tag_108\n      jump\t// in\n    tag_140:\n      0x00\n      swap2\n      dup3\n      mstore\n      0x20\n      dup1\n      dup4\n      keccak256\n      swap1\n      swap2\n      add\n      sload\n      sub(shl(0xa0, 0x01), 0x01)\n      and\n        /* \"/contracts/EligibleTokenRegistry.sol\":7043:7075  isEligible[eligibleTokenList[i]] */\n      dup4\n      mstore\n      dup3\n      add\n      swap3\n      swap1\n      swap3\n      mstore\n      0x40\n      add\n      swap1\n      keccak256\n      sload\n      0xff\n      and\n        /* \"/contracts/EligibleTokenRegistry.sol\":7039:7084  if (isEligible[eligibleTokenList[i]]) count++ */\n      iszero\n      tag_142\n      jumpi\n        /* \"/contracts/EligibleTokenRegistry.sol\":7077:7084  count++ */\n      dup2\n      tag_143\n      dup2\n      tag_121\n      jump\t// in\n    tag_143:\n      swap3\n      pop\n      pop\n        /* \"/contracts/EligibleTokenRegistry.sol\":7039:7084  if (isEligible[eligibleTokenList[i]]) count++ */\n    tag_142:\n        /* \"/contracts/EligibleTokenRegistry.sol\":7020:7023  i++ */\n      dup1\n      tag_144\n      dup2\n      tag_121\n      jump\t// in\n    tag_144:\n      swap2\n      pop\n      pop\n        /* \"/contracts/EligibleTokenRegistry.sol\":6970:7095  for (uint256 i = 0; i < eligibleTokenList.length; i++) {... */\n      jump(tag_136)\n    tag_137:\n      pop\n        /* \"/contracts/EligibleTokenRegistry.sol\":7129:7134  count */\n      dup1\n        /* \"/contracts/EligibleTokenRegistry.sol\":7115:7135  new address[](count) */\n      0xffffffffffffffff\n      dup2\n      gt\n      iszero\n      tag_146\n      jumpi\n      tag_146\n      tag_147\n      jump\t// in\n    tag_146:\n      mload(0x40)\n      swap1\n      dup1\n      dup3\n      mstore\n      dup1\n      0x20\n      mul\n      0x20\n      add\n      dup3\n      add\n      0x40\n      mstore\n      dup1\n      iszero\n      tag_148\n      jumpi\n      dup2\n      0x20\n      add\n      0x20\n      dup3\n      mul\n      dup1\n      calldatasize\n      dup4\n      calldatacopy\n      add\n      swap1\n      pop\n    tag_148:\n      pop\n        /* \"/contracts/EligibleTokenRegistry.sol\":7104:7135  eligible = new address[](count) */\n      swap2\n      pop\n        /* \"/contracts/EligibleTokenRegistry.sol\":7145:7156  uint256 idx */\n      0x00\n        /* \"/contracts/EligibleTokenRegistry.sol\":7175:7184  uint256 i */\n      dup1\n        /* \"/contracts/EligibleTokenRegistry.sol\":7170:7358  for (uint256 i = 0; i < eligibleTokenList.length; i++) {... */\n    tag_149:\n        /* \"/contracts/EligibleTokenRegistry.sol\":7194:7211  eligibleTokenList */\n      0x02\n        /* \"/contracts/EligibleTokenRegistry.sol\":7194:7218  eligibleTokenList.length */\n      sload\n        /* \"/contracts/EligibleTokenRegistry.sol\":7190:7218  i < eligibleTokenList.length */\n      dup2\n      lt\n        /* \"/contracts/EligibleTokenRegistry.sol\":7170:7358  for (uint256 i = 0; i < eligibleTokenList.length; i++) {... */\n      iszero\n      tag_150\n      jumpi\n        /* \"/contracts/EligibleTokenRegistry.sol\":7243:7253  isEligible */\n      0x01\n        /* \"/contracts/EligibleTokenRegistry.sol\":7243:7275  isEligible[eligibleTokenList[i]] */\n      0x00\n        /* \"/contracts/EligibleTokenRegistry.sol\":7254:7271  eligibleTokenList */\n      0x02\n        /* \"/contracts/EligibleTokenRegistry.sol\":7272:7273  i */\n      dup4\n        /* \"/contracts/EligibleTokenRegistry.sol\":7254:7274  eligibleTokenList[i] */\n      dup2\n      sload\n      dup2\n      lt\n      tag_153\n      jumpi\n      tag_153\n      tag_108\n      jump\t// in\n    tag_153:\n      0x00\n      swap2\n      dup3\n      mstore\n      0x20\n      dup1\n      dup4\n      keccak256\n      swap1\n      swap2\n      add\n      sload\n      sub(shl(0xa0, 0x01), 0x01)\n      and\n        /* \"/contracts/EligibleTokenRegistry.sol\":7243:7275  isEligible[eligibleTokenList[i]] */\n      dup4\n      mstore\n      dup3\n      add\n      swap3\n      swap1\n      swap3\n      mstore\n      0x40\n      add\n      swap1\n      keccak256\n      sload\n      0xff\n      and\n        /* \"/contracts/EligibleTokenRegistry.sol\":7239:7348  if (isEligible[eligibleTokenList[i]]) {... */\n      iszero\n      tag_155\n      jumpi\n        /* \"/contracts/EligibleTokenRegistry.sol\":7313:7330  eligibleTokenList */\n      0x02\n        /* \"/contracts/EligibleTokenRegistry.sol\":7331:7332  i */\n      dup2\n        /* \"/contracts/EligibleTokenRegistry.sol\":7313:7333  eligibleTokenList[i] */\n      dup2\n      sload\n      dup2\n      lt\n      tag_157\n      jumpi\n      tag_157\n      tag_108\n      jump\t// in\n    tag_157:\n      0x00\n      swap2\n      dup3\n      mstore\n      0x20\n      swap1\n      swap2\n      keccak256\n      add\n      sload\n      sub(shl(0xa0, 0x01), 0x01)\n      and\n        /* \"/contracts/EligibleTokenRegistry.sol\":7295:7303  eligible */\n      dup5\n        /* \"/contracts/EligibleTokenRegistry.sol\":7304:7309  idx++ */\n      dup4\n      tag_159\n      dup2\n      tag_121\n      jump\t// in\n    tag_159:\n      swap5\n      pop\n        /* \"/contracts/EligibleTokenRegistry.sol\":7295:7310  eligible[idx++] */\n      dup2\n      mload\n      dup2\n      lt\n      tag_161\n      jumpi\n      tag_161\n      tag_108\n      jump\t// in\n    tag_161:\n      0x20\n      mul\n      0x20\n      add\n      add\n        /* \"/contracts/EligibleTokenRegistry.sol\":7295:7333  eligible[idx++] = eligibleTokenList[i] */\n      swap1\n      sub(shl(0xa0, 0x01), 0x01)\n      and\n      swap1\n      dup2\n      sub(shl(0xa0, 0x01), 0x01)\n      and\n      dup2\n      mstore\n      pop\n      pop\n        /* \"/contracts/EligibleTokenRegistry.sol\":7239:7348  if (isEligible[eligibleTokenList[i]]) {... */\n    tag_155:\n        /* \"/contracts/EligibleTokenRegistry.sol\":7220:7223  i++ */\n      dup1\n      tag_162\n      dup2\n      tag_121\n      jump\t// in\n    tag_162:\n      swap2\n      pop\n      pop\n        /* \"/contracts/EligibleTokenRegistry.sol\":7170:7358  for (uint256 i = 0; i < eligibleTokenList.length; i++) {... */\n      jump(tag_149)\n    tag_150:\n      pop\n        /* \"/contracts/EligibleTokenRegistry.sol\":6933:7364  {... */\n      pop\n      pop\n        /* \"/contracts/EligibleTokenRegistry.sol\":6826:7364  function getEligibleTokens()... */\n      swap1\n      jump\t// out\n        /* \"/contracts/EligibleTokenRegistry.sol\":7923:8209  function areEligible(address[] calldata tokens)... */\n    tag_73:\n        /* \"/contracts/EligibleTokenRegistry.sol\":8018:8039  bool[] memory results */\n      0x60\n        /* \"/contracts/EligibleTokenRegistry.sol\":8076:8082  tokens */\n      dup2\n        /* \"/contracts/EligibleTokenRegistry.sol\":8065:8090  new bool[](tokens.length) */\n      0xffffffffffffffff\n      dup2\n      gt\n      iszero\n      tag_167\n      jumpi\n      tag_167\n      tag_147\n      jump\t// in\n    tag_167:\n      mload(0x40)\n      swap1\n      dup1\n      dup3\n      mstore\n      dup1\n      0x20\n      mul\n      0x20\n      add\n      dup3\n      add\n      0x40\n      mstore\n      dup1\n      iszero\n      tag_168\n      jumpi\n      dup2\n      0x20\n      add\n      0x20\n      dup3\n      mul\n      dup1\n      calldatasize\n      dup4\n      calldatacopy\n      add\n      swap1\n      pop\n    tag_168:\n      pop\n        /* \"/contracts/EligibleTokenRegistry.sol\":8055:8090  results = new bool[](tokens.length) */\n      swap1\n      pop\n        /* \"/contracts/EligibleTokenRegistry.sol\":8105:8114  uint256 i */\n      0x00\n        /* \"/contracts/EligibleTokenRegistry.sol\":8100:8203  for (uint256 i = 0; i < tokens.length; i++) {... */\n    tag_169:\n        /* \"/contracts/EligibleTokenRegistry.sol\":8120:8137  i < tokens.length */\n      dup3\n      dup2\n      lt\n        /* \"/contracts/EligibleTokenRegistry.sol\":8100:8203  for (uint256 i = 0; i < tokens.length; i++) {... */\n      iszero\n      tag_170\n      jumpi\n        /* \"/contracts/EligibleTokenRegistry.sol\":8171:8181  isEligible */\n      0x01\n        /* \"/contracts/EligibleTokenRegistry.sol\":8171:8192  isEligible[tokens[i]] */\n      0x00\n        /* \"/contracts/EligibleTokenRegistry.sol\":8182:8188  tokens */\n      dup6\n      dup6\n        /* \"/contracts/EligibleTokenRegistry.sol\":8189:8190  i */\n      dup5\n        /* \"/contracts/EligibleTokenRegistry.sol\":8182:8191  tokens[i] */\n      dup2\n      dup2\n      lt\n      tag_173\n      jumpi\n      tag_173\n      tag_108\n      jump\t// in\n    tag_173:\n      swap1\n      pop\n      0x20\n      mul\n      add\n      0x20\n      dup2\n      add\n      swap1\n      tag_174\n      swap2\n      swap1\n      tag_24\n      jump\t// in\n    tag_174:\n      sub(shl(0xa0, 0x01), 0x01)\n        /* \"/contracts/EligibleTokenRegistry.sol\":8171:8192  isEligible[tokens[i]] */\n      and\n      dup2\n      mstore\n      0x20\n      dup2\n      add\n      swap2\n      swap1\n      swap2\n      mstore\n      0x40\n      add\n      0x00\n      keccak256\n      sload\n        /* \"/contracts/EligibleTokenRegistry.sol\":8158:8168  results[i] */\n      dup3\n      mload\n        /* \"/contracts/EligibleTokenRegistry.sol\":8171:8192  isEligible[tokens[i]] */\n      0xff\n      swap1\n      swap2\n      and\n      swap1\n        /* \"/contracts/EligibleTokenRegistry.sol\":8158:8165  results */\n      dup4\n      swap1\n        /* \"/contracts/EligibleTokenRegistry.sol\":8166:8167  i */\n      dup4\n      swap1\n        /* \"/contracts/EligibleTokenRegistry.sol\":8158:8168  results[i] */\n      dup2\n      lt\n      tag_176\n      jumpi\n      tag_176\n      tag_108\n      jump\t// in\n    tag_176:\n        /* \"/contracts/EligibleTokenRegistry.sol\":8158:8192  results[i] = isEligible[tokens[i]] */\n      swap2\n      iszero\n      iszero\n        /* \"/contracts/EligibleTokenRegistry.sol\":8158:8168  results[i] */\n      0x20\n      swap3\n      dup4\n      mul\n      swap2\n      swap1\n      swap2\n      add\n      swap1\n      swap2\n      add\n        /* \"/contracts/EligibleTokenRegistry.sol\":8158:8192  results[i] = isEligible[tokens[i]] */\n      mstore\n        /* \"/contracts/EligibleTokenRegistry.sol\":8139:8142  i++ */\n      dup1\n      tag_177\n      dup2\n      tag_121\n      jump\t// in\n    tag_177:\n      swap2\n      pop\n      pop\n        /* \"/contracts/EligibleTokenRegistry.sol\":8100:8203  for (uint256 i = 0; i < tokens.length; i++) {... */\n      jump(tag_169)\n    tag_170:\n      pop\n        /* \"/contracts/EligibleTokenRegistry.sol\":7923:8209  function areEligible(address[] calldata tokens)... */\n      swap3\n      swap2\n      pop\n      pop\n      jump\t// out\n        /* \"/contracts/EligibleTokenRegistry.sol\":4110:4314  function addToken(address token) external onlyOwner {... */\n    tag_78:\n        /* \"@openzeppelin/contracts/access/Ownable.sol\":1531:1544  _checkOwner() */\n      tag_179\n        /* \"@openzeppelin/contracts/access/Ownable.sol\":1531:1542  _checkOwner */\n      tag_84\n        /* \"@openzeppelin/contracts/access/Ownable.sol\":1531:1544  _checkOwner() */\n      jump\t// in\n    tag_179:\n      sub(shl(0xa0, 0x01), 0x01)\n        /* \"/contracts/EligibleTokenRegistry.sol\":4176:4195  token == address(0) */\n      dup2\n      and\n        /* \"/contracts/EligibleTokenRegistry.sol\":4172:4217  if (token == address(0)) revert ZeroAddress() */\n      tag_181\n      jumpi\n        /* \"/contracts/EligibleTokenRegistry.sol\":4204:4217  ZeroAddress() */\n      mload(0x40)\n      shl(0xe0, 0xd92e233d)\n      dup2\n      mstore\n      0x04\n      add\n      mload(0x40)\n      dup1\n      swap2\n      sub\n      swap1\n      revert\n        /* \"/contracts/EligibleTokenRegistry.sol\":4172:4217  if (token == address(0)) revert ZeroAddress() */\n    tag_181:\n      sub(shl(0xa0, 0x01), 0x01)\n        /* \"/contracts/EligibleTokenRegistry.sol\":4231:4248  isEligible[token] */\n      dup2\n      and\n      0x00\n      swap1\n      dup2\n      mstore\n        /* \"/contracts/EligibleTokenRegistry.sol\":4231:4241  isEligible */\n      0x01\n        /* \"/contracts/EligibleTokenRegistry.sol\":4231:4248  isEligible[token] */\n      0x20\n      mstore\n      0x40\n      swap1\n      keccak256\n      sload\n      0xff\n      and\n        /* \"/contracts/EligibleTokenRegistry.sol\":4227:4281  if (isEligible[token])   revert AlreadyEligible(token) */\n      iszero\n      tag_182\n      jumpi\n        /* \"/contracts/EligibleTokenRegistry.sol\":4259:4281  AlreadyEligible(token) */\n      mload(0x40)\n      shl(0xe2, 0x2b351261)\n      dup2\n      mstore\n      sub(shl(0xa0, 0x01), 0x01)\n        /* \"#utility.yul\":654:686   */\n      dup3\n      and\n        /* \"/contracts/EligibleTokenRegistry.sol\":4259:4281  AlreadyEligible(token) */\n      0x04\n      dup3\n      add\n        /* \"#utility.yul\":636:687   */\n      mstore\n        /* \"#utility.yul\":609:627   */\n      0x24\n      add\n        /* \"/contracts/EligibleTokenRegistry.sol\":4259:4281  AlreadyEligible(token) */\n      tag_87\n        /* \"#utility.yul\":490:693   */\n      jump\n        /* \"/contracts/EligibleTokenRegistry.sol\":4227:4281  if (isEligible[token])   revert AlreadyEligible(token) */\n    tag_182:\n        /* \"/contracts/EligibleTokenRegistry.sol\":4291:4307  _addToken(token) */\n      tag_184\n        /* \"/contracts/EligibleTokenRegistry.sol\":4301:4306  token */\n      dup2\n        /* \"/contracts/EligibleTokenRegistry.sol\":4291:4300  _addToken */\n      tag_119\n        /* \"/contracts/EligibleTokenRegistry.sol\":4291:4307  _addToken(token) */\n      jump\t// in\n    tag_184:\n        /* \"/contracts/EligibleTokenRegistry.sol\":4110:4314  function addToken(address token) external onlyOwner {... */\n      pop\n      jump\t// out\n        /* \"@openzeppelin/contracts/access/Ownable.sol\":2543:2758  function transferOwnership(address newOwner) public virtual onlyOwner {... */\n    tag_81:\n        /* \"@openzeppelin/contracts/access/Ownable.sol\":1531:1544  _checkOwner() */\n      tag_186\n        /* \"@openzeppelin/contracts/access/Ownable.sol\":1531:1542  _checkOwner */\n      tag_84\n        /* \"@openzeppelin/contracts/access/Ownable.sol\":1531:1544  _checkOwner() */\n      jump\t// in\n    tag_186:\n      sub(shl(0xa0, 0x01), 0x01)\n        /* \"@openzeppelin/contracts/access/Ownable.sol\":2627:2649  newOwner == address(0) */\n      dup2\n      and\n        /* \"@openzeppelin/contracts/access/Ownable.sol\":2623:2714  if (newOwner == address(0)) {... */\n      tag_188\n      jumpi\n        /* \"@openzeppelin/contracts/access/Ownable.sol\":2672:2703  OwnableInvalidOwner(address(0)) */\n      mload(0x40)\n      shl(0xe0, 0x1e4fbdf7)\n      dup2\n      mstore\n        /* \"@openzeppelin/contracts/access/Ownable.sol\":2700:2701  0 */\n      0x00\n        /* \"@openzeppelin/contracts/access/Ownable.sol\":2672:2703  OwnableInvalidOwner(address(0)) */\n      0x04\n      dup3\n      add\n        /* \"#utility.yul\":636:687   */\n      mstore\n        /* \"#utility.yul\":609:627   */\n      0x24\n      add\n        /* \"@openzeppelin/contracts/access/Ownable.sol\":2672:2703  OwnableInvalidOwner(address(0)) */\n      tag_87\n        /* \"#utility.yul\":490:693   */\n      jump\n        /* \"@openzeppelin/contracts/access/Ownable.sol\":2623:2714  if (newOwner == address(0)) {... */\n    tag_188:\n        /* \"@openzeppelin/contracts/access/Ownable.sol\":2723:2751  _transferOwnership(newOwner) */\n      tag_184\n        /* \"@openzeppelin/contracts/access/Ownable.sol\":2742:2750  newOwner */\n      dup2\n        /* \"@openzeppelin/contracts/access/Ownable.sol\":2723:2741  _transferOwnership */\n      tag_134\n        /* \"@openzeppelin/contracts/access/Ownable.sol\":2723:2751  _transferOwnership(newOwner) */\n      jump\t// in\n        /* \"@openzeppelin/contracts/access/Ownable.sol\":1796:1958  function _checkOwner() internal view virtual {... */\n    tag_84:\n        /* \"@openzeppelin/contracts/access/Ownable.sol\":1684:1691  address */\n      0x00\n        /* \"@openzeppelin/contracts/access/Ownable.sol\":1710:1716  _owner */\n      sload\n      sub(shl(0xa0, 0x01), 0x01)\n      and\n        /* \"@openzeppelin/contracts/utils/Context.sol\":735:745  msg.sender */\n      caller\n        /* \"@openzeppelin/contracts/access/Ownable.sol\":1855:1878  owner() != _msgSender() */\n      eq\n        /* \"@openzeppelin/contracts/access/Ownable.sol\":1851:1952  if (owner() != _msgSender()) {... */\n      tag_133\n      jumpi\n        /* \"@openzeppelin/contracts/access/Ownable.sol\":1901:1941  OwnableUnauthorizedAccount(_msgSender()) */\n      mload(0x40)\n      shl(0xe0, 0x118cdaa7)\n      dup2\n      mstore\n        /* \"@openzeppelin/contracts/utils/Context.sol\":735:745  msg.sender */\n      caller\n        /* \"@openzeppelin/contracts/access/Ownable.sol\":1901:1941  OwnableUnauthorizedAccount(_msgSender()) */\n      0x04\n      dup3\n      add\n        /* \"#utility.yul\":636:687   */\n      mstore\n        /* \"#utility.yul\":609:627   */\n      0x24\n      add\n        /* \"@openzeppelin/contracts/access/Ownable.sol\":1901:1941  OwnableUnauthorizedAccount(_msgSender()) */\n      tag_87\n        /* \"#utility.yul\":490:693   */\n      jump\n        /* \"/contracts/EligibleTokenRegistry.sol\":5248:5403  function _addToken(address token) internal {... */\n    tag_119:\n      sub(shl(0xa0, 0x01), 0x01)\n        /* \"/contracts/EligibleTokenRegistry.sol\":5301:5318  isEligible[token] */\n      dup2\n      and\n      0x00\n      dup2\n      dup2\n      mstore\n        /* \"/contracts/EligibleTokenRegistry.sol\":5321:5325  true */\n      0x01\n        /* \"/contracts/EligibleTokenRegistry.sol\":5301:5318  isEligible[token] */\n      0x20\n      dup2\n      swap1\n      mstore\n      0x40\n      dup1\n      dup4\n      keccak256\n        /* \"/contracts/EligibleTokenRegistry.sol\":5301:5325  isEligible[token] = true */\n      dup1\n      sload\n      not(0xff)\n      and\n      dup4\n      or\n      swap1\n      sstore\n        /* \"/contracts/EligibleTokenRegistry.sol\":5335:5352  eligibleTokenList */\n      0x02\n        /* \"/contracts/EligibleTokenRegistry.sol\":5335:5364  eligibleTokenList.push(token) */\n      dup1\n      sload\n      swap3\n      dup4\n      add\n      dup2\n      sstore\n      dup4\n      mstore\n      0x405787fa12a823e0f2b7631cc41b3ba8828b3321ca811111fa75cd3aa3bb5ace\n      swap1\n      swap2\n      add\n      dup1\n      sload\n      not(sub(shl(0xa0, 0x01), 0x01))\n      and\n      dup5\n      or\n      swap1\n      sstore\n        /* \"/contracts/EligibleTokenRegistry.sol\":5379:5396  TokenAdded(token) */\n      mload\n      0x784c8f4dbf0ffedd6e72c76501c545a70f8b203b30a26ce542bf92ba87c248a4\n      swap2\n        /* \"/contracts/EligibleTokenRegistry.sol\":5301:5318  isEligible[token] */\n      swap1\n        /* \"/contracts/EligibleTokenRegistry.sol\":5379:5396  TokenAdded(token) */\n      log2\n        /* \"/contracts/EligibleTokenRegistry.sol\":5248:5403  function _addToken(address token) internal {... */\n      pop\n      jump\t// out\n        /* \"@openzeppelin/contracts/access/Ownable.sol\":2912:3099  function _transferOwnership(address newOwner) internal virtual {... */\n    tag_134:\n        /* \"@openzeppelin/contracts/access/Ownable.sol\":2985:3001  address oldOwner */\n      0x00\n        /* \"@openzeppelin/contracts/access/Ownable.sol\":3004:3010  _owner */\n      dup1\n      sload\n      sub(shl(0xa0, 0x01), 0x01)\n        /* \"@openzeppelin/contracts/access/Ownable.sol\":3020:3037  _owner = newOwner */\n      dup4\n      dup2\n      and\n      not(sub(shl(0xa0, 0x01), 0x01))\n      dup4\n      and\n      dup2\n      or\n      dup5\n      sstore\n        /* \"@openzeppelin/contracts/access/Ownable.sol\":3052:3092  OwnershipTransferred(oldOwner, newOwner) */\n      mload(0x40)\n        /* \"@openzeppelin/contracts/access/Ownable.sol\":3004:3010  _owner */\n      swap2\n      swap1\n      swap3\n      and\n      swap3\n      dup4\n      swap2\n        /* \"@openzeppelin/contracts/access/Ownable.sol\":3052:3092  OwnershipTransferred(oldOwner, newOwner) */\n      0x8be0079c531659141344cd1fd0a4f28419497f9722a3daafe3b4186f6b6457e0\n      swap2\n        /* \"@openzeppelin/contracts/access/Ownable.sol\":2985:3001  address oldOwner */\n      swap1\n        /* \"@openzeppelin/contracts/access/Ownable.sol\":3052:3092  OwnershipTransferred(oldOwner, newOwner) */\n      log3\n        /* \"@openzeppelin/contracts/access/Ownable.sol\":2975:3099  {... */\n      pop\n        /* \"@openzeppelin/contracts/access/Ownable.sol\":2912:3099  function _transferOwnership(address newOwner) internal virtual {... */\n      pop\n      jump\t// out\n        /* \"#utility.yul\":14:300   */\n    tag_24:\n        /* \"#utility.yul\":73:79   */\n      0x00\n        /* \"#utility.yul\":126:128   */\n      0x20\n        /* \"#utility.yul\":114:123   */\n      dup3\n        /* \"#utility.yul\":105:112   */\n      dup5\n        /* \"#utility.yul\":101:124   */\n      sub\n        /* \"#utility.yul\":97:129   */\n      slt\n        /* \"#utility.yul\":94:146   */\n      iszero\n      tag_204\n      jumpi\n        /* \"#utility.yul\":142:143   */\n      0x00\n        /* \"#utility.yul\":139:140   */\n      dup1\n        /* \"#utility.yul\":132:144   */\n      revert\n        /* \"#utility.yul\":94:146   */\n    tag_204:\n        /* \"#utility.yul\":168:191   */\n      dup2\n      calldataload\n      sub(shl(0xa0, 0x01), 0x01)\n        /* \"#utility.yul\":220:251   */\n      dup2\n      and\n        /* \"#utility.yul\":210:252   */\n      dup2\n      eq\n        /* \"#utility.yul\":200:270   */\n      tag_205\n      jumpi\n        /* \"#utility.yul\":266:267   */\n      0x00\n        /* \"#utility.yul\":263:264   */\n      dup1\n        /* \"#utility.yul\":256:268   */\n      revert\n        /* \"#utility.yul\":200:270   */\n    tag_205:\n        /* \"#utility.yul\":289:294   */\n      swap4\n        /* \"#utility.yul\":14:300   */\n      swap3\n      pop\n      pop\n      pop\n      jump\t// out\n        /* \"#utility.yul\":305:485   */\n    tag_28:\n        /* \"#utility.yul\":364:370   */\n      0x00\n        /* \"#utility.yul\":417:419   */\n      0x20\n        /* \"#utility.yul\":405:414   */\n      dup3\n        /* \"#utility.yul\":396:403   */\n      dup5\n        /* \"#utility.yul\":392:415   */\n      sub\n        /* \"#utility.yul\":388:420   */\n      slt\n        /* \"#utility.yul\":385:437   */\n      iszero\n      tag_207\n      jumpi\n        /* \"#utility.yul\":433:434   */\n      0x00\n        /* \"#utility.yul\":430:431   */\n      dup1\n        /* \"#utility.yul\":423:435   */\n      revert\n        /* \"#utility.yul\":385:437   */\n    tag_207:\n      pop\n        /* \"#utility.yul\":456:479   */\n      calldataload\n      swap2\n        /* \"#utility.yul\":305:485   */\n      swap1\n      pop\n      jump\t// out\n        /* \"#utility.yul\":890:1548   */\n    tag_40:\n        /* \"#utility.yul\":1061:1063   */\n      0x20\n        /* \"#utility.yul\":1113:1134   */\n      dup1\n      dup3\n      mstore\n        /* \"#utility.yul\":1183:1196   */\n      dup3\n      mload\n        /* \"#utility.yul\":1086:1104   */\n      dup3\n      dup3\n      add\n        /* \"#utility.yul\":1205:1227   */\n      dup2\n      swap1\n      mstore\n        /* \"#utility.yul\":1032:1036   */\n      0x00\n      swap2\n        /* \"#utility.yul\":1061:1063   */\n      swap1\n        /* \"#utility.yul\":1284:1299   */\n      dup5\n      dup3\n      add\n      swap1\n        /* \"#utility.yul\":1258:1260   */\n      0x40\n        /* \"#utility.yul\":1243:1261   */\n      dup6\n      add\n      swap1\n        /* \"#utility.yul\":1032:1036   */\n      dup5\n        /* \"#utility.yul\":1327:1522   */\n    tag_211:\n        /* \"#utility.yul\":1341:1347   */\n      dup2\n        /* \"#utility.yul\":1338:1339   */\n      dup2\n        /* \"#utility.yul\":1335:1348   */\n      lt\n        /* \"#utility.yul\":1327:1522   */\n      iszero\n      tag_213\n      jumpi\n        /* \"#utility.yul\":1406:1419   */\n      dup4\n      mload\n      sub(shl(0xa0, 0x01), 0x01)\n        /* \"#utility.yul\":1402:1441   */\n      and\n        /* \"#utility.yul\":1390:1442   */\n      dup4\n      mstore\n        /* \"#utility.yul\":1497:1512   */\n      swap3\n      dup5\n      add\n      swap3\n        /* \"#utility.yul\":1462:1474   */\n      swap2\n      dup5\n      add\n      swap2\n        /* \"#utility.yul\":1438:1439   */\n      0x01\n        /* \"#utility.yul\":1356:1365   */\n      add\n        /* \"#utility.yul\":1327:1522   */\n      jump(tag_211)\n    tag_213:\n      pop\n        /* \"#utility.yul\":1539:1542   */\n      swap1\n      swap7\n        /* \"#utility.yul\":890:1548   */\n      swap6\n      pop\n      pop\n      pop\n      pop\n      pop\n      pop\n      jump\t// out\n        /* \"#utility.yul\":1553:2168   */\n    tag_46:\n        /* \"#utility.yul\":1639:1645   */\n      0x00\n        /* \"#utility.yul\":1647:1653   */\n      dup1\n        /* \"#utility.yul\":1700:1702   */\n      0x20\n        /* \"#utility.yul\":1688:1697   */\n      dup4\n        /* \"#utility.yul\":1679:1686   */\n      dup6\n        /* \"#utility.yul\":1675:1698   */\n      sub\n        /* \"#utility.yul\":1671:1703   */\n      slt\n        /* \"#utility.yul\":1668:1720   */\n      iszero\n      tag_215\n      jumpi\n        /* \"#utility.yul\":1716:1717   */\n      0x00\n        /* \"#utility.yul\":1713:1714   */\n      dup1\n        /* \"#utility.yul\":1706:1718   */\n      revert\n        /* \"#utility.yul\":1668:1720   */\n    tag_215:\n        /* \"#utility.yul\":1756:1765   */\n      dup3\n        /* \"#utility.yul\":1743:1766   */\n      calldataload\n        /* \"#utility.yul\":1785:1803   */\n      0xffffffffffffffff\n        /* \"#utility.yul\":1826:1828   */\n      dup1\n        /* \"#utility.yul\":1818:1824   */\n      dup3\n        /* \"#utility.yul\":1815:1829   */\n      gt\n        /* \"#utility.yul\":1812:1846   */\n      iszero\n      tag_216\n      jumpi\n        /* \"#utility.yul\":1842:1843   */\n      0x00\n        /* \"#utility.yul\":1839:1840   */\n      dup1\n        /* \"#utility.yul\":1832:1844   */\n      revert\n        /* \"#utility.yul\":1812:1846   */\n    tag_216:\n        /* \"#utility.yul\":1880:1886   */\n      dup2\n        /* \"#utility.yul\":1869:1878   */\n      dup6\n        /* \"#utility.yul\":1865:1887   */\n      add\n        /* \"#utility.yul\":1855:1887   */\n      swap2\n      pop\n        /* \"#utility.yul\":1925:1932   */\n      dup6\n        /* \"#utility.yul\":1918:1922   */\n      0x1f\n        /* \"#utility.yul\":1914:1916   */\n      dup4\n        /* \"#utility.yul\":1910:1923   */\n      add\n        /* \"#utility.yul\":1906:1933   */\n      slt\n        /* \"#utility.yul\":1896:1951   */\n      tag_217\n      jumpi\n        /* \"#utility.yul\":1947:1948   */\n      0x00\n        /* \"#utility.yul\":1944:1945   */\n      dup1\n        /* \"#utility.yul\":1937:1949   */\n      revert\n        /* \"#utility.yul\":1896:1951   */\n    tag_217:\n        /* \"#utility.yul\":1987:1989   */\n      dup2\n        /* \"#utility.yul\":1974:1990   */\n      calldataload\n        /* \"#utility.yul\":2013:2015   */\n      dup2\n        /* \"#utility.yul\":2005:2011   */\n      dup2\n        /* \"#utility.yul\":2002:2016   */\n      gt\n        /* \"#utility.yul\":1999:2033   */\n      iszero\n      tag_218\n      jumpi\n        /* \"#utility.yul\":2029:2030   */\n      0x00\n        /* \"#utility.yul\":2026:2027   */\n      dup1\n        /* \"#utility.yul\":2019:2031   */\n      revert\n        /* \"#utility.yul\":1999:2033   */\n    tag_218:\n        /* \"#utility.yul\":2082:2089   */\n      dup7\n        /* \"#utility.yul\":2077:2079   */\n      0x20\n        /* \"#utility.yul\":2067:2073   */\n      dup3\n        /* \"#utility.yul\":2064:2065   */\n      0x05\n        /* \"#utility.yul\":2060:2074   */\n      shl\n        /* \"#utility.yul\":2056:2058   */\n      dup6\n        /* \"#utility.yul\":2052:2075   */\n      add\n        /* \"#utility.yul\":2048:2080   */\n      add\n        /* \"#utility.yul\":2045:2090   */\n      gt\n        /* \"#utility.yul\":2042:2107   */\n      iszero\n      tag_219\n      jumpi\n        /* \"#utility.yul\":2103:2104   */\n      0x00\n        /* \"#utility.yul\":2100:2101   */\n      dup1\n        /* \"#utility.yul\":2093:2105   */\n      revert\n        /* \"#utility.yul\":2042:2107   */\n    tag_219:\n        /* \"#utility.yul\":2134:2136   */\n      0x20\n        /* \"#utility.yul\":2126:2137   */\n      swap3\n      swap1\n      swap3\n      add\n      swap7\n        /* \"#utility.yul\":2156:2162   */\n      swap2\n      swap6\n      pop\n        /* \"#utility.yul\":1553:2168   */\n      swap1\n      swap4\n      pop\n      pop\n      pop\n      pop\n      jump\t// out\n        /* \"#utility.yul\":2355:2997   */\n    tag_75:\n        /* \"#utility.yul\":2520:2522   */\n      0x20\n        /* \"#utility.yul\":2572:2593   */\n      dup1\n      dup3\n      mstore\n        /* \"#utility.yul\":2642:2655   */\n      dup3\n      mload\n        /* \"#utility.yul\":2545:2563   */\n      dup3\n      dup3\n      add\n        /* \"#utility.yul\":2664:2686   */\n      dup2\n      swap1\n      mstore\n        /* \"#utility.yul\":2491:2495   */\n      0x00\n      swap2\n        /* \"#utility.yul\":2520:2522   */\n      swap1\n        /* \"#utility.yul\":2743:2758   */\n      dup5\n      dup3\n      add\n      swap1\n        /* \"#utility.yul\":2717:2719   */\n      0x40\n        /* \"#utility.yul\":2702:2720   */\n      dup6\n      add\n      swap1\n        /* \"#utility.yul\":2491:2495   */\n      dup5\n        /* \"#utility.yul\":2786:2971   */\n    tag_222:\n        /* \"#utility.yul\":2800:2806   */\n      dup2\n        /* \"#utility.yul\":2797:2798   */\n      dup2\n        /* \"#utility.yul\":2794:2807   */\n      lt\n        /* \"#utility.yul\":2786:2971   */\n      iszero\n      tag_213\n      jumpi\n        /* \"#utility.yul\":2875:2888   */\n      dup4\n      mload\n        /* \"#utility.yul\":2868:2889   */\n      iszero\n        /* \"#utility.yul\":2861:2890   */\n      iszero\n        /* \"#utility.yul\":2849:2891   */\n      dup4\n      mstore\n        /* \"#utility.yul\":2946:2961   */\n      swap3\n      dup5\n      add\n      swap3\n        /* \"#utility.yul\":2911:2923   */\n      swap2\n      dup5\n      add\n      swap2\n        /* \"#utility.yul\":2822:2823   */\n      0x01\n        /* \"#utility.yul\":2815:2824   */\n      add\n        /* \"#utility.yul\":2786:2971   */\n      jump(tag_222)\n        /* \"#utility.yul\":3002:3129   */\n    tag_108:\n        /* \"#utility.yul\":3063:3073   */\n      0x4e487b71\n        /* \"#utility.yul\":3058:3061   */\n      0xe0\n        /* \"#utility.yul\":3054:3074   */\n      shl\n        /* \"#utility.yul\":3051:3052   */\n      0x00\n        /* \"#utility.yul\":3044:3075   */\n      mstore\n        /* \"#utility.yul\":3094:3098   */\n      0x32\n        /* \"#utility.yul\":3091:3092   */\n      0x04\n        /* \"#utility.yul\":3084:3099   */\n      mstore\n        /* \"#utility.yul\":3118:3122   */\n      0x24\n        /* \"#utility.yul\":3115:3116   */\n      0x00\n        /* \"#utility.yul\":3108:3123   */\n      revert\n        /* \"#utility.yul\":3134:3366   */\n    tag_121:\n        /* \"#utility.yul\":3173:3176   */\n      0x00\n        /* \"#utility.yul\":3194:3211   */\n      0x01\n      dup3\n      add\n        /* \"#utility.yul\":3191:3331   */\n      tag_227\n      jumpi\n        /* \"#utility.yul\":3253:3263   */\n      0x4e487b71\n        /* \"#utility.yul\":3248:3251   */\n      0xe0\n        /* \"#utility.yul\":3244:3264   */\n      shl\n        /* \"#utility.yul\":3241:3242   */\n      0x00\n        /* \"#utility.yul\":3234:3265   */\n      mstore\n        /* \"#utility.yul\":3288:3292   */\n      0x11\n        /* \"#utility.yul\":3285:3286   */\n      0x04\n        /* \"#utility.yul\":3278:3293   */\n      mstore\n        /* \"#utility.yul\":3316:3320   */\n      0x24\n        /* \"#utility.yul\":3313:3314   */\n      0x00\n        /* \"#utility.yul\":3306:3321   */\n      revert\n        /* \"#utility.yul\":3191:3331   */\n    tag_227:\n      pop\n        /* \"#utility.yul\":3358:3359   */\n      0x01\n        /* \"#utility.yul\":3347:3360   */\n      add\n      swap1\n        /* \"#utility.yul\":3134:3366   */\n      jump\t// out\n        /* \"#utility.yul\":3371:3498   */\n    tag_147:\n        /* \"#utility.yul\":3432:3442   */\n      0x4e487b71\n        /* \"#utility.yul\":3427:3430   */\n      0xe0\n        /* \"#utility.yul\":3423:3443   */\n      shl\n        /* \"#utility.yul\":3420:3421   */\n      0x00\n        /* \"#utility.yul\":3413:3444   */\n      mstore\n        /* \"#utility.yul\":3463:3467   */\n      0x41\n        /* \"#utility.yul\":3460:3461   */\n      0x04\n        /* \"#utility.yul\":3453:3468   */\n      mstore\n        /* \"#utility.yul\":3487:3491   */\n      0x24\n        /* \"#utility.yul\":3484:3485   */\n      0x00\n        /* \"#utility.yul\":3477:3492   */\n      revert\n\n    auxdata: 0xa26469706673582212208d7918326c028510cadaa452a9fb6894ed6b0fdc6a09dfa2a4b840f4bec5bf3d64736f6c63430008140033\n}\n",
				"bytecode": {
					"linkReferences": {},
					"object": "60806040523480156200001157600080fd5b5060405162000f8e38038062000f8e833981016040819052620000349162000204565b33806200005b57604051631e4fbdf760e01b81526000600482015260240160405180910390fd5b6200006681620000f5565b5060005b8151811015620000ed5760006001600160a01b0316828281518110620000945762000094620002d6565b60200260200101516001600160a01b031614620000d857620000d8828281518110620000c457620000c4620002d6565b60200260200101516200014560201b60201c565b80620000e481620002ec565b9150506200006a565b505062000314565b600080546001600160a01b038381166001600160a01b0319831681178455604051919092169283917f8be0079c531659141344cd1fd0a4f28419497f9722a3daafe3b4186f6b6457e09190a35050565b6001600160a01b0381166000818152600160208190526040808320805460ff19168317905560028054928301815583527f405787fa12a823e0f2b7631cc41b3ba8828b3321ca811111fa75cd3aa3bb5ace90910180546001600160a01b03191684179055517f784c8f4dbf0ffedd6e72c76501c545a70f8b203b30a26ce542bf92ba87c248a49190a250565b634e487b7160e01b600052604160045260246000fd5b80516001600160a01b0381168114620001ff57600080fd5b919050565b600060208083850312156200021857600080fd5b82516001600160401b03808211156200023057600080fd5b818501915085601f8301126200024557600080fd5b8151818111156200025a576200025a620001d1565b8060051b604051601f19603f83011681018181108582111715620002825762000282620001d1565b604052918252848201925083810185019188831115620002a157600080fd5b938501935b82851015620002ca57620002ba85620001e7565b84529385019392850192620002a6565b98975050505050505050565b634e487b7160e01b600052603260045260246000fd5b6000600182016200030d57634e487b7160e01b600052601160045260246000fd5b5060010190565b610c6a80620003246000396000f3fe608060405234801561001057600080fd5b50600436106101005760003560e01c806366e305fd116100975780638da5cb5b116100665780638da5cb5b146102225780639b7ecf2214610233578063d48bfca714610253578063f2fde38b1461026657600080fd5b806366e305fd146101de578063715018a614610201578063748cdcdc1461020957806374d0c73f1461021157600080fd5b806344b22fdd116100d357806344b22fdd146101925780634ae05c7d146101a55780635914220d146101b85780635fa7b584146101cb57600080fd5b80630e27e3df1461010557806315baa8c01461011a5780631efe4b0c1461014a5780633b729b861461017d575b600080fd5b610118610113366004610a9c565b610279565b005b61012d610128366004610acc565b610313565b6040516001600160a01b0390911681526020015b60405180910390f35b61016d610158366004610a9c565b60036020526000908152604090205460ff1681565b6040519015158152602001610141565b61018561033d565b6040516101419190610ae5565b6101186101a0366004610a9c565b61039f565b6101186101b3366004610b32565b61049f565b61012d6101c6366004610acc565b610594565b6101186101d9366004610a9c565b6105a4565b61016d6101ec366004610a9c565b60016020526000908152604090205460ff1681565b610118610660565b610185610674565b600254604051908152602001610141565b6000546001600160a01b031661012d565b610246610241366004610b32565b6107fe565b6040516101419190610ba7565b610118610261366004610a9c565b6108d8565b610118610274366004610a9c565b610958565b610281610993565b6001600160a01b03811660009081526003602052604090205460ff166102ca5760405163bfc6c33760e01b81526001600160a01b03821660048201526024015b60405180910390fd5b6001600160a01b038116600081815260036020526040808220805460ff19169055517fe3f5ed5f263f1f01764a96edfc7d025f511ec5f7d180e8816908b78bcf74f0989190a250565b6004818154811061032357600080fd5b6000918252602090912001546001600160a01b0316905081565b6060600480548060200260200160405190810160405280929190818152602001828054801561039557602002820191906000526020600020905b81546001600160a01b03168152600190910190602001808311610377575b5050505050905090565b6103a7610993565b6001600160a01b0381166103ce5760405163d92e233d60e01b815260040160405180910390fd5b6001600160a01b03811660009081526003602052604090205460ff1615610413576040516345ed80e960e01b81526001600160a01b03821660048201526024016102c1565b6001600160a01b038116600081815260036020526040808220805460ff1916600190811790915560048054918201815583527f8a35acfbc15ff81a39ae7d344fd709f28e8600b4aa8c65c6b64bfe7fe36bd19b0180546001600160a01b03191684179055517f20f06cf92183fb3bd87d074ec788beb83367293faf2388c274b4bad9aecae7259190a250565b6104a7610993565b60005b8181101561058f5760008383838181106104c6576104c6610be1565b90506020020160208101906104db9190610a9c565b6001600160a01b0316036105025760405163d92e233d60e01b815260040160405180910390fd5b6001600084848481811061051857610518610be1565b905060200201602081019061052d9190610a9c565b6001600160a01b0316815260208101919091526040016000205460ff1661057d5761057d83838381811061056357610563610be1565b90506020020160208101906105789190610a9c565b6109c0565b8061058781610bf7565b9150506104aa565b505050565b6002818154811061032357600080fd5b6105ac610993565b6001600160a01b0381166105d35760405163d92e233d60e01b815260040160405180910390fd5b6001600160a01b03811660009081526001602052604090205460ff1661061757604051633a1c154560e01b81526001600160a01b03821660048201526024016102c1565b6001600160a01b038116600081815260016020526040808220805460ff19169055517f4c910b69fe65a61f7531b9c5042b2329ca7179c77290aa7e2eb3afa3c8511fd39190a250565b610668610993565b6106726000610a4c565b565b60606000805b6002548110156106e857600160006002838154811061069b5761069b610be1565b60009182526020808320909101546001600160a01b0316835282019290925260400190205460ff16156106d657816106d281610bf7565b9250505b806106e081610bf7565b91505061067a565b508067ffffffffffffffff81111561070257610702610c1e565b60405190808252806020026020018201604052801561072b578160200160208202803683370190505b5091506000805b6002548110156107f857600160006002838154811061075357610753610be1565b60009182526020808320909101546001600160a01b0316835282019290925260400190205460ff16156107e6576002818154811061079357610793610be1565b6000918252602090912001546001600160a01b031684836107b381610bf7565b9450815181106107c5576107c5610be1565b60200260200101906001600160a01b031690816001600160a01b0316815250505b806107f081610bf7565b915050610732565b50505090565b60608167ffffffffffffffff81111561081957610819610c1e565b604051908082528060200260200182016040528015610842578160200160208202803683370190505b50905060005b828110156108d1576001600085858481811061086657610866610be1565b905060200201602081019061087b9190610a9c565b6001600160a01b03168152602081019190915260400160002054825160ff909116908390839081106108af576108af610be1565b91151560209283029190910190910152806108c981610bf7565b915050610848565b5092915050565b6108e0610993565b6001600160a01b0381166109075760405163d92e233d60e01b815260040160405180910390fd5b6001600160a01b03811660009081526001602052604090205460ff161561094c57604051632b35126160e21b81526001600160a01b03821660048201526024016102c1565b610955816109c0565b50565b610960610993565b6001600160a01b03811661098a57604051631e4fbdf760e01b8152600060048201526024016102c1565b61095581610a4c565b6000546001600160a01b031633146106725760405163118cdaa760e01b81523360048201526024016102c1565b6001600160a01b0381166000818152600160208190526040808320805460ff19168317905560028054928301815583527f405787fa12a823e0f2b7631cc41b3ba8828b3321ca811111fa75cd3aa3bb5ace90910180546001600160a01b03191684179055517f784c8f4dbf0ffedd6e72c76501c545a70f8b203b30a26ce542bf92ba87c248a49190a250565b600080546001600160a01b038381166001600160a01b0319831681178455604051919092169283917f8be0079c531659141344cd1fd0a4f28419497f9722a3daafe3b4186f6b6457e09190a35050565b600060208284031215610aae57600080fd5b81356001600160a01b0381168114610ac557600080fd5b9392505050565b600060208284031215610ade57600080fd5b5035919050565b6020808252825182820181905260009190848201906040850190845b81811015610b265783516001600160a01b031683529284019291840191600101610b01565b50909695505050505050565b60008060208385031215610b4557600080fd5b823567ffffffffffffffff80821115610b5d57600080fd5b818501915085601f830112610b7157600080fd5b813581811115610b8057600080fd5b8660208260051b8501011115610b9557600080fd5b60209290920196919550909350505050565b6020808252825182820181905260009190848201906040850190845b81811015610b26578351151583529284019291840191600101610bc3565b634e487b7160e01b600052603260045260246000fd5b600060018201610c1757634e487b7160e01b600052601160045260246000fd5b5060010190565b634e487b7160e01b600052604160045260246000fdfea26469706673582212208d7918326c028510cadaa452a9fb6894ed6b0fdc6a09dfa2a4b840f4bec5bf3d64736f6c63430008140033",
					"opcodes": "PUSH1 0x80 PUSH1 0x40 MSTORE CALLVALUE DUP1 ISZERO PUSH3 0x11 JUMPI PUSH1 0x0 DUP1 REVERT JUMPDEST POP PUSH1 0x40 MLOAD PUSH3 0xF8E CODESIZE SUB DUP1 PUSH3 0xF8E DUP4 CODECOPY DUP2 ADD PUSH1 0x40 DUP2 SWAP1 MSTORE PUSH3 0x34 SWAP2 PUSH3 0x204 JUMP JUMPDEST CALLER DUP1 PUSH3 0x5B JUMPI PUSH1 0x40 MLOAD PUSH4 0x1E4FBDF7 PUSH1 0xE0 SHL DUP2 MSTORE PUSH1 0x0 PUSH1 0x4 DUP3 ADD MSTORE PUSH1 0x24 ADD PUSH1 0x40 MLOAD DUP1 SWAP2 SUB SWAP1 REVERT JUMPDEST PUSH3 0x66 DUP2 PUSH3 0xF5 JUMP JUMPDEST POP PUSH1 0x0 JUMPDEST DUP2 MLOAD DUP2 LT ISZERO PUSH3 0xED JUMPI PUSH1 0x0 PUSH1 0x1 PUSH1 0x1 PUSH1 0xA0 SHL SUB AND DUP3 DUP3 DUP2 MLOAD DUP2 LT PUSH3 0x94 JUMPI PUSH3 0x94 PUSH3 0x2D6 JUMP JUMPDEST PUSH1 0x20 MUL PUSH1 0x20 ADD ADD MLOAD PUSH1 0x1 PUSH1 0x1 PUSH1 0xA0 SHL SUB AND EQ PUSH3 0xD8 JUMPI PUSH3 0xD8 DUP3 DUP3 DUP2 MLOAD DUP2 LT PUSH3 0xC4 JUMPI PUSH3 0xC4 PUSH3 0x2D6 JUMP JUMPDEST PUSH1 0x20 MUL PUSH1 0x20 ADD ADD MLOAD PUSH3 0x145 PUSH1 0x20 SHL PUSH1 0x20 SHR JUMP JUMPDEST DUP1 PUSH3 0xE4 DUP2 PUSH3 0x2EC JUMP JUMPDEST SWAP2 POP POP PUSH3 0x6A JUMP JUMPDEST POP POP PUSH3 0x314 JUMP JUMPDEST PUSH1 0x0 DUP1 SLOAD PUSH1 0x1 PUSH1 0x1 PUSH1 0xA0 SHL SUB DUP4 DUP2 AND PUSH1 0x1 PUSH1 0x1 PUSH1 0xA0 SHL SUB NOT DUP4 AND DUP2 OR DUP5 SSTORE PUSH1 0x40 MLOAD SWAP2 SWAP1 SWAP3 AND SWAP3 DUP4 SWAP2 PUSH32 0x8BE0079C531659141344CD1FD0A4F28419497F9722A3DAAFE3B4186F6B6457E0 SWAP2 SWAP1 LOG3 POP POP JUMP JUMPDEST PUSH1 0x1 PUSH1 0x1 PUSH1 0xA0 SHL SUB DUP2 AND PUSH1 0x0 DUP2 DUP2 MSTORE PUSH1 0x1 PUSH1 0x20 DUP2 SWAP1 MSTORE PUSH1 0x40 DUP1 DUP4 KECCAK256 DUP1 SLOAD PUSH1 0xFF NOT AND DUP4 OR SWAP1 SSTORE PUSH1 0x2 DUP1 SLOAD SWAP3 DUP4 ADD DUP2 SSTORE DUP4 MSTORE PUSH32 0x405787FA12A823E0F2B7631CC41B3BA8828B3321CA811111FA75CD3AA3BB5ACE SWAP1 SWAP2 ADD DUP1 SLOAD PUSH1 0x1 PUSH1 0x1 PUSH1 0xA0 SHL SUB NOT AND DUP5 OR SWAP1 SSTORE MLOAD PUSH32 0x784C8F4DBF0FFEDD6E72C76501C545A70F8B203B30A26CE542BF92BA87C248A4 SWAP2 SWAP1 LOG2 POP JUMP JUMPDEST PUSH4 0x4E487B71 PUSH1 0xE0 SHL PUSH1 0x0 MSTORE PUSH1 0x41 PUSH1 0x4 MSTORE PUSH1 0x24 PUSH1 0x0 REVERT JUMPDEST DUP1 MLOAD PUSH1 0x1 PUSH1 0x1 PUSH1 0xA0 SHL SUB DUP2 AND DUP2 EQ PUSH3 0x1FF JUMPI PUSH1 0x0 DUP1 REVERT JUMPDEST SWAP2 SWAP1 POP JUMP JUMPDEST PUSH1 0x0 PUSH1 0x20 DUP1 DUP4 DUP6 SUB SLT ISZERO PUSH3 0x218 JUMPI PUSH1 0x0 DUP1 REVERT JUMPDEST DUP3 MLOAD PUSH1 0x1 PUSH1 0x1 PUSH1 0x40 SHL SUB DUP1 DUP3 GT ISZERO PUSH3 0x230 JUMPI PUSH1 0x0 DUP1 REVERT JUMPDEST DUP2 DUP6 ADD SWAP2 POP DUP6 PUSH1 0x1F DUP4 ADD SLT PUSH3 0x245 JUMPI PUSH1 0x0 DUP1 REVERT JUMPDEST DUP2 MLOAD DUP2 DUP2 GT ISZERO PUSH3 0x25A JUMPI PUSH3 0x25A PUSH3 0x1D1 JUMP JUMPDEST DUP1 PUSH1 0x5 SHL PUSH1 0x40 MLOAD PUSH1 0x1F NOT PUSH1 0x3F DUP4 ADD AND DUP2 ADD DUP2 DUP2 LT DUP6 DUP3 GT OR ISZERO PUSH3 0x282 JUMPI PUSH3 0x282 PUSH3 0x1D1 JUMP JUMPDEST PUSH1 0x40 MSTORE SWAP2 DUP3 MSTORE DUP5 DUP3 ADD SWAP3 POP DUP4 DUP2 ADD DUP6 ADD SWAP2 DUP9 DUP4 GT ISZERO PUSH3 0x2A1 JUMPI PUSH1 0x0 DUP1 REVERT JUMPDEST SWAP4 DUP6 ADD SWAP4 JUMPDEST DUP3 DUP6 LT ISZERO PUSH3 0x2CA JUMPI PUSH3 0x2BA DUP6 PUSH3 0x1E7 JUMP JUMPDEST DUP5 MSTORE SWAP4 DUP6 ADD SWAP4 SWAP3 DUP6 ADD SWAP3 PUSH3 0x2A6 JUMP JUMPDEST SWAP9 SWAP8 POP POP POP POP POP POP POP POP JUMP JUMPDEST PUSH4 0x4E487B71 PUSH1 0xE0 SHL PUSH1 0x0 MSTORE PUSH1 0x32 PUSH1 0x4 MSTORE PUSH1 0x24 PUSH1 0x0 REVERT JUMPDEST PUSH1 0x0 PUSH1 0x1 DUP3 ADD PUSH3 0x30D JUMPI PUSH4 0x4E487B71 PUSH1 0xE0 SHL PUSH1 0x0 MSTORE PUSH1 0x11 PUSH1 0x4 MSTORE PUSH1 0x24 PUSH1 0x0 REVERT JUMPDEST POP PUSH1 0x1 ADD SWAP1 JUMP JUMPDEST PUSH2 0xC6A DUP1 PUSH3 0x324 PUSH1 0x0 CODECOPY PUSH1 0x0 RETURN INVALID PUSH1 0x80 PUSH1 0x40 MSTORE CALLVALUE DUP1 ISZERO PUSH2 0x10 JUMPI PUSH1 0x0 DUP1 REVERT JUMPDEST POP PUSH1 0x4 CALLDATASIZE LT PUSH2 0x100 JUMPI PUSH1 0x0 CALLDATALOAD PUSH1 0xE0 SHR DUP1 PUSH4 0x66E305FD GT PUSH2 0x97 JUMPI DUP1 PUSH4 0x8DA5CB5B GT PUSH2 0x66 JUMPI DUP1 PUSH4 0x8DA5CB5B EQ PUSH2 0x222 JUMPI DUP1 PUSH4 0x9B7ECF22 EQ PUSH2 0x233 JUMPI DUP1 PUSH4 0xD48BFCA7 EQ PUSH2 0x253 JUMPI DUP1 PUSH4 0xF2FDE38B EQ PUSH2 0x266 JUMPI PUSH1 0x0 DUP1 REVERT JUMPDEST DUP1 PUSH4 0x66E305FD EQ PUSH2 0x1DE JUMPI DUP1 PUSH4 0x715018A6 EQ PUSH2 0x201 JUMPI DUP1 PUSH4 0x748CDCDC EQ PUSH2 0x209 JUMPI DUP1 PUSH4 0x74D0C73F EQ PUSH2 0x211 JUMPI PUSH1 0x0 DUP1 REVERT JUMPDEST DUP1 PUSH4 0x44B22FDD GT PUSH2 0xD3 JUMPI DUP1 PUSH4 0x44B22FDD EQ PUSH2 0x192 JUMPI DUP1 PUSH4 0x4AE05C7D EQ PUSH2 0x1A5 JUMPI DUP1 PUSH4 0x5914220D EQ PUSH2 0x1B8 JUMPI DUP1 PUSH4 0x5FA7B584 EQ PUSH2 0x1CB JUMPI PUSH1 0x0 DUP1 REVERT JUMPDEST DUP1 PUSH4 0xE27E3DF EQ PUSH2 0x105 JUMPI DUP1 PUSH4 0x15BAA8C0 EQ PUSH2 0x11A JUMPI DUP1 PUSH4 0x1EFE4B0C EQ PUSH2 0x14A JUMPI DUP1 PUSH4 0x3B729B86 EQ PUSH2 0x17D JUMPI JUMPDEST PUSH1 0x0 DUP1 REVERT JUMPDEST PUSH2 0x118 PUSH2 0x113 CALLDATASIZE PUSH1 0x4 PUSH2 0xA9C JUMP JUMPDEST PUSH2 0x279 JUMP JUMPDEST STOP JUMPDEST PUSH2 0x12D PUSH2 0x128 CALLDATASIZE PUSH1 0x4 PUSH2 0xACC JUMP JUMPDEST PUSH2 0x313 JUMP JUMPDEST PUSH1 0x40 MLOAD PUSH1 0x1 PUSH1 0x1 PUSH1 0xA0 SHL SUB SWAP1 SWAP2 AND DUP2 MSTORE PUSH1 0x20 ADD JUMPDEST PUSH1 0x40 MLOAD DUP1 SWAP2 SUB SWAP1 RETURN JUMPDEST PUSH2 0x16D PUSH2 0x158 CALLDATASIZE PUSH1 0x4 PUSH2 0xA9C JUMP JUMPDEST PUSH1 0x3 PUSH1 0x20 MSTORE PUSH1 0x0 SWAP1 DUP2 MSTORE PUSH1 0x40 SWAP1 KECCAK256 SLOAD PUSH1 0xFF AND DUP2 JUMP JUMPDEST PUSH1 0x40 MLOAD SWAP1 ISZERO ISZERO DUP2 MSTORE PUSH1 0x20 ADD PUSH2 0x141 JUMP JUMPDEST PUSH2 0x185 PUSH2 0x33D JUMP JUMPDEST PUSH1 0x40 MLOAD PUSH2 0x141 SWAP2 SWAP1 PUSH2 0xAE5 JUMP JUMPDEST PUSH2 0x118 PUSH2 0x1A0 CALLDATASIZE PUSH1 0x4 PUSH2 0xA9C JUMP JUMPDEST PUSH2 0x39F JUMP JUMPDEST PUSH2 0x118 PUSH2 0x1B3 CALLDATASIZE PUSH1 0x4 PUSH2 0xB32 JUMP JUMPDEST PUSH2 0x49F JUMP JUMPDEST PUSH2 0x12D PUSH2 0x1C6 CALLDATASIZE PUSH1 0x4 PUSH2 0xACC JUMP JUMPDEST PUSH2 0x594 JUMP JUMPDEST PUSH2 0x118 PUSH2 0x1D9 CALLDATASIZE PUSH1 0x4 PUSH2 0xA9C JUMP JUMPDEST PUSH2 0x5A4 JUMP JUMPDEST PUSH2 0x16D PUSH2 0x1EC CALLDATASIZE PUSH1 0x4 PUSH2 0xA9C JUMP JUMPDEST PUSH1 0x1 PUSH1 0x20 MSTORE PUSH1 0x0 SWAP1 DUP2 MSTORE PUSH1 0x40 SWAP1 KECCAK256 SLOAD PUSH1 0xFF AND DUP2 JUMP JUMPDEST PUSH2 0x118 PUSH2 0x660 JUMP JUMPDEST PUSH2 0x185 PUSH2 0x674 JUMP JUMPDEST PUSH1 0x2 SLOAD PUSH1 0x40 MLOAD SWAP1 DUP2 MSTORE PUSH1 0x20 ADD PUSH2 0x141 JUMP JUMPDEST PUSH1 0x0 SLOAD PUSH1 0x1 PUSH1 0x1 PUSH1 0xA0 SHL SUB AND PUSH2 0x12D JUMP JUMPDEST PUSH2 0x246 PUSH2 0x241 CALLDATASIZE PUSH1 0x4 PUSH2 0xB32 JUMP JUMPDEST PUSH2 0x7FE JUMP JUMPDEST PUSH1 0x40 MLOAD PUSH2 0x141 SWAP2 SWAP1 PUSH2 0xBA7 JUMP JUMPDEST PUSH2 0x118 PUSH2 0x261 CALLDATASIZE PUSH1 0x4 PUSH2 0xA9C JUMP JUMPDEST PUSH2 0x8D8 JUMP JUMPDEST PUSH2 0x118 PUSH2 0x274 CALLDATASIZE PUSH1 0x4 PUSH2 0xA9C JUMP JUMPDEST PUSH2 0x958 JUMP JUMPDEST PUSH2 0x281 PUSH2 0x993 JUMP JUMPDEST PUSH1 0x1 PUSH1 0x1 PUSH1 0xA0 SHL SUB DUP2 AND PUSH1 0x0 SWAP1 DUP2 MSTORE PUSH1 0x3 PUSH1 0x20 MSTORE PUSH1 0x40 SWAP1 KECCAK256 SLOAD PUSH1 0xFF AND PUSH2 0x2CA JUMPI PUSH1 0x40 MLOAD PUSH4 0xBFC6C337 PUSH1 0xE0 SHL DUP2 MSTORE PUSH1 0x1 PUSH1 0x1 PUSH1 0xA0 SHL SUB DUP3 AND PUSH1 0x4 DUP3 ADD MSTORE PUSH1 0x24 ADD JUMPDEST PUSH1 0x40 MLOAD DUP1 SWAP2 SUB SWAP1 REVERT JUMPDEST PUSH1 0x1 PUSH1 0x1 PUSH1 0xA0 SHL SUB DUP2 AND PUSH1 0x0 DUP2 DUP2 MSTORE PUSH1 0x3 PUSH1 0x20 MSTORE PUSH1 0x40 DUP1 DUP3 KECCAK256 DUP1 SLOAD PUSH1 0xFF NOT AND SWAP1 SSTORE MLOAD PUSH32 0xE3F5ED5F263F1F01764A96EDFC7D025F511EC5F7D180E8816908B78BCF74F098 SWAP2 SWAP1 LOG2 POP JUMP JUMPDEST PUSH1 0x4 DUP2 DUP2 SLOAD DUP2 LT PUSH2 0x323 JUMPI PUSH1 0x0 DUP1 REVERT JUMPDEST PUSH1 0x0 SWAP2 DUP3 MSTORE PUSH1 0x20 SWAP1 SWAP2 KECCAK256 ADD SLOAD PUSH1 0x1 PUSH1 0x1 PUSH1 0xA0 SHL SUB AND SWAP1 POP DUP2 JUMP JUMPDEST PUSH1 0x60 PUSH1 0x4 DUP1 SLOAD DUP1 PUSH1 0x20 MUL PUSH1 0x20 ADD PUSH1 0x40 MLOAD SWAP1 DUP2 ADD PUSH1 0x40 MSTORE DUP1 SWAP3 SWAP2 SWAP1 DUP2 DUP2 MSTORE PUSH1 0x20 ADD DUP3 DUP1 SLOAD DUP1 ISZERO PUSH2 0x395 JUMPI PUSH1 0x20 MUL DUP3 ADD SWAP2 SWAP1 PUSH1 0x0 MSTORE PUSH1 0x20 PUSH1 0x0 KECCAK256 SWAP1 JUMPDEST DUP2 SLOAD PUSH1 0x1 PUSH1 0x1 PUSH1 0xA0 SHL SUB AND DUP2 MSTORE PUSH1 0x1 SWAP1 SWAP2 ADD SWAP1 PUSH1 0x20 ADD DUP1 DUP4 GT PUSH2 0x377 JUMPI JUMPDEST POP POP POP POP POP SWAP1 POP SWAP1 JUMP JUMPDEST PUSH2 0x3A7 PUSH2 0x993 JUMP JUMPDEST PUSH1 0x1 PUSH1 0x1 PUSH1 0xA0 SHL SUB DUP2 AND PUSH2 0x3CE JUMPI PUSH1 0x40 MLOAD PUSH4 0xD92E233D PUSH1 0xE0 SHL DUP2 MSTORE PUSH1 0x4 ADD PUSH1 0x40 MLOAD DUP1 SWAP2 SUB SWAP1 REVERT JUMPDEST PUSH1 0x1 PUSH1 0x1 PUSH1 0xA0 SHL SUB DUP2 AND PUSH1 0x0 SWAP1 DUP2 MSTORE PUSH1 0x3 PUSH1 0x20 MSTORE PUSH1 0x40 SWAP1 KECCAK256 SLOAD PUSH1 0xFF AND ISZERO PUSH2 0x413 JUMPI PUSH1 0x40 MLOAD PUSH4 0x45ED80E9 PUSH1 0xE0 SHL DUP2 MSTORE PUSH1 0x1 PUSH1 0x1 PUSH1 0xA0 SHL SUB DUP3 AND PUSH1 0x4 DUP3 ADD MSTORE PUSH1 0x24 ADD PUSH2 0x2C1 JUMP JUMPDEST PUSH1 0x1 PUSH1 0x1 PUSH1 0xA0 SHL SUB DUP2 AND PUSH1 0x0 DUP2 DUP2 MSTORE PUSH1 0x3 PUSH1 0x20 MSTORE PUSH1 0x40 DUP1 DUP3 KECCAK256 DUP1 SLOAD PUSH1 0xFF NOT AND PUSH1 0x1 SWAP1 DUP2 OR SWAP1 SWAP2 SSTORE PUSH1 0x4 DUP1 SLOAD SWAP2 DUP3 ADD DUP2 SSTORE DUP4 MSTORE PUSH32 0x8A35ACFBC15FF81A39AE7D344FD709F28E8600B4AA8C65C6B64BFE7FE36BD19B ADD DUP1 SLOAD PUSH1 0x1 PUSH1 0x1 PUSH1 0xA0 SHL SUB NOT AND DUP5 OR SWAP1 SSTORE MLOAD PUSH32 0x20F06CF92183FB3BD87D074EC788BEB83367293FAF2388C274B4BAD9AECAE725 SWAP2 SWAP1 LOG2 POP JUMP JUMPDEST PUSH2 0x4A7 PUSH2 0x993 JUMP JUMPDEST PUSH1 0x0 JUMPDEST DUP2 DUP2 LT ISZERO PUSH2 0x58F JUMPI PUSH1 0x0 DUP4 DUP4 DUP4 DUP2 DUP2 LT PUSH2 0x4C6 JUMPI PUSH2 0x4C6 PUSH2 0xBE1 JUMP JUMPDEST SWAP1 POP PUSH1 0x20 MUL ADD PUSH1 0x20 DUP2 ADD SWAP1 PUSH2 0x4DB SWAP2 SWAP1 PUSH2 0xA9C JUMP JUMPDEST PUSH1 0x1 PUSH1 0x1 PUSH1 0xA0 SHL SUB AND SUB PUSH2 0x502 JUMPI PUSH1 0x40 MLOAD PUSH4 0xD92E233D PUSH1 0xE0 SHL DUP2 MSTORE PUSH1 0x4 ADD PUSH1 0x40 MLOAD DUP1 SWAP2 SUB SWAP1 REVERT JUMPDEST PUSH1 0x1 PUSH1 0x0 DUP5 DUP5 DUP5 DUP2 DUP2 LT PUSH2 0x518 JUMPI PUSH2 0x518 PUSH2 0xBE1 JUMP JUMPDEST SWAP1 POP PUSH1 0x20 MUL ADD PUSH1 0x20 DUP2 ADD SWAP1 PUSH2 0x52D SWAP2 SWAP1 PUSH2 0xA9C JUMP JUMPDEST PUSH1 0x1 PUSH1 0x1 PUSH1 0xA0 SHL SUB AND DUP2 MSTORE PUSH1 0x20 DUP2 ADD SWAP2 SWAP1 SWAP2 MSTORE PUSH1 0x40 ADD PUSH1 0x0 KECCAK256 SLOAD PUSH1 0xFF AND PUSH2 0x57D JUMPI PUSH2 0x57D DUP4 DUP4 DUP4 DUP2 DUP2 LT PUSH2 0x563 JUMPI PUSH2 0x563 PUSH2 0xBE1 JUMP JUMPDEST SWAP1 POP PUSH1 0x20 MUL ADD PUSH1 0x20 DUP2 ADD SWAP1 PUSH2 0x578 SWAP2 SWAP1 PUSH2 0xA9C JUMP JUMPDEST PUSH2 0x9C0 JUMP JUMPDEST DUP1 PUSH2 0x587 DUP2 PUSH2 0xBF7 JUMP JUMPDEST SWAP2 POP POP PUSH2 0x4AA JUMP JUMPDEST POP POP POP JUMP JUMPDEST PUSH1 0x2 DUP2 DUP2 SLOAD DUP2 LT PUSH2 0x323 JUMPI PUSH1 0x0 DUP1 REVERT JUMPDEST PUSH2 0x5AC PUSH2 0x993 JUMP JUMPDEST PUSH1 0x1 PUSH1 0x1 PUSH1 0xA0 SHL SUB DUP2 AND PUSH2 0x5D3 JUMPI PUSH1 0x40 MLOAD PUSH4 0xD92E233D PUSH1 0xE0 SHL DUP2 MSTORE PUSH1 0x4 ADD PUSH1 0x40 MLOAD DUP1 SWAP2 SUB SWAP1 REVERT JUMPDEST PUSH1 0x1 PUSH1 0x1 PUSH1 0xA0 SHL SUB DUP2 AND PUSH1 0x0 SWAP1 DUP2 MSTORE PUSH1 0x1 PUSH1 0x20 MSTORE PUSH1 0x40 SWAP1 KECCAK256 SLOAD PUSH1 0xFF AND PUSH2 0x617 JUMPI PUSH1 0x40 MLOAD PUSH4 0x3A1C1545 PUSH1 0xE0 SHL DUP2 MSTORE PUSH1 0x1 PUSH1 0x1 PUSH1 0xA0 SHL SUB DUP3 AND PUSH1 0x4 DUP3 ADD MSTORE PUSH1 0x24 ADD PUSH2 0x2C1 JUMP JUMPDEST PUSH1 0x1 PUSH1 0x1 PUSH1 0xA0 SHL SUB DUP2 AND PUSH1 0x0 DUP2 DUP2 MSTORE PUSH1 0x1 PUSH1 0x20 MSTORE PUSH1 0x40 DUP1 DUP3 KECCAK256 DUP1 SLOAD PUSH1 0xFF NOT AND SWAP1 SSTORE MLOAD PUSH32 0x4C910B69FE65A61F7531B9C5042B2329CA7179C77290AA7E2EB3AFA3C8511FD3 SWAP2 SWAP1 LOG2 POP JUMP JUMPDEST PUSH2 0x668 PUSH2 0x993 JUMP JUMPDEST PUSH2 0x672 PUSH1 0x0 PUSH2 0xA4C JUMP JUMPDEST JUMP JUMPDEST PUSH1 0x60 PUSH1 0x0 DUP1 JUMPDEST PUSH1 0x2 SLOAD DUP2 LT ISZERO PUSH2 0x6E8 JUMPI PUSH1 0x1 PUSH1 0x0 PUSH1 0x2 DUP4 DUP2 SLOAD DUP2 LT PUSH2 0x69B JUMPI PUSH2 0x69B PUSH2 0xBE1 JUMP JUMPDEST PUSH1 0x0 SWAP2 DUP3 MSTORE PUSH1 0x20 DUP1 DUP4 KECCAK256 SWAP1 SWAP2 ADD SLOAD PUSH1 0x1 PUSH1 0x1 PUSH1 0xA0 SHL SUB AND DUP4 MSTORE DUP3 ADD SWAP3 SWAP1 SWAP3 MSTORE PUSH1 0x40 ADD SWAP1 KECCAK256 SLOAD PUSH1 0xFF AND ISZERO PUSH2 0x6D6 JUMPI DUP2 PUSH2 0x6D2 DUP2 PUSH2 0xBF7 JUMP JUMPDEST SWAP3 POP POP JUMPDEST DUP1 PUSH2 0x6E0 DUP2 PUSH2 0xBF7 JUMP JUMPDEST SWAP2 POP POP PUSH2 0x67A JUMP JUMPDEST POP DUP1 PUSH8 0xFFFFFFFFFFFFFFFF DUP2 GT ISZERO PUSH2 0x702 JUMPI PUSH2 0x702 PUSH2 0xC1E JUMP JUMPDEST PUSH1 0x40 MLOAD SWAP1 DUP1 DUP3 MSTORE DUP1 PUSH1 0x20 MUL PUSH1 0x20 ADD DUP3 ADD PUSH1 0x40 MSTORE DUP1 ISZERO PUSH2 0x72B JUMPI DUP2 PUSH1 0x20 ADD PUSH1 0x20 DUP3 MUL DUP1 CALLDATASIZE DUP4 CALLDATACOPY ADD SWAP1 POP JUMPDEST POP SWAP2 POP PUSH1 0x0 DUP1 JUMPDEST PUSH1 0x2 SLOAD DUP2 LT ISZERO PUSH2 0x7F8 JUMPI PUSH1 0x1 PUSH1 0x0 PUSH1 0x2 DUP4 DUP2 SLOAD DUP2 LT PUSH2 0x753 JUMPI PUSH2 0x753 PUSH2 0xBE1 JUMP JUMPDEST PUSH1 0x0 SWAP2 DUP3 MSTORE PUSH1 0x20 DUP1 DUP4 KECCAK256 SWAP1 SWAP2 ADD SLOAD PUSH1 0x1 PUSH1 0x1 PUSH1 0xA0 SHL SUB AND DUP4 MSTORE DUP3 ADD SWAP3 SWAP1 SWAP3 MSTORE PUSH1 0x40 ADD SWAP1 KECCAK256 SLOAD PUSH1 0xFF AND ISZERO PUSH2 0x7E6 JUMPI PUSH1 0x2 DUP2 DUP2 SLOAD DUP2 LT PUSH2 0x793 JUMPI PUSH2 0x793 PUSH2 0xBE1 JUMP JUMPDEST PUSH1 0x0 SWAP2 DUP3 MSTORE PUSH1 0x20 SWAP1 SWAP2 KECCAK256 ADD SLOAD PUSH1 0x1 PUSH1 0x1 PUSH1 0xA0 SHL SUB AND DUP5 DUP4 PUSH2 0x7B3 DUP2 PUSH2 0xBF7 JUMP JUMPDEST SWAP5 POP DUP2 MLOAD DUP2 LT PUSH2 0x7C5 JUMPI PUSH2 0x7C5 PUSH2 0xBE1 JUMP JUMPDEST PUSH1 0x20 MUL PUSH1 0x20 ADD ADD SWAP1 PUSH1 0x1 PUSH1 0x1 PUSH1 0xA0 SHL SUB AND SWAP1 DUP2 PUSH1 0x1 PUSH1 0x1 PUSH1 0xA0 SHL SUB AND DUP2 MSTORE POP POP JUMPDEST DUP1 PUSH2 0x7F0 DUP2 PUSH2 0xBF7 JUMP JUMPDEST SWAP2 POP POP PUSH2 0x732 JUMP JUMPDEST POP POP POP SWAP1 JUMP JUMPDEST PUSH1 0x60 DUP2 PUSH8 0xFFFFFFFFFFFFFFFF DUP2 GT ISZERO PUSH2 0x819 JUMPI PUSH2 0x819 PUSH2 0xC1E JUMP JUMPDEST PUSH1 0x40 MLOAD SWAP1 DUP1 DUP3 MSTORE DUP1 PUSH1 0x20 MUL PUSH1 0x20 ADD DUP3 ADD PUSH1 0x40 MSTORE DUP1 ISZERO PUSH2 0x842 JUMPI DUP2 PUSH1 0x20 ADD PUSH1 0x20 DUP3 MUL DUP1 CALLDATASIZE DUP4 CALLDATACOPY ADD SWAP1 POP JUMPDEST POP SWAP1 POP PUSH1 0x0 JUMPDEST DUP3 DUP2 LT ISZERO PUSH2 0x8D1 JUMPI PUSH1 0x1 PUSH1 0x0 DUP6 DUP6 DUP5 DUP2 DUP2 LT PUSH2 0x866 JUMPI PUSH2 0x866 PUSH2 0xBE1 JUMP JUMPDEST SWAP1 POP PUSH1 0x20 MUL ADD PUSH1 0x20 DUP2 ADD SWAP1 PUSH2 0x87B SWAP2 SWAP1 PUSH2 0xA9C JUMP JUMPDEST PUSH1 0x1 PUSH1 0x1 PUSH1 0xA0 SHL SUB AND DUP2 MSTORE PUSH1 0x20 DUP2 ADD SWAP2 SWAP1 SWAP2 MSTORE PUSH1 0x40 ADD PUSH1 0x0 KECCAK256 SLOAD DUP3 MLOAD PUSH1 0xFF SWAP1 SWAP2 AND SWAP1 DUP4 SWAP1 DUP4 SWAP1 DUP2 LT PUSH2 0x8AF JUMPI PUSH2 0x8AF PUSH2 0xBE1 JUMP JUMPDEST SWAP2 ISZERO ISZERO PUSH1 0x20 SWAP3 DUP4 MUL SWAP2 SWAP1 SWAP2 ADD SWAP1 SWAP2 ADD MSTORE DUP1 PUSH2 0x8C9 DUP2 PUSH2 0xBF7 JUMP JUMPDEST SWAP2 POP POP PUSH2 0x848 JUMP JUMPDEST POP SWAP3 SWAP2 POP POP JUMP JUMPDEST PUSH2 0x8E0 PUSH2 0x993 JUMP JUMPDEST PUSH1 0x1 PUSH1 0x1 PUSH1 0xA0 SHL SUB DUP2 AND PUSH2 0x907 JUMPI PUSH1 0x40 MLOAD PUSH4 0xD92E233D PUSH1 0xE0 SHL DUP2 MSTORE PUSH1 0x4 ADD PUSH1 0x40 MLOAD DUP1 SWAP2 SUB SWAP1 REVERT JUMPDEST PUSH1 0x1 PUSH1 0x1 PUSH1 0xA0 SHL SUB DUP2 AND PUSH1 0x0 SWAP1 DUP2 MSTORE PUSH1 0x1 PUSH1 0x20 MSTORE PUSH1 0x40 SWAP1 KECCAK256 SLOAD PUSH1 0xFF AND ISZERO PUSH2 0x94C JUMPI PUSH1 0x40 MLOAD PUSH4 0x2B351261 PUSH1 0xE2 SHL DUP2 MSTORE PUSH1 0x1 PUSH1 0x1 PUSH1 0xA0 SHL SUB DUP3 AND PUSH1 0x4 DUP3 ADD MSTORE PUSH1 0x24 ADD PUSH2 0x2C1 JUMP JUMPDEST PUSH2 0x955 DUP2 PUSH2 0x9C0 JUMP JUMPDEST POP JUMP JUMPDEST PUSH2 0x960 PUSH2 0x993 JUMP JUMPDEST PUSH1 0x1 PUSH1 0x1 PUSH1 0xA0 SHL SUB DUP2 AND PUSH2 0x98A JUMPI PUSH1 0x40 MLOAD PUSH4 0x1E4FBDF7 PUSH1 0xE0 SHL DUP2 MSTORE PUSH1 0x0 PUSH1 0x4 DUP3 ADD MSTORE PUSH1 0x24 ADD PUSH2 0x2C1 JUMP JUMPDEST PUSH2 0x955 DUP2 PUSH2 0xA4C JUMP JUMPDEST PUSH1 0x0 SLOAD PUSH1 0x1 PUSH1 0x1 PUSH1 0xA0 SHL SUB AND CALLER EQ PUSH2 0x672 JUMPI PUSH1 0x40 MLOAD PUSH4 0x118CDAA7 PUSH1 0xE0 SHL DUP2 MSTORE CALLER PUSH1 0x4 DUP3 ADD MSTORE PUSH1 0x24 ADD PUSH2 0x2C1 JUMP JUMPDEST PUSH1 0x1 PUSH1 0x1 PUSH1 0xA0 SHL SUB DUP2 AND PUSH1 0x0 DUP2 DUP2 MSTORE PUSH1 0x1 PUSH1 0x20 DUP2 SWAP1 MSTORE PUSH1 0x40 DUP1 DUP4 KECCAK256 DUP1 SLOAD PUSH1 0xFF NOT AND DUP4 OR SWAP1 SSTORE PUSH1 0x2 DUP1 SLOAD SWAP3 DUP4 ADD DUP2 SSTORE DUP4 MSTORE PUSH32 0x405787FA12A823E0F2B7631CC41B3BA8828B3321CA811111FA75CD3AA3BB5ACE SWAP1 SWAP2 ADD DUP1 SLOAD PUSH1 0x1 PUSH1 0x1 PUSH1 0xA0 SHL SUB NOT AND DUP5 OR SWAP1 SSTORE MLOAD PUSH32 0x784C8F4DBF0FFEDD6E72C76501C545A70F8B203B30A26CE542BF92BA87C248A4 SWAP2 SWAP1 LOG2 POP JUMP JUMPDEST PUSH1 0x0 DUP1 SLOAD PUSH1 0x1 PUSH1 0x1 PUSH1 0xA0 SHL SUB DUP4 DUP2 AND PUSH1 0x1 PUSH1 0x1 PUSH1 0xA0 SHL SUB NOT DUP4 AND DUP2 OR DUP5 SSTORE PUSH1 0x40 MLOAD SWAP2 SWAP1 SWAP3 AND SWAP3 DUP4 SWAP2 PUSH32 0x8BE0079C531659141344CD1FD0A4F28419497F9722A3DAAFE3B4186F6B6457E0 SWAP2 SWAP1 LOG3 POP POP JUMP JUMPDEST PUSH1 0x0 PUSH1 0x20 DUP3 DUP5 SUB SLT ISZERO PUSH2 0xAAE JUMPI PUSH1 0x0 DUP1 REVERT JUMPDEST DUP2 CALLDATALOAD PUSH1 0x1 PUSH1 0x1 PUSH1 0xA0 SHL SUB DUP2 AND DUP2 EQ PUSH2 0xAC5 JUMPI PUSH1 0x0 DUP1 REVERT JUMPDEST SWAP4 SWAP3 POP POP POP JUMP JUMPDEST PUSH1 0x0 PUSH1 0x20 DUP3 DUP5 SUB SLT ISZERO PUSH2 0xADE JUMPI PUSH1 0x0 DUP1 REVERT JUMPDEST POP CALLDATALOAD SWAP2 SWAP1 POP JUMP JUMPDEST PUSH1 0x20 DUP1 DUP3 MSTORE DUP3 MLOAD DUP3 DUP3 ADD DUP2 SWAP1 MSTORE PUSH1 0x0 SWAP2 SWAP1 DUP5 DUP3 ADD SWAP1 PUSH1 0x40 DUP6 ADD SWAP1 DUP5 JUMPDEST DUP2 DUP2 LT ISZERO PUSH2 0xB26 JUMPI DUP4 MLOAD PUSH1 0x1 PUSH1 0x1 PUSH1 0xA0 SHL SUB AND DUP4 MSTORE SWAP3 DUP5 ADD SWAP3 SWAP2 DUP5 ADD SWAP2 PUSH1 0x1 ADD PUSH2 0xB01 JUMP JUMPDEST POP SWAP1 SWAP7 SWAP6 POP POP POP POP POP POP JUMP JUMPDEST PUSH1 0x0 DUP1 PUSH1 0x20 DUP4 DUP6 SUB SLT ISZERO PUSH2 0xB45 JUMPI PUSH1 0x0 DUP1 REVERT JUMPDEST DUP3 CALLDATALOAD PUSH8 0xFFFFFFFFFFFFFFFF DUP1 DUP3 GT ISZERO PUSH2 0xB5D JUMPI PUSH1 0x0 DUP1 REVERT JUMPDEST DUP2 DUP6 ADD SWAP2 POP DUP6 PUSH1 0x1F DUP4 ADD SLT PUSH2 0xB71 JUMPI PUSH1 0x0 DUP1 REVERT JUMPDEST DUP2 CALLDATALOAD DUP2 DUP2 GT ISZERO PUSH2 0xB80 JUMPI PUSH1 0x0 DUP1 REVERT JUMPDEST DUP7 PUSH1 0x20 DUP3 PUSH1 0x5 SHL DUP6 ADD ADD GT ISZERO PUSH2 0xB95 JUMPI PUSH1 0x0 DUP1 REVERT JUMPDEST PUSH1 0x20 SWAP3 SWAP1 SWAP3 ADD SWAP7 SWAP2 SWAP6 POP SWAP1 SWAP4 POP POP POP POP JUMP JUMPDEST PUSH1 0x20 DUP1 DUP3 MSTORE DUP3 MLOAD DUP3 DUP3 ADD DUP2 SWAP1 MSTORE PUSH1 0x0 SWAP2 SWAP1 DUP5 DUP3 ADD SWAP1 PUSH1 0x40 DUP6 ADD SWAP1 DUP5 JUMPDEST DUP2 DUP2 LT ISZERO PUSH2 0xB26 JUMPI DUP4 MLOAD ISZERO ISZERO DUP4 MSTORE SWAP3 DUP5 ADD SWAP3 SWAP2 DUP5 ADD SWAP2 PUSH1 0x1 ADD PUSH2 0xBC3 JUMP JUMPDEST PUSH4 0x4E487B71 PUSH1 0xE0 SHL PUSH1 0x0 MSTORE PUSH1 0x32 PUSH1 0x4 MSTORE PUSH1 0x24 PUSH1 0x0 REVERT JUMPDEST PUSH1 0x0 PUSH1 0x1 DUP3 ADD PUSH2 0xC17 JUMPI PUSH4 0x4E487B71 PUSH1 0xE0 SHL PUSH1 0x0 MSTORE PUSH1 0x11 PUSH1 0x4 MSTORE PUSH1 0x24 PUSH1 0x0 REVERT JUMPDEST POP PUSH1 0x1 ADD SWAP1 JUMP JUMPDEST PUSH4 0x4E487B71 PUSH1 0xE0 SHL PUSH1 0x0 MSTORE PUSH1 0x41 PUSH1 0x4 MSTORE PUSH1 0x24 PUSH1 0x0 REVERT INVALID LOG2 PUSH5 0x6970667358 0x22 SLT KECCAK256 DUP14 PUSH26 0x18326C028510CADAA452A9FB6894ED6B0FDC6A09DFA2A4B840F4 0xBE 0xC5 0xBF RETURNDATASIZE PUSH5 0x736F6C6343 STOP ADDMOD EQ STOP CALLER "
				},
				"gasEstimates": {
					"creation": {
						"codeDepositCost": "635600",
						"executionCost": "infinite",
						"totalCost": "infinite"
					},
					"external": {
						"addToken(address)": "78702",
						"addTokens(address[])": "infinite",
						"areEligible(address[])": "infinite",
						"consumerList(uint256)": "4649",
						"eligibleTokenList(uint256)": "4670",
						"getConsumers()": "infinite",
						"getEligibleTokens()": "infinite",
						"isEligible(address)": "2519",
						"owner()": "2342",
						"registerConsumer(address)": "78627",
						"registeredConsumers(address)": "2564",
						"removeConsumer(address)": "30112",
						"removeToken(address)": "30212",
						"renounceOwnership()": "infinite",
						"totalTokensAdded()": "2369",
						"transferOwnership(address)": "28386"
					},
					"internal": {
						"_addToken(address)": "73946"
					}
				},
				"methodIdentifiers": {
					"addToken(address)": "d48bfca7",
					"addTokens(address[])": "4ae05c7d",
					"areEligible(address[])": "9b7ecf22",
					"consumerList(uint256)": "15baa8c0",
					"eligibleTokenList(uint256)": "5914220d",
					"getConsumers()": "3b729b86",
					"getEligibleTokens()": "748cdcdc",
					"isEligible(address)": "66e305fd",
					"owner()": "8da5cb5b",
					"registerConsumer(address)": "44b22fdd",
					"registeredConsumers(address)": "1efe4b0c",
					"removeConsumer(address)": "0e27e3df",
					"removeToken(address)": "5fa7b584",
					"renounceOwnership()": "715018a6",
					"totalTokensAdded()": "74d0c73f",
					"transferOwnership(address)": "f2fde38b"
				}
			},
			"storageLayout": {
				"storage": [
					{
						"astId": 456,
						"contract": "/contracts/EligibleTokenRegistry.sol:EligibleTokenRegistry",
						"label": "_owner",
						"offset": 0,
						"slot": "0",
						"type": "t_address"
					},
					{
						"astId": 10,
						"contract": "/contracts/EligibleTokenRegistry.sol:EligibleTokenRegistry",
						"label": "isEligible",
						"offset": 0,
						"slot": "1",
						"type": "t_mapping(t_address,t_bool)"
					},
					{
						"astId": 14,
						"contract": "/contracts/EligibleTokenRegistry.sol:EligibleTokenRegistry",
						"label": "eligibleTokenList",
						"offset": 0,
						"slot": "2",
						"type": "t_array(t_address)dyn_storage"
					},
					{
						"astId": 19,
						"contract": "/contracts/EligibleTokenRegistry.sol:EligibleTokenRegistry",
						"label": "registeredConsumers",
						"offset": 0,
						"slot": "3",
						"type": "t_mapping(t_address,t_bool)"
					},
					{
						"astId": 22,
						"contract": "/contracts/EligibleTokenRegistry.sol:EligibleTokenRegistry",
						"label": "consumerList",
						"offset": 0,
						"slot": "4",
						"type": "t_array(t_address)dyn_storage"
					}
				],
				"types": {
					"t_address": {
						"encoding": "inplace",
						"label": "address",
						"numberOfBytes": "20"
					},
					"t_array(t_address)dyn_storage": {
						"base": "t_address",
						"encoding": "dynamic_array",
						"label": "address[]",
						"numberOfBytes": "32"
					},
					"t_bool": {
						"encoding": "inplace",
						"label": "bool",
						"numberOfBytes": "1"
					},
					"t_mapping(t_address,t_bool)": {
						"encoding": "mapping",
						"key": "t_address",
						"label": "mapping(address => bool)",
						"numberOfBytes": "32",
						"value": "t_bool"
					}
				}
			},
			"userdoc": {
				"kind": "user",
				"methods": {
					"addToken(address)": {
						"notice": "Add a token to the eligible list."
					},
					"addTokens(address[])": {
						"notice": "Add multiple tokens in one call."
					},
					"areEligible(address[])": {
						"notice": "Batch eligibility check — returns bool array matching input."
					},
					"eligibleTokenList(uint256)": {
						"notice": "Ordered list of all ever-added eligible tokens.         Tokens removed from eligibility remain in the array         but isEligible[token] == false."
					},
					"getConsumers()": {
						"notice": "Returns all registered consumer contracts."
					},
					"getEligibleTokens()": {
						"notice": "Returns all currently eligible token addresses."
					},
					"isEligible(address)": {
						"notice": "token address → eligible for swap influence."
					},
					"registerConsumer(address)": {
						"notice": "Register a consumer contract (Router, TimbPrize).         Informational — tracks which contracts read this registry."
					},
					"registeredConsumers(address)": {
						"notice": "Registered consumer contracts (Router, TimbPrize).         Informational — reads are permissionless so no enforcement         needed, but tracked for transparency and frontend queries."
					},
					"removeConsumer(address)": {
						"notice": "Remove a consumer from the registry."
					},
					"removeToken(address)": {
						"notice": "Remove a token from the eligible list."
					},
					"totalTokensAdded()": {
						"notice": "Returns total number of tokens ever added (including removed)."
					}
				},
				"notice": "Shared registry of tokens eligible to influence the TimbSwap         prize game scroll position via swap activity. Purpose:   - Single source of truth for eligible token list.   - Consumed by TimbSwapRouter (before nudgeScroll call) and     TimbPrize (for validation at settlement).   - Decoupled from both contracts — list can be updated without     redeploying Router or TimbPrize. Eligible tokens at launch:   - TIMBS (TimbSwap native token)   - ETH / WETH   - DAPP (existing ecosystem token)   - Owner-extendable at any time. Authorised callers:   - Owner: add/remove tokens.   - Any address: read isEligible() — public view.   - Registered consumers (Router, TimbPrize): no special permissions     needed — reads are permissionless. Security:   - Owner-only writes. No reentrancy risk (no token transfers).   - Removing a token mid-round does not retroactively invalidate     scroll nudges already recorded — those are final on-chain.   - Adding a token takes effect immediately for future swaps. Deployment:   1. Deploy EligibleTokenRegistry(initialTokens[])   2. router.setEligibleRegistry(address(this))   3. timbPrize.setEligibleRegistry(address(this)) (after TimbPrize deploy)   4. Verify on Sourcify",
				"version": 1
			}
		}
	}
}