{
	"/contracts/TimbPrize.sol": {
		"TimbPrize": {
			"abi": [
				{
					"inputs": [
						{
							"internalType": "address",
							"name": "_prizeEscrow",
							"type": "address"
						},
						{
							"internalType": "address",
							"name": "_gameRegistry",
							"type": "address"
						},
						{
							"internalType": "address",
							"name": "_router",
							"type": "address"
						}
					],
					"stateMutability": "nonpayable",
					"type": "constructor"
				},
				{
					"inputs": [
						{
							"internalType": "address",
							"name": "winner",
							"type": "address"
						},
						{
							"internalType": "uint256",
							"name": "round",
							"type": "uint256"
						}
					],
					"name": "AlreadyClaimed",
					"type": "error"
				},
				{
					"inputs": [
						{
							"internalType": "uint256",
							"name": "round",
							"type": "uint256"
						}
					],
					"name": "ClaimWindowExpired",
					"type": "error"
				},
				{
					"inputs": [],
					"name": "EntriesPaused",
					"type": "error"
				},
				{
					"inputs": [],
					"name": "GameAlreadyStarted",
					"type": "error"
				},
				{
					"inputs": [],
					"name": "GameNotStarted",
					"type": "error"
				},
				{
					"inputs": [],
					"name": "InSettlementWindow",
					"type": "error"
				},
				{
					"inputs": [],
					"name": "InsufficientPotBalance",
					"type": "error"
				},
				{
					"inputs": [],
					"name": "InvalidWinnersCount",
					"type": "error"
				},
				{
					"inputs": [
						{
							"internalType": "address",
							"name": "caller",
							"type": "address"
						},
						{
							"internalType": "uint256",
							"name": "round",
							"type": "uint256"
						}
					],
					"name": "NotAWinner",
					"type": "error"
				},
				{
					"inputs": [],
					"name": "NotInSettlementWindow",
					"type": "error"
				},
				{
					"inputs": [],
					"name": "NotRouter",
					"type": "error"
				},
				{
					"inputs": [],
					"name": "NotSettler",
					"type": "error"
				},
				{
					"inputs": [
						{
							"internalType": "address",
							"name": "owner",
							"type": "address"
						}
					],
					"name": "OwnableInvalidOwner",
					"type": "error"
				},
				{
					"inputs": [
						{
							"internalType": "address",
							"name": "account",
							"type": "address"
						}
					],
					"name": "OwnableUnauthorizedAccount",
					"type": "error"
				},
				{
					"inputs": [],
					"name": "ReentrancyGuardReentrantCall",
					"type": "error"
				},
				{
					"inputs": [
						{
							"internalType": "uint256",
							"name": "round",
							"type": "uint256"
						}
					],
					"name": "RoundNotSettled",
					"type": "error"
				},
				{
					"inputs": [
						{
							"internalType": "uint256",
							"name": "elapsed",
							"type": "uint256"
						},
						{
							"internalType": "uint256",
							"name": "required",
							"type": "uint256"
						}
					],
					"name": "SegmentNotComplete",
					"type": "error"
				},
				{
					"inputs": [],
					"name": "SettlementPaused",
					"type": "error"
				},
				{
					"inputs": [],
					"name": "ZeroAddress",
					"type": "error"
				},
				{
					"inputs": [],
					"name": "ZeroAmount",
					"type": "error"
				},
				{
					"anonymous": false,
					"inputs": [
						{
							"indexed": false,
							"internalType": "uint256",
							"name": "timestamp",
							"type": "uint256"
						}
					],
					"name": "GameStarted",
					"type": "event"
				},
				{
					"anonymous": false,
					"inputs": [
						{
							"indexed": true,
							"internalType": "address",
							"name": "previousOwner",
							"type": "address"
						},
						{
							"indexed": true,
							"internalType": "address",
							"name": "newOwner",
							"type": "address"
						}
					],
					"name": "OwnershipTransferred",
					"type": "event"
				},
				{
					"anonymous": false,
					"inputs": [
						{
							"indexed": true,
							"internalType": "uint256",
							"name": "round",
							"type": "uint256"
						},
						{
							"indexed": false,
							"internalType": "uint256",
							"name": "position",
							"type": "uint256"
						},
						{
							"indexed": false,
							"internalType": "bytes6",
							"name": "winningString",
							"type": "bytes6"
						}
					],
					"name": "PositionFrozen",
					"type": "event"
				},
				{
					"anonymous": false,
					"inputs": [
						{
							"indexed": false,
							"internalType": "uint256",
							"name": "amount",
							"type": "uint256"
						},
						{
							"indexed": true,
							"internalType": "address",
							"name": "from",
							"type": "address"
						}
					],
					"name": "PotFunded",
					"type": "event"
				},
				{
					"anonymous": false,
					"inputs": [
						{
							"indexed": false,
							"internalType": "uint256",
							"name": "bps",
							"type": "uint256"
						}
					],
					"name": "ProtocolCutSet",
					"type": "event"
				},
				{
					"anonymous": false,
					"inputs": [
						{
							"indexed": false,
							"internalType": "uint256",
							"name": "amount",
							"type": "uint256"
						}
					],
					"name": "ProtocolCutTaken",
					"type": "event"
				},
				{
					"anonymous": false,
					"inputs": [
						{
							"indexed": true,
							"internalType": "uint256",
							"name": "round",
							"type": "uint256"
						},
						{
							"indexed": false,
							"internalType": "bytes6",
							"name": "winningString",
							"type": "bytes6"
						},
						{
							"indexed": false,
							"internalType": "uint256",
							"name": "potAmount",
							"type": "uint256"
						},
						{
							"indexed": false,
							"internalType": "uint256",
							"name": "numWinners",
							"type": "uint256"
						},
						{
							"indexed": false,
							"internalType": "uint256",
							"name": "remainderR",
							"type": "uint256"
						},
						{
							"indexed": false,
							"internalType": "uint256",
							"name": "totalEntries",
							"type": "uint256"
						},
						{
							"indexed": false,
							"internalType": "uint256",
							"name": "timestamp",
							"type": "uint256"
						}
					],
					"name": "RoundSettled",
					"type": "event"
				},
				{
					"anonymous": false,
					"inputs": [
						{
							"indexed": true,
							"internalType": "uint256",
							"name": "round",
							"type": "uint256"
						},
						{
							"indexed": false,
							"internalType": "uint256",
							"name": "timestamp",
							"type": "uint256"
						}
					],
					"name": "RoundStarted",
					"type": "event"
				},
				{
					"anonymous": false,
					"inputs": [
						{
							"indexed": false,
							"internalType": "uint256",
							"name": "newPosition",
							"type": "uint256"
						},
						{
							"indexed": true,
							"internalType": "uint256",
							"name": "round",
							"type": "uint256"
						},
						{
							"indexed": false,
							"internalType": "uint256",
							"name": "segment",
							"type": "uint256"
						}
					],
					"name": "ScrollNudged",
					"type": "event"
				},
				{
					"anonymous": false,
					"inputs": [
						{
							"indexed": true,
							"internalType": "uint256",
							"name": "round",
							"type": "uint256"
						},
						{
							"indexed": false,
							"internalType": "uint256",
							"name": "segment",
							"type": "uint256"
						},
						{
							"indexed": false,
							"internalType": "uint256",
							"name": "timestamp",
							"type": "uint256"
						}
					],
					"name": "SegmentAdvanced",
					"type": "event"
				},
				{
					"anonymous": false,
					"inputs": [
						{
							"indexed": true,
							"internalType": "address",
							"name": "newSettler",
							"type": "address"
						}
					],
					"name": "SettlerUpdated",
					"type": "event"
				},
				{
					"anonymous": false,
					"inputs": [
						{
							"indexed": false,
							"internalType": "uint256",
							"name": "count",
							"type": "uint256"
						}
					],
					"name": "WinnersPerRoundSet",
					"type": "event"
				},
				{
					"anonymous": false,
					"inputs": [
						{
							"indexed": true,
							"internalType": "address",
							"name": "winner",
							"type": "address"
						},
						{
							"indexed": true,
							"internalType": "uint256",
							"name": "round",
							"type": "uint256"
						},
						{
							"indexed": false,
							"internalType": "uint256",
							"name": "amount",
							"type": "uint256"
						}
					],
					"name": "WinningsClaimed",
					"type": "event"
				},
				{
					"inputs": [],
					"name": "CLAIM_WINDOW_ROUNDS",
					"outputs": [
						{
							"internalType": "uint256",
							"name": "",
							"type": "uint256"
						}
					],
					"stateMutability": "view",
					"type": "function"
				},
				{
					"inputs": [],
					"name": "INTERACTION_WINDOW",
					"outputs": [
						{
							"internalType": "uint256",
							"name": "",
							"type": "uint256"
						}
					],
					"stateMutability": "view",
					"type": "function"
				},
				{
					"inputs": [],
					"name": "ROUND_DURATION",
					"outputs": [
						{
							"internalType": "uint256",
							"name": "",
							"type": "uint256"
						}
					],
					"stateMutability": "view",
					"type": "function"
				},
				{
					"inputs": [],
					"name": "SEGMENTS_PER_ROUND",
					"outputs": [
						{
							"internalType": "uint256",
							"name": "",
							"type": "uint256"
						}
					],
					"stateMutability": "view",
					"type": "function"
				},
				{
					"inputs": [],
					"name": "SEGMENT_DURATION",
					"outputs": [
						{
							"internalType": "uint256",
							"name": "",
							"type": "uint256"
						}
					],
					"stateMutability": "view",
					"type": "function"
				},
				{
					"inputs": [],
					"name": "SETTLEMENT_WINDOW",
					"outputs": [
						{
							"internalType": "uint256",
							"name": "",
							"type": "uint256"
						}
					],
					"stateMutability": "view",
					"type": "function"
				},
				{
					"inputs": [],
					"name": "addToPot",
					"outputs": [],
					"stateMutability": "payable",
					"type": "function"
				},
				{
					"inputs": [
						{
							"internalType": "uint256",
							"name": "round",
							"type": "uint256"
						}
					],
					"name": "claimWinnings",
					"outputs": [],
					"stateMutability": "nonpayable",
					"type": "function"
				},
				{
					"inputs": [],
					"name": "currentAccumulatedRewards",
					"outputs": [
						{
							"internalType": "uint256",
							"name": "",
							"type": "uint256"
						}
					],
					"stateMutability": "view",
					"type": "function"
				},
				{
					"inputs": [],
					"name": "currentRound",
					"outputs": [
						{
							"internalType": "uint256",
							"name": "",
							"type": "uint256"
						}
					],
					"stateMutability": "view",
					"type": "function"
				},
				{
					"inputs": [],
					"name": "currentSegment",
					"outputs": [
						{
							"internalType": "uint256",
							"name": "",
							"type": "uint256"
						}
					],
					"stateMutability": "view",
					"type": "function"
				},
				{
					"inputs": [],
					"name": "eligibleRegistry",
					"outputs": [
						{
							"internalType": "address",
							"name": "",
							"type": "address"
						}
					],
					"stateMutability": "view",
					"type": "function"
				},
				{
					"inputs": [],
					"name": "entriesPaused",
					"outputs": [
						{
							"internalType": "bool",
							"name": "",
							"type": "bool"
						}
					],
					"stateMutability": "view",
					"type": "function"
				},
				{
					"inputs": [],
					"name": "fundPot",
					"outputs": [],
					"stateMutability": "payable",
					"type": "function"
				},
				{
					"inputs": [],
					"name": "gameRegistry",
					"outputs": [
						{
							"internalType": "address",
							"name": "",
							"type": "address"
						}
					],
					"stateMutability": "view",
					"type": "function"
				},
				{
					"inputs": [],
					"name": "gameStarted",
					"outputs": [
						{
							"internalType": "bool",
							"name": "",
							"type": "bool"
						}
					],
					"stateMutability": "view",
					"type": "function"
				},
				{
					"inputs": [],
					"name": "gameUnclaimed_winningsPool",
					"outputs": [
						{
							"internalType": "uint256",
							"name": "",
							"type": "uint256"
						}
					],
					"stateMutability": "view",
					"type": "function"
				},
				{
					"inputs": [],
					"name": "getCurrentWindow",
					"outputs": [
						{
							"internalType": "bytes6",
							"name": "window",
							"type": "bytes6"
						}
					],
					"stateMutability": "view",
					"type": "function"
				},
				{
					"inputs": [
						{
							"internalType": "uint256",
							"name": "round",
							"type": "uint256"
						}
					],
					"name": "getRoundResult",
					"outputs": [
						{
							"internalType": "bytes6",
							"name": "winningString",
							"type": "bytes6"
						},
						{
							"internalType": "uint256",
							"name": "potAmount",
							"type": "uint256"
						},
						{
							"internalType": "address[]",
							"name": "winners",
							"type": "address[]"
						},
						{
							"internalType": "uint256",
							"name": "perWinner",
							"type": "uint256"
						},
						{
							"internalType": "uint256",
							"name": "remainder",
							"type": "uint256"
						}
					],
					"stateMutability": "view",
					"type": "function"
				},
				{
					"inputs": [],
					"name": "getRoundState",
					"outputs": [
						{
							"internalType": "uint256",
							"name": "round",
							"type": "uint256"
						},
						{
							"internalType": "uint256",
							"name": "segment",
							"type": "uint256"
						},
						{
							"internalType": "uint256",
							"name": "segmentStart",
							"type": "uint256"
						},
						{
							"internalType": "uint256",
							"name": "counter",
							"type": "uint256"
						},
						{
							"internalType": "bytes6",
							"name": "currentWindow",
							"type": "bytes6"
						},
						{
							"internalType": "uint256",
							"name": "pot",
							"type": "uint256"
						},
						{
							"internalType": "uint256",
							"name": "unclaimedPool",
							"type": "uint256"
						},
						{
							"internalType": "bool",
							"name": "inSettlement",
							"type": "bool"
						}
					],
					"stateMutability": "view",
					"type": "function"
				},
				{
					"inputs": [
						{
							"internalType": "uint256",
							"name": "counter",
							"type": "uint256"
						}
					],
					"name": "getWindowAt",
					"outputs": [
						{
							"internalType": "bytes6",
							"name": "window",
							"type": "bytes6"
						}
					],
					"stateMutability": "pure",
					"type": "function"
				},
				{
					"inputs": [
						{
							"internalType": "uint256",
							"name": "",
							"type": "uint256"
						},
						{
							"internalType": "address",
							"name": "",
							"type": "address"
						}
					],
					"name": "hasClaimed",
					"outputs": [
						{
							"internalType": "bool",
							"name": "",
							"type": "bool"
						}
					],
					"stateMutability": "view",
					"type": "function"
				},
				{
					"inputs": [],
					"name": "isSettlementWindow",
					"outputs": [
						{
							"internalType": "bool",
							"name": "",
							"type": "bool"
						}
					],
					"stateMutability": "view",
					"type": "function"
				},
				{
					"inputs": [],
					"name": "nudgeScroll",
					"outputs": [],
					"stateMutability": "nonpayable",
					"type": "function"
				},
				{
					"inputs": [],
					"name": "owner",
					"outputs": [
						{
							"internalType": "address",
							"name": "",
							"type": "address"
						}
					],
					"stateMutability": "view",
					"type": "function"
				},
				{
					"inputs": [],
					"name": "pauseEntries",
					"outputs": [],
					"stateMutability": "nonpayable",
					"type": "function"
				},
				{
					"inputs": [],
					"name": "pauseSettlement",
					"outputs": [],
					"stateMutability": "nonpayable",
					"type": "function"
				},
				{
					"inputs": [],
					"name": "positionCounter",
					"outputs": [
						{
							"internalType": "uint256",
							"name": "",
							"type": "uint256"
						}
					],
					"stateMutability": "view",
					"type": "function"
				},
				{
					"inputs": [],
					"name": "prizeEscrow",
					"outputs": [
						{
							"internalType": "address",
							"name": "",
							"type": "address"
						}
					],
					"stateMutability": "view",
					"type": "function"
				},
				{
					"inputs": [],
					"name": "protocolCutBps",
					"outputs": [
						{
							"internalType": "uint256",
							"name": "",
							"type": "uint256"
						}
					],
					"stateMutability": "view",
					"type": "function"
				},
				{
					"inputs": [],
					"name": "renounceOwnership",
					"outputs": [],
					"stateMutability": "nonpayable",
					"type": "function"
				},
				{
					"inputs": [
						{
							"internalType": "uint256",
							"name": "",
							"type": "uint256"
						}
					],
					"name": "roundPerWinnerAmount",
					"outputs": [
						{
							"internalType": "uint256",
							"name": "",
							"type": "uint256"
						}
					],
					"stateMutability": "view",
					"type": "function"
				},
				{
					"inputs": [
						{
							"internalType": "uint256",
							"name": "",
							"type": "uint256"
						}
					],
					"name": "roundPotAmount",
					"outputs": [
						{
							"internalType": "uint256",
							"name": "",
							"type": "uint256"
						}
					],
					"stateMutability": "view",
					"type": "function"
				},
				{
					"inputs": [
						{
							"internalType": "uint256",
							"name": "",
							"type": "uint256"
						}
					],
					"name": "roundRemainder",
					"outputs": [
						{
							"internalType": "uint256",
							"name": "",
							"type": "uint256"
						}
					],
					"stateMutability": "view",
					"type": "function"
				},
				{
					"inputs": [
						{
							"internalType": "uint256",
							"name": "",
							"type": "uint256"
						},
						{
							"internalType": "uint256",
							"name": "",
							"type": "uint256"
						}
					],
					"name": "roundWinners",
					"outputs": [
						{
							"internalType": "address",
							"name": "",
							"type": "address"
						}
					],
					"stateMutability": "view",
					"type": "function"
				},
				{
					"inputs": [
						{
							"internalType": "uint256",
							"name": "",
							"type": "uint256"
						}
					],
					"name": "roundWinningString",
					"outputs": [
						{
							"internalType": "bytes6",
							"name": "",
							"type": "bytes6"
						}
					],
					"stateMutability": "view",
					"type": "function"
				},
				{
					"inputs": [],
					"name": "router",
					"outputs": [
						{
							"internalType": "address",
							"name": "",
							"type": "address"
						}
					],
					"stateMutability": "view",
					"type": "function"
				},
				{
					"inputs": [],
					"name": "segmentStartTime",
					"outputs": [
						{
							"internalType": "uint256",
							"name": "",
							"type": "uint256"
						}
					],
					"stateMutability": "view",
					"type": "function"
				},
				{
					"inputs": [
						{
							"internalType": "address",
							"name": "_registry",
							"type": "address"
						}
					],
					"name": "setEligibleRegistry",
					"outputs": [],
					"stateMutability": "nonpayable",
					"type": "function"
				},
				{
					"inputs": [
						{
							"internalType": "address",
							"name": "_registry",
							"type": "address"
						}
					],
					"name": "setGameRegistry",
					"outputs": [],
					"stateMutability": "nonpayable",
					"type": "function"
				},
				{
					"inputs": [
						{
							"internalType": "address",
							"name": "_escrow",
							"type": "address"
						}
					],
					"name": "setPrizeEscrow",
					"outputs": [],
					"stateMutability": "nonpayable",
					"type": "function"
				},
				{
					"inputs": [
						{
							"internalType": "uint256",
							"name": "_bps",
							"type": "uint256"
						}
					],
					"name": "setProtocolCutBps",
					"outputs": [],
					"stateMutability": "nonpayable",
					"type": "function"
				},
				{
					"inputs": [
						{
							"internalType": "address",
							"name": "_router",
							"type": "address"
						}
					],
					"name": "setRouter",
					"outputs": [],
					"stateMutability": "nonpayable",
					"type": "function"
				},
				{
					"inputs": [
						{
							"internalType": "address",
							"name": "_settler",
							"type": "address"
						}
					],
					"name": "setSettler",
					"outputs": [],
					"stateMutability": "nonpayable",
					"type": "function"
				},
				{
					"inputs": [
						{
							"internalType": "bool",
							"name": "_enabled",
							"type": "bool"
						}
					],
					"name": "setShuffleEnabled",
					"outputs": [],
					"stateMutability": "nonpayable",
					"type": "function"
				},
				{
					"inputs": [
						{
							"internalType": "uint256",
							"name": "_count",
							"type": "uint256"
						}
					],
					"name": "setWinnersPerRound",
					"outputs": [],
					"stateMutability": "nonpayable",
					"type": "function"
				},
				{
					"inputs": [],
					"name": "settleSegment",
					"outputs": [],
					"stateMutability": "nonpayable",
					"type": "function"
				},
				{
					"inputs": [],
					"name": "settlementPaused",
					"outputs": [
						{
							"internalType": "bool",
							"name": "",
							"type": "bool"
						}
					],
					"stateMutability": "view",
					"type": "function"
				},
				{
					"inputs": [],
					"name": "settler",
					"outputs": [
						{
							"internalType": "address",
							"name": "",
							"type": "address"
						}
					],
					"stateMutability": "view",
					"type": "function"
				},
				{
					"inputs": [],
					"name": "shuffleEnabled",
					"outputs": [
						{
							"internalType": "bool",
							"name": "",
							"type": "bool"
						}
					],
					"stateMutability": "view",
					"type": "function"
				},
				{
					"inputs": [],
					"name": "startGame",
					"outputs": [],
					"stateMutability": "nonpayable",
					"type": "function"
				},
				{
					"inputs": [],
					"name": "timeRemainingInSegment",
					"outputs": [
						{
							"internalType": "uint256",
							"name": "",
							"type": "uint256"
						}
					],
					"stateMutability": "view",
					"type": "function"
				},
				{
					"inputs": [
						{
							"internalType": "address",
							"name": "newOwner",
							"type": "address"
						}
					],
					"name": "transferOwnership",
					"outputs": [],
					"stateMutability": "nonpayable",
					"type": "function"
				},
				{
					"inputs": [],
					"name": "unpauseEntries",
					"outputs": [],
					"stateMutability": "nonpayable",
					"type": "function"
				},
				{
					"inputs": [],
					"name": "unpauseSettlement",
					"outputs": [],
					"stateMutability": "nonpayable",
					"type": "function"
				},
				{
					"inputs": [],
					"name": "winnersPerRound",
					"outputs": [
						{
							"internalType": "uint256",
							"name": "",
							"type": "uint256"
						}
					],
					"stateMutability": "view",
					"type": "function"
				}
			],
			"devdoc": {
				"errors": {
					"OwnableInvalidOwner(address)": [
						{
							"details": "The owner is not a valid owner account. (eg. `address(0)`)"
						}
					],
					"OwnableUnauthorizedAccount(address)": [
						{
							"details": "The caller account is not authorized to perform an operation."
						}
					],
					"ReentrancyGuardReentrantCall()": [
						{
							"details": "Unauthorized reentrant call."
						}
					]
				},
				"kind": "dev",
				"methods": {
					"claimWinnings(uint256)": {
						"details": "Dual-layer verification: entry existed at round start AND      string matched AND claim window still open.      ETH paid from PrizeEscrow.",
						"params": {
							"round": "Round number to claim from."
						}
					},
					"constructor": {
						"params": {
							"_gameRegistry": "GameRegistry contract address.",
							"_prizeEscrow": "PrizeEscrow contract address.",
							"_router": "TimbSwapRouter address."
						}
					},
					"fundPot()": {
						"details": "Forwards ETH to PrizeEscrow and adds to accumulated rewards."
					},
					"getCurrentWindow()": {
						"details": "alphabet[(positionCounter + i) % 36] for i = 0..5.      Frontend also computes this — contract provides it for verification."
					},
					"getWindowAt(uint256)": {
						"details": "Used for historical replay and frontend simulation."
					},
					"nudgeScroll()": {
						"details": "Called by TimbSwapRouter after a confirmed eligible swap.      Blocked during the 0:15 settlement window.      Router checks EligibleTokenRegistry before calling."
					},
					"owner()": {
						"details": "Returns the address of the current owner."
					},
					"renounceOwnership()": {
						"details": "Leaves the contract without owner. It will not be possible to call `onlyOwner` functions. Can only be called by the current owner. NOTE: Renouncing ownership will leave the contract without an owner, thereby disabling any functionality that is only available to the owner."
					},
					"settleSegment()": {
						"details": "Settler calls this after INTERACTION_WINDOW has elapsed.      On segments 1–5: advances to next segment.      On segment 6: freezes position, finds winners, settles round.      Reverts if called too early (on-chain timing enforcement)."
					},
					"startGame()": {
						"details": "Owner-only. Called once after all contracts are deployed and funded."
					},
					"transferOwnership(address)": {
						"details": "Transfers ownership of the contract to a new account (`newOwner`). Can only be called by the current owner."
					}
				},
				"title": "TimbPrize",
				"version": 1
			},
			"evm": {
				"assembly": "    /* \"/contracts/TimbPrize.sol\":3516:28379  contract TimbPrize is Ownable, ReentrancyGuard {... */\n  mstore(0x40, 0x80)\n    /* \"/contracts/TimbPrize.sol\":10034:10597  constructor(... */\n  callvalue\n  dup1\n  iszero\n  tag_1\n  jumpi\n  0x00\n  dup1\n  revert\ntag_1:\n  pop\n  mload(0x40)\n  sub(codesize, bytecodeSize)\n  dup1\n  bytecodeSize\n  dup4\n  codecopy\n  dup2\n  add\n  0x40\n  dup2\n  swap1\n  mstore\n  tag_2\n  swap2\n  tag_3\n  jump\t// in\ntag_2:\n    /* \"/contracts/TimbPrize.sol\":10146:10156  msg.sender */\n  caller\n  dup1\n    /* \"@openzeppelin/contracts/access/Ownable.sol\":1269:1364  if (initialOwner == address(0)) {... */\n  tag_8\n  jumpi\n    /* \"@openzeppelin/contracts/access/Ownable.sol\":1322:1353  OwnableInvalidOwner(address(0)) */\n  mload(0x40)\n  shl(0xe0, 0x1e4fbdf7)\n  dup2\n  mstore\n    /* \"@openzeppelin/contracts/access/Ownable.sol\":1350:1351  0 */\n  0x00\n    /* \"@openzeppelin/contracts/access/Ownable.sol\":1322:1353  OwnableInvalidOwner(address(0)) */\n  0x04\n  dup3\n  add\n    /* \"#utility.yul\":725:776   */\n  mstore\n    /* \"#utility.yul\":698:716   */\n  0x24\n  add\n    /* \"@openzeppelin/contracts/access/Ownable.sol\":1322:1353  OwnableInvalidOwner(address(0)) */\n  mload(0x40)\n  dup1\n  swap2\n  sub\n  swap1\n  revert\n    /* \"@openzeppelin/contracts/access/Ownable.sol\":1269:1364  if (initialOwner == address(0)) {... */\ntag_8:\n    /* \"@openzeppelin/contracts/access/Ownable.sol\":1373:1405  _transferOwnership(initialOwner) */\n  tag_11\n    /* \"@openzeppelin/contracts/access/Ownable.sol\":1392:1404  initialOwner */\n  dup2\n    /* \"@openzeppelin/contracts/access/Ownable.sol\":1373:1391  _transferOwnership */\n  tag_12\n    /* \"@openzeppelin/contracts/access/Ownable.sol\":1373:1405  _transferOwnership(initialOwner) */\n  jump\t// in\ntag_11:\n  pop\n    /* \"@openzeppelin/contracts/utils/ReentrancyGuard.sol\":2365:2366  1 */\n  0x01\n    /* \"@openzeppelin/contracts/utils/ReentrancyGuard.sol\":1505:1571  0x9b779b17422d0df92223018b32b4d1fa46e071723d6817e2486d003becc55f00 */\n  0x9b779b17422d0df92223018b32b4d1fa46e071723d6817e2486d003becc55f00\n    /* \"@openzeppelin/contracts/utils/ReentrancyGuard.sol\":2539:2605  _reentrancyGuardStorageSlot().getUint256Slot().value = NOT_ENTERED */\n  sstore\n  sub(shl(0xa0, 0x01), 0x01)\n    /* \"/contracts/TimbPrize.sol\":10172:10200  _prizeEscrow   == address(0) */\n  dup4\n  and\n    /* \"/contracts/TimbPrize.sol\":10168:10222  if (_prizeEscrow   == address(0)) revert ZeroAddress() */\n  tag_19\n  jumpi\n    /* \"/contracts/TimbPrize.sol\":10209:10222  ZeroAddress() */\n  mload(0x40)\n  shl(0xe0, 0xd92e233d)\n  dup2\n  mstore\n  0x04\n  add\n  mload(0x40)\n  dup1\n  swap2\n  sub\n  swap1\n  revert\n    /* \"/contracts/TimbPrize.sol\":10168:10222  if (_prizeEscrow   == address(0)) revert ZeroAddress() */\ntag_19:\n  sub(shl(0xa0, 0x01), 0x01)\n    /* \"/contracts/TimbPrize.sol\":10236:10264  _gameRegistry  == address(0) */\n  dup3\n  and\n    /* \"/contracts/TimbPrize.sol\":10232:10286  if (_gameRegistry  == address(0)) revert ZeroAddress() */\n  tag_20\n  jumpi\n    /* \"/contracts/TimbPrize.sol\":10273:10286  ZeroAddress() */\n  mload(0x40)\n  shl(0xe0, 0xd92e233d)\n  dup2\n  mstore\n  0x04\n  add\n  mload(0x40)\n  dup1\n  swap2\n  sub\n  swap1\n  revert\n    /* \"/contracts/TimbPrize.sol\":10232:10286  if (_gameRegistry  == address(0)) revert ZeroAddress() */\ntag_20:\n  sub(shl(0xa0, 0x01), 0x01)\n    /* \"/contracts/TimbPrize.sol\":10300:10328  _router        == address(0) */\n  dup2\n  and\n    /* \"/contracts/TimbPrize.sol\":10296:10350  if (_router        == address(0)) revert ZeroAddress() */\n  tag_21\n  jumpi\n    /* \"/contracts/TimbPrize.sol\":10337:10350  ZeroAddress() */\n  mload(0x40)\n  shl(0xe0, 0xd92e233d)\n  dup2\n  mstore\n  0x04\n  add\n  mload(0x40)\n  dup1\n  swap2\n  sub\n  swap1\n  revert\n    /* \"/contracts/TimbPrize.sol\":10296:10350  if (_router        == address(0)) revert ZeroAddress() */\ntag_21:\n    /* \"/contracts/TimbPrize.sol\":10361:10372  prizeEscrow */\n  0x01\n    /* \"/contracts/TimbPrize.sol\":10361:10388  prizeEscrow  = _prizeEscrow */\n  dup1\n  sload\n  sub(shl(0xa0, 0x01), 0x01)\n  swap5\n  dup6\n  and\n  not(sub(shl(0xa0, 0x01), 0x01))\n  swap2\n  dup3\n  and\n  or\n  swap1\n  swap2\n  sstore\n    /* \"/contracts/TimbPrize.sol\":10398:10410  gameRegistry */\n  0x02\n    /* \"/contracts/TimbPrize.sol\":10398:10426  gameRegistry = _gameRegistry */\n  dup1\n  sload\n  swap4\n  dup6\n  and\n  swap4\n  dup3\n  and\n  swap4\n  swap1\n  swap4\n  or\n  swap1\n  swap3\n  sstore\n    /* \"/contracts/TimbPrize.sol\":10436:10442  router */\n  0x03\n    /* \"/contracts/TimbPrize.sol\":10436:10458  router       = _router */\n  dup1\n  sload\n  swap2\n  swap1\n  swap4\n  and\n  swap1\n  dup3\n  and\n  or\n  dup3\n  sstore\n    /* \"/contracts/TimbPrize.sol\":10468:10475  settler */\n  0x05\n    /* \"/contracts/TimbPrize.sol\":10468:10493  settler      = msg.sender */\n  dup1\n  sload\n  swap1\n  swap2\n  and\n    /* \"/contracts/TimbPrize.sol\":10483:10493  msg.sender */\n  caller\n    /* \"/contracts/TimbPrize.sol\":10468:10493  settler      = msg.sender */\n  or\n  swap1\n  sstore\n    /* \"/contracts/TimbPrize.sol\":10503:10518  winnersPerRound */\n  0x0e\n    /* \"/contracts/TimbPrize.sol\":10503:10522  winnersPerRound = 3 */\n  sstore\n    /* \"/contracts/TimbPrize.sol\":10550:10553  200 */\n  0xc8\n    /* \"/contracts/TimbPrize.sol\":10532:10546  protocolCutBps */\n  0x0f\n    /* \"/contracts/TimbPrize.sol\":10532:10553  protocolCutBps  = 200 */\n  sstore\n    /* \"/contracts/TimbPrize.sol\":3516:28379  contract TimbPrize is Ownable, ReentrancyGuard {... */\n  jump(tag_27)\n    /* \"@openzeppelin/contracts/access/Ownable.sol\":2912:3099  function _transferOwnership(address newOwner) internal virtual {... */\ntag_12:\n    /* \"@openzeppelin/contracts/access/Ownable.sol\":2985:3001  address oldOwner */\n  0x00\n    /* \"@openzeppelin/contracts/access/Ownable.sol\":3004:3010  _owner */\n  dup1\n  sload\n  sub(shl(0xa0, 0x01), 0x01)\n    /* \"@openzeppelin/contracts/access/Ownable.sol\":3020:3037  _owner = newOwner */\n  dup4\n  dup2\n  and\n  not(sub(shl(0xa0, 0x01), 0x01))\n  dup4\n  and\n  dup2\n  or\n  dup5\n  sstore\n    /* \"@openzeppelin/contracts/access/Ownable.sol\":3052:3092  OwnershipTransferred(oldOwner, newOwner) */\n  mload(0x40)\n    /* \"@openzeppelin/contracts/access/Ownable.sol\":3004:3010  _owner */\n  swap2\n  swap1\n  swap3\n  and\n  swap3\n  dup4\n  swap2\n    /* \"@openzeppelin/contracts/access/Ownable.sol\":3052:3092  OwnershipTransferred(oldOwner, newOwner) */\n  0x8be0079c531659141344cd1fd0a4f28419497f9722a3daafe3b4186f6b6457e0\n  swap2\n    /* \"@openzeppelin/contracts/access/Ownable.sol\":2985:3001  address oldOwner */\n  swap1\n    /* \"@openzeppelin/contracts/access/Ownable.sol\":3052:3092  OwnershipTransferred(oldOwner, newOwner) */\n  log3\n    /* \"@openzeppelin/contracts/access/Ownable.sol\":2975:3099  {... */\n  pop\n    /* \"@openzeppelin/contracts/access/Ownable.sol\":2912:3099  function _transferOwnership(address newOwner) internal virtual {... */\n  pop\n  jump\t// out\n    /* \"#utility.yul\":14:191   */\ntag_26:\n    /* \"#utility.yul\":93:106   */\n  dup1\n  mload\n  sub(shl(0xa0, 0x01), 0x01)\n    /* \"#utility.yul\":135:166   */\n  dup2\n  and\n    /* \"#utility.yul\":125:167   */\n  dup2\n  eq\n    /* \"#utility.yul\":115:185   */\n  tag_29\n  jumpi\n    /* \"#utility.yul\":181:182   */\n  0x00\n    /* \"#utility.yul\":178:179   */\n  dup1\n    /* \"#utility.yul\":171:183   */\n  revert\n    /* \"#utility.yul\":115:185   */\ntag_29:\n    /* \"#utility.yul\":14:191   */\n  swap2\n  swap1\n  pop\n  jump\t// out\n    /* \"#utility.yul\":196:574   */\ntag_3:\n    /* \"#utility.yul\":284:290   */\n  0x00\n    /* \"#utility.yul\":292:298   */\n  dup1\n    /* \"#utility.yul\":300:306   */\n  0x00\n    /* \"#utility.yul\":353:355   */\n  0x60\n    /* \"#utility.yul\":341:350   */\n  dup5\n    /* \"#utility.yul\":332:339   */\n  dup7\n    /* \"#utility.yul\":328:351   */\n  sub\n    /* \"#utility.yul\":324:356   */\n  slt\n    /* \"#utility.yul\":321:373   */\n  iszero\n  tag_31\n  jumpi\n    /* \"#utility.yul\":369:370   */\n  0x00\n    /* \"#utility.yul\":366:367   */\n  dup1\n    /* \"#utility.yul\":359:371   */\n  revert\n    /* \"#utility.yul\":321:373   */\ntag_31:\n    /* \"#utility.yul\":392:432   */\n  tag_32\n    /* \"#utility.yul\":422:431   */\n  dup5\n    /* \"#utility.yul\":392:432   */\n  tag_26\n  jump\t// in\ntag_32:\n    /* \"#utility.yul\":382:432   */\n  swap3\n  pop\n    /* \"#utility.yul\":451:500   */\n  tag_33\n    /* \"#utility.yul\":496:498   */\n  0x20\n    /* \"#utility.yul\":485:494   */\n  dup6\n    /* \"#utility.yul\":481:499   */\n  add\n    /* \"#utility.yul\":451:500   */\n  tag_26\n  jump\t// in\ntag_33:\n    /* \"#utility.yul\":441:500   */\n  swap2\n  pop\n    /* \"#utility.yul\":519:568   */\n  tag_34\n    /* \"#utility.yul\":564:566   */\n  0x40\n    /* \"#utility.yul\":553:562   */\n  dup6\n    /* \"#utility.yul\":549:567   */\n  add\n    /* \"#utility.yul\":519:568   */\n  tag_26\n  jump\t// in\ntag_34:\n    /* \"#utility.yul\":509:568   */\n  swap1\n  pop\n    /* \"#utility.yul\":196:574   */\n  swap3\n  pop\n  swap3\n  pop\n  swap3\n  jump\t// out\n    /* \"#utility.yul\":579:782   */\ntag_27:\n    /* \"/contracts/TimbPrize.sol\":3516:28379  contract TimbPrize is Ownable, ReentrancyGuard {... */\n  dataSize(sub_0)\n  dup1\n  dataOffset(sub_0)\n  0x00\n  codecopy\n  0x00\n  return\nstop\n\nsub_0: assembly {\n        /* \"/contracts/TimbPrize.sol\":3516:28379  contract TimbPrize is Ownable, ReentrancyGuard {... */\n      mstore(0x40, 0x80)\n      jumpi(tag_1, lt(calldatasize, 0x04))\n      shr(0xe0, calldataload(0x00))\n      dup1\n      0x873f6f9e\n      gt\n      tag_58\n      jumpi\n      dup1\n      0xc33b7586\n      gt\n      tag_59\n      jumpi\n      dup1\n      0xdd898b2f\n      gt\n      tag_60\n      jumpi\n      dup1\n      0xf13afb90\n      gt\n      tag_61\n      jumpi\n      dup1\n      0xf13afb90\n      eq\n      tag_54\n      jumpi\n      dup1\n      0xf2fde38b\n      eq\n      tag_55\n      jumpi\n      dup1\n      0xf82a23d1\n      eq\n      tag_56\n      jumpi\n      dup1\n      0xf887ea40\n      eq\n      tag_57\n      jumpi\n      0x00\n      dup1\n      revert\n    tag_61:\n      dup1\n      0xdd898b2f\n      eq\n      tag_51\n      jumpi\n      dup1\n      0xe9755b59\n      eq\n      tag_52\n      jumpi\n      dup1\n      0xebd2fe41\n      eq\n      tag_53\n      jumpi\n      0x00\n      dup1\n      revert\n    tag_60:\n      dup1\n      0xd38970bc\n      gt\n      tag_62\n      jumpi\n      dup1\n      0xd38970bc\n      eq\n      tag_47\n      jumpi\n      dup1\n      0xd57f9525\n      eq\n      tag_48\n      jumpi\n      dup1\n      0xd65ab5f2\n      eq\n      tag_49\n      jumpi\n      dup1\n      0xda090755\n      eq\n      tag_50\n      jumpi\n      0x00\n      dup1\n      revert\n    tag_62:\n      dup1\n      0xc33b7586\n      eq\n      tag_44\n      jumpi\n      dup1\n      0xc74b817d\n      eq\n      tag_45\n      jumpi\n      dup1\n      0xcc16fe5b\n      eq\n      tag_46\n      jumpi\n      0x00\n      dup1\n      revert\n    tag_59:\n      dup1\n      0xa1a016a3\n      gt\n      tag_63\n      jumpi\n      dup1\n      0xb2721164\n      gt\n      tag_64\n      jumpi\n      dup1\n      0xb2721164\n      eq\n      tag_40\n      jumpi\n      dup1\n      0xb303feeb\n      eq\n      tag_41\n      jumpi\n      dup1\n      0xb7bc5fb6\n      eq\n      tag_42\n      jumpi\n      dup1\n      0xc0d78655\n      eq\n      tag_43\n      jumpi\n      0x00\n      dup1\n      revert\n    tag_64:\n      dup1\n      0xa1a016a3\n      eq\n      tag_37\n      jumpi\n      dup1\n      0xab221a76\n      eq\n      tag_38\n      jumpi\n      dup1\n      0xac650783\n      eq\n      tag_39\n      jumpi\n      0x00\n      dup1\n      revert\n    tag_63:\n      dup1\n      0x8e6a134b\n      gt\n      tag_65\n      jumpi\n      dup1\n      0x8e6a134b\n      eq\n      tag_33\n      jumpi\n      dup1\n      0x92eaa9d9\n      eq\n      tag_34\n      jumpi\n      dup1\n      0x99b465cb\n      eq\n      tag_35\n      jumpi\n      dup1\n      0x9c737e8f\n      eq\n      tag_36\n      jumpi\n      0x00\n      dup1\n      revert\n    tag_65:\n      dup1\n      0x873f6f9e\n      eq\n      tag_30\n      jumpi\n      dup1\n      0x8a19c8bc\n      eq\n      tag_31\n      jumpi\n      dup1\n      0x8da5cb5b\n      eq\n      tag_32\n      jumpi\n      0x00\n      dup1\n      revert\n    tag_58:\n      dup1\n      0x41d67d06\n      gt\n      tag_66\n      jumpi\n      dup1\n      0x677bd9ff\n      gt\n      tag_67\n      jumpi\n      dup1\n      0x77043591\n      gt\n      tag_68\n      jumpi\n      dup1\n      0x77043591\n      eq\n      tag_26\n      jumpi\n      dup1\n      0x79eedbdd\n      eq\n      tag_27\n      jumpi\n      dup1\n      0x7f35d49f\n      eq\n      tag_28\n      jumpi\n      dup1\n      0x7f79ba59\n      eq\n      tag_29\n      jumpi\n      0x00\n      dup1\n      revert\n    tag_68:\n      dup1\n      0x677bd9ff\n      eq\n      tag_23\n      jumpi\n      dup1\n      0x715018a6\n      eq\n      tag_24\n      jumpi\n      dup1\n      0x76d9ff2c\n      eq\n      tag_25\n      jumpi\n      0x00\n      dup1\n      revert\n    tag_67:\n      dup1\n      0x5e123ce4\n      gt\n      tag_69\n      jumpi\n      dup1\n      0x5e123ce4\n      eq\n      tag_19\n      jumpi\n      dup1\n      0x5f303f1c\n      eq\n      tag_20\n      jumpi\n      dup1\n      0x63d5ab8d\n      eq\n      tag_21\n      jumpi\n      dup1\n      0x6641ea08\n      eq\n      tag_22\n      jumpi\n      0x00\n      dup1\n      revert\n    tag_69:\n      dup1\n      0x41d67d06\n      eq\n      tag_16\n      jumpi\n      dup1\n      0x456990c7\n      eq\n      tag_17\n      jumpi\n      dup1\n      0x46a662bf\n      eq\n      tag_18\n      jumpi\n      0x00\n      dup1\n      revert\n    tag_66:\n      dup1\n      0x1a3b8e8c\n      gt\n      tag_70\n      jumpi\n      dup1\n      0x293c2958\n      gt\n      tag_71\n      jumpi\n      dup1\n      0x293c2958\n      eq\n      tag_12\n      jumpi\n      dup1\n      0x2ee0c463\n      eq\n      tag_13\n      jumpi\n      dup1\n      0x3deb6cae\n      eq\n      tag_14\n      jumpi\n      dup1\n      0x4168632d\n      eq\n      tag_15\n      jumpi\n      0x00\n      dup1\n      revert\n    tag_71:\n      dup1\n      0x1a3b8e8c\n      eq\n      tag_9\n      jumpi\n      dup1\n      0x1ad41d14\n      eq\n      tag_10\n      jumpi\n      dup1\n      0x231e832d\n      eq\n      tag_11\n      jumpi\n      0x00\n      dup1\n      revert\n    tag_70:\n      dup1\n      0x0a8506ca\n      gt\n      tag_72\n      jumpi\n      dup1\n      0x0a8506ca\n      eq\n      tag_5\n      jumpi\n      dup1\n      0x0b7a567b\n      eq\n      tag_6\n      jumpi\n      dup1\n      0x0f67e7d5\n      eq\n      tag_7\n      jumpi\n      dup1\n      0x17ebf6ae\n      eq\n      tag_8\n      jumpi\n      0x00\n      dup1\n      revert\n    tag_72:\n      dup1\n      0x02e28c70\n      eq\n      tag_2\n      jumpi\n      dup1\n      0x03e3cd6a\n      eq\n      tag_3\n      jumpi\n      dup1\n      0x07f19eba\n      eq\n      tag_4\n      jumpi\n    tag_1:\n      0x00\n      dup1\n      revert\n        /* \"/contracts/TimbPrize.sol\":25656:26176  function getRoundResult(uint256 round)... */\n    tag_2:\n      callvalue\n      dup1\n      iszero\n      tag_73\n      jumpi\n      0x00\n      dup1\n      revert\n    tag_73:\n      pop\n      tag_74\n      tag_75\n      calldatasize\n      0x04\n      tag_76\n      jump\t// in\n    tag_75:\n      tag_77\n      jump\t// in\n    tag_74:\n      mload(0x40)\n      tag_78\n      swap6\n      swap5\n      swap4\n      swap3\n      swap2\n      swap1\n      tag_79\n      jump\t// in\n    tag_78:\n      mload(0x40)\n      dup1\n      swap2\n      sub\n      swap1\n      return\n        /* \"/contracts/TimbPrize.sol\":6655:6704  mapping(uint256 => address[]) public roundWinners */\n    tag_3:\n      callvalue\n      dup1\n      iszero\n      tag_80\n      jumpi\n      0x00\n      dup1\n      revert\n    tag_80:\n      pop\n      tag_81\n      tag_82\n      calldatasize\n      0x04\n      tag_83\n      jump\t// in\n    tag_82:\n      tag_84\n      jump\t// in\n    tag_81:\n      mload(0x40)\n      sub(shl(0xa0, 0x01), 0x01)\n        /* \"#utility.yul\":1668:1700   */\n      swap1\n      swap2\n      and\n        /* \"#utility.yul\":1650:1701   */\n      dup2\n      mstore\n        /* \"#utility.yul\":1638:1640   */\n      0x20\n        /* \"#utility.yul\":1623:1641   */\n      add\n        /* \"/contracts/TimbPrize.sol\":6655:6704  mapping(uint256 => address[]) public roundWinners */\n      tag_78\n        /* \"#utility.yul\":1504:1707   */\n      jump\n        /* \"/contracts/TimbPrize.sol\":26757:26946  function setSettler(address _settler) external onlyOwner {... */\n    tag_4:\n      callvalue\n      dup1\n      iszero\n      tag_87\n      jumpi\n      0x00\n      dup1\n      revert\n    tag_87:\n      pop\n      tag_88\n      tag_89\n      calldatasize\n      0x04\n      tag_90\n      jump\t// in\n    tag_89:\n      tag_91\n      jump\t// in\n    tag_88:\n      stop\n        /* \"/contracts/TimbPrize.sol\":28062:28136  function pauseEntries()    external onlyOwner { entriesPaused    = true; } */\n    tag_5:\n      callvalue\n      dup1\n      iszero\n      tag_92\n      jumpi\n      0x00\n      dup1\n      revert\n    tag_92:\n      pop\n      tag_88\n      tag_94\n      jump\t// in\n        /* \"/contracts/TimbPrize.sol\":11936:12218  function nudgeScroll()... */\n    tag_6:\n      callvalue\n      dup1\n      iszero\n      tag_95\n      jumpi\n      0x00\n      dup1\n      revert\n    tag_95:\n      pop\n      tag_88\n      tag_97\n      jump\t// in\n        /* \"/contracts/TimbPrize.sol\":13074:13343  function getCurrentWindow() public view returns (bytes6 window) {... */\n    tag_7:\n      callvalue\n      dup1\n      iszero\n      tag_98\n      jumpi\n      0x00\n      dup1\n      revert\n    tag_98:\n      pop\n      tag_99\n      tag_100\n      jump\t// in\n    tag_99:\n      mload(0x40)\n      not(sub(shl(0xd0, 0x01), 0x01))\n        /* \"#utility.yul\":2262:2299   */\n      swap1\n      swap2\n      and\n        /* \"#utility.yul\":2244:2300   */\n      dup2\n      mstore\n        /* \"#utility.yul\":2232:2234   */\n      0x20\n        /* \"#utility.yul\":2217:2235   */\n      add\n        /* \"/contracts/TimbPrize.sol\":13074:13343  function getCurrentWindow() public view returns (bytes6 window) {... */\n      tag_78\n        /* \"#utility.yul\":2100:2306   */\n      jump\n        /* \"/contracts/TimbPrize.sol\":24326:24577  function addToPot() external payable {... */\n    tag_8:\n      tag_88\n      tag_104\n      jump\t// in\n        /* \"/contracts/TimbPrize.sol\":4875:4901  address public prizeEscrow */\n    tag_9:\n      callvalue\n      dup1\n      iszero\n      tag_105\n      jumpi\n      0x00\n      dup1\n      revert\n    tag_105:\n      pop\n      sload(0x01)\n      tag_81\n      swap1\n      sub(shl(0xa0, 0x01), 0x01)\n      and\n      dup2\n      jump\n        /* \"/contracts/TimbPrize.sol\":27551:27751  function setWinnersPerRound(uint256 _count) external onlyOwner {... */\n    tag_10:\n      callvalue\n      dup1\n      iszero\n      tag_109\n      jumpi\n      0x00\n      dup1\n      revert\n    tag_109:\n      pop\n      tag_88\n      tag_111\n      calldatasize\n      0x04\n      tag_76\n      jump\t// in\n    tag_111:\n      tag_112\n      jump\t// in\n        /* \"/contracts/TimbPrize.sol\":4181:4262  uint256 public constant SEGMENT_DURATION = INTERACTION_WINDOW + SETTLEMENT_WINDOW */\n    tag_11:\n      callvalue\n      dup1\n      iszero\n      tag_113\n      jumpi\n      0x00\n      dup1\n      revert\n    tag_113:\n      pop\n      tag_114\n      tag_115\n      jump\t// in\n    tag_114:\n      mload(0x40)\n        /* \"#utility.yul\":2457:2482   */\n      swap1\n      dup2\n      mstore\n        /* \"#utility.yul\":2445:2447   */\n      0x20\n        /* \"#utility.yul\":2430:2448   */\n      add\n        /* \"/contracts/TimbPrize.sol\":4181:4262  uint256 public constant SEGMENT_DURATION = INTERACTION_WINDOW + SETTLEMENT_WINDOW */\n      tag_78\n        /* \"#utility.yul\":2311:2488   */\n      jump\n        /* \"/contracts/TimbPrize.sol\":24866:25572  function getRoundState()... */\n    tag_12:\n      callvalue\n      dup1\n      iszero\n      tag_118\n      jumpi\n      0x00\n      dup1\n      revert\n    tag_118:\n      pop\n      tag_119\n      tag_120\n      jump\t// in\n    tag_119:\n      0x40\n      dup1\n      mload\n        /* \"#utility.yul\":2828:2853   */\n      swap9\n      dup10\n      mstore\n        /* \"#utility.yul\":2884:2886   */\n      0x20\n        /* \"#utility.yul\":2869:2887   */\n      dup10\n      add\n        /* \"#utility.yul\":2862:2896   */\n      swap8\n      swap1\n      swap8\n      mstore\n        /* \"#utility.yul\":2912:2930   */\n      swap6\n      dup8\n      add\n        /* \"#utility.yul\":2905:2939   */\n      swap5\n      swap1\n      swap5\n      mstore\n        /* \"#utility.yul\":2970:2972   */\n      0x60\n        /* \"#utility.yul\":2955:2973   */\n      dup7\n      add\n        /* \"#utility.yul\":2948:2982   */\n      swap3\n      swap1\n      swap3\n      mstore\n      not(sub(shl(0xd0, 0x01), 0x01))\n        /* \"#utility.yul\":3019:3056   */\n      and\n        /* \"#utility.yul\":3013:3016   */\n      0x80\n        /* \"#utility.yul\":2998:3017   */\n      dup6\n      add\n        /* \"#utility.yul\":2991:3057   */\n      mstore\n        /* \"#utility.yul\":3088:3091   */\n      0xa0\n        /* \"#utility.yul\":3073:3092   */\n      dup5\n      add\n        /* \"#utility.yul\":3066:3101   */\n      mstore\n        /* \"#utility.yul\":3132:3135   */\n      0xc0\n        /* \"#utility.yul\":3117:3136   */\n      dup4\n      add\n        /* \"#utility.yul\":3110:3145   */\n      mstore\n        /* \"#utility.yul\":3189:3203   */\n      iszero\n        /* \"#utility.yul\":3182:3204   */\n      iszero\n        /* \"#utility.yul\":3176:3179   */\n      0xe0\n        /* \"#utility.yul\":3161:3180   */\n      dup3\n      add\n        /* \"#utility.yul\":3154:3205   */\n      mstore\n        /* \"#utility.yul\":2815:2818   */\n      0x0100\n        /* \"#utility.yul\":2800:2819   */\n      add\n        /* \"/contracts/TimbPrize.sol\":24866:25572  function getRoundState()... */\n      tag_78\n        /* \"#utility.yul\":2493:3211   */\n      jump\n        /* \"/contracts/TimbPrize.sol\":7096:7121  bool public entriesPaused */\n    tag_13:\n      callvalue\n      dup1\n      iszero\n      tag_123\n      jumpi\n      0x00\n      dup1\n      revert\n    tag_123:\n      pop\n      sload(0x16)\n      tag_124\n      swap1\n      0xff\n      and\n      dup2\n      jump\n    tag_124:\n      mload(0x40)\n        /* \"#utility.yul\":3381:3395   */\n      swap1\n      iszero\n        /* \"#utility.yul\":3374:3396   */\n      iszero\n        /* \"#utility.yul\":3356:3397   */\n      dup2\n      mstore\n        /* \"#utility.yul\":3344:3346   */\n      0x20\n        /* \"#utility.yul\":3329:3347   */\n      add\n        /* \"/contracts/TimbPrize.sol\":7096:7121  bool public entriesPaused */\n      tag_78\n        /* \"#utility.yul\":3216:3403   */\n      jump\n        /* \"/contracts/TimbPrize.sol\":4081:4135  uint256 public constant SETTLEMENT_WINDOW = 15 seconds */\n    tag_14:\n      callvalue\n      dup1\n      iszero\n      tag_128\n      jumpi\n      0x00\n      dup1\n      revert\n    tag_128:\n      pop\n      tag_114\n        /* \"/contracts/TimbPrize.sol\":4125:4135  15 seconds */\n      0x0f\n        /* \"/contracts/TimbPrize.sol\":4081:4135  uint256 public constant SETTLEMENT_WINDOW = 15 seconds */\n      dup2\n      jump\n        /* \"/contracts/TimbPrize.sol\":7127:7155  bool public settlementPaused */\n    tag_15:\n      callvalue\n      dup1\n      iszero\n      tag_132\n      jumpi\n      0x00\n      dup1\n      revert\n    tag_132:\n      pop\n      sload(0x16)\n      tag_124\n      swap1\n      0x0100\n      swap1\n      div\n      0xff\n      and\n      dup2\n      jump\n        /* \"/contracts/TimbPrize.sol\":6341:6370  uint256 public protocolCutBps */\n    tag_16:\n      callvalue\n      dup1\n      iszero\n      tag_136\n      jumpi\n      0x00\n      dup1\n      revert\n    tag_136:\n      pop\n      tag_114\n      sload(0x0f)\n      dup2\n      jump\n        /* \"/contracts/TimbPrize.sol\":27757:27947  function setProtocolCutBps(uint256 _bps) external onlyOwner {... */\n    tag_17:\n      callvalue\n      dup1\n      iszero\n      tag_140\n      jumpi\n      0x00\n      dup1\n      revert\n    tag_140:\n      pop\n      tag_88\n      tag_142\n      calldatasize\n      0x04\n      tag_76\n      jump\t// in\n    tag_142:\n      tag_143\n      jump\t// in\n        /* \"/contracts/TimbPrize.sol\":14345:15061  function settleSegment()... */\n    tag_18:\n      callvalue\n      dup1\n      iszero\n      tag_144\n      jumpi\n      0x00\n      dup1\n      revert\n    tag_144:\n      pop\n      tag_88\n      tag_146\n      jump\t// in\n        /* \"/contracts/TimbPrize.sol\":5883:5906  bool public gameStarted */\n    tag_19:\n      callvalue\n      dup1\n      iszero\n      tag_147\n      jumpi\n      0x00\n      dup1\n      revert\n    tag_147:\n      pop\n      sload(0x0b)\n      tag_124\n      swap1\n      0xff\n      and\n      dup2\n      jump\n        /* \"/contracts/TimbPrize.sol\":27390:27545  function setPrizeEscrow(address _escrow) external onlyOwner {... */\n    tag_20:\n      callvalue\n      dup1\n      iszero\n      tag_151\n      jumpi\n      0x00\n      dup1\n      revert\n    tag_151:\n      pop\n      tag_88\n      tag_153\n      calldatasize\n      0x04\n      tag_90\n      jump\t// in\n    tag_153:\n      tag_154\n      jump\t// in\n        /* \"/contracts/TimbPrize.sol\":5387:5417  uint256 public positionCounter */\n    tag_21:\n      callvalue\n      dup1\n      iszero\n      tag_155\n      jumpi\n      0x00\n      dup1\n      revert\n    tag_155:\n      pop\n      tag_114\n      sload(0x06)\n      dup2\n      jump\n        /* \"/contracts/TimbPrize.sol\":4405:4483  uint256 public constant ROUND_DURATION = SEGMENT_DURATION * SEGMENTS_PER_ROUND */\n    tag_22:\n      callvalue\n      dup1\n      iszero\n      tag_159\n      jumpi\n      0x00\n      dup1\n      revert\n    tag_159:\n      pop\n      tag_114\n      tag_161\n      jump\t// in\n        /* \"/contracts/TimbPrize.sol\":22322:23617  function claimWinnings(uint256 round)... */\n    tag_23:\n      callvalue\n      dup1\n      iszero\n      tag_163\n      jumpi\n      0x00\n      dup1\n      revert\n    tag_163:\n      pop\n      tag_88\n      tag_165\n      calldatasize\n      0x04\n      tag_76\n      jump\t// in\n    tag_165:\n      tag_166\n      jump\t// in\n        /* \"@openzeppelin/contracts/access/Ownable.sol\":2293:2394  function renounceOwnership() public virtual onlyOwner {... */\n    tag_24:\n      callvalue\n      dup1\n      iszero\n      tag_167\n      jumpi\n      0x00\n      dup1\n      revert\n    tag_167:\n      pop\n      tag_88\n      tag_169\n      jump\t// in\n        /* \"/contracts/TimbPrize.sol\":28300:28377  function unpauseSettlement() external onlyOwner { settlementPaused = false; } */\n    tag_25:\n      callvalue\n      dup1\n      iszero\n      tag_170\n      jumpi\n      0x00\n      dup1\n      revert\n    tag_170:\n      pop\n      tag_88\n      tag_172\n      jump\t// in\n        /* \"/contracts/TimbPrize.sol\":6225:6255  uint256 public winnersPerRound */\n    tag_26:\n      callvalue\n      dup1\n      iszero\n      tag_173\n      jumpi\n      0x00\n      dup1\n      revert\n    tag_173:\n      pop\n      tag_114\n      sload(0x0e)\n      dup2\n      jump\n        /* \"/contracts/TimbPrize.sol\":6431:6483  mapping(uint256 => bytes6) public roundWinningString */\n    tag_27:\n      callvalue\n      dup1\n      iszero\n      tag_177\n      jumpi\n      0x00\n      dup1\n      revert\n    tag_177:\n      pop\n      tag_99\n      tag_179\n      calldatasize\n      0x04\n      tag_76\n      jump\t// in\n    tag_179:\n      mstore(0x20, 0x10)\n      0x00\n      swap1\n      dup2\n      mstore\n      0x40\n      swap1\n      keccak256\n      sload\n      0xd0\n      shl\n      dup2\n      jump\n        /* \"/contracts/TimbPrize.sol\":3959:4027  uint256 public constant INTERACTION_WINDOW = 59 minutes + 45 seconds */\n    tag_28:\n      callvalue\n      dup1\n      iszero\n      tag_182\n      jumpi\n      0x00\n      dup1\n      revert\n    tag_182:\n      pop\n      tag_114\n        /* \"/contracts/TimbPrize.sol\":4004:4027  59 minutes + 45 seconds */\n      0x0e01\n        /* \"/contracts/TimbPrize.sol\":3959:4027  uint256 public constant INTERACTION_WINDOW = 59 minutes + 45 seconds */\n      dup2\n      jump\n        /* \"/contracts/TimbPrize.sol\":6553:6602  mapping(uint256 => uint256) public roundPotAmount */\n    tag_29:\n      callvalue\n      dup1\n      iszero\n      tag_186\n      jumpi\n      0x00\n      dup1\n      revert\n    tag_186:\n      pop\n      tag_114\n      tag_188\n      calldatasize\n      0x04\n      tag_76\n      jump\t// in\n    tag_188:\n      mstore(0x20, 0x11)\n      0x00\n      swap1\n      dup2\n      mstore\n      0x40\n      swap1\n      keccak256\n      sload\n      dup2\n      jump\n        /* \"/contracts/TimbPrize.sol\":6985:7047  mapping(uint256 => mapping(address => bool)) public hasClaimed */\n    tag_30:\n      callvalue\n      dup1\n      iszero\n      tag_191\n      jumpi\n      0x00\n      dup1\n      revert\n    tag_191:\n      pop\n      tag_124\n      tag_193\n      calldatasize\n      0x04\n      tag_194\n      jump\t// in\n    tag_193:\n      0x15\n      0x20\n      swap1\n      dup2\n      mstore\n      0x00\n      swap3\n      dup4\n      mstore\n      0x40\n      dup1\n      dup5\n      keccak256\n      swap1\n      swap2\n      mstore\n      swap1\n      dup3\n      mstore\n      swap1\n      keccak256\n      sload\n      0xff\n      and\n      dup2\n      jump\n        /* \"/contracts/TimbPrize.sol\":5606:5633  uint256 public currentRound */\n    tag_31:\n      callvalue\n      dup1\n      iszero\n      tag_197\n      jumpi\n      0x00\n      dup1\n      revert\n    tag_197:\n      pop\n      tag_114\n      sload(0x08)\n      dup2\n      jump\n        /* \"@openzeppelin/contracts/access/Ownable.sol\":1638:1723  function owner() public view virtual returns (address) {... */\n    tag_32:\n      callvalue\n      dup1\n      iszero\n      tag_201\n      jumpi\n      0x00\n      dup1\n      revert\n    tag_201:\n      pop\n        /* \"@openzeppelin/contracts/access/Ownable.sol\":1684:1691  address */\n      0x00\n        /* \"@openzeppelin/contracts/access/Ownable.sol\":1710:1716  _owner */\n      sload\n      sub(shl(0xa0, 0x01), 0x01)\n      and\n        /* \"@openzeppelin/contracts/access/Ownable.sol\":1638:1723  function owner() public view virtual returns (address) {... */\n      jump(tag_81)\n        /* \"/contracts/TimbPrize.sol\":13502:13773  function getWindowAt(uint256 counter) public pure returns (bytes6 window) {... */\n    tag_33:\n      callvalue\n      dup1\n      iszero\n      tag_205\n      jumpi\n      0x00\n      dup1\n      revert\n    tag_205:\n      pop\n      tag_99\n      tag_207\n      calldatasize\n      0x04\n      tag_76\n      jump\t// in\n    tag_207:\n      tag_208\n      jump\t// in\n        /* \"/contracts/TimbPrize.sol\":5171:5202  address public eligibleRegistry */\n    tag_34:\n      callvalue\n      dup1\n      iszero\n      tag_210\n      jumpi\n      0x00\n      dup1\n      revert\n    tag_210:\n      pop\n      sload(0x04)\n      tag_81\n      swap1\n      sub(shl(0xa0, 0x01), 0x01)\n      and\n      dup2\n      jump\n        /* \"/contracts/TimbPrize.sol\":5698:5727  uint256 public currentSegment */\n    tag_35:\n      callvalue\n      dup1\n      iszero\n      tag_214\n      jumpi\n      0x00\n      dup1\n      revert\n    tag_214:\n      pop\n      tag_114\n      sload(0x09)\n      dup2\n      jump\n        /* \"/contracts/TimbPrize.sol\":23974:24234  function fundPot() external payable onlyOwner {... */\n    tag_36:\n      tag_88\n      tag_219\n      jump\t// in\n        /* \"/contracts/TimbPrize.sol\":26317:26550  function timeRemainingInSegment() external view returns (uint256) {... */\n    tag_37:\n      callvalue\n      dup1\n      iszero\n      tag_220\n      jumpi\n      0x00\n      dup1\n      revert\n    tag_220:\n      pop\n      tag_114\n      tag_222\n      jump\t// in\n        /* \"/contracts/TimbPrize.sol\":5281:5303  address public settler */\n    tag_38:\n      callvalue\n      dup1\n      iszero\n      tag_224\n      jumpi\n      0x00\n      dup1\n      revert\n    tag_224:\n      pop\n      sload(0x05)\n      tag_81\n      swap1\n      sub(shl(0xa0, 0x01), 0x01)\n      and\n      dup2\n      jump\n        /* \"/contracts/TimbPrize.sol\":4554:4601  uint256 public constant CLAIM_WINDOW_ROUNDS = 2 */\n    tag_39:\n      callvalue\n      dup1\n      iszero\n      tag_228\n      jumpi\n      0x00\n      dup1\n      revert\n    tag_228:\n      pop\n      tag_114\n        /* \"/contracts/TimbPrize.sol\":4600:4601  2 */\n      0x02\n        /* \"/contracts/TimbPrize.sol\":4554:4601  uint256 public constant CLAIM_WINDOW_ROUNDS = 2 */\n      dup2\n      jump\n        /* \"/contracts/TimbPrize.sol\":5987:6027  uint256 public currentAccumulatedRewards */\n    tag_40:\n      callvalue\n      dup1\n      iszero\n      tag_232\n      jumpi\n      0x00\n      dup1\n      revert\n    tag_232:\n      pop\n      tag_114\n      sload(0x0c)\n      dup2\n      jump\n        /* \"/contracts/TimbPrize.sol\":6871:6920  mapping(uint256 => uint256) public roundRemainder */\n    tag_41:\n      callvalue\n      dup1\n      iszero\n      tag_236\n      jumpi\n      0x00\n      dup1\n      revert\n    tag_236:\n      pop\n      tag_114\n      tag_238\n      calldatasize\n      0x04\n      tag_76\n      jump\t// in\n    tag_238:\n      mstore(0x20, 0x14)\n      0x00\n      swap1\n      dup2\n      mstore\n      0x40\n      swap1\n      keccak256\n      sload\n      dup2\n      jump\n        /* \"/contracts/TimbPrize.sol\":4305:4351  uint256 public constant SEGMENTS_PER_ROUND = 6 */\n    tag_42:\n      callvalue\n      dup1\n      iszero\n      tag_241\n      jumpi\n      0x00\n      dup1\n      revert\n    tag_241:\n      pop\n      tag_114\n        /* \"/contracts/TimbPrize.sol\":4350:4351  6 */\n      0x06\n        /* \"/contracts/TimbPrize.sol\":4305:4351  uint256 public constant SEGMENTS_PER_ROUND = 6 */\n      dup2\n      jump\n        /* \"/contracts/TimbPrize.sol\":26952:27097  function setRouter(address _router) external onlyOwner {... */\n    tag_43:\n      callvalue\n      dup1\n      iszero\n      tag_245\n      jumpi\n      0x00\n      dup1\n      revert\n    tag_245:\n      pop\n      tag_88\n      tag_247\n      calldatasize\n      0x04\n      tag_90\n      jump\t// in\n    tag_247:\n      tag_248\n      jump\t// in\n        /* \"/contracts/TimbPrize.sol\":12319:12425  function isSettlementWindow() external view returns (bool) {... */\n    tag_44:\n      callvalue\n      dup1\n      iszero\n      tag_249\n      jumpi\n      0x00\n      dup1\n      revert\n    tag_249:\n      pop\n      tag_124\n      tag_251\n      jump\t// in\n        /* \"/contracts/TimbPrize.sol\":5499:5525  bool public shuffleEnabled */\n    tag_45:\n      callvalue\n      dup1\n      iszero\n      tag_253\n      jumpi\n      0x00\n      dup1\n      revert\n    tag_253:\n      pop\n      sload(0x07)\n      tag_124\n      swap1\n      0xff\n      and\n      dup2\n      jump\n        /* \"/contracts/TimbPrize.sol\":5794:5825  uint256 public segmentStartTime */\n    tag_46:\n      callvalue\n      dup1\n      iszero\n      tag_257\n      jumpi\n      0x00\n      dup1\n      revert\n    tag_257:\n      pop\n      tag_114\n      sload(0x0a)\n      dup2\n      jump\n        /* \"/contracts/TimbPrize.sol\":6111:6152  uint256 public gameUnclaimed_winningsPool */\n    tag_47:\n      callvalue\n      dup1\n      iszero\n      tag_261\n      jumpi\n      0x00\n      dup1\n      revert\n    tag_261:\n      pop\n      tag_114\n      sload(0x0d)\n      dup2\n      jump\n        /* \"/contracts/TimbPrize.sol\":28221:28295  function pauseSettlement() external onlyOwner { settlementPaused = true; } */\n    tag_48:\n      callvalue\n      dup1\n      iszero\n      tag_265\n      jumpi\n      0x00\n      dup1\n      revert\n    tag_265:\n      pop\n      tag_88\n      tag_267\n      jump\t// in\n        /* \"/contracts/TimbPrize.sol\":10953:11483  function startGame() external onlyOwner {... */\n    tag_49:\n      callvalue\n      dup1\n      iszero\n      tag_268\n      jumpi\n      0x00\n      dup1\n      revert\n    tag_268:\n      pop\n      tag_88\n      tag_270\n      jump\t// in\n        /* \"/contracts/TimbPrize.sol\":4973:5000  address public gameRegistry */\n    tag_50:\n      callvalue\n      dup1\n      iszero\n      tag_271\n      jumpi\n      0x00\n      dup1\n      revert\n    tag_271:\n      pop\n      sload(0x02)\n      tag_81\n      swap1\n      sub(shl(0xa0, 0x01), 0x01)\n      and\n      dup2\n      jump\n        /* \"/contracts/TimbPrize.sol\":27221:27384  function setGameRegistry(address _registry) external onlyOwner {... */\n    tag_51:\n      callvalue\n      dup1\n      iszero\n      tag_275\n      jumpi\n      0x00\n      dup1\n      revert\n    tag_275:\n      pop\n      tag_88\n      tag_277\n      calldatasize\n      0x04\n      tag_90\n      jump\t// in\n    tag_277:\n      tag_278\n      jump\t// in\n        /* \"/contracts/TimbPrize.sol\":28141:28216  function unpauseEntries()  external onlyOwner { entriesPaused    = false; } */\n    tag_52:\n      callvalue\n      dup1\n      iszero\n      tag_279\n      jumpi\n      0x00\n      dup1\n      revert\n    tag_279:\n      pop\n      tag_88\n      tag_281\n      jump\t// in\n        /* \"/contracts/TimbPrize.sol\":27953:28056  function setShuffleEnabled(bool _enabled) external onlyOwner {... */\n    tag_53:\n      callvalue\n      dup1\n      iszero\n      tag_282\n      jumpi\n      0x00\n      dup1\n      revert\n    tag_282:\n      pop\n      tag_88\n      tag_284\n      calldatasize\n      0x04\n      tag_285\n      jump\t// in\n    tag_284:\n      tag_286\n      jump\t// in\n        /* \"/contracts/TimbPrize.sol\":27103:27215  function setEligibleRegistry(address _registry) external onlyOwner {... */\n    tag_54:\n      callvalue\n      dup1\n      iszero\n      tag_287\n      jumpi\n      0x00\n      dup1\n      revert\n    tag_287:\n      pop\n      tag_88\n      tag_289\n      calldatasize\n      0x04\n      tag_90\n      jump\t// in\n    tag_289:\n      tag_290\n      jump\t// in\n        /* \"@openzeppelin/contracts/access/Ownable.sol\":2543:2758  function transferOwnership(address newOwner) public virtual onlyOwner {... */\n    tag_55:\n      callvalue\n      dup1\n      iszero\n      tag_291\n      jumpi\n      0x00\n      dup1\n      revert\n    tag_291:\n      pop\n      tag_88\n      tag_293\n      calldatasize\n      0x04\n      tag_90\n      jump\t// in\n    tag_293:\n      tag_294\n      jump\t// in\n        /* \"/contracts/TimbPrize.sol\":6763:6818  mapping(uint256 => uint256) public roundPerWinnerAmount */\n    tag_56:\n      callvalue\n      dup1\n      iszero\n      tag_295\n      jumpi\n      0x00\n      dup1\n      revert\n    tag_295:\n      pop\n      tag_114\n      tag_297\n      calldatasize\n      0x04\n      tag_76\n      jump\t// in\n    tag_297:\n      mstore(0x20, 0x13)\n      0x00\n      swap1\n      dup2\n      mstore\n      0x40\n      swap1\n      keccak256\n      sload\n      dup2\n      jump\n        /* \"/contracts/TimbPrize.sol\":5076:5097  address public router */\n    tag_57:\n      callvalue\n      dup1\n      iszero\n      tag_300\n      jumpi\n      0x00\n      dup1\n      revert\n    tag_300:\n      pop\n      sload(0x03)\n      tag_81\n      swap1\n      sub(shl(0xa0, 0x01), 0x01)\n      and\n      dup2\n      jump\n        /* \"/contracts/TimbPrize.sol\":25656:26176  function getRoundResult(uint256 round)... */\n    tag_77:\n        /* \"/contracts/TimbPrize.sol\":25755:25777  bytes6   winningString */\n      0x00\n        /* \"/contracts/TimbPrize.sol\":25952:25977  roundWinningString[round] */\n      dup2\n      dup2\n      mstore\n        /* \"/contracts/TimbPrize.sol\":25952:25970  roundWinningString */\n      0x10\n        /* \"/contracts/TimbPrize.sol\":25952:25977  roundWinningString[round] */\n      0x20\n      swap1\n      dup2\n      mstore\n      0x40\n      dup1\n      dup4\n      keccak256\n      sload\n        /* \"/contracts/TimbPrize.sol\":26003:26017  roundPotAmount */\n      0x11\n        /* \"/contracts/TimbPrize.sol\":26003:26024  roundPotAmount[round] */\n      dup4\n      mstore\n      dup2\n      dup5\n      keccak256\n      sload\n        /* \"/contracts/TimbPrize.sol\":26050:26062  roundWinners */\n      0x12\n        /* \"/contracts/TimbPrize.sol\":26050:26069  roundWinners[round] */\n      dup5\n      mstore\n      dup3\n      dup6\n      keccak256\n        /* \"/contracts/TimbPrize.sol\":26034:26069  winners       = roundWinners[round] */\n      dup1\n      sload\n      dup5\n      mload\n      dup2\n      dup8\n      mul\n      dup2\n      add\n      dup8\n      add\n      swap1\n      swap6\n      mstore\n      dup1\n      dup6\n      mstore\n        /* \"/contracts/TimbPrize.sol\":25952:25977  roundWinningString[round] */\n      0xd0\n      swap4\n      swap1\n      swap4\n      shl\n      swap6\n        /* \"/contracts/TimbPrize.sol\":26003:26024  roundPotAmount[round] */\n      swap2\n      swap5\n        /* \"/contracts/TimbPrize.sol\":25823:25847  address[] memory winners */\n      0x60\n      swap5\n        /* \"/contracts/TimbPrize.sol\":25755:25777  bytes6   winningString */\n      swap3\n      swap4\n      dup5\n      swap4\n        /* \"/contracts/TimbPrize.sol\":26034:26069  winners       = roundWinners[round] */\n      swap3\n        /* \"/contracts/TimbPrize.sol\":26050:26069  roundWinners[round] */\n      swap2\n        /* \"/contracts/TimbPrize.sol\":26034:26069  winners       = roundWinners[round] */\n      dup4\n      add\n        /* \"/contracts/TimbPrize.sol\":26050:26069  roundWinners[round] */\n      dup3\n        /* \"/contracts/TimbPrize.sol\":26034:26069  winners       = roundWinners[round] */\n      dup3\n      dup1\n      iszero\n      tag_305\n      jumpi\n      0x20\n      mul\n      dup3\n      add\n      swap2\n      swap1\n      0x00\n      mstore\n      keccak256(0x00, 0x20)\n      swap1\n    tag_306:\n      dup2\n      sload\n      sub(shl(0xa0, 0x01), 0x01)\n      and\n      dup2\n      mstore\n      0x01\n      swap1\n      swap2\n      add\n      swap1\n      0x20\n      add\n      dup1\n      dup4\n      gt\n      tag_306\n      jumpi\n    tag_305:\n      pop\n      pop\n      pop\n        /* \"/contracts/TimbPrize.sol\":26095:26122  roundPerWinnerAmount[round] */\n      0x00\n      swap9\n      dup10\n      mstore\n      pop\n      pop\n        /* \"/contracts/TimbPrize.sol\":26095:26115  roundPerWinnerAmount */\n      0x13\n        /* \"/contracts/TimbPrize.sol\":26095:26122  roundPerWinnerAmount[round] */\n      0x20\n      swap1\n      dup2\n      mstore\n      0x40\n      dup1\n      dup10\n      keccak256\n      sload\n        /* \"/contracts/TimbPrize.sol\":26148:26162  roundRemainder */\n      0x14\n        /* \"/contracts/TimbPrize.sol\":26148:26169  roundRemainder[round] */\n      swap1\n      swap3\n      mstore\n      swap1\n      swap8\n      keccak256\n      sload\n        /* \"/contracts/TimbPrize.sol\":25656:26176  function getRoundResult(uint256 round)... */\n      swap6\n      swap8\n      swap5\n      swap7\n        /* \"/contracts/TimbPrize.sol\":26034:26069  winners       = roundWinners[round] */\n      swap1\n      swap6\n        /* \"/contracts/TimbPrize.sol\":26095:26122  roundPerWinnerAmount[round] */\n      swap1\n      swap5\n        /* \"/contracts/TimbPrize.sol\":26148:26169  roundRemainder[round] */\n      swap1\n      swap4\n      pop\n        /* \"/contracts/TimbPrize.sol\":25656:26176  function getRoundResult(uint256 round)... */\n      swap2\n      pop\n      pop\n      jump\t// out\n        /* \"/contracts/TimbPrize.sol\":6655:6704  mapping(uint256 => address[]) public roundWinners */\n    tag_84:\n      mstore(0x20, 0x12)\n      dup2\n      0x00\n      mstore\n      keccak256(0x00, 0x40)\n      dup2\n      dup2\n      sload\n      dup2\n      lt\n      tag_307\n      jumpi\n      0x00\n      dup1\n      revert\n    tag_307:\n      0x00\n      swap2\n      dup3\n      mstore\n      0x20\n      swap1\n      swap2\n      keccak256\n      add\n      sload\n      sub(shl(0xa0, 0x01), 0x01)\n      and\n      swap2\n      pop\n      dup3\n      swap1\n      pop\n      jump\t// out\n        /* \"/contracts/TimbPrize.sol\":26757:26946  function setSettler(address _settler) external onlyOwner {... */\n    tag_91:\n        /* \"@openzeppelin/contracts/access/Ownable.sol\":1531:1544  _checkOwner() */\n      tag_310\n        /* \"@openzeppelin/contracts/access/Ownable.sol\":1531:1542  _checkOwner */\n      tag_311\n        /* \"@openzeppelin/contracts/access/Ownable.sol\":1531:1544  _checkOwner() */\n      jump\t// in\n    tag_310:\n      sub(shl(0xa0, 0x01), 0x01)\n        /* \"/contracts/TimbPrize.sol\":26828:26850  _settler == address(0) */\n      dup2\n      and\n        /* \"/contracts/TimbPrize.sol\":26824:26872  if (_settler == address(0)) revert ZeroAddress() */\n      tag_313\n      jumpi\n        /* \"/contracts/TimbPrize.sol\":26859:26872  ZeroAddress() */\n      mload(0x40)\n      shl(0xe0, 0xd92e233d)\n      dup2\n      mstore\n      0x04\n      add\n      mload(0x40)\n      dup1\n      swap2\n      sub\n      swap1\n      revert\n        /* \"/contracts/TimbPrize.sol\":26824:26872  if (_settler == address(0)) revert ZeroAddress() */\n    tag_313:\n        /* \"/contracts/TimbPrize.sol\":26882:26889  settler */\n      0x05\n        /* \"/contracts/TimbPrize.sol\":26882:26900  settler = _settler */\n      dup1\n      sload\n      not(sub(shl(0xa0, 0x01), 0x01))\n      and\n      sub(shl(0xa0, 0x01), 0x01)\n      dup4\n      and\n      swap1\n      dup2\n      or\n      swap1\n      swap2\n      sstore\n        /* \"/contracts/TimbPrize.sol\":26915:26939  SettlerUpdated(_settler) */\n      mload(0x40)\n      0x1f53e003aaf46af23aeb50e85f438d6f0c33618ce44e3545f1ec030c79b17729\n      swap1\n      0x00\n      swap1\n      log2\n        /* \"/contracts/TimbPrize.sol\":26757:26946  function setSettler(address _settler) external onlyOwner {... */\n      pop\n      jump\t// out\n        /* \"/contracts/TimbPrize.sol\":28062:28136  function pauseEntries()    external onlyOwner { entriesPaused    = true; } */\n    tag_94:\n        /* \"@openzeppelin/contracts/access/Ownable.sol\":1531:1544  _checkOwner() */\n      tag_315\n        /* \"@openzeppelin/contracts/access/Ownable.sol\":1531:1542  _checkOwner */\n      tag_311\n        /* \"@openzeppelin/contracts/access/Ownable.sol\":1531:1544  _checkOwner() */\n      jump\t// in\n    tag_315:\n        /* \"/contracts/TimbPrize.sol\":28110:28123  entriesPaused */\n      0x16\n        /* \"/contracts/TimbPrize.sol\":28110:28133  entriesPaused    = true */\n      dup1\n      sload\n      not(0xff)\n      and\n        /* \"/contracts/TimbPrize.sol\":28129:28133  true */\n      0x01\n        /* \"/contracts/TimbPrize.sol\":28110:28133  entriesPaused    = true */\n      or\n      swap1\n      sstore\n        /* \"/contracts/TimbPrize.sol\":28062:28136  function pauseEntries()    external onlyOwner { entriesPaused    = true; } */\n      jump\t// out\n        /* \"/contracts/TimbPrize.sol\":11936:12218  function nudgeScroll()... */\n    tag_97:\n        /* \"@openzeppelin/contracts/utils/ReentrancyGuard.sol\":3023:3044  _nonReentrantBefore() */\n      tag_318\n        /* \"@openzeppelin/contracts/utils/ReentrancyGuard.sol\":3023:3042  _nonReentrantBefore */\n      tag_319\n        /* \"@openzeppelin/contracts/utils/ReentrancyGuard.sol\":3023:3044  _nonReentrantBefore() */\n      jump\t// in\n    tag_318:\n        /* \"/contracts/TimbPrize.sol\":9489:9495  router */\n      and(sub(shl(0xa0, 0x01), 0x01), sload(0x03))\n        /* \"/contracts/TimbPrize.sol\":9475:9485  msg.sender */\n      caller\n        /* \"/contracts/TimbPrize.sol\":9475:9495  msg.sender != router */\n      eq\n        /* \"/contracts/TimbPrize.sol\":9471:9515  if (msg.sender != router) revert NotRouter() */\n      tag_321\n      jumpi\n        /* \"/contracts/TimbPrize.sol\":9504:9515  NotRouter() */\n      mload(0x40)\n      shl(0xe0, 0x91655201)\n      dup2\n      mstore\n      0x04\n      add\n      mload(0x40)\n      dup1\n      swap2\n      sub\n      swap1\n      revert\n        /* \"/contracts/TimbPrize.sol\":9471:9515  if (msg.sender != router) revert NotRouter() */\n    tag_321:\n        /* \"/contracts/TimbPrize.sol\":9581:9592  gameStarted */\n      and(0xff, sload(0x0b))\n        /* \"/contracts/TimbPrize.sol\":9576:9617  if (!gameStarted) revert GameNotStarted() */\n      tag_323\n      jumpi\n        /* \"/contracts/TimbPrize.sol\":9601:9617  GameNotStarted() */\n      mload(0x40)\n      shl(0xe0, 0x3a5f7b57)\n      dup2\n      mstore\n      0x04\n      add\n      mload(0x40)\n      dup1\n      swap2\n      sub\n      swap1\n      revert\n        /* \"/contracts/TimbPrize.sol\":9576:9617  if (!gameStarted) revert GameNotStarted() */\n    tag_323:\n        /* \"/contracts/TimbPrize.sol\":12058:12081  _isInSettlementWindow() */\n      tag_325\n        /* \"/contracts/TimbPrize.sol\":12058:12079  _isInSettlementWindow */\n      tag_326\n        /* \"/contracts/TimbPrize.sol\":12058:12081  _isInSettlementWindow() */\n      jump\t// in\n    tag_325:\n        /* \"/contracts/TimbPrize.sol\":12054:12110  if (_isInSettlementWindow()) revert InSettlementWindow() */\n      iszero\n      tag_327\n      jumpi\n        /* \"/contracts/TimbPrize.sol\":12090:12110  InSettlementWindow() */\n      mload(0x40)\n      shl(0xe0, 0x717824fb)\n      dup2\n      mstore\n      0x04\n      add\n      mload(0x40)\n      dup1\n      swap2\n      sub\n      swap1\n      revert\n        /* \"/contracts/TimbPrize.sol\":12054:12110  if (_isInSettlementWindow()) revert InSettlementWindow() */\n    tag_327:\n        /* \"/contracts/TimbPrize.sol\":12120:12135  positionCounter */\n      0x06\n        /* \"/contracts/TimbPrize.sol\":12120:12137  positionCounter++ */\n      dup1\n      sload\n      swap1\n        /* \"/contracts/TimbPrize.sol\":12120:12135  positionCounter */\n      0x00\n        /* \"/contracts/TimbPrize.sol\":12120:12137  positionCounter++ */\n      tag_328\n      dup4\n      tag_329\n      jump\t// in\n    tag_328:\n      swap2\n      swap1\n      pop\n      sstore\n      pop\n        /* \"/contracts/TimbPrize.sol\":12182:12194  currentRound */\n      sload(0x08)\n        /* \"/contracts/TimbPrize.sol\":12152:12211  ScrollNudged(positionCounter, currentRound, currentSegment) */\n      0x494d93a08dca016bff87fc5e35de704731b23d47eb35da9499be2ddb7536da22\n        /* \"/contracts/TimbPrize.sol\":12165:12180  positionCounter */\n      sload(0x06)\n        /* \"/contracts/TimbPrize.sol\":12196:12210  currentSegment */\n      sload(0x09)\n        /* \"/contracts/TimbPrize.sol\":12152:12211  ScrollNudged(positionCounter, currentRound, currentSegment) */\n      mload(0x40)\n      tag_330\n      swap3\n      swap2\n      swap1\n        /* \"#utility.yul\":4543:4568   */\n      swap2\n      dup3\n      mstore\n        /* \"#utility.yul\":4599:4601   */\n      0x20\n        /* \"#utility.yul\":4584:4602   */\n      dup3\n      add\n        /* \"#utility.yul\":4577:4611   */\n      mstore\n        /* \"#utility.yul\":4531:4533   */\n      0x40\n        /* \"#utility.yul\":4516:4534   */\n      add\n      swap1\n        /* \"#utility.yul\":4369:4617   */\n      jump\n        /* \"/contracts/TimbPrize.sol\":12152:12211  ScrollNudged(positionCounter, currentRound, currentSegment) */\n    tag_330:\n      mload(0x40)\n      dup1\n      swap2\n      sub\n      swap1\n      log2\n        /* \"@openzeppelin/contracts/utils/ReentrancyGuard.sol\":3065:3085  _nonReentrantAfter() */\n      tag_332\n        /* \"@openzeppelin/contracts/utils/ReentrancyGuard.sol\":2365:2366  1 */\n      0x01\n      0x00\n      dup1\n      mload\n      0x20\n      data_c8669cf8eaf883002b9f48e28846a8d408c9b58ea6613bace374265e43c9bc43\n      dup4\n      codecopy\n      dup2\n      mload\n      swap2\n      mstore\n        /* \"@openzeppelin/contracts/utils/ReentrancyGuard.sol\":3972:4034  _reentrancyGuardStorageSlot().getUint256Slot().value = ENTERED */\n      sstore\n        /* \"@openzeppelin/contracts/utils/ReentrancyGuard.sol\":3749:4041  function _nonReentrantBefore() private {... */\n      jump\n        /* \"@openzeppelin/contracts/utils/ReentrancyGuard.sol\":3065:3085  _nonReentrantAfter() */\n    tag_332:\n        /* \"/contracts/TimbPrize.sol\":11936:12218  function nudgeScroll()... */\n      jump\t// out\n        /* \"/contracts/TimbPrize.sol\":13074:13343  function getCurrentWindow() public view returns (bytes6 window) {... */\n    tag_100:\n        /* \"/contracts/TimbPrize.sol\":13170:13182  new bytes(6) */\n      0x40\n      dup1\n      mload\n        /* \"/contracts/TimbPrize.sol\":13180:13181  6 */\n      0x06\n        /* \"/contracts/TimbPrize.sol\":13170:13182  new bytes(6) */\n      dup1\n      dup3\n      mstore\n      dup2\n      dup4\n      add\n      swap1\n      swap3\n      mstore\n        /* \"/contracts/TimbPrize.sol\":13123:13136  bytes6 window */\n      0x00\n      swap2\n      dup3\n      swap2\n        /* \"/contracts/TimbPrize.sol\":13170:13182  new bytes(6) */\n      swap1\n      0x20\n      dup3\n      add\n      dup2\n      dup1\n      calldatasize\n      dup4\n      calldatacopy\n      add\n      swap1\n      pop\n      pop\n        /* \"/contracts/TimbPrize.sol\":13148:13182  bytes memory result = new bytes(6) */\n      swap1\n      pop\n        /* \"/contracts/TimbPrize.sol\":13197:13206  uint256 i */\n      0x00\n        /* \"/contracts/TimbPrize.sol\":13192:13297  for (uint256 i = 0; i < 6; i++) {... */\n    tag_339:\n        /* \"/contracts/TimbPrize.sol\":13216:13217  6 */\n      0x06\n        /* \"/contracts/TimbPrize.sol\":13212:13213  i */\n      dup2\n        /* \"/contracts/TimbPrize.sol\":13212:13217  i < 6 */\n      lt\n        /* \"/contracts/TimbPrize.sol\":13192:13297  for (uint256 i = 0; i < 6; i++) {... */\n      iszero\n      tag_340\n      jumpi\n        /* \"/contracts/TimbPrize.sol\":13250:13258  ALPHABET */\n      mload(0x40)\n      dup1\n      0x60\n      add\n      0x40\n      mstore\n      dup1\n      0x24\n      dup2\n      mstore\n      0x20\n      add\n      data_d1b12de380b5f3a30ba38a23a69e5703e0569d4a1fc4ac869b5f2bb883f9bcc1\n      0x24\n      swap2\n      codecopy\n        /* \"/contracts/TimbPrize.sol\":13283:13285  36 */\n      0x24\n        /* \"/contracts/TimbPrize.sol\":13278:13279  i */\n      dup3\n        /* \"/contracts/TimbPrize.sol\":13260:13275  positionCounter */\n      sload(0x06)\n        /* \"/contracts/TimbPrize.sol\":13260:13279  positionCounter + i */\n      tag_342\n      swap2\n      swap1\n      tag_343\n      jump\t// in\n    tag_342:\n        /* \"/contracts/TimbPrize.sol\":13259:13285  (positionCounter + i) % 36 */\n      tag_344\n      swap2\n      swap1\n      tag_345\n      jump\t// in\n    tag_344:\n        /* \"/contracts/TimbPrize.sol\":13250:13286  ALPHABET[(positionCounter + i) % 36] */\n      dup2\n      mload\n      dup2\n      lt\n      tag_347\n      jumpi\n      tag_347\n      tag_348\n      jump\t// in\n    tag_347:\n      0x20\n      add\n      add\n      mload\n      0xf8\n      shr\n      0xf8\n      shl\n        /* \"/contracts/TimbPrize.sol\":13238:13244  result */\n      dup3\n        /* \"/contracts/TimbPrize.sol\":13245:13246  i */\n      dup3\n        /* \"/contracts/TimbPrize.sol\":13238:13247  result[i] */\n      dup2\n      mload\n      dup2\n      lt\n      tag_350\n      jumpi\n      tag_350\n      tag_348\n      jump\t// in\n    tag_350:\n      0x20\n      add\n      add\n        /* \"/contracts/TimbPrize.sol\":13238:13286  result[i] = ALPHABET[(positionCounter + i) % 36] */\n      swap1\n      not(sub(shl(0xf8, 0x01), 0x01))\n      and\n      swap1\n      dup2\n      0x00\n      byte\n      swap1\n      mstore8\n      pop\n        /* \"/contracts/TimbPrize.sol\":13219:13222  i++ */\n      0x01\n      add\n        /* \"/contracts/TimbPrize.sol\":13192:13297  for (uint256 i = 0; i < 6; i++) {... */\n      jump(tag_339)\n    tag_340:\n      pop\n        /* \"/contracts/TimbPrize.sol\":13315:13336  bytes6(bytes(result)) */\n      tag_351\n        /* \"/contracts/TimbPrize.sol\":13328:13334  result */\n      dup2\n        /* \"/contracts/TimbPrize.sol\":13315:13336  bytes6(bytes(result)) */\n      tag_352\n      jump\t// in\n    tag_351:\n        /* \"/contracts/TimbPrize.sol\":13306:13336  window = bytes6(bytes(result)) */\n      swap2\n      pop\n        /* \"/contracts/TimbPrize.sol\":13138:13343  {... */\n      pop\n        /* \"/contracts/TimbPrize.sol\":13074:13343  function getCurrentWindow() public view returns (bytes6 window) {... */\n      swap1\n      jump\t// out\n        /* \"/contracts/TimbPrize.sol\":24326:24577  function addToPot() external payable {... */\n    tag_104:\n        /* \"/contracts/TimbPrize.sol\":24377:24386  msg.value */\n      callvalue\n        /* \"/contracts/TimbPrize.sol\":24390:24391  0 */\n      0x00\n        /* \"/contracts/TimbPrize.sol\":24377:24391  msg.value == 0 */\n      sub\n        /* \"/contracts/TimbPrize.sol\":24373:24412  if (msg.value == 0) revert ZeroAmount() */\n      tag_354\n      jumpi\n        /* \"/contracts/TimbPrize.sol\":24400:24412  ZeroAmount() */\n      mload(0x40)\n      shl(0xe0, 0x1f2a2005)\n      dup2\n      mstore\n      0x04\n      add\n      mload(0x40)\n      dup1\n      swap2\n      sub\n      swap1\n      revert\n        /* \"/contracts/TimbPrize.sol\":24373:24412  if (msg.value == 0) revert ZeroAmount() */\n    tag_354:\n        /* \"/contracts/TimbPrize.sol\":24451:24460  msg.value */\n      callvalue\n        /* \"/contracts/TimbPrize.sol\":24422:24447  currentAccumulatedRewards */\n      0x0c\n      0x00\n        /* \"/contracts/TimbPrize.sol\":24422:24460  currentAccumulatedRewards += msg.value */\n      dup3\n      dup3\n      sload\n      tag_355\n      swap2\n      swap1\n      tag_343\n      jump\t// in\n    tag_355:\n      swap1\n      swap2\n      sstore\n      pop\n      pop\n        /* \"/contracts/TimbPrize.sol\":24483:24494  prizeEscrow */\n      sload(0x01)\n        /* \"/contracts/TimbPrize.sol\":24470:24523  IPrizeEscrow(prizeEscrow).deposit{value: msg.value}() */\n      0x40\n      dup1\n      mload\n      shl(0xe4, 0x0d0e30db)\n      dup2\n      mstore\n      swap1\n      mload\n      sub(shl(0xa0, 0x01), 0x01)\n        /* \"/contracts/TimbPrize.sol\":24483:24494  prizeEscrow */\n      swap1\n      swap3\n      and\n      swap2\n        /* \"/contracts/TimbPrize.sol\":24470:24503  IPrizeEscrow(prizeEscrow).deposit */\n      0xd0e30db0\n      swap2\n        /* \"/contracts/TimbPrize.sol\":24511:24520  msg.value */\n      callvalue\n      swap2\n        /* \"/contracts/TimbPrize.sol\":24470:24523  IPrizeEscrow(prizeEscrow).deposit{value: msg.value}() */\n      0x04\n      dup1\n      dup4\n      add\n      swap3\n        /* \"/contracts/TimbPrize.sol\":24483:24494  prizeEscrow */\n      0x00\n      swap3\n        /* \"/contracts/TimbPrize.sol\":24470:24523  IPrizeEscrow(prizeEscrow).deposit{value: msg.value}() */\n      swap2\n      swap1\n      dup3\n      swap1\n      sub\n      add\n      dup2\n        /* \"/contracts/TimbPrize.sol\":24511:24520  msg.value */\n      dup6\n        /* \"/contracts/TimbPrize.sol\":24483:24494  prizeEscrow */\n      dup9\n        /* \"/contracts/TimbPrize.sol\":24470:24523  IPrizeEscrow(prizeEscrow).deposit{value: msg.value}() */\n      dup1\n      extcodesize\n      iszero\n      dup1\n      iszero\n      tag_356\n      jumpi\n      0x00\n      dup1\n      revert\n    tag_356:\n      pop\n      gas\n      call\n      iszero\n      dup1\n      iszero\n      tag_358\n      jumpi\n      returndatasize\n      0x00\n      dup1\n      returndatacopy\n      revert(0x00, returndatasize)\n    tag_358:\n      pop\n      pop\n        /* \"/contracts/TimbPrize.sol\":24538:24570  PotFunded(msg.value, msg.sender) */\n      mload(0x40)\n        /* \"/contracts/TimbPrize.sol\":24548:24557  msg.value */\n      callvalue\n        /* \"#utility.yul\":2457:2482   */\n      dup2\n      mstore\n        /* \"/contracts/TimbPrize.sol\":24559:24569  msg.sender */\n      caller\n      swap4\n      pop\n        /* \"/contracts/TimbPrize.sol\":24538:24570  PotFunded(msg.value, msg.sender) */\n      0xf0d496561fe25891ca8568b6877b038238629d8dbe5777373589bece931dc172\n      swap3\n      pop\n        /* \"#utility.yul\":2445:2447   */\n      0x20\n        /* \"#utility.yul\":2430:2448   */\n      add\n      swap1\n      pop\n        /* \"/contracts/TimbPrize.sol\":24538:24570  PotFunded(msg.value, msg.sender) */\n    tag_359:\n      mload(0x40)\n      dup1\n      swap2\n      sub\n      swap1\n      log2\n        /* \"/contracts/TimbPrize.sol\":24326:24577  function addToPot() external payable {... */\n      jump\t// out\n        /* \"/contracts/TimbPrize.sol\":27551:27751  function setWinnersPerRound(uint256 _count) external onlyOwner {... */\n    tag_112:\n        /* \"@openzeppelin/contracts/access/Ownable.sol\":1531:1544  _checkOwner() */\n      tag_361\n        /* \"@openzeppelin/contracts/access/Ownable.sol\":1531:1542  _checkOwner */\n      tag_311\n        /* \"@openzeppelin/contracts/access/Ownable.sol\":1531:1544  _checkOwner() */\n      jump\t// in\n    tag_361:\n        /* \"/contracts/TimbPrize.sol\":27628:27634  _count */\n      dup1\n        /* \"/contracts/TimbPrize.sol\":27638:27639  0 */\n      0x00\n        /* \"/contracts/TimbPrize.sol\":27628:27639  _count == 0 */\n      sub\n        /* \"/contracts/TimbPrize.sol\":27624:27669  if (_count == 0) revert InvalidWinnersCount() */\n      tag_363\n      jumpi\n        /* \"/contracts/TimbPrize.sol\":27648:27669  InvalidWinnersCount() */\n      mload(0x40)\n      shl(0xe1, 0x40250f01)\n      dup2\n      mstore\n      0x04\n      add\n      mload(0x40)\n      dup1\n      swap2\n      sub\n      swap1\n      revert\n        /* \"/contracts/TimbPrize.sol\":27624:27669  if (_count == 0) revert InvalidWinnersCount() */\n    tag_363:\n        /* \"/contracts/TimbPrize.sol\":27679:27694  winnersPerRound */\n      0x0e\n        /* \"/contracts/TimbPrize.sol\":27679:27703  winnersPerRound = _count */\n      dup2\n      swap1\n      sstore\n        /* \"/contracts/TimbPrize.sol\":27718:27744  WinnersPerRoundSet(_count) */\n      mload(0x40)\n        /* \"#utility.yul\":2457:2482   */\n      dup2\n      dup2\n      mstore\n        /* \"/contracts/TimbPrize.sol\":27718:27744  WinnersPerRoundSet(_count) */\n      0x1e64ff98418e31d486498b471741cc3ff92302fa146e6e124e3025186cfab465\n      swap1\n        /* \"#utility.yul\":2445:2447   */\n      0x20\n        /* \"#utility.yul\":2430:2448   */\n      add\n        /* \"/contracts/TimbPrize.sol\":27718:27744  WinnersPerRoundSet(_count) */\n    tag_364:\n      mload(0x40)\n      dup1\n      swap2\n      sub\n      swap1\n      log1\n        /* \"/contracts/TimbPrize.sol\":27551:27751  function setWinnersPerRound(uint256 _count) external onlyOwner {... */\n      pop\n      jump\t// out\n        /* \"/contracts/TimbPrize.sol\":4181:4262  uint256 public constant SEGMENT_DURATION = INTERACTION_WINDOW + SETTLEMENT_WINDOW */\n    tag_115:\n        /* \"/contracts/TimbPrize.sol\":4224:4262  INTERACTION_WINDOW + SETTLEMENT_WINDOW */\n      tag_365\n        /* \"/contracts/TimbPrize.sol\":4125:4135  15 seconds */\n      0x0f\n        /* \"/contracts/TimbPrize.sol\":4004:4027  59 minutes + 45 seconds */\n      0x0e01\n        /* \"/contracts/TimbPrize.sol\":4224:4262  INTERACTION_WINDOW + SETTLEMENT_WINDOW */\n      tag_343\n      jump\t// in\n    tag_365:\n        /* \"/contracts/TimbPrize.sol\":4181:4262  uint256 public constant SEGMENT_DURATION = INTERACTION_WINDOW + SETTLEMENT_WINDOW */\n      dup2\n      jump\t// out\n        /* \"/contracts/TimbPrize.sol\":24866:25572  function getRoundState()... */\n    tag_120:\n        /* \"/contracts/TimbPrize.sol\":25227:25239  currentRound */\n      sload(0x08)\n        /* \"/contracts/TimbPrize.sol\":25266:25280  currentSegment */\n      sload(0x09)\n        /* \"/contracts/TimbPrize.sol\":25307:25323  segmentStartTime */\n      sload(0x0a)\n        /* \"/contracts/TimbPrize.sol\":25350:25365  positionCounter */\n      sload(0x06)\n        /* \"/contracts/TimbPrize.sol\":24951:24964  uint256 round */\n      0x00\n      dup1\n      dup1\n      dup1\n        /* \"/contracts/TimbPrize.sol\":25392:25410  getCurrentWindow() */\n      tag_367\n        /* \"/contracts/TimbPrize.sol\":25392:25408  getCurrentWindow */\n      tag_100\n        /* \"/contracts/TimbPrize.sol\":25392:25410  getCurrentWindow() */\n      jump\t// in\n    tag_367:\n        /* \"/contracts/TimbPrize.sol\":25375:25410  currentWindow  = getCurrentWindow() */\n      swap4\n      pop\n        /* \"/contracts/TimbPrize.sol\":25437:25462  currentAccumulatedRewards */\n      sload(0x0c)\n        /* \"/contracts/TimbPrize.sol\":25420:25462  pot            = currentAccumulatedRewards */\n      swap3\n      pop\n        /* \"/contracts/TimbPrize.sol\":25489:25515  gameUnclaimed_winningsPool */\n      sload(0x0d)\n        /* \"/contracts/TimbPrize.sol\":25472:25515  unclaimedPool  = gameUnclaimed_winningsPool */\n      swap2\n      pop\n        /* \"/contracts/TimbPrize.sol\":25542:25565  _isInSettlementWindow() */\n      tag_368\n        /* \"/contracts/TimbPrize.sol\":25542:25563  _isInSettlementWindow */\n      tag_326\n        /* \"/contracts/TimbPrize.sol\":25542:25565  _isInSettlementWindow() */\n      jump\t// in\n    tag_368:\n        /* \"/contracts/TimbPrize.sol\":25525:25565  inSettlement   = _isInSettlementWindow() */\n      swap1\n      pop\n        /* \"/contracts/TimbPrize.sol\":24866:25572  function getRoundState()... */\n      swap1\n      swap2\n      swap3\n      swap4\n      swap5\n      swap6\n      swap7\n      swap8\n      jump\t// out\n        /* \"/contracts/TimbPrize.sol\":27757:27947  function setProtocolCutBps(uint256 _bps) external onlyOwner {... */\n    tag_143:\n        /* \"@openzeppelin/contracts/access/Ownable.sol\":1531:1544  _checkOwner() */\n      tag_370\n        /* \"@openzeppelin/contracts/access/Ownable.sol\":1531:1542  _checkOwner */\n      tag_311\n        /* \"@openzeppelin/contracts/access/Ownable.sol\":1531:1544  _checkOwner() */\n      jump\t// in\n    tag_370:\n        /* \"/contracts/TimbPrize.sol\":27838:27842  1000 */\n      0x03e8\n        /* \"/contracts/TimbPrize.sol\":27831:27835  _bps */\n      dup2\n        /* \"/contracts/TimbPrize.sol\":27831:27842  _bps > 1000 */\n      gt\n        /* \"/contracts/TimbPrize.sol\":27827:27863  if (_bps > 1000) revert ZeroAmount() */\n      iszero\n      tag_372\n      jumpi\n        /* \"/contracts/TimbPrize.sol\":27851:27863  ZeroAmount() */\n      mload(0x40)\n      shl(0xe0, 0x1f2a2005)\n      dup2\n      mstore\n      0x04\n      add\n      mload(0x40)\n      dup1\n      swap2\n      sub\n      swap1\n      revert\n        /* \"/contracts/TimbPrize.sol\":27827:27863  if (_bps > 1000) revert ZeroAmount() */\n    tag_372:\n        /* \"/contracts/TimbPrize.sol\":27884:27898  protocolCutBps */\n      0x0f\n        /* \"/contracts/TimbPrize.sol\":27884:27905  protocolCutBps = _bps */\n      dup2\n      swap1\n      sstore\n        /* \"/contracts/TimbPrize.sol\":27920:27940  ProtocolCutSet(_bps) */\n      mload(0x40)\n        /* \"#utility.yul\":2457:2482   */\n      dup2\n      dup2\n      mstore\n        /* \"/contracts/TimbPrize.sol\":27920:27940  ProtocolCutSet(_bps) */\n      0x21b2cfef155acf409755ec06f4f701c8d13a5b6339fe8d1ee89afb57318f7084\n      swap1\n        /* \"#utility.yul\":2445:2447   */\n      0x20\n        /* \"#utility.yul\":2430:2448   */\n      add\n        /* \"/contracts/TimbPrize.sol\":27920:27940  ProtocolCutSet(_bps) */\n      tag_364\n        /* \"#utility.yul\":2311:2488   */\n      jump\n        /* \"/contracts/TimbPrize.sol\":14345:15061  function settleSegment()... */\n    tag_146:\n        /* \"@openzeppelin/contracts/utils/ReentrancyGuard.sol\":3023:3044  _nonReentrantBefore() */\n      tag_375\n        /* \"@openzeppelin/contracts/utils/ReentrancyGuard.sol\":3023:3042  _nonReentrantBefore */\n      tag_319\n        /* \"@openzeppelin/contracts/utils/ReentrancyGuard.sol\":3023:3044  _nonReentrantBefore() */\n      jump\t// in\n    tag_375:\n        /* \"/contracts/TimbPrize.sol\":9387:9394  settler */\n      and(sub(shl(0xa0, 0x01), 0x01), sload(0x05))\n        /* \"/contracts/TimbPrize.sol\":9373:9383  msg.sender */\n      caller\n        /* \"/contracts/TimbPrize.sol\":9373:9394  msg.sender != settler */\n      eq\n        /* \"/contracts/TimbPrize.sol\":9369:9415  if (msg.sender != settler) revert NotSettler() */\n      tag_377\n      jumpi\n        /* \"/contracts/TimbPrize.sol\":9403:9415  NotSettler() */\n      mload(0x40)\n      shl(0xe0, 0x05b94333)\n      dup2\n      mstore\n      0x04\n      add\n      mload(0x40)\n      dup1\n      swap2\n      sub\n      swap1\n      revert\n        /* \"/contracts/TimbPrize.sol\":9369:9415  if (msg.sender != settler) revert NotSettler() */\n    tag_377:\n        /* \"/contracts/TimbPrize.sol\":9581:9592  gameStarted */\n      and(0xff, sload(0x0b))\n        /* \"/contracts/TimbPrize.sol\":9576:9617  if (!gameStarted) revert GameNotStarted() */\n      tag_379\n      jumpi\n        /* \"/contracts/TimbPrize.sol\":9601:9617  GameNotStarted() */\n      mload(0x40)\n      shl(0xe0, 0x3a5f7b57)\n      dup2\n      mstore\n      0x04\n      add\n      mload(0x40)\n      dup1\n      swap2\n      sub\n      swap1\n      revert\n        /* \"/contracts/TimbPrize.sol\":9576:9617  if (!gameStarted) revert GameNotStarted() */\n    tag_379:\n        /* \"/contracts/TimbPrize.sol\":14470:14486  settlementPaused */\n      sload(0x16)\n      0x0100\n      swap1\n      div\n      0xff\n      and\n        /* \"/contracts/TimbPrize.sol\":14466:14513  if (settlementPaused) revert SettlementPaused() */\n      iszero\n      tag_381\n      jumpi\n        /* \"/contracts/TimbPrize.sol\":14495:14513  SettlementPaused() */\n      mload(0x40)\n      shl(0xe0, 0x4c211ccd)\n      dup2\n      mstore\n      0x04\n      add\n      mload(0x40)\n      dup1\n      swap2\n      sub\n      swap1\n      revert\n        /* \"/contracts/TimbPrize.sol\":14466:14513  if (settlementPaused) revert SettlementPaused() */\n    tag_381:\n        /* \"/contracts/TimbPrize.sol\":14524:14539  uint256 elapsed */\n      0x00\n        /* \"/contracts/TimbPrize.sol\":14560:14576  segmentStartTime */\n      sload(0x0a)\n        /* \"/contracts/TimbPrize.sol\":14542:14557  block.timestamp */\n      timestamp\n        /* \"/contracts/TimbPrize.sol\":14542:14576  block.timestamp - segmentStartTime */\n      tag_382\n      swap2\n      swap1\n      tag_383\n      jump\t// in\n    tag_382:\n        /* \"/contracts/TimbPrize.sol\":14524:14576  uint256 elapsed = block.timestamp - segmentStartTime */\n      swap1\n      pop\n        /* \"/contracts/TimbPrize.sol\":4004:4027  59 minutes + 45 seconds */\n      0x0e01\n        /* \"/contracts/TimbPrize.sol\":14590:14597  elapsed */\n      dup2\n        /* \"/contracts/TimbPrize.sol\":14590:14618  elapsed < INTERACTION_WINDOW */\n      lt\n        /* \"/contracts/TimbPrize.sol\":14586:14699  if (elapsed < INTERACTION_WINDOW) {... */\n      iszero\n      tag_384\n      jumpi\n        /* \"/contracts/TimbPrize.sol\":14641:14688  SegmentNotComplete(elapsed, INTERACTION_WINDOW) */\n      mload(0x40)\n      shl(0xe1, 0x2c690a37)\n      dup2\n      mstore\n      0x04\n      dup2\n      add\n        /* \"#utility.yul\":4543:4568   */\n      dup3\n      swap1\n      mstore\n        /* \"/contracts/TimbPrize.sol\":4004:4027  59 minutes + 45 seconds */\n      0x0e01\n        /* \"#utility.yul\":4584:4602   */\n      0x24\n      dup3\n      add\n        /* \"#utility.yul\":4577:4611   */\n      mstore\n        /* \"#utility.yul\":4516:4534   */\n      0x44\n      add\n        /* \"/contracts/TimbPrize.sol\":14641:14688  SegmentNotComplete(elapsed, INTERACTION_WINDOW) */\n    tag_385:\n      mload(0x40)\n      dup1\n      swap2\n      sub\n      swap1\n      revert\n        /* \"/contracts/TimbPrize.sol\":14586:14699  if (elapsed < INTERACTION_WINDOW) {... */\n    tag_384:\n        /* \"/contracts/TimbPrize.sol\":4350:4351  6 */\n      0x06\n        /* \"/contracts/TimbPrize.sol\":14713:14727  currentSegment */\n      sload(0x09)\n        /* \"/contracts/TimbPrize.sol\":14713:14748  currentSegment < SEGMENTS_PER_ROUND */\n      lt\n        /* \"/contracts/TimbPrize.sol\":14709:15055  if (currentSegment < SEGMENTS_PER_ROUND) {... */\n      iszero\n      tag_386\n      jumpi\n        /* \"/contracts/TimbPrize.sol\":14803:14817  currentSegment */\n      0x09\n        /* \"/contracts/TimbPrize.sol\":14803:14819  currentSegment++ */\n      dup1\n      sload\n      swap1\n        /* \"/contracts/TimbPrize.sol\":14803:14817  currentSegment */\n      0x00\n        /* \"/contracts/TimbPrize.sol\":14803:14819  currentSegment++ */\n      tag_387\n      dup4\n      tag_329\n      jump\t// in\n    tag_387:\n      swap2\n      swap1\n      pop\n      sstore\n      pop\n        /* \"/contracts/TimbPrize.sol\":14852:14867  block.timestamp */\n      timestamp\n        /* \"/contracts/TimbPrize.sol\":14833:14849  segmentStartTime */\n      0x0a\n        /* \"/contracts/TimbPrize.sol\":14833:14867  segmentStartTime = block.timestamp */\n      dup2\n      swap1\n      sstore\n      pop\n        /* \"/contracts/TimbPrize.sol\":14902:14914  currentRound */\n      sload(0x08)\n        /* \"/contracts/TimbPrize.sol\":14886:14948  SegmentAdvanced(currentRound, currentSegment, block.timestamp) */\n      0xe9a2985393fa4bb459d73d85249df3b5923e70fb93b7b9c307e72359ab167587\n        /* \"/contracts/TimbPrize.sol\":14916:14930  currentSegment */\n      sload(0x09)\n        /* \"/contracts/TimbPrize.sol\":14932:14947  block.timestamp */\n      timestamp\n        /* \"/contracts/TimbPrize.sol\":14886:14948  SegmentAdvanced(currentRound, currentSegment, block.timestamp) */\n      mload(0x40)\n      tag_388\n      swap3\n      swap2\n      swap1\n        /* \"#utility.yul\":4543:4568   */\n      swap2\n      dup3\n      mstore\n        /* \"#utility.yul\":4599:4601   */\n      0x20\n        /* \"#utility.yul\":4584:4602   */\n      dup3\n      add\n        /* \"#utility.yul\":4577:4611   */\n      mstore\n        /* \"#utility.yul\":4531:4533   */\n      0x40\n        /* \"#utility.yul\":4516:4534   */\n      add\n      swap1\n        /* \"#utility.yul\":4369:4617   */\n      jump\n        /* \"/contracts/TimbPrize.sol\":14886:14948  SegmentAdvanced(currentRound, currentSegment, block.timestamp) */\n    tag_388:\n      mload(0x40)\n      dup1\n      swap2\n      sub\n      swap1\n      log2\n        /* \"/contracts/TimbPrize.sol\":14709:15055  if (currentSegment < SEGMENTS_PER_ROUND) {... */\n      jump(tag_390)\n    tag_386:\n        /* \"/contracts/TimbPrize.sol\":15030:15044  _settleRound() */\n      tag_390\n        /* \"/contracts/TimbPrize.sol\":15030:15042  _settleRound */\n      tag_391\n        /* \"/contracts/TimbPrize.sol\":15030:15044  _settleRound() */\n      jump\t// in\n    tag_390:\n        /* \"/contracts/TimbPrize.sol\":14456:15061  {... */\n      pop\n        /* \"@openzeppelin/contracts/utils/ReentrancyGuard.sol\":3065:3085  _nonReentrantAfter() */\n      tag_332\n        /* \"@openzeppelin/contracts/utils/ReentrancyGuard.sol\":2365:2366  1 */\n      0x01\n      0x00\n      dup1\n      mload\n      0x20\n      data_c8669cf8eaf883002b9f48e28846a8d408c9b58ea6613bace374265e43c9bc43\n      dup4\n      codecopy\n      dup2\n      mload\n      swap2\n      mstore\n        /* \"@openzeppelin/contracts/utils/ReentrancyGuard.sol\":3972:4034  _reentrancyGuardStorageSlot().getUint256Slot().value = ENTERED */\n      sstore\n        /* \"@openzeppelin/contracts/utils/ReentrancyGuard.sol\":3749:4041  function _nonReentrantBefore() private {... */\n      jump\n        /* \"/contracts/TimbPrize.sol\":27390:27545  function setPrizeEscrow(address _escrow) external onlyOwner {... */\n    tag_154:\n        /* \"@openzeppelin/contracts/access/Ownable.sol\":1531:1544  _checkOwner() */\n      tag_394\n        /* \"@openzeppelin/contracts/access/Ownable.sol\":1531:1542  _checkOwner */\n      tag_311\n        /* \"@openzeppelin/contracts/access/Ownable.sol\":1531:1544  _checkOwner() */\n      jump\t// in\n    tag_394:\n      sub(shl(0xa0, 0x01), 0x01)\n        /* \"/contracts/TimbPrize.sol\":27464:27485  _escrow == address(0) */\n      dup2\n      and\n        /* \"/contracts/TimbPrize.sol\":27460:27507  if (_escrow == address(0)) revert ZeroAddress() */\n      tag_396\n      jumpi\n        /* \"/contracts/TimbPrize.sol\":27494:27507  ZeroAddress() */\n      mload(0x40)\n      shl(0xe0, 0xd92e233d)\n      dup2\n      mstore\n      0x04\n      add\n      mload(0x40)\n      dup1\n      swap2\n      sub\n      swap1\n      revert\n        /* \"/contracts/TimbPrize.sol\":27460:27507  if (_escrow == address(0)) revert ZeroAddress() */\n    tag_396:\n        /* \"/contracts/TimbPrize.sol\":27517:27528  prizeEscrow */\n      0x01\n        /* \"/contracts/TimbPrize.sol\":27517:27538  prizeEscrow = _escrow */\n      dup1\n      sload\n      not(sub(shl(0xa0, 0x01), 0x01))\n      and\n      sub(shl(0xa0, 0x01), 0x01)\n      swap3\n      swap1\n      swap3\n      and\n      swap2\n      swap1\n      swap2\n      or\n      swap1\n      sstore\n        /* \"/contracts/TimbPrize.sol\":27390:27545  function setPrizeEscrow(address _escrow) external onlyOwner {... */\n      jump\t// out\n        /* \"/contracts/TimbPrize.sol\":4405:4483  uint256 public constant ROUND_DURATION = SEGMENT_DURATION * SEGMENTS_PER_ROUND */\n    tag_161:\n        /* \"/contracts/TimbPrize.sol\":4350:4351  6 */\n      0x06\n        /* \"/contracts/TimbPrize.sol\":4224:4262  INTERACTION_WINDOW + SETTLEMENT_WINDOW */\n      tag_397\n        /* \"/contracts/TimbPrize.sol\":4125:4135  15 seconds */\n      0x0f\n        /* \"/contracts/TimbPrize.sol\":4004:4027  59 minutes + 45 seconds */\n      0x0e01\n        /* \"/contracts/TimbPrize.sol\":4224:4262  INTERACTION_WINDOW + SETTLEMENT_WINDOW */\n      tag_343\n      jump\t// in\n    tag_397:\n        /* \"/contracts/TimbPrize.sol\":4446:4483  SEGMENT_DURATION * SEGMENTS_PER_ROUND */\n      tag_365\n      swap2\n      swap1\n      tag_399\n      jump\t// in\n        /* \"/contracts/TimbPrize.sol\":22322:23617  function claimWinnings(uint256 round)... */\n    tag_166:\n        /* \"@openzeppelin/contracts/utils/ReentrancyGuard.sol\":3023:3044  _nonReentrantBefore() */\n      tag_401\n        /* \"@openzeppelin/contracts/utils/ReentrancyGuard.sol\":3023:3042  _nonReentrantBefore */\n      tag_319\n        /* \"@openzeppelin/contracts/utils/ReentrancyGuard.sol\":3023:3044  _nonReentrantBefore() */\n      jump\t// in\n    tag_401:\n        /* \"/contracts/TimbPrize.sol\":9581:9592  gameStarted */\n      and(0xff, sload(0x0b))\n        /* \"/contracts/TimbPrize.sol\":9576:9617  if (!gameStarted) revert GameNotStarted() */\n      tag_403\n      jumpi\n        /* \"/contracts/TimbPrize.sol\":9601:9617  GameNotStarted() */\n      mload(0x40)\n      shl(0xe0, 0x3a5f7b57)\n      dup2\n      mstore\n      0x04\n      add\n      mload(0x40)\n      dup1\n      swap2\n      sub\n      swap1\n      revert\n        /* \"/contracts/TimbPrize.sol\":9576:9617  if (!gameStarted) revert GameNotStarted() */\n    tag_403:\n        /* \"/contracts/TimbPrize.sol\":22509:22510  0 */\n      0x00\n        /* \"/contracts/TimbPrize.sol\":22473:22498  roundWinningString[round] */\n      dup2\n      dup2\n      mstore\n        /* \"/contracts/TimbPrize.sol\":22473:22491  roundWinningString */\n      0x10\n        /* \"/contracts/TimbPrize.sol\":22473:22498  roundWinningString[round] */\n      0x20\n      mstore\n      0x40\n      swap1\n      keccak256\n      sload\n        /* \"/contracts/TimbPrize.sol\":22502:22511  bytes6(0) */\n      0xd0\n        /* \"/contracts/TimbPrize.sol\":22473:22498  roundWinningString[round] */\n      shl\n      not(sub(shl(0xd0, 0x01), 0x01))\n        /* \"/contracts/TimbPrize.sol\":22473:22511  roundWinningString[round] == bytes6(0) */\n      and\n        /* \"/contracts/TimbPrize.sol\":22469:22542  if (roundWinningString[round] == bytes6(0)) revert RoundNotSettled(round) */\n      tag_405\n      jumpi\n        /* \"/contracts/TimbPrize.sol\":22520:22542  RoundNotSettled(round) */\n      mload(0x40)\n      shl(0xe1, 0x668fee6f)\n      dup2\n      mstore\n      0x04\n      dup2\n      add\n        /* \"#utility.yul\":2457:2482   */\n      dup3\n      swap1\n      mstore\n        /* \"#utility.yul\":2430:2448   */\n      0x24\n      add\n        /* \"/contracts/TimbPrize.sol\":22520:22542  RoundNotSettled(round) */\n      tag_385\n        /* \"#utility.yul\":2311:2488   */\n      jump\n        /* \"/contracts/TimbPrize.sol\":22469:22542  if (roundWinningString[round] == bytes6(0)) revert RoundNotSettled(round) */\n    tag_405:\n        /* \"/contracts/TimbPrize.sol\":22588:22605  hasClaimed[round] */\n      0x00\n      dup2\n      dup2\n      mstore\n        /* \"/contracts/TimbPrize.sol\":22588:22598  hasClaimed */\n      0x15\n        /* \"/contracts/TimbPrize.sol\":22588:22605  hasClaimed[round] */\n      0x20\n      swap1\n      dup2\n      mstore\n      0x40\n      dup1\n      dup4\n      keccak256\n        /* \"/contracts/TimbPrize.sol\":22606:22616  msg.sender */\n      caller\n        /* \"/contracts/TimbPrize.sol\":22588:22617  hasClaimed[round][msg.sender] */\n      dup5\n      mstore\n      swap1\n      swap2\n      mstore\n      swap1\n      keccak256\n      sload\n      0xff\n      and\n        /* \"/contracts/TimbPrize.sol\":22584:22659  if (hasClaimed[round][msg.sender]) revert AlreadyClaimed(msg.sender, round) */\n      iszero\n      tag_407\n      jumpi\n        /* \"/contracts/TimbPrize.sol\":22626:22659  AlreadyClaimed(msg.sender, round) */\n      mload(0x40)\n      shl(0xe1, 0x732750ed)\n      dup2\n      mstore\n        /* \"/contracts/TimbPrize.sol\":22641:22651  msg.sender */\n      caller\n        /* \"/contracts/TimbPrize.sol\":22626:22659  AlreadyClaimed(msg.sender, round) */\n      0x04\n      dup3\n      add\n        /* \"#utility.yul\":6115:6166   */\n      mstore\n        /* \"#utility.yul\":6182:6200   */\n      0x24\n      dup2\n      add\n        /* \"#utility.yul\":6175:6209   */\n      dup3\n      swap1\n      mstore\n        /* \"#utility.yul\":6088:6106   */\n      0x44\n      add\n        /* \"/contracts/TimbPrize.sol\":22626:22659  AlreadyClaimed(msg.sender, round) */\n      tag_385\n        /* \"#utility.yul\":5941:6215   */\n      jump\n        /* \"/contracts/TimbPrize.sol\":22584:22659  if (hasClaimed[round][msg.sender]) revert AlreadyClaimed(msg.sender, round) */\n    tag_407:\n        /* \"/contracts/TimbPrize.sol\":22838:22865  round + CLAIM_WINDOW_ROUNDS */\n      tag_410\n        /* \"/contracts/TimbPrize.sol\":4600:4601  2 */\n      0x02\n        /* \"/contracts/TimbPrize.sol\":22838:22843  round */\n      dup3\n        /* \"/contracts/TimbPrize.sol\":22838:22865  round + CLAIM_WINDOW_ROUNDS */\n      tag_343\n      jump\t// in\n    tag_410:\n        /* \"/contracts/TimbPrize.sol\":22838:22869  round + CLAIM_WINDOW_ROUNDS + 1 */\n      tag_411\n      swap1\n        /* \"/contracts/TimbPrize.sol\":22868:22869  1 */\n      0x01\n        /* \"/contracts/TimbPrize.sol\":22838:22869  round + CLAIM_WINDOW_ROUNDS + 1 */\n      tag_343\n      jump\t// in\n    tag_411:\n        /* \"/contracts/TimbPrize.sol\":22823:22835  currentRound */\n      sload(0x08)\n        /* \"/contracts/TimbPrize.sol\":22823:22869  currentRound > round + CLAIM_WINDOW_ROUNDS + 1 */\n      gt\n        /* \"/contracts/TimbPrize.sol\":22819:22928  if (currentRound > round + CLAIM_WINDOW_ROUNDS + 1) {... */\n      iszero\n      tag_412\n      jumpi\n        /* \"/contracts/TimbPrize.sol\":22892:22917  ClaimWindowExpired(round) */\n      mload(0x40)\n      shl(0xe0, 0x55249329)\n      dup2\n      mstore\n      0x04\n      dup2\n      add\n        /* \"#utility.yul\":2457:2482   */\n      dup3\n      swap1\n      mstore\n        /* \"#utility.yul\":2430:2448   */\n      0x24\n      add\n        /* \"/contracts/TimbPrize.sol\":22892:22917  ClaimWindowExpired(round) */\n      tag_385\n        /* \"#utility.yul\":2311:2488   */\n      jump\n        /* \"/contracts/TimbPrize.sol\":22819:22928  if (currentRound > round + CLAIM_WINDOW_ROUNDS + 1) {... */\n    tag_412:\n        /* \"/contracts/TimbPrize.sol\":22986:22999  bool isWinner */\n      0x00\n        /* \"/contracts/TimbPrize.sol\":23044:23063  roundWinners[round] */\n      dup2\n      dup2\n      mstore\n        /* \"/contracts/TimbPrize.sol\":23044:23056  roundWinners */\n      0x12\n        /* \"/contracts/TimbPrize.sol\":23044:23063  roundWinners[round] */\n      0x20\n      swap1\n      dup2\n      mstore\n      0x40\n      dup1\n      dup4\n      keccak256\n        /* \"/contracts/TimbPrize.sol\":23017:23063  address[] memory winners = roundWinners[round] */\n      dup1\n      sload\n      dup3\n      mload\n      dup2\n      dup6\n      mul\n      dup2\n      add\n      dup6\n      add\n      swap1\n      swap4\n      mstore\n      dup1\n      dup4\n      mstore\n        /* \"/contracts/TimbPrize.sol\":22986:22999  bool isWinner */\n      dup5\n      swap4\n        /* \"/contracts/TimbPrize.sol\":23017:23063  address[] memory winners = roundWinners[round] */\n      dup4\n      add\n        /* \"/contracts/TimbPrize.sol\":23044:23063  roundWinners[round] */\n      dup3\n        /* \"/contracts/TimbPrize.sol\":23017:23063  address[] memory winners = roundWinners[round] */\n      dup3\n      dup1\n      iszero\n      tag_414\n      jumpi\n      0x20\n      mul\n      dup3\n      add\n      swap2\n      swap1\n      0x00\n      mstore\n      keccak256(0x00, 0x20)\n      swap1\n    tag_415:\n      dup2\n      sload\n      sub(shl(0xa0, 0x01), 0x01)\n      and\n      dup2\n      mstore\n      0x01\n      swap1\n      swap2\n      add\n      swap1\n      0x20\n      add\n      dup1\n      dup4\n      gt\n      tag_415\n      jumpi\n    tag_414:\n      pop\n      pop\n      pop\n      pop\n      pop\n      swap1\n      pop\n        /* \"/contracts/TimbPrize.sol\":23078:23087  uint256 i */\n      0x00\n        /* \"/contracts/TimbPrize.sol\":23073:23199  for (uint256 i = 0; i < winners.length; i++) {... */\n    tag_416:\n        /* \"/contracts/TimbPrize.sol\":23097:23104  winners */\n      dup2\n        /* \"/contracts/TimbPrize.sol\":23097:23111  winners.length */\n      mload\n        /* \"/contracts/TimbPrize.sol\":23093:23094  i */\n      dup2\n        /* \"/contracts/TimbPrize.sol\":23093:23111  i < winners.length */\n      lt\n        /* \"/contracts/TimbPrize.sol\":23073:23199  for (uint256 i = 0; i < winners.length; i++) {... */\n      iszero\n      tag_417\n      jumpi\n        /* \"/contracts/TimbPrize.sol\":23150:23160  msg.sender */\n      caller\n      sub(shl(0xa0, 0x01), 0x01)\n        /* \"/contracts/TimbPrize.sol\":23136:23160  winners[i] == msg.sender */\n      and\n        /* \"/contracts/TimbPrize.sol\":23136:23143  winners */\n      dup3\n        /* \"/contracts/TimbPrize.sol\":23144:23145  i */\n      dup3\n        /* \"/contracts/TimbPrize.sol\":23136:23146  winners[i] */\n      dup2\n      mload\n      dup2\n      lt\n      tag_420\n      jumpi\n      tag_420\n      tag_348\n      jump\t// in\n    tag_420:\n      0x20\n      mul\n      0x20\n      add\n      add\n      mload\n      sub(shl(0xa0, 0x01), 0x01)\n        /* \"/contracts/TimbPrize.sol\":23136:23160  winners[i] == msg.sender */\n      and\n      sub\n        /* \"/contracts/TimbPrize.sol\":23132:23189  if (winners[i] == msg.sender) { isWinner = true; break; } */\n      tag_421\n      jumpi\n        /* \"/contracts/TimbPrize.sol\":23175:23179  true */\n      0x01\n        /* \"/contracts/TimbPrize.sol\":23164:23179  isWinner = true */\n      swap3\n      pop\n        /* \"/contracts/TimbPrize.sol\":23181:23186  break */\n      jump(tag_417)\n        /* \"/contracts/TimbPrize.sol\":23132:23189  if (winners[i] == msg.sender) { isWinner = true; break; } */\n    tag_421:\n        /* \"/contracts/TimbPrize.sol\":23113:23116  i++ */\n      0x01\n      add\n        /* \"/contracts/TimbPrize.sol\":23073:23199  for (uint256 i = 0; i < winners.length; i++) {... */\n      jump(tag_416)\n    tag_417:\n      pop\n        /* \"/contracts/TimbPrize.sol\":23213:23221  isWinner */\n      dup2\n        /* \"/contracts/TimbPrize.sol\":23208:23259  if (!isWinner) revert NotAWinner(msg.sender, round) */\n      tag_422\n      jumpi\n        /* \"/contracts/TimbPrize.sol\":23230:23259  NotAWinner(msg.sender, round) */\n      mload(0x40)\n      shl(0xe0, 0xefbeaf33)\n      dup2\n      mstore\n        /* \"/contracts/TimbPrize.sol\":23241:23251  msg.sender */\n      caller\n        /* \"/contracts/TimbPrize.sol\":23230:23259  NotAWinner(msg.sender, round) */\n      0x04\n      dup3\n      add\n        /* \"#utility.yul\":6115:6166   */\n      mstore\n        /* \"#utility.yul\":6182:6200   */\n      0x24\n      dup2\n      add\n        /* \"#utility.yul\":6175:6209   */\n      dup5\n      swap1\n      mstore\n        /* \"#utility.yul\":6088:6106   */\n      0x44\n      add\n        /* \"/contracts/TimbPrize.sol\":23230:23259  NotAWinner(msg.sender, round) */\n      tag_385\n        /* \"#utility.yul\":5941:6215   */\n      jump\n        /* \"/contracts/TimbPrize.sol\":23208:23259  if (!isWinner) revert NotAWinner(msg.sender, round) */\n    tag_422:\n        /* \"/contracts/TimbPrize.sol\":23270:23284  uint256 payout */\n      0x00\n        /* \"/contracts/TimbPrize.sol\":23287:23314  roundPerWinnerAmount[round] */\n      dup4\n      dup2\n      mstore\n        /* \"/contracts/TimbPrize.sol\":23287:23307  roundPerWinnerAmount */\n      0x13\n        /* \"/contracts/TimbPrize.sol\":23287:23314  roundPerWinnerAmount[round] */\n      0x20\n      mstore\n      0x40\n      dup2\n      keccak256\n      sload\n      swap1\n        /* \"/contracts/TimbPrize.sol\":23328:23339  payout == 0 */\n      dup2\n      swap1\n      sub\n        /* \"/contracts/TimbPrize.sol\":23324:23360  if (payout == 0) revert ZeroAmount() */\n      tag_424\n      jumpi\n        /* \"/contracts/TimbPrize.sol\":23348:23360  ZeroAmount() */\n      mload(0x40)\n      shl(0xe0, 0x1f2a2005)\n      dup2\n      mstore\n      0x04\n      add\n      mload(0x40)\n      dup1\n      swap2\n      sub\n      swap1\n      revert\n        /* \"/contracts/TimbPrize.sol\":23324:23360  if (payout == 0) revert ZeroAmount() */\n    tag_424:\n        /* \"/contracts/TimbPrize.sol\":23371:23388  hasClaimed[round] */\n      0x00\n      dup5\n      dup2\n      mstore\n        /* \"/contracts/TimbPrize.sol\":23371:23381  hasClaimed */\n      0x15\n        /* \"/contracts/TimbPrize.sol\":23371:23388  hasClaimed[round] */\n      0x20\n      swap1\n      dup2\n      mstore\n      0x40\n      dup1\n      dup4\n      keccak256\n        /* \"/contracts/TimbPrize.sol\":23389:23399  msg.sender */\n      caller\n        /* \"/contracts/TimbPrize.sol\":23371:23400  hasClaimed[round][msg.sender] */\n      dup5\n      mstore\n      swap1\n      swap2\n      mstore\n      dup2\n      keccak256\n        /* \"/contracts/TimbPrize.sol\":23371:23407  hasClaimed[round][msg.sender] = true */\n      dup1\n      sload\n      not(0xff)\n      and\n        /* \"/contracts/TimbPrize.sol\":23403:23407  true */\n      0x01\n        /* \"/contracts/TimbPrize.sol\":23371:23407  hasClaimed[round][msg.sender] = true */\n      or\n      swap1\n      sstore\n        /* \"/contracts/TimbPrize.sol\":23417:23443  gameUnclaimed_winningsPool */\n      0x0d\n        /* \"/contracts/TimbPrize.sol\":23417:23453  gameUnclaimed_winningsPool -= payout */\n      dup1\n      sload\n        /* \"/contracts/TimbPrize.sol\":23447:23453  payout */\n      dup4\n      swap3\n        /* \"/contracts/TimbPrize.sol\":23371:23388  hasClaimed[round] */\n      swap1\n        /* \"/contracts/TimbPrize.sol\":23417:23453  gameUnclaimed_winningsPool -= payout */\n      tag_425\n      swap1\n        /* \"/contracts/TimbPrize.sol\":23447:23453  payout */\n      dup5\n      swap1\n        /* \"/contracts/TimbPrize.sol\":23417:23453  gameUnclaimed_winningsPool -= payout */\n      tag_383\n      jump\t// in\n    tag_425:\n      swap1\n      swap2\n      sstore\n      pop\n      pop\n        /* \"/contracts/TimbPrize.sol\":23516:23527  prizeEscrow */\n      sload(0x01)\n        /* \"/contracts/TimbPrize.sol\":23503:23552  IPrizeEscrow(prizeEscrow).pay(msg.sender, payout) */\n      mload(0x40)\n      shl(0xe1, 0x6203b43b)\n      dup2\n      mstore\n        /* \"/contracts/TimbPrize.sol\":23533:23543  msg.sender */\n      caller\n        /* \"/contracts/TimbPrize.sol\":23503:23552  IPrizeEscrow(prizeEscrow).pay(msg.sender, payout) */\n      0x04\n      dup3\n      add\n        /* \"#utility.yul\":6115:6166   */\n      mstore\n        /* \"#utility.yul\":6182:6200   */\n      0x24\n      dup2\n      add\n        /* \"#utility.yul\":6175:6209   */\n      dup4\n      swap1\n      mstore\n      sub(shl(0xa0, 0x01), 0x01)\n        /* \"/contracts/TimbPrize.sol\":23516:23527  prizeEscrow */\n      swap1\n      swap2\n      and\n      swap1\n        /* \"/contracts/TimbPrize.sol\":23503:23532  IPrizeEscrow(prizeEscrow).pay */\n      0xc4076876\n      swap1\n        /* \"#utility.yul\":6088:6106   */\n      0x44\n      add\n        /* \"/contracts/TimbPrize.sol\":23503:23552  IPrizeEscrow(prizeEscrow).pay(msg.sender, payout) */\n      0x00\n      mload(0x40)\n      dup1\n      dup4\n      sub\n      dup2\n      0x00\n      dup8\n      dup1\n      extcodesize\n      iszero\n      dup1\n      iszero\n      tag_427\n      jumpi\n      0x00\n      dup1\n      revert\n    tag_427:\n      pop\n      gas\n      call\n      iszero\n      dup1\n      iszero\n      tag_429\n      jumpi\n      returndatasize\n      0x00\n      dup1\n      returndatacopy\n      revert(0x00, returndatasize)\n    tag_429:\n      pop\n      pop\n        /* \"/contracts/TimbPrize.sol\":23568:23610  WinningsClaimed(msg.sender, round, payout) */\n      mload(0x40)\n        /* \"#utility.yul\":2457:2482   */\n      dup4\n      dup2\n      mstore\n        /* \"/contracts/TimbPrize.sol\":23596:23601  round */\n      dup7\n      swap3\n      pop\n        /* \"/contracts/TimbPrize.sol\":23584:23594  msg.sender */\n      caller\n      swap2\n      pop\n        /* \"/contracts/TimbPrize.sol\":23568:23610  WinningsClaimed(msg.sender, round, payout) */\n      0x7472e24de4628e34b41a2aa1688ed4b46a9145b2de1cf93d74902473ccc1740d\n      swap1\n        /* \"#utility.yul\":2445:2447   */\n      0x20\n        /* \"#utility.yul\":2430:2448   */\n      add\n        /* \"/contracts/TimbPrize.sol\":23568:23610  WinningsClaimed(msg.sender, round, payout) */\n      mload(0x40)\n      dup1\n      swap2\n      sub\n      swap1\n      log3\n        /* \"/contracts/TimbPrize.sol\":22426:23617  {... */\n      pop\n      pop\n      pop\n        /* \"@openzeppelin/contracts/utils/ReentrancyGuard.sol\":3065:3085  _nonReentrantAfter() */\n      tag_431\n        /* \"@openzeppelin/contracts/utils/ReentrancyGuard.sol\":2365:2366  1 */\n      0x01\n      0x00\n      dup1\n      mload\n      0x20\n      data_c8669cf8eaf883002b9f48e28846a8d408c9b58ea6613bace374265e43c9bc43\n      dup4\n      codecopy\n      dup2\n      mload\n      swap2\n      mstore\n        /* \"@openzeppelin/contracts/utils/ReentrancyGuard.sol\":3972:4034  _reentrancyGuardStorageSlot().getUint256Slot().value = ENTERED */\n      sstore\n        /* \"@openzeppelin/contracts/utils/ReentrancyGuard.sol\":3749:4041  function _nonReentrantBefore() private {... */\n      jump\n        /* \"@openzeppelin/contracts/utils/ReentrancyGuard.sol\":3065:3085  _nonReentrantAfter() */\n    tag_431:\n        /* \"/contracts/TimbPrize.sol\":22322:23617  function claimWinnings(uint256 round)... */\n      pop\n      jump\t// out\n        /* \"@openzeppelin/contracts/access/Ownable.sol\":2293:2394  function renounceOwnership() public virtual onlyOwner {... */\n    tag_169:\n        /* \"@openzeppelin/contracts/access/Ownable.sol\":1531:1544  _checkOwner() */\n      tag_433\n        /* \"@openzeppelin/contracts/access/Ownable.sol\":1531:1542  _checkOwner */\n      tag_311\n        /* \"@openzeppelin/contracts/access/Ownable.sol\":1531:1544  _checkOwner() */\n      jump\t// in\n    tag_433:\n        /* \"@openzeppelin/contracts/access/Ownable.sol\":2357:2387  _transferOwnership(address(0)) */\n      tag_332\n        /* \"@openzeppelin/contracts/access/Ownable.sol\":2384:2385  0 */\n      0x00\n        /* \"@openzeppelin/contracts/access/Ownable.sol\":2357:2375  _transferOwnership */\n      tag_436\n        /* \"@openzeppelin/contracts/access/Ownable.sol\":2357:2387  _transferOwnership(address(0)) */\n      jump\t// in\n        /* \"/contracts/TimbPrize.sol\":28300:28377  function unpauseSettlement() external onlyOwner { settlementPaused = false; } */\n    tag_172:\n        /* \"@openzeppelin/contracts/access/Ownable.sol\":1531:1544  _checkOwner() */\n      tag_438\n        /* \"@openzeppelin/contracts/access/Ownable.sol\":1531:1542  _checkOwner */\n      tag_311\n        /* \"@openzeppelin/contracts/access/Ownable.sol\":1531:1544  _checkOwner() */\n      jump\t// in\n    tag_438:\n        /* \"/contracts/TimbPrize.sol\":28350:28366  settlementPaused */\n      0x16\n        /* \"/contracts/TimbPrize.sol\":28350:28374  settlementPaused = false */\n      dup1\n      sload\n      not(0xff00)\n      and\n      swap1\n      sstore\n        /* \"/contracts/TimbPrize.sol\":28300:28377  function unpauseSettlement() external onlyOwner { settlementPaused = false; } */\n      jump\t// out\n        /* \"/contracts/TimbPrize.sol\":13502:13773  function getWindowAt(uint256 counter) public pure returns (bytes6 window) {... */\n    tag_208:\n        /* \"/contracts/TimbPrize.sol\":13608:13620  new bytes(6) */\n      0x40\n      dup1\n      mload\n        /* \"/contracts/TimbPrize.sol\":13618:13619  6 */\n      0x06\n        /* \"/contracts/TimbPrize.sol\":13608:13620  new bytes(6) */\n      dup1\n      dup3\n      mstore\n      dup2\n      dup4\n      add\n      swap1\n      swap3\n      mstore\n        /* \"/contracts/TimbPrize.sol\":13561:13574  bytes6 window */\n      0x00\n      swap2\n      dup3\n      swap2\n        /* \"/contracts/TimbPrize.sol\":13608:13620  new bytes(6) */\n      swap1\n      0x20\n      dup3\n      add\n      dup2\n      dup1\n      calldatasize\n      dup4\n      calldatacopy\n      add\n      swap1\n      pop\n      pop\n        /* \"/contracts/TimbPrize.sol\":13586:13620  bytes memory result = new bytes(6) */\n      swap1\n      pop\n        /* \"/contracts/TimbPrize.sol\":13635:13644  uint256 i */\n      0x00\n        /* \"/contracts/TimbPrize.sol\":13630:13727  for (uint256 i = 0; i < 6; i++) {... */\n    tag_445:\n        /* \"/contracts/TimbPrize.sol\":13654:13655  6 */\n      0x06\n        /* \"/contracts/TimbPrize.sol\":13650:13651  i */\n      dup2\n        /* \"/contracts/TimbPrize.sol\":13650:13655  i < 6 */\n      lt\n        /* \"/contracts/TimbPrize.sol\":13630:13727  for (uint256 i = 0; i < 6; i++) {... */\n      iszero\n      tag_446\n      jumpi\n        /* \"/contracts/TimbPrize.sol\":13688:13696  ALPHABET */\n      mload(0x40)\n      dup1\n      0x60\n      add\n      0x40\n      mstore\n      dup1\n      0x24\n      dup2\n      mstore\n      0x20\n      add\n      data_d1b12de380b5f3a30ba38a23a69e5703e0569d4a1fc4ac869b5f2bb883f9bcc1\n      0x24\n      swap2\n      codecopy\n        /* \"/contracts/TimbPrize.sol\":13713:13715  36 */\n      0x24\n        /* \"/contracts/TimbPrize.sol\":13698:13709  counter + i */\n      tag_448\n        /* \"/contracts/TimbPrize.sol\":13708:13709  i */\n      dup4\n        /* \"/contracts/TimbPrize.sol\":13698:13705  counter */\n      dup8\n        /* \"/contracts/TimbPrize.sol\":13698:13709  counter + i */\n      tag_343\n      jump\t// in\n    tag_448:\n        /* \"/contracts/TimbPrize.sol\":13697:13715  (counter + i) % 36 */\n      tag_449\n      swap2\n      swap1\n      tag_345\n      jump\t// in\n    tag_449:\n        /* \"/contracts/TimbPrize.sol\":13688:13716  ALPHABET[(counter + i) % 36] */\n      dup2\n      mload\n      dup2\n      lt\n      tag_451\n      jumpi\n      tag_451\n      tag_348\n      jump\t// in\n    tag_451:\n      0x20\n      add\n      add\n      mload\n      0xf8\n      shr\n      0xf8\n      shl\n        /* \"/contracts/TimbPrize.sol\":13676:13682  result */\n      dup3\n        /* \"/contracts/TimbPrize.sol\":13683:13684  i */\n      dup3\n        /* \"/contracts/TimbPrize.sol\":13676:13685  result[i] */\n      dup2\n      mload\n      dup2\n      lt\n      tag_453\n      jumpi\n      tag_453\n      tag_348\n      jump\t// in\n    tag_453:\n      0x20\n      add\n      add\n        /* \"/contracts/TimbPrize.sol\":13676:13716  result[i] = ALPHABET[(counter + i) % 36] */\n      swap1\n      not(sub(shl(0xf8, 0x01), 0x01))\n      and\n      swap1\n      dup2\n      0x00\n      byte\n      swap1\n      mstore8\n      pop\n        /* \"/contracts/TimbPrize.sol\":13657:13660  i++ */\n      0x01\n      add\n        /* \"/contracts/TimbPrize.sol\":13630:13727  for (uint256 i = 0; i < 6; i++) {... */\n      jump(tag_445)\n    tag_446:\n      pop\n        /* \"/contracts/TimbPrize.sol\":13745:13766  bytes6(bytes(result)) */\n      tag_454\n        /* \"/contracts/TimbPrize.sol\":13758:13764  result */\n      dup2\n        /* \"/contracts/TimbPrize.sol\":13745:13766  bytes6(bytes(result)) */\n      tag_352\n      jump\t// in\n    tag_454:\n        /* \"/contracts/TimbPrize.sol\":13736:13766  window = bytes6(bytes(result)) */\n      swap4\n        /* \"/contracts/TimbPrize.sol\":13502:13773  function getWindowAt(uint256 counter) public pure returns (bytes6 window) {... */\n      swap3\n      pop\n      pop\n      pop\n      jump\t// out\n        /* \"/contracts/TimbPrize.sol\":23974:24234  function fundPot() external payable onlyOwner {... */\n    tag_219:\n        /* \"@openzeppelin/contracts/access/Ownable.sol\":1531:1544  _checkOwner() */\n      tag_104\n        /* \"@openzeppelin/contracts/access/Ownable.sol\":1531:1542  _checkOwner */\n      tag_311\n        /* \"@openzeppelin/contracts/access/Ownable.sol\":1531:1544  _checkOwner() */\n      jump\t// in\n        /* \"/contracts/TimbPrize.sol\":26317:26550  function timeRemainingInSegment() external view returns (uint256) {... */\n    tag_222:\n        /* \"/contracts/TimbPrize.sol\":26374:26381  uint256 */\n      0x00\n        /* \"/contracts/TimbPrize.sol\":26393:26408  uint256 elapsed */\n      dup1\n        /* \"/contracts/TimbPrize.sol\":26429:26445  segmentStartTime */\n      sload(0x0a)\n        /* \"/contracts/TimbPrize.sol\":26411:26426  block.timestamp */\n      timestamp\n        /* \"/contracts/TimbPrize.sol\":26411:26445  block.timestamp - segmentStartTime */\n      tag_465\n      swap2\n      swap1\n      tag_383\n      jump\t// in\n    tag_465:\n        /* \"/contracts/TimbPrize.sol\":26393:26445  uint256 elapsed = block.timestamp - segmentStartTime */\n      swap1\n      pop\n        /* \"/contracts/TimbPrize.sol\":4004:4027  59 minutes + 45 seconds */\n      0x0e01\n        /* \"/contracts/TimbPrize.sol\":26459:26466  elapsed */\n      dup2\n        /* \"/contracts/TimbPrize.sol\":26459:26488  elapsed >= INTERACTION_WINDOW */\n      lt\n        /* \"/contracts/TimbPrize.sol\":26455:26498  if (elapsed >= INTERACTION_WINDOW) return 0 */\n      tag_466\n      jumpi\n        /* \"/contracts/TimbPrize.sol\":26497:26498  0 */\n      0x00\n        /* \"/contracts/TimbPrize.sol\":26490:26498  return 0 */\n      swap2\n      pop\n      pop\n        /* \"/contracts/TimbPrize.sol\":26317:26550  function timeRemainingInSegment() external view returns (uint256) {... */\n      swap1\n      jump\t// out\n        /* \"/contracts/TimbPrize.sol\":26455:26498  if (elapsed >= INTERACTION_WINDOW) return 0 */\n    tag_466:\n        /* \"/contracts/TimbPrize.sol\":26515:26543  INTERACTION_WINDOW - elapsed */\n      tag_351\n        /* \"/contracts/TimbPrize.sol\":26536:26543  elapsed */\n      dup2\n        /* \"/contracts/TimbPrize.sol\":4004:4027  59 minutes + 45 seconds */\n      0x0e01\n        /* \"/contracts/TimbPrize.sol\":26515:26543  INTERACTION_WINDOW - elapsed */\n      tag_383\n      jump\t// in\n        /* \"/contracts/TimbPrize.sol\":26952:27097  function setRouter(address _router) external onlyOwner {... */\n    tag_248:\n        /* \"@openzeppelin/contracts/access/Ownable.sol\":1531:1544  _checkOwner() */\n      tag_469\n        /* \"@openzeppelin/contracts/access/Ownable.sol\":1531:1542  _checkOwner */\n      tag_311\n        /* \"@openzeppelin/contracts/access/Ownable.sol\":1531:1544  _checkOwner() */\n      jump\t// in\n    tag_469:\n      sub(shl(0xa0, 0x01), 0x01)\n        /* \"/contracts/TimbPrize.sol\":27021:27042  _router == address(0) */\n      dup2\n      and\n        /* \"/contracts/TimbPrize.sol\":27017:27064  if (_router == address(0)) revert ZeroAddress() */\n      tag_471\n      jumpi\n        /* \"/contracts/TimbPrize.sol\":27051:27064  ZeroAddress() */\n      mload(0x40)\n      shl(0xe0, 0xd92e233d)\n      dup2\n      mstore\n      0x04\n      add\n      mload(0x40)\n      dup1\n      swap2\n      sub\n      swap1\n      revert\n        /* \"/contracts/TimbPrize.sol\":27017:27064  if (_router == address(0)) revert ZeroAddress() */\n    tag_471:\n        /* \"/contracts/TimbPrize.sol\":27074:27080  router */\n      0x03\n        /* \"/contracts/TimbPrize.sol\":27074:27090  router = _router */\n      dup1\n      sload\n      not(sub(shl(0xa0, 0x01), 0x01))\n      and\n      sub(shl(0xa0, 0x01), 0x01)\n      swap3\n      swap1\n      swap3\n      and\n      swap2\n      swap1\n      swap2\n      or\n      swap1\n      sstore\n        /* \"/contracts/TimbPrize.sol\":26952:27097  function setRouter(address _router) external onlyOwner {... */\n      jump\t// out\n        /* \"/contracts/TimbPrize.sol\":12319:12425  function isSettlementWindow() external view returns (bool) {... */\n    tag_251:\n        /* \"/contracts/TimbPrize.sol\":12372:12376  bool */\n      0x00\n        /* \"/contracts/TimbPrize.sol\":12395:12418  _isInSettlementWindow() */\n      tag_473\n        /* \"/contracts/TimbPrize.sol\":12395:12416  _isInSettlementWindow */\n      tag_326\n        /* \"/contracts/TimbPrize.sol\":12395:12418  _isInSettlementWindow() */\n      jump\t// in\n    tag_473:\n        /* \"/contracts/TimbPrize.sol\":12388:12418  return _isInSettlementWindow() */\n      swap1\n      pop\n        /* \"/contracts/TimbPrize.sol\":12319:12425  function isSettlementWindow() external view returns (bool) {... */\n      swap1\n      jump\t// out\n        /* \"/contracts/TimbPrize.sol\":28221:28295  function pauseSettlement() external onlyOwner { settlementPaused = true; } */\n    tag_267:\n        /* \"@openzeppelin/contracts/access/Ownable.sol\":1531:1544  _checkOwner() */\n      tag_475\n        /* \"@openzeppelin/contracts/access/Ownable.sol\":1531:1542  _checkOwner */\n      tag_311\n        /* \"@openzeppelin/contracts/access/Ownable.sol\":1531:1544  _checkOwner() */\n      jump\t// in\n    tag_475:\n        /* \"/contracts/TimbPrize.sol\":28269:28285  settlementPaused */\n      0x16\n        /* \"/contracts/TimbPrize.sol\":28269:28292  settlementPaused = true */\n      dup1\n      sload\n      not(0xff00)\n      and\n      0x0100\n      or\n      swap1\n      sstore\n        /* \"/contracts/TimbPrize.sol\":28221:28295  function pauseSettlement() external onlyOwner { settlementPaused = true; } */\n      jump\t// out\n        /* \"/contracts/TimbPrize.sol\":10953:11483  function startGame() external onlyOwner {... */\n    tag_270:\n        /* \"@openzeppelin/contracts/access/Ownable.sol\":1531:1544  _checkOwner() */\n      tag_478\n        /* \"@openzeppelin/contracts/access/Ownable.sol\":1531:1542  _checkOwner */\n      tag_311\n        /* \"@openzeppelin/contracts/access/Ownable.sol\":1531:1544  _checkOwner() */\n      jump\t// in\n    tag_478:\n        /* \"/contracts/TimbPrize.sol\":11007:11018  gameStarted */\n      and(0xff, sload(0x0b))\n        /* \"/contracts/TimbPrize.sol\":11003:11047  if (gameStarted) revert GameAlreadyStarted() */\n      iszero\n      tag_480\n      jumpi\n        /* \"/contracts/TimbPrize.sol\":11027:11047  GameAlreadyStarted() */\n      mload(0x40)\n      shl(0xe0, 0xba26162b)\n      dup2\n      mstore\n      0x04\n      add\n      mload(0x40)\n      dup1\n      swap2\n      sub\n      swap1\n      revert\n        /* \"/contracts/TimbPrize.sol\":11003:11047  if (gameStarted) revert GameAlreadyStarted() */\n    tag_480:\n        /* \"/contracts/TimbPrize.sol\":11057:11068  gameStarted */\n      0x0b\n        /* \"/contracts/TimbPrize.sol\":11057:11080  gameStarted      = true */\n      dup1\n      sload\n      not(0xff)\n      and\n        /* \"/contracts/TimbPrize.sol\":11076:11080  true */\n      0x01\n        /* \"/contracts/TimbPrize.sol\":11057:11080  gameStarted      = true */\n      swap1\n      dup2\n      or\n      swap1\n      swap2\n      sstore\n        /* \"/contracts/TimbPrize.sol\":11090:11102  currentRound */\n      0x08\n        /* \"/contracts/TimbPrize.sol\":11090:11110  currentRound     = 1 */\n      dup2\n      swap1\n      sstore\n        /* \"/contracts/TimbPrize.sol\":11120:11134  currentSegment */\n      0x09\n        /* \"/contracts/TimbPrize.sol\":11120:11140  currentSegment   = 1 */\n      dup2\n      swap1\n      sstore\n        /* \"/contracts/TimbPrize.sol\":11169:11184  block.timestamp */\n      timestamp\n        /* \"/contracts/TimbPrize.sol\":11150:11166  segmentStartTime */\n      0x0a\n        /* \"/contracts/TimbPrize.sol\":11150:11184  segmentStartTime = block.timestamp */\n      sstore\n      0x02\n        /* \"/contracts/TimbPrize.sol\":11209:11221  gameRegistry */\n      sload\n        /* \"/contracts/TimbPrize.sol\":11195:11252  IGameRegistry(gameRegistry).setCurrentRound(currentRound) */\n      mload(0x40)\n      shl(0xe3, 0x077923c5)\n      dup2\n      mstore\n      0x04\n      dup2\n      add\n        /* \"#utility.yul\":2457:2482   */\n      swap3\n      swap1\n      swap3\n      mstore\n      sub(shl(0xa0, 0x01), 0x01)\n        /* \"/contracts/TimbPrize.sol\":11209:11221  gameRegistry */\n      and\n      swap1\n        /* \"/contracts/TimbPrize.sol\":11195:11238  IGameRegistry(gameRegistry).setCurrentRound */\n      0x3bc91e28\n      swap1\n        /* \"#utility.yul\":2430:2448   */\n      0x24\n      add\n        /* \"/contracts/TimbPrize.sol\":11195:11252  IGameRegistry(gameRegistry).setCurrentRound(currentRound) */\n      0x00\n      mload(0x40)\n      dup1\n      dup4\n      sub\n      dup2\n      0x00\n      dup8\n      dup1\n      extcodesize\n      iszero\n      dup1\n      iszero\n      tag_482\n      jumpi\n      0x00\n      dup1\n      revert\n    tag_482:\n      pop\n      gas\n      call\n      iszero\n      dup1\n      iszero\n      tag_484\n      jumpi\n      returndatasize\n      0x00\n      dup1\n      returndatacopy\n      revert(0x00, returndatasize)\n    tag_484:\n      pop\n      pop\n      pop\n      pop\n        /* \"/contracts/TimbPrize.sol\":11262:11297  _activateRoundEntries(currentRound) */\n      tag_485\n        /* \"/contracts/TimbPrize.sol\":11284:11296  currentRound */\n      sload(0x08)\n        /* \"/contracts/TimbPrize.sol\":11262:11283  _activateRoundEntries */\n      tag_486\n        /* \"/contracts/TimbPrize.sol\":11262:11297  _activateRoundEntries(currentRound) */\n      jump\t// in\n    tag_485:\n        /* \"/contracts/TimbPrize.sol\":11313:11341  GameStarted(block.timestamp) */\n      mload(0x40)\n        /* \"/contracts/TimbPrize.sol\":11325:11340  block.timestamp */\n      timestamp\n        /* \"#utility.yul\":2457:2482   */\n      dup2\n      mstore\n        /* \"/contracts/TimbPrize.sol\":11313:11341  GameStarted(block.timestamp) */\n      0x50ad08f58a27f2851d7e3a1b3a6a46b290f2ce677e99642d30ff639721e77790\n      swap1\n        /* \"#utility.yul\":2445:2447   */\n      0x20\n        /* \"#utility.yul\":2430:2448   */\n      add\n        /* \"/contracts/TimbPrize.sol\":11313:11341  GameStarted(block.timestamp) */\n      mload(0x40)\n      dup1\n      swap2\n      sub\n      swap1\n      log1\n        /* \"/contracts/TimbPrize.sol\":11369:11381  currentRound */\n      sload(0x08)\n        /* \"/contracts/TimbPrize.sol\":11356:11399  RoundStarted(currentRound, block.timestamp) */\n      mload(0x40)\n        /* \"/contracts/TimbPrize.sol\":11383:11398  block.timestamp */\n      timestamp\n        /* \"#utility.yul\":2457:2482   */\n      dup2\n      mstore\n        /* \"/contracts/TimbPrize.sol\":11356:11399  RoundStarted(currentRound, block.timestamp) */\n      0x278844837bcf8364a705384bf3a2812901f54155bae86dea81dd52aa5b9ec0e3\n      swap1\n        /* \"#utility.yul\":2445:2447   */\n      0x20\n        /* \"#utility.yul\":2430:2448   */\n      add\n        /* \"/contracts/TimbPrize.sol\":11356:11399  RoundStarted(currentRound, block.timestamp) */\n      mload(0x40)\n      dup1\n      swap2\n      sub\n      swap1\n      log2\n        /* \"/contracts/TimbPrize.sol\":11430:11442  currentRound */\n      sload(0x08)\n        /* \"/contracts/TimbPrize.sol\":11444:11458  currentSegment */\n      sload(0x09)\n        /* \"/contracts/TimbPrize.sol\":11414:11476  SegmentAdvanced(currentRound, currentSegment, block.timestamp) */\n      0x40\n      dup1\n      mload\n        /* \"#utility.yul\":4543:4568   */\n      swap2\n      dup3\n      mstore\n        /* \"/contracts/TimbPrize.sol\":11460:11475  block.timestamp */\n      timestamp\n        /* \"#utility.yul\":4599:4601   */\n      0x20\n        /* \"#utility.yul\":4584:4602   */\n      dup4\n      add\n        /* \"#utility.yul\":4577:4611   */\n      mstore\n        /* \"/contracts/TimbPrize.sol\":11414:11476  SegmentAdvanced(currentRound, currentSegment, block.timestamp) */\n      0xe9a2985393fa4bb459d73d85249df3b5923e70fb93b7b9c307e72359ab167587\n      swap2\n        /* \"#utility.yul\":4516:4534   */\n      add\n        /* \"/contracts/TimbPrize.sol\":11414:11476  SegmentAdvanced(currentRound, currentSegment, block.timestamp) */\n      tag_359\n        /* \"#utility.yul\":4369:4617   */\n      jump\n        /* \"/contracts/TimbPrize.sol\":27221:27384  function setGameRegistry(address _registry) external onlyOwner {... */\n    tag_278:\n        /* \"@openzeppelin/contracts/access/Ownable.sol\":1531:1544  _checkOwner() */\n      tag_491\n        /* \"@openzeppelin/contracts/access/Ownable.sol\":1531:1542  _checkOwner */\n      tag_311\n        /* \"@openzeppelin/contracts/access/Ownable.sol\":1531:1544  _checkOwner() */\n      jump\t// in\n    tag_491:\n      sub(shl(0xa0, 0x01), 0x01)\n        /* \"/contracts/TimbPrize.sol\":27298:27321  _registry == address(0) */\n      dup2\n      and\n        /* \"/contracts/TimbPrize.sol\":27294:27343  if (_registry == address(0)) revert ZeroAddress() */\n      tag_493\n      jumpi\n        /* \"/contracts/TimbPrize.sol\":27330:27343  ZeroAddress() */\n      mload(0x40)\n      shl(0xe0, 0xd92e233d)\n      dup2\n      mstore\n      0x04\n      add\n      mload(0x40)\n      dup1\n      swap2\n      sub\n      swap1\n      revert\n        /* \"/contracts/TimbPrize.sol\":27294:27343  if (_registry == address(0)) revert ZeroAddress() */\n    tag_493:\n        /* \"/contracts/TimbPrize.sol\":27353:27365  gameRegistry */\n      0x02\n        /* \"/contracts/TimbPrize.sol\":27353:27377  gameRegistry = _registry */\n      dup1\n      sload\n      not(sub(shl(0xa0, 0x01), 0x01))\n      and\n      sub(shl(0xa0, 0x01), 0x01)\n      swap3\n      swap1\n      swap3\n      and\n      swap2\n      swap1\n      swap2\n      or\n      swap1\n      sstore\n        /* \"/contracts/TimbPrize.sol\":27221:27384  function setGameRegistry(address _registry) external onlyOwner {... */\n      jump\t// out\n        /* \"/contracts/TimbPrize.sol\":28141:28216  function unpauseEntries()  external onlyOwner { entriesPaused    = false; } */\n    tag_281:\n        /* \"@openzeppelin/contracts/access/Ownable.sol\":1531:1544  _checkOwner() */\n      tag_495\n        /* \"@openzeppelin/contracts/access/Ownable.sol\":1531:1542  _checkOwner */\n      tag_311\n        /* \"@openzeppelin/contracts/access/Ownable.sol\":1531:1544  _checkOwner() */\n      jump\t// in\n    tag_495:\n        /* \"/contracts/TimbPrize.sol\":28189:28202  entriesPaused */\n      0x16\n        /* \"/contracts/TimbPrize.sol\":28189:28213  entriesPaused    = false */\n      dup1\n      sload\n      not(0xff)\n      and\n      swap1\n      sstore\n        /* \"/contracts/TimbPrize.sol\":28141:28216  function unpauseEntries()  external onlyOwner { entriesPaused    = false; } */\n      jump\t// out\n        /* \"/contracts/TimbPrize.sol\":27953:28056  function setShuffleEnabled(bool _enabled) external onlyOwner {... */\n    tag_286:\n        /* \"@openzeppelin/contracts/access/Ownable.sol\":1531:1544  _checkOwner() */\n      tag_498\n        /* \"@openzeppelin/contracts/access/Ownable.sol\":1531:1542  _checkOwner */\n      tag_311\n        /* \"@openzeppelin/contracts/access/Ownable.sol\":1531:1544  _checkOwner() */\n      jump\t// in\n    tag_498:\n        /* \"/contracts/TimbPrize.sol\":28024:28038  shuffleEnabled */\n      0x07\n        /* \"/contracts/TimbPrize.sol\":28024:28049  shuffleEnabled = _enabled */\n      dup1\n      sload\n      not(0xff)\n      and\n      swap2\n      iszero\n      iszero\n      swap2\n      swap1\n      swap2\n      or\n      swap1\n      sstore\n        /* \"/contracts/TimbPrize.sol\":27953:28056  function setShuffleEnabled(bool _enabled) external onlyOwner {... */\n      jump\t// out\n        /* \"/contracts/TimbPrize.sol\":27103:27215  function setEligibleRegistry(address _registry) external onlyOwner {... */\n    tag_290:\n        /* \"@openzeppelin/contracts/access/Ownable.sol\":1531:1544  _checkOwner() */\n      tag_501\n        /* \"@openzeppelin/contracts/access/Ownable.sol\":1531:1542  _checkOwner */\n      tag_311\n        /* \"@openzeppelin/contracts/access/Ownable.sol\":1531:1544  _checkOwner() */\n      jump\t// in\n    tag_501:\n        /* \"/contracts/TimbPrize.sol\":27180:27196  eligibleRegistry */\n      0x04\n        /* \"/contracts/TimbPrize.sol\":27180:27208  eligibleRegistry = _registry */\n      dup1\n      sload\n      not(sub(shl(0xa0, 0x01), 0x01))\n      and\n      sub(shl(0xa0, 0x01), 0x01)\n      swap3\n      swap1\n      swap3\n      and\n      swap2\n      swap1\n      swap2\n      or\n      swap1\n      sstore\n        /* \"/contracts/TimbPrize.sol\":27103:27215  function setEligibleRegistry(address _registry) external onlyOwner {... */\n      jump\t// out\n        /* \"@openzeppelin/contracts/access/Ownable.sol\":2543:2758  function transferOwnership(address newOwner) public virtual onlyOwner {... */\n    tag_294:\n        /* \"@openzeppelin/contracts/access/Ownable.sol\":1531:1544  _checkOwner() */\n      tag_504\n        /* \"@openzeppelin/contracts/access/Ownable.sol\":1531:1542  _checkOwner */\n      tag_311\n        /* \"@openzeppelin/contracts/access/Ownable.sol\":1531:1544  _checkOwner() */\n      jump\t// in\n    tag_504:\n      sub(shl(0xa0, 0x01), 0x01)\n        /* \"@openzeppelin/contracts/access/Ownable.sol\":2627:2649  newOwner == address(0) */\n      dup2\n      and\n        /* \"@openzeppelin/contracts/access/Ownable.sol\":2623:2714  if (newOwner == address(0)) {... */\n      tag_506\n      jumpi\n        /* \"@openzeppelin/contracts/access/Ownable.sol\":2672:2703  OwnableInvalidOwner(address(0)) */\n      mload(0x40)\n      shl(0xe0, 0x1e4fbdf7)\n      dup2\n      mstore\n        /* \"@openzeppelin/contracts/access/Ownable.sol\":2700:2701  0 */\n      0x00\n        /* \"@openzeppelin/contracts/access/Ownable.sol\":2672:2703  OwnableInvalidOwner(address(0)) */\n      0x04\n      dup3\n      add\n        /* \"#utility.yul\":1650:1701   */\n      mstore\n        /* \"#utility.yul\":1623:1641   */\n      0x24\n      add\n        /* \"@openzeppelin/contracts/access/Ownable.sol\":2672:2703  OwnableInvalidOwner(address(0)) */\n      tag_385\n        /* \"#utility.yul\":1504:1707   */\n      jump\n        /* \"@openzeppelin/contracts/access/Ownable.sol\":2623:2714  if (newOwner == address(0)) {... */\n    tag_506:\n        /* \"@openzeppelin/contracts/access/Ownable.sol\":2723:2751  _transferOwnership(newOwner) */\n      tag_431\n        /* \"@openzeppelin/contracts/access/Ownable.sol\":2742:2750  newOwner */\n      dup2\n        /* \"@openzeppelin/contracts/access/Ownable.sol\":2723:2741  _transferOwnership */\n      tag_436\n        /* \"@openzeppelin/contracts/access/Ownable.sol\":2723:2751  _transferOwnership(newOwner) */\n      jump\t// in\n        /* \"@openzeppelin/contracts/access/Ownable.sol\":1796:1958  function _checkOwner() internal view virtual {... */\n    tag_311:\n        /* \"@openzeppelin/contracts/access/Ownable.sol\":1684:1691  address */\n      0x00\n        /* \"@openzeppelin/contracts/access/Ownable.sol\":1710:1716  _owner */\n      sload\n      sub(shl(0xa0, 0x01), 0x01)\n      and\n        /* \"@openzeppelin/contracts/utils/Context.sol\":735:745  msg.sender */\n      caller\n        /* \"@openzeppelin/contracts/access/Ownable.sol\":1855:1878  owner() != _msgSender() */\n      eq\n        /* \"@openzeppelin/contracts/access/Ownable.sol\":1851:1952  if (owner() != _msgSender()) {... */\n      tag_332\n      jumpi\n        /* \"@openzeppelin/contracts/access/Ownable.sol\":1901:1941  OwnableUnauthorizedAccount(_msgSender()) */\n      mload(0x40)\n      shl(0xe0, 0x118cdaa7)\n      dup2\n      mstore\n        /* \"@openzeppelin/contracts/utils/Context.sol\":735:745  msg.sender */\n      caller\n        /* \"@openzeppelin/contracts/access/Ownable.sol\":1901:1941  OwnableUnauthorizedAccount(_msgSender()) */\n      0x04\n      dup3\n      add\n        /* \"#utility.yul\":1650:1701   */\n      mstore\n        /* \"#utility.yul\":1623:1641   */\n      0x24\n      add\n        /* \"@openzeppelin/contracts/access/Ownable.sol\":1901:1941  OwnableUnauthorizedAccount(_msgSender()) */\n      tag_385\n        /* \"#utility.yul\":1504:1707   */\n      jump\n        /* \"@openzeppelin/contracts/utils/ReentrancyGuard.sol\":3749:4041  function _nonReentrantBefore() private {... */\n    tag_319:\n        /* \"@openzeppelin/contracts/utils/ReentrancyGuard.sol\":3872:3897  _nonReentrantBeforeView() */\n      tag_517\n        /* \"@openzeppelin/contracts/utils/ReentrancyGuard.sol\":3872:3895  _nonReentrantBeforeView */\n      tag_518\n        /* \"@openzeppelin/contracts/utils/ReentrancyGuard.sol\":3872:3897  _nonReentrantBeforeView() */\n      jump\t// in\n    tag_517:\n        /* \"@openzeppelin/contracts/utils/ReentrancyGuard.sol\":2407:2408  2 */\n      0x02\n      0x00\n      dup1\n      mload\n      0x20\n      data_c8669cf8eaf883002b9f48e28846a8d408c9b58ea6613bace374265e43c9bc43\n      dup4\n      codecopy\n      dup2\n      mload\n      swap2\n      mstore\n        /* \"@openzeppelin/contracts/utils/ReentrancyGuard.sol\":3972:4034  _reentrancyGuardStorageSlot().getUint256Slot().value = ENTERED */\n      sstore\n        /* \"@openzeppelin/contracts/utils/ReentrancyGuard.sol\":3749:4041  function _nonReentrantBefore() private {... */\n      jump\t// out\n        /* \"/contracts/TimbPrize.sol\":12431:12648  function _isInSettlementWindow() internal view returns (bool) {... */\n    tag_326:\n        /* \"/contracts/TimbPrize.sol\":12508:12519  gameStarted */\n      sload(0x0b)\n        /* \"/contracts/TimbPrize.sol\":12487:12491  bool */\n      0x00\n      swap1\n        /* \"/contracts/TimbPrize.sol\":12508:12519  gameStarted */\n      0xff\n      and\n        /* \"/contracts/TimbPrize.sol\":12503:12533  if (!gameStarted) return false */\n      tag_524\n      jumpi\n      pop\n        /* \"/contracts/TimbPrize.sol\":12528:12533  false */\n      0x00\n      swap1\n        /* \"/contracts/TimbPrize.sol\":12431:12648  function _isInSettlementWindow() internal view returns (bool) {... */\n      jump\t// out\n        /* \"/contracts/TimbPrize.sol\":12503:12533  if (!gameStarted) return false */\n    tag_524:\n        /* \"/contracts/TimbPrize.sol\":12543:12558  uint256 elapsed */\n      0x00\n        /* \"/contracts/TimbPrize.sol\":12579:12595  segmentStartTime */\n      sload(0x0a)\n        /* \"/contracts/TimbPrize.sol\":12561:12576  block.timestamp */\n      timestamp\n        /* \"/contracts/TimbPrize.sol\":12561:12595  block.timestamp - segmentStartTime */\n      tag_525\n      swap2\n      swap1\n      tag_383\n      jump\t// in\n    tag_525:\n        /* \"/contracts/TimbPrize.sol\":4004:4027  59 minutes + 45 seconds */\n      0x0e01\n      gt\n        /* \"/contracts/TimbPrize.sol\":12612:12641  elapsed >= INTERACTION_WINDOW */\n      iszero\n      swap3\n        /* \"/contracts/TimbPrize.sol\":12431:12648  function _isInSettlementWindow() internal view returns (bool) {... */\n      swap2\n      pop\n      pop\n      jump\t// out\n        /* \"/contracts/TimbPrize.sol\":15490:16864  function _settleRound() internal {... */\n    tag_391:\n        /* \"/contracts/TimbPrize.sol\":15549:15561  currentRound */\n      sload(0x08)\n        /* \"/contracts/TimbPrize.sol\":15533:15546  uint256 round */\n      0x00\n        /* \"/contracts/TimbPrize.sol\":15595:15622  _freezeWinningString(round) */\n      tag_530\n        /* \"/contracts/TimbPrize.sol\":15549:15561  currentRound */\n      dup3\n        /* \"/contracts/TimbPrize.sol\":15595:15615  _freezeWinningString */\n      tag_531\n        /* \"/contracts/TimbPrize.sol\":15595:15622  _freezeWinningString(round) */\n      jump\t// in\n    tag_530:\n        /* \"/contracts/TimbPrize.sol\":15572:15622  bytes6 winningString = _freezeWinningString(round) */\n      swap1\n      pop\n        /* \"/contracts/TimbPrize.sol\":15634:15658  address[] memory winners */\n      0x00\n        /* \"/contracts/TimbPrize.sol\":15660:15679  uint256 winnerCount */\n      dup1\n        /* \"/contracts/TimbPrize.sol\":15695:15737  _findVerifiedWinners(round, winningString) */\n      tag_532\n        /* \"/contracts/TimbPrize.sol\":15716:15721  round */\n      dup5\n        /* \"/contracts/TimbPrize.sol\":15723:15736  winningString */\n      dup5\n        /* \"/contracts/TimbPrize.sol\":15695:15715  _findVerifiedWinners */\n      tag_533\n        /* \"/contracts/TimbPrize.sol\":15695:15737  _findVerifiedWinners(round, winningString) */\n      jump\t// in\n    tag_532:\n        /* \"/contracts/TimbPrize.sol\":15633:15737  (address[] memory winners, uint256 winnerCount) =... */\n      swap2\n      pop\n      swap2\n      pop\n        /* \"/contracts/TimbPrize.sol\":15749:15760  uint256 pot */\n      0x00\n        /* \"/contracts/TimbPrize.sol\":15762:15779  uint256 perWinner */\n      dup1\n        /* \"/contracts/TimbPrize.sol\":15781:15798  uint256 remainder */\n      0x00\n        /* \"/contracts/TimbPrize.sol\":15814:15866  _distributePotAndRecord(round, winners, winnerCount) */\n      tag_534\n        /* \"/contracts/TimbPrize.sol\":15838:15843  round */\n      dup8\n        /* \"/contracts/TimbPrize.sol\":15845:15852  winners */\n      dup7\n        /* \"/contracts/TimbPrize.sol\":15854:15865  winnerCount */\n      dup7\n        /* \"/contracts/TimbPrize.sol\":15814:15837  _distributePotAndRecord */\n      tag_535\n        /* \"/contracts/TimbPrize.sol\":15814:15866  _distributePotAndRecord(round, winners, winnerCount) */\n      jump\t// in\n    tag_534:\n        /* \"/contracts/TimbPrize.sol\":15748:15866  (uint256 pot, uint256 perWinner, uint256 remainder) =... */\n      swap3\n      pop\n      swap3\n      pop\n      swap3\n      pop\n        /* \"/contracts/TimbPrize.sol\":16009:16038  _processExpiredEntries(round) */\n      tag_536\n        /* \"/contracts/TimbPrize.sol\":16032:16037  round */\n      dup8\n        /* \"/contracts/TimbPrize.sol\":16009:16031  _processExpiredEntries */\n      tag_537\n        /* \"/contracts/TimbPrize.sol\":16009:16038  _processExpiredEntries(round) */\n      jump\t// in\n    tag_536:\n        /* \"/contracts/TimbPrize.sol\":16098:16110  gameRegistry */\n      sload(0x02)\n        /* \"/contracts/TimbPrize.sol\":16084:16135  IGameRegistry(gameRegistry).getRoundEntrants(round) */\n      mload(0x40)\n      shl(0xe1, 0x22a56427)\n      dup2\n      mstore\n      0x04\n      dup2\n      add\n        /* \"#utility.yul\":2457:2482   */\n      dup10\n      swap1\n      mstore\n        /* \"/contracts/TimbPrize.sol\":16049:16069  uint256 totalEntries */\n      0x00\n      swap2\n      sub(shl(0xa0, 0x01), 0x01)\n        /* \"/contracts/TimbPrize.sol\":16098:16110  gameRegistry */\n      and\n      swap1\n        /* \"/contracts/TimbPrize.sol\":16084:16128  IGameRegistry(gameRegistry).getRoundEntrants */\n      0x454ac84e\n      swap1\n        /* \"#utility.yul\":2430:2448   */\n      0x24\n      add\n        /* \"/contracts/TimbPrize.sol\":16084:16135  IGameRegistry(gameRegistry).getRoundEntrants(round) */\n      0x00\n      mload(0x40)\n      dup1\n      dup4\n      sub\n      dup2\n      dup7\n      gas\n      staticcall\n      iszero\n      dup1\n      iszero\n      tag_540\n      jumpi\n      returndatasize\n      0x00\n      dup1\n      returndatacopy\n      revert(0x00, returndatasize)\n    tag_540:\n      pop\n      pop\n      pop\n      pop\n      mload(0x40)\n      returndatasize\n      0x00\n      dup3\n      returndatacopy\n      0x1f\n      returndatasize\n      swap1\n      dup2\n      add\n      not(0x1f)\n      and\n      dup3\n      add\n      0x40\n      mstore\n      tag_541\n      swap2\n      swap1\n      dup2\n      add\n      swap1\n      tag_542\n      jump\t// in\n    tag_541:\n        /* \"/contracts/TimbPrize.sol\":16084:16142  IGameRegistry(gameRegistry).getRoundEntrants(round).length */\n      mload\n        /* \"/contracts/TimbPrize.sol\":16158:16346  RoundSettled(... */\n      0x40\n      dup1\n      mload\n      not(sub(shl(0xd0, 0x01), 0x01))\n        /* \"#utility.yul\":7800:7837   */\n      dup11\n      and\n        /* \"#utility.yul\":7782:7838   */\n      dup2\n      mstore\n        /* \"#utility.yul\":7869:7871   */\n      0x20\n        /* \"#utility.yul\":7854:7872   */\n      dup2\n      add\n        /* \"#utility.yul\":7847:7881   */\n      dup8\n      swap1\n      mstore\n        /* \"#utility.yul\":7897:7915   */\n      swap1\n      dup2\n      add\n        /* \"#utility.yul\":7890:7924   */\n      dup8\n      swap1\n      mstore\n        /* \"#utility.yul\":7955:7957   */\n      0x60\n        /* \"#utility.yul\":7940:7958   */\n      dup2\n      add\n        /* \"#utility.yul\":7933:7967   */\n      dup5\n      swap1\n      mstore\n        /* \"#utility.yul\":7998:8001   */\n      0x80\n        /* \"#utility.yul\":7983:8002   */\n      dup2\n      add\n        /* \"#utility.yul\":7976:8011   */\n      dup3\n      swap1\n      mstore\n        /* \"/contracts/TimbPrize.sol\":16321:16336  block.timestamp */\n      timestamp\n        /* \"#utility.yul\":8042:8045   */\n      0xa0\n        /* \"#utility.yul\":8027:8046   */\n      dup3\n      add\n        /* \"#utility.yul\":8020:8055   */\n      mstore\n        /* \"/contracts/TimbPrize.sol\":16084:16142  IGameRegistry(gameRegistry).getRoundEntrants(round).length */\n      swap1\n      swap2\n      pop\n        /* \"/contracts/TimbPrize.sol\":16184:16189  round */\n      dup9\n      swap1\n        /* \"/contracts/TimbPrize.sol\":16158:16346  RoundSettled(... */\n      0xcb3e0bd9fc5c5ca893ab7edf22c314b2852d2cf6e36e091941d0709caeb4145c\n      swap1\n        /* \"#utility.yul\":7769:7772   */\n      0xc0\n        /* \"#utility.yul\":7754:7773   */\n      add\n        /* \"/contracts/TimbPrize.sol\":16158:16346  RoundSettled(... */\n      mload(0x40)\n      dup1\n      swap2\n      sub\n      swap1\n      log2\n        /* \"/contracts/TimbPrize.sol\":16533:16545  currentRound */\n      0x08\n        /* \"/contracts/TimbPrize.sol\":16533:16547  currentRound++ */\n      dup1\n      sload\n      swap1\n        /* \"/contracts/TimbPrize.sol\":16533:16545  currentRound */\n      0x00\n        /* \"/contracts/TimbPrize.sol\":16533:16547  currentRound++ */\n      tag_545\n      dup4\n      tag_329\n      jump\t// in\n    tag_545:\n      swap1\n      swap2\n      sstore\n      pop\n      pop\n        /* \"/contracts/TimbPrize.sol\":16576:16577  1 */\n      0x01\n        /* \"/contracts/TimbPrize.sol\":16557:16571  currentSegment */\n      0x09\n        /* \"/contracts/TimbPrize.sol\":16557:16577  currentSegment   = 1 */\n      sstore\n        /* \"/contracts/TimbPrize.sol\":16606:16621  block.timestamp */\n      timestamp\n        /* \"/contracts/TimbPrize.sol\":16587:16603  segmentStartTime */\n      0x0a\n        /* \"/contracts/TimbPrize.sol\":16587:16621  segmentStartTime = block.timestamp */\n      sstore\n        /* \"/contracts/TimbPrize.sol\":16646:16658  gameRegistry */\n      sload(0x02)\n        /* \"/contracts/TimbPrize.sol\":16676:16688  currentRound */\n      sload(0x08)\n        /* \"/contracts/TimbPrize.sol\":16632:16689  IGameRegistry(gameRegistry).setCurrentRound(currentRound) */\n      mload(0x40)\n      shl(0xe3, 0x077923c5)\n      dup2\n      mstore\n      sub(shl(0xa0, 0x01), 0x01)\n        /* \"/contracts/TimbPrize.sol\":16646:16658  gameRegistry */\n      swap1\n      swap3\n      and\n      swap2\n        /* \"/contracts/TimbPrize.sol\":16632:16675  IGameRegistry(gameRegistry).setCurrentRound */\n      0x3bc91e28\n      swap2\n        /* \"/contracts/TimbPrize.sol\":16632:16689  IGameRegistry(gameRegistry).setCurrentRound(currentRound) */\n      tag_546\n      swap2\n      0x04\n      add\n        /* \"#utility.yul\":2457:2482   */\n      swap1\n      dup2\n      mstore\n        /* \"#utility.yul\":2445:2447   */\n      0x20\n        /* \"#utility.yul\":2430:2448   */\n      add\n      swap1\n        /* \"#utility.yul\":2311:2488   */\n      jump\n        /* \"/contracts/TimbPrize.sol\":16632:16689  IGameRegistry(gameRegistry).setCurrentRound(currentRound) */\n    tag_546:\n      0x00\n      mload(0x40)\n      dup1\n      dup4\n      sub\n      dup2\n      0x00\n      dup8\n      dup1\n      extcodesize\n      iszero\n      dup1\n      iszero\n      tag_547\n      jumpi\n      0x00\n      dup1\n      revert\n    tag_547:\n      pop\n      gas\n      call\n      iszero\n      dup1\n      iszero\n      tag_549\n      jumpi\n      returndatasize\n      0x00\n      dup1\n      returndatacopy\n      revert(0x00, returndatasize)\n    tag_549:\n      pop\n      pop\n      pop\n      pop\n        /* \"/contracts/TimbPrize.sol\":16699:16734  _activateRoundEntries(currentRound) */\n      tag_550\n        /* \"/contracts/TimbPrize.sol\":16721:16733  currentRound */\n      sload(0x08)\n        /* \"/contracts/TimbPrize.sol\":16699:16720  _activateRoundEntries */\n      tag_486\n        /* \"/contracts/TimbPrize.sol\":16699:16734  _activateRoundEntries(currentRound) */\n      jump\t// in\n    tag_550:\n        /* \"/contracts/TimbPrize.sol\":16763:16775  currentRound */\n      sload(0x08)\n        /* \"/contracts/TimbPrize.sol\":16750:16793  RoundStarted(currentRound, block.timestamp) */\n      mload(0x40)\n        /* \"/contracts/TimbPrize.sol\":16777:16792  block.timestamp */\n      timestamp\n        /* \"#utility.yul\":2457:2482   */\n      dup2\n      mstore\n        /* \"/contracts/TimbPrize.sol\":16750:16793  RoundStarted(currentRound, block.timestamp) */\n      0x278844837bcf8364a705384bf3a2812901f54155bae86dea81dd52aa5b9ec0e3\n      swap1\n        /* \"#utility.yul\":2445:2447   */\n      0x20\n        /* \"#utility.yul\":2430:2448   */\n      add\n        /* \"/contracts/TimbPrize.sol\":16750:16793  RoundStarted(currentRound, block.timestamp) */\n      mload(0x40)\n      dup1\n      swap2\n      sub\n      swap1\n      log2\n        /* \"/contracts/TimbPrize.sol\":16824:16836  currentRound */\n      sload(0x08)\n        /* \"/contracts/TimbPrize.sol\":16808:16857  SegmentAdvanced(currentRound, 1, block.timestamp) */\n      0x40\n      dup1\n      mload\n        /* \"/contracts/TimbPrize.sol\":16838:16839  1 */\n      0x01\n        /* \"#utility.yul\":4543:4568   */\n      dup2\n      mstore\n        /* \"/contracts/TimbPrize.sol\":16841:16856  block.timestamp */\n      timestamp\n        /* \"#utility.yul\":4599:4601   */\n      0x20\n        /* \"#utility.yul\":4584:4602   */\n      dup3\n      add\n        /* \"#utility.yul\":4577:4611   */\n      mstore\n        /* \"/contracts/TimbPrize.sol\":16808:16857  SegmentAdvanced(currentRound, 1, block.timestamp) */\n      0xe9a2985393fa4bb459d73d85249df3b5923e70fb93b7b9c307e72359ab167587\n      swap2\n        /* \"#utility.yul\":4516:4534   */\n      add\n        /* \"/contracts/TimbPrize.sol\":16808:16857  SegmentAdvanced(currentRound, 1, block.timestamp) */\n      mload(0x40)\n      dup1\n      swap2\n      sub\n      swap1\n      log2\n        /* \"/contracts/TimbPrize.sol\":15523:16864  {... */\n      pop\n      pop\n      pop\n      pop\n      pop\n      pop\n      pop\n      pop\n        /* \"/contracts/TimbPrize.sol\":15490:16864  function _settleRound() internal {... */\n      jump\t// out\n        /* \"@openzeppelin/contracts/access/Ownable.sol\":2912:3099  function _transferOwnership(address newOwner) internal virtual {... */\n    tag_436:\n        /* \"@openzeppelin/contracts/access/Ownable.sol\":2985:3001  address oldOwner */\n      0x00\n        /* \"@openzeppelin/contracts/access/Ownable.sol\":3004:3010  _owner */\n      dup1\n      sload\n      sub(shl(0xa0, 0x01), 0x01)\n        /* \"@openzeppelin/contracts/access/Ownable.sol\":3020:3037  _owner = newOwner */\n      dup4\n      dup2\n      and\n      not(sub(shl(0xa0, 0x01), 0x01))\n      dup4\n      and\n      dup2\n      or\n      dup5\n      sstore\n        /* \"@openzeppelin/contracts/access/Ownable.sol\":3052:3092  OwnershipTransferred(oldOwner, newOwner) */\n      mload(0x40)\n        /* \"@openzeppelin/contracts/access/Ownable.sol\":3004:3010  _owner */\n      swap2\n      swap1\n      swap3\n      and\n      swap3\n      dup4\n      swap2\n        /* \"@openzeppelin/contracts/access/Ownable.sol\":3052:3092  OwnershipTransferred(oldOwner, newOwner) */\n      0x8be0079c531659141344cd1fd0a4f28419497f9722a3daafe3b4186f6b6457e0\n      swap2\n        /* \"@openzeppelin/contracts/access/Ownable.sol\":2985:3001  address oldOwner */\n      swap1\n        /* \"@openzeppelin/contracts/access/Ownable.sol\":3052:3092  OwnershipTransferred(oldOwner, newOwner) */\n      log3\n        /* \"@openzeppelin/contracts/access/Ownable.sol\":2975:3099  {... */\n      pop\n        /* \"@openzeppelin/contracts/access/Ownable.sol\":2912:3099  function _transferOwnership(address newOwner) internal virtual {... */\n      pop\n      jump\t// out\n        /* \"/contracts/TimbPrize.sol\":20467:20754  function _activateRoundEntries(uint256 round) internal {... */\n    tag_486:\n        /* \"/contracts/TimbPrize.sol\":20586:20598  gameRegistry */\n      sload(0x02)\n        /* \"/contracts/TimbPrize.sol\":20572:20623  IGameRegistry(gameRegistry).getRoundEntrants(round) */\n      mload(0x40)\n      shl(0xe1, 0x22a56427)\n      dup2\n      mstore\n      0x04\n      dup2\n      add\n        /* \"#utility.yul\":2457:2482   */\n      dup4\n      swap1\n      mstore\n        /* \"/contracts/TimbPrize.sol\":20532:20557  address[] memory entrants */\n      0x00\n      swap2\n      sub(shl(0xa0, 0x01), 0x01)\n        /* \"/contracts/TimbPrize.sol\":20586:20598  gameRegistry */\n      and\n      swap1\n        /* \"/contracts/TimbPrize.sol\":20572:20616  IGameRegistry(gameRegistry).getRoundEntrants */\n      0x454ac84e\n      swap1\n        /* \"#utility.yul\":2430:2448   */\n      0x24\n      add\n        /* \"/contracts/TimbPrize.sol\":20572:20623  IGameRegistry(gameRegistry).getRoundEntrants(round) */\n      0x00\n      mload(0x40)\n      dup1\n      dup4\n      sub\n      dup2\n      dup7\n      gas\n      staticcall\n      iszero\n      dup1\n      iszero\n      tag_558\n      jumpi\n      returndatasize\n      0x00\n      dup1\n      returndatacopy\n      revert(0x00, returndatasize)\n    tag_558:\n      pop\n      pop\n      pop\n      pop\n      mload(0x40)\n      returndatasize\n      0x00\n      dup3\n      returndatacopy\n      0x1f\n      returndatasize\n      swap1\n      dup2\n      add\n      not(0x1f)\n      and\n      dup3\n      add\n      0x40\n      mstore\n      tag_559\n      swap2\n      swap1\n      dup2\n      add\n      swap1\n      tag_542\n      jump\t// in\n    tag_559:\n        /* \"/contracts/TimbPrize.sol\":20637:20652  entrants.length */\n      dup1\n      mload\n        /* \"/contracts/TimbPrize.sol\":20532:20623  address[] memory entrants =... */\n      swap1\n      swap2\n      pop\n        /* \"/contracts/TimbPrize.sol\":20637:20656  entrants.length > 0 */\n      iszero\n        /* \"/contracts/TimbPrize.sol\":20633:20748  if (entrants.length > 0) {... */\n      tag_560\n      jumpi\n        /* \"/contracts/TimbPrize.sol\":20686:20698  gameRegistry */\n      sload(0x02)\n        /* \"/contracts/TimbPrize.sol\":20672:20737  IGameRegistry(gameRegistry).activateRoundEntries(round, entrants) */\n      mload(0x40)\n      shl(0xe1, 0x099866c3)\n      dup2\n      mstore\n      sub(shl(0xa0, 0x01), 0x01)\n        /* \"/contracts/TimbPrize.sol\":20686:20698  gameRegistry */\n      swap1\n      swap2\n      and\n      swap1\n        /* \"/contracts/TimbPrize.sol\":20672:20720  IGameRegistry(gameRegistry).activateRoundEntries */\n      0x1330cd86\n      swap1\n        /* \"/contracts/TimbPrize.sol\":20672:20737  IGameRegistry(gameRegistry).activateRoundEntries(round, entrants) */\n      tag_561\n      swap1\n        /* \"/contracts/TimbPrize.sol\":20721:20726  round */\n      dup6\n      swap1\n        /* \"/contracts/TimbPrize.sol\":20728:20736  entrants */\n      dup6\n      swap1\n        /* \"/contracts/TimbPrize.sol\":20672:20737  IGameRegistry(gameRegistry).activateRoundEntries(round, entrants) */\n      0x04\n      add\n      tag_562\n      jump\t// in\n    tag_561:\n      0x00\n      mload(0x40)\n      dup1\n      dup4\n      sub\n      dup2\n      0x00\n      dup8\n      dup1\n      extcodesize\n      iszero\n      dup1\n      iszero\n      tag_563\n      jumpi\n      0x00\n      dup1\n      revert\n    tag_563:\n      pop\n      gas\n      call\n      iszero\n      dup1\n      iszero\n      tag_565\n      jumpi\n      returndatasize\n      0x00\n      dup1\n      returndatacopy\n      revert(0x00, returndatasize)\n    tag_565:\n      pop\n      pop\n      pop\n      pop\n        /* \"/contracts/TimbPrize.sol\":20633:20748  if (entrants.length > 0) {... */\n    tag_560:\n        /* \"/contracts/TimbPrize.sol\":20522:20754  {... */\n      pop\n        /* \"/contracts/TimbPrize.sol\":20467:20754  function _activateRoundEntries(uint256 round) internal {... */\n      pop\n      jump\t// out\n        /* \"@openzeppelin/contracts/utils/ReentrancyGuard.sol\":3586:3743  function _nonReentrantBeforeView() private view {... */\n    tag_518:\n      0x00\n      dup1\n      mload\n      0x20\n      data_c8669cf8eaf883002b9f48e28846a8d408c9b58ea6613bace374265e43c9bc43\n      dup4\n      codecopy\n      dup2\n      mload\n      swap2\n      mstore\n        /* \"@openzeppelin/contracts/utils/ReentrancyGuard.sol\":4560:4612  _reentrancyGuardStorageSlot().getUint256Slot().value */\n      sload\n        /* \"@openzeppelin/contracts/utils/ReentrancyGuard.sol\":2407:2408  2 */\n      0x02\n        /* \"@openzeppelin/contracts/utils/ReentrancyGuard.sol\":4560:4623  _reentrancyGuardStorageSlot().getUint256Slot().value == ENTERED */\n      sub\n        /* \"@openzeppelin/contracts/utils/ReentrancyGuard.sol\":3644:3737  if (_reentrancyGuardEntered()) {... */\n      tag_332\n      jumpi\n        /* \"@openzeppelin/contracts/utils/ReentrancyGuard.sol\":3696:3726  ReentrancyGuardReentrantCall() */\n      mload(0x40)\n      shl(0xe0, 0x3ee5aeb5)\n      dup2\n      mstore\n      0x04\n      add\n      mload(0x40)\n      dup1\n      swap2\n      sub\n      swap1\n      revert\n        /* \"/contracts/TimbPrize.sol\":17100:17630  function _freezeWinningString(uint256 round) internal returns (bytes6 winningString) {... */\n    tag_531:\n        /* \"/contracts/TimbPrize.sol\":17163:17183  bytes6 winningString */\n      0x00\n      dup1\n        /* \"/contracts/TimbPrize.sol\":17271:17287  block.number - 1 */\n      tag_574\n        /* \"/contracts/TimbPrize.sol\":17286:17287  1 */\n      0x01\n        /* \"/contracts/TimbPrize.sol\":17271:17283  block.number */\n      number\n        /* \"/contracts/TimbPrize.sol\":17271:17287  block.number - 1 */\n      tag_383\n      jump\t// in\n    tag_574:\n        /* \"/contracts/TimbPrize.sol\":17302:17317  positionCounter */\n      sload(0x06)\n        /* \"/contracts/TimbPrize.sol\":17231:17346  abi.encodePacked(... */\n      0x40\n      dup1\n      mload\n        /* \"/contracts/TimbPrize.sol\":17261:17288  blockhash(block.number - 1) */\n      swap3\n      blockhash\n        /* \"/contracts/TimbPrize.sol\":17231:17346  abi.encodePacked(... */\n      0x20\n      dup5\n      add\n        /* \"#utility.yul\":8849:8868   */\n      mstore\n        /* \"#utility.yul\":8884:8896   */\n      dup3\n      add\n        /* \"#utility.yul\":8877:8905   */\n      mstore\n        /* \"#utility.yul\":8921:8933   */\n      0x60\n      dup2\n      add\n        /* \"#utility.yul\":8914:8942   */\n      dup5\n      swap1\n      mstore\n        /* \"#utility.yul\":8958:8970   */\n      0x80\n      add\n        /* \"/contracts/TimbPrize.sol\":17231:17346  abi.encodePacked(... */\n      0x40\n      dup1\n      mload\n      not(0x1f)\n      dup2\n      dup5\n      sub\n      add\n      dup2\n      mstore\n      swap2\n      swap1\n      mstore\n        /* \"/contracts/TimbPrize.sol\":17221:17347  keccak256(abi.encodePacked(... */\n      dup1\n      mload\n        /* \"/contracts/TimbPrize.sol\":17231:17346  abi.encodePacked(... */\n      0x20\n        /* \"/contracts/TimbPrize.sol\":17221:17347  keccak256(abi.encodePacked(... */\n      swap1\n      swap2\n      add\n      keccak256\n      swap1\n      pop\n        /* \"/contracts/TimbPrize.sol\":17213:17348  uint256(keccak256(abi.encodePacked(... */\n      0x00\n        /* \"/contracts/TimbPrize.sol\":17383:17394  entropy % 3 */\n      tag_577\n        /* \"/contracts/TimbPrize.sol\":17393:17394  3 */\n      0x03\n        /* \"/contracts/TimbPrize.sol\":17221:17347  keccak256(abi.encodePacked(... */\n      dup4\n        /* \"/contracts/TimbPrize.sol\":17383:17394  entropy % 3 */\n      tag_345\n      jump\t// in\n    tag_577:\n        /* \"/contracts/TimbPrize.sol\":17359:17394  uint256 offset        = entropy % 3 */\n      swap1\n      pop\n        /* \"/contracts/TimbPrize.sol\":17404:17425  uint256 frozenCounter */\n      0x00\n        /* \"/contracts/TimbPrize.sol\":17446:17452  offset */\n      dup2\n        /* \"/contracts/TimbPrize.sol\":17428:17443  positionCounter */\n      sload(0x06)\n        /* \"/contracts/TimbPrize.sol\":17428:17452  positionCounter + offset */\n      tag_578\n      swap2\n      swap1\n      tag_343\n      jump\t// in\n    tag_578:\n        /* \"/contracts/TimbPrize.sol\":17404:17452  uint256 frozenCounter = positionCounter + offset */\n      swap1\n      pop\n        /* \"/contracts/TimbPrize.sol\":17479:17505  getWindowAt(frozenCounter) */\n      tag_579\n        /* \"/contracts/TimbPrize.sol\":17491:17504  frozenCounter */\n      dup2\n        /* \"/contracts/TimbPrize.sol\":17479:17490  getWindowAt */\n      tag_208\n        /* \"/contracts/TimbPrize.sol\":17479:17505  getWindowAt(frozenCounter) */\n      jump\t// in\n    tag_579:\n        /* \"/contracts/TimbPrize.sol\":17515:17540  roundWinningString[round] */\n      0x00\n      dup7\n      dup2\n      mstore\n        /* \"/contracts/TimbPrize.sol\":17515:17533  roundWinningString */\n      0x10\n        /* \"/contracts/TimbPrize.sol\":17515:17540  roundWinningString[round] */\n      0x20\n      swap1\n      dup2\n      mstore\n      0x40\n      swap2\n      dup3\n      swap1\n      keccak256\n        /* \"/contracts/TimbPrize.sol\":17515:17556  roundWinningString[round] = winningString */\n      dup1\n      sload\n      not(0xffffffffffff)\n      and\n      0xd0\n      dup6\n      swap1\n      shr\n      or\n      swap1\n      sstore\n        /* \"/contracts/TimbPrize.sol\":17572:17623  PositionFrozen(round, frozenCounter, winningString) */\n      dup2\n      mload\n        /* \"#utility.yul\":9153:9178   */\n      dup5\n      dup2\n      mstore\n      not(sub(shl(0xd0, 0x01), 0x01))\n        /* \"#utility.yul\":9214:9251   */\n      dup5\n      and\n        /* \"#utility.yul\":9194:9212   */\n      swap2\n      dup2\n      add\n        /* \"#utility.yul\":9187:9252   */\n      swap2\n      swap1\n      swap2\n      mstore\n        /* \"/contracts/TimbPrize.sol\":17515:17556  roundWinningString[round] = winningString */\n      swap2\n      swap6\n      pop\n        /* \"/contracts/TimbPrize.sol\":17515:17540  roundWinningString[round] */\n      dup7\n      swap2\n        /* \"/contracts/TimbPrize.sol\":17572:17623  PositionFrozen(round, frozenCounter, winningString) */\n      0xd9518e0c64df7f54fe347e6e390672d87bc2350a9df1b275e2de0f2655ca9a84\n      swap2\n        /* \"#utility.yul\":9126:9144   */\n      add\n        /* \"/contracts/TimbPrize.sol\":17572:17623  PositionFrozen(round, frozenCounter, winningString) */\n      mload(0x40)\n      dup1\n      swap2\n      sub\n      swap1\n      log2\n        /* \"/contracts/TimbPrize.sol\":17185:17630  {... */\n      pop\n      pop\n      pop\n        /* \"/contracts/TimbPrize.sol\":17100:17630  function _freezeWinningString(uint256 round) internal returns (bytes6 winningString) {... */\n      swap2\n      swap1\n      pop\n      jump\t// out\n        /* \"/contracts/TimbPrize.sol\":17851:19081  function _findVerifiedWinners(uint256 round, bytes6 winningString)... */\n    tag_533:\n        /* \"/contracts/TimbPrize.sol\":18082:18094  gameRegistry */\n      sload(0x02)\n        /* \"/contracts/TimbPrize.sol\":18068:18135  IGameRegistry(gameRegistry).getStringEntrants(round, winningString) */\n      mload(0x40)\n      shl(0xe0, 0x9fd11627)\n      dup2\n      mstore\n      0x04\n      dup2\n      add\n        /* \"#utility.yul\":9153:9178   */\n      dup5\n      swap1\n      mstore\n      not(sub(shl(0xd0, 0x01), 0x01))\n        /* \"#utility.yul\":9214:9251   */\n      dup4\n      and\n        /* \"#utility.yul\":9194:9212   */\n      0x24\n      dup3\n      add\n        /* \"#utility.yul\":9187:9252   */\n      mstore\n        /* \"/contracts/TimbPrize.sol\":17965:17989  address[] memory winners */\n      0x60\n      swap2\n        /* \"/contracts/TimbPrize.sol\":17991:18010  uint256 winnerCount */\n      0x00\n      swap2\n      dup3\n      swap2\n      sub(shl(0xa0, 0x01), 0x01)\n        /* \"/contracts/TimbPrize.sol\":18082:18094  gameRegistry */\n      and\n      swap1\n        /* \"/contracts/TimbPrize.sol\":18068:18113  IGameRegistry(gameRegistry).getStringEntrants */\n      0x9fd11627\n      swap1\n        /* \"#utility.yul\":9126:9144   */\n      0x44\n      add\n        /* \"/contracts/TimbPrize.sol\":18068:18135  IGameRegistry(gameRegistry).getStringEntrants(round, winningString) */\n      0x00\n      mload(0x40)\n      dup1\n      dup4\n      sub\n      dup2\n      dup7\n      gas\n      staticcall\n      iszero\n      dup1\n      iszero\n      tag_585\n      jumpi\n      returndatasize\n      0x00\n      dup1\n      returndatacopy\n      revert(0x00, returndatasize)\n    tag_585:\n      pop\n      pop\n      pop\n      pop\n      mload(0x40)\n      returndatasize\n      0x00\n      dup3\n      returndatacopy\n      0x1f\n      returndatasize\n      swap1\n      dup2\n      add\n      not(0x1f)\n      and\n      dup3\n      add\n      0x40\n      mstore\n      tag_586\n      swap2\n      swap1\n      dup2\n      add\n      swap1\n      tag_542\n      jump\t// in\n    tag_586:\n        /* \"/contracts/TimbPrize.sol\":18026:18135  address[] memory candidates =... */\n      swap1\n      pop\n        /* \"/contracts/TimbPrize.sol\":18146:18171  address[] memory verified */\n      0x00\n        /* \"/contracts/TimbPrize.sol\":18188:18198  candidates */\n      dup2\n        /* \"/contracts/TimbPrize.sol\":18188:18205  candidates.length */\n      mload\n        /* \"/contracts/TimbPrize.sol\":18174:18206  new address[](candidates.length) */\n      0xffffffffffffffff\n      dup2\n      gt\n      iszero\n      tag_588\n      jumpi\n      tag_588\n      tag_337\n      jump\t// in\n    tag_588:\n      mload(0x40)\n      swap1\n      dup1\n      dup3\n      mstore\n      dup1\n      0x20\n      mul\n      0x20\n      add\n      dup3\n      add\n      0x40\n      mstore\n      dup1\n      iszero\n      tag_589\n      jumpi\n      dup2\n      0x20\n      add\n      0x20\n      dup3\n      mul\n      dup1\n      calldatasize\n      dup4\n      calldatacopy\n      add\n      swap1\n      pop\n    tag_589:\n      pop\n        /* \"/contracts/TimbPrize.sol\":18146:18206  address[] memory verified = new address[](candidates.length) */\n      swap1\n      pop\n        /* \"/contracts/TimbPrize.sol\":18222:18231  uint256 i */\n      0x00\n        /* \"/contracts/TimbPrize.sol\":18217:18928  for (uint256 i = 0; i < candidates.length; i++) {... */\n    tag_590:\n        /* \"/contracts/TimbPrize.sol\":18241:18251  candidates */\n      dup3\n        /* \"/contracts/TimbPrize.sol\":18241:18258  candidates.length */\n      mload\n        /* \"/contracts/TimbPrize.sol\":18237:18238  i */\n      dup2\n        /* \"/contracts/TimbPrize.sol\":18237:18258  i < candidates.length */\n      lt\n        /* \"/contracts/TimbPrize.sol\":18217:18928  for (uint256 i = 0; i < candidates.length; i++) {... */\n      iszero\n      tag_591\n      jumpi\n        /* \"/contracts/TimbPrize.sol\":18279:18296  address candidate */\n      0x00\n        /* \"/contracts/TimbPrize.sol\":18299:18309  candidates */\n      dup4\n        /* \"/contracts/TimbPrize.sol\":18310:18311  i */\n      dup3\n        /* \"/contracts/TimbPrize.sol\":18299:18312  candidates[i] */\n      dup2\n      mload\n      dup2\n      lt\n      tag_594\n      jumpi\n      tag_594\n      tag_348\n      jump\t// in\n    tag_594:\n      0x20\n      swap1\n      dup2\n      mul\n      swap2\n      swap1\n      swap2\n      add\n      add\n      mload\n        /* \"/contracts/TimbPrize.sol\":18449:18461  gameRegistry */\n      sload(0x02)\n        /* \"/contracts/TimbPrize.sol\":18435:18499  IGameRegistry(gameRegistry).verifyEntryExisted(candidate, round) */\n      mload(0x40)\n      shl(0xe0, 0xa96de4f5)\n      dup2\n      mstore\n      sub(shl(0xa0, 0x01), 0x01)\n        /* \"#utility.yul\":6133:6165   */\n      dup1\n      dup5\n      and\n        /* \"/contracts/TimbPrize.sol\":18435:18499  IGameRegistry(gameRegistry).verifyEntryExisted(candidate, round) */\n      0x04\n      dup4\n      add\n        /* \"#utility.yul\":6115:6166   */\n      mstore\n        /* \"#utility.yul\":6182:6200   */\n      0x24\n      dup3\n      add\n        /* \"#utility.yul\":6175:6209   */\n      dup13\n      swap1\n      mstore\n        /* \"/contracts/TimbPrize.sol\":18299:18312  candidates[i] */\n      swap3\n      swap4\n      pop\n        /* \"/contracts/TimbPrize.sol\":18381:18393  bool existed */\n      0x00\n      swap3\n      dup4\n      swap3\n        /* \"/contracts/TimbPrize.sol\":18449:18461  gameRegistry */\n      and\n      swap1\n        /* \"/contracts/TimbPrize.sol\":18435:18481  IGameRegistry(gameRegistry).verifyEntryExisted */\n      0xa96de4f5\n      swap1\n        /* \"#utility.yul\":6088:6106   */\n      0x44\n      add\n        /* \"/contracts/TimbPrize.sol\":18435:18499  IGameRegistry(gameRegistry).verifyEntryExisted(candidate, round) */\n      0x40\n      dup1\n      mload\n      dup1\n      dup4\n      sub\n      dup2\n      dup7\n      gas\n      staticcall\n      iszero\n      dup1\n      iszero\n      tag_597\n      jumpi\n      returndatasize\n      0x00\n      dup1\n      returndatacopy\n      revert(0x00, returndatasize)\n    tag_597:\n      pop\n      pop\n      pop\n      pop\n      mload(0x40)\n      returndatasize\n      not(0x1f)\n      0x1f\n      dup3\n      add\n      and\n      dup3\n      add\n      dup1\n      0x40\n      mstore\n      pop\n      dup2\n      add\n      swap1\n      tag_598\n      swap2\n      swap1\n      tag_599\n      jump\t// in\n    tag_598:\n        /* \"/contracts/TimbPrize.sol\":18380:18499  (bool existed, bytes6 existedString) =... */\n      swap2\n      pop\n      swap2\n      pop\n        /* \"/contracts/TimbPrize.sol\":18518:18525  existed */\n      dup2\n        /* \"/contracts/TimbPrize.sol\":18513:18535  if (!existed) continue */\n      tag_600\n      jumpi\n        /* \"/contracts/TimbPrize.sol\":18527:18535  continue */\n      pop\n      pop\n      pop\n      jump(tag_592)\n        /* \"/contracts/TimbPrize.sol\":18513:18535  if (!existed) continue */\n    tag_600:\n      not(sub(shl(0xd0, 0x01), 0x01))\n        /* \"/contracts/TimbPrize.sol\":18553:18583  existedString != winningString */\n      dup2\n      dup2\n      and\n      swap1\n      dup11\n      and\n      eq\n        /* \"/contracts/TimbPrize.sol\":18549:18593  if (existedString != winningString) continue */\n      tag_601\n      jumpi\n        /* \"/contracts/TimbPrize.sol\":18585:18593  continue */\n      pop\n      pop\n      pop\n      jump(tag_592)\n        /* \"/contracts/TimbPrize.sol\":18549:18593  if (existedString != winningString) continue */\n    tag_601:\n        /* \"/contracts/TimbPrize.sol\":18729:18741  gameRegistry */\n      sload(0x02)\n        /* \"/contracts/TimbPrize.sol\":18715:18777  IGameRegistry(gameRegistry).verifyEntryValid(candidate, round) */\n      mload(0x40)\n      shl(0xe0, 0xc106aee3)\n      dup2\n      mstore\n      sub(shl(0xa0, 0x01), 0x01)\n        /* \"#utility.yul\":6133:6165   */\n      dup6\n      dup2\n      and\n        /* \"/contracts/TimbPrize.sol\":18715:18777  IGameRegistry(gameRegistry).verifyEntryValid(candidate, round) */\n      0x04\n      dup4\n      add\n        /* \"#utility.yul\":6115:6166   */\n      mstore\n        /* \"#utility.yul\":6182:6200   */\n      0x24\n      dup3\n      add\n        /* \"#utility.yul\":6175:6209   */\n      dup14\n      swap1\n      mstore\n        /* \"/contracts/TimbPrize.sol\":18665:18675  bool valid */\n      0x00\n      swap3\n      dup4\n      swap3\n        /* \"/contracts/TimbPrize.sol\":18729:18741  gameRegistry */\n      swap2\n      and\n      swap1\n        /* \"/contracts/TimbPrize.sol\":18715:18759  IGameRegistry(gameRegistry).verifyEntryValid */\n      0xc106aee3\n      swap1\n        /* \"#utility.yul\":6088:6106   */\n      0x44\n      add\n        /* \"/contracts/TimbPrize.sol\":18715:18777  IGameRegistry(gameRegistry).verifyEntryValid(candidate, round) */\n      0x40\n      dup1\n      mload\n      dup1\n      dup4\n      sub\n      dup2\n      dup7\n      gas\n      staticcall\n      iszero\n      dup1\n      iszero\n      tag_604\n      jumpi\n      returndatasize\n      0x00\n      dup1\n      returndatacopy\n      revert(0x00, returndatasize)\n    tag_604:\n      pop\n      pop\n      pop\n      pop\n      mload(0x40)\n      returndatasize\n      not(0x1f)\n      0x1f\n      dup3\n      add\n      and\n      dup3\n      add\n      dup1\n      0x40\n      mstore\n      pop\n      dup2\n      add\n      swap1\n      tag_605\n      swap2\n      swap1\n      tag_599\n      jump\t// in\n    tag_605:\n        /* \"/contracts/TimbPrize.sol\":18664:18777  (bool valid, bytes6 validString) =... */\n      swap2\n      pop\n      swap2\n      pop\n        /* \"/contracts/TimbPrize.sol\":18796:18801  valid */\n      dup2\n        /* \"/contracts/TimbPrize.sol\":18791:18811  if (!valid) continue */\n      tag_606\n      jumpi\n        /* \"/contracts/TimbPrize.sol\":18803:18811  continue */\n      pop\n      pop\n      pop\n      pop\n      pop\n      jump(tag_592)\n        /* \"/contracts/TimbPrize.sol\":18791:18811  if (!valid) continue */\n    tag_606:\n      not(sub(shl(0xd0, 0x01), 0x01))\n        /* \"/contracts/TimbPrize.sol\":18829:18857  validString != winningString */\n      dup2\n      dup2\n      and\n      swap1\n      dup13\n      and\n      eq\n        /* \"/contracts/TimbPrize.sol\":18825:18867  if (validString != winningString) continue */\n      tag_607\n      jumpi\n        /* \"/contracts/TimbPrize.sol\":18859:18867  continue */\n      pop\n      pop\n      pop\n      pop\n      pop\n      jump(tag_592)\n        /* \"/contracts/TimbPrize.sol\":18825:18867  if (validString != winningString) continue */\n    tag_607:\n        /* \"/contracts/TimbPrize.sol\":18908:18917  candidate */\n      dup5\n        /* \"/contracts/TimbPrize.sol\":18882:18890  verified */\n      dup8\n        /* \"/contracts/TimbPrize.sol\":18891:18904  winnerCount++ */\n      dup11\n      tag_608\n      dup2\n      tag_329\n      jump\t// in\n    tag_608:\n      swap12\n      pop\n        /* \"/contracts/TimbPrize.sol\":18882:18905  verified[winnerCount++] */\n      dup2\n      mload\n      dup2\n      lt\n      tag_610\n      jumpi\n      tag_610\n      tag_348\n      jump\t// in\n    tag_610:\n      0x20\n      mul\n      0x20\n      add\n      add\n        /* \"/contracts/TimbPrize.sol\":18882:18917  verified[winnerCount++] = candidate */\n      swap1\n      sub(shl(0xa0, 0x01), 0x01)\n      and\n      swap1\n      dup2\n      sub(shl(0xa0, 0x01), 0x01)\n      and\n      dup2\n      mstore\n      pop\n      pop\n        /* \"/contracts/TimbPrize.sol\":18265:18928  {... */\n      pop\n      pop\n      pop\n      pop\n      pop\n        /* \"/contracts/TimbPrize.sol\":18217:18928  for (uint256 i = 0; i < candidates.length; i++) {... */\n    tag_592:\n        /* \"/contracts/TimbPrize.sol\":18260:18263  i++ */\n      0x01\n      add\n        /* \"/contracts/TimbPrize.sol\":18217:18928  for (uint256 i = 0; i < candidates.length; i++) {... */\n      jump(tag_590)\n    tag_591:\n      pop\n        /* \"/contracts/TimbPrize.sol\":18962:18973  winnerCount */\n      dup3\n        /* \"/contracts/TimbPrize.sol\":18948:18974  new address[](winnerCount) */\n      0xffffffffffffffff\n      dup2\n      gt\n      iszero\n      tag_612\n      jumpi\n      tag_612\n      tag_337\n      jump\t// in\n    tag_612:\n      mload(0x40)\n      swap1\n      dup1\n      dup3\n      mstore\n      dup1\n      0x20\n      mul\n      0x20\n      add\n      dup3\n      add\n      0x40\n      mstore\n      dup1\n      iszero\n      tag_613\n      jumpi\n      dup2\n      0x20\n      add\n      0x20\n      dup3\n      mul\n      dup1\n      calldatasize\n      dup4\n      calldatacopy\n      add\n      swap1\n      pop\n    tag_613:\n      pop\n        /* \"/contracts/TimbPrize.sol\":18938:18974  winners = new address[](winnerCount) */\n      swap4\n      pop\n        /* \"/contracts/TimbPrize.sol\":18989:18998  uint256 i */\n      0x00\n        /* \"/contracts/TimbPrize.sol\":18984:19075  for (uint256 i = 0; i < winnerCount; i++) {... */\n    tag_614:\n        /* \"/contracts/TimbPrize.sol\":19008:19019  winnerCount */\n      dup4\n        /* \"/contracts/TimbPrize.sol\":19004:19005  i */\n      dup2\n        /* \"/contracts/TimbPrize.sol\":19004:19019  i < winnerCount */\n      lt\n        /* \"/contracts/TimbPrize.sol\":18984:19075  for (uint256 i = 0; i < winnerCount; i++) {... */\n      iszero\n      tag_615\n      jumpi\n        /* \"/contracts/TimbPrize.sol\":19053:19061  verified */\n      dup2\n        /* \"/contracts/TimbPrize.sol\":19062:19063  i */\n      dup2\n        /* \"/contracts/TimbPrize.sol\":19053:19064  verified[i] */\n      dup2\n      mload\n      dup2\n      lt\n      tag_618\n      jumpi\n      tag_618\n      tag_348\n      jump\t// in\n    tag_618:\n      0x20\n      mul\n      0x20\n      add\n      add\n      mload\n        /* \"/contracts/TimbPrize.sol\":19040:19047  winners */\n      dup6\n        /* \"/contracts/TimbPrize.sol\":19048:19049  i */\n      dup3\n        /* \"/contracts/TimbPrize.sol\":19040:19050  winners[i] */\n      dup2\n      mload\n      dup2\n      lt\n      tag_620\n      jumpi\n      tag_620\n      tag_348\n      jump\t// in\n    tag_620:\n      sub(shl(0xa0, 0x01), 0x01)\n        /* \"/contracts/TimbPrize.sol\":19040:19064  winners[i] = verified[i] */\n      swap1\n      swap3\n      and\n        /* \"/contracts/TimbPrize.sol\":19040:19050  winners[i] */\n      0x20\n      swap3\n      dup4\n      mul\n      swap2\n      swap1\n      swap2\n      add\n      swap1\n      swap2\n      add\n        /* \"/contracts/TimbPrize.sol\":19040:19064  winners[i] = verified[i] */\n      mstore\n        /* \"/contracts/TimbPrize.sol\":19021:19024  i++ */\n      0x01\n      add\n        /* \"/contracts/TimbPrize.sol\":18984:19075  for (uint256 i = 0; i < winnerCount; i++) {... */\n      jump(tag_614)\n    tag_615:\n      pop\n        /* \"/contracts/TimbPrize.sol\":18016:19081  {... */\n      pop\n      pop\n        /* \"/contracts/TimbPrize.sol\":17851:19081  function _findVerifiedWinners(uint256 round, bytes6 winningString)... */\n      swap3\n      pop\n      swap3\n      swap1\n      pop\n      jump\t// out\n        /* \"/contracts/TimbPrize.sol\":19334:20370  function _distributePotAndRecord(... */\n    tag_535:\n        /* \"/contracts/TimbPrize.sol\":19544:19569  currentAccumulatedRewards */\n      sload(0x0c)\n        /* \"/contracts/TimbPrize.sol\":19584:19598  protocolCutBps */\n      sload(0x0f)\n        /* \"/contracts/TimbPrize.sol\":19477:19488  uint256 pot */\n      0x00\n      swap1\n      dup2\n      swap1\n        /* \"/contracts/TimbPrize.sol\":19584:19602  protocolCutBps > 0 */\n      iszero\n      dup1\n      iszero\n      swap1\n        /* \"/contracts/TimbPrize.sol\":19584:19613  protocolCutBps > 0 && pot > 0 */\n      tag_622\n      jumpi\n      pop\n        /* \"/contracts/TimbPrize.sol\":19612:19613  0 */\n      0x00\n        /* \"/contracts/TimbPrize.sol\":19606:19609  pot */\n      dup4\n        /* \"/contracts/TimbPrize.sol\":19606:19613  pot > 0 */\n      gt\n        /* \"/contracts/TimbPrize.sol\":19584:19613  protocolCutBps > 0 && pot > 0 */\n    tag_622:\n        /* \"/contracts/TimbPrize.sol\":19580:19749  if (protocolCutBps > 0 && pot > 0) {... */\n      iszero\n      tag_623\n      jumpi\n        /* \"/contracts/TimbPrize.sol\":19629:19640  uint256 cut */\n      0x00\n        /* \"/contracts/TimbPrize.sol\":19668:19674  10_000 */\n      0x2710\n        /* \"/contracts/TimbPrize.sol\":19650:19664  protocolCutBps */\n      sload(0x0f)\n        /* \"/contracts/TimbPrize.sol\":19644:19647  pot */\n      dup6\n        /* \"/contracts/TimbPrize.sol\":19644:19664  pot * protocolCutBps */\n      tag_624\n      swap2\n      swap1\n      tag_399\n      jump\t// in\n    tag_624:\n        /* \"/contracts/TimbPrize.sol\":19643:19674  (pot * protocolCutBps) / 10_000 */\n      tag_625\n      swap2\n      swap1\n      tag_626\n      jump\t// in\n    tag_625:\n        /* \"/contracts/TimbPrize.sol\":19629:19674  uint256 cut = (pot * protocolCutBps) / 10_000 */\n      swap1\n      pop\n        /* \"/contracts/TimbPrize.sol\":19688:19698  pot -= cut */\n      tag_627\n        /* \"/contracts/TimbPrize.sol\":19629:19674  uint256 cut = (pot * protocolCutBps) / 10_000 */\n      dup2\n        /* \"/contracts/TimbPrize.sol\":19688:19698  pot -= cut */\n      dup6\n      tag_383\n      jump\t// in\n    tag_627:\n      swap4\n      pop\n        /* \"/contracts/TimbPrize.sol\":19717:19738  ProtocolCutTaken(cut) */\n      0x85fcfc84baa0423652490bdd8531f642a3376cb202145025b549fb449516e5a8\n        /* \"/contracts/TimbPrize.sol\":19734:19737  cut */\n      dup2\n        /* \"/contracts/TimbPrize.sol\":19717:19738  ProtocolCutTaken(cut) */\n      mload(0x40)\n      tag_628\n      swap2\n        /* \"#utility.yul\":2457:2482   */\n      dup2\n      mstore\n        /* \"#utility.yul\":2445:2447   */\n      0x20\n        /* \"#utility.yul\":2430:2448   */\n      add\n      swap1\n        /* \"#utility.yul\":2311:2488   */\n      jump\n        /* \"/contracts/TimbPrize.sol\":19717:19738  ProtocolCutTaken(cut) */\n    tag_628:\n      mload(0x40)\n      dup1\n      swap2\n      sub\n      swap1\n      log1\n        /* \"/contracts/TimbPrize.sol\":19615:19749  {... */\n      pop\n        /* \"/contracts/TimbPrize.sol\":19580:19749  if (protocolCutBps > 0 && pot > 0) {... */\n    tag_623:\n      pop\n        /* \"/contracts/TimbPrize.sol\":19802:19805  pot */\n      dup2\n        /* \"/contracts/TimbPrize.sol\":19759:19776  uint256 totalPaid */\n      0x00\n        /* \"/contracts/TimbPrize.sol\":19820:19835  winnerCount > 0 */\n      dup5\n      iszero\n        /* \"/contracts/TimbPrize.sol\":19816:19981  if (winnerCount > 0) {... */\n      tag_629\n      jumpi\n        /* \"/contracts/TimbPrize.sol\":19863:19880  pot / winnerCount */\n      tag_630\n        /* \"/contracts/TimbPrize.sol\":19869:19880  winnerCount */\n      dup6\n        /* \"/contracts/TimbPrize.sol\":19863:19866  pot */\n      dup6\n        /* \"/contracts/TimbPrize.sol\":19863:19880  pot / winnerCount */\n      tag_626\n      jump\t// in\n    tag_630:\n        /* \"/contracts/TimbPrize.sol\":19851:19880  perWinner = pot / winnerCount */\n      swap3\n      pop\n        /* \"/contracts/TimbPrize.sol\":19906:19929  perWinner * winnerCount */\n      tag_631\n        /* \"/contracts/TimbPrize.sol\":19918:19929  winnerCount */\n      dup6\n        /* \"/contracts/TimbPrize.sol\":19851:19880  perWinner = pot / winnerCount */\n      dup5\n        /* \"/contracts/TimbPrize.sol\":19906:19929  perWinner * winnerCount */\n      tag_399\n      jump\t// in\n    tag_631:\n        /* \"/contracts/TimbPrize.sol\":19894:19929  totalPaid = perWinner * winnerCount */\n      swap1\n      pop\n        /* \"/contracts/TimbPrize.sol\":19955:19970  pot - totalPaid */\n      tag_632\n        /* \"/contracts/TimbPrize.sol\":19894:19929  totalPaid = perWinner * winnerCount */\n      dup2\n        /* \"/contracts/TimbPrize.sol\":19955:19958  pot */\n      dup6\n        /* \"/contracts/TimbPrize.sol\":19955:19970  pot - totalPaid */\n      tag_383\n      jump\t// in\n    tag_632:\n        /* \"/contracts/TimbPrize.sol\":19943:19970  remainder = pot - totalPaid */\n      swap2\n      pop\n        /* \"/contracts/TimbPrize.sol\":19816:19981  if (winnerCount > 0) {... */\n    tag_629:\n        /* \"/contracts/TimbPrize.sol\":19996:20005  uint256 i */\n      0x00\n        /* \"/contracts/TimbPrize.sol\":19991:20094  for (uint256 i = 0; i < winnerCount; i++) {... */\n    tag_633:\n        /* \"/contracts/TimbPrize.sol\":20015:20026  winnerCount */\n      dup6\n        /* \"/contracts/TimbPrize.sol\":20011:20012  i */\n      dup2\n        /* \"/contracts/TimbPrize.sol\":20011:20026  i < winnerCount */\n      lt\n        /* \"/contracts/TimbPrize.sol\":19991:20094  for (uint256 i = 0; i < winnerCount; i++) {... */\n      iszero\n      tag_634\n      jumpi\n        /* \"/contracts/TimbPrize.sol\":20047:20066  roundWinners[round] */\n      0x00\n      dup9\n      dup2\n      mstore\n        /* \"/contracts/TimbPrize.sol\":20047:20059  roundWinners */\n      0x12\n        /* \"/contracts/TimbPrize.sol\":20047:20066  roundWinners[round] */\n      0x20\n      mstore\n      0x40\n      swap1\n      keccak256\n        /* \"/contracts/TimbPrize.sol\":20072:20082  winners[i] */\n      dup8\n      mload\n        /* \"/contracts/TimbPrize.sol\":20072:20079  winners */\n      dup9\n      swap1\n        /* \"/contracts/TimbPrize.sol\":20080:20081  i */\n      dup4\n      swap1\n        /* \"/contracts/TimbPrize.sol\":20072:20082  winners[i] */\n      dup2\n      lt\n      tag_637\n      jumpi\n      tag_637\n      tag_348\n      jump\t// in\n    tag_637:\n      0x20\n      swap1\n      dup2\n      mul\n      swap2\n      swap1\n      swap2\n      add\n      dup2\n      add\n      mload\n        /* \"/contracts/TimbPrize.sol\":20047:20083  roundWinners[round].push(winners[i]) */\n      dup3\n      sload\n      0x01\n      dup1\n      dup3\n      add\n      dup6\n      sstore\n      0x00\n      swap5\n      dup6\n      mstore\n      swap3\n      swap1\n      swap4\n      keccak256\n      swap1\n      swap3\n      add\n      dup1\n      sload\n      not(sub(shl(0xa0, 0x01), 0x01))\n      and\n      sub(shl(0xa0, 0x01), 0x01)\n      swap1\n      swap4\n      and\n      swap3\n      swap1\n      swap3\n      or\n      swap1\n      swap2\n      sstore\n        /* \"/contracts/TimbPrize.sol\":20028:20031  i++ */\n      add\n        /* \"/contracts/TimbPrize.sol\":19991:20094  for (uint256 i = 0; i < winnerCount; i++) {... */\n      jump(tag_633)\n    tag_634:\n      pop\n        /* \"/contracts/TimbPrize.sol\":20104:20125  roundPotAmount[round] */\n      0x00\n      dup8\n      dup2\n      mstore\n        /* \"/contracts/TimbPrize.sol\":20104:20118  roundPotAmount */\n      0x11\n        /* \"/contracts/TimbPrize.sol\":20104:20125  roundPotAmount[round] */\n      0x20\n      swap1\n      dup2\n      mstore\n      0x40\n      dup1\n      dup4\n      keccak256\n        /* \"/contracts/TimbPrize.sol\":20104:20137  roundPotAmount[round]       = pot */\n      dup8\n      swap1\n      sstore\n        /* \"/contracts/TimbPrize.sol\":20147:20167  roundPerWinnerAmount */\n      0x13\n        /* \"/contracts/TimbPrize.sol\":20147:20174  roundPerWinnerAmount[round] */\n      dup3\n      mstore\n      dup1\n      dup4\n      keccak256\n        /* \"/contracts/TimbPrize.sol\":20147:20186  roundPerWinnerAmount[round] = perWinner */\n      dup7\n      swap1\n      sstore\n        /* \"/contracts/TimbPrize.sol\":20196:20210  roundRemainder */\n      0x14\n        /* \"/contracts/TimbPrize.sol\":20196:20217  roundRemainder[round] */\n      swap1\n      swap2\n      mstore\n      dup2\n      keccak256\n        /* \"/contracts/TimbPrize.sol\":20196:20235  roundRemainder[round]       = remainder */\n      dup4\n      swap1\n      sstore\n        /* \"/contracts/TimbPrize.sol\":20246:20272  gameUnclaimed_winningsPool */\n      0x0d\n        /* \"/contracts/TimbPrize.sol\":20246:20285  gameUnclaimed_winningsPool += totalPaid */\n      dup1\n      sload\n        /* \"/contracts/TimbPrize.sol\":20276:20285  totalPaid */\n      dup4\n      swap3\n        /* \"/contracts/TimbPrize.sol\":20104:20125  roundPotAmount[round] */\n      swap1\n        /* \"/contracts/TimbPrize.sol\":20246:20285  gameUnclaimed_winningsPool += totalPaid */\n      tag_639\n      swap1\n        /* \"/contracts/TimbPrize.sol\":20276:20285  totalPaid */\n      dup5\n      swap1\n        /* \"/contracts/TimbPrize.sol\":20246:20285  gameUnclaimed_winningsPool += totalPaid */\n      tag_343\n      jump\t// in\n    tag_639:\n      swap1\n      swap2\n      sstore\n      pop\n      pop\n      pop\n        /* \"/contracts/TimbPrize.sol\":20295:20320  currentAccumulatedRewards */\n      0x0c\n        /* \"/contracts/TimbPrize.sol\":20295:20334  currentAccumulatedRewards   = remainder */\n      dup2\n      swap1\n      sstore\n        /* \"/contracts/TimbPrize.sol\":19334:20370  function _distributePotAndRecord(... */\n      swap2\n      swap6\n      swap1\n      swap5\n      pop\n        /* \"/contracts/TimbPrize.sol\":20325:20334  remainder */\n      swap1\n      swap3\n      pop\n        /* \"/contracts/TimbPrize.sol\":19334:20370  function _distributePotAndRecord(... */\n      swap1\n      pop\n      jump\t// out\n        /* \"/contracts/TimbPrize.sol\":20931:21826  function _processExpiredEntries(uint256 settledRound) internal {... */\n    tag_537:\n        /* \"/contracts/TimbPrize.sol\":21058:21070  gameRegistry */\n      sload(0x02)\n        /* \"/contracts/TimbPrize.sol\":21044:21102  IGameRegistry(gameRegistry).getRoundEntrants(settledRound) */\n      mload(0x40)\n      shl(0xe1, 0x22a56427)\n      dup2\n      mstore\n      0x04\n      dup2\n      add\n        /* \"#utility.yul\":2457:2482   */\n      dup4\n      swap1\n      mstore\n        /* \"/contracts/TimbPrize.sol\":21004:21029  address[] memory entrants */\n      0x00\n      swap2\n      sub(shl(0xa0, 0x01), 0x01)\n        /* \"/contracts/TimbPrize.sol\":21058:21070  gameRegistry */\n      and\n      swap1\n        /* \"/contracts/TimbPrize.sol\":21044:21088  IGameRegistry(gameRegistry).getRoundEntrants */\n      0x454ac84e\n      swap1\n        /* \"#utility.yul\":2430:2448   */\n      0x24\n      add\n        /* \"/contracts/TimbPrize.sol\":21044:21102  IGameRegistry(gameRegistry).getRoundEntrants(settledRound) */\n      0x00\n      mload(0x40)\n      dup1\n      dup4\n      sub\n      dup2\n      dup7\n      gas\n      staticcall\n      iszero\n      dup1\n      iszero\n      tag_643\n      jumpi\n      returndatasize\n      0x00\n      dup1\n      returndatacopy\n      revert(0x00, returndatasize)\n    tag_643:\n      pop\n      pop\n      pop\n      pop\n      mload(0x40)\n      returndatasize\n      0x00\n      dup3\n      returndatacopy\n      0x1f\n      returndatasize\n      swap1\n      dup2\n      add\n      not(0x1f)\n      and\n      dup3\n      add\n      0x40\n      mstore\n      tag_644\n      swap2\n      swap1\n      dup2\n      add\n      swap1\n      tag_542\n      jump\t// in\n    tag_644:\n        /* \"/contracts/TimbPrize.sol\":21004:21102  address[] memory entrants =... */\n      swap1\n      pop\n        /* \"/contracts/TimbPrize.sol\":21118:21127  uint256 i */\n      0x00\n        /* \"/contracts/TimbPrize.sol\":21113:21820  for (uint256 i = 0; i < entrants.length; i++) {... */\n    tag_645:\n        /* \"/contracts/TimbPrize.sol\":21137:21145  entrants */\n      dup2\n        /* \"/contracts/TimbPrize.sol\":21137:21152  entrants.length */\n      mload\n        /* \"/contracts/TimbPrize.sol\":21133:21134  i */\n      dup2\n        /* \"/contracts/TimbPrize.sol\":21133:21152  i < entrants.length */\n      lt\n        /* \"/contracts/TimbPrize.sol\":21113:21820  for (uint256 i = 0; i < entrants.length; i++) {... */\n      iszero\n      tag_646\n      jumpi\n        /* \"/contracts/TimbPrize.sol\":21338:21350  gameRegistry */\n      sload(0x02)\n        /* \"/contracts/TimbPrize.sol\":21361:21372  entrants[i] */\n      dup3\n      mload\n        /* \"/contracts/TimbPrize.sol\":21227:21252  uint256 lastEligibleRound */\n      0x00\n      swap2\n      sub(shl(0xa0, 0x01), 0x01)\n        /* \"/contracts/TimbPrize.sol\":21338:21350  gameRegistry */\n      and\n      swap1\n        /* \"/contracts/TimbPrize.sol\":21324:21360  IGameRegistry(gameRegistry).getEntry */\n      0xb8a740e0\n      swap1\n        /* \"/contracts/TimbPrize.sol\":21361:21369  entrants */\n      dup6\n      swap1\n        /* \"/contracts/TimbPrize.sol\":21370:21371  i */\n      dup6\n      swap1\n        /* \"/contracts/TimbPrize.sol\":21361:21372  entrants[i] */\n      dup2\n      lt\n      tag_649\n      jumpi\n      tag_649\n      tag_348\n      jump\t// in\n    tag_649:\n      0x20\n      mul\n      0x20\n      add\n      add\n      mload\n        /* \"/contracts/TimbPrize.sol\":21374:21386  settledRound */\n      dup7\n        /* \"/contracts/TimbPrize.sol\":21324:21387  IGameRegistry(gameRegistry).getEntry(entrants[i], settledRound) */\n      mload(0x40)\n      dup4\n      0xffffffff\n      and\n      0xe0\n      shl\n      dup2\n      mstore\n      0x04\n      add\n      tag_650\n      swap3\n      swap2\n      swap1\n      sub(shl(0xa0, 0x01), 0x01)\n        /* \"#utility.yul\":6133:6165   */\n      swap3\n      swap1\n      swap3\n      and\n        /* \"#utility.yul\":6115:6166   */\n      dup3\n      mstore\n        /* \"#utility.yul\":6197:6199   */\n      0x20\n        /* \"#utility.yul\":6182:6200   */\n      dup3\n      add\n        /* \"#utility.yul\":6175:6209   */\n      mstore\n        /* \"#utility.yul\":6103:6105   */\n      0x40\n        /* \"#utility.yul\":6088:6106   */\n      add\n      swap1\n        /* \"#utility.yul\":5941:6215   */\n      jump\n        /* \"/contracts/TimbPrize.sol\":21324:21387  IGameRegistry(gameRegistry).getEntry(entrants[i], settledRound) */\n    tag_650:\n      0xe0\n      mload(0x40)\n      dup1\n      dup4\n      sub\n      dup2\n      dup7\n      gas\n      staticcall\n      iszero\n      dup1\n      iszero\n      tag_652\n      jumpi\n      returndatasize\n      0x00\n      dup1\n      returndatacopy\n      revert(0x00, returndatasize)\n    tag_652:\n      pop\n      pop\n      pop\n      pop\n      mload(0x40)\n      returndatasize\n      not(0x1f)\n      0x1f\n      dup3\n      add\n      and\n      dup3\n      add\n      dup1\n      0x40\n      mstore\n      pop\n      dup2\n      add\n      swap1\n      tag_653\n      swap2\n      swap1\n      tag_654\n      jump\t// in\n    tag_653:\n        /* \"/contracts/TimbPrize.sol\":21173:21387  (... */\n      pop\n      pop\n      pop\n      pop\n      swap3\n      pop\n      pop\n      pop\n        /* \"/contracts/TimbPrize.sol\":21426:21438  currentRound */\n      sload(0x08)\n        /* \"/contracts/TimbPrize.sol\":21406:21423  lastEligibleRound */\n      dup2\n        /* \"/contracts/TimbPrize.sol\":21406:21438  lastEligibleRound < currentRound */\n      lt\n        /* \"/contracts/TimbPrize.sol\":21402:21810  if (lastEligibleRound < currentRound) {... */\n      iszero\n      tag_664\n      jumpi\n        /* \"/contracts/TimbPrize.sol\":21534:21573  lastEligibleRound + CLAIM_WINDOW_ROUNDS */\n      tag_656\n        /* \"/contracts/TimbPrize.sol\":4600:4601  2 */\n      0x02\n        /* \"/contracts/TimbPrize.sol\":21534:21551  lastEligibleRound */\n      dup3\n        /* \"/contracts/TimbPrize.sol\":21534:21573  lastEligibleRound + CLAIM_WINDOW_ROUNDS */\n      tag_343\n      jump\t// in\n    tag_656:\n        /* \"/contracts/TimbPrize.sol\":21519:21531  currentRound */\n      sload(0x08)\n        /* \"/contracts/TimbPrize.sol\":21519:21573  currentRound > lastEligibleRound + CLAIM_WINDOW_ROUNDS */\n      gt\n        /* \"/contracts/TimbPrize.sol\":21515:21796  if (currentRound > lastEligibleRound + CLAIM_WINDOW_ROUNDS) {... */\n      iszero\n      tag_657\n      jumpi\n        /* \"/contracts/TimbPrize.sol\":21611:21623  gameRegistry */\n      sload(0x02)\n        /* \"/contracts/TimbPrize.sol\":21638:21649  entrants[i] */\n      dup4\n      mload\n      sub(shl(0xa0, 0x01), 0x01)\n        /* \"/contracts/TimbPrize.sol\":21611:21623  gameRegistry */\n      swap1\n      swap2\n      and\n      swap1\n        /* \"/contracts/TimbPrize.sol\":21597:21637  IGameRegistry(gameRegistry).markInactive */\n      0x7a03ce4f\n      swap1\n        /* \"/contracts/TimbPrize.sol\":21638:21646  entrants */\n      dup6\n      swap1\n        /* \"/contracts/TimbPrize.sol\":21647:21648  i */\n      dup6\n      swap1\n        /* \"/contracts/TimbPrize.sol\":21638:21649  entrants[i] */\n      dup2\n      lt\n      tag_659\n      jumpi\n      tag_659\n      tag_348\n      jump\t// in\n    tag_659:\n      0x20\n      mul\n      0x20\n      add\n      add\n      mload\n        /* \"/contracts/TimbPrize.sol\":21651:21663  settledRound */\n      dup7\n        /* \"/contracts/TimbPrize.sol\":21597:21664  IGameRegistry(gameRegistry).markInactive(entrants[i], settledRound) */\n      mload(0x40)\n      dup4\n      0xffffffff\n      and\n      0xe0\n      shl\n      dup2\n      mstore\n      0x04\n      add\n      tag_660\n      swap3\n      swap2\n      swap1\n      sub(shl(0xa0, 0x01), 0x01)\n        /* \"#utility.yul\":6133:6165   */\n      swap3\n      swap1\n      swap3\n      and\n        /* \"#utility.yul\":6115:6166   */\n      dup3\n      mstore\n        /* \"#utility.yul\":6197:6199   */\n      0x20\n        /* \"#utility.yul\":6182:6200   */\n      dup3\n      add\n        /* \"#utility.yul\":6175:6209   */\n      mstore\n        /* \"#utility.yul\":6103:6105   */\n      0x40\n        /* \"#utility.yul\":6088:6106   */\n      add\n      swap1\n        /* \"#utility.yul\":5941:6215   */\n      jump\n        /* \"/contracts/TimbPrize.sol\":21597:21664  IGameRegistry(gameRegistry).markInactive(entrants[i], settledRound) */\n    tag_660:\n      0x00\n      mload(0x40)\n      dup1\n      dup4\n      sub\n      dup2\n      0x00\n      dup8\n      dup1\n      extcodesize\n      iszero\n      dup1\n      iszero\n      tag_661\n      jumpi\n      0x00\n      dup1\n      revert\n    tag_661:\n      pop\n      gas\n      call\n      iszero\n      dup1\n      iszero\n      tag_663\n      jumpi\n      returndatasize\n      0x00\n      dup1\n      returndatacopy\n      revert(0x00, returndatasize)\n    tag_663:\n      pop\n      pop\n      pop\n      pop\n        /* \"/contracts/TimbPrize.sol\":21515:21796  if (currentRound > lastEligibleRound + CLAIM_WINDOW_ROUNDS) {... */\n      jump(tag_664)\n    tag_657:\n        /* \"/contracts/TimbPrize.sol\":21725:21737  gameRegistry */\n      sload(0x02)\n        /* \"/contracts/TimbPrize.sol\":21751:21762  entrants[i] */\n      dup4\n      mload\n      sub(shl(0xa0, 0x01), 0x01)\n        /* \"/contracts/TimbPrize.sol\":21725:21737  gameRegistry */\n      swap1\n      swap2\n      and\n      swap1\n        /* \"/contracts/TimbPrize.sol\":21711:21750  IGameRegistry(gameRegistry).expireEntry */\n      0x47f43ef2\n      swap1\n        /* \"/contracts/TimbPrize.sol\":21751:21759  entrants */\n      dup6\n      swap1\n        /* \"/contracts/TimbPrize.sol\":21760:21761  i */\n      dup6\n      swap1\n        /* \"/contracts/TimbPrize.sol\":21751:21762  entrants[i] */\n      dup2\n      lt\n      tag_666\n      jumpi\n      tag_666\n      tag_348\n      jump\t// in\n    tag_666:\n      0x20\n      mul\n      0x20\n      add\n      add\n      mload\n        /* \"/contracts/TimbPrize.sol\":21764:21776  settledRound */\n      dup7\n        /* \"/contracts/TimbPrize.sol\":21711:21777  IGameRegistry(gameRegistry).expireEntry(entrants[i], settledRound) */\n      mload(0x40)\n      dup4\n      0xffffffff\n      and\n      0xe0\n      shl\n      dup2\n      mstore\n      0x04\n      add\n      tag_667\n      swap3\n      swap2\n      swap1\n      sub(shl(0xa0, 0x01), 0x01)\n        /* \"#utility.yul\":6133:6165   */\n      swap3\n      swap1\n      swap3\n      and\n        /* \"#utility.yul\":6115:6166   */\n      dup3\n      mstore\n        /* \"#utility.yul\":6197:6199   */\n      0x20\n        /* \"#utility.yul\":6182:6200   */\n      dup3\n      add\n        /* \"#utility.yul\":6175:6209   */\n      mstore\n        /* \"#utility.yul\":6103:6105   */\n      0x40\n        /* \"#utility.yul\":6088:6106   */\n      add\n      swap1\n        /* \"#utility.yul\":5941:6215   */\n      jump\n        /* \"/contracts/TimbPrize.sol\":21711:21777  IGameRegistry(gameRegistry).expireEntry(entrants[i], settledRound) */\n    tag_667:\n      0x00\n      mload(0x40)\n      dup1\n      dup4\n      sub\n      dup2\n      0x00\n      dup8\n      dup1\n      extcodesize\n      iszero\n      dup1\n      iszero\n      tag_668\n      jumpi\n      0x00\n      dup1\n      revert\n    tag_668:\n      pop\n      gas\n      call\n      iszero\n      dup1\n      iszero\n      tag_670\n      jumpi\n      returndatasize\n      0x00\n      dup1\n      returndatacopy\n      revert(0x00, returndatasize)\n    tag_670:\n      pop\n      pop\n      pop\n      pop\n        /* \"/contracts/TimbPrize.sol\":21515:21796  if (currentRound > lastEligibleRound + CLAIM_WINDOW_ROUNDS) {... */\n    tag_664:\n      pop\n        /* \"/contracts/TimbPrize.sol\":21154:21157  i++ */\n      0x01\n      add\n        /* \"/contracts/TimbPrize.sol\":21113:21820  for (uint256 i = 0; i < entrants.length; i++) {... */\n      jump(tag_645)\n    tag_646:\n      pop\n        /* \"/contracts/TimbPrize.sol\":20994:21826  {... */\n      pop\n        /* \"/contracts/TimbPrize.sol\":20931:21826  function _processExpiredEntries(uint256 settledRound) internal {... */\n      pop\n      jump\t// out\n        /* \"#utility.yul\":14:194   */\n    tag_76:\n        /* \"#utility.yul\":73:79   */\n      0x00\n        /* \"#utility.yul\":126:128   */\n      0x20\n        /* \"#utility.yul\":114:123   */\n      dup3\n        /* \"#utility.yul\":105:112   */\n      dup5\n        /* \"#utility.yul\":101:124   */\n      sub\n        /* \"#utility.yul\":97:129   */\n      slt\n        /* \"#utility.yul\":94:146   */\n      iszero\n      tag_683\n      jumpi\n        /* \"#utility.yul\":142:143   */\n      0x00\n        /* \"#utility.yul\":139:140   */\n      dup1\n        /* \"#utility.yul\":132:144   */\n      revert\n        /* \"#utility.yul\":94:146   */\n    tag_683:\n      pop\n        /* \"#utility.yul\":165:188   */\n      calldataload\n      swap2\n        /* \"#utility.yul\":14:194   */\n      swap1\n      pop\n      jump\t// out\n        /* \"#utility.yul\":199:664   */\n    tag_674:\n        /* \"#utility.yul\":252:255   */\n      0x00\n        /* \"#utility.yul\":290:295   */\n      dup2\n        /* \"#utility.yul\":284:296   */\n      mload\n        /* \"#utility.yul\":317:323   */\n      dup1\n        /* \"#utility.yul\":312:315   */\n      dup5\n        /* \"#utility.yul\":305:324   */\n      mstore\n        /* \"#utility.yul\":343:347   */\n      0x20\n        /* \"#utility.yul\":372:376   */\n      dup1\n        /* \"#utility.yul\":367:370   */\n      dup6\n        /* \"#utility.yul\":363:377   */\n      add\n        /* \"#utility.yul\":356:377   */\n      swap5\n      pop\n        /* \"#utility.yul\":411:415   */\n      0x20\n        /* \"#utility.yul\":404:409   */\n      dup5\n        /* \"#utility.yul\":400:416   */\n      add\n        /* \"#utility.yul\":434:435   */\n      0x00\n        /* \"#utility.yul\":444:639   */\n    tag_685:\n        /* \"#utility.yul\":458:464   */\n      dup4\n        /* \"#utility.yul\":455:456   */\n      dup2\n        /* \"#utility.yul\":452:465   */\n      lt\n        /* \"#utility.yul\":444:639   */\n      iszero\n      tag_687\n      jumpi\n        /* \"#utility.yul\":523:536   */\n      dup2\n      mload\n      sub(shl(0xa0, 0x01), 0x01)\n        /* \"#utility.yul\":519:558   */\n      and\n        /* \"#utility.yul\":507:559   */\n      dup8\n      mstore\n        /* \"#utility.yul\":579:591   */\n      swap6\n      dup3\n      add\n      swap6\n        /* \"#utility.yul\":614:629   */\n      swap1\n      dup3\n      add\n      swap1\n        /* \"#utility.yul\":555:556   */\n      0x01\n        /* \"#utility.yul\":473:482   */\n      add\n        /* \"#utility.yul\":444:639   */\n      jump(tag_685)\n    tag_687:\n      pop\n        /* \"#utility.yul\":655:658   */\n      swap5\n      swap6\n        /* \"#utility.yul\":199:664   */\n      swap5\n      pop\n      pop\n      pop\n      pop\n      pop\n      jump\t// out\n        /* \"#utility.yul\":669:1246   */\n    tag_79:\n        /* \"#utility.yul\":979:993   */\n      0xffffffffffff\n        /* \"#utility.yul\":974:977   */\n      0xd0\n        /* \"#utility.yul\":970:994   */\n      shl\n        /* \"#utility.yul\":962:968   */\n      dup7\n        /* \"#utility.yul\":958:995   */\n      and\n        /* \"#utility.yul\":947:956   */\n      dup2\n        /* \"#utility.yul\":940:996   */\n      mstore\n        /* \"#utility.yul\":1032:1038   */\n      dup5\n        /* \"#utility.yul\":1027:1029   */\n      0x20\n        /* \"#utility.yul\":1016:1025   */\n      dup3\n        /* \"#utility.yul\":1012:1030   */\n      add\n        /* \"#utility.yul\":1005:1039   */\n      mstore\n        /* \"#utility.yul\":1075:1078   */\n      0xa0\n        /* \"#utility.yul\":1070:1072   */\n      0x40\n        /* \"#utility.yul\":1059:1068   */\n      dup3\n        /* \"#utility.yul\":1055:1073   */\n      add\n        /* \"#utility.yul\":1048:1079   */\n      mstore\n        /* \"#utility.yul\":921:925   */\n      0x00\n        /* \"#utility.yul\":1096:1153   */\n      tag_689\n        /* \"#utility.yul\":1148:1151   */\n      0xa0\n        /* \"#utility.yul\":1137:1146   */\n      dup4\n        /* \"#utility.yul\":1133:1152   */\n      add\n        /* \"#utility.yul\":1125:1131   */\n      dup7\n        /* \"#utility.yul\":1096:1153   */\n      tag_674\n      jump\t// in\n    tag_689:\n        /* \"#utility.yul\":1184:1186   */\n      0x60\n        /* \"#utility.yul\":1169:1187   */\n      dup4\n      add\n        /* \"#utility.yul\":1162:1196   */\n      swap5\n      swap1\n      swap5\n      mstore\n      pop\n        /* \"#utility.yul\":1227:1230   */\n      0x80\n        /* \"#utility.yul\":1212:1231   */\n      add\n        /* \"#utility.yul\":1205:1240   */\n      mstore\n        /* \"#utility.yul\":1088:1153   */\n      swap4\n        /* \"#utility.yul\":669:1246   */\n      swap3\n      pop\n      pop\n      pop\n      jump\t// out\n        /* \"#utility.yul\":1251:1499   */\n    tag_83:\n        /* \"#utility.yul\":1319:1325   */\n      0x00\n        /* \"#utility.yul\":1327:1333   */\n      dup1\n        /* \"#utility.yul\":1380:1382   */\n      0x40\n        /* \"#utility.yul\":1368:1377   */\n      dup4\n        /* \"#utility.yul\":1359:1366   */\n      dup6\n        /* \"#utility.yul\":1355:1378   */\n      sub\n        /* \"#utility.yul\":1351:1383   */\n      slt\n        /* \"#utility.yul\":1348:1400   */\n      iszero\n      tag_691\n      jumpi\n        /* \"#utility.yul\":1396:1397   */\n      0x00\n        /* \"#utility.yul\":1393:1394   */\n      dup1\n        /* \"#utility.yul\":1386:1398   */\n      revert\n        /* \"#utility.yul\":1348:1400   */\n    tag_691:\n      pop\n      pop\n        /* \"#utility.yul\":1419:1442   */\n      dup1\n      calldataload\n      swap3\n        /* \"#utility.yul\":1489:1491   */\n      0x20\n        /* \"#utility.yul\":1474:1492   */\n      swap1\n      swap2\n      add\n        /* \"#utility.yul\":1461:1493   */\n      calldataload\n      swap2\n      pop\n        /* \"#utility.yul\":1251:1499   */\n      jump\t// out\n        /* \"#utility.yul\":1712:1843   */\n    tag_675:\n      sub(shl(0xa0, 0x01), 0x01)\n        /* \"#utility.yul\":1787:1818   */\n      dup2\n      and\n        /* \"#utility.yul\":1777:1819   */\n      dup2\n      eq\n        /* \"#utility.yul\":1767:1837   */\n      tag_431\n      jumpi\n        /* \"#utility.yul\":1833:1834   */\n      0x00\n        /* \"#utility.yul\":1830:1831   */\n      dup1\n        /* \"#utility.yul\":1823:1835   */\n      revert\n        /* \"#utility.yul\":1848:2095   */\n    tag_90:\n        /* \"#utility.yul\":1907:1913   */\n      0x00\n        /* \"#utility.yul\":1960:1962   */\n      0x20\n        /* \"#utility.yul\":1948:1957   */\n      dup3\n        /* \"#utility.yul\":1939:1946   */\n      dup5\n        /* \"#utility.yul\":1935:1958   */\n      sub\n        /* \"#utility.yul\":1931:1963   */\n      slt\n        /* \"#utility.yul\":1928:1980   */\n      iszero\n      tag_696\n      jumpi\n        /* \"#utility.yul\":1976:1977   */\n      0x00\n        /* \"#utility.yul\":1973:1974   */\n      dup1\n        /* \"#utility.yul\":1966:1978   */\n      revert\n        /* \"#utility.yul\":1928:1980   */\n    tag_696:\n        /* \"#utility.yul\":2015:2024   */\n      dup2\n        /* \"#utility.yul\":2002:2025   */\n      calldataload\n        /* \"#utility.yul\":2034:2065   */\n      tag_454\n        /* \"#utility.yul\":2059:2064   */\n      dup2\n        /* \"#utility.yul\":2034:2065   */\n      tag_675\n      jump\t// in\n        /* \"#utility.yul\":3408:3723   */\n    tag_194:\n        /* \"#utility.yul\":3476:3482   */\n      0x00\n        /* \"#utility.yul\":3484:3490   */\n      dup1\n        /* \"#utility.yul\":3537:3539   */\n      0x40\n        /* \"#utility.yul\":3525:3534   */\n      dup4\n        /* \"#utility.yul\":3516:3523   */\n      dup6\n        /* \"#utility.yul\":3512:3535   */\n      sub\n        /* \"#utility.yul\":3508:3540   */\n      slt\n        /* \"#utility.yul\":3505:3557   */\n      iszero\n      tag_703\n      jumpi\n        /* \"#utility.yul\":3553:3554   */\n      0x00\n        /* \"#utility.yul\":3550:3551   */\n      dup1\n        /* \"#utility.yul\":3543:3555   */\n      revert\n        /* \"#utility.yul\":3505:3557   */\n    tag_703:\n        /* \"#utility.yul\":3589:3598   */\n      dup3\n        /* \"#utility.yul\":3576:3599   */\n      calldataload\n        /* \"#utility.yul\":3566:3599   */\n      swap2\n      pop\n        /* \"#utility.yul\":3649:3651   */\n      0x20\n        /* \"#utility.yul\":3638:3647   */\n      dup4\n        /* \"#utility.yul\":3634:3652   */\n      add\n        /* \"#utility.yul\":3621:3653   */\n      calldataload\n        /* \"#utility.yul\":3662:3693   */\n      tag_704\n        /* \"#utility.yul\":3687:3692   */\n      dup2\n        /* \"#utility.yul\":3662:3693   */\n      tag_675\n      jump\t// in\n    tag_704:\n        /* \"#utility.yul\":3712:3717   */\n      dup1\n        /* \"#utility.yul\":3702:3717   */\n      swap2\n      pop\n      pop\n        /* \"#utility.yul\":3408:3723   */\n      swap3\n      pop\n      swap3\n      swap1\n      pop\n      jump\t// out\n        /* \"#utility.yul\":3728:3846   */\n    tag_676:\n        /* \"#utility.yul\":3814:3819   */\n      dup1\n        /* \"#utility.yul\":3807:3820   */\n      iszero\n        /* \"#utility.yul\":3800:3821   */\n      iszero\n        /* \"#utility.yul\":3793:3798   */\n      dup2\n        /* \"#utility.yul\":3790:3822   */\n      eq\n        /* \"#utility.yul\":3780:3840   */\n      tag_431\n      jumpi\n        /* \"#utility.yul\":3836:3837   */\n      0x00\n        /* \"#utility.yul\":3833:3834   */\n      dup1\n        /* \"#utility.yul\":3826:3838   */\n      revert\n        /* \"#utility.yul\":3851:4092   */\n    tag_285:\n        /* \"#utility.yul\":3907:3913   */\n      0x00\n        /* \"#utility.yul\":3960:3962   */\n      0x20\n        /* \"#utility.yul\":3948:3957   */\n      dup3\n        /* \"#utility.yul\":3939:3946   */\n      dup5\n        /* \"#utility.yul\":3935:3958   */\n      sub\n        /* \"#utility.yul\":3931:3963   */\n      slt\n        /* \"#utility.yul\":3928:3980   */\n      iszero\n      tag_708\n      jumpi\n        /* \"#utility.yul\":3976:3977   */\n      0x00\n        /* \"#utility.yul\":3973:3974   */\n      dup1\n        /* \"#utility.yul\":3966:3978   */\n      revert\n        /* \"#utility.yul\":3928:3980   */\n    tag_708:\n        /* \"#utility.yul\":4015:4024   */\n      dup2\n        /* \"#utility.yul\":4002:4025   */\n      calldataload\n        /* \"#utility.yul\":4034:4062   */\n      tag_454\n        /* \"#utility.yul\":4056:4061   */\n      dup2\n        /* \"#utility.yul\":4034:4062   */\n      tag_676\n      jump\t// in\n        /* \"#utility.yul\":4097:4224   */\n    tag_677:\n        /* \"#utility.yul\":4158:4168   */\n      0x4e487b71\n        /* \"#utility.yul\":4153:4156   */\n      0xe0\n        /* \"#utility.yul\":4149:4169   */\n      shl\n        /* \"#utility.yul\":4146:4147   */\n      0x00\n        /* \"#utility.yul\":4139:4170   */\n      mstore\n        /* \"#utility.yul\":4189:4193   */\n      0x11\n        /* \"#utility.yul\":4186:4187   */\n      0x04\n        /* \"#utility.yul\":4179:4194   */\n      mstore\n        /* \"#utility.yul\":4213:4217   */\n      0x24\n        /* \"#utility.yul\":4210:4211   */\n      0x00\n        /* \"#utility.yul\":4203:4218   */\n      revert\n        /* \"#utility.yul\":4229:4364   */\n    tag_329:\n        /* \"#utility.yul\":4268:4271   */\n      0x00\n        /* \"#utility.yul\":4289:4306   */\n      0x01\n      dup3\n      add\n        /* \"#utility.yul\":4286:4329   */\n      tag_713\n      jumpi\n        /* \"#utility.yul\":4309:4327   */\n      tag_713\n      tag_677\n      jump\t// in\n    tag_713:\n      pop\n        /* \"#utility.yul\":4356:4357   */\n      0x01\n        /* \"#utility.yul\":4345:4358   */\n      add\n      swap1\n        /* \"#utility.yul\":4229:4364   */\n      jump\t// out\n        /* \"#utility.yul\":4622:4749   */\n    tag_337:\n        /* \"#utility.yul\":4683:4693   */\n      0x4e487b71\n        /* \"#utility.yul\":4678:4681   */\n      0xe0\n        /* \"#utility.yul\":4674:4694   */\n      shl\n        /* \"#utility.yul\":4671:4672   */\n      0x00\n        /* \"#utility.yul\":4664:4695   */\n      mstore\n        /* \"#utility.yul\":4714:4718   */\n      0x41\n        /* \"#utility.yul\":4711:4712   */\n      0x04\n        /* \"#utility.yul\":4704:4719   */\n      mstore\n        /* \"#utility.yul\":4738:4742   */\n      0x24\n        /* \"#utility.yul\":4735:4736   */\n      0x00\n        /* \"#utility.yul\":4728:4743   */\n      revert\n        /* \"#utility.yul\":4754:4879   */\n    tag_343:\n        /* \"#utility.yul\":4819:4828   */\n      dup1\n      dup3\n      add\n        /* \"#utility.yul\":4840:4850   */\n      dup1\n      dup3\n      gt\n        /* \"#utility.yul\":4837:4873   */\n      iszero\n      tag_718\n      jumpi\n        /* \"#utility.yul\":4853:4871   */\n      tag_718\n      tag_677\n      jump\t// in\n    tag_718:\n        /* \"#utility.yul\":4754:4879   */\n      swap3\n      swap2\n      pop\n      pop\n      jump\t// out\n        /* \"#utility.yul\":4884:5011   */\n    tag_678:\n        /* \"#utility.yul\":4945:4955   */\n      0x4e487b71\n        /* \"#utility.yul\":4940:4943   */\n      0xe0\n        /* \"#utility.yul\":4936:4956   */\n      shl\n        /* \"#utility.yul\":4933:4934   */\n      0x00\n        /* \"#utility.yul\":4926:4957   */\n      mstore\n        /* \"#utility.yul\":4976:4980   */\n      0x12\n        /* \"#utility.yul\":4973:4974   */\n      0x04\n        /* \"#utility.yul\":4966:4981   */\n      mstore\n        /* \"#utility.yul\":5000:5004   */\n      0x24\n        /* \"#utility.yul\":4997:4998   */\n      0x00\n        /* \"#utility.yul\":4990:5005   */\n      revert\n        /* \"#utility.yul\":5016:5128   */\n    tag_345:\n        /* \"#utility.yul\":5048:5049   */\n      0x00\n        /* \"#utility.yul\":5074:5075   */\n      dup3\n        /* \"#utility.yul\":5064:5099   */\n      tag_722\n      jumpi\n        /* \"#utility.yul\":5079:5097   */\n      tag_722\n      tag_678\n      jump\t// in\n    tag_722:\n      pop\n        /* \"#utility.yul\":5113:5122   */\n      mod\n      swap1\n        /* \"#utility.yul\":5016:5128   */\n      jump\t// out\n        /* \"#utility.yul\":5133:5260   */\n    tag_348:\n        /* \"#utility.yul\":5194:5204   */\n      0x4e487b71\n        /* \"#utility.yul\":5189:5192   */\n      0xe0\n        /* \"#utility.yul\":5185:5205   */\n      shl\n        /* \"#utility.yul\":5182:5183   */\n      0x00\n        /* \"#utility.yul\":5175:5206   */\n      mstore\n        /* \"#utility.yul\":5225:5229   */\n      0x32\n        /* \"#utility.yul\":5222:5223   */\n      0x04\n        /* \"#utility.yul\":5215:5230   */\n      mstore\n        /* \"#utility.yul\":5249:5253   */\n      0x24\n        /* \"#utility.yul\":5246:5247   */\n      0x00\n        /* \"#utility.yul\":5239:5254   */\n      revert\n        /* \"#utility.yul\":5265:5630   */\n    tag_352:\n        /* \"#utility.yul\":5382:5394   */\n      dup1\n      mload\n        /* \"#utility.yul\":5430:5434   */\n      0x20\n        /* \"#utility.yul\":5419:5435   */\n      dup3\n      add\n        /* \"#utility.yul\":5413:5436   */\n      mload\n      not(sub(shl(0xd0, 0x01), 0x01))\n        /* \"#utility.yul\":5497:5508   */\n      dup1\n      dup3\n      and\n      swap3\n        /* \"#utility.yul\":5382:5394   */\n      swap2\n        /* \"#utility.yul\":5413:5436   */\n      swap1\n        /* \"#utility.yul\":5531:5532   */\n      0x06\n        /* \"#utility.yul\":5520:5533   */\n      dup4\n      lt\n        /* \"#utility.yul\":5517:5624   */\n      iszero\n      tag_725\n      jumpi\n        /* \"#utility.yul\":5611:5613   */\n      dup1\n        /* \"#utility.yul\":5605:5607   */\n      dup2\n        /* \"#utility.yul\":5595:5601   */\n      dup5\n        /* \"#utility.yul\":5592:5593   */\n      0x06\n        /* \"#utility.yul\":5588:5602   */\n      sub\n        /* \"#utility.yul\":5585:5586   */\n      0x03\n        /* \"#utility.yul\":5581:5603   */\n      shl\n        /* \"#utility.yul\":5577:5608   */\n      shl\n        /* \"#utility.yul\":5573:5575   */\n      dup4\n        /* \"#utility.yul\":5569:5609   */\n      and\n        /* \"#utility.yul\":5565:5614   */\n      and\n        /* \"#utility.yul\":5556:5614   */\n      swap4\n      pop\n        /* \"#utility.yul\":5517:5624   */\n    tag_725:\n      pop\n      pop\n      pop\n        /* \"#utility.yul\":5265:5630   */\n      swap2\n      swap1\n      pop\n      jump\t// out\n        /* \"#utility.yul\":5635:5763   */\n    tag_383:\n        /* \"#utility.yul\":5702:5711   */\n      dup2\n      dup2\n      sub\n        /* \"#utility.yul\":5723:5734   */\n      dup2\n      dup2\n      gt\n        /* \"#utility.yul\":5720:5757   */\n      iszero\n      tag_718\n      jumpi\n        /* \"#utility.yul\":5737:5755   */\n      tag_718\n      tag_677\n      jump\t// in\n        /* \"#utility.yul\":5768:5936   */\n    tag_399:\n        /* \"#utility.yul\":5841:5850   */\n      dup1\n      dup3\n      mul\n        /* \"#utility.yul\":5872:5881   */\n      dup2\n      iszero\n        /* \"#utility.yul\":5889:5904   */\n      dup3\n      dup3\n      div\n        /* \"#utility.yul\":5883:5905   */\n      dup5\n      eq\n        /* \"#utility.yul\":5869:5906   */\n      or\n        /* \"#utility.yul\":5859:5930   */\n      tag_718\n      jumpi\n        /* \"#utility.yul\":5910:5928   */\n      tag_718\n      tag_677\n      jump\t// in\n        /* \"#utility.yul\":6220:6358   */\n    tag_679:\n        /* \"#utility.yul\":6299:6312   */\n      dup1\n      mload\n        /* \"#utility.yul\":6321:6352   */\n      tag_734\n        /* \"#utility.yul\":6299:6312   */\n      dup2\n        /* \"#utility.yul\":6321:6352   */\n      tag_675\n      jump\t// in\n    tag_734:\n        /* \"#utility.yul\":6220:6358   */\n      swap2\n      swap1\n      pop\n      jump\t// out\n        /* \"#utility.yul\":6363:7492   */\n    tag_542:\n        /* \"#utility.yul\":6458:6464   */\n      0x00\n        /* \"#utility.yul\":6489:6491   */\n      0x20\n        /* \"#utility.yul\":6532:6534   */\n      dup1\n        /* \"#utility.yul\":6520:6529   */\n      dup4\n        /* \"#utility.yul\":6511:6518   */\n      dup6\n        /* \"#utility.yul\":6507:6530   */\n      sub\n        /* \"#utility.yul\":6503:6535   */\n      slt\n        /* \"#utility.yul\":6500:6552   */\n      iszero\n      tag_736\n      jumpi\n        /* \"#utility.yul\":6548:6549   */\n      0x00\n        /* \"#utility.yul\":6545:6546   */\n      dup1\n        /* \"#utility.yul\":6538:6550   */\n      revert\n        /* \"#utility.yul\":6500:6552   */\n    tag_736:\n        /* \"#utility.yul\":6581:6590   */\n      dup3\n        /* \"#utility.yul\":6575:6591   */\n      mload\n        /* \"#utility.yul\":6610:6628   */\n      0xffffffffffffffff\n        /* \"#utility.yul\":6651:6653   */\n      dup1\n        /* \"#utility.yul\":6643:6649   */\n      dup3\n        /* \"#utility.yul\":6640:6654   */\n      gt\n        /* \"#utility.yul\":6637:6671   */\n      iszero\n      tag_737\n      jumpi\n        /* \"#utility.yul\":6667:6668   */\n      0x00\n        /* \"#utility.yul\":6664:6665   */\n      dup1\n        /* \"#utility.yul\":6657:6669   */\n      revert\n        /* \"#utility.yul\":6637:6671   */\n    tag_737:\n        /* \"#utility.yul\":6705:6711   */\n      dup2\n        /* \"#utility.yul\":6694:6703   */\n      dup6\n        /* \"#utility.yul\":6690:6712   */\n      add\n        /* \"#utility.yul\":6680:6712   */\n      swap2\n      pop\n        /* \"#utility.yul\":6750:6757   */\n      dup6\n        /* \"#utility.yul\":6743:6747   */\n      0x1f\n        /* \"#utility.yul\":6739:6741   */\n      dup4\n        /* \"#utility.yul\":6735:6748   */\n      add\n        /* \"#utility.yul\":6731:6758   */\n      slt\n        /* \"#utility.yul\":6721:6776   */\n      tag_738\n      jumpi\n        /* \"#utility.yul\":6772:6773   */\n      0x00\n        /* \"#utility.yul\":6769:6770   */\n      dup1\n        /* \"#utility.yul\":6762:6774   */\n      revert\n        /* \"#utility.yul\":6721:6776   */\n    tag_738:\n        /* \"#utility.yul\":6801:6803   */\n      dup2\n        /* \"#utility.yul\":6795:6804   */\n      mload\n        /* \"#utility.yul\":6823:6825   */\n      dup2\n        /* \"#utility.yul\":6819:6821   */\n      dup2\n        /* \"#utility.yul\":6816:6826   */\n      gt\n        /* \"#utility.yul\":6813:6849   */\n      iszero\n      tag_740\n      jumpi\n        /* \"#utility.yul\":6829:6847   */\n      tag_740\n      tag_337\n      jump\t// in\n    tag_740:\n        /* \"#utility.yul\":6875:6877   */\n      dup1\n        /* \"#utility.yul\":6872:6873   */\n      0x05\n        /* \"#utility.yul\":6868:6878   */\n      shl\n        /* \"#utility.yul\":6907:6909   */\n      0x40\n        /* \"#utility.yul\":6901:6910   */\n      mload\n        /* \"#utility.yul\":6970:6972   */\n      0x1f\n        /* \"#utility.yul\":6966:6973   */\n      not\n        /* \"#utility.yul\":6961:6963   */\n      0x3f\n        /* \"#utility.yul\":6957:6959   */\n      dup4\n        /* \"#utility.yul\":6953:6964   */\n      add\n        /* \"#utility.yul\":6949:6974   */\n      and\n        /* \"#utility.yul\":6941:6947   */\n      dup2\n        /* \"#utility.yul\":6937:6975   */\n      add\n        /* \"#utility.yul\":7025:7031   */\n      dup2\n        /* \"#utility.yul\":7013:7023   */\n      dup2\n        /* \"#utility.yul\":7010:7032   */\n      lt\n        /* \"#utility.yul\":7005:7007   */\n      dup6\n        /* \"#utility.yul\":6993:7003   */\n      dup3\n        /* \"#utility.yul\":6990:7008   */\n      gt\n        /* \"#utility.yul\":6987:7033   */\n      or\n        /* \"#utility.yul\":6984:7056   */\n      iszero\n      tag_742\n      jumpi\n        /* \"#utility.yul\":7036:7054   */\n      tag_742\n      tag_337\n      jump\t// in\n    tag_742:\n        /* \"#utility.yul\":7072:7074   */\n      0x40\n        /* \"#utility.yul\":7065:7087   */\n      mstore\n        /* \"#utility.yul\":7122:7140   */\n      swap2\n      dup3\n      mstore\n        /* \"#utility.yul\":7156:7171   */\n      dup5\n      dup3\n      add\n      swap3\n      pop\n        /* \"#utility.yul\":7198:7209   */\n      dup4\n      dup2\n      add\n        /* \"#utility.yul\":7194:7214   */\n      dup6\n      add\n      swap2\n        /* \"#utility.yul\":7226:7245   */\n      dup9\n      dup4\n      gt\n        /* \"#utility.yul\":7223:7262   */\n      iszero\n      tag_743\n      jumpi\n        /* \"#utility.yul\":7258:7259   */\n      0x00\n        /* \"#utility.yul\":7255:7256   */\n      dup1\n        /* \"#utility.yul\":7248:7260   */\n      revert\n        /* \"#utility.yul\":7223:7262   */\n    tag_743:\n        /* \"#utility.yul\":7282:7293   */\n      swap4\n      dup6\n      add\n      swap4\n        /* \"#utility.yul\":7302:7461   */\n    tag_744:\n        /* \"#utility.yul\":7318:7324   */\n      dup3\n        /* \"#utility.yul\":7313:7316   */\n      dup6\n        /* \"#utility.yul\":7310:7325   */\n      lt\n        /* \"#utility.yul\":7302:7461   */\n      iszero\n      tag_746\n      jumpi\n        /* \"#utility.yul\":7384:7418   */\n      tag_747\n        /* \"#utility.yul\":7414:7417   */\n      dup6\n        /* \"#utility.yul\":7384:7418   */\n      tag_679\n      jump\t// in\n    tag_747:\n        /* \"#utility.yul\":7372:7419   */\n      dup5\n      mstore\n        /* \"#utility.yul\":7335:7347   */\n      swap4\n      dup6\n      add\n      swap4\n        /* \"#utility.yul\":7439:7451   */\n      swap3\n      dup6\n      add\n      swap3\n        /* \"#utility.yul\":7302:7461   */\n      jump(tag_744)\n    tag_746:\n        /* \"#utility.yul\":7480:7486   */\n      swap9\n        /* \"#utility.yul\":6363:7492   */\n      swap8\n      pop\n      pop\n      pop\n      pop\n      pop\n      pop\n      pop\n      pop\n      jump\t// out\n        /* \"#utility.yul\":8327:8659   */\n    tag_562:\n        /* \"#utility.yul\":8534:8540   */\n      dup3\n        /* \"#utility.yul\":8523:8532   */\n      dup2\n        /* \"#utility.yul\":8516:8541   */\n      mstore\n        /* \"#utility.yul\":8577:8579   */\n      0x40\n        /* \"#utility.yul\":8572:8574   */\n      0x20\n        /* \"#utility.yul\":8561:8570   */\n      dup3\n        /* \"#utility.yul\":8557:8575   */\n      add\n        /* \"#utility.yul\":8550:8580   */\n      mstore\n        /* \"#utility.yul\":8497:8501   */\n      0x00\n        /* \"#utility.yul\":8597:8653   */\n      tag_751\n        /* \"#utility.yul\":8649:8651   */\n      0x40\n        /* \"#utility.yul\":8638:8647   */\n      dup4\n        /* \"#utility.yul\":8634:8652   */\n      add\n        /* \"#utility.yul\":8626:8632   */\n      dup5\n        /* \"#utility.yul\":8597:8653   */\n      tag_674\n      jump\t// in\n    tag_751:\n        /* \"#utility.yul\":8589:8653   */\n      swap5\n        /* \"#utility.yul\":8327:8659   */\n      swap4\n      pop\n      pop\n      pop\n      pop\n      jump\t// out\n        /* \"#utility.yul\":9263:9444   */\n    tag_680:\n        /* \"#utility.yul\":9341:9354   */\n      dup1\n      mload\n      not(sub(shl(0xd0, 0x01), 0x01))\n        /* \"#utility.yul\":9383:9419   */\n      dup2\n      and\n        /* \"#utility.yul\":9373:9420   */\n      dup2\n      eq\n        /* \"#utility.yul\":9363:9438   */\n      tag_734\n      jumpi\n        /* \"#utility.yul\":9434:9435   */\n      0x00\n        /* \"#utility.yul\":9431:9432   */\n      dup1\n        /* \"#utility.yul\":9424:9436   */\n      revert\n        /* \"#utility.yul\":9449:9777   */\n    tag_599:\n        /* \"#utility.yul\":9524:9530   */\n      0x00\n        /* \"#utility.yul\":9532:9538   */\n      dup1\n        /* \"#utility.yul\":9585:9587   */\n      0x40\n        /* \"#utility.yul\":9573:9582   */\n      dup4\n        /* \"#utility.yul\":9564:9571   */\n      dup6\n        /* \"#utility.yul\":9560:9583   */\n      sub\n        /* \"#utility.yul\":9556:9588   */\n      slt\n        /* \"#utility.yul\":9553:9605   */\n      iszero\n      tag_757\n      jumpi\n        /* \"#utility.yul\":9601:9602   */\n      0x00\n        /* \"#utility.yul\":9598:9599   */\n      dup1\n        /* \"#utility.yul\":9591:9603   */\n      revert\n        /* \"#utility.yul\":9553:9605   */\n    tag_757:\n        /* \"#utility.yul\":9633:9642   */\n      dup3\n        /* \"#utility.yul\":9627:9643   */\n      mload\n        /* \"#utility.yul\":9652:9680   */\n      tag_758\n        /* \"#utility.yul\":9674:9679   */\n      dup2\n        /* \"#utility.yul\":9652:9680   */\n      tag_676\n      jump\t// in\n    tag_758:\n        /* \"#utility.yul\":9699:9704   */\n      swap2\n      pop\n        /* \"#utility.yul\":9723:9771   */\n      tag_759\n        /* \"#utility.yul\":9767:9769   */\n      0x20\n        /* \"#utility.yul\":9752:9770   */\n      dup5\n      add\n        /* \"#utility.yul\":9723:9771   */\n      tag_680\n      jump\t// in\n    tag_759:\n        /* \"#utility.yul\":9713:9771   */\n      swap1\n      pop\n        /* \"#utility.yul\":9449:9777   */\n      swap3\n      pop\n      swap3\n      swap1\n      pop\n      jump\t// out\n        /* \"#utility.yul\":9782:9902   */\n    tag_626:\n        /* \"#utility.yul\":9822:9823   */\n      0x00\n        /* \"#utility.yul\":9848:9849   */\n      dup3\n        /* \"#utility.yul\":9838:9873   */\n      tag_762\n      jumpi\n        /* \"#utility.yul\":9853:9871   */\n      tag_762\n      tag_678\n      jump\t// in\n    tag_762:\n      pop\n        /* \"#utility.yul\":9887:9896   */\n      div\n      swap1\n        /* \"#utility.yul\":9782:9902   */\n      jump\t// out\n        /* \"#utility.yul\":9907:10714   */\n    tag_654:\n        /* \"#utility.yul\":10025:10031   */\n      0x00\n        /* \"#utility.yul\":10033:10039   */\n      dup1\n        /* \"#utility.yul\":10041:10047   */\n      0x00\n        /* \"#utility.yul\":10049:10055   */\n      dup1\n        /* \"#utility.yul\":10057:10063   */\n      0x00\n        /* \"#utility.yul\":10065:10071   */\n      dup1\n        /* \"#utility.yul\":10073:10079   */\n      0x00\n        /* \"#utility.yul\":10126:10129   */\n      0xe0\n        /* \"#utility.yul\":10114:10123   */\n      dup9\n        /* \"#utility.yul\":10105:10112   */\n      dup11\n        /* \"#utility.yul\":10101:10124   */\n      sub\n        /* \"#utility.yul\":10097:10130   */\n      slt\n        /* \"#utility.yul\":10094:10147   */\n      iszero\n      tag_764\n      jumpi\n        /* \"#utility.yul\":10143:10144   */\n      0x00\n        /* \"#utility.yul\":10140:10141   */\n      dup1\n        /* \"#utility.yul\":10133:10145   */\n      revert\n        /* \"#utility.yul\":10094:10147   */\n    tag_764:\n        /* \"#utility.yul\":10166:10205   */\n      tag_765\n        /* \"#utility.yul\":10195:10204   */\n      dup9\n        /* \"#utility.yul\":10166:10205   */\n      tag_680\n      jump\t// in\n    tag_765:\n        /* \"#utility.yul\":10156:10205   */\n      swap7\n      pop\n        /* \"#utility.yul\":10245:10247   */\n      0x20\n        /* \"#utility.yul\":10234:10243   */\n      dup9\n        /* \"#utility.yul\":10230:10248   */\n      add\n        /* \"#utility.yul\":10224:10249   */\n      mload\n        /* \"#utility.yul\":10214:10249   */\n      swap6\n      pop\n        /* \"#utility.yul\":10289:10291   */\n      0x40\n        /* \"#utility.yul\":10278:10287   */\n      dup9\n        /* \"#utility.yul\":10274:10292   */\n      add\n        /* \"#utility.yul\":10268:10293   */\n      mload\n        /* \"#utility.yul\":10258:10293   */\n      swap5\n      pop\n        /* \"#utility.yul\":10333:10335   */\n      0x60\n        /* \"#utility.yul\":10322:10331   */\n      dup9\n        /* \"#utility.yul\":10318:10336   */\n      add\n        /* \"#utility.yul\":10312:10337   */\n      mload\n        /* \"#utility.yul\":10302:10337   */\n      swap4\n      pop\n        /* \"#utility.yul\":10380:10383   */\n      0x80\n        /* \"#utility.yul\":10369:10378   */\n      dup9\n        /* \"#utility.yul\":10365:10384   */\n      add\n        /* \"#utility.yul\":10359:10385   */\n      mload\n        /* \"#utility.yul\":10394:10425   */\n      tag_766\n        /* \"#utility.yul\":10419:10424   */\n      dup2\n        /* \"#utility.yul\":10394:10425   */\n      tag_675\n      jump\t// in\n    tag_766:\n        /* \"#utility.yul\":10494:10497   */\n      0xa0\n        /* \"#utility.yul\":10479:10498   */\n      dup10\n      add\n        /* \"#utility.yul\":10473:10499   */\n      mload\n        /* \"#utility.yul\":10444:10449   */\n      swap1\n      swap4\n      pop\n        /* \"#utility.yul\":10543:10547   */\n      0xff\n        /* \"#utility.yul\":10530:10548   */\n      dup2\n      and\n        /* \"#utility.yul\":10518:10549   */\n      dup2\n      eq\n        /* \"#utility.yul\":10508:10567   */\n      tag_767\n      jumpi\n        /* \"#utility.yul\":10563:10564   */\n      0x00\n        /* \"#utility.yul\":10560:10561   */\n      dup1\n        /* \"#utility.yul\":10553:10565   */\n      revert\n        /* \"#utility.yul\":10508:10567   */\n    tag_767:\n        /* \"#utility.yul\":10638:10641   */\n      0xc0\n        /* \"#utility.yul\":10623:10642   */\n      dup10\n      add\n        /* \"#utility.yul\":10617:10643   */\n      mload\n        /* \"#utility.yul\":10586:10593   */\n      swap1\n      swap3\n      pop\n        /* \"#utility.yul\":10652:10682   */\n      tag_768\n        /* \"#utility.yul\":10617:10643   */\n      dup2\n        /* \"#utility.yul\":10652:10682   */\n      tag_676\n      jump\t// in\n    tag_768:\n        /* \"#utility.yul\":10701:10708   */\n      dup1\n        /* \"#utility.yul\":10691:10708   */\n      swap2\n      pop\n      pop\n        /* \"#utility.yul\":9907:10714   */\n      swap3\n      swap6\n      swap9\n      swap2\n      swap5\n      swap8\n      pop\n      swap3\n      swap6\n      pop\n      jump\t// out\n    stop\n    data_c8669cf8eaf883002b9f48e28846a8d408c9b58ea6613bace374265e43c9bc43 9b779b17422d0df92223018b32b4d1fa46e071723d6817e2486d003becc55f00\n    data_d1b12de380b5f3a30ba38a23a69e5703e0569d4a1fc4ac869b5f2bb883f9bcc1 4142434445464748494a4b4c4d4e4f505152535455565758595a30313233343536373839\n\n    auxdata: 0xa26469706673582212201faeff9ab9a709a780e6a58eb15f5ad4119e207f7fffff88bbcf348bdf11a43464736f6c63430008180033\n}\n",
				"bytecode": {
					"linkReferences": {},
					"object": "60806040523480156200001157600080fd5b5060405162002a7038038062002a708339810160408190526200003491620001c7565b33806200005b57604051631e4fbdf760e01b81526000600482015260240160405180910390fd5b62000066816200015a565b5060017f9b779b17422d0df92223018b32b4d1fa46e071723d6817e2486d003becc55f00556001600160a01b038316620000b35760405163d92e233d60e01b815260040160405180910390fd5b6001600160a01b038216620000db5760405163d92e233d60e01b815260040160405180910390fd5b6001600160a01b038116620001035760405163d92e233d60e01b815260040160405180910390fd5b600180546001600160a01b039485166001600160a01b031991821617909155600280549385169382169390931790925560038054919093169082161782556005805490911633179055600e5560c8600f5562000211565b600080546001600160a01b038381166001600160a01b0319831681178455604051919092169283917f8be0079c531659141344cd1fd0a4f28419497f9722a3daafe3b4186f6b6457e09190a35050565b80516001600160a01b0381168114620001c257600080fd5b919050565b600080600060608486031215620001dd57600080fd5b620001e884620001aa565b9250620001f860208501620001aa565b91506200020860408501620001aa565b90509250925092565b61284f80620002216000396000f3fe60806040526004361061036b5760003560e01c8063873f6f9e116101c6578063c33b7586116100f7578063dd898b2f11610095578063f13afb901161006f578063f13afb901461098d578063f2fde38b146109ad578063f82a23d1146109cd578063f887ea40146109fa57600080fd5b8063dd898b2f14610938578063e9755b5914610958578063ebd2fe411461096d57600080fd5b8063d38970bc116100d1578063d38970bc146108d8578063d57f9525146108ee578063d65ab5f214610903578063da0907551461091857600080fd5b8063c33b758614610893578063c74b817d146108a8578063cc16fe5b146108c257600080fd5b8063a1a016a311610164578063b27211641161013e578063b27211641461081b578063b303feeb14610831578063b7bc5fb61461085e578063c0d786551461087357600080fd5b8063a1a016a3146107d1578063ab221a76146107e6578063ac6507831461080657600080fd5b80638e6a134b116101a05780638e6a134b1461077357806392eaa9d91461079357806399b465cb146107b35780639c737e8f146107c957600080fd5b8063873f6f9e146107045780638a19c8bc1461073f5780638da5cb5b1461075557600080fd5b806341d67d06116102a0578063677bd9ff1161023e5780637704359111610218578063770435911461067b57806379eedbdd146106915780637f35d49f146106c15780637f79ba59146106d757600080fd5b8063677bd9ff14610631578063715018a61461065157806376d9ff2c1461066657600080fd5b80635e123ce41161027a5780635e123ce4146105cc5780635f303f1c146105e657806363d5ab8d146106065780636641ea081461061c57600080fd5b806341d67d0614610581578063456990c71461059757806346a662bf146105b757600080fd5b80631a3b8e8c1161030d578063293c2958116102e7578063293c2958146104c75780632ee0c463146105235780633deb6cae1461054d5780634168632d1461056257600080fd5b80631a3b8e8c146104645780631ad41d1414610484578063231e832d146104a457600080fd5b80630a8506ca116103495780630a8506ca146104045780630b7a567b146104195780630f67e7d51461042e57806317ebf6ae1461045c57600080fd5b806302e28c701461037057806303e3cd6a146103aa57806307f19eba146103e2575b600080fd5b34801561037c57600080fd5b5061039061038b3660046123b3565b610a1a565b6040516103a1959493929190612411565b60405180910390f35b3480156103b657600080fd5b506103ca6103c536600461244f565b610ac7565b6040516001600160a01b0390911681526020016103a1565b3480156103ee57600080fd5b506104026103fd366004612486565b610aff565b005b34801561041057600080fd5b50610402610b78565b34801561042557600080fd5b50610402610b8f565b34801561043a57600080fd5b50610443610c82565b6040516001600160d01b031990911681526020016103a1565b610402610d41565b34801561047057600080fd5b506001546103ca906001600160a01b031681565b34801561049057600080fd5b5061040261049f3660046123b3565b610e12565b3480156104b057600080fd5b506104b9610e77565b6040519081526020016103a1565b3480156104d357600080fd5b506104dc610e87565b6040805198895260208901979097529587019490945260608601929092526001600160d01b031916608085015260a084015260c0830152151560e0820152610100016103a1565b34801561052f57600080fd5b5060165461053d9060ff1681565b60405190151581526020016103a1565b34801561055957600080fd5b506104b9600f81565b34801561056e57600080fd5b5060165461053d90610100900460ff1681565b34801561058d57600080fd5b506104b9600f5481565b3480156105a357600080fd5b506104026105b23660046123b3565b610ec0565b3480156105c357600080fd5b50610402610f20565b3480156105d857600080fd5b50600b5461053d9060ff1681565b3480156105f257600080fd5b50610402610601366004612486565b611077565b34801561061257600080fd5b506104b960065481565b34801561062857600080fd5b506104b96110c8565b34801561063d57600080fd5b5061040261064c3660046123b3565b6110e1565b34801561065d57600080fd5b506104026113c5565b34801561067257600080fd5b506104026113d7565b34801561068757600080fd5b506104b9600e5481565b34801561069d57600080fd5b506104436106ac3660046123b3565b60106020526000908152604090205460d01b81565b3480156106cd57600080fd5b506104b9610e0181565b3480156106e357600080fd5b506104b96106f23660046123b3565b60116020526000908152604090205481565b34801561071057600080fd5b5061053d61071f3660046124a3565b601560209081526000928352604080842090915290825290205460ff1681565b34801561074b57600080fd5b506104b960085481565b34801561076157600080fd5b506000546001600160a01b03166103ca565b34801561077f57600080fd5b5061044361078e3660046123b3565b6113ec565b34801561079f57600080fd5b506004546103ca906001600160a01b031681565b3480156107bf57600080fd5b506104b960095481565b6104026114a8565b3480156107dd57600080fd5b506104b96114b0565b3480156107f257600080fd5b506005546103ca906001600160a01b031681565b34801561081257600080fd5b506104b9600281565b34801561082757600080fd5b506104b9600c5481565b34801561083d57600080fd5b506104b961084c3660046123b3565b60146020526000908152604090205481565b34801561086a57600080fd5b506104b9600681565b34801561087f57600080fd5b5061040261088e366004612486565b6114e0565b34801561089f57600080fd5b5061053d611531565b3480156108b457600080fd5b5060075461053d9060ff1681565b3480156108ce57600080fd5b506104b9600a5481565b3480156108e457600080fd5b506104b9600d5481565b3480156108fa57600080fd5b50610402611540565b34801561090f57600080fd5b50610402611559565b34801561092457600080fd5b506002546103ca906001600160a01b031681565b34801561094457600080fd5b50610402610953366004612486565b6116af565b34801561096457600080fd5b50610402611700565b34801561097957600080fd5b506104026109883660046124e1565b611714565b34801561099957600080fd5b506104026109a8366004612486565b61172f565b3480156109b957600080fd5b506104026109c8366004612486565b611759565b3480156109d957600080fd5b506104b96109e83660046123b3565b60136020526000908152604090205481565b348015610a0657600080fd5b506003546103ca906001600160a01b031681565b600081815260106020908152604080832054601183528184205460128452828520805484518187028101870190955280855260d09390931b959194606094929384939291830182828015610a9757602002820191906000526020600020905b81546001600160a01b03168152600190910190602001808311610a79575b50505060009889525050601360209081526040808920546014909252909720549597949690959094909350915050565b60126020528160005260406000208181548110610ae357600080fd5b6000918252602090912001546001600160a01b03169150829050565b610b07611794565b6001600160a01b038116610b2e5760405163d92e233d60e01b815260040160405180910390fd5b600580546001600160a01b0319166001600160a01b0383169081179091556040517f1f53e003aaf46af23aeb50e85f438d6f0c33618ce44e3545f1ec030c79b1772990600090a250565b610b80611794565b6016805460ff19166001179055565b610b976117c1565b6003546001600160a01b03163314610bc257604051639165520160e01b815260040160405180910390fd5b600b5460ff16610be557604051633a5f7b5760e01b815260040160405180910390fd5b610bed6117dd565b15610c0b5760405163717824fb60e01b815260040160405180910390fd5b60068054906000610c1b83612514565b91905055506008547f494d93a08dca016bff87fc5e35de704731b23d47eb35da9499be2ddb7536da22600654600954604051610c61929190918252602082015260400190565b60405180910390a2610c8060016000805160206127d683398151915255565b565b60408051600680825281830190925260009182919060208201818036833701905050905060005b6006811015610d31576040518060600160405280602481526020016127f660249139602482600654610cdb9190612543565b610ce59190612572565b81518110610cf557610cf5612586565b602001015160f81c60f81b828281518110610d1257610d12612586565b60200101906001600160f81b031916908160001a905350600101610ca9565b50610d3b8161259c565b91505090565b34600003610d6257604051631f2a200560e01b815260040160405180910390fd5b34600c6000828254610d749190612543565b909155505060015460408051630d0e30db60e41b815290516001600160a01b039092169163d0e30db0913491600480830192600092919082900301818588803b158015610dc057600080fd5b505af1158015610dd4573d6000803e3d6000fd5b50506040513481523393507ff0d496561fe25891ca8568b6877b038238629d8dbe5777373589bece931dc172925060200190505b60405180910390a2565b610e1a611794565b80600003610e3b576040516340250f0160e11b815260040160405180910390fd5b600e8190556040518181527f1e64ff98418e31d486498b471741cc3ff92302fa146e6e124e3025186cfab465906020015b60405180910390a150565b610e84600f610e01612543565b81565b600854600954600a546006546000808080610ea0610c82565b9350600c549250600d549150610eb46117dd565b90509091929394959697565b610ec8611794565b6103e8811115610eeb57604051631f2a200560e01b815260040160405180910390fd5b600f8190556040518181527f21b2cfef155acf409755ec06f4f701c8d13a5b6339fe8d1ee89afb57318f708490602001610e6c565b610f286117c1565b6005546001600160a01b03163314610f53576040516305b9433360e01b815260040160405180910390fd5b600b5460ff16610f7657604051633a5f7b5760e01b815260040160405180910390fd5b601654610100900460ff1615610f9f57604051634c211ccd60e01b815260040160405180910390fd5b6000600a5442610faf91906125d3565b9050610e01811015610fe457604051632c690a3760e11b815260048101829052610e0160248201526044015b60405180910390fd5b600660095410156110575760098054906000610fff83612514565b919050555042600a819055506008547fe9a2985393fa4bb459d73d85249df3b5923e70fb93b7b9c307e72359ab1675876009544260405161104a929190918252602082015260400190565b60405180910390a261105f565b61105f61180b565b50610c8060016000805160206127d683398151915255565b61107f611794565b6001600160a01b0381166110a65760405163d92e233d60e01b815260040160405180910390fd5b600180546001600160a01b0319166001600160a01b0392909216919091179055565b60066110d7600f610e01612543565b610e8491906125e6565b6110e96117c1565b600b5460ff1661110c57604051633a5f7b5760e01b815260040160405180910390fd5b60008181526010602052604090205460d01b6001600160d01b0319166111485760405163668fee6f60e11b815260048101829052602401610fdb565b600081815260156020908152604080832033845290915290205460ff161561118c5760405163732750ed60e11b815233600482015260248101829052604401610fdb565b611197600282612543565b6111a2906001612543565b60085411156111c757604051635524932960e01b815260048101829052602401610fdb565b60008181526012602090815260408083208054825181850281018501909352808352849383018282801561122457602002820191906000526020600020905b81546001600160a01b03168152600190910190602001808311611206575b5050505050905060005b815181101561127a57336001600160a01b031682828151811061125357611253612586565b60200260200101516001600160a01b031603611272576001925061127a565b60010161122e565b50816112a25760405163efbeaf3360e01b815233600482015260248101849052604401610fdb565b600083815260136020526040812054908190036112d257604051631f2a200560e01b815260040160405180910390fd5b60008481526015602090815260408083203384529091528120805460ff19166001179055600d80548392906113089084906125d3565b9091555050600154604051636203b43b60e11b8152336004820152602481018390526001600160a01b039091169063c407687690604401600060405180830381600087803b15801561135957600080fd5b505af115801561136d573d6000803e3d6000fd5b50506040518381528692503391507f7472e24de4628e34b41a2aa1688ed4b46a9145b2de1cf93d74902473ccc1740d9060200160405180910390a35050506113c260016000805160206127d683398151915255565b50565b6113cd611794565b610c806000611a2e565b6113df611794565b6016805461ff0019169055565b60408051600680825281830190925260009182919060208201818036833701905050905060005b6006811015611497576040518060600160405280602481526020016127f66024913960246114418387612543565b61144b9190612572565b8151811061145b5761145b612586565b602001015160f81c60f81b82828151811061147857611478612586565b60200101906001600160f81b031916908160001a905350600101611413565b506114a18161259c565b9392505050565b610d41611794565b600080600a54426114c191906125d3565b9050610e0181106114d457600091505090565b610d3b81610e016125d3565b6114e8611794565b6001600160a01b03811661150f5760405163d92e233d60e01b815260040160405180910390fd5b600380546001600160a01b0319166001600160a01b0392909216919091179055565b600061153b6117dd565b905090565b611548611794565b6016805461ff001916610100179055565b611561611794565b600b5460ff16156115855760405163ba26162b60e01b815260040160405180910390fd5b600b805460ff191660019081179091556008819055600981905542600a5560025460405163077923c560e31b815260048101929092526001600160a01b031690633bc91e2890602401600060405180830381600087803b1580156115e857600080fd5b505af11580156115fc573d6000803e3d6000fd5b5050505061160b600854611a7e565b6040514281527f50ad08f58a27f2851d7e3a1b3a6a46b290f2ce677e99642d30ff639721e777909060200160405180910390a16008546040514281527f278844837bcf8364a705384bf3a2812901f54155bae86dea81dd52aa5b9ec0e39060200160405180910390a2600854600954604080519182524260208301527fe9a2985393fa4bb459d73d85249df3b5923e70fb93b7b9c307e72359ab1675879101610e08565b6116b7611794565b6001600160a01b0381166116de5760405163d92e233d60e01b815260040160405180910390fd5b600280546001600160a01b0319166001600160a01b0392909216919091179055565b611708611794565b6016805460ff19169055565b61171c611794565b6007805460ff1916911515919091179055565b611737611794565b600480546001600160a01b0319166001600160a01b0392909216919091179055565b611761611794565b6001600160a01b03811661178b57604051631e4fbdf760e01b815260006004820152602401610fdb565b6113c281611a2e565b6000546001600160a01b03163314610c805760405163118cdaa760e01b8152336004820152602401610fdb565b6117c9611b63565b60026000805160206127d683398151915255565b600b5460009060ff166117f05750600090565b6000600a544261180091906125d3565b610e01111592915050565b600854600061181982611b93565b90506000806118288484611c74565b91509150600080600061183c878686611fb3565b92509250925061184b8761212a565b6002546040516322a5642760e11b8152600481018990526000916001600160a01b03169063454ac84e90602401600060405180830381865afa158015611895573d6000803e3d6000fd5b505050506040513d6000823e601f3d908101601f191682016040526118bd919081019061260d565b51604080516001600160d01b03198a1681526020810187905290810187905260608101849052608081018290524260a082015290915088907fcb3e0bd9fc5c5ca893ab7edf22c314b2852d2cf6e36e091941d0709caeb4145c9060c00160405180910390a26008805490600061193283612514565b9091555050600160095542600a5560025460085460405163077923c560e31b81526001600160a01b0390921691633bc91e28916119759160040190815260200190565b600060405180830381600087803b15801561198f57600080fd5b505af11580156119a3573d6000803e3d6000fd5b505050506119b2600854611a7e565b6008546040514281527f278844837bcf8364a705384bf3a2812901f54155bae86dea81dd52aa5b9ec0e39060200160405180910390a260085460408051600181524260208201527fe9a2985393fa4bb459d73d85249df3b5923e70fb93b7b9c307e72359ab167587910160405180910390a25050505050505050565b600080546001600160a01b038381166001600160a01b0319831681178455604051919092169283917f8be0079c531659141344cd1fd0a4f28419497f9722a3daafe3b4186f6b6457e09190a35050565b6002546040516322a5642760e11b8152600481018390526000916001600160a01b03169063454ac84e90602401600060405180830381865afa158015611ac8573d6000803e3d6000fd5b505050506040513d6000823e601f3d908101601f19168201604052611af0919081019061260d565b805190915015611b5f5760025460405163099866c360e11b81526001600160a01b0390911690631330cd8690611b2c90859085906004016126d2565b600060405180830381600087803b158015611b4657600080fd5b505af1158015611b5a573d6000803e3d6000fd5b505050505b5050565b6000805160206127d683398151915254600203610c8057604051633ee5aeb560e01b815260040160405180910390fd5b600080611ba16001436125d3565b60065460408051924060208401528201526060810184905260800160408051601f19818403018152919052805160209091012090506000611be3600383612572565b9050600081600654611bf59190612543565b9050611c00816113ec565b600086815260106020908152604091829020805465ffffffffffff191660d085901c17905581518481526001600160d01b031984169181019190915291955086917fd9518e0c64df7f54fe347e6e390672d87bc2350a9df1b275e2de0f2655ca9a84910160405180910390a2505050919050565b600254604051639fd1162760e01b8152600481018490526001600160d01b03198316602482015260609160009182916001600160a01b031690639fd1162790604401600060405180830381865afa158015611cd3573d6000803e3d6000fd5b505050506040513d6000823e601f3d908101601f19168201604052611cfb919081019061260d565b90506000815167ffffffffffffffff811115611d1957611d1961252d565b604051908082528060200260200182016040528015611d42578160200160208202803683370190505b50905060005b8251811015611f0c576000838281518110611d6557611d65612586565b602090810291909101015160025460405163a96de4f560e01b81526001600160a01b038084166004830152602482018c90529293506000928392169063a96de4f5906044016040805180830381865afa158015611dc6573d6000803e3d6000fd5b505050506040513d601f19601f82011682018060405250810190611dea919061270b565b9150915081611dfb57505050611f04565b6001600160d01b0319818116908a1614611e1757505050611f04565b60025460405163c106aee360e01b81526001600160a01b038581166004830152602482018d9052600092839291169063c106aee3906044016040805180830381865afa158015611e6b573d6000803e3d6000fd5b505050506040513d601f19601f82011682018060405250810190611e8f919061270b565b9150915081611ea2575050505050611f04565b6001600160d01b0319818116908c1614611ec0575050505050611f04565b84878a611ecc81612514565b9b5081518110611ede57611ede612586565b60200260200101906001600160a01b031690816001600160a01b03168152505050505050505b600101611d48565b508267ffffffffffffffff811115611f2657611f2661252d565b604051908082528060200260200182016040528015611f4f578160200160208202803683370190505b50935060005b83811015611fa957818181518110611f6f57611f6f612586565b6020026020010151858281518110611f8957611f89612586565b6001600160a01b0390921660209283029190910190910152600101611f55565b5050509250929050565b600c54600f54600090819015801590611fcc5750600083115b15612037576000612710600f5485611fe491906125e6565b611fee9190612740565b9050611ffa81856125d3565b93507f85fcfc84baa0423652490bdd8531f642a3376cb202145025b549fb449516e5a88160405161202d91815260200190565b60405180910390a1505b5081600084156120665761204b8585612740565b925061205785846125e6565b905061206381856125d3565b91505b60005b858110156120d8576000888152601260205260409020875188908390811061209357612093612586565b60209081029190910181015182546001808201855560009485529290932090920180546001600160a01b0319166001600160a01b039093169290921790915501612069565b5060008781526011602090815260408083208790556013825280832086905560149091528120839055600d8054839290612113908490612543565b909155505050600c81905591959094509092509050565b6002546040516322a5642760e11b8152600481018390526000916001600160a01b03169063454ac84e90602401600060405180830381865afa158015612174573d6000803e3d6000fd5b505050506040513d6000823e601f3d908101601f1916820160405261219c919081019061260d565b905060005b81518110156123ae5760025482516000916001600160a01b03169063b8a740e0908590859081106121d4576121d4612586565b6020026020010151866040518363ffffffff1660e01b815260040161220e9291906001600160a01b03929092168252602082015260400190565b60e060405180830381865afa15801561222b573d6000803e3d6000fd5b505050506040513d601f19601f8201168201806040525081019061224f9190612754565b50505050925050506008548110156123a55761226c600282612543565b600854111561230f5760025483516001600160a01b0390911690637a03ce4f9085908590811061229e5761229e612586565b6020026020010151866040518363ffffffff1660e01b81526004016122d89291906001600160a01b03929092168252602082015260400190565b600060405180830381600087803b1580156122f257600080fd5b505af1158015612306573d6000803e3d6000fd5b505050506123a5565b60025483516001600160a01b03909116906347f43ef29085908590811061233857612338612586565b6020026020010151866040518363ffffffff1660e01b81526004016123729291906001600160a01b03929092168252602082015260400190565b600060405180830381600087803b15801561238c57600080fd5b505af11580156123a0573d6000803e3d6000fd5b505050505b506001016121a1565b505050565b6000602082840312156123c557600080fd5b5035919050565b60008151808452602080850194506020840160005b838110156124065781516001600160a01b0316875295820195908201906001016123e1565b509495945050505050565b65ffffffffffff60d01b8616815284602082015260a06040820152600061243b60a08301866123cc565b606083019490945250608001529392505050565b6000806040838503121561246257600080fd5b50508035926020909101359150565b6001600160a01b03811681146113c257600080fd5b60006020828403121561249857600080fd5b81356114a181612471565b600080604083850312156124b657600080fd5b8235915060208301356124c881612471565b809150509250929050565b80151581146113c257600080fd5b6000602082840312156124f357600080fd5b81356114a1816124d3565b634e487b7160e01b600052601160045260246000fd5b600060018201612526576125266124fe565b5060010190565b634e487b7160e01b600052604160045260246000fd5b80820180821115612556576125566124fe565b92915050565b634e487b7160e01b600052601260045260246000fd5b6000826125815761258161255c565b500690565b634e487b7160e01b600052603260045260246000fd5b805160208201516001600160d01b031980821692919060068310156125cb5780818460060360031b1b83161693505b505050919050565b81810381811115612556576125566124fe565b8082028115828204841417612556576125566124fe565b805161260881612471565b919050565b6000602080838503121561262057600080fd5b825167ffffffffffffffff8082111561263857600080fd5b818501915085601f83011261264c57600080fd5b81518181111561265e5761265e61252d565b8060051b604051601f19603f830116810181811085821117156126835761268361252d565b6040529182528482019250838101850191888311156126a157600080fd5b938501935b828510156126c6576126b7856125fd565b845293850193928501926126a6565b98975050505050505050565b8281526040602082015260006126eb60408301846123cc565b949350505050565b80516001600160d01b03198116811461260857600080fd5b6000806040838503121561271e57600080fd5b8251612729816124d3565b9150612737602084016126f3565b90509250929050565b60008261274f5761274f61255c565b500490565b600080600080600080600060e0888a03121561276f57600080fd5b612778886126f3565b9650602088015195506040880151945060608801519350608088015161279d81612471565b60a089015190935060ff811681146127b457600080fd5b60c08901519092506127c5816124d3565b809150509295989194975092955056fe9b779b17422d0df92223018b32b4d1fa46e071723d6817e2486d003becc55f004142434445464748494a4b4c4d4e4f505152535455565758595a30313233343536373839a26469706673582212201faeff9ab9a709a780e6a58eb15f5ad4119e207f7fffff88bbcf348bdf11a43464736f6c63430008180033",
					"opcodes": "PUSH1 0x80 PUSH1 0x40 MSTORE CALLVALUE DUP1 ISZERO PUSH3 0x11 JUMPI PUSH1 0x0 DUP1 REVERT JUMPDEST POP PUSH1 0x40 MLOAD PUSH3 0x2A70 CODESIZE SUB DUP1 PUSH3 0x2A70 DUP4 CODECOPY DUP2 ADD PUSH1 0x40 DUP2 SWAP1 MSTORE PUSH3 0x34 SWAP2 PUSH3 0x1C7 JUMP JUMPDEST CALLER DUP1 PUSH3 0x5B JUMPI PUSH1 0x40 MLOAD PUSH4 0x1E4FBDF7 PUSH1 0xE0 SHL DUP2 MSTORE PUSH1 0x0 PUSH1 0x4 DUP3 ADD MSTORE PUSH1 0x24 ADD PUSH1 0x40 MLOAD DUP1 SWAP2 SUB SWAP1 REVERT JUMPDEST PUSH3 0x66 DUP2 PUSH3 0x15A JUMP JUMPDEST POP PUSH1 0x1 PUSH32 0x9B779B17422D0DF92223018B32B4D1FA46E071723D6817E2486D003BECC55F00 SSTORE PUSH1 0x1 PUSH1 0x1 PUSH1 0xA0 SHL SUB DUP4 AND PUSH3 0xB3 JUMPI PUSH1 0x40 MLOAD PUSH4 0xD92E233D PUSH1 0xE0 SHL DUP2 MSTORE PUSH1 0x4 ADD PUSH1 0x40 MLOAD DUP1 SWAP2 SUB SWAP1 REVERT JUMPDEST PUSH1 0x1 PUSH1 0x1 PUSH1 0xA0 SHL SUB DUP3 AND PUSH3 0xDB JUMPI PUSH1 0x40 MLOAD PUSH4 0xD92E233D PUSH1 0xE0 SHL DUP2 MSTORE PUSH1 0x4 ADD PUSH1 0x40 MLOAD DUP1 SWAP2 SUB SWAP1 REVERT JUMPDEST PUSH1 0x1 PUSH1 0x1 PUSH1 0xA0 SHL SUB DUP2 AND PUSH3 0x103 JUMPI PUSH1 0x40 MLOAD PUSH4 0xD92E233D PUSH1 0xE0 SHL DUP2 MSTORE PUSH1 0x4 ADD PUSH1 0x40 MLOAD DUP1 SWAP2 SUB SWAP1 REVERT JUMPDEST PUSH1 0x1 DUP1 SLOAD PUSH1 0x1 PUSH1 0x1 PUSH1 0xA0 SHL SUB SWAP5 DUP6 AND PUSH1 0x1 PUSH1 0x1 PUSH1 0xA0 SHL SUB NOT SWAP2 DUP3 AND OR SWAP1 SWAP2 SSTORE PUSH1 0x2 DUP1 SLOAD SWAP4 DUP6 AND SWAP4 DUP3 AND SWAP4 SWAP1 SWAP4 OR SWAP1 SWAP3 SSTORE PUSH1 0x3 DUP1 SLOAD SWAP2 SWAP1 SWAP4 AND SWAP1 DUP3 AND OR DUP3 SSTORE PUSH1 0x5 DUP1 SLOAD SWAP1 SWAP2 AND CALLER OR SWAP1 SSTORE PUSH1 0xE SSTORE PUSH1 0xC8 PUSH1 0xF SSTORE PUSH3 0x211 JUMP JUMPDEST PUSH1 0x0 DUP1 SLOAD PUSH1 0x1 PUSH1 0x1 PUSH1 0xA0 SHL SUB DUP4 DUP2 AND PUSH1 0x1 PUSH1 0x1 PUSH1 0xA0 SHL SUB NOT DUP4 AND DUP2 OR DUP5 SSTORE PUSH1 0x40 MLOAD SWAP2 SWAP1 SWAP3 AND SWAP3 DUP4 SWAP2 PUSH32 0x8BE0079C531659141344CD1FD0A4F28419497F9722A3DAAFE3B4186F6B6457E0 SWAP2 SWAP1 LOG3 POP POP JUMP JUMPDEST DUP1 MLOAD PUSH1 0x1 PUSH1 0x1 PUSH1 0xA0 SHL SUB DUP2 AND DUP2 EQ PUSH3 0x1C2 JUMPI PUSH1 0x0 DUP1 REVERT JUMPDEST SWAP2 SWAP1 POP JUMP JUMPDEST PUSH1 0x0 DUP1 PUSH1 0x0 PUSH1 0x60 DUP5 DUP7 SUB SLT ISZERO PUSH3 0x1DD JUMPI PUSH1 0x0 DUP1 REVERT JUMPDEST PUSH3 0x1E8 DUP5 PUSH3 0x1AA JUMP JUMPDEST SWAP3 POP PUSH3 0x1F8 PUSH1 0x20 DUP6 ADD PUSH3 0x1AA JUMP JUMPDEST SWAP2 POP PUSH3 0x208 PUSH1 0x40 DUP6 ADD PUSH3 0x1AA JUMP JUMPDEST SWAP1 POP SWAP3 POP SWAP3 POP SWAP3 JUMP JUMPDEST PUSH2 0x284F DUP1 PUSH3 0x221 PUSH1 0x0 CODECOPY PUSH1 0x0 RETURN INVALID PUSH1 0x80 PUSH1 0x40 MSTORE PUSH1 0x4 CALLDATASIZE LT PUSH2 0x36B JUMPI PUSH1 0x0 CALLDATALOAD PUSH1 0xE0 SHR DUP1 PUSH4 0x873F6F9E GT PUSH2 0x1C6 JUMPI DUP1 PUSH4 0xC33B7586 GT PUSH2 0xF7 JUMPI DUP1 PUSH4 0xDD898B2F GT PUSH2 0x95 JUMPI DUP1 PUSH4 0xF13AFB90 GT PUSH2 0x6F JUMPI DUP1 PUSH4 0xF13AFB90 EQ PUSH2 0x98D JUMPI DUP1 PUSH4 0xF2FDE38B EQ PUSH2 0x9AD JUMPI DUP1 PUSH4 0xF82A23D1 EQ PUSH2 0x9CD JUMPI DUP1 PUSH4 0xF887EA40 EQ PUSH2 0x9FA JUMPI PUSH1 0x0 DUP1 REVERT JUMPDEST DUP1 PUSH4 0xDD898B2F EQ PUSH2 0x938 JUMPI DUP1 PUSH4 0xE9755B59 EQ PUSH2 0x958 JUMPI DUP1 PUSH4 0xEBD2FE41 EQ PUSH2 0x96D JUMPI PUSH1 0x0 DUP1 REVERT JUMPDEST DUP1 PUSH4 0xD38970BC GT PUSH2 0xD1 JUMPI DUP1 PUSH4 0xD38970BC EQ PUSH2 0x8D8 JUMPI DUP1 PUSH4 0xD57F9525 EQ PUSH2 0x8EE JUMPI DUP1 PUSH4 0xD65AB5F2 EQ PUSH2 0x903 JUMPI DUP1 PUSH4 0xDA090755 EQ PUSH2 0x918 JUMPI PUSH1 0x0 DUP1 REVERT JUMPDEST DUP1 PUSH4 0xC33B7586 EQ PUSH2 0x893 JUMPI DUP1 PUSH4 0xC74B817D EQ PUSH2 0x8A8 JUMPI DUP1 PUSH4 0xCC16FE5B EQ PUSH2 0x8C2 JUMPI PUSH1 0x0 DUP1 REVERT JUMPDEST DUP1 PUSH4 0xA1A016A3 GT PUSH2 0x164 JUMPI DUP1 PUSH4 0xB2721164 GT PUSH2 0x13E JUMPI DUP1 PUSH4 0xB2721164 EQ PUSH2 0x81B JUMPI DUP1 PUSH4 0xB303FEEB EQ PUSH2 0x831 JUMPI DUP1 PUSH4 0xB7BC5FB6 EQ PUSH2 0x85E JUMPI DUP1 PUSH4 0xC0D78655 EQ PUSH2 0x873 JUMPI PUSH1 0x0 DUP1 REVERT JUMPDEST DUP1 PUSH4 0xA1A016A3 EQ PUSH2 0x7D1 JUMPI DUP1 PUSH4 0xAB221A76 EQ PUSH2 0x7E6 JUMPI DUP1 PUSH4 0xAC650783 EQ PUSH2 0x806 JUMPI PUSH1 0x0 DUP1 REVERT JUMPDEST DUP1 PUSH4 0x8E6A134B GT PUSH2 0x1A0 JUMPI DUP1 PUSH4 0x8E6A134B EQ PUSH2 0x773 JUMPI DUP1 PUSH4 0x92EAA9D9 EQ PUSH2 0x793 JUMPI DUP1 PUSH4 0x99B465CB EQ PUSH2 0x7B3 JUMPI DUP1 PUSH4 0x9C737E8F EQ PUSH2 0x7C9 JUMPI PUSH1 0x0 DUP1 REVERT JUMPDEST DUP1 PUSH4 0x873F6F9E EQ PUSH2 0x704 JUMPI DUP1 PUSH4 0x8A19C8BC EQ PUSH2 0x73F JUMPI DUP1 PUSH4 0x8DA5CB5B EQ PUSH2 0x755 JUMPI PUSH1 0x0 DUP1 REVERT JUMPDEST DUP1 PUSH4 0x41D67D06 GT PUSH2 0x2A0 JUMPI DUP1 PUSH4 0x677BD9FF GT PUSH2 0x23E JUMPI DUP1 PUSH4 0x77043591 GT PUSH2 0x218 JUMPI DUP1 PUSH4 0x77043591 EQ PUSH2 0x67B JUMPI DUP1 PUSH4 0x79EEDBDD EQ PUSH2 0x691 JUMPI DUP1 PUSH4 0x7F35D49F EQ PUSH2 0x6C1 JUMPI DUP1 PUSH4 0x7F79BA59 EQ PUSH2 0x6D7 JUMPI PUSH1 0x0 DUP1 REVERT JUMPDEST DUP1 PUSH4 0x677BD9FF EQ PUSH2 0x631 JUMPI DUP1 PUSH4 0x715018A6 EQ PUSH2 0x651 JUMPI DUP1 PUSH4 0x76D9FF2C EQ PUSH2 0x666 JUMPI PUSH1 0x0 DUP1 REVERT JUMPDEST DUP1 PUSH4 0x5E123CE4 GT PUSH2 0x27A JUMPI DUP1 PUSH4 0x5E123CE4 EQ PUSH2 0x5CC JUMPI DUP1 PUSH4 0x5F303F1C EQ PUSH2 0x5E6 JUMPI DUP1 PUSH4 0x63D5AB8D EQ PUSH2 0x606 JUMPI DUP1 PUSH4 0x6641EA08 EQ PUSH2 0x61C JUMPI PUSH1 0x0 DUP1 REVERT JUMPDEST DUP1 PUSH4 0x41D67D06 EQ PUSH2 0x581 JUMPI DUP1 PUSH4 0x456990C7 EQ PUSH2 0x597 JUMPI DUP1 PUSH4 0x46A662BF EQ PUSH2 0x5B7 JUMPI PUSH1 0x0 DUP1 REVERT JUMPDEST DUP1 PUSH4 0x1A3B8E8C GT PUSH2 0x30D JUMPI DUP1 PUSH4 0x293C2958 GT PUSH2 0x2E7 JUMPI DUP1 PUSH4 0x293C2958 EQ PUSH2 0x4C7 JUMPI DUP1 PUSH4 0x2EE0C463 EQ PUSH2 0x523 JUMPI DUP1 PUSH4 0x3DEB6CAE EQ PUSH2 0x54D JUMPI DUP1 PUSH4 0x4168632D EQ PUSH2 0x562 JUMPI PUSH1 0x0 DUP1 REVERT JUMPDEST DUP1 PUSH4 0x1A3B8E8C EQ PUSH2 0x464 JUMPI DUP1 PUSH4 0x1AD41D14 EQ PUSH2 0x484 JUMPI DUP1 PUSH4 0x231E832D EQ PUSH2 0x4A4 JUMPI PUSH1 0x0 DUP1 REVERT JUMPDEST DUP1 PUSH4 0xA8506CA GT PUSH2 0x349 JUMPI DUP1 PUSH4 0xA8506CA EQ PUSH2 0x404 JUMPI DUP1 PUSH4 0xB7A567B EQ PUSH2 0x419 JUMPI DUP1 PUSH4 0xF67E7D5 EQ PUSH2 0x42E JUMPI DUP1 PUSH4 0x17EBF6AE EQ PUSH2 0x45C JUMPI PUSH1 0x0 DUP1 REVERT JUMPDEST DUP1 PUSH4 0x2E28C70 EQ PUSH2 0x370 JUMPI DUP1 PUSH4 0x3E3CD6A EQ PUSH2 0x3AA JUMPI DUP1 PUSH4 0x7F19EBA EQ PUSH2 0x3E2 JUMPI JUMPDEST PUSH1 0x0 DUP1 REVERT JUMPDEST CALLVALUE DUP1 ISZERO PUSH2 0x37C JUMPI PUSH1 0x0 DUP1 REVERT JUMPDEST POP PUSH2 0x390 PUSH2 0x38B CALLDATASIZE PUSH1 0x4 PUSH2 0x23B3 JUMP JUMPDEST PUSH2 0xA1A JUMP JUMPDEST PUSH1 0x40 MLOAD PUSH2 0x3A1 SWAP6 SWAP5 SWAP4 SWAP3 SWAP2 SWAP1 PUSH2 0x2411 JUMP JUMPDEST PUSH1 0x40 MLOAD DUP1 SWAP2 SUB SWAP1 RETURN JUMPDEST CALLVALUE DUP1 ISZERO PUSH2 0x3B6 JUMPI PUSH1 0x0 DUP1 REVERT JUMPDEST POP PUSH2 0x3CA PUSH2 0x3C5 CALLDATASIZE PUSH1 0x4 PUSH2 0x244F JUMP JUMPDEST PUSH2 0xAC7 JUMP JUMPDEST PUSH1 0x40 MLOAD PUSH1 0x1 PUSH1 0x1 PUSH1 0xA0 SHL SUB SWAP1 SWAP2 AND DUP2 MSTORE PUSH1 0x20 ADD PUSH2 0x3A1 JUMP JUMPDEST CALLVALUE DUP1 ISZERO PUSH2 0x3EE JUMPI PUSH1 0x0 DUP1 REVERT JUMPDEST POP PUSH2 0x402 PUSH2 0x3FD CALLDATASIZE PUSH1 0x4 PUSH2 0x2486 JUMP JUMPDEST PUSH2 0xAFF JUMP JUMPDEST STOP JUMPDEST CALLVALUE DUP1 ISZERO PUSH2 0x410 JUMPI PUSH1 0x0 DUP1 REVERT JUMPDEST POP PUSH2 0x402 PUSH2 0xB78 JUMP JUMPDEST CALLVALUE DUP1 ISZERO PUSH2 0x425 JUMPI PUSH1 0x0 DUP1 REVERT JUMPDEST POP PUSH2 0x402 PUSH2 0xB8F JUMP JUMPDEST CALLVALUE DUP1 ISZERO PUSH2 0x43A JUMPI PUSH1 0x0 DUP1 REVERT JUMPDEST POP PUSH2 0x443 PUSH2 0xC82 JUMP JUMPDEST PUSH1 0x40 MLOAD PUSH1 0x1 PUSH1 0x1 PUSH1 0xD0 SHL SUB NOT SWAP1 SWAP2 AND DUP2 MSTORE PUSH1 0x20 ADD PUSH2 0x3A1 JUMP JUMPDEST PUSH2 0x402 PUSH2 0xD41 JUMP JUMPDEST CALLVALUE DUP1 ISZERO PUSH2 0x470 JUMPI PUSH1 0x0 DUP1 REVERT JUMPDEST POP PUSH1 0x1 SLOAD PUSH2 0x3CA SWAP1 PUSH1 0x1 PUSH1 0x1 PUSH1 0xA0 SHL SUB AND DUP2 JUMP JUMPDEST CALLVALUE DUP1 ISZERO PUSH2 0x490 JUMPI PUSH1 0x0 DUP1 REVERT JUMPDEST POP PUSH2 0x402 PUSH2 0x49F CALLDATASIZE PUSH1 0x4 PUSH2 0x23B3 JUMP JUMPDEST PUSH2 0xE12 JUMP JUMPDEST CALLVALUE DUP1 ISZERO PUSH2 0x4B0 JUMPI PUSH1 0x0 DUP1 REVERT JUMPDEST POP PUSH2 0x4B9 PUSH2 0xE77 JUMP JUMPDEST PUSH1 0x40 MLOAD SWAP1 DUP2 MSTORE PUSH1 0x20 ADD PUSH2 0x3A1 JUMP JUMPDEST CALLVALUE DUP1 ISZERO PUSH2 0x4D3 JUMPI PUSH1 0x0 DUP1 REVERT JUMPDEST POP PUSH2 0x4DC PUSH2 0xE87 JUMP JUMPDEST PUSH1 0x40 DUP1 MLOAD SWAP9 DUP10 MSTORE PUSH1 0x20 DUP10 ADD SWAP8 SWAP1 SWAP8 MSTORE SWAP6 DUP8 ADD SWAP5 SWAP1 SWAP5 MSTORE PUSH1 0x60 DUP7 ADD SWAP3 SWAP1 SWAP3 MSTORE PUSH1 0x1 PUSH1 0x1 PUSH1 0xD0 SHL SUB NOT AND PUSH1 0x80 DUP6 ADD MSTORE PUSH1 0xA0 DUP5 ADD MSTORE PUSH1 0xC0 DUP4 ADD MSTORE ISZERO ISZERO PUSH1 0xE0 DUP3 ADD MSTORE PUSH2 0x100 ADD PUSH2 0x3A1 JUMP JUMPDEST CALLVALUE DUP1 ISZERO PUSH2 0x52F JUMPI PUSH1 0x0 DUP1 REVERT JUMPDEST POP PUSH1 0x16 SLOAD PUSH2 0x53D SWAP1 PUSH1 0xFF AND DUP2 JUMP JUMPDEST PUSH1 0x40 MLOAD SWAP1 ISZERO ISZERO DUP2 MSTORE PUSH1 0x20 ADD PUSH2 0x3A1 JUMP JUMPDEST CALLVALUE DUP1 ISZERO PUSH2 0x559 JUMPI PUSH1 0x0 DUP1 REVERT JUMPDEST POP PUSH2 0x4B9 PUSH1 0xF DUP2 JUMP JUMPDEST CALLVALUE DUP1 ISZERO PUSH2 0x56E JUMPI PUSH1 0x0 DUP1 REVERT JUMPDEST POP PUSH1 0x16 SLOAD PUSH2 0x53D SWAP1 PUSH2 0x100 SWAP1 DIV PUSH1 0xFF AND DUP2 JUMP JUMPDEST CALLVALUE DUP1 ISZERO PUSH2 0x58D JUMPI PUSH1 0x0 DUP1 REVERT JUMPDEST POP PUSH2 0x4B9 PUSH1 0xF SLOAD DUP2 JUMP JUMPDEST CALLVALUE DUP1 ISZERO PUSH2 0x5A3 JUMPI PUSH1 0x0 DUP1 REVERT JUMPDEST POP PUSH2 0x402 PUSH2 0x5B2 CALLDATASIZE PUSH1 0x4 PUSH2 0x23B3 JUMP JUMPDEST PUSH2 0xEC0 JUMP JUMPDEST CALLVALUE DUP1 ISZERO PUSH2 0x5C3 JUMPI PUSH1 0x0 DUP1 REVERT JUMPDEST POP PUSH2 0x402 PUSH2 0xF20 JUMP JUMPDEST CALLVALUE DUP1 ISZERO PUSH2 0x5D8 JUMPI PUSH1 0x0 DUP1 REVERT JUMPDEST POP PUSH1 0xB SLOAD PUSH2 0x53D SWAP1 PUSH1 0xFF AND DUP2 JUMP JUMPDEST CALLVALUE DUP1 ISZERO PUSH2 0x5F2 JUMPI PUSH1 0x0 DUP1 REVERT JUMPDEST POP PUSH2 0x402 PUSH2 0x601 CALLDATASIZE PUSH1 0x4 PUSH2 0x2486 JUMP JUMPDEST PUSH2 0x1077 JUMP JUMPDEST CALLVALUE DUP1 ISZERO PUSH2 0x612 JUMPI PUSH1 0x0 DUP1 REVERT JUMPDEST POP PUSH2 0x4B9 PUSH1 0x6 SLOAD DUP2 JUMP JUMPDEST CALLVALUE DUP1 ISZERO PUSH2 0x628 JUMPI PUSH1 0x0 DUP1 REVERT JUMPDEST POP PUSH2 0x4B9 PUSH2 0x10C8 JUMP JUMPDEST CALLVALUE DUP1 ISZERO PUSH2 0x63D JUMPI PUSH1 0x0 DUP1 REVERT JUMPDEST POP PUSH2 0x402 PUSH2 0x64C CALLDATASIZE PUSH1 0x4 PUSH2 0x23B3 JUMP JUMPDEST PUSH2 0x10E1 JUMP JUMPDEST CALLVALUE DUP1 ISZERO PUSH2 0x65D JUMPI PUSH1 0x0 DUP1 REVERT JUMPDEST POP PUSH2 0x402 PUSH2 0x13C5 JUMP JUMPDEST CALLVALUE DUP1 ISZERO PUSH2 0x672 JUMPI PUSH1 0x0 DUP1 REVERT JUMPDEST POP PUSH2 0x402 PUSH2 0x13D7 JUMP JUMPDEST CALLVALUE DUP1 ISZERO PUSH2 0x687 JUMPI PUSH1 0x0 DUP1 REVERT JUMPDEST POP PUSH2 0x4B9 PUSH1 0xE SLOAD DUP2 JUMP JUMPDEST CALLVALUE DUP1 ISZERO PUSH2 0x69D JUMPI PUSH1 0x0 DUP1 REVERT JUMPDEST POP PUSH2 0x443 PUSH2 0x6AC CALLDATASIZE PUSH1 0x4 PUSH2 0x23B3 JUMP JUMPDEST PUSH1 0x10 PUSH1 0x20 MSTORE PUSH1 0x0 SWAP1 DUP2 MSTORE PUSH1 0x40 SWAP1 KECCAK256 SLOAD PUSH1 0xD0 SHL DUP2 JUMP JUMPDEST CALLVALUE DUP1 ISZERO PUSH2 0x6CD JUMPI PUSH1 0x0 DUP1 REVERT JUMPDEST POP PUSH2 0x4B9 PUSH2 0xE01 DUP2 JUMP JUMPDEST CALLVALUE DUP1 ISZERO PUSH2 0x6E3 JUMPI PUSH1 0x0 DUP1 REVERT JUMPDEST POP PUSH2 0x4B9 PUSH2 0x6F2 CALLDATASIZE PUSH1 0x4 PUSH2 0x23B3 JUMP JUMPDEST PUSH1 0x11 PUSH1 0x20 MSTORE PUSH1 0x0 SWAP1 DUP2 MSTORE PUSH1 0x40 SWAP1 KECCAK256 SLOAD DUP2 JUMP JUMPDEST CALLVALUE DUP1 ISZERO PUSH2 0x710 JUMPI PUSH1 0x0 DUP1 REVERT JUMPDEST POP PUSH2 0x53D PUSH2 0x71F CALLDATASIZE PUSH1 0x4 PUSH2 0x24A3 JUMP JUMPDEST PUSH1 0x15 PUSH1 0x20 SWAP1 DUP2 MSTORE PUSH1 0x0 SWAP3 DUP4 MSTORE PUSH1 0x40 DUP1 DUP5 KECCAK256 SWAP1 SWAP2 MSTORE SWAP1 DUP3 MSTORE SWAP1 KECCAK256 SLOAD PUSH1 0xFF AND DUP2 JUMP JUMPDEST CALLVALUE DUP1 ISZERO PUSH2 0x74B JUMPI PUSH1 0x0 DUP1 REVERT JUMPDEST POP PUSH2 0x4B9 PUSH1 0x8 SLOAD DUP2 JUMP JUMPDEST CALLVALUE DUP1 ISZERO PUSH2 0x761 JUMPI PUSH1 0x0 DUP1 REVERT JUMPDEST POP PUSH1 0x0 SLOAD PUSH1 0x1 PUSH1 0x1 PUSH1 0xA0 SHL SUB AND PUSH2 0x3CA JUMP JUMPDEST CALLVALUE DUP1 ISZERO PUSH2 0x77F JUMPI PUSH1 0x0 DUP1 REVERT JUMPDEST POP PUSH2 0x443 PUSH2 0x78E CALLDATASIZE PUSH1 0x4 PUSH2 0x23B3 JUMP JUMPDEST PUSH2 0x13EC JUMP JUMPDEST CALLVALUE DUP1 ISZERO PUSH2 0x79F JUMPI PUSH1 0x0 DUP1 REVERT JUMPDEST POP PUSH1 0x4 SLOAD PUSH2 0x3CA SWAP1 PUSH1 0x1 PUSH1 0x1 PUSH1 0xA0 SHL SUB AND DUP2 JUMP JUMPDEST CALLVALUE DUP1 ISZERO PUSH2 0x7BF JUMPI PUSH1 0x0 DUP1 REVERT JUMPDEST POP PUSH2 0x4B9 PUSH1 0x9 SLOAD DUP2 JUMP JUMPDEST PUSH2 0x402 PUSH2 0x14A8 JUMP JUMPDEST CALLVALUE DUP1 ISZERO PUSH2 0x7DD JUMPI PUSH1 0x0 DUP1 REVERT JUMPDEST POP PUSH2 0x4B9 PUSH2 0x14B0 JUMP JUMPDEST CALLVALUE DUP1 ISZERO PUSH2 0x7F2 JUMPI PUSH1 0x0 DUP1 REVERT JUMPDEST POP PUSH1 0x5 SLOAD PUSH2 0x3CA SWAP1 PUSH1 0x1 PUSH1 0x1 PUSH1 0xA0 SHL SUB AND DUP2 JUMP JUMPDEST CALLVALUE DUP1 ISZERO PUSH2 0x812 JUMPI PUSH1 0x0 DUP1 REVERT JUMPDEST POP PUSH2 0x4B9 PUSH1 0x2 DUP2 JUMP JUMPDEST CALLVALUE DUP1 ISZERO PUSH2 0x827 JUMPI PUSH1 0x0 DUP1 REVERT JUMPDEST POP PUSH2 0x4B9 PUSH1 0xC SLOAD DUP2 JUMP JUMPDEST CALLVALUE DUP1 ISZERO PUSH2 0x83D JUMPI PUSH1 0x0 DUP1 REVERT JUMPDEST POP PUSH2 0x4B9 PUSH2 0x84C CALLDATASIZE PUSH1 0x4 PUSH2 0x23B3 JUMP JUMPDEST PUSH1 0x14 PUSH1 0x20 MSTORE PUSH1 0x0 SWAP1 DUP2 MSTORE PUSH1 0x40 SWAP1 KECCAK256 SLOAD DUP2 JUMP JUMPDEST CALLVALUE DUP1 ISZERO PUSH2 0x86A JUMPI PUSH1 0x0 DUP1 REVERT JUMPDEST POP PUSH2 0x4B9 PUSH1 0x6 DUP2 JUMP JUMPDEST CALLVALUE DUP1 ISZERO PUSH2 0x87F JUMPI PUSH1 0x0 DUP1 REVERT JUMPDEST POP PUSH2 0x402 PUSH2 0x88E CALLDATASIZE PUSH1 0x4 PUSH2 0x2486 JUMP JUMPDEST PUSH2 0x14E0 JUMP JUMPDEST CALLVALUE DUP1 ISZERO PUSH2 0x89F JUMPI PUSH1 0x0 DUP1 REVERT JUMPDEST POP PUSH2 0x53D PUSH2 0x1531 JUMP JUMPDEST CALLVALUE DUP1 ISZERO PUSH2 0x8B4 JUMPI PUSH1 0x0 DUP1 REVERT JUMPDEST POP PUSH1 0x7 SLOAD PUSH2 0x53D SWAP1 PUSH1 0xFF AND DUP2 JUMP JUMPDEST CALLVALUE DUP1 ISZERO PUSH2 0x8CE JUMPI PUSH1 0x0 DUP1 REVERT JUMPDEST POP PUSH2 0x4B9 PUSH1 0xA SLOAD DUP2 JUMP JUMPDEST CALLVALUE DUP1 ISZERO PUSH2 0x8E4 JUMPI PUSH1 0x0 DUP1 REVERT JUMPDEST POP PUSH2 0x4B9 PUSH1 0xD SLOAD DUP2 JUMP JUMPDEST CALLVALUE DUP1 ISZERO PUSH2 0x8FA JUMPI PUSH1 0x0 DUP1 REVERT JUMPDEST POP PUSH2 0x402 PUSH2 0x1540 JUMP JUMPDEST CALLVALUE DUP1 ISZERO PUSH2 0x90F JUMPI PUSH1 0x0 DUP1 REVERT JUMPDEST POP PUSH2 0x402 PUSH2 0x1559 JUMP JUMPDEST CALLVALUE DUP1 ISZERO PUSH2 0x924 JUMPI PUSH1 0x0 DUP1 REVERT JUMPDEST POP PUSH1 0x2 SLOAD PUSH2 0x3CA SWAP1 PUSH1 0x1 PUSH1 0x1 PUSH1 0xA0 SHL SUB AND DUP2 JUMP JUMPDEST CALLVALUE DUP1 ISZERO PUSH2 0x944 JUMPI PUSH1 0x0 DUP1 REVERT JUMPDEST POP PUSH2 0x402 PUSH2 0x953 CALLDATASIZE PUSH1 0x4 PUSH2 0x2486 JUMP JUMPDEST PUSH2 0x16AF JUMP JUMPDEST CALLVALUE DUP1 ISZERO PUSH2 0x964 JUMPI PUSH1 0x0 DUP1 REVERT JUMPDEST POP PUSH2 0x402 PUSH2 0x1700 JUMP JUMPDEST CALLVALUE DUP1 ISZERO PUSH2 0x979 JUMPI PUSH1 0x0 DUP1 REVERT JUMPDEST POP PUSH2 0x402 PUSH2 0x988 CALLDATASIZE PUSH1 0x4 PUSH2 0x24E1 JUMP JUMPDEST PUSH2 0x1714 JUMP JUMPDEST CALLVALUE DUP1 ISZERO PUSH2 0x999 JUMPI PUSH1 0x0 DUP1 REVERT JUMPDEST POP PUSH2 0x402 PUSH2 0x9A8 CALLDATASIZE PUSH1 0x4 PUSH2 0x2486 JUMP JUMPDEST PUSH2 0x172F JUMP JUMPDEST CALLVALUE DUP1 ISZERO PUSH2 0x9B9 JUMPI PUSH1 0x0 DUP1 REVERT JUMPDEST POP PUSH2 0x402 PUSH2 0x9C8 CALLDATASIZE PUSH1 0x4 PUSH2 0x2486 JUMP JUMPDEST PUSH2 0x1759 JUMP JUMPDEST CALLVALUE DUP1 ISZERO PUSH2 0x9D9 JUMPI PUSH1 0x0 DUP1 REVERT JUMPDEST POP PUSH2 0x4B9 PUSH2 0x9E8 CALLDATASIZE PUSH1 0x4 PUSH2 0x23B3 JUMP JUMPDEST PUSH1 0x13 PUSH1 0x20 MSTORE PUSH1 0x0 SWAP1 DUP2 MSTORE PUSH1 0x40 SWAP1 KECCAK256 SLOAD DUP2 JUMP JUMPDEST CALLVALUE DUP1 ISZERO PUSH2 0xA06 JUMPI PUSH1 0x0 DUP1 REVERT JUMPDEST POP PUSH1 0x3 SLOAD PUSH2 0x3CA SWAP1 PUSH1 0x1 PUSH1 0x1 PUSH1 0xA0 SHL SUB AND DUP2 JUMP JUMPDEST PUSH1 0x0 DUP2 DUP2 MSTORE PUSH1 0x10 PUSH1 0x20 SWAP1 DUP2 MSTORE PUSH1 0x40 DUP1 DUP4 KECCAK256 SLOAD PUSH1 0x11 DUP4 MSTORE DUP2 DUP5 KECCAK256 SLOAD PUSH1 0x12 DUP5 MSTORE DUP3 DUP6 KECCAK256 DUP1 SLOAD DUP5 MLOAD DUP2 DUP8 MUL DUP2 ADD DUP8 ADD SWAP1 SWAP6 MSTORE DUP1 DUP6 MSTORE PUSH1 0xD0 SWAP4 SWAP1 SWAP4 SHL SWAP6 SWAP2 SWAP5 PUSH1 0x60 SWAP5 SWAP3 SWAP4 DUP5 SWAP4 SWAP3 SWAP2 DUP4 ADD DUP3 DUP3 DUP1 ISZERO PUSH2 0xA97 JUMPI PUSH1 0x20 MUL DUP3 ADD SWAP2 SWAP1 PUSH1 0x0 MSTORE PUSH1 0x20 PUSH1 0x0 KECCAK256 SWAP1 JUMPDEST DUP2 SLOAD PUSH1 0x1 PUSH1 0x1 PUSH1 0xA0 SHL SUB AND DUP2 MSTORE PUSH1 0x1 SWAP1 SWAP2 ADD SWAP1 PUSH1 0x20 ADD DUP1 DUP4 GT PUSH2 0xA79 JUMPI JUMPDEST POP POP POP PUSH1 0x0 SWAP9 DUP10 MSTORE POP POP PUSH1 0x13 PUSH1 0x20 SWAP1 DUP2 MSTORE PUSH1 0x40 DUP1 DUP10 KECCAK256 SLOAD PUSH1 0x14 SWAP1 SWAP3 MSTORE SWAP1 SWAP8 KECCAK256 SLOAD SWAP6 SWAP8 SWAP5 SWAP7 SWAP1 SWAP6 SWAP1 SWAP5 SWAP1 SWAP4 POP SWAP2 POP POP JUMP JUMPDEST PUSH1 0x12 PUSH1 0x20 MSTORE DUP2 PUSH1 0x0 MSTORE PUSH1 0x40 PUSH1 0x0 KECCAK256 DUP2 DUP2 SLOAD DUP2 LT PUSH2 0xAE3 JUMPI PUSH1 0x0 DUP1 REVERT JUMPDEST PUSH1 0x0 SWAP2 DUP3 MSTORE PUSH1 0x20 SWAP1 SWAP2 KECCAK256 ADD SLOAD PUSH1 0x1 PUSH1 0x1 PUSH1 0xA0 SHL SUB AND SWAP2 POP DUP3 SWAP1 POP JUMP JUMPDEST PUSH2 0xB07 PUSH2 0x1794 JUMP JUMPDEST PUSH1 0x1 PUSH1 0x1 PUSH1 0xA0 SHL SUB DUP2 AND PUSH2 0xB2E JUMPI PUSH1 0x40 MLOAD PUSH4 0xD92E233D PUSH1 0xE0 SHL DUP2 MSTORE PUSH1 0x4 ADD PUSH1 0x40 MLOAD DUP1 SWAP2 SUB SWAP1 REVERT JUMPDEST PUSH1 0x5 DUP1 SLOAD PUSH1 0x1 PUSH1 0x1 PUSH1 0xA0 SHL SUB NOT AND PUSH1 0x1 PUSH1 0x1 PUSH1 0xA0 SHL SUB DUP4 AND SWAP1 DUP2 OR SWAP1 SWAP2 SSTORE PUSH1 0x40 MLOAD PUSH32 0x1F53E003AAF46AF23AEB50E85F438D6F0C33618CE44E3545F1EC030C79B17729 SWAP1 PUSH1 0x0 SWAP1 LOG2 POP JUMP JUMPDEST PUSH2 0xB80 PUSH2 0x1794 JUMP JUMPDEST PUSH1 0x16 DUP1 SLOAD PUSH1 0xFF NOT AND PUSH1 0x1 OR SWAP1 SSTORE JUMP JUMPDEST PUSH2 0xB97 PUSH2 0x17C1 JUMP JUMPDEST PUSH1 0x3 SLOAD PUSH1 0x1 PUSH1 0x1 PUSH1 0xA0 SHL SUB AND CALLER EQ PUSH2 0xBC2 JUMPI PUSH1 0x40 MLOAD PUSH4 0x91655201 PUSH1 0xE0 SHL DUP2 MSTORE PUSH1 0x4 ADD PUSH1 0x40 MLOAD DUP1 SWAP2 SUB SWAP1 REVERT JUMPDEST PUSH1 0xB SLOAD PUSH1 0xFF AND PUSH2 0xBE5 JUMPI PUSH1 0x40 MLOAD PUSH4 0x3A5F7B57 PUSH1 0xE0 SHL DUP2 MSTORE PUSH1 0x4 ADD PUSH1 0x40 MLOAD DUP1 SWAP2 SUB SWAP1 REVERT JUMPDEST PUSH2 0xBED PUSH2 0x17DD JUMP JUMPDEST ISZERO PUSH2 0xC0B JUMPI PUSH1 0x40 MLOAD PUSH4 0x717824FB PUSH1 0xE0 SHL DUP2 MSTORE PUSH1 0x4 ADD PUSH1 0x40 MLOAD DUP1 SWAP2 SUB SWAP1 REVERT JUMPDEST PUSH1 0x6 DUP1 SLOAD SWAP1 PUSH1 0x0 PUSH2 0xC1B DUP4 PUSH2 0x2514 JUMP JUMPDEST SWAP2 SWAP1 POP SSTORE POP PUSH1 0x8 SLOAD PUSH32 0x494D93A08DCA016BFF87FC5E35DE704731B23D47EB35DA9499BE2DDB7536DA22 PUSH1 0x6 SLOAD PUSH1 0x9 SLOAD PUSH1 0x40 MLOAD PUSH2 0xC61 SWAP3 SWAP2 SWAP1 SWAP2 DUP3 MSTORE PUSH1 0x20 DUP3 ADD MSTORE PUSH1 0x40 ADD SWAP1 JUMP JUMPDEST PUSH1 0x40 MLOAD DUP1 SWAP2 SUB SWAP1 LOG2 PUSH2 0xC80 PUSH1 0x1 PUSH1 0x0 DUP1 MLOAD PUSH1 0x20 PUSH2 0x27D6 DUP4 CODECOPY DUP2 MLOAD SWAP2 MSTORE SSTORE JUMP JUMPDEST JUMP JUMPDEST PUSH1 0x40 DUP1 MLOAD PUSH1 0x6 DUP1 DUP3 MSTORE DUP2 DUP4 ADD SWAP1 SWAP3 MSTORE PUSH1 0x0 SWAP2 DUP3 SWAP2 SWAP1 PUSH1 0x20 DUP3 ADD DUP2 DUP1 CALLDATASIZE DUP4 CALLDATACOPY ADD SWAP1 POP POP SWAP1 POP PUSH1 0x0 JUMPDEST PUSH1 0x6 DUP2 LT ISZERO PUSH2 0xD31 JUMPI PUSH1 0x40 MLOAD DUP1 PUSH1 0x60 ADD PUSH1 0x40 MSTORE DUP1 PUSH1 0x24 DUP2 MSTORE PUSH1 0x20 ADD PUSH2 0x27F6 PUSH1 0x24 SWAP2 CODECOPY PUSH1 0x24 DUP3 PUSH1 0x6 SLOAD PUSH2 0xCDB SWAP2 SWAP1 PUSH2 0x2543 JUMP JUMPDEST PUSH2 0xCE5 SWAP2 SWAP1 PUSH2 0x2572 JUMP JUMPDEST DUP2 MLOAD DUP2 LT PUSH2 0xCF5 JUMPI PUSH2 0xCF5 PUSH2 0x2586 JUMP JUMPDEST PUSH1 0x20 ADD ADD MLOAD PUSH1 0xF8 SHR PUSH1 0xF8 SHL DUP3 DUP3 DUP2 MLOAD DUP2 LT PUSH2 0xD12 JUMPI PUSH2 0xD12 PUSH2 0x2586 JUMP JUMPDEST PUSH1 0x20 ADD ADD SWAP1 PUSH1 0x1 PUSH1 0x1 PUSH1 0xF8 SHL SUB NOT AND SWAP1 DUP2 PUSH1 0x0 BYTE SWAP1 MSTORE8 POP PUSH1 0x1 ADD PUSH2 0xCA9 JUMP JUMPDEST POP PUSH2 0xD3B DUP2 PUSH2 0x259C JUMP JUMPDEST SWAP2 POP POP SWAP1 JUMP JUMPDEST CALLVALUE PUSH1 0x0 SUB PUSH2 0xD62 JUMPI PUSH1 0x40 MLOAD PUSH4 0x1F2A2005 PUSH1 0xE0 SHL DUP2 MSTORE PUSH1 0x4 ADD PUSH1 0x40 MLOAD DUP1 SWAP2 SUB SWAP1 REVERT JUMPDEST CALLVALUE PUSH1 0xC PUSH1 0x0 DUP3 DUP3 SLOAD PUSH2 0xD74 SWAP2 SWAP1 PUSH2 0x2543 JUMP JUMPDEST SWAP1 SWAP2 SSTORE POP POP PUSH1 0x1 SLOAD PUSH1 0x40 DUP1 MLOAD PUSH4 0xD0E30DB PUSH1 0xE4 SHL DUP2 MSTORE SWAP1 MLOAD PUSH1 0x1 PUSH1 0x1 PUSH1 0xA0 SHL SUB SWAP1 SWAP3 AND SWAP2 PUSH4 0xD0E30DB0 SWAP2 CALLVALUE SWAP2 PUSH1 0x4 DUP1 DUP4 ADD SWAP3 PUSH1 0x0 SWAP3 SWAP2 SWAP1 DUP3 SWAP1 SUB ADD DUP2 DUP6 DUP9 DUP1 EXTCODESIZE ISZERO DUP1 ISZERO PUSH2 0xDC0 JUMPI PUSH1 0x0 DUP1 REVERT JUMPDEST POP GAS CALL ISZERO DUP1 ISZERO PUSH2 0xDD4 JUMPI RETURNDATASIZE PUSH1 0x0 DUP1 RETURNDATACOPY RETURNDATASIZE PUSH1 0x0 REVERT JUMPDEST POP POP PUSH1 0x40 MLOAD CALLVALUE DUP2 MSTORE CALLER SWAP4 POP PUSH32 0xF0D496561FE25891CA8568B6877B038238629D8DBE5777373589BECE931DC172 SWAP3 POP PUSH1 0x20 ADD SWAP1 POP JUMPDEST PUSH1 0x40 MLOAD DUP1 SWAP2 SUB SWAP1 LOG2 JUMP JUMPDEST PUSH2 0xE1A PUSH2 0x1794 JUMP JUMPDEST DUP1 PUSH1 0x0 SUB PUSH2 0xE3B JUMPI PUSH1 0x40 MLOAD PUSH4 0x40250F01 PUSH1 0xE1 SHL DUP2 MSTORE PUSH1 0x4 ADD PUSH1 0x40 MLOAD DUP1 SWAP2 SUB SWAP1 REVERT JUMPDEST PUSH1 0xE DUP2 SWAP1 SSTORE PUSH1 0x40 MLOAD DUP2 DUP2 MSTORE PUSH32 0x1E64FF98418E31D486498B471741CC3FF92302FA146E6E124E3025186CFAB465 SWAP1 PUSH1 0x20 ADD JUMPDEST PUSH1 0x40 MLOAD DUP1 SWAP2 SUB SWAP1 LOG1 POP JUMP JUMPDEST PUSH2 0xE84 PUSH1 0xF PUSH2 0xE01 PUSH2 0x2543 JUMP JUMPDEST DUP2 JUMP JUMPDEST PUSH1 0x8 SLOAD PUSH1 0x9 SLOAD PUSH1 0xA SLOAD PUSH1 0x6 SLOAD PUSH1 0x0 DUP1 DUP1 DUP1 PUSH2 0xEA0 PUSH2 0xC82 JUMP JUMPDEST SWAP4 POP PUSH1 0xC SLOAD SWAP3 POP PUSH1 0xD SLOAD SWAP2 POP PUSH2 0xEB4 PUSH2 0x17DD JUMP JUMPDEST SWAP1 POP SWAP1 SWAP2 SWAP3 SWAP4 SWAP5 SWAP6 SWAP7 SWAP8 JUMP JUMPDEST PUSH2 0xEC8 PUSH2 0x1794 JUMP JUMPDEST PUSH2 0x3E8 DUP2 GT ISZERO PUSH2 0xEEB JUMPI PUSH1 0x40 MLOAD PUSH4 0x1F2A2005 PUSH1 0xE0 SHL DUP2 MSTORE PUSH1 0x4 ADD PUSH1 0x40 MLOAD DUP1 SWAP2 SUB SWAP1 REVERT JUMPDEST PUSH1 0xF DUP2 SWAP1 SSTORE PUSH1 0x40 MLOAD DUP2 DUP2 MSTORE PUSH32 0x21B2CFEF155ACF409755EC06F4F701C8D13A5B6339FE8D1EE89AFB57318F7084 SWAP1 PUSH1 0x20 ADD PUSH2 0xE6C JUMP JUMPDEST PUSH2 0xF28 PUSH2 0x17C1 JUMP JUMPDEST PUSH1 0x5 SLOAD PUSH1 0x1 PUSH1 0x1 PUSH1 0xA0 SHL SUB AND CALLER EQ PUSH2 0xF53 JUMPI PUSH1 0x40 MLOAD PUSH4 0x5B94333 PUSH1 0xE0 SHL DUP2 MSTORE PUSH1 0x4 ADD PUSH1 0x40 MLOAD DUP1 SWAP2 SUB SWAP1 REVERT JUMPDEST PUSH1 0xB SLOAD PUSH1 0xFF AND PUSH2 0xF76 JUMPI PUSH1 0x40 MLOAD PUSH4 0x3A5F7B57 PUSH1 0xE0 SHL DUP2 MSTORE PUSH1 0x4 ADD PUSH1 0x40 MLOAD DUP1 SWAP2 SUB SWAP1 REVERT JUMPDEST PUSH1 0x16 SLOAD PUSH2 0x100 SWAP1 DIV PUSH1 0xFF AND ISZERO PUSH2 0xF9F JUMPI PUSH1 0x40 MLOAD PUSH4 0x4C211CCD PUSH1 0xE0 SHL DUP2 MSTORE PUSH1 0x4 ADD PUSH1 0x40 MLOAD DUP1 SWAP2 SUB SWAP1 REVERT JUMPDEST PUSH1 0x0 PUSH1 0xA SLOAD TIMESTAMP PUSH2 0xFAF SWAP2 SWAP1 PUSH2 0x25D3 JUMP JUMPDEST SWAP1 POP PUSH2 0xE01 DUP2 LT ISZERO PUSH2 0xFE4 JUMPI PUSH1 0x40 MLOAD PUSH4 0x2C690A37 PUSH1 0xE1 SHL DUP2 MSTORE PUSH1 0x4 DUP2 ADD DUP3 SWAP1 MSTORE PUSH2 0xE01 PUSH1 0x24 DUP3 ADD MSTORE PUSH1 0x44 ADD JUMPDEST PUSH1 0x40 MLOAD DUP1 SWAP2 SUB SWAP1 REVERT JUMPDEST PUSH1 0x6 PUSH1 0x9 SLOAD LT ISZERO PUSH2 0x1057 JUMPI PUSH1 0x9 DUP1 SLOAD SWAP1 PUSH1 0x0 PUSH2 0xFFF DUP4 PUSH2 0x2514 JUMP JUMPDEST SWAP2 SWAP1 POP SSTORE POP TIMESTAMP PUSH1 0xA DUP2 SWAP1 SSTORE POP PUSH1 0x8 SLOAD PUSH32 0xE9A2985393FA4BB459D73D85249DF3B5923E70FB93B7B9C307E72359AB167587 PUSH1 0x9 SLOAD TIMESTAMP PUSH1 0x40 MLOAD PUSH2 0x104A SWAP3 SWAP2 SWAP1 SWAP2 DUP3 MSTORE PUSH1 0x20 DUP3 ADD MSTORE PUSH1 0x40 ADD SWAP1 JUMP JUMPDEST PUSH1 0x40 MLOAD DUP1 SWAP2 SUB SWAP1 LOG2 PUSH2 0x105F JUMP JUMPDEST PUSH2 0x105F PUSH2 0x180B JUMP JUMPDEST POP PUSH2 0xC80 PUSH1 0x1 PUSH1 0x0 DUP1 MLOAD PUSH1 0x20 PUSH2 0x27D6 DUP4 CODECOPY DUP2 MLOAD SWAP2 MSTORE SSTORE JUMP JUMPDEST PUSH2 0x107F PUSH2 0x1794 JUMP JUMPDEST PUSH1 0x1 PUSH1 0x1 PUSH1 0xA0 SHL SUB DUP2 AND PUSH2 0x10A6 JUMPI PUSH1 0x40 MLOAD PUSH4 0xD92E233D PUSH1 0xE0 SHL DUP2 MSTORE PUSH1 0x4 ADD PUSH1 0x40 MLOAD DUP1 SWAP2 SUB SWAP1 REVERT JUMPDEST PUSH1 0x1 DUP1 SLOAD PUSH1 0x1 PUSH1 0x1 PUSH1 0xA0 SHL SUB NOT AND PUSH1 0x1 PUSH1 0x1 PUSH1 0xA0 SHL SUB SWAP3 SWAP1 SWAP3 AND SWAP2 SWAP1 SWAP2 OR SWAP1 SSTORE JUMP JUMPDEST PUSH1 0x6 PUSH2 0x10D7 PUSH1 0xF PUSH2 0xE01 PUSH2 0x2543 JUMP JUMPDEST PUSH2 0xE84 SWAP2 SWAP1 PUSH2 0x25E6 JUMP JUMPDEST PUSH2 0x10E9 PUSH2 0x17C1 JUMP JUMPDEST PUSH1 0xB SLOAD PUSH1 0xFF AND PUSH2 0x110C JUMPI PUSH1 0x40 MLOAD PUSH4 0x3A5F7B57 PUSH1 0xE0 SHL DUP2 MSTORE PUSH1 0x4 ADD PUSH1 0x40 MLOAD DUP1 SWAP2 SUB SWAP1 REVERT JUMPDEST PUSH1 0x0 DUP2 DUP2 MSTORE PUSH1 0x10 PUSH1 0x20 MSTORE PUSH1 0x40 SWAP1 KECCAK256 SLOAD PUSH1 0xD0 SHL PUSH1 0x1 PUSH1 0x1 PUSH1 0xD0 SHL SUB NOT AND PUSH2 0x1148 JUMPI PUSH1 0x40 MLOAD PUSH4 0x668FEE6F PUSH1 0xE1 SHL DUP2 MSTORE PUSH1 0x4 DUP2 ADD DUP3 SWAP1 MSTORE PUSH1 0x24 ADD PUSH2 0xFDB JUMP JUMPDEST PUSH1 0x0 DUP2 DUP2 MSTORE PUSH1 0x15 PUSH1 0x20 SWAP1 DUP2 MSTORE PUSH1 0x40 DUP1 DUP4 KECCAK256 CALLER DUP5 MSTORE SWAP1 SWAP2 MSTORE SWAP1 KECCAK256 SLOAD PUSH1 0xFF AND ISZERO PUSH2 0x118C JUMPI PUSH1 0x40 MLOAD PUSH4 0x732750ED PUSH1 0xE1 SHL DUP2 MSTORE CALLER PUSH1 0x4 DUP3 ADD MSTORE PUSH1 0x24 DUP2 ADD DUP3 SWAP1 MSTORE PUSH1 0x44 ADD PUSH2 0xFDB JUMP JUMPDEST PUSH2 0x1197 PUSH1 0x2 DUP3 PUSH2 0x2543 JUMP JUMPDEST PUSH2 0x11A2 SWAP1 PUSH1 0x1 PUSH2 0x2543 JUMP JUMPDEST PUSH1 0x8 SLOAD GT ISZERO PUSH2 0x11C7 JUMPI PUSH1 0x40 MLOAD PUSH4 0x55249329 PUSH1 0xE0 SHL DUP2 MSTORE PUSH1 0x4 DUP2 ADD DUP3 SWAP1 MSTORE PUSH1 0x24 ADD PUSH2 0xFDB JUMP JUMPDEST PUSH1 0x0 DUP2 DUP2 MSTORE PUSH1 0x12 PUSH1 0x20 SWAP1 DUP2 MSTORE PUSH1 0x40 DUP1 DUP4 KECCAK256 DUP1 SLOAD DUP3 MLOAD DUP2 DUP6 MUL DUP2 ADD DUP6 ADD SWAP1 SWAP4 MSTORE DUP1 DUP4 MSTORE DUP5 SWAP4 DUP4 ADD DUP3 DUP3 DUP1 ISZERO PUSH2 0x1224 JUMPI PUSH1 0x20 MUL DUP3 ADD SWAP2 SWAP1 PUSH1 0x0 MSTORE PUSH1 0x20 PUSH1 0x0 KECCAK256 SWAP1 JUMPDEST DUP2 SLOAD PUSH1 0x1 PUSH1 0x1 PUSH1 0xA0 SHL SUB AND DUP2 MSTORE PUSH1 0x1 SWAP1 SWAP2 ADD SWAP1 PUSH1 0x20 ADD DUP1 DUP4 GT PUSH2 0x1206 JUMPI JUMPDEST POP POP POP POP POP SWAP1 POP PUSH1 0x0 JUMPDEST DUP2 MLOAD DUP2 LT ISZERO PUSH2 0x127A JUMPI CALLER PUSH1 0x1 PUSH1 0x1 PUSH1 0xA0 SHL SUB AND DUP3 DUP3 DUP2 MLOAD DUP2 LT PUSH2 0x1253 JUMPI PUSH2 0x1253 PUSH2 0x2586 JUMP JUMPDEST PUSH1 0x20 MUL PUSH1 0x20 ADD ADD MLOAD PUSH1 0x1 PUSH1 0x1 PUSH1 0xA0 SHL SUB AND SUB PUSH2 0x1272 JUMPI PUSH1 0x1 SWAP3 POP PUSH2 0x127A JUMP JUMPDEST PUSH1 0x1 ADD PUSH2 0x122E JUMP JUMPDEST POP DUP2 PUSH2 0x12A2 JUMPI PUSH1 0x40 MLOAD PUSH4 0xEFBEAF33 PUSH1 0xE0 SHL DUP2 MSTORE CALLER PUSH1 0x4 DUP3 ADD MSTORE PUSH1 0x24 DUP2 ADD DUP5 SWAP1 MSTORE PUSH1 0x44 ADD PUSH2 0xFDB JUMP JUMPDEST PUSH1 0x0 DUP4 DUP2 MSTORE PUSH1 0x13 PUSH1 0x20 MSTORE PUSH1 0x40 DUP2 KECCAK256 SLOAD SWAP1 DUP2 SWAP1 SUB PUSH2 0x12D2 JUMPI PUSH1 0x40 MLOAD PUSH4 0x1F2A2005 PUSH1 0xE0 SHL DUP2 MSTORE PUSH1 0x4 ADD PUSH1 0x40 MLOAD DUP1 SWAP2 SUB SWAP1 REVERT JUMPDEST PUSH1 0x0 DUP5 DUP2 MSTORE PUSH1 0x15 PUSH1 0x20 SWAP1 DUP2 MSTORE PUSH1 0x40 DUP1 DUP4 KECCAK256 CALLER DUP5 MSTORE SWAP1 SWAP2 MSTORE DUP2 KECCAK256 DUP1 SLOAD PUSH1 0xFF NOT AND PUSH1 0x1 OR SWAP1 SSTORE PUSH1 0xD DUP1 SLOAD DUP4 SWAP3 SWAP1 PUSH2 0x1308 SWAP1 DUP5 SWAP1 PUSH2 0x25D3 JUMP JUMPDEST SWAP1 SWAP2 SSTORE POP POP PUSH1 0x1 SLOAD PUSH1 0x40 MLOAD PUSH4 0x6203B43B PUSH1 0xE1 SHL DUP2 MSTORE CALLER PUSH1 0x4 DUP3 ADD MSTORE PUSH1 0x24 DUP2 ADD DUP4 SWAP1 MSTORE PUSH1 0x1 PUSH1 0x1 PUSH1 0xA0 SHL SUB SWAP1 SWAP2 AND SWAP1 PUSH4 0xC4076876 SWAP1 PUSH1 0x44 ADD PUSH1 0x0 PUSH1 0x40 MLOAD DUP1 DUP4 SUB DUP2 PUSH1 0x0 DUP8 DUP1 EXTCODESIZE ISZERO DUP1 ISZERO PUSH2 0x1359 JUMPI PUSH1 0x0 DUP1 REVERT JUMPDEST POP GAS CALL ISZERO DUP1 ISZERO PUSH2 0x136D JUMPI RETURNDATASIZE PUSH1 0x0 DUP1 RETURNDATACOPY RETURNDATASIZE PUSH1 0x0 REVERT JUMPDEST POP POP PUSH1 0x40 MLOAD DUP4 DUP2 MSTORE DUP7 SWAP3 POP CALLER SWAP2 POP PUSH32 0x7472E24DE4628E34B41A2AA1688ED4B46A9145B2DE1CF93D74902473CCC1740D SWAP1 PUSH1 0x20 ADD PUSH1 0x40 MLOAD DUP1 SWAP2 SUB SWAP1 LOG3 POP POP POP PUSH2 0x13C2 PUSH1 0x1 PUSH1 0x0 DUP1 MLOAD PUSH1 0x20 PUSH2 0x27D6 DUP4 CODECOPY DUP2 MLOAD SWAP2 MSTORE SSTORE JUMP JUMPDEST POP JUMP JUMPDEST PUSH2 0x13CD PUSH2 0x1794 JUMP JUMPDEST PUSH2 0xC80 PUSH1 0x0 PUSH2 0x1A2E JUMP JUMPDEST PUSH2 0x13DF PUSH2 0x1794 JUMP JUMPDEST PUSH1 0x16 DUP1 SLOAD PUSH2 0xFF00 NOT AND SWAP1 SSTORE JUMP JUMPDEST PUSH1 0x40 DUP1 MLOAD PUSH1 0x6 DUP1 DUP3 MSTORE DUP2 DUP4 ADD SWAP1 SWAP3 MSTORE PUSH1 0x0 SWAP2 DUP3 SWAP2 SWAP1 PUSH1 0x20 DUP3 ADD DUP2 DUP1 CALLDATASIZE DUP4 CALLDATACOPY ADD SWAP1 POP POP SWAP1 POP PUSH1 0x0 JUMPDEST PUSH1 0x6 DUP2 LT ISZERO PUSH2 0x1497 JUMPI PUSH1 0x40 MLOAD DUP1 PUSH1 0x60 ADD PUSH1 0x40 MSTORE DUP1 PUSH1 0x24 DUP2 MSTORE PUSH1 0x20 ADD PUSH2 0x27F6 PUSH1 0x24 SWAP2 CODECOPY PUSH1 0x24 PUSH2 0x1441 DUP4 DUP8 PUSH2 0x2543 JUMP JUMPDEST PUSH2 0x144B SWAP2 SWAP1 PUSH2 0x2572 JUMP JUMPDEST DUP2 MLOAD DUP2 LT PUSH2 0x145B JUMPI PUSH2 0x145B PUSH2 0x2586 JUMP JUMPDEST PUSH1 0x20 ADD ADD MLOAD PUSH1 0xF8 SHR PUSH1 0xF8 SHL DUP3 DUP3 DUP2 MLOAD DUP2 LT PUSH2 0x1478 JUMPI PUSH2 0x1478 PUSH2 0x2586 JUMP JUMPDEST PUSH1 0x20 ADD ADD SWAP1 PUSH1 0x1 PUSH1 0x1 PUSH1 0xF8 SHL SUB NOT AND SWAP1 DUP2 PUSH1 0x0 BYTE SWAP1 MSTORE8 POP PUSH1 0x1 ADD PUSH2 0x1413 JUMP JUMPDEST POP PUSH2 0x14A1 DUP2 PUSH2 0x259C JUMP JUMPDEST SWAP4 SWAP3 POP POP POP JUMP JUMPDEST PUSH2 0xD41 PUSH2 0x1794 JUMP JUMPDEST PUSH1 0x0 DUP1 PUSH1 0xA SLOAD TIMESTAMP PUSH2 0x14C1 SWAP2 SWAP1 PUSH2 0x25D3 JUMP JUMPDEST SWAP1 POP PUSH2 0xE01 DUP2 LT PUSH2 0x14D4 JUMPI PUSH1 0x0 SWAP2 POP POP SWAP1 JUMP JUMPDEST PUSH2 0xD3B DUP2 PUSH2 0xE01 PUSH2 0x25D3 JUMP JUMPDEST PUSH2 0x14E8 PUSH2 0x1794 JUMP JUMPDEST PUSH1 0x1 PUSH1 0x1 PUSH1 0xA0 SHL SUB DUP2 AND PUSH2 0x150F JUMPI PUSH1 0x40 MLOAD PUSH4 0xD92E233D PUSH1 0xE0 SHL DUP2 MSTORE PUSH1 0x4 ADD PUSH1 0x40 MLOAD DUP1 SWAP2 SUB SWAP1 REVERT JUMPDEST PUSH1 0x3 DUP1 SLOAD PUSH1 0x1 PUSH1 0x1 PUSH1 0xA0 SHL SUB NOT AND PUSH1 0x1 PUSH1 0x1 PUSH1 0xA0 SHL SUB SWAP3 SWAP1 SWAP3 AND SWAP2 SWAP1 SWAP2 OR SWAP1 SSTORE JUMP JUMPDEST PUSH1 0x0 PUSH2 0x153B PUSH2 0x17DD JUMP JUMPDEST SWAP1 POP SWAP1 JUMP JUMPDEST PUSH2 0x1548 PUSH2 0x1794 JUMP JUMPDEST PUSH1 0x16 DUP1 SLOAD PUSH2 0xFF00 NOT AND PUSH2 0x100 OR SWAP1 SSTORE JUMP JUMPDEST PUSH2 0x1561 PUSH2 0x1794 JUMP JUMPDEST PUSH1 0xB SLOAD PUSH1 0xFF AND ISZERO PUSH2 0x1585 JUMPI PUSH1 0x40 MLOAD PUSH4 0xBA26162B PUSH1 0xE0 SHL DUP2 MSTORE PUSH1 0x4 ADD PUSH1 0x40 MLOAD DUP1 SWAP2 SUB SWAP1 REVERT JUMPDEST PUSH1 0xB DUP1 SLOAD PUSH1 0xFF NOT AND PUSH1 0x1 SWAP1 DUP2 OR SWAP1 SWAP2 SSTORE PUSH1 0x8 DUP2 SWAP1 SSTORE PUSH1 0x9 DUP2 SWAP1 SSTORE TIMESTAMP PUSH1 0xA SSTORE PUSH1 0x2 SLOAD PUSH1 0x40 MLOAD PUSH4 0x77923C5 PUSH1 0xE3 SHL DUP2 MSTORE PUSH1 0x4 DUP2 ADD SWAP3 SWAP1 SWAP3 MSTORE PUSH1 0x1 PUSH1 0x1 PUSH1 0xA0 SHL SUB AND SWAP1 PUSH4 0x3BC91E28 SWAP1 PUSH1 0x24 ADD PUSH1 0x0 PUSH1 0x40 MLOAD DUP1 DUP4 SUB DUP2 PUSH1 0x0 DUP8 DUP1 EXTCODESIZE ISZERO DUP1 ISZERO PUSH2 0x15E8 JUMPI PUSH1 0x0 DUP1 REVERT JUMPDEST POP GAS CALL ISZERO DUP1 ISZERO PUSH2 0x15FC JUMPI RETURNDATASIZE PUSH1 0x0 DUP1 RETURNDATACOPY RETURNDATASIZE PUSH1 0x0 REVERT JUMPDEST POP POP POP POP PUSH2 0x160B PUSH1 0x8 SLOAD PUSH2 0x1A7E JUMP JUMPDEST PUSH1 0x40 MLOAD TIMESTAMP DUP2 MSTORE PUSH32 0x50AD08F58A27F2851D7E3A1B3A6A46B290F2CE677E99642D30FF639721E77790 SWAP1 PUSH1 0x20 ADD PUSH1 0x40 MLOAD DUP1 SWAP2 SUB SWAP1 LOG1 PUSH1 0x8 SLOAD PUSH1 0x40 MLOAD TIMESTAMP DUP2 MSTORE PUSH32 0x278844837BCF8364A705384BF3A2812901F54155BAE86DEA81DD52AA5B9EC0E3 SWAP1 PUSH1 0x20 ADD PUSH1 0x40 MLOAD DUP1 SWAP2 SUB SWAP1 LOG2 PUSH1 0x8 SLOAD PUSH1 0x9 SLOAD PUSH1 0x40 DUP1 MLOAD SWAP2 DUP3 MSTORE TIMESTAMP PUSH1 0x20 DUP4 ADD MSTORE PUSH32 0xE9A2985393FA4BB459D73D85249DF3B5923E70FB93B7B9C307E72359AB167587 SWAP2 ADD PUSH2 0xE08 JUMP JUMPDEST PUSH2 0x16B7 PUSH2 0x1794 JUMP JUMPDEST PUSH1 0x1 PUSH1 0x1 PUSH1 0xA0 SHL SUB DUP2 AND PUSH2 0x16DE JUMPI PUSH1 0x40 MLOAD PUSH4 0xD92E233D PUSH1 0xE0 SHL DUP2 MSTORE PUSH1 0x4 ADD PUSH1 0x40 MLOAD DUP1 SWAP2 SUB SWAP1 REVERT JUMPDEST PUSH1 0x2 DUP1 SLOAD PUSH1 0x1 PUSH1 0x1 PUSH1 0xA0 SHL SUB NOT AND PUSH1 0x1 PUSH1 0x1 PUSH1 0xA0 SHL SUB SWAP3 SWAP1 SWAP3 AND SWAP2 SWAP1 SWAP2 OR SWAP1 SSTORE JUMP JUMPDEST PUSH2 0x1708 PUSH2 0x1794 JUMP JUMPDEST PUSH1 0x16 DUP1 SLOAD PUSH1 0xFF NOT AND SWAP1 SSTORE JUMP JUMPDEST PUSH2 0x171C PUSH2 0x1794 JUMP JUMPDEST PUSH1 0x7 DUP1 SLOAD PUSH1 0xFF NOT AND SWAP2 ISZERO ISZERO SWAP2 SWAP1 SWAP2 OR SWAP1 SSTORE JUMP JUMPDEST PUSH2 0x1737 PUSH2 0x1794 JUMP JUMPDEST PUSH1 0x4 DUP1 SLOAD PUSH1 0x1 PUSH1 0x1 PUSH1 0xA0 SHL SUB NOT AND PUSH1 0x1 PUSH1 0x1 PUSH1 0xA0 SHL SUB SWAP3 SWAP1 SWAP3 AND SWAP2 SWAP1 SWAP2 OR SWAP1 SSTORE JUMP JUMPDEST PUSH2 0x1761 PUSH2 0x1794 JUMP JUMPDEST PUSH1 0x1 PUSH1 0x1 PUSH1 0xA0 SHL SUB DUP2 AND PUSH2 0x178B JUMPI PUSH1 0x40 MLOAD PUSH4 0x1E4FBDF7 PUSH1 0xE0 SHL DUP2 MSTORE PUSH1 0x0 PUSH1 0x4 DUP3 ADD MSTORE PUSH1 0x24 ADD PUSH2 0xFDB JUMP JUMPDEST PUSH2 0x13C2 DUP2 PUSH2 0x1A2E JUMP JUMPDEST PUSH1 0x0 SLOAD PUSH1 0x1 PUSH1 0x1 PUSH1 0xA0 SHL SUB AND CALLER EQ PUSH2 0xC80 JUMPI PUSH1 0x40 MLOAD PUSH4 0x118CDAA7 PUSH1 0xE0 SHL DUP2 MSTORE CALLER PUSH1 0x4 DUP3 ADD MSTORE PUSH1 0x24 ADD PUSH2 0xFDB JUMP JUMPDEST PUSH2 0x17C9 PUSH2 0x1B63 JUMP JUMPDEST PUSH1 0x2 PUSH1 0x0 DUP1 MLOAD PUSH1 0x20 PUSH2 0x27D6 DUP4 CODECOPY DUP2 MLOAD SWAP2 MSTORE SSTORE JUMP JUMPDEST PUSH1 0xB SLOAD PUSH1 0x0 SWAP1 PUSH1 0xFF AND PUSH2 0x17F0 JUMPI POP PUSH1 0x0 SWAP1 JUMP JUMPDEST PUSH1 0x0 PUSH1 0xA SLOAD TIMESTAMP PUSH2 0x1800 SWAP2 SWAP1 PUSH2 0x25D3 JUMP JUMPDEST PUSH2 0xE01 GT ISZERO SWAP3 SWAP2 POP POP JUMP JUMPDEST PUSH1 0x8 SLOAD PUSH1 0x0 PUSH2 0x1819 DUP3 PUSH2 0x1B93 JUMP JUMPDEST SWAP1 POP PUSH1 0x0 DUP1 PUSH2 0x1828 DUP5 DUP5 PUSH2 0x1C74 JUMP JUMPDEST SWAP2 POP SWAP2 POP PUSH1 0x0 DUP1 PUSH1 0x0 PUSH2 0x183C DUP8 DUP7 DUP7 PUSH2 0x1FB3 JUMP JUMPDEST SWAP3 POP SWAP3 POP SWAP3 POP PUSH2 0x184B DUP8 PUSH2 0x212A JUMP JUMPDEST PUSH1 0x2 SLOAD PUSH1 0x40 MLOAD PUSH4 0x22A56427 PUSH1 0xE1 SHL DUP2 MSTORE PUSH1 0x4 DUP2 ADD DUP10 SWAP1 MSTORE PUSH1 0x0 SWAP2 PUSH1 0x1 PUSH1 0x1 PUSH1 0xA0 SHL SUB AND SWAP1 PUSH4 0x454AC84E SWAP1 PUSH1 0x24 ADD PUSH1 0x0 PUSH1 0x40 MLOAD DUP1 DUP4 SUB DUP2 DUP7 GAS STATICCALL ISZERO DUP1 ISZERO PUSH2 0x1895 JUMPI RETURNDATASIZE PUSH1 0x0 DUP1 RETURNDATACOPY RETURNDATASIZE PUSH1 0x0 REVERT JUMPDEST POP POP POP POP PUSH1 0x40 MLOAD RETURNDATASIZE PUSH1 0x0 DUP3 RETURNDATACOPY PUSH1 0x1F RETURNDATASIZE SWAP1 DUP2 ADD PUSH1 0x1F NOT AND DUP3 ADD PUSH1 0x40 MSTORE PUSH2 0x18BD SWAP2 SWAP1 DUP2 ADD SWAP1 PUSH2 0x260D JUMP JUMPDEST MLOAD PUSH1 0x40 DUP1 MLOAD PUSH1 0x1 PUSH1 0x1 PUSH1 0xD0 SHL SUB NOT DUP11 AND DUP2 MSTORE PUSH1 0x20 DUP2 ADD DUP8 SWAP1 MSTORE SWAP1 DUP2 ADD DUP8 SWAP1 MSTORE PUSH1 0x60 DUP2 ADD DUP5 SWAP1 MSTORE PUSH1 0x80 DUP2 ADD DUP3 SWAP1 MSTORE TIMESTAMP PUSH1 0xA0 DUP3 ADD MSTORE SWAP1 SWAP2 POP DUP9 SWAP1 PUSH32 0xCB3E0BD9FC5C5CA893AB7EDF22C314B2852D2CF6E36E091941D0709CAEB4145C SWAP1 PUSH1 0xC0 ADD PUSH1 0x40 MLOAD DUP1 SWAP2 SUB SWAP1 LOG2 PUSH1 0x8 DUP1 SLOAD SWAP1 PUSH1 0x0 PUSH2 0x1932 DUP4 PUSH2 0x2514 JUMP JUMPDEST SWAP1 SWAP2 SSTORE POP POP PUSH1 0x1 PUSH1 0x9 SSTORE TIMESTAMP PUSH1 0xA SSTORE PUSH1 0x2 SLOAD PUSH1 0x8 SLOAD PUSH1 0x40 MLOAD PUSH4 0x77923C5 PUSH1 0xE3 SHL DUP2 MSTORE PUSH1 0x1 PUSH1 0x1 PUSH1 0xA0 SHL SUB SWAP1 SWAP3 AND SWAP2 PUSH4 0x3BC91E28 SWAP2 PUSH2 0x1975 SWAP2 PUSH1 0x4 ADD SWAP1 DUP2 MSTORE PUSH1 0x20 ADD SWAP1 JUMP JUMPDEST PUSH1 0x0 PUSH1 0x40 MLOAD DUP1 DUP4 SUB DUP2 PUSH1 0x0 DUP8 DUP1 EXTCODESIZE ISZERO DUP1 ISZERO PUSH2 0x198F JUMPI PUSH1 0x0 DUP1 REVERT JUMPDEST POP GAS CALL ISZERO DUP1 ISZERO PUSH2 0x19A3 JUMPI RETURNDATASIZE PUSH1 0x0 DUP1 RETURNDATACOPY RETURNDATASIZE PUSH1 0x0 REVERT JUMPDEST POP POP POP POP PUSH2 0x19B2 PUSH1 0x8 SLOAD PUSH2 0x1A7E JUMP JUMPDEST PUSH1 0x8 SLOAD PUSH1 0x40 MLOAD TIMESTAMP DUP2 MSTORE PUSH32 0x278844837BCF8364A705384BF3A2812901F54155BAE86DEA81DD52AA5B9EC0E3 SWAP1 PUSH1 0x20 ADD PUSH1 0x40 MLOAD DUP1 SWAP2 SUB SWAP1 LOG2 PUSH1 0x8 SLOAD PUSH1 0x40 DUP1 MLOAD PUSH1 0x1 DUP2 MSTORE TIMESTAMP PUSH1 0x20 DUP3 ADD MSTORE PUSH32 0xE9A2985393FA4BB459D73D85249DF3B5923E70FB93B7B9C307E72359AB167587 SWAP2 ADD PUSH1 0x40 MLOAD DUP1 SWAP2 SUB SWAP1 LOG2 POP POP POP POP POP POP POP POP JUMP JUMPDEST PUSH1 0x0 DUP1 SLOAD PUSH1 0x1 PUSH1 0x1 PUSH1 0xA0 SHL SUB DUP4 DUP2 AND PUSH1 0x1 PUSH1 0x1 PUSH1 0xA0 SHL SUB NOT DUP4 AND DUP2 OR DUP5 SSTORE PUSH1 0x40 MLOAD SWAP2 SWAP1 SWAP3 AND SWAP3 DUP4 SWAP2 PUSH32 0x8BE0079C531659141344CD1FD0A4F28419497F9722A3DAAFE3B4186F6B6457E0 SWAP2 SWAP1 LOG3 POP POP JUMP JUMPDEST PUSH1 0x2 SLOAD PUSH1 0x40 MLOAD PUSH4 0x22A56427 PUSH1 0xE1 SHL DUP2 MSTORE PUSH1 0x4 DUP2 ADD DUP4 SWAP1 MSTORE PUSH1 0x0 SWAP2 PUSH1 0x1 PUSH1 0x1 PUSH1 0xA0 SHL SUB AND SWAP1 PUSH4 0x454AC84E SWAP1 PUSH1 0x24 ADD PUSH1 0x0 PUSH1 0x40 MLOAD DUP1 DUP4 SUB DUP2 DUP7 GAS STATICCALL ISZERO DUP1 ISZERO PUSH2 0x1AC8 JUMPI RETURNDATASIZE PUSH1 0x0 DUP1 RETURNDATACOPY RETURNDATASIZE PUSH1 0x0 REVERT JUMPDEST POP POP POP POP PUSH1 0x40 MLOAD RETURNDATASIZE PUSH1 0x0 DUP3 RETURNDATACOPY PUSH1 0x1F RETURNDATASIZE SWAP1 DUP2 ADD PUSH1 0x1F NOT AND DUP3 ADD PUSH1 0x40 MSTORE PUSH2 0x1AF0 SWAP2 SWAP1 DUP2 ADD SWAP1 PUSH2 0x260D JUMP JUMPDEST DUP1 MLOAD SWAP1 SWAP2 POP ISZERO PUSH2 0x1B5F JUMPI PUSH1 0x2 SLOAD PUSH1 0x40 MLOAD PUSH4 0x99866C3 PUSH1 0xE1 SHL DUP2 MSTORE PUSH1 0x1 PUSH1 0x1 PUSH1 0xA0 SHL SUB SWAP1 SWAP2 AND SWAP1 PUSH4 0x1330CD86 SWAP1 PUSH2 0x1B2C SWAP1 DUP6 SWAP1 DUP6 SWAP1 PUSH1 0x4 ADD PUSH2 0x26D2 JUMP JUMPDEST PUSH1 0x0 PUSH1 0x40 MLOAD DUP1 DUP4 SUB DUP2 PUSH1 0x0 DUP8 DUP1 EXTCODESIZE ISZERO DUP1 ISZERO PUSH2 0x1B46 JUMPI PUSH1 0x0 DUP1 REVERT JUMPDEST POP GAS CALL ISZERO DUP1 ISZERO PUSH2 0x1B5A JUMPI RETURNDATASIZE PUSH1 0x0 DUP1 RETURNDATACOPY RETURNDATASIZE PUSH1 0x0 REVERT JUMPDEST POP POP POP POP JUMPDEST POP POP JUMP JUMPDEST PUSH1 0x0 DUP1 MLOAD PUSH1 0x20 PUSH2 0x27D6 DUP4 CODECOPY DUP2 MLOAD SWAP2 MSTORE SLOAD PUSH1 0x2 SUB PUSH2 0xC80 JUMPI PUSH1 0x40 MLOAD PUSH4 0x3EE5AEB5 PUSH1 0xE0 SHL DUP2 MSTORE PUSH1 0x4 ADD PUSH1 0x40 MLOAD DUP1 SWAP2 SUB SWAP1 REVERT JUMPDEST PUSH1 0x0 DUP1 PUSH2 0x1BA1 PUSH1 0x1 NUMBER PUSH2 0x25D3 JUMP JUMPDEST PUSH1 0x6 SLOAD PUSH1 0x40 DUP1 MLOAD SWAP3 BLOCKHASH PUSH1 0x20 DUP5 ADD MSTORE DUP3 ADD MSTORE PUSH1 0x60 DUP2 ADD DUP5 SWAP1 MSTORE PUSH1 0x80 ADD PUSH1 0x40 DUP1 MLOAD PUSH1 0x1F NOT DUP2 DUP5 SUB ADD DUP2 MSTORE SWAP2 SWAP1 MSTORE DUP1 MLOAD PUSH1 0x20 SWAP1 SWAP2 ADD KECCAK256 SWAP1 POP PUSH1 0x0 PUSH2 0x1BE3 PUSH1 0x3 DUP4 PUSH2 0x2572 JUMP JUMPDEST SWAP1 POP PUSH1 0x0 DUP2 PUSH1 0x6 SLOAD PUSH2 0x1BF5 SWAP2 SWAP1 PUSH2 0x2543 JUMP JUMPDEST SWAP1 POP PUSH2 0x1C00 DUP2 PUSH2 0x13EC JUMP JUMPDEST PUSH1 0x0 DUP7 DUP2 MSTORE PUSH1 0x10 PUSH1 0x20 SWAP1 DUP2 MSTORE PUSH1 0x40 SWAP2 DUP3 SWAP1 KECCAK256 DUP1 SLOAD PUSH6 0xFFFFFFFFFFFF NOT AND PUSH1 0xD0 DUP6 SWAP1 SHR OR SWAP1 SSTORE DUP2 MLOAD DUP5 DUP2 MSTORE PUSH1 0x1 PUSH1 0x1 PUSH1 0xD0 SHL SUB NOT DUP5 AND SWAP2 DUP2 ADD SWAP2 SWAP1 SWAP2 MSTORE SWAP2 SWAP6 POP DUP7 SWAP2 PUSH32 0xD9518E0C64DF7F54FE347E6E390672D87BC2350A9DF1B275E2DE0F2655CA9A84 SWAP2 ADD PUSH1 0x40 MLOAD DUP1 SWAP2 SUB SWAP1 LOG2 POP POP POP SWAP2 SWAP1 POP JUMP JUMPDEST PUSH1 0x2 SLOAD PUSH1 0x40 MLOAD PUSH4 0x9FD11627 PUSH1 0xE0 SHL DUP2 MSTORE PUSH1 0x4 DUP2 ADD DUP5 SWAP1 MSTORE PUSH1 0x1 PUSH1 0x1 PUSH1 0xD0 SHL SUB NOT DUP4 AND PUSH1 0x24 DUP3 ADD MSTORE PUSH1 0x60 SWAP2 PUSH1 0x0 SWAP2 DUP3 SWAP2 PUSH1 0x1 PUSH1 0x1 PUSH1 0xA0 SHL SUB AND SWAP1 PUSH4 0x9FD11627 SWAP1 PUSH1 0x44 ADD PUSH1 0x0 PUSH1 0x40 MLOAD DUP1 DUP4 SUB DUP2 DUP7 GAS STATICCALL ISZERO DUP1 ISZERO PUSH2 0x1CD3 JUMPI RETURNDATASIZE PUSH1 0x0 DUP1 RETURNDATACOPY RETURNDATASIZE PUSH1 0x0 REVERT JUMPDEST POP POP POP POP PUSH1 0x40 MLOAD RETURNDATASIZE PUSH1 0x0 DUP3 RETURNDATACOPY PUSH1 0x1F RETURNDATASIZE SWAP1 DUP2 ADD PUSH1 0x1F NOT AND DUP3 ADD PUSH1 0x40 MSTORE PUSH2 0x1CFB SWAP2 SWAP1 DUP2 ADD SWAP1 PUSH2 0x260D JUMP JUMPDEST SWAP1 POP PUSH1 0x0 DUP2 MLOAD PUSH8 0xFFFFFFFFFFFFFFFF DUP2 GT ISZERO PUSH2 0x1D19 JUMPI PUSH2 0x1D19 PUSH2 0x252D JUMP JUMPDEST PUSH1 0x40 MLOAD SWAP1 DUP1 DUP3 MSTORE DUP1 PUSH1 0x20 MUL PUSH1 0x20 ADD DUP3 ADD PUSH1 0x40 MSTORE DUP1 ISZERO PUSH2 0x1D42 JUMPI DUP2 PUSH1 0x20 ADD PUSH1 0x20 DUP3 MUL DUP1 CALLDATASIZE DUP4 CALLDATACOPY ADD SWAP1 POP JUMPDEST POP SWAP1 POP PUSH1 0x0 JUMPDEST DUP3 MLOAD DUP2 LT ISZERO PUSH2 0x1F0C JUMPI PUSH1 0x0 DUP4 DUP3 DUP2 MLOAD DUP2 LT PUSH2 0x1D65 JUMPI PUSH2 0x1D65 PUSH2 0x2586 JUMP JUMPDEST PUSH1 0x20 SWAP1 DUP2 MUL SWAP2 SWAP1 SWAP2 ADD ADD MLOAD PUSH1 0x2 SLOAD PUSH1 0x40 MLOAD PUSH4 0xA96DE4F5 PUSH1 0xE0 SHL DUP2 MSTORE PUSH1 0x1 PUSH1 0x1 PUSH1 0xA0 SHL SUB DUP1 DUP5 AND PUSH1 0x4 DUP4 ADD MSTORE PUSH1 0x24 DUP3 ADD DUP13 SWAP1 MSTORE SWAP3 SWAP4 POP PUSH1 0x0 SWAP3 DUP4 SWAP3 AND SWAP1 PUSH4 0xA96DE4F5 SWAP1 PUSH1 0x44 ADD PUSH1 0x40 DUP1 MLOAD DUP1 DUP4 SUB DUP2 DUP7 GAS STATICCALL ISZERO DUP1 ISZERO PUSH2 0x1DC6 JUMPI RETURNDATASIZE PUSH1 0x0 DUP1 RETURNDATACOPY RETURNDATASIZE PUSH1 0x0 REVERT JUMPDEST POP POP POP POP PUSH1 0x40 MLOAD RETURNDATASIZE PUSH1 0x1F NOT PUSH1 0x1F DUP3 ADD AND DUP3 ADD DUP1 PUSH1 0x40 MSTORE POP DUP2 ADD SWAP1 PUSH2 0x1DEA SWAP2 SWAP1 PUSH2 0x270B JUMP JUMPDEST SWAP2 POP SWAP2 POP DUP2 PUSH2 0x1DFB JUMPI POP POP POP PUSH2 0x1F04 JUMP JUMPDEST PUSH1 0x1 PUSH1 0x1 PUSH1 0xD0 SHL SUB NOT DUP2 DUP2 AND SWAP1 DUP11 AND EQ PUSH2 0x1E17 JUMPI POP POP POP PUSH2 0x1F04 JUMP JUMPDEST PUSH1 0x2 SLOAD PUSH1 0x40 MLOAD PUSH4 0xC106AEE3 PUSH1 0xE0 SHL DUP2 MSTORE PUSH1 0x1 PUSH1 0x1 PUSH1 0xA0 SHL SUB DUP6 DUP2 AND PUSH1 0x4 DUP4 ADD MSTORE PUSH1 0x24 DUP3 ADD DUP14 SWAP1 MSTORE PUSH1 0x0 SWAP3 DUP4 SWAP3 SWAP2 AND SWAP1 PUSH4 0xC106AEE3 SWAP1 PUSH1 0x44 ADD PUSH1 0x40 DUP1 MLOAD DUP1 DUP4 SUB DUP2 DUP7 GAS STATICCALL ISZERO DUP1 ISZERO PUSH2 0x1E6B JUMPI RETURNDATASIZE PUSH1 0x0 DUP1 RETURNDATACOPY RETURNDATASIZE PUSH1 0x0 REVERT JUMPDEST POP POP POP POP PUSH1 0x40 MLOAD RETURNDATASIZE PUSH1 0x1F NOT PUSH1 0x1F DUP3 ADD AND DUP3 ADD DUP1 PUSH1 0x40 MSTORE POP DUP2 ADD SWAP1 PUSH2 0x1E8F SWAP2 SWAP1 PUSH2 0x270B JUMP JUMPDEST SWAP2 POP SWAP2 POP DUP2 PUSH2 0x1EA2 JUMPI POP POP POP POP POP PUSH2 0x1F04 JUMP JUMPDEST PUSH1 0x1 PUSH1 0x1 PUSH1 0xD0 SHL SUB NOT DUP2 DUP2 AND SWAP1 DUP13 AND EQ PUSH2 0x1EC0 JUMPI POP POP POP POP POP PUSH2 0x1F04 JUMP JUMPDEST DUP5 DUP8 DUP11 PUSH2 0x1ECC DUP2 PUSH2 0x2514 JUMP JUMPDEST SWAP12 POP DUP2 MLOAD DUP2 LT PUSH2 0x1EDE JUMPI PUSH2 0x1EDE PUSH2 0x2586 JUMP JUMPDEST PUSH1 0x20 MUL PUSH1 0x20 ADD ADD SWAP1 PUSH1 0x1 PUSH1 0x1 PUSH1 0xA0 SHL SUB AND SWAP1 DUP2 PUSH1 0x1 PUSH1 0x1 PUSH1 0xA0 SHL SUB AND DUP2 MSTORE POP POP POP POP POP POP POP JUMPDEST PUSH1 0x1 ADD PUSH2 0x1D48 JUMP JUMPDEST POP DUP3 PUSH8 0xFFFFFFFFFFFFFFFF DUP2 GT ISZERO PUSH2 0x1F26 JUMPI PUSH2 0x1F26 PUSH2 0x252D JUMP JUMPDEST PUSH1 0x40 MLOAD SWAP1 DUP1 DUP3 MSTORE DUP1 PUSH1 0x20 MUL PUSH1 0x20 ADD DUP3 ADD PUSH1 0x40 MSTORE DUP1 ISZERO PUSH2 0x1F4F JUMPI DUP2 PUSH1 0x20 ADD PUSH1 0x20 DUP3 MUL DUP1 CALLDATASIZE DUP4 CALLDATACOPY ADD SWAP1 POP JUMPDEST POP SWAP4 POP PUSH1 0x0 JUMPDEST DUP4 DUP2 LT ISZERO PUSH2 0x1FA9 JUMPI DUP2 DUP2 DUP2 MLOAD DUP2 LT PUSH2 0x1F6F JUMPI PUSH2 0x1F6F PUSH2 0x2586 JUMP JUMPDEST PUSH1 0x20 MUL PUSH1 0x20 ADD ADD MLOAD DUP6 DUP3 DUP2 MLOAD DUP2 LT PUSH2 0x1F89 JUMPI PUSH2 0x1F89 PUSH2 0x2586 JUMP JUMPDEST PUSH1 0x1 PUSH1 0x1 PUSH1 0xA0 SHL SUB SWAP1 SWAP3 AND PUSH1 0x20 SWAP3 DUP4 MUL SWAP2 SWAP1 SWAP2 ADD SWAP1 SWAP2 ADD MSTORE PUSH1 0x1 ADD PUSH2 0x1F55 JUMP JUMPDEST POP POP POP SWAP3 POP SWAP3 SWAP1 POP JUMP JUMPDEST PUSH1 0xC SLOAD PUSH1 0xF SLOAD PUSH1 0x0 SWAP1 DUP2 SWAP1 ISZERO DUP1 ISZERO SWAP1 PUSH2 0x1FCC JUMPI POP PUSH1 0x0 DUP4 GT JUMPDEST ISZERO PUSH2 0x2037 JUMPI PUSH1 0x0 PUSH2 0x2710 PUSH1 0xF SLOAD DUP6 PUSH2 0x1FE4 SWAP2 SWAP1 PUSH2 0x25E6 JUMP JUMPDEST PUSH2 0x1FEE SWAP2 SWAP1 PUSH2 0x2740 JUMP JUMPDEST SWAP1 POP PUSH2 0x1FFA DUP2 DUP6 PUSH2 0x25D3 JUMP JUMPDEST SWAP4 POP PUSH32 0x85FCFC84BAA0423652490BDD8531F642A3376CB202145025B549FB449516E5A8 DUP2 PUSH1 0x40 MLOAD PUSH2 0x202D SWAP2 DUP2 MSTORE PUSH1 0x20 ADD SWAP1 JUMP JUMPDEST PUSH1 0x40 MLOAD DUP1 SWAP2 SUB SWAP1 LOG1 POP JUMPDEST POP DUP2 PUSH1 0x0 DUP5 ISZERO PUSH2 0x2066 JUMPI PUSH2 0x204B DUP6 DUP6 PUSH2 0x2740 JUMP JUMPDEST SWAP3 POP PUSH2 0x2057 DUP6 DUP5 PUSH2 0x25E6 JUMP JUMPDEST SWAP1 POP PUSH2 0x2063 DUP2 DUP6 PUSH2 0x25D3 JUMP JUMPDEST SWAP2 POP JUMPDEST PUSH1 0x0 JUMPDEST DUP6 DUP2 LT ISZERO PUSH2 0x20D8 JUMPI PUSH1 0x0 DUP9 DUP2 MSTORE PUSH1 0x12 PUSH1 0x20 MSTORE PUSH1 0x40 SWAP1 KECCAK256 DUP8 MLOAD DUP9 SWAP1 DUP4 SWAP1 DUP2 LT PUSH2 0x2093 JUMPI PUSH2 0x2093 PUSH2 0x2586 JUMP JUMPDEST PUSH1 0x20 SWAP1 DUP2 MUL SWAP2 SWAP1 SWAP2 ADD DUP2 ADD MLOAD DUP3 SLOAD PUSH1 0x1 DUP1 DUP3 ADD DUP6 SSTORE PUSH1 0x0 SWAP5 DUP6 MSTORE SWAP3 SWAP1 SWAP4 KECCAK256 SWAP1 SWAP3 ADD DUP1 SLOAD PUSH1 0x1 PUSH1 0x1 PUSH1 0xA0 SHL SUB NOT AND PUSH1 0x1 PUSH1 0x1 PUSH1 0xA0 SHL SUB SWAP1 SWAP4 AND SWAP3 SWAP1 SWAP3 OR SWAP1 SWAP2 SSTORE ADD PUSH2 0x2069 JUMP JUMPDEST POP PUSH1 0x0 DUP8 DUP2 MSTORE PUSH1 0x11 PUSH1 0x20 SWAP1 DUP2 MSTORE PUSH1 0x40 DUP1 DUP4 KECCAK256 DUP8 SWAP1 SSTORE PUSH1 0x13 DUP3 MSTORE DUP1 DUP4 KECCAK256 DUP7 SWAP1 SSTORE PUSH1 0x14 SWAP1 SWAP2 MSTORE DUP2 KECCAK256 DUP4 SWAP1 SSTORE PUSH1 0xD DUP1 SLOAD DUP4 SWAP3 SWAP1 PUSH2 0x2113 SWAP1 DUP5 SWAP1 PUSH2 0x2543 JUMP JUMPDEST SWAP1 SWAP2 SSTORE POP POP POP PUSH1 0xC DUP2 SWAP1 SSTORE SWAP2 SWAP6 SWAP1 SWAP5 POP SWAP1 SWAP3 POP SWAP1 POP JUMP JUMPDEST PUSH1 0x2 SLOAD PUSH1 0x40 MLOAD PUSH4 0x22A56427 PUSH1 0xE1 SHL DUP2 MSTORE PUSH1 0x4 DUP2 ADD DUP4 SWAP1 MSTORE PUSH1 0x0 SWAP2 PUSH1 0x1 PUSH1 0x1 PUSH1 0xA0 SHL SUB AND SWAP1 PUSH4 0x454AC84E SWAP1 PUSH1 0x24 ADD PUSH1 0x0 PUSH1 0x40 MLOAD DUP1 DUP4 SUB DUP2 DUP7 GAS STATICCALL ISZERO DUP1 ISZERO PUSH2 0x2174 JUMPI RETURNDATASIZE PUSH1 0x0 DUP1 RETURNDATACOPY RETURNDATASIZE PUSH1 0x0 REVERT JUMPDEST POP POP POP POP PUSH1 0x40 MLOAD RETURNDATASIZE PUSH1 0x0 DUP3 RETURNDATACOPY PUSH1 0x1F RETURNDATASIZE SWAP1 DUP2 ADD PUSH1 0x1F NOT AND DUP3 ADD PUSH1 0x40 MSTORE PUSH2 0x219C SWAP2 SWAP1 DUP2 ADD SWAP1 PUSH2 0x260D JUMP JUMPDEST SWAP1 POP PUSH1 0x0 JUMPDEST DUP2 MLOAD DUP2 LT ISZERO PUSH2 0x23AE JUMPI PUSH1 0x2 SLOAD DUP3 MLOAD PUSH1 0x0 SWAP2 PUSH1 0x1 PUSH1 0x1 PUSH1 0xA0 SHL SUB AND SWAP1 PUSH4 0xB8A740E0 SWAP1 DUP6 SWAP1 DUP6 SWAP1 DUP2 LT PUSH2 0x21D4 JUMPI PUSH2 0x21D4 PUSH2 0x2586 JUMP JUMPDEST PUSH1 0x20 MUL PUSH1 0x20 ADD ADD MLOAD DUP7 PUSH1 0x40 MLOAD DUP4 PUSH4 0xFFFFFFFF AND PUSH1 0xE0 SHL DUP2 MSTORE PUSH1 0x4 ADD PUSH2 0x220E SWAP3 SWAP2 SWAP1 PUSH1 0x1 PUSH1 0x1 PUSH1 0xA0 SHL SUB SWAP3 SWAP1 SWAP3 AND DUP3 MSTORE PUSH1 0x20 DUP3 ADD MSTORE PUSH1 0x40 ADD SWAP1 JUMP JUMPDEST PUSH1 0xE0 PUSH1 0x40 MLOAD DUP1 DUP4 SUB DUP2 DUP7 GAS STATICCALL ISZERO DUP1 ISZERO PUSH2 0x222B JUMPI RETURNDATASIZE PUSH1 0x0 DUP1 RETURNDATACOPY RETURNDATASIZE PUSH1 0x0 REVERT JUMPDEST POP POP POP POP PUSH1 0x40 MLOAD RETURNDATASIZE PUSH1 0x1F NOT PUSH1 0x1F DUP3 ADD AND DUP3 ADD DUP1 PUSH1 0x40 MSTORE POP DUP2 ADD SWAP1 PUSH2 0x224F SWAP2 SWAP1 PUSH2 0x2754 JUMP JUMPDEST POP POP POP POP SWAP3 POP POP POP PUSH1 0x8 SLOAD DUP2 LT ISZERO PUSH2 0x23A5 JUMPI PUSH2 0x226C PUSH1 0x2 DUP3 PUSH2 0x2543 JUMP JUMPDEST PUSH1 0x8 SLOAD GT ISZERO PUSH2 0x230F JUMPI PUSH1 0x2 SLOAD DUP4 MLOAD PUSH1 0x1 PUSH1 0x1 PUSH1 0xA0 SHL SUB SWAP1 SWAP2 AND SWAP1 PUSH4 0x7A03CE4F SWAP1 DUP6 SWAP1 DUP6 SWAP1 DUP2 LT PUSH2 0x229E JUMPI PUSH2 0x229E PUSH2 0x2586 JUMP JUMPDEST PUSH1 0x20 MUL PUSH1 0x20 ADD ADD MLOAD DUP7 PUSH1 0x40 MLOAD DUP4 PUSH4 0xFFFFFFFF AND PUSH1 0xE0 SHL DUP2 MSTORE PUSH1 0x4 ADD PUSH2 0x22D8 SWAP3 SWAP2 SWAP1 PUSH1 0x1 PUSH1 0x1 PUSH1 0xA0 SHL SUB SWAP3 SWAP1 SWAP3 AND DUP3 MSTORE PUSH1 0x20 DUP3 ADD MSTORE PUSH1 0x40 ADD SWAP1 JUMP JUMPDEST PUSH1 0x0 PUSH1 0x40 MLOAD DUP1 DUP4 SUB DUP2 PUSH1 0x0 DUP8 DUP1 EXTCODESIZE ISZERO DUP1 ISZERO PUSH2 0x22F2 JUMPI PUSH1 0x0 DUP1 REVERT JUMPDEST POP GAS CALL ISZERO DUP1 ISZERO PUSH2 0x2306 JUMPI RETURNDATASIZE PUSH1 0x0 DUP1 RETURNDATACOPY RETURNDATASIZE PUSH1 0x0 REVERT JUMPDEST POP POP POP POP PUSH2 0x23A5 JUMP JUMPDEST PUSH1 0x2 SLOAD DUP4 MLOAD PUSH1 0x1 PUSH1 0x1 PUSH1 0xA0 SHL SUB SWAP1 SWAP2 AND SWAP1 PUSH4 0x47F43EF2 SWAP1 DUP6 SWAP1 DUP6 SWAP1 DUP2 LT PUSH2 0x2338 JUMPI PUSH2 0x2338 PUSH2 0x2586 JUMP JUMPDEST PUSH1 0x20 MUL PUSH1 0x20 ADD ADD MLOAD DUP7 PUSH1 0x40 MLOAD DUP4 PUSH4 0xFFFFFFFF AND PUSH1 0xE0 SHL DUP2 MSTORE PUSH1 0x4 ADD PUSH2 0x2372 SWAP3 SWAP2 SWAP1 PUSH1 0x1 PUSH1 0x1 PUSH1 0xA0 SHL SUB SWAP3 SWAP1 SWAP3 AND DUP3 MSTORE PUSH1 0x20 DUP3 ADD MSTORE PUSH1 0x40 ADD SWAP1 JUMP JUMPDEST PUSH1 0x0 PUSH1 0x40 MLOAD DUP1 DUP4 SUB DUP2 PUSH1 0x0 DUP8 DUP1 EXTCODESIZE ISZERO DUP1 ISZERO PUSH2 0x238C JUMPI PUSH1 0x0 DUP1 REVERT JUMPDEST POP GAS CALL ISZERO DUP1 ISZERO PUSH2 0x23A0 JUMPI RETURNDATASIZE PUSH1 0x0 DUP1 RETURNDATACOPY RETURNDATASIZE PUSH1 0x0 REVERT JUMPDEST POP POP POP POP JUMPDEST POP PUSH1 0x1 ADD PUSH2 0x21A1 JUMP JUMPDEST POP POP POP JUMP JUMPDEST PUSH1 0x0 PUSH1 0x20 DUP3 DUP5 SUB SLT ISZERO PUSH2 0x23C5 JUMPI PUSH1 0x0 DUP1 REVERT JUMPDEST POP CALLDATALOAD SWAP2 SWAP1 POP JUMP JUMPDEST PUSH1 0x0 DUP2 MLOAD DUP1 DUP5 MSTORE PUSH1 0x20 DUP1 DUP6 ADD SWAP5 POP PUSH1 0x20 DUP5 ADD PUSH1 0x0 JUMPDEST DUP4 DUP2 LT ISZERO PUSH2 0x2406 JUMPI DUP2 MLOAD PUSH1 0x1 PUSH1 0x1 PUSH1 0xA0 SHL SUB AND DUP8 MSTORE SWAP6 DUP3 ADD SWAP6 SWAP1 DUP3 ADD SWAP1 PUSH1 0x1 ADD PUSH2 0x23E1 JUMP JUMPDEST POP SWAP5 SWAP6 SWAP5 POP POP POP POP POP JUMP JUMPDEST PUSH6 0xFFFFFFFFFFFF PUSH1 0xD0 SHL DUP7 AND DUP2 MSTORE DUP5 PUSH1 0x20 DUP3 ADD MSTORE PUSH1 0xA0 PUSH1 0x40 DUP3 ADD MSTORE PUSH1 0x0 PUSH2 0x243B PUSH1 0xA0 DUP4 ADD DUP7 PUSH2 0x23CC JUMP JUMPDEST PUSH1 0x60 DUP4 ADD SWAP5 SWAP1 SWAP5 MSTORE POP PUSH1 0x80 ADD MSTORE SWAP4 SWAP3 POP POP POP JUMP JUMPDEST PUSH1 0x0 DUP1 PUSH1 0x40 DUP4 DUP6 SUB SLT ISZERO PUSH2 0x2462 JUMPI PUSH1 0x0 DUP1 REVERT JUMPDEST POP POP DUP1 CALLDATALOAD SWAP3 PUSH1 0x20 SWAP1 SWAP2 ADD CALLDATALOAD SWAP2 POP JUMP JUMPDEST PUSH1 0x1 PUSH1 0x1 PUSH1 0xA0 SHL SUB DUP2 AND DUP2 EQ PUSH2 0x13C2 JUMPI PUSH1 0x0 DUP1 REVERT JUMPDEST PUSH1 0x0 PUSH1 0x20 DUP3 DUP5 SUB SLT ISZERO PUSH2 0x2498 JUMPI PUSH1 0x0 DUP1 REVERT JUMPDEST DUP2 CALLDATALOAD PUSH2 0x14A1 DUP2 PUSH2 0x2471 JUMP JUMPDEST PUSH1 0x0 DUP1 PUSH1 0x40 DUP4 DUP6 SUB SLT ISZERO PUSH2 0x24B6 JUMPI PUSH1 0x0 DUP1 REVERT JUMPDEST DUP3 CALLDATALOAD SWAP2 POP PUSH1 0x20 DUP4 ADD CALLDATALOAD PUSH2 0x24C8 DUP2 PUSH2 0x2471 JUMP JUMPDEST DUP1 SWAP2 POP POP SWAP3 POP SWAP3 SWAP1 POP JUMP JUMPDEST DUP1 ISZERO ISZERO DUP2 EQ PUSH2 0x13C2 JUMPI PUSH1 0x0 DUP1 REVERT JUMPDEST PUSH1 0x0 PUSH1 0x20 DUP3 DUP5 SUB SLT ISZERO PUSH2 0x24F3 JUMPI PUSH1 0x0 DUP1 REVERT JUMPDEST DUP2 CALLDATALOAD PUSH2 0x14A1 DUP2 PUSH2 0x24D3 JUMP JUMPDEST PUSH4 0x4E487B71 PUSH1 0xE0 SHL PUSH1 0x0 MSTORE PUSH1 0x11 PUSH1 0x4 MSTORE PUSH1 0x24 PUSH1 0x0 REVERT JUMPDEST PUSH1 0x0 PUSH1 0x1 DUP3 ADD PUSH2 0x2526 JUMPI PUSH2 0x2526 PUSH2 0x24FE JUMP JUMPDEST POP PUSH1 0x1 ADD SWAP1 JUMP JUMPDEST PUSH4 0x4E487B71 PUSH1 0xE0 SHL PUSH1 0x0 MSTORE PUSH1 0x41 PUSH1 0x4 MSTORE PUSH1 0x24 PUSH1 0x0 REVERT JUMPDEST DUP1 DUP3 ADD DUP1 DUP3 GT ISZERO PUSH2 0x2556 JUMPI PUSH2 0x2556 PUSH2 0x24FE JUMP JUMPDEST SWAP3 SWAP2 POP POP JUMP JUMPDEST PUSH4 0x4E487B71 PUSH1 0xE0 SHL PUSH1 0x0 MSTORE PUSH1 0x12 PUSH1 0x4 MSTORE PUSH1 0x24 PUSH1 0x0 REVERT JUMPDEST PUSH1 0x0 DUP3 PUSH2 0x2581 JUMPI PUSH2 0x2581 PUSH2 0x255C JUMP JUMPDEST POP MOD SWAP1 JUMP JUMPDEST PUSH4 0x4E487B71 PUSH1 0xE0 SHL PUSH1 0x0 MSTORE PUSH1 0x32 PUSH1 0x4 MSTORE PUSH1 0x24 PUSH1 0x0 REVERT JUMPDEST DUP1 MLOAD PUSH1 0x20 DUP3 ADD MLOAD PUSH1 0x1 PUSH1 0x1 PUSH1 0xD0 SHL SUB NOT DUP1 DUP3 AND SWAP3 SWAP2 SWAP1 PUSH1 0x6 DUP4 LT ISZERO PUSH2 0x25CB JUMPI DUP1 DUP2 DUP5 PUSH1 0x6 SUB PUSH1 0x3 SHL SHL DUP4 AND AND SWAP4 POP JUMPDEST POP POP POP SWAP2 SWAP1 POP JUMP JUMPDEST DUP2 DUP2 SUB DUP2 DUP2 GT ISZERO PUSH2 0x2556 JUMPI PUSH2 0x2556 PUSH2 0x24FE JUMP JUMPDEST DUP1 DUP3 MUL DUP2 ISZERO DUP3 DUP3 DIV DUP5 EQ OR PUSH2 0x2556 JUMPI PUSH2 0x2556 PUSH2 0x24FE JUMP JUMPDEST DUP1 MLOAD PUSH2 0x2608 DUP2 PUSH2 0x2471 JUMP JUMPDEST SWAP2 SWAP1 POP JUMP JUMPDEST PUSH1 0x0 PUSH1 0x20 DUP1 DUP4 DUP6 SUB SLT ISZERO PUSH2 0x2620 JUMPI PUSH1 0x0 DUP1 REVERT JUMPDEST DUP3 MLOAD PUSH8 0xFFFFFFFFFFFFFFFF DUP1 DUP3 GT ISZERO PUSH2 0x2638 JUMPI PUSH1 0x0 DUP1 REVERT JUMPDEST DUP2 DUP6 ADD SWAP2 POP DUP6 PUSH1 0x1F DUP4 ADD SLT PUSH2 0x264C JUMPI PUSH1 0x0 DUP1 REVERT JUMPDEST DUP2 MLOAD DUP2 DUP2 GT ISZERO PUSH2 0x265E JUMPI PUSH2 0x265E PUSH2 0x252D JUMP JUMPDEST DUP1 PUSH1 0x5 SHL PUSH1 0x40 MLOAD PUSH1 0x1F NOT PUSH1 0x3F DUP4 ADD AND DUP2 ADD DUP2 DUP2 LT DUP6 DUP3 GT OR ISZERO PUSH2 0x2683 JUMPI PUSH2 0x2683 PUSH2 0x252D JUMP JUMPDEST PUSH1 0x40 MSTORE SWAP2 DUP3 MSTORE DUP5 DUP3 ADD SWAP3 POP DUP4 DUP2 ADD DUP6 ADD SWAP2 DUP9 DUP4 GT ISZERO PUSH2 0x26A1 JUMPI PUSH1 0x0 DUP1 REVERT JUMPDEST SWAP4 DUP6 ADD SWAP4 JUMPDEST DUP3 DUP6 LT ISZERO PUSH2 0x26C6 JUMPI PUSH2 0x26B7 DUP6 PUSH2 0x25FD JUMP JUMPDEST DUP5 MSTORE SWAP4 DUP6 ADD SWAP4 SWAP3 DUP6 ADD SWAP3 PUSH2 0x26A6 JUMP JUMPDEST SWAP9 SWAP8 POP POP POP POP POP POP POP POP JUMP JUMPDEST DUP3 DUP2 MSTORE PUSH1 0x40 PUSH1 0x20 DUP3 ADD MSTORE PUSH1 0x0 PUSH2 0x26EB PUSH1 0x40 DUP4 ADD DUP5 PUSH2 0x23CC JUMP JUMPDEST SWAP5 SWAP4 POP POP POP POP JUMP JUMPDEST DUP1 MLOAD PUSH1 0x1 PUSH1 0x1 PUSH1 0xD0 SHL SUB NOT DUP2 AND DUP2 EQ PUSH2 0x2608 JUMPI PUSH1 0x0 DUP1 REVERT JUMPDEST PUSH1 0x0 DUP1 PUSH1 0x40 DUP4 DUP6 SUB SLT ISZERO PUSH2 0x271E JUMPI PUSH1 0x0 DUP1 REVERT JUMPDEST DUP3 MLOAD PUSH2 0x2729 DUP2 PUSH2 0x24D3 JUMP JUMPDEST SWAP2 POP PUSH2 0x2737 PUSH1 0x20 DUP5 ADD PUSH2 0x26F3 JUMP JUMPDEST SWAP1 POP SWAP3 POP SWAP3 SWAP1 POP JUMP JUMPDEST PUSH1 0x0 DUP3 PUSH2 0x274F JUMPI PUSH2 0x274F PUSH2 0x255C JUMP JUMPDEST POP DIV SWAP1 JUMP JUMPDEST PUSH1 0x0 DUP1 PUSH1 0x0 DUP1 PUSH1 0x0 DUP1 PUSH1 0x0 PUSH1 0xE0 DUP9 DUP11 SUB SLT ISZERO PUSH2 0x276F JUMPI PUSH1 0x0 DUP1 REVERT JUMPDEST PUSH2 0x2778 DUP9 PUSH2 0x26F3 JUMP JUMPDEST SWAP7 POP PUSH1 0x20 DUP9 ADD MLOAD SWAP6 POP PUSH1 0x40 DUP9 ADD MLOAD SWAP5 POP PUSH1 0x60 DUP9 ADD MLOAD SWAP4 POP PUSH1 0x80 DUP9 ADD MLOAD PUSH2 0x279D DUP2 PUSH2 0x2471 JUMP JUMPDEST PUSH1 0xA0 DUP10 ADD MLOAD SWAP1 SWAP4 POP PUSH1 0xFF DUP2 AND DUP2 EQ PUSH2 0x27B4 JUMPI PUSH1 0x0 DUP1 REVERT JUMPDEST PUSH1 0xC0 DUP10 ADD MLOAD SWAP1 SWAP3 POP PUSH2 0x27C5 DUP2 PUSH2 0x24D3 JUMP JUMPDEST DUP1 SWAP2 POP POP SWAP3 SWAP6 SWAP9 SWAP2 SWAP5 SWAP8 POP SWAP3 SWAP6 POP JUMP INVALID SWAP12 PUSH24 0x9B17422D0DF92223018B32B4D1FA46E071723D6817E2486D STOP EXTCODESIZE 0xEC 0xC5 PUSH0 STOP COINBASE TIMESTAMP NUMBER DIFFICULTY GASLIMIT CHAINID SELFBALANCE BASEFEE BLOBHASH BLOBBASEFEE 0x4B 0x4C 0x4D 0x4E 0x4F POP MLOAD MSTORE MSTORE8 SLOAD SSTORE JUMP JUMPI PC MSIZE GAS ADDRESS BALANCE ORIGIN CALLER CALLVALUE CALLDATALOAD CALLDATASIZE CALLDATACOPY CODESIZE CODECOPY LOG2 PUSH5 0x6970667358 0x22 SLT KECCAK256 0x1F 0xAE SELFDESTRUCT SWAP11 0xB9 0xA7 MULMOD 0xA7 DUP1 0xE6 0xA5 DUP15 0xB1 PUSH0 GAS 0xD4 GT SWAP15 KECCAK256 PUSH32 0x7FFFFF88BBCF348BDF11A43464736F6C63430008180033000000000000000000 "
				},
				"gasEstimates": {
					"creation": {
						"codeDepositCost": "2063800",
						"executionCost": "infinite",
						"totalCost": "infinite"
					},
					"external": {
						"CLAIM_WINDOW_ROUNDS()": "307",
						"INTERACTION_WINDOW()": "306",
						"ROUND_DURATION()": "infinite",
						"SEGMENTS_PER_ROUND()": "306",
						"SEGMENT_DURATION()": "392",
						"SETTLEMENT_WINDOW()": "307",
						"addToPot()": "infinite",
						"claimWinnings(uint256)": "infinite",
						"currentAccumulatedRewards()": "2362",
						"currentRound()": "2386",
						"currentSegment()": "2407",
						"eligibleRegistry()": "2427",
						"entriesPaused()": "2400",
						"fundPot()": "infinite",
						"gameRegistry()": "2470",
						"gameStarted()": "2378",
						"gameUnclaimed_winningsPool()": "2362",
						"getCurrentWindow()": "infinite",
						"getRoundResult(uint256)": "infinite",
						"getRoundState()": "infinite",
						"getWindowAt(uint256)": "infinite",
						"hasClaimed(uint256,address)": "2697",
						"isSettlementWindow()": "4641",
						"nudgeScroll()": "infinite",
						"owner()": "2444",
						"pauseEntries()": "26601",
						"pauseSettlement()": "26621",
						"positionCounter()": "2407",
						"prizeEscrow()": "2406",
						"protocolCutBps()": "2364",
						"renounceOwnership()": "infinite",
						"roundPerWinnerAmount(uint256)": "2548",
						"roundPotAmount(uint256)": "2571",
						"roundRemainder(uint256)": "2527",
						"roundWinners(uint256,uint256)": "4797",
						"roundWinningString(uint256)": "2557",
						"router()": "2469",
						"segmentStartTime()": "2407",
						"setEligibleRegistry(address)": "26795",
						"setGameRegistry(address)": "26831",
						"setPrizeEscrow(address)": "26854",
						"setProtocolCutBps(uint256)": "25682",
						"setRouter(address)": "26897",
						"setSettler(address)": "28017",
						"setShuffleEnabled(bool)": "26798",
						"setWinnersPerRound(uint256)": "25668",
						"settleSegment()": "infinite",
						"settlementPaused()": "2455",
						"settler()": "2427",
						"shuffleEnabled()": "2400",
						"startGame()": "infinite",
						"timeRemainingInSegment()": "infinite",
						"transferOwnership(address)": "infinite",
						"unpauseEntries()": "26615",
						"unpauseSettlement()": "26638",
						"winnersPerRound()": "2362"
					},
					"internal": {
						"_activateRoundEntries(uint256)": "infinite",
						"_distributePotAndRecord(uint256,address[] memory,uint256)": "infinite",
						"_findVerifiedWinners(uint256,bytes6)": "infinite",
						"_freezeWinningString(uint256)": "infinite",
						"_isInSettlementWindow()": "4344",
						"_processExpiredEntries(uint256)": "infinite",
						"_settleRound()": "infinite"
					}
				},
				"methodIdentifiers": {
					"CLAIM_WINDOW_ROUNDS()": "ac650783",
					"INTERACTION_WINDOW()": "7f35d49f",
					"ROUND_DURATION()": "6641ea08",
					"SEGMENTS_PER_ROUND()": "b7bc5fb6",
					"SEGMENT_DURATION()": "231e832d",
					"SETTLEMENT_WINDOW()": "3deb6cae",
					"addToPot()": "17ebf6ae",
					"claimWinnings(uint256)": "677bd9ff",
					"currentAccumulatedRewards()": "b2721164",
					"currentRound()": "8a19c8bc",
					"currentSegment()": "99b465cb",
					"eligibleRegistry()": "92eaa9d9",
					"entriesPaused()": "2ee0c463",
					"fundPot()": "9c737e8f",
					"gameRegistry()": "da090755",
					"gameStarted()": "5e123ce4",
					"gameUnclaimed_winningsPool()": "d38970bc",
					"getCurrentWindow()": "0f67e7d5",
					"getRoundResult(uint256)": "02e28c70",
					"getRoundState()": "293c2958",
					"getWindowAt(uint256)": "8e6a134b",
					"hasClaimed(uint256,address)": "873f6f9e",
					"isSettlementWindow()": "c33b7586",
					"nudgeScroll()": "0b7a567b",
					"owner()": "8da5cb5b",
					"pauseEntries()": "0a8506ca",
					"pauseSettlement()": "d57f9525",
					"positionCounter()": "63d5ab8d",
					"prizeEscrow()": "1a3b8e8c",
					"protocolCutBps()": "41d67d06",
					"renounceOwnership()": "715018a6",
					"roundPerWinnerAmount(uint256)": "f82a23d1",
					"roundPotAmount(uint256)": "7f79ba59",
					"roundRemainder(uint256)": "b303feeb",
					"roundWinners(uint256,uint256)": "03e3cd6a",
					"roundWinningString(uint256)": "79eedbdd",
					"router()": "f887ea40",
					"segmentStartTime()": "cc16fe5b",
					"setEligibleRegistry(address)": "f13afb90",
					"setGameRegistry(address)": "dd898b2f",
					"setPrizeEscrow(address)": "5f303f1c",
					"setProtocolCutBps(uint256)": "456990c7",
					"setRouter(address)": "c0d78655",
					"setSettler(address)": "07f19eba",
					"setShuffleEnabled(bool)": "ebd2fe41",
					"setWinnersPerRound(uint256)": "1ad41d14",
					"settleSegment()": "46a662bf",
					"settlementPaused()": "4168632d",
					"settler()": "ab221a76",
					"shuffleEnabled()": "c74b817d",
					"startGame()": "d65ab5f2",
					"timeRemainingInSegment()": "a1a016a3",
					"transferOwnership(address)": "f2fde38b",
					"unpauseEntries()": "e9755b59",
					"unpauseSettlement()": "76d9ff2c",
					"winnersPerRound()": "77043591"
				}
			},
			"storageLayout": {
				"storage": [
					{
						"astId": 1829,
						"contract": "/contracts/TimbPrize.sol:TimbPrize",
						"label": "_owner",
						"offset": 0,
						"slot": "0",
						"type": "t_address"
					},
					{
						"astId": 164,
						"contract": "/contracts/TimbPrize.sol:TimbPrize",
						"label": "prizeEscrow",
						"offset": 0,
						"slot": "1",
						"type": "t_address"
					},
					{
						"astId": 167,
						"contract": "/contracts/TimbPrize.sol:TimbPrize",
						"label": "gameRegistry",
						"offset": 0,
						"slot": "2",
						"type": "t_address"
					},
					{
						"astId": 170,
						"contract": "/contracts/TimbPrize.sol:TimbPrize",
						"label": "router",
						"offset": 0,
						"slot": "3",
						"type": "t_address"
					},
					{
						"astId": 173,
						"contract": "/contracts/TimbPrize.sol:TimbPrize",
						"label": "eligibleRegistry",
						"offset": 0,
						"slot": "4",
						"type": "t_address"
					},
					{
						"astId": 176,
						"contract": "/contracts/TimbPrize.sol:TimbPrize",
						"label": "settler",
						"offset": 0,
						"slot": "5",
						"type": "t_address"
					},
					{
						"astId": 179,
						"contract": "/contracts/TimbPrize.sol:TimbPrize",
						"label": "positionCounter",
						"offset": 0,
						"slot": "6",
						"type": "t_uint256"
					},
					{
						"astId": 182,
						"contract": "/contracts/TimbPrize.sol:TimbPrize",
						"label": "shuffleEnabled",
						"offset": 0,
						"slot": "7",
						"type": "t_bool"
					},
					{
						"astId": 185,
						"contract": "/contracts/TimbPrize.sol:TimbPrize",
						"label": "currentRound",
						"offset": 0,
						"slot": "8",
						"type": "t_uint256"
					},
					{
						"astId": 188,
						"contract": "/contracts/TimbPrize.sol:TimbPrize",
						"label": "currentSegment",
						"offset": 0,
						"slot": "9",
						"type": "t_uint256"
					},
					{
						"astId": 191,
						"contract": "/contracts/TimbPrize.sol:TimbPrize",
						"label": "segmentStartTime",
						"offset": 0,
						"slot": "10",
						"type": "t_uint256"
					},
					{
						"astId": 194,
						"contract": "/contracts/TimbPrize.sol:TimbPrize",
						"label": "gameStarted",
						"offset": 0,
						"slot": "11",
						"type": "t_bool"
					},
					{
						"astId": 197,
						"contract": "/contracts/TimbPrize.sol:TimbPrize",
						"label": "currentAccumulatedRewards",
						"offset": 0,
						"slot": "12",
						"type": "t_uint256"
					},
					{
						"astId": 200,
						"contract": "/contracts/TimbPrize.sol:TimbPrize",
						"label": "gameUnclaimed_winningsPool",
						"offset": 0,
						"slot": "13",
						"type": "t_uint256"
					},
					{
						"astId": 203,
						"contract": "/contracts/TimbPrize.sol:TimbPrize",
						"label": "winnersPerRound",
						"offset": 0,
						"slot": "14",
						"type": "t_uint256"
					},
					{
						"astId": 206,
						"contract": "/contracts/TimbPrize.sol:TimbPrize",
						"label": "protocolCutBps",
						"offset": 0,
						"slot": "15",
						"type": "t_uint256"
					},
					{
						"astId": 211,
						"contract": "/contracts/TimbPrize.sol:TimbPrize",
						"label": "roundWinningString",
						"offset": 0,
						"slot": "16",
						"type": "t_mapping(t_uint256,t_bytes6)"
					},
					{
						"astId": 216,
						"contract": "/contracts/TimbPrize.sol:TimbPrize",
						"label": "roundPotAmount",
						"offset": 0,
						"slot": "17",
						"type": "t_mapping(t_uint256,t_uint256)"
					},
					{
						"astId": 222,
						"contract": "/contracts/TimbPrize.sol:TimbPrize",
						"label": "roundWinners",
						"offset": 0,
						"slot": "18",
						"type": "t_mapping(t_uint256,t_array(t_address)dyn_storage)"
					},
					{
						"astId": 227,
						"contract": "/contracts/TimbPrize.sol:TimbPrize",
						"label": "roundPerWinnerAmount",
						"offset": 0,
						"slot": "19",
						"type": "t_mapping(t_uint256,t_uint256)"
					},
					{
						"astId": 232,
						"contract": "/contracts/TimbPrize.sol:TimbPrize",
						"label": "roundRemainder",
						"offset": 0,
						"slot": "20",
						"type": "t_mapping(t_uint256,t_uint256)"
					},
					{
						"astId": 239,
						"contract": "/contracts/TimbPrize.sol:TimbPrize",
						"label": "hasClaimed",
						"offset": 0,
						"slot": "21",
						"type": "t_mapping(t_uint256,t_mapping(t_address,t_bool))"
					},
					{
						"astId": 242,
						"contract": "/contracts/TimbPrize.sol:TimbPrize",
						"label": "entriesPaused",
						"offset": 0,
						"slot": "22",
						"type": "t_bool"
					},
					{
						"astId": 244,
						"contract": "/contracts/TimbPrize.sol:TimbPrize",
						"label": "settlementPaused",
						"offset": 1,
						"slot": "22",
						"type": "t_bool"
					}
				],
				"types": {
					"t_address": {
						"encoding": "inplace",
						"label": "address",
						"numberOfBytes": "20"
					},
					"t_array(t_address)dyn_storage": {
						"base": "t_address",
						"encoding": "dynamic_array",
						"label": "address[]",
						"numberOfBytes": "32"
					},
					"t_bool": {
						"encoding": "inplace",
						"label": "bool",
						"numberOfBytes": "1"
					},
					"t_bytes6": {
						"encoding": "inplace",
						"label": "bytes6",
						"numberOfBytes": "6"
					},
					"t_mapping(t_address,t_bool)": {
						"encoding": "mapping",
						"key": "t_address",
						"label": "mapping(address => bool)",
						"numberOfBytes": "32",
						"value": "t_bool"
					},
					"t_mapping(t_uint256,t_array(t_address)dyn_storage)": {
						"encoding": "mapping",
						"key": "t_uint256",
						"label": "mapping(uint256 => address[])",
						"numberOfBytes": "32",
						"value": "t_array(t_address)dyn_storage"
					},
					"t_mapping(t_uint256,t_bytes6)": {
						"encoding": "mapping",
						"key": "t_uint256",
						"label": "mapping(uint256 => bytes6)",
						"numberOfBytes": "32",
						"value": "t_bytes6"
					},
					"t_mapping(t_uint256,t_mapping(t_address,t_bool))": {
						"encoding": "mapping",
						"key": "t_uint256",
						"label": "mapping(uint256 => mapping(address => bool))",
						"numberOfBytes": "32",
						"value": "t_mapping(t_address,t_bool)"
					},
					"t_mapping(t_uint256,t_uint256)": {
						"encoding": "mapping",
						"key": "t_uint256",
						"label": "mapping(uint256 => uint256)",
						"numberOfBytes": "32",
						"value": "t_uint256"
					},
					"t_uint256": {
						"encoding": "inplace",
						"label": "uint256",
						"numberOfBytes": "32"
					}
				}
			},
			"userdoc": {
				"kind": "user",
				"methods": {
					"CLAIM_WINDOW_ROUNDS()": {
						"notice": "Claim window: 2 rounds after lastEligibleRound."
					},
					"INTERACTION_WINDOW()": {
						"notice": "Segment interaction window: 59 min 45 sec."
					},
					"ROUND_DURATION()": {
						"notice": "Full round duration (6 hours)."
					},
					"SEGMENTS_PER_ROUND()": {
						"notice": "Segments per round."
					},
					"SEGMENT_DURATION()": {
						"notice": "Full segment duration."
					},
					"SETTLEMENT_WINDOW()": {
						"notice": "Settlement window: 15 seconds."
					},
					"addToPot()": {
						"notice": "Add protocol fees to the pot (called by TimbTreasury)."
					},
					"claimWinnings(uint256)": {
						"notice": "Claim winnings for a round the caller won."
					},
					"currentAccumulatedRewards()": {
						"notice": "Current accumulated rewards (live prize pot, in ETH wei)."
					},
					"currentRound()": {
						"notice": "Current round number (starts at 0, first game round = 1)."
					},
					"currentSegment()": {
						"notice": "Current segment within the round (1–6)."
					},
					"eligibleRegistry()": {
						"notice": "EligibleTokenRegistry — token eligibility check."
					},
					"entriesPaused()": {
						"notice": "Per-function pause flags."
					},
					"fundPot()": {
						"notice": "Fund the prize pot directly (owner seeding)."
					},
					"gameRegistry()": {
						"notice": "GameRegistry — entry storage and verification."
					},
					"gameStarted()": {
						"notice": "Whether the game has been started."
					},
					"gameUnclaimed_winningsPool()": {
						"notice": "Undistributed winnings documented for winners pending claim."
					},
					"getCurrentWindow()": {
						"notice": "Returns the current 6-char display window from positionCounter."
					},
					"getRoundResult(uint256)": {
						"notice": "Returns settlement data for a completed round."
					},
					"getRoundState()": {
						"notice": "Returns all live state needed by the frontend in one call."
					},
					"getWindowAt(uint256)": {
						"notice": "Returns the 6-char window at any arbitrary counter value."
					},
					"hasClaimed(uint256,address)": {
						"notice": "Whether a winner has claimed for a round."
					},
					"isSettlementWindow()": {
						"notice": "Returns whether we are currently in the 0:15 settlement window."
					},
					"nudgeScroll()": {
						"notice": "Nudge the scroll position +1."
					},
					"positionCounter()": {
						"notice": "Scroll position counter — increments +1 per eligible swap."
					},
					"prizeEscrow()": {
						"notice": "PrizeEscrow — holds all prize ETH."
					},
					"protocolCutBps()": {
						"notice": "Owner-set protocol cut % from round settlement (basis points)."
					},
					"roundPerWinnerAmount(uint256)": {
						"notice": "Per-winner payout amount per round."
					},
					"roundPotAmount(uint256)": {
						"notice": "Frozen pot for each round (post-protocol-cut)."
					},
					"roundRemainder(uint256)": {
						"notice": "Remainder (r) for each round."
					},
					"roundWinners(uint256,uint256)": {
						"notice": "Winners documented per round."
					},
					"roundWinningString(uint256)": {
						"notice": "Frozen winning string for each round."
					},
					"router()": {
						"notice": "TimbSwapRouter — authorised to call nudgeScroll()."
					},
					"segmentStartTime()": {
						"notice": "Timestamp when the current segment started."
					},
					"settleSegment()": {
						"notice": "Advance to the next segment or settle the final segment."
					},
					"settler()": {
						"notice": "Settler address — authorised to call settleSegment()."
					},
					"shuffleEnabled()": {
						"notice": "Shuffle enabled — if true, alphabet reseeded each round."
					},
					"startGame()": {
						"notice": "Start the prize game. Begins round #1."
					},
					"timeRemainingInSegment()": {
						"notice": "Time remaining in current segment interaction window.         Returns 0 if in settlement window."
					},
					"winnersPerRound()": {
						"notice": "Number of winners per round (owner-configurable)."
					}
				},
				"notice": "Prize game round logic, scroll mechanic, settlement, and payouts. Architecture:   - Perpetual self-continuing rounds (6 hours each).   - 6 segments per round: 59:45 interaction + 0:15 settlement.   - positionCounter increments +1 per eligible swap (via nudgeScroll).   - Winning string = 6-char window in 36-char alphabet at freeze point.   - Freeze: keccak256(blockhash(block.number-1) + counter + roundNumber).   - Winners: exact 6-char match, equal split, remainder (r) snowballs.   - Prize ETH held in PrizeEscrow, paid on winner claim.   - Dual-layer verification at settlement via GameRegistry. Prize pool accounting (balance sheet):   currentAccumulatedRewards — live building pot   gameUnclaimed_winningsPool — documented winners pending claim   Entry escrow in GameRegistry — completely separate, never touched here Security:   - ReentrancyGuard on claimWinnings(), nudgeScroll(), settleSegment().   - Settler address (owner initially) is the only caller for settlement.   - Settlement reverts if called before segment timer expires.   - nudgeScroll() blocked during 0:15 settlement window.   - Winner claim verified via dual-layer GameRegistry check.   - ETH never held here — all prize ETH in PrizeEscrow.   - Per-function pause (entries, settlement pausable independently). Deployment:   1. Deploy PrizeEscrow → Deploy TimbPrize(escrow, registry, router)   2. registry.setTimbPrize(address(this))   3. router.setTimbPrize(address(this))   4. setEligibleRegistry(address)   5. Fund PrizeEscrow with initial ETH   6. startGame() — begins round #1",
				"version": 1
			}
		}
	}
}