{
	"contracts/TimbFarm.sol": {
		"TimbFarm": {
			"abi": [
				{
					"inputs": [
						{
							"internalType": "address",
							"name": "_timbsToken",
							"type": "address"
						},
						{
							"internalType": "uint256",
							"name": "_rewardRatePerSecond",
							"type": "uint256"
						}
					],
					"stateMutability": "nonpayable",
					"type": "constructor"
				},
				{
					"inputs": [],
					"name": "ContractPaused",
					"type": "error"
				},
				{
					"inputs": [
						{
							"internalType": "uint256",
							"name": "required",
							"type": "uint256"
						},
						{
							"internalType": "uint256",
							"name": "available",
							"type": "uint256"
						}
					],
					"name": "InsufficientRewardBalance",
					"type": "error"
				},
				{
					"inputs": [
						{
							"internalType": "uint256",
							"name": "requested",
							"type": "uint256"
						},
						{
							"internalType": "uint256",
							"name": "available",
							"type": "uint256"
						}
					],
					"name": "InsufficientStake",
					"type": "error"
				},
				{
					"inputs": [],
					"name": "LpTokenAlreadyLocked",
					"type": "error"
				},
				{
					"inputs": [],
					"name": "LpTokenNotSet",
					"type": "error"
				},
				{
					"inputs": [],
					"name": "NoPendingRewards",
					"type": "error"
				},
				{
					"inputs": [],
					"name": "NotAuthorised",
					"type": "error"
				},
				{
					"inputs": [
						{
							"internalType": "address",
							"name": "owner",
							"type": "address"
						}
					],
					"name": "OwnableInvalidOwner",
					"type": "error"
				},
				{
					"inputs": [
						{
							"internalType": "address",
							"name": "account",
							"type": "address"
						}
					],
					"name": "OwnableUnauthorizedAccount",
					"type": "error"
				},
				{
					"inputs": [],
					"name": "ReentrancyGuardReentrantCall",
					"type": "error"
				},
				{
					"inputs": [
						{
							"internalType": "address",
							"name": "token",
							"type": "address"
						}
					],
					"name": "SafeERC20FailedOperation",
					"type": "error"
				},
				{
					"inputs": [],
					"name": "ZeroAddress",
					"type": "error"
				},
				{
					"inputs": [],
					"name": "ZeroAmount",
					"type": "error"
				},
				{
					"anonymous": false,
					"inputs": [
						{
							"indexed": true,
							"internalType": "address",
							"name": "user",
							"type": "address"
						},
						{
							"indexed": false,
							"internalType": "uint256",
							"name": "lpAmount",
							"type": "uint256"
						}
					],
					"name": "EmergencyWithdraw",
					"type": "event"
				},
				{
					"anonymous": false,
					"inputs": [
						{
							"indexed": true,
							"internalType": "address",
							"name": "lpToken",
							"type": "address"
						}
					],
					"name": "LpTokenSet",
					"type": "event"
				},
				{
					"anonymous": false,
					"inputs": [
						{
							"indexed": true,
							"internalType": "address",
							"name": "previousOwner",
							"type": "address"
						},
						{
							"indexed": true,
							"internalType": "address",
							"name": "newOwner",
							"type": "address"
						}
					],
					"name": "OwnershipTransferred",
					"type": "event"
				},
				{
					"anonymous": false,
					"inputs": [
						{
							"indexed": true,
							"internalType": "address",
							"name": "by",
							"type": "address"
						}
					],
					"name": "Paused",
					"type": "event"
				},
				{
					"anonymous": false,
					"inputs": [
						{
							"indexed": true,
							"internalType": "address",
							"name": "notifier",
							"type": "address"
						},
						{
							"indexed": false,
							"internalType": "uint256",
							"name": "amount",
							"type": "uint256"
						},
						{
							"indexed": false,
							"internalType": "uint256",
							"name": "duration",
							"type": "uint256"
						}
					],
					"name": "RewardNotified",
					"type": "event"
				},
				{
					"anonymous": false,
					"inputs": [
						{
							"indexed": true,
							"internalType": "address",
							"name": "notifier",
							"type": "address"
						},
						{
							"indexed": false,
							"internalType": "bool",
							"name": "authorised",
							"type": "bool"
						}
					],
					"name": "RewardNotifierSet",
					"type": "event"
				},
				{
					"anonymous": false,
					"inputs": [
						{
							"indexed": false,
							"internalType": "uint256",
							"name": "newRatePerSecond",
							"type": "uint256"
						}
					],
					"name": "RewardRateSet",
					"type": "event"
				},
				{
					"anonymous": false,
					"inputs": [
						{
							"indexed": true,
							"internalType": "address",
							"name": "user",
							"type": "address"
						},
						{
							"indexed": false,
							"internalType": "uint256",
							"name": "timbsAmount",
							"type": "uint256"
						}
					],
					"name": "RewardsClaimed",
					"type": "event"
				},
				{
					"anonymous": false,
					"inputs": [
						{
							"indexed": true,
							"internalType": "address",
							"name": "user",
							"type": "address"
						},
						{
							"indexed": false,
							"internalType": "uint256",
							"name": "lpAmount",
							"type": "uint256"
						}
					],
					"name": "Staked",
					"type": "event"
				},
				{
					"anonymous": false,
					"inputs": [
						{
							"indexed": true,
							"internalType": "address",
							"name": "treasury",
							"type": "address"
						}
					],
					"name": "TreasurySet",
					"type": "event"
				},
				{
					"anonymous": false,
					"inputs": [
						{
							"indexed": true,
							"internalType": "address",
							"name": "by",
							"type": "address"
						}
					],
					"name": "Unpaused",
					"type": "event"
				},
				{
					"anonymous": false,
					"inputs": [
						{
							"indexed": true,
							"internalType": "address",
							"name": "user",
							"type": "address"
						},
						{
							"indexed": false,
							"internalType": "uint256",
							"name": "lpAmount",
							"type": "uint256"
						}
					],
					"name": "Unstaked",
					"type": "event"
				},
				{
					"inputs": [],
					"name": "claimRewards",
					"outputs": [],
					"stateMutability": "nonpayable",
					"type": "function"
				},
				{
					"inputs": [
						{
							"internalType": "address",
							"name": "account",
							"type": "address"
						}
					],
					"name": "earned",
					"outputs": [
						{
							"internalType": "uint256",
							"name": "",
							"type": "uint256"
						}
					],
					"stateMutability": "view",
					"type": "function"
				},
				{
					"inputs": [],
					"name": "emergencyWithdraw",
					"outputs": [],
					"stateMutability": "nonpayable",
					"type": "function"
				},
				{
					"inputs": [],
					"name": "estimatedEmissionsAPR",
					"outputs": [
						{
							"internalType": "uint256",
							"name": "aprBps",
							"type": "uint256"
						}
					],
					"stateMutability": "view",
					"type": "function"
				},
				{
					"inputs": [],
					"name": "exit",
					"outputs": [],
					"stateMutability": "nonpayable",
					"type": "function"
				},
				{
					"inputs": [],
					"name": "lastTimeRewardApplicable",
					"outputs": [
						{
							"internalType": "uint256",
							"name": "",
							"type": "uint256"
						}
					],
					"stateMutability": "view",
					"type": "function"
				},
				{
					"inputs": [],
					"name": "lastUpdateTime",
					"outputs": [
						{
							"internalType": "uint256",
							"name": "",
							"type": "uint256"
						}
					],
					"stateMutability": "view",
					"type": "function"
				},
				{
					"inputs": [],
					"name": "lpToken",
					"outputs": [
						{
							"internalType": "contract IERC20",
							"name": "",
							"type": "address"
						}
					],
					"stateMutability": "view",
					"type": "function"
				},
				{
					"inputs": [],
					"name": "lpTokenLocked",
					"outputs": [
						{
							"internalType": "bool",
							"name": "",
							"type": "bool"
						}
					],
					"stateMutability": "view",
					"type": "function"
				},
				{
					"inputs": [
						{
							"internalType": "uint256",
							"name": "amount",
							"type": "uint256"
						},
						{
							"internalType": "uint256",
							"name": "duration",
							"type": "uint256"
						}
					],
					"name": "notifyRewardAmount",
					"outputs": [],
					"stateMutability": "nonpayable",
					"type": "function"
				},
				{
					"inputs": [],
					"name": "owner",
					"outputs": [
						{
							"internalType": "address",
							"name": "",
							"type": "address"
						}
					],
					"stateMutability": "view",
					"type": "function"
				},
				{
					"inputs": [],
					"name": "pause",
					"outputs": [],
					"stateMutability": "nonpayable",
					"type": "function"
				},
				{
					"inputs": [],
					"name": "paused",
					"outputs": [
						{
							"internalType": "bool",
							"name": "",
							"type": "bool"
						}
					],
					"stateMutability": "view",
					"type": "function"
				},
				{
					"inputs": [
						{
							"internalType": "address",
							"name": "",
							"type": "address"
						}
					],
					"name": "pendingRewards",
					"outputs": [
						{
							"internalType": "uint256",
							"name": "",
							"type": "uint256"
						}
					],
					"stateMutability": "view",
					"type": "function"
				},
				{
					"inputs": [],
					"name": "periodFinish",
					"outputs": [
						{
							"internalType": "uint256",
							"name": "",
							"type": "uint256"
						}
					],
					"stateMutability": "view",
					"type": "function"
				},
				{
					"inputs": [
						{
							"internalType": "address",
							"name": "token",
							"type": "address"
						},
						{
							"internalType": "uint256",
							"name": "amount",
							"type": "uint256"
						}
					],
					"name": "recoverERC20",
					"outputs": [],
					"stateMutability": "nonpayable",
					"type": "function"
				},
				{
					"inputs": [],
					"name": "renounceOwnership",
					"outputs": [],
					"stateMutability": "nonpayable",
					"type": "function"
				},
				{
					"inputs": [
						{
							"internalType": "address",
							"name": "",
							"type": "address"
						}
					],
					"name": "rewardNotifiers",
					"outputs": [
						{
							"internalType": "bool",
							"name": "",
							"type": "bool"
						}
					],
					"stateMutability": "view",
					"type": "function"
				},
				{
					"inputs": [],
					"name": "rewardPerToken",
					"outputs": [
						{
							"internalType": "uint256",
							"name": "",
							"type": "uint256"
						}
					],
					"stateMutability": "view",
					"type": "function"
				},
				{
					"inputs": [],
					"name": "rewardPerTokenStored",
					"outputs": [
						{
							"internalType": "uint256",
							"name": "",
							"type": "uint256"
						}
					],
					"stateMutability": "view",
					"type": "function"
				},
				{
					"inputs": [],
					"name": "rewardRatePerSecond",
					"outputs": [
						{
							"internalType": "uint256",
							"name": "",
							"type": "uint256"
						}
					],
					"stateMutability": "view",
					"type": "function"
				},
				{
					"inputs": [
						{
							"internalType": "address",
							"name": "_lpToken",
							"type": "address"
						}
					],
					"name": "setLpToken",
					"outputs": [],
					"stateMutability": "nonpayable",
					"type": "function"
				},
				{
					"inputs": [
						{
							"internalType": "address",
							"name": "notifier",
							"type": "address"
						},
						{
							"internalType": "bool",
							"name": "authorised",
							"type": "bool"
						}
					],
					"name": "setRewardNotifier",
					"outputs": [],
					"stateMutability": "nonpayable",
					"type": "function"
				},
				{
					"inputs": [
						{
							"internalType": "uint256",
							"name": "_ratePerSecond",
							"type": "uint256"
						}
					],
					"name": "setRewardRate",
					"outputs": [],
					"stateMutability": "nonpayable",
					"type": "function"
				},
				{
					"inputs": [
						{
							"internalType": "address",
							"name": "_treasury",
							"type": "address"
						}
					],
					"name": "setTreasury",
					"outputs": [],
					"stateMutability": "nonpayable",
					"type": "function"
				},
				{
					"inputs": [
						{
							"internalType": "uint256",
							"name": "amount",
							"type": "uint256"
						}
					],
					"name": "stake",
					"outputs": [],
					"stateMutability": "nonpayable",
					"type": "function"
				},
				{
					"inputs": [
						{
							"internalType": "address",
							"name": "",
							"type": "address"
						}
					],
					"name": "stakedBalance",
					"outputs": [
						{
							"internalType": "uint256",
							"name": "",
							"type": "uint256"
						}
					],
					"stateMutability": "view",
					"type": "function"
				},
				{
					"inputs": [],
					"name": "timbsToken",
					"outputs": [
						{
							"internalType": "contract IERC20",
							"name": "",
							"type": "address"
						}
					],
					"stateMutability": "view",
					"type": "function"
				},
				{
					"inputs": [],
					"name": "totalStaked",
					"outputs": [
						{
							"internalType": "uint256",
							"name": "",
							"type": "uint256"
						}
					],
					"stateMutability": "view",
					"type": "function"
				},
				{
					"inputs": [
						{
							"internalType": "address",
							"name": "newOwner",
							"type": "address"
						}
					],
					"name": "transferOwnership",
					"outputs": [],
					"stateMutability": "nonpayable",
					"type": "function"
				},
				{
					"inputs": [],
					"name": "treasury",
					"outputs": [
						{
							"internalType": "address",
							"name": "",
							"type": "address"
						}
					],
					"stateMutability": "view",
					"type": "function"
				},
				{
					"inputs": [],
					"name": "unpause",
					"outputs": [],
					"stateMutability": "nonpayable",
					"type": "function"
				},
				{
					"inputs": [
						{
							"internalType": "uint256",
							"name": "amount",
							"type": "uint256"
						}
					],
					"name": "unstake",
					"outputs": [],
					"stateMutability": "nonpayable",
					"type": "function"
				},
				{
					"inputs": [
						{
							"internalType": "address",
							"name": "",
							"type": "address"
						}
					],
					"name": "userRewardPerTokenPaid",
					"outputs": [
						{
							"internalType": "uint256",
							"name": "",
							"type": "uint256"
						}
					],
					"stateMutability": "view",
					"type": "function"
				}
			],
			"devdoc": {
				"errors": {
					"OwnableInvalidOwner(address)": [
						{
							"details": "The owner is not a valid owner account. (eg. `address(0)`)"
						}
					],
					"OwnableUnauthorizedAccount(address)": [
						{
							"details": "The caller account is not authorized to perform an operation."
						}
					],
					"ReentrancyGuardReentrantCall()": [
						{
							"details": "Unauthorized reentrant call."
						}
					],
					"SafeERC20FailedOperation(address)": [
						{
							"details": "An operation with an ERC-20 token failed."
						}
					]
				},
				"kind": "dev",
				"methods": {
					"constructor": {
						"params": {
							"_rewardRatePerSecond": "Initial TIMBS emission rate per second.",
							"_timbsToken": "TIMBS ERC-20 address (reward token)."
						}
					},
					"notifyRewardAmount(uint256,uint256)": {
						"details": "Called by owner or TimbTreasury. Rolls over remaining rewards      if current period is still active.",
						"params": {
							"amount": "TIMBS to add.",
							"duration": "Seconds over which to distribute."
						}
					},
					"owner()": {
						"details": "Returns the address of the current owner."
					},
					"recoverERC20(address,uint256)": {
						"details": "Cannot recover staked LP tokens (protected by totalStaked)."
					},
					"renounceOwnership()": {
						"details": "Leaves the contract without owner. It will not be possible to call `onlyOwner` functions. Can only be called by the current owner. NOTE: Renouncing ownership will leave the contract without an owner, thereby disabling any functionality that is only available to the owner."
					},
					"setLpToken(address)": {
						"details": "Can only be set before first stake (lpTokenLocked = false).      After first stake, LP token is permanent — no rug vector."
					},
					"stake(uint256)": {
						"details": "Caller must approve this contract for lpToken before calling.      First stake locks the lpToken address permanently.",
						"params": {
							"amount": "LP token amount to stake."
						}
					},
					"transferOwnership(address)": {
						"details": "Transfers ownership of the contract to a new account (`newOwner`). Can only be called by the current owner."
					},
					"unstake(uint256)": {
						"details": "Collateral ownership enforced — msg.sender only.      Pending rewards NOT auto-claimed. Use exit() for combined op.",
						"params": {
							"amount": "LP token amount to unstake."
						}
					}
				},
				"title": "TimbFarm",
				"version": 1
			},
			"evm": {
				"assembly": "    /* \"contracts/TimbFarm.sol\":2041:16772  contract TimbFarm is Ownable, ReentrancyGuard {... */\n  mstore(0x40, 0xa0)\n    /* \"contracts/TimbFarm.sol\":6398:6708  constructor(address _timbsToken, uint256 _rewardRatePerSecond)... */\n  callvalue\n  dup1\n  iszero\n  tag_1\n  jumpi\n  0x00\n  dup1\n  revert\ntag_1:\n  pop\n  mload(0x40)\n  sub(codesize, bytecodeSize)\n  dup1\n  bytecodeSize\n  dup4\n  codecopy\n  dup2\n  add\n  0x40\n  dup2\n  swap1\n  mstore\n  tag_2\n  swap2\n  tag_3\n  jump\t// in\ntag_2:\n    /* \"contracts/TimbFarm.sol\":6477:6487  msg.sender */\n  caller\n  dup1\n    /* \"@openzeppelin/contracts/access/Ownable.sol\":1269:1364  if (initialOwner == address(0)) {... */\n  tag_8\n  jumpi\n    /* \"@openzeppelin/contracts/access/Ownable.sol\":1322:1353  OwnableInvalidOwner(address(0)) */\n  mload(0x40)\n  shl(0xe0, 0x1e4fbdf7)\n  dup2\n  mstore\n    /* \"@openzeppelin/contracts/access/Ownable.sol\":1350:1351  0 */\n  0x00\n    /* \"@openzeppelin/contracts/access/Ownable.sol\":1322:1353  OwnableInvalidOwner(address(0)) */\n  0x04\n  dup3\n  add\n    /* \"#utility.yul\":516:567   */\n  mstore\n    /* \"#utility.yul\":489:507   */\n  0x24\n  add\n    /* \"@openzeppelin/contracts/access/Ownable.sol\":1322:1353  OwnableInvalidOwner(address(0)) */\n  mload(0x40)\n  dup1\n  swap2\n  sub\n  swap1\n  revert\n    /* \"@openzeppelin/contracts/access/Ownable.sol\":1269:1364  if (initialOwner == address(0)) {... */\ntag_8:\n    /* \"@openzeppelin/contracts/access/Ownable.sol\":1373:1405  _transferOwnership(initialOwner) */\n  tag_11\n    /* \"@openzeppelin/contracts/access/Ownable.sol\":1392:1404  initialOwner */\n  dup2\n    /* \"@openzeppelin/contracts/access/Ownable.sol\":1373:1391  _transferOwnership */\n  tag_12\n    /* \"@openzeppelin/contracts/access/Ownable.sol\":1373:1405  _transferOwnership(initialOwner) */\n  jump\t// in\ntag_11:\n  pop\n    /* \"@openzeppelin/contracts/utils/ReentrancyGuard.sol\":2365:2366  1 */\n  0x01\n    /* \"@openzeppelin/contracts/utils/ReentrancyGuard.sol\":1505:1571  0x9b779b17422d0df92223018b32b4d1fa46e071723d6817e2486d003becc55f00 */\n  0x9b779b17422d0df92223018b32b4d1fa46e071723d6817e2486d003becc55f00\n    /* \"@openzeppelin/contracts/utils/ReentrancyGuard.sol\":2539:2605  _reentrancyGuardStorageSlot().getUint256Slot().value = NOT_ENTERED */\n  sstore\n  sub(shl(0xa0, 0x01), 0x01)\n    /* \"contracts/TimbFarm.sol\":6507:6532  _timbsToken == address(0) */\n  dup3\n  and\n    /* \"contracts/TimbFarm.sol\":6503:6554  if (_timbsToken == address(0)) revert ZeroAddress() */\n  tag_19\n  jumpi\n    /* \"contracts/TimbFarm.sol\":6541:6554  ZeroAddress() */\n  mload(0x40)\n  shl(0xe0, 0xd92e233d)\n  dup2\n  mstore\n  0x04\n  add\n  mload(0x40)\n  dup1\n  swap2\n  sub\n  swap1\n  revert\n    /* \"contracts/TimbFarm.sol\":6503:6554  if (_timbsToken == address(0)) revert ZeroAddress() */\ntag_19:\n  sub(shl(0xa0, 0x01), 0x01)\n    /* \"contracts/TimbFarm.sol\":6564:6605  timbsToken          = IERC20(_timbsToken) */\n  swap1\n  swap2\n  and\n  0x80\n  mstore\n    /* \"contracts/TimbFarm.sol\":6615:6634  rewardRatePerSecond */\n  0x03\n    /* \"contracts/TimbFarm.sol\":6615:6657  rewardRatePerSecond = _rewardRatePerSecond */\n  sstore\n    /* \"contracts/TimbFarm.sol\":6683:6693  msg.sender */\n  caller\n    /* \"contracts/TimbFarm.sol\":6667:6694  rewardNotifiers[msg.sender] */\n  0x00\n  swap1\n  dup2\n  mstore\n    /* \"contracts/TimbFarm.sol\":6667:6682  rewardNotifiers */\n  0x0b\n    /* \"contracts/TimbFarm.sol\":6667:6694  rewardNotifiers[msg.sender] */\n  0x20\n  mstore\n  0x40\n  swap1\n  keccak256\n    /* \"contracts/TimbFarm.sol\":6667:6701  rewardNotifiers[msg.sender] = true */\n  dup1\n  sload\n  not(0xff)\n  and\n    /* \"contracts/TimbFarm.sol\":6697:6701  true */\n  0x01\n    /* \"contracts/TimbFarm.sol\":6667:6701  rewardNotifiers[msg.sender] = true */\n  or\n  swap1\n  sstore\n    /* \"contracts/TimbFarm.sol\":2041:16772  contract TimbFarm is Ownable, ReentrancyGuard {... */\n  jump(tag_24)\n    /* \"@openzeppelin/contracts/access/Ownable.sol\":2912:3099  function _transferOwnership(address newOwner) internal virtual {... */\ntag_12:\n    /* \"@openzeppelin/contracts/access/Ownable.sol\":2985:3001  address oldOwner */\n  0x00\n    /* \"@openzeppelin/contracts/access/Ownable.sol\":3004:3010  _owner */\n  dup1\n  sload\n  sub(shl(0xa0, 0x01), 0x01)\n    /* \"@openzeppelin/contracts/access/Ownable.sol\":3020:3037  _owner = newOwner */\n  dup4\n  dup2\n  and\n  not(sub(shl(0xa0, 0x01), 0x01))\n  dup4\n  and\n  dup2\n  or\n  dup5\n  sstore\n    /* \"@openzeppelin/contracts/access/Ownable.sol\":3052:3092  OwnershipTransferred(oldOwner, newOwner) */\n  mload(0x40)\n    /* \"@openzeppelin/contracts/access/Ownable.sol\":3004:3010  _owner */\n  swap2\n  swap1\n  swap3\n  and\n  swap3\n  dup4\n  swap2\n    /* \"@openzeppelin/contracts/access/Ownable.sol\":3052:3092  OwnershipTransferred(oldOwner, newOwner) */\n  0x8be0079c531659141344cd1fd0a4f28419497f9722a3daafe3b4186f6b6457e0\n  swap2\n    /* \"@openzeppelin/contracts/access/Ownable.sol\":2985:3001  address oldOwner */\n  swap1\n    /* \"@openzeppelin/contracts/access/Ownable.sol\":3052:3092  OwnershipTransferred(oldOwner, newOwner) */\n  log3\n    /* \"@openzeppelin/contracts/access/Ownable.sol\":2975:3099  {... */\n  pop\n    /* \"@openzeppelin/contracts/access/Ownable.sol\":2912:3099  function _transferOwnership(address newOwner) internal virtual {... */\n  pop\n  jump\t// out\n    /* \"#utility.yul\":14:365   */\ntag_3:\n    /* \"#utility.yul\":93:99   */\n  0x00\n    /* \"#utility.yul\":101:107   */\n  dup1\n    /* \"#utility.yul\":154:156   */\n  0x40\n    /* \"#utility.yul\":142:151   */\n  dup4\n    /* \"#utility.yul\":133:140   */\n  dup6\n    /* \"#utility.yul\":129:152   */\n  sub\n    /* \"#utility.yul\":125:157   */\n  slt\n    /* \"#utility.yul\":122:174   */\n  iszero\n  tag_26\n  jumpi\n    /* \"#utility.yul\":170:171   */\n  0x00\n    /* \"#utility.yul\":167:168   */\n  dup1\n    /* \"#utility.yul\":160:172   */\n  revert\n    /* \"#utility.yul\":122:174   */\ntag_26:\n    /* \"#utility.yul\":196:212   */\n  dup3\n  mload\n  sub(shl(0xa0, 0x01), 0x01)\n    /* \"#utility.yul\":241:272   */\n  dup2\n  and\n    /* \"#utility.yul\":231:273   */\n  dup2\n  eq\n    /* \"#utility.yul\":221:291   */\n  tag_27\n  jumpi\n    /* \"#utility.yul\":287:288   */\n  0x00\n    /* \"#utility.yul\":284:285   */\n  dup1\n    /* \"#utility.yul\":277:289   */\n  revert\n    /* \"#utility.yul\":221:291   */\ntag_27:\n    /* \"#utility.yul\":355:357   */\n  0x20\n    /* \"#utility.yul\":340:358   */\n  swap4\n  swap1\n  swap4\n  add\n    /* \"#utility.yul\":334:359   */\n  mload\n    /* \"#utility.yul\":310:315   */\n  swap3\n  swap5\n    /* \"#utility.yul\":334:359   */\n  swap3\n  swap4\n  pop\n  pop\n  pop\n    /* \"#utility.yul\":14:365   */\n  jump\t// out\n    /* \"#utility.yul\":370:573   */\ntag_24:\n    /* \"contracts/TimbFarm.sol\":2041:16772  contract TimbFarm is Ownable, ReentrancyGuard {... */\n  mload(0x80)\n  codecopy(0x00, dataOffset(sub_0), dataSize(sub_0))\n  0x00\n  assignImmutable(\"0x962c584afcd4dd6cb0e25fef291e59a13b9ae1b34d13f25b13a34669b807535c\")\n  return(0x00, dataSize(sub_0))\nstop\n\nsub_0: assembly {\n        /* \"contracts/TimbFarm.sol\":2041:16772  contract TimbFarm is Ownable, ReentrancyGuard {... */\n      mstore(0x40, 0x80)\n      callvalue\n      dup1\n      iszero\n      tag_1\n      jumpi\n      0x00\n      dup1\n      revert\n    tag_1:\n      pop\n      jumpi(tag_2, lt(calldatasize, 0x04))\n      shr(0xe0, calldataload(0x00))\n      dup1\n      0x8456cb59\n      gt\n      tag_37\n      jumpi\n      dup1\n      0xcd3daf9d\n      gt\n      tag_38\n      jumpi\n      dup1\n      0xe9fad8ee\n      gt\n      tag_39\n      jumpi\n      dup1\n      0xe9fad8ee\n      eq\n      tag_32\n      jumpi\n      dup1\n      0xebe2b12b\n      eq\n      tag_33\n      jumpi\n      dup1\n      0xf0f44260\n      eq\n      tag_34\n      jumpi\n      dup1\n      0xf2fde38b\n      eq\n      tag_35\n      jumpi\n      dup1\n      0xfd42fe4d\n      eq\n      tag_36\n      jumpi\n      0x00\n      dup1\n      revert\n    tag_39:\n      dup1\n      0xcd3daf9d\n      eq\n      tag_28\n      jumpi\n      dup1\n      0xd15166ff\n      eq\n      tag_29\n      jumpi\n      dup1\n      0xdb2e21bc\n      eq\n      tag_30\n      jumpi\n      dup1\n      0xdf136d65\n      eq\n      tag_31\n      jumpi\n      0x00\n      dup1\n      revert\n    tag_38:\n      dup1\n      0x9e447fc6\n      gt\n      tag_40\n      jumpi\n      dup1\n      0x9e447fc6\n      eq\n      tag_24\n      jumpi\n      dup1\n      0x9ee933b5\n      eq\n      tag_25\n      jumpi\n      dup1\n      0xa694fc3a\n      eq\n      tag_26\n      jumpi\n      dup1\n      0xc8f33c91\n      eq\n      tag_27\n      jumpi\n      0x00\n      dup1\n      revert\n    tag_40:\n      dup1\n      0x8456cb59\n      eq\n      tag_20\n      jumpi\n      dup1\n      0x8980f11f\n      eq\n      tag_21\n      jumpi\n      dup1\n      0x8b876347\n      eq\n      tag_22\n      jumpi\n      dup1\n      0x8da5cb5b\n      eq\n      tag_23\n      jumpi\n      0x00\n      dup1\n      revert\n    tag_37:\n      dup1\n      0x3f4ba83a\n      gt\n      tag_41\n      jumpi\n      dup1\n      0x60217267\n      gt\n      tag_42\n      jumpi\n      dup1\n      0x60217267\n      eq\n      tag_15\n      jumpi\n      dup1\n      0x61d027b3\n      eq\n      tag_16\n      jumpi\n      dup1\n      0x715018a6\n      eq\n      tag_17\n      jumpi\n      dup1\n      0x80faa57d\n      eq\n      tag_18\n      jumpi\n      dup1\n      0x817b1cd2\n      eq\n      tag_19\n      jumpi\n      0x00\n      dup1\n      revert\n    tag_42:\n      dup1\n      0x3f4ba83a\n      eq\n      tag_11\n      jumpi\n      dup1\n      0x5c975abb\n      eq\n      tag_12\n      jumpi\n      dup1\n      0x5d773b2c\n      eq\n      tag_13\n      jumpi\n      dup1\n      0x5fcbd285\n      eq\n      tag_14\n      jumpi\n      0x00\n      dup1\n      revert\n    tag_41:\n      dup1\n      0x2e17de78\n      gt\n      tag_43\n      jumpi\n      dup1\n      0x2e17de78\n      eq\n      tag_7\n      jumpi\n      dup1\n      0x2ff33be0\n      eq\n      tag_8\n      jumpi\n      dup1\n      0x31d7a262\n      eq\n      tag_9\n      jumpi\n      dup1\n      0x372500ab\n      eq\n      tag_10\n      jumpi\n      0x00\n      dup1\n      revert\n    tag_43:\n      dup1\n      0x8cc262\n      eq\n      tag_3\n      jumpi\n      dup1\n      0x0e31648f\n      eq\n      tag_4\n      jumpi\n      dup1\n      0x246132f9\n      eq\n      tag_5\n      jumpi\n      dup1\n      0x255a4f73\n      eq\n      tag_6\n      jumpi\n    tag_2:\n      0x00\n      dup1\n      revert\n        /* \"contracts/TimbFarm.sol\":7677:7930  function earned(address account) public view returns (uint256) {... */\n    tag_3:\n      tag_44\n      tag_45\n      calldatasize\n      0x04\n      tag_46\n      jump\t// in\n    tag_45:\n      tag_47\n      jump\t// in\n    tag_44:\n      mload(0x40)\n        /* \"#utility.yul\":529:554   */\n      swap1\n      dup2\n      mstore\n        /* \"#utility.yul\":517:519   */\n      0x20\n        /* \"#utility.yul\":502:520   */\n      add\n        /* \"contracts/TimbFarm.sol\":7677:7930  function earned(address account) public view returns (uint256) {... */\n    tag_48:\n      mload(0x40)\n      dup1\n      swap2\n      sub\n      swap1\n      return\n        /* \"contracts/TimbFarm.sol\":2386:2420  IERC20 public immutable timbsToken */\n    tag_4:\n      tag_50\n      immutable(\"0x962c584afcd4dd6cb0e25fef291e59a13b9ae1b34d13f25b13a34669b807535c\")\n      dup2\n      jump\n    tag_50:\n      mload(0x40)\n      sub(shl(0xa0, 0x01), 0x01)\n        /* \"#utility.yul\":743:775   */\n      swap1\n      swap2\n      and\n        /* \"#utility.yul\":725:776   */\n      dup2\n      mstore\n        /* \"#utility.yul\":713:715   */\n      0x20\n        /* \"#utility.yul\":698:716   */\n      add\n        /* \"contracts/TimbFarm.sol\":2386:2420  IERC20 public immutable timbsToken */\n      tag_48\n        /* \"#utility.yul\":565:782   */\n      jump\n        /* \"contracts/TimbFarm.sol\":12782:13692  function notifyRewardAmount(uint256 amount, uint256 duration)... */\n    tag_5:\n      tag_54\n      tag_55\n      calldatasize\n      0x04\n      tag_56\n      jump\t// in\n    tag_55:\n      tag_57\n      jump\t// in\n    tag_54:\n      stop\n        /* \"contracts/TimbFarm.sol\":15176:15444  function setRewardNotifier(address notifier, bool authorised)... */\n    tag_6:\n      tag_54\n      tag_59\n      calldatasize\n      0x04\n      tag_60\n      jump\t// in\n    tag_59:\n      tag_61\n      jump\t// in\n        /* \"contracts/TimbFarm.sol\":9838:10354  function unstake(uint256 amount)... */\n    tag_7:\n      tag_54\n      tag_63\n      calldatasize\n      0x04\n      tag_64\n      jump\t// in\n    tag_63:\n      tag_65\n      jump\t// in\n        /* \"contracts/TimbFarm.sol\":3780:3805  bool public lpTokenLocked */\n    tag_8:\n      sload(0x0c)\n      tag_66\n      swap1\n      0xff\n      and\n      dup2\n      jump\n    tag_66:\n      mload(0x40)\n        /* \"#utility.yul\":1742:1756   */\n      swap1\n      iszero\n        /* \"#utility.yul\":1735:1757   */\n      iszero\n        /* \"#utility.yul\":1717:1758   */\n      dup2\n      mstore\n        /* \"#utility.yul\":1705:1707   */\n      0x20\n        /* \"#utility.yul\":1690:1708   */\n      add\n        /* \"contracts/TimbFarm.sol\":3780:3805  bool public lpTokenLocked */\n      tag_48\n        /* \"#utility.yul\":1577:1764   */\n      jump\n        /* \"contracts/TimbFarm.sol\":3470:3519  mapping(address => uint256) public pendingRewards */\n    tag_9:\n      tag_44\n      tag_71\n      calldatasize\n      0x04\n      tag_46\n      jump\t// in\n    tag_71:\n      mstore(0x20, 0x0a)\n      0x00\n      swap1\n      dup2\n      mstore\n      0x40\n      swap1\n      keccak256\n      sload\n      dup2\n      jump\n        /* \"contracts/TimbFarm.sol\":10625:11326  function claimRewards()... */\n    tag_10:\n      tag_54\n      tag_75\n      jump\t// in\n        /* \"contracts/TimbFarm.sol\":15537:15621  function unpause() external onlyOwner { paused = false; emit Unpaused(msg.sender); } */\n    tag_11:\n      tag_54\n      tag_77\n      jump\t// in\n        /* \"contracts/TimbFarm.sol\":3850:3868  bool public paused */\n    tag_12:\n      sload(0x0c)\n      tag_66\n      swap1\n      0x0100\n      swap1\n      div\n      0xff\n      and\n      dup2\n      jump\n        /* \"contracts/TimbFarm.sol\":2729:2763  uint256 public rewardRatePerSecond */\n    tag_13:\n      tag_44\n      sload(0x03)\n      dup2\n      jump\n        /* \"contracts/TimbFarm.sol\":2534:2555  IERC20 public lpToken */\n    tag_14:\n      sload(0x01)\n      tag_50\n      swap1\n      sub(shl(0xa0, 0x01), 0x01)\n      and\n      dup2\n      jump\n        /* \"contracts/TimbFarm.sol\":3207:3255  mapping(address => uint256) public stakedBalance */\n    tag_15:\n      tag_44\n      tag_88\n      calldatasize\n      0x04\n      tag_46\n      jump\t// in\n    tag_88:\n      mstore(0x20, 0x08)\n      0x00\n      swap1\n      dup2\n      mstore\n      0x40\n      swap1\n      keccak256\n      sload\n      dup2\n      jump\n        /* \"contracts/TimbFarm.sol\":2623:2646  address public treasury */\n    tag_16:\n      sload(0x02)\n      tag_50\n      swap1\n      sub(shl(0xa0, 0x01), 0x01)\n      and\n      dup2\n      jump\n        /* \"@openzeppelin/contracts/access/Ownable.sol\":2293:2394  function renounceOwnership() public virtual onlyOwner {... */\n    tag_17:\n      tag_54\n      tag_96\n      jump\t// in\n        /* \"contracts/TimbFarm.sol\":6986:7139  function lastTimeRewardApplicable() public view returns (uint256) {... */\n    tag_18:\n      tag_44\n      tag_98\n      jump\t// in\n        /* \"contracts/TimbFarm.sol\":3127:3153  uint256 public totalStaked */\n    tag_19:\n      tag_44\n      sload(0x07)\n      dup2\n      jump\n        /* \"contracts/TimbFarm.sol\":15450:15532  function pause()   external onlyOwner { paused = true;  emit Paused(msg.sender); } */\n    tag_20:\n      tag_54\n      tag_104\n      jump\t// in\n        /* \"contracts/TimbFarm.sol\":16380:16770  function recoverERC20(address token, uint256 amount) external onlyOwner {... */\n    tag_21:\n      tag_54\n      tag_106\n      calldatasize\n      0x04\n      tag_107\n      jump\t// in\n    tag_106:\n      tag_108\n      jump\t// in\n        /* \"contracts/TimbFarm.sol\":3332:3389  mapping(address => uint256) public userRewardPerTokenPaid */\n    tag_22:\n      tag_44\n      tag_110\n      calldatasize\n      0x04\n      tag_46\n      jump\t// in\n    tag_110:\n      mstore(0x20, 0x09)\n      0x00\n      swap1\n      dup2\n      mstore\n      0x40\n      swap1\n      keccak256\n      sload\n      dup2\n      jump\n        /* \"@openzeppelin/contracts/access/Ownable.sol\":1638:1723  function owner() public view virtual returns (address) {... */\n    tag_23:\n        /* \"@openzeppelin/contracts/access/Ownable.sol\":1684:1691  address */\n      0x00\n        /* \"@openzeppelin/contracts/access/Ownable.sol\":1710:1716  _owner */\n      sload\n      sub(shl(0xa0, 0x01), 0x01)\n      and\n        /* \"@openzeppelin/contracts/access/Ownable.sol\":1638:1723  function owner() public view virtual returns (address) {... */\n      jump(tag_50)\n        /* \"contracts/TimbFarm.sol\":13771:13987  function setRewardRate(uint256 _ratePerSecond)... */\n    tag_24:\n      tag_54\n      tag_117\n      calldatasize\n      0x04\n      tag_64\n      jump\t// in\n    tag_117:\n      tag_118\n      jump\t// in\n        /* \"contracts/TimbFarm.sol\":14412:14663  function setLpToken(address _lpToken) external onlyOwner {... */\n    tag_25:\n      tag_54\n      tag_120\n      calldatasize\n      0x04\n      tag_46\n      jump\t// in\n    tag_120:\n      tag_121\n      jump\t// in\n        /* \"contracts/TimbFarm.sol\":8828:9359  function stake(uint256 amount)... */\n    tag_26:\n      tag_54\n      tag_123\n      calldatasize\n      0x04\n      tag_64\n      jump\t// in\n    tag_123:\n      tag_124\n      jump\t// in\n        /* \"contracts/TimbFarm.sol\":2919:2948  uint256 public lastUpdateTime */\n    tag_27:\n      tag_44\n      sload(0x05)\n      dup2\n      jump\n        /* \"contracts/TimbFarm.sol\":7234:7580  function rewardPerToken() public view returns (uint256) {... */\n    tag_28:\n      tag_44\n      tag_129\n      jump\t// in\n        /* \"contracts/TimbFarm.sol\":3590:3637  mapping(address => bool) public rewardNotifiers */\n    tag_29:\n      tag_66\n      tag_132\n      calldatasize\n      0x04\n      tag_46\n      jump\t// in\n    tag_132:\n      mstore(0x20, 0x0b)\n      0x00\n      swap1\n      dup2\n      mstore\n      0x40\n      swap1\n      keccak256\n      sload\n      0xff\n      and\n      dup2\n      jump\n        /* \"contracts/TimbFarm.sol\":15769:16224  function emergencyWithdraw() external nonReentrant {... */\n    tag_30:\n      tag_54\n      tag_136\n      jump\t// in\n        /* \"contracts/TimbFarm.sol\":3035:3070  uint256 public rewardPerTokenStored */\n    tag_31:\n      tag_44\n      sload(0x06)\n      dup2\n      jump\n        /* \"contracts/TimbFarm.sol\":11432:12295  function exit()... */\n    tag_32:\n      tag_54\n      tag_141\n      jump\t// in\n        /* \"contracts/TimbFarm.sol\":2829:2856  uint256 public periodFinish */\n    tag_33:\n      tag_44\n      sload(0x04)\n      dup2\n      jump\n        /* \"contracts/TimbFarm.sol\":14751:15106  function setTreasury(address _treasury) external onlyOwner {... */\n    tag_34:\n      tag_54\n      tag_146\n      calldatasize\n      0x04\n      tag_46\n      jump\t// in\n    tag_146:\n      tag_147\n      jump\t// in\n        /* \"@openzeppelin/contracts/access/Ownable.sol\":2543:2758  function transferOwnership(address newOwner) public virtual onlyOwner {... */\n    tag_35:\n      tag_54\n      tag_149\n      calldatasize\n      0x04\n      tag_46\n      jump\t// in\n    tag_149:\n      tag_150\n      jump\t// in\n        /* \"contracts/TimbFarm.sol\":8099:8339  function estimatedEmissionsAPR() external view returns (uint256 aprBps) {... */\n    tag_36:\n      tag_44\n      tag_152\n      jump\t// in\n        /* \"contracts/TimbFarm.sol\":7677:7930  function earned(address account) public view returns (uint256) {... */\n    tag_47:\n      sub(shl(0xa0, 0x01), 0x01)\n        /* \"contracts/TimbFarm.sol\":7900:7923  pendingRewards[account] */\n      dup2\n      and\n        /* \"contracts/TimbFarm.sol\":7731:7738  uint256 */\n      0x00\n        /* \"contracts/TimbFarm.sol\":7900:7923  pendingRewards[account] */\n      swap1\n      dup2\n      mstore\n        /* \"contracts/TimbFarm.sol\":7900:7914  pendingRewards */\n      0x0a\n        /* \"contracts/TimbFarm.sol\":7900:7923  pendingRewards[account] */\n      0x20\n      swap1\n      dup2\n      mstore\n      0x40\n      dup1\n      dup4\n      keccak256\n      sload\n        /* \"contracts/TimbFarm.sol\":7832:7854  userRewardPerTokenPaid */\n      0x09\n        /* \"contracts/TimbFarm.sol\":7832:7863  userRewardPerTokenPaid[account] */\n      swap1\n      swap3\n      mstore\n      dup3\n      keccak256\n      sload\n        /* \"contracts/TimbFarm.sol\":7883:7887  1e18 */\n      0x0de0b6b3a7640000\n      swap1\n        /* \"contracts/TimbFarm.sol\":7813:7829  rewardPerToken() */\n      tag_155\n        /* \"contracts/TimbFarm.sol\":7813:7827  rewardPerToken */\n      tag_129\n        /* \"contracts/TimbFarm.sol\":7813:7829  rewardPerToken() */\n      jump\t// in\n    tag_155:\n        /* \"contracts/TimbFarm.sol\":7813:7863  rewardPerToken() - userRewardPerTokenPaid[account] */\n      tag_156\n      swap2\n      swap1\n      tag_157\n      jump\t// in\n    tag_156:\n      sub(shl(0xa0, 0x01), 0x01)\n        /* \"contracts/TimbFarm.sol\":7771:7793  stakedBalance[account] */\n      dup6\n      and\n      0x00\n      swap1\n      dup2\n      mstore\n        /* \"contracts/TimbFarm.sol\":7771:7784  stakedBalance */\n      0x08\n        /* \"contracts/TimbFarm.sol\":7771:7793  stakedBalance[account] */\n      0x20\n      mstore\n      0x40\n      swap1\n      keccak256\n      sload\n        /* \"contracts/TimbFarm.sol\":7771:7864  stakedBalance[account]... */\n      tag_158\n      swap2\n      swap1\n      tag_159\n      jump\t// in\n    tag_158:\n        /* \"contracts/TimbFarm.sol\":7771:7887  stakedBalance[account]... */\n      tag_160\n      swap2\n      swap1\n      tag_161\n      jump\t// in\n    tag_160:\n        /* \"contracts/TimbFarm.sol\":7757:7923  (... */\n      tag_162\n      swap2\n      swap1\n      tag_163\n      jump\t// in\n    tag_162:\n        /* \"contracts/TimbFarm.sol\":7750:7923  return (... */\n      swap3\n        /* \"contracts/TimbFarm.sol\":7677:7930  function earned(address account) public view returns (uint256) {... */\n      swap2\n      pop\n      pop\n      jump\t// out\n        /* \"contracts/TimbFarm.sol\":12782:13692  function notifyRewardAmount(uint256 amount, uint256 duration)... */\n    tag_57:\n        /* \"@openzeppelin/contracts/utils/ReentrancyGuard.sol\":3023:3044  _nonReentrantBefore() */\n      tag_165\n        /* \"@openzeppelin/contracts/utils/ReentrancyGuard.sol\":3023:3042  _nonReentrantBefore */\n      tag_166\n        /* \"@openzeppelin/contracts/utils/ReentrancyGuard.sol\":3023:3044  _nonReentrantBefore() */\n      jump\t// in\n    tag_165:\n        /* \"contracts/TimbFarm.sol\":12911:12912  0 */\n      0x00\n        /* \"contracts/TimbFarm.sol\":5757:5773  rewardPerToken() */\n      tag_168\n        /* \"contracts/TimbFarm.sol\":5757:5771  rewardPerToken */\n      tag_129\n        /* \"contracts/TimbFarm.sol\":5757:5773  rewardPerToken() */\n      jump\t// in\n    tag_168:\n        /* \"contracts/TimbFarm.sol\":5734:5754  rewardPerTokenStored */\n      0x06\n        /* \"contracts/TimbFarm.sol\":5734:5773  rewardPerTokenStored = rewardPerToken() */\n      sstore\n        /* \"contracts/TimbFarm.sol\":5806:5832  lastTimeRewardApplicable() */\n      tag_169\n        /* \"contracts/TimbFarm.sol\":5806:5830  lastTimeRewardApplicable */\n      tag_98\n        /* \"contracts/TimbFarm.sol\":5806:5832  lastTimeRewardApplicable() */\n      jump\t// in\n    tag_169:\n        /* \"contracts/TimbFarm.sol\":5783:5797  lastUpdateTime */\n      0x05\n        /* \"contracts/TimbFarm.sol\":5783:5832  lastUpdateTime       = lastTimeRewardApplicable() */\n      sstore\n      sub(shl(0xa0, 0x01), 0x01)\n        /* \"contracts/TimbFarm.sol\":5846:5867  account != address(0) */\n      dup2\n      and\n      iszero\n        /* \"contracts/TimbFarm.sol\":5842:6011  if (account != address(0)) {... */\n      tag_170\n      jumpi\n        /* \"contracts/TimbFarm.sol\":5917:5932  earned(account) */\n      tag_171\n        /* \"contracts/TimbFarm.sol\":5924:5931  account */\n      dup2\n        /* \"contracts/TimbFarm.sol\":5917:5923  earned */\n      tag_47\n        /* \"contracts/TimbFarm.sol\":5917:5932  earned(account) */\n      jump\t// in\n    tag_171:\n      sub(shl(0xa0, 0x01), 0x01)\n        /* \"contracts/TimbFarm.sol\":5883:5906  pendingRewards[account] */\n      dup3\n      and\n      0x00\n      swap1\n      dup2\n      mstore\n        /* \"contracts/TimbFarm.sol\":5883:5897  pendingRewards */\n      0x0a\n        /* \"contracts/TimbFarm.sol\":5883:5906  pendingRewards[account] */\n      0x20\n      swap1\n      dup2\n      mstore\n      0x40\n      dup1\n      dup4\n      keccak256\n        /* \"contracts/TimbFarm.sol\":5883:5932  pendingRewards[account]         = earned(account) */\n      swap4\n      swap1\n      swap4\n      sstore\n        /* \"contracts/TimbFarm.sol\":5980:6000  rewardPerTokenStored */\n      sload(0x06)\n        /* \"contracts/TimbFarm.sol\":5946:5968  userRewardPerTokenPaid */\n      0x09\n        /* \"contracts/TimbFarm.sol\":5946:5977  userRewardPerTokenPaid[account] */\n      swap1\n      swap2\n      mstore\n      swap2\n      swap1\n      keccak256\n        /* \"contracts/TimbFarm.sol\":5946:6000  userRewardPerTokenPaid[account] = rewardPerTokenStored */\n      sstore\n        /* \"contracts/TimbFarm.sol\":5842:6011  if (account != address(0)) {... */\n    tag_170:\n        /* \"contracts/TimbFarm.sol\":12950:12960  msg.sender */\n      caller\n        /* \"contracts/TimbFarm.sol\":12934:12961  rewardNotifiers[msg.sender] */\n      0x00\n      swap1\n      dup2\n      mstore\n        /* \"contracts/TimbFarm.sol\":12934:12949  rewardNotifiers */\n      0x0b\n        /* \"contracts/TimbFarm.sol\":12934:12961  rewardNotifiers[msg.sender] */\n      0x20\n      mstore\n      0x40\n      swap1\n      keccak256\n      sload\n      0xff\n      and\n        /* \"contracts/TimbFarm.sol\":12933:12961  !rewardNotifiers[msg.sender] */\n      iszero\n        /* \"contracts/TimbFarm.sol\":12933:12986  !rewardNotifiers[msg.sender] && msg.sender != owner() */\n      dup1\n      iszero\n      tag_173\n      jumpi\n      pop\n        /* \"@openzeppelin/contracts/access/Ownable.sol\":1684:1691  address */\n      0x00\n        /* \"@openzeppelin/contracts/access/Ownable.sol\":1710:1716  _owner */\n      sload\n      sub(shl(0xa0, 0x01), 0x01)\n      and\n        /* \"contracts/TimbFarm.sol\":12965:12975  msg.sender */\n      caller\n        /* \"contracts/TimbFarm.sol\":12965:12986  msg.sender != owner() */\n      eq\n      iszero\n        /* \"contracts/TimbFarm.sol\":12933:12986  !rewardNotifiers[msg.sender] && msg.sender != owner() */\n    tag_173:\n        /* \"contracts/TimbFarm.sol\":12929:13035  if (!rewardNotifiers[msg.sender] && msg.sender != owner()) {... */\n      iszero\n      tag_175\n      jumpi\n        /* \"contracts/TimbFarm.sol\":13009:13024  NotAuthorised() */\n      mload(0x40)\n      shl(0xe0, 0x1648fd01)\n      dup2\n      mstore\n      0x04\n      add\n      mload(0x40)\n      dup1\n      swap2\n      sub\n      swap1\n      revert\n        /* \"contracts/TimbFarm.sol\":12929:13035  if (!rewardNotifiers[msg.sender] && msg.sender != owner()) {... */\n    tag_175:\n        /* \"contracts/TimbFarm.sol\":13048:13054  amount */\n      dup3\n        /* \"contracts/TimbFarm.sol\":13058:13059  0 */\n      0x00\n        /* \"contracts/TimbFarm.sol\":13048:13059  amount == 0 */\n      sub\n        /* \"contracts/TimbFarm.sol\":13044:13082  if (amount == 0)   revert ZeroAmount() */\n      tag_176\n      jumpi\n        /* \"contracts/TimbFarm.sol\":13070:13082  ZeroAmount() */\n      mload(0x40)\n      shl(0xe0, 0x1f2a2005)\n      dup2\n      mstore\n      0x04\n      add\n      mload(0x40)\n      dup1\n      swap2\n      sub\n      swap1\n      revert\n        /* \"contracts/TimbFarm.sol\":13044:13082  if (amount == 0)   revert ZeroAmount() */\n    tag_176:\n        /* \"contracts/TimbFarm.sol\":13096:13104  duration */\n      dup2\n        /* \"contracts/TimbFarm.sol\":13108:13109  0 */\n      0x00\n        /* \"contracts/TimbFarm.sol\":13096:13109  duration == 0 */\n      sub\n        /* \"contracts/TimbFarm.sol\":13092:13130  if (duration == 0) revert ZeroAmount() */\n      tag_177\n      jumpi\n        /* \"contracts/TimbFarm.sol\":13118:13130  ZeroAmount() */\n      mload(0x40)\n      shl(0xe0, 0x1f2a2005)\n      dup2\n      mstore\n      0x04\n      add\n      mload(0x40)\n      dup1\n      swap2\n      sub\n      swap1\n      revert\n        /* \"contracts/TimbFarm.sol\":13092:13130  if (duration == 0) revert ZeroAmount() */\n    tag_177:\n        /* \"contracts/TimbFarm.sol\":13141:13203  timbsToken.safeTransferFrom(msg.sender, address(this), amount) */\n      tag_178\n      sub(shl(0xa0, 0x01), 0x01)\n        /* \"contracts/TimbFarm.sol\":13141:13151  timbsToken */\n      immutable(\"0x962c584afcd4dd6cb0e25fef291e59a13b9ae1b34d13f25b13a34669b807535c\")\n        /* \"contracts/TimbFarm.sol\":13141:13168  timbsToken.safeTransferFrom */\n      and\n        /* \"contracts/TimbFarm.sol\":13169:13179  msg.sender */\n      caller\n        /* \"contracts/TimbFarm.sol\":13189:13193  this */\n      address\n        /* \"contracts/TimbFarm.sol\":13196:13202  amount */\n      dup7\n        /* \"contracts/TimbFarm.sol\":13141:13168  timbsToken.safeTransferFrom */\n      tag_179\n        /* \"contracts/TimbFarm.sol\":13141:13203  timbsToken.safeTransferFrom(msg.sender, address(this), amount) */\n      jump\t// in\n    tag_178:\n        /* \"contracts/TimbFarm.sol\":13236:13248  periodFinish */\n      sload(0x04)\n        /* \"contracts/TimbFarm.sol\":13218:13233  block.timestamp */\n      timestamp\n        /* \"contracts/TimbFarm.sol\":13218:13248  block.timestamp < periodFinish */\n      lt\n        /* \"contracts/TimbFarm.sol\":13214:13530  if (block.timestamp < periodFinish) {... */\n      iszero\n      tag_180\n      jumpi\n        /* \"contracts/TimbFarm.sol\":13264:13281  uint256 remaining */\n      0x00\n        /* \"contracts/TimbFarm.sol\":13301:13316  block.timestamp */\n      timestamp\n        /* \"contracts/TimbFarm.sol\":13286:13298  periodFinish */\n      sload(0x04)\n        /* \"contracts/TimbFarm.sol\":13286:13316  periodFinish - block.timestamp */\n      tag_181\n      swap2\n      swap1\n      tag_157\n      jump\t// in\n    tag_181:\n        /* \"contracts/TimbFarm.sol\":13264:13316  uint256 remaining   = periodFinish - block.timestamp */\n      swap1\n      pop\n        /* \"contracts/TimbFarm.sol\":13330:13346  uint256 leftover */\n      0x00\n        /* \"contracts/TimbFarm.sol\":13364:13383  rewardRatePerSecond */\n      sload(0x03)\n        /* \"contracts/TimbFarm.sol\":13352:13361  remaining */\n      dup3\n        /* \"contracts/TimbFarm.sol\":13352:13383  remaining * rewardRatePerSecond */\n      tag_182\n      swap2\n      swap1\n      tag_159\n      jump\t// in\n    tag_182:\n        /* \"contracts/TimbFarm.sol\":13330:13383  uint256 leftover    = remaining * rewardRatePerSecond */\n      swap1\n      pop\n        /* \"contracts/TimbFarm.sol\":13441:13449  duration */\n      dup4\n        /* \"contracts/TimbFarm.sol\":13420:13437  amount + leftover */\n      tag_183\n        /* \"contracts/TimbFarm.sol\":13330:13383  uint256 leftover    = remaining * rewardRatePerSecond */\n      dup3\n        /* \"contracts/TimbFarm.sol\":13420:13426  amount */\n      dup8\n        /* \"contracts/TimbFarm.sol\":13420:13437  amount + leftover */\n      tag_163\n      jump\t// in\n    tag_183:\n        /* \"contracts/TimbFarm.sol\":13419:13449  (amount + leftover) / duration */\n      tag_184\n      swap2\n      swap1\n      tag_161\n      jump\t// in\n    tag_184:\n        /* \"contracts/TimbFarm.sol\":13397:13416  rewardRatePerSecond */\n      0x03\n        /* \"contracts/TimbFarm.sol\":13397:13449  rewardRatePerSecond = (amount + leftover) / duration */\n      sstore\n      pop\n        /* \"contracts/TimbFarm.sol\":13214:13530  if (block.timestamp < periodFinish) {... */\n      tag_185\n      swap1\n      pop\n      jump\n    tag_180:\n        /* \"contracts/TimbFarm.sol\":13502:13519  amount / duration */\n      tag_186\n        /* \"contracts/TimbFarm.sol\":13511:13519  duration */\n      dup3\n        /* \"contracts/TimbFarm.sol\":13502:13508  amount */\n      dup5\n        /* \"contracts/TimbFarm.sol\":13502:13519  amount / duration */\n      tag_161\n      jump\t// in\n    tag_186:\n        /* \"contracts/TimbFarm.sol\":13480:13499  rewardRatePerSecond */\n      0x03\n        /* \"contracts/TimbFarm.sol\":13480:13519  rewardRatePerSecond = amount / duration */\n      sstore\n        /* \"contracts/TimbFarm.sol\":13214:13530  if (block.timestamp < periodFinish) {... */\n    tag_185:\n        /* \"contracts/TimbFarm.sol\":13557:13572  block.timestamp */\n      timestamp\n        /* \"contracts/TimbFarm.sol\":13540:13554  lastUpdateTime */\n      0x05\n        /* \"contracts/TimbFarm.sol\":13540:13572  lastUpdateTime = block.timestamp */\n      dup2\n      swap1\n      sstore\n        /* \"contracts/TimbFarm.sol\":13599:13625  block.timestamp + duration */\n      tag_187\n      swap1\n        /* \"contracts/TimbFarm.sol\":13617:13625  duration */\n      dup4\n      swap1\n        /* \"contracts/TimbFarm.sol\":13599:13625  block.timestamp + duration */\n      tag_163\n      jump\t// in\n    tag_187:\n        /* \"contracts/TimbFarm.sol\":13582:13594  periodFinish */\n      0x04\n        /* \"contracts/TimbFarm.sol\":13582:13625  periodFinish   = block.timestamp + duration */\n      sstore\n        /* \"contracts/TimbFarm.sol\":13641:13685  RewardNotified(msg.sender, amount, duration) */\n      0x40\n      dup1\n      mload\n        /* \"#utility.yul\":3200:3225   */\n      dup5\n      dup2\n      mstore\n        /* \"#utility.yul\":3256:3258   */\n      0x20\n        /* \"#utility.yul\":3241:3259   */\n      dup2\n      add\n        /* \"#utility.yul\":3234:3268   */\n      dup5\n      swap1\n      mstore\n        /* \"contracts/TimbFarm.sol\":13656:13666  msg.sender */\n      caller\n      swap2\n        /* \"contracts/TimbFarm.sol\":13641:13685  RewardNotified(msg.sender, amount, duration) */\n      0x8a888ea653a580e40660778ee0c0dabd23a81e8e2c8dcfb938e40982a157d819\n      swap2\n        /* \"#utility.yul\":3173:3191   */\n      add\n        /* \"contracts/TimbFarm.sol\":13641:13685  RewardNotified(msg.sender, amount, duration) */\n      mload(0x40)\n      dup1\n      swap2\n      sub\n      swap1\n      log2\n        /* \"@openzeppelin/contracts/utils/ReentrancyGuard.sol\":3054:3055  _ */\n      pop\n        /* \"@openzeppelin/contracts/utils/ReentrancyGuard.sol\":3065:3085  _nonReentrantAfter() */\n      tag_190\n        /* \"@openzeppelin/contracts/utils/ReentrancyGuard.sol\":2365:2366  1 */\n      0x01\n      0x00\n      dup1\n      mload\n      0x20\n      data_c8669cf8eaf883002b9f48e28846a8d408c9b58ea6613bace374265e43c9bc43\n      dup4\n      codecopy\n      dup2\n      mload\n      swap2\n      mstore\n        /* \"@openzeppelin/contracts/utils/ReentrancyGuard.sol\":3972:4034  _reentrancyGuardStorageSlot().getUint256Slot().value = ENTERED */\n      sstore\n        /* \"@openzeppelin/contracts/utils/ReentrancyGuard.sol\":3749:4041  function _nonReentrantBefore() private {... */\n      jump\n        /* \"@openzeppelin/contracts/utils/ReentrancyGuard.sol\":3065:3085  _nonReentrantAfter() */\n    tag_190:\n        /* \"contracts/TimbFarm.sol\":12782:13692  function notifyRewardAmount(uint256 amount, uint256 duration)... */\n      pop\n      pop\n      jump\t// out\n        /* \"contracts/TimbFarm.sol\":15176:15444  function setRewardNotifier(address notifier, bool authorised)... */\n    tag_61:\n        /* \"@openzeppelin/contracts/access/Ownable.sol\":1531:1544  _checkOwner() */\n      tag_193\n        /* \"@openzeppelin/contracts/access/Ownable.sol\":1531:1542  _checkOwner */\n      tag_194\n        /* \"@openzeppelin/contracts/access/Ownable.sol\":1531:1544  _checkOwner() */\n      jump\t// in\n    tag_193:\n      sub(shl(0xa0, 0x01), 0x01)\n        /* \"contracts/TimbFarm.sol\":15291:15313  notifier == address(0) */\n      dup3\n      and\n        /* \"contracts/TimbFarm.sol\":15287:15335  if (notifier == address(0)) revert ZeroAddress() */\n      tag_196\n      jumpi\n        /* \"contracts/TimbFarm.sol\":15322:15335  ZeroAddress() */\n      mload(0x40)\n      shl(0xe0, 0xd92e233d)\n      dup2\n      mstore\n      0x04\n      add\n      mload(0x40)\n      dup1\n      swap2\n      sub\n      swap1\n      revert\n        /* \"contracts/TimbFarm.sol\":15287:15335  if (notifier == address(0)) revert ZeroAddress() */\n    tag_196:\n      sub(shl(0xa0, 0x01), 0x01)\n        /* \"contracts/TimbFarm.sol\":15345:15370  rewardNotifiers[notifier] */\n      dup3\n      and\n      0x00\n      dup2\n      dup2\n      mstore\n        /* \"contracts/TimbFarm.sol\":15345:15360  rewardNotifiers */\n      0x0b\n        /* \"contracts/TimbFarm.sol\":15345:15370  rewardNotifiers[notifier] */\n      0x20\n      swap1\n      dup2\n      mstore\n      0x40\n      swap2\n      dup3\n      swap1\n      keccak256\n        /* \"contracts/TimbFarm.sol\":15345:15383  rewardNotifiers[notifier] = authorised */\n      dup1\n      sload\n      not(0xff)\n      and\n      dup6\n      iszero\n      iszero\n      swap1\n      dup2\n      or\n      swap1\n      swap2\n      sstore\n        /* \"contracts/TimbFarm.sol\":15398:15437  RewardNotifierSet(notifier, authorised) */\n      swap2\n      mload\n        /* \"#utility.yul\":1717:1758   */\n      swap2\n      dup3\n      mstore\n        /* \"contracts/TimbFarm.sol\":15398:15437  RewardNotifierSet(notifier, authorised) */\n      0xb33ca1dabfb28a2e1bd06b332c396b1a3d538278691341a5503bbad53f919197\n      swap2\n        /* \"#utility.yul\":1690:1708   */\n      add\n        /* \"contracts/TimbFarm.sol\":15398:15437  RewardNotifierSet(notifier, authorised) */\n      mload(0x40)\n      dup1\n      swap2\n      sub\n      swap1\n      log2\n        /* \"contracts/TimbFarm.sol\":15176:15444  function setRewardNotifier(address notifier, bool authorised)... */\n      pop\n      pop\n      jump\t// out\n        /* \"contracts/TimbFarm.sol\":9838:10354  function unstake(uint256 amount)... */\n    tag_65:\n        /* \"@openzeppelin/contracts/utils/ReentrancyGuard.sol\":3023:3044  _nonReentrantBefore() */\n      tag_199\n        /* \"@openzeppelin/contracts/utils/ReentrancyGuard.sol\":3023:3042  _nonReentrantBefore */\n      tag_166\n        /* \"@openzeppelin/contracts/utils/ReentrancyGuard.sol\":3023:3044  _nonReentrantBefore() */\n      jump\t// in\n    tag_199:\n        /* \"contracts/TimbFarm.sol\":5521:5527  paused */\n      sload(0x0c)\n      0x0100\n      swap1\n      div\n      0xff\n      and\n        /* \"contracts/TimbFarm.sol\":5517:5552  if (paused) revert ContractPaused() */\n      iszero\n      tag_201\n      jumpi\n        /* \"contracts/TimbFarm.sol\":5536:5552  ContractPaused() */\n      mload(0x40)\n      shl(0xe0, 0xab35696f)\n      dup2\n      mstore\n      0x04\n      add\n      mload(0x40)\n      dup1\n      swap2\n      sub\n      swap1\n      revert\n        /* \"contracts/TimbFarm.sol\":5517:5552  if (paused) revert ContractPaused() */\n    tag_201:\n        /* \"contracts/TimbFarm.sol\":5615:5622  lpToken */\n      and(sub(shl(0xa0, 0x01), 0x01), sload(0x01))\n        /* \"contracts/TimbFarm.sol\":5603:5661  if (address(lpToken) == address(0)) revert LpTokenNotSet() */\n      tag_203\n      jumpi\n        /* \"contracts/TimbFarm.sol\":5646:5661  LpTokenNotSet() */\n      mload(0x40)\n      shl(0xe1, 0x381b166f)\n      dup2\n      mstore\n      0x04\n      add\n      mload(0x40)\n      dup1\n      swap2\n      sub\n      swap1\n      revert\n        /* \"contracts/TimbFarm.sol\":5603:5661  if (address(lpToken) == address(0)) revert LpTokenNotSet() */\n    tag_203:\n        /* \"contracts/TimbFarm.sol\":9966:9976  msg.sender */\n      caller\n        /* \"contracts/TimbFarm.sol\":5757:5773  rewardPerToken() */\n      tag_205\n        /* \"contracts/TimbFarm.sol\":5757:5771  rewardPerToken */\n      tag_129\n        /* \"contracts/TimbFarm.sol\":5757:5773  rewardPerToken() */\n      jump\t// in\n    tag_205:\n        /* \"contracts/TimbFarm.sol\":5734:5754  rewardPerTokenStored */\n      0x06\n        /* \"contracts/TimbFarm.sol\":5734:5773  rewardPerTokenStored = rewardPerToken() */\n      sstore\n        /* \"contracts/TimbFarm.sol\":5806:5832  lastTimeRewardApplicable() */\n      tag_206\n        /* \"contracts/TimbFarm.sol\":5806:5830  lastTimeRewardApplicable */\n      tag_98\n        /* \"contracts/TimbFarm.sol\":5806:5832  lastTimeRewardApplicable() */\n      jump\t// in\n    tag_206:\n        /* \"contracts/TimbFarm.sol\":5783:5797  lastUpdateTime */\n      0x05\n        /* \"contracts/TimbFarm.sol\":5783:5832  lastUpdateTime       = lastTimeRewardApplicable() */\n      sstore\n      sub(shl(0xa0, 0x01), 0x01)\n        /* \"contracts/TimbFarm.sol\":5846:5867  account != address(0) */\n      dup2\n      and\n      iszero\n        /* \"contracts/TimbFarm.sol\":5842:6011  if (account != address(0)) {... */\n      tag_207\n      jumpi\n        /* \"contracts/TimbFarm.sol\":5917:5932  earned(account) */\n      tag_208\n        /* \"contracts/TimbFarm.sol\":5924:5931  account */\n      dup2\n        /* \"contracts/TimbFarm.sol\":5917:5923  earned */\n      tag_47\n        /* \"contracts/TimbFarm.sol\":5917:5932  earned(account) */\n      jump\t// in\n    tag_208:\n      sub(shl(0xa0, 0x01), 0x01)\n        /* \"contracts/TimbFarm.sol\":5883:5906  pendingRewards[account] */\n      dup3\n      and\n      0x00\n      swap1\n      dup2\n      mstore\n        /* \"contracts/TimbFarm.sol\":5883:5897  pendingRewards */\n      0x0a\n        /* \"contracts/TimbFarm.sol\":5883:5906  pendingRewards[account] */\n      0x20\n      swap1\n      dup2\n      mstore\n      0x40\n      dup1\n      dup4\n      keccak256\n        /* \"contracts/TimbFarm.sol\":5883:5932  pendingRewards[account]         = earned(account) */\n      swap4\n      swap1\n      swap4\n      sstore\n        /* \"contracts/TimbFarm.sol\":5980:6000  rewardPerTokenStored */\n      sload(0x06)\n        /* \"contracts/TimbFarm.sol\":5946:5968  userRewardPerTokenPaid */\n      0x09\n        /* \"contracts/TimbFarm.sol\":5946:5977  userRewardPerTokenPaid[account] */\n      swap1\n      swap2\n      mstore\n      swap2\n      swap1\n      keccak256\n        /* \"contracts/TimbFarm.sol\":5946:6000  userRewardPerTokenPaid[account] = rewardPerTokenStored */\n      sstore\n        /* \"contracts/TimbFarm.sol\":5842:6011  if (account != address(0)) {... */\n    tag_207:\n        /* \"contracts/TimbFarm.sol\":9996:10002  amount */\n      dup2\n        /* \"contracts/TimbFarm.sol\":10006:10007  0 */\n      0x00\n        /* \"contracts/TimbFarm.sol\":9996:10007  amount == 0 */\n      sub\n        /* \"contracts/TimbFarm.sol\":9992:10028  if (amount == 0) revert ZeroAmount() */\n      tag_210\n      jumpi\n        /* \"contracts/TimbFarm.sol\":10016:10028  ZeroAmount() */\n      mload(0x40)\n      shl(0xe0, 0x1f2a2005)\n      dup2\n      mstore\n      0x04\n      add\n      mload(0x40)\n      dup1\n      swap2\n      sub\n      swap1\n      revert\n        /* \"contracts/TimbFarm.sol\":9992:10028  if (amount == 0) revert ZeroAmount() */\n    tag_210:\n        /* \"contracts/TimbFarm.sol\":10065:10075  msg.sender */\n      caller\n        /* \"contracts/TimbFarm.sol\":10051:10076  stakedBalance[msg.sender] */\n      0x00\n      swap1\n      dup2\n      mstore\n        /* \"contracts/TimbFarm.sol\":10051:10064  stakedBalance */\n      0x08\n        /* \"contracts/TimbFarm.sol\":10051:10076  stakedBalance[msg.sender] */\n      0x20\n      mstore\n      0x40\n      swap1\n      keccak256\n      sload\n        /* \"contracts/TimbFarm.sol\":10042:10076  amount > stakedBalance[msg.sender] */\n      dup3\n      gt\n        /* \"contracts/TimbFarm.sol\":10038:10162  if (amount > stakedBalance[msg.sender]) {... */\n      iszero\n      tag_211\n      jumpi\n        /* \"contracts/TimbFarm.sol\":10139:10149  msg.sender */\n      caller\n        /* \"contracts/TimbFarm.sol\":10125:10150  stakedBalance[msg.sender] */\n      0x00\n      swap1\n      dup2\n      mstore\n        /* \"contracts/TimbFarm.sol\":10125:10138  stakedBalance */\n      0x08\n        /* \"contracts/TimbFarm.sol\":10125:10150  stakedBalance[msg.sender] */\n      0x20\n      mstore\n      0x40\n      swap1\n      dup2\n      swap1\n      keccak256\n      sload\n        /* \"contracts/TimbFarm.sol\":10099:10151  InsufficientStake(amount, stakedBalance[msg.sender]) */\n      swap1\n      mload\n      shl(0xe1, 0x22df0513)\n      dup2\n      mstore\n      tag_212\n      swap2\n        /* \"contracts/TimbFarm.sol\":10117:10123  amount */\n      dup5\n      swap2\n        /* \"contracts/TimbFarm.sol\":10099:10151  InsufficientStake(amount, stakedBalance[msg.sender]) */\n      0x04\n      add\n        /* \"#utility.yul\":3200:3225   */\n      swap2\n      dup3\n      mstore\n        /* \"#utility.yul\":3256:3258   */\n      0x20\n        /* \"#utility.yul\":3241:3259   */\n      dup3\n      add\n        /* \"#utility.yul\":3234:3268   */\n      mstore\n        /* \"#utility.yul\":3188:3190   */\n      0x40\n        /* \"#utility.yul\":3173:3191   */\n      add\n      swap1\n        /* \"#utility.yul\":3026:3274   */\n      jump\n        /* \"contracts/TimbFarm.sol\":10099:10151  InsufficientStake(amount, stakedBalance[msg.sender]) */\n    tag_212:\n      mload(0x40)\n      dup1\n      swap2\n      sub\n      swap1\n      revert\n        /* \"contracts/TimbFarm.sol\":10038:10162  if (amount > stakedBalance[msg.sender]) {... */\n    tag_211:\n        /* \"contracts/TimbFarm.sol\":10186:10196  msg.sender */\n      caller\n        /* \"contracts/TimbFarm.sol\":10172:10197  stakedBalance[msg.sender] */\n      0x00\n      swap1\n      dup2\n      mstore\n        /* \"contracts/TimbFarm.sol\":10172:10185  stakedBalance */\n      0x08\n        /* \"contracts/TimbFarm.sol\":10172:10197  stakedBalance[msg.sender] */\n      0x20\n      mstore\n      0x40\n      dup2\n      keccak256\n        /* \"contracts/TimbFarm.sol\":10172:10207  stakedBalance[msg.sender] -= amount */\n      dup1\n      sload\n        /* \"contracts/TimbFarm.sol\":10201:10207  amount */\n      dup5\n      swap3\n        /* \"contracts/TimbFarm.sol\":10172:10197  stakedBalance[msg.sender] */\n      swap1\n        /* \"contracts/TimbFarm.sol\":10172:10207  stakedBalance[msg.sender] -= amount */\n      tag_213\n      swap1\n        /* \"contracts/TimbFarm.sol\":10201:10207  amount */\n      dup5\n      swap1\n        /* \"contracts/TimbFarm.sol\":10172:10207  stakedBalance[msg.sender] -= amount */\n      tag_157\n      jump\t// in\n    tag_213:\n      swap3\n      pop\n      pop\n      dup2\n      swap1\n      sstore\n      pop\n        /* \"contracts/TimbFarm.sol\":10246:10252  amount */\n      dup2\n        /* \"contracts/TimbFarm.sol\":10217:10228  totalStaked */\n      0x07\n      0x00\n        /* \"contracts/TimbFarm.sol\":10217:10252  totalStaked               -= amount */\n      dup3\n      dup3\n      sload\n      tag_214\n      swap2\n      swap1\n      tag_157\n      jump\t// in\n    tag_214:\n      swap1\n      swap2\n      sstore\n      pop\n      pop\n        /* \"contracts/TimbFarm.sol\":10263:10270  lpToken */\n      sload(0x01)\n        /* \"contracts/TimbFarm.sol\":10263:10303  lpToken.safeTransfer(msg.sender, amount) */\n      tag_215\n      swap1\n      sub(shl(0xa0, 0x01), 0x01)\n        /* \"contracts/TimbFarm.sol\":10263:10270  lpToken */\n      and\n        /* \"contracts/TimbFarm.sol\":10284:10294  msg.sender */\n      caller\n        /* \"contracts/TimbFarm.sol\":10296:10302  amount */\n      dup5\n        /* \"contracts/TimbFarm.sol\":10263:10283  lpToken.safeTransfer */\n      tag_216\n        /* \"contracts/TimbFarm.sol\":10263:10303  lpToken.safeTransfer(msg.sender, amount) */\n      jump\t// in\n    tag_215:\n        /* \"contracts/TimbFarm.sol\":10319:10347  Unstaked(msg.sender, amount) */\n      mload(0x40)\n        /* \"#utility.yul\":529:554   */\n      dup3\n      dup2\n      mstore\n        /* \"contracts/TimbFarm.sol\":10328:10338  msg.sender */\n      caller\n      swap1\n        /* \"contracts/TimbFarm.sol\":10319:10347  Unstaked(msg.sender, amount) */\n      0x0f5bb82176feb1b5e747e28471aa92156a04d9f3ab9f45f28e2d704232b93f75\n      swap1\n        /* \"#utility.yul\":517:519   */\n      0x20\n        /* \"#utility.yul\":502:520   */\n      add\n        /* \"contracts/TimbFarm.sol\":10319:10347  Unstaked(msg.sender, amount) */\n    tag_217:\n      mload(0x40)\n      dup1\n      swap2\n      sub\n      swap1\n      log2\n        /* \"contracts/TimbFarm.sol\":5671:5672  _ */\n      pop\n        /* \"@openzeppelin/contracts/utils/ReentrancyGuard.sol\":3065:3085  _nonReentrantAfter() */\n      tag_218\n        /* \"@openzeppelin/contracts/utils/ReentrancyGuard.sol\":2365:2366  1 */\n      0x01\n      0x00\n      dup1\n      mload\n      0x20\n      data_c8669cf8eaf883002b9f48e28846a8d408c9b58ea6613bace374265e43c9bc43\n      dup4\n      codecopy\n      dup2\n      mload\n      swap2\n      mstore\n        /* \"@openzeppelin/contracts/utils/ReentrancyGuard.sol\":3972:4034  _reentrancyGuardStorageSlot().getUint256Slot().value = ENTERED */\n      sstore\n        /* \"@openzeppelin/contracts/utils/ReentrancyGuard.sol\":3749:4041  function _nonReentrantBefore() private {... */\n      jump\n        /* \"@openzeppelin/contracts/utils/ReentrancyGuard.sol\":3065:3085  _nonReentrantAfter() */\n    tag_218:\n        /* \"contracts/TimbFarm.sol\":9838:10354  function unstake(uint256 amount)... */\n      pop\n      jump\t// out\n        /* \"contracts/TimbFarm.sol\":10625:11326  function claimRewards()... */\n    tag_75:\n        /* \"@openzeppelin/contracts/utils/ReentrancyGuard.sol\":3023:3044  _nonReentrantBefore() */\n      tag_220\n        /* \"@openzeppelin/contracts/utils/ReentrancyGuard.sol\":3023:3042  _nonReentrantBefore */\n      tag_166\n        /* \"@openzeppelin/contracts/utils/ReentrancyGuard.sol\":3023:3044  _nonReentrantBefore() */\n      jump\t// in\n    tag_220:\n        /* \"contracts/TimbFarm.sol\":5521:5527  paused */\n      sload(0x0c)\n      0x0100\n      swap1\n      div\n      0xff\n      and\n        /* \"contracts/TimbFarm.sol\":5517:5552  if (paused) revert ContractPaused() */\n      iszero\n      tag_222\n      jumpi\n        /* \"contracts/TimbFarm.sol\":5536:5552  ContractPaused() */\n      mload(0x40)\n      shl(0xe0, 0xab35696f)\n      dup2\n      mstore\n      0x04\n      add\n      mload(0x40)\n      dup1\n      swap2\n      sub\n      swap1\n      revert\n        /* \"contracts/TimbFarm.sol\":5517:5552  if (paused) revert ContractPaused() */\n    tag_222:\n        /* \"contracts/TimbFarm.sol\":10730:10740  msg.sender */\n      caller\n        /* \"contracts/TimbFarm.sol\":5757:5773  rewardPerToken() */\n      tag_224\n        /* \"contracts/TimbFarm.sol\":5757:5771  rewardPerToken */\n      tag_129\n        /* \"contracts/TimbFarm.sol\":5757:5773  rewardPerToken() */\n      jump\t// in\n    tag_224:\n        /* \"contracts/TimbFarm.sol\":5734:5754  rewardPerTokenStored */\n      0x06\n        /* \"contracts/TimbFarm.sol\":5734:5773  rewardPerTokenStored = rewardPerToken() */\n      sstore\n        /* \"contracts/TimbFarm.sol\":5806:5832  lastTimeRewardApplicable() */\n      tag_225\n        /* \"contracts/TimbFarm.sol\":5806:5830  lastTimeRewardApplicable */\n      tag_98\n        /* \"contracts/TimbFarm.sol\":5806:5832  lastTimeRewardApplicable() */\n      jump\t// in\n    tag_225:\n        /* \"contracts/TimbFarm.sol\":5783:5797  lastUpdateTime */\n      0x05\n        /* \"contracts/TimbFarm.sol\":5783:5832  lastUpdateTime       = lastTimeRewardApplicable() */\n      sstore\n      sub(shl(0xa0, 0x01), 0x01)\n        /* \"contracts/TimbFarm.sol\":5846:5867  account != address(0) */\n      dup2\n      and\n      iszero\n        /* \"contracts/TimbFarm.sol\":5842:6011  if (account != address(0)) {... */\n      tag_226\n      jumpi\n        /* \"contracts/TimbFarm.sol\":5917:5932  earned(account) */\n      tag_227\n        /* \"contracts/TimbFarm.sol\":5924:5931  account */\n      dup2\n        /* \"contracts/TimbFarm.sol\":5917:5923  earned */\n      tag_47\n        /* \"contracts/TimbFarm.sol\":5917:5932  earned(account) */\n      jump\t// in\n    tag_227:\n      sub(shl(0xa0, 0x01), 0x01)\n        /* \"contracts/TimbFarm.sol\":5883:5906  pendingRewards[account] */\n      dup3\n      and\n      0x00\n      swap1\n      dup2\n      mstore\n        /* \"contracts/TimbFarm.sol\":5883:5897  pendingRewards */\n      0x0a\n        /* \"contracts/TimbFarm.sol\":5883:5906  pendingRewards[account] */\n      0x20\n      swap1\n      dup2\n      mstore\n      0x40\n      dup1\n      dup4\n      keccak256\n        /* \"contracts/TimbFarm.sol\":5883:5932  pendingRewards[account]         = earned(account) */\n      swap4\n      swap1\n      swap4\n      sstore\n        /* \"contracts/TimbFarm.sol\":5980:6000  rewardPerTokenStored */\n      sload(0x06)\n        /* \"contracts/TimbFarm.sol\":5946:5968  userRewardPerTokenPaid */\n      0x09\n        /* \"contracts/TimbFarm.sol\":5946:5977  userRewardPerTokenPaid[account] */\n      swap1\n      swap2\n      mstore\n      swap2\n      swap1\n      keccak256\n        /* \"contracts/TimbFarm.sol\":5946:6000  userRewardPerTokenPaid[account] = rewardPerTokenStored */\n      sstore\n        /* \"contracts/TimbFarm.sol\":5842:6011  if (account != address(0)) {... */\n    tag_226:\n        /* \"contracts/TimbFarm.sol\":10788:10798  msg.sender */\n      caller\n        /* \"contracts/TimbFarm.sol\":10756:10770  uint256 reward */\n      0x00\n        /* \"contracts/TimbFarm.sol\":10773:10799  pendingRewards[msg.sender] */\n      swap1\n      dup2\n      mstore\n        /* \"contracts/TimbFarm.sol\":10773:10787  pendingRewards */\n      0x0a\n        /* \"contracts/TimbFarm.sol\":10773:10799  pendingRewards[msg.sender] */\n      0x20\n      mstore\n      0x40\n      dup2\n      keccak256\n      sload\n      swap1\n        /* \"contracts/TimbFarm.sol\":10813:10824  reward == 0 */\n      dup2\n      swap1\n      sub\n        /* \"contracts/TimbFarm.sol\":10809:10851  if (reward == 0) revert NoPendingRewards() */\n      tag_229\n      jumpi\n        /* \"contracts/TimbFarm.sol\":10833:10851  NoPendingRewards() */\n      mload(0x40)\n      shl(0xe1, 0x5b8f50bf)\n      dup2\n      mstore\n      0x04\n      add\n      mload(0x40)\n      dup1\n      swap2\n      sub\n      swap1\n      revert\n        /* \"contracts/TimbFarm.sol\":10809:10851  if (reward == 0) revert NoPendingRewards() */\n    tag_229:\n        /* \"contracts/TimbFarm.sol\":11031:11066  timbsToken.balanceOf(address(this)) */\n      mload(0x40)\n      shl(0xe0, 0x70a08231)\n      dup2\n      mstore\n        /* \"contracts/TimbFarm.sol\":11060:11064  this */\n      address\n        /* \"contracts/TimbFarm.sol\":11031:11066  timbsToken.balanceOf(address(this)) */\n      0x04\n      dup3\n      add\n        /* \"#utility.yul\":725:776   */\n      mstore\n        /* \"contracts/TimbFarm.sol\":11011:11028  uint256 available */\n      0x00\n      swap1\n        /* \"contracts/TimbFarm.sol\":11031:11041  timbsToken */\n      immutable(\"0x962c584afcd4dd6cb0e25fef291e59a13b9ae1b34d13f25b13a34669b807535c\")\n      sub(shl(0xa0, 0x01), 0x01)\n        /* \"contracts/TimbFarm.sol\":11031:11051  timbsToken.balanceOf */\n      and\n      swap1\n      0x70a08231\n      swap1\n        /* \"#utility.yul\":698:716   */\n      0x24\n      add\n        /* \"contracts/TimbFarm.sol\":11031:11066  timbsToken.balanceOf(address(this)) */\n      0x20\n      mload(0x40)\n      dup1\n      dup4\n      sub\n      dup2\n      dup7\n      gas\n      staticcall\n      iszero\n      dup1\n      iszero\n      tag_232\n      jumpi\n      returndatasize\n      0x00\n      dup1\n      returndatacopy\n      revert(0x00, returndatasize)\n    tag_232:\n      pop\n      pop\n      pop\n      pop\n      mload(0x40)\n      returndatasize\n      not(0x1f)\n      0x1f\n      dup3\n      add\n      and\n      dup3\n      add\n      dup1\n      0x40\n      mstore\n      pop\n      dup2\n      add\n      swap1\n      tag_233\n      swap2\n      swap1\n      tag_234\n      jump\t// in\n    tag_233:\n        /* \"contracts/TimbFarm.sol\":11011:11066  uint256 available = timbsToken.balanceOf(address(this)) */\n      swap1\n      pop\n        /* \"contracts/TimbFarm.sol\":11089:11098  available */\n      dup1\n        /* \"contracts/TimbFarm.sol\":11080:11086  reward */\n      dup3\n        /* \"contracts/TimbFarm.sol\":11080:11098  reward > available */\n      gt\n        /* \"contracts/TimbFarm.sol\":11076:11176  if (reward > available) {... */\n      iszero\n      tag_235\n      jumpi\n        /* \"contracts/TimbFarm.sol\":11121:11165  InsufficientRewardBalance(reward, available) */\n      mload(0x40)\n      shl(0xe0, 0x65ac9d43)\n      dup2\n      mstore\n      0x04\n      dup2\n      add\n        /* \"#utility.yul\":3200:3225   */\n      dup4\n      swap1\n      mstore\n        /* \"#utility.yul\":3241:3259   */\n      0x24\n      dup2\n      add\n        /* \"#utility.yul\":3234:3268   */\n      dup3\n      swap1\n      mstore\n        /* \"#utility.yul\":3173:3191   */\n      0x44\n      add\n        /* \"contracts/TimbFarm.sol\":11121:11165  InsufficientRewardBalance(reward, available) */\n      tag_212\n        /* \"#utility.yul\":3026:3274   */\n      jump\n        /* \"contracts/TimbFarm.sol\":11076:11176  if (reward > available) {... */\n    tag_235:\n        /* \"contracts/TimbFarm.sol\":11201:11211  msg.sender */\n      caller\n        /* \"contracts/TimbFarm.sol\":11215:11216  0 */\n      0x00\n        /* \"contracts/TimbFarm.sol\":11186:11212  pendingRewards[msg.sender] */\n      dup2\n      dup2\n      mstore\n        /* \"contracts/TimbFarm.sol\":11186:11200  pendingRewards */\n      0x0a\n        /* \"contracts/TimbFarm.sol\":11186:11212  pendingRewards[msg.sender] */\n      0x20\n      mstore\n      0x40\n      dup2\n      keccak256\n        /* \"contracts/TimbFarm.sol\":11186:11216  pendingRewards[msg.sender] = 0 */\n      sstore\n        /* \"contracts/TimbFarm.sol\":11226:11269  timbsToken.safeTransfer(msg.sender, reward) */\n      tag_237\n      swap1\n        /* \"contracts/TimbFarm.sol\":11226:11236  timbsToken */\n      immutable(\"0x962c584afcd4dd6cb0e25fef291e59a13b9ae1b34d13f25b13a34669b807535c\")\n      sub(shl(0xa0, 0x01), 0x01)\n        /* \"contracts/TimbFarm.sol\":11226:11249  timbsToken.safeTransfer */\n      and\n      swap1\n        /* \"contracts/TimbFarm.sol\":11262:11268  reward */\n      dup5\n        /* \"contracts/TimbFarm.sol\":11226:11249  timbsToken.safeTransfer */\n      tag_216\n        /* \"contracts/TimbFarm.sol\":11226:11269  timbsToken.safeTransfer(msg.sender, reward) */\n      jump\t// in\n    tag_237:\n        /* \"contracts/TimbFarm.sol\":11285:11319  RewardsClaimed(msg.sender, reward) */\n      mload(0x40)\n        /* \"#utility.yul\":529:554   */\n      dup3\n      dup2\n      mstore\n        /* \"contracts/TimbFarm.sol\":11300:11310  msg.sender */\n      caller\n      swap1\n        /* \"contracts/TimbFarm.sol\":11285:11319  RewardsClaimed(msg.sender, reward) */\n      0xfc30cddea38e2bf4d6ea7d3f9ed3b6ad7f176419f4963bd81318067a4aee73fe\n      swap1\n        /* \"#utility.yul\":517:519   */\n      0x20\n        /* \"#utility.yul\":502:520   */\n      add\n        /* \"contracts/TimbFarm.sol\":11285:11319  RewardsClaimed(msg.sender, reward) */\n      mload(0x40)\n      dup1\n      swap2\n      sub\n      swap1\n      log2\n        /* \"contracts/TimbFarm.sol\":10746:11326  {... */\n      pop\n      pop\n        /* \"contracts/TimbFarm.sol\":5562:5563  _ */\n      pop\n        /* \"@openzeppelin/contracts/utils/ReentrancyGuard.sol\":3065:3085  _nonReentrantAfter() */\n      tag_239\n        /* \"@openzeppelin/contracts/utils/ReentrancyGuard.sol\":2365:2366  1 */\n      0x01\n      0x00\n      dup1\n      mload\n      0x20\n      data_c8669cf8eaf883002b9f48e28846a8d408c9b58ea6613bace374265e43c9bc43\n      dup4\n      codecopy\n      dup2\n      mload\n      swap2\n      mstore\n        /* \"@openzeppelin/contracts/utils/ReentrancyGuard.sol\":3972:4034  _reentrancyGuardStorageSlot().getUint256Slot().value = ENTERED */\n      sstore\n        /* \"@openzeppelin/contracts/utils/ReentrancyGuard.sol\":3749:4041  function _nonReentrantBefore() private {... */\n      jump\n        /* \"@openzeppelin/contracts/utils/ReentrancyGuard.sol\":3065:3085  _nonReentrantAfter() */\n    tag_239:\n        /* \"contracts/TimbFarm.sol\":10625:11326  function claimRewards()... */\n      jump\t// out\n        /* \"contracts/TimbFarm.sol\":15537:15621  function unpause() external onlyOwner { paused = false; emit Unpaused(msg.sender); } */\n    tag_77:\n        /* \"@openzeppelin/contracts/access/Ownable.sol\":1531:1544  _checkOwner() */\n      tag_241\n        /* \"@openzeppelin/contracts/access/Ownable.sol\":1531:1542  _checkOwner */\n      tag_194\n        /* \"@openzeppelin/contracts/access/Ownable.sol\":1531:1544  _checkOwner() */\n      jump\t// in\n    tag_241:\n        /* \"contracts/TimbFarm.sol\":15577:15583  paused */\n      0x0c\n        /* \"contracts/TimbFarm.sol\":15577:15591  paused = false */\n      dup1\n      sload\n      not(0xff00)\n      and\n      swap1\n      sstore\n        /* \"contracts/TimbFarm.sol\":15598:15618  Unpaused(msg.sender) */\n      mload(0x40)\n        /* \"contracts/TimbFarm.sol\":15607:15617  msg.sender */\n      caller\n      swap1\n        /* \"contracts/TimbFarm.sol\":15598:15618  Unpaused(msg.sender) */\n      0x5db9ee0a495bf2e6ff9c91a7834c1ba4fdd244a5e8aa4e537bd38aeae4b073aa\n      swap1\n        /* \"contracts/TimbFarm.sol\":15586:15591  false */\n      0x00\n      swap1\n        /* \"contracts/TimbFarm.sol\":15598:15618  Unpaused(msg.sender) */\n      log2\n        /* \"contracts/TimbFarm.sol\":15537:15621  function unpause() external onlyOwner { paused = false; emit Unpaused(msg.sender); } */\n      jump\t// out\n        /* \"@openzeppelin/contracts/access/Ownable.sol\":2293:2394  function renounceOwnership() public virtual onlyOwner {... */\n    tag_96:\n        /* \"@openzeppelin/contracts/access/Ownable.sol\":1531:1544  _checkOwner() */\n      tag_244\n        /* \"@openzeppelin/contracts/access/Ownable.sol\":1531:1542  _checkOwner */\n      tag_194\n        /* \"@openzeppelin/contracts/access/Ownable.sol\":1531:1544  _checkOwner() */\n      jump\t// in\n    tag_244:\n        /* \"@openzeppelin/contracts/access/Ownable.sol\":2357:2387  _transferOwnership(address(0)) */\n      tag_239\n        /* \"@openzeppelin/contracts/access/Ownable.sol\":2384:2385  0 */\n      0x00\n        /* \"@openzeppelin/contracts/access/Ownable.sol\":2357:2375  _transferOwnership */\n      tag_247\n        /* \"@openzeppelin/contracts/access/Ownable.sol\":2357:2387  _transferOwnership(address(0)) */\n      jump\t// in\n        /* \"contracts/TimbFarm.sol\":6986:7139  function lastTimeRewardApplicable() public view returns (uint256) {... */\n    tag_98:\n        /* \"contracts/TimbFarm.sol\":7043:7050  uint256 */\n      0x00\n        /* \"contracts/TimbFarm.sol\":7087:7099  periodFinish */\n      sload(0x04)\n        /* \"contracts/TimbFarm.sol\":7069:7084  block.timestamp */\n      timestamp\n        /* \"contracts/TimbFarm.sol\":7069:7099  block.timestamp < periodFinish */\n      lt\n        /* \"contracts/TimbFarm.sol\":7069:7132  block.timestamp < periodFinish ? block.timestamp : periodFinish */\n      tag_249\n      jumpi\n      pop\n        /* \"contracts/TimbFarm.sol\":7120:7132  periodFinish */\n      sload(0x04)\n      swap1\n        /* \"contracts/TimbFarm.sol\":6986:7139  function lastTimeRewardApplicable() public view returns (uint256) {... */\n      jump\t// out\n        /* \"contracts/TimbFarm.sol\":7069:7132  block.timestamp < periodFinish ? block.timestamp : periodFinish */\n    tag_249:\n        /* \"contracts/TimbFarm.sol\":7102:7117  block.timestamp */\n      timestamp\n        /* \"contracts/TimbFarm.sol\":7069:7132  block.timestamp < periodFinish ? block.timestamp : periodFinish */\n    tag_250:\n        /* \"contracts/TimbFarm.sol\":7062:7132  return block.timestamp < periodFinish ? block.timestamp : periodFinish */\n      swap1\n      pop\n        /* \"contracts/TimbFarm.sol\":6986:7139  function lastTimeRewardApplicable() public view returns (uint256) {... */\n      swap1\n      jump\t// out\n        /* \"contracts/TimbFarm.sol\":15450:15532  function pause()   external onlyOwner { paused = true;  emit Paused(msg.sender); } */\n    tag_104:\n        /* \"@openzeppelin/contracts/access/Ownable.sol\":1531:1544  _checkOwner() */\n      tag_252\n        /* \"@openzeppelin/contracts/access/Ownable.sol\":1531:1542  _checkOwner */\n      tag_194\n        /* \"@openzeppelin/contracts/access/Ownable.sol\":1531:1544  _checkOwner() */\n      jump\t// in\n    tag_252:\n        /* \"contracts/TimbFarm.sol\":15490:15496  paused */\n      0x0c\n        /* \"contracts/TimbFarm.sol\":15490:15503  paused = true */\n      dup1\n      sload\n      not(0xff00)\n      and\n      0x0100\n      or\n      swap1\n      sstore\n        /* \"contracts/TimbFarm.sol\":15511:15529  Paused(msg.sender) */\n      mload(0x40)\n        /* \"contracts/TimbFarm.sol\":15518:15528  msg.sender */\n      caller\n      swap1\n        /* \"contracts/TimbFarm.sol\":15511:15529  Paused(msg.sender) */\n      0x62e78cea01bee320cd4e420270b5ea74000d11b0c9f74754ebdbfc544b05a258\n      swap1\n        /* \"contracts/TimbFarm.sol\":15490:15503  paused = true */\n      0x00\n      swap1\n        /* \"contracts/TimbFarm.sol\":15511:15529  Paused(msg.sender) */\n      log2\n        /* \"contracts/TimbFarm.sol\":15450:15532  function pause()   external onlyOwner { paused = true;  emit Paused(msg.sender); } */\n      jump\t// out\n        /* \"contracts/TimbFarm.sol\":16380:16770  function recoverERC20(address token, uint256 amount) external onlyOwner {... */\n    tag_108:\n        /* \"@openzeppelin/contracts/access/Ownable.sol\":1531:1544  _checkOwner() */\n      tag_255\n        /* \"@openzeppelin/contracts/access/Ownable.sol\":1531:1542  _checkOwner */\n      tag_194\n        /* \"@openzeppelin/contracts/access/Ownable.sol\":1531:1544  _checkOwner() */\n      jump\t// in\n    tag_255:\n        /* \"contracts/TimbFarm.sol\":16483:16490  lpToken */\n      sload(0x01)\n      sub(shl(0xa0, 0x01), 0x01)\n      swap1\n      dup2\n      and\n        /* \"contracts/TimbFarm.sol\":16466:16491  token == address(lpToken) */\n      swap1\n      dup4\n      and\n      sub\n        /* \"contracts/TimbFarm.sol\":16462:16711  if (token == address(lpToken)) {... */\n      tag_257\n      jumpi\n        /* \"contracts/TimbFarm.sol\":16564:16575  totalStaked */\n      sload(0x07)\n        /* \"contracts/TimbFarm.sol\":16529:16536  lpToken */\n      sload(0x01)\n        /* \"contracts/TimbFarm.sol\":16529:16561  lpToken.balanceOf(address(this)) */\n      mload(0x40)\n      shl(0xe0, 0x70a08231)\n      dup2\n      mstore\n        /* \"contracts/TimbFarm.sol\":16555:16559  this */\n      address\n        /* \"contracts/TimbFarm.sol\":16529:16561  lpToken.balanceOf(address(this)) */\n      0x04\n      dup3\n      add\n        /* \"#utility.yul\":725:776   */\n      mstore\n        /* \"contracts/TimbFarm.sol\":16507:16526  uint256 recoverable */\n      0x00\n      swap3\n        /* \"contracts/TimbFarm.sol\":16564:16575  totalStaked */\n      swap2\n      sub(shl(0xa0, 0x01), 0x01)\n        /* \"contracts/TimbFarm.sol\":16529:16536  lpToken */\n      and\n      swap1\n        /* \"contracts/TimbFarm.sol\":16529:16546  lpToken.balanceOf */\n      0x70a08231\n      swap1\n        /* \"#utility.yul\":698:716   */\n      0x24\n      add\n        /* \"contracts/TimbFarm.sol\":16529:16561  lpToken.balanceOf(address(this)) */\n      0x20\n      mload(0x40)\n      dup1\n      dup4\n      sub\n      dup2\n      dup7\n      gas\n      staticcall\n      iszero\n      dup1\n      iszero\n      tag_260\n      jumpi\n      returndatasize\n      0x00\n      dup1\n      returndatacopy\n      revert(0x00, returndatasize)\n    tag_260:\n      pop\n      pop\n      pop\n      pop\n      mload(0x40)\n      returndatasize\n      not(0x1f)\n      0x1f\n      dup3\n      add\n      and\n      dup3\n      add\n      dup1\n      0x40\n      mstore\n      pop\n      dup2\n      add\n      swap1\n      tag_261\n      swap2\n      swap1\n      tag_234\n      jump\t// in\n    tag_261:\n        /* \"contracts/TimbFarm.sol\":16529:16575  lpToken.balanceOf(address(this)) - totalStaked */\n      tag_262\n      swap2\n      swap1\n      tag_157\n      jump\t// in\n    tag_262:\n        /* \"contracts/TimbFarm.sol\":16507:16575  uint256 recoverable = lpToken.balanceOf(address(this)) - totalStaked */\n      swap1\n      pop\n        /* \"contracts/TimbFarm.sol\":16602:16613  recoverable */\n      dup1\n        /* \"contracts/TimbFarm.sol\":16593:16599  amount */\n      dup3\n        /* \"contracts/TimbFarm.sol\":16593:16613  amount > recoverable */\n      gt\n        /* \"contracts/TimbFarm.sol\":16589:16701  if (amount > recoverable) {... */\n      iszero\n      tag_263\n      jumpi\n        /* \"contracts/TimbFarm.sol\":16640:16686  InsufficientRewardBalance(amount, recoverable) */\n      mload(0x40)\n      shl(0xe0, 0x65ac9d43)\n      dup2\n      mstore\n      0x04\n      dup2\n      add\n        /* \"#utility.yul\":3200:3225   */\n      dup4\n      swap1\n      mstore\n        /* \"#utility.yul\":3241:3259   */\n      0x24\n      dup2\n      add\n        /* \"#utility.yul\":3234:3268   */\n      dup3\n      swap1\n      mstore\n        /* \"#utility.yul\":3173:3191   */\n      0x44\n      add\n        /* \"contracts/TimbFarm.sol\":16640:16686  InsufficientRewardBalance(amount, recoverable) */\n      tag_212\n        /* \"#utility.yul\":3026:3274   */\n      jump\n        /* \"contracts/TimbFarm.sol\":16589:16701  if (amount > recoverable) {... */\n    tag_263:\n        /* \"contracts/TimbFarm.sol\":16493:16711  {... */\n      pop\n        /* \"contracts/TimbFarm.sol\":16462:16711  if (token == address(lpToken)) {... */\n    tag_257:\n        /* \"contracts/TimbFarm.sol\":16720:16763  IERC20(token).safeTransfer(owner(), amount) */\n      tag_190\n        /* \"contracts/TimbFarm.sol\":16747:16754  owner() */\n      tag_266\n        /* \"@openzeppelin/contracts/access/Ownable.sol\":1684:1691  address */\n      0x00\n        /* \"@openzeppelin/contracts/access/Ownable.sol\":1710:1716  _owner */\n      sload\n      sub(shl(0xa0, 0x01), 0x01)\n      and\n      swap1\n        /* \"@openzeppelin/contracts/access/Ownable.sol\":1638:1723  function owner() public view virtual returns (address) {... */\n      jump\n        /* \"contracts/TimbFarm.sol\":16747:16754  owner() */\n    tag_266:\n      sub(shl(0xa0, 0x01), 0x01)\n        /* \"contracts/TimbFarm.sol\":16720:16746  IERC20(token).safeTransfer */\n      dup5\n      and\n      swap1\n        /* \"contracts/TimbFarm.sol\":16756:16762  amount */\n      dup4\n        /* \"contracts/TimbFarm.sol\":16720:16746  IERC20(token).safeTransfer */\n      tag_216\n        /* \"contracts/TimbFarm.sol\":16720:16763  IERC20(token).safeTransfer(owner(), amount) */\n      jump\t// in\n        /* \"contracts/TimbFarm.sol\":13771:13987  function setRewardRate(uint256 _ratePerSecond)... */\n    tag_118:\n        /* \"@openzeppelin/contracts/access/Ownable.sol\":1531:1544  _checkOwner() */\n      tag_269\n        /* \"@openzeppelin/contracts/access/Ownable.sol\":1531:1542  _checkOwner */\n      tag_194\n        /* \"@openzeppelin/contracts/access/Ownable.sol\":1531:1544  _checkOwner() */\n      jump\t// in\n    tag_269:\n        /* \"contracts/TimbFarm.sol\":13882:13883  0 */\n      0x00\n        /* \"contracts/TimbFarm.sol\":5757:5773  rewardPerToken() */\n      tag_271\n        /* \"contracts/TimbFarm.sol\":5757:5771  rewardPerToken */\n      tag_129\n        /* \"contracts/TimbFarm.sol\":5757:5773  rewardPerToken() */\n      jump\t// in\n    tag_271:\n        /* \"contracts/TimbFarm.sol\":5734:5754  rewardPerTokenStored */\n      0x06\n        /* \"contracts/TimbFarm.sol\":5734:5773  rewardPerTokenStored = rewardPerToken() */\n      sstore\n        /* \"contracts/TimbFarm.sol\":5806:5832  lastTimeRewardApplicable() */\n      tag_272\n        /* \"contracts/TimbFarm.sol\":5806:5830  lastTimeRewardApplicable */\n      tag_98\n        /* \"contracts/TimbFarm.sol\":5806:5832  lastTimeRewardApplicable() */\n      jump\t// in\n    tag_272:\n        /* \"contracts/TimbFarm.sol\":5783:5797  lastUpdateTime */\n      0x05\n        /* \"contracts/TimbFarm.sol\":5783:5832  lastUpdateTime       = lastTimeRewardApplicable() */\n      sstore\n      sub(shl(0xa0, 0x01), 0x01)\n        /* \"contracts/TimbFarm.sol\":5846:5867  account != address(0) */\n      dup2\n      and\n      iszero\n        /* \"contracts/TimbFarm.sol\":5842:6011  if (account != address(0)) {... */\n      tag_273\n      jumpi\n        /* \"contracts/TimbFarm.sol\":5917:5932  earned(account) */\n      tag_274\n        /* \"contracts/TimbFarm.sol\":5924:5931  account */\n      dup2\n        /* \"contracts/TimbFarm.sol\":5917:5923  earned */\n      tag_47\n        /* \"contracts/TimbFarm.sol\":5917:5932  earned(account) */\n      jump\t// in\n    tag_274:\n      sub(shl(0xa0, 0x01), 0x01)\n        /* \"contracts/TimbFarm.sol\":5883:5906  pendingRewards[account] */\n      dup3\n      and\n      0x00\n      swap1\n      dup2\n      mstore\n        /* \"contracts/TimbFarm.sol\":5883:5897  pendingRewards */\n      0x0a\n        /* \"contracts/TimbFarm.sol\":5883:5906  pendingRewards[account] */\n      0x20\n      swap1\n      dup2\n      mstore\n      0x40\n      dup1\n      dup4\n      keccak256\n        /* \"contracts/TimbFarm.sol\":5883:5932  pendingRewards[account]         = earned(account) */\n      swap4\n      swap1\n      swap4\n      sstore\n        /* \"contracts/TimbFarm.sol\":5980:6000  rewardPerTokenStored */\n      sload(0x06)\n        /* \"contracts/TimbFarm.sol\":5946:5968  userRewardPerTokenPaid */\n      0x09\n        /* \"contracts/TimbFarm.sol\":5946:5977  userRewardPerTokenPaid[account] */\n      swap1\n      swap2\n      mstore\n      swap2\n      swap1\n      keccak256\n        /* \"contracts/TimbFarm.sol\":5946:6000  userRewardPerTokenPaid[account] = rewardPerTokenStored */\n      sstore\n        /* \"contracts/TimbFarm.sol\":5842:6011  if (account != address(0)) {... */\n    tag_273:\n        /* \"contracts/TimbFarm.sol\":13900:13919  rewardRatePerSecond */\n      0x03\n        /* \"contracts/TimbFarm.sol\":13900:13936  rewardRatePerSecond = _ratePerSecond */\n      dup3\n      swap1\n      sstore\n        /* \"contracts/TimbFarm.sol\":13951:13980  RewardRateSet(_ratePerSecond) */\n      mload(0x40)\n        /* \"#utility.yul\":529:554   */\n      dup3\n      dup2\n      mstore\n        /* \"contracts/TimbFarm.sol\":13951:13980  RewardRateSet(_ratePerSecond) */\n      0x8cbfafc8e0d9c5c81401c4b9c6e7d201198adc7eb8f8f1556c195ecd4c0a0e7b\n      swap1\n        /* \"#utility.yul\":517:519   */\n      0x20\n        /* \"#utility.yul\":502:520   */\n      add\n        /* \"contracts/TimbFarm.sol\":13951:13980  RewardRateSet(_ratePerSecond) */\n      mload(0x40)\n      dup1\n      swap2\n      sub\n      swap1\n      log1\n        /* \"@openzeppelin/contracts/access/Ownable.sol\":1554:1555  _ */\n      pop\n        /* \"contracts/TimbFarm.sol\":13771:13987  function setRewardRate(uint256 _ratePerSecond)... */\n      pop\n      jump\t// out\n        /* \"contracts/TimbFarm.sol\":14412:14663  function setLpToken(address _lpToken) external onlyOwner {... */\n    tag_121:\n        /* \"@openzeppelin/contracts/access/Ownable.sol\":1531:1544  _checkOwner() */\n      tag_278\n        /* \"@openzeppelin/contracts/access/Ownable.sol\":1531:1542  _checkOwner */\n      tag_194\n        /* \"@openzeppelin/contracts/access/Ownable.sol\":1531:1544  _checkOwner() */\n      jump\t// in\n    tag_278:\n      sub(shl(0xa0, 0x01), 0x01)\n        /* \"contracts/TimbFarm.sol\":14483:14505  _lpToken == address(0) */\n      dup2\n      and\n        /* \"contracts/TimbFarm.sol\":14479:14527  if (_lpToken == address(0)) revert ZeroAddress() */\n      tag_280\n      jumpi\n        /* \"contracts/TimbFarm.sol\":14514:14527  ZeroAddress() */\n      mload(0x40)\n      shl(0xe0, 0xd92e233d)\n      dup2\n      mstore\n      0x04\n      add\n      mload(0x40)\n      dup1\n      swap2\n      sub\n      swap1\n      revert\n        /* \"contracts/TimbFarm.sol\":14479:14527  if (_lpToken == address(0)) revert ZeroAddress() */\n    tag_280:\n        /* \"contracts/TimbFarm.sol\":14541:14554  lpTokenLocked */\n      and(0xff, sload(0x0c))\n        /* \"contracts/TimbFarm.sol\":14537:14585  if (lpTokenLocked) revert LpTokenAlreadyLocked() */\n      iszero\n      tag_281\n      jumpi\n        /* \"contracts/TimbFarm.sol\":14563:14585  LpTokenAlreadyLocked() */\n      mload(0x40)\n      shl(0xe0, 0xae0cd54f)\n      dup2\n      mstore\n      0x04\n      add\n      mload(0x40)\n      dup1\n      swap2\n      sub\n      swap1\n      revert\n        /* \"contracts/TimbFarm.sol\":14537:14585  if (lpTokenLocked) revert LpTokenAlreadyLocked() */\n    tag_281:\n        /* \"contracts/TimbFarm.sol\":14595:14602  lpToken */\n      0x01\n        /* \"contracts/TimbFarm.sol\":14595:14621  lpToken = IERC20(_lpToken) */\n      dup1\n      sload\n      not(sub(shl(0xa0, 0x01), 0x01))\n      and\n      sub(shl(0xa0, 0x01), 0x01)\n      dup4\n      and\n      swap1\n      dup2\n      or\n      swap1\n      swap2\n      sstore\n        /* \"contracts/TimbFarm.sol\":14636:14656  LpTokenSet(_lpToken) */\n      mload(0x40)\n      0x1c1820b4910e7e24202fa882184fde52e795a3113b621ded50b099b270159acc\n      swap1\n      0x00\n      swap1\n      log2\n        /* \"contracts/TimbFarm.sol\":14412:14663  function setLpToken(address _lpToken) external onlyOwner {... */\n      pop\n      jump\t// out\n        /* \"contracts/TimbFarm.sol\":8828:9359  function stake(uint256 amount)... */\n    tag_124:\n        /* \"@openzeppelin/contracts/utils/ReentrancyGuard.sol\":3023:3044  _nonReentrantBefore() */\n      tag_283\n        /* \"@openzeppelin/contracts/utils/ReentrancyGuard.sol\":3023:3042  _nonReentrantBefore */\n      tag_166\n        /* \"@openzeppelin/contracts/utils/ReentrancyGuard.sol\":3023:3044  _nonReentrantBefore() */\n      jump\t// in\n    tag_283:\n        /* \"contracts/TimbFarm.sol\":5521:5527  paused */\n      sload(0x0c)\n      0x0100\n      swap1\n      div\n      0xff\n      and\n        /* \"contracts/TimbFarm.sol\":5517:5552  if (paused) revert ContractPaused() */\n      iszero\n      tag_285\n      jumpi\n        /* \"contracts/TimbFarm.sol\":5536:5552  ContractPaused() */\n      mload(0x40)\n      shl(0xe0, 0xab35696f)\n      dup2\n      mstore\n      0x04\n      add\n      mload(0x40)\n      dup1\n      swap2\n      sub\n      swap1\n      revert\n        /* \"contracts/TimbFarm.sol\":5517:5552  if (paused) revert ContractPaused() */\n    tag_285:\n        /* \"contracts/TimbFarm.sol\":5615:5622  lpToken */\n      and(sub(shl(0xa0, 0x01), 0x01), sload(0x01))\n        /* \"contracts/TimbFarm.sol\":5603:5661  if (address(lpToken) == address(0)) revert LpTokenNotSet() */\n      tag_287\n      jumpi\n        /* \"contracts/TimbFarm.sol\":5646:5661  LpTokenNotSet() */\n      mload(0x40)\n      shl(0xe1, 0x381b166f)\n      dup2\n      mstore\n      0x04\n      add\n      mload(0x40)\n      dup1\n      swap2\n      sub\n      swap1\n      revert\n        /* \"contracts/TimbFarm.sol\":5603:5661  if (address(lpToken) == address(0)) revert LpTokenNotSet() */\n    tag_287:\n        /* \"contracts/TimbFarm.sol\":8954:8964  msg.sender */\n      caller\n        /* \"contracts/TimbFarm.sol\":5757:5773  rewardPerToken() */\n      tag_289\n        /* \"contracts/TimbFarm.sol\":5757:5771  rewardPerToken */\n      tag_129\n        /* \"contracts/TimbFarm.sol\":5757:5773  rewardPerToken() */\n      jump\t// in\n    tag_289:\n        /* \"contracts/TimbFarm.sol\":5734:5754  rewardPerTokenStored */\n      0x06\n        /* \"contracts/TimbFarm.sol\":5734:5773  rewardPerTokenStored = rewardPerToken() */\n      sstore\n        /* \"contracts/TimbFarm.sol\":5806:5832  lastTimeRewardApplicable() */\n      tag_290\n        /* \"contracts/TimbFarm.sol\":5806:5830  lastTimeRewardApplicable */\n      tag_98\n        /* \"contracts/TimbFarm.sol\":5806:5832  lastTimeRewardApplicable() */\n      jump\t// in\n    tag_290:\n        /* \"contracts/TimbFarm.sol\":5783:5797  lastUpdateTime */\n      0x05\n        /* \"contracts/TimbFarm.sol\":5783:5832  lastUpdateTime       = lastTimeRewardApplicable() */\n      sstore\n      sub(shl(0xa0, 0x01), 0x01)\n        /* \"contracts/TimbFarm.sol\":5846:5867  account != address(0) */\n      dup2\n      and\n      iszero\n        /* \"contracts/TimbFarm.sol\":5842:6011  if (account != address(0)) {... */\n      tag_291\n      jumpi\n        /* \"contracts/TimbFarm.sol\":5917:5932  earned(account) */\n      tag_292\n        /* \"contracts/TimbFarm.sol\":5924:5931  account */\n      dup2\n        /* \"contracts/TimbFarm.sol\":5917:5923  earned */\n      tag_47\n        /* \"contracts/TimbFarm.sol\":5917:5932  earned(account) */\n      jump\t// in\n    tag_292:\n      sub(shl(0xa0, 0x01), 0x01)\n        /* \"contracts/TimbFarm.sol\":5883:5906  pendingRewards[account] */\n      dup3\n      and\n      0x00\n      swap1\n      dup2\n      mstore\n        /* \"contracts/TimbFarm.sol\":5883:5897  pendingRewards */\n      0x0a\n        /* \"contracts/TimbFarm.sol\":5883:5906  pendingRewards[account] */\n      0x20\n      swap1\n      dup2\n      mstore\n      0x40\n      dup1\n      dup4\n      keccak256\n        /* \"contracts/TimbFarm.sol\":5883:5932  pendingRewards[account]         = earned(account) */\n      swap4\n      swap1\n      swap4\n      sstore\n        /* \"contracts/TimbFarm.sol\":5980:6000  rewardPerTokenStored */\n      sload(0x06)\n        /* \"contracts/TimbFarm.sol\":5946:5968  userRewardPerTokenPaid */\n      0x09\n        /* \"contracts/TimbFarm.sol\":5946:5977  userRewardPerTokenPaid[account] */\n      swap1\n      swap2\n      mstore\n      swap2\n      swap1\n      keccak256\n        /* \"contracts/TimbFarm.sol\":5946:6000  userRewardPerTokenPaid[account] = rewardPerTokenStored */\n      sstore\n        /* \"contracts/TimbFarm.sol\":5842:6011  if (account != address(0)) {... */\n    tag_291:\n        /* \"contracts/TimbFarm.sol\":8984:8990  amount */\n      dup2\n        /* \"contracts/TimbFarm.sol\":8994:8995  0 */\n      0x00\n        /* \"contracts/TimbFarm.sol\":8984:8995  amount == 0 */\n      sub\n        /* \"contracts/TimbFarm.sol\":8980:9016  if (amount == 0) revert ZeroAmount() */\n      tag_294\n      jumpi\n        /* \"contracts/TimbFarm.sol\":9004:9016  ZeroAmount() */\n      mload(0x40)\n      shl(0xe0, 0x1f2a2005)\n      dup2\n      mstore\n      0x04\n      add\n      mload(0x40)\n      dup1\n      swap2\n      sub\n      swap1\n      revert\n        /* \"contracts/TimbFarm.sol\":8980:9016  if (amount == 0) revert ZeroAmount() */\n    tag_294:\n        /* \"contracts/TimbFarm.sol\":9114:9127  lpTokenLocked */\n      and(0xff, sload(0x0c))\n        /* \"contracts/TimbFarm.sol\":9109:9149  if (!lpTokenLocked) lpTokenLocked = true */\n      tag_295\n      jumpi\n        /* \"contracts/TimbFarm.sol\":9129:9142  lpTokenLocked */\n      0x0c\n        /* \"contracts/TimbFarm.sol\":9129:9149  lpTokenLocked = true */\n      dup1\n      sload\n      not(0xff)\n      and\n        /* \"contracts/TimbFarm.sol\":9145:9149  true */\n      0x01\n        /* \"contracts/TimbFarm.sol\":9129:9149  lpTokenLocked = true */\n      or\n      swap1\n      sstore\n        /* \"contracts/TimbFarm.sol\":9109:9149  if (!lpTokenLocked) lpTokenLocked = true */\n    tag_295:\n        /* \"contracts/TimbFarm.sol\":9174:9184  msg.sender */\n      caller\n        /* \"contracts/TimbFarm.sol\":9160:9185  stakedBalance[msg.sender] */\n      0x00\n      swap1\n      dup2\n      mstore\n        /* \"contracts/TimbFarm.sol\":9160:9173  stakedBalance */\n      0x08\n        /* \"contracts/TimbFarm.sol\":9160:9185  stakedBalance[msg.sender] */\n      0x20\n      mstore\n      0x40\n      dup2\n      keccak256\n        /* \"contracts/TimbFarm.sol\":9160:9195  stakedBalance[msg.sender] += amount */\n      dup1\n      sload\n        /* \"contracts/TimbFarm.sol\":9189:9195  amount */\n      dup5\n      swap3\n        /* \"contracts/TimbFarm.sol\":9160:9185  stakedBalance[msg.sender] */\n      swap1\n        /* \"contracts/TimbFarm.sol\":9160:9195  stakedBalance[msg.sender] += amount */\n      tag_296\n      swap1\n        /* \"contracts/TimbFarm.sol\":9189:9195  amount */\n      dup5\n      swap1\n        /* \"contracts/TimbFarm.sol\":9160:9195  stakedBalance[msg.sender] += amount */\n      tag_163\n      jump\t// in\n    tag_296:\n      swap3\n      pop\n      pop\n      dup2\n      swap1\n      sstore\n      pop\n        /* \"contracts/TimbFarm.sol\":9234:9240  amount */\n      dup2\n        /* \"contracts/TimbFarm.sol\":9205:9216  totalStaked */\n      0x07\n      0x00\n        /* \"contracts/TimbFarm.sol\":9205:9240  totalStaked               += amount */\n      dup3\n      dup3\n      sload\n      tag_297\n      swap2\n      swap1\n      tag_163\n      jump\t// in\n    tag_297:\n      swap1\n      swap2\n      sstore\n      pop\n      pop\n        /* \"contracts/TimbFarm.sol\":9251:9258  lpToken */\n      sload(0x01)\n        /* \"contracts/TimbFarm.sol\":9251:9310  lpToken.safeTransferFrom(msg.sender, address(this), amount) */\n      tag_298\n      swap1\n      sub(shl(0xa0, 0x01), 0x01)\n        /* \"contracts/TimbFarm.sol\":9251:9258  lpToken */\n      and\n        /* \"contracts/TimbFarm.sol\":9276:9286  msg.sender */\n      caller\n        /* \"contracts/TimbFarm.sol\":9296:9300  this */\n      address\n        /* \"contracts/TimbFarm.sol\":9303:9309  amount */\n      dup6\n        /* \"contracts/TimbFarm.sol\":9251:9275  lpToken.safeTransferFrom */\n      tag_179\n        /* \"contracts/TimbFarm.sol\":9251:9310  lpToken.safeTransferFrom(msg.sender, address(this), amount) */\n      jump\t// in\n    tag_298:\n        /* \"contracts/TimbFarm.sol\":9326:9352  Staked(msg.sender, amount) */\n      mload(0x40)\n        /* \"#utility.yul\":529:554   */\n      dup3\n      dup2\n      mstore\n        /* \"contracts/TimbFarm.sol\":9333:9343  msg.sender */\n      caller\n      swap1\n        /* \"contracts/TimbFarm.sol\":9326:9352  Staked(msg.sender, amount) */\n      0x9e71bc8eea02a63969f509818f2dafb9254532904319f9dbda79b67bd34a5f3d\n      swap1\n        /* \"#utility.yul\":517:519   */\n      0x20\n        /* \"#utility.yul\":502:520   */\n      add\n        /* \"contracts/TimbFarm.sol\":9326:9352  Staked(msg.sender, amount) */\n      tag_217\n        /* \"#utility.yul\":383:560   */\n      jump\n        /* \"contracts/TimbFarm.sol\":7234:7580  function rewardPerToken() public view returns (uint256) {... */\n    tag_129:\n        /* \"contracts/TimbFarm.sol\":7281:7288  uint256 */\n      0x00\n        /* \"contracts/TimbFarm.sol\":7304:7315  totalStaked */\n      sload(0x07)\n        /* \"contracts/TimbFarm.sol\":7319:7320  0 */\n      0x00\n        /* \"contracts/TimbFarm.sol\":7304:7320  totalStaked == 0 */\n      sub\n        /* \"contracts/TimbFarm.sol\":7300:7374  if (totalStaked == 0) {... */\n      tag_302\n      jumpi\n      pop\n        /* \"contracts/TimbFarm.sol\":7343:7363  rewardPerTokenStored */\n      sload(0x06)\n      swap1\n        /* \"contracts/TimbFarm.sol\":7234:7580  function rewardPerToken() public view returns (uint256) {... */\n      jump\t// out\n        /* \"contracts/TimbFarm.sol\":7300:7374  if (totalStaked == 0) {... */\n    tag_302:\n        /* \"contracts/TimbFarm.sol\":7552:7563  totalStaked */\n      sload(0x07)\n        /* \"contracts/TimbFarm.sol\":7491:7510  rewardRatePerSecond */\n      sload(0x03)\n        /* \"contracts/TimbFarm.sol\":7457:7471  lastUpdateTime */\n      sload(0x05)\n        /* \"contracts/TimbFarm.sol\":7428:7454  lastTimeRewardApplicable() */\n      tag_303\n        /* \"contracts/TimbFarm.sol\":7428:7452  lastTimeRewardApplicable */\n      tag_98\n        /* \"contracts/TimbFarm.sol\":7428:7454  lastTimeRewardApplicable() */\n      jump\t// in\n    tag_303:\n        /* \"contracts/TimbFarm.sol\":7428:7471  lastTimeRewardApplicable() - lastUpdateTime */\n      tag_304\n      swap2\n      swap1\n      tag_157\n      jump\t// in\n    tag_304:\n        /* \"contracts/TimbFarm.sol\":7427:7510  (lastTimeRewardApplicable() - lastUpdateTime)... */\n      tag_305\n      swap2\n      swap1\n      tag_159\n      jump\t// in\n    tag_305:\n        /* \"contracts/TimbFarm.sol\":7427:7533  (lastTimeRewardApplicable() - lastUpdateTime)... */\n      tag_306\n      swap1\n        /* \"contracts/TimbFarm.sol\":7529:7533  1e18 */\n      0x0de0b6b3a7640000\n        /* \"contracts/TimbFarm.sol\":7427:7533  (lastTimeRewardApplicable() - lastUpdateTime)... */\n      tag_159\n      jump\t// in\n    tag_306:\n        /* \"contracts/TimbFarm.sol\":7427:7563  (lastTimeRewardApplicable() - lastUpdateTime)... */\n      tag_307\n      swap2\n      swap1\n      tag_161\n      jump\t// in\n    tag_307:\n        /* \"contracts/TimbFarm.sol\":7390:7410  rewardPerTokenStored */\n      sload(0x06)\n        /* \"contracts/TimbFarm.sol\":7390:7573  rewardPerTokenStored + (... */\n      tag_250\n      swap2\n      swap1\n      tag_163\n      jump\t// in\n        /* \"contracts/TimbFarm.sol\":15769:16224  function emergencyWithdraw() external nonReentrant {... */\n    tag_136:\n        /* \"@openzeppelin/contracts/utils/ReentrancyGuard.sol\":3023:3044  _nonReentrantBefore() */\n      tag_310\n        /* \"@openzeppelin/contracts/utils/ReentrancyGuard.sol\":3023:3042  _nonReentrantBefore */\n      tag_166\n        /* \"@openzeppelin/contracts/utils/ReentrancyGuard.sol\":3023:3044  _nonReentrantBefore() */\n      jump\t// in\n    tag_310:\n        /* \"contracts/TimbFarm.sol\":15861:15871  msg.sender */\n      caller\n        /* \"contracts/TimbFarm.sol\":15830:15844  uint256 staked */\n      0x00\n        /* \"contracts/TimbFarm.sol\":15847:15872  stakedBalance[msg.sender] */\n      swap1\n      dup2\n      mstore\n        /* \"contracts/TimbFarm.sol\":15847:15860  stakedBalance */\n      0x08\n        /* \"contracts/TimbFarm.sol\":15847:15872  stakedBalance[msg.sender] */\n      0x20\n      mstore\n      0x40\n      dup2\n      keccak256\n      sload\n      swap1\n        /* \"contracts/TimbFarm.sol\":15886:15897  staked == 0 */\n      dup2\n      swap1\n      sub\n        /* \"contracts/TimbFarm.sol\":15882:15918  if (staked == 0) revert ZeroAmount() */\n      tag_312\n      jumpi\n        /* \"contracts/TimbFarm.sol\":15906:15918  ZeroAmount() */\n      mload(0x40)\n      shl(0xe0, 0x1f2a2005)\n      dup2\n      mstore\n      0x04\n      add\n      mload(0x40)\n      dup1\n      swap2\n      sub\n      swap1\n      revert\n        /* \"contracts/TimbFarm.sol\":15882:15918  if (staked == 0) revert ZeroAmount() */\n    tag_312:\n        /* \"contracts/TimbFarm.sol\":15943:15953  msg.sender */\n      caller\n        /* \"contracts/TimbFarm.sol\":15965:15966  0 */\n      0x00\n        /* \"contracts/TimbFarm.sol\":15929:15954  stakedBalance[msg.sender] */\n      swap1\n      dup2\n      mstore\n        /* \"contracts/TimbFarm.sol\":15929:15942  stakedBalance */\n      0x08\n        /* \"contracts/TimbFarm.sol\":15929:15954  stakedBalance[msg.sender] */\n      0x20\n      swap1\n      dup2\n      mstore\n      0x40\n      dup1\n      dup4\n      keccak256\n        /* \"contracts/TimbFarm.sol\":15929:15966  stakedBalance[msg.sender]         = 0 */\n      dup4\n      swap1\n      sstore\n        /* \"contracts/TimbFarm.sol\":15976:15990  pendingRewards */\n      0x0a\n        /* \"contracts/TimbFarm.sol\":15976:16002  pendingRewards[msg.sender] */\n      dup3\n      mstore\n      dup1\n      dup4\n      keccak256\n        /* \"contracts/TimbFarm.sol\":15976:16013  pendingRewards[msg.sender]        = 0 */\n      dup4\n      swap1\n      sstore\n        /* \"contracts/TimbFarm.sol\":16023:16045  userRewardPerTokenPaid */\n      0x09\n        /* \"contracts/TimbFarm.sol\":16023:16057  userRewardPerTokenPaid[msg.sender] */\n      swap1\n      swap2\n      mstore\n      dup2\n      keccak256\n        /* \"contracts/TimbFarm.sol\":16023:16061  userRewardPerTokenPaid[msg.sender] = 0 */\n      dup2\n      swap1\n      sstore\n        /* \"contracts/TimbFarm.sol\":16071:16082  totalStaked */\n      0x07\n        /* \"contracts/TimbFarm.sol\":16071:16114  totalStaked                       -= staked */\n      dup1\n      sload\n        /* \"contracts/TimbFarm.sol\":16108:16114  staked */\n      dup4\n      swap3\n        /* \"contracts/TimbFarm.sol\":15965:15966  0 */\n      swap1\n        /* \"contracts/TimbFarm.sol\":16071:16114  totalStaked                       -= staked */\n      tag_313\n      swap1\n        /* \"contracts/TimbFarm.sol\":16108:16114  staked */\n      dup5\n      swap1\n        /* \"contracts/TimbFarm.sol\":16071:16114  totalStaked                       -= staked */\n      tag_157\n      jump\t// in\n    tag_313:\n      swap1\n      swap2\n      sstore\n      pop\n      pop\n        /* \"contracts/TimbFarm.sol\":16125:16132  lpToken */\n      sload(0x01)\n        /* \"contracts/TimbFarm.sol\":16125:16165  lpToken.safeTransfer(msg.sender, staked) */\n      tag_314\n      swap1\n      sub(shl(0xa0, 0x01), 0x01)\n        /* \"contracts/TimbFarm.sol\":16125:16132  lpToken */\n      and\n        /* \"contracts/TimbFarm.sol\":16146:16156  msg.sender */\n      caller\n        /* \"contracts/TimbFarm.sol\":16158:16164  staked */\n      dup4\n        /* \"contracts/TimbFarm.sol\":16125:16145  lpToken.safeTransfer */\n      tag_216\n        /* \"contracts/TimbFarm.sol\":16125:16165  lpToken.safeTransfer(msg.sender, staked) */\n      jump\t// in\n    tag_314:\n        /* \"contracts/TimbFarm.sol\":16180:16217  EmergencyWithdraw(msg.sender, staked) */\n      mload(0x40)\n        /* \"#utility.yul\":529:554   */\n      dup2\n      dup2\n      mstore\n        /* \"contracts/TimbFarm.sol\":16198:16208  msg.sender */\n      caller\n      swap1\n        /* \"contracts/TimbFarm.sol\":16180:16217  EmergencyWithdraw(msg.sender, staked) */\n      0x5fafa99d0643513820be26656b45130b01e1c03062e1266bf36f88cbd3bd9695\n      swap1\n        /* \"#utility.yul\":517:519   */\n      0x20\n        /* \"#utility.yul\":502:520   */\n      add\n        /* \"contracts/TimbFarm.sol\":16180:16217  EmergencyWithdraw(msg.sender, staked) */\n      mload(0x40)\n      dup1\n      swap2\n      sub\n      swap1\n      log2\n        /* \"contracts/TimbFarm.sol\":15820:16224  {... */\n      pop\n        /* \"@openzeppelin/contracts/utils/ReentrancyGuard.sol\":3065:3085  _nonReentrantAfter() */\n      tag_239\n        /* \"@openzeppelin/contracts/utils/ReentrancyGuard.sol\":2365:2366  1 */\n      0x01\n      0x00\n      dup1\n      mload\n      0x20\n      data_c8669cf8eaf883002b9f48e28846a8d408c9b58ea6613bace374265e43c9bc43\n      dup4\n      codecopy\n      dup2\n      mload\n      swap2\n      mstore\n        /* \"@openzeppelin/contracts/utils/ReentrancyGuard.sol\":3972:4034  _reentrancyGuardStorageSlot().getUint256Slot().value = ENTERED */\n      sstore\n        /* \"@openzeppelin/contracts/utils/ReentrancyGuard.sol\":3749:4041  function _nonReentrantBefore() private {... */\n      jump\n        /* \"contracts/TimbFarm.sol\":11432:12295  function exit()... */\n    tag_141:\n        /* \"@openzeppelin/contracts/utils/ReentrancyGuard.sol\":3023:3044  _nonReentrantBefore() */\n      tag_318\n        /* \"@openzeppelin/contracts/utils/ReentrancyGuard.sol\":3023:3042  _nonReentrantBefore */\n      tag_166\n        /* \"@openzeppelin/contracts/utils/ReentrancyGuard.sol\":3023:3044  _nonReentrantBefore() */\n      jump\t// in\n    tag_318:\n        /* \"contracts/TimbFarm.sol\":5521:5527  paused */\n      sload(0x0c)\n      0x0100\n      swap1\n      div\n      0xff\n      and\n        /* \"contracts/TimbFarm.sol\":5517:5552  if (paused) revert ContractPaused() */\n      iszero\n      tag_320\n      jumpi\n        /* \"contracts/TimbFarm.sol\":5536:5552  ContractPaused() */\n      mload(0x40)\n      shl(0xe0, 0xab35696f)\n      dup2\n      mstore\n      0x04\n      add\n      mload(0x40)\n      dup1\n      swap2\n      sub\n      swap1\n      revert\n        /* \"contracts/TimbFarm.sol\":5517:5552  if (paused) revert ContractPaused() */\n    tag_320:\n        /* \"contracts/TimbFarm.sol\":5615:5622  lpToken */\n      and(sub(shl(0xa0, 0x01), 0x01), sload(0x01))\n        /* \"contracts/TimbFarm.sol\":5603:5661  if (address(lpToken) == address(0)) revert LpTokenNotSet() */\n      tag_322\n      jumpi\n        /* \"contracts/TimbFarm.sol\":5646:5661  LpTokenNotSet() */\n      mload(0x40)\n      shl(0xe1, 0x381b166f)\n      dup2\n      mstore\n      0x04\n      add\n      mload(0x40)\n      dup1\n      swap2\n      sub\n      swap1\n      revert\n        /* \"contracts/TimbFarm.sol\":5603:5661  if (address(lpToken) == address(0)) revert LpTokenNotSet() */\n    tag_322:\n        /* \"contracts/TimbFarm.sol\":11543:11553  msg.sender */\n      caller\n        /* \"contracts/TimbFarm.sol\":5757:5773  rewardPerToken() */\n      tag_324\n        /* \"contracts/TimbFarm.sol\":5757:5771  rewardPerToken */\n      tag_129\n        /* \"contracts/TimbFarm.sol\":5757:5773  rewardPerToken() */\n      jump\t// in\n    tag_324:\n        /* \"contracts/TimbFarm.sol\":5734:5754  rewardPerTokenStored */\n      0x06\n        /* \"contracts/TimbFarm.sol\":5734:5773  rewardPerTokenStored = rewardPerToken() */\n      sstore\n        /* \"contracts/TimbFarm.sol\":5806:5832  lastTimeRewardApplicable() */\n      tag_325\n        /* \"contracts/TimbFarm.sol\":5806:5830  lastTimeRewardApplicable */\n      tag_98\n        /* \"contracts/TimbFarm.sol\":5806:5832  lastTimeRewardApplicable() */\n      jump\t// in\n    tag_325:\n        /* \"contracts/TimbFarm.sol\":5783:5797  lastUpdateTime */\n      0x05\n        /* \"contracts/TimbFarm.sol\":5783:5832  lastUpdateTime       = lastTimeRewardApplicable() */\n      sstore\n      sub(shl(0xa0, 0x01), 0x01)\n        /* \"contracts/TimbFarm.sol\":5846:5867  account != address(0) */\n      dup2\n      and\n      iszero\n        /* \"contracts/TimbFarm.sol\":5842:6011  if (account != address(0)) {... */\n      tag_326\n      jumpi\n        /* \"contracts/TimbFarm.sol\":5917:5932  earned(account) */\n      tag_327\n        /* \"contracts/TimbFarm.sol\":5924:5931  account */\n      dup2\n        /* \"contracts/TimbFarm.sol\":5917:5923  earned */\n      tag_47\n        /* \"contracts/TimbFarm.sol\":5917:5932  earned(account) */\n      jump\t// in\n    tag_327:\n      sub(shl(0xa0, 0x01), 0x01)\n        /* \"contracts/TimbFarm.sol\":5883:5906  pendingRewards[account] */\n      dup3\n      and\n      0x00\n      swap1\n      dup2\n      mstore\n        /* \"contracts/TimbFarm.sol\":5883:5897  pendingRewards */\n      0x0a\n        /* \"contracts/TimbFarm.sol\":5883:5906  pendingRewards[account] */\n      0x20\n      swap1\n      dup2\n      mstore\n      0x40\n      dup1\n      dup4\n      keccak256\n        /* \"contracts/TimbFarm.sol\":5883:5932  pendingRewards[account]         = earned(account) */\n      swap4\n      swap1\n      swap4\n      sstore\n        /* \"contracts/TimbFarm.sol\":5980:6000  rewardPerTokenStored */\n      sload(0x06)\n        /* \"contracts/TimbFarm.sol\":5946:5968  userRewardPerTokenPaid */\n      0x09\n        /* \"contracts/TimbFarm.sol\":5946:5977  userRewardPerTokenPaid[account] */\n      swap1\n      swap2\n      mstore\n      swap2\n      swap1\n      keccak256\n        /* \"contracts/TimbFarm.sol\":5946:6000  userRewardPerTokenPaid[account] = rewardPerTokenStored */\n      sstore\n        /* \"contracts/TimbFarm.sol\":5842:6011  if (account != address(0)) {... */\n    tag_326:\n        /* \"contracts/TimbFarm.sol\":11600:11610  msg.sender */\n      caller\n        /* \"contracts/TimbFarm.sol\":11569:11583  uint256 staked */\n      0x00\n        /* \"contracts/TimbFarm.sol\":11586:11611  stakedBalance[msg.sender] */\n      swap1\n      dup2\n      mstore\n        /* \"contracts/TimbFarm.sol\":11586:11599  stakedBalance */\n      0x08\n        /* \"contracts/TimbFarm.sol\":11586:11611  stakedBalance[msg.sender] */\n      0x20\n      swap1\n      dup2\n      mstore\n      0x40\n      dup1\n      dup4\n      keccak256\n      sload\n        /* \"contracts/TimbFarm.sol\":11638:11652  pendingRewards */\n      0x0a\n        /* \"contracts/TimbFarm.sol\":11638:11664  pendingRewards[msg.sender] */\n      swap1\n      swap3\n      mstore\n      swap1\n      swap2\n      keccak256\n      sload\n        /* \"contracts/TimbFarm.sol\":11679:11689  staked > 0 */\n      dup2\n      iszero\n        /* \"contracts/TimbFarm.sol\":11675:11894  if (staked > 0) {... */\n      tag_329\n      jumpi\n        /* \"contracts/TimbFarm.sol\":11719:11729  msg.sender */\n      caller\n        /* \"contracts/TimbFarm.sol\":11733:11734  0 */\n      0x00\n        /* \"contracts/TimbFarm.sol\":11705:11730  stakedBalance[msg.sender] */\n      swap1\n      dup2\n      mstore\n        /* \"contracts/TimbFarm.sol\":11705:11718  stakedBalance */\n      0x08\n        /* \"contracts/TimbFarm.sol\":11705:11730  stakedBalance[msg.sender] */\n      0x20\n      mstore\n      0x40\n      dup2\n      keccak256\n        /* \"contracts/TimbFarm.sol\":11705:11734  stakedBalance[msg.sender] = 0 */\n      dup2\n      swap1\n      sstore\n        /* \"contracts/TimbFarm.sol\":11748:11759  totalStaked */\n      0x07\n        /* \"contracts/TimbFarm.sol\":11748:11782  totalStaked              -= staked */\n      dup1\n      sload\n        /* \"contracts/TimbFarm.sol\":11776:11782  staked */\n      dup5\n      swap3\n        /* \"contracts/TimbFarm.sol\":11733:11734  0 */\n      swap1\n        /* \"contracts/TimbFarm.sol\":11748:11782  totalStaked              -= staked */\n      tag_330\n      swap1\n        /* \"contracts/TimbFarm.sol\":11776:11782  staked */\n      dup5\n      swap1\n        /* \"contracts/TimbFarm.sol\":11748:11782  totalStaked              -= staked */\n      tag_157\n      jump\t// in\n    tag_330:\n      swap1\n      swap2\n      sstore\n      pop\n      pop\n        /* \"contracts/TimbFarm.sol\":11796:11803  lpToken */\n      sload(0x01)\n        /* \"contracts/TimbFarm.sol\":11796:11836  lpToken.safeTransfer(msg.sender, staked) */\n      tag_331\n      swap1\n      sub(shl(0xa0, 0x01), 0x01)\n        /* \"contracts/TimbFarm.sol\":11796:11803  lpToken */\n      and\n        /* \"contracts/TimbFarm.sol\":11817:11827  msg.sender */\n      caller\n        /* \"contracts/TimbFarm.sol\":11829:11835  staked */\n      dup5\n        /* \"contracts/TimbFarm.sol\":11796:11816  lpToken.safeTransfer */\n      tag_216\n        /* \"contracts/TimbFarm.sol\":11796:11836  lpToken.safeTransfer(msg.sender, staked) */\n      jump\t// in\n    tag_331:\n        /* \"contracts/TimbFarm.sol\":11855:11883  Unstaked(msg.sender, staked) */\n      mload(0x40)\n        /* \"#utility.yul\":529:554   */\n      dup3\n      dup2\n      mstore\n        /* \"contracts/TimbFarm.sol\":11864:11874  msg.sender */\n      caller\n      swap1\n        /* \"contracts/TimbFarm.sol\":11855:11883  Unstaked(msg.sender, staked) */\n      0x0f5bb82176feb1b5e747e28471aa92156a04d9f3ab9f45f28e2d704232b93f75\n      swap1\n        /* \"#utility.yul\":517:519   */\n      0x20\n        /* \"#utility.yul\":502:520   */\n      add\n        /* \"contracts/TimbFarm.sol\":11855:11883  Unstaked(msg.sender, staked) */\n      mload(0x40)\n      dup1\n      swap2\n      sub\n      swap1\n      log2\n        /* \"contracts/TimbFarm.sol\":11675:11894  if (staked > 0) {... */\n    tag_329:\n        /* \"contracts/TimbFarm.sol\":11908:11918  reward > 0 */\n      dup1\n      iszero\n        /* \"contracts/TimbFarm.sol\":11904:12289  if (reward > 0) {... */\n      tag_333\n      jumpi\n        /* \"contracts/TimbFarm.sol\":11954:11989  timbsToken.balanceOf(address(this)) */\n      mload(0x40)\n      shl(0xe0, 0x70a08231)\n      dup2\n      mstore\n        /* \"contracts/TimbFarm.sol\":11983:11987  this */\n      address\n        /* \"contracts/TimbFarm.sol\":11954:11989  timbsToken.balanceOf(address(this)) */\n      0x04\n      dup3\n      add\n        /* \"#utility.yul\":725:776   */\n      mstore\n        /* \"contracts/TimbFarm.sol\":11934:11951  uint256 available */\n      0x00\n      swap1\n        /* \"contracts/TimbFarm.sol\":11954:11964  timbsToken */\n      immutable(\"0x962c584afcd4dd6cb0e25fef291e59a13b9ae1b34d13f25b13a34669b807535c\")\n      sub(shl(0xa0, 0x01), 0x01)\n        /* \"contracts/TimbFarm.sol\":11954:11974  timbsToken.balanceOf */\n      and\n      swap1\n      0x70a08231\n      swap1\n        /* \"#utility.yul\":698:716   */\n      0x24\n      add\n        /* \"contracts/TimbFarm.sol\":11954:11989  timbsToken.balanceOf(address(this)) */\n      0x20\n      mload(0x40)\n      dup1\n      dup4\n      sub\n      dup2\n      dup7\n      gas\n      staticcall\n      iszero\n      dup1\n      iszero\n      tag_336\n      jumpi\n      returndatasize\n      0x00\n      dup1\n      returndatacopy\n      revert(0x00, returndatasize)\n    tag_336:\n      pop\n      pop\n      pop\n      pop\n      mload(0x40)\n      returndatasize\n      not(0x1f)\n      0x1f\n      dup3\n      add\n      and\n      dup3\n      add\n      dup1\n      0x40\n      mstore\n      pop\n      dup2\n      add\n      swap1\n      tag_337\n      swap2\n      swap1\n      tag_234\n      jump\t// in\n    tag_337:\n        /* \"contracts/TimbFarm.sol\":11934:11989  uint256 available = timbsToken.balanceOf(address(this)) */\n      swap1\n      pop\n        /* \"contracts/TimbFarm.sol\":12017:12026  available */\n      dup1\n        /* \"contracts/TimbFarm.sol\":12007:12013  reward */\n      dup3\n        /* \"contracts/TimbFarm.sol\":12007:12026  reward <= available */\n      gt\n        /* \"contracts/TimbFarm.sol\":12003:12209  if (reward <= available) {... */\n      tag_338\n      jumpi\n        /* \"contracts/TimbFarm.sol\":12061:12071  msg.sender */\n      caller\n        /* \"contracts/TimbFarm.sol\":12075:12076  0 */\n      0x00\n        /* \"contracts/TimbFarm.sol\":12046:12072  pendingRewards[msg.sender] */\n      dup2\n      dup2\n      mstore\n        /* \"contracts/TimbFarm.sol\":12046:12060  pendingRewards */\n      0x0a\n        /* \"contracts/TimbFarm.sol\":12046:12072  pendingRewards[msg.sender] */\n      0x20\n      mstore\n      0x40\n      dup2\n      keccak256\n        /* \"contracts/TimbFarm.sol\":12046:12076  pendingRewards[msg.sender] = 0 */\n      sstore\n        /* \"contracts/TimbFarm.sol\":12094:12137  timbsToken.safeTransfer(msg.sender, reward) */\n      tag_339\n      swap1\n        /* \"contracts/TimbFarm.sol\":12094:12104  timbsToken */\n      immutable(\"0x962c584afcd4dd6cb0e25fef291e59a13b9ae1b34d13f25b13a34669b807535c\")\n      sub(shl(0xa0, 0x01), 0x01)\n        /* \"contracts/TimbFarm.sol\":12094:12117  timbsToken.safeTransfer */\n      and\n      swap1\n        /* \"contracts/TimbFarm.sol\":12130:12136  reward */\n      dup5\n        /* \"contracts/TimbFarm.sol\":12094:12117  timbsToken.safeTransfer */\n      tag_216\n        /* \"contracts/TimbFarm.sol\":12094:12137  timbsToken.safeTransfer(msg.sender, reward) */\n      jump\t// in\n    tag_339:\n        /* \"contracts/TimbFarm.sol\":12160:12194  RewardsClaimed(msg.sender, reward) */\n      mload(0x40)\n        /* \"#utility.yul\":529:554   */\n      dup3\n      dup2\n      mstore\n        /* \"contracts/TimbFarm.sol\":12175:12185  msg.sender */\n      caller\n      swap1\n        /* \"contracts/TimbFarm.sol\":12160:12194  RewardsClaimed(msg.sender, reward) */\n      0xfc30cddea38e2bf4d6ea7d3f9ed3b6ad7f176419f4963bd81318067a4aee73fe\n      swap1\n        /* \"#utility.yul\":517:519   */\n      0x20\n        /* \"#utility.yul\":502:520   */\n      add\n        /* \"contracts/TimbFarm.sol\":12160:12194  RewardsClaimed(msg.sender, reward) */\n      mload(0x40)\n      dup1\n      swap2\n      sub\n      swap1\n      log2\n        /* \"contracts/TimbFarm.sol\":12003:12209  if (reward <= available) {... */\n    tag_338:\n        /* \"contracts/TimbFarm.sol\":11920:12289  {... */\n      pop\n        /* \"contracts/TimbFarm.sol\":11904:12289  if (reward > 0) {... */\n    tag_333:\n        /* \"contracts/TimbFarm.sol\":11559:12295  {... */\n      pop\n      pop\n        /* \"contracts/TimbFarm.sol\":5671:5672  _ */\n      pop\n        /* \"@openzeppelin/contracts/utils/ReentrancyGuard.sol\":3065:3085  _nonReentrantAfter() */\n      tag_239\n        /* \"@openzeppelin/contracts/utils/ReentrancyGuard.sol\":2365:2366  1 */\n      0x01\n      0x00\n      dup1\n      mload\n      0x20\n      data_c8669cf8eaf883002b9f48e28846a8d408c9b58ea6613bace374265e43c9bc43\n      dup4\n      codecopy\n      dup2\n      mload\n      swap2\n      mstore\n        /* \"@openzeppelin/contracts/utils/ReentrancyGuard.sol\":3972:4034  _reentrancyGuardStorageSlot().getUint256Slot().value = ENTERED */\n      sstore\n        /* \"@openzeppelin/contracts/utils/ReentrancyGuard.sol\":3749:4041  function _nonReentrantBefore() private {... */\n      jump\n        /* \"contracts/TimbFarm.sol\":14751:15106  function setTreasury(address _treasury) external onlyOwner {... */\n    tag_147:\n        /* \"@openzeppelin/contracts/access/Ownable.sol\":1531:1544  _checkOwner() */\n      tag_343\n        /* \"@openzeppelin/contracts/access/Ownable.sol\":1531:1542  _checkOwner */\n      tag_194\n        /* \"@openzeppelin/contracts/access/Ownable.sol\":1531:1544  _checkOwner() */\n      jump\t// in\n    tag_343:\n      sub(shl(0xa0, 0x01), 0x01)\n        /* \"contracts/TimbFarm.sol\":14824:14847  _treasury == address(0) */\n      dup2\n      and\n        /* \"contracts/TimbFarm.sol\":14820:14869  if (_treasury == address(0)) revert ZeroAddress() */\n      tag_345\n      jumpi\n        /* \"contracts/TimbFarm.sol\":14856:14869  ZeroAddress() */\n      mload(0x40)\n      shl(0xe0, 0xd92e233d)\n      dup2\n      mstore\n      0x04\n      add\n      mload(0x40)\n      dup1\n      swap2\n      sub\n      swap1\n      revert\n        /* \"contracts/TimbFarm.sol\":14820:14869  if (_treasury == address(0)) revert ZeroAddress() */\n    tag_345:\n        /* \"contracts/TimbFarm.sol\":14883:14891  treasury */\n      and(sub(shl(0xa0, 0x01), 0x01), sload(0x02))\n        /* \"contracts/TimbFarm.sol\":14883:14905  treasury != address(0) */\n      iszero\n        /* \"contracts/TimbFarm.sol\":14879:14940  if (treasury != address(0)) rewardNotifiers[treasury] = false */\n      tag_346\n      jumpi\n        /* \"contracts/TimbFarm.sol\":14923:14931  treasury */\n      and(sub(shl(0xa0, 0x01), 0x01), sload(0x02))\n        /* \"contracts/TimbFarm.sol\":14935:14940  false */\n      0x00\n        /* \"contracts/TimbFarm.sol\":14907:14932  rewardNotifiers[treasury] */\n      swap1\n      dup2\n      mstore\n        /* \"contracts/TimbFarm.sol\":14907:14922  rewardNotifiers */\n      0x0b\n        /* \"contracts/TimbFarm.sol\":14907:14932  rewardNotifiers[treasury] */\n      0x20\n      mstore\n      0x40\n      swap1\n      keccak256\n        /* \"contracts/TimbFarm.sol\":14907:14940  rewardNotifiers[treasury] = false */\n      dup1\n      sload\n      not(0xff)\n      and\n      swap1\n      sstore\n        /* \"contracts/TimbFarm.sol\":14879:14940  if (treasury != address(0)) rewardNotifiers[treasury] = false */\n    tag_346:\n        /* \"contracts/TimbFarm.sol\":14950:14958  treasury */\n      0x02\n        /* \"contracts/TimbFarm.sol\":14950:14970  treasury = _treasury */\n      dup1\n      sload\n      not(sub(shl(0xa0, 0x01), 0x01))\n      and\n      sub(shl(0xa0, 0x01), 0x01)\n      dup4\n      and\n      swap1\n      dup2\n      or\n      swap1\n      swap2\n      sstore\n      0x00\n        /* \"contracts/TimbFarm.sol\":14980:15006  rewardNotifiers[_treasury] */\n      dup2\n      dup2\n      mstore\n        /* \"contracts/TimbFarm.sol\":14980:14995  rewardNotifiers */\n      0x0b\n        /* \"contracts/TimbFarm.sol\":14980:15006  rewardNotifiers[_treasury] */\n      0x20\n      mstore\n      0x40\n      dup1\n      dup3\n      keccak256\n        /* \"contracts/TimbFarm.sol\":14980:15013  rewardNotifiers[_treasury] = true */\n      dup1\n      sload\n      not(0xff)\n      and\n      0x01\n      or\n      swap1\n      sstore\n        /* \"contracts/TimbFarm.sol\":15028:15050  TreasurySet(_treasury) */\n      mload\n      0x3c864541ef71378c6229510ed90f376565ee42d9c5e0904a984a9e863e6db44f\n      swap2\n      swap1\n      log2\n        /* \"contracts/TimbFarm.sol\":15065:15099  RewardNotifierSet(_treasury, true) */\n      mload(0x40)\n        /* \"contracts/TimbFarm.sol\":15094:15098  true */\n      0x01\n        /* \"#utility.yul\":1717:1758   */\n      dup2\n      mstore\n      sub(shl(0xa0, 0x01), 0x01)\n        /* \"contracts/TimbFarm.sol\":15065:15099  RewardNotifierSet(_treasury, true) */\n      dup3\n      and\n      swap1\n      0xb33ca1dabfb28a2e1bd06b332c396b1a3d538278691341a5503bbad53f919197\n      swap1\n        /* \"#utility.yul\":1705:1707   */\n      0x20\n        /* \"#utility.yul\":1690:1708   */\n      add\n        /* \"contracts/TimbFarm.sol\":15065:15099  RewardNotifierSet(_treasury, true) */\n      mload(0x40)\n      dup1\n      swap2\n      sub\n      swap1\n      log2\n        /* \"contracts/TimbFarm.sol\":14751:15106  function setTreasury(address _treasury) external onlyOwner {... */\n      pop\n      jump\t// out\n        /* \"@openzeppelin/contracts/access/Ownable.sol\":2543:2758  function transferOwnership(address newOwner) public virtual onlyOwner {... */\n    tag_150:\n        /* \"@openzeppelin/contracts/access/Ownable.sol\":1531:1544  _checkOwner() */\n      tag_349\n        /* \"@openzeppelin/contracts/access/Ownable.sol\":1531:1542  _checkOwner */\n      tag_194\n        /* \"@openzeppelin/contracts/access/Ownable.sol\":1531:1544  _checkOwner() */\n      jump\t// in\n    tag_349:\n      sub(shl(0xa0, 0x01), 0x01)\n        /* \"@openzeppelin/contracts/access/Ownable.sol\":2627:2649  newOwner == address(0) */\n      dup2\n      and\n        /* \"@openzeppelin/contracts/access/Ownable.sol\":2623:2714  if (newOwner == address(0)) {... */\n      tag_351\n      jumpi\n        /* \"@openzeppelin/contracts/access/Ownable.sol\":2672:2703  OwnableInvalidOwner(address(0)) */\n      mload(0x40)\n      shl(0xe0, 0x1e4fbdf7)\n      dup2\n      mstore\n        /* \"@openzeppelin/contracts/access/Ownable.sol\":2700:2701  0 */\n      0x00\n        /* \"@openzeppelin/contracts/access/Ownable.sol\":2672:2703  OwnableInvalidOwner(address(0)) */\n      0x04\n      dup3\n      add\n        /* \"#utility.yul\":725:776   */\n      mstore\n        /* \"#utility.yul\":698:716   */\n      0x24\n      add\n        /* \"@openzeppelin/contracts/access/Ownable.sol\":2672:2703  OwnableInvalidOwner(address(0)) */\n      tag_212\n        /* \"#utility.yul\":565:782   */\n      jump\n        /* \"@openzeppelin/contracts/access/Ownable.sol\":2623:2714  if (newOwner == address(0)) {... */\n    tag_351:\n        /* \"@openzeppelin/contracts/access/Ownable.sol\":2723:2751  _transferOwnership(newOwner) */\n      tag_218\n        /* \"@openzeppelin/contracts/access/Ownable.sol\":2742:2750  newOwner */\n      dup2\n        /* \"@openzeppelin/contracts/access/Ownable.sol\":2723:2741  _transferOwnership */\n      tag_247\n        /* \"@openzeppelin/contracts/access/Ownable.sol\":2723:2751  _transferOwnership(newOwner) */\n      jump\t// in\n        /* \"contracts/TimbFarm.sol\":8099:8339  function estimatedEmissionsAPR() external view returns (uint256 aprBps) {... */\n    tag_152:\n        /* \"contracts/TimbFarm.sol\":8155:8169  uint256 aprBps */\n      0x00\n        /* \"contracts/TimbFarm.sol\":8185:8196  totalStaked */\n      sload(0x07)\n        /* \"contracts/TimbFarm.sol\":8200:8201  0 */\n      0x00\n        /* \"contracts/TimbFarm.sol\":8185:8201  totalStaked == 0 */\n      sub\n        /* \"contracts/TimbFarm.sol\":8181:8211  if (totalStaked == 0) return 0 */\n      tag_355\n      jumpi\n      pop\n        /* \"contracts/TimbFarm.sol\":8210:8211  0 */\n      0x00\n      swap1\n        /* \"contracts/TimbFarm.sol\":8099:8339  function estimatedEmissionsAPR() external view returns (uint256 aprBps) {... */\n      jump\t// out\n        /* \"contracts/TimbFarm.sol\":8181:8211  if (totalStaked == 0) return 0 */\n    tag_355:\n        /* \"contracts/TimbFarm.sol\":8221:8242  uint256 annualRewards */\n      0x00\n        /* \"contracts/TimbFarm.sol\":8245:8264  rewardRatePerSecond */\n      sload(0x03)\n        /* \"contracts/TimbFarm.sol\":8267:8275  365 days */\n      0x01e13380\n        /* \"contracts/TimbFarm.sol\":8245:8275  rewardRatePerSecond * 365 days */\n      tag_356\n      swap2\n      swap1\n      tag_159\n      jump\t// in\n    tag_356:\n        /* \"contracts/TimbFarm.sol\":8321:8332  totalStaked */\n      sload(0x07)\n        /* \"contracts/TimbFarm.sol\":8221:8275  uint256 annualRewards = rewardRatePerSecond * 365 days */\n      swap1\n      swap2\n      pop\n        /* \"contracts/TimbFarm.sol\":8295:8317  annualRewards * 10_000 */\n      tag_357\n        /* \"contracts/TimbFarm.sol\":8221:8275  uint256 annualRewards = rewardRatePerSecond * 365 days */\n      dup3\n        /* \"contracts/TimbFarm.sol\":8311:8317  10_000 */\n      0x2710\n        /* \"contracts/TimbFarm.sol\":8295:8317  annualRewards * 10_000 */\n      tag_159\n      jump\t// in\n    tag_357:\n        /* \"contracts/TimbFarm.sol\":8294:8332  (annualRewards * 10_000) / totalStaked */\n      tag_358\n      swap2\n      swap1\n      tag_161\n      jump\t// in\n    tag_358:\n        /* \"contracts/TimbFarm.sol\":8285:8332  aprBps = (annualRewards * 10_000) / totalStaked */\n      swap2\n      pop\n        /* \"contracts/TimbFarm.sol\":8171:8339  {... */\n      pop\n        /* \"contracts/TimbFarm.sol\":8099:8339  function estimatedEmissionsAPR() external view returns (uint256 aprBps) {... */\n      swap1\n      jump\t// out\n        /* \"@openzeppelin/contracts/utils/ReentrancyGuard.sol\":3749:4041  function _nonReentrantBefore() private {... */\n    tag_166:\n        /* \"@openzeppelin/contracts/utils/ReentrancyGuard.sol\":3872:3897  _nonReentrantBeforeView() */\n      tag_360\n        /* \"@openzeppelin/contracts/utils/ReentrancyGuard.sol\":3872:3895  _nonReentrantBeforeView */\n      tag_361\n        /* \"@openzeppelin/contracts/utils/ReentrancyGuard.sol\":3872:3897  _nonReentrantBeforeView() */\n      jump\t// in\n    tag_360:\n        /* \"@openzeppelin/contracts/utils/ReentrancyGuard.sol\":2407:2408  2 */\n      0x02\n      0x00\n      dup1\n      mload\n      0x20\n      data_c8669cf8eaf883002b9f48e28846a8d408c9b58ea6613bace374265e43c9bc43\n      dup4\n      codecopy\n      dup2\n      mload\n      swap2\n      mstore\n        /* \"@openzeppelin/contracts/utils/ReentrancyGuard.sol\":3972:4034  _reentrancyGuardStorageSlot().getUint256Slot().value = ENTERED */\n      sstore\n        /* \"@openzeppelin/contracts/utils/ReentrancyGuard.sol\":3749:4041  function _nonReentrantBefore() private {... */\n      jump\t// out\n        /* \"@openzeppelin/contracts/token/ERC20/utils/SafeERC20.sol\":1662:1894  function safeTransferFrom(IERC20 token, address from, address to, uint256 value) internal {... */\n    tag_179:\n        /* \"@openzeppelin/contracts/token/ERC20/utils/SafeERC20.sol\":1767:1814  _safeTransferFrom(token, from, to, value, true) */\n      tag_367\n        /* \"@openzeppelin/contracts/token/ERC20/utils/SafeERC20.sol\":1785:1790  token */\n      dup5\n        /* \"@openzeppelin/contracts/token/ERC20/utils/SafeERC20.sol\":1792:1796  from */\n      dup5\n        /* \"@openzeppelin/contracts/token/ERC20/utils/SafeERC20.sol\":1798:1800  to */\n      dup5\n        /* \"@openzeppelin/contracts/token/ERC20/utils/SafeERC20.sol\":1802:1807  value */\n      dup5\n        /* \"@openzeppelin/contracts/token/ERC20/utils/SafeERC20.sol\":1809:1813  true */\n      0x01\n        /* \"@openzeppelin/contracts/token/ERC20/utils/SafeERC20.sol\":1767:1784  _safeTransferFrom */\n      tag_368\n        /* \"@openzeppelin/contracts/token/ERC20/utils/SafeERC20.sol\":1767:1814  _safeTransferFrom(token, from, to, value, true) */\n      jump\t// in\n    tag_367:\n        /* \"@openzeppelin/contracts/token/ERC20/utils/SafeERC20.sol\":1762:1888  if (!_safeTransferFrom(token, from, to, value, true)) {... */\n      tag_369\n      jumpi\n        /* \"@openzeppelin/contracts/token/ERC20/utils/SafeERC20.sol\":1837:1877  SafeERC20FailedOperation(address(token)) */\n      mload(0x40)\n      shl(0xe0, 0x5274afe7)\n      dup2\n      mstore\n      sub(shl(0xa0, 0x01), 0x01)\n        /* \"#utility.yul\":743:775   */\n      dup6\n      and\n        /* \"@openzeppelin/contracts/token/ERC20/utils/SafeERC20.sol\":1837:1877  SafeERC20FailedOperation(address(token)) */\n      0x04\n      dup3\n      add\n        /* \"#utility.yul\":725:776   */\n      mstore\n        /* \"#utility.yul\":698:716   */\n      0x24\n      add\n        /* \"@openzeppelin/contracts/token/ERC20/utils/SafeERC20.sol\":1837:1877  SafeERC20FailedOperation(address(token)) */\n      tag_212\n        /* \"#utility.yul\":565:782   */\n      jump\n        /* \"@openzeppelin/contracts/token/ERC20/utils/SafeERC20.sol\":1762:1888  if (!_safeTransferFrom(token, from, to, value, true)) {... */\n    tag_369:\n        /* \"@openzeppelin/contracts/token/ERC20/utils/SafeERC20.sol\":1662:1894  function safeTransferFrom(IERC20 token, address from, address to, uint256 value) internal {... */\n      pop\n      pop\n      pop\n      pop\n      jump\t// out\n        /* \"@openzeppelin/contracts/access/Ownable.sol\":1796:1958  function _checkOwner() internal view virtual {... */\n    tag_194:\n        /* \"@openzeppelin/contracts/access/Ownable.sol\":1684:1691  address */\n      0x00\n        /* \"@openzeppelin/contracts/access/Ownable.sol\":1710:1716  _owner */\n      sload\n      sub(shl(0xa0, 0x01), 0x01)\n      and\n        /* \"@openzeppelin/contracts/utils/Context.sol\":735:745  msg.sender */\n      caller\n        /* \"@openzeppelin/contracts/access/Ownable.sol\":1855:1878  owner() != _msgSender() */\n      eq\n        /* \"@openzeppelin/contracts/access/Ownable.sol\":1851:1952  if (owner() != _msgSender()) {... */\n      tag_239\n      jumpi\n        /* \"@openzeppelin/contracts/access/Ownable.sol\":1901:1941  OwnableUnauthorizedAccount(_msgSender()) */\n      mload(0x40)\n      shl(0xe0, 0x118cdaa7)\n      dup2\n      mstore\n        /* \"@openzeppelin/contracts/utils/Context.sol\":735:745  msg.sender */\n      caller\n        /* \"@openzeppelin/contracts/access/Ownable.sol\":1901:1941  OwnableUnauthorizedAccount(_msgSender()) */\n      0x04\n      dup3\n      add\n        /* \"#utility.yul\":725:776   */\n      mstore\n        /* \"#utility.yul\":698:716   */\n      0x24\n      add\n        /* \"@openzeppelin/contracts/access/Ownable.sol\":1901:1941  OwnableUnauthorizedAccount(_msgSender()) */\n      tag_212\n        /* \"#utility.yul\":565:782   */\n      jump\n        /* \"@openzeppelin/contracts/token/ERC20/utils/SafeERC20.sol\":1219:1423  function safeTransfer(IERC20 token, address to, uint256 value) internal {... */\n    tag_216:\n        /* \"@openzeppelin/contracts/token/ERC20/utils/SafeERC20.sol\":1306:1343  _safeTransfer(token, to, value, true) */\n      tag_382\n        /* \"@openzeppelin/contracts/token/ERC20/utils/SafeERC20.sol\":1320:1325  token */\n      dup4\n        /* \"@openzeppelin/contracts/token/ERC20/utils/SafeERC20.sol\":1327:1329  to */\n      dup4\n        /* \"@openzeppelin/contracts/token/ERC20/utils/SafeERC20.sol\":1331:1336  value */\n      dup4\n        /* \"@openzeppelin/contracts/token/ERC20/utils/SafeERC20.sol\":1338:1342  true */\n      0x01\n        /* \"@openzeppelin/contracts/token/ERC20/utils/SafeERC20.sol\":1306:1319  _safeTransfer */\n      tag_383\n        /* \"@openzeppelin/contracts/token/ERC20/utils/SafeERC20.sol\":1306:1343  _safeTransfer(token, to, value, true) */\n      jump\t// in\n    tag_382:\n        /* \"@openzeppelin/contracts/token/ERC20/utils/SafeERC20.sol\":1301:1417  if (!_safeTransfer(token, to, value, true)) {... */\n      tag_384\n      jumpi\n        /* \"@openzeppelin/contracts/token/ERC20/utils/SafeERC20.sol\":1366:1406  SafeERC20FailedOperation(address(token)) */\n      mload(0x40)\n      shl(0xe0, 0x5274afe7)\n      dup2\n      mstore\n      sub(shl(0xa0, 0x01), 0x01)\n        /* \"#utility.yul\":743:775   */\n      dup5\n      and\n        /* \"@openzeppelin/contracts/token/ERC20/utils/SafeERC20.sol\":1366:1406  SafeERC20FailedOperation(address(token)) */\n      0x04\n      dup3\n      add\n        /* \"#utility.yul\":725:776   */\n      mstore\n        /* \"#utility.yul\":698:716   */\n      0x24\n      add\n        /* \"@openzeppelin/contracts/token/ERC20/utils/SafeERC20.sol\":1366:1406  SafeERC20FailedOperation(address(token)) */\n      tag_212\n        /* \"#utility.yul\":565:782   */\n      jump\n        /* \"@openzeppelin/contracts/token/ERC20/utils/SafeERC20.sol\":1301:1417  if (!_safeTransfer(token, to, value, true)) {... */\n    tag_384:\n        /* \"@openzeppelin/contracts/token/ERC20/utils/SafeERC20.sol\":1219:1423  function safeTransfer(IERC20 token, address to, uint256 value) internal {... */\n      pop\n      pop\n      pop\n      jump\t// out\n        /* \"@openzeppelin/contracts/access/Ownable.sol\":2912:3099  function _transferOwnership(address newOwner) internal virtual {... */\n    tag_247:\n        /* \"@openzeppelin/contracts/access/Ownable.sol\":2985:3001  address oldOwner */\n      0x00\n        /* \"@openzeppelin/contracts/access/Ownable.sol\":3004:3010  _owner */\n      dup1\n      sload\n      sub(shl(0xa0, 0x01), 0x01)\n        /* \"@openzeppelin/contracts/access/Ownable.sol\":3020:3037  _owner = newOwner */\n      dup4\n      dup2\n      and\n      not(sub(shl(0xa0, 0x01), 0x01))\n      dup4\n      and\n      dup2\n      or\n      dup5\n      sstore\n        /* \"@openzeppelin/contracts/access/Ownable.sol\":3052:3092  OwnershipTransferred(oldOwner, newOwner) */\n      mload(0x40)\n        /* \"@openzeppelin/contracts/access/Ownable.sol\":3004:3010  _owner */\n      swap2\n      swap1\n      swap3\n      and\n      swap3\n      dup4\n      swap2\n        /* \"@openzeppelin/contracts/access/Ownable.sol\":3052:3092  OwnershipTransferred(oldOwner, newOwner) */\n      0x8be0079c531659141344cd1fd0a4f28419497f9722a3daafe3b4186f6b6457e0\n      swap2\n        /* \"@openzeppelin/contracts/access/Ownable.sol\":2985:3001  address oldOwner */\n      swap1\n        /* \"@openzeppelin/contracts/access/Ownable.sol\":3052:3092  OwnershipTransferred(oldOwner, newOwner) */\n      log3\n        /* \"@openzeppelin/contracts/access/Ownable.sol\":2975:3099  {... */\n      pop\n        /* \"@openzeppelin/contracts/access/Ownable.sol\":2912:3099  function _transferOwnership(address newOwner) internal virtual {... */\n      pop\n      jump\t// out\n        /* \"@openzeppelin/contracts/utils/ReentrancyGuard.sol\":3586:3743  function _nonReentrantBeforeView() private view {... */\n    tag_361:\n      0x00\n      dup1\n      mload\n      0x20\n      data_c8669cf8eaf883002b9f48e28846a8d408c9b58ea6613bace374265e43c9bc43\n      dup4\n      codecopy\n      dup2\n      mload\n      swap2\n      mstore\n        /* \"@openzeppelin/contracts/utils/ReentrancyGuard.sol\":4560:4612  _reentrancyGuardStorageSlot().getUint256Slot().value */\n      sload\n        /* \"@openzeppelin/contracts/utils/ReentrancyGuard.sol\":2407:2408  2 */\n      0x02\n        /* \"@openzeppelin/contracts/utils/ReentrancyGuard.sol\":4560:4623  _reentrancyGuardStorageSlot().getUint256Slot().value == ENTERED */\n      sub\n        /* \"@openzeppelin/contracts/utils/ReentrancyGuard.sol\":3644:3737  if (_reentrancyGuardEntered()) {... */\n      tag_239\n      jumpi\n        /* \"@openzeppelin/contracts/utils/ReentrancyGuard.sol\":3696:3726  ReentrancyGuardReentrantCall() */\n      mload(0x40)\n      shl(0xe0, 0x3ee5aeb5)\n      dup2\n      mstore\n      0x04\n      add\n      mload(0x40)\n      dup1\n      swap2\n      sub\n      swap1\n      revert\n        /* \"@openzeppelin/contracts/token/ERC20/utils/SafeERC20.sol\":10165:11558  function _safeTransferFrom(... */\n    tag_368:\n        /* \"@openzeppelin/contracts/token/ERC20/utils/SafeERC20.sol\":10460:10464  0x40 */\n      0x40\n        /* \"@openzeppelin/contracts/token/ERC20/utils/SafeERC20.sol\":10454:10465  mload(0x40) */\n      mload\n      shl(0xe0, 0x23b872dd)\n        /* \"@openzeppelin/contracts/token/ERC20/utils/SafeERC20.sol\":10323:10335  bool success */\n      0x00\n        /* \"@openzeppelin/contracts/token/ERC20/utils/SafeERC20.sol\":10478:10500  mstore(0x00, selector) */\n      dup2\n      dup2\n      mstore\n      sub(shl(0xa0, 0x01), 0x01)\n        /* \"@openzeppelin/contracts/token/ERC20/utils/SafeERC20.sol\":10526:10552  and(from, shr(96, not(0))) */\n      dup8\n      dup2\n      and\n        /* \"@openzeppelin/contracts/token/ERC20/utils/SafeERC20.sol\":10520:10524  0x04 */\n      0x04\n        /* \"@openzeppelin/contracts/token/ERC20/utils/SafeERC20.sol\":10513:10553  mstore(0x04, and(from, shr(96, not(0)))) */\n      mstore\n        /* \"@openzeppelin/contracts/token/ERC20/utils/SafeERC20.sol\":10579:10603  and(to, shr(96, not(0))) */\n      dup7\n      and\n        /* \"@openzeppelin/contracts/token/ERC20/utils/SafeERC20.sol\":10573:10577  0x24 */\n      0x24\n        /* \"@openzeppelin/contracts/token/ERC20/utils/SafeERC20.sol\":10566:10604  mstore(0x24, and(to, shr(96, not(0)))) */\n      mstore\n        /* \"@openzeppelin/contracts/token/ERC20/utils/SafeERC20.sol\":10624:10628  0x44 */\n      0x44\n        /* \"@openzeppelin/contracts/token/ERC20/utils/SafeERC20.sol\":10617:10636  mstore(0x44, value) */\n      dup6\n      swap1\n      mstore\n        /* \"@openzeppelin/contracts/token/ERC20/utils/SafeERC20.sol\":10323:10335  bool success */\n      swap2\n        /* \"@openzeppelin/contracts/token/ERC20/utils/SafeERC20.sol\":10700:10704  0x20 */\n      0x20\n        /* \"@openzeppelin/contracts/token/ERC20/utils/SafeERC20.sol\":10323:10335  bool success */\n      dup4\n        /* \"@openzeppelin/contracts/token/ERC20/utils/SafeERC20.sol\":10688:10692  0x64 */\n      0x64\n        /* \"@openzeppelin/contracts/token/ERC20/utils/SafeERC20.sol\":10323:10335  bool success */\n      dup2\n      dup1\n        /* \"@openzeppelin/contracts/token/ERC20/utils/SafeERC20.sol\":10672:10677  token */\n      dup13\n        /* \"@openzeppelin/contracts/token/ERC20/utils/SafeERC20.sol\":10665:10670  gas() */\n      gas\n        /* \"@openzeppelin/contracts/token/ERC20/utils/SafeERC20.sol\":10660:10705  call(gas(), token, 0, 0x00, 0x64, 0x00, 0x20) */\n      call\n        /* \"@openzeppelin/contracts/token/ERC20/utils/SafeERC20.sol\":10649:10705  success := call(gas(), token, 0, 0x00, 0x64, 0x00, 0x20) */\n      swap3\n      pop\n        /* \"@openzeppelin/contracts/token/ERC20/utils/SafeERC20.sol\":10917:10918  1 */\n      0x01\n        /* \"@openzeppelin/contracts/token/ERC20/utils/SafeERC20.sol\":10910:10914  0x00 */\n      0x00\n        /* \"@openzeppelin/contracts/token/ERC20/utils/SafeERC20.sol\":10904:10915  mload(0x00) */\n      mload\n        /* \"@openzeppelin/contracts/token/ERC20/utils/SafeERC20.sol\":10901:10919  eq(mload(0x00), 1) */\n      eq\n        /* \"@openzeppelin/contracts/token/ERC20/utils/SafeERC20.sol\":10892:10899  success */\n      dup4\n        /* \"@openzeppelin/contracts/token/ERC20/utils/SafeERC20.sol\":10888:10920  and(success, eq(mload(0x00), 1)) */\n      and\n        /* \"@openzeppelin/contracts/token/ERC20/utils/SafeERC20.sol\":10878:11484  if iszero(and(success, eq(mload(0x00), 1))) {... */\n      tag_394\n      jumpi\n        /* \"@openzeppelin/contracts/token/ERC20/utils/SafeERC20.sol\":11049:11055  bubble */\n      dup4\n        /* \"@openzeppelin/contracts/token/ERC20/utils/SafeERC20.sol\":11039:11046  success */\n      dup4\n        /* \"@openzeppelin/contracts/token/ERC20/utils/SafeERC20.sol\":11032:11047  iszero(success) */\n      iszero\n        /* \"@openzeppelin/contracts/token/ERC20/utils/SafeERC20.sol\":11028:11056  and(iszero(success), bubble) */\n      and\n        /* \"@openzeppelin/contracts/token/ERC20/utils/SafeERC20.sol\":11025:11190  if and(iszero(success), bubble) {... */\n      iszero\n      tag_395\n      jumpi\n        /* \"@openzeppelin/contracts/token/ERC20/utils/SafeERC20.sol\":11105:11121  returndatasize() */\n      returndatasize\n        /* \"@openzeppelin/contracts/token/ERC20/utils/SafeERC20.sol\":11099:11103  0x00 */\n      0x00\n        /* \"@openzeppelin/contracts/token/ERC20/utils/SafeERC20.sol\":11094:11097  fmp */\n      dup3\n        /* \"@openzeppelin/contracts/token/ERC20/utils/SafeERC20.sol\":11079:11122  returndatacopy(fmp, 0x00, returndatasize()) */\n      returndatacopy\n        /* \"@openzeppelin/contracts/token/ERC20/utils/SafeERC20.sol\":11155:11171  returndatasize() */\n      returndatasize\n        /* \"@openzeppelin/contracts/token/ERC20/utils/SafeERC20.sol\":11150:11153  fmp */\n      dup2\n        /* \"@openzeppelin/contracts/token/ERC20/utils/SafeERC20.sol\":11143:11172  revert(fmp, returndatasize()) */\n      revert\n        /* \"@openzeppelin/contracts/token/ERC20/utils/SafeERC20.sol\":11025:11190  if and(iszero(success), bubble) {... */\n    tag_395:\n        /* \"@openzeppelin/contracts/token/ERC20/utils/SafeERC20.sol\":11466:11467  0 */\n      0x00\n        /* \"@openzeppelin/contracts/token/ERC20/utils/SafeERC20.sol\":11458:11463  token */\n      dup9\n        /* \"@openzeppelin/contracts/token/ERC20/utils/SafeERC20.sol\":11446:11464  extcodesize(token) */\n      extcodesize\n        /* \"@openzeppelin/contracts/token/ERC20/utils/SafeERC20.sol\":11443:11468  gt(extcodesize(token), 0) */\n      gt\n        /* \"@openzeppelin/contracts/token/ERC20/utils/SafeERC20.sol\":11424:11440  returndatasize() */\n      returndatasize\n        /* \"@openzeppelin/contracts/token/ERC20/utils/SafeERC20.sol\":11417:11441  iszero(returndatasize()) */\n      iszero\n        /* \"@openzeppelin/contracts/token/ERC20/utils/SafeERC20.sol\":11413:11469  and(iszero(returndatasize()), gt(extcodesize(token), 0)) */\n      and\n        /* \"@openzeppelin/contracts/token/ERC20/utils/SafeERC20.sol\":11404:11411  success */\n      dup4\n        /* \"@openzeppelin/contracts/token/ERC20/utils/SafeERC20.sol\":11400:11470  and(success, and(iszero(returndatasize()), gt(extcodesize(token), 0))) */\n      and\n        /* \"@openzeppelin/contracts/token/ERC20/utils/SafeERC20.sol\":11389:11470  success := and(success, and(iszero(returndatasize()), gt(extcodesize(token), 0))) */\n      swap3\n      pop\n        /* \"@openzeppelin/contracts/token/ERC20/utils/SafeERC20.sol\":10878:11484  if iszero(and(success, eq(mload(0x00), 1))) {... */\n    tag_394:\n        /* \"@openzeppelin/contracts/token/ERC20/utils/SafeERC20.sol\":11504:11508  0x40 */\n      0x40\n        /* \"@openzeppelin/contracts/token/ERC20/utils/SafeERC20.sol\":11497:11514  mstore(0x40, fmp) */\n      mstore\n      pop\n        /* \"@openzeppelin/contracts/token/ERC20/utils/SafeERC20.sol\":11540:11541  0 */\n      0x00\n        /* \"@openzeppelin/contracts/token/ERC20/utils/SafeERC20.sol\":11534:11538  0x60 */\n      0x60\n        /* \"@openzeppelin/contracts/token/ERC20/utils/SafeERC20.sol\":11527:11542  mstore(0x60, 0) */\n      mstore\n        /* \"@openzeppelin/contracts/token/ERC20/utils/SafeERC20.sol\":10165:11558  function _safeTransferFrom(... */\n      swap6\n      swap5\n      pop\n      pop\n      pop\n      pop\n      pop\n      jump\t// out\n        /* \"@openzeppelin/contracts/token/ERC20/utils/SafeERC20.sol\":8373:9617  function _safeTransfer(IERC20 token, address to, uint256 value, bool bubble) private returns (bool success) {... */\n    tag_383:\n        /* \"@openzeppelin/contracts/token/ERC20/utils/SafeERC20.sol\":8600:8604  0x40 */\n      0x40\n        /* \"@openzeppelin/contracts/token/ERC20/utils/SafeERC20.sol\":8594:8605  mload(0x40) */\n      mload\n      shl(0xe0, 0xa9059cbb)\n        /* \"@openzeppelin/contracts/token/ERC20/utils/SafeERC20.sol\":8467:8479  bool success */\n      0x00\n        /* \"@openzeppelin/contracts/token/ERC20/utils/SafeERC20.sol\":8618:8640  mstore(0x00, selector) */\n      dup2\n      dup2\n      mstore\n      sub(shl(0xa0, 0x01), 0x01)\n        /* \"@openzeppelin/contracts/token/ERC20/utils/SafeERC20.sol\":8666:8690  and(to, shr(96, not(0))) */\n      dup7\n      and\n        /* \"@openzeppelin/contracts/token/ERC20/utils/SafeERC20.sol\":8660:8664  0x04 */\n      0x04\n        /* \"@openzeppelin/contracts/token/ERC20/utils/SafeERC20.sol\":8653:8691  mstore(0x04, and(to, shr(96, not(0)))) */\n      mstore\n        /* \"@openzeppelin/contracts/token/ERC20/utils/SafeERC20.sol\":8711:8715  0x24 */\n      0x24\n        /* \"@openzeppelin/contracts/token/ERC20/utils/SafeERC20.sol\":8704:8723  mstore(0x24, value) */\n      dup6\n      swap1\n      mstore\n        /* \"@openzeppelin/contracts/token/ERC20/utils/SafeERC20.sol\":8467:8479  bool success */\n      swap2\n        /* \"@openzeppelin/contracts/token/ERC20/utils/SafeERC20.sol\":8787:8791  0x20 */\n      0x20\n        /* \"@openzeppelin/contracts/token/ERC20/utils/SafeERC20.sol\":8467:8479  bool success */\n      dup4\n        /* \"@openzeppelin/contracts/token/ERC20/utils/SafeERC20.sol\":8775:8779  0x44 */\n      0x44\n        /* \"@openzeppelin/contracts/token/ERC20/utils/SafeERC20.sol\":8467:8479  bool success */\n      dup2\n      dup1\n        /* \"@openzeppelin/contracts/token/ERC20/utils/SafeERC20.sol\":8759:8764  token */\n      dup12\n        /* \"@openzeppelin/contracts/token/ERC20/utils/SafeERC20.sol\":8752:8757  gas() */\n      gas\n        /* \"@openzeppelin/contracts/token/ERC20/utils/SafeERC20.sol\":8747:8792  call(gas(), token, 0, 0x00, 0x44, 0x00, 0x20) */\n      call\n        /* \"@openzeppelin/contracts/token/ERC20/utils/SafeERC20.sol\":8736:8792  success := call(gas(), token, 0, 0x00, 0x44, 0x00, 0x20) */\n      swap3\n      pop\n        /* \"@openzeppelin/contracts/token/ERC20/utils/SafeERC20.sol\":9004:9005  1 */\n      0x01\n        /* \"@openzeppelin/contracts/token/ERC20/utils/SafeERC20.sol\":8997:9001  0x00 */\n      0x00\n        /* \"@openzeppelin/contracts/token/ERC20/utils/SafeERC20.sol\":8991:9002  mload(0x00) */\n      mload\n        /* \"@openzeppelin/contracts/token/ERC20/utils/SafeERC20.sol\":8988:9006  eq(mload(0x00), 1) */\n      eq\n        /* \"@openzeppelin/contracts/token/ERC20/utils/SafeERC20.sol\":8979:8986  success */\n      dup4\n        /* \"@openzeppelin/contracts/token/ERC20/utils/SafeERC20.sol\":8975:9007  and(success, eq(mload(0x00), 1)) */\n      and\n        /* \"@openzeppelin/contracts/token/ERC20/utils/SafeERC20.sol\":8965:9571  if iszero(and(success, eq(mload(0x00), 1))) {... */\n      tag_398\n      jumpi\n        /* \"@openzeppelin/contracts/token/ERC20/utils/SafeERC20.sol\":9136:9142  bubble */\n      dup4\n        /* \"@openzeppelin/contracts/token/ERC20/utils/SafeERC20.sol\":9126:9133  success */\n      dup4\n        /* \"@openzeppelin/contracts/token/ERC20/utils/SafeERC20.sol\":9119:9134  iszero(success) */\n      iszero\n        /* \"@openzeppelin/contracts/token/ERC20/utils/SafeERC20.sol\":9115:9143  and(iszero(success), bubble) */\n      and\n        /* \"@openzeppelin/contracts/token/ERC20/utils/SafeERC20.sol\":9112:9277  if and(iszero(success), bubble) {... */\n      iszero\n      tag_399\n      jumpi\n        /* \"@openzeppelin/contracts/token/ERC20/utils/SafeERC20.sol\":9192:9208  returndatasize() */\n      returndatasize\n        /* \"@openzeppelin/contracts/token/ERC20/utils/SafeERC20.sol\":9186:9190  0x00 */\n      0x00\n        /* \"@openzeppelin/contracts/token/ERC20/utils/SafeERC20.sol\":9181:9184  fmp */\n      dup3\n        /* \"@openzeppelin/contracts/token/ERC20/utils/SafeERC20.sol\":9166:9209  returndatacopy(fmp, 0x00, returndatasize()) */\n      returndatacopy\n        /* \"@openzeppelin/contracts/token/ERC20/utils/SafeERC20.sol\":9242:9258  returndatasize() */\n      returndatasize\n        /* \"@openzeppelin/contracts/token/ERC20/utils/SafeERC20.sol\":9237:9240  fmp */\n      dup2\n        /* \"@openzeppelin/contracts/token/ERC20/utils/SafeERC20.sol\":9230:9259  revert(fmp, returndatasize()) */\n      revert\n        /* \"@openzeppelin/contracts/token/ERC20/utils/SafeERC20.sol\":9112:9277  if and(iszero(success), bubble) {... */\n    tag_399:\n        /* \"@openzeppelin/contracts/token/ERC20/utils/SafeERC20.sol\":9553:9554  0 */\n      0x00\n        /* \"@openzeppelin/contracts/token/ERC20/utils/SafeERC20.sol\":9545:9550  token */\n      dup8\n        /* \"@openzeppelin/contracts/token/ERC20/utils/SafeERC20.sol\":9533:9551  extcodesize(token) */\n      extcodesize\n        /* \"@openzeppelin/contracts/token/ERC20/utils/SafeERC20.sol\":9530:9555  gt(extcodesize(token), 0) */\n      gt\n        /* \"@openzeppelin/contracts/token/ERC20/utils/SafeERC20.sol\":9511:9527  returndatasize() */\n      returndatasize\n        /* \"@openzeppelin/contracts/token/ERC20/utils/SafeERC20.sol\":9504:9528  iszero(returndatasize()) */\n      iszero\n        /* \"@openzeppelin/contracts/token/ERC20/utils/SafeERC20.sol\":9500:9556  and(iszero(returndatasize()), gt(extcodesize(token), 0)) */\n      and\n        /* \"@openzeppelin/contracts/token/ERC20/utils/SafeERC20.sol\":9491:9498  success */\n      dup4\n        /* \"@openzeppelin/contracts/token/ERC20/utils/SafeERC20.sol\":9487:9557  and(success, and(iszero(returndatasize()), gt(extcodesize(token), 0))) */\n      and\n        /* \"@openzeppelin/contracts/token/ERC20/utils/SafeERC20.sol\":9476:9557  success := and(success, and(iszero(returndatasize()), gt(extcodesize(token), 0))) */\n      swap3\n      pop\n        /* \"@openzeppelin/contracts/token/ERC20/utils/SafeERC20.sol\":8965:9571  if iszero(and(success, eq(mload(0x00), 1))) {... */\n    tag_398:\n        /* \"@openzeppelin/contracts/token/ERC20/utils/SafeERC20.sol\":9591:9595  0x40 */\n      0x40\n        /* \"@openzeppelin/contracts/token/ERC20/utils/SafeERC20.sol\":9584:9601  mstore(0x40, fmp) */\n      mstore\n      pop\n        /* \"@openzeppelin/contracts/token/ERC20/utils/SafeERC20.sol\":8373:9617  function _safeTransfer(IERC20 token, address to, uint256 value, bool bubble) private returns (bool success) {... */\n      swap5\n      swap4\n      pop\n      pop\n      pop\n      pop\n      jump\t// out\n        /* \"#utility.yul\":14:187   */\n    tag_403:\n        /* \"#utility.yul\":82:102   */\n      dup1\n      calldataload\n      sub(shl(0xa0, 0x01), 0x01)\n        /* \"#utility.yul\":131:162   */\n      dup2\n      and\n        /* \"#utility.yul\":121:163   */\n      dup2\n      eq\n        /* \"#utility.yul\":111:181   */\n      tag_407\n      jumpi\n        /* \"#utility.yul\":177:178   */\n      0x00\n        /* \"#utility.yul\":174:175   */\n      dup1\n        /* \"#utility.yul\":167:179   */\n      revert\n        /* \"#utility.yul\":111:181   */\n    tag_407:\n        /* \"#utility.yul\":14:187   */\n      swap2\n      swap1\n      pop\n      jump\t// out\n        /* \"#utility.yul\":192:378   */\n    tag_46:\n        /* \"#utility.yul\":251:257   */\n      0x00\n        /* \"#utility.yul\":304:306   */\n      0x20\n        /* \"#utility.yul\":292:301   */\n      dup3\n        /* \"#utility.yul\":283:290   */\n      dup5\n        /* \"#utility.yul\":279:302   */\n      sub\n        /* \"#utility.yul\":275:307   */\n      slt\n        /* \"#utility.yul\":272:324   */\n      iszero\n      tag_409\n      jumpi\n        /* \"#utility.yul\":320:321   */\n      0x00\n        /* \"#utility.yul\":317:318   */\n      dup1\n        /* \"#utility.yul\":310:322   */\n      revert\n        /* \"#utility.yul\":272:324   */\n    tag_409:\n        /* \"#utility.yul\":343:372   */\n      tag_410\n        /* \"#utility.yul\":362:371   */\n      dup3\n        /* \"#utility.yul\":343:372   */\n      tag_403\n      jump\t// in\n    tag_410:\n        /* \"#utility.yul\":333:372   */\n      swap4\n        /* \"#utility.yul\":192:378   */\n      swap3\n      pop\n      pop\n      pop\n      jump\t// out\n        /* \"#utility.yul\":787:1035   */\n    tag_56:\n        /* \"#utility.yul\":855:861   */\n      0x00\n        /* \"#utility.yul\":863:869   */\n      dup1\n        /* \"#utility.yul\":916:918   */\n      0x40\n        /* \"#utility.yul\":904:913   */\n      dup4\n        /* \"#utility.yul\":895:902   */\n      dup6\n        /* \"#utility.yul\":891:914   */\n      sub\n        /* \"#utility.yul\":887:919   */\n      slt\n        /* \"#utility.yul\":884:936   */\n      iszero\n      tag_414\n      jumpi\n        /* \"#utility.yul\":932:933   */\n      0x00\n        /* \"#utility.yul\":929:930   */\n      dup1\n        /* \"#utility.yul\":922:934   */\n      revert\n        /* \"#utility.yul\":884:936   */\n    tag_414:\n      pop\n      pop\n        /* \"#utility.yul\":955:978   */\n      dup1\n      calldataload\n      swap3\n        /* \"#utility.yul\":1025:1027   */\n      0x20\n        /* \"#utility.yul\":1010:1028   */\n      swap1\n      swap2\n      add\n        /* \"#utility.yul\":997:1029   */\n      calldataload\n      swap2\n      pop\n        /* \"#utility.yul\":787:1035   */\n      jump\t// out\n        /* \"#utility.yul\":1040:1387   */\n    tag_60:\n        /* \"#utility.yul\":1105:1111   */\n      0x00\n        /* \"#utility.yul\":1113:1119   */\n      dup1\n        /* \"#utility.yul\":1166:1168   */\n      0x40\n        /* \"#utility.yul\":1154:1163   */\n      dup4\n        /* \"#utility.yul\":1145:1152   */\n      dup6\n        /* \"#utility.yul\":1141:1164   */\n      sub\n        /* \"#utility.yul\":1137:1169   */\n      slt\n        /* \"#utility.yul\":1134:1186   */\n      iszero\n      tag_416\n      jumpi\n        /* \"#utility.yul\":1182:1183   */\n      0x00\n        /* \"#utility.yul\":1179:1180   */\n      dup1\n        /* \"#utility.yul\":1172:1184   */\n      revert\n        /* \"#utility.yul\":1134:1186   */\n    tag_416:\n        /* \"#utility.yul\":1205:1234   */\n      tag_417\n        /* \"#utility.yul\":1224:1233   */\n      dup4\n        /* \"#utility.yul\":1205:1234   */\n      tag_403\n      jump\t// in\n    tag_417:\n        /* \"#utility.yul\":1195:1234   */\n      swap2\n      pop\n        /* \"#utility.yul\":1284:1286   */\n      0x20\n        /* \"#utility.yul\":1273:1282   */\n      dup4\n        /* \"#utility.yul\":1269:1287   */\n      add\n        /* \"#utility.yul\":1256:1288   */\n      calldataload\n        /* \"#utility.yul\":1331:1336   */\n      dup1\n        /* \"#utility.yul\":1324:1337   */\n      iszero\n        /* \"#utility.yul\":1317:1338   */\n      iszero\n        /* \"#utility.yul\":1310:1315   */\n      dup2\n        /* \"#utility.yul\":1307:1339   */\n      eq\n        /* \"#utility.yul\":1297:1357   */\n      tag_418\n      jumpi\n        /* \"#utility.yul\":1353:1354   */\n      0x00\n        /* \"#utility.yul\":1350:1351   */\n      dup1\n        /* \"#utility.yul\":1343:1355   */\n      revert\n        /* \"#utility.yul\":1297:1357   */\n    tag_418:\n        /* \"#utility.yul\":1376:1381   */\n      dup1\n        /* \"#utility.yul\":1366:1381   */\n      swap2\n      pop\n      pop\n        /* \"#utility.yul\":1040:1387   */\n      swap3\n      pop\n      swap3\n      swap1\n      pop\n      jump\t// out\n        /* \"#utility.yul\":1392:1572   */\n    tag_64:\n        /* \"#utility.yul\":1451:1457   */\n      0x00\n        /* \"#utility.yul\":1504:1506   */\n      0x20\n        /* \"#utility.yul\":1492:1501   */\n      dup3\n        /* \"#utility.yul\":1483:1490   */\n      dup5\n        /* \"#utility.yul\":1479:1502   */\n      sub\n        /* \"#utility.yul\":1475:1507   */\n      slt\n        /* \"#utility.yul\":1472:1524   */\n      iszero\n      tag_420\n      jumpi\n        /* \"#utility.yul\":1520:1521   */\n      0x00\n        /* \"#utility.yul\":1517:1518   */\n      dup1\n        /* \"#utility.yul\":1510:1522   */\n      revert\n        /* \"#utility.yul\":1472:1524   */\n    tag_420:\n      pop\n        /* \"#utility.yul\":1543:1566   */\n      calldataload\n      swap2\n        /* \"#utility.yul\":1392:1572   */\n      swap1\n      pop\n      jump\t// out\n        /* \"#utility.yul\":1977:2231   */\n    tag_107:\n        /* \"#utility.yul\":2045:2051   */\n      0x00\n        /* \"#utility.yul\":2053:2059   */\n      dup1\n        /* \"#utility.yul\":2106:2108   */\n      0x40\n        /* \"#utility.yul\":2094:2103   */\n      dup4\n        /* \"#utility.yul\":2085:2092   */\n      dup6\n        /* \"#utility.yul\":2081:2104   */\n      sub\n        /* \"#utility.yul\":2077:2109   */\n      slt\n        /* \"#utility.yul\":2074:2126   */\n      iszero\n      tag_424\n      jumpi\n        /* \"#utility.yul\":2122:2123   */\n      0x00\n        /* \"#utility.yul\":2119:2120   */\n      dup1\n        /* \"#utility.yul\":2112:2124   */\n      revert\n        /* \"#utility.yul\":2074:2126   */\n    tag_424:\n        /* \"#utility.yul\":2145:2174   */\n      tag_425\n        /* \"#utility.yul\":2164:2173   */\n      dup4\n        /* \"#utility.yul\":2145:2174   */\n      tag_403\n      jump\t// in\n    tag_425:\n        /* \"#utility.yul\":2135:2174   */\n      swap5\n        /* \"#utility.yul\":2221:2223   */\n      0x20\n        /* \"#utility.yul\":2206:2224   */\n      swap4\n      swap1\n      swap4\n      add\n        /* \"#utility.yul\":2193:2225   */\n      calldataload\n      swap4\n      pop\n      pop\n      pop\n        /* \"#utility.yul\":1977:2231   */\n      jump\t// out\n        /* \"#utility.yul\":2236:2363   */\n    tag_404:\n        /* \"#utility.yul\":2297:2307   */\n      0x4e487b71\n        /* \"#utility.yul\":2292:2295   */\n      0xe0\n        /* \"#utility.yul\":2288:2308   */\n      shl\n        /* \"#utility.yul\":2285:2286   */\n      0x00\n        /* \"#utility.yul\":2278:2309   */\n      mstore\n        /* \"#utility.yul\":2328:2332   */\n      0x11\n        /* \"#utility.yul\":2325:2326   */\n      0x04\n        /* \"#utility.yul\":2318:2333   */\n      mstore\n        /* \"#utility.yul\":2352:2356   */\n      0x24\n        /* \"#utility.yul\":2349:2350   */\n      0x00\n        /* \"#utility.yul\":2342:2357   */\n      revert\n        /* \"#utility.yul\":2368:2496   */\n    tag_157:\n        /* \"#utility.yul\":2435:2444   */\n      dup2\n      dup2\n      sub\n        /* \"#utility.yul\":2456:2467   */\n      dup2\n      dup2\n      gt\n        /* \"#utility.yul\":2453:2490   */\n      iszero\n      tag_162\n      jumpi\n        /* \"#utility.yul\":2470:2488   */\n      tag_162\n      tag_404\n      jump\t// in\n        /* \"#utility.yul\":2501:2669   */\n    tag_159:\n        /* \"#utility.yul\":2574:2583   */\n      dup1\n      dup3\n      mul\n        /* \"#utility.yul\":2605:2614   */\n      dup2\n      iszero\n        /* \"#utility.yul\":2622:2637   */\n      dup3\n      dup3\n      div\n        /* \"#utility.yul\":2616:2638   */\n      dup5\n      eq\n        /* \"#utility.yul\":2602:2639   */\n      or\n        /* \"#utility.yul\":2592:2663   */\n      tag_162\n      jumpi\n        /* \"#utility.yul\":2643:2661   */\n      tag_162\n      tag_404\n      jump\t// in\n        /* \"#utility.yul\":2674:2891   */\n    tag_161:\n        /* \"#utility.yul\":2714:2715   */\n      0x00\n        /* \"#utility.yul\":2740:2741   */\n      dup3\n        /* \"#utility.yul\":2730:2862   */\n      tag_434\n      jumpi\n        /* \"#utility.yul\":2784:2794   */\n      0x4e487b71\n        /* \"#utility.yul\":2779:2782   */\n      0xe0\n        /* \"#utility.yul\":2775:2795   */\n      shl\n        /* \"#utility.yul\":2772:2773   */\n      0x00\n        /* \"#utility.yul\":2765:2796   */\n      mstore\n        /* \"#utility.yul\":2819:2823   */\n      0x12\n        /* \"#utility.yul\":2816:2817   */\n      0x04\n        /* \"#utility.yul\":2809:2824   */\n      mstore\n        /* \"#utility.yul\":2847:2851   */\n      0x24\n        /* \"#utility.yul\":2844:2845   */\n      0x00\n        /* \"#utility.yul\":2837:2852   */\n      revert\n        /* \"#utility.yul\":2730:2862   */\n    tag_434:\n      pop\n        /* \"#utility.yul\":2876:2885   */\n      div\n      swap1\n        /* \"#utility.yul\":2674:2891   */\n      jump\t// out\n        /* \"#utility.yul\":2896:3021   */\n    tag_163:\n        /* \"#utility.yul\":2961:2970   */\n      dup1\n      dup3\n      add\n        /* \"#utility.yul\":2982:2992   */\n      dup1\n      dup3\n      gt\n        /* \"#utility.yul\":2979:3015   */\n      iszero\n      tag_162\n      jumpi\n        /* \"#utility.yul\":2995:3013   */\n      tag_162\n      tag_404\n      jump\t// in\n        /* \"#utility.yul\":3279:3463   */\n    tag_234:\n        /* \"#utility.yul\":3349:3355   */\n      0x00\n        /* \"#utility.yul\":3402:3404   */\n      0x20\n        /* \"#utility.yul\":3390:3399   */\n      dup3\n        /* \"#utility.yul\":3381:3388   */\n      dup5\n        /* \"#utility.yul\":3377:3400   */\n      sub\n        /* \"#utility.yul\":3373:3405   */\n      slt\n        /* \"#utility.yul\":3370:3422   */\n      iszero\n      tag_440\n      jumpi\n        /* \"#utility.yul\":3418:3419   */\n      0x00\n        /* \"#utility.yul\":3415:3416   */\n      dup1\n        /* \"#utility.yul\":3408:3420   */\n      revert\n        /* \"#utility.yul\":3370:3422   */\n    tag_440:\n      pop\n        /* \"#utility.yul\":3441:3457   */\n      mload\n      swap2\n        /* \"#utility.yul\":3279:3463   */\n      swap1\n      pop\n      jump\t// out\n    stop\n    data_c8669cf8eaf883002b9f48e28846a8d408c9b58ea6613bace374265e43c9bc43 9b779b17422d0df92223018b32b4d1fa46e071723d6817e2486d003becc55f00\n\n    auxdata: 0xa264697066735822122052d0cd0ab89ec1d1890c0e19a08afb3037a83b25718ab1c91d9a18cf968e707364736f6c63430008140033\n}\n",
				"bytecode": {
					"linkReferences": {},
					"object": "60a06040523480156200001157600080fd5b5060405162001a6438038062001a64833981016040819052620000349162000134565b33806200005b57604051631e4fbdf760e01b81526000600482015260240160405180910390fd5b6200006681620000e4565b5060017f9b779b17422d0df92223018b32b4d1fa46e071723d6817e2486d003becc55f00556001600160a01b038216620000b35760405163d92e233d60e01b815260040160405180910390fd5b6001600160a01b03909116608052600355336000908152600b60205260409020805460ff1916600117905562000170565b600080546001600160a01b038381166001600160a01b0319831681178455604051919092169283917f8be0079c531659141344cd1fd0a4f28419497f9722a3daafe3b4186f6b6457e09190a35050565b600080604083850312156200014857600080fd5b82516001600160a01b03811681146200016057600080fd5b6020939093015192949293505050565b6080516118b5620001af60003960008181610235015281816105f301528181610a1501528181610acb0152818161124301526112d501526118b56000f3fe608060405234801561001057600080fd5b50600436106102055760003560e01c80638456cb591161011a578063cd3daf9d116100ad578063e9fad8ee1161007c578063e9fad8ee1461043b578063ebe2b12b14610443578063f0f442601461044c578063f2fde38b1461045f578063fd42fe4d1461047257600080fd5b8063cd3daf9d146103ff578063d15166ff14610407578063db2e21bc1461042a578063df136d651461043257600080fd5b80639e447fc6116100e95780639e447fc6146103bd5780639ee933b5146103d0578063a694fc3a146103e3578063c8f33c91146103f657600080fd5b80638456cb59146103715780638980f11f146103795780638b8763471461038c5780638da5cb5b146103ac57600080fd5b80633f4ba83a1161019d578063602172671161016c578063602172671461032557806361d027b314610345578063715018a61461035857806380faa57d14610360578063817b1cd21461036857600080fd5b80633f4ba83a146102ef5780635c975abb146102f75780635d773b2c146103095780635fcbd2851461031257600080fd5b80632e17de78116101d95780632e17de78146102975780632ff33be0146102aa57806331d7a262146102c7578063372500ab146102e757600080fd5b80628cc2621461020a5780630e31648f14610230578063246132f91461026f578063255a4f7314610284575b600080fd5b61021d61021836600461170e565b61047a565b6040519081526020015b60405180910390f35b6102577f000000000000000000000000000000000000000000000000000000000000000081565b6040516001600160a01b039091168152602001610227565b61028261027d366004611730565b6104f7565b005b610282610292366004611752565b6106e2565b6102826102a536600461178e565b610770565b600c546102b79060ff1681565b6040519015158152602001610227565b61021d6102d536600461170e565b600a6020526000908152604090205481565b610282610940565b610282610b4b565b600c546102b790610100900460ff1681565b61021d60035481565b600154610257906001600160a01b031681565b61021d61033336600461170e565b60086020526000908152604090205481565b600254610257906001600160a01b031681565b610282610b8b565b61021d610b9d565b61021d60075481565b610282610bb6565b6102826103873660046117a7565b610bfa565b61021d61039a36600461170e565b60096020526000908152604090205481565b6000546001600160a01b0316610257565b6102826103cb36600461178e565b610ce8565b6102826103de36600461170e565b610d88565b6102826103f136600461178e565b610e25565b61021d60055481565b61021d610f9a565b6102b761041536600461170e565b600b6020526000908152604090205460ff1681565b610282610ffb565b61021d60065481565b6102826110d8565b61021d60045481565b61028261045a36600461170e565b611356565b61028261046d36600461170e565b611458565b61021d611493565b6001600160a01b0381166000908152600a60209081526040808320546009909252822054670de0b6b3a7640000906104b0610f9a565b6104ba91906117e7565b6001600160a01b0385166000908152600860205260409020546104dd91906117fa565b6104e79190611811565b6104f19190611833565b92915050565b6104ff6114db565b6000610509610f9a565b600655610514610b9d565b6005556001600160a01b0381161561055b5761052f8161047a565b6001600160a01b0382166000908152600a60209081526040808320939093556006546009909152919020555b336000908152600b602052604090205460ff1615801561058657506000546001600160a01b03163314155b156105a457604051631648fd0160e01b815260040160405180910390fd5b826000036105c557604051631f2a200560e01b815260040160405180910390fd5b816000036105e657604051631f2a200560e01b815260040160405180910390fd5b61061b6001600160a01b037f0000000000000000000000000000000000000000000000000000000000000000163330866114f7565b6004544210156106695760004260045461063591906117e7565b905060006003548261064791906117fa565b9050836106548287611833565b61065e9190611811565b600355506106779050565b6106738284611811565b6003555b426005819055610688908390611833565b600455604080518481526020810184905233917f8a888ea653a580e40660778ee0c0dabd23a81e8e2c8dcfb938e40982a157d819910160405180910390a2506106de600160008051602061186083398151915255565b5050565b6106ea611533565b6001600160a01b0382166107115760405163d92e233d60e01b815260040160405180910390fd5b6001600160a01b0382166000818152600b6020908152604091829020805460ff191685151590811790915591519182527fb33ca1dabfb28a2e1bd06b332c396b1a3d538278691341a5503bbad53f919197910160405180910390a25050565b6107786114db565b600c54610100900460ff16156107a15760405163ab35696f60e01b815260040160405180910390fd5b6001546001600160a01b03166107ca5760405163381b166f60e11b815260040160405180910390fd5b336107d3610f9a565b6006556107de610b9d565b6005556001600160a01b03811615610825576107f98161047a565b6001600160a01b0382166000908152600a60209081526040808320939093556006546009909152919020555b8160000361084657604051631f2a200560e01b815260040160405180910390fd5b3360009081526008602052604090205482111561089b5733600090815260086020526040908190205490516322df051360e11b8152610892918491600401918252602082015260400190565b60405180910390fd5b33600090815260086020526040812080548492906108ba9084906117e7565b9250508190555081600760008282546108d391906117e7565b90915550506001546108ef906001600160a01b03163384611560565b60405182815233907f0f5bb82176feb1b5e747e28471aa92156a04d9f3ab9f45f28e2d704232b93f75906020015b60405180910390a25061093d600160008051602061186083398151915255565b50565b6109486114db565b600c54610100900460ff16156109715760405163ab35696f60e01b815260040160405180910390fd5b3361097a610f9a565b600655610985610b9d565b6005556001600160a01b038116156109cc576109a08161047a565b6001600160a01b0382166000908152600a60209081526040808320939093556006546009909152919020555b336000908152600a6020526040812054908190036109fd57604051635b8f50bf60e11b815260040160405180910390fd5b6040516370a0823160e01b81523060048201526000907f00000000000000000000000000000000000000000000000000000000000000006001600160a01b0316906370a0823190602401602060405180830381865afa158015610a64573d6000803e3d6000fd5b505050506040513d601f19601f82011682018060405250810190610a889190611846565b905080821115610ab5576040516365ac9d4360e01b81526004810183905260248101829052604401610892565b336000818152600a6020526040812055610afa907f00000000000000000000000000000000000000000000000000000000000000006001600160a01b03169084611560565b60405182815233907ffc30cddea38e2bf4d6ea7d3f9ed3b6ad7f176419f4963bd81318067a4aee73fe9060200160405180910390a2505050610b49600160008051602061186083398151915255565b565b610b53611533565b600c805461ff001916905560405133907f5db9ee0a495bf2e6ff9c91a7834c1ba4fdd244a5e8aa4e537bd38aeae4b073aa90600090a2565b610b93611533565b610b49600061159a565b60006004544210610baf575060045490565b425b905090565b610bbe611533565b600c805461ff00191661010017905560405133907f62e78cea01bee320cd4e420270b5ea74000d11b0c9f74754ebdbfc544b05a25890600090a2565b610c02611533565b6001546001600160a01b0390811690831603610cc2576007546001546040516370a0823160e01b8152306004820152600092916001600160a01b0316906370a0823190602401602060405180830381865afa158015610c65573d6000803e3d6000fd5b505050506040513d601f19601f82011682018060405250810190610c899190611846565b610c9391906117e7565b905080821115610cc0576040516365ac9d4360e01b81526004810183905260248101829052604401610892565b505b6106de610cd76000546001600160a01b031690565b6001600160a01b0384169083611560565b610cf0611533565b6000610cfa610f9a565b600655610d05610b9d565b6005556001600160a01b03811615610d4c57610d208161047a565b6001600160a01b0382166000908152600a60209081526040808320939093556006546009909152919020555b60038290556040518281527f8cbfafc8e0d9c5c81401c4b9c6e7d201198adc7eb8f8f1556c195ecd4c0a0e7b9060200160405180910390a15050565b610d90611533565b6001600160a01b038116610db75760405163d92e233d60e01b815260040160405180910390fd5b600c5460ff1615610ddb5760405163ae0cd54f60e01b815260040160405180910390fd5b600180546001600160a01b0319166001600160a01b0383169081179091556040517f1c1820b4910e7e24202fa882184fde52e795a3113b621ded50b099b270159acc90600090a250565b610e2d6114db565b600c54610100900460ff1615610e565760405163ab35696f60e01b815260040160405180910390fd5b6001546001600160a01b0316610e7f5760405163381b166f60e11b815260040160405180910390fd5b33610e88610f9a565b600655610e93610b9d565b6005556001600160a01b03811615610eda57610eae8161047a565b6001600160a01b0382166000908152600a60209081526040808320939093556006546009909152919020555b81600003610efb57604051631f2a200560e01b815260040160405180910390fd5b600c5460ff16610f1357600c805460ff191660011790555b3360009081526008602052604081208054849290610f32908490611833565b925050819055508160076000828254610f4b9190611833565b9091555050600154610f68906001600160a01b03163330856114f7565b60405182815233907f9e71bc8eea02a63969f509818f2dafb9254532904319f9dbda79b67bd34a5f3d9060200161091d565b6000600754600003610fad575060065490565b600754600354600554610fbe610b9d565b610fc891906117e7565b610fd291906117fa565b610fe490670de0b6b3a76400006117fa565b610fee9190611811565b600654610bb19190611833565b6110036114db565b336000908152600860205260408120549081900361103457604051631f2a200560e01b815260040160405180910390fd5b336000908152600860209081526040808320839055600a8252808320839055600990915281208190556007805483929061106f9084906117e7565b909155505060015461108b906001600160a01b03163383611560565b60405181815233907f5fafa99d0643513820be26656b45130b01e1c03062e1266bf36f88cbd3bd96959060200160405180910390a250610b49600160008051602061186083398151915255565b6110e06114db565b600c54610100900460ff16156111095760405163ab35696f60e01b815260040160405180910390fd5b6001546001600160a01b03166111325760405163381b166f60e11b815260040160405180910390fd5b3361113b610f9a565b600655611146610b9d565b6005556001600160a01b0381161561118d576111618161047a565b6001600160a01b0382166000908152600a60209081526040808320939093556006546009909152919020555b33600090815260086020908152604080832054600a90925290912054811561122557336000908152600860205260408120819055600780548492906111d39084906117e7565b90915550506001546111ef906001600160a01b03163384611560565b60405182815233907f0f5bb82176feb1b5e747e28471aa92156a04d9f3ab9f45f28e2d704232b93f759060200160405180910390a25b801561133c576040516370a0823160e01b81523060048201526000907f00000000000000000000000000000000000000000000000000000000000000006001600160a01b0316906370a0823190602401602060405180830381865afa158015611292573d6000803e3d6000fd5b505050506040513d601f19601f820116820180604052508101906112b69190611846565b905080821161133a57336000818152600a6020526040812055611304907f00000000000000000000000000000000000000000000000000000000000000006001600160a01b03169084611560565b60405182815233907ffc30cddea38e2bf4d6ea7d3f9ed3b6ad7f176419f4963bd81318067a4aee73fe9060200160405180910390a25b505b505050610b49600160008051602061186083398151915255565b61135e611533565b6001600160a01b0381166113855760405163d92e233d60e01b815260040160405180910390fd5b6002546001600160a01b0316156113b9576002546001600160a01b03166000908152600b60205260409020805460ff191690555b600280546001600160a01b0319166001600160a01b0383169081179091556000818152600b6020526040808220805460ff19166001179055517f3c864541ef71378c6229510ed90f376565ee42d9c5e0904a984a9e863e6db44f9190a2604051600181526001600160a01b038216907fb33ca1dabfb28a2e1bd06b332c396b1a3d538278691341a5503bbad53f9191979060200160405180910390a250565b611460611533565b6001600160a01b03811661148a57604051631e4fbdf760e01b815260006004820152602401610892565b61093d8161159a565b60006007546000036114a55750600090565b60006003546301e133806114b991906117fa565b6007549091506114cb826127106117fa565b6114d59190611811565b91505090565b6114e36115ea565b600260008051602061186083398151915255565b61150584848484600161161a565b61152d57604051635274afe760e01b81526001600160a01b0385166004820152602401610892565b50505050565b6000546001600160a01b03163314610b495760405163118cdaa760e01b8152336004820152602401610892565b61156d838383600161168c565b61159557604051635274afe760e01b81526001600160a01b0384166004820152602401610892565b505050565b600080546001600160a01b038381166001600160a01b0319831681178455604051919092169283917f8be0079c531659141344cd1fd0a4f28419497f9722a3daafe3b4186f6b6457e09190a35050565b60008051602061186083398151915254600203610b4957604051633ee5aeb560e01b815260040160405180910390fd5b6040516323b872dd60e01b60008181526001600160a01b038781166004528616602452604485905291602083606481808c5af19250600160005114831661167a57838315161561166d573d6000823e3d81fd5b6000883b113d1516831692505b60405250600060605295945050505050565b60405163a9059cbb60e01b60008181526001600160a01b038616600452602485905291602083604481808b5af1925060016000511483166116e65783831516156116d9573d6000823e3d81fd5b6000873b113d1516831692505b60405250949350505050565b80356001600160a01b038116811461170957600080fd5b919050565b60006020828403121561172057600080fd5b611729826116f2565b9392505050565b6000806040838503121561174357600080fd5b50508035926020909101359150565b6000806040838503121561176557600080fd5b61176e836116f2565b91506020830135801515811461178357600080fd5b809150509250929050565b6000602082840312156117a057600080fd5b5035919050565b600080604083850312156117ba57600080fd5b6117c3836116f2565b946020939093013593505050565b634e487b7160e01b600052601160045260246000fd5b818103818111156104f1576104f16117d1565b80820281158282048414176104f1576104f16117d1565b60008261182e57634e487b7160e01b600052601260045260246000fd5b500490565b808201808211156104f1576104f16117d1565b60006020828403121561185857600080fd5b505191905056fe9b779b17422d0df92223018b32b4d1fa46e071723d6817e2486d003becc55f00a264697066735822122052d0cd0ab89ec1d1890c0e19a08afb3037a83b25718ab1c91d9a18cf968e707364736f6c63430008140033",
					"opcodes": "PUSH1 0xA0 PUSH1 0x40 MSTORE CALLVALUE DUP1 ISZERO PUSH3 0x11 JUMPI PUSH1 0x0 DUP1 REVERT JUMPDEST POP PUSH1 0x40 MLOAD PUSH3 0x1A64 CODESIZE SUB DUP1 PUSH3 0x1A64 DUP4 CODECOPY DUP2 ADD PUSH1 0x40 DUP2 SWAP1 MSTORE PUSH3 0x34 SWAP2 PUSH3 0x134 JUMP JUMPDEST CALLER DUP1 PUSH3 0x5B JUMPI PUSH1 0x40 MLOAD PUSH4 0x1E4FBDF7 PUSH1 0xE0 SHL DUP2 MSTORE PUSH1 0x0 PUSH1 0x4 DUP3 ADD MSTORE PUSH1 0x24 ADD PUSH1 0x40 MLOAD DUP1 SWAP2 SUB SWAP1 REVERT JUMPDEST PUSH3 0x66 DUP2 PUSH3 0xE4 JUMP JUMPDEST POP PUSH1 0x1 PUSH32 0x9B779B17422D0DF92223018B32B4D1FA46E071723D6817E2486D003BECC55F00 SSTORE PUSH1 0x1 PUSH1 0x1 PUSH1 0xA0 SHL SUB DUP3 AND PUSH3 0xB3 JUMPI PUSH1 0x40 MLOAD PUSH4 0xD92E233D PUSH1 0xE0 SHL DUP2 MSTORE PUSH1 0x4 ADD PUSH1 0x40 MLOAD DUP1 SWAP2 SUB SWAP1 REVERT JUMPDEST PUSH1 0x1 PUSH1 0x1 PUSH1 0xA0 SHL SUB SWAP1 SWAP2 AND PUSH1 0x80 MSTORE PUSH1 0x3 SSTORE CALLER PUSH1 0x0 SWAP1 DUP2 MSTORE PUSH1 0xB PUSH1 0x20 MSTORE PUSH1 0x40 SWAP1 KECCAK256 DUP1 SLOAD PUSH1 0xFF NOT AND PUSH1 0x1 OR SWAP1 SSTORE PUSH3 0x170 JUMP JUMPDEST PUSH1 0x0 DUP1 SLOAD PUSH1 0x1 PUSH1 0x1 PUSH1 0xA0 SHL SUB DUP4 DUP2 AND PUSH1 0x1 PUSH1 0x1 PUSH1 0xA0 SHL SUB NOT DUP4 AND DUP2 OR DUP5 SSTORE PUSH1 0x40 MLOAD SWAP2 SWAP1 SWAP3 AND SWAP3 DUP4 SWAP2 PUSH32 0x8BE0079C531659141344CD1FD0A4F28419497F9722A3DAAFE3B4186F6B6457E0 SWAP2 SWAP1 LOG3 POP POP JUMP JUMPDEST PUSH1 0x0 DUP1 PUSH1 0x40 DUP4 DUP6 SUB SLT ISZERO PUSH3 0x148 JUMPI PUSH1 0x0 DUP1 REVERT JUMPDEST DUP3 MLOAD PUSH1 0x1 PUSH1 0x1 PUSH1 0xA0 SHL SUB DUP2 AND DUP2 EQ PUSH3 0x160 JUMPI PUSH1 0x0 DUP1 REVERT JUMPDEST PUSH1 0x20 SWAP4 SWAP1 SWAP4 ADD MLOAD SWAP3 SWAP5 SWAP3 SWAP4 POP POP POP JUMP JUMPDEST PUSH1 0x80 MLOAD PUSH2 0x18B5 PUSH3 0x1AF PUSH1 0x0 CODECOPY PUSH1 0x0 DUP2 DUP2 PUSH2 0x235 ADD MSTORE DUP2 DUP2 PUSH2 0x5F3 ADD MSTORE DUP2 DUP2 PUSH2 0xA15 ADD MSTORE DUP2 DUP2 PUSH2 0xACB ADD MSTORE DUP2 DUP2 PUSH2 0x1243 ADD MSTORE PUSH2 0x12D5 ADD MSTORE PUSH2 0x18B5 PUSH1 0x0 RETURN INVALID PUSH1 0x80 PUSH1 0x40 MSTORE CALLVALUE DUP1 ISZERO PUSH2 0x10 JUMPI PUSH1 0x0 DUP1 REVERT JUMPDEST POP PUSH1 0x4 CALLDATASIZE LT PUSH2 0x205 JUMPI PUSH1 0x0 CALLDATALOAD PUSH1 0xE0 SHR DUP1 PUSH4 0x8456CB59 GT PUSH2 0x11A JUMPI DUP1 PUSH4 0xCD3DAF9D GT PUSH2 0xAD JUMPI DUP1 PUSH4 0xE9FAD8EE GT PUSH2 0x7C JUMPI DUP1 PUSH4 0xE9FAD8EE EQ PUSH2 0x43B JUMPI DUP1 PUSH4 0xEBE2B12B EQ PUSH2 0x443 JUMPI DUP1 PUSH4 0xF0F44260 EQ PUSH2 0x44C JUMPI DUP1 PUSH4 0xF2FDE38B EQ PUSH2 0x45F JUMPI DUP1 PUSH4 0xFD42FE4D EQ PUSH2 0x472 JUMPI PUSH1 0x0 DUP1 REVERT JUMPDEST DUP1 PUSH4 0xCD3DAF9D EQ PUSH2 0x3FF JUMPI DUP1 PUSH4 0xD15166FF EQ PUSH2 0x407 JUMPI DUP1 PUSH4 0xDB2E21BC EQ PUSH2 0x42A JUMPI DUP1 PUSH4 0xDF136D65 EQ PUSH2 0x432 JUMPI PUSH1 0x0 DUP1 REVERT JUMPDEST DUP1 PUSH4 0x9E447FC6 GT PUSH2 0xE9 JUMPI DUP1 PUSH4 0x9E447FC6 EQ PUSH2 0x3BD JUMPI DUP1 PUSH4 0x9EE933B5 EQ PUSH2 0x3D0 JUMPI DUP1 PUSH4 0xA694FC3A EQ PUSH2 0x3E3 JUMPI DUP1 PUSH4 0xC8F33C91 EQ PUSH2 0x3F6 JUMPI PUSH1 0x0 DUP1 REVERT JUMPDEST DUP1 PUSH4 0x8456CB59 EQ PUSH2 0x371 JUMPI DUP1 PUSH4 0x8980F11F EQ PUSH2 0x379 JUMPI DUP1 PUSH4 0x8B876347 EQ PUSH2 0x38C JUMPI DUP1 PUSH4 0x8DA5CB5B EQ PUSH2 0x3AC JUMPI PUSH1 0x0 DUP1 REVERT JUMPDEST DUP1 PUSH4 0x3F4BA83A GT PUSH2 0x19D JUMPI DUP1 PUSH4 0x60217267 GT PUSH2 0x16C JUMPI DUP1 PUSH4 0x60217267 EQ PUSH2 0x325 JUMPI DUP1 PUSH4 0x61D027B3 EQ PUSH2 0x345 JUMPI DUP1 PUSH4 0x715018A6 EQ PUSH2 0x358 JUMPI DUP1 PUSH4 0x80FAA57D EQ PUSH2 0x360 JUMPI DUP1 PUSH4 0x817B1CD2 EQ PUSH2 0x368 JUMPI PUSH1 0x0 DUP1 REVERT JUMPDEST DUP1 PUSH4 0x3F4BA83A EQ PUSH2 0x2EF JUMPI DUP1 PUSH4 0x5C975ABB EQ PUSH2 0x2F7 JUMPI DUP1 PUSH4 0x5D773B2C EQ PUSH2 0x309 JUMPI DUP1 PUSH4 0x5FCBD285 EQ PUSH2 0x312 JUMPI PUSH1 0x0 DUP1 REVERT JUMPDEST DUP1 PUSH4 0x2E17DE78 GT PUSH2 0x1D9 JUMPI DUP1 PUSH4 0x2E17DE78 EQ PUSH2 0x297 JUMPI DUP1 PUSH4 0x2FF33BE0 EQ PUSH2 0x2AA JUMPI DUP1 PUSH4 0x31D7A262 EQ PUSH2 0x2C7 JUMPI DUP1 PUSH4 0x372500AB EQ PUSH2 0x2E7 JUMPI PUSH1 0x0 DUP1 REVERT JUMPDEST DUP1 PUSH3 0x8CC262 EQ PUSH2 0x20A JUMPI DUP1 PUSH4 0xE31648F EQ PUSH2 0x230 JUMPI DUP1 PUSH4 0x246132F9 EQ PUSH2 0x26F JUMPI DUP1 PUSH4 0x255A4F73 EQ PUSH2 0x284 JUMPI JUMPDEST PUSH1 0x0 DUP1 REVERT JUMPDEST PUSH2 0x21D PUSH2 0x218 CALLDATASIZE PUSH1 0x4 PUSH2 0x170E JUMP JUMPDEST PUSH2 0x47A JUMP JUMPDEST PUSH1 0x40 MLOAD SWAP1 DUP2 MSTORE PUSH1 0x20 ADD JUMPDEST PUSH1 0x40 MLOAD DUP1 SWAP2 SUB SWAP1 RETURN JUMPDEST PUSH2 0x257 PUSH32 0x0 DUP2 JUMP JUMPDEST PUSH1 0x40 MLOAD PUSH1 0x1 PUSH1 0x1 PUSH1 0xA0 SHL SUB SWAP1 SWAP2 AND DUP2 MSTORE PUSH1 0x20 ADD PUSH2 0x227 JUMP JUMPDEST PUSH2 0x282 PUSH2 0x27D CALLDATASIZE PUSH1 0x4 PUSH2 0x1730 JUMP JUMPDEST PUSH2 0x4F7 JUMP JUMPDEST STOP JUMPDEST PUSH2 0x282 PUSH2 0x292 CALLDATASIZE PUSH1 0x4 PUSH2 0x1752 JUMP JUMPDEST PUSH2 0x6E2 JUMP JUMPDEST PUSH2 0x282 PUSH2 0x2A5 CALLDATASIZE PUSH1 0x4 PUSH2 0x178E JUMP JUMPDEST PUSH2 0x770 JUMP JUMPDEST PUSH1 0xC SLOAD PUSH2 0x2B7 SWAP1 PUSH1 0xFF AND DUP2 JUMP JUMPDEST PUSH1 0x40 MLOAD SWAP1 ISZERO ISZERO DUP2 MSTORE PUSH1 0x20 ADD PUSH2 0x227 JUMP JUMPDEST PUSH2 0x21D PUSH2 0x2D5 CALLDATASIZE PUSH1 0x4 PUSH2 0x170E JUMP JUMPDEST PUSH1 0xA PUSH1 0x20 MSTORE PUSH1 0x0 SWAP1 DUP2 MSTORE PUSH1 0x40 SWAP1 KECCAK256 SLOAD DUP2 JUMP JUMPDEST PUSH2 0x282 PUSH2 0x940 JUMP JUMPDEST PUSH2 0x282 PUSH2 0xB4B JUMP JUMPDEST PUSH1 0xC SLOAD PUSH2 0x2B7 SWAP1 PUSH2 0x100 SWAP1 DIV PUSH1 0xFF AND DUP2 JUMP JUMPDEST PUSH2 0x21D PUSH1 0x3 SLOAD DUP2 JUMP JUMPDEST PUSH1 0x1 SLOAD PUSH2 0x257 SWAP1 PUSH1 0x1 PUSH1 0x1 PUSH1 0xA0 SHL SUB AND DUP2 JUMP JUMPDEST PUSH2 0x21D PUSH2 0x333 CALLDATASIZE PUSH1 0x4 PUSH2 0x170E JUMP JUMPDEST PUSH1 0x8 PUSH1 0x20 MSTORE PUSH1 0x0 SWAP1 DUP2 MSTORE PUSH1 0x40 SWAP1 KECCAK256 SLOAD DUP2 JUMP JUMPDEST PUSH1 0x2 SLOAD PUSH2 0x257 SWAP1 PUSH1 0x1 PUSH1 0x1 PUSH1 0xA0 SHL SUB AND DUP2 JUMP JUMPDEST PUSH2 0x282 PUSH2 0xB8B JUMP JUMPDEST PUSH2 0x21D PUSH2 0xB9D JUMP JUMPDEST PUSH2 0x21D PUSH1 0x7 SLOAD DUP2 JUMP JUMPDEST PUSH2 0x282 PUSH2 0xBB6 JUMP JUMPDEST PUSH2 0x282 PUSH2 0x387 CALLDATASIZE PUSH1 0x4 PUSH2 0x17A7 JUMP JUMPDEST PUSH2 0xBFA JUMP JUMPDEST PUSH2 0x21D PUSH2 0x39A CALLDATASIZE PUSH1 0x4 PUSH2 0x170E JUMP JUMPDEST PUSH1 0x9 PUSH1 0x20 MSTORE PUSH1 0x0 SWAP1 DUP2 MSTORE PUSH1 0x40 SWAP1 KECCAK256 SLOAD DUP2 JUMP JUMPDEST PUSH1 0x0 SLOAD PUSH1 0x1 PUSH1 0x1 PUSH1 0xA0 SHL SUB AND PUSH2 0x257 JUMP JUMPDEST PUSH2 0x282 PUSH2 0x3CB CALLDATASIZE PUSH1 0x4 PUSH2 0x178E JUMP JUMPDEST PUSH2 0xCE8 JUMP JUMPDEST PUSH2 0x282 PUSH2 0x3DE CALLDATASIZE PUSH1 0x4 PUSH2 0x170E JUMP JUMPDEST PUSH2 0xD88 JUMP JUMPDEST PUSH2 0x282 PUSH2 0x3F1 CALLDATASIZE PUSH1 0x4 PUSH2 0x178E JUMP JUMPDEST PUSH2 0xE25 JUMP JUMPDEST PUSH2 0x21D PUSH1 0x5 SLOAD DUP2 JUMP JUMPDEST PUSH2 0x21D PUSH2 0xF9A JUMP JUMPDEST PUSH2 0x2B7 PUSH2 0x415 CALLDATASIZE PUSH1 0x4 PUSH2 0x170E JUMP JUMPDEST PUSH1 0xB PUSH1 0x20 MSTORE PUSH1 0x0 SWAP1 DUP2 MSTORE PUSH1 0x40 SWAP1 KECCAK256 SLOAD PUSH1 0xFF AND DUP2 JUMP JUMPDEST PUSH2 0x282 PUSH2 0xFFB JUMP JUMPDEST PUSH2 0x21D PUSH1 0x6 SLOAD DUP2 JUMP JUMPDEST PUSH2 0x282 PUSH2 0x10D8 JUMP JUMPDEST PUSH2 0x21D PUSH1 0x4 SLOAD DUP2 JUMP JUMPDEST PUSH2 0x282 PUSH2 0x45A CALLDATASIZE PUSH1 0x4 PUSH2 0x170E JUMP JUMPDEST PUSH2 0x1356 JUMP JUMPDEST PUSH2 0x282 PUSH2 0x46D CALLDATASIZE PUSH1 0x4 PUSH2 0x170E JUMP JUMPDEST PUSH2 0x1458 JUMP JUMPDEST PUSH2 0x21D PUSH2 0x1493 JUMP JUMPDEST PUSH1 0x1 PUSH1 0x1 PUSH1 0xA0 SHL SUB DUP2 AND PUSH1 0x0 SWAP1 DUP2 MSTORE PUSH1 0xA PUSH1 0x20 SWAP1 DUP2 MSTORE PUSH1 0x40 DUP1 DUP4 KECCAK256 SLOAD PUSH1 0x9 SWAP1 SWAP3 MSTORE DUP3 KECCAK256 SLOAD PUSH8 0xDE0B6B3A7640000 SWAP1 PUSH2 0x4B0 PUSH2 0xF9A JUMP JUMPDEST PUSH2 0x4BA SWAP2 SWAP1 PUSH2 0x17E7 JUMP JUMPDEST PUSH1 0x1 PUSH1 0x1 PUSH1 0xA0 SHL SUB DUP6 AND PUSH1 0x0 SWAP1 DUP2 MSTORE PUSH1 0x8 PUSH1 0x20 MSTORE PUSH1 0x40 SWAP1 KECCAK256 SLOAD PUSH2 0x4DD SWAP2 SWAP1 PUSH2 0x17FA JUMP JUMPDEST PUSH2 0x4E7 SWAP2 SWAP1 PUSH2 0x1811 JUMP JUMPDEST PUSH2 0x4F1 SWAP2 SWAP1 PUSH2 0x1833 JUMP JUMPDEST SWAP3 SWAP2 POP POP JUMP JUMPDEST PUSH2 0x4FF PUSH2 0x14DB JUMP JUMPDEST PUSH1 0x0 PUSH2 0x509 PUSH2 0xF9A JUMP JUMPDEST PUSH1 0x6 SSTORE PUSH2 0x514 PUSH2 0xB9D JUMP JUMPDEST PUSH1 0x5 SSTORE PUSH1 0x1 PUSH1 0x1 PUSH1 0xA0 SHL SUB DUP2 AND ISZERO PUSH2 0x55B JUMPI PUSH2 0x52F DUP2 PUSH2 0x47A JUMP JUMPDEST PUSH1 0x1 PUSH1 0x1 PUSH1 0xA0 SHL SUB DUP3 AND PUSH1 0x0 SWAP1 DUP2 MSTORE PUSH1 0xA PUSH1 0x20 SWAP1 DUP2 MSTORE PUSH1 0x40 DUP1 DUP4 KECCAK256 SWAP4 SWAP1 SWAP4 SSTORE PUSH1 0x6 SLOAD PUSH1 0x9 SWAP1 SWAP2 MSTORE SWAP2 SWAP1 KECCAK256 SSTORE JUMPDEST CALLER PUSH1 0x0 SWAP1 DUP2 MSTORE PUSH1 0xB PUSH1 0x20 MSTORE PUSH1 0x40 SWAP1 KECCAK256 SLOAD PUSH1 0xFF AND ISZERO DUP1 ISZERO PUSH2 0x586 JUMPI POP PUSH1 0x0 SLOAD PUSH1 0x1 PUSH1 0x1 PUSH1 0xA0 SHL SUB AND CALLER EQ ISZERO JUMPDEST ISZERO PUSH2 0x5A4 JUMPI PUSH1 0x40 MLOAD PUSH4 0x1648FD01 PUSH1 0xE0 SHL DUP2 MSTORE PUSH1 0x4 ADD PUSH1 0x40 MLOAD DUP1 SWAP2 SUB SWAP1 REVERT JUMPDEST DUP3 PUSH1 0x0 SUB PUSH2 0x5C5 JUMPI PUSH1 0x40 MLOAD PUSH4 0x1F2A2005 PUSH1 0xE0 SHL DUP2 MSTORE PUSH1 0x4 ADD PUSH1 0x40 MLOAD DUP1 SWAP2 SUB SWAP1 REVERT JUMPDEST DUP2 PUSH1 0x0 SUB PUSH2 0x5E6 JUMPI PUSH1 0x40 MLOAD PUSH4 0x1F2A2005 PUSH1 0xE0 SHL DUP2 MSTORE PUSH1 0x4 ADD PUSH1 0x40 MLOAD DUP1 SWAP2 SUB SWAP1 REVERT JUMPDEST PUSH2 0x61B PUSH1 0x1 PUSH1 0x1 PUSH1 0xA0 SHL SUB PUSH32 0x0 AND CALLER ADDRESS DUP7 PUSH2 0x14F7 JUMP JUMPDEST PUSH1 0x4 SLOAD TIMESTAMP LT ISZERO PUSH2 0x669 JUMPI PUSH1 0x0 TIMESTAMP PUSH1 0x4 SLOAD PUSH2 0x635 SWAP2 SWAP1 PUSH2 0x17E7 JUMP JUMPDEST SWAP1 POP PUSH1 0x0 PUSH1 0x3 SLOAD DUP3 PUSH2 0x647 SWAP2 SWAP1 PUSH2 0x17FA JUMP JUMPDEST SWAP1 POP DUP4 PUSH2 0x654 DUP3 DUP8 PUSH2 0x1833 JUMP JUMPDEST PUSH2 0x65E SWAP2 SWAP1 PUSH2 0x1811 JUMP JUMPDEST PUSH1 0x3 SSTORE POP PUSH2 0x677 SWAP1 POP JUMP JUMPDEST PUSH2 0x673 DUP3 DUP5 PUSH2 0x1811 JUMP JUMPDEST PUSH1 0x3 SSTORE JUMPDEST TIMESTAMP PUSH1 0x5 DUP2 SWAP1 SSTORE PUSH2 0x688 SWAP1 DUP4 SWAP1 PUSH2 0x1833 JUMP JUMPDEST PUSH1 0x4 SSTORE PUSH1 0x40 DUP1 MLOAD DUP5 DUP2 MSTORE PUSH1 0x20 DUP2 ADD DUP5 SWAP1 MSTORE CALLER SWAP2 PUSH32 0x8A888EA653A580E40660778EE0C0DABD23A81E8E2C8DCFB938E40982A157D819 SWAP2 ADD PUSH1 0x40 MLOAD DUP1 SWAP2 SUB SWAP1 LOG2 POP PUSH2 0x6DE PUSH1 0x1 PUSH1 0x0 DUP1 MLOAD PUSH1 0x20 PUSH2 0x1860 DUP4 CODECOPY DUP2 MLOAD SWAP2 MSTORE SSTORE JUMP JUMPDEST POP POP JUMP JUMPDEST PUSH2 0x6EA PUSH2 0x1533 JUMP JUMPDEST PUSH1 0x1 PUSH1 0x1 PUSH1 0xA0 SHL SUB DUP3 AND PUSH2 0x711 JUMPI PUSH1 0x40 MLOAD PUSH4 0xD92E233D PUSH1 0xE0 SHL DUP2 MSTORE PUSH1 0x4 ADD PUSH1 0x40 MLOAD DUP1 SWAP2 SUB SWAP1 REVERT JUMPDEST PUSH1 0x1 PUSH1 0x1 PUSH1 0xA0 SHL SUB DUP3 AND PUSH1 0x0 DUP2 DUP2 MSTORE PUSH1 0xB PUSH1 0x20 SWAP1 DUP2 MSTORE PUSH1 0x40 SWAP2 DUP3 SWAP1 KECCAK256 DUP1 SLOAD PUSH1 0xFF NOT AND DUP6 ISZERO ISZERO SWAP1 DUP2 OR SWAP1 SWAP2 SSTORE SWAP2 MLOAD SWAP2 DUP3 MSTORE PUSH32 0xB33CA1DABFB28A2E1BD06B332C396B1A3D538278691341A5503BBAD53F919197 SWAP2 ADD PUSH1 0x40 MLOAD DUP1 SWAP2 SUB SWAP1 LOG2 POP POP JUMP JUMPDEST PUSH2 0x778 PUSH2 0x14DB JUMP JUMPDEST PUSH1 0xC SLOAD PUSH2 0x100 SWAP1 DIV PUSH1 0xFF AND ISZERO PUSH2 0x7A1 JUMPI PUSH1 0x40 MLOAD PUSH4 0xAB35696F PUSH1 0xE0 SHL DUP2 MSTORE PUSH1 0x4 ADD PUSH1 0x40 MLOAD DUP1 SWAP2 SUB SWAP1 REVERT JUMPDEST PUSH1 0x1 SLOAD PUSH1 0x1 PUSH1 0x1 PUSH1 0xA0 SHL SUB AND PUSH2 0x7CA JUMPI PUSH1 0x40 MLOAD PUSH4 0x381B166F PUSH1 0xE1 SHL DUP2 MSTORE PUSH1 0x4 ADD PUSH1 0x40 MLOAD DUP1 SWAP2 SUB SWAP1 REVERT JUMPDEST CALLER PUSH2 0x7D3 PUSH2 0xF9A JUMP JUMPDEST PUSH1 0x6 SSTORE PUSH2 0x7DE PUSH2 0xB9D JUMP JUMPDEST PUSH1 0x5 SSTORE PUSH1 0x1 PUSH1 0x1 PUSH1 0xA0 SHL SUB DUP2 AND ISZERO PUSH2 0x825 JUMPI PUSH2 0x7F9 DUP2 PUSH2 0x47A JUMP JUMPDEST PUSH1 0x1 PUSH1 0x1 PUSH1 0xA0 SHL SUB DUP3 AND PUSH1 0x0 SWAP1 DUP2 MSTORE PUSH1 0xA PUSH1 0x20 SWAP1 DUP2 MSTORE PUSH1 0x40 DUP1 DUP4 KECCAK256 SWAP4 SWAP1 SWAP4 SSTORE PUSH1 0x6 SLOAD PUSH1 0x9 SWAP1 SWAP2 MSTORE SWAP2 SWAP1 KECCAK256 SSTORE JUMPDEST DUP2 PUSH1 0x0 SUB PUSH2 0x846 JUMPI PUSH1 0x40 MLOAD PUSH4 0x1F2A2005 PUSH1 0xE0 SHL DUP2 MSTORE PUSH1 0x4 ADD PUSH1 0x40 MLOAD DUP1 SWAP2 SUB SWAP1 REVERT JUMPDEST CALLER PUSH1 0x0 SWAP1 DUP2 MSTORE PUSH1 0x8 PUSH1 0x20 MSTORE PUSH1 0x40 SWAP1 KECCAK256 SLOAD DUP3 GT ISZERO PUSH2 0x89B JUMPI CALLER PUSH1 0x0 SWAP1 DUP2 MSTORE PUSH1 0x8 PUSH1 0x20 MSTORE PUSH1 0x40 SWAP1 DUP2 SWAP1 KECCAK256 SLOAD SWAP1 MLOAD PUSH4 0x22DF0513 PUSH1 0xE1 SHL DUP2 MSTORE PUSH2 0x892 SWAP2 DUP5 SWAP2 PUSH1 0x4 ADD SWAP2 DUP3 MSTORE PUSH1 0x20 DUP3 ADD MSTORE PUSH1 0x40 ADD SWAP1 JUMP JUMPDEST PUSH1 0x40 MLOAD DUP1 SWAP2 SUB SWAP1 REVERT JUMPDEST CALLER PUSH1 0x0 SWAP1 DUP2 MSTORE PUSH1 0x8 PUSH1 0x20 MSTORE PUSH1 0x40 DUP2 KECCAK256 DUP1 SLOAD DUP5 SWAP3 SWAP1 PUSH2 0x8BA SWAP1 DUP5 SWAP1 PUSH2 0x17E7 JUMP JUMPDEST SWAP3 POP POP DUP2 SWAP1 SSTORE POP DUP2 PUSH1 0x7 PUSH1 0x0 DUP3 DUP3 SLOAD PUSH2 0x8D3 SWAP2 SWAP1 PUSH2 0x17E7 JUMP JUMPDEST SWAP1 SWAP2 SSTORE POP POP PUSH1 0x1 SLOAD PUSH2 0x8EF SWAP1 PUSH1 0x1 PUSH1 0x1 PUSH1 0xA0 SHL SUB AND CALLER DUP5 PUSH2 0x1560 JUMP JUMPDEST PUSH1 0x40 MLOAD DUP3 DUP2 MSTORE CALLER SWAP1 PUSH32 0xF5BB82176FEB1B5E747E28471AA92156A04D9F3AB9F45F28E2D704232B93F75 SWAP1 PUSH1 0x20 ADD JUMPDEST PUSH1 0x40 MLOAD DUP1 SWAP2 SUB SWAP1 LOG2 POP PUSH2 0x93D PUSH1 0x1 PUSH1 0x0 DUP1 MLOAD PUSH1 0x20 PUSH2 0x1860 DUP4 CODECOPY DUP2 MLOAD SWAP2 MSTORE SSTORE JUMP JUMPDEST POP JUMP JUMPDEST PUSH2 0x948 PUSH2 0x14DB JUMP JUMPDEST PUSH1 0xC SLOAD PUSH2 0x100 SWAP1 DIV PUSH1 0xFF AND ISZERO PUSH2 0x971 JUMPI PUSH1 0x40 MLOAD PUSH4 0xAB35696F PUSH1 0xE0 SHL DUP2 MSTORE PUSH1 0x4 ADD PUSH1 0x40 MLOAD DUP1 SWAP2 SUB SWAP1 REVERT JUMPDEST CALLER PUSH2 0x97A PUSH2 0xF9A JUMP JUMPDEST PUSH1 0x6 SSTORE PUSH2 0x985 PUSH2 0xB9D JUMP JUMPDEST PUSH1 0x5 SSTORE PUSH1 0x1 PUSH1 0x1 PUSH1 0xA0 SHL SUB DUP2 AND ISZERO PUSH2 0x9CC JUMPI PUSH2 0x9A0 DUP2 PUSH2 0x47A JUMP JUMPDEST PUSH1 0x1 PUSH1 0x1 PUSH1 0xA0 SHL SUB DUP3 AND PUSH1 0x0 SWAP1 DUP2 MSTORE PUSH1 0xA PUSH1 0x20 SWAP1 DUP2 MSTORE PUSH1 0x40 DUP1 DUP4 KECCAK256 SWAP4 SWAP1 SWAP4 SSTORE PUSH1 0x6 SLOAD PUSH1 0x9 SWAP1 SWAP2 MSTORE SWAP2 SWAP1 KECCAK256 SSTORE JUMPDEST CALLER PUSH1 0x0 SWAP1 DUP2 MSTORE PUSH1 0xA PUSH1 0x20 MSTORE PUSH1 0x40 DUP2 KECCAK256 SLOAD SWAP1 DUP2 SWAP1 SUB PUSH2 0x9FD JUMPI PUSH1 0x40 MLOAD PUSH4 0x5B8F50BF PUSH1 0xE1 SHL DUP2 MSTORE PUSH1 0x4 ADD PUSH1 0x40 MLOAD DUP1 SWAP2 SUB SWAP1 REVERT JUMPDEST PUSH1 0x40 MLOAD PUSH4 0x70A08231 PUSH1 0xE0 SHL DUP2 MSTORE ADDRESS PUSH1 0x4 DUP3 ADD MSTORE PUSH1 0x0 SWAP1 PUSH32 0x0 PUSH1 0x1 PUSH1 0x1 PUSH1 0xA0 SHL SUB AND SWAP1 PUSH4 0x70A08231 SWAP1 PUSH1 0x24 ADD PUSH1 0x20 PUSH1 0x40 MLOAD DUP1 DUP4 SUB DUP2 DUP7 GAS STATICCALL ISZERO DUP1 ISZERO PUSH2 0xA64 JUMPI RETURNDATASIZE PUSH1 0x0 DUP1 RETURNDATACOPY RETURNDATASIZE PUSH1 0x0 REVERT JUMPDEST POP POP POP POP PUSH1 0x40 MLOAD RETURNDATASIZE PUSH1 0x1F NOT PUSH1 0x1F DUP3 ADD AND DUP3 ADD DUP1 PUSH1 0x40 MSTORE POP DUP2 ADD SWAP1 PUSH2 0xA88 SWAP2 SWAP1 PUSH2 0x1846 JUMP JUMPDEST SWAP1 POP DUP1 DUP3 GT ISZERO PUSH2 0xAB5 JUMPI PUSH1 0x40 MLOAD PUSH4 0x65AC9D43 PUSH1 0xE0 SHL DUP2 MSTORE PUSH1 0x4 DUP2 ADD DUP4 SWAP1 MSTORE PUSH1 0x24 DUP2 ADD DUP3 SWAP1 MSTORE PUSH1 0x44 ADD PUSH2 0x892 JUMP JUMPDEST CALLER PUSH1 0x0 DUP2 DUP2 MSTORE PUSH1 0xA PUSH1 0x20 MSTORE PUSH1 0x40 DUP2 KECCAK256 SSTORE PUSH2 0xAFA SWAP1 PUSH32 0x0 PUSH1 0x1 PUSH1 0x1 PUSH1 0xA0 SHL SUB AND SWAP1 DUP5 PUSH2 0x1560 JUMP JUMPDEST PUSH1 0x40 MLOAD DUP3 DUP2 MSTORE CALLER SWAP1 PUSH32 0xFC30CDDEA38E2BF4D6EA7D3F9ED3B6AD7F176419F4963BD81318067A4AEE73FE SWAP1 PUSH1 0x20 ADD PUSH1 0x40 MLOAD DUP1 SWAP2 SUB SWAP1 LOG2 POP POP POP PUSH2 0xB49 PUSH1 0x1 PUSH1 0x0 DUP1 MLOAD PUSH1 0x20 PUSH2 0x1860 DUP4 CODECOPY DUP2 MLOAD SWAP2 MSTORE SSTORE JUMP JUMPDEST JUMP JUMPDEST PUSH2 0xB53 PUSH2 0x1533 JUMP JUMPDEST PUSH1 0xC DUP1 SLOAD PUSH2 0xFF00 NOT AND SWAP1 SSTORE PUSH1 0x40 MLOAD CALLER SWAP1 PUSH32 0x5DB9EE0A495BF2E6FF9C91A7834C1BA4FDD244A5E8AA4E537BD38AEAE4B073AA SWAP1 PUSH1 0x0 SWAP1 LOG2 JUMP JUMPDEST PUSH2 0xB93 PUSH2 0x1533 JUMP JUMPDEST PUSH2 0xB49 PUSH1 0x0 PUSH2 0x159A JUMP JUMPDEST PUSH1 0x0 PUSH1 0x4 SLOAD TIMESTAMP LT PUSH2 0xBAF JUMPI POP PUSH1 0x4 SLOAD SWAP1 JUMP JUMPDEST TIMESTAMP JUMPDEST SWAP1 POP SWAP1 JUMP JUMPDEST PUSH2 0xBBE PUSH2 0x1533 JUMP JUMPDEST PUSH1 0xC DUP1 SLOAD PUSH2 0xFF00 NOT AND PUSH2 0x100 OR SWAP1 SSTORE PUSH1 0x40 MLOAD CALLER SWAP1 PUSH32 0x62E78CEA01BEE320CD4E420270B5EA74000D11B0C9F74754EBDBFC544B05A258 SWAP1 PUSH1 0x0 SWAP1 LOG2 JUMP JUMPDEST PUSH2 0xC02 PUSH2 0x1533 JUMP JUMPDEST PUSH1 0x1 SLOAD PUSH1 0x1 PUSH1 0x1 PUSH1 0xA0 SHL SUB SWAP1 DUP2 AND SWAP1 DUP4 AND SUB PUSH2 0xCC2 JUMPI PUSH1 0x7 SLOAD PUSH1 0x1 SLOAD PUSH1 0x40 MLOAD PUSH4 0x70A08231 PUSH1 0xE0 SHL DUP2 MSTORE ADDRESS PUSH1 0x4 DUP3 ADD MSTORE PUSH1 0x0 SWAP3 SWAP2 PUSH1 0x1 PUSH1 0x1 PUSH1 0xA0 SHL SUB AND SWAP1 PUSH4 0x70A08231 SWAP1 PUSH1 0x24 ADD PUSH1 0x20 PUSH1 0x40 MLOAD DUP1 DUP4 SUB DUP2 DUP7 GAS STATICCALL ISZERO DUP1 ISZERO PUSH2 0xC65 JUMPI RETURNDATASIZE PUSH1 0x0 DUP1 RETURNDATACOPY RETURNDATASIZE PUSH1 0x0 REVERT JUMPDEST POP POP POP POP PUSH1 0x40 MLOAD RETURNDATASIZE PUSH1 0x1F NOT PUSH1 0x1F DUP3 ADD AND DUP3 ADD DUP1 PUSH1 0x40 MSTORE POP DUP2 ADD SWAP1 PUSH2 0xC89 SWAP2 SWAP1 PUSH2 0x1846 JUMP JUMPDEST PUSH2 0xC93 SWAP2 SWAP1 PUSH2 0x17E7 JUMP JUMPDEST SWAP1 POP DUP1 DUP3 GT ISZERO PUSH2 0xCC0 JUMPI PUSH1 0x40 MLOAD PUSH4 0x65AC9D43 PUSH1 0xE0 SHL DUP2 MSTORE PUSH1 0x4 DUP2 ADD DUP4 SWAP1 MSTORE PUSH1 0x24 DUP2 ADD DUP3 SWAP1 MSTORE PUSH1 0x44 ADD PUSH2 0x892 JUMP JUMPDEST POP JUMPDEST PUSH2 0x6DE PUSH2 0xCD7 PUSH1 0x0 SLOAD PUSH1 0x1 PUSH1 0x1 PUSH1 0xA0 SHL SUB AND SWAP1 JUMP JUMPDEST PUSH1 0x1 PUSH1 0x1 PUSH1 0xA0 SHL SUB DUP5 AND SWAP1 DUP4 PUSH2 0x1560 JUMP JUMPDEST PUSH2 0xCF0 PUSH2 0x1533 JUMP JUMPDEST PUSH1 0x0 PUSH2 0xCFA PUSH2 0xF9A JUMP JUMPDEST PUSH1 0x6 SSTORE PUSH2 0xD05 PUSH2 0xB9D JUMP JUMPDEST PUSH1 0x5 SSTORE PUSH1 0x1 PUSH1 0x1 PUSH1 0xA0 SHL SUB DUP2 AND ISZERO PUSH2 0xD4C JUMPI PUSH2 0xD20 DUP2 PUSH2 0x47A JUMP JUMPDEST PUSH1 0x1 PUSH1 0x1 PUSH1 0xA0 SHL SUB DUP3 AND PUSH1 0x0 SWAP1 DUP2 MSTORE PUSH1 0xA PUSH1 0x20 SWAP1 DUP2 MSTORE PUSH1 0x40 DUP1 DUP4 KECCAK256 SWAP4 SWAP1 SWAP4 SSTORE PUSH1 0x6 SLOAD PUSH1 0x9 SWAP1 SWAP2 MSTORE SWAP2 SWAP1 KECCAK256 SSTORE JUMPDEST PUSH1 0x3 DUP3 SWAP1 SSTORE PUSH1 0x40 MLOAD DUP3 DUP2 MSTORE PUSH32 0x8CBFAFC8E0D9C5C81401C4B9C6E7D201198ADC7EB8F8F1556C195ECD4C0A0E7B SWAP1 PUSH1 0x20 ADD PUSH1 0x40 MLOAD DUP1 SWAP2 SUB SWAP1 LOG1 POP POP JUMP JUMPDEST PUSH2 0xD90 PUSH2 0x1533 JUMP JUMPDEST PUSH1 0x1 PUSH1 0x1 PUSH1 0xA0 SHL SUB DUP2 AND PUSH2 0xDB7 JUMPI PUSH1 0x40 MLOAD PUSH4 0xD92E233D PUSH1 0xE0 SHL DUP2 MSTORE PUSH1 0x4 ADD PUSH1 0x40 MLOAD DUP1 SWAP2 SUB SWAP1 REVERT JUMPDEST PUSH1 0xC SLOAD PUSH1 0xFF AND ISZERO PUSH2 0xDDB JUMPI PUSH1 0x40 MLOAD PUSH4 0xAE0CD54F PUSH1 0xE0 SHL DUP2 MSTORE PUSH1 0x4 ADD PUSH1 0x40 MLOAD DUP1 SWAP2 SUB SWAP1 REVERT JUMPDEST PUSH1 0x1 DUP1 SLOAD PUSH1 0x1 PUSH1 0x1 PUSH1 0xA0 SHL SUB NOT AND PUSH1 0x1 PUSH1 0x1 PUSH1 0xA0 SHL SUB DUP4 AND SWAP1 DUP2 OR SWAP1 SWAP2 SSTORE PUSH1 0x40 MLOAD PUSH32 0x1C1820B4910E7E24202FA882184FDE52E795A3113B621DED50B099B270159ACC SWAP1 PUSH1 0x0 SWAP1 LOG2 POP JUMP JUMPDEST PUSH2 0xE2D PUSH2 0x14DB JUMP JUMPDEST PUSH1 0xC SLOAD PUSH2 0x100 SWAP1 DIV PUSH1 0xFF AND ISZERO PUSH2 0xE56 JUMPI PUSH1 0x40 MLOAD PUSH4 0xAB35696F PUSH1 0xE0 SHL DUP2 MSTORE PUSH1 0x4 ADD PUSH1 0x40 MLOAD DUP1 SWAP2 SUB SWAP1 REVERT JUMPDEST PUSH1 0x1 SLOAD PUSH1 0x1 PUSH1 0x1 PUSH1 0xA0 SHL SUB AND PUSH2 0xE7F JUMPI PUSH1 0x40 MLOAD PUSH4 0x381B166F PUSH1 0xE1 SHL DUP2 MSTORE PUSH1 0x4 ADD PUSH1 0x40 MLOAD DUP1 SWAP2 SUB SWAP1 REVERT JUMPDEST CALLER PUSH2 0xE88 PUSH2 0xF9A JUMP JUMPDEST PUSH1 0x6 SSTORE PUSH2 0xE93 PUSH2 0xB9D JUMP JUMPDEST PUSH1 0x5 SSTORE PUSH1 0x1 PUSH1 0x1 PUSH1 0xA0 SHL SUB DUP2 AND ISZERO PUSH2 0xEDA JUMPI PUSH2 0xEAE DUP2 PUSH2 0x47A JUMP JUMPDEST PUSH1 0x1 PUSH1 0x1 PUSH1 0xA0 SHL SUB DUP3 AND PUSH1 0x0 SWAP1 DUP2 MSTORE PUSH1 0xA PUSH1 0x20 SWAP1 DUP2 MSTORE PUSH1 0x40 DUP1 DUP4 KECCAK256 SWAP4 SWAP1 SWAP4 SSTORE PUSH1 0x6 SLOAD PUSH1 0x9 SWAP1 SWAP2 MSTORE SWAP2 SWAP1 KECCAK256 SSTORE JUMPDEST DUP2 PUSH1 0x0 SUB PUSH2 0xEFB JUMPI PUSH1 0x40 MLOAD PUSH4 0x1F2A2005 PUSH1 0xE0 SHL DUP2 MSTORE PUSH1 0x4 ADD PUSH1 0x40 MLOAD DUP1 SWAP2 SUB SWAP1 REVERT JUMPDEST PUSH1 0xC SLOAD PUSH1 0xFF AND PUSH2 0xF13 JUMPI PUSH1 0xC DUP1 SLOAD PUSH1 0xFF NOT AND PUSH1 0x1 OR SWAP1 SSTORE JUMPDEST CALLER PUSH1 0x0 SWAP1 DUP2 MSTORE PUSH1 0x8 PUSH1 0x20 MSTORE PUSH1 0x40 DUP2 KECCAK256 DUP1 SLOAD DUP5 SWAP3 SWAP1 PUSH2 0xF32 SWAP1 DUP5 SWAP1 PUSH2 0x1833 JUMP JUMPDEST SWAP3 POP POP DUP2 SWAP1 SSTORE POP DUP2 PUSH1 0x7 PUSH1 0x0 DUP3 DUP3 SLOAD PUSH2 0xF4B SWAP2 SWAP1 PUSH2 0x1833 JUMP JUMPDEST SWAP1 SWAP2 SSTORE POP POP PUSH1 0x1 SLOAD PUSH2 0xF68 SWAP1 PUSH1 0x1 PUSH1 0x1 PUSH1 0xA0 SHL SUB AND CALLER ADDRESS DUP6 PUSH2 0x14F7 JUMP JUMPDEST PUSH1 0x40 MLOAD DUP3 DUP2 MSTORE CALLER SWAP1 PUSH32 0x9E71BC8EEA02A63969F509818F2DAFB9254532904319F9DBDA79B67BD34A5F3D SWAP1 PUSH1 0x20 ADD PUSH2 0x91D JUMP JUMPDEST PUSH1 0x0 PUSH1 0x7 SLOAD PUSH1 0x0 SUB PUSH2 0xFAD JUMPI POP PUSH1 0x6 SLOAD SWAP1 JUMP JUMPDEST PUSH1 0x7 SLOAD PUSH1 0x3 SLOAD PUSH1 0x5 SLOAD PUSH2 0xFBE PUSH2 0xB9D JUMP JUMPDEST PUSH2 0xFC8 SWAP2 SWAP1 PUSH2 0x17E7 JUMP JUMPDEST PUSH2 0xFD2 SWAP2 SWAP1 PUSH2 0x17FA JUMP JUMPDEST PUSH2 0xFE4 SWAP1 PUSH8 0xDE0B6B3A7640000 PUSH2 0x17FA JUMP JUMPDEST PUSH2 0xFEE SWAP2 SWAP1 PUSH2 0x1811 JUMP JUMPDEST PUSH1 0x6 SLOAD PUSH2 0xBB1 SWAP2 SWAP1 PUSH2 0x1833 JUMP JUMPDEST PUSH2 0x1003 PUSH2 0x14DB JUMP JUMPDEST CALLER PUSH1 0x0 SWAP1 DUP2 MSTORE PUSH1 0x8 PUSH1 0x20 MSTORE PUSH1 0x40 DUP2 KECCAK256 SLOAD SWAP1 DUP2 SWAP1 SUB PUSH2 0x1034 JUMPI PUSH1 0x40 MLOAD PUSH4 0x1F2A2005 PUSH1 0xE0 SHL DUP2 MSTORE PUSH1 0x4 ADD PUSH1 0x40 MLOAD DUP1 SWAP2 SUB SWAP1 REVERT JUMPDEST CALLER PUSH1 0x0 SWAP1 DUP2 MSTORE PUSH1 0x8 PUSH1 0x20 SWAP1 DUP2 MSTORE PUSH1 0x40 DUP1 DUP4 KECCAK256 DUP4 SWAP1 SSTORE PUSH1 0xA DUP3 MSTORE DUP1 DUP4 KECCAK256 DUP4 SWAP1 SSTORE PUSH1 0x9 SWAP1 SWAP2 MSTORE DUP2 KECCAK256 DUP2 SWAP1 SSTORE PUSH1 0x7 DUP1 SLOAD DUP4 SWAP3 SWAP1 PUSH2 0x106F SWAP1 DUP5 SWAP1 PUSH2 0x17E7 JUMP JUMPDEST SWAP1 SWAP2 SSTORE POP POP PUSH1 0x1 SLOAD PUSH2 0x108B SWAP1 PUSH1 0x1 PUSH1 0x1 PUSH1 0xA0 SHL SUB AND CALLER DUP4 PUSH2 0x1560 JUMP JUMPDEST PUSH1 0x40 MLOAD DUP2 DUP2 MSTORE CALLER SWAP1 PUSH32 0x5FAFA99D0643513820BE26656B45130B01E1C03062E1266BF36F88CBD3BD9695 SWAP1 PUSH1 0x20 ADD PUSH1 0x40 MLOAD DUP1 SWAP2 SUB SWAP1 LOG2 POP PUSH2 0xB49 PUSH1 0x1 PUSH1 0x0 DUP1 MLOAD PUSH1 0x20 PUSH2 0x1860 DUP4 CODECOPY DUP2 MLOAD SWAP2 MSTORE SSTORE JUMP JUMPDEST PUSH2 0x10E0 PUSH2 0x14DB JUMP JUMPDEST PUSH1 0xC SLOAD PUSH2 0x100 SWAP1 DIV PUSH1 0xFF AND ISZERO PUSH2 0x1109 JUMPI PUSH1 0x40 MLOAD PUSH4 0xAB35696F PUSH1 0xE0 SHL DUP2 MSTORE PUSH1 0x4 ADD PUSH1 0x40 MLOAD DUP1 SWAP2 SUB SWAP1 REVERT JUMPDEST PUSH1 0x1 SLOAD PUSH1 0x1 PUSH1 0x1 PUSH1 0xA0 SHL SUB AND PUSH2 0x1132 JUMPI PUSH1 0x40 MLOAD PUSH4 0x381B166F PUSH1 0xE1 SHL DUP2 MSTORE PUSH1 0x4 ADD PUSH1 0x40 MLOAD DUP1 SWAP2 SUB SWAP1 REVERT JUMPDEST CALLER PUSH2 0x113B PUSH2 0xF9A JUMP JUMPDEST PUSH1 0x6 SSTORE PUSH2 0x1146 PUSH2 0xB9D JUMP JUMPDEST PUSH1 0x5 SSTORE PUSH1 0x1 PUSH1 0x1 PUSH1 0xA0 SHL SUB DUP2 AND ISZERO PUSH2 0x118D JUMPI PUSH2 0x1161 DUP2 PUSH2 0x47A JUMP JUMPDEST PUSH1 0x1 PUSH1 0x1 PUSH1 0xA0 SHL SUB DUP3 AND PUSH1 0x0 SWAP1 DUP2 MSTORE PUSH1 0xA PUSH1 0x20 SWAP1 DUP2 MSTORE PUSH1 0x40 DUP1 DUP4 KECCAK256 SWAP4 SWAP1 SWAP4 SSTORE PUSH1 0x6 SLOAD PUSH1 0x9 SWAP1 SWAP2 MSTORE SWAP2 SWAP1 KECCAK256 SSTORE JUMPDEST CALLER PUSH1 0x0 SWAP1 DUP2 MSTORE PUSH1 0x8 PUSH1 0x20 SWAP1 DUP2 MSTORE PUSH1 0x40 DUP1 DUP4 KECCAK256 SLOAD PUSH1 0xA SWAP1 SWAP3 MSTORE SWAP1 SWAP2 KECCAK256 SLOAD DUP2 ISZERO PUSH2 0x1225 JUMPI CALLER PUSH1 0x0 SWAP1 DUP2 MSTORE PUSH1 0x8 PUSH1 0x20 MSTORE PUSH1 0x40 DUP2 KECCAK256 DUP2 SWAP1 SSTORE PUSH1 0x7 DUP1 SLOAD DUP5 SWAP3 SWAP1 PUSH2 0x11D3 SWAP1 DUP5 SWAP1 PUSH2 0x17E7 JUMP JUMPDEST SWAP1 SWAP2 SSTORE POP POP PUSH1 0x1 SLOAD PUSH2 0x11EF SWAP1 PUSH1 0x1 PUSH1 0x1 PUSH1 0xA0 SHL SUB AND CALLER DUP5 PUSH2 0x1560 JUMP JUMPDEST PUSH1 0x40 MLOAD DUP3 DUP2 MSTORE CALLER SWAP1 PUSH32 0xF5BB82176FEB1B5E747E28471AA92156A04D9F3AB9F45F28E2D704232B93F75 SWAP1 PUSH1 0x20 ADD PUSH1 0x40 MLOAD DUP1 SWAP2 SUB SWAP1 LOG2 JUMPDEST DUP1 ISZERO PUSH2 0x133C JUMPI PUSH1 0x40 MLOAD PUSH4 0x70A08231 PUSH1 0xE0 SHL DUP2 MSTORE ADDRESS PUSH1 0x4 DUP3 ADD MSTORE PUSH1 0x0 SWAP1 PUSH32 0x0 PUSH1 0x1 PUSH1 0x1 PUSH1 0xA0 SHL SUB AND SWAP1 PUSH4 0x70A08231 SWAP1 PUSH1 0x24 ADD PUSH1 0x20 PUSH1 0x40 MLOAD DUP1 DUP4 SUB DUP2 DUP7 GAS STATICCALL ISZERO DUP1 ISZERO PUSH2 0x1292 JUMPI RETURNDATASIZE PUSH1 0x0 DUP1 RETURNDATACOPY RETURNDATASIZE PUSH1 0x0 REVERT JUMPDEST POP POP POP POP PUSH1 0x40 MLOAD RETURNDATASIZE PUSH1 0x1F NOT PUSH1 0x1F DUP3 ADD AND DUP3 ADD DUP1 PUSH1 0x40 MSTORE POP DUP2 ADD SWAP1 PUSH2 0x12B6 SWAP2 SWAP1 PUSH2 0x1846 JUMP JUMPDEST SWAP1 POP DUP1 DUP3 GT PUSH2 0x133A JUMPI CALLER PUSH1 0x0 DUP2 DUP2 MSTORE PUSH1 0xA PUSH1 0x20 MSTORE PUSH1 0x40 DUP2 KECCAK256 SSTORE PUSH2 0x1304 SWAP1 PUSH32 0x0 PUSH1 0x1 PUSH1 0x1 PUSH1 0xA0 SHL SUB AND SWAP1 DUP5 PUSH2 0x1560 JUMP JUMPDEST PUSH1 0x40 MLOAD DUP3 DUP2 MSTORE CALLER SWAP1 PUSH32 0xFC30CDDEA38E2BF4D6EA7D3F9ED3B6AD7F176419F4963BD81318067A4AEE73FE SWAP1 PUSH1 0x20 ADD PUSH1 0x40 MLOAD DUP1 SWAP2 SUB SWAP1 LOG2 JUMPDEST POP JUMPDEST POP POP POP PUSH2 0xB49 PUSH1 0x1 PUSH1 0x0 DUP1 MLOAD PUSH1 0x20 PUSH2 0x1860 DUP4 CODECOPY DUP2 MLOAD SWAP2 MSTORE SSTORE JUMP JUMPDEST PUSH2 0x135E PUSH2 0x1533 JUMP JUMPDEST PUSH1 0x1 PUSH1 0x1 PUSH1 0xA0 SHL SUB DUP2 AND PUSH2 0x1385 JUMPI PUSH1 0x40 MLOAD PUSH4 0xD92E233D PUSH1 0xE0 SHL DUP2 MSTORE PUSH1 0x4 ADD PUSH1 0x40 MLOAD DUP1 SWAP2 SUB SWAP1 REVERT JUMPDEST PUSH1 0x2 SLOAD PUSH1 0x1 PUSH1 0x1 PUSH1 0xA0 SHL SUB AND ISZERO PUSH2 0x13B9 JUMPI PUSH1 0x2 SLOAD PUSH1 0x1 PUSH1 0x1 PUSH1 0xA0 SHL SUB AND PUSH1 0x0 SWAP1 DUP2 MSTORE PUSH1 0xB PUSH1 0x20 MSTORE PUSH1 0x40 SWAP1 KECCAK256 DUP1 SLOAD PUSH1 0xFF NOT AND SWAP1 SSTORE JUMPDEST PUSH1 0x2 DUP1 SLOAD PUSH1 0x1 PUSH1 0x1 PUSH1 0xA0 SHL SUB NOT AND PUSH1 0x1 PUSH1 0x1 PUSH1 0xA0 SHL SUB DUP4 AND SWAP1 DUP2 OR SWAP1 SWAP2 SSTORE PUSH1 0x0 DUP2 DUP2 MSTORE PUSH1 0xB PUSH1 0x20 MSTORE PUSH1 0x40 DUP1 DUP3 KECCAK256 DUP1 SLOAD PUSH1 0xFF NOT AND PUSH1 0x1 OR SWAP1 SSTORE MLOAD PUSH32 0x3C864541EF71378C6229510ED90F376565EE42D9C5E0904A984A9E863E6DB44F SWAP2 SWAP1 LOG2 PUSH1 0x40 MLOAD PUSH1 0x1 DUP2 MSTORE PUSH1 0x1 PUSH1 0x1 PUSH1 0xA0 SHL SUB DUP3 AND SWAP1 PUSH32 0xB33CA1DABFB28A2E1BD06B332C396B1A3D538278691341A5503BBAD53F919197 SWAP1 PUSH1 0x20 ADD PUSH1 0x40 MLOAD DUP1 SWAP2 SUB SWAP1 LOG2 POP JUMP JUMPDEST PUSH2 0x1460 PUSH2 0x1533 JUMP JUMPDEST PUSH1 0x1 PUSH1 0x1 PUSH1 0xA0 SHL SUB DUP2 AND PUSH2 0x148A JUMPI PUSH1 0x40 MLOAD PUSH4 0x1E4FBDF7 PUSH1 0xE0 SHL DUP2 MSTORE PUSH1 0x0 PUSH1 0x4 DUP3 ADD MSTORE PUSH1 0x24 ADD PUSH2 0x892 JUMP JUMPDEST PUSH2 0x93D DUP2 PUSH2 0x159A JUMP JUMPDEST PUSH1 0x0 PUSH1 0x7 SLOAD PUSH1 0x0 SUB PUSH2 0x14A5 JUMPI POP PUSH1 0x0 SWAP1 JUMP JUMPDEST PUSH1 0x0 PUSH1 0x3 SLOAD PUSH4 0x1E13380 PUSH2 0x14B9 SWAP2 SWAP1 PUSH2 0x17FA JUMP JUMPDEST PUSH1 0x7 SLOAD SWAP1 SWAP2 POP PUSH2 0x14CB DUP3 PUSH2 0x2710 PUSH2 0x17FA JUMP JUMPDEST PUSH2 0x14D5 SWAP2 SWAP1 PUSH2 0x1811 JUMP JUMPDEST SWAP2 POP POP SWAP1 JUMP JUMPDEST PUSH2 0x14E3 PUSH2 0x15EA JUMP JUMPDEST PUSH1 0x2 PUSH1 0x0 DUP1 MLOAD PUSH1 0x20 PUSH2 0x1860 DUP4 CODECOPY DUP2 MLOAD SWAP2 MSTORE SSTORE JUMP JUMPDEST PUSH2 0x1505 DUP5 DUP5 DUP5 DUP5 PUSH1 0x1 PUSH2 0x161A JUMP JUMPDEST PUSH2 0x152D JUMPI PUSH1 0x40 MLOAD PUSH4 0x5274AFE7 PUSH1 0xE0 SHL DUP2 MSTORE PUSH1 0x1 PUSH1 0x1 PUSH1 0xA0 SHL SUB DUP6 AND PUSH1 0x4 DUP3 ADD MSTORE PUSH1 0x24 ADD PUSH2 0x892 JUMP JUMPDEST POP POP POP POP JUMP JUMPDEST PUSH1 0x0 SLOAD PUSH1 0x1 PUSH1 0x1 PUSH1 0xA0 SHL SUB AND CALLER EQ PUSH2 0xB49 JUMPI PUSH1 0x40 MLOAD PUSH4 0x118CDAA7 PUSH1 0xE0 SHL DUP2 MSTORE CALLER PUSH1 0x4 DUP3 ADD MSTORE PUSH1 0x24 ADD PUSH2 0x892 JUMP JUMPDEST PUSH2 0x156D DUP4 DUP4 DUP4 PUSH1 0x1 PUSH2 0x168C JUMP JUMPDEST PUSH2 0x1595 JUMPI PUSH1 0x40 MLOAD PUSH4 0x5274AFE7 PUSH1 0xE0 SHL DUP2 MSTORE PUSH1 0x1 PUSH1 0x1 PUSH1 0xA0 SHL SUB DUP5 AND PUSH1 0x4 DUP3 ADD MSTORE PUSH1 0x24 ADD PUSH2 0x892 JUMP JUMPDEST POP POP POP JUMP JUMPDEST PUSH1 0x0 DUP1 SLOAD PUSH1 0x1 PUSH1 0x1 PUSH1 0xA0 SHL SUB DUP4 DUP2 AND PUSH1 0x1 PUSH1 0x1 PUSH1 0xA0 SHL SUB NOT DUP4 AND DUP2 OR DUP5 SSTORE PUSH1 0x40 MLOAD SWAP2 SWAP1 SWAP3 AND SWAP3 DUP4 SWAP2 PUSH32 0x8BE0079C531659141344CD1FD0A4F28419497F9722A3DAAFE3B4186F6B6457E0 SWAP2 SWAP1 LOG3 POP POP JUMP JUMPDEST PUSH1 0x0 DUP1 MLOAD PUSH1 0x20 PUSH2 0x1860 DUP4 CODECOPY DUP2 MLOAD SWAP2 MSTORE SLOAD PUSH1 0x2 SUB PUSH2 0xB49 JUMPI PUSH1 0x40 MLOAD PUSH4 0x3EE5AEB5 PUSH1 0xE0 SHL DUP2 MSTORE PUSH1 0x4 ADD PUSH1 0x40 MLOAD DUP1 SWAP2 SUB SWAP1 REVERT JUMPDEST PUSH1 0x40 MLOAD PUSH4 0x23B872DD PUSH1 0xE0 SHL PUSH1 0x0 DUP2 DUP2 MSTORE PUSH1 0x1 PUSH1 0x1 PUSH1 0xA0 SHL SUB DUP8 DUP2 AND PUSH1 0x4 MSTORE DUP7 AND PUSH1 0x24 MSTORE PUSH1 0x44 DUP6 SWAP1 MSTORE SWAP2 PUSH1 0x20 DUP4 PUSH1 0x64 DUP2 DUP1 DUP13 GAS CALL SWAP3 POP PUSH1 0x1 PUSH1 0x0 MLOAD EQ DUP4 AND PUSH2 0x167A JUMPI DUP4 DUP4 ISZERO AND ISZERO PUSH2 0x166D JUMPI RETURNDATASIZE PUSH1 0x0 DUP3 RETURNDATACOPY RETURNDATASIZE DUP2 REVERT JUMPDEST PUSH1 0x0 DUP9 EXTCODESIZE GT RETURNDATASIZE ISZERO AND DUP4 AND SWAP3 POP JUMPDEST PUSH1 0x40 MSTORE POP PUSH1 0x0 PUSH1 0x60 MSTORE SWAP6 SWAP5 POP POP POP POP POP JUMP JUMPDEST PUSH1 0x40 MLOAD PUSH4 0xA9059CBB PUSH1 0xE0 SHL PUSH1 0x0 DUP2 DUP2 MSTORE PUSH1 0x1 PUSH1 0x1 PUSH1 0xA0 SHL SUB DUP7 AND PUSH1 0x4 MSTORE PUSH1 0x24 DUP6 SWAP1 MSTORE SWAP2 PUSH1 0x20 DUP4 PUSH1 0x44 DUP2 DUP1 DUP12 GAS CALL SWAP3 POP PUSH1 0x1 PUSH1 0x0 MLOAD EQ DUP4 AND PUSH2 0x16E6 JUMPI DUP4 DUP4 ISZERO AND ISZERO PUSH2 0x16D9 JUMPI RETURNDATASIZE PUSH1 0x0 DUP3 RETURNDATACOPY RETURNDATASIZE DUP2 REVERT JUMPDEST PUSH1 0x0 DUP8 EXTCODESIZE GT RETURNDATASIZE ISZERO AND DUP4 AND SWAP3 POP JUMPDEST PUSH1 0x40 MSTORE POP SWAP5 SWAP4 POP POP POP POP JUMP JUMPDEST DUP1 CALLDATALOAD PUSH1 0x1 PUSH1 0x1 PUSH1 0xA0 SHL SUB DUP2 AND DUP2 EQ PUSH2 0x1709 JUMPI PUSH1 0x0 DUP1 REVERT JUMPDEST SWAP2 SWAP1 POP JUMP JUMPDEST PUSH1 0x0 PUSH1 0x20 DUP3 DUP5 SUB SLT ISZERO PUSH2 0x1720 JUMPI PUSH1 0x0 DUP1 REVERT JUMPDEST PUSH2 0x1729 DUP3 PUSH2 0x16F2 JUMP JUMPDEST SWAP4 SWAP3 POP POP POP JUMP JUMPDEST PUSH1 0x0 DUP1 PUSH1 0x40 DUP4 DUP6 SUB SLT ISZERO PUSH2 0x1743 JUMPI PUSH1 0x0 DUP1 REVERT JUMPDEST POP POP DUP1 CALLDATALOAD SWAP3 PUSH1 0x20 SWAP1 SWAP2 ADD CALLDATALOAD SWAP2 POP JUMP JUMPDEST PUSH1 0x0 DUP1 PUSH1 0x40 DUP4 DUP6 SUB SLT ISZERO PUSH2 0x1765 JUMPI PUSH1 0x0 DUP1 REVERT JUMPDEST PUSH2 0x176E DUP4 PUSH2 0x16F2 JUMP JUMPDEST SWAP2 POP PUSH1 0x20 DUP4 ADD CALLDATALOAD DUP1 ISZERO ISZERO DUP2 EQ PUSH2 0x1783 JUMPI PUSH1 0x0 DUP1 REVERT JUMPDEST DUP1 SWAP2 POP POP SWAP3 POP SWAP3 SWAP1 POP JUMP JUMPDEST PUSH1 0x0 PUSH1 0x20 DUP3 DUP5 SUB SLT ISZERO PUSH2 0x17A0 JUMPI PUSH1 0x0 DUP1 REVERT JUMPDEST POP CALLDATALOAD SWAP2 SWAP1 POP JUMP JUMPDEST PUSH1 0x0 DUP1 PUSH1 0x40 DUP4 DUP6 SUB SLT ISZERO PUSH2 0x17BA JUMPI PUSH1 0x0 DUP1 REVERT JUMPDEST PUSH2 0x17C3 DUP4 PUSH2 0x16F2 JUMP JUMPDEST SWAP5 PUSH1 0x20 SWAP4 SWAP1 SWAP4 ADD CALLDATALOAD SWAP4 POP POP POP JUMP JUMPDEST PUSH4 0x4E487B71 PUSH1 0xE0 SHL PUSH1 0x0 MSTORE PUSH1 0x11 PUSH1 0x4 MSTORE PUSH1 0x24 PUSH1 0x0 REVERT JUMPDEST DUP2 DUP2 SUB DUP2 DUP2 GT ISZERO PUSH2 0x4F1 JUMPI PUSH2 0x4F1 PUSH2 0x17D1 JUMP JUMPDEST DUP1 DUP3 MUL DUP2 ISZERO DUP3 DUP3 DIV DUP5 EQ OR PUSH2 0x4F1 JUMPI PUSH2 0x4F1 PUSH2 0x17D1 JUMP JUMPDEST PUSH1 0x0 DUP3 PUSH2 0x182E JUMPI PUSH4 0x4E487B71 PUSH1 0xE0 SHL PUSH1 0x0 MSTORE PUSH1 0x12 PUSH1 0x4 MSTORE PUSH1 0x24 PUSH1 0x0 REVERT JUMPDEST POP DIV SWAP1 JUMP JUMPDEST DUP1 DUP3 ADD DUP1 DUP3 GT ISZERO PUSH2 0x4F1 JUMPI PUSH2 0x4F1 PUSH2 0x17D1 JUMP JUMPDEST PUSH1 0x0 PUSH1 0x20 DUP3 DUP5 SUB SLT ISZERO PUSH2 0x1858 JUMPI PUSH1 0x0 DUP1 REVERT JUMPDEST POP MLOAD SWAP2 SWAP1 POP JUMP INVALID SWAP12 PUSH24 0x9B17422D0DF92223018B32B4D1FA46E071723D6817E2486D STOP EXTCODESIZE 0xEC 0xC5 PUSH0 STOP LOG2 PUSH5 0x6970667358 0x22 SLT KECCAK256 MSTORE 0xD0 0xCD EXP 0xB8 SWAP15 0xC1 0xD1 DUP10 0xC 0xE NOT LOG0 DUP11 0xFB ADDRESS CALLDATACOPY 0xA8 EXTCODESIZE 0x25 PUSH18 0x8AB1C91D9A18CF968E707364736F6C634300 ADDMOD EQ STOP CALLER "
				},
				"gasEstimates": {
					"creation": {
						"codeDepositCost": "1265000",
						"executionCost": "infinite",
						"totalCost": "infinite"
					},
					"external": {
						"claimRewards()": "infinite",
						"earned(address)": "infinite",
						"emergencyWithdraw()": "infinite",
						"estimatedEmissionsAPR()": "infinite",
						"exit()": "infinite",
						"lastTimeRewardApplicable()": "4533",
						"lastUpdateTime()": "2395",
						"lpToken()": "2449",
						"lpTokenLocked()": "2378",
						"notifyRewardAmount(uint256,uint256)": "infinite",
						"owner()": "2443",
						"pause()": "27726",
						"paused()": "2389",
						"pendingRewards(address)": "2598",
						"periodFinish()": "2350",
						"recoverERC20(address,uint256)": "infinite",
						"renounceOwnership()": "infinite",
						"rewardNotifiers(address)": "2598",
						"rewardPerToken()": "infinite",
						"rewardPerTokenStored()": "2395",
						"rewardRatePerSecond()": "2374",
						"setLpToken(address)": "30102",
						"setRewardNotifier(address,bool)": "28445",
						"setRewardRate(uint256)": "78360",
						"setTreasury(address)": "82283",
						"stake(uint256)": "infinite",
						"stakedBalance(address)": "2553",
						"timbsToken()": "infinite",
						"totalStaked()": "2417",
						"transferOwnership(address)": "28443",
						"treasury()": "2404",
						"unpause()": "27720",
						"unstake(uint256)": "infinite",
						"userRewardPerTokenPaid(address)": "2598"
					}
				},
				"methodIdentifiers": {
					"claimRewards()": "372500ab",
					"earned(address)": "008cc262",
					"emergencyWithdraw()": "db2e21bc",
					"estimatedEmissionsAPR()": "fd42fe4d",
					"exit()": "e9fad8ee",
					"lastTimeRewardApplicable()": "80faa57d",
					"lastUpdateTime()": "c8f33c91",
					"lpToken()": "5fcbd285",
					"lpTokenLocked()": "2ff33be0",
					"notifyRewardAmount(uint256,uint256)": "246132f9",
					"owner()": "8da5cb5b",
					"pause()": "8456cb59",
					"paused()": "5c975abb",
					"pendingRewards(address)": "31d7a262",
					"periodFinish()": "ebe2b12b",
					"recoverERC20(address,uint256)": "8980f11f",
					"renounceOwnership()": "715018a6",
					"rewardNotifiers(address)": "d15166ff",
					"rewardPerToken()": "cd3daf9d",
					"rewardPerTokenStored()": "df136d65",
					"rewardRatePerSecond()": "5d773b2c",
					"setLpToken(address)": "9ee933b5",
					"setRewardNotifier(address,bool)": "255a4f73",
					"setRewardRate(uint256)": "9e447fc6",
					"setTreasury(address)": "f0f44260",
					"stake(uint256)": "a694fc3a",
					"stakedBalance(address)": "60217267",
					"timbsToken()": "0e31648f",
					"totalStaked()": "817b1cd2",
					"transferOwnership(address)": "f2fde38b",
					"treasury()": "61d027b3",
					"unpause()": "3f4ba83a",
					"unstake(uint256)": "2e17de78",
					"userRewardPerTokenPaid(address)": "8b876347"
				}
			},
			"storageLayout": {
				"storage": [
					{
						"astId": 8,
						"contract": "contracts/TimbFarm.sol:TimbFarm",
						"label": "_owner",
						"offset": 0,
						"slot": "0",
						"type": "t_address"
					},
					{
						"astId": 1072,
						"contract": "contracts/TimbFarm.sol:TimbFarm",
						"label": "lpToken",
						"offset": 0,
						"slot": "1",
						"type": "t_contract(IERC20)315"
					},
					{
						"astId": 1075,
						"contract": "contracts/TimbFarm.sol:TimbFarm",
						"label": "treasury",
						"offset": 0,
						"slot": "2",
						"type": "t_address"
					},
					{
						"astId": 1078,
						"contract": "contracts/TimbFarm.sol:TimbFarm",
						"label": "rewardRatePerSecond",
						"offset": 0,
						"slot": "3",
						"type": "t_uint256"
					},
					{
						"astId": 1081,
						"contract": "contracts/TimbFarm.sol:TimbFarm",
						"label": "periodFinish",
						"offset": 0,
						"slot": "4",
						"type": "t_uint256"
					},
					{
						"astId": 1084,
						"contract": "contracts/TimbFarm.sol:TimbFarm",
						"label": "lastUpdateTime",
						"offset": 0,
						"slot": "5",
						"type": "t_uint256"
					},
					{
						"astId": 1087,
						"contract": "contracts/TimbFarm.sol:TimbFarm",
						"label": "rewardPerTokenStored",
						"offset": 0,
						"slot": "6",
						"type": "t_uint256"
					},
					{
						"astId": 1090,
						"contract": "contracts/TimbFarm.sol:TimbFarm",
						"label": "totalStaked",
						"offset": 0,
						"slot": "7",
						"type": "t_uint256"
					},
					{
						"astId": 1095,
						"contract": "contracts/TimbFarm.sol:TimbFarm",
						"label": "stakedBalance",
						"offset": 0,
						"slot": "8",
						"type": "t_mapping(t_address,t_uint256)"
					},
					{
						"astId": 1100,
						"contract": "contracts/TimbFarm.sol:TimbFarm",
						"label": "userRewardPerTokenPaid",
						"offset": 0,
						"slot": "9",
						"type": "t_mapping(t_address,t_uint256)"
					},
					{
						"astId": 1105,
						"contract": "contracts/TimbFarm.sol:TimbFarm",
						"label": "pendingRewards",
						"offset": 0,
						"slot": "10",
						"type": "t_mapping(t_address,t_uint256)"
					},
					{
						"astId": 1110,
						"contract": "contracts/TimbFarm.sol:TimbFarm",
						"label": "rewardNotifiers",
						"offset": 0,
						"slot": "11",
						"type": "t_mapping(t_address,t_bool)"
					},
					{
						"astId": 1113,
						"contract": "contracts/TimbFarm.sol:TimbFarm",
						"label": "lpTokenLocked",
						"offset": 0,
						"slot": "12",
						"type": "t_bool"
					},
					{
						"astId": 1116,
						"contract": "contracts/TimbFarm.sol:TimbFarm",
						"label": "paused",
						"offset": 1,
						"slot": "12",
						"type": "t_bool"
					}
				],
				"types": {
					"t_address": {
						"encoding": "inplace",
						"label": "address",
						"numberOfBytes": "20"
					},
					"t_bool": {
						"encoding": "inplace",
						"label": "bool",
						"numberOfBytes": "1"
					},
					"t_contract(IERC20)315": {
						"encoding": "inplace",
						"label": "contract IERC20",
						"numberOfBytes": "20"
					},
					"t_mapping(t_address,t_bool)": {
						"encoding": "mapping",
						"key": "t_address",
						"label": "mapping(address => bool)",
						"numberOfBytes": "32",
						"value": "t_bool"
					},
					"t_mapping(t_address,t_uint256)": {
						"encoding": "mapping",
						"key": "t_address",
						"label": "mapping(address => uint256)",
						"numberOfBytes": "32",
						"value": "t_uint256"
					},
					"t_uint256": {
						"encoding": "inplace",
						"label": "uint256",
						"numberOfBytes": "32"
					}
				}
			},
			"userdoc": {
				"kind": "user",
				"methods": {
					"claimRewards()": {
						"notice": "Claim all pending TIMBS rewards."
					},
					"earned(address)": {
						"notice": "Total TIMBS earned (pending + unsnapshotted) for `account`."
					},
					"emergencyWithdraw()": {
						"notice": "Emergency withdraw — recovers LP tokens even when paused.         Forfeits all pending TIMBS rewards."
					},
					"estimatedEmissionsAPR()": {
						"notice": "Estimated annual TIMBS emission APR for LP stakers.         Does not include the 0.25% swap fee component (accrues in pair)."
					},
					"exit()": {
						"notice": "Unstake all LP tokens and claim all pending TIMBS rewards in one tx."
					},
					"lastTimeRewardApplicable()": {
						"notice": "Returns applicable reward timestamp (capped at periodFinish)."
					},
					"lastUpdateTime()": {
						"notice": "Last timestamp accumulator was updated."
					},
					"lpToken()": {
						"notice": "TIMBS/ETH LP token — staked token.         Set post-deploy once pair is created."
					},
					"lpTokenLocked()": {
						"notice": "LP token address locked after first stake — prevents rug         via changing lpToken while users are staked."
					},
					"notifyRewardAmount(uint256,uint256)": {
						"notice": "Fund the reward pool and set distribution period."
					},
					"paused()": {
						"notice": "Emergency pause flag."
					},
					"pendingRewards(address)": {
						"notice": "Pending (earned but unclaimed) TIMBS rewards per address."
					},
					"periodFinish()": {
						"notice": "Timestamp when current reward period ends."
					},
					"recoverERC20(address,uint256)": {
						"notice": "Owner recovers accidentally sent ERC20 tokens."
					},
					"rewardNotifiers(address)": {
						"notice": "Authorised reward notifiers (owner + treasury)."
					},
					"rewardPerToken()": {
						"notice": "Cumulative TIMBS earned per staked LP token since deploy."
					},
					"rewardPerTokenStored()": {
						"notice": "Cumulative TIMBS earned per staked LP (18-decimal fixed point)."
					},
					"rewardRatePerSecond()": {
						"notice": "TIMBS rewards distributed per second across all LP stakers."
					},
					"setLpToken(address)": {
						"notice": "Set the LP token address (TIMBS/ETH pair)."
					},
					"setRewardNotifier(address,bool)": {
						"notice": "Add or remove a reward notifier."
					},
					"setRewardRate(uint256)": {
						"notice": "Update reward rate directly (owner only)."
					},
					"setTreasury(address)": {
						"notice": "Set TimbTreasury and authorise as reward notifier."
					},
					"stake(uint256)": {
						"notice": "Stake TIMBS/ETH LP tokens to earn TIMBS emissions."
					},
					"stakedBalance(address)": {
						"notice": "LP staked balance per address."
					},
					"timbsToken()": {
						"notice": "TIMBS token — reward token."
					},
					"totalStaked()": {
						"notice": "Total LP tokens currently staked."
					},
					"treasury()": {
						"notice": "TimbTreasury — authorised reward notifier."
					},
					"unstake(uint256)": {
						"notice": "Reduce or fully withdraw staked LP tokens."
					},
					"userRewardPerTokenPaid(address)": {
						"notice": "Accumulator snapshot per address at last interaction."
					}
				},
				"notice": "TIMBS/ETH LP farming pool. Model:   - Stake TIMBS/ETH LP tokens, earn TIMBS emissions.   - LP stakers also passively earn 0.25% swap fees via the pair     contract (accrues to reserves, redeemable on removeLiquidity).   - Reward source: treasury TIMBS allocation + notifyRewardAmount()     calls from TimbTreasury.   - Fixed emission rate set by owner (changeable anytime).   - MasterChef-style rewardPerToken accumulator — same pattern as     TimbStaking, no loops, scales to any number of LPs.   - No unique stake IDs — accumulated balance per address.   - Free add/reduce/withdraw anytime — no lock, no penalty. Differences from TimbStaking:   - Staked token = LP token (TimbSwapPair), not TIMBS.   - Reward token = TIMBS (same as TimbStaking).   - LP token address is owner-set post-deploy (pair created after farm).   - emissionsMultiplier: owner can boost this pool vs single-asset pool. Security (defiSKILL):   - ReentrancyGuard on stake(), unstake(), claimRewards(), exit().   - Collateral ownership: msg.sender owns their LP stake.   - Flash stake protection: time-weighted accumulator.   - SafeERC20 on all transfers.   - LP token address validated against factory before staking enabled.   - Emergency pause + emergencyWithdraw (recovers LP, forfeits rewards).   - recoverERC20() cannot pull staked LP tokens. Deployment:   1. Deploy TimbFarm(timbsToken, rewardRatePerSecond)   2. After TimbSwapPair TIMBS/ETH deployed:      setLpToken(pairAddress)   3. TIMBSToken.setFarmPool(address(this))   4. setTreasury(timbTreasury)   5. notifyRewardAmount(amount, duration) to activate emissions",
				"version": 1
			}
		}
	}
}