{
	"contracts/TimbFarm.sol": {
		"TimbFarm": {
			"abi": [
				{
					"inputs": [
						{
							"internalType": "address",
							"name": "_timbsToken",
							"type": "address"
						},
						{
							"internalType": "uint256",
							"name": "_rewardRatePerSecond",
							"type": "uint256"
						}
					],
					"stateMutability": "nonpayable",
					"type": "constructor"
				},
				{
					"inputs": [],
					"name": "ContractPaused",
					"type": "error"
				},
				{
					"inputs": [
						{
							"internalType": "uint256",
							"name": "required",
							"type": "uint256"
						},
						{
							"internalType": "uint256",
							"name": "available",
							"type": "uint256"
						}
					],
					"name": "InsufficientRewardBalance",
					"type": "error"
				},
				{
					"inputs": [
						{
							"internalType": "uint256",
							"name": "requested",
							"type": "uint256"
						},
						{
							"internalType": "uint256",
							"name": "available",
							"type": "uint256"
						}
					],
					"name": "InsufficientStake",
					"type": "error"
				},
				{
					"inputs": [],
					"name": "LpTokenAlreadyLocked",
					"type": "error"
				},
				{
					"inputs": [],
					"name": "LpTokenNotSet",
					"type": "error"
				},
				{
					"inputs": [],
					"name": "NoPendingRewards",
					"type": "error"
				},
				{
					"inputs": [],
					"name": "NotAuthorised",
					"type": "error"
				},
				{
					"inputs": [
						{
							"internalType": "address",
							"name": "owner",
							"type": "address"
						}
					],
					"name": "OwnableInvalidOwner",
					"type": "error"
				},
				{
					"inputs": [
						{
							"internalType": "address",
							"name": "account",
							"type": "address"
						}
					],
					"name": "OwnableUnauthorizedAccount",
					"type": "error"
				},
				{
					"inputs": [],
					"name": "ReentrancyGuardReentrantCall",
					"type": "error"
				},
				{
					"inputs": [
						{
							"internalType": "address",
							"name": "token",
							"type": "address"
						}
					],
					"name": "SafeERC20FailedOperation",
					"type": "error"
				},
				{
					"inputs": [],
					"name": "ZeroAddress",
					"type": "error"
				},
				{
					"inputs": [],
					"name": "ZeroAmount",
					"type": "error"
				},
				{
					"anonymous": false,
					"inputs": [
						{
							"indexed": true,
							"internalType": "address",
							"name": "user",
							"type": "address"
						},
						{
							"indexed": false,
							"internalType": "uint256",
							"name": "lpAmount",
							"type": "uint256"
						}
					],
					"name": "EmergencyWithdraw",
					"type": "event"
				},
				{
					"anonymous": false,
					"inputs": [
						{
							"indexed": true,
							"internalType": "address",
							"name": "lpToken",
							"type": "address"
						}
					],
					"name": "LpTokenSet",
					"type": "event"
				},
				{
					"anonymous": false,
					"inputs": [
						{
							"indexed": true,
							"internalType": "address",
							"name": "previousOwner",
							"type": "address"
						},
						{
							"indexed": true,
							"internalType": "address",
							"name": "newOwner",
							"type": "address"
						}
					],
					"name": "OwnershipTransferred",
					"type": "event"
				},
				{
					"anonymous": false,
					"inputs": [
						{
							"indexed": true,
							"internalType": "address",
							"name": "by",
							"type": "address"
						}
					],
					"name": "Paused",
					"type": "event"
				},
				{
					"anonymous": false,
					"inputs": [
						{
							"indexed": true,
							"internalType": "address",
							"name": "notifier",
							"type": "address"
						},
						{
							"indexed": false,
							"internalType": "uint256",
							"name": "amount",
							"type": "uint256"
						},
						{
							"indexed": false,
							"internalType": "uint256",
							"name": "duration",
							"type": "uint256"
						}
					],
					"name": "RewardNotified",
					"type": "event"
				},
				{
					"anonymous": false,
					"inputs": [
						{
							"indexed": true,
							"internalType": "address",
							"name": "notifier",
							"type": "address"
						},
						{
							"indexed": false,
							"internalType": "bool",
							"name": "authorised",
							"type": "bool"
						}
					],
					"name": "RewardNotifierSet",
					"type": "event"
				},
				{
					"anonymous": false,
					"inputs": [
						{
							"indexed": false,
							"internalType": "uint256",
							"name": "newRatePerSecond",
							"type": "uint256"
						}
					],
					"name": "RewardRateSet",
					"type": "event"
				},
				{
					"anonymous": false,
					"inputs": [
						{
							"indexed": true,
							"internalType": "address",
							"name": "user",
							"type": "address"
						},
						{
							"indexed": false,
							"internalType": "uint256",
							"name": "timbsAmount",
							"type": "uint256"
						}
					],
					"name": "RewardsClaimed",
					"type": "event"
				},
				{
					"anonymous": false,
					"inputs": [
						{
							"indexed": true,
							"internalType": "address",
							"name": "user",
							"type": "address"
						},
						{
							"indexed": false,
							"internalType": "uint256",
							"name": "lpAmount",
							"type": "uint256"
						}
					],
					"name": "Staked",
					"type": "event"
				},
				{
					"anonymous": false,
					"inputs": [
						{
							"indexed": true,
							"internalType": "address",
							"name": "treasury",
							"type": "address"
						}
					],
					"name": "TreasurySet",
					"type": "event"
				},
				{
					"anonymous": false,
					"inputs": [
						{
							"indexed": true,
							"internalType": "address",
							"name": "by",
							"type": "address"
						}
					],
					"name": "Unpaused",
					"type": "event"
				},
				{
					"anonymous": false,
					"inputs": [
						{
							"indexed": true,
							"internalType": "address",
							"name": "user",
							"type": "address"
						},
						{
							"indexed": false,
							"internalType": "uint256",
							"name": "lpAmount",
							"type": "uint256"
						}
					],
					"name": "Unstaked",
					"type": "event"
				},
				{
					"inputs": [],
					"name": "claimRewards",
					"outputs": [],
					"stateMutability": "nonpayable",
					"type": "function"
				},
				{
					"inputs": [
						{
							"internalType": "address",
							"name": "account",
							"type": "address"
						}
					],
					"name": "earned",
					"outputs": [
						{
							"internalType": "uint256",
							"name": "",
							"type": "uint256"
						}
					],
					"stateMutability": "view",
					"type": "function"
				},
				{
					"inputs": [],
					"name": "emergencyWithdraw",
					"outputs": [],
					"stateMutability": "nonpayable",
					"type": "function"
				},
				{
					"inputs": [],
					"name": "estimatedEmissionsAPR",
					"outputs": [
						{
							"internalType": "uint256",
							"name": "aprBps",
							"type": "uint256"
						}
					],
					"stateMutability": "view",
					"type": "function"
				},
				{
					"inputs": [],
					"name": "exit",
					"outputs": [],
					"stateMutability": "nonpayable",
					"type": "function"
				},
				{
					"inputs": [],
					"name": "lastTimeRewardApplicable",
					"outputs": [
						{
							"internalType": "uint256",
							"name": "",
							"type": "uint256"
						}
					],
					"stateMutability": "view",
					"type": "function"
				},
				{
					"inputs": [],
					"name": "lastUpdateTime",
					"outputs": [
						{
							"internalType": "uint256",
							"name": "",
							"type": "uint256"
						}
					],
					"stateMutability": "view",
					"type": "function"
				},
				{
					"inputs": [],
					"name": "lpToken",
					"outputs": [
						{
							"internalType": "contract IERC20",
							"name": "",
							"type": "address"
						}
					],
					"stateMutability": "view",
					"type": "function"
				},
				{
					"inputs": [],
					"name": "lpTokenLocked",
					"outputs": [
						{
							"internalType": "bool",
							"name": "",
							"type": "bool"
						}
					],
					"stateMutability": "view",
					"type": "function"
				},
				{
					"inputs": [
						{
							"internalType": "uint256",
							"name": "amount",
							"type": "uint256"
						},
						{
							"internalType": "uint256",
							"name": "duration",
							"type": "uint256"
						}
					],
					"name": "notifyRewardAmount",
					"outputs": [],
					"stateMutability": "nonpayable",
					"type": "function"
				},
				{
					"inputs": [],
					"name": "owner",
					"outputs": [
						{
							"internalType": "address",
							"name": "",
							"type": "address"
						}
					],
					"stateMutability": "view",
					"type": "function"
				},
				{
					"inputs": [],
					"name": "pause",
					"outputs": [],
					"stateMutability": "nonpayable",
					"type": "function"
				},
				{
					"inputs": [],
					"name": "paused",
					"outputs": [
						{
							"internalType": "bool",
							"name": "",
							"type": "bool"
						}
					],
					"stateMutability": "view",
					"type": "function"
				},
				{
					"inputs": [
						{
							"internalType": "address",
							"name": "",
							"type": "address"
						}
					],
					"name": "pendingRewards",
					"outputs": [
						{
							"internalType": "uint256",
							"name": "",
							"type": "uint256"
						}
					],
					"stateMutability": "view",
					"type": "function"
				},
				{
					"inputs": [],
					"name": "periodFinish",
					"outputs": [
						{
							"internalType": "uint256",
							"name": "",
							"type": "uint256"
						}
					],
					"stateMutability": "view",
					"type": "function"
				},
				{
					"inputs": [
						{
							"internalType": "address",
							"name": "token",
							"type": "address"
						},
						{
							"internalType": "uint256",
							"name": "amount",
							"type": "uint256"
						}
					],
					"name": "recoverERC20",
					"outputs": [],
					"stateMutability": "nonpayable",
					"type": "function"
				},
				{
					"inputs": [],
					"name": "renounceOwnership",
					"outputs": [],
					"stateMutability": "nonpayable",
					"type": "function"
				},
				{
					"inputs": [
						{
							"internalType": "address",
							"name": "",
							"type": "address"
						}
					],
					"name": "rewardNotifiers",
					"outputs": [
						{
							"internalType": "bool",
							"name": "",
							"type": "bool"
						}
					],
					"stateMutability": "view",
					"type": "function"
				},
				{
					"inputs": [],
					"name": "rewardPerToken",
					"outputs": [
						{
							"internalType": "uint256",
							"name": "",
							"type": "uint256"
						}
					],
					"stateMutability": "view",
					"type": "function"
				},
				{
					"inputs": [],
					"name": "rewardPerTokenStored",
					"outputs": [
						{
							"internalType": "uint256",
							"name": "",
							"type": "uint256"
						}
					],
					"stateMutability": "view",
					"type": "function"
				},
				{
					"inputs": [],
					"name": "rewardRatePerSecond",
					"outputs": [
						{
							"internalType": "uint256",
							"name": "",
							"type": "uint256"
						}
					],
					"stateMutability": "view",
					"type": "function"
				},
				{
					"inputs": [
						{
							"internalType": "address",
							"name": "_lpToken",
							"type": "address"
						}
					],
					"name": "setLpToken",
					"outputs": [],
					"stateMutability": "nonpayable",
					"type": "function"
				},
				{
					"inputs": [
						{
							"internalType": "address",
							"name": "notifier",
							"type": "address"
						},
						{
							"internalType": "bool",
							"name": "authorised",
							"type": "bool"
						}
					],
					"name": "setRewardNotifier",
					"outputs": [],
					"stateMutability": "nonpayable",
					"type": "function"
				},
				{
					"inputs": [
						{
							"internalType": "uint256",
							"name": "_ratePerSecond",
							"type": "uint256"
						}
					],
					"name": "setRewardRate",
					"outputs": [],
					"stateMutability": "nonpayable",
					"type": "function"
				},
				{
					"inputs": [
						{
							"internalType": "address",
							"name": "_treasury",
							"type": "address"
						}
					],
					"name": "setTreasury",
					"outputs": [],
					"stateMutability": "nonpayable",
					"type": "function"
				},
				{
					"inputs": [
						{
							"internalType": "uint256",
							"name": "amount",
							"type": "uint256"
						}
					],
					"name": "stake",
					"outputs": [],
					"stateMutability": "nonpayable",
					"type": "function"
				},
				{
					"inputs": [
						{
							"internalType": "address",
							"name": "",
							"type": "address"
						}
					],
					"name": "stakedBalance",
					"outputs": [
						{
							"internalType": "uint256",
							"name": "",
							"type": "uint256"
						}
					],
					"stateMutability": "view",
					"type": "function"
				},
				{
					"inputs": [],
					"name": "timbsToken",
					"outputs": [
						{
							"internalType": "contract IERC20",
							"name": "",
							"type": "address"
						}
					],
					"stateMutability": "view",
					"type": "function"
				},
				{
					"inputs": [],
					"name": "totalStaked",
					"outputs": [
						{
							"internalType": "uint256",
							"name": "",
							"type": "uint256"
						}
					],
					"stateMutability": "view",
					"type": "function"
				},
				{
					"inputs": [
						{
							"internalType": "address",
							"name": "newOwner",
							"type": "address"
						}
					],
					"name": "transferOwnership",
					"outputs": [],
					"stateMutability": "nonpayable",
					"type": "function"
				},
				{
					"inputs": [],
					"name": "treasury",
					"outputs": [
						{
							"internalType": "address",
							"name": "",
							"type": "address"
						}
					],
					"stateMutability": "view",
					"type": "function"
				},
				{
					"inputs": [],
					"name": "unpause",
					"outputs": [],
					"stateMutability": "nonpayable",
					"type": "function"
				},
				{
					"inputs": [
						{
							"internalType": "uint256",
							"name": "amount",
							"type": "uint256"
						}
					],
					"name": "unstake",
					"outputs": [],
					"stateMutability": "nonpayable",
					"type": "function"
				},
				{
					"inputs": [
						{
							"internalType": "address",
							"name": "",
							"type": "address"
						}
					],
					"name": "userRewardPerTokenPaid",
					"outputs": [
						{
							"internalType": "uint256",
							"name": "",
							"type": "uint256"
						}
					],
					"stateMutability": "view",
					"type": "function"
				}
			],
			"devdoc": {
				"errors": {
					"OwnableInvalidOwner(address)": [
						{
							"details": "The owner is not a valid owner account. (eg. `address(0)`)"
						}
					],
					"OwnableUnauthorizedAccount(address)": [
						{
							"details": "The caller account is not authorized to perform an operation."
						}
					],
					"ReentrancyGuardReentrantCall()": [
						{
							"details": "Unauthorized reentrant call."
						}
					],
					"SafeERC20FailedOperation(address)": [
						{
							"details": "An operation with an ERC-20 token failed."
						}
					]
				},
				"kind": "dev",
				"methods": {
					"constructor": {
						"params": {
							"_rewardRatePerSecond": "Initial TIMBS emission rate per second.",
							"_timbsToken": "TIMBS ERC-20 address (reward token)."
						}
					},
					"notifyRewardAmount(uint256,uint256)": {
						"details": "Called by owner or TimbTreasury. Rolls over remaining rewards      if current period is still active.",
						"params": {
							"amount": "TIMBS to add.",
							"duration": "Seconds over which to distribute."
						}
					},
					"owner()": {
						"details": "Returns the address of the current owner."
					},
					"recoverERC20(address,uint256)": {
						"details": "Cannot recover staked LP tokens (protected by totalStaked)."
					},
					"renounceOwnership()": {
						"details": "Leaves the contract without owner. It will not be possible to call `onlyOwner` functions. Can only be called by the current owner. NOTE: Renouncing ownership will leave the contract without an owner, thereby disabling any functionality that is only available to the owner."
					},
					"setLpToken(address)": {
						"details": "Can only be set before first stake (lpTokenLocked = false).      After first stake, LP token is permanent — no rug vector."
					},
					"stake(uint256)": {
						"details": "Caller must approve this contract for lpToken before calling.      First stake locks the lpToken address permanently.",
						"params": {
							"amount": "LP token amount to stake."
						}
					},
					"transferOwnership(address)": {
						"details": "Transfers ownership of the contract to a new account (`newOwner`). Can only be called by the current owner."
					},
					"unstake(uint256)": {
						"details": "Collateral ownership enforced — msg.sender only.      Pending rewards NOT auto-claimed. Use exit() for combined op.",
						"params": {
							"amount": "LP token amount to unstake."
						}
					}
				},
				"title": "TimbFarm",
				"version": 1
			},
			"evm": {
				"assembly": "    /* \"contracts/TimbFarm.sol\":2041:16772  contract TimbFarm is Ownable, ReentrancyGuard {... */\n  mstore(0x40, 0xa0)\n    /* \"contracts/TimbFarm.sol\":6398:6708  constructor(address _timbsToken, uint256 _rewardRatePerSecond)... */\n  callvalue\n  dup1\n  iszero\n  tag_1\n  jumpi\n  0x00\n  dup1\n  revert\ntag_1:\n  pop\n  mload(0x40)\n  sub(codesize, bytecodeSize)\n  dup1\n  bytecodeSize\n  dup4\n  codecopy\n  dup2\n  dup2\n  add\n  0x40\n  mstore\n  dup2\n  add\n  swap1\n  tag_2\n  swap2\n  swap1\n  tag_3\n  jump\t// in\ntag_2:\n    /* \"contracts/TimbFarm.sol\":6477:6487  msg.sender */\n  caller\n    /* \"@openzeppelin/contracts/access/Ownable.sol\":1297:1298  0 */\n  0x00\n    /* \"@openzeppelin/contracts/access/Ownable.sol\":1273:1299  initialOwner == address(0) */\n  0xffffffffffffffffffffffffffffffffffffffff\n  and\n    /* \"@openzeppelin/contracts/access/Ownable.sol\":1273:1285  initialOwner */\n  dup2\n    /* \"@openzeppelin/contracts/access/Ownable.sol\":1273:1299  initialOwner == address(0) */\n  0xffffffffffffffffffffffffffffffffffffffff\n  and\n  sub\n    /* \"@openzeppelin/contracts/access/Ownable.sol\":1269:1364  if (initialOwner == address(0)) {... */\n  tag_8\n  jumpi\n    /* \"@openzeppelin/contracts/access/Ownable.sol\":1350:1351  0 */\n  0x00\n    /* \"@openzeppelin/contracts/access/Ownable.sol\":1322:1353  OwnableInvalidOwner(address(0)) */\n  mload(0x40)\n  0x1e4fbdf700000000000000000000000000000000000000000000000000000000\n  dup2\n  mstore\n  0x04\n  add\n  tag_9\n  swap2\n  swap1\n  tag_10\n  jump\t// in\ntag_9:\n  mload(0x40)\n  dup1\n  swap2\n  sub\n  swap1\n  revert\n    /* \"@openzeppelin/contracts/access/Ownable.sol\":1269:1364  if (initialOwner == address(0)) {... */\ntag_8:\n    /* \"@openzeppelin/contracts/access/Ownable.sol\":1373:1405  _transferOwnership(initialOwner) */\n  tag_11\n    /* \"@openzeppelin/contracts/access/Ownable.sol\":1392:1404  initialOwner */\n  dup2\n    /* \"@openzeppelin/contracts/access/Ownable.sol\":1373:1391  _transferOwnership */\n  shl(0x20, tag_12)\n    /* \"@openzeppelin/contracts/access/Ownable.sol\":1373:1405  _transferOwnership(initialOwner) */\n  0x20\n  shr\n  jump\t// in\ntag_11:\n    /* \"@openzeppelin/contracts/access/Ownable.sol\":1225:1412  constructor(address initialOwner) {... */\n  pop\n    /* \"@openzeppelin/contracts/utils/ReentrancyGuard.sol\":2365:2366  1 */\n  0x01\n    /* \"@openzeppelin/contracts/utils/ReentrancyGuard.sol\":2539:2585  _reentrancyGuardStorageSlot().getUint256Slot() */\n  tag_14\n    /* \"@openzeppelin/contracts/utils/ReentrancyGuard.sol\":2539:2568  _reentrancyGuardStorageSlot() */\n  tag_15\n    /* \"@openzeppelin/contracts/utils/ReentrancyGuard.sol\":2539:2566  _reentrancyGuardStorageSlot */\n  shl(0x20, tag_16)\n    /* \"@openzeppelin/contracts/utils/ReentrancyGuard.sol\":2539:2568  _reentrancyGuardStorageSlot() */\n  0x20\n  shr\n  jump\t// in\ntag_15:\n    /* \"@openzeppelin/contracts/utils/ReentrancyGuard.sol\":2539:2583  _reentrancyGuardStorageSlot().getUint256Slot */\n  shl(0x20, tag_17)\n    /* \"@openzeppelin/contracts/utils/ReentrancyGuard.sol\":2539:2585  _reentrancyGuardStorageSlot().getUint256Slot() */\n  0x20\n  shr\n  jump\t// in\ntag_14:\n    /* \"@openzeppelin/contracts/utils/ReentrancyGuard.sol\":2539:2591  _reentrancyGuardStorageSlot().getUint256Slot().value */\n  0x00\n  add\n    /* \"@openzeppelin/contracts/utils/ReentrancyGuard.sol\":2539:2605  _reentrancyGuardStorageSlot().getUint256Slot().value = NOT_ENTERED */\n  dup2\n  swap1\n  sstore\n  pop\n    /* \"contracts/TimbFarm.sol\":6530:6531  0 */\n  0x00\n    /* \"contracts/TimbFarm.sol\":6507:6532  _timbsToken == address(0) */\n  0xffffffffffffffffffffffffffffffffffffffff\n  and\n    /* \"contracts/TimbFarm.sol\":6507:6518  _timbsToken */\n  dup3\n    /* \"contracts/TimbFarm.sol\":6507:6532  _timbsToken == address(0) */\n  0xffffffffffffffffffffffffffffffffffffffff\n  and\n  sub\n    /* \"contracts/TimbFarm.sol\":6503:6554  if (_timbsToken == address(0)) revert ZeroAddress() */\n  tag_19\n  jumpi\n    /* \"contracts/TimbFarm.sol\":6541:6554  ZeroAddress() */\n  mload(0x40)\n  0xd92e233d00000000000000000000000000000000000000000000000000000000\n  dup2\n  mstore\n  0x04\n  add\n  mload(0x40)\n  dup1\n  swap2\n  sub\n  swap1\n  revert\n    /* \"contracts/TimbFarm.sol\":6503:6554  if (_timbsToken == address(0)) revert ZeroAddress() */\ntag_19:\n    /* \"contracts/TimbFarm.sol\":6593:6604  _timbsToken */\n  dup2\n    /* \"contracts/TimbFarm.sol\":6564:6605  timbsToken          = IERC20(_timbsToken) */\n  0xffffffffffffffffffffffffffffffffffffffff\n  and\n  0x80\n  dup2\n  0xffffffffffffffffffffffffffffffffffffffff\n  and\n  dup2\n  mstore\n  pop\n  pop\n    /* \"contracts/TimbFarm.sol\":6637:6657  _rewardRatePerSecond */\n  dup1\n    /* \"contracts/TimbFarm.sol\":6615:6634  rewardRatePerSecond */\n  0x03\n    /* \"contracts/TimbFarm.sol\":6615:6657  rewardRatePerSecond = _rewardRatePerSecond */\n  dup2\n  swap1\n  sstore\n  pop\n    /* \"contracts/TimbFarm.sol\":6697:6701  true */\n  0x01\n    /* \"contracts/TimbFarm.sol\":6667:6682  rewardNotifiers */\n  0x0b\n    /* \"contracts/TimbFarm.sol\":6667:6694  rewardNotifiers[msg.sender] */\n  0x00\n    /* \"contracts/TimbFarm.sol\":6683:6693  msg.sender */\n  caller\n    /* \"contracts/TimbFarm.sol\":6667:6694  rewardNotifiers[msg.sender] */\n  0xffffffffffffffffffffffffffffffffffffffff\n  and\n  0xffffffffffffffffffffffffffffffffffffffff\n  and\n  dup2\n  mstore\n  0x20\n  add\n  swap1\n  dup2\n  mstore\n  0x20\n  add\n  0x00\n  keccak256\n  0x00\n    /* \"contracts/TimbFarm.sol\":6667:6701  rewardNotifiers[msg.sender] = true */\n  0x0100\n  exp\n  dup2\n  sload\n  dup2\n  0xff\n  mul\n  not\n  and\n  swap1\n  dup4\n  iszero\n  iszero\n  mul\n  or\n  swap1\n  sstore\n  pop\n    /* \"contracts/TimbFarm.sol\":6398:6708  constructor(address _timbsToken, uint256 _rewardRatePerSecond)... */\n  pop\n  pop\n    /* \"contracts/TimbFarm.sol\":2041:16772  contract TimbFarm is Ownable, ReentrancyGuard {... */\n  jump(tag_20)\n    /* \"@openzeppelin/contracts/access/Ownable.sol\":2912:3099  function _transferOwnership(address newOwner) internal virtual {... */\ntag_12:\n    /* \"@openzeppelin/contracts/access/Ownable.sol\":2985:3001  address oldOwner */\n  0x00\n    /* \"@openzeppelin/contracts/access/Ownable.sol\":3004:3010  _owner */\n  dup1\n  0x00\n  swap1\n  sload\n  swap1\n  0x0100\n  exp\n  swap1\n  div\n  0xffffffffffffffffffffffffffffffffffffffff\n  and\n    /* \"@openzeppelin/contracts/access/Ownable.sol\":2985:3010  address oldOwner = _owner */\n  swap1\n  pop\n    /* \"@openzeppelin/contracts/access/Ownable.sol\":3029:3037  newOwner */\n  dup2\n    /* \"@openzeppelin/contracts/access/Ownable.sol\":3020:3026  _owner */\n  0x00\n  dup1\n    /* \"@openzeppelin/contracts/access/Ownable.sol\":3020:3037  _owner = newOwner */\n  0x0100\n  exp\n  dup2\n  sload\n  dup2\n  0xffffffffffffffffffffffffffffffffffffffff\n  mul\n  not\n  and\n  swap1\n  dup4\n  0xffffffffffffffffffffffffffffffffffffffff\n  and\n  mul\n  or\n  swap1\n  sstore\n  pop\n    /* \"@openzeppelin/contracts/access/Ownable.sol\":3083:3091  newOwner */\n  dup2\n    /* \"@openzeppelin/contracts/access/Ownable.sol\":3052:3092  OwnershipTransferred(oldOwner, newOwner) */\n  0xffffffffffffffffffffffffffffffffffffffff\n  and\n    /* \"@openzeppelin/contracts/access/Ownable.sol\":3073:3081  oldOwner */\n  dup2\n    /* \"@openzeppelin/contracts/access/Ownable.sol\":3052:3092  OwnershipTransferred(oldOwner, newOwner) */\n  0xffffffffffffffffffffffffffffffffffffffff\n  and\n  0x8be0079c531659141344cd1fd0a4f28419497f9722a3daafe3b4186f6b6457e0\n  mload(0x40)\n  mload(0x40)\n  dup1\n  swap2\n  sub\n  swap1\n  log3\n    /* \"@openzeppelin/contracts/access/Ownable.sol\":2975:3099  {... */\n  pop\n    /* \"@openzeppelin/contracts/access/Ownable.sol\":2912:3099  function _transferOwnership(address newOwner) internal virtual {... */\n  pop\n  jump\t// out\n    /* \"@openzeppelin/contracts/utils/ReentrancyGuard.sol\":4636:4763  function _reentrancyGuardStorageSlot() internal pure virtual returns (bytes32) {... */\ntag_16:\n    /* \"@openzeppelin/contracts/utils/ReentrancyGuard.sol\":4706:4713  bytes32 */\n  0x00\n    /* \"@openzeppelin/contracts/utils/ReentrancyGuard.sol\":1505:1571  0x9b779b17422d0df92223018b32b4d1fa46e071723d6817e2486d003becc55f00 */\n  0x9b779b17422d0df92223018b32b4d1fa46e071723d6817e2486d003becc55f00\n    /* \"@openzeppelin/contracts/utils/ReentrancyGuard.sol\":4732:4756  REENTRANCY_GUARD_STORAGE */\n  0x00\n  shl\n    /* \"@openzeppelin/contracts/utils/ReentrancyGuard.sol\":4725:4756  return REENTRANCY_GUARD_STORAGE */\n  swap1\n  pop\n    /* \"@openzeppelin/contracts/utils/ReentrancyGuard.sol\":4636:4763  function _reentrancyGuardStorageSlot() internal pure virtual returns (bytes32) {... */\n  swap1\n  jump\t// out\n    /* \"@openzeppelin/contracts/utils/StorageSlot.sol\":2679:2842  function getUint256Slot(bytes32 slot) internal pure returns (Uint256Slot storage r) {... */\ntag_17:\n    /* \"@openzeppelin/contracts/utils/StorageSlot.sol\":2740:2761  Uint256Slot storage r */\n  0x00\n    /* \"@openzeppelin/contracts/utils/StorageSlot.sol\":2822:2826  slot */\n  dup2\n    /* \"@openzeppelin/contracts/utils/StorageSlot.sol\":2812:2826  r.slot := slot */\n  swap1\n  pop\n    /* \"@openzeppelin/contracts/utils/StorageSlot.sol\":2679:2842  function getUint256Slot(bytes32 slot) internal pure returns (Uint256Slot storage r) {... */\n  swap2\n  swap1\n  pop\n  jump\t// out\n    /* \"#utility.yul\":88:205   */\ntag_25:\n    /* \"#utility.yul\":197:198   */\n  0x00\n    /* \"#utility.yul\":194:195   */\n  dup1\n    /* \"#utility.yul\":187:199   */\n  revert\n    /* \"#utility.yul\":334:460   */\ntag_27:\n    /* \"#utility.yul\":371:378   */\n  0x00\n    /* \"#utility.yul\":411:453   */\n  0xffffffffffffffffffffffffffffffffffffffff\n    /* \"#utility.yul\":404:409   */\n  dup3\n    /* \"#utility.yul\":400:454   */\n  and\n    /* \"#utility.yul\":389:454   */\n  swap1\n  pop\n    /* \"#utility.yul\":334:460   */\n  swap2\n  swap1\n  pop\n  jump\t// out\n    /* \"#utility.yul\":466:562   */\ntag_28:\n    /* \"#utility.yul\":503:510   */\n  0x00\n    /* \"#utility.yul\":532:556   */\n  tag_41\n    /* \"#utility.yul\":550:555   */\n  dup3\n    /* \"#utility.yul\":532:556   */\n  tag_27\n  jump\t// in\ntag_41:\n    /* \"#utility.yul\":521:556   */\n  swap1\n  pop\n    /* \"#utility.yul\":466:562   */\n  swap2\n  swap1\n  pop\n  jump\t// out\n    /* \"#utility.yul\":568:690   */\ntag_29:\n    /* \"#utility.yul\":641:665   */\n  tag_43\n    /* \"#utility.yul\":659:664   */\n  dup2\n    /* \"#utility.yul\":641:665   */\n  tag_28\n  jump\t// in\ntag_43:\n    /* \"#utility.yul\":634:639   */\n  dup2\n    /* \"#utility.yul\":631:666   */\n  eq\n    /* \"#utility.yul\":621:684   */\n  tag_44\n  jumpi\n    /* \"#utility.yul\":680:681   */\n  0x00\n    /* \"#utility.yul\":677:678   */\n  dup1\n    /* \"#utility.yul\":670:682   */\n  revert\n    /* \"#utility.yul\":621:684   */\ntag_44:\n    /* \"#utility.yul\":568:690   */\n  pop\n  jump\t// out\n    /* \"#utility.yul\":696:839   */\ntag_30:\n    /* \"#utility.yul\":753:758   */\n  0x00\n    /* \"#utility.yul\":784:790   */\n  dup2\n    /* \"#utility.yul\":778:791   */\n  mload\n    /* \"#utility.yul\":769:791   */\n  swap1\n  pop\n    /* \"#utility.yul\":800:833   */\n  tag_46\n    /* \"#utility.yul\":827:832   */\n  dup2\n    /* \"#utility.yul\":800:833   */\n  tag_29\n  jump\t// in\ntag_46:\n    /* \"#utility.yul\":696:839   */\n  swap3\n  swap2\n  pop\n  pop\n  jump\t// out\n    /* \"#utility.yul\":845:922   */\ntag_31:\n    /* \"#utility.yul\":882:889   */\n  0x00\n    /* \"#utility.yul\":911:916   */\n  dup2\n    /* \"#utility.yul\":900:916   */\n  swap1\n  pop\n    /* \"#utility.yul\":845:922   */\n  swap2\n  swap1\n  pop\n  jump\t// out\n    /* \"#utility.yul\":928:1050   */\ntag_32:\n    /* \"#utility.yul\":1001:1025   */\n  tag_49\n    /* \"#utility.yul\":1019:1024   */\n  dup2\n    /* \"#utility.yul\":1001:1025   */\n  tag_31\n  jump\t// in\ntag_49:\n    /* \"#utility.yul\":994:999   */\n  dup2\n    /* \"#utility.yul\":991:1026   */\n  eq\n    /* \"#utility.yul\":981:1044   */\n  tag_50\n  jumpi\n    /* \"#utility.yul\":1040:1041   */\n  0x00\n    /* \"#utility.yul\":1037:1038   */\n  dup1\n    /* \"#utility.yul\":1030:1042   */\n  revert\n    /* \"#utility.yul\":981:1044   */\ntag_50:\n    /* \"#utility.yul\":928:1050   */\n  pop\n  jump\t// out\n    /* \"#utility.yul\":1056:1199   */\ntag_33:\n    /* \"#utility.yul\":1113:1118   */\n  0x00\n    /* \"#utility.yul\":1144:1150   */\n  dup2\n    /* \"#utility.yul\":1138:1151   */\n  mload\n    /* \"#utility.yul\":1129:1151   */\n  swap1\n  pop\n    /* \"#utility.yul\":1160:1193   */\n  tag_52\n    /* \"#utility.yul\":1187:1192   */\n  dup2\n    /* \"#utility.yul\":1160:1193   */\n  tag_32\n  jump\t// in\ntag_52:\n    /* \"#utility.yul\":1056:1199   */\n  swap3\n  swap2\n  pop\n  pop\n  jump\t// out\n    /* \"#utility.yul\":1205:1712   */\ntag_3:\n    /* \"#utility.yul\":1284:1290   */\n  0x00\n    /* \"#utility.yul\":1292:1298   */\n  dup1\n    /* \"#utility.yul\":1341:1343   */\n  0x40\n    /* \"#utility.yul\":1329:1338   */\n  dup4\n    /* \"#utility.yul\":1320:1327   */\n  dup6\n    /* \"#utility.yul\":1316:1339   */\n  sub\n    /* \"#utility.yul\":1312:1344   */\n  slt\n    /* \"#utility.yul\":1309:1428   */\n  iszero\n  tag_54\n  jumpi\n    /* \"#utility.yul\":1347:1426   */\n  tag_55\n  tag_25\n  jump\t// in\ntag_55:\n    /* \"#utility.yul\":1309:1428   */\ntag_54:\n    /* \"#utility.yul\":1467:1468   */\n  0x00\n    /* \"#utility.yul\":1492:1556   */\n  tag_56\n    /* \"#utility.yul\":1548:1555   */\n  dup6\n    /* \"#utility.yul\":1539:1545   */\n  dup3\n    /* \"#utility.yul\":1528:1537   */\n  dup7\n    /* \"#utility.yul\":1524:1546   */\n  add\n    /* \"#utility.yul\":1492:1556   */\n  tag_30\n  jump\t// in\ntag_56:\n    /* \"#utility.yul\":1482:1556   */\n  swap3\n  pop\n    /* \"#utility.yul\":1438:1566   */\n  pop\n    /* \"#utility.yul\":1605:1607   */\n  0x20\n    /* \"#utility.yul\":1631:1695   */\n  tag_57\n    /* \"#utility.yul\":1687:1694   */\n  dup6\n    /* \"#utility.yul\":1678:1684   */\n  dup3\n    /* \"#utility.yul\":1667:1676   */\n  dup7\n    /* \"#utility.yul\":1663:1685   */\n  add\n    /* \"#utility.yul\":1631:1695   */\n  tag_33\n  jump\t// in\ntag_57:\n    /* \"#utility.yul\":1621:1695   */\n  swap2\n  pop\n    /* \"#utility.yul\":1576:1705   */\n  pop\n    /* \"#utility.yul\":1205:1712   */\n  swap3\n  pop\n  swap3\n  swap1\n  pop\n  jump\t// out\n    /* \"#utility.yul\":1718:1836   */\ntag_34:\n    /* \"#utility.yul\":1805:1829   */\n  tag_59\n    /* \"#utility.yul\":1823:1828   */\n  dup2\n    /* \"#utility.yul\":1805:1829   */\n  tag_28\n  jump\t// in\ntag_59:\n    /* \"#utility.yul\":1800:1803   */\n  dup3\n    /* \"#utility.yul\":1793:1830   */\n  mstore\n    /* \"#utility.yul\":1718:1836   */\n  pop\n  pop\n  jump\t// out\n    /* \"#utility.yul\":1842:2064   */\ntag_10:\n    /* \"#utility.yul\":1935:1939   */\n  0x00\n    /* \"#utility.yul\":1973:1975   */\n  0x20\n    /* \"#utility.yul\":1962:1971   */\n  dup3\n    /* \"#utility.yul\":1958:1976   */\n  add\n    /* \"#utility.yul\":1950:1976   */\n  swap1\n  pop\n    /* \"#utility.yul\":1986:2057   */\n  tag_61\n    /* \"#utility.yul\":2054:2055   */\n  0x00\n    /* \"#utility.yul\":2043:2052   */\n  dup4\n    /* \"#utility.yul\":2039:2056   */\n  add\n    /* \"#utility.yul\":2030:2036   */\n  dup5\n    /* \"#utility.yul\":1986:2057   */\n  tag_34\n  jump\t// in\ntag_61:\n    /* \"#utility.yul\":1842:2064   */\n  swap3\n  swap2\n  pop\n  pop\n  jump\t// out\n    /* \"contracts/TimbFarm.sol\":2041:16772  contract TimbFarm is Ownable, ReentrancyGuard {... */\ntag_20:\n  mload(0x80)\n  codecopy(0x00, dataOffset(sub_0), dataSize(sub_0))\n  0x00\n  assignImmutable(\"0x962c584afcd4dd6cb0e25fef291e59a13b9ae1b34d13f25b13a34669b807535c\")\n  return(0x00, dataSize(sub_0))\nstop\n\nsub_0: assembly {\n        /* \"contracts/TimbFarm.sol\":2041:16772  contract TimbFarm is Ownable, ReentrancyGuard {... */\n      mstore(0x40, 0x80)\n      callvalue\n      dup1\n      iszero\n      tag_1\n      jumpi\n      0x00\n      dup1\n      revert\n    tag_1:\n      pop\n      jumpi(tag_2, lt(calldatasize, 0x04))\n      shr(0xe0, calldataload(0x00))\n      dup1\n      0x8456cb59\n      gt\n      tag_37\n      jumpi\n      dup1\n      0xcd3daf9d\n      gt\n      tag_38\n      jumpi\n      dup1\n      0xe9fad8ee\n      gt\n      tag_39\n      jumpi\n      dup1\n      0xe9fad8ee\n      eq\n      tag_32\n      jumpi\n      dup1\n      0xebe2b12b\n      eq\n      tag_33\n      jumpi\n      dup1\n      0xf0f44260\n      eq\n      tag_34\n      jumpi\n      dup1\n      0xf2fde38b\n      eq\n      tag_35\n      jumpi\n      dup1\n      0xfd42fe4d\n      eq\n      tag_36\n      jumpi\n      jump(tag_2)\n    tag_39:\n      dup1\n      0xcd3daf9d\n      eq\n      tag_28\n      jumpi\n      dup1\n      0xd15166ff\n      eq\n      tag_29\n      jumpi\n      dup1\n      0xdb2e21bc\n      eq\n      tag_30\n      jumpi\n      dup1\n      0xdf136d65\n      eq\n      tag_31\n      jumpi\n      jump(tag_2)\n    tag_38:\n      dup1\n      0x9e447fc6\n      gt\n      tag_40\n      jumpi\n      dup1\n      0x9e447fc6\n      eq\n      tag_24\n      jumpi\n      dup1\n      0x9ee933b5\n      eq\n      tag_25\n      jumpi\n      dup1\n      0xa694fc3a\n      eq\n      tag_26\n      jumpi\n      dup1\n      0xc8f33c91\n      eq\n      tag_27\n      jumpi\n      jump(tag_2)\n    tag_40:\n      dup1\n      0x8456cb59\n      eq\n      tag_20\n      jumpi\n      dup1\n      0x8980f11f\n      eq\n      tag_21\n      jumpi\n      dup1\n      0x8b876347\n      eq\n      tag_22\n      jumpi\n      dup1\n      0x8da5cb5b\n      eq\n      tag_23\n      jumpi\n      jump(tag_2)\n    tag_37:\n      dup1\n      0x3f4ba83a\n      gt\n      tag_41\n      jumpi\n      dup1\n      0x60217267\n      gt\n      tag_42\n      jumpi\n      dup1\n      0x60217267\n      eq\n      tag_15\n      jumpi\n      dup1\n      0x61d027b3\n      eq\n      tag_16\n      jumpi\n      dup1\n      0x715018a6\n      eq\n      tag_17\n      jumpi\n      dup1\n      0x80faa57d\n      eq\n      tag_18\n      jumpi\n      dup1\n      0x817b1cd2\n      eq\n      tag_19\n      jumpi\n      jump(tag_2)\n    tag_42:\n      dup1\n      0x3f4ba83a\n      eq\n      tag_11\n      jumpi\n      dup1\n      0x5c975abb\n      eq\n      tag_12\n      jumpi\n      dup1\n      0x5d773b2c\n      eq\n      tag_13\n      jumpi\n      dup1\n      0x5fcbd285\n      eq\n      tag_14\n      jumpi\n      jump(tag_2)\n    tag_41:\n      dup1\n      0x2e17de78\n      gt\n      tag_43\n      jumpi\n      dup1\n      0x2e17de78\n      eq\n      tag_7\n      jumpi\n      dup1\n      0x2ff33be0\n      eq\n      tag_8\n      jumpi\n      dup1\n      0x31d7a262\n      eq\n      tag_9\n      jumpi\n      dup1\n      0x372500ab\n      eq\n      tag_10\n      jumpi\n      jump(tag_2)\n    tag_43:\n      dup1\n      0x8cc262\n      eq\n      tag_3\n      jumpi\n      dup1\n      0x0e31648f\n      eq\n      tag_4\n      jumpi\n      dup1\n      0x246132f9\n      eq\n      tag_5\n      jumpi\n      dup1\n      0x255a4f73\n      eq\n      tag_6\n      jumpi\n    tag_2:\n      0x00\n      dup1\n      revert\n        /* \"contracts/TimbFarm.sol\":7677:7930  function earned(address account) public view returns (uint256) {... */\n    tag_3:\n      tag_44\n      0x04\n      dup1\n      calldatasize\n      sub\n      dup2\n      add\n      swap1\n      tag_45\n      swap2\n      swap1\n      tag_46\n      jump\t// in\n    tag_45:\n      tag_47\n      jump\t// in\n    tag_44:\n      mload(0x40)\n      tag_48\n      swap2\n      swap1\n      tag_49\n      jump\t// in\n    tag_48:\n      mload(0x40)\n      dup1\n      swap2\n      sub\n      swap1\n      return\n        /* \"contracts/TimbFarm.sol\":2386:2420  IERC20 public immutable timbsToken */\n    tag_4:\n      tag_50\n      tag_51\n      jump\t// in\n    tag_50:\n      mload(0x40)\n      tag_52\n      swap2\n      swap1\n      tag_53\n      jump\t// in\n    tag_52:\n      mload(0x40)\n      dup1\n      swap2\n      sub\n      swap1\n      return\n        /* \"contracts/TimbFarm.sol\":12782:13692  function notifyRewardAmount(uint256 amount, uint256 duration)... */\n    tag_5:\n      tag_54\n      0x04\n      dup1\n      calldatasize\n      sub\n      dup2\n      add\n      swap1\n      tag_55\n      swap2\n      swap1\n      tag_56\n      jump\t// in\n    tag_55:\n      tag_57\n      jump\t// in\n    tag_54:\n      stop\n        /* \"contracts/TimbFarm.sol\":15176:15444  function setRewardNotifier(address notifier, bool authorised)... */\n    tag_6:\n      tag_58\n      0x04\n      dup1\n      calldatasize\n      sub\n      dup2\n      add\n      swap1\n      tag_59\n      swap2\n      swap1\n      tag_60\n      jump\t// in\n    tag_59:\n      tag_61\n      jump\t// in\n    tag_58:\n      stop\n        /* \"contracts/TimbFarm.sol\":9838:10354  function unstake(uint256 amount)... */\n    tag_7:\n      tag_62\n      0x04\n      dup1\n      calldatasize\n      sub\n      dup2\n      add\n      swap1\n      tag_63\n      swap2\n      swap1\n      tag_64\n      jump\t// in\n    tag_63:\n      tag_65\n      jump\t// in\n    tag_62:\n      stop\n        /* \"contracts/TimbFarm.sol\":3780:3805  bool public lpTokenLocked */\n    tag_8:\n      tag_66\n      tag_67\n      jump\t// in\n    tag_66:\n      mload(0x40)\n      tag_68\n      swap2\n      swap1\n      tag_69\n      jump\t// in\n    tag_68:\n      mload(0x40)\n      dup1\n      swap2\n      sub\n      swap1\n      return\n        /* \"contracts/TimbFarm.sol\":3470:3519  mapping(address => uint256) public pendingRewards */\n    tag_9:\n      tag_70\n      0x04\n      dup1\n      calldatasize\n      sub\n      dup2\n      add\n      swap1\n      tag_71\n      swap2\n      swap1\n      tag_46\n      jump\t// in\n    tag_71:\n      tag_72\n      jump\t// in\n    tag_70:\n      mload(0x40)\n      tag_73\n      swap2\n      swap1\n      tag_49\n      jump\t// in\n    tag_73:\n      mload(0x40)\n      dup1\n      swap2\n      sub\n      swap1\n      return\n        /* \"contracts/TimbFarm.sol\":10625:11326  function claimRewards()... */\n    tag_10:\n      tag_74\n      tag_75\n      jump\t// in\n    tag_74:\n      stop\n        /* \"contracts/TimbFarm.sol\":15537:15621  function unpause() external onlyOwner { paused = false; emit Unpaused(msg.sender); } */\n    tag_11:\n      tag_76\n      tag_77\n      jump\t// in\n    tag_76:\n      stop\n        /* \"contracts/TimbFarm.sol\":3850:3868  bool public paused */\n    tag_12:\n      tag_78\n      tag_79\n      jump\t// in\n    tag_78:\n      mload(0x40)\n      tag_80\n      swap2\n      swap1\n      tag_69\n      jump\t// in\n    tag_80:\n      mload(0x40)\n      dup1\n      swap2\n      sub\n      swap1\n      return\n        /* \"contracts/TimbFarm.sol\":2729:2763  uint256 public rewardRatePerSecond */\n    tag_13:\n      tag_81\n      tag_82\n      jump\t// in\n    tag_81:\n      mload(0x40)\n      tag_83\n      swap2\n      swap1\n      tag_49\n      jump\t// in\n    tag_83:\n      mload(0x40)\n      dup1\n      swap2\n      sub\n      swap1\n      return\n        /* \"contracts/TimbFarm.sol\":2534:2555  IERC20 public lpToken */\n    tag_14:\n      tag_84\n      tag_85\n      jump\t// in\n    tag_84:\n      mload(0x40)\n      tag_86\n      swap2\n      swap1\n      tag_53\n      jump\t// in\n    tag_86:\n      mload(0x40)\n      dup1\n      swap2\n      sub\n      swap1\n      return\n        /* \"contracts/TimbFarm.sol\":3207:3255  mapping(address => uint256) public stakedBalance */\n    tag_15:\n      tag_87\n      0x04\n      dup1\n      calldatasize\n      sub\n      dup2\n      add\n      swap1\n      tag_88\n      swap2\n      swap1\n      tag_46\n      jump\t// in\n    tag_88:\n      tag_89\n      jump\t// in\n    tag_87:\n      mload(0x40)\n      tag_90\n      swap2\n      swap1\n      tag_49\n      jump\t// in\n    tag_90:\n      mload(0x40)\n      dup1\n      swap2\n      sub\n      swap1\n      return\n        /* \"contracts/TimbFarm.sol\":2623:2646  address public treasury */\n    tag_16:\n      tag_91\n      tag_92\n      jump\t// in\n    tag_91:\n      mload(0x40)\n      tag_93\n      swap2\n      swap1\n      tag_94\n      jump\t// in\n    tag_93:\n      mload(0x40)\n      dup1\n      swap2\n      sub\n      swap1\n      return\n        /* \"@openzeppelin/contracts/access/Ownable.sol\":2293:2394  function renounceOwnership() public virtual onlyOwner {... */\n    tag_17:\n      tag_95\n      tag_96\n      jump\t// in\n    tag_95:\n      stop\n        /* \"contracts/TimbFarm.sol\":6986:7139  function lastTimeRewardApplicable() public view returns (uint256) {... */\n    tag_18:\n      tag_97\n      tag_98\n      jump\t// in\n    tag_97:\n      mload(0x40)\n      tag_99\n      swap2\n      swap1\n      tag_49\n      jump\t// in\n    tag_99:\n      mload(0x40)\n      dup1\n      swap2\n      sub\n      swap1\n      return\n        /* \"contracts/TimbFarm.sol\":3127:3153  uint256 public totalStaked */\n    tag_19:\n      tag_100\n      tag_101\n      jump\t// in\n    tag_100:\n      mload(0x40)\n      tag_102\n      swap2\n      swap1\n      tag_49\n      jump\t// in\n    tag_102:\n      mload(0x40)\n      dup1\n      swap2\n      sub\n      swap1\n      return\n        /* \"contracts/TimbFarm.sol\":15450:15532  function pause()   external onlyOwner { paused = true;  emit Paused(msg.sender); } */\n    tag_20:\n      tag_103\n      tag_104\n      jump\t// in\n    tag_103:\n      stop\n        /* \"contracts/TimbFarm.sol\":16380:16770  function recoverERC20(address token, uint256 amount) external onlyOwner {... */\n    tag_21:\n      tag_105\n      0x04\n      dup1\n      calldatasize\n      sub\n      dup2\n      add\n      swap1\n      tag_106\n      swap2\n      swap1\n      tag_107\n      jump\t// in\n    tag_106:\n      tag_108\n      jump\t// in\n    tag_105:\n      stop\n        /* \"contracts/TimbFarm.sol\":3332:3389  mapping(address => uint256) public userRewardPerTokenPaid */\n    tag_22:\n      tag_109\n      0x04\n      dup1\n      calldatasize\n      sub\n      dup2\n      add\n      swap1\n      tag_110\n      swap2\n      swap1\n      tag_46\n      jump\t// in\n    tag_110:\n      tag_111\n      jump\t// in\n    tag_109:\n      mload(0x40)\n      tag_112\n      swap2\n      swap1\n      tag_49\n      jump\t// in\n    tag_112:\n      mload(0x40)\n      dup1\n      swap2\n      sub\n      swap1\n      return\n        /* \"@openzeppelin/contracts/access/Ownable.sol\":1638:1723  function owner() public view virtual returns (address) {... */\n    tag_23:\n      tag_113\n      tag_114\n      jump\t// in\n    tag_113:\n      mload(0x40)\n      tag_115\n      swap2\n      swap1\n      tag_94\n      jump\t// in\n    tag_115:\n      mload(0x40)\n      dup1\n      swap2\n      sub\n      swap1\n      return\n        /* \"contracts/TimbFarm.sol\":13771:13987  function setRewardRate(uint256 _ratePerSecond)... */\n    tag_24:\n      tag_116\n      0x04\n      dup1\n      calldatasize\n      sub\n      dup2\n      add\n      swap1\n      tag_117\n      swap2\n      swap1\n      tag_64\n      jump\t// in\n    tag_117:\n      tag_118\n      jump\t// in\n    tag_116:\n      stop\n        /* \"contracts/TimbFarm.sol\":14412:14663  function setLpToken(address _lpToken) external onlyOwner {... */\n    tag_25:\n      tag_119\n      0x04\n      dup1\n      calldatasize\n      sub\n      dup2\n      add\n      swap1\n      tag_120\n      swap2\n      swap1\n      tag_46\n      jump\t// in\n    tag_120:\n      tag_121\n      jump\t// in\n    tag_119:\n      stop\n        /* \"contracts/TimbFarm.sol\":8828:9359  function stake(uint256 amount)... */\n    tag_26:\n      tag_122\n      0x04\n      dup1\n      calldatasize\n      sub\n      dup2\n      add\n      swap1\n      tag_123\n      swap2\n      swap1\n      tag_64\n      jump\t// in\n    tag_123:\n      tag_124\n      jump\t// in\n    tag_122:\n      stop\n        /* \"contracts/TimbFarm.sol\":2919:2948  uint256 public lastUpdateTime */\n    tag_27:\n      tag_125\n      tag_126\n      jump\t// in\n    tag_125:\n      mload(0x40)\n      tag_127\n      swap2\n      swap1\n      tag_49\n      jump\t// in\n    tag_127:\n      mload(0x40)\n      dup1\n      swap2\n      sub\n      swap1\n      return\n        /* \"contracts/TimbFarm.sol\":7234:7580  function rewardPerToken() public view returns (uint256) {... */\n    tag_28:\n      tag_128\n      tag_129\n      jump\t// in\n    tag_128:\n      mload(0x40)\n      tag_130\n      swap2\n      swap1\n      tag_49\n      jump\t// in\n    tag_130:\n      mload(0x40)\n      dup1\n      swap2\n      sub\n      swap1\n      return\n        /* \"contracts/TimbFarm.sol\":3590:3637  mapping(address => bool) public rewardNotifiers */\n    tag_29:\n      tag_131\n      0x04\n      dup1\n      calldatasize\n      sub\n      dup2\n      add\n      swap1\n      tag_132\n      swap2\n      swap1\n      tag_46\n      jump\t// in\n    tag_132:\n      tag_133\n      jump\t// in\n    tag_131:\n      mload(0x40)\n      tag_134\n      swap2\n      swap1\n      tag_69\n      jump\t// in\n    tag_134:\n      mload(0x40)\n      dup1\n      swap2\n      sub\n      swap1\n      return\n        /* \"contracts/TimbFarm.sol\":15769:16224  function emergencyWithdraw() external nonReentrant {... */\n    tag_30:\n      tag_135\n      tag_136\n      jump\t// in\n    tag_135:\n      stop\n        /* \"contracts/TimbFarm.sol\":3035:3070  uint256 public rewardPerTokenStored */\n    tag_31:\n      tag_137\n      tag_138\n      jump\t// in\n    tag_137:\n      mload(0x40)\n      tag_139\n      swap2\n      swap1\n      tag_49\n      jump\t// in\n    tag_139:\n      mload(0x40)\n      dup1\n      swap2\n      sub\n      swap1\n      return\n        /* \"contracts/TimbFarm.sol\":11432:12295  function exit()... */\n    tag_32:\n      tag_140\n      tag_141\n      jump\t// in\n    tag_140:\n      stop\n        /* \"contracts/TimbFarm.sol\":2829:2856  uint256 public periodFinish */\n    tag_33:\n      tag_142\n      tag_143\n      jump\t// in\n    tag_142:\n      mload(0x40)\n      tag_144\n      swap2\n      swap1\n      tag_49\n      jump\t// in\n    tag_144:\n      mload(0x40)\n      dup1\n      swap2\n      sub\n      swap1\n      return\n        /* \"contracts/TimbFarm.sol\":14751:15106  function setTreasury(address _treasury) external onlyOwner {... */\n    tag_34:\n      tag_145\n      0x04\n      dup1\n      calldatasize\n      sub\n      dup2\n      add\n      swap1\n      tag_146\n      swap2\n      swap1\n      tag_46\n      jump\t// in\n    tag_146:\n      tag_147\n      jump\t// in\n    tag_145:\n      stop\n        /* \"@openzeppelin/contracts/access/Ownable.sol\":2543:2758  function transferOwnership(address newOwner) public virtual onlyOwner {... */\n    tag_35:\n      tag_148\n      0x04\n      dup1\n      calldatasize\n      sub\n      dup2\n      add\n      swap1\n      tag_149\n      swap2\n      swap1\n      tag_46\n      jump\t// in\n    tag_149:\n      tag_150\n      jump\t// in\n    tag_148:\n      stop\n        /* \"contracts/TimbFarm.sol\":8099:8339  function estimatedEmissionsAPR() external view returns (uint256 aprBps) {... */\n    tag_36:\n      tag_151\n      tag_152\n      jump\t// in\n    tag_151:\n      mload(0x40)\n      tag_153\n      swap2\n      swap1\n      tag_49\n      jump\t// in\n    tag_153:\n      mload(0x40)\n      dup1\n      swap2\n      sub\n      swap1\n      return\n        /* \"contracts/TimbFarm.sol\":7677:7930  function earned(address account) public view returns (uint256) {... */\n    tag_47:\n        /* \"contracts/TimbFarm.sol\":7731:7738  uint256 */\n      0x00\n        /* \"contracts/TimbFarm.sol\":7900:7914  pendingRewards */\n      0x0a\n        /* \"contracts/TimbFarm.sol\":7900:7923  pendingRewards[account] */\n      0x00\n        /* \"contracts/TimbFarm.sol\":7915:7922  account */\n      dup4\n        /* \"contracts/TimbFarm.sol\":7900:7923  pendingRewards[account] */\n      0xffffffffffffffffffffffffffffffffffffffff\n      and\n      0xffffffffffffffffffffffffffffffffffffffff\n      and\n      dup2\n      mstore\n      0x20\n      add\n      swap1\n      dup2\n      mstore\n      0x20\n      add\n      0x00\n      keccak256\n      sload\n        /* \"contracts/TimbFarm.sol\":7883:7887  1e18 */\n      0x0de0b6b3a7640000\n        /* \"contracts/TimbFarm.sol\":7832:7854  userRewardPerTokenPaid */\n      0x09\n        /* \"contracts/TimbFarm.sol\":7832:7863  userRewardPerTokenPaid[account] */\n      0x00\n        /* \"contracts/TimbFarm.sol\":7855:7862  account */\n      dup6\n        /* \"contracts/TimbFarm.sol\":7832:7863  userRewardPerTokenPaid[account] */\n      0xffffffffffffffffffffffffffffffffffffffff\n      and\n      0xffffffffffffffffffffffffffffffffffffffff\n      and\n      dup2\n      mstore\n      0x20\n      add\n      swap1\n      dup2\n      mstore\n      0x20\n      add\n      0x00\n      keccak256\n      sload\n        /* \"contracts/TimbFarm.sol\":7813:7829  rewardPerToken() */\n      tag_155\n        /* \"contracts/TimbFarm.sol\":7813:7827  rewardPerToken */\n      tag_129\n        /* \"contracts/TimbFarm.sol\":7813:7829  rewardPerToken() */\n      jump\t// in\n    tag_155:\n        /* \"contracts/TimbFarm.sol\":7813:7863  rewardPerToken() - userRewardPerTokenPaid[account] */\n      tag_156\n      swap2\n      swap1\n      tag_157\n      jump\t// in\n    tag_156:\n        /* \"contracts/TimbFarm.sol\":7771:7784  stakedBalance */\n      0x08\n        /* \"contracts/TimbFarm.sol\":7771:7793  stakedBalance[account] */\n      0x00\n        /* \"contracts/TimbFarm.sol\":7785:7792  account */\n      dup7\n        /* \"contracts/TimbFarm.sol\":7771:7793  stakedBalance[account] */\n      0xffffffffffffffffffffffffffffffffffffffff\n      and\n      0xffffffffffffffffffffffffffffffffffffffff\n      and\n      dup2\n      mstore\n      0x20\n      add\n      swap1\n      dup2\n      mstore\n      0x20\n      add\n      0x00\n      keccak256\n      sload\n        /* \"contracts/TimbFarm.sol\":7771:7864  stakedBalance[account]... */\n      tag_158\n      swap2\n      swap1\n      tag_159\n      jump\t// in\n    tag_158:\n        /* \"contracts/TimbFarm.sol\":7771:7887  stakedBalance[account]... */\n      tag_160\n      swap2\n      swap1\n      tag_161\n      jump\t// in\n    tag_160:\n        /* \"contracts/TimbFarm.sol\":7757:7923  (... */\n      tag_162\n      swap2\n      swap1\n      tag_163\n      jump\t// in\n    tag_162:\n        /* \"contracts/TimbFarm.sol\":7750:7923  return (... */\n      swap1\n      pop\n        /* \"contracts/TimbFarm.sol\":7677:7930  function earned(address account) public view returns (uint256) {... */\n      swap2\n      swap1\n      pop\n      jump\t// out\n        /* \"contracts/TimbFarm.sol\":2386:2420  IERC20 public immutable timbsToken */\n    tag_51:\n      immutable(\"0x962c584afcd4dd6cb0e25fef291e59a13b9ae1b34d13f25b13a34669b807535c\")\n      dup2\n      jump\t// out\n        /* \"contracts/TimbFarm.sol\":12782:13692  function notifyRewardAmount(uint256 amount, uint256 duration)... */\n    tag_57:\n        /* \"@openzeppelin/contracts/utils/ReentrancyGuard.sol\":3023:3044  _nonReentrantBefore() */\n      tag_165\n        /* \"@openzeppelin/contracts/utils/ReentrancyGuard.sol\":3023:3042  _nonReentrantBefore */\n      tag_166\n        /* \"@openzeppelin/contracts/utils/ReentrancyGuard.sol\":3023:3044  _nonReentrantBefore() */\n      jump\t// in\n    tag_165:\n        /* \"contracts/TimbFarm.sol\":12911:12912  0 */\n      0x00\n        /* \"contracts/TimbFarm.sol\":5757:5773  rewardPerToken() */\n      tag_168\n        /* \"contracts/TimbFarm.sol\":5757:5771  rewardPerToken */\n      tag_129\n        /* \"contracts/TimbFarm.sol\":5757:5773  rewardPerToken() */\n      jump\t// in\n    tag_168:\n        /* \"contracts/TimbFarm.sol\":5734:5754  rewardPerTokenStored */\n      0x06\n        /* \"contracts/TimbFarm.sol\":5734:5773  rewardPerTokenStored = rewardPerToken() */\n      dup2\n      swap1\n      sstore\n      pop\n        /* \"contracts/TimbFarm.sol\":5806:5832  lastTimeRewardApplicable() */\n      tag_169\n        /* \"contracts/TimbFarm.sol\":5806:5830  lastTimeRewardApplicable */\n      tag_98\n        /* \"contracts/TimbFarm.sol\":5806:5832  lastTimeRewardApplicable() */\n      jump\t// in\n    tag_169:\n        /* \"contracts/TimbFarm.sol\":5783:5797  lastUpdateTime */\n      0x05\n        /* \"contracts/TimbFarm.sol\":5783:5832  lastUpdateTime       = lastTimeRewardApplicable() */\n      dup2\n      swap1\n      sstore\n      pop\n        /* \"contracts/TimbFarm.sol\":5865:5866  0 */\n      0x00\n        /* \"contracts/TimbFarm.sol\":5846:5867  account != address(0) */\n      0xffffffffffffffffffffffffffffffffffffffff\n      and\n        /* \"contracts/TimbFarm.sol\":5846:5853  account */\n      dup2\n        /* \"contracts/TimbFarm.sol\":5846:5867  account != address(0) */\n      0xffffffffffffffffffffffffffffffffffffffff\n      and\n      eq\n        /* \"contracts/TimbFarm.sol\":5842:6011  if (account != address(0)) {... */\n      tag_170\n      jumpi\n        /* \"contracts/TimbFarm.sol\":5917:5932  earned(account) */\n      tag_171\n        /* \"contracts/TimbFarm.sol\":5924:5931  account */\n      dup2\n        /* \"contracts/TimbFarm.sol\":5917:5923  earned */\n      tag_47\n        /* \"contracts/TimbFarm.sol\":5917:5932  earned(account) */\n      jump\t// in\n    tag_171:\n        /* \"contracts/TimbFarm.sol\":5883:5897  pendingRewards */\n      0x0a\n        /* \"contracts/TimbFarm.sol\":5883:5906  pendingRewards[account] */\n      0x00\n        /* \"contracts/TimbFarm.sol\":5898:5905  account */\n      dup4\n        /* \"contracts/TimbFarm.sol\":5883:5906  pendingRewards[account] */\n      0xffffffffffffffffffffffffffffffffffffffff\n      and\n      0xffffffffffffffffffffffffffffffffffffffff\n      and\n      dup2\n      mstore\n      0x20\n      add\n      swap1\n      dup2\n      mstore\n      0x20\n      add\n      0x00\n      keccak256\n        /* \"contracts/TimbFarm.sol\":5883:5932  pendingRewards[account]         = earned(account) */\n      dup2\n      swap1\n      sstore\n      pop\n        /* \"contracts/TimbFarm.sol\":5980:6000  rewardPerTokenStored */\n      sload(0x06)\n        /* \"contracts/TimbFarm.sol\":5946:5968  userRewardPerTokenPaid */\n      0x09\n        /* \"contracts/TimbFarm.sol\":5946:5977  userRewardPerTokenPaid[account] */\n      0x00\n        /* \"contracts/TimbFarm.sol\":5969:5976  account */\n      dup4\n        /* \"contracts/TimbFarm.sol\":5946:5977  userRewardPerTokenPaid[account] */\n      0xffffffffffffffffffffffffffffffffffffffff\n      and\n      0xffffffffffffffffffffffffffffffffffffffff\n      and\n      dup2\n      mstore\n      0x20\n      add\n      swap1\n      dup2\n      mstore\n      0x20\n      add\n      0x00\n      keccak256\n        /* \"contracts/TimbFarm.sol\":5946:6000  userRewardPerTokenPaid[account] = rewardPerTokenStored */\n      dup2\n      swap1\n      sstore\n      pop\n        /* \"contracts/TimbFarm.sol\":5842:6011  if (account != address(0)) {... */\n    tag_170:\n        /* \"contracts/TimbFarm.sol\":12934:12949  rewardNotifiers */\n      0x0b\n        /* \"contracts/TimbFarm.sol\":12934:12961  rewardNotifiers[msg.sender] */\n      0x00\n        /* \"contracts/TimbFarm.sol\":12950:12960  msg.sender */\n      caller\n        /* \"contracts/TimbFarm.sol\":12934:12961  rewardNotifiers[msg.sender] */\n      0xffffffffffffffffffffffffffffffffffffffff\n      and\n      0xffffffffffffffffffffffffffffffffffffffff\n      and\n      dup2\n      mstore\n      0x20\n      add\n      swap1\n      dup2\n      mstore\n      0x20\n      add\n      0x00\n      keccak256\n      0x00\n      swap1\n      sload\n      swap1\n      0x0100\n      exp\n      swap1\n      div\n      0xff\n      and\n        /* \"contracts/TimbFarm.sol\":12933:12961  !rewardNotifiers[msg.sender] */\n      iszero\n        /* \"contracts/TimbFarm.sol\":12933:12986  !rewardNotifiers[msg.sender] && msg.sender != owner() */\n      dup1\n      iszero\n      tag_173\n      jumpi\n      pop\n        /* \"contracts/TimbFarm.sol\":12979:12986  owner() */\n      tag_174\n        /* \"contracts/TimbFarm.sol\":12979:12984  owner */\n      tag_114\n        /* \"contracts/TimbFarm.sol\":12979:12986  owner() */\n      jump\t// in\n    tag_174:\n        /* \"contracts/TimbFarm.sol\":12965:12986  msg.sender != owner() */\n      0xffffffffffffffffffffffffffffffffffffffff\n      and\n        /* \"contracts/TimbFarm.sol\":12965:12975  msg.sender */\n      caller\n        /* \"contracts/TimbFarm.sol\":12965:12986  msg.sender != owner() */\n      0xffffffffffffffffffffffffffffffffffffffff\n      and\n      eq\n      iszero\n        /* \"contracts/TimbFarm.sol\":12933:12986  !rewardNotifiers[msg.sender] && msg.sender != owner() */\n    tag_173:\n        /* \"contracts/TimbFarm.sol\":12929:13035  if (!rewardNotifiers[msg.sender] && msg.sender != owner()) {... */\n      iszero\n      tag_175\n      jumpi\n        /* \"contracts/TimbFarm.sol\":13009:13024  NotAuthorised() */\n      mload(0x40)\n      0x1648fd0100000000000000000000000000000000000000000000000000000000\n      dup2\n      mstore\n      0x04\n      add\n      mload(0x40)\n      dup1\n      swap2\n      sub\n      swap1\n      revert\n        /* \"contracts/TimbFarm.sol\":12929:13035  if (!rewardNotifiers[msg.sender] && msg.sender != owner()) {... */\n    tag_175:\n        /* \"contracts/TimbFarm.sol\":13058:13059  0 */\n      0x00\n        /* \"contracts/TimbFarm.sol\":13048:13054  amount */\n      dup4\n        /* \"contracts/TimbFarm.sol\":13048:13059  amount == 0 */\n      sub\n        /* \"contracts/TimbFarm.sol\":13044:13082  if (amount == 0)   revert ZeroAmount() */\n      tag_176\n      jumpi\n        /* \"contracts/TimbFarm.sol\":13070:13082  ZeroAmount() */\n      mload(0x40)\n      0x1f2a200500000000000000000000000000000000000000000000000000000000\n      dup2\n      mstore\n      0x04\n      add\n      mload(0x40)\n      dup1\n      swap2\n      sub\n      swap1\n      revert\n        /* \"contracts/TimbFarm.sol\":13044:13082  if (amount == 0)   revert ZeroAmount() */\n    tag_176:\n        /* \"contracts/TimbFarm.sol\":13108:13109  0 */\n      0x00\n        /* \"contracts/TimbFarm.sol\":13096:13104  duration */\n      dup3\n        /* \"contracts/TimbFarm.sol\":13096:13109  duration == 0 */\n      sub\n        /* \"contracts/TimbFarm.sol\":13092:13130  if (duration == 0) revert ZeroAmount() */\n      tag_177\n      jumpi\n        /* \"contracts/TimbFarm.sol\":13118:13130  ZeroAmount() */\n      mload(0x40)\n      0x1f2a200500000000000000000000000000000000000000000000000000000000\n      dup2\n      mstore\n      0x04\n      add\n      mload(0x40)\n      dup1\n      swap2\n      sub\n      swap1\n      revert\n        /* \"contracts/TimbFarm.sol\":13092:13130  if (duration == 0) revert ZeroAmount() */\n    tag_177:\n        /* \"contracts/TimbFarm.sol\":13141:13203  timbsToken.safeTransferFrom(msg.sender, address(this), amount) */\n      tag_178\n        /* \"contracts/TimbFarm.sol\":13169:13179  msg.sender */\n      caller\n        /* \"contracts/TimbFarm.sol\":13189:13193  this */\n      address\n        /* \"contracts/TimbFarm.sol\":13196:13202  amount */\n      dup6\n        /* \"contracts/TimbFarm.sol\":13141:13151  timbsToken */\n      immutable(\"0x962c584afcd4dd6cb0e25fef291e59a13b9ae1b34d13f25b13a34669b807535c\")\n        /* \"contracts/TimbFarm.sol\":13141:13168  timbsToken.safeTransferFrom */\n      0xffffffffffffffffffffffffffffffffffffffff\n      and\n      tag_179\n      swap1\n        /* \"contracts/TimbFarm.sol\":13141:13203  timbsToken.safeTransferFrom(msg.sender, address(this), amount) */\n      swap4\n      swap3\n      swap2\n      swap1\n      0xffffffff\n      and\n      jump\t// in\n    tag_178:\n        /* \"contracts/TimbFarm.sol\":13236:13248  periodFinish */\n      sload(0x04)\n        /* \"contracts/TimbFarm.sol\":13218:13233  block.timestamp */\n      timestamp\n        /* \"contracts/TimbFarm.sol\":13218:13248  block.timestamp < periodFinish */\n      lt\n        /* \"contracts/TimbFarm.sol\":13214:13530  if (block.timestamp < periodFinish) {... */\n      iszero\n      tag_180\n      jumpi\n        /* \"contracts/TimbFarm.sol\":13264:13281  uint256 remaining */\n      0x00\n        /* \"contracts/TimbFarm.sol\":13301:13316  block.timestamp */\n      timestamp\n        /* \"contracts/TimbFarm.sol\":13286:13298  periodFinish */\n      sload(0x04)\n        /* \"contracts/TimbFarm.sol\":13286:13316  periodFinish - block.timestamp */\n      tag_181\n      swap2\n      swap1\n      tag_157\n      jump\t// in\n    tag_181:\n        /* \"contracts/TimbFarm.sol\":13264:13316  uint256 remaining   = periodFinish - block.timestamp */\n      swap1\n      pop\n        /* \"contracts/TimbFarm.sol\":13330:13346  uint256 leftover */\n      0x00\n        /* \"contracts/TimbFarm.sol\":13364:13383  rewardRatePerSecond */\n      sload(0x03)\n        /* \"contracts/TimbFarm.sol\":13352:13361  remaining */\n      dup3\n        /* \"contracts/TimbFarm.sol\":13352:13383  remaining * rewardRatePerSecond */\n      tag_182\n      swap2\n      swap1\n      tag_159\n      jump\t// in\n    tag_182:\n        /* \"contracts/TimbFarm.sol\":13330:13383  uint256 leftover    = remaining * rewardRatePerSecond */\n      swap1\n      pop\n        /* \"contracts/TimbFarm.sol\":13441:13449  duration */\n      dup4\n        /* \"contracts/TimbFarm.sol\":13429:13437  leftover */\n      dup2\n        /* \"contracts/TimbFarm.sol\":13420:13426  amount */\n      dup7\n        /* \"contracts/TimbFarm.sol\":13420:13437  amount + leftover */\n      tag_183\n      swap2\n      swap1\n      tag_163\n      jump\t// in\n    tag_183:\n        /* \"contracts/TimbFarm.sol\":13419:13449  (amount + leftover) / duration */\n      tag_184\n      swap2\n      swap1\n      tag_161\n      jump\t// in\n    tag_184:\n        /* \"contracts/TimbFarm.sol\":13397:13416  rewardRatePerSecond */\n      0x03\n        /* \"contracts/TimbFarm.sol\":13397:13449  rewardRatePerSecond = (amount + leftover) / duration */\n      dup2\n      swap1\n      sstore\n      pop\n        /* \"contracts/TimbFarm.sol\":13250:13460  {... */\n      pop\n      pop\n        /* \"contracts/TimbFarm.sol\":13214:13530  if (block.timestamp < periodFinish) {... */\n      jump(tag_185)\n    tag_180:\n        /* \"contracts/TimbFarm.sol\":13511:13519  duration */\n      dup2\n        /* \"contracts/TimbFarm.sol\":13502:13508  amount */\n      dup4\n        /* \"contracts/TimbFarm.sol\":13502:13519  amount / duration */\n      tag_186\n      swap2\n      swap1\n      tag_161\n      jump\t// in\n    tag_186:\n        /* \"contracts/TimbFarm.sol\":13480:13499  rewardRatePerSecond */\n      0x03\n        /* \"contracts/TimbFarm.sol\":13480:13519  rewardRatePerSecond = amount / duration */\n      dup2\n      swap1\n      sstore\n      pop\n        /* \"contracts/TimbFarm.sol\":13214:13530  if (block.timestamp < periodFinish) {... */\n    tag_185:\n        /* \"contracts/TimbFarm.sol\":13557:13572  block.timestamp */\n      timestamp\n        /* \"contracts/TimbFarm.sol\":13540:13554  lastUpdateTime */\n      0x05\n        /* \"contracts/TimbFarm.sol\":13540:13572  lastUpdateTime = block.timestamp */\n      dup2\n      swap1\n      sstore\n      pop\n        /* \"contracts/TimbFarm.sol\":13617:13625  duration */\n      dup2\n        /* \"contracts/TimbFarm.sol\":13599:13614  block.timestamp */\n      timestamp\n        /* \"contracts/TimbFarm.sol\":13599:13625  block.timestamp + duration */\n      tag_187\n      swap2\n      swap1\n      tag_163\n      jump\t// in\n    tag_187:\n        /* \"contracts/TimbFarm.sol\":13582:13594  periodFinish */\n      0x04\n        /* \"contracts/TimbFarm.sol\":13582:13625  periodFinish   = block.timestamp + duration */\n      dup2\n      swap1\n      sstore\n      pop\n        /* \"contracts/TimbFarm.sol\":13656:13666  msg.sender */\n      caller\n        /* \"contracts/TimbFarm.sol\":13641:13685  RewardNotified(msg.sender, amount, duration) */\n      0xffffffffffffffffffffffffffffffffffffffff\n      and\n      0x8a888ea653a580e40660778ee0c0dabd23a81e8e2c8dcfb938e40982a157d819\n        /* \"contracts/TimbFarm.sol\":13668:13674  amount */\n      dup5\n        /* \"contracts/TimbFarm.sol\":13676:13684  duration */\n      dup5\n        /* \"contracts/TimbFarm.sol\":13641:13685  RewardNotified(msg.sender, amount, duration) */\n      mload(0x40)\n      tag_188\n      swap3\n      swap2\n      swap1\n      tag_189\n      jump\t// in\n    tag_188:\n      mload(0x40)\n      dup1\n      swap2\n      sub\n      swap1\n      log2\n        /* \"@openzeppelin/contracts/utils/ReentrancyGuard.sol\":3054:3055  _ */\n      pop\n        /* \"@openzeppelin/contracts/utils/ReentrancyGuard.sol\":3065:3085  _nonReentrantAfter() */\n      tag_190\n        /* \"@openzeppelin/contracts/utils/ReentrancyGuard.sol\":3065:3083  _nonReentrantAfter */\n      tag_191\n        /* \"@openzeppelin/contracts/utils/ReentrancyGuard.sol\":3065:3085  _nonReentrantAfter() */\n      jump\t// in\n    tag_190:\n        /* \"contracts/TimbFarm.sol\":12782:13692  function notifyRewardAmount(uint256 amount, uint256 duration)... */\n      pop\n      pop\n      jump\t// out\n        /* \"contracts/TimbFarm.sol\":15176:15444  function setRewardNotifier(address notifier, bool authorised)... */\n    tag_61:\n        /* \"@openzeppelin/contracts/access/Ownable.sol\":1531:1544  _checkOwner() */\n      tag_193\n        /* \"@openzeppelin/contracts/access/Ownable.sol\":1531:1542  _checkOwner */\n      tag_194\n        /* \"@openzeppelin/contracts/access/Ownable.sol\":1531:1544  _checkOwner() */\n      jump\t// in\n    tag_193:\n        /* \"contracts/TimbFarm.sol\":15311:15312  0 */\n      0x00\n        /* \"contracts/TimbFarm.sol\":15291:15313  notifier == address(0) */\n      0xffffffffffffffffffffffffffffffffffffffff\n      and\n        /* \"contracts/TimbFarm.sol\":15291:15299  notifier */\n      dup3\n        /* \"contracts/TimbFarm.sol\":15291:15313  notifier == address(0) */\n      0xffffffffffffffffffffffffffffffffffffffff\n      and\n      sub\n        /* \"contracts/TimbFarm.sol\":15287:15335  if (notifier == address(0)) revert ZeroAddress() */\n      tag_196\n      jumpi\n        /* \"contracts/TimbFarm.sol\":15322:15335  ZeroAddress() */\n      mload(0x40)\n      0xd92e233d00000000000000000000000000000000000000000000000000000000\n      dup2\n      mstore\n      0x04\n      add\n      mload(0x40)\n      dup1\n      swap2\n      sub\n      swap1\n      revert\n        /* \"contracts/TimbFarm.sol\":15287:15335  if (notifier == address(0)) revert ZeroAddress() */\n    tag_196:\n        /* \"contracts/TimbFarm.sol\":15373:15383  authorised */\n      dup1\n        /* \"contracts/TimbFarm.sol\":15345:15360  rewardNotifiers */\n      0x0b\n        /* \"contracts/TimbFarm.sol\":15345:15370  rewardNotifiers[notifier] */\n      0x00\n        /* \"contracts/TimbFarm.sol\":15361:15369  notifier */\n      dup5\n        /* \"contracts/TimbFarm.sol\":15345:15370  rewardNotifiers[notifier] */\n      0xffffffffffffffffffffffffffffffffffffffff\n      and\n      0xffffffffffffffffffffffffffffffffffffffff\n      and\n      dup2\n      mstore\n      0x20\n      add\n      swap1\n      dup2\n      mstore\n      0x20\n      add\n      0x00\n      keccak256\n      0x00\n        /* \"contracts/TimbFarm.sol\":15345:15383  rewardNotifiers[notifier] = authorised */\n      0x0100\n      exp\n      dup2\n      sload\n      dup2\n      0xff\n      mul\n      not\n      and\n      swap1\n      dup4\n      iszero\n      iszero\n      mul\n      or\n      swap1\n      sstore\n      pop\n        /* \"contracts/TimbFarm.sol\":15416:15424  notifier */\n      dup2\n        /* \"contracts/TimbFarm.sol\":15398:15437  RewardNotifierSet(notifier, authorised) */\n      0xffffffffffffffffffffffffffffffffffffffff\n      and\n      0xb33ca1dabfb28a2e1bd06b332c396b1a3d538278691341a5503bbad53f919197\n        /* \"contracts/TimbFarm.sol\":15426:15436  authorised */\n      dup3\n        /* \"contracts/TimbFarm.sol\":15398:15437  RewardNotifierSet(notifier, authorised) */\n      mload(0x40)\n      tag_197\n      swap2\n      swap1\n      tag_69\n      jump\t// in\n    tag_197:\n      mload(0x40)\n      dup1\n      swap2\n      sub\n      swap1\n      log2\n        /* \"contracts/TimbFarm.sol\":15176:15444  function setRewardNotifier(address notifier, bool authorised)... */\n      pop\n      pop\n      jump\t// out\n        /* \"contracts/TimbFarm.sol\":9838:10354  function unstake(uint256 amount)... */\n    tag_65:\n        /* \"@openzeppelin/contracts/utils/ReentrancyGuard.sol\":3023:3044  _nonReentrantBefore() */\n      tag_199\n        /* \"@openzeppelin/contracts/utils/ReentrancyGuard.sol\":3023:3042  _nonReentrantBefore */\n      tag_166\n        /* \"@openzeppelin/contracts/utils/ReentrancyGuard.sol\":3023:3044  _nonReentrantBefore() */\n      jump\t// in\n    tag_199:\n        /* \"contracts/TimbFarm.sol\":5521:5527  paused */\n      0x0c\n      0x01\n      swap1\n      sload\n      swap1\n      0x0100\n      exp\n      swap1\n      div\n      0xff\n      and\n        /* \"contracts/TimbFarm.sol\":5517:5552  if (paused) revert ContractPaused() */\n      iszero\n      tag_201\n      jumpi\n        /* \"contracts/TimbFarm.sol\":5536:5552  ContractPaused() */\n      mload(0x40)\n      0xab35696f00000000000000000000000000000000000000000000000000000000\n      dup2\n      mstore\n      0x04\n      add\n      mload(0x40)\n      dup1\n      swap2\n      sub\n      swap1\n      revert\n        /* \"contracts/TimbFarm.sol\":5517:5552  if (paused) revert ContractPaused() */\n    tag_201:\n        /* \"contracts/TimbFarm.sol\":5635:5636  0 */\n      0x00\n        /* \"contracts/TimbFarm.sol\":5607:5637  address(lpToken) == address(0) */\n      0xffffffffffffffffffffffffffffffffffffffff\n      and\n        /* \"contracts/TimbFarm.sol\":5615:5622  lpToken */\n      0x01\n      0x00\n      swap1\n      sload\n      swap1\n      0x0100\n      exp\n      swap1\n      div\n      0xffffffffffffffffffffffffffffffffffffffff\n      and\n        /* \"contracts/TimbFarm.sol\":5607:5637  address(lpToken) == address(0) */\n      0xffffffffffffffffffffffffffffffffffffffff\n      and\n      sub\n        /* \"contracts/TimbFarm.sol\":5603:5661  if (address(lpToken) == address(0)) revert LpTokenNotSet() */\n      tag_203\n      jumpi\n        /* \"contracts/TimbFarm.sol\":5646:5661  LpTokenNotSet() */\n      mload(0x40)\n      0x70362cde00000000000000000000000000000000000000000000000000000000\n      dup2\n      mstore\n      0x04\n      add\n      mload(0x40)\n      dup1\n      swap2\n      sub\n      swap1\n      revert\n        /* \"contracts/TimbFarm.sol\":5603:5661  if (address(lpToken) == address(0)) revert LpTokenNotSet() */\n    tag_203:\n        /* \"contracts/TimbFarm.sol\":9966:9976  msg.sender */\n      caller\n        /* \"contracts/TimbFarm.sol\":5757:5773  rewardPerToken() */\n      tag_205\n        /* \"contracts/TimbFarm.sol\":5757:5771  rewardPerToken */\n      tag_129\n        /* \"contracts/TimbFarm.sol\":5757:5773  rewardPerToken() */\n      jump\t// in\n    tag_205:\n        /* \"contracts/TimbFarm.sol\":5734:5754  rewardPerTokenStored */\n      0x06\n        /* \"contracts/TimbFarm.sol\":5734:5773  rewardPerTokenStored = rewardPerToken() */\n      dup2\n      swap1\n      sstore\n      pop\n        /* \"contracts/TimbFarm.sol\":5806:5832  lastTimeRewardApplicable() */\n      tag_206\n        /* \"contracts/TimbFarm.sol\":5806:5830  lastTimeRewardApplicable */\n      tag_98\n        /* \"contracts/TimbFarm.sol\":5806:5832  lastTimeRewardApplicable() */\n      jump\t// in\n    tag_206:\n        /* \"contracts/TimbFarm.sol\":5783:5797  lastUpdateTime */\n      0x05\n        /* \"contracts/TimbFarm.sol\":5783:5832  lastUpdateTime       = lastTimeRewardApplicable() */\n      dup2\n      swap1\n      sstore\n      pop\n        /* \"contracts/TimbFarm.sol\":5865:5866  0 */\n      0x00\n        /* \"contracts/TimbFarm.sol\":5846:5867  account != address(0) */\n      0xffffffffffffffffffffffffffffffffffffffff\n      and\n        /* \"contracts/TimbFarm.sol\":5846:5853  account */\n      dup2\n        /* \"contracts/TimbFarm.sol\":5846:5867  account != address(0) */\n      0xffffffffffffffffffffffffffffffffffffffff\n      and\n      eq\n        /* \"contracts/TimbFarm.sol\":5842:6011  if (account != address(0)) {... */\n      tag_207\n      jumpi\n        /* \"contracts/TimbFarm.sol\":5917:5932  earned(account) */\n      tag_208\n        /* \"contracts/TimbFarm.sol\":5924:5931  account */\n      dup2\n        /* \"contracts/TimbFarm.sol\":5917:5923  earned */\n      tag_47\n        /* \"contracts/TimbFarm.sol\":5917:5932  earned(account) */\n      jump\t// in\n    tag_208:\n        /* \"contracts/TimbFarm.sol\":5883:5897  pendingRewards */\n      0x0a\n        /* \"contracts/TimbFarm.sol\":5883:5906  pendingRewards[account] */\n      0x00\n        /* \"contracts/TimbFarm.sol\":5898:5905  account */\n      dup4\n        /* \"contracts/TimbFarm.sol\":5883:5906  pendingRewards[account] */\n      0xffffffffffffffffffffffffffffffffffffffff\n      and\n      0xffffffffffffffffffffffffffffffffffffffff\n      and\n      dup2\n      mstore\n      0x20\n      add\n      swap1\n      dup2\n      mstore\n      0x20\n      add\n      0x00\n      keccak256\n        /* \"contracts/TimbFarm.sol\":5883:5932  pendingRewards[account]         = earned(account) */\n      dup2\n      swap1\n      sstore\n      pop\n        /* \"contracts/TimbFarm.sol\":5980:6000  rewardPerTokenStored */\n      sload(0x06)\n        /* \"contracts/TimbFarm.sol\":5946:5968  userRewardPerTokenPaid */\n      0x09\n        /* \"contracts/TimbFarm.sol\":5946:5977  userRewardPerTokenPaid[account] */\n      0x00\n        /* \"contracts/TimbFarm.sol\":5969:5976  account */\n      dup4\n        /* \"contracts/TimbFarm.sol\":5946:5977  userRewardPerTokenPaid[account] */\n      0xffffffffffffffffffffffffffffffffffffffff\n      and\n      0xffffffffffffffffffffffffffffffffffffffff\n      and\n      dup2\n      mstore\n      0x20\n      add\n      swap1\n      dup2\n      mstore\n      0x20\n      add\n      0x00\n      keccak256\n        /* \"contracts/TimbFarm.sol\":5946:6000  userRewardPerTokenPaid[account] = rewardPerTokenStored */\n      dup2\n      swap1\n      sstore\n      pop\n        /* \"contracts/TimbFarm.sol\":5842:6011  if (account != address(0)) {... */\n    tag_207:\n        /* \"contracts/TimbFarm.sol\":10006:10007  0 */\n      0x00\n        /* \"contracts/TimbFarm.sol\":9996:10002  amount */\n      dup3\n        /* \"contracts/TimbFarm.sol\":9996:10007  amount == 0 */\n      sub\n        /* \"contracts/TimbFarm.sol\":9992:10028  if (amount == 0) revert ZeroAmount() */\n      tag_210\n      jumpi\n        /* \"contracts/TimbFarm.sol\":10016:10028  ZeroAmount() */\n      mload(0x40)\n      0x1f2a200500000000000000000000000000000000000000000000000000000000\n      dup2\n      mstore\n      0x04\n      add\n      mload(0x40)\n      dup1\n      swap2\n      sub\n      swap1\n      revert\n        /* \"contracts/TimbFarm.sol\":9992:10028  if (amount == 0) revert ZeroAmount() */\n    tag_210:\n        /* \"contracts/TimbFarm.sol\":10051:10064  stakedBalance */\n      0x08\n        /* \"contracts/TimbFarm.sol\":10051:10076  stakedBalance[msg.sender] */\n      0x00\n        /* \"contracts/TimbFarm.sol\":10065:10075  msg.sender */\n      caller\n        /* \"contracts/TimbFarm.sol\":10051:10076  stakedBalance[msg.sender] */\n      0xffffffffffffffffffffffffffffffffffffffff\n      and\n      0xffffffffffffffffffffffffffffffffffffffff\n      and\n      dup2\n      mstore\n      0x20\n      add\n      swap1\n      dup2\n      mstore\n      0x20\n      add\n      0x00\n      keccak256\n      sload\n        /* \"contracts/TimbFarm.sol\":10042:10048  amount */\n      dup3\n        /* \"contracts/TimbFarm.sol\":10042:10076  amount > stakedBalance[msg.sender] */\n      gt\n        /* \"contracts/TimbFarm.sol\":10038:10162  if (amount > stakedBalance[msg.sender]) {... */\n      iszero\n      tag_211\n      jumpi\n        /* \"contracts/TimbFarm.sol\":10117:10123  amount */\n      dup2\n        /* \"contracts/TimbFarm.sol\":10125:10138  stakedBalance */\n      0x08\n        /* \"contracts/TimbFarm.sol\":10125:10150  stakedBalance[msg.sender] */\n      0x00\n        /* \"contracts/TimbFarm.sol\":10139:10149  msg.sender */\n      caller\n        /* \"contracts/TimbFarm.sol\":10125:10150  stakedBalance[msg.sender] */\n      0xffffffffffffffffffffffffffffffffffffffff\n      and\n      0xffffffffffffffffffffffffffffffffffffffff\n      and\n      dup2\n      mstore\n      0x20\n      add\n      swap1\n      dup2\n      mstore\n      0x20\n      add\n      0x00\n      keccak256\n      sload\n        /* \"contracts/TimbFarm.sol\":10099:10151  InsufficientStake(amount, stakedBalance[msg.sender]) */\n      mload(0x40)\n      0x45be0a2600000000000000000000000000000000000000000000000000000000\n      dup2\n      mstore\n      0x04\n      add\n      tag_212\n      swap3\n      swap2\n      swap1\n      tag_189\n      jump\t// in\n    tag_212:\n      mload(0x40)\n      dup1\n      swap2\n      sub\n      swap1\n      revert\n        /* \"contracts/TimbFarm.sol\":10038:10162  if (amount > stakedBalance[msg.sender]) {... */\n    tag_211:\n        /* \"contracts/TimbFarm.sol\":10201:10207  amount */\n      dup2\n        /* \"contracts/TimbFarm.sol\":10172:10185  stakedBalance */\n      0x08\n        /* \"contracts/TimbFarm.sol\":10172:10197  stakedBalance[msg.sender] */\n      0x00\n        /* \"contracts/TimbFarm.sol\":10186:10196  msg.sender */\n      caller\n        /* \"contracts/TimbFarm.sol\":10172:10197  stakedBalance[msg.sender] */\n      0xffffffffffffffffffffffffffffffffffffffff\n      and\n      0xffffffffffffffffffffffffffffffffffffffff\n      and\n      dup2\n      mstore\n      0x20\n      add\n      swap1\n      dup2\n      mstore\n      0x20\n      add\n      0x00\n      keccak256\n      0x00\n        /* \"contracts/TimbFarm.sol\":10172:10207  stakedBalance[msg.sender] -= amount */\n      dup3\n      dup3\n      sload\n      tag_213\n      swap2\n      swap1\n      tag_157\n      jump\t// in\n    tag_213:\n      swap3\n      pop\n      pop\n      dup2\n      swap1\n      sstore\n      pop\n        /* \"contracts/TimbFarm.sol\":10246:10252  amount */\n      dup2\n        /* \"contracts/TimbFarm.sol\":10217:10228  totalStaked */\n      0x07\n      0x00\n        /* \"contracts/TimbFarm.sol\":10217:10252  totalStaked               -= amount */\n      dup3\n      dup3\n      sload\n      tag_214\n      swap2\n      swap1\n      tag_157\n      jump\t// in\n    tag_214:\n      swap3\n      pop\n      pop\n      dup2\n      swap1\n      sstore\n      pop\n        /* \"contracts/TimbFarm.sol\":10263:10303  lpToken.safeTransfer(msg.sender, amount) */\n      tag_215\n        /* \"contracts/TimbFarm.sol\":10284:10294  msg.sender */\n      caller\n        /* \"contracts/TimbFarm.sol\":10296:10302  amount */\n      dup4\n        /* \"contracts/TimbFarm.sol\":10263:10270  lpToken */\n      0x01\n      0x00\n      swap1\n      sload\n      swap1\n      0x0100\n      exp\n      swap1\n      div\n      0xffffffffffffffffffffffffffffffffffffffff\n      and\n        /* \"contracts/TimbFarm.sol\":10263:10283  lpToken.safeTransfer */\n      0xffffffffffffffffffffffffffffffffffffffff\n      and\n      tag_216\n      swap1\n        /* \"contracts/TimbFarm.sol\":10263:10303  lpToken.safeTransfer(msg.sender, amount) */\n      swap3\n      swap2\n      swap1\n      0xffffffff\n      and\n      jump\t// in\n    tag_215:\n        /* \"contracts/TimbFarm.sol\":10328:10338  msg.sender */\n      caller\n        /* \"contracts/TimbFarm.sol\":10319:10347  Unstaked(msg.sender, amount) */\n      0xffffffffffffffffffffffffffffffffffffffff\n      and\n      0x0f5bb82176feb1b5e747e28471aa92156a04d9f3ab9f45f28e2d704232b93f75\n        /* \"contracts/TimbFarm.sol\":10340:10346  amount */\n      dup4\n        /* \"contracts/TimbFarm.sol\":10319:10347  Unstaked(msg.sender, amount) */\n      mload(0x40)\n      tag_217\n      swap2\n      swap1\n      tag_49\n      jump\t// in\n    tag_217:\n      mload(0x40)\n      dup1\n      swap2\n      sub\n      swap1\n      log2\n        /* \"contracts/TimbFarm.sol\":5671:5672  _ */\n      pop\n        /* \"@openzeppelin/contracts/utils/ReentrancyGuard.sol\":3065:3085  _nonReentrantAfter() */\n      tag_218\n        /* \"@openzeppelin/contracts/utils/ReentrancyGuard.sol\":3065:3083  _nonReentrantAfter */\n      tag_191\n        /* \"@openzeppelin/contracts/utils/ReentrancyGuard.sol\":3065:3085  _nonReentrantAfter() */\n      jump\t// in\n    tag_218:\n        /* \"contracts/TimbFarm.sol\":9838:10354  function unstake(uint256 amount)... */\n      pop\n      jump\t// out\n        /* \"contracts/TimbFarm.sol\":3780:3805  bool public lpTokenLocked */\n    tag_67:\n      0x0c\n      0x00\n      swap1\n      sload\n      swap1\n      0x0100\n      exp\n      swap1\n      div\n      0xff\n      and\n      dup2\n      jump\t// out\n        /* \"contracts/TimbFarm.sol\":3470:3519  mapping(address => uint256) public pendingRewards */\n    tag_72:\n      mstore(0x20, 0x0a)\n      dup1\n      0x00\n      mstore\n      keccak256(0x00, 0x40)\n      0x00\n      swap2\n      pop\n      swap1\n      pop\n      sload\n      dup2\n      jump\t// out\n        /* \"contracts/TimbFarm.sol\":10625:11326  function claimRewards()... */\n    tag_75:\n        /* \"@openzeppelin/contracts/utils/ReentrancyGuard.sol\":3023:3044  _nonReentrantBefore() */\n      tag_220\n        /* \"@openzeppelin/contracts/utils/ReentrancyGuard.sol\":3023:3042  _nonReentrantBefore */\n      tag_166\n        /* \"@openzeppelin/contracts/utils/ReentrancyGuard.sol\":3023:3044  _nonReentrantBefore() */\n      jump\t// in\n    tag_220:\n        /* \"contracts/TimbFarm.sol\":5521:5527  paused */\n      0x0c\n      0x01\n      swap1\n      sload\n      swap1\n      0x0100\n      exp\n      swap1\n      div\n      0xff\n      and\n        /* \"contracts/TimbFarm.sol\":5517:5552  if (paused) revert ContractPaused() */\n      iszero\n      tag_222\n      jumpi\n        /* \"contracts/TimbFarm.sol\":5536:5552  ContractPaused() */\n      mload(0x40)\n      0xab35696f00000000000000000000000000000000000000000000000000000000\n      dup2\n      mstore\n      0x04\n      add\n      mload(0x40)\n      dup1\n      swap2\n      sub\n      swap1\n      revert\n        /* \"contracts/TimbFarm.sol\":5517:5552  if (paused) revert ContractPaused() */\n    tag_222:\n        /* \"contracts/TimbFarm.sol\":10730:10740  msg.sender */\n      caller\n        /* \"contracts/TimbFarm.sol\":5757:5773  rewardPerToken() */\n      tag_224\n        /* \"contracts/TimbFarm.sol\":5757:5771  rewardPerToken */\n      tag_129\n        /* \"contracts/TimbFarm.sol\":5757:5773  rewardPerToken() */\n      jump\t// in\n    tag_224:\n        /* \"contracts/TimbFarm.sol\":5734:5754  rewardPerTokenStored */\n      0x06\n        /* \"contracts/TimbFarm.sol\":5734:5773  rewardPerTokenStored = rewardPerToken() */\n      dup2\n      swap1\n      sstore\n      pop\n        /* \"contracts/TimbFarm.sol\":5806:5832  lastTimeRewardApplicable() */\n      tag_225\n        /* \"contracts/TimbFarm.sol\":5806:5830  lastTimeRewardApplicable */\n      tag_98\n        /* \"contracts/TimbFarm.sol\":5806:5832  lastTimeRewardApplicable() */\n      jump\t// in\n    tag_225:\n        /* \"contracts/TimbFarm.sol\":5783:5797  lastUpdateTime */\n      0x05\n        /* \"contracts/TimbFarm.sol\":5783:5832  lastUpdateTime       = lastTimeRewardApplicable() */\n      dup2\n      swap1\n      sstore\n      pop\n        /* \"contracts/TimbFarm.sol\":5865:5866  0 */\n      0x00\n        /* \"contracts/TimbFarm.sol\":5846:5867  account != address(0) */\n      0xffffffffffffffffffffffffffffffffffffffff\n      and\n        /* \"contracts/TimbFarm.sol\":5846:5853  account */\n      dup2\n        /* \"contracts/TimbFarm.sol\":5846:5867  account != address(0) */\n      0xffffffffffffffffffffffffffffffffffffffff\n      and\n      eq\n        /* \"contracts/TimbFarm.sol\":5842:6011  if (account != address(0)) {... */\n      tag_226\n      jumpi\n        /* \"contracts/TimbFarm.sol\":5917:5932  earned(account) */\n      tag_227\n        /* \"contracts/TimbFarm.sol\":5924:5931  account */\n      dup2\n        /* \"contracts/TimbFarm.sol\":5917:5923  earned */\n      tag_47\n        /* \"contracts/TimbFarm.sol\":5917:5932  earned(account) */\n      jump\t// in\n    tag_227:\n        /* \"contracts/TimbFarm.sol\":5883:5897  pendingRewards */\n      0x0a\n        /* \"contracts/TimbFarm.sol\":5883:5906  pendingRewards[account] */\n      0x00\n        /* \"contracts/TimbFarm.sol\":5898:5905  account */\n      dup4\n        /* \"contracts/TimbFarm.sol\":5883:5906  pendingRewards[account] */\n      0xffffffffffffffffffffffffffffffffffffffff\n      and\n      0xffffffffffffffffffffffffffffffffffffffff\n      and\n      dup2\n      mstore\n      0x20\n      add\n      swap1\n      dup2\n      mstore\n      0x20\n      add\n      0x00\n      keccak256\n        /* \"contracts/TimbFarm.sol\":5883:5932  pendingRewards[account]         = earned(account) */\n      dup2\n      swap1\n      sstore\n      pop\n        /* \"contracts/TimbFarm.sol\":5980:6000  rewardPerTokenStored */\n      sload(0x06)\n        /* \"contracts/TimbFarm.sol\":5946:5968  userRewardPerTokenPaid */\n      0x09\n        /* \"contracts/TimbFarm.sol\":5946:5977  userRewardPerTokenPaid[account] */\n      0x00\n        /* \"contracts/TimbFarm.sol\":5969:5976  account */\n      dup4\n        /* \"contracts/TimbFarm.sol\":5946:5977  userRewardPerTokenPaid[account] */\n      0xffffffffffffffffffffffffffffffffffffffff\n      and\n      0xffffffffffffffffffffffffffffffffffffffff\n      and\n      dup2\n      mstore\n      0x20\n      add\n      swap1\n      dup2\n      mstore\n      0x20\n      add\n      0x00\n      keccak256\n        /* \"contracts/TimbFarm.sol\":5946:6000  userRewardPerTokenPaid[account] = rewardPerTokenStored */\n      dup2\n      swap1\n      sstore\n      pop\n        /* \"contracts/TimbFarm.sol\":5842:6011  if (account != address(0)) {... */\n    tag_226:\n        /* \"contracts/TimbFarm.sol\":10756:10770  uint256 reward */\n      0x00\n        /* \"contracts/TimbFarm.sol\":10773:10787  pendingRewards */\n      0x0a\n        /* \"contracts/TimbFarm.sol\":10773:10799  pendingRewards[msg.sender] */\n      0x00\n        /* \"contracts/TimbFarm.sol\":10788:10798  msg.sender */\n      caller\n        /* \"contracts/TimbFarm.sol\":10773:10799  pendingRewards[msg.sender] */\n      0xffffffffffffffffffffffffffffffffffffffff\n      and\n      0xffffffffffffffffffffffffffffffffffffffff\n      and\n      dup2\n      mstore\n      0x20\n      add\n      swap1\n      dup2\n      mstore\n      0x20\n      add\n      0x00\n      keccak256\n      sload\n        /* \"contracts/TimbFarm.sol\":10756:10799  uint256 reward = pendingRewards[msg.sender] */\n      swap1\n      pop\n        /* \"contracts/TimbFarm.sol\":10823:10824  0 */\n      0x00\n        /* \"contracts/TimbFarm.sol\":10813:10819  reward */\n      dup2\n        /* \"contracts/TimbFarm.sol\":10813:10824  reward == 0 */\n      sub\n        /* \"contracts/TimbFarm.sol\":10809:10851  if (reward == 0) revert NoPendingRewards() */\n      tag_229\n      jumpi\n        /* \"contracts/TimbFarm.sol\":10833:10851  NoPendingRewards() */\n      mload(0x40)\n      0xb71ea17e00000000000000000000000000000000000000000000000000000000\n      dup2\n      mstore\n      0x04\n      add\n      mload(0x40)\n      dup1\n      swap2\n      sub\n      swap1\n      revert\n        /* \"contracts/TimbFarm.sol\":10809:10851  if (reward == 0) revert NoPendingRewards() */\n    tag_229:\n        /* \"contracts/TimbFarm.sol\":11011:11028  uint256 available */\n      0x00\n        /* \"contracts/TimbFarm.sol\":11031:11041  timbsToken */\n      immutable(\"0x962c584afcd4dd6cb0e25fef291e59a13b9ae1b34d13f25b13a34669b807535c\")\n        /* \"contracts/TimbFarm.sol\":11031:11051  timbsToken.balanceOf */\n      0xffffffffffffffffffffffffffffffffffffffff\n      and\n      0x70a08231\n        /* \"contracts/TimbFarm.sol\":11060:11064  this */\n      address\n        /* \"contracts/TimbFarm.sol\":11031:11066  timbsToken.balanceOf(address(this)) */\n      mload(0x40)\n      dup3\n      0xffffffff\n      and\n      0xe0\n      shl\n      dup2\n      mstore\n      0x04\n      add\n      tag_230\n      swap2\n      swap1\n      tag_94\n      jump\t// in\n    tag_230:\n      0x20\n      mload(0x40)\n      dup1\n      dup4\n      sub\n      dup2\n      dup7\n      gas\n      staticcall\n      iszero\n      dup1\n      iszero\n      tag_232\n      jumpi\n      returndatasize\n      0x00\n      dup1\n      returndatacopy\n      revert(0x00, returndatasize)\n    tag_232:\n      pop\n      pop\n      pop\n      pop\n      mload(0x40)\n      returndatasize\n      not(0x1f)\n      0x1f\n      dup3\n      add\n      and\n      dup3\n      add\n      dup1\n      0x40\n      mstore\n      pop\n      dup2\n      add\n      swap1\n      tag_233\n      swap2\n      swap1\n      tag_234\n      jump\t// in\n    tag_233:\n        /* \"contracts/TimbFarm.sol\":11011:11066  uint256 available = timbsToken.balanceOf(address(this)) */\n      swap1\n      pop\n        /* \"contracts/TimbFarm.sol\":11089:11098  available */\n      dup1\n        /* \"contracts/TimbFarm.sol\":11080:11086  reward */\n      dup3\n        /* \"contracts/TimbFarm.sol\":11080:11098  reward > available */\n      gt\n        /* \"contracts/TimbFarm.sol\":11076:11176  if (reward > available) {... */\n      iszero\n      tag_235\n      jumpi\n        /* \"contracts/TimbFarm.sol\":11147:11153  reward */\n      dup2\n        /* \"contracts/TimbFarm.sol\":11155:11164  available */\n      dup2\n        /* \"contracts/TimbFarm.sol\":11121:11165  InsufficientRewardBalance(reward, available) */\n      mload(0x40)\n      0x65ac9d4300000000000000000000000000000000000000000000000000000000\n      dup2\n      mstore\n      0x04\n      add\n      tag_236\n      swap3\n      swap2\n      swap1\n      tag_189\n      jump\t// in\n    tag_236:\n      mload(0x40)\n      dup1\n      swap2\n      sub\n      swap1\n      revert\n        /* \"contracts/TimbFarm.sol\":11076:11176  if (reward > available) {... */\n    tag_235:\n        /* \"contracts/TimbFarm.sol\":11215:11216  0 */\n      0x00\n        /* \"contracts/TimbFarm.sol\":11186:11200  pendingRewards */\n      0x0a\n        /* \"contracts/TimbFarm.sol\":11186:11212  pendingRewards[msg.sender] */\n      0x00\n        /* \"contracts/TimbFarm.sol\":11201:11211  msg.sender */\n      caller\n        /* \"contracts/TimbFarm.sol\":11186:11212  pendingRewards[msg.sender] */\n      0xffffffffffffffffffffffffffffffffffffffff\n      and\n      0xffffffffffffffffffffffffffffffffffffffff\n      and\n      dup2\n      mstore\n      0x20\n      add\n      swap1\n      dup2\n      mstore\n      0x20\n      add\n      0x00\n      keccak256\n        /* \"contracts/TimbFarm.sol\":11186:11216  pendingRewards[msg.sender] = 0 */\n      dup2\n      swap1\n      sstore\n      pop\n        /* \"contracts/TimbFarm.sol\":11226:11269  timbsToken.safeTransfer(msg.sender, reward) */\n      tag_237\n        /* \"contracts/TimbFarm.sol\":11250:11260  msg.sender */\n      caller\n        /* \"contracts/TimbFarm.sol\":11262:11268  reward */\n      dup4\n        /* \"contracts/TimbFarm.sol\":11226:11236  timbsToken */\n      immutable(\"0x962c584afcd4dd6cb0e25fef291e59a13b9ae1b34d13f25b13a34669b807535c\")\n        /* \"contracts/TimbFarm.sol\":11226:11249  timbsToken.safeTransfer */\n      0xffffffffffffffffffffffffffffffffffffffff\n      and\n      tag_216\n      swap1\n        /* \"contracts/TimbFarm.sol\":11226:11269  timbsToken.safeTransfer(msg.sender, reward) */\n      swap3\n      swap2\n      swap1\n      0xffffffff\n      and\n      jump\t// in\n    tag_237:\n        /* \"contracts/TimbFarm.sol\":11300:11310  msg.sender */\n      caller\n        /* \"contracts/TimbFarm.sol\":11285:11319  RewardsClaimed(msg.sender, reward) */\n      0xffffffffffffffffffffffffffffffffffffffff\n      and\n      0xfc30cddea38e2bf4d6ea7d3f9ed3b6ad7f176419f4963bd81318067a4aee73fe\n        /* \"contracts/TimbFarm.sol\":11312:11318  reward */\n      dup4\n        /* \"contracts/TimbFarm.sol\":11285:11319  RewardsClaimed(msg.sender, reward) */\n      mload(0x40)\n      tag_238\n      swap2\n      swap1\n      tag_49\n      jump\t// in\n    tag_238:\n      mload(0x40)\n      dup1\n      swap2\n      sub\n      swap1\n      log2\n        /* \"contracts/TimbFarm.sol\":10746:11326  {... */\n      pop\n      pop\n        /* \"contracts/TimbFarm.sol\":5562:5563  _ */\n      pop\n        /* \"@openzeppelin/contracts/utils/ReentrancyGuard.sol\":3065:3085  _nonReentrantAfter() */\n      tag_239\n        /* \"@openzeppelin/contracts/utils/ReentrancyGuard.sol\":3065:3083  _nonReentrantAfter */\n      tag_191\n        /* \"@openzeppelin/contracts/utils/ReentrancyGuard.sol\":3065:3085  _nonReentrantAfter() */\n      jump\t// in\n    tag_239:\n        /* \"contracts/TimbFarm.sol\":10625:11326  function claimRewards()... */\n      jump\t// out\n        /* \"contracts/TimbFarm.sol\":15537:15621  function unpause() external onlyOwner { paused = false; emit Unpaused(msg.sender); } */\n    tag_77:\n        /* \"@openzeppelin/contracts/access/Ownable.sol\":1531:1544  _checkOwner() */\n      tag_241\n        /* \"@openzeppelin/contracts/access/Ownable.sol\":1531:1542  _checkOwner */\n      tag_194\n        /* \"@openzeppelin/contracts/access/Ownable.sol\":1531:1544  _checkOwner() */\n      jump\t// in\n    tag_241:\n        /* \"contracts/TimbFarm.sol\":15586:15591  false */\n      0x00\n        /* \"contracts/TimbFarm.sol\":15577:15583  paused */\n      0x0c\n      0x01\n        /* \"contracts/TimbFarm.sol\":15577:15591  paused = false */\n      0x0100\n      exp\n      dup2\n      sload\n      dup2\n      0xff\n      mul\n      not\n      and\n      swap1\n      dup4\n      iszero\n      iszero\n      mul\n      or\n      swap1\n      sstore\n      pop\n        /* \"contracts/TimbFarm.sol\":15607:15617  msg.sender */\n      caller\n        /* \"contracts/TimbFarm.sol\":15598:15618  Unpaused(msg.sender) */\n      0xffffffffffffffffffffffffffffffffffffffff\n      and\n      0x5db9ee0a495bf2e6ff9c91a7834c1ba4fdd244a5e8aa4e537bd38aeae4b073aa\n      mload(0x40)\n      mload(0x40)\n      dup1\n      swap2\n      sub\n      swap1\n      log2\n        /* \"contracts/TimbFarm.sol\":15537:15621  function unpause() external onlyOwner { paused = false; emit Unpaused(msg.sender); } */\n      jump\t// out\n        /* \"contracts/TimbFarm.sol\":3850:3868  bool public paused */\n    tag_79:\n      0x0c\n      0x01\n      swap1\n      sload\n      swap1\n      0x0100\n      exp\n      swap1\n      div\n      0xff\n      and\n      dup2\n      jump\t// out\n        /* \"contracts/TimbFarm.sol\":2729:2763  uint256 public rewardRatePerSecond */\n    tag_82:\n      sload(0x03)\n      dup2\n      jump\t// out\n        /* \"contracts/TimbFarm.sol\":2534:2555  IERC20 public lpToken */\n    tag_85:\n      0x01\n      0x00\n      swap1\n      sload\n      swap1\n      0x0100\n      exp\n      swap1\n      div\n      0xffffffffffffffffffffffffffffffffffffffff\n      and\n      dup2\n      jump\t// out\n        /* \"contracts/TimbFarm.sol\":3207:3255  mapping(address => uint256) public stakedBalance */\n    tag_89:\n      mstore(0x20, 0x08)\n      dup1\n      0x00\n      mstore\n      keccak256(0x00, 0x40)\n      0x00\n      swap2\n      pop\n      swap1\n      pop\n      sload\n      dup2\n      jump\t// out\n        /* \"contracts/TimbFarm.sol\":2623:2646  address public treasury */\n    tag_92:\n      0x02\n      0x00\n      swap1\n      sload\n      swap1\n      0x0100\n      exp\n      swap1\n      div\n      0xffffffffffffffffffffffffffffffffffffffff\n      and\n      dup2\n      jump\t// out\n        /* \"@openzeppelin/contracts/access/Ownable.sol\":2293:2394  function renounceOwnership() public virtual onlyOwner {... */\n    tag_96:\n        /* \"@openzeppelin/contracts/access/Ownable.sol\":1531:1544  _checkOwner() */\n      tag_244\n        /* \"@openzeppelin/contracts/access/Ownable.sol\":1531:1542  _checkOwner */\n      tag_194\n        /* \"@openzeppelin/contracts/access/Ownable.sol\":1531:1544  _checkOwner() */\n      jump\t// in\n    tag_244:\n        /* \"@openzeppelin/contracts/access/Ownable.sol\":2357:2387  _transferOwnership(address(0)) */\n      tag_246\n        /* \"@openzeppelin/contracts/access/Ownable.sol\":2384:2385  0 */\n      0x00\n        /* \"@openzeppelin/contracts/access/Ownable.sol\":2357:2375  _transferOwnership */\n      tag_247\n        /* \"@openzeppelin/contracts/access/Ownable.sol\":2357:2387  _transferOwnership(address(0)) */\n      jump\t// in\n    tag_246:\n        /* \"@openzeppelin/contracts/access/Ownable.sol\":2293:2394  function renounceOwnership() public virtual onlyOwner {... */\n      jump\t// out\n        /* \"contracts/TimbFarm.sol\":6986:7139  function lastTimeRewardApplicable() public view returns (uint256) {... */\n    tag_98:\n        /* \"contracts/TimbFarm.sol\":7043:7050  uint256 */\n      0x00\n        /* \"contracts/TimbFarm.sol\":7087:7099  periodFinish */\n      sload(0x04)\n        /* \"contracts/TimbFarm.sol\":7069:7084  block.timestamp */\n      timestamp\n        /* \"contracts/TimbFarm.sol\":7069:7099  block.timestamp < periodFinish */\n      lt\n        /* \"contracts/TimbFarm.sol\":7069:7132  block.timestamp < periodFinish ? block.timestamp : periodFinish */\n      tag_249\n      jumpi\n        /* \"contracts/TimbFarm.sol\":7120:7132  periodFinish */\n      sload(0x04)\n        /* \"contracts/TimbFarm.sol\":7069:7132  block.timestamp < periodFinish ? block.timestamp : periodFinish */\n      jump(tag_250)\n    tag_249:\n        /* \"contracts/TimbFarm.sol\":7102:7117  block.timestamp */\n      timestamp\n        /* \"contracts/TimbFarm.sol\":7069:7132  block.timestamp < periodFinish ? block.timestamp : periodFinish */\n    tag_250:\n        /* \"contracts/TimbFarm.sol\":7062:7132  return block.timestamp < periodFinish ? block.timestamp : periodFinish */\n      swap1\n      pop\n        /* \"contracts/TimbFarm.sol\":6986:7139  function lastTimeRewardApplicable() public view returns (uint256) {... */\n      swap1\n      jump\t// out\n        /* \"contracts/TimbFarm.sol\":3127:3153  uint256 public totalStaked */\n    tag_101:\n      sload(0x07)\n      dup2\n      jump\t// out\n        /* \"contracts/TimbFarm.sol\":15450:15532  function pause()   external onlyOwner { paused = true;  emit Paused(msg.sender); } */\n    tag_104:\n        /* \"@openzeppelin/contracts/access/Ownable.sol\":1531:1544  _checkOwner() */\n      tag_252\n        /* \"@openzeppelin/contracts/access/Ownable.sol\":1531:1542  _checkOwner */\n      tag_194\n        /* \"@openzeppelin/contracts/access/Ownable.sol\":1531:1544  _checkOwner() */\n      jump\t// in\n    tag_252:\n        /* \"contracts/TimbFarm.sol\":15499:15503  true */\n      0x01\n        /* \"contracts/TimbFarm.sol\":15490:15496  paused */\n      0x0c\n      0x01\n        /* \"contracts/TimbFarm.sol\":15490:15503  paused = true */\n      0x0100\n      exp\n      dup2\n      sload\n      dup2\n      0xff\n      mul\n      not\n      and\n      swap1\n      dup4\n      iszero\n      iszero\n      mul\n      or\n      swap1\n      sstore\n      pop\n        /* \"contracts/TimbFarm.sol\":15518:15528  msg.sender */\n      caller\n        /* \"contracts/TimbFarm.sol\":15511:15529  Paused(msg.sender) */\n      0xffffffffffffffffffffffffffffffffffffffff\n      and\n      0x62e78cea01bee320cd4e420270b5ea74000d11b0c9f74754ebdbfc544b05a258\n      mload(0x40)\n      mload(0x40)\n      dup1\n      swap2\n      sub\n      swap1\n      log2\n        /* \"contracts/TimbFarm.sol\":15450:15532  function pause()   external onlyOwner { paused = true;  emit Paused(msg.sender); } */\n      jump\t// out\n        /* \"contracts/TimbFarm.sol\":16380:16770  function recoverERC20(address token, uint256 amount) external onlyOwner {... */\n    tag_108:\n        /* \"@openzeppelin/contracts/access/Ownable.sol\":1531:1544  _checkOwner() */\n      tag_255\n        /* \"@openzeppelin/contracts/access/Ownable.sol\":1531:1542  _checkOwner */\n      tag_194\n        /* \"@openzeppelin/contracts/access/Ownable.sol\":1531:1544  _checkOwner() */\n      jump\t// in\n    tag_255:\n        /* \"contracts/TimbFarm.sol\":16483:16490  lpToken */\n      0x01\n      0x00\n      swap1\n      sload\n      swap1\n      0x0100\n      exp\n      swap1\n      div\n      0xffffffffffffffffffffffffffffffffffffffff\n      and\n        /* \"contracts/TimbFarm.sol\":16466:16491  token == address(lpToken) */\n      0xffffffffffffffffffffffffffffffffffffffff\n      and\n        /* \"contracts/TimbFarm.sol\":16466:16471  token */\n      dup3\n        /* \"contracts/TimbFarm.sol\":16466:16491  token == address(lpToken) */\n      0xffffffffffffffffffffffffffffffffffffffff\n      and\n      sub\n        /* \"contracts/TimbFarm.sol\":16462:16711  if (token == address(lpToken)) {... */\n      tag_257\n      jumpi\n        /* \"contracts/TimbFarm.sol\":16507:16526  uint256 recoverable */\n      0x00\n        /* \"contracts/TimbFarm.sol\":16564:16575  totalStaked */\n      sload(0x07)\n        /* \"contracts/TimbFarm.sol\":16529:16536  lpToken */\n      0x01\n      0x00\n      swap1\n      sload\n      swap1\n      0x0100\n      exp\n      swap1\n      div\n      0xffffffffffffffffffffffffffffffffffffffff\n      and\n        /* \"contracts/TimbFarm.sol\":16529:16546  lpToken.balanceOf */\n      0xffffffffffffffffffffffffffffffffffffffff\n      and\n      0x70a08231\n        /* \"contracts/TimbFarm.sol\":16555:16559  this */\n      address\n        /* \"contracts/TimbFarm.sol\":16529:16561  lpToken.balanceOf(address(this)) */\n      mload(0x40)\n      dup3\n      0xffffffff\n      and\n      0xe0\n      shl\n      dup2\n      mstore\n      0x04\n      add\n      tag_258\n      swap2\n      swap1\n      tag_94\n      jump\t// in\n    tag_258:\n      0x20\n      mload(0x40)\n      dup1\n      dup4\n      sub\n      dup2\n      dup7\n      gas\n      staticcall\n      iszero\n      dup1\n      iszero\n      tag_260\n      jumpi\n      returndatasize\n      0x00\n      dup1\n      returndatacopy\n      revert(0x00, returndatasize)\n    tag_260:\n      pop\n      pop\n      pop\n      pop\n      mload(0x40)\n      returndatasize\n      not(0x1f)\n      0x1f\n      dup3\n      add\n      and\n      dup3\n      add\n      dup1\n      0x40\n      mstore\n      pop\n      dup2\n      add\n      swap1\n      tag_261\n      swap2\n      swap1\n      tag_234\n      jump\t// in\n    tag_261:\n        /* \"contracts/TimbFarm.sol\":16529:16575  lpToken.balanceOf(address(this)) - totalStaked */\n      tag_262\n      swap2\n      swap1\n      tag_157\n      jump\t// in\n    tag_262:\n        /* \"contracts/TimbFarm.sol\":16507:16575  uint256 recoverable = lpToken.balanceOf(address(this)) - totalStaked */\n      swap1\n      pop\n        /* \"contracts/TimbFarm.sol\":16602:16613  recoverable */\n      dup1\n        /* \"contracts/TimbFarm.sol\":16593:16599  amount */\n      dup3\n        /* \"contracts/TimbFarm.sol\":16593:16613  amount > recoverable */\n      gt\n        /* \"contracts/TimbFarm.sol\":16589:16701  if (amount > recoverable) {... */\n      iszero\n      tag_263\n      jumpi\n        /* \"contracts/TimbFarm.sol\":16666:16672  amount */\n      dup2\n        /* \"contracts/TimbFarm.sol\":16674:16685  recoverable */\n      dup2\n        /* \"contracts/TimbFarm.sol\":16640:16686  InsufficientRewardBalance(amount, recoverable) */\n      mload(0x40)\n      0x65ac9d4300000000000000000000000000000000000000000000000000000000\n      dup2\n      mstore\n      0x04\n      add\n      tag_264\n      swap3\n      swap2\n      swap1\n      tag_189\n      jump\t// in\n    tag_264:\n      mload(0x40)\n      dup1\n      swap2\n      sub\n      swap1\n      revert\n        /* \"contracts/TimbFarm.sol\":16589:16701  if (amount > recoverable) {... */\n    tag_263:\n        /* \"contracts/TimbFarm.sol\":16493:16711  {... */\n      pop\n        /* \"contracts/TimbFarm.sol\":16462:16711  if (token == address(lpToken)) {... */\n    tag_257:\n        /* \"contracts/TimbFarm.sol\":16720:16763  IERC20(token).safeTransfer(owner(), amount) */\n      tag_265\n        /* \"contracts/TimbFarm.sol\":16747:16754  owner() */\n      tag_266\n        /* \"contracts/TimbFarm.sol\":16747:16752  owner */\n      tag_114\n        /* \"contracts/TimbFarm.sol\":16747:16754  owner() */\n      jump\t// in\n    tag_266:\n        /* \"contracts/TimbFarm.sol\":16756:16762  amount */\n      dup3\n        /* \"contracts/TimbFarm.sol\":16727:16732  token */\n      dup5\n        /* \"contracts/TimbFarm.sol\":16720:16746  IERC20(token).safeTransfer */\n      0xffffffffffffffffffffffffffffffffffffffff\n      and\n      tag_216\n      swap1\n        /* \"contracts/TimbFarm.sol\":16720:16763  IERC20(token).safeTransfer(owner(), amount) */\n      swap3\n      swap2\n      swap1\n      0xffffffff\n      and\n      jump\t// in\n    tag_265:\n        /* \"contracts/TimbFarm.sol\":16380:16770  function recoverERC20(address token, uint256 amount) external onlyOwner {... */\n      pop\n      pop\n      jump\t// out\n        /* \"contracts/TimbFarm.sol\":3332:3389  mapping(address => uint256) public userRewardPerTokenPaid */\n    tag_111:\n      mstore(0x20, 0x09)\n      dup1\n      0x00\n      mstore\n      keccak256(0x00, 0x40)\n      0x00\n      swap2\n      pop\n      swap1\n      pop\n      sload\n      dup2\n      jump\t// out\n        /* \"@openzeppelin/contracts/access/Ownable.sol\":1638:1723  function owner() public view virtual returns (address) {... */\n    tag_114:\n        /* \"@openzeppelin/contracts/access/Ownable.sol\":1684:1691  address */\n      0x00\n        /* \"@openzeppelin/contracts/access/Ownable.sol\":1710:1716  _owner */\n      dup1\n      0x00\n      swap1\n      sload\n      swap1\n      0x0100\n      exp\n      swap1\n      div\n      0xffffffffffffffffffffffffffffffffffffffff\n      and\n        /* \"@openzeppelin/contracts/access/Ownable.sol\":1703:1716  return _owner */\n      swap1\n      pop\n        /* \"@openzeppelin/contracts/access/Ownable.sol\":1638:1723  function owner() public view virtual returns (address) {... */\n      swap1\n      jump\t// out\n        /* \"contracts/TimbFarm.sol\":13771:13987  function setRewardRate(uint256 _ratePerSecond)... */\n    tag_118:\n        /* \"@openzeppelin/contracts/access/Ownable.sol\":1531:1544  _checkOwner() */\n      tag_269\n        /* \"@openzeppelin/contracts/access/Ownable.sol\":1531:1542  _checkOwner */\n      tag_194\n        /* \"@openzeppelin/contracts/access/Ownable.sol\":1531:1544  _checkOwner() */\n      jump\t// in\n    tag_269:\n        /* \"contracts/TimbFarm.sol\":13882:13883  0 */\n      0x00\n        /* \"contracts/TimbFarm.sol\":5757:5773  rewardPerToken() */\n      tag_271\n        /* \"contracts/TimbFarm.sol\":5757:5771  rewardPerToken */\n      tag_129\n        /* \"contracts/TimbFarm.sol\":5757:5773  rewardPerToken() */\n      jump\t// in\n    tag_271:\n        /* \"contracts/TimbFarm.sol\":5734:5754  rewardPerTokenStored */\n      0x06\n        /* \"contracts/TimbFarm.sol\":5734:5773  rewardPerTokenStored = rewardPerToken() */\n      dup2\n      swap1\n      sstore\n      pop\n        /* \"contracts/TimbFarm.sol\":5806:5832  lastTimeRewardApplicable() */\n      tag_272\n        /* \"contracts/TimbFarm.sol\":5806:5830  lastTimeRewardApplicable */\n      tag_98\n        /* \"contracts/TimbFarm.sol\":5806:5832  lastTimeRewardApplicable() */\n      jump\t// in\n    tag_272:\n        /* \"contracts/TimbFarm.sol\":5783:5797  lastUpdateTime */\n      0x05\n        /* \"contracts/TimbFarm.sol\":5783:5832  lastUpdateTime       = lastTimeRewardApplicable() */\n      dup2\n      swap1\n      sstore\n      pop\n        /* \"contracts/TimbFarm.sol\":5865:5866  0 */\n      0x00\n        /* \"contracts/TimbFarm.sol\":5846:5867  account != address(0) */\n      0xffffffffffffffffffffffffffffffffffffffff\n      and\n        /* \"contracts/TimbFarm.sol\":5846:5853  account */\n      dup2\n        /* \"contracts/TimbFarm.sol\":5846:5867  account != address(0) */\n      0xffffffffffffffffffffffffffffffffffffffff\n      and\n      eq\n        /* \"contracts/TimbFarm.sol\":5842:6011  if (account != address(0)) {... */\n      tag_273\n      jumpi\n        /* \"contracts/TimbFarm.sol\":5917:5932  earned(account) */\n      tag_274\n        /* \"contracts/TimbFarm.sol\":5924:5931  account */\n      dup2\n        /* \"contracts/TimbFarm.sol\":5917:5923  earned */\n      tag_47\n        /* \"contracts/TimbFarm.sol\":5917:5932  earned(account) */\n      jump\t// in\n    tag_274:\n        /* \"contracts/TimbFarm.sol\":5883:5897  pendingRewards */\n      0x0a\n        /* \"contracts/TimbFarm.sol\":5883:5906  pendingRewards[account] */\n      0x00\n        /* \"contracts/TimbFarm.sol\":5898:5905  account */\n      dup4\n        /* \"contracts/TimbFarm.sol\":5883:5906  pendingRewards[account] */\n      0xffffffffffffffffffffffffffffffffffffffff\n      and\n      0xffffffffffffffffffffffffffffffffffffffff\n      and\n      dup2\n      mstore\n      0x20\n      add\n      swap1\n      dup2\n      mstore\n      0x20\n      add\n      0x00\n      keccak256\n        /* \"contracts/TimbFarm.sol\":5883:5932  pendingRewards[account]         = earned(account) */\n      dup2\n      swap1\n      sstore\n      pop\n        /* \"contracts/TimbFarm.sol\":5980:6000  rewardPerTokenStored */\n      sload(0x06)\n        /* \"contracts/TimbFarm.sol\":5946:5968  userRewardPerTokenPaid */\n      0x09\n        /* \"contracts/TimbFarm.sol\":5946:5977  userRewardPerTokenPaid[account] */\n      0x00\n        /* \"contracts/TimbFarm.sol\":5969:5976  account */\n      dup4\n        /* \"contracts/TimbFarm.sol\":5946:5977  userRewardPerTokenPaid[account] */\n      0xffffffffffffffffffffffffffffffffffffffff\n      and\n      0xffffffffffffffffffffffffffffffffffffffff\n      and\n      dup2\n      mstore\n      0x20\n      add\n      swap1\n      dup2\n      mstore\n      0x20\n      add\n      0x00\n      keccak256\n        /* \"contracts/TimbFarm.sol\":5946:6000  userRewardPerTokenPaid[account] = rewardPerTokenStored */\n      dup2\n      swap1\n      sstore\n      pop\n        /* \"contracts/TimbFarm.sol\":5842:6011  if (account != address(0)) {... */\n    tag_273:\n        /* \"contracts/TimbFarm.sol\":13922:13936  _ratePerSecond */\n      dup2\n        /* \"contracts/TimbFarm.sol\":13900:13919  rewardRatePerSecond */\n      0x03\n        /* \"contracts/TimbFarm.sol\":13900:13936  rewardRatePerSecond = _ratePerSecond */\n      dup2\n      swap1\n      sstore\n      pop\n        /* \"contracts/TimbFarm.sol\":13951:13980  RewardRateSet(_ratePerSecond) */\n      0x8cbfafc8e0d9c5c81401c4b9c6e7d201198adc7eb8f8f1556c195ecd4c0a0e7b\n        /* \"contracts/TimbFarm.sol\":13965:13979  _ratePerSecond */\n      dup3\n        /* \"contracts/TimbFarm.sol\":13951:13980  RewardRateSet(_ratePerSecond) */\n      mload(0x40)\n      tag_276\n      swap2\n      swap1\n      tag_49\n      jump\t// in\n    tag_276:\n      mload(0x40)\n      dup1\n      swap2\n      sub\n      swap1\n      log1\n        /* \"@openzeppelin/contracts/access/Ownable.sol\":1554:1555  _ */\n      pop\n        /* \"contracts/TimbFarm.sol\":13771:13987  function setRewardRate(uint256 _ratePerSecond)... */\n      pop\n      jump\t// out\n        /* \"contracts/TimbFarm.sol\":14412:14663  function setLpToken(address _lpToken) external onlyOwner {... */\n    tag_121:\n        /* \"@openzeppelin/contracts/access/Ownable.sol\":1531:1544  _checkOwner() */\n      tag_278\n        /* \"@openzeppelin/contracts/access/Ownable.sol\":1531:1542  _checkOwner */\n      tag_194\n        /* \"@openzeppelin/contracts/access/Ownable.sol\":1531:1544  _checkOwner() */\n      jump\t// in\n    tag_278:\n        /* \"contracts/TimbFarm.sol\":14503:14504  0 */\n      0x00\n        /* \"contracts/TimbFarm.sol\":14483:14505  _lpToken == address(0) */\n      0xffffffffffffffffffffffffffffffffffffffff\n      and\n        /* \"contracts/TimbFarm.sol\":14483:14491  _lpToken */\n      dup2\n        /* \"contracts/TimbFarm.sol\":14483:14505  _lpToken == address(0) */\n      0xffffffffffffffffffffffffffffffffffffffff\n      and\n      sub\n        /* \"contracts/TimbFarm.sol\":14479:14527  if (_lpToken == address(0)) revert ZeroAddress() */\n      tag_280\n      jumpi\n        /* \"contracts/TimbFarm.sol\":14514:14527  ZeroAddress() */\n      mload(0x40)\n      0xd92e233d00000000000000000000000000000000000000000000000000000000\n      dup2\n      mstore\n      0x04\n      add\n      mload(0x40)\n      dup1\n      swap2\n      sub\n      swap1\n      revert\n        /* \"contracts/TimbFarm.sol\":14479:14527  if (_lpToken == address(0)) revert ZeroAddress() */\n    tag_280:\n        /* \"contracts/TimbFarm.sol\":14541:14554  lpTokenLocked */\n      0x0c\n      0x00\n      swap1\n      sload\n      swap1\n      0x0100\n      exp\n      swap1\n      div\n      0xff\n      and\n        /* \"contracts/TimbFarm.sol\":14537:14585  if (lpTokenLocked) revert LpTokenAlreadyLocked() */\n      iszero\n      tag_281\n      jumpi\n        /* \"contracts/TimbFarm.sol\":14563:14585  LpTokenAlreadyLocked() */\n      mload(0x40)\n      0xae0cd54f00000000000000000000000000000000000000000000000000000000\n      dup2\n      mstore\n      0x04\n      add\n      mload(0x40)\n      dup1\n      swap2\n      sub\n      swap1\n      revert\n        /* \"contracts/TimbFarm.sol\":14537:14585  if (lpTokenLocked) revert LpTokenAlreadyLocked() */\n    tag_281:\n        /* \"contracts/TimbFarm.sol\":14612:14620  _lpToken */\n      dup1\n        /* \"contracts/TimbFarm.sol\":14595:14602  lpToken */\n      0x01\n      0x00\n        /* \"contracts/TimbFarm.sol\":14595:14621  lpToken = IERC20(_lpToken) */\n      0x0100\n      exp\n      dup2\n      sload\n      dup2\n      0xffffffffffffffffffffffffffffffffffffffff\n      mul\n      not\n      and\n      swap1\n      dup4\n      0xffffffffffffffffffffffffffffffffffffffff\n      and\n      mul\n      or\n      swap1\n      sstore\n      pop\n        /* \"contracts/TimbFarm.sol\":14647:14655  _lpToken */\n      dup1\n        /* \"contracts/TimbFarm.sol\":14636:14656  LpTokenSet(_lpToken) */\n      0xffffffffffffffffffffffffffffffffffffffff\n      and\n      0x1c1820b4910e7e24202fa882184fde52e795a3113b621ded50b099b270159acc\n      mload(0x40)\n      mload(0x40)\n      dup1\n      swap2\n      sub\n      swap1\n      log2\n        /* \"contracts/TimbFarm.sol\":14412:14663  function setLpToken(address _lpToken) external onlyOwner {... */\n      pop\n      jump\t// out\n        /* \"contracts/TimbFarm.sol\":8828:9359  function stake(uint256 amount)... */\n    tag_124:\n        /* \"@openzeppelin/contracts/utils/ReentrancyGuard.sol\":3023:3044  _nonReentrantBefore() */\n      tag_283\n        /* \"@openzeppelin/contracts/utils/ReentrancyGuard.sol\":3023:3042  _nonReentrantBefore */\n      tag_166\n        /* \"@openzeppelin/contracts/utils/ReentrancyGuard.sol\":3023:3044  _nonReentrantBefore() */\n      jump\t// in\n    tag_283:\n        /* \"contracts/TimbFarm.sol\":5521:5527  paused */\n      0x0c\n      0x01\n      swap1\n      sload\n      swap1\n      0x0100\n      exp\n      swap1\n      div\n      0xff\n      and\n        /* \"contracts/TimbFarm.sol\":5517:5552  if (paused) revert ContractPaused() */\n      iszero\n      tag_285\n      jumpi\n        /* \"contracts/TimbFarm.sol\":5536:5552  ContractPaused() */\n      mload(0x40)\n      0xab35696f00000000000000000000000000000000000000000000000000000000\n      dup2\n      mstore\n      0x04\n      add\n      mload(0x40)\n      dup1\n      swap2\n      sub\n      swap1\n      revert\n        /* \"contracts/TimbFarm.sol\":5517:5552  if (paused) revert ContractPaused() */\n    tag_285:\n        /* \"contracts/TimbFarm.sol\":5635:5636  0 */\n      0x00\n        /* \"contracts/TimbFarm.sol\":5607:5637  address(lpToken) == address(0) */\n      0xffffffffffffffffffffffffffffffffffffffff\n      and\n        /* \"contracts/TimbFarm.sol\":5615:5622  lpToken */\n      0x01\n      0x00\n      swap1\n      sload\n      swap1\n      0x0100\n      exp\n      swap1\n      div\n      0xffffffffffffffffffffffffffffffffffffffff\n      and\n        /* \"contracts/TimbFarm.sol\":5607:5637  address(lpToken) == address(0) */\n      0xffffffffffffffffffffffffffffffffffffffff\n      and\n      sub\n        /* \"contracts/TimbFarm.sol\":5603:5661  if (address(lpToken) == address(0)) revert LpTokenNotSet() */\n      tag_287\n      jumpi\n        /* \"contracts/TimbFarm.sol\":5646:5661  LpTokenNotSet() */\n      mload(0x40)\n      0x70362cde00000000000000000000000000000000000000000000000000000000\n      dup2\n      mstore\n      0x04\n      add\n      mload(0x40)\n      dup1\n      swap2\n      sub\n      swap1\n      revert\n        /* \"contracts/TimbFarm.sol\":5603:5661  if (address(lpToken) == address(0)) revert LpTokenNotSet() */\n    tag_287:\n        /* \"contracts/TimbFarm.sol\":8954:8964  msg.sender */\n      caller\n        /* \"contracts/TimbFarm.sol\":5757:5773  rewardPerToken() */\n      tag_289\n        /* \"contracts/TimbFarm.sol\":5757:5771  rewardPerToken */\n      tag_129\n        /* \"contracts/TimbFarm.sol\":5757:5773  rewardPerToken() */\n      jump\t// in\n    tag_289:\n        /* \"contracts/TimbFarm.sol\":5734:5754  rewardPerTokenStored */\n      0x06\n        /* \"contracts/TimbFarm.sol\":5734:5773  rewardPerTokenStored = rewardPerToken() */\n      dup2\n      swap1\n      sstore\n      pop\n        /* \"contracts/TimbFarm.sol\":5806:5832  lastTimeRewardApplicable() */\n      tag_290\n        /* \"contracts/TimbFarm.sol\":5806:5830  lastTimeRewardApplicable */\n      tag_98\n        /* \"contracts/TimbFarm.sol\":5806:5832  lastTimeRewardApplicable() */\n      jump\t// in\n    tag_290:\n        /* \"contracts/TimbFarm.sol\":5783:5797  lastUpdateTime */\n      0x05\n        /* \"contracts/TimbFarm.sol\":5783:5832  lastUpdateTime       = lastTimeRewardApplicable() */\n      dup2\n      swap1\n      sstore\n      pop\n        /* \"contracts/TimbFarm.sol\":5865:5866  0 */\n      0x00\n        /* \"contracts/TimbFarm.sol\":5846:5867  account != address(0) */\n      0xffffffffffffffffffffffffffffffffffffffff\n      and\n        /* \"contracts/TimbFarm.sol\":5846:5853  account */\n      dup2\n        /* \"contracts/TimbFarm.sol\":5846:5867  account != address(0) */\n      0xffffffffffffffffffffffffffffffffffffffff\n      and\n      eq\n        /* \"contracts/TimbFarm.sol\":5842:6011  if (account != address(0)) {... */\n      tag_291\n      jumpi\n        /* \"contracts/TimbFarm.sol\":5917:5932  earned(account) */\n      tag_292\n        /* \"contracts/TimbFarm.sol\":5924:5931  account */\n      dup2\n        /* \"contracts/TimbFarm.sol\":5917:5923  earned */\n      tag_47\n        /* \"contracts/TimbFarm.sol\":5917:5932  earned(account) */\n      jump\t// in\n    tag_292:\n        /* \"contracts/TimbFarm.sol\":5883:5897  pendingRewards */\n      0x0a\n        /* \"contracts/TimbFarm.sol\":5883:5906  pendingRewards[account] */\n      0x00\n        /* \"contracts/TimbFarm.sol\":5898:5905  account */\n      dup4\n        /* \"contracts/TimbFarm.sol\":5883:5906  pendingRewards[account] */\n      0xffffffffffffffffffffffffffffffffffffffff\n      and\n      0xffffffffffffffffffffffffffffffffffffffff\n      and\n      dup2\n      mstore\n      0x20\n      add\n      swap1\n      dup2\n      mstore\n      0x20\n      add\n      0x00\n      keccak256\n        /* \"contracts/TimbFarm.sol\":5883:5932  pendingRewards[account]         = earned(account) */\n      dup2\n      swap1\n      sstore\n      pop\n        /* \"contracts/TimbFarm.sol\":5980:6000  rewardPerTokenStored */\n      sload(0x06)\n        /* \"contracts/TimbFarm.sol\":5946:5968  userRewardPerTokenPaid */\n      0x09\n        /* \"contracts/TimbFarm.sol\":5946:5977  userRewardPerTokenPaid[account] */\n      0x00\n        /* \"contracts/TimbFarm.sol\":5969:5976  account */\n      dup4\n        /* \"contracts/TimbFarm.sol\":5946:5977  userRewardPerTokenPaid[account] */\n      0xffffffffffffffffffffffffffffffffffffffff\n      and\n      0xffffffffffffffffffffffffffffffffffffffff\n      and\n      dup2\n      mstore\n      0x20\n      add\n      swap1\n      dup2\n      mstore\n      0x20\n      add\n      0x00\n      keccak256\n        /* \"contracts/TimbFarm.sol\":5946:6000  userRewardPerTokenPaid[account] = rewardPerTokenStored */\n      dup2\n      swap1\n      sstore\n      pop\n        /* \"contracts/TimbFarm.sol\":5842:6011  if (account != address(0)) {... */\n    tag_291:\n        /* \"contracts/TimbFarm.sol\":8994:8995  0 */\n      0x00\n        /* \"contracts/TimbFarm.sol\":8984:8990  amount */\n      dup3\n        /* \"contracts/TimbFarm.sol\":8984:8995  amount == 0 */\n      sub\n        /* \"contracts/TimbFarm.sol\":8980:9016  if (amount == 0) revert ZeroAmount() */\n      tag_294\n      jumpi\n        /* \"contracts/TimbFarm.sol\":9004:9016  ZeroAmount() */\n      mload(0x40)\n      0x1f2a200500000000000000000000000000000000000000000000000000000000\n      dup2\n      mstore\n      0x04\n      add\n      mload(0x40)\n      dup1\n      swap2\n      sub\n      swap1\n      revert\n        /* \"contracts/TimbFarm.sol\":8980:9016  if (amount == 0) revert ZeroAmount() */\n    tag_294:\n        /* \"contracts/TimbFarm.sol\":9114:9127  lpTokenLocked */\n      0x0c\n      0x00\n      swap1\n      sload\n      swap1\n      0x0100\n      exp\n      swap1\n      div\n      0xff\n      and\n        /* \"contracts/TimbFarm.sol\":9109:9149  if (!lpTokenLocked) lpTokenLocked = true */\n      tag_295\n      jumpi\n        /* \"contracts/TimbFarm.sol\":9145:9149  true */\n      0x01\n        /* \"contracts/TimbFarm.sol\":9129:9142  lpTokenLocked */\n      0x0c\n      0x00\n        /* \"contracts/TimbFarm.sol\":9129:9149  lpTokenLocked = true */\n      0x0100\n      exp\n      dup2\n      sload\n      dup2\n      0xff\n      mul\n      not\n      and\n      swap1\n      dup4\n      iszero\n      iszero\n      mul\n      or\n      swap1\n      sstore\n      pop\n        /* \"contracts/TimbFarm.sol\":9109:9149  if (!lpTokenLocked) lpTokenLocked = true */\n    tag_295:\n        /* \"contracts/TimbFarm.sol\":9189:9195  amount */\n      dup2\n        /* \"contracts/TimbFarm.sol\":9160:9173  stakedBalance */\n      0x08\n        /* \"contracts/TimbFarm.sol\":9160:9185  stakedBalance[msg.sender] */\n      0x00\n        /* \"contracts/TimbFarm.sol\":9174:9184  msg.sender */\n      caller\n        /* \"contracts/TimbFarm.sol\":9160:9185  stakedBalance[msg.sender] */\n      0xffffffffffffffffffffffffffffffffffffffff\n      and\n      0xffffffffffffffffffffffffffffffffffffffff\n      and\n      dup2\n      mstore\n      0x20\n      add\n      swap1\n      dup2\n      mstore\n      0x20\n      add\n      0x00\n      keccak256\n      0x00\n        /* \"contracts/TimbFarm.sol\":9160:9195  stakedBalance[msg.sender] += amount */\n      dup3\n      dup3\n      sload\n      tag_296\n      swap2\n      swap1\n      tag_163\n      jump\t// in\n    tag_296:\n      swap3\n      pop\n      pop\n      dup2\n      swap1\n      sstore\n      pop\n        /* \"contracts/TimbFarm.sol\":9234:9240  amount */\n      dup2\n        /* \"contracts/TimbFarm.sol\":9205:9216  totalStaked */\n      0x07\n      0x00\n        /* \"contracts/TimbFarm.sol\":9205:9240  totalStaked               += amount */\n      dup3\n      dup3\n      sload\n      tag_297\n      swap2\n      swap1\n      tag_163\n      jump\t// in\n    tag_297:\n      swap3\n      pop\n      pop\n      dup2\n      swap1\n      sstore\n      pop\n        /* \"contracts/TimbFarm.sol\":9251:9310  lpToken.safeTransferFrom(msg.sender, address(this), amount) */\n      tag_298\n        /* \"contracts/TimbFarm.sol\":9276:9286  msg.sender */\n      caller\n        /* \"contracts/TimbFarm.sol\":9296:9300  this */\n      address\n        /* \"contracts/TimbFarm.sol\":9303:9309  amount */\n      dup5\n        /* \"contracts/TimbFarm.sol\":9251:9258  lpToken */\n      0x01\n      0x00\n      swap1\n      sload\n      swap1\n      0x0100\n      exp\n      swap1\n      div\n      0xffffffffffffffffffffffffffffffffffffffff\n      and\n        /* \"contracts/TimbFarm.sol\":9251:9275  lpToken.safeTransferFrom */\n      0xffffffffffffffffffffffffffffffffffffffff\n      and\n      tag_179\n      swap1\n        /* \"contracts/TimbFarm.sol\":9251:9310  lpToken.safeTransferFrom(msg.sender, address(this), amount) */\n      swap4\n      swap3\n      swap2\n      swap1\n      0xffffffff\n      and\n      jump\t// in\n    tag_298:\n        /* \"contracts/TimbFarm.sol\":9333:9343  msg.sender */\n      caller\n        /* \"contracts/TimbFarm.sol\":9326:9352  Staked(msg.sender, amount) */\n      0xffffffffffffffffffffffffffffffffffffffff\n      and\n      0x9e71bc8eea02a63969f509818f2dafb9254532904319f9dbda79b67bd34a5f3d\n        /* \"contracts/TimbFarm.sol\":9345:9351  amount */\n      dup4\n        /* \"contracts/TimbFarm.sol\":9326:9352  Staked(msg.sender, amount) */\n      mload(0x40)\n      tag_299\n      swap2\n      swap1\n      tag_49\n      jump\t// in\n    tag_299:\n      mload(0x40)\n      dup1\n      swap2\n      sub\n      swap1\n      log2\n        /* \"contracts/TimbFarm.sol\":5671:5672  _ */\n      pop\n        /* \"@openzeppelin/contracts/utils/ReentrancyGuard.sol\":3065:3085  _nonReentrantAfter() */\n      tag_300\n        /* \"@openzeppelin/contracts/utils/ReentrancyGuard.sol\":3065:3083  _nonReentrantAfter */\n      tag_191\n        /* \"@openzeppelin/contracts/utils/ReentrancyGuard.sol\":3065:3085  _nonReentrantAfter() */\n      jump\t// in\n    tag_300:\n        /* \"contracts/TimbFarm.sol\":8828:9359  function stake(uint256 amount)... */\n      pop\n      jump\t// out\n        /* \"contracts/TimbFarm.sol\":2919:2948  uint256 public lastUpdateTime */\n    tag_126:\n      sload(0x05)\n      dup2\n      jump\t// out\n        /* \"contracts/TimbFarm.sol\":7234:7580  function rewardPerToken() public view returns (uint256) {... */\n    tag_129:\n        /* \"contracts/TimbFarm.sol\":7281:7288  uint256 */\n      0x00\n        /* \"contracts/TimbFarm.sol\":7319:7320  0 */\n      dup1\n        /* \"contracts/TimbFarm.sol\":7304:7315  totalStaked */\n      sload(0x07)\n        /* \"contracts/TimbFarm.sol\":7304:7320  totalStaked == 0 */\n      sub\n        /* \"contracts/TimbFarm.sol\":7300:7374  if (totalStaked == 0) {... */\n      tag_302\n      jumpi\n        /* \"contracts/TimbFarm.sol\":7343:7363  rewardPerTokenStored */\n      sload(0x06)\n        /* \"contracts/TimbFarm.sol\":7336:7363  return rewardPerTokenStored */\n      swap1\n      pop\n      jump(tag_301)\n        /* \"contracts/TimbFarm.sol\":7300:7374  if (totalStaked == 0) {... */\n    tag_302:\n        /* \"contracts/TimbFarm.sol\":7552:7563  totalStaked */\n      sload(0x07)\n        /* \"contracts/TimbFarm.sol\":7529:7533  1e18 */\n      0x0de0b6b3a7640000\n        /* \"contracts/TimbFarm.sol\":7491:7510  rewardRatePerSecond */\n      sload(0x03)\n        /* \"contracts/TimbFarm.sol\":7457:7471  lastUpdateTime */\n      sload(0x05)\n        /* \"contracts/TimbFarm.sol\":7428:7454  lastTimeRewardApplicable() */\n      tag_303\n        /* \"contracts/TimbFarm.sol\":7428:7452  lastTimeRewardApplicable */\n      tag_98\n        /* \"contracts/TimbFarm.sol\":7428:7454  lastTimeRewardApplicable() */\n      jump\t// in\n    tag_303:\n        /* \"contracts/TimbFarm.sol\":7428:7471  lastTimeRewardApplicable() - lastUpdateTime */\n      tag_304\n      swap2\n      swap1\n      tag_157\n      jump\t// in\n    tag_304:\n        /* \"contracts/TimbFarm.sol\":7427:7510  (lastTimeRewardApplicable() - lastUpdateTime)... */\n      tag_305\n      swap2\n      swap1\n      tag_159\n      jump\t// in\n    tag_305:\n        /* \"contracts/TimbFarm.sol\":7427:7533  (lastTimeRewardApplicable() - lastUpdateTime)... */\n      tag_306\n      swap2\n      swap1\n      tag_159\n      jump\t// in\n    tag_306:\n        /* \"contracts/TimbFarm.sol\":7427:7563  (lastTimeRewardApplicable() - lastUpdateTime)... */\n      tag_307\n      swap2\n      swap1\n      tag_161\n      jump\t// in\n    tag_307:\n        /* \"contracts/TimbFarm.sol\":7390:7410  rewardPerTokenStored */\n      sload(0x06)\n        /* \"contracts/TimbFarm.sol\":7390:7573  rewardPerTokenStored + (... */\n      tag_308\n      swap2\n      swap1\n      tag_163\n      jump\t// in\n    tag_308:\n        /* \"contracts/TimbFarm.sol\":7383:7573  return rewardPerTokenStored + (... */\n      swap1\n      pop\n        /* \"contracts/TimbFarm.sol\":7234:7580  function rewardPerToken() public view returns (uint256) {... */\n    tag_301:\n      swap1\n      jump\t// out\n        /* \"contracts/TimbFarm.sol\":3590:3637  mapping(address => bool) public rewardNotifiers */\n    tag_133:\n      mstore(0x20, 0x0b)\n      dup1\n      0x00\n      mstore\n      keccak256(0x00, 0x40)\n      0x00\n      swap2\n      pop\n      sload\n      swap1\n      0x0100\n      exp\n      swap1\n      div\n      0xff\n      and\n      dup2\n      jump\t// out\n        /* \"contracts/TimbFarm.sol\":15769:16224  function emergencyWithdraw() external nonReentrant {... */\n    tag_136:\n        /* \"@openzeppelin/contracts/utils/ReentrancyGuard.sol\":3023:3044  _nonReentrantBefore() */\n      tag_310\n        /* \"@openzeppelin/contracts/utils/ReentrancyGuard.sol\":3023:3042  _nonReentrantBefore */\n      tag_166\n        /* \"@openzeppelin/contracts/utils/ReentrancyGuard.sol\":3023:3044  _nonReentrantBefore() */\n      jump\t// in\n    tag_310:\n        /* \"contracts/TimbFarm.sol\":15830:15844  uint256 staked */\n      0x00\n        /* \"contracts/TimbFarm.sol\":15847:15860  stakedBalance */\n      0x08\n        /* \"contracts/TimbFarm.sol\":15847:15872  stakedBalance[msg.sender] */\n      0x00\n        /* \"contracts/TimbFarm.sol\":15861:15871  msg.sender */\n      caller\n        /* \"contracts/TimbFarm.sol\":15847:15872  stakedBalance[msg.sender] */\n      0xffffffffffffffffffffffffffffffffffffffff\n      and\n      0xffffffffffffffffffffffffffffffffffffffff\n      and\n      dup2\n      mstore\n      0x20\n      add\n      swap1\n      dup2\n      mstore\n      0x20\n      add\n      0x00\n      keccak256\n      sload\n        /* \"contracts/TimbFarm.sol\":15830:15872  uint256 staked = stakedBalance[msg.sender] */\n      swap1\n      pop\n        /* \"contracts/TimbFarm.sol\":15896:15897  0 */\n      0x00\n        /* \"contracts/TimbFarm.sol\":15886:15892  staked */\n      dup2\n        /* \"contracts/TimbFarm.sol\":15886:15897  staked == 0 */\n      sub\n        /* \"contracts/TimbFarm.sol\":15882:15918  if (staked == 0) revert ZeroAmount() */\n      tag_312\n      jumpi\n        /* \"contracts/TimbFarm.sol\":15906:15918  ZeroAmount() */\n      mload(0x40)\n      0x1f2a200500000000000000000000000000000000000000000000000000000000\n      dup2\n      mstore\n      0x04\n      add\n      mload(0x40)\n      dup1\n      swap2\n      sub\n      swap1\n      revert\n        /* \"contracts/TimbFarm.sol\":15882:15918  if (staked == 0) revert ZeroAmount() */\n    tag_312:\n        /* \"contracts/TimbFarm.sol\":15965:15966  0 */\n      0x00\n        /* \"contracts/TimbFarm.sol\":15929:15942  stakedBalance */\n      0x08\n        /* \"contracts/TimbFarm.sol\":15929:15954  stakedBalance[msg.sender] */\n      0x00\n        /* \"contracts/TimbFarm.sol\":15943:15953  msg.sender */\n      caller\n        /* \"contracts/TimbFarm.sol\":15929:15954  stakedBalance[msg.sender] */\n      0xffffffffffffffffffffffffffffffffffffffff\n      and\n      0xffffffffffffffffffffffffffffffffffffffff\n      and\n      dup2\n      mstore\n      0x20\n      add\n      swap1\n      dup2\n      mstore\n      0x20\n      add\n      0x00\n      keccak256\n        /* \"contracts/TimbFarm.sol\":15929:15966  stakedBalance[msg.sender]         = 0 */\n      dup2\n      swap1\n      sstore\n      pop\n        /* \"contracts/TimbFarm.sol\":16012:16013  0 */\n      0x00\n        /* \"contracts/TimbFarm.sol\":15976:15990  pendingRewards */\n      0x0a\n        /* \"contracts/TimbFarm.sol\":15976:16002  pendingRewards[msg.sender] */\n      0x00\n        /* \"contracts/TimbFarm.sol\":15991:16001  msg.sender */\n      caller\n        /* \"contracts/TimbFarm.sol\":15976:16002  pendingRewards[msg.sender] */\n      0xffffffffffffffffffffffffffffffffffffffff\n      and\n      0xffffffffffffffffffffffffffffffffffffffff\n      and\n      dup2\n      mstore\n      0x20\n      add\n      swap1\n      dup2\n      mstore\n      0x20\n      add\n      0x00\n      keccak256\n        /* \"contracts/TimbFarm.sol\":15976:16013  pendingRewards[msg.sender]        = 0 */\n      dup2\n      swap1\n      sstore\n      pop\n        /* \"contracts/TimbFarm.sol\":16060:16061  0 */\n      0x00\n        /* \"contracts/TimbFarm.sol\":16023:16045  userRewardPerTokenPaid */\n      0x09\n        /* \"contracts/TimbFarm.sol\":16023:16057  userRewardPerTokenPaid[msg.sender] */\n      0x00\n        /* \"contracts/TimbFarm.sol\":16046:16056  msg.sender */\n      caller\n        /* \"contracts/TimbFarm.sol\":16023:16057  userRewardPerTokenPaid[msg.sender] */\n      0xffffffffffffffffffffffffffffffffffffffff\n      and\n      0xffffffffffffffffffffffffffffffffffffffff\n      and\n      dup2\n      mstore\n      0x20\n      add\n      swap1\n      dup2\n      mstore\n      0x20\n      add\n      0x00\n      keccak256\n        /* \"contracts/TimbFarm.sol\":16023:16061  userRewardPerTokenPaid[msg.sender] = 0 */\n      dup2\n      swap1\n      sstore\n      pop\n        /* \"contracts/TimbFarm.sol\":16108:16114  staked */\n      dup1\n        /* \"contracts/TimbFarm.sol\":16071:16082  totalStaked */\n      0x07\n      0x00\n        /* \"contracts/TimbFarm.sol\":16071:16114  totalStaked                       -= staked */\n      dup3\n      dup3\n      sload\n      tag_313\n      swap2\n      swap1\n      tag_157\n      jump\t// in\n    tag_313:\n      swap3\n      pop\n      pop\n      dup2\n      swap1\n      sstore\n      pop\n        /* \"contracts/TimbFarm.sol\":16125:16165  lpToken.safeTransfer(msg.sender, staked) */\n      tag_314\n        /* \"contracts/TimbFarm.sol\":16146:16156  msg.sender */\n      caller\n        /* \"contracts/TimbFarm.sol\":16158:16164  staked */\n      dup3\n        /* \"contracts/TimbFarm.sol\":16125:16132  lpToken */\n      0x01\n      0x00\n      swap1\n      sload\n      swap1\n      0x0100\n      exp\n      swap1\n      div\n      0xffffffffffffffffffffffffffffffffffffffff\n      and\n        /* \"contracts/TimbFarm.sol\":16125:16145  lpToken.safeTransfer */\n      0xffffffffffffffffffffffffffffffffffffffff\n      and\n      tag_216\n      swap1\n        /* \"contracts/TimbFarm.sol\":16125:16165  lpToken.safeTransfer(msg.sender, staked) */\n      swap3\n      swap2\n      swap1\n      0xffffffff\n      and\n      jump\t// in\n    tag_314:\n        /* \"contracts/TimbFarm.sol\":16198:16208  msg.sender */\n      caller\n        /* \"contracts/TimbFarm.sol\":16180:16217  EmergencyWithdraw(msg.sender, staked) */\n      0xffffffffffffffffffffffffffffffffffffffff\n      and\n      0x5fafa99d0643513820be26656b45130b01e1c03062e1266bf36f88cbd3bd9695\n        /* \"contracts/TimbFarm.sol\":16210:16216  staked */\n      dup3\n        /* \"contracts/TimbFarm.sol\":16180:16217  EmergencyWithdraw(msg.sender, staked) */\n      mload(0x40)\n      tag_315\n      swap2\n      swap1\n      tag_49\n      jump\t// in\n    tag_315:\n      mload(0x40)\n      dup1\n      swap2\n      sub\n      swap1\n      log2\n        /* \"contracts/TimbFarm.sol\":15820:16224  {... */\n      pop\n        /* \"@openzeppelin/contracts/utils/ReentrancyGuard.sol\":3065:3085  _nonReentrantAfter() */\n      tag_316\n        /* \"@openzeppelin/contracts/utils/ReentrancyGuard.sol\":3065:3083  _nonReentrantAfter */\n      tag_191\n        /* \"@openzeppelin/contracts/utils/ReentrancyGuard.sol\":3065:3085  _nonReentrantAfter() */\n      jump\t// in\n    tag_316:\n        /* \"contracts/TimbFarm.sol\":15769:16224  function emergencyWithdraw() external nonReentrant {... */\n      jump\t// out\n        /* \"contracts/TimbFarm.sol\":3035:3070  uint256 public rewardPerTokenStored */\n    tag_138:\n      sload(0x06)\n      dup2\n      jump\t// out\n        /* \"contracts/TimbFarm.sol\":11432:12295  function exit()... */\n    tag_141:\n        /* \"@openzeppelin/contracts/utils/ReentrancyGuard.sol\":3023:3044  _nonReentrantBefore() */\n      tag_318\n        /* \"@openzeppelin/contracts/utils/ReentrancyGuard.sol\":3023:3042  _nonReentrantBefore */\n      tag_166\n        /* \"@openzeppelin/contracts/utils/ReentrancyGuard.sol\":3023:3044  _nonReentrantBefore() */\n      jump\t// in\n    tag_318:\n        /* \"contracts/TimbFarm.sol\":5521:5527  paused */\n      0x0c\n      0x01\n      swap1\n      sload\n      swap1\n      0x0100\n      exp\n      swap1\n      div\n      0xff\n      and\n        /* \"contracts/TimbFarm.sol\":5517:5552  if (paused) revert ContractPaused() */\n      iszero\n      tag_320\n      jumpi\n        /* \"contracts/TimbFarm.sol\":5536:5552  ContractPaused() */\n      mload(0x40)\n      0xab35696f00000000000000000000000000000000000000000000000000000000\n      dup2\n      mstore\n      0x04\n      add\n      mload(0x40)\n      dup1\n      swap2\n      sub\n      swap1\n      revert\n        /* \"contracts/TimbFarm.sol\":5517:5552  if (paused) revert ContractPaused() */\n    tag_320:\n        /* \"contracts/TimbFarm.sol\":5635:5636  0 */\n      0x00\n        /* \"contracts/TimbFarm.sol\":5607:5637  address(lpToken) == address(0) */\n      0xffffffffffffffffffffffffffffffffffffffff\n      and\n        /* \"contracts/TimbFarm.sol\":5615:5622  lpToken */\n      0x01\n      0x00\n      swap1\n      sload\n      swap1\n      0x0100\n      exp\n      swap1\n      div\n      0xffffffffffffffffffffffffffffffffffffffff\n      and\n        /* \"contracts/TimbFarm.sol\":5607:5637  address(lpToken) == address(0) */\n      0xffffffffffffffffffffffffffffffffffffffff\n      and\n      sub\n        /* \"contracts/TimbFarm.sol\":5603:5661  if (address(lpToken) == address(0)) revert LpTokenNotSet() */\n      tag_322\n      jumpi\n        /* \"contracts/TimbFarm.sol\":5646:5661  LpTokenNotSet() */\n      mload(0x40)\n      0x70362cde00000000000000000000000000000000000000000000000000000000\n      dup2\n      mstore\n      0x04\n      add\n      mload(0x40)\n      dup1\n      swap2\n      sub\n      swap1\n      revert\n        /* \"contracts/TimbFarm.sol\":5603:5661  if (address(lpToken) == address(0)) revert LpTokenNotSet() */\n    tag_322:\n        /* \"contracts/TimbFarm.sol\":11543:11553  msg.sender */\n      caller\n        /* \"contracts/TimbFarm.sol\":5757:5773  rewardPerToken() */\n      tag_324\n        /* \"contracts/TimbFarm.sol\":5757:5771  rewardPerToken */\n      tag_129\n        /* \"contracts/TimbFarm.sol\":5757:5773  rewardPerToken() */\n      jump\t// in\n    tag_324:\n        /* \"contracts/TimbFarm.sol\":5734:5754  rewardPerTokenStored */\n      0x06\n        /* \"contracts/TimbFarm.sol\":5734:5773  rewardPerTokenStored = rewardPerToken() */\n      dup2\n      swap1\n      sstore\n      pop\n        /* \"contracts/TimbFarm.sol\":5806:5832  lastTimeRewardApplicable() */\n      tag_325\n        /* \"contracts/TimbFarm.sol\":5806:5830  lastTimeRewardApplicable */\n      tag_98\n        /* \"contracts/TimbFarm.sol\":5806:5832  lastTimeRewardApplicable() */\n      jump\t// in\n    tag_325:\n        /* \"contracts/TimbFarm.sol\":5783:5797  lastUpdateTime */\n      0x05\n        /* \"contracts/TimbFarm.sol\":5783:5832  lastUpdateTime       = lastTimeRewardApplicable() */\n      dup2\n      swap1\n      sstore\n      pop\n        /* \"contracts/TimbFarm.sol\":5865:5866  0 */\n      0x00\n        /* \"contracts/TimbFarm.sol\":5846:5867  account != address(0) */\n      0xffffffffffffffffffffffffffffffffffffffff\n      and\n        /* \"contracts/TimbFarm.sol\":5846:5853  account */\n      dup2\n        /* \"contracts/TimbFarm.sol\":5846:5867  account != address(0) */\n      0xffffffffffffffffffffffffffffffffffffffff\n      and\n      eq\n        /* \"contracts/TimbFarm.sol\":5842:6011  if (account != address(0)) {... */\n      tag_326\n      jumpi\n        /* \"contracts/TimbFarm.sol\":5917:5932  earned(account) */\n      tag_327\n        /* \"contracts/TimbFarm.sol\":5924:5931  account */\n      dup2\n        /* \"contracts/TimbFarm.sol\":5917:5923  earned */\n      tag_47\n        /* \"contracts/TimbFarm.sol\":5917:5932  earned(account) */\n      jump\t// in\n    tag_327:\n        /* \"contracts/TimbFarm.sol\":5883:5897  pendingRewards */\n      0x0a\n        /* \"contracts/TimbFarm.sol\":5883:5906  pendingRewards[account] */\n      0x00\n        /* \"contracts/TimbFarm.sol\":5898:5905  account */\n      dup4\n        /* \"contracts/TimbFarm.sol\":5883:5906  pendingRewards[account] */\n      0xffffffffffffffffffffffffffffffffffffffff\n      and\n      0xffffffffffffffffffffffffffffffffffffffff\n      and\n      dup2\n      mstore\n      0x20\n      add\n      swap1\n      dup2\n      mstore\n      0x20\n      add\n      0x00\n      keccak256\n        /* \"contracts/TimbFarm.sol\":5883:5932  pendingRewards[account]         = earned(account) */\n      dup2\n      swap1\n      sstore\n      pop\n        /* \"contracts/TimbFarm.sol\":5980:6000  rewardPerTokenStored */\n      sload(0x06)\n        /* \"contracts/TimbFarm.sol\":5946:5968  userRewardPerTokenPaid */\n      0x09\n        /* \"contracts/TimbFarm.sol\":5946:5977  userRewardPerTokenPaid[account] */\n      0x00\n        /* \"contracts/TimbFarm.sol\":5969:5976  account */\n      dup4\n        /* \"contracts/TimbFarm.sol\":5946:5977  userRewardPerTokenPaid[account] */\n      0xffffffffffffffffffffffffffffffffffffffff\n      and\n      0xffffffffffffffffffffffffffffffffffffffff\n      and\n      dup2\n      mstore\n      0x20\n      add\n      swap1\n      dup2\n      mstore\n      0x20\n      add\n      0x00\n      keccak256\n        /* \"contracts/TimbFarm.sol\":5946:6000  userRewardPerTokenPaid[account] = rewardPerTokenStored */\n      dup2\n      swap1\n      sstore\n      pop\n        /* \"contracts/TimbFarm.sol\":5842:6011  if (account != address(0)) {... */\n    tag_326:\n        /* \"contracts/TimbFarm.sol\":11569:11583  uint256 staked */\n      0x00\n        /* \"contracts/TimbFarm.sol\":11586:11599  stakedBalance */\n      0x08\n        /* \"contracts/TimbFarm.sol\":11586:11611  stakedBalance[msg.sender] */\n      0x00\n        /* \"contracts/TimbFarm.sol\":11600:11610  msg.sender */\n      caller\n        /* \"contracts/TimbFarm.sol\":11586:11611  stakedBalance[msg.sender] */\n      0xffffffffffffffffffffffffffffffffffffffff\n      and\n      0xffffffffffffffffffffffffffffffffffffffff\n      and\n      dup2\n      mstore\n      0x20\n      add\n      swap1\n      dup2\n      mstore\n      0x20\n      add\n      0x00\n      keccak256\n      sload\n        /* \"contracts/TimbFarm.sol\":11569:11611  uint256 staked = stakedBalance[msg.sender] */\n      swap1\n      pop\n        /* \"contracts/TimbFarm.sol\":11621:11635  uint256 reward */\n      0x00\n        /* \"contracts/TimbFarm.sol\":11638:11652  pendingRewards */\n      0x0a\n        /* \"contracts/TimbFarm.sol\":11638:11664  pendingRewards[msg.sender] */\n      0x00\n        /* \"contracts/TimbFarm.sol\":11653:11663  msg.sender */\n      caller\n        /* \"contracts/TimbFarm.sol\":11638:11664  pendingRewards[msg.sender] */\n      0xffffffffffffffffffffffffffffffffffffffff\n      and\n      0xffffffffffffffffffffffffffffffffffffffff\n      and\n      dup2\n      mstore\n      0x20\n      add\n      swap1\n      dup2\n      mstore\n      0x20\n      add\n      0x00\n      keccak256\n      sload\n        /* \"contracts/TimbFarm.sol\":11621:11664  uint256 reward = pendingRewards[msg.sender] */\n      swap1\n      pop\n        /* \"contracts/TimbFarm.sol\":11688:11689  0 */\n      0x00\n        /* \"contracts/TimbFarm.sol\":11679:11685  staked */\n      dup3\n        /* \"contracts/TimbFarm.sol\":11679:11689  staked > 0 */\n      gt\n        /* \"contracts/TimbFarm.sol\":11675:11894  if (staked > 0) {... */\n      iszero\n      tag_329\n      jumpi\n        /* \"contracts/TimbFarm.sol\":11733:11734  0 */\n      0x00\n        /* \"contracts/TimbFarm.sol\":11705:11718  stakedBalance */\n      0x08\n        /* \"contracts/TimbFarm.sol\":11705:11730  stakedBalance[msg.sender] */\n      0x00\n        /* \"contracts/TimbFarm.sol\":11719:11729  msg.sender */\n      caller\n        /* \"contracts/TimbFarm.sol\":11705:11730  stakedBalance[msg.sender] */\n      0xffffffffffffffffffffffffffffffffffffffff\n      and\n      0xffffffffffffffffffffffffffffffffffffffff\n      and\n      dup2\n      mstore\n      0x20\n      add\n      swap1\n      dup2\n      mstore\n      0x20\n      add\n      0x00\n      keccak256\n        /* \"contracts/TimbFarm.sol\":11705:11734  stakedBalance[msg.sender] = 0 */\n      dup2\n      swap1\n      sstore\n      pop\n        /* \"contracts/TimbFarm.sol\":11776:11782  staked */\n      dup2\n        /* \"contracts/TimbFarm.sol\":11748:11759  totalStaked */\n      0x07\n      0x00\n        /* \"contracts/TimbFarm.sol\":11748:11782  totalStaked              -= staked */\n      dup3\n      dup3\n      sload\n      tag_330\n      swap2\n      swap1\n      tag_157\n      jump\t// in\n    tag_330:\n      swap3\n      pop\n      pop\n      dup2\n      swap1\n      sstore\n      pop\n        /* \"contracts/TimbFarm.sol\":11796:11836  lpToken.safeTransfer(msg.sender, staked) */\n      tag_331\n        /* \"contracts/TimbFarm.sol\":11817:11827  msg.sender */\n      caller\n        /* \"contracts/TimbFarm.sol\":11829:11835  staked */\n      dup4\n        /* \"contracts/TimbFarm.sol\":11796:11803  lpToken */\n      0x01\n      0x00\n      swap1\n      sload\n      swap1\n      0x0100\n      exp\n      swap1\n      div\n      0xffffffffffffffffffffffffffffffffffffffff\n      and\n        /* \"contracts/TimbFarm.sol\":11796:11816  lpToken.safeTransfer */\n      0xffffffffffffffffffffffffffffffffffffffff\n      and\n      tag_216\n      swap1\n        /* \"contracts/TimbFarm.sol\":11796:11836  lpToken.safeTransfer(msg.sender, staked) */\n      swap3\n      swap2\n      swap1\n      0xffffffff\n      and\n      jump\t// in\n    tag_331:\n        /* \"contracts/TimbFarm.sol\":11864:11874  msg.sender */\n      caller\n        /* \"contracts/TimbFarm.sol\":11855:11883  Unstaked(msg.sender, staked) */\n      0xffffffffffffffffffffffffffffffffffffffff\n      and\n      0x0f5bb82176feb1b5e747e28471aa92156a04d9f3ab9f45f28e2d704232b93f75\n        /* \"contracts/TimbFarm.sol\":11876:11882  staked */\n      dup4\n        /* \"contracts/TimbFarm.sol\":11855:11883  Unstaked(msg.sender, staked) */\n      mload(0x40)\n      tag_332\n      swap2\n      swap1\n      tag_49\n      jump\t// in\n    tag_332:\n      mload(0x40)\n      dup1\n      swap2\n      sub\n      swap1\n      log2\n        /* \"contracts/TimbFarm.sol\":11675:11894  if (staked > 0) {... */\n    tag_329:\n        /* \"contracts/TimbFarm.sol\":11917:11918  0 */\n      0x00\n        /* \"contracts/TimbFarm.sol\":11908:11914  reward */\n      dup2\n        /* \"contracts/TimbFarm.sol\":11908:11918  reward > 0 */\n      gt\n        /* \"contracts/TimbFarm.sol\":11904:12289  if (reward > 0) {... */\n      iszero\n      tag_333\n      jumpi\n        /* \"contracts/TimbFarm.sol\":11934:11951  uint256 available */\n      0x00\n        /* \"contracts/TimbFarm.sol\":11954:11964  timbsToken */\n      immutable(\"0x962c584afcd4dd6cb0e25fef291e59a13b9ae1b34d13f25b13a34669b807535c\")\n        /* \"contracts/TimbFarm.sol\":11954:11974  timbsToken.balanceOf */\n      0xffffffffffffffffffffffffffffffffffffffff\n      and\n      0x70a08231\n        /* \"contracts/TimbFarm.sol\":11983:11987  this */\n      address\n        /* \"contracts/TimbFarm.sol\":11954:11989  timbsToken.balanceOf(address(this)) */\n      mload(0x40)\n      dup3\n      0xffffffff\n      and\n      0xe0\n      shl\n      dup2\n      mstore\n      0x04\n      add\n      tag_334\n      swap2\n      swap1\n      tag_94\n      jump\t// in\n    tag_334:\n      0x20\n      mload(0x40)\n      dup1\n      dup4\n      sub\n      dup2\n      dup7\n      gas\n      staticcall\n      iszero\n      dup1\n      iszero\n      tag_336\n      jumpi\n      returndatasize\n      0x00\n      dup1\n      returndatacopy\n      revert(0x00, returndatasize)\n    tag_336:\n      pop\n      pop\n      pop\n      pop\n      mload(0x40)\n      returndatasize\n      not(0x1f)\n      0x1f\n      dup3\n      add\n      and\n      dup3\n      add\n      dup1\n      0x40\n      mstore\n      pop\n      dup2\n      add\n      swap1\n      tag_337\n      swap2\n      swap1\n      tag_234\n      jump\t// in\n    tag_337:\n        /* \"contracts/TimbFarm.sol\":11934:11989  uint256 available = timbsToken.balanceOf(address(this)) */\n      swap1\n      pop\n        /* \"contracts/TimbFarm.sol\":12017:12026  available */\n      dup1\n        /* \"contracts/TimbFarm.sol\":12007:12013  reward */\n      dup3\n        /* \"contracts/TimbFarm.sol\":12007:12026  reward <= available */\n      gt\n        /* \"contracts/TimbFarm.sol\":12003:12209  if (reward <= available) {... */\n      tag_338\n      jumpi\n        /* \"contracts/TimbFarm.sol\":12075:12076  0 */\n      0x00\n        /* \"contracts/TimbFarm.sol\":12046:12060  pendingRewards */\n      0x0a\n        /* \"contracts/TimbFarm.sol\":12046:12072  pendingRewards[msg.sender] */\n      0x00\n        /* \"contracts/TimbFarm.sol\":12061:12071  msg.sender */\n      caller\n        /* \"contracts/TimbFarm.sol\":12046:12072  pendingRewards[msg.sender] */\n      0xffffffffffffffffffffffffffffffffffffffff\n      and\n      0xffffffffffffffffffffffffffffffffffffffff\n      and\n      dup2\n      mstore\n      0x20\n      add\n      swap1\n      dup2\n      mstore\n      0x20\n      add\n      0x00\n      keccak256\n        /* \"contracts/TimbFarm.sol\":12046:12076  pendingRewards[msg.sender] = 0 */\n      dup2\n      swap1\n      sstore\n      pop\n        /* \"contracts/TimbFarm.sol\":12094:12137  timbsToken.safeTransfer(msg.sender, reward) */\n      tag_339\n        /* \"contracts/TimbFarm.sol\":12118:12128  msg.sender */\n      caller\n        /* \"contracts/TimbFarm.sol\":12130:12136  reward */\n      dup4\n        /* \"contracts/TimbFarm.sol\":12094:12104  timbsToken */\n      immutable(\"0x962c584afcd4dd6cb0e25fef291e59a13b9ae1b34d13f25b13a34669b807535c\")\n        /* \"contracts/TimbFarm.sol\":12094:12117  timbsToken.safeTransfer */\n      0xffffffffffffffffffffffffffffffffffffffff\n      and\n      tag_216\n      swap1\n        /* \"contracts/TimbFarm.sol\":12094:12137  timbsToken.safeTransfer(msg.sender, reward) */\n      swap3\n      swap2\n      swap1\n      0xffffffff\n      and\n      jump\t// in\n    tag_339:\n        /* \"contracts/TimbFarm.sol\":12175:12185  msg.sender */\n      caller\n        /* \"contracts/TimbFarm.sol\":12160:12194  RewardsClaimed(msg.sender, reward) */\n      0xffffffffffffffffffffffffffffffffffffffff\n      and\n      0xfc30cddea38e2bf4d6ea7d3f9ed3b6ad7f176419f4963bd81318067a4aee73fe\n        /* \"contracts/TimbFarm.sol\":12187:12193  reward */\n      dup4\n        /* \"contracts/TimbFarm.sol\":12160:12194  RewardsClaimed(msg.sender, reward) */\n      mload(0x40)\n      tag_340\n      swap2\n      swap1\n      tag_49\n      jump\t// in\n    tag_340:\n      mload(0x40)\n      dup1\n      swap2\n      sub\n      swap1\n      log2\n        /* \"contracts/TimbFarm.sol\":12003:12209  if (reward <= available) {... */\n    tag_338:\n        /* \"contracts/TimbFarm.sol\":11920:12289  {... */\n      pop\n        /* \"contracts/TimbFarm.sol\":11904:12289  if (reward > 0) {... */\n    tag_333:\n        /* \"contracts/TimbFarm.sol\":11559:12295  {... */\n      pop\n      pop\n        /* \"contracts/TimbFarm.sol\":5671:5672  _ */\n      pop\n        /* \"@openzeppelin/contracts/utils/ReentrancyGuard.sol\":3065:3085  _nonReentrantAfter() */\n      tag_341\n        /* \"@openzeppelin/contracts/utils/ReentrancyGuard.sol\":3065:3083  _nonReentrantAfter */\n      tag_191\n        /* \"@openzeppelin/contracts/utils/ReentrancyGuard.sol\":3065:3085  _nonReentrantAfter() */\n      jump\t// in\n    tag_341:\n        /* \"contracts/TimbFarm.sol\":11432:12295  function exit()... */\n      jump\t// out\n        /* \"contracts/TimbFarm.sol\":2829:2856  uint256 public periodFinish */\n    tag_143:\n      sload(0x04)\n      dup2\n      jump\t// out\n        /* \"contracts/TimbFarm.sol\":14751:15106  function setTreasury(address _treasury) external onlyOwner {... */\n    tag_147:\n        /* \"@openzeppelin/contracts/access/Ownable.sol\":1531:1544  _checkOwner() */\n      tag_343\n        /* \"@openzeppelin/contracts/access/Ownable.sol\":1531:1542  _checkOwner */\n      tag_194\n        /* \"@openzeppelin/contracts/access/Ownable.sol\":1531:1544  _checkOwner() */\n      jump\t// in\n    tag_343:\n        /* \"contracts/TimbFarm.sol\":14845:14846  0 */\n      0x00\n        /* \"contracts/TimbFarm.sol\":14824:14847  _treasury == address(0) */\n      0xffffffffffffffffffffffffffffffffffffffff\n      and\n        /* \"contracts/TimbFarm.sol\":14824:14833  _treasury */\n      dup2\n        /* \"contracts/TimbFarm.sol\":14824:14847  _treasury == address(0) */\n      0xffffffffffffffffffffffffffffffffffffffff\n      and\n      sub\n        /* \"contracts/TimbFarm.sol\":14820:14869  if (_treasury == address(0)) revert ZeroAddress() */\n      tag_345\n      jumpi\n        /* \"contracts/TimbFarm.sol\":14856:14869  ZeroAddress() */\n      mload(0x40)\n      0xd92e233d00000000000000000000000000000000000000000000000000000000\n      dup2\n      mstore\n      0x04\n      add\n      mload(0x40)\n      dup1\n      swap2\n      sub\n      swap1\n      revert\n        /* \"contracts/TimbFarm.sol\":14820:14869  if (_treasury == address(0)) revert ZeroAddress() */\n    tag_345:\n        /* \"contracts/TimbFarm.sol\":14903:14904  0 */\n      0x00\n        /* \"contracts/TimbFarm.sol\":14883:14905  treasury != address(0) */\n      0xffffffffffffffffffffffffffffffffffffffff\n      and\n        /* \"contracts/TimbFarm.sol\":14883:14891  treasury */\n      0x02\n      0x00\n      swap1\n      sload\n      swap1\n      0x0100\n      exp\n      swap1\n      div\n      0xffffffffffffffffffffffffffffffffffffffff\n      and\n        /* \"contracts/TimbFarm.sol\":14883:14905  treasury != address(0) */\n      0xffffffffffffffffffffffffffffffffffffffff\n      and\n      eq\n        /* \"contracts/TimbFarm.sol\":14879:14940  if (treasury != address(0)) rewardNotifiers[treasury] = false */\n      tag_346\n      jumpi\n        /* \"contracts/TimbFarm.sol\":14935:14940  false */\n      0x00\n        /* \"contracts/TimbFarm.sol\":14907:14922  rewardNotifiers */\n      0x0b\n        /* \"contracts/TimbFarm.sol\":14907:14932  rewardNotifiers[treasury] */\n      0x00\n        /* \"contracts/TimbFarm.sol\":14923:14931  treasury */\n      0x02\n      0x00\n      swap1\n      sload\n      swap1\n      0x0100\n      exp\n      swap1\n      div\n      0xffffffffffffffffffffffffffffffffffffffff\n      and\n        /* \"contracts/TimbFarm.sol\":14907:14932  rewardNotifiers[treasury] */\n      0xffffffffffffffffffffffffffffffffffffffff\n      and\n      0xffffffffffffffffffffffffffffffffffffffff\n      and\n      dup2\n      mstore\n      0x20\n      add\n      swap1\n      dup2\n      mstore\n      0x20\n      add\n      0x00\n      keccak256\n      0x00\n        /* \"contracts/TimbFarm.sol\":14907:14940  rewardNotifiers[treasury] = false */\n      0x0100\n      exp\n      dup2\n      sload\n      dup2\n      0xff\n      mul\n      not\n      and\n      swap1\n      dup4\n      iszero\n      iszero\n      mul\n      or\n      swap1\n      sstore\n      pop\n        /* \"contracts/TimbFarm.sol\":14879:14940  if (treasury != address(0)) rewardNotifiers[treasury] = false */\n    tag_346:\n        /* \"contracts/TimbFarm.sol\":14961:14970  _treasury */\n      dup1\n        /* \"contracts/TimbFarm.sol\":14950:14958  treasury */\n      0x02\n      0x00\n        /* \"contracts/TimbFarm.sol\":14950:14970  treasury = _treasury */\n      0x0100\n      exp\n      dup2\n      sload\n      dup2\n      0xffffffffffffffffffffffffffffffffffffffff\n      mul\n      not\n      and\n      swap1\n      dup4\n      0xffffffffffffffffffffffffffffffffffffffff\n      and\n      mul\n      or\n      swap1\n      sstore\n      pop\n        /* \"contracts/TimbFarm.sol\":15009:15013  true */\n      0x01\n        /* \"contracts/TimbFarm.sol\":14980:14995  rewardNotifiers */\n      0x0b\n        /* \"contracts/TimbFarm.sol\":14980:15006  rewardNotifiers[_treasury] */\n      0x00\n        /* \"contracts/TimbFarm.sol\":14996:15005  _treasury */\n      dup4\n        /* \"contracts/TimbFarm.sol\":14980:15006  rewardNotifiers[_treasury] */\n      0xffffffffffffffffffffffffffffffffffffffff\n      and\n      0xffffffffffffffffffffffffffffffffffffffff\n      and\n      dup2\n      mstore\n      0x20\n      add\n      swap1\n      dup2\n      mstore\n      0x20\n      add\n      0x00\n      keccak256\n      0x00\n        /* \"contracts/TimbFarm.sol\":14980:15013  rewardNotifiers[_treasury] = true */\n      0x0100\n      exp\n      dup2\n      sload\n      dup2\n      0xff\n      mul\n      not\n      and\n      swap1\n      dup4\n      iszero\n      iszero\n      mul\n      or\n      swap1\n      sstore\n      pop\n        /* \"contracts/TimbFarm.sol\":15040:15049  _treasury */\n      dup1\n        /* \"contracts/TimbFarm.sol\":15028:15050  TreasurySet(_treasury) */\n      0xffffffffffffffffffffffffffffffffffffffff\n      and\n      0x3c864541ef71378c6229510ed90f376565ee42d9c5e0904a984a9e863e6db44f\n      mload(0x40)\n      mload(0x40)\n      dup1\n      swap2\n      sub\n      swap1\n      log2\n        /* \"contracts/TimbFarm.sol\":15083:15092  _treasury */\n      dup1\n        /* \"contracts/TimbFarm.sol\":15065:15099  RewardNotifierSet(_treasury, true) */\n      0xffffffffffffffffffffffffffffffffffffffff\n      and\n      0xb33ca1dabfb28a2e1bd06b332c396b1a3d538278691341a5503bbad53f919197\n        /* \"contracts/TimbFarm.sol\":15094:15098  true */\n      0x01\n        /* \"contracts/TimbFarm.sol\":15065:15099  RewardNotifierSet(_treasury, true) */\n      mload(0x40)\n      tag_347\n      swap2\n      swap1\n      tag_69\n      jump\t// in\n    tag_347:\n      mload(0x40)\n      dup1\n      swap2\n      sub\n      swap1\n      log2\n        /* \"contracts/TimbFarm.sol\":14751:15106  function setTreasury(address _treasury) external onlyOwner {... */\n      pop\n      jump\t// out\n        /* \"@openzeppelin/contracts/access/Ownable.sol\":2543:2758  function transferOwnership(address newOwner) public virtual onlyOwner {... */\n    tag_150:\n        /* \"@openzeppelin/contracts/access/Ownable.sol\":1531:1544  _checkOwner() */\n      tag_349\n        /* \"@openzeppelin/contracts/access/Ownable.sol\":1531:1542  _checkOwner */\n      tag_194\n        /* \"@openzeppelin/contracts/access/Ownable.sol\":1531:1544  _checkOwner() */\n      jump\t// in\n    tag_349:\n        /* \"@openzeppelin/contracts/access/Ownable.sol\":2647:2648  0 */\n      0x00\n        /* \"@openzeppelin/contracts/access/Ownable.sol\":2627:2649  newOwner == address(0) */\n      0xffffffffffffffffffffffffffffffffffffffff\n      and\n        /* \"@openzeppelin/contracts/access/Ownable.sol\":2627:2635  newOwner */\n      dup2\n        /* \"@openzeppelin/contracts/access/Ownable.sol\":2627:2649  newOwner == address(0) */\n      0xffffffffffffffffffffffffffffffffffffffff\n      and\n      sub\n        /* \"@openzeppelin/contracts/access/Ownable.sol\":2623:2714  if (newOwner == address(0)) {... */\n      tag_351\n      jumpi\n        /* \"@openzeppelin/contracts/access/Ownable.sol\":2700:2701  0 */\n      0x00\n        /* \"@openzeppelin/contracts/access/Ownable.sol\":2672:2703  OwnableInvalidOwner(address(0)) */\n      mload(0x40)\n      0x1e4fbdf700000000000000000000000000000000000000000000000000000000\n      dup2\n      mstore\n      0x04\n      add\n      tag_352\n      swap2\n      swap1\n      tag_94\n      jump\t// in\n    tag_352:\n      mload(0x40)\n      dup1\n      swap2\n      sub\n      swap1\n      revert\n        /* \"@openzeppelin/contracts/access/Ownable.sol\":2623:2714  if (newOwner == address(0)) {... */\n    tag_351:\n        /* \"@openzeppelin/contracts/access/Ownable.sol\":2723:2751  _transferOwnership(newOwner) */\n      tag_353\n        /* \"@openzeppelin/contracts/access/Ownable.sol\":2742:2750  newOwner */\n      dup2\n        /* \"@openzeppelin/contracts/access/Ownable.sol\":2723:2741  _transferOwnership */\n      tag_247\n        /* \"@openzeppelin/contracts/access/Ownable.sol\":2723:2751  _transferOwnership(newOwner) */\n      jump\t// in\n    tag_353:\n        /* \"@openzeppelin/contracts/access/Ownable.sol\":2543:2758  function transferOwnership(address newOwner) public virtual onlyOwner {... */\n      pop\n      jump\t// out\n        /* \"contracts/TimbFarm.sol\":8099:8339  function estimatedEmissionsAPR() external view returns (uint256 aprBps) {... */\n    tag_152:\n        /* \"contracts/TimbFarm.sol\":8155:8169  uint256 aprBps */\n      0x00\n        /* \"contracts/TimbFarm.sol\":8200:8201  0 */\n      dup1\n        /* \"contracts/TimbFarm.sol\":8185:8196  totalStaked */\n      sload(0x07)\n        /* \"contracts/TimbFarm.sol\":8185:8201  totalStaked == 0 */\n      sub\n        /* \"contracts/TimbFarm.sol\":8181:8211  if (totalStaked == 0) return 0 */\n      tag_355\n      jumpi\n        /* \"contracts/TimbFarm.sol\":8210:8211  0 */\n      0x00\n        /* \"contracts/TimbFarm.sol\":8203:8211  return 0 */\n      swap1\n      pop\n      jump(tag_354)\n        /* \"contracts/TimbFarm.sol\":8181:8211  if (totalStaked == 0) return 0 */\n    tag_355:\n        /* \"contracts/TimbFarm.sol\":8221:8242  uint256 annualRewards */\n      0x00\n        /* \"contracts/TimbFarm.sol\":8267:8275  365 days */\n      0x01e13380\n        /* \"contracts/TimbFarm.sol\":8245:8264  rewardRatePerSecond */\n      sload(0x03)\n        /* \"contracts/TimbFarm.sol\":8245:8275  rewardRatePerSecond * 365 days */\n      tag_356\n      swap2\n      swap1\n      tag_159\n      jump\t// in\n    tag_356:\n        /* \"contracts/TimbFarm.sol\":8221:8275  uint256 annualRewards = rewardRatePerSecond * 365 days */\n      swap1\n      pop\n        /* \"contracts/TimbFarm.sol\":8321:8332  totalStaked */\n      sload(0x07)\n        /* \"contracts/TimbFarm.sol\":8311:8317  10_000 */\n      0x2710\n        /* \"contracts/TimbFarm.sol\":8295:8308  annualRewards */\n      dup3\n        /* \"contracts/TimbFarm.sol\":8295:8317  annualRewards * 10_000 */\n      tag_357\n      swap2\n      swap1\n      tag_159\n      jump\t// in\n    tag_357:\n        /* \"contracts/TimbFarm.sol\":8294:8332  (annualRewards * 10_000) / totalStaked */\n      tag_358\n      swap2\n      swap1\n      tag_161\n      jump\t// in\n    tag_358:\n        /* \"contracts/TimbFarm.sol\":8285:8332  aprBps = (annualRewards * 10_000) / totalStaked */\n      swap2\n      pop\n        /* \"contracts/TimbFarm.sol\":8171:8339  {... */\n      pop\n        /* \"contracts/TimbFarm.sol\":8099:8339  function estimatedEmissionsAPR() external view returns (uint256 aprBps) {... */\n    tag_354:\n      swap1\n      jump\t// out\n        /* \"@openzeppelin/contracts/utils/ReentrancyGuard.sol\":3749:4041  function _nonReentrantBefore() private {... */\n    tag_166:\n        /* \"@openzeppelin/contracts/utils/ReentrancyGuard.sol\":3872:3897  _nonReentrantBeforeView() */\n      tag_360\n        /* \"@openzeppelin/contracts/utils/ReentrancyGuard.sol\":3872:3895  _nonReentrantBeforeView */\n      tag_361\n        /* \"@openzeppelin/contracts/utils/ReentrancyGuard.sol\":3872:3897  _nonReentrantBeforeView() */\n      jump\t// in\n    tag_360:\n        /* \"@openzeppelin/contracts/utils/ReentrancyGuard.sol\":2407:2408  2 */\n      0x02\n        /* \"@openzeppelin/contracts/utils/ReentrancyGuard.sol\":3972:4018  _reentrancyGuardStorageSlot().getUint256Slot() */\n      tag_362\n        /* \"@openzeppelin/contracts/utils/ReentrancyGuard.sol\":3972:4001  _reentrancyGuardStorageSlot() */\n      tag_363\n        /* \"@openzeppelin/contracts/utils/ReentrancyGuard.sol\":3972:3999  _reentrancyGuardStorageSlot */\n      tag_364\n        /* \"@openzeppelin/contracts/utils/ReentrancyGuard.sol\":3972:4001  _reentrancyGuardStorageSlot() */\n      jump\t// in\n    tag_363:\n        /* \"@openzeppelin/contracts/utils/ReentrancyGuard.sol\":3972:4016  _reentrancyGuardStorageSlot().getUint256Slot */\n      tag_365\n        /* \"@openzeppelin/contracts/utils/ReentrancyGuard.sol\":3972:4018  _reentrancyGuardStorageSlot().getUint256Slot() */\n      jump\t// in\n    tag_362:\n        /* \"@openzeppelin/contracts/utils/ReentrancyGuard.sol\":3972:4024  _reentrancyGuardStorageSlot().getUint256Slot().value */\n      0x00\n      add\n        /* \"@openzeppelin/contracts/utils/ReentrancyGuard.sol\":3972:4034  _reentrancyGuardStorageSlot().getUint256Slot().value = ENTERED */\n      dup2\n      swap1\n      sstore\n      pop\n        /* \"@openzeppelin/contracts/utils/ReentrancyGuard.sol\":3749:4041  function _nonReentrantBefore() private {... */\n      jump\t// out\n        /* \"@openzeppelin/contracts/token/ERC20/utils/SafeERC20.sol\":1662:1894  function safeTransferFrom(IERC20 token, address from, address to, uint256 value) internal {... */\n    tag_179:\n        /* \"@openzeppelin/contracts/token/ERC20/utils/SafeERC20.sol\":1767:1814  _safeTransferFrom(token, from, to, value, true) */\n      tag_367\n        /* \"@openzeppelin/contracts/token/ERC20/utils/SafeERC20.sol\":1785:1790  token */\n      dup5\n        /* \"@openzeppelin/contracts/token/ERC20/utils/SafeERC20.sol\":1792:1796  from */\n      dup5\n        /* \"@openzeppelin/contracts/token/ERC20/utils/SafeERC20.sol\":1798:1800  to */\n      dup5\n        /* \"@openzeppelin/contracts/token/ERC20/utils/SafeERC20.sol\":1802:1807  value */\n      dup5\n        /* \"@openzeppelin/contracts/token/ERC20/utils/SafeERC20.sol\":1809:1813  true */\n      0x01\n        /* \"@openzeppelin/contracts/token/ERC20/utils/SafeERC20.sol\":1767:1784  _safeTransferFrom */\n      tag_368\n        /* \"@openzeppelin/contracts/token/ERC20/utils/SafeERC20.sol\":1767:1814  _safeTransferFrom(token, from, to, value, true) */\n      jump\t// in\n    tag_367:\n        /* \"@openzeppelin/contracts/token/ERC20/utils/SafeERC20.sol\":1762:1888  if (!_safeTransferFrom(token, from, to, value, true)) {... */\n      tag_369\n      jumpi\n        /* \"@openzeppelin/contracts/token/ERC20/utils/SafeERC20.sol\":1870:1875  token */\n      dup4\n        /* \"@openzeppelin/contracts/token/ERC20/utils/SafeERC20.sol\":1837:1877  SafeERC20FailedOperation(address(token)) */\n      mload(0x40)\n      0x5274afe700000000000000000000000000000000000000000000000000000000\n      dup2\n      mstore\n      0x04\n      add\n      tag_370\n      swap2\n      swap1\n      tag_94\n      jump\t// in\n    tag_370:\n      mload(0x40)\n      dup1\n      swap2\n      sub\n      swap1\n      revert\n        /* \"@openzeppelin/contracts/token/ERC20/utils/SafeERC20.sol\":1762:1888  if (!_safeTransferFrom(token, from, to, value, true)) {... */\n    tag_369:\n        /* \"@openzeppelin/contracts/token/ERC20/utils/SafeERC20.sol\":1662:1894  function safeTransferFrom(IERC20 token, address from, address to, uint256 value) internal {... */\n      pop\n      pop\n      pop\n      pop\n      jump\t// out\n        /* \"@openzeppelin/contracts/utils/ReentrancyGuard.sol\":4047:4300  function _nonReentrantAfter() private {... */\n    tag_191:\n        /* \"@openzeppelin/contracts/utils/ReentrancyGuard.sol\":2365:2366  1 */\n      0x01\n        /* \"@openzeppelin/contracts/utils/ReentrancyGuard.sol\":4227:4273  _reentrancyGuardStorageSlot().getUint256Slot() */\n      tag_372\n        /* \"@openzeppelin/contracts/utils/ReentrancyGuard.sol\":4227:4256  _reentrancyGuardStorageSlot() */\n      tag_373\n        /* \"@openzeppelin/contracts/utils/ReentrancyGuard.sol\":4227:4254  _reentrancyGuardStorageSlot */\n      tag_364\n        /* \"@openzeppelin/contracts/utils/ReentrancyGuard.sol\":4227:4256  _reentrancyGuardStorageSlot() */\n      jump\t// in\n    tag_373:\n        /* \"@openzeppelin/contracts/utils/ReentrancyGuard.sol\":4227:4271  _reentrancyGuardStorageSlot().getUint256Slot */\n      tag_365\n        /* \"@openzeppelin/contracts/utils/ReentrancyGuard.sol\":4227:4273  _reentrancyGuardStorageSlot().getUint256Slot() */\n      jump\t// in\n    tag_372:\n        /* \"@openzeppelin/contracts/utils/ReentrancyGuard.sol\":4227:4279  _reentrancyGuardStorageSlot().getUint256Slot().value */\n      0x00\n      add\n        /* \"@openzeppelin/contracts/utils/ReentrancyGuard.sol\":4227:4293  _reentrancyGuardStorageSlot().getUint256Slot().value = NOT_ENTERED */\n      dup2\n      swap1\n      sstore\n      pop\n        /* \"@openzeppelin/contracts/utils/ReentrancyGuard.sol\":4047:4300  function _nonReentrantAfter() private {... */\n      jump\t// out\n        /* \"@openzeppelin/contracts/access/Ownable.sol\":1796:1958  function _checkOwner() internal view virtual {... */\n    tag_194:\n        /* \"@openzeppelin/contracts/access/Ownable.sol\":1866:1878  _msgSender() */\n      tag_375\n        /* \"@openzeppelin/contracts/access/Ownable.sol\":1866:1876  _msgSender */\n      tag_376\n        /* \"@openzeppelin/contracts/access/Ownable.sol\":1866:1878  _msgSender() */\n      jump\t// in\n    tag_375:\n        /* \"@openzeppelin/contracts/access/Ownable.sol\":1855:1878  owner() != _msgSender() */\n      0xffffffffffffffffffffffffffffffffffffffff\n      and\n        /* \"@openzeppelin/contracts/access/Ownable.sol\":1855:1862  owner() */\n      tag_377\n        /* \"@openzeppelin/contracts/access/Ownable.sol\":1855:1860  owner */\n      tag_114\n        /* \"@openzeppelin/contracts/access/Ownable.sol\":1855:1862  owner() */\n      jump\t// in\n    tag_377:\n        /* \"@openzeppelin/contracts/access/Ownable.sol\":1855:1878  owner() != _msgSender() */\n      0xffffffffffffffffffffffffffffffffffffffff\n      and\n      eq\n        /* \"@openzeppelin/contracts/access/Ownable.sol\":1851:1952  if (owner() != _msgSender()) {... */\n      tag_378\n      jumpi\n        /* \"@openzeppelin/contracts/access/Ownable.sol\":1928:1940  _msgSender() */\n      tag_379\n        /* \"@openzeppelin/contracts/access/Ownable.sol\":1928:1938  _msgSender */\n      tag_376\n        /* \"@openzeppelin/contracts/access/Ownable.sol\":1928:1940  _msgSender() */\n      jump\t// in\n    tag_379:\n        /* \"@openzeppelin/contracts/access/Ownable.sol\":1901:1941  OwnableUnauthorizedAccount(_msgSender()) */\n      mload(0x40)\n      0x118cdaa700000000000000000000000000000000000000000000000000000000\n      dup2\n      mstore\n      0x04\n      add\n      tag_380\n      swap2\n      swap1\n      tag_94\n      jump\t// in\n    tag_380:\n      mload(0x40)\n      dup1\n      swap2\n      sub\n      swap1\n      revert\n        /* \"@openzeppelin/contracts/access/Ownable.sol\":1851:1952  if (owner() != _msgSender()) {... */\n    tag_378:\n        /* \"@openzeppelin/contracts/access/Ownable.sol\":1796:1958  function _checkOwner() internal view virtual {... */\n      jump\t// out\n        /* \"@openzeppelin/contracts/token/ERC20/utils/SafeERC20.sol\":1219:1423  function safeTransfer(IERC20 token, address to, uint256 value) internal {... */\n    tag_216:\n        /* \"@openzeppelin/contracts/token/ERC20/utils/SafeERC20.sol\":1306:1343  _safeTransfer(token, to, value, true) */\n      tag_382\n        /* \"@openzeppelin/contracts/token/ERC20/utils/SafeERC20.sol\":1320:1325  token */\n      dup4\n        /* \"@openzeppelin/contracts/token/ERC20/utils/SafeERC20.sol\":1327:1329  to */\n      dup4\n        /* \"@openzeppelin/contracts/token/ERC20/utils/SafeERC20.sol\":1331:1336  value */\n      dup4\n        /* \"@openzeppelin/contracts/token/ERC20/utils/SafeERC20.sol\":1338:1342  true */\n      0x01\n        /* \"@openzeppelin/contracts/token/ERC20/utils/SafeERC20.sol\":1306:1319  _safeTransfer */\n      tag_383\n        /* \"@openzeppelin/contracts/token/ERC20/utils/SafeERC20.sol\":1306:1343  _safeTransfer(token, to, value, true) */\n      jump\t// in\n    tag_382:\n        /* \"@openzeppelin/contracts/token/ERC20/utils/SafeERC20.sol\":1301:1417  if (!_safeTransfer(token, to, value, true)) {... */\n      tag_384\n      jumpi\n        /* \"@openzeppelin/contracts/token/ERC20/utils/SafeERC20.sol\":1399:1404  token */\n      dup3\n        /* \"@openzeppelin/contracts/token/ERC20/utils/SafeERC20.sol\":1366:1406  SafeERC20FailedOperation(address(token)) */\n      mload(0x40)\n      0x5274afe700000000000000000000000000000000000000000000000000000000\n      dup2\n      mstore\n      0x04\n      add\n      tag_385\n      swap2\n      swap1\n      tag_94\n      jump\t// in\n    tag_385:\n      mload(0x40)\n      dup1\n      swap2\n      sub\n      swap1\n      revert\n        /* \"@openzeppelin/contracts/token/ERC20/utils/SafeERC20.sol\":1301:1417  if (!_safeTransfer(token, to, value, true)) {... */\n    tag_384:\n        /* \"@openzeppelin/contracts/token/ERC20/utils/SafeERC20.sol\":1219:1423  function safeTransfer(IERC20 token, address to, uint256 value) internal {... */\n      pop\n      pop\n      pop\n      jump\t// out\n        /* \"@openzeppelin/contracts/access/Ownable.sol\":2912:3099  function _transferOwnership(address newOwner) internal virtual {... */\n    tag_247:\n        /* \"@openzeppelin/contracts/access/Ownable.sol\":2985:3001  address oldOwner */\n      0x00\n        /* \"@openzeppelin/contracts/access/Ownable.sol\":3004:3010  _owner */\n      dup1\n      0x00\n      swap1\n      sload\n      swap1\n      0x0100\n      exp\n      swap1\n      div\n      0xffffffffffffffffffffffffffffffffffffffff\n      and\n        /* \"@openzeppelin/contracts/access/Ownable.sol\":2985:3010  address oldOwner = _owner */\n      swap1\n      pop\n        /* \"@openzeppelin/contracts/access/Ownable.sol\":3029:3037  newOwner */\n      dup2\n        /* \"@openzeppelin/contracts/access/Ownable.sol\":3020:3026  _owner */\n      0x00\n      dup1\n        /* \"@openzeppelin/contracts/access/Ownable.sol\":3020:3037  _owner = newOwner */\n      0x0100\n      exp\n      dup2\n      sload\n      dup2\n      0xffffffffffffffffffffffffffffffffffffffff\n      mul\n      not\n      and\n      swap1\n      dup4\n      0xffffffffffffffffffffffffffffffffffffffff\n      and\n      mul\n      or\n      swap1\n      sstore\n      pop\n        /* \"@openzeppelin/contracts/access/Ownable.sol\":3083:3091  newOwner */\n      dup2\n        /* \"@openzeppelin/contracts/access/Ownable.sol\":3052:3092  OwnershipTransferred(oldOwner, newOwner) */\n      0xffffffffffffffffffffffffffffffffffffffff\n      and\n        /* \"@openzeppelin/contracts/access/Ownable.sol\":3073:3081  oldOwner */\n      dup2\n        /* \"@openzeppelin/contracts/access/Ownable.sol\":3052:3092  OwnershipTransferred(oldOwner, newOwner) */\n      0xffffffffffffffffffffffffffffffffffffffff\n      and\n      0x8be0079c531659141344cd1fd0a4f28419497f9722a3daafe3b4186f6b6457e0\n      mload(0x40)\n      mload(0x40)\n      dup1\n      swap2\n      sub\n      swap1\n      log3\n        /* \"@openzeppelin/contracts/access/Ownable.sol\":2975:3099  {... */\n      pop\n        /* \"@openzeppelin/contracts/access/Ownable.sol\":2912:3099  function _transferOwnership(address newOwner) internal virtual {... */\n      pop\n      jump\t// out\n        /* \"@openzeppelin/contracts/utils/ReentrancyGuard.sol\":3586:3743  function _nonReentrantBeforeView() private view {... */\n    tag_361:\n        /* \"@openzeppelin/contracts/utils/ReentrancyGuard.sol\":3648:3673  _reentrancyGuardEntered() */\n      tag_388\n        /* \"@openzeppelin/contracts/utils/ReentrancyGuard.sol\":3648:3671  _reentrancyGuardEntered */\n      tag_389\n        /* \"@openzeppelin/contracts/utils/ReentrancyGuard.sol\":3648:3673  _reentrancyGuardEntered() */\n      jump\t// in\n    tag_388:\n        /* \"@openzeppelin/contracts/utils/ReentrancyGuard.sol\":3644:3737  if (_reentrancyGuardEntered()) {... */\n      iszero\n      tag_390\n      jumpi\n        /* \"@openzeppelin/contracts/utils/ReentrancyGuard.sol\":3696:3726  ReentrancyGuardReentrantCall() */\n      mload(0x40)\n      0x3ee5aeb500000000000000000000000000000000000000000000000000000000\n      dup2\n      mstore\n      0x04\n      add\n      mload(0x40)\n      dup1\n      swap2\n      sub\n      swap1\n      revert\n        /* \"@openzeppelin/contracts/utils/ReentrancyGuard.sol\":3644:3737  if (_reentrancyGuardEntered()) {... */\n    tag_390:\n        /* \"@openzeppelin/contracts/utils/ReentrancyGuard.sol\":3586:3743  function _nonReentrantBeforeView() private view {... */\n      jump\t// out\n        /* \"@openzeppelin/contracts/utils/ReentrancyGuard.sol\":4636:4763  function _reentrancyGuardStorageSlot() internal pure virtual returns (bytes32) {... */\n    tag_364:\n        /* \"@openzeppelin/contracts/utils/ReentrancyGuard.sol\":4706:4713  bytes32 */\n      0x00\n        /* \"@openzeppelin/contracts/utils/ReentrancyGuard.sol\":1505:1571  0x9b779b17422d0df92223018b32b4d1fa46e071723d6817e2486d003becc55f00 */\n      0x9b779b17422d0df92223018b32b4d1fa46e071723d6817e2486d003becc55f00\n        /* \"@openzeppelin/contracts/utils/ReentrancyGuard.sol\":4732:4756  REENTRANCY_GUARD_STORAGE */\n      0x00\n      shl\n        /* \"@openzeppelin/contracts/utils/ReentrancyGuard.sol\":4725:4756  return REENTRANCY_GUARD_STORAGE */\n      swap1\n      pop\n        /* \"@openzeppelin/contracts/utils/ReentrancyGuard.sol\":4636:4763  function _reentrancyGuardStorageSlot() internal pure virtual returns (bytes32) {... */\n      swap1\n      jump\t// out\n        /* \"@openzeppelin/contracts/utils/StorageSlot.sol\":2679:2842  function getUint256Slot(bytes32 slot) internal pure returns (Uint256Slot storage r) {... */\n    tag_365:\n        /* \"@openzeppelin/contracts/utils/StorageSlot.sol\":2740:2761  Uint256Slot storage r */\n      0x00\n        /* \"@openzeppelin/contracts/utils/StorageSlot.sol\":2822:2826  slot */\n      dup2\n        /* \"@openzeppelin/contracts/utils/StorageSlot.sol\":2812:2826  r.slot := slot */\n      swap1\n      pop\n        /* \"@openzeppelin/contracts/utils/StorageSlot.sol\":2679:2842  function getUint256Slot(bytes32 slot) internal pure returns (Uint256Slot storage r) {... */\n      swap2\n      swap1\n      pop\n      jump\t// out\n        /* \"@openzeppelin/contracts/token/ERC20/utils/SafeERC20.sol\":10165:11558  function _safeTransferFrom(... */\n    tag_368:\n        /* \"@openzeppelin/contracts/token/ERC20/utils/SafeERC20.sol\":10323:10335  bool success */\n      0x00\n        /* \"@openzeppelin/contracts/token/ERC20/utils/SafeERC20.sol\":10347:10362  bytes4 selector */\n      dup1\n        /* \"@openzeppelin/contracts/token/ERC20/utils/SafeERC20.sol\":10365:10393  IERC20.transferFrom.selector */\n      shl(0xe0, 0x23b872dd)\n        /* \"@openzeppelin/contracts/token/ERC20/utils/SafeERC20.sol\":10347:10393  bytes4 selector = IERC20.transferFrom.selector */\n      swap1\n      pop\n        /* \"@openzeppelin/contracts/token/ERC20/utils/SafeERC20.sol\":10460:10464  0x40 */\n      0x40\n        /* \"@openzeppelin/contracts/token/ERC20/utils/SafeERC20.sol\":10454:10465  mload(0x40) */\n      mload\n        /* \"@openzeppelin/contracts/token/ERC20/utils/SafeERC20.sol\":10491:10499  selector */\n      dup2\n        /* \"@openzeppelin/contracts/token/ERC20/utils/SafeERC20.sol\":10485:10489  0x00 */\n      0x00\n        /* \"@openzeppelin/contracts/token/ERC20/utils/SafeERC20.sol\":10478:10500  mstore(0x00, selector) */\n      mstore\n        /* \"@openzeppelin/contracts/token/ERC20/utils/SafeERC20.sol\":10548:10549  0 */\n      0x00\n        /* \"@openzeppelin/contracts/token/ERC20/utils/SafeERC20.sol\":10544:10550  not(0) */\n      not\n        /* \"@openzeppelin/contracts/token/ERC20/utils/SafeERC20.sol\":10540:10542  96 */\n      0x60\n        /* \"@openzeppelin/contracts/token/ERC20/utils/SafeERC20.sol\":10536:10551  shr(96, not(0)) */\n      shr\n        /* \"@openzeppelin/contracts/token/ERC20/utils/SafeERC20.sol\":10530:10534  from */\n      dup8\n        /* \"@openzeppelin/contracts/token/ERC20/utils/SafeERC20.sol\":10526:10552  and(from, shr(96, not(0))) */\n      and\n        /* \"@openzeppelin/contracts/token/ERC20/utils/SafeERC20.sol\":10520:10524  0x04 */\n      0x04\n        /* \"@openzeppelin/contracts/token/ERC20/utils/SafeERC20.sol\":10513:10553  mstore(0x04, and(from, shr(96, not(0)))) */\n      mstore\n        /* \"@openzeppelin/contracts/token/ERC20/utils/SafeERC20.sol\":10599:10600  0 */\n      0x00\n        /* \"@openzeppelin/contracts/token/ERC20/utils/SafeERC20.sol\":10595:10601  not(0) */\n      not\n        /* \"@openzeppelin/contracts/token/ERC20/utils/SafeERC20.sol\":10591:10593  96 */\n      0x60\n        /* \"@openzeppelin/contracts/token/ERC20/utils/SafeERC20.sol\":10587:10602  shr(96, not(0)) */\n      shr\n        /* \"@openzeppelin/contracts/token/ERC20/utils/SafeERC20.sol\":10583:10585  to */\n      dup7\n        /* \"@openzeppelin/contracts/token/ERC20/utils/SafeERC20.sol\":10579:10603  and(to, shr(96, not(0))) */\n      and\n        /* \"@openzeppelin/contracts/token/ERC20/utils/SafeERC20.sol\":10573:10577  0x24 */\n      0x24\n        /* \"@openzeppelin/contracts/token/ERC20/utils/SafeERC20.sol\":10566:10604  mstore(0x24, and(to, shr(96, not(0)))) */\n      mstore\n        /* \"@openzeppelin/contracts/token/ERC20/utils/SafeERC20.sol\":10630:10635  value */\n      dup5\n        /* \"@openzeppelin/contracts/token/ERC20/utils/SafeERC20.sol\":10624:10628  0x44 */\n      0x44\n        /* \"@openzeppelin/contracts/token/ERC20/utils/SafeERC20.sol\":10617:10636  mstore(0x44, value) */\n      mstore\n        /* \"@openzeppelin/contracts/token/ERC20/utils/SafeERC20.sol\":10700:10704  0x20 */\n      0x20\n        /* \"@openzeppelin/contracts/token/ERC20/utils/SafeERC20.sol\":10694:10698  0x00 */\n      0x00\n        /* \"@openzeppelin/contracts/token/ERC20/utils/SafeERC20.sol\":10688:10692  0x64 */\n      0x64\n        /* \"@openzeppelin/contracts/token/ERC20/utils/SafeERC20.sol\":10682:10686  0x00 */\n      0x00\n        /* \"@openzeppelin/contracts/token/ERC20/utils/SafeERC20.sol\":10679:10680  0 */\n      dup1\n        /* \"@openzeppelin/contracts/token/ERC20/utils/SafeERC20.sol\":10672:10677  token */\n      dup13\n        /* \"@openzeppelin/contracts/token/ERC20/utils/SafeERC20.sol\":10665:10670  gas() */\n      gas\n        /* \"@openzeppelin/contracts/token/ERC20/utils/SafeERC20.sol\":10660:10705  call(gas(), token, 0, 0x00, 0x64, 0x00, 0x20) */\n      call\n        /* \"@openzeppelin/contracts/token/ERC20/utils/SafeERC20.sol\":10649:10705  success := call(gas(), token, 0, 0x00, 0x64, 0x00, 0x20) */\n      swap3\n      pop\n        /* \"@openzeppelin/contracts/token/ERC20/utils/SafeERC20.sol\":10917:10918  1 */\n      0x01\n        /* \"@openzeppelin/contracts/token/ERC20/utils/SafeERC20.sol\":10910:10914  0x00 */\n      0x00\n        /* \"@openzeppelin/contracts/token/ERC20/utils/SafeERC20.sol\":10904:10915  mload(0x00) */\n      mload\n        /* \"@openzeppelin/contracts/token/ERC20/utils/SafeERC20.sol\":10901:10919  eq(mload(0x00), 1) */\n      eq\n        /* \"@openzeppelin/contracts/token/ERC20/utils/SafeERC20.sol\":10892:10899  success */\n      dup4\n        /* \"@openzeppelin/contracts/token/ERC20/utils/SafeERC20.sol\":10888:10920  and(success, eq(mload(0x00), 1)) */\n      and\n        /* \"@openzeppelin/contracts/token/ERC20/utils/SafeERC20.sol\":10878:11484  if iszero(and(success, eq(mload(0x00), 1))) {... */\n      tag_394\n      jumpi\n        /* \"@openzeppelin/contracts/token/ERC20/utils/SafeERC20.sol\":11049:11055  bubble */\n      dup4\n        /* \"@openzeppelin/contracts/token/ERC20/utils/SafeERC20.sol\":11039:11046  success */\n      dup4\n        /* \"@openzeppelin/contracts/token/ERC20/utils/SafeERC20.sol\":11032:11047  iszero(success) */\n      iszero\n        /* \"@openzeppelin/contracts/token/ERC20/utils/SafeERC20.sol\":11028:11056  and(iszero(success), bubble) */\n      and\n        /* \"@openzeppelin/contracts/token/ERC20/utils/SafeERC20.sol\":11025:11190  if and(iszero(success), bubble) {... */\n      iszero\n      tag_395\n      jumpi\n        /* \"@openzeppelin/contracts/token/ERC20/utils/SafeERC20.sol\":11105:11121  returndatasize() */\n      returndatasize\n        /* \"@openzeppelin/contracts/token/ERC20/utils/SafeERC20.sol\":11099:11103  0x00 */\n      0x00\n        /* \"@openzeppelin/contracts/token/ERC20/utils/SafeERC20.sol\":11094:11097  fmp */\n      dup3\n        /* \"@openzeppelin/contracts/token/ERC20/utils/SafeERC20.sol\":11079:11122  returndatacopy(fmp, 0x00, returndatasize()) */\n      returndatacopy\n        /* \"@openzeppelin/contracts/token/ERC20/utils/SafeERC20.sol\":11155:11171  returndatasize() */\n      returndatasize\n        /* \"@openzeppelin/contracts/token/ERC20/utils/SafeERC20.sol\":11150:11153  fmp */\n      dup2\n        /* \"@openzeppelin/contracts/token/ERC20/utils/SafeERC20.sol\":11143:11172  revert(fmp, returndatasize()) */\n      revert\n        /* \"@openzeppelin/contracts/token/ERC20/utils/SafeERC20.sol\":11025:11190  if and(iszero(success), bubble) {... */\n    tag_395:\n        /* \"@openzeppelin/contracts/token/ERC20/utils/SafeERC20.sol\":11466:11467  0 */\n      0x00\n        /* \"@openzeppelin/contracts/token/ERC20/utils/SafeERC20.sol\":11458:11463  token */\n      dup9\n        /* \"@openzeppelin/contracts/token/ERC20/utils/SafeERC20.sol\":11446:11464  extcodesize(token) */\n      extcodesize\n        /* \"@openzeppelin/contracts/token/ERC20/utils/SafeERC20.sol\":11443:11468  gt(extcodesize(token), 0) */\n      gt\n        /* \"@openzeppelin/contracts/token/ERC20/utils/SafeERC20.sol\":11424:11440  returndatasize() */\n      returndatasize\n        /* \"@openzeppelin/contracts/token/ERC20/utils/SafeERC20.sol\":11417:11441  iszero(returndatasize()) */\n      iszero\n        /* \"@openzeppelin/contracts/token/ERC20/utils/SafeERC20.sol\":11413:11469  and(iszero(returndatasize()), gt(extcodesize(token), 0)) */\n      and\n        /* \"@openzeppelin/contracts/token/ERC20/utils/SafeERC20.sol\":11404:11411  success */\n      dup4\n        /* \"@openzeppelin/contracts/token/ERC20/utils/SafeERC20.sol\":11400:11470  and(success, and(iszero(returndatasize()), gt(extcodesize(token), 0))) */\n      and\n        /* \"@openzeppelin/contracts/token/ERC20/utils/SafeERC20.sol\":11389:11470  success := and(success, and(iszero(returndatasize()), gt(extcodesize(token), 0))) */\n      swap3\n      pop\n        /* \"@openzeppelin/contracts/token/ERC20/utils/SafeERC20.sol\":10878:11484  if iszero(and(success, eq(mload(0x00), 1))) {... */\n    tag_394:\n        /* \"@openzeppelin/contracts/token/ERC20/utils/SafeERC20.sol\":11510:11513  fmp */\n      dup1\n        /* \"@openzeppelin/contracts/token/ERC20/utils/SafeERC20.sol\":11504:11508  0x40 */\n      0x40\n        /* \"@openzeppelin/contracts/token/ERC20/utils/SafeERC20.sol\":11497:11514  mstore(0x40, fmp) */\n      mstore\n        /* \"@openzeppelin/contracts/token/ERC20/utils/SafeERC20.sol\":11540:11541  0 */\n      0x00\n        /* \"@openzeppelin/contracts/token/ERC20/utils/SafeERC20.sol\":11534:11538  0x60 */\n      0x60\n        /* \"@openzeppelin/contracts/token/ERC20/utils/SafeERC20.sol\":11527:11542  mstore(0x60, 0) */\n      mstore\n        /* \"@openzeppelin/contracts/token/ERC20/utils/SafeERC20.sol\":10429:11552  {... */\n      pop\n      pop\n        /* \"@openzeppelin/contracts/token/ERC20/utils/SafeERC20.sol\":10165:11558  function _safeTransferFrom(... */\n      swap6\n      swap5\n      pop\n      pop\n      pop\n      pop\n      pop\n      jump\t// out\n        /* \"@openzeppelin/contracts/utils/Context.sol\":656:752  function _msgSender() internal view virtual returns (address) {... */\n    tag_376:\n        /* \"@openzeppelin/contracts/utils/Context.sol\":709:716  address */\n      0x00\n        /* \"@openzeppelin/contracts/utils/Context.sol\":735:745  msg.sender */\n      caller\n        /* \"@openzeppelin/contracts/utils/Context.sol\":728:745  return msg.sender */\n      swap1\n      pop\n        /* \"@openzeppelin/contracts/utils/Context.sol\":656:752  function _msgSender() internal view virtual returns (address) {... */\n      swap1\n      jump\t// out\n        /* \"@openzeppelin/contracts/token/ERC20/utils/SafeERC20.sol\":8373:9617  function _safeTransfer(IERC20 token, address to, uint256 value, bool bubble) private returns (bool success) {... */\n    tag_383:\n        /* \"@openzeppelin/contracts/token/ERC20/utils/SafeERC20.sol\":8467:8479  bool success */\n      0x00\n        /* \"@openzeppelin/contracts/token/ERC20/utils/SafeERC20.sol\":8491:8506  bytes4 selector */\n      dup1\n        /* \"@openzeppelin/contracts/token/ERC20/utils/SafeERC20.sol\":8509:8533  IERC20.transfer.selector */\n      shl(0xe0, 0xa9059cbb)\n        /* \"@openzeppelin/contracts/token/ERC20/utils/SafeERC20.sol\":8491:8533  bytes4 selector = IERC20.transfer.selector */\n      swap1\n      pop\n        /* \"@openzeppelin/contracts/token/ERC20/utils/SafeERC20.sol\":8600:8604  0x40 */\n      0x40\n        /* \"@openzeppelin/contracts/token/ERC20/utils/SafeERC20.sol\":8594:8605  mload(0x40) */\n      mload\n        /* \"@openzeppelin/contracts/token/ERC20/utils/SafeERC20.sol\":8631:8639  selector */\n      dup2\n        /* \"@openzeppelin/contracts/token/ERC20/utils/SafeERC20.sol\":8625:8629  0x00 */\n      0x00\n        /* \"@openzeppelin/contracts/token/ERC20/utils/SafeERC20.sol\":8618:8640  mstore(0x00, selector) */\n      mstore\n        /* \"@openzeppelin/contracts/token/ERC20/utils/SafeERC20.sol\":8686:8687  0 */\n      0x00\n        /* \"@openzeppelin/contracts/token/ERC20/utils/SafeERC20.sol\":8682:8688  not(0) */\n      not\n        /* \"@openzeppelin/contracts/token/ERC20/utils/SafeERC20.sol\":8678:8680  96 */\n      0x60\n        /* \"@openzeppelin/contracts/token/ERC20/utils/SafeERC20.sol\":8674:8689  shr(96, not(0)) */\n      shr\n        /* \"@openzeppelin/contracts/token/ERC20/utils/SafeERC20.sol\":8670:8672  to */\n      dup7\n        /* \"@openzeppelin/contracts/token/ERC20/utils/SafeERC20.sol\":8666:8690  and(to, shr(96, not(0))) */\n      and\n        /* \"@openzeppelin/contracts/token/ERC20/utils/SafeERC20.sol\":8660:8664  0x04 */\n      0x04\n        /* \"@openzeppelin/contracts/token/ERC20/utils/SafeERC20.sol\":8653:8691  mstore(0x04, and(to, shr(96, not(0)))) */\n      mstore\n        /* \"@openzeppelin/contracts/token/ERC20/utils/SafeERC20.sol\":8717:8722  value */\n      dup5\n        /* \"@openzeppelin/contracts/token/ERC20/utils/SafeERC20.sol\":8711:8715  0x24 */\n      0x24\n        /* \"@openzeppelin/contracts/token/ERC20/utils/SafeERC20.sol\":8704:8723  mstore(0x24, value) */\n      mstore\n        /* \"@openzeppelin/contracts/token/ERC20/utils/SafeERC20.sol\":8787:8791  0x20 */\n      0x20\n        /* \"@openzeppelin/contracts/token/ERC20/utils/SafeERC20.sol\":8781:8785  0x00 */\n      0x00\n        /* \"@openzeppelin/contracts/token/ERC20/utils/SafeERC20.sol\":8775:8779  0x44 */\n      0x44\n        /* \"@openzeppelin/contracts/token/ERC20/utils/SafeERC20.sol\":8769:8773  0x00 */\n      0x00\n        /* \"@openzeppelin/contracts/token/ERC20/utils/SafeERC20.sol\":8766:8767  0 */\n      dup1\n        /* \"@openzeppelin/contracts/token/ERC20/utils/SafeERC20.sol\":8759:8764  token */\n      dup12\n        /* \"@openzeppelin/contracts/token/ERC20/utils/SafeERC20.sol\":8752:8757  gas() */\n      gas\n        /* \"@openzeppelin/contracts/token/ERC20/utils/SafeERC20.sol\":8747:8792  call(gas(), token, 0, 0x00, 0x44, 0x00, 0x20) */\n      call\n        /* \"@openzeppelin/contracts/token/ERC20/utils/SafeERC20.sol\":8736:8792  success := call(gas(), token, 0, 0x00, 0x44, 0x00, 0x20) */\n      swap3\n      pop\n        /* \"@openzeppelin/contracts/token/ERC20/utils/SafeERC20.sol\":9004:9005  1 */\n      0x01\n        /* \"@openzeppelin/contracts/token/ERC20/utils/SafeERC20.sol\":8997:9001  0x00 */\n      0x00\n        /* \"@openzeppelin/contracts/token/ERC20/utils/SafeERC20.sol\":8991:9002  mload(0x00) */\n      mload\n        /* \"@openzeppelin/contracts/token/ERC20/utils/SafeERC20.sol\":8988:9006  eq(mload(0x00), 1) */\n      eq\n        /* \"@openzeppelin/contracts/token/ERC20/utils/SafeERC20.sol\":8979:8986  success */\n      dup4\n        /* \"@openzeppelin/contracts/token/ERC20/utils/SafeERC20.sol\":8975:9007  and(success, eq(mload(0x00), 1)) */\n      and\n        /* \"@openzeppelin/contracts/token/ERC20/utils/SafeERC20.sol\":8965:9571  if iszero(and(success, eq(mload(0x00), 1))) {... */\n      tag_398\n      jumpi\n        /* \"@openzeppelin/contracts/token/ERC20/utils/SafeERC20.sol\":9136:9142  bubble */\n      dup4\n        /* \"@openzeppelin/contracts/token/ERC20/utils/SafeERC20.sol\":9126:9133  success */\n      dup4\n        /* \"@openzeppelin/contracts/token/ERC20/utils/SafeERC20.sol\":9119:9134  iszero(success) */\n      iszero\n        /* \"@openzeppelin/contracts/token/ERC20/utils/SafeERC20.sol\":9115:9143  and(iszero(success), bubble) */\n      and\n        /* \"@openzeppelin/contracts/token/ERC20/utils/SafeERC20.sol\":9112:9277  if and(iszero(success), bubble) {... */\n      iszero\n      tag_399\n      jumpi\n        /* \"@openzeppelin/contracts/token/ERC20/utils/SafeERC20.sol\":9192:9208  returndatasize() */\n      returndatasize\n        /* \"@openzeppelin/contracts/token/ERC20/utils/SafeERC20.sol\":9186:9190  0x00 */\n      0x00\n        /* \"@openzeppelin/contracts/token/ERC20/utils/SafeERC20.sol\":9181:9184  fmp */\n      dup3\n        /* \"@openzeppelin/contracts/token/ERC20/utils/SafeERC20.sol\":9166:9209  returndatacopy(fmp, 0x00, returndatasize()) */\n      returndatacopy\n        /* \"@openzeppelin/contracts/token/ERC20/utils/SafeERC20.sol\":9242:9258  returndatasize() */\n      returndatasize\n        /* \"@openzeppelin/contracts/token/ERC20/utils/SafeERC20.sol\":9237:9240  fmp */\n      dup2\n        /* \"@openzeppelin/contracts/token/ERC20/utils/SafeERC20.sol\":9230:9259  revert(fmp, returndatasize()) */\n      revert\n        /* \"@openzeppelin/contracts/token/ERC20/utils/SafeERC20.sol\":9112:9277  if and(iszero(success), bubble) {... */\n    tag_399:\n        /* \"@openzeppelin/contracts/token/ERC20/utils/SafeERC20.sol\":9553:9554  0 */\n      0x00\n        /* \"@openzeppelin/contracts/token/ERC20/utils/SafeERC20.sol\":9545:9550  token */\n      dup8\n        /* \"@openzeppelin/contracts/token/ERC20/utils/SafeERC20.sol\":9533:9551  extcodesize(token) */\n      extcodesize\n        /* \"@openzeppelin/contracts/token/ERC20/utils/SafeERC20.sol\":9530:9555  gt(extcodesize(token), 0) */\n      gt\n        /* \"@openzeppelin/contracts/token/ERC20/utils/SafeERC20.sol\":9511:9527  returndatasize() */\n      returndatasize\n        /* \"@openzeppelin/contracts/token/ERC20/utils/SafeERC20.sol\":9504:9528  iszero(returndatasize()) */\n      iszero\n        /* \"@openzeppelin/contracts/token/ERC20/utils/SafeERC20.sol\":9500:9556  and(iszero(returndatasize()), gt(extcodesize(token), 0)) */\n      and\n        /* \"@openzeppelin/contracts/token/ERC20/utils/SafeERC20.sol\":9491:9498  success */\n      dup4\n        /* \"@openzeppelin/contracts/token/ERC20/utils/SafeERC20.sol\":9487:9557  and(success, and(iszero(returndatasize()), gt(extcodesize(token), 0))) */\n      and\n        /* \"@openzeppelin/contracts/token/ERC20/utils/SafeERC20.sol\":9476:9557  success := and(success, and(iszero(returndatasize()), gt(extcodesize(token), 0))) */\n      swap3\n      pop\n        /* \"@openzeppelin/contracts/token/ERC20/utils/SafeERC20.sol\":8965:9571  if iszero(and(success, eq(mload(0x00), 1))) {... */\n    tag_398:\n        /* \"@openzeppelin/contracts/token/ERC20/utils/SafeERC20.sol\":9597:9600  fmp */\n      dup1\n        /* \"@openzeppelin/contracts/token/ERC20/utils/SafeERC20.sol\":9591:9595  0x40 */\n      0x40\n        /* \"@openzeppelin/contracts/token/ERC20/utils/SafeERC20.sol\":9584:9601  mstore(0x40, fmp) */\n      mstore\n        /* \"@openzeppelin/contracts/token/ERC20/utils/SafeERC20.sol\":8569:9611  {... */\n      pop\n      pop\n        /* \"@openzeppelin/contracts/token/ERC20/utils/SafeERC20.sol\":8373:9617  function _safeTransfer(IERC20 token, address to, uint256 value, bool bubble) private returns (bool success) {... */\n      swap5\n      swap4\n      pop\n      pop\n      pop\n      pop\n      jump\t// out\n        /* \"@openzeppelin/contracts/utils/ReentrancyGuard.sol\":4479:4630  function _reentrancyGuardEntered() internal view returns (bool) {... */\n    tag_389:\n        /* \"@openzeppelin/contracts/utils/ReentrancyGuard.sol\":4537:4541  bool */\n      0x00\n        /* \"@openzeppelin/contracts/utils/ReentrancyGuard.sol\":2407:2408  2 */\n      0x02\n        /* \"@openzeppelin/contracts/utils/ReentrancyGuard.sol\":4560:4606  _reentrancyGuardStorageSlot().getUint256Slot() */\n      tag_401\n        /* \"@openzeppelin/contracts/utils/ReentrancyGuard.sol\":4560:4589  _reentrancyGuardStorageSlot() */\n      tag_402\n        /* \"@openzeppelin/contracts/utils/ReentrancyGuard.sol\":4560:4587  _reentrancyGuardStorageSlot */\n      tag_364\n        /* \"@openzeppelin/contracts/utils/ReentrancyGuard.sol\":4560:4589  _reentrancyGuardStorageSlot() */\n      jump\t// in\n    tag_402:\n        /* \"@openzeppelin/contracts/utils/ReentrancyGuard.sol\":4560:4604  _reentrancyGuardStorageSlot().getUint256Slot */\n      tag_365\n        /* \"@openzeppelin/contracts/utils/ReentrancyGuard.sol\":4560:4606  _reentrancyGuardStorageSlot().getUint256Slot() */\n      jump\t// in\n    tag_401:\n        /* \"@openzeppelin/contracts/utils/ReentrancyGuard.sol\":4560:4612  _reentrancyGuardStorageSlot().getUint256Slot().value */\n      0x00\n      add\n      sload\n        /* \"@openzeppelin/contracts/utils/ReentrancyGuard.sol\":4560:4623  _reentrancyGuardStorageSlot().getUint256Slot().value == ENTERED */\n      eq\n        /* \"@openzeppelin/contracts/utils/ReentrancyGuard.sol\":4553:4623  return _reentrancyGuardStorageSlot().getUint256Slot().value == ENTERED */\n      swap1\n      pop\n        /* \"@openzeppelin/contracts/utils/ReentrancyGuard.sol\":4479:4630  function _reentrancyGuardEntered() internal view returns (bool) {... */\n      swap1\n      jump\t// out\n        /* \"#utility.yul\":88:205   */\n    tag_404:\n        /* \"#utility.yul\":197:198   */\n      0x00\n        /* \"#utility.yul\":194:195   */\n      dup1\n        /* \"#utility.yul\":187:199   */\n      revert\n        /* \"#utility.yul\":334:460   */\n    tag_406:\n        /* \"#utility.yul\":371:378   */\n      0x00\n        /* \"#utility.yul\":411:453   */\n      0xffffffffffffffffffffffffffffffffffffffff\n        /* \"#utility.yul\":404:409   */\n      dup3\n        /* \"#utility.yul\":400:454   */\n      and\n        /* \"#utility.yul\":389:454   */\n      swap1\n      pop\n        /* \"#utility.yul\":334:460   */\n      swap2\n      swap1\n      pop\n      jump\t// out\n        /* \"#utility.yul\":466:562   */\n    tag_407:\n        /* \"#utility.yul\":503:510   */\n      0x00\n        /* \"#utility.yul\":532:556   */\n      tag_433\n        /* \"#utility.yul\":550:555   */\n      dup3\n        /* \"#utility.yul\":532:556   */\n      tag_406\n      jump\t// in\n    tag_433:\n        /* \"#utility.yul\":521:556   */\n      swap1\n      pop\n        /* \"#utility.yul\":466:562   */\n      swap2\n      swap1\n      pop\n      jump\t// out\n        /* \"#utility.yul\":568:690   */\n    tag_408:\n        /* \"#utility.yul\":641:665   */\n      tag_435\n        /* \"#utility.yul\":659:664   */\n      dup2\n        /* \"#utility.yul\":641:665   */\n      tag_407\n      jump\t// in\n    tag_435:\n        /* \"#utility.yul\":634:639   */\n      dup2\n        /* \"#utility.yul\":631:666   */\n      eq\n        /* \"#utility.yul\":621:684   */\n      tag_436\n      jumpi\n        /* \"#utility.yul\":680:681   */\n      0x00\n        /* \"#utility.yul\":677:678   */\n      dup1\n        /* \"#utility.yul\":670:682   */\n      revert\n        /* \"#utility.yul\":621:684   */\n    tag_436:\n        /* \"#utility.yul\":568:690   */\n      pop\n      jump\t// out\n        /* \"#utility.yul\":696:835   */\n    tag_409:\n        /* \"#utility.yul\":742:747   */\n      0x00\n        /* \"#utility.yul\":780:786   */\n      dup2\n        /* \"#utility.yul\":767:787   */\n      calldataload\n        /* \"#utility.yul\":758:787   */\n      swap1\n      pop\n        /* \"#utility.yul\":796:829   */\n      tag_438\n        /* \"#utility.yul\":823:828   */\n      dup2\n        /* \"#utility.yul\":796:829   */\n      tag_408\n      jump\t// in\n    tag_438:\n        /* \"#utility.yul\":696:835   */\n      swap3\n      swap2\n      pop\n      pop\n      jump\t// out\n        /* \"#utility.yul\":841:1170   */\n    tag_46:\n        /* \"#utility.yul\":900:906   */\n      0x00\n        /* \"#utility.yul\":949:951   */\n      0x20\n        /* \"#utility.yul\":937:946   */\n      dup3\n        /* \"#utility.yul\":928:935   */\n      dup5\n        /* \"#utility.yul\":924:947   */\n      sub\n        /* \"#utility.yul\":920:952   */\n      slt\n        /* \"#utility.yul\":917:1036   */\n      iszero\n      tag_440\n      jumpi\n        /* \"#utility.yul\":955:1034   */\n      tag_441\n      tag_404\n      jump\t// in\n    tag_441:\n        /* \"#utility.yul\":917:1036   */\n    tag_440:\n        /* \"#utility.yul\":1075:1076   */\n      0x00\n        /* \"#utility.yul\":1100:1153   */\n      tag_442\n        /* \"#utility.yul\":1145:1152   */\n      dup5\n        /* \"#utility.yul\":1136:1142   */\n      dup3\n        /* \"#utility.yul\":1125:1134   */\n      dup6\n        /* \"#utility.yul\":1121:1143   */\n      add\n        /* \"#utility.yul\":1100:1153   */\n      tag_409\n      jump\t// in\n    tag_442:\n        /* \"#utility.yul\":1090:1153   */\n      swap2\n      pop\n        /* \"#utility.yul\":1046:1163   */\n      pop\n        /* \"#utility.yul\":841:1170   */\n      swap3\n      swap2\n      pop\n      pop\n      jump\t// out\n        /* \"#utility.yul\":1176:1253   */\n    tag_410:\n        /* \"#utility.yul\":1213:1220   */\n      0x00\n        /* \"#utility.yul\":1242:1247   */\n      dup2\n        /* \"#utility.yul\":1231:1247   */\n      swap1\n      pop\n        /* \"#utility.yul\":1176:1253   */\n      swap2\n      swap1\n      pop\n      jump\t// out\n        /* \"#utility.yul\":1259:1377   */\n    tag_411:\n        /* \"#utility.yul\":1346:1370   */\n      tag_445\n        /* \"#utility.yul\":1364:1369   */\n      dup2\n        /* \"#utility.yul\":1346:1370   */\n      tag_410\n      jump\t// in\n    tag_445:\n        /* \"#utility.yul\":1341:1344   */\n      dup3\n        /* \"#utility.yul\":1334:1371   */\n      mstore\n        /* \"#utility.yul\":1259:1377   */\n      pop\n      pop\n      jump\t// out\n        /* \"#utility.yul\":1383:1605   */\n    tag_49:\n        /* \"#utility.yul\":1476:1480   */\n      0x00\n        /* \"#utility.yul\":1514:1516   */\n      0x20\n        /* \"#utility.yul\":1503:1512   */\n      dup3\n        /* \"#utility.yul\":1499:1517   */\n      add\n        /* \"#utility.yul\":1491:1517   */\n      swap1\n      pop\n        /* \"#utility.yul\":1527:1598   */\n      tag_447\n        /* \"#utility.yul\":1595:1596   */\n      0x00\n        /* \"#utility.yul\":1584:1593   */\n      dup4\n        /* \"#utility.yul\":1580:1597   */\n      add\n        /* \"#utility.yul\":1571:1577   */\n      dup5\n        /* \"#utility.yul\":1527:1598   */\n      tag_411\n      jump\t// in\n    tag_447:\n        /* \"#utility.yul\":1383:1605   */\n      swap3\n      swap2\n      pop\n      pop\n      jump\t// out\n        /* \"#utility.yul\":1611:1671   */\n    tag_412:\n        /* \"#utility.yul\":1639:1642   */\n      0x00\n        /* \"#utility.yul\":1660:1665   */\n      dup2\n        /* \"#utility.yul\":1653:1665   */\n      swap1\n      pop\n        /* \"#utility.yul\":1611:1671   */\n      swap2\n      swap1\n      pop\n      jump\t// out\n        /* \"#utility.yul\":1677:1819   */\n    tag_413:\n        /* \"#utility.yul\":1727:1736   */\n      0x00\n        /* \"#utility.yul\":1760:1813   */\n      tag_450\n        /* \"#utility.yul\":1778:1812   */\n      tag_451\n        /* \"#utility.yul\":1787:1811   */\n      tag_452\n        /* \"#utility.yul\":1805:1810   */\n      dup5\n        /* \"#utility.yul\":1787:1811   */\n      tag_406\n      jump\t// in\n    tag_452:\n        /* \"#utility.yul\":1778:1812   */\n      tag_412\n      jump\t// in\n    tag_451:\n        /* \"#utility.yul\":1760:1813   */\n      tag_406\n      jump\t// in\n    tag_450:\n        /* \"#utility.yul\":1747:1813   */\n      swap1\n      pop\n        /* \"#utility.yul\":1677:1819   */\n      swap2\n      swap1\n      pop\n      jump\t// out\n        /* \"#utility.yul\":1825:1951   */\n    tag_414:\n        /* \"#utility.yul\":1875:1884   */\n      0x00\n        /* \"#utility.yul\":1908:1945   */\n      tag_454\n        /* \"#utility.yul\":1939:1944   */\n      dup3\n        /* \"#utility.yul\":1908:1945   */\n      tag_413\n      jump\t// in\n    tag_454:\n        /* \"#utility.yul\":1895:1945   */\n      swap1\n      pop\n        /* \"#utility.yul\":1825:1951   */\n      swap2\n      swap1\n      pop\n      jump\t// out\n        /* \"#utility.yul\":1957:2097   */\n    tag_415:\n        /* \"#utility.yul\":2021:2030   */\n      0x00\n        /* \"#utility.yul\":2054:2091   */\n      tag_456\n        /* \"#utility.yul\":2085:2090   */\n      dup3\n        /* \"#utility.yul\":2054:2091   */\n      tag_414\n      jump\t// in\n    tag_456:\n        /* \"#utility.yul\":2041:2091   */\n      swap1\n      pop\n        /* \"#utility.yul\":1957:2097   */\n      swap2\n      swap1\n      pop\n      jump\t// out\n        /* \"#utility.yul\":2103:2262   */\n    tag_416:\n        /* \"#utility.yul\":2204:2255   */\n      tag_458\n        /* \"#utility.yul\":2249:2254   */\n      dup2\n        /* \"#utility.yul\":2204:2255   */\n      tag_415\n      jump\t// in\n    tag_458:\n        /* \"#utility.yul\":2199:2202   */\n      dup3\n        /* \"#utility.yul\":2192:2256   */\n      mstore\n        /* \"#utility.yul\":2103:2262   */\n      pop\n      pop\n      jump\t// out\n        /* \"#utility.yul\":2268:2518   */\n    tag_53:\n        /* \"#utility.yul\":2375:2379   */\n      0x00\n        /* \"#utility.yul\":2413:2415   */\n      0x20\n        /* \"#utility.yul\":2402:2411   */\n      dup3\n        /* \"#utility.yul\":2398:2416   */\n      add\n        /* \"#utility.yul\":2390:2416   */\n      swap1\n      pop\n        /* \"#utility.yul\":2426:2511   */\n      tag_460\n        /* \"#utility.yul\":2508:2509   */\n      0x00\n        /* \"#utility.yul\":2497:2506   */\n      dup4\n        /* \"#utility.yul\":2493:2510   */\n      add\n        /* \"#utility.yul\":2484:2490   */\n      dup5\n        /* \"#utility.yul\":2426:2511   */\n      tag_416\n      jump\t// in\n    tag_460:\n        /* \"#utility.yul\":2268:2518   */\n      swap3\n      swap2\n      pop\n      pop\n      jump\t// out\n        /* \"#utility.yul\":2524:2646   */\n    tag_417:\n        /* \"#utility.yul\":2597:2621   */\n      tag_462\n        /* \"#utility.yul\":2615:2620   */\n      dup2\n        /* \"#utility.yul\":2597:2621   */\n      tag_410\n      jump\t// in\n    tag_462:\n        /* \"#utility.yul\":2590:2595   */\n      dup2\n        /* \"#utility.yul\":2587:2622   */\n      eq\n        /* \"#utility.yul\":2577:2640   */\n      tag_463\n      jumpi\n        /* \"#utility.yul\":2636:2637   */\n      0x00\n        /* \"#utility.yul\":2633:2634   */\n      dup1\n        /* \"#utility.yul\":2626:2638   */\n      revert\n        /* \"#utility.yul\":2577:2640   */\n    tag_463:\n        /* \"#utility.yul\":2524:2646   */\n      pop\n      jump\t// out\n        /* \"#utility.yul\":2652:2791   */\n    tag_418:\n        /* \"#utility.yul\":2698:2703   */\n      0x00\n        /* \"#utility.yul\":2736:2742   */\n      dup2\n        /* \"#utility.yul\":2723:2743   */\n      calldataload\n        /* \"#utility.yul\":2714:2743   */\n      swap1\n      pop\n        /* \"#utility.yul\":2752:2785   */\n      tag_465\n        /* \"#utility.yul\":2779:2784   */\n      dup2\n        /* \"#utility.yul\":2752:2785   */\n      tag_417\n      jump\t// in\n    tag_465:\n        /* \"#utility.yul\":2652:2791   */\n      swap3\n      swap2\n      pop\n      pop\n      jump\t// out\n        /* \"#utility.yul\":2797:3271   */\n    tag_56:\n        /* \"#utility.yul\":2865:2871   */\n      0x00\n        /* \"#utility.yul\":2873:2879   */\n      dup1\n        /* \"#utility.yul\":2922:2924   */\n      0x40\n        /* \"#utility.yul\":2910:2919   */\n      dup4\n        /* \"#utility.yul\":2901:2908   */\n      dup6\n        /* \"#utility.yul\":2897:2920   */\n      sub\n        /* \"#utility.yul\":2893:2925   */\n      slt\n        /* \"#utility.yul\":2890:3009   */\n      iszero\n      tag_467\n      jumpi\n        /* \"#utility.yul\":2928:3007   */\n      tag_468\n      tag_404\n      jump\t// in\n    tag_468:\n        /* \"#utility.yul\":2890:3009   */\n    tag_467:\n        /* \"#utility.yul\":3048:3049   */\n      0x00\n        /* \"#utility.yul\":3073:3126   */\n      tag_469\n        /* \"#utility.yul\":3118:3125   */\n      dup6\n        /* \"#utility.yul\":3109:3115   */\n      dup3\n        /* \"#utility.yul\":3098:3107   */\n      dup7\n        /* \"#utility.yul\":3094:3116   */\n      add\n        /* \"#utility.yul\":3073:3126   */\n      tag_418\n      jump\t// in\n    tag_469:\n        /* \"#utility.yul\":3063:3126   */\n      swap3\n      pop\n        /* \"#utility.yul\":3019:3136   */\n      pop\n        /* \"#utility.yul\":3175:3177   */\n      0x20\n        /* \"#utility.yul\":3201:3254   */\n      tag_470\n        /* \"#utility.yul\":3246:3253   */\n      dup6\n        /* \"#utility.yul\":3237:3243   */\n      dup3\n        /* \"#utility.yul\":3226:3235   */\n      dup7\n        /* \"#utility.yul\":3222:3244   */\n      add\n        /* \"#utility.yul\":3201:3254   */\n      tag_418\n      jump\t// in\n    tag_470:\n        /* \"#utility.yul\":3191:3254   */\n      swap2\n      pop\n        /* \"#utility.yul\":3146:3264   */\n      pop\n        /* \"#utility.yul\":2797:3271   */\n      swap3\n      pop\n      swap3\n      swap1\n      pop\n      jump\t// out\n        /* \"#utility.yul\":3277:3367   */\n    tag_419:\n        /* \"#utility.yul\":3311:3318   */\n      0x00\n        /* \"#utility.yul\":3354:3359   */\n      dup2\n        /* \"#utility.yul\":3347:3360   */\n      iszero\n        /* \"#utility.yul\":3340:3361   */\n      iszero\n        /* \"#utility.yul\":3329:3361   */\n      swap1\n      pop\n        /* \"#utility.yul\":3277:3367   */\n      swap2\n      swap1\n      pop\n      jump\t// out\n        /* \"#utility.yul\":3373:3489   */\n    tag_420:\n        /* \"#utility.yul\":3443:3464   */\n      tag_473\n        /* \"#utility.yul\":3458:3463   */\n      dup2\n        /* \"#utility.yul\":3443:3464   */\n      tag_419\n      jump\t// in\n    tag_473:\n        /* \"#utility.yul\":3436:3441   */\n      dup2\n        /* \"#utility.yul\":3433:3465   */\n      eq\n        /* \"#utility.yul\":3423:3483   */\n      tag_474\n      jumpi\n        /* \"#utility.yul\":3479:3480   */\n      0x00\n        /* \"#utility.yul\":3476:3477   */\n      dup1\n        /* \"#utility.yul\":3469:3481   */\n      revert\n        /* \"#utility.yul\":3423:3483   */\n    tag_474:\n        /* \"#utility.yul\":3373:3489   */\n      pop\n      jump\t// out\n        /* \"#utility.yul\":3495:3628   */\n    tag_421:\n        /* \"#utility.yul\":3538:3543   */\n      0x00\n        /* \"#utility.yul\":3576:3582   */\n      dup2\n        /* \"#utility.yul\":3563:3583   */\n      calldataload\n        /* \"#utility.yul\":3554:3583   */\n      swap1\n      pop\n        /* \"#utility.yul\":3592:3622   */\n      tag_476\n        /* \"#utility.yul\":3616:3621   */\n      dup2\n        /* \"#utility.yul\":3592:3622   */\n      tag_420\n      jump\t// in\n    tag_476:\n        /* \"#utility.yul\":3495:3628   */\n      swap3\n      swap2\n      pop\n      pop\n      jump\t// out\n        /* \"#utility.yul\":3634:4102   */\n    tag_60:\n        /* \"#utility.yul\":3699:3705   */\n      0x00\n        /* \"#utility.yul\":3707:3713   */\n      dup1\n        /* \"#utility.yul\":3756:3758   */\n      0x40\n        /* \"#utility.yul\":3744:3753   */\n      dup4\n        /* \"#utility.yul\":3735:3742   */\n      dup6\n        /* \"#utility.yul\":3731:3754   */\n      sub\n        /* \"#utility.yul\":3727:3759   */\n      slt\n        /* \"#utility.yul\":3724:3843   */\n      iszero\n      tag_478\n      jumpi\n        /* \"#utility.yul\":3762:3841   */\n      tag_479\n      tag_404\n      jump\t// in\n    tag_479:\n        /* \"#utility.yul\":3724:3843   */\n    tag_478:\n        /* \"#utility.yul\":3882:3883   */\n      0x00\n        /* \"#utility.yul\":3907:3960   */\n      tag_480\n        /* \"#utility.yul\":3952:3959   */\n      dup6\n        /* \"#utility.yul\":3943:3949   */\n      dup3\n        /* \"#utility.yul\":3932:3941   */\n      dup7\n        /* \"#utility.yul\":3928:3950   */\n      add\n        /* \"#utility.yul\":3907:3960   */\n      tag_409\n      jump\t// in\n    tag_480:\n        /* \"#utility.yul\":3897:3960   */\n      swap3\n      pop\n        /* \"#utility.yul\":3853:3970   */\n      pop\n        /* \"#utility.yul\":4009:4011   */\n      0x20\n        /* \"#utility.yul\":4035:4085   */\n      tag_481\n        /* \"#utility.yul\":4077:4084   */\n      dup6\n        /* \"#utility.yul\":4068:4074   */\n      dup3\n        /* \"#utility.yul\":4057:4066   */\n      dup7\n        /* \"#utility.yul\":4053:4075   */\n      add\n        /* \"#utility.yul\":4035:4085   */\n      tag_421\n      jump\t// in\n    tag_481:\n        /* \"#utility.yul\":4025:4085   */\n      swap2\n      pop\n        /* \"#utility.yul\":3980:4095   */\n      pop\n        /* \"#utility.yul\":3634:4102   */\n      swap3\n      pop\n      swap3\n      swap1\n      pop\n      jump\t// out\n        /* \"#utility.yul\":4108:4437   */\n    tag_64:\n        /* \"#utility.yul\":4167:4173   */\n      0x00\n        /* \"#utility.yul\":4216:4218   */\n      0x20\n        /* \"#utility.yul\":4204:4213   */\n      dup3\n        /* \"#utility.yul\":4195:4202   */\n      dup5\n        /* \"#utility.yul\":4191:4214   */\n      sub\n        /* \"#utility.yul\":4187:4219   */\n      slt\n        /* \"#utility.yul\":4184:4303   */\n      iszero\n      tag_483\n      jumpi\n        /* \"#utility.yul\":4222:4301   */\n      tag_484\n      tag_404\n      jump\t// in\n    tag_484:\n        /* \"#utility.yul\":4184:4303   */\n    tag_483:\n        /* \"#utility.yul\":4342:4343   */\n      0x00\n        /* \"#utility.yul\":4367:4420   */\n      tag_485\n        /* \"#utility.yul\":4412:4419   */\n      dup5\n        /* \"#utility.yul\":4403:4409   */\n      dup3\n        /* \"#utility.yul\":4392:4401   */\n      dup6\n        /* \"#utility.yul\":4388:4410   */\n      add\n        /* \"#utility.yul\":4367:4420   */\n      tag_418\n      jump\t// in\n    tag_485:\n        /* \"#utility.yul\":4357:4420   */\n      swap2\n      pop\n        /* \"#utility.yul\":4313:4430   */\n      pop\n        /* \"#utility.yul\":4108:4437   */\n      swap3\n      swap2\n      pop\n      pop\n      jump\t// out\n        /* \"#utility.yul\":4443:4552   */\n    tag_422:\n        /* \"#utility.yul\":4524:4545   */\n      tag_487\n        /* \"#utility.yul\":4539:4544   */\n      dup2\n        /* \"#utility.yul\":4524:4545   */\n      tag_419\n      jump\t// in\n    tag_487:\n        /* \"#utility.yul\":4519:4522   */\n      dup3\n        /* \"#utility.yul\":4512:4546   */\n      mstore\n        /* \"#utility.yul\":4443:4552   */\n      pop\n      pop\n      jump\t// out\n        /* \"#utility.yul\":4558:4768   */\n    tag_69:\n        /* \"#utility.yul\":4645:4649   */\n      0x00\n        /* \"#utility.yul\":4683:4685   */\n      0x20\n        /* \"#utility.yul\":4672:4681   */\n      dup3\n        /* \"#utility.yul\":4668:4686   */\n      add\n        /* \"#utility.yul\":4660:4686   */\n      swap1\n      pop\n        /* \"#utility.yul\":4696:4761   */\n      tag_489\n        /* \"#utility.yul\":4758:4759   */\n      0x00\n        /* \"#utility.yul\":4747:4756   */\n      dup4\n        /* \"#utility.yul\":4743:4760   */\n      add\n        /* \"#utility.yul\":4734:4740   */\n      dup5\n        /* \"#utility.yul\":4696:4761   */\n      tag_422\n      jump\t// in\n    tag_489:\n        /* \"#utility.yul\":4558:4768   */\n      swap3\n      swap2\n      pop\n      pop\n      jump\t// out\n        /* \"#utility.yul\":4774:4892   */\n    tag_423:\n        /* \"#utility.yul\":4861:4885   */\n      tag_491\n        /* \"#utility.yul\":4879:4884   */\n      dup2\n        /* \"#utility.yul\":4861:4885   */\n      tag_407\n      jump\t// in\n    tag_491:\n        /* \"#utility.yul\":4856:4859   */\n      dup3\n        /* \"#utility.yul\":4849:4886   */\n      mstore\n        /* \"#utility.yul\":4774:4892   */\n      pop\n      pop\n      jump\t// out\n        /* \"#utility.yul\":4898:5120   */\n    tag_94:\n        /* \"#utility.yul\":4991:4995   */\n      0x00\n        /* \"#utility.yul\":5029:5031   */\n      0x20\n        /* \"#utility.yul\":5018:5027   */\n      dup3\n        /* \"#utility.yul\":5014:5032   */\n      add\n        /* \"#utility.yul\":5006:5032   */\n      swap1\n      pop\n        /* \"#utility.yul\":5042:5113   */\n      tag_493\n        /* \"#utility.yul\":5110:5111   */\n      0x00\n        /* \"#utility.yul\":5099:5108   */\n      dup4\n        /* \"#utility.yul\":5095:5112   */\n      add\n        /* \"#utility.yul\":5086:5092   */\n      dup5\n        /* \"#utility.yul\":5042:5113   */\n      tag_423\n      jump\t// in\n    tag_493:\n        /* \"#utility.yul\":4898:5120   */\n      swap3\n      swap2\n      pop\n      pop\n      jump\t// out\n        /* \"#utility.yul\":5126:5600   */\n    tag_107:\n        /* \"#utility.yul\":5194:5200   */\n      0x00\n        /* \"#utility.yul\":5202:5208   */\n      dup1\n        /* \"#utility.yul\":5251:5253   */\n      0x40\n        /* \"#utility.yul\":5239:5248   */\n      dup4\n        /* \"#utility.yul\":5230:5237   */\n      dup6\n        /* \"#utility.yul\":5226:5249   */\n      sub\n        /* \"#utility.yul\":5222:5254   */\n      slt\n        /* \"#utility.yul\":5219:5338   */\n      iszero\n      tag_495\n      jumpi\n        /* \"#utility.yul\":5257:5336   */\n      tag_496\n      tag_404\n      jump\t// in\n    tag_496:\n        /* \"#utility.yul\":5219:5338   */\n    tag_495:\n        /* \"#utility.yul\":5377:5378   */\n      0x00\n        /* \"#utility.yul\":5402:5455   */\n      tag_497\n        /* \"#utility.yul\":5447:5454   */\n      dup6\n        /* \"#utility.yul\":5438:5444   */\n      dup3\n        /* \"#utility.yul\":5427:5436   */\n      dup7\n        /* \"#utility.yul\":5423:5445   */\n      add\n        /* \"#utility.yul\":5402:5455   */\n      tag_409\n      jump\t// in\n    tag_497:\n        /* \"#utility.yul\":5392:5455   */\n      swap3\n      pop\n        /* \"#utility.yul\":5348:5465   */\n      pop\n        /* \"#utility.yul\":5504:5506   */\n      0x20\n        /* \"#utility.yul\":5530:5583   */\n      tag_498\n        /* \"#utility.yul\":5575:5582   */\n      dup6\n        /* \"#utility.yul\":5566:5572   */\n      dup3\n        /* \"#utility.yul\":5555:5564   */\n      dup7\n        /* \"#utility.yul\":5551:5573   */\n      add\n        /* \"#utility.yul\":5530:5583   */\n      tag_418\n      jump\t// in\n    tag_498:\n        /* \"#utility.yul\":5520:5583   */\n      swap2\n      pop\n        /* \"#utility.yul\":5475:5593   */\n      pop\n        /* \"#utility.yul\":5126:5600   */\n      swap3\n      pop\n      swap3\n      swap1\n      pop\n      jump\t// out\n        /* \"#utility.yul\":5606:5786   */\n    tag_424:\n        /* \"#utility.yul\":5654:5731   */\n      0x4e487b7100000000000000000000000000000000000000000000000000000000\n        /* \"#utility.yul\":5651:5652   */\n      0x00\n        /* \"#utility.yul\":5644:5732   */\n      mstore\n        /* \"#utility.yul\":5751:5755   */\n      0x11\n        /* \"#utility.yul\":5748:5749   */\n      0x04\n        /* \"#utility.yul\":5741:5756   */\n      mstore\n        /* \"#utility.yul\":5775:5779   */\n      0x24\n        /* \"#utility.yul\":5772:5773   */\n      0x00\n        /* \"#utility.yul\":5765:5780   */\n      revert\n        /* \"#utility.yul\":5792:5986   */\n    tag_157:\n        /* \"#utility.yul\":5832:5836   */\n      0x00\n        /* \"#utility.yul\":5852:5872   */\n      tag_501\n        /* \"#utility.yul\":5870:5871   */\n      dup3\n        /* \"#utility.yul\":5852:5872   */\n      tag_410\n      jump\t// in\n    tag_501:\n        /* \"#utility.yul\":5847:5872   */\n      swap2\n      pop\n        /* \"#utility.yul\":5886:5906   */\n      tag_502\n        /* \"#utility.yul\":5904:5905   */\n      dup4\n        /* \"#utility.yul\":5886:5906   */\n      tag_410\n      jump\t// in\n    tag_502:\n        /* \"#utility.yul\":5881:5906   */\n      swap3\n      pop\n        /* \"#utility.yul\":5930:5931   */\n      dup3\n        /* \"#utility.yul\":5927:5928   */\n      dup3\n        /* \"#utility.yul\":5923:5932   */\n      sub\n        /* \"#utility.yul\":5915:5932   */\n      swap1\n      pop\n        /* \"#utility.yul\":5954:5955   */\n      dup2\n        /* \"#utility.yul\":5948:5952   */\n      dup2\n        /* \"#utility.yul\":5945:5956   */\n      gt\n        /* \"#utility.yul\":5942:5979   */\n      iszero\n      tag_503\n      jumpi\n        /* \"#utility.yul\":5959:5977   */\n      tag_504\n      tag_424\n      jump\t// in\n    tag_504:\n        /* \"#utility.yul\":5942:5979   */\n    tag_503:\n        /* \"#utility.yul\":5792:5986   */\n      swap3\n      swap2\n      pop\n      pop\n      jump\t// out\n        /* \"#utility.yul\":5992:6402   */\n    tag_159:\n        /* \"#utility.yul\":6032:6039   */\n      0x00\n        /* \"#utility.yul\":6055:6075   */\n      tag_506\n        /* \"#utility.yul\":6073:6074   */\n      dup3\n        /* \"#utility.yul\":6055:6075   */\n      tag_410\n      jump\t// in\n    tag_506:\n        /* \"#utility.yul\":6050:6075   */\n      swap2\n      pop\n        /* \"#utility.yul\":6089:6109   */\n      tag_507\n        /* \"#utility.yul\":6107:6108   */\n      dup4\n        /* \"#utility.yul\":6089:6109   */\n      tag_410\n      jump\t// in\n    tag_507:\n        /* \"#utility.yul\":6084:6109   */\n      swap3\n      pop\n        /* \"#utility.yul\":6144:6145   */\n      dup3\n        /* \"#utility.yul\":6141:6142   */\n      dup3\n        /* \"#utility.yul\":6137:6146   */\n      mul\n        /* \"#utility.yul\":6166:6196   */\n      tag_508\n        /* \"#utility.yul\":6184:6195   */\n      dup2\n        /* \"#utility.yul\":6166:6196   */\n      tag_410\n      jump\t// in\n    tag_508:\n        /* \"#utility.yul\":6155:6196   */\n      swap2\n      pop\n        /* \"#utility.yul\":6345:6346   */\n      dup3\n        /* \"#utility.yul\":6336:6343   */\n      dup3\n        /* \"#utility.yul\":6332:6347   */\n      div\n        /* \"#utility.yul\":6329:6330   */\n      dup5\n        /* \"#utility.yul\":6326:6348   */\n      eq\n        /* \"#utility.yul\":6306:6307   */\n      dup4\n        /* \"#utility.yul\":6299:6308   */\n      iszero\n        /* \"#utility.yul\":6279:6362   */\n      or\n        /* \"#utility.yul\":6256:6395   */\n      tag_509\n      jumpi\n        /* \"#utility.yul\":6375:6393   */\n      tag_510\n      tag_424\n      jump\t// in\n    tag_510:\n        /* \"#utility.yul\":6256:6395   */\n    tag_509:\n        /* \"#utility.yul\":6040:6402   */\n      pop\n        /* \"#utility.yul\":5992:6402   */\n      swap3\n      swap2\n      pop\n      pop\n      jump\t// out\n        /* \"#utility.yul\":6408:6588   */\n    tag_425:\n        /* \"#utility.yul\":6456:6533   */\n      0x4e487b7100000000000000000000000000000000000000000000000000000000\n        /* \"#utility.yul\":6453:6454   */\n      0x00\n        /* \"#utility.yul\":6446:6534   */\n      mstore\n        /* \"#utility.yul\":6553:6557   */\n      0x12\n        /* \"#utility.yul\":6550:6551   */\n      0x04\n        /* \"#utility.yul\":6543:6558   */\n      mstore\n        /* \"#utility.yul\":6577:6581   */\n      0x24\n        /* \"#utility.yul\":6574:6575   */\n      0x00\n        /* \"#utility.yul\":6567:6582   */\n      revert\n        /* \"#utility.yul\":6594:6779   */\n    tag_161:\n        /* \"#utility.yul\":6634:6635   */\n      0x00\n        /* \"#utility.yul\":6651:6671   */\n      tag_513\n        /* \"#utility.yul\":6669:6670   */\n      dup3\n        /* \"#utility.yul\":6651:6671   */\n      tag_410\n      jump\t// in\n    tag_513:\n        /* \"#utility.yul\":6646:6671   */\n      swap2\n      pop\n        /* \"#utility.yul\":6685:6705   */\n      tag_514\n        /* \"#utility.yul\":6703:6704   */\n      dup4\n        /* \"#utility.yul\":6685:6705   */\n      tag_410\n      jump\t// in\n    tag_514:\n        /* \"#utility.yul\":6680:6705   */\n      swap3\n      pop\n        /* \"#utility.yul\":6724:6725   */\n      dup3\n        /* \"#utility.yul\":6714:6749   */\n      tag_515\n      jumpi\n        /* \"#utility.yul\":6729:6747   */\n      tag_516\n      tag_425\n      jump\t// in\n    tag_516:\n        /* \"#utility.yul\":6714:6749   */\n    tag_515:\n        /* \"#utility.yul\":6771:6772   */\n      dup3\n        /* \"#utility.yul\":6768:6769   */\n      dup3\n        /* \"#utility.yul\":6764:6773   */\n      div\n        /* \"#utility.yul\":6759:6773   */\n      swap1\n      pop\n        /* \"#utility.yul\":6594:6779   */\n      swap3\n      swap2\n      pop\n      pop\n      jump\t// out\n        /* \"#utility.yul\":6785:6976   */\n    tag_163:\n        /* \"#utility.yul\":6825:6828   */\n      0x00\n        /* \"#utility.yul\":6844:6864   */\n      tag_518\n        /* \"#utility.yul\":6862:6863   */\n      dup3\n        /* \"#utility.yul\":6844:6864   */\n      tag_410\n      jump\t// in\n    tag_518:\n        /* \"#utility.yul\":6839:6864   */\n      swap2\n      pop\n        /* \"#utility.yul\":6878:6898   */\n      tag_519\n        /* \"#utility.yul\":6896:6897   */\n      dup4\n        /* \"#utility.yul\":6878:6898   */\n      tag_410\n      jump\t// in\n    tag_519:\n        /* \"#utility.yul\":6873:6898   */\n      swap3\n      pop\n        /* \"#utility.yul\":6921:6922   */\n      dup3\n        /* \"#utility.yul\":6918:6919   */\n      dup3\n        /* \"#utility.yul\":6914:6923   */\n      add\n        /* \"#utility.yul\":6907:6923   */\n      swap1\n      pop\n        /* \"#utility.yul\":6942:6945   */\n      dup1\n        /* \"#utility.yul\":6939:6940   */\n      dup3\n        /* \"#utility.yul\":6936:6946   */\n      gt\n        /* \"#utility.yul\":6933:6969   */\n      iszero\n      tag_520\n      jumpi\n        /* \"#utility.yul\":6949:6967   */\n      tag_521\n      tag_424\n      jump\t// in\n    tag_521:\n        /* \"#utility.yul\":6933:6969   */\n    tag_520:\n        /* \"#utility.yul\":6785:6976   */\n      swap3\n      swap2\n      pop\n      pop\n      jump\t// out\n        /* \"#utility.yul\":6982:7314   */\n    tag_189:\n        /* \"#utility.yul\":7103:7107   */\n      0x00\n        /* \"#utility.yul\":7141:7143   */\n      0x40\n        /* \"#utility.yul\":7130:7139   */\n      dup3\n        /* \"#utility.yul\":7126:7144   */\n      add\n        /* \"#utility.yul\":7118:7144   */\n      swap1\n      pop\n        /* \"#utility.yul\":7154:7225   */\n      tag_523\n        /* \"#utility.yul\":7222:7223   */\n      0x00\n        /* \"#utility.yul\":7211:7220   */\n      dup4\n        /* \"#utility.yul\":7207:7224   */\n      add\n        /* \"#utility.yul\":7198:7204   */\n      dup6\n        /* \"#utility.yul\":7154:7225   */\n      tag_411\n      jump\t// in\n    tag_523:\n        /* \"#utility.yul\":7235:7307   */\n      tag_524\n        /* \"#utility.yul\":7303:7305   */\n      0x20\n        /* \"#utility.yul\":7292:7301   */\n      dup4\n        /* \"#utility.yul\":7288:7306   */\n      add\n        /* \"#utility.yul\":7279:7285   */\n      dup5\n        /* \"#utility.yul\":7235:7307   */\n      tag_411\n      jump\t// in\n    tag_524:\n        /* \"#utility.yul\":6982:7314   */\n      swap4\n      swap3\n      pop\n      pop\n      pop\n      jump\t// out\n        /* \"#utility.yul\":7320:7463   */\n    tag_426:\n        /* \"#utility.yul\":7377:7382   */\n      0x00\n        /* \"#utility.yul\":7408:7414   */\n      dup2\n        /* \"#utility.yul\":7402:7415   */\n      mload\n        /* \"#utility.yul\":7393:7415   */\n      swap1\n      pop\n        /* \"#utility.yul\":7424:7457   */\n      tag_526\n        /* \"#utility.yul\":7451:7456   */\n      dup2\n        /* \"#utility.yul\":7424:7457   */\n      tag_417\n      jump\t// in\n    tag_526:\n        /* \"#utility.yul\":7320:7463   */\n      swap3\n      swap2\n      pop\n      pop\n      jump\t// out\n        /* \"#utility.yul\":7469:7820   */\n    tag_234:\n        /* \"#utility.yul\":7539:7545   */\n      0x00\n        /* \"#utility.yul\":7588:7590   */\n      0x20\n        /* \"#utility.yul\":7576:7585   */\n      dup3\n        /* \"#utility.yul\":7567:7574   */\n      dup5\n        /* \"#utility.yul\":7563:7586   */\n      sub\n        /* \"#utility.yul\":7559:7591   */\n      slt\n        /* \"#utility.yul\":7556:7675   */\n      iszero\n      tag_528\n      jumpi\n        /* \"#utility.yul\":7594:7673   */\n      tag_529\n      tag_404\n      jump\t// in\n    tag_529:\n        /* \"#utility.yul\":7556:7675   */\n    tag_528:\n        /* \"#utility.yul\":7714:7715   */\n      0x00\n        /* \"#utility.yul\":7739:7803   */\n      tag_530\n        /* \"#utility.yul\":7795:7802   */\n      dup5\n        /* \"#utility.yul\":7786:7792   */\n      dup3\n        /* \"#utility.yul\":7775:7784   */\n      dup6\n        /* \"#utility.yul\":7771:7793   */\n      add\n        /* \"#utility.yul\":7739:7803   */\n      tag_426\n      jump\t// in\n    tag_530:\n        /* \"#utility.yul\":7729:7803   */\n      swap2\n      pop\n        /* \"#utility.yul\":7685:7813   */\n      pop\n        /* \"#utility.yul\":7469:7820   */\n      swap3\n      swap2\n      pop\n      pop\n      jump\t// out\n\n    auxdata: 0xa2646970667358221220bc92a5fc79c3c4814bb91aba013c2cd4b77ab966d81a98d6eb6d2afa6f1761b964736f6c63430008180033\n}\n",
				"bytecode": {
					"linkReferences": {},
					"object": "60a060405234801562000010575f80fd5b506040516200323c3803806200323c833981810160405281019062000036919062000372565b335f73ffffffffffffffffffffffffffffffffffffffff168173ffffffffffffffffffffffffffffffffffffffff1603620000aa575f6040517f1e4fbdf7000000000000000000000000000000000000000000000000000000008152600401620000a19190620003c8565b60405180910390fd5b620000bb81620001e260201b60201c565b506001620000de620000d2620002a360201b60201c565b620002cc60201b60201c565b5f01819055505f73ffffffffffffffffffffffffffffffffffffffff168273ffffffffffffffffffffffffffffffffffffffff16036200014a576040517fd92e233d00000000000000000000000000000000000000000000000000000000815260040160405180910390fd5b8173ffffffffffffffffffffffffffffffffffffffff1660808173ffffffffffffffffffffffffffffffffffffffff1681525050806003819055506001600b5f3373ffffffffffffffffffffffffffffffffffffffff1673ffffffffffffffffffffffffffffffffffffffff1681526020019081526020015f205f6101000a81548160ff0219169083151502179055505050620003e3565b5f805f9054906101000a900473ffffffffffffffffffffffffffffffffffffffff169050815f806101000a81548173ffffffffffffffffffffffffffffffffffffffff021916908373ffffffffffffffffffffffffffffffffffffffff1602179055508173ffffffffffffffffffffffffffffffffffffffff168173ffffffffffffffffffffffffffffffffffffffff167f8be0079c531659141344cd1fd0a4f28419497f9722a3daafe3b4186f6b6457e060405160405180910390a35050565b5f7f9b779b17422d0df92223018b32b4d1fa46e071723d6817e2486d003becc55f005f1b905090565b5f819050919050565b5f80fd5b5f73ffffffffffffffffffffffffffffffffffffffff82169050919050565b5f6200030482620002d9565b9050919050565b6200031681620002f8565b811462000321575f80fd5b50565b5f8151905062000334816200030b565b92915050565b5f819050919050565b6200034e816200033a565b811462000359575f80fd5b50565b5f815190506200036c8162000343565b92915050565b5f80604083850312156200038b576200038a620002d5565b5b5f6200039a8582860162000324565b9250506020620003ad858286016200035c565b9150509250929050565b620003c281620002f8565b82525050565b5f602082019050620003dd5f830184620003b7565b92915050565b608051612e1d6200041f5f395f81816106d001528181610914015281816110d6015281816111fe0152818161213b01526122230152612e1d5ff3fe608060405234801561000f575f80fd5b5060043610610203575f3560e01c80638456cb5911610118578063cd3daf9d116100ab578063e9fad8ee1161007a578063e9fad8ee14610555578063ebe2b12b1461055f578063f0f442601461057d578063f2fde38b14610599578063fd42fe4d146105b557610203565b8063cd3daf9d146104df578063d15166ff146104fd578063db2e21bc1461052d578063df136d651461053757610203565b80639e447fc6116100e75780639e447fc61461046d5780639ee933b514610489578063a694fc3a146104a5578063c8f33c91146104c157610203565b80638456cb59146103f95780638980f11f146104035780638b8763471461041f5780638da5cb5b1461044f57610203565b80633f4ba83a1161019b578063602172671161016a578063602172671461036557806361d027b314610395578063715018a6146103b357806380faa57d146103bd578063817b1cd2146103db57610203565b80633f4ba83a146103015780635c975abb1461030b5780635d773b2c146103295780635fcbd2851461034757610203565b80632e17de78116101d75780632e17de781461028d5780632ff33be0146102a957806331d7a262146102c7578063372500ab146102f757610203565b80628cc262146102075780630e31648f14610237578063246132f914610255578063255a4f7314610271575b5f80fd5b610221600480360381019061021c91906129ec565b6105d3565b60405161022e9190612a2f565b60405180910390f35b61023f6106ce565b60405161024c9190612aa3565b60405180910390f35b61026f600480360381019061026a9190612ae6565b6106f2565b005b61028b60048036038101906102869190612b59565b610a32565b005b6102a760048036038101906102a29190612b97565b610b45565b005b6102b1610f04565b6040516102be9190612bd1565b60405180910390f35b6102e160048036038101906102dc91906129ec565b610f16565b6040516102ee9190612a2f565b60405180910390f35b6102ff610f2b565b005b61030961129d565b005b610313611304565b6040516103209190612bd1565b60405180910390f35b610331611317565b60405161033e9190612a2f565b60405180910390f35b61034f61131d565b60405161035c9190612aa3565b60405180910390f35b61037f600480360381019061037a91906129ec565b611342565b60405161038c9190612a2f565b60405180910390f35b61039d611357565b6040516103aa9190612bf9565b60405180910390f35b6103bb61137c565b005b6103c561138f565b6040516103d29190612a2f565b60405180910390f35b6103e36113a8565b6040516103f09190612a2f565b60405180910390f35b6104016113ae565b005b61041d60048036038101906104189190612c12565b611416565b005b610439600480360381019061043491906129ec565b61159a565b6040516104469190612a2f565b60405180910390f35b6104576115af565b6040516104649190612bf9565b60405180910390f35b61048760048036038101906104829190612b97565b6115d6565b005b6104a3600480360381019061049e91906129ec565b6116ff565b005b6104bf60048036038101906104ba9190612b97565b611838565b005b6104c9611b66565b6040516104d69190612a2f565b60405180910390f35b6104e7611b6c565b6040516104f49190612a2f565b60405180910390f35b610517600480360381019061051291906129ec565b611bd5565b6040516105249190612bd1565b60405180910390f35b610535611bf2565b005b61053f611df7565b60405161054c9190612a2f565b60405180910390f35b61055d611dfd565b005b6105676122c5565b6040516105749190612a2f565b60405180910390f35b610597600480360381019061059291906129ec565b6122cb565b005b6105b360048036038101906105ae91906129ec565b61252c565b005b6105bd6125b0565b6040516105ca9190612a2f565b60405180910390f35b5f600a5f8373ffffffffffffffffffffffffffffffffffffffff1673ffffffffffffffffffffffffffffffffffffffff1681526020019081526020015f2054670de0b6b3a764000060095f8573ffffffffffffffffffffffffffffffffffffffff1673ffffffffffffffffffffffffffffffffffffffff1681526020019081526020015f2054610661611b6c565b61066b9190612c7d565b60085f8673ffffffffffffffffffffffffffffffffffffffff1673ffffffffffffffffffffffffffffffffffffffff1681526020019081526020015f20546106b39190612cb0565b6106bd9190612d1e565b6106c79190612d4e565b9050919050565b7f000000000000000000000000000000000000000000000000000000000000000081565b6106fa6125f9565b5f610703611b6c565b60068190555061071161138f565b6005819055505f73ffffffffffffffffffffffffffffffffffffffff168173ffffffffffffffffffffffffffffffffffffffff16146107d957610753816105d3565b600a5f8373ffffffffffffffffffffffffffffffffffffffff1673ffffffffffffffffffffffffffffffffffffffff1681526020019081526020015f208190555060065460095f8373ffffffffffffffffffffffffffffffffffffffff1673ffffffffffffffffffffffffffffffffffffffff1681526020019081526020015f20819055505b600b5f3373ffffffffffffffffffffffffffffffffffffffff1673ffffffffffffffffffffffffffffffffffffffff1681526020019081526020015f205f9054906101000a900460ff1615801561086357506108336115af565b73ffffffffffffffffffffffffffffffffffffffff163373ffffffffffffffffffffffffffffffffffffffff1614155b1561089a576040517f1648fd0100000000000000000000000000000000000000000000000000000000815260040160405180910390fd5b5f83036108d3576040517f1f2a200500000000000000000000000000000000000000000000000000000000815260040160405180910390fd5b5f820361090c576040517f1f2a200500000000000000000000000000000000000000000000000000000000815260040160405180910390fd5b6109593330857f000000000000000000000000000000000000000000000000000000000000000073ffffffffffffffffffffffffffffffffffffffff1661261b909392919063ffffffff16565b6004544210156109a9575f426004546109729190612c7d565b90505f600354826109839190612cb0565b90508381866109929190612d4e565b61099c9190612d1e565b60038190555050506109bc565b81836109b59190612d1e565b6003819055505b4260058190555081426109cf9190612d4e565b6004819055503373ffffffffffffffffffffffffffffffffffffffff167f8a888ea653a580e40660778ee0c0dabd23a81e8e2c8dcfb938e40982a157d8198484604051610a1d929190612d81565b60405180910390a250610a2e612670565b5050565b610a3a61268a565b5f73ffffffffffffffffffffffffffffffffffffffff168273ffffffffffffffffffffffffffffffffffffffff1603610a9f576040517fd92e233d00000000000000000000000000000000000000000000000000000000815260040160405180910390fd5b80600b5f8473ffffffffffffffffffffffffffffffffffffffff1673ffffffffffffffffffffffffffffffffffffffff1681526020019081526020015f205f6101000a81548160ff0219169083151502179055508173ffffffffffffffffffffffffffffffffffffffff167fb33ca1dabfb28a2e1bd06b332c396b1a3d538278691341a5503bbad53f91919782604051610b399190612bd1565b60405180910390a25050565b610b4d6125f9565b600c60019054906101000a900460ff1615610b94576040517fab35696f00000000000000000000000000000000000000000000000000000000815260040160405180910390fd5b5f73ffffffffffffffffffffffffffffffffffffffff1660015f9054906101000a900473ffffffffffffffffffffffffffffffffffffffff1673ffffffffffffffffffffffffffffffffffffffff1603610c1a576040517f70362cde00000000000000000000000000000000000000000000000000000000815260040160405180910390fd5b33610c23611b6c565b600681905550610c3161138f565b6005819055505f73ffffffffffffffffffffffffffffffffffffffff168173ffffffffffffffffffffffffffffffffffffffff1614610cf957610c73816105d3565b600a5f8373ffffffffffffffffffffffffffffffffffffffff1673ffffffffffffffffffffffffffffffffffffffff1681526020019081526020015f208190555060065460095f8373ffffffffffffffffffffffffffffffffffffffff1673ffffffffffffffffffffffffffffffffffffffff1681526020019081526020015f20819055505b5f8203610d32576040517f1f2a200500000000000000000000000000000000000000000000000000000000815260040160405180910390fd5b60085f3373ffffffffffffffffffffffffffffffffffffffff1673ffffffffffffffffffffffffffffffffffffffff1681526020019081526020015f2054821115610df3578160085f3373ffffffffffffffffffffffffffffffffffffffff1673ffffffffffffffffffffffffffffffffffffffff1681526020019081526020015f20546040517f45be0a26000000000000000000000000000000000000000000000000000000008152600401610dea929190612d81565b60405180910390fd5b8160085f3373ffffffffffffffffffffffffffffffffffffffff1673ffffffffffffffffffffffffffffffffffffffff1681526020019081526020015f205f828254610e3f9190612c7d565b925050819055508160075f828254610e579190612c7d565b92505081905550610eaa338360015f9054906101000a900473ffffffffffffffffffffffffffffffffffffffff1673ffffffffffffffffffffffffffffffffffffffff166127119092919063ffffffff16565b3373ffffffffffffffffffffffffffffffffffffffff167f0f5bb82176feb1b5e747e28471aa92156a04d9f3ab9f45f28e2d704232b93f7583604051610ef09190612a2f565b60405180910390a250610f01612670565b50565b600c5f9054906101000a900460ff1681565b600a602052805f5260405f205f915090505481565b610f336125f9565b600c60019054906101000a900460ff1615610f7a576040517fab35696f00000000000000000000000000000000000000000000000000000000815260040160405180910390fd5b33610f83611b6c565b600681905550610f9161138f565b6005819055505f73ffffffffffffffffffffffffffffffffffffffff168173ffffffffffffffffffffffffffffffffffffffff161461105957610fd3816105d3565b600a5f8373ffffffffffffffffffffffffffffffffffffffff1673ffffffffffffffffffffffffffffffffffffffff1681526020019081526020015f208190555060065460095f8373ffffffffffffffffffffffffffffffffffffffff1673ffffffffffffffffffffffffffffffffffffffff1681526020019081526020015f20819055505b5f600a5f3373ffffffffffffffffffffffffffffffffffffffff1673ffffffffffffffffffffffffffffffffffffffff1681526020019081526020015f205490505f81036110d3576040517fb71ea17e00000000000000000000000000000000000000000000000000000000815260040160405180910390fd5b5f7f000000000000000000000000000000000000000000000000000000000000000073ffffffffffffffffffffffffffffffffffffffff166370a08231306040518263ffffffff1660e01b815260040161112d9190612bf9565b602060405180830381865afa158015611148573d5f803e3d5ffd5b505050506040513d601f19601f8201168201806040525081019061116c9190612dbc565b9050808211156111b55781816040517f65ac9d430000000000000000000000000000000000000000000000000000000081526004016111ac929190612d81565b60405180910390fd5b5f600a5f3373ffffffffffffffffffffffffffffffffffffffff1673ffffffffffffffffffffffffffffffffffffffff1681526020019081526020015f208190555061124233837f000000000000000000000000000000000000000000000000000000000000000073ffffffffffffffffffffffffffffffffffffffff166127119092919063ffffffff16565b3373ffffffffffffffffffffffffffffffffffffffff167ffc30cddea38e2bf4d6ea7d3f9ed3b6ad7f176419f4963bd81318067a4aee73fe836040516112889190612a2f565b60405180910390a250505061129b612670565b565b6112a561268a565b5f600c60016101000a81548160ff0219169083151502179055503373ffffffffffffffffffffffffffffffffffffffff167f5db9ee0a495bf2e6ff9c91a7834c1ba4fdd244a5e8aa4e537bd38aeae4b073aa60405160405180910390a2565b600c60019054906101000a900460ff1681565b60035481565b60015f9054906101000a900473ffffffffffffffffffffffffffffffffffffffff1681565b6008602052805f5260405f205f915090505481565b60025f9054906101000a900473ffffffffffffffffffffffffffffffffffffffff1681565b61138461268a565b61138d5f612764565b565b5f60045442106113a1576004546113a3565b425b905090565b60075481565b6113b661268a565b6001600c60016101000a81548160ff0219169083151502179055503373ffffffffffffffffffffffffffffffffffffffff167f62e78cea01bee320cd4e420270b5ea74000d11b0c9f74754ebdbfc544b05a25860405160405180910390a2565b61141e61268a565b60015f9054906101000a900473ffffffffffffffffffffffffffffffffffffffff1673ffffffffffffffffffffffffffffffffffffffff168273ffffffffffffffffffffffffffffffffffffffff1603611564575f60075460015f9054906101000a900473ffffffffffffffffffffffffffffffffffffffff1673ffffffffffffffffffffffffffffffffffffffff166370a08231306040518263ffffffff1660e01b81526004016114d09190612bf9565b602060405180830381865afa1580156114eb573d5f803e3d5ffd5b505050506040513d601f19601f8201168201806040525081019061150f9190612dbc565b6115199190612c7d565b9050808211156115625781816040517f65ac9d43000000000000000000000000000000000000000000000000000000008152600401611559929190612d81565b60405180910390fd5b505b61159661156f6115af565b828473ffffffffffffffffffffffffffffffffffffffff166127119092919063ffffffff16565b5050565b6009602052805f5260405f205f915090505481565b5f805f9054906101000a900473ffffffffffffffffffffffffffffffffffffffff16905090565b6115de61268a565b5f6115e7611b6c565b6006819055506115f561138f565b6005819055505f73ffffffffffffffffffffffffffffffffffffffff168173ffffffffffffffffffffffffffffffffffffffff16146116bd57611637816105d3565b600a5f8373ffffffffffffffffffffffffffffffffffffffff1673ffffffffffffffffffffffffffffffffffffffff1681526020019081526020015f208190555060065460095f8373ffffffffffffffffffffffffffffffffffffffff1673ffffffffffffffffffffffffffffffffffffffff1681526020019081526020015f20819055505b816003819055507f8cbfafc8e0d9c5c81401c4b9c6e7d201198adc7eb8f8f1556c195ecd4c0a0e7b826040516116f39190612a2f565b60405180910390a15050565b61170761268a565b5f73ffffffffffffffffffffffffffffffffffffffff168173ffffffffffffffffffffffffffffffffffffffff160361176c576040517fd92e233d00000000000000000000000000000000000000000000000000000000815260040160405180910390fd5b600c5f9054906101000a900460ff16156117b2576040517fae0cd54f00000000000000000000000000000000000000000000000000000000815260040160405180910390fd5b8060015f6101000a81548173ffffffffffffffffffffffffffffffffffffffff021916908373ffffffffffffffffffffffffffffffffffffffff1602179055508073ffffffffffffffffffffffffffffffffffffffff167f1c1820b4910e7e24202fa882184fde52e795a3113b621ded50b099b270159acc60405160405180910390a250565b6118406125f9565b600c60019054906101000a900460ff1615611887576040517fab35696f00000000000000000000000000000000000000000000000000000000815260040160405180910390fd5b5f73ffffffffffffffffffffffffffffffffffffffff1660015f9054906101000a900473ffffffffffffffffffffffffffffffffffffffff1673ffffffffffffffffffffffffffffffffffffffff160361190d576040517f70362cde00000000000000000000000000000000000000000000000000000000815260040160405180910390fd5b33611916611b6c565b60068190555061192461138f565b6005819055505f73ffffffffffffffffffffffffffffffffffffffff168173ffffffffffffffffffffffffffffffffffffffff16146119ec57611966816105d3565b600a5f8373ffffffffffffffffffffffffffffffffffffffff1673ffffffffffffffffffffffffffffffffffffffff1681526020019081526020015f208190555060065460095f8373ffffffffffffffffffffffffffffffffffffffff1673ffffffffffffffffffffffffffffffffffffffff1681526020019081526020015f20819055505b5f8203611a25576040517f1f2a200500000000000000000000000000000000000000000000000000000000815260040160405180910390fd5b600c5f9054906101000a900460ff16611a53576001600c5f6101000a81548160ff0219169083151502179055505b8160085f3373ffffffffffffffffffffffffffffffffffffffff1673ffffffffffffffffffffffffffffffffffffffff1681526020019081526020015f205f828254611a9f9190612d4e565b925050819055508160075f828254611ab79190612d4e565b92505081905550611b0c33308460015f9054906101000a900473ffffffffffffffffffffffffffffffffffffffff1673ffffffffffffffffffffffffffffffffffffffff1661261b909392919063ffffffff16565b3373ffffffffffffffffffffffffffffffffffffffff167f9e71bc8eea02a63969f509818f2dafb9254532904319f9dbda79b67bd34a5f3d83604051611b529190612a2f565b60405180910390a250611b63612670565b50565b60055481565b5f8060075403611b80576006549050611bd2565b600754670de0b6b3a7640000600354600554611b9a61138f565b611ba49190612c7d565b611bae9190612cb0565b611bb89190612cb0565b611bc29190612d1e565b600654611bcf9190612d4e565b90505b90565b600b602052805f5260405f205f915054906101000a900460ff1681565b611bfa6125f9565b5f60085f3373ffffffffffffffffffffffffffffffffffffffff1673ffffffffffffffffffffffffffffffffffffffff1681526020019081526020015f205490505f8103611c74576040517f1f2a200500000000000000000000000000000000000000000000000000000000815260040160405180910390fd5b5f60085f3373ffffffffffffffffffffffffffffffffffffffff1673ffffffffffffffffffffffffffffffffffffffff1681526020019081526020015f20819055505f600a5f3373ffffffffffffffffffffffffffffffffffffffff1673ffffffffffffffffffffffffffffffffffffffff1681526020019081526020015f20819055505f60095f3373ffffffffffffffffffffffffffffffffffffffff1673ffffffffffffffffffffffffffffffffffffffff1681526020019081526020015f20819055508060075f828254611d4b9190612c7d565b92505081905550611d9e338260015f9054906101000a900473ffffffffffffffffffffffffffffffffffffffff1673ffffffffffffffffffffffffffffffffffffffff166127119092919063ffffffff16565b3373ffffffffffffffffffffffffffffffffffffffff167f5fafa99d0643513820be26656b45130b01e1c03062e1266bf36f88cbd3bd969582604051611de49190612a2f565b60405180910390a250611df5612670565b565b60065481565b611e056125f9565b600c60019054906101000a900460ff1615611e4c576040517fab35696f00000000000000000000000000000000000000000000000000000000815260040160405180910390fd5b5f73ffffffffffffffffffffffffffffffffffffffff1660015f9054906101000a900473ffffffffffffffffffffffffffffffffffffffff1673ffffffffffffffffffffffffffffffffffffffff1603611ed2576040517f70362cde00000000000000000000000000000000000000000000000000000000815260040160405180910390fd5b33611edb611b6c565b600681905550611ee961138f565b6005819055505f73ffffffffffffffffffffffffffffffffffffffff168173ffffffffffffffffffffffffffffffffffffffff1614611fb157611f2b816105d3565b600a5f8373ffffffffffffffffffffffffffffffffffffffff1673ffffffffffffffffffffffffffffffffffffffff1681526020019081526020015f208190555060065460095f8373ffffffffffffffffffffffffffffffffffffffff1673ffffffffffffffffffffffffffffffffffffffff1681526020019081526020015f20819055505b5f60085f3373ffffffffffffffffffffffffffffffffffffffff1673ffffffffffffffffffffffffffffffffffffffff1681526020019081526020015f205490505f600a5f3373ffffffffffffffffffffffffffffffffffffffff1673ffffffffffffffffffffffffffffffffffffffff1681526020019081526020015f205490505f821115612130575f60085f3373ffffffffffffffffffffffffffffffffffffffff1673ffffffffffffffffffffffffffffffffffffffff1681526020019081526020015f20819055508160075f82825461208e9190612c7d565b925050819055506120e1338360015f9054906101000a900473ffffffffffffffffffffffffffffffffffffffff1673ffffffffffffffffffffffffffffffffffffffff166127119092919063ffffffff16565b3373ffffffffffffffffffffffffffffffffffffffff167f0f5bb82176feb1b5e747e28471aa92156a04d9f3ab9f45f28e2d704232b93f75836040516121279190612a2f565b60405180910390a25b5f8111156122b8575f7f000000000000000000000000000000000000000000000000000000000000000073ffffffffffffffffffffffffffffffffffffffff166370a08231306040518263ffffffff1660e01b81526004016121929190612bf9565b602060405180830381865afa1580156121ad573d5f803e3d5ffd5b505050506040513d601f19601f820116820180604052508101906121d19190612dbc565b90508082116122b6575f600a5f3373ffffffffffffffffffffffffffffffffffffffff1673ffffffffffffffffffffffffffffffffffffffff1681526020019081526020015f208190555061226733837f000000000000000000000000000000000000000000000000000000000000000073ffffffffffffffffffffffffffffffffffffffff166127119092919063ffffffff16565b3373ffffffffffffffffffffffffffffffffffffffff167ffc30cddea38e2bf4d6ea7d3f9ed3b6ad7f176419f4963bd81318067a4aee73fe836040516122ad9190612a2f565b60405180910390a25b505b5050506122c3612670565b565b60045481565b6122d361268a565b5f73ffffffffffffffffffffffffffffffffffffffff168173ffffffffffffffffffffffffffffffffffffffff1603612338576040517fd92e233d00000000000000000000000000000000000000000000000000000000815260040160405180910390fd5b5f73ffffffffffffffffffffffffffffffffffffffff1660025f9054906101000a900473ffffffffffffffffffffffffffffffffffffffff1673ffffffffffffffffffffffffffffffffffffffff1614612402575f600b5f60025f9054906101000a900473ffffffffffffffffffffffffffffffffffffffff1673ffffffffffffffffffffffffffffffffffffffff1673ffffffffffffffffffffffffffffffffffffffff1681526020019081526020015f205f6101000a81548160ff0219169083151502179055505b8060025f6101000a81548173ffffffffffffffffffffffffffffffffffffffff021916908373ffffffffffffffffffffffffffffffffffffffff1602179055506001600b5f8373ffffffffffffffffffffffffffffffffffffffff1673ffffffffffffffffffffffffffffffffffffffff1681526020019081526020015f205f6101000a81548160ff0219169083151502179055508073ffffffffffffffffffffffffffffffffffffffff167f3c864541ef71378c6229510ed90f376565ee42d9c5e0904a984a9e863e6db44f60405160405180910390a28073ffffffffffffffffffffffffffffffffffffffff167fb33ca1dabfb28a2e1bd06b332c396b1a3d538278691341a5503bbad53f91919760016040516125219190612bd1565b60405180910390a250565b61253461268a565b5f73ffffffffffffffffffffffffffffffffffffffff168173ffffffffffffffffffffffffffffffffffffffff16036125a4575f6040517f1e4fbdf700000000000000000000000000000000000000000000000000000000815260040161259b9190612bf9565b60405180910390fd5b6125ad81612764565b50565b5f80600754036125c2575f90506125f6565b5f6301e133806003546125d59190612cb0565b9050600754612710826125e89190612cb0565b6125f29190612d1e565b9150505b90565b612601612825565b600261261361260e612866565b61288f565b5f0181905550565b612629848484846001612898565b61266a57836040517f5274afe70000000000000000000000000000000000000000000000000000000081526004016126619190612bf9565b60405180910390fd5b50505050565b600161268261267d612866565b61288f565b5f0181905550565b612692612909565b73ffffffffffffffffffffffffffffffffffffffff166126b06115af565b73ffffffffffffffffffffffffffffffffffffffff161461270f576126d3612909565b6040517f118cdaa70000000000000000000000000000000000000000000000000000000081526004016127069190612bf9565b60405180910390fd5b565b61271e8383836001612910565b61275f57826040517f5274afe70000000000000000000000000000000000000000000000000000000081526004016127569190612bf9565b60405180910390fd5b505050565b5f805f9054906101000a900473ffffffffffffffffffffffffffffffffffffffff169050815f806101000a81548173ffffffffffffffffffffffffffffffffffffffff021916908373ffffffffffffffffffffffffffffffffffffffff1602179055508173ffffffffffffffffffffffffffffffffffffffff168173ffffffffffffffffffffffffffffffffffffffff167f8be0079c531659141344cd1fd0a4f28419497f9722a3daafe3b4186f6b6457e060405160405180910390a35050565b61282d612972565b15612864576040517f3ee5aeb500000000000000000000000000000000000000000000000000000000815260040160405180910390fd5b565b5f7f9b779b17422d0df92223018b32b4d1fa46e071723d6817e2486d003becc55f005f1b905090565b5f819050919050565b5f806323b872dd60e01b9050604051815f525f1960601c87166004525f1960601c86166024528460445260205f60645f808c5af1925060015f511483166128f65783831516156128ea573d5f823e3d81fd5b5f883b113d1516831692505b806040525f606052505095945050505050565b5f33905090565b5f8063a9059cbb60e01b9050604051815f525f1960601c86166004528460245260205f60445f808b5af1925060015f51148316612964578383151615612958573d5f823e3d81fd5b5f873b113d1516831692505b806040525050949350505050565b5f6002612985612980612866565b61288f565b5f015414905090565b5f80fd5b5f73ffffffffffffffffffffffffffffffffffffffff82169050919050565b5f6129bb82612992565b9050919050565b6129cb816129b1565b81146129d5575f80fd5b50565b5f813590506129e6816129c2565b92915050565b5f60208284031215612a0157612a0061298e565b5b5f612a0e848285016129d8565b91505092915050565b5f819050919050565b612a2981612a17565b82525050565b5f602082019050612a425f830184612a20565b92915050565b5f819050919050565b5f612a6b612a66612a6184612992565b612a48565b612992565b9050919050565b5f612a7c82612a51565b9050919050565b5f612a8d82612a72565b9050919050565b612a9d81612a83565b82525050565b5f602082019050612ab65f830184612a94565b92915050565b612ac581612a17565b8114612acf575f80fd5b50565b5f81359050612ae081612abc565b92915050565b5f8060408385031215612afc57612afb61298e565b5b5f612b0985828601612ad2565b9250506020612b1a85828601612ad2565b9150509250929050565b5f8115159050919050565b612b3881612b24565b8114612b42575f80fd5b50565b5f81359050612b5381612b2f565b92915050565b5f8060408385031215612b6f57612b6e61298e565b5b5f612b7c858286016129d8565b9250506020612b8d85828601612b45565b9150509250929050565b5f60208284031215612bac57612bab61298e565b5b5f612bb984828501612ad2565b91505092915050565b612bcb81612b24565b82525050565b5f602082019050612be45f830184612bc2565b92915050565b612bf3816129b1565b82525050565b5f602082019050612c0c5f830184612bea565b92915050565b5f8060408385031215612c2857612c2761298e565b5b5f612c35858286016129d8565b9250506020612c4685828601612ad2565b9150509250929050565b7f4e487b71000000000000000000000000000000000000000000000000000000005f52601160045260245ffd5b5f612c8782612a17565b9150612c9283612a17565b9250828203905081811115612caa57612ca9612c50565b5b92915050565b5f612cba82612a17565b9150612cc583612a17565b9250828202612cd381612a17565b91508282048414831517612cea57612ce9612c50565b5b5092915050565b7f4e487b71000000000000000000000000000000000000000000000000000000005f52601260045260245ffd5b5f612d2882612a17565b9150612d3383612a17565b925082612d4357612d42612cf1565b5b828204905092915050565b5f612d5882612a17565b9150612d6383612a17565b9250828201905080821115612d7b57612d7a612c50565b5b92915050565b5f604082019050612d945f830185612a20565b612da16020830184612a20565b9392505050565b5f81519050612db681612abc565b92915050565b5f60208284031215612dd157612dd061298e565b5b5f612dde84828501612da8565b9150509291505056fea2646970667358221220bc92a5fc79c3c4814bb91aba013c2cd4b77ab966d81a98d6eb6d2afa6f1761b964736f6c63430008180033",
					"opcodes": "PUSH1 0xA0 PUSH1 0x40 MSTORE CALLVALUE DUP1 ISZERO PUSH3 0x10 JUMPI PUSH0 DUP1 REVERT JUMPDEST POP PUSH1 0x40 MLOAD PUSH3 0x323C CODESIZE SUB DUP1 PUSH3 0x323C DUP4 CODECOPY DUP2 DUP2 ADD PUSH1 0x40 MSTORE DUP2 ADD SWAP1 PUSH3 0x36 SWAP2 SWAP1 PUSH3 0x372 JUMP JUMPDEST CALLER PUSH0 PUSH20 0xFFFFFFFFFFFFFFFFFFFFFFFFFFFFFFFFFFFFFFFF AND DUP2 PUSH20 0xFFFFFFFFFFFFFFFFFFFFFFFFFFFFFFFFFFFFFFFF AND SUB PUSH3 0xAA JUMPI PUSH0 PUSH1 0x40 MLOAD PUSH32 0x1E4FBDF700000000000000000000000000000000000000000000000000000000 DUP2 MSTORE PUSH1 0x4 ADD PUSH3 0xA1 SWAP2 SWAP1 PUSH3 0x3C8 JUMP JUMPDEST PUSH1 0x40 MLOAD DUP1 SWAP2 SUB SWAP1 REVERT JUMPDEST PUSH3 0xBB DUP2 PUSH3 0x1E2 PUSH1 0x20 SHL PUSH1 0x20 SHR JUMP JUMPDEST POP PUSH1 0x1 PUSH3 0xDE PUSH3 0xD2 PUSH3 0x2A3 PUSH1 0x20 SHL PUSH1 0x20 SHR JUMP JUMPDEST PUSH3 0x2CC PUSH1 0x20 SHL PUSH1 0x20 SHR JUMP JUMPDEST PUSH0 ADD DUP2 SWAP1 SSTORE POP PUSH0 PUSH20 0xFFFFFFFFFFFFFFFFFFFFFFFFFFFFFFFFFFFFFFFF AND DUP3 PUSH20 0xFFFFFFFFFFFFFFFFFFFFFFFFFFFFFFFFFFFFFFFF AND SUB PUSH3 0x14A JUMPI PUSH1 0x40 MLOAD PUSH32 0xD92E233D00000000000000000000000000000000000000000000000000000000 DUP2 MSTORE PUSH1 0x4 ADD PUSH1 0x40 MLOAD DUP1 SWAP2 SUB SWAP1 REVERT JUMPDEST DUP2 PUSH20 0xFFFFFFFFFFFFFFFFFFFFFFFFFFFFFFFFFFFFFFFF AND PUSH1 0x80 DUP2 PUSH20 0xFFFFFFFFFFFFFFFFFFFFFFFFFFFFFFFFFFFFFFFF AND DUP2 MSTORE POP POP DUP1 PUSH1 0x3 DUP2 SWAP1 SSTORE POP PUSH1 0x1 PUSH1 0xB PUSH0 CALLER PUSH20 0xFFFFFFFFFFFFFFFFFFFFFFFFFFFFFFFFFFFFFFFF AND PUSH20 0xFFFFFFFFFFFFFFFFFFFFFFFFFFFFFFFFFFFFFFFF AND DUP2 MSTORE PUSH1 0x20 ADD SWAP1 DUP2 MSTORE PUSH1 0x20 ADD PUSH0 KECCAK256 PUSH0 PUSH2 0x100 EXP DUP2 SLOAD DUP2 PUSH1 0xFF MUL NOT AND SWAP1 DUP4 ISZERO ISZERO MUL OR SWAP1 SSTORE POP POP POP PUSH3 0x3E3 JUMP JUMPDEST PUSH0 DUP1 PUSH0 SWAP1 SLOAD SWAP1 PUSH2 0x100 EXP SWAP1 DIV PUSH20 0xFFFFFFFFFFFFFFFFFFFFFFFFFFFFFFFFFFFFFFFF AND SWAP1 POP DUP2 PUSH0 DUP1 PUSH2 0x100 EXP DUP2 SLOAD DUP2 PUSH20 0xFFFFFFFFFFFFFFFFFFFFFFFFFFFFFFFFFFFFFFFF MUL NOT AND SWAP1 DUP4 PUSH20 0xFFFFFFFFFFFFFFFFFFFFFFFFFFFFFFFFFFFFFFFF AND MUL OR SWAP1 SSTORE POP DUP2 PUSH20 0xFFFFFFFFFFFFFFFFFFFFFFFFFFFFFFFFFFFFFFFF AND DUP2 PUSH20 0xFFFFFFFFFFFFFFFFFFFFFFFFFFFFFFFFFFFFFFFF AND PUSH32 0x8BE0079C531659141344CD1FD0A4F28419497F9722A3DAAFE3B4186F6B6457E0 PUSH1 0x40 MLOAD PUSH1 0x40 MLOAD DUP1 SWAP2 SUB SWAP1 LOG3 POP POP JUMP JUMPDEST PUSH0 PUSH32 0x9B779B17422D0DF92223018B32B4D1FA46E071723D6817E2486D003BECC55F00 PUSH0 SHL SWAP1 POP SWAP1 JUMP JUMPDEST PUSH0 DUP2 SWAP1 POP SWAP2 SWAP1 POP JUMP JUMPDEST PUSH0 DUP1 REVERT JUMPDEST PUSH0 PUSH20 0xFFFFFFFFFFFFFFFFFFFFFFFFFFFFFFFFFFFFFFFF DUP3 AND SWAP1 POP SWAP2 SWAP1 POP JUMP JUMPDEST PUSH0 PUSH3 0x304 DUP3 PUSH3 0x2D9 JUMP JUMPDEST SWAP1 POP SWAP2 SWAP1 POP JUMP JUMPDEST PUSH3 0x316 DUP2 PUSH3 0x2F8 JUMP JUMPDEST DUP2 EQ PUSH3 0x321 JUMPI PUSH0 DUP1 REVERT JUMPDEST POP JUMP JUMPDEST PUSH0 DUP2 MLOAD SWAP1 POP PUSH3 0x334 DUP2 PUSH3 0x30B JUMP JUMPDEST SWAP3 SWAP2 POP POP JUMP JUMPDEST PUSH0 DUP2 SWAP1 POP SWAP2 SWAP1 POP JUMP JUMPDEST PUSH3 0x34E DUP2 PUSH3 0x33A JUMP JUMPDEST DUP2 EQ PUSH3 0x359 JUMPI PUSH0 DUP1 REVERT JUMPDEST POP JUMP JUMPDEST PUSH0 DUP2 MLOAD SWAP1 POP PUSH3 0x36C DUP2 PUSH3 0x343 JUMP JUMPDEST SWAP3 SWAP2 POP POP JUMP JUMPDEST PUSH0 DUP1 PUSH1 0x40 DUP4 DUP6 SUB SLT ISZERO PUSH3 0x38B JUMPI PUSH3 0x38A PUSH3 0x2D5 JUMP JUMPDEST JUMPDEST PUSH0 PUSH3 0x39A DUP6 DUP3 DUP7 ADD PUSH3 0x324 JUMP JUMPDEST SWAP3 POP POP PUSH1 0x20 PUSH3 0x3AD DUP6 DUP3 DUP7 ADD PUSH3 0x35C JUMP JUMPDEST SWAP2 POP POP SWAP3 POP SWAP3 SWAP1 POP JUMP JUMPDEST PUSH3 0x3C2 DUP2 PUSH3 0x2F8 JUMP JUMPDEST DUP3 MSTORE POP POP JUMP JUMPDEST PUSH0 PUSH1 0x20 DUP3 ADD SWAP1 POP PUSH3 0x3DD PUSH0 DUP4 ADD DUP5 PUSH3 0x3B7 JUMP JUMPDEST SWAP3 SWAP2 POP POP JUMP JUMPDEST PUSH1 0x80 MLOAD PUSH2 0x2E1D PUSH3 0x41F PUSH0 CODECOPY PUSH0 DUP2 DUP2 PUSH2 0x6D0 ADD MSTORE DUP2 DUP2 PUSH2 0x914 ADD MSTORE DUP2 DUP2 PUSH2 0x10D6 ADD MSTORE DUP2 DUP2 PUSH2 0x11FE ADD MSTORE DUP2 DUP2 PUSH2 0x213B ADD MSTORE PUSH2 0x2223 ADD MSTORE PUSH2 0x2E1D PUSH0 RETURN INVALID PUSH1 0x80 PUSH1 0x40 MSTORE CALLVALUE DUP1 ISZERO PUSH2 0xF JUMPI PUSH0 DUP1 REVERT JUMPDEST POP PUSH1 0x4 CALLDATASIZE LT PUSH2 0x203 JUMPI PUSH0 CALLDATALOAD PUSH1 0xE0 SHR DUP1 PUSH4 0x8456CB59 GT PUSH2 0x118 JUMPI DUP1 PUSH4 0xCD3DAF9D GT PUSH2 0xAB JUMPI DUP1 PUSH4 0xE9FAD8EE GT PUSH2 0x7A JUMPI DUP1 PUSH4 0xE9FAD8EE EQ PUSH2 0x555 JUMPI DUP1 PUSH4 0xEBE2B12B EQ PUSH2 0x55F JUMPI DUP1 PUSH4 0xF0F44260 EQ PUSH2 0x57D JUMPI DUP1 PUSH4 0xF2FDE38B EQ PUSH2 0x599 JUMPI DUP1 PUSH4 0xFD42FE4D EQ PUSH2 0x5B5 JUMPI PUSH2 0x203 JUMP JUMPDEST DUP1 PUSH4 0xCD3DAF9D EQ PUSH2 0x4DF JUMPI DUP1 PUSH4 0xD15166FF EQ PUSH2 0x4FD JUMPI DUP1 PUSH4 0xDB2E21BC EQ PUSH2 0x52D JUMPI DUP1 PUSH4 0xDF136D65 EQ PUSH2 0x537 JUMPI PUSH2 0x203 JUMP JUMPDEST DUP1 PUSH4 0x9E447FC6 GT PUSH2 0xE7 JUMPI DUP1 PUSH4 0x9E447FC6 EQ PUSH2 0x46D JUMPI DUP1 PUSH4 0x9EE933B5 EQ PUSH2 0x489 JUMPI DUP1 PUSH4 0xA694FC3A EQ PUSH2 0x4A5 JUMPI DUP1 PUSH4 0xC8F33C91 EQ PUSH2 0x4C1 JUMPI PUSH2 0x203 JUMP JUMPDEST DUP1 PUSH4 0x8456CB59 EQ PUSH2 0x3F9 JUMPI DUP1 PUSH4 0x8980F11F EQ PUSH2 0x403 JUMPI DUP1 PUSH4 0x8B876347 EQ PUSH2 0x41F JUMPI DUP1 PUSH4 0x8DA5CB5B EQ PUSH2 0x44F JUMPI PUSH2 0x203 JUMP JUMPDEST DUP1 PUSH4 0x3F4BA83A GT PUSH2 0x19B JUMPI DUP1 PUSH4 0x60217267 GT PUSH2 0x16A JUMPI DUP1 PUSH4 0x60217267 EQ PUSH2 0x365 JUMPI DUP1 PUSH4 0x61D027B3 EQ PUSH2 0x395 JUMPI DUP1 PUSH4 0x715018A6 EQ PUSH2 0x3B3 JUMPI DUP1 PUSH4 0x80FAA57D EQ PUSH2 0x3BD JUMPI DUP1 PUSH4 0x817B1CD2 EQ PUSH2 0x3DB JUMPI PUSH2 0x203 JUMP JUMPDEST DUP1 PUSH4 0x3F4BA83A EQ PUSH2 0x301 JUMPI DUP1 PUSH4 0x5C975ABB EQ PUSH2 0x30B JUMPI DUP1 PUSH4 0x5D773B2C EQ PUSH2 0x329 JUMPI DUP1 PUSH4 0x5FCBD285 EQ PUSH2 0x347 JUMPI PUSH2 0x203 JUMP JUMPDEST DUP1 PUSH4 0x2E17DE78 GT PUSH2 0x1D7 JUMPI DUP1 PUSH4 0x2E17DE78 EQ PUSH2 0x28D JUMPI DUP1 PUSH4 0x2FF33BE0 EQ PUSH2 0x2A9 JUMPI DUP1 PUSH4 0x31D7A262 EQ PUSH2 0x2C7 JUMPI DUP1 PUSH4 0x372500AB EQ PUSH2 0x2F7 JUMPI PUSH2 0x203 JUMP JUMPDEST DUP1 PUSH3 0x8CC262 EQ PUSH2 0x207 JUMPI DUP1 PUSH4 0xE31648F EQ PUSH2 0x237 JUMPI DUP1 PUSH4 0x246132F9 EQ PUSH2 0x255 JUMPI DUP1 PUSH4 0x255A4F73 EQ PUSH2 0x271 JUMPI JUMPDEST PUSH0 DUP1 REVERT JUMPDEST PUSH2 0x221 PUSH1 0x4 DUP1 CALLDATASIZE SUB DUP2 ADD SWAP1 PUSH2 0x21C SWAP2 SWAP1 PUSH2 0x29EC JUMP JUMPDEST PUSH2 0x5D3 JUMP JUMPDEST PUSH1 0x40 MLOAD PUSH2 0x22E SWAP2 SWAP1 PUSH2 0x2A2F JUMP JUMPDEST PUSH1 0x40 MLOAD DUP1 SWAP2 SUB SWAP1 RETURN JUMPDEST PUSH2 0x23F PUSH2 0x6CE JUMP JUMPDEST PUSH1 0x40 MLOAD PUSH2 0x24C SWAP2 SWAP1 PUSH2 0x2AA3 JUMP JUMPDEST PUSH1 0x40 MLOAD DUP1 SWAP2 SUB SWAP1 RETURN JUMPDEST PUSH2 0x26F PUSH1 0x4 DUP1 CALLDATASIZE SUB DUP2 ADD SWAP1 PUSH2 0x26A SWAP2 SWAP1 PUSH2 0x2AE6 JUMP JUMPDEST PUSH2 0x6F2 JUMP JUMPDEST STOP JUMPDEST PUSH2 0x28B PUSH1 0x4 DUP1 CALLDATASIZE SUB DUP2 ADD SWAP1 PUSH2 0x286 SWAP2 SWAP1 PUSH2 0x2B59 JUMP JUMPDEST PUSH2 0xA32 JUMP JUMPDEST STOP JUMPDEST PUSH2 0x2A7 PUSH1 0x4 DUP1 CALLDATASIZE SUB DUP2 ADD SWAP1 PUSH2 0x2A2 SWAP2 SWAP1 PUSH2 0x2B97 JUMP JUMPDEST PUSH2 0xB45 JUMP JUMPDEST STOP JUMPDEST PUSH2 0x2B1 PUSH2 0xF04 JUMP JUMPDEST PUSH1 0x40 MLOAD PUSH2 0x2BE SWAP2 SWAP1 PUSH2 0x2BD1 JUMP JUMPDEST PUSH1 0x40 MLOAD DUP1 SWAP2 SUB SWAP1 RETURN JUMPDEST PUSH2 0x2E1 PUSH1 0x4 DUP1 CALLDATASIZE SUB DUP2 ADD SWAP1 PUSH2 0x2DC SWAP2 SWAP1 PUSH2 0x29EC JUMP JUMPDEST PUSH2 0xF16 JUMP JUMPDEST PUSH1 0x40 MLOAD PUSH2 0x2EE SWAP2 SWAP1 PUSH2 0x2A2F JUMP JUMPDEST PUSH1 0x40 MLOAD DUP1 SWAP2 SUB SWAP1 RETURN JUMPDEST PUSH2 0x2FF PUSH2 0xF2B JUMP JUMPDEST STOP JUMPDEST PUSH2 0x309 PUSH2 0x129D JUMP JUMPDEST STOP JUMPDEST PUSH2 0x313 PUSH2 0x1304 JUMP JUMPDEST PUSH1 0x40 MLOAD PUSH2 0x320 SWAP2 SWAP1 PUSH2 0x2BD1 JUMP JUMPDEST PUSH1 0x40 MLOAD DUP1 SWAP2 SUB SWAP1 RETURN JUMPDEST PUSH2 0x331 PUSH2 0x1317 JUMP JUMPDEST PUSH1 0x40 MLOAD PUSH2 0x33E SWAP2 SWAP1 PUSH2 0x2A2F JUMP JUMPDEST PUSH1 0x40 MLOAD DUP1 SWAP2 SUB SWAP1 RETURN JUMPDEST PUSH2 0x34F PUSH2 0x131D JUMP JUMPDEST PUSH1 0x40 MLOAD PUSH2 0x35C SWAP2 SWAP1 PUSH2 0x2AA3 JUMP JUMPDEST PUSH1 0x40 MLOAD DUP1 SWAP2 SUB SWAP1 RETURN JUMPDEST PUSH2 0x37F PUSH1 0x4 DUP1 CALLDATASIZE SUB DUP2 ADD SWAP1 PUSH2 0x37A SWAP2 SWAP1 PUSH2 0x29EC JUMP JUMPDEST PUSH2 0x1342 JUMP JUMPDEST PUSH1 0x40 MLOAD PUSH2 0x38C SWAP2 SWAP1 PUSH2 0x2A2F JUMP JUMPDEST PUSH1 0x40 MLOAD DUP1 SWAP2 SUB SWAP1 RETURN JUMPDEST PUSH2 0x39D PUSH2 0x1357 JUMP JUMPDEST PUSH1 0x40 MLOAD PUSH2 0x3AA SWAP2 SWAP1 PUSH2 0x2BF9 JUMP JUMPDEST PUSH1 0x40 MLOAD DUP1 SWAP2 SUB SWAP1 RETURN JUMPDEST PUSH2 0x3BB PUSH2 0x137C JUMP JUMPDEST STOP JUMPDEST PUSH2 0x3C5 PUSH2 0x138F JUMP JUMPDEST PUSH1 0x40 MLOAD PUSH2 0x3D2 SWAP2 SWAP1 PUSH2 0x2A2F JUMP JUMPDEST PUSH1 0x40 MLOAD DUP1 SWAP2 SUB SWAP1 RETURN JUMPDEST PUSH2 0x3E3 PUSH2 0x13A8 JUMP JUMPDEST PUSH1 0x40 MLOAD PUSH2 0x3F0 SWAP2 SWAP1 PUSH2 0x2A2F JUMP JUMPDEST PUSH1 0x40 MLOAD DUP1 SWAP2 SUB SWAP1 RETURN JUMPDEST PUSH2 0x401 PUSH2 0x13AE JUMP JUMPDEST STOP JUMPDEST PUSH2 0x41D PUSH1 0x4 DUP1 CALLDATASIZE SUB DUP2 ADD SWAP1 PUSH2 0x418 SWAP2 SWAP1 PUSH2 0x2C12 JUMP JUMPDEST PUSH2 0x1416 JUMP JUMPDEST STOP JUMPDEST PUSH2 0x439 PUSH1 0x4 DUP1 CALLDATASIZE SUB DUP2 ADD SWAP1 PUSH2 0x434 SWAP2 SWAP1 PUSH2 0x29EC JUMP JUMPDEST PUSH2 0x159A JUMP JUMPDEST PUSH1 0x40 MLOAD PUSH2 0x446 SWAP2 SWAP1 PUSH2 0x2A2F JUMP JUMPDEST PUSH1 0x40 MLOAD DUP1 SWAP2 SUB SWAP1 RETURN JUMPDEST PUSH2 0x457 PUSH2 0x15AF JUMP JUMPDEST PUSH1 0x40 MLOAD PUSH2 0x464 SWAP2 SWAP1 PUSH2 0x2BF9 JUMP JUMPDEST PUSH1 0x40 MLOAD DUP1 SWAP2 SUB SWAP1 RETURN JUMPDEST PUSH2 0x487 PUSH1 0x4 DUP1 CALLDATASIZE SUB DUP2 ADD SWAP1 PUSH2 0x482 SWAP2 SWAP1 PUSH2 0x2B97 JUMP JUMPDEST PUSH2 0x15D6 JUMP JUMPDEST STOP JUMPDEST PUSH2 0x4A3 PUSH1 0x4 DUP1 CALLDATASIZE SUB DUP2 ADD SWAP1 PUSH2 0x49E SWAP2 SWAP1 PUSH2 0x29EC JUMP JUMPDEST PUSH2 0x16FF JUMP JUMPDEST STOP JUMPDEST PUSH2 0x4BF PUSH1 0x4 DUP1 CALLDATASIZE SUB DUP2 ADD SWAP1 PUSH2 0x4BA SWAP2 SWAP1 PUSH2 0x2B97 JUMP JUMPDEST PUSH2 0x1838 JUMP JUMPDEST STOP JUMPDEST PUSH2 0x4C9 PUSH2 0x1B66 JUMP JUMPDEST PUSH1 0x40 MLOAD PUSH2 0x4D6 SWAP2 SWAP1 PUSH2 0x2A2F JUMP JUMPDEST PUSH1 0x40 MLOAD DUP1 SWAP2 SUB SWAP1 RETURN JUMPDEST PUSH2 0x4E7 PUSH2 0x1B6C JUMP JUMPDEST PUSH1 0x40 MLOAD PUSH2 0x4F4 SWAP2 SWAP1 PUSH2 0x2A2F JUMP JUMPDEST PUSH1 0x40 MLOAD DUP1 SWAP2 SUB SWAP1 RETURN JUMPDEST PUSH2 0x517 PUSH1 0x4 DUP1 CALLDATASIZE SUB DUP2 ADD SWAP1 PUSH2 0x512 SWAP2 SWAP1 PUSH2 0x29EC JUMP JUMPDEST PUSH2 0x1BD5 JUMP JUMPDEST PUSH1 0x40 MLOAD PUSH2 0x524 SWAP2 SWAP1 PUSH2 0x2BD1 JUMP JUMPDEST PUSH1 0x40 MLOAD DUP1 SWAP2 SUB SWAP1 RETURN JUMPDEST PUSH2 0x535 PUSH2 0x1BF2 JUMP JUMPDEST STOP JUMPDEST PUSH2 0x53F PUSH2 0x1DF7 JUMP JUMPDEST PUSH1 0x40 MLOAD PUSH2 0x54C SWAP2 SWAP1 PUSH2 0x2A2F JUMP JUMPDEST PUSH1 0x40 MLOAD DUP1 SWAP2 SUB SWAP1 RETURN JUMPDEST PUSH2 0x55D PUSH2 0x1DFD JUMP JUMPDEST STOP JUMPDEST PUSH2 0x567 PUSH2 0x22C5 JUMP JUMPDEST PUSH1 0x40 MLOAD PUSH2 0x574 SWAP2 SWAP1 PUSH2 0x2A2F JUMP JUMPDEST PUSH1 0x40 MLOAD DUP1 SWAP2 SUB SWAP1 RETURN JUMPDEST PUSH2 0x597 PUSH1 0x4 DUP1 CALLDATASIZE SUB DUP2 ADD SWAP1 PUSH2 0x592 SWAP2 SWAP1 PUSH2 0x29EC JUMP JUMPDEST PUSH2 0x22CB JUMP JUMPDEST STOP JUMPDEST PUSH2 0x5B3 PUSH1 0x4 DUP1 CALLDATASIZE SUB DUP2 ADD SWAP1 PUSH2 0x5AE SWAP2 SWAP1 PUSH2 0x29EC JUMP JUMPDEST PUSH2 0x252C JUMP JUMPDEST STOP JUMPDEST PUSH2 0x5BD PUSH2 0x25B0 JUMP JUMPDEST PUSH1 0x40 MLOAD PUSH2 0x5CA SWAP2 SWAP1 PUSH2 0x2A2F JUMP JUMPDEST PUSH1 0x40 MLOAD DUP1 SWAP2 SUB SWAP1 RETURN JUMPDEST PUSH0 PUSH1 0xA PUSH0 DUP4 PUSH20 0xFFFFFFFFFFFFFFFFFFFFFFFFFFFFFFFFFFFFFFFF AND PUSH20 0xFFFFFFFFFFFFFFFFFFFFFFFFFFFFFFFFFFFFFFFF AND DUP2 MSTORE PUSH1 0x20 ADD SWAP1 DUP2 MSTORE PUSH1 0x20 ADD PUSH0 KECCAK256 SLOAD PUSH8 0xDE0B6B3A7640000 PUSH1 0x9 PUSH0 DUP6 PUSH20 0xFFFFFFFFFFFFFFFFFFFFFFFFFFFFFFFFFFFFFFFF AND PUSH20 0xFFFFFFFFFFFFFFFFFFFFFFFFFFFFFFFFFFFFFFFF AND DUP2 MSTORE PUSH1 0x20 ADD SWAP1 DUP2 MSTORE PUSH1 0x20 ADD PUSH0 KECCAK256 SLOAD PUSH2 0x661 PUSH2 0x1B6C JUMP JUMPDEST PUSH2 0x66B SWAP2 SWAP1 PUSH2 0x2C7D JUMP JUMPDEST PUSH1 0x8 PUSH0 DUP7 PUSH20 0xFFFFFFFFFFFFFFFFFFFFFFFFFFFFFFFFFFFFFFFF AND PUSH20 0xFFFFFFFFFFFFFFFFFFFFFFFFFFFFFFFFFFFFFFFF AND DUP2 MSTORE PUSH1 0x20 ADD SWAP1 DUP2 MSTORE PUSH1 0x20 ADD PUSH0 KECCAK256 SLOAD PUSH2 0x6B3 SWAP2 SWAP1 PUSH2 0x2CB0 JUMP JUMPDEST PUSH2 0x6BD SWAP2 SWAP1 PUSH2 0x2D1E JUMP JUMPDEST PUSH2 0x6C7 SWAP2 SWAP1 PUSH2 0x2D4E JUMP JUMPDEST SWAP1 POP SWAP2 SWAP1 POP JUMP JUMPDEST PUSH32 0x0 DUP2 JUMP JUMPDEST PUSH2 0x6FA PUSH2 0x25F9 JUMP JUMPDEST PUSH0 PUSH2 0x703 PUSH2 0x1B6C JUMP JUMPDEST PUSH1 0x6 DUP2 SWAP1 SSTORE POP PUSH2 0x711 PUSH2 0x138F JUMP JUMPDEST PUSH1 0x5 DUP2 SWAP1 SSTORE POP PUSH0 PUSH20 0xFFFFFFFFFFFFFFFFFFFFFFFFFFFFFFFFFFFFFFFF AND DUP2 PUSH20 0xFFFFFFFFFFFFFFFFFFFFFFFFFFFFFFFFFFFFFFFF AND EQ PUSH2 0x7D9 JUMPI PUSH2 0x753 DUP2 PUSH2 0x5D3 JUMP JUMPDEST PUSH1 0xA PUSH0 DUP4 PUSH20 0xFFFFFFFFFFFFFFFFFFFFFFFFFFFFFFFFFFFFFFFF AND PUSH20 0xFFFFFFFFFFFFFFFFFFFFFFFFFFFFFFFFFFFFFFFF AND DUP2 MSTORE PUSH1 0x20 ADD SWAP1 DUP2 MSTORE PUSH1 0x20 ADD PUSH0 KECCAK256 DUP2 SWAP1 SSTORE POP PUSH1 0x6 SLOAD PUSH1 0x9 PUSH0 DUP4 PUSH20 0xFFFFFFFFFFFFFFFFFFFFFFFFFFFFFFFFFFFFFFFF AND PUSH20 0xFFFFFFFFFFFFFFFFFFFFFFFFFFFFFFFFFFFFFFFF AND DUP2 MSTORE PUSH1 0x20 ADD SWAP1 DUP2 MSTORE PUSH1 0x20 ADD PUSH0 KECCAK256 DUP2 SWAP1 SSTORE POP JUMPDEST PUSH1 0xB PUSH0 CALLER PUSH20 0xFFFFFFFFFFFFFFFFFFFFFFFFFFFFFFFFFFFFFFFF AND PUSH20 0xFFFFFFFFFFFFFFFFFFFFFFFFFFFFFFFFFFFFFFFF AND DUP2 MSTORE PUSH1 0x20 ADD SWAP1 DUP2 MSTORE PUSH1 0x20 ADD PUSH0 KECCAK256 PUSH0 SWAP1 SLOAD SWAP1 PUSH2 0x100 EXP SWAP1 DIV PUSH1 0xFF AND ISZERO DUP1 ISZERO PUSH2 0x863 JUMPI POP PUSH2 0x833 PUSH2 0x15AF JUMP JUMPDEST PUSH20 0xFFFFFFFFFFFFFFFFFFFFFFFFFFFFFFFFFFFFFFFF AND CALLER PUSH20 0xFFFFFFFFFFFFFFFFFFFFFFFFFFFFFFFFFFFFFFFF AND EQ ISZERO JUMPDEST ISZERO PUSH2 0x89A JUMPI PUSH1 0x40 MLOAD PUSH32 0x1648FD0100000000000000000000000000000000000000000000000000000000 DUP2 MSTORE PUSH1 0x4 ADD PUSH1 0x40 MLOAD DUP1 SWAP2 SUB SWAP1 REVERT JUMPDEST PUSH0 DUP4 SUB PUSH2 0x8D3 JUMPI PUSH1 0x40 MLOAD PUSH32 0x1F2A200500000000000000000000000000000000000000000000000000000000 DUP2 MSTORE PUSH1 0x4 ADD PUSH1 0x40 MLOAD DUP1 SWAP2 SUB SWAP1 REVERT JUMPDEST PUSH0 DUP3 SUB PUSH2 0x90C JUMPI PUSH1 0x40 MLOAD PUSH32 0x1F2A200500000000000000000000000000000000000000000000000000000000 DUP2 MSTORE PUSH1 0x4 ADD PUSH1 0x40 MLOAD DUP1 SWAP2 SUB SWAP1 REVERT JUMPDEST PUSH2 0x959 CALLER ADDRESS DUP6 PUSH32 0x0 PUSH20 0xFFFFFFFFFFFFFFFFFFFFFFFFFFFFFFFFFFFFFFFF AND PUSH2 0x261B SWAP1 SWAP4 SWAP3 SWAP2 SWAP1 PUSH4 0xFFFFFFFF AND JUMP JUMPDEST PUSH1 0x4 SLOAD TIMESTAMP LT ISZERO PUSH2 0x9A9 JUMPI PUSH0 TIMESTAMP PUSH1 0x4 SLOAD PUSH2 0x972 SWAP2 SWAP1 PUSH2 0x2C7D JUMP JUMPDEST SWAP1 POP PUSH0 PUSH1 0x3 SLOAD DUP3 PUSH2 0x983 SWAP2 SWAP1 PUSH2 0x2CB0 JUMP JUMPDEST SWAP1 POP DUP4 DUP2 DUP7 PUSH2 0x992 SWAP2 SWAP1 PUSH2 0x2D4E JUMP JUMPDEST PUSH2 0x99C SWAP2 SWAP1 PUSH2 0x2D1E JUMP JUMPDEST PUSH1 0x3 DUP2 SWAP1 SSTORE POP POP POP PUSH2 0x9BC JUMP JUMPDEST DUP2 DUP4 PUSH2 0x9B5 SWAP2 SWAP1 PUSH2 0x2D1E JUMP JUMPDEST PUSH1 0x3 DUP2 SWAP1 SSTORE POP JUMPDEST TIMESTAMP PUSH1 0x5 DUP2 SWAP1 SSTORE POP DUP2 TIMESTAMP PUSH2 0x9CF SWAP2 SWAP1 PUSH2 0x2D4E JUMP JUMPDEST PUSH1 0x4 DUP2 SWAP1 SSTORE POP CALLER PUSH20 0xFFFFFFFFFFFFFFFFFFFFFFFFFFFFFFFFFFFFFFFF AND PUSH32 0x8A888EA653A580E40660778EE0C0DABD23A81E8E2C8DCFB938E40982A157D819 DUP5 DUP5 PUSH1 0x40 MLOAD PUSH2 0xA1D SWAP3 SWAP2 SWAP1 PUSH2 0x2D81 JUMP JUMPDEST PUSH1 0x40 MLOAD DUP1 SWAP2 SUB SWAP1 LOG2 POP PUSH2 0xA2E PUSH2 0x2670 JUMP JUMPDEST POP POP JUMP JUMPDEST PUSH2 0xA3A PUSH2 0x268A JUMP JUMPDEST PUSH0 PUSH20 0xFFFFFFFFFFFFFFFFFFFFFFFFFFFFFFFFFFFFFFFF AND DUP3 PUSH20 0xFFFFFFFFFFFFFFFFFFFFFFFFFFFFFFFFFFFFFFFF AND SUB PUSH2 0xA9F JUMPI PUSH1 0x40 MLOAD PUSH32 0xD92E233D00000000000000000000000000000000000000000000000000000000 DUP2 MSTORE PUSH1 0x4 ADD PUSH1 0x40 MLOAD DUP1 SWAP2 SUB SWAP1 REVERT JUMPDEST DUP1 PUSH1 0xB PUSH0 DUP5 PUSH20 0xFFFFFFFFFFFFFFFFFFFFFFFFFFFFFFFFFFFFFFFF AND PUSH20 0xFFFFFFFFFFFFFFFFFFFFFFFFFFFFFFFFFFFFFFFF AND DUP2 MSTORE PUSH1 0x20 ADD SWAP1 DUP2 MSTORE PUSH1 0x20 ADD PUSH0 KECCAK256 PUSH0 PUSH2 0x100 EXP DUP2 SLOAD DUP2 PUSH1 0xFF MUL NOT AND SWAP1 DUP4 ISZERO ISZERO MUL OR SWAP1 SSTORE POP DUP2 PUSH20 0xFFFFFFFFFFFFFFFFFFFFFFFFFFFFFFFFFFFFFFFF AND PUSH32 0xB33CA1DABFB28A2E1BD06B332C396B1A3D538278691341A5503BBAD53F919197 DUP3 PUSH1 0x40 MLOAD PUSH2 0xB39 SWAP2 SWAP1 PUSH2 0x2BD1 JUMP JUMPDEST PUSH1 0x40 MLOAD DUP1 SWAP2 SUB SWAP1 LOG2 POP POP JUMP JUMPDEST PUSH2 0xB4D PUSH2 0x25F9 JUMP JUMPDEST PUSH1 0xC PUSH1 0x1 SWAP1 SLOAD SWAP1 PUSH2 0x100 EXP SWAP1 DIV PUSH1 0xFF AND ISZERO PUSH2 0xB94 JUMPI PUSH1 0x40 MLOAD PUSH32 0xAB35696F00000000000000000000000000000000000000000000000000000000 DUP2 MSTORE PUSH1 0x4 ADD PUSH1 0x40 MLOAD DUP1 SWAP2 SUB SWAP1 REVERT JUMPDEST PUSH0 PUSH20 0xFFFFFFFFFFFFFFFFFFFFFFFFFFFFFFFFFFFFFFFF AND PUSH1 0x1 PUSH0 SWAP1 SLOAD SWAP1 PUSH2 0x100 EXP SWAP1 DIV PUSH20 0xFFFFFFFFFFFFFFFFFFFFFFFFFFFFFFFFFFFFFFFF AND PUSH20 0xFFFFFFFFFFFFFFFFFFFFFFFFFFFFFFFFFFFFFFFF AND SUB PUSH2 0xC1A JUMPI PUSH1 0x40 MLOAD PUSH32 0x70362CDE00000000000000000000000000000000000000000000000000000000 DUP2 MSTORE PUSH1 0x4 ADD PUSH1 0x40 MLOAD DUP1 SWAP2 SUB SWAP1 REVERT JUMPDEST CALLER PUSH2 0xC23 PUSH2 0x1B6C JUMP JUMPDEST PUSH1 0x6 DUP2 SWAP1 SSTORE POP PUSH2 0xC31 PUSH2 0x138F JUMP JUMPDEST PUSH1 0x5 DUP2 SWAP1 SSTORE POP PUSH0 PUSH20 0xFFFFFFFFFFFFFFFFFFFFFFFFFFFFFFFFFFFFFFFF AND DUP2 PUSH20 0xFFFFFFFFFFFFFFFFFFFFFFFFFFFFFFFFFFFFFFFF AND EQ PUSH2 0xCF9 JUMPI PUSH2 0xC73 DUP2 PUSH2 0x5D3 JUMP JUMPDEST PUSH1 0xA PUSH0 DUP4 PUSH20 0xFFFFFFFFFFFFFFFFFFFFFFFFFFFFFFFFFFFFFFFF AND PUSH20 0xFFFFFFFFFFFFFFFFFFFFFFFFFFFFFFFFFFFFFFFF AND DUP2 MSTORE PUSH1 0x20 ADD SWAP1 DUP2 MSTORE PUSH1 0x20 ADD PUSH0 KECCAK256 DUP2 SWAP1 SSTORE POP PUSH1 0x6 SLOAD PUSH1 0x9 PUSH0 DUP4 PUSH20 0xFFFFFFFFFFFFFFFFFFFFFFFFFFFFFFFFFFFFFFFF AND PUSH20 0xFFFFFFFFFFFFFFFFFFFFFFFFFFFFFFFFFFFFFFFF AND DUP2 MSTORE PUSH1 0x20 ADD SWAP1 DUP2 MSTORE PUSH1 0x20 ADD PUSH0 KECCAK256 DUP2 SWAP1 SSTORE POP JUMPDEST PUSH0 DUP3 SUB PUSH2 0xD32 JUMPI PUSH1 0x40 MLOAD PUSH32 0x1F2A200500000000000000000000000000000000000000000000000000000000 DUP2 MSTORE PUSH1 0x4 ADD PUSH1 0x40 MLOAD DUP1 SWAP2 SUB SWAP1 REVERT JUMPDEST PUSH1 0x8 PUSH0 CALLER PUSH20 0xFFFFFFFFFFFFFFFFFFFFFFFFFFFFFFFFFFFFFFFF AND PUSH20 0xFFFFFFFFFFFFFFFFFFFFFFFFFFFFFFFFFFFFFFFF AND DUP2 MSTORE PUSH1 0x20 ADD SWAP1 DUP2 MSTORE PUSH1 0x20 ADD PUSH0 KECCAK256 SLOAD DUP3 GT ISZERO PUSH2 0xDF3 JUMPI DUP2 PUSH1 0x8 PUSH0 CALLER PUSH20 0xFFFFFFFFFFFFFFFFFFFFFFFFFFFFFFFFFFFFFFFF AND PUSH20 0xFFFFFFFFFFFFFFFFFFFFFFFFFFFFFFFFFFFFFFFF AND DUP2 MSTORE PUSH1 0x20 ADD SWAP1 DUP2 MSTORE PUSH1 0x20 ADD PUSH0 KECCAK256 SLOAD PUSH1 0x40 MLOAD PUSH32 0x45BE0A2600000000000000000000000000000000000000000000000000000000 DUP2 MSTORE PUSH1 0x4 ADD PUSH2 0xDEA SWAP3 SWAP2 SWAP1 PUSH2 0x2D81 JUMP JUMPDEST PUSH1 0x40 MLOAD DUP1 SWAP2 SUB SWAP1 REVERT JUMPDEST DUP2 PUSH1 0x8 PUSH0 CALLER PUSH20 0xFFFFFFFFFFFFFFFFFFFFFFFFFFFFFFFFFFFFFFFF AND PUSH20 0xFFFFFFFFFFFFFFFFFFFFFFFFFFFFFFFFFFFFFFFF AND DUP2 MSTORE PUSH1 0x20 ADD SWAP1 DUP2 MSTORE PUSH1 0x20 ADD PUSH0 KECCAK256 PUSH0 DUP3 DUP3 SLOAD PUSH2 0xE3F SWAP2 SWAP1 PUSH2 0x2C7D JUMP JUMPDEST SWAP3 POP POP DUP2 SWAP1 SSTORE POP DUP2 PUSH1 0x7 PUSH0 DUP3 DUP3 SLOAD PUSH2 0xE57 SWAP2 SWAP1 PUSH2 0x2C7D JUMP JUMPDEST SWAP3 POP POP DUP2 SWAP1 SSTORE POP PUSH2 0xEAA CALLER DUP4 PUSH1 0x1 PUSH0 SWAP1 SLOAD SWAP1 PUSH2 0x100 EXP SWAP1 DIV PUSH20 0xFFFFFFFFFFFFFFFFFFFFFFFFFFFFFFFFFFFFFFFF AND PUSH20 0xFFFFFFFFFFFFFFFFFFFFFFFFFFFFFFFFFFFFFFFF AND PUSH2 0x2711 SWAP1 SWAP3 SWAP2 SWAP1 PUSH4 0xFFFFFFFF AND JUMP JUMPDEST CALLER PUSH20 0xFFFFFFFFFFFFFFFFFFFFFFFFFFFFFFFFFFFFFFFF AND PUSH32 0xF5BB82176FEB1B5E747E28471AA92156A04D9F3AB9F45F28E2D704232B93F75 DUP4 PUSH1 0x40 MLOAD PUSH2 0xEF0 SWAP2 SWAP1 PUSH2 0x2A2F JUMP JUMPDEST PUSH1 0x40 MLOAD DUP1 SWAP2 SUB SWAP1 LOG2 POP PUSH2 0xF01 PUSH2 0x2670 JUMP JUMPDEST POP JUMP JUMPDEST PUSH1 0xC PUSH0 SWAP1 SLOAD SWAP1 PUSH2 0x100 EXP SWAP1 DIV PUSH1 0xFF AND DUP2 JUMP JUMPDEST PUSH1 0xA PUSH1 0x20 MSTORE DUP1 PUSH0 MSTORE PUSH1 0x40 PUSH0 KECCAK256 PUSH0 SWAP2 POP SWAP1 POP SLOAD DUP2 JUMP JUMPDEST PUSH2 0xF33 PUSH2 0x25F9 JUMP JUMPDEST PUSH1 0xC PUSH1 0x1 SWAP1 SLOAD SWAP1 PUSH2 0x100 EXP SWAP1 DIV PUSH1 0xFF AND ISZERO PUSH2 0xF7A JUMPI PUSH1 0x40 MLOAD PUSH32 0xAB35696F00000000000000000000000000000000000000000000000000000000 DUP2 MSTORE PUSH1 0x4 ADD PUSH1 0x40 MLOAD DUP1 SWAP2 SUB SWAP1 REVERT JUMPDEST CALLER PUSH2 0xF83 PUSH2 0x1B6C JUMP JUMPDEST PUSH1 0x6 DUP2 SWAP1 SSTORE POP PUSH2 0xF91 PUSH2 0x138F JUMP JUMPDEST PUSH1 0x5 DUP2 SWAP1 SSTORE POP PUSH0 PUSH20 0xFFFFFFFFFFFFFFFFFFFFFFFFFFFFFFFFFFFFFFFF AND DUP2 PUSH20 0xFFFFFFFFFFFFFFFFFFFFFFFFFFFFFFFFFFFFFFFF AND EQ PUSH2 0x1059 JUMPI PUSH2 0xFD3 DUP2 PUSH2 0x5D3 JUMP JUMPDEST PUSH1 0xA PUSH0 DUP4 PUSH20 0xFFFFFFFFFFFFFFFFFFFFFFFFFFFFFFFFFFFFFFFF AND PUSH20 0xFFFFFFFFFFFFFFFFFFFFFFFFFFFFFFFFFFFFFFFF AND DUP2 MSTORE PUSH1 0x20 ADD SWAP1 DUP2 MSTORE PUSH1 0x20 ADD PUSH0 KECCAK256 DUP2 SWAP1 SSTORE POP PUSH1 0x6 SLOAD PUSH1 0x9 PUSH0 DUP4 PUSH20 0xFFFFFFFFFFFFFFFFFFFFFFFFFFFFFFFFFFFFFFFF AND PUSH20 0xFFFFFFFFFFFFFFFFFFFFFFFFFFFFFFFFFFFFFFFF AND DUP2 MSTORE PUSH1 0x20 ADD SWAP1 DUP2 MSTORE PUSH1 0x20 ADD PUSH0 KECCAK256 DUP2 SWAP1 SSTORE POP JUMPDEST PUSH0 PUSH1 0xA PUSH0 CALLER PUSH20 0xFFFFFFFFFFFFFFFFFFFFFFFFFFFFFFFFFFFFFFFF AND PUSH20 0xFFFFFFFFFFFFFFFFFFFFFFFFFFFFFFFFFFFFFFFF AND DUP2 MSTORE PUSH1 0x20 ADD SWAP1 DUP2 MSTORE PUSH1 0x20 ADD PUSH0 KECCAK256 SLOAD SWAP1 POP PUSH0 DUP2 SUB PUSH2 0x10D3 JUMPI PUSH1 0x40 MLOAD PUSH32 0xB71EA17E00000000000000000000000000000000000000000000000000000000 DUP2 MSTORE PUSH1 0x4 ADD PUSH1 0x40 MLOAD DUP1 SWAP2 SUB SWAP1 REVERT JUMPDEST PUSH0 PUSH32 0x0 PUSH20 0xFFFFFFFFFFFFFFFFFFFFFFFFFFFFFFFFFFFFFFFF AND PUSH4 0x70A08231 ADDRESS PUSH1 0x40 MLOAD DUP3 PUSH4 0xFFFFFFFF AND PUSH1 0xE0 SHL DUP2 MSTORE PUSH1 0x4 ADD PUSH2 0x112D SWAP2 SWAP1 PUSH2 0x2BF9 JUMP JUMPDEST PUSH1 0x20 PUSH1 0x40 MLOAD DUP1 DUP4 SUB DUP2 DUP7 GAS STATICCALL ISZERO DUP1 ISZERO PUSH2 0x1148 JUMPI RETURNDATASIZE PUSH0 DUP1 RETURNDATACOPY RETURNDATASIZE PUSH0 REVERT JUMPDEST POP POP POP POP PUSH1 0x40 MLOAD RETURNDATASIZE PUSH1 0x1F NOT PUSH1 0x1F DUP3 ADD AND DUP3 ADD DUP1 PUSH1 0x40 MSTORE POP DUP2 ADD SWAP1 PUSH2 0x116C SWAP2 SWAP1 PUSH2 0x2DBC JUMP JUMPDEST SWAP1 POP DUP1 DUP3 GT ISZERO PUSH2 0x11B5 JUMPI DUP2 DUP2 PUSH1 0x40 MLOAD PUSH32 0x65AC9D4300000000000000000000000000000000000000000000000000000000 DUP2 MSTORE PUSH1 0x4 ADD PUSH2 0x11AC SWAP3 SWAP2 SWAP1 PUSH2 0x2D81 JUMP JUMPDEST PUSH1 0x40 MLOAD DUP1 SWAP2 SUB SWAP1 REVERT JUMPDEST PUSH0 PUSH1 0xA PUSH0 CALLER PUSH20 0xFFFFFFFFFFFFFFFFFFFFFFFFFFFFFFFFFFFFFFFF AND PUSH20 0xFFFFFFFFFFFFFFFFFFFFFFFFFFFFFFFFFFFFFFFF AND DUP2 MSTORE PUSH1 0x20 ADD SWAP1 DUP2 MSTORE PUSH1 0x20 ADD PUSH0 KECCAK256 DUP2 SWAP1 SSTORE POP PUSH2 0x1242 CALLER DUP4 PUSH32 0x0 PUSH20 0xFFFFFFFFFFFFFFFFFFFFFFFFFFFFFFFFFFFFFFFF AND PUSH2 0x2711 SWAP1 SWAP3 SWAP2 SWAP1 PUSH4 0xFFFFFFFF AND JUMP JUMPDEST CALLER PUSH20 0xFFFFFFFFFFFFFFFFFFFFFFFFFFFFFFFFFFFFFFFF AND PUSH32 0xFC30CDDEA38E2BF4D6EA7D3F9ED3B6AD7F176419F4963BD81318067A4AEE73FE DUP4 PUSH1 0x40 MLOAD PUSH2 0x1288 SWAP2 SWAP1 PUSH2 0x2A2F JUMP JUMPDEST PUSH1 0x40 MLOAD DUP1 SWAP2 SUB SWAP1 LOG2 POP POP POP PUSH2 0x129B PUSH2 0x2670 JUMP JUMPDEST JUMP JUMPDEST PUSH2 0x12A5 PUSH2 0x268A JUMP JUMPDEST PUSH0 PUSH1 0xC PUSH1 0x1 PUSH2 0x100 EXP DUP2 SLOAD DUP2 PUSH1 0xFF MUL NOT AND SWAP1 DUP4 ISZERO ISZERO MUL OR SWAP1 SSTORE POP CALLER PUSH20 0xFFFFFFFFFFFFFFFFFFFFFFFFFFFFFFFFFFFFFFFF AND PUSH32 0x5DB9EE0A495BF2E6FF9C91A7834C1BA4FDD244A5E8AA4E537BD38AEAE4B073AA PUSH1 0x40 MLOAD PUSH1 0x40 MLOAD DUP1 SWAP2 SUB SWAP1 LOG2 JUMP JUMPDEST PUSH1 0xC PUSH1 0x1 SWAP1 SLOAD SWAP1 PUSH2 0x100 EXP SWAP1 DIV PUSH1 0xFF AND DUP2 JUMP JUMPDEST PUSH1 0x3 SLOAD DUP2 JUMP JUMPDEST PUSH1 0x1 PUSH0 SWAP1 SLOAD SWAP1 PUSH2 0x100 EXP SWAP1 DIV PUSH20 0xFFFFFFFFFFFFFFFFFFFFFFFFFFFFFFFFFFFFFFFF AND DUP2 JUMP JUMPDEST PUSH1 0x8 PUSH1 0x20 MSTORE DUP1 PUSH0 MSTORE PUSH1 0x40 PUSH0 KECCAK256 PUSH0 SWAP2 POP SWAP1 POP SLOAD DUP2 JUMP JUMPDEST PUSH1 0x2 PUSH0 SWAP1 SLOAD SWAP1 PUSH2 0x100 EXP SWAP1 DIV PUSH20 0xFFFFFFFFFFFFFFFFFFFFFFFFFFFFFFFFFFFFFFFF AND DUP2 JUMP JUMPDEST PUSH2 0x1384 PUSH2 0x268A JUMP JUMPDEST PUSH2 0x138D PUSH0 PUSH2 0x2764 JUMP JUMPDEST JUMP JUMPDEST PUSH0 PUSH1 0x4 SLOAD TIMESTAMP LT PUSH2 0x13A1 JUMPI PUSH1 0x4 SLOAD PUSH2 0x13A3 JUMP JUMPDEST TIMESTAMP JUMPDEST SWAP1 POP SWAP1 JUMP JUMPDEST PUSH1 0x7 SLOAD DUP2 JUMP JUMPDEST PUSH2 0x13B6 PUSH2 0x268A JUMP JUMPDEST PUSH1 0x1 PUSH1 0xC PUSH1 0x1 PUSH2 0x100 EXP DUP2 SLOAD DUP2 PUSH1 0xFF MUL NOT AND SWAP1 DUP4 ISZERO ISZERO MUL OR SWAP1 SSTORE POP CALLER PUSH20 0xFFFFFFFFFFFFFFFFFFFFFFFFFFFFFFFFFFFFFFFF AND PUSH32 0x62E78CEA01BEE320CD4E420270B5EA74000D11B0C9F74754EBDBFC544B05A258 PUSH1 0x40 MLOAD PUSH1 0x40 MLOAD DUP1 SWAP2 SUB SWAP1 LOG2 JUMP JUMPDEST PUSH2 0x141E PUSH2 0x268A JUMP JUMPDEST PUSH1 0x1 PUSH0 SWAP1 SLOAD SWAP1 PUSH2 0x100 EXP SWAP1 DIV PUSH20 0xFFFFFFFFFFFFFFFFFFFFFFFFFFFFFFFFFFFFFFFF AND PUSH20 0xFFFFFFFFFFFFFFFFFFFFFFFFFFFFFFFFFFFFFFFF AND DUP3 PUSH20 0xFFFFFFFFFFFFFFFFFFFFFFFFFFFFFFFFFFFFFFFF AND SUB PUSH2 0x1564 JUMPI PUSH0 PUSH1 0x7 SLOAD PUSH1 0x1 PUSH0 SWAP1 SLOAD SWAP1 PUSH2 0x100 EXP SWAP1 DIV PUSH20 0xFFFFFFFFFFFFFFFFFFFFFFFFFFFFFFFFFFFFFFFF AND PUSH20 0xFFFFFFFFFFFFFFFFFFFFFFFFFFFFFFFFFFFFFFFF AND PUSH4 0x70A08231 ADDRESS PUSH1 0x40 MLOAD DUP3 PUSH4 0xFFFFFFFF AND PUSH1 0xE0 SHL DUP2 MSTORE PUSH1 0x4 ADD PUSH2 0x14D0 SWAP2 SWAP1 PUSH2 0x2BF9 JUMP JUMPDEST PUSH1 0x20 PUSH1 0x40 MLOAD DUP1 DUP4 SUB DUP2 DUP7 GAS STATICCALL ISZERO DUP1 ISZERO PUSH2 0x14EB JUMPI RETURNDATASIZE PUSH0 DUP1 RETURNDATACOPY RETURNDATASIZE PUSH0 REVERT JUMPDEST POP POP POP POP PUSH1 0x40 MLOAD RETURNDATASIZE PUSH1 0x1F NOT PUSH1 0x1F DUP3 ADD AND DUP3 ADD DUP1 PUSH1 0x40 MSTORE POP DUP2 ADD SWAP1 PUSH2 0x150F SWAP2 SWAP1 PUSH2 0x2DBC JUMP JUMPDEST PUSH2 0x1519 SWAP2 SWAP1 PUSH2 0x2C7D JUMP JUMPDEST SWAP1 POP DUP1 DUP3 GT ISZERO PUSH2 0x1562 JUMPI DUP2 DUP2 PUSH1 0x40 MLOAD PUSH32 0x65AC9D4300000000000000000000000000000000000000000000000000000000 DUP2 MSTORE PUSH1 0x4 ADD PUSH2 0x1559 SWAP3 SWAP2 SWAP1 PUSH2 0x2D81 JUMP JUMPDEST PUSH1 0x40 MLOAD DUP1 SWAP2 SUB SWAP1 REVERT JUMPDEST POP JUMPDEST PUSH2 0x1596 PUSH2 0x156F PUSH2 0x15AF JUMP JUMPDEST DUP3 DUP5 PUSH20 0xFFFFFFFFFFFFFFFFFFFFFFFFFFFFFFFFFFFFFFFF AND PUSH2 0x2711 SWAP1 SWAP3 SWAP2 SWAP1 PUSH4 0xFFFFFFFF AND JUMP JUMPDEST POP POP JUMP JUMPDEST PUSH1 0x9 PUSH1 0x20 MSTORE DUP1 PUSH0 MSTORE PUSH1 0x40 PUSH0 KECCAK256 PUSH0 SWAP2 POP SWAP1 POP SLOAD DUP2 JUMP JUMPDEST PUSH0 DUP1 PUSH0 SWAP1 SLOAD SWAP1 PUSH2 0x100 EXP SWAP1 DIV PUSH20 0xFFFFFFFFFFFFFFFFFFFFFFFFFFFFFFFFFFFFFFFF AND SWAP1 POP SWAP1 JUMP JUMPDEST PUSH2 0x15DE PUSH2 0x268A JUMP JUMPDEST PUSH0 PUSH2 0x15E7 PUSH2 0x1B6C JUMP JUMPDEST PUSH1 0x6 DUP2 SWAP1 SSTORE POP PUSH2 0x15F5 PUSH2 0x138F JUMP JUMPDEST PUSH1 0x5 DUP2 SWAP1 SSTORE POP PUSH0 PUSH20 0xFFFFFFFFFFFFFFFFFFFFFFFFFFFFFFFFFFFFFFFF AND DUP2 PUSH20 0xFFFFFFFFFFFFFFFFFFFFFFFFFFFFFFFFFFFFFFFF AND EQ PUSH2 0x16BD JUMPI PUSH2 0x1637 DUP2 PUSH2 0x5D3 JUMP JUMPDEST PUSH1 0xA PUSH0 DUP4 PUSH20 0xFFFFFFFFFFFFFFFFFFFFFFFFFFFFFFFFFFFFFFFF AND PUSH20 0xFFFFFFFFFFFFFFFFFFFFFFFFFFFFFFFFFFFFFFFF AND DUP2 MSTORE PUSH1 0x20 ADD SWAP1 DUP2 MSTORE PUSH1 0x20 ADD PUSH0 KECCAK256 DUP2 SWAP1 SSTORE POP PUSH1 0x6 SLOAD PUSH1 0x9 PUSH0 DUP4 PUSH20 0xFFFFFFFFFFFFFFFFFFFFFFFFFFFFFFFFFFFFFFFF AND PUSH20 0xFFFFFFFFFFFFFFFFFFFFFFFFFFFFFFFFFFFFFFFF AND DUP2 MSTORE PUSH1 0x20 ADD SWAP1 DUP2 MSTORE PUSH1 0x20 ADD PUSH0 KECCAK256 DUP2 SWAP1 SSTORE POP JUMPDEST DUP2 PUSH1 0x3 DUP2 SWAP1 SSTORE POP PUSH32 0x8CBFAFC8E0D9C5C81401C4B9C6E7D201198ADC7EB8F8F1556C195ECD4C0A0E7B DUP3 PUSH1 0x40 MLOAD PUSH2 0x16F3 SWAP2 SWAP1 PUSH2 0x2A2F JUMP JUMPDEST PUSH1 0x40 MLOAD DUP1 SWAP2 SUB SWAP1 LOG1 POP POP JUMP JUMPDEST PUSH2 0x1707 PUSH2 0x268A JUMP JUMPDEST PUSH0 PUSH20 0xFFFFFFFFFFFFFFFFFFFFFFFFFFFFFFFFFFFFFFFF AND DUP2 PUSH20 0xFFFFFFFFFFFFFFFFFFFFFFFFFFFFFFFFFFFFFFFF AND SUB PUSH2 0x176C JUMPI PUSH1 0x40 MLOAD PUSH32 0xD92E233D00000000000000000000000000000000000000000000000000000000 DUP2 MSTORE PUSH1 0x4 ADD PUSH1 0x40 MLOAD DUP1 SWAP2 SUB SWAP1 REVERT JUMPDEST PUSH1 0xC PUSH0 SWAP1 SLOAD SWAP1 PUSH2 0x100 EXP SWAP1 DIV PUSH1 0xFF AND ISZERO PUSH2 0x17B2 JUMPI PUSH1 0x40 MLOAD PUSH32 0xAE0CD54F00000000000000000000000000000000000000000000000000000000 DUP2 MSTORE PUSH1 0x4 ADD PUSH1 0x40 MLOAD DUP1 SWAP2 SUB SWAP1 REVERT JUMPDEST DUP1 PUSH1 0x1 PUSH0 PUSH2 0x100 EXP DUP2 SLOAD DUP2 PUSH20 0xFFFFFFFFFFFFFFFFFFFFFFFFFFFFFFFFFFFFFFFF MUL NOT AND SWAP1 DUP4 PUSH20 0xFFFFFFFFFFFFFFFFFFFFFFFFFFFFFFFFFFFFFFFF AND MUL OR SWAP1 SSTORE POP DUP1 PUSH20 0xFFFFFFFFFFFFFFFFFFFFFFFFFFFFFFFFFFFFFFFF AND PUSH32 0x1C1820B4910E7E24202FA882184FDE52E795A3113B621DED50B099B270159ACC PUSH1 0x40 MLOAD PUSH1 0x40 MLOAD DUP1 SWAP2 SUB SWAP1 LOG2 POP JUMP JUMPDEST PUSH2 0x1840 PUSH2 0x25F9 JUMP JUMPDEST PUSH1 0xC PUSH1 0x1 SWAP1 SLOAD SWAP1 PUSH2 0x100 EXP SWAP1 DIV PUSH1 0xFF AND ISZERO PUSH2 0x1887 JUMPI PUSH1 0x40 MLOAD PUSH32 0xAB35696F00000000000000000000000000000000000000000000000000000000 DUP2 MSTORE PUSH1 0x4 ADD PUSH1 0x40 MLOAD DUP1 SWAP2 SUB SWAP1 REVERT JUMPDEST PUSH0 PUSH20 0xFFFFFFFFFFFFFFFFFFFFFFFFFFFFFFFFFFFFFFFF AND PUSH1 0x1 PUSH0 SWAP1 SLOAD SWAP1 PUSH2 0x100 EXP SWAP1 DIV PUSH20 0xFFFFFFFFFFFFFFFFFFFFFFFFFFFFFFFFFFFFFFFF AND PUSH20 0xFFFFFFFFFFFFFFFFFFFFFFFFFFFFFFFFFFFFFFFF AND SUB PUSH2 0x190D JUMPI PUSH1 0x40 MLOAD PUSH32 0x70362CDE00000000000000000000000000000000000000000000000000000000 DUP2 MSTORE PUSH1 0x4 ADD PUSH1 0x40 MLOAD DUP1 SWAP2 SUB SWAP1 REVERT JUMPDEST CALLER PUSH2 0x1916 PUSH2 0x1B6C JUMP JUMPDEST PUSH1 0x6 DUP2 SWAP1 SSTORE POP PUSH2 0x1924 PUSH2 0x138F JUMP JUMPDEST PUSH1 0x5 DUP2 SWAP1 SSTORE POP PUSH0 PUSH20 0xFFFFFFFFFFFFFFFFFFFFFFFFFFFFFFFFFFFFFFFF AND DUP2 PUSH20 0xFFFFFFFFFFFFFFFFFFFFFFFFFFFFFFFFFFFFFFFF AND EQ PUSH2 0x19EC JUMPI PUSH2 0x1966 DUP2 PUSH2 0x5D3 JUMP JUMPDEST PUSH1 0xA PUSH0 DUP4 PUSH20 0xFFFFFFFFFFFFFFFFFFFFFFFFFFFFFFFFFFFFFFFF AND PUSH20 0xFFFFFFFFFFFFFFFFFFFFFFFFFFFFFFFFFFFFFFFF AND DUP2 MSTORE PUSH1 0x20 ADD SWAP1 DUP2 MSTORE PUSH1 0x20 ADD PUSH0 KECCAK256 DUP2 SWAP1 SSTORE POP PUSH1 0x6 SLOAD PUSH1 0x9 PUSH0 DUP4 PUSH20 0xFFFFFFFFFFFFFFFFFFFFFFFFFFFFFFFFFFFFFFFF AND PUSH20 0xFFFFFFFFFFFFFFFFFFFFFFFFFFFFFFFFFFFFFFFF AND DUP2 MSTORE PUSH1 0x20 ADD SWAP1 DUP2 MSTORE PUSH1 0x20 ADD PUSH0 KECCAK256 DUP2 SWAP1 SSTORE POP JUMPDEST PUSH0 DUP3 SUB PUSH2 0x1A25 JUMPI PUSH1 0x40 MLOAD PUSH32 0x1F2A200500000000000000000000000000000000000000000000000000000000 DUP2 MSTORE PUSH1 0x4 ADD PUSH1 0x40 MLOAD DUP1 SWAP2 SUB SWAP1 REVERT JUMPDEST PUSH1 0xC PUSH0 SWAP1 SLOAD SWAP1 PUSH2 0x100 EXP SWAP1 DIV PUSH1 0xFF AND PUSH2 0x1A53 JUMPI PUSH1 0x1 PUSH1 0xC PUSH0 PUSH2 0x100 EXP DUP2 SLOAD DUP2 PUSH1 0xFF MUL NOT AND SWAP1 DUP4 ISZERO ISZERO MUL OR SWAP1 SSTORE POP JUMPDEST DUP2 PUSH1 0x8 PUSH0 CALLER PUSH20 0xFFFFFFFFFFFFFFFFFFFFFFFFFFFFFFFFFFFFFFFF AND PUSH20 0xFFFFFFFFFFFFFFFFFFFFFFFFFFFFFFFFFFFFFFFF AND DUP2 MSTORE PUSH1 0x20 ADD SWAP1 DUP2 MSTORE PUSH1 0x20 ADD PUSH0 KECCAK256 PUSH0 DUP3 DUP3 SLOAD PUSH2 0x1A9F SWAP2 SWAP1 PUSH2 0x2D4E JUMP JUMPDEST SWAP3 POP POP DUP2 SWAP1 SSTORE POP DUP2 PUSH1 0x7 PUSH0 DUP3 DUP3 SLOAD PUSH2 0x1AB7 SWAP2 SWAP1 PUSH2 0x2D4E JUMP JUMPDEST SWAP3 POP POP DUP2 SWAP1 SSTORE POP PUSH2 0x1B0C CALLER ADDRESS DUP5 PUSH1 0x1 PUSH0 SWAP1 SLOAD SWAP1 PUSH2 0x100 EXP SWAP1 DIV PUSH20 0xFFFFFFFFFFFFFFFFFFFFFFFFFFFFFFFFFFFFFFFF AND PUSH20 0xFFFFFFFFFFFFFFFFFFFFFFFFFFFFFFFFFFFFFFFF AND PUSH2 0x261B SWAP1 SWAP4 SWAP3 SWAP2 SWAP1 PUSH4 0xFFFFFFFF AND JUMP JUMPDEST CALLER PUSH20 0xFFFFFFFFFFFFFFFFFFFFFFFFFFFFFFFFFFFFFFFF AND PUSH32 0x9E71BC8EEA02A63969F509818F2DAFB9254532904319F9DBDA79B67BD34A5F3D DUP4 PUSH1 0x40 MLOAD PUSH2 0x1B52 SWAP2 SWAP1 PUSH2 0x2A2F JUMP JUMPDEST PUSH1 0x40 MLOAD DUP1 SWAP2 SUB SWAP1 LOG2 POP PUSH2 0x1B63 PUSH2 0x2670 JUMP JUMPDEST POP JUMP JUMPDEST PUSH1 0x5 SLOAD DUP2 JUMP JUMPDEST PUSH0 DUP1 PUSH1 0x7 SLOAD SUB PUSH2 0x1B80 JUMPI PUSH1 0x6 SLOAD SWAP1 POP PUSH2 0x1BD2 JUMP JUMPDEST PUSH1 0x7 SLOAD PUSH8 0xDE0B6B3A7640000 PUSH1 0x3 SLOAD PUSH1 0x5 SLOAD PUSH2 0x1B9A PUSH2 0x138F JUMP JUMPDEST PUSH2 0x1BA4 SWAP2 SWAP1 PUSH2 0x2C7D JUMP JUMPDEST PUSH2 0x1BAE SWAP2 SWAP1 PUSH2 0x2CB0 JUMP JUMPDEST PUSH2 0x1BB8 SWAP2 SWAP1 PUSH2 0x2CB0 JUMP JUMPDEST PUSH2 0x1BC2 SWAP2 SWAP1 PUSH2 0x2D1E JUMP JUMPDEST PUSH1 0x6 SLOAD PUSH2 0x1BCF SWAP2 SWAP1 PUSH2 0x2D4E JUMP JUMPDEST SWAP1 POP JUMPDEST SWAP1 JUMP JUMPDEST PUSH1 0xB PUSH1 0x20 MSTORE DUP1 PUSH0 MSTORE PUSH1 0x40 PUSH0 KECCAK256 PUSH0 SWAP2 POP SLOAD SWAP1 PUSH2 0x100 EXP SWAP1 DIV PUSH1 0xFF AND DUP2 JUMP JUMPDEST PUSH2 0x1BFA PUSH2 0x25F9 JUMP JUMPDEST PUSH0 PUSH1 0x8 PUSH0 CALLER PUSH20 0xFFFFFFFFFFFFFFFFFFFFFFFFFFFFFFFFFFFFFFFF AND PUSH20 0xFFFFFFFFFFFFFFFFFFFFFFFFFFFFFFFFFFFFFFFF AND DUP2 MSTORE PUSH1 0x20 ADD SWAP1 DUP2 MSTORE PUSH1 0x20 ADD PUSH0 KECCAK256 SLOAD SWAP1 POP PUSH0 DUP2 SUB PUSH2 0x1C74 JUMPI PUSH1 0x40 MLOAD PUSH32 0x1F2A200500000000000000000000000000000000000000000000000000000000 DUP2 MSTORE PUSH1 0x4 ADD PUSH1 0x40 MLOAD DUP1 SWAP2 SUB SWAP1 REVERT JUMPDEST PUSH0 PUSH1 0x8 PUSH0 CALLER PUSH20 0xFFFFFFFFFFFFFFFFFFFFFFFFFFFFFFFFFFFFFFFF AND PUSH20 0xFFFFFFFFFFFFFFFFFFFFFFFFFFFFFFFFFFFFFFFF AND DUP2 MSTORE PUSH1 0x20 ADD SWAP1 DUP2 MSTORE PUSH1 0x20 ADD PUSH0 KECCAK256 DUP2 SWAP1 SSTORE POP PUSH0 PUSH1 0xA PUSH0 CALLER PUSH20 0xFFFFFFFFFFFFFFFFFFFFFFFFFFFFFFFFFFFFFFFF AND PUSH20 0xFFFFFFFFFFFFFFFFFFFFFFFFFFFFFFFFFFFFFFFF AND DUP2 MSTORE PUSH1 0x20 ADD SWAP1 DUP2 MSTORE PUSH1 0x20 ADD PUSH0 KECCAK256 DUP2 SWAP1 SSTORE POP PUSH0 PUSH1 0x9 PUSH0 CALLER PUSH20 0xFFFFFFFFFFFFFFFFFFFFFFFFFFFFFFFFFFFFFFFF AND PUSH20 0xFFFFFFFFFFFFFFFFFFFFFFFFFFFFFFFFFFFFFFFF AND DUP2 MSTORE PUSH1 0x20 ADD SWAP1 DUP2 MSTORE PUSH1 0x20 ADD PUSH0 KECCAK256 DUP2 SWAP1 SSTORE POP DUP1 PUSH1 0x7 PUSH0 DUP3 DUP3 SLOAD PUSH2 0x1D4B SWAP2 SWAP1 PUSH2 0x2C7D JUMP JUMPDEST SWAP3 POP POP DUP2 SWAP1 SSTORE POP PUSH2 0x1D9E CALLER DUP3 PUSH1 0x1 PUSH0 SWAP1 SLOAD SWAP1 PUSH2 0x100 EXP SWAP1 DIV PUSH20 0xFFFFFFFFFFFFFFFFFFFFFFFFFFFFFFFFFFFFFFFF AND PUSH20 0xFFFFFFFFFFFFFFFFFFFFFFFFFFFFFFFFFFFFFFFF AND PUSH2 0x2711 SWAP1 SWAP3 SWAP2 SWAP1 PUSH4 0xFFFFFFFF AND JUMP JUMPDEST CALLER PUSH20 0xFFFFFFFFFFFFFFFFFFFFFFFFFFFFFFFFFFFFFFFF AND PUSH32 0x5FAFA99D0643513820BE26656B45130B01E1C03062E1266BF36F88CBD3BD9695 DUP3 PUSH1 0x40 MLOAD PUSH2 0x1DE4 SWAP2 SWAP1 PUSH2 0x2A2F JUMP JUMPDEST PUSH1 0x40 MLOAD DUP1 SWAP2 SUB SWAP1 LOG2 POP PUSH2 0x1DF5 PUSH2 0x2670 JUMP JUMPDEST JUMP JUMPDEST PUSH1 0x6 SLOAD DUP2 JUMP JUMPDEST PUSH2 0x1E05 PUSH2 0x25F9 JUMP JUMPDEST PUSH1 0xC PUSH1 0x1 SWAP1 SLOAD SWAP1 PUSH2 0x100 EXP SWAP1 DIV PUSH1 0xFF AND ISZERO PUSH2 0x1E4C JUMPI PUSH1 0x40 MLOAD PUSH32 0xAB35696F00000000000000000000000000000000000000000000000000000000 DUP2 MSTORE PUSH1 0x4 ADD PUSH1 0x40 MLOAD DUP1 SWAP2 SUB SWAP1 REVERT JUMPDEST PUSH0 PUSH20 0xFFFFFFFFFFFFFFFFFFFFFFFFFFFFFFFFFFFFFFFF AND PUSH1 0x1 PUSH0 SWAP1 SLOAD SWAP1 PUSH2 0x100 EXP SWAP1 DIV PUSH20 0xFFFFFFFFFFFFFFFFFFFFFFFFFFFFFFFFFFFFFFFF AND PUSH20 0xFFFFFFFFFFFFFFFFFFFFFFFFFFFFFFFFFFFFFFFF AND SUB PUSH2 0x1ED2 JUMPI PUSH1 0x40 MLOAD PUSH32 0x70362CDE00000000000000000000000000000000000000000000000000000000 DUP2 MSTORE PUSH1 0x4 ADD PUSH1 0x40 MLOAD DUP1 SWAP2 SUB SWAP1 REVERT JUMPDEST CALLER PUSH2 0x1EDB PUSH2 0x1B6C JUMP JUMPDEST PUSH1 0x6 DUP2 SWAP1 SSTORE POP PUSH2 0x1EE9 PUSH2 0x138F JUMP JUMPDEST PUSH1 0x5 DUP2 SWAP1 SSTORE POP PUSH0 PUSH20 0xFFFFFFFFFFFFFFFFFFFFFFFFFFFFFFFFFFFFFFFF AND DUP2 PUSH20 0xFFFFFFFFFFFFFFFFFFFFFFFFFFFFFFFFFFFFFFFF AND EQ PUSH2 0x1FB1 JUMPI PUSH2 0x1F2B DUP2 PUSH2 0x5D3 JUMP JUMPDEST PUSH1 0xA PUSH0 DUP4 PUSH20 0xFFFFFFFFFFFFFFFFFFFFFFFFFFFFFFFFFFFFFFFF AND PUSH20 0xFFFFFFFFFFFFFFFFFFFFFFFFFFFFFFFFFFFFFFFF AND DUP2 MSTORE PUSH1 0x20 ADD SWAP1 DUP2 MSTORE PUSH1 0x20 ADD PUSH0 KECCAK256 DUP2 SWAP1 SSTORE POP PUSH1 0x6 SLOAD PUSH1 0x9 PUSH0 DUP4 PUSH20 0xFFFFFFFFFFFFFFFFFFFFFFFFFFFFFFFFFFFFFFFF AND PUSH20 0xFFFFFFFFFFFFFFFFFFFFFFFFFFFFFFFFFFFFFFFF AND DUP2 MSTORE PUSH1 0x20 ADD SWAP1 DUP2 MSTORE PUSH1 0x20 ADD PUSH0 KECCAK256 DUP2 SWAP1 SSTORE POP JUMPDEST PUSH0 PUSH1 0x8 PUSH0 CALLER PUSH20 0xFFFFFFFFFFFFFFFFFFFFFFFFFFFFFFFFFFFFFFFF AND PUSH20 0xFFFFFFFFFFFFFFFFFFFFFFFFFFFFFFFFFFFFFFFF AND DUP2 MSTORE PUSH1 0x20 ADD SWAP1 DUP2 MSTORE PUSH1 0x20 ADD PUSH0 KECCAK256 SLOAD SWAP1 POP PUSH0 PUSH1 0xA PUSH0 CALLER PUSH20 0xFFFFFFFFFFFFFFFFFFFFFFFFFFFFFFFFFFFFFFFF AND PUSH20 0xFFFFFFFFFFFFFFFFFFFFFFFFFFFFFFFFFFFFFFFF AND DUP2 MSTORE PUSH1 0x20 ADD SWAP1 DUP2 MSTORE PUSH1 0x20 ADD PUSH0 KECCAK256 SLOAD SWAP1 POP PUSH0 DUP3 GT ISZERO PUSH2 0x2130 JUMPI PUSH0 PUSH1 0x8 PUSH0 CALLER PUSH20 0xFFFFFFFFFFFFFFFFFFFFFFFFFFFFFFFFFFFFFFFF AND PUSH20 0xFFFFFFFFFFFFFFFFFFFFFFFFFFFFFFFFFFFFFFFF AND DUP2 MSTORE PUSH1 0x20 ADD SWAP1 DUP2 MSTORE PUSH1 0x20 ADD PUSH0 KECCAK256 DUP2 SWAP1 SSTORE POP DUP2 PUSH1 0x7 PUSH0 DUP3 DUP3 SLOAD PUSH2 0x208E SWAP2 SWAP1 PUSH2 0x2C7D JUMP JUMPDEST SWAP3 POP POP DUP2 SWAP1 SSTORE POP PUSH2 0x20E1 CALLER DUP4 PUSH1 0x1 PUSH0 SWAP1 SLOAD SWAP1 PUSH2 0x100 EXP SWAP1 DIV PUSH20 0xFFFFFFFFFFFFFFFFFFFFFFFFFFFFFFFFFFFFFFFF AND PUSH20 0xFFFFFFFFFFFFFFFFFFFFFFFFFFFFFFFFFFFFFFFF AND PUSH2 0x2711 SWAP1 SWAP3 SWAP2 SWAP1 PUSH4 0xFFFFFFFF AND JUMP JUMPDEST CALLER PUSH20 0xFFFFFFFFFFFFFFFFFFFFFFFFFFFFFFFFFFFFFFFF AND PUSH32 0xF5BB82176FEB1B5E747E28471AA92156A04D9F3AB9F45F28E2D704232B93F75 DUP4 PUSH1 0x40 MLOAD PUSH2 0x2127 SWAP2 SWAP1 PUSH2 0x2A2F JUMP JUMPDEST PUSH1 0x40 MLOAD DUP1 SWAP2 SUB SWAP1 LOG2 JUMPDEST PUSH0 DUP2 GT ISZERO PUSH2 0x22B8 JUMPI PUSH0 PUSH32 0x0 PUSH20 0xFFFFFFFFFFFFFFFFFFFFFFFFFFFFFFFFFFFFFFFF AND PUSH4 0x70A08231 ADDRESS PUSH1 0x40 MLOAD DUP3 PUSH4 0xFFFFFFFF AND PUSH1 0xE0 SHL DUP2 MSTORE PUSH1 0x4 ADD PUSH2 0x2192 SWAP2 SWAP1 PUSH2 0x2BF9 JUMP JUMPDEST PUSH1 0x20 PUSH1 0x40 MLOAD DUP1 DUP4 SUB DUP2 DUP7 GAS STATICCALL ISZERO DUP1 ISZERO PUSH2 0x21AD JUMPI RETURNDATASIZE PUSH0 DUP1 RETURNDATACOPY RETURNDATASIZE PUSH0 REVERT JUMPDEST POP POP POP POP PUSH1 0x40 MLOAD RETURNDATASIZE PUSH1 0x1F NOT PUSH1 0x1F DUP3 ADD AND DUP3 ADD DUP1 PUSH1 0x40 MSTORE POP DUP2 ADD SWAP1 PUSH2 0x21D1 SWAP2 SWAP1 PUSH2 0x2DBC JUMP JUMPDEST SWAP1 POP DUP1 DUP3 GT PUSH2 0x22B6 JUMPI PUSH0 PUSH1 0xA PUSH0 CALLER PUSH20 0xFFFFFFFFFFFFFFFFFFFFFFFFFFFFFFFFFFFFFFFF AND PUSH20 0xFFFFFFFFFFFFFFFFFFFFFFFFFFFFFFFFFFFFFFFF AND DUP2 MSTORE PUSH1 0x20 ADD SWAP1 DUP2 MSTORE PUSH1 0x20 ADD PUSH0 KECCAK256 DUP2 SWAP1 SSTORE POP PUSH2 0x2267 CALLER DUP4 PUSH32 0x0 PUSH20 0xFFFFFFFFFFFFFFFFFFFFFFFFFFFFFFFFFFFFFFFF AND PUSH2 0x2711 SWAP1 SWAP3 SWAP2 SWAP1 PUSH4 0xFFFFFFFF AND JUMP JUMPDEST CALLER PUSH20 0xFFFFFFFFFFFFFFFFFFFFFFFFFFFFFFFFFFFFFFFF AND PUSH32 0xFC30CDDEA38E2BF4D6EA7D3F9ED3B6AD7F176419F4963BD81318067A4AEE73FE DUP4 PUSH1 0x40 MLOAD PUSH2 0x22AD SWAP2 SWAP1 PUSH2 0x2A2F JUMP JUMPDEST PUSH1 0x40 MLOAD DUP1 SWAP2 SUB SWAP1 LOG2 JUMPDEST POP JUMPDEST POP POP POP PUSH2 0x22C3 PUSH2 0x2670 JUMP JUMPDEST JUMP JUMPDEST PUSH1 0x4 SLOAD DUP2 JUMP JUMPDEST PUSH2 0x22D3 PUSH2 0x268A JUMP JUMPDEST PUSH0 PUSH20 0xFFFFFFFFFFFFFFFFFFFFFFFFFFFFFFFFFFFFFFFF AND DUP2 PUSH20 0xFFFFFFFFFFFFFFFFFFFFFFFFFFFFFFFFFFFFFFFF AND SUB PUSH2 0x2338 JUMPI PUSH1 0x40 MLOAD PUSH32 0xD92E233D00000000000000000000000000000000000000000000000000000000 DUP2 MSTORE PUSH1 0x4 ADD PUSH1 0x40 MLOAD DUP1 SWAP2 SUB SWAP1 REVERT JUMPDEST PUSH0 PUSH20 0xFFFFFFFFFFFFFFFFFFFFFFFFFFFFFFFFFFFFFFFF AND PUSH1 0x2 PUSH0 SWAP1 SLOAD SWAP1 PUSH2 0x100 EXP SWAP1 DIV PUSH20 0xFFFFFFFFFFFFFFFFFFFFFFFFFFFFFFFFFFFFFFFF AND PUSH20 0xFFFFFFFFFFFFFFFFFFFFFFFFFFFFFFFFFFFFFFFF AND EQ PUSH2 0x2402 JUMPI PUSH0 PUSH1 0xB PUSH0 PUSH1 0x2 PUSH0 SWAP1 SLOAD SWAP1 PUSH2 0x100 EXP SWAP1 DIV PUSH20 0xFFFFFFFFFFFFFFFFFFFFFFFFFFFFFFFFFFFFFFFF AND PUSH20 0xFFFFFFFFFFFFFFFFFFFFFFFFFFFFFFFFFFFFFFFF AND PUSH20 0xFFFFFFFFFFFFFFFFFFFFFFFFFFFFFFFFFFFFFFFF AND DUP2 MSTORE PUSH1 0x20 ADD SWAP1 DUP2 MSTORE PUSH1 0x20 ADD PUSH0 KECCAK256 PUSH0 PUSH2 0x100 EXP DUP2 SLOAD DUP2 PUSH1 0xFF MUL NOT AND SWAP1 DUP4 ISZERO ISZERO MUL OR SWAP1 SSTORE POP JUMPDEST DUP1 PUSH1 0x2 PUSH0 PUSH2 0x100 EXP DUP2 SLOAD DUP2 PUSH20 0xFFFFFFFFFFFFFFFFFFFFFFFFFFFFFFFFFFFFFFFF MUL NOT AND SWAP1 DUP4 PUSH20 0xFFFFFFFFFFFFFFFFFFFFFFFFFFFFFFFFFFFFFFFF AND MUL OR SWAP1 SSTORE POP PUSH1 0x1 PUSH1 0xB PUSH0 DUP4 PUSH20 0xFFFFFFFFFFFFFFFFFFFFFFFFFFFFFFFFFFFFFFFF AND PUSH20 0xFFFFFFFFFFFFFFFFFFFFFFFFFFFFFFFFFFFFFFFF AND DUP2 MSTORE PUSH1 0x20 ADD SWAP1 DUP2 MSTORE PUSH1 0x20 ADD PUSH0 KECCAK256 PUSH0 PUSH2 0x100 EXP DUP2 SLOAD DUP2 PUSH1 0xFF MUL NOT AND SWAP1 DUP4 ISZERO ISZERO MUL OR SWAP1 SSTORE POP DUP1 PUSH20 0xFFFFFFFFFFFFFFFFFFFFFFFFFFFFFFFFFFFFFFFF AND PUSH32 0x3C864541EF71378C6229510ED90F376565EE42D9C5E0904A984A9E863E6DB44F PUSH1 0x40 MLOAD PUSH1 0x40 MLOAD DUP1 SWAP2 SUB SWAP1 LOG2 DUP1 PUSH20 0xFFFFFFFFFFFFFFFFFFFFFFFFFFFFFFFFFFFFFFFF AND PUSH32 0xB33CA1DABFB28A2E1BD06B332C396B1A3D538278691341A5503BBAD53F919197 PUSH1 0x1 PUSH1 0x40 MLOAD PUSH2 0x2521 SWAP2 SWAP1 PUSH2 0x2BD1 JUMP JUMPDEST PUSH1 0x40 MLOAD DUP1 SWAP2 SUB SWAP1 LOG2 POP JUMP JUMPDEST PUSH2 0x2534 PUSH2 0x268A JUMP JUMPDEST PUSH0 PUSH20 0xFFFFFFFFFFFFFFFFFFFFFFFFFFFFFFFFFFFFFFFF AND DUP2 PUSH20 0xFFFFFFFFFFFFFFFFFFFFFFFFFFFFFFFFFFFFFFFF AND SUB PUSH2 0x25A4 JUMPI PUSH0 PUSH1 0x40 MLOAD PUSH32 0x1E4FBDF700000000000000000000000000000000000000000000000000000000 DUP2 MSTORE PUSH1 0x4 ADD PUSH2 0x259B SWAP2 SWAP1 PUSH2 0x2BF9 JUMP JUMPDEST PUSH1 0x40 MLOAD DUP1 SWAP2 SUB SWAP1 REVERT JUMPDEST PUSH2 0x25AD DUP2 PUSH2 0x2764 JUMP JUMPDEST POP JUMP JUMPDEST PUSH0 DUP1 PUSH1 0x7 SLOAD SUB PUSH2 0x25C2 JUMPI PUSH0 SWAP1 POP PUSH2 0x25F6 JUMP JUMPDEST PUSH0 PUSH4 0x1E13380 PUSH1 0x3 SLOAD PUSH2 0x25D5 SWAP2 SWAP1 PUSH2 0x2CB0 JUMP JUMPDEST SWAP1 POP PUSH1 0x7 SLOAD PUSH2 0x2710 DUP3 PUSH2 0x25E8 SWAP2 SWAP1 PUSH2 0x2CB0 JUMP JUMPDEST PUSH2 0x25F2 SWAP2 SWAP1 PUSH2 0x2D1E JUMP JUMPDEST SWAP2 POP POP JUMPDEST SWAP1 JUMP JUMPDEST PUSH2 0x2601 PUSH2 0x2825 JUMP JUMPDEST PUSH1 0x2 PUSH2 0x2613 PUSH2 0x260E PUSH2 0x2866 JUMP JUMPDEST PUSH2 0x288F JUMP JUMPDEST PUSH0 ADD DUP2 SWAP1 SSTORE POP JUMP JUMPDEST PUSH2 0x2629 DUP5 DUP5 DUP5 DUP5 PUSH1 0x1 PUSH2 0x2898 JUMP JUMPDEST PUSH2 0x266A JUMPI DUP4 PUSH1 0x40 MLOAD PUSH32 0x5274AFE700000000000000000000000000000000000000000000000000000000 DUP2 MSTORE PUSH1 0x4 ADD PUSH2 0x2661 SWAP2 SWAP1 PUSH2 0x2BF9 JUMP JUMPDEST PUSH1 0x40 MLOAD DUP1 SWAP2 SUB SWAP1 REVERT JUMPDEST POP POP POP POP JUMP JUMPDEST PUSH1 0x1 PUSH2 0x2682 PUSH2 0x267D PUSH2 0x2866 JUMP JUMPDEST PUSH2 0x288F JUMP JUMPDEST PUSH0 ADD DUP2 SWAP1 SSTORE POP JUMP JUMPDEST PUSH2 0x2692 PUSH2 0x2909 JUMP JUMPDEST PUSH20 0xFFFFFFFFFFFFFFFFFFFFFFFFFFFFFFFFFFFFFFFF AND PUSH2 0x26B0 PUSH2 0x15AF JUMP JUMPDEST PUSH20 0xFFFFFFFFFFFFFFFFFFFFFFFFFFFFFFFFFFFFFFFF AND EQ PUSH2 0x270F JUMPI PUSH2 0x26D3 PUSH2 0x2909 JUMP JUMPDEST PUSH1 0x40 MLOAD PUSH32 0x118CDAA700000000000000000000000000000000000000000000000000000000 DUP2 MSTORE PUSH1 0x4 ADD PUSH2 0x2706 SWAP2 SWAP1 PUSH2 0x2BF9 JUMP JUMPDEST PUSH1 0x40 MLOAD DUP1 SWAP2 SUB SWAP1 REVERT JUMPDEST JUMP JUMPDEST PUSH2 0x271E DUP4 DUP4 DUP4 PUSH1 0x1 PUSH2 0x2910 JUMP JUMPDEST PUSH2 0x275F JUMPI DUP3 PUSH1 0x40 MLOAD PUSH32 0x5274AFE700000000000000000000000000000000000000000000000000000000 DUP2 MSTORE PUSH1 0x4 ADD PUSH2 0x2756 SWAP2 SWAP1 PUSH2 0x2BF9 JUMP JUMPDEST PUSH1 0x40 MLOAD DUP1 SWAP2 SUB SWAP1 REVERT JUMPDEST POP POP POP JUMP JUMPDEST PUSH0 DUP1 PUSH0 SWAP1 SLOAD SWAP1 PUSH2 0x100 EXP SWAP1 DIV PUSH20 0xFFFFFFFFFFFFFFFFFFFFFFFFFFFFFFFFFFFFFFFF AND SWAP1 POP DUP2 PUSH0 DUP1 PUSH2 0x100 EXP DUP2 SLOAD DUP2 PUSH20 0xFFFFFFFFFFFFFFFFFFFFFFFFFFFFFFFFFFFFFFFF MUL NOT AND SWAP1 DUP4 PUSH20 0xFFFFFFFFFFFFFFFFFFFFFFFFFFFFFFFFFFFFFFFF AND MUL OR SWAP1 SSTORE POP DUP2 PUSH20 0xFFFFFFFFFFFFFFFFFFFFFFFFFFFFFFFFFFFFFFFF AND DUP2 PUSH20 0xFFFFFFFFFFFFFFFFFFFFFFFFFFFFFFFFFFFFFFFF AND PUSH32 0x8BE0079C531659141344CD1FD0A4F28419497F9722A3DAAFE3B4186F6B6457E0 PUSH1 0x40 MLOAD PUSH1 0x40 MLOAD DUP1 SWAP2 SUB SWAP1 LOG3 POP POP JUMP JUMPDEST PUSH2 0x282D PUSH2 0x2972 JUMP JUMPDEST ISZERO PUSH2 0x2864 JUMPI PUSH1 0x40 MLOAD PUSH32 0x3EE5AEB500000000000000000000000000000000000000000000000000000000 DUP2 MSTORE PUSH1 0x4 ADD PUSH1 0x40 MLOAD DUP1 SWAP2 SUB SWAP1 REVERT JUMPDEST JUMP JUMPDEST PUSH0 PUSH32 0x9B779B17422D0DF92223018B32B4D1FA46E071723D6817E2486D003BECC55F00 PUSH0 SHL SWAP1 POP SWAP1 JUMP JUMPDEST PUSH0 DUP2 SWAP1 POP SWAP2 SWAP1 POP JUMP JUMPDEST PUSH0 DUP1 PUSH4 0x23B872DD PUSH1 0xE0 SHL SWAP1 POP PUSH1 0x40 MLOAD DUP2 PUSH0 MSTORE PUSH0 NOT PUSH1 0x60 SHR DUP8 AND PUSH1 0x4 MSTORE PUSH0 NOT PUSH1 0x60 SHR DUP7 AND PUSH1 0x24 MSTORE DUP5 PUSH1 0x44 MSTORE PUSH1 0x20 PUSH0 PUSH1 0x64 PUSH0 DUP1 DUP13 GAS CALL SWAP3 POP PUSH1 0x1 PUSH0 MLOAD EQ DUP4 AND PUSH2 0x28F6 JUMPI DUP4 DUP4 ISZERO AND ISZERO PUSH2 0x28EA JUMPI RETURNDATASIZE PUSH0 DUP3 RETURNDATACOPY RETURNDATASIZE DUP2 REVERT JUMPDEST PUSH0 DUP9 EXTCODESIZE GT RETURNDATASIZE ISZERO AND DUP4 AND SWAP3 POP JUMPDEST DUP1 PUSH1 0x40 MSTORE PUSH0 PUSH1 0x60 MSTORE POP POP SWAP6 SWAP5 POP POP POP POP POP JUMP JUMPDEST PUSH0 CALLER SWAP1 POP SWAP1 JUMP JUMPDEST PUSH0 DUP1 PUSH4 0xA9059CBB PUSH1 0xE0 SHL SWAP1 POP PUSH1 0x40 MLOAD DUP2 PUSH0 MSTORE PUSH0 NOT PUSH1 0x60 SHR DUP7 AND PUSH1 0x4 MSTORE DUP5 PUSH1 0x24 MSTORE PUSH1 0x20 PUSH0 PUSH1 0x44 PUSH0 DUP1 DUP12 GAS CALL SWAP3 POP PUSH1 0x1 PUSH0 MLOAD EQ DUP4 AND PUSH2 0x2964 JUMPI DUP4 DUP4 ISZERO AND ISZERO PUSH2 0x2958 JUMPI RETURNDATASIZE PUSH0 DUP3 RETURNDATACOPY RETURNDATASIZE DUP2 REVERT JUMPDEST PUSH0 DUP8 EXTCODESIZE GT RETURNDATASIZE ISZERO AND DUP4 AND SWAP3 POP JUMPDEST DUP1 PUSH1 0x40 MSTORE POP POP SWAP5 SWAP4 POP POP POP POP JUMP JUMPDEST PUSH0 PUSH1 0x2 PUSH2 0x2985 PUSH2 0x2980 PUSH2 0x2866 JUMP JUMPDEST PUSH2 0x288F JUMP JUMPDEST PUSH0 ADD SLOAD EQ SWAP1 POP SWAP1 JUMP JUMPDEST PUSH0 DUP1 REVERT JUMPDEST PUSH0 PUSH20 0xFFFFFFFFFFFFFFFFFFFFFFFFFFFFFFFFFFFFFFFF DUP3 AND SWAP1 POP SWAP2 SWAP1 POP JUMP JUMPDEST PUSH0 PUSH2 0x29BB DUP3 PUSH2 0x2992 JUMP JUMPDEST SWAP1 POP SWAP2 SWAP1 POP JUMP JUMPDEST PUSH2 0x29CB DUP2 PUSH2 0x29B1 JUMP JUMPDEST DUP2 EQ PUSH2 0x29D5 JUMPI PUSH0 DUP1 REVERT JUMPDEST POP JUMP JUMPDEST PUSH0 DUP2 CALLDATALOAD SWAP1 POP PUSH2 0x29E6 DUP2 PUSH2 0x29C2 JUMP JUMPDEST SWAP3 SWAP2 POP POP JUMP JUMPDEST PUSH0 PUSH1 0x20 DUP3 DUP5 SUB SLT ISZERO PUSH2 0x2A01 JUMPI PUSH2 0x2A00 PUSH2 0x298E JUMP JUMPDEST JUMPDEST PUSH0 PUSH2 0x2A0E DUP5 DUP3 DUP6 ADD PUSH2 0x29D8 JUMP JUMPDEST SWAP2 POP POP SWAP3 SWAP2 POP POP JUMP JUMPDEST PUSH0 DUP2 SWAP1 POP SWAP2 SWAP1 POP JUMP JUMPDEST PUSH2 0x2A29 DUP2 PUSH2 0x2A17 JUMP JUMPDEST DUP3 MSTORE POP POP JUMP JUMPDEST PUSH0 PUSH1 0x20 DUP3 ADD SWAP1 POP PUSH2 0x2A42 PUSH0 DUP4 ADD DUP5 PUSH2 0x2A20 JUMP JUMPDEST SWAP3 SWAP2 POP POP JUMP JUMPDEST PUSH0 DUP2 SWAP1 POP SWAP2 SWAP1 POP JUMP JUMPDEST PUSH0 PUSH2 0x2A6B PUSH2 0x2A66 PUSH2 0x2A61 DUP5 PUSH2 0x2992 JUMP JUMPDEST PUSH2 0x2A48 JUMP JUMPDEST PUSH2 0x2992 JUMP JUMPDEST SWAP1 POP SWAP2 SWAP1 POP JUMP JUMPDEST PUSH0 PUSH2 0x2A7C DUP3 PUSH2 0x2A51 JUMP JUMPDEST SWAP1 POP SWAP2 SWAP1 POP JUMP JUMPDEST PUSH0 PUSH2 0x2A8D DUP3 PUSH2 0x2A72 JUMP JUMPDEST SWAP1 POP SWAP2 SWAP1 POP JUMP JUMPDEST PUSH2 0x2A9D DUP2 PUSH2 0x2A83 JUMP JUMPDEST DUP3 MSTORE POP POP JUMP JUMPDEST PUSH0 PUSH1 0x20 DUP3 ADD SWAP1 POP PUSH2 0x2AB6 PUSH0 DUP4 ADD DUP5 PUSH2 0x2A94 JUMP JUMPDEST SWAP3 SWAP2 POP POP JUMP JUMPDEST PUSH2 0x2AC5 DUP2 PUSH2 0x2A17 JUMP JUMPDEST DUP2 EQ PUSH2 0x2ACF JUMPI PUSH0 DUP1 REVERT JUMPDEST POP JUMP JUMPDEST PUSH0 DUP2 CALLDATALOAD SWAP1 POP PUSH2 0x2AE0 DUP2 PUSH2 0x2ABC JUMP JUMPDEST SWAP3 SWAP2 POP POP JUMP JUMPDEST PUSH0 DUP1 PUSH1 0x40 DUP4 DUP6 SUB SLT ISZERO PUSH2 0x2AFC JUMPI PUSH2 0x2AFB PUSH2 0x298E JUMP JUMPDEST JUMPDEST PUSH0 PUSH2 0x2B09 DUP6 DUP3 DUP7 ADD PUSH2 0x2AD2 JUMP JUMPDEST SWAP3 POP POP PUSH1 0x20 PUSH2 0x2B1A DUP6 DUP3 DUP7 ADD PUSH2 0x2AD2 JUMP JUMPDEST SWAP2 POP POP SWAP3 POP SWAP3 SWAP1 POP JUMP JUMPDEST PUSH0 DUP2 ISZERO ISZERO SWAP1 POP SWAP2 SWAP1 POP JUMP JUMPDEST PUSH2 0x2B38 DUP2 PUSH2 0x2B24 JUMP JUMPDEST DUP2 EQ PUSH2 0x2B42 JUMPI PUSH0 DUP1 REVERT JUMPDEST POP JUMP JUMPDEST PUSH0 DUP2 CALLDATALOAD SWAP1 POP PUSH2 0x2B53 DUP2 PUSH2 0x2B2F JUMP JUMPDEST SWAP3 SWAP2 POP POP JUMP JUMPDEST PUSH0 DUP1 PUSH1 0x40 DUP4 DUP6 SUB SLT ISZERO PUSH2 0x2B6F JUMPI PUSH2 0x2B6E PUSH2 0x298E JUMP JUMPDEST JUMPDEST PUSH0 PUSH2 0x2B7C DUP6 DUP3 DUP7 ADD PUSH2 0x29D8 JUMP JUMPDEST SWAP3 POP POP PUSH1 0x20 PUSH2 0x2B8D DUP6 DUP3 DUP7 ADD PUSH2 0x2B45 JUMP JUMPDEST SWAP2 POP POP SWAP3 POP SWAP3 SWAP1 POP JUMP JUMPDEST PUSH0 PUSH1 0x20 DUP3 DUP5 SUB SLT ISZERO PUSH2 0x2BAC JUMPI PUSH2 0x2BAB PUSH2 0x298E JUMP JUMPDEST JUMPDEST PUSH0 PUSH2 0x2BB9 DUP5 DUP3 DUP6 ADD PUSH2 0x2AD2 JUMP JUMPDEST SWAP2 POP POP SWAP3 SWAP2 POP POP JUMP JUMPDEST PUSH2 0x2BCB DUP2 PUSH2 0x2B24 JUMP JUMPDEST DUP3 MSTORE POP POP JUMP JUMPDEST PUSH0 PUSH1 0x20 DUP3 ADD SWAP1 POP PUSH2 0x2BE4 PUSH0 DUP4 ADD DUP5 PUSH2 0x2BC2 JUMP JUMPDEST SWAP3 SWAP2 POP POP JUMP JUMPDEST PUSH2 0x2BF3 DUP2 PUSH2 0x29B1 JUMP JUMPDEST DUP3 MSTORE POP POP JUMP JUMPDEST PUSH0 PUSH1 0x20 DUP3 ADD SWAP1 POP PUSH2 0x2C0C PUSH0 DUP4 ADD DUP5 PUSH2 0x2BEA JUMP JUMPDEST SWAP3 SWAP2 POP POP JUMP JUMPDEST PUSH0 DUP1 PUSH1 0x40 DUP4 DUP6 SUB SLT ISZERO PUSH2 0x2C28 JUMPI PUSH2 0x2C27 PUSH2 0x298E JUMP JUMPDEST JUMPDEST PUSH0 PUSH2 0x2C35 DUP6 DUP3 DUP7 ADD PUSH2 0x29D8 JUMP JUMPDEST SWAP3 POP POP PUSH1 0x20 PUSH2 0x2C46 DUP6 DUP3 DUP7 ADD PUSH2 0x2AD2 JUMP JUMPDEST SWAP2 POP POP SWAP3 POP SWAP3 SWAP1 POP JUMP JUMPDEST PUSH32 0x4E487B7100000000000000000000000000000000000000000000000000000000 PUSH0 MSTORE PUSH1 0x11 PUSH1 0x4 MSTORE PUSH1 0x24 PUSH0 REVERT JUMPDEST PUSH0 PUSH2 0x2C87 DUP3 PUSH2 0x2A17 JUMP JUMPDEST SWAP2 POP PUSH2 0x2C92 DUP4 PUSH2 0x2A17 JUMP JUMPDEST SWAP3 POP DUP3 DUP3 SUB SWAP1 POP DUP2 DUP2 GT ISZERO PUSH2 0x2CAA JUMPI PUSH2 0x2CA9 PUSH2 0x2C50 JUMP JUMPDEST JUMPDEST SWAP3 SWAP2 POP POP JUMP JUMPDEST PUSH0 PUSH2 0x2CBA DUP3 PUSH2 0x2A17 JUMP JUMPDEST SWAP2 POP PUSH2 0x2CC5 DUP4 PUSH2 0x2A17 JUMP JUMPDEST SWAP3 POP DUP3 DUP3 MUL PUSH2 0x2CD3 DUP2 PUSH2 0x2A17 JUMP JUMPDEST SWAP2 POP DUP3 DUP3 DIV DUP5 EQ DUP4 ISZERO OR PUSH2 0x2CEA JUMPI PUSH2 0x2CE9 PUSH2 0x2C50 JUMP JUMPDEST JUMPDEST POP SWAP3 SWAP2 POP POP JUMP JUMPDEST PUSH32 0x4E487B7100000000000000000000000000000000000000000000000000000000 PUSH0 MSTORE PUSH1 0x12 PUSH1 0x4 MSTORE PUSH1 0x24 PUSH0 REVERT JUMPDEST PUSH0 PUSH2 0x2D28 DUP3 PUSH2 0x2A17 JUMP JUMPDEST SWAP2 POP PUSH2 0x2D33 DUP4 PUSH2 0x2A17 JUMP JUMPDEST SWAP3 POP DUP3 PUSH2 0x2D43 JUMPI PUSH2 0x2D42 PUSH2 0x2CF1 JUMP JUMPDEST JUMPDEST DUP3 DUP3 DIV SWAP1 POP SWAP3 SWAP2 POP POP JUMP JUMPDEST PUSH0 PUSH2 0x2D58 DUP3 PUSH2 0x2A17 JUMP JUMPDEST SWAP2 POP PUSH2 0x2D63 DUP4 PUSH2 0x2A17 JUMP JUMPDEST SWAP3 POP DUP3 DUP3 ADD SWAP1 POP DUP1 DUP3 GT ISZERO PUSH2 0x2D7B JUMPI PUSH2 0x2D7A PUSH2 0x2C50 JUMP JUMPDEST JUMPDEST SWAP3 SWAP2 POP POP JUMP JUMPDEST PUSH0 PUSH1 0x40 DUP3 ADD SWAP1 POP PUSH2 0x2D94 PUSH0 DUP4 ADD DUP6 PUSH2 0x2A20 JUMP JUMPDEST PUSH2 0x2DA1 PUSH1 0x20 DUP4 ADD DUP5 PUSH2 0x2A20 JUMP JUMPDEST SWAP4 SWAP3 POP POP POP JUMP JUMPDEST PUSH0 DUP2 MLOAD SWAP1 POP PUSH2 0x2DB6 DUP2 PUSH2 0x2ABC JUMP JUMPDEST SWAP3 SWAP2 POP POP JUMP JUMPDEST PUSH0 PUSH1 0x20 DUP3 DUP5 SUB SLT ISZERO PUSH2 0x2DD1 JUMPI PUSH2 0x2DD0 PUSH2 0x298E JUMP JUMPDEST JUMPDEST PUSH0 PUSH2 0x2DDE DUP5 DUP3 DUP6 ADD PUSH2 0x2DA8 JUMP JUMPDEST SWAP2 POP POP SWAP3 SWAP2 POP POP JUMP INVALID LOG2 PUSH5 0x6970667358 0x22 SLT KECCAK256 0xBC SWAP3 0xA5 0xFC PUSH26 0xC3C4814BB91ABA013C2CD4B77AB966D81A98D6EB6D2AFA6F1761 0xB9 PUSH5 0x736F6C6343 STOP ADDMOD XOR STOP CALLER "
				},
				"gasEstimates": {
					"creation": {
						"codeDepositCost": "2361000",
						"executionCost": "infinite",
						"totalCost": "infinite"
					},
					"external": {
						"claimRewards()": "infinite",
						"earned(address)": "infinite",
						"emergencyWithdraw()": "infinite",
						"estimatedEmissionsAPR()": "infinite",
						"exit()": "infinite",
						"lastTimeRewardApplicable()": "4676",
						"lastUpdateTime()": "2536",
						"lpToken()": "infinite",
						"lpTokenLocked()": "2534",
						"notifyRewardAmount(uint256,uint256)": "infinite",
						"owner()": "2627",
						"pause()": "infinite",
						"paused()": "2585",
						"pendingRewards(address)": "2892",
						"periodFinish()": "2491",
						"recoverERC20(address,uint256)": "infinite",
						"renounceOwnership()": "infinite",
						"rewardNotifiers(address)": "2900",
						"rewardPerToken()": "infinite",
						"rewardPerTokenStored()": "2536",
						"rewardRatePerSecond()": "2515",
						"setLpToken(address)": "infinite",
						"setRewardNotifier(address,bool)": "infinite",
						"setRewardRate(uint256)": "infinite",
						"setTreasury(address)": "infinite",
						"stake(uint256)": "infinite",
						"stakedBalance(address)": "2847",
						"timbsToken()": "infinite",
						"totalStaked()": "2558",
						"transferOwnership(address)": "infinite",
						"treasury()": "2575",
						"unpause()": "infinite",
						"unstake(uint256)": "infinite",
						"userRewardPerTokenPaid(address)": "2892"
					}
				},
				"methodIdentifiers": {
					"claimRewards()": "372500ab",
					"earned(address)": "008cc262",
					"emergencyWithdraw()": "db2e21bc",
					"estimatedEmissionsAPR()": "fd42fe4d",
					"exit()": "e9fad8ee",
					"lastTimeRewardApplicable()": "80faa57d",
					"lastUpdateTime()": "c8f33c91",
					"lpToken()": "5fcbd285",
					"lpTokenLocked()": "2ff33be0",
					"notifyRewardAmount(uint256,uint256)": "246132f9",
					"owner()": "8da5cb5b",
					"pause()": "8456cb59",
					"paused()": "5c975abb",
					"pendingRewards(address)": "31d7a262",
					"periodFinish()": "ebe2b12b",
					"recoverERC20(address,uint256)": "8980f11f",
					"renounceOwnership()": "715018a6",
					"rewardNotifiers(address)": "d15166ff",
					"rewardPerToken()": "cd3daf9d",
					"rewardPerTokenStored()": "df136d65",
					"rewardRatePerSecond()": "5d773b2c",
					"setLpToken(address)": "9ee933b5",
					"setRewardNotifier(address,bool)": "255a4f73",
					"setRewardRate(uint256)": "9e447fc6",
					"setTreasury(address)": "f0f44260",
					"stake(uint256)": "a694fc3a",
					"stakedBalance(address)": "60217267",
					"timbsToken()": "0e31648f",
					"totalStaked()": "817b1cd2",
					"transferOwnership(address)": "f2fde38b",
					"treasury()": "61d027b3",
					"unpause()": "3f4ba83a",
					"unstake(uint256)": "2e17de78",
					"userRewardPerTokenPaid(address)": "8b876347"
				}
			},
			"storageLayout": {
				"storage": [
					{
						"astId": 8,
						"contract": "contracts/TimbFarm.sol:TimbFarm",
						"label": "_owner",
						"offset": 0,
						"slot": "0",
						"type": "t_address"
					},
					{
						"astId": 1072,
						"contract": "contracts/TimbFarm.sol:TimbFarm",
						"label": "lpToken",
						"offset": 0,
						"slot": "1",
						"type": "t_contract(IERC20)315"
					},
					{
						"astId": 1075,
						"contract": "contracts/TimbFarm.sol:TimbFarm",
						"label": "treasury",
						"offset": 0,
						"slot": "2",
						"type": "t_address"
					},
					{
						"astId": 1078,
						"contract": "contracts/TimbFarm.sol:TimbFarm",
						"label": "rewardRatePerSecond",
						"offset": 0,
						"slot": "3",
						"type": "t_uint256"
					},
					{
						"astId": 1081,
						"contract": "contracts/TimbFarm.sol:TimbFarm",
						"label": "periodFinish",
						"offset": 0,
						"slot": "4",
						"type": "t_uint256"
					},
					{
						"astId": 1084,
						"contract": "contracts/TimbFarm.sol:TimbFarm",
						"label": "lastUpdateTime",
						"offset": 0,
						"slot": "5",
						"type": "t_uint256"
					},
					{
						"astId": 1087,
						"contract": "contracts/TimbFarm.sol:TimbFarm",
						"label": "rewardPerTokenStored",
						"offset": 0,
						"slot": "6",
						"type": "t_uint256"
					},
					{
						"astId": 1090,
						"contract": "contracts/TimbFarm.sol:TimbFarm",
						"label": "totalStaked",
						"offset": 0,
						"slot": "7",
						"type": "t_uint256"
					},
					{
						"astId": 1095,
						"contract": "contracts/TimbFarm.sol:TimbFarm",
						"label": "stakedBalance",
						"offset": 0,
						"slot": "8",
						"type": "t_mapping(t_address,t_uint256)"
					},
					{
						"astId": 1100,
						"contract": "contracts/TimbFarm.sol:TimbFarm",
						"label": "userRewardPerTokenPaid",
						"offset": 0,
						"slot": "9",
						"type": "t_mapping(t_address,t_uint256)"
					},
					{
						"astId": 1105,
						"contract": "contracts/TimbFarm.sol:TimbFarm",
						"label": "pendingRewards",
						"offset": 0,
						"slot": "10",
						"type": "t_mapping(t_address,t_uint256)"
					},
					{
						"astId": 1110,
						"contract": "contracts/TimbFarm.sol:TimbFarm",
						"label": "rewardNotifiers",
						"offset": 0,
						"slot": "11",
						"type": "t_mapping(t_address,t_bool)"
					},
					{
						"astId": 1113,
						"contract": "contracts/TimbFarm.sol:TimbFarm",
						"label": "lpTokenLocked",
						"offset": 0,
						"slot": "12",
						"type": "t_bool"
					},
					{
						"astId": 1116,
						"contract": "contracts/TimbFarm.sol:TimbFarm",
						"label": "paused",
						"offset": 1,
						"slot": "12",
						"type": "t_bool"
					}
				],
				"types": {
					"t_address": {
						"encoding": "inplace",
						"label": "address",
						"numberOfBytes": "20"
					},
					"t_bool": {
						"encoding": "inplace",
						"label": "bool",
						"numberOfBytes": "1"
					},
					"t_contract(IERC20)315": {
						"encoding": "inplace",
						"label": "contract IERC20",
						"numberOfBytes": "20"
					},
					"t_mapping(t_address,t_bool)": {
						"encoding": "mapping",
						"key": "t_address",
						"label": "mapping(address => bool)",
						"numberOfBytes": "32",
						"value": "t_bool"
					},
					"t_mapping(t_address,t_uint256)": {
						"encoding": "mapping",
						"key": "t_address",
						"label": "mapping(address => uint256)",
						"numberOfBytes": "32",
						"value": "t_uint256"
					},
					"t_uint256": {
						"encoding": "inplace",
						"label": "uint256",
						"numberOfBytes": "32"
					}
				}
			},
			"userdoc": {
				"kind": "user",
				"methods": {
					"claimRewards()": {
						"notice": "Claim all pending TIMBS rewards."
					},
					"earned(address)": {
						"notice": "Total TIMBS earned (pending + unsnapshotted) for `account`."
					},
					"emergencyWithdraw()": {
						"notice": "Emergency withdraw — recovers LP tokens even when paused.         Forfeits all pending TIMBS rewards."
					},
					"estimatedEmissionsAPR()": {
						"notice": "Estimated annual TIMBS emission APR for LP stakers.         Does not include the 0.25% swap fee component (accrues in pair)."
					},
					"exit()": {
						"notice": "Unstake all LP tokens and claim all pending TIMBS rewards in one tx."
					},
					"lastTimeRewardApplicable()": {
						"notice": "Returns applicable reward timestamp (capped at periodFinish)."
					},
					"lastUpdateTime()": {
						"notice": "Last timestamp accumulator was updated."
					},
					"lpToken()": {
						"notice": "TIMBS/ETH LP token — staked token.         Set post-deploy once pair is created."
					},
					"lpTokenLocked()": {
						"notice": "LP token address locked after first stake — prevents rug         via changing lpToken while users are staked."
					},
					"notifyRewardAmount(uint256,uint256)": {
						"notice": "Fund the reward pool and set distribution period."
					},
					"paused()": {
						"notice": "Emergency pause flag."
					},
					"pendingRewards(address)": {
						"notice": "Pending (earned but unclaimed) TIMBS rewards per address."
					},
					"periodFinish()": {
						"notice": "Timestamp when current reward period ends."
					},
					"recoverERC20(address,uint256)": {
						"notice": "Owner recovers accidentally sent ERC20 tokens."
					},
					"rewardNotifiers(address)": {
						"notice": "Authorised reward notifiers (owner + treasury)."
					},
					"rewardPerToken()": {
						"notice": "Cumulative TIMBS earned per staked LP token since deploy."
					},
					"rewardPerTokenStored()": {
						"notice": "Cumulative TIMBS earned per staked LP (18-decimal fixed point)."
					},
					"rewardRatePerSecond()": {
						"notice": "TIMBS rewards distributed per second across all LP stakers."
					},
					"setLpToken(address)": {
						"notice": "Set the LP token address (TIMBS/ETH pair)."
					},
					"setRewardNotifier(address,bool)": {
						"notice": "Add or remove a reward notifier."
					},
					"setRewardRate(uint256)": {
						"notice": "Update reward rate directly (owner only)."
					},
					"setTreasury(address)": {
						"notice": "Set TimbTreasury and authorise as reward notifier."
					},
					"stake(uint256)": {
						"notice": "Stake TIMBS/ETH LP tokens to earn TIMBS emissions."
					},
					"stakedBalance(address)": {
						"notice": "LP staked balance per address."
					},
					"timbsToken()": {
						"notice": "TIMBS token — reward token."
					},
					"totalStaked()": {
						"notice": "Total LP tokens currently staked."
					},
					"treasury()": {
						"notice": "TimbTreasury — authorised reward notifier."
					},
					"unstake(uint256)": {
						"notice": "Reduce or fully withdraw staked LP tokens."
					},
					"userRewardPerTokenPaid(address)": {
						"notice": "Accumulator snapshot per address at last interaction."
					}
				},
				"notice": "TIMBS/ETH LP farming pool. Model:   - Stake TIMBS/ETH LP tokens, earn TIMBS emissions.   - LP stakers also passively earn 0.25% swap fees via the pair     contract (accrues to reserves, redeemable on removeLiquidity).   - Reward source: treasury TIMBS allocation + notifyRewardAmount()     calls from TimbTreasury.   - Fixed emission rate set by owner (changeable anytime).   - MasterChef-style rewardPerToken accumulator — same pattern as     TimbStaking, no loops, scales to any number of LPs.   - No unique stake IDs — accumulated balance per address.   - Free add/reduce/withdraw anytime — no lock, no penalty. Differences from TimbStaking:   - Staked token = LP token (TimbSwapPair), not TIMBS.   - Reward token = TIMBS (same as TimbStaking).   - LP token address is owner-set post-deploy (pair created after farm).   - emissionsMultiplier: owner can boost this pool vs single-asset pool. Security (defiSKILL):   - ReentrancyGuard on stake(), unstake(), claimRewards(), exit().   - Collateral ownership: msg.sender owns their LP stake.   - Flash stake protection: time-weighted accumulator.   - SafeERC20 on all transfers.   - LP token address validated against factory before staking enabled.   - Emergency pause + emergencyWithdraw (recovers LP, forfeits rewards).   - recoverERC20() cannot pull staked LP tokens. Deployment:   1. Deploy TimbFarm(timbsToken, rewardRatePerSecond)   2. After TimbSwapPair TIMBS/ETH deployed:      setLpToken(pairAddress)   3. TIMBSToken.setFarmPool(address(this))   4. setTreasury(timbTreasury)   5. notifyRewardAmount(amount, duration) to activate emissions",
				"version": 1
			}
		}
	}
}