{
	"contracts/TimbTreasury.sol": {
		"TimbTreasury": {
			"abi": [
				{
					"inputs": [
						{
							"internalType": "address",
							"name": "_timbsToken",
							"type": "address"
						},
						{
							"internalType": "address",
							"name": "_timbStaking",
							"type": "address"
						},
						{
							"internalType": "address",
							"name": "_prizeEscrow",
							"type": "address"
						},
						{
							"internalType": "address",
							"name": "_timbsEthPair",
							"type": "address"
						}
					],
					"stateMutability": "nonpayable",
					"type": "constructor"
				},
				{
					"inputs": [],
					"name": "BuybackFailed",
					"type": "error"
				},
				{
					"inputs": [
						{
							"internalType": "uint256",
							"name": "requested",
							"type": "uint256"
						},
						{
							"internalType": "uint256",
							"name": "available",
							"type": "uint256"
						}
					],
					"name": "InsufficientETH",
					"type": "error"
				},
				{
					"inputs": [
						{
							"internalType": "uint256",
							"name": "ratio",
							"type": "uint256"
						}
					],
					"name": "InvalidRatio",
					"type": "error"
				},
				{
					"inputs": [],
					"name": "NotAuthorised",
					"type": "error"
				},
				{
					"inputs": [
						{
							"internalType": "address",
							"name": "owner",
							"type": "address"
						}
					],
					"name": "OwnableInvalidOwner",
					"type": "error"
				},
				{
					"inputs": [
						{
							"internalType": "address",
							"name": "account",
							"type": "address"
						}
					],
					"name": "OwnableUnauthorizedAccount",
					"type": "error"
				},
				{
					"inputs": [],
					"name": "ReentrancyGuardReentrantCall",
					"type": "error"
				},
				{
					"inputs": [
						{
							"internalType": "uint256",
							"name": "received",
							"type": "uint256"
						},
						{
							"internalType": "uint256",
							"name": "minimum",
							"type": "uint256"
						}
					],
					"name": "SlippageExceeded",
					"type": "error"
				},
				{
					"inputs": [],
					"name": "TransferFailed",
					"type": "error"
				},
				{
					"inputs": [],
					"name": "ZeroAddress",
					"type": "error"
				},
				{
					"inputs": [],
					"name": "ZeroAmount",
					"type": "error"
				},
				{
					"anonymous": false,
					"inputs": [
						{
							"indexed": false,
							"internalType": "uint256",
							"name": "ratio",
							"type": "uint256"
						}
					],
					"name": "BuybackBurnRatioSet",
					"type": "event"
				},
				{
					"anonymous": false,
					"inputs": [
						{
							"indexed": false,
							"internalType": "uint256",
							"name": "ethSpent",
							"type": "uint256"
						},
						{
							"indexed": false,
							"internalType": "uint256",
							"name": "timbsBought",
							"type": "uint256"
						},
						{
							"indexed": false,
							"internalType": "uint256",
							"name": "timbsBurned",
							"type": "uint256"
						},
						{
							"indexed": false,
							"internalType": "uint256",
							"name": "timbsToStaking",
							"type": "uint256"
						}
					],
					"name": "BuybackExecuted",
					"type": "event"
				},
				{
					"anonymous": false,
					"inputs": [
						{
							"indexed": true,
							"internalType": "address",
							"name": "sender",
							"type": "address"
						},
						{
							"indexed": false,
							"internalType": "bool",
							"name": "authorised",
							"type": "bool"
						}
					],
					"name": "FeeSenderSet",
					"type": "event"
				},
				{
					"anonymous": false,
					"inputs": [
						{
							"indexed": true,
							"internalType": "address",
							"name": "from",
							"type": "address"
						},
						{
							"indexed": false,
							"internalType": "uint256",
							"name": "amount",
							"type": "uint256"
						}
					],
					"name": "FeesReceived",
					"type": "event"
				},
				{
					"anonymous": false,
					"inputs": [
						{
							"indexed": true,
							"internalType": "address",
							"name": "to",
							"type": "address"
						},
						{
							"indexed": false,
							"internalType": "uint256",
							"name": "amount",
							"type": "uint256"
						}
					],
					"name": "OperationalWithdraw",
					"type": "event"
				},
				{
					"anonymous": false,
					"inputs": [
						{
							"indexed": true,
							"internalType": "address",
							"name": "previousOwner",
							"type": "address"
						},
						{
							"indexed": true,
							"internalType": "address",
							"name": "newOwner",
							"type": "address"
						}
					],
					"name": "OwnershipTransferred",
					"type": "event"
				},
				{
					"anonymous": false,
					"inputs": [
						{
							"indexed": true,
							"internalType": "address",
							"name": "pair",
							"type": "address"
						}
					],
					"name": "PairSet",
					"type": "event"
				},
				{
					"anonymous": false,
					"inputs": [
						{
							"indexed": false,
							"internalType": "uint256",
							"name": "amount",
							"type": "uint256"
						}
					],
					"name": "PotFunded",
					"type": "event"
				},
				{
					"anonymous": false,
					"inputs": [
						{
							"indexed": true,
							"internalType": "address",
							"name": "escrow",
							"type": "address"
						}
					],
					"name": "PrizeEscrowSet",
					"type": "event"
				},
				{
					"anonymous": false,
					"inputs": [
						{
							"indexed": false,
							"internalType": "uint256",
							"name": "timbsAmount",
							"type": "uint256"
						},
						{
							"indexed": false,
							"internalType": "uint256",
							"name": "duration",
							"type": "uint256"
						}
					],
					"name": "StakingFunded",
					"type": "event"
				},
				{
					"anonymous": false,
					"inputs": [
						{
							"indexed": true,
							"internalType": "address",
							"name": "staking",
							"type": "address"
						}
					],
					"name": "StakingSet",
					"type": "event"
				},
				{
					"inputs": [
						{
							"internalType": "address",
							"name": "",
							"type": "address"
						}
					],
					"name": "authorisedFeeSenders",
					"outputs": [
						{
							"internalType": "bool",
							"name": "",
							"type": "bool"
						}
					],
					"stateMutability": "view",
					"type": "function"
				},
				{
					"inputs": [],
					"name": "buybackBurnRatio",
					"outputs": [
						{
							"internalType": "uint256",
							"name": "",
							"type": "uint256"
						}
					],
					"stateMutability": "view",
					"type": "function"
				},
				{
					"inputs": [
						{
							"internalType": "uint256",
							"name": "amount",
							"type": "uint256"
						}
					],
					"name": "distributeToPot",
					"outputs": [],
					"stateMutability": "nonpayable",
					"type": "function"
				},
				{
					"inputs": [
						{
							"internalType": "uint256",
							"name": "timbsAmount",
							"type": "uint256"
						},
						{
							"internalType": "uint256",
							"name": "duration",
							"type": "uint256"
						}
					],
					"name": "distributeToStaking",
					"outputs": [],
					"stateMutability": "nonpayable",
					"type": "function"
				},
				{
					"inputs": [],
					"name": "ethBalance",
					"outputs": [
						{
							"internalType": "uint256",
							"name": "",
							"type": "uint256"
						}
					],
					"stateMutability": "view",
					"type": "function"
				},
				{
					"inputs": [
						{
							"internalType": "uint256",
							"name": "ethAmount",
							"type": "uint256"
						},
						{
							"internalType": "uint256",
							"name": "minTimbsOut",
							"type": "uint256"
						}
					],
					"name": "executeBuyback",
					"outputs": [],
					"stateMutability": "nonpayable",
					"type": "function"
				},
				{
					"inputs": [],
					"name": "getStats",
					"outputs": [
						{
							"internalType": "uint256",
							"name": "feesReceived",
							"type": "uint256"
						},
						{
							"internalType": "uint256",
							"name": "timbsBurned",
							"type": "uint256"
						},
						{
							"internalType": "uint256",
							"name": "timbsDistributed",
							"type": "uint256"
						},
						{
							"internalType": "uint256",
							"name": "potFunded",
							"type": "uint256"
						}
					],
					"stateMutability": "view",
					"type": "function"
				},
				{
					"inputs": [],
					"name": "owner",
					"outputs": [
						{
							"internalType": "address",
							"name": "",
							"type": "address"
						}
					],
					"stateMutability": "view",
					"type": "function"
				},
				{
					"inputs": [],
					"name": "prizeEscrow",
					"outputs": [
						{
							"internalType": "address",
							"name": "",
							"type": "address"
						}
					],
					"stateMutability": "view",
					"type": "function"
				},
				{
					"inputs": [],
					"name": "receiveFees",
					"outputs": [],
					"stateMutability": "payable",
					"type": "function"
				},
				{
					"inputs": [],
					"name": "renounceOwnership",
					"outputs": [],
					"stateMutability": "nonpayable",
					"type": "function"
				},
				{
					"inputs": [
						{
							"internalType": "uint256",
							"name": "_ratio",
							"type": "uint256"
						}
					],
					"name": "setBuybackBurnRatio",
					"outputs": [],
					"stateMutability": "nonpayable",
					"type": "function"
				},
				{
					"inputs": [
						{
							"internalType": "address",
							"name": "sender",
							"type": "address"
						},
						{
							"internalType": "bool",
							"name": "authorised",
							"type": "bool"
						}
					],
					"name": "setFeeSender",
					"outputs": [],
					"stateMutability": "nonpayable",
					"type": "function"
				},
				{
					"inputs": [
						{
							"internalType": "address",
							"name": "_escrow",
							"type": "address"
						}
					],
					"name": "setPrizeEscrow",
					"outputs": [],
					"stateMutability": "nonpayable",
					"type": "function"
				},
				{
					"inputs": [
						{
							"internalType": "uint256",
							"name": "_period",
							"type": "uint256"
						}
					],
					"name": "setStakingDistributionPeriod",
					"outputs": [],
					"stateMutability": "nonpayable",
					"type": "function"
				},
				{
					"inputs": [
						{
							"internalType": "address",
							"name": "_staking",
							"type": "address"
						}
					],
					"name": "setTimbStaking",
					"outputs": [],
					"stateMutability": "nonpayable",
					"type": "function"
				},
				{
					"inputs": [
						{
							"internalType": "address",
							"name": "_pair",
							"type": "address"
						}
					],
					"name": "setTimbsEthPair",
					"outputs": [],
					"stateMutability": "nonpayable",
					"type": "function"
				},
				{
					"inputs": [],
					"name": "stakingDistributionPeriod",
					"outputs": [
						{
							"internalType": "uint256",
							"name": "",
							"type": "uint256"
						}
					],
					"stateMutability": "view",
					"type": "function"
				},
				{
					"inputs": [],
					"name": "timbStaking",
					"outputs": [
						{
							"internalType": "address",
							"name": "",
							"type": "address"
						}
					],
					"stateMutability": "view",
					"type": "function"
				},
				{
					"inputs": [],
					"name": "timbsBalance",
					"outputs": [
						{
							"internalType": "uint256",
							"name": "",
							"type": "uint256"
						}
					],
					"stateMutability": "view",
					"type": "function"
				},
				{
					"inputs": [],
					"name": "timbsEthPair",
					"outputs": [
						{
							"internalType": "address",
							"name": "",
							"type": "address"
						}
					],
					"stateMutability": "view",
					"type": "function"
				},
				{
					"inputs": [],
					"name": "timbsToken",
					"outputs": [
						{
							"internalType": "contract ITimbsToken",
							"name": "",
							"type": "address"
						}
					],
					"stateMutability": "view",
					"type": "function"
				},
				{
					"inputs": [],
					"name": "totalFeesReceived",
					"outputs": [
						{
							"internalType": "uint256",
							"name": "",
							"type": "uint256"
						}
					],
					"stateMutability": "view",
					"type": "function"
				},
				{
					"inputs": [],
					"name": "totalPotFunded",
					"outputs": [
						{
							"internalType": "uint256",
							"name": "",
							"type": "uint256"
						}
					],
					"stateMutability": "view",
					"type": "function"
				},
				{
					"inputs": [],
					"name": "totalTimbsBurned",
					"outputs": [
						{
							"internalType": "uint256",
							"name": "",
							"type": "uint256"
						}
					],
					"stateMutability": "view",
					"type": "function"
				},
				{
					"inputs": [],
					"name": "totalTimbsDistributed",
					"outputs": [
						{
							"internalType": "uint256",
							"name": "",
							"type": "uint256"
						}
					],
					"stateMutability": "view",
					"type": "function"
				},
				{
					"inputs": [
						{
							"internalType": "address",
							"name": "newOwner",
							"type": "address"
						}
					],
					"name": "transferOwnership",
					"outputs": [],
					"stateMutability": "nonpayable",
					"type": "function"
				},
				{
					"inputs": [
						{
							"internalType": "address",
							"name": "to",
							"type": "address"
						},
						{
							"internalType": "uint256",
							"name": "amount",
							"type": "uint256"
						}
					],
					"name": "withdrawOperational",
					"outputs": [],
					"stateMutability": "nonpayable",
					"type": "function"
				},
				{
					"stateMutability": "payable",
					"type": "receive"
				}
			],
			"devdoc": {
				"errors": {
					"OwnableInvalidOwner(address)": [
						{
							"details": "The owner is not a valid owner account. (eg. `address(0)`)"
						}
					],
					"OwnableUnauthorizedAccount(address)": [
						{
							"details": "The caller account is not authorized to perform an operation."
						}
					],
					"ReentrancyGuardReentrantCall()": [
						{
							"details": "Unauthorized reentrant call."
						}
					]
				},
				"kind": "dev",
				"methods": {
					"constructor": {
						"params": {
							"_prizeEscrow": "PrizeEscrow contract address.",
							"_timbStaking": "TimbStaking contract address.",
							"_timbsEthPair": "TIMBS/ETH pair address (set after pair deploy).",
							"_timbsToken": "TIMBS token address."
						}
					},
					"distributeToPot(uint256)": {
						"params": {
							"amount": "ETH amount to send."
						}
					},
					"distributeToStaking(uint256,uint256)": {
						"details": "Treasury must hold TIMBS (transferred from community allocation).",
						"params": {
							"duration": "Distribution period in seconds.",
							"timbsAmount": "TIMBS amount to distribute."
						}
					},
					"executeBuyback(uint256,uint256)": {
						"details": "Buys TIMBS from TIMBS/ETH pair directly.      Splits purchased TIMBS: buybackBurnRatio% burned, rest to staking.      Slippage protected via minTimbsOut.",
						"params": {
							"ethAmount": "ETH to spend on buyback.",
							"minTimbsOut": "Minimum TIMBS to receive (slippage protection)."
						}
					},
					"owner()": {
						"details": "Returns the address of the current owner."
					},
					"receiveFees()": {
						"details": "Router sends 0.05% swap fees here.      TimbPrize sends round settlement cut here."
					},
					"renounceOwnership()": {
						"details": "Leaves the contract without owner. It will not be possible to call `onlyOwner` functions. Can only be called by the current owner. NOTE: Renouncing ownership will leave the contract without an owner, thereby disabling any functionality that is only available to the owner."
					},
					"transferOwnership(address)": {
						"details": "Transfers ownership of the contract to a new account (`newOwner`). Can only be called by the current owner."
					},
					"withdrawOperational(address,uint256)": {
						"details": "Manual operation — owner controls treasury allocations."
					}
				},
				"title": "TimbTreasury",
				"version": 1
			},
			"evm": {
				"assembly": "    /* \"contracts/TimbTreasury.sol\":2502:15631  contract TimbTreasury is Ownable, ReentrancyGuard {... */\n  mstore(0x40, 0xa0)\n    /* \"contracts/TimbTreasury.sol\":5837:6430  constructor(... */\n  callvalue\n  dup1\n  iszero\n  tag_1\n  jumpi\n  0x00\n  dup1\n  revert\ntag_1:\n  pop\n  mload(0x40)\n  sub(codesize, bytecodeSize)\n  dup1\n  bytecodeSize\n  dup4\n  codecopy\n  dup2\n  dup2\n  add\n  0x40\n  mstore\n  dup2\n  add\n  swap1\n  tag_2\n  swap2\n  swap1\n  tag_3\n  jump\t// in\ntag_2:\n    /* \"contracts/TimbTreasury.sol\":5983:5993  msg.sender */\n  caller\n    /* \"@openzeppelin/contracts/access/Ownable.sol\":1297:1298  0 */\n  0x00\n    /* \"@openzeppelin/contracts/access/Ownable.sol\":1273:1299  initialOwner == address(0) */\n  0xffffffffffffffffffffffffffffffffffffffff\n  and\n    /* \"@openzeppelin/contracts/access/Ownable.sol\":1273:1285  initialOwner */\n  dup2\n    /* \"@openzeppelin/contracts/access/Ownable.sol\":1273:1299  initialOwner == address(0) */\n  0xffffffffffffffffffffffffffffffffffffffff\n  and\n  sub\n    /* \"@openzeppelin/contracts/access/Ownable.sol\":1269:1364  if (initialOwner == address(0)) {... */\n  tag_8\n  jumpi\n    /* \"@openzeppelin/contracts/access/Ownable.sol\":1350:1351  0 */\n  0x00\n    /* \"@openzeppelin/contracts/access/Ownable.sol\":1322:1353  OwnableInvalidOwner(address(0)) */\n  mload(0x40)\n  0x1e4fbdf700000000000000000000000000000000000000000000000000000000\n  dup2\n  mstore\n  0x04\n  add\n  tag_9\n  swap2\n  swap1\n  tag_10\n  jump\t// in\ntag_9:\n  mload(0x40)\n  dup1\n  swap2\n  sub\n  swap1\n  revert\n    /* \"@openzeppelin/contracts/access/Ownable.sol\":1269:1364  if (initialOwner == address(0)) {... */\ntag_8:\n    /* \"@openzeppelin/contracts/access/Ownable.sol\":1373:1405  _transferOwnership(initialOwner) */\n  tag_11\n    /* \"@openzeppelin/contracts/access/Ownable.sol\":1392:1404  initialOwner */\n  dup2\n    /* \"@openzeppelin/contracts/access/Ownable.sol\":1373:1391  _transferOwnership */\n  shl(0x20, tag_12)\n    /* \"@openzeppelin/contracts/access/Ownable.sol\":1373:1405  _transferOwnership(initialOwner) */\n  0x20\n  shr\n  jump\t// in\ntag_11:\n    /* \"@openzeppelin/contracts/access/Ownable.sol\":1225:1412  constructor(address initialOwner) {... */\n  pop\n    /* \"@openzeppelin/contracts/utils/ReentrancyGuard.sol\":2365:2366  1 */\n  0x01\n    /* \"@openzeppelin/contracts/utils/ReentrancyGuard.sol\":2539:2585  _reentrancyGuardStorageSlot().getUint256Slot() */\n  tag_14\n    /* \"@openzeppelin/contracts/utils/ReentrancyGuard.sol\":2539:2568  _reentrancyGuardStorageSlot() */\n  tag_15\n    /* \"@openzeppelin/contracts/utils/ReentrancyGuard.sol\":2539:2566  _reentrancyGuardStorageSlot */\n  shl(0x20, tag_16)\n    /* \"@openzeppelin/contracts/utils/ReentrancyGuard.sol\":2539:2568  _reentrancyGuardStorageSlot() */\n  0x20\n  shr\n  jump\t// in\ntag_15:\n    /* \"@openzeppelin/contracts/utils/ReentrancyGuard.sol\":2539:2583  _reentrancyGuardStorageSlot().getUint256Slot */\n  shl(0x20, tag_17)\n    /* \"@openzeppelin/contracts/utils/ReentrancyGuard.sol\":2539:2585  _reentrancyGuardStorageSlot().getUint256Slot() */\n  0x20\n  shr\n  jump\t// in\ntag_14:\n    /* \"@openzeppelin/contracts/utils/ReentrancyGuard.sol\":2539:2591  _reentrancyGuardStorageSlot().getUint256Slot().value */\n  0x00\n  add\n    /* \"@openzeppelin/contracts/utils/ReentrancyGuard.sol\":2539:2605  _reentrancyGuardStorageSlot().getUint256Slot().value = NOT_ENTERED */\n  dup2\n  swap1\n  sstore\n  pop\n    /* \"contracts/TimbTreasury.sol\":6032:6033  0 */\n  0x00\n    /* \"contracts/TimbTreasury.sol\":6009:6034  _timbsToken == address(0) */\n  0xffffffffffffffffffffffffffffffffffffffff\n  and\n    /* \"contracts/TimbTreasury.sol\":6009:6020  _timbsToken */\n  dup5\n    /* \"contracts/TimbTreasury.sol\":6009:6034  _timbsToken == address(0) */\n  0xffffffffffffffffffffffffffffffffffffffff\n  and\n  sub\n    /* \"contracts/TimbTreasury.sol\":6005:6056  if (_timbsToken == address(0)) revert ZeroAddress() */\n  tag_19\n  jumpi\n    /* \"contracts/TimbTreasury.sol\":6043:6056  ZeroAddress() */\n  mload(0x40)\n  0xd92e233d00000000000000000000000000000000000000000000000000000000\n  dup2\n  mstore\n  0x04\n  add\n  mload(0x40)\n  dup1\n  swap2\n  sub\n  swap1\n  revert\n    /* \"contracts/TimbTreasury.sol\":6005:6056  if (_timbsToken == address(0)) revert ZeroAddress() */\ntag_19:\n    /* \"contracts/TimbTreasury.sol\":6105:6116  _timbsToken */\n  dup4\n    /* \"contracts/TimbTreasury.sol\":6067:6117  timbsToken              = ITimbsToken(_timbsToken) */\n  0xffffffffffffffffffffffffffffffffffffffff\n  and\n  0x80\n  dup2\n  0xffffffffffffffffffffffffffffffffffffffff\n  and\n  dup2\n  mstore\n  pop\n  pop\n    /* \"contracts/TimbTreasury.sol\":6153:6165  _timbStaking */\n  dup3\n    /* \"contracts/TimbTreasury.sol\":6127:6138  timbStaking */\n  0x01\n  0x00\n    /* \"contracts/TimbTreasury.sol\":6127:6165  timbStaking             = _timbStaking */\n  0x0100\n  exp\n  dup2\n  sload\n  dup2\n  0xffffffffffffffffffffffffffffffffffffffff\n  mul\n  not\n  and\n  swap1\n  dup4\n  0xffffffffffffffffffffffffffffffffffffffff\n  and\n  mul\n  or\n  swap1\n  sstore\n  pop\n    /* \"contracts/TimbTreasury.sol\":6201:6213  _prizeEscrow */\n  dup2\n    /* \"contracts/TimbTreasury.sol\":6175:6186  prizeEscrow */\n  0x02\n  0x00\n    /* \"contracts/TimbTreasury.sol\":6175:6213  prizeEscrow             = _prizeEscrow */\n  0x0100\n  exp\n  dup2\n  sload\n  dup2\n  0xffffffffffffffffffffffffffffffffffffffff\n  mul\n  not\n  and\n  swap1\n  dup4\n  0xffffffffffffffffffffffffffffffffffffffff\n  and\n  mul\n  or\n  swap1\n  sstore\n  pop\n    /* \"contracts/TimbTreasury.sol\":6249:6262  _timbsEthPair */\n  dup1\n    /* \"contracts/TimbTreasury.sol\":6223:6235  timbsEthPair */\n  0x03\n  0x00\n    /* \"contracts/TimbTreasury.sol\":6223:6262  timbsEthPair            = _timbsEthPair */\n  0x0100\n  exp\n  dup2\n  sload\n  dup2\n  0xffffffffffffffffffffffffffffffffffffffff\n  mul\n  not\n  and\n  swap1\n  dup4\n  0xffffffffffffffffffffffffffffffffffffffff\n  and\n  mul\n  or\n  swap1\n  sstore\n  pop\n    /* \"contracts/TimbTreasury.sol\":6298:6300  50 */\n  0x32\n    /* \"contracts/TimbTreasury.sol\":6272:6288  buybackBurnRatio */\n  0x04\n    /* \"contracts/TimbTreasury.sol\":6272:6300  buybackBurnRatio        = 50 */\n  dup2\n  swap1\n  sstore\n  pop\n    /* \"contracts/TimbTreasury.sol\":6366:6373  30 days */\n  0x278d00\n    /* \"contracts/TimbTreasury.sol\":6338:6363  stakingDistributionPeriod */\n  0x05\n    /* \"contracts/TimbTreasury.sol\":6338:6373  stakingDistributionPeriod = 30 days */\n  dup2\n  swap1\n  sstore\n  pop\n    /* \"contracts/TimbTreasury.sol\":6419:6423  true */\n  0x01\n    /* \"contracts/TimbTreasury.sol\":6384:6404  authorisedFeeSenders */\n  0x06\n    /* \"contracts/TimbTreasury.sol\":6384:6416  authorisedFeeSenders[msg.sender] */\n  0x00\n    /* \"contracts/TimbTreasury.sol\":6405:6415  msg.sender */\n  caller\n    /* \"contracts/TimbTreasury.sol\":6384:6416  authorisedFeeSenders[msg.sender] */\n  0xffffffffffffffffffffffffffffffffffffffff\n  and\n  0xffffffffffffffffffffffffffffffffffffffff\n  and\n  dup2\n  mstore\n  0x20\n  add\n  swap1\n  dup2\n  mstore\n  0x20\n  add\n  0x00\n  keccak256\n  0x00\n    /* \"contracts/TimbTreasury.sol\":6384:6423  authorisedFeeSenders[msg.sender] = true */\n  0x0100\n  exp\n  dup2\n  sload\n  dup2\n  0xff\n  mul\n  not\n  and\n  swap1\n  dup4\n  iszero\n  iszero\n  mul\n  or\n  swap1\n  sstore\n  pop\n    /* \"contracts/TimbTreasury.sol\":5837:6430  constructor(... */\n  pop\n  pop\n  pop\n  pop\n    /* \"contracts/TimbTreasury.sol\":2502:15631  contract TimbTreasury is Ownable, ReentrancyGuard {... */\n  jump(tag_20)\n    /* \"@openzeppelin/contracts/access/Ownable.sol\":2912:3099  function _transferOwnership(address newOwner) internal virtual {... */\ntag_12:\n    /* \"@openzeppelin/contracts/access/Ownable.sol\":2985:3001  address oldOwner */\n  0x00\n    /* \"@openzeppelin/contracts/access/Ownable.sol\":3004:3010  _owner */\n  dup1\n  0x00\n  swap1\n  sload\n  swap1\n  0x0100\n  exp\n  swap1\n  div\n  0xffffffffffffffffffffffffffffffffffffffff\n  and\n    /* \"@openzeppelin/contracts/access/Ownable.sol\":2985:3010  address oldOwner = _owner */\n  swap1\n  pop\n    /* \"@openzeppelin/contracts/access/Ownable.sol\":3029:3037  newOwner */\n  dup2\n    /* \"@openzeppelin/contracts/access/Ownable.sol\":3020:3026  _owner */\n  0x00\n  dup1\n    /* \"@openzeppelin/contracts/access/Ownable.sol\":3020:3037  _owner = newOwner */\n  0x0100\n  exp\n  dup2\n  sload\n  dup2\n  0xffffffffffffffffffffffffffffffffffffffff\n  mul\n  not\n  and\n  swap1\n  dup4\n  0xffffffffffffffffffffffffffffffffffffffff\n  and\n  mul\n  or\n  swap1\n  sstore\n  pop\n    /* \"@openzeppelin/contracts/access/Ownable.sol\":3083:3091  newOwner */\n  dup2\n    /* \"@openzeppelin/contracts/access/Ownable.sol\":3052:3092  OwnershipTransferred(oldOwner, newOwner) */\n  0xffffffffffffffffffffffffffffffffffffffff\n  and\n    /* \"@openzeppelin/contracts/access/Ownable.sol\":3073:3081  oldOwner */\n  dup2\n    /* \"@openzeppelin/contracts/access/Ownable.sol\":3052:3092  OwnershipTransferred(oldOwner, newOwner) */\n  0xffffffffffffffffffffffffffffffffffffffff\n  and\n  0x8be0079c531659141344cd1fd0a4f28419497f9722a3daafe3b4186f6b6457e0\n  mload(0x40)\n  mload(0x40)\n  dup1\n  swap2\n  sub\n  swap1\n  log3\n    /* \"@openzeppelin/contracts/access/Ownable.sol\":2975:3099  {... */\n  pop\n    /* \"@openzeppelin/contracts/access/Ownable.sol\":2912:3099  function _transferOwnership(address newOwner) internal virtual {... */\n  pop\n  jump\t// out\n    /* \"@openzeppelin/contracts/utils/ReentrancyGuard.sol\":4636:4763  function _reentrancyGuardStorageSlot() internal pure virtual returns (bytes32) {... */\ntag_16:\n    /* \"@openzeppelin/contracts/utils/ReentrancyGuard.sol\":4706:4713  bytes32 */\n  0x00\n    /* \"@openzeppelin/contracts/utils/ReentrancyGuard.sol\":1505:1571  0x9b779b17422d0df92223018b32b4d1fa46e071723d6817e2486d003becc55f00 */\n  0x9b779b17422d0df92223018b32b4d1fa46e071723d6817e2486d003becc55f00\n    /* \"@openzeppelin/contracts/utils/ReentrancyGuard.sol\":4732:4756  REENTRANCY_GUARD_STORAGE */\n  0x00\n  shl\n    /* \"@openzeppelin/contracts/utils/ReentrancyGuard.sol\":4725:4756  return REENTRANCY_GUARD_STORAGE */\n  swap1\n  pop\n    /* \"@openzeppelin/contracts/utils/ReentrancyGuard.sol\":4636:4763  function _reentrancyGuardStorageSlot() internal pure virtual returns (bytes32) {... */\n  swap1\n  jump\t// out\n    /* \"@openzeppelin/contracts/utils/StorageSlot.sol\":2679:2842  function getUint256Slot(bytes32 slot) internal pure returns (Uint256Slot storage r) {... */\ntag_17:\n    /* \"@openzeppelin/contracts/utils/StorageSlot.sol\":2740:2761  Uint256Slot storage r */\n  0x00\n    /* \"@openzeppelin/contracts/utils/StorageSlot.sol\":2822:2826  slot */\n  dup2\n    /* \"@openzeppelin/contracts/utils/StorageSlot.sol\":2812:2826  r.slot := slot */\n  swap1\n  pop\n    /* \"@openzeppelin/contracts/utils/StorageSlot.sol\":2679:2842  function getUint256Slot(bytes32 slot) internal pure returns (Uint256Slot storage r) {... */\n  swap2\n  swap1\n  pop\n  jump\t// out\n    /* \"#utility.yul\":88:205   */\ntag_25:\n    /* \"#utility.yul\":197:198   */\n  0x00\n    /* \"#utility.yul\":194:195   */\n  dup1\n    /* \"#utility.yul\":187:199   */\n  revert\n    /* \"#utility.yul\":334:460   */\ntag_27:\n    /* \"#utility.yul\":371:378   */\n  0x00\n    /* \"#utility.yul\":411:453   */\n  0xffffffffffffffffffffffffffffffffffffffff\n    /* \"#utility.yul\":404:409   */\n  dup3\n    /* \"#utility.yul\":400:454   */\n  and\n    /* \"#utility.yul\":389:454   */\n  swap1\n  pop\n    /* \"#utility.yul\":334:460   */\n  swap2\n  swap1\n  pop\n  jump\t// out\n    /* \"#utility.yul\":466:562   */\ntag_28:\n    /* \"#utility.yul\":503:510   */\n  0x00\n    /* \"#utility.yul\":532:556   */\n  tag_38\n    /* \"#utility.yul\":550:555   */\n  dup3\n    /* \"#utility.yul\":532:556   */\n  tag_27\n  jump\t// in\ntag_38:\n    /* \"#utility.yul\":521:556   */\n  swap1\n  pop\n    /* \"#utility.yul\":466:562   */\n  swap2\n  swap1\n  pop\n  jump\t// out\n    /* \"#utility.yul\":568:690   */\ntag_29:\n    /* \"#utility.yul\":641:665   */\n  tag_40\n    /* \"#utility.yul\":659:664   */\n  dup2\n    /* \"#utility.yul\":641:665   */\n  tag_28\n  jump\t// in\ntag_40:\n    /* \"#utility.yul\":634:639   */\n  dup2\n    /* \"#utility.yul\":631:666   */\n  eq\n    /* \"#utility.yul\":621:684   */\n  tag_41\n  jumpi\n    /* \"#utility.yul\":680:681   */\n  0x00\n    /* \"#utility.yul\":677:678   */\n  dup1\n    /* \"#utility.yul\":670:682   */\n  revert\n    /* \"#utility.yul\":621:684   */\ntag_41:\n    /* \"#utility.yul\":568:690   */\n  pop\n  jump\t// out\n    /* \"#utility.yul\":696:839   */\ntag_30:\n    /* \"#utility.yul\":753:758   */\n  0x00\n    /* \"#utility.yul\":784:790   */\n  dup2\n    /* \"#utility.yul\":778:791   */\n  mload\n    /* \"#utility.yul\":769:791   */\n  swap1\n  pop\n    /* \"#utility.yul\":800:833   */\n  tag_43\n    /* \"#utility.yul\":827:832   */\n  dup2\n    /* \"#utility.yul\":800:833   */\n  tag_29\n  jump\t// in\ntag_43:\n    /* \"#utility.yul\":696:839   */\n  swap3\n  swap2\n  pop\n  pop\n  jump\t// out\n    /* \"#utility.yul\":845:1665   */\ntag_3:\n    /* \"#utility.yul\":942:948   */\n  0x00\n    /* \"#utility.yul\":950:956   */\n  dup1\n    /* \"#utility.yul\":958:964   */\n  0x00\n    /* \"#utility.yul\":966:972   */\n  dup1\n    /* \"#utility.yul\":1015:1018   */\n  0x80\n    /* \"#utility.yul\":1003:1012   */\n  dup6\n    /* \"#utility.yul\":994:1001   */\n  dup8\n    /* \"#utility.yul\":990:1013   */\n  sub\n    /* \"#utility.yul\":986:1019   */\n  slt\n    /* \"#utility.yul\":983:1103   */\n  iszero\n  tag_45\n  jumpi\n    /* \"#utility.yul\":1022:1101   */\n  tag_46\n  tag_25\n  jump\t// in\ntag_46:\n    /* \"#utility.yul\":983:1103   */\ntag_45:\n    /* \"#utility.yul\":1142:1143   */\n  0x00\n    /* \"#utility.yul\":1167:1231   */\n  tag_47\n    /* \"#utility.yul\":1223:1230   */\n  dup8\n    /* \"#utility.yul\":1214:1220   */\n  dup3\n    /* \"#utility.yul\":1203:1212   */\n  dup9\n    /* \"#utility.yul\":1199:1221   */\n  add\n    /* \"#utility.yul\":1167:1231   */\n  tag_30\n  jump\t// in\ntag_47:\n    /* \"#utility.yul\":1157:1231   */\n  swap5\n  pop\n    /* \"#utility.yul\":1113:1241   */\n  pop\n    /* \"#utility.yul\":1280:1282   */\n  0x20\n    /* \"#utility.yul\":1306:1370   */\n  tag_48\n    /* \"#utility.yul\":1362:1369   */\n  dup8\n    /* \"#utility.yul\":1353:1359   */\n  dup3\n    /* \"#utility.yul\":1342:1351   */\n  dup9\n    /* \"#utility.yul\":1338:1360   */\n  add\n    /* \"#utility.yul\":1306:1370   */\n  tag_30\n  jump\t// in\ntag_48:\n    /* \"#utility.yul\":1296:1370   */\n  swap4\n  pop\n    /* \"#utility.yul\":1251:1380   */\n  pop\n    /* \"#utility.yul\":1419:1421   */\n  0x40\n    /* \"#utility.yul\":1445:1509   */\n  tag_49\n    /* \"#utility.yul\":1501:1508   */\n  dup8\n    /* \"#utility.yul\":1492:1498   */\n  dup3\n    /* \"#utility.yul\":1481:1490   */\n  dup9\n    /* \"#utility.yul\":1477:1499   */\n  add\n    /* \"#utility.yul\":1445:1509   */\n  tag_30\n  jump\t// in\ntag_49:\n    /* \"#utility.yul\":1435:1509   */\n  swap3\n  pop\n    /* \"#utility.yul\":1390:1519   */\n  pop\n    /* \"#utility.yul\":1558:1560   */\n  0x60\n    /* \"#utility.yul\":1584:1648   */\n  tag_50\n    /* \"#utility.yul\":1640:1647   */\n  dup8\n    /* \"#utility.yul\":1631:1637   */\n  dup3\n    /* \"#utility.yul\":1620:1629   */\n  dup9\n    /* \"#utility.yul\":1616:1638   */\n  add\n    /* \"#utility.yul\":1584:1648   */\n  tag_30\n  jump\t// in\ntag_50:\n    /* \"#utility.yul\":1574:1648   */\n  swap2\n  pop\n    /* \"#utility.yul\":1529:1658   */\n  pop\n    /* \"#utility.yul\":845:1665   */\n  swap3\n  swap6\n  swap2\n  swap5\n  pop\n  swap3\n  pop\n  jump\t// out\n    /* \"#utility.yul\":1671:1789   */\ntag_31:\n    /* \"#utility.yul\":1758:1782   */\n  tag_52\n    /* \"#utility.yul\":1776:1781   */\n  dup2\n    /* \"#utility.yul\":1758:1782   */\n  tag_28\n  jump\t// in\ntag_52:\n    /* \"#utility.yul\":1753:1756   */\n  dup3\n    /* \"#utility.yul\":1746:1783   */\n  mstore\n    /* \"#utility.yul\":1671:1789   */\n  pop\n  pop\n  jump\t// out\n    /* \"#utility.yul\":1795:2017   */\ntag_10:\n    /* \"#utility.yul\":1888:1892   */\n  0x00\n    /* \"#utility.yul\":1926:1928   */\n  0x20\n    /* \"#utility.yul\":1915:1924   */\n  dup3\n    /* \"#utility.yul\":1911:1929   */\n  add\n    /* \"#utility.yul\":1903:1929   */\n  swap1\n  pop\n    /* \"#utility.yul\":1939:2010   */\n  tag_54\n    /* \"#utility.yul\":2007:2008   */\n  0x00\n    /* \"#utility.yul\":1996:2005   */\n  dup4\n    /* \"#utility.yul\":1992:2009   */\n  add\n    /* \"#utility.yul\":1983:1989   */\n  dup5\n    /* \"#utility.yul\":1939:2010   */\n  tag_31\n  jump\t// in\ntag_54:\n    /* \"#utility.yul\":1795:2017   */\n  swap3\n  swap2\n  pop\n  pop\n  jump\t// out\n    /* \"contracts/TimbTreasury.sol\":2502:15631  contract TimbTreasury is Ownable, ReentrancyGuard {... */\ntag_20:\n  mload(0x80)\n  codecopy(0x00, dataOffset(sub_0), dataSize(sub_0))\n  0x00\n  assignImmutable(\"0x753005bd0bd6e20e7acd0dd8275cf856a18a272384014dc1cce463f3c48513ee\")\n  return(0x00, dataSize(sub_0))\nstop\n\nsub_0: assembly {\n        /* \"contracts/TimbTreasury.sol\":2502:15631  contract TimbTreasury is Ownable, ReentrancyGuard {... */\n      mstore(0x40, 0x80)\n      jumpi(tag_1, lt(calldatasize, 0x04))\n      shr(0xe0, calldataload(0x00))\n      dup1\n      0x8bdcf669\n      gt\n      tag_31\n      jumpi\n      dup1\n      0xb9e4355a\n      gt\n      tag_32\n      jumpi\n      dup1\n      0xe90900af\n      gt\n      tag_33\n      jumpi\n      dup1\n      0xe90900af\n      eq\n      tag_27\n      jumpi\n      dup1\n      0xeb164026\n      eq\n      tag_28\n      jumpi\n      dup1\n      0xf2fde38b\n      eq\n      tag_29\n      jumpi\n      dup1\n      0xf60bb720\n      eq\n      tag_30\n      jumpi\n      jump(tag_2)\n    tag_33:\n      dup1\n      0xb9e4355a\n      eq\n      tag_24\n      jumpi\n      dup1\n      0xc59d4847\n      eq\n      tag_25\n      jumpi\n      dup1\n      0xd61b4497\n      eq\n      tag_26\n      jumpi\n      jump(tag_2)\n    tag_32:\n      dup1\n      0x97975c75\n      gt\n      tag_34\n      jumpi\n      dup1\n      0x97975c75\n      eq\n      tag_20\n      jumpi\n      dup1\n      0x9fbaf3de\n      eq\n      tag_21\n      jumpi\n      dup1\n      0x9fe65f19\n      eq\n      tag_22\n      jumpi\n      dup1\n      0xad8944da\n      eq\n      tag_23\n      jumpi\n      jump(tag_2)\n    tag_34:\n      dup1\n      0x8bdcf669\n      eq\n      tag_17\n      jumpi\n      dup1\n      0x8da5cb5b\n      eq\n      tag_18\n      jumpi\n      dup1\n      0x926b7189\n      eq\n      tag_19\n      jumpi\n      jump(tag_2)\n    tag_31:\n      dup1\n      0x3c3fc552\n      gt\n      tag_35\n      jumpi\n      dup1\n      0x5f303f1c\n      gt\n      tag_36\n      jumpi\n      dup1\n      0x5f303f1c\n      eq\n      tag_13\n      jumpi\n      dup1\n      0x715018a6\n      eq\n      tag_14\n      jumpi\n      dup1\n      0x85654e9a\n      eq\n      tag_15\n      jumpi\n      dup1\n      0x86507218\n      eq\n      tag_16\n      jumpi\n      jump(tag_2)\n    tag_36:\n      dup1\n      0x3c3fc552\n      eq\n      tag_10\n      jumpi\n      dup1\n      0x4e6630b0\n      eq\n      tag_11\n      jumpi\n      dup1\n      0x5a778c0f\n      eq\n      tag_12\n      jumpi\n      jump(tag_2)\n    tag_35:\n      dup1\n      0x23f49b92\n      gt\n      tag_37\n      jumpi\n      dup1\n      0x23f49b92\n      eq\n      tag_6\n      jumpi\n      dup1\n      0x2cb97183\n      eq\n      tag_7\n      jumpi\n      dup1\n      0x330ac98d\n      eq\n      tag_8\n      jumpi\n      dup1\n      0x34e908a7\n      eq\n      tag_9\n      jumpi\n      jump(tag_2)\n    tag_37:\n      dup1\n      0x0e31648f\n      eq\n      tag_3\n      jumpi\n      dup1\n      0x175ed4ba\n      eq\n      tag_4\n      jumpi\n      dup1\n      0x1a3b8e8c\n      eq\n      tag_5\n      jumpi\n      jump(tag_2)\n    tag_1:\n      jumpi(tag_2, calldatasize)\n        /* \"contracts/TimbTreasury.sol\":15511:15512  0 */\n      0x00\n        /* \"contracts/TimbTreasury.sol\":15499:15508  msg.value */\n      callvalue\n        /* \"contracts/TimbTreasury.sol\":15499:15512  msg.value > 0 */\n      gt\n        /* \"contracts/TimbTreasury.sol\":15495:15623  if (msg.value > 0) {... */\n      iszero\n      tag_40\n      jumpi\n        /* \"contracts/TimbTreasury.sol\":15549:15558  msg.value */\n      callvalue\n        /* \"contracts/TimbTreasury.sol\":15528:15545  totalFeesReceived */\n      0x07\n      0x00\n        /* \"contracts/TimbTreasury.sol\":15528:15558  totalFeesReceived += msg.value */\n      dup3\n      dup3\n      sload\n      tag_41\n      swap2\n      swap1\n      tag_42\n      jump\t// in\n    tag_41:\n      swap3\n      pop\n      pop\n      dup2\n      swap1\n      sstore\n      pop\n        /* \"contracts/TimbTreasury.sol\":15590:15600  msg.sender */\n      caller\n        /* \"contracts/TimbTreasury.sol\":15577:15612  FeesReceived(msg.sender, msg.value) */\n      0xffffffffffffffffffffffffffffffffffffffff\n      and\n      0x2ccfc58c2cef4ee590b5f16be0548cc54afc12e1c66a67b362b7d640fd16bb2d\n        /* \"contracts/TimbTreasury.sol\":15602:15611  msg.value */\n      callvalue\n        /* \"contracts/TimbTreasury.sol\":15577:15612  FeesReceived(msg.sender, msg.value) */\n      mload(0x40)\n      tag_43\n      swap2\n      swap1\n      tag_44\n      jump\t// in\n    tag_43:\n      mload(0x40)\n      dup1\n      swap2\n      sub\n      swap1\n      log2\n        /* \"contracts/TimbTreasury.sol\":15495:15623  if (msg.value > 0) {... */\n    tag_40:\n        /* \"contracts/TimbTreasury.sol\":2502:15631  contract TimbTreasury is Ownable, ReentrancyGuard {... */\n      stop\n    tag_2:\n      0x00\n      dup1\n      revert\n        /* \"contracts/TimbTreasury.sol\":2851:2890  ITimbsToken public immutable timbsToken */\n    tag_3:\n      callvalue\n      dup1\n      iszero\n      tag_45\n      jumpi\n      0x00\n      dup1\n      revert\n    tag_45:\n      pop\n      tag_46\n      tag_47\n      jump\t// in\n    tag_46:\n      mload(0x40)\n      tag_48\n      swap2\n      swap1\n      tag_49\n      jump\t// in\n    tag_48:\n      mload(0x40)\n      dup1\n      swap2\n      sub\n      swap1\n      return\n        /* \"contracts/TimbTreasury.sol\":3555:3607  mapping(address => bool) public authorisedFeeSenders */\n    tag_4:\n      callvalue\n      dup1\n      iszero\n      tag_50\n      jumpi\n      0x00\n      dup1\n      revert\n    tag_50:\n      pop\n      tag_51\n      0x04\n      dup1\n      calldatasize\n      sub\n      dup2\n      add\n      swap1\n      tag_52\n      swap2\n      swap1\n      tag_53\n      jump\t// in\n    tag_52:\n      tag_54\n      jump\t// in\n    tag_51:\n      mload(0x40)\n      tag_55\n      swap2\n      swap1\n      tag_56\n      jump\t// in\n    tag_55:\n      mload(0x40)\n      dup1\n      swap2\n      sub\n      swap1\n      return\n        /* \"contracts/TimbTreasury.sol\":3066:3092  address public prizeEscrow */\n    tag_5:\n      callvalue\n      dup1\n      iszero\n      tag_57\n      jumpi\n      0x00\n      dup1\n      revert\n    tag_57:\n      pop\n      tag_58\n      tag_59\n      jump\t// in\n    tag_58:\n      mload(0x40)\n      tag_60\n      swap2\n      swap1\n      tag_61\n      jump\t// in\n    tag_60:\n      mload(0x40)\n      dup1\n      swap2\n      sub\n      swap1\n      return\n        /* \"contracts/TimbTreasury.sol\":13767:13947  function setTimbsEthPair(address _pair) external onlyOwner {... */\n    tag_6:\n      callvalue\n      dup1\n      iszero\n      tag_62\n      jumpi\n      0x00\n      dup1\n      revert\n    tag_62:\n      pop\n      tag_63\n      0x04\n      dup1\n      calldatasize\n      sub\n      dup2\n      add\n      swap1\n      tag_64\n      swap2\n      swap1\n      tag_53\n      jump\t// in\n    tag_64:\n      tag_65\n      jump\t// in\n    tag_63:\n      stop\n        /* \"contracts/TimbTreasury.sol\":12335:12835  function withdrawOperational(address to, uint256 amount)... */\n    tag_7:\n      callvalue\n      dup1\n      iszero\n      tag_66\n      jumpi\n      0x00\n      dup1\n      revert\n    tag_66:\n      pop\n      tag_67\n      0x04\n      dup1\n      calldatasize\n      sub\n      dup2\n      add\n      swap1\n      tag_68\n      swap2\n      swap1\n      tag_69\n      jump\t// in\n    tag_68:\n      tag_70\n      jump\t// in\n    tag_67:\n      stop\n        /* \"contracts/TimbTreasury.sol\":11563:12176  function distributeToStaking(uint256 timbsAmount, uint256 duration)... */\n    tag_8:\n      callvalue\n      dup1\n      iszero\n      tag_71\n      jumpi\n      0x00\n      dup1\n      revert\n    tag_71:\n      pop\n      tag_72\n      0x04\n      dup1\n      calldatasize\n      sub\n      dup2\n      add\n      swap1\n      tag_73\n      swap2\n      swap1\n      tag_74\n      jump\t// in\n    tag_73:\n      tag_75\n      jump\t// in\n    tag_72:\n      stop\n        /* \"contracts/TimbTreasury.sol\":2975:3001  address public timbStaking */\n    tag_9:\n      callvalue\n      dup1\n      iszero\n      tag_76\n      jumpi\n      0x00\n      dup1\n      revert\n    tag_76:\n      pop\n      tag_77\n      tag_78\n      jump\t// in\n    tag_77:\n      mload(0x40)\n      tag_79\n      swap2\n      swap1\n      tag_61\n      jump\t// in\n    tag_79:\n      mload(0x40)\n      dup1\n      swap2\n      sub\n      swap1\n      return\n        /* \"contracts/TimbTreasury.sol\":3990:4019  uint256 public totalPotFunded */\n    tag_10:\n      callvalue\n      dup1\n      iszero\n      tag_80\n      jumpi\n      0x00\n      dup1\n      revert\n    tag_80:\n      pop\n      tag_81\n      tag_82\n      jump\t// in\n    tag_81:\n      mload(0x40)\n      tag_83\n      swap2\n      swap1\n      tag_44\n      jump\t// in\n    tag_83:\n      mload(0x40)\n      dup1\n      swap2\n      sub\n      swap1\n      return\n        /* \"contracts/TimbTreasury.sol\":14653:14752  function ethBalance() external view returns (uint256) {... */\n    tag_11:\n      callvalue\n      dup1\n      iszero\n      tag_84\n      jumpi\n      0x00\n      dup1\n      revert\n    tag_84:\n      pop\n      tag_85\n      tag_86\n      jump\t// in\n    tag_85:\n      mload(0x40)\n      tag_87\n      swap2\n      swap1\n      tag_44\n      jump\t// in\n    tag_87:\n      mload(0x40)\n      dup1\n      swap2\n      sub\n      swap1\n      return\n        /* \"contracts/TimbTreasury.sol\":3319:3350  uint256 public buybackBurnRatio */\n    tag_12:\n      callvalue\n      dup1\n      iszero\n      tag_88\n      jumpi\n      0x00\n      dup1\n      revert\n    tag_88:\n      pop\n      tag_89\n      tag_90\n      jump\t// in\n    tag_89:\n      mload(0x40)\n      tag_91\n      swap2\n      swap1\n      tag_44\n      jump\t// in\n    tag_91:\n      mload(0x40)\n      dup1\n      swap2\n      sub\n      swap1\n      return\n        /* \"contracts/TimbTreasury.sol\":13568:13761  function setPrizeEscrow(address _escrow) external onlyOwner {... */\n    tag_13:\n      callvalue\n      dup1\n      iszero\n      tag_92\n      jumpi\n      0x00\n      dup1\n      revert\n    tag_92:\n      pop\n      tag_93\n      0x04\n      dup1\n      calldatasize\n      sub\n      dup2\n      add\n      swap1\n      tag_94\n      swap2\n      swap1\n      tag_53\n      jump\t// in\n    tag_94:\n      tag_95\n      jump\t// in\n    tag_93:\n      stop\n        /* \"@openzeppelin/contracts/access/Ownable.sol\":2293:2394  function renounceOwnership() public virtual onlyOwner {... */\n    tag_14:\n      callvalue\n      dup1\n      iszero\n      tag_96\n      jumpi\n      0x00\n      dup1\n      revert\n    tag_96:\n      pop\n      tag_97\n      tag_98\n      jump\t// in\n    tag_97:\n      stop\n        /* \"contracts/TimbTreasury.sol\":13953:14126  function setStakingDistributionPeriod(uint256 _period) external onlyOwner {... */\n    tag_15:\n      callvalue\n      dup1\n      iszero\n      tag_99\n      jumpi\n      0x00\n      dup1\n      revert\n    tag_99:\n      pop\n      tag_100\n      0x04\n      dup1\n      calldatasize\n      sub\n      dup2\n      add\n      swap1\n      tag_101\n      swap2\n      swap1\n      tag_102\n      jump\t// in\n    tag_101:\n      tag_103\n      jump\t// in\n    tag_100:\n      stop\n        /* \"contracts/TimbTreasury.sol\":3166:3193  address public timbsEthPair */\n    tag_16:\n      callvalue\n      dup1\n      iszero\n      tag_104\n      jumpi\n      0x00\n      dup1\n      revert\n    tag_104:\n      pop\n      tag_105\n      tag_106\n      jump\t// in\n    tag_105:\n      mload(0x40)\n      tag_107\n      swap2\n      swap1\n      tag_61\n      jump\t// in\n    tag_107:\n      mload(0x40)\n      dup1\n      swap2\n      sub\n      swap1\n      return\n        /* \"contracts/TimbTreasury.sol\":3777:3808  uint256 public totalTimbsBurned */\n    tag_17:\n      callvalue\n      dup1\n      iszero\n      tag_108\n      jumpi\n      0x00\n      dup1\n      revert\n    tag_108:\n      pop\n      tag_109\n      tag_110\n      jump\t// in\n    tag_109:\n      mload(0x40)\n      tag_111\n      swap2\n      swap1\n      tag_44\n      jump\t// in\n    tag_111:\n      mload(0x40)\n      dup1\n      swap2\n      sub\n      swap1\n      return\n        /* \"@openzeppelin/contracts/access/Ownable.sol\":1638:1723  function owner() public view virtual returns (address) {... */\n    tag_18:\n      callvalue\n      dup1\n      iszero\n      tag_112\n      jumpi\n      0x00\n      dup1\n      revert\n    tag_112:\n      pop\n      tag_113\n      tag_114\n      jump\t// in\n    tag_113:\n      mload(0x40)\n      tag_115\n      swap2\n      swap1\n      tag_61\n      jump\t// in\n    tag_115:\n      mload(0x40)\n      dup1\n      swap2\n      sub\n      swap1\n      return\n        /* \"contracts/TimbTreasury.sol\":3434:3474  uint256 public stakingDistributionPeriod */\n    tag_19:\n      callvalue\n      dup1\n      iszero\n      tag_116\n      jumpi\n      0x00\n      dup1\n      revert\n    tag_116:\n      pop\n      tag_117\n      tag_118\n      jump\t// in\n    tag_117:\n      mload(0x40)\n      tag_119\n      swap2\n      swap1\n      tag_44\n      jump\t// in\n    tag_119:\n      mload(0x40)\n      dup1\n      swap2\n      sub\n      swap1\n      return\n        /* \"contracts/TimbTreasury.sol\":7600:10465  function executeBuyback(uint256 ethAmount, uint256 minTimbsOut)... */\n    tag_20:\n      callvalue\n      dup1\n      iszero\n      tag_120\n      jumpi\n      0x00\n      dup1\n      revert\n    tag_120:\n      pop\n      tag_121\n      0x04\n      dup1\n      calldatasize\n      sub\n      dup2\n      add\n      swap1\n      tag_122\n      swap2\n      swap1\n      tag_74\n      jump\t// in\n    tag_122:\n      tag_123\n      jump\t// in\n    tag_121:\n      stop\n        /* \"contracts/TimbTreasury.sol\":3678:3710  uint256 public totalFeesReceived */\n    tag_21:\n      callvalue\n      dup1\n      iszero\n      tag_124\n      jumpi\n      0x00\n      dup1\n      revert\n    tag_124:\n      pop\n      tag_125\n      tag_126\n      jump\t// in\n    tag_125:\n      mload(0x40)\n      tag_127\n      swap2\n      swap1\n      tag_44\n      jump\t// in\n    tag_127:\n      mload(0x40)\n      dup1\n      swap2\n      sub\n      swap1\n      return\n        /* \"contracts/TimbTreasury.sol\":13369:13562  function setTimbStaking(address _staking) external onlyOwner {... */\n    tag_22:\n      callvalue\n      dup1\n      iszero\n      tag_128\n      jumpi\n      0x00\n      dup1\n      revert\n    tag_128:\n      pop\n      tag_129\n      0x04\n      dup1\n      calldatasize\n      sub\n      dup2\n      add\n      swap1\n      tag_130\n      swap2\n      swap1\n      tag_53\n      jump\t// in\n    tag_130:\n      tag_131\n      jump\t// in\n    tag_129:\n      stop\n        /* \"contracts/TimbTreasury.sol\":14132:14367  function setFeeSender(address sender, bool authorised) external onlyOwner {... */\n    tag_23:\n      callvalue\n      dup1\n      iszero\n      tag_132\n      jumpi\n      0x00\n      dup1\n      revert\n    tag_132:\n      pop\n      tag_133\n      0x04\n      dup1\n      calldatasize\n      sub\n      dup2\n      add\n      swap1\n      tag_134\n      swap2\n      swap1\n      tag_135\n      jump\t// in\n    tag_134:\n      tag_136\n      jump\t// in\n    tag_133:\n      stop\n        /* \"contracts/TimbTreasury.sol\":13160:13363  function setBuybackBurnRatio(uint256 _ratio) external onlyOwner {... */\n    tag_24:\n      callvalue\n      dup1\n      iszero\n      tag_137\n      jumpi\n      0x00\n      dup1\n      revert\n    tag_137:\n      pop\n      tag_138\n      0x04\n      dup1\n      calldatasize\n      sub\n      dup2\n      add\n      swap1\n      tag_139\n      swap2\n      swap1\n      tag_102\n      jump\t// in\n    tag_139:\n      tag_140\n      jump\t// in\n    tag_138:\n      stop\n        /* \"contracts/TimbTreasury.sol\":15006:15381  function getStats()... */\n    tag_25:\n      callvalue\n      dup1\n      iszero\n      tag_141\n      jumpi\n      0x00\n      dup1\n      revert\n    tag_141:\n      pop\n      tag_142\n      tag_143\n      jump\t// in\n    tag_142:\n      mload(0x40)\n      tag_144\n      swap5\n      swap4\n      swap3\n      swap2\n      swap1\n      tag_145\n      jump\t// in\n    tag_144:\n      mload(0x40)\n      dup1\n      swap2\n      sub\n      swap1\n      return\n        /* \"contracts/TimbTreasury.sol\":14821:14936  function timbsBalance() external view returns (uint256) {... */\n    tag_26:\n      callvalue\n      dup1\n      iszero\n      tag_146\n      jumpi\n      0x00\n      dup1\n      revert\n    tag_146:\n      pop\n      tag_147\n      tag_148\n      jump\t// in\n    tag_147:\n      mload(0x40)\n      tag_149\n      swap2\n      swap1\n      tag_44\n      jump\t// in\n    tag_149:\n      mload(0x40)\n      dup1\n      swap2\n      sub\n      swap1\n      return\n        /* \"contracts/TimbTreasury.sol\":3891:3927  uint256 public totalTimbsDistributed */\n    tag_27:\n      callvalue\n      dup1\n      iszero\n      tag_150\n      jumpi\n      0x00\n      dup1\n      revert\n    tag_150:\n      pop\n      tag_151\n      tag_152\n      jump\t// in\n    tag_151:\n      mload(0x40)\n      tag_153\n      swap2\n      swap1\n      tag_44\n      jump\t// in\n    tag_153:\n      mload(0x40)\n      dup1\n      swap2\n      sub\n      swap1\n      return\n        /* \"contracts/TimbTreasury.sol\":10805:11274  function distributeToPot(uint256 amount)... */\n    tag_28:\n      callvalue\n      dup1\n      iszero\n      tag_154\n      jumpi\n      0x00\n      dup1\n      revert\n    tag_154:\n      pop\n      tag_155\n      0x04\n      dup1\n      calldatasize\n      sub\n      dup2\n      add\n      swap1\n      tag_156\n      swap2\n      swap1\n      tag_102\n      jump\t// in\n    tag_156:\n      tag_157\n      jump\t// in\n    tag_155:\n      stop\n        /* \"@openzeppelin/contracts/access/Ownable.sol\":2543:2758  function transferOwnership(address newOwner) public virtual onlyOwner {... */\n    tag_29:\n      callvalue\n      dup1\n      iszero\n      tag_158\n      jumpi\n      0x00\n      dup1\n      revert\n    tag_158:\n      pop\n      tag_159\n      0x04\n      dup1\n      calldatasize\n      sub\n      dup2\n      add\n      swap1\n      tag_160\n      swap2\n      swap1\n      tag_53\n      jump\t// in\n    tag_160:\n      tag_161\n      jump\t// in\n    tag_159:\n      stop\n        /* \"contracts/TimbTreasury.sol\":6818:7004  function receiveFees() external payable {... */\n    tag_30:\n      tag_162\n      tag_163\n      jump\t// in\n    tag_162:\n      stop\n        /* \"contracts/TimbTreasury.sol\":2851:2890  ITimbsToken public immutable timbsToken */\n    tag_47:\n      immutable(\"0x753005bd0bd6e20e7acd0dd8275cf856a18a272384014dc1cce463f3c48513ee\")\n      dup2\n      jump\t// out\n        /* \"contracts/TimbTreasury.sol\":3555:3607  mapping(address => bool) public authorisedFeeSenders */\n    tag_54:\n      mstore(0x20, 0x06)\n      dup1\n      0x00\n      mstore\n      keccak256(0x00, 0x40)\n      0x00\n      swap2\n      pop\n      sload\n      swap1\n      0x0100\n      exp\n      swap1\n      div\n      0xff\n      and\n      dup2\n      jump\t// out\n        /* \"contracts/TimbTreasury.sol\":3066:3092  address public prizeEscrow */\n    tag_59:\n      0x02\n      0x00\n      swap1\n      sload\n      swap1\n      0x0100\n      exp\n      swap1\n      div\n      0xffffffffffffffffffffffffffffffffffffffff\n      and\n      dup2\n      jump\t// out\n        /* \"contracts/TimbTreasury.sol\":13767:13947  function setTimbsEthPair(address _pair) external onlyOwner {... */\n    tag_65:\n        /* \"@openzeppelin/contracts/access/Ownable.sol\":1531:1544  _checkOwner() */\n      tag_165\n        /* \"@openzeppelin/contracts/access/Ownable.sol\":1531:1542  _checkOwner */\n      tag_166\n        /* \"@openzeppelin/contracts/access/Ownable.sol\":1531:1544  _checkOwner() */\n      jump\t// in\n    tag_165:\n        /* \"contracts/TimbTreasury.sol\":13857:13858  0 */\n      0x00\n        /* \"contracts/TimbTreasury.sol\":13840:13859  _pair == address(0) */\n      0xffffffffffffffffffffffffffffffffffffffff\n      and\n        /* \"contracts/TimbTreasury.sol\":13840:13845  _pair */\n      dup2\n        /* \"contracts/TimbTreasury.sol\":13840:13859  _pair == address(0) */\n      0xffffffffffffffffffffffffffffffffffffffff\n      and\n      sub\n        /* \"contracts/TimbTreasury.sol\":13836:13881  if (_pair == address(0)) revert ZeroAddress() */\n      tag_168\n      jumpi\n        /* \"contracts/TimbTreasury.sol\":13868:13881  ZeroAddress() */\n      mload(0x40)\n      0xd92e233d00000000000000000000000000000000000000000000000000000000\n      dup2\n      mstore\n      0x04\n      add\n      mload(0x40)\n      dup1\n      swap2\n      sub\n      swap1\n      revert\n        /* \"contracts/TimbTreasury.sol\":13836:13881  if (_pair == address(0)) revert ZeroAddress() */\n    tag_168:\n        /* \"contracts/TimbTreasury.sol\":13906:13911  _pair */\n      dup1\n        /* \"contracts/TimbTreasury.sol\":13891:13903  timbsEthPair */\n      0x03\n      0x00\n        /* \"contracts/TimbTreasury.sol\":13891:13911  timbsEthPair = _pair */\n      0x0100\n      exp\n      dup2\n      sload\n      dup2\n      0xffffffffffffffffffffffffffffffffffffffff\n      mul\n      not\n      and\n      swap1\n      dup4\n      0xffffffffffffffffffffffffffffffffffffffff\n      and\n      mul\n      or\n      swap1\n      sstore\n      pop\n        /* \"contracts/TimbTreasury.sol\":13934:13939  _pair */\n      dup1\n        /* \"contracts/TimbTreasury.sol\":13926:13940  PairSet(_pair) */\n      0xffffffffffffffffffffffffffffffffffffffff\n      and\n      0xc4a4ea6abc08bd7f8df3db8a1c998f19b3e0c348176f93732cd54db1a4b50136\n      mload(0x40)\n      mload(0x40)\n      dup1\n      swap2\n      sub\n      swap1\n      log2\n        /* \"contracts/TimbTreasury.sol\":13767:13947  function setTimbsEthPair(address _pair) external onlyOwner {... */\n      pop\n      jump\t// out\n        /* \"contracts/TimbTreasury.sol\":12335:12835  function withdrawOperational(address to, uint256 amount)... */\n    tag_70:\n        /* \"@openzeppelin/contracts/utils/ReentrancyGuard.sol\":3023:3044  _nonReentrantBefore() */\n      tag_170\n        /* \"@openzeppelin/contracts/utils/ReentrancyGuard.sol\":3023:3042  _nonReentrantBefore */\n      tag_171\n        /* \"@openzeppelin/contracts/utils/ReentrancyGuard.sol\":3023:3044  _nonReentrantBefore() */\n      jump\t// in\n    tag_170:\n        /* \"@openzeppelin/contracts/access/Ownable.sol\":1531:1544  _checkOwner() */\n      tag_173\n        /* \"@openzeppelin/contracts/access/Ownable.sol\":1531:1542  _checkOwner */\n      tag_166\n        /* \"@openzeppelin/contracts/access/Ownable.sol\":1531:1544  _checkOwner() */\n      jump\t// in\n    tag_173:\n        /* \"contracts/TimbTreasury.sol\":12480:12481  0 */\n      0x00\n        /* \"contracts/TimbTreasury.sol\":12466:12482  to == address(0) */\n      0xffffffffffffffffffffffffffffffffffffffff\n      and\n        /* \"contracts/TimbTreasury.sol\":12466:12468  to */\n      dup3\n        /* \"contracts/TimbTreasury.sol\":12466:12482  to == address(0) */\n      0xffffffffffffffffffffffffffffffffffffffff\n      and\n      sub\n        /* \"contracts/TimbTreasury.sol\":12462:12517  if (to == address(0))              revert ZeroAddress() */\n      tag_175\n      jumpi\n        /* \"contracts/TimbTreasury.sol\":12504:12517  ZeroAddress() */\n      mload(0x40)\n      0xd92e233d00000000000000000000000000000000000000000000000000000000\n      dup2\n      mstore\n      0x04\n      add\n      mload(0x40)\n      dup1\n      swap2\n      sub\n      swap1\n      revert\n        /* \"contracts/TimbTreasury.sol\":12462:12517  if (to == address(0))              revert ZeroAddress() */\n    tag_175:\n        /* \"contracts/TimbTreasury.sol\":12541:12542  0 */\n      0x00\n        /* \"contracts/TimbTreasury.sol\":12531:12537  amount */\n      dup2\n        /* \"contracts/TimbTreasury.sol\":12531:12542  amount == 0 */\n      sub\n        /* \"contracts/TimbTreasury.sol\":12527:12581  if (amount == 0)                   revert ZeroAmount() */\n      tag_176\n      jumpi\n        /* \"contracts/TimbTreasury.sol\":12569:12581  ZeroAmount() */\n      mload(0x40)\n      0x1f2a200500000000000000000000000000000000000000000000000000000000\n      dup2\n      mstore\n      0x04\n      add\n      mload(0x40)\n      dup1\n      swap2\n      sub\n      swap1\n      revert\n        /* \"contracts/TimbTreasury.sol\":12527:12581  if (amount == 0)                   revert ZeroAmount() */\n    tag_176:\n        /* \"contracts/TimbTreasury.sol\":12604:12625  address(this).balance */\n      selfbalance\n        /* \"contracts/TimbTreasury.sol\":12595:12601  amount */\n      dup2\n        /* \"contracts/TimbTreasury.sol\":12595:12625  amount > address(this).balance */\n      gt\n        /* \"contracts/TimbTreasury.sol\":12591:12680  if (amount > address(this).balance) revert InsufficientETH(amount, address(this).balance) */\n      iszero\n      tag_177\n      jumpi\n        /* \"contracts/TimbTreasury.sol\":12650:12656  amount */\n      dup1\n        /* \"contracts/TimbTreasury.sol\":12658:12679  address(this).balance */\n      selfbalance\n        /* \"contracts/TimbTreasury.sol\":12634:12680  InsufficientETH(amount, address(this).balance) */\n      mload(0x40)\n      0x1fbeaea000000000000000000000000000000000000000000000000000000000\n      dup2\n      mstore\n      0x04\n      add\n      tag_178\n      swap3\n      swap2\n      swap1\n      tag_179\n      jump\t// in\n    tag_178:\n      mload(0x40)\n      dup1\n      swap2\n      sub\n      swap1\n      revert\n        /* \"contracts/TimbTreasury.sol\":12591:12680  if (amount > address(this).balance) revert InsufficientETH(amount, address(this).balance) */\n    tag_177:\n        /* \"contracts/TimbTreasury.sol\":12692:12699  bool ok */\n      0x00\n        /* \"contracts/TimbTreasury.sol\":12712:12714  to */\n      dup3\n        /* \"contracts/TimbTreasury.sol\":12704:12720  payable(to).call */\n      0xffffffffffffffffffffffffffffffffffffffff\n      and\n        /* \"contracts/TimbTreasury.sol\":12728:12734  amount */\n      dup3\n        /* \"contracts/TimbTreasury.sol\":12704:12739  payable(to).call{value: amount}(\"\") */\n      mload(0x40)\n      tag_180\n      swap1\n      tag_181\n      jump\t// in\n    tag_180:\n      0x00\n      mload(0x40)\n      dup1\n      dup4\n      sub\n      dup2\n      dup6\n      dup8\n      gas\n      call\n      swap3\n      pop\n      pop\n      pop\n      returndatasize\n      dup1\n      0x00\n      dup2\n      eq\n      tag_184\n      jumpi\n      mload(0x40)\n      swap2\n      pop\n      and(add(returndatasize, 0x3f), not(0x1f))\n      dup3\n      add\n      0x40\n      mstore\n      returndatasize\n      dup3\n      mstore\n      returndatasize\n      0x00\n      0x20\n      dup5\n      add\n      returndatacopy\n      jump(tag_183)\n    tag_184:\n      0x60\n      swap2\n      pop\n    tag_183:\n      pop\n        /* \"contracts/TimbTreasury.sol\":12691:12739  (bool ok,) = payable(to).call{value: amount}(\"\") */\n      pop\n      swap1\n      pop\n        /* \"contracts/TimbTreasury.sol\":12754:12756  ok */\n      dup1\n        /* \"contracts/TimbTreasury.sol\":12749:12781  if (!ok) revert TransferFailed() */\n      tag_185\n      jumpi\n        /* \"contracts/TimbTreasury.sol\":12765:12781  TransferFailed() */\n      mload(0x40)\n      0x90b8ec1800000000000000000000000000000000000000000000000000000000\n      dup2\n      mstore\n      0x04\n      add\n      mload(0x40)\n      dup1\n      swap2\n      sub\n      swap1\n      revert\n        /* \"contracts/TimbTreasury.sol\":12749:12781  if (!ok) revert TransferFailed() */\n    tag_185:\n        /* \"contracts/TimbTreasury.sol\":12817:12819  to */\n      dup3\n        /* \"contracts/TimbTreasury.sol\":12797:12828  OperationalWithdraw(to, amount) */\n      0xffffffffffffffffffffffffffffffffffffffff\n      and\n      0x6e67adc6f62cbac95e14fce70ecc9eaf0b0c4093237158f9a4e84fadb06dfe4c\n        /* \"contracts/TimbTreasury.sol\":12821:12827  amount */\n      dup4\n        /* \"contracts/TimbTreasury.sol\":12797:12828  OperationalWithdraw(to, amount) */\n      mload(0x40)\n      tag_186\n      swap2\n      swap1\n      tag_44\n      jump\t// in\n    tag_186:\n      mload(0x40)\n      dup1\n      swap2\n      sub\n      swap1\n      log2\n        /* \"contracts/TimbTreasury.sol\":12452:12835  {... */\n      pop\n        /* \"@openzeppelin/contracts/utils/ReentrancyGuard.sol\":3065:3085  _nonReentrantAfter() */\n      tag_187\n        /* \"@openzeppelin/contracts/utils/ReentrancyGuard.sol\":3065:3083  _nonReentrantAfter */\n      tag_188\n        /* \"@openzeppelin/contracts/utils/ReentrancyGuard.sol\":3065:3085  _nonReentrantAfter() */\n      jump\t// in\n    tag_187:\n        /* \"contracts/TimbTreasury.sol\":12335:12835  function withdrawOperational(address to, uint256 amount)... */\n      pop\n      pop\n      jump\t// out\n        /* \"contracts/TimbTreasury.sol\":11563:12176  function distributeToStaking(uint256 timbsAmount, uint256 duration)... */\n    tag_75:\n        /* \"@openzeppelin/contracts/utils/ReentrancyGuard.sol\":3023:3044  _nonReentrantBefore() */\n      tag_190\n        /* \"@openzeppelin/contracts/utils/ReentrancyGuard.sol\":3023:3042  _nonReentrantBefore */\n      tag_171\n        /* \"@openzeppelin/contracts/utils/ReentrancyGuard.sol\":3023:3044  _nonReentrantBefore() */\n      jump\t// in\n    tag_190:\n        /* \"@openzeppelin/contracts/access/Ownable.sol\":1531:1544  _checkOwner() */\n      tag_192\n        /* \"@openzeppelin/contracts/access/Ownable.sol\":1531:1542  _checkOwner */\n      tag_166\n        /* \"@openzeppelin/contracts/access/Ownable.sol\":1531:1544  _checkOwner() */\n      jump\t// in\n    tag_192:\n        /* \"contracts/TimbTreasury.sol\":11720:11721  0 */\n      0x00\n        /* \"contracts/TimbTreasury.sol\":11705:11716  timbsAmount */\n      dup3\n        /* \"contracts/TimbTreasury.sol\":11705:11721  timbsAmount == 0 */\n      sub\n        /* \"contracts/TimbTreasury.sol\":11701:11749  if (timbsAmount == 0)        revert ZeroAmount() */\n      tag_194\n      jumpi\n        /* \"contracts/TimbTreasury.sol\":11737:11749  ZeroAmount() */\n      mload(0x40)\n      0x1f2a200500000000000000000000000000000000000000000000000000000000\n      dup2\n      mstore\n      0x04\n      add\n      mload(0x40)\n      dup1\n      swap2\n      sub\n      swap1\n      revert\n        /* \"contracts/TimbTreasury.sol\":11701:11749  if (timbsAmount == 0)        revert ZeroAmount() */\n    tag_194:\n        /* \"contracts/TimbTreasury.sol\":11775:11776  0 */\n      0x00\n        /* \"contracts/TimbTreasury.sol\":11763:11771  duration */\n      dup2\n        /* \"contracts/TimbTreasury.sol\":11763:11776  duration == 0 */\n      sub\n        /* \"contracts/TimbTreasury.sol\":11759:11807  if (duration == 0)           revert ZeroAmount() */\n      tag_195\n      jumpi\n        /* \"contracts/TimbTreasury.sol\":11795:11807  ZeroAmount() */\n      mload(0x40)\n      0x1f2a200500000000000000000000000000000000000000000000000000000000\n      dup2\n      mstore\n      0x04\n      add\n      mload(0x40)\n      dup1\n      swap2\n      sub\n      swap1\n      revert\n        /* \"contracts/TimbTreasury.sol\":11759:11807  if (duration == 0)           revert ZeroAmount() */\n    tag_195:\n        /* \"contracts/TimbTreasury.sol\":11844:11845  0 */\n      0x00\n        /* \"contracts/TimbTreasury.sol\":11821:11846  timbStaking == address(0) */\n      0xffffffffffffffffffffffffffffffffffffffff\n      and\n        /* \"contracts/TimbTreasury.sol\":11821:11832  timbStaking */\n      0x01\n      0x00\n      swap1\n      sload\n      swap1\n      0x0100\n      exp\n      swap1\n      div\n      0xffffffffffffffffffffffffffffffffffffffff\n      and\n        /* \"contracts/TimbTreasury.sol\":11821:11846  timbStaking == address(0) */\n      0xffffffffffffffffffffffffffffffffffffffff\n      and\n      sub\n        /* \"contracts/TimbTreasury.sol\":11817:11868  if (timbStaking == address(0)) revert ZeroAddress() */\n      tag_196\n      jumpi\n        /* \"contracts/TimbTreasury.sol\":11855:11868  ZeroAddress() */\n      mload(0x40)\n      0xd92e233d00000000000000000000000000000000000000000000000000000000\n      dup2\n      mstore\n      0x04\n      add\n      mload(0x40)\n      dup1\n      swap2\n      sub\n      swap1\n      revert\n        /* \"contracts/TimbTreasury.sol\":11817:11868  if (timbStaking == address(0)) revert ZeroAddress() */\n    tag_196:\n        /* \"contracts/TimbTreasury.sol\":11879:11890  uint256 bal */\n      0x00\n        /* \"contracts/TimbTreasury.sol\":11893:11903  timbsToken */\n      immutable(\"0x753005bd0bd6e20e7acd0dd8275cf856a18a272384014dc1cce463f3c48513ee\")\n        /* \"contracts/TimbTreasury.sol\":11893:11913  timbsToken.balanceOf */\n      0xffffffffffffffffffffffffffffffffffffffff\n      and\n      0x70a08231\n        /* \"contracts/TimbTreasury.sol\":11922:11926  this */\n      address\n        /* \"contracts/TimbTreasury.sol\":11893:11928  timbsToken.balanceOf(address(this)) */\n      mload(0x40)\n      dup3\n      0xffffffff\n      and\n      0xe0\n      shl\n      dup2\n      mstore\n      0x04\n      add\n      tag_197\n      swap2\n      swap1\n      tag_61\n      jump\t// in\n    tag_197:\n      0x20\n      mload(0x40)\n      dup1\n      dup4\n      sub\n      dup2\n      dup7\n      gas\n      staticcall\n      iszero\n      dup1\n      iszero\n      tag_199\n      jumpi\n      returndatasize\n      0x00\n      dup1\n      returndatacopy\n      revert(0x00, returndatasize)\n    tag_199:\n      pop\n      pop\n      pop\n      pop\n      mload(0x40)\n      returndatasize\n      not(0x1f)\n      0x1f\n      dup3\n      add\n      and\n      dup3\n      add\n      dup1\n      0x40\n      mstore\n      pop\n      dup2\n      add\n      swap1\n      tag_200\n      swap2\n      swap1\n      tag_201\n      jump\t// in\n    tag_200:\n        /* \"contracts/TimbTreasury.sol\":11879:11928  uint256 bal = timbsToken.balanceOf(address(this)) */\n      swap1\n      pop\n        /* \"contracts/TimbTreasury.sol\":11956:11959  bal */\n      dup1\n        /* \"contracts/TimbTreasury.sol\":11942:11953  timbsAmount */\n      dup4\n        /* \"contracts/TimbTreasury.sol\":11942:11959  timbsAmount > bal */\n      gt\n        /* \"contracts/TimbTreasury.sol\":11938:11980  if (timbsAmount > bal) revert ZeroAmount() */\n      iszero\n      tag_202\n      jumpi\n        /* \"contracts/TimbTreasury.sol\":11968:11980  ZeroAmount() */\n      mload(0x40)\n      0x1f2a200500000000000000000000000000000000000000000000000000000000\n      dup2\n      mstore\n      0x04\n      add\n      mload(0x40)\n      dup1\n      swap2\n      sub\n      swap1\n      revert\n        /* \"contracts/TimbTreasury.sol\":11938:11980  if (timbsAmount > bal) revert ZeroAmount() */\n    tag_202:\n        /* \"contracts/TimbTreasury.sol\":11991:12001  timbsToken */\n      immutable(\"0x753005bd0bd6e20e7acd0dd8275cf856a18a272384014dc1cce463f3c48513ee\")\n        /* \"contracts/TimbTreasury.sol\":11991:12014  timbsToken.safeTransfer */\n      0xffffffffffffffffffffffffffffffffffffffff\n      and\n      0x423f6cef\n        /* \"contracts/TimbTreasury.sol\":12015:12026  timbStaking */\n      0x01\n      0x00\n      swap1\n      sload\n      swap1\n      0x0100\n      exp\n      swap1\n      div\n      0xffffffffffffffffffffffffffffffffffffffff\n      and\n        /* \"contracts/TimbTreasury.sol\":12028:12039  timbsAmount */\n      dup6\n        /* \"contracts/TimbTreasury.sol\":11991:12040  timbsToken.safeTransfer(timbStaking, timbsAmount) */\n      mload(0x40)\n      dup4\n      0xffffffff\n      and\n      0xe0\n      shl\n      dup2\n      mstore\n      0x04\n      add\n      tag_203\n      swap3\n      swap2\n      swap1\n      tag_204\n      jump\t// in\n    tag_203:\n      0x00\n      mload(0x40)\n      dup1\n      dup4\n      sub\n      dup2\n      0x00\n      dup8\n      dup1\n      extcodesize\n      iszero\n      dup1\n      iszero\n      tag_205\n      jumpi\n      0x00\n      dup1\n      revert\n    tag_205:\n      pop\n      gas\n      call\n      iszero\n      dup1\n      iszero\n      tag_207\n      jumpi\n      returndatasize\n      0x00\n      dup1\n      returndatacopy\n      revert(0x00, returndatasize)\n    tag_207:\n      pop\n      pop\n      pop\n      pop\n        /* \"contracts/TimbTreasury.sol\":12063:12074  timbStaking */\n      0x01\n      0x00\n      swap1\n      sload\n      swap1\n      0x0100\n      exp\n      swap1\n      div\n      0xffffffffffffffffffffffffffffffffffffffff\n      and\n        /* \"contracts/TimbTreasury.sol\":12050:12094  ITimbStaking(timbStaking).notifyRewardAmount */\n      0xffffffffffffffffffffffffffffffffffffffff\n      and\n      0x246132f9\n        /* \"contracts/TimbTreasury.sol\":12095:12106  timbsAmount */\n      dup5\n        /* \"contracts/TimbTreasury.sol\":12108:12116  duration */\n      dup5\n        /* \"contracts/TimbTreasury.sol\":12050:12117  ITimbStaking(timbStaking).notifyRewardAmount(timbsAmount, duration) */\n      mload(0x40)\n      dup4\n      0xffffffff\n      and\n      0xe0\n      shl\n      dup2\n      mstore\n      0x04\n      add\n      tag_208\n      swap3\n      swap2\n      swap1\n      tag_179\n      jump\t// in\n    tag_208:\n      0x00\n      mload(0x40)\n      dup1\n      dup4\n      sub\n      dup2\n      0x00\n      dup8\n      dup1\n      extcodesize\n      iszero\n      dup1\n      iszero\n      tag_209\n      jumpi\n      0x00\n      dup1\n      revert\n    tag_209:\n      pop\n      gas\n      call\n      iszero\n      dup1\n      iszero\n      tag_211\n      jumpi\n      returndatasize\n      0x00\n      dup1\n      returndatacopy\n      revert(0x00, returndatasize)\n    tag_211:\n      pop\n      pop\n      pop\n      pop\n        /* \"contracts/TimbTreasury.sol\":12133:12169  StakingFunded(timbsAmount, duration) */\n      0x8b7aaffe68a47637f66b06784a531963146073858c3a5ef41fc98bc456d7b64a\n        /* \"contracts/TimbTreasury.sol\":12147:12158  timbsAmount */\n      dup4\n        /* \"contracts/TimbTreasury.sol\":12160:12168  duration */\n      dup4\n        /* \"contracts/TimbTreasury.sol\":12133:12169  StakingFunded(timbsAmount, duration) */\n      mload(0x40)\n      tag_212\n      swap3\n      swap2\n      swap1\n      tag_179\n      jump\t// in\n    tag_212:\n      mload(0x40)\n      dup1\n      swap2\n      sub\n      swap1\n      log1\n        /* \"contracts/TimbTreasury.sol\":11691:12176  {... */\n      pop\n        /* \"@openzeppelin/contracts/utils/ReentrancyGuard.sol\":3065:3085  _nonReentrantAfter() */\n      tag_213\n        /* \"@openzeppelin/contracts/utils/ReentrancyGuard.sol\":3065:3083  _nonReentrantAfter */\n      tag_188\n        /* \"@openzeppelin/contracts/utils/ReentrancyGuard.sol\":3065:3085  _nonReentrantAfter() */\n      jump\t// in\n    tag_213:\n        /* \"contracts/TimbTreasury.sol\":11563:12176  function distributeToStaking(uint256 timbsAmount, uint256 duration)... */\n      pop\n      pop\n      jump\t// out\n        /* \"contracts/TimbTreasury.sol\":2975:3001  address public timbStaking */\n    tag_78:\n      0x01\n      0x00\n      swap1\n      sload\n      swap1\n      0x0100\n      exp\n      swap1\n      div\n      0xffffffffffffffffffffffffffffffffffffffff\n      and\n      dup2\n      jump\t// out\n        /* \"contracts/TimbTreasury.sol\":3990:4019  uint256 public totalPotFunded */\n    tag_82:\n      sload(0x0a)\n      dup2\n      jump\t// out\n        /* \"contracts/TimbTreasury.sol\":14653:14752  function ethBalance() external view returns (uint256) {... */\n    tag_86:\n        /* \"contracts/TimbTreasury.sol\":14698:14705  uint256 */\n      0x00\n        /* \"contracts/TimbTreasury.sol\":14724:14745  address(this).balance */\n      selfbalance\n        /* \"contracts/TimbTreasury.sol\":14717:14745  return address(this).balance */\n      swap1\n      pop\n        /* \"contracts/TimbTreasury.sol\":14653:14752  function ethBalance() external view returns (uint256) {... */\n      swap1\n      jump\t// out\n        /* \"contracts/TimbTreasury.sol\":3319:3350  uint256 public buybackBurnRatio */\n    tag_90:\n      sload(0x04)\n      dup2\n      jump\t// out\n        /* \"contracts/TimbTreasury.sol\":13568:13761  function setPrizeEscrow(address _escrow) external onlyOwner {... */\n    tag_95:\n        /* \"@openzeppelin/contracts/access/Ownable.sol\":1531:1544  _checkOwner() */\n      tag_216\n        /* \"@openzeppelin/contracts/access/Ownable.sol\":1531:1542  _checkOwner */\n      tag_166\n        /* \"@openzeppelin/contracts/access/Ownable.sol\":1531:1544  _checkOwner() */\n      jump\t// in\n    tag_216:\n        /* \"contracts/TimbTreasury.sol\":13661:13662  0 */\n      0x00\n        /* \"contracts/TimbTreasury.sol\":13642:13663  _escrow == address(0) */\n      0xffffffffffffffffffffffffffffffffffffffff\n      and\n        /* \"contracts/TimbTreasury.sol\":13642:13649  _escrow */\n      dup2\n        /* \"contracts/TimbTreasury.sol\":13642:13663  _escrow == address(0) */\n      0xffffffffffffffffffffffffffffffffffffffff\n      and\n      sub\n        /* \"contracts/TimbTreasury.sol\":13638:13685  if (_escrow == address(0)) revert ZeroAddress() */\n      tag_218\n      jumpi\n        /* \"contracts/TimbTreasury.sol\":13672:13685  ZeroAddress() */\n      mload(0x40)\n      0xd92e233d00000000000000000000000000000000000000000000000000000000\n      dup2\n      mstore\n      0x04\n      add\n      mload(0x40)\n      dup1\n      swap2\n      sub\n      swap1\n      revert\n        /* \"contracts/TimbTreasury.sol\":13638:13685  if (_escrow == address(0)) revert ZeroAddress() */\n    tag_218:\n        /* \"contracts/TimbTreasury.sol\":13709:13716  _escrow */\n      dup1\n        /* \"contracts/TimbTreasury.sol\":13695:13706  prizeEscrow */\n      0x02\n      0x00\n        /* \"contracts/TimbTreasury.sol\":13695:13716  prizeEscrow = _escrow */\n      0x0100\n      exp\n      dup2\n      sload\n      dup2\n      0xffffffffffffffffffffffffffffffffffffffff\n      mul\n      not\n      and\n      swap1\n      dup4\n      0xffffffffffffffffffffffffffffffffffffffff\n      and\n      mul\n      or\n      swap1\n      sstore\n      pop\n        /* \"contracts/TimbTreasury.sol\":13746:13753  _escrow */\n      dup1\n        /* \"contracts/TimbTreasury.sol\":13731:13754  PrizeEscrowSet(_escrow) */\n      0xffffffffffffffffffffffffffffffffffffffff\n      and\n      0x1176bb0c626865dd5bb6009a83ff7a7f968d1759188ec01b8befb5bbde338aa0\n      mload(0x40)\n      mload(0x40)\n      dup1\n      swap2\n      sub\n      swap1\n      log2\n        /* \"contracts/TimbTreasury.sol\":13568:13761  function setPrizeEscrow(address _escrow) external onlyOwner {... */\n      pop\n      jump\t// out\n        /* \"@openzeppelin/contracts/access/Ownable.sol\":2293:2394  function renounceOwnership() public virtual onlyOwner {... */\n    tag_98:\n        /* \"@openzeppelin/contracts/access/Ownable.sol\":1531:1544  _checkOwner() */\n      tag_220\n        /* \"@openzeppelin/contracts/access/Ownable.sol\":1531:1542  _checkOwner */\n      tag_166\n        /* \"@openzeppelin/contracts/access/Ownable.sol\":1531:1544  _checkOwner() */\n      jump\t// in\n    tag_220:\n        /* \"@openzeppelin/contracts/access/Ownable.sol\":2357:2387  _transferOwnership(address(0)) */\n      tag_222\n        /* \"@openzeppelin/contracts/access/Ownable.sol\":2384:2385  0 */\n      0x00\n        /* \"@openzeppelin/contracts/access/Ownable.sol\":2357:2375  _transferOwnership */\n      tag_223\n        /* \"@openzeppelin/contracts/access/Ownable.sol\":2357:2387  _transferOwnership(address(0)) */\n      jump\t// in\n    tag_222:\n        /* \"@openzeppelin/contracts/access/Ownable.sol\":2293:2394  function renounceOwnership() public virtual onlyOwner {... */\n      jump\t// out\n        /* \"contracts/TimbTreasury.sol\":13953:14126  function setStakingDistributionPeriod(uint256 _period) external onlyOwner {... */\n    tag_103:\n        /* \"@openzeppelin/contracts/access/Ownable.sol\":1531:1544  _checkOwner() */\n      tag_225\n        /* \"@openzeppelin/contracts/access/Ownable.sol\":1531:1542  _checkOwner */\n      tag_166\n        /* \"@openzeppelin/contracts/access/Ownable.sol\":1531:1544  _checkOwner() */\n      jump\t// in\n    tag_225:\n        /* \"contracts/TimbTreasury.sol\":14052:14053  0 */\n      0x00\n        /* \"contracts/TimbTreasury.sol\":14041:14048  _period */\n      dup2\n        /* \"contracts/TimbTreasury.sol\":14041:14053  _period == 0 */\n      sub\n        /* \"contracts/TimbTreasury.sol\":14037:14074  if (_period == 0) revert ZeroAmount() */\n      tag_227\n      jumpi\n        /* \"contracts/TimbTreasury.sol\":14062:14074  ZeroAmount() */\n      mload(0x40)\n      0x1f2a200500000000000000000000000000000000000000000000000000000000\n      dup2\n      mstore\n      0x04\n      add\n      mload(0x40)\n      dup1\n      swap2\n      sub\n      swap1\n      revert\n        /* \"contracts/TimbTreasury.sol\":14037:14074  if (_period == 0) revert ZeroAmount() */\n    tag_227:\n        /* \"contracts/TimbTreasury.sol\":14112:14119  _period */\n      dup1\n        /* \"contracts/TimbTreasury.sol\":14084:14109  stakingDistributionPeriod */\n      0x05\n        /* \"contracts/TimbTreasury.sol\":14084:14119  stakingDistributionPeriod = _period */\n      dup2\n      swap1\n      sstore\n      pop\n        /* \"contracts/TimbTreasury.sol\":13953:14126  function setStakingDistributionPeriod(uint256 _period) external onlyOwner {... */\n      pop\n      jump\t// out\n        /* \"contracts/TimbTreasury.sol\":3166:3193  address public timbsEthPair */\n    tag_106:\n      0x03\n      0x00\n      swap1\n      sload\n      swap1\n      0x0100\n      exp\n      swap1\n      div\n      0xffffffffffffffffffffffffffffffffffffffff\n      and\n      dup2\n      jump\t// out\n        /* \"contracts/TimbTreasury.sol\":3777:3808  uint256 public totalTimbsBurned */\n    tag_110:\n      sload(0x08)\n      dup2\n      jump\t// out\n        /* \"@openzeppelin/contracts/access/Ownable.sol\":1638:1723  function owner() public view virtual returns (address) {... */\n    tag_114:\n        /* \"@openzeppelin/contracts/access/Ownable.sol\":1684:1691  address */\n      0x00\n        /* \"@openzeppelin/contracts/access/Ownable.sol\":1710:1716  _owner */\n      dup1\n      0x00\n      swap1\n      sload\n      swap1\n      0x0100\n      exp\n      swap1\n      div\n      0xffffffffffffffffffffffffffffffffffffffff\n      and\n        /* \"@openzeppelin/contracts/access/Ownable.sol\":1703:1716  return _owner */\n      swap1\n      pop\n        /* \"@openzeppelin/contracts/access/Ownable.sol\":1638:1723  function owner() public view virtual returns (address) {... */\n      swap1\n      jump\t// out\n        /* \"contracts/TimbTreasury.sol\":3434:3474  uint256 public stakingDistributionPeriod */\n    tag_118:\n      sload(0x05)\n      dup2\n      jump\t// out\n        /* \"contracts/TimbTreasury.sol\":7600:10465  function executeBuyback(uint256 ethAmount, uint256 minTimbsOut)... */\n    tag_123:\n        /* \"@openzeppelin/contracts/utils/ReentrancyGuard.sol\":3023:3044  _nonReentrantBefore() */\n      tag_230\n        /* \"@openzeppelin/contracts/utils/ReentrancyGuard.sol\":3023:3042  _nonReentrantBefore */\n      tag_171\n        /* \"@openzeppelin/contracts/utils/ReentrancyGuard.sol\":3023:3044  _nonReentrantBefore() */\n      jump\t// in\n    tag_230:\n        /* \"@openzeppelin/contracts/access/Ownable.sol\":1531:1544  _checkOwner() */\n      tag_232\n        /* \"@openzeppelin/contracts/access/Ownable.sol\":1531:1542  _checkOwner */\n      tag_166\n        /* \"@openzeppelin/contracts/access/Ownable.sol\":1531:1544  _checkOwner() */\n      jump\t// in\n    tag_232:\n        /* \"contracts/TimbTreasury.sol\":7751:7752  0 */\n      0x00\n        /* \"contracts/TimbTreasury.sol\":7738:7747  ethAmount */\n      dup3\n        /* \"contracts/TimbTreasury.sol\":7738:7752  ethAmount == 0 */\n      sub\n        /* \"contracts/TimbTreasury.sol\":7734:7796  if (ethAmount == 0)                        revert ZeroAmount() */\n      tag_234\n      jumpi\n        /* \"contracts/TimbTreasury.sol\":7784:7796  ZeroAmount() */\n      mload(0x40)\n      0x1f2a200500000000000000000000000000000000000000000000000000000000\n      dup2\n      mstore\n      0x04\n      add\n      mload(0x40)\n      dup1\n      swap2\n      sub\n      swap1\n      revert\n        /* \"contracts/TimbTreasury.sol\":7734:7796  if (ethAmount == 0)                        revert ZeroAmount() */\n    tag_234:\n        /* \"contracts/TimbTreasury.sol\":7822:7843  address(this).balance */\n      selfbalance\n        /* \"contracts/TimbTreasury.sol\":7810:7819  ethAmount */\n      dup3\n        /* \"contracts/TimbTreasury.sol\":7810:7843  ethAmount > address(this).balance */\n      gt\n        /* \"contracts/TimbTreasury.sol\":7806:7905  if (ethAmount > address(this).balance)     revert InsufficientETH(ethAmount, address(this).balance) */\n      iszero\n      tag_235\n      jumpi\n        /* \"contracts/TimbTreasury.sol\":7872:7881  ethAmount */\n      dup2\n        /* \"contracts/TimbTreasury.sol\":7883:7904  address(this).balance */\n      selfbalance\n        /* \"contracts/TimbTreasury.sol\":7856:7905  InsufficientETH(ethAmount, address(this).balance) */\n      mload(0x40)\n      0x1fbeaea000000000000000000000000000000000000000000000000000000000\n      dup2\n      mstore\n      0x04\n      add\n      tag_236\n      swap3\n      swap2\n      swap1\n      tag_179\n      jump\t// in\n    tag_236:\n      mload(0x40)\n      dup1\n      swap2\n      sub\n      swap1\n      revert\n        /* \"contracts/TimbTreasury.sol\":7806:7905  if (ethAmount > address(this).balance)     revert InsufficientETH(ethAmount, address(this).balance) */\n    tag_235:\n        /* \"contracts/TimbTreasury.sol\":7943:7944  0 */\n      0x00\n        /* \"contracts/TimbTreasury.sol\":7919:7945  timbsEthPair == address(0) */\n      0xffffffffffffffffffffffffffffffffffffffff\n      and\n        /* \"contracts/TimbTreasury.sol\":7919:7931  timbsEthPair */\n      0x03\n      0x00\n      swap1\n      sload\n      swap1\n      0x0100\n      exp\n      swap1\n      div\n      0xffffffffffffffffffffffffffffffffffffffff\n      and\n        /* \"contracts/TimbTreasury.sol\":7919:7945  timbsEthPair == address(0) */\n      0xffffffffffffffffffffffffffffffffffffffff\n      and\n      sub\n        /* \"contracts/TimbTreasury.sol\":7915:7978  if (timbsEthPair == address(0))            revert ZeroAddress() */\n      tag_237\n      jumpi\n        /* \"contracts/TimbTreasury.sol\":7965:7978  ZeroAddress() */\n      mload(0x40)\n      0xd92e233d00000000000000000000000000000000000000000000000000000000\n      dup2\n      mstore\n      0x04\n      add\n      mload(0x40)\n      dup1\n      swap2\n      sub\n      swap1\n      revert\n        /* \"contracts/TimbTreasury.sol\":7915:7978  if (timbsEthPair == address(0))            revert ZeroAddress() */\n    tag_237:\n        /* \"contracts/TimbTreasury.sol\":8037:8047  uint112 r0 */\n      0x00\n        /* \"contracts/TimbTreasury.sol\":8049:8059  uint112 r1 */\n      dup1\n        /* \"contracts/TimbTreasury.sol\":8078:8090  timbsEthPair */\n      0x03\n      0x00\n      swap1\n      sload\n      swap1\n      0x0100\n      exp\n      swap1\n      div\n      0xffffffffffffffffffffffffffffffffffffffff\n      and\n        /* \"contracts/TimbTreasury.sol\":8064:8103  ITimbSwapPair(timbsEthPair).getReserves */\n      0xffffffffffffffffffffffffffffffffffffffff\n      and\n      0x0902f1ac\n        /* \"contracts/TimbTreasury.sol\":8064:8105  ITimbSwapPair(timbsEthPair).getReserves() */\n      mload(0x40)\n      dup2\n      0xffffffff\n      and\n      0xe0\n      shl\n      dup2\n      mstore\n      0x04\n      add\n      0x60\n      mload(0x40)\n      dup1\n      dup4\n      sub\n      dup2\n      dup7\n      gas\n      staticcall\n      iszero\n      dup1\n      iszero\n      tag_239\n      jumpi\n      returndatasize\n      0x00\n      dup1\n      returndatacopy\n      revert(0x00, returndatasize)\n    tag_239:\n      pop\n      pop\n      pop\n      pop\n      mload(0x40)\n      returndatasize\n      not(0x1f)\n      0x1f\n      dup3\n      add\n      and\n      dup3\n      add\n      dup1\n      0x40\n      mstore\n      pop\n      dup2\n      add\n      swap1\n      tag_240\n      swap2\n      swap1\n      tag_241\n      jump\t// in\n    tag_240:\n        /* \"contracts/TimbTreasury.sol\":8036:8105  (uint112 r0, uint112 r1,) = ITimbSwapPair(timbsEthPair).getReserves() */\n      pop\n      swap2\n      pop\n      swap2\n      pop\n        /* \"contracts/TimbTreasury.sol\":8115:8129  address token0 */\n      0x00\n        /* \"contracts/TimbTreasury.sol\":8146:8158  timbsEthPair */\n      0x03\n      0x00\n      swap1\n      sload\n      swap1\n      0x0100\n      exp\n      swap1\n      div\n      0xffffffffffffffffffffffffffffffffffffffff\n      and\n        /* \"contracts/TimbTreasury.sol\":8132:8166  ITimbSwapPair(timbsEthPair).token0 */\n      0xffffffffffffffffffffffffffffffffffffffff\n      and\n      0x0dfe1681\n        /* \"contracts/TimbTreasury.sol\":8132:8168  ITimbSwapPair(timbsEthPair).token0() */\n      mload(0x40)\n      dup2\n      0xffffffff\n      and\n      0xe0\n      shl\n      dup2\n      mstore\n      0x04\n      add\n      0x20\n      mload(0x40)\n      dup1\n      dup4\n      sub\n      dup2\n      dup7\n      gas\n      staticcall\n      iszero\n      dup1\n      iszero\n      tag_243\n      jumpi\n      returndatasize\n      0x00\n      dup1\n      returndatacopy\n      revert(0x00, returndatasize)\n    tag_243:\n      pop\n      pop\n      pop\n      pop\n      mload(0x40)\n      returndatasize\n      not(0x1f)\n      0x1f\n      dup3\n      add\n      and\n      dup3\n      add\n      dup1\n      0x40\n      mstore\n      pop\n      dup2\n      add\n      swap1\n      tag_244\n      swap2\n      swap1\n      tag_245\n      jump\t// in\n    tag_244:\n        /* \"contracts/TimbTreasury.sol\":8115:8168  address token0 = ITimbSwapPair(timbsEthPair).token0() */\n      swap1\n      pop\n        /* \"contracts/TimbTreasury.sol\":8381:8398  uint256 reserveIn */\n      0x00\n        /* \"contracts/TimbTreasury.sol\":8408:8426  uint256 reserveOut */\n      dup1\n        /* \"contracts/TimbTreasury.sol\":8436:8454  bool timbsIsToken0 */\n      0x00\n        /* \"contracts/TimbTreasury.sol\":8475:8485  timbsToken */\n      immutable(\"0x753005bd0bd6e20e7acd0dd8275cf856a18a272384014dc1cce463f3c48513ee\")\n        /* \"contracts/TimbTreasury.sol\":8457:8486  token0 == address(timbsToken) */\n      0xffffffffffffffffffffffffffffffffffffffff\n      and\n        /* \"contracts/TimbTreasury.sol\":8457:8463  token0 */\n      dup5\n        /* \"contracts/TimbTreasury.sol\":8457:8486  token0 == address(timbsToken) */\n      0xffffffffffffffffffffffffffffffffffffffff\n      and\n      eq\n        /* \"contracts/TimbTreasury.sol\":8436:8486  bool timbsIsToken0 = token0 == address(timbsToken) */\n      swap1\n      pop\n        /* \"contracts/TimbTreasury.sol\":8501:8514  timbsIsToken0 */\n      dup1\n        /* \"contracts/TimbTreasury.sol\":8497:8858  if (timbsIsToken0) {... */\n      iszero\n      tag_246\n      jumpi\n        /* \"contracts/TimbTreasury.sol\":8600:8602  r1 */\n      dup5\n        /* \"contracts/TimbTreasury.sol\":8592:8603  uint256(r1) */\n      0xffffffffffffffffffffffffffff\n      and\n        /* \"contracts/TimbTreasury.sol\":8579:8603  reserveIn  = uint256(r1) */\n      swap3\n      pop\n        /* \"contracts/TimbTreasury.sol\":8653:8655  r0 */\n      dup6\n        /* \"contracts/TimbTreasury.sol\":8645:8656  uint256(r0) */\n      0xffffffffffffffffffffffffffff\n      and\n        /* \"contracts/TimbTreasury.sol\":8632:8656  reserveOut = uint256(r0) */\n      swap2\n      pop\n        /* \"contracts/TimbTreasury.sol\":8497:8858  if (timbsIsToken0) {... */\n      jump(tag_247)\n    tag_246:\n        /* \"contracts/TimbTreasury.sol\":8774:8776  r0 */\n      dup6\n        /* \"contracts/TimbTreasury.sol\":8766:8777  uint256(r0) */\n      0xffffffffffffffffffffffffffff\n      and\n        /* \"contracts/TimbTreasury.sol\":8753:8777  reserveIn  = uint256(r0) */\n      swap3\n      pop\n        /* \"contracts/TimbTreasury.sol\":8827:8829  r1 */\n      dup5\n        /* \"contracts/TimbTreasury.sol\":8819:8830  uint256(r1) */\n      0xffffffffffffffffffffffffffff\n      and\n        /* \"contracts/TimbTreasury.sol\":8806:8830  reserveOut = uint256(r1) */\n      swap2\n      pop\n        /* \"contracts/TimbTreasury.sol\":8497:8858  if (timbsIsToken0) {... */\n    tag_247:\n        /* \"contracts/TimbTreasury.sol\":8913:8936  uint256 amountInWithFee */\n      0x00\n        /* \"contracts/TimbTreasury.sol\":8951:8954  997 */\n      0x03e5\n        /* \"contracts/TimbTreasury.sol\":8939:8948  ethAmount */\n      dup10\n        /* \"contracts/TimbTreasury.sol\":8939:8954  ethAmount * 997 */\n      tag_248\n      swap2\n      swap1\n      tag_249\n      jump\t// in\n    tag_248:\n        /* \"contracts/TimbTreasury.sol\":8913:8954  uint256 amountInWithFee = ethAmount * 997 */\n      swap1\n      pop\n        /* \"contracts/TimbTreasury.sol\":8964:8980  uint256 timbsOut */\n      0x00\n        /* \"contracts/TimbTreasury.sol\":9064:9079  amountInWithFee */\n      dup2\n        /* \"contracts/TimbTreasury.sol\":9056:9061  1_000 */\n      0x03e8\n        /* \"contracts/TimbTreasury.sol\":9044:9053  reserveIn */\n      dup7\n        /* \"contracts/TimbTreasury.sol\":9044:9061  reserveIn * 1_000 */\n      tag_250\n      swap2\n      swap1\n      tag_249\n      jump\t// in\n    tag_250:\n        /* \"contracts/TimbTreasury.sol\":9044:9079  reserveIn * 1_000 + amountInWithFee */\n      tag_251\n      swap2\n      swap1\n      tag_42\n      jump\t// in\n    tag_251:\n        /* \"contracts/TimbTreasury.sol\":9002:9012  reserveOut */\n      dup5\n        /* \"contracts/TimbTreasury.sol\":8984:8999  amountInWithFee */\n      dup4\n        /* \"contracts/TimbTreasury.sol\":8984:9012  amountInWithFee * reserveOut */\n      tag_252\n      swap2\n      swap1\n      tag_249\n      jump\t// in\n    tag_252:\n        /* \"contracts/TimbTreasury.sol\":8983:9080  (amountInWithFee * reserveOut) /... */\n      tag_253\n      swap2\n      swap1\n      tag_254\n      jump\t// in\n    tag_253:\n        /* \"contracts/TimbTreasury.sol\":8964:9080  uint256 timbsOut = (amountInWithFee * reserveOut) /... */\n      swap1\n      pop\n        /* \"contracts/TimbTreasury.sol\":9106:9117  minTimbsOut */\n      dup9\n        /* \"contracts/TimbTreasury.sol\":9095:9103  timbsOut */\n      dup2\n        /* \"contracts/TimbTreasury.sol\":9095:9117  timbsOut < minTimbsOut */\n      lt\n        /* \"contracts/TimbTreasury.sol\":9091:9190  if (timbsOut < minTimbsOut) {... */\n      iszero\n      tag_255\n      jumpi\n        /* \"contracts/TimbTreasury.sol\":9157:9165  timbsOut */\n      dup1\n        /* \"contracts/TimbTreasury.sol\":9167:9178  minTimbsOut */\n      dup10\n        /* \"contracts/TimbTreasury.sol\":9140:9179  SlippageExceeded(timbsOut, minTimbsOut) */\n      mload(0x40)\n      0x71c4efed00000000000000000000000000000000000000000000000000000000\n      dup2\n      mstore\n      0x04\n      add\n      tag_256\n      swap3\n      swap2\n      swap1\n      tag_179\n      jump\t// in\n    tag_256:\n      mload(0x40)\n      dup1\n      swap2\n      sub\n      swap1\n      revert\n        /* \"contracts/TimbTreasury.sol\":9091:9190  if (timbsOut < minTimbsOut) {... */\n    tag_255:\n        /* \"contracts/TimbTreasury.sol\":9245:9254  bool sent */\n      0x00\n        /* \"contracts/TimbTreasury.sol\":9267:9279  timbsEthPair */\n      0x03\n      0x00\n      swap1\n      sload\n      swap1\n      0x0100\n      exp\n      swap1\n      div\n      0xffffffffffffffffffffffffffffffffffffffff\n      and\n        /* \"contracts/TimbTreasury.sol\":9259:9285  payable(timbsEthPair).call */\n      0xffffffffffffffffffffffffffffffffffffffff\n      and\n        /* \"contracts/TimbTreasury.sol\":9293:9302  ethAmount */\n      dup12\n        /* \"contracts/TimbTreasury.sol\":9259:9307  payable(timbsEthPair).call{value: ethAmount}(\"\") */\n      mload(0x40)\n      tag_257\n      swap1\n      tag_181\n      jump\t// in\n    tag_257:\n      0x00\n      mload(0x40)\n      dup1\n      dup4\n      sub\n      dup2\n      dup6\n      dup8\n      gas\n      call\n      swap3\n      pop\n      pop\n      pop\n      returndatasize\n      dup1\n      0x00\n      dup2\n      eq\n      tag_260\n      jumpi\n      mload(0x40)\n      swap2\n      pop\n      and(add(returndatasize, 0x3f), not(0x1f))\n      dup3\n      add\n      0x40\n      mstore\n      returndatasize\n      dup3\n      mstore\n      returndatasize\n      0x00\n      0x20\n      dup5\n      add\n      returndatacopy\n      jump(tag_259)\n    tag_260:\n      0x60\n      swap2\n      pop\n    tag_259:\n      pop\n        /* \"contracts/TimbTreasury.sol\":9244:9307  (bool sent,) = payable(timbsEthPair).call{value: ethAmount}(\"\") */\n      pop\n      swap1\n      pop\n        /* \"contracts/TimbTreasury.sol\":9322:9326  sent */\n      dup1\n        /* \"contracts/TimbTreasury.sol\":9317:9350  if (!sent) revert BuybackFailed() */\n      tag_261\n      jumpi\n        /* \"contracts/TimbTreasury.sol\":9335:9350  BuybackFailed() */\n      mload(0x40)\n      0x7f23919500000000000000000000000000000000000000000000000000000000\n      dup2\n      mstore\n      0x04\n      add\n      mload(0x40)\n      dup1\n      swap2\n      sub\n      swap1\n      revert\n        /* \"contracts/TimbTreasury.sol\":9317:9350  if (!sent) revert BuybackFailed() */\n    tag_261:\n        /* \"contracts/TimbTreasury.sol\":9365:9378  timbsIsToken0 */\n      dup4\n        /* \"contracts/TimbTreasury.sol\":9361:9556  if (timbsIsToken0) {... */\n      iszero\n      tag_262\n      jumpi\n        /* \"contracts/TimbTreasury.sol\":9408:9420  timbsEthPair */\n      0x03\n      0x00\n      swap1\n      sload\n      swap1\n      0x0100\n      exp\n      swap1\n      div\n      0xffffffffffffffffffffffffffffffffffffffff\n      and\n        /* \"contracts/TimbTreasury.sol\":9394:9426  ITimbSwapPair(timbsEthPair).swap */\n      0xffffffffffffffffffffffffffffffffffffffff\n      and\n      0x6d9a640a\n        /* \"contracts/TimbTreasury.sol\":9427:9435  timbsOut */\n      dup4\n        /* \"contracts/TimbTreasury.sol\":9437:9438  0 */\n      0x00\n        /* \"contracts/TimbTreasury.sol\":9448:9452  this */\n      address\n        /* \"contracts/TimbTreasury.sol\":9394:9454  ITimbSwapPair(timbsEthPair).swap(timbsOut, 0, address(this)) */\n      mload(0x40)\n      dup5\n      0xffffffff\n      and\n      0xe0\n      shl\n      dup2\n      mstore\n      0x04\n      add\n      tag_263\n      swap4\n      swap3\n      swap2\n      swap1\n      tag_264\n      jump\t// in\n    tag_263:\n      0x00\n      mload(0x40)\n      dup1\n      dup4\n      sub\n      dup2\n      0x00\n      dup8\n      dup1\n      extcodesize\n      iszero\n      dup1\n      iszero\n      tag_265\n      jumpi\n      0x00\n      dup1\n      revert\n    tag_265:\n      pop\n      gas\n      call\n      iszero\n      dup1\n      iszero\n      tag_267\n      jumpi\n      returndatasize\n      0x00\n      dup1\n      returndatacopy\n      revert(0x00, returndatasize)\n    tag_267:\n      pop\n      pop\n      pop\n      pop\n        /* \"contracts/TimbTreasury.sol\":9361:9556  if (timbsIsToken0) {... */\n      jump(tag_268)\n    tag_262:\n        /* \"contracts/TimbTreasury.sol\":9499:9511  timbsEthPair */\n      0x03\n      0x00\n      swap1\n      sload\n      swap1\n      0x0100\n      exp\n      swap1\n      div\n      0xffffffffffffffffffffffffffffffffffffffff\n      and\n        /* \"contracts/TimbTreasury.sol\":9485:9517  ITimbSwapPair(timbsEthPair).swap */\n      0xffffffffffffffffffffffffffffffffffffffff\n      and\n      0x6d9a640a\n        /* \"contracts/TimbTreasury.sol\":9518:9519  0 */\n      0x00\n        /* \"contracts/TimbTreasury.sol\":9521:9529  timbsOut */\n      dup5\n        /* \"contracts/TimbTreasury.sol\":9539:9543  this */\n      address\n        /* \"contracts/TimbTreasury.sol\":9485:9545  ITimbSwapPair(timbsEthPair).swap(0, timbsOut, address(this)) */\n      mload(0x40)\n      dup5\n      0xffffffff\n      and\n      0xe0\n      shl\n      dup2\n      mstore\n      0x04\n      add\n      tag_269\n      swap4\n      swap3\n      swap2\n      swap1\n      tag_270\n      jump\t// in\n    tag_269:\n      0x00\n      mload(0x40)\n      dup1\n      dup4\n      sub\n      dup2\n      0x00\n      dup8\n      dup1\n      extcodesize\n      iszero\n      dup1\n      iszero\n      tag_271\n      jumpi\n      0x00\n      dup1\n      revert\n    tag_271:\n      pop\n      gas\n      call\n      iszero\n      dup1\n      iszero\n      tag_273\n      jumpi\n      returndatasize\n      0x00\n      dup1\n      returndatacopy\n      revert(0x00, returndatasize)\n    tag_273:\n      pop\n      pop\n      pop\n      pop\n        /* \"contracts/TimbTreasury.sol\":9361:9556  if (timbsIsToken0) {... */\n    tag_268:\n        /* \"contracts/TimbTreasury.sol\":9600:9616  uint256 received */\n      0x00\n        /* \"contracts/TimbTreasury.sol\":9619:9629  timbsToken */\n      immutable(\"0x753005bd0bd6e20e7acd0dd8275cf856a18a272384014dc1cce463f3c48513ee\")\n        /* \"contracts/TimbTreasury.sol\":9619:9639  timbsToken.balanceOf */\n      0xffffffffffffffffffffffffffffffffffffffff\n      and\n      0x70a08231\n        /* \"contracts/TimbTreasury.sol\":9648:9652  this */\n      address\n        /* \"contracts/TimbTreasury.sol\":9619:9654  timbsToken.balanceOf(address(this)) */\n      mload(0x40)\n      dup3\n      0xffffffff\n      and\n      0xe0\n      shl\n      dup2\n      mstore\n      0x04\n      add\n      tag_274\n      swap2\n      swap1\n      tag_61\n      jump\t// in\n    tag_274:\n      0x20\n      mload(0x40)\n      dup1\n      dup4\n      sub\n      dup2\n      dup7\n      gas\n      staticcall\n      iszero\n      dup1\n      iszero\n      tag_276\n      jumpi\n      returndatasize\n      0x00\n      dup1\n      returndatacopy\n      revert(0x00, returndatasize)\n    tag_276:\n      pop\n      pop\n      pop\n      pop\n      mload(0x40)\n      returndatasize\n      not(0x1f)\n      0x1f\n      dup3\n      add\n      and\n      dup3\n      add\n      dup1\n      0x40\n      mstore\n      pop\n      dup2\n      add\n      swap1\n      tag_277\n      swap2\n      swap1\n      tag_201\n      jump\t// in\n    tag_277:\n        /* \"contracts/TimbTreasury.sol\":9600:9654  uint256 received = timbsToken.balanceOf(address(this)) */\n      swap1\n      pop\n        /* \"contracts/TimbTreasury.sol\":9679:9690  minTimbsOut */\n      dup11\n        /* \"contracts/TimbTreasury.sol\":9668:9676  received */\n      dup2\n        /* \"contracts/TimbTreasury.sol\":9668:9690  received < minTimbsOut */\n      lt\n        /* \"contracts/TimbTreasury.sol\":9664:9738  if (received < minTimbsOut) revert SlippageExceeded(received, minTimbsOut) */\n      iszero\n      tag_278\n      jumpi\n        /* \"contracts/TimbTreasury.sol\":9716:9724  received */\n      dup1\n        /* \"contracts/TimbTreasury.sol\":9726:9737  minTimbsOut */\n      dup12\n        /* \"contracts/TimbTreasury.sol\":9699:9738  SlippageExceeded(received, minTimbsOut) */\n      mload(0x40)\n      0x71c4efed00000000000000000000000000000000000000000000000000000000\n      dup2\n      mstore\n      0x04\n      add\n      tag_279\n      swap3\n      swap2\n      swap1\n      tag_179\n      jump\t// in\n    tag_279:\n      mload(0x40)\n      dup1\n      swap2\n      sub\n      swap1\n      revert\n        /* \"contracts/TimbTreasury.sol\":9664:9738  if (received < minTimbsOut) revert SlippageExceeded(received, minTimbsOut) */\n    tag_278:\n        /* \"contracts/TimbTreasury.sol\":9789:9803  uint256 toBurn */\n      0x00\n        /* \"contracts/TimbTreasury.sol\":9842:9845  100 */\n      0x64\n        /* \"contracts/TimbTreasury.sol\":9822:9838  buybackBurnRatio */\n      sload(0x04)\n        /* \"contracts/TimbTreasury.sol\":9811:9819  received */\n      dup4\n        /* \"contracts/TimbTreasury.sol\":9811:9838  received * buybackBurnRatio */\n      tag_280\n      swap2\n      swap1\n      tag_249\n      jump\t// in\n    tag_280:\n        /* \"contracts/TimbTreasury.sol\":9810:9845  (received * buybackBurnRatio) / 100 */\n      tag_281\n      swap2\n      swap1\n      tag_254\n      jump\t// in\n    tag_281:\n        /* \"contracts/TimbTreasury.sol\":9789:9845  uint256 toBurn     = (received * buybackBurnRatio) / 100 */\n      swap1\n      pop\n        /* \"contracts/TimbTreasury.sol\":9855:9872  uint256 toStaking */\n      0x00\n        /* \"contracts/TimbTreasury.sol\":9887:9893  toBurn */\n      dup2\n        /* \"contracts/TimbTreasury.sol\":9876:9884  received */\n      dup4\n        /* \"contracts/TimbTreasury.sol\":9876:9893  received - toBurn */\n      tag_282\n      swap2\n      swap1\n      tag_283\n      jump\t// in\n    tag_282:\n        /* \"contracts/TimbTreasury.sol\":9855:9893  uint256 toStaking  = received - toBurn */\n      swap1\n      pop\n        /* \"contracts/TimbTreasury.sol\":9917:9918  0 */\n      0x00\n        /* \"contracts/TimbTreasury.sol\":9908:9914  toBurn */\n      dup3\n        /* \"contracts/TimbTreasury.sol\":9908:9918  toBurn > 0 */\n      gt\n        /* \"contracts/TimbTreasury.sol\":9904:10008  if (toBurn > 0) {... */\n      iszero\n      tag_284\n      jumpi\n        /* \"contracts/TimbTreasury.sol\":9934:9944  timbsToken */\n      immutable(\"0x753005bd0bd6e20e7acd0dd8275cf856a18a272384014dc1cce463f3c48513ee\")\n        /* \"contracts/TimbTreasury.sol\":9934:9949  timbsToken.burn */\n      0xffffffffffffffffffffffffffffffffffffffff\n      and\n      0x42966c68\n        /* \"contracts/TimbTreasury.sol\":9950:9956  toBurn */\n      dup4\n        /* \"contracts/TimbTreasury.sol\":9934:9957  timbsToken.burn(toBurn) */\n      mload(0x40)\n      dup3\n      0xffffffff\n      and\n      0xe0\n      shl\n      dup2\n      mstore\n      0x04\n      add\n      tag_285\n      swap2\n      swap1\n      tag_44\n      jump\t// in\n    tag_285:\n      0x00\n      mload(0x40)\n      dup1\n      dup4\n      sub\n      dup2\n      0x00\n      dup8\n      dup1\n      extcodesize\n      iszero\n      dup1\n      iszero\n      tag_286\n      jumpi\n      0x00\n      dup1\n      revert\n    tag_286:\n      pop\n      gas\n      call\n      iszero\n      dup1\n      iszero\n      tag_288\n      jumpi\n      returndatasize\n      0x00\n      dup1\n      returndatacopy\n      revert(0x00, returndatasize)\n    tag_288:\n      pop\n      pop\n      pop\n      pop\n        /* \"contracts/TimbTreasury.sol\":9991:9997  toBurn */\n      dup2\n        /* \"contracts/TimbTreasury.sol\":9971:9987  totalTimbsBurned */\n      0x08\n      0x00\n        /* \"contracts/TimbTreasury.sol\":9971:9997  totalTimbsBurned += toBurn */\n      dup3\n      dup3\n      sload\n      tag_289\n      swap2\n      swap1\n      tag_42\n      jump\t// in\n    tag_289:\n      swap3\n      pop\n      pop\n      dup2\n      swap1\n      sstore\n      pop\n        /* \"contracts/TimbTreasury.sol\":9904:10008  if (toBurn > 0) {... */\n    tag_284:\n        /* \"contracts/TimbTreasury.sol\":10034:10035  0 */\n      0x00\n        /* \"contracts/TimbTreasury.sol\":10022:10031  toStaking */\n      dup2\n        /* \"contracts/TimbTreasury.sol\":10022:10035  toStaking > 0 */\n      gt\n        /* \"contracts/TimbTreasury.sol\":10022:10064  toStaking > 0 && timbStaking != address(0) */\n      dup1\n      iszero\n      tag_290\n      jumpi\n      pop\n        /* \"contracts/TimbTreasury.sol\":10062:10063  0 */\n      0x00\n        /* \"contracts/TimbTreasury.sol\":10039:10064  timbStaking != address(0) */\n      0xffffffffffffffffffffffffffffffffffffffff\n      and\n        /* \"contracts/TimbTreasury.sol\":10039:10050  timbStaking */\n      0x01\n      0x00\n      swap1\n      sload\n      swap1\n      0x0100\n      exp\n      swap1\n      div\n      0xffffffffffffffffffffffffffffffffffffffff\n      and\n        /* \"contracts/TimbTreasury.sol\":10039:10064  timbStaking != address(0) */\n      0xffffffffffffffffffffffffffffffffffffffff\n      and\n      eq\n      iszero\n        /* \"contracts/TimbTreasury.sol\":10022:10064  toStaking > 0 && timbStaking != address(0) */\n    tag_290:\n        /* \"contracts/TimbTreasury.sol\":10018:10388  if (toStaking > 0 && timbStaking != address(0)) {... */\n      iszero\n      tag_291\n      jumpi\n        /* \"contracts/TimbTreasury.sol\":10080:10090  timbsToken */\n      immutable(\"0x753005bd0bd6e20e7acd0dd8275cf856a18a272384014dc1cce463f3c48513ee\")\n        /* \"contracts/TimbTreasury.sol\":10080:10103  timbsToken.safeTransfer */\n      0xffffffffffffffffffffffffffffffffffffffff\n      and\n      0x423f6cef\n        /* \"contracts/TimbTreasury.sol\":10104:10115  timbStaking */\n      0x01\n      0x00\n      swap1\n      sload\n      swap1\n      0x0100\n      exp\n      swap1\n      div\n      0xffffffffffffffffffffffffffffffffffffffff\n      and\n        /* \"contracts/TimbTreasury.sol\":10117:10126  toStaking */\n      dup4\n        /* \"contracts/TimbTreasury.sol\":10080:10127  timbsToken.safeTransfer(timbStaking, toStaking) */\n      mload(0x40)\n      dup4\n      0xffffffff\n      and\n      0xe0\n      shl\n      dup2\n      mstore\n      0x04\n      add\n      tag_292\n      swap3\n      swap2\n      swap1\n      tag_204\n      jump\t// in\n    tag_292:\n      0x00\n      mload(0x40)\n      dup1\n      dup4\n      sub\n      dup2\n      0x00\n      dup8\n      dup1\n      extcodesize\n      iszero\n      dup1\n      iszero\n      tag_293\n      jumpi\n      0x00\n      dup1\n      revert\n    tag_293:\n      pop\n      gas\n      call\n      iszero\n      dup1\n      iszero\n      tag_295\n      jumpi\n      returndatasize\n      0x00\n      dup1\n      returndatacopy\n      revert(0x00, returndatasize)\n    tag_295:\n      pop\n      pop\n      pop\n      pop\n        /* \"contracts/TimbTreasury.sol\":10214:10225  timbStaking */\n      0x01\n      0x00\n      swap1\n      sload\n      swap1\n      0x0100\n      exp\n      swap1\n      div\n      0xffffffffffffffffffffffffffffffffffffffff\n      and\n        /* \"contracts/TimbTreasury.sol\":10201:10245  ITimbStaking(timbStaking).notifyRewardAmount */\n      0xffffffffffffffffffffffffffffffffffffffff\n      and\n      0x246132f9\n        /* \"contracts/TimbTreasury.sol\":10263:10272  toStaking */\n      dup3\n        /* \"contracts/TimbTreasury.sol\":10290:10315  stakingDistributionPeriod */\n      sload(0x05)\n        /* \"contracts/TimbTreasury.sol\":10201:10329  ITimbStaking(timbStaking).notifyRewardAmount(... */\n      mload(0x40)\n      dup4\n      0xffffffff\n      and\n      0xe0\n      shl\n      dup2\n      mstore\n      0x04\n      add\n      tag_296\n      swap3\n      swap2\n      swap1\n      tag_179\n      jump\t// in\n    tag_296:\n      0x00\n      mload(0x40)\n      dup1\n      dup4\n      sub\n      dup2\n      0x00\n      dup8\n      dup1\n      extcodesize\n      iszero\n      dup1\n      iszero\n      tag_297\n      jumpi\n      0x00\n      dup1\n      revert\n    tag_297:\n      pop\n      gas\n      call\n      iszero\n      dup1\n      iszero\n      tag_299\n      jumpi\n      returndatasize\n      0x00\n      dup1\n      returndatacopy\n      revert(0x00, returndatasize)\n    tag_299:\n      pop\n      pop\n      pop\n      pop\n        /* \"contracts/TimbTreasury.sol\":10368:10377  toStaking */\n      dup1\n        /* \"contracts/TimbTreasury.sol\":10343:10364  totalTimbsDistributed */\n      0x09\n      0x00\n        /* \"contracts/TimbTreasury.sol\":10343:10377  totalTimbsDistributed += toStaking */\n      dup3\n      dup3\n      sload\n      tag_300\n      swap2\n      swap1\n      tag_42\n      jump\t// in\n    tag_300:\n      swap3\n      pop\n      pop\n      dup2\n      swap1\n      sstore\n      pop\n        /* \"contracts/TimbTreasury.sol\":10018:10388  if (toStaking > 0 && timbStaking != address(0)) {... */\n    tag_291:\n        /* \"contracts/TimbTreasury.sol\":10403:10458  BuybackExecuted(ethAmount, received, toBurn, toStaking) */\n      0x42659a4aa613c1e350c764f0ff2be36a175ac2a1e4b77b8e1467d1fed32becc8\n        /* \"contracts/TimbTreasury.sol\":10419:10428  ethAmount */\n      dup15\n        /* \"contracts/TimbTreasury.sol\":10430:10438  received */\n      dup5\n        /* \"contracts/TimbTreasury.sol\":10440:10446  toBurn */\n      dup5\n        /* \"contracts/TimbTreasury.sol\":10448:10457  toStaking */\n      dup5\n        /* \"contracts/TimbTreasury.sol\":10403:10458  BuybackExecuted(ethAmount, received, toBurn, toStaking) */\n      mload(0x40)\n      tag_301\n      swap5\n      swap4\n      swap3\n      swap2\n      swap1\n      tag_145\n      jump\t// in\n    tag_301:\n      mload(0x40)\n      dup1\n      swap2\n      sub\n      swap1\n      log1\n        /* \"contracts/TimbTreasury.sol\":7724:10465  {... */\n      pop\n      pop\n      pop\n      pop\n      pop\n      pop\n      pop\n      pop\n      pop\n      pop\n      pop\n      pop\n        /* \"@openzeppelin/contracts/utils/ReentrancyGuard.sol\":3065:3085  _nonReentrantAfter() */\n      tag_302\n        /* \"@openzeppelin/contracts/utils/ReentrancyGuard.sol\":3065:3083  _nonReentrantAfter */\n      tag_188\n        /* \"@openzeppelin/contracts/utils/ReentrancyGuard.sol\":3065:3085  _nonReentrantAfter() */\n      jump\t// in\n    tag_302:\n        /* \"contracts/TimbTreasury.sol\":7600:10465  function executeBuyback(uint256 ethAmount, uint256 minTimbsOut)... */\n      pop\n      pop\n      jump\t// out\n        /* \"contracts/TimbTreasury.sol\":3678:3710  uint256 public totalFeesReceived */\n    tag_126:\n      sload(0x07)\n      dup2\n      jump\t// out\n        /* \"contracts/TimbTreasury.sol\":13369:13562  function setTimbStaking(address _staking) external onlyOwner {... */\n    tag_131:\n        /* \"@openzeppelin/contracts/access/Ownable.sol\":1531:1544  _checkOwner() */\n      tag_304\n        /* \"@openzeppelin/contracts/access/Ownable.sol\":1531:1542  _checkOwner */\n      tag_166\n        /* \"@openzeppelin/contracts/access/Ownable.sol\":1531:1544  _checkOwner() */\n      jump\t// in\n    tag_304:\n        /* \"contracts/TimbTreasury.sol\":13464:13465  0 */\n      0x00\n        /* \"contracts/TimbTreasury.sol\":13444:13466  _staking == address(0) */\n      0xffffffffffffffffffffffffffffffffffffffff\n      and\n        /* \"contracts/TimbTreasury.sol\":13444:13452  _staking */\n      dup2\n        /* \"contracts/TimbTreasury.sol\":13444:13466  _staking == address(0) */\n      0xffffffffffffffffffffffffffffffffffffffff\n      and\n      sub\n        /* \"contracts/TimbTreasury.sol\":13440:13488  if (_staking == address(0)) revert ZeroAddress() */\n      tag_306\n      jumpi\n        /* \"contracts/TimbTreasury.sol\":13475:13488  ZeroAddress() */\n      mload(0x40)\n      0xd92e233d00000000000000000000000000000000000000000000000000000000\n      dup2\n      mstore\n      0x04\n      add\n      mload(0x40)\n      dup1\n      swap2\n      sub\n      swap1\n      revert\n        /* \"contracts/TimbTreasury.sol\":13440:13488  if (_staking == address(0)) revert ZeroAddress() */\n    tag_306:\n        /* \"contracts/TimbTreasury.sol\":13512:13520  _staking */\n      dup1\n        /* \"contracts/TimbTreasury.sol\":13498:13509  timbStaking */\n      0x01\n      0x00\n        /* \"contracts/TimbTreasury.sol\":13498:13520  timbStaking = _staking */\n      0x0100\n      exp\n      dup2\n      sload\n      dup2\n      0xffffffffffffffffffffffffffffffffffffffff\n      mul\n      not\n      and\n      swap1\n      dup4\n      0xffffffffffffffffffffffffffffffffffffffff\n      and\n      mul\n      or\n      swap1\n      sstore\n      pop\n        /* \"contracts/TimbTreasury.sol\":13546:13554  _staking */\n      dup1\n        /* \"contracts/TimbTreasury.sol\":13535:13555  StakingSet(_staking) */\n      0xffffffffffffffffffffffffffffffffffffffff\n      and\n      0xf520447191196b125f76f7110397fdf32b1b9cefb7dec323bd3b998022ac2338\n      mload(0x40)\n      mload(0x40)\n      dup1\n      swap2\n      sub\n      swap1\n      log2\n        /* \"contracts/TimbTreasury.sol\":13369:13562  function setTimbStaking(address _staking) external onlyOwner {... */\n      pop\n      jump\t// out\n        /* \"contracts/TimbTreasury.sol\":14132:14367  function setFeeSender(address sender, bool authorised) external onlyOwner {... */\n    tag_136:\n        /* \"@openzeppelin/contracts/access/Ownable.sol\":1531:1544  _checkOwner() */\n      tag_308\n        /* \"@openzeppelin/contracts/access/Ownable.sol\":1531:1542  _checkOwner */\n      tag_166\n        /* \"@openzeppelin/contracts/access/Ownable.sol\":1531:1544  _checkOwner() */\n      jump\t// in\n    tag_308:\n        /* \"contracts/TimbTreasury.sol\":14238:14239  0 */\n      0x00\n        /* \"contracts/TimbTreasury.sol\":14220:14240  sender == address(0) */\n      0xffffffffffffffffffffffffffffffffffffffff\n      and\n        /* \"contracts/TimbTreasury.sol\":14220:14226  sender */\n      dup3\n        /* \"contracts/TimbTreasury.sol\":14220:14240  sender == address(0) */\n      0xffffffffffffffffffffffffffffffffffffffff\n      and\n      sub\n        /* \"contracts/TimbTreasury.sol\":14216:14262  if (sender == address(0)) revert ZeroAddress() */\n      tag_310\n      jumpi\n        /* \"contracts/TimbTreasury.sol\":14249:14262  ZeroAddress() */\n      mload(0x40)\n      0xd92e233d00000000000000000000000000000000000000000000000000000000\n      dup2\n      mstore\n      0x04\n      add\n      mload(0x40)\n      dup1\n      swap2\n      sub\n      swap1\n      revert\n        /* \"contracts/TimbTreasury.sol\":14216:14262  if (sender == address(0)) revert ZeroAddress() */\n    tag_310:\n        /* \"contracts/TimbTreasury.sol\":14303:14313  authorised */\n      dup1\n        /* \"contracts/TimbTreasury.sol\":14272:14292  authorisedFeeSenders */\n      0x06\n        /* \"contracts/TimbTreasury.sol\":14272:14300  authorisedFeeSenders[sender] */\n      0x00\n        /* \"contracts/TimbTreasury.sol\":14293:14299  sender */\n      dup5\n        /* \"contracts/TimbTreasury.sol\":14272:14300  authorisedFeeSenders[sender] */\n      0xffffffffffffffffffffffffffffffffffffffff\n      and\n      0xffffffffffffffffffffffffffffffffffffffff\n      and\n      dup2\n      mstore\n      0x20\n      add\n      swap1\n      dup2\n      mstore\n      0x20\n      add\n      0x00\n      keccak256\n      0x00\n        /* \"contracts/TimbTreasury.sol\":14272:14313  authorisedFeeSenders[sender] = authorised */\n      0x0100\n      exp\n      dup2\n      sload\n      dup2\n      0xff\n      mul\n      not\n      and\n      swap1\n      dup4\n      iszero\n      iszero\n      mul\n      or\n      swap1\n      sstore\n      pop\n        /* \"contracts/TimbTreasury.sol\":14341:14347  sender */\n      dup2\n        /* \"contracts/TimbTreasury.sol\":14328:14360  FeeSenderSet(sender, authorised) */\n      0xffffffffffffffffffffffffffffffffffffffff\n      and\n      0xbac4a6ee215c0287f7da3a73c4fa957dde930dc8190bba3f30d0104ae15ca9fd\n        /* \"contracts/TimbTreasury.sol\":14349:14359  authorised */\n      dup3\n        /* \"contracts/TimbTreasury.sol\":14328:14360  FeeSenderSet(sender, authorised) */\n      mload(0x40)\n      tag_311\n      swap2\n      swap1\n      tag_56\n      jump\t// in\n    tag_311:\n      mload(0x40)\n      dup1\n      swap2\n      sub\n      swap1\n      log2\n        /* \"contracts/TimbTreasury.sol\":14132:14367  function setFeeSender(address sender, bool authorised) external onlyOwner {... */\n      pop\n      pop\n      jump\t// out\n        /* \"contracts/TimbTreasury.sol\":13160:13363  function setBuybackBurnRatio(uint256 _ratio) external onlyOwner {... */\n    tag_140:\n        /* \"@openzeppelin/contracts/access/Ownable.sol\":1531:1544  _checkOwner() */\n      tag_313\n        /* \"@openzeppelin/contracts/access/Ownable.sol\":1531:1542  _checkOwner */\n      tag_166\n        /* \"@openzeppelin/contracts/access/Ownable.sol\":1531:1544  _checkOwner() */\n      jump\t// in\n    tag_313:\n        /* \"contracts/TimbTreasury.sol\":13247:13250  100 */\n      0x64\n        /* \"contracts/TimbTreasury.sol\":13238:13244  _ratio */\n      dup2\n        /* \"contracts/TimbTreasury.sol\":13238:13250  _ratio > 100 */\n      gt\n        /* \"contracts/TimbTreasury.sol\":13234:13279  if (_ratio > 100) revert InvalidRatio(_ratio) */\n      iszero\n      tag_315\n      jumpi\n        /* \"contracts/TimbTreasury.sol\":13272:13278  _ratio */\n      dup1\n        /* \"contracts/TimbTreasury.sol\":13259:13279  InvalidRatio(_ratio) */\n      mload(0x40)\n      0x23542f7800000000000000000000000000000000000000000000000000000000\n      dup2\n      mstore\n      0x04\n      add\n      tag_316\n      swap2\n      swap1\n      tag_44\n      jump\t// in\n    tag_316:\n      mload(0x40)\n      dup1\n      swap2\n      sub\n      swap1\n      revert\n        /* \"contracts/TimbTreasury.sol\":13234:13279  if (_ratio > 100) revert InvalidRatio(_ratio) */\n    tag_315:\n        /* \"contracts/TimbTreasury.sol\":13308:13314  _ratio */\n      dup1\n        /* \"contracts/TimbTreasury.sol\":13289:13305  buybackBurnRatio */\n      0x04\n        /* \"contracts/TimbTreasury.sol\":13289:13314  buybackBurnRatio = _ratio */\n      dup2\n      swap1\n      sstore\n      pop\n        /* \"contracts/TimbTreasury.sol\":13329:13356  BuybackBurnRatioSet(_ratio) */\n      0xe85d9362d5330e5046ba20d38140f318950327f15b22123dae77dfff2f1dde71\n        /* \"contracts/TimbTreasury.sol\":13349:13355  _ratio */\n      dup2\n        /* \"contracts/TimbTreasury.sol\":13329:13356  BuybackBurnRatioSet(_ratio) */\n      mload(0x40)\n      tag_317\n      swap2\n      swap1\n      tag_44\n      jump\t// in\n    tag_317:\n      mload(0x40)\n      dup1\n      swap2\n      sub\n      swap1\n      log1\n        /* \"contracts/TimbTreasury.sol\":13160:13363  function setBuybackBurnRatio(uint256 _ratio) external onlyOwner {... */\n      pop\n      jump\t// out\n        /* \"contracts/TimbTreasury.sol\":15006:15381  function getStats()... */\n    tag_143:\n        /* \"contracts/TimbTreasury.sol\":15086:15106  uint256 feesReceived */\n      0x00\n        /* \"contracts/TimbTreasury.sol\":15120:15139  uint256 timbsBurned */\n      dup1\n        /* \"contracts/TimbTreasury.sol\":15153:15177  uint256 timbsDistributed */\n      0x00\n        /* \"contracts/TimbTreasury.sol\":15191:15208  uint256 potFunded */\n      dup1\n        /* \"contracts/TimbTreasury.sol\":15254:15271  totalFeesReceived */\n      sload(0x07)\n        /* \"contracts/TimbTreasury.sol\":15285:15301  totalTimbsBurned */\n      sload(0x08)\n        /* \"contracts/TimbTreasury.sol\":15315:15336  totalTimbsDistributed */\n      sload(0x09)\n        /* \"contracts/TimbTreasury.sol\":15350:15364  totalPotFunded */\n      sload(0x0a)\n        /* \"contracts/TimbTreasury.sol\":15233:15374  return (... */\n      swap4\n      pop\n      swap4\n      pop\n      swap4\n      pop\n      swap4\n      pop\n        /* \"contracts/TimbTreasury.sol\":15006:15381  function getStats()... */\n      swap1\n      swap2\n      swap3\n      swap4\n      jump\t// out\n        /* \"contracts/TimbTreasury.sol\":14821:14936  function timbsBalance() external view returns (uint256) {... */\n    tag_148:\n        /* \"contracts/TimbTreasury.sol\":14868:14875  uint256 */\n      0x00\n        /* \"contracts/TimbTreasury.sol\":14894:14904  timbsToken */\n      immutable(\"0x753005bd0bd6e20e7acd0dd8275cf856a18a272384014dc1cce463f3c48513ee\")\n        /* \"contracts/TimbTreasury.sol\":14894:14914  timbsToken.balanceOf */\n      0xffffffffffffffffffffffffffffffffffffffff\n      and\n      0x70a08231\n        /* \"contracts/TimbTreasury.sol\":14923:14927  this */\n      address\n        /* \"contracts/TimbTreasury.sol\":14894:14929  timbsToken.balanceOf(address(this)) */\n      mload(0x40)\n      dup3\n      0xffffffff\n      and\n      0xe0\n      shl\n      dup2\n      mstore\n      0x04\n      add\n      tag_320\n      swap2\n      swap1\n      tag_61\n      jump\t// in\n    tag_320:\n      0x20\n      mload(0x40)\n      dup1\n      dup4\n      sub\n      dup2\n      dup7\n      gas\n      staticcall\n      iszero\n      dup1\n      iszero\n      tag_322\n      jumpi\n      returndatasize\n      0x00\n      dup1\n      returndatacopy\n      revert(0x00, returndatasize)\n    tag_322:\n      pop\n      pop\n      pop\n      pop\n      mload(0x40)\n      returndatasize\n      not(0x1f)\n      0x1f\n      dup3\n      add\n      and\n      dup3\n      add\n      dup1\n      0x40\n      mstore\n      pop\n      dup2\n      add\n      swap1\n      tag_323\n      swap2\n      swap1\n      tag_201\n      jump\t// in\n    tag_323:\n        /* \"contracts/TimbTreasury.sol\":14887:14929  return timbsToken.balanceOf(address(this)) */\n      swap1\n      pop\n        /* \"contracts/TimbTreasury.sol\":14821:14936  function timbsBalance() external view returns (uint256) {... */\n      swap1\n      jump\t// out\n        /* \"contracts/TimbTreasury.sol\":3891:3927  uint256 public totalTimbsDistributed */\n    tag_152:\n      sload(0x09)\n      dup2\n      jump\t// out\n        /* \"contracts/TimbTreasury.sol\":10805:11274  function distributeToPot(uint256 amount)... */\n    tag_157:\n        /* \"@openzeppelin/contracts/utils/ReentrancyGuard.sol\":3023:3044  _nonReentrantBefore() */\n      tag_325\n        /* \"@openzeppelin/contracts/utils/ReentrancyGuard.sol\":3023:3042  _nonReentrantBefore */\n      tag_171\n        /* \"@openzeppelin/contracts/utils/ReentrancyGuard.sol\":3023:3044  _nonReentrantBefore() */\n      jump\t// in\n    tag_325:\n        /* \"@openzeppelin/contracts/access/Ownable.sol\":1531:1544  _checkOwner() */\n      tag_327\n        /* \"@openzeppelin/contracts/access/Ownable.sol\":1531:1542  _checkOwner */\n      tag_166\n        /* \"@openzeppelin/contracts/access/Ownable.sol\":1531:1544  _checkOwner() */\n      jump\t// in\n    tag_327:\n        /* \"contracts/TimbTreasury.sol\":10930:10931  0 */\n      0x00\n        /* \"contracts/TimbTreasury.sol\":10920:10926  amount */\n      dup2\n        /* \"contracts/TimbTreasury.sol\":10920:10931  amount == 0 */\n      sub\n        /* \"contracts/TimbTreasury.sol\":10916:10972  if (amount == 0)                     revert ZeroAmount() */\n      tag_329\n      jumpi\n        /* \"contracts/TimbTreasury.sol\":10960:10972  ZeroAmount() */\n      mload(0x40)\n      0x1f2a200500000000000000000000000000000000000000000000000000000000\n      dup2\n      mstore\n      0x04\n      add\n      mload(0x40)\n      dup1\n      swap2\n      sub\n      swap1\n      revert\n        /* \"contracts/TimbTreasury.sol\":10916:10972  if (amount == 0)                     revert ZeroAmount() */\n    tag_329:\n        /* \"contracts/TimbTreasury.sol\":11009:11010  0 */\n      0x00\n        /* \"contracts/TimbTreasury.sol\":10986:11011  prizeEscrow == address(0) */\n      0xffffffffffffffffffffffffffffffffffffffff\n      and\n        /* \"contracts/TimbTreasury.sol\":10986:10997  prizeEscrow */\n      0x02\n      0x00\n      swap1\n      sload\n      swap1\n      0x0100\n      exp\n      swap1\n      div\n      0xffffffffffffffffffffffffffffffffffffffff\n      and\n        /* \"contracts/TimbTreasury.sol\":10986:11011  prizeEscrow == address(0) */\n      0xffffffffffffffffffffffffffffffffffffffff\n      and\n      sub\n        /* \"contracts/TimbTreasury.sol\":10982:11039  if (prizeEscrow == address(0))       revert ZeroAddress() */\n      tag_330\n      jumpi\n        /* \"contracts/TimbTreasury.sol\":11026:11039  ZeroAddress() */\n      mload(0x40)\n      0xd92e233d00000000000000000000000000000000000000000000000000000000\n      dup2\n      mstore\n      0x04\n      add\n      mload(0x40)\n      dup1\n      swap2\n      sub\n      swap1\n      revert\n        /* \"contracts/TimbTreasury.sol\":10982:11039  if (prizeEscrow == address(0))       revert ZeroAddress() */\n    tag_330:\n        /* \"contracts/TimbTreasury.sol\":11062:11083  address(this).balance */\n      selfbalance\n        /* \"contracts/TimbTreasury.sol\":11053:11059  amount */\n      dup2\n        /* \"contracts/TimbTreasury.sol\":11053:11083  amount > address(this).balance */\n      gt\n        /* \"contracts/TimbTreasury.sol\":11049:11139  if (amount > address(this).balance)  revert InsufficientETH(amount, address(this).balance) */\n      iszero\n      tag_331\n      jumpi\n        /* \"contracts/TimbTreasury.sol\":11109:11115  amount */\n      dup1\n        /* \"contracts/TimbTreasury.sol\":11117:11138  address(this).balance */\n      selfbalance\n        /* \"contracts/TimbTreasury.sol\":11093:11139  InsufficientETH(amount, address(this).balance) */\n      mload(0x40)\n      0x1fbeaea000000000000000000000000000000000000000000000000000000000\n      dup2\n      mstore\n      0x04\n      add\n      tag_332\n      swap3\n      swap2\n      swap1\n      tag_179\n      jump\t// in\n    tag_332:\n      mload(0x40)\n      dup1\n      swap2\n      sub\n      swap1\n      revert\n        /* \"contracts/TimbTreasury.sol\":11049:11139  if (amount > address(this).balance)  revert InsufficientETH(amount, address(this).balance) */\n    tag_331:\n        /* \"contracts/TimbTreasury.sol\":11163:11174  prizeEscrow */\n      0x02\n      0x00\n      swap1\n      sload\n      swap1\n      0x0100\n      exp\n      swap1\n      div\n      0xffffffffffffffffffffffffffffffffffffffff\n      and\n        /* \"contracts/TimbTreasury.sol\":11150:11183  IPrizeEscrow(prizeEscrow).deposit */\n      0xffffffffffffffffffffffffffffffffffffffff\n      and\n      0xd0e30db0\n        /* \"contracts/TimbTreasury.sol\":11191:11197  amount */\n      dup3\n        /* \"contracts/TimbTreasury.sol\":11150:11200  IPrizeEscrow(prizeEscrow).deposit{value: amount}() */\n      mload(0x40)\n      dup3\n      0xffffffff\n      and\n      0xe0\n      shl\n      dup2\n      mstore\n      0x04\n      add\n      0x00\n      mload(0x40)\n      dup1\n      dup4\n      sub\n      dup2\n      dup6\n      dup9\n      dup1\n      extcodesize\n      iszero\n      dup1\n      iszero\n      tag_333\n      jumpi\n      0x00\n      dup1\n      revert\n    tag_333:\n      pop\n      gas\n      call\n      iszero\n      dup1\n      iszero\n      tag_335\n      jumpi\n      returndatasize\n      0x00\n      dup1\n      returndatacopy\n      revert(0x00, returndatasize)\n    tag_335:\n      pop\n      pop\n      pop\n      pop\n      pop\n        /* \"contracts/TimbTreasury.sol\":11228:11234  amount */\n      dup1\n        /* \"contracts/TimbTreasury.sol\":11210:11224  totalPotFunded */\n      0x0a\n      0x00\n        /* \"contracts/TimbTreasury.sol\":11210:11234  totalPotFunded += amount */\n      dup3\n      dup3\n      sload\n      tag_336\n      swap2\n      swap1\n      tag_42\n      jump\t// in\n    tag_336:\n      swap3\n      pop\n      pop\n      dup2\n      swap1\n      sstore\n      pop\n        /* \"contracts/TimbTreasury.sol\":11250:11267  PotFunded(amount) */\n      0x065da79752e89c0debd87a1c71ae1d472add974dc19b2fc258f88b5598fcfa76\n        /* \"contracts/TimbTreasury.sol\":11260:11266  amount */\n      dup2\n        /* \"contracts/TimbTreasury.sol\":11250:11267  PotFunded(amount) */\n      mload(0x40)\n      tag_337\n      swap2\n      swap1\n      tag_44\n      jump\t// in\n    tag_337:\n      mload(0x40)\n      dup1\n      swap2\n      sub\n      swap1\n      log1\n        /* \"@openzeppelin/contracts/utils/ReentrancyGuard.sol\":3065:3085  _nonReentrantAfter() */\n      tag_338\n        /* \"@openzeppelin/contracts/utils/ReentrancyGuard.sol\":3065:3083  _nonReentrantAfter */\n      tag_188\n        /* \"@openzeppelin/contracts/utils/ReentrancyGuard.sol\":3065:3085  _nonReentrantAfter() */\n      jump\t// in\n    tag_338:\n        /* \"contracts/TimbTreasury.sol\":10805:11274  function distributeToPot(uint256 amount)... */\n      pop\n      jump\t// out\n        /* \"@openzeppelin/contracts/access/Ownable.sol\":2543:2758  function transferOwnership(address newOwner) public virtual onlyOwner {... */\n    tag_161:\n        /* \"@openzeppelin/contracts/access/Ownable.sol\":1531:1544  _checkOwner() */\n      tag_340\n        /* \"@openzeppelin/contracts/access/Ownable.sol\":1531:1542  _checkOwner */\n      tag_166\n        /* \"@openzeppelin/contracts/access/Ownable.sol\":1531:1544  _checkOwner() */\n      jump\t// in\n    tag_340:\n        /* \"@openzeppelin/contracts/access/Ownable.sol\":2647:2648  0 */\n      0x00\n        /* \"@openzeppelin/contracts/access/Ownable.sol\":2627:2649  newOwner == address(0) */\n      0xffffffffffffffffffffffffffffffffffffffff\n      and\n        /* \"@openzeppelin/contracts/access/Ownable.sol\":2627:2635  newOwner */\n      dup2\n        /* \"@openzeppelin/contracts/access/Ownable.sol\":2627:2649  newOwner == address(0) */\n      0xffffffffffffffffffffffffffffffffffffffff\n      and\n      sub\n        /* \"@openzeppelin/contracts/access/Ownable.sol\":2623:2714  if (newOwner == address(0)) {... */\n      tag_342\n      jumpi\n        /* \"@openzeppelin/contracts/access/Ownable.sol\":2700:2701  0 */\n      0x00\n        /* \"@openzeppelin/contracts/access/Ownable.sol\":2672:2703  OwnableInvalidOwner(address(0)) */\n      mload(0x40)\n      0x1e4fbdf700000000000000000000000000000000000000000000000000000000\n      dup2\n      mstore\n      0x04\n      add\n      tag_343\n      swap2\n      swap1\n      tag_61\n      jump\t// in\n    tag_343:\n      mload(0x40)\n      dup1\n      swap2\n      sub\n      swap1\n      revert\n        /* \"@openzeppelin/contracts/access/Ownable.sol\":2623:2714  if (newOwner == address(0)) {... */\n    tag_342:\n        /* \"@openzeppelin/contracts/access/Ownable.sol\":2723:2751  _transferOwnership(newOwner) */\n      tag_344\n        /* \"@openzeppelin/contracts/access/Ownable.sol\":2742:2750  newOwner */\n      dup2\n        /* \"@openzeppelin/contracts/access/Ownable.sol\":2723:2741  _transferOwnership */\n      tag_223\n        /* \"@openzeppelin/contracts/access/Ownable.sol\":2723:2751  _transferOwnership(newOwner) */\n      jump\t// in\n    tag_344:\n        /* \"@openzeppelin/contracts/access/Ownable.sol\":2543:2758  function transferOwnership(address newOwner) public virtual onlyOwner {... */\n      pop\n      jump\t// out\n        /* \"contracts/TimbTreasury.sol\":6818:7004  function receiveFees() external payable {... */\n    tag_163:\n        /* \"contracts/TimbTreasury.sol\":6885:6886  0 */\n      0x00\n        /* \"contracts/TimbTreasury.sol\":6872:6881  msg.value */\n      callvalue\n        /* \"contracts/TimbTreasury.sol\":6872:6886  msg.value == 0 */\n      sub\n        /* \"contracts/TimbTreasury.sol\":6868:6907  if (msg.value == 0) revert ZeroAmount() */\n      tag_346\n      jumpi\n        /* \"contracts/TimbTreasury.sol\":6895:6907  ZeroAmount() */\n      mload(0x40)\n      0x1f2a200500000000000000000000000000000000000000000000000000000000\n      dup2\n      mstore\n      0x04\n      add\n      mload(0x40)\n      dup1\n      swap2\n      sub\n      swap1\n      revert\n        /* \"contracts/TimbTreasury.sol\":6868:6907  if (msg.value == 0) revert ZeroAmount() */\n    tag_346:\n        /* \"contracts/TimbTreasury.sol\":6938:6947  msg.value */\n      callvalue\n        /* \"contracts/TimbTreasury.sol\":6917:6934  totalFeesReceived */\n      0x07\n      0x00\n        /* \"contracts/TimbTreasury.sol\":6917:6947  totalFeesReceived += msg.value */\n      dup3\n      dup3\n      sload\n      tag_347\n      swap2\n      swap1\n      tag_42\n      jump\t// in\n    tag_347:\n      swap3\n      pop\n      pop\n      dup2\n      swap1\n      sstore\n      pop\n        /* \"contracts/TimbTreasury.sol\":6975:6985  msg.sender */\n      caller\n        /* \"contracts/TimbTreasury.sol\":6962:6997  FeesReceived(msg.sender, msg.value) */\n      0xffffffffffffffffffffffffffffffffffffffff\n      and\n      0x2ccfc58c2cef4ee590b5f16be0548cc54afc12e1c66a67b362b7d640fd16bb2d\n        /* \"contracts/TimbTreasury.sol\":6987:6996  msg.value */\n      callvalue\n        /* \"contracts/TimbTreasury.sol\":6962:6997  FeesReceived(msg.sender, msg.value) */\n      mload(0x40)\n      tag_348\n      swap2\n      swap1\n      tag_44\n      jump\t// in\n    tag_348:\n      mload(0x40)\n      dup1\n      swap2\n      sub\n      swap1\n      log2\n        /* \"contracts/TimbTreasury.sol\":6818:7004  function receiveFees() external payable {... */\n      jump\t// out\n        /* \"@openzeppelin/contracts/access/Ownable.sol\":1796:1958  function _checkOwner() internal view virtual {... */\n    tag_166:\n        /* \"@openzeppelin/contracts/access/Ownable.sol\":1866:1878  _msgSender() */\n      tag_350\n        /* \"@openzeppelin/contracts/access/Ownable.sol\":1866:1876  _msgSender */\n      tag_351\n        /* \"@openzeppelin/contracts/access/Ownable.sol\":1866:1878  _msgSender() */\n      jump\t// in\n    tag_350:\n        /* \"@openzeppelin/contracts/access/Ownable.sol\":1855:1878  owner() != _msgSender() */\n      0xffffffffffffffffffffffffffffffffffffffff\n      and\n        /* \"@openzeppelin/contracts/access/Ownable.sol\":1855:1862  owner() */\n      tag_352\n        /* \"@openzeppelin/contracts/access/Ownable.sol\":1855:1860  owner */\n      tag_114\n        /* \"@openzeppelin/contracts/access/Ownable.sol\":1855:1862  owner() */\n      jump\t// in\n    tag_352:\n        /* \"@openzeppelin/contracts/access/Ownable.sol\":1855:1878  owner() != _msgSender() */\n      0xffffffffffffffffffffffffffffffffffffffff\n      and\n      eq\n        /* \"@openzeppelin/contracts/access/Ownable.sol\":1851:1952  if (owner() != _msgSender()) {... */\n      tag_353\n      jumpi\n        /* \"@openzeppelin/contracts/access/Ownable.sol\":1928:1940  _msgSender() */\n      tag_354\n        /* \"@openzeppelin/contracts/access/Ownable.sol\":1928:1938  _msgSender */\n      tag_351\n        /* \"@openzeppelin/contracts/access/Ownable.sol\":1928:1940  _msgSender() */\n      jump\t// in\n    tag_354:\n        /* \"@openzeppelin/contracts/access/Ownable.sol\":1901:1941  OwnableUnauthorizedAccount(_msgSender()) */\n      mload(0x40)\n      0x118cdaa700000000000000000000000000000000000000000000000000000000\n      dup2\n      mstore\n      0x04\n      add\n      tag_355\n      swap2\n      swap1\n      tag_61\n      jump\t// in\n    tag_355:\n      mload(0x40)\n      dup1\n      swap2\n      sub\n      swap1\n      revert\n        /* \"@openzeppelin/contracts/access/Ownable.sol\":1851:1952  if (owner() != _msgSender()) {... */\n    tag_353:\n        /* \"@openzeppelin/contracts/access/Ownable.sol\":1796:1958  function _checkOwner() internal view virtual {... */\n      jump\t// out\n        /* \"@openzeppelin/contracts/utils/ReentrancyGuard.sol\":3749:4041  function _nonReentrantBefore() private {... */\n    tag_171:\n        /* \"@openzeppelin/contracts/utils/ReentrancyGuard.sol\":3872:3897  _nonReentrantBeforeView() */\n      tag_357\n        /* \"@openzeppelin/contracts/utils/ReentrancyGuard.sol\":3872:3895  _nonReentrantBeforeView */\n      tag_358\n        /* \"@openzeppelin/contracts/utils/ReentrancyGuard.sol\":3872:3897  _nonReentrantBeforeView() */\n      jump\t// in\n    tag_357:\n        /* \"@openzeppelin/contracts/utils/ReentrancyGuard.sol\":2407:2408  2 */\n      0x02\n        /* \"@openzeppelin/contracts/utils/ReentrancyGuard.sol\":3972:4018  _reentrancyGuardStorageSlot().getUint256Slot() */\n      tag_359\n        /* \"@openzeppelin/contracts/utils/ReentrancyGuard.sol\":3972:4001  _reentrancyGuardStorageSlot() */\n      tag_360\n        /* \"@openzeppelin/contracts/utils/ReentrancyGuard.sol\":3972:3999  _reentrancyGuardStorageSlot */\n      tag_361\n        /* \"@openzeppelin/contracts/utils/ReentrancyGuard.sol\":3972:4001  _reentrancyGuardStorageSlot() */\n      jump\t// in\n    tag_360:\n        /* \"@openzeppelin/contracts/utils/ReentrancyGuard.sol\":3972:4016  _reentrancyGuardStorageSlot().getUint256Slot */\n      tag_362\n        /* \"@openzeppelin/contracts/utils/ReentrancyGuard.sol\":3972:4018  _reentrancyGuardStorageSlot().getUint256Slot() */\n      jump\t// in\n    tag_359:\n        /* \"@openzeppelin/contracts/utils/ReentrancyGuard.sol\":3972:4024  _reentrancyGuardStorageSlot().getUint256Slot().value */\n      0x00\n      add\n        /* \"@openzeppelin/contracts/utils/ReentrancyGuard.sol\":3972:4034  _reentrancyGuardStorageSlot().getUint256Slot().value = ENTERED */\n      dup2\n      swap1\n      sstore\n      pop\n        /* \"@openzeppelin/contracts/utils/ReentrancyGuard.sol\":3749:4041  function _nonReentrantBefore() private {... */\n      jump\t// out\n        /* \"@openzeppelin/contracts/utils/ReentrancyGuard.sol\":4047:4300  function _nonReentrantAfter() private {... */\n    tag_188:\n        /* \"@openzeppelin/contracts/utils/ReentrancyGuard.sol\":2365:2366  1 */\n      0x01\n        /* \"@openzeppelin/contracts/utils/ReentrancyGuard.sol\":4227:4273  _reentrancyGuardStorageSlot().getUint256Slot() */\n      tag_364\n        /* \"@openzeppelin/contracts/utils/ReentrancyGuard.sol\":4227:4256  _reentrancyGuardStorageSlot() */\n      tag_365\n        /* \"@openzeppelin/contracts/utils/ReentrancyGuard.sol\":4227:4254  _reentrancyGuardStorageSlot */\n      tag_361\n        /* \"@openzeppelin/contracts/utils/ReentrancyGuard.sol\":4227:4256  _reentrancyGuardStorageSlot() */\n      jump\t// in\n    tag_365:\n        /* \"@openzeppelin/contracts/utils/ReentrancyGuard.sol\":4227:4271  _reentrancyGuardStorageSlot().getUint256Slot */\n      tag_362\n        /* \"@openzeppelin/contracts/utils/ReentrancyGuard.sol\":4227:4273  _reentrancyGuardStorageSlot().getUint256Slot() */\n      jump\t// in\n    tag_364:\n        /* \"@openzeppelin/contracts/utils/ReentrancyGuard.sol\":4227:4279  _reentrancyGuardStorageSlot().getUint256Slot().value */\n      0x00\n      add\n        /* \"@openzeppelin/contracts/utils/ReentrancyGuard.sol\":4227:4293  _reentrancyGuardStorageSlot().getUint256Slot().value = NOT_ENTERED */\n      dup2\n      swap1\n      sstore\n      pop\n        /* \"@openzeppelin/contracts/utils/ReentrancyGuard.sol\":4047:4300  function _nonReentrantAfter() private {... */\n      jump\t// out\n        /* \"@openzeppelin/contracts/access/Ownable.sol\":2912:3099  function _transferOwnership(address newOwner) internal virtual {... */\n    tag_223:\n        /* \"@openzeppelin/contracts/access/Ownable.sol\":2985:3001  address oldOwner */\n      0x00\n        /* \"@openzeppelin/contracts/access/Ownable.sol\":3004:3010  _owner */\n      dup1\n      0x00\n      swap1\n      sload\n      swap1\n      0x0100\n      exp\n      swap1\n      div\n      0xffffffffffffffffffffffffffffffffffffffff\n      and\n        /* \"@openzeppelin/contracts/access/Ownable.sol\":2985:3010  address oldOwner = _owner */\n      swap1\n      pop\n        /* \"@openzeppelin/contracts/access/Ownable.sol\":3029:3037  newOwner */\n      dup2\n        /* \"@openzeppelin/contracts/access/Ownable.sol\":3020:3026  _owner */\n      0x00\n      dup1\n        /* \"@openzeppelin/contracts/access/Ownable.sol\":3020:3037  _owner = newOwner */\n      0x0100\n      exp\n      dup2\n      sload\n      dup2\n      0xffffffffffffffffffffffffffffffffffffffff\n      mul\n      not\n      and\n      swap1\n      dup4\n      0xffffffffffffffffffffffffffffffffffffffff\n      and\n      mul\n      or\n      swap1\n      sstore\n      pop\n        /* \"@openzeppelin/contracts/access/Ownable.sol\":3083:3091  newOwner */\n      dup2\n        /* \"@openzeppelin/contracts/access/Ownable.sol\":3052:3092  OwnershipTransferred(oldOwner, newOwner) */\n      0xffffffffffffffffffffffffffffffffffffffff\n      and\n        /* \"@openzeppelin/contracts/access/Ownable.sol\":3073:3081  oldOwner */\n      dup2\n        /* \"@openzeppelin/contracts/access/Ownable.sol\":3052:3092  OwnershipTransferred(oldOwner, newOwner) */\n      0xffffffffffffffffffffffffffffffffffffffff\n      and\n      0x8be0079c531659141344cd1fd0a4f28419497f9722a3daafe3b4186f6b6457e0\n      mload(0x40)\n      mload(0x40)\n      dup1\n      swap2\n      sub\n      swap1\n      log3\n        /* \"@openzeppelin/contracts/access/Ownable.sol\":2975:3099  {... */\n      pop\n        /* \"@openzeppelin/contracts/access/Ownable.sol\":2912:3099  function _transferOwnership(address newOwner) internal virtual {... */\n      pop\n      jump\t// out\n        /* \"@openzeppelin/contracts/utils/Context.sol\":656:752  function _msgSender() internal view virtual returns (address) {... */\n    tag_351:\n        /* \"@openzeppelin/contracts/utils/Context.sol\":709:716  address */\n      0x00\n        /* \"@openzeppelin/contracts/utils/Context.sol\":735:745  msg.sender */\n      caller\n        /* \"@openzeppelin/contracts/utils/Context.sol\":728:745  return msg.sender */\n      swap1\n      pop\n        /* \"@openzeppelin/contracts/utils/Context.sol\":656:752  function _msgSender() internal view virtual returns (address) {... */\n      swap1\n      jump\t// out\n        /* \"@openzeppelin/contracts/utils/ReentrancyGuard.sol\":3586:3743  function _nonReentrantBeforeView() private view {... */\n    tag_358:\n        /* \"@openzeppelin/contracts/utils/ReentrancyGuard.sol\":3648:3673  _reentrancyGuardEntered() */\n      tag_369\n        /* \"@openzeppelin/contracts/utils/ReentrancyGuard.sol\":3648:3671  _reentrancyGuardEntered */\n      tag_370\n        /* \"@openzeppelin/contracts/utils/ReentrancyGuard.sol\":3648:3673  _reentrancyGuardEntered() */\n      jump\t// in\n    tag_369:\n        /* \"@openzeppelin/contracts/utils/ReentrancyGuard.sol\":3644:3737  if (_reentrancyGuardEntered()) {... */\n      iszero\n      tag_371\n      jumpi\n        /* \"@openzeppelin/contracts/utils/ReentrancyGuard.sol\":3696:3726  ReentrancyGuardReentrantCall() */\n      mload(0x40)\n      0x3ee5aeb500000000000000000000000000000000000000000000000000000000\n      dup2\n      mstore\n      0x04\n      add\n      mload(0x40)\n      dup1\n      swap2\n      sub\n      swap1\n      revert\n        /* \"@openzeppelin/contracts/utils/ReentrancyGuard.sol\":3644:3737  if (_reentrancyGuardEntered()) {... */\n    tag_371:\n        /* \"@openzeppelin/contracts/utils/ReentrancyGuard.sol\":3586:3743  function _nonReentrantBeforeView() private view {... */\n      jump\t// out\n        /* \"@openzeppelin/contracts/utils/ReentrancyGuard.sol\":4636:4763  function _reentrancyGuardStorageSlot() internal pure virtual returns (bytes32) {... */\n    tag_361:\n        /* \"@openzeppelin/contracts/utils/ReentrancyGuard.sol\":4706:4713  bytes32 */\n      0x00\n        /* \"@openzeppelin/contracts/utils/ReentrancyGuard.sol\":1505:1571  0x9b779b17422d0df92223018b32b4d1fa46e071723d6817e2486d003becc55f00 */\n      0x9b779b17422d0df92223018b32b4d1fa46e071723d6817e2486d003becc55f00\n        /* \"@openzeppelin/contracts/utils/ReentrancyGuard.sol\":4732:4756  REENTRANCY_GUARD_STORAGE */\n      0x00\n      shl\n        /* \"@openzeppelin/contracts/utils/ReentrancyGuard.sol\":4725:4756  return REENTRANCY_GUARD_STORAGE */\n      swap1\n      pop\n        /* \"@openzeppelin/contracts/utils/ReentrancyGuard.sol\":4636:4763  function _reentrancyGuardStorageSlot() internal pure virtual returns (bytes32) {... */\n      swap1\n      jump\t// out\n        /* \"@openzeppelin/contracts/utils/StorageSlot.sol\":2679:2842  function getUint256Slot(bytes32 slot) internal pure returns (Uint256Slot storage r) {... */\n    tag_362:\n        /* \"@openzeppelin/contracts/utils/StorageSlot.sol\":2740:2761  Uint256Slot storage r */\n      0x00\n        /* \"@openzeppelin/contracts/utils/StorageSlot.sol\":2822:2826  slot */\n      dup2\n        /* \"@openzeppelin/contracts/utils/StorageSlot.sol\":2812:2826  r.slot := slot */\n      swap1\n      pop\n        /* \"@openzeppelin/contracts/utils/StorageSlot.sol\":2679:2842  function getUint256Slot(bytes32 slot) internal pure returns (Uint256Slot storage r) {... */\n      swap2\n      swap1\n      pop\n      jump\t// out\n        /* \"@openzeppelin/contracts/utils/ReentrancyGuard.sol\":4479:4630  function _reentrancyGuardEntered() internal view returns (bool) {... */\n    tag_370:\n        /* \"@openzeppelin/contracts/utils/ReentrancyGuard.sol\":4537:4541  bool */\n      0x00\n        /* \"@openzeppelin/contracts/utils/ReentrancyGuard.sol\":2407:2408  2 */\n      0x02\n        /* \"@openzeppelin/contracts/utils/ReentrancyGuard.sol\":4560:4606  _reentrancyGuardStorageSlot().getUint256Slot() */\n      tag_375\n        /* \"@openzeppelin/contracts/utils/ReentrancyGuard.sol\":4560:4589  _reentrancyGuardStorageSlot() */\n      tag_376\n        /* \"@openzeppelin/contracts/utils/ReentrancyGuard.sol\":4560:4587  _reentrancyGuardStorageSlot */\n      tag_361\n        /* \"@openzeppelin/contracts/utils/ReentrancyGuard.sol\":4560:4589  _reentrancyGuardStorageSlot() */\n      jump\t// in\n    tag_376:\n        /* \"@openzeppelin/contracts/utils/ReentrancyGuard.sol\":4560:4604  _reentrancyGuardStorageSlot().getUint256Slot */\n      tag_362\n        /* \"@openzeppelin/contracts/utils/ReentrancyGuard.sol\":4560:4606  _reentrancyGuardStorageSlot().getUint256Slot() */\n      jump\t// in\n    tag_375:\n        /* \"@openzeppelin/contracts/utils/ReentrancyGuard.sol\":4560:4612  _reentrancyGuardStorageSlot().getUint256Slot().value */\n      0x00\n      add\n      sload\n        /* \"@openzeppelin/contracts/utils/ReentrancyGuard.sol\":4560:4623  _reentrancyGuardStorageSlot().getUint256Slot().value == ENTERED */\n      eq\n        /* \"@openzeppelin/contracts/utils/ReentrancyGuard.sol\":4553:4623  return _reentrancyGuardStorageSlot().getUint256Slot().value == ENTERED */\n      swap1\n      pop\n        /* \"@openzeppelin/contracts/utils/ReentrancyGuard.sol\":4479:4630  function _reentrancyGuardEntered() internal view returns (bool) {... */\n      swap1\n      jump\t// out\n        /* \"#utility.yul\":7:84   */\n    tag_377:\n        /* \"#utility.yul\":44:51   */\n      0x00\n        /* \"#utility.yul\":73:78   */\n      dup2\n        /* \"#utility.yul\":62:78   */\n      swap1\n      pop\n        /* \"#utility.yul\":7:84   */\n      swap2\n      swap1\n      pop\n      jump\t// out\n        /* \"#utility.yul\":90:270   */\n    tag_378:\n        /* \"#utility.yul\":138:215   */\n      0x4e487b7100000000000000000000000000000000000000000000000000000000\n        /* \"#utility.yul\":135:136   */\n      0x00\n        /* \"#utility.yul\":128:216   */\n      mstore\n        /* \"#utility.yul\":235:239   */\n      0x11\n        /* \"#utility.yul\":232:233   */\n      0x04\n        /* \"#utility.yul\":225:240   */\n      mstore\n        /* \"#utility.yul\":259:263   */\n      0x24\n        /* \"#utility.yul\":256:257   */\n      0x00\n        /* \"#utility.yul\":249:264   */\n      revert\n        /* \"#utility.yul\":276:467   */\n    tag_42:\n        /* \"#utility.yul\":316:319   */\n      0x00\n        /* \"#utility.yul\":335:355   */\n      tag_418\n        /* \"#utility.yul\":353:354   */\n      dup3\n        /* \"#utility.yul\":335:355   */\n      tag_377\n      jump\t// in\n    tag_418:\n        /* \"#utility.yul\":330:355   */\n      swap2\n      pop\n        /* \"#utility.yul\":369:389   */\n      tag_419\n        /* \"#utility.yul\":387:388   */\n      dup4\n        /* \"#utility.yul\":369:389   */\n      tag_377\n      jump\t// in\n    tag_419:\n        /* \"#utility.yul\":364:389   */\n      swap3\n      pop\n        /* \"#utility.yul\":412:413   */\n      dup3\n        /* \"#utility.yul\":409:410   */\n      dup3\n        /* \"#utility.yul\":405:414   */\n      add\n        /* \"#utility.yul\":398:414   */\n      swap1\n      pop\n        /* \"#utility.yul\":433:436   */\n      dup1\n        /* \"#utility.yul\":430:431   */\n      dup3\n        /* \"#utility.yul\":427:437   */\n      gt\n        /* \"#utility.yul\":424:460   */\n      iszero\n      tag_420\n      jumpi\n        /* \"#utility.yul\":440:458   */\n      tag_421\n      tag_378\n      jump\t// in\n    tag_421:\n        /* \"#utility.yul\":424:460   */\n    tag_420:\n        /* \"#utility.yul\":276:467   */\n      swap3\n      swap2\n      pop\n      pop\n      jump\t// out\n        /* \"#utility.yul\":473:591   */\n    tag_379:\n        /* \"#utility.yul\":560:584   */\n      tag_423\n        /* \"#utility.yul\":578:583   */\n      dup2\n        /* \"#utility.yul\":560:584   */\n      tag_377\n      jump\t// in\n    tag_423:\n        /* \"#utility.yul\":555:558   */\n      dup3\n        /* \"#utility.yul\":548:585   */\n      mstore\n        /* \"#utility.yul\":473:591   */\n      pop\n      pop\n      jump\t// out\n        /* \"#utility.yul\":597:819   */\n    tag_44:\n        /* \"#utility.yul\":690:694   */\n      0x00\n        /* \"#utility.yul\":728:730   */\n      0x20\n        /* \"#utility.yul\":717:726   */\n      dup3\n        /* \"#utility.yul\":713:731   */\n      add\n        /* \"#utility.yul\":705:731   */\n      swap1\n      pop\n        /* \"#utility.yul\":741:812   */\n      tag_425\n        /* \"#utility.yul\":809:810   */\n      0x00\n        /* \"#utility.yul\":798:807   */\n      dup4\n        /* \"#utility.yul\":794:811   */\n      add\n        /* \"#utility.yul\":785:791   */\n      dup5\n        /* \"#utility.yul\":741:812   */\n      tag_379\n      jump\t// in\n    tag_425:\n        /* \"#utility.yul\":597:819   */\n      swap3\n      swap2\n      pop\n      pop\n      jump\t// out\n        /* \"#utility.yul\":825:951   */\n    tag_380:\n        /* \"#utility.yul\":862:869   */\n      0x00\n        /* \"#utility.yul\":902:944   */\n      0xffffffffffffffffffffffffffffffffffffffff\n        /* \"#utility.yul\":895:900   */\n      dup3\n        /* \"#utility.yul\":891:945   */\n      and\n        /* \"#utility.yul\":880:945   */\n      swap1\n      pop\n        /* \"#utility.yul\":825:951   */\n      swap2\n      swap1\n      pop\n      jump\t// out\n        /* \"#utility.yul\":957:1017   */\n    tag_381:\n        /* \"#utility.yul\":985:988   */\n      0x00\n        /* \"#utility.yul\":1006:1011   */\n      dup2\n        /* \"#utility.yul\":999:1011   */\n      swap1\n      pop\n        /* \"#utility.yul\":957:1017   */\n      swap2\n      swap1\n      pop\n      jump\t// out\n        /* \"#utility.yul\":1023:1165   */\n    tag_382:\n        /* \"#utility.yul\":1073:1082   */\n      0x00\n        /* \"#utility.yul\":1106:1159   */\n      tag_429\n        /* \"#utility.yul\":1124:1158   */\n      tag_430\n        /* \"#utility.yul\":1133:1157   */\n      tag_431\n        /* \"#utility.yul\":1151:1156   */\n      dup5\n        /* \"#utility.yul\":1133:1157   */\n      tag_380\n      jump\t// in\n    tag_431:\n        /* \"#utility.yul\":1124:1158   */\n      tag_381\n      jump\t// in\n    tag_430:\n        /* \"#utility.yul\":1106:1159   */\n      tag_380\n      jump\t// in\n    tag_429:\n        /* \"#utility.yul\":1093:1159   */\n      swap1\n      pop\n        /* \"#utility.yul\":1023:1165   */\n      swap2\n      swap1\n      pop\n      jump\t// out\n        /* \"#utility.yul\":1171:1297   */\n    tag_383:\n        /* \"#utility.yul\":1221:1230   */\n      0x00\n        /* \"#utility.yul\":1254:1291   */\n      tag_433\n        /* \"#utility.yul\":1285:1290   */\n      dup3\n        /* \"#utility.yul\":1254:1291   */\n      tag_382\n      jump\t// in\n    tag_433:\n        /* \"#utility.yul\":1241:1291   */\n      swap1\n      pop\n        /* \"#utility.yul\":1171:1297   */\n      swap2\n      swap1\n      pop\n      jump\t// out\n        /* \"#utility.yul\":1303:1449   */\n    tag_384:\n        /* \"#utility.yul\":1373:1382   */\n      0x00\n        /* \"#utility.yul\":1406:1443   */\n      tag_435\n        /* \"#utility.yul\":1437:1442   */\n      dup3\n        /* \"#utility.yul\":1406:1443   */\n      tag_383\n      jump\t// in\n    tag_435:\n        /* \"#utility.yul\":1393:1443   */\n      swap1\n      pop\n        /* \"#utility.yul\":1303:1449   */\n      swap2\n      swap1\n      pop\n      jump\t// out\n        /* \"#utility.yul\":1455:1626   */\n    tag_385:\n        /* \"#utility.yul\":1562:1619   */\n      tag_437\n        /* \"#utility.yul\":1613:1618   */\n      dup2\n        /* \"#utility.yul\":1562:1619   */\n      tag_384\n      jump\t// in\n    tag_437:\n        /* \"#utility.yul\":1557:1560   */\n      dup3\n        /* \"#utility.yul\":1550:1620   */\n      mstore\n        /* \"#utility.yul\":1455:1626   */\n      pop\n      pop\n      jump\t// out\n        /* \"#utility.yul\":1632:1894   */\n    tag_49:\n        /* \"#utility.yul\":1745:1749   */\n      0x00\n        /* \"#utility.yul\":1783:1785   */\n      0x20\n        /* \"#utility.yul\":1772:1781   */\n      dup3\n        /* \"#utility.yul\":1768:1786   */\n      add\n        /* \"#utility.yul\":1760:1786   */\n      swap1\n      pop\n        /* \"#utility.yul\":1796:1887   */\n      tag_439\n        /* \"#utility.yul\":1884:1885   */\n      0x00\n        /* \"#utility.yul\":1873:1882   */\n      dup4\n        /* \"#utility.yul\":1869:1886   */\n      add\n        /* \"#utility.yul\":1860:1866   */\n      dup5\n        /* \"#utility.yul\":1796:1887   */\n      tag_385\n      jump\t// in\n    tag_439:\n        /* \"#utility.yul\":1632:1894   */\n      swap3\n      swap2\n      pop\n      pop\n      jump\t// out\n        /* \"#utility.yul\":1981:2098   */\n    tag_387:\n        /* \"#utility.yul\":2090:2091   */\n      0x00\n        /* \"#utility.yul\":2087:2088   */\n      dup1\n        /* \"#utility.yul\":2080:2092   */\n      revert\n        /* \"#utility.yul\":2227:2323   */\n    tag_389:\n        /* \"#utility.yul\":2264:2271   */\n      0x00\n        /* \"#utility.yul\":2293:2317   */\n      tag_444\n        /* \"#utility.yul\":2311:2316   */\n      dup3\n        /* \"#utility.yul\":2293:2317   */\n      tag_380\n      jump\t// in\n    tag_444:\n        /* \"#utility.yul\":2282:2317   */\n      swap1\n      pop\n        /* \"#utility.yul\":2227:2323   */\n      swap2\n      swap1\n      pop\n      jump\t// out\n        /* \"#utility.yul\":2329:2451   */\n    tag_390:\n        /* \"#utility.yul\":2402:2426   */\n      tag_446\n        /* \"#utility.yul\":2420:2425   */\n      dup2\n        /* \"#utility.yul\":2402:2426   */\n      tag_389\n      jump\t// in\n    tag_446:\n        /* \"#utility.yul\":2395:2400   */\n      dup2\n        /* \"#utility.yul\":2392:2427   */\n      eq\n        /* \"#utility.yul\":2382:2445   */\n      tag_447\n      jumpi\n        /* \"#utility.yul\":2441:2442   */\n      0x00\n        /* \"#utility.yul\":2438:2439   */\n      dup1\n        /* \"#utility.yul\":2431:2443   */\n      revert\n        /* \"#utility.yul\":2382:2445   */\n    tag_447:\n        /* \"#utility.yul\":2329:2451   */\n      pop\n      jump\t// out\n        /* \"#utility.yul\":2457:2596   */\n    tag_391:\n        /* \"#utility.yul\":2503:2508   */\n      0x00\n        /* \"#utility.yul\":2541:2547   */\n      dup2\n        /* \"#utility.yul\":2528:2548   */\n      calldataload\n        /* \"#utility.yul\":2519:2548   */\n      swap1\n      pop\n        /* \"#utility.yul\":2557:2590   */\n      tag_449\n        /* \"#utility.yul\":2584:2589   */\n      dup2\n        /* \"#utility.yul\":2557:2590   */\n      tag_390\n      jump\t// in\n    tag_449:\n        /* \"#utility.yul\":2457:2596   */\n      swap3\n      swap2\n      pop\n      pop\n      jump\t// out\n        /* \"#utility.yul\":2602:2931   */\n    tag_53:\n        /* \"#utility.yul\":2661:2667   */\n      0x00\n        /* \"#utility.yul\":2710:2712   */\n      0x20\n        /* \"#utility.yul\":2698:2707   */\n      dup3\n        /* \"#utility.yul\":2689:2696   */\n      dup5\n        /* \"#utility.yul\":2685:2708   */\n      sub\n        /* \"#utility.yul\":2681:2713   */\n      slt\n        /* \"#utility.yul\":2678:2797   */\n      iszero\n      tag_451\n      jumpi\n        /* \"#utility.yul\":2716:2795   */\n      tag_452\n      tag_387\n      jump\t// in\n    tag_452:\n        /* \"#utility.yul\":2678:2797   */\n    tag_451:\n        /* \"#utility.yul\":2836:2837   */\n      0x00\n        /* \"#utility.yul\":2861:2914   */\n      tag_453\n        /* \"#utility.yul\":2906:2913   */\n      dup5\n        /* \"#utility.yul\":2897:2903   */\n      dup3\n        /* \"#utility.yul\":2886:2895   */\n      dup6\n        /* \"#utility.yul\":2882:2904   */\n      add\n        /* \"#utility.yul\":2861:2914   */\n      tag_391\n      jump\t// in\n    tag_453:\n        /* \"#utility.yul\":2851:2914   */\n      swap2\n      pop\n        /* \"#utility.yul\":2807:2924   */\n      pop\n        /* \"#utility.yul\":2602:2931   */\n      swap3\n      swap2\n      pop\n      pop\n      jump\t// out\n        /* \"#utility.yul\":2937:3027   */\n    tag_392:\n        /* \"#utility.yul\":2971:2978   */\n      0x00\n        /* \"#utility.yul\":3014:3019   */\n      dup2\n        /* \"#utility.yul\":3007:3020   */\n      iszero\n        /* \"#utility.yul\":3000:3021   */\n      iszero\n        /* \"#utility.yul\":2989:3021   */\n      swap1\n      pop\n        /* \"#utility.yul\":2937:3027   */\n      swap2\n      swap1\n      pop\n      jump\t// out\n        /* \"#utility.yul\":3033:3142   */\n    tag_393:\n        /* \"#utility.yul\":3114:3135   */\n      tag_456\n        /* \"#utility.yul\":3129:3134   */\n      dup2\n        /* \"#utility.yul\":3114:3135   */\n      tag_392\n      jump\t// in\n    tag_456:\n        /* \"#utility.yul\":3109:3112   */\n      dup3\n        /* \"#utility.yul\":3102:3136   */\n      mstore\n        /* \"#utility.yul\":3033:3142   */\n      pop\n      pop\n      jump\t// out\n        /* \"#utility.yul\":3148:3358   */\n    tag_56:\n        /* \"#utility.yul\":3235:3239   */\n      0x00\n        /* \"#utility.yul\":3273:3275   */\n      0x20\n        /* \"#utility.yul\":3262:3271   */\n      dup3\n        /* \"#utility.yul\":3258:3276   */\n      add\n        /* \"#utility.yul\":3250:3276   */\n      swap1\n      pop\n        /* \"#utility.yul\":3286:3351   */\n      tag_458\n        /* \"#utility.yul\":3348:3349   */\n      0x00\n        /* \"#utility.yul\":3337:3346   */\n      dup4\n        /* \"#utility.yul\":3333:3350   */\n      add\n        /* \"#utility.yul\":3324:3330   */\n      dup5\n        /* \"#utility.yul\":3286:3351   */\n      tag_393\n      jump\t// in\n    tag_458:\n        /* \"#utility.yul\":3148:3358   */\n      swap3\n      swap2\n      pop\n      pop\n      jump\t// out\n        /* \"#utility.yul\":3364:3482   */\n    tag_394:\n        /* \"#utility.yul\":3451:3475   */\n      tag_460\n        /* \"#utility.yul\":3469:3474   */\n      dup2\n        /* \"#utility.yul\":3451:3475   */\n      tag_389\n      jump\t// in\n    tag_460:\n        /* \"#utility.yul\":3446:3449   */\n      dup3\n        /* \"#utility.yul\":3439:3476   */\n      mstore\n        /* \"#utility.yul\":3364:3482   */\n      pop\n      pop\n      jump\t// out\n        /* \"#utility.yul\":3488:3710   */\n    tag_61:\n        /* \"#utility.yul\":3581:3585   */\n      0x00\n        /* \"#utility.yul\":3619:3621   */\n      0x20\n        /* \"#utility.yul\":3608:3617   */\n      dup3\n        /* \"#utility.yul\":3604:3622   */\n      add\n        /* \"#utility.yul\":3596:3622   */\n      swap1\n      pop\n        /* \"#utility.yul\":3632:3703   */\n      tag_462\n        /* \"#utility.yul\":3700:3701   */\n      0x00\n        /* \"#utility.yul\":3689:3698   */\n      dup4\n        /* \"#utility.yul\":3685:3702   */\n      add\n        /* \"#utility.yul\":3676:3682   */\n      dup5\n        /* \"#utility.yul\":3632:3703   */\n      tag_394\n      jump\t// in\n    tag_462:\n        /* \"#utility.yul\":3488:3710   */\n      swap3\n      swap2\n      pop\n      pop\n      jump\t// out\n        /* \"#utility.yul\":3716:3838   */\n    tag_395:\n        /* \"#utility.yul\":3789:3813   */\n      tag_464\n        /* \"#utility.yul\":3807:3812   */\n      dup2\n        /* \"#utility.yul\":3789:3813   */\n      tag_377\n      jump\t// in\n    tag_464:\n        /* \"#utility.yul\":3782:3787   */\n      dup2\n        /* \"#utility.yul\":3779:3814   */\n      eq\n        /* \"#utility.yul\":3769:3832   */\n      tag_465\n      jumpi\n        /* \"#utility.yul\":3828:3829   */\n      0x00\n        /* \"#utility.yul\":3825:3826   */\n      dup1\n        /* \"#utility.yul\":3818:3830   */\n      revert\n        /* \"#utility.yul\":3769:3832   */\n    tag_465:\n        /* \"#utility.yul\":3716:3838   */\n      pop\n      jump\t// out\n        /* \"#utility.yul\":3844:3983   */\n    tag_396:\n        /* \"#utility.yul\":3890:3895   */\n      0x00\n        /* \"#utility.yul\":3928:3934   */\n      dup2\n        /* \"#utility.yul\":3915:3935   */\n      calldataload\n        /* \"#utility.yul\":3906:3935   */\n      swap1\n      pop\n        /* \"#utility.yul\":3944:3977   */\n      tag_467\n        /* \"#utility.yul\":3971:3976   */\n      dup2\n        /* \"#utility.yul\":3944:3977   */\n      tag_395\n      jump\t// in\n    tag_467:\n        /* \"#utility.yul\":3844:3983   */\n      swap3\n      swap2\n      pop\n      pop\n      jump\t// out\n        /* \"#utility.yul\":3989:4463   */\n    tag_69:\n        /* \"#utility.yul\":4057:4063   */\n      0x00\n        /* \"#utility.yul\":4065:4071   */\n      dup1\n        /* \"#utility.yul\":4114:4116   */\n      0x40\n        /* \"#utility.yul\":4102:4111   */\n      dup4\n        /* \"#utility.yul\":4093:4100   */\n      dup6\n        /* \"#utility.yul\":4089:4112   */\n      sub\n        /* \"#utility.yul\":4085:4117   */\n      slt\n        /* \"#utility.yul\":4082:4201   */\n      iszero\n      tag_469\n      jumpi\n        /* \"#utility.yul\":4120:4199   */\n      tag_470\n      tag_387\n      jump\t// in\n    tag_470:\n        /* \"#utility.yul\":4082:4201   */\n    tag_469:\n        /* \"#utility.yul\":4240:4241   */\n      0x00\n        /* \"#utility.yul\":4265:4318   */\n      tag_471\n        /* \"#utility.yul\":4310:4317   */\n      dup6\n        /* \"#utility.yul\":4301:4307   */\n      dup3\n        /* \"#utility.yul\":4290:4299   */\n      dup7\n        /* \"#utility.yul\":4286:4308   */\n      add\n        /* \"#utility.yul\":4265:4318   */\n      tag_391\n      jump\t// in\n    tag_471:\n        /* \"#utility.yul\":4255:4318   */\n      swap3\n      pop\n        /* \"#utility.yul\":4211:4328   */\n      pop\n        /* \"#utility.yul\":4367:4369   */\n      0x20\n        /* \"#utility.yul\":4393:4446   */\n      tag_472\n        /* \"#utility.yul\":4438:4445   */\n      dup6\n        /* \"#utility.yul\":4429:4435   */\n      dup3\n        /* \"#utility.yul\":4418:4427   */\n      dup7\n        /* \"#utility.yul\":4414:4436   */\n      add\n        /* \"#utility.yul\":4393:4446   */\n      tag_396\n      jump\t// in\n    tag_472:\n        /* \"#utility.yul\":4383:4446   */\n      swap2\n      pop\n        /* \"#utility.yul\":4338:4456   */\n      pop\n        /* \"#utility.yul\":3989:4463   */\n      swap3\n      pop\n      swap3\n      swap1\n      pop\n      jump\t// out\n        /* \"#utility.yul\":4469:4943   */\n    tag_74:\n        /* \"#utility.yul\":4537:4543   */\n      0x00\n        /* \"#utility.yul\":4545:4551   */\n      dup1\n        /* \"#utility.yul\":4594:4596   */\n      0x40\n        /* \"#utility.yul\":4582:4591   */\n      dup4\n        /* \"#utility.yul\":4573:4580   */\n      dup6\n        /* \"#utility.yul\":4569:4592   */\n      sub\n        /* \"#utility.yul\":4565:4597   */\n      slt\n        /* \"#utility.yul\":4562:4681   */\n      iszero\n      tag_474\n      jumpi\n        /* \"#utility.yul\":4600:4679   */\n      tag_475\n      tag_387\n      jump\t// in\n    tag_475:\n        /* \"#utility.yul\":4562:4681   */\n    tag_474:\n        /* \"#utility.yul\":4720:4721   */\n      0x00\n        /* \"#utility.yul\":4745:4798   */\n      tag_476\n        /* \"#utility.yul\":4790:4797   */\n      dup6\n        /* \"#utility.yul\":4781:4787   */\n      dup3\n        /* \"#utility.yul\":4770:4779   */\n      dup7\n        /* \"#utility.yul\":4766:4788   */\n      add\n        /* \"#utility.yul\":4745:4798   */\n      tag_396\n      jump\t// in\n    tag_476:\n        /* \"#utility.yul\":4735:4798   */\n      swap3\n      pop\n        /* \"#utility.yul\":4691:4808   */\n      pop\n        /* \"#utility.yul\":4847:4849   */\n      0x20\n        /* \"#utility.yul\":4873:4926   */\n      tag_477\n        /* \"#utility.yul\":4918:4925   */\n      dup6\n        /* \"#utility.yul\":4909:4915   */\n      dup3\n        /* \"#utility.yul\":4898:4907   */\n      dup7\n        /* \"#utility.yul\":4894:4916   */\n      add\n        /* \"#utility.yul\":4873:4926   */\n      tag_396\n      jump\t// in\n    tag_477:\n        /* \"#utility.yul\":4863:4926   */\n      swap2\n      pop\n        /* \"#utility.yul\":4818:4936   */\n      pop\n        /* \"#utility.yul\":4469:4943   */\n      swap3\n      pop\n      swap3\n      swap1\n      pop\n      jump\t// out\n        /* \"#utility.yul\":4949:5278   */\n    tag_102:\n        /* \"#utility.yul\":5008:5014   */\n      0x00\n        /* \"#utility.yul\":5057:5059   */\n      0x20\n        /* \"#utility.yul\":5045:5054   */\n      dup3\n        /* \"#utility.yul\":5036:5043   */\n      dup5\n        /* \"#utility.yul\":5032:5055   */\n      sub\n        /* \"#utility.yul\":5028:5060   */\n      slt\n        /* \"#utility.yul\":5025:5144   */\n      iszero\n      tag_479\n      jumpi\n        /* \"#utility.yul\":5063:5142   */\n      tag_480\n      tag_387\n      jump\t// in\n    tag_480:\n        /* \"#utility.yul\":5025:5144   */\n    tag_479:\n        /* \"#utility.yul\":5183:5184   */\n      0x00\n        /* \"#utility.yul\":5208:5261   */\n      tag_481\n        /* \"#utility.yul\":5253:5260   */\n      dup5\n        /* \"#utility.yul\":5244:5250   */\n      dup3\n        /* \"#utility.yul\":5233:5242   */\n      dup6\n        /* \"#utility.yul\":5229:5251   */\n      add\n        /* \"#utility.yul\":5208:5261   */\n      tag_396\n      jump\t// in\n    tag_481:\n        /* \"#utility.yul\":5198:5261   */\n      swap2\n      pop\n        /* \"#utility.yul\":5154:5271   */\n      pop\n        /* \"#utility.yul\":4949:5278   */\n      swap3\n      swap2\n      pop\n      pop\n      jump\t// out\n        /* \"#utility.yul\":5284:5400   */\n    tag_397:\n        /* \"#utility.yul\":5354:5375   */\n      tag_483\n        /* \"#utility.yul\":5369:5374   */\n      dup2\n        /* \"#utility.yul\":5354:5375   */\n      tag_392\n      jump\t// in\n    tag_483:\n        /* \"#utility.yul\":5347:5352   */\n      dup2\n        /* \"#utility.yul\":5344:5376   */\n      eq\n        /* \"#utility.yul\":5334:5394   */\n      tag_484\n      jumpi\n        /* \"#utility.yul\":5390:5391   */\n      0x00\n        /* \"#utility.yul\":5387:5388   */\n      dup1\n        /* \"#utility.yul\":5380:5392   */\n      revert\n        /* \"#utility.yul\":5334:5394   */\n    tag_484:\n        /* \"#utility.yul\":5284:5400   */\n      pop\n      jump\t// out\n        /* \"#utility.yul\":5406:5539   */\n    tag_398:\n        /* \"#utility.yul\":5449:5454   */\n      0x00\n        /* \"#utility.yul\":5487:5493   */\n      dup2\n        /* \"#utility.yul\":5474:5494   */\n      calldataload\n        /* \"#utility.yul\":5465:5494   */\n      swap1\n      pop\n        /* \"#utility.yul\":5503:5533   */\n      tag_486\n        /* \"#utility.yul\":5527:5532   */\n      dup2\n        /* \"#utility.yul\":5503:5533   */\n      tag_397\n      jump\t// in\n    tag_486:\n        /* \"#utility.yul\":5406:5539   */\n      swap3\n      swap2\n      pop\n      pop\n      jump\t// out\n        /* \"#utility.yul\":5545:6013   */\n    tag_135:\n        /* \"#utility.yul\":5610:5616   */\n      0x00\n        /* \"#utility.yul\":5618:5624   */\n      dup1\n        /* \"#utility.yul\":5667:5669   */\n      0x40\n        /* \"#utility.yul\":5655:5664   */\n      dup4\n        /* \"#utility.yul\":5646:5653   */\n      dup6\n        /* \"#utility.yul\":5642:5665   */\n      sub\n        /* \"#utility.yul\":5638:5670   */\n      slt\n        /* \"#utility.yul\":5635:5754   */\n      iszero\n      tag_488\n      jumpi\n        /* \"#utility.yul\":5673:5752   */\n      tag_489\n      tag_387\n      jump\t// in\n    tag_489:\n        /* \"#utility.yul\":5635:5754   */\n    tag_488:\n        /* \"#utility.yul\":5793:5794   */\n      0x00\n        /* \"#utility.yul\":5818:5871   */\n      tag_490\n        /* \"#utility.yul\":5863:5870   */\n      dup6\n        /* \"#utility.yul\":5854:5860   */\n      dup3\n        /* \"#utility.yul\":5843:5852   */\n      dup7\n        /* \"#utility.yul\":5839:5861   */\n      add\n        /* \"#utility.yul\":5818:5871   */\n      tag_391\n      jump\t// in\n    tag_490:\n        /* \"#utility.yul\":5808:5871   */\n      swap3\n      pop\n        /* \"#utility.yul\":5764:5881   */\n      pop\n        /* \"#utility.yul\":5920:5922   */\n      0x20\n        /* \"#utility.yul\":5946:5996   */\n      tag_491\n        /* \"#utility.yul\":5988:5995   */\n      dup6\n        /* \"#utility.yul\":5979:5985   */\n      dup3\n        /* \"#utility.yul\":5968:5977   */\n      dup7\n        /* \"#utility.yul\":5964:5986   */\n      add\n        /* \"#utility.yul\":5946:5996   */\n      tag_398\n      jump\t// in\n    tag_491:\n        /* \"#utility.yul\":5936:5996   */\n      swap2\n      pop\n        /* \"#utility.yul\":5891:6006   */\n      pop\n        /* \"#utility.yul\":5545:6013   */\n      swap3\n      pop\n      swap3\n      swap1\n      pop\n      jump\t// out\n        /* \"#utility.yul\":6019:6572   */\n    tag_145:\n        /* \"#utility.yul\":6196:6200   */\n      0x00\n        /* \"#utility.yul\":6234:6237   */\n      0x80\n        /* \"#utility.yul\":6223:6232   */\n      dup3\n        /* \"#utility.yul\":6219:6238   */\n      add\n        /* \"#utility.yul\":6211:6238   */\n      swap1\n      pop\n        /* \"#utility.yul\":6248:6319   */\n      tag_493\n        /* \"#utility.yul\":6316:6317   */\n      0x00\n        /* \"#utility.yul\":6305:6314   */\n      dup4\n        /* \"#utility.yul\":6301:6318   */\n      add\n        /* \"#utility.yul\":6292:6298   */\n      dup8\n        /* \"#utility.yul\":6248:6319   */\n      tag_379\n      jump\t// in\n    tag_493:\n        /* \"#utility.yul\":6329:6401   */\n      tag_494\n        /* \"#utility.yul\":6397:6399   */\n      0x20\n        /* \"#utility.yul\":6386:6395   */\n      dup4\n        /* \"#utility.yul\":6382:6400   */\n      add\n        /* \"#utility.yul\":6373:6379   */\n      dup7\n        /* \"#utility.yul\":6329:6401   */\n      tag_379\n      jump\t// in\n    tag_494:\n        /* \"#utility.yul\":6411:6483   */\n      tag_495\n        /* \"#utility.yul\":6479:6481   */\n      0x40\n        /* \"#utility.yul\":6468:6477   */\n      dup4\n        /* \"#utility.yul\":6464:6482   */\n      add\n        /* \"#utility.yul\":6455:6461   */\n      dup6\n        /* \"#utility.yul\":6411:6483   */\n      tag_379\n      jump\t// in\n    tag_495:\n        /* \"#utility.yul\":6493:6565   */\n      tag_496\n        /* \"#utility.yul\":6561:6563   */\n      0x60\n        /* \"#utility.yul\":6550:6559   */\n      dup4\n        /* \"#utility.yul\":6546:6564   */\n      add\n        /* \"#utility.yul\":6537:6543   */\n      dup5\n        /* \"#utility.yul\":6493:6565   */\n      tag_379\n      jump\t// in\n    tag_496:\n        /* \"#utility.yul\":6019:6572   */\n      swap6\n      swap5\n      pop\n      pop\n      pop\n      pop\n      pop\n      jump\t// out\n        /* \"#utility.yul\":6578:6910   */\n    tag_179:\n        /* \"#utility.yul\":6699:6703   */\n      0x00\n        /* \"#utility.yul\":6737:6739   */\n      0x40\n        /* \"#utility.yul\":6726:6735   */\n      dup3\n        /* \"#utility.yul\":6722:6740   */\n      add\n        /* \"#utility.yul\":6714:6740   */\n      swap1\n      pop\n        /* \"#utility.yul\":6750:6821   */\n      tag_498\n        /* \"#utility.yul\":6818:6819   */\n      0x00\n        /* \"#utility.yul\":6807:6816   */\n      dup4\n        /* \"#utility.yul\":6803:6820   */\n      add\n        /* \"#utility.yul\":6794:6800   */\n      dup6\n        /* \"#utility.yul\":6750:6821   */\n      tag_379\n      jump\t// in\n    tag_498:\n        /* \"#utility.yul\":6831:6903   */\n      tag_499\n        /* \"#utility.yul\":6899:6901   */\n      0x20\n        /* \"#utility.yul\":6888:6897   */\n      dup4\n        /* \"#utility.yul\":6884:6902   */\n      add\n        /* \"#utility.yul\":6875:6881   */\n      dup5\n        /* \"#utility.yul\":6831:6903   */\n      tag_379\n      jump\t// in\n    tag_499:\n        /* \"#utility.yul\":6578:6910   */\n      swap4\n      swap3\n      pop\n      pop\n      pop\n      jump\t// out\n        /* \"#utility.yul\":6916:7063   */\n    tag_399:\n        /* \"#utility.yul\":7017:7028   */\n      0x00\n        /* \"#utility.yul\":7054:7057   */\n      dup2\n        /* \"#utility.yul\":7039:7057   */\n      swap1\n      pop\n        /* \"#utility.yul\":6916:7063   */\n      swap3\n      swap2\n      pop\n      pop\n      jump\t// out\n        /* \"#utility.yul\":7069:7183   */\n    tag_400:\n      pop\n      jump\t// out\n        /* \"#utility.yul\":7189:7587   */\n    tag_401:\n        /* \"#utility.yul\":7348:7351   */\n      0x00\n        /* \"#utility.yul\":7369:7452   */\n      tag_503\n        /* \"#utility.yul\":7450:7451   */\n      0x00\n        /* \"#utility.yul\":7445:7448   */\n      dup4\n        /* \"#utility.yul\":7369:7452   */\n      tag_399\n      jump\t// in\n    tag_503:\n        /* \"#utility.yul\":7362:7452   */\n      swap2\n      pop\n        /* \"#utility.yul\":7461:7554   */\n      tag_504\n        /* \"#utility.yul\":7550:7553   */\n      dup3\n        /* \"#utility.yul\":7461:7554   */\n      tag_400\n      jump\t// in\n    tag_504:\n        /* \"#utility.yul\":7579:7580   */\n      0x00\n        /* \"#utility.yul\":7574:7577   */\n      dup3\n        /* \"#utility.yul\":7570:7581   */\n      add\n        /* \"#utility.yul\":7563:7581   */\n      swap1\n      pop\n        /* \"#utility.yul\":7189:7587   */\n      swap2\n      swap1\n      pop\n      jump\t// out\n        /* \"#utility.yul\":7593:7972   */\n    tag_181:\n        /* \"#utility.yul\":7777:7780   */\n      0x00\n        /* \"#utility.yul\":7799:7946   */\n      tag_506\n        /* \"#utility.yul\":7942:7945   */\n      dup3\n        /* \"#utility.yul\":7799:7946   */\n      tag_401\n      jump\t// in\n    tag_506:\n        /* \"#utility.yul\":7792:7946   */\n      swap2\n      pop\n        /* \"#utility.yul\":7963:7966   */\n      dup2\n        /* \"#utility.yul\":7956:7966   */\n      swap1\n      pop\n        /* \"#utility.yul\":7593:7972   */\n      swap2\n      swap1\n      pop\n      jump\t// out\n        /* \"#utility.yul\":7978:8121   */\n    tag_402:\n        /* \"#utility.yul\":8035:8040   */\n      0x00\n        /* \"#utility.yul\":8066:8072   */\n      dup2\n        /* \"#utility.yul\":8060:8073   */\n      mload\n        /* \"#utility.yul\":8051:8073   */\n      swap1\n      pop\n        /* \"#utility.yul\":8082:8115   */\n      tag_508\n        /* \"#utility.yul\":8109:8114   */\n      dup2\n        /* \"#utility.yul\":8082:8115   */\n      tag_395\n      jump\t// in\n    tag_508:\n        /* \"#utility.yul\":7978:8121   */\n      swap3\n      swap2\n      pop\n      pop\n      jump\t// out\n        /* \"#utility.yul\":8127:8478   */\n    tag_201:\n        /* \"#utility.yul\":8197:8203   */\n      0x00\n        /* \"#utility.yul\":8246:8248   */\n      0x20\n        /* \"#utility.yul\":8234:8243   */\n      dup3\n        /* \"#utility.yul\":8225:8232   */\n      dup5\n        /* \"#utility.yul\":8221:8244   */\n      sub\n        /* \"#utility.yul\":8217:8249   */\n      slt\n        /* \"#utility.yul\":8214:8333   */\n      iszero\n      tag_510\n      jumpi\n        /* \"#utility.yul\":8252:8331   */\n      tag_511\n      tag_387\n      jump\t// in\n    tag_511:\n        /* \"#utility.yul\":8214:8333   */\n    tag_510:\n        /* \"#utility.yul\":8372:8373   */\n      0x00\n        /* \"#utility.yul\":8397:8461   */\n      tag_512\n        /* \"#utility.yul\":8453:8460   */\n      dup5\n        /* \"#utility.yul\":8444:8450   */\n      dup3\n        /* \"#utility.yul\":8433:8442   */\n      dup6\n        /* \"#utility.yul\":8429:8451   */\n      add\n        /* \"#utility.yul\":8397:8461   */\n      tag_402\n      jump\t// in\n    tag_512:\n        /* \"#utility.yul\":8387:8461   */\n      swap2\n      pop\n        /* \"#utility.yul\":8343:8471   */\n      pop\n        /* \"#utility.yul\":8127:8478   */\n      swap3\n      swap2\n      pop\n      pop\n      jump\t// out\n        /* \"#utility.yul\":8484:8816   */\n    tag_204:\n        /* \"#utility.yul\":8605:8609   */\n      0x00\n        /* \"#utility.yul\":8643:8645   */\n      0x40\n        /* \"#utility.yul\":8632:8641   */\n      dup3\n        /* \"#utility.yul\":8628:8646   */\n      add\n        /* \"#utility.yul\":8620:8646   */\n      swap1\n      pop\n        /* \"#utility.yul\":8656:8727   */\n      tag_514\n        /* \"#utility.yul\":8724:8725   */\n      0x00\n        /* \"#utility.yul\":8713:8722   */\n      dup4\n        /* \"#utility.yul\":8709:8726   */\n      add\n        /* \"#utility.yul\":8700:8706   */\n      dup6\n        /* \"#utility.yul\":8656:8727   */\n      tag_394\n      jump\t// in\n    tag_514:\n        /* \"#utility.yul\":8737:8809   */\n      tag_515\n        /* \"#utility.yul\":8805:8807   */\n      0x20\n        /* \"#utility.yul\":8794:8803   */\n      dup4\n        /* \"#utility.yul\":8790:8808   */\n      add\n        /* \"#utility.yul\":8781:8787   */\n      dup5\n        /* \"#utility.yul\":8737:8809   */\n      tag_379\n      jump\t// in\n    tag_515:\n        /* \"#utility.yul\":8484:8816   */\n      swap4\n      swap3\n      pop\n      pop\n      pop\n      jump\t// out\n        /* \"#utility.yul\":8822:8936   */\n    tag_403:\n        /* \"#utility.yul\":8859:8866   */\n      0x00\n        /* \"#utility.yul\":8899:8929   */\n      0xffffffffffffffffffffffffffff\n        /* \"#utility.yul\":8892:8897   */\n      dup3\n        /* \"#utility.yul\":8888:8930   */\n      and\n        /* \"#utility.yul\":8877:8930   */\n      swap1\n      pop\n        /* \"#utility.yul\":8822:8936   */\n      swap2\n      swap1\n      pop\n      jump\t// out\n        /* \"#utility.yul\":8942:9064   */\n    tag_404:\n        /* \"#utility.yul\":9015:9039   */\n      tag_518\n        /* \"#utility.yul\":9033:9038   */\n      dup2\n        /* \"#utility.yul\":9015:9039   */\n      tag_403\n      jump\t// in\n    tag_518:\n        /* \"#utility.yul\":9008:9013   */\n      dup2\n        /* \"#utility.yul\":9005:9040   */\n      eq\n        /* \"#utility.yul\":8995:9058   */\n      tag_519\n      jumpi\n        /* \"#utility.yul\":9054:9055   */\n      0x00\n        /* \"#utility.yul\":9051:9052   */\n      dup1\n        /* \"#utility.yul\":9044:9056   */\n      revert\n        /* \"#utility.yul\":8995:9058   */\n    tag_519:\n        /* \"#utility.yul\":8942:9064   */\n      pop\n      jump\t// out\n        /* \"#utility.yul\":9070:9213   */\n    tag_405:\n        /* \"#utility.yul\":9127:9132   */\n      0x00\n        /* \"#utility.yul\":9158:9164   */\n      dup2\n        /* \"#utility.yul\":9152:9165   */\n      mload\n        /* \"#utility.yul\":9143:9165   */\n      swap1\n      pop\n        /* \"#utility.yul\":9174:9207   */\n      tag_521\n        /* \"#utility.yul\":9201:9206   */\n      dup2\n        /* \"#utility.yul\":9174:9207   */\n      tag_404\n      jump\t// in\n    tag_521:\n        /* \"#utility.yul\":9070:9213   */\n      swap3\n      swap2\n      pop\n      pop\n      jump\t// out\n        /* \"#utility.yul\":9219:9312   */\n    tag_406:\n        /* \"#utility.yul\":9255:9262   */\n      0x00\n        /* \"#utility.yul\":9295:9305   */\n      0xffffffff\n        /* \"#utility.yul\":9288:9293   */\n      dup3\n        /* \"#utility.yul\":9284:9306   */\n      and\n        /* \"#utility.yul\":9273:9306   */\n      swap1\n      pop\n        /* \"#utility.yul\":9219:9312   */\n      swap2\n      swap1\n      pop\n      jump\t// out\n        /* \"#utility.yul\":9318:9438   */\n    tag_407:\n        /* \"#utility.yul\":9390:9413   */\n      tag_524\n        /* \"#utility.yul\":9407:9412   */\n      dup2\n        /* \"#utility.yul\":9390:9413   */\n      tag_406\n      jump\t// in\n    tag_524:\n        /* \"#utility.yul\":9383:9388   */\n      dup2\n        /* \"#utility.yul\":9380:9414   */\n      eq\n        /* \"#utility.yul\":9370:9432   */\n      tag_525\n      jumpi\n        /* \"#utility.yul\":9428:9429   */\n      0x00\n        /* \"#utility.yul\":9425:9426   */\n      dup1\n        /* \"#utility.yul\":9418:9430   */\n      revert\n        /* \"#utility.yul\":9370:9432   */\n    tag_525:\n        /* \"#utility.yul\":9318:9438   */\n      pop\n      jump\t// out\n        /* \"#utility.yul\":9444:9585   */\n    tag_408:\n        /* \"#utility.yul\":9500:9505   */\n      0x00\n        /* \"#utility.yul\":9531:9537   */\n      dup2\n        /* \"#utility.yul\":9525:9538   */\n      mload\n        /* \"#utility.yul\":9516:9538   */\n      swap1\n      pop\n        /* \"#utility.yul\":9547:9579   */\n      tag_527\n        /* \"#utility.yul\":9573:9578   */\n      dup2\n        /* \"#utility.yul\":9547:9579   */\n      tag_407\n      jump\t// in\n    tag_527:\n        /* \"#utility.yul\":9444:9585   */\n      swap3\n      swap2\n      pop\n      pop\n      jump\t// out\n        /* \"#utility.yul\":9591:10252   */\n    tag_241:\n        /* \"#utility.yul\":9678:9684   */\n      0x00\n        /* \"#utility.yul\":9686:9692   */\n      dup1\n        /* \"#utility.yul\":9694:9700   */\n      0x00\n        /* \"#utility.yul\":9743:9745   */\n      0x60\n        /* \"#utility.yul\":9731:9740   */\n      dup5\n        /* \"#utility.yul\":9722:9729   */\n      dup7\n        /* \"#utility.yul\":9718:9741   */\n      sub\n        /* \"#utility.yul\":9714:9746   */\n      slt\n        /* \"#utility.yul\":9711:9830   */\n      iszero\n      tag_529\n      jumpi\n        /* \"#utility.yul\":9749:9828   */\n      tag_530\n      tag_387\n      jump\t// in\n    tag_530:\n        /* \"#utility.yul\":9711:9830   */\n    tag_529:\n        /* \"#utility.yul\":9869:9870   */\n      0x00\n        /* \"#utility.yul\":9894:9958   */\n      tag_531\n        /* \"#utility.yul\":9950:9957   */\n      dup7\n        /* \"#utility.yul\":9941:9947   */\n      dup3\n        /* \"#utility.yul\":9930:9939   */\n      dup8\n        /* \"#utility.yul\":9926:9948   */\n      add\n        /* \"#utility.yul\":9894:9958   */\n      tag_405\n      jump\t// in\n    tag_531:\n        /* \"#utility.yul\":9884:9958   */\n      swap4\n      pop\n        /* \"#utility.yul\":9840:9968   */\n      pop\n        /* \"#utility.yul\":10007:10009   */\n      0x20\n        /* \"#utility.yul\":10033:10097   */\n      tag_532\n        /* \"#utility.yul\":10089:10096   */\n      dup7\n        /* \"#utility.yul\":10080:10086   */\n      dup3\n        /* \"#utility.yul\":10069:10078   */\n      dup8\n        /* \"#utility.yul\":10065:10087   */\n      add\n        /* \"#utility.yul\":10033:10097   */\n      tag_405\n      jump\t// in\n    tag_532:\n        /* \"#utility.yul\":10023:10097   */\n      swap3\n      pop\n        /* \"#utility.yul\":9978:10107   */\n      pop\n        /* \"#utility.yul\":10146:10148   */\n      0x40\n        /* \"#utility.yul\":10172:10235   */\n      tag_533\n        /* \"#utility.yul\":10227:10234   */\n      dup7\n        /* \"#utility.yul\":10218:10224   */\n      dup3\n        /* \"#utility.yul\":10207:10216   */\n      dup8\n        /* \"#utility.yul\":10203:10225   */\n      add\n        /* \"#utility.yul\":10172:10235   */\n      tag_408\n      jump\t// in\n    tag_533:\n        /* \"#utility.yul\":10162:10235   */\n      swap2\n      pop\n        /* \"#utility.yul\":10117:10245   */\n      pop\n        /* \"#utility.yul\":9591:10252   */\n      swap3\n      pop\n      swap3\n      pop\n      swap3\n      jump\t// out\n        /* \"#utility.yul\":10258:10401   */\n    tag_409:\n        /* \"#utility.yul\":10315:10320   */\n      0x00\n        /* \"#utility.yul\":10346:10352   */\n      dup2\n        /* \"#utility.yul\":10340:10353   */\n      mload\n        /* \"#utility.yul\":10331:10353   */\n      swap1\n      pop\n        /* \"#utility.yul\":10362:10395   */\n      tag_535\n        /* \"#utility.yul\":10389:10394   */\n      dup2\n        /* \"#utility.yul\":10362:10395   */\n      tag_390\n      jump\t// in\n    tag_535:\n        /* \"#utility.yul\":10258:10401   */\n      swap3\n      swap2\n      pop\n      pop\n      jump\t// out\n        /* \"#utility.yul\":10407:10758   */\n    tag_245:\n        /* \"#utility.yul\":10477:10483   */\n      0x00\n        /* \"#utility.yul\":10526:10528   */\n      0x20\n        /* \"#utility.yul\":10514:10523   */\n      dup3\n        /* \"#utility.yul\":10505:10512   */\n      dup5\n        /* \"#utility.yul\":10501:10524   */\n      sub\n        /* \"#utility.yul\":10497:10529   */\n      slt\n        /* \"#utility.yul\":10494:10613   */\n      iszero\n      tag_537\n      jumpi\n        /* \"#utility.yul\":10532:10611   */\n      tag_538\n      tag_387\n      jump\t// in\n    tag_538:\n        /* \"#utility.yul\":10494:10613   */\n    tag_537:\n        /* \"#utility.yul\":10652:10653   */\n      0x00\n        /* \"#utility.yul\":10677:10741   */\n      tag_539\n        /* \"#utility.yul\":10733:10740   */\n      dup5\n        /* \"#utility.yul\":10724:10730   */\n      dup3\n        /* \"#utility.yul\":10713:10722   */\n      dup6\n        /* \"#utility.yul\":10709:10731   */\n      add\n        /* \"#utility.yul\":10677:10741   */\n      tag_409\n      jump\t// in\n    tag_539:\n        /* \"#utility.yul\":10667:10741   */\n      swap2\n      pop\n        /* \"#utility.yul\":10623:10751   */\n      pop\n        /* \"#utility.yul\":10407:10758   */\n      swap3\n      swap2\n      pop\n      pop\n      jump\t// out\n        /* \"#utility.yul\":10764:11174   */\n    tag_249:\n        /* \"#utility.yul\":10804:10811   */\n      0x00\n        /* \"#utility.yul\":10827:10847   */\n      tag_541\n        /* \"#utility.yul\":10845:10846   */\n      dup3\n        /* \"#utility.yul\":10827:10847   */\n      tag_377\n      jump\t// in\n    tag_541:\n        /* \"#utility.yul\":10822:10847   */\n      swap2\n      pop\n        /* \"#utility.yul\":10861:10881   */\n      tag_542\n        /* \"#utility.yul\":10879:10880   */\n      dup4\n        /* \"#utility.yul\":10861:10881   */\n      tag_377\n      jump\t// in\n    tag_542:\n        /* \"#utility.yul\":10856:10881   */\n      swap3\n      pop\n        /* \"#utility.yul\":10916:10917   */\n      dup3\n        /* \"#utility.yul\":10913:10914   */\n      dup3\n        /* \"#utility.yul\":10909:10918   */\n      mul\n        /* \"#utility.yul\":10938:10968   */\n      tag_543\n        /* \"#utility.yul\":10956:10967   */\n      dup2\n        /* \"#utility.yul\":10938:10968   */\n      tag_377\n      jump\t// in\n    tag_543:\n        /* \"#utility.yul\":10927:10968   */\n      swap2\n      pop\n        /* \"#utility.yul\":11117:11118   */\n      dup3\n        /* \"#utility.yul\":11108:11115   */\n      dup3\n        /* \"#utility.yul\":11104:11119   */\n      div\n        /* \"#utility.yul\":11101:11102   */\n      dup5\n        /* \"#utility.yul\":11098:11120   */\n      eq\n        /* \"#utility.yul\":11078:11079   */\n      dup4\n        /* \"#utility.yul\":11071:11080   */\n      iszero\n        /* \"#utility.yul\":11051:11134   */\n      or\n        /* \"#utility.yul\":11028:11167   */\n      tag_544\n      jumpi\n        /* \"#utility.yul\":11147:11165   */\n      tag_545\n      tag_378\n      jump\t// in\n    tag_545:\n        /* \"#utility.yul\":11028:11167   */\n    tag_544:\n        /* \"#utility.yul\":10812:11174   */\n      pop\n        /* \"#utility.yul\":10764:11174   */\n      swap3\n      swap2\n      pop\n      pop\n      jump\t// out\n        /* \"#utility.yul\":11180:11360   */\n    tag_410:\n        /* \"#utility.yul\":11228:11305   */\n      0x4e487b7100000000000000000000000000000000000000000000000000000000\n        /* \"#utility.yul\":11225:11226   */\n      0x00\n        /* \"#utility.yul\":11218:11306   */\n      mstore\n        /* \"#utility.yul\":11325:11329   */\n      0x12\n        /* \"#utility.yul\":11322:11323   */\n      0x04\n        /* \"#utility.yul\":11315:11330   */\n      mstore\n        /* \"#utility.yul\":11349:11353   */\n      0x24\n        /* \"#utility.yul\":11346:11347   */\n      0x00\n        /* \"#utility.yul\":11339:11354   */\n      revert\n        /* \"#utility.yul\":11366:11551   */\n    tag_254:\n        /* \"#utility.yul\":11406:11407   */\n      0x00\n        /* \"#utility.yul\":11423:11443   */\n      tag_548\n        /* \"#utility.yul\":11441:11442   */\n      dup3\n        /* \"#utility.yul\":11423:11443   */\n      tag_377\n      jump\t// in\n    tag_548:\n        /* \"#utility.yul\":11418:11443   */\n      swap2\n      pop\n        /* \"#utility.yul\":11457:11477   */\n      tag_549\n        /* \"#utility.yul\":11475:11476   */\n      dup4\n        /* \"#utility.yul\":11457:11477   */\n      tag_377\n      jump\t// in\n    tag_549:\n        /* \"#utility.yul\":11452:11477   */\n      swap3\n      pop\n        /* \"#utility.yul\":11496:11497   */\n      dup3\n        /* \"#utility.yul\":11486:11521   */\n      tag_550\n      jumpi\n        /* \"#utility.yul\":11501:11519   */\n      tag_551\n      tag_410\n      jump\t// in\n    tag_551:\n        /* \"#utility.yul\":11486:11521   */\n    tag_550:\n        /* \"#utility.yul\":11543:11544   */\n      dup3\n        /* \"#utility.yul\":11540:11541   */\n      dup3\n        /* \"#utility.yul\":11536:11545   */\n      div\n        /* \"#utility.yul\":11531:11545   */\n      swap1\n      pop\n        /* \"#utility.yul\":11366:11551   */\n      swap3\n      swap2\n      pop\n      pop\n      jump\t// out\n        /* \"#utility.yul\":11557:11642   */\n    tag_411:\n        /* \"#utility.yul\":11602:11609   */\n      0x00\n        /* \"#utility.yul\":11631:11636   */\n      dup2\n        /* \"#utility.yul\":11620:11636   */\n      swap1\n      pop\n        /* \"#utility.yul\":11557:11642   */\n      swap2\n      swap1\n      pop\n      jump\t// out\n        /* \"#utility.yul\":11648:11806   */\n    tag_412:\n        /* \"#utility.yul\":11706:11715   */\n      0x00\n        /* \"#utility.yul\":11739:11800   */\n      tag_554\n        /* \"#utility.yul\":11757:11799   */\n      tag_555\n        /* \"#utility.yul\":11766:11798   */\n      tag_556\n        /* \"#utility.yul\":11792:11797   */\n      dup5\n        /* \"#utility.yul\":11766:11798   */\n      tag_411\n      jump\t// in\n    tag_556:\n        /* \"#utility.yul\":11757:11799   */\n      tag_381\n      jump\t// in\n    tag_555:\n        /* \"#utility.yul\":11739:11800   */\n      tag_377\n      jump\t// in\n    tag_554:\n        /* \"#utility.yul\":11726:11800   */\n      swap1\n      pop\n        /* \"#utility.yul\":11648:11806   */\n      swap2\n      swap1\n      pop\n      jump\t// out\n        /* \"#utility.yul\":11812:11959   */\n    tag_413:\n        /* \"#utility.yul\":11907:11952   */\n      tag_558\n        /* \"#utility.yul\":11946:11951   */\n      dup2\n        /* \"#utility.yul\":11907:11952   */\n      tag_412\n      jump\t// in\n    tag_558:\n        /* \"#utility.yul\":11902:11905   */\n      dup3\n        /* \"#utility.yul\":11895:11953   */\n      mstore\n        /* \"#utility.yul\":11812:11959   */\n      pop\n      pop\n      jump\t// out\n        /* \"#utility.yul\":11965:12423   */\n    tag_264:\n        /* \"#utility.yul\":12122:12126   */\n      0x00\n        /* \"#utility.yul\":12160:12162   */\n      0x60\n        /* \"#utility.yul\":12149:12158   */\n      dup3\n        /* \"#utility.yul\":12145:12163   */\n      add\n        /* \"#utility.yul\":12137:12163   */\n      swap1\n      pop\n        /* \"#utility.yul\":12173:12244   */\n      tag_560\n        /* \"#utility.yul\":12241:12242   */\n      0x00\n        /* \"#utility.yul\":12230:12239   */\n      dup4\n        /* \"#utility.yul\":12226:12243   */\n      add\n        /* \"#utility.yul\":12217:12223   */\n      dup7\n        /* \"#utility.yul\":12173:12244   */\n      tag_379\n      jump\t// in\n    tag_560:\n        /* \"#utility.yul\":12254:12334   */\n      tag_561\n        /* \"#utility.yul\":12330:12332   */\n      0x20\n        /* \"#utility.yul\":12319:12328   */\n      dup4\n        /* \"#utility.yul\":12315:12333   */\n      add\n        /* \"#utility.yul\":12306:12312   */\n      dup6\n        /* \"#utility.yul\":12254:12334   */\n      tag_413\n      jump\t// in\n    tag_561:\n        /* \"#utility.yul\":12344:12416   */\n      tag_562\n        /* \"#utility.yul\":12412:12414   */\n      0x40\n        /* \"#utility.yul\":12401:12410   */\n      dup4\n        /* \"#utility.yul\":12397:12415   */\n      add\n        /* \"#utility.yul\":12388:12394   */\n      dup5\n        /* \"#utility.yul\":12344:12416   */\n      tag_394\n      jump\t// in\n    tag_562:\n        /* \"#utility.yul\":11965:12423   */\n      swap5\n      swap4\n      pop\n      pop\n      pop\n      pop\n      jump\t// out\n        /* \"#utility.yul\":12429:12887   */\n    tag_270:\n        /* \"#utility.yul\":12586:12590   */\n      0x00\n        /* \"#utility.yul\":12624:12626   */\n      0x60\n        /* \"#utility.yul\":12613:12622   */\n      dup3\n        /* \"#utility.yul\":12609:12627   */\n      add\n        /* \"#utility.yul\":12601:12627   */\n      swap1\n      pop\n        /* \"#utility.yul\":12637:12716   */\n      tag_564\n        /* \"#utility.yul\":12713:12714   */\n      0x00\n        /* \"#utility.yul\":12702:12711   */\n      dup4\n        /* \"#utility.yul\":12698:12715   */\n      add\n        /* \"#utility.yul\":12689:12695   */\n      dup7\n        /* \"#utility.yul\":12637:12716   */\n      tag_413\n      jump\t// in\n    tag_564:\n        /* \"#utility.yul\":12726:12798   */\n      tag_565\n        /* \"#utility.yul\":12794:12796   */\n      0x20\n        /* \"#utility.yul\":12783:12792   */\n      dup4\n        /* \"#utility.yul\":12779:12797   */\n      add\n        /* \"#utility.yul\":12770:12776   */\n      dup6\n        /* \"#utility.yul\":12726:12798   */\n      tag_379\n      jump\t// in\n    tag_565:\n        /* \"#utility.yul\":12808:12880   */\n      tag_566\n        /* \"#utility.yul\":12876:12878   */\n      0x40\n        /* \"#utility.yul\":12865:12874   */\n      dup4\n        /* \"#utility.yul\":12861:12879   */\n      add\n        /* \"#utility.yul\":12852:12858   */\n      dup5\n        /* \"#utility.yul\":12808:12880   */\n      tag_394\n      jump\t// in\n    tag_566:\n        /* \"#utility.yul\":12429:12887   */\n      swap5\n      swap4\n      pop\n      pop\n      pop\n      pop\n      jump\t// out\n        /* \"#utility.yul\":12893:13087   */\n    tag_283:\n        /* \"#utility.yul\":12933:12937   */\n      0x00\n        /* \"#utility.yul\":12953:12973   */\n      tag_568\n        /* \"#utility.yul\":12971:12972   */\n      dup3\n        /* \"#utility.yul\":12953:12973   */\n      tag_377\n      jump\t// in\n    tag_568:\n        /* \"#utility.yul\":12948:12973   */\n      swap2\n      pop\n        /* \"#utility.yul\":12987:13007   */\n      tag_569\n        /* \"#utility.yul\":13005:13006   */\n      dup4\n        /* \"#utility.yul\":12987:13007   */\n      tag_377\n      jump\t// in\n    tag_569:\n        /* \"#utility.yul\":12982:13007   */\n      swap3\n      pop\n        /* \"#utility.yul\":13031:13032   */\n      dup3\n        /* \"#utility.yul\":13028:13029   */\n      dup3\n        /* \"#utility.yul\":13024:13033   */\n      sub\n        /* \"#utility.yul\":13016:13033   */\n      swap1\n      pop\n        /* \"#utility.yul\":13055:13056   */\n      dup2\n        /* \"#utility.yul\":13049:13053   */\n      dup2\n        /* \"#utility.yul\":13046:13057   */\n      gt\n        /* \"#utility.yul\":13043:13080   */\n      iszero\n      tag_570\n      jumpi\n        /* \"#utility.yul\":13060:13078   */\n      tag_571\n      tag_378\n      jump\t// in\n    tag_571:\n        /* \"#utility.yul\":13043:13080   */\n    tag_570:\n        /* \"#utility.yul\":12893:13087   */\n      swap3\n      swap2\n      pop\n      pop\n      jump\t// out\n\n    auxdata: 0xa2646970667358221220fada27ba83b88f0f46e53e498106a3f68acad98689732974488f658c39d4466464736f6c63430008180033\n}\n",
				"bytecode": {
					"linkReferences": {},
					"object": "60a060405234801562000010575f80fd5b5060405162002c7f38038062002c7f833981810160405281019062000036919062000407565b335f73ffffffffffffffffffffffffffffffffffffffff168173ffffffffffffffffffffffffffffffffffffffff1603620000aa575f6040517f1e4fbdf7000000000000000000000000000000000000000000000000000000008152600401620000a1919062000487565b60405180910390fd5b620000bb81620002af60201b60201c565b506001620000de620000d26200037060201b60201c565b6200039960201b60201c565b5f01819055505f73ffffffffffffffffffffffffffffffffffffffff168473ffffffffffffffffffffffffffffffffffffffff16036200014a576040517fd92e233d00000000000000000000000000000000000000000000000000000000815260040160405180910390fd5b8373ffffffffffffffffffffffffffffffffffffffff1660808173ffffffffffffffffffffffffffffffffffffffff16815250508260015f6101000a81548173ffffffffffffffffffffffffffffffffffffffff021916908373ffffffffffffffffffffffffffffffffffffffff1602179055508160025f6101000a81548173ffffffffffffffffffffffffffffffffffffffff021916908373ffffffffffffffffffffffffffffffffffffffff1602179055508060035f6101000a81548173ffffffffffffffffffffffffffffffffffffffff021916908373ffffffffffffffffffffffffffffffffffffffff160217905550603260048190555062278d00600581905550600160065f3373ffffffffffffffffffffffffffffffffffffffff1673ffffffffffffffffffffffffffffffffffffffff1681526020019081526020015f205f6101000a81548160ff02191690831515021790555050505050620004a2565b5f805f9054906101000a900473ffffffffffffffffffffffffffffffffffffffff169050815f806101000a81548173ffffffffffffffffffffffffffffffffffffffff021916908373ffffffffffffffffffffffffffffffffffffffff1602179055508173ffffffffffffffffffffffffffffffffffffffff168173ffffffffffffffffffffffffffffffffffffffff167f8be0079c531659141344cd1fd0a4f28419497f9722a3daafe3b4186f6b6457e060405160405180910390a35050565b5f7f9b779b17422d0df92223018b32b4d1fa46e071723d6817e2486d003becc55f005f1b905090565b5f819050919050565b5f80fd5b5f73ffffffffffffffffffffffffffffffffffffffff82169050919050565b5f620003d182620003a6565b9050919050565b620003e381620003c5565b8114620003ee575f80fd5b50565b5f815190506200040181620003d8565b92915050565b5f805f8060808587031215620004225762000421620003a2565b5b5f6200043187828801620003f1565b94505060206200044487828801620003f1565b93505060406200045787828801620003f1565b92505060606200046a87828801620003f1565b91505092959194509250565b6200048181620003c5565b82525050565b5f6020820190506200049c5f83018462000476565b92915050565b608051612793620004ec5f395f818161069901528181610aea01528181610bbe015281816111560152818161146c01528181611581015281816116810152611add01526127935ff3fe6080604052600436106101ba575f3560e01c80638bdcf669116100eb578063b9e4355a11610089578063e90900af11610063578063e90900af14610613578063eb1640261461063d578063f2fde38b14610665578063f60bb7201461068d57610230565b8063b9e4355a14610594578063c59d4847146105bc578063d61b4497146105e957610230565b806397975c75116100c557806397975c75146104f25780639fbaf3de1461051a5780639fe65f1914610544578063ad8944da1461056c57610230565b80638bdcf669146104745780638da5cb5b1461049e578063926b7189146104c857610230565b80633c3fc552116101585780635f303f1c116101325780635f303f1c146103e4578063715018a61461040c57806385654e9a14610422578063865072181461044a57610230565b80633c3fc552146103665780634e6630b0146103905780635a778c0f146103ba57610230565b806323f49b921161019457806323f49b92146102c45780632cb97183146102ec578063330ac98d1461031457806334e908a71461033c57610230565b80630e31648f14610234578063175ed4ba1461025e5780631a3b8e8c1461029a57610230565b36610230575f34111561022e573460075f8282546101d891906120e1565b925050819055503373ffffffffffffffffffffffffffffffffffffffff167f2ccfc58c2cef4ee590b5f16be0548cc54afc12e1c66a67b362b7d640fd16bb2d346040516102259190612123565b60405180910390a25b005b5f80fd5b34801561023f575f80fd5b50610248610697565b60405161025591906121b6565b60405180910390f35b348015610269575f80fd5b50610284600480360381019061027f919061220e565b6106bb565b6040516102919190612253565b60405180910390f35b3480156102a5575f80fd5b506102ae6106d8565b6040516102bb919061227b565b60405180910390f35b3480156102cf575f80fd5b506102ea60048036038101906102e5919061220e565b6106fd565b005b3480156102f7575f80fd5b50610312600480360381019061030d91906122be565b6107f0565b005b34801561031f575f80fd5b5061033a600480360381019061033591906122fc565b6109df565b005b348015610347575f80fd5b50610350610d34565b60405161035d919061227b565b60405180910390f35b348015610371575f80fd5b5061037a610d59565b6040516103879190612123565b60405180910390f35b34801561039b575f80fd5b506103a4610d5f565b6040516103b19190612123565b60405180910390f35b3480156103c5575f80fd5b506103ce610d66565b6040516103db9190612123565b60405180910390f35b3480156103ef575f80fd5b5061040a6004803603810190610405919061220e565b610d6c565b005b348015610417575f80fd5b50610420610e5f565b005b34801561042d575f80fd5b506104486004803603810190610443919061233a565b610e72565b005b348015610455575f80fd5b5061045e610ebd565b60405161046b919061227b565b60405180910390f35b34801561047f575f80fd5b50610488610ee2565b6040516104959190612123565b60405180910390f35b3480156104a9575f80fd5b506104b2610ee8565b6040516104bf919061227b565b60405180910390f35b3480156104d3575f80fd5b506104dc610f0f565b6040516104e99190612123565b60405180910390f35b3480156104fd575f80fd5b50610518600480360381019061051391906122fc565b610f15565b005b348015610525575f80fd5b5061052e611821565b60405161053b9190612123565b60405180910390f35b34801561054f575f80fd5b5061056a6004803603810190610565919061220e565b611827565b005b348015610577575f80fd5b50610592600480360381019061058d919061238f565b61191a565b005b34801561059f575f80fd5b506105ba60048036038101906105b5919061233a565b611a2d565b005b3480156105c7575f80fd5b506105d0611abc565b6040516105e094939291906123cd565b60405180910390f35b3480156105f4575f80fd5b506105fd611ada565b60405161060a9190612123565b60405180910390f35b34801561061e575f80fd5b50610627611b78565b6040516106349190612123565b60405180910390f35b348015610648575f80fd5b50610663600480360381019061065e919061233a565b611b7e565b005b348015610670575f80fd5b5061068b6004803603810190610686919061220e565b611d6c565b005b610695611df0565b005b7f000000000000000000000000000000000000000000000000000000000000000081565b6006602052805f5260405f205f915054906101000a900460ff1681565b60025f9054906101000a900473ffffffffffffffffffffffffffffffffffffffff1681565b610705611e91565b5f73ffffffffffffffffffffffffffffffffffffffff168173ffffffffffffffffffffffffffffffffffffffff160361076a576040517fd92e233d00000000000000000000000000000000000000000000000000000000815260040160405180910390fd5b8060035f6101000a81548173ffffffffffffffffffffffffffffffffffffffff021916908373ffffffffffffffffffffffffffffffffffffffff1602179055508073ffffffffffffffffffffffffffffffffffffffff167fc4a4ea6abc08bd7f8df3db8a1c998f19b3e0c348176f93732cd54db1a4b5013660405160405180910390a250565b6107f8611f18565b610800611e91565b5f73ffffffffffffffffffffffffffffffffffffffff168273ffffffffffffffffffffffffffffffffffffffff1603610865576040517fd92e233d00000000000000000000000000000000000000000000000000000000815260040160405180910390fd5b5f810361089e576040517f1f2a200500000000000000000000000000000000000000000000000000000000815260040160405180910390fd5b478111156108e55780476040517f1fbeaea00000000000000000000000000000000000000000000000000000000081526004016108dc929190612410565b60405180910390fd5b5f8273ffffffffffffffffffffffffffffffffffffffff168260405161090a90612464565b5f6040518083038185875af1925050503d805f8114610944576040519150601f19603f3d011682016040523d82523d5f602084013e610949565b606091505b5050905080610984576040517f90b8ec1800000000000000000000000000000000000000000000000000000000815260040160405180910390fd5b8273ffffffffffffffffffffffffffffffffffffffff167f6e67adc6f62cbac95e14fce70ecc9eaf0b0c4093237158f9a4e84fadb06dfe4c836040516109ca9190612123565b60405180910390a2506109db611f3a565b5050565b6109e7611f18565b6109ef611e91565b5f8203610a28576040517f1f2a200500000000000000000000000000000000000000000000000000000000815260040160405180910390fd5b5f8103610a61576040517f1f2a200500000000000000000000000000000000000000000000000000000000815260040160405180910390fd5b5f73ffffffffffffffffffffffffffffffffffffffff1660015f9054906101000a900473ffffffffffffffffffffffffffffffffffffffff1673ffffffffffffffffffffffffffffffffffffffff1603610ae7576040517fd92e233d00000000000000000000000000000000000000000000000000000000815260040160405180910390fd5b5f7f000000000000000000000000000000000000000000000000000000000000000073ffffffffffffffffffffffffffffffffffffffff166370a08231306040518263ffffffff1660e01b8152600401610b41919061227b565b602060405180830381865afa158015610b5c573d5f803e3d5ffd5b505050506040513d601f19601f82011682018060405250810190610b80919061248c565b905080831115610bbc576040517f1f2a200500000000000000000000000000000000000000000000000000000000815260040160405180910390fd5b7f000000000000000000000000000000000000000000000000000000000000000073ffffffffffffffffffffffffffffffffffffffff1663423f6cef60015f9054906101000a900473ffffffffffffffffffffffffffffffffffffffff16856040518363ffffffff1660e01b8152600401610c389291906124b7565b5f604051808303815f87803b158015610c4f575f80fd5b505af1158015610c61573d5f803e3d5ffd5b5050505060015f9054906101000a900473ffffffffffffffffffffffffffffffffffffffff1673ffffffffffffffffffffffffffffffffffffffff1663246132f984846040518363ffffffff1660e01b8152600401610cc1929190612410565b5f604051808303815f87803b158015610cd8575f80fd5b505af1158015610cea573d5f803e3d5ffd5b505050507f8b7aaffe68a47637f66b06784a531963146073858c3a5ef41fc98bc456d7b64a8383604051610d1f929190612410565b60405180910390a150610d30611f3a565b5050565b60015f9054906101000a900473ffffffffffffffffffffffffffffffffffffffff1681565b600a5481565b5f47905090565b60045481565b610d74611e91565b5f73ffffffffffffffffffffffffffffffffffffffff168173ffffffffffffffffffffffffffffffffffffffff1603610dd9576040517fd92e233d00000000000000000000000000000000000000000000000000000000815260040160405180910390fd5b8060025f6101000a81548173ffffffffffffffffffffffffffffffffffffffff021916908373ffffffffffffffffffffffffffffffffffffffff1602179055508073ffffffffffffffffffffffffffffffffffffffff167f1176bb0c626865dd5bb6009a83ff7a7f968d1759188ec01b8befb5bbde338aa060405160405180910390a250565b610e67611e91565b610e705f611f54565b565b610e7a611e91565b5f8103610eb3576040517f1f2a200500000000000000000000000000000000000000000000000000000000815260040160405180910390fd5b8060058190555050565b60035f9054906101000a900473ffffffffffffffffffffffffffffffffffffffff1681565b60085481565b5f805f9054906101000a900473ffffffffffffffffffffffffffffffffffffffff16905090565b60055481565b610f1d611f18565b610f25611e91565b5f8203610f5e576040517f1f2a200500000000000000000000000000000000000000000000000000000000815260040160405180910390fd5b47821115610fa55781476040517f1fbeaea0000000000000000000000000000000000000000000000000000000008152600401610f9c929190612410565b60405180910390fd5b5f73ffffffffffffffffffffffffffffffffffffffff1660035f9054906101000a900473ffffffffffffffffffffffffffffffffffffffff1673ffffffffffffffffffffffffffffffffffffffff160361102b576040517fd92e233d00000000000000000000000000000000000000000000000000000000815260040160405180910390fd5b5f8060035f9054906101000a900473ffffffffffffffffffffffffffffffffffffffff1673ffffffffffffffffffffffffffffffffffffffff16630902f1ac6040518163ffffffff1660e01b8152600401606060405180830381865afa158015611097573d5f803e3d5ffd5b505050506040513d601f19601f820116820180604052508101906110bb919061255a565b50915091505f60035f9054906101000a900473ffffffffffffffffffffffffffffffffffffffff1673ffffffffffffffffffffffffffffffffffffffff16630dfe16816040518163ffffffff1660e01b8152600401602060405180830381865afa15801561112b573d5f803e3d5ffd5b505050506040513d601f19601f8201168201806040525081019061114f91906125be565b90505f805f7f000000000000000000000000000000000000000000000000000000000000000073ffffffffffffffffffffffffffffffffffffffff168473ffffffffffffffffffffffffffffffffffffffff1614905080156111d657846dffffffffffffffffffffffffffff169250856dffffffffffffffffffffffffffff1691506111fd565b856dffffffffffffffffffffffffffff169250846dffffffffffffffffffffffffffff1691505b5f6103e58961120c91906125e9565b90505f816103e88661121e91906125e9565b61122891906120e1565b848361123491906125e9565b61123e9190612657565b9050888110156112875780896040517f71c4efed00000000000000000000000000000000000000000000000000000000815260040161127e929190612410565b60405180910390fd5b5f60035f9054906101000a900473ffffffffffffffffffffffffffffffffffffffff1673ffffffffffffffffffffffffffffffffffffffff168b6040516112cd90612464565b5f6040518083038185875af1925050503d805f8114611307576040519150601f19603f3d011682016040523d82523d5f602084013e61130c565b606091505b5050905080611347576040517f7f23919500000000000000000000000000000000000000000000000000000000815260040160405180910390fd5b83156113dd5760035f9054906101000a900473ffffffffffffffffffffffffffffffffffffffff1673ffffffffffffffffffffffffffffffffffffffff16636d9a640a835f306040518463ffffffff1660e01b81526004016113ab939291906126c0565b5f604051808303815f87803b1580156113c2575f80fd5b505af11580156113d4573d5f803e3d5ffd5b50505050611469565b60035f9054906101000a900473ffffffffffffffffffffffffffffffffffffffff1673ffffffffffffffffffffffffffffffffffffffff16636d9a640a5f84306040518463ffffffff1660e01b815260040161143b939291906126f5565b5f604051808303815f87803b158015611452575f80fd5b505af1158015611464573d5f803e3d5ffd5b505050505b5f7f000000000000000000000000000000000000000000000000000000000000000073ffffffffffffffffffffffffffffffffffffffff166370a08231306040518263ffffffff1660e01b81526004016114c3919061227b565b602060405180830381865afa1580156114de573d5f803e3d5ffd5b505050506040513d601f19601f82011682018060405250810190611502919061248c565b90508a81101561154b57808b6040517f71c4efed000000000000000000000000000000000000000000000000000000008152600401611542929190612410565b60405180910390fd5b5f60646004548361155c91906125e9565b6115669190612657565b90505f8183611575919061272a565b90505f82111561161e577f000000000000000000000000000000000000000000000000000000000000000073ffffffffffffffffffffffffffffffffffffffff166342966c68836040518263ffffffff1660e01b81526004016115d89190612123565b5f604051808303815f87803b1580156115ef575f80fd5b505af1158015611601573d5f803e3d5ffd5b505050508160085f82825461161691906120e1565b925050819055505b5f8111801561167a57505f73ffffffffffffffffffffffffffffffffffffffff1660015f9054906101000a900473ffffffffffffffffffffffffffffffffffffffff1673ffffffffffffffffffffffffffffffffffffffff1614155b156117cc577f000000000000000000000000000000000000000000000000000000000000000073ffffffffffffffffffffffffffffffffffffffff1663423f6cef60015f9054906101000a900473ffffffffffffffffffffffffffffffffffffffff16836040518363ffffffff1660e01b81526004016116fb9291906124b7565b5f604051808303815f87803b158015611712575f80fd5b505af1158015611724573d5f803e3d5ffd5b5050505060015f9054906101000a900473ffffffffffffffffffffffffffffffffffffffff1673ffffffffffffffffffffffffffffffffffffffff1663246132f9826005546040518363ffffffff1660e01b8152600401611786929190612410565b5f604051808303815f87803b15801561179d575f80fd5b505af11580156117af573d5f803e3d5ffd5b505050508060095f8282546117c491906120e1565b925050819055505b7f42659a4aa613c1e350c764f0ff2be36a175ac2a1e4b77b8e1467d1fed32becc88e84848460405161180194939291906123cd565b60405180910390a150505050505050505050505061181d611f3a565b5050565b60075481565b61182f611e91565b5f73ffffffffffffffffffffffffffffffffffffffff168173ffffffffffffffffffffffffffffffffffffffff1603611894576040517fd92e233d00000000000000000000000000000000000000000000000000000000815260040160405180910390fd5b8060015f6101000a81548173ffffffffffffffffffffffffffffffffffffffff021916908373ffffffffffffffffffffffffffffffffffffffff1602179055508073ffffffffffffffffffffffffffffffffffffffff167ff520447191196b125f76f7110397fdf32b1b9cefb7dec323bd3b998022ac233860405160405180910390a250565b611922611e91565b5f73ffffffffffffffffffffffffffffffffffffffff168273ffffffffffffffffffffffffffffffffffffffff1603611987576040517fd92e233d00000000000000000000000000000000000000000000000000000000815260040160405180910390fd5b8060065f8473ffffffffffffffffffffffffffffffffffffffff1673ffffffffffffffffffffffffffffffffffffffff1681526020019081526020015f205f6101000a81548160ff0219169083151502179055508173ffffffffffffffffffffffffffffffffffffffff167fbac4a6ee215c0287f7da3a73c4fa957dde930dc8190bba3f30d0104ae15ca9fd82604051611a219190612253565b60405180910390a25050565b611a35611e91565b6064811115611a7b57806040517f23542f78000000000000000000000000000000000000000000000000000000008152600401611a729190612123565b60405180910390fd5b806004819055507fe85d9362d5330e5046ba20d38140f318950327f15b22123dae77dfff2f1dde7181604051611ab19190612123565b60405180910390a150565b5f805f80600754600854600954600a54935093509350935090919293565b5f7f000000000000000000000000000000000000000000000000000000000000000073ffffffffffffffffffffffffffffffffffffffff166370a08231306040518263ffffffff1660e01b8152600401611b34919061227b565b602060405180830381865afa158015611b4f573d5f803e3d5ffd5b505050506040513d601f19601f82011682018060405250810190611b73919061248c565b905090565b60095481565b611b86611f18565b611b8e611e91565b5f8103611bc7576040517f1f2a200500000000000000000000000000000000000000000000000000000000815260040160405180910390fd5b5f73ffffffffffffffffffffffffffffffffffffffff1660025f9054906101000a900473ffffffffffffffffffffffffffffffffffffffff1673ffffffffffffffffffffffffffffffffffffffff1603611c4d576040517fd92e233d00000000000000000000000000000000000000000000000000000000815260040160405180910390fd5b47811115611c945780476040517f1fbeaea0000000000000000000000000000000000000000000000000000000008152600401611c8b929190612410565b60405180910390fd5b60025f9054906101000a900473ffffffffffffffffffffffffffffffffffffffff1673ffffffffffffffffffffffffffffffffffffffff1663d0e30db0826040518263ffffffff1660e01b81526004015f604051808303818588803b158015611cfb575f80fd5b505af1158015611d0d573d5f803e3d5ffd5b505050505080600a5f828254611d2391906120e1565b925050819055507f065da79752e89c0debd87a1c71ae1d472add974dc19b2fc258f88b5598fcfa7681604051611d599190612123565b60405180910390a1611d69611f3a565b50565b611d74611e91565b5f73ffffffffffffffffffffffffffffffffffffffff168173ffffffffffffffffffffffffffffffffffffffff1603611de4575f6040517f1e4fbdf7000000000000000000000000000000000000000000000000000000008152600401611ddb919061227b565b60405180910390fd5b611ded81611f54565b50565b5f3403611e29576040517f1f2a200500000000000000000000000000000000000000000000000000000000815260040160405180910390fd5b3460075f828254611e3a91906120e1565b925050819055503373ffffffffffffffffffffffffffffffffffffffff167f2ccfc58c2cef4ee590b5f16be0548cc54afc12e1c66a67b362b7d640fd16bb2d34604051611e879190612123565b60405180910390a2565b611e99612015565b73ffffffffffffffffffffffffffffffffffffffff16611eb7610ee8565b73ffffffffffffffffffffffffffffffffffffffff1614611f1657611eda612015565b6040517f118cdaa7000000000000000000000000000000000000000000000000000000008152600401611f0d919061227b565b60405180910390fd5b565b611f2061201c565b6002611f32611f2d61205d565b612086565b5f0181905550565b6001611f4c611f4761205d565b612086565b5f0181905550565b5f805f9054906101000a900473ffffffffffffffffffffffffffffffffffffffff169050815f806101000a81548173ffffffffffffffffffffffffffffffffffffffff021916908373ffffffffffffffffffffffffffffffffffffffff1602179055508173ffffffffffffffffffffffffffffffffffffffff168173ffffffffffffffffffffffffffffffffffffffff167f8be0079c531659141344cd1fd0a4f28419497f9722a3daafe3b4186f6b6457e060405160405180910390a35050565b5f33905090565b61202461208f565b1561205b576040517f3ee5aeb500000000000000000000000000000000000000000000000000000000815260040160405180910390fd5b565b5f7f9b779b17422d0df92223018b32b4d1fa46e071723d6817e2486d003becc55f005f1b905090565b5f819050919050565b5f60026120a261209d61205d565b612086565b5f015414905090565b5f819050919050565b7f4e487b71000000000000000000000000000000000000000000000000000000005f52601160045260245ffd5b5f6120eb826120ab565b91506120f6836120ab565b925082820190508082111561210e5761210d6120b4565b5b92915050565b61211d816120ab565b82525050565b5f6020820190506121365f830184612114565b92915050565b5f73ffffffffffffffffffffffffffffffffffffffff82169050919050565b5f819050919050565b5f61217e6121796121748461213c565b61215b565b61213c565b9050919050565b5f61218f82612164565b9050919050565b5f6121a082612185565b9050919050565b6121b081612196565b82525050565b5f6020820190506121c95f8301846121a7565b92915050565b5f80fd5b5f6121dd8261213c565b9050919050565b6121ed816121d3565b81146121f7575f80fd5b50565b5f81359050612208816121e4565b92915050565b5f60208284031215612223576122226121cf565b5b5f612230848285016121fa565b91505092915050565b5f8115159050919050565b61224d81612239565b82525050565b5f6020820190506122665f830184612244565b92915050565b612275816121d3565b82525050565b5f60208201905061228e5f83018461226c565b92915050565b61229d816120ab565b81146122a7575f80fd5b50565b5f813590506122b881612294565b92915050565b5f80604083850312156122d4576122d36121cf565b5b5f6122e1858286016121fa565b92505060206122f2858286016122aa565b9150509250929050565b5f8060408385031215612312576123116121cf565b5b5f61231f858286016122aa565b9250506020612330858286016122aa565b9150509250929050565b5f6020828403121561234f5761234e6121cf565b5b5f61235c848285016122aa565b91505092915050565b61236e81612239565b8114612378575f80fd5b50565b5f8135905061238981612365565b92915050565b5f80604083850312156123a5576123a46121cf565b5b5f6123b2858286016121fa565b92505060206123c38582860161237b565b9150509250929050565b5f6080820190506123e05f830187612114565b6123ed6020830186612114565b6123fa6040830185612114565b6124076060830184612114565b95945050505050565b5f6040820190506124235f830185612114565b6124306020830184612114565b9392505050565b5f81905092915050565b50565b5f61244f5f83612437565b915061245a82612441565b5f82019050919050565b5f61246e82612444565b9150819050919050565b5f8151905061248681612294565b92915050565b5f602082840312156124a1576124a06121cf565b5b5f6124ae84828501612478565b91505092915050565b5f6040820190506124ca5f83018561226c565b6124d76020830184612114565b9392505050565b5f6dffffffffffffffffffffffffffff82169050919050565b612500816124de565b811461250a575f80fd5b50565b5f8151905061251b816124f7565b92915050565b5f63ffffffff82169050919050565b61253981612521565b8114612543575f80fd5b50565b5f8151905061255481612530565b92915050565b5f805f60608486031215612571576125706121cf565b5b5f61257e8682870161250d565b935050602061258f8682870161250d565b92505060406125a086828701612546565b9150509250925092565b5f815190506125b8816121e4565b92915050565b5f602082840312156125d3576125d26121cf565b5b5f6125e0848285016125aa565b91505092915050565b5f6125f3826120ab565b91506125fe836120ab565b925082820261260c816120ab565b91508282048414831517612623576126226120b4565b5b5092915050565b7f4e487b71000000000000000000000000000000000000000000000000000000005f52601260045260245ffd5b5f612661826120ab565b915061266c836120ab565b92508261267c5761267b61262a565b5b828204905092915050565b5f819050919050565b5f6126aa6126a56126a084612687565b61215b565b6120ab565b9050919050565b6126ba81612690565b82525050565b5f6060820190506126d35f830186612114565b6126e060208301856126b1565b6126ed604083018461226c565b949350505050565b5f6060820190506127085f8301866126b1565b6127156020830185612114565b612722604083018461226c565b949350505050565b5f612734826120ab565b915061273f836120ab565b9250828203905081811115612757576127566120b4565b5b9291505056fea2646970667358221220fada27ba83b88f0f46e53e498106a3f68acad98689732974488f658c39d4466464736f6c63430008180033",
					"opcodes": "PUSH1 0xA0 PUSH1 0x40 MSTORE CALLVALUE DUP1 ISZERO PUSH3 0x10 JUMPI PUSH0 DUP1 REVERT JUMPDEST POP PUSH1 0x40 MLOAD PUSH3 0x2C7F CODESIZE SUB DUP1 PUSH3 0x2C7F DUP4 CODECOPY DUP2 DUP2 ADD PUSH1 0x40 MSTORE DUP2 ADD SWAP1 PUSH3 0x36 SWAP2 SWAP1 PUSH3 0x407 JUMP JUMPDEST CALLER PUSH0 PUSH20 0xFFFFFFFFFFFFFFFFFFFFFFFFFFFFFFFFFFFFFFFF AND DUP2 PUSH20 0xFFFFFFFFFFFFFFFFFFFFFFFFFFFFFFFFFFFFFFFF AND SUB PUSH3 0xAA JUMPI PUSH0 PUSH1 0x40 MLOAD PUSH32 0x1E4FBDF700000000000000000000000000000000000000000000000000000000 DUP2 MSTORE PUSH1 0x4 ADD PUSH3 0xA1 SWAP2 SWAP1 PUSH3 0x487 JUMP JUMPDEST PUSH1 0x40 MLOAD DUP1 SWAP2 SUB SWAP1 REVERT JUMPDEST PUSH3 0xBB DUP2 PUSH3 0x2AF PUSH1 0x20 SHL PUSH1 0x20 SHR JUMP JUMPDEST POP PUSH1 0x1 PUSH3 0xDE PUSH3 0xD2 PUSH3 0x370 PUSH1 0x20 SHL PUSH1 0x20 SHR JUMP JUMPDEST PUSH3 0x399 PUSH1 0x20 SHL PUSH1 0x20 SHR JUMP JUMPDEST PUSH0 ADD DUP2 SWAP1 SSTORE POP PUSH0 PUSH20 0xFFFFFFFFFFFFFFFFFFFFFFFFFFFFFFFFFFFFFFFF AND DUP5 PUSH20 0xFFFFFFFFFFFFFFFFFFFFFFFFFFFFFFFFFFFFFFFF AND SUB PUSH3 0x14A JUMPI PUSH1 0x40 MLOAD PUSH32 0xD92E233D00000000000000000000000000000000000000000000000000000000 DUP2 MSTORE PUSH1 0x4 ADD PUSH1 0x40 MLOAD DUP1 SWAP2 SUB SWAP1 REVERT JUMPDEST DUP4 PUSH20 0xFFFFFFFFFFFFFFFFFFFFFFFFFFFFFFFFFFFFFFFF AND PUSH1 0x80 DUP2 PUSH20 0xFFFFFFFFFFFFFFFFFFFFFFFFFFFFFFFFFFFFFFFF AND DUP2 MSTORE POP POP DUP3 PUSH1 0x1 PUSH0 PUSH2 0x100 EXP DUP2 SLOAD DUP2 PUSH20 0xFFFFFFFFFFFFFFFFFFFFFFFFFFFFFFFFFFFFFFFF MUL NOT AND SWAP1 DUP4 PUSH20 0xFFFFFFFFFFFFFFFFFFFFFFFFFFFFFFFFFFFFFFFF AND MUL OR SWAP1 SSTORE POP DUP2 PUSH1 0x2 PUSH0 PUSH2 0x100 EXP DUP2 SLOAD DUP2 PUSH20 0xFFFFFFFFFFFFFFFFFFFFFFFFFFFFFFFFFFFFFFFF MUL NOT AND SWAP1 DUP4 PUSH20 0xFFFFFFFFFFFFFFFFFFFFFFFFFFFFFFFFFFFFFFFF AND MUL OR SWAP1 SSTORE POP DUP1 PUSH1 0x3 PUSH0 PUSH2 0x100 EXP DUP2 SLOAD DUP2 PUSH20 0xFFFFFFFFFFFFFFFFFFFFFFFFFFFFFFFFFFFFFFFF MUL NOT AND SWAP1 DUP4 PUSH20 0xFFFFFFFFFFFFFFFFFFFFFFFFFFFFFFFFFFFFFFFF AND MUL OR SWAP1 SSTORE POP PUSH1 0x32 PUSH1 0x4 DUP2 SWAP1 SSTORE POP PUSH3 0x278D00 PUSH1 0x5 DUP2 SWAP1 SSTORE POP PUSH1 0x1 PUSH1 0x6 PUSH0 CALLER PUSH20 0xFFFFFFFFFFFFFFFFFFFFFFFFFFFFFFFFFFFFFFFF AND PUSH20 0xFFFFFFFFFFFFFFFFFFFFFFFFFFFFFFFFFFFFFFFF AND DUP2 MSTORE PUSH1 0x20 ADD SWAP1 DUP2 MSTORE PUSH1 0x20 ADD PUSH0 KECCAK256 PUSH0 PUSH2 0x100 EXP DUP2 SLOAD DUP2 PUSH1 0xFF MUL NOT AND SWAP1 DUP4 ISZERO ISZERO MUL OR SWAP1 SSTORE POP POP POP POP POP PUSH3 0x4A2 JUMP JUMPDEST PUSH0 DUP1 PUSH0 SWAP1 SLOAD SWAP1 PUSH2 0x100 EXP SWAP1 DIV PUSH20 0xFFFFFFFFFFFFFFFFFFFFFFFFFFFFFFFFFFFFFFFF AND SWAP1 POP DUP2 PUSH0 DUP1 PUSH2 0x100 EXP DUP2 SLOAD DUP2 PUSH20 0xFFFFFFFFFFFFFFFFFFFFFFFFFFFFFFFFFFFFFFFF MUL NOT AND SWAP1 DUP4 PUSH20 0xFFFFFFFFFFFFFFFFFFFFFFFFFFFFFFFFFFFFFFFF AND MUL OR SWAP1 SSTORE POP DUP2 PUSH20 0xFFFFFFFFFFFFFFFFFFFFFFFFFFFFFFFFFFFFFFFF AND DUP2 PUSH20 0xFFFFFFFFFFFFFFFFFFFFFFFFFFFFFFFFFFFFFFFF AND PUSH32 0x8BE0079C531659141344CD1FD0A4F28419497F9722A3DAAFE3B4186F6B6457E0 PUSH1 0x40 MLOAD PUSH1 0x40 MLOAD DUP1 SWAP2 SUB SWAP1 LOG3 POP POP JUMP JUMPDEST PUSH0 PUSH32 0x9B779B17422D0DF92223018B32B4D1FA46E071723D6817E2486D003BECC55F00 PUSH0 SHL SWAP1 POP SWAP1 JUMP JUMPDEST PUSH0 DUP2 SWAP1 POP SWAP2 SWAP1 POP JUMP JUMPDEST PUSH0 DUP1 REVERT JUMPDEST PUSH0 PUSH20 0xFFFFFFFFFFFFFFFFFFFFFFFFFFFFFFFFFFFFFFFF DUP3 AND SWAP1 POP SWAP2 SWAP1 POP JUMP JUMPDEST PUSH0 PUSH3 0x3D1 DUP3 PUSH3 0x3A6 JUMP JUMPDEST SWAP1 POP SWAP2 SWAP1 POP JUMP JUMPDEST PUSH3 0x3E3 DUP2 PUSH3 0x3C5 JUMP JUMPDEST DUP2 EQ PUSH3 0x3EE JUMPI PUSH0 DUP1 REVERT JUMPDEST POP JUMP JUMPDEST PUSH0 DUP2 MLOAD SWAP1 POP PUSH3 0x401 DUP2 PUSH3 0x3D8 JUMP JUMPDEST SWAP3 SWAP2 POP POP JUMP JUMPDEST PUSH0 DUP1 PUSH0 DUP1 PUSH1 0x80 DUP6 DUP8 SUB SLT ISZERO PUSH3 0x422 JUMPI PUSH3 0x421 PUSH3 0x3A2 JUMP JUMPDEST JUMPDEST PUSH0 PUSH3 0x431 DUP8 DUP3 DUP9 ADD PUSH3 0x3F1 JUMP JUMPDEST SWAP5 POP POP PUSH1 0x20 PUSH3 0x444 DUP8 DUP3 DUP9 ADD PUSH3 0x3F1 JUMP JUMPDEST SWAP4 POP POP PUSH1 0x40 PUSH3 0x457 DUP8 DUP3 DUP9 ADD PUSH3 0x3F1 JUMP JUMPDEST SWAP3 POP POP PUSH1 0x60 PUSH3 0x46A DUP8 DUP3 DUP9 ADD PUSH3 0x3F1 JUMP JUMPDEST SWAP2 POP POP SWAP3 SWAP6 SWAP2 SWAP5 POP SWAP3 POP JUMP JUMPDEST PUSH3 0x481 DUP2 PUSH3 0x3C5 JUMP JUMPDEST DUP3 MSTORE POP POP JUMP JUMPDEST PUSH0 PUSH1 0x20 DUP3 ADD SWAP1 POP PUSH3 0x49C PUSH0 DUP4 ADD DUP5 PUSH3 0x476 JUMP JUMPDEST SWAP3 SWAP2 POP POP JUMP JUMPDEST PUSH1 0x80 MLOAD PUSH2 0x2793 PUSH3 0x4EC PUSH0 CODECOPY PUSH0 DUP2 DUP2 PUSH2 0x699 ADD MSTORE DUP2 DUP2 PUSH2 0xAEA ADD MSTORE DUP2 DUP2 PUSH2 0xBBE ADD MSTORE DUP2 DUP2 PUSH2 0x1156 ADD MSTORE DUP2 DUP2 PUSH2 0x146C ADD MSTORE DUP2 DUP2 PUSH2 0x1581 ADD MSTORE DUP2 DUP2 PUSH2 0x1681 ADD MSTORE PUSH2 0x1ADD ADD MSTORE PUSH2 0x2793 PUSH0 RETURN INVALID PUSH1 0x80 PUSH1 0x40 MSTORE PUSH1 0x4 CALLDATASIZE LT PUSH2 0x1BA JUMPI PUSH0 CALLDATALOAD PUSH1 0xE0 SHR DUP1 PUSH4 0x8BDCF669 GT PUSH2 0xEB JUMPI DUP1 PUSH4 0xB9E4355A GT PUSH2 0x89 JUMPI DUP1 PUSH4 0xE90900AF GT PUSH2 0x63 JUMPI DUP1 PUSH4 0xE90900AF EQ PUSH2 0x613 JUMPI DUP1 PUSH4 0xEB164026 EQ PUSH2 0x63D JUMPI DUP1 PUSH4 0xF2FDE38B EQ PUSH2 0x665 JUMPI DUP1 PUSH4 0xF60BB720 EQ PUSH2 0x68D JUMPI PUSH2 0x230 JUMP JUMPDEST DUP1 PUSH4 0xB9E4355A EQ PUSH2 0x594 JUMPI DUP1 PUSH4 0xC59D4847 EQ PUSH2 0x5BC JUMPI DUP1 PUSH4 0xD61B4497 EQ PUSH2 0x5E9 JUMPI PUSH2 0x230 JUMP JUMPDEST DUP1 PUSH4 0x97975C75 GT PUSH2 0xC5 JUMPI DUP1 PUSH4 0x97975C75 EQ PUSH2 0x4F2 JUMPI DUP1 PUSH4 0x9FBAF3DE EQ PUSH2 0x51A JUMPI DUP1 PUSH4 0x9FE65F19 EQ PUSH2 0x544 JUMPI DUP1 PUSH4 0xAD8944DA EQ PUSH2 0x56C JUMPI PUSH2 0x230 JUMP JUMPDEST DUP1 PUSH4 0x8BDCF669 EQ PUSH2 0x474 JUMPI DUP1 PUSH4 0x8DA5CB5B EQ PUSH2 0x49E JUMPI DUP1 PUSH4 0x926B7189 EQ PUSH2 0x4C8 JUMPI PUSH2 0x230 JUMP JUMPDEST DUP1 PUSH4 0x3C3FC552 GT PUSH2 0x158 JUMPI DUP1 PUSH4 0x5F303F1C GT PUSH2 0x132 JUMPI DUP1 PUSH4 0x5F303F1C EQ PUSH2 0x3E4 JUMPI DUP1 PUSH4 0x715018A6 EQ PUSH2 0x40C JUMPI DUP1 PUSH4 0x85654E9A EQ PUSH2 0x422 JUMPI DUP1 PUSH4 0x86507218 EQ PUSH2 0x44A JUMPI PUSH2 0x230 JUMP JUMPDEST DUP1 PUSH4 0x3C3FC552 EQ PUSH2 0x366 JUMPI DUP1 PUSH4 0x4E6630B0 EQ PUSH2 0x390 JUMPI DUP1 PUSH4 0x5A778C0F EQ PUSH2 0x3BA JUMPI PUSH2 0x230 JUMP JUMPDEST DUP1 PUSH4 0x23F49B92 GT PUSH2 0x194 JUMPI DUP1 PUSH4 0x23F49B92 EQ PUSH2 0x2C4 JUMPI DUP1 PUSH4 0x2CB97183 EQ PUSH2 0x2EC JUMPI DUP1 PUSH4 0x330AC98D EQ PUSH2 0x314 JUMPI DUP1 PUSH4 0x34E908A7 EQ PUSH2 0x33C JUMPI PUSH2 0x230 JUMP JUMPDEST DUP1 PUSH4 0xE31648F EQ PUSH2 0x234 JUMPI DUP1 PUSH4 0x175ED4BA EQ PUSH2 0x25E JUMPI DUP1 PUSH4 0x1A3B8E8C EQ PUSH2 0x29A JUMPI PUSH2 0x230 JUMP JUMPDEST CALLDATASIZE PUSH2 0x230 JUMPI PUSH0 CALLVALUE GT ISZERO PUSH2 0x22E JUMPI CALLVALUE PUSH1 0x7 PUSH0 DUP3 DUP3 SLOAD PUSH2 0x1D8 SWAP2 SWAP1 PUSH2 0x20E1 JUMP JUMPDEST SWAP3 POP POP DUP2 SWAP1 SSTORE POP CALLER PUSH20 0xFFFFFFFFFFFFFFFFFFFFFFFFFFFFFFFFFFFFFFFF AND PUSH32 0x2CCFC58C2CEF4EE590B5F16BE0548CC54AFC12E1C66A67B362B7D640FD16BB2D CALLVALUE PUSH1 0x40 MLOAD PUSH2 0x225 SWAP2 SWAP1 PUSH2 0x2123 JUMP JUMPDEST PUSH1 0x40 MLOAD DUP1 SWAP2 SUB SWAP1 LOG2 JUMPDEST STOP JUMPDEST PUSH0 DUP1 REVERT JUMPDEST CALLVALUE DUP1 ISZERO PUSH2 0x23F JUMPI PUSH0 DUP1 REVERT JUMPDEST POP PUSH2 0x248 PUSH2 0x697 JUMP JUMPDEST PUSH1 0x40 MLOAD PUSH2 0x255 SWAP2 SWAP1 PUSH2 0x21B6 JUMP JUMPDEST PUSH1 0x40 MLOAD DUP1 SWAP2 SUB SWAP1 RETURN JUMPDEST CALLVALUE DUP1 ISZERO PUSH2 0x269 JUMPI PUSH0 DUP1 REVERT JUMPDEST POP PUSH2 0x284 PUSH1 0x4 DUP1 CALLDATASIZE SUB DUP2 ADD SWAP1 PUSH2 0x27F SWAP2 SWAP1 PUSH2 0x220E JUMP JUMPDEST PUSH2 0x6BB JUMP JUMPDEST PUSH1 0x40 MLOAD PUSH2 0x291 SWAP2 SWAP1 PUSH2 0x2253 JUMP JUMPDEST PUSH1 0x40 MLOAD DUP1 SWAP2 SUB SWAP1 RETURN JUMPDEST CALLVALUE DUP1 ISZERO PUSH2 0x2A5 JUMPI PUSH0 DUP1 REVERT JUMPDEST POP PUSH2 0x2AE PUSH2 0x6D8 JUMP JUMPDEST PUSH1 0x40 MLOAD PUSH2 0x2BB SWAP2 SWAP1 PUSH2 0x227B JUMP JUMPDEST PUSH1 0x40 MLOAD DUP1 SWAP2 SUB SWAP1 RETURN JUMPDEST CALLVALUE DUP1 ISZERO PUSH2 0x2CF JUMPI PUSH0 DUP1 REVERT JUMPDEST POP PUSH2 0x2EA PUSH1 0x4 DUP1 CALLDATASIZE SUB DUP2 ADD SWAP1 PUSH2 0x2E5 SWAP2 SWAP1 PUSH2 0x220E JUMP JUMPDEST PUSH2 0x6FD JUMP JUMPDEST STOP JUMPDEST CALLVALUE DUP1 ISZERO PUSH2 0x2F7 JUMPI PUSH0 DUP1 REVERT JUMPDEST POP PUSH2 0x312 PUSH1 0x4 DUP1 CALLDATASIZE SUB DUP2 ADD SWAP1 PUSH2 0x30D SWAP2 SWAP1 PUSH2 0x22BE JUMP JUMPDEST PUSH2 0x7F0 JUMP JUMPDEST STOP JUMPDEST CALLVALUE DUP1 ISZERO PUSH2 0x31F JUMPI PUSH0 DUP1 REVERT JUMPDEST POP PUSH2 0x33A PUSH1 0x4 DUP1 CALLDATASIZE SUB DUP2 ADD SWAP1 PUSH2 0x335 SWAP2 SWAP1 PUSH2 0x22FC JUMP JUMPDEST PUSH2 0x9DF JUMP JUMPDEST STOP JUMPDEST CALLVALUE DUP1 ISZERO PUSH2 0x347 JUMPI PUSH0 DUP1 REVERT JUMPDEST POP PUSH2 0x350 PUSH2 0xD34 JUMP JUMPDEST PUSH1 0x40 MLOAD PUSH2 0x35D SWAP2 SWAP1 PUSH2 0x227B JUMP JUMPDEST PUSH1 0x40 MLOAD DUP1 SWAP2 SUB SWAP1 RETURN JUMPDEST CALLVALUE DUP1 ISZERO PUSH2 0x371 JUMPI PUSH0 DUP1 REVERT JUMPDEST POP PUSH2 0x37A PUSH2 0xD59 JUMP JUMPDEST PUSH1 0x40 MLOAD PUSH2 0x387 SWAP2 SWAP1 PUSH2 0x2123 JUMP JUMPDEST PUSH1 0x40 MLOAD DUP1 SWAP2 SUB SWAP1 RETURN JUMPDEST CALLVALUE DUP1 ISZERO PUSH2 0x39B JUMPI PUSH0 DUP1 REVERT JUMPDEST POP PUSH2 0x3A4 PUSH2 0xD5F JUMP JUMPDEST PUSH1 0x40 MLOAD PUSH2 0x3B1 SWAP2 SWAP1 PUSH2 0x2123 JUMP JUMPDEST PUSH1 0x40 MLOAD DUP1 SWAP2 SUB SWAP1 RETURN JUMPDEST CALLVALUE DUP1 ISZERO PUSH2 0x3C5 JUMPI PUSH0 DUP1 REVERT JUMPDEST POP PUSH2 0x3CE PUSH2 0xD66 JUMP JUMPDEST PUSH1 0x40 MLOAD PUSH2 0x3DB SWAP2 SWAP1 PUSH2 0x2123 JUMP JUMPDEST PUSH1 0x40 MLOAD DUP1 SWAP2 SUB SWAP1 RETURN JUMPDEST CALLVALUE DUP1 ISZERO PUSH2 0x3EF JUMPI PUSH0 DUP1 REVERT JUMPDEST POP PUSH2 0x40A PUSH1 0x4 DUP1 CALLDATASIZE SUB DUP2 ADD SWAP1 PUSH2 0x405 SWAP2 SWAP1 PUSH2 0x220E JUMP JUMPDEST PUSH2 0xD6C JUMP JUMPDEST STOP JUMPDEST CALLVALUE DUP1 ISZERO PUSH2 0x417 JUMPI PUSH0 DUP1 REVERT JUMPDEST POP PUSH2 0x420 PUSH2 0xE5F JUMP JUMPDEST STOP JUMPDEST CALLVALUE DUP1 ISZERO PUSH2 0x42D JUMPI PUSH0 DUP1 REVERT JUMPDEST POP PUSH2 0x448 PUSH1 0x4 DUP1 CALLDATASIZE SUB DUP2 ADD SWAP1 PUSH2 0x443 SWAP2 SWAP1 PUSH2 0x233A JUMP JUMPDEST PUSH2 0xE72 JUMP JUMPDEST STOP JUMPDEST CALLVALUE DUP1 ISZERO PUSH2 0x455 JUMPI PUSH0 DUP1 REVERT JUMPDEST POP PUSH2 0x45E PUSH2 0xEBD JUMP JUMPDEST PUSH1 0x40 MLOAD PUSH2 0x46B SWAP2 SWAP1 PUSH2 0x227B JUMP JUMPDEST PUSH1 0x40 MLOAD DUP1 SWAP2 SUB SWAP1 RETURN JUMPDEST CALLVALUE DUP1 ISZERO PUSH2 0x47F JUMPI PUSH0 DUP1 REVERT JUMPDEST POP PUSH2 0x488 PUSH2 0xEE2 JUMP JUMPDEST PUSH1 0x40 MLOAD PUSH2 0x495 SWAP2 SWAP1 PUSH2 0x2123 JUMP JUMPDEST PUSH1 0x40 MLOAD DUP1 SWAP2 SUB SWAP1 RETURN JUMPDEST CALLVALUE DUP1 ISZERO PUSH2 0x4A9 JUMPI PUSH0 DUP1 REVERT JUMPDEST POP PUSH2 0x4B2 PUSH2 0xEE8 JUMP JUMPDEST PUSH1 0x40 MLOAD PUSH2 0x4BF SWAP2 SWAP1 PUSH2 0x227B JUMP JUMPDEST PUSH1 0x40 MLOAD DUP1 SWAP2 SUB SWAP1 RETURN JUMPDEST CALLVALUE DUP1 ISZERO PUSH2 0x4D3 JUMPI PUSH0 DUP1 REVERT JUMPDEST POP PUSH2 0x4DC PUSH2 0xF0F JUMP JUMPDEST PUSH1 0x40 MLOAD PUSH2 0x4E9 SWAP2 SWAP1 PUSH2 0x2123 JUMP JUMPDEST PUSH1 0x40 MLOAD DUP1 SWAP2 SUB SWAP1 RETURN JUMPDEST CALLVALUE DUP1 ISZERO PUSH2 0x4FD JUMPI PUSH0 DUP1 REVERT JUMPDEST POP PUSH2 0x518 PUSH1 0x4 DUP1 CALLDATASIZE SUB DUP2 ADD SWAP1 PUSH2 0x513 SWAP2 SWAP1 PUSH2 0x22FC JUMP JUMPDEST PUSH2 0xF15 JUMP JUMPDEST STOP JUMPDEST CALLVALUE DUP1 ISZERO PUSH2 0x525 JUMPI PUSH0 DUP1 REVERT JUMPDEST POP PUSH2 0x52E PUSH2 0x1821 JUMP JUMPDEST PUSH1 0x40 MLOAD PUSH2 0x53B SWAP2 SWAP1 PUSH2 0x2123 JUMP JUMPDEST PUSH1 0x40 MLOAD DUP1 SWAP2 SUB SWAP1 RETURN JUMPDEST CALLVALUE DUP1 ISZERO PUSH2 0x54F JUMPI PUSH0 DUP1 REVERT JUMPDEST POP PUSH2 0x56A PUSH1 0x4 DUP1 CALLDATASIZE SUB DUP2 ADD SWAP1 PUSH2 0x565 SWAP2 SWAP1 PUSH2 0x220E JUMP JUMPDEST PUSH2 0x1827 JUMP JUMPDEST STOP JUMPDEST CALLVALUE DUP1 ISZERO PUSH2 0x577 JUMPI PUSH0 DUP1 REVERT JUMPDEST POP PUSH2 0x592 PUSH1 0x4 DUP1 CALLDATASIZE SUB DUP2 ADD SWAP1 PUSH2 0x58D SWAP2 SWAP1 PUSH2 0x238F JUMP JUMPDEST PUSH2 0x191A JUMP JUMPDEST STOP JUMPDEST CALLVALUE DUP1 ISZERO PUSH2 0x59F JUMPI PUSH0 DUP1 REVERT JUMPDEST POP PUSH2 0x5BA PUSH1 0x4 DUP1 CALLDATASIZE SUB DUP2 ADD SWAP1 PUSH2 0x5B5 SWAP2 SWAP1 PUSH2 0x233A JUMP JUMPDEST PUSH2 0x1A2D JUMP JUMPDEST STOP JUMPDEST CALLVALUE DUP1 ISZERO PUSH2 0x5C7 JUMPI PUSH0 DUP1 REVERT JUMPDEST POP PUSH2 0x5D0 PUSH2 0x1ABC JUMP JUMPDEST PUSH1 0x40 MLOAD PUSH2 0x5E0 SWAP5 SWAP4 SWAP3 SWAP2 SWAP1 PUSH2 0x23CD JUMP JUMPDEST PUSH1 0x40 MLOAD DUP1 SWAP2 SUB SWAP1 RETURN JUMPDEST CALLVALUE DUP1 ISZERO PUSH2 0x5F4 JUMPI PUSH0 DUP1 REVERT JUMPDEST POP PUSH2 0x5FD PUSH2 0x1ADA JUMP JUMPDEST PUSH1 0x40 MLOAD PUSH2 0x60A SWAP2 SWAP1 PUSH2 0x2123 JUMP JUMPDEST PUSH1 0x40 MLOAD DUP1 SWAP2 SUB SWAP1 RETURN JUMPDEST CALLVALUE DUP1 ISZERO PUSH2 0x61E JUMPI PUSH0 DUP1 REVERT JUMPDEST POP PUSH2 0x627 PUSH2 0x1B78 JUMP JUMPDEST PUSH1 0x40 MLOAD PUSH2 0x634 SWAP2 SWAP1 PUSH2 0x2123 JUMP JUMPDEST PUSH1 0x40 MLOAD DUP1 SWAP2 SUB SWAP1 RETURN JUMPDEST CALLVALUE DUP1 ISZERO PUSH2 0x648 JUMPI PUSH0 DUP1 REVERT JUMPDEST POP PUSH2 0x663 PUSH1 0x4 DUP1 CALLDATASIZE SUB DUP2 ADD SWAP1 PUSH2 0x65E SWAP2 SWAP1 PUSH2 0x233A JUMP JUMPDEST PUSH2 0x1B7E JUMP JUMPDEST STOP JUMPDEST CALLVALUE DUP1 ISZERO PUSH2 0x670 JUMPI PUSH0 DUP1 REVERT JUMPDEST POP PUSH2 0x68B PUSH1 0x4 DUP1 CALLDATASIZE SUB DUP2 ADD SWAP1 PUSH2 0x686 SWAP2 SWAP1 PUSH2 0x220E JUMP JUMPDEST PUSH2 0x1D6C JUMP JUMPDEST STOP JUMPDEST PUSH2 0x695 PUSH2 0x1DF0 JUMP JUMPDEST STOP JUMPDEST PUSH32 0x0 DUP2 JUMP JUMPDEST PUSH1 0x6 PUSH1 0x20 MSTORE DUP1 PUSH0 MSTORE PUSH1 0x40 PUSH0 KECCAK256 PUSH0 SWAP2 POP SLOAD SWAP1 PUSH2 0x100 EXP SWAP1 DIV PUSH1 0xFF AND DUP2 JUMP JUMPDEST PUSH1 0x2 PUSH0 SWAP1 SLOAD SWAP1 PUSH2 0x100 EXP SWAP1 DIV PUSH20 0xFFFFFFFFFFFFFFFFFFFFFFFFFFFFFFFFFFFFFFFF AND DUP2 JUMP JUMPDEST PUSH2 0x705 PUSH2 0x1E91 JUMP JUMPDEST PUSH0 PUSH20 0xFFFFFFFFFFFFFFFFFFFFFFFFFFFFFFFFFFFFFFFF AND DUP2 PUSH20 0xFFFFFFFFFFFFFFFFFFFFFFFFFFFFFFFFFFFFFFFF AND SUB PUSH2 0x76A JUMPI PUSH1 0x40 MLOAD PUSH32 0xD92E233D00000000000000000000000000000000000000000000000000000000 DUP2 MSTORE PUSH1 0x4 ADD PUSH1 0x40 MLOAD DUP1 SWAP2 SUB SWAP1 REVERT JUMPDEST DUP1 PUSH1 0x3 PUSH0 PUSH2 0x100 EXP DUP2 SLOAD DUP2 PUSH20 0xFFFFFFFFFFFFFFFFFFFFFFFFFFFFFFFFFFFFFFFF MUL NOT AND SWAP1 DUP4 PUSH20 0xFFFFFFFFFFFFFFFFFFFFFFFFFFFFFFFFFFFFFFFF AND MUL OR SWAP1 SSTORE POP DUP1 PUSH20 0xFFFFFFFFFFFFFFFFFFFFFFFFFFFFFFFFFFFFFFFF AND PUSH32 0xC4A4EA6ABC08BD7F8DF3DB8A1C998F19B3E0C348176F93732CD54DB1A4B50136 PUSH1 0x40 MLOAD PUSH1 0x40 MLOAD DUP1 SWAP2 SUB SWAP1 LOG2 POP JUMP JUMPDEST PUSH2 0x7F8 PUSH2 0x1F18 JUMP JUMPDEST PUSH2 0x800 PUSH2 0x1E91 JUMP JUMPDEST PUSH0 PUSH20 0xFFFFFFFFFFFFFFFFFFFFFFFFFFFFFFFFFFFFFFFF AND DUP3 PUSH20 0xFFFFFFFFFFFFFFFFFFFFFFFFFFFFFFFFFFFFFFFF AND SUB PUSH2 0x865 JUMPI PUSH1 0x40 MLOAD PUSH32 0xD92E233D00000000000000000000000000000000000000000000000000000000 DUP2 MSTORE PUSH1 0x4 ADD PUSH1 0x40 MLOAD DUP1 SWAP2 SUB SWAP1 REVERT JUMPDEST PUSH0 DUP2 SUB PUSH2 0x89E JUMPI PUSH1 0x40 MLOAD PUSH32 0x1F2A200500000000000000000000000000000000000000000000000000000000 DUP2 MSTORE PUSH1 0x4 ADD PUSH1 0x40 MLOAD DUP1 SWAP2 SUB SWAP1 REVERT JUMPDEST SELFBALANCE DUP2 GT ISZERO PUSH2 0x8E5 JUMPI DUP1 SELFBALANCE PUSH1 0x40 MLOAD PUSH32 0x1FBEAEA000000000000000000000000000000000000000000000000000000000 DUP2 MSTORE PUSH1 0x4 ADD PUSH2 0x8DC SWAP3 SWAP2 SWAP1 PUSH2 0x2410 JUMP JUMPDEST PUSH1 0x40 MLOAD DUP1 SWAP2 SUB SWAP1 REVERT JUMPDEST PUSH0 DUP3 PUSH20 0xFFFFFFFFFFFFFFFFFFFFFFFFFFFFFFFFFFFFFFFF AND DUP3 PUSH1 0x40 MLOAD PUSH2 0x90A SWAP1 PUSH2 0x2464 JUMP JUMPDEST PUSH0 PUSH1 0x40 MLOAD DUP1 DUP4 SUB DUP2 DUP6 DUP8 GAS CALL SWAP3 POP POP POP RETURNDATASIZE DUP1 PUSH0 DUP2 EQ PUSH2 0x944 JUMPI PUSH1 0x40 MLOAD SWAP2 POP PUSH1 0x1F NOT PUSH1 0x3F RETURNDATASIZE ADD AND DUP3 ADD PUSH1 0x40 MSTORE RETURNDATASIZE DUP3 MSTORE RETURNDATASIZE PUSH0 PUSH1 0x20 DUP5 ADD RETURNDATACOPY PUSH2 0x949 JUMP JUMPDEST PUSH1 0x60 SWAP2 POP JUMPDEST POP POP SWAP1 POP DUP1 PUSH2 0x984 JUMPI PUSH1 0x40 MLOAD PUSH32 0x90B8EC1800000000000000000000000000000000000000000000000000000000 DUP2 MSTORE PUSH1 0x4 ADD PUSH1 0x40 MLOAD DUP1 SWAP2 SUB SWAP1 REVERT JUMPDEST DUP3 PUSH20 0xFFFFFFFFFFFFFFFFFFFFFFFFFFFFFFFFFFFFFFFF AND PUSH32 0x6E67ADC6F62CBAC95E14FCE70ECC9EAF0B0C4093237158F9A4E84FADB06DFE4C DUP4 PUSH1 0x40 MLOAD PUSH2 0x9CA SWAP2 SWAP1 PUSH2 0x2123 JUMP JUMPDEST PUSH1 0x40 MLOAD DUP1 SWAP2 SUB SWAP1 LOG2 POP PUSH2 0x9DB PUSH2 0x1F3A JUMP JUMPDEST POP POP JUMP JUMPDEST PUSH2 0x9E7 PUSH2 0x1F18 JUMP JUMPDEST PUSH2 0x9EF PUSH2 0x1E91 JUMP JUMPDEST PUSH0 DUP3 SUB PUSH2 0xA28 JUMPI PUSH1 0x40 MLOAD PUSH32 0x1F2A200500000000000000000000000000000000000000000000000000000000 DUP2 MSTORE PUSH1 0x4 ADD PUSH1 0x40 MLOAD DUP1 SWAP2 SUB SWAP1 REVERT JUMPDEST PUSH0 DUP2 SUB PUSH2 0xA61 JUMPI PUSH1 0x40 MLOAD PUSH32 0x1F2A200500000000000000000000000000000000000000000000000000000000 DUP2 MSTORE PUSH1 0x4 ADD PUSH1 0x40 MLOAD DUP1 SWAP2 SUB SWAP1 REVERT JUMPDEST PUSH0 PUSH20 0xFFFFFFFFFFFFFFFFFFFFFFFFFFFFFFFFFFFFFFFF AND PUSH1 0x1 PUSH0 SWAP1 SLOAD SWAP1 PUSH2 0x100 EXP SWAP1 DIV PUSH20 0xFFFFFFFFFFFFFFFFFFFFFFFFFFFFFFFFFFFFFFFF AND PUSH20 0xFFFFFFFFFFFFFFFFFFFFFFFFFFFFFFFFFFFFFFFF AND SUB PUSH2 0xAE7 JUMPI PUSH1 0x40 MLOAD PUSH32 0xD92E233D00000000000000000000000000000000000000000000000000000000 DUP2 MSTORE PUSH1 0x4 ADD PUSH1 0x40 MLOAD DUP1 SWAP2 SUB SWAP1 REVERT JUMPDEST PUSH0 PUSH32 0x0 PUSH20 0xFFFFFFFFFFFFFFFFFFFFFFFFFFFFFFFFFFFFFFFF AND PUSH4 0x70A08231 ADDRESS PUSH1 0x40 MLOAD DUP3 PUSH4 0xFFFFFFFF AND PUSH1 0xE0 SHL DUP2 MSTORE PUSH1 0x4 ADD PUSH2 0xB41 SWAP2 SWAP1 PUSH2 0x227B JUMP JUMPDEST PUSH1 0x20 PUSH1 0x40 MLOAD DUP1 DUP4 SUB DUP2 DUP7 GAS STATICCALL ISZERO DUP1 ISZERO PUSH2 0xB5C JUMPI RETURNDATASIZE PUSH0 DUP1 RETURNDATACOPY RETURNDATASIZE PUSH0 REVERT JUMPDEST POP POP POP POP PUSH1 0x40 MLOAD RETURNDATASIZE PUSH1 0x1F NOT PUSH1 0x1F DUP3 ADD AND DUP3 ADD DUP1 PUSH1 0x40 MSTORE POP DUP2 ADD SWAP1 PUSH2 0xB80 SWAP2 SWAP1 PUSH2 0x248C JUMP JUMPDEST SWAP1 POP DUP1 DUP4 GT ISZERO PUSH2 0xBBC JUMPI PUSH1 0x40 MLOAD PUSH32 0x1F2A200500000000000000000000000000000000000000000000000000000000 DUP2 MSTORE PUSH1 0x4 ADD PUSH1 0x40 MLOAD DUP1 SWAP2 SUB SWAP1 REVERT JUMPDEST PUSH32 0x0 PUSH20 0xFFFFFFFFFFFFFFFFFFFFFFFFFFFFFFFFFFFFFFFF AND PUSH4 0x423F6CEF PUSH1 0x1 PUSH0 SWAP1 SLOAD SWAP1 PUSH2 0x100 EXP SWAP1 DIV PUSH20 0xFFFFFFFFFFFFFFFFFFFFFFFFFFFFFFFFFFFFFFFF AND DUP6 PUSH1 0x40 MLOAD DUP4 PUSH4 0xFFFFFFFF AND PUSH1 0xE0 SHL DUP2 MSTORE PUSH1 0x4 ADD PUSH2 0xC38 SWAP3 SWAP2 SWAP1 PUSH2 0x24B7 JUMP JUMPDEST PUSH0 PUSH1 0x40 MLOAD DUP1 DUP4 SUB DUP2 PUSH0 DUP8 DUP1 EXTCODESIZE ISZERO DUP1 ISZERO PUSH2 0xC4F JUMPI PUSH0 DUP1 REVERT JUMPDEST POP GAS CALL ISZERO DUP1 ISZERO PUSH2 0xC61 JUMPI RETURNDATASIZE PUSH0 DUP1 RETURNDATACOPY RETURNDATASIZE PUSH0 REVERT JUMPDEST POP POP POP POP PUSH1 0x1 PUSH0 SWAP1 SLOAD SWAP1 PUSH2 0x100 EXP SWAP1 DIV PUSH20 0xFFFFFFFFFFFFFFFFFFFFFFFFFFFFFFFFFFFFFFFF AND PUSH20 0xFFFFFFFFFFFFFFFFFFFFFFFFFFFFFFFFFFFFFFFF AND PUSH4 0x246132F9 DUP5 DUP5 PUSH1 0x40 MLOAD DUP4 PUSH4 0xFFFFFFFF AND PUSH1 0xE0 SHL DUP2 MSTORE PUSH1 0x4 ADD PUSH2 0xCC1 SWAP3 SWAP2 SWAP1 PUSH2 0x2410 JUMP JUMPDEST PUSH0 PUSH1 0x40 MLOAD DUP1 DUP4 SUB DUP2 PUSH0 DUP8 DUP1 EXTCODESIZE ISZERO DUP1 ISZERO PUSH2 0xCD8 JUMPI PUSH0 DUP1 REVERT JUMPDEST POP GAS CALL ISZERO DUP1 ISZERO PUSH2 0xCEA JUMPI RETURNDATASIZE PUSH0 DUP1 RETURNDATACOPY RETURNDATASIZE PUSH0 REVERT JUMPDEST POP POP POP POP PUSH32 0x8B7AAFFE68A47637F66B06784A531963146073858C3A5EF41FC98BC456D7B64A DUP4 DUP4 PUSH1 0x40 MLOAD PUSH2 0xD1F SWAP3 SWAP2 SWAP1 PUSH2 0x2410 JUMP JUMPDEST PUSH1 0x40 MLOAD DUP1 SWAP2 SUB SWAP1 LOG1 POP PUSH2 0xD30 PUSH2 0x1F3A JUMP JUMPDEST POP POP JUMP JUMPDEST PUSH1 0x1 PUSH0 SWAP1 SLOAD SWAP1 PUSH2 0x100 EXP SWAP1 DIV PUSH20 0xFFFFFFFFFFFFFFFFFFFFFFFFFFFFFFFFFFFFFFFF AND DUP2 JUMP JUMPDEST PUSH1 0xA SLOAD DUP2 JUMP JUMPDEST PUSH0 SELFBALANCE SWAP1 POP SWAP1 JUMP JUMPDEST PUSH1 0x4 SLOAD DUP2 JUMP JUMPDEST PUSH2 0xD74 PUSH2 0x1E91 JUMP JUMPDEST PUSH0 PUSH20 0xFFFFFFFFFFFFFFFFFFFFFFFFFFFFFFFFFFFFFFFF AND DUP2 PUSH20 0xFFFFFFFFFFFFFFFFFFFFFFFFFFFFFFFFFFFFFFFF AND SUB PUSH2 0xDD9 JUMPI PUSH1 0x40 MLOAD PUSH32 0xD92E233D00000000000000000000000000000000000000000000000000000000 DUP2 MSTORE PUSH1 0x4 ADD PUSH1 0x40 MLOAD DUP1 SWAP2 SUB SWAP1 REVERT JUMPDEST DUP1 PUSH1 0x2 PUSH0 PUSH2 0x100 EXP DUP2 SLOAD DUP2 PUSH20 0xFFFFFFFFFFFFFFFFFFFFFFFFFFFFFFFFFFFFFFFF MUL NOT AND SWAP1 DUP4 PUSH20 0xFFFFFFFFFFFFFFFFFFFFFFFFFFFFFFFFFFFFFFFF AND MUL OR SWAP1 SSTORE POP DUP1 PUSH20 0xFFFFFFFFFFFFFFFFFFFFFFFFFFFFFFFFFFFFFFFF AND PUSH32 0x1176BB0C626865DD5BB6009A83FF7A7F968D1759188EC01B8BEFB5BBDE338AA0 PUSH1 0x40 MLOAD PUSH1 0x40 MLOAD DUP1 SWAP2 SUB SWAP1 LOG2 POP JUMP JUMPDEST PUSH2 0xE67 PUSH2 0x1E91 JUMP JUMPDEST PUSH2 0xE70 PUSH0 PUSH2 0x1F54 JUMP JUMPDEST JUMP JUMPDEST PUSH2 0xE7A PUSH2 0x1E91 JUMP JUMPDEST PUSH0 DUP2 SUB PUSH2 0xEB3 JUMPI PUSH1 0x40 MLOAD PUSH32 0x1F2A200500000000000000000000000000000000000000000000000000000000 DUP2 MSTORE PUSH1 0x4 ADD PUSH1 0x40 MLOAD DUP1 SWAP2 SUB SWAP1 REVERT JUMPDEST DUP1 PUSH1 0x5 DUP2 SWAP1 SSTORE POP POP JUMP JUMPDEST PUSH1 0x3 PUSH0 SWAP1 SLOAD SWAP1 PUSH2 0x100 EXP SWAP1 DIV PUSH20 0xFFFFFFFFFFFFFFFFFFFFFFFFFFFFFFFFFFFFFFFF AND DUP2 JUMP JUMPDEST PUSH1 0x8 SLOAD DUP2 JUMP JUMPDEST PUSH0 DUP1 PUSH0 SWAP1 SLOAD SWAP1 PUSH2 0x100 EXP SWAP1 DIV PUSH20 0xFFFFFFFFFFFFFFFFFFFFFFFFFFFFFFFFFFFFFFFF AND SWAP1 POP SWAP1 JUMP JUMPDEST PUSH1 0x5 SLOAD DUP2 JUMP JUMPDEST PUSH2 0xF1D PUSH2 0x1F18 JUMP JUMPDEST PUSH2 0xF25 PUSH2 0x1E91 JUMP JUMPDEST PUSH0 DUP3 SUB PUSH2 0xF5E JUMPI PUSH1 0x40 MLOAD PUSH32 0x1F2A200500000000000000000000000000000000000000000000000000000000 DUP2 MSTORE PUSH1 0x4 ADD PUSH1 0x40 MLOAD DUP1 SWAP2 SUB SWAP1 REVERT JUMPDEST SELFBALANCE DUP3 GT ISZERO PUSH2 0xFA5 JUMPI DUP2 SELFBALANCE PUSH1 0x40 MLOAD PUSH32 0x1FBEAEA000000000000000000000000000000000000000000000000000000000 DUP2 MSTORE PUSH1 0x4 ADD PUSH2 0xF9C SWAP3 SWAP2 SWAP1 PUSH2 0x2410 JUMP JUMPDEST PUSH1 0x40 MLOAD DUP1 SWAP2 SUB SWAP1 REVERT JUMPDEST PUSH0 PUSH20 0xFFFFFFFFFFFFFFFFFFFFFFFFFFFFFFFFFFFFFFFF AND PUSH1 0x3 PUSH0 SWAP1 SLOAD SWAP1 PUSH2 0x100 EXP SWAP1 DIV PUSH20 0xFFFFFFFFFFFFFFFFFFFFFFFFFFFFFFFFFFFFFFFF AND PUSH20 0xFFFFFFFFFFFFFFFFFFFFFFFFFFFFFFFFFFFFFFFF AND SUB PUSH2 0x102B JUMPI PUSH1 0x40 MLOAD PUSH32 0xD92E233D00000000000000000000000000000000000000000000000000000000 DUP2 MSTORE PUSH1 0x4 ADD PUSH1 0x40 MLOAD DUP1 SWAP2 SUB SWAP1 REVERT JUMPDEST PUSH0 DUP1 PUSH1 0x3 PUSH0 SWAP1 SLOAD SWAP1 PUSH2 0x100 EXP SWAP1 DIV PUSH20 0xFFFFFFFFFFFFFFFFFFFFFFFFFFFFFFFFFFFFFFFF AND PUSH20 0xFFFFFFFFFFFFFFFFFFFFFFFFFFFFFFFFFFFFFFFF AND PUSH4 0x902F1AC PUSH1 0x40 MLOAD DUP2 PUSH4 0xFFFFFFFF AND PUSH1 0xE0 SHL DUP2 MSTORE PUSH1 0x4 ADD PUSH1 0x60 PUSH1 0x40 MLOAD DUP1 DUP4 SUB DUP2 DUP7 GAS STATICCALL ISZERO DUP1 ISZERO PUSH2 0x1097 JUMPI RETURNDATASIZE PUSH0 DUP1 RETURNDATACOPY RETURNDATASIZE PUSH0 REVERT JUMPDEST POP POP POP POP PUSH1 0x40 MLOAD RETURNDATASIZE PUSH1 0x1F NOT PUSH1 0x1F DUP3 ADD AND DUP3 ADD DUP1 PUSH1 0x40 MSTORE POP DUP2 ADD SWAP1 PUSH2 0x10BB SWAP2 SWAP1 PUSH2 0x255A JUMP JUMPDEST POP SWAP2 POP SWAP2 POP PUSH0 PUSH1 0x3 PUSH0 SWAP1 SLOAD SWAP1 PUSH2 0x100 EXP SWAP1 DIV PUSH20 0xFFFFFFFFFFFFFFFFFFFFFFFFFFFFFFFFFFFFFFFF AND PUSH20 0xFFFFFFFFFFFFFFFFFFFFFFFFFFFFFFFFFFFFFFFF AND PUSH4 0xDFE1681 PUSH1 0x40 MLOAD DUP2 PUSH4 0xFFFFFFFF AND PUSH1 0xE0 SHL DUP2 MSTORE PUSH1 0x4 ADD PUSH1 0x20 PUSH1 0x40 MLOAD DUP1 DUP4 SUB DUP2 DUP7 GAS STATICCALL ISZERO DUP1 ISZERO PUSH2 0x112B JUMPI RETURNDATASIZE PUSH0 DUP1 RETURNDATACOPY RETURNDATASIZE PUSH0 REVERT JUMPDEST POP POP POP POP PUSH1 0x40 MLOAD RETURNDATASIZE PUSH1 0x1F NOT PUSH1 0x1F DUP3 ADD AND DUP3 ADD DUP1 PUSH1 0x40 MSTORE POP DUP2 ADD SWAP1 PUSH2 0x114F SWAP2 SWAP1 PUSH2 0x25BE JUMP JUMPDEST SWAP1 POP PUSH0 DUP1 PUSH0 PUSH32 0x0 PUSH20 0xFFFFFFFFFFFFFFFFFFFFFFFFFFFFFFFFFFFFFFFF AND DUP5 PUSH20 0xFFFFFFFFFFFFFFFFFFFFFFFFFFFFFFFFFFFFFFFF AND EQ SWAP1 POP DUP1 ISZERO PUSH2 0x11D6 JUMPI DUP5 PUSH14 0xFFFFFFFFFFFFFFFFFFFFFFFFFFFF AND SWAP3 POP DUP6 PUSH14 0xFFFFFFFFFFFFFFFFFFFFFFFFFFFF AND SWAP2 POP PUSH2 0x11FD JUMP JUMPDEST DUP6 PUSH14 0xFFFFFFFFFFFFFFFFFFFFFFFFFFFF AND SWAP3 POP DUP5 PUSH14 0xFFFFFFFFFFFFFFFFFFFFFFFFFFFF AND SWAP2 POP JUMPDEST PUSH0 PUSH2 0x3E5 DUP10 PUSH2 0x120C SWAP2 SWAP1 PUSH2 0x25E9 JUMP JUMPDEST SWAP1 POP PUSH0 DUP2 PUSH2 0x3E8 DUP7 PUSH2 0x121E SWAP2 SWAP1 PUSH2 0x25E9 JUMP JUMPDEST PUSH2 0x1228 SWAP2 SWAP1 PUSH2 0x20E1 JUMP JUMPDEST DUP5 DUP4 PUSH2 0x1234 SWAP2 SWAP1 PUSH2 0x25E9 JUMP JUMPDEST PUSH2 0x123E SWAP2 SWAP1 PUSH2 0x2657 JUMP JUMPDEST SWAP1 POP DUP9 DUP2 LT ISZERO PUSH2 0x1287 JUMPI DUP1 DUP10 PUSH1 0x40 MLOAD PUSH32 0x71C4EFED00000000000000000000000000000000000000000000000000000000 DUP2 MSTORE PUSH1 0x4 ADD PUSH2 0x127E SWAP3 SWAP2 SWAP1 PUSH2 0x2410 JUMP JUMPDEST PUSH1 0x40 MLOAD DUP1 SWAP2 SUB SWAP1 REVERT JUMPDEST PUSH0 PUSH1 0x3 PUSH0 SWAP1 SLOAD SWAP1 PUSH2 0x100 EXP SWAP1 DIV PUSH20 0xFFFFFFFFFFFFFFFFFFFFFFFFFFFFFFFFFFFFFFFF AND PUSH20 0xFFFFFFFFFFFFFFFFFFFFFFFFFFFFFFFFFFFFFFFF AND DUP12 PUSH1 0x40 MLOAD PUSH2 0x12CD SWAP1 PUSH2 0x2464 JUMP JUMPDEST PUSH0 PUSH1 0x40 MLOAD DUP1 DUP4 SUB DUP2 DUP6 DUP8 GAS CALL SWAP3 POP POP POP RETURNDATASIZE DUP1 PUSH0 DUP2 EQ PUSH2 0x1307 JUMPI PUSH1 0x40 MLOAD SWAP2 POP PUSH1 0x1F NOT PUSH1 0x3F RETURNDATASIZE ADD AND DUP3 ADD PUSH1 0x40 MSTORE RETURNDATASIZE DUP3 MSTORE RETURNDATASIZE PUSH0 PUSH1 0x20 DUP5 ADD RETURNDATACOPY PUSH2 0x130C JUMP JUMPDEST PUSH1 0x60 SWAP2 POP JUMPDEST POP POP SWAP1 POP DUP1 PUSH2 0x1347 JUMPI PUSH1 0x40 MLOAD PUSH32 0x7F23919500000000000000000000000000000000000000000000000000000000 DUP2 MSTORE PUSH1 0x4 ADD PUSH1 0x40 MLOAD DUP1 SWAP2 SUB SWAP1 REVERT JUMPDEST DUP4 ISZERO PUSH2 0x13DD JUMPI PUSH1 0x3 PUSH0 SWAP1 SLOAD SWAP1 PUSH2 0x100 EXP SWAP1 DIV PUSH20 0xFFFFFFFFFFFFFFFFFFFFFFFFFFFFFFFFFFFFFFFF AND PUSH20 0xFFFFFFFFFFFFFFFFFFFFFFFFFFFFFFFFFFFFFFFF AND PUSH4 0x6D9A640A DUP4 PUSH0 ADDRESS PUSH1 0x40 MLOAD DUP5 PUSH4 0xFFFFFFFF AND PUSH1 0xE0 SHL DUP2 MSTORE PUSH1 0x4 ADD PUSH2 0x13AB SWAP4 SWAP3 SWAP2 SWAP1 PUSH2 0x26C0 JUMP JUMPDEST PUSH0 PUSH1 0x40 MLOAD DUP1 DUP4 SUB DUP2 PUSH0 DUP8 DUP1 EXTCODESIZE ISZERO DUP1 ISZERO PUSH2 0x13C2 JUMPI PUSH0 DUP1 REVERT JUMPDEST POP GAS CALL ISZERO DUP1 ISZERO PUSH2 0x13D4 JUMPI RETURNDATASIZE PUSH0 DUP1 RETURNDATACOPY RETURNDATASIZE PUSH0 REVERT JUMPDEST POP POP POP POP PUSH2 0x1469 JUMP JUMPDEST PUSH1 0x3 PUSH0 SWAP1 SLOAD SWAP1 PUSH2 0x100 EXP SWAP1 DIV PUSH20 0xFFFFFFFFFFFFFFFFFFFFFFFFFFFFFFFFFFFFFFFF AND PUSH20 0xFFFFFFFFFFFFFFFFFFFFFFFFFFFFFFFFFFFFFFFF AND PUSH4 0x6D9A640A PUSH0 DUP5 ADDRESS PUSH1 0x40 MLOAD DUP5 PUSH4 0xFFFFFFFF AND PUSH1 0xE0 SHL DUP2 MSTORE PUSH1 0x4 ADD PUSH2 0x143B SWAP4 SWAP3 SWAP2 SWAP1 PUSH2 0x26F5 JUMP JUMPDEST PUSH0 PUSH1 0x40 MLOAD DUP1 DUP4 SUB DUP2 PUSH0 DUP8 DUP1 EXTCODESIZE ISZERO DUP1 ISZERO PUSH2 0x1452 JUMPI PUSH0 DUP1 REVERT JUMPDEST POP GAS CALL ISZERO DUP1 ISZERO PUSH2 0x1464 JUMPI RETURNDATASIZE PUSH0 DUP1 RETURNDATACOPY RETURNDATASIZE PUSH0 REVERT JUMPDEST POP POP POP POP JUMPDEST PUSH0 PUSH32 0x0 PUSH20 0xFFFFFFFFFFFFFFFFFFFFFFFFFFFFFFFFFFFFFFFF AND PUSH4 0x70A08231 ADDRESS PUSH1 0x40 MLOAD DUP3 PUSH4 0xFFFFFFFF AND PUSH1 0xE0 SHL DUP2 MSTORE PUSH1 0x4 ADD PUSH2 0x14C3 SWAP2 SWAP1 PUSH2 0x227B JUMP JUMPDEST PUSH1 0x20 PUSH1 0x40 MLOAD DUP1 DUP4 SUB DUP2 DUP7 GAS STATICCALL ISZERO DUP1 ISZERO PUSH2 0x14DE JUMPI RETURNDATASIZE PUSH0 DUP1 RETURNDATACOPY RETURNDATASIZE PUSH0 REVERT JUMPDEST POP POP POP POP PUSH1 0x40 MLOAD RETURNDATASIZE PUSH1 0x1F NOT PUSH1 0x1F DUP3 ADD AND DUP3 ADD DUP1 PUSH1 0x40 MSTORE POP DUP2 ADD SWAP1 PUSH2 0x1502 SWAP2 SWAP1 PUSH2 0x248C JUMP JUMPDEST SWAP1 POP DUP11 DUP2 LT ISZERO PUSH2 0x154B JUMPI DUP1 DUP12 PUSH1 0x40 MLOAD PUSH32 0x71C4EFED00000000000000000000000000000000000000000000000000000000 DUP2 MSTORE PUSH1 0x4 ADD PUSH2 0x1542 SWAP3 SWAP2 SWAP1 PUSH2 0x2410 JUMP JUMPDEST PUSH1 0x40 MLOAD DUP1 SWAP2 SUB SWAP1 REVERT JUMPDEST PUSH0 PUSH1 0x64 PUSH1 0x4 SLOAD DUP4 PUSH2 0x155C SWAP2 SWAP1 PUSH2 0x25E9 JUMP JUMPDEST PUSH2 0x1566 SWAP2 SWAP1 PUSH2 0x2657 JUMP JUMPDEST SWAP1 POP PUSH0 DUP2 DUP4 PUSH2 0x1575 SWAP2 SWAP1 PUSH2 0x272A JUMP JUMPDEST SWAP1 POP PUSH0 DUP3 GT ISZERO PUSH2 0x161E JUMPI PUSH32 0x0 PUSH20 0xFFFFFFFFFFFFFFFFFFFFFFFFFFFFFFFFFFFFFFFF AND PUSH4 0x42966C68 DUP4 PUSH1 0x40 MLOAD DUP3 PUSH4 0xFFFFFFFF AND PUSH1 0xE0 SHL DUP2 MSTORE PUSH1 0x4 ADD PUSH2 0x15D8 SWAP2 SWAP1 PUSH2 0x2123 JUMP JUMPDEST PUSH0 PUSH1 0x40 MLOAD DUP1 DUP4 SUB DUP2 PUSH0 DUP8 DUP1 EXTCODESIZE ISZERO DUP1 ISZERO PUSH2 0x15EF JUMPI PUSH0 DUP1 REVERT JUMPDEST POP GAS CALL ISZERO DUP1 ISZERO PUSH2 0x1601 JUMPI RETURNDATASIZE PUSH0 DUP1 RETURNDATACOPY RETURNDATASIZE PUSH0 REVERT JUMPDEST POP POP POP POP DUP2 PUSH1 0x8 PUSH0 DUP3 DUP3 SLOAD PUSH2 0x1616 SWAP2 SWAP1 PUSH2 0x20E1 JUMP JUMPDEST SWAP3 POP POP DUP2 SWAP1 SSTORE POP JUMPDEST PUSH0 DUP2 GT DUP1 ISZERO PUSH2 0x167A JUMPI POP PUSH0 PUSH20 0xFFFFFFFFFFFFFFFFFFFFFFFFFFFFFFFFFFFFFFFF AND PUSH1 0x1 PUSH0 SWAP1 SLOAD SWAP1 PUSH2 0x100 EXP SWAP1 DIV PUSH20 0xFFFFFFFFFFFFFFFFFFFFFFFFFFFFFFFFFFFFFFFF AND PUSH20 0xFFFFFFFFFFFFFFFFFFFFFFFFFFFFFFFFFFFFFFFF AND EQ ISZERO JUMPDEST ISZERO PUSH2 0x17CC JUMPI PUSH32 0x0 PUSH20 0xFFFFFFFFFFFFFFFFFFFFFFFFFFFFFFFFFFFFFFFF AND PUSH4 0x423F6CEF PUSH1 0x1 PUSH0 SWAP1 SLOAD SWAP1 PUSH2 0x100 EXP SWAP1 DIV PUSH20 0xFFFFFFFFFFFFFFFFFFFFFFFFFFFFFFFFFFFFFFFF AND DUP4 PUSH1 0x40 MLOAD DUP4 PUSH4 0xFFFFFFFF AND PUSH1 0xE0 SHL DUP2 MSTORE PUSH1 0x4 ADD PUSH2 0x16FB SWAP3 SWAP2 SWAP1 PUSH2 0x24B7 JUMP JUMPDEST PUSH0 PUSH1 0x40 MLOAD DUP1 DUP4 SUB DUP2 PUSH0 DUP8 DUP1 EXTCODESIZE ISZERO DUP1 ISZERO PUSH2 0x1712 JUMPI PUSH0 DUP1 REVERT JUMPDEST POP GAS CALL ISZERO DUP1 ISZERO PUSH2 0x1724 JUMPI RETURNDATASIZE PUSH0 DUP1 RETURNDATACOPY RETURNDATASIZE PUSH0 REVERT JUMPDEST POP POP POP POP PUSH1 0x1 PUSH0 SWAP1 SLOAD SWAP1 PUSH2 0x100 EXP SWAP1 DIV PUSH20 0xFFFFFFFFFFFFFFFFFFFFFFFFFFFFFFFFFFFFFFFF AND PUSH20 0xFFFFFFFFFFFFFFFFFFFFFFFFFFFFFFFFFFFFFFFF AND PUSH4 0x246132F9 DUP3 PUSH1 0x5 SLOAD PUSH1 0x40 MLOAD DUP4 PUSH4 0xFFFFFFFF AND PUSH1 0xE0 SHL DUP2 MSTORE PUSH1 0x4 ADD PUSH2 0x1786 SWAP3 SWAP2 SWAP1 PUSH2 0x2410 JUMP JUMPDEST PUSH0 PUSH1 0x40 MLOAD DUP1 DUP4 SUB DUP2 PUSH0 DUP8 DUP1 EXTCODESIZE ISZERO DUP1 ISZERO PUSH2 0x179D JUMPI PUSH0 DUP1 REVERT JUMPDEST POP GAS CALL ISZERO DUP1 ISZERO PUSH2 0x17AF JUMPI RETURNDATASIZE PUSH0 DUP1 RETURNDATACOPY RETURNDATASIZE PUSH0 REVERT JUMPDEST POP POP POP POP DUP1 PUSH1 0x9 PUSH0 DUP3 DUP3 SLOAD PUSH2 0x17C4 SWAP2 SWAP1 PUSH2 0x20E1 JUMP JUMPDEST SWAP3 POP POP DUP2 SWAP1 SSTORE POP JUMPDEST PUSH32 0x42659A4AA613C1E350C764F0FF2BE36A175AC2A1E4B77B8E1467D1FED32BECC8 DUP15 DUP5 DUP5 DUP5 PUSH1 0x40 MLOAD PUSH2 0x1801 SWAP5 SWAP4 SWAP3 SWAP2 SWAP1 PUSH2 0x23CD JUMP JUMPDEST PUSH1 0x40 MLOAD DUP1 SWAP2 SUB SWAP1 LOG1 POP POP POP POP POP POP POP POP POP POP POP POP PUSH2 0x181D PUSH2 0x1F3A JUMP JUMPDEST POP POP JUMP JUMPDEST PUSH1 0x7 SLOAD DUP2 JUMP JUMPDEST PUSH2 0x182F PUSH2 0x1E91 JUMP JUMPDEST PUSH0 PUSH20 0xFFFFFFFFFFFFFFFFFFFFFFFFFFFFFFFFFFFFFFFF AND DUP2 PUSH20 0xFFFFFFFFFFFFFFFFFFFFFFFFFFFFFFFFFFFFFFFF AND SUB PUSH2 0x1894 JUMPI PUSH1 0x40 MLOAD PUSH32 0xD92E233D00000000000000000000000000000000000000000000000000000000 DUP2 MSTORE PUSH1 0x4 ADD PUSH1 0x40 MLOAD DUP1 SWAP2 SUB SWAP1 REVERT JUMPDEST DUP1 PUSH1 0x1 PUSH0 PUSH2 0x100 EXP DUP2 SLOAD DUP2 PUSH20 0xFFFFFFFFFFFFFFFFFFFFFFFFFFFFFFFFFFFFFFFF MUL NOT AND SWAP1 DUP4 PUSH20 0xFFFFFFFFFFFFFFFFFFFFFFFFFFFFFFFFFFFFFFFF AND MUL OR SWAP1 SSTORE POP DUP1 PUSH20 0xFFFFFFFFFFFFFFFFFFFFFFFFFFFFFFFFFFFFFFFF AND PUSH32 0xF520447191196B125F76F7110397FDF32B1B9CEFB7DEC323BD3B998022AC2338 PUSH1 0x40 MLOAD PUSH1 0x40 MLOAD DUP1 SWAP2 SUB SWAP1 LOG2 POP JUMP JUMPDEST PUSH2 0x1922 PUSH2 0x1E91 JUMP JUMPDEST PUSH0 PUSH20 0xFFFFFFFFFFFFFFFFFFFFFFFFFFFFFFFFFFFFFFFF AND DUP3 PUSH20 0xFFFFFFFFFFFFFFFFFFFFFFFFFFFFFFFFFFFFFFFF AND SUB PUSH2 0x1987 JUMPI PUSH1 0x40 MLOAD PUSH32 0xD92E233D00000000000000000000000000000000000000000000000000000000 DUP2 MSTORE PUSH1 0x4 ADD PUSH1 0x40 MLOAD DUP1 SWAP2 SUB SWAP1 REVERT JUMPDEST DUP1 PUSH1 0x6 PUSH0 DUP5 PUSH20 0xFFFFFFFFFFFFFFFFFFFFFFFFFFFFFFFFFFFFFFFF AND PUSH20 0xFFFFFFFFFFFFFFFFFFFFFFFFFFFFFFFFFFFFFFFF AND DUP2 MSTORE PUSH1 0x20 ADD SWAP1 DUP2 MSTORE PUSH1 0x20 ADD PUSH0 KECCAK256 PUSH0 PUSH2 0x100 EXP DUP2 SLOAD DUP2 PUSH1 0xFF MUL NOT AND SWAP1 DUP4 ISZERO ISZERO MUL OR SWAP1 SSTORE POP DUP2 PUSH20 0xFFFFFFFFFFFFFFFFFFFFFFFFFFFFFFFFFFFFFFFF AND PUSH32 0xBAC4A6EE215C0287F7DA3A73C4FA957DDE930DC8190BBA3F30D0104AE15CA9FD DUP3 PUSH1 0x40 MLOAD PUSH2 0x1A21 SWAP2 SWAP1 PUSH2 0x2253 JUMP JUMPDEST PUSH1 0x40 MLOAD DUP1 SWAP2 SUB SWAP1 LOG2 POP POP JUMP JUMPDEST PUSH2 0x1A35 PUSH2 0x1E91 JUMP JUMPDEST PUSH1 0x64 DUP2 GT ISZERO PUSH2 0x1A7B JUMPI DUP1 PUSH1 0x40 MLOAD PUSH32 0x23542F7800000000000000000000000000000000000000000000000000000000 DUP2 MSTORE PUSH1 0x4 ADD PUSH2 0x1A72 SWAP2 SWAP1 PUSH2 0x2123 JUMP JUMPDEST PUSH1 0x40 MLOAD DUP1 SWAP2 SUB SWAP1 REVERT JUMPDEST DUP1 PUSH1 0x4 DUP2 SWAP1 SSTORE POP PUSH32 0xE85D9362D5330E5046BA20D38140F318950327F15B22123DAE77DFFF2F1DDE71 DUP2 PUSH1 0x40 MLOAD PUSH2 0x1AB1 SWAP2 SWAP1 PUSH2 0x2123 JUMP JUMPDEST PUSH1 0x40 MLOAD DUP1 SWAP2 SUB SWAP1 LOG1 POP JUMP JUMPDEST PUSH0 DUP1 PUSH0 DUP1 PUSH1 0x7 SLOAD PUSH1 0x8 SLOAD PUSH1 0x9 SLOAD PUSH1 0xA SLOAD SWAP4 POP SWAP4 POP SWAP4 POP SWAP4 POP SWAP1 SWAP2 SWAP3 SWAP4 JUMP JUMPDEST PUSH0 PUSH32 0x0 PUSH20 0xFFFFFFFFFFFFFFFFFFFFFFFFFFFFFFFFFFFFFFFF AND PUSH4 0x70A08231 ADDRESS PUSH1 0x40 MLOAD DUP3 PUSH4 0xFFFFFFFF AND PUSH1 0xE0 SHL DUP2 MSTORE PUSH1 0x4 ADD PUSH2 0x1B34 SWAP2 SWAP1 PUSH2 0x227B JUMP JUMPDEST PUSH1 0x20 PUSH1 0x40 MLOAD DUP1 DUP4 SUB DUP2 DUP7 GAS STATICCALL ISZERO DUP1 ISZERO PUSH2 0x1B4F JUMPI RETURNDATASIZE PUSH0 DUP1 RETURNDATACOPY RETURNDATASIZE PUSH0 REVERT JUMPDEST POP POP POP POP PUSH1 0x40 MLOAD RETURNDATASIZE PUSH1 0x1F NOT PUSH1 0x1F DUP3 ADD AND DUP3 ADD DUP1 PUSH1 0x40 MSTORE POP DUP2 ADD SWAP1 PUSH2 0x1B73 SWAP2 SWAP1 PUSH2 0x248C JUMP JUMPDEST SWAP1 POP SWAP1 JUMP JUMPDEST PUSH1 0x9 SLOAD DUP2 JUMP JUMPDEST PUSH2 0x1B86 PUSH2 0x1F18 JUMP JUMPDEST PUSH2 0x1B8E PUSH2 0x1E91 JUMP JUMPDEST PUSH0 DUP2 SUB PUSH2 0x1BC7 JUMPI PUSH1 0x40 MLOAD PUSH32 0x1F2A200500000000000000000000000000000000000000000000000000000000 DUP2 MSTORE PUSH1 0x4 ADD PUSH1 0x40 MLOAD DUP1 SWAP2 SUB SWAP1 REVERT JUMPDEST PUSH0 PUSH20 0xFFFFFFFFFFFFFFFFFFFFFFFFFFFFFFFFFFFFFFFF AND PUSH1 0x2 PUSH0 SWAP1 SLOAD SWAP1 PUSH2 0x100 EXP SWAP1 DIV PUSH20 0xFFFFFFFFFFFFFFFFFFFFFFFFFFFFFFFFFFFFFFFF AND PUSH20 0xFFFFFFFFFFFFFFFFFFFFFFFFFFFFFFFFFFFFFFFF AND SUB PUSH2 0x1C4D JUMPI PUSH1 0x40 MLOAD PUSH32 0xD92E233D00000000000000000000000000000000000000000000000000000000 DUP2 MSTORE PUSH1 0x4 ADD PUSH1 0x40 MLOAD DUP1 SWAP2 SUB SWAP1 REVERT JUMPDEST SELFBALANCE DUP2 GT ISZERO PUSH2 0x1C94 JUMPI DUP1 SELFBALANCE PUSH1 0x40 MLOAD PUSH32 0x1FBEAEA000000000000000000000000000000000000000000000000000000000 DUP2 MSTORE PUSH1 0x4 ADD PUSH2 0x1C8B SWAP3 SWAP2 SWAP1 PUSH2 0x2410 JUMP JUMPDEST PUSH1 0x40 MLOAD DUP1 SWAP2 SUB SWAP1 REVERT JUMPDEST PUSH1 0x2 PUSH0 SWAP1 SLOAD SWAP1 PUSH2 0x100 EXP SWAP1 DIV PUSH20 0xFFFFFFFFFFFFFFFFFFFFFFFFFFFFFFFFFFFFFFFF AND PUSH20 0xFFFFFFFFFFFFFFFFFFFFFFFFFFFFFFFFFFFFFFFF AND PUSH4 0xD0E30DB0 DUP3 PUSH1 0x40 MLOAD DUP3 PUSH4 0xFFFFFFFF AND PUSH1 0xE0 SHL DUP2 MSTORE PUSH1 0x4 ADD PUSH0 PUSH1 0x40 MLOAD DUP1 DUP4 SUB DUP2 DUP6 DUP9 DUP1 EXTCODESIZE ISZERO DUP1 ISZERO PUSH2 0x1CFB JUMPI PUSH0 DUP1 REVERT JUMPDEST POP GAS CALL ISZERO DUP1 ISZERO PUSH2 0x1D0D JUMPI RETURNDATASIZE PUSH0 DUP1 RETURNDATACOPY RETURNDATASIZE PUSH0 REVERT JUMPDEST POP POP POP POP POP DUP1 PUSH1 0xA PUSH0 DUP3 DUP3 SLOAD PUSH2 0x1D23 SWAP2 SWAP1 PUSH2 0x20E1 JUMP JUMPDEST SWAP3 POP POP DUP2 SWAP1 SSTORE POP PUSH32 0x65DA79752E89C0DEBD87A1C71AE1D472ADD974DC19B2FC258F88B5598FCFA76 DUP2 PUSH1 0x40 MLOAD PUSH2 0x1D59 SWAP2 SWAP1 PUSH2 0x2123 JUMP JUMPDEST PUSH1 0x40 MLOAD DUP1 SWAP2 SUB SWAP1 LOG1 PUSH2 0x1D69 PUSH2 0x1F3A JUMP JUMPDEST POP JUMP JUMPDEST PUSH2 0x1D74 PUSH2 0x1E91 JUMP JUMPDEST PUSH0 PUSH20 0xFFFFFFFFFFFFFFFFFFFFFFFFFFFFFFFFFFFFFFFF AND DUP2 PUSH20 0xFFFFFFFFFFFFFFFFFFFFFFFFFFFFFFFFFFFFFFFF AND SUB PUSH2 0x1DE4 JUMPI PUSH0 PUSH1 0x40 MLOAD PUSH32 0x1E4FBDF700000000000000000000000000000000000000000000000000000000 DUP2 MSTORE PUSH1 0x4 ADD PUSH2 0x1DDB SWAP2 SWAP1 PUSH2 0x227B JUMP JUMPDEST PUSH1 0x40 MLOAD DUP1 SWAP2 SUB SWAP1 REVERT JUMPDEST PUSH2 0x1DED DUP2 PUSH2 0x1F54 JUMP JUMPDEST POP JUMP JUMPDEST PUSH0 CALLVALUE SUB PUSH2 0x1E29 JUMPI PUSH1 0x40 MLOAD PUSH32 0x1F2A200500000000000000000000000000000000000000000000000000000000 DUP2 MSTORE PUSH1 0x4 ADD PUSH1 0x40 MLOAD DUP1 SWAP2 SUB SWAP1 REVERT JUMPDEST CALLVALUE PUSH1 0x7 PUSH0 DUP3 DUP3 SLOAD PUSH2 0x1E3A SWAP2 SWAP1 PUSH2 0x20E1 JUMP JUMPDEST SWAP3 POP POP DUP2 SWAP1 SSTORE POP CALLER PUSH20 0xFFFFFFFFFFFFFFFFFFFFFFFFFFFFFFFFFFFFFFFF AND PUSH32 0x2CCFC58C2CEF4EE590B5F16BE0548CC54AFC12E1C66A67B362B7D640FD16BB2D CALLVALUE PUSH1 0x40 MLOAD PUSH2 0x1E87 SWAP2 SWAP1 PUSH2 0x2123 JUMP JUMPDEST PUSH1 0x40 MLOAD DUP1 SWAP2 SUB SWAP1 LOG2 JUMP JUMPDEST PUSH2 0x1E99 PUSH2 0x2015 JUMP JUMPDEST PUSH20 0xFFFFFFFFFFFFFFFFFFFFFFFFFFFFFFFFFFFFFFFF AND PUSH2 0x1EB7 PUSH2 0xEE8 JUMP JUMPDEST PUSH20 0xFFFFFFFFFFFFFFFFFFFFFFFFFFFFFFFFFFFFFFFF AND EQ PUSH2 0x1F16 JUMPI PUSH2 0x1EDA PUSH2 0x2015 JUMP JUMPDEST PUSH1 0x40 MLOAD PUSH32 0x118CDAA700000000000000000000000000000000000000000000000000000000 DUP2 MSTORE PUSH1 0x4 ADD PUSH2 0x1F0D SWAP2 SWAP1 PUSH2 0x227B JUMP JUMPDEST PUSH1 0x40 MLOAD DUP1 SWAP2 SUB SWAP1 REVERT JUMPDEST JUMP JUMPDEST PUSH2 0x1F20 PUSH2 0x201C JUMP JUMPDEST PUSH1 0x2 PUSH2 0x1F32 PUSH2 0x1F2D PUSH2 0x205D JUMP JUMPDEST PUSH2 0x2086 JUMP JUMPDEST PUSH0 ADD DUP2 SWAP1 SSTORE POP JUMP JUMPDEST PUSH1 0x1 PUSH2 0x1F4C PUSH2 0x1F47 PUSH2 0x205D JUMP JUMPDEST PUSH2 0x2086 JUMP JUMPDEST PUSH0 ADD DUP2 SWAP1 SSTORE POP JUMP JUMPDEST PUSH0 DUP1 PUSH0 SWAP1 SLOAD SWAP1 PUSH2 0x100 EXP SWAP1 DIV PUSH20 0xFFFFFFFFFFFFFFFFFFFFFFFFFFFFFFFFFFFFFFFF AND SWAP1 POP DUP2 PUSH0 DUP1 PUSH2 0x100 EXP DUP2 SLOAD DUP2 PUSH20 0xFFFFFFFFFFFFFFFFFFFFFFFFFFFFFFFFFFFFFFFF MUL NOT AND SWAP1 DUP4 PUSH20 0xFFFFFFFFFFFFFFFFFFFFFFFFFFFFFFFFFFFFFFFF AND MUL OR SWAP1 SSTORE POP DUP2 PUSH20 0xFFFFFFFFFFFFFFFFFFFFFFFFFFFFFFFFFFFFFFFF AND DUP2 PUSH20 0xFFFFFFFFFFFFFFFFFFFFFFFFFFFFFFFFFFFFFFFF AND PUSH32 0x8BE0079C531659141344CD1FD0A4F28419497F9722A3DAAFE3B4186F6B6457E0 PUSH1 0x40 MLOAD PUSH1 0x40 MLOAD DUP1 SWAP2 SUB SWAP1 LOG3 POP POP JUMP JUMPDEST PUSH0 CALLER SWAP1 POP SWAP1 JUMP JUMPDEST PUSH2 0x2024 PUSH2 0x208F JUMP JUMPDEST ISZERO PUSH2 0x205B JUMPI PUSH1 0x40 MLOAD PUSH32 0x3EE5AEB500000000000000000000000000000000000000000000000000000000 DUP2 MSTORE PUSH1 0x4 ADD PUSH1 0x40 MLOAD DUP1 SWAP2 SUB SWAP1 REVERT JUMPDEST JUMP JUMPDEST PUSH0 PUSH32 0x9B779B17422D0DF92223018B32B4D1FA46E071723D6817E2486D003BECC55F00 PUSH0 SHL SWAP1 POP SWAP1 JUMP JUMPDEST PUSH0 DUP2 SWAP1 POP SWAP2 SWAP1 POP JUMP JUMPDEST PUSH0 PUSH1 0x2 PUSH2 0x20A2 PUSH2 0x209D PUSH2 0x205D JUMP JUMPDEST PUSH2 0x2086 JUMP JUMPDEST PUSH0 ADD SLOAD EQ SWAP1 POP SWAP1 JUMP JUMPDEST PUSH0 DUP2 SWAP1 POP SWAP2 SWAP1 POP JUMP JUMPDEST PUSH32 0x4E487B7100000000000000000000000000000000000000000000000000000000 PUSH0 MSTORE PUSH1 0x11 PUSH1 0x4 MSTORE PUSH1 0x24 PUSH0 REVERT JUMPDEST PUSH0 PUSH2 0x20EB DUP3 PUSH2 0x20AB JUMP JUMPDEST SWAP2 POP PUSH2 0x20F6 DUP4 PUSH2 0x20AB JUMP JUMPDEST SWAP3 POP DUP3 DUP3 ADD SWAP1 POP DUP1 DUP3 GT ISZERO PUSH2 0x210E JUMPI PUSH2 0x210D PUSH2 0x20B4 JUMP JUMPDEST JUMPDEST SWAP3 SWAP2 POP POP JUMP JUMPDEST PUSH2 0x211D DUP2 PUSH2 0x20AB JUMP JUMPDEST DUP3 MSTORE POP POP JUMP JUMPDEST PUSH0 PUSH1 0x20 DUP3 ADD SWAP1 POP PUSH2 0x2136 PUSH0 DUP4 ADD DUP5 PUSH2 0x2114 JUMP JUMPDEST SWAP3 SWAP2 POP POP JUMP JUMPDEST PUSH0 PUSH20 0xFFFFFFFFFFFFFFFFFFFFFFFFFFFFFFFFFFFFFFFF DUP3 AND SWAP1 POP SWAP2 SWAP1 POP JUMP JUMPDEST PUSH0 DUP2 SWAP1 POP SWAP2 SWAP1 POP JUMP JUMPDEST PUSH0 PUSH2 0x217E PUSH2 0x2179 PUSH2 0x2174 DUP5 PUSH2 0x213C JUMP JUMPDEST PUSH2 0x215B JUMP JUMPDEST PUSH2 0x213C JUMP JUMPDEST SWAP1 POP SWAP2 SWAP1 POP JUMP JUMPDEST PUSH0 PUSH2 0x218F DUP3 PUSH2 0x2164 JUMP JUMPDEST SWAP1 POP SWAP2 SWAP1 POP JUMP JUMPDEST PUSH0 PUSH2 0x21A0 DUP3 PUSH2 0x2185 JUMP JUMPDEST SWAP1 POP SWAP2 SWAP1 POP JUMP JUMPDEST PUSH2 0x21B0 DUP2 PUSH2 0x2196 JUMP JUMPDEST DUP3 MSTORE POP POP JUMP JUMPDEST PUSH0 PUSH1 0x20 DUP3 ADD SWAP1 POP PUSH2 0x21C9 PUSH0 DUP4 ADD DUP5 PUSH2 0x21A7 JUMP JUMPDEST SWAP3 SWAP2 POP POP JUMP JUMPDEST PUSH0 DUP1 REVERT JUMPDEST PUSH0 PUSH2 0x21DD DUP3 PUSH2 0x213C JUMP JUMPDEST SWAP1 POP SWAP2 SWAP1 POP JUMP JUMPDEST PUSH2 0x21ED DUP2 PUSH2 0x21D3 JUMP JUMPDEST DUP2 EQ PUSH2 0x21F7 JUMPI PUSH0 DUP1 REVERT JUMPDEST POP JUMP JUMPDEST PUSH0 DUP2 CALLDATALOAD SWAP1 POP PUSH2 0x2208 DUP2 PUSH2 0x21E4 JUMP JUMPDEST SWAP3 SWAP2 POP POP JUMP JUMPDEST PUSH0 PUSH1 0x20 DUP3 DUP5 SUB SLT ISZERO PUSH2 0x2223 JUMPI PUSH2 0x2222 PUSH2 0x21CF JUMP JUMPDEST JUMPDEST PUSH0 PUSH2 0x2230 DUP5 DUP3 DUP6 ADD PUSH2 0x21FA JUMP JUMPDEST SWAP2 POP POP SWAP3 SWAP2 POP POP JUMP JUMPDEST PUSH0 DUP2 ISZERO ISZERO SWAP1 POP SWAP2 SWAP1 POP JUMP JUMPDEST PUSH2 0x224D DUP2 PUSH2 0x2239 JUMP JUMPDEST DUP3 MSTORE POP POP JUMP JUMPDEST PUSH0 PUSH1 0x20 DUP3 ADD SWAP1 POP PUSH2 0x2266 PUSH0 DUP4 ADD DUP5 PUSH2 0x2244 JUMP JUMPDEST SWAP3 SWAP2 POP POP JUMP JUMPDEST PUSH2 0x2275 DUP2 PUSH2 0x21D3 JUMP JUMPDEST DUP3 MSTORE POP POP JUMP JUMPDEST PUSH0 PUSH1 0x20 DUP3 ADD SWAP1 POP PUSH2 0x228E PUSH0 DUP4 ADD DUP5 PUSH2 0x226C JUMP JUMPDEST SWAP3 SWAP2 POP POP JUMP JUMPDEST PUSH2 0x229D DUP2 PUSH2 0x20AB JUMP JUMPDEST DUP2 EQ PUSH2 0x22A7 JUMPI PUSH0 DUP1 REVERT JUMPDEST POP JUMP JUMPDEST PUSH0 DUP2 CALLDATALOAD SWAP1 POP PUSH2 0x22B8 DUP2 PUSH2 0x2294 JUMP JUMPDEST SWAP3 SWAP2 POP POP JUMP JUMPDEST PUSH0 DUP1 PUSH1 0x40 DUP4 DUP6 SUB SLT ISZERO PUSH2 0x22D4 JUMPI PUSH2 0x22D3 PUSH2 0x21CF JUMP JUMPDEST JUMPDEST PUSH0 PUSH2 0x22E1 DUP6 DUP3 DUP7 ADD PUSH2 0x21FA JUMP JUMPDEST SWAP3 POP POP PUSH1 0x20 PUSH2 0x22F2 DUP6 DUP3 DUP7 ADD PUSH2 0x22AA JUMP JUMPDEST SWAP2 POP POP SWAP3 POP SWAP3 SWAP1 POP JUMP JUMPDEST PUSH0 DUP1 PUSH1 0x40 DUP4 DUP6 SUB SLT ISZERO PUSH2 0x2312 JUMPI PUSH2 0x2311 PUSH2 0x21CF JUMP JUMPDEST JUMPDEST PUSH0 PUSH2 0x231F DUP6 DUP3 DUP7 ADD PUSH2 0x22AA JUMP JUMPDEST SWAP3 POP POP PUSH1 0x20 PUSH2 0x2330 DUP6 DUP3 DUP7 ADD PUSH2 0x22AA JUMP JUMPDEST SWAP2 POP POP SWAP3 POP SWAP3 SWAP1 POP JUMP JUMPDEST PUSH0 PUSH1 0x20 DUP3 DUP5 SUB SLT ISZERO PUSH2 0x234F JUMPI PUSH2 0x234E PUSH2 0x21CF JUMP JUMPDEST JUMPDEST PUSH0 PUSH2 0x235C DUP5 DUP3 DUP6 ADD PUSH2 0x22AA JUMP JUMPDEST SWAP2 POP POP SWAP3 SWAP2 POP POP JUMP JUMPDEST PUSH2 0x236E DUP2 PUSH2 0x2239 JUMP JUMPDEST DUP2 EQ PUSH2 0x2378 JUMPI PUSH0 DUP1 REVERT JUMPDEST POP JUMP JUMPDEST PUSH0 DUP2 CALLDATALOAD SWAP1 POP PUSH2 0x2389 DUP2 PUSH2 0x2365 JUMP JUMPDEST SWAP3 SWAP2 POP POP JUMP JUMPDEST PUSH0 DUP1 PUSH1 0x40 DUP4 DUP6 SUB SLT ISZERO PUSH2 0x23A5 JUMPI PUSH2 0x23A4 PUSH2 0x21CF JUMP JUMPDEST JUMPDEST PUSH0 PUSH2 0x23B2 DUP6 DUP3 DUP7 ADD PUSH2 0x21FA JUMP JUMPDEST SWAP3 POP POP PUSH1 0x20 PUSH2 0x23C3 DUP6 DUP3 DUP7 ADD PUSH2 0x237B JUMP JUMPDEST SWAP2 POP POP SWAP3 POP SWAP3 SWAP1 POP JUMP JUMPDEST PUSH0 PUSH1 0x80 DUP3 ADD SWAP1 POP PUSH2 0x23E0 PUSH0 DUP4 ADD DUP8 PUSH2 0x2114 JUMP JUMPDEST PUSH2 0x23ED PUSH1 0x20 DUP4 ADD DUP7 PUSH2 0x2114 JUMP JUMPDEST PUSH2 0x23FA PUSH1 0x40 DUP4 ADD DUP6 PUSH2 0x2114 JUMP JUMPDEST PUSH2 0x2407 PUSH1 0x60 DUP4 ADD DUP5 PUSH2 0x2114 JUMP JUMPDEST SWAP6 SWAP5 POP POP POP POP POP JUMP JUMPDEST PUSH0 PUSH1 0x40 DUP3 ADD SWAP1 POP PUSH2 0x2423 PUSH0 DUP4 ADD DUP6 PUSH2 0x2114 JUMP JUMPDEST PUSH2 0x2430 PUSH1 0x20 DUP4 ADD DUP5 PUSH2 0x2114 JUMP JUMPDEST SWAP4 SWAP3 POP POP POP JUMP JUMPDEST PUSH0 DUP2 SWAP1 POP SWAP3 SWAP2 POP POP JUMP JUMPDEST POP JUMP JUMPDEST PUSH0 PUSH2 0x244F PUSH0 DUP4 PUSH2 0x2437 JUMP JUMPDEST SWAP2 POP PUSH2 0x245A DUP3 PUSH2 0x2441 JUMP JUMPDEST PUSH0 DUP3 ADD SWAP1 POP SWAP2 SWAP1 POP JUMP JUMPDEST PUSH0 PUSH2 0x246E DUP3 PUSH2 0x2444 JUMP JUMPDEST SWAP2 POP DUP2 SWAP1 POP SWAP2 SWAP1 POP JUMP JUMPDEST PUSH0 DUP2 MLOAD SWAP1 POP PUSH2 0x2486 DUP2 PUSH2 0x2294 JUMP JUMPDEST SWAP3 SWAP2 POP POP JUMP JUMPDEST PUSH0 PUSH1 0x20 DUP3 DUP5 SUB SLT ISZERO PUSH2 0x24A1 JUMPI PUSH2 0x24A0 PUSH2 0x21CF JUMP JUMPDEST JUMPDEST PUSH0 PUSH2 0x24AE DUP5 DUP3 DUP6 ADD PUSH2 0x2478 JUMP JUMPDEST SWAP2 POP POP SWAP3 SWAP2 POP POP JUMP JUMPDEST PUSH0 PUSH1 0x40 DUP3 ADD SWAP1 POP PUSH2 0x24CA PUSH0 DUP4 ADD DUP6 PUSH2 0x226C JUMP JUMPDEST PUSH2 0x24D7 PUSH1 0x20 DUP4 ADD DUP5 PUSH2 0x2114 JUMP JUMPDEST SWAP4 SWAP3 POP POP POP JUMP JUMPDEST PUSH0 PUSH14 0xFFFFFFFFFFFFFFFFFFFFFFFFFFFF DUP3 AND SWAP1 POP SWAP2 SWAP1 POP JUMP JUMPDEST PUSH2 0x2500 DUP2 PUSH2 0x24DE JUMP JUMPDEST DUP2 EQ PUSH2 0x250A JUMPI PUSH0 DUP1 REVERT JUMPDEST POP JUMP JUMPDEST PUSH0 DUP2 MLOAD SWAP1 POP PUSH2 0x251B DUP2 PUSH2 0x24F7 JUMP JUMPDEST SWAP3 SWAP2 POP POP JUMP JUMPDEST PUSH0 PUSH4 0xFFFFFFFF DUP3 AND SWAP1 POP SWAP2 SWAP1 POP JUMP JUMPDEST PUSH2 0x2539 DUP2 PUSH2 0x2521 JUMP JUMPDEST DUP2 EQ PUSH2 0x2543 JUMPI PUSH0 DUP1 REVERT JUMPDEST POP JUMP JUMPDEST PUSH0 DUP2 MLOAD SWAP1 POP PUSH2 0x2554 DUP2 PUSH2 0x2530 JUMP JUMPDEST SWAP3 SWAP2 POP POP JUMP JUMPDEST PUSH0 DUP1 PUSH0 PUSH1 0x60 DUP5 DUP7 SUB SLT ISZERO PUSH2 0x2571 JUMPI PUSH2 0x2570 PUSH2 0x21CF JUMP JUMPDEST JUMPDEST PUSH0 PUSH2 0x257E DUP7 DUP3 DUP8 ADD PUSH2 0x250D JUMP JUMPDEST SWAP4 POP POP PUSH1 0x20 PUSH2 0x258F DUP7 DUP3 DUP8 ADD PUSH2 0x250D JUMP JUMPDEST SWAP3 POP POP PUSH1 0x40 PUSH2 0x25A0 DUP7 DUP3 DUP8 ADD PUSH2 0x2546 JUMP JUMPDEST SWAP2 POP POP SWAP3 POP SWAP3 POP SWAP3 JUMP JUMPDEST PUSH0 DUP2 MLOAD SWAP1 POP PUSH2 0x25B8 DUP2 PUSH2 0x21E4 JUMP JUMPDEST SWAP3 SWAP2 POP POP JUMP JUMPDEST PUSH0 PUSH1 0x20 DUP3 DUP5 SUB SLT ISZERO PUSH2 0x25D3 JUMPI PUSH2 0x25D2 PUSH2 0x21CF JUMP JUMPDEST JUMPDEST PUSH0 PUSH2 0x25E0 DUP5 DUP3 DUP6 ADD PUSH2 0x25AA JUMP JUMPDEST SWAP2 POP POP SWAP3 SWAP2 POP POP JUMP JUMPDEST PUSH0 PUSH2 0x25F3 DUP3 PUSH2 0x20AB JUMP JUMPDEST SWAP2 POP PUSH2 0x25FE DUP4 PUSH2 0x20AB JUMP JUMPDEST SWAP3 POP DUP3 DUP3 MUL PUSH2 0x260C DUP2 PUSH2 0x20AB JUMP JUMPDEST SWAP2 POP DUP3 DUP3 DIV DUP5 EQ DUP4 ISZERO OR PUSH2 0x2623 JUMPI PUSH2 0x2622 PUSH2 0x20B4 JUMP JUMPDEST JUMPDEST POP SWAP3 SWAP2 POP POP JUMP JUMPDEST PUSH32 0x4E487B7100000000000000000000000000000000000000000000000000000000 PUSH0 MSTORE PUSH1 0x12 PUSH1 0x4 MSTORE PUSH1 0x24 PUSH0 REVERT JUMPDEST PUSH0 PUSH2 0x2661 DUP3 PUSH2 0x20AB JUMP JUMPDEST SWAP2 POP PUSH2 0x266C DUP4 PUSH2 0x20AB JUMP JUMPDEST SWAP3 POP DUP3 PUSH2 0x267C JUMPI PUSH2 0x267B PUSH2 0x262A JUMP JUMPDEST JUMPDEST DUP3 DUP3 DIV SWAP1 POP SWAP3 SWAP2 POP POP JUMP JUMPDEST PUSH0 DUP2 SWAP1 POP SWAP2 SWAP1 POP JUMP JUMPDEST PUSH0 PUSH2 0x26AA PUSH2 0x26A5 PUSH2 0x26A0 DUP5 PUSH2 0x2687 JUMP JUMPDEST PUSH2 0x215B JUMP JUMPDEST PUSH2 0x20AB JUMP JUMPDEST SWAP1 POP SWAP2 SWAP1 POP JUMP JUMPDEST PUSH2 0x26BA DUP2 PUSH2 0x2690 JUMP JUMPDEST DUP3 MSTORE POP POP JUMP JUMPDEST PUSH0 PUSH1 0x60 DUP3 ADD SWAP1 POP PUSH2 0x26D3 PUSH0 DUP4 ADD DUP7 PUSH2 0x2114 JUMP JUMPDEST PUSH2 0x26E0 PUSH1 0x20 DUP4 ADD DUP6 PUSH2 0x26B1 JUMP JUMPDEST PUSH2 0x26ED PUSH1 0x40 DUP4 ADD DUP5 PUSH2 0x226C JUMP JUMPDEST SWAP5 SWAP4 POP POP POP POP JUMP JUMPDEST PUSH0 PUSH1 0x60 DUP3 ADD SWAP1 POP PUSH2 0x2708 PUSH0 DUP4 ADD DUP7 PUSH2 0x26B1 JUMP JUMPDEST PUSH2 0x2715 PUSH1 0x20 DUP4 ADD DUP6 PUSH2 0x2114 JUMP JUMPDEST PUSH2 0x2722 PUSH1 0x40 DUP4 ADD DUP5 PUSH2 0x226C JUMP JUMPDEST SWAP5 SWAP4 POP POP POP POP JUMP JUMPDEST PUSH0 PUSH2 0x2734 DUP3 PUSH2 0x20AB JUMP JUMPDEST SWAP2 POP PUSH2 0x273F DUP4 PUSH2 0x20AB JUMP JUMPDEST SWAP3 POP DUP3 DUP3 SUB SWAP1 POP DUP2 DUP2 GT ISZERO PUSH2 0x2757 JUMPI PUSH2 0x2756 PUSH2 0x20B4 JUMP JUMPDEST JUMPDEST SWAP3 SWAP2 POP POP JUMP INVALID LOG2 PUSH5 0x6970667358 0x22 SLT KECCAK256 STATICCALL 0xDA 0x27 0xBA DUP4 0xB8 DUP16 0xF CHAINID 0xE5 RETURNDATACOPY BLOBHASH DUP2 MOD LOG3 0xF6 DUP11 0xCA 0xD9 DUP7 DUP10 PUSH20 0x2974488F658C39D4466464736F6C634300081800 CALLER "
				},
				"gasEstimates": {
					"creation": {
						"codeDepositCost": "2026200",
						"executionCost": "infinite",
						"totalCost": "infinite"
					},
					"external": {
						"authorisedFeeSenders(address)": "2902",
						"buybackBurnRatio()": "2515",
						"distributeToPot(uint256)": "infinite",
						"distributeToStaking(uint256,uint256)": "infinite",
						"ethBalance()": "402",
						"executeBuyback(uint256,uint256)": "infinite",
						"getStats()": "infinite",
						"owner()": "2583",
						"prizeEscrow()": "2599",
						"receiveFees()": "infinite",
						"renounceOwnership()": "infinite",
						"setBuybackBurnRatio(uint256)": "infinite",
						"setFeeSender(address,bool)": "infinite",
						"setPrizeEscrow(address)": "infinite",
						"setStakingDistributionPeriod(uint256)": "infinite",
						"setTimbStaking(address)": "infinite",
						"setTimbsEthPair(address)": "infinite",
						"stakingDistributionPeriod()": "2515",
						"timbStaking()": "2620",
						"timbsBalance()": "infinite",
						"timbsEthPair()": "2619",
						"timbsToken()": "infinite",
						"totalFeesReceived()": "2492",
						"totalPotFunded()": "2471",
						"totalTimbsBurned()": "2471",
						"totalTimbsDistributed()": "2469",
						"transferOwnership(address)": "infinite",
						"withdrawOperational(address,uint256)": "infinite"
					}
				},
				"methodIdentifiers": {
					"authorisedFeeSenders(address)": "175ed4ba",
					"buybackBurnRatio()": "5a778c0f",
					"distributeToPot(uint256)": "eb164026",
					"distributeToStaking(uint256,uint256)": "330ac98d",
					"ethBalance()": "4e6630b0",
					"executeBuyback(uint256,uint256)": "97975c75",
					"getStats()": "c59d4847",
					"owner()": "8da5cb5b",
					"prizeEscrow()": "1a3b8e8c",
					"receiveFees()": "f60bb720",
					"renounceOwnership()": "715018a6",
					"setBuybackBurnRatio(uint256)": "b9e4355a",
					"setFeeSender(address,bool)": "ad8944da",
					"setPrizeEscrow(address)": "5f303f1c",
					"setStakingDistributionPeriod(uint256)": "85654e9a",
					"setTimbStaking(address)": "9fe65f19",
					"setTimbsEthPair(address)": "23f49b92",
					"stakingDistributionPeriod()": "926b7189",
					"timbStaking()": "34e908a7",
					"timbsBalance()": "d61b4497",
					"timbsEthPair()": "86507218",
					"timbsToken()": "0e31648f",
					"totalFeesReceived()": "9fbaf3de",
					"totalPotFunded()": "3c3fc552",
					"totalTimbsBurned()": "8bdcf669",
					"totalTimbsDistributed()": "e90900af",
					"transferOwnership(address)": "f2fde38b",
					"withdrawOperational(address,uint256)": "2cb97183"
				}
			},
			"storageLayout": {
				"storage": [
					{
						"astId": 8,
						"contract": "contracts/TimbTreasury.sol:TimbTreasury",
						"label": "_owner",
						"offset": 0,
						"slot": "0",
						"type": "t_address"
					},
					{
						"astId": 1122,
						"contract": "contracts/TimbTreasury.sol:TimbTreasury",
						"label": "timbStaking",
						"offset": 0,
						"slot": "1",
						"type": "t_address"
					},
					{
						"astId": 1125,
						"contract": "contracts/TimbTreasury.sol:TimbTreasury",
						"label": "prizeEscrow",
						"offset": 0,
						"slot": "2",
						"type": "t_address"
					},
					{
						"astId": 1128,
						"contract": "contracts/TimbTreasury.sol:TimbTreasury",
						"label": "timbsEthPair",
						"offset": 0,
						"slot": "3",
						"type": "t_address"
					},
					{
						"astId": 1131,
						"contract": "contracts/TimbTreasury.sol:TimbTreasury",
						"label": "buybackBurnRatio",
						"offset": 0,
						"slot": "4",
						"type": "t_uint256"
					},
					{
						"astId": 1134,
						"contract": "contracts/TimbTreasury.sol:TimbTreasury",
						"label": "stakingDistributionPeriod",
						"offset": 0,
						"slot": "5",
						"type": "t_uint256"
					},
					{
						"astId": 1139,
						"contract": "contracts/TimbTreasury.sol:TimbTreasury",
						"label": "authorisedFeeSenders",
						"offset": 0,
						"slot": "6",
						"type": "t_mapping(t_address,t_bool)"
					},
					{
						"astId": 1142,
						"contract": "contracts/TimbTreasury.sol:TimbTreasury",
						"label": "totalFeesReceived",
						"offset": 0,
						"slot": "7",
						"type": "t_uint256"
					},
					{
						"astId": 1145,
						"contract": "contracts/TimbTreasury.sol:TimbTreasury",
						"label": "totalTimbsBurned",
						"offset": 0,
						"slot": "8",
						"type": "t_uint256"
					},
					{
						"astId": 1148,
						"contract": "contracts/TimbTreasury.sol:TimbTreasury",
						"label": "totalTimbsDistributed",
						"offset": 0,
						"slot": "9",
						"type": "t_uint256"
					},
					{
						"astId": 1151,
						"contract": "contracts/TimbTreasury.sol:TimbTreasury",
						"label": "totalPotFunded",
						"offset": 0,
						"slot": "10",
						"type": "t_uint256"
					}
				],
				"types": {
					"t_address": {
						"encoding": "inplace",
						"label": "address",
						"numberOfBytes": "20"
					},
					"t_bool": {
						"encoding": "inplace",
						"label": "bool",
						"numberOfBytes": "1"
					},
					"t_mapping(t_address,t_bool)": {
						"encoding": "mapping",
						"key": "t_address",
						"label": "mapping(address => bool)",
						"numberOfBytes": "32",
						"value": "t_bool"
					},
					"t_uint256": {
						"encoding": "inplace",
						"label": "uint256",
						"numberOfBytes": "32"
					}
				}
			},
			"userdoc": {
				"kind": "user",
				"methods": {
					"authorisedFeeSenders(address)": {
						"notice": "Authorised callers for receiveFees() (Router, TimbPrize)."
					},
					"buybackBurnRatio()": {
						"notice": "% of purchased TIMBS that gets burned (0–100).         Remainder distributed to TimbStaking."
					},
					"distributeToPot(uint256)": {
						"notice": "Send ETH from treasury to PrizeEscrow to top up prize pot."
					},
					"distributeToStaking(uint256,uint256)": {
						"notice": "Top up TimbStaking rewards directly with TIMBS from treasury."
					},
					"ethBalance()": {
						"notice": "Returns treasury ETH balance."
					},
					"executeBuyback(uint256,uint256)": {
						"notice": "Execute a TIMBS buyback using ETH held in treasury."
					},
					"getStats()": {
						"notice": "Returns lifetime treasury stats."
					},
					"prizeEscrow()": {
						"notice": "PrizeEscrow — receives ETH pot top-ups."
					},
					"receiveFees()": {
						"notice": "Receive protocol fees from Router or TimbPrize."
					},
					"setBuybackBurnRatio(uint256)": {
						"notice": "Set buyback burn ratio (0–100).         0 = all to staking, 100 = all burned."
					},
					"stakingDistributionPeriod()": {
						"notice": "Default staking distribution period when topping up staking."
					},
					"timbStaking()": {
						"notice": "TimbStaking — receives TIMBS distribution share of buyback."
					},
					"timbsBalance()": {
						"notice": "Returns treasury TIMBS balance."
					},
					"timbsEthPair()": {
						"notice": "TIMBS/ETH AMM pair — used for buyback execution."
					},
					"timbsToken()": {
						"notice": "TIMBS token — purchased in buybacks, burned or distributed."
					},
					"totalFeesReceived()": {
						"notice": "Total ETH received as protocol fees (lifetime)."
					},
					"totalPotFunded()": {
						"notice": "Total ETH sent to prize pot (lifetime)."
					},
					"totalTimbsBurned()": {
						"notice": "Total TIMBS burned via buybacks (lifetime)."
					},
					"totalTimbsDistributed()": {
						"notice": "Total TIMBS distributed to stakers via buybacks (lifetime)."
					},
					"withdrawOperational(address,uint256)": {
						"notice": "Withdraw ETH for operational expenses (owner only)."
					}
				},
				"notice": "Protocol fee routing, buyback execution, and revenue distribution. Revenue inflows:   - 0.05% protocol swap fee (from TimbSwapRouter)   - Round settlement cut from TimbPrize (owner-set %)   - Expired unclaimed winnings dividend (owner-toggle)   - Direct owner deposits (operations, grants) Revenue outflows:   - Buyback: uses ETH to purchase TIMBS from TIMBS/ETH pair       └── buybackBurnRatio% of purchased TIMBS → burned       └── (100 - buybackBurnRatio)% → TimbStaking distributions   - Prize pot top-up → PrizeEscrow   - Staking reward top-up → TimbStaking.notifyRewardAmount()   - Operations → owner wallet (manual) Security:   - ReentrancyGuard on executeBuyback(), distributeToPot(), distributeToStaking().   - Buyback slippage protection: minTimbsOut parameter.   - Only owner executes buybacks and distributions.   - TIMBS burn via TIMBSToken.burn() — irreversible.   - SafeERC20 on all token operations.   - ETH never held beyond operational needs — distributed promptly. Deployment:   1. Deploy TimbTreasury(timbsToken, timbStaking, prizeEscrow, pair)   2. router.setTreasury(address(this))   3. timbStaking.setTreasury(address(this))   4. prizeEscrow owner deposits routed here   5. Verify on Sourcify",
				"version": 1
			}
		}
	}
}