{
	"contractss/TimbTreasury.sol": {
		"TimbTreasury": {
			"abi": [
				{
					"inputs": [
						{
							"internalType": "address",
							"name": "_timbsToken",
							"type": "address"
						},
						{
							"internalType": "address",
							"name": "_timbStaking",
							"type": "address"
						},
						{
							"internalType": "address",
							"name": "_prizeEscrow",
							"type": "address"
						},
						{
							"internalType": "address",
							"name": "_timbsEthPair",
							"type": "address"
						}
					],
					"stateMutability": "nonpayable",
					"type": "constructor"
				},
				{
					"inputs": [],
					"name": "BuybackFailed",
					"type": "error"
				},
				{
					"inputs": [
						{
							"internalType": "uint256",
							"name": "requested",
							"type": "uint256"
						},
						{
							"internalType": "uint256",
							"name": "available",
							"type": "uint256"
						}
					],
					"name": "InsufficientETH",
					"type": "error"
				},
				{
					"inputs": [
						{
							"internalType": "uint256",
							"name": "ratio",
							"type": "uint256"
						}
					],
					"name": "InvalidRatio",
					"type": "error"
				},
				{
					"inputs": [],
					"name": "NotAuthorised",
					"type": "error"
				},
				{
					"inputs": [
						{
							"internalType": "address",
							"name": "owner",
							"type": "address"
						}
					],
					"name": "OwnableInvalidOwner",
					"type": "error"
				},
				{
					"inputs": [
						{
							"internalType": "address",
							"name": "account",
							"type": "address"
						}
					],
					"name": "OwnableUnauthorizedAccount",
					"type": "error"
				},
				{
					"inputs": [],
					"name": "ReentrancyGuardReentrantCall",
					"type": "error"
				},
				{
					"inputs": [
						{
							"internalType": "uint256",
							"name": "received",
							"type": "uint256"
						},
						{
							"internalType": "uint256",
							"name": "minimum",
							"type": "uint256"
						}
					],
					"name": "SlippageExceeded",
					"type": "error"
				},
				{
					"inputs": [],
					"name": "TransferFailed",
					"type": "error"
				},
				{
					"inputs": [],
					"name": "ZeroAddress",
					"type": "error"
				},
				{
					"inputs": [],
					"name": "ZeroAmount",
					"type": "error"
				},
				{
					"anonymous": false,
					"inputs": [
						{
							"indexed": false,
							"internalType": "uint256",
							"name": "ratio",
							"type": "uint256"
						}
					],
					"name": "BuybackBurnRatioSet",
					"type": "event"
				},
				{
					"anonymous": false,
					"inputs": [
						{
							"indexed": false,
							"internalType": "uint256",
							"name": "ethSpent",
							"type": "uint256"
						},
						{
							"indexed": false,
							"internalType": "uint256",
							"name": "timbsBought",
							"type": "uint256"
						},
						{
							"indexed": false,
							"internalType": "uint256",
							"name": "timbsBurned",
							"type": "uint256"
						},
						{
							"indexed": false,
							"internalType": "uint256",
							"name": "timbsToStaking",
							"type": "uint256"
						}
					],
					"name": "BuybackExecuted",
					"type": "event"
				},
				{
					"anonymous": false,
					"inputs": [
						{
							"indexed": true,
							"internalType": "address",
							"name": "sender",
							"type": "address"
						},
						{
							"indexed": false,
							"internalType": "bool",
							"name": "authorised",
							"type": "bool"
						}
					],
					"name": "FeeSenderSet",
					"type": "event"
				},
				{
					"anonymous": false,
					"inputs": [
						{
							"indexed": true,
							"internalType": "address",
							"name": "from",
							"type": "address"
						},
						{
							"indexed": false,
							"internalType": "uint256",
							"name": "amount",
							"type": "uint256"
						}
					],
					"name": "FeesReceived",
					"type": "event"
				},
				{
					"anonymous": false,
					"inputs": [
						{
							"indexed": true,
							"internalType": "address",
							"name": "to",
							"type": "address"
						},
						{
							"indexed": false,
							"internalType": "uint256",
							"name": "amount",
							"type": "uint256"
						}
					],
					"name": "OperationalWithdraw",
					"type": "event"
				},
				{
					"anonymous": false,
					"inputs": [
						{
							"indexed": true,
							"internalType": "address",
							"name": "previousOwner",
							"type": "address"
						},
						{
							"indexed": true,
							"internalType": "address",
							"name": "newOwner",
							"type": "address"
						}
					],
					"name": "OwnershipTransferred",
					"type": "event"
				},
				{
					"anonymous": false,
					"inputs": [
						{
							"indexed": true,
							"internalType": "address",
							"name": "pair",
							"type": "address"
						}
					],
					"name": "PairSet",
					"type": "event"
				},
				{
					"anonymous": false,
					"inputs": [
						{
							"indexed": false,
							"internalType": "uint256",
							"name": "amount",
							"type": "uint256"
						}
					],
					"name": "PotFunded",
					"type": "event"
				},
				{
					"anonymous": false,
					"inputs": [
						{
							"indexed": true,
							"internalType": "address",
							"name": "escrow",
							"type": "address"
						}
					],
					"name": "PrizeEscrowSet",
					"type": "event"
				},
				{
					"anonymous": false,
					"inputs": [
						{
							"indexed": false,
							"internalType": "uint256",
							"name": "timbsAmount",
							"type": "uint256"
						},
						{
							"indexed": false,
							"internalType": "uint256",
							"name": "duration",
							"type": "uint256"
						}
					],
					"name": "StakingFunded",
					"type": "event"
				},
				{
					"anonymous": false,
					"inputs": [
						{
							"indexed": true,
							"internalType": "address",
							"name": "staking",
							"type": "address"
						}
					],
					"name": "StakingSet",
					"type": "event"
				},
				{
					"inputs": [
						{
							"internalType": "address",
							"name": "",
							"type": "address"
						}
					],
					"name": "authorisedFeeSenders",
					"outputs": [
						{
							"internalType": "bool",
							"name": "",
							"type": "bool"
						}
					],
					"stateMutability": "view",
					"type": "function"
				},
				{
					"inputs": [],
					"name": "buybackBurnRatio",
					"outputs": [
						{
							"internalType": "uint256",
							"name": "",
							"type": "uint256"
						}
					],
					"stateMutability": "view",
					"type": "function"
				},
				{
					"inputs": [
						{
							"internalType": "uint256",
							"name": "amount",
							"type": "uint256"
						}
					],
					"name": "distributeToPot",
					"outputs": [],
					"stateMutability": "nonpayable",
					"type": "function"
				},
				{
					"inputs": [
						{
							"internalType": "uint256",
							"name": "timbsAmount",
							"type": "uint256"
						},
						{
							"internalType": "uint256",
							"name": "duration",
							"type": "uint256"
						}
					],
					"name": "distributeToStaking",
					"outputs": [],
					"stateMutability": "nonpayable",
					"type": "function"
				},
				{
					"inputs": [],
					"name": "ethBalance",
					"outputs": [
						{
							"internalType": "uint256",
							"name": "",
							"type": "uint256"
						}
					],
					"stateMutability": "view",
					"type": "function"
				},
				{
					"inputs": [
						{
							"internalType": "uint256",
							"name": "ethAmount",
							"type": "uint256"
						},
						{
							"internalType": "uint256",
							"name": "minTimbsOut",
							"type": "uint256"
						}
					],
					"name": "executeBuyback",
					"outputs": [],
					"stateMutability": "nonpayable",
					"type": "function"
				},
				{
					"inputs": [],
					"name": "getStats",
					"outputs": [
						{
							"internalType": "uint256",
							"name": "feesReceived",
							"type": "uint256"
						},
						{
							"internalType": "uint256",
							"name": "timbsBurned",
							"type": "uint256"
						},
						{
							"internalType": "uint256",
							"name": "timbsDistributed",
							"type": "uint256"
						},
						{
							"internalType": "uint256",
							"name": "potFunded",
							"type": "uint256"
						}
					],
					"stateMutability": "view",
					"type": "function"
				},
				{
					"inputs": [],
					"name": "owner",
					"outputs": [
						{
							"internalType": "address",
							"name": "",
							"type": "address"
						}
					],
					"stateMutability": "view",
					"type": "function"
				},
				{
					"inputs": [],
					"name": "prizeEscrow",
					"outputs": [
						{
							"internalType": "address",
							"name": "",
							"type": "address"
						}
					],
					"stateMutability": "view",
					"type": "function"
				},
				{
					"inputs": [],
					"name": "receiveFees",
					"outputs": [],
					"stateMutability": "payable",
					"type": "function"
				},
				{
					"inputs": [],
					"name": "renounceOwnership",
					"outputs": [],
					"stateMutability": "nonpayable",
					"type": "function"
				},
				{
					"inputs": [
						{
							"internalType": "uint256",
							"name": "_ratio",
							"type": "uint256"
						}
					],
					"name": "setBuybackBurnRatio",
					"outputs": [],
					"stateMutability": "nonpayable",
					"type": "function"
				},
				{
					"inputs": [
						{
							"internalType": "address",
							"name": "sender",
							"type": "address"
						},
						{
							"internalType": "bool",
							"name": "authorised",
							"type": "bool"
						}
					],
					"name": "setFeeSender",
					"outputs": [],
					"stateMutability": "nonpayable",
					"type": "function"
				},
				{
					"inputs": [
						{
							"internalType": "address",
							"name": "_escrow",
							"type": "address"
						}
					],
					"name": "setPrizeEscrow",
					"outputs": [],
					"stateMutability": "nonpayable",
					"type": "function"
				},
				{
					"inputs": [
						{
							"internalType": "uint256",
							"name": "_period",
							"type": "uint256"
						}
					],
					"name": "setStakingDistributionPeriod",
					"outputs": [],
					"stateMutability": "nonpayable",
					"type": "function"
				},
				{
					"inputs": [
						{
							"internalType": "address",
							"name": "_staking",
							"type": "address"
						}
					],
					"name": "setTimbStaking",
					"outputs": [],
					"stateMutability": "nonpayable",
					"type": "function"
				},
				{
					"inputs": [
						{
							"internalType": "address",
							"name": "_pair",
							"type": "address"
						}
					],
					"name": "setTimbsEthPair",
					"outputs": [],
					"stateMutability": "nonpayable",
					"type": "function"
				},
				{
					"inputs": [],
					"name": "stakingDistributionPeriod",
					"outputs": [
						{
							"internalType": "uint256",
							"name": "",
							"type": "uint256"
						}
					],
					"stateMutability": "view",
					"type": "function"
				},
				{
					"inputs": [],
					"name": "timbStaking",
					"outputs": [
						{
							"internalType": "address",
							"name": "",
							"type": "address"
						}
					],
					"stateMutability": "view",
					"type": "function"
				},
				{
					"inputs": [],
					"name": "timbsBalance",
					"outputs": [
						{
							"internalType": "uint256",
							"name": "",
							"type": "uint256"
						}
					],
					"stateMutability": "view",
					"type": "function"
				},
				{
					"inputs": [],
					"name": "timbsEthPair",
					"outputs": [
						{
							"internalType": "address",
							"name": "",
							"type": "address"
						}
					],
					"stateMutability": "view",
					"type": "function"
				},
				{
					"inputs": [],
					"name": "timbsToken",
					"outputs": [
						{
							"internalType": "contract ITimbsToken",
							"name": "",
							"type": "address"
						}
					],
					"stateMutability": "view",
					"type": "function"
				},
				{
					"inputs": [],
					"name": "totalFeesReceived",
					"outputs": [
						{
							"internalType": "uint256",
							"name": "",
							"type": "uint256"
						}
					],
					"stateMutability": "view",
					"type": "function"
				},
				{
					"inputs": [],
					"name": "totalPotFunded",
					"outputs": [
						{
							"internalType": "uint256",
							"name": "",
							"type": "uint256"
						}
					],
					"stateMutability": "view",
					"type": "function"
				},
				{
					"inputs": [],
					"name": "totalTimbsBurned",
					"outputs": [
						{
							"internalType": "uint256",
							"name": "",
							"type": "uint256"
						}
					],
					"stateMutability": "view",
					"type": "function"
				},
				{
					"inputs": [],
					"name": "totalTimbsDistributed",
					"outputs": [
						{
							"internalType": "uint256",
							"name": "",
							"type": "uint256"
						}
					],
					"stateMutability": "view",
					"type": "function"
				},
				{
					"inputs": [
						{
							"internalType": "address",
							"name": "newOwner",
							"type": "address"
						}
					],
					"name": "transferOwnership",
					"outputs": [],
					"stateMutability": "nonpayable",
					"type": "function"
				},
				{
					"inputs": [
						{
							"internalType": "address",
							"name": "to",
							"type": "address"
						},
						{
							"internalType": "uint256",
							"name": "amount",
							"type": "uint256"
						}
					],
					"name": "withdrawOperational",
					"outputs": [],
					"stateMutability": "nonpayable",
					"type": "function"
				},
				{
					"stateMutability": "payable",
					"type": "receive"
				}
			],
			"devdoc": {
				"errors": {
					"OwnableInvalidOwner(address)": [
						{
							"details": "The owner is not a valid owner account. (eg. `address(0)`)"
						}
					],
					"OwnableUnauthorizedAccount(address)": [
						{
							"details": "The caller account is not authorized to perform an operation."
						}
					],
					"ReentrancyGuardReentrantCall()": [
						{
							"details": "Unauthorized reentrant call."
						}
					]
				},
				"kind": "dev",
				"methods": {
					"constructor": {
						"params": {
							"_prizeEscrow": "PrizeEscrow contract address.",
							"_timbStaking": "TimbStaking contract address.",
							"_timbsEthPair": "TIMBS/ETH pair address (set after pair deploy).",
							"_timbsToken": "TIMBS token address."
						}
					},
					"distributeToPot(uint256)": {
						"params": {
							"amount": "ETH amount to send."
						}
					},
					"distributeToStaking(uint256,uint256)": {
						"details": "Treasury must hold TIMBS (transferred from community allocation).",
						"params": {
							"duration": "Distribution period in seconds.",
							"timbsAmount": "TIMBS amount to distribute."
						}
					},
					"executeBuyback(uint256,uint256)": {
						"details": "Buys TIMBS from TIMBS/ETH pair directly.      Splits purchased TIMBS: buybackBurnRatio% burned, rest to staking.      Slippage protected via minTimbsOut.",
						"params": {
							"ethAmount": "ETH to spend on buyback.",
							"minTimbsOut": "Minimum TIMBS to receive (slippage protection)."
						}
					},
					"owner()": {
						"details": "Returns the address of the current owner."
					},
					"receiveFees()": {
						"details": "Router sends 0.05% swap fees here.      TimbPrize sends round settlement cut here."
					},
					"renounceOwnership()": {
						"details": "Leaves the contract without owner. It will not be possible to call `onlyOwner` functions. Can only be called by the current owner. NOTE: Renouncing ownership will leave the contract without an owner, thereby disabling any functionality that is only available to the owner."
					},
					"transferOwnership(address)": {
						"details": "Transfers ownership of the contract to a new account (`newOwner`). Can only be called by the current owner."
					},
					"withdrawOperational(address,uint256)": {
						"details": "Manual operation — owner controls treasury allocations."
					}
				},
				"title": "TimbTreasury",
				"version": 1
			},
			"evm": {
				"assembly": "    /* \"contractss/TimbTreasury.sol\":2502:15631  contract TimbTreasury is Ownable, ReentrancyGuard {... */\n  mstore(0x40, 0xa0)\n    /* \"contractss/TimbTreasury.sol\":5837:6430  constructor(... */\n  callvalue\n  dup1\n  iszero\n  tag_1\n  jumpi\n  0x00\n  dup1\n  revert\ntag_1:\n  pop\n  mload(0x40)\n  sub(codesize, bytecodeSize)\n  dup1\n  bytecodeSize\n  dup4\n  codecopy\n  dup2\n  add\n  0x40\n  dup2\n  swap1\n  mstore\n  tag_2\n  swap2\n  tag_3\n  jump\t// in\ntag_2:\n    /* \"contractss/TimbTreasury.sol\":5983:5993  msg.sender */\n  caller\n  dup1\n    /* \"@openzeppelin/contracts/access/Ownable.sol\":1269:1364  if (initialOwner == address(0)) {... */\n  tag_8\n  jumpi\n    /* \"@openzeppelin/contracts/access/Ownable.sol\":1322:1353  OwnableInvalidOwner(address(0)) */\n  mload(0x40)\n  shl(0xe0, 0x1e4fbdf7)\n  dup2\n  mstore\n    /* \"@openzeppelin/contracts/access/Ownable.sol\":1350:1351  0 */\n  0x00\n    /* \"@openzeppelin/contracts/access/Ownable.sol\":1322:1353  OwnableInvalidOwner(address(0)) */\n  0x04\n  dup3\n  add\n    /* \"#utility.yul\":811:862   */\n  mstore\n    /* \"#utility.yul\":784:802   */\n  0x24\n  add\n    /* \"@openzeppelin/contracts/access/Ownable.sol\":1322:1353  OwnableInvalidOwner(address(0)) */\n  mload(0x40)\n  dup1\n  swap2\n  sub\n  swap1\n  revert\n    /* \"@openzeppelin/contracts/access/Ownable.sol\":1269:1364  if (initialOwner == address(0)) {... */\ntag_8:\n    /* \"@openzeppelin/contracts/access/Ownable.sol\":1373:1405  _transferOwnership(initialOwner) */\n  tag_11\n    /* \"@openzeppelin/contracts/access/Ownable.sol\":1392:1404  initialOwner */\n  dup2\n    /* \"@openzeppelin/contracts/access/Ownable.sol\":1373:1391  _transferOwnership */\n  tag_12\n    /* \"@openzeppelin/contracts/access/Ownable.sol\":1373:1405  _transferOwnership(initialOwner) */\n  jump\t// in\ntag_11:\n  pop\n    /* \"@openzeppelin/contracts/utils/ReentrancyGuard.sol\":2365:2366  1 */\n  0x01\n    /* \"@openzeppelin/contracts/utils/ReentrancyGuard.sol\":1505:1571  0x9b779b17422d0df92223018b32b4d1fa46e071723d6817e2486d003becc55f00 */\n  0x9b779b17422d0df92223018b32b4d1fa46e071723d6817e2486d003becc55f00\n    /* \"@openzeppelin/contracts/utils/ReentrancyGuard.sol\":2539:2605  _reentrancyGuardStorageSlot().getUint256Slot().value = NOT_ENTERED */\n  sstore\n  sub(shl(0xa0, 0x01), 0x01)\n    /* \"contractss/TimbTreasury.sol\":6009:6034  _timbsToken == address(0) */\n  dup5\n  and\n    /* \"contractss/TimbTreasury.sol\":6005:6056  if (_timbsToken == address(0)) revert ZeroAddress() */\n  tag_19\n  jumpi\n    /* \"contractss/TimbTreasury.sol\":6043:6056  ZeroAddress() */\n  mload(0x40)\n  shl(0xe0, 0xd92e233d)\n  dup2\n  mstore\n  0x04\n  add\n  mload(0x40)\n  dup1\n  swap2\n  sub\n  swap1\n  revert\n    /* \"contractss/TimbTreasury.sol\":6005:6056  if (_timbsToken == address(0)) revert ZeroAddress() */\ntag_19:\n  sub(shl(0xa0, 0x01), 0x01)\n    /* \"contractss/TimbTreasury.sol\":6067:6117  timbsToken              = ITimbsToken(_timbsToken) */\n  swap4\n  dup5\n  and\n  0x80\n  mstore\n    /* \"contractss/TimbTreasury.sol\":6127:6138  timbStaking */\n  0x01\n    /* \"contractss/TimbTreasury.sol\":6127:6165  timbStaking             = _timbStaking */\n  dup1\n  sload\n  swap4\n  dup6\n  and\n  not(sub(shl(0xa0, 0x01), 0x01))\n  swap5\n  dup6\n  and\n  or\n  dup2\n  sstore\n    /* \"contractss/TimbTreasury.sol\":6175:6186  prizeEscrow */\n  0x02\n    /* \"contractss/TimbTreasury.sol\":6175:6213  prizeEscrow             = _prizeEscrow */\n  dup1\n  sload\n  swap4\n  dup7\n  and\n  swap4\n  dup6\n  and\n  swap4\n  swap1\n  swap4\n  or\n  swap1\n  swap3\n  sstore\n    /* \"contractss/TimbTreasury.sol\":6223:6235  timbsEthPair */\n  0x03\n    /* \"contractss/TimbTreasury.sol\":6223:6262  timbsEthPair            = _timbsEthPair */\n  dup1\n  sload\n  swap2\n  swap1\n  swap5\n  and\n  swap3\n  and\n  swap2\n  swap1\n  swap2\n  or\n  swap1\n  swap2\n  sstore\n    /* \"contractss/TimbTreasury.sol\":6298:6300  50 */\n  0x32\n    /* \"contractss/TimbTreasury.sol\":6272:6288  buybackBurnRatio */\n  0x04\n    /* \"contractss/TimbTreasury.sol\":6272:6300  buybackBurnRatio        = 50 */\n  sstore\n    /* \"contractss/TimbTreasury.sol\":6366:6373  30 days */\n  0x278d00\n    /* \"contractss/TimbTreasury.sol\":6338:6363  stakingDistributionPeriod */\n  0x05\n    /* \"contractss/TimbTreasury.sol\":6338:6373  stakingDistributionPeriod = 30 days */\n  sstore\n    /* \"contractss/TimbTreasury.sol\":6405:6415  msg.sender */\n  caller\n    /* \"contractss/TimbTreasury.sol\":6127:6138  timbStaking */\n  0x00\n    /* \"contractss/TimbTreasury.sol\":6384:6416  authorisedFeeSenders[msg.sender] */\n  swap1\n  dup2\n  mstore\n    /* \"contractss/TimbTreasury.sol\":6384:6404  authorisedFeeSenders */\n  0x06\n    /* \"contractss/TimbTreasury.sol\":6384:6416  authorisedFeeSenders[msg.sender] */\n  0x20\n  mstore\n  0x40\n  swap1\n  keccak256\n    /* \"contractss/TimbTreasury.sol\":6384:6423  authorisedFeeSenders[msg.sender] = true */\n  dup1\n  sload\n  not(0xff)\n  and\n  swap1\n  swap2\n  or\n  swap1\n  sstore\n    /* \"contractss/TimbTreasury.sol\":2502:15631  contract TimbTreasury is Ownable, ReentrancyGuard {... */\n  jump(tag_25)\n    /* \"@openzeppelin/contracts/access/Ownable.sol\":2912:3099  function _transferOwnership(address newOwner) internal virtual {... */\ntag_12:\n    /* \"@openzeppelin/contracts/access/Ownable.sol\":2985:3001  address oldOwner */\n  0x00\n    /* \"@openzeppelin/contracts/access/Ownable.sol\":3004:3010  _owner */\n  dup1\n  sload\n  sub(shl(0xa0, 0x01), 0x01)\n    /* \"@openzeppelin/contracts/access/Ownable.sol\":3020:3037  _owner = newOwner */\n  dup4\n  dup2\n  and\n  not(sub(shl(0xa0, 0x01), 0x01))\n  dup4\n  and\n  dup2\n  or\n  dup5\n  sstore\n    /* \"@openzeppelin/contracts/access/Ownable.sol\":3052:3092  OwnershipTransferred(oldOwner, newOwner) */\n  mload(0x40)\n    /* \"@openzeppelin/contracts/access/Ownable.sol\":3004:3010  _owner */\n  swap2\n  swap1\n  swap3\n  and\n  swap3\n  dup4\n  swap2\n    /* \"@openzeppelin/contracts/access/Ownable.sol\":3052:3092  OwnershipTransferred(oldOwner, newOwner) */\n  0x8be0079c531659141344cd1fd0a4f28419497f9722a3daafe3b4186f6b6457e0\n  swap2\n    /* \"@openzeppelin/contracts/access/Ownable.sol\":2985:3001  address oldOwner */\n  swap1\n    /* \"@openzeppelin/contracts/access/Ownable.sol\":3052:3092  OwnershipTransferred(oldOwner, newOwner) */\n  log3\n    /* \"@openzeppelin/contracts/access/Ownable.sol\":2975:3099  {... */\n  pop\n    /* \"@openzeppelin/contracts/access/Ownable.sol\":2912:3099  function _transferOwnership(address newOwner) internal virtual {... */\n  pop\n  jump\t// out\n    /* \"#utility.yul\":14:191   */\ntag_24:\n    /* \"#utility.yul\":93:106   */\n  dup1\n  mload\n  sub(shl(0xa0, 0x01), 0x01)\n    /* \"#utility.yul\":135:166   */\n  dup2\n  and\n    /* \"#utility.yul\":125:167   */\n  dup2\n  eq\n    /* \"#utility.yul\":115:185   */\n  tag_27\n  jumpi\n    /* \"#utility.yul\":181:182   */\n  0x00\n    /* \"#utility.yul\":178:179   */\n  dup1\n    /* \"#utility.yul\":171:183   */\n  revert\n    /* \"#utility.yul\":115:185   */\ntag_27:\n    /* \"#utility.yul\":14:191   */\n  swap2\n  swap1\n  pop\n  jump\t// out\n    /* \"#utility.yul\":196:660   */\ntag_3:\n    /* \"#utility.yul\":293:299   */\n  0x00\n    /* \"#utility.yul\":301:307   */\n  dup1\n    /* \"#utility.yul\":309:315   */\n  0x00\n    /* \"#utility.yul\":317:323   */\n  dup1\n    /* \"#utility.yul\":370:373   */\n  0x80\n    /* \"#utility.yul\":358:367   */\n  dup6\n    /* \"#utility.yul\":349:356   */\n  dup8\n    /* \"#utility.yul\":345:368   */\n  sub\n    /* \"#utility.yul\":341:374   */\n  slt\n    /* \"#utility.yul\":338:391   */\n  iszero\n  tag_29\n  jumpi\n    /* \"#utility.yul\":387:388   */\n  0x00\n    /* \"#utility.yul\":384:385   */\n  dup1\n    /* \"#utility.yul\":377:389   */\n  revert\n    /* \"#utility.yul\":338:391   */\ntag_29:\n    /* \"#utility.yul\":410:450   */\n  tag_30\n    /* \"#utility.yul\":440:449   */\n  dup6\n    /* \"#utility.yul\":410:450   */\n  tag_24\n  jump\t// in\ntag_30:\n    /* \"#utility.yul\":400:450   */\n  swap4\n  pop\n    /* \"#utility.yul\":469:518   */\n  tag_31\n    /* \"#utility.yul\":514:516   */\n  0x20\n    /* \"#utility.yul\":503:512   */\n  dup7\n    /* \"#utility.yul\":499:517   */\n  add\n    /* \"#utility.yul\":469:518   */\n  tag_24\n  jump\t// in\ntag_31:\n    /* \"#utility.yul\":459:518   */\n  swap3\n  pop\n    /* \"#utility.yul\":537:586   */\n  tag_32\n    /* \"#utility.yul\":582:584   */\n  0x40\n    /* \"#utility.yul\":571:580   */\n  dup7\n    /* \"#utility.yul\":567:585   */\n  add\n    /* \"#utility.yul\":537:586   */\n  tag_24\n  jump\t// in\ntag_32:\n    /* \"#utility.yul\":527:586   */\n  swap2\n  pop\n    /* \"#utility.yul\":605:654   */\n  tag_33\n    /* \"#utility.yul\":650:652   */\n  0x60\n    /* \"#utility.yul\":639:648   */\n  dup7\n    /* \"#utility.yul\":635:653   */\n  add\n    /* \"#utility.yul\":605:654   */\n  tag_24\n  jump\t// in\ntag_33:\n    /* \"#utility.yul\":595:654   */\n  swap1\n  pop\n    /* \"#utility.yul\":196:660   */\n  swap3\n  swap6\n  swap2\n  swap5\n  pop\n  swap3\n  pop\n  jump\t// out\n    /* \"#utility.yul\":665:868   */\ntag_25:\n    /* \"contractss/TimbTreasury.sol\":2502:15631  contract TimbTreasury is Ownable, ReentrancyGuard {... */\n  mload(0x80)\n  codecopy(0x00, dataOffset(sub_0), dataSize(sub_0))\n  0x00\n  assignImmutable(\"0x753005bd0bd6e20e7acd0dd8275cf856a18a272384014dc1cce463f3c48513ee\")\n  return(0x00, dataSize(sub_0))\nstop\n\nsub_0: assembly {\n        /* \"contractss/TimbTreasury.sol\":2502:15631  contract TimbTreasury is Ownable, ReentrancyGuard {... */\n      mstore(0x40, 0x80)\n      jumpi(tag_1, lt(calldatasize, 0x04))\n      shr(0xe0, calldataload(0x00))\n      dup1\n      0x8bdcf669\n      gt\n      tag_31\n      jumpi\n      dup1\n      0xb9e4355a\n      gt\n      tag_32\n      jumpi\n      dup1\n      0xe90900af\n      gt\n      tag_33\n      jumpi\n      dup1\n      0xe90900af\n      eq\n      tag_27\n      jumpi\n      dup1\n      0xeb164026\n      eq\n      tag_28\n      jumpi\n      dup1\n      0xf2fde38b\n      eq\n      tag_29\n      jumpi\n      dup1\n      0xf60bb720\n      eq\n      tag_30\n      jumpi\n      0x00\n      dup1\n      revert\n    tag_33:\n      dup1\n      0xb9e4355a\n      eq\n      tag_24\n      jumpi\n      dup1\n      0xc59d4847\n      eq\n      tag_25\n      jumpi\n      dup1\n      0xd61b4497\n      eq\n      tag_26\n      jumpi\n      0x00\n      dup1\n      revert\n    tag_32:\n      dup1\n      0x97975c75\n      gt\n      tag_34\n      jumpi\n      dup1\n      0x97975c75\n      eq\n      tag_20\n      jumpi\n      dup1\n      0x9fbaf3de\n      eq\n      tag_21\n      jumpi\n      dup1\n      0x9fe65f19\n      eq\n      tag_22\n      jumpi\n      dup1\n      0xad8944da\n      eq\n      tag_23\n      jumpi\n      0x00\n      dup1\n      revert\n    tag_34:\n      dup1\n      0x8bdcf669\n      eq\n      tag_17\n      jumpi\n      dup1\n      0x8da5cb5b\n      eq\n      tag_18\n      jumpi\n      dup1\n      0x926b7189\n      eq\n      tag_19\n      jumpi\n      0x00\n      dup1\n      revert\n    tag_31:\n      dup1\n      0x3c3fc552\n      gt\n      tag_35\n      jumpi\n      dup1\n      0x5f303f1c\n      gt\n      tag_36\n      jumpi\n      dup1\n      0x5f303f1c\n      eq\n      tag_13\n      jumpi\n      dup1\n      0x715018a6\n      eq\n      tag_14\n      jumpi\n      dup1\n      0x85654e9a\n      eq\n      tag_15\n      jumpi\n      dup1\n      0x86507218\n      eq\n      tag_16\n      jumpi\n      0x00\n      dup1\n      revert\n    tag_36:\n      dup1\n      0x3c3fc552\n      eq\n      tag_10\n      jumpi\n      dup1\n      0x4e6630b0\n      eq\n      tag_11\n      jumpi\n      dup1\n      0x5a778c0f\n      eq\n      tag_12\n      jumpi\n      0x00\n      dup1\n      revert\n    tag_35:\n      dup1\n      0x23f49b92\n      gt\n      tag_37\n      jumpi\n      dup1\n      0x23f49b92\n      eq\n      tag_6\n      jumpi\n      dup1\n      0x2cb97183\n      eq\n      tag_7\n      jumpi\n      dup1\n      0x330ac98d\n      eq\n      tag_8\n      jumpi\n      dup1\n      0x34e908a7\n      eq\n      tag_9\n      jumpi\n      0x00\n      dup1\n      revert\n    tag_37:\n      dup1\n      0x0e31648f\n      eq\n      tag_3\n      jumpi\n      dup1\n      0x175ed4ba\n      eq\n      tag_4\n      jumpi\n      dup1\n      0x1a3b8e8c\n      eq\n      tag_5\n      jumpi\n      0x00\n      dup1\n      revert\n    tag_1:\n      jumpi(tag_2, calldatasize)\n        /* \"contractss/TimbTreasury.sol\":15499:15508  msg.value */\n      callvalue\n        /* \"contractss/TimbTreasury.sol\":15499:15512  msg.value > 0 */\n      iszero\n        /* \"contractss/TimbTreasury.sol\":15495:15623  if (msg.value > 0) {... */\n      tag_40\n      jumpi\n        /* \"contractss/TimbTreasury.sol\":15549:15558  msg.value */\n      callvalue\n        /* \"contractss/TimbTreasury.sol\":15528:15545  totalFeesReceived */\n      0x07\n      0x00\n        /* \"contractss/TimbTreasury.sol\":15528:15558  totalFeesReceived += msg.value */\n      dup3\n      dup3\n      sload\n      tag_41\n      swap2\n      swap1\n      tag_42\n      jump\t// in\n    tag_41:\n      swap1\n      swap2\n      sstore\n      pop\n      pop\n        /* \"contractss/TimbTreasury.sol\":15577:15612  FeesReceived(msg.sender, msg.value) */\n      mload(0x40)\n        /* \"contractss/TimbTreasury.sol\":15602:15611  msg.value */\n      callvalue\n        /* \"#utility.yul\":422:447   */\n      dup2\n      mstore\n        /* \"contractss/TimbTreasury.sol\":15590:15600  msg.sender */\n      caller\n      swap1\n        /* \"contractss/TimbTreasury.sol\":15577:15612  FeesReceived(msg.sender, msg.value) */\n      0x2ccfc58c2cef4ee590b5f16be0548cc54afc12e1c66a67b362b7d640fd16bb2d\n      swap1\n        /* \"#utility.yul\":410:412   */\n      0x20\n        /* \"#utility.yul\":395:413   */\n      add\n        /* \"contractss/TimbTreasury.sol\":15577:15612  FeesReceived(msg.sender, msg.value) */\n      mload(0x40)\n      dup1\n      swap2\n      sub\n      swap1\n      log2\n        /* \"contractss/TimbTreasury.sol\":15495:15623  if (msg.value > 0) {... */\n    tag_40:\n        /* \"contractss/TimbTreasury.sol\":2502:15631  contract TimbTreasury is Ownable, ReentrancyGuard {... */\n      stop\n    tag_2:\n      0x00\n      dup1\n      revert\n        /* \"contractss/TimbTreasury.sol\":2851:2890  ITimbsToken public immutable timbsToken */\n    tag_3:\n      callvalue\n      dup1\n      iszero\n      tag_45\n      jumpi\n      0x00\n      dup1\n      revert\n    tag_45:\n      pop\n      tag_46\n      immutable(\"0x753005bd0bd6e20e7acd0dd8275cf856a18a272384014dc1cce463f3c48513ee\")\n      dup2\n      jump\n    tag_46:\n      mload(0x40)\n      sub(shl(0xa0, 0x01), 0x01)\n        /* \"#utility.yul\":642:674   */\n      swap1\n      swap2\n      and\n        /* \"#utility.yul\":624:675   */\n      dup2\n      mstore\n        /* \"#utility.yul\":612:614   */\n      0x20\n        /* \"#utility.yul\":597:615   */\n      add\n        /* \"contractss/TimbTreasury.sol\":2851:2890  ITimbsToken public immutable timbsToken */\n    tag_48:\n      mload(0x40)\n      dup1\n      swap2\n      sub\n      swap1\n      return\n        /* \"contractss/TimbTreasury.sol\":3555:3607  mapping(address => bool) public authorisedFeeSenders */\n    tag_4:\n      callvalue\n      dup1\n      iszero\n      tag_50\n      jumpi\n      0x00\n      dup1\n      revert\n    tag_50:\n      pop\n      tag_51\n      tag_52\n      calldatasize\n      0x04\n      tag_53\n      jump\t// in\n    tag_52:\n      mstore(0x20, 0x06)\n      0x00\n      swap1\n      dup2\n      mstore\n      0x40\n      swap1\n      keccak256\n      sload\n      0xff\n      and\n      dup2\n      jump\n    tag_51:\n      mload(0x40)\n        /* \"#utility.yul\":1239:1253   */\n      swap1\n      iszero\n        /* \"#utility.yul\":1232:1254   */\n      iszero\n        /* \"#utility.yul\":1214:1255   */\n      dup2\n      mstore\n        /* \"#utility.yul\":1202:1204   */\n      0x20\n        /* \"#utility.yul\":1187:1205   */\n      add\n        /* \"contractss/TimbTreasury.sol\":3555:3607  mapping(address => bool) public authorisedFeeSenders */\n      tag_48\n        /* \"#utility.yul\":1074:1261   */\n      jump\n        /* \"contractss/TimbTreasury.sol\":3066:3092  address public prizeEscrow */\n    tag_5:\n      callvalue\n      dup1\n      iszero\n      tag_57\n      jumpi\n      0x00\n      dup1\n      revert\n    tag_57:\n      pop\n      sload(0x02)\n      tag_46\n      swap1\n      sub(shl(0xa0, 0x01), 0x01)\n      and\n      dup2\n      jump\n        /* \"contractss/TimbTreasury.sol\":13767:13947  function setTimbsEthPair(address _pair) external onlyOwner {... */\n    tag_6:\n      callvalue\n      dup1\n      iszero\n      tag_62\n      jumpi\n      0x00\n      dup1\n      revert\n    tag_62:\n      pop\n      tag_40\n      tag_64\n      calldatasize\n      0x04\n      tag_53\n      jump\t// in\n    tag_64:\n      tag_65\n      jump\t// in\n        /* \"contractss/TimbTreasury.sol\":12335:12835  function withdrawOperational(address to, uint256 amount)... */\n    tag_7:\n      callvalue\n      dup1\n      iszero\n      tag_66\n      jumpi\n      0x00\n      dup1\n      revert\n    tag_66:\n      pop\n      tag_40\n      tag_68\n      calldatasize\n      0x04\n      tag_69\n      jump\t// in\n    tag_68:\n      tag_70\n      jump\t// in\n        /* \"contractss/TimbTreasury.sol\":11563:12176  function distributeToStaking(uint256 timbsAmount, uint256 duration)... */\n    tag_8:\n      callvalue\n      dup1\n      iszero\n      tag_71\n      jumpi\n      0x00\n      dup1\n      revert\n    tag_71:\n      pop\n      tag_40\n      tag_73\n      calldatasize\n      0x04\n      tag_74\n      jump\t// in\n    tag_73:\n      tag_75\n      jump\t// in\n        /* \"contractss/TimbTreasury.sol\":2975:3001  address public timbStaking */\n    tag_9:\n      callvalue\n      dup1\n      iszero\n      tag_76\n      jumpi\n      0x00\n      dup1\n      revert\n    tag_76:\n      pop\n      sload(0x01)\n      tag_46\n      swap1\n      sub(shl(0xa0, 0x01), 0x01)\n      and\n      dup2\n      jump\n        /* \"contractss/TimbTreasury.sol\":3990:4019  uint256 public totalPotFunded */\n    tag_10:\n      callvalue\n      dup1\n      iszero\n      tag_80\n      jumpi\n      0x00\n      dup1\n      revert\n    tag_80:\n      pop\n      tag_81\n      sload(0x0a)\n      dup2\n      jump\n    tag_81:\n      mload(0x40)\n        /* \"#utility.yul\":422:447   */\n      swap1\n      dup2\n      mstore\n        /* \"#utility.yul\":410:412   */\n      0x20\n        /* \"#utility.yul\":395:413   */\n      add\n        /* \"contractss/TimbTreasury.sol\":3990:4019  uint256 public totalPotFunded */\n      tag_48\n        /* \"#utility.yul\":276:453   */\n      jump\n        /* \"contractss/TimbTreasury.sol\":14653:14752  function ethBalance() external view returns (uint256) {... */\n    tag_11:\n      callvalue\n      dup1\n      iszero\n      tag_84\n      jumpi\n      0x00\n      dup1\n      revert\n    tag_84:\n      pop\n        /* \"contractss/TimbTreasury.sol\":14724:14745  address(this).balance */\n      selfbalance\n        /* \"contractss/TimbTreasury.sol\":14653:14752  function ethBalance() external view returns (uint256) {... */\n      jump(tag_81)\n        /* \"contractss/TimbTreasury.sol\":3319:3350  uint256 public buybackBurnRatio */\n    tag_12:\n      callvalue\n      dup1\n      iszero\n      tag_88\n      jumpi\n      0x00\n      dup1\n      revert\n    tag_88:\n      pop\n      tag_81\n      sload(0x04)\n      dup2\n      jump\n        /* \"contractss/TimbTreasury.sol\":13568:13761  function setPrizeEscrow(address _escrow) external onlyOwner {... */\n    tag_13:\n      callvalue\n      dup1\n      iszero\n      tag_92\n      jumpi\n      0x00\n      dup1\n      revert\n    tag_92:\n      pop\n      tag_40\n      tag_94\n      calldatasize\n      0x04\n      tag_53\n      jump\t// in\n    tag_94:\n      tag_95\n      jump\t// in\n        /* \"@openzeppelin/contracts/access/Ownable.sol\":2293:2394  function renounceOwnership() public virtual onlyOwner {... */\n    tag_14:\n      callvalue\n      dup1\n      iszero\n      tag_96\n      jumpi\n      0x00\n      dup1\n      revert\n    tag_96:\n      pop\n      tag_40\n      tag_98\n      jump\t// in\n        /* \"contractss/TimbTreasury.sol\":13953:14126  function setStakingDistributionPeriod(uint256 _period) external onlyOwner {... */\n    tag_15:\n      callvalue\n      dup1\n      iszero\n      tag_99\n      jumpi\n      0x00\n      dup1\n      revert\n    tag_99:\n      pop\n      tag_40\n      tag_101\n      calldatasize\n      0x04\n      tag_102\n      jump\t// in\n    tag_101:\n      tag_103\n      jump\t// in\n        /* \"contractss/TimbTreasury.sol\":3166:3193  address public timbsEthPair */\n    tag_16:\n      callvalue\n      dup1\n      iszero\n      tag_104\n      jumpi\n      0x00\n      dup1\n      revert\n    tag_104:\n      pop\n      sload(0x03)\n      tag_46\n      swap1\n      sub(shl(0xa0, 0x01), 0x01)\n      and\n      dup2\n      jump\n        /* \"contractss/TimbTreasury.sol\":3777:3808  uint256 public totalTimbsBurned */\n    tag_17:\n      callvalue\n      dup1\n      iszero\n      tag_108\n      jumpi\n      0x00\n      dup1\n      revert\n    tag_108:\n      pop\n      tag_81\n      sload(0x08)\n      dup2\n      jump\n        /* \"@openzeppelin/contracts/access/Ownable.sol\":1638:1723  function owner() public view virtual returns (address) {... */\n    tag_18:\n      callvalue\n      dup1\n      iszero\n      tag_112\n      jumpi\n      0x00\n      dup1\n      revert\n    tag_112:\n      pop\n        /* \"@openzeppelin/contracts/access/Ownable.sol\":1684:1691  address */\n      0x00\n        /* \"@openzeppelin/contracts/access/Ownable.sol\":1710:1716  _owner */\n      sload\n      sub(shl(0xa0, 0x01), 0x01)\n      and\n        /* \"@openzeppelin/contracts/access/Ownable.sol\":1638:1723  function owner() public view virtual returns (address) {... */\n      jump(tag_46)\n        /* \"contractss/TimbTreasury.sol\":3434:3474  uint256 public stakingDistributionPeriod */\n    tag_19:\n      callvalue\n      dup1\n      iszero\n      tag_116\n      jumpi\n      0x00\n      dup1\n      revert\n    tag_116:\n      pop\n      tag_81\n      sload(0x05)\n      dup2\n      jump\n        /* \"contractss/TimbTreasury.sol\":7600:10465  function executeBuyback(uint256 ethAmount, uint256 minTimbsOut)... */\n    tag_20:\n      callvalue\n      dup1\n      iszero\n      tag_120\n      jumpi\n      0x00\n      dup1\n      revert\n    tag_120:\n      pop\n      tag_40\n      tag_122\n      calldatasize\n      0x04\n      tag_74\n      jump\t// in\n    tag_122:\n      tag_123\n      jump\t// in\n        /* \"contractss/TimbTreasury.sol\":3678:3710  uint256 public totalFeesReceived */\n    tag_21:\n      callvalue\n      dup1\n      iszero\n      tag_124\n      jumpi\n      0x00\n      dup1\n      revert\n    tag_124:\n      pop\n      tag_81\n      sload(0x07)\n      dup2\n      jump\n        /* \"contractss/TimbTreasury.sol\":13369:13562  function setTimbStaking(address _staking) external onlyOwner {... */\n    tag_22:\n      callvalue\n      dup1\n      iszero\n      tag_128\n      jumpi\n      0x00\n      dup1\n      revert\n    tag_128:\n      pop\n      tag_40\n      tag_130\n      calldatasize\n      0x04\n      tag_53\n      jump\t// in\n    tag_130:\n      tag_131\n      jump\t// in\n        /* \"contractss/TimbTreasury.sol\":14132:14367  function setFeeSender(address sender, bool authorised) external onlyOwner {... */\n    tag_23:\n      callvalue\n      dup1\n      iszero\n      tag_132\n      jumpi\n      0x00\n      dup1\n      revert\n    tag_132:\n      pop\n      tag_40\n      tag_134\n      calldatasize\n      0x04\n      tag_135\n      jump\t// in\n    tag_134:\n      tag_136\n      jump\t// in\n        /* \"contractss/TimbTreasury.sol\":13160:13363  function setBuybackBurnRatio(uint256 _ratio) external onlyOwner {... */\n    tag_24:\n      callvalue\n      dup1\n      iszero\n      tag_137\n      jumpi\n      0x00\n      dup1\n      revert\n    tag_137:\n      pop\n      tag_40\n      tag_139\n      calldatasize\n      0x04\n      tag_102\n      jump\t// in\n    tag_139:\n      tag_140\n      jump\t// in\n        /* \"contractss/TimbTreasury.sol\":15006:15381  function getStats()... */\n    tag_25:\n      callvalue\n      dup1\n      iszero\n      tag_141\n      jumpi\n      0x00\n      dup1\n      revert\n    tag_141:\n      pop\n        /* \"contractss/TimbTreasury.sol\":15254:15271  totalFeesReceived */\n      sload(0x07)\n        /* \"contractss/TimbTreasury.sol\":15285:15301  totalTimbsBurned */\n      sload(0x08)\n        /* \"contractss/TimbTreasury.sol\":15315:15336  totalTimbsDistributed */\n      sload(0x09)\n        /* \"contractss/TimbTreasury.sol\":15350:15364  totalPotFunded */\n      sload(0x0a)\n        /* \"contractss/TimbTreasury.sol\":15006:15381  function getStats()... */\n      0x40\n      dup1\n      mload\n        /* \"#utility.yul\":2884:2909   */\n      swap5\n      dup6\n      mstore\n        /* \"#utility.yul\":2940:2942   */\n      0x20\n        /* \"#utility.yul\":2925:2943   */\n      dup6\n      add\n        /* \"#utility.yul\":2918:2952   */\n      swap4\n      swap1\n      swap4\n      mstore\n        /* \"#utility.yul\":2968:2986   */\n      swap2\n      dup4\n      add\n        /* \"#utility.yul\":2961:2995   */\n      mstore\n        /* \"#utility.yul\":3026:3028   */\n      0x60\n        /* \"#utility.yul\":3011:3029   */\n      dup3\n      add\n        /* \"#utility.yul\":3004:3038   */\n      mstore\n        /* \"#utility.yul\":2871:2874   */\n      0x80\n        /* \"#utility.yul\":2856:2875   */\n      add\n        /* \"contractss/TimbTreasury.sol\":15006:15381  function getStats()... */\n      tag_48\n        /* \"#utility.yul\":2653:3044   */\n      jump\n        /* \"contractss/TimbTreasury.sol\":14821:14936  function timbsBalance() external view returns (uint256) {... */\n    tag_26:\n      callvalue\n      dup1\n      iszero\n      tag_146\n      jumpi\n      0x00\n      dup1\n      revert\n    tag_146:\n      pop\n      tag_81\n      tag_148\n      jump\t// in\n        /* \"contractss/TimbTreasury.sol\":3891:3927  uint256 public totalTimbsDistributed */\n    tag_27:\n      callvalue\n      dup1\n      iszero\n      tag_150\n      jumpi\n      0x00\n      dup1\n      revert\n    tag_150:\n      pop\n      tag_81\n      sload(0x09)\n      dup2\n      jump\n        /* \"contractss/TimbTreasury.sol\":10805:11274  function distributeToPot(uint256 amount)... */\n    tag_28:\n      callvalue\n      dup1\n      iszero\n      tag_154\n      jumpi\n      0x00\n      dup1\n      revert\n    tag_154:\n      pop\n      tag_40\n      tag_156\n      calldatasize\n      0x04\n      tag_102\n      jump\t// in\n    tag_156:\n      tag_157\n      jump\t// in\n        /* \"@openzeppelin/contracts/access/Ownable.sol\":2543:2758  function transferOwnership(address newOwner) public virtual onlyOwner {... */\n    tag_29:\n      callvalue\n      dup1\n      iszero\n      tag_158\n      jumpi\n      0x00\n      dup1\n      revert\n    tag_158:\n      pop\n      tag_40\n      tag_160\n      calldatasize\n      0x04\n      tag_53\n      jump\t// in\n    tag_160:\n      tag_161\n      jump\t// in\n        /* \"contractss/TimbTreasury.sol\":6818:7004  function receiveFees() external payable {... */\n    tag_30:\n      tag_40\n      tag_163\n      jump\t// in\n        /* \"contractss/TimbTreasury.sol\":13767:13947  function setTimbsEthPair(address _pair) external onlyOwner {... */\n    tag_65:\n        /* \"@openzeppelin/contracts/access/Ownable.sol\":1531:1544  _checkOwner() */\n      tag_165\n        /* \"@openzeppelin/contracts/access/Ownable.sol\":1531:1542  _checkOwner */\n      tag_166\n        /* \"@openzeppelin/contracts/access/Ownable.sol\":1531:1544  _checkOwner() */\n      jump\t// in\n    tag_165:\n      sub(shl(0xa0, 0x01), 0x01)\n        /* \"contractss/TimbTreasury.sol\":13840:13859  _pair == address(0) */\n      dup2\n      and\n        /* \"contractss/TimbTreasury.sol\":13836:13881  if (_pair == address(0)) revert ZeroAddress() */\n      tag_168\n      jumpi\n        /* \"contractss/TimbTreasury.sol\":13868:13881  ZeroAddress() */\n      mload(0x40)\n      shl(0xe0, 0xd92e233d)\n      dup2\n      mstore\n      0x04\n      add\n      mload(0x40)\n      dup1\n      swap2\n      sub\n      swap1\n      revert\n        /* \"contractss/TimbTreasury.sol\":13836:13881  if (_pair == address(0)) revert ZeroAddress() */\n    tag_168:\n        /* \"contractss/TimbTreasury.sol\":13891:13903  timbsEthPair */\n      0x03\n        /* \"contractss/TimbTreasury.sol\":13891:13911  timbsEthPair = _pair */\n      dup1\n      sload\n      not(sub(shl(0xa0, 0x01), 0x01))\n      and\n      sub(shl(0xa0, 0x01), 0x01)\n      dup4\n      and\n      swap1\n      dup2\n      or\n      swap1\n      swap2\n      sstore\n        /* \"contractss/TimbTreasury.sol\":13926:13940  PairSet(_pair) */\n      mload(0x40)\n      0xc4a4ea6abc08bd7f8df3db8a1c998f19b3e0c348176f93732cd54db1a4b50136\n      swap1\n      0x00\n      swap1\n      log2\n        /* \"contractss/TimbTreasury.sol\":13767:13947  function setTimbsEthPair(address _pair) external onlyOwner {... */\n      pop\n      jump\t// out\n        /* \"contractss/TimbTreasury.sol\":12335:12835  function withdrawOperational(address to, uint256 amount)... */\n    tag_70:\n        /* \"@openzeppelin/contracts/utils/ReentrancyGuard.sol\":3023:3044  _nonReentrantBefore() */\n      tag_170\n        /* \"@openzeppelin/contracts/utils/ReentrancyGuard.sol\":3023:3042  _nonReentrantBefore */\n      tag_171\n        /* \"@openzeppelin/contracts/utils/ReentrancyGuard.sol\":3023:3044  _nonReentrantBefore() */\n      jump\t// in\n    tag_170:\n        /* \"@openzeppelin/contracts/access/Ownable.sol\":1531:1544  _checkOwner() */\n      tag_173\n        /* \"@openzeppelin/contracts/access/Ownable.sol\":1531:1542  _checkOwner */\n      tag_166\n        /* \"@openzeppelin/contracts/access/Ownable.sol\":1531:1544  _checkOwner() */\n      jump\t// in\n    tag_173:\n      sub(shl(0xa0, 0x01), 0x01)\n        /* \"contractss/TimbTreasury.sol\":12466:12482  to == address(0) */\n      dup3\n      and\n        /* \"contractss/TimbTreasury.sol\":12462:12517  if (to == address(0))              revert ZeroAddress() */\n      tag_175\n      jumpi\n        /* \"contractss/TimbTreasury.sol\":12504:12517  ZeroAddress() */\n      mload(0x40)\n      shl(0xe0, 0xd92e233d)\n      dup2\n      mstore\n      0x04\n      add\n      mload(0x40)\n      dup1\n      swap2\n      sub\n      swap1\n      revert\n        /* \"contractss/TimbTreasury.sol\":12462:12517  if (to == address(0))              revert ZeroAddress() */\n    tag_175:\n        /* \"contractss/TimbTreasury.sol\":12531:12537  amount */\n      dup1\n        /* \"contractss/TimbTreasury.sol\":12541:12542  0 */\n      0x00\n        /* \"contractss/TimbTreasury.sol\":12531:12542  amount == 0 */\n      sub\n        /* \"contractss/TimbTreasury.sol\":12527:12581  if (amount == 0)                   revert ZeroAmount() */\n      tag_176\n      jumpi\n        /* \"contractss/TimbTreasury.sol\":12569:12581  ZeroAmount() */\n      mload(0x40)\n      shl(0xe0, 0x1f2a2005)\n      dup2\n      mstore\n      0x04\n      add\n      mload(0x40)\n      dup1\n      swap2\n      sub\n      swap1\n      revert\n        /* \"contractss/TimbTreasury.sol\":12527:12581  if (amount == 0)                   revert ZeroAmount() */\n    tag_176:\n        /* \"contractss/TimbTreasury.sol\":12604:12625  address(this).balance */\n      selfbalance\n        /* \"contractss/TimbTreasury.sol\":12595:12601  amount */\n      dup2\n        /* \"contractss/TimbTreasury.sol\":12595:12625  amount > address(this).balance */\n      gt\n        /* \"contractss/TimbTreasury.sol\":12591:12680  if (amount > address(this).balance) revert InsufficientETH(amount, address(this).balance) */\n      iszero\n      tag_177\n      jumpi\n        /* \"contractss/TimbTreasury.sol\":12634:12680  InsufficientETH(amount, address(this).balance) */\n      mload(0x40)\n      shl(0xe5, 0xfdf575)\n      dup2\n      mstore\n      0x04\n      dup2\n      add\n        /* \"#utility.yul\":3223:3248   */\n      dup3\n      swap1\n      mstore\n        /* \"contractss/TimbTreasury.sol\":12658:12679  address(this).balance */\n      selfbalance\n        /* \"#utility.yul\":3264:3282   */\n      0x24\n      dup3\n      add\n        /* \"#utility.yul\":3257:3291   */\n      mstore\n        /* \"#utility.yul\":3196:3214   */\n      0x44\n      add\n        /* \"contractss/TimbTreasury.sol\":12634:12680  InsufficientETH(amount, address(this).balance) */\n    tag_178:\n      mload(0x40)\n      dup1\n      swap2\n      sub\n      swap1\n      revert\n        /* \"contractss/TimbTreasury.sol\":12591:12680  if (amount > address(this).balance) revert InsufficientETH(amount, address(this).balance) */\n    tag_177:\n        /* \"contractss/TimbTreasury.sol\":12692:12699  bool ok */\n      0x00\n        /* \"contractss/TimbTreasury.sol\":12712:12714  to */\n      dup3\n      sub(shl(0xa0, 0x01), 0x01)\n        /* \"contractss/TimbTreasury.sol\":12704:12720  payable(to).call */\n      and\n        /* \"contractss/TimbTreasury.sol\":12728:12734  amount */\n      dup3\n        /* \"contractss/TimbTreasury.sol\":12704:12739  payable(to).call{value: amount}(\"\") */\n      mload(0x40)\n      0x00\n      mload(0x40)\n      dup1\n      dup4\n      sub\n      dup2\n      dup6\n      dup8\n      gas\n      call\n      swap3\n      pop\n      pop\n      pop\n      returndatasize\n      dup1\n      0x00\n      dup2\n      eq\n      tag_184\n      jumpi\n      mload(0x40)\n      swap2\n      pop\n      and(add(returndatasize, 0x3f), not(0x1f))\n      dup3\n      add\n      0x40\n      mstore\n      returndatasize\n      dup3\n      mstore\n      returndatasize\n      0x00\n      0x20\n      dup5\n      add\n      returndatacopy\n      jump(tag_183)\n    tag_184:\n      0x60\n      swap2\n      pop\n    tag_183:\n      pop\n        /* \"contractss/TimbTreasury.sol\":12691:12739  (bool ok,) = payable(to).call{value: amount}(\"\") */\n      pop\n      swap1\n      pop\n        /* \"contractss/TimbTreasury.sol\":12754:12756  ok */\n      dup1\n        /* \"contractss/TimbTreasury.sol\":12749:12781  if (!ok) revert TransferFailed() */\n      tag_185\n      jumpi\n        /* \"contractss/TimbTreasury.sol\":12765:12781  TransferFailed() */\n      mload(0x40)\n      shl(0xe3, 0x12171d83)\n      dup2\n      mstore\n      0x04\n      add\n      mload(0x40)\n      dup1\n      swap2\n      sub\n      swap1\n      revert\n        /* \"contractss/TimbTreasury.sol\":12749:12781  if (!ok) revert TransferFailed() */\n    tag_185:\n        /* \"contractss/TimbTreasury.sol\":12817:12819  to */\n      dup3\n      sub(shl(0xa0, 0x01), 0x01)\n        /* \"contractss/TimbTreasury.sol\":12797:12828  OperationalWithdraw(to, amount) */\n      and\n      0x6e67adc6f62cbac95e14fce70ecc9eaf0b0c4093237158f9a4e84fadb06dfe4c\n        /* \"contractss/TimbTreasury.sol\":12821:12827  amount */\n      dup4\n        /* \"contractss/TimbTreasury.sol\":12797:12828  OperationalWithdraw(to, amount) */\n      mload(0x40)\n      tag_186\n      swap2\n        /* \"#utility.yul\":422:447   */\n      dup2\n      mstore\n        /* \"#utility.yul\":410:412   */\n      0x20\n        /* \"#utility.yul\":395:413   */\n      add\n      swap1\n        /* \"#utility.yul\":276:453   */\n      jump\n        /* \"contractss/TimbTreasury.sol\":12797:12828  OperationalWithdraw(to, amount) */\n    tag_186:\n      mload(0x40)\n      dup1\n      swap2\n      sub\n      swap1\n      log2\n        /* \"contractss/TimbTreasury.sol\":12452:12835  {... */\n      pop\n        /* \"@openzeppelin/contracts/utils/ReentrancyGuard.sol\":3065:3085  _nonReentrantAfter() */\n      tag_187\n        /* \"@openzeppelin/contracts/utils/ReentrancyGuard.sol\":2365:2366  1 */\n      0x01\n      0x00\n      dup1\n      mload\n      0x20\n      data_c8669cf8eaf883002b9f48e28846a8d408c9b58ea6613bace374265e43c9bc43\n      dup4\n      codecopy\n      dup2\n      mload\n      swap2\n      mstore\n        /* \"@openzeppelin/contracts/utils/ReentrancyGuard.sol\":3972:4034  _reentrancyGuardStorageSlot().getUint256Slot().value = ENTERED */\n      sstore\n        /* \"@openzeppelin/contracts/utils/ReentrancyGuard.sol\":3749:4041  function _nonReentrantBefore() private {... */\n      jump\n        /* \"@openzeppelin/contracts/utils/ReentrancyGuard.sol\":3065:3085  _nonReentrantAfter() */\n    tag_187:\n        /* \"contractss/TimbTreasury.sol\":12335:12835  function withdrawOperational(address to, uint256 amount)... */\n      pop\n      pop\n      jump\t// out\n        /* \"contractss/TimbTreasury.sol\":11563:12176  function distributeToStaking(uint256 timbsAmount, uint256 duration)... */\n    tag_75:\n        /* \"@openzeppelin/contracts/utils/ReentrancyGuard.sol\":3023:3044  _nonReentrantBefore() */\n      tag_190\n        /* \"@openzeppelin/contracts/utils/ReentrancyGuard.sol\":3023:3042  _nonReentrantBefore */\n      tag_171\n        /* \"@openzeppelin/contracts/utils/ReentrancyGuard.sol\":3023:3044  _nonReentrantBefore() */\n      jump\t// in\n    tag_190:\n        /* \"@openzeppelin/contracts/access/Ownable.sol\":1531:1544  _checkOwner() */\n      tag_192\n        /* \"@openzeppelin/contracts/access/Ownable.sol\":1531:1542  _checkOwner */\n      tag_166\n        /* \"@openzeppelin/contracts/access/Ownable.sol\":1531:1544  _checkOwner() */\n      jump\t// in\n    tag_192:\n        /* \"contractss/TimbTreasury.sol\":11705:11716  timbsAmount */\n      dup2\n        /* \"contractss/TimbTreasury.sol\":11720:11721  0 */\n      0x00\n        /* \"contractss/TimbTreasury.sol\":11705:11721  timbsAmount == 0 */\n      sub\n        /* \"contractss/TimbTreasury.sol\":11701:11749  if (timbsAmount == 0)        revert ZeroAmount() */\n      tag_194\n      jumpi\n        /* \"contractss/TimbTreasury.sol\":11737:11749  ZeroAmount() */\n      mload(0x40)\n      shl(0xe0, 0x1f2a2005)\n      dup2\n      mstore\n      0x04\n      add\n      mload(0x40)\n      dup1\n      swap2\n      sub\n      swap1\n      revert\n        /* \"contractss/TimbTreasury.sol\":11701:11749  if (timbsAmount == 0)        revert ZeroAmount() */\n    tag_194:\n        /* \"contractss/TimbTreasury.sol\":11763:11771  duration */\n      dup1\n        /* \"contractss/TimbTreasury.sol\":11775:11776  0 */\n      0x00\n        /* \"contractss/TimbTreasury.sol\":11763:11776  duration == 0 */\n      sub\n        /* \"contractss/TimbTreasury.sol\":11759:11807  if (duration == 0)           revert ZeroAmount() */\n      tag_195\n      jumpi\n        /* \"contractss/TimbTreasury.sol\":11795:11807  ZeroAmount() */\n      mload(0x40)\n      shl(0xe0, 0x1f2a2005)\n      dup2\n      mstore\n      0x04\n      add\n      mload(0x40)\n      dup1\n      swap2\n      sub\n      swap1\n      revert\n        /* \"contractss/TimbTreasury.sol\":11759:11807  if (duration == 0)           revert ZeroAmount() */\n    tag_195:\n        /* \"contractss/TimbTreasury.sol\":11821:11832  timbStaking */\n      and(sub(shl(0xa0, 0x01), 0x01), sload(0x01))\n        /* \"contractss/TimbTreasury.sol\":11817:11868  if (timbStaking == address(0)) revert ZeroAddress() */\n      tag_196\n      jumpi\n        /* \"contractss/TimbTreasury.sol\":11855:11868  ZeroAddress() */\n      mload(0x40)\n      shl(0xe0, 0xd92e233d)\n      dup2\n      mstore\n      0x04\n      add\n      mload(0x40)\n      dup1\n      swap2\n      sub\n      swap1\n      revert\n        /* \"contractss/TimbTreasury.sol\":11817:11868  if (timbStaking == address(0)) revert ZeroAddress() */\n    tag_196:\n        /* \"contractss/TimbTreasury.sol\":11893:11928  timbsToken.balanceOf(address(this)) */\n      mload(0x40)\n      shl(0xe0, 0x70a08231)\n      dup2\n      mstore\n        /* \"contractss/TimbTreasury.sol\":11922:11926  this */\n      address\n        /* \"contractss/TimbTreasury.sol\":11893:11928  timbsToken.balanceOf(address(this)) */\n      0x04\n      dup3\n      add\n        /* \"#utility.yul\":624:675   */\n      mstore\n        /* \"contractss/TimbTreasury.sol\":11879:11890  uint256 bal */\n      0x00\n      swap1\n        /* \"contractss/TimbTreasury.sol\":11893:11903  timbsToken */\n      immutable(\"0x753005bd0bd6e20e7acd0dd8275cf856a18a272384014dc1cce463f3c48513ee\")\n      sub(shl(0xa0, 0x01), 0x01)\n        /* \"contractss/TimbTreasury.sol\":11893:11913  timbsToken.balanceOf */\n      and\n      swap1\n      0x70a08231\n      swap1\n        /* \"#utility.yul\":597:615   */\n      0x24\n      add\n        /* \"contractss/TimbTreasury.sol\":11893:11928  timbsToken.balanceOf(address(this)) */\n      0x20\n      mload(0x40)\n      dup1\n      dup4\n      sub\n      dup2\n      dup7\n      gas\n      staticcall\n      iszero\n      dup1\n      iszero\n      tag_199\n      jumpi\n      returndatasize\n      0x00\n      dup1\n      returndatacopy\n      revert(0x00, returndatasize)\n    tag_199:\n      pop\n      pop\n      pop\n      pop\n      mload(0x40)\n      returndatasize\n      not(0x1f)\n      0x1f\n      dup3\n      add\n      and\n      dup3\n      add\n      dup1\n      0x40\n      mstore\n      pop\n      dup2\n      add\n      swap1\n      tag_200\n      swap2\n      swap1\n      tag_201\n      jump\t// in\n    tag_200:\n        /* \"contractss/TimbTreasury.sol\":11879:11928  uint256 bal = timbsToken.balanceOf(address(this)) */\n      swap1\n      pop\n        /* \"contractss/TimbTreasury.sol\":11956:11959  bal */\n      dup1\n        /* \"contractss/TimbTreasury.sol\":11942:11953  timbsAmount */\n      dup4\n        /* \"contractss/TimbTreasury.sol\":11942:11959  timbsAmount > bal */\n      gt\n        /* \"contractss/TimbTreasury.sol\":11938:11980  if (timbsAmount > bal) revert ZeroAmount() */\n      iszero\n      tag_202\n      jumpi\n        /* \"contractss/TimbTreasury.sol\":11968:11980  ZeroAmount() */\n      mload(0x40)\n      shl(0xe0, 0x1f2a2005)\n      dup2\n      mstore\n      0x04\n      add\n      mload(0x40)\n      dup1\n      swap2\n      sub\n      swap1\n      revert\n        /* \"contractss/TimbTreasury.sol\":11938:11980  if (timbsAmount > bal) revert ZeroAmount() */\n    tag_202:\n        /* \"contractss/TimbTreasury.sol\":12015:12026  timbStaking */\n      sload(0x01)\n        /* \"contractss/TimbTreasury.sol\":11991:12040  timbsToken.safeTransfer(timbStaking, timbsAmount) */\n      mload(0x40)\n      shl(0xe0, 0x423f6cef)\n      dup2\n      mstore\n      sub(shl(0xa0, 0x01), 0x01)\n        /* \"contractss/TimbTreasury.sol\":12015:12026  timbStaking */\n      swap2\n      dup3\n      and\n        /* \"contractss/TimbTreasury.sol\":11991:12040  timbsToken.safeTransfer(timbStaking, timbsAmount) */\n      0x04\n      dup3\n      add\n        /* \"#utility.yul\":3875:3926   */\n      mstore\n        /* \"#utility.yul\":3942:3960   */\n      0x24\n      dup2\n      add\n        /* \"#utility.yul\":3935:3969   */\n      dup6\n      swap1\n      mstore\n        /* \"contractss/TimbTreasury.sol\":11991:12001  timbsToken */\n      immutable(\"0x753005bd0bd6e20e7acd0dd8275cf856a18a272384014dc1cce463f3c48513ee\")\n        /* \"contractss/TimbTreasury.sol\":11991:12014  timbsToken.safeTransfer */\n      swap1\n      swap2\n      and\n      swap1\n      0x423f6cef\n      swap1\n        /* \"#utility.yul\":3848:3866   */\n      0x44\n      add\n        /* \"contractss/TimbTreasury.sol\":11991:12040  timbsToken.safeTransfer(timbStaking, timbsAmount) */\n      0x00\n      mload(0x40)\n      dup1\n      dup4\n      sub\n      dup2\n      0x00\n      dup8\n      dup1\n      extcodesize\n      iszero\n      dup1\n      iszero\n      tag_205\n      jumpi\n      0x00\n      dup1\n      revert\n    tag_205:\n      pop\n      gas\n      call\n      iszero\n      dup1\n      iszero\n      tag_207\n      jumpi\n      returndatasize\n      0x00\n      dup1\n      returndatacopy\n      revert(0x00, returndatasize)\n    tag_207:\n      pop\n      pop\n        /* \"contractss/TimbTreasury.sol\":12063:12074  timbStaking */\n      sload(0x01)\n        /* \"contractss/TimbTreasury.sol\":12050:12117  ITimbStaking(timbStaking).notifyRewardAmount(timbsAmount, duration) */\n      mload(0x40)\n      shl(0xe0, 0x246132f9)\n      dup2\n      mstore\n      0x04\n      dup2\n      add\n        /* \"#utility.yul\":3223:3248   */\n      dup8\n      swap1\n      mstore\n        /* \"#utility.yul\":3264:3282   */\n      0x24\n      dup2\n      add\n        /* \"#utility.yul\":3257:3291   */\n      dup7\n      swap1\n      mstore\n      sub(shl(0xa0, 0x01), 0x01)\n        /* \"contractss/TimbTreasury.sol\":12063:12074  timbStaking */\n      swap1\n      swap2\n      and\n      swap3\n      pop\n        /* \"contractss/TimbTreasury.sol\":12050:12094  ITimbStaking(timbStaking).notifyRewardAmount */\n      0x246132f9\n      swap2\n      pop\n        /* \"#utility.yul\":3196:3214   */\n      0x44\n      add\n        /* \"contractss/TimbTreasury.sol\":12050:12117  ITimbStaking(timbStaking).notifyRewardAmount(timbsAmount, duration) */\n      0x00\n      mload(0x40)\n      dup1\n      dup4\n      sub\n      dup2\n      0x00\n      dup8\n      dup1\n      extcodesize\n      iszero\n      dup1\n      iszero\n      tag_209\n      jumpi\n      0x00\n      dup1\n      revert\n    tag_209:\n      pop\n      gas\n      call\n      iszero\n      dup1\n      iszero\n      tag_211\n      jumpi\n      returndatasize\n      0x00\n      dup1\n      returndatacopy\n      revert(0x00, returndatasize)\n    tag_211:\n      pop\n      pop\n        /* \"contractss/TimbTreasury.sol\":12133:12169  StakingFunded(timbsAmount, duration) */\n      0x40\n      dup1\n      mload\n        /* \"#utility.yul\":3223:3248   */\n      dup7\n      dup2\n      mstore\n        /* \"#utility.yul\":3279:3281   */\n      0x20\n        /* \"#utility.yul\":3264:3282   */\n      dup2\n      add\n        /* \"#utility.yul\":3257:3291   */\n      dup7\n      swap1\n      mstore\n        /* \"contractss/TimbTreasury.sol\":12133:12169  StakingFunded(timbsAmount, duration) */\n      0x8b7aaffe68a47637f66b06784a531963146073858c3a5ef41fc98bc456d7b64a\n      swap4\n      pop\n        /* \"#utility.yul\":3196:3214   */\n      add\n      swap1\n      pop\n        /* \"contractss/TimbTreasury.sol\":12133:12169  StakingFunded(timbsAmount, duration) */\n      mload(0x40)\n      dup1\n      swap2\n      sub\n      swap1\n      log1\n        /* \"contractss/TimbTreasury.sol\":11691:12176  {... */\n      pop\n        /* \"@openzeppelin/contracts/utils/ReentrancyGuard.sol\":3065:3085  _nonReentrantAfter() */\n      tag_187\n        /* \"@openzeppelin/contracts/utils/ReentrancyGuard.sol\":2365:2366  1 */\n      0x01\n      0x00\n      dup1\n      mload\n      0x20\n      data_c8669cf8eaf883002b9f48e28846a8d408c9b58ea6613bace374265e43c9bc43\n      dup4\n      codecopy\n      dup2\n      mload\n      swap2\n      mstore\n        /* \"@openzeppelin/contracts/utils/ReentrancyGuard.sol\":3972:4034  _reentrancyGuardStorageSlot().getUint256Slot().value = ENTERED */\n      sstore\n        /* \"@openzeppelin/contracts/utils/ReentrancyGuard.sol\":3749:4041  function _nonReentrantBefore() private {... */\n      jump\n        /* \"contractss/TimbTreasury.sol\":13568:13761  function setPrizeEscrow(address _escrow) external onlyOwner {... */\n    tag_95:\n        /* \"@openzeppelin/contracts/access/Ownable.sol\":1531:1544  _checkOwner() */\n      tag_216\n        /* \"@openzeppelin/contracts/access/Ownable.sol\":1531:1542  _checkOwner */\n      tag_166\n        /* \"@openzeppelin/contracts/access/Ownable.sol\":1531:1544  _checkOwner() */\n      jump\t// in\n    tag_216:\n      sub(shl(0xa0, 0x01), 0x01)\n        /* \"contractss/TimbTreasury.sol\":13642:13663  _escrow == address(0) */\n      dup2\n      and\n        /* \"contractss/TimbTreasury.sol\":13638:13685  if (_escrow == address(0)) revert ZeroAddress() */\n      tag_218\n      jumpi\n        /* \"contractss/TimbTreasury.sol\":13672:13685  ZeroAddress() */\n      mload(0x40)\n      shl(0xe0, 0xd92e233d)\n      dup2\n      mstore\n      0x04\n      add\n      mload(0x40)\n      dup1\n      swap2\n      sub\n      swap1\n      revert\n        /* \"contractss/TimbTreasury.sol\":13638:13685  if (_escrow == address(0)) revert ZeroAddress() */\n    tag_218:\n        /* \"contractss/TimbTreasury.sol\":13695:13706  prizeEscrow */\n      0x02\n        /* \"contractss/TimbTreasury.sol\":13695:13716  prizeEscrow = _escrow */\n      dup1\n      sload\n      not(sub(shl(0xa0, 0x01), 0x01))\n      and\n      sub(shl(0xa0, 0x01), 0x01)\n      dup4\n      and\n      swap1\n      dup2\n      or\n      swap1\n      swap2\n      sstore\n        /* \"contractss/TimbTreasury.sol\":13731:13754  PrizeEscrowSet(_escrow) */\n      mload(0x40)\n      0x1176bb0c626865dd5bb6009a83ff7a7f968d1759188ec01b8befb5bbde338aa0\n      swap1\n      0x00\n      swap1\n      log2\n        /* \"contractss/TimbTreasury.sol\":13568:13761  function setPrizeEscrow(address _escrow) external onlyOwner {... */\n      pop\n      jump\t// out\n        /* \"@openzeppelin/contracts/access/Ownable.sol\":2293:2394  function renounceOwnership() public virtual onlyOwner {... */\n    tag_98:\n        /* \"@openzeppelin/contracts/access/Ownable.sol\":1531:1544  _checkOwner() */\n      tag_220\n        /* \"@openzeppelin/contracts/access/Ownable.sol\":1531:1542  _checkOwner */\n      tag_166\n        /* \"@openzeppelin/contracts/access/Ownable.sol\":1531:1544  _checkOwner() */\n      jump\t// in\n    tag_220:\n        /* \"@openzeppelin/contracts/access/Ownable.sol\":2357:2387  _transferOwnership(address(0)) */\n      tag_222\n        /* \"@openzeppelin/contracts/access/Ownable.sol\":2384:2385  0 */\n      0x00\n        /* \"@openzeppelin/contracts/access/Ownable.sol\":2357:2375  _transferOwnership */\n      tag_223\n        /* \"@openzeppelin/contracts/access/Ownable.sol\":2357:2387  _transferOwnership(address(0)) */\n      jump\t// in\n    tag_222:\n        /* \"@openzeppelin/contracts/access/Ownable.sol\":2293:2394  function renounceOwnership() public virtual onlyOwner {... */\n      jump\t// out\n        /* \"contractss/TimbTreasury.sol\":13953:14126  function setStakingDistributionPeriod(uint256 _period) external onlyOwner {... */\n    tag_103:\n        /* \"@openzeppelin/contracts/access/Ownable.sol\":1531:1544  _checkOwner() */\n      tag_225\n        /* \"@openzeppelin/contracts/access/Ownable.sol\":1531:1542  _checkOwner */\n      tag_166\n        /* \"@openzeppelin/contracts/access/Ownable.sol\":1531:1544  _checkOwner() */\n      jump\t// in\n    tag_225:\n        /* \"contractss/TimbTreasury.sol\":14041:14048  _period */\n      dup1\n        /* \"contractss/TimbTreasury.sol\":14052:14053  0 */\n      0x00\n        /* \"contractss/TimbTreasury.sol\":14041:14053  _period == 0 */\n      sub\n        /* \"contractss/TimbTreasury.sol\":14037:14074  if (_period == 0) revert ZeroAmount() */\n      tag_227\n      jumpi\n        /* \"contractss/TimbTreasury.sol\":14062:14074  ZeroAmount() */\n      mload(0x40)\n      shl(0xe0, 0x1f2a2005)\n      dup2\n      mstore\n      0x04\n      add\n      mload(0x40)\n      dup1\n      swap2\n      sub\n      swap1\n      revert\n        /* \"contractss/TimbTreasury.sol\":14037:14074  if (_period == 0) revert ZeroAmount() */\n    tag_227:\n        /* \"contractss/TimbTreasury.sol\":14084:14109  stakingDistributionPeriod */\n      0x05\n        /* \"contractss/TimbTreasury.sol\":14084:14119  stakingDistributionPeriod = _period */\n      sstore\n        /* \"contractss/TimbTreasury.sol\":13953:14126  function setStakingDistributionPeriod(uint256 _period) external onlyOwner {... */\n      jump\t// out\n        /* \"contractss/TimbTreasury.sol\":7600:10465  function executeBuyback(uint256 ethAmount, uint256 minTimbsOut)... */\n    tag_123:\n        /* \"@openzeppelin/contracts/utils/ReentrancyGuard.sol\":3023:3044  _nonReentrantBefore() */\n      tag_230\n        /* \"@openzeppelin/contracts/utils/ReentrancyGuard.sol\":3023:3042  _nonReentrantBefore */\n      tag_171\n        /* \"@openzeppelin/contracts/utils/ReentrancyGuard.sol\":3023:3044  _nonReentrantBefore() */\n      jump\t// in\n    tag_230:\n        /* \"@openzeppelin/contracts/access/Ownable.sol\":1531:1544  _checkOwner() */\n      tag_232\n        /* \"@openzeppelin/contracts/access/Ownable.sol\":1531:1542  _checkOwner */\n      tag_166\n        /* \"@openzeppelin/contracts/access/Ownable.sol\":1531:1544  _checkOwner() */\n      jump\t// in\n    tag_232:\n        /* \"contractss/TimbTreasury.sol\":7738:7747  ethAmount */\n      dup2\n        /* \"contractss/TimbTreasury.sol\":7751:7752  0 */\n      0x00\n        /* \"contractss/TimbTreasury.sol\":7738:7752  ethAmount == 0 */\n      sub\n        /* \"contractss/TimbTreasury.sol\":7734:7796  if (ethAmount == 0)                        revert ZeroAmount() */\n      tag_234\n      jumpi\n        /* \"contractss/TimbTreasury.sol\":7784:7796  ZeroAmount() */\n      mload(0x40)\n      shl(0xe0, 0x1f2a2005)\n      dup2\n      mstore\n      0x04\n      add\n      mload(0x40)\n      dup1\n      swap2\n      sub\n      swap1\n      revert\n        /* \"contractss/TimbTreasury.sol\":7734:7796  if (ethAmount == 0)                        revert ZeroAmount() */\n    tag_234:\n        /* \"contractss/TimbTreasury.sol\":7822:7843  address(this).balance */\n      selfbalance\n        /* \"contractss/TimbTreasury.sol\":7810:7819  ethAmount */\n      dup3\n        /* \"contractss/TimbTreasury.sol\":7810:7843  ethAmount > address(this).balance */\n      gt\n        /* \"contractss/TimbTreasury.sol\":7806:7905  if (ethAmount > address(this).balance)     revert InsufficientETH(ethAmount, address(this).balance) */\n      iszero\n      tag_235\n      jumpi\n        /* \"contractss/TimbTreasury.sol\":7856:7905  InsufficientETH(ethAmount, address(this).balance) */\n      mload(0x40)\n      shl(0xe5, 0xfdf575)\n      dup2\n      mstore\n      0x04\n      dup2\n      add\n        /* \"#utility.yul\":3223:3248   */\n      dup4\n      swap1\n      mstore\n        /* \"contractss/TimbTreasury.sol\":7883:7904  address(this).balance */\n      selfbalance\n        /* \"#utility.yul\":3264:3282   */\n      0x24\n      dup3\n      add\n        /* \"#utility.yul\":3257:3291   */\n      mstore\n        /* \"#utility.yul\":3196:3214   */\n      0x44\n      add\n        /* \"contractss/TimbTreasury.sol\":7856:7905  InsufficientETH(ethAmount, address(this).balance) */\n      tag_178\n        /* \"#utility.yul\":3049:3297   */\n      jump\n        /* \"contractss/TimbTreasury.sol\":7806:7905  if (ethAmount > address(this).balance)     revert InsufficientETH(ethAmount, address(this).balance) */\n    tag_235:\n        /* \"contractss/TimbTreasury.sol\":7919:7931  timbsEthPair */\n      and(sub(shl(0xa0, 0x01), 0x01), sload(0x03))\n        /* \"contractss/TimbTreasury.sol\":7915:7978  if (timbsEthPair == address(0))            revert ZeroAddress() */\n      tag_237\n      jumpi\n        /* \"contractss/TimbTreasury.sol\":7965:7978  ZeroAddress() */\n      mload(0x40)\n      shl(0xe0, 0xd92e233d)\n      dup2\n      mstore\n      0x04\n      add\n      mload(0x40)\n      dup1\n      swap2\n      sub\n      swap1\n      revert\n        /* \"contractss/TimbTreasury.sol\":7915:7978  if (timbsEthPair == address(0))            revert ZeroAddress() */\n    tag_237:\n        /* \"contractss/TimbTreasury.sol\":8037:8047  uint112 r0 */\n      0x00\n        /* \"contractss/TimbTreasury.sol\":8049:8059  uint112 r1 */\n      dup1\n        /* \"contractss/TimbTreasury.sol\":8078:8090  timbsEthPair */\n      0x03\n      0x00\n      swap1\n      sload\n      swap1\n      0x0100\n      exp\n      swap1\n      div\n      sub(shl(0xa0, 0x01), 0x01)\n      and\n      sub(shl(0xa0, 0x01), 0x01)\n        /* \"contractss/TimbTreasury.sol\":8064:8103  ITimbSwapPair(timbsEthPair).getReserves */\n      and\n      0x0902f1ac\n        /* \"contractss/TimbTreasury.sol\":8064:8105  ITimbSwapPair(timbsEthPair).getReserves() */\n      mload(0x40)\n      dup2\n      0xffffffff\n      and\n      0xe0\n      shl\n      dup2\n      mstore\n      0x04\n      add\n      0x60\n      mload(0x40)\n      dup1\n      dup4\n      sub\n      dup2\n      dup7\n      gas\n      staticcall\n      iszero\n      dup1\n      iszero\n      tag_239\n      jumpi\n      returndatasize\n      0x00\n      dup1\n      returndatacopy\n      revert(0x00, returndatasize)\n    tag_239:\n      pop\n      pop\n      pop\n      pop\n      mload(0x40)\n      returndatasize\n      not(0x1f)\n      0x1f\n      dup3\n      add\n      and\n      dup3\n      add\n      dup1\n      0x40\n      mstore\n      pop\n      dup2\n      add\n      swap1\n      tag_240\n      swap2\n      swap1\n      tag_241\n      jump\t// in\n    tag_240:\n        /* \"contractss/TimbTreasury.sol\":8036:8105  (uint112 r0, uint112 r1,) = ITimbSwapPair(timbsEthPair).getReserves() */\n      pop\n      swap2\n      pop\n      swap2\n      pop\n        /* \"contractss/TimbTreasury.sol\":8115:8129  address token0 */\n      0x00\n        /* \"contractss/TimbTreasury.sol\":8146:8158  timbsEthPair */\n      0x03\n      0x00\n      swap1\n      sload\n      swap1\n      0x0100\n      exp\n      swap1\n      div\n      sub(shl(0xa0, 0x01), 0x01)\n      and\n      sub(shl(0xa0, 0x01), 0x01)\n        /* \"contractss/TimbTreasury.sol\":8132:8166  ITimbSwapPair(timbsEthPair).token0 */\n      and\n      0x0dfe1681\n        /* \"contractss/TimbTreasury.sol\":8132:8168  ITimbSwapPair(timbsEthPair).token0() */\n      mload(0x40)\n      dup2\n      0xffffffff\n      and\n      0xe0\n      shl\n      dup2\n      mstore\n      0x04\n      add\n      0x20\n      mload(0x40)\n      dup1\n      dup4\n      sub\n      dup2\n      dup7\n      gas\n      staticcall\n      iszero\n      dup1\n      iszero\n      tag_243\n      jumpi\n      returndatasize\n      0x00\n      dup1\n      returndatacopy\n      revert(0x00, returndatasize)\n    tag_243:\n      pop\n      pop\n      pop\n      pop\n      mload(0x40)\n      returndatasize\n      not(0x1f)\n      0x1f\n      dup3\n      add\n      and\n      dup3\n      add\n      dup1\n      0x40\n      mstore\n      pop\n      dup2\n      add\n      swap1\n      tag_244\n      swap2\n      swap1\n      tag_245\n      jump\t// in\n    tag_244:\n        /* \"contractss/TimbTreasury.sol\":8115:8168  address token0 = ITimbSwapPair(timbsEthPair).token0() */\n      swap1\n      pop\n        /* \"contractss/TimbTreasury.sol\":8381:8398  uint256 reserveIn */\n      0x00\n        /* \"contractss/TimbTreasury.sol\":8408:8426  uint256 reserveOut */\n      dup1\n        /* \"contractss/TimbTreasury.sol\":8436:8454  bool timbsIsToken0 */\n      0x00\n        /* \"contractss/TimbTreasury.sol\":8475:8485  timbsToken */\n      immutable(\"0x753005bd0bd6e20e7acd0dd8275cf856a18a272384014dc1cce463f3c48513ee\")\n      sub(shl(0xa0, 0x01), 0x01)\n        /* \"contractss/TimbTreasury.sol\":8457:8486  token0 == address(timbsToken) */\n      and\n        /* \"contractss/TimbTreasury.sol\":8457:8463  token0 */\n      dup5\n      sub(shl(0xa0, 0x01), 0x01)\n        /* \"contractss/TimbTreasury.sol\":8457:8486  token0 == address(timbsToken) */\n      and\n      eq\n        /* \"contractss/TimbTreasury.sol\":8436:8486  bool timbsIsToken0 = token0 == address(timbsToken) */\n      swap1\n      pop\n        /* \"contractss/TimbTreasury.sol\":8501:8514  timbsIsToken0 */\n      dup1\n        /* \"contractss/TimbTreasury.sol\":8497:8858  if (timbsIsToken0) {... */\n      iszero\n      tag_246\n      jumpi\n        /* \"contractss/TimbTreasury.sol\":8600:8602  r1 */\n      dup5\n      sub(shl(0x70, 0x01), 0x01)\n        /* \"contractss/TimbTreasury.sol\":8592:8603  uint256(r1) */\n      and\n        /* \"contractss/TimbTreasury.sol\":8579:8603  reserveIn  = uint256(r1) */\n      swap3\n      pop\n        /* \"contractss/TimbTreasury.sol\":8653:8655  r0 */\n      dup6\n      sub(shl(0x70, 0x01), 0x01)\n        /* \"contractss/TimbTreasury.sol\":8645:8656  uint256(r0) */\n      and\n        /* \"contractss/TimbTreasury.sol\":8632:8656  reserveOut = uint256(r0) */\n      swap2\n      pop\n        /* \"contractss/TimbTreasury.sol\":8497:8858  if (timbsIsToken0) {... */\n      jump(tag_247)\n    tag_246:\n        /* \"contractss/TimbTreasury.sol\":8774:8776  r0 */\n      dup6\n      sub(shl(0x70, 0x01), 0x01)\n        /* \"contractss/TimbTreasury.sol\":8766:8777  uint256(r0) */\n      and\n        /* \"contractss/TimbTreasury.sol\":8753:8777  reserveIn  = uint256(r0) */\n      swap3\n      pop\n        /* \"contractss/TimbTreasury.sol\":8827:8829  r1 */\n      dup5\n      sub(shl(0x70, 0x01), 0x01)\n        /* \"contractss/TimbTreasury.sol\":8819:8830  uint256(r1) */\n      and\n        /* \"contractss/TimbTreasury.sol\":8806:8830  reserveOut = uint256(r1) */\n      swap2\n      pop\n        /* \"contractss/TimbTreasury.sol\":8497:8858  if (timbsIsToken0) {... */\n    tag_247:\n        /* \"contractss/TimbTreasury.sol\":8913:8936  uint256 amountInWithFee */\n      0x00\n        /* \"contractss/TimbTreasury.sol\":8939:8954  ethAmount * 997 */\n      tag_248\n        /* \"contractss/TimbTreasury.sol\":8939:8948  ethAmount */\n      dup10\n        /* \"contractss/TimbTreasury.sol\":8951:8954  997 */\n      0x03e5\n        /* \"contractss/TimbTreasury.sol\":8939:8954  ethAmount * 997 */\n      tag_249\n      jump\t// in\n    tag_248:\n        /* \"contractss/TimbTreasury.sol\":8913:8954  uint256 amountInWithFee = ethAmount * 997 */\n      swap1\n      pop\n        /* \"contractss/TimbTreasury.sol\":8964:8980  uint256 timbsOut */\n      0x00\n        /* \"contractss/TimbTreasury.sol\":8913:8954  uint256 amountInWithFee = ethAmount * 997 */\n      dup2\n        /* \"contractss/TimbTreasury.sol\":9044:9061  reserveIn * 1_000 */\n      tag_250\n        /* \"contractss/TimbTreasury.sol\":9044:9053  reserveIn */\n      dup7\n        /* \"contractss/TimbTreasury.sol\":9056:9061  1_000 */\n      0x03e8\n        /* \"contractss/TimbTreasury.sol\":9044:9061  reserveIn * 1_000 */\n      tag_249\n      jump\t// in\n    tag_250:\n        /* \"contractss/TimbTreasury.sol\":9044:9079  reserveIn * 1_000 + amountInWithFee */\n      tag_251\n      swap2\n      swap1\n      tag_42\n      jump\t// in\n    tag_251:\n        /* \"contractss/TimbTreasury.sol\":8984:9012  amountInWithFee * reserveOut */\n      tag_252\n        /* \"contractss/TimbTreasury.sol\":9002:9012  reserveOut */\n      dup6\n        /* \"contractss/TimbTreasury.sol\":8984:8999  amountInWithFee */\n      dup5\n        /* \"contractss/TimbTreasury.sol\":8984:9012  amountInWithFee * reserveOut */\n      tag_249\n      jump\t// in\n    tag_252:\n        /* \"contractss/TimbTreasury.sol\":8983:9080  (amountInWithFee * reserveOut) /... */\n      tag_253\n      swap2\n      swap1\n      tag_254\n      jump\t// in\n    tag_253:\n        /* \"contractss/TimbTreasury.sol\":8964:9080  uint256 timbsOut = (amountInWithFee * reserveOut) /... */\n      swap1\n      pop\n        /* \"contractss/TimbTreasury.sol\":9106:9117  minTimbsOut */\n      dup9\n        /* \"contractss/TimbTreasury.sol\":9095:9103  timbsOut */\n      dup2\n        /* \"contractss/TimbTreasury.sol\":9095:9117  timbsOut < minTimbsOut */\n      lt\n        /* \"contractss/TimbTreasury.sol\":9091:9190  if (timbsOut < minTimbsOut) {... */\n      iszero\n      tag_255\n      jumpi\n        /* \"contractss/TimbTreasury.sol\":9140:9179  SlippageExceeded(timbsOut, minTimbsOut) */\n      mload(0x40)\n      shl(0xe0, 0x71c4efed)\n      dup2\n      mstore\n      0x04\n      dup2\n      add\n        /* \"#utility.yul\":3223:3248   */\n      dup3\n      swap1\n      mstore\n        /* \"#utility.yul\":3264:3282   */\n      0x24\n      dup2\n      add\n        /* \"#utility.yul\":3257:3291   */\n      dup11\n      swap1\n      mstore\n        /* \"#utility.yul\":3196:3214   */\n      0x44\n      add\n        /* \"contractss/TimbTreasury.sol\":9140:9179  SlippageExceeded(timbsOut, minTimbsOut) */\n      tag_178\n        /* \"#utility.yul\":3049:3297   */\n      jump\n        /* \"contractss/TimbTreasury.sol\":9091:9190  if (timbsOut < minTimbsOut) {... */\n    tag_255:\n        /* \"contractss/TimbTreasury.sol\":9267:9279  timbsEthPair */\n      sload(0x03)\n        /* \"contractss/TimbTreasury.sol\":9259:9307  payable(timbsEthPair).call{value: ethAmount}(\"\") */\n      mload(0x40)\n        /* \"contractss/TimbTreasury.sol\":9245:9254  bool sent */\n      0x00\n      swap2\n      sub(shl(0xa0, 0x01), 0x01)\n        /* \"contractss/TimbTreasury.sol\":9267:9279  timbsEthPair */\n      and\n      swap1\n        /* \"contractss/TimbTreasury.sol\":9293:9302  ethAmount */\n      dup13\n      swap1\n        /* \"contractss/TimbTreasury.sol\":9245:9254  bool sent */\n      dup4\n        /* \"contractss/TimbTreasury.sol\":9259:9307  payable(timbsEthPair).call{value: ethAmount}(\"\") */\n      dup2\n        /* \"contractss/TimbTreasury.sol\":9245:9254  bool sent */\n      dup2\n        /* \"contractss/TimbTreasury.sol\":9259:9307  payable(timbsEthPair).call{value: ethAmount}(\"\") */\n      dup2\n        /* \"contractss/TimbTreasury.sol\":9293:9302  ethAmount */\n      dup6\n        /* \"contractss/TimbTreasury.sol\":9267:9279  timbsEthPair */\n      dup8\n        /* \"contractss/TimbTreasury.sol\":9259:9307  payable(timbsEthPair).call{value: ethAmount}(\"\") */\n      gas\n      call\n      swap3\n      pop\n      pop\n      pop\n      returndatasize\n      dup1\n      0x00\n      dup2\n      eq\n      tag_260\n      jumpi\n      mload(0x40)\n      swap2\n      pop\n      and(add(returndatasize, 0x3f), not(0x1f))\n      dup3\n      add\n      0x40\n      mstore\n      returndatasize\n      dup3\n      mstore\n      returndatasize\n      0x00\n      0x20\n      dup5\n      add\n      returndatacopy\n      jump(tag_259)\n    tag_260:\n      0x60\n      swap2\n      pop\n    tag_259:\n      pop\n        /* \"contractss/TimbTreasury.sol\":9244:9307  (bool sent,) = payable(timbsEthPair).call{value: ethAmount}(\"\") */\n      pop\n      swap1\n      pop\n        /* \"contractss/TimbTreasury.sol\":9322:9326  sent */\n      dup1\n        /* \"contractss/TimbTreasury.sol\":9317:9350  if (!sent) revert BuybackFailed() */\n      tag_261\n      jumpi\n        /* \"contractss/TimbTreasury.sol\":9335:9350  BuybackFailed() */\n      mload(0x40)\n      shl(0xe0, 0x7f239195)\n      dup2\n      mstore\n      0x04\n      add\n      mload(0x40)\n      dup1\n      swap2\n      sub\n      swap1\n      revert\n        /* \"contractss/TimbTreasury.sol\":9317:9350  if (!sent) revert BuybackFailed() */\n    tag_261:\n        /* \"contractss/TimbTreasury.sol\":9365:9378  timbsIsToken0 */\n      dup4\n        /* \"contractss/TimbTreasury.sol\":9361:9556  if (timbsIsToken0) {... */\n      iszero\n      tag_262\n      jumpi\n        /* \"contractss/TimbTreasury.sol\":9408:9420  timbsEthPair */\n      sload(0x03)\n        /* \"contractss/TimbTreasury.sol\":9394:9454  ITimbSwapPair(timbsEthPair).swap(timbsOut, 0, address(this)) */\n      mload(0x40)\n      shl(0xe1, 0x36cd3205)\n      dup2\n      mstore\n      0x04\n      dup2\n      add\n        /* \"#utility.yul\":5489:5514   */\n      dup5\n      swap1\n      mstore\n        /* \"contractss/TimbTreasury.sol\":9408:9420  timbsEthPair */\n      0x00\n        /* \"#utility.yul\":5530:5548   */\n      0x24\n      dup3\n      add\n        /* \"#utility.yul\":5523:5557   */\n      mstore\n        /* \"contractss/TimbTreasury.sol\":9448:9452  this */\n      address\n        /* \"#utility.yul\":5573:5591   */\n      0x44\n      dup3\n      add\n        /* \"#utility.yul\":5566:5626   */\n      mstore\n      sub(shl(0xa0, 0x01), 0x01)\n        /* \"contractss/TimbTreasury.sol\":9408:9420  timbsEthPair */\n      swap1\n      swap2\n      and\n      swap1\n        /* \"contractss/TimbTreasury.sol\":9394:9426  ITimbSwapPair(timbsEthPair).swap */\n      0x6d9a640a\n      swap1\n        /* \"#utility.yul\":5462:5480   */\n      0x64\n      add\n        /* \"contractss/TimbTreasury.sol\":9394:9454  ITimbSwapPair(timbsEthPair).swap(timbsOut, 0, address(this)) */\n      0x00\n      mload(0x40)\n      dup1\n      dup4\n      sub\n      dup2\n      0x00\n      dup8\n      dup1\n      extcodesize\n      iszero\n      dup1\n      iszero\n      tag_265\n      jumpi\n      0x00\n      dup1\n      revert\n    tag_265:\n      pop\n      gas\n      call\n      iszero\n      dup1\n      iszero\n      tag_267\n      jumpi\n      returndatasize\n      0x00\n      dup1\n      returndatacopy\n      revert(0x00, returndatasize)\n    tag_267:\n      pop\n      pop\n      pop\n      pop\n        /* \"contractss/TimbTreasury.sol\":9361:9556  if (timbsIsToken0) {... */\n      jump(tag_268)\n    tag_262:\n        /* \"contractss/TimbTreasury.sol\":9499:9511  timbsEthPair */\n      sload(0x03)\n        /* \"contractss/TimbTreasury.sol\":9485:9545  ITimbSwapPair(timbsEthPair).swap(0, timbsOut, address(this)) */\n      mload(0x40)\n      shl(0xe1, 0x36cd3205)\n      dup2\n      mstore\n        /* \"contractss/TimbTreasury.sol\":9499:9511  timbsEthPair */\n      0x00\n        /* \"contractss/TimbTreasury.sol\":9485:9545  ITimbSwapPair(timbsEthPair).swap(0, timbsOut, address(this)) */\n      0x04\n      dup3\n      add\n        /* \"#utility.yul\":5489:5514   */\n      mstore\n        /* \"#utility.yul\":5530:5548   */\n      0x24\n      dup2\n      add\n        /* \"#utility.yul\":5523:5557   */\n      dup5\n      swap1\n      mstore\n        /* \"contractss/TimbTreasury.sol\":9539:9543  this */\n      address\n        /* \"#utility.yul\":5573:5591   */\n      0x44\n      dup3\n      add\n        /* \"#utility.yul\":5566:5626   */\n      mstore\n      sub(shl(0xa0, 0x01), 0x01)\n        /* \"contractss/TimbTreasury.sol\":9499:9511  timbsEthPair */\n      swap1\n      swap2\n      and\n      swap1\n        /* \"contractss/TimbTreasury.sol\":9485:9517  ITimbSwapPair(timbsEthPair).swap */\n      0x6d9a640a\n      swap1\n        /* \"#utility.yul\":5462:5480   */\n      0x64\n      add\n        /* \"contractss/TimbTreasury.sol\":9485:9545  ITimbSwapPair(timbsEthPair).swap(0, timbsOut, address(this)) */\n      0x00\n      mload(0x40)\n      dup1\n      dup4\n      sub\n      dup2\n      0x00\n      dup8\n      dup1\n      extcodesize\n      iszero\n      dup1\n      iszero\n      tag_271\n      jumpi\n      0x00\n      dup1\n      revert\n    tag_271:\n      pop\n      gas\n      call\n      iszero\n      dup1\n      iszero\n      tag_273\n      jumpi\n      returndatasize\n      0x00\n      dup1\n      returndatacopy\n      revert(0x00, returndatasize)\n    tag_273:\n      pop\n      pop\n      pop\n      pop\n        /* \"contractss/TimbTreasury.sol\":9361:9556  if (timbsIsToken0) {... */\n    tag_268:\n        /* \"contractss/TimbTreasury.sol\":9619:9654  timbsToken.balanceOf(address(this)) */\n      mload(0x40)\n      shl(0xe0, 0x70a08231)\n      dup2\n      mstore\n        /* \"contractss/TimbTreasury.sol\":9648:9652  this */\n      address\n        /* \"contractss/TimbTreasury.sol\":9619:9654  timbsToken.balanceOf(address(this)) */\n      0x04\n      dup3\n      add\n        /* \"#utility.yul\":624:675   */\n      mstore\n        /* \"contractss/TimbTreasury.sol\":9600:9616  uint256 received */\n      0x00\n      swap1\n        /* \"contractss/TimbTreasury.sol\":9619:9629  timbsToken */\n      immutable(\"0x753005bd0bd6e20e7acd0dd8275cf856a18a272384014dc1cce463f3c48513ee\")\n      sub(shl(0xa0, 0x01), 0x01)\n        /* \"contractss/TimbTreasury.sol\":9619:9639  timbsToken.balanceOf */\n      and\n      swap1\n      0x70a08231\n      swap1\n        /* \"#utility.yul\":597:615   */\n      0x24\n      add\n        /* \"contractss/TimbTreasury.sol\":9619:9654  timbsToken.balanceOf(address(this)) */\n      0x20\n      mload(0x40)\n      dup1\n      dup4\n      sub\n      dup2\n      dup7\n      gas\n      staticcall\n      iszero\n      dup1\n      iszero\n      tag_276\n      jumpi\n      returndatasize\n      0x00\n      dup1\n      returndatacopy\n      revert(0x00, returndatasize)\n    tag_276:\n      pop\n      pop\n      pop\n      pop\n      mload(0x40)\n      returndatasize\n      not(0x1f)\n      0x1f\n      dup3\n      add\n      and\n      dup3\n      add\n      dup1\n      0x40\n      mstore\n      pop\n      dup2\n      add\n      swap1\n      tag_277\n      swap2\n      swap1\n      tag_201\n      jump\t// in\n    tag_277:\n        /* \"contractss/TimbTreasury.sol\":9600:9654  uint256 received = timbsToken.balanceOf(address(this)) */\n      swap1\n      pop\n        /* \"contractss/TimbTreasury.sol\":9679:9690  minTimbsOut */\n      dup11\n        /* \"contractss/TimbTreasury.sol\":9668:9676  received */\n      dup2\n        /* \"contractss/TimbTreasury.sol\":9668:9690  received < minTimbsOut */\n      lt\n        /* \"contractss/TimbTreasury.sol\":9664:9738  if (received < minTimbsOut) revert SlippageExceeded(received, minTimbsOut) */\n      iszero\n      tag_278\n      jumpi\n        /* \"contractss/TimbTreasury.sol\":9699:9738  SlippageExceeded(received, minTimbsOut) */\n      mload(0x40)\n      shl(0xe0, 0x71c4efed)\n      dup2\n      mstore\n      0x04\n      dup2\n      add\n        /* \"#utility.yul\":3223:3248   */\n      dup3\n      swap1\n      mstore\n        /* \"#utility.yul\":3264:3282   */\n      0x24\n      dup2\n      add\n        /* \"#utility.yul\":3257:3291   */\n      dup13\n      swap1\n      mstore\n        /* \"#utility.yul\":3196:3214   */\n      0x44\n      add\n        /* \"contractss/TimbTreasury.sol\":9699:9738  SlippageExceeded(received, minTimbsOut) */\n      tag_178\n        /* \"#utility.yul\":3049:3297   */\n      jump\n        /* \"contractss/TimbTreasury.sol\":9664:9738  if (received < minTimbsOut) revert SlippageExceeded(received, minTimbsOut) */\n    tag_278:\n        /* \"contractss/TimbTreasury.sol\":9789:9803  uint256 toBurn */\n      0x00\n        /* \"contractss/TimbTreasury.sol\":9842:9845  100 */\n      0x64\n        /* \"contractss/TimbTreasury.sol\":9822:9838  buybackBurnRatio */\n      sload(0x04)\n        /* \"contractss/TimbTreasury.sol\":9811:9819  received */\n      dup4\n        /* \"contractss/TimbTreasury.sol\":9811:9838  received * buybackBurnRatio */\n      tag_280\n      swap2\n      swap1\n      tag_249\n      jump\t// in\n    tag_280:\n        /* \"contractss/TimbTreasury.sol\":9810:9845  (received * buybackBurnRatio) / 100 */\n      tag_281\n      swap2\n      swap1\n      tag_254\n      jump\t// in\n    tag_281:\n        /* \"contractss/TimbTreasury.sol\":9789:9845  uint256 toBurn     = (received * buybackBurnRatio) / 100 */\n      swap1\n      pop\n        /* \"contractss/TimbTreasury.sol\":9855:9872  uint256 toStaking */\n      0x00\n        /* \"contractss/TimbTreasury.sol\":9876:9893  received - toBurn */\n      tag_282\n        /* \"contractss/TimbTreasury.sol\":9789:9845  uint256 toBurn     = (received * buybackBurnRatio) / 100 */\n      dup3\n        /* \"contractss/TimbTreasury.sol\":9876:9884  received */\n      dup5\n        /* \"contractss/TimbTreasury.sol\":9876:9893  received - toBurn */\n      tag_283\n      jump\t// in\n    tag_282:\n        /* \"contractss/TimbTreasury.sol\":9855:9893  uint256 toStaking  = received - toBurn */\n      swap1\n      pop\n        /* \"contractss/TimbTreasury.sol\":9908:9918  toBurn > 0 */\n      dup2\n      iszero\n        /* \"contractss/TimbTreasury.sol\":9904:10008  if (toBurn > 0) {... */\n      tag_284\n      jumpi\n        /* \"contractss/TimbTreasury.sol\":9934:9957  timbsToken.burn(toBurn) */\n      mload(0x40)\n      shl(0xe3, 0x0852cd8d)\n      dup2\n      mstore\n      0x04\n      dup2\n      add\n        /* \"#utility.yul\":422:447   */\n      dup4\n      swap1\n      mstore\n        /* \"contractss/TimbTreasury.sol\":9934:9944  timbsToken */\n      immutable(\"0x753005bd0bd6e20e7acd0dd8275cf856a18a272384014dc1cce463f3c48513ee\")\n      sub(shl(0xa0, 0x01), 0x01)\n        /* \"contractss/TimbTreasury.sol\":9934:9949  timbsToken.burn */\n      and\n      swap1\n      0x42966c68\n      swap1\n        /* \"#utility.yul\":395:413   */\n      0x24\n      add\n        /* \"contractss/TimbTreasury.sol\":9934:9957  timbsToken.burn(toBurn) */\n      0x00\n      mload(0x40)\n      dup1\n      dup4\n      sub\n      dup2\n      0x00\n      dup8\n      dup1\n      extcodesize\n      iszero\n      dup1\n      iszero\n      tag_286\n      jumpi\n      0x00\n      dup1\n      revert\n    tag_286:\n      pop\n      gas\n      call\n      iszero\n      dup1\n      iszero\n      tag_288\n      jumpi\n      returndatasize\n      0x00\n      dup1\n      returndatacopy\n      revert(0x00, returndatasize)\n    tag_288:\n      pop\n      pop\n      pop\n      pop\n        /* \"contractss/TimbTreasury.sol\":9991:9997  toBurn */\n      dup2\n        /* \"contractss/TimbTreasury.sol\":9971:9987  totalTimbsBurned */\n      0x08\n      0x00\n        /* \"contractss/TimbTreasury.sol\":9971:9997  totalTimbsBurned += toBurn */\n      dup3\n      dup3\n      sload\n      tag_289\n      swap2\n      swap1\n      tag_42\n      jump\t// in\n    tag_289:\n      swap1\n      swap2\n      sstore\n      pop\n      pop\n        /* \"contractss/TimbTreasury.sol\":9904:10008  if (toBurn > 0) {... */\n    tag_284:\n        /* \"contractss/TimbTreasury.sol\":10034:10035  0 */\n      0x00\n        /* \"contractss/TimbTreasury.sol\":10022:10031  toStaking */\n      dup2\n        /* \"contractss/TimbTreasury.sol\":10022:10035  toStaking > 0 */\n      gt\n        /* \"contractss/TimbTreasury.sol\":10022:10064  toStaking > 0 && timbStaking != address(0) */\n      dup1\n      iszero\n      tag_290\n      jumpi\n      pop\n        /* \"contractss/TimbTreasury.sol\":10039:10050  timbStaking */\n      and(sub(shl(0xa0, 0x01), 0x01), sload(0x01))\n        /* \"contractss/TimbTreasury.sol\":10039:10064  timbStaking != address(0) */\n      iszero\n      iszero\n        /* \"contractss/TimbTreasury.sol\":10022:10064  toStaking > 0 && timbStaking != address(0) */\n    tag_290:\n        /* \"contractss/TimbTreasury.sol\":10018:10388  if (toStaking > 0 && timbStaking != address(0)) {... */\n      iszero\n      tag_291\n      jumpi\n        /* \"contractss/TimbTreasury.sol\":10104:10115  timbStaking */\n      sload(0x01)\n        /* \"contractss/TimbTreasury.sol\":10080:10127  timbsToken.safeTransfer(timbStaking, toStaking) */\n      mload(0x40)\n      shl(0xe0, 0x423f6cef)\n      dup2\n      mstore\n      sub(shl(0xa0, 0x01), 0x01)\n        /* \"contractss/TimbTreasury.sol\":10104:10115  timbStaking */\n      swap2\n      dup3\n      and\n        /* \"contractss/TimbTreasury.sol\":10080:10127  timbsToken.safeTransfer(timbStaking, toStaking) */\n      0x04\n      dup3\n      add\n        /* \"#utility.yul\":3875:3926   */\n      mstore\n        /* \"#utility.yul\":3942:3960   */\n      0x24\n      dup2\n      add\n        /* \"#utility.yul\":3935:3969   */\n      dup4\n      swap1\n      mstore\n        /* \"contractss/TimbTreasury.sol\":10080:10090  timbsToken */\n      immutable(\"0x753005bd0bd6e20e7acd0dd8275cf856a18a272384014dc1cce463f3c48513ee\")\n        /* \"contractss/TimbTreasury.sol\":10080:10103  timbsToken.safeTransfer */\n      swap1\n      swap2\n      and\n      swap1\n      0x423f6cef\n      swap1\n        /* \"#utility.yul\":3848:3866   */\n      0x44\n      add\n        /* \"contractss/TimbTreasury.sol\":10080:10127  timbsToken.safeTransfer(timbStaking, toStaking) */\n      0x00\n      mload(0x40)\n      dup1\n      dup4\n      sub\n      dup2\n      0x00\n      dup8\n      dup1\n      extcodesize\n      iszero\n      dup1\n      iszero\n      tag_293\n      jumpi\n      0x00\n      dup1\n      revert\n    tag_293:\n      pop\n      gas\n      call\n      iszero\n      dup1\n      iszero\n      tag_295\n      jumpi\n      returndatasize\n      0x00\n      dup1\n      returndatacopy\n      revert(0x00, returndatasize)\n    tag_295:\n      pop\n      pop\n        /* \"contractss/TimbTreasury.sol\":10214:10225  timbStaking */\n      sload(0x01)\n        /* \"contractss/TimbTreasury.sol\":10290:10315  stakingDistributionPeriod */\n      sload(0x05)\n        /* \"contractss/TimbTreasury.sol\":10201:10329  ITimbStaking(timbStaking).notifyRewardAmount(... */\n      mload(0x40)\n      shl(0xe0, 0x246132f9)\n      dup2\n      mstore\n      0x04\n      dup2\n      add\n        /* \"#utility.yul\":3223:3248   */\n      dup7\n      swap1\n      mstore\n        /* \"#utility.yul\":3264:3282   */\n      0x24\n      dup2\n      add\n        /* \"#utility.yul\":3257:3291   */\n      swap2\n      swap1\n      swap2\n      mstore\n      sub(shl(0xa0, 0x01), 0x01)\n        /* \"contractss/TimbTreasury.sol\":10214:10225  timbStaking */\n      swap1\n      swap2\n      and\n      swap3\n      pop\n        /* \"contractss/TimbTreasury.sol\":10201:10245  ITimbStaking(timbStaking).notifyRewardAmount */\n      0x246132f9\n      swap2\n      pop\n        /* \"#utility.yul\":3196:3214   */\n      0x44\n      add\n        /* \"contractss/TimbTreasury.sol\":10201:10329  ITimbStaking(timbStaking).notifyRewardAmount(... */\n      0x00\n      mload(0x40)\n      dup1\n      dup4\n      sub\n      dup2\n      0x00\n      dup8\n      dup1\n      extcodesize\n      iszero\n      dup1\n      iszero\n      tag_297\n      jumpi\n      0x00\n      dup1\n      revert\n    tag_297:\n      pop\n      gas\n      call\n      iszero\n      dup1\n      iszero\n      tag_299\n      jumpi\n      returndatasize\n      0x00\n      dup1\n      returndatacopy\n      revert(0x00, returndatasize)\n    tag_299:\n      pop\n      pop\n      pop\n      pop\n        /* \"contractss/TimbTreasury.sol\":10368:10377  toStaking */\n      dup1\n        /* \"contractss/TimbTreasury.sol\":10343:10364  totalTimbsDistributed */\n      0x09\n      0x00\n        /* \"contractss/TimbTreasury.sol\":10343:10377  totalTimbsDistributed += toStaking */\n      dup3\n      dup3\n      sload\n      tag_300\n      swap2\n      swap1\n      tag_42\n      jump\t// in\n    tag_300:\n      swap1\n      swap2\n      sstore\n      pop\n      pop\n        /* \"contractss/TimbTreasury.sol\":10018:10388  if (toStaking > 0 && timbStaking != address(0)) {... */\n    tag_291:\n        /* \"contractss/TimbTreasury.sol\":10403:10458  BuybackExecuted(ethAmount, received, toBurn, toStaking) */\n      0x40\n      dup1\n      mload\n        /* \"#utility.yul\":2884:2909   */\n      dup16\n      dup2\n      mstore\n        /* \"#utility.yul\":2940:2942   */\n      0x20\n        /* \"#utility.yul\":2925:2943   */\n      dup2\n      add\n        /* \"#utility.yul\":2918:2952   */\n      dup6\n      swap1\n      mstore\n        /* \"#utility.yul\":2968:2986   */\n      swap1\n      dup2\n      add\n        /* \"#utility.yul\":2961:2995   */\n      dup4\n      swap1\n      mstore\n        /* \"#utility.yul\":3026:3028   */\n      0x60\n        /* \"#utility.yul\":3011:3029   */\n      dup2\n      add\n        /* \"#utility.yul\":3004:3038   */\n      dup3\n      swap1\n      mstore\n        /* \"contractss/TimbTreasury.sol\":10403:10458  BuybackExecuted(ethAmount, received, toBurn, toStaking) */\n      0x42659a4aa613c1e350c764f0ff2be36a175ac2a1e4b77b8e1467d1fed32becc8\n      swap1\n        /* \"#utility.yul\":2871:2874   */\n      0x80\n        /* \"#utility.yul\":2856:2875   */\n      add\n        /* \"contractss/TimbTreasury.sol\":10403:10458  BuybackExecuted(ethAmount, received, toBurn, toStaking) */\n      mload(0x40)\n      dup1\n      swap2\n      sub\n      swap1\n      log1\n        /* \"contractss/TimbTreasury.sol\":7724:10465  {... */\n      pop\n      pop\n      pop\n      pop\n      pop\n      pop\n      pop\n      pop\n      pop\n      pop\n      pop\n      pop\n        /* \"@openzeppelin/contracts/utils/ReentrancyGuard.sol\":3065:3085  _nonReentrantAfter() */\n      tag_187\n        /* \"@openzeppelin/contracts/utils/ReentrancyGuard.sol\":2365:2366  1 */\n      0x01\n      0x00\n      dup1\n      mload\n      0x20\n      data_c8669cf8eaf883002b9f48e28846a8d408c9b58ea6613bace374265e43c9bc43\n      dup4\n      codecopy\n      dup2\n      mload\n      swap2\n      mstore\n        /* \"@openzeppelin/contracts/utils/ReentrancyGuard.sol\":3972:4034  _reentrancyGuardStorageSlot().getUint256Slot().value = ENTERED */\n      sstore\n        /* \"@openzeppelin/contracts/utils/ReentrancyGuard.sol\":3749:4041  function _nonReentrantBefore() private {... */\n      jump\n        /* \"contractss/TimbTreasury.sol\":13369:13562  function setTimbStaking(address _staking) external onlyOwner {... */\n    tag_131:\n        /* \"@openzeppelin/contracts/access/Ownable.sol\":1531:1544  _checkOwner() */\n      tag_304\n        /* \"@openzeppelin/contracts/access/Ownable.sol\":1531:1542  _checkOwner */\n      tag_166\n        /* \"@openzeppelin/contracts/access/Ownable.sol\":1531:1544  _checkOwner() */\n      jump\t// in\n    tag_304:\n      sub(shl(0xa0, 0x01), 0x01)\n        /* \"contractss/TimbTreasury.sol\":13444:13466  _staking == address(0) */\n      dup2\n      and\n        /* \"contractss/TimbTreasury.sol\":13440:13488  if (_staking == address(0)) revert ZeroAddress() */\n      tag_306\n      jumpi\n        /* \"contractss/TimbTreasury.sol\":13475:13488  ZeroAddress() */\n      mload(0x40)\n      shl(0xe0, 0xd92e233d)\n      dup2\n      mstore\n      0x04\n      add\n      mload(0x40)\n      dup1\n      swap2\n      sub\n      swap1\n      revert\n        /* \"contractss/TimbTreasury.sol\":13440:13488  if (_staking == address(0)) revert ZeroAddress() */\n    tag_306:\n        /* \"contractss/TimbTreasury.sol\":13498:13509  timbStaking */\n      0x01\n        /* \"contractss/TimbTreasury.sol\":13498:13520  timbStaking = _staking */\n      dup1\n      sload\n      not(sub(shl(0xa0, 0x01), 0x01))\n      and\n      sub(shl(0xa0, 0x01), 0x01)\n      dup4\n      and\n      swap1\n      dup2\n      or\n      swap1\n      swap2\n      sstore\n        /* \"contractss/TimbTreasury.sol\":13535:13555  StakingSet(_staking) */\n      mload(0x40)\n      0xf520447191196b125f76f7110397fdf32b1b9cefb7dec323bd3b998022ac2338\n      swap1\n      0x00\n      swap1\n      log2\n        /* \"contractss/TimbTreasury.sol\":13369:13562  function setTimbStaking(address _staking) external onlyOwner {... */\n      pop\n      jump\t// out\n        /* \"contractss/TimbTreasury.sol\":14132:14367  function setFeeSender(address sender, bool authorised) external onlyOwner {... */\n    tag_136:\n        /* \"@openzeppelin/contracts/access/Ownable.sol\":1531:1544  _checkOwner() */\n      tag_308\n        /* \"@openzeppelin/contracts/access/Ownable.sol\":1531:1542  _checkOwner */\n      tag_166\n        /* \"@openzeppelin/contracts/access/Ownable.sol\":1531:1544  _checkOwner() */\n      jump\t// in\n    tag_308:\n      sub(shl(0xa0, 0x01), 0x01)\n        /* \"contractss/TimbTreasury.sol\":14220:14240  sender == address(0) */\n      dup3\n      and\n        /* \"contractss/TimbTreasury.sol\":14216:14262  if (sender == address(0)) revert ZeroAddress() */\n      tag_310\n      jumpi\n        /* \"contractss/TimbTreasury.sol\":14249:14262  ZeroAddress() */\n      mload(0x40)\n      shl(0xe0, 0xd92e233d)\n      dup2\n      mstore\n      0x04\n      add\n      mload(0x40)\n      dup1\n      swap2\n      sub\n      swap1\n      revert\n        /* \"contractss/TimbTreasury.sol\":14216:14262  if (sender == address(0)) revert ZeroAddress() */\n    tag_310:\n      sub(shl(0xa0, 0x01), 0x01)\n        /* \"contractss/TimbTreasury.sol\":14272:14300  authorisedFeeSenders[sender] */\n      dup3\n      and\n      0x00\n      dup2\n      dup2\n      mstore\n        /* \"contractss/TimbTreasury.sol\":14272:14292  authorisedFeeSenders */\n      0x06\n        /* \"contractss/TimbTreasury.sol\":14272:14300  authorisedFeeSenders[sender] */\n      0x20\n      swap1\n      dup2\n      mstore\n      0x40\n      swap2\n      dup3\n      swap1\n      keccak256\n        /* \"contractss/TimbTreasury.sol\":14272:14313  authorisedFeeSenders[sender] = authorised */\n      dup1\n      sload\n      not(0xff)\n      and\n      dup6\n      iszero\n      iszero\n      swap1\n      dup2\n      or\n      swap1\n      swap2\n      sstore\n        /* \"contractss/TimbTreasury.sol\":14328:14360  FeeSenderSet(sender, authorised) */\n      swap2\n      mload\n        /* \"#utility.yul\":1214:1255   */\n      swap2\n      dup3\n      mstore\n        /* \"contractss/TimbTreasury.sol\":14328:14360  FeeSenderSet(sender, authorised) */\n      0xbac4a6ee215c0287f7da3a73c4fa957dde930dc8190bba3f30d0104ae15ca9fd\n      swap2\n        /* \"#utility.yul\":1187:1205   */\n      add\n        /* \"contractss/TimbTreasury.sol\":14328:14360  FeeSenderSet(sender, authorised) */\n      mload(0x40)\n      dup1\n      swap2\n      sub\n      swap1\n      log2\n        /* \"contractss/TimbTreasury.sol\":14132:14367  function setFeeSender(address sender, bool authorised) external onlyOwner {... */\n      pop\n      pop\n      jump\t// out\n        /* \"contractss/TimbTreasury.sol\":13160:13363  function setBuybackBurnRatio(uint256 _ratio) external onlyOwner {... */\n    tag_140:\n        /* \"@openzeppelin/contracts/access/Ownable.sol\":1531:1544  _checkOwner() */\n      tag_313\n        /* \"@openzeppelin/contracts/access/Ownable.sol\":1531:1542  _checkOwner */\n      tag_166\n        /* \"@openzeppelin/contracts/access/Ownable.sol\":1531:1544  _checkOwner() */\n      jump\t// in\n    tag_313:\n        /* \"contractss/TimbTreasury.sol\":13247:13250  100 */\n      0x64\n        /* \"contractss/TimbTreasury.sol\":13238:13244  _ratio */\n      dup2\n        /* \"contractss/TimbTreasury.sol\":13238:13250  _ratio > 100 */\n      gt\n        /* \"contractss/TimbTreasury.sol\":13234:13279  if (_ratio > 100) revert InvalidRatio(_ratio) */\n      iszero\n      tag_315\n      jumpi\n        /* \"contractss/TimbTreasury.sol\":13259:13279  InvalidRatio(_ratio) */\n      mload(0x40)\n      shl(0xe3, 0x046a85ef)\n      dup2\n      mstore\n      0x04\n      dup2\n      add\n        /* \"#utility.yul\":422:447   */\n      dup3\n      swap1\n      mstore\n        /* \"#utility.yul\":395:413   */\n      0x24\n      add\n        /* \"contractss/TimbTreasury.sol\":13259:13279  InvalidRatio(_ratio) */\n      tag_178\n        /* \"#utility.yul\":276:453   */\n      jump\n        /* \"contractss/TimbTreasury.sol\":13234:13279  if (_ratio > 100) revert InvalidRatio(_ratio) */\n    tag_315:\n        /* \"contractss/TimbTreasury.sol\":13289:13305  buybackBurnRatio */\n      0x04\n        /* \"contractss/TimbTreasury.sol\":13289:13314  buybackBurnRatio = _ratio */\n      dup2\n      swap1\n      sstore\n        /* \"contractss/TimbTreasury.sol\":13329:13356  BuybackBurnRatioSet(_ratio) */\n      mload(0x40)\n        /* \"#utility.yul\":422:447   */\n      dup2\n      dup2\n      mstore\n        /* \"contractss/TimbTreasury.sol\":13329:13356  BuybackBurnRatioSet(_ratio) */\n      0xe85d9362d5330e5046ba20d38140f318950327f15b22123dae77dfff2f1dde71\n      swap1\n        /* \"#utility.yul\":410:412   */\n      0x20\n        /* \"#utility.yul\":395:413   */\n      add\n        /* \"contractss/TimbTreasury.sol\":13329:13356  BuybackBurnRatioSet(_ratio) */\n      mload(0x40)\n      dup1\n      swap2\n      sub\n      swap1\n      log1\n        /* \"contractss/TimbTreasury.sol\":13160:13363  function setBuybackBurnRatio(uint256 _ratio) external onlyOwner {... */\n      pop\n      jump\t// out\n        /* \"contractss/TimbTreasury.sol\":14821:14936  function timbsBalance() external view returns (uint256) {... */\n    tag_148:\n        /* \"contractss/TimbTreasury.sol\":14894:14929  timbsToken.balanceOf(address(this)) */\n      mload(0x40)\n      shl(0xe0, 0x70a08231)\n      dup2\n      mstore\n        /* \"contractss/TimbTreasury.sol\":14923:14927  this */\n      address\n        /* \"contractss/TimbTreasury.sol\":14894:14929  timbsToken.balanceOf(address(this)) */\n      0x04\n      dup3\n      add\n        /* \"#utility.yul\":624:675   */\n      mstore\n        /* \"contractss/TimbTreasury.sol\":14868:14875  uint256 */\n      0x00\n      swap1\n        /* \"contractss/TimbTreasury.sol\":14894:14904  timbsToken */\n      immutable(\"0x753005bd0bd6e20e7acd0dd8275cf856a18a272384014dc1cce463f3c48513ee\")\n      sub(shl(0xa0, 0x01), 0x01)\n        /* \"contractss/TimbTreasury.sol\":14894:14914  timbsToken.balanceOf */\n      and\n      swap1\n      0x70a08231\n      swap1\n        /* \"#utility.yul\":597:615   */\n      0x24\n      add\n        /* \"contractss/TimbTreasury.sol\":14894:14929  timbsToken.balanceOf(address(this)) */\n      0x20\n      mload(0x40)\n      dup1\n      dup4\n      sub\n      dup2\n      dup7\n      gas\n      staticcall\n      iszero\n      dup1\n      iszero\n      tag_322\n      jumpi\n      returndatasize\n      0x00\n      dup1\n      returndatacopy\n      revert(0x00, returndatasize)\n    tag_322:\n      pop\n      pop\n      pop\n      pop\n      mload(0x40)\n      returndatasize\n      not(0x1f)\n      0x1f\n      dup3\n      add\n      and\n      dup3\n      add\n      dup1\n      0x40\n      mstore\n      pop\n      dup2\n      add\n      swap1\n      tag_323\n      swap2\n      swap1\n      tag_201\n      jump\t// in\n    tag_323:\n        /* \"contractss/TimbTreasury.sol\":14887:14929  return timbsToken.balanceOf(address(this)) */\n      swap1\n      pop\n        /* \"contractss/TimbTreasury.sol\":14821:14936  function timbsBalance() external view returns (uint256) {... */\n      swap1\n      jump\t// out\n        /* \"contractss/TimbTreasury.sol\":10805:11274  function distributeToPot(uint256 amount)... */\n    tag_157:\n        /* \"@openzeppelin/contracts/utils/ReentrancyGuard.sol\":3023:3044  _nonReentrantBefore() */\n      tag_325\n        /* \"@openzeppelin/contracts/utils/ReentrancyGuard.sol\":3023:3042  _nonReentrantBefore */\n      tag_171\n        /* \"@openzeppelin/contracts/utils/ReentrancyGuard.sol\":3023:3044  _nonReentrantBefore() */\n      jump\t// in\n    tag_325:\n        /* \"@openzeppelin/contracts/access/Ownable.sol\":1531:1544  _checkOwner() */\n      tag_327\n        /* \"@openzeppelin/contracts/access/Ownable.sol\":1531:1542  _checkOwner */\n      tag_166\n        /* \"@openzeppelin/contracts/access/Ownable.sol\":1531:1544  _checkOwner() */\n      jump\t// in\n    tag_327:\n        /* \"contractss/TimbTreasury.sol\":10920:10926  amount */\n      dup1\n        /* \"contractss/TimbTreasury.sol\":10930:10931  0 */\n      0x00\n        /* \"contractss/TimbTreasury.sol\":10920:10931  amount == 0 */\n      sub\n        /* \"contractss/TimbTreasury.sol\":10916:10972  if (amount == 0)                     revert ZeroAmount() */\n      tag_329\n      jumpi\n        /* \"contractss/TimbTreasury.sol\":10960:10972  ZeroAmount() */\n      mload(0x40)\n      shl(0xe0, 0x1f2a2005)\n      dup2\n      mstore\n      0x04\n      add\n      mload(0x40)\n      dup1\n      swap2\n      sub\n      swap1\n      revert\n        /* \"contractss/TimbTreasury.sol\":10916:10972  if (amount == 0)                     revert ZeroAmount() */\n    tag_329:\n        /* \"contractss/TimbTreasury.sol\":10986:10997  prizeEscrow */\n      and(sub(shl(0xa0, 0x01), 0x01), sload(0x02))\n        /* \"contractss/TimbTreasury.sol\":10982:11039  if (prizeEscrow == address(0))       revert ZeroAddress() */\n      tag_330\n      jumpi\n        /* \"contractss/TimbTreasury.sol\":11026:11039  ZeroAddress() */\n      mload(0x40)\n      shl(0xe0, 0xd92e233d)\n      dup2\n      mstore\n      0x04\n      add\n      mload(0x40)\n      dup1\n      swap2\n      sub\n      swap1\n      revert\n        /* \"contractss/TimbTreasury.sol\":10982:11039  if (prizeEscrow == address(0))       revert ZeroAddress() */\n    tag_330:\n        /* \"contractss/TimbTreasury.sol\":11062:11083  address(this).balance */\n      selfbalance\n        /* \"contractss/TimbTreasury.sol\":11053:11059  amount */\n      dup2\n        /* \"contractss/TimbTreasury.sol\":11053:11083  amount > address(this).balance */\n      gt\n        /* \"contractss/TimbTreasury.sol\":11049:11139  if (amount > address(this).balance)  revert InsufficientETH(amount, address(this).balance) */\n      iszero\n      tag_331\n      jumpi\n        /* \"contractss/TimbTreasury.sol\":11093:11139  InsufficientETH(amount, address(this).balance) */\n      mload(0x40)\n      shl(0xe5, 0xfdf575)\n      dup2\n      mstore\n      0x04\n      dup2\n      add\n        /* \"#utility.yul\":3223:3248   */\n      dup3\n      swap1\n      mstore\n        /* \"contractss/TimbTreasury.sol\":11117:11138  address(this).balance */\n      selfbalance\n        /* \"#utility.yul\":3264:3282   */\n      0x24\n      dup3\n      add\n        /* \"#utility.yul\":3257:3291   */\n      mstore\n        /* \"#utility.yul\":3196:3214   */\n      0x44\n      add\n        /* \"contractss/TimbTreasury.sol\":11093:11139  InsufficientETH(amount, address(this).balance) */\n      tag_178\n        /* \"#utility.yul\":3049:3297   */\n      jump\n        /* \"contractss/TimbTreasury.sol\":11049:11139  if (amount > address(this).balance)  revert InsufficientETH(amount, address(this).balance) */\n    tag_331:\n        /* \"contractss/TimbTreasury.sol\":11163:11174  prizeEscrow */\n      0x02\n      0x00\n      swap1\n      sload\n      swap1\n      0x0100\n      exp\n      swap1\n      div\n      sub(shl(0xa0, 0x01), 0x01)\n      and\n      sub(shl(0xa0, 0x01), 0x01)\n        /* \"contractss/TimbTreasury.sol\":11150:11183  IPrizeEscrow(prizeEscrow).deposit */\n      and\n      0xd0e30db0\n        /* \"contractss/TimbTreasury.sol\":11191:11197  amount */\n      dup3\n        /* \"contractss/TimbTreasury.sol\":11150:11200  IPrizeEscrow(prizeEscrow).deposit{value: amount}() */\n      mload(0x40)\n      dup3\n      0xffffffff\n      and\n      0xe0\n      shl\n      dup2\n      mstore\n      0x04\n      add\n      0x00\n      mload(0x40)\n      dup1\n      dup4\n      sub\n      dup2\n      dup6\n      dup9\n      dup1\n      extcodesize\n      iszero\n      dup1\n      iszero\n      tag_333\n      jumpi\n      0x00\n      dup1\n      revert\n    tag_333:\n      pop\n      gas\n      call\n      iszero\n      dup1\n      iszero\n      tag_335\n      jumpi\n      returndatasize\n      0x00\n      dup1\n      returndatacopy\n      revert(0x00, returndatasize)\n    tag_335:\n      pop\n      pop\n      pop\n      pop\n      pop\n        /* \"contractss/TimbTreasury.sol\":11228:11234  amount */\n      dup1\n        /* \"contractss/TimbTreasury.sol\":11210:11224  totalPotFunded */\n      0x0a\n      0x00\n        /* \"contractss/TimbTreasury.sol\":11210:11234  totalPotFunded += amount */\n      dup3\n      dup3\n      sload\n      tag_336\n      swap2\n      swap1\n      tag_42\n      jump\t// in\n    tag_336:\n      swap1\n      swap2\n      sstore\n      pop\n      pop\n        /* \"contractss/TimbTreasury.sol\":11250:11267  PotFunded(amount) */\n      mload(0x40)\n        /* \"#utility.yul\":422:447   */\n      dup2\n      dup2\n      mstore\n        /* \"contractss/TimbTreasury.sol\":11250:11267  PotFunded(amount) */\n      0x065da79752e89c0debd87a1c71ae1d472add974dc19b2fc258f88b5598fcfa76\n      swap1\n        /* \"#utility.yul\":410:412   */\n      0x20\n        /* \"#utility.yul\":395:413   */\n      add\n        /* \"contractss/TimbTreasury.sol\":11250:11267  PotFunded(amount) */\n      mload(0x40)\n      dup1\n      swap2\n      sub\n      swap1\n      log1\n        /* \"@openzeppelin/contracts/utils/ReentrancyGuard.sol\":3065:3085  _nonReentrantAfter() */\n      tag_338\n        /* \"@openzeppelin/contracts/utils/ReentrancyGuard.sol\":2365:2366  1 */\n      0x01\n      0x00\n      dup1\n      mload\n      0x20\n      data_c8669cf8eaf883002b9f48e28846a8d408c9b58ea6613bace374265e43c9bc43\n      dup4\n      codecopy\n      dup2\n      mload\n      swap2\n      mstore\n        /* \"@openzeppelin/contracts/utils/ReentrancyGuard.sol\":3972:4034  _reentrancyGuardStorageSlot().getUint256Slot().value = ENTERED */\n      sstore\n        /* \"@openzeppelin/contracts/utils/ReentrancyGuard.sol\":3749:4041  function _nonReentrantBefore() private {... */\n      jump\n        /* \"@openzeppelin/contracts/utils/ReentrancyGuard.sol\":3065:3085  _nonReentrantAfter() */\n    tag_338:\n        /* \"contractss/TimbTreasury.sol\":10805:11274  function distributeToPot(uint256 amount)... */\n      pop\n      jump\t// out\n        /* \"@openzeppelin/contracts/access/Ownable.sol\":2543:2758  function transferOwnership(address newOwner) public virtual onlyOwner {... */\n    tag_161:\n        /* \"@openzeppelin/contracts/access/Ownable.sol\":1531:1544  _checkOwner() */\n      tag_340\n        /* \"@openzeppelin/contracts/access/Ownable.sol\":1531:1542  _checkOwner */\n      tag_166\n        /* \"@openzeppelin/contracts/access/Ownable.sol\":1531:1544  _checkOwner() */\n      jump\t// in\n    tag_340:\n      sub(shl(0xa0, 0x01), 0x01)\n        /* \"@openzeppelin/contracts/access/Ownable.sol\":2627:2649  newOwner == address(0) */\n      dup2\n      and\n        /* \"@openzeppelin/contracts/access/Ownable.sol\":2623:2714  if (newOwner == address(0)) {... */\n      tag_342\n      jumpi\n        /* \"@openzeppelin/contracts/access/Ownable.sol\":2672:2703  OwnableInvalidOwner(address(0)) */\n      mload(0x40)\n      shl(0xe0, 0x1e4fbdf7)\n      dup2\n      mstore\n        /* \"@openzeppelin/contracts/access/Ownable.sol\":2700:2701  0 */\n      0x00\n        /* \"@openzeppelin/contracts/access/Ownable.sol\":2672:2703  OwnableInvalidOwner(address(0)) */\n      0x04\n      dup3\n      add\n        /* \"#utility.yul\":624:675   */\n      mstore\n        /* \"#utility.yul\":597:615   */\n      0x24\n      add\n        /* \"@openzeppelin/contracts/access/Ownable.sol\":2672:2703  OwnableInvalidOwner(address(0)) */\n      tag_178\n        /* \"#utility.yul\":458:681   */\n      jump\n        /* \"@openzeppelin/contracts/access/Ownable.sol\":2623:2714  if (newOwner == address(0)) {... */\n    tag_342:\n        /* \"@openzeppelin/contracts/access/Ownable.sol\":2723:2751  _transferOwnership(newOwner) */\n      tag_338\n        /* \"@openzeppelin/contracts/access/Ownable.sol\":2742:2750  newOwner */\n      dup2\n        /* \"@openzeppelin/contracts/access/Ownable.sol\":2723:2741  _transferOwnership */\n      tag_223\n        /* \"@openzeppelin/contracts/access/Ownable.sol\":2723:2751  _transferOwnership(newOwner) */\n      jump\t// in\n        /* \"contractss/TimbTreasury.sol\":6818:7004  function receiveFees() external payable {... */\n    tag_163:\n        /* \"contractss/TimbTreasury.sol\":6872:6881  msg.value */\n      callvalue\n        /* \"contractss/TimbTreasury.sol\":6885:6886  0 */\n      0x00\n        /* \"contractss/TimbTreasury.sol\":6872:6886  msg.value == 0 */\n      sub\n        /* \"contractss/TimbTreasury.sol\":6868:6907  if (msg.value == 0) revert ZeroAmount() */\n      tag_346\n      jumpi\n        /* \"contractss/TimbTreasury.sol\":6895:6907  ZeroAmount() */\n      mload(0x40)\n      shl(0xe0, 0x1f2a2005)\n      dup2\n      mstore\n      0x04\n      add\n      mload(0x40)\n      dup1\n      swap2\n      sub\n      swap1\n      revert\n        /* \"contractss/TimbTreasury.sol\":6868:6907  if (msg.value == 0) revert ZeroAmount() */\n    tag_346:\n        /* \"contractss/TimbTreasury.sol\":6938:6947  msg.value */\n      callvalue\n        /* \"contractss/TimbTreasury.sol\":6917:6934  totalFeesReceived */\n      0x07\n      0x00\n        /* \"contractss/TimbTreasury.sol\":6917:6947  totalFeesReceived += msg.value */\n      dup3\n      dup3\n      sload\n      tag_347\n      swap2\n      swap1\n      tag_42\n      jump\t// in\n    tag_347:\n      swap1\n      swap2\n      sstore\n      pop\n      pop\n        /* \"contractss/TimbTreasury.sol\":6962:6997  FeesReceived(msg.sender, msg.value) */\n      mload(0x40)\n        /* \"contractss/TimbTreasury.sol\":6987:6996  msg.value */\n      callvalue\n        /* \"#utility.yul\":422:447   */\n      dup2\n      mstore\n        /* \"contractss/TimbTreasury.sol\":6975:6985  msg.sender */\n      caller\n      swap1\n        /* \"contractss/TimbTreasury.sol\":6962:6997  FeesReceived(msg.sender, msg.value) */\n      0x2ccfc58c2cef4ee590b5f16be0548cc54afc12e1c66a67b362b7d640fd16bb2d\n      swap1\n        /* \"#utility.yul\":410:412   */\n      0x20\n        /* \"#utility.yul\":395:413   */\n      add\n        /* \"contractss/TimbTreasury.sol\":6962:6997  FeesReceived(msg.sender, msg.value) */\n      mload(0x40)\n      dup1\n      swap2\n      sub\n      swap1\n      log2\n        /* \"contractss/TimbTreasury.sol\":6818:7004  function receiveFees() external payable {... */\n      jump\t// out\n        /* \"@openzeppelin/contracts/access/Ownable.sol\":1796:1958  function _checkOwner() internal view virtual {... */\n    tag_166:\n        /* \"@openzeppelin/contracts/access/Ownable.sol\":1684:1691  address */\n      0x00\n        /* \"@openzeppelin/contracts/access/Ownable.sol\":1710:1716  _owner */\n      sload\n      sub(shl(0xa0, 0x01), 0x01)\n      and\n        /* \"@openzeppelin/contracts/utils/Context.sol\":735:745  msg.sender */\n      caller\n        /* \"@openzeppelin/contracts/access/Ownable.sol\":1855:1878  owner() != _msgSender() */\n      eq\n        /* \"@openzeppelin/contracts/access/Ownable.sol\":1851:1952  if (owner() != _msgSender()) {... */\n      tag_222\n      jumpi\n        /* \"@openzeppelin/contracts/access/Ownable.sol\":1901:1941  OwnableUnauthorizedAccount(_msgSender()) */\n      mload(0x40)\n      shl(0xe0, 0x118cdaa7)\n      dup2\n      mstore\n        /* \"@openzeppelin/contracts/utils/Context.sol\":735:745  msg.sender */\n      caller\n        /* \"@openzeppelin/contracts/access/Ownable.sol\":1901:1941  OwnableUnauthorizedAccount(_msgSender()) */\n      0x04\n      dup3\n      add\n        /* \"#utility.yul\":624:675   */\n      mstore\n        /* \"#utility.yul\":597:615   */\n      0x24\n      add\n        /* \"@openzeppelin/contracts/access/Ownable.sol\":1901:1941  OwnableUnauthorizedAccount(_msgSender()) */\n      tag_178\n        /* \"#utility.yul\":458:681   */\n      jump\n        /* \"@openzeppelin/contracts/utils/ReentrancyGuard.sol\":3749:4041  function _nonReentrantBefore() private {... */\n    tag_171:\n        /* \"@openzeppelin/contracts/utils/ReentrancyGuard.sol\":3872:3897  _nonReentrantBeforeView() */\n      tag_357\n        /* \"@openzeppelin/contracts/utils/ReentrancyGuard.sol\":3872:3895  _nonReentrantBeforeView */\n      tag_358\n        /* \"@openzeppelin/contracts/utils/ReentrancyGuard.sol\":3872:3897  _nonReentrantBeforeView() */\n      jump\t// in\n    tag_357:\n        /* \"@openzeppelin/contracts/utils/ReentrancyGuard.sol\":2407:2408  2 */\n      0x02\n      0x00\n      dup1\n      mload\n      0x20\n      data_c8669cf8eaf883002b9f48e28846a8d408c9b58ea6613bace374265e43c9bc43\n      dup4\n      codecopy\n      dup2\n      mload\n      swap2\n      mstore\n        /* \"@openzeppelin/contracts/utils/ReentrancyGuard.sol\":3972:4034  _reentrancyGuardStorageSlot().getUint256Slot().value = ENTERED */\n      sstore\n        /* \"@openzeppelin/contracts/utils/ReentrancyGuard.sol\":3749:4041  function _nonReentrantBefore() private {... */\n      jump\t// out\n        /* \"@openzeppelin/contracts/access/Ownable.sol\":2912:3099  function _transferOwnership(address newOwner) internal virtual {... */\n    tag_223:\n        /* \"@openzeppelin/contracts/access/Ownable.sol\":2985:3001  address oldOwner */\n      0x00\n        /* \"@openzeppelin/contracts/access/Ownable.sol\":3004:3010  _owner */\n      dup1\n      sload\n      sub(shl(0xa0, 0x01), 0x01)\n        /* \"@openzeppelin/contracts/access/Ownable.sol\":3020:3037  _owner = newOwner */\n      dup4\n      dup2\n      and\n      not(sub(shl(0xa0, 0x01), 0x01))\n      dup4\n      and\n      dup2\n      or\n      dup5\n      sstore\n        /* \"@openzeppelin/contracts/access/Ownable.sol\":3052:3092  OwnershipTransferred(oldOwner, newOwner) */\n      mload(0x40)\n        /* \"@openzeppelin/contracts/access/Ownable.sol\":3004:3010  _owner */\n      swap2\n      swap1\n      swap3\n      and\n      swap3\n      dup4\n      swap2\n        /* \"@openzeppelin/contracts/access/Ownable.sol\":3052:3092  OwnershipTransferred(oldOwner, newOwner) */\n      0x8be0079c531659141344cd1fd0a4f28419497f9722a3daafe3b4186f6b6457e0\n      swap2\n        /* \"@openzeppelin/contracts/access/Ownable.sol\":2985:3001  address oldOwner */\n      swap1\n        /* \"@openzeppelin/contracts/access/Ownable.sol\":3052:3092  OwnershipTransferred(oldOwner, newOwner) */\n      log3\n        /* \"@openzeppelin/contracts/access/Ownable.sol\":2975:3099  {... */\n      pop\n        /* \"@openzeppelin/contracts/access/Ownable.sol\":2912:3099  function _transferOwnership(address newOwner) internal virtual {... */\n      pop\n      jump\t// out\n        /* \"@openzeppelin/contracts/utils/ReentrancyGuard.sol\":3586:3743  function _nonReentrantBeforeView() private view {... */\n    tag_358:\n      0x00\n      dup1\n      mload\n      0x20\n      data_c8669cf8eaf883002b9f48e28846a8d408c9b58ea6613bace374265e43c9bc43\n      dup4\n      codecopy\n      dup2\n      mload\n      swap2\n      mstore\n        /* \"@openzeppelin/contracts/utils/ReentrancyGuard.sol\":4560:4612  _reentrancyGuardStorageSlot().getUint256Slot().value */\n      sload\n        /* \"@openzeppelin/contracts/utils/ReentrancyGuard.sol\":2407:2408  2 */\n      0x02\n        /* \"@openzeppelin/contracts/utils/ReentrancyGuard.sol\":4560:4623  _reentrancyGuardStorageSlot().getUint256Slot().value == ENTERED */\n      sub\n        /* \"@openzeppelin/contracts/utils/ReentrancyGuard.sol\":3644:3737  if (_reentrancyGuardEntered()) {... */\n      tag_222\n      jumpi\n        /* \"@openzeppelin/contracts/utils/ReentrancyGuard.sol\":3696:3726  ReentrancyGuardReentrantCall() */\n      mload(0x40)\n      shl(0xe0, 0x3ee5aeb5)\n      dup2\n      mstore\n      0x04\n      add\n      mload(0x40)\n      dup1\n      swap2\n      sub\n      swap1\n      revert\n        /* \"#utility.yul\":14:141   */\n    tag_377:\n        /* \"#utility.yul\":75:85   */\n      0x4e487b71\n        /* \"#utility.yul\":70:73   */\n      0xe0\n        /* \"#utility.yul\":66:86   */\n      shl\n        /* \"#utility.yul\":63:64   */\n      0x00\n        /* \"#utility.yul\":56:87   */\n      mstore\n        /* \"#utility.yul\":106:110   */\n      0x11\n        /* \"#utility.yul\":103:104   */\n      0x04\n        /* \"#utility.yul\":96:111   */\n      mstore\n        /* \"#utility.yul\":130:134   */\n      0x24\n        /* \"#utility.yul\":127:128   */\n      0x00\n        /* \"#utility.yul\":120:135   */\n      revert\n        /* \"#utility.yul\":146:271   */\n    tag_42:\n        /* \"#utility.yul\":211:220   */\n      dup1\n      dup3\n      add\n        /* \"#utility.yul\":232:242   */\n      dup1\n      dup3\n      gt\n        /* \"#utility.yul\":229:265   */\n      iszero\n      tag_384\n      jumpi\n        /* \"#utility.yul\":245:263   */\n      tag_384\n      tag_377\n      jump\t// in\n    tag_384:\n        /* \"#utility.yul\":146:271   */\n      swap3\n      swap2\n      pop\n      pop\n      jump\t// out\n        /* \"#utility.yul\":686:817   */\n    tag_378:\n      sub(shl(0xa0, 0x01), 0x01)\n        /* \"#utility.yul\":761:792   */\n      dup2\n      and\n        /* \"#utility.yul\":751:793   */\n      dup2\n      eq\n        /* \"#utility.yul\":741:811   */\n      tag_338\n      jumpi\n        /* \"#utility.yul\":807:808   */\n      0x00\n        /* \"#utility.yul\":804:805   */\n      dup1\n        /* \"#utility.yul\":797:809   */\n      revert\n        /* \"#utility.yul\":822:1069   */\n    tag_53:\n        /* \"#utility.yul\":881:887   */\n      0x00\n        /* \"#utility.yul\":934:936   */\n      0x20\n        /* \"#utility.yul\":922:931   */\n      dup3\n        /* \"#utility.yul\":913:920   */\n      dup5\n        /* \"#utility.yul\":909:932   */\n      sub\n        /* \"#utility.yul\":905:937   */\n      slt\n        /* \"#utility.yul\":902:954   */\n      iszero\n      tag_390\n      jumpi\n        /* \"#utility.yul\":950:951   */\n      0x00\n        /* \"#utility.yul\":947:948   */\n      dup1\n        /* \"#utility.yul\":940:952   */\n      revert\n        /* \"#utility.yul\":902:954   */\n    tag_390:\n        /* \"#utility.yul\":989:998   */\n      dup2\n        /* \"#utility.yul\":976:999   */\n      calldataload\n        /* \"#utility.yul\":1008:1039   */\n      tag_391\n        /* \"#utility.yul\":1033:1038   */\n      dup2\n        /* \"#utility.yul\":1008:1039   */\n      tag_378\n      jump\t// in\n    tag_391:\n        /* \"#utility.yul\":1058:1063   */\n      swap4\n        /* \"#utility.yul\":822:1069   */\n      swap3\n      pop\n      pop\n      pop\n      jump\t// out\n        /* \"#utility.yul\":1474:1789   */\n    tag_69:\n        /* \"#utility.yul\":1542:1548   */\n      0x00\n        /* \"#utility.yul\":1550:1556   */\n      dup1\n        /* \"#utility.yul\":1603:1605   */\n      0x40\n        /* \"#utility.yul\":1591:1600   */\n      dup4\n        /* \"#utility.yul\":1582:1589   */\n      dup6\n        /* \"#utility.yul\":1578:1601   */\n      sub\n        /* \"#utility.yul\":1574:1606   */\n      slt\n        /* \"#utility.yul\":1571:1623   */\n      iszero\n      tag_395\n      jumpi\n        /* \"#utility.yul\":1619:1620   */\n      0x00\n        /* \"#utility.yul\":1616:1617   */\n      dup1\n        /* \"#utility.yul\":1609:1621   */\n      revert\n        /* \"#utility.yul\":1571:1623   */\n    tag_395:\n        /* \"#utility.yul\":1658:1667   */\n      dup3\n        /* \"#utility.yul\":1645:1668   */\n      calldataload\n        /* \"#utility.yul\":1677:1708   */\n      tag_396\n        /* \"#utility.yul\":1702:1707   */\n      dup2\n        /* \"#utility.yul\":1677:1708   */\n      tag_378\n      jump\t// in\n    tag_396:\n        /* \"#utility.yul\":1727:1732   */\n      swap5\n        /* \"#utility.yul\":1779:1781   */\n      0x20\n        /* \"#utility.yul\":1764:1782   */\n      swap4\n      swap1\n      swap4\n      add\n        /* \"#utility.yul\":1751:1783   */\n      calldataload\n      swap4\n      pop\n      pop\n      pop\n        /* \"#utility.yul\":1474:1789   */\n      jump\t// out\n        /* \"#utility.yul\":1794:2042   */\n    tag_74:\n        /* \"#utility.yul\":1862:1868   */\n      0x00\n        /* \"#utility.yul\":1870:1876   */\n      dup1\n        /* \"#utility.yul\":1923:1925   */\n      0x40\n        /* \"#utility.yul\":1911:1920   */\n      dup4\n        /* \"#utility.yul\":1902:1909   */\n      dup6\n        /* \"#utility.yul\":1898:1921   */\n      sub\n        /* \"#utility.yul\":1894:1926   */\n      slt\n        /* \"#utility.yul\":1891:1943   */\n      iszero\n      tag_398\n      jumpi\n        /* \"#utility.yul\":1939:1940   */\n      0x00\n        /* \"#utility.yul\":1936:1937   */\n      dup1\n        /* \"#utility.yul\":1929:1941   */\n      revert\n        /* \"#utility.yul\":1891:1943   */\n    tag_398:\n      pop\n      pop\n        /* \"#utility.yul\":1962:1985   */\n      dup1\n      calldataload\n      swap3\n        /* \"#utility.yul\":2032:2034   */\n      0x20\n        /* \"#utility.yul\":2017:2035   */\n      swap1\n      swap2\n      add\n        /* \"#utility.yul\":2004:2036   */\n      calldataload\n      swap2\n      pop\n        /* \"#utility.yul\":1794:2042   */\n      jump\t// out\n        /* \"#utility.yul\":2047:2227   */\n    tag_102:\n        /* \"#utility.yul\":2106:2112   */\n      0x00\n        /* \"#utility.yul\":2159:2161   */\n      0x20\n        /* \"#utility.yul\":2147:2156   */\n      dup3\n        /* \"#utility.yul\":2138:2145   */\n      dup5\n        /* \"#utility.yul\":2134:2157   */\n      sub\n        /* \"#utility.yul\":2130:2162   */\n      slt\n        /* \"#utility.yul\":2127:2179   */\n      iszero\n      tag_400\n      jumpi\n        /* \"#utility.yul\":2175:2176   */\n      0x00\n        /* \"#utility.yul\":2172:2173   */\n      dup1\n        /* \"#utility.yul\":2165:2177   */\n      revert\n        /* \"#utility.yul\":2127:2179   */\n    tag_400:\n      pop\n        /* \"#utility.yul\":2198:2221   */\n      calldataload\n      swap2\n        /* \"#utility.yul\":2047:2227   */\n      swap1\n      pop\n      jump\t// out\n        /* \"#utility.yul\":2232:2648   */\n    tag_135:\n        /* \"#utility.yul\":2297:2303   */\n      0x00\n        /* \"#utility.yul\":2305:2311   */\n      dup1\n        /* \"#utility.yul\":2358:2360   */\n      0x40\n        /* \"#utility.yul\":2346:2355   */\n      dup4\n        /* \"#utility.yul\":2337:2344   */\n      dup6\n        /* \"#utility.yul\":2333:2356   */\n      sub\n        /* \"#utility.yul\":2329:2361   */\n      slt\n        /* \"#utility.yul\":2326:2378   */\n      iszero\n      tag_402\n      jumpi\n        /* \"#utility.yul\":2374:2375   */\n      0x00\n        /* \"#utility.yul\":2371:2372   */\n      dup1\n        /* \"#utility.yul\":2364:2376   */\n      revert\n        /* \"#utility.yul\":2326:2378   */\n    tag_402:\n        /* \"#utility.yul\":2413:2422   */\n      dup3\n        /* \"#utility.yul\":2400:2423   */\n      calldataload\n        /* \"#utility.yul\":2432:2463   */\n      tag_403\n        /* \"#utility.yul\":2457:2462   */\n      dup2\n        /* \"#utility.yul\":2432:2463   */\n      tag_378\n      jump\t// in\n    tag_403:\n        /* \"#utility.yul\":2482:2487   */\n      swap2\n      pop\n        /* \"#utility.yul\":2539:2541   */\n      0x20\n        /* \"#utility.yul\":2524:2542   */\n      dup4\n      add\n        /* \"#utility.yul\":2511:2543   */\n      calldataload\n        /* \"#utility.yul\":2581:2596   */\n      dup1\n      iszero\n        /* \"#utility.yul\":2574:2597   */\n      iszero\n        /* \"#utility.yul\":2562:2598   */\n      dup2\n      eq\n        /* \"#utility.yul\":2552:2616   */\n      tag_404\n      jumpi\n        /* \"#utility.yul\":2612:2613   */\n      0x00\n        /* \"#utility.yul\":2609:2610   */\n      dup1\n        /* \"#utility.yul\":2602:2614   */\n      revert\n        /* \"#utility.yul\":2552:2616   */\n    tag_404:\n        /* \"#utility.yul\":2635:2642   */\n      dup1\n        /* \"#utility.yul\":2625:2642   */\n      swap2\n      pop\n      pop\n        /* \"#utility.yul\":2232:2648   */\n      swap3\n      pop\n      swap3\n      swap1\n      pop\n      jump\t// out\n        /* \"#utility.yul\":3512:3696   */\n    tag_201:\n        /* \"#utility.yul\":3582:3588   */\n      0x00\n        /* \"#utility.yul\":3635:3637   */\n      0x20\n        /* \"#utility.yul\":3623:3632   */\n      dup3\n        /* \"#utility.yul\":3614:3621   */\n      dup5\n        /* \"#utility.yul\":3610:3633   */\n      sub\n        /* \"#utility.yul\":3606:3638   */\n      slt\n        /* \"#utility.yul\":3603:3655   */\n      iszero\n      tag_409\n      jumpi\n        /* \"#utility.yul\":3651:3652   */\n      0x00\n        /* \"#utility.yul\":3648:3649   */\n      dup1\n        /* \"#utility.yul\":3641:3653   */\n      revert\n        /* \"#utility.yul\":3603:3655   */\n    tag_409:\n      pop\n        /* \"#utility.yul\":3674:3690   */\n      mload\n      swap2\n        /* \"#utility.yul\":3512:3696   */\n      swap1\n      pop\n      jump\t// out\n        /* \"#utility.yul\":3980:4168   */\n    tag_379:\n        /* \"#utility.yul\":4059:4072   */\n      dup1\n      mload\n      sub(shl(0x70, 0x01), 0x01)\n        /* \"#utility.yul\":4101:4143   */\n      dup2\n      and\n        /* \"#utility.yul\":4091:4144   */\n      dup2\n      eq\n        /* \"#utility.yul\":4081:4162   */\n      tag_412\n      jumpi\n        /* \"#utility.yul\":4158:4159   */\n      0x00\n        /* \"#utility.yul\":4155:4156   */\n      dup1\n        /* \"#utility.yul\":4148:4160   */\n      revert\n        /* \"#utility.yul\":4081:4162   */\n    tag_412:\n        /* \"#utility.yul\":3980:4168   */\n      swap2\n      swap1\n      pop\n      jump\t// out\n        /* \"#utility.yul\":4173:4623   */\n    tag_241:\n        /* \"#utility.yul\":4260:4266   */\n      0x00\n        /* \"#utility.yul\":4268:4274   */\n      dup1\n        /* \"#utility.yul\":4276:4282   */\n      0x00\n        /* \"#utility.yul\":4329:4331   */\n      0x60\n        /* \"#utility.yul\":4317:4326   */\n      dup5\n        /* \"#utility.yul\":4308:4315   */\n      dup7\n        /* \"#utility.yul\":4304:4327   */\n      sub\n        /* \"#utility.yul\":4300:4332   */\n      slt\n        /* \"#utility.yul\":4297:4349   */\n      iszero\n      tag_414\n      jumpi\n        /* \"#utility.yul\":4345:4346   */\n      0x00\n        /* \"#utility.yul\":4342:4343   */\n      dup1\n        /* \"#utility.yul\":4335:4347   */\n      revert\n        /* \"#utility.yul\":4297:4349   */\n    tag_414:\n        /* \"#utility.yul\":4368:4408   */\n      tag_415\n        /* \"#utility.yul\":4398:4407   */\n      dup5\n        /* \"#utility.yul\":4368:4408   */\n      tag_379\n      jump\t// in\n    tag_415:\n        /* \"#utility.yul\":4358:4408   */\n      swap3\n      pop\n        /* \"#utility.yul\":4427:4476   */\n      tag_416\n        /* \"#utility.yul\":4472:4474   */\n      0x20\n        /* \"#utility.yul\":4461:4470   */\n      dup6\n        /* \"#utility.yul\":4457:4475   */\n      add\n        /* \"#utility.yul\":4427:4476   */\n      tag_379\n      jump\t// in\n    tag_416:\n        /* \"#utility.yul\":4417:4476   */\n      swap2\n      pop\n        /* \"#utility.yul\":4519:4521   */\n      0x40\n        /* \"#utility.yul\":4508:4517   */\n      dup5\n        /* \"#utility.yul\":4504:4522   */\n      add\n        /* \"#utility.yul\":4498:4523   */\n      mload\n        /* \"#utility.yul\":4563:4573   */\n      0xffffffff\n        /* \"#utility.yul\":4556:4561   */\n      dup2\n        /* \"#utility.yul\":4552:4574   */\n      and\n        /* \"#utility.yul\":4545:4550   */\n      dup2\n        /* \"#utility.yul\":4542:4575   */\n      eq\n        /* \"#utility.yul\":4532:4593   */\n      tag_417\n      jumpi\n        /* \"#utility.yul\":4589:4590   */\n      0x00\n        /* \"#utility.yul\":4586:4587   */\n      dup1\n        /* \"#utility.yul\":4579:4591   */\n      revert\n        /* \"#utility.yul\":4532:4593   */\n    tag_417:\n        /* \"#utility.yul\":4612:4617   */\n      dup1\n        /* \"#utility.yul\":4602:4617   */\n      swap2\n      pop\n      pop\n        /* \"#utility.yul\":4173:4623   */\n      swap3\n      pop\n      swap3\n      pop\n      swap3\n      jump\t// out\n        /* \"#utility.yul\":4628:4879   */\n    tag_245:\n        /* \"#utility.yul\":4698:4704   */\n      0x00\n        /* \"#utility.yul\":4751:4753   */\n      0x20\n        /* \"#utility.yul\":4739:4748   */\n      dup3\n        /* \"#utility.yul\":4730:4737   */\n      dup5\n        /* \"#utility.yul\":4726:4749   */\n      sub\n        /* \"#utility.yul\":4722:4754   */\n      slt\n        /* \"#utility.yul\":4719:4771   */\n      iszero\n      tag_419\n      jumpi\n        /* \"#utility.yul\":4767:4768   */\n      0x00\n        /* \"#utility.yul\":4764:4765   */\n      dup1\n        /* \"#utility.yul\":4757:4769   */\n      revert\n        /* \"#utility.yul\":4719:4771   */\n    tag_419:\n        /* \"#utility.yul\":4799:4808   */\n      dup2\n        /* \"#utility.yul\":4793:4809   */\n      mload\n        /* \"#utility.yul\":4818:4849   */\n      tag_391\n        /* \"#utility.yul\":4843:4848   */\n      dup2\n        /* \"#utility.yul\":4818:4849   */\n      tag_378\n      jump\t// in\n        /* \"#utility.yul\":4884:5052   */\n    tag_249:\n        /* \"#utility.yul\":4957:4966   */\n      dup1\n      dup3\n      mul\n        /* \"#utility.yul\":4988:4997   */\n      dup2\n      iszero\n        /* \"#utility.yul\":5005:5020   */\n      dup3\n      dup3\n      div\n        /* \"#utility.yul\":4999:5021   */\n      dup5\n      eq\n        /* \"#utility.yul\":4985:5022   */\n      or\n        /* \"#utility.yul\":4975:5046   */\n      tag_384\n      jumpi\n        /* \"#utility.yul\":5026:5044   */\n      tag_384\n      tag_377\n      jump\t// in\n        /* \"#utility.yul\":5057:5274   */\n    tag_254:\n        /* \"#utility.yul\":5097:5098   */\n      0x00\n        /* \"#utility.yul\":5123:5124   */\n      dup3\n        /* \"#utility.yul\":5113:5245   */\n      tag_425\n      jumpi\n        /* \"#utility.yul\":5167:5177   */\n      0x4e487b71\n        /* \"#utility.yul\":5162:5165   */\n      0xe0\n        /* \"#utility.yul\":5158:5178   */\n      shl\n        /* \"#utility.yul\":5155:5156   */\n      0x00\n        /* \"#utility.yul\":5148:5179   */\n      mstore\n        /* \"#utility.yul\":5202:5206   */\n      0x12\n        /* \"#utility.yul\":5199:5200   */\n      0x04\n        /* \"#utility.yul\":5192:5207   */\n      mstore\n        /* \"#utility.yul\":5230:5234   */\n      0x24\n        /* \"#utility.yul\":5227:5228   */\n      0x00\n        /* \"#utility.yul\":5220:5235   */\n      revert\n        /* \"#utility.yul\":5113:5245   */\n    tag_425:\n      pop\n        /* \"#utility.yul\":5259:5268   */\n      div\n      swap1\n        /* \"#utility.yul\":5057:5274   */\n      jump\t// out\n        /* \"#utility.yul\":5995:6123   */\n    tag_283:\n        /* \"#utility.yul\":6062:6071   */\n      dup2\n      dup2\n      sub\n        /* \"#utility.yul\":6083:6094   */\n      dup2\n      dup2\n      gt\n        /* \"#utility.yul\":6080:6117   */\n      iszero\n      tag_384\n      jumpi\n        /* \"#utility.yul\":6097:6115   */\n      tag_384\n      tag_377\n      jump\t// in\n    stop\n    data_c8669cf8eaf883002b9f48e28846a8d408c9b58ea6613bace374265e43c9bc43 9b779b17422d0df92223018b32b4d1fa46e071723d6817e2486d003becc55f00\n\n    auxdata: 0xa2646970667358221220cf71afde8d757beabdf2ab967a329d9fddd393c82c10bfee713d05b9e41c20e364736f6c63430008140033\n}\n",
				"bytecode": {
					"linkReferences": {},
					"object": "60a06040523480156200001157600080fd5b5060405162001a9f38038062001a9f833981016040819052620000349162000192565b33806200005b57604051631e4fbdf760e01b81526000600482015260240160405180910390fd5b620000668162000125565b5060017f9b779b17422d0df92223018b32b4d1fa46e071723d6817e2486d003becc55f00556001600160a01b038416620000b35760405163d92e233d60e01b815260040160405180910390fd5b6001600160a01b03938416608052600180549385166001600160a01b031994851617815560028054938616938516939093179092556003805491909416921691909117909155603260045562278d00600555336000908152600660205260409020805460ff19169091179055620001ef565b600080546001600160a01b038381166001600160a01b0319831681178455604051919092169283917f8be0079c531659141344cd1fd0a4f28419497f9722a3daafe3b4186f6b6457e09190a35050565b80516001600160a01b03811681146200018d57600080fd5b919050565b60008060008060808587031215620001a957600080fd5b620001b48562000175565b9350620001c46020860162000175565b9250620001d46040860162000175565b9150620001e46060860162000175565b905092959194509250565b6080516118636200023c6000396000818161022c015281816107fe015281816108bd01528181610c1101528181610e5a01528181610f420152818161100601526112d701526118636000f3fe6080604052600436106101bb5760003560e01c80638bdcf669116100ec578063b9e4355a1161008a578063e90900af11610064578063e90900af1461053b578063eb16402614610551578063f2fde38b14610571578063f60bb7201461059157600080fd5b8063b9e4355a146104cd578063c59d4847146104ed578063d61b44971461052657600080fd5b806397975c75116100c657806397975c75146104575780639fbaf3de146104775780639fe65f191461048d578063ad8944da146104ad57600080fd5b80638bdcf6691461040d5780638da5cb5b14610423578063926b71891461044157600080fd5b80633c3fc552116101595780635f303f1c116101335780635f303f1c14610398578063715018a6146103b857806385654e9a146103cd57806386507218146103ed57600080fd5b80633c3fc5521461034b5780634e6630b01461036f5780635a778c0f1461038257600080fd5b806323f49b921161019557806323f49b92146102cb5780632cb97183146102eb578063330ac98d1461030b57806334e908a71461032b57600080fd5b80630e31648f1461021a578063175ed4ba1461026b5780631a3b8e8c146102ab57600080fd5b366102155734156102135734600760008282546101d89190611628565b909155505060405134815233907f2ccfc58c2cef4ee590b5f16be0548cc54afc12e1c66a67b362b7d640fd16bb2d9060200160405180910390a25b005b600080fd5b34801561022657600080fd5b5061024e7f000000000000000000000000000000000000000000000000000000000000000081565b6040516001600160a01b0390911681526020015b60405180910390f35b34801561027757600080fd5b5061029b610286366004611656565b60066020526000908152604090205460ff1681565b6040519015158152602001610262565b3480156102b757600080fd5b5060025461024e906001600160a01b031681565b3480156102d757600080fd5b506102136102e6366004611656565b610599565b3480156102f757600080fd5b5061021361030636600461167a565b610612565b34801561031757600080fd5b506102136103263660046116a6565b61076b565b34801561033757600080fd5b5060015461024e906001600160a01b031681565b34801561035757600080fd5b50610361600a5481565b604051908152602001610262565b34801561037b57600080fd5b5047610361565b34801561038e57600080fd5b5061036160045481565b3480156103a457600080fd5b506102136103b3366004611656565b6109d2565b3480156103c457600080fd5b50610213610a4b565b3480156103d957600080fd5b506102136103e83660046116c8565b610a5f565b3480156103f957600080fd5b5060035461024e906001600160a01b031681565b34801561041957600080fd5b5061036160085481565b34801561042f57600080fd5b506000546001600160a01b031661024e565b34801561044d57600080fd5b5061036160055481565b34801561046357600080fd5b506102136104723660046116a6565b610a8d565b34801561048357600080fd5b5061036160075481565b34801561049957600080fd5b506102136104a8366004611656565b611150565b3480156104b957600080fd5b506102136104c83660046116e1565b6111c9565b3480156104d957600080fd5b506102136104e83660046116c8565b611257565b3480156104f957600080fd5b50600754600854600954600a54604080519485526020850193909352918301526060820152608001610262565b34801561053257600080fd5b506103616112bf565b34801561054757600080fd5b5061036160095481565b34801561055d57600080fd5b5061021361056c3660046116c8565b61134f565b34801561057d57600080fd5b5061021361058c366004611656565b61149f565b6102136114da565b6105a1611549565b6001600160a01b0381166105c85760405163d92e233d60e01b815260040160405180910390fd5b600380546001600160a01b0319166001600160a01b0383169081179091556040517fc4a4ea6abc08bd7f8df3db8a1c998f19b3e0c348176f93732cd54db1a4b5013690600090a250565b61061a611576565b610622611549565b6001600160a01b0382166106495760405163d92e233d60e01b815260040160405180910390fd5b8060000361066a57604051631f2a200560e01b815260040160405180910390fd5b478111156106985760405162fdf57560e51b8152600481018290524760248201526044015b60405180910390fd5b6000826001600160a01b03168260405160006040518083038185875af1925050503d80600081146106e5576040519150601f19603f3d011682016040523d82523d6000602084013e6106ea565b606091505b505090508061070c576040516312171d8360e31b815260040160405180910390fd5b826001600160a01b03167f6e67adc6f62cbac95e14fce70ecc9eaf0b0c4093237158f9a4e84fadb06dfe4c8360405161074791815260200190565b60405180910390a250610767600160008051602061180e83398151915255565b5050565b610773611576565b61077b611549565b8160000361079c57604051631f2a200560e01b815260040160405180910390fd5b806000036107bd57604051631f2a200560e01b815260040160405180910390fd5b6001546001600160a01b03166107e65760405163d92e233d60e01b815260040160405180910390fd5b6040516370a0823160e01b81523060048201526000907f00000000000000000000000000000000000000000000000000000000000000006001600160a01b0316906370a0823190602401602060405180830381865afa15801561084d573d6000803e3d6000fd5b505050506040513d601f19601f82011682018060405250810190610871919061171f565b90508083111561089457604051631f2a200560e01b815260040160405180910390fd5b60015460405163423f6cef60e01b81526001600160a01b039182166004820152602481018590527f00000000000000000000000000000000000000000000000000000000000000009091169063423f6cef90604401600060405180830381600087803b15801561090357600080fd5b505af1158015610917573d6000803e3d6000fd5b505060015460405163246132f960e01b815260048101879052602481018690526001600160a01b03909116925063246132f99150604401600060405180830381600087803b15801561096857600080fd5b505af115801561097c573d6000803e3d6000fd5b505060408051868152602081018690527f8b7aaffe68a47637f66b06784a531963146073858c3a5ef41fc98bc456d7b64a935001905060405180910390a150610767600160008051602061180e83398151915255565b6109da611549565b6001600160a01b038116610a015760405163d92e233d60e01b815260040160405180910390fd5b600280546001600160a01b0319166001600160a01b0383169081179091556040517f1176bb0c626865dd5bb6009a83ff7a7f968d1759188ec01b8befb5bbde338aa090600090a250565b610a53611549565b610a5d6000611592565b565b610a67611549565b80600003610a8857604051631f2a200560e01b815260040160405180910390fd5b600555565b610a95611576565b610a9d611549565b81600003610abe57604051631f2a200560e01b815260040160405180910390fd5b47821115610ae75760405162fdf57560e51b81526004810183905247602482015260440161068f565b6003546001600160a01b0316610b105760405163d92e233d60e01b815260040160405180910390fd5b600080600360009054906101000a90046001600160a01b03166001600160a01b0316630902f1ac6040518163ffffffff1660e01b8152600401606060405180830381865afa158015610b66573d6000803e3d6000fd5b505050506040513d601f19601f82011682018060405250810190610b8a9190611754565b50915091506000600360009054906101000a90046001600160a01b03166001600160a01b0316630dfe16816040518163ffffffff1660e01b8152600401602060405180830381865afa158015610be4573d6000803e3d6000fd5b505050506040513d601f19601f82011682018060405250810190610c0891906117a4565b905060008060007f00000000000000000000000000000000000000000000000000000000000000006001600160a01b0316846001600160a01b03161490508015610c6957846001600160701b03169250856001600160701b03169150610c82565b856001600160701b03169250846001600160701b031691505b6000610c90896103e56117c1565b9050600081610ca1866103e86117c1565b610cab9190611628565b610cb585846117c1565b610cbf91906117d8565b905088811015610cec576040516371c4efed60e01b815260048101829052602481018a905260440161068f565b6003546040516000916001600160a01b0316908c908381818185875af1925050503d8060008114610d39576040519150601f19603f3d011682016040523d82523d6000602084013e610d3e565b606091505b5050905080610d6057604051637f23919560e01b815260040160405180910390fd5b8315610dd6576003546040516336cd320560e11b815260048101849052600060248201523060448201526001600160a01b0390911690636d9a640a90606401600060405180830381600087803b158015610db957600080fd5b505af1158015610dcd573d6000803e3d6000fd5b50505050610e42565b6003546040516336cd320560e11b815260006004820152602481018490523060448201526001600160a01b0390911690636d9a640a90606401600060405180830381600087803b158015610e2957600080fd5b505af1158015610e3d573d6000803e3d6000fd5b505050505b6040516370a0823160e01b81523060048201526000907f00000000000000000000000000000000000000000000000000000000000000006001600160a01b0316906370a0823190602401602060405180830381865afa158015610ea9573d6000803e3d6000fd5b505050506040513d601f19601f82011682018060405250810190610ecd919061171f565b90508a811015610efa576040516371c4efed60e01b815260048101829052602481018c905260440161068f565b6000606460045483610f0c91906117c1565b610f1691906117d8565b90506000610f2482846117fa565b90508115610fbe57604051630852cd8d60e31b8152600481018390527f00000000000000000000000000000000000000000000000000000000000000006001600160a01b0316906342966c6890602401600060405180830381600087803b158015610f8e57600080fd5b505af1158015610fa2573d6000803e3d6000fd5b505050508160086000828254610fb89190611628565b90915550505b600081118015610fd857506001546001600160a01b031615155b156110e55760015460405163423f6cef60e01b81526001600160a01b039182166004820152602481018390527f00000000000000000000000000000000000000000000000000000000000000009091169063423f6cef90604401600060405180830381600087803b15801561104c57600080fd5b505af1158015611060573d6000803e3d6000fd5b505060015460055460405163246132f960e01b81526004810186905260248101919091526001600160a01b03909116925063246132f99150604401600060405180830381600087803b1580156110b557600080fd5b505af11580156110c9573d6000803e3d6000fd5b5050505080600960008282546110df9190611628565b90915550505b604080518f815260208101859052908101839052606081018290527f42659a4aa613c1e350c764f0ff2be36a175ac2a1e4b77b8e1467d1fed32becc89060800160405180910390a1505050505050505050505050610767600160008051602061180e83398151915255565b611158611549565b6001600160a01b03811661117f5760405163d92e233d60e01b815260040160405180910390fd5b600180546001600160a01b0319166001600160a01b0383169081179091556040517ff520447191196b125f76f7110397fdf32b1b9cefb7dec323bd3b998022ac233890600090a250565b6111d1611549565b6001600160a01b0382166111f85760405163d92e233d60e01b815260040160405180910390fd5b6001600160a01b038216600081815260066020908152604091829020805460ff191685151590811790915591519182527fbac4a6ee215c0287f7da3a73c4fa957dde930dc8190bba3f30d0104ae15ca9fd910160405180910390a25050565b61125f611549565b60648111156112845760405163046a85ef60e31b81526004810182905260240161068f565b60048190556040518181527fe85d9362d5330e5046ba20d38140f318950327f15b22123dae77dfff2f1dde719060200160405180910390a150565b6040516370a0823160e01b81523060048201526000907f00000000000000000000000000000000000000000000000000000000000000006001600160a01b0316906370a0823190602401602060405180830381865afa158015611326573d6000803e3d6000fd5b505050506040513d601f19601f8201168201806040525081019061134a919061171f565b905090565b611357611576565b61135f611549565b8060000361138057604051631f2a200560e01b815260040160405180910390fd5b6002546001600160a01b03166113a95760405163d92e233d60e01b815260040160405180910390fd5b478111156113d25760405162fdf57560e51b81526004810182905247602482015260440161068f565b600260009054906101000a90046001600160a01b03166001600160a01b031663d0e30db0826040518263ffffffff1660e01b81526004016000604051808303818588803b15801561142257600080fd5b505af1158015611436573d6000803e3d6000fd5b505050505080600a600082825461144d9190611628565b90915550506040518181527f065da79752e89c0debd87a1c71ae1d472add974dc19b2fc258f88b5598fcfa769060200160405180910390a161149c600160008051602061180e83398151915255565b50565b6114a7611549565b6001600160a01b0381166114d157604051631e4fbdf760e01b81526000600482015260240161068f565b61149c81611592565b346000036114fb57604051631f2a200560e01b815260040160405180910390fd5b346007600082825461150d9190611628565b909155505060405134815233907f2ccfc58c2cef4ee590b5f16be0548cc54afc12e1c66a67b362b7d640fd16bb2d9060200160405180910390a2565b6000546001600160a01b03163314610a5d5760405163118cdaa760e01b815233600482015260240161068f565b61157e6115e2565b600260008051602061180e83398151915255565b600080546001600160a01b038381166001600160a01b0319831681178455604051919092169283917f8be0079c531659141344cd1fd0a4f28419497f9722a3daafe3b4186f6b6457e09190a35050565b60008051602061180e83398151915254600203610a5d57604051633ee5aeb560e01b815260040160405180910390fd5b634e487b7160e01b600052601160045260246000fd5b8082018082111561163b5761163b611612565b92915050565b6001600160a01b038116811461149c57600080fd5b60006020828403121561166857600080fd5b813561167381611641565b9392505050565b6000806040838503121561168d57600080fd5b823561169881611641565b946020939093013593505050565b600080604083850312156116b957600080fd5b50508035926020909101359150565b6000602082840312156116da57600080fd5b5035919050565b600080604083850312156116f457600080fd5b82356116ff81611641565b91506020830135801515811461171457600080fd5b809150509250929050565b60006020828403121561173157600080fd5b5051919050565b80516001600160701b038116811461174f57600080fd5b919050565b60008060006060848603121561176957600080fd5b61177284611738565b925061178060208501611738565b9150604084015163ffffffff8116811461179957600080fd5b809150509250925092565b6000602082840312156117b657600080fd5b815161167381611641565b808202811582820484141761163b5761163b611612565b6000826117f557634e487b7160e01b600052601260045260246000fd5b500490565b8181038181111561163b5761163b61161256fe9b779b17422d0df92223018b32b4d1fa46e071723d6817e2486d003becc55f00a2646970667358221220cf71afde8d757beabdf2ab967a329d9fddd393c82c10bfee713d05b9e41c20e364736f6c63430008140033",
					"opcodes": "PUSH1 0xA0 PUSH1 0x40 MSTORE CALLVALUE DUP1 ISZERO PUSH3 0x11 JUMPI PUSH1 0x0 DUP1 REVERT JUMPDEST POP PUSH1 0x40 MLOAD PUSH3 0x1A9F CODESIZE SUB DUP1 PUSH3 0x1A9F DUP4 CODECOPY DUP2 ADD PUSH1 0x40 DUP2 SWAP1 MSTORE PUSH3 0x34 SWAP2 PUSH3 0x192 JUMP JUMPDEST CALLER DUP1 PUSH3 0x5B JUMPI PUSH1 0x40 MLOAD PUSH4 0x1E4FBDF7 PUSH1 0xE0 SHL DUP2 MSTORE PUSH1 0x0 PUSH1 0x4 DUP3 ADD MSTORE PUSH1 0x24 ADD PUSH1 0x40 MLOAD DUP1 SWAP2 SUB SWAP1 REVERT JUMPDEST PUSH3 0x66 DUP2 PUSH3 0x125 JUMP JUMPDEST POP PUSH1 0x1 PUSH32 0x9B779B17422D0DF92223018B32B4D1FA46E071723D6817E2486D003BECC55F00 SSTORE PUSH1 0x1 PUSH1 0x1 PUSH1 0xA0 SHL SUB DUP5 AND PUSH3 0xB3 JUMPI PUSH1 0x40 MLOAD PUSH4 0xD92E233D PUSH1 0xE0 SHL DUP2 MSTORE PUSH1 0x4 ADD PUSH1 0x40 MLOAD DUP1 SWAP2 SUB SWAP1 REVERT JUMPDEST PUSH1 0x1 PUSH1 0x1 PUSH1 0xA0 SHL SUB SWAP4 DUP5 AND PUSH1 0x80 MSTORE PUSH1 0x1 DUP1 SLOAD SWAP4 DUP6 AND PUSH1 0x1 PUSH1 0x1 PUSH1 0xA0 SHL SUB NOT SWAP5 DUP6 AND OR DUP2 SSTORE PUSH1 0x2 DUP1 SLOAD SWAP4 DUP7 AND SWAP4 DUP6 AND SWAP4 SWAP1 SWAP4 OR SWAP1 SWAP3 SSTORE PUSH1 0x3 DUP1 SLOAD SWAP2 SWAP1 SWAP5 AND SWAP3 AND SWAP2 SWAP1 SWAP2 OR SWAP1 SWAP2 SSTORE PUSH1 0x32 PUSH1 0x4 SSTORE PUSH3 0x278D00 PUSH1 0x5 SSTORE CALLER PUSH1 0x0 SWAP1 DUP2 MSTORE PUSH1 0x6 PUSH1 0x20 MSTORE PUSH1 0x40 SWAP1 KECCAK256 DUP1 SLOAD PUSH1 0xFF NOT AND SWAP1 SWAP2 OR SWAP1 SSTORE PUSH3 0x1EF JUMP JUMPDEST PUSH1 0x0 DUP1 SLOAD PUSH1 0x1 PUSH1 0x1 PUSH1 0xA0 SHL SUB DUP4 DUP2 AND PUSH1 0x1 PUSH1 0x1 PUSH1 0xA0 SHL SUB NOT DUP4 AND DUP2 OR DUP5 SSTORE PUSH1 0x40 MLOAD SWAP2 SWAP1 SWAP3 AND SWAP3 DUP4 SWAP2 PUSH32 0x8BE0079C531659141344CD1FD0A4F28419497F9722A3DAAFE3B4186F6B6457E0 SWAP2 SWAP1 LOG3 POP POP JUMP JUMPDEST DUP1 MLOAD PUSH1 0x1 PUSH1 0x1 PUSH1 0xA0 SHL SUB DUP2 AND DUP2 EQ PUSH3 0x18D JUMPI PUSH1 0x0 DUP1 REVERT JUMPDEST SWAP2 SWAP1 POP JUMP JUMPDEST PUSH1 0x0 DUP1 PUSH1 0x0 DUP1 PUSH1 0x80 DUP6 DUP8 SUB SLT ISZERO PUSH3 0x1A9 JUMPI PUSH1 0x0 DUP1 REVERT JUMPDEST PUSH3 0x1B4 DUP6 PUSH3 0x175 JUMP JUMPDEST SWAP4 POP PUSH3 0x1C4 PUSH1 0x20 DUP7 ADD PUSH3 0x175 JUMP JUMPDEST SWAP3 POP PUSH3 0x1D4 PUSH1 0x40 DUP7 ADD PUSH3 0x175 JUMP JUMPDEST SWAP2 POP PUSH3 0x1E4 PUSH1 0x60 DUP7 ADD PUSH3 0x175 JUMP JUMPDEST SWAP1 POP SWAP3 SWAP6 SWAP2 SWAP5 POP SWAP3 POP JUMP JUMPDEST PUSH1 0x80 MLOAD PUSH2 0x1863 PUSH3 0x23C PUSH1 0x0 CODECOPY PUSH1 0x0 DUP2 DUP2 PUSH2 0x22C ADD MSTORE DUP2 DUP2 PUSH2 0x7FE ADD MSTORE DUP2 DUP2 PUSH2 0x8BD ADD MSTORE DUP2 DUP2 PUSH2 0xC11 ADD MSTORE DUP2 DUP2 PUSH2 0xE5A ADD MSTORE DUP2 DUP2 PUSH2 0xF42 ADD MSTORE DUP2 DUP2 PUSH2 0x1006 ADD MSTORE PUSH2 0x12D7 ADD MSTORE PUSH2 0x1863 PUSH1 0x0 RETURN INVALID PUSH1 0x80 PUSH1 0x40 MSTORE PUSH1 0x4 CALLDATASIZE LT PUSH2 0x1BB JUMPI PUSH1 0x0 CALLDATALOAD PUSH1 0xE0 SHR DUP1 PUSH4 0x8BDCF669 GT PUSH2 0xEC JUMPI DUP1 PUSH4 0xB9E4355A GT PUSH2 0x8A JUMPI DUP1 PUSH4 0xE90900AF GT PUSH2 0x64 JUMPI DUP1 PUSH4 0xE90900AF EQ PUSH2 0x53B JUMPI DUP1 PUSH4 0xEB164026 EQ PUSH2 0x551 JUMPI DUP1 PUSH4 0xF2FDE38B EQ PUSH2 0x571 JUMPI DUP1 PUSH4 0xF60BB720 EQ PUSH2 0x591 JUMPI PUSH1 0x0 DUP1 REVERT JUMPDEST DUP1 PUSH4 0xB9E4355A EQ PUSH2 0x4CD JUMPI DUP1 PUSH4 0xC59D4847 EQ PUSH2 0x4ED JUMPI DUP1 PUSH4 0xD61B4497 EQ PUSH2 0x526 JUMPI PUSH1 0x0 DUP1 REVERT JUMPDEST DUP1 PUSH4 0x97975C75 GT PUSH2 0xC6 JUMPI DUP1 PUSH4 0x97975C75 EQ PUSH2 0x457 JUMPI DUP1 PUSH4 0x9FBAF3DE EQ PUSH2 0x477 JUMPI DUP1 PUSH4 0x9FE65F19 EQ PUSH2 0x48D JUMPI DUP1 PUSH4 0xAD8944DA EQ PUSH2 0x4AD JUMPI PUSH1 0x0 DUP1 REVERT JUMPDEST DUP1 PUSH4 0x8BDCF669 EQ PUSH2 0x40D JUMPI DUP1 PUSH4 0x8DA5CB5B EQ PUSH2 0x423 JUMPI DUP1 PUSH4 0x926B7189 EQ PUSH2 0x441 JUMPI PUSH1 0x0 DUP1 REVERT JUMPDEST DUP1 PUSH4 0x3C3FC552 GT PUSH2 0x159 JUMPI DUP1 PUSH4 0x5F303F1C GT PUSH2 0x133 JUMPI DUP1 PUSH4 0x5F303F1C EQ PUSH2 0x398 JUMPI DUP1 PUSH4 0x715018A6 EQ PUSH2 0x3B8 JUMPI DUP1 PUSH4 0x85654E9A EQ PUSH2 0x3CD JUMPI DUP1 PUSH4 0x86507218 EQ PUSH2 0x3ED JUMPI PUSH1 0x0 DUP1 REVERT JUMPDEST DUP1 PUSH4 0x3C3FC552 EQ PUSH2 0x34B JUMPI DUP1 PUSH4 0x4E6630B0 EQ PUSH2 0x36F JUMPI DUP1 PUSH4 0x5A778C0F EQ PUSH2 0x382 JUMPI PUSH1 0x0 DUP1 REVERT JUMPDEST DUP1 PUSH4 0x23F49B92 GT PUSH2 0x195 JUMPI DUP1 PUSH4 0x23F49B92 EQ PUSH2 0x2CB JUMPI DUP1 PUSH4 0x2CB97183 EQ PUSH2 0x2EB JUMPI DUP1 PUSH4 0x330AC98D EQ PUSH2 0x30B JUMPI DUP1 PUSH4 0x34E908A7 EQ PUSH2 0x32B JUMPI PUSH1 0x0 DUP1 REVERT JUMPDEST DUP1 PUSH4 0xE31648F EQ PUSH2 0x21A JUMPI DUP1 PUSH4 0x175ED4BA EQ PUSH2 0x26B JUMPI DUP1 PUSH4 0x1A3B8E8C EQ PUSH2 0x2AB JUMPI PUSH1 0x0 DUP1 REVERT JUMPDEST CALLDATASIZE PUSH2 0x215 JUMPI CALLVALUE ISZERO PUSH2 0x213 JUMPI CALLVALUE PUSH1 0x7 PUSH1 0x0 DUP3 DUP3 SLOAD PUSH2 0x1D8 SWAP2 SWAP1 PUSH2 0x1628 JUMP JUMPDEST SWAP1 SWAP2 SSTORE POP POP PUSH1 0x40 MLOAD CALLVALUE DUP2 MSTORE CALLER SWAP1 PUSH32 0x2CCFC58C2CEF4EE590B5F16BE0548CC54AFC12E1C66A67B362B7D640FD16BB2D SWAP1 PUSH1 0x20 ADD PUSH1 0x40 MLOAD DUP1 SWAP2 SUB SWAP1 LOG2 JUMPDEST STOP JUMPDEST PUSH1 0x0 DUP1 REVERT JUMPDEST CALLVALUE DUP1 ISZERO PUSH2 0x226 JUMPI PUSH1 0x0 DUP1 REVERT JUMPDEST POP PUSH2 0x24E PUSH32 0x0 DUP2 JUMP JUMPDEST PUSH1 0x40 MLOAD PUSH1 0x1 PUSH1 0x1 PUSH1 0xA0 SHL SUB SWAP1 SWAP2 AND DUP2 MSTORE PUSH1 0x20 ADD JUMPDEST PUSH1 0x40 MLOAD DUP1 SWAP2 SUB SWAP1 RETURN JUMPDEST CALLVALUE DUP1 ISZERO PUSH2 0x277 JUMPI PUSH1 0x0 DUP1 REVERT JUMPDEST POP PUSH2 0x29B PUSH2 0x286 CALLDATASIZE PUSH1 0x4 PUSH2 0x1656 JUMP JUMPDEST PUSH1 0x6 PUSH1 0x20 MSTORE PUSH1 0x0 SWAP1 DUP2 MSTORE PUSH1 0x40 SWAP1 KECCAK256 SLOAD PUSH1 0xFF AND DUP2 JUMP JUMPDEST PUSH1 0x40 MLOAD SWAP1 ISZERO ISZERO DUP2 MSTORE PUSH1 0x20 ADD PUSH2 0x262 JUMP JUMPDEST CALLVALUE DUP1 ISZERO PUSH2 0x2B7 JUMPI PUSH1 0x0 DUP1 REVERT JUMPDEST POP PUSH1 0x2 SLOAD PUSH2 0x24E SWAP1 PUSH1 0x1 PUSH1 0x1 PUSH1 0xA0 SHL SUB AND DUP2 JUMP JUMPDEST CALLVALUE DUP1 ISZERO PUSH2 0x2D7 JUMPI PUSH1 0x0 DUP1 REVERT JUMPDEST POP PUSH2 0x213 PUSH2 0x2E6 CALLDATASIZE PUSH1 0x4 PUSH2 0x1656 JUMP JUMPDEST PUSH2 0x599 JUMP JUMPDEST CALLVALUE DUP1 ISZERO PUSH2 0x2F7 JUMPI PUSH1 0x0 DUP1 REVERT JUMPDEST POP PUSH2 0x213 PUSH2 0x306 CALLDATASIZE PUSH1 0x4 PUSH2 0x167A JUMP JUMPDEST PUSH2 0x612 JUMP JUMPDEST CALLVALUE DUP1 ISZERO PUSH2 0x317 JUMPI PUSH1 0x0 DUP1 REVERT JUMPDEST POP PUSH2 0x213 PUSH2 0x326 CALLDATASIZE PUSH1 0x4 PUSH2 0x16A6 JUMP JUMPDEST PUSH2 0x76B JUMP JUMPDEST CALLVALUE DUP1 ISZERO PUSH2 0x337 JUMPI PUSH1 0x0 DUP1 REVERT JUMPDEST POP PUSH1 0x1 SLOAD PUSH2 0x24E SWAP1 PUSH1 0x1 PUSH1 0x1 PUSH1 0xA0 SHL SUB AND DUP2 JUMP JUMPDEST CALLVALUE DUP1 ISZERO PUSH2 0x357 JUMPI PUSH1 0x0 DUP1 REVERT JUMPDEST POP PUSH2 0x361 PUSH1 0xA SLOAD DUP2 JUMP JUMPDEST PUSH1 0x40 MLOAD SWAP1 DUP2 MSTORE PUSH1 0x20 ADD PUSH2 0x262 JUMP JUMPDEST CALLVALUE DUP1 ISZERO PUSH2 0x37B JUMPI PUSH1 0x0 DUP1 REVERT JUMPDEST POP SELFBALANCE PUSH2 0x361 JUMP JUMPDEST CALLVALUE DUP1 ISZERO PUSH2 0x38E JUMPI PUSH1 0x0 DUP1 REVERT JUMPDEST POP PUSH2 0x361 PUSH1 0x4 SLOAD DUP2 JUMP JUMPDEST CALLVALUE DUP1 ISZERO PUSH2 0x3A4 JUMPI PUSH1 0x0 DUP1 REVERT JUMPDEST POP PUSH2 0x213 PUSH2 0x3B3 CALLDATASIZE PUSH1 0x4 PUSH2 0x1656 JUMP JUMPDEST PUSH2 0x9D2 JUMP JUMPDEST CALLVALUE DUP1 ISZERO PUSH2 0x3C4 JUMPI PUSH1 0x0 DUP1 REVERT JUMPDEST POP PUSH2 0x213 PUSH2 0xA4B JUMP JUMPDEST CALLVALUE DUP1 ISZERO PUSH2 0x3D9 JUMPI PUSH1 0x0 DUP1 REVERT JUMPDEST POP PUSH2 0x213 PUSH2 0x3E8 CALLDATASIZE PUSH1 0x4 PUSH2 0x16C8 JUMP JUMPDEST PUSH2 0xA5F JUMP JUMPDEST CALLVALUE DUP1 ISZERO PUSH2 0x3F9 JUMPI PUSH1 0x0 DUP1 REVERT JUMPDEST POP PUSH1 0x3 SLOAD PUSH2 0x24E SWAP1 PUSH1 0x1 PUSH1 0x1 PUSH1 0xA0 SHL SUB AND DUP2 JUMP JUMPDEST CALLVALUE DUP1 ISZERO PUSH2 0x419 JUMPI PUSH1 0x0 DUP1 REVERT JUMPDEST POP PUSH2 0x361 PUSH1 0x8 SLOAD DUP2 JUMP JUMPDEST CALLVALUE DUP1 ISZERO PUSH2 0x42F JUMPI PUSH1 0x0 DUP1 REVERT JUMPDEST POP PUSH1 0x0 SLOAD PUSH1 0x1 PUSH1 0x1 PUSH1 0xA0 SHL SUB AND PUSH2 0x24E JUMP JUMPDEST CALLVALUE DUP1 ISZERO PUSH2 0x44D JUMPI PUSH1 0x0 DUP1 REVERT JUMPDEST POP PUSH2 0x361 PUSH1 0x5 SLOAD DUP2 JUMP JUMPDEST CALLVALUE DUP1 ISZERO PUSH2 0x463 JUMPI PUSH1 0x0 DUP1 REVERT JUMPDEST POP PUSH2 0x213 PUSH2 0x472 CALLDATASIZE PUSH1 0x4 PUSH2 0x16A6 JUMP JUMPDEST PUSH2 0xA8D JUMP JUMPDEST CALLVALUE DUP1 ISZERO PUSH2 0x483 JUMPI PUSH1 0x0 DUP1 REVERT JUMPDEST POP PUSH2 0x361 PUSH1 0x7 SLOAD DUP2 JUMP JUMPDEST CALLVALUE DUP1 ISZERO PUSH2 0x499 JUMPI PUSH1 0x0 DUP1 REVERT JUMPDEST POP PUSH2 0x213 PUSH2 0x4A8 CALLDATASIZE PUSH1 0x4 PUSH2 0x1656 JUMP JUMPDEST PUSH2 0x1150 JUMP JUMPDEST CALLVALUE DUP1 ISZERO PUSH2 0x4B9 JUMPI PUSH1 0x0 DUP1 REVERT JUMPDEST POP PUSH2 0x213 PUSH2 0x4C8 CALLDATASIZE PUSH1 0x4 PUSH2 0x16E1 JUMP JUMPDEST PUSH2 0x11C9 JUMP JUMPDEST CALLVALUE DUP1 ISZERO PUSH2 0x4D9 JUMPI PUSH1 0x0 DUP1 REVERT JUMPDEST POP PUSH2 0x213 PUSH2 0x4E8 CALLDATASIZE PUSH1 0x4 PUSH2 0x16C8 JUMP JUMPDEST PUSH2 0x1257 JUMP JUMPDEST CALLVALUE DUP1 ISZERO PUSH2 0x4F9 JUMPI PUSH1 0x0 DUP1 REVERT JUMPDEST POP PUSH1 0x7 SLOAD PUSH1 0x8 SLOAD PUSH1 0x9 SLOAD PUSH1 0xA SLOAD PUSH1 0x40 DUP1 MLOAD SWAP5 DUP6 MSTORE PUSH1 0x20 DUP6 ADD SWAP4 SWAP1 SWAP4 MSTORE SWAP2 DUP4 ADD MSTORE PUSH1 0x60 DUP3 ADD MSTORE PUSH1 0x80 ADD PUSH2 0x262 JUMP JUMPDEST CALLVALUE DUP1 ISZERO PUSH2 0x532 JUMPI PUSH1 0x0 DUP1 REVERT JUMPDEST POP PUSH2 0x361 PUSH2 0x12BF JUMP JUMPDEST CALLVALUE DUP1 ISZERO PUSH2 0x547 JUMPI PUSH1 0x0 DUP1 REVERT JUMPDEST POP PUSH2 0x361 PUSH1 0x9 SLOAD DUP2 JUMP JUMPDEST CALLVALUE DUP1 ISZERO PUSH2 0x55D JUMPI PUSH1 0x0 DUP1 REVERT JUMPDEST POP PUSH2 0x213 PUSH2 0x56C CALLDATASIZE PUSH1 0x4 PUSH2 0x16C8 JUMP JUMPDEST PUSH2 0x134F JUMP JUMPDEST CALLVALUE DUP1 ISZERO PUSH2 0x57D JUMPI PUSH1 0x0 DUP1 REVERT JUMPDEST POP PUSH2 0x213 PUSH2 0x58C CALLDATASIZE PUSH1 0x4 PUSH2 0x1656 JUMP JUMPDEST PUSH2 0x149F JUMP JUMPDEST PUSH2 0x213 PUSH2 0x14DA JUMP JUMPDEST PUSH2 0x5A1 PUSH2 0x1549 JUMP JUMPDEST PUSH1 0x1 PUSH1 0x1 PUSH1 0xA0 SHL SUB DUP2 AND PUSH2 0x5C8 JUMPI PUSH1 0x40 MLOAD PUSH4 0xD92E233D PUSH1 0xE0 SHL DUP2 MSTORE PUSH1 0x4 ADD PUSH1 0x40 MLOAD DUP1 SWAP2 SUB SWAP1 REVERT JUMPDEST PUSH1 0x3 DUP1 SLOAD PUSH1 0x1 PUSH1 0x1 PUSH1 0xA0 SHL SUB NOT AND PUSH1 0x1 PUSH1 0x1 PUSH1 0xA0 SHL SUB DUP4 AND SWAP1 DUP2 OR SWAP1 SWAP2 SSTORE PUSH1 0x40 MLOAD PUSH32 0xC4A4EA6ABC08BD7F8DF3DB8A1C998F19B3E0C348176F93732CD54DB1A4B50136 SWAP1 PUSH1 0x0 SWAP1 LOG2 POP JUMP JUMPDEST PUSH2 0x61A PUSH2 0x1576 JUMP JUMPDEST PUSH2 0x622 PUSH2 0x1549 JUMP JUMPDEST PUSH1 0x1 PUSH1 0x1 PUSH1 0xA0 SHL SUB DUP3 AND PUSH2 0x649 JUMPI PUSH1 0x40 MLOAD PUSH4 0xD92E233D PUSH1 0xE0 SHL DUP2 MSTORE PUSH1 0x4 ADD PUSH1 0x40 MLOAD DUP1 SWAP2 SUB SWAP1 REVERT JUMPDEST DUP1 PUSH1 0x0 SUB PUSH2 0x66A JUMPI PUSH1 0x40 MLOAD PUSH4 0x1F2A2005 PUSH1 0xE0 SHL DUP2 MSTORE PUSH1 0x4 ADD PUSH1 0x40 MLOAD DUP1 SWAP2 SUB SWAP1 REVERT JUMPDEST SELFBALANCE DUP2 GT ISZERO PUSH2 0x698 JUMPI PUSH1 0x40 MLOAD PUSH3 0xFDF575 PUSH1 0xE5 SHL DUP2 MSTORE PUSH1 0x4 DUP2 ADD DUP3 SWAP1 MSTORE SELFBALANCE PUSH1 0x24 DUP3 ADD MSTORE PUSH1 0x44 ADD JUMPDEST PUSH1 0x40 MLOAD DUP1 SWAP2 SUB SWAP1 REVERT JUMPDEST PUSH1 0x0 DUP3 PUSH1 0x1 PUSH1 0x1 PUSH1 0xA0 SHL SUB AND DUP3 PUSH1 0x40 MLOAD PUSH1 0x0 PUSH1 0x40 MLOAD DUP1 DUP4 SUB DUP2 DUP6 DUP8 GAS CALL SWAP3 POP POP POP RETURNDATASIZE DUP1 PUSH1 0x0 DUP2 EQ PUSH2 0x6E5 JUMPI PUSH1 0x40 MLOAD SWAP2 POP PUSH1 0x1F NOT PUSH1 0x3F RETURNDATASIZE ADD AND DUP3 ADD PUSH1 0x40 MSTORE RETURNDATASIZE DUP3 MSTORE RETURNDATASIZE PUSH1 0x0 PUSH1 0x20 DUP5 ADD RETURNDATACOPY PUSH2 0x6EA JUMP JUMPDEST PUSH1 0x60 SWAP2 POP JUMPDEST POP POP SWAP1 POP DUP1 PUSH2 0x70C JUMPI PUSH1 0x40 MLOAD PUSH4 0x12171D83 PUSH1 0xE3 SHL DUP2 MSTORE PUSH1 0x4 ADD PUSH1 0x40 MLOAD DUP1 SWAP2 SUB SWAP1 REVERT JUMPDEST DUP3 PUSH1 0x1 PUSH1 0x1 PUSH1 0xA0 SHL SUB AND PUSH32 0x6E67ADC6F62CBAC95E14FCE70ECC9EAF0B0C4093237158F9A4E84FADB06DFE4C DUP4 PUSH1 0x40 MLOAD PUSH2 0x747 SWAP2 DUP2 MSTORE PUSH1 0x20 ADD SWAP1 JUMP JUMPDEST PUSH1 0x40 MLOAD DUP1 SWAP2 SUB SWAP1 LOG2 POP PUSH2 0x767 PUSH1 0x1 PUSH1 0x0 DUP1 MLOAD PUSH1 0x20 PUSH2 0x180E DUP4 CODECOPY DUP2 MLOAD SWAP2 MSTORE SSTORE JUMP JUMPDEST POP POP JUMP JUMPDEST PUSH2 0x773 PUSH2 0x1576 JUMP JUMPDEST PUSH2 0x77B PUSH2 0x1549 JUMP JUMPDEST DUP2 PUSH1 0x0 SUB PUSH2 0x79C JUMPI PUSH1 0x40 MLOAD PUSH4 0x1F2A2005 PUSH1 0xE0 SHL DUP2 MSTORE PUSH1 0x4 ADD PUSH1 0x40 MLOAD DUP1 SWAP2 SUB SWAP1 REVERT JUMPDEST DUP1 PUSH1 0x0 SUB PUSH2 0x7BD JUMPI PUSH1 0x40 MLOAD PUSH4 0x1F2A2005 PUSH1 0xE0 SHL DUP2 MSTORE PUSH1 0x4 ADD PUSH1 0x40 MLOAD DUP1 SWAP2 SUB SWAP1 REVERT JUMPDEST PUSH1 0x1 SLOAD PUSH1 0x1 PUSH1 0x1 PUSH1 0xA0 SHL SUB AND PUSH2 0x7E6 JUMPI PUSH1 0x40 MLOAD PUSH4 0xD92E233D PUSH1 0xE0 SHL DUP2 MSTORE PUSH1 0x4 ADD PUSH1 0x40 MLOAD DUP1 SWAP2 SUB SWAP1 REVERT JUMPDEST PUSH1 0x40 MLOAD PUSH4 0x70A08231 PUSH1 0xE0 SHL DUP2 MSTORE ADDRESS PUSH1 0x4 DUP3 ADD MSTORE PUSH1 0x0 SWAP1 PUSH32 0x0 PUSH1 0x1 PUSH1 0x1 PUSH1 0xA0 SHL SUB AND SWAP1 PUSH4 0x70A08231 SWAP1 PUSH1 0x24 ADD PUSH1 0x20 PUSH1 0x40 MLOAD DUP1 DUP4 SUB DUP2 DUP7 GAS STATICCALL ISZERO DUP1 ISZERO PUSH2 0x84D JUMPI RETURNDATASIZE PUSH1 0x0 DUP1 RETURNDATACOPY RETURNDATASIZE PUSH1 0x0 REVERT JUMPDEST POP POP POP POP PUSH1 0x40 MLOAD RETURNDATASIZE PUSH1 0x1F NOT PUSH1 0x1F DUP3 ADD AND DUP3 ADD DUP1 PUSH1 0x40 MSTORE POP DUP2 ADD SWAP1 PUSH2 0x871 SWAP2 SWAP1 PUSH2 0x171F JUMP JUMPDEST SWAP1 POP DUP1 DUP4 GT ISZERO PUSH2 0x894 JUMPI PUSH1 0x40 MLOAD PUSH4 0x1F2A2005 PUSH1 0xE0 SHL DUP2 MSTORE PUSH1 0x4 ADD PUSH1 0x40 MLOAD DUP1 SWAP2 SUB SWAP1 REVERT JUMPDEST PUSH1 0x1 SLOAD PUSH1 0x40 MLOAD PUSH4 0x423F6CEF PUSH1 0xE0 SHL DUP2 MSTORE PUSH1 0x1 PUSH1 0x1 PUSH1 0xA0 SHL SUB SWAP2 DUP3 AND PUSH1 0x4 DUP3 ADD MSTORE PUSH1 0x24 DUP2 ADD DUP6 SWAP1 MSTORE PUSH32 0x0 SWAP1 SWAP2 AND SWAP1 PUSH4 0x423F6CEF SWAP1 PUSH1 0x44 ADD PUSH1 0x0 PUSH1 0x40 MLOAD DUP1 DUP4 SUB DUP2 PUSH1 0x0 DUP8 DUP1 EXTCODESIZE ISZERO DUP1 ISZERO PUSH2 0x903 JUMPI PUSH1 0x0 DUP1 REVERT JUMPDEST POP GAS CALL ISZERO DUP1 ISZERO PUSH2 0x917 JUMPI RETURNDATASIZE PUSH1 0x0 DUP1 RETURNDATACOPY RETURNDATASIZE PUSH1 0x0 REVERT JUMPDEST POP POP PUSH1 0x1 SLOAD PUSH1 0x40 MLOAD PUSH4 0x246132F9 PUSH1 0xE0 SHL DUP2 MSTORE PUSH1 0x4 DUP2 ADD DUP8 SWAP1 MSTORE PUSH1 0x24 DUP2 ADD DUP7 SWAP1 MSTORE PUSH1 0x1 PUSH1 0x1 PUSH1 0xA0 SHL SUB SWAP1 SWAP2 AND SWAP3 POP PUSH4 0x246132F9 SWAP2 POP PUSH1 0x44 ADD PUSH1 0x0 PUSH1 0x40 MLOAD DUP1 DUP4 SUB DUP2 PUSH1 0x0 DUP8 DUP1 EXTCODESIZE ISZERO DUP1 ISZERO PUSH2 0x968 JUMPI PUSH1 0x0 DUP1 REVERT JUMPDEST POP GAS CALL ISZERO DUP1 ISZERO PUSH2 0x97C JUMPI RETURNDATASIZE PUSH1 0x0 DUP1 RETURNDATACOPY RETURNDATASIZE PUSH1 0x0 REVERT JUMPDEST POP POP PUSH1 0x40 DUP1 MLOAD DUP7 DUP2 MSTORE PUSH1 0x20 DUP2 ADD DUP7 SWAP1 MSTORE PUSH32 0x8B7AAFFE68A47637F66B06784A531963146073858C3A5EF41FC98BC456D7B64A SWAP4 POP ADD SWAP1 POP PUSH1 0x40 MLOAD DUP1 SWAP2 SUB SWAP1 LOG1 POP PUSH2 0x767 PUSH1 0x1 PUSH1 0x0 DUP1 MLOAD PUSH1 0x20 PUSH2 0x180E DUP4 CODECOPY DUP2 MLOAD SWAP2 MSTORE SSTORE JUMP JUMPDEST PUSH2 0x9DA PUSH2 0x1549 JUMP JUMPDEST PUSH1 0x1 PUSH1 0x1 PUSH1 0xA0 SHL SUB DUP2 AND PUSH2 0xA01 JUMPI PUSH1 0x40 MLOAD PUSH4 0xD92E233D PUSH1 0xE0 SHL DUP2 MSTORE PUSH1 0x4 ADD PUSH1 0x40 MLOAD DUP1 SWAP2 SUB SWAP1 REVERT JUMPDEST PUSH1 0x2 DUP1 SLOAD PUSH1 0x1 PUSH1 0x1 PUSH1 0xA0 SHL SUB NOT AND PUSH1 0x1 PUSH1 0x1 PUSH1 0xA0 SHL SUB DUP4 AND SWAP1 DUP2 OR SWAP1 SWAP2 SSTORE PUSH1 0x40 MLOAD PUSH32 0x1176BB0C626865DD5BB6009A83FF7A7F968D1759188EC01B8BEFB5BBDE338AA0 SWAP1 PUSH1 0x0 SWAP1 LOG2 POP JUMP JUMPDEST PUSH2 0xA53 PUSH2 0x1549 JUMP JUMPDEST PUSH2 0xA5D PUSH1 0x0 PUSH2 0x1592 JUMP JUMPDEST JUMP JUMPDEST PUSH2 0xA67 PUSH2 0x1549 JUMP JUMPDEST DUP1 PUSH1 0x0 SUB PUSH2 0xA88 JUMPI PUSH1 0x40 MLOAD PUSH4 0x1F2A2005 PUSH1 0xE0 SHL DUP2 MSTORE PUSH1 0x4 ADD PUSH1 0x40 MLOAD DUP1 SWAP2 SUB SWAP1 REVERT JUMPDEST PUSH1 0x5 SSTORE JUMP JUMPDEST PUSH2 0xA95 PUSH2 0x1576 JUMP JUMPDEST PUSH2 0xA9D PUSH2 0x1549 JUMP JUMPDEST DUP2 PUSH1 0x0 SUB PUSH2 0xABE JUMPI PUSH1 0x40 MLOAD PUSH4 0x1F2A2005 PUSH1 0xE0 SHL DUP2 MSTORE PUSH1 0x4 ADD PUSH1 0x40 MLOAD DUP1 SWAP2 SUB SWAP1 REVERT JUMPDEST SELFBALANCE DUP3 GT ISZERO PUSH2 0xAE7 JUMPI PUSH1 0x40 MLOAD PUSH3 0xFDF575 PUSH1 0xE5 SHL DUP2 MSTORE PUSH1 0x4 DUP2 ADD DUP4 SWAP1 MSTORE SELFBALANCE PUSH1 0x24 DUP3 ADD MSTORE PUSH1 0x44 ADD PUSH2 0x68F JUMP JUMPDEST PUSH1 0x3 SLOAD PUSH1 0x1 PUSH1 0x1 PUSH1 0xA0 SHL SUB AND PUSH2 0xB10 JUMPI PUSH1 0x40 MLOAD PUSH4 0xD92E233D PUSH1 0xE0 SHL DUP2 MSTORE PUSH1 0x4 ADD PUSH1 0x40 MLOAD DUP1 SWAP2 SUB SWAP1 REVERT JUMPDEST PUSH1 0x0 DUP1 PUSH1 0x3 PUSH1 0x0 SWAP1 SLOAD SWAP1 PUSH2 0x100 EXP SWAP1 DIV PUSH1 0x1 PUSH1 0x1 PUSH1 0xA0 SHL SUB AND PUSH1 0x1 PUSH1 0x1 PUSH1 0xA0 SHL SUB AND PUSH4 0x902F1AC PUSH1 0x40 MLOAD DUP2 PUSH4 0xFFFFFFFF AND PUSH1 0xE0 SHL DUP2 MSTORE PUSH1 0x4 ADD PUSH1 0x60 PUSH1 0x40 MLOAD DUP1 DUP4 SUB DUP2 DUP7 GAS STATICCALL ISZERO DUP1 ISZERO PUSH2 0xB66 JUMPI RETURNDATASIZE PUSH1 0x0 DUP1 RETURNDATACOPY RETURNDATASIZE PUSH1 0x0 REVERT JUMPDEST POP POP POP POP PUSH1 0x40 MLOAD RETURNDATASIZE PUSH1 0x1F NOT PUSH1 0x1F DUP3 ADD AND DUP3 ADD DUP1 PUSH1 0x40 MSTORE POP DUP2 ADD SWAP1 PUSH2 0xB8A SWAP2 SWAP1 PUSH2 0x1754 JUMP JUMPDEST POP SWAP2 POP SWAP2 POP PUSH1 0x0 PUSH1 0x3 PUSH1 0x0 SWAP1 SLOAD SWAP1 PUSH2 0x100 EXP SWAP1 DIV PUSH1 0x1 PUSH1 0x1 PUSH1 0xA0 SHL SUB AND PUSH1 0x1 PUSH1 0x1 PUSH1 0xA0 SHL SUB AND PUSH4 0xDFE1681 PUSH1 0x40 MLOAD DUP2 PUSH4 0xFFFFFFFF AND PUSH1 0xE0 SHL DUP2 MSTORE PUSH1 0x4 ADD PUSH1 0x20 PUSH1 0x40 MLOAD DUP1 DUP4 SUB DUP2 DUP7 GAS STATICCALL ISZERO DUP1 ISZERO PUSH2 0xBE4 JUMPI RETURNDATASIZE PUSH1 0x0 DUP1 RETURNDATACOPY RETURNDATASIZE PUSH1 0x0 REVERT JUMPDEST POP POP POP POP PUSH1 0x40 MLOAD RETURNDATASIZE PUSH1 0x1F NOT PUSH1 0x1F DUP3 ADD AND DUP3 ADD DUP1 PUSH1 0x40 MSTORE POP DUP2 ADD SWAP1 PUSH2 0xC08 SWAP2 SWAP1 PUSH2 0x17A4 JUMP JUMPDEST SWAP1 POP PUSH1 0x0 DUP1 PUSH1 0x0 PUSH32 0x0 PUSH1 0x1 PUSH1 0x1 PUSH1 0xA0 SHL SUB AND DUP5 PUSH1 0x1 PUSH1 0x1 PUSH1 0xA0 SHL SUB AND EQ SWAP1 POP DUP1 ISZERO PUSH2 0xC69 JUMPI DUP5 PUSH1 0x1 PUSH1 0x1 PUSH1 0x70 SHL SUB AND SWAP3 POP DUP6 PUSH1 0x1 PUSH1 0x1 PUSH1 0x70 SHL SUB AND SWAP2 POP PUSH2 0xC82 JUMP JUMPDEST DUP6 PUSH1 0x1 PUSH1 0x1 PUSH1 0x70 SHL SUB AND SWAP3 POP DUP5 PUSH1 0x1 PUSH1 0x1 PUSH1 0x70 SHL SUB AND SWAP2 POP JUMPDEST PUSH1 0x0 PUSH2 0xC90 DUP10 PUSH2 0x3E5 PUSH2 0x17C1 JUMP JUMPDEST SWAP1 POP PUSH1 0x0 DUP2 PUSH2 0xCA1 DUP7 PUSH2 0x3E8 PUSH2 0x17C1 JUMP JUMPDEST PUSH2 0xCAB SWAP2 SWAP1 PUSH2 0x1628 JUMP JUMPDEST PUSH2 0xCB5 DUP6 DUP5 PUSH2 0x17C1 JUMP JUMPDEST PUSH2 0xCBF SWAP2 SWAP1 PUSH2 0x17D8 JUMP JUMPDEST SWAP1 POP DUP9 DUP2 LT ISZERO PUSH2 0xCEC JUMPI PUSH1 0x40 MLOAD PUSH4 0x71C4EFED PUSH1 0xE0 SHL DUP2 MSTORE PUSH1 0x4 DUP2 ADD DUP3 SWAP1 MSTORE PUSH1 0x24 DUP2 ADD DUP11 SWAP1 MSTORE PUSH1 0x44 ADD PUSH2 0x68F JUMP JUMPDEST PUSH1 0x3 SLOAD PUSH1 0x40 MLOAD PUSH1 0x0 SWAP2 PUSH1 0x1 PUSH1 0x1 PUSH1 0xA0 SHL SUB AND SWAP1 DUP13 SWAP1 DUP4 DUP2 DUP2 DUP2 DUP6 DUP8 GAS CALL SWAP3 POP POP POP RETURNDATASIZE DUP1 PUSH1 0x0 DUP2 EQ PUSH2 0xD39 JUMPI PUSH1 0x40 MLOAD SWAP2 POP PUSH1 0x1F NOT PUSH1 0x3F RETURNDATASIZE ADD AND DUP3 ADD PUSH1 0x40 MSTORE RETURNDATASIZE DUP3 MSTORE RETURNDATASIZE PUSH1 0x0 PUSH1 0x20 DUP5 ADD RETURNDATACOPY PUSH2 0xD3E JUMP JUMPDEST PUSH1 0x60 SWAP2 POP JUMPDEST POP POP SWAP1 POP DUP1 PUSH2 0xD60 JUMPI PUSH1 0x40 MLOAD PUSH4 0x7F239195 PUSH1 0xE0 SHL DUP2 MSTORE PUSH1 0x4 ADD PUSH1 0x40 MLOAD DUP1 SWAP2 SUB SWAP1 REVERT JUMPDEST DUP4 ISZERO PUSH2 0xDD6 JUMPI PUSH1 0x3 SLOAD PUSH1 0x40 MLOAD PUSH4 0x36CD3205 PUSH1 0xE1 SHL DUP2 MSTORE PUSH1 0x4 DUP2 ADD DUP5 SWAP1 MSTORE PUSH1 0x0 PUSH1 0x24 DUP3 ADD MSTORE ADDRESS PUSH1 0x44 DUP3 ADD MSTORE PUSH1 0x1 PUSH1 0x1 PUSH1 0xA0 SHL SUB SWAP1 SWAP2 AND SWAP1 PUSH4 0x6D9A640A SWAP1 PUSH1 0x64 ADD PUSH1 0x0 PUSH1 0x40 MLOAD DUP1 DUP4 SUB DUP2 PUSH1 0x0 DUP8 DUP1 EXTCODESIZE ISZERO DUP1 ISZERO PUSH2 0xDB9 JUMPI PUSH1 0x0 DUP1 REVERT JUMPDEST POP GAS CALL ISZERO DUP1 ISZERO PUSH2 0xDCD JUMPI RETURNDATASIZE PUSH1 0x0 DUP1 RETURNDATACOPY RETURNDATASIZE PUSH1 0x0 REVERT JUMPDEST POP POP POP POP PUSH2 0xE42 JUMP JUMPDEST PUSH1 0x3 SLOAD PUSH1 0x40 MLOAD PUSH4 0x36CD3205 PUSH1 0xE1 SHL DUP2 MSTORE PUSH1 0x0 PUSH1 0x4 DUP3 ADD MSTORE PUSH1 0x24 DUP2 ADD DUP5 SWAP1 MSTORE ADDRESS PUSH1 0x44 DUP3 ADD MSTORE PUSH1 0x1 PUSH1 0x1 PUSH1 0xA0 SHL SUB SWAP1 SWAP2 AND SWAP1 PUSH4 0x6D9A640A SWAP1 PUSH1 0x64 ADD PUSH1 0x0 PUSH1 0x40 MLOAD DUP1 DUP4 SUB DUP2 PUSH1 0x0 DUP8 DUP1 EXTCODESIZE ISZERO DUP1 ISZERO PUSH2 0xE29 JUMPI PUSH1 0x0 DUP1 REVERT JUMPDEST POP GAS CALL ISZERO DUP1 ISZERO PUSH2 0xE3D JUMPI RETURNDATASIZE PUSH1 0x0 DUP1 RETURNDATACOPY RETURNDATASIZE PUSH1 0x0 REVERT JUMPDEST POP POP POP POP JUMPDEST PUSH1 0x40 MLOAD PUSH4 0x70A08231 PUSH1 0xE0 SHL DUP2 MSTORE ADDRESS PUSH1 0x4 DUP3 ADD MSTORE PUSH1 0x0 SWAP1 PUSH32 0x0 PUSH1 0x1 PUSH1 0x1 PUSH1 0xA0 SHL SUB AND SWAP1 PUSH4 0x70A08231 SWAP1 PUSH1 0x24 ADD PUSH1 0x20 PUSH1 0x40 MLOAD DUP1 DUP4 SUB DUP2 DUP7 GAS STATICCALL ISZERO DUP1 ISZERO PUSH2 0xEA9 JUMPI RETURNDATASIZE PUSH1 0x0 DUP1 RETURNDATACOPY RETURNDATASIZE PUSH1 0x0 REVERT JUMPDEST POP POP POP POP PUSH1 0x40 MLOAD RETURNDATASIZE PUSH1 0x1F NOT PUSH1 0x1F DUP3 ADD AND DUP3 ADD DUP1 PUSH1 0x40 MSTORE POP DUP2 ADD SWAP1 PUSH2 0xECD SWAP2 SWAP1 PUSH2 0x171F JUMP JUMPDEST SWAP1 POP DUP11 DUP2 LT ISZERO PUSH2 0xEFA JUMPI PUSH1 0x40 MLOAD PUSH4 0x71C4EFED PUSH1 0xE0 SHL DUP2 MSTORE PUSH1 0x4 DUP2 ADD DUP3 SWAP1 MSTORE PUSH1 0x24 DUP2 ADD DUP13 SWAP1 MSTORE PUSH1 0x44 ADD PUSH2 0x68F JUMP JUMPDEST PUSH1 0x0 PUSH1 0x64 PUSH1 0x4 SLOAD DUP4 PUSH2 0xF0C SWAP2 SWAP1 PUSH2 0x17C1 JUMP JUMPDEST PUSH2 0xF16 SWAP2 SWAP1 PUSH2 0x17D8 JUMP JUMPDEST SWAP1 POP PUSH1 0x0 PUSH2 0xF24 DUP3 DUP5 PUSH2 0x17FA JUMP JUMPDEST SWAP1 POP DUP2 ISZERO PUSH2 0xFBE JUMPI PUSH1 0x40 MLOAD PUSH4 0x852CD8D PUSH1 0xE3 SHL DUP2 MSTORE PUSH1 0x4 DUP2 ADD DUP4 SWAP1 MSTORE PUSH32 0x0 PUSH1 0x1 PUSH1 0x1 PUSH1 0xA0 SHL SUB AND SWAP1 PUSH4 0x42966C68 SWAP1 PUSH1 0x24 ADD PUSH1 0x0 PUSH1 0x40 MLOAD DUP1 DUP4 SUB DUP2 PUSH1 0x0 DUP8 DUP1 EXTCODESIZE ISZERO DUP1 ISZERO PUSH2 0xF8E JUMPI PUSH1 0x0 DUP1 REVERT JUMPDEST POP GAS CALL ISZERO DUP1 ISZERO PUSH2 0xFA2 JUMPI RETURNDATASIZE PUSH1 0x0 DUP1 RETURNDATACOPY RETURNDATASIZE PUSH1 0x0 REVERT JUMPDEST POP POP POP POP DUP2 PUSH1 0x8 PUSH1 0x0 DUP3 DUP3 SLOAD PUSH2 0xFB8 SWAP2 SWAP1 PUSH2 0x1628 JUMP JUMPDEST SWAP1 SWAP2 SSTORE POP POP JUMPDEST PUSH1 0x0 DUP2 GT DUP1 ISZERO PUSH2 0xFD8 JUMPI POP PUSH1 0x1 SLOAD PUSH1 0x1 PUSH1 0x1 PUSH1 0xA0 SHL SUB AND ISZERO ISZERO JUMPDEST ISZERO PUSH2 0x10E5 JUMPI PUSH1 0x1 SLOAD PUSH1 0x40 MLOAD PUSH4 0x423F6CEF PUSH1 0xE0 SHL DUP2 MSTORE PUSH1 0x1 PUSH1 0x1 PUSH1 0xA0 SHL SUB SWAP2 DUP3 AND PUSH1 0x4 DUP3 ADD MSTORE PUSH1 0x24 DUP2 ADD DUP4 SWAP1 MSTORE PUSH32 0x0 SWAP1 SWAP2 AND SWAP1 PUSH4 0x423F6CEF SWAP1 PUSH1 0x44 ADD PUSH1 0x0 PUSH1 0x40 MLOAD DUP1 DUP4 SUB DUP2 PUSH1 0x0 DUP8 DUP1 EXTCODESIZE ISZERO DUP1 ISZERO PUSH2 0x104C JUMPI PUSH1 0x0 DUP1 REVERT JUMPDEST POP GAS CALL ISZERO DUP1 ISZERO PUSH2 0x1060 JUMPI RETURNDATASIZE PUSH1 0x0 DUP1 RETURNDATACOPY RETURNDATASIZE PUSH1 0x0 REVERT JUMPDEST POP POP PUSH1 0x1 SLOAD PUSH1 0x5 SLOAD PUSH1 0x40 MLOAD PUSH4 0x246132F9 PUSH1 0xE0 SHL DUP2 MSTORE PUSH1 0x4 DUP2 ADD DUP7 SWAP1 MSTORE PUSH1 0x24 DUP2 ADD SWAP2 SWAP1 SWAP2 MSTORE PUSH1 0x1 PUSH1 0x1 PUSH1 0xA0 SHL SUB SWAP1 SWAP2 AND SWAP3 POP PUSH4 0x246132F9 SWAP2 POP PUSH1 0x44 ADD PUSH1 0x0 PUSH1 0x40 MLOAD DUP1 DUP4 SUB DUP2 PUSH1 0x0 DUP8 DUP1 EXTCODESIZE ISZERO DUP1 ISZERO PUSH2 0x10B5 JUMPI PUSH1 0x0 DUP1 REVERT JUMPDEST POP GAS CALL ISZERO DUP1 ISZERO PUSH2 0x10C9 JUMPI RETURNDATASIZE PUSH1 0x0 DUP1 RETURNDATACOPY RETURNDATASIZE PUSH1 0x0 REVERT JUMPDEST POP POP POP POP DUP1 PUSH1 0x9 PUSH1 0x0 DUP3 DUP3 SLOAD PUSH2 0x10DF SWAP2 SWAP1 PUSH2 0x1628 JUMP JUMPDEST SWAP1 SWAP2 SSTORE POP POP JUMPDEST PUSH1 0x40 DUP1 MLOAD DUP16 DUP2 MSTORE PUSH1 0x20 DUP2 ADD DUP6 SWAP1 MSTORE SWAP1 DUP2 ADD DUP4 SWAP1 MSTORE PUSH1 0x60 DUP2 ADD DUP3 SWAP1 MSTORE PUSH32 0x42659A4AA613C1E350C764F0FF2BE36A175AC2A1E4B77B8E1467D1FED32BECC8 SWAP1 PUSH1 0x80 ADD PUSH1 0x40 MLOAD DUP1 SWAP2 SUB SWAP1 LOG1 POP POP POP POP POP POP POP POP POP POP POP POP PUSH2 0x767 PUSH1 0x1 PUSH1 0x0 DUP1 MLOAD PUSH1 0x20 PUSH2 0x180E DUP4 CODECOPY DUP2 MLOAD SWAP2 MSTORE SSTORE JUMP JUMPDEST PUSH2 0x1158 PUSH2 0x1549 JUMP JUMPDEST PUSH1 0x1 PUSH1 0x1 PUSH1 0xA0 SHL SUB DUP2 AND PUSH2 0x117F JUMPI PUSH1 0x40 MLOAD PUSH4 0xD92E233D PUSH1 0xE0 SHL DUP2 MSTORE PUSH1 0x4 ADD PUSH1 0x40 MLOAD DUP1 SWAP2 SUB SWAP1 REVERT JUMPDEST PUSH1 0x1 DUP1 SLOAD PUSH1 0x1 PUSH1 0x1 PUSH1 0xA0 SHL SUB NOT AND PUSH1 0x1 PUSH1 0x1 PUSH1 0xA0 SHL SUB DUP4 AND SWAP1 DUP2 OR SWAP1 SWAP2 SSTORE PUSH1 0x40 MLOAD PUSH32 0xF520447191196B125F76F7110397FDF32B1B9CEFB7DEC323BD3B998022AC2338 SWAP1 PUSH1 0x0 SWAP1 LOG2 POP JUMP JUMPDEST PUSH2 0x11D1 PUSH2 0x1549 JUMP JUMPDEST PUSH1 0x1 PUSH1 0x1 PUSH1 0xA0 SHL SUB DUP3 AND PUSH2 0x11F8 JUMPI PUSH1 0x40 MLOAD PUSH4 0xD92E233D PUSH1 0xE0 SHL DUP2 MSTORE PUSH1 0x4 ADD PUSH1 0x40 MLOAD DUP1 SWAP2 SUB SWAP1 REVERT JUMPDEST PUSH1 0x1 PUSH1 0x1 PUSH1 0xA0 SHL SUB DUP3 AND PUSH1 0x0 DUP2 DUP2 MSTORE PUSH1 0x6 PUSH1 0x20 SWAP1 DUP2 MSTORE PUSH1 0x40 SWAP2 DUP3 SWAP1 KECCAK256 DUP1 SLOAD PUSH1 0xFF NOT AND DUP6 ISZERO ISZERO SWAP1 DUP2 OR SWAP1 SWAP2 SSTORE SWAP2 MLOAD SWAP2 DUP3 MSTORE PUSH32 0xBAC4A6EE215C0287F7DA3A73C4FA957DDE930DC8190BBA3F30D0104AE15CA9FD SWAP2 ADD PUSH1 0x40 MLOAD DUP1 SWAP2 SUB SWAP1 LOG2 POP POP JUMP JUMPDEST PUSH2 0x125F PUSH2 0x1549 JUMP JUMPDEST PUSH1 0x64 DUP2 GT ISZERO PUSH2 0x1284 JUMPI PUSH1 0x40 MLOAD PUSH4 0x46A85EF PUSH1 0xE3 SHL DUP2 MSTORE PUSH1 0x4 DUP2 ADD DUP3 SWAP1 MSTORE PUSH1 0x24 ADD PUSH2 0x68F JUMP JUMPDEST PUSH1 0x4 DUP2 SWAP1 SSTORE PUSH1 0x40 MLOAD DUP2 DUP2 MSTORE PUSH32 0xE85D9362D5330E5046BA20D38140F318950327F15B22123DAE77DFFF2F1DDE71 SWAP1 PUSH1 0x20 ADD PUSH1 0x40 MLOAD DUP1 SWAP2 SUB SWAP1 LOG1 POP JUMP JUMPDEST PUSH1 0x40 MLOAD PUSH4 0x70A08231 PUSH1 0xE0 SHL DUP2 MSTORE ADDRESS PUSH1 0x4 DUP3 ADD MSTORE PUSH1 0x0 SWAP1 PUSH32 0x0 PUSH1 0x1 PUSH1 0x1 PUSH1 0xA0 SHL SUB AND SWAP1 PUSH4 0x70A08231 SWAP1 PUSH1 0x24 ADD PUSH1 0x20 PUSH1 0x40 MLOAD DUP1 DUP4 SUB DUP2 DUP7 GAS STATICCALL ISZERO DUP1 ISZERO PUSH2 0x1326 JUMPI RETURNDATASIZE PUSH1 0x0 DUP1 RETURNDATACOPY RETURNDATASIZE PUSH1 0x0 REVERT JUMPDEST POP POP POP POP PUSH1 0x40 MLOAD RETURNDATASIZE PUSH1 0x1F NOT PUSH1 0x1F DUP3 ADD AND DUP3 ADD DUP1 PUSH1 0x40 MSTORE POP DUP2 ADD SWAP1 PUSH2 0x134A SWAP2 SWAP1 PUSH2 0x171F JUMP JUMPDEST SWAP1 POP SWAP1 JUMP JUMPDEST PUSH2 0x1357 PUSH2 0x1576 JUMP JUMPDEST PUSH2 0x135F PUSH2 0x1549 JUMP JUMPDEST DUP1 PUSH1 0x0 SUB PUSH2 0x1380 JUMPI PUSH1 0x40 MLOAD PUSH4 0x1F2A2005 PUSH1 0xE0 SHL DUP2 MSTORE PUSH1 0x4 ADD PUSH1 0x40 MLOAD DUP1 SWAP2 SUB SWAP1 REVERT JUMPDEST PUSH1 0x2 SLOAD PUSH1 0x1 PUSH1 0x1 PUSH1 0xA0 SHL SUB AND PUSH2 0x13A9 JUMPI PUSH1 0x40 MLOAD PUSH4 0xD92E233D PUSH1 0xE0 SHL DUP2 MSTORE PUSH1 0x4 ADD PUSH1 0x40 MLOAD DUP1 SWAP2 SUB SWAP1 REVERT JUMPDEST SELFBALANCE DUP2 GT ISZERO PUSH2 0x13D2 JUMPI PUSH1 0x40 MLOAD PUSH3 0xFDF575 PUSH1 0xE5 SHL DUP2 MSTORE PUSH1 0x4 DUP2 ADD DUP3 SWAP1 MSTORE SELFBALANCE PUSH1 0x24 DUP3 ADD MSTORE PUSH1 0x44 ADD PUSH2 0x68F JUMP JUMPDEST PUSH1 0x2 PUSH1 0x0 SWAP1 SLOAD SWAP1 PUSH2 0x100 EXP SWAP1 DIV PUSH1 0x1 PUSH1 0x1 PUSH1 0xA0 SHL SUB AND PUSH1 0x1 PUSH1 0x1 PUSH1 0xA0 SHL SUB AND PUSH4 0xD0E30DB0 DUP3 PUSH1 0x40 MLOAD DUP3 PUSH4 0xFFFFFFFF AND PUSH1 0xE0 SHL DUP2 MSTORE PUSH1 0x4 ADD PUSH1 0x0 PUSH1 0x40 MLOAD DUP1 DUP4 SUB DUP2 DUP6 DUP9 DUP1 EXTCODESIZE ISZERO DUP1 ISZERO PUSH2 0x1422 JUMPI PUSH1 0x0 DUP1 REVERT JUMPDEST POP GAS CALL ISZERO DUP1 ISZERO PUSH2 0x1436 JUMPI RETURNDATASIZE PUSH1 0x0 DUP1 RETURNDATACOPY RETURNDATASIZE PUSH1 0x0 REVERT JUMPDEST POP POP POP POP POP DUP1 PUSH1 0xA PUSH1 0x0 DUP3 DUP3 SLOAD PUSH2 0x144D SWAP2 SWAP1 PUSH2 0x1628 JUMP JUMPDEST SWAP1 SWAP2 SSTORE POP POP PUSH1 0x40 MLOAD DUP2 DUP2 MSTORE PUSH32 0x65DA79752E89C0DEBD87A1C71AE1D472ADD974DC19B2FC258F88B5598FCFA76 SWAP1 PUSH1 0x20 ADD PUSH1 0x40 MLOAD DUP1 SWAP2 SUB SWAP1 LOG1 PUSH2 0x149C PUSH1 0x1 PUSH1 0x0 DUP1 MLOAD PUSH1 0x20 PUSH2 0x180E DUP4 CODECOPY DUP2 MLOAD SWAP2 MSTORE SSTORE JUMP JUMPDEST POP JUMP JUMPDEST PUSH2 0x14A7 PUSH2 0x1549 JUMP JUMPDEST PUSH1 0x1 PUSH1 0x1 PUSH1 0xA0 SHL SUB DUP2 AND PUSH2 0x14D1 JUMPI PUSH1 0x40 MLOAD PUSH4 0x1E4FBDF7 PUSH1 0xE0 SHL DUP2 MSTORE PUSH1 0x0 PUSH1 0x4 DUP3 ADD MSTORE PUSH1 0x24 ADD PUSH2 0x68F JUMP JUMPDEST PUSH2 0x149C DUP2 PUSH2 0x1592 JUMP JUMPDEST CALLVALUE PUSH1 0x0 SUB PUSH2 0x14FB JUMPI PUSH1 0x40 MLOAD PUSH4 0x1F2A2005 PUSH1 0xE0 SHL DUP2 MSTORE PUSH1 0x4 ADD PUSH1 0x40 MLOAD DUP1 SWAP2 SUB SWAP1 REVERT JUMPDEST CALLVALUE PUSH1 0x7 PUSH1 0x0 DUP3 DUP3 SLOAD PUSH2 0x150D SWAP2 SWAP1 PUSH2 0x1628 JUMP JUMPDEST SWAP1 SWAP2 SSTORE POP POP PUSH1 0x40 MLOAD CALLVALUE DUP2 MSTORE CALLER SWAP1 PUSH32 0x2CCFC58C2CEF4EE590B5F16BE0548CC54AFC12E1C66A67B362B7D640FD16BB2D SWAP1 PUSH1 0x20 ADD PUSH1 0x40 MLOAD DUP1 SWAP2 SUB SWAP1 LOG2 JUMP JUMPDEST PUSH1 0x0 SLOAD PUSH1 0x1 PUSH1 0x1 PUSH1 0xA0 SHL SUB AND CALLER EQ PUSH2 0xA5D JUMPI PUSH1 0x40 MLOAD PUSH4 0x118CDAA7 PUSH1 0xE0 SHL DUP2 MSTORE CALLER PUSH1 0x4 DUP3 ADD MSTORE PUSH1 0x24 ADD PUSH2 0x68F JUMP JUMPDEST PUSH2 0x157E PUSH2 0x15E2 JUMP JUMPDEST PUSH1 0x2 PUSH1 0x0 DUP1 MLOAD PUSH1 0x20 PUSH2 0x180E DUP4 CODECOPY DUP2 MLOAD SWAP2 MSTORE SSTORE JUMP JUMPDEST PUSH1 0x0 DUP1 SLOAD PUSH1 0x1 PUSH1 0x1 PUSH1 0xA0 SHL SUB DUP4 DUP2 AND PUSH1 0x1 PUSH1 0x1 PUSH1 0xA0 SHL SUB NOT DUP4 AND DUP2 OR DUP5 SSTORE PUSH1 0x40 MLOAD SWAP2 SWAP1 SWAP3 AND SWAP3 DUP4 SWAP2 PUSH32 0x8BE0079C531659141344CD1FD0A4F28419497F9722A3DAAFE3B4186F6B6457E0 SWAP2 SWAP1 LOG3 POP POP JUMP JUMPDEST PUSH1 0x0 DUP1 MLOAD PUSH1 0x20 PUSH2 0x180E DUP4 CODECOPY DUP2 MLOAD SWAP2 MSTORE SLOAD PUSH1 0x2 SUB PUSH2 0xA5D JUMPI PUSH1 0x40 MLOAD PUSH4 0x3EE5AEB5 PUSH1 0xE0 SHL DUP2 MSTORE PUSH1 0x4 ADD PUSH1 0x40 MLOAD DUP1 SWAP2 SUB SWAP1 REVERT JUMPDEST PUSH4 0x4E487B71 PUSH1 0xE0 SHL PUSH1 0x0 MSTORE PUSH1 0x11 PUSH1 0x4 MSTORE PUSH1 0x24 PUSH1 0x0 REVERT JUMPDEST DUP1 DUP3 ADD DUP1 DUP3 GT ISZERO PUSH2 0x163B JUMPI PUSH2 0x163B PUSH2 0x1612 JUMP JUMPDEST SWAP3 SWAP2 POP POP JUMP JUMPDEST PUSH1 0x1 PUSH1 0x1 PUSH1 0xA0 SHL SUB DUP2 AND DUP2 EQ PUSH2 0x149C JUMPI PUSH1 0x0 DUP1 REVERT JUMPDEST PUSH1 0x0 PUSH1 0x20 DUP3 DUP5 SUB SLT ISZERO PUSH2 0x1668 JUMPI PUSH1 0x0 DUP1 REVERT JUMPDEST DUP2 CALLDATALOAD PUSH2 0x1673 DUP2 PUSH2 0x1641 JUMP JUMPDEST SWAP4 SWAP3 POP POP POP JUMP JUMPDEST PUSH1 0x0 DUP1 PUSH1 0x40 DUP4 DUP6 SUB SLT ISZERO PUSH2 0x168D JUMPI PUSH1 0x0 DUP1 REVERT JUMPDEST DUP3 CALLDATALOAD PUSH2 0x1698 DUP2 PUSH2 0x1641 JUMP JUMPDEST SWAP5 PUSH1 0x20 SWAP4 SWAP1 SWAP4 ADD CALLDATALOAD SWAP4 POP POP POP JUMP JUMPDEST PUSH1 0x0 DUP1 PUSH1 0x40 DUP4 DUP6 SUB SLT ISZERO PUSH2 0x16B9 JUMPI PUSH1 0x0 DUP1 REVERT JUMPDEST POP POP DUP1 CALLDATALOAD SWAP3 PUSH1 0x20 SWAP1 SWAP2 ADD CALLDATALOAD SWAP2 POP JUMP JUMPDEST PUSH1 0x0 PUSH1 0x20 DUP3 DUP5 SUB SLT ISZERO PUSH2 0x16DA JUMPI PUSH1 0x0 DUP1 REVERT JUMPDEST POP CALLDATALOAD SWAP2 SWAP1 POP JUMP JUMPDEST PUSH1 0x0 DUP1 PUSH1 0x40 DUP4 DUP6 SUB SLT ISZERO PUSH2 0x16F4 JUMPI PUSH1 0x0 DUP1 REVERT JUMPDEST DUP3 CALLDATALOAD PUSH2 0x16FF DUP2 PUSH2 0x1641 JUMP JUMPDEST SWAP2 POP PUSH1 0x20 DUP4 ADD CALLDATALOAD DUP1 ISZERO ISZERO DUP2 EQ PUSH2 0x1714 JUMPI PUSH1 0x0 DUP1 REVERT JUMPDEST DUP1 SWAP2 POP POP SWAP3 POP SWAP3 SWAP1 POP JUMP JUMPDEST PUSH1 0x0 PUSH1 0x20 DUP3 DUP5 SUB SLT ISZERO PUSH2 0x1731 JUMPI PUSH1 0x0 DUP1 REVERT JUMPDEST POP MLOAD SWAP2 SWAP1 POP JUMP JUMPDEST DUP1 MLOAD PUSH1 0x1 PUSH1 0x1 PUSH1 0x70 SHL SUB DUP2 AND DUP2 EQ PUSH2 0x174F JUMPI PUSH1 0x0 DUP1 REVERT JUMPDEST SWAP2 SWAP1 POP JUMP JUMPDEST PUSH1 0x0 DUP1 PUSH1 0x0 PUSH1 0x60 DUP5 DUP7 SUB SLT ISZERO PUSH2 0x1769 JUMPI PUSH1 0x0 DUP1 REVERT JUMPDEST PUSH2 0x1772 DUP5 PUSH2 0x1738 JUMP JUMPDEST SWAP3 POP PUSH2 0x1780 PUSH1 0x20 DUP6 ADD PUSH2 0x1738 JUMP JUMPDEST SWAP2 POP PUSH1 0x40 DUP5 ADD MLOAD PUSH4 0xFFFFFFFF DUP2 AND DUP2 EQ PUSH2 0x1799 JUMPI PUSH1 0x0 DUP1 REVERT JUMPDEST DUP1 SWAP2 POP POP SWAP3 POP SWAP3 POP SWAP3 JUMP JUMPDEST PUSH1 0x0 PUSH1 0x20 DUP3 DUP5 SUB SLT ISZERO PUSH2 0x17B6 JUMPI PUSH1 0x0 DUP1 REVERT JUMPDEST DUP2 MLOAD PUSH2 0x1673 DUP2 PUSH2 0x1641 JUMP JUMPDEST DUP1 DUP3 MUL DUP2 ISZERO DUP3 DUP3 DIV DUP5 EQ OR PUSH2 0x163B JUMPI PUSH2 0x163B PUSH2 0x1612 JUMP JUMPDEST PUSH1 0x0 DUP3 PUSH2 0x17F5 JUMPI PUSH4 0x4E487B71 PUSH1 0xE0 SHL PUSH1 0x0 MSTORE PUSH1 0x12 PUSH1 0x4 MSTORE PUSH1 0x24 PUSH1 0x0 REVERT JUMPDEST POP DIV SWAP1 JUMP JUMPDEST DUP2 DUP2 SUB DUP2 DUP2 GT ISZERO PUSH2 0x163B JUMPI PUSH2 0x163B PUSH2 0x1612 JUMP INVALID SWAP12 PUSH24 0x9B17422D0DF92223018B32B4D1FA46E071723D6817E2486D STOP EXTCODESIZE 0xEC 0xC5 PUSH0 STOP LOG2 PUSH5 0x6970667358 0x22 SLT KECCAK256 0xCF PUSH18 0xAFDE8D757BEABDF2AB967A329D9FDDD393C8 0x2C LT 0xBF 0xEE PUSH18 0x3D05B9E41C20E364736F6C63430008140033 "
				},
				"gasEstimates": {
					"creation": {
						"codeDepositCost": "1248600",
						"executionCost": "infinite",
						"totalCost": "infinite"
					},
					"external": {
						"authorisedFeeSenders(address)": "2594",
						"buybackBurnRatio()": "2385",
						"distributeToPot(uint256)": "infinite",
						"distributeToStaking(uint256,uint256)": "infinite",
						"ethBalance()": "262",
						"executeBuyback(uint256,uint256)": "infinite",
						"getStats()": "8713",
						"owner()": "2388",
						"prizeEscrow()": "2417",
						"receiveFees()": "25987",
						"renounceOwnership()": "infinite",
						"setBuybackBurnRatio(uint256)": "25624",
						"setFeeSender(address,bool)": "28437",
						"setPrizeEscrow(address)": "27948",
						"setStakingDistributionPeriod(uint256)": "24600",
						"setTimbStaking(address)": "27992",
						"setTimbsEthPair(address)": "27949",
						"stakingDistributionPeriod()": "2385",
						"timbStaking()": "2438",
						"timbsBalance()": "infinite",
						"timbsEthPair()": "2437",
						"timbsToken()": "infinite",
						"totalFeesReceived()": "2362",
						"totalPotFunded()": "2341",
						"totalTimbsBurned()": "2341",
						"totalTimbsDistributed()": "2339",
						"transferOwnership(address)": "infinite",
						"withdrawOperational(address,uint256)": "infinite"
					}
				},
				"methodIdentifiers": {
					"authorisedFeeSenders(address)": "175ed4ba",
					"buybackBurnRatio()": "5a778c0f",
					"distributeToPot(uint256)": "eb164026",
					"distributeToStaking(uint256,uint256)": "330ac98d",
					"ethBalance()": "4e6630b0",
					"executeBuyback(uint256,uint256)": "97975c75",
					"getStats()": "c59d4847",
					"owner()": "8da5cb5b",
					"prizeEscrow()": "1a3b8e8c",
					"receiveFees()": "f60bb720",
					"renounceOwnership()": "715018a6",
					"setBuybackBurnRatio(uint256)": "b9e4355a",
					"setFeeSender(address,bool)": "ad8944da",
					"setPrizeEscrow(address)": "5f303f1c",
					"setStakingDistributionPeriod(uint256)": "85654e9a",
					"setTimbStaking(address)": "9fe65f19",
					"setTimbsEthPair(address)": "23f49b92",
					"stakingDistributionPeriod()": "926b7189",
					"timbStaking()": "34e908a7",
					"timbsBalance()": "d61b4497",
					"timbsEthPair()": "86507218",
					"timbsToken()": "0e31648f",
					"totalFeesReceived()": "9fbaf3de",
					"totalPotFunded()": "3c3fc552",
					"totalTimbsBurned()": "8bdcf669",
					"totalTimbsDistributed()": "e90900af",
					"transferOwnership(address)": "f2fde38b",
					"withdrawOperational(address,uint256)": "2cb97183"
				}
			},
			"storageLayout": {
				"storage": [
					{
						"astId": 8,
						"contract": "contractss/TimbTreasury.sol:TimbTreasury",
						"label": "_owner",
						"offset": 0,
						"slot": "0",
						"type": "t_address"
					},
					{
						"astId": 1122,
						"contract": "contractss/TimbTreasury.sol:TimbTreasury",
						"label": "timbStaking",
						"offset": 0,
						"slot": "1",
						"type": "t_address"
					},
					{
						"astId": 1125,
						"contract": "contractss/TimbTreasury.sol:TimbTreasury",
						"label": "prizeEscrow",
						"offset": 0,
						"slot": "2",
						"type": "t_address"
					},
					{
						"astId": 1128,
						"contract": "contractss/TimbTreasury.sol:TimbTreasury",
						"label": "timbsEthPair",
						"offset": 0,
						"slot": "3",
						"type": "t_address"
					},
					{
						"astId": 1131,
						"contract": "contractss/TimbTreasury.sol:TimbTreasury",
						"label": "buybackBurnRatio",
						"offset": 0,
						"slot": "4",
						"type": "t_uint256"
					},
					{
						"astId": 1134,
						"contract": "contractss/TimbTreasury.sol:TimbTreasury",
						"label": "stakingDistributionPeriod",
						"offset": 0,
						"slot": "5",
						"type": "t_uint256"
					},
					{
						"astId": 1139,
						"contract": "contractss/TimbTreasury.sol:TimbTreasury",
						"label": "authorisedFeeSenders",
						"offset": 0,
						"slot": "6",
						"type": "t_mapping(t_address,t_bool)"
					},
					{
						"astId": 1142,
						"contract": "contractss/TimbTreasury.sol:TimbTreasury",
						"label": "totalFeesReceived",
						"offset": 0,
						"slot": "7",
						"type": "t_uint256"
					},
					{
						"astId": 1145,
						"contract": "contractss/TimbTreasury.sol:TimbTreasury",
						"label": "totalTimbsBurned",
						"offset": 0,
						"slot": "8",
						"type": "t_uint256"
					},
					{
						"astId": 1148,
						"contract": "contractss/TimbTreasury.sol:TimbTreasury",
						"label": "totalTimbsDistributed",
						"offset": 0,
						"slot": "9",
						"type": "t_uint256"
					},
					{
						"astId": 1151,
						"contract": "contractss/TimbTreasury.sol:TimbTreasury",
						"label": "totalPotFunded",
						"offset": 0,
						"slot": "10",
						"type": "t_uint256"
					}
				],
				"types": {
					"t_address": {
						"encoding": "inplace",
						"label": "address",
						"numberOfBytes": "20"
					},
					"t_bool": {
						"encoding": "inplace",
						"label": "bool",
						"numberOfBytes": "1"
					},
					"t_mapping(t_address,t_bool)": {
						"encoding": "mapping",
						"key": "t_address",
						"label": "mapping(address => bool)",
						"numberOfBytes": "32",
						"value": "t_bool"
					},
					"t_uint256": {
						"encoding": "inplace",
						"label": "uint256",
						"numberOfBytes": "32"
					}
				}
			},
			"userdoc": {
				"kind": "user",
				"methods": {
					"authorisedFeeSenders(address)": {
						"notice": "Authorised callers for receiveFees() (Router, TimbPrize)."
					},
					"buybackBurnRatio()": {
						"notice": "% of purchased TIMBS that gets burned (0–100).         Remainder distributed to TimbStaking."
					},
					"distributeToPot(uint256)": {
						"notice": "Send ETH from treasury to PrizeEscrow to top up prize pot."
					},
					"distributeToStaking(uint256,uint256)": {
						"notice": "Top up TimbStaking rewards directly with TIMBS from treasury."
					},
					"ethBalance()": {
						"notice": "Returns treasury ETH balance."
					},
					"executeBuyback(uint256,uint256)": {
						"notice": "Execute a TIMBS buyback using ETH held in treasury."
					},
					"getStats()": {
						"notice": "Returns lifetime treasury stats."
					},
					"prizeEscrow()": {
						"notice": "PrizeEscrow — receives ETH pot top-ups."
					},
					"receiveFees()": {
						"notice": "Receive protocol fees from Router or TimbPrize."
					},
					"setBuybackBurnRatio(uint256)": {
						"notice": "Set buyback burn ratio (0–100).         0 = all to staking, 100 = all burned."
					},
					"stakingDistributionPeriod()": {
						"notice": "Default staking distribution period when topping up staking."
					},
					"timbStaking()": {
						"notice": "TimbStaking — receives TIMBS distribution share of buyback."
					},
					"timbsBalance()": {
						"notice": "Returns treasury TIMBS balance."
					},
					"timbsEthPair()": {
						"notice": "TIMBS/ETH AMM pair — used for buyback execution."
					},
					"timbsToken()": {
						"notice": "TIMBS token — purchased in buybacks, burned or distributed."
					},
					"totalFeesReceived()": {
						"notice": "Total ETH received as protocol fees (lifetime)."
					},
					"totalPotFunded()": {
						"notice": "Total ETH sent to prize pot (lifetime)."
					},
					"totalTimbsBurned()": {
						"notice": "Total TIMBS burned via buybacks (lifetime)."
					},
					"totalTimbsDistributed()": {
						"notice": "Total TIMBS distributed to stakers via buybacks (lifetime)."
					},
					"withdrawOperational(address,uint256)": {
						"notice": "Withdraw ETH for operational expenses (owner only)."
					}
				},
				"notice": "Protocol fee routing, buyback execution, and revenue distribution. Revenue inflows:   - 0.05% protocol swap fee (from TimbSwapRouter)   - Round settlement cut from TimbPrize (owner-set %)   - Expired unclaimed winnings dividend (owner-toggle)   - Direct owner deposits (operations, grants) Revenue outflows:   - Buyback: uses ETH to purchase TIMBS from TIMBS/ETH pair       └── buybackBurnRatio% of purchased TIMBS → burned       └── (100 - buybackBurnRatio)% → TimbStaking distributions   - Prize pot top-up → PrizeEscrow   - Staking reward top-up → TimbStaking.notifyRewardAmount()   - Operations → owner wallet (manual) Security:   - ReentrancyGuard on executeBuyback(), distributeToPot(), distributeToStaking().   - Buyback slippage protection: minTimbsOut parameter.   - Only owner executes buybacks and distributions.   - TIMBS burn via TIMBSToken.burn() — irreversible.   - SafeERC20 on all token operations.   - ETH never held beyond operational needs — distributed promptly. Deployment:   1. Deploy TimbTreasury(timbsToken, timbStaking, prizeEscrow, pair)   2. router.setTreasury(address(this))   3. timbStaking.setTreasury(address(this))   4. prizeEscrow owner deposits routed here   5. Verify on Sourcify",
				"version": 1
			}
		}
	}
}