{
	"contracts/TimbSwapRouter.sol": {
		"TimbSwapRouter": {
			"abi": [
				{
					"inputs": [
						{
							"internalType": "address",
							"name": "_factory",
							"type": "address"
						},
						{
							"internalType": "address",
							"name": "_treasury",
							"type": "address"
						},
						{
							"internalType": "address",
							"name": "_eligibleRegistry",
							"type": "address"
						},
						{
							"internalType": "address",
							"name": "_timbPrize",
							"type": "address"
						}
					],
					"stateMutability": "nonpayable",
					"type": "constructor"
				},
				{
					"inputs": [],
					"name": "ExcessiveInputAmount",
					"type": "error"
				},
				{
					"inputs": [
						{
							"internalType": "uint256",
							"name": "deadline",
							"type": "uint256"
						}
					],
					"name": "Expired",
					"type": "error"
				},
				{
					"inputs": [
						{
							"internalType": "uint256",
							"name": "amountA",
							"type": "uint256"
						},
						{
							"internalType": "uint256",
							"name": "amountAMin",
							"type": "uint256"
						}
					],
					"name": "InsufficientAAmount",
					"type": "error"
				},
				{
					"inputs": [
						{
							"internalType": "uint256",
							"name": "amountB",
							"type": "uint256"
						},
						{
							"internalType": "uint256",
							"name": "amountBMin",
							"type": "uint256"
						}
					],
					"name": "InsufficientBAmount",
					"type": "error"
				},
				{
					"inputs": [],
					"name": "InsufficientLiquidity",
					"type": "error"
				},
				{
					"inputs": [
						{
							"internalType": "uint256",
							"name": "amountOut",
							"type": "uint256"
						},
						{
							"internalType": "uint256",
							"name": "amountOutMin",
							"type": "uint256"
						}
					],
					"name": "InsufficientOutputAmount",
					"type": "error"
				},
				{
					"inputs": [
						{
							"internalType": "address",
							"name": "owner",
							"type": "address"
						}
					],
					"name": "OwnableInvalidOwner",
					"type": "error"
				},
				{
					"inputs": [
						{
							"internalType": "address",
							"name": "account",
							"type": "address"
						}
					],
					"name": "OwnableUnauthorizedAccount",
					"type": "error"
				},
				{
					"inputs": [
						{
							"internalType": "address",
							"name": "tokenA",
							"type": "address"
						},
						{
							"internalType": "address",
							"name": "tokenB",
							"type": "address"
						}
					],
					"name": "PairNotFound",
					"type": "error"
				},
				{
					"inputs": [],
					"name": "ReentrancyGuardReentrantCall",
					"type": "error"
				},
				{
					"inputs": [],
					"name": "RefundFailed",
					"type": "error"
				},
				{
					"inputs": [],
					"name": "RouterPaused",
					"type": "error"
				},
				{
					"inputs": [
						{
							"internalType": "address",
							"name": "token",
							"type": "address"
						}
					],
					"name": "SafeERC20FailedOperation",
					"type": "error"
				},
				{
					"inputs": [],
					"name": "WethNotSet",
					"type": "error"
				},
				{
					"inputs": [],
					"name": "ZeroAddress",
					"type": "error"
				},
				{
					"inputs": [],
					"name": "ZeroAmount",
					"type": "error"
				},
				{
					"anonymous": false,
					"inputs": [
						{
							"indexed": true,
							"internalType": "address",
							"name": "registry",
							"type": "address"
						}
					],
					"name": "EligibleRegistrySet",
					"type": "event"
				},
				{
					"anonymous": false,
					"inputs": [
						{
							"indexed": true,
							"internalType": "address",
							"name": "pair",
							"type": "address"
						},
						{
							"indexed": true,
							"internalType": "address",
							"name": "provider",
							"type": "address"
						},
						{
							"indexed": false,
							"internalType": "uint256",
							"name": "amountA",
							"type": "uint256"
						},
						{
							"indexed": false,
							"internalType": "uint256",
							"name": "amountB",
							"type": "uint256"
						},
						{
							"indexed": false,
							"internalType": "uint256",
							"name": "liquidity",
							"type": "uint256"
						}
					],
					"name": "LiquidityAdded",
					"type": "event"
				},
				{
					"anonymous": false,
					"inputs": [
						{
							"indexed": true,
							"internalType": "address",
							"name": "pair",
							"type": "address"
						},
						{
							"indexed": true,
							"internalType": "address",
							"name": "provider",
							"type": "address"
						},
						{
							"indexed": false,
							"internalType": "uint256",
							"name": "amountA",
							"type": "uint256"
						},
						{
							"indexed": false,
							"internalType": "uint256",
							"name": "amountB",
							"type": "uint256"
						},
						{
							"indexed": false,
							"internalType": "uint256",
							"name": "liquidity",
							"type": "uint256"
						}
					],
					"name": "LiquidityRemoved",
					"type": "event"
				},
				{
					"anonymous": false,
					"inputs": [
						{
							"indexed": true,
							"internalType": "address",
							"name": "previousOwner",
							"type": "address"
						},
						{
							"indexed": true,
							"internalType": "address",
							"name": "newOwner",
							"type": "address"
						}
					],
					"name": "OwnershipTransferred",
					"type": "event"
				},
				{
					"anonymous": false,
					"inputs": [
						{
							"indexed": true,
							"internalType": "address",
							"name": "by",
							"type": "address"
						}
					],
					"name": "Paused",
					"type": "event"
				},
				{
					"anonymous": false,
					"inputs": [
						{
							"indexed": true,
							"internalType": "address",
							"name": "treasury",
							"type": "address"
						},
						{
							"indexed": true,
							"internalType": "address",
							"name": "token",
							"type": "address"
						},
						{
							"indexed": false,
							"internalType": "uint256",
							"name": "amount",
							"type": "uint256"
						}
					],
					"name": "ProtocolFeeSent",
					"type": "event"
				},
				{
					"anonymous": false,
					"inputs": [
						{
							"indexed": true,
							"internalType": "address",
							"name": "swapper",
							"type": "address"
						},
						{
							"indexed": true,
							"internalType": "address",
							"name": "tokenIn",
							"type": "address"
						}
					],
					"name": "ScrollNudged",
					"type": "event"
				},
				{
					"anonymous": false,
					"inputs": [
						{
							"indexed": false,
							"internalType": "address",
							"name": "sender",
							"type": "address"
						},
						{
							"indexed": false,
							"internalType": "address",
							"name": "tokenIn",
							"type": "address"
						},
						{
							"indexed": false,
							"internalType": "address",
							"name": "tokenOut",
							"type": "address"
						},
						{
							"indexed": false,
							"internalType": "uint256",
							"name": "amountIn",
							"type": "uint256"
						},
						{
							"indexed": false,
							"internalType": "uint256",
							"name": "amountOut",
							"type": "uint256"
						},
						{
							"indexed": false,
							"internalType": "address",
							"name": "to",
							"type": "address"
						}
					],
					"name": "SwapExecuted",
					"type": "event"
				},
				{
					"anonymous": false,
					"inputs": [
						{
							"indexed": true,
							"internalType": "address",
							"name": "timbPrize",
							"type": "address"
						}
					],
					"name": "TimbPrizeSet",
					"type": "event"
				},
				{
					"anonymous": false,
					"inputs": [
						{
							"indexed": true,
							"internalType": "address",
							"name": "oldTreasury",
							"type": "address"
						},
						{
							"indexed": true,
							"internalType": "address",
							"name": "newTreasury",
							"type": "address"
						}
					],
					"name": "TreasuryUpdated",
					"type": "event"
				},
				{
					"anonymous": false,
					"inputs": [
						{
							"indexed": true,
							"internalType": "address",
							"name": "by",
							"type": "address"
						}
					],
					"name": "Unpaused",
					"type": "event"
				},
				{
					"inputs": [],
					"name": "BPS_DENOMINATOR",
					"outputs": [
						{
							"internalType": "uint256",
							"name": "",
							"type": "uint256"
						}
					],
					"stateMutability": "view",
					"type": "function"
				},
				{
					"inputs": [],
					"name": "PROTOCOL_FEE_BPS",
					"outputs": [
						{
							"internalType": "uint256",
							"name": "",
							"type": "uint256"
						}
					],
					"stateMutability": "view",
					"type": "function"
				},
				{
					"inputs": [
						{
							"internalType": "address",
							"name": "tokenA",
							"type": "address"
						},
						{
							"internalType": "address",
							"name": "tokenB",
							"type": "address"
						},
						{
							"internalType": "uint256",
							"name": "amountADesired",
							"type": "uint256"
						},
						{
							"internalType": "uint256",
							"name": "amountBDesired",
							"type": "uint256"
						},
						{
							"internalType": "uint256",
							"name": "amountAMin",
							"type": "uint256"
						},
						{
							"internalType": "uint256",
							"name": "amountBMin",
							"type": "uint256"
						},
						{
							"internalType": "address",
							"name": "to",
							"type": "address"
						},
						{
							"internalType": "uint256",
							"name": "deadline",
							"type": "uint256"
						}
					],
					"name": "addLiquidity",
					"outputs": [
						{
							"internalType": "uint256",
							"name": "amountA",
							"type": "uint256"
						},
						{
							"internalType": "uint256",
							"name": "amountB",
							"type": "uint256"
						},
						{
							"internalType": "uint256",
							"name": "liquidity",
							"type": "uint256"
						}
					],
					"stateMutability": "nonpayable",
					"type": "function"
				},
				{
					"inputs": [
						{
							"internalType": "address",
							"name": "token",
							"type": "address"
						},
						{
							"internalType": "uint256",
							"name": "amountTokenDesired",
							"type": "uint256"
						},
						{
							"internalType": "uint256",
							"name": "amountTokenMin",
							"type": "uint256"
						},
						{
							"internalType": "uint256",
							"name": "amountETHMin",
							"type": "uint256"
						},
						{
							"internalType": "address",
							"name": "to",
							"type": "address"
						},
						{
							"internalType": "uint256",
							"name": "deadline",
							"type": "uint256"
						}
					],
					"name": "addLiquidityETH",
					"outputs": [
						{
							"internalType": "uint256",
							"name": "amountToken",
							"type": "uint256"
						},
						{
							"internalType": "uint256",
							"name": "amountETH",
							"type": "uint256"
						},
						{
							"internalType": "uint256",
							"name": "liquidity",
							"type": "uint256"
						}
					],
					"stateMutability": "payable",
					"type": "function"
				},
				{
					"inputs": [],
					"name": "eligibleRegistry",
					"outputs": [
						{
							"internalType": "address",
							"name": "",
							"type": "address"
						}
					],
					"stateMutability": "view",
					"type": "function"
				},
				{
					"inputs": [],
					"name": "factory",
					"outputs": [
						{
							"internalType": "address",
							"name": "",
							"type": "address"
						}
					],
					"stateMutability": "view",
					"type": "function"
				},
				{
					"inputs": [
						{
							"internalType": "uint256",
							"name": "amountOut",
							"type": "uint256"
						},
						{
							"internalType": "uint256",
							"name": "reserveIn",
							"type": "uint256"
						},
						{
							"internalType": "uint256",
							"name": "reserveOut",
							"type": "uint256"
						}
					],
					"name": "getAmountIn",
					"outputs": [
						{
							"internalType": "uint256",
							"name": "",
							"type": "uint256"
						}
					],
					"stateMutability": "pure",
					"type": "function"
				},
				{
					"inputs": [
						{
							"internalType": "uint256",
							"name": "amountIn",
							"type": "uint256"
						},
						{
							"internalType": "uint256",
							"name": "reserveIn",
							"type": "uint256"
						},
						{
							"internalType": "uint256",
							"name": "reserveOut",
							"type": "uint256"
						}
					],
					"name": "getAmountOut",
					"outputs": [
						{
							"internalType": "uint256",
							"name": "",
							"type": "uint256"
						}
					],
					"stateMutability": "pure",
					"type": "function"
				},
				{
					"inputs": [
						{
							"internalType": "address",
							"name": "tokenA",
							"type": "address"
						},
						{
							"internalType": "address",
							"name": "tokenB",
							"type": "address"
						}
					],
					"name": "getReserves",
					"outputs": [
						{
							"internalType": "uint256",
							"name": "reserveA",
							"type": "uint256"
						},
						{
							"internalType": "uint256",
							"name": "reserveB",
							"type": "uint256"
						}
					],
					"stateMutability": "view",
					"type": "function"
				},
				{
					"inputs": [],
					"name": "owner",
					"outputs": [
						{
							"internalType": "address",
							"name": "",
							"type": "address"
						}
					],
					"stateMutability": "view",
					"type": "function"
				},
				{
					"inputs": [],
					"name": "pause",
					"outputs": [],
					"stateMutability": "nonpayable",
					"type": "function"
				},
				{
					"inputs": [],
					"name": "paused",
					"outputs": [
						{
							"internalType": "bool",
							"name": "",
							"type": "bool"
						}
					],
					"stateMutability": "view",
					"type": "function"
				},
				{
					"inputs": [
						{
							"internalType": "uint256",
							"name": "amountA",
							"type": "uint256"
						},
						{
							"internalType": "uint256",
							"name": "reserveA",
							"type": "uint256"
						},
						{
							"internalType": "uint256",
							"name": "reserveB",
							"type": "uint256"
						}
					],
					"name": "quote",
					"outputs": [
						{
							"internalType": "uint256",
							"name": "",
							"type": "uint256"
						}
					],
					"stateMutability": "pure",
					"type": "function"
				},
				{
					"inputs": [
						{
							"internalType": "address",
							"name": "tokenA",
							"type": "address"
						},
						{
							"internalType": "address",
							"name": "tokenB",
							"type": "address"
						},
						{
							"internalType": "uint256",
							"name": "liquidity",
							"type": "uint256"
						},
						{
							"internalType": "uint256",
							"name": "amountAMin",
							"type": "uint256"
						},
						{
							"internalType": "uint256",
							"name": "amountBMin",
							"type": "uint256"
						},
						{
							"internalType": "address",
							"name": "to",
							"type": "address"
						},
						{
							"internalType": "uint256",
							"name": "deadline",
							"type": "uint256"
						}
					],
					"name": "removeLiquidity",
					"outputs": [
						{
							"internalType": "uint256",
							"name": "amountA",
							"type": "uint256"
						},
						{
							"internalType": "uint256",
							"name": "amountB",
							"type": "uint256"
						}
					],
					"stateMutability": "nonpayable",
					"type": "function"
				},
				{
					"inputs": [
						{
							"internalType": "address",
							"name": "token",
							"type": "address"
						},
						{
							"internalType": "uint256",
							"name": "liquidity",
							"type": "uint256"
						},
						{
							"internalType": "uint256",
							"name": "amountTokenMin",
							"type": "uint256"
						},
						{
							"internalType": "uint256",
							"name": "amountETHMin",
							"type": "uint256"
						},
						{
							"internalType": "address",
							"name": "to",
							"type": "address"
						},
						{
							"internalType": "uint256",
							"name": "deadline",
							"type": "uint256"
						}
					],
					"name": "removeLiquidityETH",
					"outputs": [
						{
							"internalType": "uint256",
							"name": "amountToken",
							"type": "uint256"
						},
						{
							"internalType": "uint256",
							"name": "amountETH",
							"type": "uint256"
						}
					],
					"stateMutability": "nonpayable",
					"type": "function"
				},
				{
					"inputs": [],
					"name": "renounceOwnership",
					"outputs": [],
					"stateMutability": "nonpayable",
					"type": "function"
				},
				{
					"inputs": [
						{
							"internalType": "address",
							"name": "_r",
							"type": "address"
						}
					],
					"name": "setEligibleRegistry",
					"outputs": [],
					"stateMutability": "nonpayable",
					"type": "function"
				},
				{
					"inputs": [
						{
							"internalType": "address",
							"name": "_p",
							"type": "address"
						}
					],
					"name": "setTimbPrize",
					"outputs": [],
					"stateMutability": "nonpayable",
					"type": "function"
				},
				{
					"inputs": [
						{
							"internalType": "address",
							"name": "_treasury",
							"type": "address"
						}
					],
					"name": "setTreasury",
					"outputs": [],
					"stateMutability": "nonpayable",
					"type": "function"
				},
				{
					"inputs": [
						{
							"internalType": "address",
							"name": "_weth",
							"type": "address"
						}
					],
					"name": "setWeth",
					"outputs": [],
					"stateMutability": "nonpayable",
					"type": "function"
				},
				{
					"inputs": [
						{
							"internalType": "uint256",
							"name": "amountIn",
							"type": "uint256"
						},
						{
							"internalType": "uint256",
							"name": "amountOutMin",
							"type": "uint256"
						},
						{
							"internalType": "address",
							"name": "tokenIn",
							"type": "address"
						},
						{
							"internalType": "address",
							"name": "tokenOut",
							"type": "address"
						},
						{
							"internalType": "address",
							"name": "to",
							"type": "address"
						},
						{
							"internalType": "uint256",
							"name": "deadline",
							"type": "uint256"
						},
						{
							"internalType": "bool",
							"name": "influencePrize",
							"type": "bool"
						}
					],
					"name": "swapExactTokensForTokens",
					"outputs": [
						{
							"internalType": "uint256",
							"name": "amountOut",
							"type": "uint256"
						}
					],
					"stateMutability": "nonpayable",
					"type": "function"
				},
				{
					"inputs": [
						{
							"internalType": "uint256",
							"name": "amountOut",
							"type": "uint256"
						},
						{
							"internalType": "uint256",
							"name": "amountInMax",
							"type": "uint256"
						},
						{
							"internalType": "address",
							"name": "tokenIn",
							"type": "address"
						},
						{
							"internalType": "address",
							"name": "tokenOut",
							"type": "address"
						},
						{
							"internalType": "address",
							"name": "to",
							"type": "address"
						},
						{
							"internalType": "uint256",
							"name": "deadline",
							"type": "uint256"
						},
						{
							"internalType": "bool",
							"name": "influencePrize",
							"type": "bool"
						}
					],
					"name": "swapTokensForExactTokens",
					"outputs": [
						{
							"internalType": "uint256",
							"name": "amountIn",
							"type": "uint256"
						}
					],
					"stateMutability": "nonpayable",
					"type": "function"
				},
				{
					"inputs": [],
					"name": "timbPrize",
					"outputs": [
						{
							"internalType": "address",
							"name": "",
							"type": "address"
						}
					],
					"stateMutability": "view",
					"type": "function"
				},
				{
					"inputs": [
						{
							"internalType": "address",
							"name": "newOwner",
							"type": "address"
						}
					],
					"name": "transferOwnership",
					"outputs": [],
					"stateMutability": "nonpayable",
					"type": "function"
				},
				{
					"inputs": [],
					"name": "treasury",
					"outputs": [
						{
							"internalType": "address",
							"name": "",
							"type": "address"
						}
					],
					"stateMutability": "view",
					"type": "function"
				},
				{
					"inputs": [],
					"name": "unpause",
					"outputs": [],
					"stateMutability": "nonpayable",
					"type": "function"
				},
				{
					"inputs": [],
					"name": "weth",
					"outputs": [
						{
							"internalType": "address",
							"name": "",
							"type": "address"
						}
					],
					"stateMutability": "view",
					"type": "function"
				},
				{
					"stateMutability": "payable",
					"type": "receive"
				}
			],
			"devdoc": {
				"errors": {
					"OwnableInvalidOwner(address)": [
						{
							"details": "The owner is not a valid owner account. (eg. `address(0)`)"
						}
					],
					"OwnableUnauthorizedAccount(address)": [
						{
							"details": "The caller account is not authorized to perform an operation."
						}
					],
					"ReentrancyGuardReentrantCall()": [
						{
							"details": "Unauthorized reentrant call."
						}
					],
					"SafeERC20FailedOperation(address)": [
						{
							"details": "An operation with an ERC-20 token failed."
						}
					]
				},
				"kind": "dev",
				"methods": {
					"owner()": {
						"details": "Returns the address of the current owner."
					},
					"renounceOwnership()": {
						"details": "Leaves the contract without owner. It will not be possible to call `onlyOwner` functions. Can only be called by the current owner. NOTE: Renouncing ownership will leave the contract without an owner, thereby disabling any functionality that is only available to the owner."
					},
					"transferOwnership(address)": {
						"details": "Transfers ownership of the contract to a new account (`newOwner`). Can only be called by the current owner."
					}
				},
				"title": "TimbSwapRouter",
				"version": 1
			},
			"evm": {
				"assembly": "    /* \"contracts/TimbSwapRouter.sol\":1883:24316  contract TimbSwapRouter is Ownable, ReentrancyGuard {... */\n  mstore(0x40, 0xa0)\n    /* \"contracts/TimbSwapRouter.sol\":5227:5666  constructor(... */\n  callvalue\n  dup1\n  iszero\n  tag_1\n  jumpi\n  0x00\n  dup1\n  revert\ntag_1:\n  pop\n  mload(0x40)\n  sub(codesize, bytecodeSize)\n  dup1\n  bytecodeSize\n  dup4\n  codecopy\n  dup2\n  dup2\n  add\n  0x40\n  mstore\n  dup2\n  add\n  swap1\n  tag_2\n  swap2\n  swap1\n  tag_3\n  jump\t// in\ntag_2:\n    /* \"contracts/TimbSwapRouter.sol\":5369:5379  msg.sender */\n  caller\n    /* \"@openzeppelin/contracts/access/Ownable.sol\":1297:1298  0 */\n  0x00\n    /* \"@openzeppelin/contracts/access/Ownable.sol\":1273:1299  initialOwner == address(0) */\n  0xffffffffffffffffffffffffffffffffffffffff\n  and\n    /* \"@openzeppelin/contracts/access/Ownable.sol\":1273:1285  initialOwner */\n  dup2\n    /* \"@openzeppelin/contracts/access/Ownable.sol\":1273:1299  initialOwner == address(0) */\n  0xffffffffffffffffffffffffffffffffffffffff\n  and\n  sub\n    /* \"@openzeppelin/contracts/access/Ownable.sol\":1269:1364  if (initialOwner == address(0)) {... */\n  tag_8\n  jumpi\n    /* \"@openzeppelin/contracts/access/Ownable.sol\":1350:1351  0 */\n  0x00\n    /* \"@openzeppelin/contracts/access/Ownable.sol\":1322:1353  OwnableInvalidOwner(address(0)) */\n  mload(0x40)\n  0x1e4fbdf700000000000000000000000000000000000000000000000000000000\n  dup2\n  mstore\n  0x04\n  add\n  tag_9\n  swap2\n  swap1\n  tag_10\n  jump\t// in\ntag_9:\n  mload(0x40)\n  dup1\n  swap2\n  sub\n  swap1\n  revert\n    /* \"@openzeppelin/contracts/access/Ownable.sol\":1269:1364  if (initialOwner == address(0)) {... */\ntag_8:\n    /* \"@openzeppelin/contracts/access/Ownable.sol\":1373:1405  _transferOwnership(initialOwner) */\n  tag_11\n    /* \"@openzeppelin/contracts/access/Ownable.sol\":1392:1404  initialOwner */\n  dup2\n    /* \"@openzeppelin/contracts/access/Ownable.sol\":1373:1391  _transferOwnership */\n  shl(0x20, tag_12)\n    /* \"@openzeppelin/contracts/access/Ownable.sol\":1373:1405  _transferOwnership(initialOwner) */\n  0x20\n  shr\n  jump\t// in\ntag_11:\n    /* \"@openzeppelin/contracts/access/Ownable.sol\":1225:1412  constructor(address initialOwner) {... */\n  pop\n    /* \"@openzeppelin/contracts/utils/ReentrancyGuard.sol\":2365:2366  1 */\n  0x01\n    /* \"@openzeppelin/contracts/utils/ReentrancyGuard.sol\":2539:2585  _reentrancyGuardStorageSlot().getUint256Slot() */\n  tag_14\n    /* \"@openzeppelin/contracts/utils/ReentrancyGuard.sol\":2539:2568  _reentrancyGuardStorageSlot() */\n  tag_15\n    /* \"@openzeppelin/contracts/utils/ReentrancyGuard.sol\":2539:2566  _reentrancyGuardStorageSlot */\n  shl(0x20, tag_16)\n    /* \"@openzeppelin/contracts/utils/ReentrancyGuard.sol\":2539:2568  _reentrancyGuardStorageSlot() */\n  0x20\n  shr\n  jump\t// in\ntag_15:\n    /* \"@openzeppelin/contracts/utils/ReentrancyGuard.sol\":2539:2583  _reentrancyGuardStorageSlot().getUint256Slot */\n  shl(0x20, tag_17)\n    /* \"@openzeppelin/contracts/utils/ReentrancyGuard.sol\":2539:2585  _reentrancyGuardStorageSlot().getUint256Slot() */\n  0x20\n  shr\n  jump\t// in\ntag_14:\n    /* \"@openzeppelin/contracts/utils/ReentrancyGuard.sol\":2539:2591  _reentrancyGuardStorageSlot().getUint256Slot().value */\n  0x00\n  add\n    /* \"@openzeppelin/contracts/utils/ReentrancyGuard.sol\":2539:2605  _reentrancyGuardStorageSlot().getUint256Slot().value = NOT_ENTERED */\n  dup2\n  swap1\n  sstore\n  pop\n    /* \"contracts/TimbSwapRouter.sol\":5416:5417  0 */\n  0x00\n    /* \"contracts/TimbSwapRouter.sol\":5395:5418  _factory  == address(0) */\n  0xffffffffffffffffffffffffffffffffffffffff\n  and\n    /* \"contracts/TimbSwapRouter.sol\":5395:5403  _factory */\n  dup5\n    /* \"contracts/TimbSwapRouter.sol\":5395:5418  _factory  == address(0) */\n  0xffffffffffffffffffffffffffffffffffffffff\n  and\n  sub\n    /* \"contracts/TimbSwapRouter.sol\":5391:5440  if (_factory  == address(0)) revert ZeroAddress() */\n  tag_19\n  jumpi\n    /* \"contracts/TimbSwapRouter.sol\":5427:5440  ZeroAddress() */\n  mload(0x40)\n  0xd92e233d00000000000000000000000000000000000000000000000000000000\n  dup2\n  mstore\n  0x04\n  add\n  mload(0x40)\n  dup1\n  swap2\n  sub\n  swap1\n  revert\n    /* \"contracts/TimbSwapRouter.sol\":5391:5440  if (_factory  == address(0)) revert ZeroAddress() */\ntag_19:\n    /* \"contracts/TimbSwapRouter.sol\":5475:5476  0 */\n  0x00\n    /* \"contracts/TimbSwapRouter.sol\":5454:5477  _treasury == address(0) */\n  0xffffffffffffffffffffffffffffffffffffffff\n  and\n    /* \"contracts/TimbSwapRouter.sol\":5454:5463  _treasury */\n  dup4\n    /* \"contracts/TimbSwapRouter.sol\":5454:5477  _treasury == address(0) */\n  0xffffffffffffffffffffffffffffffffffffffff\n  and\n  sub\n    /* \"contracts/TimbSwapRouter.sol\":5450:5499  if (_treasury == address(0)) revert ZeroAddress() */\n  tag_20\n  jumpi\n    /* \"contracts/TimbSwapRouter.sol\":5486:5499  ZeroAddress() */\n  mload(0x40)\n  0xd92e233d00000000000000000000000000000000000000000000000000000000\n  dup2\n  mstore\n  0x04\n  add\n  mload(0x40)\n  dup1\n  swap2\n  sub\n  swap1\n  revert\n    /* \"contracts/TimbSwapRouter.sol\":5450:5499  if (_treasury == address(0)) revert ZeroAddress() */\ntag_20:\n    /* \"contracts/TimbSwapRouter.sol\":5528:5536  _factory */\n  dup4\n    /* \"contracts/TimbSwapRouter.sol\":5509:5536  factory          = _factory */\n  0xffffffffffffffffffffffffffffffffffffffff\n  and\n  0x80\n  dup2\n  0xffffffffffffffffffffffffffffffffffffffff\n  and\n  dup2\n  mstore\n  pop\n  pop\n    /* \"contracts/TimbSwapRouter.sol\":5565:5574  _treasury */\n  dup3\n    /* \"contracts/TimbSwapRouter.sol\":5546:5554  treasury */\n  0x01\n  0x00\n    /* \"contracts/TimbSwapRouter.sol\":5546:5574  treasury         = _treasury */\n  0x0100\n  exp\n  dup2\n  sload\n  dup2\n  0xffffffffffffffffffffffffffffffffffffffff\n  mul\n  not\n  and\n  swap1\n  dup4\n  0xffffffffffffffffffffffffffffffffffffffff\n  and\n  mul\n  or\n  swap1\n  sstore\n  pop\n    /* \"contracts/TimbSwapRouter.sol\":5603:5620  _eligibleRegistry */\n  dup2\n    /* \"contracts/TimbSwapRouter.sol\":5584:5600  eligibleRegistry */\n  0x02\n  0x00\n    /* \"contracts/TimbSwapRouter.sol\":5584:5620  eligibleRegistry = _eligibleRegistry */\n  0x0100\n  exp\n  dup2\n  sload\n  dup2\n  0xffffffffffffffffffffffffffffffffffffffff\n  mul\n  not\n  and\n  swap1\n  dup4\n  0xffffffffffffffffffffffffffffffffffffffff\n  and\n  mul\n  or\n  swap1\n  sstore\n  pop\n    /* \"contracts/TimbSwapRouter.sol\":5649:5659  _timbPrize */\n  dup1\n    /* \"contracts/TimbSwapRouter.sol\":5630:5639  timbPrize */\n  0x03\n  0x00\n    /* \"contracts/TimbSwapRouter.sol\":5630:5659  timbPrize        = _timbPrize */\n  0x0100\n  exp\n  dup2\n  sload\n  dup2\n  0xffffffffffffffffffffffffffffffffffffffff\n  mul\n  not\n  and\n  swap1\n  dup4\n  0xffffffffffffffffffffffffffffffffffffffff\n  and\n  mul\n  or\n  swap1\n  sstore\n  pop\n    /* \"contracts/TimbSwapRouter.sol\":5227:5666  constructor(... */\n  pop\n  pop\n  pop\n  pop\n    /* \"contracts/TimbSwapRouter.sol\":1883:24316  contract TimbSwapRouter is Ownable, ReentrancyGuard {... */\n  jump(tag_21)\n    /* \"@openzeppelin/contracts/access/Ownable.sol\":2912:3099  function _transferOwnership(address newOwner) internal virtual {... */\ntag_12:\n    /* \"@openzeppelin/contracts/access/Ownable.sol\":2985:3001  address oldOwner */\n  0x00\n    /* \"@openzeppelin/contracts/access/Ownable.sol\":3004:3010  _owner */\n  dup1\n  0x00\n  swap1\n  sload\n  swap1\n  0x0100\n  exp\n  swap1\n  div\n  0xffffffffffffffffffffffffffffffffffffffff\n  and\n    /* \"@openzeppelin/contracts/access/Ownable.sol\":2985:3010  address oldOwner = _owner */\n  swap1\n  pop\n    /* \"@openzeppelin/contracts/access/Ownable.sol\":3029:3037  newOwner */\n  dup2\n    /* \"@openzeppelin/contracts/access/Ownable.sol\":3020:3026  _owner */\n  0x00\n  dup1\n    /* \"@openzeppelin/contracts/access/Ownable.sol\":3020:3037  _owner = newOwner */\n  0x0100\n  exp\n  dup2\n  sload\n  dup2\n  0xffffffffffffffffffffffffffffffffffffffff\n  mul\n  not\n  and\n  swap1\n  dup4\n  0xffffffffffffffffffffffffffffffffffffffff\n  and\n  mul\n  or\n  swap1\n  sstore\n  pop\n    /* \"@openzeppelin/contracts/access/Ownable.sol\":3083:3091  newOwner */\n  dup2\n    /* \"@openzeppelin/contracts/access/Ownable.sol\":3052:3092  OwnershipTransferred(oldOwner, newOwner) */\n  0xffffffffffffffffffffffffffffffffffffffff\n  and\n    /* \"@openzeppelin/contracts/access/Ownable.sol\":3073:3081  oldOwner */\n  dup2\n    /* \"@openzeppelin/contracts/access/Ownable.sol\":3052:3092  OwnershipTransferred(oldOwner, newOwner) */\n  0xffffffffffffffffffffffffffffffffffffffff\n  and\n  0x8be0079c531659141344cd1fd0a4f28419497f9722a3daafe3b4186f6b6457e0\n  mload(0x40)\n  mload(0x40)\n  dup1\n  swap2\n  sub\n  swap1\n  log3\n    /* \"@openzeppelin/contracts/access/Ownable.sol\":2975:3099  {... */\n  pop\n    /* \"@openzeppelin/contracts/access/Ownable.sol\":2912:3099  function _transferOwnership(address newOwner) internal virtual {... */\n  pop\n  jump\t// out\n    /* \"@openzeppelin/contracts/utils/ReentrancyGuard.sol\":4636:4763  function _reentrancyGuardStorageSlot() internal pure virtual returns (bytes32) {... */\ntag_16:\n    /* \"@openzeppelin/contracts/utils/ReentrancyGuard.sol\":4706:4713  bytes32 */\n  0x00\n    /* \"@openzeppelin/contracts/utils/ReentrancyGuard.sol\":1505:1571  0x9b779b17422d0df92223018b32b4d1fa46e071723d6817e2486d003becc55f00 */\n  0x9b779b17422d0df92223018b32b4d1fa46e071723d6817e2486d003becc55f00\n    /* \"@openzeppelin/contracts/utils/ReentrancyGuard.sol\":4732:4756  REENTRANCY_GUARD_STORAGE */\n  0x00\n  shl\n    /* \"@openzeppelin/contracts/utils/ReentrancyGuard.sol\":4725:4756  return REENTRANCY_GUARD_STORAGE */\n  swap1\n  pop\n    /* \"@openzeppelin/contracts/utils/ReentrancyGuard.sol\":4636:4763  function _reentrancyGuardStorageSlot() internal pure virtual returns (bytes32) {... */\n  swap1\n  jump\t// out\n    /* \"@openzeppelin/contracts/utils/StorageSlot.sol\":2679:2842  function getUint256Slot(bytes32 slot) internal pure returns (Uint256Slot storage r) {... */\ntag_17:\n    /* \"@openzeppelin/contracts/utils/StorageSlot.sol\":2740:2761  Uint256Slot storage r */\n  0x00\n    /* \"@openzeppelin/contracts/utils/StorageSlot.sol\":2822:2826  slot */\n  dup2\n    /* \"@openzeppelin/contracts/utils/StorageSlot.sol\":2812:2826  r.slot := slot */\n  swap1\n  pop\n    /* \"@openzeppelin/contracts/utils/StorageSlot.sol\":2679:2842  function getUint256Slot(bytes32 slot) internal pure returns (Uint256Slot storage r) {... */\n  swap2\n  swap1\n  pop\n  jump\t// out\n    /* \"#utility.yul\":88:205   */\ntag_26:\n    /* \"#utility.yul\":197:198   */\n  0x00\n    /* \"#utility.yul\":194:195   */\n  dup1\n    /* \"#utility.yul\":187:199   */\n  revert\n    /* \"#utility.yul\":334:460   */\ntag_28:\n    /* \"#utility.yul\":371:378   */\n  0x00\n    /* \"#utility.yul\":411:453   */\n  0xffffffffffffffffffffffffffffffffffffffff\n    /* \"#utility.yul\":404:409   */\n  dup3\n    /* \"#utility.yul\":400:454   */\n  and\n    /* \"#utility.yul\":389:454   */\n  swap1\n  pop\n    /* \"#utility.yul\":334:460   */\n  swap2\n  swap1\n  pop\n  jump\t// out\n    /* \"#utility.yul\":466:562   */\ntag_29:\n    /* \"#utility.yul\":503:510   */\n  0x00\n    /* \"#utility.yul\":532:556   */\n  tag_39\n    /* \"#utility.yul\":550:555   */\n  dup3\n    /* \"#utility.yul\":532:556   */\n  tag_28\n  jump\t// in\ntag_39:\n    /* \"#utility.yul\":521:556   */\n  swap1\n  pop\n    /* \"#utility.yul\":466:562   */\n  swap2\n  swap1\n  pop\n  jump\t// out\n    /* \"#utility.yul\":568:690   */\ntag_30:\n    /* \"#utility.yul\":641:665   */\n  tag_41\n    /* \"#utility.yul\":659:664   */\n  dup2\n    /* \"#utility.yul\":641:665   */\n  tag_29\n  jump\t// in\ntag_41:\n    /* \"#utility.yul\":634:639   */\n  dup2\n    /* \"#utility.yul\":631:666   */\n  eq\n    /* \"#utility.yul\":621:684   */\n  tag_42\n  jumpi\n    /* \"#utility.yul\":680:681   */\n  0x00\n    /* \"#utility.yul\":677:678   */\n  dup1\n    /* \"#utility.yul\":670:682   */\n  revert\n    /* \"#utility.yul\":621:684   */\ntag_42:\n    /* \"#utility.yul\":568:690   */\n  pop\n  jump\t// out\n    /* \"#utility.yul\":696:839   */\ntag_31:\n    /* \"#utility.yul\":753:758   */\n  0x00\n    /* \"#utility.yul\":784:790   */\n  dup2\n    /* \"#utility.yul\":778:791   */\n  mload\n    /* \"#utility.yul\":769:791   */\n  swap1\n  pop\n    /* \"#utility.yul\":800:833   */\n  tag_44\n    /* \"#utility.yul\":827:832   */\n  dup2\n    /* \"#utility.yul\":800:833   */\n  tag_30\n  jump\t// in\ntag_44:\n    /* \"#utility.yul\":696:839   */\n  swap3\n  swap2\n  pop\n  pop\n  jump\t// out\n    /* \"#utility.yul\":845:1665   */\ntag_3:\n    /* \"#utility.yul\":942:948   */\n  0x00\n    /* \"#utility.yul\":950:956   */\n  dup1\n    /* \"#utility.yul\":958:964   */\n  0x00\n    /* \"#utility.yul\":966:972   */\n  dup1\n    /* \"#utility.yul\":1015:1018   */\n  0x80\n    /* \"#utility.yul\":1003:1012   */\n  dup6\n    /* \"#utility.yul\":994:1001   */\n  dup8\n    /* \"#utility.yul\":990:1013   */\n  sub\n    /* \"#utility.yul\":986:1019   */\n  slt\n    /* \"#utility.yul\":983:1103   */\n  iszero\n  tag_46\n  jumpi\n    /* \"#utility.yul\":1022:1101   */\n  tag_47\n  tag_26\n  jump\t// in\ntag_47:\n    /* \"#utility.yul\":983:1103   */\ntag_46:\n    /* \"#utility.yul\":1142:1143   */\n  0x00\n    /* \"#utility.yul\":1167:1231   */\n  tag_48\n    /* \"#utility.yul\":1223:1230   */\n  dup8\n    /* \"#utility.yul\":1214:1220   */\n  dup3\n    /* \"#utility.yul\":1203:1212   */\n  dup9\n    /* \"#utility.yul\":1199:1221   */\n  add\n    /* \"#utility.yul\":1167:1231   */\n  tag_31\n  jump\t// in\ntag_48:\n    /* \"#utility.yul\":1157:1231   */\n  swap5\n  pop\n    /* \"#utility.yul\":1113:1241   */\n  pop\n    /* \"#utility.yul\":1280:1282   */\n  0x20\n    /* \"#utility.yul\":1306:1370   */\n  tag_49\n    /* \"#utility.yul\":1362:1369   */\n  dup8\n    /* \"#utility.yul\":1353:1359   */\n  dup3\n    /* \"#utility.yul\":1342:1351   */\n  dup9\n    /* \"#utility.yul\":1338:1360   */\n  add\n    /* \"#utility.yul\":1306:1370   */\n  tag_31\n  jump\t// in\ntag_49:\n    /* \"#utility.yul\":1296:1370   */\n  swap4\n  pop\n    /* \"#utility.yul\":1251:1380   */\n  pop\n    /* \"#utility.yul\":1419:1421   */\n  0x40\n    /* \"#utility.yul\":1445:1509   */\n  tag_50\n    /* \"#utility.yul\":1501:1508   */\n  dup8\n    /* \"#utility.yul\":1492:1498   */\n  dup3\n    /* \"#utility.yul\":1481:1490   */\n  dup9\n    /* \"#utility.yul\":1477:1499   */\n  add\n    /* \"#utility.yul\":1445:1509   */\n  tag_31\n  jump\t// in\ntag_50:\n    /* \"#utility.yul\":1435:1509   */\n  swap3\n  pop\n    /* \"#utility.yul\":1390:1519   */\n  pop\n    /* \"#utility.yul\":1558:1560   */\n  0x60\n    /* \"#utility.yul\":1584:1648   */\n  tag_51\n    /* \"#utility.yul\":1640:1647   */\n  dup8\n    /* \"#utility.yul\":1631:1637   */\n  dup3\n    /* \"#utility.yul\":1620:1629   */\n  dup9\n    /* \"#utility.yul\":1616:1638   */\n  add\n    /* \"#utility.yul\":1584:1648   */\n  tag_31\n  jump\t// in\ntag_51:\n    /* \"#utility.yul\":1574:1648   */\n  swap2\n  pop\n    /* \"#utility.yul\":1529:1658   */\n  pop\n    /* \"#utility.yul\":845:1665   */\n  swap3\n  swap6\n  swap2\n  swap5\n  pop\n  swap3\n  pop\n  jump\t// out\n    /* \"#utility.yul\":1671:1789   */\ntag_32:\n    /* \"#utility.yul\":1758:1782   */\n  tag_53\n    /* \"#utility.yul\":1776:1781   */\n  dup2\n    /* \"#utility.yul\":1758:1782   */\n  tag_29\n  jump\t// in\ntag_53:\n    /* \"#utility.yul\":1753:1756   */\n  dup3\n    /* \"#utility.yul\":1746:1783   */\n  mstore\n    /* \"#utility.yul\":1671:1789   */\n  pop\n  pop\n  jump\t// out\n    /* \"#utility.yul\":1795:2017   */\ntag_10:\n    /* \"#utility.yul\":1888:1892   */\n  0x00\n    /* \"#utility.yul\":1926:1928   */\n  0x20\n    /* \"#utility.yul\":1915:1924   */\n  dup3\n    /* \"#utility.yul\":1911:1929   */\n  add\n    /* \"#utility.yul\":1903:1929   */\n  swap1\n  pop\n    /* \"#utility.yul\":1939:2010   */\n  tag_55\n    /* \"#utility.yul\":2007:2008   */\n  0x00\n    /* \"#utility.yul\":1996:2005   */\n  dup4\n    /* \"#utility.yul\":1992:2009   */\n  add\n    /* \"#utility.yul\":1983:1989   */\n  dup5\n    /* \"#utility.yul\":1939:2010   */\n  tag_32\n  jump\t// in\ntag_55:\n    /* \"#utility.yul\":1795:2017   */\n  swap3\n  swap2\n  pop\n  pop\n  jump\t// out\n    /* \"contracts/TimbSwapRouter.sol\":1883:24316  contract TimbSwapRouter is Ownable, ReentrancyGuard {... */\ntag_21:\n  mload(0x80)\n  codecopy(0x00, dataOffset(sub_0), dataSize(sub_0))\n  0x00\n  assignImmutable(\"0x6c6615e5d53e014adc21c02e9441d3f5ff31bca3ffcf72aca9a284b269e2a4ec\")\n  return(0x00, dataSize(sub_0))\nstop\n\nsub_0: assembly {\n        /* \"contracts/TimbSwapRouter.sol\":1883:24316  contract TimbSwapRouter is Ownable, ReentrancyGuard {... */\n      mstore(0x40, 0x80)\n      jumpi(tag_1, lt(calldatasize, 0x04))\n      shr(0xe0, calldataload(0x00))\n      dup1\n      0x92eaa9d9\n      gt\n      tag_30\n      jumpi\n      dup1\n      0xe1a45218\n      gt\n      tag_31\n      jumpi\n      dup1\n      0xf0f44260\n      gt\n      tag_32\n      jumpi\n      dup1\n      0xf0f44260\n      eq\n      tag_26\n      jumpi\n      dup1\n      0xf13afb90\n      eq\n      tag_27\n      jumpi\n      dup1\n      0xf2fde38b\n      eq\n      tag_28\n      jumpi\n      dup1\n      0xf305d719\n      eq\n      tag_29\n      jumpi\n      jump(tag_2)\n    tag_32:\n      dup1\n      0xe1a45218\n      eq\n      tag_23\n      jumpi\n      dup1\n      0xe8e33700\n      eq\n      tag_24\n      jumpi\n      dup1\n      0xe98f6797\n      eq\n      tag_25\n      jumpi\n      jump(tag_2)\n    tag_31:\n      dup1\n      0xbaa2abde\n      gt\n      tag_33\n      jumpi\n      dup1\n      0xbaa2abde\n      eq\n      tag_19\n      jumpi\n      dup1\n      0xbe378228\n      eq\n      tag_20\n      jumpi\n      dup1\n      0xc45a0155\n      eq\n      tag_21\n      jumpi\n      dup1\n      0xd52bb6f4\n      eq\n      tag_22\n      jumpi\n      jump(tag_2)\n    tag_33:\n      dup1\n      0x92eaa9d9\n      eq\n      tag_16\n      jumpi\n      dup1\n      0xad615dec\n      eq\n      tag_17\n      jumpi\n      dup1\n      0xb8d1452f\n      eq\n      tag_18\n      jumpi\n      jump(tag_2)\n    tag_30:\n      dup1\n      0x5364276d\n      gt\n      tag_34\n      jumpi\n      dup1\n      0x715018a6\n      gt\n      tag_35\n      jumpi\n      dup1\n      0x715018a6\n      eq\n      tag_12\n      jumpi\n      dup1\n      0x8456cb59\n      eq\n      tag_13\n      jumpi\n      dup1\n      0x85f8c259\n      eq\n      tag_14\n      jumpi\n      dup1\n      0x8da5cb5b\n      eq\n      tag_15\n      jumpi\n      jump(tag_2)\n    tag_35:\n      dup1\n      0x5364276d\n      eq\n      tag_9\n      jumpi\n      dup1\n      0x5c975abb\n      eq\n      tag_10\n      jumpi\n      dup1\n      0x61d027b3\n      eq\n      tag_11\n      jumpi\n      jump(tag_2)\n    tag_34:\n      dup1\n      0x02751cec\n      eq\n      tag_3\n      jumpi\n      dup1\n      0x054d50d4\n      eq\n      tag_4\n      jumpi\n      dup1\n      0x27b23849\n      eq\n      tag_5\n      jumpi\n      dup1\n      0x3824659c\n      eq\n      tag_6\n      jumpi\n      dup1\n      0x3f4ba83a\n      eq\n      tag_7\n      jumpi\n      dup1\n      0x3fc8cef3\n      eq\n      tag_8\n      jumpi\n      jump(tag_2)\n    tag_1:\n      jumpi(tag_2, calldatasize)\n      stop\n    tag_2:\n      0x00\n      dup1\n      revert\n        /* \"contracts/TimbSwapRouter.sol\":22575:23095  function removeLiquidityETH(... */\n    tag_3:\n      callvalue\n      dup1\n      iszero\n      tag_38\n      jumpi\n      0x00\n      dup1\n      revert\n    tag_38:\n      pop\n      tag_39\n      0x04\n      dup1\n      calldatasize\n      sub\n      dup2\n      add\n      swap1\n      tag_40\n      swap2\n      swap1\n      tag_41\n      jump\t// in\n    tag_40:\n      tag_42\n      jump\t// in\n    tag_39:\n      mload(0x40)\n      tag_43\n      swap3\n      swap2\n      swap1\n      tag_44\n      jump\t// in\n    tag_43:\n      mload(0x40)\n      dup1\n      swap2\n      sub\n      swap1\n      return\n        /* \"contracts/TimbSwapRouter.sol\":11322:11503  function getAmountOut(uint256 amountIn, uint256 reserveIn, uint256 reserveOut)... */\n    tag_4:\n      callvalue\n      dup1\n      iszero\n      tag_45\n      jumpi\n      0x00\n      dup1\n      revert\n    tag_45:\n      pop\n      tag_46\n      0x04\n      dup1\n      calldatasize\n      sub\n      dup2\n      add\n      swap1\n      tag_47\n      swap2\n      swap1\n      tag_48\n      jump\t// in\n    tag_47:\n      tag_49\n      jump\t// in\n    tag_46:\n      mload(0x40)\n      tag_50\n      swap2\n      swap1\n      tag_51\n      jump\t// in\n    tag_50:\n      mload(0x40)\n      dup1\n      swap2\n      sub\n      swap1\n      return\n        /* \"contracts/TimbSwapRouter.sol\":6226:6341  function setTimbPrize(address _p) external onlyOwner {... */\n    tag_5:\n      callvalue\n      dup1\n      iszero\n      tag_52\n      jumpi\n      0x00\n      dup1\n      revert\n    tag_52:\n      pop\n      tag_53\n      0x04\n      dup1\n      calldatasize\n      sub\n      dup2\n      add\n      swap1\n      tag_54\n      swap2\n      swap1\n      tag_55\n      jump\t// in\n    tag_54:\n      tag_56\n      jump\t// in\n    tag_53:\n      stop\n        /* \"contracts/TimbSwapRouter.sol\":12457:13280  function swapExactTokensForTokens(... */\n    tag_6:\n      callvalue\n      dup1\n      iszero\n      tag_57\n      jumpi\n      0x00\n      dup1\n      revert\n    tag_57:\n      pop\n      tag_58\n      0x04\n      dup1\n      calldatasize\n      sub\n      dup2\n      add\n      swap1\n      tag_59\n      swap2\n      swap1\n      tag_60\n      jump\t// in\n    tag_59:\n      tag_61\n      jump\t// in\n    tag_58:\n      mload(0x40)\n      tag_62\n      swap2\n      swap1\n      tag_51\n      jump\t// in\n    tag_62:\n      mload(0x40)\n      dup1\n      swap2\n      sub\n      swap1\n      return\n        /* \"contracts/TimbSwapRouter.sol\":6434:6518  function unpause() external onlyOwner { paused = false; emit Unpaused(msg.sender); } */\n    tag_7:\n      callvalue\n      dup1\n      iszero\n      tag_63\n      jumpi\n      0x00\n      dup1\n      revert\n    tag_63:\n      pop\n      tag_64\n      tag_65\n      jump\t// in\n    tag_64:\n      stop\n        /* \"contracts/TimbSwapRouter.sol\":2522:2541  address public weth */\n    tag_8:\n      callvalue\n      dup1\n      iszero\n      tag_66\n      jumpi\n      0x00\n      dup1\n      revert\n    tag_66:\n      pop\n      tag_67\n      tag_68\n      jump\t// in\n    tag_67:\n      mload(0x40)\n      tag_69\n      swap2\n      swap1\n      tag_70\n      jump\t// in\n    tag_69:\n      mload(0x40)\n      dup1\n      swap2\n      sub\n      swap1\n      return\n        /* \"contracts/TimbSwapRouter.sol\":2465:2489  address public timbPrize */\n    tag_9:\n      callvalue\n      dup1\n      iszero\n      tag_71\n      jumpi\n      0x00\n      dup1\n      revert\n    tag_71:\n      pop\n      tag_72\n      tag_73\n      jump\t// in\n    tag_72:\n      mload(0x40)\n      tag_74\n      swap2\n      swap1\n      tag_70\n      jump\t// in\n    tag_74:\n      mload(0x40)\n      dup1\n      swap2\n      sub\n      swap1\n      return\n        /* \"contracts/TimbSwapRouter.sol\":2495:2516  bool    public paused */\n    tag_10:\n      callvalue\n      dup1\n      iszero\n      tag_75\n      jumpi\n      0x00\n      dup1\n      revert\n    tag_75:\n      pop\n      tag_76\n      tag_77\n      jump\t// in\n    tag_76:\n      mload(0x40)\n      tag_78\n      swap2\n      swap1\n      tag_79\n      jump\t// in\n    tag_78:\n      mload(0x40)\n      dup1\n      swap2\n      sub\n      swap1\n      return\n        /* \"contracts/TimbSwapRouter.sol\":2399:2422  address public treasury */\n    tag_11:\n      callvalue\n      dup1\n      iszero\n      tag_80\n      jumpi\n      0x00\n      dup1\n      revert\n    tag_80:\n      pop\n      tag_81\n      tag_82\n      jump\t// in\n    tag_81:\n      mload(0x40)\n      tag_83\n      swap2\n      swap1\n      tag_70\n      jump\t// in\n    tag_83:\n      mload(0x40)\n      dup1\n      swap2\n      sub\n      swap1\n      return\n        /* \"@openzeppelin/contracts/access/Ownable.sol\":2293:2394  function renounceOwnership() public virtual onlyOwner {... */\n    tag_12:\n      callvalue\n      dup1\n      iszero\n      tag_84\n      jumpi\n      0x00\n      dup1\n      revert\n    tag_84:\n      pop\n      tag_85\n      tag_86\n      jump\t// in\n    tag_85:\n      stop\n        /* \"contracts/TimbSwapRouter.sol\":6347:6429  function pause()   external onlyOwner { paused = true;  emit Paused(msg.sender); } */\n    tag_13:\n      callvalue\n      dup1\n      iszero\n      tag_87\n      jumpi\n      0x00\n      dup1\n      revert\n    tag_87:\n      pop\n      tag_88\n      tag_89\n      jump\t// in\n    tag_88:\n      stop\n        /* \"contracts/TimbSwapRouter.sol\":11509:11690  function getAmountIn(uint256 amountOut, uint256 reserveIn, uint256 reserveOut)... */\n    tag_14:\n      callvalue\n      dup1\n      iszero\n      tag_90\n      jumpi\n      0x00\n      dup1\n      revert\n    tag_90:\n      pop\n      tag_91\n      0x04\n      dup1\n      calldatasize\n      sub\n      dup2\n      add\n      swap1\n      tag_92\n      swap2\n      swap1\n      tag_48\n      jump\t// in\n    tag_92:\n      tag_93\n      jump\t// in\n    tag_91:\n      mload(0x40)\n      tag_94\n      swap2\n      swap1\n      tag_51\n      jump\t// in\n    tag_94:\n      mload(0x40)\n      dup1\n      swap2\n      sub\n      swap1\n      return\n        /* \"@openzeppelin/contracts/access/Ownable.sol\":1638:1723  function owner() public view virtual returns (address) {... */\n    tag_15:\n      callvalue\n      dup1\n      iszero\n      tag_95\n      jumpi\n      0x00\n      dup1\n      revert\n    tag_95:\n      pop\n      tag_96\n      tag_97\n      jump\t// in\n    tag_96:\n      mload(0x40)\n      tag_98\n      swap2\n      swap1\n      tag_70\n      jump\t// in\n    tag_98:\n      mload(0x40)\n      dup1\n      swap2\n      sub\n      swap1\n      return\n        /* \"contracts/TimbSwapRouter.sol\":2428:2459  address public eligibleRegistry */\n    tag_16:\n      callvalue\n      dup1\n      iszero\n      tag_99\n      jumpi\n      0x00\n      dup1\n      revert\n    tag_99:\n      pop\n      tag_100\n      tag_101\n      jump\t// in\n    tag_100:\n      mload(0x40)\n      tag_102\n      swap2\n      swap1\n      tag_70\n      jump\t// in\n    tag_102:\n      mload(0x40)\n      dup1\n      swap2\n      sub\n      swap1\n      return\n        /* \"contracts/TimbSwapRouter.sol\":11696:11855  function quote(uint256 amountA, uint256 reserveA, uint256 reserveB)... */\n    tag_17:\n      callvalue\n      dup1\n      iszero\n      tag_103\n      jumpi\n      0x00\n      dup1\n      revert\n    tag_103:\n      pop\n      tag_104\n      0x04\n      dup1\n      calldatasize\n      sub\n      dup2\n      add\n      swap1\n      tag_105\n      swap2\n      swap1\n      tag_48\n      jump\t// in\n    tag_105:\n      tag_106\n      jump\t// in\n    tag_104:\n      mload(0x40)\n      tag_107\n      swap2\n      swap1\n      tag_51\n      jump\t// in\n    tag_107:\n      mload(0x40)\n      dup1\n      swap2\n      sub\n      swap1\n      return\n        /* \"contracts/TimbSwapRouter.sol\":6524:6659  function setWeth(address _weth) external onlyOwner {... */\n    tag_18:\n      callvalue\n      dup1\n      iszero\n      tag_108\n      jumpi\n      0x00\n      dup1\n      revert\n    tag_108:\n      pop\n      tag_109\n      0x04\n      dup1\n      calldatasize\n      sub\n      dup2\n      add\n      swap1\n      tag_110\n      swap2\n      swap1\n      tag_55\n      jump\t// in\n    tag_110:\n      tag_111\n      jump\t// in\n    tag_109:\n      stop\n        /* \"contracts/TimbSwapRouter.sol\":21555:22305  function removeLiquidity(... */\n    tag_19:\n      callvalue\n      dup1\n      iszero\n      tag_112\n      jumpi\n      0x00\n      dup1\n      revert\n    tag_112:\n      pop\n      tag_113\n      0x04\n      dup1\n      calldatasize\n      sub\n      dup2\n      add\n      swap1\n      tag_114\n      swap2\n      swap1\n      tag_115\n      jump\t// in\n    tag_114:\n      tag_116\n      jump\t// in\n    tag_113:\n      mload(0x40)\n      tag_117\n      swap3\n      swap2\n      swap1\n      tag_44\n      jump\t// in\n    tag_117:\n      mload(0x40)\n      dup1\n      swap2\n      sub\n      swap1\n      return\n        /* \"contracts/TimbSwapRouter.sol\":2754:2798  uint256 public constant PROTOCOL_FEE_BPS = 5 */\n    tag_20:\n      callvalue\n      dup1\n      iszero\n      tag_118\n      jumpi\n      0x00\n      dup1\n      revert\n    tag_118:\n      pop\n      tag_119\n      tag_120\n      jump\t// in\n    tag_119:\n      mload(0x40)\n      tag_121\n      swap2\n      swap1\n      tag_51\n      jump\t// in\n    tag_121:\n      mload(0x40)\n      dup1\n      swap2\n      sub\n      swap1\n      return\n        /* \"contracts/TimbSwapRouter.sol\":2146:2178  address public immutable factory */\n    tag_21:\n      callvalue\n      dup1\n      iszero\n      tag_122\n      jumpi\n      0x00\n      dup1\n      revert\n    tag_122:\n      pop\n      tag_123\n      tag_124\n      jump\t// in\n    tag_123:\n      mload(0x40)\n      tag_125\n      swap2\n      swap1\n      tag_70\n      jump\t// in\n    tag_125:\n      mload(0x40)\n      dup1\n      swap2\n      sub\n      swap1\n      return\n        /* \"contracts/TimbSwapRouter.sol\":11861:12155  function getReserves(address tokenA, address tokenB)... */\n    tag_22:\n      callvalue\n      dup1\n      iszero\n      tag_126\n      jumpi\n      0x00\n      dup1\n      revert\n    tag_126:\n      pop\n      tag_127\n      0x04\n      dup1\n      calldatasize\n      sub\n      dup2\n      add\n      swap1\n      tag_128\n      swap2\n      swap1\n      tag_129\n      jump\t// in\n    tag_128:\n      tag_130\n      jump\t// in\n    tag_127:\n      mload(0x40)\n      tag_131\n      swap3\n      swap2\n      swap1\n      tag_44\n      jump\t// in\n    tag_131:\n      mload(0x40)\n      dup1\n      swap2\n      sub\n      swap1\n      return\n        /* \"contracts/TimbSwapRouter.sol\":2804:2853  uint256 public constant BPS_DENOMINATOR  = 10_000 */\n    tag_23:\n      callvalue\n      dup1\n      iszero\n      tag_132\n      jumpi\n      0x00\n      dup1\n      revert\n    tag_132:\n      pop\n      tag_133\n      tag_134\n      jump\t// in\n    tag_133:\n      mload(0x40)\n      tag_135\n      swap2\n      swap1\n      tag_51\n      jump\t// in\n    tag_135:\n      mload(0x40)\n      dup1\n      swap2\n      sub\n      swap1\n      return\n        /* \"contracts/TimbSwapRouter.sol\":16737:17622  function addLiquidity(... */\n    tag_24:\n      callvalue\n      dup1\n      iszero\n      tag_136\n      jumpi\n      0x00\n      dup1\n      revert\n    tag_136:\n      pop\n      tag_137\n      0x04\n      dup1\n      calldatasize\n      sub\n      dup2\n      add\n      swap1\n      tag_138\n      swap2\n      swap1\n      tag_139\n      jump\t// in\n    tag_138:\n      tag_140\n      jump\t// in\n    tag_137:\n      mload(0x40)\n      tag_141\n      swap4\n      swap3\n      swap2\n      swap1\n      tag_142\n      jump\t// in\n    tag_141:\n      mload(0x40)\n      dup1\n      swap2\n      sub\n      swap1\n      return\n        /* \"contracts/TimbSwapRouter.sol\":13579:14359  function swapTokensForExactTokens(... */\n    tag_25:\n      callvalue\n      dup1\n      iszero\n      tag_143\n      jumpi\n      0x00\n      dup1\n      revert\n    tag_143:\n      pop\n      tag_144\n      0x04\n      dup1\n      calldatasize\n      sub\n      dup2\n      add\n      swap1\n      tag_145\n      swap2\n      swap1\n      tag_60\n      jump\t// in\n    tag_145:\n      tag_146\n      jump\t// in\n    tag_144:\n      mload(0x40)\n      tag_147\n      swap2\n      swap1\n      tag_51\n      jump\t// in\n    tag_147:\n      mload(0x40)\n      dup1\n      swap2\n      sub\n      swap1\n      return\n        /* \"contracts/TimbSwapRouter.sol\":5872:6078  function setTreasury(address _treasury) external onlyOwner {... */\n    tag_26:\n      callvalue\n      dup1\n      iszero\n      tag_148\n      jumpi\n      0x00\n      dup1\n      revert\n    tag_148:\n      pop\n      tag_149\n      0x04\n      dup1\n      calldatasize\n      sub\n      dup2\n      add\n      swap1\n      tag_150\n      swap2\n      swap1\n      tag_55\n      jump\t// in\n    tag_150:\n      tag_151\n      jump\t// in\n    tag_149:\n      stop\n        /* \"contracts/TimbSwapRouter.sol\":6084:6220  function setEligibleRegistry(address _r) external onlyOwner {... */\n    tag_27:\n      callvalue\n      dup1\n      iszero\n      tag_152\n      jumpi\n      0x00\n      dup1\n      revert\n    tag_152:\n      pop\n      tag_153\n      0x04\n      dup1\n      calldatasize\n      sub\n      dup2\n      add\n      swap1\n      tag_154\n      swap2\n      swap1\n      tag_55\n      jump\t// in\n    tag_154:\n      tag_155\n      jump\t// in\n    tag_153:\n      stop\n        /* \"@openzeppelin/contracts/access/Ownable.sol\":2543:2758  function transferOwnership(address newOwner) public virtual onlyOwner {... */\n    tag_28:\n      callvalue\n      dup1\n      iszero\n      tag_156\n      jumpi\n      0x00\n      dup1\n      revert\n    tag_156:\n      pop\n      tag_157\n      0x04\n      dup1\n      calldatasize\n      sub\n      dup2\n      add\n      swap1\n      tag_158\n      swap2\n      swap1\n      tag_55\n      jump\t// in\n    tag_158:\n      tag_159\n      jump\t// in\n    tag_157:\n      stop\n        /* \"contracts/TimbSwapRouter.sol\":18730:19630  function addLiquidityETH(... */\n    tag_29:\n      tag_160\n      0x04\n      dup1\n      calldatasize\n      sub\n      dup2\n      add\n      swap1\n      tag_161\n      swap2\n      swap1\n      tag_41\n      jump\t// in\n    tag_161:\n      tag_162\n      jump\t// in\n    tag_160:\n      mload(0x40)\n      tag_163\n      swap4\n      swap3\n      swap2\n      swap1\n      tag_142\n      jump\t// in\n    tag_163:\n      mload(0x40)\n      dup1\n      swap2\n      sub\n      swap1\n      return\n        /* \"contracts/TimbSwapRouter.sol\":22575:23095  function removeLiquidityETH(... */\n    tag_42:\n        /* \"contracts/TimbSwapRouter.sol\":22847:22866  uint256 amountToken */\n      0x00\n        /* \"contracts/TimbSwapRouter.sol\":22868:22885  uint256 amountETH */\n      dup1\n        /* \"@openzeppelin/contracts/utils/ReentrancyGuard.sol\":3023:3044  _nonReentrantBefore() */\n      tag_165\n        /* \"@openzeppelin/contracts/utils/ReentrancyGuard.sol\":3023:3042  _nonReentrantBefore */\n      tag_166\n        /* \"@openzeppelin/contracts/utils/ReentrancyGuard.sol\":3023:3044  _nonReentrantBefore() */\n      jump\t// in\n    tag_165:\n        /* \"contracts/TimbSwapRouter.sol\":22820:22828  deadline */\n      dup3\n        /* \"contracts/TimbSwapRouter.sol\":4875:4883  deadline */\n      dup1\n        /* \"contracts/TimbSwapRouter.sol\":4857:4872  block.timestamp */\n      timestamp\n        /* \"contracts/TimbSwapRouter.sol\":4857:4883  block.timestamp > deadline */\n      gt\n        /* \"contracts/TimbSwapRouter.sol\":4853:4909  if (block.timestamp > deadline) revert Expired(deadline) */\n      iszero\n      tag_168\n      jumpi\n        /* \"contracts/TimbSwapRouter.sol\":4900:4908  deadline */\n      dup1\n        /* \"contracts/TimbSwapRouter.sol\":4892:4909  Expired(deadline) */\n      mload(0x40)\n      0xf80dbaea00000000000000000000000000000000000000000000000000000000\n      dup2\n      mstore\n      0x04\n      add\n      tag_169\n      swap2\n      swap1\n      tag_51\n      jump\t// in\n    tag_169:\n      mload(0x40)\n      dup1\n      swap2\n      sub\n      swap1\n      revert\n        /* \"contracts/TimbSwapRouter.sol\":4853:4909  if (block.timestamp > deadline) revert Expired(deadline) */\n    tag_168:\n        /* \"contracts/TimbSwapRouter.sol\":22921:22922  0 */\n      0x00\n        /* \"contracts/TimbSwapRouter.sol\":22905:22923  weth == address(0) */\n      0xffffffffffffffffffffffffffffffffffffffff\n      and\n        /* \"contracts/TimbSwapRouter.sol\":22905:22909  weth */\n      0x04\n      0x00\n      swap1\n      sload\n      swap1\n      0x0100\n      exp\n      swap1\n      div\n      0xffffffffffffffffffffffffffffffffffffffff\n      and\n        /* \"contracts/TimbSwapRouter.sol\":22905:22923  weth == address(0) */\n      0xffffffffffffffffffffffffffffffffffffffff\n      and\n      sub\n        /* \"contracts/TimbSwapRouter.sol\":22901:22944  if (weth == address(0)) revert WethNotSet() */\n      tag_171\n      jumpi\n        /* \"contracts/TimbSwapRouter.sol\":22932:22944  WethNotSet() */\n      mload(0x40)\n      0x0dc08fa200000000000000000000000000000000000000000000000000000000\n      dup2\n      mstore\n      0x04\n      add\n      mload(0x40)\n      dup1\n      swap2\n      sub\n      swap1\n      revert\n        /* \"contracts/TimbSwapRouter.sol\":22901:22944  if (weth == address(0)) revert WethNotSet() */\n    tag_171:\n        /* \"contracts/TimbSwapRouter.sol\":22972:22973  0 */\n      0x00\n        /* \"contracts/TimbSwapRouter.sol\":22958:22974  to == address(0) */\n      0xffffffffffffffffffffffffffffffffffffffff\n      and\n        /* \"contracts/TimbSwapRouter.sol\":22958:22960  to */\n      dup6\n        /* \"contracts/TimbSwapRouter.sol\":22958:22974  to == address(0) */\n      0xffffffffffffffffffffffffffffffffffffffff\n      and\n      sub\n        /* \"contracts/TimbSwapRouter.sol\":22954:22998  if (to == address(0))   revert ZeroAddress() */\n      tag_172\n      jumpi\n        /* \"contracts/TimbSwapRouter.sol\":22985:22998  ZeroAddress() */\n      mload(0x40)\n      0xd92e233d00000000000000000000000000000000000000000000000000000000\n      dup2\n      mstore\n      0x04\n      add\n      mload(0x40)\n      dup1\n      swap2\n      sub\n      swap1\n      revert\n        /* \"contracts/TimbSwapRouter.sol\":22954:22998  if (to == address(0))   revert ZeroAddress() */\n    tag_172:\n        /* \"contracts/TimbSwapRouter.sol\":23015:23088  _doRemoveLiquidityETH(token, liquidity, amountTokenMin, amountETHMin, to) */\n      tag_173\n        /* \"contracts/TimbSwapRouter.sol\":23037:23042  token */\n      dup10\n        /* \"contracts/TimbSwapRouter.sol\":23044:23053  liquidity */\n      dup10\n        /* \"contracts/TimbSwapRouter.sol\":23055:23069  amountTokenMin */\n      dup10\n        /* \"contracts/TimbSwapRouter.sol\":23071:23083  amountETHMin */\n      dup10\n        /* \"contracts/TimbSwapRouter.sol\":23085:23087  to */\n      dup10\n        /* \"contracts/TimbSwapRouter.sol\":23015:23036  _doRemoveLiquidityETH */\n      tag_174\n        /* \"contracts/TimbSwapRouter.sol\":23015:23088  _doRemoveLiquidityETH(token, liquidity, amountTokenMin, amountETHMin, to) */\n      jump\t// in\n    tag_173:\n        /* \"contracts/TimbSwapRouter.sol\":23008:23088  return _doRemoveLiquidityETH(token, liquidity, amountTokenMin, amountETHMin, to) */\n      swap3\n      pop\n      swap3\n      pop\n        /* \"@openzeppelin/contracts/utils/ReentrancyGuard.sol\":3054:3055  _ */\n      pop\n        /* \"@openzeppelin/contracts/utils/ReentrancyGuard.sol\":3065:3085  _nonReentrantAfter() */\n      tag_175\n        /* \"@openzeppelin/contracts/utils/ReentrancyGuard.sol\":3065:3083  _nonReentrantAfter */\n      tag_176\n        /* \"@openzeppelin/contracts/utils/ReentrancyGuard.sol\":3065:3085  _nonReentrantAfter() */\n      jump\t// in\n    tag_175:\n        /* \"contracts/TimbSwapRouter.sol\":22575:23095  function removeLiquidityETH(... */\n      swap7\n      pop\n      swap7\n      swap5\n      pop\n      pop\n      pop\n      pop\n      pop\n      jump\t// out\n        /* \"contracts/TimbSwapRouter.sol\":11322:11503  function getAmountOut(uint256 amountIn, uint256 reserveIn, uint256 reserveOut)... */\n    tag_49:\n        /* \"contracts/TimbSwapRouter.sol\":11432:11439  uint256 */\n      0x00\n        /* \"contracts/TimbSwapRouter.sol\":11454:11500  _getAmountOut(amountIn, reserveIn, reserveOut) */\n      tag_178\n        /* \"contracts/TimbSwapRouter.sol\":11468:11476  amountIn */\n      dup5\n        /* \"contracts/TimbSwapRouter.sol\":11478:11487  reserveIn */\n      dup5\n        /* \"contracts/TimbSwapRouter.sol\":11489:11499  reserveOut */\n      dup5\n        /* \"contracts/TimbSwapRouter.sol\":11454:11467  _getAmountOut */\n      tag_179\n        /* \"contracts/TimbSwapRouter.sol\":11454:11500  _getAmountOut(amountIn, reserveIn, reserveOut) */\n      jump\t// in\n    tag_178:\n        /* \"contracts/TimbSwapRouter.sol\":11447:11500  return _getAmountOut(amountIn, reserveIn, reserveOut) */\n      swap1\n      pop\n        /* \"contracts/TimbSwapRouter.sol\":11322:11503  function getAmountOut(uint256 amountIn, uint256 reserveIn, uint256 reserveOut)... */\n      swap4\n      swap3\n      pop\n      pop\n      pop\n      jump\t// out\n        /* \"contracts/TimbSwapRouter.sol\":6226:6341  function setTimbPrize(address _p) external onlyOwner {... */\n    tag_56:\n        /* \"@openzeppelin/contracts/access/Ownable.sol\":1531:1544  _checkOwner() */\n      tag_181\n        /* \"@openzeppelin/contracts/access/Ownable.sol\":1531:1542  _checkOwner */\n      tag_182\n        /* \"@openzeppelin/contracts/access/Ownable.sol\":1531:1544  _checkOwner() */\n      jump\t// in\n    tag_181:\n        /* \"contracts/TimbSwapRouter.sol\":6301:6303  _p */\n      dup1\n        /* \"contracts/TimbSwapRouter.sol\":6289:6298  timbPrize */\n      0x03\n      0x00\n        /* \"contracts/TimbSwapRouter.sol\":6289:6303  timbPrize = _p */\n      0x0100\n      exp\n      dup2\n      sload\n      dup2\n      0xffffffffffffffffffffffffffffffffffffffff\n      mul\n      not\n      and\n      swap1\n      dup4\n      0xffffffffffffffffffffffffffffffffffffffff\n      and\n      mul\n      or\n      swap1\n      sstore\n      pop\n        /* \"contracts/TimbSwapRouter.sol\":6331:6333  _p */\n      dup1\n        /* \"contracts/TimbSwapRouter.sol\":6318:6334  TimbPrizeSet(_p) */\n      0xffffffffffffffffffffffffffffffffffffffff\n      and\n      0x89386b8711bad3ec737a1746dbcc52de03de68add300345f9acb944c28ae03f3\n      mload(0x40)\n      mload(0x40)\n      dup1\n      swap2\n      sub\n      swap1\n      log2\n        /* \"contracts/TimbSwapRouter.sol\":6226:6341  function setTimbPrize(address _p) external onlyOwner {... */\n      pop\n      jump\t// out\n        /* \"contracts/TimbSwapRouter.sol\":12457:13280  function swapExactTokensForTokens(... */\n    tag_61:\n        /* \"contracts/TimbSwapRouter.sol\":12784:12801  uint256 amountOut */\n      0x00\n        /* \"@openzeppelin/contracts/utils/ReentrancyGuard.sol\":3023:3044  _nonReentrantBefore() */\n      tag_185\n        /* \"@openzeppelin/contracts/utils/ReentrancyGuard.sol\":3023:3042  _nonReentrantBefore */\n      tag_166\n        /* \"@openzeppelin/contracts/utils/ReentrancyGuard.sol\":3023:3044  _nonReentrantBefore() */\n      jump\t// in\n    tag_185:\n        /* \"contracts/TimbSwapRouter.sol\":4972:4978  paused */\n      0x03\n      0x14\n      swap1\n      sload\n      swap1\n      0x0100\n      exp\n      swap1\n      div\n      0xff\n      and\n        /* \"contracts/TimbSwapRouter.sol\":4968:5001  if (paused) revert RouterPaused() */\n      iszero\n      tag_187\n      jumpi\n        /* \"contracts/TimbSwapRouter.sol\":4987:5001  RouterPaused() */\n      mload(0x40)\n      0xf562b5a000000000000000000000000000000000000000000000000000000000\n      dup2\n      mstore\n      0x04\n      add\n      mload(0x40)\n      dup1\n      swap2\n      sub\n      swap1\n      revert\n        /* \"contracts/TimbSwapRouter.sol\":4968:5001  if (paused) revert RouterPaused() */\n    tag_187:\n        /* \"contracts/TimbSwapRouter.sol\":12757:12765  deadline */\n      dup3\n        /* \"contracts/TimbSwapRouter.sol\":4875:4883  deadline */\n      dup1\n        /* \"contracts/TimbSwapRouter.sol\":4857:4872  block.timestamp */\n      timestamp\n        /* \"contracts/TimbSwapRouter.sol\":4857:4883  block.timestamp > deadline */\n      gt\n        /* \"contracts/TimbSwapRouter.sol\":4853:4909  if (block.timestamp > deadline) revert Expired(deadline) */\n      iszero\n      tag_189\n      jumpi\n        /* \"contracts/TimbSwapRouter.sol\":4900:4908  deadline */\n      dup1\n        /* \"contracts/TimbSwapRouter.sol\":4892:4909  Expired(deadline) */\n      mload(0x40)\n      0xf80dbaea00000000000000000000000000000000000000000000000000000000\n      dup2\n      mstore\n      0x04\n      add\n      tag_190\n      swap2\n      swap1\n      tag_51\n      jump\t// in\n    tag_190:\n      mload(0x40)\n      dup1\n      swap2\n      sub\n      swap1\n      revert\n        /* \"contracts/TimbSwapRouter.sol\":4853:4909  if (block.timestamp > deadline) revert Expired(deadline) */\n    tag_189:\n        /* \"contracts/TimbSwapRouter.sol\":12833:12834  0 */\n      0x00\n        /* \"contracts/TimbSwapRouter.sol\":12821:12829  amountIn */\n      dup10\n        /* \"contracts/TimbSwapRouter.sol\":12821:12834  amountIn == 0 */\n      sub\n        /* \"contracts/TimbSwapRouter.sol\":12817:12858  if (amountIn == 0)    revert ZeroAmount() */\n      tag_192\n      jumpi\n        /* \"contracts/TimbSwapRouter.sol\":12846:12858  ZeroAmount() */\n      mload(0x40)\n      0x1f2a200500000000000000000000000000000000000000000000000000000000\n      dup2\n      mstore\n      0x04\n      add\n      mload(0x40)\n      dup1\n      swap2\n      sub\n      swap1\n      revert\n        /* \"contracts/TimbSwapRouter.sol\":12817:12858  if (amountIn == 0)    revert ZeroAmount() */\n    tag_192:\n        /* \"contracts/TimbSwapRouter.sol\":12886:12887  0 */\n      0x00\n        /* \"contracts/TimbSwapRouter.sol\":12872:12888  to == address(0) */\n      0xffffffffffffffffffffffffffffffffffffffff\n      and\n        /* \"contracts/TimbSwapRouter.sol\":12872:12874  to */\n      dup6\n        /* \"contracts/TimbSwapRouter.sol\":12872:12888  to == address(0) */\n      0xffffffffffffffffffffffffffffffffffffffff\n      and\n      sub\n        /* \"contracts/TimbSwapRouter.sol\":12868:12910  if (to == address(0)) revert ZeroAddress() */\n      tag_193\n      jumpi\n        /* \"contracts/TimbSwapRouter.sol\":12897:12910  ZeroAddress() */\n      mload(0x40)\n      0xd92e233d00000000000000000000000000000000000000000000000000000000\n      dup2\n      mstore\n      0x04\n      add\n      mload(0x40)\n      dup1\n      swap2\n      sub\n      swap1\n      revert\n        /* \"contracts/TimbSwapRouter.sol\":12868:12910  if (to == address(0)) revert ZeroAddress() */\n    tag_193:\n        /* \"contracts/TimbSwapRouter.sol\":12922:12939  uint256 reserveIn */\n      0x00\n        /* \"contracts/TimbSwapRouter.sol\":12941:12959  uint256 reserveOut */\n      dup1\n        /* \"contracts/TimbSwapRouter.sol\":12963:13013  _getReserves(_getPair(tokenIn, tokenOut), tokenIn) */\n      tag_194\n        /* \"contracts/TimbSwapRouter.sol\":12976:13003  _getPair(tokenIn, tokenOut) */\n      tag_195\n        /* \"contracts/TimbSwapRouter.sol\":12985:12992  tokenIn */\n      dup11\n        /* \"contracts/TimbSwapRouter.sol\":12994:13002  tokenOut */\n      dup11\n        /* \"contracts/TimbSwapRouter.sol\":12976:12984  _getPair */\n      tag_196\n        /* \"contracts/TimbSwapRouter.sol\":12976:13003  _getPair(tokenIn, tokenOut) */\n      jump\t// in\n    tag_195:\n        /* \"contracts/TimbSwapRouter.sol\":13005:13012  tokenIn */\n      dup11\n        /* \"contracts/TimbSwapRouter.sol\":12963:12975  _getReserves */\n      tag_197\n        /* \"contracts/TimbSwapRouter.sol\":12963:13013  _getReserves(_getPair(tokenIn, tokenOut), tokenIn) */\n      jump\t// in\n    tag_194:\n        /* \"contracts/TimbSwapRouter.sol\":12921:13013  (uint256 reserveIn, uint256 reserveOut) = _getReserves(_getPair(tokenIn, tokenOut), tokenIn) */\n      swap2\n      pop\n      swap2\n      pop\n        /* \"contracts/TimbSwapRouter.sol\":13035:13081  _getAmountOut(amountIn, reserveIn, reserveOut) */\n      tag_198\n        /* \"contracts/TimbSwapRouter.sol\":13049:13057  amountIn */\n      dup12\n        /* \"contracts/TimbSwapRouter.sol\":13059:13068  reserveIn */\n      dup4\n        /* \"contracts/TimbSwapRouter.sol\":13070:13080  reserveOut */\n      dup4\n        /* \"contracts/TimbSwapRouter.sol\":13035:13048  _getAmountOut */\n      tag_179\n        /* \"contracts/TimbSwapRouter.sol\":13035:13081  _getAmountOut(amountIn, reserveIn, reserveOut) */\n      jump\t// in\n    tag_198:\n        /* \"contracts/TimbSwapRouter.sol\":13023:13081  amountOut = _getAmountOut(amountIn, reserveIn, reserveOut) */\n      swap4\n      pop\n        /* \"contracts/TimbSwapRouter.sol\":13108:13120  amountOutMin */\n      dup10\n        /* \"contracts/TimbSwapRouter.sol\":13096:13105  amountOut */\n      dup5\n        /* \"contracts/TimbSwapRouter.sol\":13096:13120  amountOut < amountOutMin */\n      lt\n        /* \"contracts/TimbSwapRouter.sol\":13092:13190  if (amountOut < amountOutMin)... */\n      iszero\n      tag_199\n      jumpi\n        /* \"contracts/TimbSwapRouter.sol\":13166:13175  amountOut */\n      dup4\n        /* \"contracts/TimbSwapRouter.sol\":13177:13189  amountOutMin */\n      dup11\n        /* \"contracts/TimbSwapRouter.sol\":13141:13190  InsufficientOutputAmount(amountOut, amountOutMin) */\n      mload(0x40)\n      0xd28d3eb500000000000000000000000000000000000000000000000000000000\n      dup2\n      mstore\n      0x04\n      add\n      tag_200\n      swap3\n      swap2\n      swap1\n      tag_44\n      jump\t// in\n    tag_200:\n      mload(0x40)\n      dup1\n      swap2\n      sub\n      swap1\n      revert\n        /* \"contracts/TimbSwapRouter.sol\":13092:13190  if (amountOut < amountOutMin)... */\n    tag_199:\n        /* \"contracts/TimbSwapRouter.sol\":13201:13273  _executeSwap(tokenIn, tokenOut, amountIn, amountOut, to, influencePrize) */\n      tag_201\n        /* \"contracts/TimbSwapRouter.sol\":13214:13221  tokenIn */\n      dup10\n        /* \"contracts/TimbSwapRouter.sol\":13223:13231  tokenOut */\n      dup10\n        /* \"contracts/TimbSwapRouter.sol\":13233:13241  amountIn */\n      dup14\n        /* \"contracts/TimbSwapRouter.sol\":13243:13252  amountOut */\n      dup8\n        /* \"contracts/TimbSwapRouter.sol\":13254:13256  to */\n      dup12\n        /* \"contracts/TimbSwapRouter.sol\":13258:13272  influencePrize */\n      dup11\n        /* \"contracts/TimbSwapRouter.sol\":13201:13213  _executeSwap */\n      tag_202\n        /* \"contracts/TimbSwapRouter.sol\":13201:13273  _executeSwap(tokenIn, tokenOut, amountIn, amountOut, to, influencePrize) */\n      jump\t// in\n    tag_201:\n        /* \"contracts/TimbSwapRouter.sol\":12807:13280  {... */\n      pop\n      pop\n        /* \"contracts/TimbSwapRouter.sol\":5011:5012  _ */\n      pop\n        /* \"@openzeppelin/contracts/utils/ReentrancyGuard.sol\":3065:3085  _nonReentrantAfter() */\n      tag_203\n        /* \"@openzeppelin/contracts/utils/ReentrancyGuard.sol\":3065:3083  _nonReentrantAfter */\n      tag_176\n        /* \"@openzeppelin/contracts/utils/ReentrancyGuard.sol\":3065:3085  _nonReentrantAfter() */\n      jump\t// in\n    tag_203:\n        /* \"contracts/TimbSwapRouter.sol\":12457:13280  function swapExactTokensForTokens(... */\n      swap8\n      swap7\n      pop\n      pop\n      pop\n      pop\n      pop\n      pop\n      pop\n      jump\t// out\n        /* \"contracts/TimbSwapRouter.sol\":6434:6518  function unpause() external onlyOwner { paused = false; emit Unpaused(msg.sender); } */\n    tag_65:\n        /* \"@openzeppelin/contracts/access/Ownable.sol\":1531:1544  _checkOwner() */\n      tag_205\n        /* \"@openzeppelin/contracts/access/Ownable.sol\":1531:1542  _checkOwner */\n      tag_182\n        /* \"@openzeppelin/contracts/access/Ownable.sol\":1531:1544  _checkOwner() */\n      jump\t// in\n    tag_205:\n        /* \"contracts/TimbSwapRouter.sol\":6483:6488  false */\n      0x00\n        /* \"contracts/TimbSwapRouter.sol\":6474:6480  paused */\n      0x03\n      0x14\n        /* \"contracts/TimbSwapRouter.sol\":6474:6488  paused = false */\n      0x0100\n      exp\n      dup2\n      sload\n      dup2\n      0xff\n      mul\n      not\n      and\n      swap1\n      dup4\n      iszero\n      iszero\n      mul\n      or\n      swap1\n      sstore\n      pop\n        /* \"contracts/TimbSwapRouter.sol\":6504:6514  msg.sender */\n      caller\n        /* \"contracts/TimbSwapRouter.sol\":6495:6515  Unpaused(msg.sender) */\n      0xffffffffffffffffffffffffffffffffffffffff\n      and\n      0x5db9ee0a495bf2e6ff9c91a7834c1ba4fdd244a5e8aa4e537bd38aeae4b073aa\n      mload(0x40)\n      mload(0x40)\n      dup1\n      swap2\n      sub\n      swap1\n      log2\n        /* \"contracts/TimbSwapRouter.sol\":6434:6518  function unpause() external onlyOwner { paused = false; emit Unpaused(msg.sender); } */\n      jump\t// out\n        /* \"contracts/TimbSwapRouter.sol\":2522:2541  address public weth */\n    tag_68:\n      0x04\n      0x00\n      swap1\n      sload\n      swap1\n      0x0100\n      exp\n      swap1\n      div\n      0xffffffffffffffffffffffffffffffffffffffff\n      and\n      dup2\n      jump\t// out\n        /* \"contracts/TimbSwapRouter.sol\":2465:2489  address public timbPrize */\n    tag_73:\n      0x03\n      0x00\n      swap1\n      sload\n      swap1\n      0x0100\n      exp\n      swap1\n      div\n      0xffffffffffffffffffffffffffffffffffffffff\n      and\n      dup2\n      jump\t// out\n        /* \"contracts/TimbSwapRouter.sol\":2495:2516  bool    public paused */\n    tag_77:\n      0x03\n      0x14\n      swap1\n      sload\n      swap1\n      0x0100\n      exp\n      swap1\n      div\n      0xff\n      and\n      dup2\n      jump\t// out\n        /* \"contracts/TimbSwapRouter.sol\":2399:2422  address public treasury */\n    tag_82:\n      0x01\n      0x00\n      swap1\n      sload\n      swap1\n      0x0100\n      exp\n      swap1\n      div\n      0xffffffffffffffffffffffffffffffffffffffff\n      and\n      dup2\n      jump\t// out\n        /* \"@openzeppelin/contracts/access/Ownable.sol\":2293:2394  function renounceOwnership() public virtual onlyOwner {... */\n    tag_86:\n        /* \"@openzeppelin/contracts/access/Ownable.sol\":1531:1544  _checkOwner() */\n      tag_208\n        /* \"@openzeppelin/contracts/access/Ownable.sol\":1531:1542  _checkOwner */\n      tag_182\n        /* \"@openzeppelin/contracts/access/Ownable.sol\":1531:1544  _checkOwner() */\n      jump\t// in\n    tag_208:\n        /* \"@openzeppelin/contracts/access/Ownable.sol\":2357:2387  _transferOwnership(address(0)) */\n      tag_210\n        /* \"@openzeppelin/contracts/access/Ownable.sol\":2384:2385  0 */\n      0x00\n        /* \"@openzeppelin/contracts/access/Ownable.sol\":2357:2375  _transferOwnership */\n      tag_211\n        /* \"@openzeppelin/contracts/access/Ownable.sol\":2357:2387  _transferOwnership(address(0)) */\n      jump\t// in\n    tag_210:\n        /* \"@openzeppelin/contracts/access/Ownable.sol\":2293:2394  function renounceOwnership() public virtual onlyOwner {... */\n      jump\t// out\n        /* \"contracts/TimbSwapRouter.sol\":6347:6429  function pause()   external onlyOwner { paused = true;  emit Paused(msg.sender); } */\n    tag_89:\n        /* \"@openzeppelin/contracts/access/Ownable.sol\":1531:1544  _checkOwner() */\n      tag_213\n        /* \"@openzeppelin/contracts/access/Ownable.sol\":1531:1542  _checkOwner */\n      tag_182\n        /* \"@openzeppelin/contracts/access/Ownable.sol\":1531:1544  _checkOwner() */\n      jump\t// in\n    tag_213:\n        /* \"contracts/TimbSwapRouter.sol\":6396:6400  true */\n      0x01\n        /* \"contracts/TimbSwapRouter.sol\":6387:6393  paused */\n      0x03\n      0x14\n        /* \"contracts/TimbSwapRouter.sol\":6387:6400  paused = true */\n      0x0100\n      exp\n      dup2\n      sload\n      dup2\n      0xff\n      mul\n      not\n      and\n      swap1\n      dup4\n      iszero\n      iszero\n      mul\n      or\n      swap1\n      sstore\n      pop\n        /* \"contracts/TimbSwapRouter.sol\":6415:6425  msg.sender */\n      caller\n        /* \"contracts/TimbSwapRouter.sol\":6408:6426  Paused(msg.sender) */\n      0xffffffffffffffffffffffffffffffffffffffff\n      and\n      0x62e78cea01bee320cd4e420270b5ea74000d11b0c9f74754ebdbfc544b05a258\n      mload(0x40)\n      mload(0x40)\n      dup1\n      swap2\n      sub\n      swap1\n      log2\n        /* \"contracts/TimbSwapRouter.sol\":6347:6429  function pause()   external onlyOwner { paused = true;  emit Paused(msg.sender); } */\n      jump\t// out\n        /* \"contracts/TimbSwapRouter.sol\":11509:11690  function getAmountIn(uint256 amountOut, uint256 reserveIn, uint256 reserveOut)... */\n    tag_93:\n        /* \"contracts/TimbSwapRouter.sol\":11619:11626  uint256 */\n      0x00\n        /* \"contracts/TimbSwapRouter.sol\":11641:11687  _getAmountIn(amountOut, reserveIn, reserveOut) */\n      tag_216\n        /* \"contracts/TimbSwapRouter.sol\":11654:11663  amountOut */\n      dup5\n        /* \"contracts/TimbSwapRouter.sol\":11665:11674  reserveIn */\n      dup5\n        /* \"contracts/TimbSwapRouter.sol\":11676:11686  reserveOut */\n      dup5\n        /* \"contracts/TimbSwapRouter.sol\":11641:11653  _getAmountIn */\n      tag_217\n        /* \"contracts/TimbSwapRouter.sol\":11641:11687  _getAmountIn(amountOut, reserveIn, reserveOut) */\n      jump\t// in\n    tag_216:\n        /* \"contracts/TimbSwapRouter.sol\":11634:11687  return _getAmountIn(amountOut, reserveIn, reserveOut) */\n      swap1\n      pop\n        /* \"contracts/TimbSwapRouter.sol\":11509:11690  function getAmountIn(uint256 amountOut, uint256 reserveIn, uint256 reserveOut)... */\n      swap4\n      swap3\n      pop\n      pop\n      pop\n      jump\t// out\n        /* \"@openzeppelin/contracts/access/Ownable.sol\":1638:1723  function owner() public view virtual returns (address) {... */\n    tag_97:\n        /* \"@openzeppelin/contracts/access/Ownable.sol\":1684:1691  address */\n      0x00\n        /* \"@openzeppelin/contracts/access/Ownable.sol\":1710:1716  _owner */\n      dup1\n      0x00\n      swap1\n      sload\n      swap1\n      0x0100\n      exp\n      swap1\n      div\n      0xffffffffffffffffffffffffffffffffffffffff\n      and\n        /* \"@openzeppelin/contracts/access/Ownable.sol\":1703:1716  return _owner */\n      swap1\n      pop\n        /* \"@openzeppelin/contracts/access/Ownable.sol\":1638:1723  function owner() public view virtual returns (address) {... */\n      swap1\n      jump\t// out\n        /* \"contracts/TimbSwapRouter.sol\":2428:2459  address public eligibleRegistry */\n    tag_101:\n      0x02\n      0x00\n      swap1\n      sload\n      swap1\n      0x0100\n      exp\n      swap1\n      div\n      0xffffffffffffffffffffffffffffffffffffffff\n      and\n      dup2\n      jump\t// out\n        /* \"contracts/TimbSwapRouter.sol\":11696:11855  function quote(uint256 amountA, uint256 reserveA, uint256 reserveB)... */\n    tag_106:\n        /* \"contracts/TimbSwapRouter.sol\":11795:11802  uint256 */\n      0x00\n        /* \"contracts/TimbSwapRouter.sol\":11817:11852  _quote(amountA, reserveA, reserveB) */\n      tag_220\n        /* \"contracts/TimbSwapRouter.sol\":11824:11831  amountA */\n      dup5\n        /* \"contracts/TimbSwapRouter.sol\":11833:11841  reserveA */\n      dup5\n        /* \"contracts/TimbSwapRouter.sol\":11843:11851  reserveB */\n      dup5\n        /* \"contracts/TimbSwapRouter.sol\":11817:11823  _quote */\n      tag_221\n        /* \"contracts/TimbSwapRouter.sol\":11817:11852  _quote(amountA, reserveA, reserveB) */\n      jump\t// in\n    tag_220:\n        /* \"contracts/TimbSwapRouter.sol\":11810:11852  return _quote(amountA, reserveA, reserveB) */\n      swap1\n      pop\n        /* \"contracts/TimbSwapRouter.sol\":11696:11855  function quote(uint256 amountA, uint256 reserveA, uint256 reserveB)... */\n      swap4\n      swap3\n      pop\n      pop\n      pop\n      jump\t// out\n        /* \"contracts/TimbSwapRouter.sol\":6524:6659  function setWeth(address _weth) external onlyOwner {... */\n    tag_111:\n        /* \"@openzeppelin/contracts/access/Ownable.sol\":1531:1544  _checkOwner() */\n      tag_223\n        /* \"@openzeppelin/contracts/access/Ownable.sol\":1531:1542  _checkOwner */\n      tag_182\n        /* \"@openzeppelin/contracts/access/Ownable.sol\":1531:1544  _checkOwner() */\n      jump\t// in\n    tag_223:\n        /* \"contracts/TimbSwapRouter.sol\":6606:6607  0 */\n      0x00\n        /* \"contracts/TimbSwapRouter.sol\":6589:6608  _weth == address(0) */\n      0xffffffffffffffffffffffffffffffffffffffff\n      and\n        /* \"contracts/TimbSwapRouter.sol\":6589:6594  _weth */\n      dup2\n        /* \"contracts/TimbSwapRouter.sol\":6589:6608  _weth == address(0) */\n      0xffffffffffffffffffffffffffffffffffffffff\n      and\n      sub\n        /* \"contracts/TimbSwapRouter.sol\":6585:6630  if (_weth == address(0)) revert ZeroAddress() */\n      tag_225\n      jumpi\n        /* \"contracts/TimbSwapRouter.sol\":6617:6630  ZeroAddress() */\n      mload(0x40)\n      0xd92e233d00000000000000000000000000000000000000000000000000000000\n      dup2\n      mstore\n      0x04\n      add\n      mload(0x40)\n      dup1\n      swap2\n      sub\n      swap1\n      revert\n        /* \"contracts/TimbSwapRouter.sol\":6585:6630  if (_weth == address(0)) revert ZeroAddress() */\n    tag_225:\n        /* \"contracts/TimbSwapRouter.sol\":6647:6652  _weth */\n      dup1\n        /* \"contracts/TimbSwapRouter.sol\":6640:6644  weth */\n      0x04\n      0x00\n        /* \"contracts/TimbSwapRouter.sol\":6640:6652  weth = _weth */\n      0x0100\n      exp\n      dup2\n      sload\n      dup2\n      0xffffffffffffffffffffffffffffffffffffffff\n      mul\n      not\n      and\n      swap1\n      dup4\n      0xffffffffffffffffffffffffffffffffffffffff\n      and\n      mul\n      or\n      swap1\n      sstore\n      pop\n        /* \"contracts/TimbSwapRouter.sol\":6524:6659  function setWeth(address _weth) external onlyOwner {... */\n      pop\n      jump\t// out\n        /* \"contracts/TimbSwapRouter.sol\":21555:22305  function removeLiquidity(... */\n    tag_116:\n        /* \"contracts/TimbSwapRouter.sol\":21843:21858  uint256 amountA */\n      0x00\n        /* \"contracts/TimbSwapRouter.sol\":21860:21875  uint256 amountB */\n      dup1\n        /* \"@openzeppelin/contracts/utils/ReentrancyGuard.sol\":3023:3044  _nonReentrantBefore() */\n      tag_227\n        /* \"@openzeppelin/contracts/utils/ReentrancyGuard.sol\":3023:3042  _nonReentrantBefore */\n      tag_166\n        /* \"@openzeppelin/contracts/utils/ReentrancyGuard.sol\":3023:3044  _nonReentrantBefore() */\n      jump\t// in\n    tag_227:\n        /* \"contracts/TimbSwapRouter.sol\":21816:21824  deadline */\n      dup3\n        /* \"contracts/TimbSwapRouter.sol\":4875:4883  deadline */\n      dup1\n        /* \"contracts/TimbSwapRouter.sol\":4857:4872  block.timestamp */\n      timestamp\n        /* \"contracts/TimbSwapRouter.sol\":4857:4883  block.timestamp > deadline */\n      gt\n        /* \"contracts/TimbSwapRouter.sol\":4853:4909  if (block.timestamp > deadline) revert Expired(deadline) */\n      iszero\n      tag_229\n      jumpi\n        /* \"contracts/TimbSwapRouter.sol\":4900:4908  deadline */\n      dup1\n        /* \"contracts/TimbSwapRouter.sol\":4892:4909  Expired(deadline) */\n      mload(0x40)\n      0xf80dbaea00000000000000000000000000000000000000000000000000000000\n      dup2\n      mstore\n      0x04\n      add\n      tag_230\n      swap2\n      swap1\n      tag_51\n      jump\t// in\n    tag_230:\n      mload(0x40)\n      dup1\n      swap2\n      sub\n      swap1\n      revert\n        /* \"contracts/TimbSwapRouter.sol\":4853:4909  if (block.timestamp > deadline) revert Expired(deadline) */\n    tag_229:\n        /* \"contracts/TimbSwapRouter.sol\":21909:21910  0 */\n      0x00\n        /* \"contracts/TimbSwapRouter.sol\":21895:21911  to == address(0) */\n      0xffffffffffffffffffffffffffffffffffffffff\n      and\n        /* \"contracts/TimbSwapRouter.sol\":21895:21897  to */\n      dup6\n        /* \"contracts/TimbSwapRouter.sol\":21895:21911  to == address(0) */\n      0xffffffffffffffffffffffffffffffffffffffff\n      and\n      sub\n        /* \"contracts/TimbSwapRouter.sol\":21891:21933  if (to == address(0)) revert ZeroAddress() */\n      tag_232\n      jumpi\n        /* \"contracts/TimbSwapRouter.sol\":21920:21933  ZeroAddress() */\n      mload(0x40)\n      0xd92e233d00000000000000000000000000000000000000000000000000000000\n      dup2\n      mstore\n      0x04\n      add\n      mload(0x40)\n      dup1\n      swap2\n      sub\n      swap1\n      revert\n        /* \"contracts/TimbSwapRouter.sol\":21891:21933  if (to == address(0)) revert ZeroAddress() */\n    tag_232:\n        /* \"contracts/TimbSwapRouter.sol\":21943:21955  address pair */\n      0x00\n        /* \"contracts/TimbSwapRouter.sol\":21958:21982  _getPair(tokenA, tokenB) */\n      tag_233\n        /* \"contracts/TimbSwapRouter.sol\":21967:21973  tokenA */\n      dup12\n        /* \"contracts/TimbSwapRouter.sol\":21975:21981  tokenB */\n      dup12\n        /* \"contracts/TimbSwapRouter.sol\":21958:21966  _getPair */\n      tag_196\n        /* \"contracts/TimbSwapRouter.sol\":21958:21982  _getPair(tokenA, tokenB) */\n      jump\t// in\n    tag_233:\n        /* \"contracts/TimbSwapRouter.sol\":21943:21982  address pair = _getPair(tokenA, tokenB) */\n      swap1\n      pop\n        /* \"contracts/TimbSwapRouter.sol\":22013:22054  _burnAndSort(pair, tokenA, liquidity, to) */\n      tag_234\n        /* \"contracts/TimbSwapRouter.sol\":22026:22030  pair */\n      dup2\n        /* \"contracts/TimbSwapRouter.sol\":22032:22038  tokenA */\n      dup13\n        /* \"contracts/TimbSwapRouter.sol\":22040:22049  liquidity */\n      dup12\n        /* \"contracts/TimbSwapRouter.sol\":22051:22053  to */\n      dup10\n        /* \"contracts/TimbSwapRouter.sol\":22013:22025  _burnAndSort */\n      tag_235\n        /* \"contracts/TimbSwapRouter.sol\":22013:22054  _burnAndSort(pair, tokenA, liquidity, to) */\n      jump\t// in\n    tag_234:\n        /* \"contracts/TimbSwapRouter.sol\":21992:22054  (amountA, amountB) = _burnAndSort(pair, tokenA, liquidity, to) */\n      dup1\n      swap5\n      pop\n      dup2\n      swap6\n      pop\n      pop\n      pop\n        /* \"contracts/TimbSwapRouter.sol\":22078:22088  amountAMin */\n      dup8\n        /* \"contracts/TimbSwapRouter.sol\":22068:22075  amountA */\n      dup5\n        /* \"contracts/TimbSwapRouter.sol\":22068:22088  amountA < amountAMin */\n      lt\n        /* \"contracts/TimbSwapRouter.sol\":22064:22137  if (amountA < amountAMin) revert InsufficientAAmount(amountA, amountAMin) */\n      iszero\n      tag_236\n      jumpi\n        /* \"contracts/TimbSwapRouter.sol\":22117:22124  amountA */\n      dup4\n        /* \"contracts/TimbSwapRouter.sol\":22126:22136  amountAMin */\n      dup9\n        /* \"contracts/TimbSwapRouter.sol\":22097:22137  InsufficientAAmount(amountA, amountAMin) */\n      mload(0x40)\n      0x47c5f09e00000000000000000000000000000000000000000000000000000000\n      dup2\n      mstore\n      0x04\n      add\n      tag_237\n      swap3\n      swap2\n      swap1\n      tag_44\n      jump\t// in\n    tag_237:\n      mload(0x40)\n      dup1\n      swap2\n      sub\n      swap1\n      revert\n        /* \"contracts/TimbSwapRouter.sol\":22064:22137  if (amountA < amountAMin) revert InsufficientAAmount(amountA, amountAMin) */\n    tag_236:\n        /* \"contracts/TimbSwapRouter.sol\":22161:22171  amountBMin */\n      dup7\n        /* \"contracts/TimbSwapRouter.sol\":22151:22158  amountB */\n      dup4\n        /* \"contracts/TimbSwapRouter.sol\":22151:22171  amountB < amountBMin */\n      lt\n        /* \"contracts/TimbSwapRouter.sol\":22147:22220  if (amountB < amountBMin) revert InsufficientBAmount(amountB, amountBMin) */\n      iszero\n      tag_238\n      jumpi\n        /* \"contracts/TimbSwapRouter.sol\":22200:22207  amountB */\n      dup3\n        /* \"contracts/TimbSwapRouter.sol\":22209:22219  amountBMin */\n      dup8\n        /* \"contracts/TimbSwapRouter.sol\":22180:22220  InsufficientBAmount(amountB, amountBMin) */\n      mload(0x40)\n      0x5195966700000000000000000000000000000000000000000000000000000000\n      dup2\n      mstore\n      0x04\n      add\n      tag_239\n      swap3\n      swap2\n      swap1\n      tag_44\n      jump\t// in\n    tag_239:\n      mload(0x40)\n      dup1\n      swap2\n      sub\n      swap1\n      revert\n        /* \"contracts/TimbSwapRouter.sol\":22147:22220  if (amountB < amountBMin) revert InsufficientBAmount(amountB, amountBMin) */\n    tag_238:\n        /* \"contracts/TimbSwapRouter.sol\":22258:22268  msg.sender */\n      caller\n        /* \"contracts/TimbSwapRouter.sol\":22235:22298  LiquidityRemoved(pair, msg.sender, amountA, amountB, liquidity) */\n      0xffffffffffffffffffffffffffffffffffffffff\n      and\n        /* \"contracts/TimbSwapRouter.sol\":22252:22256  pair */\n      dup2\n        /* \"contracts/TimbSwapRouter.sol\":22235:22298  LiquidityRemoved(pair, msg.sender, amountA, amountB, liquidity) */\n      0xffffffffffffffffffffffffffffffffffffffff\n      and\n      0xbc7d19d505c7ec4db83f3b51f19fb98c4c8a99922e7839d1ee608dfbee29501b\n        /* \"contracts/TimbSwapRouter.sol\":22270:22277  amountA */\n      dup7\n        /* \"contracts/TimbSwapRouter.sol\":22279:22286  amountB */\n      dup7\n        /* \"contracts/TimbSwapRouter.sol\":22288:22297  liquidity */\n      dup14\n        /* \"contracts/TimbSwapRouter.sol\":22235:22298  LiquidityRemoved(pair, msg.sender, amountA, amountB, liquidity) */\n      mload(0x40)\n      tag_240\n      swap4\n      swap3\n      swap2\n      swap1\n      tag_142\n      jump\t// in\n    tag_240:\n      mload(0x40)\n      dup1\n      swap2\n      sub\n      swap1\n      log3\n        /* \"contracts/TimbSwapRouter.sol\":21881:22305  {... */\n      pop\n        /* \"@openzeppelin/contracts/utils/ReentrancyGuard.sol\":3054:3055  _ */\n      pop\n        /* \"@openzeppelin/contracts/utils/ReentrancyGuard.sol\":3065:3085  _nonReentrantAfter() */\n      tag_241\n        /* \"@openzeppelin/contracts/utils/ReentrancyGuard.sol\":3065:3083  _nonReentrantAfter */\n      tag_176\n        /* \"@openzeppelin/contracts/utils/ReentrancyGuard.sol\":3065:3085  _nonReentrantAfter() */\n      jump\t// in\n    tag_241:\n        /* \"contracts/TimbSwapRouter.sol\":21555:22305  function removeLiquidity(... */\n      swap8\n      pop\n      swap8\n      swap6\n      pop\n      pop\n      pop\n      pop\n      pop\n      pop\n      jump\t// out\n        /* \"contracts/TimbSwapRouter.sol\":2754:2798  uint256 public constant PROTOCOL_FEE_BPS = 5 */\n    tag_120:\n        /* \"contracts/TimbSwapRouter.sol\":2797:2798  5 */\n      0x05\n        /* \"contracts/TimbSwapRouter.sol\":2754:2798  uint256 public constant PROTOCOL_FEE_BPS = 5 */\n      dup2\n      jump\t// out\n        /* \"contracts/TimbSwapRouter.sol\":2146:2178  address public immutable factory */\n    tag_124:\n      immutable(\"0x6c6615e5d53e014adc21c02e9441d3f5ff31bca3ffcf72aca9a284b269e2a4ec\")\n      dup2\n      jump\t// out\n        /* \"contracts/TimbSwapRouter.sol\":11861:12155  function getReserves(address tokenA, address tokenB)... */\n    tag_130:\n        /* \"contracts/TimbSwapRouter.sol\":11945:11961  uint256 reserveA */\n      0x00\n        /* \"contracts/TimbSwapRouter.sol\":11963:11979  uint256 reserveB */\n      dup1\n        /* \"contracts/TimbSwapRouter.sol\":11995:12007  address pair */\n      0x00\n        /* \"contracts/TimbSwapRouter.sol\":12019:12026  factory */\n      immutable(\"0x6c6615e5d53e014adc21c02e9441d3f5ff31bca3ffcf72aca9a284b269e2a4ec\")\n        /* \"contracts/TimbSwapRouter.sol\":12010:12042  IFactory(factory).getPairAddress */\n      0xffffffffffffffffffffffffffffffffffffffff\n      and\n      0xb4f69a2f\n        /* \"contracts/TimbSwapRouter.sol\":12043:12049  tokenA */\n      dup7\n        /* \"contracts/TimbSwapRouter.sol\":12051:12057  tokenB */\n      dup7\n        /* \"contracts/TimbSwapRouter.sol\":12010:12058  IFactory(factory).getPairAddress(tokenA, tokenB) */\n      mload(0x40)\n      dup4\n      0xffffffff\n      and\n      0xe0\n      shl\n      dup2\n      mstore\n      0x04\n      add\n      tag_243\n      swap3\n      swap2\n      swap1\n      tag_244\n      jump\t// in\n    tag_243:\n      0x20\n      mload(0x40)\n      dup1\n      dup4\n      sub\n      dup2\n      dup7\n      gas\n      staticcall\n      iszero\n      dup1\n      iszero\n      tag_246\n      jumpi\n      returndatasize\n      0x00\n      dup1\n      returndatacopy\n      revert(0x00, returndatasize)\n    tag_246:\n      pop\n      pop\n      pop\n      pop\n      mload(0x40)\n      returndatasize\n      not(0x1f)\n      0x1f\n      dup3\n      add\n      and\n      dup3\n      add\n      dup1\n      0x40\n      mstore\n      pop\n      dup2\n      add\n      swap1\n      tag_247\n      swap2\n      swap1\n      tag_248\n      jump\t// in\n    tag_247:\n        /* \"contracts/TimbSwapRouter.sol\":11995:12058  address pair = IFactory(factory).getPairAddress(tokenA, tokenB) */\n      swap1\n      pop\n        /* \"contracts/TimbSwapRouter.sol\":12088:12089  0 */\n      0x00\n        /* \"contracts/TimbSwapRouter.sol\":12072:12090  pair == address(0) */\n      0xffffffffffffffffffffffffffffffffffffffff\n      and\n        /* \"contracts/TimbSwapRouter.sol\":12072:12076  pair */\n      dup2\n        /* \"contracts/TimbSwapRouter.sol\":12072:12090  pair == address(0) */\n      0xffffffffffffffffffffffffffffffffffffffff\n      and\n      sub\n        /* \"contracts/TimbSwapRouter.sol\":12068:12105  if (pair == address(0)) return (0, 0) */\n      tag_249\n      jumpi\n        /* \"contracts/TimbSwapRouter.sol\":12100:12101  0 */\n      0x00\n        /* \"contracts/TimbSwapRouter.sol\":12103:12104  0 */\n      dup1\n        /* \"contracts/TimbSwapRouter.sol\":12092:12105  return (0, 0) */\n      swap3\n      pop\n      swap3\n      pop\n      pop\n      jump(tag_242)\n        /* \"contracts/TimbSwapRouter.sol\":12068:12105  if (pair == address(0)) return (0, 0) */\n    tag_249:\n        /* \"contracts/TimbSwapRouter.sol\":12122:12148  _getReserves(pair, tokenA) */\n      tag_250\n        /* \"contracts/TimbSwapRouter.sol\":12135:12139  pair */\n      dup2\n        /* \"contracts/TimbSwapRouter.sol\":12141:12147  tokenA */\n      dup7\n        /* \"contracts/TimbSwapRouter.sol\":12122:12134  _getReserves */\n      tag_197\n        /* \"contracts/TimbSwapRouter.sol\":12122:12148  _getReserves(pair, tokenA) */\n      jump\t// in\n    tag_250:\n        /* \"contracts/TimbSwapRouter.sol\":12115:12148  return _getReserves(pair, tokenA) */\n      swap3\n      pop\n      swap3\n      pop\n      pop\n        /* \"contracts/TimbSwapRouter.sol\":11861:12155  function getReserves(address tokenA, address tokenB)... */\n    tag_242:\n      swap3\n      pop\n      swap3\n      swap1\n      pop\n      jump\t// out\n        /* \"contracts/TimbSwapRouter.sol\":2804:2853  uint256 public constant BPS_DENOMINATOR  = 10_000 */\n    tag_134:\n        /* \"contracts/TimbSwapRouter.sol\":2847:2853  10_000 */\n      0x2710\n        /* \"contracts/TimbSwapRouter.sol\":2804:2853  uint256 public constant BPS_DENOMINATOR  = 10_000 */\n      dup2\n      jump\t// out\n        /* \"contracts/TimbSwapRouter.sol\":16737:17622  function addLiquidity(... */\n    tag_140:\n        /* \"contracts/TimbSwapRouter.sol\":17081:17096  uint256 amountA */\n      0x00\n        /* \"contracts/TimbSwapRouter.sol\":17098:17113  uint256 amountB */\n      dup1\n        /* \"contracts/TimbSwapRouter.sol\":17115:17132  uint256 liquidity */\n      0x00\n        /* \"@openzeppelin/contracts/utils/ReentrancyGuard.sol\":3023:3044  _nonReentrantBefore() */\n      tag_252\n        /* \"@openzeppelin/contracts/utils/ReentrancyGuard.sol\":3023:3042  _nonReentrantBefore */\n      tag_166\n        /* \"@openzeppelin/contracts/utils/ReentrancyGuard.sol\":3023:3044  _nonReentrantBefore() */\n      jump\t// in\n    tag_252:\n        /* \"contracts/TimbSwapRouter.sol\":4972:4978  paused */\n      0x03\n      0x14\n      swap1\n      sload\n      swap1\n      0x0100\n      exp\n      swap1\n      div\n      0xff\n      and\n        /* \"contracts/TimbSwapRouter.sol\":4968:5001  if (paused) revert RouterPaused() */\n      iszero\n      tag_254\n      jumpi\n        /* \"contracts/TimbSwapRouter.sol\":4987:5001  RouterPaused() */\n      mload(0x40)\n      0xf562b5a000000000000000000000000000000000000000000000000000000000\n      dup2\n      mstore\n      0x04\n      add\n      mload(0x40)\n      dup1\n      swap2\n      sub\n      swap1\n      revert\n        /* \"contracts/TimbSwapRouter.sol\":4968:5001  if (paused) revert RouterPaused() */\n    tag_254:\n        /* \"contracts/TimbSwapRouter.sol\":17054:17062  deadline */\n      dup4\n        /* \"contracts/TimbSwapRouter.sol\":4875:4883  deadline */\n      dup1\n        /* \"contracts/TimbSwapRouter.sol\":4857:4872  block.timestamp */\n      timestamp\n        /* \"contracts/TimbSwapRouter.sol\":4857:4883  block.timestamp > deadline */\n      gt\n        /* \"contracts/TimbSwapRouter.sol\":4853:4909  if (block.timestamp > deadline) revert Expired(deadline) */\n      iszero\n      tag_256\n      jumpi\n        /* \"contracts/TimbSwapRouter.sol\":4900:4908  deadline */\n      dup1\n        /* \"contracts/TimbSwapRouter.sol\":4892:4909  Expired(deadline) */\n      mload(0x40)\n      0xf80dbaea00000000000000000000000000000000000000000000000000000000\n      dup2\n      mstore\n      0x04\n      add\n      tag_257\n      swap2\n      swap1\n      tag_51\n      jump\t// in\n    tag_257:\n      mload(0x40)\n      dup1\n      swap2\n      sub\n      swap1\n      revert\n        /* \"contracts/TimbSwapRouter.sol\":4853:4909  if (block.timestamp > deadline) revert Expired(deadline) */\n    tag_256:\n        /* \"contracts/TimbSwapRouter.sol\":17166:17167  0 */\n      0x00\n        /* \"contracts/TimbSwapRouter.sol\":17152:17168  to == address(0) */\n      0xffffffffffffffffffffffffffffffffffffffff\n      and\n        /* \"contracts/TimbSwapRouter.sol\":17152:17154  to */\n      dup7\n        /* \"contracts/TimbSwapRouter.sol\":17152:17168  to == address(0) */\n      0xffffffffffffffffffffffffffffffffffffffff\n      and\n      sub\n        /* \"contracts/TimbSwapRouter.sol\":17148:17190  if (to == address(0)) revert ZeroAddress() */\n      tag_259\n      jumpi\n        /* \"contracts/TimbSwapRouter.sol\":17177:17190  ZeroAddress() */\n      mload(0x40)\n      0xd92e233d00000000000000000000000000000000000000000000000000000000\n      dup2\n      mstore\n      0x04\n      add\n      mload(0x40)\n      dup1\n      swap2\n      sub\n      swap1\n      revert\n        /* \"contracts/TimbSwapRouter.sol\":17148:17190  if (to == address(0)) revert ZeroAddress() */\n    tag_259:\n        /* \"contracts/TimbSwapRouter.sol\":17201:17225  LiquidityParams memory p */\n      0x00\n        /* \"contracts/TimbSwapRouter.sol\":17228:17415  LiquidityParams({... */\n      mload(0x40)\n      dup1\n      0x80\n      add\n      0x40\n      mstore\n      dup1\n        /* \"contracts/TimbSwapRouter.sol\":17274:17288  amountADesired */\n      dup13\n        /* \"contracts/TimbSwapRouter.sol\":17228:17415  LiquidityParams({... */\n      dup2\n      mstore\n      0x20\n      add\n        /* \"contracts/TimbSwapRouter.sol\":17318:17332  amountBDesired */\n      dup12\n        /* \"contracts/TimbSwapRouter.sol\":17228:17415  LiquidityParams({... */\n      dup2\n      mstore\n      0x20\n      add\n        /* \"contracts/TimbSwapRouter.sol\":17358:17368  amountAMin */\n      dup11\n        /* \"contracts/TimbSwapRouter.sol\":17228:17415  LiquidityParams({... */\n      dup2\n      mstore\n      0x20\n      add\n        /* \"contracts/TimbSwapRouter.sol\":17394:17404  amountBMin */\n      dup10\n        /* \"contracts/TimbSwapRouter.sol\":17228:17415  LiquidityParams({... */\n      dup2\n      mstore\n      pop\n        /* \"contracts/TimbSwapRouter.sol\":17201:17415  LiquidityParams memory p = LiquidityParams({... */\n      swap1\n      pop\n        /* \"contracts/TimbSwapRouter.sol\":17426:17449  LiquidityState memory s */\n      0x00\n        /* \"contracts/TimbSwapRouter.sol\":17452:17491  _prepareAddLiquidity(tokenA, tokenB, p) */\n      tag_260\n        /* \"contracts/TimbSwapRouter.sol\":17473:17479  tokenA */\n      dup15\n        /* \"contracts/TimbSwapRouter.sol\":17481:17487  tokenB */\n      dup15\n        /* \"contracts/TimbSwapRouter.sol\":17489:17490  p */\n      dup5\n        /* \"contracts/TimbSwapRouter.sol\":17452:17472  _prepareAddLiquidity */\n      tag_261\n        /* \"contracts/TimbSwapRouter.sol\":17452:17491  _prepareAddLiquidity(tokenA, tokenB, p) */\n      jump\t// in\n    tag_260:\n        /* \"contracts/TimbSwapRouter.sol\":17426:17491  LiquidityState memory s = _prepareAddLiquidity(tokenA, tokenB, p) */\n      swap1\n      pop\n        /* \"contracts/TimbSwapRouter.sol\":17511:17512  s */\n      dup1\n        /* \"contracts/TimbSwapRouter.sol\":17511:17520  s.amountA */\n      0x20\n      add\n      mload\n        /* \"contracts/TimbSwapRouter.sol\":17501:17520  amountA = s.amountA */\n      swap6\n      pop\n        /* \"contracts/TimbSwapRouter.sol\":17540:17541  s */\n      dup1\n        /* \"contracts/TimbSwapRouter.sol\":17540:17549  s.amountB */\n      0x40\n      add\n      mload\n        /* \"contracts/TimbSwapRouter.sol\":17530:17549  amountB = s.amountB */\n      swap5\n      pop\n        /* \"contracts/TimbSwapRouter.sol\":17571:17615  _finalizeAddLiquidity(tokenA, tokenB, s, to) */\n      tag_262\n        /* \"contracts/TimbSwapRouter.sol\":17593:17599  tokenA */\n      dup15\n        /* \"contracts/TimbSwapRouter.sol\":17601:17607  tokenB */\n      dup15\n        /* \"contracts/TimbSwapRouter.sol\":17609:17610  s */\n      dup4\n        /* \"contracts/TimbSwapRouter.sol\":17612:17614  to */\n      dup12\n        /* \"contracts/TimbSwapRouter.sol\":17571:17592  _finalizeAddLiquidity */\n      tag_263\n        /* \"contracts/TimbSwapRouter.sol\":17571:17615  _finalizeAddLiquidity(tokenA, tokenB, s, to) */\n      jump\t// in\n    tag_262:\n        /* \"contracts/TimbSwapRouter.sol\":17559:17615  liquidity = _finalizeAddLiquidity(tokenA, tokenB, s, to) */\n      swap4\n      pop\n        /* \"contracts/TimbSwapRouter.sol\":17138:17622  {... */\n      pop\n      pop\n        /* \"contracts/TimbSwapRouter.sol\":5011:5012  _ */\n      pop\n        /* \"@openzeppelin/contracts/utils/ReentrancyGuard.sol\":3065:3085  _nonReentrantAfter() */\n      tag_264\n        /* \"@openzeppelin/contracts/utils/ReentrancyGuard.sol\":3065:3083  _nonReentrantAfter */\n      tag_176\n        /* \"@openzeppelin/contracts/utils/ReentrancyGuard.sol\":3065:3085  _nonReentrantAfter() */\n      jump\t// in\n    tag_264:\n        /* \"contracts/TimbSwapRouter.sol\":16737:17622  function addLiquidity(... */\n      swap9\n      pop\n      swap9\n      pop\n      swap9\n      swap6\n      pop\n      pop\n      pop\n      pop\n      pop\n      pop\n      jump\t// out\n        /* \"contracts/TimbSwapRouter.sol\":13579:14359  function swapTokensForExactTokens(... */\n    tag_146:\n        /* \"contracts/TimbSwapRouter.sol\":13906:13922  uint256 amountIn */\n      0x00\n        /* \"@openzeppelin/contracts/utils/ReentrancyGuard.sol\":3023:3044  _nonReentrantBefore() */\n      tag_266\n        /* \"@openzeppelin/contracts/utils/ReentrancyGuard.sol\":3023:3042  _nonReentrantBefore */\n      tag_166\n        /* \"@openzeppelin/contracts/utils/ReentrancyGuard.sol\":3023:3044  _nonReentrantBefore() */\n      jump\t// in\n    tag_266:\n        /* \"contracts/TimbSwapRouter.sol\":4972:4978  paused */\n      0x03\n      0x14\n      swap1\n      sload\n      swap1\n      0x0100\n      exp\n      swap1\n      div\n      0xff\n      and\n        /* \"contracts/TimbSwapRouter.sol\":4968:5001  if (paused) revert RouterPaused() */\n      iszero\n      tag_268\n      jumpi\n        /* \"contracts/TimbSwapRouter.sol\":4987:5001  RouterPaused() */\n      mload(0x40)\n      0xf562b5a000000000000000000000000000000000000000000000000000000000\n      dup2\n      mstore\n      0x04\n      add\n      mload(0x40)\n      dup1\n      swap2\n      sub\n      swap1\n      revert\n        /* \"contracts/TimbSwapRouter.sol\":4968:5001  if (paused) revert RouterPaused() */\n    tag_268:\n        /* \"contracts/TimbSwapRouter.sol\":13879:13887  deadline */\n      dup3\n        /* \"contracts/TimbSwapRouter.sol\":4875:4883  deadline */\n      dup1\n        /* \"contracts/TimbSwapRouter.sol\":4857:4872  block.timestamp */\n      timestamp\n        /* \"contracts/TimbSwapRouter.sol\":4857:4883  block.timestamp > deadline */\n      gt\n        /* \"contracts/TimbSwapRouter.sol\":4853:4909  if (block.timestamp > deadline) revert Expired(deadline) */\n      iszero\n      tag_270\n      jumpi\n        /* \"contracts/TimbSwapRouter.sol\":4900:4908  deadline */\n      dup1\n        /* \"contracts/TimbSwapRouter.sol\":4892:4909  Expired(deadline) */\n      mload(0x40)\n      0xf80dbaea00000000000000000000000000000000000000000000000000000000\n      dup2\n      mstore\n      0x04\n      add\n      tag_271\n      swap2\n      swap1\n      tag_51\n      jump\t// in\n    tag_271:\n      mload(0x40)\n      dup1\n      swap2\n      sub\n      swap1\n      revert\n        /* \"contracts/TimbSwapRouter.sol\":4853:4909  if (block.timestamp > deadline) revert Expired(deadline) */\n    tag_270:\n        /* \"contracts/TimbSwapRouter.sol\":13955:13956  0 */\n      0x00\n        /* \"contracts/TimbSwapRouter.sol\":13942:13951  amountOut */\n      dup10\n        /* \"contracts/TimbSwapRouter.sol\":13942:13956  amountOut == 0 */\n      sub\n        /* \"contracts/TimbSwapRouter.sol\":13938:13979  if (amountOut == 0)   revert ZeroAmount() */\n      tag_273\n      jumpi\n        /* \"contracts/TimbSwapRouter.sol\":13967:13979  ZeroAmount() */\n      mload(0x40)\n      0x1f2a200500000000000000000000000000000000000000000000000000000000\n      dup2\n      mstore\n      0x04\n      add\n      mload(0x40)\n      dup1\n      swap2\n      sub\n      swap1\n      revert\n        /* \"contracts/TimbSwapRouter.sol\":13938:13979  if (amountOut == 0)   revert ZeroAmount() */\n    tag_273:\n        /* \"contracts/TimbSwapRouter.sol\":14007:14008  0 */\n      0x00\n        /* \"contracts/TimbSwapRouter.sol\":13993:14009  to == address(0) */\n      0xffffffffffffffffffffffffffffffffffffffff\n      and\n        /* \"contracts/TimbSwapRouter.sol\":13993:13995  to */\n      dup6\n        /* \"contracts/TimbSwapRouter.sol\":13993:14009  to == address(0) */\n      0xffffffffffffffffffffffffffffffffffffffff\n      and\n      sub\n        /* \"contracts/TimbSwapRouter.sol\":13989:14031  if (to == address(0)) revert ZeroAddress() */\n      tag_274\n      jumpi\n        /* \"contracts/TimbSwapRouter.sol\":14018:14031  ZeroAddress() */\n      mload(0x40)\n      0xd92e233d00000000000000000000000000000000000000000000000000000000\n      dup2\n      mstore\n      0x04\n      add\n      mload(0x40)\n      dup1\n      swap2\n      sub\n      swap1\n      revert\n        /* \"contracts/TimbSwapRouter.sol\":13989:14031  if (to == address(0)) revert ZeroAddress() */\n    tag_274:\n        /* \"contracts/TimbSwapRouter.sol\":14043:14060  uint256 reserveIn */\n      0x00\n        /* \"contracts/TimbSwapRouter.sol\":14062:14080  uint256 reserveOut */\n      dup1\n        /* \"contracts/TimbSwapRouter.sol\":14084:14134  _getReserves(_getPair(tokenIn, tokenOut), tokenIn) */\n      tag_275\n        /* \"contracts/TimbSwapRouter.sol\":14097:14124  _getPair(tokenIn, tokenOut) */\n      tag_276\n        /* \"contracts/TimbSwapRouter.sol\":14106:14113  tokenIn */\n      dup11\n        /* \"contracts/TimbSwapRouter.sol\":14115:14123  tokenOut */\n      dup11\n        /* \"contracts/TimbSwapRouter.sol\":14097:14105  _getPair */\n      tag_196\n        /* \"contracts/TimbSwapRouter.sol\":14097:14124  _getPair(tokenIn, tokenOut) */\n      jump\t// in\n    tag_276:\n        /* \"contracts/TimbSwapRouter.sol\":14126:14133  tokenIn */\n      dup11\n        /* \"contracts/TimbSwapRouter.sol\":14084:14096  _getReserves */\n      tag_197\n        /* \"contracts/TimbSwapRouter.sol\":14084:14134  _getReserves(_getPair(tokenIn, tokenOut), tokenIn) */\n      jump\t// in\n    tag_275:\n        /* \"contracts/TimbSwapRouter.sol\":14042:14134  (uint256 reserveIn, uint256 reserveOut) = _getReserves(_getPair(tokenIn, tokenOut), tokenIn) */\n      swap2\n      pop\n      swap2\n      pop\n        /* \"contracts/TimbSwapRouter.sol\":14155:14201  _getAmountIn(amountOut, reserveIn, reserveOut) */\n      tag_277\n        /* \"contracts/TimbSwapRouter.sol\":14168:14177  amountOut */\n      dup12\n        /* \"contracts/TimbSwapRouter.sol\":14179:14188  reserveIn */\n      dup4\n        /* \"contracts/TimbSwapRouter.sol\":14190:14200  reserveOut */\n      dup4\n        /* \"contracts/TimbSwapRouter.sol\":14155:14167  _getAmountIn */\n      tag_217\n        /* \"contracts/TimbSwapRouter.sol\":14155:14201  _getAmountIn(amountOut, reserveIn, reserveOut) */\n      jump\t// in\n    tag_277:\n        /* \"contracts/TimbSwapRouter.sol\":14144:14201  amountIn = _getAmountIn(amountOut, reserveIn, reserveOut) */\n      swap4\n      pop\n        /* \"contracts/TimbSwapRouter.sol\":14227:14238  amountInMax */\n      dup10\n        /* \"contracts/TimbSwapRouter.sol\":14216:14224  amountIn */\n      dup5\n        /* \"contracts/TimbSwapRouter.sol\":14216:14238  amountIn > amountInMax */\n      gt\n        /* \"contracts/TimbSwapRouter.sol\":14212:14269  if (amountIn > amountInMax) revert ExcessiveInputAmount() */\n      iszero\n      tag_278\n      jumpi\n        /* \"contracts/TimbSwapRouter.sol\":14247:14269  ExcessiveInputAmount() */\n      mload(0x40)\n      0xe1b0da4f00000000000000000000000000000000000000000000000000000000\n      dup2\n      mstore\n      0x04\n      add\n      mload(0x40)\n      dup1\n      swap2\n      sub\n      swap1\n      revert\n        /* \"contracts/TimbSwapRouter.sol\":14212:14269  if (amountIn > amountInMax) revert ExcessiveInputAmount() */\n    tag_278:\n        /* \"contracts/TimbSwapRouter.sol\":14280:14352  _executeSwap(tokenIn, tokenOut, amountIn, amountOut, to, influencePrize) */\n      tag_279\n        /* \"contracts/TimbSwapRouter.sol\":14293:14300  tokenIn */\n      dup10\n        /* \"contracts/TimbSwapRouter.sol\":14302:14310  tokenOut */\n      dup10\n        /* \"contracts/TimbSwapRouter.sol\":14312:14320  amountIn */\n      dup7\n        /* \"contracts/TimbSwapRouter.sol\":14322:14331  amountOut */\n      dup15\n        /* \"contracts/TimbSwapRouter.sol\":14333:14335  to */\n      dup12\n        /* \"contracts/TimbSwapRouter.sol\":14337:14351  influencePrize */\n      dup11\n        /* \"contracts/TimbSwapRouter.sol\":14280:14292  _executeSwap */\n      tag_202\n        /* \"contracts/TimbSwapRouter.sol\":14280:14352  _executeSwap(tokenIn, tokenOut, amountIn, amountOut, to, influencePrize) */\n      jump\t// in\n    tag_279:\n        /* \"contracts/TimbSwapRouter.sol\":13928:14359  {... */\n      pop\n      pop\n        /* \"contracts/TimbSwapRouter.sol\":5011:5012  _ */\n      pop\n        /* \"@openzeppelin/contracts/utils/ReentrancyGuard.sol\":3065:3085  _nonReentrantAfter() */\n      tag_280\n        /* \"@openzeppelin/contracts/utils/ReentrancyGuard.sol\":3065:3083  _nonReentrantAfter */\n      tag_176\n        /* \"@openzeppelin/contracts/utils/ReentrancyGuard.sol\":3065:3085  _nonReentrantAfter() */\n      jump\t// in\n    tag_280:\n        /* \"contracts/TimbSwapRouter.sol\":13579:14359  function swapTokensForExactTokens(... */\n      swap8\n      swap7\n      pop\n      pop\n      pop\n      pop\n      pop\n      pop\n      pop\n      jump\t// out\n        /* \"contracts/TimbSwapRouter.sol\":5872:6078  function setTreasury(address _treasury) external onlyOwner {... */\n    tag_151:\n        /* \"@openzeppelin/contracts/access/Ownable.sol\":1531:1544  _checkOwner() */\n      tag_282\n        /* \"@openzeppelin/contracts/access/Ownable.sol\":1531:1542  _checkOwner */\n      tag_182\n        /* \"@openzeppelin/contracts/access/Ownable.sol\":1531:1544  _checkOwner() */\n      jump\t// in\n    tag_282:\n        /* \"contracts/TimbSwapRouter.sol\":5966:5967  0 */\n      0x00\n        /* \"contracts/TimbSwapRouter.sol\":5945:5968  _treasury == address(0) */\n      0xffffffffffffffffffffffffffffffffffffffff\n      and\n        /* \"contracts/TimbSwapRouter.sol\":5945:5954  _treasury */\n      dup2\n        /* \"contracts/TimbSwapRouter.sol\":5945:5968  _treasury == address(0) */\n      0xffffffffffffffffffffffffffffffffffffffff\n      and\n      sub\n        /* \"contracts/TimbSwapRouter.sol\":5941:5990  if (_treasury == address(0)) revert ZeroAddress() */\n      tag_284\n      jumpi\n        /* \"contracts/TimbSwapRouter.sol\":5977:5990  ZeroAddress() */\n      mload(0x40)\n      0xd92e233d00000000000000000000000000000000000000000000000000000000\n      dup2\n      mstore\n      0x04\n      add\n      mload(0x40)\n      dup1\n      swap2\n      sub\n      swap1\n      revert\n        /* \"contracts/TimbSwapRouter.sol\":5941:5990  if (_treasury == address(0)) revert ZeroAddress() */\n    tag_284:\n        /* \"contracts/TimbSwapRouter.sol\":6031:6040  _treasury */\n      dup1\n        /* \"contracts/TimbSwapRouter.sol\":6005:6041  TreasuryUpdated(treasury, _treasury) */\n      0xffffffffffffffffffffffffffffffffffffffff\n      and\n        /* \"contracts/TimbSwapRouter.sol\":6021:6029  treasury */\n      0x01\n      0x00\n      swap1\n      sload\n      swap1\n      0x0100\n      exp\n      swap1\n      div\n      0xffffffffffffffffffffffffffffffffffffffff\n      and\n        /* \"contracts/TimbSwapRouter.sol\":6005:6041  TreasuryUpdated(treasury, _treasury) */\n      0xffffffffffffffffffffffffffffffffffffffff\n      and\n      0x4ab5be82436d353e61ca18726e984e561f5c1cc7c6d38b29d2553c790434705a\n      mload(0x40)\n      mload(0x40)\n      dup1\n      swap2\n      sub\n      swap1\n      log3\n        /* \"contracts/TimbSwapRouter.sol\":6062:6071  _treasury */\n      dup1\n        /* \"contracts/TimbSwapRouter.sol\":6051:6059  treasury */\n      0x01\n      0x00\n        /* \"contracts/TimbSwapRouter.sol\":6051:6071  treasury = _treasury */\n      0x0100\n      exp\n      dup2\n      sload\n      dup2\n      0xffffffffffffffffffffffffffffffffffffffff\n      mul\n      not\n      and\n      swap1\n      dup4\n      0xffffffffffffffffffffffffffffffffffffffff\n      and\n      mul\n      or\n      swap1\n      sstore\n      pop\n        /* \"contracts/TimbSwapRouter.sol\":5872:6078  function setTreasury(address _treasury) external onlyOwner {... */\n      pop\n      jump\t// out\n        /* \"contracts/TimbSwapRouter.sol\":6084:6220  function setEligibleRegistry(address _r) external onlyOwner {... */\n    tag_155:\n        /* \"@openzeppelin/contracts/access/Ownable.sol\":1531:1544  _checkOwner() */\n      tag_286\n        /* \"@openzeppelin/contracts/access/Ownable.sol\":1531:1542  _checkOwner */\n      tag_182\n        /* \"@openzeppelin/contracts/access/Ownable.sol\":1531:1544  _checkOwner() */\n      jump\t// in\n    tag_286:\n        /* \"contracts/TimbSwapRouter.sol\":6173:6175  _r */\n      dup1\n        /* \"contracts/TimbSwapRouter.sol\":6154:6170  eligibleRegistry */\n      0x02\n      0x00\n        /* \"contracts/TimbSwapRouter.sol\":6154:6175  eligibleRegistry = _r */\n      0x0100\n      exp\n      dup2\n      sload\n      dup2\n      0xffffffffffffffffffffffffffffffffffffffff\n      mul\n      not\n      and\n      swap1\n      dup4\n      0xffffffffffffffffffffffffffffffffffffffff\n      and\n      mul\n      or\n      swap1\n      sstore\n      pop\n        /* \"contracts/TimbSwapRouter.sol\":6210:6212  _r */\n      dup1\n        /* \"contracts/TimbSwapRouter.sol\":6190:6213  EligibleRegistrySet(_r) */\n      0xffffffffffffffffffffffffffffffffffffffff\n      and\n      0x34b668b6f49e81b64bdb88c7de7501c0a197d9b12c46848ef3bcd59152843210\n      mload(0x40)\n      mload(0x40)\n      dup1\n      swap2\n      sub\n      swap1\n      log2\n        /* \"contracts/TimbSwapRouter.sol\":6084:6220  function setEligibleRegistry(address _r) external onlyOwner {... */\n      pop\n      jump\t// out\n        /* \"@openzeppelin/contracts/access/Ownable.sol\":2543:2758  function transferOwnership(address newOwner) public virtual onlyOwner {... */\n    tag_159:\n        /* \"@openzeppelin/contracts/access/Ownable.sol\":1531:1544  _checkOwner() */\n      tag_289\n        /* \"@openzeppelin/contracts/access/Ownable.sol\":1531:1542  _checkOwner */\n      tag_182\n        /* \"@openzeppelin/contracts/access/Ownable.sol\":1531:1544  _checkOwner() */\n      jump\t// in\n    tag_289:\n        /* \"@openzeppelin/contracts/access/Ownable.sol\":2647:2648  0 */\n      0x00\n        /* \"@openzeppelin/contracts/access/Ownable.sol\":2627:2649  newOwner == address(0) */\n      0xffffffffffffffffffffffffffffffffffffffff\n      and\n        /* \"@openzeppelin/contracts/access/Ownable.sol\":2627:2635  newOwner */\n      dup2\n        /* \"@openzeppelin/contracts/access/Ownable.sol\":2627:2649  newOwner == address(0) */\n      0xffffffffffffffffffffffffffffffffffffffff\n      and\n      sub\n        /* \"@openzeppelin/contracts/access/Ownable.sol\":2623:2714  if (newOwner == address(0)) {... */\n      tag_291\n      jumpi\n        /* \"@openzeppelin/contracts/access/Ownable.sol\":2700:2701  0 */\n      0x00\n        /* \"@openzeppelin/contracts/access/Ownable.sol\":2672:2703  OwnableInvalidOwner(address(0)) */\n      mload(0x40)\n      0x1e4fbdf700000000000000000000000000000000000000000000000000000000\n      dup2\n      mstore\n      0x04\n      add\n      tag_292\n      swap2\n      swap1\n      tag_70\n      jump\t// in\n    tag_292:\n      mload(0x40)\n      dup1\n      swap2\n      sub\n      swap1\n      revert\n        /* \"@openzeppelin/contracts/access/Ownable.sol\":2623:2714  if (newOwner == address(0)) {... */\n    tag_291:\n        /* \"@openzeppelin/contracts/access/Ownable.sol\":2723:2751  _transferOwnership(newOwner) */\n      tag_293\n        /* \"@openzeppelin/contracts/access/Ownable.sol\":2742:2750  newOwner */\n      dup2\n        /* \"@openzeppelin/contracts/access/Ownable.sol\":2723:2741  _transferOwnership */\n      tag_211\n        /* \"@openzeppelin/contracts/access/Ownable.sol\":2723:2751  _transferOwnership(newOwner) */\n      jump\t// in\n    tag_293:\n        /* \"@openzeppelin/contracts/access/Ownable.sol\":2543:2758  function transferOwnership(address newOwner) public virtual onlyOwner {... */\n      pop\n      jump\t// out\n        /* \"contracts/TimbSwapRouter.sol\":18730:19630  function addLiquidityETH(... */\n    tag_162:\n        /* \"contracts/TimbSwapRouter.sol\":19046:19065  uint256 amountToken */\n      0x00\n        /* \"contracts/TimbSwapRouter.sol\":19067:19084  uint256 amountETH */\n      dup1\n        /* \"contracts/TimbSwapRouter.sol\":19086:19103  uint256 liquidity */\n      0x00\n        /* \"@openzeppelin/contracts/utils/ReentrancyGuard.sol\":3023:3044  _nonReentrantBefore() */\n      tag_295\n        /* \"@openzeppelin/contracts/utils/ReentrancyGuard.sol\":3023:3042  _nonReentrantBefore */\n      tag_166\n        /* \"@openzeppelin/contracts/utils/ReentrancyGuard.sol\":3023:3044  _nonReentrantBefore() */\n      jump\t// in\n    tag_295:\n        /* \"contracts/TimbSwapRouter.sol\":4972:4978  paused */\n      0x03\n      0x14\n      swap1\n      sload\n      swap1\n      0x0100\n      exp\n      swap1\n      div\n      0xff\n      and\n        /* \"contracts/TimbSwapRouter.sol\":4968:5001  if (paused) revert RouterPaused() */\n      iszero\n      tag_297\n      jumpi\n        /* \"contracts/TimbSwapRouter.sol\":4987:5001  RouterPaused() */\n      mload(0x40)\n      0xf562b5a000000000000000000000000000000000000000000000000000000000\n      dup2\n      mstore\n      0x04\n      add\n      mload(0x40)\n      dup1\n      swap2\n      sub\n      swap1\n      revert\n        /* \"contracts/TimbSwapRouter.sol\":4968:5001  if (paused) revert RouterPaused() */\n    tag_297:\n        /* \"contracts/TimbSwapRouter.sol\":19019:19027  deadline */\n      dup4\n        /* \"contracts/TimbSwapRouter.sol\":4875:4883  deadline */\n      dup1\n        /* \"contracts/TimbSwapRouter.sol\":4857:4872  block.timestamp */\n      timestamp\n        /* \"contracts/TimbSwapRouter.sol\":4857:4883  block.timestamp > deadline */\n      gt\n        /* \"contracts/TimbSwapRouter.sol\":4853:4909  if (block.timestamp > deadline) revert Expired(deadline) */\n      iszero\n      tag_299\n      jumpi\n        /* \"contracts/TimbSwapRouter.sol\":4900:4908  deadline */\n      dup1\n        /* \"contracts/TimbSwapRouter.sol\":4892:4909  Expired(deadline) */\n      mload(0x40)\n      0xf80dbaea00000000000000000000000000000000000000000000000000000000\n      dup2\n      mstore\n      0x04\n      add\n      tag_300\n      swap2\n      swap1\n      tag_51\n      jump\t// in\n    tag_300:\n      mload(0x40)\n      dup1\n      swap2\n      sub\n      swap1\n      revert\n        /* \"contracts/TimbSwapRouter.sol\":4853:4909  if (block.timestamp > deadline) revert Expired(deadline) */\n    tag_299:\n        /* \"contracts/TimbSwapRouter.sol\":19139:19140  0 */\n      0x00\n        /* \"contracts/TimbSwapRouter.sol\":19123:19141  weth == address(0) */\n      0xffffffffffffffffffffffffffffffffffffffff\n      and\n        /* \"contracts/TimbSwapRouter.sol\":19123:19127  weth */\n      0x04\n      0x00\n      swap1\n      sload\n      swap1\n      0x0100\n      exp\n      swap1\n      div\n      0xffffffffffffffffffffffffffffffffffffffff\n      and\n        /* \"contracts/TimbSwapRouter.sol\":19123:19141  weth == address(0) */\n      0xffffffffffffffffffffffffffffffffffffffff\n      and\n      sub\n        /* \"contracts/TimbSwapRouter.sol\":19119:19162  if (weth == address(0)) revert WethNotSet() */\n      tag_302\n      jumpi\n        /* \"contracts/TimbSwapRouter.sol\":19150:19162  WethNotSet() */\n      mload(0x40)\n      0x0dc08fa200000000000000000000000000000000000000000000000000000000\n      dup2\n      mstore\n      0x04\n      add\n      mload(0x40)\n      dup1\n      swap2\n      sub\n      swap1\n      revert\n        /* \"contracts/TimbSwapRouter.sol\":19119:19162  if (weth == address(0)) revert WethNotSet() */\n    tag_302:\n        /* \"contracts/TimbSwapRouter.sol\":19190:19191  0 */\n      0x00\n        /* \"contracts/TimbSwapRouter.sol\":19176:19192  to == address(0) */\n      0xffffffffffffffffffffffffffffffffffffffff\n      and\n        /* \"contracts/TimbSwapRouter.sol\":19176:19178  to */\n      dup7\n        /* \"contracts/TimbSwapRouter.sol\":19176:19192  to == address(0) */\n      0xffffffffffffffffffffffffffffffffffffffff\n      and\n      sub\n        /* \"contracts/TimbSwapRouter.sol\":19172:19214  if (to == address(0)) revert ZeroAddress() */\n      tag_303\n      jumpi\n        /* \"contracts/TimbSwapRouter.sol\":19201:19214  ZeroAddress() */\n      mload(0x40)\n      0xd92e233d00000000000000000000000000000000000000000000000000000000\n      dup2\n      mstore\n      0x04\n      add\n      mload(0x40)\n      dup1\n      swap2\n      sub\n      swap1\n      revert\n        /* \"contracts/TimbSwapRouter.sol\":19172:19214  if (to == address(0)) revert ZeroAddress() */\n    tag_303:\n        /* \"contracts/TimbSwapRouter.sol\":19241:19242  0 */\n      0x00\n        /* \"contracts/TimbSwapRouter.sol\":19228:19237  msg.value */\n      callvalue\n        /* \"contracts/TimbSwapRouter.sol\":19228:19242  msg.value == 0 */\n      sub\n        /* \"contracts/TimbSwapRouter.sol\":19224:19263  if (msg.value == 0) revert ZeroAmount() */\n      tag_304\n      jumpi\n        /* \"contracts/TimbSwapRouter.sol\":19251:19263  ZeroAmount() */\n      mload(0x40)\n      0x1f2a200500000000000000000000000000000000000000000000000000000000\n      dup2\n      mstore\n      0x04\n      add\n      mload(0x40)\n      dup1\n      swap2\n      sub\n      swap1\n      revert\n        /* \"contracts/TimbSwapRouter.sol\":19224:19263  if (msg.value == 0) revert ZeroAmount() */\n    tag_304:\n        /* \"contracts/TimbSwapRouter.sol\":19274:19297  LiquidityState memory s */\n      0x00\n        /* \"contracts/TimbSwapRouter.sol\":19300:19461  _prepareAddLiquidityETH(... */\n      tag_305\n        /* \"contracts/TimbSwapRouter.sol\":19337:19342  token */\n      dup12\n        /* \"contracts/TimbSwapRouter.sol\":19356:19374  amountTokenDesired */\n      dup12\n        /* \"contracts/TimbSwapRouter.sol\":19388:19397  msg.value */\n      callvalue\n        /* \"contracts/TimbSwapRouter.sol\":19411:19425  amountTokenMin */\n      dup13\n        /* \"contracts/TimbSwapRouter.sol\":19439:19451  amountETHMin */\n      dup13\n        /* \"contracts/TimbSwapRouter.sol\":19300:19323  _prepareAddLiquidityETH */\n      tag_306\n        /* \"contracts/TimbSwapRouter.sol\":19300:19461  _prepareAddLiquidityETH(... */\n      jump\t// in\n    tag_305:\n        /* \"contracts/TimbSwapRouter.sol\":19274:19461  LiquidityState memory s = _prepareAddLiquidityETH(... */\n      swap1\n      pop\n        /* \"contracts/TimbSwapRouter.sol\":19486:19487  s */\n      dup1\n        /* \"contracts/TimbSwapRouter.sol\":19486:19495  s.amountA */\n      0x20\n      add\n      mload\n        /* \"contracts/TimbSwapRouter.sol\":19472:19495  amountToken = s.amountA */\n      swap5\n      pop\n        /* \"contracts/TimbSwapRouter.sol\":19517:19518  s */\n      dup1\n        /* \"contracts/TimbSwapRouter.sol\":19517:19526  s.amountB */\n      0x40\n      add\n      mload\n        /* \"contracts/TimbSwapRouter.sol\":19505:19526  amountETH = s.amountB */\n      swap4\n      pop\n        /* \"contracts/TimbSwapRouter.sol\":19548:19586  _finalizeAddLiquidityETH(token, s, to) */\n      tag_307\n        /* \"contracts/TimbSwapRouter.sol\":19573:19578  token */\n      dup12\n        /* \"contracts/TimbSwapRouter.sol\":19580:19581  s */\n      dup3\n        /* \"contracts/TimbSwapRouter.sol\":19583:19585  to */\n      dup10\n        /* \"contracts/TimbSwapRouter.sol\":19548:19572  _finalizeAddLiquidityETH */\n      tag_308\n        /* \"contracts/TimbSwapRouter.sol\":19548:19586  _finalizeAddLiquidityETH(token, s, to) */\n      jump\t// in\n    tag_307:\n        /* \"contracts/TimbSwapRouter.sol\":19536:19586  liquidity = _finalizeAddLiquidityETH(token, s, to) */\n      swap3\n      pop\n        /* \"contracts/TimbSwapRouter.sol\":19596:19623  _refundExcessETH(amountETH) */\n      tag_309\n        /* \"contracts/TimbSwapRouter.sol\":19613:19622  amountETH */\n      dup5\n        /* \"contracts/TimbSwapRouter.sol\":19596:19612  _refundExcessETH */\n      tag_310\n        /* \"contracts/TimbSwapRouter.sol\":19596:19623  _refundExcessETH(amountETH) */\n      jump\t// in\n    tag_309:\n        /* \"contracts/TimbSwapRouter.sol\":19109:19630  {... */\n      pop\n        /* \"contracts/TimbSwapRouter.sol\":5011:5012  _ */\n      pop\n        /* \"@openzeppelin/contracts/utils/ReentrancyGuard.sol\":3065:3085  _nonReentrantAfter() */\n      tag_311\n        /* \"@openzeppelin/contracts/utils/ReentrancyGuard.sol\":3065:3083  _nonReentrantAfter */\n      tag_176\n        /* \"@openzeppelin/contracts/utils/ReentrancyGuard.sol\":3065:3085  _nonReentrantAfter() */\n      jump\t// in\n    tag_311:\n        /* \"contracts/TimbSwapRouter.sol\":18730:19630  function addLiquidityETH(... */\n      swap7\n      pop\n      swap7\n      pop\n      swap7\n      swap4\n      pop\n      pop\n      pop\n      pop\n      jump\t// out\n        /* \"@openzeppelin/contracts/utils/ReentrancyGuard.sol\":3749:4041  function _nonReentrantBefore() private {... */\n    tag_166:\n        /* \"@openzeppelin/contracts/utils/ReentrancyGuard.sol\":3872:3897  _nonReentrantBeforeView() */\n      tag_313\n        /* \"@openzeppelin/contracts/utils/ReentrancyGuard.sol\":3872:3895  _nonReentrantBeforeView */\n      tag_314\n        /* \"@openzeppelin/contracts/utils/ReentrancyGuard.sol\":3872:3897  _nonReentrantBeforeView() */\n      jump\t// in\n    tag_313:\n        /* \"@openzeppelin/contracts/utils/ReentrancyGuard.sol\":2407:2408  2 */\n      0x02\n        /* \"@openzeppelin/contracts/utils/ReentrancyGuard.sol\":3972:4018  _reentrancyGuardStorageSlot().getUint256Slot() */\n      tag_315\n        /* \"@openzeppelin/contracts/utils/ReentrancyGuard.sol\":3972:4001  _reentrancyGuardStorageSlot() */\n      tag_316\n        /* \"@openzeppelin/contracts/utils/ReentrancyGuard.sol\":3972:3999  _reentrancyGuardStorageSlot */\n      tag_317\n        /* \"@openzeppelin/contracts/utils/ReentrancyGuard.sol\":3972:4001  _reentrancyGuardStorageSlot() */\n      jump\t// in\n    tag_316:\n        /* \"@openzeppelin/contracts/utils/ReentrancyGuard.sol\":3972:4016  _reentrancyGuardStorageSlot().getUint256Slot */\n      tag_318\n        /* \"@openzeppelin/contracts/utils/ReentrancyGuard.sol\":3972:4018  _reentrancyGuardStorageSlot().getUint256Slot() */\n      jump\t// in\n    tag_315:\n        /* \"@openzeppelin/contracts/utils/ReentrancyGuard.sol\":3972:4024  _reentrancyGuardStorageSlot().getUint256Slot().value */\n      0x00\n      add\n        /* \"@openzeppelin/contracts/utils/ReentrancyGuard.sol\":3972:4034  _reentrancyGuardStorageSlot().getUint256Slot().value = ENTERED */\n      dup2\n      swap1\n      sstore\n      pop\n        /* \"@openzeppelin/contracts/utils/ReentrancyGuard.sol\":3749:4041  function _nonReentrantBefore() private {... */\n      jump\t// out\n        /* \"contracts/TimbSwapRouter.sol\":23188:24002  function _doRemoveLiquidityETH(... */\n    tag_174:\n        /* \"contracts/TimbSwapRouter.sol\":23375:23394  uint256 amountToken */\n      0x00\n        /* \"contracts/TimbSwapRouter.sol\":23396:23413  uint256 amountETH */\n      dup1\n        /* \"contracts/TimbSwapRouter.sol\":23425:23437  address pair */\n      0x00\n        /* \"contracts/TimbSwapRouter.sol\":23440:23461  _getPair(token, weth) */\n      tag_320\n        /* \"contracts/TimbSwapRouter.sol\":23449:23454  token */\n      dup9\n        /* \"contracts/TimbSwapRouter.sol\":23456:23460  weth */\n      0x04\n      0x00\n      swap1\n      sload\n      swap1\n      0x0100\n      exp\n      swap1\n      div\n      0xffffffffffffffffffffffffffffffffffffffff\n      and\n        /* \"contracts/TimbSwapRouter.sol\":23440:23448  _getPair */\n      tag_196\n        /* \"contracts/TimbSwapRouter.sol\":23440:23461  _getPair(token, weth) */\n      jump\t// in\n    tag_320:\n        /* \"contracts/TimbSwapRouter.sol\":23425:23461  address pair = _getPair(token, weth) */\n      swap1\n      pop\n        /* \"contracts/TimbSwapRouter.sol\":23566:23617  _burnAndSort(pair, token, liquidity, address(this)) */\n      tag_321\n        /* \"contracts/TimbSwapRouter.sol\":23579:23583  pair */\n      dup2\n        /* \"contracts/TimbSwapRouter.sol\":23585:23590  token */\n      dup10\n        /* \"contracts/TimbSwapRouter.sol\":23592:23601  liquidity */\n      dup10\n        /* \"contracts/TimbSwapRouter.sol\":23611:23615  this */\n      address\n        /* \"contracts/TimbSwapRouter.sol\":23566:23578  _burnAndSort */\n      tag_235\n        /* \"contracts/TimbSwapRouter.sol\":23566:23617  _burnAndSort(pair, token, liquidity, address(this)) */\n      jump\t// in\n    tag_321:\n        /* \"contracts/TimbSwapRouter.sol\":23539:23617  (amountToken, amountETH) = _burnAndSort(pair, token, liquidity, address(this)) */\n      dup1\n      swap4\n      pop\n      dup2\n      swap5\n      pop\n      pop\n      pop\n        /* \"contracts/TimbSwapRouter.sol\":23646:23660  amountTokenMin */\n      dup6\n        /* \"contracts/TimbSwapRouter.sol\":23632:23643  amountToken */\n      dup4\n        /* \"contracts/TimbSwapRouter.sol\":23632:23660  amountToken < amountTokenMin */\n      lt\n        /* \"contracts/TimbSwapRouter.sol\":23628:23717  if (amountToken < amountTokenMin) revert InsufficientAAmount(amountToken, amountTokenMin) */\n      iszero\n      tag_322\n      jumpi\n        /* \"contracts/TimbSwapRouter.sol\":23689:23700  amountToken */\n      dup3\n        /* \"contracts/TimbSwapRouter.sol\":23702:23716  amountTokenMin */\n      dup7\n        /* \"contracts/TimbSwapRouter.sol\":23669:23717  InsufficientAAmount(amountToken, amountTokenMin) */\n      mload(0x40)\n      0x47c5f09e00000000000000000000000000000000000000000000000000000000\n      dup2\n      mstore\n      0x04\n      add\n      tag_323\n      swap3\n      swap2\n      swap1\n      tag_44\n      jump\t// in\n    tag_323:\n      mload(0x40)\n      dup1\n      swap2\n      sub\n      swap1\n      revert\n        /* \"contracts/TimbSwapRouter.sol\":23628:23717  if (amountToken < amountTokenMin) revert InsufficientAAmount(amountToken, amountTokenMin) */\n    tag_322:\n        /* \"contracts/TimbSwapRouter.sol\":23745:23757  amountETHMin */\n      dup5\n        /* \"contracts/TimbSwapRouter.sol\":23731:23740  amountETH */\n      dup3\n        /* \"contracts/TimbSwapRouter.sol\":23731:23757  amountETH   < amountETHMin */\n      lt\n        /* \"contracts/TimbSwapRouter.sol\":23727:23814  if (amountETH   < amountETHMin)   revert InsufficientBAmount(amountETH,   amountETHMin) */\n      iszero\n      tag_324\n      jumpi\n        /* \"contracts/TimbSwapRouter.sol\":23788:23797  amountETH */\n      dup2\n        /* \"contracts/TimbSwapRouter.sol\":23801:23813  amountETHMin */\n      dup6\n        /* \"contracts/TimbSwapRouter.sol\":23768:23814  InsufficientBAmount(amountETH,   amountETHMin) */\n      mload(0x40)\n      0x5195966700000000000000000000000000000000000000000000000000000000\n      dup2\n      mstore\n      0x04\n      add\n      tag_325\n      swap3\n      swap2\n      swap1\n      tag_44\n      jump\t// in\n    tag_325:\n      mload(0x40)\n      dup1\n      swap2\n      sub\n      swap1\n      revert\n        /* \"contracts/TimbSwapRouter.sol\":23727:23814  if (amountETH   < amountETHMin)   revert InsufficientBAmount(amountETH,   amountETHMin) */\n    tag_324:\n        /* \"contracts/TimbSwapRouter.sol\":23825:23868  IERC20(token).safeTransfer(to, amountToken) */\n      tag_326\n        /* \"contracts/TimbSwapRouter.sol\":23852:23854  to */\n      dup5\n        /* \"contracts/TimbSwapRouter.sol\":23856:23867  amountToken */\n      dup5\n        /* \"contracts/TimbSwapRouter.sol\":23832:23837  token */\n      dup11\n        /* \"contracts/TimbSwapRouter.sol\":23825:23851  IERC20(token).safeTransfer */\n      0xffffffffffffffffffffffffffffffffffffffff\n      and\n      tag_327\n      swap1\n        /* \"contracts/TimbSwapRouter.sol\":23825:23868  IERC20(token).safeTransfer(to, amountToken) */\n      swap3\n      swap2\n      swap1\n      0xffffffff\n      and\n      jump\t// in\n    tag_326:\n        /* \"contracts/TimbSwapRouter.sol\":23878:23910  _unwrapAndSendETH(to, amountETH) */\n      tag_328\n        /* \"contracts/TimbSwapRouter.sol\":23896:23898  to */\n      dup5\n        /* \"contracts/TimbSwapRouter.sol\":23900:23909  amountETH */\n      dup4\n        /* \"contracts/TimbSwapRouter.sol\":23878:23895  _unwrapAndSendETH */\n      tag_329\n        /* \"contracts/TimbSwapRouter.sol\":23878:23910  _unwrapAndSendETH(to, amountETH) */\n      jump\t// in\n    tag_328:\n        /* \"contracts/TimbSwapRouter.sol\":23949:23959  msg.sender */\n      caller\n        /* \"contracts/TimbSwapRouter.sol\":23926:23995  LiquidityRemoved(pair, msg.sender, amountToken, amountETH, liquidity) */\n      0xffffffffffffffffffffffffffffffffffffffff\n      and\n        /* \"contracts/TimbSwapRouter.sol\":23943:23947  pair */\n      dup2\n        /* \"contracts/TimbSwapRouter.sol\":23926:23995  LiquidityRemoved(pair, msg.sender, amountToken, amountETH, liquidity) */\n      0xffffffffffffffffffffffffffffffffffffffff\n      and\n      0xbc7d19d505c7ec4db83f3b51f19fb98c4c8a99922e7839d1ee608dfbee29501b\n        /* \"contracts/TimbSwapRouter.sol\":23961:23972  amountToken */\n      dup6\n        /* \"contracts/TimbSwapRouter.sol\":23974:23983  amountETH */\n      dup6\n        /* \"contracts/TimbSwapRouter.sol\":23985:23994  liquidity */\n      dup12\n        /* \"contracts/TimbSwapRouter.sol\":23926:23995  LiquidityRemoved(pair, msg.sender, amountToken, amountETH, liquidity) */\n      mload(0x40)\n      tag_330\n      swap4\n      swap3\n      swap2\n      swap1\n      tag_142\n      jump\t// in\n    tag_330:\n      mload(0x40)\n      dup1\n      swap2\n      sub\n      swap1\n      log3\n        /* \"contracts/TimbSwapRouter.sol\":23415:24002  {... */\n      pop\n        /* \"contracts/TimbSwapRouter.sol\":23188:24002  function _doRemoveLiquidityETH(... */\n      swap6\n      pop\n      swap6\n      swap4\n      pop\n      pop\n      pop\n      pop\n      jump\t// out\n        /* \"@openzeppelin/contracts/utils/ReentrancyGuard.sol\":4047:4300  function _nonReentrantAfter() private {... */\n    tag_176:\n        /* \"@openzeppelin/contracts/utils/ReentrancyGuard.sol\":2365:2366  1 */\n      0x01\n        /* \"@openzeppelin/contracts/utils/ReentrancyGuard.sol\":4227:4273  _reentrancyGuardStorageSlot().getUint256Slot() */\n      tag_332\n        /* \"@openzeppelin/contracts/utils/ReentrancyGuard.sol\":4227:4256  _reentrancyGuardStorageSlot() */\n      tag_333\n        /* \"@openzeppelin/contracts/utils/ReentrancyGuard.sol\":4227:4254  _reentrancyGuardStorageSlot */\n      tag_317\n        /* \"@openzeppelin/contracts/utils/ReentrancyGuard.sol\":4227:4256  _reentrancyGuardStorageSlot() */\n      jump\t// in\n    tag_333:\n        /* \"@openzeppelin/contracts/utils/ReentrancyGuard.sol\":4227:4271  _reentrancyGuardStorageSlot().getUint256Slot */\n      tag_318\n        /* \"@openzeppelin/contracts/utils/ReentrancyGuard.sol\":4227:4273  _reentrancyGuardStorageSlot().getUint256Slot() */\n      jump\t// in\n    tag_332:\n        /* \"@openzeppelin/contracts/utils/ReentrancyGuard.sol\":4227:4279  _reentrancyGuardStorageSlot().getUint256Slot().value */\n      0x00\n      add\n        /* \"@openzeppelin/contracts/utils/ReentrancyGuard.sol\":4227:4293  _reentrancyGuardStorageSlot().getUint256Slot().value = NOT_ENTERED */\n      dup2\n      swap1\n      sstore\n      pop\n        /* \"@openzeppelin/contracts/utils/ReentrancyGuard.sol\":4047:4300  function _nonReentrantAfter() private {... */\n      jump\t// out\n        /* \"contracts/TimbSwapRouter.sol\":7634:7969  function _getAmountOut(... */\n    tag_179:\n        /* \"contracts/TimbSwapRouter.sol\":7767:7774  uint256 */\n      0x00\n        /* \"contracts/TimbSwapRouter.sol\":7802:7803  0 */\n      dup1\n        /* \"contracts/TimbSwapRouter.sol\":7790:7798  amountIn */\n      dup5\n        /* \"contracts/TimbSwapRouter.sol\":7790:7803  amountIn == 0 */\n      eq\n        /* \"contracts/TimbSwapRouter.sol\":7790:7821  amountIn == 0 || reserveIn == 0 */\n      dup1\n      tag_335\n      jumpi\n      pop\n        /* \"contracts/TimbSwapRouter.sol\":7820:7821  0 */\n      0x00\n        /* \"contracts/TimbSwapRouter.sol\":7807:7816  reserveIn */\n      dup4\n        /* \"contracts/TimbSwapRouter.sol\":7807:7821  reserveIn == 0 */\n      eq\n        /* \"contracts/TimbSwapRouter.sol\":7790:7821  amountIn == 0 || reserveIn == 0 */\n    tag_335:\n        /* \"contracts/TimbSwapRouter.sol\":7790:7840  amountIn == 0 || reserveIn == 0 || reserveOut == 0 */\n      dup1\n      tag_336\n      jumpi\n      pop\n        /* \"contracts/TimbSwapRouter.sol\":7839:7840  0 */\n      0x00\n        /* \"contracts/TimbSwapRouter.sol\":7825:7835  reserveOut */\n      dup3\n        /* \"contracts/TimbSwapRouter.sol\":7825:7840  reserveOut == 0 */\n      eq\n        /* \"contracts/TimbSwapRouter.sol\":7790:7840  amountIn == 0 || reserveIn == 0 || reserveOut == 0 */\n    tag_336:\n        /* \"contracts/TimbSwapRouter.sol\":7786:7861  if (amountIn == 0 || reserveIn == 0 || reserveOut == 0) revert ZeroAmount() */\n      iszero\n      tag_337\n      jumpi\n        /* \"contracts/TimbSwapRouter.sol\":7849:7861  ZeroAmount() */\n      mload(0x40)\n      0x1f2a200500000000000000000000000000000000000000000000000000000000\n      dup2\n      mstore\n      0x04\n      add\n      mload(0x40)\n      dup1\n      swap2\n      sub\n      swap1\n      revert\n        /* \"contracts/TimbSwapRouter.sol\":7786:7861  if (amountIn == 0 || reserveIn == 0 || reserveOut == 0) revert ZeroAmount() */\n    tag_337:\n        /* \"contracts/TimbSwapRouter.sol\":7871:7882  uint256 fee */\n      0x00\n        /* \"contracts/TimbSwapRouter.sol\":7896:7899  997 */\n      0x03e5\n        /* \"contracts/TimbSwapRouter.sol\":7885:7893  amountIn */\n      dup6\n        /* \"contracts/TimbSwapRouter.sol\":7885:7899  amountIn * 997 */\n      tag_338\n      swap2\n      swap1\n      tag_339\n      jump\t// in\n    tag_338:\n        /* \"contracts/TimbSwapRouter.sol\":7871:7899  uint256 fee = amountIn * 997 */\n      swap1\n      pop\n        /* \"contracts/TimbSwapRouter.sol\":7958:7961  fee */\n      dup1\n        /* \"contracts/TimbSwapRouter.sol\":7950:7955  1_000 */\n      0x03e8\n        /* \"contracts/TimbSwapRouter.sol\":7938:7947  reserveIn */\n      dup6\n        /* \"contracts/TimbSwapRouter.sol\":7938:7955  reserveIn * 1_000 */\n      tag_340\n      swap2\n      swap1\n      tag_339\n      jump\t// in\n    tag_340:\n        /* \"contracts/TimbSwapRouter.sol\":7938:7961  reserveIn * 1_000 + fee */\n      tag_341\n      swap2\n      swap1\n      tag_342\n      jump\t// in\n    tag_341:\n        /* \"contracts/TimbSwapRouter.sol\":7923:7933  reserveOut */\n      dup4\n        /* \"contracts/TimbSwapRouter.sol\":7917:7920  fee */\n      dup3\n        /* \"contracts/TimbSwapRouter.sol\":7917:7933  fee * reserveOut */\n      tag_343\n      swap2\n      swap1\n      tag_339\n      jump\t// in\n    tag_343:\n        /* \"contracts/TimbSwapRouter.sol\":7916:7962  (fee * reserveOut) / (reserveIn * 1_000 + fee) */\n      tag_344\n      swap2\n      swap1\n      tag_345\n      jump\t// in\n    tag_344:\n        /* \"contracts/TimbSwapRouter.sol\":7909:7962  return (fee * reserveOut) / (reserveIn * 1_000 + fee) */\n      swap2\n      pop\n      pop\n        /* \"contracts/TimbSwapRouter.sol\":7634:7969  function _getAmountOut(... */\n      swap4\n      swap3\n      pop\n      pop\n      pop\n      jump\t// out\n        /* \"@openzeppelin/contracts/access/Ownable.sol\":1796:1958  function _checkOwner() internal view virtual {... */\n    tag_182:\n        /* \"@openzeppelin/contracts/access/Ownable.sol\":1866:1878  _msgSender() */\n      tag_347\n        /* \"@openzeppelin/contracts/access/Ownable.sol\":1866:1876  _msgSender */\n      tag_348\n        /* \"@openzeppelin/contracts/access/Ownable.sol\":1866:1878  _msgSender() */\n      jump\t// in\n    tag_347:\n        /* \"@openzeppelin/contracts/access/Ownable.sol\":1855:1878  owner() != _msgSender() */\n      0xffffffffffffffffffffffffffffffffffffffff\n      and\n        /* \"@openzeppelin/contracts/access/Ownable.sol\":1855:1862  owner() */\n      tag_349\n        /* \"@openzeppelin/contracts/access/Ownable.sol\":1855:1860  owner */\n      tag_97\n        /* \"@openzeppelin/contracts/access/Ownable.sol\":1855:1862  owner() */\n      jump\t// in\n    tag_349:\n        /* \"@openzeppelin/contracts/access/Ownable.sol\":1855:1878  owner() != _msgSender() */\n      0xffffffffffffffffffffffffffffffffffffffff\n      and\n      eq\n        /* \"@openzeppelin/contracts/access/Ownable.sol\":1851:1952  if (owner() != _msgSender()) {... */\n      tag_350\n      jumpi\n        /* \"@openzeppelin/contracts/access/Ownable.sol\":1928:1940  _msgSender() */\n      tag_351\n        /* \"@openzeppelin/contracts/access/Ownable.sol\":1928:1938  _msgSender */\n      tag_348\n        /* \"@openzeppelin/contracts/access/Ownable.sol\":1928:1940  _msgSender() */\n      jump\t// in\n    tag_351:\n        /* \"@openzeppelin/contracts/access/Ownable.sol\":1901:1941  OwnableUnauthorizedAccount(_msgSender()) */\n      mload(0x40)\n      0x118cdaa700000000000000000000000000000000000000000000000000000000\n      dup2\n      mstore\n      0x04\n      add\n      tag_352\n      swap2\n      swap1\n      tag_70\n      jump\t// in\n    tag_352:\n      mload(0x40)\n      dup1\n      swap2\n      sub\n      swap1\n      revert\n        /* \"@openzeppelin/contracts/access/Ownable.sol\":1851:1952  if (owner() != _msgSender()) {... */\n    tag_350:\n        /* \"@openzeppelin/contracts/access/Ownable.sol\":1796:1958  function _checkOwner() internal view virtual {... */\n      jump\t// out\n        /* \"contracts/TimbSwapRouter.sol\":6848:7088  function _getPair(address tokenA, address tokenB)... */\n    tag_196:\n        /* \"contracts/TimbSwapRouter.sol\":6929:6941  address pair */\n      0x00\n        /* \"contracts/TimbSwapRouter.sol\":6973:6980  factory */\n      immutable(\"0x6c6615e5d53e014adc21c02e9441d3f5ff31bca3ffcf72aca9a284b269e2a4ec\")\n        /* \"contracts/TimbSwapRouter.sol\":6964:6996  IFactory(factory).getPairAddress */\n      0xffffffffffffffffffffffffffffffffffffffff\n      and\n      0xb4f69a2f\n        /* \"contracts/TimbSwapRouter.sol\":6997:7003  tokenA */\n      dup5\n        /* \"contracts/TimbSwapRouter.sol\":7005:7011  tokenB */\n      dup5\n        /* \"contracts/TimbSwapRouter.sol\":6964:7012  IFactory(factory).getPairAddress(tokenA, tokenB) */\n      mload(0x40)\n      dup4\n      0xffffffff\n      and\n      0xe0\n      shl\n      dup2\n      mstore\n      0x04\n      add\n      tag_354\n      swap3\n      swap2\n      swap1\n      tag_244\n      jump\t// in\n    tag_354:\n      0x20\n      mload(0x40)\n      dup1\n      dup4\n      sub\n      dup2\n      dup7\n      gas\n      staticcall\n      iszero\n      dup1\n      iszero\n      tag_356\n      jumpi\n      returndatasize\n      0x00\n      dup1\n      returndatacopy\n      revert(0x00, returndatasize)\n    tag_356:\n      pop\n      pop\n      pop\n      pop\n      mload(0x40)\n      returndatasize\n      not(0x1f)\n      0x1f\n      dup3\n      add\n      and\n      dup3\n      add\n      dup1\n      0x40\n      mstore\n      pop\n      dup2\n      add\n      swap1\n      tag_357\n      swap2\n      swap1\n      tag_248\n      jump\t// in\n    tag_357:\n        /* \"contracts/TimbSwapRouter.sol\":6957:7012  pair = IFactory(factory).getPairAddress(tokenA, tokenB) */\n      swap1\n      pop\n        /* \"contracts/TimbSwapRouter.sol\":7042:7043  0 */\n      0x00\n        /* \"contracts/TimbSwapRouter.sol\":7026:7044  pair == address(0) */\n      0xffffffffffffffffffffffffffffffffffffffff\n      and\n        /* \"contracts/TimbSwapRouter.sol\":7026:7030  pair */\n      dup2\n        /* \"contracts/TimbSwapRouter.sol\":7026:7044  pair == address(0) */\n      0xffffffffffffffffffffffffffffffffffffffff\n      and\n      sub\n        /* \"contracts/TimbSwapRouter.sol\":7022:7081  if (pair == address(0)) revert PairNotFound(tokenA, tokenB) */\n      tag_358\n      jumpi\n        /* \"contracts/TimbSwapRouter.sol\":7066:7072  tokenA */\n      dup3\n        /* \"contracts/TimbSwapRouter.sol\":7074:7080  tokenB */\n      dup3\n        /* \"contracts/TimbSwapRouter.sol\":7053:7081  PairNotFound(tokenA, tokenB) */\n      mload(0x40)\n      0x4db171d400000000000000000000000000000000000000000000000000000000\n      dup2\n      mstore\n      0x04\n      add\n      tag_359\n      swap3\n      swap2\n      swap1\n      tag_244\n      jump\t// in\n    tag_359:\n      mload(0x40)\n      dup1\n      swap2\n      sub\n      swap1\n      revert\n        /* \"contracts/TimbSwapRouter.sol\":7022:7081  if (pair == address(0)) revert PairNotFound(tokenA, tokenB) */\n    tag_358:\n        /* \"contracts/TimbSwapRouter.sol\":6848:7088  function _getPair(address tokenA, address tokenB)... */\n      swap3\n      swap2\n      pop\n      pop\n      jump\t// out\n        /* \"contracts/TimbSwapRouter.sol\":7094:7432  function _getReserves(address pair, address tokenA)... */\n    tag_197:\n        /* \"contracts/TimbSwapRouter.sol\":7177:7193  uint256 reserveA */\n      0x00\n        /* \"contracts/TimbSwapRouter.sol\":7195:7211  uint256 reserveB */\n      dup1\n        /* \"contracts/TimbSwapRouter.sol\":7228:7238  uint112 r0 */\n      0x00\n        /* \"contracts/TimbSwapRouter.sol\":7240:7250  uint112 r1 */\n      dup1\n        /* \"contracts/TimbSwapRouter.sol\":7261:7265  pair */\n      dup6\n        /* \"contracts/TimbSwapRouter.sol\":7255:7278  IPair(pair).getReserves */\n      0xffffffffffffffffffffffffffffffffffffffff\n      and\n      0x0902f1ac\n        /* \"contracts/TimbSwapRouter.sol\":7255:7280  IPair(pair).getReserves() */\n      mload(0x40)\n      dup2\n      0xffffffff\n      and\n      0xe0\n      shl\n      dup2\n      mstore\n      0x04\n      add\n      0x60\n      mload(0x40)\n      dup1\n      dup4\n      sub\n      dup2\n      dup7\n      gas\n      staticcall\n      iszero\n      dup1\n      iszero\n      tag_362\n      jumpi\n      returndatasize\n      0x00\n      dup1\n      returndatacopy\n      revert(0x00, returndatasize)\n    tag_362:\n      pop\n      pop\n      pop\n      pop\n      mload(0x40)\n      returndatasize\n      not(0x1f)\n      0x1f\n      dup3\n      add\n      and\n      dup3\n      add\n      dup1\n      0x40\n      mstore\n      pop\n      dup2\n      add\n      swap1\n      tag_363\n      swap2\n      swap1\n      tag_364\n      jump\t// in\n    tag_363:\n        /* \"contracts/TimbSwapRouter.sol\":7227:7280  (uint112 r0, uint112 r1,) = IPair(pair).getReserves() */\n      pop\n      swap2\n      pop\n      swap2\n      pop\n        /* \"contracts/TimbSwapRouter.sol\":7329:7333  pair */\n      dup6\n        /* \"contracts/TimbSwapRouter.sol\":7323:7341  IPair(pair).token0 */\n      0xffffffffffffffffffffffffffffffffffffffff\n      and\n      0x0dfe1681\n        /* \"contracts/TimbSwapRouter.sol\":7323:7343  IPair(pair).token0() */\n      mload(0x40)\n      dup2\n      0xffffffff\n      and\n      0xe0\n      shl\n      dup2\n      mstore\n      0x04\n      add\n      0x20\n      mload(0x40)\n      dup1\n      dup4\n      sub\n      dup2\n      dup7\n      gas\n      staticcall\n      iszero\n      dup1\n      iszero\n      tag_366\n      jumpi\n      returndatasize\n      0x00\n      dup1\n      returndatacopy\n      revert(0x00, returndatasize)\n    tag_366:\n      pop\n      pop\n      pop\n      pop\n      mload(0x40)\n      returndatasize\n      not(0x1f)\n      0x1f\n      dup3\n      add\n      and\n      dup3\n      add\n      dup1\n      0x40\n      mstore\n      pop\n      dup2\n      add\n      swap1\n      tag_367\n      swap2\n      swap1\n      tag_248\n      jump\t// in\n    tag_367:\n        /* \"contracts/TimbSwapRouter.sol\":7313:7343  tokenA == IPair(pair).token0() */\n      0xffffffffffffffffffffffffffffffffffffffff\n      and\n        /* \"contracts/TimbSwapRouter.sol\":7313:7319  tokenA */\n      dup6\n        /* \"contracts/TimbSwapRouter.sol\":7313:7343  tokenA == IPair(pair).token0() */\n      0xffffffffffffffffffffffffffffffffffffffff\n      and\n      eq\n        /* \"contracts/TimbSwapRouter.sol\":7313:7425  tokenA == IPair(pair).token0()... */\n      tag_368\n      jumpi\n        /* \"contracts/TimbSwapRouter.sol\":7408:7410  r1 */\n      dup1\n        /* \"contracts/TimbSwapRouter.sol\":7400:7411  uint256(r1) */\n      0xffffffffffffffffffffffffffff\n      and\n        /* \"contracts/TimbSwapRouter.sol\":7421:7423  r0 */\n      dup3\n        /* \"contracts/TimbSwapRouter.sol\":7413:7424  uint256(r0) */\n      0xffffffffffffffffffffffffffff\n      and\n        /* \"contracts/TimbSwapRouter.sol\":7313:7425  tokenA == IPair(pair).token0()... */\n      jump(tag_369)\n    tag_368:\n        /* \"contracts/TimbSwapRouter.sol\":7367:7369  r0 */\n      dup2\n        /* \"contracts/TimbSwapRouter.sol\":7359:7370  uint256(r0) */\n      0xffffffffffffffffffffffffffff\n      and\n        /* \"contracts/TimbSwapRouter.sol\":7380:7382  r1 */\n      dup2\n        /* \"contracts/TimbSwapRouter.sol\":7372:7383  uint256(r1) */\n      0xffffffffffffffffffffffffffff\n      and\n        /* \"contracts/TimbSwapRouter.sol\":7313:7425  tokenA == IPair(pair).token0()... */\n    tag_369:\n        /* \"contracts/TimbSwapRouter.sol\":7290:7425  (reserveA, reserveB) = tokenA == IPair(pair).token0()... */\n      dup1\n      swap5\n      pop\n      dup2\n      swap6\n      pop\n      pop\n      pop\n        /* \"contracts/TimbSwapRouter.sol\":7217:7432  {... */\n      pop\n      pop\n        /* \"contracts/TimbSwapRouter.sol\":7094:7432  function _getReserves(address pair, address tokenA)... */\n      swap3\n      pop\n      swap3\n      swap1\n      pop\n      jump\t// out\n        /* \"contracts/TimbSwapRouter.sol\":10580:11127  function _executeSwap(... */\n    tag_202:\n        /* \"contracts/TimbSwapRouter.sol\":10780:10792  address pair */\n      0x00\n        /* \"contracts/TimbSwapRouter.sol\":10795:10822  _getPair(tokenIn, tokenOut) */\n      tag_371\n        /* \"contracts/TimbSwapRouter.sol\":10804:10811  tokenIn */\n      dup8\n        /* \"contracts/TimbSwapRouter.sol\":10813:10821  tokenOut */\n      dup8\n        /* \"contracts/TimbSwapRouter.sol\":10795:10803  _getPair */\n      tag_196\n        /* \"contracts/TimbSwapRouter.sol\":10795:10822  _getPair(tokenIn, tokenOut) */\n      jump\t// in\n    tag_371:\n        /* \"contracts/TimbSwapRouter.sol\":10780:10822  address pair = _getPair(tokenIn, tokenOut) */\n      swap1\n      pop\n        /* \"contracts/TimbSwapRouter.sol\":10832:10892  IERC20(tokenIn).safeTransferFrom(msg.sender, pair, amountIn) */\n      tag_372\n        /* \"contracts/TimbSwapRouter.sol\":10865:10875  msg.sender */\n      caller\n        /* \"contracts/TimbSwapRouter.sol\":10877:10881  pair */\n      dup3\n        /* \"contracts/TimbSwapRouter.sol\":10883:10891  amountIn */\n      dup8\n        /* \"contracts/TimbSwapRouter.sol\":10839:10846  tokenIn */\n      dup11\n        /* \"contracts/TimbSwapRouter.sol\":10832:10864  IERC20(tokenIn).safeTransferFrom */\n      0xffffffffffffffffffffffffffffffffffffffff\n      and\n      tag_373\n      swap1\n        /* \"contracts/TimbSwapRouter.sol\":10832:10892  IERC20(tokenIn).safeTransferFrom(msg.sender, pair, amountIn) */\n      swap4\n      swap3\n      swap2\n      swap1\n      0xffffffff\n      and\n      jump\t// in\n    tag_372:\n        /* \"contracts/TimbSwapRouter.sol\":10902:10940  _collectProtocolFee(tokenIn, amountIn) */\n      tag_374\n        /* \"contracts/TimbSwapRouter.sol\":10922:10929  tokenIn */\n      dup8\n        /* \"contracts/TimbSwapRouter.sol\":10931:10939  amountIn */\n      dup7\n        /* \"contracts/TimbSwapRouter.sol\":10902:10921  _collectProtocolFee */\n      tag_375\n        /* \"contracts/TimbSwapRouter.sol\":10902:10940  _collectProtocolFee(tokenIn, amountIn) */\n      jump\t// in\n    tag_374:\n        /* \"contracts/TimbSwapRouter.sol\":10950:10991  _swapOnPair(pair, tokenIn, amountOut, to) */\n      tag_376\n        /* \"contracts/TimbSwapRouter.sol\":10962:10966  pair */\n      dup2\n        /* \"contracts/TimbSwapRouter.sol\":10968:10975  tokenIn */\n      dup9\n        /* \"contracts/TimbSwapRouter.sol\":10977:10986  amountOut */\n      dup7\n        /* \"contracts/TimbSwapRouter.sol\":10988:10990  to */\n      dup7\n        /* \"contracts/TimbSwapRouter.sol\":10950:10961  _swapOnPair */\n      tag_377\n        /* \"contracts/TimbSwapRouter.sol\":10950:10991  _swapOnPair(pair, tokenIn, amountOut, to) */\n      jump\t// in\n    tag_376:\n        /* \"contracts/TimbSwapRouter.sol\":11001:11037  _maybeNudge(tokenIn, influencePrize) */\n      tag_378\n        /* \"contracts/TimbSwapRouter.sol\":11013:11020  tokenIn */\n      dup8\n        /* \"contracts/TimbSwapRouter.sol\":11022:11036  influencePrize */\n      dup4\n        /* \"contracts/TimbSwapRouter.sol\":11001:11012  _maybeNudge */\n      tag_379\n        /* \"contracts/TimbSwapRouter.sol\":11001:11037  _maybeNudge(tokenIn, influencePrize) */\n      jump\t// in\n    tag_378:\n        /* \"contracts/TimbSwapRouter.sol\":11052:11120  SwapExecuted(msg.sender, tokenIn, tokenOut, amountIn, amountOut, to) */\n      0x300b4a9ac356114be2eaffe0f530cd615f14560df4b634adc11142d1358e8976\n        /* \"contracts/TimbSwapRouter.sol\":11065:11075  msg.sender */\n      caller\n        /* \"contracts/TimbSwapRouter.sol\":11077:11084  tokenIn */\n      dup9\n        /* \"contracts/TimbSwapRouter.sol\":11086:11094  tokenOut */\n      dup9\n        /* \"contracts/TimbSwapRouter.sol\":11096:11104  amountIn */\n      dup9\n        /* \"contracts/TimbSwapRouter.sol\":11106:11115  amountOut */\n      dup9\n        /* \"contracts/TimbSwapRouter.sol\":11117:11119  to */\n      dup9\n        /* \"contracts/TimbSwapRouter.sol\":11052:11120  SwapExecuted(msg.sender, tokenIn, tokenOut, amountIn, amountOut, to) */\n      mload(0x40)\n      tag_380\n      swap7\n      swap6\n      swap5\n      swap4\n      swap3\n      swap2\n      swap1\n      tag_381\n      jump\t// in\n    tag_380:\n      mload(0x40)\n      dup1\n      swap2\n      sub\n      swap1\n      log1\n        /* \"contracts/TimbSwapRouter.sol\":10770:11127  {... */\n      pop\n        /* \"contracts/TimbSwapRouter.sol\":10580:11127  function _executeSwap(... */\n      pop\n      pop\n      pop\n      pop\n      pop\n      pop\n      jump\t// out\n        /* \"@openzeppelin/contracts/access/Ownable.sol\":2912:3099  function _transferOwnership(address newOwner) internal virtual {... */\n    tag_211:\n        /* \"@openzeppelin/contracts/access/Ownable.sol\":2985:3001  address oldOwner */\n      0x00\n        /* \"@openzeppelin/contracts/access/Ownable.sol\":3004:3010  _owner */\n      dup1\n      0x00\n      swap1\n      sload\n      swap1\n      0x0100\n      exp\n      swap1\n      div\n      0xffffffffffffffffffffffffffffffffffffffff\n      and\n        /* \"@openzeppelin/contracts/access/Ownable.sol\":2985:3010  address oldOwner = _owner */\n      swap1\n      pop\n        /* \"@openzeppelin/contracts/access/Ownable.sol\":3029:3037  newOwner */\n      dup2\n        /* \"@openzeppelin/contracts/access/Ownable.sol\":3020:3026  _owner */\n      0x00\n      dup1\n        /* \"@openzeppelin/contracts/access/Ownable.sol\":3020:3037  _owner = newOwner */\n      0x0100\n      exp\n      dup2\n      sload\n      dup2\n      0xffffffffffffffffffffffffffffffffffffffff\n      mul\n      not\n      and\n      swap1\n      dup4\n      0xffffffffffffffffffffffffffffffffffffffff\n      and\n      mul\n      or\n      swap1\n      sstore\n      pop\n        /* \"@openzeppelin/contracts/access/Ownable.sol\":3083:3091  newOwner */\n      dup2\n        /* \"@openzeppelin/contracts/access/Ownable.sol\":3052:3092  OwnershipTransferred(oldOwner, newOwner) */\n      0xffffffffffffffffffffffffffffffffffffffff\n      and\n        /* \"@openzeppelin/contracts/access/Ownable.sol\":3073:3081  oldOwner */\n      dup2\n        /* \"@openzeppelin/contracts/access/Ownable.sol\":3052:3092  OwnershipTransferred(oldOwner, newOwner) */\n      0xffffffffffffffffffffffffffffffffffffffff\n      and\n      0x8be0079c531659141344cd1fd0a4f28419497f9722a3daafe3b4186f6b6457e0\n      mload(0x40)\n      mload(0x40)\n      dup1\n      swap2\n      sub\n      swap1\n      log3\n        /* \"@openzeppelin/contracts/access/Ownable.sol\":2975:3099  {... */\n      pop\n        /* \"@openzeppelin/contracts/access/Ownable.sol\":2912:3099  function _transferOwnership(address newOwner) internal virtual {... */\n      pop\n      jump\t// out\n        /* \"contracts/TimbSwapRouter.sol\":7975:8297  function _getAmountIn(... */\n    tag_217:\n        /* \"contracts/TimbSwapRouter.sol\":8108:8115  uint256 */\n      0x00\n        /* \"contracts/TimbSwapRouter.sol\":8144:8145  0 */\n      dup1\n        /* \"contracts/TimbSwapRouter.sol\":8131:8140  amountOut */\n      dup5\n        /* \"contracts/TimbSwapRouter.sol\":8131:8145  amountOut == 0 */\n      eq\n        /* \"contracts/TimbSwapRouter.sol\":8131:8163  amountOut == 0 || reserveIn == 0 */\n      dup1\n      tag_384\n      jumpi\n      pop\n        /* \"contracts/TimbSwapRouter.sol\":8162:8163  0 */\n      0x00\n        /* \"contracts/TimbSwapRouter.sol\":8149:8158  reserveIn */\n      dup4\n        /* \"contracts/TimbSwapRouter.sol\":8149:8163  reserveIn == 0 */\n      eq\n        /* \"contracts/TimbSwapRouter.sol\":8131:8163  amountOut == 0 || reserveIn == 0 */\n    tag_384:\n        /* \"contracts/TimbSwapRouter.sol\":8131:8182  amountOut == 0 || reserveIn == 0 || reserveOut == 0 */\n      dup1\n      tag_385\n      jumpi\n      pop\n        /* \"contracts/TimbSwapRouter.sol\":8181:8182  0 */\n      0x00\n        /* \"contracts/TimbSwapRouter.sol\":8167:8177  reserveOut */\n      dup3\n        /* \"contracts/TimbSwapRouter.sol\":8167:8182  reserveOut == 0 */\n      eq\n        /* \"contracts/TimbSwapRouter.sol\":8131:8182  amountOut == 0 || reserveIn == 0 || reserveOut == 0 */\n    tag_385:\n        /* \"contracts/TimbSwapRouter.sol\":8127:8203  if (amountOut == 0 || reserveIn == 0 || reserveOut == 0) revert ZeroAmount() */\n      iszero\n      tag_386\n      jumpi\n        /* \"contracts/TimbSwapRouter.sol\":8191:8203  ZeroAmount() */\n      mload(0x40)\n      0x1f2a200500000000000000000000000000000000000000000000000000000000\n      dup2\n      mstore\n      0x04\n      add\n      mload(0x40)\n      dup1\n      swap2\n      sub\n      swap1\n      revert\n        /* \"contracts/TimbSwapRouter.sol\":8127:8203  if (amountOut == 0 || reserveIn == 0 || reserveOut == 0) revert ZeroAmount() */\n    tag_386:\n        /* \"contracts/TimbSwapRouter.sol\":8289:8290  1 */\n      0x01\n        /* \"contracts/TimbSwapRouter.sol\":8282:8285  997 */\n      0x03e5\n        /* \"contracts/TimbSwapRouter.sol\":8269:8278  amountOut */\n      dup6\n        /* \"contracts/TimbSwapRouter.sol\":8256:8266  reserveOut */\n      dup5\n        /* \"contracts/TimbSwapRouter.sol\":8256:8278  reserveOut - amountOut */\n      tag_387\n      swap2\n      swap1\n      tag_388\n      jump\t// in\n    tag_387:\n        /* \"contracts/TimbSwapRouter.sol\":8255:8285  (reserveOut - amountOut) * 997 */\n      tag_389\n      swap2\n      swap1\n      tag_339\n      jump\t// in\n    tag_389:\n        /* \"contracts/TimbSwapRouter.sol\":8245:8250  1_000 */\n      0x03e8\n        /* \"contracts/TimbSwapRouter.sol\":8233:8242  amountOut */\n      dup7\n        /* \"contracts/TimbSwapRouter.sol\":8221:8230  reserveIn */\n      dup7\n        /* \"contracts/TimbSwapRouter.sol\":8221:8242  reserveIn * amountOut */\n      tag_390\n      swap2\n      swap1\n      tag_339\n      jump\t// in\n    tag_390:\n        /* \"contracts/TimbSwapRouter.sol\":8221:8250  reserveIn * amountOut * 1_000 */\n      tag_391\n      swap2\n      swap1\n      tag_339\n      jump\t// in\n    tag_391:\n        /* \"contracts/TimbSwapRouter.sol\":8220:8286  (reserveIn * amountOut * 1_000) / ((reserveOut - amountOut) * 997) */\n      tag_392\n      swap2\n      swap1\n      tag_345\n      jump\t// in\n    tag_392:\n        /* \"contracts/TimbSwapRouter.sol\":8220:8290  (reserveIn * amountOut * 1_000) / ((reserveOut - amountOut) * 997) + 1 */\n      tag_393\n      swap2\n      swap1\n      tag_342\n      jump\t// in\n    tag_393:\n        /* \"contracts/TimbSwapRouter.sol\":8213:8290  return (reserveIn * amountOut * 1_000) / ((reserveOut - amountOut) * 997) + 1 */\n      swap1\n      pop\n        /* \"contracts/TimbSwapRouter.sol\":7975:8297  function _getAmountIn(... */\n      swap4\n      swap3\n      pop\n      pop\n      pop\n      jump\t// out\n        /* \"contracts/TimbSwapRouter.sol\":8303:8552  function _quote(uint256 amountA, uint256 reserveA, uint256 reserveB)... */\n    tag_221:\n        /* \"contracts/TimbSwapRouter.sol\":8403:8410  uint256 */\n      0x00\n        /* \"contracts/TimbSwapRouter.sol\":8441:8442  0 */\n      dup1\n        /* \"contracts/TimbSwapRouter.sol\":8430:8437  amountA */\n      dup5\n        /* \"contracts/TimbSwapRouter.sol\":8430:8442  amountA == 0 */\n      eq\n        /* \"contracts/TimbSwapRouter.sol\":8430:8459  amountA == 0 || reserveA == 0 */\n      dup1\n      tag_395\n      jumpi\n      pop\n        /* \"contracts/TimbSwapRouter.sol\":8458:8459  0 */\n      0x00\n        /* \"contracts/TimbSwapRouter.sol\":8446:8454  reserveA */\n      dup4\n        /* \"contracts/TimbSwapRouter.sol\":8446:8459  reserveA == 0 */\n      eq\n        /* \"contracts/TimbSwapRouter.sol\":8430:8459  amountA == 0 || reserveA == 0 */\n    tag_395:\n        /* \"contracts/TimbSwapRouter.sol\":8430:8476  amountA == 0 || reserveA == 0 || reserveB == 0 */\n      dup1\n      tag_396\n      jumpi\n      pop\n        /* \"contracts/TimbSwapRouter.sol\":8475:8476  0 */\n      0x00\n        /* \"contracts/TimbSwapRouter.sol\":8463:8471  reserveB */\n      dup3\n        /* \"contracts/TimbSwapRouter.sol\":8463:8476  reserveB == 0 */\n      eq\n        /* \"contracts/TimbSwapRouter.sol\":8430:8476  amountA == 0 || reserveA == 0 || reserveB == 0 */\n    tag_396:\n        /* \"contracts/TimbSwapRouter.sol\":8426:8497  if (amountA == 0 || reserveA == 0 || reserveB == 0) revert ZeroAmount() */\n      iszero\n      tag_397\n      jumpi\n        /* \"contracts/TimbSwapRouter.sol\":8485:8497  ZeroAmount() */\n      mload(0x40)\n      0x1f2a200500000000000000000000000000000000000000000000000000000000\n      dup2\n      mstore\n      0x04\n      add\n      mload(0x40)\n      dup1\n      swap2\n      sub\n      swap1\n      revert\n        /* \"contracts/TimbSwapRouter.sol\":8426:8497  if (amountA == 0 || reserveA == 0 || reserveB == 0) revert ZeroAmount() */\n    tag_397:\n        /* \"contracts/TimbSwapRouter.sol\":8537:8545  reserveA */\n      dup3\n        /* \"contracts/TimbSwapRouter.sol\":8525:8533  reserveB */\n      dup3\n        /* \"contracts/TimbSwapRouter.sol\":8515:8522  amountA */\n      dup6\n        /* \"contracts/TimbSwapRouter.sol\":8515:8533  amountA * reserveB */\n      tag_398\n      swap2\n      swap1\n      tag_339\n      jump\t// in\n    tag_398:\n        /* \"contracts/TimbSwapRouter.sol\":8514:8545  (amountA * reserveB) / reserveA */\n      tag_399\n      swap2\n      swap1\n      tag_345\n      jump\t// in\n    tag_399:\n        /* \"contracts/TimbSwapRouter.sol\":8507:8545  return (amountA * reserveB) / reserveA */\n      swap1\n      pop\n        /* \"contracts/TimbSwapRouter.sol\":8303:8552  function _quote(uint256 amountA, uint256 reserveA, uint256 reserveB)... */\n      swap4\n      swap3\n      pop\n      pop\n      pop\n      jump\t// out\n        /* \"contracts/TimbSwapRouter.sol\":21104:21476  function _burnAndSort(address pair, address tokenA, uint256 liquidity, address to)... */\n    tag_235:\n        /* \"contracts/TimbSwapRouter.sol\":21221:21236  uint256 amountA */\n      0x00\n        /* \"contracts/TimbSwapRouter.sol\":21238:21253  uint256 amountB */\n      dup1\n        /* \"contracts/TimbSwapRouter.sol\":21269:21327  IERC20(pair).safeTransferFrom(msg.sender, pair, liquidity) */\n      tag_401\n        /* \"contracts/TimbSwapRouter.sol\":21299:21309  msg.sender */\n      caller\n        /* \"contracts/TimbSwapRouter.sol\":21311:21315  pair */\n      dup8\n        /* \"contracts/TimbSwapRouter.sol\":21317:21326  liquidity */\n      dup7\n        /* \"contracts/TimbSwapRouter.sol\":21276:21280  pair */\n      dup10\n        /* \"contracts/TimbSwapRouter.sol\":21269:21298  IERC20(pair).safeTransferFrom */\n      0xffffffffffffffffffffffffffffffffffffffff\n      and\n      tag_373\n      swap1\n        /* \"contracts/TimbSwapRouter.sol\":21269:21327  IERC20(pair).safeTransferFrom(msg.sender, pair, liquidity) */\n      swap4\n      swap3\n      swap2\n      swap1\n      0xffffffff\n      and\n      jump\t// in\n    tag_401:\n        /* \"contracts/TimbSwapRouter.sol\":21338:21348  uint256 a0 */\n      0x00\n        /* \"contracts/TimbSwapRouter.sol\":21350:21360  uint256 a1 */\n      dup1\n        /* \"contracts/TimbSwapRouter.sol\":21370:21374  pair */\n      dup8\n        /* \"contracts/TimbSwapRouter.sol\":21364:21380  IPair(pair).burn */\n      0xffffffffffffffffffffffffffffffffffffffff\n      and\n      0x89afcb44\n        /* \"contracts/TimbSwapRouter.sol\":21381:21383  to */\n      dup7\n        /* \"contracts/TimbSwapRouter.sol\":21364:21384  IPair(pair).burn(to) */\n      mload(0x40)\n      dup3\n      0xffffffff\n      and\n      0xe0\n      shl\n      dup2\n      mstore\n      0x04\n      add\n      tag_402\n      swap2\n      swap1\n      tag_70\n      jump\t// in\n    tag_402:\n      0x40\n      dup1\n      mload\n      dup1\n      dup4\n      sub\n      dup2\n      0x00\n      dup8\n      gas\n      call\n      iszero\n      dup1\n      iszero\n      tag_404\n      jumpi\n      returndatasize\n      0x00\n      dup1\n      returndatacopy\n      revert(0x00, returndatasize)\n    tag_404:\n      pop\n      pop\n      pop\n      pop\n      mload(0x40)\n      returndatasize\n      not(0x1f)\n      0x1f\n      dup3\n      add\n      and\n      dup3\n      add\n      dup1\n      0x40\n      mstore\n      pop\n      dup2\n      add\n      swap1\n      tag_405\n      swap2\n      swap1\n      tag_406\n      jump\t// in\n    tag_405:\n        /* \"contracts/TimbSwapRouter.sol\":21337:21384  (uint256 a0, uint256 a1) = IPair(pair).burn(to) */\n      swap2\n      pop\n      swap2\n      pop\n        /* \"contracts/TimbSwapRouter.sol\":21432:21436  pair */\n      dup8\n        /* \"contracts/TimbSwapRouter.sol\":21426:21444  IPair(pair).token0 */\n      0xffffffffffffffffffffffffffffffffffffffff\n      and\n      0x0dfe1681\n        /* \"contracts/TimbSwapRouter.sol\":21426:21446  IPair(pair).token0() */\n      mload(0x40)\n      dup2\n      0xffffffff\n      and\n      0xe0\n      shl\n      dup2\n      mstore\n      0x04\n      add\n      0x20\n      mload(0x40)\n      dup1\n      dup4\n      sub\n      dup2\n      dup7\n      gas\n      staticcall\n      iszero\n      dup1\n      iszero\n      tag_408\n      jumpi\n      returndatasize\n      0x00\n      dup1\n      returndatacopy\n      revert(0x00, returndatasize)\n    tag_408:\n      pop\n      pop\n      pop\n      pop\n      mload(0x40)\n      returndatasize\n      not(0x1f)\n      0x1f\n      dup3\n      add\n      and\n      dup3\n      add\n      dup1\n      0x40\n      mstore\n      pop\n      dup2\n      add\n      swap1\n      tag_409\n      swap2\n      swap1\n      tag_248\n      jump\t// in\n    tag_409:\n        /* \"contracts/TimbSwapRouter.sol\":21416:21446  tokenA == IPair(pair).token0() */\n      0xffffffffffffffffffffffffffffffffffffffff\n      and\n        /* \"contracts/TimbSwapRouter.sol\":21416:21422  tokenA */\n      dup8\n        /* \"contracts/TimbSwapRouter.sol\":21416:21446  tokenA == IPair(pair).token0() */\n      0xffffffffffffffffffffffffffffffffffffffff\n      and\n      eq\n        /* \"contracts/TimbSwapRouter.sol\":21415:21469  (tokenA == IPair(pair).token0()) ? (a0, a1) : (a1, a0) */\n      tag_410\n      jumpi\n        /* \"contracts/TimbSwapRouter.sol\":21462:21464  a1 */\n      dup1\n        /* \"contracts/TimbSwapRouter.sol\":21466:21468  a0 */\n      dup3\n        /* \"contracts/TimbSwapRouter.sol\":21415:21469  (tokenA == IPair(pair).token0()) ? (a0, a1) : (a1, a0) */\n      jump(tag_411)\n    tag_410:\n        /* \"contracts/TimbSwapRouter.sol\":21451:21453  a0 */\n      dup2\n        /* \"contracts/TimbSwapRouter.sol\":21455:21457  a1 */\n      dup2\n        /* \"contracts/TimbSwapRouter.sol\":21415:21469  (tokenA == IPair(pair).token0()) ? (a0, a1) : (a1, a0) */\n    tag_411:\n        /* \"contracts/TimbSwapRouter.sol\":21394:21469  (amountA, amountB) = (tokenA == IPair(pair).token0()) ? (a0, a1) : (a1, a0) */\n      dup1\n      swap5\n      pop\n      dup2\n      swap6\n      pop\n      pop\n      pop\n        /* \"contracts/TimbSwapRouter.sol\":21259:21476  {... */\n      pop\n      pop\n        /* \"contracts/TimbSwapRouter.sol\":21104:21476  function _burnAndSort(address pair, address tokenA, uint256 liquidity, address to)... */\n      swap5\n      pop\n      swap5\n      swap3\n      pop\n      pop\n      pop\n      jump\t// out\n        /* \"contracts/TimbSwapRouter.sol\":17709:18003  function _prepareAddLiquidity(... */\n    tag_261:\n        /* \"contracts/TimbSwapRouter.sol\":17850:17873  LiquidityState memory s */\n      tag_412\n      tag_413\n      jump\t// in\n    tag_412:\n        /* \"contracts/TimbSwapRouter.sol\":17894:17918  _getPair(tokenA, tokenB) */\n      tag_415\n        /* \"contracts/TimbSwapRouter.sol\":17903:17909  tokenA */\n      dup5\n        /* \"contracts/TimbSwapRouter.sol\":17911:17917  tokenB */\n      dup5\n        /* \"contracts/TimbSwapRouter.sol\":17894:17902  _getPair */\n      tag_196\n        /* \"contracts/TimbSwapRouter.sol\":17894:17918  _getPair(tokenA, tokenB) */\n      jump\t// in\n    tag_415:\n        /* \"contracts/TimbSwapRouter.sol\":17885:17886  s */\n      dup2\n        /* \"contracts/TimbSwapRouter.sol\":17885:17891  s.pair */\n      0x00\n      add\n        /* \"contracts/TimbSwapRouter.sol\":17885:17918  s.pair = _getPair(tokenA, tokenB) */\n      swap1\n      0xffffffffffffffffffffffffffffffffffffffff\n      and\n      swap1\n      dup2\n      0xffffffffffffffffffffffffffffffffffffffff\n      and\n      dup2\n      mstore\n      pop\n      pop\n        /* \"contracts/TimbSwapRouter.sol\":17953:17996  _optimalLiquidityAmounts(s.pair, tokenA, p) */\n      tag_416\n        /* \"contracts/TimbSwapRouter.sol\":17978:17979  s */\n      dup2\n        /* \"contracts/TimbSwapRouter.sol\":17978:17984  s.pair */\n      0x00\n      add\n      mload\n        /* \"contracts/TimbSwapRouter.sol\":17986:17992  tokenA */\n      dup6\n        /* \"contracts/TimbSwapRouter.sol\":17994:17995  p */\n      dup5\n        /* \"contracts/TimbSwapRouter.sol\":17953:17977  _optimalLiquidityAmounts */\n      tag_417\n        /* \"contracts/TimbSwapRouter.sol\":17953:17996  _optimalLiquidityAmounts(s.pair, tokenA, p) */\n      jump\t// in\n    tag_416:\n        /* \"contracts/TimbSwapRouter.sol\":17929:17930  s */\n      dup3\n        /* \"contracts/TimbSwapRouter.sol\":17929:17938  s.amountA */\n      0x20\n      add\n        /* \"contracts/TimbSwapRouter.sol\":17940:17941  s */\n      dup4\n        /* \"contracts/TimbSwapRouter.sol\":17940:17949  s.amountB */\n      0x40\n      add\n        /* \"contracts/TimbSwapRouter.sol\":17928:17996  (s.amountA, s.amountB) = _optimalLiquidityAmounts(s.pair, tokenA, p) */\n      dup3\n      dup2\n      mstore\n      pop\n      dup3\n      dup2\n      mstore\n      pop\n      pop\n      pop\n        /* \"contracts/TimbSwapRouter.sol\":17709:18003  function _prepareAddLiquidity(... */\n      swap4\n      swap3\n      pop\n      pop\n      pop\n      jump\t// out\n        /* \"contracts/TimbSwapRouter.sol\":18009:18461  function _finalizeAddLiquidity(... */\n    tag_263:\n        /* \"contracts/TimbSwapRouter.sol\":18165:18182  uint256 liquidity */\n      0x00\n        /* \"contracts/TimbSwapRouter.sol\":18194:18256  IERC20(tokenA).safeTransferFrom(msg.sender, s.pair, s.amountA) */\n      tag_419\n        /* \"contracts/TimbSwapRouter.sol\":18226:18236  msg.sender */\n      caller\n        /* \"contracts/TimbSwapRouter.sol\":18238:18239  s */\n      dup5\n        /* \"contracts/TimbSwapRouter.sol\":18238:18244  s.pair */\n      0x00\n      add\n      mload\n        /* \"contracts/TimbSwapRouter.sol\":18246:18247  s */\n      dup6\n        /* \"contracts/TimbSwapRouter.sol\":18246:18255  s.amountA */\n      0x20\n      add\n      mload\n        /* \"contracts/TimbSwapRouter.sol\":18201:18207  tokenA */\n      dup9\n        /* \"contracts/TimbSwapRouter.sol\":18194:18225  IERC20(tokenA).safeTransferFrom */\n      0xffffffffffffffffffffffffffffffffffffffff\n      and\n      tag_373\n      swap1\n        /* \"contracts/TimbSwapRouter.sol\":18194:18256  IERC20(tokenA).safeTransferFrom(msg.sender, s.pair, s.amountA) */\n      swap4\n      swap3\n      swap2\n      swap1\n      0xffffffff\n      and\n      jump\t// in\n    tag_419:\n        /* \"contracts/TimbSwapRouter.sol\":18266:18328  IERC20(tokenB).safeTransferFrom(msg.sender, s.pair, s.amountB) */\n      tag_420\n        /* \"contracts/TimbSwapRouter.sol\":18298:18308  msg.sender */\n      caller\n        /* \"contracts/TimbSwapRouter.sol\":18310:18311  s */\n      dup5\n        /* \"contracts/TimbSwapRouter.sol\":18310:18316  s.pair */\n      0x00\n      add\n      mload\n        /* \"contracts/TimbSwapRouter.sol\":18318:18319  s */\n      dup6\n        /* \"contracts/TimbSwapRouter.sol\":18318:18327  s.amountB */\n      0x40\n      add\n      mload\n        /* \"contracts/TimbSwapRouter.sol\":18273:18279  tokenB */\n      dup8\n        /* \"contracts/TimbSwapRouter.sol\":18266:18297  IERC20(tokenB).safeTransferFrom */\n      0xffffffffffffffffffffffffffffffffffffffff\n      and\n      tag_373\n      swap1\n        /* \"contracts/TimbSwapRouter.sol\":18266:18328  IERC20(tokenB).safeTransferFrom(msg.sender, s.pair, s.amountB) */\n      swap4\n      swap3\n      swap2\n      swap1\n      0xffffffff\n      and\n      jump\t// in\n    tag_420:\n        /* \"contracts/TimbSwapRouter.sol\":18356:18357  s */\n      dup3\n        /* \"contracts/TimbSwapRouter.sol\":18356:18362  s.pair */\n      0x00\n      add\n      mload\n        /* \"contracts/TimbSwapRouter.sol\":18350:18368  IPair(s.pair).mint */\n      0xffffffffffffffffffffffffffffffffffffffff\n      and\n      0x6a627842\n        /* \"contracts/TimbSwapRouter.sol\":18369:18371  to */\n      dup4\n        /* \"contracts/TimbSwapRouter.sol\":18350:18372  IPair(s.pair).mint(to) */\n      mload(0x40)\n      dup3\n      0xffffffff\n      and\n      0xe0\n      shl\n      dup2\n      mstore\n      0x04\n      add\n      tag_421\n      swap2\n      swap1\n      tag_70\n      jump\t// in\n    tag_421:\n      0x20\n      mload(0x40)\n      dup1\n      dup4\n      sub\n      dup2\n      0x00\n      dup8\n      gas\n      call\n      iszero\n      dup1\n      iszero\n      tag_423\n      jumpi\n      returndatasize\n      0x00\n      dup1\n      returndatacopy\n      revert(0x00, returndatasize)\n    tag_423:\n      pop\n      pop\n      pop\n      pop\n      mload(0x40)\n      returndatasize\n      not(0x1f)\n      0x1f\n      dup3\n      add\n      and\n      dup3\n      add\n      dup1\n      0x40\n      mstore\n      pop\n      dup2\n      add\n      swap1\n      tag_424\n      swap2\n      swap1\n      tag_425\n      jump\t// in\n    tag_424:\n        /* \"contracts/TimbSwapRouter.sol\":18338:18372  liquidity = IPair(s.pair).mint(to) */\n      swap1\n      pop\n        /* \"contracts/TimbSwapRouter.sol\":18410:18420  msg.sender */\n      caller\n        /* \"contracts/TimbSwapRouter.sol\":18387:18454  LiquidityAdded(s.pair, msg.sender, s.amountA, s.amountB, liquidity) */\n      0xffffffffffffffffffffffffffffffffffffffff\n      and\n        /* \"contracts/TimbSwapRouter.sol\":18402:18403  s */\n      dup4\n        /* \"contracts/TimbSwapRouter.sol\":18402:18408  s.pair */\n      0x00\n      add\n      mload\n        /* \"contracts/TimbSwapRouter.sol\":18387:18454  LiquidityAdded(s.pair, msg.sender, s.amountA, s.amountB, liquidity) */\n      0xffffffffffffffffffffffffffffffffffffffff\n      and\n      0x4a1a2a6176e9646d9e3157f7c2ab3c499f18337c0b0828cfb28e0a61de4a11f7\n        /* \"contracts/TimbSwapRouter.sol\":18422:18423  s */\n      dup6\n        /* \"contracts/TimbSwapRouter.sol\":18422:18431  s.amountA */\n      0x20\n      add\n      mload\n        /* \"contracts/TimbSwapRouter.sol\":18433:18434  s */\n      dup7\n        /* \"contracts/TimbSwapRouter.sol\":18433:18442  s.amountB */\n      0x40\n      add\n      mload\n        /* \"contracts/TimbSwapRouter.sol\":18444:18453  liquidity */\n      dup6\n        /* \"contracts/TimbSwapRouter.sol\":18387:18454  LiquidityAdded(s.pair, msg.sender, s.amountA, s.amountB, liquidity) */\n      mload(0x40)\n      tag_426\n      swap4\n      swap3\n      swap2\n      swap1\n      tag_142\n      jump\t// in\n    tag_426:\n      mload(0x40)\n      dup1\n      swap2\n      sub\n      swap1\n      log3\n        /* \"contracts/TimbSwapRouter.sol\":18009:18461  function _finalizeAddLiquidity(... */\n      swap5\n      swap4\n      pop\n      pop\n      pop\n      pop\n      jump\t// out\n        /* \"contracts/TimbSwapRouter.sol\":19636:20205  function _prepareAddLiquidityETH(... */\n    tag_306:\n        /* \"contracts/TimbSwapRouter.sol\":19847:19870  LiquidityState memory s */\n      tag_427\n      tag_413\n      jump\t// in\n    tag_427:\n        /* \"contracts/TimbSwapRouter.sol\":19891:19912  _getPair(token, weth) */\n      tag_429\n        /* \"contracts/TimbSwapRouter.sol\":19900:19905  token */\n      dup7\n        /* \"contracts/TimbSwapRouter.sol\":19907:19911  weth */\n      0x04\n      0x00\n      swap1\n      sload\n      swap1\n      0x0100\n      exp\n      swap1\n      div\n      0xffffffffffffffffffffffffffffffffffffffff\n      and\n        /* \"contracts/TimbSwapRouter.sol\":19891:19899  _getPair */\n      tag_196\n        /* \"contracts/TimbSwapRouter.sol\":19891:19912  _getPair(token, weth) */\n      jump\t// in\n    tag_429:\n        /* \"contracts/TimbSwapRouter.sol\":19882:19883  s */\n      dup2\n        /* \"contracts/TimbSwapRouter.sol\":19882:19888  s.pair */\n      0x00\n      add\n        /* \"contracts/TimbSwapRouter.sol\":19882:19912  s.pair = _getPair(token, weth) */\n      swap1\n      0xffffffffffffffffffffffffffffffffffffffff\n      and\n      swap1\n      dup2\n      0xffffffffffffffffffffffffffffffffffffffff\n      and\n      dup2\n      mstore\n      pop\n      pop\n        /* \"contracts/TimbSwapRouter.sol\":19923:19939  uint256 resToken */\n      0x00\n        /* \"contracts/TimbSwapRouter.sol\":19941:19955  uint256 resETH */\n      dup1\n        /* \"contracts/TimbSwapRouter.sol\":19959:19986  _getReserves(s.pair, token) */\n      tag_430\n        /* \"contracts/TimbSwapRouter.sol\":19972:19973  s */\n      dup4\n        /* \"contracts/TimbSwapRouter.sol\":19972:19978  s.pair */\n      0x00\n      add\n      mload\n        /* \"contracts/TimbSwapRouter.sol\":19980:19985  token */\n      dup10\n        /* \"contracts/TimbSwapRouter.sol\":19959:19971  _getReserves */\n      tag_197\n        /* \"contracts/TimbSwapRouter.sol\":19959:19986  _getReserves(s.pair, token) */\n      jump\t// in\n    tag_430:\n        /* \"contracts/TimbSwapRouter.sol\":19922:19986  (uint256 resToken, uint256 resETH) = _getReserves(s.pair, token) */\n      swap2\n      pop\n      swap2\n      pop\n        /* \"contracts/TimbSwapRouter.sol\":20021:20198  _optimalAmounts(... */\n      tag_431\n        /* \"contracts/TimbSwapRouter.sol\":20050:20068  amountTokenDesired */\n      dup8\n        /* \"contracts/TimbSwapRouter.sol\":20082:20092  ethDesired */\n      dup8\n        /* \"contracts/TimbSwapRouter.sol\":20106:20120  amountTokenMin */\n      dup8\n        /* \"contracts/TimbSwapRouter.sol\":20134:20146  amountETHMin */\n      dup8\n        /* \"contracts/TimbSwapRouter.sol\":20160:20168  resToken */\n      dup7\n        /* \"contracts/TimbSwapRouter.sol\":20182:20188  resETH */\n      dup7\n        /* \"contracts/TimbSwapRouter.sol\":20021:20036  _optimalAmounts */\n      tag_432\n        /* \"contracts/TimbSwapRouter.sol\":20021:20198  _optimalAmounts(... */\n      jump\t// in\n    tag_431:\n        /* \"contracts/TimbSwapRouter.sol\":19997:19998  s */\n      dup5\n        /* \"contracts/TimbSwapRouter.sol\":19997:20006  s.amountA */\n      0x20\n      add\n        /* \"contracts/TimbSwapRouter.sol\":20008:20009  s */\n      dup6\n        /* \"contracts/TimbSwapRouter.sol\":20008:20017  s.amountB */\n      0x40\n      add\n        /* \"contracts/TimbSwapRouter.sol\":19996:20198  (s.amountA, s.amountB) = _optimalAmounts(... */\n      dup3\n      dup2\n      mstore\n      pop\n      dup3\n      dup2\n      mstore\n      pop\n      pop\n      pop\n        /* \"contracts/TimbSwapRouter.sol\":19872:20205  {... */\n      pop\n      pop\n        /* \"contracts/TimbSwapRouter.sol\":19636:20205  function _prepareAddLiquidityETH(... */\n      swap6\n      swap5\n      pop\n      pop\n      pop\n      pop\n      pop\n      jump\t// out\n        /* \"contracts/TimbSwapRouter.sol\":20211:20609  function _finalizeAddLiquidityETH(... */\n    tag_308:\n        /* \"contracts/TimbSwapRouter.sol\":20345:20362  uint256 liquidity */\n      0x00\n        /* \"contracts/TimbSwapRouter.sol\":20374:20435  IERC20(token).safeTransferFrom(msg.sender, s.pair, s.amountA) */\n      tag_434\n        /* \"contracts/TimbSwapRouter.sol\":20405:20415  msg.sender */\n      caller\n        /* \"contracts/TimbSwapRouter.sol\":20417:20418  s */\n      dup5\n        /* \"contracts/TimbSwapRouter.sol\":20417:20423  s.pair */\n      0x00\n      add\n      mload\n        /* \"contracts/TimbSwapRouter.sol\":20425:20426  s */\n      dup6\n        /* \"contracts/TimbSwapRouter.sol\":20425:20434  s.amountA */\n      0x20\n      add\n      mload\n        /* \"contracts/TimbSwapRouter.sol\":20381:20386  token */\n      dup8\n        /* \"contracts/TimbSwapRouter.sol\":20374:20404  IERC20(token).safeTransferFrom */\n      0xffffffffffffffffffffffffffffffffffffffff\n      and\n      tag_373\n      swap1\n        /* \"contracts/TimbSwapRouter.sol\":20374:20435  IERC20(token).safeTransferFrom(msg.sender, s.pair, s.amountA) */\n      swap4\n      swap3\n      swap2\n      swap1\n      0xffffffff\n      and\n      jump\t// in\n    tag_434:\n        /* \"contracts/TimbSwapRouter.sol\":20445:20476  _wrapAndSend(s.pair, s.amountB) */\n      tag_435\n        /* \"contracts/TimbSwapRouter.sol\":20458:20459  s */\n      dup4\n        /* \"contracts/TimbSwapRouter.sol\":20458:20464  s.pair */\n      0x00\n      add\n      mload\n        /* \"contracts/TimbSwapRouter.sol\":20466:20467  s */\n      dup5\n        /* \"contracts/TimbSwapRouter.sol\":20466:20475  s.amountB */\n      0x40\n      add\n      mload\n        /* \"contracts/TimbSwapRouter.sol\":20445:20457  _wrapAndSend */\n      tag_436\n        /* \"contracts/TimbSwapRouter.sol\":20445:20476  _wrapAndSend(s.pair, s.amountB) */\n      jump\t// in\n    tag_435:\n        /* \"contracts/TimbSwapRouter.sol\":20504:20505  s */\n      dup3\n        /* \"contracts/TimbSwapRouter.sol\":20504:20510  s.pair */\n      0x00\n      add\n      mload\n        /* \"contracts/TimbSwapRouter.sol\":20498:20516  IPair(s.pair).mint */\n      0xffffffffffffffffffffffffffffffffffffffff\n      and\n      0x6a627842\n        /* \"contracts/TimbSwapRouter.sol\":20517:20519  to */\n      dup4\n        /* \"contracts/TimbSwapRouter.sol\":20498:20520  IPair(s.pair).mint(to) */\n      mload(0x40)\n      dup3\n      0xffffffff\n      and\n      0xe0\n      shl\n      dup2\n      mstore\n      0x04\n      add\n      tag_437\n      swap2\n      swap1\n      tag_70\n      jump\t// in\n    tag_437:\n      0x20\n      mload(0x40)\n      dup1\n      dup4\n      sub\n      dup2\n      0x00\n      dup8\n      gas\n      call\n      iszero\n      dup1\n      iszero\n      tag_439\n      jumpi\n      returndatasize\n      0x00\n      dup1\n      returndatacopy\n      revert(0x00, returndatasize)\n    tag_439:\n      pop\n      pop\n      pop\n      pop\n      mload(0x40)\n      returndatasize\n      not(0x1f)\n      0x1f\n      dup3\n      add\n      and\n      dup3\n      add\n      dup1\n      0x40\n      mstore\n      pop\n      dup2\n      add\n      swap1\n      tag_440\n      swap2\n      swap1\n      tag_425\n      jump\t// in\n    tag_440:\n        /* \"contracts/TimbSwapRouter.sol\":20486:20520  liquidity = IPair(s.pair).mint(to) */\n      swap1\n      pop\n        /* \"contracts/TimbSwapRouter.sol\":20558:20568  msg.sender */\n      caller\n        /* \"contracts/TimbSwapRouter.sol\":20535:20602  LiquidityAdded(s.pair, msg.sender, s.amountA, s.amountB, liquidity) */\n      0xffffffffffffffffffffffffffffffffffffffff\n      and\n        /* \"contracts/TimbSwapRouter.sol\":20550:20551  s */\n      dup4\n        /* \"contracts/TimbSwapRouter.sol\":20550:20556  s.pair */\n      0x00\n      add\n      mload\n        /* \"contracts/TimbSwapRouter.sol\":20535:20602  LiquidityAdded(s.pair, msg.sender, s.amountA, s.amountB, liquidity) */\n      0xffffffffffffffffffffffffffffffffffffffff\n      and\n      0x4a1a2a6176e9646d9e3157f7c2ab3c499f18337c0b0828cfb28e0a61de4a11f7\n        /* \"contracts/TimbSwapRouter.sol\":20570:20571  s */\n      dup6\n        /* \"contracts/TimbSwapRouter.sol\":20570:20579  s.amountA */\n      0x20\n      add\n      mload\n        /* \"contracts/TimbSwapRouter.sol\":20581:20582  s */\n      dup7\n        /* \"contracts/TimbSwapRouter.sol\":20581:20590  s.amountB */\n      0x40\n      add\n      mload\n        /* \"contracts/TimbSwapRouter.sol\":20592:20601  liquidity */\n      dup6\n        /* \"contracts/TimbSwapRouter.sol\":20535:20602  LiquidityAdded(s.pair, msg.sender, s.amountA, s.amountB, liquidity) */\n      mload(0x40)\n      tag_441\n      swap4\n      swap3\n      swap2\n      swap1\n      tag_142\n      jump\t// in\n    tag_441:\n      mload(0x40)\n      dup1\n      swap2\n      sub\n      swap1\n      log3\n        /* \"contracts/TimbSwapRouter.sol\":20211:20609  function _finalizeAddLiquidityETH(... */\n      swap4\n      swap3\n      pop\n      pop\n      pop\n      jump\t// out\n        /* \"contracts/TimbSwapRouter.sol\":20615:20852  function _refundExcessETH(uint256 amountETH) internal {... */\n    tag_310:\n        /* \"contracts/TimbSwapRouter.sol\":20695:20704  amountETH */\n      dup1\n        /* \"contracts/TimbSwapRouter.sol\":20683:20692  msg.value */\n      callvalue\n        /* \"contracts/TimbSwapRouter.sol\":20683:20704  msg.value > amountETH */\n      gt\n        /* \"contracts/TimbSwapRouter.sol\":20679:20846  if (msg.value > amountETH) {... */\n      iszero\n      tag_443\n      jumpi\n        /* \"contracts/TimbSwapRouter.sol\":20721:20728  bool ok */\n      0x00\n        /* \"contracts/TimbSwapRouter.sol\":20741:20751  msg.sender */\n      caller\n        /* \"contracts/TimbSwapRouter.sol\":20733:20757  payable(msg.sender).call */\n      0xffffffffffffffffffffffffffffffffffffffff\n      and\n        /* \"contracts/TimbSwapRouter.sol\":20777:20786  amountETH */\n      dup3\n        /* \"contracts/TimbSwapRouter.sol\":20765:20774  msg.value */\n      callvalue\n        /* \"contracts/TimbSwapRouter.sol\":20765:20786  msg.value - amountETH */\n      tag_444\n      swap2\n      swap1\n      tag_388\n      jump\t// in\n    tag_444:\n        /* \"contracts/TimbSwapRouter.sol\":20733:20791  payable(msg.sender).call{value: msg.value - amountETH}(\"\") */\n      mload(0x40)\n      tag_445\n      swap1\n      tag_446\n      jump\t// in\n    tag_445:\n      0x00\n      mload(0x40)\n      dup1\n      dup4\n      sub\n      dup2\n      dup6\n      dup8\n      gas\n      call\n      swap3\n      pop\n      pop\n      pop\n      returndatasize\n      dup1\n      0x00\n      dup2\n      eq\n      tag_449\n      jumpi\n      mload(0x40)\n      swap2\n      pop\n      and(add(returndatasize, 0x3f), not(0x1f))\n      dup3\n      add\n      0x40\n      mstore\n      returndatasize\n      dup3\n      mstore\n      returndatasize\n      0x00\n      0x20\n      dup5\n      add\n      returndatacopy\n      jump(tag_448)\n    tag_449:\n      0x60\n      swap2\n      pop\n    tag_448:\n      pop\n        /* \"contracts/TimbSwapRouter.sol\":20720:20791  (bool ok,) = payable(msg.sender).call{value: msg.value - amountETH}(\"\") */\n      pop\n      swap1\n      pop\n        /* \"contracts/TimbSwapRouter.sol\":20810:20812  ok */\n      dup1\n        /* \"contracts/TimbSwapRouter.sol\":20805:20835  if (!ok) revert RefundFailed() */\n      tag_450\n      jumpi\n        /* \"contracts/TimbSwapRouter.sol\":20821:20835  RefundFailed() */\n      mload(0x40)\n      0xf0c49d4400000000000000000000000000000000000000000000000000000000\n      dup2\n      mstore\n      0x04\n      add\n      mload(0x40)\n      dup1\n      swap2\n      sub\n      swap1\n      revert\n        /* \"contracts/TimbSwapRouter.sol\":20805:20835  if (!ok) revert RefundFailed() */\n    tag_450:\n        /* \"contracts/TimbSwapRouter.sol\":20706:20846  {... */\n      pop\n        /* \"contracts/TimbSwapRouter.sol\":20679:20846  if (msg.value > amountETH) {... */\n    tag_443:\n        /* \"contracts/TimbSwapRouter.sol\":20615:20852  function _refundExcessETH(uint256 amountETH) internal {... */\n      pop\n      jump\t// out\n        /* \"@openzeppelin/contracts/utils/ReentrancyGuard.sol\":3586:3743  function _nonReentrantBeforeView() private view {... */\n    tag_314:\n        /* \"@openzeppelin/contracts/utils/ReentrancyGuard.sol\":3648:3673  _reentrancyGuardEntered() */\n      tag_452\n        /* \"@openzeppelin/contracts/utils/ReentrancyGuard.sol\":3648:3671  _reentrancyGuardEntered */\n      tag_453\n        /* \"@openzeppelin/contracts/utils/ReentrancyGuard.sol\":3648:3673  _reentrancyGuardEntered() */\n      jump\t// in\n    tag_452:\n        /* \"@openzeppelin/contracts/utils/ReentrancyGuard.sol\":3644:3737  if (_reentrancyGuardEntered()) {... */\n      iszero\n      tag_454\n      jumpi\n        /* \"@openzeppelin/contracts/utils/ReentrancyGuard.sol\":3696:3726  ReentrancyGuardReentrantCall() */\n      mload(0x40)\n      0x3ee5aeb500000000000000000000000000000000000000000000000000000000\n      dup2\n      mstore\n      0x04\n      add\n      mload(0x40)\n      dup1\n      swap2\n      sub\n      swap1\n      revert\n        /* \"@openzeppelin/contracts/utils/ReentrancyGuard.sol\":3644:3737  if (_reentrancyGuardEntered()) {... */\n    tag_454:\n        /* \"@openzeppelin/contracts/utils/ReentrancyGuard.sol\":3586:3743  function _nonReentrantBeforeView() private view {... */\n      jump\t// out\n        /* \"@openzeppelin/contracts/utils/ReentrancyGuard.sol\":4636:4763  function _reentrancyGuardStorageSlot() internal pure virtual returns (bytes32) {... */\n    tag_317:\n        /* \"@openzeppelin/contracts/utils/ReentrancyGuard.sol\":4706:4713  bytes32 */\n      0x00\n        /* \"@openzeppelin/contracts/utils/ReentrancyGuard.sol\":1505:1571  0x9b779b17422d0df92223018b32b4d1fa46e071723d6817e2486d003becc55f00 */\n      0x9b779b17422d0df92223018b32b4d1fa46e071723d6817e2486d003becc55f00\n        /* \"@openzeppelin/contracts/utils/ReentrancyGuard.sol\":4732:4756  REENTRANCY_GUARD_STORAGE */\n      0x00\n      shl\n        /* \"@openzeppelin/contracts/utils/ReentrancyGuard.sol\":4725:4756  return REENTRANCY_GUARD_STORAGE */\n      swap1\n      pop\n        /* \"@openzeppelin/contracts/utils/ReentrancyGuard.sol\":4636:4763  function _reentrancyGuardStorageSlot() internal pure virtual returns (bytes32) {... */\n      swap1\n      jump\t// out\n        /* \"@openzeppelin/contracts/utils/StorageSlot.sol\":2679:2842  function getUint256Slot(bytes32 slot) internal pure returns (Uint256Slot storage r) {... */\n    tag_318:\n        /* \"@openzeppelin/contracts/utils/StorageSlot.sol\":2740:2761  Uint256Slot storage r */\n      0x00\n        /* \"@openzeppelin/contracts/utils/StorageSlot.sol\":2822:2826  slot */\n      dup2\n        /* \"@openzeppelin/contracts/utils/StorageSlot.sol\":2812:2826  r.slot := slot */\n      swap1\n      pop\n        /* \"@openzeppelin/contracts/utils/StorageSlot.sol\":2679:2842  function getUint256Slot(bytes32 slot) internal pure returns (Uint256Slot storage r) {... */\n      swap2\n      swap1\n      pop\n      jump\t// out\n        /* \"@openzeppelin/contracts/token/ERC20/utils/SafeERC20.sol\":1219:1423  function safeTransfer(IERC20 token, address to, uint256 value) internal {... */\n    tag_327:\n        /* \"@openzeppelin/contracts/token/ERC20/utils/SafeERC20.sol\":1306:1343  _safeTransfer(token, to, value, true) */\n      tag_458\n        /* \"@openzeppelin/contracts/token/ERC20/utils/SafeERC20.sol\":1320:1325  token */\n      dup4\n        /* \"@openzeppelin/contracts/token/ERC20/utils/SafeERC20.sol\":1327:1329  to */\n      dup4\n        /* \"@openzeppelin/contracts/token/ERC20/utils/SafeERC20.sol\":1331:1336  value */\n      dup4\n        /* \"@openzeppelin/contracts/token/ERC20/utils/SafeERC20.sol\":1338:1342  true */\n      0x01\n        /* \"@openzeppelin/contracts/token/ERC20/utils/SafeERC20.sol\":1306:1319  _safeTransfer */\n      tag_459\n        /* \"@openzeppelin/contracts/token/ERC20/utils/SafeERC20.sol\":1306:1343  _safeTransfer(token, to, value, true) */\n      jump\t// in\n    tag_458:\n        /* \"@openzeppelin/contracts/token/ERC20/utils/SafeERC20.sol\":1301:1417  if (!_safeTransfer(token, to, value, true)) {... */\n      tag_460\n      jumpi\n        /* \"@openzeppelin/contracts/token/ERC20/utils/SafeERC20.sol\":1399:1404  token */\n      dup3\n        /* \"@openzeppelin/contracts/token/ERC20/utils/SafeERC20.sol\":1366:1406  SafeERC20FailedOperation(address(token)) */\n      mload(0x40)\n      0x5274afe700000000000000000000000000000000000000000000000000000000\n      dup2\n      mstore\n      0x04\n      add\n      tag_461\n      swap2\n      swap1\n      tag_70\n      jump\t// in\n    tag_461:\n      mload(0x40)\n      dup1\n      swap2\n      sub\n      swap1\n      revert\n        /* \"@openzeppelin/contracts/token/ERC20/utils/SafeERC20.sol\":1301:1417  if (!_safeTransfer(token, to, value, true)) {... */\n    tag_460:\n        /* \"@openzeppelin/contracts/token/ERC20/utils/SafeERC20.sol\":1219:1423  function safeTransfer(IERC20 token, address to, uint256 value) internal {... */\n      pop\n      pop\n      pop\n      jump\t// out\n        /* \"contracts/TimbSwapRouter.sol\":24072:24279  function _unwrapAndSendETH(address to, uint256 amount) internal {... */\n    tag_329:\n        /* \"contracts/TimbSwapRouter.sol\":24152:24156  weth */\n      0x04\n      0x00\n      swap1\n      sload\n      swap1\n      0x0100\n      exp\n      swap1\n      div\n      0xffffffffffffffffffffffffffffffffffffffff\n      and\n        /* \"contracts/TimbSwapRouter.sol\":24146:24166  IWETH(weth).withdraw */\n      0xffffffffffffffffffffffffffffffffffffffff\n      and\n      0x2e1a7d4d\n        /* \"contracts/TimbSwapRouter.sol\":24167:24173  amount */\n      dup3\n        /* \"contracts/TimbSwapRouter.sol\":24146:24174  IWETH(weth).withdraw(amount) */\n      mload(0x40)\n      dup3\n      0xffffffff\n      and\n      0xe0\n      shl\n      dup2\n      mstore\n      0x04\n      add\n      tag_463\n      swap2\n      swap1\n      tag_51\n      jump\t// in\n    tag_463:\n      0x00\n      mload(0x40)\n      dup1\n      dup4\n      sub\n      dup2\n      0x00\n      dup8\n      dup1\n      extcodesize\n      iszero\n      dup1\n      iszero\n      tag_464\n      jumpi\n      0x00\n      dup1\n      revert\n    tag_464:\n      pop\n      gas\n      call\n      iszero\n      dup1\n      iszero\n      tag_466\n      jumpi\n      returndatasize\n      0x00\n      dup1\n      returndatacopy\n      revert(0x00, returndatasize)\n    tag_466:\n      pop\n      pop\n      pop\n      pop\n        /* \"contracts/TimbSwapRouter.sol\":24185:24192  bool ok */\n      0x00\n        /* \"contracts/TimbSwapRouter.sol\":24205:24207  to */\n      dup3\n        /* \"contracts/TimbSwapRouter.sol\":24197:24213  payable(to).call */\n      0xffffffffffffffffffffffffffffffffffffffff\n      and\n        /* \"contracts/TimbSwapRouter.sol\":24221:24227  amount */\n      dup3\n        /* \"contracts/TimbSwapRouter.sol\":24197:24232  payable(to).call{value: amount}(\"\") */\n      mload(0x40)\n      tag_467\n      swap1\n      tag_446\n      jump\t// in\n    tag_467:\n      0x00\n      mload(0x40)\n      dup1\n      dup4\n      sub\n      dup2\n      dup6\n      dup8\n      gas\n      call\n      swap3\n      pop\n      pop\n      pop\n      returndatasize\n      dup1\n      0x00\n      dup2\n      eq\n      tag_470\n      jumpi\n      mload(0x40)\n      swap2\n      pop\n      and(add(returndatasize, 0x3f), not(0x1f))\n      dup3\n      add\n      0x40\n      mstore\n      returndatasize\n      dup3\n      mstore\n      returndatasize\n      0x00\n      0x20\n      dup5\n      add\n      returndatacopy\n      jump(tag_469)\n    tag_470:\n      0x60\n      swap2\n      pop\n    tag_469:\n      pop\n        /* \"contracts/TimbSwapRouter.sol\":24184:24232  (bool ok,) = payable(to).call{value: amount}(\"\") */\n      pop\n      swap1\n      pop\n        /* \"contracts/TimbSwapRouter.sol\":24247:24249  ok */\n      dup1\n        /* \"contracts/TimbSwapRouter.sol\":24242:24272  if (!ok) revert RefundFailed() */\n      tag_471\n      jumpi\n        /* \"contracts/TimbSwapRouter.sol\":24258:24272  RefundFailed() */\n      mload(0x40)\n      0xf0c49d4400000000000000000000000000000000000000000000000000000000\n      dup2\n      mstore\n      0x04\n      add\n      mload(0x40)\n      dup1\n      swap2\n      sub\n      swap1\n      revert\n        /* \"contracts/TimbSwapRouter.sol\":24242:24272  if (!ok) revert RefundFailed() */\n    tag_471:\n        /* \"contracts/TimbSwapRouter.sol\":24136:24279  {... */\n      pop\n        /* \"contracts/TimbSwapRouter.sol\":24072:24279  function _unwrapAndSendETH(address to, uint256 amount) internal {... */\n      pop\n      pop\n      jump\t// out\n        /* \"@openzeppelin/contracts/utils/Context.sol\":656:752  function _msgSender() internal view virtual returns (address) {... */\n    tag_348:\n        /* \"@openzeppelin/contracts/utils/Context.sol\":709:716  address */\n      0x00\n        /* \"@openzeppelin/contracts/utils/Context.sol\":735:745  msg.sender */\n      caller\n        /* \"@openzeppelin/contracts/utils/Context.sol\":728:745  return msg.sender */\n      swap1\n      pop\n        /* \"@openzeppelin/contracts/utils/Context.sol\":656:752  function _msgSender() internal view virtual returns (address) {... */\n      swap1\n      jump\t// out\n        /* \"@openzeppelin/contracts/token/ERC20/utils/SafeERC20.sol\":1662:1894  function safeTransferFrom(IERC20 token, address from, address to, uint256 value) internal {... */\n    tag_373:\n        /* \"@openzeppelin/contracts/token/ERC20/utils/SafeERC20.sol\":1767:1814  _safeTransferFrom(token, from, to, value, true) */\n      tag_474\n        /* \"@openzeppelin/contracts/token/ERC20/utils/SafeERC20.sol\":1785:1790  token */\n      dup5\n        /* \"@openzeppelin/contracts/token/ERC20/utils/SafeERC20.sol\":1792:1796  from */\n      dup5\n        /* \"@openzeppelin/contracts/token/ERC20/utils/SafeERC20.sol\":1798:1800  to */\n      dup5\n        /* \"@openzeppelin/contracts/token/ERC20/utils/SafeERC20.sol\":1802:1807  value */\n      dup5\n        /* \"@openzeppelin/contracts/token/ERC20/utils/SafeERC20.sol\":1809:1813  true */\n      0x01\n        /* \"@openzeppelin/contracts/token/ERC20/utils/SafeERC20.sol\":1767:1784  _safeTransferFrom */\n      tag_475\n        /* \"@openzeppelin/contracts/token/ERC20/utils/SafeERC20.sol\":1767:1814  _safeTransferFrom(token, from, to, value, true) */\n      jump\t// in\n    tag_474:\n        /* \"@openzeppelin/contracts/token/ERC20/utils/SafeERC20.sol\":1762:1888  if (!_safeTransferFrom(token, from, to, value, true)) {... */\n      tag_476\n      jumpi\n        /* \"@openzeppelin/contracts/token/ERC20/utils/SafeERC20.sol\":1870:1875  token */\n      dup4\n        /* \"@openzeppelin/contracts/token/ERC20/utils/SafeERC20.sol\":1837:1877  SafeERC20FailedOperation(address(token)) */\n      mload(0x40)\n      0x5274afe700000000000000000000000000000000000000000000000000000000\n      dup2\n      mstore\n      0x04\n      add\n      tag_477\n      swap2\n      swap1\n      tag_70\n      jump\t// in\n    tag_477:\n      mload(0x40)\n      dup1\n      swap2\n      sub\n      swap1\n      revert\n        /* \"@openzeppelin/contracts/token/ERC20/utils/SafeERC20.sol\":1762:1888  if (!_safeTransferFrom(token, from, to, value, true)) {... */\n    tag_476:\n        /* \"@openzeppelin/contracts/token/ERC20/utils/SafeERC20.sol\":1662:1894  function safeTransferFrom(IERC20 token, address from, address to, uint256 value) internal {... */\n      pop\n      pop\n      pop\n      pop\n      jump\t// out\n        /* \"contracts/TimbSwapRouter.sol\":8741:9076  function _collectProtocolFee(address token, uint256 amountIn) internal {... */\n    tag_375:\n        /* \"contracts/TimbSwapRouter.sol\":8822:8833  uint256 fee */\n      0x00\n        /* \"contracts/TimbSwapRouter.sol\":2847:2853  10_000 */\n      0x2710\n        /* \"contracts/TimbSwapRouter.sol\":2797:2798  5 */\n      0x05\n        /* \"contracts/TimbSwapRouter.sol\":8837:8845  amountIn */\n      dup4\n        /* \"contracts/TimbSwapRouter.sol\":8837:8864  amountIn * PROTOCOL_FEE_BPS */\n      tag_479\n      swap2\n      swap1\n      tag_339\n      jump\t// in\n    tag_479:\n        /* \"contracts/TimbSwapRouter.sol\":8836:8883  (amountIn * PROTOCOL_FEE_BPS) / BPS_DENOMINATOR */\n      tag_480\n      swap2\n      swap1\n      tag_345\n      jump\t// in\n    tag_480:\n        /* \"contracts/TimbSwapRouter.sol\":8822:8883  uint256 fee = (amountIn * PROTOCOL_FEE_BPS) / BPS_DENOMINATOR */\n      swap1\n      pop\n        /* \"contracts/TimbSwapRouter.sol\":8903:8904  0 */\n      0x00\n        /* \"contracts/TimbSwapRouter.sol\":8897:8900  fee */\n      dup2\n        /* \"contracts/TimbSwapRouter.sol\":8897:8904  fee > 0 */\n      gt\n        /* \"contracts/TimbSwapRouter.sol\":8897:8930  fee > 0 && treasury != address(0) */\n      dup1\n      iszero\n      tag_481\n      jumpi\n      pop\n        /* \"contracts/TimbSwapRouter.sol\":8928:8929  0 */\n      0x00\n        /* \"contracts/TimbSwapRouter.sol\":8908:8930  treasury != address(0) */\n      0xffffffffffffffffffffffffffffffffffffffff\n      and\n        /* \"contracts/TimbSwapRouter.sol\":8908:8916  treasury */\n      0x01\n      0x00\n      swap1\n      sload\n      swap1\n      0x0100\n      exp\n      swap1\n      div\n      0xffffffffffffffffffffffffffffffffffffffff\n      and\n        /* \"contracts/TimbSwapRouter.sol\":8908:8930  treasury != address(0) */\n      0xffffffffffffffffffffffffffffffffffffffff\n      and\n      eq\n      iszero\n        /* \"contracts/TimbSwapRouter.sol\":8897:8930  fee > 0 && treasury != address(0) */\n    tag_481:\n        /* \"contracts/TimbSwapRouter.sol\":8893:9070  if (fee > 0 && treasury != address(0)) {... */\n      iszero\n      tag_482\n      jumpi\n        /* \"contracts/TimbSwapRouter.sol\":8946:9003  IERC20(token).safeTransferFrom(msg.sender, treasury, fee) */\n      tag_483\n        /* \"contracts/TimbSwapRouter.sol\":8977:8987  msg.sender */\n      caller\n        /* \"contracts/TimbSwapRouter.sol\":8989:8997  treasury */\n      0x01\n      0x00\n      swap1\n      sload\n      swap1\n      0x0100\n      exp\n      swap1\n      div\n      0xffffffffffffffffffffffffffffffffffffffff\n      and\n        /* \"contracts/TimbSwapRouter.sol\":8999:9002  fee */\n      dup4\n        /* \"contracts/TimbSwapRouter.sol\":8953:8958  token */\n      dup7\n        /* \"contracts/TimbSwapRouter.sol\":8946:8976  IERC20(token).safeTransferFrom */\n      0xffffffffffffffffffffffffffffffffffffffff\n      and\n      tag_373\n      swap1\n        /* \"contracts/TimbSwapRouter.sol\":8946:9003  IERC20(token).safeTransferFrom(msg.sender, treasury, fee) */\n      swap4\n      swap3\n      swap2\n      swap1\n      0xffffffff\n      and\n      jump\t// in\n    tag_483:\n        /* \"contracts/TimbSwapRouter.sol\":9048:9053  token */\n      dup3\n        /* \"contracts/TimbSwapRouter.sol\":9022:9059  ProtocolFeeSent(treasury, token, fee) */\n      0xffffffffffffffffffffffffffffffffffffffff\n      and\n        /* \"contracts/TimbSwapRouter.sol\":9038:9046  treasury */\n      0x01\n      0x00\n      swap1\n      sload\n      swap1\n      0x0100\n      exp\n      swap1\n      div\n      0xffffffffffffffffffffffffffffffffffffffff\n      and\n        /* \"contracts/TimbSwapRouter.sol\":9022:9059  ProtocolFeeSent(treasury, token, fee) */\n      0xffffffffffffffffffffffffffffffffffffffff\n      and\n      0x493fdd1f2099b9854729d46428ce244dbb655e5209e74967fd51b0f0e9fe4e1e\n        /* \"contracts/TimbSwapRouter.sol\":9055:9058  fee */\n      dup4\n        /* \"contracts/TimbSwapRouter.sol\":9022:9059  ProtocolFeeSent(treasury, token, fee) */\n      mload(0x40)\n      tag_484\n      swap2\n      swap1\n      tag_51\n      jump\t// in\n    tag_484:\n      mload(0x40)\n      dup1\n      swap2\n      sub\n      swap1\n      log3\n        /* \"contracts/TimbSwapRouter.sol\":8893:9070  if (fee > 0 && treasury != address(0)) {... */\n    tag_482:\n        /* \"contracts/TimbSwapRouter.sol\":8812:9076  {... */\n      pop\n        /* \"contracts/TimbSwapRouter.sol\":8741:9076  function _collectProtocolFee(address token, uint256 amountIn) internal {... */\n      pop\n      pop\n      jump\t// out\n        /* \"contracts/TimbSwapRouter.sol\":10071:10398  function _swapOnPair(address pair, address tokenIn, uint256 amountOut, address to)... */\n    tag_377:\n        /* \"contracts/TimbSwapRouter.sol\":10185:10198  bool isToken0 */\n      0x00\n        /* \"contracts/TimbSwapRouter.sol\":10225:10232  tokenIn */\n      dup4\n        /* \"contracts/TimbSwapRouter.sol\":10201:10232  IPair(pair).token0() == tokenIn */\n      0xffffffffffffffffffffffffffffffffffffffff\n      and\n        /* \"contracts/TimbSwapRouter.sol\":10207:10211  pair */\n      dup6\n        /* \"contracts/TimbSwapRouter.sol\":10201:10219  IPair(pair).token0 */\n      0xffffffffffffffffffffffffffffffffffffffff\n      and\n      0x0dfe1681\n        /* \"contracts/TimbSwapRouter.sol\":10201:10221  IPair(pair).token0() */\n      mload(0x40)\n      dup2\n      0xffffffff\n      and\n      0xe0\n      shl\n      dup2\n      mstore\n      0x04\n      add\n      0x20\n      mload(0x40)\n      dup1\n      dup4\n      sub\n      dup2\n      dup7\n      gas\n      staticcall\n      iszero\n      dup1\n      iszero\n      tag_487\n      jumpi\n      returndatasize\n      0x00\n      dup1\n      returndatacopy\n      revert(0x00, returndatasize)\n    tag_487:\n      pop\n      pop\n      pop\n      pop\n      mload(0x40)\n      returndatasize\n      not(0x1f)\n      0x1f\n      dup3\n      add\n      and\n      dup3\n      add\n      dup1\n      0x40\n      mstore\n      pop\n      dup2\n      add\n      swap1\n      tag_488\n      swap2\n      swap1\n      tag_248\n      jump\t// in\n    tag_488:\n        /* \"contracts/TimbSwapRouter.sol\":10201:10232  IPair(pair).token0() == tokenIn */\n      0xffffffffffffffffffffffffffffffffffffffff\n      and\n      eq\n        /* \"contracts/TimbSwapRouter.sol\":10185:10232  bool isToken0 = IPair(pair).token0() == tokenIn */\n      swap1\n      pop\n        /* \"contracts/TimbSwapRouter.sol\":10243:10253  uint256 a0 */\n      0x00\n        /* \"contracts/TimbSwapRouter.sol\":10255:10265  uint256 a1 */\n      dup1\n        /* \"contracts/TimbSwapRouter.sol\":10269:10277  isToken0 */\n      dup3\n        /* \"contracts/TimbSwapRouter.sol\":10269:10353  isToken0... */\n      tag_489\n      jumpi\n        /* \"contracts/TimbSwapRouter.sol\":10331:10340  amountOut */\n      dup5\n        /* \"contracts/TimbSwapRouter.sol\":10350:10351  0 */\n      0x00\n        /* \"contracts/TimbSwapRouter.sol\":10269:10353  isToken0... */\n      jump(tag_490)\n    tag_489:\n        /* \"contracts/TimbSwapRouter.sol\":10301:10302  0 */\n      0x00\n        /* \"contracts/TimbSwapRouter.sol\":10305:10314  amountOut */\n      dup6\n        /* \"contracts/TimbSwapRouter.sol\":10269:10353  isToken0... */\n    tag_490:\n        /* \"contracts/TimbSwapRouter.sol\":10242:10353  (uint256 a0, uint256 a1) = isToken0... */\n      swap2\n      pop\n      swap2\n      pop\n        /* \"contracts/TimbSwapRouter.sol\":10369:10373  pair */\n      dup7\n        /* \"contracts/TimbSwapRouter.sol\":10363:10379  IPair(pair).swap */\n      0xffffffffffffffffffffffffffffffffffffffff\n      and\n      0x6d9a640a\n        /* \"contracts/TimbSwapRouter.sol\":10380:10382  a0 */\n      dup4\n        /* \"contracts/TimbSwapRouter.sol\":10384:10386  a1 */\n      dup4\n        /* \"contracts/TimbSwapRouter.sol\":10388:10390  to */\n      dup8\n        /* \"contracts/TimbSwapRouter.sol\":10363:10391  IPair(pair).swap(a0, a1, to) */\n      mload(0x40)\n      dup5\n      0xffffffff\n      and\n      0xe0\n      shl\n      dup2\n      mstore\n      0x04\n      add\n      tag_491\n      swap4\n      swap3\n      swap2\n      swap1\n      tag_492\n      jump\t// in\n    tag_491:\n      0x00\n      mload(0x40)\n      dup1\n      dup4\n      sub\n      dup2\n      0x00\n      dup8\n      dup1\n      extcodesize\n      iszero\n      dup1\n      iszero\n      tag_493\n      jumpi\n      0x00\n      dup1\n      revert\n    tag_493:\n      pop\n      gas\n      call\n      iszero\n      dup1\n      iszero\n      tag_495\n      jumpi\n      returndatasize\n      0x00\n      dup1\n      returndatacopy\n      revert(0x00, returndatasize)\n    tag_495:\n      pop\n      pop\n      pop\n      pop\n        /* \"contracts/TimbSwapRouter.sol\":10175:10398  {... */\n      pop\n      pop\n      pop\n        /* \"contracts/TimbSwapRouter.sol\":10071:10398  function _swapOnPair(address pair, address tokenIn, uint256 amountOut, address to)... */\n      pop\n      pop\n      pop\n      pop\n      jump\t// out\n        /* \"contracts/TimbSwapRouter.sol\":9267:9886  function _maybeNudge(address tokenIn, bool influencePrize) internal {... */\n    tag_379:\n        /* \"contracts/TimbSwapRouter.sol\":9350:9364  influencePrize */\n      dup1\n        /* \"contracts/TimbSwapRouter.sol\":9345:9388  if (!influencePrize)                return; */\n      iszero\n        /* \"contracts/TimbSwapRouter.sol\":9381:9388  return; */\n      tag_496\n        /* \"contracts/TimbSwapRouter.sol\":9345:9388  if (!influencePrize)                return; */\n      jumpi\n        /* \"contracts/TimbSwapRouter.sol\":9422:9423  0 */\n      0x00\n        /* \"contracts/TimbSwapRouter.sol\":9401:9424  timbPrize == address(0) */\n      0xffffffffffffffffffffffffffffffffffffffff\n      and\n        /* \"contracts/TimbSwapRouter.sol\":9401:9410  timbPrize */\n      0x03\n      0x00\n      swap1\n      sload\n      swap1\n      0x0100\n      exp\n      swap1\n      div\n      0xffffffffffffffffffffffffffffffffffffffff\n      and\n        /* \"contracts/TimbSwapRouter.sol\":9401:9424  timbPrize == address(0) */\n      0xffffffffffffffffffffffffffffffffffffffff\n      and\n      sub\n        /* \"contracts/TimbSwapRouter.sol\":9397:9440  if (timbPrize == address(0))        return; */\n      iszero\n        /* \"contracts/TimbSwapRouter.sol\":9433:9440  return; */\n      tag_496\n        /* \"contracts/TimbSwapRouter.sol\":9397:9440  if (timbPrize == address(0))        return; */\n      jumpi\n        /* \"contracts/TimbSwapRouter.sol\":9481:9482  0 */\n      0x00\n        /* \"contracts/TimbSwapRouter.sol\":9453:9483  eligibleRegistry == address(0) */\n      0xffffffffffffffffffffffffffffffffffffffff\n      and\n        /* \"contracts/TimbSwapRouter.sol\":9453:9469  eligibleRegistry */\n      0x02\n      0x00\n      swap1\n      sload\n      swap1\n      0x0100\n      exp\n      swap1\n      div\n      0xffffffffffffffffffffffffffffffffffffffff\n      and\n        /* \"contracts/TimbSwapRouter.sol\":9453:9483  eligibleRegistry == address(0) */\n      0xffffffffffffffffffffffffffffffffffffffff\n      and\n      sub\n        /* \"contracts/TimbSwapRouter.sol\":9449:9492  if (eligibleRegistry == address(0)) return; */\n      iszero\n        /* \"contracts/TimbSwapRouter.sol\":9485:9492  return; */\n      tag_496\n        /* \"contracts/TimbSwapRouter.sol\":9449:9492  if (eligibleRegistry == address(0)) return; */\n      jumpi\n        /* \"contracts/TimbSwapRouter.sol\":9528:9544  eligibleRegistry */\n      0x02\n      0x00\n      swap1\n      sload\n      swap1\n      0x0100\n      exp\n      swap1\n      div\n      0xffffffffffffffffffffffffffffffffffffffff\n      and\n        /* \"contracts/TimbSwapRouter.sol\":9505:9556  IEligibleTokenRegistry(eligibleRegistry).isEligible */\n      0xffffffffffffffffffffffffffffffffffffffff\n      and\n      0x66e305fd\n        /* \"contracts/TimbSwapRouter.sol\":9557:9564  tokenIn */\n      dup4\n        /* \"contracts/TimbSwapRouter.sol\":9505:9565  IEligibleTokenRegistry(eligibleRegistry).isEligible(tokenIn) */\n      mload(0x40)\n      dup3\n      0xffffffff\n      and\n      0xe0\n      shl\n      dup2\n      mstore\n      0x04\n      add\n      tag_500\n      swap2\n      swap1\n      tag_70\n      jump\t// in\n    tag_500:\n      0x20\n      mload(0x40)\n      dup1\n      dup4\n      sub\n      dup2\n      dup7\n      gas\n      staticcall\n      swap3\n      pop\n      pop\n      pop\n      dup1\n      iszero\n      tag_501\n      jumpi\n      pop\n      mload(0x40)\n      returndatasize\n      not(0x1f)\n      0x1f\n      dup3\n      add\n      and\n      dup3\n      add\n      dup1\n      0x40\n      mstore\n      pop\n      dup2\n      add\n      swap1\n      tag_502\n      swap2\n      swap1\n      tag_503\n      jump\t// in\n    tag_502:\n      0x01\n    tag_501:\n        /* \"contracts/TimbSwapRouter.sol\":9501:9634  try IEligibleTokenRegistry(eligibleRegistry).isEligible(tokenIn)... */\n      iszero\n        /* \"contracts/TimbSwapRouter.sol\":9625:9632  return; */\n      tag_496\n        /* \"contracts/TimbSwapRouter.sol\":9501:9634  try IEligibleTokenRegistry(eligibleRegistry).isEligible(tokenIn)... */\n      jumpi\n        /* \"contracts/TimbSwapRouter.sol\":9603:9605  ok */\n      dup1\n        /* \"contracts/TimbSwapRouter.sol\":9598:9614  if (!ok) return; */\n      tag_509\n      jumpi\n        /* \"contracts/TimbSwapRouter.sol\":9607:9614  return; */\n      pop\n      jump(tag_496)\n        /* \"contracts/TimbSwapRouter.sol\":9598:9614  if (!ok) return; */\n    tag_509:\n        /* \"contracts/TimbSwapRouter.sol\":9578:9616  returns (bool ok) { if (!ok) return; } */\n      pop\n        /* \"contracts/TimbSwapRouter.sol\":9658:9667  timbPrize */\n      0x03\n      0x00\n      swap1\n      sload\n      swap1\n      0x0100\n      exp\n      swap1\n      div\n      0xffffffffffffffffffffffffffffffffffffffff\n      and\n        /* \"contracts/TimbSwapRouter.sol\":9647:9687  ITimbPrize(timbPrize).isSettlementWindow */\n      0xffffffffffffffffffffffffffffffffffffffff\n      and\n      0xc33b7586\n        /* \"contracts/TimbSwapRouter.sol\":9647:9689  ITimbPrize(timbPrize).isSettlementWindow() */\n      mload(0x40)\n      dup2\n      0xffffffff\n      and\n      0xe0\n      shl\n      dup2\n      mstore\n      0x04\n      add\n      0x20\n      mload(0x40)\n      dup1\n      dup4\n      sub\n      dup2\n      dup7\n      gas\n      staticcall\n      swap3\n      pop\n      pop\n      pop\n      dup1\n      iszero\n      tag_510\n      jumpi\n      pop\n      mload(0x40)\n      returndatasize\n      not(0x1f)\n      0x1f\n      dup3\n      add\n      and\n      dup3\n      add\n      dup1\n      0x40\n      mstore\n      pop\n      dup2\n      add\n      swap1\n      tag_511\n      swap2\n      swap1\n      tag_503\n      jump\t// in\n    tag_511:\n      0x01\n    tag_510:\n        /* \"contracts/TimbSwapRouter.sol\":9643:9759  try ITimbPrize(timbPrize).isSettlementWindow()... */\n      iszero\n        /* \"contracts/TimbSwapRouter.sol\":9750:9757  return; */\n      tag_496\n        /* \"contracts/TimbSwapRouter.sol\":9643:9759  try ITimbPrize(timbPrize).isSettlementWindow()... */\n      jumpi\n        /* \"contracts/TimbSwapRouter.sol\":9727:9730  win */\n      dup1\n        /* \"contracts/TimbSwapRouter.sol\":9723:9739  if (win) return; */\n      iszero\n      tag_517\n      jumpi\n        /* \"contracts/TimbSwapRouter.sol\":9732:9739  return; */\n      pop\n      jump(tag_496)\n        /* \"contracts/TimbSwapRouter.sol\":9723:9739  if (win) return; */\n    tag_517:\n        /* \"contracts/TimbSwapRouter.sol\":9702:9741  returns (bool win) { if (win) return; } */\n      pop\n        /* \"contracts/TimbSwapRouter.sol\":9783:9792  timbPrize */\n      0x03\n      0x00\n      swap1\n      sload\n      swap1\n      0x0100\n      exp\n      swap1\n      div\n      0xffffffffffffffffffffffffffffffffffffffff\n      and\n        /* \"contracts/TimbSwapRouter.sol\":9772:9805  ITimbPrize(timbPrize).nudgeScroll */\n      0xffffffffffffffffffffffffffffffffffffffff\n      and\n      0x0b7a567b\n        /* \"contracts/TimbSwapRouter.sol\":9772:9807  ITimbPrize(timbPrize).nudgeScroll() */\n      mload(0x40)\n      dup2\n      0xffffffff\n      and\n      0xe0\n      shl\n      dup2\n      mstore\n      0x04\n      add\n      0x00\n      mload(0x40)\n      dup1\n      dup4\n      sub\n      dup2\n      0x00\n      dup8\n      dup1\n      extcodesize\n      iszero\n      dup1\n      iszero\n      tag_518\n      jumpi\n      0x00\n      dup1\n      revert\n    tag_518:\n      pop\n      gas\n      call\n      swap3\n      pop\n      pop\n      pop\n      dup1\n      iszero\n      tag_519\n      jumpi\n      pop\n      0x01\n    tag_519:\n        /* \"contracts/TimbSwapRouter.sol\":9768:9880  try ITimbPrize(timbPrize).nudgeScroll() {... */\n      iszero\n      tag_524\n      jumpi\n        /* \"contracts/TimbSwapRouter.sol\":9852:9859  tokenIn */\n      dup2\n        /* \"contracts/TimbSwapRouter.sol\":9827:9860  ScrollNudged(msg.sender, tokenIn) */\n      0xffffffffffffffffffffffffffffffffffffffff\n      and\n        /* \"contracts/TimbSwapRouter.sol\":9840:9850  msg.sender */\n      caller\n        /* \"contracts/TimbSwapRouter.sol\":9827:9860  ScrollNudged(msg.sender, tokenIn) */\n      0xffffffffffffffffffffffffffffffffffffffff\n      and\n      0xc991fdc6f1d37402cf43cd51be704037ef268e0e50a068c178918a86b1919238\n      mload(0x40)\n      mload(0x40)\n      dup1\n      swap2\n      sub\n      swap1\n      log3\n        /* \"contracts/TimbSwapRouter.sol\":9768:9880  try ITimbPrize(timbPrize).nudgeScroll() {... */\n    tag_524:\n        /* \"contracts/TimbSwapRouter.sol\":9267:9886  function _maybeNudge(address tokenIn, bool influencePrize) internal {... */\n    tag_496:\n      pop\n      pop\n      jump\t// out\n        /* \"contracts/TimbSwapRouter.sol\":16031:16488  function _optimalLiquidityAmounts(... */\n    tag_417:\n        /* \"contracts/TimbSwapRouter.sol\":16174:16189  uint256 amountA */\n      0x00\n        /* \"contracts/TimbSwapRouter.sol\":16191:16206  uint256 amountB */\n      dup1\n        /* \"contracts/TimbSwapRouter.sol\":16219:16235  uint256 reserveA */\n      0x00\n        /* \"contracts/TimbSwapRouter.sol\":16237:16253  uint256 reserveB */\n      dup1\n        /* \"contracts/TimbSwapRouter.sol\":16257:16283  _getReserves(pair, tokenA) */\n      tag_526\n        /* \"contracts/TimbSwapRouter.sol\":16270:16274  pair */\n      dup8\n        /* \"contracts/TimbSwapRouter.sol\":16276:16282  tokenA */\n      dup8\n        /* \"contracts/TimbSwapRouter.sol\":16257:16269  _getReserves */\n      tag_197\n        /* \"contracts/TimbSwapRouter.sol\":16257:16283  _getReserves(pair, tokenA) */\n      jump\t// in\n    tag_526:\n        /* \"contracts/TimbSwapRouter.sol\":16218:16283  (uint256 reserveA, uint256 reserveB) = _getReserves(pair, tokenA) */\n      swap2\n      pop\n      swap2\n      pop\n        /* \"contracts/TimbSwapRouter.sol\":16300:16481  _optimalAmounts(... */\n      tag_527\n        /* \"contracts/TimbSwapRouter.sol\":16329:16330  p */\n      dup6\n        /* \"contracts/TimbSwapRouter.sol\":16329:16345  p.amountADesired */\n      0x00\n      add\n      mload\n        /* \"contracts/TimbSwapRouter.sol\":16359:16360  p */\n      dup7\n        /* \"contracts/TimbSwapRouter.sol\":16359:16375  p.amountBDesired */\n      0x20\n      add\n      mload\n        /* \"contracts/TimbSwapRouter.sol\":16389:16390  p */\n      dup8\n        /* \"contracts/TimbSwapRouter.sol\":16389:16401  p.amountAMin */\n      0x40\n      add\n      mload\n        /* \"contracts/TimbSwapRouter.sol\":16415:16416  p */\n      dup9\n        /* \"contracts/TimbSwapRouter.sol\":16415:16427  p.amountBMin */\n      0x60\n      add\n      mload\n        /* \"contracts/TimbSwapRouter.sol\":16441:16449  reserveA */\n      dup7\n        /* \"contracts/TimbSwapRouter.sol\":16463:16471  reserveB */\n      dup7\n        /* \"contracts/TimbSwapRouter.sol\":16300:16315  _optimalAmounts */\n      tag_432\n        /* \"contracts/TimbSwapRouter.sol\":16300:16481  _optimalAmounts(... */\n      jump\t// in\n    tag_527:\n        /* \"contracts/TimbSwapRouter.sol\":16293:16481  return _optimalAmounts(... */\n      swap4\n      pop\n      swap4\n      pop\n      pop\n      pop\n        /* \"contracts/TimbSwapRouter.sol\":16031:16488  function _optimalLiquidityAmounts(... */\n      swap4\n      pop\n      swap4\n      swap2\n      pop\n      pop\n      jump\t// out\n        /* \"contracts/TimbSwapRouter.sol\":15137:16025  function _optimalAmounts(... */\n    tag_432:\n        /* \"contracts/TimbSwapRouter.sol\":15363:15378  uint256 amountA */\n      0x00\n        /* \"contracts/TimbSwapRouter.sol\":15380:15395  uint256 amountB */\n      dup1\n        /* \"contracts/TimbSwapRouter.sol\":15423:15424  0 */\n      0x00\n        /* \"contracts/TimbSwapRouter.sol\":15411:15419  reserveA */\n      dup5\n        /* \"contracts/TimbSwapRouter.sol\":15411:15424  reserveA == 0 */\n      eq\n        /* \"contracts/TimbSwapRouter.sol\":15411:15441  reserveA == 0 && reserveB == 0 */\n      dup1\n      iszero\n      tag_529\n      jumpi\n      pop\n        /* \"contracts/TimbSwapRouter.sol\":15440:15441  0 */\n      0x00\n        /* \"contracts/TimbSwapRouter.sol\":15428:15436  reserveB */\n      dup4\n        /* \"contracts/TimbSwapRouter.sol\":15428:15441  reserveB == 0 */\n      eq\n        /* \"contracts/TimbSwapRouter.sol\":15411:15441  reserveA == 0 && reserveB == 0 */\n    tag_529:\n        /* \"contracts/TimbSwapRouter.sol\":15407:15507  if (reserveA == 0 && reserveB == 0) {... */\n      iszero\n      tag_530\n      jumpi\n        /* \"contracts/TimbSwapRouter.sol\":15465:15479  amountADesired */\n      dup8\n        /* \"contracts/TimbSwapRouter.sol\":15481:15495  amountBDesired */\n      dup8\n        /* \"contracts/TimbSwapRouter.sol\":15457:15496  return (amountADesired, amountBDesired) */\n      swap2\n      pop\n      swap2\n      pop\n      jump(tag_528)\n        /* \"contracts/TimbSwapRouter.sol\":15407:15507  if (reserveA == 0 && reserveB == 0) {... */\n    tag_530:\n        /* \"contracts/TimbSwapRouter.sol\":15516:15538  uint256 amountBOptimal */\n      0x00\n        /* \"contracts/TimbSwapRouter.sol\":15541:15583  _quote(amountADesired, reserveA, reserveB) */\n      tag_531\n        /* \"contracts/TimbSwapRouter.sol\":15548:15562  amountADesired */\n      dup10\n        /* \"contracts/TimbSwapRouter.sol\":15564:15572  reserveA */\n      dup7\n        /* \"contracts/TimbSwapRouter.sol\":15574:15582  reserveB */\n      dup7\n        /* \"contracts/TimbSwapRouter.sol\":15541:15547  _quote */\n      tag_221\n        /* \"contracts/TimbSwapRouter.sol\":15541:15583  _quote(amountADesired, reserveA, reserveB) */\n      jump\t// in\n    tag_531:\n        /* \"contracts/TimbSwapRouter.sol\":15516:15583  uint256 amountBOptimal = _quote(amountADesired, reserveA, reserveB) */\n      swap1\n      pop\n        /* \"contracts/TimbSwapRouter.sol\":15615:15629  amountBDesired */\n      dup8\n        /* \"contracts/TimbSwapRouter.sol\":15597:15611  amountBOptimal */\n      dup2\n        /* \"contracts/TimbSwapRouter.sol\":15597:15629  amountBOptimal <= amountBDesired */\n      gt\n        /* \"contracts/TimbSwapRouter.sol\":15593:15796  if (amountBOptimal <= amountBDesired) {... */\n      tag_532\n      jumpi\n        /* \"contracts/TimbSwapRouter.sol\":15666:15676  amountBMin */\n      dup6\n        /* \"contracts/TimbSwapRouter.sol\":15649:15663  amountBOptimal */\n      dup2\n        /* \"contracts/TimbSwapRouter.sol\":15649:15676  amountBOptimal < amountBMin */\n      lt\n        /* \"contracts/TimbSwapRouter.sol\":15645:15732  if (amountBOptimal < amountBMin) revert InsufficientBAmount(amountBOptimal, amountBMin) */\n      iszero\n      tag_533\n      jumpi\n        /* \"contracts/TimbSwapRouter.sol\":15705:15719  amountBOptimal */\n      dup1\n        /* \"contracts/TimbSwapRouter.sol\":15721:15731  amountBMin */\n      dup7\n        /* \"contracts/TimbSwapRouter.sol\":15685:15732  InsufficientBAmount(amountBOptimal, amountBMin) */\n      mload(0x40)\n      0x5195966700000000000000000000000000000000000000000000000000000000\n      dup2\n      mstore\n      0x04\n      add\n      tag_534\n      swap3\n      swap2\n      swap1\n      tag_44\n      jump\t// in\n    tag_534:\n      mload(0x40)\n      dup1\n      swap2\n      sub\n      swap1\n      revert\n        /* \"contracts/TimbSwapRouter.sol\":15645:15732  if (amountBOptimal < amountBMin) revert InsufficientBAmount(amountBOptimal, amountBMin) */\n    tag_533:\n        /* \"contracts/TimbSwapRouter.sol\":15754:15768  amountADesired */\n      dup9\n        /* \"contracts/TimbSwapRouter.sol\":15770:15784  amountBOptimal */\n      dup2\n        /* \"contracts/TimbSwapRouter.sol\":15746:15785  return (amountADesired, amountBOptimal) */\n      swap3\n      pop\n      swap3\n      pop\n      pop\n      jump(tag_528)\n        /* \"contracts/TimbSwapRouter.sol\":15593:15796  if (amountBOptimal <= amountBDesired) {... */\n    tag_532:\n        /* \"contracts/TimbSwapRouter.sol\":15805:15827  uint256 amountAOptimal */\n      0x00\n        /* \"contracts/TimbSwapRouter.sol\":15830:15872  _quote(amountBDesired, reserveB, reserveA) */\n      tag_535\n        /* \"contracts/TimbSwapRouter.sol\":15837:15851  amountBDesired */\n      dup10\n        /* \"contracts/TimbSwapRouter.sol\":15853:15861  reserveB */\n      dup7\n        /* \"contracts/TimbSwapRouter.sol\":15863:15871  reserveA */\n      dup9\n        /* \"contracts/TimbSwapRouter.sol\":15830:15836  _quote */\n      tag_221\n        /* \"contracts/TimbSwapRouter.sol\":15830:15872  _quote(amountBDesired, reserveB, reserveA) */\n      jump\t// in\n    tag_535:\n        /* \"contracts/TimbSwapRouter.sol\":15805:15872  uint256 amountAOptimal = _quote(amountBDesired, reserveB, reserveA) */\n      swap1\n      pop\n        /* \"contracts/TimbSwapRouter.sol\":15903:15913  amountAMin */\n      dup8\n        /* \"contracts/TimbSwapRouter.sol\":15886:15900  amountAOptimal */\n      dup2\n        /* \"contracts/TimbSwapRouter.sol\":15886:15913  amountAOptimal < amountAMin */\n      lt\n        /* \"contracts/TimbSwapRouter.sol\":15882:15969  if (amountAOptimal < amountAMin) revert InsufficientAAmount(amountAOptimal, amountAMin) */\n      iszero\n      tag_536\n      jumpi\n        /* \"contracts/TimbSwapRouter.sol\":15942:15956  amountAOptimal */\n      dup1\n        /* \"contracts/TimbSwapRouter.sol\":15958:15968  amountAMin */\n      dup9\n        /* \"contracts/TimbSwapRouter.sol\":15922:15969  InsufficientAAmount(amountAOptimal, amountAMin) */\n      mload(0x40)\n      0x47c5f09e00000000000000000000000000000000000000000000000000000000\n      dup2\n      mstore\n      0x04\n      add\n      tag_537\n      swap3\n      swap2\n      swap1\n      tag_44\n      jump\t// in\n    tag_537:\n      mload(0x40)\n      dup1\n      swap2\n      sub\n      swap1\n      revert\n        /* \"contracts/TimbSwapRouter.sol\":15882:15969  if (amountAOptimal < amountAMin) revert InsufficientAAmount(amountAOptimal, amountAMin) */\n    tag_536:\n        /* \"contracts/TimbSwapRouter.sol\":15987:16001  amountAOptimal */\n      dup1\n        /* \"contracts/TimbSwapRouter.sol\":16003:16017  amountBDesired */\n      dup10\n        /* \"contracts/TimbSwapRouter.sol\":15979:16018  return (amountAOptimal, amountBDesired) */\n      swap4\n      pop\n      swap4\n      pop\n      pop\n      pop\n        /* \"contracts/TimbSwapRouter.sol\":15137:16025  function _optimalAmounts(... */\n    tag_528:\n      swap7\n      pop\n      swap7\n      swap5\n      pop\n      pop\n      pop\n      pop\n      pop\n      jump\t// out\n        /* \"contracts/TimbSwapRouter.sol\":14592:14803  function _wrapAndSend(address pair, uint256 amount) internal {... */\n    tag_436:\n        /* \"contracts/TimbSwapRouter.sol\":14683:14684  0 */\n      0x00\n        /* \"contracts/TimbSwapRouter.sol\":14667:14685  weth == address(0) */\n      0xffffffffffffffffffffffffffffffffffffffff\n      and\n        /* \"contracts/TimbSwapRouter.sol\":14667:14671  weth */\n      0x04\n      0x00\n      swap1\n      sload\n      swap1\n      0x0100\n      exp\n      swap1\n      div\n      0xffffffffffffffffffffffffffffffffffffffff\n      and\n        /* \"contracts/TimbSwapRouter.sol\":14667:14685  weth == address(0) */\n      0xffffffffffffffffffffffffffffffffffffffff\n      and\n      sub\n        /* \"contracts/TimbSwapRouter.sol\":14663:14706  if (weth == address(0)) revert WethNotSet() */\n      tag_539\n      jumpi\n        /* \"contracts/TimbSwapRouter.sol\":14694:14706  WethNotSet() */\n      mload(0x40)\n      0x0dc08fa200000000000000000000000000000000000000000000000000000000\n      dup2\n      mstore\n      0x04\n      add\n      mload(0x40)\n      dup1\n      swap2\n      sub\n      swap1\n      revert\n        /* \"contracts/TimbSwapRouter.sol\":14663:14706  if (weth == address(0)) revert WethNotSet() */\n    tag_539:\n        /* \"contracts/TimbSwapRouter.sol\":14722:14726  weth */\n      0x04\n      0x00\n      swap1\n      sload\n      swap1\n      0x0100\n      exp\n      swap1\n      div\n      0xffffffffffffffffffffffffffffffffffffffff\n      and\n        /* \"contracts/TimbSwapRouter.sol\":14716:14735  IWETH(weth).deposit */\n      0xffffffffffffffffffffffffffffffffffffffff\n      and\n      0xd0e30db0\n        /* \"contracts/TimbSwapRouter.sol\":14743:14749  amount */\n      dup3\n        /* \"contracts/TimbSwapRouter.sol\":14716:14752  IWETH(weth).deposit{value: amount}() */\n      mload(0x40)\n      dup3\n      0xffffffff\n      and\n      0xe0\n      shl\n      dup2\n      mstore\n      0x04\n      add\n      0x00\n      mload(0x40)\n      dup1\n      dup4\n      sub\n      dup2\n      dup6\n      dup9\n      dup1\n      extcodesize\n      iszero\n      dup1\n      iszero\n      tag_540\n      jumpi\n      0x00\n      dup1\n      revert\n    tag_540:\n      pop\n      gas\n      call\n      iszero\n      dup1\n      iszero\n      tag_542\n      jumpi\n      returndatasize\n      0x00\n      dup1\n      returndatacopy\n      revert(0x00, returndatasize)\n    tag_542:\n      pop\n      pop\n      pop\n      pop\n      pop\n        /* \"contracts/TimbSwapRouter.sol\":14768:14772  weth */\n      0x04\n      0x00\n      swap1\n      sload\n      swap1\n      0x0100\n      exp\n      swap1\n      div\n      0xffffffffffffffffffffffffffffffffffffffff\n      and\n        /* \"contracts/TimbSwapRouter.sol\":14762:14782  IWETH(weth).transfer */\n      0xffffffffffffffffffffffffffffffffffffffff\n      and\n      0xa9059cbb\n        /* \"contracts/TimbSwapRouter.sol\":14783:14787  pair */\n      dup4\n        /* \"contracts/TimbSwapRouter.sol\":14789:14795  amount */\n      dup4\n        /* \"contracts/TimbSwapRouter.sol\":14762:14796  IWETH(weth).transfer(pair, amount) */\n      mload(0x40)\n      dup4\n      0xffffffff\n      and\n      0xe0\n      shl\n      dup2\n      mstore\n      0x04\n      add\n      tag_543\n      swap3\n      swap2\n      swap1\n      tag_544\n      jump\t// in\n    tag_543:\n      0x20\n      mload(0x40)\n      dup1\n      dup4\n      sub\n      dup2\n      0x00\n      dup8\n      gas\n      call\n      iszero\n      dup1\n      iszero\n      tag_546\n      jumpi\n      returndatasize\n      0x00\n      dup1\n      returndatacopy\n      revert(0x00, returndatasize)\n    tag_546:\n      pop\n      pop\n      pop\n      pop\n      mload(0x40)\n      returndatasize\n      not(0x1f)\n      0x1f\n      dup3\n      add\n      and\n      dup3\n      add\n      dup1\n      0x40\n      mstore\n      pop\n      dup2\n      add\n      swap1\n      tag_547\n      swap2\n      swap1\n      tag_503\n      jump\t// in\n    tag_547:\n      pop\n        /* \"contracts/TimbSwapRouter.sol\":14592:14803  function _wrapAndSend(address pair, uint256 amount) internal {... */\n      pop\n      pop\n      jump\t// out\n        /* \"@openzeppelin/contracts/utils/ReentrancyGuard.sol\":4479:4630  function _reentrancyGuardEntered() internal view returns (bool) {... */\n    tag_453:\n        /* \"@openzeppelin/contracts/utils/ReentrancyGuard.sol\":4537:4541  bool */\n      0x00\n        /* \"@openzeppelin/contracts/utils/ReentrancyGuard.sol\":2407:2408  2 */\n      0x02\n        /* \"@openzeppelin/contracts/utils/ReentrancyGuard.sol\":4560:4606  _reentrancyGuardStorageSlot().getUint256Slot() */\n      tag_549\n        /* \"@openzeppelin/contracts/utils/ReentrancyGuard.sol\":4560:4589  _reentrancyGuardStorageSlot() */\n      tag_550\n        /* \"@openzeppelin/contracts/utils/ReentrancyGuard.sol\":4560:4587  _reentrancyGuardStorageSlot */\n      tag_317\n        /* \"@openzeppelin/contracts/utils/ReentrancyGuard.sol\":4560:4589  _reentrancyGuardStorageSlot() */\n      jump\t// in\n    tag_550:\n        /* \"@openzeppelin/contracts/utils/ReentrancyGuard.sol\":4560:4604  _reentrancyGuardStorageSlot().getUint256Slot */\n      tag_318\n        /* \"@openzeppelin/contracts/utils/ReentrancyGuard.sol\":4560:4606  _reentrancyGuardStorageSlot().getUint256Slot() */\n      jump\t// in\n    tag_549:\n        /* \"@openzeppelin/contracts/utils/ReentrancyGuard.sol\":4560:4612  _reentrancyGuardStorageSlot().getUint256Slot().value */\n      0x00\n      add\n      sload\n        /* \"@openzeppelin/contracts/utils/ReentrancyGuard.sol\":4560:4623  _reentrancyGuardStorageSlot().getUint256Slot().value == ENTERED */\n      eq\n        /* \"@openzeppelin/contracts/utils/ReentrancyGuard.sol\":4553:4623  return _reentrancyGuardStorageSlot().getUint256Slot().value == ENTERED */\n      swap1\n      pop\n        /* \"@openzeppelin/contracts/utils/ReentrancyGuard.sol\":4479:4630  function _reentrancyGuardEntered() internal view returns (bool) {... */\n      swap1\n      jump\t// out\n        /* \"@openzeppelin/contracts/token/ERC20/utils/SafeERC20.sol\":8373:9617  function _safeTransfer(IERC20 token, address to, uint256 value, bool bubble) private returns (bool success) {... */\n    tag_459:\n        /* \"@openzeppelin/contracts/token/ERC20/utils/SafeERC20.sol\":8467:8479  bool success */\n      0x00\n        /* \"@openzeppelin/contracts/token/ERC20/utils/SafeERC20.sol\":8491:8506  bytes4 selector */\n      dup1\n        /* \"@openzeppelin/contracts/token/ERC20/utils/SafeERC20.sol\":8509:8533  IERC20.transfer.selector */\n      shl(0xe0, 0xa9059cbb)\n        /* \"@openzeppelin/contracts/token/ERC20/utils/SafeERC20.sol\":8491:8533  bytes4 selector = IERC20.transfer.selector */\n      swap1\n      pop\n        /* \"@openzeppelin/contracts/token/ERC20/utils/SafeERC20.sol\":8600:8604  0x40 */\n      0x40\n        /* \"@openzeppelin/contracts/token/ERC20/utils/SafeERC20.sol\":8594:8605  mload(0x40) */\n      mload\n        /* \"@openzeppelin/contracts/token/ERC20/utils/SafeERC20.sol\":8631:8639  selector */\n      dup2\n        /* \"@openzeppelin/contracts/token/ERC20/utils/SafeERC20.sol\":8625:8629  0x00 */\n      0x00\n        /* \"@openzeppelin/contracts/token/ERC20/utils/SafeERC20.sol\":8618:8640  mstore(0x00, selector) */\n      mstore\n        /* \"@openzeppelin/contracts/token/ERC20/utils/SafeERC20.sol\":8686:8687  0 */\n      0x00\n        /* \"@openzeppelin/contracts/token/ERC20/utils/SafeERC20.sol\":8682:8688  not(0) */\n      not\n        /* \"@openzeppelin/contracts/token/ERC20/utils/SafeERC20.sol\":8678:8680  96 */\n      0x60\n        /* \"@openzeppelin/contracts/token/ERC20/utils/SafeERC20.sol\":8674:8689  shr(96, not(0)) */\n      shr\n        /* \"@openzeppelin/contracts/token/ERC20/utils/SafeERC20.sol\":8670:8672  to */\n      dup7\n        /* \"@openzeppelin/contracts/token/ERC20/utils/SafeERC20.sol\":8666:8690  and(to, shr(96, not(0))) */\n      and\n        /* \"@openzeppelin/contracts/token/ERC20/utils/SafeERC20.sol\":8660:8664  0x04 */\n      0x04\n        /* \"@openzeppelin/contracts/token/ERC20/utils/SafeERC20.sol\":8653:8691  mstore(0x04, and(to, shr(96, not(0)))) */\n      mstore\n        /* \"@openzeppelin/contracts/token/ERC20/utils/SafeERC20.sol\":8717:8722  value */\n      dup5\n        /* \"@openzeppelin/contracts/token/ERC20/utils/SafeERC20.sol\":8711:8715  0x24 */\n      0x24\n        /* \"@openzeppelin/contracts/token/ERC20/utils/SafeERC20.sol\":8704:8723  mstore(0x24, value) */\n      mstore\n        /* \"@openzeppelin/contracts/token/ERC20/utils/SafeERC20.sol\":8787:8791  0x20 */\n      0x20\n        /* \"@openzeppelin/contracts/token/ERC20/utils/SafeERC20.sol\":8781:8785  0x00 */\n      0x00\n        /* \"@openzeppelin/contracts/token/ERC20/utils/SafeERC20.sol\":8775:8779  0x44 */\n      0x44\n        /* \"@openzeppelin/contracts/token/ERC20/utils/SafeERC20.sol\":8769:8773  0x00 */\n      0x00\n        /* \"@openzeppelin/contracts/token/ERC20/utils/SafeERC20.sol\":8766:8767  0 */\n      dup1\n        /* \"@openzeppelin/contracts/token/ERC20/utils/SafeERC20.sol\":8759:8764  token */\n      dup12\n        /* \"@openzeppelin/contracts/token/ERC20/utils/SafeERC20.sol\":8752:8757  gas() */\n      gas\n        /* \"@openzeppelin/contracts/token/ERC20/utils/SafeERC20.sol\":8747:8792  call(gas(), token, 0, 0x00, 0x44, 0x00, 0x20) */\n      call\n        /* \"@openzeppelin/contracts/token/ERC20/utils/SafeERC20.sol\":8736:8792  success := call(gas(), token, 0, 0x00, 0x44, 0x00, 0x20) */\n      swap3\n      pop\n        /* \"@openzeppelin/contracts/token/ERC20/utils/SafeERC20.sol\":9004:9005  1 */\n      0x01\n        /* \"@openzeppelin/contracts/token/ERC20/utils/SafeERC20.sol\":8997:9001  0x00 */\n      0x00\n        /* \"@openzeppelin/contracts/token/ERC20/utils/SafeERC20.sol\":8991:9002  mload(0x00) */\n      mload\n        /* \"@openzeppelin/contracts/token/ERC20/utils/SafeERC20.sol\":8988:9006  eq(mload(0x00), 1) */\n      eq\n        /* \"@openzeppelin/contracts/token/ERC20/utils/SafeERC20.sol\":8979:8986  success */\n      dup4\n        /* \"@openzeppelin/contracts/token/ERC20/utils/SafeERC20.sol\":8975:9007  and(success, eq(mload(0x00), 1)) */\n      and\n        /* \"@openzeppelin/contracts/token/ERC20/utils/SafeERC20.sol\":8965:9571  if iszero(and(success, eq(mload(0x00), 1))) {... */\n      tag_552\n      jumpi\n        /* \"@openzeppelin/contracts/token/ERC20/utils/SafeERC20.sol\":9136:9142  bubble */\n      dup4\n        /* \"@openzeppelin/contracts/token/ERC20/utils/SafeERC20.sol\":9126:9133  success */\n      dup4\n        /* \"@openzeppelin/contracts/token/ERC20/utils/SafeERC20.sol\":9119:9134  iszero(success) */\n      iszero\n        /* \"@openzeppelin/contracts/token/ERC20/utils/SafeERC20.sol\":9115:9143  and(iszero(success), bubble) */\n      and\n        /* \"@openzeppelin/contracts/token/ERC20/utils/SafeERC20.sol\":9112:9277  if and(iszero(success), bubble) {... */\n      iszero\n      tag_553\n      jumpi\n        /* \"@openzeppelin/contracts/token/ERC20/utils/SafeERC20.sol\":9192:9208  returndatasize() */\n      returndatasize\n        /* \"@openzeppelin/contracts/token/ERC20/utils/SafeERC20.sol\":9186:9190  0x00 */\n      0x00\n        /* \"@openzeppelin/contracts/token/ERC20/utils/SafeERC20.sol\":9181:9184  fmp */\n      dup3\n        /* \"@openzeppelin/contracts/token/ERC20/utils/SafeERC20.sol\":9166:9209  returndatacopy(fmp, 0x00, returndatasize()) */\n      returndatacopy\n        /* \"@openzeppelin/contracts/token/ERC20/utils/SafeERC20.sol\":9242:9258  returndatasize() */\n      returndatasize\n        /* \"@openzeppelin/contracts/token/ERC20/utils/SafeERC20.sol\":9237:9240  fmp */\n      dup2\n        /* \"@openzeppelin/contracts/token/ERC20/utils/SafeERC20.sol\":9230:9259  revert(fmp, returndatasize()) */\n      revert\n        /* \"@openzeppelin/contracts/token/ERC20/utils/SafeERC20.sol\":9112:9277  if and(iszero(success), bubble) {... */\n    tag_553:\n        /* \"@openzeppelin/contracts/token/ERC20/utils/SafeERC20.sol\":9553:9554  0 */\n      0x00\n        /* \"@openzeppelin/contracts/token/ERC20/utils/SafeERC20.sol\":9545:9550  token */\n      dup8\n        /* \"@openzeppelin/contracts/token/ERC20/utils/SafeERC20.sol\":9533:9551  extcodesize(token) */\n      extcodesize\n        /* \"@openzeppelin/contracts/token/ERC20/utils/SafeERC20.sol\":9530:9555  gt(extcodesize(token), 0) */\n      gt\n        /* \"@openzeppelin/contracts/token/ERC20/utils/SafeERC20.sol\":9511:9527  returndatasize() */\n      returndatasize\n        /* \"@openzeppelin/contracts/token/ERC20/utils/SafeERC20.sol\":9504:9528  iszero(returndatasize()) */\n      iszero\n        /* \"@openzeppelin/contracts/token/ERC20/utils/SafeERC20.sol\":9500:9556  and(iszero(returndatasize()), gt(extcodesize(token), 0)) */\n      and\n        /* \"@openzeppelin/contracts/token/ERC20/utils/SafeERC20.sol\":9491:9498  success */\n      dup4\n        /* \"@openzeppelin/contracts/token/ERC20/utils/SafeERC20.sol\":9487:9557  and(success, and(iszero(returndatasize()), gt(extcodesize(token), 0))) */\n      and\n        /* \"@openzeppelin/contracts/token/ERC20/utils/SafeERC20.sol\":9476:9557  success := and(success, and(iszero(returndatasize()), gt(extcodesize(token), 0))) */\n      swap3\n      pop\n        /* \"@openzeppelin/contracts/token/ERC20/utils/SafeERC20.sol\":8965:9571  if iszero(and(success, eq(mload(0x00), 1))) {... */\n    tag_552:\n        /* \"@openzeppelin/contracts/token/ERC20/utils/SafeERC20.sol\":9597:9600  fmp */\n      dup1\n        /* \"@openzeppelin/contracts/token/ERC20/utils/SafeERC20.sol\":9591:9595  0x40 */\n      0x40\n        /* \"@openzeppelin/contracts/token/ERC20/utils/SafeERC20.sol\":9584:9601  mstore(0x40, fmp) */\n      mstore\n        /* \"@openzeppelin/contracts/token/ERC20/utils/SafeERC20.sol\":8569:9611  {... */\n      pop\n      pop\n        /* \"@openzeppelin/contracts/token/ERC20/utils/SafeERC20.sol\":8373:9617  function _safeTransfer(IERC20 token, address to, uint256 value, bool bubble) private returns (bool success) {... */\n      swap5\n      swap4\n      pop\n      pop\n      pop\n      pop\n      jump\t// out\n        /* \"@openzeppelin/contracts/token/ERC20/utils/SafeERC20.sol\":10165:11558  function _safeTransferFrom(... */\n    tag_475:\n        /* \"@openzeppelin/contracts/token/ERC20/utils/SafeERC20.sol\":10323:10335  bool success */\n      0x00\n        /* \"@openzeppelin/contracts/token/ERC20/utils/SafeERC20.sol\":10347:10362  bytes4 selector */\n      dup1\n        /* \"@openzeppelin/contracts/token/ERC20/utils/SafeERC20.sol\":10365:10393  IERC20.transferFrom.selector */\n      shl(0xe0, 0x23b872dd)\n        /* \"@openzeppelin/contracts/token/ERC20/utils/SafeERC20.sol\":10347:10393  bytes4 selector = IERC20.transferFrom.selector */\n      swap1\n      pop\n        /* \"@openzeppelin/contracts/token/ERC20/utils/SafeERC20.sol\":10460:10464  0x40 */\n      0x40\n        /* \"@openzeppelin/contracts/token/ERC20/utils/SafeERC20.sol\":10454:10465  mload(0x40) */\n      mload\n        /* \"@openzeppelin/contracts/token/ERC20/utils/SafeERC20.sol\":10491:10499  selector */\n      dup2\n        /* \"@openzeppelin/contracts/token/ERC20/utils/SafeERC20.sol\":10485:10489  0x00 */\n      0x00\n        /* \"@openzeppelin/contracts/token/ERC20/utils/SafeERC20.sol\":10478:10500  mstore(0x00, selector) */\n      mstore\n        /* \"@openzeppelin/contracts/token/ERC20/utils/SafeERC20.sol\":10548:10549  0 */\n      0x00\n        /* \"@openzeppelin/contracts/token/ERC20/utils/SafeERC20.sol\":10544:10550  not(0) */\n      not\n        /* \"@openzeppelin/contracts/token/ERC20/utils/SafeERC20.sol\":10540:10542  96 */\n      0x60\n        /* \"@openzeppelin/contracts/token/ERC20/utils/SafeERC20.sol\":10536:10551  shr(96, not(0)) */\n      shr\n        /* \"@openzeppelin/contracts/token/ERC20/utils/SafeERC20.sol\":10530:10534  from */\n      dup8\n        /* \"@openzeppelin/contracts/token/ERC20/utils/SafeERC20.sol\":10526:10552  and(from, shr(96, not(0))) */\n      and\n        /* \"@openzeppelin/contracts/token/ERC20/utils/SafeERC20.sol\":10520:10524  0x04 */\n      0x04\n        /* \"@openzeppelin/contracts/token/ERC20/utils/SafeERC20.sol\":10513:10553  mstore(0x04, and(from, shr(96, not(0)))) */\n      mstore\n        /* \"@openzeppelin/contracts/token/ERC20/utils/SafeERC20.sol\":10599:10600  0 */\n      0x00\n        /* \"@openzeppelin/contracts/token/ERC20/utils/SafeERC20.sol\":10595:10601  not(0) */\n      not\n        /* \"@openzeppelin/contracts/token/ERC20/utils/SafeERC20.sol\":10591:10593  96 */\n      0x60\n        /* \"@openzeppelin/contracts/token/ERC20/utils/SafeERC20.sol\":10587:10602  shr(96, not(0)) */\n      shr\n        /* \"@openzeppelin/contracts/token/ERC20/utils/SafeERC20.sol\":10583:10585  to */\n      dup7\n        /* \"@openzeppelin/contracts/token/ERC20/utils/SafeERC20.sol\":10579:10603  and(to, shr(96, not(0))) */\n      and\n        /* \"@openzeppelin/contracts/token/ERC20/utils/SafeERC20.sol\":10573:10577  0x24 */\n      0x24\n        /* \"@openzeppelin/contracts/token/ERC20/utils/SafeERC20.sol\":10566:10604  mstore(0x24, and(to, shr(96, not(0)))) */\n      mstore\n        /* \"@openzeppelin/contracts/token/ERC20/utils/SafeERC20.sol\":10630:10635  value */\n      dup5\n        /* \"@openzeppelin/contracts/token/ERC20/utils/SafeERC20.sol\":10624:10628  0x44 */\n      0x44\n        /* \"@openzeppelin/contracts/token/ERC20/utils/SafeERC20.sol\":10617:10636  mstore(0x44, value) */\n      mstore\n        /* \"@openzeppelin/contracts/token/ERC20/utils/SafeERC20.sol\":10700:10704  0x20 */\n      0x20\n        /* \"@openzeppelin/contracts/token/ERC20/utils/SafeERC20.sol\":10694:10698  0x00 */\n      0x00\n        /* \"@openzeppelin/contracts/token/ERC20/utils/SafeERC20.sol\":10688:10692  0x64 */\n      0x64\n        /* \"@openzeppelin/contracts/token/ERC20/utils/SafeERC20.sol\":10682:10686  0x00 */\n      0x00\n        /* \"@openzeppelin/contracts/token/ERC20/utils/SafeERC20.sol\":10679:10680  0 */\n      dup1\n        /* \"@openzeppelin/contracts/token/ERC20/utils/SafeERC20.sol\":10672:10677  token */\n      dup13\n        /* \"@openzeppelin/contracts/token/ERC20/utils/SafeERC20.sol\":10665:10670  gas() */\n      gas\n        /* \"@openzeppelin/contracts/token/ERC20/utils/SafeERC20.sol\":10660:10705  call(gas(), token, 0, 0x00, 0x64, 0x00, 0x20) */\n      call\n        /* \"@openzeppelin/contracts/token/ERC20/utils/SafeERC20.sol\":10649:10705  success := call(gas(), token, 0, 0x00, 0x64, 0x00, 0x20) */\n      swap3\n      pop\n        /* \"@openzeppelin/contracts/token/ERC20/utils/SafeERC20.sol\":10917:10918  1 */\n      0x01\n        /* \"@openzeppelin/contracts/token/ERC20/utils/SafeERC20.sol\":10910:10914  0x00 */\n      0x00\n        /* \"@openzeppelin/contracts/token/ERC20/utils/SafeERC20.sol\":10904:10915  mload(0x00) */\n      mload\n        /* \"@openzeppelin/contracts/token/ERC20/utils/SafeERC20.sol\":10901:10919  eq(mload(0x00), 1) */\n      eq\n        /* \"@openzeppelin/contracts/token/ERC20/utils/SafeERC20.sol\":10892:10899  success */\n      dup4\n        /* \"@openzeppelin/contracts/token/ERC20/utils/SafeERC20.sol\":10888:10920  and(success, eq(mload(0x00), 1)) */\n      and\n        /* \"@openzeppelin/contracts/token/ERC20/utils/SafeERC20.sol\":10878:11484  if iszero(and(success, eq(mload(0x00), 1))) {... */\n      tag_555\n      jumpi\n        /* \"@openzeppelin/contracts/token/ERC20/utils/SafeERC20.sol\":11049:11055  bubble */\n      dup4\n        /* \"@openzeppelin/contracts/token/ERC20/utils/SafeERC20.sol\":11039:11046  success */\n      dup4\n        /* \"@openzeppelin/contracts/token/ERC20/utils/SafeERC20.sol\":11032:11047  iszero(success) */\n      iszero\n        /* \"@openzeppelin/contracts/token/ERC20/utils/SafeERC20.sol\":11028:11056  and(iszero(success), bubble) */\n      and\n        /* \"@openzeppelin/contracts/token/ERC20/utils/SafeERC20.sol\":11025:11190  if and(iszero(success), bubble) {... */\n      iszero\n      tag_556\n      jumpi\n        /* \"@openzeppelin/contracts/token/ERC20/utils/SafeERC20.sol\":11105:11121  returndatasize() */\n      returndatasize\n        /* \"@openzeppelin/contracts/token/ERC20/utils/SafeERC20.sol\":11099:11103  0x00 */\n      0x00\n        /* \"@openzeppelin/contracts/token/ERC20/utils/SafeERC20.sol\":11094:11097  fmp */\n      dup3\n        /* \"@openzeppelin/contracts/token/ERC20/utils/SafeERC20.sol\":11079:11122  returndatacopy(fmp, 0x00, returndatasize()) */\n      returndatacopy\n        /* \"@openzeppelin/contracts/token/ERC20/utils/SafeERC20.sol\":11155:11171  returndatasize() */\n      returndatasize\n        /* \"@openzeppelin/contracts/token/ERC20/utils/SafeERC20.sol\":11150:11153  fmp */\n      dup2\n        /* \"@openzeppelin/contracts/token/ERC20/utils/SafeERC20.sol\":11143:11172  revert(fmp, returndatasize()) */\n      revert\n        /* \"@openzeppelin/contracts/token/ERC20/utils/SafeERC20.sol\":11025:11190  if and(iszero(success), bubble) {... */\n    tag_556:\n        /* \"@openzeppelin/contracts/token/ERC20/utils/SafeERC20.sol\":11466:11467  0 */\n      0x00\n        /* \"@openzeppelin/contracts/token/ERC20/utils/SafeERC20.sol\":11458:11463  token */\n      dup9\n        /* \"@openzeppelin/contracts/token/ERC20/utils/SafeERC20.sol\":11446:11464  extcodesize(token) */\n      extcodesize\n        /* \"@openzeppelin/contracts/token/ERC20/utils/SafeERC20.sol\":11443:11468  gt(extcodesize(token), 0) */\n      gt\n        /* \"@openzeppelin/contracts/token/ERC20/utils/SafeERC20.sol\":11424:11440  returndatasize() */\n      returndatasize\n        /* \"@openzeppelin/contracts/token/ERC20/utils/SafeERC20.sol\":11417:11441  iszero(returndatasize()) */\n      iszero\n        /* \"@openzeppelin/contracts/token/ERC20/utils/SafeERC20.sol\":11413:11469  and(iszero(returndatasize()), gt(extcodesize(token), 0)) */\n      and\n        /* \"@openzeppelin/contracts/token/ERC20/utils/SafeERC20.sol\":11404:11411  success */\n      dup4\n        /* \"@openzeppelin/contracts/token/ERC20/utils/SafeERC20.sol\":11400:11470  and(success, and(iszero(returndatasize()), gt(extcodesize(token), 0))) */\n      and\n        /* \"@openzeppelin/contracts/token/ERC20/utils/SafeERC20.sol\":11389:11470  success := and(success, and(iszero(returndatasize()), gt(extcodesize(token), 0))) */\n      swap3\n      pop\n        /* \"@openzeppelin/contracts/token/ERC20/utils/SafeERC20.sol\":10878:11484  if iszero(and(success, eq(mload(0x00), 1))) {... */\n    tag_555:\n        /* \"@openzeppelin/contracts/token/ERC20/utils/SafeERC20.sol\":11510:11513  fmp */\n      dup1\n        /* \"@openzeppelin/contracts/token/ERC20/utils/SafeERC20.sol\":11504:11508  0x40 */\n      0x40\n        /* \"@openzeppelin/contracts/token/ERC20/utils/SafeERC20.sol\":11497:11514  mstore(0x40, fmp) */\n      mstore\n        /* \"@openzeppelin/contracts/token/ERC20/utils/SafeERC20.sol\":11540:11541  0 */\n      0x00\n        /* \"@openzeppelin/contracts/token/ERC20/utils/SafeERC20.sol\":11534:11538  0x60 */\n      0x60\n        /* \"@openzeppelin/contracts/token/ERC20/utils/SafeERC20.sol\":11527:11542  mstore(0x60, 0) */\n      mstore\n        /* \"@openzeppelin/contracts/token/ERC20/utils/SafeERC20.sol\":10429:11552  {... */\n      pop\n      pop\n        /* \"@openzeppelin/contracts/token/ERC20/utils/SafeERC20.sol\":10165:11558  function _safeTransferFrom(... */\n      swap6\n      swap5\n      pop\n      pop\n      pop\n      pop\n      pop\n      jump\t// out\n    tag_413:\n      mload(0x40)\n      dup1\n      0x60\n      add\n      0x40\n      mstore\n      dup1\n      and(0xffffffffffffffffffffffffffffffffffffffff, 0x00)\n      dup2\n      mstore\n      0x20\n      add\n      0x00\n      dup2\n      mstore\n      0x20\n      add\n      0x00\n      dup2\n      mstore\n      pop\n      swap1\n      jump\t// out\n        /* \"#utility.yul\":88:205   */\n    tag_558:\n        /* \"#utility.yul\":197:198   */\n      0x00\n        /* \"#utility.yul\":194:195   */\n      dup1\n        /* \"#utility.yul\":187:199   */\n      revert\n        /* \"#utility.yul\":334:460   */\n    tag_560:\n        /* \"#utility.yul\":371:378   */\n      0x00\n        /* \"#utility.yul\":411:453   */\n      0xffffffffffffffffffffffffffffffffffffffff\n        /* \"#utility.yul\":404:409   */\n      dup3\n        /* \"#utility.yul\":400:454   */\n      and\n        /* \"#utility.yul\":389:454   */\n      swap1\n      pop\n        /* \"#utility.yul\":334:460   */\n      swap2\n      swap1\n      pop\n      jump\t// out\n        /* \"#utility.yul\":466:562   */\n    tag_561:\n        /* \"#utility.yul\":503:510   */\n      0x00\n        /* \"#utility.yul\":532:556   */\n      tag_593\n        /* \"#utility.yul\":550:555   */\n      dup3\n        /* \"#utility.yul\":532:556   */\n      tag_560\n      jump\t// in\n    tag_593:\n        /* \"#utility.yul\":521:556   */\n      swap1\n      pop\n        /* \"#utility.yul\":466:562   */\n      swap2\n      swap1\n      pop\n      jump\t// out\n        /* \"#utility.yul\":568:690   */\n    tag_562:\n        /* \"#utility.yul\":641:665   */\n      tag_595\n        /* \"#utility.yul\":659:664   */\n      dup2\n        /* \"#utility.yul\":641:665   */\n      tag_561\n      jump\t// in\n    tag_595:\n        /* \"#utility.yul\":634:639   */\n      dup2\n        /* \"#utility.yul\":631:666   */\n      eq\n        /* \"#utility.yul\":621:684   */\n      tag_596\n      jumpi\n        /* \"#utility.yul\":680:681   */\n      0x00\n        /* \"#utility.yul\":677:678   */\n      dup1\n        /* \"#utility.yul\":670:682   */\n      revert\n        /* \"#utility.yul\":621:684   */\n    tag_596:\n        /* \"#utility.yul\":568:690   */\n      pop\n      jump\t// out\n        /* \"#utility.yul\":696:835   */\n    tag_563:\n        /* \"#utility.yul\":742:747   */\n      0x00\n        /* \"#utility.yul\":780:786   */\n      dup2\n        /* \"#utility.yul\":767:787   */\n      calldataload\n        /* \"#utility.yul\":758:787   */\n      swap1\n      pop\n        /* \"#utility.yul\":796:829   */\n      tag_598\n        /* \"#utility.yul\":823:828   */\n      dup2\n        /* \"#utility.yul\":796:829   */\n      tag_562\n      jump\t// in\n    tag_598:\n        /* \"#utility.yul\":696:835   */\n      swap3\n      swap2\n      pop\n      pop\n      jump\t// out\n        /* \"#utility.yul\":841:918   */\n    tag_564:\n        /* \"#utility.yul\":878:885   */\n      0x00\n        /* \"#utility.yul\":907:912   */\n      dup2\n        /* \"#utility.yul\":896:912   */\n      swap1\n      pop\n        /* \"#utility.yul\":841:918   */\n      swap2\n      swap1\n      pop\n      jump\t// out\n        /* \"#utility.yul\":924:1046   */\n    tag_565:\n        /* \"#utility.yul\":997:1021   */\n      tag_601\n        /* \"#utility.yul\":1015:1020   */\n      dup2\n        /* \"#utility.yul\":997:1021   */\n      tag_564\n      jump\t// in\n    tag_601:\n        /* \"#utility.yul\":990:995   */\n      dup2\n        /* \"#utility.yul\":987:1022   */\n      eq\n        /* \"#utility.yul\":977:1040   */\n      tag_602\n      jumpi\n        /* \"#utility.yul\":1036:1037   */\n      0x00\n        /* \"#utility.yul\":1033:1034   */\n      dup1\n        /* \"#utility.yul\":1026:1038   */\n      revert\n        /* \"#utility.yul\":977:1040   */\n    tag_602:\n        /* \"#utility.yul\":924:1046   */\n      pop\n      jump\t// out\n        /* \"#utility.yul\":1052:1191   */\n    tag_566:\n        /* \"#utility.yul\":1098:1103   */\n      0x00\n        /* \"#utility.yul\":1136:1142   */\n      dup2\n        /* \"#utility.yul\":1123:1143   */\n      calldataload\n        /* \"#utility.yul\":1114:1143   */\n      swap1\n      pop\n        /* \"#utility.yul\":1152:1185   */\n      tag_604\n        /* \"#utility.yul\":1179:1184   */\n      dup2\n        /* \"#utility.yul\":1152:1185   */\n      tag_565\n      jump\t// in\n    tag_604:\n        /* \"#utility.yul\":1052:1191   */\n      swap3\n      swap2\n      pop\n      pop\n      jump\t// out\n        /* \"#utility.yul\":1197:2254   */\n    tag_41:\n        /* \"#utility.yul\":1301:1307   */\n      0x00\n        /* \"#utility.yul\":1309:1315   */\n      dup1\n        /* \"#utility.yul\":1317:1323   */\n      0x00\n        /* \"#utility.yul\":1325:1331   */\n      dup1\n        /* \"#utility.yul\":1333:1339   */\n      0x00\n        /* \"#utility.yul\":1341:1347   */\n      dup1\n        /* \"#utility.yul\":1390:1393   */\n      0xc0\n        /* \"#utility.yul\":1378:1387   */\n      dup8\n        /* \"#utility.yul\":1369:1376   */\n      dup10\n        /* \"#utility.yul\":1365:1388   */\n      sub\n        /* \"#utility.yul\":1361:1394   */\n      slt\n        /* \"#utility.yul\":1358:1478   */\n      iszero\n      tag_606\n      jumpi\n        /* \"#utility.yul\":1397:1476   */\n      tag_607\n      tag_558\n      jump\t// in\n    tag_607:\n        /* \"#utility.yul\":1358:1478   */\n    tag_606:\n        /* \"#utility.yul\":1517:1518   */\n      0x00\n        /* \"#utility.yul\":1542:1595   */\n      tag_608\n        /* \"#utility.yul\":1587:1594   */\n      dup10\n        /* \"#utility.yul\":1578:1584   */\n      dup3\n        /* \"#utility.yul\":1567:1576   */\n      dup11\n        /* \"#utility.yul\":1563:1585   */\n      add\n        /* \"#utility.yul\":1542:1595   */\n      tag_563\n      jump\t// in\n    tag_608:\n        /* \"#utility.yul\":1532:1595   */\n      swap7\n      pop\n        /* \"#utility.yul\":1488:1605   */\n      pop\n        /* \"#utility.yul\":1644:1646   */\n      0x20\n        /* \"#utility.yul\":1670:1723   */\n      tag_609\n        /* \"#utility.yul\":1715:1722   */\n      dup10\n        /* \"#utility.yul\":1706:1712   */\n      dup3\n        /* \"#utility.yul\":1695:1704   */\n      dup11\n        /* \"#utility.yul\":1691:1713   */\n      add\n        /* \"#utility.yul\":1670:1723   */\n      tag_566\n      jump\t// in\n    tag_609:\n        /* \"#utility.yul\":1660:1723   */\n      swap6\n      pop\n        /* \"#utility.yul\":1615:1733   */\n      pop\n        /* \"#utility.yul\":1772:1774   */\n      0x40\n        /* \"#utility.yul\":1798:1851   */\n      tag_610\n        /* \"#utility.yul\":1843:1850   */\n      dup10\n        /* \"#utility.yul\":1834:1840   */\n      dup3\n        /* \"#utility.yul\":1823:1832   */\n      dup11\n        /* \"#utility.yul\":1819:1841   */\n      add\n        /* \"#utility.yul\":1798:1851   */\n      tag_566\n      jump\t// in\n    tag_610:\n        /* \"#utility.yul\":1788:1851   */\n      swap5\n      pop\n        /* \"#utility.yul\":1743:1861   */\n      pop\n        /* \"#utility.yul\":1900:1902   */\n      0x60\n        /* \"#utility.yul\":1926:1979   */\n      tag_611\n        /* \"#utility.yul\":1971:1978   */\n      dup10\n        /* \"#utility.yul\":1962:1968   */\n      dup3\n        /* \"#utility.yul\":1951:1960   */\n      dup11\n        /* \"#utility.yul\":1947:1969   */\n      add\n        /* \"#utility.yul\":1926:1979   */\n      tag_566\n      jump\t// in\n    tag_611:\n        /* \"#utility.yul\":1916:1979   */\n      swap4\n      pop\n        /* \"#utility.yul\":1871:1989   */\n      pop\n        /* \"#utility.yul\":2028:2031   */\n      0x80\n        /* \"#utility.yul\":2055:2108   */\n      tag_612\n        /* \"#utility.yul\":2100:2107   */\n      dup10\n        /* \"#utility.yul\":2091:2097   */\n      dup3\n        /* \"#utility.yul\":2080:2089   */\n      dup11\n        /* \"#utility.yul\":2076:2098   */\n      add\n        /* \"#utility.yul\":2055:2108   */\n      tag_563\n      jump\t// in\n    tag_612:\n        /* \"#utility.yul\":2045:2108   */\n      swap3\n      pop\n        /* \"#utility.yul\":1999:2118   */\n      pop\n        /* \"#utility.yul\":2157:2160   */\n      0xa0\n        /* \"#utility.yul\":2184:2237   */\n      tag_613\n        /* \"#utility.yul\":2229:2236   */\n      dup10\n        /* \"#utility.yul\":2220:2226   */\n      dup3\n        /* \"#utility.yul\":2209:2218   */\n      dup11\n        /* \"#utility.yul\":2205:2227   */\n      add\n        /* \"#utility.yul\":2184:2237   */\n      tag_566\n      jump\t// in\n    tag_613:\n        /* \"#utility.yul\":2174:2237   */\n      swap2\n      pop\n        /* \"#utility.yul\":2128:2247   */\n      pop\n        /* \"#utility.yul\":1197:2254   */\n      swap3\n      swap6\n      pop\n      swap3\n      swap6\n      pop\n      swap3\n      swap6\n      jump\t// out\n        /* \"#utility.yul\":2260:2378   */\n    tag_567:\n        /* \"#utility.yul\":2347:2371   */\n      tag_615\n        /* \"#utility.yul\":2365:2370   */\n      dup2\n        /* \"#utility.yul\":2347:2371   */\n      tag_564\n      jump\t// in\n    tag_615:\n        /* \"#utility.yul\":2342:2345   */\n      dup3\n        /* \"#utility.yul\":2335:2372   */\n      mstore\n        /* \"#utility.yul\":2260:2378   */\n      pop\n      pop\n      jump\t// out\n        /* \"#utility.yul\":2384:2716   */\n    tag_44:\n        /* \"#utility.yul\":2505:2509   */\n      0x00\n        /* \"#utility.yul\":2543:2545   */\n      0x40\n        /* \"#utility.yul\":2532:2541   */\n      dup3\n        /* \"#utility.yul\":2528:2546   */\n      add\n        /* \"#utility.yul\":2520:2546   */\n      swap1\n      pop\n        /* \"#utility.yul\":2556:2627   */\n      tag_617\n        /* \"#utility.yul\":2624:2625   */\n      0x00\n        /* \"#utility.yul\":2613:2622   */\n      dup4\n        /* \"#utility.yul\":2609:2626   */\n      add\n        /* \"#utility.yul\":2600:2606   */\n      dup6\n        /* \"#utility.yul\":2556:2627   */\n      tag_567\n      jump\t// in\n    tag_617:\n        /* \"#utility.yul\":2637:2709   */\n      tag_618\n        /* \"#utility.yul\":2705:2707   */\n      0x20\n        /* \"#utility.yul\":2694:2703   */\n      dup4\n        /* \"#utility.yul\":2690:2708   */\n      add\n        /* \"#utility.yul\":2681:2687   */\n      dup5\n        /* \"#utility.yul\":2637:2709   */\n      tag_567\n      jump\t// in\n    tag_618:\n        /* \"#utility.yul\":2384:2716   */\n      swap4\n      swap3\n      pop\n      pop\n      pop\n      jump\t// out\n        /* \"#utility.yul\":2722:3341   */\n    tag_48:\n        /* \"#utility.yul\":2799:2805   */\n      0x00\n        /* \"#utility.yul\":2807:2813   */\n      dup1\n        /* \"#utility.yul\":2815:2821   */\n      0x00\n        /* \"#utility.yul\":2864:2866   */\n      0x60\n        /* \"#utility.yul\":2852:2861   */\n      dup5\n        /* \"#utility.yul\":2843:2850   */\n      dup7\n        /* \"#utility.yul\":2839:2862   */\n      sub\n        /* \"#utility.yul\":2835:2867   */\n      slt\n        /* \"#utility.yul\":2832:2951   */\n      iszero\n      tag_620\n      jumpi\n        /* \"#utility.yul\":2870:2949   */\n      tag_621\n      tag_558\n      jump\t// in\n    tag_621:\n        /* \"#utility.yul\":2832:2951   */\n    tag_620:\n        /* \"#utility.yul\":2990:2991   */\n      0x00\n        /* \"#utility.yul\":3015:3068   */\n      tag_622\n        /* \"#utility.yul\":3060:3067   */\n      dup7\n        /* \"#utility.yul\":3051:3057   */\n      dup3\n        /* \"#utility.yul\":3040:3049   */\n      dup8\n        /* \"#utility.yul\":3036:3058   */\n      add\n        /* \"#utility.yul\":3015:3068   */\n      tag_566\n      jump\t// in\n    tag_622:\n        /* \"#utility.yul\":3005:3068   */\n      swap4\n      pop\n        /* \"#utility.yul\":2961:3078   */\n      pop\n        /* \"#utility.yul\":3117:3119   */\n      0x20\n        /* \"#utility.yul\":3143:3196   */\n      tag_623\n        /* \"#utility.yul\":3188:3195   */\n      dup7\n        /* \"#utility.yul\":3179:3185   */\n      dup3\n        /* \"#utility.yul\":3168:3177   */\n      dup8\n        /* \"#utility.yul\":3164:3186   */\n      add\n        /* \"#utility.yul\":3143:3196   */\n      tag_566\n      jump\t// in\n    tag_623:\n        /* \"#utility.yul\":3133:3196   */\n      swap3\n      pop\n        /* \"#utility.yul\":3088:3206   */\n      pop\n        /* \"#utility.yul\":3245:3247   */\n      0x40\n        /* \"#utility.yul\":3271:3324   */\n      tag_624\n        /* \"#utility.yul\":3316:3323   */\n      dup7\n        /* \"#utility.yul\":3307:3313   */\n      dup3\n        /* \"#utility.yul\":3296:3305   */\n      dup8\n        /* \"#utility.yul\":3292:3314   */\n      add\n        /* \"#utility.yul\":3271:3324   */\n      tag_566\n      jump\t// in\n    tag_624:\n        /* \"#utility.yul\":3261:3324   */\n      swap2\n      pop\n        /* \"#utility.yul\":3216:3334   */\n      pop\n        /* \"#utility.yul\":2722:3341   */\n      swap3\n      pop\n      swap3\n      pop\n      swap3\n      jump\t// out\n        /* \"#utility.yul\":3347:3569   */\n    tag_51:\n        /* \"#utility.yul\":3440:3444   */\n      0x00\n        /* \"#utility.yul\":3478:3480   */\n      0x20\n        /* \"#utility.yul\":3467:3476   */\n      dup3\n        /* \"#utility.yul\":3463:3481   */\n      add\n        /* \"#utility.yul\":3455:3481   */\n      swap1\n      pop\n        /* \"#utility.yul\":3491:3562   */\n      tag_626\n        /* \"#utility.yul\":3559:3560   */\n      0x00\n        /* \"#utility.yul\":3548:3557   */\n      dup4\n        /* \"#utility.yul\":3544:3561   */\n      add\n        /* \"#utility.yul\":3535:3541   */\n      dup5\n        /* \"#utility.yul\":3491:3562   */\n      tag_567\n      jump\t// in\n    tag_626:\n        /* \"#utility.yul\":3347:3569   */\n      swap3\n      swap2\n      pop\n      pop\n      jump\t// out\n        /* \"#utility.yul\":3575:3904   */\n    tag_55:\n        /* \"#utility.yul\":3634:3640   */\n      0x00\n        /* \"#utility.yul\":3683:3685   */\n      0x20\n        /* \"#utility.yul\":3671:3680   */\n      dup3\n        /* \"#utility.yul\":3662:3669   */\n      dup5\n        /* \"#utility.yul\":3658:3681   */\n      sub\n        /* \"#utility.yul\":3654:3686   */\n      slt\n        /* \"#utility.yul\":3651:3770   */\n      iszero\n      tag_628\n      jumpi\n        /* \"#utility.yul\":3689:3768   */\n      tag_629\n      tag_558\n      jump\t// in\n    tag_629:\n        /* \"#utility.yul\":3651:3770   */\n    tag_628:\n        /* \"#utility.yul\":3809:3810   */\n      0x00\n        /* \"#utility.yul\":3834:3887   */\n      tag_630\n        /* \"#utility.yul\":3879:3886   */\n      dup5\n        /* \"#utility.yul\":3870:3876   */\n      dup3\n        /* \"#utility.yul\":3859:3868   */\n      dup6\n        /* \"#utility.yul\":3855:3877   */\n      add\n        /* \"#utility.yul\":3834:3887   */\n      tag_563\n      jump\t// in\n    tag_630:\n        /* \"#utility.yul\":3824:3887   */\n      swap2\n      pop\n        /* \"#utility.yul\":3780:3897   */\n      pop\n        /* \"#utility.yul\":3575:3904   */\n      swap3\n      swap2\n      pop\n      pop\n      jump\t// out\n        /* \"#utility.yul\":3910:4000   */\n    tag_568:\n        /* \"#utility.yul\":3944:3951   */\n      0x00\n        /* \"#utility.yul\":3987:3992   */\n      dup2\n        /* \"#utility.yul\":3980:3993   */\n      iszero\n        /* \"#utility.yul\":3973:3994   */\n      iszero\n        /* \"#utility.yul\":3962:3994   */\n      swap1\n      pop\n        /* \"#utility.yul\":3910:4000   */\n      swap2\n      swap1\n      pop\n      jump\t// out\n        /* \"#utility.yul\":4006:4122   */\n    tag_569:\n        /* \"#utility.yul\":4076:4097   */\n      tag_633\n        /* \"#utility.yul\":4091:4096   */\n      dup2\n        /* \"#utility.yul\":4076:4097   */\n      tag_568\n      jump\t// in\n    tag_633:\n        /* \"#utility.yul\":4069:4074   */\n      dup2\n        /* \"#utility.yul\":4066:4098   */\n      eq\n        /* \"#utility.yul\":4056:4116   */\n      tag_634\n      jumpi\n        /* \"#utility.yul\":4112:4113   */\n      0x00\n        /* \"#utility.yul\":4109:4110   */\n      dup1\n        /* \"#utility.yul\":4102:4114   */\n      revert\n        /* \"#utility.yul\":4056:4116   */\n    tag_634:\n        /* \"#utility.yul\":4006:4122   */\n      pop\n      jump\t// out\n        /* \"#utility.yul\":4128:4261   */\n    tag_570:\n        /* \"#utility.yul\":4171:4176   */\n      0x00\n        /* \"#utility.yul\":4209:4215   */\n      dup2\n        /* \"#utility.yul\":4196:4216   */\n      calldataload\n        /* \"#utility.yul\":4187:4216   */\n      swap1\n      pop\n        /* \"#utility.yul\":4225:4255   */\n      tag_636\n        /* \"#utility.yul\":4249:4254   */\n      dup2\n        /* \"#utility.yul\":4225:4255   */\n      tag_569\n      jump\t// in\n    tag_636:\n        /* \"#utility.yul\":4128:4261   */\n      swap3\n      swap2\n      pop\n      pop\n      jump\t// out\n        /* \"#utility.yul\":4267:5464   */\n    tag_60:\n        /* \"#utility.yul\":4377:4383   */\n      0x00\n        /* \"#utility.yul\":4385:4391   */\n      dup1\n        /* \"#utility.yul\":4393:4399   */\n      0x00\n        /* \"#utility.yul\":4401:4407   */\n      dup1\n        /* \"#utility.yul\":4409:4415   */\n      0x00\n        /* \"#utility.yul\":4417:4423   */\n      dup1\n        /* \"#utility.yul\":4425:4431   */\n      0x00\n        /* \"#utility.yul\":4474:4477   */\n      0xe0\n        /* \"#utility.yul\":4462:4471   */\n      dup9\n        /* \"#utility.yul\":4453:4460   */\n      dup11\n        /* \"#utility.yul\":4449:4472   */\n      sub\n        /* \"#utility.yul\":4445:4478   */\n      slt\n        /* \"#utility.yul\":4442:4562   */\n      iszero\n      tag_638\n      jumpi\n        /* \"#utility.yul\":4481:4560   */\n      tag_639\n      tag_558\n      jump\t// in\n    tag_639:\n        /* \"#utility.yul\":4442:4562   */\n    tag_638:\n        /* \"#utility.yul\":4601:4602   */\n      0x00\n        /* \"#utility.yul\":4626:4679   */\n      tag_640\n        /* \"#utility.yul\":4671:4678   */\n      dup11\n        /* \"#utility.yul\":4662:4668   */\n      dup3\n        /* \"#utility.yul\":4651:4660   */\n      dup12\n        /* \"#utility.yul\":4647:4669   */\n      add\n        /* \"#utility.yul\":4626:4679   */\n      tag_566\n      jump\t// in\n    tag_640:\n        /* \"#utility.yul\":4616:4679   */\n      swap8\n      pop\n        /* \"#utility.yul\":4572:4689   */\n      pop\n        /* \"#utility.yul\":4728:4730   */\n      0x20\n        /* \"#utility.yul\":4754:4807   */\n      tag_641\n        /* \"#utility.yul\":4799:4806   */\n      dup11\n        /* \"#utility.yul\":4790:4796   */\n      dup3\n        /* \"#utility.yul\":4779:4788   */\n      dup12\n        /* \"#utility.yul\":4775:4797   */\n      add\n        /* \"#utility.yul\":4754:4807   */\n      tag_566\n      jump\t// in\n    tag_641:\n        /* \"#utility.yul\":4744:4807   */\n      swap7\n      pop\n        /* \"#utility.yul\":4699:4817   */\n      pop\n        /* \"#utility.yul\":4856:4858   */\n      0x40\n        /* \"#utility.yul\":4882:4935   */\n      tag_642\n        /* \"#utility.yul\":4927:4934   */\n      dup11\n        /* \"#utility.yul\":4918:4924   */\n      dup3\n        /* \"#utility.yul\":4907:4916   */\n      dup12\n        /* \"#utility.yul\":4903:4925   */\n      add\n        /* \"#utility.yul\":4882:4935   */\n      tag_563\n      jump\t// in\n    tag_642:\n        /* \"#utility.yul\":4872:4935   */\n      swap6\n      pop\n        /* \"#utility.yul\":4827:4945   */\n      pop\n        /* \"#utility.yul\":4984:4986   */\n      0x60\n        /* \"#utility.yul\":5010:5063   */\n      tag_643\n        /* \"#utility.yul\":5055:5062   */\n      dup11\n        /* \"#utility.yul\":5046:5052   */\n      dup3\n        /* \"#utility.yul\":5035:5044   */\n      dup12\n        /* \"#utility.yul\":5031:5053   */\n      add\n        /* \"#utility.yul\":5010:5063   */\n      tag_563\n      jump\t// in\n    tag_643:\n        /* \"#utility.yul\":5000:5063   */\n      swap5\n      pop\n        /* \"#utility.yul\":4955:5073   */\n      pop\n        /* \"#utility.yul\":5112:5115   */\n      0x80\n        /* \"#utility.yul\":5139:5192   */\n      tag_644\n        /* \"#utility.yul\":5184:5191   */\n      dup11\n        /* \"#utility.yul\":5175:5181   */\n      dup3\n        /* \"#utility.yul\":5164:5173   */\n      dup12\n        /* \"#utility.yul\":5160:5182   */\n      add\n        /* \"#utility.yul\":5139:5192   */\n      tag_563\n      jump\t// in\n    tag_644:\n        /* \"#utility.yul\":5129:5192   */\n      swap4\n      pop\n        /* \"#utility.yul\":5083:5202   */\n      pop\n        /* \"#utility.yul\":5241:5244   */\n      0xa0\n        /* \"#utility.yul\":5268:5321   */\n      tag_645\n        /* \"#utility.yul\":5313:5320   */\n      dup11\n        /* \"#utility.yul\":5304:5310   */\n      dup3\n        /* \"#utility.yul\":5293:5302   */\n      dup12\n        /* \"#utility.yul\":5289:5311   */\n      add\n        /* \"#utility.yul\":5268:5321   */\n      tag_566\n      jump\t// in\n    tag_645:\n        /* \"#utility.yul\":5258:5321   */\n      swap3\n      pop\n        /* \"#utility.yul\":5212:5331   */\n      pop\n        /* \"#utility.yul\":5370:5373   */\n      0xc0\n        /* \"#utility.yul\":5397:5447   */\n      tag_646\n        /* \"#utility.yul\":5439:5446   */\n      dup11\n        /* \"#utility.yul\":5430:5436   */\n      dup3\n        /* \"#utility.yul\":5419:5428   */\n      dup12\n        /* \"#utility.yul\":5415:5437   */\n      add\n        /* \"#utility.yul\":5397:5447   */\n      tag_570\n      jump\t// in\n    tag_646:\n        /* \"#utility.yul\":5387:5447   */\n      swap2\n      pop\n        /* \"#utility.yul\":5341:5457   */\n      pop\n        /* \"#utility.yul\":4267:5464   */\n      swap3\n      swap6\n      swap9\n      swap2\n      swap5\n      swap8\n      pop\n      swap3\n      swap6\n      pop\n      jump\t// out\n        /* \"#utility.yul\":5470:5588   */\n    tag_571:\n        /* \"#utility.yul\":5557:5581   */\n      tag_648\n        /* \"#utility.yul\":5575:5580   */\n      dup2\n        /* \"#utility.yul\":5557:5581   */\n      tag_561\n      jump\t// in\n    tag_648:\n        /* \"#utility.yul\":5552:5555   */\n      dup3\n        /* \"#utility.yul\":5545:5582   */\n      mstore\n        /* \"#utility.yul\":5470:5588   */\n      pop\n      pop\n      jump\t// out\n        /* \"#utility.yul\":5594:5816   */\n    tag_70:\n        /* \"#utility.yul\":5687:5691   */\n      0x00\n        /* \"#utility.yul\":5725:5727   */\n      0x20\n        /* \"#utility.yul\":5714:5723   */\n      dup3\n        /* \"#utility.yul\":5710:5728   */\n      add\n        /* \"#utility.yul\":5702:5728   */\n      swap1\n      pop\n        /* \"#utility.yul\":5738:5809   */\n      tag_650\n        /* \"#utility.yul\":5806:5807   */\n      0x00\n        /* \"#utility.yul\":5795:5804   */\n      dup4\n        /* \"#utility.yul\":5791:5808   */\n      add\n        /* \"#utility.yul\":5782:5788   */\n      dup5\n        /* \"#utility.yul\":5738:5809   */\n      tag_571\n      jump\t// in\n    tag_650:\n        /* \"#utility.yul\":5594:5816   */\n      swap3\n      swap2\n      pop\n      pop\n      jump\t// out\n        /* \"#utility.yul\":5822:5931   */\n    tag_572:\n        /* \"#utility.yul\":5903:5924   */\n      tag_652\n        /* \"#utility.yul\":5918:5923   */\n      dup2\n        /* \"#utility.yul\":5903:5924   */\n      tag_568\n      jump\t// in\n    tag_652:\n        /* \"#utility.yul\":5898:5901   */\n      dup3\n        /* \"#utility.yul\":5891:5925   */\n      mstore\n        /* \"#utility.yul\":5822:5931   */\n      pop\n      pop\n      jump\t// out\n        /* \"#utility.yul\":5937:6147   */\n    tag_79:\n        /* \"#utility.yul\":6024:6028   */\n      0x00\n        /* \"#utility.yul\":6062:6064   */\n      0x20\n        /* \"#utility.yul\":6051:6060   */\n      dup3\n        /* \"#utility.yul\":6047:6065   */\n      add\n        /* \"#utility.yul\":6039:6065   */\n      swap1\n      pop\n        /* \"#utility.yul\":6075:6140   */\n      tag_654\n        /* \"#utility.yul\":6137:6138   */\n      0x00\n        /* \"#utility.yul\":6126:6135   */\n      dup4\n        /* \"#utility.yul\":6122:6139   */\n      add\n        /* \"#utility.yul\":6113:6119   */\n      dup5\n        /* \"#utility.yul\":6075:6140   */\n      tag_572\n      jump\t// in\n    tag_654:\n        /* \"#utility.yul\":5937:6147   */\n      swap3\n      swap2\n      pop\n      pop\n      jump\t// out\n        /* \"#utility.yul\":6153:7356   */\n    tag_115:\n        /* \"#utility.yul\":6266:6272   */\n      0x00\n        /* \"#utility.yul\":6274:6280   */\n      dup1\n        /* \"#utility.yul\":6282:6288   */\n      0x00\n        /* \"#utility.yul\":6290:6296   */\n      dup1\n        /* \"#utility.yul\":6298:6304   */\n      0x00\n        /* \"#utility.yul\":6306:6312   */\n      dup1\n        /* \"#utility.yul\":6314:6320   */\n      0x00\n        /* \"#utility.yul\":6363:6366   */\n      0xe0\n        /* \"#utility.yul\":6351:6360   */\n      dup9\n        /* \"#utility.yul\":6342:6349   */\n      dup11\n        /* \"#utility.yul\":6338:6361   */\n      sub\n        /* \"#utility.yul\":6334:6367   */\n      slt\n        /* \"#utility.yul\":6331:6451   */\n      iszero\n      tag_656\n      jumpi\n        /* \"#utility.yul\":6370:6449   */\n      tag_657\n      tag_558\n      jump\t// in\n    tag_657:\n        /* \"#utility.yul\":6331:6451   */\n    tag_656:\n        /* \"#utility.yul\":6490:6491   */\n      0x00\n        /* \"#utility.yul\":6515:6568   */\n      tag_658\n        /* \"#utility.yul\":6560:6567   */\n      dup11\n        /* \"#utility.yul\":6551:6557   */\n      dup3\n        /* \"#utility.yul\":6540:6549   */\n      dup12\n        /* \"#utility.yul\":6536:6558   */\n      add\n        /* \"#utility.yul\":6515:6568   */\n      tag_563\n      jump\t// in\n    tag_658:\n        /* \"#utility.yul\":6505:6568   */\n      swap8\n      pop\n        /* \"#utility.yul\":6461:6578   */\n      pop\n        /* \"#utility.yul\":6617:6619   */\n      0x20\n        /* \"#utility.yul\":6643:6696   */\n      tag_659\n        /* \"#utility.yul\":6688:6695   */\n      dup11\n        /* \"#utility.yul\":6679:6685   */\n      dup3\n        /* \"#utility.yul\":6668:6677   */\n      dup12\n        /* \"#utility.yul\":6664:6686   */\n      add\n        /* \"#utility.yul\":6643:6696   */\n      tag_563\n      jump\t// in\n    tag_659:\n        /* \"#utility.yul\":6633:6696   */\n      swap7\n      pop\n        /* \"#utility.yul\":6588:6706   */\n      pop\n        /* \"#utility.yul\":6745:6747   */\n      0x40\n        /* \"#utility.yul\":6771:6824   */\n      tag_660\n        /* \"#utility.yul\":6816:6823   */\n      dup11\n        /* \"#utility.yul\":6807:6813   */\n      dup3\n        /* \"#utility.yul\":6796:6805   */\n      dup12\n        /* \"#utility.yul\":6792:6814   */\n      add\n        /* \"#utility.yul\":6771:6824   */\n      tag_566\n      jump\t// in\n    tag_660:\n        /* \"#utility.yul\":6761:6824   */\n      swap6\n      pop\n        /* \"#utility.yul\":6716:6834   */\n      pop\n        /* \"#utility.yul\":6873:6875   */\n      0x60\n        /* \"#utility.yul\":6899:6952   */\n      tag_661\n        /* \"#utility.yul\":6944:6951   */\n      dup11\n        /* \"#utility.yul\":6935:6941   */\n      dup3\n        /* \"#utility.yul\":6924:6933   */\n      dup12\n        /* \"#utility.yul\":6920:6942   */\n      add\n        /* \"#utility.yul\":6899:6952   */\n      tag_566\n      jump\t// in\n    tag_661:\n        /* \"#utility.yul\":6889:6952   */\n      swap5\n      pop\n        /* \"#utility.yul\":6844:6962   */\n      pop\n        /* \"#utility.yul\":7001:7004   */\n      0x80\n        /* \"#utility.yul\":7028:7081   */\n      tag_662\n        /* \"#utility.yul\":7073:7080   */\n      dup11\n        /* \"#utility.yul\":7064:7070   */\n      dup3\n        /* \"#utility.yul\":7053:7062   */\n      dup12\n        /* \"#utility.yul\":7049:7071   */\n      add\n        /* \"#utility.yul\":7028:7081   */\n      tag_566\n      jump\t// in\n    tag_662:\n        /* \"#utility.yul\":7018:7081   */\n      swap4\n      pop\n        /* \"#utility.yul\":6972:7091   */\n      pop\n        /* \"#utility.yul\":7130:7133   */\n      0xa0\n        /* \"#utility.yul\":7157:7210   */\n      tag_663\n        /* \"#utility.yul\":7202:7209   */\n      dup11\n        /* \"#utility.yul\":7193:7199   */\n      dup3\n        /* \"#utility.yul\":7182:7191   */\n      dup12\n        /* \"#utility.yul\":7178:7200   */\n      add\n        /* \"#utility.yul\":7157:7210   */\n      tag_563\n      jump\t// in\n    tag_663:\n        /* \"#utility.yul\":7147:7210   */\n      swap3\n      pop\n        /* \"#utility.yul\":7101:7220   */\n      pop\n        /* \"#utility.yul\":7259:7262   */\n      0xc0\n        /* \"#utility.yul\":7286:7339   */\n      tag_664\n        /* \"#utility.yul\":7331:7338   */\n      dup11\n        /* \"#utility.yul\":7322:7328   */\n      dup3\n        /* \"#utility.yul\":7311:7320   */\n      dup12\n        /* \"#utility.yul\":7307:7329   */\n      add\n        /* \"#utility.yul\":7286:7339   */\n      tag_566\n      jump\t// in\n    tag_664:\n        /* \"#utility.yul\":7276:7339   */\n      swap2\n      pop\n        /* \"#utility.yul\":7230:7349   */\n      pop\n        /* \"#utility.yul\":6153:7356   */\n      swap3\n      swap6\n      swap9\n      swap2\n      swap5\n      swap8\n      pop\n      swap3\n      swap6\n      pop\n      jump\t// out\n        /* \"#utility.yul\":7362:7836   */\n    tag_129:\n        /* \"#utility.yul\":7430:7436   */\n      0x00\n        /* \"#utility.yul\":7438:7444   */\n      dup1\n        /* \"#utility.yul\":7487:7489   */\n      0x40\n        /* \"#utility.yul\":7475:7484   */\n      dup4\n        /* \"#utility.yul\":7466:7473   */\n      dup6\n        /* \"#utility.yul\":7462:7485   */\n      sub\n        /* \"#utility.yul\":7458:7490   */\n      slt\n        /* \"#utility.yul\":7455:7574   */\n      iszero\n      tag_666\n      jumpi\n        /* \"#utility.yul\":7493:7572   */\n      tag_667\n      tag_558\n      jump\t// in\n    tag_667:\n        /* \"#utility.yul\":7455:7574   */\n    tag_666:\n        /* \"#utility.yul\":7613:7614   */\n      0x00\n        /* \"#utility.yul\":7638:7691   */\n      tag_668\n        /* \"#utility.yul\":7683:7690   */\n      dup6\n        /* \"#utility.yul\":7674:7680   */\n      dup3\n        /* \"#utility.yul\":7663:7672   */\n      dup7\n        /* \"#utility.yul\":7659:7681   */\n      add\n        /* \"#utility.yul\":7638:7691   */\n      tag_563\n      jump\t// in\n    tag_668:\n        /* \"#utility.yul\":7628:7691   */\n      swap3\n      pop\n        /* \"#utility.yul\":7584:7701   */\n      pop\n        /* \"#utility.yul\":7740:7742   */\n      0x20\n        /* \"#utility.yul\":7766:7819   */\n      tag_669\n        /* \"#utility.yul\":7811:7818   */\n      dup6\n        /* \"#utility.yul\":7802:7808   */\n      dup3\n        /* \"#utility.yul\":7791:7800   */\n      dup7\n        /* \"#utility.yul\":7787:7809   */\n      add\n        /* \"#utility.yul\":7766:7819   */\n      tag_563\n      jump\t// in\n    tag_669:\n        /* \"#utility.yul\":7756:7819   */\n      swap2\n      pop\n        /* \"#utility.yul\":7711:7829   */\n      pop\n        /* \"#utility.yul\":7362:7836   */\n      swap3\n      pop\n      swap3\n      swap1\n      pop\n      jump\t// out\n        /* \"#utility.yul\":7842:9191   */\n    tag_139:\n        /* \"#utility.yul\":7964:7970   */\n      0x00\n        /* \"#utility.yul\":7972:7978   */\n      dup1\n        /* \"#utility.yul\":7980:7986   */\n      0x00\n        /* \"#utility.yul\":7988:7994   */\n      dup1\n        /* \"#utility.yul\":7996:8002   */\n      0x00\n        /* \"#utility.yul\":8004:8010   */\n      dup1\n        /* \"#utility.yul\":8012:8018   */\n      0x00\n        /* \"#utility.yul\":8020:8026   */\n      dup1\n        /* \"#utility.yul\":8069:8072   */\n      0x0100\n        /* \"#utility.yul\":8057:8066   */\n      dup10\n        /* \"#utility.yul\":8048:8055   */\n      dup12\n        /* \"#utility.yul\":8044:8067   */\n      sub\n        /* \"#utility.yul\":8040:8073   */\n      slt\n        /* \"#utility.yul\":8037:8157   */\n      iszero\n      tag_671\n      jumpi\n        /* \"#utility.yul\":8076:8155   */\n      tag_672\n      tag_558\n      jump\t// in\n    tag_672:\n        /* \"#utility.yul\":8037:8157   */\n    tag_671:\n        /* \"#utility.yul\":8196:8197   */\n      0x00\n        /* \"#utility.yul\":8221:8274   */\n      tag_673\n        /* \"#utility.yul\":8266:8273   */\n      dup12\n        /* \"#utility.yul\":8257:8263   */\n      dup3\n        /* \"#utility.yul\":8246:8255   */\n      dup13\n        /* \"#utility.yul\":8242:8264   */\n      add\n        /* \"#utility.yul\":8221:8274   */\n      tag_563\n      jump\t// in\n    tag_673:\n        /* \"#utility.yul\":8211:8274   */\n      swap9\n      pop\n        /* \"#utility.yul\":8167:8284   */\n      pop\n        /* \"#utility.yul\":8323:8325   */\n      0x20\n        /* \"#utility.yul\":8349:8402   */\n      tag_674\n        /* \"#utility.yul\":8394:8401   */\n      dup12\n        /* \"#utility.yul\":8385:8391   */\n      dup3\n        /* \"#utility.yul\":8374:8383   */\n      dup13\n        /* \"#utility.yul\":8370:8392   */\n      add\n        /* \"#utility.yul\":8349:8402   */\n      tag_563\n      jump\t// in\n    tag_674:\n        /* \"#utility.yul\":8339:8402   */\n      swap8\n      pop\n        /* \"#utility.yul\":8294:8412   */\n      pop\n        /* \"#utility.yul\":8451:8453   */\n      0x40\n        /* \"#utility.yul\":8477:8530   */\n      tag_675\n        /* \"#utility.yul\":8522:8529   */\n      dup12\n        /* \"#utility.yul\":8513:8519   */\n      dup3\n        /* \"#utility.yul\":8502:8511   */\n      dup13\n        /* \"#utility.yul\":8498:8520   */\n      add\n        /* \"#utility.yul\":8477:8530   */\n      tag_566\n      jump\t// in\n    tag_675:\n        /* \"#utility.yul\":8467:8530   */\n      swap7\n      pop\n        /* \"#utility.yul\":8422:8540   */\n      pop\n        /* \"#utility.yul\":8579:8581   */\n      0x60\n        /* \"#utility.yul\":8605:8658   */\n      tag_676\n        /* \"#utility.yul\":8650:8657   */\n      dup12\n        /* \"#utility.yul\":8641:8647   */\n      dup3\n        /* \"#utility.yul\":8630:8639   */\n      dup13\n        /* \"#utility.yul\":8626:8648   */\n      add\n        /* \"#utility.yul\":8605:8658   */\n      tag_566\n      jump\t// in\n    tag_676:\n        /* \"#utility.yul\":8595:8658   */\n      swap6\n      pop\n        /* \"#utility.yul\":8550:8668   */\n      pop\n        /* \"#utility.yul\":8707:8710   */\n      0x80\n        /* \"#utility.yul\":8734:8787   */\n      tag_677\n        /* \"#utility.yul\":8779:8786   */\n      dup12\n        /* \"#utility.yul\":8770:8776   */\n      dup3\n        /* \"#utility.yul\":8759:8768   */\n      dup13\n        /* \"#utility.yul\":8755:8777   */\n      add\n        /* \"#utility.yul\":8734:8787   */\n      tag_566\n      jump\t// in\n    tag_677:\n        /* \"#utility.yul\":8724:8787   */\n      swap5\n      pop\n        /* \"#utility.yul\":8678:8797   */\n      pop\n        /* \"#utility.yul\":8836:8839   */\n      0xa0\n        /* \"#utility.yul\":8863:8916   */\n      tag_678\n        /* \"#utility.yul\":8908:8915   */\n      dup12\n        /* \"#utility.yul\":8899:8905   */\n      dup3\n        /* \"#utility.yul\":8888:8897   */\n      dup13\n        /* \"#utility.yul\":8884:8906   */\n      add\n        /* \"#utility.yul\":8863:8916   */\n      tag_566\n      jump\t// in\n    tag_678:\n        /* \"#utility.yul\":8853:8916   */\n      swap4\n      pop\n        /* \"#utility.yul\":8807:8926   */\n      pop\n        /* \"#utility.yul\":8965:8968   */\n      0xc0\n        /* \"#utility.yul\":8992:9045   */\n      tag_679\n        /* \"#utility.yul\":9037:9044   */\n      dup12\n        /* \"#utility.yul\":9028:9034   */\n      dup3\n        /* \"#utility.yul\":9017:9026   */\n      dup13\n        /* \"#utility.yul\":9013:9035   */\n      add\n        /* \"#utility.yul\":8992:9045   */\n      tag_563\n      jump\t// in\n    tag_679:\n        /* \"#utility.yul\":8982:9045   */\n      swap3\n      pop\n        /* \"#utility.yul\":8936:9055   */\n      pop\n        /* \"#utility.yul\":9094:9097   */\n      0xe0\n        /* \"#utility.yul\":9121:9174   */\n      tag_680\n        /* \"#utility.yul\":9166:9173   */\n      dup12\n        /* \"#utility.yul\":9157:9163   */\n      dup3\n        /* \"#utility.yul\":9146:9155   */\n      dup13\n        /* \"#utility.yul\":9142:9164   */\n      add\n        /* \"#utility.yul\":9121:9174   */\n      tag_566\n      jump\t// in\n    tag_680:\n        /* \"#utility.yul\":9111:9174   */\n      swap2\n      pop\n        /* \"#utility.yul\":9065:9184   */\n      pop\n        /* \"#utility.yul\":7842:9191   */\n      swap3\n      swap6\n      swap9\n      pop\n      swap3\n      swap6\n      swap9\n      swap1\n      swap4\n      swap7\n      pop\n      jump\t// out\n        /* \"#utility.yul\":9197:9639   */\n    tag_142:\n        /* \"#utility.yul\":9346:9350   */\n      0x00\n        /* \"#utility.yul\":9384:9386   */\n      0x60\n        /* \"#utility.yul\":9373:9382   */\n      dup3\n        /* \"#utility.yul\":9369:9387   */\n      add\n        /* \"#utility.yul\":9361:9387   */\n      swap1\n      pop\n        /* \"#utility.yul\":9397:9468   */\n      tag_682\n        /* \"#utility.yul\":9465:9466   */\n      0x00\n        /* \"#utility.yul\":9454:9463   */\n      dup4\n        /* \"#utility.yul\":9450:9467   */\n      add\n        /* \"#utility.yul\":9441:9447   */\n      dup7\n        /* \"#utility.yul\":9397:9468   */\n      tag_567\n      jump\t// in\n    tag_682:\n        /* \"#utility.yul\":9478:9550   */\n      tag_683\n        /* \"#utility.yul\":9546:9548   */\n      0x20\n        /* \"#utility.yul\":9535:9544   */\n      dup4\n        /* \"#utility.yul\":9531:9549   */\n      add\n        /* \"#utility.yul\":9522:9528   */\n      dup6\n        /* \"#utility.yul\":9478:9550   */\n      tag_567\n      jump\t// in\n    tag_683:\n        /* \"#utility.yul\":9560:9632   */\n      tag_684\n        /* \"#utility.yul\":9628:9630   */\n      0x40\n        /* \"#utility.yul\":9617:9626   */\n      dup4\n        /* \"#utility.yul\":9613:9631   */\n      add\n        /* \"#utility.yul\":9604:9610   */\n      dup5\n        /* \"#utility.yul\":9560:9632   */\n      tag_567\n      jump\t// in\n    tag_684:\n        /* \"#utility.yul\":9197:9639   */\n      swap5\n      swap4\n      pop\n      pop\n      pop\n      pop\n      jump\t// out\n        /* \"#utility.yul\":9645:9977   */\n    tag_244:\n        /* \"#utility.yul\":9766:9770   */\n      0x00\n        /* \"#utility.yul\":9804:9806   */\n      0x40\n        /* \"#utility.yul\":9793:9802   */\n      dup3\n        /* \"#utility.yul\":9789:9807   */\n      add\n        /* \"#utility.yul\":9781:9807   */\n      swap1\n      pop\n        /* \"#utility.yul\":9817:9888   */\n      tag_686\n        /* \"#utility.yul\":9885:9886   */\n      0x00\n        /* \"#utility.yul\":9874:9883   */\n      dup4\n        /* \"#utility.yul\":9870:9887   */\n      add\n        /* \"#utility.yul\":9861:9867   */\n      dup6\n        /* \"#utility.yul\":9817:9888   */\n      tag_571\n      jump\t// in\n    tag_686:\n        /* \"#utility.yul\":9898:9970   */\n      tag_687\n        /* \"#utility.yul\":9966:9968   */\n      0x20\n        /* \"#utility.yul\":9955:9964   */\n      dup4\n        /* \"#utility.yul\":9951:9969   */\n      add\n        /* \"#utility.yul\":9942:9948   */\n      dup5\n        /* \"#utility.yul\":9898:9970   */\n      tag_571\n      jump\t// in\n    tag_687:\n        /* \"#utility.yul\":9645:9977   */\n      swap4\n      swap3\n      pop\n      pop\n      pop\n      jump\t// out\n        /* \"#utility.yul\":9983:10126   */\n    tag_573:\n        /* \"#utility.yul\":10040:10045   */\n      0x00\n        /* \"#utility.yul\":10071:10077   */\n      dup2\n        /* \"#utility.yul\":10065:10078   */\n      mload\n        /* \"#utility.yul\":10056:10078   */\n      swap1\n      pop\n        /* \"#utility.yul\":10087:10120   */\n      tag_689\n        /* \"#utility.yul\":10114:10119   */\n      dup2\n        /* \"#utility.yul\":10087:10120   */\n      tag_562\n      jump\t// in\n    tag_689:\n        /* \"#utility.yul\":9983:10126   */\n      swap3\n      swap2\n      pop\n      pop\n      jump\t// out\n        /* \"#utility.yul\":10132:10483   */\n    tag_248:\n        /* \"#utility.yul\":10202:10208   */\n      0x00\n        /* \"#utility.yul\":10251:10253   */\n      0x20\n        /* \"#utility.yul\":10239:10248   */\n      dup3\n        /* \"#utility.yul\":10230:10237   */\n      dup5\n        /* \"#utility.yul\":10226:10249   */\n      sub\n        /* \"#utility.yul\":10222:10254   */\n      slt\n        /* \"#utility.yul\":10219:10338   */\n      iszero\n      tag_691\n      jumpi\n        /* \"#utility.yul\":10257:10336   */\n      tag_692\n      tag_558\n      jump\t// in\n    tag_692:\n        /* \"#utility.yul\":10219:10338   */\n    tag_691:\n        /* \"#utility.yul\":10377:10378   */\n      0x00\n        /* \"#utility.yul\":10402:10466   */\n      tag_693\n        /* \"#utility.yul\":10458:10465   */\n      dup5\n        /* \"#utility.yul\":10449:10455   */\n      dup3\n        /* \"#utility.yul\":10438:10447   */\n      dup6\n        /* \"#utility.yul\":10434:10456   */\n      add\n        /* \"#utility.yul\":10402:10466   */\n      tag_573\n      jump\t// in\n    tag_693:\n        /* \"#utility.yul\":10392:10466   */\n      swap2\n      pop\n        /* \"#utility.yul\":10348:10476   */\n      pop\n        /* \"#utility.yul\":10132:10483   */\n      swap3\n      swap2\n      pop\n      pop\n      jump\t// out\n        /* \"#utility.yul\":10489:10669   */\n    tag_574:\n        /* \"#utility.yul\":10537:10614   */\n      0x4e487b7100000000000000000000000000000000000000000000000000000000\n        /* \"#utility.yul\":10534:10535   */\n      0x00\n        /* \"#utility.yul\":10527:10615   */\n      mstore\n        /* \"#utility.yul\":10634:10638   */\n      0x11\n        /* \"#utility.yul\":10631:10632   */\n      0x04\n        /* \"#utility.yul\":10624:10639   */\n      mstore\n        /* \"#utility.yul\":10658:10662   */\n      0x24\n        /* \"#utility.yul\":10655:10656   */\n      0x00\n        /* \"#utility.yul\":10648:10663   */\n      revert\n        /* \"#utility.yul\":10675:11085   */\n    tag_339:\n        /* \"#utility.yul\":10715:10722   */\n      0x00\n        /* \"#utility.yul\":10738:10758   */\n      tag_696\n        /* \"#utility.yul\":10756:10757   */\n      dup3\n        /* \"#utility.yul\":10738:10758   */\n      tag_564\n      jump\t// in\n    tag_696:\n        /* \"#utility.yul\":10733:10758   */\n      swap2\n      pop\n        /* \"#utility.yul\":10772:10792   */\n      tag_697\n        /* \"#utility.yul\":10790:10791   */\n      dup4\n        /* \"#utility.yul\":10772:10792   */\n      tag_564\n      jump\t// in\n    tag_697:\n        /* \"#utility.yul\":10767:10792   */\n      swap3\n      pop\n        /* \"#utility.yul\":10827:10828   */\n      dup3\n        /* \"#utility.yul\":10824:10825   */\n      dup3\n        /* \"#utility.yul\":10820:10829   */\n      mul\n        /* \"#utility.yul\":10849:10879   */\n      tag_698\n        /* \"#utility.yul\":10867:10878   */\n      dup2\n        /* \"#utility.yul\":10849:10879   */\n      tag_564\n      jump\t// in\n    tag_698:\n        /* \"#utility.yul\":10838:10879   */\n      swap2\n      pop\n        /* \"#utility.yul\":11028:11029   */\n      dup3\n        /* \"#utility.yul\":11019:11026   */\n      dup3\n        /* \"#utility.yul\":11015:11030   */\n      div\n        /* \"#utility.yul\":11012:11013   */\n      dup5\n        /* \"#utility.yul\":11009:11031   */\n      eq\n        /* \"#utility.yul\":10989:10990   */\n      dup4\n        /* \"#utility.yul\":10982:10991   */\n      iszero\n        /* \"#utility.yul\":10962:11045   */\n      or\n        /* \"#utility.yul\":10939:11078   */\n      tag_699\n      jumpi\n        /* \"#utility.yul\":11058:11076   */\n      tag_700\n      tag_574\n      jump\t// in\n    tag_700:\n        /* \"#utility.yul\":10939:11078   */\n    tag_699:\n        /* \"#utility.yul\":10723:11085   */\n      pop\n        /* \"#utility.yul\":10675:11085   */\n      swap3\n      swap2\n      pop\n      pop\n      jump\t// out\n        /* \"#utility.yul\":11091:11282   */\n    tag_342:\n        /* \"#utility.yul\":11131:11134   */\n      0x00\n        /* \"#utility.yul\":11150:11170   */\n      tag_702\n        /* \"#utility.yul\":11168:11169   */\n      dup3\n        /* \"#utility.yul\":11150:11170   */\n      tag_564\n      jump\t// in\n    tag_702:\n        /* \"#utility.yul\":11145:11170   */\n      swap2\n      pop\n        /* \"#utility.yul\":11184:11204   */\n      tag_703\n        /* \"#utility.yul\":11202:11203   */\n      dup4\n        /* \"#utility.yul\":11184:11204   */\n      tag_564\n      jump\t// in\n    tag_703:\n        /* \"#utility.yul\":11179:11204   */\n      swap3\n      pop\n        /* \"#utility.yul\":11227:11228   */\n      dup3\n        /* \"#utility.yul\":11224:11225   */\n      dup3\n        /* \"#utility.yul\":11220:11229   */\n      add\n        /* \"#utility.yul\":11213:11229   */\n      swap1\n      pop\n        /* \"#utility.yul\":11248:11251   */\n      dup1\n        /* \"#utility.yul\":11245:11246   */\n      dup3\n        /* \"#utility.yul\":11242:11252   */\n      gt\n        /* \"#utility.yul\":11239:11275   */\n      iszero\n      tag_704\n      jumpi\n        /* \"#utility.yul\":11255:11273   */\n      tag_705\n      tag_574\n      jump\t// in\n    tag_705:\n        /* \"#utility.yul\":11239:11275   */\n    tag_704:\n        /* \"#utility.yul\":11091:11282   */\n      swap3\n      swap2\n      pop\n      pop\n      jump\t// out\n        /* \"#utility.yul\":11288:11468   */\n    tag_575:\n        /* \"#utility.yul\":11336:11413   */\n      0x4e487b7100000000000000000000000000000000000000000000000000000000\n        /* \"#utility.yul\":11333:11334   */\n      0x00\n        /* \"#utility.yul\":11326:11414   */\n      mstore\n        /* \"#utility.yul\":11433:11437   */\n      0x12\n        /* \"#utility.yul\":11430:11431   */\n      0x04\n        /* \"#utility.yul\":11423:11438   */\n      mstore\n        /* \"#utility.yul\":11457:11461   */\n      0x24\n        /* \"#utility.yul\":11454:11455   */\n      0x00\n        /* \"#utility.yul\":11447:11462   */\n      revert\n        /* \"#utility.yul\":11474:11659   */\n    tag_345:\n        /* \"#utility.yul\":11514:11515   */\n      0x00\n        /* \"#utility.yul\":11531:11551   */\n      tag_708\n        /* \"#utility.yul\":11549:11550   */\n      dup3\n        /* \"#utility.yul\":11531:11551   */\n      tag_564\n      jump\t// in\n    tag_708:\n        /* \"#utility.yul\":11526:11551   */\n      swap2\n      pop\n        /* \"#utility.yul\":11565:11585   */\n      tag_709\n        /* \"#utility.yul\":11583:11584   */\n      dup4\n        /* \"#utility.yul\":11565:11585   */\n      tag_564\n      jump\t// in\n    tag_709:\n        /* \"#utility.yul\":11560:11585   */\n      swap3\n      pop\n        /* \"#utility.yul\":11604:11605   */\n      dup3\n        /* \"#utility.yul\":11594:11629   */\n      tag_710\n      jumpi\n        /* \"#utility.yul\":11609:11627   */\n      tag_711\n      tag_575\n      jump\t// in\n    tag_711:\n        /* \"#utility.yul\":11594:11629   */\n    tag_710:\n        /* \"#utility.yul\":11651:11652   */\n      dup3\n        /* \"#utility.yul\":11648:11649   */\n      dup3\n        /* \"#utility.yul\":11644:11653   */\n      div\n        /* \"#utility.yul\":11639:11653   */\n      swap1\n      pop\n        /* \"#utility.yul\":11474:11659   */\n      swap3\n      swap2\n      pop\n      pop\n      jump\t// out\n        /* \"#utility.yul\":11665:11779   */\n    tag_576:\n        /* \"#utility.yul\":11702:11709   */\n      0x00\n        /* \"#utility.yul\":11742:11772   */\n      0xffffffffffffffffffffffffffff\n        /* \"#utility.yul\":11735:11740   */\n      dup3\n        /* \"#utility.yul\":11731:11773   */\n      and\n        /* \"#utility.yul\":11720:11773   */\n      swap1\n      pop\n        /* \"#utility.yul\":11665:11779   */\n      swap2\n      swap1\n      pop\n      jump\t// out\n        /* \"#utility.yul\":11785:11907   */\n    tag_577:\n        /* \"#utility.yul\":11858:11882   */\n      tag_714\n        /* \"#utility.yul\":11876:11881   */\n      dup2\n        /* \"#utility.yul\":11858:11882   */\n      tag_576\n      jump\t// in\n    tag_714:\n        /* \"#utility.yul\":11851:11856   */\n      dup2\n        /* \"#utility.yul\":11848:11883   */\n      eq\n        /* \"#utility.yul\":11838:11901   */\n      tag_715\n      jumpi\n        /* \"#utility.yul\":11897:11898   */\n      0x00\n        /* \"#utility.yul\":11894:11895   */\n      dup1\n        /* \"#utility.yul\":11887:11899   */\n      revert\n        /* \"#utility.yul\":11838:11901   */\n    tag_715:\n        /* \"#utility.yul\":11785:11907   */\n      pop\n      jump\t// out\n        /* \"#utility.yul\":11913:12056   */\n    tag_578:\n        /* \"#utility.yul\":11970:11975   */\n      0x00\n        /* \"#utility.yul\":12001:12007   */\n      dup2\n        /* \"#utility.yul\":11995:12008   */\n      mload\n        /* \"#utility.yul\":11986:12008   */\n      swap1\n      pop\n        /* \"#utility.yul\":12017:12050   */\n      tag_717\n        /* \"#utility.yul\":12044:12049   */\n      dup2\n        /* \"#utility.yul\":12017:12050   */\n      tag_577\n      jump\t// in\n    tag_717:\n        /* \"#utility.yul\":11913:12056   */\n      swap3\n      swap2\n      pop\n      pop\n      jump\t// out\n        /* \"#utility.yul\":12062:12155   */\n    tag_579:\n        /* \"#utility.yul\":12098:12105   */\n      0x00\n        /* \"#utility.yul\":12138:12148   */\n      0xffffffff\n        /* \"#utility.yul\":12131:12136   */\n      dup3\n        /* \"#utility.yul\":12127:12149   */\n      and\n        /* \"#utility.yul\":12116:12149   */\n      swap1\n      pop\n        /* \"#utility.yul\":12062:12155   */\n      swap2\n      swap1\n      pop\n      jump\t// out\n        /* \"#utility.yul\":12161:12281   */\n    tag_580:\n        /* \"#utility.yul\":12233:12256   */\n      tag_720\n        /* \"#utility.yul\":12250:12255   */\n      dup2\n        /* \"#utility.yul\":12233:12256   */\n      tag_579\n      jump\t// in\n    tag_720:\n        /* \"#utility.yul\":12226:12231   */\n      dup2\n        /* \"#utility.yul\":12223:12257   */\n      eq\n        /* \"#utility.yul\":12213:12275   */\n      tag_721\n      jumpi\n        /* \"#utility.yul\":12271:12272   */\n      0x00\n        /* \"#utility.yul\":12268:12269   */\n      dup1\n        /* \"#utility.yul\":12261:12273   */\n      revert\n        /* \"#utility.yul\":12213:12275   */\n    tag_721:\n        /* \"#utility.yul\":12161:12281   */\n      pop\n      jump\t// out\n        /* \"#utility.yul\":12287:12428   */\n    tag_581:\n        /* \"#utility.yul\":12343:12348   */\n      0x00\n        /* \"#utility.yul\":12374:12380   */\n      dup2\n        /* \"#utility.yul\":12368:12381   */\n      mload\n        /* \"#utility.yul\":12359:12381   */\n      swap1\n      pop\n        /* \"#utility.yul\":12390:12422   */\n      tag_723\n        /* \"#utility.yul\":12416:12421   */\n      dup2\n        /* \"#utility.yul\":12390:12422   */\n      tag_580\n      jump\t// in\n    tag_723:\n        /* \"#utility.yul\":12287:12428   */\n      swap3\n      swap2\n      pop\n      pop\n      jump\t// out\n        /* \"#utility.yul\":12434:13095   */\n    tag_364:\n        /* \"#utility.yul\":12521:12527   */\n      0x00\n        /* \"#utility.yul\":12529:12535   */\n      dup1\n        /* \"#utility.yul\":12537:12543   */\n      0x00\n        /* \"#utility.yul\":12586:12588   */\n      0x60\n        /* \"#utility.yul\":12574:12583   */\n      dup5\n        /* \"#utility.yul\":12565:12572   */\n      dup7\n        /* \"#utility.yul\":12561:12584   */\n      sub\n        /* \"#utility.yul\":12557:12589   */\n      slt\n        /* \"#utility.yul\":12554:12673   */\n      iszero\n      tag_725\n      jumpi\n        /* \"#utility.yul\":12592:12671   */\n      tag_726\n      tag_558\n      jump\t// in\n    tag_726:\n        /* \"#utility.yul\":12554:12673   */\n    tag_725:\n        /* \"#utility.yul\":12712:12713   */\n      0x00\n        /* \"#utility.yul\":12737:12801   */\n      tag_727\n        /* \"#utility.yul\":12793:12800   */\n      dup7\n        /* \"#utility.yul\":12784:12790   */\n      dup3\n        /* \"#utility.yul\":12773:12782   */\n      dup8\n        /* \"#utility.yul\":12769:12791   */\n      add\n        /* \"#utility.yul\":12737:12801   */\n      tag_578\n      jump\t// in\n    tag_727:\n        /* \"#utility.yul\":12727:12801   */\n      swap4\n      pop\n        /* \"#utility.yul\":12683:12811   */\n      pop\n        /* \"#utility.yul\":12850:12852   */\n      0x20\n        /* \"#utility.yul\":12876:12940   */\n      tag_728\n        /* \"#utility.yul\":12932:12939   */\n      dup7\n        /* \"#utility.yul\":12923:12929   */\n      dup3\n        /* \"#utility.yul\":12912:12921   */\n      dup8\n        /* \"#utility.yul\":12908:12930   */\n      add\n        /* \"#utility.yul\":12876:12940   */\n      tag_578\n      jump\t// in\n    tag_728:\n        /* \"#utility.yul\":12866:12940   */\n      swap3\n      pop\n        /* \"#utility.yul\":12821:12950   */\n      pop\n        /* \"#utility.yul\":12989:12991   */\n      0x40\n        /* \"#utility.yul\":13015:13078   */\n      tag_729\n        /* \"#utility.yul\":13070:13077   */\n      dup7\n        /* \"#utility.yul\":13061:13067   */\n      dup3\n        /* \"#utility.yul\":13050:13059   */\n      dup8\n        /* \"#utility.yul\":13046:13068   */\n      add\n        /* \"#utility.yul\":13015:13078   */\n      tag_581\n      jump\t// in\n    tag_729:\n        /* \"#utility.yul\":13005:13078   */\n      swap2\n      pop\n        /* \"#utility.yul\":12960:13088   */\n      pop\n        /* \"#utility.yul\":12434:13095   */\n      swap3\n      pop\n      swap3\n      pop\n      swap3\n      jump\t// out\n        /* \"#utility.yul\":13101:13876   */\n    tag_381:\n        /* \"#utility.yul\":13334:13338   */\n      0x00\n        /* \"#utility.yul\":13372:13375   */\n      0xc0\n        /* \"#utility.yul\":13361:13370   */\n      dup3\n        /* \"#utility.yul\":13357:13376   */\n      add\n        /* \"#utility.yul\":13349:13376   */\n      swap1\n      pop\n        /* \"#utility.yul\":13386:13457   */\n      tag_731\n        /* \"#utility.yul\":13454:13455   */\n      0x00\n        /* \"#utility.yul\":13443:13452   */\n      dup4\n        /* \"#utility.yul\":13439:13456   */\n      add\n        /* \"#utility.yul\":13430:13436   */\n      dup10\n        /* \"#utility.yul\":13386:13457   */\n      tag_571\n      jump\t// in\n    tag_731:\n        /* \"#utility.yul\":13467:13539   */\n      tag_732\n        /* \"#utility.yul\":13535:13537   */\n      0x20\n        /* \"#utility.yul\":13524:13533   */\n      dup4\n        /* \"#utility.yul\":13520:13538   */\n      add\n        /* \"#utility.yul\":13511:13517   */\n      dup9\n        /* \"#utility.yul\":13467:13539   */\n      tag_571\n      jump\t// in\n    tag_732:\n        /* \"#utility.yul\":13549:13621   */\n      tag_733\n        /* \"#utility.yul\":13617:13619   */\n      0x40\n        /* \"#utility.yul\":13606:13615   */\n      dup4\n        /* \"#utility.yul\":13602:13620   */\n      add\n        /* \"#utility.yul\":13593:13599   */\n      dup8\n        /* \"#utility.yul\":13549:13621   */\n      tag_571\n      jump\t// in\n    tag_733:\n        /* \"#utility.yul\":13631:13703   */\n      tag_734\n        /* \"#utility.yul\":13699:13701   */\n      0x60\n        /* \"#utility.yul\":13688:13697   */\n      dup4\n        /* \"#utility.yul\":13684:13702   */\n      add\n        /* \"#utility.yul\":13675:13681   */\n      dup7\n        /* \"#utility.yul\":13631:13703   */\n      tag_567\n      jump\t// in\n    tag_734:\n        /* \"#utility.yul\":13713:13786   */\n      tag_735\n        /* \"#utility.yul\":13781:13784   */\n      0x80\n        /* \"#utility.yul\":13770:13779   */\n      dup4\n        /* \"#utility.yul\":13766:13785   */\n      add\n        /* \"#utility.yul\":13757:13763   */\n      dup6\n        /* \"#utility.yul\":13713:13786   */\n      tag_567\n      jump\t// in\n    tag_735:\n        /* \"#utility.yul\":13796:13869   */\n      tag_736\n        /* \"#utility.yul\":13864:13867   */\n      0xa0\n        /* \"#utility.yul\":13853:13862   */\n      dup4\n        /* \"#utility.yul\":13849:13868   */\n      add\n        /* \"#utility.yul\":13840:13846   */\n      dup5\n        /* \"#utility.yul\":13796:13869   */\n      tag_571\n      jump\t// in\n    tag_736:\n        /* \"#utility.yul\":13101:13876   */\n      swap8\n      swap7\n      pop\n      pop\n      pop\n      pop\n      pop\n      pop\n      pop\n      jump\t// out\n        /* \"#utility.yul\":13882:14076   */\n    tag_388:\n        /* \"#utility.yul\":13922:13926   */\n      0x00\n        /* \"#utility.yul\":13942:13962   */\n      tag_738\n        /* \"#utility.yul\":13960:13961   */\n      dup3\n        /* \"#utility.yul\":13942:13962   */\n      tag_564\n      jump\t// in\n    tag_738:\n        /* \"#utility.yul\":13937:13962   */\n      swap2\n      pop\n        /* \"#utility.yul\":13976:13996   */\n      tag_739\n        /* \"#utility.yul\":13994:13995   */\n      dup4\n        /* \"#utility.yul\":13976:13996   */\n      tag_564\n      jump\t// in\n    tag_739:\n        /* \"#utility.yul\":13971:13996   */\n      swap3\n      pop\n        /* \"#utility.yul\":14020:14021   */\n      dup3\n        /* \"#utility.yul\":14017:14018   */\n      dup3\n        /* \"#utility.yul\":14013:14022   */\n      sub\n        /* \"#utility.yul\":14005:14022   */\n      swap1\n      pop\n        /* \"#utility.yul\":14044:14045   */\n      dup2\n        /* \"#utility.yul\":14038:14042   */\n      dup2\n        /* \"#utility.yul\":14035:14046   */\n      gt\n        /* \"#utility.yul\":14032:14069   */\n      iszero\n      tag_740\n      jumpi\n        /* \"#utility.yul\":14049:14067   */\n      tag_741\n      tag_574\n      jump\t// in\n    tag_741:\n        /* \"#utility.yul\":14032:14069   */\n    tag_740:\n        /* \"#utility.yul\":13882:14076   */\n      swap3\n      swap2\n      pop\n      pop\n      jump\t// out\n        /* \"#utility.yul\":14082:14225   */\n    tag_582:\n        /* \"#utility.yul\":14139:14144   */\n      0x00\n        /* \"#utility.yul\":14170:14176   */\n      dup2\n        /* \"#utility.yul\":14164:14177   */\n      mload\n        /* \"#utility.yul\":14155:14177   */\n      swap1\n      pop\n        /* \"#utility.yul\":14186:14219   */\n      tag_743\n        /* \"#utility.yul\":14213:14218   */\n      dup2\n        /* \"#utility.yul\":14186:14219   */\n      tag_565\n      jump\t// in\n    tag_743:\n        /* \"#utility.yul\":14082:14225   */\n      swap3\n      swap2\n      pop\n      pop\n      jump\t// out\n        /* \"#utility.yul\":14231:14738   */\n    tag_406:\n        /* \"#utility.yul\":14310:14316   */\n      0x00\n        /* \"#utility.yul\":14318:14324   */\n      dup1\n        /* \"#utility.yul\":14367:14369   */\n      0x40\n        /* \"#utility.yul\":14355:14364   */\n      dup4\n        /* \"#utility.yul\":14346:14353   */\n      dup6\n        /* \"#utility.yul\":14342:14365   */\n      sub\n        /* \"#utility.yul\":14338:14370   */\n      slt\n        /* \"#utility.yul\":14335:14454   */\n      iszero\n      tag_745\n      jumpi\n        /* \"#utility.yul\":14373:14452   */\n      tag_746\n      tag_558\n      jump\t// in\n    tag_746:\n        /* \"#utility.yul\":14335:14454   */\n    tag_745:\n        /* \"#utility.yul\":14493:14494   */\n      0x00\n        /* \"#utility.yul\":14518:14582   */\n      tag_747\n        /* \"#utility.yul\":14574:14581   */\n      dup6\n        /* \"#utility.yul\":14565:14571   */\n      dup3\n        /* \"#utility.yul\":14554:14563   */\n      dup7\n        /* \"#utility.yul\":14550:14572   */\n      add\n        /* \"#utility.yul\":14518:14582   */\n      tag_582\n      jump\t// in\n    tag_747:\n        /* \"#utility.yul\":14508:14582   */\n      swap3\n      pop\n        /* \"#utility.yul\":14464:14592   */\n      pop\n        /* \"#utility.yul\":14631:14633   */\n      0x20\n        /* \"#utility.yul\":14657:14721   */\n      tag_748\n        /* \"#utility.yul\":14713:14720   */\n      dup6\n        /* \"#utility.yul\":14704:14710   */\n      dup3\n        /* \"#utility.yul\":14693:14702   */\n      dup7\n        /* \"#utility.yul\":14689:14711   */\n      add\n        /* \"#utility.yul\":14657:14721   */\n      tag_582\n      jump\t// in\n    tag_748:\n        /* \"#utility.yul\":14647:14721   */\n      swap2\n      pop\n        /* \"#utility.yul\":14602:14731   */\n      pop\n        /* \"#utility.yul\":14231:14738   */\n      swap3\n      pop\n      swap3\n      swap1\n      pop\n      jump\t// out\n        /* \"#utility.yul\":14744:15095   */\n    tag_425:\n        /* \"#utility.yul\":14814:14820   */\n      0x00\n        /* \"#utility.yul\":14863:14865   */\n      0x20\n        /* \"#utility.yul\":14851:14860   */\n      dup3\n        /* \"#utility.yul\":14842:14849   */\n      dup5\n        /* \"#utility.yul\":14838:14861   */\n      sub\n        /* \"#utility.yul\":14834:14866   */\n      slt\n        /* \"#utility.yul\":14831:14950   */\n      iszero\n      tag_750\n      jumpi\n        /* \"#utility.yul\":14869:14948   */\n      tag_751\n      tag_558\n      jump\t// in\n    tag_751:\n        /* \"#utility.yul\":14831:14950   */\n    tag_750:\n        /* \"#utility.yul\":14989:14990   */\n      0x00\n        /* \"#utility.yul\":15014:15078   */\n      tag_752\n        /* \"#utility.yul\":15070:15077   */\n      dup5\n        /* \"#utility.yul\":15061:15067   */\n      dup3\n        /* \"#utility.yul\":15050:15059   */\n      dup6\n        /* \"#utility.yul\":15046:15068   */\n      add\n        /* \"#utility.yul\":15014:15078   */\n      tag_582\n      jump\t// in\n    tag_752:\n        /* \"#utility.yul\":15004:15078   */\n      swap2\n      pop\n        /* \"#utility.yul\":14960:15088   */\n      pop\n        /* \"#utility.yul\":14744:15095   */\n      swap3\n      swap2\n      pop\n      pop\n      jump\t// out\n        /* \"#utility.yul\":15101:15248   */\n    tag_583:\n        /* \"#utility.yul\":15202:15213   */\n      0x00\n        /* \"#utility.yul\":15239:15242   */\n      dup2\n        /* \"#utility.yul\":15224:15242   */\n      swap1\n      pop\n        /* \"#utility.yul\":15101:15248   */\n      swap3\n      swap2\n      pop\n      pop\n      jump\t// out\n        /* \"#utility.yul\":15254:15368   */\n    tag_584:\n      pop\n      jump\t// out\n        /* \"#utility.yul\":15374:15772   */\n    tag_585:\n        /* \"#utility.yul\":15533:15536   */\n      0x00\n        /* \"#utility.yul\":15554:15637   */\n      tag_756\n        /* \"#utility.yul\":15635:15636   */\n      0x00\n        /* \"#utility.yul\":15630:15633   */\n      dup4\n        /* \"#utility.yul\":15554:15637   */\n      tag_583\n      jump\t// in\n    tag_756:\n        /* \"#utility.yul\":15547:15637   */\n      swap2\n      pop\n        /* \"#utility.yul\":15646:15739   */\n      tag_757\n        /* \"#utility.yul\":15735:15738   */\n      dup3\n        /* \"#utility.yul\":15646:15739   */\n      tag_584\n      jump\t// in\n    tag_757:\n        /* \"#utility.yul\":15764:15765   */\n      0x00\n        /* \"#utility.yul\":15759:15762   */\n      dup3\n        /* \"#utility.yul\":15755:15766   */\n      add\n        /* \"#utility.yul\":15748:15766   */\n      swap1\n      pop\n        /* \"#utility.yul\":15374:15772   */\n      swap2\n      swap1\n      pop\n      jump\t// out\n        /* \"#utility.yul\":15778:16157   */\n    tag_446:\n        /* \"#utility.yul\":15962:15965   */\n      0x00\n        /* \"#utility.yul\":15984:16131   */\n      tag_759\n        /* \"#utility.yul\":16127:16130   */\n      dup3\n        /* \"#utility.yul\":15984:16131   */\n      tag_585\n      jump\t// in\n    tag_759:\n        /* \"#utility.yul\":15977:16131   */\n      swap2\n      pop\n        /* \"#utility.yul\":16148:16151   */\n      dup2\n        /* \"#utility.yul\":16141:16151   */\n      swap1\n      pop\n        /* \"#utility.yul\":15778:16157   */\n      swap2\n      swap1\n      pop\n      jump\t// out\n        /* \"#utility.yul\":16163:16605   */\n    tag_492:\n        /* \"#utility.yul\":16312:16316   */\n      0x00\n        /* \"#utility.yul\":16350:16352   */\n      0x60\n        /* \"#utility.yul\":16339:16348   */\n      dup3\n        /* \"#utility.yul\":16335:16353   */\n      add\n        /* \"#utility.yul\":16327:16353   */\n      swap1\n      pop\n        /* \"#utility.yul\":16363:16434   */\n      tag_761\n        /* \"#utility.yul\":16431:16432   */\n      0x00\n        /* \"#utility.yul\":16420:16429   */\n      dup4\n        /* \"#utility.yul\":16416:16433   */\n      add\n        /* \"#utility.yul\":16407:16413   */\n      dup7\n        /* \"#utility.yul\":16363:16434   */\n      tag_567\n      jump\t// in\n    tag_761:\n        /* \"#utility.yul\":16444:16516   */\n      tag_762\n        /* \"#utility.yul\":16512:16514   */\n      0x20\n        /* \"#utility.yul\":16501:16510   */\n      dup4\n        /* \"#utility.yul\":16497:16515   */\n      add\n        /* \"#utility.yul\":16488:16494   */\n      dup6\n        /* \"#utility.yul\":16444:16516   */\n      tag_567\n      jump\t// in\n    tag_762:\n        /* \"#utility.yul\":16526:16598   */\n      tag_763\n        /* \"#utility.yul\":16594:16596   */\n      0x40\n        /* \"#utility.yul\":16583:16592   */\n      dup4\n        /* \"#utility.yul\":16579:16597   */\n      add\n        /* \"#utility.yul\":16570:16576   */\n      dup5\n        /* \"#utility.yul\":16526:16598   */\n      tag_571\n      jump\t// in\n    tag_763:\n        /* \"#utility.yul\":16163:16605   */\n      swap5\n      swap4\n      pop\n      pop\n      pop\n      pop\n      jump\t// out\n        /* \"#utility.yul\":16611:16748   */\n    tag_586:\n        /* \"#utility.yul\":16665:16670   */\n      0x00\n        /* \"#utility.yul\":16696:16702   */\n      dup2\n        /* \"#utility.yul\":16690:16703   */\n      mload\n        /* \"#utility.yul\":16681:16703   */\n      swap1\n      pop\n        /* \"#utility.yul\":16712:16742   */\n      tag_765\n        /* \"#utility.yul\":16736:16741   */\n      dup2\n        /* \"#utility.yul\":16712:16742   */\n      tag_569\n      jump\t// in\n    tag_765:\n        /* \"#utility.yul\":16611:16748   */\n      swap3\n      swap2\n      pop\n      pop\n      jump\t// out\n        /* \"#utility.yul\":16754:17099   */\n    tag_503:\n        /* \"#utility.yul\":16821:16827   */\n      0x00\n        /* \"#utility.yul\":16870:16872   */\n      0x20\n        /* \"#utility.yul\":16858:16867   */\n      dup3\n        /* \"#utility.yul\":16849:16856   */\n      dup5\n        /* \"#utility.yul\":16845:16868   */\n      sub\n        /* \"#utility.yul\":16841:16873   */\n      slt\n        /* \"#utility.yul\":16838:16957   */\n      iszero\n      tag_767\n      jumpi\n        /* \"#utility.yul\":16876:16955   */\n      tag_768\n      tag_558\n      jump\t// in\n    tag_768:\n        /* \"#utility.yul\":16838:16957   */\n    tag_767:\n        /* \"#utility.yul\":16996:16997   */\n      0x00\n        /* \"#utility.yul\":17021:17082   */\n      tag_769\n        /* \"#utility.yul\":17074:17081   */\n      dup5\n        /* \"#utility.yul\":17065:17071   */\n      dup3\n        /* \"#utility.yul\":17054:17063   */\n      dup6\n        /* \"#utility.yul\":17050:17072   */\n      add\n        /* \"#utility.yul\":17021:17082   */\n      tag_586\n      jump\t// in\n    tag_769:\n        /* \"#utility.yul\":17011:17082   */\n      swap2\n      pop\n        /* \"#utility.yul\":16967:17092   */\n      pop\n        /* \"#utility.yul\":16754:17099   */\n      swap3\n      swap2\n      pop\n      pop\n      jump\t// out\n        /* \"#utility.yul\":17105:17437   */\n    tag_544:\n        /* \"#utility.yul\":17226:17230   */\n      0x00\n        /* \"#utility.yul\":17264:17266   */\n      0x40\n        /* \"#utility.yul\":17253:17262   */\n      dup3\n        /* \"#utility.yul\":17249:17267   */\n      add\n        /* \"#utility.yul\":17241:17267   */\n      swap1\n      pop\n        /* \"#utility.yul\":17277:17348   */\n      tag_771\n        /* \"#utility.yul\":17345:17346   */\n      0x00\n        /* \"#utility.yul\":17334:17343   */\n      dup4\n        /* \"#utility.yul\":17330:17347   */\n      add\n        /* \"#utility.yul\":17321:17327   */\n      dup6\n        /* \"#utility.yul\":17277:17348   */\n      tag_571\n      jump\t// in\n    tag_771:\n        /* \"#utility.yul\":17358:17430   */\n      tag_772\n        /* \"#utility.yul\":17426:17428   */\n      0x20\n        /* \"#utility.yul\":17415:17424   */\n      dup4\n        /* \"#utility.yul\":17411:17429   */\n      add\n        /* \"#utility.yul\":17402:17408   */\n      dup5\n        /* \"#utility.yul\":17358:17430   */\n      tag_567\n      jump\t// in\n    tag_772:\n        /* \"#utility.yul\":17105:17437   */\n      swap4\n      swap3\n      pop\n      pop\n      pop\n      jump\t// out\n\n    auxdata: 0xa264697066735822122057fc71f97556903abff185ca864495bcd67b98da3d09c06882ae88e0ada67eb164736f6c63430008180033\n}\n",
				"bytecode": {
					"linkReferences": {},
					"object": "60a060405234801562000010575f80fd5b5060405162003e4e38038062003e4e833981810160405281019062000036919062000406565b335f73ffffffffffffffffffffffffffffffffffffffff168173ffffffffffffffffffffffffffffffffffffffff1603620000aa575f6040517f1e4fbdf7000000000000000000000000000000000000000000000000000000008152600401620000a1919062000486565b60405180910390fd5b620000bb81620002ae60201b60201c565b506001620000de620000d26200036f60201b60201c565b6200039860201b60201c565b5f01819055505f73ffffffffffffffffffffffffffffffffffffffff168473ffffffffffffffffffffffffffffffffffffffff16036200014a576040517fd92e233d00000000000000000000000000000000000000000000000000000000815260040160405180910390fd5b5f73ffffffffffffffffffffffffffffffffffffffff168373ffffffffffffffffffffffffffffffffffffffff1603620001b0576040517fd92e233d00000000000000000000000000000000000000000000000000000000815260040160405180910390fd5b8373ffffffffffffffffffffffffffffffffffffffff1660808173ffffffffffffffffffffffffffffffffffffffff16815250508260015f6101000a81548173ffffffffffffffffffffffffffffffffffffffff021916908373ffffffffffffffffffffffffffffffffffffffff1602179055508160025f6101000a81548173ffffffffffffffffffffffffffffffffffffffff021916908373ffffffffffffffffffffffffffffffffffffffff1602179055508060035f6101000a81548173ffffffffffffffffffffffffffffffffffffffff021916908373ffffffffffffffffffffffffffffffffffffffff16021790555050505050620004a1565b5f805f9054906101000a900473ffffffffffffffffffffffffffffffffffffffff169050815f806101000a81548173ffffffffffffffffffffffffffffffffffffffff021916908373ffffffffffffffffffffffffffffffffffffffff1602179055508173ffffffffffffffffffffffffffffffffffffffff168173ffffffffffffffffffffffffffffffffffffffff167f8be0079c531659141344cd1fd0a4f28419497f9722a3daafe3b4186f6b6457e060405160405180910390a35050565b5f7f9b779b17422d0df92223018b32b4d1fa46e071723d6817e2486d003becc55f005f1b905090565b5f819050919050565b5f80fd5b5f73ffffffffffffffffffffffffffffffffffffffff82169050919050565b5f620003d082620003a5565b9050919050565b620003e281620003c4565b8114620003ed575f80fd5b50565b5f815190506200040081620003d7565b92915050565b5f805f8060808587031215620004215762000420620003a1565b5b5f6200043087828801620003f0565b94505060206200044387828801620003f0565b93505060406200045687828801620003f0565b92505060606200046987828801620003f0565b91505092959194509250565b6200048081620003c4565b82525050565b5f6020820190506200049b5f83018462000475565b92915050565b608051613986620004c85f395f8181610ebd01528181610ee40152611a1301526139865ff3fe60806040526004361061019f575f3560e01c806392eaa9d9116100eb578063e1a4521811610089578063f0f4426011610063578063f0f44260146105d7578063f13afb90146105ff578063f2fde38b14610627578063f305d7191461064f576101a6565b8063e1a4521814610533578063e8e337001461055d578063e98f67971461059b576101a6565b8063baa2abde116100c5578063baa2abde14610465578063be378228146104a2578063c45a0155146104cc578063d52bb6f4146104f6576101a6565b806392eaa9d9146103d7578063ad615dec14610401578063b8d1452f1461043d576101a6565b80635364276d11610158578063715018a611610132578063715018a6146103455780638456cb591461035b57806385f8c259146103715780638da5cb5b146103ad576101a6565b80635364276d146102c75780635c975abb146102f157806361d027b31461031b576101a6565b806302751cec146101aa578063054d50d4146101e757806327b23849146102235780633824659c1461024b5780633f4ba83a146102875780633fc8cef31461029d576101a6565b366101a657005b5f80fd5b3480156101b5575f80fd5b506101d060048036038101906101cb91906130ff565b610681565b6040516101de929190613197565b60405180910390f35b3480156101f2575f80fd5b5061020d600480360381019061020891906131be565b6107e1565b60405161021a919061320e565b60405180910390f35b34801561022e575f80fd5b5061024960048036038101906102449190613227565b6107f6565b005b348015610256575f80fd5b50610271600480360381019061026c9190613287565b610884565b60405161027e919061320e565b60405180910390f35b348015610292575f80fd5b5061029b610a49565b005b3480156102a8575f80fd5b506102b1610ab0565b6040516102be9190613333565b60405180910390f35b3480156102d2575f80fd5b506102db610ad5565b6040516102e89190613333565b60405180910390f35b3480156102fc575f80fd5b50610305610afa565b604051610312919061335b565b60405180910390f35b348015610326575f80fd5b5061032f610b0d565b60405161033c9190613333565b60405180910390f35b348015610350575f80fd5b50610359610b32565b005b348015610366575f80fd5b5061036f610b45565b005b34801561037c575f80fd5b50610397600480360381019061039291906131be565b610bad565b6040516103a4919061320e565b60405180910390f35b3480156103b8575f80fd5b506103c1610bc2565b6040516103ce9190613333565b60405180910390f35b3480156103e2575f80fd5b506103eb610be9565b6040516103f89190613333565b60405180910390f35b34801561040c575f80fd5b50610427600480360381019061042291906131be565b610c0e565b604051610434919061320e565b60405180910390f35b348015610448575f80fd5b50610463600480360381019061045e9190613227565b610c23565b005b348015610470575f80fd5b5061048b60048036038101906104869190613374565b610cd3565b604051610499929190613197565b60405180910390f35b3480156104ad575f80fd5b506104b6610eb6565b6040516104c3919061320e565b60405180910390f35b3480156104d7575f80fd5b506104e0610ebb565b6040516104ed9190613333565b60405180910390f35b348015610501575f80fd5b5061051c60048036038101906105179190613411565b610edf565b60405161052a929190613197565b60405180910390f35b34801561053e575f80fd5b50610547610fd4565b604051610554919061320e565b60405180910390f35b348015610568575f80fd5b50610583600480360381019061057e919061344f565b610fda565b60405161059293929190613500565b60405180910390f35b3480156105a6575f80fd5b506105c160048036038101906105bc9190613287565b61113e565b6040516105ce919061320e565b60405180910390f35b3480156105e2575f80fd5b506105fd60048036038101906105f89190613227565b6112f6565b005b34801561060a575f80fd5b5061062560048036038101906106209190613227565b611421565b005b348015610632575f80fd5b5061064d60048036038101906106489190613227565b6114af565b005b610669600480360381019061066491906130ff565b611533565b60405161067893929190613500565b60405180910390f35b5f8061068b611739565b82804211156106d157806040517ff80dbaea0000000000000000000000000000000000000000000000000000000081526004016106c8919061320e565b60405180910390fd5b5f73ffffffffffffffffffffffffffffffffffffffff1660045f9054906101000a900473ffffffffffffffffffffffffffffffffffffffff1673ffffffffffffffffffffffffffffffffffffffff1603610757576040517f0dc08fa200000000000000000000000000000000000000000000000000000000815260040160405180910390fd5b5f73ffffffffffffffffffffffffffffffffffffffff168573ffffffffffffffffffffffffffffffffffffffff16036107bc576040517fd92e233d00000000000000000000000000000000000000000000000000000000815260040160405180910390fd5b6107c9898989898961175b565b92509250506107d66118d6565b965096945050505050565b5f6107ed8484846118f0565b90509392505050565b6107fe611989565b8060035f6101000a81548173ffffffffffffffffffffffffffffffffffffffff021916908373ffffffffffffffffffffffffffffffffffffffff1602179055508073ffffffffffffffffffffffffffffffffffffffff167f89386b8711bad3ec737a1746dbcc52de03de68add300345f9acb944c28ae03f360405160405180910390a250565b5f61088d611739565b600360149054906101000a900460ff16156108d4576040517ff562b5a000000000000000000000000000000000000000000000000000000000815260040160405180910390fd5b828042111561091a57806040517ff80dbaea000000000000000000000000000000000000000000000000000000008152600401610911919061320e565b60405180910390fd5b5f8903610953576040517f1f2a200500000000000000000000000000000000000000000000000000000000815260040160405180910390fd5b5f73ffffffffffffffffffffffffffffffffffffffff168573ffffffffffffffffffffffffffffffffffffffff16036109b8576040517fd92e233d00000000000000000000000000000000000000000000000000000000815260040160405180910390fd5b5f806109cd6109c78a8a611a10565b8a611b25565b915091506109dc8b83836118f0565b935089841015610a2557838a6040517fd28d3eb5000000000000000000000000000000000000000000000000000000008152600401610a1c929190613197565b60405180910390fd5b610a3389898d878b8a611c95565b505050610a3e6118d6565b979650505050505050565b610a51611989565b5f600360146101000a81548160ff0219169083151502179055503373ffffffffffffffffffffffffffffffffffffffff167f5db9ee0a495bf2e6ff9c91a7834c1ba4fdd244a5e8aa4e537bd38aeae4b073aa60405160405180910390a2565b60045f9054906101000a900473ffffffffffffffffffffffffffffffffffffffff1681565b60035f9054906101000a900473ffffffffffffffffffffffffffffffffffffffff1681565b600360149054906101000a900460ff1681565b60015f9054906101000a900473ffffffffffffffffffffffffffffffffffffffff1681565b610b3a611989565b610b435f611d39565b565b610b4d611989565b6001600360146101000a81548160ff0219169083151502179055503373ffffffffffffffffffffffffffffffffffffffff167f62e78cea01bee320cd4e420270b5ea74000d11b0c9f74754ebdbfc544b05a25860405160405180910390a2565b5f610bb9848484611dfa565b90509392505050565b5f805f9054906101000a900473ffffffffffffffffffffffffffffffffffffffff16905090565b60025f9054906101000a900473ffffffffffffffffffffffffffffffffffffffff1681565b5f610c1a848484611e9a565b90509392505050565b610c2b611989565b5f73ffffffffffffffffffffffffffffffffffffffff168173ffffffffffffffffffffffffffffffffffffffff1603610c90576040517fd92e233d00000000000000000000000000000000000000000000000000000000815260040160405180910390fd5b8060045f6101000a81548173ffffffffffffffffffffffffffffffffffffffff021916908373ffffffffffffffffffffffffffffffffffffffff16021790555050565b5f80610cdd611739565b8280421115610d2357806040517ff80dbaea000000000000000000000000000000000000000000000000000000008152600401610d1a919061320e565b60405180910390fd5b5f73ffffffffffffffffffffffffffffffffffffffff168573ffffffffffffffffffffffffffffffffffffffff1603610d88576040517fd92e233d00000000000000000000000000000000000000000000000000000000815260040160405180910390fd5b5f610d938b8b611a10565b9050610da1818c8b89611f09565b809450819550505087841015610df05783886040517f47c5f09e000000000000000000000000000000000000000000000000000000008152600401610de7929190613197565b60405180910390fd5b86831015610e375782876040517f51959667000000000000000000000000000000000000000000000000000000008152600401610e2e929190613197565b60405180910390fd5b3373ffffffffffffffffffffffffffffffffffffffff168173ffffffffffffffffffffffffffffffffffffffff167fbc7d19d505c7ec4db83f3b51f19fb98c4c8a99922e7839d1ee608dfbee29501b86868d604051610e9893929190613500565b60405180910390a35050610eaa6118d6565b97509795505050505050565b600581565b7f000000000000000000000000000000000000000000000000000000000000000081565b5f805f7f000000000000000000000000000000000000000000000000000000000000000073ffffffffffffffffffffffffffffffffffffffff1663b4f69a2f86866040518363ffffffff1660e01b8152600401610f3d929190613535565b602060405180830381865afa158015610f58573d5f803e3d5ffd5b505050506040513d601f19601f82011682018060405250810190610f7c9190613570565b90505f73ffffffffffffffffffffffffffffffffffffffff168173ffffffffffffffffffffffffffffffffffffffff1603610fbd575f809250925050610fcd565b610fc78186611b25565b92509250505b9250929050565b61271081565b5f805f610fe5611739565b600360149054906101000a900460ff161561102c576040517ff562b5a000000000000000000000000000000000000000000000000000000000815260040160405180910390fd5b838042111561107257806040517ff80dbaea000000000000000000000000000000000000000000000000000000008152600401611069919061320e565b60405180910390fd5b5f73ffffffffffffffffffffffffffffffffffffffff168673ffffffffffffffffffffffffffffffffffffffff16036110d7576040517fd92e233d00000000000000000000000000000000000000000000000000000000815260040160405180910390fd5b5f60405180608001604052808c81526020018b81526020018a81526020018981525090505f6111078e8e84612072565b905080602001519550806040015194506111238e8e838b6120e1565b93505050506111306118d6565b985098509895505050505050565b5f611147611739565b600360149054906101000a900460ff161561118e576040517ff562b5a000000000000000000000000000000000000000000000000000000000815260040160405180910390fd5b82804211156111d457806040517ff80dbaea0000000000000000000000000000000000000000000000000000000081526004016111cb919061320e565b60405180910390fd5b5f890361120d576040517f1f2a200500000000000000000000000000000000000000000000000000000000815260040160405180910390fd5b5f73ffffffffffffffffffffffffffffffffffffffff168573ffffffffffffffffffffffffffffffffffffffff1603611272576040517fd92e233d00000000000000000000000000000000000000000000000000000000815260040160405180910390fd5b5f806112876112818a8a611a10565b8a611b25565b915091506112968b8383611dfa565b9350898411156112d2576040517fe1b0da4f00000000000000000000000000000000000000000000000000000000815260040160405180910390fd5b6112e08989868e8b8a611c95565b5050506112eb6118d6565b979650505050505050565b6112fe611989565b5f73ffffffffffffffffffffffffffffffffffffffff168173ffffffffffffffffffffffffffffffffffffffff1603611363576040517fd92e233d00000000000000000000000000000000000000000000000000000000815260040160405180910390fd5b8073ffffffffffffffffffffffffffffffffffffffff1660015f9054906101000a900473ffffffffffffffffffffffffffffffffffffffff1673ffffffffffffffffffffffffffffffffffffffff167f4ab5be82436d353e61ca18726e984e561f5c1cc7c6d38b29d2553c790434705a60405160405180910390a38060015f6101000a81548173ffffffffffffffffffffffffffffffffffffffff021916908373ffffffffffffffffffffffffffffffffffffffff16021790555050565b611429611989565b8060025f6101000a81548173ffffffffffffffffffffffffffffffffffffffff021916908373ffffffffffffffffffffffffffffffffffffffff1602179055508073ffffffffffffffffffffffffffffffffffffffff167f34b668b6f49e81b64bdb88c7de7501c0a197d9b12c46848ef3bcd5915284321060405160405180910390a250565b6114b7611989565b5f73ffffffffffffffffffffffffffffffffffffffff168173ffffffffffffffffffffffffffffffffffffffff1603611527575f6040517f1e4fbdf700000000000000000000000000000000000000000000000000000000815260040161151e9190613333565b60405180910390fd5b61153081611d39565b50565b5f805f61153e611739565b600360149054906101000a900460ff1615611585576040517ff562b5a000000000000000000000000000000000000000000000000000000000815260040160405180910390fd5b83804211156115cb57806040517ff80dbaea0000000000000000000000000000000000000000000000000000000081526004016115c2919061320e565b60405180910390fd5b5f73ffffffffffffffffffffffffffffffffffffffff1660045f9054906101000a900473ffffffffffffffffffffffffffffffffffffffff1673ffffffffffffffffffffffffffffffffffffffff1603611651576040517f0dc08fa200000000000000000000000000000000000000000000000000000000815260040160405180910390fd5b5f73ffffffffffffffffffffffffffffffffffffffff168673ffffffffffffffffffffffffffffffffffffffff16036116b6576040517fd92e233d00000000000000000000000000000000000000000000000000000000815260040160405180910390fd5b5f34036116ef576040517f1f2a200500000000000000000000000000000000000000000000000000000000815260040160405180910390fd5b5f6116fd8b8b348c8c612244565b905080602001519450806040015193506117188b82896122eb565b92506117238461242a565b505061172d6118d6565b96509650969350505050565b6117416124e1565b600261175361174e612522565b61254b565b5f0181905550565b5f805f6117898860045f9054906101000a900473ffffffffffffffffffffffffffffffffffffffff16611a10565b905061179781898930611f09565b8093508194505050858310156117e65782866040517f47c5f09e0000000000000000000000000000000000000000000000000000000081526004016117dd929190613197565b60405180910390fd5b8482101561182d5781856040517f51959667000000000000000000000000000000000000000000000000000000008152600401611824929190613197565b60405180910390fd5b61185884848a73ffffffffffffffffffffffffffffffffffffffff166125549092919063ffffffff16565b61186284836125a7565b3373ffffffffffffffffffffffffffffffffffffffff168173ffffffffffffffffffffffffffffffffffffffff167fbc7d19d505c7ec4db83f3b51f19fb98c4c8a99922e7839d1ee608dfbee29501b85858b6040516118c393929190613500565b60405180910390a3509550959350505050565b60016118e86118e3612522565b61254b565b5f0181905550565b5f808414806118fe57505f83145b8061190857505f82145b1561193f576040517f1f2a200500000000000000000000000000000000000000000000000000000000815260040160405180910390fd5b5f6103e58561194e91906135c8565b9050806103e88561195f91906135c8565b6119699190613609565b838261197591906135c8565b61197f9190613669565b9150509392505050565b6119916126d2565b73ffffffffffffffffffffffffffffffffffffffff166119af610bc2565b73ffffffffffffffffffffffffffffffffffffffff1614611a0e576119d26126d2565b6040517f118cdaa7000000000000000000000000000000000000000000000000000000008152600401611a059190613333565b60405180910390fd5b565b5f7f000000000000000000000000000000000000000000000000000000000000000073ffffffffffffffffffffffffffffffffffffffff1663b4f69a2f84846040518363ffffffff1660e01b8152600401611a6c929190613535565b602060405180830381865afa158015611a87573d5f803e3d5ffd5b505050506040513d601f19601f82011682018060405250810190611aab9190613570565b90505f73ffffffffffffffffffffffffffffffffffffffff168173ffffffffffffffffffffffffffffffffffffffff1603611b1f5782826040517f4db171d4000000000000000000000000000000000000000000000000000000008152600401611b16929190613535565b60405180910390fd5b92915050565b5f805f808573ffffffffffffffffffffffffffffffffffffffff16630902f1ac6040518163ffffffff1660e01b8152600401606060405180830381865afa158015611b72573d5f803e3d5ffd5b505050506040513d601f19601f82011682018060405250810190611b969190613715565b50915091508573ffffffffffffffffffffffffffffffffffffffff16630dfe16816040518163ffffffff1660e01b8152600401602060405180830381865afa158015611be4573d5f803e3d5ffd5b505050506040513d601f19601f82011682018060405250810190611c089190613570565b73ffffffffffffffffffffffffffffffffffffffff168573ffffffffffffffffffffffffffffffffffffffff1614611c6157806dffffffffffffffffffffffffffff16826dffffffffffffffffffffffffffff16611c84565b816dffffffffffffffffffffffffffff16816dffffffffffffffffffffffffffff165b809450819550505050509250929050565b5f611ca08787611a10565b9050611ccf3382878a73ffffffffffffffffffffffffffffffffffffffff166126d9909392919063ffffffff16565b611cd9878661272e565b611ce581888686612886565b611cef87836129ac565b7f300b4a9ac356114be2eaffe0f530cd615f14560df4b634adc11142d1358e8976338888888888604051611d2896959493929190613765565b60405180910390a150505050505050565b5f805f9054906101000a900473ffffffffffffffffffffffffffffffffffffffff169050815f806101000a81548173ffffffffffffffffffffffffffffffffffffffff021916908373ffffffffffffffffffffffffffffffffffffffff1602179055508173ffffffffffffffffffffffffffffffffffffffff168173ffffffffffffffffffffffffffffffffffffffff167f8be0079c531659141344cd1fd0a4f28419497f9722a3daafe3b4186f6b6457e060405160405180910390a35050565b5f80841480611e0857505f83145b80611e1257505f82145b15611e49576040517f1f2a200500000000000000000000000000000000000000000000000000000000815260040160405180910390fd5b60016103e58584611e5a91906137c4565b611e6491906135c8565b6103e88686611e7391906135c8565b611e7d91906135c8565b611e879190613669565b611e919190613609565b90509392505050565b5f80841480611ea857505f83145b80611eb257505f82145b15611ee9576040517f1f2a200500000000000000000000000000000000000000000000000000000000815260040160405180910390fd5b828285611ef691906135c8565b611f009190613669565b90509392505050565b5f80611f383387868973ffffffffffffffffffffffffffffffffffffffff166126d9909392919063ffffffff16565b5f808773ffffffffffffffffffffffffffffffffffffffff166389afcb44866040518263ffffffff1660e01b8152600401611f739190613333565b60408051808303815f875af1158015611f8e573d5f803e3d5ffd5b505050506040513d601f19601f82011682018060405250810190611fb2919061380b565b915091508773ffffffffffffffffffffffffffffffffffffffff16630dfe16816040518163ffffffff1660e01b8152600401602060405180830381865afa158015611fff573d5f803e3d5ffd5b505050506040513d601f19601f820116820180604052508101906120239190613570565b73ffffffffffffffffffffffffffffffffffffffff168773ffffffffffffffffffffffffffffffffffffffff161461205c57808261205f565b81815b8094508195505050505094509492505050565b61207a61303a565b6120848484611a10565b815f019073ffffffffffffffffffffffffffffffffffffffff16908173ffffffffffffffffffffffffffffffffffffffff16815250506120c8815f01518584612c78565b8260200183604001828152508281525050509392505050565b5f61211633845f015185602001518873ffffffffffffffffffffffffffffffffffffffff166126d9909392919063ffffffff16565b61214a33845f015185604001518773ffffffffffffffffffffffffffffffffffffffff166126d9909392919063ffffffff16565b825f015173ffffffffffffffffffffffffffffffffffffffff16636a627842836040518263ffffffff1660e01b81526004016121869190613333565b6020604051808303815f875af11580156121a2573d5f803e3d5ffd5b505050506040513d601f19601f820116820180604052508101906121c69190613849565b90503373ffffffffffffffffffffffffffffffffffffffff16835f015173ffffffffffffffffffffffffffffffffffffffff167f4a1a2a6176e9646d9e3157f7c2ab3c499f18337c0b0828cfb28e0a61de4a11f7856020015186604001518560405161223493929190613500565b60405180910390a3949350505050565b61224c61303a565b6122778660045f9054906101000a900473ffffffffffffffffffffffffffffffffffffffff16611a10565b815f019073ffffffffffffffffffffffffffffffffffffffff16908173ffffffffffffffffffffffffffffffffffffffff16815250505f806122bc835f015189611b25565b915091506122ce878787878686612cb5565b846020018560400182815250828152505050505095945050505050565b5f61232033845f015185602001518773ffffffffffffffffffffffffffffffffffffffff166126d9909392919063ffffffff16565b612331835f01518460400151612da6565b825f015173ffffffffffffffffffffffffffffffffffffffff16636a627842836040518263ffffffff1660e01b815260040161236d9190613333565b6020604051808303815f875af1158015612389573d5f803e3d5ffd5b505050506040513d601f19601f820116820180604052508101906123ad9190613849565b90503373ffffffffffffffffffffffffffffffffffffffff16835f015173ffffffffffffffffffffffffffffffffffffffff167f4a1a2a6176e9646d9e3157f7c2ab3c499f18337c0b0828cfb28e0a61de4a11f7856020015186604001518560405161241b93929190613500565b60405180910390a39392505050565b803411156124de575f3373ffffffffffffffffffffffffffffffffffffffff16823461245691906137c4565b604051612462906138a1565b5f6040518083038185875af1925050503d805f811461249c576040519150601f19603f3d011682016040523d82523d5f602084013e6124a1565b606091505b50509050806124dc576040517ff0c49d4400000000000000000000000000000000000000000000000000000000815260040160405180910390fd5b505b50565b6124e9612f4b565b15612520576040517f3ee5aeb500000000000000000000000000000000000000000000000000000000815260040160405180910390fd5b565b5f7f9b779b17422d0df92223018b32b4d1fa46e071723d6817e2486d003becc55f005f1b905090565b5f819050919050565b6125618383836001612f67565b6125a257826040517f5274afe70000000000000000000000000000000000000000000000000000000081526004016125999190613333565b60405180910390fd5b505050565b60045f9054906101000a900473ffffffffffffffffffffffffffffffffffffffff1673ffffffffffffffffffffffffffffffffffffffff16632e1a7d4d826040518263ffffffff1660e01b8152600401612601919061320e565b5f604051808303815f87803b158015612618575f80fd5b505af115801561262a573d5f803e3d5ffd5b505050505f8273ffffffffffffffffffffffffffffffffffffffff1682604051612653906138a1565b5f6040518083038185875af1925050503d805f811461268d576040519150601f19603f3d011682016040523d82523d5f602084013e612692565b606091505b50509050806126cd576040517ff0c49d4400000000000000000000000000000000000000000000000000000000815260040160405180910390fd5b505050565b5f33905090565b6126e7848484846001612fc9565b61272857836040517f5274afe700000000000000000000000000000000000000000000000000000000815260040161271f9190613333565b60405180910390fd5b50505050565b5f61271060058361273f91906135c8565b6127499190613669565b90505f811180156127a757505f73ffffffffffffffffffffffffffffffffffffffff1660015f9054906101000a900473ffffffffffffffffffffffffffffffffffffffff1673ffffffffffffffffffffffffffffffffffffffff1614155b15612881576127fa3360015f9054906101000a900473ffffffffffffffffffffffffffffffffffffffff16838673ffffffffffffffffffffffffffffffffffffffff166126d9909392919063ffffffff16565b8273ffffffffffffffffffffffffffffffffffffffff1660015f9054906101000a900473ffffffffffffffffffffffffffffffffffffffff1673ffffffffffffffffffffffffffffffffffffffff167f493fdd1f2099b9854729d46428ce244dbb655e5209e74967fd51b0f0e9fe4e1e83604051612878919061320e565b60405180910390a35b505050565b5f8373ffffffffffffffffffffffffffffffffffffffff168573ffffffffffffffffffffffffffffffffffffffff16630dfe16816040518163ffffffff1660e01b8152600401602060405180830381865afa1580156128e7573d5f803e3d5ffd5b505050506040513d601f19601f8201168201806040525081019061290b9190613570565b73ffffffffffffffffffffffffffffffffffffffff161490505f808261293257845f612935565b5f855b915091508673ffffffffffffffffffffffffffffffffffffffff16636d9a640a8383876040518463ffffffff1660e01b8152600401612976939291906138b5565b5f604051808303815f87803b15801561298d575f80fd5b505af115801561299f573d5f803e3d5ffd5b5050505050505050505050565b8015612c74575f73ffffffffffffffffffffffffffffffffffffffff1660035f9054906101000a900473ffffffffffffffffffffffffffffffffffffffff1673ffffffffffffffffffffffffffffffffffffffff160315612c74575f73ffffffffffffffffffffffffffffffffffffffff1660025f9054906101000a900473ffffffffffffffffffffffffffffffffffffffff1673ffffffffffffffffffffffffffffffffffffffff160315612c745760025f9054906101000a900473ffffffffffffffffffffffffffffffffffffffff1673ffffffffffffffffffffffffffffffffffffffff166366e305fd836040518263ffffffff1660e01b8152600401612ab69190613333565b602060405180830381865afa925050508015612af057506040513d601f19601f82011682018060405250810190612aed91906138fe565b60015b15612c745780612b005750612c74565b5060035f9054906101000a900473ffffffffffffffffffffffffffffffffffffffff1673ffffffffffffffffffffffffffffffffffffffff1663c33b75866040518163ffffffff1660e01b8152600401602060405180830381865afa925050508015612b8a57506040513d601f19601f82011682018060405250810190612b8791906138fe565b60015b15612c74578015612b9b5750612c74565b5060035f9054906101000a900473ffffffffffffffffffffffffffffffffffffffff1673ffffffffffffffffffffffffffffffffffffffff16630b7a567b6040518163ffffffff1660e01b81526004015f604051808303815f87803b158015612c02575f80fd5b505af1925050508015612c13575060015b15612c73578173ffffffffffffffffffffffffffffffffffffffff163373ffffffffffffffffffffffffffffffffffffffff167fc991fdc6f1d37402cf43cd51be704037ef268e0e50a068c178918a86b191923860405160405180910390a35b5b5050565b5f805f80612c868787611b25565b91509150612ca7855f01518660200151876040015188606001518686612cb5565b935093505050935093915050565b5f805f84148015612cc557505f83145b15612cd557878791509150612d9b565b5f612ce1898686611e9a565b9050878111612d3d5785811015612d315780866040517f51959667000000000000000000000000000000000000000000000000000000008152600401612d28929190613197565b60405180910390fd5b88819250925050612d9b565b5f612d49898688611e9a565b905087811015612d925780886040517f47c5f09e000000000000000000000000000000000000000000000000000000008152600401612d89929190613197565b60405180910390fd5b80899350935050505b965096945050505050565b5f73ffffffffffffffffffffffffffffffffffffffff1660045f9054906101000a900473ffffffffffffffffffffffffffffffffffffffff1673ffffffffffffffffffffffffffffffffffffffff1603612e2c576040517f0dc08fa200000000000000000000000000000000000000000000000000000000815260040160405180910390fd5b60045f9054906101000a900473ffffffffffffffffffffffffffffffffffffffff1673ffffffffffffffffffffffffffffffffffffffff1663d0e30db0826040518263ffffffff1660e01b81526004015f604051808303818588803b158015612e93575f80fd5b505af1158015612ea5573d5f803e3d5ffd5b505050505060045f9054906101000a900473ffffffffffffffffffffffffffffffffffffffff1673ffffffffffffffffffffffffffffffffffffffff1663a9059cbb83836040518363ffffffff1660e01b8152600401612f06929190613929565b6020604051808303815f875af1158015612f22573d5f803e3d5ffd5b505050506040513d601f19601f82011682018060405250810190612f4691906138fe565b505050565b5f6002612f5e612f59612522565b61254b565b5f015414905090565b5f8063a9059cbb60e01b9050604051815f525f1960601c86166004528460245260205f60445f808b5af1925060015f51148316612fbb578383151615612faf573d5f823e3d81fd5b5f873b113d1516831692505b806040525050949350505050565b5f806323b872dd60e01b9050604051815f525f1960601c87166004525f1960601c86166024528460445260205f60645f808c5af1925060015f5114831661302757838315161561301b573d5f823e3d81fd5b5f883b113d1516831692505b806040525f606052505095945050505050565b60405180606001604052805f73ffffffffffffffffffffffffffffffffffffffff1681526020015f81526020015f81525090565b5f80fd5b5f73ffffffffffffffffffffffffffffffffffffffff82169050919050565b5f61309b82613072565b9050919050565b6130ab81613091565b81146130b5575f80fd5b50565b5f813590506130c6816130a2565b92915050565b5f819050919050565b6130de816130cc565b81146130e8575f80fd5b50565b5f813590506130f9816130d5565b92915050565b5f805f805f8060c087890312156131195761311861306e565b5b5f61312689828a016130b8565b965050602061313789828a016130eb565b955050604061314889828a016130eb565b945050606061315989828a016130eb565b935050608061316a89828a016130b8565b92505060a061317b89828a016130eb565b9150509295509295509295565b613191816130cc565b82525050565b5f6040820190506131aa5f830185613188565b6131b76020830184613188565b9392505050565b5f805f606084860312156131d5576131d461306e565b5b5f6131e2868287016130eb565b93505060206131f3868287016130eb565b9250506040613204868287016130eb565b9150509250925092565b5f6020820190506132215f830184613188565b92915050565b5f6020828403121561323c5761323b61306e565b5b5f613249848285016130b8565b91505092915050565b5f8115159050919050565b61326681613252565b8114613270575f80fd5b50565b5f813590506132818161325d565b92915050565b5f805f805f805f60e0888a0312156132a2576132a161306e565b5b5f6132af8a828b016130eb565b97505060206132c08a828b016130eb565b96505060406132d18a828b016130b8565b95505060606132e28a828b016130b8565b94505060806132f38a828b016130b8565b93505060a06133048a828b016130eb565b92505060c06133158a828b01613273565b91505092959891949750929550565b61332d81613091565b82525050565b5f6020820190506133465f830184613324565b92915050565b61335581613252565b82525050565b5f60208201905061336e5f83018461334c565b92915050565b5f805f805f805f60e0888a03121561338f5761338e61306e565b5b5f61339c8a828b016130b8565b97505060206133ad8a828b016130b8565b96505060406133be8a828b016130eb565b95505060606133cf8a828b016130eb565b94505060806133e08a828b016130eb565b93505060a06133f18a828b016130b8565b92505060c06134028a828b016130eb565b91505092959891949750929550565b5f80604083850312156134275761342661306e565b5b5f613434858286016130b8565b9250506020613445858286016130b8565b9150509250929050565b5f805f805f805f80610100898b03121561346c5761346b61306e565b5b5f6134798b828c016130b8565b985050602061348a8b828c016130b8565b975050604061349b8b828c016130eb565b96505060606134ac8b828c016130eb565b95505060806134bd8b828c016130eb565b94505060a06134ce8b828c016130eb565b93505060c06134df8b828c016130b8565b92505060e06134f08b828c016130eb565b9150509295985092959890939650565b5f6060820190506135135f830186613188565b6135206020830185613188565b61352d6040830184613188565b949350505050565b5f6040820190506135485f830185613324565b6135556020830184613324565b9392505050565b5f8151905061356a816130a2565b92915050565b5f602082840312156135855761358461306e565b5b5f6135928482850161355c565b91505092915050565b7f4e487b71000000000000000000000000000000000000000000000000000000005f52601160045260245ffd5b5f6135d2826130cc565b91506135dd836130cc565b92508282026135eb816130cc565b915082820484148315176136025761360161359b565b5b5092915050565b5f613613826130cc565b915061361e836130cc565b92508282019050808211156136365761363561359b565b5b92915050565b7f4e487b71000000000000000000000000000000000000000000000000000000005f52601260045260245ffd5b5f613673826130cc565b915061367e836130cc565b92508261368e5761368d61363c565b5b828204905092915050565b5f6dffffffffffffffffffffffffffff82169050919050565b6136bb81613699565b81146136c5575f80fd5b50565b5f815190506136d6816136b2565b92915050565b5f63ffffffff82169050919050565b6136f4816136dc565b81146136fe575f80fd5b50565b5f8151905061370f816136eb565b92915050565b5f805f6060848603121561372c5761372b61306e565b5b5f613739868287016136c8565b935050602061374a868287016136c8565b925050604061375b86828701613701565b9150509250925092565b5f60c0820190506137785f830189613324565b6137856020830188613324565b6137926040830187613324565b61379f6060830186613188565b6137ac6080830185613188565b6137b960a0830184613324565b979650505050505050565b5f6137ce826130cc565b91506137d9836130cc565b92508282039050818111156137f1576137f061359b565b5b92915050565b5f81519050613805816130d5565b92915050565b5f80604083850312156138215761382061306e565b5b5f61382e858286016137f7565b925050602061383f858286016137f7565b9150509250929050565b5f6020828403121561385e5761385d61306e565b5b5f61386b848285016137f7565b91505092915050565b5f81905092915050565b50565b5f61388c5f83613874565b91506138978261387e565b5f82019050919050565b5f6138ab82613881565b9150819050919050565b5f6060820190506138c85f830186613188565b6138d56020830185613188565b6138e26040830184613324565b949350505050565b5f815190506138f88161325d565b92915050565b5f602082840312156139135761391261306e565b5b5f613920848285016138ea565b91505092915050565b5f60408201905061393c5f830185613324565b6139496020830184613188565b939250505056fea264697066735822122057fc71f97556903abff185ca864495bcd67b98da3d09c06882ae88e0ada67eb164736f6c63430008180033",
					"opcodes": "PUSH1 0xA0 PUSH1 0x40 MSTORE CALLVALUE DUP1 ISZERO PUSH3 0x10 JUMPI PUSH0 DUP1 REVERT JUMPDEST POP PUSH1 0x40 MLOAD PUSH3 0x3E4E CODESIZE SUB DUP1 PUSH3 0x3E4E DUP4 CODECOPY DUP2 DUP2 ADD PUSH1 0x40 MSTORE DUP2 ADD SWAP1 PUSH3 0x36 SWAP2 SWAP1 PUSH3 0x406 JUMP JUMPDEST CALLER PUSH0 PUSH20 0xFFFFFFFFFFFFFFFFFFFFFFFFFFFFFFFFFFFFFFFF AND DUP2 PUSH20 0xFFFFFFFFFFFFFFFFFFFFFFFFFFFFFFFFFFFFFFFF AND SUB PUSH3 0xAA JUMPI PUSH0 PUSH1 0x40 MLOAD PUSH32 0x1E4FBDF700000000000000000000000000000000000000000000000000000000 DUP2 MSTORE PUSH1 0x4 ADD PUSH3 0xA1 SWAP2 SWAP1 PUSH3 0x486 JUMP JUMPDEST PUSH1 0x40 MLOAD DUP1 SWAP2 SUB SWAP1 REVERT JUMPDEST PUSH3 0xBB DUP2 PUSH3 0x2AE PUSH1 0x20 SHL PUSH1 0x20 SHR JUMP JUMPDEST POP PUSH1 0x1 PUSH3 0xDE PUSH3 0xD2 PUSH3 0x36F PUSH1 0x20 SHL PUSH1 0x20 SHR JUMP JUMPDEST PUSH3 0x398 PUSH1 0x20 SHL PUSH1 0x20 SHR JUMP JUMPDEST PUSH0 ADD DUP2 SWAP1 SSTORE POP PUSH0 PUSH20 0xFFFFFFFFFFFFFFFFFFFFFFFFFFFFFFFFFFFFFFFF AND DUP5 PUSH20 0xFFFFFFFFFFFFFFFFFFFFFFFFFFFFFFFFFFFFFFFF AND SUB PUSH3 0x14A JUMPI PUSH1 0x40 MLOAD PUSH32 0xD92E233D00000000000000000000000000000000000000000000000000000000 DUP2 MSTORE PUSH1 0x4 ADD PUSH1 0x40 MLOAD DUP1 SWAP2 SUB SWAP1 REVERT JUMPDEST PUSH0 PUSH20 0xFFFFFFFFFFFFFFFFFFFFFFFFFFFFFFFFFFFFFFFF AND DUP4 PUSH20 0xFFFFFFFFFFFFFFFFFFFFFFFFFFFFFFFFFFFFFFFF AND SUB PUSH3 0x1B0 JUMPI PUSH1 0x40 MLOAD PUSH32 0xD92E233D00000000000000000000000000000000000000000000000000000000 DUP2 MSTORE PUSH1 0x4 ADD PUSH1 0x40 MLOAD DUP1 SWAP2 SUB SWAP1 REVERT JUMPDEST DUP4 PUSH20 0xFFFFFFFFFFFFFFFFFFFFFFFFFFFFFFFFFFFFFFFF AND PUSH1 0x80 DUP2 PUSH20 0xFFFFFFFFFFFFFFFFFFFFFFFFFFFFFFFFFFFFFFFF AND DUP2 MSTORE POP POP DUP3 PUSH1 0x1 PUSH0 PUSH2 0x100 EXP DUP2 SLOAD DUP2 PUSH20 0xFFFFFFFFFFFFFFFFFFFFFFFFFFFFFFFFFFFFFFFF MUL NOT AND SWAP1 DUP4 PUSH20 0xFFFFFFFFFFFFFFFFFFFFFFFFFFFFFFFFFFFFFFFF AND MUL OR SWAP1 SSTORE POP DUP2 PUSH1 0x2 PUSH0 PUSH2 0x100 EXP DUP2 SLOAD DUP2 PUSH20 0xFFFFFFFFFFFFFFFFFFFFFFFFFFFFFFFFFFFFFFFF MUL NOT AND SWAP1 DUP4 PUSH20 0xFFFFFFFFFFFFFFFFFFFFFFFFFFFFFFFFFFFFFFFF AND MUL OR SWAP1 SSTORE POP DUP1 PUSH1 0x3 PUSH0 PUSH2 0x100 EXP DUP2 SLOAD DUP2 PUSH20 0xFFFFFFFFFFFFFFFFFFFFFFFFFFFFFFFFFFFFFFFF MUL NOT AND SWAP1 DUP4 PUSH20 0xFFFFFFFFFFFFFFFFFFFFFFFFFFFFFFFFFFFFFFFF AND MUL OR SWAP1 SSTORE POP POP POP POP POP PUSH3 0x4A1 JUMP JUMPDEST PUSH0 DUP1 PUSH0 SWAP1 SLOAD SWAP1 PUSH2 0x100 EXP SWAP1 DIV PUSH20 0xFFFFFFFFFFFFFFFFFFFFFFFFFFFFFFFFFFFFFFFF AND SWAP1 POP DUP2 PUSH0 DUP1 PUSH2 0x100 EXP DUP2 SLOAD DUP2 PUSH20 0xFFFFFFFFFFFFFFFFFFFFFFFFFFFFFFFFFFFFFFFF MUL NOT AND SWAP1 DUP4 PUSH20 0xFFFFFFFFFFFFFFFFFFFFFFFFFFFFFFFFFFFFFFFF AND MUL OR SWAP1 SSTORE POP DUP2 PUSH20 0xFFFFFFFFFFFFFFFFFFFFFFFFFFFFFFFFFFFFFFFF AND DUP2 PUSH20 0xFFFFFFFFFFFFFFFFFFFFFFFFFFFFFFFFFFFFFFFF AND PUSH32 0x8BE0079C531659141344CD1FD0A4F28419497F9722A3DAAFE3B4186F6B6457E0 PUSH1 0x40 MLOAD PUSH1 0x40 MLOAD DUP1 SWAP2 SUB SWAP1 LOG3 POP POP JUMP JUMPDEST PUSH0 PUSH32 0x9B779B17422D0DF92223018B32B4D1FA46E071723D6817E2486D003BECC55F00 PUSH0 SHL SWAP1 POP SWAP1 JUMP JUMPDEST PUSH0 DUP2 SWAP1 POP SWAP2 SWAP1 POP JUMP JUMPDEST PUSH0 DUP1 REVERT JUMPDEST PUSH0 PUSH20 0xFFFFFFFFFFFFFFFFFFFFFFFFFFFFFFFFFFFFFFFF DUP3 AND SWAP1 POP SWAP2 SWAP1 POP JUMP JUMPDEST PUSH0 PUSH3 0x3D0 DUP3 PUSH3 0x3A5 JUMP JUMPDEST SWAP1 POP SWAP2 SWAP1 POP JUMP JUMPDEST PUSH3 0x3E2 DUP2 PUSH3 0x3C4 JUMP JUMPDEST DUP2 EQ PUSH3 0x3ED JUMPI PUSH0 DUP1 REVERT JUMPDEST POP JUMP JUMPDEST PUSH0 DUP2 MLOAD SWAP1 POP PUSH3 0x400 DUP2 PUSH3 0x3D7 JUMP JUMPDEST SWAP3 SWAP2 POP POP JUMP JUMPDEST PUSH0 DUP1 PUSH0 DUP1 PUSH1 0x80 DUP6 DUP8 SUB SLT ISZERO PUSH3 0x421 JUMPI PUSH3 0x420 PUSH3 0x3A1 JUMP JUMPDEST JUMPDEST PUSH0 PUSH3 0x430 DUP8 DUP3 DUP9 ADD PUSH3 0x3F0 JUMP JUMPDEST SWAP5 POP POP PUSH1 0x20 PUSH3 0x443 DUP8 DUP3 DUP9 ADD PUSH3 0x3F0 JUMP JUMPDEST SWAP4 POP POP PUSH1 0x40 PUSH3 0x456 DUP8 DUP3 DUP9 ADD PUSH3 0x3F0 JUMP JUMPDEST SWAP3 POP POP PUSH1 0x60 PUSH3 0x469 DUP8 DUP3 DUP9 ADD PUSH3 0x3F0 JUMP JUMPDEST SWAP2 POP POP SWAP3 SWAP6 SWAP2 SWAP5 POP SWAP3 POP JUMP JUMPDEST PUSH3 0x480 DUP2 PUSH3 0x3C4 JUMP JUMPDEST DUP3 MSTORE POP POP JUMP JUMPDEST PUSH0 PUSH1 0x20 DUP3 ADD SWAP1 POP PUSH3 0x49B PUSH0 DUP4 ADD DUP5 PUSH3 0x475 JUMP JUMPDEST SWAP3 SWAP2 POP POP JUMP JUMPDEST PUSH1 0x80 MLOAD PUSH2 0x3986 PUSH3 0x4C8 PUSH0 CODECOPY PUSH0 DUP2 DUP2 PUSH2 0xEBD ADD MSTORE DUP2 DUP2 PUSH2 0xEE4 ADD MSTORE PUSH2 0x1A13 ADD MSTORE PUSH2 0x3986 PUSH0 RETURN INVALID PUSH1 0x80 PUSH1 0x40 MSTORE PUSH1 0x4 CALLDATASIZE LT PUSH2 0x19F JUMPI PUSH0 CALLDATALOAD PUSH1 0xE0 SHR DUP1 PUSH4 0x92EAA9D9 GT PUSH2 0xEB JUMPI DUP1 PUSH4 0xE1A45218 GT PUSH2 0x89 JUMPI DUP1 PUSH4 0xF0F44260 GT PUSH2 0x63 JUMPI DUP1 PUSH4 0xF0F44260 EQ PUSH2 0x5D7 JUMPI DUP1 PUSH4 0xF13AFB90 EQ PUSH2 0x5FF JUMPI DUP1 PUSH4 0xF2FDE38B EQ PUSH2 0x627 JUMPI DUP1 PUSH4 0xF305D719 EQ PUSH2 0x64F JUMPI PUSH2 0x1A6 JUMP JUMPDEST DUP1 PUSH4 0xE1A45218 EQ PUSH2 0x533 JUMPI DUP1 PUSH4 0xE8E33700 EQ PUSH2 0x55D JUMPI DUP1 PUSH4 0xE98F6797 EQ PUSH2 0x59B JUMPI PUSH2 0x1A6 JUMP JUMPDEST DUP1 PUSH4 0xBAA2ABDE GT PUSH2 0xC5 JUMPI DUP1 PUSH4 0xBAA2ABDE EQ PUSH2 0x465 JUMPI DUP1 PUSH4 0xBE378228 EQ PUSH2 0x4A2 JUMPI DUP1 PUSH4 0xC45A0155 EQ PUSH2 0x4CC JUMPI DUP1 PUSH4 0xD52BB6F4 EQ PUSH2 0x4F6 JUMPI PUSH2 0x1A6 JUMP JUMPDEST DUP1 PUSH4 0x92EAA9D9 EQ PUSH2 0x3D7 JUMPI DUP1 PUSH4 0xAD615DEC EQ PUSH2 0x401 JUMPI DUP1 PUSH4 0xB8D1452F EQ PUSH2 0x43D JUMPI PUSH2 0x1A6 JUMP JUMPDEST DUP1 PUSH4 0x5364276D GT PUSH2 0x158 JUMPI DUP1 PUSH4 0x715018A6 GT PUSH2 0x132 JUMPI DUP1 PUSH4 0x715018A6 EQ PUSH2 0x345 JUMPI DUP1 PUSH4 0x8456CB59 EQ PUSH2 0x35B JUMPI DUP1 PUSH4 0x85F8C259 EQ PUSH2 0x371 JUMPI DUP1 PUSH4 0x8DA5CB5B EQ PUSH2 0x3AD JUMPI PUSH2 0x1A6 JUMP JUMPDEST DUP1 PUSH4 0x5364276D EQ PUSH2 0x2C7 JUMPI DUP1 PUSH4 0x5C975ABB EQ PUSH2 0x2F1 JUMPI DUP1 PUSH4 0x61D027B3 EQ PUSH2 0x31B JUMPI PUSH2 0x1A6 JUMP JUMPDEST DUP1 PUSH4 0x2751CEC EQ PUSH2 0x1AA JUMPI DUP1 PUSH4 0x54D50D4 EQ PUSH2 0x1E7 JUMPI DUP1 PUSH4 0x27B23849 EQ PUSH2 0x223 JUMPI DUP1 PUSH4 0x3824659C EQ PUSH2 0x24B JUMPI DUP1 PUSH4 0x3F4BA83A EQ PUSH2 0x287 JUMPI DUP1 PUSH4 0x3FC8CEF3 EQ PUSH2 0x29D JUMPI PUSH2 0x1A6 JUMP JUMPDEST CALLDATASIZE PUSH2 0x1A6 JUMPI STOP JUMPDEST PUSH0 DUP1 REVERT JUMPDEST CALLVALUE DUP1 ISZERO PUSH2 0x1B5 JUMPI PUSH0 DUP1 REVERT JUMPDEST POP PUSH2 0x1D0 PUSH1 0x4 DUP1 CALLDATASIZE SUB DUP2 ADD SWAP1 PUSH2 0x1CB SWAP2 SWAP1 PUSH2 0x30FF JUMP JUMPDEST PUSH2 0x681 JUMP JUMPDEST PUSH1 0x40 MLOAD PUSH2 0x1DE SWAP3 SWAP2 SWAP1 PUSH2 0x3197 JUMP JUMPDEST PUSH1 0x40 MLOAD DUP1 SWAP2 SUB SWAP1 RETURN JUMPDEST CALLVALUE DUP1 ISZERO PUSH2 0x1F2 JUMPI PUSH0 DUP1 REVERT JUMPDEST POP PUSH2 0x20D PUSH1 0x4 DUP1 CALLDATASIZE SUB DUP2 ADD SWAP1 PUSH2 0x208 SWAP2 SWAP1 PUSH2 0x31BE JUMP JUMPDEST PUSH2 0x7E1 JUMP JUMPDEST PUSH1 0x40 MLOAD PUSH2 0x21A SWAP2 SWAP1 PUSH2 0x320E JUMP JUMPDEST PUSH1 0x40 MLOAD DUP1 SWAP2 SUB SWAP1 RETURN JUMPDEST CALLVALUE DUP1 ISZERO PUSH2 0x22E JUMPI PUSH0 DUP1 REVERT JUMPDEST POP PUSH2 0x249 PUSH1 0x4 DUP1 CALLDATASIZE SUB DUP2 ADD SWAP1 PUSH2 0x244 SWAP2 SWAP1 PUSH2 0x3227 JUMP JUMPDEST PUSH2 0x7F6 JUMP JUMPDEST STOP JUMPDEST CALLVALUE DUP1 ISZERO PUSH2 0x256 JUMPI PUSH0 DUP1 REVERT JUMPDEST POP PUSH2 0x271 PUSH1 0x4 DUP1 CALLDATASIZE SUB DUP2 ADD SWAP1 PUSH2 0x26C SWAP2 SWAP1 PUSH2 0x3287 JUMP JUMPDEST PUSH2 0x884 JUMP JUMPDEST PUSH1 0x40 MLOAD PUSH2 0x27E SWAP2 SWAP1 PUSH2 0x320E JUMP JUMPDEST PUSH1 0x40 MLOAD DUP1 SWAP2 SUB SWAP1 RETURN JUMPDEST CALLVALUE DUP1 ISZERO PUSH2 0x292 JUMPI PUSH0 DUP1 REVERT JUMPDEST POP PUSH2 0x29B PUSH2 0xA49 JUMP JUMPDEST STOP JUMPDEST CALLVALUE DUP1 ISZERO PUSH2 0x2A8 JUMPI PUSH0 DUP1 REVERT JUMPDEST POP PUSH2 0x2B1 PUSH2 0xAB0 JUMP JUMPDEST PUSH1 0x40 MLOAD PUSH2 0x2BE SWAP2 SWAP1 PUSH2 0x3333 JUMP JUMPDEST PUSH1 0x40 MLOAD DUP1 SWAP2 SUB SWAP1 RETURN JUMPDEST CALLVALUE DUP1 ISZERO PUSH2 0x2D2 JUMPI PUSH0 DUP1 REVERT JUMPDEST POP PUSH2 0x2DB PUSH2 0xAD5 JUMP JUMPDEST PUSH1 0x40 MLOAD PUSH2 0x2E8 SWAP2 SWAP1 PUSH2 0x3333 JUMP JUMPDEST PUSH1 0x40 MLOAD DUP1 SWAP2 SUB SWAP1 RETURN JUMPDEST CALLVALUE DUP1 ISZERO PUSH2 0x2FC JUMPI PUSH0 DUP1 REVERT JUMPDEST POP PUSH2 0x305 PUSH2 0xAFA JUMP JUMPDEST PUSH1 0x40 MLOAD PUSH2 0x312 SWAP2 SWAP1 PUSH2 0x335B JUMP JUMPDEST PUSH1 0x40 MLOAD DUP1 SWAP2 SUB SWAP1 RETURN JUMPDEST CALLVALUE DUP1 ISZERO PUSH2 0x326 JUMPI PUSH0 DUP1 REVERT JUMPDEST POP PUSH2 0x32F PUSH2 0xB0D JUMP JUMPDEST PUSH1 0x40 MLOAD PUSH2 0x33C SWAP2 SWAP1 PUSH2 0x3333 JUMP JUMPDEST PUSH1 0x40 MLOAD DUP1 SWAP2 SUB SWAP1 RETURN JUMPDEST CALLVALUE DUP1 ISZERO PUSH2 0x350 JUMPI PUSH0 DUP1 REVERT JUMPDEST POP PUSH2 0x359 PUSH2 0xB32 JUMP JUMPDEST STOP JUMPDEST CALLVALUE DUP1 ISZERO PUSH2 0x366 JUMPI PUSH0 DUP1 REVERT JUMPDEST POP PUSH2 0x36F PUSH2 0xB45 JUMP JUMPDEST STOP JUMPDEST CALLVALUE DUP1 ISZERO PUSH2 0x37C JUMPI PUSH0 DUP1 REVERT JUMPDEST POP PUSH2 0x397 PUSH1 0x4 DUP1 CALLDATASIZE SUB DUP2 ADD SWAP1 PUSH2 0x392 SWAP2 SWAP1 PUSH2 0x31BE JUMP JUMPDEST PUSH2 0xBAD JUMP JUMPDEST PUSH1 0x40 MLOAD PUSH2 0x3A4 SWAP2 SWAP1 PUSH2 0x320E JUMP JUMPDEST PUSH1 0x40 MLOAD DUP1 SWAP2 SUB SWAP1 RETURN JUMPDEST CALLVALUE DUP1 ISZERO PUSH2 0x3B8 JUMPI PUSH0 DUP1 REVERT JUMPDEST POP PUSH2 0x3C1 PUSH2 0xBC2 JUMP JUMPDEST PUSH1 0x40 MLOAD PUSH2 0x3CE SWAP2 SWAP1 PUSH2 0x3333 JUMP JUMPDEST PUSH1 0x40 MLOAD DUP1 SWAP2 SUB SWAP1 RETURN JUMPDEST CALLVALUE DUP1 ISZERO PUSH2 0x3E2 JUMPI PUSH0 DUP1 REVERT JUMPDEST POP PUSH2 0x3EB PUSH2 0xBE9 JUMP JUMPDEST PUSH1 0x40 MLOAD PUSH2 0x3F8 SWAP2 SWAP1 PUSH2 0x3333 JUMP JUMPDEST PUSH1 0x40 MLOAD DUP1 SWAP2 SUB SWAP1 RETURN JUMPDEST CALLVALUE DUP1 ISZERO PUSH2 0x40C JUMPI PUSH0 DUP1 REVERT JUMPDEST POP PUSH2 0x427 PUSH1 0x4 DUP1 CALLDATASIZE SUB DUP2 ADD SWAP1 PUSH2 0x422 SWAP2 SWAP1 PUSH2 0x31BE JUMP JUMPDEST PUSH2 0xC0E JUMP JUMPDEST PUSH1 0x40 MLOAD PUSH2 0x434 SWAP2 SWAP1 PUSH2 0x320E JUMP JUMPDEST PUSH1 0x40 MLOAD DUP1 SWAP2 SUB SWAP1 RETURN JUMPDEST CALLVALUE DUP1 ISZERO PUSH2 0x448 JUMPI PUSH0 DUP1 REVERT JUMPDEST POP PUSH2 0x463 PUSH1 0x4 DUP1 CALLDATASIZE SUB DUP2 ADD SWAP1 PUSH2 0x45E SWAP2 SWAP1 PUSH2 0x3227 JUMP JUMPDEST PUSH2 0xC23 JUMP JUMPDEST STOP JUMPDEST CALLVALUE DUP1 ISZERO PUSH2 0x470 JUMPI PUSH0 DUP1 REVERT JUMPDEST POP PUSH2 0x48B PUSH1 0x4 DUP1 CALLDATASIZE SUB DUP2 ADD SWAP1 PUSH2 0x486 SWAP2 SWAP1 PUSH2 0x3374 JUMP JUMPDEST PUSH2 0xCD3 JUMP JUMPDEST PUSH1 0x40 MLOAD PUSH2 0x499 SWAP3 SWAP2 SWAP1 PUSH2 0x3197 JUMP JUMPDEST PUSH1 0x40 MLOAD DUP1 SWAP2 SUB SWAP1 RETURN JUMPDEST CALLVALUE DUP1 ISZERO PUSH2 0x4AD JUMPI PUSH0 DUP1 REVERT JUMPDEST POP PUSH2 0x4B6 PUSH2 0xEB6 JUMP JUMPDEST PUSH1 0x40 MLOAD PUSH2 0x4C3 SWAP2 SWAP1 PUSH2 0x320E JUMP JUMPDEST PUSH1 0x40 MLOAD DUP1 SWAP2 SUB SWAP1 RETURN JUMPDEST CALLVALUE DUP1 ISZERO PUSH2 0x4D7 JUMPI PUSH0 DUP1 REVERT JUMPDEST POP PUSH2 0x4E0 PUSH2 0xEBB JUMP JUMPDEST PUSH1 0x40 MLOAD PUSH2 0x4ED SWAP2 SWAP1 PUSH2 0x3333 JUMP JUMPDEST PUSH1 0x40 MLOAD DUP1 SWAP2 SUB SWAP1 RETURN JUMPDEST CALLVALUE DUP1 ISZERO PUSH2 0x501 JUMPI PUSH0 DUP1 REVERT JUMPDEST POP PUSH2 0x51C PUSH1 0x4 DUP1 CALLDATASIZE SUB DUP2 ADD SWAP1 PUSH2 0x517 SWAP2 SWAP1 PUSH2 0x3411 JUMP JUMPDEST PUSH2 0xEDF JUMP JUMPDEST PUSH1 0x40 MLOAD PUSH2 0x52A SWAP3 SWAP2 SWAP1 PUSH2 0x3197 JUMP JUMPDEST PUSH1 0x40 MLOAD DUP1 SWAP2 SUB SWAP1 RETURN JUMPDEST CALLVALUE DUP1 ISZERO PUSH2 0x53E JUMPI PUSH0 DUP1 REVERT JUMPDEST POP PUSH2 0x547 PUSH2 0xFD4 JUMP JUMPDEST PUSH1 0x40 MLOAD PUSH2 0x554 SWAP2 SWAP1 PUSH2 0x320E JUMP JUMPDEST PUSH1 0x40 MLOAD DUP1 SWAP2 SUB SWAP1 RETURN JUMPDEST CALLVALUE DUP1 ISZERO PUSH2 0x568 JUMPI PUSH0 DUP1 REVERT JUMPDEST POP PUSH2 0x583 PUSH1 0x4 DUP1 CALLDATASIZE SUB DUP2 ADD SWAP1 PUSH2 0x57E SWAP2 SWAP1 PUSH2 0x344F JUMP JUMPDEST PUSH2 0xFDA JUMP JUMPDEST PUSH1 0x40 MLOAD PUSH2 0x592 SWAP4 SWAP3 SWAP2 SWAP1 PUSH2 0x3500 JUMP JUMPDEST PUSH1 0x40 MLOAD DUP1 SWAP2 SUB SWAP1 RETURN JUMPDEST CALLVALUE DUP1 ISZERO PUSH2 0x5A6 JUMPI PUSH0 DUP1 REVERT JUMPDEST POP PUSH2 0x5C1 PUSH1 0x4 DUP1 CALLDATASIZE SUB DUP2 ADD SWAP1 PUSH2 0x5BC SWAP2 SWAP1 PUSH2 0x3287 JUMP JUMPDEST PUSH2 0x113E JUMP JUMPDEST PUSH1 0x40 MLOAD PUSH2 0x5CE SWAP2 SWAP1 PUSH2 0x320E JUMP JUMPDEST PUSH1 0x40 MLOAD DUP1 SWAP2 SUB SWAP1 RETURN JUMPDEST CALLVALUE DUP1 ISZERO PUSH2 0x5E2 JUMPI PUSH0 DUP1 REVERT JUMPDEST POP PUSH2 0x5FD PUSH1 0x4 DUP1 CALLDATASIZE SUB DUP2 ADD SWAP1 PUSH2 0x5F8 SWAP2 SWAP1 PUSH2 0x3227 JUMP JUMPDEST PUSH2 0x12F6 JUMP JUMPDEST STOP JUMPDEST CALLVALUE DUP1 ISZERO PUSH2 0x60A JUMPI PUSH0 DUP1 REVERT JUMPDEST POP PUSH2 0x625 PUSH1 0x4 DUP1 CALLDATASIZE SUB DUP2 ADD SWAP1 PUSH2 0x620 SWAP2 SWAP1 PUSH2 0x3227 JUMP JUMPDEST PUSH2 0x1421 JUMP JUMPDEST STOP JUMPDEST CALLVALUE DUP1 ISZERO PUSH2 0x632 JUMPI PUSH0 DUP1 REVERT JUMPDEST POP PUSH2 0x64D PUSH1 0x4 DUP1 CALLDATASIZE SUB DUP2 ADD SWAP1 PUSH2 0x648 SWAP2 SWAP1 PUSH2 0x3227 JUMP JUMPDEST PUSH2 0x14AF JUMP JUMPDEST STOP JUMPDEST PUSH2 0x669 PUSH1 0x4 DUP1 CALLDATASIZE SUB DUP2 ADD SWAP1 PUSH2 0x664 SWAP2 SWAP1 PUSH2 0x30FF JUMP JUMPDEST PUSH2 0x1533 JUMP JUMPDEST PUSH1 0x40 MLOAD PUSH2 0x678 SWAP4 SWAP3 SWAP2 SWAP1 PUSH2 0x3500 JUMP JUMPDEST PUSH1 0x40 MLOAD DUP1 SWAP2 SUB SWAP1 RETURN JUMPDEST PUSH0 DUP1 PUSH2 0x68B PUSH2 0x1739 JUMP JUMPDEST DUP3 DUP1 TIMESTAMP GT ISZERO PUSH2 0x6D1 JUMPI DUP1 PUSH1 0x40 MLOAD PUSH32 0xF80DBAEA00000000000000000000000000000000000000000000000000000000 DUP2 MSTORE PUSH1 0x4 ADD PUSH2 0x6C8 SWAP2 SWAP1 PUSH2 0x320E JUMP JUMPDEST PUSH1 0x40 MLOAD DUP1 SWAP2 SUB SWAP1 REVERT JUMPDEST PUSH0 PUSH20 0xFFFFFFFFFFFFFFFFFFFFFFFFFFFFFFFFFFFFFFFF AND PUSH1 0x4 PUSH0 SWAP1 SLOAD SWAP1 PUSH2 0x100 EXP SWAP1 DIV PUSH20 0xFFFFFFFFFFFFFFFFFFFFFFFFFFFFFFFFFFFFFFFF AND PUSH20 0xFFFFFFFFFFFFFFFFFFFFFFFFFFFFFFFFFFFFFFFF AND SUB PUSH2 0x757 JUMPI PUSH1 0x40 MLOAD PUSH32 0xDC08FA200000000000000000000000000000000000000000000000000000000 DUP2 MSTORE PUSH1 0x4 ADD PUSH1 0x40 MLOAD DUP1 SWAP2 SUB SWAP1 REVERT JUMPDEST PUSH0 PUSH20 0xFFFFFFFFFFFFFFFFFFFFFFFFFFFFFFFFFFFFFFFF AND DUP6 PUSH20 0xFFFFFFFFFFFFFFFFFFFFFFFFFFFFFFFFFFFFFFFF AND SUB PUSH2 0x7BC JUMPI PUSH1 0x40 MLOAD PUSH32 0xD92E233D00000000000000000000000000000000000000000000000000000000 DUP2 MSTORE PUSH1 0x4 ADD PUSH1 0x40 MLOAD DUP1 SWAP2 SUB SWAP1 REVERT JUMPDEST PUSH2 0x7C9 DUP10 DUP10 DUP10 DUP10 DUP10 PUSH2 0x175B JUMP JUMPDEST SWAP3 POP SWAP3 POP POP PUSH2 0x7D6 PUSH2 0x18D6 JUMP JUMPDEST SWAP7 POP SWAP7 SWAP5 POP POP POP POP POP JUMP JUMPDEST PUSH0 PUSH2 0x7ED DUP5 DUP5 DUP5 PUSH2 0x18F0 JUMP JUMPDEST SWAP1 POP SWAP4 SWAP3 POP POP POP JUMP JUMPDEST PUSH2 0x7FE PUSH2 0x1989 JUMP JUMPDEST DUP1 PUSH1 0x3 PUSH0 PUSH2 0x100 EXP DUP2 SLOAD DUP2 PUSH20 0xFFFFFFFFFFFFFFFFFFFFFFFFFFFFFFFFFFFFFFFF MUL NOT AND SWAP1 DUP4 PUSH20 0xFFFFFFFFFFFFFFFFFFFFFFFFFFFFFFFFFFFFFFFF AND MUL OR SWAP1 SSTORE POP DUP1 PUSH20 0xFFFFFFFFFFFFFFFFFFFFFFFFFFFFFFFFFFFFFFFF AND PUSH32 0x89386B8711BAD3EC737A1746DBCC52DE03DE68ADD300345F9ACB944C28AE03F3 PUSH1 0x40 MLOAD PUSH1 0x40 MLOAD DUP1 SWAP2 SUB SWAP1 LOG2 POP JUMP JUMPDEST PUSH0 PUSH2 0x88D PUSH2 0x1739 JUMP JUMPDEST PUSH1 0x3 PUSH1 0x14 SWAP1 SLOAD SWAP1 PUSH2 0x100 EXP SWAP1 DIV PUSH1 0xFF AND ISZERO PUSH2 0x8D4 JUMPI PUSH1 0x40 MLOAD PUSH32 0xF562B5A000000000000000000000000000000000000000000000000000000000 DUP2 MSTORE PUSH1 0x4 ADD PUSH1 0x40 MLOAD DUP1 SWAP2 SUB SWAP1 REVERT JUMPDEST DUP3 DUP1 TIMESTAMP GT ISZERO PUSH2 0x91A JUMPI DUP1 PUSH1 0x40 MLOAD PUSH32 0xF80DBAEA00000000000000000000000000000000000000000000000000000000 DUP2 MSTORE PUSH1 0x4 ADD PUSH2 0x911 SWAP2 SWAP1 PUSH2 0x320E JUMP JUMPDEST PUSH1 0x40 MLOAD DUP1 SWAP2 SUB SWAP1 REVERT JUMPDEST PUSH0 DUP10 SUB PUSH2 0x953 JUMPI PUSH1 0x40 MLOAD PUSH32 0x1F2A200500000000000000000000000000000000000000000000000000000000 DUP2 MSTORE PUSH1 0x4 ADD PUSH1 0x40 MLOAD DUP1 SWAP2 SUB SWAP1 REVERT JUMPDEST PUSH0 PUSH20 0xFFFFFFFFFFFFFFFFFFFFFFFFFFFFFFFFFFFFFFFF AND DUP6 PUSH20 0xFFFFFFFFFFFFFFFFFFFFFFFFFFFFFFFFFFFFFFFF AND SUB PUSH2 0x9B8 JUMPI PUSH1 0x40 MLOAD PUSH32 0xD92E233D00000000000000000000000000000000000000000000000000000000 DUP2 MSTORE PUSH1 0x4 ADD PUSH1 0x40 MLOAD DUP1 SWAP2 SUB SWAP1 REVERT JUMPDEST PUSH0 DUP1 PUSH2 0x9CD PUSH2 0x9C7 DUP11 DUP11 PUSH2 0x1A10 JUMP JUMPDEST DUP11 PUSH2 0x1B25 JUMP JUMPDEST SWAP2 POP SWAP2 POP PUSH2 0x9DC DUP12 DUP4 DUP4 PUSH2 0x18F0 JUMP JUMPDEST SWAP4 POP DUP10 DUP5 LT ISZERO PUSH2 0xA25 JUMPI DUP4 DUP11 PUSH1 0x40 MLOAD PUSH32 0xD28D3EB500000000000000000000000000000000000000000000000000000000 DUP2 MSTORE PUSH1 0x4 ADD PUSH2 0xA1C SWAP3 SWAP2 SWAP1 PUSH2 0x3197 JUMP JUMPDEST PUSH1 0x40 MLOAD DUP1 SWAP2 SUB SWAP1 REVERT JUMPDEST PUSH2 0xA33 DUP10 DUP10 DUP14 DUP8 DUP12 DUP11 PUSH2 0x1C95 JUMP JUMPDEST POP POP POP PUSH2 0xA3E PUSH2 0x18D6 JUMP JUMPDEST SWAP8 SWAP7 POP POP POP POP POP POP POP JUMP JUMPDEST PUSH2 0xA51 PUSH2 0x1989 JUMP JUMPDEST PUSH0 PUSH1 0x3 PUSH1 0x14 PUSH2 0x100 EXP DUP2 SLOAD DUP2 PUSH1 0xFF MUL NOT AND SWAP1 DUP4 ISZERO ISZERO MUL OR SWAP1 SSTORE POP CALLER PUSH20 0xFFFFFFFFFFFFFFFFFFFFFFFFFFFFFFFFFFFFFFFF AND PUSH32 0x5DB9EE0A495BF2E6FF9C91A7834C1BA4FDD244A5E8AA4E537BD38AEAE4B073AA PUSH1 0x40 MLOAD PUSH1 0x40 MLOAD DUP1 SWAP2 SUB SWAP1 LOG2 JUMP JUMPDEST PUSH1 0x4 PUSH0 SWAP1 SLOAD SWAP1 PUSH2 0x100 EXP SWAP1 DIV PUSH20 0xFFFFFFFFFFFFFFFFFFFFFFFFFFFFFFFFFFFFFFFF AND DUP2 JUMP JUMPDEST PUSH1 0x3 PUSH0 SWAP1 SLOAD SWAP1 PUSH2 0x100 EXP SWAP1 DIV PUSH20 0xFFFFFFFFFFFFFFFFFFFFFFFFFFFFFFFFFFFFFFFF AND DUP2 JUMP JUMPDEST PUSH1 0x3 PUSH1 0x14 SWAP1 SLOAD SWAP1 PUSH2 0x100 EXP SWAP1 DIV PUSH1 0xFF AND DUP2 JUMP JUMPDEST PUSH1 0x1 PUSH0 SWAP1 SLOAD SWAP1 PUSH2 0x100 EXP SWAP1 DIV PUSH20 0xFFFFFFFFFFFFFFFFFFFFFFFFFFFFFFFFFFFFFFFF AND DUP2 JUMP JUMPDEST PUSH2 0xB3A PUSH2 0x1989 JUMP JUMPDEST PUSH2 0xB43 PUSH0 PUSH2 0x1D39 JUMP JUMPDEST JUMP JUMPDEST PUSH2 0xB4D PUSH2 0x1989 JUMP JUMPDEST PUSH1 0x1 PUSH1 0x3 PUSH1 0x14 PUSH2 0x100 EXP DUP2 SLOAD DUP2 PUSH1 0xFF MUL NOT AND SWAP1 DUP4 ISZERO ISZERO MUL OR SWAP1 SSTORE POP CALLER PUSH20 0xFFFFFFFFFFFFFFFFFFFFFFFFFFFFFFFFFFFFFFFF AND PUSH32 0x62E78CEA01BEE320CD4E420270B5EA74000D11B0C9F74754EBDBFC544B05A258 PUSH1 0x40 MLOAD PUSH1 0x40 MLOAD DUP1 SWAP2 SUB SWAP1 LOG2 JUMP JUMPDEST PUSH0 PUSH2 0xBB9 DUP5 DUP5 DUP5 PUSH2 0x1DFA JUMP JUMPDEST SWAP1 POP SWAP4 SWAP3 POP POP POP JUMP JUMPDEST PUSH0 DUP1 PUSH0 SWAP1 SLOAD SWAP1 PUSH2 0x100 EXP SWAP1 DIV PUSH20 0xFFFFFFFFFFFFFFFFFFFFFFFFFFFFFFFFFFFFFFFF AND SWAP1 POP SWAP1 JUMP JUMPDEST PUSH1 0x2 PUSH0 SWAP1 SLOAD SWAP1 PUSH2 0x100 EXP SWAP1 DIV PUSH20 0xFFFFFFFFFFFFFFFFFFFFFFFFFFFFFFFFFFFFFFFF AND DUP2 JUMP JUMPDEST PUSH0 PUSH2 0xC1A DUP5 DUP5 DUP5 PUSH2 0x1E9A JUMP JUMPDEST SWAP1 POP SWAP4 SWAP3 POP POP POP JUMP JUMPDEST PUSH2 0xC2B PUSH2 0x1989 JUMP JUMPDEST PUSH0 PUSH20 0xFFFFFFFFFFFFFFFFFFFFFFFFFFFFFFFFFFFFFFFF AND DUP2 PUSH20 0xFFFFFFFFFFFFFFFFFFFFFFFFFFFFFFFFFFFFFFFF AND SUB PUSH2 0xC90 JUMPI PUSH1 0x40 MLOAD PUSH32 0xD92E233D00000000000000000000000000000000000000000000000000000000 DUP2 MSTORE PUSH1 0x4 ADD PUSH1 0x40 MLOAD DUP1 SWAP2 SUB SWAP1 REVERT JUMPDEST DUP1 PUSH1 0x4 PUSH0 PUSH2 0x100 EXP DUP2 SLOAD DUP2 PUSH20 0xFFFFFFFFFFFFFFFFFFFFFFFFFFFFFFFFFFFFFFFF MUL NOT AND SWAP1 DUP4 PUSH20 0xFFFFFFFFFFFFFFFFFFFFFFFFFFFFFFFFFFFFFFFF AND MUL OR SWAP1 SSTORE POP POP JUMP JUMPDEST PUSH0 DUP1 PUSH2 0xCDD PUSH2 0x1739 JUMP JUMPDEST DUP3 DUP1 TIMESTAMP GT ISZERO PUSH2 0xD23 JUMPI DUP1 PUSH1 0x40 MLOAD PUSH32 0xF80DBAEA00000000000000000000000000000000000000000000000000000000 DUP2 MSTORE PUSH1 0x4 ADD PUSH2 0xD1A SWAP2 SWAP1 PUSH2 0x320E JUMP JUMPDEST PUSH1 0x40 MLOAD DUP1 SWAP2 SUB SWAP1 REVERT JUMPDEST PUSH0 PUSH20 0xFFFFFFFFFFFFFFFFFFFFFFFFFFFFFFFFFFFFFFFF AND DUP6 PUSH20 0xFFFFFFFFFFFFFFFFFFFFFFFFFFFFFFFFFFFFFFFF AND SUB PUSH2 0xD88 JUMPI PUSH1 0x40 MLOAD PUSH32 0xD92E233D00000000000000000000000000000000000000000000000000000000 DUP2 MSTORE PUSH1 0x4 ADD PUSH1 0x40 MLOAD DUP1 SWAP2 SUB SWAP1 REVERT JUMPDEST PUSH0 PUSH2 0xD93 DUP12 DUP12 PUSH2 0x1A10 JUMP JUMPDEST SWAP1 POP PUSH2 0xDA1 DUP2 DUP13 DUP12 DUP10 PUSH2 0x1F09 JUMP JUMPDEST DUP1 SWAP5 POP DUP2 SWAP6 POP POP POP DUP8 DUP5 LT ISZERO PUSH2 0xDF0 JUMPI DUP4 DUP9 PUSH1 0x40 MLOAD PUSH32 0x47C5F09E00000000000000000000000000000000000000000000000000000000 DUP2 MSTORE PUSH1 0x4 ADD PUSH2 0xDE7 SWAP3 SWAP2 SWAP1 PUSH2 0x3197 JUMP JUMPDEST PUSH1 0x40 MLOAD DUP1 SWAP2 SUB SWAP1 REVERT JUMPDEST DUP7 DUP4 LT ISZERO PUSH2 0xE37 JUMPI DUP3 DUP8 PUSH1 0x40 MLOAD PUSH32 0x5195966700000000000000000000000000000000000000000000000000000000 DUP2 MSTORE PUSH1 0x4 ADD PUSH2 0xE2E SWAP3 SWAP2 SWAP1 PUSH2 0x3197 JUMP JUMPDEST PUSH1 0x40 MLOAD DUP1 SWAP2 SUB SWAP1 REVERT JUMPDEST CALLER PUSH20 0xFFFFFFFFFFFFFFFFFFFFFFFFFFFFFFFFFFFFFFFF AND DUP2 PUSH20 0xFFFFFFFFFFFFFFFFFFFFFFFFFFFFFFFFFFFFFFFF AND PUSH32 0xBC7D19D505C7EC4DB83F3B51F19FB98C4C8A99922E7839D1EE608DFBEE29501B DUP7 DUP7 DUP14 PUSH1 0x40 MLOAD PUSH2 0xE98 SWAP4 SWAP3 SWAP2 SWAP1 PUSH2 0x3500 JUMP JUMPDEST PUSH1 0x40 MLOAD DUP1 SWAP2 SUB SWAP1 LOG3 POP POP PUSH2 0xEAA PUSH2 0x18D6 JUMP JUMPDEST SWAP8 POP SWAP8 SWAP6 POP POP POP POP POP POP JUMP JUMPDEST PUSH1 0x5 DUP2 JUMP JUMPDEST PUSH32 0x0 DUP2 JUMP JUMPDEST PUSH0 DUP1 PUSH0 PUSH32 0x0 PUSH20 0xFFFFFFFFFFFFFFFFFFFFFFFFFFFFFFFFFFFFFFFF AND PUSH4 0xB4F69A2F DUP7 DUP7 PUSH1 0x40 MLOAD DUP4 PUSH4 0xFFFFFFFF AND PUSH1 0xE0 SHL DUP2 MSTORE PUSH1 0x4 ADD PUSH2 0xF3D SWAP3 SWAP2 SWAP1 PUSH2 0x3535 JUMP JUMPDEST PUSH1 0x20 PUSH1 0x40 MLOAD DUP1 DUP4 SUB DUP2 DUP7 GAS STATICCALL ISZERO DUP1 ISZERO PUSH2 0xF58 JUMPI RETURNDATASIZE PUSH0 DUP1 RETURNDATACOPY RETURNDATASIZE PUSH0 REVERT JUMPDEST POP POP POP POP PUSH1 0x40 MLOAD RETURNDATASIZE PUSH1 0x1F NOT PUSH1 0x1F DUP3 ADD AND DUP3 ADD DUP1 PUSH1 0x40 MSTORE POP DUP2 ADD SWAP1 PUSH2 0xF7C SWAP2 SWAP1 PUSH2 0x3570 JUMP JUMPDEST SWAP1 POP PUSH0 PUSH20 0xFFFFFFFFFFFFFFFFFFFFFFFFFFFFFFFFFFFFFFFF AND DUP2 PUSH20 0xFFFFFFFFFFFFFFFFFFFFFFFFFFFFFFFFFFFFFFFF AND SUB PUSH2 0xFBD JUMPI PUSH0 DUP1 SWAP3 POP SWAP3 POP POP PUSH2 0xFCD JUMP JUMPDEST PUSH2 0xFC7 DUP2 DUP7 PUSH2 0x1B25 JUMP JUMPDEST SWAP3 POP SWAP3 POP POP JUMPDEST SWAP3 POP SWAP3 SWAP1 POP JUMP JUMPDEST PUSH2 0x2710 DUP2 JUMP JUMPDEST PUSH0 DUP1 PUSH0 PUSH2 0xFE5 PUSH2 0x1739 JUMP JUMPDEST PUSH1 0x3 PUSH1 0x14 SWAP1 SLOAD SWAP1 PUSH2 0x100 EXP SWAP1 DIV PUSH1 0xFF AND ISZERO PUSH2 0x102C JUMPI PUSH1 0x40 MLOAD PUSH32 0xF562B5A000000000000000000000000000000000000000000000000000000000 DUP2 MSTORE PUSH1 0x4 ADD PUSH1 0x40 MLOAD DUP1 SWAP2 SUB SWAP1 REVERT JUMPDEST DUP4 DUP1 TIMESTAMP GT ISZERO PUSH2 0x1072 JUMPI DUP1 PUSH1 0x40 MLOAD PUSH32 0xF80DBAEA00000000000000000000000000000000000000000000000000000000 DUP2 MSTORE PUSH1 0x4 ADD PUSH2 0x1069 SWAP2 SWAP1 PUSH2 0x320E JUMP JUMPDEST PUSH1 0x40 MLOAD DUP1 SWAP2 SUB SWAP1 REVERT JUMPDEST PUSH0 PUSH20 0xFFFFFFFFFFFFFFFFFFFFFFFFFFFFFFFFFFFFFFFF AND DUP7 PUSH20 0xFFFFFFFFFFFFFFFFFFFFFFFFFFFFFFFFFFFFFFFF AND SUB PUSH2 0x10D7 JUMPI PUSH1 0x40 MLOAD PUSH32 0xD92E233D00000000000000000000000000000000000000000000000000000000 DUP2 MSTORE PUSH1 0x4 ADD PUSH1 0x40 MLOAD DUP1 SWAP2 SUB SWAP1 REVERT JUMPDEST PUSH0 PUSH1 0x40 MLOAD DUP1 PUSH1 0x80 ADD PUSH1 0x40 MSTORE DUP1 DUP13 DUP2 MSTORE PUSH1 0x20 ADD DUP12 DUP2 MSTORE PUSH1 0x20 ADD DUP11 DUP2 MSTORE PUSH1 0x20 ADD DUP10 DUP2 MSTORE POP SWAP1 POP PUSH0 PUSH2 0x1107 DUP15 DUP15 DUP5 PUSH2 0x2072 JUMP JUMPDEST SWAP1 POP DUP1 PUSH1 0x20 ADD MLOAD SWAP6 POP DUP1 PUSH1 0x40 ADD MLOAD SWAP5 POP PUSH2 0x1123 DUP15 DUP15 DUP4 DUP12 PUSH2 0x20E1 JUMP JUMPDEST SWAP4 POP POP POP POP PUSH2 0x1130 PUSH2 0x18D6 JUMP JUMPDEST SWAP9 POP SWAP9 POP SWAP9 SWAP6 POP POP POP POP POP POP JUMP JUMPDEST PUSH0 PUSH2 0x1147 PUSH2 0x1739 JUMP JUMPDEST PUSH1 0x3 PUSH1 0x14 SWAP1 SLOAD SWAP1 PUSH2 0x100 EXP SWAP1 DIV PUSH1 0xFF AND ISZERO PUSH2 0x118E JUMPI PUSH1 0x40 MLOAD PUSH32 0xF562B5A000000000000000000000000000000000000000000000000000000000 DUP2 MSTORE PUSH1 0x4 ADD PUSH1 0x40 MLOAD DUP1 SWAP2 SUB SWAP1 REVERT JUMPDEST DUP3 DUP1 TIMESTAMP GT ISZERO PUSH2 0x11D4 JUMPI DUP1 PUSH1 0x40 MLOAD PUSH32 0xF80DBAEA00000000000000000000000000000000000000000000000000000000 DUP2 MSTORE PUSH1 0x4 ADD PUSH2 0x11CB SWAP2 SWAP1 PUSH2 0x320E JUMP JUMPDEST PUSH1 0x40 MLOAD DUP1 SWAP2 SUB SWAP1 REVERT JUMPDEST PUSH0 DUP10 SUB PUSH2 0x120D JUMPI PUSH1 0x40 MLOAD PUSH32 0x1F2A200500000000000000000000000000000000000000000000000000000000 DUP2 MSTORE PUSH1 0x4 ADD PUSH1 0x40 MLOAD DUP1 SWAP2 SUB SWAP1 REVERT JUMPDEST PUSH0 PUSH20 0xFFFFFFFFFFFFFFFFFFFFFFFFFFFFFFFFFFFFFFFF AND DUP6 PUSH20 0xFFFFFFFFFFFFFFFFFFFFFFFFFFFFFFFFFFFFFFFF AND SUB PUSH2 0x1272 JUMPI PUSH1 0x40 MLOAD PUSH32 0xD92E233D00000000000000000000000000000000000000000000000000000000 DUP2 MSTORE PUSH1 0x4 ADD PUSH1 0x40 MLOAD DUP1 SWAP2 SUB SWAP1 REVERT JUMPDEST PUSH0 DUP1 PUSH2 0x1287 PUSH2 0x1281 DUP11 DUP11 PUSH2 0x1A10 JUMP JUMPDEST DUP11 PUSH2 0x1B25 JUMP JUMPDEST SWAP2 POP SWAP2 POP PUSH2 0x1296 DUP12 DUP4 DUP4 PUSH2 0x1DFA JUMP JUMPDEST SWAP4 POP DUP10 DUP5 GT ISZERO PUSH2 0x12D2 JUMPI PUSH1 0x40 MLOAD PUSH32 0xE1B0DA4F00000000000000000000000000000000000000000000000000000000 DUP2 MSTORE PUSH1 0x4 ADD PUSH1 0x40 MLOAD DUP1 SWAP2 SUB SWAP1 REVERT JUMPDEST PUSH2 0x12E0 DUP10 DUP10 DUP7 DUP15 DUP12 DUP11 PUSH2 0x1C95 JUMP JUMPDEST POP POP POP PUSH2 0x12EB PUSH2 0x18D6 JUMP JUMPDEST SWAP8 SWAP7 POP POP POP POP POP POP POP JUMP JUMPDEST PUSH2 0x12FE PUSH2 0x1989 JUMP JUMPDEST PUSH0 PUSH20 0xFFFFFFFFFFFFFFFFFFFFFFFFFFFFFFFFFFFFFFFF AND DUP2 PUSH20 0xFFFFFFFFFFFFFFFFFFFFFFFFFFFFFFFFFFFFFFFF AND SUB PUSH2 0x1363 JUMPI PUSH1 0x40 MLOAD PUSH32 0xD92E233D00000000000000000000000000000000000000000000000000000000 DUP2 MSTORE PUSH1 0x4 ADD PUSH1 0x40 MLOAD DUP1 SWAP2 SUB SWAP1 REVERT JUMPDEST DUP1 PUSH20 0xFFFFFFFFFFFFFFFFFFFFFFFFFFFFFFFFFFFFFFFF AND PUSH1 0x1 PUSH0 SWAP1 SLOAD SWAP1 PUSH2 0x100 EXP SWAP1 DIV PUSH20 0xFFFFFFFFFFFFFFFFFFFFFFFFFFFFFFFFFFFFFFFF AND PUSH20 0xFFFFFFFFFFFFFFFFFFFFFFFFFFFFFFFFFFFFFFFF AND PUSH32 0x4AB5BE82436D353E61CA18726E984E561F5C1CC7C6D38B29D2553C790434705A PUSH1 0x40 MLOAD PUSH1 0x40 MLOAD DUP1 SWAP2 SUB SWAP1 LOG3 DUP1 PUSH1 0x1 PUSH0 PUSH2 0x100 EXP DUP2 SLOAD DUP2 PUSH20 0xFFFFFFFFFFFFFFFFFFFFFFFFFFFFFFFFFFFFFFFF MUL NOT AND SWAP1 DUP4 PUSH20 0xFFFFFFFFFFFFFFFFFFFFFFFFFFFFFFFFFFFFFFFF AND MUL OR SWAP1 SSTORE POP POP JUMP JUMPDEST PUSH2 0x1429 PUSH2 0x1989 JUMP JUMPDEST DUP1 PUSH1 0x2 PUSH0 PUSH2 0x100 EXP DUP2 SLOAD DUP2 PUSH20 0xFFFFFFFFFFFFFFFFFFFFFFFFFFFFFFFFFFFFFFFF MUL NOT AND SWAP1 DUP4 PUSH20 0xFFFFFFFFFFFFFFFFFFFFFFFFFFFFFFFFFFFFFFFF AND MUL OR SWAP1 SSTORE POP DUP1 PUSH20 0xFFFFFFFFFFFFFFFFFFFFFFFFFFFFFFFFFFFFFFFF AND PUSH32 0x34B668B6F49E81B64BDB88C7DE7501C0A197D9B12C46848EF3BCD59152843210 PUSH1 0x40 MLOAD PUSH1 0x40 MLOAD DUP1 SWAP2 SUB SWAP1 LOG2 POP JUMP JUMPDEST PUSH2 0x14B7 PUSH2 0x1989 JUMP JUMPDEST PUSH0 PUSH20 0xFFFFFFFFFFFFFFFFFFFFFFFFFFFFFFFFFFFFFFFF AND DUP2 PUSH20 0xFFFFFFFFFFFFFFFFFFFFFFFFFFFFFFFFFFFFFFFF AND SUB PUSH2 0x1527 JUMPI PUSH0 PUSH1 0x40 MLOAD PUSH32 0x1E4FBDF700000000000000000000000000000000000000000000000000000000 DUP2 MSTORE PUSH1 0x4 ADD PUSH2 0x151E SWAP2 SWAP1 PUSH2 0x3333 JUMP JUMPDEST PUSH1 0x40 MLOAD DUP1 SWAP2 SUB SWAP1 REVERT JUMPDEST PUSH2 0x1530 DUP2 PUSH2 0x1D39 JUMP JUMPDEST POP JUMP JUMPDEST PUSH0 DUP1 PUSH0 PUSH2 0x153E PUSH2 0x1739 JUMP JUMPDEST PUSH1 0x3 PUSH1 0x14 SWAP1 SLOAD SWAP1 PUSH2 0x100 EXP SWAP1 DIV PUSH1 0xFF AND ISZERO PUSH2 0x1585 JUMPI PUSH1 0x40 MLOAD PUSH32 0xF562B5A000000000000000000000000000000000000000000000000000000000 DUP2 MSTORE PUSH1 0x4 ADD PUSH1 0x40 MLOAD DUP1 SWAP2 SUB SWAP1 REVERT JUMPDEST DUP4 DUP1 TIMESTAMP GT ISZERO PUSH2 0x15CB JUMPI DUP1 PUSH1 0x40 MLOAD PUSH32 0xF80DBAEA00000000000000000000000000000000000000000000000000000000 DUP2 MSTORE PUSH1 0x4 ADD PUSH2 0x15C2 SWAP2 SWAP1 PUSH2 0x320E JUMP JUMPDEST PUSH1 0x40 MLOAD DUP1 SWAP2 SUB SWAP1 REVERT JUMPDEST PUSH0 PUSH20 0xFFFFFFFFFFFFFFFFFFFFFFFFFFFFFFFFFFFFFFFF AND PUSH1 0x4 PUSH0 SWAP1 SLOAD SWAP1 PUSH2 0x100 EXP SWAP1 DIV PUSH20 0xFFFFFFFFFFFFFFFFFFFFFFFFFFFFFFFFFFFFFFFF AND PUSH20 0xFFFFFFFFFFFFFFFFFFFFFFFFFFFFFFFFFFFFFFFF AND SUB PUSH2 0x1651 JUMPI PUSH1 0x40 MLOAD PUSH32 0xDC08FA200000000000000000000000000000000000000000000000000000000 DUP2 MSTORE PUSH1 0x4 ADD PUSH1 0x40 MLOAD DUP1 SWAP2 SUB SWAP1 REVERT JUMPDEST PUSH0 PUSH20 0xFFFFFFFFFFFFFFFFFFFFFFFFFFFFFFFFFFFFFFFF AND DUP7 PUSH20 0xFFFFFFFFFFFFFFFFFFFFFFFFFFFFFFFFFFFFFFFF AND SUB PUSH2 0x16B6 JUMPI PUSH1 0x40 MLOAD PUSH32 0xD92E233D00000000000000000000000000000000000000000000000000000000 DUP2 MSTORE PUSH1 0x4 ADD PUSH1 0x40 MLOAD DUP1 SWAP2 SUB SWAP1 REVERT JUMPDEST PUSH0 CALLVALUE SUB PUSH2 0x16EF JUMPI PUSH1 0x40 MLOAD PUSH32 0x1F2A200500000000000000000000000000000000000000000000000000000000 DUP2 MSTORE PUSH1 0x4 ADD PUSH1 0x40 MLOAD DUP1 SWAP2 SUB SWAP1 REVERT JUMPDEST PUSH0 PUSH2 0x16FD DUP12 DUP12 CALLVALUE DUP13 DUP13 PUSH2 0x2244 JUMP JUMPDEST SWAP1 POP DUP1 PUSH1 0x20 ADD MLOAD SWAP5 POP DUP1 PUSH1 0x40 ADD MLOAD SWAP4 POP PUSH2 0x1718 DUP12 DUP3 DUP10 PUSH2 0x22EB JUMP JUMPDEST SWAP3 POP PUSH2 0x1723 DUP5 PUSH2 0x242A JUMP JUMPDEST POP POP PUSH2 0x172D PUSH2 0x18D6 JUMP JUMPDEST SWAP7 POP SWAP7 POP SWAP7 SWAP4 POP POP POP POP JUMP JUMPDEST PUSH2 0x1741 PUSH2 0x24E1 JUMP JUMPDEST PUSH1 0x2 PUSH2 0x1753 PUSH2 0x174E PUSH2 0x2522 JUMP JUMPDEST PUSH2 0x254B JUMP JUMPDEST PUSH0 ADD DUP2 SWAP1 SSTORE POP JUMP JUMPDEST PUSH0 DUP1 PUSH0 PUSH2 0x1789 DUP9 PUSH1 0x4 PUSH0 SWAP1 SLOAD SWAP1 PUSH2 0x100 EXP SWAP1 DIV PUSH20 0xFFFFFFFFFFFFFFFFFFFFFFFFFFFFFFFFFFFFFFFF AND PUSH2 0x1A10 JUMP JUMPDEST SWAP1 POP PUSH2 0x1797 DUP2 DUP10 DUP10 ADDRESS PUSH2 0x1F09 JUMP JUMPDEST DUP1 SWAP4 POP DUP2 SWAP5 POP POP POP DUP6 DUP4 LT ISZERO PUSH2 0x17E6 JUMPI DUP3 DUP7 PUSH1 0x40 MLOAD PUSH32 0x47C5F09E00000000000000000000000000000000000000000000000000000000 DUP2 MSTORE PUSH1 0x4 ADD PUSH2 0x17DD SWAP3 SWAP2 SWAP1 PUSH2 0x3197 JUMP JUMPDEST PUSH1 0x40 MLOAD DUP1 SWAP2 SUB SWAP1 REVERT JUMPDEST DUP5 DUP3 LT ISZERO PUSH2 0x182D JUMPI DUP2 DUP6 PUSH1 0x40 MLOAD PUSH32 0x5195966700000000000000000000000000000000000000000000000000000000 DUP2 MSTORE PUSH1 0x4 ADD PUSH2 0x1824 SWAP3 SWAP2 SWAP1 PUSH2 0x3197 JUMP JUMPDEST PUSH1 0x40 MLOAD DUP1 SWAP2 SUB SWAP1 REVERT JUMPDEST PUSH2 0x1858 DUP5 DUP5 DUP11 PUSH20 0xFFFFFFFFFFFFFFFFFFFFFFFFFFFFFFFFFFFFFFFF AND PUSH2 0x2554 SWAP1 SWAP3 SWAP2 SWAP1 PUSH4 0xFFFFFFFF AND JUMP JUMPDEST PUSH2 0x1862 DUP5 DUP4 PUSH2 0x25A7 JUMP JUMPDEST CALLER PUSH20 0xFFFFFFFFFFFFFFFFFFFFFFFFFFFFFFFFFFFFFFFF AND DUP2 PUSH20 0xFFFFFFFFFFFFFFFFFFFFFFFFFFFFFFFFFFFFFFFF AND PUSH32 0xBC7D19D505C7EC4DB83F3B51F19FB98C4C8A99922E7839D1EE608DFBEE29501B DUP6 DUP6 DUP12 PUSH1 0x40 MLOAD PUSH2 0x18C3 SWAP4 SWAP3 SWAP2 SWAP1 PUSH2 0x3500 JUMP JUMPDEST PUSH1 0x40 MLOAD DUP1 SWAP2 SUB SWAP1 LOG3 POP SWAP6 POP SWAP6 SWAP4 POP POP POP POP JUMP JUMPDEST PUSH1 0x1 PUSH2 0x18E8 PUSH2 0x18E3 PUSH2 0x2522 JUMP JUMPDEST PUSH2 0x254B JUMP JUMPDEST PUSH0 ADD DUP2 SWAP1 SSTORE POP JUMP JUMPDEST PUSH0 DUP1 DUP5 EQ DUP1 PUSH2 0x18FE JUMPI POP PUSH0 DUP4 EQ JUMPDEST DUP1 PUSH2 0x1908 JUMPI POP PUSH0 DUP3 EQ JUMPDEST ISZERO PUSH2 0x193F JUMPI PUSH1 0x40 MLOAD PUSH32 0x1F2A200500000000000000000000000000000000000000000000000000000000 DUP2 MSTORE PUSH1 0x4 ADD PUSH1 0x40 MLOAD DUP1 SWAP2 SUB SWAP1 REVERT JUMPDEST PUSH0 PUSH2 0x3E5 DUP6 PUSH2 0x194E SWAP2 SWAP1 PUSH2 0x35C8 JUMP JUMPDEST SWAP1 POP DUP1 PUSH2 0x3E8 DUP6 PUSH2 0x195F SWAP2 SWAP1 PUSH2 0x35C8 JUMP JUMPDEST PUSH2 0x1969 SWAP2 SWAP1 PUSH2 0x3609 JUMP JUMPDEST DUP4 DUP3 PUSH2 0x1975 SWAP2 SWAP1 PUSH2 0x35C8 JUMP JUMPDEST PUSH2 0x197F SWAP2 SWAP1 PUSH2 0x3669 JUMP JUMPDEST SWAP2 POP POP SWAP4 SWAP3 POP POP POP JUMP JUMPDEST PUSH2 0x1991 PUSH2 0x26D2 JUMP JUMPDEST PUSH20 0xFFFFFFFFFFFFFFFFFFFFFFFFFFFFFFFFFFFFFFFF AND PUSH2 0x19AF PUSH2 0xBC2 JUMP JUMPDEST PUSH20 0xFFFFFFFFFFFFFFFFFFFFFFFFFFFFFFFFFFFFFFFF AND EQ PUSH2 0x1A0E JUMPI PUSH2 0x19D2 PUSH2 0x26D2 JUMP JUMPDEST PUSH1 0x40 MLOAD PUSH32 0x118CDAA700000000000000000000000000000000000000000000000000000000 DUP2 MSTORE PUSH1 0x4 ADD PUSH2 0x1A05 SWAP2 SWAP1 PUSH2 0x3333 JUMP JUMPDEST PUSH1 0x40 MLOAD DUP1 SWAP2 SUB SWAP1 REVERT JUMPDEST JUMP JUMPDEST PUSH0 PUSH32 0x0 PUSH20 0xFFFFFFFFFFFFFFFFFFFFFFFFFFFFFFFFFFFFFFFF AND PUSH4 0xB4F69A2F DUP5 DUP5 PUSH1 0x40 MLOAD DUP4 PUSH4 0xFFFFFFFF AND PUSH1 0xE0 SHL DUP2 MSTORE PUSH1 0x4 ADD PUSH2 0x1A6C SWAP3 SWAP2 SWAP1 PUSH2 0x3535 JUMP JUMPDEST PUSH1 0x20 PUSH1 0x40 MLOAD DUP1 DUP4 SUB DUP2 DUP7 GAS STATICCALL ISZERO DUP1 ISZERO PUSH2 0x1A87 JUMPI RETURNDATASIZE PUSH0 DUP1 RETURNDATACOPY RETURNDATASIZE PUSH0 REVERT JUMPDEST POP POP POP POP PUSH1 0x40 MLOAD RETURNDATASIZE PUSH1 0x1F NOT PUSH1 0x1F DUP3 ADD AND DUP3 ADD DUP1 PUSH1 0x40 MSTORE POP DUP2 ADD SWAP1 PUSH2 0x1AAB SWAP2 SWAP1 PUSH2 0x3570 JUMP JUMPDEST SWAP1 POP PUSH0 PUSH20 0xFFFFFFFFFFFFFFFFFFFFFFFFFFFFFFFFFFFFFFFF AND DUP2 PUSH20 0xFFFFFFFFFFFFFFFFFFFFFFFFFFFFFFFFFFFFFFFF AND SUB PUSH2 0x1B1F JUMPI DUP3 DUP3 PUSH1 0x40 MLOAD PUSH32 0x4DB171D400000000000000000000000000000000000000000000000000000000 DUP2 MSTORE PUSH1 0x4 ADD PUSH2 0x1B16 SWAP3 SWAP2 SWAP1 PUSH2 0x3535 JUMP JUMPDEST PUSH1 0x40 MLOAD DUP1 SWAP2 SUB SWAP1 REVERT JUMPDEST SWAP3 SWAP2 POP POP JUMP JUMPDEST PUSH0 DUP1 PUSH0 DUP1 DUP6 PUSH20 0xFFFFFFFFFFFFFFFFFFFFFFFFFFFFFFFFFFFFFFFF AND PUSH4 0x902F1AC PUSH1 0x40 MLOAD DUP2 PUSH4 0xFFFFFFFF AND PUSH1 0xE0 SHL DUP2 MSTORE PUSH1 0x4 ADD PUSH1 0x60 PUSH1 0x40 MLOAD DUP1 DUP4 SUB DUP2 DUP7 GAS STATICCALL ISZERO DUP1 ISZERO PUSH2 0x1B72 JUMPI RETURNDATASIZE PUSH0 DUP1 RETURNDATACOPY RETURNDATASIZE PUSH0 REVERT JUMPDEST POP POP POP POP PUSH1 0x40 MLOAD RETURNDATASIZE PUSH1 0x1F NOT PUSH1 0x1F DUP3 ADD AND DUP3 ADD DUP1 PUSH1 0x40 MSTORE POP DUP2 ADD SWAP1 PUSH2 0x1B96 SWAP2 SWAP1 PUSH2 0x3715 JUMP JUMPDEST POP SWAP2 POP SWAP2 POP DUP6 PUSH20 0xFFFFFFFFFFFFFFFFFFFFFFFFFFFFFFFFFFFFFFFF AND PUSH4 0xDFE1681 PUSH1 0x40 MLOAD DUP2 PUSH4 0xFFFFFFFF AND PUSH1 0xE0 SHL DUP2 MSTORE PUSH1 0x4 ADD PUSH1 0x20 PUSH1 0x40 MLOAD DUP1 DUP4 SUB DUP2 DUP7 GAS STATICCALL ISZERO DUP1 ISZERO PUSH2 0x1BE4 JUMPI RETURNDATASIZE PUSH0 DUP1 RETURNDATACOPY RETURNDATASIZE PUSH0 REVERT JUMPDEST POP POP POP POP PUSH1 0x40 MLOAD RETURNDATASIZE PUSH1 0x1F NOT PUSH1 0x1F DUP3 ADD AND DUP3 ADD DUP1 PUSH1 0x40 MSTORE POP DUP2 ADD SWAP1 PUSH2 0x1C08 SWAP2 SWAP1 PUSH2 0x3570 JUMP JUMPDEST PUSH20 0xFFFFFFFFFFFFFFFFFFFFFFFFFFFFFFFFFFFFFFFF AND DUP6 PUSH20 0xFFFFFFFFFFFFFFFFFFFFFFFFFFFFFFFFFFFFFFFF AND EQ PUSH2 0x1C61 JUMPI DUP1 PUSH14 0xFFFFFFFFFFFFFFFFFFFFFFFFFFFF AND DUP3 PUSH14 0xFFFFFFFFFFFFFFFFFFFFFFFFFFFF AND PUSH2 0x1C84 JUMP JUMPDEST DUP2 PUSH14 0xFFFFFFFFFFFFFFFFFFFFFFFFFFFF AND DUP2 PUSH14 0xFFFFFFFFFFFFFFFFFFFFFFFFFFFF AND JUMPDEST DUP1 SWAP5 POP DUP2 SWAP6 POP POP POP POP POP SWAP3 POP SWAP3 SWAP1 POP JUMP JUMPDEST PUSH0 PUSH2 0x1CA0 DUP8 DUP8 PUSH2 0x1A10 JUMP JUMPDEST SWAP1 POP PUSH2 0x1CCF CALLER DUP3 DUP8 DUP11 PUSH20 0xFFFFFFFFFFFFFFFFFFFFFFFFFFFFFFFFFFFFFFFF AND PUSH2 0x26D9 SWAP1 SWAP4 SWAP3 SWAP2 SWAP1 PUSH4 0xFFFFFFFF AND JUMP JUMPDEST PUSH2 0x1CD9 DUP8 DUP7 PUSH2 0x272E JUMP JUMPDEST PUSH2 0x1CE5 DUP2 DUP9 DUP7 DUP7 PUSH2 0x2886 JUMP JUMPDEST PUSH2 0x1CEF DUP8 DUP4 PUSH2 0x29AC JUMP JUMPDEST PUSH32 0x300B4A9AC356114BE2EAFFE0F530CD615F14560DF4B634ADC11142D1358E8976 CALLER DUP9 DUP9 DUP9 DUP9 DUP9 PUSH1 0x40 MLOAD PUSH2 0x1D28 SWAP7 SWAP6 SWAP5 SWAP4 SWAP3 SWAP2 SWAP1 PUSH2 0x3765 JUMP JUMPDEST PUSH1 0x40 MLOAD DUP1 SWAP2 SUB SWAP1 LOG1 POP POP POP POP POP POP POP JUMP JUMPDEST PUSH0 DUP1 PUSH0 SWAP1 SLOAD SWAP1 PUSH2 0x100 EXP SWAP1 DIV PUSH20 0xFFFFFFFFFFFFFFFFFFFFFFFFFFFFFFFFFFFFFFFF AND SWAP1 POP DUP2 PUSH0 DUP1 PUSH2 0x100 EXP DUP2 SLOAD DUP2 PUSH20 0xFFFFFFFFFFFFFFFFFFFFFFFFFFFFFFFFFFFFFFFF MUL NOT AND SWAP1 DUP4 PUSH20 0xFFFFFFFFFFFFFFFFFFFFFFFFFFFFFFFFFFFFFFFF AND MUL OR SWAP1 SSTORE POP DUP2 PUSH20 0xFFFFFFFFFFFFFFFFFFFFFFFFFFFFFFFFFFFFFFFF AND DUP2 PUSH20 0xFFFFFFFFFFFFFFFFFFFFFFFFFFFFFFFFFFFFFFFF AND PUSH32 0x8BE0079C531659141344CD1FD0A4F28419497F9722A3DAAFE3B4186F6B6457E0 PUSH1 0x40 MLOAD PUSH1 0x40 MLOAD DUP1 SWAP2 SUB SWAP1 LOG3 POP POP JUMP JUMPDEST PUSH0 DUP1 DUP5 EQ DUP1 PUSH2 0x1E08 JUMPI POP PUSH0 DUP4 EQ JUMPDEST DUP1 PUSH2 0x1E12 JUMPI POP PUSH0 DUP3 EQ JUMPDEST ISZERO PUSH2 0x1E49 JUMPI PUSH1 0x40 MLOAD PUSH32 0x1F2A200500000000000000000000000000000000000000000000000000000000 DUP2 MSTORE PUSH1 0x4 ADD PUSH1 0x40 MLOAD DUP1 SWAP2 SUB SWAP1 REVERT JUMPDEST PUSH1 0x1 PUSH2 0x3E5 DUP6 DUP5 PUSH2 0x1E5A SWAP2 SWAP1 PUSH2 0x37C4 JUMP JUMPDEST PUSH2 0x1E64 SWAP2 SWAP1 PUSH2 0x35C8 JUMP JUMPDEST PUSH2 0x3E8 DUP7 DUP7 PUSH2 0x1E73 SWAP2 SWAP1 PUSH2 0x35C8 JUMP JUMPDEST PUSH2 0x1E7D SWAP2 SWAP1 PUSH2 0x35C8 JUMP JUMPDEST PUSH2 0x1E87 SWAP2 SWAP1 PUSH2 0x3669 JUMP JUMPDEST PUSH2 0x1E91 SWAP2 SWAP1 PUSH2 0x3609 JUMP JUMPDEST SWAP1 POP SWAP4 SWAP3 POP POP POP JUMP JUMPDEST PUSH0 DUP1 DUP5 EQ DUP1 PUSH2 0x1EA8 JUMPI POP PUSH0 DUP4 EQ JUMPDEST DUP1 PUSH2 0x1EB2 JUMPI POP PUSH0 DUP3 EQ JUMPDEST ISZERO PUSH2 0x1EE9 JUMPI PUSH1 0x40 MLOAD PUSH32 0x1F2A200500000000000000000000000000000000000000000000000000000000 DUP2 MSTORE PUSH1 0x4 ADD PUSH1 0x40 MLOAD DUP1 SWAP2 SUB SWAP1 REVERT JUMPDEST DUP3 DUP3 DUP6 PUSH2 0x1EF6 SWAP2 SWAP1 PUSH2 0x35C8 JUMP JUMPDEST PUSH2 0x1F00 SWAP2 SWAP1 PUSH2 0x3669 JUMP JUMPDEST SWAP1 POP SWAP4 SWAP3 POP POP POP JUMP JUMPDEST PUSH0 DUP1 PUSH2 0x1F38 CALLER DUP8 DUP7 DUP10 PUSH20 0xFFFFFFFFFFFFFFFFFFFFFFFFFFFFFFFFFFFFFFFF AND PUSH2 0x26D9 SWAP1 SWAP4 SWAP3 SWAP2 SWAP1 PUSH4 0xFFFFFFFF AND JUMP JUMPDEST PUSH0 DUP1 DUP8 PUSH20 0xFFFFFFFFFFFFFFFFFFFFFFFFFFFFFFFFFFFFFFFF AND PUSH4 0x89AFCB44 DUP7 PUSH1 0x40 MLOAD DUP3 PUSH4 0xFFFFFFFF AND PUSH1 0xE0 SHL DUP2 MSTORE PUSH1 0x4 ADD PUSH2 0x1F73 SWAP2 SWAP1 PUSH2 0x3333 JUMP JUMPDEST PUSH1 0x40 DUP1 MLOAD DUP1 DUP4 SUB DUP2 PUSH0 DUP8 GAS CALL ISZERO DUP1 ISZERO PUSH2 0x1F8E JUMPI RETURNDATASIZE PUSH0 DUP1 RETURNDATACOPY RETURNDATASIZE PUSH0 REVERT JUMPDEST POP POP POP POP PUSH1 0x40 MLOAD RETURNDATASIZE PUSH1 0x1F NOT PUSH1 0x1F DUP3 ADD AND DUP3 ADD DUP1 PUSH1 0x40 MSTORE POP DUP2 ADD SWAP1 PUSH2 0x1FB2 SWAP2 SWAP1 PUSH2 0x380B JUMP JUMPDEST SWAP2 POP SWAP2 POP DUP8 PUSH20 0xFFFFFFFFFFFFFFFFFFFFFFFFFFFFFFFFFFFFFFFF AND PUSH4 0xDFE1681 PUSH1 0x40 MLOAD DUP2 PUSH4 0xFFFFFFFF AND PUSH1 0xE0 SHL DUP2 MSTORE PUSH1 0x4 ADD PUSH1 0x20 PUSH1 0x40 MLOAD DUP1 DUP4 SUB DUP2 DUP7 GAS STATICCALL ISZERO DUP1 ISZERO PUSH2 0x1FFF JUMPI RETURNDATASIZE PUSH0 DUP1 RETURNDATACOPY RETURNDATASIZE PUSH0 REVERT JUMPDEST POP POP POP POP PUSH1 0x40 MLOAD RETURNDATASIZE PUSH1 0x1F NOT PUSH1 0x1F DUP3 ADD AND DUP3 ADD DUP1 PUSH1 0x40 MSTORE POP DUP2 ADD SWAP1 PUSH2 0x2023 SWAP2 SWAP1 PUSH2 0x3570 JUMP JUMPDEST PUSH20 0xFFFFFFFFFFFFFFFFFFFFFFFFFFFFFFFFFFFFFFFF AND DUP8 PUSH20 0xFFFFFFFFFFFFFFFFFFFFFFFFFFFFFFFFFFFFFFFF AND EQ PUSH2 0x205C JUMPI DUP1 DUP3 PUSH2 0x205F JUMP JUMPDEST DUP2 DUP2 JUMPDEST DUP1 SWAP5 POP DUP2 SWAP6 POP POP POP POP POP SWAP5 POP SWAP5 SWAP3 POP POP POP JUMP JUMPDEST PUSH2 0x207A PUSH2 0x303A JUMP JUMPDEST PUSH2 0x2084 DUP5 DUP5 PUSH2 0x1A10 JUMP JUMPDEST DUP2 PUSH0 ADD SWAP1 PUSH20 0xFFFFFFFFFFFFFFFFFFFFFFFFFFFFFFFFFFFFFFFF AND SWAP1 DUP2 PUSH20 0xFFFFFFFFFFFFFFFFFFFFFFFFFFFFFFFFFFFFFFFF AND DUP2 MSTORE POP POP PUSH2 0x20C8 DUP2 PUSH0 ADD MLOAD DUP6 DUP5 PUSH2 0x2C78 JUMP JUMPDEST DUP3 PUSH1 0x20 ADD DUP4 PUSH1 0x40 ADD DUP3 DUP2 MSTORE POP DUP3 DUP2 MSTORE POP POP POP SWAP4 SWAP3 POP POP POP JUMP JUMPDEST PUSH0 PUSH2 0x2116 CALLER DUP5 PUSH0 ADD MLOAD DUP6 PUSH1 0x20 ADD MLOAD DUP9 PUSH20 0xFFFFFFFFFFFFFFFFFFFFFFFFFFFFFFFFFFFFFFFF AND PUSH2 0x26D9 SWAP1 SWAP4 SWAP3 SWAP2 SWAP1 PUSH4 0xFFFFFFFF AND JUMP JUMPDEST PUSH2 0x214A CALLER DUP5 PUSH0 ADD MLOAD DUP6 PUSH1 0x40 ADD MLOAD DUP8 PUSH20 0xFFFFFFFFFFFFFFFFFFFFFFFFFFFFFFFFFFFFFFFF AND PUSH2 0x26D9 SWAP1 SWAP4 SWAP3 SWAP2 SWAP1 PUSH4 0xFFFFFFFF AND JUMP JUMPDEST DUP3 PUSH0 ADD MLOAD PUSH20 0xFFFFFFFFFFFFFFFFFFFFFFFFFFFFFFFFFFFFFFFF AND PUSH4 0x6A627842 DUP4 PUSH1 0x40 MLOAD DUP3 PUSH4 0xFFFFFFFF AND PUSH1 0xE0 SHL DUP2 MSTORE PUSH1 0x4 ADD PUSH2 0x2186 SWAP2 SWAP1 PUSH2 0x3333 JUMP JUMPDEST PUSH1 0x20 PUSH1 0x40 MLOAD DUP1 DUP4 SUB DUP2 PUSH0 DUP8 GAS CALL ISZERO DUP1 ISZERO PUSH2 0x21A2 JUMPI RETURNDATASIZE PUSH0 DUP1 RETURNDATACOPY RETURNDATASIZE PUSH0 REVERT JUMPDEST POP POP POP POP PUSH1 0x40 MLOAD RETURNDATASIZE PUSH1 0x1F NOT PUSH1 0x1F DUP3 ADD AND DUP3 ADD DUP1 PUSH1 0x40 MSTORE POP DUP2 ADD SWAP1 PUSH2 0x21C6 SWAP2 SWAP1 PUSH2 0x3849 JUMP JUMPDEST SWAP1 POP CALLER PUSH20 0xFFFFFFFFFFFFFFFFFFFFFFFFFFFFFFFFFFFFFFFF AND DUP4 PUSH0 ADD MLOAD PUSH20 0xFFFFFFFFFFFFFFFFFFFFFFFFFFFFFFFFFFFFFFFF AND PUSH32 0x4A1A2A6176E9646D9E3157F7C2AB3C499F18337C0B0828CFB28E0A61DE4A11F7 DUP6 PUSH1 0x20 ADD MLOAD DUP7 PUSH1 0x40 ADD MLOAD DUP6 PUSH1 0x40 MLOAD PUSH2 0x2234 SWAP4 SWAP3 SWAP2 SWAP1 PUSH2 0x3500 JUMP JUMPDEST PUSH1 0x40 MLOAD DUP1 SWAP2 SUB SWAP1 LOG3 SWAP5 SWAP4 POP POP POP POP JUMP JUMPDEST PUSH2 0x224C PUSH2 0x303A JUMP JUMPDEST PUSH2 0x2277 DUP7 PUSH1 0x4 PUSH0 SWAP1 SLOAD SWAP1 PUSH2 0x100 EXP SWAP1 DIV PUSH20 0xFFFFFFFFFFFFFFFFFFFFFFFFFFFFFFFFFFFFFFFF AND PUSH2 0x1A10 JUMP JUMPDEST DUP2 PUSH0 ADD SWAP1 PUSH20 0xFFFFFFFFFFFFFFFFFFFFFFFFFFFFFFFFFFFFFFFF AND SWAP1 DUP2 PUSH20 0xFFFFFFFFFFFFFFFFFFFFFFFFFFFFFFFFFFFFFFFF AND DUP2 MSTORE POP POP PUSH0 DUP1 PUSH2 0x22BC DUP4 PUSH0 ADD MLOAD DUP10 PUSH2 0x1B25 JUMP JUMPDEST SWAP2 POP SWAP2 POP PUSH2 0x22CE DUP8 DUP8 DUP8 DUP8 DUP7 DUP7 PUSH2 0x2CB5 JUMP JUMPDEST DUP5 PUSH1 0x20 ADD DUP6 PUSH1 0x40 ADD DUP3 DUP2 MSTORE POP DUP3 DUP2 MSTORE POP POP POP POP POP SWAP6 SWAP5 POP POP POP POP POP JUMP JUMPDEST PUSH0 PUSH2 0x2320 CALLER DUP5 PUSH0 ADD MLOAD DUP6 PUSH1 0x20 ADD MLOAD DUP8 PUSH20 0xFFFFFFFFFFFFFFFFFFFFFFFFFFFFFFFFFFFFFFFF AND PUSH2 0x26D9 SWAP1 SWAP4 SWAP3 SWAP2 SWAP1 PUSH4 0xFFFFFFFF AND JUMP JUMPDEST PUSH2 0x2331 DUP4 PUSH0 ADD MLOAD DUP5 PUSH1 0x40 ADD MLOAD PUSH2 0x2DA6 JUMP JUMPDEST DUP3 PUSH0 ADD MLOAD PUSH20 0xFFFFFFFFFFFFFFFFFFFFFFFFFFFFFFFFFFFFFFFF AND PUSH4 0x6A627842 DUP4 PUSH1 0x40 MLOAD DUP3 PUSH4 0xFFFFFFFF AND PUSH1 0xE0 SHL DUP2 MSTORE PUSH1 0x4 ADD PUSH2 0x236D SWAP2 SWAP1 PUSH2 0x3333 JUMP JUMPDEST PUSH1 0x20 PUSH1 0x40 MLOAD DUP1 DUP4 SUB DUP2 PUSH0 DUP8 GAS CALL ISZERO DUP1 ISZERO PUSH2 0x2389 JUMPI RETURNDATASIZE PUSH0 DUP1 RETURNDATACOPY RETURNDATASIZE PUSH0 REVERT JUMPDEST POP POP POP POP PUSH1 0x40 MLOAD RETURNDATASIZE PUSH1 0x1F NOT PUSH1 0x1F DUP3 ADD AND DUP3 ADD DUP1 PUSH1 0x40 MSTORE POP DUP2 ADD SWAP1 PUSH2 0x23AD SWAP2 SWAP1 PUSH2 0x3849 JUMP JUMPDEST SWAP1 POP CALLER PUSH20 0xFFFFFFFFFFFFFFFFFFFFFFFFFFFFFFFFFFFFFFFF AND DUP4 PUSH0 ADD MLOAD PUSH20 0xFFFFFFFFFFFFFFFFFFFFFFFFFFFFFFFFFFFFFFFF AND PUSH32 0x4A1A2A6176E9646D9E3157F7C2AB3C499F18337C0B0828CFB28E0A61DE4A11F7 DUP6 PUSH1 0x20 ADD MLOAD DUP7 PUSH1 0x40 ADD MLOAD DUP6 PUSH1 0x40 MLOAD PUSH2 0x241B SWAP4 SWAP3 SWAP2 SWAP1 PUSH2 0x3500 JUMP JUMPDEST PUSH1 0x40 MLOAD DUP1 SWAP2 SUB SWAP1 LOG3 SWAP4 SWAP3 POP POP POP JUMP JUMPDEST DUP1 CALLVALUE GT ISZERO PUSH2 0x24DE JUMPI PUSH0 CALLER PUSH20 0xFFFFFFFFFFFFFFFFFFFFFFFFFFFFFFFFFFFFFFFF AND DUP3 CALLVALUE PUSH2 0x2456 SWAP2 SWAP1 PUSH2 0x37C4 JUMP JUMPDEST PUSH1 0x40 MLOAD PUSH2 0x2462 SWAP1 PUSH2 0x38A1 JUMP JUMPDEST PUSH0 PUSH1 0x40 MLOAD DUP1 DUP4 SUB DUP2 DUP6 DUP8 GAS CALL SWAP3 POP POP POP RETURNDATASIZE DUP1 PUSH0 DUP2 EQ PUSH2 0x249C JUMPI PUSH1 0x40 MLOAD SWAP2 POP PUSH1 0x1F NOT PUSH1 0x3F RETURNDATASIZE ADD AND DUP3 ADD PUSH1 0x40 MSTORE RETURNDATASIZE DUP3 MSTORE RETURNDATASIZE PUSH0 PUSH1 0x20 DUP5 ADD RETURNDATACOPY PUSH2 0x24A1 JUMP JUMPDEST PUSH1 0x60 SWAP2 POP JUMPDEST POP POP SWAP1 POP DUP1 PUSH2 0x24DC JUMPI PUSH1 0x40 MLOAD PUSH32 0xF0C49D4400000000000000000000000000000000000000000000000000000000 DUP2 MSTORE PUSH1 0x4 ADD PUSH1 0x40 MLOAD DUP1 SWAP2 SUB SWAP1 REVERT JUMPDEST POP JUMPDEST POP JUMP JUMPDEST PUSH2 0x24E9 PUSH2 0x2F4B JUMP JUMPDEST ISZERO PUSH2 0x2520 JUMPI PUSH1 0x40 MLOAD PUSH32 0x3EE5AEB500000000000000000000000000000000000000000000000000000000 DUP2 MSTORE PUSH1 0x4 ADD PUSH1 0x40 MLOAD DUP1 SWAP2 SUB SWAP1 REVERT JUMPDEST JUMP JUMPDEST PUSH0 PUSH32 0x9B779B17422D0DF92223018B32B4D1FA46E071723D6817E2486D003BECC55F00 PUSH0 SHL SWAP1 POP SWAP1 JUMP JUMPDEST PUSH0 DUP2 SWAP1 POP SWAP2 SWAP1 POP JUMP JUMPDEST PUSH2 0x2561 DUP4 DUP4 DUP4 PUSH1 0x1 PUSH2 0x2F67 JUMP JUMPDEST PUSH2 0x25A2 JUMPI DUP3 PUSH1 0x40 MLOAD PUSH32 0x5274AFE700000000000000000000000000000000000000000000000000000000 DUP2 MSTORE PUSH1 0x4 ADD PUSH2 0x2599 SWAP2 SWAP1 PUSH2 0x3333 JUMP JUMPDEST PUSH1 0x40 MLOAD DUP1 SWAP2 SUB SWAP1 REVERT JUMPDEST POP POP POP JUMP JUMPDEST PUSH1 0x4 PUSH0 SWAP1 SLOAD SWAP1 PUSH2 0x100 EXP SWAP1 DIV PUSH20 0xFFFFFFFFFFFFFFFFFFFFFFFFFFFFFFFFFFFFFFFF AND PUSH20 0xFFFFFFFFFFFFFFFFFFFFFFFFFFFFFFFFFFFFFFFF AND PUSH4 0x2E1A7D4D DUP3 PUSH1 0x40 MLOAD DUP3 PUSH4 0xFFFFFFFF AND PUSH1 0xE0 SHL DUP2 MSTORE PUSH1 0x4 ADD PUSH2 0x2601 SWAP2 SWAP1 PUSH2 0x320E JUMP JUMPDEST PUSH0 PUSH1 0x40 MLOAD DUP1 DUP4 SUB DUP2 PUSH0 DUP8 DUP1 EXTCODESIZE ISZERO DUP1 ISZERO PUSH2 0x2618 JUMPI PUSH0 DUP1 REVERT JUMPDEST POP GAS CALL ISZERO DUP1 ISZERO PUSH2 0x262A JUMPI RETURNDATASIZE PUSH0 DUP1 RETURNDATACOPY RETURNDATASIZE PUSH0 REVERT JUMPDEST POP POP POP POP PUSH0 DUP3 PUSH20 0xFFFFFFFFFFFFFFFFFFFFFFFFFFFFFFFFFFFFFFFF AND DUP3 PUSH1 0x40 MLOAD PUSH2 0x2653 SWAP1 PUSH2 0x38A1 JUMP JUMPDEST PUSH0 PUSH1 0x40 MLOAD DUP1 DUP4 SUB DUP2 DUP6 DUP8 GAS CALL SWAP3 POP POP POP RETURNDATASIZE DUP1 PUSH0 DUP2 EQ PUSH2 0x268D JUMPI PUSH1 0x40 MLOAD SWAP2 POP PUSH1 0x1F NOT PUSH1 0x3F RETURNDATASIZE ADD AND DUP3 ADD PUSH1 0x40 MSTORE RETURNDATASIZE DUP3 MSTORE RETURNDATASIZE PUSH0 PUSH1 0x20 DUP5 ADD RETURNDATACOPY PUSH2 0x2692 JUMP JUMPDEST PUSH1 0x60 SWAP2 POP JUMPDEST POP POP SWAP1 POP DUP1 PUSH2 0x26CD JUMPI PUSH1 0x40 MLOAD PUSH32 0xF0C49D4400000000000000000000000000000000000000000000000000000000 DUP2 MSTORE PUSH1 0x4 ADD PUSH1 0x40 MLOAD DUP1 SWAP2 SUB SWAP1 REVERT JUMPDEST POP POP POP JUMP JUMPDEST PUSH0 CALLER SWAP1 POP SWAP1 JUMP JUMPDEST PUSH2 0x26E7 DUP5 DUP5 DUP5 DUP5 PUSH1 0x1 PUSH2 0x2FC9 JUMP JUMPDEST PUSH2 0x2728 JUMPI DUP4 PUSH1 0x40 MLOAD PUSH32 0x5274AFE700000000000000000000000000000000000000000000000000000000 DUP2 MSTORE PUSH1 0x4 ADD PUSH2 0x271F SWAP2 SWAP1 PUSH2 0x3333 JUMP JUMPDEST PUSH1 0x40 MLOAD DUP1 SWAP2 SUB SWAP1 REVERT JUMPDEST POP POP POP POP JUMP JUMPDEST PUSH0 PUSH2 0x2710 PUSH1 0x5 DUP4 PUSH2 0x273F SWAP2 SWAP1 PUSH2 0x35C8 JUMP JUMPDEST PUSH2 0x2749 SWAP2 SWAP1 PUSH2 0x3669 JUMP JUMPDEST SWAP1 POP PUSH0 DUP2 GT DUP1 ISZERO PUSH2 0x27A7 JUMPI POP PUSH0 PUSH20 0xFFFFFFFFFFFFFFFFFFFFFFFFFFFFFFFFFFFFFFFF AND PUSH1 0x1 PUSH0 SWAP1 SLOAD SWAP1 PUSH2 0x100 EXP SWAP1 DIV PUSH20 0xFFFFFFFFFFFFFFFFFFFFFFFFFFFFFFFFFFFFFFFF AND PUSH20 0xFFFFFFFFFFFFFFFFFFFFFFFFFFFFFFFFFFFFFFFF AND EQ ISZERO JUMPDEST ISZERO PUSH2 0x2881 JUMPI PUSH2 0x27FA CALLER PUSH1 0x1 PUSH0 SWAP1 SLOAD SWAP1 PUSH2 0x100 EXP SWAP1 DIV PUSH20 0xFFFFFFFFFFFFFFFFFFFFFFFFFFFFFFFFFFFFFFFF AND DUP4 DUP7 PUSH20 0xFFFFFFFFFFFFFFFFFFFFFFFFFFFFFFFFFFFFFFFF AND PUSH2 0x26D9 SWAP1 SWAP4 SWAP3 SWAP2 SWAP1 PUSH4 0xFFFFFFFF AND JUMP JUMPDEST DUP3 PUSH20 0xFFFFFFFFFFFFFFFFFFFFFFFFFFFFFFFFFFFFFFFF AND PUSH1 0x1 PUSH0 SWAP1 SLOAD SWAP1 PUSH2 0x100 EXP SWAP1 DIV PUSH20 0xFFFFFFFFFFFFFFFFFFFFFFFFFFFFFFFFFFFFFFFF AND PUSH20 0xFFFFFFFFFFFFFFFFFFFFFFFFFFFFFFFFFFFFFFFF AND PUSH32 0x493FDD1F2099B9854729D46428CE244DBB655E5209E74967FD51B0F0E9FE4E1E DUP4 PUSH1 0x40 MLOAD PUSH2 0x2878 SWAP2 SWAP1 PUSH2 0x320E JUMP JUMPDEST PUSH1 0x40 MLOAD DUP1 SWAP2 SUB SWAP1 LOG3 JUMPDEST POP POP POP JUMP JUMPDEST PUSH0 DUP4 PUSH20 0xFFFFFFFFFFFFFFFFFFFFFFFFFFFFFFFFFFFFFFFF AND DUP6 PUSH20 0xFFFFFFFFFFFFFFFFFFFFFFFFFFFFFFFFFFFFFFFF AND PUSH4 0xDFE1681 PUSH1 0x40 MLOAD DUP2 PUSH4 0xFFFFFFFF AND PUSH1 0xE0 SHL DUP2 MSTORE PUSH1 0x4 ADD PUSH1 0x20 PUSH1 0x40 MLOAD DUP1 DUP4 SUB DUP2 DUP7 GAS STATICCALL ISZERO DUP1 ISZERO PUSH2 0x28E7 JUMPI RETURNDATASIZE PUSH0 DUP1 RETURNDATACOPY RETURNDATASIZE PUSH0 REVERT JUMPDEST POP POP POP POP PUSH1 0x40 MLOAD RETURNDATASIZE PUSH1 0x1F NOT PUSH1 0x1F DUP3 ADD AND DUP3 ADD DUP1 PUSH1 0x40 MSTORE POP DUP2 ADD SWAP1 PUSH2 0x290B SWAP2 SWAP1 PUSH2 0x3570 JUMP JUMPDEST PUSH20 0xFFFFFFFFFFFFFFFFFFFFFFFFFFFFFFFFFFFFFFFF AND EQ SWAP1 POP PUSH0 DUP1 DUP3 PUSH2 0x2932 JUMPI DUP5 PUSH0 PUSH2 0x2935 JUMP JUMPDEST PUSH0 DUP6 JUMPDEST SWAP2 POP SWAP2 POP DUP7 PUSH20 0xFFFFFFFFFFFFFFFFFFFFFFFFFFFFFFFFFFFFFFFF AND PUSH4 0x6D9A640A DUP4 DUP4 DUP8 PUSH1 0x40 MLOAD DUP5 PUSH4 0xFFFFFFFF AND PUSH1 0xE0 SHL DUP2 MSTORE PUSH1 0x4 ADD PUSH2 0x2976 SWAP4 SWAP3 SWAP2 SWAP1 PUSH2 0x38B5 JUMP JUMPDEST PUSH0 PUSH1 0x40 MLOAD DUP1 DUP4 SUB DUP2 PUSH0 DUP8 DUP1 EXTCODESIZE ISZERO DUP1 ISZERO PUSH2 0x298D JUMPI PUSH0 DUP1 REVERT JUMPDEST POP GAS CALL ISZERO DUP1 ISZERO PUSH2 0x299F JUMPI RETURNDATASIZE PUSH0 DUP1 RETURNDATACOPY RETURNDATASIZE PUSH0 REVERT JUMPDEST POP POP POP POP POP POP POP POP POP POP POP JUMP JUMPDEST DUP1 ISZERO PUSH2 0x2C74 JUMPI PUSH0 PUSH20 0xFFFFFFFFFFFFFFFFFFFFFFFFFFFFFFFFFFFFFFFF AND PUSH1 0x3 PUSH0 SWAP1 SLOAD SWAP1 PUSH2 0x100 EXP SWAP1 DIV PUSH20 0xFFFFFFFFFFFFFFFFFFFFFFFFFFFFFFFFFFFFFFFF AND PUSH20 0xFFFFFFFFFFFFFFFFFFFFFFFFFFFFFFFFFFFFFFFF AND SUB ISZERO PUSH2 0x2C74 JUMPI PUSH0 PUSH20 0xFFFFFFFFFFFFFFFFFFFFFFFFFFFFFFFFFFFFFFFF AND PUSH1 0x2 PUSH0 SWAP1 SLOAD SWAP1 PUSH2 0x100 EXP SWAP1 DIV PUSH20 0xFFFFFFFFFFFFFFFFFFFFFFFFFFFFFFFFFFFFFFFF AND PUSH20 0xFFFFFFFFFFFFFFFFFFFFFFFFFFFFFFFFFFFFFFFF AND SUB ISZERO PUSH2 0x2C74 JUMPI PUSH1 0x2 PUSH0 SWAP1 SLOAD SWAP1 PUSH2 0x100 EXP SWAP1 DIV PUSH20 0xFFFFFFFFFFFFFFFFFFFFFFFFFFFFFFFFFFFFFFFF AND PUSH20 0xFFFFFFFFFFFFFFFFFFFFFFFFFFFFFFFFFFFFFFFF AND PUSH4 0x66E305FD DUP4 PUSH1 0x40 MLOAD DUP3 PUSH4 0xFFFFFFFF AND PUSH1 0xE0 SHL DUP2 MSTORE PUSH1 0x4 ADD PUSH2 0x2AB6 SWAP2 SWAP1 PUSH2 0x3333 JUMP JUMPDEST PUSH1 0x20 PUSH1 0x40 MLOAD DUP1 DUP4 SUB DUP2 DUP7 GAS STATICCALL SWAP3 POP POP POP DUP1 ISZERO PUSH2 0x2AF0 JUMPI POP PUSH1 0x40 MLOAD RETURNDATASIZE PUSH1 0x1F NOT PUSH1 0x1F DUP3 ADD AND DUP3 ADD DUP1 PUSH1 0x40 MSTORE POP DUP2 ADD SWAP1 PUSH2 0x2AED SWAP2 SWAP1 PUSH2 0x38FE JUMP JUMPDEST PUSH1 0x1 JUMPDEST ISZERO PUSH2 0x2C74 JUMPI DUP1 PUSH2 0x2B00 JUMPI POP PUSH2 0x2C74 JUMP JUMPDEST POP PUSH1 0x3 PUSH0 SWAP1 SLOAD SWAP1 PUSH2 0x100 EXP SWAP1 DIV PUSH20 0xFFFFFFFFFFFFFFFFFFFFFFFFFFFFFFFFFFFFFFFF AND PUSH20 0xFFFFFFFFFFFFFFFFFFFFFFFFFFFFFFFFFFFFFFFF AND PUSH4 0xC33B7586 PUSH1 0x40 MLOAD DUP2 PUSH4 0xFFFFFFFF AND PUSH1 0xE0 SHL DUP2 MSTORE PUSH1 0x4 ADD PUSH1 0x20 PUSH1 0x40 MLOAD DUP1 DUP4 SUB DUP2 DUP7 GAS STATICCALL SWAP3 POP POP POP DUP1 ISZERO PUSH2 0x2B8A JUMPI POP PUSH1 0x40 MLOAD RETURNDATASIZE PUSH1 0x1F NOT PUSH1 0x1F DUP3 ADD AND DUP3 ADD DUP1 PUSH1 0x40 MSTORE POP DUP2 ADD SWAP1 PUSH2 0x2B87 SWAP2 SWAP1 PUSH2 0x38FE JUMP JUMPDEST PUSH1 0x1 JUMPDEST ISZERO PUSH2 0x2C74 JUMPI DUP1 ISZERO PUSH2 0x2B9B JUMPI POP PUSH2 0x2C74 JUMP JUMPDEST POP PUSH1 0x3 PUSH0 SWAP1 SLOAD SWAP1 PUSH2 0x100 EXP SWAP1 DIV PUSH20 0xFFFFFFFFFFFFFFFFFFFFFFFFFFFFFFFFFFFFFFFF AND PUSH20 0xFFFFFFFFFFFFFFFFFFFFFFFFFFFFFFFFFFFFFFFF AND PUSH4 0xB7A567B PUSH1 0x40 MLOAD DUP2 PUSH4 0xFFFFFFFF AND PUSH1 0xE0 SHL DUP2 MSTORE PUSH1 0x4 ADD PUSH0 PUSH1 0x40 MLOAD DUP1 DUP4 SUB DUP2 PUSH0 DUP8 DUP1 EXTCODESIZE ISZERO DUP1 ISZERO PUSH2 0x2C02 JUMPI PUSH0 DUP1 REVERT JUMPDEST POP GAS CALL SWAP3 POP POP POP DUP1 ISZERO PUSH2 0x2C13 JUMPI POP PUSH1 0x1 JUMPDEST ISZERO PUSH2 0x2C73 JUMPI DUP2 PUSH20 0xFFFFFFFFFFFFFFFFFFFFFFFFFFFFFFFFFFFFFFFF AND CALLER PUSH20 0xFFFFFFFFFFFFFFFFFFFFFFFFFFFFFFFFFFFFFFFF AND PUSH32 0xC991FDC6F1D37402CF43CD51BE704037EF268E0E50A068C178918A86B1919238 PUSH1 0x40 MLOAD PUSH1 0x40 MLOAD DUP1 SWAP2 SUB SWAP1 LOG3 JUMPDEST JUMPDEST POP POP JUMP JUMPDEST PUSH0 DUP1 PUSH0 DUP1 PUSH2 0x2C86 DUP8 DUP8 PUSH2 0x1B25 JUMP JUMPDEST SWAP2 POP SWAP2 POP PUSH2 0x2CA7 DUP6 PUSH0 ADD MLOAD DUP7 PUSH1 0x20 ADD MLOAD DUP8 PUSH1 0x40 ADD MLOAD DUP9 PUSH1 0x60 ADD MLOAD DUP7 DUP7 PUSH2 0x2CB5 JUMP JUMPDEST SWAP4 POP SWAP4 POP POP POP SWAP4 POP SWAP4 SWAP2 POP POP JUMP JUMPDEST PUSH0 DUP1 PUSH0 DUP5 EQ DUP1 ISZERO PUSH2 0x2CC5 JUMPI POP PUSH0 DUP4 EQ JUMPDEST ISZERO PUSH2 0x2CD5 JUMPI DUP8 DUP8 SWAP2 POP SWAP2 POP PUSH2 0x2D9B JUMP JUMPDEST PUSH0 PUSH2 0x2CE1 DUP10 DUP7 DUP7 PUSH2 0x1E9A JUMP JUMPDEST SWAP1 POP DUP8 DUP2 GT PUSH2 0x2D3D JUMPI DUP6 DUP2 LT ISZERO PUSH2 0x2D31 JUMPI DUP1 DUP7 PUSH1 0x40 MLOAD PUSH32 0x5195966700000000000000000000000000000000000000000000000000000000 DUP2 MSTORE PUSH1 0x4 ADD PUSH2 0x2D28 SWAP3 SWAP2 SWAP1 PUSH2 0x3197 JUMP JUMPDEST PUSH1 0x40 MLOAD DUP1 SWAP2 SUB SWAP1 REVERT JUMPDEST DUP9 DUP2 SWAP3 POP SWAP3 POP POP PUSH2 0x2D9B JUMP JUMPDEST PUSH0 PUSH2 0x2D49 DUP10 DUP7 DUP9 PUSH2 0x1E9A JUMP JUMPDEST SWAP1 POP DUP8 DUP2 LT ISZERO PUSH2 0x2D92 JUMPI DUP1 DUP9 PUSH1 0x40 MLOAD PUSH32 0x47C5F09E00000000000000000000000000000000000000000000000000000000 DUP2 MSTORE PUSH1 0x4 ADD PUSH2 0x2D89 SWAP3 SWAP2 SWAP1 PUSH2 0x3197 JUMP JUMPDEST PUSH1 0x40 MLOAD DUP1 SWAP2 SUB SWAP1 REVERT JUMPDEST DUP1 DUP10 SWAP4 POP SWAP4 POP POP POP JUMPDEST SWAP7 POP SWAP7 SWAP5 POP POP POP POP POP JUMP JUMPDEST PUSH0 PUSH20 0xFFFFFFFFFFFFFFFFFFFFFFFFFFFFFFFFFFFFFFFF AND PUSH1 0x4 PUSH0 SWAP1 SLOAD SWAP1 PUSH2 0x100 EXP SWAP1 DIV PUSH20 0xFFFFFFFFFFFFFFFFFFFFFFFFFFFFFFFFFFFFFFFF AND PUSH20 0xFFFFFFFFFFFFFFFFFFFFFFFFFFFFFFFFFFFFFFFF AND SUB PUSH2 0x2E2C JUMPI PUSH1 0x40 MLOAD PUSH32 0xDC08FA200000000000000000000000000000000000000000000000000000000 DUP2 MSTORE PUSH1 0x4 ADD PUSH1 0x40 MLOAD DUP1 SWAP2 SUB SWAP1 REVERT JUMPDEST PUSH1 0x4 PUSH0 SWAP1 SLOAD SWAP1 PUSH2 0x100 EXP SWAP1 DIV PUSH20 0xFFFFFFFFFFFFFFFFFFFFFFFFFFFFFFFFFFFFFFFF AND PUSH20 0xFFFFFFFFFFFFFFFFFFFFFFFFFFFFFFFFFFFFFFFF AND PUSH4 0xD0E30DB0 DUP3 PUSH1 0x40 MLOAD DUP3 PUSH4 0xFFFFFFFF AND PUSH1 0xE0 SHL DUP2 MSTORE PUSH1 0x4 ADD PUSH0 PUSH1 0x40 MLOAD DUP1 DUP4 SUB DUP2 DUP6 DUP9 DUP1 EXTCODESIZE ISZERO DUP1 ISZERO PUSH2 0x2E93 JUMPI PUSH0 DUP1 REVERT JUMPDEST POP GAS CALL ISZERO DUP1 ISZERO PUSH2 0x2EA5 JUMPI RETURNDATASIZE PUSH0 DUP1 RETURNDATACOPY RETURNDATASIZE PUSH0 REVERT JUMPDEST POP POP POP POP POP PUSH1 0x4 PUSH0 SWAP1 SLOAD SWAP1 PUSH2 0x100 EXP SWAP1 DIV PUSH20 0xFFFFFFFFFFFFFFFFFFFFFFFFFFFFFFFFFFFFFFFF AND PUSH20 0xFFFFFFFFFFFFFFFFFFFFFFFFFFFFFFFFFFFFFFFF AND PUSH4 0xA9059CBB DUP4 DUP4 PUSH1 0x40 MLOAD DUP4 PUSH4 0xFFFFFFFF AND PUSH1 0xE0 SHL DUP2 MSTORE PUSH1 0x4 ADD PUSH2 0x2F06 SWAP3 SWAP2 SWAP1 PUSH2 0x3929 JUMP JUMPDEST PUSH1 0x20 PUSH1 0x40 MLOAD DUP1 DUP4 SUB DUP2 PUSH0 DUP8 GAS CALL ISZERO DUP1 ISZERO PUSH2 0x2F22 JUMPI RETURNDATASIZE PUSH0 DUP1 RETURNDATACOPY RETURNDATASIZE PUSH0 REVERT JUMPDEST POP POP POP POP PUSH1 0x40 MLOAD RETURNDATASIZE PUSH1 0x1F NOT PUSH1 0x1F DUP3 ADD AND DUP3 ADD DUP1 PUSH1 0x40 MSTORE POP DUP2 ADD SWAP1 PUSH2 0x2F46 SWAP2 SWAP1 PUSH2 0x38FE JUMP JUMPDEST POP POP POP JUMP JUMPDEST PUSH0 PUSH1 0x2 PUSH2 0x2F5E PUSH2 0x2F59 PUSH2 0x2522 JUMP JUMPDEST PUSH2 0x254B JUMP JUMPDEST PUSH0 ADD SLOAD EQ SWAP1 POP SWAP1 JUMP JUMPDEST PUSH0 DUP1 PUSH4 0xA9059CBB PUSH1 0xE0 SHL SWAP1 POP PUSH1 0x40 MLOAD DUP2 PUSH0 MSTORE PUSH0 NOT PUSH1 0x60 SHR DUP7 AND PUSH1 0x4 MSTORE DUP5 PUSH1 0x24 MSTORE PUSH1 0x20 PUSH0 PUSH1 0x44 PUSH0 DUP1 DUP12 GAS CALL SWAP3 POP PUSH1 0x1 PUSH0 MLOAD EQ DUP4 AND PUSH2 0x2FBB JUMPI DUP4 DUP4 ISZERO AND ISZERO PUSH2 0x2FAF JUMPI RETURNDATASIZE PUSH0 DUP3 RETURNDATACOPY RETURNDATASIZE DUP2 REVERT JUMPDEST PUSH0 DUP8 EXTCODESIZE GT RETURNDATASIZE ISZERO AND DUP4 AND SWAP3 POP JUMPDEST DUP1 PUSH1 0x40 MSTORE POP POP SWAP5 SWAP4 POP POP POP POP JUMP JUMPDEST PUSH0 DUP1 PUSH4 0x23B872DD PUSH1 0xE0 SHL SWAP1 POP PUSH1 0x40 MLOAD DUP2 PUSH0 MSTORE PUSH0 NOT PUSH1 0x60 SHR DUP8 AND PUSH1 0x4 MSTORE PUSH0 NOT PUSH1 0x60 SHR DUP7 AND PUSH1 0x24 MSTORE DUP5 PUSH1 0x44 MSTORE PUSH1 0x20 PUSH0 PUSH1 0x64 PUSH0 DUP1 DUP13 GAS CALL SWAP3 POP PUSH1 0x1 PUSH0 MLOAD EQ DUP4 AND PUSH2 0x3027 JUMPI DUP4 DUP4 ISZERO AND ISZERO PUSH2 0x301B JUMPI RETURNDATASIZE PUSH0 DUP3 RETURNDATACOPY RETURNDATASIZE DUP2 REVERT JUMPDEST PUSH0 DUP9 EXTCODESIZE GT RETURNDATASIZE ISZERO AND DUP4 AND SWAP3 POP JUMPDEST DUP1 PUSH1 0x40 MSTORE PUSH0 PUSH1 0x60 MSTORE POP POP SWAP6 SWAP5 POP POP POP POP POP JUMP JUMPDEST PUSH1 0x40 MLOAD DUP1 PUSH1 0x60 ADD PUSH1 0x40 MSTORE DUP1 PUSH0 PUSH20 0xFFFFFFFFFFFFFFFFFFFFFFFFFFFFFFFFFFFFFFFF AND DUP2 MSTORE PUSH1 0x20 ADD PUSH0 DUP2 MSTORE PUSH1 0x20 ADD PUSH0 DUP2 MSTORE POP SWAP1 JUMP JUMPDEST PUSH0 DUP1 REVERT JUMPDEST PUSH0 PUSH20 0xFFFFFFFFFFFFFFFFFFFFFFFFFFFFFFFFFFFFFFFF DUP3 AND SWAP1 POP SWAP2 SWAP1 POP JUMP JUMPDEST PUSH0 PUSH2 0x309B DUP3 PUSH2 0x3072 JUMP JUMPDEST SWAP1 POP SWAP2 SWAP1 POP JUMP JUMPDEST PUSH2 0x30AB DUP2 PUSH2 0x3091 JUMP JUMPDEST DUP2 EQ PUSH2 0x30B5 JUMPI PUSH0 DUP1 REVERT JUMPDEST POP JUMP JUMPDEST PUSH0 DUP2 CALLDATALOAD SWAP1 POP PUSH2 0x30C6 DUP2 PUSH2 0x30A2 JUMP JUMPDEST SWAP3 SWAP2 POP POP JUMP JUMPDEST PUSH0 DUP2 SWAP1 POP SWAP2 SWAP1 POP JUMP JUMPDEST PUSH2 0x30DE DUP2 PUSH2 0x30CC JUMP JUMPDEST DUP2 EQ PUSH2 0x30E8 JUMPI PUSH0 DUP1 REVERT JUMPDEST POP JUMP JUMPDEST PUSH0 DUP2 CALLDATALOAD SWAP1 POP PUSH2 0x30F9 DUP2 PUSH2 0x30D5 JUMP JUMPDEST SWAP3 SWAP2 POP POP JUMP JUMPDEST PUSH0 DUP1 PUSH0 DUP1 PUSH0 DUP1 PUSH1 0xC0 DUP8 DUP10 SUB SLT ISZERO PUSH2 0x3119 JUMPI PUSH2 0x3118 PUSH2 0x306E JUMP JUMPDEST JUMPDEST PUSH0 PUSH2 0x3126 DUP10 DUP3 DUP11 ADD PUSH2 0x30B8 JUMP JUMPDEST SWAP7 POP POP PUSH1 0x20 PUSH2 0x3137 DUP10 DUP3 DUP11 ADD PUSH2 0x30EB JUMP JUMPDEST SWAP6 POP POP PUSH1 0x40 PUSH2 0x3148 DUP10 DUP3 DUP11 ADD PUSH2 0x30EB JUMP JUMPDEST SWAP5 POP POP PUSH1 0x60 PUSH2 0x3159 DUP10 DUP3 DUP11 ADD PUSH2 0x30EB JUMP JUMPDEST SWAP4 POP POP PUSH1 0x80 PUSH2 0x316A DUP10 DUP3 DUP11 ADD PUSH2 0x30B8 JUMP JUMPDEST SWAP3 POP POP PUSH1 0xA0 PUSH2 0x317B DUP10 DUP3 DUP11 ADD PUSH2 0x30EB JUMP JUMPDEST SWAP2 POP POP SWAP3 SWAP6 POP SWAP3 SWAP6 POP SWAP3 SWAP6 JUMP JUMPDEST PUSH2 0x3191 DUP2 PUSH2 0x30CC JUMP JUMPDEST DUP3 MSTORE POP POP JUMP JUMPDEST PUSH0 PUSH1 0x40 DUP3 ADD SWAP1 POP PUSH2 0x31AA PUSH0 DUP4 ADD DUP6 PUSH2 0x3188 JUMP JUMPDEST PUSH2 0x31B7 PUSH1 0x20 DUP4 ADD DUP5 PUSH2 0x3188 JUMP JUMPDEST SWAP4 SWAP3 POP POP POP JUMP JUMPDEST PUSH0 DUP1 PUSH0 PUSH1 0x60 DUP5 DUP7 SUB SLT ISZERO PUSH2 0x31D5 JUMPI PUSH2 0x31D4 PUSH2 0x306E JUMP JUMPDEST JUMPDEST PUSH0 PUSH2 0x31E2 DUP7 DUP3 DUP8 ADD PUSH2 0x30EB JUMP JUMPDEST SWAP4 POP POP PUSH1 0x20 PUSH2 0x31F3 DUP7 DUP3 DUP8 ADD PUSH2 0x30EB JUMP JUMPDEST SWAP3 POP POP PUSH1 0x40 PUSH2 0x3204 DUP7 DUP3 DUP8 ADD PUSH2 0x30EB JUMP JUMPDEST SWAP2 POP POP SWAP3 POP SWAP3 POP SWAP3 JUMP JUMPDEST PUSH0 PUSH1 0x20 DUP3 ADD SWAP1 POP PUSH2 0x3221 PUSH0 DUP4 ADD DUP5 PUSH2 0x3188 JUMP JUMPDEST SWAP3 SWAP2 POP POP JUMP JUMPDEST PUSH0 PUSH1 0x20 DUP3 DUP5 SUB SLT ISZERO PUSH2 0x323C JUMPI PUSH2 0x323B PUSH2 0x306E JUMP JUMPDEST JUMPDEST PUSH0 PUSH2 0x3249 DUP5 DUP3 DUP6 ADD PUSH2 0x30B8 JUMP JUMPDEST SWAP2 POP POP SWAP3 SWAP2 POP POP JUMP JUMPDEST PUSH0 DUP2 ISZERO ISZERO SWAP1 POP SWAP2 SWAP1 POP JUMP JUMPDEST PUSH2 0x3266 DUP2 PUSH2 0x3252 JUMP JUMPDEST DUP2 EQ PUSH2 0x3270 JUMPI PUSH0 DUP1 REVERT JUMPDEST POP JUMP JUMPDEST PUSH0 DUP2 CALLDATALOAD SWAP1 POP PUSH2 0x3281 DUP2 PUSH2 0x325D JUMP JUMPDEST SWAP3 SWAP2 POP POP JUMP JUMPDEST PUSH0 DUP1 PUSH0 DUP1 PUSH0 DUP1 PUSH0 PUSH1 0xE0 DUP9 DUP11 SUB SLT ISZERO PUSH2 0x32A2 JUMPI PUSH2 0x32A1 PUSH2 0x306E JUMP JUMPDEST JUMPDEST PUSH0 PUSH2 0x32AF DUP11 DUP3 DUP12 ADD PUSH2 0x30EB JUMP JUMPDEST SWAP8 POP POP PUSH1 0x20 PUSH2 0x32C0 DUP11 DUP3 DUP12 ADD PUSH2 0x30EB JUMP JUMPDEST SWAP7 POP POP PUSH1 0x40 PUSH2 0x32D1 DUP11 DUP3 DUP12 ADD PUSH2 0x30B8 JUMP JUMPDEST SWAP6 POP POP PUSH1 0x60 PUSH2 0x32E2 DUP11 DUP3 DUP12 ADD PUSH2 0x30B8 JUMP JUMPDEST SWAP5 POP POP PUSH1 0x80 PUSH2 0x32F3 DUP11 DUP3 DUP12 ADD PUSH2 0x30B8 JUMP JUMPDEST SWAP4 POP POP PUSH1 0xA0 PUSH2 0x3304 DUP11 DUP3 DUP12 ADD PUSH2 0x30EB JUMP JUMPDEST SWAP3 POP POP PUSH1 0xC0 PUSH2 0x3315 DUP11 DUP3 DUP12 ADD PUSH2 0x3273 JUMP JUMPDEST SWAP2 POP POP SWAP3 SWAP6 SWAP9 SWAP2 SWAP5 SWAP8 POP SWAP3 SWAP6 POP JUMP JUMPDEST PUSH2 0x332D DUP2 PUSH2 0x3091 JUMP JUMPDEST DUP3 MSTORE POP POP JUMP JUMPDEST PUSH0 PUSH1 0x20 DUP3 ADD SWAP1 POP PUSH2 0x3346 PUSH0 DUP4 ADD DUP5 PUSH2 0x3324 JUMP JUMPDEST SWAP3 SWAP2 POP POP JUMP JUMPDEST PUSH2 0x3355 DUP2 PUSH2 0x3252 JUMP JUMPDEST DUP3 MSTORE POP POP JUMP JUMPDEST PUSH0 PUSH1 0x20 DUP3 ADD SWAP1 POP PUSH2 0x336E PUSH0 DUP4 ADD DUP5 PUSH2 0x334C JUMP JUMPDEST SWAP3 SWAP2 POP POP JUMP JUMPDEST PUSH0 DUP1 PUSH0 DUP1 PUSH0 DUP1 PUSH0 PUSH1 0xE0 DUP9 DUP11 SUB SLT ISZERO PUSH2 0x338F JUMPI PUSH2 0x338E PUSH2 0x306E JUMP JUMPDEST JUMPDEST PUSH0 PUSH2 0x339C DUP11 DUP3 DUP12 ADD PUSH2 0x30B8 JUMP JUMPDEST SWAP8 POP POP PUSH1 0x20 PUSH2 0x33AD DUP11 DUP3 DUP12 ADD PUSH2 0x30B8 JUMP JUMPDEST SWAP7 POP POP PUSH1 0x40 PUSH2 0x33BE DUP11 DUP3 DUP12 ADD PUSH2 0x30EB JUMP JUMPDEST SWAP6 POP POP PUSH1 0x60 PUSH2 0x33CF DUP11 DUP3 DUP12 ADD PUSH2 0x30EB JUMP JUMPDEST SWAP5 POP POP PUSH1 0x80 PUSH2 0x33E0 DUP11 DUP3 DUP12 ADD PUSH2 0x30EB JUMP JUMPDEST SWAP4 POP POP PUSH1 0xA0 PUSH2 0x33F1 DUP11 DUP3 DUP12 ADD PUSH2 0x30B8 JUMP JUMPDEST SWAP3 POP POP PUSH1 0xC0 PUSH2 0x3402 DUP11 DUP3 DUP12 ADD PUSH2 0x30EB JUMP JUMPDEST SWAP2 POP POP SWAP3 SWAP6 SWAP9 SWAP2 SWAP5 SWAP8 POP SWAP3 SWAP6 POP JUMP JUMPDEST PUSH0 DUP1 PUSH1 0x40 DUP4 DUP6 SUB SLT ISZERO PUSH2 0x3427 JUMPI PUSH2 0x3426 PUSH2 0x306E JUMP JUMPDEST JUMPDEST PUSH0 PUSH2 0x3434 DUP6 DUP3 DUP7 ADD PUSH2 0x30B8 JUMP JUMPDEST SWAP3 POP POP PUSH1 0x20 PUSH2 0x3445 DUP6 DUP3 DUP7 ADD PUSH2 0x30B8 JUMP JUMPDEST SWAP2 POP POP SWAP3 POP SWAP3 SWAP1 POP JUMP JUMPDEST PUSH0 DUP1 PUSH0 DUP1 PUSH0 DUP1 PUSH0 DUP1 PUSH2 0x100 DUP10 DUP12 SUB SLT ISZERO PUSH2 0x346C JUMPI PUSH2 0x346B PUSH2 0x306E JUMP JUMPDEST JUMPDEST PUSH0 PUSH2 0x3479 DUP12 DUP3 DUP13 ADD PUSH2 0x30B8 JUMP JUMPDEST SWAP9 POP POP PUSH1 0x20 PUSH2 0x348A DUP12 DUP3 DUP13 ADD PUSH2 0x30B8 JUMP JUMPDEST SWAP8 POP POP PUSH1 0x40 PUSH2 0x349B DUP12 DUP3 DUP13 ADD PUSH2 0x30EB JUMP JUMPDEST SWAP7 POP POP PUSH1 0x60 PUSH2 0x34AC DUP12 DUP3 DUP13 ADD PUSH2 0x30EB JUMP JUMPDEST SWAP6 POP POP PUSH1 0x80 PUSH2 0x34BD DUP12 DUP3 DUP13 ADD PUSH2 0x30EB JUMP JUMPDEST SWAP5 POP POP PUSH1 0xA0 PUSH2 0x34CE DUP12 DUP3 DUP13 ADD PUSH2 0x30EB JUMP JUMPDEST SWAP4 POP POP PUSH1 0xC0 PUSH2 0x34DF DUP12 DUP3 DUP13 ADD PUSH2 0x30B8 JUMP JUMPDEST SWAP3 POP POP PUSH1 0xE0 PUSH2 0x34F0 DUP12 DUP3 DUP13 ADD PUSH2 0x30EB JUMP JUMPDEST SWAP2 POP POP SWAP3 SWAP6 SWAP9 POP SWAP3 SWAP6 SWAP9 SWAP1 SWAP4 SWAP7 POP JUMP JUMPDEST PUSH0 PUSH1 0x60 DUP3 ADD SWAP1 POP PUSH2 0x3513 PUSH0 DUP4 ADD DUP7 PUSH2 0x3188 JUMP JUMPDEST PUSH2 0x3520 PUSH1 0x20 DUP4 ADD DUP6 PUSH2 0x3188 JUMP JUMPDEST PUSH2 0x352D PUSH1 0x40 DUP4 ADD DUP5 PUSH2 0x3188 JUMP JUMPDEST SWAP5 SWAP4 POP POP POP POP JUMP JUMPDEST PUSH0 PUSH1 0x40 DUP3 ADD SWAP1 POP PUSH2 0x3548 PUSH0 DUP4 ADD DUP6 PUSH2 0x3324 JUMP JUMPDEST PUSH2 0x3555 PUSH1 0x20 DUP4 ADD DUP5 PUSH2 0x3324 JUMP JUMPDEST SWAP4 SWAP3 POP POP POP JUMP JUMPDEST PUSH0 DUP2 MLOAD SWAP1 POP PUSH2 0x356A DUP2 PUSH2 0x30A2 JUMP JUMPDEST SWAP3 SWAP2 POP POP JUMP JUMPDEST PUSH0 PUSH1 0x20 DUP3 DUP5 SUB SLT ISZERO PUSH2 0x3585 JUMPI PUSH2 0x3584 PUSH2 0x306E JUMP JUMPDEST JUMPDEST PUSH0 PUSH2 0x3592 DUP5 DUP3 DUP6 ADD PUSH2 0x355C JUMP JUMPDEST SWAP2 POP POP SWAP3 SWAP2 POP POP JUMP JUMPDEST PUSH32 0x4E487B7100000000000000000000000000000000000000000000000000000000 PUSH0 MSTORE PUSH1 0x11 PUSH1 0x4 MSTORE PUSH1 0x24 PUSH0 REVERT JUMPDEST PUSH0 PUSH2 0x35D2 DUP3 PUSH2 0x30CC JUMP JUMPDEST SWAP2 POP PUSH2 0x35DD DUP4 PUSH2 0x30CC JUMP JUMPDEST SWAP3 POP DUP3 DUP3 MUL PUSH2 0x35EB DUP2 PUSH2 0x30CC JUMP JUMPDEST SWAP2 POP DUP3 DUP3 DIV DUP5 EQ DUP4 ISZERO OR PUSH2 0x3602 JUMPI PUSH2 0x3601 PUSH2 0x359B JUMP JUMPDEST JUMPDEST POP SWAP3 SWAP2 POP POP JUMP JUMPDEST PUSH0 PUSH2 0x3613 DUP3 PUSH2 0x30CC JUMP JUMPDEST SWAP2 POP PUSH2 0x361E DUP4 PUSH2 0x30CC JUMP JUMPDEST SWAP3 POP DUP3 DUP3 ADD SWAP1 POP DUP1 DUP3 GT ISZERO PUSH2 0x3636 JUMPI PUSH2 0x3635 PUSH2 0x359B JUMP JUMPDEST JUMPDEST SWAP3 SWAP2 POP POP JUMP JUMPDEST PUSH32 0x4E487B7100000000000000000000000000000000000000000000000000000000 PUSH0 MSTORE PUSH1 0x12 PUSH1 0x4 MSTORE PUSH1 0x24 PUSH0 REVERT JUMPDEST PUSH0 PUSH2 0x3673 DUP3 PUSH2 0x30CC JUMP JUMPDEST SWAP2 POP PUSH2 0x367E DUP4 PUSH2 0x30CC JUMP JUMPDEST SWAP3 POP DUP3 PUSH2 0x368E JUMPI PUSH2 0x368D PUSH2 0x363C JUMP JUMPDEST JUMPDEST DUP3 DUP3 DIV SWAP1 POP SWAP3 SWAP2 POP POP JUMP JUMPDEST PUSH0 PUSH14 0xFFFFFFFFFFFFFFFFFFFFFFFFFFFF DUP3 AND SWAP1 POP SWAP2 SWAP1 POP JUMP JUMPDEST PUSH2 0x36BB DUP2 PUSH2 0x3699 JUMP JUMPDEST DUP2 EQ PUSH2 0x36C5 JUMPI PUSH0 DUP1 REVERT JUMPDEST POP JUMP JUMPDEST PUSH0 DUP2 MLOAD SWAP1 POP PUSH2 0x36D6 DUP2 PUSH2 0x36B2 JUMP JUMPDEST SWAP3 SWAP2 POP POP JUMP JUMPDEST PUSH0 PUSH4 0xFFFFFFFF DUP3 AND SWAP1 POP SWAP2 SWAP1 POP JUMP JUMPDEST PUSH2 0x36F4 DUP2 PUSH2 0x36DC JUMP JUMPDEST DUP2 EQ PUSH2 0x36FE JUMPI PUSH0 DUP1 REVERT JUMPDEST POP JUMP JUMPDEST PUSH0 DUP2 MLOAD SWAP1 POP PUSH2 0x370F DUP2 PUSH2 0x36EB JUMP JUMPDEST SWAP3 SWAP2 POP POP JUMP JUMPDEST PUSH0 DUP1 PUSH0 PUSH1 0x60 DUP5 DUP7 SUB SLT ISZERO PUSH2 0x372C JUMPI PUSH2 0x372B PUSH2 0x306E JUMP JUMPDEST JUMPDEST PUSH0 PUSH2 0x3739 DUP7 DUP3 DUP8 ADD PUSH2 0x36C8 JUMP JUMPDEST SWAP4 POP POP PUSH1 0x20 PUSH2 0x374A DUP7 DUP3 DUP8 ADD PUSH2 0x36C8 JUMP JUMPDEST SWAP3 POP POP PUSH1 0x40 PUSH2 0x375B DUP7 DUP3 DUP8 ADD PUSH2 0x3701 JUMP JUMPDEST SWAP2 POP POP SWAP3 POP SWAP3 POP SWAP3 JUMP JUMPDEST PUSH0 PUSH1 0xC0 DUP3 ADD SWAP1 POP PUSH2 0x3778 PUSH0 DUP4 ADD DUP10 PUSH2 0x3324 JUMP JUMPDEST PUSH2 0x3785 PUSH1 0x20 DUP4 ADD DUP9 PUSH2 0x3324 JUMP JUMPDEST PUSH2 0x3792 PUSH1 0x40 DUP4 ADD DUP8 PUSH2 0x3324 JUMP JUMPDEST PUSH2 0x379F PUSH1 0x60 DUP4 ADD DUP7 PUSH2 0x3188 JUMP JUMPDEST PUSH2 0x37AC PUSH1 0x80 DUP4 ADD DUP6 PUSH2 0x3188 JUMP JUMPDEST PUSH2 0x37B9 PUSH1 0xA0 DUP4 ADD DUP5 PUSH2 0x3324 JUMP JUMPDEST SWAP8 SWAP7 POP POP POP POP POP POP POP JUMP JUMPDEST PUSH0 PUSH2 0x37CE DUP3 PUSH2 0x30CC JUMP JUMPDEST SWAP2 POP PUSH2 0x37D9 DUP4 PUSH2 0x30CC JUMP JUMPDEST SWAP3 POP DUP3 DUP3 SUB SWAP1 POP DUP2 DUP2 GT ISZERO PUSH2 0x37F1 JUMPI PUSH2 0x37F0 PUSH2 0x359B JUMP JUMPDEST JUMPDEST SWAP3 SWAP2 POP POP JUMP JUMPDEST PUSH0 DUP2 MLOAD SWAP1 POP PUSH2 0x3805 DUP2 PUSH2 0x30D5 JUMP JUMPDEST SWAP3 SWAP2 POP POP JUMP JUMPDEST PUSH0 DUP1 PUSH1 0x40 DUP4 DUP6 SUB SLT ISZERO PUSH2 0x3821 JUMPI PUSH2 0x3820 PUSH2 0x306E JUMP JUMPDEST JUMPDEST PUSH0 PUSH2 0x382E DUP6 DUP3 DUP7 ADD PUSH2 0x37F7 JUMP JUMPDEST SWAP3 POP POP PUSH1 0x20 PUSH2 0x383F DUP6 DUP3 DUP7 ADD PUSH2 0x37F7 JUMP JUMPDEST SWAP2 POP POP SWAP3 POP SWAP3 SWAP1 POP JUMP JUMPDEST PUSH0 PUSH1 0x20 DUP3 DUP5 SUB SLT ISZERO PUSH2 0x385E JUMPI PUSH2 0x385D PUSH2 0x306E JUMP JUMPDEST JUMPDEST PUSH0 PUSH2 0x386B DUP5 DUP3 DUP6 ADD PUSH2 0x37F7 JUMP JUMPDEST SWAP2 POP POP SWAP3 SWAP2 POP POP JUMP JUMPDEST PUSH0 DUP2 SWAP1 POP SWAP3 SWAP2 POP POP JUMP JUMPDEST POP JUMP JUMPDEST PUSH0 PUSH2 0x388C PUSH0 DUP4 PUSH2 0x3874 JUMP JUMPDEST SWAP2 POP PUSH2 0x3897 DUP3 PUSH2 0x387E JUMP JUMPDEST PUSH0 DUP3 ADD SWAP1 POP SWAP2 SWAP1 POP JUMP JUMPDEST PUSH0 PUSH2 0x38AB DUP3 PUSH2 0x3881 JUMP JUMPDEST SWAP2 POP DUP2 SWAP1 POP SWAP2 SWAP1 POP JUMP JUMPDEST PUSH0 PUSH1 0x60 DUP3 ADD SWAP1 POP PUSH2 0x38C8 PUSH0 DUP4 ADD DUP7 PUSH2 0x3188 JUMP JUMPDEST PUSH2 0x38D5 PUSH1 0x20 DUP4 ADD DUP6 PUSH2 0x3188 JUMP JUMPDEST PUSH2 0x38E2 PUSH1 0x40 DUP4 ADD DUP5 PUSH2 0x3324 JUMP JUMPDEST SWAP5 SWAP4 POP POP POP POP JUMP JUMPDEST PUSH0 DUP2 MLOAD SWAP1 POP PUSH2 0x38F8 DUP2 PUSH2 0x325D JUMP JUMPDEST SWAP3 SWAP2 POP POP JUMP JUMPDEST PUSH0 PUSH1 0x20 DUP3 DUP5 SUB SLT ISZERO PUSH2 0x3913 JUMPI PUSH2 0x3912 PUSH2 0x306E JUMP JUMPDEST JUMPDEST PUSH0 PUSH2 0x3920 DUP5 DUP3 DUP6 ADD PUSH2 0x38EA JUMP JUMPDEST SWAP2 POP POP SWAP3 SWAP2 POP POP JUMP JUMPDEST PUSH0 PUSH1 0x40 DUP3 ADD SWAP1 POP PUSH2 0x393C PUSH0 DUP4 ADD DUP6 PUSH2 0x3324 JUMP JUMPDEST PUSH2 0x3949 PUSH1 0x20 DUP4 ADD DUP5 PUSH2 0x3188 JUMP JUMPDEST SWAP4 SWAP3 POP POP POP JUMP INVALID LOG2 PUSH5 0x6970667358 0x22 SLT KECCAK256 JUMPI 0xFC PUSH18 0xF97556903ABFF185CA864495BCD67B98DA3D MULMOD 0xC0 PUSH9 0x82AE88E0ADA67EB164 PUSH20 0x6F6C634300081800330000000000000000000000 "
				},
				"gasEstimates": {
					"creation": {
						"codeDepositCost": "2945200",
						"executionCost": "infinite",
						"totalCost": "infinite"
					},
					"external": {
						"BPS_DENOMINATOR()": "370",
						"PROTOCOL_FEE_BPS()": "392",
						"addLiquidity(address,address,uint256,uint256,uint256,uint256,address,uint256)": "infinite",
						"addLiquidityETH(address,uint256,uint256,uint256,address,uint256)": "infinite",
						"eligibleRegistry()": "2554",
						"factory()": "infinite",
						"getAmountIn(uint256,uint256,uint256)": "infinite",
						"getAmountOut(uint256,uint256,uint256)": "infinite",
						"getReserves(address,address)": "infinite",
						"owner()": "2626",
						"pause()": "infinite",
						"paused()": "2585",
						"quote(uint256,uint256,uint256)": "infinite",
						"removeLiquidity(address,address,uint256,uint256,uint256,address,uint256)": "infinite",
						"removeLiquidityETH(address,uint256,uint256,uint256,address,uint256)": "infinite",
						"renounceOwnership()": "infinite",
						"setEligibleRegistry(address)": "infinite",
						"setTimbPrize(address)": "infinite",
						"setTreasury(address)": "infinite",
						"setWeth(address)": "infinite",
						"swapExactTokensForTokens(uint256,uint256,address,address,address,uint256,bool)": "infinite",
						"swapTokensForExactTokens(uint256,uint256,address,address,address,uint256,bool)": "infinite",
						"timbPrize()": "2554",
						"transferOwnership(address)": "infinite",
						"treasury()": "2598",
						"unpause()": "infinite",
						"weth()": "2642"
					},
					"internal": {
						"_burnAndSort(address,address,uint256,address)": "infinite",
						"_collectProtocolFee(address,uint256)": "infinite",
						"_doRemoveLiquidityETH(address,uint256,uint256,uint256,address)": "infinite",
						"_executeSwap(address,address,uint256,uint256,address,bool)": "infinite",
						"_finalizeAddLiquidity(address,address,struct TimbSwapRouter.LiquidityState memory,address)": "infinite",
						"_finalizeAddLiquidityETH(address,struct TimbSwapRouter.LiquidityState memory,address)": "infinite",
						"_getAmountIn(uint256,uint256,uint256)": "infinite",
						"_getAmountOut(uint256,uint256,uint256)": "infinite",
						"_getPair(address,address)": "infinite",
						"_getReserves(address,address)": "infinite",
						"_maybeNudge(address,bool)": "infinite",
						"_optimalAmounts(uint256,uint256,uint256,uint256,uint256,uint256)": "infinite",
						"_optimalLiquidityAmounts(address,address,struct TimbSwapRouter.LiquidityParams memory)": "infinite",
						"_prepareAddLiquidity(address,address,struct TimbSwapRouter.LiquidityParams memory)": "infinite",
						"_prepareAddLiquidityETH(address,uint256,uint256,uint256,uint256)": "infinite",
						"_quote(uint256,uint256,uint256)": "infinite",
						"_refundExcessETH(uint256)": "infinite",
						"_swapOnPair(address,address,uint256,address)": "infinite",
						"_unwrapAndSendETH(address,uint256)": "infinite",
						"_wrapAndSend(address,uint256)": "infinite"
					}
				},
				"methodIdentifiers": {
					"BPS_DENOMINATOR()": "e1a45218",
					"PROTOCOL_FEE_BPS()": "be378228",
					"addLiquidity(address,address,uint256,uint256,uint256,uint256,address,uint256)": "e8e33700",
					"addLiquidityETH(address,uint256,uint256,uint256,address,uint256)": "f305d719",
					"eligibleRegistry()": "92eaa9d9",
					"factory()": "c45a0155",
					"getAmountIn(uint256,uint256,uint256)": "85f8c259",
					"getAmountOut(uint256,uint256,uint256)": "054d50d4",
					"getReserves(address,address)": "d52bb6f4",
					"owner()": "8da5cb5b",
					"pause()": "8456cb59",
					"paused()": "5c975abb",
					"quote(uint256,uint256,uint256)": "ad615dec",
					"removeLiquidity(address,address,uint256,uint256,uint256,address,uint256)": "baa2abde",
					"removeLiquidityETH(address,uint256,uint256,uint256,address,uint256)": "02751cec",
					"renounceOwnership()": "715018a6",
					"setEligibleRegistry(address)": "f13afb90",
					"setTimbPrize(address)": "27b23849",
					"setTreasury(address)": "f0f44260",
					"setWeth(address)": "b8d1452f",
					"swapExactTokensForTokens(uint256,uint256,address,address,address,uint256,bool)": "3824659c",
					"swapTokensForExactTokens(uint256,uint256,address,address,address,uint256,bool)": "e98f6797",
					"timbPrize()": "5364276d",
					"transferOwnership(address)": "f2fde38b",
					"treasury()": "61d027b3",
					"unpause()": "3f4ba83a",
					"weth()": "3fc8cef3"
				}
			},
			"storageLayout": {
				"storage": [
					{
						"astId": 8,
						"contract": "contracts/TimbSwapRouter.sol:TimbSwapRouter",
						"label": "_owner",
						"offset": 0,
						"slot": "0",
						"type": "t_address"
					},
					{
						"astId": 1165,
						"contract": "contracts/TimbSwapRouter.sol:TimbSwapRouter",
						"label": "treasury",
						"offset": 0,
						"slot": "1",
						"type": "t_address"
					},
					{
						"astId": 1167,
						"contract": "contracts/TimbSwapRouter.sol:TimbSwapRouter",
						"label": "eligibleRegistry",
						"offset": 0,
						"slot": "2",
						"type": "t_address"
					},
					{
						"astId": 1169,
						"contract": "contracts/TimbSwapRouter.sol:TimbSwapRouter",
						"label": "timbPrize",
						"offset": 0,
						"slot": "3",
						"type": "t_address"
					},
					{
						"astId": 1171,
						"contract": "contracts/TimbSwapRouter.sol:TimbSwapRouter",
						"label": "paused",
						"offset": 20,
						"slot": "3",
						"type": "t_bool"
					},
					{
						"astId": 1173,
						"contract": "contracts/TimbSwapRouter.sol:TimbSwapRouter",
						"label": "weth",
						"offset": 0,
						"slot": "4",
						"type": "t_address"
					}
				],
				"types": {
					"t_address": {
						"encoding": "inplace",
						"label": "address",
						"numberOfBytes": "20"
					},
					"t_bool": {
						"encoding": "inplace",
						"label": "bool",
						"numberOfBytes": "1"
					}
				}
			},
			"userdoc": {
				"kind": "user",
				"methods": {
					"addLiquidity(address,address,uint256,uint256,uint256,uint256,address,uint256)": {
						"notice": "Add liquidity to a token/token pair."
					},
					"addLiquidityETH(address,uint256,uint256,uint256,address,uint256)": {
						"notice": "Add liquidity to a WETH/token pair using native ETH."
					},
					"removeLiquidity(address,address,uint256,uint256,uint256,address,uint256)": {
						"notice": "Remove liquidity from a token/token pair."
					},
					"removeLiquidityETH(address,uint256,uint256,uint256,address,uint256)": {
						"notice": "Remove liquidity from a WETH/token pair, receiving native ETH."
					},
					"swapExactTokensForTokens(uint256,uint256,address,address,address,uint256,bool)": {
						"notice": "Swap an exact amount of tokenIn for as much tokenOut as possible."
					},
					"swapTokensForExactTokens(uint256,uint256,address,address,address,uint256,bool)": {
						"notice": "Swap as little tokenIn as possible for an exact tokenOut amount."
					}
				},
				"notice": "Routes swaps and liquidity through TimbSwap AMM pairs.",
				"version": 1
			}
		}
	}
}