{
	"/contracts/TimbPrize.sol": {
		"TimbPrize": {
			"abi": [
				{
					"inputs": [
						{
							"internalType": "address",
							"name": "_prizeEscrow",
							"type": "address"
						},
						{
							"internalType": "address",
							"name": "_gameRegistry",
							"type": "address"
						},
						{
							"internalType": "address",
							"name": "_router",
							"type": "address"
						}
					],
					"stateMutability": "nonpayable",
					"type": "constructor"
				},
				{
					"inputs": [
						{
							"internalType": "address",
							"name": "winner",
							"type": "address"
						},
						{
							"internalType": "uint256",
							"name": "round",
							"type": "uint256"
						}
					],
					"name": "AlreadyClaimed",
					"type": "error"
				},
				{
					"inputs": [
						{
							"internalType": "uint256",
							"name": "round",
							"type": "uint256"
						}
					],
					"name": "ClaimWindowExpired",
					"type": "error"
				},
				{
					"inputs": [],
					"name": "EntriesPaused",
					"type": "error"
				},
				{
					"inputs": [],
					"name": "GameAlreadyStarted",
					"type": "error"
				},
				{
					"inputs": [],
					"name": "GameNotStarted",
					"type": "error"
				},
				{
					"inputs": [],
					"name": "InSettlementWindow",
					"type": "error"
				},
				{
					"inputs": [],
					"name": "InsufficientPotBalance",
					"type": "error"
				},
				{
					"inputs": [],
					"name": "InvalidWinnersCount",
					"type": "error"
				},
				{
					"inputs": [
						{
							"internalType": "address",
							"name": "caller",
							"type": "address"
						},
						{
							"internalType": "uint256",
							"name": "round",
							"type": "uint256"
						}
					],
					"name": "NotAWinner",
					"type": "error"
				},
				{
					"inputs": [],
					"name": "NotInSettlementWindow",
					"type": "error"
				},
				{
					"inputs": [],
					"name": "NotRouter",
					"type": "error"
				},
				{
					"inputs": [],
					"name": "NotSettler",
					"type": "error"
				},
				{
					"inputs": [
						{
							"internalType": "address",
							"name": "owner",
							"type": "address"
						}
					],
					"name": "OwnableInvalidOwner",
					"type": "error"
				},
				{
					"inputs": [
						{
							"internalType": "address",
							"name": "account",
							"type": "address"
						}
					],
					"name": "OwnableUnauthorizedAccount",
					"type": "error"
				},
				{
					"inputs": [],
					"name": "ReentrancyGuardReentrantCall",
					"type": "error"
				},
				{
					"inputs": [
						{
							"internalType": "uint256",
							"name": "round",
							"type": "uint256"
						}
					],
					"name": "RoundNotSettled",
					"type": "error"
				},
				{
					"inputs": [
						{
							"internalType": "uint256",
							"name": "elapsed",
							"type": "uint256"
						},
						{
							"internalType": "uint256",
							"name": "required",
							"type": "uint256"
						}
					],
					"name": "SegmentNotComplete",
					"type": "error"
				},
				{
					"inputs": [],
					"name": "SettlementPaused",
					"type": "error"
				},
				{
					"inputs": [],
					"name": "SettlingDigit",
					"type": "error"
				},
				{
					"inputs": [],
					"name": "ZeroAddress",
					"type": "error"
				},
				{
					"inputs": [],
					"name": "ZeroAmount",
					"type": "error"
				},
				{
					"anonymous": false,
					"inputs": [
						{
							"indexed": false,
							"internalType": "uint256",
							"name": "timestamp",
							"type": "uint256"
						}
					],
					"name": "GameStarted",
					"type": "event"
				},
				{
					"anonymous": false,
					"inputs": [
						{
							"indexed": true,
							"internalType": "address",
							"name": "previousOwner",
							"type": "address"
						},
						{
							"indexed": true,
							"internalType": "address",
							"name": "newOwner",
							"type": "address"
						}
					],
					"name": "OwnershipTransferred",
					"type": "event"
				},
				{
					"anonymous": false,
					"inputs": [
						{
							"indexed": true,
							"internalType": "uint256",
							"name": "round",
							"type": "uint256"
						},
						{
							"indexed": false,
							"internalType": "uint256",
							"name": "position",
							"type": "uint256"
						},
						{
							"indexed": false,
							"internalType": "bytes6",
							"name": "winningString",
							"type": "bytes6"
						}
					],
					"name": "PositionFrozen",
					"type": "event"
				},
				{
					"anonymous": false,
					"inputs": [
						{
							"indexed": false,
							"internalType": "uint256",
							"name": "amount",
							"type": "uint256"
						},
						{
							"indexed": true,
							"internalType": "address",
							"name": "from",
							"type": "address"
						}
					],
					"name": "PotFunded",
					"type": "event"
				},
				{
					"anonymous": false,
					"inputs": [
						{
							"indexed": false,
							"internalType": "uint256",
							"name": "bps",
							"type": "uint256"
						}
					],
					"name": "ProtocolCutSet",
					"type": "event"
				},
				{
					"anonymous": false,
					"inputs": [
						{
							"indexed": false,
							"internalType": "uint256",
							"name": "amount",
							"type": "uint256"
						}
					],
					"name": "ProtocolCutTaken",
					"type": "event"
				},
				{
					"anonymous": false,
					"inputs": [
						{
							"indexed": true,
							"internalType": "uint256",
							"name": "round",
							"type": "uint256"
						},
						{
							"indexed": false,
							"internalType": "bytes6",
							"name": "winningString",
							"type": "bytes6"
						},
						{
							"indexed": false,
							"internalType": "uint256",
							"name": "potAmount",
							"type": "uint256"
						},
						{
							"indexed": false,
							"internalType": "uint256",
							"name": "numWinners",
							"type": "uint256"
						},
						{
							"indexed": false,
							"internalType": "uint256",
							"name": "remainderR",
							"type": "uint256"
						},
						{
							"indexed": false,
							"internalType": "uint256",
							"name": "totalEntries",
							"type": "uint256"
						},
						{
							"indexed": false,
							"internalType": "uint256",
							"name": "timestamp",
							"type": "uint256"
						}
					],
					"name": "RoundSettled",
					"type": "event"
				},
				{
					"anonymous": false,
					"inputs": [
						{
							"indexed": true,
							"internalType": "uint256",
							"name": "round",
							"type": "uint256"
						},
						{
							"indexed": false,
							"internalType": "uint256",
							"name": "timestamp",
							"type": "uint256"
						}
					],
					"name": "RoundStarted",
					"type": "event"
				},
				{
					"anonymous": false,
					"inputs": [
						{
							"indexed": false,
							"internalType": "uint256",
							"name": "newPosition",
							"type": "uint256"
						},
						{
							"indexed": true,
							"internalType": "uint256",
							"name": "round",
							"type": "uint256"
						},
						{
							"indexed": false,
							"internalType": "uint256",
							"name": "segment",
							"type": "uint256"
						}
					],
					"name": "ScrollNudged",
					"type": "event"
				},
				{
					"anonymous": false,
					"inputs": [
						{
							"indexed": true,
							"internalType": "uint256",
							"name": "round",
							"type": "uint256"
						},
						{
							"indexed": false,
							"internalType": "uint256",
							"name": "segment",
							"type": "uint256"
						},
						{
							"indexed": false,
							"internalType": "uint256",
							"name": "timestamp",
							"type": "uint256"
						}
					],
					"name": "SegmentAdvanced",
					"type": "event"
				},
				{
					"anonymous": false,
					"inputs": [
						{
							"indexed": true,
							"internalType": "address",
							"name": "newSettler",
							"type": "address"
						}
					],
					"name": "SettlerUpdated",
					"type": "event"
				},
				{
					"anonymous": false,
					"inputs": [
						{
							"indexed": false,
							"internalType": "uint256",
							"name": "count",
							"type": "uint256"
						}
					],
					"name": "WinnersPerRoundSet",
					"type": "event"
				},
				{
					"anonymous": false,
					"inputs": [
						{
							"indexed": true,
							"internalType": "address",
							"name": "winner",
							"type": "address"
						},
						{
							"indexed": true,
							"internalType": "uint256",
							"name": "round",
							"type": "uint256"
						},
						{
							"indexed": false,
							"internalType": "uint256",
							"name": "amount",
							"type": "uint256"
						}
					],
					"name": "WinningsClaimed",
					"type": "event"
				},
				{
					"inputs": [],
					"name": "CLAIM_WINDOW_ROUNDS",
					"outputs": [
						{
							"internalType": "uint256",
							"name": "",
							"type": "uint256"
						}
					],
					"stateMutability": "view",
					"type": "function"
				},
				{
					"inputs": [],
					"name": "INTERACTION_WINDOW",
					"outputs": [
						{
							"internalType": "uint256",
							"name": "",
							"type": "uint256"
						}
					],
					"stateMutability": "view",
					"type": "function"
				},
				{
					"inputs": [],
					"name": "ROUND_DURATION",
					"outputs": [
						{
							"internalType": "uint256",
							"name": "",
							"type": "uint256"
						}
					],
					"stateMutability": "view",
					"type": "function"
				},
				{
					"inputs": [],
					"name": "SEGMENTS_PER_ROUND",
					"outputs": [
						{
							"internalType": "uint256",
							"name": "",
							"type": "uint256"
						}
					],
					"stateMutability": "view",
					"type": "function"
				},
				{
					"inputs": [],
					"name": "SEGMENT_DURATION",
					"outputs": [
						{
							"internalType": "uint256",
							"name": "",
							"type": "uint256"
						}
					],
					"stateMutability": "view",
					"type": "function"
				},
				{
					"inputs": [],
					"name": "SETTLEMENT_WINDOW",
					"outputs": [
						{
							"internalType": "uint256",
							"name": "",
							"type": "uint256"
						}
					],
					"stateMutability": "view",
					"type": "function"
				},
				{
					"inputs": [],
					"name": "addToPot",
					"outputs": [],
					"stateMutability": "payable",
					"type": "function"
				},
				{
					"inputs": [
						{
							"internalType": "uint256",
							"name": "round",
							"type": "uint256"
						}
					],
					"name": "claimWinnings",
					"outputs": [],
					"stateMutability": "nonpayable",
					"type": "function"
				},
				{
					"inputs": [],
					"name": "currentAccumulatedRewards",
					"outputs": [
						{
							"internalType": "uint256",
							"name": "",
							"type": "uint256"
						}
					],
					"stateMutability": "view",
					"type": "function"
				},
				{
					"inputs": [],
					"name": "currentRound",
					"outputs": [
						{
							"internalType": "uint256",
							"name": "",
							"type": "uint256"
						}
					],
					"stateMutability": "view",
					"type": "function"
				},
				{
					"inputs": [],
					"name": "currentSegment",
					"outputs": [
						{
							"internalType": "uint256",
							"name": "",
							"type": "uint256"
						}
					],
					"stateMutability": "view",
					"type": "function"
				},
				{
					"inputs": [],
					"name": "eligibleRegistry",
					"outputs": [
						{
							"internalType": "address",
							"name": "",
							"type": "address"
						}
					],
					"stateMutability": "view",
					"type": "function"
				},
				{
					"inputs": [],
					"name": "entriesPaused",
					"outputs": [
						{
							"internalType": "bool",
							"name": "",
							"type": "bool"
						}
					],
					"stateMutability": "view",
					"type": "function"
				},
				{
					"inputs": [],
					"name": "fundPot",
					"outputs": [],
					"stateMutability": "payable",
					"type": "function"
				},
				{
					"inputs": [],
					"name": "gameRegistry",
					"outputs": [
						{
							"internalType": "address",
							"name": "",
							"type": "address"
						}
					],
					"stateMutability": "view",
					"type": "function"
				},
				{
					"inputs": [],
					"name": "gameStarted",
					"outputs": [
						{
							"internalType": "bool",
							"name": "",
							"type": "bool"
						}
					],
					"stateMutability": "view",
					"type": "function"
				},
				{
					"inputs": [],
					"name": "gameUnclaimed_winningsPool",
					"outputs": [
						{
							"internalType": "uint256",
							"name": "",
							"type": "uint256"
						}
					],
					"stateMutability": "view",
					"type": "function"
				},
				{
					"inputs": [],
					"name": "getCurrentWindow",
					"outputs": [
						{
							"internalType": "bytes6",
							"name": "window",
							"type": "bytes6"
						}
					],
					"stateMutability": "view",
					"type": "function"
				},
				{
					"inputs": [
						{
							"internalType": "uint256",
							"name": "round",
							"type": "uint256"
						}
					],
					"name": "getRoundResult",
					"outputs": [
						{
							"internalType": "bytes6",
							"name": "winningString",
							"type": "bytes6"
						},
						{
							"internalType": "uint256",
							"name": "potAmount",
							"type": "uint256"
						},
						{
							"internalType": "address[]",
							"name": "winners",
							"type": "address[]"
						},
						{
							"internalType": "uint256",
							"name": "perWinner",
							"type": "uint256"
						},
						{
							"internalType": "uint256",
							"name": "remainder",
							"type": "uint256"
						}
					],
					"stateMutability": "view",
					"type": "function"
				},
				{
					"inputs": [],
					"name": "getRoundState",
					"outputs": [
						{
							"internalType": "uint256",
							"name": "round",
							"type": "uint256"
						},
						{
							"internalType": "uint256",
							"name": "segment",
							"type": "uint256"
						},
						{
							"internalType": "uint256",
							"name": "segmentStart",
							"type": "uint256"
						},
						{
							"internalType": "uint256",
							"name": "counter",
							"type": "uint256"
						},
						{
							"internalType": "bytes6",
							"name": "currentWindow",
							"type": "bytes6"
						},
						{
							"internalType": "uint256",
							"name": "pot",
							"type": "uint256"
						},
						{
							"internalType": "uint256",
							"name": "unclaimedPool",
							"type": "uint256"
						},
						{
							"internalType": "bool",
							"name": "inSettlement",
							"type": "bool"
						},
						{
							"internalType": "uint256[6]",
							"name": "digitCounters",
							"type": "uint256[6]"
						},
						{
							"internalType": "bool[6]",
							"name": "digitLocked",
							"type": "bool[6]"
						}
					],
					"stateMutability": "view",
					"type": "function"
				},
				{
					"inputs": [
						{
							"internalType": "uint256",
							"name": "segment",
							"type": "uint256"
						}
					],
					"name": "getSegmentDigit",
					"outputs": [
						{
							"internalType": "bytes1",
							"name": "",
							"type": "bytes1"
						}
					],
					"stateMutability": "view",
					"type": "function"
				},
				{
					"inputs": [
						{
							"internalType": "uint256",
							"name": "",
							"type": "uint256"
						},
						{
							"internalType": "address",
							"name": "",
							"type": "address"
						}
					],
					"name": "hasClaimed",
					"outputs": [
						{
							"internalType": "bool",
							"name": "",
							"type": "bool"
						}
					],
					"stateMutability": "view",
					"type": "function"
				},
				{
					"inputs": [],
					"name": "isSettlementWindow",
					"outputs": [
						{
							"internalType": "bool",
							"name": "",
							"type": "bool"
						}
					],
					"stateMutability": "view",
					"type": "function"
				},
				{
					"inputs": [],
					"name": "nudgeScroll",
					"outputs": [],
					"stateMutability": "nonpayable",
					"type": "function"
				},
				{
					"inputs": [],
					"name": "owner",
					"outputs": [
						{
							"internalType": "address",
							"name": "",
							"type": "address"
						}
					],
					"stateMutability": "view",
					"type": "function"
				},
				{
					"inputs": [],
					"name": "pauseEntries",
					"outputs": [],
					"stateMutability": "nonpayable",
					"type": "function"
				},
				{
					"inputs": [],
					"name": "pauseSettlement",
					"outputs": [],
					"stateMutability": "nonpayable",
					"type": "function"
				},
				{
					"inputs": [],
					"name": "positionCounter",
					"outputs": [
						{
							"internalType": "uint256",
							"name": "",
							"type": "uint256"
						}
					],
					"stateMutability": "view",
					"type": "function"
				},
				{
					"inputs": [],
					"name": "prizeEscrow",
					"outputs": [
						{
							"internalType": "address",
							"name": "",
							"type": "address"
						}
					],
					"stateMutability": "view",
					"type": "function"
				},
				{
					"inputs": [],
					"name": "protocolCutBps",
					"outputs": [
						{
							"internalType": "uint256",
							"name": "",
							"type": "uint256"
						}
					],
					"stateMutability": "view",
					"type": "function"
				},
				{
					"inputs": [],
					"name": "renounceOwnership",
					"outputs": [],
					"stateMutability": "nonpayable",
					"type": "function"
				},
				{
					"inputs": [
						{
							"internalType": "uint256",
							"name": "",
							"type": "uint256"
						}
					],
					"name": "roundPerWinnerAmount",
					"outputs": [
						{
							"internalType": "uint256",
							"name": "",
							"type": "uint256"
						}
					],
					"stateMutability": "view",
					"type": "function"
				},
				{
					"inputs": [
						{
							"internalType": "uint256",
							"name": "",
							"type": "uint256"
						}
					],
					"name": "roundPotAmount",
					"outputs": [
						{
							"internalType": "uint256",
							"name": "",
							"type": "uint256"
						}
					],
					"stateMutability": "view",
					"type": "function"
				},
				{
					"inputs": [
						{
							"internalType": "uint256",
							"name": "",
							"type": "uint256"
						}
					],
					"name": "roundRemainder",
					"outputs": [
						{
							"internalType": "uint256",
							"name": "",
							"type": "uint256"
						}
					],
					"stateMutability": "view",
					"type": "function"
				},
				{
					"inputs": [
						{
							"internalType": "uint256",
							"name": "",
							"type": "uint256"
						},
						{
							"internalType": "uint256",
							"name": "",
							"type": "uint256"
						}
					],
					"name": "roundWinners",
					"outputs": [
						{
							"internalType": "address",
							"name": "",
							"type": "address"
						}
					],
					"stateMutability": "view",
					"type": "function"
				},
				{
					"inputs": [
						{
							"internalType": "uint256",
							"name": "",
							"type": "uint256"
						}
					],
					"name": "roundWinningString",
					"outputs": [
						{
							"internalType": "bytes6",
							"name": "",
							"type": "bytes6"
						}
					],
					"stateMutability": "view",
					"type": "function"
				},
				{
					"inputs": [],
					"name": "router",
					"outputs": [
						{
							"internalType": "address",
							"name": "",
							"type": "address"
						}
					],
					"stateMutability": "view",
					"type": "function"
				},
				{
					"inputs": [
						{
							"internalType": "uint256",
							"name": "",
							"type": "uint256"
						}
					],
					"name": "segmentDigitCounter",
					"outputs": [
						{
							"internalType": "uint256",
							"name": "",
							"type": "uint256"
						}
					],
					"stateMutability": "view",
					"type": "function"
				},
				{
					"inputs": [
						{
							"internalType": "uint256",
							"name": "",
							"type": "uint256"
						}
					],
					"name": "segmentDigitLocked",
					"outputs": [
						{
							"internalType": "bool",
							"name": "",
							"type": "bool"
						}
					],
					"stateMutability": "view",
					"type": "function"
				},
				{
					"inputs": [],
					"name": "segmentStartTime",
					"outputs": [
						{
							"internalType": "uint256",
							"name": "",
							"type": "uint256"
						}
					],
					"stateMutability": "view",
					"type": "function"
				},
				{
					"inputs": [
						{
							"internalType": "address",
							"name": "_registry",
							"type": "address"
						}
					],
					"name": "setEligibleRegistry",
					"outputs": [],
					"stateMutability": "nonpayable",
					"type": "function"
				},
				{
					"inputs": [
						{
							"internalType": "address",
							"name": "_registry",
							"type": "address"
						}
					],
					"name": "setGameRegistry",
					"outputs": [],
					"stateMutability": "nonpayable",
					"type": "function"
				},
				{
					"inputs": [
						{
							"internalType": "address",
							"name": "_escrow",
							"type": "address"
						}
					],
					"name": "setPrizeEscrow",
					"outputs": [],
					"stateMutability": "nonpayable",
					"type": "function"
				},
				{
					"inputs": [
						{
							"internalType": "uint256",
							"name": "_bps",
							"type": "uint256"
						}
					],
					"name": "setProtocolCutBps",
					"outputs": [],
					"stateMutability": "nonpayable",
					"type": "function"
				},
				{
					"inputs": [
						{
							"internalType": "address",
							"name": "_router",
							"type": "address"
						}
					],
					"name": "setRouter",
					"outputs": [],
					"stateMutability": "nonpayable",
					"type": "function"
				},
				{
					"inputs": [
						{
							"internalType": "address",
							"name": "_settler",
							"type": "address"
						}
					],
					"name": "setSettler",
					"outputs": [],
					"stateMutability": "nonpayable",
					"type": "function"
				},
				{
					"inputs": [
						{
							"internalType": "bool",
							"name": "_enabled",
							"type": "bool"
						}
					],
					"name": "setShuffleEnabled",
					"outputs": [],
					"stateMutability": "nonpayable",
					"type": "function"
				},
				{
					"inputs": [
						{
							"internalType": "uint256",
							"name": "_count",
							"type": "uint256"
						}
					],
					"name": "setWinnersPerRound",
					"outputs": [],
					"stateMutability": "nonpayable",
					"type": "function"
				},
				{
					"inputs": [],
					"name": "settleSegment",
					"outputs": [],
					"stateMutability": "nonpayable",
					"type": "function"
				},
				{
					"inputs": [],
					"name": "settlementPaused",
					"outputs": [
						{
							"internalType": "bool",
							"name": "",
							"type": "bool"
						}
					],
					"stateMutability": "view",
					"type": "function"
				},
				{
					"inputs": [],
					"name": "settler",
					"outputs": [
						{
							"internalType": "address",
							"name": "",
							"type": "address"
						}
					],
					"stateMutability": "view",
					"type": "function"
				},
				{
					"inputs": [],
					"name": "shuffleEnabled",
					"outputs": [
						{
							"internalType": "bool",
							"name": "",
							"type": "bool"
						}
					],
					"stateMutability": "view",
					"type": "function"
				},
				{
					"inputs": [],
					"name": "startGame",
					"outputs": [],
					"stateMutability": "nonpayable",
					"type": "function"
				},
				{
					"inputs": [],
					"name": "timeRemainingInSegment",
					"outputs": [
						{
							"internalType": "uint256",
							"name": "",
							"type": "uint256"
						}
					],
					"stateMutability": "view",
					"type": "function"
				},
				{
					"inputs": [
						{
							"internalType": "address",
							"name": "newOwner",
							"type": "address"
						}
					],
					"name": "transferOwnership",
					"outputs": [],
					"stateMutability": "nonpayable",
					"type": "function"
				},
				{
					"inputs": [],
					"name": "unpauseEntries",
					"outputs": [],
					"stateMutability": "nonpayable",
					"type": "function"
				},
				{
					"inputs": [],
					"name": "unpauseSettlement",
					"outputs": [],
					"stateMutability": "nonpayable",
					"type": "function"
				},
				{
					"inputs": [],
					"name": "winnersPerRound",
					"outputs": [
						{
							"internalType": "uint256",
							"name": "",
							"type": "uint256"
						}
					],
					"stateMutability": "view",
					"type": "function"
				}
			],
			"devdoc": {
				"errors": {
					"OwnableInvalidOwner(address)": [
						{
							"details": "The owner is not a valid owner account. (eg. `address(0)`)"
						}
					],
					"OwnableUnauthorizedAccount(address)": [
						{
							"details": "The caller account is not authorized to perform an operation."
						}
					],
					"ReentrancyGuardReentrantCall()": [
						{
							"details": "Unauthorized reentrant call."
						}
					]
				},
				"kind": "dev",
				"methods": {
					"getCurrentWindow()": {
						"details": "Past segments: locked digit. Current segment: live digit. Future: 0x00."
					},
					"getSegmentDigit(uint256)": {
						"details": "Returns 0x00 if segment hasn't been settled yet."
					},
					"nudgeScroll()": {
						"details": "Only affects the current segment's digit counter.      Global positionCounter also increments (for entropy + analytics).      Blocked during settlement window."
					},
					"owner()": {
						"details": "Returns the address of the current owner."
					},
					"renounceOwnership()": {
						"details": "Leaves the contract without owner. It will not be possible to call `onlyOwner` functions. Can only be called by the current owner. NOTE: Renouncing ownership will leave the contract without an owner, thereby disabling any functionality that is only available to the owner."
					},
					"transferOwnership(address)": {
						"details": "Transfers ownership of the contract to a new account (`newOwner`). Can only be called by the current owner."
					}
				},
				"title": "TimbPrize",
				"version": 1
			},
			"evm": {
				"assembly": "    /* \"/contracts/TimbPrize.sol\":3404:26929  contract TimbPrize is Ownable, ReentrancyGuard {... */\n  mstore(0x40, 0x80)\n    /* \"/contracts/TimbPrize.sol\":10028:10551  constructor(... */\n  callvalue\n  dup1\n  iszero\n  tag_1\n  jumpi\n  0x00\n  dup1\n  revert\ntag_1:\n  pop\n  mload(0x40)\n  sub(codesize, bytecodeSize)\n  dup1\n  bytecodeSize\n  dup4\n  codecopy\n  dup2\n  add\n  0x40\n  dup2\n  swap1\n  mstore\n  tag_2\n  swap2\n  tag_3\n  jump\t// in\ntag_2:\n    /* \"/contracts/TimbPrize.sol\":10140:10150  msg.sender */\n  caller\n  dup1\n    /* \"@openzeppelin/contracts/access/Ownable.sol\":1269:1364  if (initialOwner == address(0)) {... */\n  tag_8\n  jumpi\n    /* \"@openzeppelin/contracts/access/Ownable.sol\":1322:1353  OwnableInvalidOwner(address(0)) */\n  mload(0x40)\n  shl(0xe0, 0x1e4fbdf7)\n  dup2\n  mstore\n    /* \"@openzeppelin/contracts/access/Ownable.sol\":1350:1351  0 */\n  0x00\n    /* \"@openzeppelin/contracts/access/Ownable.sol\":1322:1353  OwnableInvalidOwner(address(0)) */\n  0x04\n  dup3\n  add\n    /* \"#utility.yul\":725:776   */\n  mstore\n    /* \"#utility.yul\":698:716   */\n  0x24\n  add\n    /* \"@openzeppelin/contracts/access/Ownable.sol\":1322:1353  OwnableInvalidOwner(address(0)) */\n  mload(0x40)\n  dup1\n  swap2\n  sub\n  swap1\n  revert\n    /* \"@openzeppelin/contracts/access/Ownable.sol\":1269:1364  if (initialOwner == address(0)) {... */\ntag_8:\n    /* \"@openzeppelin/contracts/access/Ownable.sol\":1373:1405  _transferOwnership(initialOwner) */\n  tag_11\n    /* \"@openzeppelin/contracts/access/Ownable.sol\":1392:1404  initialOwner */\n  dup2\n    /* \"@openzeppelin/contracts/access/Ownable.sol\":1373:1391  _transferOwnership */\n  tag_12\n    /* \"@openzeppelin/contracts/access/Ownable.sol\":1373:1405  _transferOwnership(initialOwner) */\n  jump\t// in\ntag_11:\n  pop\n    /* \"@openzeppelin/contracts/utils/ReentrancyGuard.sol\":2365:2366  1 */\n  0x01\n    /* \"@openzeppelin/contracts/utils/ReentrancyGuard.sol\":1505:1571  0x9b779b17422d0df92223018b32b4d1fa46e071723d6817e2486d003becc55f00 */\n  0x9b779b17422d0df92223018b32b4d1fa46e071723d6817e2486d003becc55f00\n    /* \"@openzeppelin/contracts/utils/ReentrancyGuard.sol\":2539:2605  _reentrancyGuardStorageSlot().getUint256Slot().value = NOT_ENTERED */\n  sstore\n  sub(shl(0xa0, 0x01), 0x01)\n    /* \"/contracts/TimbPrize.sol\":10166:10193  _prizeEscrow  == address(0) */\n  dup4\n  and\n    /* \"/contracts/TimbPrize.sol\":10162:10215  if (_prizeEscrow  == address(0)) revert ZeroAddress() */\n  tag_19\n  jumpi\n    /* \"/contracts/TimbPrize.sol\":10202:10215  ZeroAddress() */\n  mload(0x40)\n  shl(0xe0, 0xd92e233d)\n  dup2\n  mstore\n  0x04\n  add\n  mload(0x40)\n  dup1\n  swap2\n  sub\n  swap1\n  revert\n    /* \"/contracts/TimbPrize.sol\":10162:10215  if (_prizeEscrow  == address(0)) revert ZeroAddress() */\ntag_19:\n  sub(shl(0xa0, 0x01), 0x01)\n    /* \"/contracts/TimbPrize.sol\":10229:10256  _gameRegistry == address(0) */\n  dup3\n  and\n    /* \"/contracts/TimbPrize.sol\":10225:10278  if (_gameRegistry == address(0)) revert ZeroAddress() */\n  tag_20\n  jumpi\n    /* \"/contracts/TimbPrize.sol\":10265:10278  ZeroAddress() */\n  mload(0x40)\n  shl(0xe0, 0xd92e233d)\n  dup2\n  mstore\n  0x04\n  add\n  mload(0x40)\n  dup1\n  swap2\n  sub\n  swap1\n  revert\n    /* \"/contracts/TimbPrize.sol\":10225:10278  if (_gameRegistry == address(0)) revert ZeroAddress() */\ntag_20:\n  sub(shl(0xa0, 0x01), 0x01)\n    /* \"/contracts/TimbPrize.sol\":10292:10319  _router       == address(0) */\n  dup2\n  and\n    /* \"/contracts/TimbPrize.sol\":10288:10341  if (_router       == address(0)) revert ZeroAddress() */\n  tag_21\n  jumpi\n    /* \"/contracts/TimbPrize.sol\":10328:10341  ZeroAddress() */\n  mload(0x40)\n  shl(0xe0, 0xd92e233d)\n  dup2\n  mstore\n  0x04\n  add\n  mload(0x40)\n  dup1\n  swap2\n  sub\n  swap1\n  revert\n    /* \"/contracts/TimbPrize.sol\":10288:10341  if (_router       == address(0)) revert ZeroAddress() */\ntag_21:\n    /* \"/contracts/TimbPrize.sol\":10352:10363  prizeEscrow */\n  0x01\n    /* \"/contracts/TimbPrize.sol\":10352:10379  prizeEscrow  = _prizeEscrow */\n  dup1\n  sload\n  sub(shl(0xa0, 0x01), 0x01)\n  swap5\n  dup6\n  and\n  not(sub(shl(0xa0, 0x01), 0x01))\n  swap2\n  dup3\n  and\n  or\n  swap1\n  swap2\n  sstore\n    /* \"/contracts/TimbPrize.sol\":10389:10401  gameRegistry */\n  0x02\n    /* \"/contracts/TimbPrize.sol\":10389:10417  gameRegistry = _gameRegistry */\n  dup1\n  sload\n  swap4\n  dup6\n  and\n  swap4\n  dup3\n  and\n  swap4\n  swap1\n  swap4\n  or\n  swap1\n  swap3\n  sstore\n    /* \"/contracts/TimbPrize.sol\":10427:10433  router */\n  0x03\n    /* \"/contracts/TimbPrize.sol\":10427:10449  router       = _router */\n  dup1\n  sload\n  swap2\n  swap1\n  swap4\n  and\n  swap1\n  dup3\n  and\n  or\n  dup3\n  sstore\n    /* \"/contracts/TimbPrize.sol\":10459:10466  settler */\n  0x05\n    /* \"/contracts/TimbPrize.sol\":10459:10484  settler      = msg.sender */\n  dup1\n  sload\n  swap1\n  swap2\n  and\n    /* \"/contracts/TimbPrize.sol\":10474:10484  msg.sender */\n  caller\n    /* \"/contracts/TimbPrize.sol\":10459:10484  settler      = msg.sender */\n  or\n  swap1\n  sstore\n    /* \"/contracts/TimbPrize.sol\":10494:10509  winnersPerRound */\n  0x10\n    /* \"/contracts/TimbPrize.sol\":10494:10513  winnersPerRound = 3 */\n  sstore\n    /* \"/contracts/TimbPrize.sol\":10541:10544  200 */\n  0xc8\n    /* \"/contracts/TimbPrize.sol\":10523:10537  protocolCutBps */\n  0x11\n    /* \"/contracts/TimbPrize.sol\":10523:10544  protocolCutBps  = 200 */\n  sstore\n    /* \"/contracts/TimbPrize.sol\":3404:26929  contract TimbPrize is Ownable, ReentrancyGuard {... */\n  jump(tag_27)\n    /* \"@openzeppelin/contracts/access/Ownable.sol\":2912:3099  function _transferOwnership(address newOwner) internal virtual {... */\ntag_12:\n    /* \"@openzeppelin/contracts/access/Ownable.sol\":2985:3001  address oldOwner */\n  0x00\n    /* \"@openzeppelin/contracts/access/Ownable.sol\":3004:3010  _owner */\n  dup1\n  sload\n  sub(shl(0xa0, 0x01), 0x01)\n    /* \"@openzeppelin/contracts/access/Ownable.sol\":3020:3037  _owner = newOwner */\n  dup4\n  dup2\n  and\n  not(sub(shl(0xa0, 0x01), 0x01))\n  dup4\n  and\n  dup2\n  or\n  dup5\n  sstore\n    /* \"@openzeppelin/contracts/access/Ownable.sol\":3052:3092  OwnershipTransferred(oldOwner, newOwner) */\n  mload(0x40)\n    /* \"@openzeppelin/contracts/access/Ownable.sol\":3004:3010  _owner */\n  swap2\n  swap1\n  swap3\n  and\n  swap3\n  dup4\n  swap2\n    /* \"@openzeppelin/contracts/access/Ownable.sol\":3052:3092  OwnershipTransferred(oldOwner, newOwner) */\n  0x8be0079c531659141344cd1fd0a4f28419497f9722a3daafe3b4186f6b6457e0\n  swap2\n    /* \"@openzeppelin/contracts/access/Ownable.sol\":2985:3001  address oldOwner */\n  swap1\n    /* \"@openzeppelin/contracts/access/Ownable.sol\":3052:3092  OwnershipTransferred(oldOwner, newOwner) */\n  log3\n    /* \"@openzeppelin/contracts/access/Ownable.sol\":2975:3099  {... */\n  pop\n    /* \"@openzeppelin/contracts/access/Ownable.sol\":2912:3099  function _transferOwnership(address newOwner) internal virtual {... */\n  pop\n  jump\t// out\n    /* \"#utility.yul\":14:191   */\ntag_26:\n    /* \"#utility.yul\":93:106   */\n  dup1\n  mload\n  sub(shl(0xa0, 0x01), 0x01)\n    /* \"#utility.yul\":135:166   */\n  dup2\n  and\n    /* \"#utility.yul\":125:167   */\n  dup2\n  eq\n    /* \"#utility.yul\":115:185   */\n  tag_29\n  jumpi\n    /* \"#utility.yul\":181:182   */\n  0x00\n    /* \"#utility.yul\":178:179   */\n  dup1\n    /* \"#utility.yul\":171:183   */\n  revert\n    /* \"#utility.yul\":115:185   */\ntag_29:\n    /* \"#utility.yul\":14:191   */\n  swap2\n  swap1\n  pop\n  jump\t// out\n    /* \"#utility.yul\":196:574   */\ntag_3:\n    /* \"#utility.yul\":284:290   */\n  0x00\n    /* \"#utility.yul\":292:298   */\n  dup1\n    /* \"#utility.yul\":300:306   */\n  0x00\n    /* \"#utility.yul\":353:355   */\n  0x60\n    /* \"#utility.yul\":341:350   */\n  dup5\n    /* \"#utility.yul\":332:339   */\n  dup7\n    /* \"#utility.yul\":328:351   */\n  sub\n    /* \"#utility.yul\":324:356   */\n  slt\n    /* \"#utility.yul\":321:373   */\n  iszero\n  tag_31\n  jumpi\n    /* \"#utility.yul\":369:370   */\n  0x00\n    /* \"#utility.yul\":366:367   */\n  dup1\n    /* \"#utility.yul\":359:371   */\n  revert\n    /* \"#utility.yul\":321:373   */\ntag_31:\n    /* \"#utility.yul\":392:432   */\n  tag_32\n    /* \"#utility.yul\":422:431   */\n  dup5\n    /* \"#utility.yul\":392:432   */\n  tag_26\n  jump\t// in\ntag_32:\n    /* \"#utility.yul\":382:432   */\n  swap3\n  pop\n    /* \"#utility.yul\":451:500   */\n  tag_33\n    /* \"#utility.yul\":496:498   */\n  0x20\n    /* \"#utility.yul\":485:494   */\n  dup6\n    /* \"#utility.yul\":481:499   */\n  add\n    /* \"#utility.yul\":451:500   */\n  tag_26\n  jump\t// in\ntag_33:\n    /* \"#utility.yul\":441:500   */\n  swap2\n  pop\n    /* \"#utility.yul\":519:568   */\n  tag_34\n    /* \"#utility.yul\":564:566   */\n  0x40\n    /* \"#utility.yul\":553:562   */\n  dup6\n    /* \"#utility.yul\":549:567   */\n  add\n    /* \"#utility.yul\":519:568   */\n  tag_26\n  jump\t// in\ntag_34:\n    /* \"#utility.yul\":509:568   */\n  swap1\n  pop\n    /* \"#utility.yul\":196:574   */\n  swap3\n  pop\n  swap3\n  pop\n  swap3\n  jump\t// out\n    /* \"#utility.yul\":579:782   */\ntag_27:\n    /* \"/contracts/TimbPrize.sol\":3404:26929  contract TimbPrize is Ownable, ReentrancyGuard {... */\n  dataSize(sub_0)\n  dup1\n  dataOffset(sub_0)\n  0x00\n  codecopy\n  0x00\n  return\nstop\n\nsub_0: assembly {\n        /* \"/contracts/TimbPrize.sol\":3404:26929  contract TimbPrize is Ownable, ReentrancyGuard {... */\n      mstore(0x40, 0x80)\n      jumpi(tag_1, lt(calldatasize, 0x04))\n      shr(0xe0, calldataload(0x00))\n      dup1\n      0x8a19c8bc\n      gt\n      tag_60\n      jumpi\n      dup1\n      0xc4887f15\n      gt\n      tag_61\n      jumpi\n      dup1\n      0xda090755\n      gt\n      tag_62\n      jumpi\n      dup1\n      0xf13afb90\n      gt\n      tag_63\n      jumpi\n      dup1\n      0xf13afb90\n      eq\n      tag_56\n      jumpi\n      dup1\n      0xf2fde38b\n      eq\n      tag_57\n      jumpi\n      dup1\n      0xf82a23d1\n      eq\n      tag_58\n      jumpi\n      dup1\n      0xf887ea40\n      eq\n      tag_59\n      jumpi\n      0x00\n      dup1\n      revert\n    tag_63:\n      dup1\n      0xda090755\n      eq\n      tag_52\n      jumpi\n      dup1\n      0xdd898b2f\n      eq\n      tag_53\n      jumpi\n      dup1\n      0xe9755b59\n      eq\n      tag_54\n      jumpi\n      dup1\n      0xebd2fe41\n      eq\n      tag_55\n      jumpi\n      0x00\n      dup1\n      revert\n    tag_62:\n      dup1\n      0xd38970bc\n      gt\n      tag_64\n      jumpi\n      dup1\n      0xd38970bc\n      eq\n      tag_48\n      jumpi\n      dup1\n      0xd57f9525\n      eq\n      tag_49\n      jumpi\n      dup1\n      0xd6194c00\n      eq\n      tag_50\n      jumpi\n      dup1\n      0xd65ab5f2\n      eq\n      tag_51\n      jumpi\n      0x00\n      dup1\n      revert\n    tag_64:\n      dup1\n      0xc4887f15\n      eq\n      tag_45\n      jumpi\n      dup1\n      0xc74b817d\n      eq\n      tag_46\n      jumpi\n      dup1\n      0xcc16fe5b\n      eq\n      tag_47\n      jumpi\n      0x00\n      dup1\n      revert\n    tag_61:\n      dup1\n      0xac650783\n      gt\n      tag_65\n      jumpi\n      dup1\n      0xb63ff8a3\n      gt\n      tag_66\n      jumpi\n      dup1\n      0xb63ff8a3\n      eq\n      tag_41\n      jumpi\n      dup1\n      0xb7bc5fb6\n      eq\n      tag_42\n      jumpi\n      dup1\n      0xc0d78655\n      eq\n      tag_43\n      jumpi\n      dup1\n      0xc33b7586\n      eq\n      tag_44\n      jumpi\n      0x00\n      dup1\n      revert\n    tag_66:\n      dup1\n      0xac650783\n      eq\n      tag_38\n      jumpi\n      dup1\n      0xb2721164\n      eq\n      tag_39\n      jumpi\n      dup1\n      0xb303feeb\n      eq\n      tag_40\n      jumpi\n      0x00\n      dup1\n      revert\n    tag_65:\n      dup1\n      0x99b465cb\n      gt\n      tag_67\n      jumpi\n      dup1\n      0x99b465cb\n      eq\n      tag_34\n      jumpi\n      dup1\n      0x9c737e8f\n      eq\n      tag_35\n      jumpi\n      dup1\n      0xa1a016a3\n      eq\n      tag_36\n      jumpi\n      dup1\n      0xab221a76\n      eq\n      tag_37\n      jumpi\n      0x00\n      dup1\n      revert\n    tag_67:\n      dup1\n      0x8a19c8bc\n      eq\n      tag_31\n      jumpi\n      dup1\n      0x8da5cb5b\n      eq\n      tag_32\n      jumpi\n      dup1\n      0x92eaa9d9\n      eq\n      tag_33\n      jumpi\n      0x00\n      dup1\n      revert\n    tag_60:\n      dup1\n      0x41d67d06\n      gt\n      tag_68\n      jumpi\n      dup1\n      0x677bd9ff\n      gt\n      tag_69\n      jumpi\n      dup1\n      0x79eedbdd\n      gt\n      tag_70\n      jumpi\n      dup1\n      0x79eedbdd\n      eq\n      tag_27\n      jumpi\n      dup1\n      0x7f35d49f\n      eq\n      tag_28\n      jumpi\n      dup1\n      0x7f79ba59\n      eq\n      tag_29\n      jumpi\n      dup1\n      0x873f6f9e\n      eq\n      tag_30\n      jumpi\n      0x00\n      dup1\n      revert\n    tag_70:\n      dup1\n      0x677bd9ff\n      eq\n      tag_23\n      jumpi\n      dup1\n      0x715018a6\n      eq\n      tag_24\n      jumpi\n      dup1\n      0x76d9ff2c\n      eq\n      tag_25\n      jumpi\n      dup1\n      0x77043591\n      eq\n      tag_26\n      jumpi\n      0x00\n      dup1\n      revert\n    tag_69:\n      dup1\n      0x5e123ce4\n      gt\n      tag_71\n      jumpi\n      dup1\n      0x5e123ce4\n      eq\n      tag_19\n      jumpi\n      dup1\n      0x5f303f1c\n      eq\n      tag_20\n      jumpi\n      dup1\n      0x63d5ab8d\n      eq\n      tag_21\n      jumpi\n      dup1\n      0x6641ea08\n      eq\n      tag_22\n      jumpi\n      0x00\n      dup1\n      revert\n    tag_71:\n      dup1\n      0x41d67d06\n      eq\n      tag_16\n      jumpi\n      dup1\n      0x456990c7\n      eq\n      tag_17\n      jumpi\n      dup1\n      0x46a662bf\n      eq\n      tag_18\n      jumpi\n      0x00\n      dup1\n      revert\n    tag_68:\n      dup1\n      0x1a3b8e8c\n      gt\n      tag_72\n      jumpi\n      dup1\n      0x293c2958\n      gt\n      tag_73\n      jumpi\n      dup1\n      0x293c2958\n      eq\n      tag_12\n      jumpi\n      dup1\n      0x2ee0c463\n      eq\n      tag_13\n      jumpi\n      dup1\n      0x3deb6cae\n      eq\n      tag_14\n      jumpi\n      dup1\n      0x4168632d\n      eq\n      tag_15\n      jumpi\n      0x00\n      dup1\n      revert\n    tag_73:\n      dup1\n      0x1a3b8e8c\n      eq\n      tag_9\n      jumpi\n      dup1\n      0x1ad41d14\n      eq\n      tag_10\n      jumpi\n      dup1\n      0x231e832d\n      eq\n      tag_11\n      jumpi\n      0x00\n      dup1\n      revert\n    tag_72:\n      dup1\n      0x0a8506ca\n      gt\n      tag_74\n      jumpi\n      dup1\n      0x0a8506ca\n      eq\n      tag_5\n      jumpi\n      dup1\n      0x0b7a567b\n      eq\n      tag_6\n      jumpi\n      dup1\n      0x0f67e7d5\n      eq\n      tag_7\n      jumpi\n      dup1\n      0x17ebf6ae\n      eq\n      tag_8\n      jumpi\n      0x00\n      dup1\n      revert\n    tag_74:\n      dup1\n      0x02e28c70\n      eq\n      tag_2\n      jumpi\n      dup1\n      0x03e3cd6a\n      eq\n      tag_3\n      jumpi\n      dup1\n      0x07f19eba\n      eq\n      tag_4\n      jumpi\n    tag_1:\n      0x00\n      dup1\n      revert\n        /* \"/contracts/TimbPrize.sol\":24346:24866  function getRoundResult(uint256 round)... */\n    tag_2:\n      callvalue\n      dup1\n      iszero\n      tag_75\n      jumpi\n      0x00\n      dup1\n      revert\n    tag_75:\n      pop\n      tag_76\n      tag_77\n      calldatasize\n      0x04\n      tag_78\n      jump\t// in\n    tag_77:\n      tag_79\n      jump\t// in\n    tag_76:\n      mload(0x40)\n      tag_80\n      swap6\n      swap5\n      swap4\n      swap3\n      swap2\n      swap1\n      tag_81\n      jump\t// in\n    tag_80:\n      mload(0x40)\n      dup1\n      swap2\n      sub\n      swap1\n      return\n        /* \"/contracts/TimbPrize.sol\":6807:6856  mapping(uint256 => address[]) public roundWinners */\n    tag_3:\n      callvalue\n      dup1\n      iszero\n      tag_82\n      jumpi\n      0x00\n      dup1\n      revert\n    tag_82:\n      pop\n      tag_83\n      tag_84\n      calldatasize\n      0x04\n      tag_85\n      jump\t// in\n    tag_84:\n      tag_86\n      jump\t// in\n    tag_83:\n      mload(0x40)\n      sub(shl(0xa0, 0x01), 0x01)\n        /* \"#utility.yul\":1668:1700   */\n      swap1\n      swap2\n      and\n        /* \"#utility.yul\":1650:1701   */\n      dup2\n      mstore\n        /* \"#utility.yul\":1638:1640   */\n      0x20\n        /* \"#utility.yul\":1623:1641   */\n      add\n        /* \"/contracts/TimbPrize.sol\":6807:6856  mapping(uint256 => address[]) public roundWinners */\n      tag_80\n        /* \"#utility.yul\":1504:1707   */\n      jump\n        /* \"/contracts/TimbPrize.sol\":25312:25501  function setSettler(address _settler) external onlyOwner {... */\n    tag_4:\n      callvalue\n      dup1\n      iszero\n      tag_89\n      jumpi\n      0x00\n      dup1\n      revert\n    tag_89:\n      pop\n      tag_90\n      tag_91\n      calldatasize\n      0x04\n      tag_92\n      jump\t// in\n    tag_91:\n      tag_93\n      jump\t// in\n    tag_90:\n      stop\n        /* \"/contracts/TimbPrize.sol\":26606:26682  function pauseEntries()      external onlyOwner { entriesPaused    = true; } */\n    tag_5:\n      callvalue\n      dup1\n      iszero\n      tag_94\n      jumpi\n      0x00\n      dup1\n      revert\n    tag_94:\n      pop\n      tag_90\n      tag_96\n      jump\t// in\n        /* \"/contracts/TimbPrize.sol\":11932:12261  function nudgeScroll()... */\n    tag_6:\n      callvalue\n      dup1\n      iszero\n      tag_97\n      jumpi\n      0x00\n      dup1\n      revert\n    tag_97:\n      pop\n      tag_90\n      tag_99\n      jump\t// in\n        /* \"/contracts/TimbPrize.sol\":12934:13627  function getCurrentWindow() public view returns (bytes6 window) {... */\n    tag_7:\n      callvalue\n      dup1\n      iszero\n      tag_100\n      jumpi\n      0x00\n      dup1\n      revert\n    tag_100:\n      pop\n      tag_101\n      tag_102\n      jump\t// in\n    tag_101:\n      mload(0x40)\n      not(sub(shl(0xd0, 0x01), 0x01))\n        /* \"#utility.yul\":2262:2299   */\n      swap1\n      swap2\n      and\n        /* \"#utility.yul\":2244:2300   */\n      dup2\n      mstore\n        /* \"#utility.yul\":2232:2234   */\n      0x20\n        /* \"#utility.yul\":2217:2235   */\n      add\n        /* \"/contracts/TimbPrize.sol\":12934:13627  function getCurrentWindow() public view returns (bytes6 window) {... */\n      tag_80\n        /* \"#utility.yul\":2100:2306   */\n      jump\n        /* \"/contracts/TimbPrize.sol\":22733:22984  function addToPot() external payable {... */\n    tag_8:\n      tag_90\n      tag_106\n      jump\t// in\n        /* \"/contracts/TimbPrize.sol\":4763:4789  address public prizeEscrow */\n    tag_9:\n      callvalue\n      dup1\n      iszero\n      tag_107\n      jumpi\n      0x00\n      dup1\n      revert\n    tag_107:\n      pop\n      sload(0x01)\n      tag_83\n      swap1\n      sub(shl(0xa0, 0x01), 0x01)\n      and\n      dup2\n      jump\n        /* \"/contracts/TimbPrize.sol\":26106:26306  function setWinnersPerRound(uint256 _count) external onlyOwner {... */\n    tag_10:\n      callvalue\n      dup1\n      iszero\n      tag_111\n      jumpi\n      0x00\n      dup1\n      revert\n    tag_111:\n      pop\n      tag_90\n      tag_113\n      calldatasize\n      0x04\n      tag_78\n      jump\t// in\n    tag_113:\n      tag_114\n      jump\t// in\n        /* \"/contracts/TimbPrize.sol\":4069:4150  uint256 public constant SEGMENT_DURATION = INTERACTION_WINDOW + SETTLEMENT_WINDOW */\n    tag_11:\n      callvalue\n      dup1\n      iszero\n      tag_115\n      jumpi\n      0x00\n      dup1\n      revert\n    tag_115:\n      pop\n      tag_116\n      tag_117\n      jump\t// in\n    tag_116:\n      mload(0x40)\n        /* \"#utility.yul\":2457:2482   */\n      swap1\n      dup2\n      mstore\n        /* \"#utility.yul\":2445:2447   */\n      0x20\n        /* \"#utility.yul\":2430:2448   */\n      add\n        /* \"/contracts/TimbPrize.sol\":4069:4150  uint256 public constant SEGMENT_DURATION = INTERACTION_WINDOW + SETTLEMENT_WINDOW */\n      tag_80\n        /* \"#utility.yul\":2311:2488   */\n      jump\n        /* \"/contracts/TimbPrize.sol\":23367:24340  function getRoundState()... */\n    tag_12:\n      callvalue\n      dup1\n      iszero\n      tag_120\n      jumpi\n      0x00\n      dup1\n      revert\n    tag_120:\n      pop\n      tag_121\n      tag_122\n      jump\t// in\n    tag_121:\n      mload(0x40)\n      tag_80\n      swap11\n      swap10\n      swap9\n      swap8\n      swap7\n      swap6\n      swap5\n      swap4\n      swap3\n      swap2\n      swap1\n      tag_124\n      jump\t// in\n        /* \"/contracts/TimbPrize.sol\":7248:7273  bool public entriesPaused */\n    tag_13:\n      callvalue\n      dup1\n      iszero\n      tag_125\n      jumpi\n      0x00\n      dup1\n      revert\n    tag_125:\n      pop\n      sload(0x18)\n      tag_126\n      swap1\n      0xff\n      and\n      dup2\n      jump\n    tag_126:\n      mload(0x40)\n        /* \"#utility.yul\":4229:4243   */\n      swap1\n      iszero\n        /* \"#utility.yul\":4222:4244   */\n      iszero\n        /* \"#utility.yul\":4204:4245   */\n      dup2\n      mstore\n        /* \"#utility.yul\":4192:4194   */\n      0x20\n        /* \"#utility.yul\":4177:4195   */\n      add\n        /* \"/contracts/TimbPrize.sol\":7248:7273  bool public entriesPaused */\n      tag_80\n        /* \"#utility.yul\":4064:4251   */\n      jump\n        /* \"/contracts/TimbPrize.sol\":3969:4023  uint256 public constant SETTLEMENT_WINDOW = 15 seconds */\n    tag_14:\n      callvalue\n      dup1\n      iszero\n      tag_130\n      jumpi\n      0x00\n      dup1\n      revert\n    tag_130:\n      pop\n      tag_116\n        /* \"/contracts/TimbPrize.sol\":4013:4023  15 seconds */\n      0x0f\n        /* \"/contracts/TimbPrize.sol\":3969:4023  uint256 public constant SETTLEMENT_WINDOW = 15 seconds */\n      dup2\n      jump\n        /* \"/contracts/TimbPrize.sol\":7279:7307  bool public settlementPaused */\n    tag_15:\n      callvalue\n      dup1\n      iszero\n      tag_134\n      jumpi\n      0x00\n      dup1\n      revert\n    tag_134:\n      pop\n      sload(0x18)\n      tag_126\n      swap1\n      0x0100\n      swap1\n      div\n      0xff\n      and\n      dup2\n      jump\n        /* \"/contracts/TimbPrize.sol\":6493:6522  uint256 public protocolCutBps */\n    tag_16:\n      callvalue\n      dup1\n      iszero\n      tag_138\n      jumpi\n      0x00\n      dup1\n      revert\n    tag_138:\n      pop\n      tag_116\n      sload(0x11)\n      dup2\n      jump\n        /* \"/contracts/TimbPrize.sol\":26312:26491  function setProtocolCutBps(uint256 _bps) external onlyOwner {... */\n    tag_17:\n      callvalue\n      dup1\n      iszero\n      tag_142\n      jumpi\n      0x00\n      dup1\n      revert\n    tag_142:\n      pop\n      tag_90\n      tag_144\n      calldatasize\n      0x04\n      tag_78\n      jump\t// in\n    tag_144:\n      tag_145\n      jump\t// in\n        /* \"/contracts/TimbPrize.sol\":14178:15119  function settleSegment()... */\n    tag_18:\n      callvalue\n      dup1\n      iszero\n      tag_146\n      jumpi\n      0x00\n      dup1\n      revert\n    tag_146:\n      pop\n      tag_90\n      tag_148\n      jump\t// in\n        /* \"/contracts/TimbPrize.sol\":6035:6058  bool public gameStarted */\n    tag_19:\n      callvalue\n      dup1\n      iszero\n      tag_149\n      jumpi\n      0x00\n      dup1\n      revert\n    tag_149:\n      pop\n      sload(0x0d)\n      tag_126\n      swap1\n      0xff\n      and\n      dup2\n      jump\n        /* \"/contracts/TimbPrize.sol\":25945:26100  function setPrizeEscrow(address _escrow) external onlyOwner {... */\n    tag_20:\n      callvalue\n      dup1\n      iszero\n      tag_153\n      jumpi\n      0x00\n      dup1\n      revert\n    tag_153:\n      pop\n      tag_90\n      tag_155\n      calldatasize\n      0x04\n      tag_92\n      jump\t// in\n    tag_155:\n      tag_156\n      jump\t// in\n        /* \"/contracts/TimbPrize.sol\":5275:5305  uint256 public positionCounter */\n    tag_21:\n      callvalue\n      dup1\n      iszero\n      tag_157\n      jumpi\n      0x00\n      dup1\n      revert\n    tag_157:\n      pop\n      tag_116\n      sload(0x06)\n      dup2\n      jump\n        /* \"/contracts/TimbPrize.sol\":4293:4371  uint256 public constant ROUND_DURATION = SEGMENT_DURATION * SEGMENTS_PER_ROUND */\n    tag_22:\n      callvalue\n      dup1\n      iszero\n      tag_161\n      jumpi\n      0x00\n      dup1\n      revert\n    tag_161:\n      pop\n      tag_116\n      tag_163\n      jump\t// in\n        /* \"/contracts/TimbPrize.sol\":21288:22256  function claimWinnings(uint256 round)... */\n    tag_23:\n      callvalue\n      dup1\n      iszero\n      tag_165\n      jumpi\n      0x00\n      dup1\n      revert\n    tag_165:\n      pop\n      tag_90\n      tag_167\n      calldatasize\n      0x04\n      tag_78\n      jump\t// in\n    tag_167:\n      tag_168\n      jump\t// in\n        /* \"@openzeppelin/contracts/access/Ownable.sol\":2293:2394  function renounceOwnership() public virtual onlyOwner {... */\n    tag_24:\n      callvalue\n      dup1\n      iszero\n      tag_169\n      jumpi\n      0x00\n      dup1\n      revert\n    tag_169:\n      pop\n      tag_90\n      tag_171\n      jump\t// in\n        /* \"/contracts/TimbPrize.sol\":26850:26927  function unpauseSettlement() external onlyOwner { settlementPaused = false; } */\n    tag_25:\n      callvalue\n      dup1\n      iszero\n      tag_172\n      jumpi\n      0x00\n      dup1\n      revert\n    tag_172:\n      pop\n      tag_90\n      tag_174\n      jump\t// in\n        /* \"/contracts/TimbPrize.sol\":6377:6407  uint256 public winnersPerRound */\n    tag_26:\n      callvalue\n      dup1\n      iszero\n      tag_175\n      jumpi\n      0x00\n      dup1\n      revert\n    tag_175:\n      pop\n      tag_116\n      sload(0x10)\n      dup2\n      jump\n        /* \"/contracts/TimbPrize.sol\":6583:6635  mapping(uint256 => bytes6) public roundWinningString */\n    tag_27:\n      callvalue\n      dup1\n      iszero\n      tag_179\n      jumpi\n      0x00\n      dup1\n      revert\n    tag_179:\n      pop\n      tag_101\n      tag_181\n      calldatasize\n      0x04\n      tag_78\n      jump\t// in\n    tag_181:\n      mstore(0x20, 0x12)\n      0x00\n      swap1\n      dup2\n      mstore\n      0x40\n      swap1\n      keccak256\n      sload\n      0xd0\n      shl\n      dup2\n      jump\n        /* \"/contracts/TimbPrize.sol\":3847:3915  uint256 public constant INTERACTION_WINDOW = 59 minutes + 45 seconds */\n    tag_28:\n      callvalue\n      dup1\n      iszero\n      tag_184\n      jumpi\n      0x00\n      dup1\n      revert\n    tag_184:\n      pop\n      tag_116\n        /* \"/contracts/TimbPrize.sol\":3892:3915  59 minutes + 45 seconds */\n      0x0e01\n        /* \"/contracts/TimbPrize.sol\":3847:3915  uint256 public constant INTERACTION_WINDOW = 59 minutes + 45 seconds */\n      dup2\n      jump\n        /* \"/contracts/TimbPrize.sol\":6705:6754  mapping(uint256 => uint256) public roundPotAmount */\n    tag_29:\n      callvalue\n      dup1\n      iszero\n      tag_188\n      jumpi\n      0x00\n      dup1\n      revert\n    tag_188:\n      pop\n      tag_116\n      tag_190\n      calldatasize\n      0x04\n      tag_78\n      jump\t// in\n    tag_190:\n      mstore(0x20, 0x13)\n      0x00\n      swap1\n      dup2\n      mstore\n      0x40\n      swap1\n      keccak256\n      sload\n      dup2\n      jump\n        /* \"/contracts/TimbPrize.sol\":7137:7199  mapping(uint256 => mapping(address => bool)) public hasClaimed */\n    tag_30:\n      callvalue\n      dup1\n      iszero\n      tag_193\n      jumpi\n      0x00\n      dup1\n      revert\n    tag_193:\n      pop\n      tag_126\n      tag_195\n      calldatasize\n      0x04\n      tag_196\n      jump\t// in\n    tag_195:\n      0x17\n      0x20\n      swap1\n      dup2\n      mstore\n      0x00\n      swap3\n      dup4\n      mstore\n      0x40\n      dup1\n      dup5\n      keccak256\n      swap1\n      swap2\n      mstore\n      swap1\n      dup3\n      mstore\n      swap1\n      keccak256\n      sload\n      0xff\n      and\n      dup2\n      jump\n        /* \"/contracts/TimbPrize.sol\":5758:5785  uint256 public currentRound */\n    tag_31:\n      callvalue\n      dup1\n      iszero\n      tag_199\n      jumpi\n      0x00\n      dup1\n      revert\n    tag_199:\n      pop\n      tag_116\n      sload(0x0a)\n      dup2\n      jump\n        /* \"@openzeppelin/contracts/access/Ownable.sol\":1638:1723  function owner() public view virtual returns (address) {... */\n    tag_32:\n      callvalue\n      dup1\n      iszero\n      tag_203\n      jumpi\n      0x00\n      dup1\n      revert\n    tag_203:\n      pop\n        /* \"@openzeppelin/contracts/access/Ownable.sol\":1684:1691  address */\n      0x00\n        /* \"@openzeppelin/contracts/access/Ownable.sol\":1710:1716  _owner */\n      sload\n      sub(shl(0xa0, 0x01), 0x01)\n      and\n        /* \"@openzeppelin/contracts/access/Ownable.sol\":1638:1723  function owner() public view virtual returns (address) {... */\n      jump(tag_83)\n        /* \"/contracts/TimbPrize.sol\":5059:5090  address public eligibleRegistry */\n    tag_33:\n      callvalue\n      dup1\n      iszero\n      tag_207\n      jumpi\n      0x00\n      dup1\n      revert\n    tag_207:\n      pop\n      sload(0x04)\n      tag_83\n      swap1\n      sub(shl(0xa0, 0x01), 0x01)\n      and\n      dup2\n      jump\n        /* \"/contracts/TimbPrize.sol\":5850:5879  uint256 public currentSegment */\n    tag_34:\n      callvalue\n      dup1\n      iszero\n      tag_211\n      jumpi\n      0x00\n      dup1\n      revert\n    tag_211:\n      pop\n      tag_116\n      sload(0x0b)\n      dup2\n      jump\n        /* \"/contracts/TimbPrize.sol\":22467:22727  function fundPot() external payable onlyOwner {... */\n    tag_35:\n      tag_90\n      tag_216\n      jump\t// in\n        /* \"/contracts/TimbPrize.sol\":24872:25105  function timeRemainingInSegment() external view returns (uint256) {... */\n    tag_36:\n      callvalue\n      dup1\n      iszero\n      tag_217\n      jumpi\n      0x00\n      dup1\n      revert\n    tag_217:\n      pop\n      tag_116\n      tag_219\n      jump\t// in\n        /* \"/contracts/TimbPrize.sol\":5169:5191  address public settler */\n    tag_37:\n      callvalue\n      dup1\n      iszero\n      tag_221\n      jumpi\n      0x00\n      dup1\n      revert\n    tag_221:\n      pop\n      sload(0x05)\n      tag_83\n      swap1\n      sub(shl(0xa0, 0x01), 0x01)\n      and\n      dup2\n      jump\n        /* \"/contracts/TimbPrize.sol\":4442:4489  uint256 public constant CLAIM_WINDOW_ROUNDS = 2 */\n    tag_38:\n      callvalue\n      dup1\n      iszero\n      tag_225\n      jumpi\n      0x00\n      dup1\n      revert\n    tag_225:\n      pop\n      tag_116\n        /* \"/contracts/TimbPrize.sol\":4488:4489  2 */\n      0x02\n        /* \"/contracts/TimbPrize.sol\":4442:4489  uint256 public constant CLAIM_WINDOW_ROUNDS = 2 */\n      dup2\n      jump\n        /* \"/contracts/TimbPrize.sol\":6139:6179  uint256 public currentAccumulatedRewards */\n    tag_39:\n      callvalue\n      dup1\n      iszero\n      tag_229\n      jumpi\n      0x00\n      dup1\n      revert\n    tag_229:\n      pop\n      tag_116\n      sload(0x0e)\n      dup2\n      jump\n        /* \"/contracts/TimbPrize.sol\":7023:7072  mapping(uint256 => uint256) public roundRemainder */\n    tag_40:\n      callvalue\n      dup1\n      iszero\n      tag_233\n      jumpi\n      0x00\n      dup1\n      revert\n    tag_233:\n      pop\n      tag_116\n      tag_235\n      calldatasize\n      0x04\n      tag_78\n      jump\t// in\n    tag_235:\n      mstore(0x20, 0x16)\n      0x00\n      swap1\n      dup2\n      mstore\n      0x40\n      swap1\n      keccak256\n      sload\n      dup2\n      jump\n        /* \"/contracts/TimbPrize.sol\":13774:13965  function getSegmentDigit(uint256 segment) external view returns (bytes1) {... */\n    tag_41:\n      callvalue\n      dup1\n      iszero\n      tag_238\n      jumpi\n      0x00\n      dup1\n      revert\n    tag_238:\n      pop\n      tag_239\n      tag_240\n      calldatasize\n      0x04\n      tag_78\n      jump\t// in\n    tag_240:\n      tag_241\n      jump\t// in\n    tag_239:\n      mload(0x40)\n      not(sub(shl(0xf8, 0x01), 0x01))\n        /* \"#utility.yul\":4738:4764   */\n      swap1\n      swap2\n      and\n        /* \"#utility.yul\":4720:4765   */\n      dup2\n      mstore\n        /* \"#utility.yul\":4708:4710   */\n      0x20\n        /* \"#utility.yul\":4693:4711   */\n      add\n        /* \"/contracts/TimbPrize.sol\":13774:13965  function getSegmentDigit(uint256 segment) external view returns (bytes1) {... */\n      tag_80\n        /* \"#utility.yul\":4576:4771   */\n      jump\n        /* \"/contracts/TimbPrize.sol\":4193:4239  uint256 public constant SEGMENTS_PER_ROUND = 6 */\n    tag_42:\n      callvalue\n      dup1\n      iszero\n      tag_244\n      jumpi\n      0x00\n      dup1\n      revert\n    tag_244:\n      pop\n      tag_116\n        /* \"/contracts/TimbPrize.sol\":4238:4239  6 */\n      0x06\n        /* \"/contracts/TimbPrize.sol\":4193:4239  uint256 public constant SEGMENTS_PER_ROUND = 6 */\n      dup2\n      jump\n        /* \"/contracts/TimbPrize.sol\":25507:25652  function setRouter(address _router) external onlyOwner {... */\n    tag_43:\n      callvalue\n      dup1\n      iszero\n      tag_248\n      jumpi\n      0x00\n      dup1\n      revert\n    tag_248:\n      pop\n      tag_90\n      tag_250\n      calldatasize\n      0x04\n      tag_92\n      jump\t// in\n    tag_250:\n      tag_251\n      jump\t// in\n        /* \"/contracts/TimbPrize.sol\":12267:12373  function isSettlementWindow() external view returns (bool) {... */\n    tag_44:\n      callvalue\n      dup1\n      iszero\n      tag_252\n      jumpi\n      0x00\n      dup1\n      revert\n    tag_252:\n      pop\n      tag_126\n      tag_254\n      jump\t// in\n        /* \"/contracts/TimbPrize.sol\":5392:5446  mapping(uint256 => uint256) public segmentDigitCounter */\n    tag_45:\n      callvalue\n      dup1\n      iszero\n      tag_256\n      jumpi\n      0x00\n      dup1\n      revert\n    tag_256:\n      pop\n      tag_116\n      tag_258\n      calldatasize\n      0x04\n      tag_78\n      jump\t// in\n    tag_258:\n      mstore(0x20, 0x07)\n      0x00\n      swap1\n      dup2\n      mstore\n      0x40\n      swap1\n      keccak256\n      sload\n      dup2\n      jump\n        /* \"/contracts/TimbPrize.sol\":5651:5677  bool public shuffleEnabled */\n    tag_46:\n      callvalue\n      dup1\n      iszero\n      tag_261\n      jumpi\n      0x00\n      dup1\n      revert\n    tag_261:\n      pop\n      sload(0x09)\n      tag_126\n      swap1\n      0xff\n      and\n      dup2\n      jump\n        /* \"/contracts/TimbPrize.sol\":5946:5977  uint256 public segmentStartTime */\n    tag_47:\n      callvalue\n      dup1\n      iszero\n      tag_265\n      jumpi\n      0x00\n      dup1\n      revert\n    tag_265:\n      pop\n      tag_116\n      sload(0x0c)\n      dup2\n      jump\n        /* \"/contracts/TimbPrize.sol\":6263:6304  uint256 public gameUnclaimed_winningsPool */\n    tag_48:\n      callvalue\n      dup1\n      iszero\n      tag_269\n      jumpi\n      0x00\n      dup1\n      revert\n    tag_269:\n      pop\n      tag_116\n      sload(0x0f)\n      dup2\n      jump\n        /* \"/contracts/TimbPrize.sol\":26769:26845  function pauseSettlement()   external onlyOwner { settlementPaused = true; } */\n    tag_49:\n      callvalue\n      dup1\n      iszero\n      tag_273\n      jumpi\n      0x00\n      dup1\n      revert\n    tag_273:\n      pop\n      tag_90\n      tag_275\n      jump\t// in\n        /* \"/contracts/TimbPrize.sol\":5519:5569  mapping(uint256 => bool) public segmentDigitLocked */\n    tag_50:\n      callvalue\n      dup1\n      iszero\n      tag_276\n      jumpi\n      0x00\n      dup1\n      revert\n    tag_276:\n      pop\n      tag_126\n      tag_278\n      calldatasize\n      0x04\n      tag_78\n      jump\t// in\n    tag_278:\n      mstore(0x20, 0x08)\n      0x00\n      swap1\n      dup2\n      mstore\n      0x40\n      swap1\n      keccak256\n      sload\n      0xff\n      and\n      dup2\n      jump\n        /* \"/contracts/TimbPrize.sol\":10756:11485  function startGame() external onlyOwner {... */\n    tag_51:\n      callvalue\n      dup1\n      iszero\n      tag_281\n      jumpi\n      0x00\n      dup1\n      revert\n    tag_281:\n      pop\n      tag_90\n      tag_283\n      jump\t// in\n        /* \"/contracts/TimbPrize.sol\":4861:4888  address public gameRegistry */\n    tag_52:\n      callvalue\n      dup1\n      iszero\n      tag_284\n      jumpi\n      0x00\n      dup1\n      revert\n    tag_284:\n      pop\n      sload(0x02)\n      tag_83\n      swap1\n      sub(shl(0xa0, 0x01), 0x01)\n      and\n      dup2\n      jump\n        /* \"/contracts/TimbPrize.sol\":25776:25939  function setGameRegistry(address _registry) external onlyOwner {... */\n    tag_53:\n      callvalue\n      dup1\n      iszero\n      tag_288\n      jumpi\n      0x00\n      dup1\n      revert\n    tag_288:\n      pop\n      tag_90\n      tag_290\n      calldatasize\n      0x04\n      tag_92\n      jump\t// in\n    tag_290:\n      tag_291\n      jump\t// in\n        /* \"/contracts/TimbPrize.sol\":26687:26764  function unpauseEntries()    external onlyOwner { entriesPaused    = false; } */\n    tag_54:\n      callvalue\n      dup1\n      iszero\n      tag_292\n      jumpi\n      0x00\n      dup1\n      revert\n    tag_292:\n      pop\n      tag_90\n      tag_294\n      jump\t// in\n        /* \"/contracts/TimbPrize.sol\":26497:26600  function setShuffleEnabled(bool _enabled) external onlyOwner {... */\n    tag_55:\n      callvalue\n      dup1\n      iszero\n      tag_295\n      jumpi\n      0x00\n      dup1\n      revert\n    tag_295:\n      pop\n      tag_90\n      tag_297\n      calldatasize\n      0x04\n      tag_298\n      jump\t// in\n    tag_297:\n      tag_299\n      jump\t// in\n        /* \"/contracts/TimbPrize.sol\":25658:25770  function setEligibleRegistry(address _registry) external onlyOwner {... */\n    tag_56:\n      callvalue\n      dup1\n      iszero\n      tag_300\n      jumpi\n      0x00\n      dup1\n      revert\n    tag_300:\n      pop\n      tag_90\n      tag_302\n      calldatasize\n      0x04\n      tag_92\n      jump\t// in\n    tag_302:\n      tag_303\n      jump\t// in\n        /* \"@openzeppelin/contracts/access/Ownable.sol\":2543:2758  function transferOwnership(address newOwner) public virtual onlyOwner {... */\n    tag_57:\n      callvalue\n      dup1\n      iszero\n      tag_304\n      jumpi\n      0x00\n      dup1\n      revert\n    tag_304:\n      pop\n      tag_90\n      tag_306\n      calldatasize\n      0x04\n      tag_92\n      jump\t// in\n    tag_306:\n      tag_307\n      jump\t// in\n        /* \"/contracts/TimbPrize.sol\":6915:6970  mapping(uint256 => uint256) public roundPerWinnerAmount */\n    tag_58:\n      callvalue\n      dup1\n      iszero\n      tag_308\n      jumpi\n      0x00\n      dup1\n      revert\n    tag_308:\n      pop\n      tag_116\n      tag_310\n      calldatasize\n      0x04\n      tag_78\n      jump\t// in\n    tag_310:\n      mstore(0x20, 0x15)\n      0x00\n      swap1\n      dup2\n      mstore\n      0x40\n      swap1\n      keccak256\n      sload\n      dup2\n      jump\n        /* \"/contracts/TimbPrize.sol\":4964:4985  address public router */\n    tag_59:\n      callvalue\n      dup1\n      iszero\n      tag_313\n      jumpi\n      0x00\n      dup1\n      revert\n    tag_313:\n      pop\n      sload(0x03)\n      tag_83\n      swap1\n      sub(shl(0xa0, 0x01), 0x01)\n      and\n      dup2\n      jump\n        /* \"/contracts/TimbPrize.sol\":24346:24866  function getRoundResult(uint256 round)... */\n    tag_79:\n        /* \"/contracts/TimbPrize.sol\":24445:24467  bytes6   winningString */\n      0x00\n        /* \"/contracts/TimbPrize.sol\":24642:24667  roundWinningString[round] */\n      dup2\n      dup2\n      mstore\n        /* \"/contracts/TimbPrize.sol\":24642:24660  roundWinningString */\n      0x12\n        /* \"/contracts/TimbPrize.sol\":24642:24667  roundWinningString[round] */\n      0x20\n      swap1\n      dup2\n      mstore\n      0x40\n      dup1\n      dup4\n      keccak256\n      sload\n        /* \"/contracts/TimbPrize.sol\":24693:24707  roundPotAmount */\n      0x13\n        /* \"/contracts/TimbPrize.sol\":24693:24714  roundPotAmount[round] */\n      dup4\n      mstore\n      dup2\n      dup5\n      keccak256\n      sload\n        /* \"/contracts/TimbPrize.sol\":24740:24752  roundWinners */\n      0x14\n        /* \"/contracts/TimbPrize.sol\":24740:24759  roundWinners[round] */\n      dup5\n      mstore\n      dup3\n      dup6\n      keccak256\n        /* \"/contracts/TimbPrize.sol\":24724:24759  winners       = roundWinners[round] */\n      dup1\n      sload\n      dup5\n      mload\n      dup2\n      dup8\n      mul\n      dup2\n      add\n      dup8\n      add\n      swap1\n      swap6\n      mstore\n      dup1\n      dup6\n      mstore\n        /* \"/contracts/TimbPrize.sol\":24642:24667  roundWinningString[round] */\n      0xd0\n      swap4\n      swap1\n      swap4\n      shl\n      swap6\n        /* \"/contracts/TimbPrize.sol\":24693:24714  roundPotAmount[round] */\n      swap2\n      swap5\n        /* \"/contracts/TimbPrize.sol\":24513:24537  address[] memory winners */\n      0x60\n      swap5\n        /* \"/contracts/TimbPrize.sol\":24445:24467  bytes6   winningString */\n      swap3\n      swap4\n      dup5\n      swap4\n        /* \"/contracts/TimbPrize.sol\":24724:24759  winners       = roundWinners[round] */\n      swap3\n        /* \"/contracts/TimbPrize.sol\":24740:24759  roundWinners[round] */\n      swap2\n        /* \"/contracts/TimbPrize.sol\":24724:24759  winners       = roundWinners[round] */\n      dup4\n      add\n        /* \"/contracts/TimbPrize.sol\":24740:24759  roundWinners[round] */\n      dup3\n        /* \"/contracts/TimbPrize.sol\":24724:24759  winners       = roundWinners[round] */\n      dup3\n      dup1\n      iszero\n      tag_318\n      jumpi\n      0x20\n      mul\n      dup3\n      add\n      swap2\n      swap1\n      0x00\n      mstore\n      keccak256(0x00, 0x20)\n      swap1\n    tag_319:\n      dup2\n      sload\n      sub(shl(0xa0, 0x01), 0x01)\n      and\n      dup2\n      mstore\n      0x01\n      swap1\n      swap2\n      add\n      swap1\n      0x20\n      add\n      dup1\n      dup4\n      gt\n      tag_319\n      jumpi\n    tag_318:\n      pop\n      pop\n      pop\n        /* \"/contracts/TimbPrize.sol\":24785:24812  roundPerWinnerAmount[round] */\n      0x00\n      swap9\n      dup10\n      mstore\n      pop\n      pop\n        /* \"/contracts/TimbPrize.sol\":24785:24805  roundPerWinnerAmount */\n      0x15\n        /* \"/contracts/TimbPrize.sol\":24785:24812  roundPerWinnerAmount[round] */\n      0x20\n      swap1\n      dup2\n      mstore\n      0x40\n      dup1\n      dup10\n      keccak256\n      sload\n        /* \"/contracts/TimbPrize.sol\":24838:24852  roundRemainder */\n      0x16\n        /* \"/contracts/TimbPrize.sol\":24838:24859  roundRemainder[round] */\n      swap1\n      swap3\n      mstore\n      swap1\n      swap8\n      keccak256\n      sload\n        /* \"/contracts/TimbPrize.sol\":24346:24866  function getRoundResult(uint256 round)... */\n      swap6\n      swap8\n      swap5\n      swap7\n        /* \"/contracts/TimbPrize.sol\":24724:24759  winners       = roundWinners[round] */\n      swap1\n      swap6\n        /* \"/contracts/TimbPrize.sol\":24785:24812  roundPerWinnerAmount[round] */\n      swap1\n      swap5\n        /* \"/contracts/TimbPrize.sol\":24838:24859  roundRemainder[round] */\n      swap1\n      swap4\n      pop\n        /* \"/contracts/TimbPrize.sol\":24346:24866  function getRoundResult(uint256 round)... */\n      swap2\n      pop\n      pop\n      jump\t// out\n        /* \"/contracts/TimbPrize.sol\":6807:6856  mapping(uint256 => address[]) public roundWinners */\n    tag_86:\n      mstore(0x20, 0x14)\n      dup2\n      0x00\n      mstore\n      keccak256(0x00, 0x40)\n      dup2\n      dup2\n      sload\n      dup2\n      lt\n      tag_320\n      jumpi\n      0x00\n      dup1\n      revert\n    tag_320:\n      0x00\n      swap2\n      dup3\n      mstore\n      0x20\n      swap1\n      swap2\n      keccak256\n      add\n      sload\n      sub(shl(0xa0, 0x01), 0x01)\n      and\n      swap2\n      pop\n      dup3\n      swap1\n      pop\n      jump\t// out\n        /* \"/contracts/TimbPrize.sol\":25312:25501  function setSettler(address _settler) external onlyOwner {... */\n    tag_93:\n        /* \"@openzeppelin/contracts/access/Ownable.sol\":1531:1544  _checkOwner() */\n      tag_323\n        /* \"@openzeppelin/contracts/access/Ownable.sol\":1531:1542  _checkOwner */\n      tag_324\n        /* \"@openzeppelin/contracts/access/Ownable.sol\":1531:1544  _checkOwner() */\n      jump\t// in\n    tag_323:\n      sub(shl(0xa0, 0x01), 0x01)\n        /* \"/contracts/TimbPrize.sol\":25383:25405  _settler == address(0) */\n      dup2\n      and\n        /* \"/contracts/TimbPrize.sol\":25379:25427  if (_settler == address(0)) revert ZeroAddress() */\n      tag_326\n      jumpi\n        /* \"/contracts/TimbPrize.sol\":25414:25427  ZeroAddress() */\n      mload(0x40)\n      shl(0xe0, 0xd92e233d)\n      dup2\n      mstore\n      0x04\n      add\n      mload(0x40)\n      dup1\n      swap2\n      sub\n      swap1\n      revert\n        /* \"/contracts/TimbPrize.sol\":25379:25427  if (_settler == address(0)) revert ZeroAddress() */\n    tag_326:\n        /* \"/contracts/TimbPrize.sol\":25437:25444  settler */\n      0x05\n        /* \"/contracts/TimbPrize.sol\":25437:25455  settler = _settler */\n      dup1\n      sload\n      not(sub(shl(0xa0, 0x01), 0x01))\n      and\n      sub(shl(0xa0, 0x01), 0x01)\n      dup4\n      and\n      swap1\n      dup2\n      or\n      swap1\n      swap2\n      sstore\n        /* \"/contracts/TimbPrize.sol\":25470:25494  SettlerUpdated(_settler) */\n      mload(0x40)\n      0x1f53e003aaf46af23aeb50e85f438d6f0c33618ce44e3545f1ec030c79b17729\n      swap1\n      0x00\n      swap1\n      log2\n        /* \"/contracts/TimbPrize.sol\":25312:25501  function setSettler(address _settler) external onlyOwner {... */\n      pop\n      jump\t// out\n        /* \"/contracts/TimbPrize.sol\":26606:26682  function pauseEntries()      external onlyOwner { entriesPaused    = true; } */\n    tag_96:\n        /* \"@openzeppelin/contracts/access/Ownable.sol\":1531:1544  _checkOwner() */\n      tag_328\n        /* \"@openzeppelin/contracts/access/Ownable.sol\":1531:1542  _checkOwner */\n      tag_324\n        /* \"@openzeppelin/contracts/access/Ownable.sol\":1531:1544  _checkOwner() */\n      jump\t// in\n    tag_328:\n        /* \"/contracts/TimbPrize.sol\":26656:26669  entriesPaused */\n      0x18\n        /* \"/contracts/TimbPrize.sol\":26656:26679  entriesPaused    = true */\n      dup1\n      sload\n      not(0xff)\n      and\n        /* \"/contracts/TimbPrize.sol\":26675:26679  true */\n      0x01\n        /* \"/contracts/TimbPrize.sol\":26656:26679  entriesPaused    = true */\n      or\n      swap1\n      sstore\n        /* \"/contracts/TimbPrize.sol\":26606:26682  function pauseEntries()      external onlyOwner { entriesPaused    = true; } */\n      jump\t// out\n        /* \"/contracts/TimbPrize.sol\":11932:12261  function nudgeScroll()... */\n    tag_99:\n        /* \"@openzeppelin/contracts/utils/ReentrancyGuard.sol\":3023:3044  _nonReentrantBefore() */\n      tag_331\n        /* \"@openzeppelin/contracts/utils/ReentrancyGuard.sol\":3023:3042  _nonReentrantBefore */\n      tag_332\n        /* \"@openzeppelin/contracts/utils/ReentrancyGuard.sol\":3023:3044  _nonReentrantBefore() */\n      jump\t// in\n    tag_331:\n        /* \"/contracts/TimbPrize.sol\":9671:9677  router */\n      and(sub(shl(0xa0, 0x01), 0x01), sload(0x03))\n        /* \"/contracts/TimbPrize.sol\":9657:9667  msg.sender */\n      caller\n        /* \"/contracts/TimbPrize.sol\":9657:9677  msg.sender != router */\n      eq\n        /* \"/contracts/TimbPrize.sol\":9653:9697  if (msg.sender != router) revert NotRouter() */\n      tag_334\n      jumpi\n        /* \"/contracts/TimbPrize.sol\":9686:9697  NotRouter() */\n      mload(0x40)\n      shl(0xe0, 0x91655201)\n      dup2\n      mstore\n      0x04\n      add\n      mload(0x40)\n      dup1\n      swap2\n      sub\n      swap1\n      revert\n        /* \"/contracts/TimbPrize.sol\":9653:9697  if (msg.sender != router) revert NotRouter() */\n    tag_334:\n        /* \"/contracts/TimbPrize.sol\":9763:9774  gameStarted */\n      and(0xff, sload(0x0d))\n        /* \"/contracts/TimbPrize.sol\":9758:9799  if (!gameStarted) revert GameNotStarted() */\n      tag_336\n      jumpi\n        /* \"/contracts/TimbPrize.sol\":9783:9799  GameNotStarted() */\n      mload(0x40)\n      shl(0xe0, 0x3a5f7b57)\n      dup2\n      mstore\n      0x04\n      add\n      mload(0x40)\n      dup1\n      swap2\n      sub\n      swap1\n      revert\n        /* \"/contracts/TimbPrize.sol\":9758:9799  if (!gameStarted) revert GameNotStarted() */\n    tag_336:\n        /* \"/contracts/TimbPrize.sol\":12054:12077  _isInSettlementWindow() */\n      tag_338\n        /* \"/contracts/TimbPrize.sol\":12054:12075  _isInSettlementWindow */\n      tag_339\n        /* \"/contracts/TimbPrize.sol\":12054:12077  _isInSettlementWindow() */\n      jump\t// in\n    tag_338:\n        /* \"/contracts/TimbPrize.sol\":12050:12106  if (_isInSettlementWindow()) revert InSettlementWindow() */\n      iszero\n      tag_340\n      jumpi\n        /* \"/contracts/TimbPrize.sol\":12086:12106  InSettlementWindow() */\n      mload(0x40)\n      shl(0xe0, 0x717824fb)\n      dup2\n      mstore\n      0x04\n      add\n      mload(0x40)\n      dup1\n      swap2\n      sub\n      swap1\n      revert\n        /* \"/contracts/TimbPrize.sol\":12050:12106  if (_isInSettlementWindow()) revert InSettlementWindow() */\n    tag_340:\n        /* \"/contracts/TimbPrize.sol\":12116:12131  positionCounter */\n      0x06\n        /* \"/contracts/TimbPrize.sol\":12116:12133  positionCounter++ */\n      dup1\n      sload\n      swap1\n        /* \"/contracts/TimbPrize.sol\":12116:12131  positionCounter */\n      0x00\n        /* \"/contracts/TimbPrize.sol\":12116:12133  positionCounter++ */\n      tag_341\n      dup4\n      tag_342\n      jump\t// in\n    tag_341:\n      swap1\n      swap2\n      sstore\n      pop\n      pop\n        /* \"/contracts/TimbPrize.sol\":12163:12177  currentSegment */\n      sload(0x0b)\n        /* \"/contracts/TimbPrize.sol\":12143:12178  segmentDigitCounter[currentSegment] */\n      0x00\n      swap1\n      dup2\n      mstore\n        /* \"/contracts/TimbPrize.sol\":12143:12162  segmentDigitCounter */\n      0x07\n        /* \"/contracts/TimbPrize.sol\":12143:12178  segmentDigitCounter[currentSegment] */\n      0x20\n      mstore\n      0x40\n      dup2\n      keccak256\n        /* \"/contracts/TimbPrize.sol\":12143:12180  segmentDigitCounter[currentSegment]++ */\n      dup1\n      sload\n      swap2\n      tag_343\n      dup4\n      tag_342\n      jump\t// in\n    tag_343:\n      swap2\n      swap1\n      pop\n      sstore\n      pop\n        /* \"/contracts/TimbPrize.sol\":12225:12237  currentRound */\n      sload(0x0a)\n        /* \"/contracts/TimbPrize.sol\":12195:12254  ScrollNudged(positionCounter, currentRound, currentSegment) */\n      0x494d93a08dca016bff87fc5e35de704731b23d47eb35da9499be2ddb7536da22\n        /* \"/contracts/TimbPrize.sol\":12208:12223  positionCounter */\n      sload(0x06)\n        /* \"/contracts/TimbPrize.sol\":12239:12253  currentSegment */\n      sload(0x0b)\n        /* \"/contracts/TimbPrize.sol\":12195:12254  ScrollNudged(positionCounter, currentRound, currentSegment) */\n      mload(0x40)\n      tag_344\n      swap3\n      swap2\n      swap1\n        /* \"#utility.yul\":5591:5616   */\n      swap2\n      dup3\n      mstore\n        /* \"#utility.yul\":5647:5649   */\n      0x20\n        /* \"#utility.yul\":5632:5650   */\n      dup3\n      add\n        /* \"#utility.yul\":5625:5659   */\n      mstore\n        /* \"#utility.yul\":5579:5581   */\n      0x40\n        /* \"#utility.yul\":5564:5582   */\n      add\n      swap1\n        /* \"#utility.yul\":5417:5665   */\n      jump\n        /* \"/contracts/TimbPrize.sol\":12195:12254  ScrollNudged(positionCounter, currentRound, currentSegment) */\n    tag_344:\n      mload(0x40)\n      dup1\n      swap2\n      sub\n      swap1\n      log2\n        /* \"@openzeppelin/contracts/utils/ReentrancyGuard.sol\":3065:3085  _nonReentrantAfter() */\n      tag_346\n        /* \"@openzeppelin/contracts/utils/ReentrancyGuard.sol\":2365:2366  1 */\n      0x01\n      0x00\n      dup1\n      mload\n      0x20\n      data_c8669cf8eaf883002b9f48e28846a8d408c9b58ea6613bace374265e43c9bc43\n      dup4\n      codecopy\n      dup2\n      mload\n      swap2\n      mstore\n        /* \"@openzeppelin/contracts/utils/ReentrancyGuard.sol\":3972:4034  _reentrancyGuardStorageSlot().getUint256Slot().value = ENTERED */\n      sstore\n        /* \"@openzeppelin/contracts/utils/ReentrancyGuard.sol\":3749:4041  function _nonReentrantBefore() private {... */\n      jump\n        /* \"@openzeppelin/contracts/utils/ReentrancyGuard.sol\":3065:3085  _nonReentrantAfter() */\n    tag_346:\n        /* \"/contracts/TimbPrize.sol\":11932:12261  function nudgeScroll()... */\n      jump\t// out\n        /* \"/contracts/TimbPrize.sol\":12934:13627  function getCurrentWindow() public view returns (bytes6 window) {... */\n    tag_102:\n        /* \"/contracts/TimbPrize.sol\":13030:13042  new bytes(6) */\n      0x40\n      dup1\n      mload\n        /* \"/contracts/TimbPrize.sol\":13040:13041  6 */\n      0x06\n        /* \"/contracts/TimbPrize.sol\":13030:13042  new bytes(6) */\n      dup1\n      dup3\n      mstore\n      dup2\n      dup4\n      add\n      swap1\n      swap3\n      mstore\n        /* \"/contracts/TimbPrize.sol\":12983:12996  bytes6 window */\n      0x00\n      swap2\n      dup3\n      swap2\n        /* \"/contracts/TimbPrize.sol\":13030:13042  new bytes(6) */\n      swap1\n      0x20\n      dup3\n      add\n      dup2\n      dup1\n      calldatasize\n      dup4\n      calldatacopy\n      add\n      swap1\n      pop\n      pop\n        /* \"/contracts/TimbPrize.sol\":13008:13042  bytes memory result = new bytes(6) */\n      swap1\n      pop\n        /* \"/contracts/TimbPrize.sol\":13069:13070  1 */\n      0x01\n        /* \"/contracts/TimbPrize.sol\":13052:13581  for (uint256 i = 1; i <= SEGMENTS_PER_ROUND; i++) {... */\n    tag_353:\n        /* \"/contracts/TimbPrize.sol\":4238:4239  6 */\n      0x06\n        /* \"/contracts/TimbPrize.sol\":13072:13073  i */\n      dup2\n        /* \"/contracts/TimbPrize.sol\":13072:13095  i <= SEGMENTS_PER_ROUND */\n      gt\n        /* \"/contracts/TimbPrize.sol\":13052:13581  for (uint256 i = 1; i <= SEGMENTS_PER_ROUND; i++) {... */\n      tag_354\n      jumpi\n        /* \"/contracts/TimbPrize.sol\":13116:13125  uint8 idx */\n      0x00\n        /* \"/contracts/TimbPrize.sol\":13134:13139  i - 1 */\n      tag_356\n        /* \"/contracts/TimbPrize.sol\":13138:13139  1 */\n      0x01\n        /* \"/contracts/TimbPrize.sol\":13134:13135  i */\n      dup4\n        /* \"/contracts/TimbPrize.sol\":13134:13139  i - 1 */\n      tag_357\n      jump\t// in\n    tag_356:\n        /* \"/contracts/TimbPrize.sol\":13116:13140  uint8 idx = uint8(i - 1) */\n      swap1\n      pop\n        /* \"/contracts/TimbPrize.sol\":13162:13176  currentSegment */\n      sload(0x0b)\n        /* \"/contracts/TimbPrize.sol\":13158:13159  i */\n      dup3\n        /* \"/contracts/TimbPrize.sol\":13158:13176  i < currentSegment */\n      lt\n        /* \"/contracts/TimbPrize.sol\":13154:13571  if (i < currentSegment) {... */\n      iszero\n      tag_358\n      jumpi\n        /* \"/contracts/TimbPrize.sol\":13242:13250  ALPHABET */\n      mload(0x40)\n      dup1\n      0x60\n      add\n      0x40\n      mstore\n      dup1\n      0x24\n      dup2\n      mstore\n      0x20\n      add\n      data_d1b12de380b5f3a30ba38a23a69e5703e0569d4a1fc4ac869b5f2bb883f9bcc1\n      0x24\n      swap2\n      codecopy\n        /* \"/contracts/TimbPrize.sol\":13251:13273  segmentDigitCounter[i] */\n      0x00\n      dup4\n      dup2\n      mstore\n        /* \"/contracts/TimbPrize.sol\":13251:13270  segmentDigitCounter */\n      0x07\n        /* \"/contracts/TimbPrize.sol\":13251:13273  segmentDigitCounter[i] */\n      0x20\n      mstore\n      0x40\n      swap1\n      keccak256\n      sload\n        /* \"/contracts/TimbPrize.sol\":13251:13278  segmentDigitCounter[i] % 36 */\n      tag_359\n      swap1\n        /* \"/contracts/TimbPrize.sol\":13276:13278  36 */\n      0x24\n      swap1\n        /* \"/contracts/TimbPrize.sol\":13251:13278  segmentDigitCounter[i] % 36 */\n      tag_360\n      jump\t// in\n    tag_359:\n        /* \"/contracts/TimbPrize.sol\":13242:13279  ALPHABET[segmentDigitCounter[i] % 36] */\n      dup2\n      mload\n      dup2\n      lt\n      tag_362\n      jumpi\n      tag_362\n      tag_363\n      jump\t// in\n    tag_362:\n      0x20\n      add\n      add\n      mload\n      0xf8\n      shr\n      0xf8\n      shl\n        /* \"/contracts/TimbPrize.sol\":13228:13234  result */\n      dup4\n        /* \"/contracts/TimbPrize.sol\":13235:13238  idx */\n      dup3\n        /* \"/contracts/TimbPrize.sol\":13228:13239  result[idx] */\n      0xff\n      and\n      dup2\n      mload\n      dup2\n      lt\n      tag_365\n      jumpi\n      tag_365\n      tag_363\n      jump\t// in\n    tag_365:\n      0x20\n      add\n      add\n        /* \"/contracts/TimbPrize.sol\":13228:13279  result[idx] = ALPHABET[segmentDigitCounter[i] % 36] */\n      swap1\n      not(sub(shl(0xf8, 0x01), 0x01))\n      and\n      swap1\n      dup2\n      0x00\n      byte\n      swap1\n      mstore8\n      pop\n        /* \"/contracts/TimbPrize.sol\":13154:13571  if (i < currentSegment) {... */\n      jump(tag_373)\n    tag_358:\n        /* \"/contracts/TimbPrize.sol\":13309:13323  currentSegment */\n      sload(0x0b)\n        /* \"/contracts/TimbPrize.sol\":13304:13305  i */\n      dup3\n        /* \"/contracts/TimbPrize.sol\":13304:13323  i == currentSegment */\n      sub\n        /* \"/contracts/TimbPrize.sol\":13300:13571  if (i == currentSegment) {... */\n      tag_367\n      jumpi\n        /* \"/contracts/TimbPrize.sol\":13411:13419  ALPHABET */\n      mload(0x40)\n      dup1\n      0x60\n      add\n      0x40\n      mstore\n      dup1\n      0x24\n      dup2\n      mstore\n      0x20\n      add\n      data_d1b12de380b5f3a30ba38a23a69e5703e0569d4a1fc4ac869b5f2bb883f9bcc1\n      0x24\n      swap2\n      codecopy\n        /* \"/contracts/TimbPrize.sol\":13420:13442  segmentDigitCounter[i] */\n      0x00\n      dup4\n      dup2\n      mstore\n        /* \"/contracts/TimbPrize.sol\":13420:13439  segmentDigitCounter */\n      0x07\n        /* \"/contracts/TimbPrize.sol\":13420:13442  segmentDigitCounter[i] */\n      0x20\n      mstore\n      0x40\n      swap1\n      keccak256\n      sload\n        /* \"/contracts/TimbPrize.sol\":13420:13447  segmentDigitCounter[i] % 36 */\n      tag_359\n      swap1\n        /* \"/contracts/TimbPrize.sol\":13445:13447  36 */\n      0x24\n      swap1\n        /* \"/contracts/TimbPrize.sol\":13420:13447  segmentDigitCounter[i] % 36 */\n      tag_360\n      jump\t// in\n        /* \"/contracts/TimbPrize.sol\":13300:13571  if (i == currentSegment) {... */\n    tag_367:\n        /* \"/contracts/TimbPrize.sol\":13552:13556  0x00 */\n      0x00\n        /* \"/contracts/TimbPrize.sol\":13538:13556  result[idx] = 0x00 */\n      0xf8\n      shl\n        /* \"/contracts/TimbPrize.sol\":13538:13544  result */\n      dup4\n        /* \"/contracts/TimbPrize.sol\":13545:13548  idx */\n      dup3\n        /* \"/contracts/TimbPrize.sol\":13538:13549  result[idx] */\n      0xff\n      and\n      dup2\n      mload\n      dup2\n      lt\n      tag_375\n      jumpi\n      tag_375\n      tag_363\n      jump\t// in\n    tag_375:\n      0x20\n      add\n      add\n        /* \"/contracts/TimbPrize.sol\":13538:13556  result[idx] = 0x00 */\n      swap1\n      not(sub(shl(0xf8, 0x01), 0x01))\n      and\n      swap1\n      dup2\n      0x00\n      byte\n      swap1\n      mstore8\n      pop\n        /* \"/contracts/TimbPrize.sol\":13300:13571  if (i == currentSegment) {... */\n    tag_373:\n      pop\n        /* \"/contracts/TimbPrize.sol\":13097:13100  i++ */\n      dup1\n      tag_376\n      dup2\n      tag_342\n      jump\t// in\n    tag_376:\n      swap2\n      pop\n      pop\n        /* \"/contracts/TimbPrize.sol\":13052:13581  for (uint256 i = 1; i <= SEGMENTS_PER_ROUND; i++) {... */\n      jump(tag_353)\n    tag_354:\n      pop\n        /* \"/contracts/TimbPrize.sol\":13599:13620  bytes6(bytes(result)) */\n      tag_377\n        /* \"/contracts/TimbPrize.sol\":13612:13618  result */\n      dup2\n        /* \"/contracts/TimbPrize.sol\":13599:13620  bytes6(bytes(result)) */\n      tag_378\n      jump\t// in\n    tag_377:\n        /* \"/contracts/TimbPrize.sol\":13590:13620  window = bytes6(bytes(result)) */\n      swap2\n      pop\n        /* \"/contracts/TimbPrize.sol\":12998:13627  {... */\n      pop\n        /* \"/contracts/TimbPrize.sol\":12934:13627  function getCurrentWindow() public view returns (bytes6 window) {... */\n      swap1\n      jump\t// out\n        /* \"/contracts/TimbPrize.sol\":22733:22984  function addToPot() external payable {... */\n    tag_106:\n        /* \"/contracts/TimbPrize.sol\":22784:22793  msg.value */\n      callvalue\n        /* \"/contracts/TimbPrize.sol\":22797:22798  0 */\n      0x00\n        /* \"/contracts/TimbPrize.sol\":22784:22798  msg.value == 0 */\n      sub\n        /* \"/contracts/TimbPrize.sol\":22780:22819  if (msg.value == 0) revert ZeroAmount() */\n      tag_380\n      jumpi\n        /* \"/contracts/TimbPrize.sol\":22807:22819  ZeroAmount() */\n      mload(0x40)\n      shl(0xe0, 0x1f2a2005)\n      dup2\n      mstore\n      0x04\n      add\n      mload(0x40)\n      dup1\n      swap2\n      sub\n      swap1\n      revert\n        /* \"/contracts/TimbPrize.sol\":22780:22819  if (msg.value == 0) revert ZeroAmount() */\n    tag_380:\n        /* \"/contracts/TimbPrize.sol\":22858:22867  msg.value */\n      callvalue\n        /* \"/contracts/TimbPrize.sol\":22829:22854  currentAccumulatedRewards */\n      0x0e\n      0x00\n        /* \"/contracts/TimbPrize.sol\":22829:22867  currentAccumulatedRewards += msg.value */\n      dup3\n      dup3\n      sload\n      tag_381\n      swap2\n      swap1\n      tag_382\n      jump\t// in\n    tag_381:\n      swap1\n      swap2\n      sstore\n      pop\n      pop\n        /* \"/contracts/TimbPrize.sol\":22890:22901  prizeEscrow */\n      sload(0x01)\n        /* \"/contracts/TimbPrize.sol\":22877:22930  IPrizeEscrow(prizeEscrow).deposit{value: msg.value}() */\n      0x40\n      dup1\n      mload\n      shl(0xe4, 0x0d0e30db)\n      dup2\n      mstore\n      swap1\n      mload\n      sub(shl(0xa0, 0x01), 0x01)\n        /* \"/contracts/TimbPrize.sol\":22890:22901  prizeEscrow */\n      swap1\n      swap3\n      and\n      swap2\n        /* \"/contracts/TimbPrize.sol\":22877:22910  IPrizeEscrow(prizeEscrow).deposit */\n      0xd0e30db0\n      swap2\n        /* \"/contracts/TimbPrize.sol\":22918:22927  msg.value */\n      callvalue\n      swap2\n        /* \"/contracts/TimbPrize.sol\":22877:22930  IPrizeEscrow(prizeEscrow).deposit{value: msg.value}() */\n      0x04\n      dup1\n      dup4\n      add\n      swap3\n        /* \"/contracts/TimbPrize.sol\":22890:22901  prizeEscrow */\n      0x00\n      swap3\n        /* \"/contracts/TimbPrize.sol\":22877:22930  IPrizeEscrow(prizeEscrow).deposit{value: msg.value}() */\n      swap2\n      swap1\n      dup3\n      swap1\n      sub\n      add\n      dup2\n        /* \"/contracts/TimbPrize.sol\":22918:22927  msg.value */\n      dup6\n        /* \"/contracts/TimbPrize.sol\":22890:22901  prizeEscrow */\n      dup9\n        /* \"/contracts/TimbPrize.sol\":22877:22930  IPrizeEscrow(prizeEscrow).deposit{value: msg.value}() */\n      dup1\n      extcodesize\n      iszero\n      dup1\n      iszero\n      tag_383\n      jumpi\n      0x00\n      dup1\n      revert\n    tag_383:\n      pop\n      gas\n      call\n      iszero\n      dup1\n      iszero\n      tag_385\n      jumpi\n      returndatasize\n      0x00\n      dup1\n      returndatacopy\n      revert(0x00, returndatasize)\n    tag_385:\n      pop\n      pop\n        /* \"/contracts/TimbPrize.sol\":22945:22977  PotFunded(msg.value, msg.sender) */\n      mload(0x40)\n        /* \"/contracts/TimbPrize.sol\":22955:22964  msg.value */\n      callvalue\n        /* \"#utility.yul\":2457:2482   */\n      dup2\n      mstore\n        /* \"/contracts/TimbPrize.sol\":22966:22976  msg.sender */\n      caller\n      swap4\n      pop\n        /* \"/contracts/TimbPrize.sol\":22945:22977  PotFunded(msg.value, msg.sender) */\n      0xf0d496561fe25891ca8568b6877b038238629d8dbe5777373589bece931dc172\n      swap3\n      pop\n        /* \"#utility.yul\":2445:2447   */\n      0x20\n        /* \"#utility.yul\":2430:2448   */\n      add\n      swap1\n      pop\n        /* \"/contracts/TimbPrize.sol\":22945:22977  PotFunded(msg.value, msg.sender) */\n    tag_386:\n      mload(0x40)\n      dup1\n      swap2\n      sub\n      swap1\n      log2\n        /* \"/contracts/TimbPrize.sol\":22733:22984  function addToPot() external payable {... */\n      jump\t// out\n        /* \"/contracts/TimbPrize.sol\":26106:26306  function setWinnersPerRound(uint256 _count) external onlyOwner {... */\n    tag_114:\n        /* \"@openzeppelin/contracts/access/Ownable.sol\":1531:1544  _checkOwner() */\n      tag_388\n        /* \"@openzeppelin/contracts/access/Ownable.sol\":1531:1542  _checkOwner */\n      tag_324\n        /* \"@openzeppelin/contracts/access/Ownable.sol\":1531:1544  _checkOwner() */\n      jump\t// in\n    tag_388:\n        /* \"/contracts/TimbPrize.sol\":26183:26189  _count */\n      dup1\n        /* \"/contracts/TimbPrize.sol\":26193:26194  0 */\n      0x00\n        /* \"/contracts/TimbPrize.sol\":26183:26194  _count == 0 */\n      sub\n        /* \"/contracts/TimbPrize.sol\":26179:26224  if (_count == 0) revert InvalidWinnersCount() */\n      tag_390\n      jumpi\n        /* \"/contracts/TimbPrize.sol\":26203:26224  InvalidWinnersCount() */\n      mload(0x40)\n      shl(0xe1, 0x40250f01)\n      dup2\n      mstore\n      0x04\n      add\n      mload(0x40)\n      dup1\n      swap2\n      sub\n      swap1\n      revert\n        /* \"/contracts/TimbPrize.sol\":26179:26224  if (_count == 0) revert InvalidWinnersCount() */\n    tag_390:\n        /* \"/contracts/TimbPrize.sol\":26234:26249  winnersPerRound */\n      0x10\n        /* \"/contracts/TimbPrize.sol\":26234:26258  winnersPerRound = _count */\n      dup2\n      swap1\n      sstore\n        /* \"/contracts/TimbPrize.sol\":26273:26299  WinnersPerRoundSet(_count) */\n      mload(0x40)\n        /* \"#utility.yul\":2457:2482   */\n      dup2\n      dup2\n      mstore\n        /* \"/contracts/TimbPrize.sol\":26273:26299  WinnersPerRoundSet(_count) */\n      0x1e64ff98418e31d486498b471741cc3ff92302fa146e6e124e3025186cfab465\n      swap1\n        /* \"#utility.yul\":2445:2447   */\n      0x20\n        /* \"#utility.yul\":2430:2448   */\n      add\n        /* \"/contracts/TimbPrize.sol\":26273:26299  WinnersPerRoundSet(_count) */\n    tag_391:\n      mload(0x40)\n      dup1\n      swap2\n      sub\n      swap1\n      log1\n        /* \"/contracts/TimbPrize.sol\":26106:26306  function setWinnersPerRound(uint256 _count) external onlyOwner {... */\n      pop\n      jump\t// out\n        /* \"/contracts/TimbPrize.sol\":4069:4150  uint256 public constant SEGMENT_DURATION = INTERACTION_WINDOW + SETTLEMENT_WINDOW */\n    tag_117:\n        /* \"/contracts/TimbPrize.sol\":4112:4150  INTERACTION_WINDOW + SETTLEMENT_WINDOW */\n      tag_392\n        /* \"/contracts/TimbPrize.sol\":4013:4023  15 seconds */\n      0x0f\n        /* \"/contracts/TimbPrize.sol\":3892:3915  59 minutes + 45 seconds */\n      0x0e01\n        /* \"/contracts/TimbPrize.sol\":4112:4150  INTERACTION_WINDOW + SETTLEMENT_WINDOW */\n      tag_382\n      jump\t// in\n    tag_392:\n        /* \"/contracts/TimbPrize.sol\":4069:4150  uint256 public constant SEGMENT_DURATION = INTERACTION_WINDOW + SETTLEMENT_WINDOW */\n      dup2\n      jump\t// out\n        /* \"/contracts/TimbPrize.sol\":23367:24340  function getRoundState()... */\n    tag_122:\n        /* \"/contracts/TimbPrize.sol\":23452:23465  uint256 round */\n      0x00\n        /* \"/contracts/TimbPrize.sol\":23479:23494  uint256 segment */\n      dup1\n        /* \"/contracts/TimbPrize.sol\":23508:23528  uint256 segmentStart */\n      0x00\n        /* \"/contracts/TimbPrize.sol\":23542:23557  uint256 counter */\n      dup1\n        /* \"/contracts/TimbPrize.sol\":23571:23592  bytes6  currentWindow */\n      0x00\n        /* \"/contracts/TimbPrize.sol\":23606:23617  uint256 pot */\n      dup1\n        /* \"/contracts/TimbPrize.sol\":23631:23652  uint256 unclaimedPool */\n      0x00\n        /* \"/contracts/TimbPrize.sol\":23666:23686  bool    inSettlement */\n      dup1\n        /* \"/contracts/TimbPrize.sol\":23700:23731  uint256[6] memory digitCounters */\n      tag_393\n      tag_394\n      jump\t// in\n    tag_393:\n        /* \"/contracts/TimbPrize.sol\":23745:23774  bool[6]    memory digitLocked */\n      tag_395\n      tag_394\n      jump\t// in\n    tag_395:\n        /* \"/contracts/TimbPrize.sol\":23815:23827  currentRound */\n      sload(0x0a)\n        /* \"/contracts/TimbPrize.sol\":23799:23827  round         = currentRound */\n      swap10\n      pop\n        /* \"/contracts/TimbPrize.sol\":23853:23867  currentSegment */\n      sload(0x0b)\n        /* \"/contracts/TimbPrize.sol\":23837:23867  segment       = currentSegment */\n      swap9\n      pop\n        /* \"/contracts/TimbPrize.sol\":23893:23909  segmentStartTime */\n      sload(0x0c)\n        /* \"/contracts/TimbPrize.sol\":23877:23909  segmentStart  = segmentStartTime */\n      swap8\n      pop\n        /* \"/contracts/TimbPrize.sol\":23935:23950  positionCounter */\n      sload(0x06)\n        /* \"/contracts/TimbPrize.sol\":23919:23950  counter       = positionCounter */\n      swap7\n      pop\n        /* \"/contracts/TimbPrize.sol\":23976:23994  getCurrentWindow() */\n      tag_398\n        /* \"/contracts/TimbPrize.sol\":23976:23992  getCurrentWindow */\n      tag_102\n        /* \"/contracts/TimbPrize.sol\":23976:23994  getCurrentWindow() */\n      jump\t// in\n    tag_398:\n        /* \"/contracts/TimbPrize.sol\":23960:23994  currentWindow = getCurrentWindow() */\n      swap6\n      pop\n        /* \"/contracts/TimbPrize.sol\":24020:24045  currentAccumulatedRewards */\n      sload(0x0e)\n        /* \"/contracts/TimbPrize.sol\":24004:24045  pot           = currentAccumulatedRewards */\n      swap5\n      pop\n        /* \"/contracts/TimbPrize.sol\":24071:24097  gameUnclaimed_winningsPool */\n      sload(0x0f)\n        /* \"/contracts/TimbPrize.sol\":24055:24097  unclaimedPool = gameUnclaimed_winningsPool */\n      swap4\n      pop\n        /* \"/contracts/TimbPrize.sol\":24123:24146  _isInSettlementWindow() */\n      tag_399\n        /* \"/contracts/TimbPrize.sol\":24123:24144  _isInSettlementWindow */\n      tag_339\n        /* \"/contracts/TimbPrize.sol\":24123:24146  _isInSettlementWindow() */\n      jump\t// in\n    tag_399:\n        /* \"/contracts/TimbPrize.sol\":24107:24146  inSettlement  = _isInSettlementWindow() */\n      swap3\n      pop\n        /* \"/contracts/TimbPrize.sol\":24162:24171  uint256 i */\n      0x00\n        /* \"/contracts/TimbPrize.sol\":24157:24334  for (uint256 i = 0; i < SEGMENTS_PER_ROUND; i++) {... */\n    tag_400:\n        /* \"/contracts/TimbPrize.sol\":4238:4239  6 */\n      0x06\n        /* \"/contracts/TimbPrize.sol\":24177:24178  i */\n      dup2\n        /* \"/contracts/TimbPrize.sol\":24177:24199  i < SEGMENTS_PER_ROUND */\n      lt\n        /* \"/contracts/TimbPrize.sol\":24157:24334  for (uint256 i = 0; i < SEGMENTS_PER_ROUND; i++) {... */\n      iszero\n      tag_401\n      jumpi\n        /* \"/contracts/TimbPrize.sol\":24239:24258  segmentDigitCounter */\n      0x07\n        /* \"/contracts/TimbPrize.sol\":24239:24265  segmentDigitCounter[i + 1] */\n      0x00\n        /* \"/contracts/TimbPrize.sol\":24259:24264  i + 1 */\n      tag_403\n        /* \"/contracts/TimbPrize.sol\":24259:24260  i */\n      dup4\n        /* \"/contracts/TimbPrize.sol\":24263:24264  1 */\n      0x01\n        /* \"/contracts/TimbPrize.sol\":24259:24264  i + 1 */\n      tag_382\n      jump\t// in\n    tag_403:\n        /* \"/contracts/TimbPrize.sol\":24239:24265  segmentDigitCounter[i + 1] */\n      dup2\n      mstore\n      0x20\n      add\n      swap1\n      dup2\n      mstore\n      0x20\n      add\n      0x00\n      keccak256\n      sload\n        /* \"/contracts/TimbPrize.sol\":24220:24233  digitCounters */\n      dup4\n        /* \"/contracts/TimbPrize.sol\":24234:24235  i */\n      dup3\n        /* \"/contracts/TimbPrize.sol\":24220:24236  digitCounters[i] */\n      0x06\n      dup2\n      lt\n      tag_405\n      jumpi\n      tag_405\n      tag_363\n      jump\t// in\n    tag_405:\n      0x20\n      mul\n      add\n        /* \"/contracts/TimbPrize.sol\":24220:24265  digitCounters[i] = segmentDigitCounter[i + 1] */\n      mstore\n        /* \"/contracts/TimbPrize.sol\":24298:24316  segmentDigitLocked */\n      0x08\n        /* \"/contracts/TimbPrize.sol\":24298:24323  segmentDigitLocked[i + 1] */\n      0x00\n        /* \"/contracts/TimbPrize.sol\":24317:24322  i + 1 */\n      tag_406\n        /* \"/contracts/TimbPrize.sol\":24317:24318  i */\n      dup4\n        /* \"/contracts/TimbPrize.sol\":24321:24322  1 */\n      0x01\n        /* \"/contracts/TimbPrize.sol\":24317:24322  i + 1 */\n      tag_382\n      jump\t// in\n    tag_406:\n        /* \"/contracts/TimbPrize.sol\":24298:24323  segmentDigitLocked[i + 1] */\n      dup2\n      mstore\n      0x20\n      dup2\n      add\n      swap2\n      swap1\n      swap2\n      mstore\n      0x40\n      add\n      0x00\n      keccak256\n      sload\n      0xff\n      and\n        /* \"/contracts/TimbPrize.sol\":24279:24290  digitLocked */\n      dup3\n        /* \"/contracts/TimbPrize.sol\":24291:24292  i */\n      dup3\n        /* \"/contracts/TimbPrize.sol\":24279:24293  digitLocked[i] */\n      0x06\n      dup2\n      lt\n      tag_408\n      jumpi\n      tag_408\n      tag_363\n      jump\t// in\n    tag_408:\n        /* \"/contracts/TimbPrize.sol\":24279:24323  digitLocked[i]   = segmentDigitLocked[i + 1] */\n      swap2\n      iszero\n      iszero\n        /* \"/contracts/TimbPrize.sol\":24279:24293  digitLocked[i] */\n      0x20\n      swap1\n      swap3\n      mul\n      add\n        /* \"/contracts/TimbPrize.sol\":24279:24323  digitLocked[i]   = segmentDigitLocked[i + 1] */\n      mstore\n        /* \"/contracts/TimbPrize.sol\":24201:24204  i++ */\n      0x01\n      add\n        /* \"/contracts/TimbPrize.sol\":24157:24334  for (uint256 i = 0; i < SEGMENTS_PER_ROUND; i++) {... */\n      jump(tag_400)\n    tag_401:\n      pop\n        /* \"/contracts/TimbPrize.sol\":23367:24340  function getRoundState()... */\n      swap1\n      swap2\n      swap3\n      swap4\n      swap5\n      swap6\n      swap7\n      swap8\n      swap9\n      swap10\n      jump\t// out\n        /* \"/contracts/TimbPrize.sol\":26312:26491  function setProtocolCutBps(uint256 _bps) external onlyOwner {... */\n    tag_145:\n        /* \"@openzeppelin/contracts/access/Ownable.sol\":1531:1544  _checkOwner() */\n      tag_410\n        /* \"@openzeppelin/contracts/access/Ownable.sol\":1531:1542  _checkOwner */\n      tag_324\n        /* \"@openzeppelin/contracts/access/Ownable.sol\":1531:1544  _checkOwner() */\n      jump\t// in\n    tag_410:\n        /* \"/contracts/TimbPrize.sol\":26393:26397  1000 */\n      0x03e8\n        /* \"/contracts/TimbPrize.sol\":26386:26390  _bps */\n      dup2\n        /* \"/contracts/TimbPrize.sol\":26386:26397  _bps > 1000 */\n      gt\n        /* \"/contracts/TimbPrize.sol\":26382:26418  if (_bps > 1000) revert ZeroAmount() */\n      iszero\n      tag_412\n      jumpi\n        /* \"/contracts/TimbPrize.sol\":26406:26418  ZeroAmount() */\n      mload(0x40)\n      shl(0xe0, 0x1f2a2005)\n      dup2\n      mstore\n      0x04\n      add\n      mload(0x40)\n      dup1\n      swap2\n      sub\n      swap1\n      revert\n        /* \"/contracts/TimbPrize.sol\":26382:26418  if (_bps > 1000) revert ZeroAmount() */\n    tag_412:\n        /* \"/contracts/TimbPrize.sol\":26428:26442  protocolCutBps */\n      0x11\n        /* \"/contracts/TimbPrize.sol\":26428:26449  protocolCutBps = _bps */\n      dup2\n      swap1\n      sstore\n        /* \"/contracts/TimbPrize.sol\":26464:26484  ProtocolCutSet(_bps) */\n      mload(0x40)\n        /* \"#utility.yul\":2457:2482   */\n      dup2\n      dup2\n      mstore\n        /* \"/contracts/TimbPrize.sol\":26464:26484  ProtocolCutSet(_bps) */\n      0x21b2cfef155acf409755ec06f4f701c8d13a5b6339fe8d1ee89afb57318f7084\n      swap1\n        /* \"#utility.yul\":2445:2447   */\n      0x20\n        /* \"#utility.yul\":2430:2448   */\n      add\n        /* \"/contracts/TimbPrize.sol\":26464:26484  ProtocolCutSet(_bps) */\n      tag_391\n        /* \"#utility.yul\":2311:2488   */\n      jump\n        /* \"/contracts/TimbPrize.sol\":14178:15119  function settleSegment()... */\n    tag_148:\n        /* \"@openzeppelin/contracts/utils/ReentrancyGuard.sol\":3023:3044  _nonReentrantBefore() */\n      tag_415\n        /* \"@openzeppelin/contracts/utils/ReentrancyGuard.sol\":3023:3042  _nonReentrantBefore */\n      tag_332\n        /* \"@openzeppelin/contracts/utils/ReentrancyGuard.sol\":3023:3044  _nonReentrantBefore() */\n      jump\t// in\n    tag_415:\n        /* \"/contracts/TimbPrize.sol\":9569:9576  settler */\n      and(sub(shl(0xa0, 0x01), 0x01), sload(0x05))\n        /* \"/contracts/TimbPrize.sol\":9555:9565  msg.sender */\n      caller\n        /* \"/contracts/TimbPrize.sol\":9555:9576  msg.sender != settler */\n      eq\n        /* \"/contracts/TimbPrize.sol\":9551:9597  if (msg.sender != settler) revert NotSettler() */\n      tag_417\n      jumpi\n        /* \"/contracts/TimbPrize.sol\":9585:9597  NotSettler() */\n      mload(0x40)\n      shl(0xe0, 0x05b94333)\n      dup2\n      mstore\n      0x04\n      add\n      mload(0x40)\n      dup1\n      swap2\n      sub\n      swap1\n      revert\n        /* \"/contracts/TimbPrize.sol\":9551:9597  if (msg.sender != settler) revert NotSettler() */\n    tag_417:\n        /* \"/contracts/TimbPrize.sol\":9763:9774  gameStarted */\n      and(0xff, sload(0x0d))\n        /* \"/contracts/TimbPrize.sol\":9758:9799  if (!gameStarted) revert GameNotStarted() */\n      tag_419\n      jumpi\n        /* \"/contracts/TimbPrize.sol\":9783:9799  GameNotStarted() */\n      mload(0x40)\n      shl(0xe0, 0x3a5f7b57)\n      dup2\n      mstore\n      0x04\n      add\n      mload(0x40)\n      dup1\n      swap2\n      sub\n      swap1\n      revert\n        /* \"/contracts/TimbPrize.sol\":9758:9799  if (!gameStarted) revert GameNotStarted() */\n    tag_419:\n        /* \"/contracts/TimbPrize.sol\":14303:14319  settlementPaused */\n      sload(0x18)\n      0x0100\n      swap1\n      div\n      0xff\n      and\n        /* \"/contracts/TimbPrize.sol\":14299:14346  if (settlementPaused) revert SettlementPaused() */\n      iszero\n      tag_421\n      jumpi\n        /* \"/contracts/TimbPrize.sol\":14328:14346  SettlementPaused() */\n      mload(0x40)\n      shl(0xe0, 0x4c211ccd)\n      dup2\n      mstore\n      0x04\n      add\n      mload(0x40)\n      dup1\n      swap2\n      sub\n      swap1\n      revert\n        /* \"/contracts/TimbPrize.sol\":14299:14346  if (settlementPaused) revert SettlementPaused() */\n    tag_421:\n        /* \"/contracts/TimbPrize.sol\":14357:14372  uint256 elapsed */\n      0x00\n        /* \"/contracts/TimbPrize.sol\":14393:14409  segmentStartTime */\n      sload(0x0c)\n        /* \"/contracts/TimbPrize.sol\":14375:14390  block.timestamp */\n      timestamp\n        /* \"/contracts/TimbPrize.sol\":14375:14409  block.timestamp - segmentStartTime */\n      tag_422\n      swap2\n      swap1\n      tag_357\n      jump\t// in\n    tag_422:\n        /* \"/contracts/TimbPrize.sol\":14357:14409  uint256 elapsed = block.timestamp - segmentStartTime */\n      swap1\n      pop\n        /* \"/contracts/TimbPrize.sol\":3892:3915  59 minutes + 45 seconds */\n      0x0e01\n        /* \"/contracts/TimbPrize.sol\":14423:14430  elapsed */\n      dup2\n        /* \"/contracts/TimbPrize.sol\":14423:14451  elapsed < INTERACTION_WINDOW */\n      lt\n        /* \"/contracts/TimbPrize.sol\":14419:14532  if (elapsed < INTERACTION_WINDOW) {... */\n      iszero\n      tag_423\n      jumpi\n        /* \"/contracts/TimbPrize.sol\":14474:14521  SegmentNotComplete(elapsed, INTERACTION_WINDOW) */\n      mload(0x40)\n      shl(0xe1, 0x2c690a37)\n      dup2\n      mstore\n      0x04\n      dup2\n      add\n        /* \"#utility.yul\":5591:5616   */\n      dup3\n      swap1\n      mstore\n        /* \"/contracts/TimbPrize.sol\":3892:3915  59 minutes + 45 seconds */\n      0x0e01\n        /* \"#utility.yul\":5632:5650   */\n      0x24\n      dup3\n      add\n        /* \"#utility.yul\":5625:5659   */\n      mstore\n        /* \"#utility.yul\":5564:5582   */\n      0x44\n      add\n        /* \"/contracts/TimbPrize.sol\":14474:14521  SegmentNotComplete(elapsed, INTERACTION_WINDOW) */\n    tag_424:\n      mload(0x40)\n      dup1\n      swap2\n      sub\n      swap1\n      revert\n        /* \"/contracts/TimbPrize.sol\":14419:14532  if (elapsed < INTERACTION_WINDOW) {... */\n    tag_423:\n        /* \"/contracts/TimbPrize.sol\":4238:4239  6 */\n      0x06\n        /* \"/contracts/TimbPrize.sol\":14546:14560  currentSegment */\n      sload(0x0b)\n        /* \"/contracts/TimbPrize.sol\":14546:14581  currentSegment < SEGMENTS_PER_ROUND */\n      lt\n        /* \"/contracts/TimbPrize.sol\":14542:15113  if (currentSegment < SEGMENTS_PER_ROUND) {... */\n      iszero\n      tag_425\n      jumpi\n        /* \"/contracts/TimbPrize.sol\":14670:14684  currentSegment */\n      0x0b\n      dup1\n      sload\n        /* \"/contracts/TimbPrize.sol\":14651:14685  segmentDigitLocked[currentSegment] */\n      0x00\n      swap1\n      dup2\n      mstore\n        /* \"/contracts/TimbPrize.sol\":14651:14669  segmentDigitLocked */\n      0x08\n        /* \"/contracts/TimbPrize.sol\":14651:14685  segmentDigitLocked[currentSegment] */\n      0x20\n      mstore\n      0x40\n      dup2\n      keccak256\n        /* \"/contracts/TimbPrize.sol\":14651:14692  segmentDigitLocked[currentSegment] = true */\n      dup1\n      sload\n      not(0xff)\n      and\n        /* \"/contracts/TimbPrize.sol\":14688:14692  true */\n      0x01\n        /* \"/contracts/TimbPrize.sol\":14651:14692  segmentDigitLocked[currentSegment] = true */\n      or\n      swap1\n      sstore\n        /* \"/contracts/TimbPrize.sol\":14706:14722  currentSegment++ */\n      dup2\n      sload\n      swap2\n        /* \"/contracts/TimbPrize.sol\":14670:14684  currentSegment */\n      swap1\n        /* \"/contracts/TimbPrize.sol\":14706:14722  currentSegment++ */\n      tag_426\n      dup4\n      tag_342\n      jump\t// in\n    tag_426:\n      swap1\n      swap2\n      sstore\n      pop\n      pop\n        /* \"/contracts/TimbPrize.sol\":14755:14770  block.timestamp */\n      timestamp\n        /* \"/contracts/TimbPrize.sol\":14736:14752  segmentStartTime */\n      0x0c\n        /* \"/contracts/TimbPrize.sol\":14736:14770  segmentStartTime = block.timestamp */\n      dup2\n      swap1\n      sstore\n        /* \"/contracts/TimbPrize.sol\":14847:14861  currentSegment */\n      0x0b\n      dup1\n      sload\n        /* \"/contracts/TimbPrize.sol\":14865:14866  0 */\n      0x00\n        /* \"/contracts/TimbPrize.sol\":14827:14862  segmentDigitCounter[currentSegment] */\n      swap1\n      dup2\n      mstore\n        /* \"/contracts/TimbPrize.sol\":14827:14846  segmentDigitCounter */\n      0x07\n        /* \"/contracts/TimbPrize.sol\":14827:14862  segmentDigitCounter[currentSegment] */\n      0x20\n      mstore\n      0x40\n      dup1\n      dup3\n      keccak256\n        /* \"/contracts/TimbPrize.sol\":14827:14866  segmentDigitCounter[currentSegment] = 0 */\n      swap2\n      swap1\n      swap2\n      sstore\n        /* \"/contracts/TimbPrize.sol\":14901:14913  currentRound */\n      sload(0x0a)\n        /* \"/contracts/TimbPrize.sol\":14915:14929  currentSegment */\n      swap2\n      sload\n        /* \"/contracts/TimbPrize.sol\":14885:14947  SegmentAdvanced(currentRound, currentSegment, block.timestamp) */\n      swap1\n      mload\n        /* \"/contracts/TimbPrize.sol\":14901:14913  currentRound */\n      swap2\n      swap3\n        /* \"/contracts/TimbPrize.sol\":14885:14947  SegmentAdvanced(currentRound, currentSegment, block.timestamp) */\n      0xe9a2985393fa4bb459d73d85249df3b5923e70fb93b7b9c307e72359ab167587\n      swap3\n      tag_427\n      swap3\n        /* \"/contracts/TimbPrize.sol\":14915:14929  currentSegment */\n      swap2\n        /* \"/contracts/TimbPrize.sol\":14755:14770  block.timestamp */\n      swap1\n        /* \"#utility.yul\":5591:5616   */\n      swap2\n      dup3\n      mstore\n        /* \"#utility.yul\":5647:5649   */\n      0x20\n        /* \"#utility.yul\":5632:5650   */\n      dup3\n      add\n        /* \"#utility.yul\":5625:5659   */\n      mstore\n        /* \"#utility.yul\":5579:5581   */\n      0x40\n        /* \"#utility.yul\":5564:5582   */\n      add\n      swap1\n        /* \"#utility.yul\":5417:5665   */\n      jump\n        /* \"/contracts/TimbPrize.sol\":14885:14947  SegmentAdvanced(currentRound, currentSegment, block.timestamp) */\n    tag_427:\n      mload(0x40)\n      dup1\n      swap2\n      sub\n      swap1\n      log2\n        /* \"/contracts/TimbPrize.sol\":14542:15113  if (currentSegment < SEGMENTS_PER_ROUND) {... */\n      jump(tag_429)\n    tag_425:\n        /* \"/contracts/TimbPrize.sol\":15052:15066  currentSegment */\n      sload(0x0b)\n        /* \"/contracts/TimbPrize.sol\":15033:15067  segmentDigitLocked[currentSegment] */\n      0x00\n      swap1\n      dup2\n      mstore\n        /* \"/contracts/TimbPrize.sol\":15033:15051  segmentDigitLocked */\n      0x08\n        /* \"/contracts/TimbPrize.sol\":15033:15067  segmentDigitLocked[currentSegment] */\n      0x20\n      mstore\n      0x40\n      swap1\n      keccak256\n        /* \"/contracts/TimbPrize.sol\":15033:15074  segmentDigitLocked[currentSegment] = true */\n      dup1\n      sload\n      not(0xff)\n      and\n        /* \"/contracts/TimbPrize.sol\":15070:15074  true */\n      0x01\n        /* \"/contracts/TimbPrize.sol\":15033:15074  segmentDigitLocked[currentSegment] = true */\n      or\n      swap1\n      sstore\n        /* \"/contracts/TimbPrize.sol\":15088:15102  _settleRound() */\n      tag_429\n        /* \"/contracts/TimbPrize.sol\":15088:15100  _settleRound */\n      tag_430\n        /* \"/contracts/TimbPrize.sol\":15088:15102  _settleRound() */\n      jump\t// in\n    tag_429:\n        /* \"/contracts/TimbPrize.sol\":14289:15119  {... */\n      pop\n        /* \"@openzeppelin/contracts/utils/ReentrancyGuard.sol\":3065:3085  _nonReentrantAfter() */\n      tag_346\n        /* \"@openzeppelin/contracts/utils/ReentrancyGuard.sol\":2365:2366  1 */\n      0x01\n      0x00\n      dup1\n      mload\n      0x20\n      data_c8669cf8eaf883002b9f48e28846a8d408c9b58ea6613bace374265e43c9bc43\n      dup4\n      codecopy\n      dup2\n      mload\n      swap2\n      mstore\n        /* \"@openzeppelin/contracts/utils/ReentrancyGuard.sol\":3972:4034  _reentrancyGuardStorageSlot().getUint256Slot().value = ENTERED */\n      sstore\n        /* \"@openzeppelin/contracts/utils/ReentrancyGuard.sol\":3749:4041  function _nonReentrantBefore() private {... */\n      jump\n        /* \"/contracts/TimbPrize.sol\":25945:26100  function setPrizeEscrow(address _escrow) external onlyOwner {... */\n    tag_156:\n        /* \"@openzeppelin/contracts/access/Ownable.sol\":1531:1544  _checkOwner() */\n      tag_433\n        /* \"@openzeppelin/contracts/access/Ownable.sol\":1531:1542  _checkOwner */\n      tag_324\n        /* \"@openzeppelin/contracts/access/Ownable.sol\":1531:1544  _checkOwner() */\n      jump\t// in\n    tag_433:\n      sub(shl(0xa0, 0x01), 0x01)\n        /* \"/contracts/TimbPrize.sol\":26019:26040  _escrow == address(0) */\n      dup2\n      and\n        /* \"/contracts/TimbPrize.sol\":26015:26062  if (_escrow == address(0)) revert ZeroAddress() */\n      tag_435\n      jumpi\n        /* \"/contracts/TimbPrize.sol\":26049:26062  ZeroAddress() */\n      mload(0x40)\n      shl(0xe0, 0xd92e233d)\n      dup2\n      mstore\n      0x04\n      add\n      mload(0x40)\n      dup1\n      swap2\n      sub\n      swap1\n      revert\n        /* \"/contracts/TimbPrize.sol\":26015:26062  if (_escrow == address(0)) revert ZeroAddress() */\n    tag_435:\n        /* \"/contracts/TimbPrize.sol\":26072:26083  prizeEscrow */\n      0x01\n        /* \"/contracts/TimbPrize.sol\":26072:26093  prizeEscrow = _escrow */\n      dup1\n      sload\n      not(sub(shl(0xa0, 0x01), 0x01))\n      and\n      sub(shl(0xa0, 0x01), 0x01)\n      swap3\n      swap1\n      swap3\n      and\n      swap2\n      swap1\n      swap2\n      or\n      swap1\n      sstore\n        /* \"/contracts/TimbPrize.sol\":25945:26100  function setPrizeEscrow(address _escrow) external onlyOwner {... */\n      jump\t// out\n        /* \"/contracts/TimbPrize.sol\":4293:4371  uint256 public constant ROUND_DURATION = SEGMENT_DURATION * SEGMENTS_PER_ROUND */\n    tag_163:\n        /* \"/contracts/TimbPrize.sol\":4238:4239  6 */\n      0x06\n        /* \"/contracts/TimbPrize.sol\":4112:4150  INTERACTION_WINDOW + SETTLEMENT_WINDOW */\n      tag_436\n        /* \"/contracts/TimbPrize.sol\":4013:4023  15 seconds */\n      0x0f\n        /* \"/contracts/TimbPrize.sol\":3892:3915  59 minutes + 45 seconds */\n      0x0e01\n        /* \"/contracts/TimbPrize.sol\":4112:4150  INTERACTION_WINDOW + SETTLEMENT_WINDOW */\n      tag_382\n      jump\t// in\n    tag_436:\n        /* \"/contracts/TimbPrize.sol\":4334:4371  SEGMENT_DURATION * SEGMENTS_PER_ROUND */\n      tag_392\n      swap2\n      swap1\n      tag_438\n      jump\t// in\n        /* \"/contracts/TimbPrize.sol\":21288:22256  function claimWinnings(uint256 round)... */\n    tag_168:\n        /* \"@openzeppelin/contracts/utils/ReentrancyGuard.sol\":3023:3044  _nonReentrantBefore() */\n      tag_440\n        /* \"@openzeppelin/contracts/utils/ReentrancyGuard.sol\":3023:3042  _nonReentrantBefore */\n      tag_332\n        /* \"@openzeppelin/contracts/utils/ReentrancyGuard.sol\":3023:3044  _nonReentrantBefore() */\n      jump\t// in\n    tag_440:\n        /* \"/contracts/TimbPrize.sol\":9763:9774  gameStarted */\n      and(0xff, sload(0x0d))\n        /* \"/contracts/TimbPrize.sol\":9758:9799  if (!gameStarted) revert GameNotStarted() */\n      tag_442\n      jumpi\n        /* \"/contracts/TimbPrize.sol\":9783:9799  GameNotStarted() */\n      mload(0x40)\n      shl(0xe0, 0x3a5f7b57)\n      dup2\n      mstore\n      0x04\n      add\n      mload(0x40)\n      dup1\n      swap2\n      sub\n      swap1\n      revert\n        /* \"/contracts/TimbPrize.sol\":9758:9799  if (!gameStarted) revert GameNotStarted() */\n    tag_442:\n        /* \"/contracts/TimbPrize.sol\":21442:21443  0 */\n      0x00\n        /* \"/contracts/TimbPrize.sol\":21406:21431  roundWinningString[round] */\n      dup2\n      dup2\n      mstore\n        /* \"/contracts/TimbPrize.sol\":21406:21424  roundWinningString */\n      0x12\n        /* \"/contracts/TimbPrize.sol\":21406:21431  roundWinningString[round] */\n      0x20\n      mstore\n      0x40\n      swap1\n      keccak256\n      sload\n        /* \"/contracts/TimbPrize.sol\":21435:21444  bytes6(0) */\n      0xd0\n        /* \"/contracts/TimbPrize.sol\":21406:21431  roundWinningString[round] */\n      shl\n      not(sub(shl(0xd0, 0x01), 0x01))\n        /* \"/contracts/TimbPrize.sol\":21406:21444  roundWinningString[round] == bytes6(0) */\n      and\n        /* \"/contracts/TimbPrize.sol\":21402:21475  if (roundWinningString[round] == bytes6(0)) revert RoundNotSettled(round) */\n      tag_444\n      jumpi\n        /* \"/contracts/TimbPrize.sol\":21453:21475  RoundNotSettled(round) */\n      mload(0x40)\n      shl(0xe1, 0x668fee6f)\n      dup2\n      mstore\n      0x04\n      dup2\n      add\n        /* \"#utility.yul\":2457:2482   */\n      dup3\n      swap1\n      mstore\n        /* \"#utility.yul\":2430:2448   */\n      0x24\n      add\n        /* \"/contracts/TimbPrize.sol\":21453:21475  RoundNotSettled(round) */\n      tag_424\n        /* \"#utility.yul\":2311:2488   */\n      jump\n        /* \"/contracts/TimbPrize.sol\":21402:21475  if (roundWinningString[round] == bytes6(0)) revert RoundNotSettled(round) */\n    tag_444:\n        /* \"/contracts/TimbPrize.sol\":21489:21506  hasClaimed[round] */\n      0x00\n      dup2\n      dup2\n      mstore\n        /* \"/contracts/TimbPrize.sol\":21489:21499  hasClaimed */\n      0x17\n        /* \"/contracts/TimbPrize.sol\":21489:21506  hasClaimed[round] */\n      0x20\n      swap1\n      dup2\n      mstore\n      0x40\n      dup1\n      dup4\n      keccak256\n        /* \"/contracts/TimbPrize.sol\":21507:21517  msg.sender */\n      caller\n        /* \"/contracts/TimbPrize.sol\":21489:21518  hasClaimed[round][msg.sender] */\n      dup5\n      mstore\n      swap1\n      swap2\n      mstore\n      swap1\n      keccak256\n      sload\n      0xff\n      and\n        /* \"/contracts/TimbPrize.sol\":21485:21560  if (hasClaimed[round][msg.sender]) revert AlreadyClaimed(msg.sender, round) */\n      iszero\n      tag_446\n      jumpi\n        /* \"/contracts/TimbPrize.sol\":21527:21560  AlreadyClaimed(msg.sender, round) */\n      mload(0x40)\n      shl(0xe1, 0x732750ed)\n      dup2\n      mstore\n        /* \"/contracts/TimbPrize.sol\":21542:21552  msg.sender */\n      caller\n        /* \"/contracts/TimbPrize.sol\":21527:21560  AlreadyClaimed(msg.sender, round) */\n      0x04\n      dup3\n      add\n        /* \"#utility.yul\":7163:7214   */\n      mstore\n        /* \"#utility.yul\":7230:7248   */\n      0x24\n      dup2\n      add\n        /* \"#utility.yul\":7223:7257   */\n      dup3\n      swap1\n      mstore\n        /* \"#utility.yul\":7136:7154   */\n      0x44\n      add\n        /* \"/contracts/TimbPrize.sol\":21527:21560  AlreadyClaimed(msg.sender, round) */\n      tag_424\n        /* \"#utility.yul\":6989:7263   */\n      jump\n        /* \"/contracts/TimbPrize.sol\":21485:21560  if (hasClaimed[round][msg.sender]) revert AlreadyClaimed(msg.sender, round) */\n    tag_446:\n        /* \"/contracts/TimbPrize.sol\":21589:21616  round + CLAIM_WINDOW_ROUNDS */\n      tag_449\n        /* \"/contracts/TimbPrize.sol\":4488:4489  2 */\n      0x02\n        /* \"/contracts/TimbPrize.sol\":21589:21594  round */\n      dup3\n        /* \"/contracts/TimbPrize.sol\":21589:21616  round + CLAIM_WINDOW_ROUNDS */\n      tag_382\n      jump\t// in\n    tag_449:\n        /* \"/contracts/TimbPrize.sol\":21589:21620  round + CLAIM_WINDOW_ROUNDS + 1 */\n      tag_450\n      swap1\n        /* \"/contracts/TimbPrize.sol\":21619:21620  1 */\n      0x01\n        /* \"/contracts/TimbPrize.sol\":21589:21620  round + CLAIM_WINDOW_ROUNDS + 1 */\n      tag_382\n      jump\t// in\n    tag_450:\n        /* \"/contracts/TimbPrize.sol\":21574:21586  currentRound */\n      sload(0x0a)\n        /* \"/contracts/TimbPrize.sol\":21574:21620  currentRound > round + CLAIM_WINDOW_ROUNDS + 1 */\n      gt\n        /* \"/contracts/TimbPrize.sol\":21570:21654  if (currentRound > round + CLAIM_WINDOW_ROUNDS + 1) revert ClaimWindowExpired(round) */\n      iszero\n      tag_451\n      jumpi\n        /* \"/contracts/TimbPrize.sol\":21629:21654  ClaimWindowExpired(round) */\n      mload(0x40)\n      shl(0xe0, 0x55249329)\n      dup2\n      mstore\n      0x04\n      dup2\n      add\n        /* \"#utility.yul\":2457:2482   */\n      dup3\n      swap1\n      mstore\n        /* \"#utility.yul\":2430:2448   */\n      0x24\n      add\n        /* \"/contracts/TimbPrize.sol\":21629:21654  ClaimWindowExpired(round) */\n      tag_424\n        /* \"#utility.yul\":2311:2488   */\n      jump\n        /* \"/contracts/TimbPrize.sol\":21570:21654  if (currentRound > round + CLAIM_WINDOW_ROUNDS + 1) revert ClaimWindowExpired(round) */\n    tag_451:\n        /* \"/contracts/TimbPrize.sol\":21665:21678  bool isWinner */\n      0x00\n        /* \"/contracts/TimbPrize.sol\":21723:21742  roundWinners[round] */\n      dup2\n      dup2\n      mstore\n        /* \"/contracts/TimbPrize.sol\":21723:21735  roundWinners */\n      0x14\n        /* \"/contracts/TimbPrize.sol\":21723:21742  roundWinners[round] */\n      0x20\n      swap1\n      dup2\n      mstore\n      0x40\n      dup1\n      dup4\n      keccak256\n        /* \"/contracts/TimbPrize.sol\":21696:21742  address[] memory winners = roundWinners[round] */\n      dup1\n      sload\n      dup3\n      mload\n      dup2\n      dup6\n      mul\n      dup2\n      add\n      dup6\n      add\n      swap1\n      swap4\n      mstore\n      dup1\n      dup4\n      mstore\n        /* \"/contracts/TimbPrize.sol\":21665:21678  bool isWinner */\n      dup5\n      swap4\n        /* \"/contracts/TimbPrize.sol\":21696:21742  address[] memory winners = roundWinners[round] */\n      dup4\n      add\n        /* \"/contracts/TimbPrize.sol\":21723:21742  roundWinners[round] */\n      dup3\n        /* \"/contracts/TimbPrize.sol\":21696:21742  address[] memory winners = roundWinners[round] */\n      dup3\n      dup1\n      iszero\n      tag_453\n      jumpi\n      0x20\n      mul\n      dup3\n      add\n      swap2\n      swap1\n      0x00\n      mstore\n      keccak256(0x00, 0x20)\n      swap1\n    tag_454:\n      dup2\n      sload\n      sub(shl(0xa0, 0x01), 0x01)\n      and\n      dup2\n      mstore\n      0x01\n      swap1\n      swap2\n      add\n      swap1\n      0x20\n      add\n      dup1\n      dup4\n      gt\n      tag_454\n      jumpi\n    tag_453:\n      pop\n      pop\n      pop\n      pop\n      pop\n      swap1\n      pop\n        /* \"/contracts/TimbPrize.sol\":21757:21766  uint256 i */\n      0x00\n        /* \"/contracts/TimbPrize.sol\":21752:21878  for (uint256 i = 0; i < winners.length; i++) {... */\n    tag_455:\n        /* \"/contracts/TimbPrize.sol\":21776:21783  winners */\n      dup2\n        /* \"/contracts/TimbPrize.sol\":21776:21790  winners.length */\n      mload\n        /* \"/contracts/TimbPrize.sol\":21772:21773  i */\n      dup2\n        /* \"/contracts/TimbPrize.sol\":21772:21790  i < winners.length */\n      lt\n        /* \"/contracts/TimbPrize.sol\":21752:21878  for (uint256 i = 0; i < winners.length; i++) {... */\n      iszero\n      tag_456\n      jumpi\n        /* \"/contracts/TimbPrize.sol\":21829:21839  msg.sender */\n      caller\n      sub(shl(0xa0, 0x01), 0x01)\n        /* \"/contracts/TimbPrize.sol\":21815:21839  winners[i] == msg.sender */\n      and\n        /* \"/contracts/TimbPrize.sol\":21815:21822  winners */\n      dup3\n        /* \"/contracts/TimbPrize.sol\":21823:21824  i */\n      dup3\n        /* \"/contracts/TimbPrize.sol\":21815:21825  winners[i] */\n      dup2\n      mload\n      dup2\n      lt\n      tag_459\n      jumpi\n      tag_459\n      tag_363\n      jump\t// in\n    tag_459:\n      0x20\n      mul\n      0x20\n      add\n      add\n      mload\n      sub(shl(0xa0, 0x01), 0x01)\n        /* \"/contracts/TimbPrize.sol\":21815:21839  winners[i] == msg.sender */\n      and\n      sub\n        /* \"/contracts/TimbPrize.sol\":21811:21868  if (winners[i] == msg.sender) { isWinner = true; break; } */\n      tag_460\n      jumpi\n        /* \"/contracts/TimbPrize.sol\":21854:21858  true */\n      0x01\n        /* \"/contracts/TimbPrize.sol\":21843:21858  isWinner = true */\n      swap3\n      pop\n        /* \"/contracts/TimbPrize.sol\":21860:21865  break */\n      jump(tag_456)\n        /* \"/contracts/TimbPrize.sol\":21811:21868  if (winners[i] == msg.sender) { isWinner = true; break; } */\n    tag_460:\n        /* \"/contracts/TimbPrize.sol\":21792:21795  i++ */\n      0x01\n      add\n        /* \"/contracts/TimbPrize.sol\":21752:21878  for (uint256 i = 0; i < winners.length; i++) {... */\n      jump(tag_455)\n    tag_456:\n      pop\n        /* \"/contracts/TimbPrize.sol\":21892:21900  isWinner */\n      dup2\n        /* \"/contracts/TimbPrize.sol\":21887:21938  if (!isWinner) revert NotAWinner(msg.sender, round) */\n      tag_461\n      jumpi\n        /* \"/contracts/TimbPrize.sol\":21909:21938  NotAWinner(msg.sender, round) */\n      mload(0x40)\n      shl(0xe0, 0xefbeaf33)\n      dup2\n      mstore\n        /* \"/contracts/TimbPrize.sol\":21920:21930  msg.sender */\n      caller\n        /* \"/contracts/TimbPrize.sol\":21909:21938  NotAWinner(msg.sender, round) */\n      0x04\n      dup3\n      add\n        /* \"#utility.yul\":7163:7214   */\n      mstore\n        /* \"#utility.yul\":7230:7248   */\n      0x24\n      dup2\n      add\n        /* \"#utility.yul\":7223:7257   */\n      dup5\n      swap1\n      mstore\n        /* \"#utility.yul\":7136:7154   */\n      0x44\n      add\n        /* \"/contracts/TimbPrize.sol\":21909:21938  NotAWinner(msg.sender, round) */\n      tag_424\n        /* \"#utility.yul\":6989:7263   */\n      jump\n        /* \"/contracts/TimbPrize.sol\":21887:21938  if (!isWinner) revert NotAWinner(msg.sender, round) */\n    tag_461:\n        /* \"/contracts/TimbPrize.sol\":21949:21963  uint256 payout */\n      0x00\n        /* \"/contracts/TimbPrize.sol\":21966:21993  roundPerWinnerAmount[round] */\n      dup4\n      dup2\n      mstore\n        /* \"/contracts/TimbPrize.sol\":21966:21986  roundPerWinnerAmount */\n      0x15\n        /* \"/contracts/TimbPrize.sol\":21966:21993  roundPerWinnerAmount[round] */\n      0x20\n      mstore\n      0x40\n      dup2\n      keccak256\n      sload\n      swap1\n        /* \"/contracts/TimbPrize.sol\":22007:22018  payout == 0 */\n      dup2\n      swap1\n      sub\n        /* \"/contracts/TimbPrize.sol\":22003:22039  if (payout == 0) revert ZeroAmount() */\n      tag_463\n      jumpi\n        /* \"/contracts/TimbPrize.sol\":22027:22039  ZeroAmount() */\n      mload(0x40)\n      shl(0xe0, 0x1f2a2005)\n      dup2\n      mstore\n      0x04\n      add\n      mload(0x40)\n      dup1\n      swap2\n      sub\n      swap1\n      revert\n        /* \"/contracts/TimbPrize.sol\":22003:22039  if (payout == 0) revert ZeroAmount() */\n    tag_463:\n        /* \"/contracts/TimbPrize.sol\":22050:22067  hasClaimed[round] */\n      0x00\n      dup5\n      dup2\n      mstore\n        /* \"/contracts/TimbPrize.sol\":22050:22060  hasClaimed */\n      0x17\n        /* \"/contracts/TimbPrize.sol\":22050:22067  hasClaimed[round] */\n      0x20\n      swap1\n      dup2\n      mstore\n      0x40\n      dup1\n      dup4\n      keccak256\n        /* \"/contracts/TimbPrize.sol\":22068:22078  msg.sender */\n      caller\n        /* \"/contracts/TimbPrize.sol\":22050:22079  hasClaimed[round][msg.sender] */\n      dup5\n      mstore\n      swap1\n      swap2\n      mstore\n      dup2\n      keccak256\n        /* \"/contracts/TimbPrize.sol\":22050:22086  hasClaimed[round][msg.sender] = true */\n      dup1\n      sload\n      not(0xff)\n      and\n        /* \"/contracts/TimbPrize.sol\":22082:22086  true */\n      0x01\n        /* \"/contracts/TimbPrize.sol\":22050:22086  hasClaimed[round][msg.sender] = true */\n      or\n      swap1\n      sstore\n        /* \"/contracts/TimbPrize.sol\":22096:22122  gameUnclaimed_winningsPool */\n      0x0f\n        /* \"/contracts/TimbPrize.sol\":22096:22132  gameUnclaimed_winningsPool -= payout */\n      dup1\n      sload\n        /* \"/contracts/TimbPrize.sol\":22126:22132  payout */\n      dup4\n      swap3\n        /* \"/contracts/TimbPrize.sol\":22050:22067  hasClaimed[round] */\n      swap1\n        /* \"/contracts/TimbPrize.sol\":22096:22132  gameUnclaimed_winningsPool -= payout */\n      tag_464\n      swap1\n        /* \"/contracts/TimbPrize.sol\":22126:22132  payout */\n      dup5\n      swap1\n        /* \"/contracts/TimbPrize.sol\":22096:22132  gameUnclaimed_winningsPool -= payout */\n      tag_357\n      jump\t// in\n    tag_464:\n      swap1\n      swap2\n      sstore\n      pop\n      pop\n        /* \"/contracts/TimbPrize.sol\":22156:22167  prizeEscrow */\n      sload(0x01)\n        /* \"/contracts/TimbPrize.sol\":22143:22192  IPrizeEscrow(prizeEscrow).pay(msg.sender, payout) */\n      mload(0x40)\n      shl(0xe1, 0x6203b43b)\n      dup2\n      mstore\n        /* \"/contracts/TimbPrize.sol\":22173:22183  msg.sender */\n      caller\n        /* \"/contracts/TimbPrize.sol\":22143:22192  IPrizeEscrow(prizeEscrow).pay(msg.sender, payout) */\n      0x04\n      dup3\n      add\n        /* \"#utility.yul\":7163:7214   */\n      mstore\n        /* \"#utility.yul\":7230:7248   */\n      0x24\n      dup2\n      add\n        /* \"#utility.yul\":7223:7257   */\n      dup4\n      swap1\n      mstore\n      sub(shl(0xa0, 0x01), 0x01)\n        /* \"/contracts/TimbPrize.sol\":22156:22167  prizeEscrow */\n      swap1\n      swap2\n      and\n      swap1\n        /* \"/contracts/TimbPrize.sol\":22143:22172  IPrizeEscrow(prizeEscrow).pay */\n      0xc4076876\n      swap1\n        /* \"#utility.yul\":7136:7154   */\n      0x44\n      add\n        /* \"/contracts/TimbPrize.sol\":22143:22192  IPrizeEscrow(prizeEscrow).pay(msg.sender, payout) */\n      0x00\n      mload(0x40)\n      dup1\n      dup4\n      sub\n      dup2\n      0x00\n      dup8\n      dup1\n      extcodesize\n      iszero\n      dup1\n      iszero\n      tag_466\n      jumpi\n      0x00\n      dup1\n      revert\n    tag_466:\n      pop\n      gas\n      call\n      iszero\n      dup1\n      iszero\n      tag_468\n      jumpi\n      returndatasize\n      0x00\n      dup1\n      returndatacopy\n      revert(0x00, returndatasize)\n    tag_468:\n      pop\n      pop\n        /* \"/contracts/TimbPrize.sol\":22207:22249  WinningsClaimed(msg.sender, round, payout) */\n      mload(0x40)\n        /* \"#utility.yul\":2457:2482   */\n      dup4\n      dup2\n      mstore\n        /* \"/contracts/TimbPrize.sol\":22235:22240  round */\n      dup7\n      swap3\n      pop\n        /* \"/contracts/TimbPrize.sol\":22223:22233  msg.sender */\n      caller\n      swap2\n      pop\n        /* \"/contracts/TimbPrize.sol\":22207:22249  WinningsClaimed(msg.sender, round, payout) */\n      0x7472e24de4628e34b41a2aa1688ed4b46a9145b2de1cf93d74902473ccc1740d\n      swap1\n        /* \"#utility.yul\":2445:2447   */\n      0x20\n        /* \"#utility.yul\":2430:2448   */\n      add\n        /* \"/contracts/TimbPrize.sol\":22207:22249  WinningsClaimed(msg.sender, round, payout) */\n      mload(0x40)\n      dup1\n      swap2\n      sub\n      swap1\n      log3\n        /* \"/contracts/TimbPrize.sol\":21392:22256  {... */\n      pop\n      pop\n      pop\n        /* \"@openzeppelin/contracts/utils/ReentrancyGuard.sol\":3065:3085  _nonReentrantAfter() */\n      tag_470\n        /* \"@openzeppelin/contracts/utils/ReentrancyGuard.sol\":2365:2366  1 */\n      0x01\n      0x00\n      dup1\n      mload\n      0x20\n      data_c8669cf8eaf883002b9f48e28846a8d408c9b58ea6613bace374265e43c9bc43\n      dup4\n      codecopy\n      dup2\n      mload\n      swap2\n      mstore\n        /* \"@openzeppelin/contracts/utils/ReentrancyGuard.sol\":3972:4034  _reentrancyGuardStorageSlot().getUint256Slot().value = ENTERED */\n      sstore\n        /* \"@openzeppelin/contracts/utils/ReentrancyGuard.sol\":3749:4041  function _nonReentrantBefore() private {... */\n      jump\n        /* \"@openzeppelin/contracts/utils/ReentrancyGuard.sol\":3065:3085  _nonReentrantAfter() */\n    tag_470:\n        /* \"/contracts/TimbPrize.sol\":21288:22256  function claimWinnings(uint256 round)... */\n      pop\n      jump\t// out\n        /* \"@openzeppelin/contracts/access/Ownable.sol\":2293:2394  function renounceOwnership() public virtual onlyOwner {... */\n    tag_171:\n        /* \"@openzeppelin/contracts/access/Ownable.sol\":1531:1544  _checkOwner() */\n      tag_472\n        /* \"@openzeppelin/contracts/access/Ownable.sol\":1531:1542  _checkOwner */\n      tag_324\n        /* \"@openzeppelin/contracts/access/Ownable.sol\":1531:1544  _checkOwner() */\n      jump\t// in\n    tag_472:\n        /* \"@openzeppelin/contracts/access/Ownable.sol\":2357:2387  _transferOwnership(address(0)) */\n      tag_346\n        /* \"@openzeppelin/contracts/access/Ownable.sol\":2384:2385  0 */\n      0x00\n        /* \"@openzeppelin/contracts/access/Ownable.sol\":2357:2375  _transferOwnership */\n      tag_475\n        /* \"@openzeppelin/contracts/access/Ownable.sol\":2357:2387  _transferOwnership(address(0)) */\n      jump\t// in\n        /* \"/contracts/TimbPrize.sol\":26850:26927  function unpauseSettlement() external onlyOwner { settlementPaused = false; } */\n    tag_174:\n        /* \"@openzeppelin/contracts/access/Ownable.sol\":1531:1544  _checkOwner() */\n      tag_477\n        /* \"@openzeppelin/contracts/access/Ownable.sol\":1531:1542  _checkOwner */\n      tag_324\n        /* \"@openzeppelin/contracts/access/Ownable.sol\":1531:1544  _checkOwner() */\n      jump\t// in\n    tag_477:\n        /* \"/contracts/TimbPrize.sol\":26900:26916  settlementPaused */\n      0x18\n        /* \"/contracts/TimbPrize.sol\":26900:26924  settlementPaused = false */\n      dup1\n      sload\n      not(0xff00)\n      and\n      swap1\n      sstore\n        /* \"/contracts/TimbPrize.sol\":26850:26927  function unpauseSettlement() external onlyOwner { settlementPaused = false; } */\n      jump\t// out\n        /* \"/contracts/TimbPrize.sol\":22467:22727  function fundPot() external payable onlyOwner {... */\n    tag_216:\n        /* \"@openzeppelin/contracts/access/Ownable.sol\":1531:1544  _checkOwner() */\n      tag_106\n        /* \"@openzeppelin/contracts/access/Ownable.sol\":1531:1542  _checkOwner */\n      tag_324\n        /* \"@openzeppelin/contracts/access/Ownable.sol\":1531:1544  _checkOwner() */\n      jump\t// in\n        /* \"/contracts/TimbPrize.sol\":24872:25105  function timeRemainingInSegment() external view returns (uint256) {... */\n    tag_219:\n        /* \"/contracts/TimbPrize.sol\":24929:24936  uint256 */\n      0x00\n        /* \"/contracts/TimbPrize.sol\":24948:24963  uint256 elapsed */\n      dup1\n        /* \"/contracts/TimbPrize.sol\":24984:25000  segmentStartTime */\n      sload(0x0c)\n        /* \"/contracts/TimbPrize.sol\":24966:24981  block.timestamp */\n      timestamp\n        /* \"/contracts/TimbPrize.sol\":24966:25000  block.timestamp - segmentStartTime */\n      tag_490\n      swap2\n      swap1\n      tag_357\n      jump\t// in\n    tag_490:\n        /* \"/contracts/TimbPrize.sol\":24948:25000  uint256 elapsed = block.timestamp - segmentStartTime */\n      swap1\n      pop\n        /* \"/contracts/TimbPrize.sol\":3892:3915  59 minutes + 45 seconds */\n      0x0e01\n        /* \"/contracts/TimbPrize.sol\":25014:25021  elapsed */\n      dup2\n        /* \"/contracts/TimbPrize.sol\":25014:25043  elapsed >= INTERACTION_WINDOW */\n      lt\n        /* \"/contracts/TimbPrize.sol\":25010:25053  if (elapsed >= INTERACTION_WINDOW) return 0 */\n      tag_491\n      jumpi\n        /* \"/contracts/TimbPrize.sol\":25052:25053  0 */\n      0x00\n        /* \"/contracts/TimbPrize.sol\":25045:25053  return 0 */\n      swap2\n      pop\n      pop\n        /* \"/contracts/TimbPrize.sol\":24872:25105  function timeRemainingInSegment() external view returns (uint256) {... */\n      swap1\n      jump\t// out\n        /* \"/contracts/TimbPrize.sol\":25010:25053  if (elapsed >= INTERACTION_WINDOW) return 0 */\n    tag_491:\n        /* \"/contracts/TimbPrize.sol\":25070:25098  INTERACTION_WINDOW - elapsed */\n      tag_377\n        /* \"/contracts/TimbPrize.sol\":25091:25098  elapsed */\n      dup2\n        /* \"/contracts/TimbPrize.sol\":3892:3915  59 minutes + 45 seconds */\n      0x0e01\n        /* \"/contracts/TimbPrize.sol\":25070:25098  INTERACTION_WINDOW - elapsed */\n      tag_357\n      jump\t// in\n        /* \"/contracts/TimbPrize.sol\":13774:13965  function getSegmentDigit(uint256 segment) external view returns (bytes1) {... */\n    tag_241:\n        /* \"/contracts/TimbPrize.sol\":13839:13845  bytes1 */\n      0x00\n        /* \"/contracts/TimbPrize.sol\":13871:13885  currentSegment */\n      sload(0x0b)\n        /* \"/contracts/TimbPrize.sol\":13861:13868  segment */\n      dup3\n        /* \"/contracts/TimbPrize.sol\":13861:13885  segment > currentSegment */\n      gt\n        /* \"/contracts/TimbPrize.sol\":13857:13898  if (segment > currentSegment) return 0x00 */\n      iszero\n      tag_494\n      jumpi\n      pop\n        /* \"/contracts/TimbPrize.sol\":13894:13898  0x00 */\n      0x00\n      swap2\n        /* \"/contracts/TimbPrize.sol\":13774:13965  function getSegmentDigit(uint256 segment) external view returns (bytes1) {... */\n      swap1\n      pop\n      jump\t// out\n        /* \"/contracts/TimbPrize.sol\":13857:13898  if (segment > currentSegment) return 0x00 */\n    tag_494:\n        /* \"/contracts/TimbPrize.sol\":13915:13923  ALPHABET */\n      mload(0x40)\n      dup1\n      0x60\n      add\n      0x40\n      mstore\n      dup1\n      0x24\n      dup2\n      mstore\n      0x20\n      add\n      data_d1b12de380b5f3a30ba38a23a69e5703e0569d4a1fc4ac869b5f2bb883f9bcc1\n      0x24\n      swap2\n      codecopy\n        /* \"/contracts/TimbPrize.sol\":13924:13952  segmentDigitCounter[segment] */\n      0x00\n      dup4\n      dup2\n      mstore\n        /* \"/contracts/TimbPrize.sol\":13924:13943  segmentDigitCounter */\n      0x07\n        /* \"/contracts/TimbPrize.sol\":13924:13952  segmentDigitCounter[segment] */\n      0x20\n      mstore\n      0x40\n      swap1\n      keccak256\n      sload\n        /* \"/contracts/TimbPrize.sol\":13924:13957  segmentDigitCounter[segment] % 36 */\n      tag_495\n      swap1\n        /* \"/contracts/TimbPrize.sol\":13955:13957  36 */\n      0x24\n      swap1\n        /* \"/contracts/TimbPrize.sol\":13924:13957  segmentDigitCounter[segment] % 36 */\n      tag_360\n      jump\t// in\n    tag_495:\n        /* \"/contracts/TimbPrize.sol\":13915:13958  ALPHABET[segmentDigitCounter[segment] % 36] */\n      dup2\n      mload\n      dup2\n      lt\n      tag_497\n      jumpi\n      tag_497\n      tag_363\n      jump\t// in\n    tag_497:\n      add\n      0x20\n      add\n      mload\n      not(sub(shl(0xf8, 0x01), 0x01))\n      and\n      swap3\n        /* \"/contracts/TimbPrize.sol\":13774:13965  function getSegmentDigit(uint256 segment) external view returns (bytes1) {... */\n      swap2\n      pop\n      pop\n      jump\t// out\n        /* \"/contracts/TimbPrize.sol\":25507:25652  function setRouter(address _router) external onlyOwner {... */\n    tag_251:\n        /* \"@openzeppelin/contracts/access/Ownable.sol\":1531:1544  _checkOwner() */\n      tag_499\n        /* \"@openzeppelin/contracts/access/Ownable.sol\":1531:1542  _checkOwner */\n      tag_324\n        /* \"@openzeppelin/contracts/access/Ownable.sol\":1531:1544  _checkOwner() */\n      jump\t// in\n    tag_499:\n      sub(shl(0xa0, 0x01), 0x01)\n        /* \"/contracts/TimbPrize.sol\":25576:25597  _router == address(0) */\n      dup2\n      and\n        /* \"/contracts/TimbPrize.sol\":25572:25619  if (_router == address(0)) revert ZeroAddress() */\n      tag_501\n      jumpi\n        /* \"/contracts/TimbPrize.sol\":25606:25619  ZeroAddress() */\n      mload(0x40)\n      shl(0xe0, 0xd92e233d)\n      dup2\n      mstore\n      0x04\n      add\n      mload(0x40)\n      dup1\n      swap2\n      sub\n      swap1\n      revert\n        /* \"/contracts/TimbPrize.sol\":25572:25619  if (_router == address(0)) revert ZeroAddress() */\n    tag_501:\n        /* \"/contracts/TimbPrize.sol\":25629:25635  router */\n      0x03\n        /* \"/contracts/TimbPrize.sol\":25629:25645  router = _router */\n      dup1\n      sload\n      not(sub(shl(0xa0, 0x01), 0x01))\n      and\n      sub(shl(0xa0, 0x01), 0x01)\n      swap3\n      swap1\n      swap3\n      and\n      swap2\n      swap1\n      swap2\n      or\n      swap1\n      sstore\n        /* \"/contracts/TimbPrize.sol\":25507:25652  function setRouter(address _router) external onlyOwner {... */\n      jump\t// out\n        /* \"/contracts/TimbPrize.sol\":12267:12373  function isSettlementWindow() external view returns (bool) {... */\n    tag_254:\n        /* \"/contracts/TimbPrize.sol\":12320:12324  bool */\n      0x00\n        /* \"/contracts/TimbPrize.sol\":12343:12366  _isInSettlementWindow() */\n      tag_503\n        /* \"/contracts/TimbPrize.sol\":12343:12364  _isInSettlementWindow */\n      tag_339\n        /* \"/contracts/TimbPrize.sol\":12343:12366  _isInSettlementWindow() */\n      jump\t// in\n    tag_503:\n        /* \"/contracts/TimbPrize.sol\":12336:12366  return _isInSettlementWindow() */\n      swap1\n      pop\n        /* \"/contracts/TimbPrize.sol\":12267:12373  function isSettlementWindow() external view returns (bool) {... */\n      swap1\n      jump\t// out\n        /* \"/contracts/TimbPrize.sol\":26769:26845  function pauseSettlement()   external onlyOwner { settlementPaused = true; } */\n    tag_275:\n        /* \"@openzeppelin/contracts/access/Ownable.sol\":1531:1544  _checkOwner() */\n      tag_505\n        /* \"@openzeppelin/contracts/access/Ownable.sol\":1531:1542  _checkOwner */\n      tag_324\n        /* \"@openzeppelin/contracts/access/Ownable.sol\":1531:1544  _checkOwner() */\n      jump\t// in\n    tag_505:\n        /* \"/contracts/TimbPrize.sol\":26819:26835  settlementPaused */\n      0x18\n        /* \"/contracts/TimbPrize.sol\":26819:26842  settlementPaused = true */\n      dup1\n      sload\n      not(0xff00)\n      and\n      0x0100\n      or\n      swap1\n      sstore\n        /* \"/contracts/TimbPrize.sol\":26769:26845  function pauseSettlement()   external onlyOwner { settlementPaused = true; } */\n      jump\t// out\n        /* \"/contracts/TimbPrize.sol\":10756:11485  function startGame() external onlyOwner {... */\n    tag_283:\n        /* \"@openzeppelin/contracts/access/Ownable.sol\":1531:1544  _checkOwner() */\n      tag_508\n        /* \"@openzeppelin/contracts/access/Ownable.sol\":1531:1542  _checkOwner */\n      tag_324\n        /* \"@openzeppelin/contracts/access/Ownable.sol\":1531:1544  _checkOwner() */\n      jump\t// in\n    tag_508:\n        /* \"/contracts/TimbPrize.sol\":10810:10821  gameStarted */\n      and(0xff, sload(0x0d))\n        /* \"/contracts/TimbPrize.sol\":10806:10850  if (gameStarted) revert GameAlreadyStarted() */\n      iszero\n      tag_510\n      jumpi\n        /* \"/contracts/TimbPrize.sol\":10830:10850  GameAlreadyStarted() */\n      mload(0x40)\n      shl(0xe0, 0xba26162b)\n      dup2\n      mstore\n      0x04\n      add\n      mload(0x40)\n      dup1\n      swap2\n      sub\n      swap1\n      revert\n        /* \"/contracts/TimbPrize.sol\":10806:10850  if (gameStarted) revert GameAlreadyStarted() */\n    tag_510:\n        /* \"/contracts/TimbPrize.sol\":10860:10871  gameStarted */\n      0x0d\n        /* \"/contracts/TimbPrize.sol\":10860:10883  gameStarted      = true */\n      dup1\n      sload\n      not(0xff)\n      and\n        /* \"/contracts/TimbPrize.sol\":10879:10883  true */\n      0x01\n        /* \"/contracts/TimbPrize.sol\":10860:10883  gameStarted      = true */\n      swap1\n      dup2\n      or\n      swap1\n      swap2\n      sstore\n        /* \"/contracts/TimbPrize.sol\":10893:10905  currentRound */\n      0x0a\n        /* \"/contracts/TimbPrize.sol\":10893:10913  currentRound     = 1 */\n      dup2\n      swap1\n      sstore\n        /* \"/contracts/TimbPrize.sol\":10923:10937  currentSegment */\n      0x0b\n        /* \"/contracts/TimbPrize.sol\":10923:10943  currentSegment   = 1 */\n      dup2\n      swap1\n      sstore\n        /* \"/contracts/TimbPrize.sol\":10972:10987  block.timestamp */\n      timestamp\n        /* \"/contracts/TimbPrize.sol\":10953:10969  segmentStartTime */\n      0x0c\n        /* \"/contracts/TimbPrize.sol\":10953:10987  segmentStartTime = block.timestamp */\n      sstore\n        /* \"/contracts/TimbPrize.sol\":11042:11187  for (uint256 i = 1; i <= SEGMENTS_PER_ROUND; i++) {... */\n    tag_511:\n        /* \"/contracts/TimbPrize.sol\":4238:4239  6 */\n      0x06\n        /* \"/contracts/TimbPrize.sol\":11062:11063  i */\n      dup2\n        /* \"/contracts/TimbPrize.sol\":11062:11085  i <= SEGMENTS_PER_ROUND */\n      gt\n        /* \"/contracts/TimbPrize.sol\":11042:11187  for (uint256 i = 1; i <= SEGMENTS_PER_ROUND; i++) {... */\n      tag_512\n      jumpi\n        /* \"/contracts/TimbPrize.sol\":11131:11132  0 */\n      0x00\n        /* \"/contracts/TimbPrize.sol\":11106:11128  segmentDigitCounter[i] */\n      dup2\n      dup2\n      mstore\n        /* \"/contracts/TimbPrize.sol\":11106:11125  segmentDigitCounter */\n      0x07\n        /* \"/contracts/TimbPrize.sol\":11106:11128  segmentDigitCounter[i] */\n      0x20\n      swap1\n      dup2\n      mstore\n      0x40\n      dup1\n      dup4\n      keccak256\n        /* \"/contracts/TimbPrize.sol\":11106:11132  segmentDigitCounter[i] = 0 */\n      dup4\n      swap1\n      sstore\n        /* \"/contracts/TimbPrize.sol\":11146:11164  segmentDigitLocked */\n      0x08\n        /* \"/contracts/TimbPrize.sol\":11146:11167  segmentDigitLocked[i] */\n      swap1\n      swap2\n      mstore\n      swap1\n      keccak256\n        /* \"/contracts/TimbPrize.sol\":11146:11176  segmentDigitLocked[i]  = false */\n      dup1\n      sload\n      not(0xff)\n      and\n      swap1\n      sstore\n        /* \"/contracts/TimbPrize.sol\":11126:11127  i */\n      dup1\n        /* \"/contracts/TimbPrize.sol\":11087:11090  i++ */\n      tag_514\n        /* \"/contracts/TimbPrize.sol\":11126:11127  i */\n      dup2\n        /* \"/contracts/TimbPrize.sol\":11087:11090  i++ */\n      tag_342\n      jump\t// in\n    tag_514:\n      swap2\n      pop\n      pop\n        /* \"/contracts/TimbPrize.sol\":11042:11187  for (uint256 i = 1; i <= SEGMENTS_PER_ROUND; i++) {... */\n      jump(tag_511)\n    tag_512:\n      pop\n        /* \"/contracts/TimbPrize.sol\":11211:11223  gameRegistry */\n      sload(0x02)\n        /* \"/contracts/TimbPrize.sol\":11241:11253  currentRound */\n      sload(0x0a)\n        /* \"/contracts/TimbPrize.sol\":11197:11254  IGameRegistry(gameRegistry).setCurrentRound(currentRound) */\n      mload(0x40)\n      shl(0xe3, 0x077923c5)\n      dup2\n      mstore\n      sub(shl(0xa0, 0x01), 0x01)\n        /* \"/contracts/TimbPrize.sol\":11211:11223  gameRegistry */\n      swap1\n      swap3\n      and\n      swap2\n        /* \"/contracts/TimbPrize.sol\":11197:11240  IGameRegistry(gameRegistry).setCurrentRound */\n      0x3bc91e28\n      swap2\n        /* \"/contracts/TimbPrize.sol\":11197:11254  IGameRegistry(gameRegistry).setCurrentRound(currentRound) */\n      tag_515\n      swap2\n      0x04\n      add\n        /* \"#utility.yul\":2457:2482   */\n      swap1\n      dup2\n      mstore\n        /* \"#utility.yul\":2445:2447   */\n      0x20\n        /* \"#utility.yul\":2430:2448   */\n      add\n      swap1\n        /* \"#utility.yul\":2311:2488   */\n      jump\n        /* \"/contracts/TimbPrize.sol\":11197:11254  IGameRegistry(gameRegistry).setCurrentRound(currentRound) */\n    tag_515:\n      0x00\n      mload(0x40)\n      dup1\n      dup4\n      sub\n      dup2\n      0x00\n      dup8\n      dup1\n      extcodesize\n      iszero\n      dup1\n      iszero\n      tag_516\n      jumpi\n      0x00\n      dup1\n      revert\n    tag_516:\n      pop\n      gas\n      call\n      iszero\n      dup1\n      iszero\n      tag_518\n      jumpi\n      returndatasize\n      0x00\n      dup1\n      returndatacopy\n      revert(0x00, returndatasize)\n    tag_518:\n      pop\n      pop\n      pop\n      pop\n        /* \"/contracts/TimbPrize.sol\":11264:11299  _activateRoundEntries(currentRound) */\n      tag_519\n        /* \"/contracts/TimbPrize.sol\":11286:11298  currentRound */\n      sload(0x0a)\n        /* \"/contracts/TimbPrize.sol\":11264:11285  _activateRoundEntries */\n      tag_520\n        /* \"/contracts/TimbPrize.sol\":11264:11299  _activateRoundEntries(currentRound) */\n      jump\t// in\n    tag_519:\n        /* \"/contracts/TimbPrize.sol\":11315:11343  GameStarted(block.timestamp) */\n      mload(0x40)\n        /* \"/contracts/TimbPrize.sol\":11327:11342  block.timestamp */\n      timestamp\n        /* \"#utility.yul\":2457:2482   */\n      dup2\n      mstore\n        /* \"/contracts/TimbPrize.sol\":11315:11343  GameStarted(block.timestamp) */\n      0x50ad08f58a27f2851d7e3a1b3a6a46b290f2ce677e99642d30ff639721e77790\n      swap1\n        /* \"#utility.yul\":2445:2447   */\n      0x20\n        /* \"#utility.yul\":2430:2448   */\n      add\n        /* \"/contracts/TimbPrize.sol\":11315:11343  GameStarted(block.timestamp) */\n      mload(0x40)\n      dup1\n      swap2\n      sub\n      swap1\n      log1\n        /* \"/contracts/TimbPrize.sol\":11371:11383  currentRound */\n      sload(0x0a)\n        /* \"/contracts/TimbPrize.sol\":11358:11401  RoundStarted(currentRound, block.timestamp) */\n      mload(0x40)\n        /* \"/contracts/TimbPrize.sol\":11385:11400  block.timestamp */\n      timestamp\n        /* \"#utility.yul\":2457:2482   */\n      dup2\n      mstore\n        /* \"/contracts/TimbPrize.sol\":11358:11401  RoundStarted(currentRound, block.timestamp) */\n      0x278844837bcf8364a705384bf3a2812901f54155bae86dea81dd52aa5b9ec0e3\n      swap1\n        /* \"#utility.yul\":2445:2447   */\n      0x20\n        /* \"#utility.yul\":2430:2448   */\n      add\n        /* \"/contracts/TimbPrize.sol\":11358:11401  RoundStarted(currentRound, block.timestamp) */\n      mload(0x40)\n      dup1\n      swap2\n      sub\n      swap1\n      log2\n        /* \"/contracts/TimbPrize.sol\":11432:11444  currentRound */\n      sload(0x0a)\n        /* \"/contracts/TimbPrize.sol\":11446:11460  currentSegment */\n      sload(0x0b)\n        /* \"/contracts/TimbPrize.sol\":11416:11478  SegmentAdvanced(currentRound, currentSegment, block.timestamp) */\n      0x40\n      dup1\n      mload\n        /* \"#utility.yul\":5591:5616   */\n      swap2\n      dup3\n      mstore\n        /* \"/contracts/TimbPrize.sol\":11462:11477  block.timestamp */\n      timestamp\n        /* \"#utility.yul\":5647:5649   */\n      0x20\n        /* \"#utility.yul\":5632:5650   */\n      dup4\n      add\n        /* \"#utility.yul\":5625:5659   */\n      mstore\n        /* \"/contracts/TimbPrize.sol\":11416:11478  SegmentAdvanced(currentRound, currentSegment, block.timestamp) */\n      0xe9a2985393fa4bb459d73d85249df3b5923e70fb93b7b9c307e72359ab167587\n      swap2\n        /* \"#utility.yul\":5564:5582   */\n      add\n        /* \"/contracts/TimbPrize.sol\":11416:11478  SegmentAdvanced(currentRound, currentSegment, block.timestamp) */\n      tag_386\n        /* \"#utility.yul\":5417:5665   */\n      jump\n        /* \"/contracts/TimbPrize.sol\":25776:25939  function setGameRegistry(address _registry) external onlyOwner {... */\n    tag_291:\n        /* \"@openzeppelin/contracts/access/Ownable.sol\":1531:1544  _checkOwner() */\n      tag_525\n        /* \"@openzeppelin/contracts/access/Ownable.sol\":1531:1542  _checkOwner */\n      tag_324\n        /* \"@openzeppelin/contracts/access/Ownable.sol\":1531:1544  _checkOwner() */\n      jump\t// in\n    tag_525:\n      sub(shl(0xa0, 0x01), 0x01)\n        /* \"/contracts/TimbPrize.sol\":25853:25876  _registry == address(0) */\n      dup2\n      and\n        /* \"/contracts/TimbPrize.sol\":25849:25898  if (_registry == address(0)) revert ZeroAddress() */\n      tag_527\n      jumpi\n        /* \"/contracts/TimbPrize.sol\":25885:25898  ZeroAddress() */\n      mload(0x40)\n      shl(0xe0, 0xd92e233d)\n      dup2\n      mstore\n      0x04\n      add\n      mload(0x40)\n      dup1\n      swap2\n      sub\n      swap1\n      revert\n        /* \"/contracts/TimbPrize.sol\":25849:25898  if (_registry == address(0)) revert ZeroAddress() */\n    tag_527:\n        /* \"/contracts/TimbPrize.sol\":25908:25920  gameRegistry */\n      0x02\n        /* \"/contracts/TimbPrize.sol\":25908:25932  gameRegistry = _registry */\n      dup1\n      sload\n      not(sub(shl(0xa0, 0x01), 0x01))\n      and\n      sub(shl(0xa0, 0x01), 0x01)\n      swap3\n      swap1\n      swap3\n      and\n      swap2\n      swap1\n      swap2\n      or\n      swap1\n      sstore\n        /* \"/contracts/TimbPrize.sol\":25776:25939  function setGameRegistry(address _registry) external onlyOwner {... */\n      jump\t// out\n        /* \"/contracts/TimbPrize.sol\":26687:26764  function unpauseEntries()    external onlyOwner { entriesPaused    = false; } */\n    tag_294:\n        /* \"@openzeppelin/contracts/access/Ownable.sol\":1531:1544  _checkOwner() */\n      tag_529\n        /* \"@openzeppelin/contracts/access/Ownable.sol\":1531:1542  _checkOwner */\n      tag_324\n        /* \"@openzeppelin/contracts/access/Ownable.sol\":1531:1544  _checkOwner() */\n      jump\t// in\n    tag_529:\n        /* \"/contracts/TimbPrize.sol\":26737:26750  entriesPaused */\n      0x18\n        /* \"/contracts/TimbPrize.sol\":26737:26761  entriesPaused    = false */\n      dup1\n      sload\n      not(0xff)\n      and\n      swap1\n      sstore\n        /* \"/contracts/TimbPrize.sol\":26687:26764  function unpauseEntries()    external onlyOwner { entriesPaused    = false; } */\n      jump\t// out\n        /* \"/contracts/TimbPrize.sol\":26497:26600  function setShuffleEnabled(bool _enabled) external onlyOwner {... */\n    tag_299:\n        /* \"@openzeppelin/contracts/access/Ownable.sol\":1531:1544  _checkOwner() */\n      tag_532\n        /* \"@openzeppelin/contracts/access/Ownable.sol\":1531:1542  _checkOwner */\n      tag_324\n        /* \"@openzeppelin/contracts/access/Ownable.sol\":1531:1544  _checkOwner() */\n      jump\t// in\n    tag_532:\n        /* \"/contracts/TimbPrize.sol\":26568:26582  shuffleEnabled */\n      0x09\n        /* \"/contracts/TimbPrize.sol\":26568:26593  shuffleEnabled = _enabled */\n      dup1\n      sload\n      not(0xff)\n      and\n      swap2\n      iszero\n      iszero\n      swap2\n      swap1\n      swap2\n      or\n      swap1\n      sstore\n        /* \"/contracts/TimbPrize.sol\":26497:26600  function setShuffleEnabled(bool _enabled) external onlyOwner {... */\n      jump\t// out\n        /* \"/contracts/TimbPrize.sol\":25658:25770  function setEligibleRegistry(address _registry) external onlyOwner {... */\n    tag_303:\n        /* \"@openzeppelin/contracts/access/Ownable.sol\":1531:1544  _checkOwner() */\n      tag_535\n        /* \"@openzeppelin/contracts/access/Ownable.sol\":1531:1542  _checkOwner */\n      tag_324\n        /* \"@openzeppelin/contracts/access/Ownable.sol\":1531:1544  _checkOwner() */\n      jump\t// in\n    tag_535:\n        /* \"/contracts/TimbPrize.sol\":25735:25751  eligibleRegistry */\n      0x04\n        /* \"/contracts/TimbPrize.sol\":25735:25763  eligibleRegistry = _registry */\n      dup1\n      sload\n      not(sub(shl(0xa0, 0x01), 0x01))\n      and\n      sub(shl(0xa0, 0x01), 0x01)\n      swap3\n      swap1\n      swap3\n      and\n      swap2\n      swap1\n      swap2\n      or\n      swap1\n      sstore\n        /* \"/contracts/TimbPrize.sol\":25658:25770  function setEligibleRegistry(address _registry) external onlyOwner {... */\n      jump\t// out\n        /* \"@openzeppelin/contracts/access/Ownable.sol\":2543:2758  function transferOwnership(address newOwner) public virtual onlyOwner {... */\n    tag_307:\n        /* \"@openzeppelin/contracts/access/Ownable.sol\":1531:1544  _checkOwner() */\n      tag_538\n        /* \"@openzeppelin/contracts/access/Ownable.sol\":1531:1542  _checkOwner */\n      tag_324\n        /* \"@openzeppelin/contracts/access/Ownable.sol\":1531:1544  _checkOwner() */\n      jump\t// in\n    tag_538:\n      sub(shl(0xa0, 0x01), 0x01)\n        /* \"@openzeppelin/contracts/access/Ownable.sol\":2627:2649  newOwner == address(0) */\n      dup2\n      and\n        /* \"@openzeppelin/contracts/access/Ownable.sol\":2623:2714  if (newOwner == address(0)) {... */\n      tag_540\n      jumpi\n        /* \"@openzeppelin/contracts/access/Ownable.sol\":2672:2703  OwnableInvalidOwner(address(0)) */\n      mload(0x40)\n      shl(0xe0, 0x1e4fbdf7)\n      dup2\n      mstore\n        /* \"@openzeppelin/contracts/access/Ownable.sol\":2700:2701  0 */\n      0x00\n        /* \"@openzeppelin/contracts/access/Ownable.sol\":2672:2703  OwnableInvalidOwner(address(0)) */\n      0x04\n      dup3\n      add\n        /* \"#utility.yul\":1650:1701   */\n      mstore\n        /* \"#utility.yul\":1623:1641   */\n      0x24\n      add\n        /* \"@openzeppelin/contracts/access/Ownable.sol\":2672:2703  OwnableInvalidOwner(address(0)) */\n      tag_424\n        /* \"#utility.yul\":1504:1707   */\n      jump\n        /* \"@openzeppelin/contracts/access/Ownable.sol\":2623:2714  if (newOwner == address(0)) {... */\n    tag_540:\n        /* \"@openzeppelin/contracts/access/Ownable.sol\":2723:2751  _transferOwnership(newOwner) */\n      tag_470\n        /* \"@openzeppelin/contracts/access/Ownable.sol\":2742:2750  newOwner */\n      dup2\n        /* \"@openzeppelin/contracts/access/Ownable.sol\":2723:2741  _transferOwnership */\n      tag_475\n        /* \"@openzeppelin/contracts/access/Ownable.sol\":2723:2751  _transferOwnership(newOwner) */\n      jump\t// in\n        /* \"@openzeppelin/contracts/access/Ownable.sol\":1796:1958  function _checkOwner() internal view virtual {... */\n    tag_324:\n        /* \"@openzeppelin/contracts/access/Ownable.sol\":1684:1691  address */\n      0x00\n        /* \"@openzeppelin/contracts/access/Ownable.sol\":1710:1716  _owner */\n      sload\n      sub(shl(0xa0, 0x01), 0x01)\n      and\n        /* \"@openzeppelin/contracts/utils/Context.sol\":735:745  msg.sender */\n      caller\n        /* \"@openzeppelin/contracts/access/Ownable.sol\":1855:1878  owner() != _msgSender() */\n      eq\n        /* \"@openzeppelin/contracts/access/Ownable.sol\":1851:1952  if (owner() != _msgSender()) {... */\n      tag_346\n      jumpi\n        /* \"@openzeppelin/contracts/access/Ownable.sol\":1901:1941  OwnableUnauthorizedAccount(_msgSender()) */\n      mload(0x40)\n      shl(0xe0, 0x118cdaa7)\n      dup2\n      mstore\n        /* \"@openzeppelin/contracts/utils/Context.sol\":735:745  msg.sender */\n      caller\n        /* \"@openzeppelin/contracts/access/Ownable.sol\":1901:1941  OwnableUnauthorizedAccount(_msgSender()) */\n      0x04\n      dup3\n      add\n        /* \"#utility.yul\":1650:1701   */\n      mstore\n        /* \"#utility.yul\":1623:1641   */\n      0x24\n      add\n        /* \"@openzeppelin/contracts/access/Ownable.sol\":1901:1941  OwnableUnauthorizedAccount(_msgSender()) */\n      tag_424\n        /* \"#utility.yul\":1504:1707   */\n      jump\n        /* \"@openzeppelin/contracts/utils/ReentrancyGuard.sol\":3749:4041  function _nonReentrantBefore() private {... */\n    tag_332:\n        /* \"@openzeppelin/contracts/utils/ReentrancyGuard.sol\":3872:3897  _nonReentrantBeforeView() */\n      tag_551\n        /* \"@openzeppelin/contracts/utils/ReentrancyGuard.sol\":3872:3895  _nonReentrantBeforeView */\n      tag_552\n        /* \"@openzeppelin/contracts/utils/ReentrancyGuard.sol\":3872:3897  _nonReentrantBeforeView() */\n      jump\t// in\n    tag_551:\n        /* \"@openzeppelin/contracts/utils/ReentrancyGuard.sol\":2407:2408  2 */\n      0x02\n      0x00\n      dup1\n      mload\n      0x20\n      data_c8669cf8eaf883002b9f48e28846a8d408c9b58ea6613bace374265e43c9bc43\n      dup4\n      codecopy\n      dup2\n      mload\n      swap2\n      mstore\n        /* \"@openzeppelin/contracts/utils/ReentrancyGuard.sol\":3972:4034  _reentrancyGuardStorageSlot().getUint256Slot().value = ENTERED */\n      sstore\n        /* \"@openzeppelin/contracts/utils/ReentrancyGuard.sol\":3749:4041  function _nonReentrantBefore() private {... */\n      jump\t// out\n        /* \"/contracts/TimbPrize.sol\":12379:12596  function _isInSettlementWindow() internal view returns (bool) {... */\n    tag_339:\n        /* \"/contracts/TimbPrize.sol\":12456:12467  gameStarted */\n      sload(0x0d)\n        /* \"/contracts/TimbPrize.sol\":12435:12439  bool */\n      0x00\n      swap1\n        /* \"/contracts/TimbPrize.sol\":12456:12467  gameStarted */\n      0xff\n      and\n        /* \"/contracts/TimbPrize.sol\":12451:12481  if (!gameStarted) return false */\n      tag_558\n      jumpi\n      pop\n        /* \"/contracts/TimbPrize.sol\":12476:12481  false */\n      0x00\n      swap1\n        /* \"/contracts/TimbPrize.sol\":12379:12596  function _isInSettlementWindow() internal view returns (bool) {... */\n      jump\t// out\n        /* \"/contracts/TimbPrize.sol\":12451:12481  if (!gameStarted) return false */\n    tag_558:\n        /* \"/contracts/TimbPrize.sol\":12491:12506  uint256 elapsed */\n      0x00\n        /* \"/contracts/TimbPrize.sol\":12527:12543  segmentStartTime */\n      sload(0x0c)\n        /* \"/contracts/TimbPrize.sol\":12509:12524  block.timestamp */\n      timestamp\n        /* \"/contracts/TimbPrize.sol\":12509:12543  block.timestamp - segmentStartTime */\n      tag_559\n      swap2\n      swap1\n      tag_357\n      jump\t// in\n    tag_559:\n        /* \"/contracts/TimbPrize.sol\":3892:3915  59 minutes + 45 seconds */\n      0x0e01\n      gt\n        /* \"/contracts/TimbPrize.sol\":12560:12589  elapsed >= INTERACTION_WINDOW */\n      iszero\n      swap3\n        /* \"/contracts/TimbPrize.sol\":12379:12596  function _isInSettlementWindow() internal view returns (bool) {... */\n      swap2\n      pop\n      pop\n      jump\t// out\n        /* \"/contracts/TimbPrize.sol\":15125:16483  function _settleRound() internal {... */\n    tag_430:\n        /* \"/contracts/TimbPrize.sol\":15184:15196  currentRound */\n      sload(0x0a)\n        /* \"/contracts/TimbPrize.sol\":15168:15181  uint256 round */\n      0x00\n        /* \"/contracts/TimbPrize.sol\":15230:15251  _buildWinningString() */\n      tag_564\n        /* \"/contracts/TimbPrize.sol\":15230:15249  _buildWinningString */\n      tag_565\n        /* \"/contracts/TimbPrize.sol\":15230:15251  _buildWinningString() */\n      jump\t// in\n    tag_564:\n        /* \"/contracts/TimbPrize.sol\":15261:15286  roundWinningString[round] */\n      0x00\n      dup4\n      dup2\n      mstore\n        /* \"/contracts/TimbPrize.sol\":15261:15279  roundWinningString */\n      0x12\n        /* \"/contracts/TimbPrize.sol\":15261:15286  roundWinningString[round] */\n      0x20\n      swap1\n      dup2\n      mstore\n      0x40\n      swap2\n      dup3\n      swap1\n      keccak256\n        /* \"/contracts/TimbPrize.sol\":15261:15302  roundWinningString[round] = winningString */\n      dup1\n      sload\n      not(0xffffffffffff)\n      and\n      0xd0\n      dup6\n      swap1\n      shr\n      or\n      swap1\n      sstore\n        /* \"/contracts/TimbPrize.sol\":15339:15354  positionCounter */\n      sload(0x06)\n        /* \"/contracts/TimbPrize.sol\":15317:15370  PositionFrozen(round, positionCounter, winningString) */\n      dup3\n      mload\n        /* \"#utility.yul\":7440:7465   */\n      swap1\n      dup2\n      mstore\n      not(sub(shl(0xd0, 0x01), 0x01))\n        /* \"#utility.yul\":7501:7538   */\n      dup5\n      and\n        /* \"#utility.yul\":7481:7499   */\n      swap2\n      dup2\n      add\n        /* \"#utility.yul\":7474:7539   */\n      swap2\n      swap1\n      swap2\n      mstore\n        /* \"/contracts/TimbPrize.sol\":15261:15302  roundWinningString[round] = winningString */\n      swap2\n      swap3\n      pop\n        /* \"/contracts/TimbPrize.sol\":15261:15286  roundWinningString[round] */\n      dup4\n      swap2\n        /* \"/contracts/TimbPrize.sol\":15317:15370  PositionFrozen(round, positionCounter, winningString) */\n      0xd9518e0c64df7f54fe347e6e390672d87bc2350a9df1b275e2de0f2655ca9a84\n      swap2\n        /* \"#utility.yul\":7413:7431   */\n      add\n        /* \"/contracts/TimbPrize.sol\":15317:15370  PositionFrozen(round, positionCounter, winningString) */\n      mload(0x40)\n      dup1\n      swap2\n      sub\n      swap1\n      log2\n        /* \"/contracts/TimbPrize.sol\":15382:15406  address[] memory winners */\n      0x00\n        /* \"/contracts/TimbPrize.sol\":15408:15427  uint256 winnerCount */\n      dup1\n        /* \"/contracts/TimbPrize.sol\":15443:15485  _findVerifiedWinners(round, winningString) */\n      tag_568\n        /* \"/contracts/TimbPrize.sol\":15464:15469  round */\n      dup5\n        /* \"/contracts/TimbPrize.sol\":15471:15484  winningString */\n      dup5\n        /* \"/contracts/TimbPrize.sol\":15443:15463  _findVerifiedWinners */\n      tag_569\n        /* \"/contracts/TimbPrize.sol\":15443:15485  _findVerifiedWinners(round, winningString) */\n      jump\t// in\n    tag_568:\n        /* \"/contracts/TimbPrize.sol\":15381:15485  (address[] memory winners, uint256 winnerCount) =... */\n      swap2\n      pop\n      swap2\n      pop\n        /* \"/contracts/TimbPrize.sol\":15496:15548  _distributePotAndRecord(round, winners, winnerCount) */\n      tag_570\n        /* \"/contracts/TimbPrize.sol\":15520:15525  round */\n      dup5\n        /* \"/contracts/TimbPrize.sol\":15527:15534  winners */\n      dup4\n        /* \"/contracts/TimbPrize.sol\":15536:15547  winnerCount */\n      dup4\n        /* \"/contracts/TimbPrize.sol\":15496:15519  _distributePotAndRecord */\n      tag_571\n        /* \"/contracts/TimbPrize.sol\":15496:15548  _distributePotAndRecord(round, winners, winnerCount) */\n      jump\t// in\n    tag_570:\n        /* \"/contracts/TimbPrize.sol\":15558:15587  _processExpiredEntries(round) */\n      tag_572\n        /* \"/contracts/TimbPrize.sol\":15581:15586  round */\n      dup5\n        /* \"/contracts/TimbPrize.sol\":15558:15580  _processExpiredEntries */\n      tag_573\n        /* \"/contracts/TimbPrize.sol\":15558:15587  _processExpiredEntries(round) */\n      jump\t// in\n    tag_572:\n        /* \"/contracts/TimbPrize.sol\":15647:15659  gameRegistry */\n      sload(0x02)\n        /* \"/contracts/TimbPrize.sol\":15633:15684  IGameRegistry(gameRegistry).getRoundEntrants(round) */\n      mload(0x40)\n      shl(0xe1, 0x22a56427)\n      dup2\n      mstore\n      0x04\n      dup2\n      add\n        /* \"#utility.yul\":2457:2482   */\n      dup7\n      swap1\n      mstore\n        /* \"/contracts/TimbPrize.sol\":15598:15618  uint256 totalEntries */\n      0x00\n      swap2\n      sub(shl(0xa0, 0x01), 0x01)\n        /* \"/contracts/TimbPrize.sol\":15647:15659  gameRegistry */\n      and\n      swap1\n        /* \"/contracts/TimbPrize.sol\":15633:15677  IGameRegistry(gameRegistry).getRoundEntrants */\n      0x454ac84e\n      swap1\n        /* \"#utility.yul\":2430:2448   */\n      0x24\n      add\n        /* \"/contracts/TimbPrize.sol\":15633:15684  IGameRegistry(gameRegistry).getRoundEntrants(round) */\n      0x00\n      mload(0x40)\n      dup1\n      dup4\n      sub\n      dup2\n      dup7\n      gas\n      staticcall\n      iszero\n      dup1\n      iszero\n      tag_576\n      jumpi\n      returndatasize\n      0x00\n      dup1\n      returndatacopy\n      revert(0x00, returndatasize)\n    tag_576:\n      pop\n      pop\n      pop\n      pop\n      mload(0x40)\n      returndatasize\n      0x00\n      dup3\n      returndatacopy\n      0x1f\n      returndatasize\n      swap1\n      dup2\n      add\n      not(0x1f)\n      and\n      dup3\n      add\n      0x40\n      mstore\n      tag_577\n      swap2\n      swap1\n      dup2\n      add\n      swap1\n      tag_578\n      jump\t// in\n    tag_577:\n        /* \"/contracts/TimbPrize.sol\":15633:15691  IGameRegistry(gameRegistry).getRoundEntrants(round).length */\n      mload\n        /* \"/contracts/TimbPrize.sol\":15779:15800  roundPotAmount[round] */\n      0x00\n      dup7\n      dup2\n      mstore\n        /* \"/contracts/TimbPrize.sol\":15779:15793  roundPotAmount */\n      0x13\n        /* \"/contracts/TimbPrize.sol\":15779:15800  roundPotAmount[round] */\n      0x20\n      swap1\n      dup2\n      mstore\n      0x40\n      dup1\n      dup4\n      keccak256\n      sload\n        /* \"/contracts/TimbPrize.sol\":15839:15853  roundRemainder */\n      0x16\n        /* \"/contracts/TimbPrize.sol\":15839:15860  roundRemainder[round] */\n      dup4\n      mstore\n      swap3\n      dup2\n      swap1\n      keccak256\n      sload\n        /* \"/contracts/TimbPrize.sol\":15707:15925  RoundSettled(... */\n      dup2\n      mload\n      not(sub(shl(0xd0, 0x01), 0x01))\n        /* \"#utility.yul\":9130:9167   */\n      dup11\n      and\n        /* \"#utility.yul\":9112:9168   */\n      dup2\n      mstore\n        /* \"#utility.yul\":9184:9202   */\n      swap3\n      dup4\n      add\n        /* \"#utility.yul\":9177:9211   */\n      swap4\n      swap1\n      swap4\n      mstore\n        /* \"#utility.yul\":9227:9245   */\n      dup2\n      add\n        /* \"#utility.yul\":9220:9254   */\n      dup6\n      swap1\n      mstore\n        /* \"#utility.yul\":9285:9287   */\n      0x60\n        /* \"#utility.yul\":9270:9288   */\n      dup2\n      add\n        /* \"#utility.yul\":9263:9297   */\n      swap2\n      swap1\n      swap2\n      mstore\n        /* \"#utility.yul\":9328:9331   */\n      0x80\n        /* \"#utility.yul\":9313:9332   */\n      dup2\n      add\n        /* \"#utility.yul\":9306:9341   */\n      dup3\n      swap1\n      mstore\n        /* \"/contracts/TimbPrize.sol\":15900:15915  block.timestamp */\n      timestamp\n        /* \"#utility.yul\":9372:9375   */\n      0xa0\n        /* \"#utility.yul\":9357:9376   */\n      dup3\n      add\n        /* \"#utility.yul\":9350:9385   */\n      mstore\n        /* \"/contracts/TimbPrize.sol\":15633:15691  IGameRegistry(gameRegistry).getRoundEntrants(round).length */\n      swap1\n      swap2\n      pop\n        /* \"/contracts/TimbPrize.sol\":15779:15800  roundPotAmount[round] */\n      dup6\n      swap1\n        /* \"/contracts/TimbPrize.sol\":15707:15925  RoundSettled(... */\n      0xcb3e0bd9fc5c5ca893ab7edf22c314b2852d2cf6e36e091941d0709caeb4145c\n      swap1\n        /* \"#utility.yul\":9099:9102   */\n      0xc0\n        /* \"#utility.yul\":9084:9103   */\n      add\n        /* \"/contracts/TimbPrize.sol\":15707:15925  RoundSettled(... */\n      mload(0x40)\n      dup1\n      swap2\n      sub\n      swap1\n      log2\n        /* \"/contracts/TimbPrize.sol\":15998:16010  currentRound */\n      0x0a\n        /* \"/contracts/TimbPrize.sol\":15998:16012  currentRound++ */\n      dup1\n      sload\n      swap1\n        /* \"/contracts/TimbPrize.sol\":15998:16010  currentRound */\n      0x00\n        /* \"/contracts/TimbPrize.sol\":15998:16012  currentRound++ */\n      tag_581\n      dup4\n      tag_342\n      jump\t// in\n    tag_581:\n      swap1\n      swap2\n      sstore\n      pop\n      pop\n        /* \"/contracts/TimbPrize.sol\":16041:16042  1 */\n      0x01\n        /* \"/contracts/TimbPrize.sol\":16022:16036  currentSegment */\n      0x0b\n        /* \"/contracts/TimbPrize.sol\":16022:16042  currentSegment   = 1 */\n      dup2\n      swap1\n      sstore\n        /* \"/contracts/TimbPrize.sol\":16071:16086  block.timestamp */\n      timestamp\n        /* \"/contracts/TimbPrize.sol\":16052:16068  segmentStartTime */\n      0x0c\n        /* \"/contracts/TimbPrize.sol\":16052:16086  segmentStartTime = block.timestamp */\n      sstore\n        /* \"/contracts/TimbPrize.sol\":16096:16241  for (uint256 i = 1; i <= SEGMENTS_PER_ROUND; i++) {... */\n    tag_582:\n        /* \"/contracts/TimbPrize.sol\":4238:4239  6 */\n      0x06\n        /* \"/contracts/TimbPrize.sol\":16116:16117  i */\n      dup2\n        /* \"/contracts/TimbPrize.sol\":16116:16139  i <= SEGMENTS_PER_ROUND */\n      gt\n        /* \"/contracts/TimbPrize.sol\":16096:16241  for (uint256 i = 1; i <= SEGMENTS_PER_ROUND; i++) {... */\n      tag_583\n      jumpi\n        /* \"/contracts/TimbPrize.sol\":16185:16186  0 */\n      0x00\n        /* \"/contracts/TimbPrize.sol\":16160:16182  segmentDigitCounter[i] */\n      dup2\n      dup2\n      mstore\n        /* \"/contracts/TimbPrize.sol\":16160:16179  segmentDigitCounter */\n      0x07\n        /* \"/contracts/TimbPrize.sol\":16160:16182  segmentDigitCounter[i] */\n      0x20\n      swap1\n      dup2\n      mstore\n      0x40\n      dup1\n      dup4\n      keccak256\n        /* \"/contracts/TimbPrize.sol\":16160:16186  segmentDigitCounter[i] = 0 */\n      dup4\n      swap1\n      sstore\n        /* \"/contracts/TimbPrize.sol\":16200:16218  segmentDigitLocked */\n      0x08\n        /* \"/contracts/TimbPrize.sol\":16200:16221  segmentDigitLocked[i] */\n      swap1\n      swap2\n      mstore\n      swap1\n      keccak256\n        /* \"/contracts/TimbPrize.sol\":16200:16230  segmentDigitLocked[i]  = false */\n      dup1\n      sload\n      not(0xff)\n      and\n      swap1\n      sstore\n        /* \"/contracts/TimbPrize.sol\":16180:16181  i */\n      dup1\n        /* \"/contracts/TimbPrize.sol\":16141:16144  i++ */\n      tag_585\n        /* \"/contracts/TimbPrize.sol\":16180:16181  i */\n      dup2\n        /* \"/contracts/TimbPrize.sol\":16141:16144  i++ */\n      tag_342\n      jump\t// in\n    tag_585:\n      swap2\n      pop\n      pop\n        /* \"/contracts/TimbPrize.sol\":16096:16241  for (uint256 i = 1; i <= SEGMENTS_PER_ROUND; i++) {... */\n      jump(tag_582)\n    tag_583:\n      pop\n        /* \"/contracts/TimbPrize.sol\":16265:16277  gameRegistry */\n      sload(0x02)\n        /* \"/contracts/TimbPrize.sol\":16295:16307  currentRound */\n      sload(0x0a)\n        /* \"/contracts/TimbPrize.sol\":16251:16308  IGameRegistry(gameRegistry).setCurrentRound(currentRound) */\n      mload(0x40)\n      shl(0xe3, 0x077923c5)\n      dup2\n      mstore\n      sub(shl(0xa0, 0x01), 0x01)\n        /* \"/contracts/TimbPrize.sol\":16265:16277  gameRegistry */\n      swap1\n      swap3\n      and\n      swap2\n        /* \"/contracts/TimbPrize.sol\":16251:16294  IGameRegistry(gameRegistry).setCurrentRound */\n      0x3bc91e28\n      swap2\n        /* \"/contracts/TimbPrize.sol\":16251:16308  IGameRegistry(gameRegistry).setCurrentRound(currentRound) */\n      tag_586\n      swap2\n      0x04\n      add\n        /* \"#utility.yul\":2457:2482   */\n      swap1\n      dup2\n      mstore\n        /* \"#utility.yul\":2445:2447   */\n      0x20\n        /* \"#utility.yul\":2430:2448   */\n      add\n      swap1\n        /* \"#utility.yul\":2311:2488   */\n      jump\n        /* \"/contracts/TimbPrize.sol\":16251:16308  IGameRegistry(gameRegistry).setCurrentRound(currentRound) */\n    tag_586:\n      0x00\n      mload(0x40)\n      dup1\n      dup4\n      sub\n      dup2\n      0x00\n      dup8\n      dup1\n      extcodesize\n      iszero\n      dup1\n      iszero\n      tag_587\n      jumpi\n      0x00\n      dup1\n      revert\n    tag_587:\n      pop\n      gas\n      call\n      iszero\n      dup1\n      iszero\n      tag_589\n      jumpi\n      returndatasize\n      0x00\n      dup1\n      returndatacopy\n      revert(0x00, returndatasize)\n    tag_589:\n      pop\n      pop\n      pop\n      pop\n        /* \"/contracts/TimbPrize.sol\":16318:16353  _activateRoundEntries(currentRound) */\n      tag_590\n        /* \"/contracts/TimbPrize.sol\":16340:16352  currentRound */\n      sload(0x0a)\n        /* \"/contracts/TimbPrize.sol\":16318:16339  _activateRoundEntries */\n      tag_520\n        /* \"/contracts/TimbPrize.sol\":16318:16353  _activateRoundEntries(currentRound) */\n      jump\t// in\n    tag_590:\n        /* \"/contracts/TimbPrize.sol\":16382:16394  currentRound */\n      sload(0x0a)\n        /* \"/contracts/TimbPrize.sol\":16369:16412  RoundStarted(currentRound, block.timestamp) */\n      mload(0x40)\n        /* \"/contracts/TimbPrize.sol\":16396:16411  block.timestamp */\n      timestamp\n        /* \"#utility.yul\":2457:2482   */\n      dup2\n      mstore\n        /* \"/contracts/TimbPrize.sol\":16369:16412  RoundStarted(currentRound, block.timestamp) */\n      0x278844837bcf8364a705384bf3a2812901f54155bae86dea81dd52aa5b9ec0e3\n      swap1\n        /* \"#utility.yul\":2445:2447   */\n      0x20\n        /* \"#utility.yul\":2430:2448   */\n      add\n        /* \"/contracts/TimbPrize.sol\":16369:16412  RoundStarted(currentRound, block.timestamp) */\n      mload(0x40)\n      dup1\n      swap2\n      sub\n      swap1\n      log2\n        /* \"/contracts/TimbPrize.sol\":16443:16455  currentRound */\n      sload(0x0a)\n        /* \"/contracts/TimbPrize.sol\":16427:16476  SegmentAdvanced(currentRound, 1, block.timestamp) */\n      0x40\n      dup1\n      mload\n        /* \"/contracts/TimbPrize.sol\":16457:16458  1 */\n      0x01\n        /* \"#utility.yul\":5591:5616   */\n      dup2\n      mstore\n        /* \"/contracts/TimbPrize.sol\":16460:16475  block.timestamp */\n      timestamp\n        /* \"#utility.yul\":5647:5649   */\n      0x20\n        /* \"#utility.yul\":5632:5650   */\n      dup3\n      add\n        /* \"#utility.yul\":5625:5659   */\n      mstore\n        /* \"/contracts/TimbPrize.sol\":16427:16476  SegmentAdvanced(currentRound, 1, block.timestamp) */\n      0xe9a2985393fa4bb459d73d85249df3b5923e70fb93b7b9c307e72359ab167587\n      swap2\n        /* \"#utility.yul\":5564:5582   */\n      add\n        /* \"/contracts/TimbPrize.sol\":16427:16476  SegmentAdvanced(currentRound, 1, block.timestamp) */\n      mload(0x40)\n      dup1\n      swap2\n      sub\n      swap1\n      log2\n        /* \"/contracts/TimbPrize.sol\":15158:16483  {... */\n      pop\n      pop\n      pop\n      pop\n      pop\n        /* \"/contracts/TimbPrize.sol\":15125:16483  function _settleRound() internal {... */\n      jump\t// out\n        /* \"@openzeppelin/contracts/access/Ownable.sol\":2912:3099  function _transferOwnership(address newOwner) internal virtual {... */\n    tag_475:\n        /* \"@openzeppelin/contracts/access/Ownable.sol\":2985:3001  address oldOwner */\n      0x00\n        /* \"@openzeppelin/contracts/access/Ownable.sol\":3004:3010  _owner */\n      dup1\n      sload\n      sub(shl(0xa0, 0x01), 0x01)\n        /* \"@openzeppelin/contracts/access/Ownable.sol\":3020:3037  _owner = newOwner */\n      dup4\n      dup2\n      and\n      not(sub(shl(0xa0, 0x01), 0x01))\n      dup4\n      and\n      dup2\n      or\n      dup5\n      sstore\n        /* \"@openzeppelin/contracts/access/Ownable.sol\":3052:3092  OwnershipTransferred(oldOwner, newOwner) */\n      mload(0x40)\n        /* \"@openzeppelin/contracts/access/Ownable.sol\":3004:3010  _owner */\n      swap2\n      swap1\n      swap3\n      and\n      swap3\n      dup4\n      swap2\n        /* \"@openzeppelin/contracts/access/Ownable.sol\":3052:3092  OwnershipTransferred(oldOwner, newOwner) */\n      0x8be0079c531659141344cd1fd0a4f28419497f9722a3daafe3b4186f6b6457e0\n      swap2\n        /* \"@openzeppelin/contracts/access/Ownable.sol\":2985:3001  address oldOwner */\n      swap1\n        /* \"@openzeppelin/contracts/access/Ownable.sol\":3052:3092  OwnershipTransferred(oldOwner, newOwner) */\n      log3\n        /* \"@openzeppelin/contracts/access/Ownable.sol\":2975:3099  {... */\n      pop\n        /* \"@openzeppelin/contracts/access/Ownable.sol\":2912:3099  function _transferOwnership(address newOwner) internal virtual {... */\n      pop\n      jump\t// out\n        /* \"/contracts/TimbPrize.sol\":19708:19995  function _activateRoundEntries(uint256 round) internal {... */\n    tag_520:\n        /* \"/contracts/TimbPrize.sol\":19827:19839  gameRegistry */\n      sload(0x02)\n        /* \"/contracts/TimbPrize.sol\":19813:19864  IGameRegistry(gameRegistry).getRoundEntrants(round) */\n      mload(0x40)\n      shl(0xe1, 0x22a56427)\n      dup2\n      mstore\n      0x04\n      dup2\n      add\n        /* \"#utility.yul\":2457:2482   */\n      dup4\n      swap1\n      mstore\n        /* \"/contracts/TimbPrize.sol\":19773:19798  address[] memory entrants */\n      0x00\n      swap2\n      sub(shl(0xa0, 0x01), 0x01)\n        /* \"/contracts/TimbPrize.sol\":19827:19839  gameRegistry */\n      and\n      swap1\n        /* \"/contracts/TimbPrize.sol\":19813:19857  IGameRegistry(gameRegistry).getRoundEntrants */\n      0x454ac84e\n      swap1\n        /* \"#utility.yul\":2430:2448   */\n      0x24\n      add\n        /* \"/contracts/TimbPrize.sol\":19813:19864  IGameRegistry(gameRegistry).getRoundEntrants(round) */\n      0x00\n      mload(0x40)\n      dup1\n      dup4\n      sub\n      dup2\n      dup7\n      gas\n      staticcall\n      iszero\n      dup1\n      iszero\n      tag_598\n      jumpi\n      returndatasize\n      0x00\n      dup1\n      returndatacopy\n      revert(0x00, returndatasize)\n    tag_598:\n      pop\n      pop\n      pop\n      pop\n      mload(0x40)\n      returndatasize\n      0x00\n      dup3\n      returndatacopy\n      0x1f\n      returndatasize\n      swap1\n      dup2\n      add\n      not(0x1f)\n      and\n      dup3\n      add\n      0x40\n      mstore\n      tag_599\n      swap2\n      swap1\n      dup2\n      add\n      swap1\n      tag_578\n      jump\t// in\n    tag_599:\n        /* \"/contracts/TimbPrize.sol\":19878:19893  entrants.length */\n      dup1\n      mload\n        /* \"/contracts/TimbPrize.sol\":19773:19864  address[] memory entrants =... */\n      swap1\n      swap2\n      pop\n        /* \"/contracts/TimbPrize.sol\":19878:19897  entrants.length > 0 */\n      iszero\n        /* \"/contracts/TimbPrize.sol\":19874:19989  if (entrants.length > 0) {... */\n      tag_600\n      jumpi\n        /* \"/contracts/TimbPrize.sol\":19927:19939  gameRegistry */\n      sload(0x02)\n        /* \"/contracts/TimbPrize.sol\":19913:19978  IGameRegistry(gameRegistry).activateRoundEntries(round, entrants) */\n      mload(0x40)\n      shl(0xe1, 0x099866c3)\n      dup2\n      mstore\n      sub(shl(0xa0, 0x01), 0x01)\n        /* \"/contracts/TimbPrize.sol\":19927:19939  gameRegistry */\n      swap1\n      swap2\n      and\n      swap1\n        /* \"/contracts/TimbPrize.sol\":19913:19961  IGameRegistry(gameRegistry).activateRoundEntries */\n      0x1330cd86\n      swap1\n        /* \"/contracts/TimbPrize.sol\":19913:19978  IGameRegistry(gameRegistry).activateRoundEntries(round, entrants) */\n      tag_601\n      swap1\n        /* \"/contracts/TimbPrize.sol\":19962:19967  round */\n      dup6\n      swap1\n        /* \"/contracts/TimbPrize.sol\":19969:19977  entrants */\n      dup6\n      swap1\n        /* \"/contracts/TimbPrize.sol\":19913:19978  IGameRegistry(gameRegistry).activateRoundEntries(round, entrants) */\n      0x04\n      add\n      tag_602\n      jump\t// in\n    tag_601:\n      0x00\n      mload(0x40)\n      dup1\n      dup4\n      sub\n      dup2\n      0x00\n      dup8\n      dup1\n      extcodesize\n      iszero\n      dup1\n      iszero\n      tag_603\n      jumpi\n      0x00\n      dup1\n      revert\n    tag_603:\n      pop\n      gas\n      call\n      iszero\n      dup1\n      iszero\n      tag_605\n      jumpi\n      returndatasize\n      0x00\n      dup1\n      returndatacopy\n      revert(0x00, returndatasize)\n    tag_605:\n      pop\n      pop\n      pop\n      pop\n        /* \"/contracts/TimbPrize.sol\":19874:19989  if (entrants.length > 0) {... */\n    tag_600:\n        /* \"/contracts/TimbPrize.sol\":19763:19995  {... */\n      pop\n        /* \"/contracts/TimbPrize.sol\":19708:19995  function _activateRoundEntries(uint256 round) internal {... */\n      pop\n      jump\t// out\n        /* \"@openzeppelin/contracts/utils/ReentrancyGuard.sol\":3586:3743  function _nonReentrantBeforeView() private view {... */\n    tag_552:\n      0x00\n      dup1\n      mload\n      0x20\n      data_c8669cf8eaf883002b9f48e28846a8d408c9b58ea6613bace374265e43c9bc43\n      dup4\n      codecopy\n      dup2\n      mload\n      swap2\n      mstore\n        /* \"@openzeppelin/contracts/utils/ReentrancyGuard.sol\":4560:4612  _reentrancyGuardStorageSlot().getUint256Slot().value */\n      sload\n        /* \"@openzeppelin/contracts/utils/ReentrancyGuard.sol\":2407:2408  2 */\n      0x02\n        /* \"@openzeppelin/contracts/utils/ReentrancyGuard.sol\":4560:4623  _reentrancyGuardStorageSlot().getUint256Slot().value == ENTERED */\n      sub\n        /* \"@openzeppelin/contracts/utils/ReentrancyGuard.sol\":3644:3737  if (_reentrancyGuardEntered()) {... */\n      tag_346\n      jumpi\n        /* \"@openzeppelin/contracts/utils/ReentrancyGuard.sol\":3696:3726  ReentrancyGuardReentrantCall() */\n      mload(0x40)\n      shl(0xe0, 0x3ee5aeb5)\n      dup2\n      mstore\n      0x04\n      add\n      mload(0x40)\n      dup1\n      swap2\n      sub\n      swap1\n      revert\n        /* \"/contracts/TimbPrize.sol\":16580:16868  function _buildWinningString() internal view returns (bytes6) {... */\n    tag_565:\n        /* \"/contracts/TimbPrize.sol\":16674:16686  new bytes(6) */\n      0x40\n      dup1\n      mload\n        /* \"/contracts/TimbPrize.sol\":16684:16685  6 */\n      0x06\n        /* \"/contracts/TimbPrize.sol\":16674:16686  new bytes(6) */\n      dup1\n      dup3\n      mstore\n      dup2\n      dup4\n      add\n      swap1\n      swap3\n      mstore\n        /* \"/contracts/TimbPrize.sol\":16634:16640  bytes6 */\n      0x00\n      swap2\n      dup3\n      swap2\n        /* \"/contracts/TimbPrize.sol\":16674:16686  new bytes(6) */\n      swap1\n      0x20\n      dup3\n      add\n      dup2\n      dup1\n      calldatasize\n      dup4\n      calldatacopy\n      add\n      swap1\n      pop\n      pop\n        /* \"/contracts/TimbPrize.sol\":16652:16686  bytes memory result = new bytes(6) */\n      swap1\n      pop\n        /* \"/contracts/TimbPrize.sol\":16713:16714  1 */\n      0x01\n        /* \"/contracts/TimbPrize.sol\":16696:16824  for (uint256 i = 1; i <= SEGMENTS_PER_ROUND; i++) {... */\n    tag_617:\n        /* \"/contracts/TimbPrize.sol\":4238:4239  6 */\n      0x06\n        /* \"/contracts/TimbPrize.sol\":16716:16717  i */\n      dup2\n        /* \"/contracts/TimbPrize.sol\":16716:16739  i <= SEGMENTS_PER_ROUND */\n      gt\n        /* \"/contracts/TimbPrize.sol\":16696:16824  for (uint256 i = 1; i <= SEGMENTS_PER_ROUND; i++) {... */\n      tag_354\n      jumpi\n        /* \"/contracts/TimbPrize.sol\":16776:16784  ALPHABET */\n      mload(0x40)\n      dup1\n      0x60\n      add\n      0x40\n      mstore\n      dup1\n      0x24\n      dup2\n      mstore\n      0x20\n      add\n      data_d1b12de380b5f3a30ba38a23a69e5703e0569d4a1fc4ac869b5f2bb883f9bcc1\n      0x24\n      swap2\n      codecopy\n        /* \"/contracts/TimbPrize.sol\":16785:16807  segmentDigitCounter[i] */\n      0x00\n      dup3\n      dup2\n      mstore\n        /* \"/contracts/TimbPrize.sol\":16785:16804  segmentDigitCounter */\n      0x07\n        /* \"/contracts/TimbPrize.sol\":16785:16807  segmentDigitCounter[i] */\n      0x20\n      mstore\n      0x40\n      swap1\n      keccak256\n      sload\n        /* \"/contracts/TimbPrize.sol\":16785:16812  segmentDigitCounter[i] % 36 */\n      tag_620\n      swap1\n        /* \"/contracts/TimbPrize.sol\":16810:16812  36 */\n      0x24\n      swap1\n        /* \"/contracts/TimbPrize.sol\":16785:16812  segmentDigitCounter[i] % 36 */\n      tag_360\n      jump\t// in\n    tag_620:\n        /* \"/contracts/TimbPrize.sol\":16776:16813  ALPHABET[segmentDigitCounter[i] % 36] */\n      dup2\n      mload\n      dup2\n      lt\n      tag_622\n      jumpi\n      tag_622\n      tag_363\n      jump\t// in\n    tag_622:\n      add\n      0x20\n      add\n      mload\n      not(sub(shl(0xf8, 0x01), 0x01))\n      and\n        /* \"/contracts/TimbPrize.sol\":16760:16766  result */\n      dup3\n        /* \"/contracts/TimbPrize.sol\":16767:16772  i - 1 */\n      tag_623\n        /* \"/contracts/TimbPrize.sol\":16771:16772  1 */\n      0x01\n        /* \"/contracts/TimbPrize.sol\":16767:16768  i */\n      dup5\n        /* \"/contracts/TimbPrize.sol\":16767:16772  i - 1 */\n      tag_357\n      jump\t// in\n    tag_623:\n        /* \"/contracts/TimbPrize.sol\":16760:16773  result[i - 1] */\n      dup2\n      mload\n      dup2\n      lt\n      tag_625\n      jumpi\n      tag_625\n      tag_363\n      jump\t// in\n    tag_625:\n      0x20\n      add\n      add\n        /* \"/contracts/TimbPrize.sol\":16760:16813  result[i - 1] = ALPHABET[segmentDigitCounter[i] % 36] */\n      swap1\n      not(sub(shl(0xf8, 0x01), 0x01))\n      and\n      swap1\n      dup2\n      0x00\n      byte\n      swap1\n      mstore8\n      pop\n        /* \"/contracts/TimbPrize.sol\":16741:16744  i++ */\n      dup1\n      tag_626\n      dup2\n      tag_342\n      jump\t// in\n    tag_626:\n      swap2\n      pop\n      pop\n        /* \"/contracts/TimbPrize.sol\":16696:16824  for (uint256 i = 1; i <= SEGMENTS_PER_ROUND; i++) {... */\n      jump(tag_617)\n        /* \"/contracts/TimbPrize.sol\":17090:18320  function _findVerifiedWinners(uint256 round, bytes6 winningString)... */\n    tag_569:\n        /* \"/contracts/TimbPrize.sol\":17321:17333  gameRegistry */\n      sload(0x02)\n        /* \"/contracts/TimbPrize.sol\":17307:17374  IGameRegistry(gameRegistry).getStringEntrants(round, winningString) */\n      mload(0x40)\n      shl(0xe0, 0x9fd11627)\n      dup2\n      mstore\n      0x04\n      dup2\n      add\n        /* \"#utility.yul\":7440:7465   */\n      dup5\n      swap1\n      mstore\n      not(sub(shl(0xd0, 0x01), 0x01))\n        /* \"#utility.yul\":7501:7538   */\n      dup4\n      and\n        /* \"#utility.yul\":7481:7499   */\n      0x24\n      dup3\n      add\n        /* \"#utility.yul\":7474:7539   */\n      mstore\n        /* \"/contracts/TimbPrize.sol\":17204:17228  address[] memory winners */\n      0x60\n      swap2\n        /* \"/contracts/TimbPrize.sol\":17230:17249  uint256 winnerCount */\n      0x00\n      swap2\n      dup3\n      swap2\n      sub(shl(0xa0, 0x01), 0x01)\n        /* \"/contracts/TimbPrize.sol\":17321:17333  gameRegistry */\n      and\n      swap1\n        /* \"/contracts/TimbPrize.sol\":17307:17352  IGameRegistry(gameRegistry).getStringEntrants */\n      0x9fd11627\n      swap1\n        /* \"#utility.yul\":7413:7431   */\n      0x44\n      add\n        /* \"/contracts/TimbPrize.sol\":17307:17374  IGameRegistry(gameRegistry).getStringEntrants(round, winningString) */\n      0x00\n      mload(0x40)\n      dup1\n      dup4\n      sub\n      dup2\n      dup7\n      gas\n      staticcall\n      iszero\n      dup1\n      iszero\n      tag_631\n      jumpi\n      returndatasize\n      0x00\n      dup1\n      returndatacopy\n      revert(0x00, returndatasize)\n    tag_631:\n      pop\n      pop\n      pop\n      pop\n      mload(0x40)\n      returndatasize\n      0x00\n      dup3\n      returndatacopy\n      0x1f\n      returndatasize\n      swap1\n      dup2\n      add\n      not(0x1f)\n      and\n      dup3\n      add\n      0x40\n      mstore\n      tag_632\n      swap2\n      swap1\n      dup2\n      add\n      swap1\n      tag_578\n      jump\t// in\n    tag_632:\n        /* \"/contracts/TimbPrize.sol\":17265:17374  address[] memory candidates =... */\n      swap1\n      pop\n        /* \"/contracts/TimbPrize.sol\":17385:17410  address[] memory verified */\n      0x00\n        /* \"/contracts/TimbPrize.sol\":17427:17437  candidates */\n      dup2\n        /* \"/contracts/TimbPrize.sol\":17427:17444  candidates.length */\n      mload\n        /* \"/contracts/TimbPrize.sol\":17413:17445  new address[](candidates.length) */\n      0xffffffffffffffff\n      dup2\n      gt\n      iszero\n      tag_634\n      jumpi\n      tag_634\n      tag_351\n      jump\t// in\n    tag_634:\n      mload(0x40)\n      swap1\n      dup1\n      dup3\n      mstore\n      dup1\n      0x20\n      mul\n      0x20\n      add\n      dup3\n      add\n      0x40\n      mstore\n      dup1\n      iszero\n      tag_635\n      jumpi\n      dup2\n      0x20\n      add\n      0x20\n      dup3\n      mul\n      dup1\n      calldatasize\n      dup4\n      calldatacopy\n      add\n      swap1\n      pop\n    tag_635:\n      pop\n        /* \"/contracts/TimbPrize.sol\":17385:17445  address[] memory verified = new address[](candidates.length) */\n      swap1\n      pop\n        /* \"/contracts/TimbPrize.sol\":17461:17470  uint256 i */\n      0x00\n        /* \"/contracts/TimbPrize.sol\":17456:18167  for (uint256 i = 0; i < candidates.length; i++) {... */\n    tag_636:\n        /* \"/contracts/TimbPrize.sol\":17480:17490  candidates */\n      dup3\n        /* \"/contracts/TimbPrize.sol\":17480:17497  candidates.length */\n      mload\n        /* \"/contracts/TimbPrize.sol\":17476:17477  i */\n      dup2\n        /* \"/contracts/TimbPrize.sol\":17476:17497  i < candidates.length */\n      lt\n        /* \"/contracts/TimbPrize.sol\":17456:18167  for (uint256 i = 0; i < candidates.length; i++) {... */\n      iszero\n      tag_637\n      jumpi\n        /* \"/contracts/TimbPrize.sol\":17518:17535  address candidate */\n      0x00\n        /* \"/contracts/TimbPrize.sol\":17538:17548  candidates */\n      dup4\n        /* \"/contracts/TimbPrize.sol\":17549:17550  i */\n      dup3\n        /* \"/contracts/TimbPrize.sol\":17538:17551  candidates[i] */\n      dup2\n      mload\n      dup2\n      lt\n      tag_640\n      jumpi\n      tag_640\n      tag_363\n      jump\t// in\n    tag_640:\n      0x20\n      swap1\n      dup2\n      mul\n      swap2\n      swap1\n      swap2\n      add\n      add\n      mload\n        /* \"/contracts/TimbPrize.sol\":17688:17700  gameRegistry */\n      sload(0x02)\n        /* \"/contracts/TimbPrize.sol\":17674:17738  IGameRegistry(gameRegistry).verifyEntryExisted(candidate, round) */\n      mload(0x40)\n      shl(0xe0, 0xa96de4f5)\n      dup2\n      mstore\n      sub(shl(0xa0, 0x01), 0x01)\n        /* \"#utility.yul\":7181:7213   */\n      dup1\n      dup5\n      and\n        /* \"/contracts/TimbPrize.sol\":17674:17738  IGameRegistry(gameRegistry).verifyEntryExisted(candidate, round) */\n      0x04\n      dup4\n      add\n        /* \"#utility.yul\":7163:7214   */\n      mstore\n        /* \"#utility.yul\":7230:7248   */\n      0x24\n      dup3\n      add\n        /* \"#utility.yul\":7223:7257   */\n      dup13\n      swap1\n      mstore\n        /* \"/contracts/TimbPrize.sol\":17538:17551  candidates[i] */\n      swap3\n      swap4\n      pop\n        /* \"/contracts/TimbPrize.sol\":17620:17632  bool existed */\n      0x00\n      swap3\n      dup4\n      swap3\n        /* \"/contracts/TimbPrize.sol\":17688:17700  gameRegistry */\n      and\n      swap1\n        /* \"/contracts/TimbPrize.sol\":17674:17720  IGameRegistry(gameRegistry).verifyEntryExisted */\n      0xa96de4f5\n      swap1\n        /* \"#utility.yul\":7136:7154   */\n      0x44\n      add\n        /* \"/contracts/TimbPrize.sol\":17674:17738  IGameRegistry(gameRegistry).verifyEntryExisted(candidate, round) */\n      0x40\n      dup1\n      mload\n      dup1\n      dup4\n      sub\n      dup2\n      dup7\n      gas\n      staticcall\n      iszero\n      dup1\n      iszero\n      tag_643\n      jumpi\n      returndatasize\n      0x00\n      dup1\n      returndatacopy\n      revert(0x00, returndatasize)\n    tag_643:\n      pop\n      pop\n      pop\n      pop\n      mload(0x40)\n      returndatasize\n      not(0x1f)\n      0x1f\n      dup3\n      add\n      and\n      dup3\n      add\n      dup1\n      0x40\n      mstore\n      pop\n      dup2\n      add\n      swap1\n      tag_644\n      swap2\n      swap1\n      tag_645\n      jump\t// in\n    tag_644:\n        /* \"/contracts/TimbPrize.sol\":17619:17738  (bool existed, bytes6 existedString) =... */\n      swap2\n      pop\n      swap2\n      pop\n        /* \"/contracts/TimbPrize.sol\":17757:17764  existed */\n      dup2\n        /* \"/contracts/TimbPrize.sol\":17752:17774  if (!existed) continue */\n      tag_646\n      jumpi\n        /* \"/contracts/TimbPrize.sol\":17766:17774  continue */\n      pop\n      pop\n      pop\n      jump(tag_638)\n        /* \"/contracts/TimbPrize.sol\":17752:17774  if (!existed) continue */\n    tag_646:\n      not(sub(shl(0xd0, 0x01), 0x01))\n        /* \"/contracts/TimbPrize.sol\":17792:17822  existedString != winningString */\n      dup2\n      dup2\n      and\n      swap1\n      dup11\n      and\n      eq\n        /* \"/contracts/TimbPrize.sol\":17788:17832  if (existedString != winningString) continue */\n      tag_647\n      jumpi\n        /* \"/contracts/TimbPrize.sol\":17824:17832  continue */\n      pop\n      pop\n      pop\n      jump(tag_638)\n        /* \"/contracts/TimbPrize.sol\":17788:17832  if (existedString != winningString) continue */\n    tag_647:\n        /* \"/contracts/TimbPrize.sol\":17968:17980  gameRegistry */\n      sload(0x02)\n        /* \"/contracts/TimbPrize.sol\":17954:18016  IGameRegistry(gameRegistry).verifyEntryValid(candidate, round) */\n      mload(0x40)\n      shl(0xe0, 0xc106aee3)\n      dup2\n      mstore\n      sub(shl(0xa0, 0x01), 0x01)\n        /* \"#utility.yul\":7181:7213   */\n      dup6\n      dup2\n      and\n        /* \"/contracts/TimbPrize.sol\":17954:18016  IGameRegistry(gameRegistry).verifyEntryValid(candidate, round) */\n      0x04\n      dup4\n      add\n        /* \"#utility.yul\":7163:7214   */\n      mstore\n        /* \"#utility.yul\":7230:7248   */\n      0x24\n      dup3\n      add\n        /* \"#utility.yul\":7223:7257   */\n      dup14\n      swap1\n      mstore\n        /* \"/contracts/TimbPrize.sol\":17904:17914  bool valid */\n      0x00\n      swap3\n      dup4\n      swap3\n        /* \"/contracts/TimbPrize.sol\":17968:17980  gameRegistry */\n      swap2\n      and\n      swap1\n        /* \"/contracts/TimbPrize.sol\":17954:17998  IGameRegistry(gameRegistry).verifyEntryValid */\n      0xc106aee3\n      swap1\n        /* \"#utility.yul\":7136:7154   */\n      0x44\n      add\n        /* \"/contracts/TimbPrize.sol\":17954:18016  IGameRegistry(gameRegistry).verifyEntryValid(candidate, round) */\n      0x40\n      dup1\n      mload\n      dup1\n      dup4\n      sub\n      dup2\n      dup7\n      gas\n      staticcall\n      iszero\n      dup1\n      iszero\n      tag_650\n      jumpi\n      returndatasize\n      0x00\n      dup1\n      returndatacopy\n      revert(0x00, returndatasize)\n    tag_650:\n      pop\n      pop\n      pop\n      pop\n      mload(0x40)\n      returndatasize\n      not(0x1f)\n      0x1f\n      dup3\n      add\n      and\n      dup3\n      add\n      dup1\n      0x40\n      mstore\n      pop\n      dup2\n      add\n      swap1\n      tag_651\n      swap2\n      swap1\n      tag_645\n      jump\t// in\n    tag_651:\n        /* \"/contracts/TimbPrize.sol\":17903:18016  (bool valid, bytes6 validString) =... */\n      swap2\n      pop\n      swap2\n      pop\n        /* \"/contracts/TimbPrize.sol\":18035:18040  valid */\n      dup2\n        /* \"/contracts/TimbPrize.sol\":18030:18050  if (!valid) continue */\n      tag_652\n      jumpi\n        /* \"/contracts/TimbPrize.sol\":18042:18050  continue */\n      pop\n      pop\n      pop\n      pop\n      pop\n      jump(tag_638)\n        /* \"/contracts/TimbPrize.sol\":18030:18050  if (!valid) continue */\n    tag_652:\n      not(sub(shl(0xd0, 0x01), 0x01))\n        /* \"/contracts/TimbPrize.sol\":18068:18096  validString != winningString */\n      dup2\n      dup2\n      and\n      swap1\n      dup13\n      and\n      eq\n        /* \"/contracts/TimbPrize.sol\":18064:18106  if (validString != winningString) continue */\n      tag_653\n      jumpi\n        /* \"/contracts/TimbPrize.sol\":18098:18106  continue */\n      pop\n      pop\n      pop\n      pop\n      pop\n      jump(tag_638)\n        /* \"/contracts/TimbPrize.sol\":18064:18106  if (validString != winningString) continue */\n    tag_653:\n        /* \"/contracts/TimbPrize.sol\":18147:18156  candidate */\n      dup5\n        /* \"/contracts/TimbPrize.sol\":18121:18129  verified */\n      dup8\n        /* \"/contracts/TimbPrize.sol\":18130:18143  winnerCount++ */\n      dup11\n      tag_654\n      dup2\n      tag_342\n      jump\t// in\n    tag_654:\n      swap12\n      pop\n        /* \"/contracts/TimbPrize.sol\":18121:18144  verified[winnerCount++] */\n      dup2\n      mload\n      dup2\n      lt\n      tag_656\n      jumpi\n      tag_656\n      tag_363\n      jump\t// in\n    tag_656:\n      0x20\n      mul\n      0x20\n      add\n      add\n        /* \"/contracts/TimbPrize.sol\":18121:18156  verified[winnerCount++] = candidate */\n      swap1\n      sub(shl(0xa0, 0x01), 0x01)\n      and\n      swap1\n      dup2\n      sub(shl(0xa0, 0x01), 0x01)\n      and\n      dup2\n      mstore\n      pop\n      pop\n        /* \"/contracts/TimbPrize.sol\":17504:18167  {... */\n      pop\n      pop\n      pop\n      pop\n      pop\n        /* \"/contracts/TimbPrize.sol\":17456:18167  for (uint256 i = 0; i < candidates.length; i++) {... */\n    tag_638:\n        /* \"/contracts/TimbPrize.sol\":17499:17502  i++ */\n      0x01\n      add\n        /* \"/contracts/TimbPrize.sol\":17456:18167  for (uint256 i = 0; i < candidates.length; i++) {... */\n      jump(tag_636)\n    tag_637:\n      pop\n        /* \"/contracts/TimbPrize.sol\":18201:18212  winnerCount */\n      dup3\n        /* \"/contracts/TimbPrize.sol\":18187:18213  new address[](winnerCount) */\n      0xffffffffffffffff\n      dup2\n      gt\n      iszero\n      tag_658\n      jumpi\n      tag_658\n      tag_351\n      jump\t// in\n    tag_658:\n      mload(0x40)\n      swap1\n      dup1\n      dup3\n      mstore\n      dup1\n      0x20\n      mul\n      0x20\n      add\n      dup3\n      add\n      0x40\n      mstore\n      dup1\n      iszero\n      tag_659\n      jumpi\n      dup2\n      0x20\n      add\n      0x20\n      dup3\n      mul\n      dup1\n      calldatasize\n      dup4\n      calldatacopy\n      add\n      swap1\n      pop\n    tag_659:\n      pop\n        /* \"/contracts/TimbPrize.sol\":18177:18213  winners = new address[](winnerCount) */\n      swap4\n      pop\n        /* \"/contracts/TimbPrize.sol\":18228:18237  uint256 i */\n      0x00\n        /* \"/contracts/TimbPrize.sol\":18223:18314  for (uint256 i = 0; i < winnerCount; i++) {... */\n    tag_660:\n        /* \"/contracts/TimbPrize.sol\":18247:18258  winnerCount */\n      dup4\n        /* \"/contracts/TimbPrize.sol\":18243:18244  i */\n      dup2\n        /* \"/contracts/TimbPrize.sol\":18243:18258  i < winnerCount */\n      lt\n        /* \"/contracts/TimbPrize.sol\":18223:18314  for (uint256 i = 0; i < winnerCount; i++) {... */\n      iszero\n      tag_661\n      jumpi\n        /* \"/contracts/TimbPrize.sol\":18292:18300  verified */\n      dup2\n        /* \"/contracts/TimbPrize.sol\":18301:18302  i */\n      dup2\n        /* \"/contracts/TimbPrize.sol\":18292:18303  verified[i] */\n      dup2\n      mload\n      dup2\n      lt\n      tag_664\n      jumpi\n      tag_664\n      tag_363\n      jump\t// in\n    tag_664:\n      0x20\n      mul\n      0x20\n      add\n      add\n      mload\n        /* \"/contracts/TimbPrize.sol\":18279:18286  winners */\n      dup6\n        /* \"/contracts/TimbPrize.sol\":18287:18288  i */\n      dup3\n        /* \"/contracts/TimbPrize.sol\":18279:18289  winners[i] */\n      dup2\n      mload\n      dup2\n      lt\n      tag_666\n      jumpi\n      tag_666\n      tag_363\n      jump\t// in\n    tag_666:\n      sub(shl(0xa0, 0x01), 0x01)\n        /* \"/contracts/TimbPrize.sol\":18279:18303  winners[i] = verified[i] */\n      swap1\n      swap3\n      and\n        /* \"/contracts/TimbPrize.sol\":18279:18289  winners[i] */\n      0x20\n      swap3\n      dup4\n      mul\n      swap2\n      swap1\n      swap2\n      add\n      swap1\n      swap2\n      add\n        /* \"/contracts/TimbPrize.sol\":18279:18303  winners[i] = verified[i] */\n      mstore\n        /* \"/contracts/TimbPrize.sol\":18260:18263  i++ */\n      0x01\n      add\n        /* \"/contracts/TimbPrize.sol\":18223:18314  for (uint256 i = 0; i < winnerCount; i++) {... */\n      jump(tag_660)\n    tag_661:\n      pop\n        /* \"/contracts/TimbPrize.sol\":17255:18320  {... */\n      pop\n      pop\n        /* \"/contracts/TimbPrize.sol\":17090:18320  function _findVerifiedWinners(uint256 round, bytes6 winningString)... */\n      swap3\n      pop\n      swap3\n      swap1\n      pop\n      jump\t// out\n        /* \"/contracts/TimbPrize.sol\":18573:19611  function _distributePotAndRecord(... */\n    tag_571:\n        /* \"/contracts/TimbPrize.sol\":18731:18756  currentAccumulatedRewards */\n      sload(0x0e)\n        /* \"/contracts/TimbPrize.sol\":18825:18839  protocolCutBps */\n      sload(0x11)\n        /* \"/contracts/TimbPrize.sol\":18717:18728  uint256 pot */\n      0x00\n      swap1\n      dup2\n      swap1\n        /* \"/contracts/TimbPrize.sol\":18825:18843  protocolCutBps > 0 */\n      iszero\n      dup1\n      iszero\n      swap1\n        /* \"/contracts/TimbPrize.sol\":18825:18854  protocolCutBps > 0 && pot > 0 */\n      tag_668\n      jumpi\n      pop\n        /* \"/contracts/TimbPrize.sol\":18853:18854  0 */\n      0x00\n        /* \"/contracts/TimbPrize.sol\":18847:18850  pot */\n      dup4\n        /* \"/contracts/TimbPrize.sol\":18847:18854  pot > 0 */\n      gt\n        /* \"/contracts/TimbPrize.sol\":18825:18854  protocolCutBps > 0 && pot > 0 */\n    tag_668:\n        /* \"/contracts/TimbPrize.sol\":18821:18990  if (protocolCutBps > 0 && pot > 0) {... */\n      iszero\n      tag_669\n      jumpi\n        /* \"/contracts/TimbPrize.sol\":18870:18881  uint256 cut */\n      0x00\n        /* \"/contracts/TimbPrize.sol\":18909:18915  10_000 */\n      0x2710\n        /* \"/contracts/TimbPrize.sol\":18891:18905  protocolCutBps */\n      sload(0x11)\n        /* \"/contracts/TimbPrize.sol\":18885:18888  pot */\n      dup6\n        /* \"/contracts/TimbPrize.sol\":18885:18905  pot * protocolCutBps */\n      tag_670\n      swap2\n      swap1\n      tag_438\n      jump\t// in\n    tag_670:\n        /* \"/contracts/TimbPrize.sol\":18884:18915  (pot * protocolCutBps) / 10_000 */\n      tag_671\n      swap2\n      swap1\n      tag_672\n      jump\t// in\n    tag_671:\n        /* \"/contracts/TimbPrize.sol\":18870:18915  uint256 cut = (pot * protocolCutBps) / 10_000 */\n      swap1\n      pop\n        /* \"/contracts/TimbPrize.sol\":18929:18939  pot -= cut */\n      tag_673\n        /* \"/contracts/TimbPrize.sol\":18870:18915  uint256 cut = (pot * protocolCutBps) / 10_000 */\n      dup2\n        /* \"/contracts/TimbPrize.sol\":18929:18939  pot -= cut */\n      dup6\n      tag_357\n      jump\t// in\n    tag_673:\n      swap4\n      pop\n        /* \"/contracts/TimbPrize.sol\":18958:18979  ProtocolCutTaken(cut) */\n      0x85fcfc84baa0423652490bdd8531f642a3376cb202145025b549fb449516e5a8\n        /* \"/contracts/TimbPrize.sol\":18975:18978  cut */\n      dup2\n        /* \"/contracts/TimbPrize.sol\":18958:18979  ProtocolCutTaken(cut) */\n      mload(0x40)\n      tag_674\n      swap2\n        /* \"#utility.yul\":2457:2482   */\n      dup2\n      mstore\n        /* \"#utility.yul\":2445:2447   */\n      0x20\n        /* \"#utility.yul\":2430:2448   */\n      add\n      swap1\n        /* \"#utility.yul\":2311:2488   */\n      jump\n        /* \"/contracts/TimbPrize.sol\":18958:18979  ProtocolCutTaken(cut) */\n    tag_674:\n      mload(0x40)\n      dup1\n      swap2\n      sub\n      swap1\n      log1\n        /* \"/contracts/TimbPrize.sol\":18856:18990  {... */\n      pop\n        /* \"/contracts/TimbPrize.sol\":18821:18990  if (protocolCutBps > 0 && pot > 0) {... */\n    tag_669:\n      pop\n        /* \"/contracts/TimbPrize.sol\":19043:19046  pot */\n      dup2\n        /* \"/contracts/TimbPrize.sol\":19000:19017  uint256 totalPaid */\n      0x00\n        /* \"/contracts/TimbPrize.sol\":19061:19076  winnerCount > 0 */\n      dup5\n      iszero\n        /* \"/contracts/TimbPrize.sol\":19057:19222  if (winnerCount > 0) {... */\n      tag_675\n      jumpi\n        /* \"/contracts/TimbPrize.sol\":19104:19121  pot / winnerCount */\n      tag_676\n        /* \"/contracts/TimbPrize.sol\":19110:19121  winnerCount */\n      dup6\n        /* \"/contracts/TimbPrize.sol\":19104:19107  pot */\n      dup6\n        /* \"/contracts/TimbPrize.sol\":19104:19121  pot / winnerCount */\n      tag_672\n      jump\t// in\n    tag_676:\n        /* \"/contracts/TimbPrize.sol\":19092:19121  perWinner = pot / winnerCount */\n      swap3\n      pop\n        /* \"/contracts/TimbPrize.sol\":19147:19170  perWinner * winnerCount */\n      tag_677\n        /* \"/contracts/TimbPrize.sol\":19159:19170  winnerCount */\n      dup6\n        /* \"/contracts/TimbPrize.sol\":19092:19121  perWinner = pot / winnerCount */\n      dup5\n        /* \"/contracts/TimbPrize.sol\":19147:19170  perWinner * winnerCount */\n      tag_438\n      jump\t// in\n    tag_677:\n        /* \"/contracts/TimbPrize.sol\":19135:19170  totalPaid = perWinner * winnerCount */\n      swap1\n      pop\n        /* \"/contracts/TimbPrize.sol\":19196:19211  pot - totalPaid */\n      tag_678\n        /* \"/contracts/TimbPrize.sol\":19135:19170  totalPaid = perWinner * winnerCount */\n      dup2\n        /* \"/contracts/TimbPrize.sol\":19196:19199  pot */\n      dup6\n        /* \"/contracts/TimbPrize.sol\":19196:19211  pot - totalPaid */\n      tag_357\n      jump\t// in\n    tag_678:\n        /* \"/contracts/TimbPrize.sol\":19184:19211  remainder = pot - totalPaid */\n      swap2\n      pop\n        /* \"/contracts/TimbPrize.sol\":19057:19222  if (winnerCount > 0) {... */\n    tag_675:\n        /* \"/contracts/TimbPrize.sol\":19237:19246  uint256 i */\n      0x00\n        /* \"/contracts/TimbPrize.sol\":19232:19335  for (uint256 i = 0; i < winnerCount; i++) {... */\n    tag_679:\n        /* \"/contracts/TimbPrize.sol\":19256:19267  winnerCount */\n      dup6\n        /* \"/contracts/TimbPrize.sol\":19252:19253  i */\n      dup2\n        /* \"/contracts/TimbPrize.sol\":19252:19267  i < winnerCount */\n      lt\n        /* \"/contracts/TimbPrize.sol\":19232:19335  for (uint256 i = 0; i < winnerCount; i++) {... */\n      iszero\n      tag_680\n      jumpi\n        /* \"/contracts/TimbPrize.sol\":19288:19307  roundWinners[round] */\n      0x00\n      dup9\n      dup2\n      mstore\n        /* \"/contracts/TimbPrize.sol\":19288:19300  roundWinners */\n      0x14\n        /* \"/contracts/TimbPrize.sol\":19288:19307  roundWinners[round] */\n      0x20\n      mstore\n      0x40\n      swap1\n      keccak256\n        /* \"/contracts/TimbPrize.sol\":19313:19323  winners[i] */\n      dup8\n      mload\n        /* \"/contracts/TimbPrize.sol\":19313:19320  winners */\n      dup9\n      swap1\n        /* \"/contracts/TimbPrize.sol\":19321:19322  i */\n      dup4\n      swap1\n        /* \"/contracts/TimbPrize.sol\":19313:19323  winners[i] */\n      dup2\n      lt\n      tag_683\n      jumpi\n      tag_683\n      tag_363\n      jump\t// in\n    tag_683:\n      0x20\n      swap1\n      dup2\n      mul\n      swap2\n      swap1\n      swap2\n      add\n      dup2\n      add\n      mload\n        /* \"/contracts/TimbPrize.sol\":19288:19324  roundWinners[round].push(winners[i]) */\n      dup3\n      sload\n      0x01\n      dup1\n      dup3\n      add\n      dup6\n      sstore\n      0x00\n      swap5\n      dup6\n      mstore\n      swap3\n      swap1\n      swap4\n      keccak256\n      swap1\n      swap3\n      add\n      dup1\n      sload\n      not(sub(shl(0xa0, 0x01), 0x01))\n      and\n      sub(shl(0xa0, 0x01), 0x01)\n      swap1\n      swap4\n      and\n      swap3\n      swap1\n      swap3\n      or\n      swap1\n      swap2\n      sstore\n        /* \"/contracts/TimbPrize.sol\":19269:19272  i++ */\n      add\n        /* \"/contracts/TimbPrize.sol\":19232:19335  for (uint256 i = 0; i < winnerCount; i++) {... */\n      jump(tag_679)\n    tag_680:\n      pop\n        /* \"/contracts/TimbPrize.sol\":19345:19366  roundPotAmount[round] */\n      0x00\n      dup8\n      dup2\n      mstore\n        /* \"/contracts/TimbPrize.sol\":19345:19359  roundPotAmount */\n      0x13\n        /* \"/contracts/TimbPrize.sol\":19345:19366  roundPotAmount[round] */\n      0x20\n      swap1\n      dup2\n      mstore\n      0x40\n      dup1\n      dup4\n      keccak256\n        /* \"/contracts/TimbPrize.sol\":19345:19378  roundPotAmount[round]       = pot */\n      dup8\n      swap1\n      sstore\n        /* \"/contracts/TimbPrize.sol\":19388:19408  roundPerWinnerAmount */\n      0x15\n        /* \"/contracts/TimbPrize.sol\":19388:19415  roundPerWinnerAmount[round] */\n      dup3\n      mstore\n      dup1\n      dup4\n      keccak256\n        /* \"/contracts/TimbPrize.sol\":19388:19427  roundPerWinnerAmount[round] = perWinner */\n      dup7\n      swap1\n      sstore\n        /* \"/contracts/TimbPrize.sol\":19437:19451  roundRemainder */\n      0x16\n        /* \"/contracts/TimbPrize.sol\":19437:19458  roundRemainder[round] */\n      swap1\n      swap2\n      mstore\n      dup2\n      keccak256\n        /* \"/contracts/TimbPrize.sol\":19437:19476  roundRemainder[round]       = remainder */\n      dup4\n      swap1\n      sstore\n        /* \"/contracts/TimbPrize.sol\":19487:19513  gameUnclaimed_winningsPool */\n      0x0f\n        /* \"/contracts/TimbPrize.sol\":19487:19526  gameUnclaimed_winningsPool += totalPaid */\n      dup1\n      sload\n        /* \"/contracts/TimbPrize.sol\":19517:19526  totalPaid */\n      dup4\n      swap3\n        /* \"/contracts/TimbPrize.sol\":19345:19366  roundPotAmount[round] */\n      swap1\n        /* \"/contracts/TimbPrize.sol\":19487:19526  gameUnclaimed_winningsPool += totalPaid */\n      tag_685\n      swap1\n        /* \"/contracts/TimbPrize.sol\":19517:19526  totalPaid */\n      dup5\n      swap1\n        /* \"/contracts/TimbPrize.sol\":19487:19526  gameUnclaimed_winningsPool += totalPaid */\n      tag_382\n      jump\t// in\n    tag_685:\n      swap1\n      swap2\n      sstore\n      pop\n      pop\n      pop\n        /* \"/contracts/TimbPrize.sol\":19536:19561  currentAccumulatedRewards */\n      0x0e\n        /* \"/contracts/TimbPrize.sol\":19536:19575  currentAccumulatedRewards   = remainder */\n      sstore\n      pop\n      pop\n      pop\n      pop\n      pop\n        /* \"/contracts/TimbPrize.sol\":18573:19611  function _distributePotAndRecord(... */\n      jump\t// out\n        /* \"/contracts/TimbPrize.sol\":20172:21067  function _processExpiredEntries(uint256 settledRound) internal {... */\n    tag_573:\n        /* \"/contracts/TimbPrize.sol\":20299:20311  gameRegistry */\n      sload(0x02)\n        /* \"/contracts/TimbPrize.sol\":20285:20343  IGameRegistry(gameRegistry).getRoundEntrants(settledRound) */\n      mload(0x40)\n      shl(0xe1, 0x22a56427)\n      dup2\n      mstore\n      0x04\n      dup2\n      add\n        /* \"#utility.yul\":2457:2482   */\n      dup4\n      swap1\n      mstore\n        /* \"/contracts/TimbPrize.sol\":20245:20270  address[] memory entrants */\n      0x00\n      swap2\n      sub(shl(0xa0, 0x01), 0x01)\n        /* \"/contracts/TimbPrize.sol\":20299:20311  gameRegistry */\n      and\n      swap1\n        /* \"/contracts/TimbPrize.sol\":20285:20329  IGameRegistry(gameRegistry).getRoundEntrants */\n      0x454ac84e\n      swap1\n        /* \"#utility.yul\":2430:2448   */\n      0x24\n      add\n        /* \"/contracts/TimbPrize.sol\":20285:20343  IGameRegistry(gameRegistry).getRoundEntrants(settledRound) */\n      0x00\n      mload(0x40)\n      dup1\n      dup4\n      sub\n      dup2\n      dup7\n      gas\n      staticcall\n      iszero\n      dup1\n      iszero\n      tag_689\n      jumpi\n      returndatasize\n      0x00\n      dup1\n      returndatacopy\n      revert(0x00, returndatasize)\n    tag_689:\n      pop\n      pop\n      pop\n      pop\n      mload(0x40)\n      returndatasize\n      0x00\n      dup3\n      returndatacopy\n      0x1f\n      returndatasize\n      swap1\n      dup2\n      add\n      not(0x1f)\n      and\n      dup3\n      add\n      0x40\n      mstore\n      tag_690\n      swap2\n      swap1\n      dup2\n      add\n      swap1\n      tag_578\n      jump\t// in\n    tag_690:\n        /* \"/contracts/TimbPrize.sol\":20245:20343  address[] memory entrants =... */\n      swap1\n      pop\n        /* \"/contracts/TimbPrize.sol\":20359:20368  uint256 i */\n      0x00\n        /* \"/contracts/TimbPrize.sol\":20354:21061  for (uint256 i = 0; i < entrants.length; i++) {... */\n    tag_691:\n        /* \"/contracts/TimbPrize.sol\":20378:20386  entrants */\n      dup2\n        /* \"/contracts/TimbPrize.sol\":20378:20393  entrants.length */\n      mload\n        /* \"/contracts/TimbPrize.sol\":20374:20375  i */\n      dup2\n        /* \"/contracts/TimbPrize.sol\":20374:20393  i < entrants.length */\n      lt\n        /* \"/contracts/TimbPrize.sol\":20354:21061  for (uint256 i = 0; i < entrants.length; i++) {... */\n      iszero\n      tag_692\n      jumpi\n        /* \"/contracts/TimbPrize.sol\":20579:20591  gameRegistry */\n      sload(0x02)\n        /* \"/contracts/TimbPrize.sol\":20602:20613  entrants[i] */\n      dup3\n      mload\n        /* \"/contracts/TimbPrize.sol\":20468:20493  uint256 lastEligibleRound */\n      0x00\n      swap2\n      sub(shl(0xa0, 0x01), 0x01)\n        /* \"/contracts/TimbPrize.sol\":20579:20591  gameRegistry */\n      and\n      swap1\n        /* \"/contracts/TimbPrize.sol\":20565:20601  IGameRegistry(gameRegistry).getEntry */\n      0xb8a740e0\n      swap1\n        /* \"/contracts/TimbPrize.sol\":20602:20610  entrants */\n      dup6\n      swap1\n        /* \"/contracts/TimbPrize.sol\":20611:20612  i */\n      dup6\n      swap1\n        /* \"/contracts/TimbPrize.sol\":20602:20613  entrants[i] */\n      dup2\n      lt\n      tag_695\n      jumpi\n      tag_695\n      tag_363\n      jump\t// in\n    tag_695:\n      0x20\n      mul\n      0x20\n      add\n      add\n      mload\n        /* \"/contracts/TimbPrize.sol\":20615:20627  settledRound */\n      dup7\n        /* \"/contracts/TimbPrize.sol\":20565:20628  IGameRegistry(gameRegistry).getEntry(entrants[i], settledRound) */\n      mload(0x40)\n      dup4\n      0xffffffff\n      and\n      0xe0\n      shl\n      dup2\n      mstore\n      0x04\n      add\n      tag_696\n      swap3\n      swap2\n      swap1\n      sub(shl(0xa0, 0x01), 0x01)\n        /* \"#utility.yul\":7181:7213   */\n      swap3\n      swap1\n      swap3\n      and\n        /* \"#utility.yul\":7163:7214   */\n      dup3\n      mstore\n        /* \"#utility.yul\":7245:7247   */\n      0x20\n        /* \"#utility.yul\":7230:7248   */\n      dup3\n      add\n        /* \"#utility.yul\":7223:7257   */\n      mstore\n        /* \"#utility.yul\":7151:7153   */\n      0x40\n        /* \"#utility.yul\":7136:7154   */\n      add\n      swap1\n        /* \"#utility.yul\":6989:7263   */\n      jump\n        /* \"/contracts/TimbPrize.sol\":20565:20628  IGameRegistry(gameRegistry).getEntry(entrants[i], settledRound) */\n    tag_696:\n      0xe0\n      mload(0x40)\n      dup1\n      dup4\n      sub\n      dup2\n      dup7\n      gas\n      staticcall\n      iszero\n      dup1\n      iszero\n      tag_698\n      jumpi\n      returndatasize\n      0x00\n      dup1\n      returndatacopy\n      revert(0x00, returndatasize)\n    tag_698:\n      pop\n      pop\n      pop\n      pop\n      mload(0x40)\n      returndatasize\n      not(0x1f)\n      0x1f\n      dup3\n      add\n      and\n      dup3\n      add\n      dup1\n      0x40\n      mstore\n      pop\n      dup2\n      add\n      swap1\n      tag_699\n      swap2\n      swap1\n      tag_700\n      jump\t// in\n    tag_699:\n        /* \"/contracts/TimbPrize.sol\":20414:20628  (... */\n      pop\n      pop\n      pop\n      pop\n      swap3\n      pop\n      pop\n      pop\n        /* \"/contracts/TimbPrize.sol\":20667:20679  currentRound */\n      sload(0x0a)\n        /* \"/contracts/TimbPrize.sol\":20647:20664  lastEligibleRound */\n      dup2\n        /* \"/contracts/TimbPrize.sol\":20647:20679  lastEligibleRound < currentRound */\n      lt\n        /* \"/contracts/TimbPrize.sol\":20643:21051  if (lastEligibleRound < currentRound) {... */\n      iszero\n      tag_710\n      jumpi\n        /* \"/contracts/TimbPrize.sol\":20775:20814  lastEligibleRound + CLAIM_WINDOW_ROUNDS */\n      tag_702\n        /* \"/contracts/TimbPrize.sol\":4488:4489  2 */\n      0x02\n        /* \"/contracts/TimbPrize.sol\":20775:20792  lastEligibleRound */\n      dup3\n        /* \"/contracts/TimbPrize.sol\":20775:20814  lastEligibleRound + CLAIM_WINDOW_ROUNDS */\n      tag_382\n      jump\t// in\n    tag_702:\n        /* \"/contracts/TimbPrize.sol\":20760:20772  currentRound */\n      sload(0x0a)\n        /* \"/contracts/TimbPrize.sol\":20760:20814  currentRound > lastEligibleRound + CLAIM_WINDOW_ROUNDS */\n      gt\n        /* \"/contracts/TimbPrize.sol\":20756:21037  if (currentRound > lastEligibleRound + CLAIM_WINDOW_ROUNDS) {... */\n      iszero\n      tag_703\n      jumpi\n        /* \"/contracts/TimbPrize.sol\":20852:20864  gameRegistry */\n      sload(0x02)\n        /* \"/contracts/TimbPrize.sol\":20879:20890  entrants[i] */\n      dup4\n      mload\n      sub(shl(0xa0, 0x01), 0x01)\n        /* \"/contracts/TimbPrize.sol\":20852:20864  gameRegistry */\n      swap1\n      swap2\n      and\n      swap1\n        /* \"/contracts/TimbPrize.sol\":20838:20878  IGameRegistry(gameRegistry).markInactive */\n      0x7a03ce4f\n      swap1\n        /* \"/contracts/TimbPrize.sol\":20879:20887  entrants */\n      dup6\n      swap1\n        /* \"/contracts/TimbPrize.sol\":20888:20889  i */\n      dup6\n      swap1\n        /* \"/contracts/TimbPrize.sol\":20879:20890  entrants[i] */\n      dup2\n      lt\n      tag_705\n      jumpi\n      tag_705\n      tag_363\n      jump\t// in\n    tag_705:\n      0x20\n      mul\n      0x20\n      add\n      add\n      mload\n        /* \"/contracts/TimbPrize.sol\":20892:20904  settledRound */\n      dup7\n        /* \"/contracts/TimbPrize.sol\":20838:20905  IGameRegistry(gameRegistry).markInactive(entrants[i], settledRound) */\n      mload(0x40)\n      dup4\n      0xffffffff\n      and\n      0xe0\n      shl\n      dup2\n      mstore\n      0x04\n      add\n      tag_706\n      swap3\n      swap2\n      swap1\n      sub(shl(0xa0, 0x01), 0x01)\n        /* \"#utility.yul\":7181:7213   */\n      swap3\n      swap1\n      swap3\n      and\n        /* \"#utility.yul\":7163:7214   */\n      dup3\n      mstore\n        /* \"#utility.yul\":7245:7247   */\n      0x20\n        /* \"#utility.yul\":7230:7248   */\n      dup3\n      add\n        /* \"#utility.yul\":7223:7257   */\n      mstore\n        /* \"#utility.yul\":7151:7153   */\n      0x40\n        /* \"#utility.yul\":7136:7154   */\n      add\n      swap1\n        /* \"#utility.yul\":6989:7263   */\n      jump\n        /* \"/contracts/TimbPrize.sol\":20838:20905  IGameRegistry(gameRegistry).markInactive(entrants[i], settledRound) */\n    tag_706:\n      0x00\n      mload(0x40)\n      dup1\n      dup4\n      sub\n      dup2\n      0x00\n      dup8\n      dup1\n      extcodesize\n      iszero\n      dup1\n      iszero\n      tag_707\n      jumpi\n      0x00\n      dup1\n      revert\n    tag_707:\n      pop\n      gas\n      call\n      iszero\n      dup1\n      iszero\n      tag_709\n      jumpi\n      returndatasize\n      0x00\n      dup1\n      returndatacopy\n      revert(0x00, returndatasize)\n    tag_709:\n      pop\n      pop\n      pop\n      pop\n        /* \"/contracts/TimbPrize.sol\":20756:21037  if (currentRound > lastEligibleRound + CLAIM_WINDOW_ROUNDS) {... */\n      jump(tag_710)\n    tag_703:\n        /* \"/contracts/TimbPrize.sol\":20966:20978  gameRegistry */\n      sload(0x02)\n        /* \"/contracts/TimbPrize.sol\":20992:21003  entrants[i] */\n      dup4\n      mload\n      sub(shl(0xa0, 0x01), 0x01)\n        /* \"/contracts/TimbPrize.sol\":20966:20978  gameRegistry */\n      swap1\n      swap2\n      and\n      swap1\n        /* \"/contracts/TimbPrize.sol\":20952:20991  IGameRegistry(gameRegistry).expireEntry */\n      0x47f43ef2\n      swap1\n        /* \"/contracts/TimbPrize.sol\":20992:21000  entrants */\n      dup6\n      swap1\n        /* \"/contracts/TimbPrize.sol\":21001:21002  i */\n      dup6\n      swap1\n        /* \"/contracts/TimbPrize.sol\":20992:21003  entrants[i] */\n      dup2\n      lt\n      tag_712\n      jumpi\n      tag_712\n      tag_363\n      jump\t// in\n    tag_712:\n      0x20\n      mul\n      0x20\n      add\n      add\n      mload\n        /* \"/contracts/TimbPrize.sol\":21005:21017  settledRound */\n      dup7\n        /* \"/contracts/TimbPrize.sol\":20952:21018  IGameRegistry(gameRegistry).expireEntry(entrants[i], settledRound) */\n      mload(0x40)\n      dup4\n      0xffffffff\n      and\n      0xe0\n      shl\n      dup2\n      mstore\n      0x04\n      add\n      tag_713\n      swap3\n      swap2\n      swap1\n      sub(shl(0xa0, 0x01), 0x01)\n        /* \"#utility.yul\":7181:7213   */\n      swap3\n      swap1\n      swap3\n      and\n        /* \"#utility.yul\":7163:7214   */\n      dup3\n      mstore\n        /* \"#utility.yul\":7245:7247   */\n      0x20\n        /* \"#utility.yul\":7230:7248   */\n      dup3\n      add\n        /* \"#utility.yul\":7223:7257   */\n      mstore\n        /* \"#utility.yul\":7151:7153   */\n      0x40\n        /* \"#utility.yul\":7136:7154   */\n      add\n      swap1\n        /* \"#utility.yul\":6989:7263   */\n      jump\n        /* \"/contracts/TimbPrize.sol\":20952:21018  IGameRegistry(gameRegistry).expireEntry(entrants[i], settledRound) */\n    tag_713:\n      0x00\n      mload(0x40)\n      dup1\n      dup4\n      sub\n      dup2\n      0x00\n      dup8\n      dup1\n      extcodesize\n      iszero\n      dup1\n      iszero\n      tag_714\n      jumpi\n      0x00\n      dup1\n      revert\n    tag_714:\n      pop\n      gas\n      call\n      iszero\n      dup1\n      iszero\n      tag_716\n      jumpi\n      returndatasize\n      0x00\n      dup1\n      returndatacopy\n      revert(0x00, returndatasize)\n    tag_716:\n      pop\n      pop\n      pop\n      pop\n        /* \"/contracts/TimbPrize.sol\":20756:21037  if (currentRound > lastEligibleRound + CLAIM_WINDOW_ROUNDS) {... */\n    tag_710:\n      pop\n        /* \"/contracts/TimbPrize.sol\":20395:20398  i++ */\n      0x01\n      add\n        /* \"/contracts/TimbPrize.sol\":20354:21061  for (uint256 i = 0; i < entrants.length; i++) {... */\n      jump(tag_691)\n    tag_692:\n      pop\n        /* \"/contracts/TimbPrize.sol\":20235:21067  {... */\n      pop\n        /* \"/contracts/TimbPrize.sol\":20172:21067  function _processExpiredEntries(uint256 settledRound) internal {... */\n      pop\n      jump\t// out\n    tag_394:\n      mload(0x40)\n      dup1\n      0xc0\n      add\n      0x40\n      mstore\n      dup1\n      0x06\n      swap1\n      0x20\n      dup3\n      mul\n      dup1\n      calldatasize\n      dup4\n      calldatacopy\n      pop\n      swap2\n      swap3\n      swap2\n      pop\n      pop\n      jump\t// out\n        /* \"#utility.yul\":14:194   */\n    tag_78:\n        /* \"#utility.yul\":73:79   */\n      0x00\n        /* \"#utility.yul\":126:128   */\n      0x20\n        /* \"#utility.yul\":114:123   */\n      dup3\n        /* \"#utility.yul\":105:112   */\n      dup5\n        /* \"#utility.yul\":101:124   */\n      sub\n        /* \"#utility.yul\":97:129   */\n      slt\n        /* \"#utility.yul\":94:146   */\n      iszero\n      tag_730\n      jumpi\n        /* \"#utility.yul\":142:143   */\n      0x00\n        /* \"#utility.yul\":139:140   */\n      dup1\n        /* \"#utility.yul\":132:144   */\n      revert\n        /* \"#utility.yul\":94:146   */\n    tag_730:\n      pop\n        /* \"#utility.yul\":165:188   */\n      calldataload\n      swap2\n        /* \"#utility.yul\":14:194   */\n      swap1\n      pop\n      jump\t// out\n        /* \"#utility.yul\":199:664   */\n    tag_720:\n        /* \"#utility.yul\":252:255   */\n      0x00\n        /* \"#utility.yul\":290:295   */\n      dup2\n        /* \"#utility.yul\":284:296   */\n      mload\n        /* \"#utility.yul\":317:323   */\n      dup1\n        /* \"#utility.yul\":312:315   */\n      dup5\n        /* \"#utility.yul\":305:324   */\n      mstore\n        /* \"#utility.yul\":343:347   */\n      0x20\n        /* \"#utility.yul\":372:376   */\n      dup1\n        /* \"#utility.yul\":367:370   */\n      dup6\n        /* \"#utility.yul\":363:377   */\n      add\n        /* \"#utility.yul\":356:377   */\n      swap5\n      pop\n        /* \"#utility.yul\":411:415   */\n      0x20\n        /* \"#utility.yul\":404:409   */\n      dup5\n        /* \"#utility.yul\":400:416   */\n      add\n        /* \"#utility.yul\":434:435   */\n      0x00\n        /* \"#utility.yul\":444:639   */\n    tag_732:\n        /* \"#utility.yul\":458:464   */\n      dup4\n        /* \"#utility.yul\":455:456   */\n      dup2\n        /* \"#utility.yul\":452:465   */\n      lt\n        /* \"#utility.yul\":444:639   */\n      iszero\n      tag_734\n      jumpi\n        /* \"#utility.yul\":523:536   */\n      dup2\n      mload\n      sub(shl(0xa0, 0x01), 0x01)\n        /* \"#utility.yul\":519:558   */\n      and\n        /* \"#utility.yul\":507:559   */\n      dup8\n      mstore\n        /* \"#utility.yul\":579:591   */\n      swap6\n      dup3\n      add\n      swap6\n        /* \"#utility.yul\":614:629   */\n      swap1\n      dup3\n      add\n      swap1\n        /* \"#utility.yul\":555:556   */\n      0x01\n        /* \"#utility.yul\":473:482   */\n      add\n        /* \"#utility.yul\":444:639   */\n      jump(tag_732)\n    tag_734:\n      pop\n        /* \"#utility.yul\":655:658   */\n      swap5\n      swap6\n        /* \"#utility.yul\":199:664   */\n      swap5\n      pop\n      pop\n      pop\n      pop\n      pop\n      jump\t// out\n        /* \"#utility.yul\":669:1246   */\n    tag_81:\n        /* \"#utility.yul\":979:993   */\n      0xffffffffffff\n        /* \"#utility.yul\":974:977   */\n      0xd0\n        /* \"#utility.yul\":970:994   */\n      shl\n        /* \"#utility.yul\":962:968   */\n      dup7\n        /* \"#utility.yul\":958:995   */\n      and\n        /* \"#utility.yul\":947:956   */\n      dup2\n        /* \"#utility.yul\":940:996   */\n      mstore\n        /* \"#utility.yul\":1032:1038   */\n      dup5\n        /* \"#utility.yul\":1027:1029   */\n      0x20\n        /* \"#utility.yul\":1016:1025   */\n      dup3\n        /* \"#utility.yul\":1012:1030   */\n      add\n        /* \"#utility.yul\":1005:1039   */\n      mstore\n        /* \"#utility.yul\":1075:1078   */\n      0xa0\n        /* \"#utility.yul\":1070:1072   */\n      0x40\n        /* \"#utility.yul\":1059:1068   */\n      dup3\n        /* \"#utility.yul\":1055:1073   */\n      add\n        /* \"#utility.yul\":1048:1079   */\n      mstore\n        /* \"#utility.yul\":921:925   */\n      0x00\n        /* \"#utility.yul\":1096:1153   */\n      tag_736\n        /* \"#utility.yul\":1148:1151   */\n      0xa0\n        /* \"#utility.yul\":1137:1146   */\n      dup4\n        /* \"#utility.yul\":1133:1152   */\n      add\n        /* \"#utility.yul\":1125:1131   */\n      dup7\n        /* \"#utility.yul\":1096:1153   */\n      tag_720\n      jump\t// in\n    tag_736:\n        /* \"#utility.yul\":1184:1186   */\n      0x60\n        /* \"#utility.yul\":1169:1187   */\n      dup4\n      add\n        /* \"#utility.yul\":1162:1196   */\n      swap5\n      swap1\n      swap5\n      mstore\n      pop\n        /* \"#utility.yul\":1227:1230   */\n      0x80\n        /* \"#utility.yul\":1212:1231   */\n      add\n        /* \"#utility.yul\":1205:1240   */\n      mstore\n        /* \"#utility.yul\":1088:1153   */\n      swap4\n        /* \"#utility.yul\":669:1246   */\n      swap3\n      pop\n      pop\n      pop\n      jump\t// out\n        /* \"#utility.yul\":1251:1499   */\n    tag_85:\n        /* \"#utility.yul\":1319:1325   */\n      0x00\n        /* \"#utility.yul\":1327:1333   */\n      dup1\n        /* \"#utility.yul\":1380:1382   */\n      0x40\n        /* \"#utility.yul\":1368:1377   */\n      dup4\n        /* \"#utility.yul\":1359:1366   */\n      dup6\n        /* \"#utility.yul\":1355:1378   */\n      sub\n        /* \"#utility.yul\":1351:1383   */\n      slt\n        /* \"#utility.yul\":1348:1400   */\n      iszero\n      tag_738\n      jumpi\n        /* \"#utility.yul\":1396:1397   */\n      0x00\n        /* \"#utility.yul\":1393:1394   */\n      dup1\n        /* \"#utility.yul\":1386:1398   */\n      revert\n        /* \"#utility.yul\":1348:1400   */\n    tag_738:\n      pop\n      pop\n        /* \"#utility.yul\":1419:1442   */\n      dup1\n      calldataload\n      swap3\n        /* \"#utility.yul\":1489:1491   */\n      0x20\n        /* \"#utility.yul\":1474:1492   */\n      swap1\n      swap2\n      add\n        /* \"#utility.yul\":1461:1493   */\n      calldataload\n      swap2\n      pop\n        /* \"#utility.yul\":1251:1499   */\n      jump\t// out\n        /* \"#utility.yul\":1712:1843   */\n    tag_721:\n      sub(shl(0xa0, 0x01), 0x01)\n        /* \"#utility.yul\":1787:1818   */\n      dup2\n      and\n        /* \"#utility.yul\":1777:1819   */\n      dup2\n      eq\n        /* \"#utility.yul\":1767:1837   */\n      tag_470\n      jumpi\n        /* \"#utility.yul\":1833:1834   */\n      0x00\n        /* \"#utility.yul\":1830:1831   */\n      dup1\n        /* \"#utility.yul\":1823:1835   */\n      revert\n        /* \"#utility.yul\":1848:2095   */\n    tag_92:\n        /* \"#utility.yul\":1907:1913   */\n      0x00\n        /* \"#utility.yul\":1960:1962   */\n      0x20\n        /* \"#utility.yul\":1948:1957   */\n      dup3\n        /* \"#utility.yul\":1939:1946   */\n      dup5\n        /* \"#utility.yul\":1935:1958   */\n      sub\n        /* \"#utility.yul\":1931:1963   */\n      slt\n        /* \"#utility.yul\":1928:1980   */\n      iszero\n      tag_743\n      jumpi\n        /* \"#utility.yul\":1976:1977   */\n      0x00\n        /* \"#utility.yul\":1973:1974   */\n      dup1\n        /* \"#utility.yul\":1966:1978   */\n      revert\n        /* \"#utility.yul\":1928:1980   */\n    tag_743:\n        /* \"#utility.yul\":2015:2024   */\n      dup2\n        /* \"#utility.yul\":2002:2025   */\n      calldataload\n        /* \"#utility.yul\":2034:2065   */\n      tag_744\n        /* \"#utility.yul\":2059:2064   */\n      dup2\n        /* \"#utility.yul\":2034:2065   */\n      tag_721\n      jump\t// in\n    tag_744:\n        /* \"#utility.yul\":2084:2089   */\n      swap4\n        /* \"#utility.yul\":1848:2095   */\n      swap3\n      pop\n      pop\n      pop\n      jump\t// out\n        /* \"#utility.yul\":2493:2832   */\n    tag_722:\n        /* \"#utility.yul\":2583:2588   */\n      dup1\n        /* \"#utility.yul\":2606:2607   */\n      0x00\n        /* \"#utility.yul\":2616:2826   */\n    tag_748:\n        /* \"#utility.yul\":2630:2634   */\n      0x06\n        /* \"#utility.yul\":2627:2628   */\n      dup2\n        /* \"#utility.yul\":2624:2635   */\n      lt\n        /* \"#utility.yul\":2616:2826   */\n      iszero\n      tag_750\n      jumpi\n        /* \"#utility.yul\":2703:2716   */\n      dup2\n      mload\n        /* \"#utility.yul\":2696:2717   */\n      iszero\n        /* \"#utility.yul\":2689:2718   */\n      iszero\n        /* \"#utility.yul\":2677:2719   */\n      dup5\n      mstore\n        /* \"#utility.yul\":2742:2746   */\n      0x20\n        /* \"#utility.yul\":2766:2778   */\n      swap4\n      dup5\n      add\n      swap4\n        /* \"#utility.yul\":2801:2816   */\n      swap1\n      swap2\n      add\n      swap1\n        /* \"#utility.yul\":2650:2651   */\n      0x01\n        /* \"#utility.yul\":2643:2652   */\n      add\n        /* \"#utility.yul\":2616:2826   */\n      jump(tag_748)\n    tag_750:\n        /* \"#utility.yul\":2620:2623   */\n      pop\n      pop\n        /* \"#utility.yul\":2493:2832   */\n      pop\n      pop\n      jump\t// out\n        /* \"#utility.yul\":2837:4059   */\n    tag_124:\n        /* \"#utility.yul\":3259:3263   */\n      0x00\n        /* \"#utility.yul\":3301:3304   */\n      0x0280\n        /* \"#utility.yul\":3290:3299   */\n      dup3\n        /* \"#utility.yul\":3286:3305   */\n      add\n        /* \"#utility.yul\":3278:3305   */\n      swap1\n      pop\n        /* \"#utility.yul\":3332:3338   */\n      dup12\n        /* \"#utility.yul\":3321:3330   */\n      dup3\n        /* \"#utility.yul\":3314:3339   */\n      mstore\n        /* \"#utility.yul\":3358:3360   */\n      0x20\n        /* \"#utility.yul\":3396:3402   */\n      dup12\n        /* \"#utility.yul\":3391:3393   */\n      0x20\n        /* \"#utility.yul\":3380:3389   */\n      dup5\n        /* \"#utility.yul\":3376:3394   */\n      add\n        /* \"#utility.yul\":3369:3403   */\n      mstore\n        /* \"#utility.yul\":3439:3445   */\n      dup11\n        /* \"#utility.yul\":3434:3436   */\n      0x40\n        /* \"#utility.yul\":3423:3432   */\n      dup5\n        /* \"#utility.yul\":3419:3437   */\n      add\n        /* \"#utility.yul\":3412:3446   */\n      mstore\n        /* \"#utility.yul\":3482:3488   */\n      dup10\n        /* \"#utility.yul\":3477:3479   */\n      0x60\n        /* \"#utility.yul\":3466:3475   */\n      dup5\n        /* \"#utility.yul\":3462:3480   */\n      add\n        /* \"#utility.yul\":3455:3489   */\n      mstore\n        /* \"#utility.yul\":3547:3561   */\n      0xffffffffffff\n        /* \"#utility.yul\":3542:3545   */\n      0xd0\n        /* \"#utility.yul\":3538:3562   */\n      shl\n        /* \"#utility.yul\":3530:3536   */\n      dup10\n        /* \"#utility.yul\":3526:3563   */\n      and\n        /* \"#utility.yul\":3520:3523   */\n      0x80\n        /* \"#utility.yul\":3509:3518   */\n      dup5\n        /* \"#utility.yul\":3505:3524   */\n      add\n        /* \"#utility.yul\":3498:3564   */\n      mstore\n        /* \"#utility.yul\":3601:3607   */\n      dup8\n        /* \"#utility.yul\":3595:3598   */\n      0xa0\n        /* \"#utility.yul\":3584:3593   */\n      dup5\n        /* \"#utility.yul\":3580:3599   */\n      add\n        /* \"#utility.yul\":3573:3608   */\n      mstore\n        /* \"#utility.yul\":3645:3651   */\n      dup7\n        /* \"#utility.yul\":3639:3642   */\n      0xc0\n        /* \"#utility.yul\":3628:3637   */\n      dup5\n        /* \"#utility.yul\":3624:3643   */\n      add\n        /* \"#utility.yul\":3617:3652   */\n      mstore\n        /* \"#utility.yul\":3703:3709   */\n      dup6\n        /* \"#utility.yul\":3696:3710   */\n      iszero\n        /* \"#utility.yul\":3689:3711   */\n      iszero\n        /* \"#utility.yul\":3683:3686   */\n      0xe0\n        /* \"#utility.yul\":3672:3681   */\n      dup5\n        /* \"#utility.yul\":3668:3687   */\n      add\n        /* \"#utility.yul\":3661:3712   */\n      mstore\n        /* \"#utility.yul\":3747:3750   */\n      0x0100\n        /* \"#utility.yul\":3736:3745   */\n      dup4\n        /* \"#utility.yul\":3732:3751   */\n      add\n        /* \"#utility.yul\":3793:3799   */\n      dup6\n        /* \"#utility.yul\":3817:3818   */\n      0x00\n        /* \"#utility.yul\":3827:3994   */\n    tag_752:\n        /* \"#utility.yul\":3841:3845   */\n      0x06\n        /* \"#utility.yul\":3838:3839   */\n      dup2\n        /* \"#utility.yul\":3835:3846   */\n      lt\n        /* \"#utility.yul\":3827:3994   */\n      iszero\n      tag_754\n      jumpi\n        /* \"#utility.yul\":3900:3913   */\n      dup2\n      mload\n        /* \"#utility.yul\":3888:3914   */\n      dup4\n      mstore\n        /* \"#utility.yul\":3934:3946   */\n      swap2\n      dup4\n      add\n      swap2\n        /* \"#utility.yul\":3969:3984   */\n      swap1\n      dup4\n      add\n      swap1\n        /* \"#utility.yul\":3861:3862   */\n      0x01\n        /* \"#utility.yul\":3854:3863   */\n      add\n        /* \"#utility.yul\":3827:3994   */\n      jump(tag_752)\n    tag_754:\n        /* \"#utility.yul\":3831:3834   */\n      pop\n      pop\n      pop\n      pop\n        /* \"#utility.yul\":4003:4053   */\n      tag_755\n        /* \"#utility.yul\":4048:4051   */\n      0x01c0\n        /* \"#utility.yul\":4037:4046   */\n      dup4\n        /* \"#utility.yul\":4033:4052   */\n      add\n        /* \"#utility.yul\":4025:4031   */\n      dup5\n        /* \"#utility.yul\":4003:4053   */\n      tag_722\n      jump\t// in\n    tag_755:\n        /* \"#utility.yul\":2837:4059   */\n      swap12\n      swap11\n      pop\n      pop\n      pop\n      pop\n      pop\n      pop\n      pop\n      pop\n      pop\n      pop\n      pop\n      jump\t// out\n        /* \"#utility.yul\":4256:4571   */\n    tag_196:\n        /* \"#utility.yul\":4324:4330   */\n      0x00\n        /* \"#utility.yul\":4332:4338   */\n      dup1\n        /* \"#utility.yul\":4385:4387   */\n      0x40\n        /* \"#utility.yul\":4373:4382   */\n      dup4\n        /* \"#utility.yul\":4364:4371   */\n      dup6\n        /* \"#utility.yul\":4360:4383   */\n      sub\n        /* \"#utility.yul\":4356:4388   */\n      slt\n        /* \"#utility.yul\":4353:4405   */\n      iszero\n      tag_758\n      jumpi\n        /* \"#utility.yul\":4401:4402   */\n      0x00\n        /* \"#utility.yul\":4398:4399   */\n      dup1\n        /* \"#utility.yul\":4391:4403   */\n      revert\n        /* \"#utility.yul\":4353:4405   */\n    tag_758:\n        /* \"#utility.yul\":4437:4446   */\n      dup3\n        /* \"#utility.yul\":4424:4447   */\n      calldataload\n        /* \"#utility.yul\":4414:4447   */\n      swap2\n      pop\n        /* \"#utility.yul\":4497:4499   */\n      0x20\n        /* \"#utility.yul\":4486:4495   */\n      dup4\n        /* \"#utility.yul\":4482:4500   */\n      add\n        /* \"#utility.yul\":4469:4501   */\n      calldataload\n        /* \"#utility.yul\":4510:4541   */\n      tag_759\n        /* \"#utility.yul\":4535:4540   */\n      dup2\n        /* \"#utility.yul\":4510:4541   */\n      tag_721\n      jump\t// in\n    tag_759:\n        /* \"#utility.yul\":4560:4565   */\n      dup1\n        /* \"#utility.yul\":4550:4565   */\n      swap2\n      pop\n      pop\n        /* \"#utility.yul\":4256:4571   */\n      swap3\n      pop\n      swap3\n      swap1\n      pop\n      jump\t// out\n        /* \"#utility.yul\":4776:4894   */\n    tag_723:\n        /* \"#utility.yul\":4862:4867   */\n      dup1\n        /* \"#utility.yul\":4855:4868   */\n      iszero\n        /* \"#utility.yul\":4848:4869   */\n      iszero\n        /* \"#utility.yul\":4841:4846   */\n      dup2\n        /* \"#utility.yul\":4838:4870   */\n      eq\n        /* \"#utility.yul\":4828:4888   */\n      tag_470\n      jumpi\n        /* \"#utility.yul\":4884:4885   */\n      0x00\n        /* \"#utility.yul\":4881:4882   */\n      dup1\n        /* \"#utility.yul\":4874:4886   */\n      revert\n        /* \"#utility.yul\":4899:5140   */\n    tag_298:\n        /* \"#utility.yul\":4955:4961   */\n      0x00\n        /* \"#utility.yul\":5008:5010   */\n      0x20\n        /* \"#utility.yul\":4996:5005   */\n      dup3\n        /* \"#utility.yul\":4987:4994   */\n      dup5\n        /* \"#utility.yul\":4983:5006   */\n      sub\n        /* \"#utility.yul\":4979:5011   */\n      slt\n        /* \"#utility.yul\":4976:5028   */\n      iszero\n      tag_764\n      jumpi\n        /* \"#utility.yul\":5024:5025   */\n      0x00\n        /* \"#utility.yul\":5021:5022   */\n      dup1\n        /* \"#utility.yul\":5014:5026   */\n      revert\n        /* \"#utility.yul\":4976:5028   */\n    tag_764:\n        /* \"#utility.yul\":5063:5072   */\n      dup2\n        /* \"#utility.yul\":5050:5073   */\n      calldataload\n        /* \"#utility.yul\":5082:5110   */\n      tag_744\n        /* \"#utility.yul\":5104:5109   */\n      dup2\n        /* \"#utility.yul\":5082:5110   */\n      tag_723\n      jump\t// in\n        /* \"#utility.yul\":5145:5272   */\n    tag_724:\n        /* \"#utility.yul\":5206:5216   */\n      0x4e487b71\n        /* \"#utility.yul\":5201:5204   */\n      0xe0\n        /* \"#utility.yul\":5197:5217   */\n      shl\n        /* \"#utility.yul\":5194:5195   */\n      0x00\n        /* \"#utility.yul\":5187:5218   */\n      mstore\n        /* \"#utility.yul\":5237:5241   */\n      0x11\n        /* \"#utility.yul\":5234:5235   */\n      0x04\n        /* \"#utility.yul\":5227:5242   */\n      mstore\n        /* \"#utility.yul\":5261:5265   */\n      0x24\n        /* \"#utility.yul\":5258:5259   */\n      0x00\n        /* \"#utility.yul\":5251:5266   */\n      revert\n        /* \"#utility.yul\":5277:5412   */\n    tag_342:\n        /* \"#utility.yul\":5316:5319   */\n      0x00\n        /* \"#utility.yul\":5337:5354   */\n      0x01\n      dup3\n      add\n        /* \"#utility.yul\":5334:5377   */\n      tag_769\n      jumpi\n        /* \"#utility.yul\":5357:5375   */\n      tag_769\n      tag_724\n      jump\t// in\n    tag_769:\n      pop\n        /* \"#utility.yul\":5404:5405   */\n      0x01\n        /* \"#utility.yul\":5393:5406   */\n      add\n      swap1\n        /* \"#utility.yul\":5277:5412   */\n      jump\t// out\n        /* \"#utility.yul\":5670:5797   */\n    tag_351:\n        /* \"#utility.yul\":5731:5741   */\n      0x4e487b71\n        /* \"#utility.yul\":5726:5729   */\n      0xe0\n        /* \"#utility.yul\":5722:5742   */\n      shl\n        /* \"#utility.yul\":5719:5720   */\n      0x00\n        /* \"#utility.yul\":5712:5743   */\n      mstore\n        /* \"#utility.yul\":5762:5766   */\n      0x41\n        /* \"#utility.yul\":5759:5760   */\n      0x04\n        /* \"#utility.yul\":5752:5767   */\n      mstore\n        /* \"#utility.yul\":5786:5790   */\n      0x24\n        /* \"#utility.yul\":5783:5784   */\n      0x00\n        /* \"#utility.yul\":5776:5791   */\n      revert\n        /* \"#utility.yul\":5802:5930   */\n    tag_357:\n        /* \"#utility.yul\":5869:5878   */\n      dup2\n      dup2\n      sub\n        /* \"#utility.yul\":5890:5901   */\n      dup2\n      dup2\n      gt\n        /* \"#utility.yul\":5887:5924   */\n      iszero\n      tag_774\n      jumpi\n        /* \"#utility.yul\":5904:5922   */\n      tag_774\n      tag_724\n      jump\t// in\n    tag_774:\n        /* \"#utility.yul\":5802:5930   */\n      swap3\n      swap2\n      pop\n      pop\n      jump\t// out\n        /* \"#utility.yul\":5935:6062   */\n    tag_725:\n        /* \"#utility.yul\":5996:6006   */\n      0x4e487b71\n        /* \"#utility.yul\":5991:5994   */\n      0xe0\n        /* \"#utility.yul\":5987:6007   */\n      shl\n        /* \"#utility.yul\":5984:5985   */\n      0x00\n        /* \"#utility.yul\":5977:6008   */\n      mstore\n        /* \"#utility.yul\":6027:6031   */\n      0x12\n        /* \"#utility.yul\":6024:6025   */\n      0x04\n        /* \"#utility.yul\":6017:6032   */\n      mstore\n        /* \"#utility.yul\":6051:6055   */\n      0x24\n        /* \"#utility.yul\":6048:6049   */\n      0x00\n        /* \"#utility.yul\":6041:6056   */\n      revert\n        /* \"#utility.yul\":6067:6179   */\n    tag_360:\n        /* \"#utility.yul\":6099:6100   */\n      0x00\n        /* \"#utility.yul\":6125:6126   */\n      dup3\n        /* \"#utility.yul\":6115:6150   */\n      tag_778\n      jumpi\n        /* \"#utility.yul\":6130:6148   */\n      tag_778\n      tag_725\n      jump\t// in\n    tag_778:\n      pop\n        /* \"#utility.yul\":6164:6173   */\n      mod\n      swap1\n        /* \"#utility.yul\":6067:6179   */\n      jump\t// out\n        /* \"#utility.yul\":6184:6311   */\n    tag_363:\n        /* \"#utility.yul\":6245:6255   */\n      0x4e487b71\n        /* \"#utility.yul\":6240:6243   */\n      0xe0\n        /* \"#utility.yul\":6236:6256   */\n      shl\n        /* \"#utility.yul\":6233:6234   */\n      0x00\n        /* \"#utility.yul\":6226:6257   */\n      mstore\n        /* \"#utility.yul\":6276:6280   */\n      0x32\n        /* \"#utility.yul\":6273:6274   */\n      0x04\n        /* \"#utility.yul\":6266:6281   */\n      mstore\n        /* \"#utility.yul\":6300:6304   */\n      0x24\n        /* \"#utility.yul\":6297:6298   */\n      0x00\n        /* \"#utility.yul\":6290:6305   */\n      revert\n        /* \"#utility.yul\":6316:6681   */\n    tag_378:\n        /* \"#utility.yul\":6433:6445   */\n      dup1\n      mload\n        /* \"#utility.yul\":6481:6485   */\n      0x20\n        /* \"#utility.yul\":6470:6486   */\n      dup3\n      add\n        /* \"#utility.yul\":6464:6487   */\n      mload\n      not(sub(shl(0xd0, 0x01), 0x01))\n        /* \"#utility.yul\":6548:6559   */\n      dup1\n      dup3\n      and\n      swap3\n        /* \"#utility.yul\":6433:6445   */\n      swap2\n        /* \"#utility.yul\":6464:6487   */\n      swap1\n        /* \"#utility.yul\":6582:6583   */\n      0x06\n        /* \"#utility.yul\":6571:6584   */\n      dup4\n      lt\n        /* \"#utility.yul\":6568:6675   */\n      iszero\n      tag_781\n      jumpi\n        /* \"#utility.yul\":6662:6664   */\n      dup1\n        /* \"#utility.yul\":6656:6658   */\n      dup2\n        /* \"#utility.yul\":6646:6652   */\n      dup5\n        /* \"#utility.yul\":6643:6644   */\n      0x06\n        /* \"#utility.yul\":6639:6653   */\n      sub\n        /* \"#utility.yul\":6636:6637   */\n      0x03\n        /* \"#utility.yul\":6632:6654   */\n      shl\n        /* \"#utility.yul\":6628:6659   */\n      shl\n        /* \"#utility.yul\":6624:6626   */\n      dup4\n        /* \"#utility.yul\":6620:6660   */\n      and\n        /* \"#utility.yul\":6616:6665   */\n      and\n        /* \"#utility.yul\":6607:6665   */\n      swap4\n      pop\n        /* \"#utility.yul\":6568:6675   */\n    tag_781:\n      pop\n      pop\n      pop\n        /* \"#utility.yul\":6316:6681   */\n      swap2\n      swap1\n      pop\n      jump\t// out\n        /* \"#utility.yul\":6686:6811   */\n    tag_382:\n        /* \"#utility.yul\":6751:6760   */\n      dup1\n      dup3\n      add\n        /* \"#utility.yul\":6772:6782   */\n      dup1\n      dup3\n      gt\n        /* \"#utility.yul\":6769:6805   */\n      iszero\n      tag_774\n      jumpi\n        /* \"#utility.yul\":6785:6803   */\n      tag_774\n      tag_724\n      jump\t// in\n        /* \"#utility.yul\":6816:6984   */\n    tag_438:\n        /* \"#utility.yul\":6889:6898   */\n      dup1\n      dup3\n      mul\n        /* \"#utility.yul\":6920:6929   */\n      dup2\n      iszero\n        /* \"#utility.yul\":6937:6952   */\n      dup3\n      dup3\n      div\n        /* \"#utility.yul\":6931:6953   */\n      dup5\n      eq\n        /* \"#utility.yul\":6917:6954   */\n      or\n        /* \"#utility.yul\":6907:6978   */\n      tag_774\n      jumpi\n        /* \"#utility.yul\":6958:6976   */\n      tag_774\n      tag_724\n      jump\t// in\n        /* \"#utility.yul\":7550:7688   */\n    tag_726:\n        /* \"#utility.yul\":7629:7642   */\n      dup1\n      mload\n        /* \"#utility.yul\":7651:7682   */\n      tag_791\n        /* \"#utility.yul\":7629:7642   */\n      dup2\n        /* \"#utility.yul\":7651:7682   */\n      tag_721\n      jump\t// in\n    tag_791:\n        /* \"#utility.yul\":7550:7688   */\n      swap2\n      swap1\n      pop\n      jump\t// out\n        /* \"#utility.yul\":7693:8822   */\n    tag_578:\n        /* \"#utility.yul\":7788:7794   */\n      0x00\n        /* \"#utility.yul\":7819:7821   */\n      0x20\n        /* \"#utility.yul\":7862:7864   */\n      dup1\n        /* \"#utility.yul\":7850:7859   */\n      dup4\n        /* \"#utility.yul\":7841:7848   */\n      dup6\n        /* \"#utility.yul\":7837:7860   */\n      sub\n        /* \"#utility.yul\":7833:7865   */\n      slt\n        /* \"#utility.yul\":7830:7882   */\n      iszero\n      tag_793\n      jumpi\n        /* \"#utility.yul\":7878:7879   */\n      0x00\n        /* \"#utility.yul\":7875:7876   */\n      dup1\n        /* \"#utility.yul\":7868:7880   */\n      revert\n        /* \"#utility.yul\":7830:7882   */\n    tag_793:\n        /* \"#utility.yul\":7911:7920   */\n      dup3\n        /* \"#utility.yul\":7905:7921   */\n      mload\n        /* \"#utility.yul\":7940:7958   */\n      0xffffffffffffffff\n        /* \"#utility.yul\":7981:7983   */\n      dup1\n        /* \"#utility.yul\":7973:7979   */\n      dup3\n        /* \"#utility.yul\":7970:7984   */\n      gt\n        /* \"#utility.yul\":7967:8001   */\n      iszero\n      tag_794\n      jumpi\n        /* \"#utility.yul\":7997:7998   */\n      0x00\n        /* \"#utility.yul\":7994:7995   */\n      dup1\n        /* \"#utility.yul\":7987:7999   */\n      revert\n        /* \"#utility.yul\":7967:8001   */\n    tag_794:\n        /* \"#utility.yul\":8035:8041   */\n      dup2\n        /* \"#utility.yul\":8024:8033   */\n      dup6\n        /* \"#utility.yul\":8020:8042   */\n      add\n        /* \"#utility.yul\":8010:8042   */\n      swap2\n      pop\n        /* \"#utility.yul\":8080:8087   */\n      dup6\n        /* \"#utility.yul\":8073:8077   */\n      0x1f\n        /* \"#utility.yul\":8069:8071   */\n      dup4\n        /* \"#utility.yul\":8065:8078   */\n      add\n        /* \"#utility.yul\":8061:8088   */\n      slt\n        /* \"#utility.yul\":8051:8106   */\n      tag_795\n      jumpi\n        /* \"#utility.yul\":8102:8103   */\n      0x00\n        /* \"#utility.yul\":8099:8100   */\n      dup1\n        /* \"#utility.yul\":8092:8104   */\n      revert\n        /* \"#utility.yul\":8051:8106   */\n    tag_795:\n        /* \"#utility.yul\":8131:8133   */\n      dup2\n        /* \"#utility.yul\":8125:8134   */\n      mload\n        /* \"#utility.yul\":8153:8155   */\n      dup2\n        /* \"#utility.yul\":8149:8151   */\n      dup2\n        /* \"#utility.yul\":8146:8156   */\n      gt\n        /* \"#utility.yul\":8143:8179   */\n      iszero\n      tag_797\n      jumpi\n        /* \"#utility.yul\":8159:8177   */\n      tag_797\n      tag_351\n      jump\t// in\n    tag_797:\n        /* \"#utility.yul\":8205:8207   */\n      dup1\n        /* \"#utility.yul\":8202:8203   */\n      0x05\n        /* \"#utility.yul\":8198:8208   */\n      shl\n        /* \"#utility.yul\":8237:8239   */\n      0x40\n        /* \"#utility.yul\":8231:8240   */\n      mload\n        /* \"#utility.yul\":8300:8302   */\n      0x1f\n        /* \"#utility.yul\":8296:8303   */\n      not\n        /* \"#utility.yul\":8291:8293   */\n      0x3f\n        /* \"#utility.yul\":8287:8289   */\n      dup4\n        /* \"#utility.yul\":8283:8294   */\n      add\n        /* \"#utility.yul\":8279:8304   */\n      and\n        /* \"#utility.yul\":8271:8277   */\n      dup2\n        /* \"#utility.yul\":8267:8305   */\n      add\n        /* \"#utility.yul\":8355:8361   */\n      dup2\n        /* \"#utility.yul\":8343:8353   */\n      dup2\n        /* \"#utility.yul\":8340:8362   */\n      lt\n        /* \"#utility.yul\":8335:8337   */\n      dup6\n        /* \"#utility.yul\":8323:8333   */\n      dup3\n        /* \"#utility.yul\":8320:8338   */\n      gt\n        /* \"#utility.yul\":8317:8363   */\n      or\n        /* \"#utility.yul\":8314:8386   */\n      iszero\n      tag_799\n      jumpi\n        /* \"#utility.yul\":8366:8384   */\n      tag_799\n      tag_351\n      jump\t// in\n    tag_799:\n        /* \"#utility.yul\":8402:8404   */\n      0x40\n        /* \"#utility.yul\":8395:8417   */\n      mstore\n        /* \"#utility.yul\":8452:8470   */\n      swap2\n      dup3\n      mstore\n        /* \"#utility.yul\":8486:8501   */\n      dup5\n      dup3\n      add\n      swap3\n      pop\n        /* \"#utility.yul\":8528:8539   */\n      dup4\n      dup2\n      add\n        /* \"#utility.yul\":8524:8544   */\n      dup6\n      add\n      swap2\n        /* \"#utility.yul\":8556:8575   */\n      dup9\n      dup4\n      gt\n        /* \"#utility.yul\":8553:8592   */\n      iszero\n      tag_800\n      jumpi\n        /* \"#utility.yul\":8588:8589   */\n      0x00\n        /* \"#utility.yul\":8585:8586   */\n      dup1\n        /* \"#utility.yul\":8578:8590   */\n      revert\n        /* \"#utility.yul\":8553:8592   */\n    tag_800:\n        /* \"#utility.yul\":8612:8623   */\n      swap4\n      dup6\n      add\n      swap4\n        /* \"#utility.yul\":8632:8791   */\n    tag_801:\n        /* \"#utility.yul\":8648:8654   */\n      dup3\n        /* \"#utility.yul\":8643:8646   */\n      dup6\n        /* \"#utility.yul\":8640:8655   */\n      lt\n        /* \"#utility.yul\":8632:8791   */\n      iszero\n      tag_803\n      jumpi\n        /* \"#utility.yul\":8714:8748   */\n      tag_804\n        /* \"#utility.yul\":8744:8747   */\n      dup6\n        /* \"#utility.yul\":8714:8748   */\n      tag_726\n      jump\t// in\n    tag_804:\n        /* \"#utility.yul\":8702:8749   */\n      dup5\n      mstore\n        /* \"#utility.yul\":8665:8677   */\n      swap4\n      dup6\n      add\n      swap4\n        /* \"#utility.yul\":8769:8781   */\n      swap3\n      dup6\n      add\n      swap3\n        /* \"#utility.yul\":8632:8791   */\n      jump(tag_801)\n    tag_803:\n        /* \"#utility.yul\":8810:8816   */\n      swap9\n        /* \"#utility.yul\":7693:8822   */\n      swap8\n      pop\n      pop\n      pop\n      pop\n      pop\n      pop\n      pop\n      pop\n      jump\t// out\n        /* \"#utility.yul\":9657:9989   */\n    tag_602:\n        /* \"#utility.yul\":9864:9870   */\n      dup3\n        /* \"#utility.yul\":9853:9862   */\n      dup2\n        /* \"#utility.yul\":9846:9871   */\n      mstore\n        /* \"#utility.yul\":9907:9909   */\n      0x40\n        /* \"#utility.yul\":9902:9904   */\n      0x20\n        /* \"#utility.yul\":9891:9900   */\n      dup3\n        /* \"#utility.yul\":9887:9905   */\n      add\n        /* \"#utility.yul\":9880:9910   */\n      mstore\n        /* \"#utility.yul\":9827:9831   */\n      0x00\n        /* \"#utility.yul\":9927:9983   */\n      tag_808\n        /* \"#utility.yul\":9979:9981   */\n      0x40\n        /* \"#utility.yul\":9968:9977   */\n      dup4\n        /* \"#utility.yul\":9964:9982   */\n      add\n        /* \"#utility.yul\":9956:9962   */\n      dup5\n        /* \"#utility.yul\":9927:9983   */\n      tag_720\n      jump\t// in\n    tag_808:\n        /* \"#utility.yul\":9919:9983   */\n      swap5\n        /* \"#utility.yul\":9657:9989   */\n      swap4\n      pop\n      pop\n      pop\n      pop\n      jump\t// out\n        /* \"#utility.yul\":9994:10175   */\n    tag_727:\n        /* \"#utility.yul\":10072:10085   */\n      dup1\n      mload\n      not(sub(shl(0xd0, 0x01), 0x01))\n        /* \"#utility.yul\":10114:10150   */\n      dup2\n      and\n        /* \"#utility.yul\":10104:10151   */\n      dup2\n      eq\n        /* \"#utility.yul\":10094:10169   */\n      tag_791\n      jumpi\n        /* \"#utility.yul\":10165:10166   */\n      0x00\n        /* \"#utility.yul\":10162:10163   */\n      dup1\n        /* \"#utility.yul\":10155:10167   */\n      revert\n        /* \"#utility.yul\":10180:10508   */\n    tag_645:\n        /* \"#utility.yul\":10255:10261   */\n      0x00\n        /* \"#utility.yul\":10263:10269   */\n      dup1\n        /* \"#utility.yul\":10316:10318   */\n      0x40\n        /* \"#utility.yul\":10304:10313   */\n      dup4\n        /* \"#utility.yul\":10295:10302   */\n      dup6\n        /* \"#utility.yul\":10291:10314   */\n      sub\n        /* \"#utility.yul\":10287:10319   */\n      slt\n        /* \"#utility.yul\":10284:10336   */\n      iszero\n      tag_812\n      jumpi\n        /* \"#utility.yul\":10332:10333   */\n      0x00\n        /* \"#utility.yul\":10329:10330   */\n      dup1\n        /* \"#utility.yul\":10322:10334   */\n      revert\n        /* \"#utility.yul\":10284:10336   */\n    tag_812:\n        /* \"#utility.yul\":10364:10373   */\n      dup3\n        /* \"#utility.yul\":10358:10374   */\n      mload\n        /* \"#utility.yul\":10383:10411   */\n      tag_813\n        /* \"#utility.yul\":10405:10410   */\n      dup2\n        /* \"#utility.yul\":10383:10411   */\n      tag_723\n      jump\t// in\n    tag_813:\n        /* \"#utility.yul\":10430:10435   */\n      swap2\n      pop\n        /* \"#utility.yul\":10454:10502   */\n      tag_814\n        /* \"#utility.yul\":10498:10500   */\n      0x20\n        /* \"#utility.yul\":10483:10501   */\n      dup5\n      add\n        /* \"#utility.yul\":10454:10502   */\n      tag_727\n      jump\t// in\n    tag_814:\n        /* \"#utility.yul\":10444:10502   */\n      swap1\n      pop\n        /* \"#utility.yul\":10180:10508   */\n      swap3\n      pop\n      swap3\n      swap1\n      pop\n      jump\t// out\n        /* \"#utility.yul\":10513:10633   */\n    tag_672:\n        /* \"#utility.yul\":10553:10554   */\n      0x00\n        /* \"#utility.yul\":10579:10580   */\n      dup3\n        /* \"#utility.yul\":10569:10604   */\n      tag_817\n      jumpi\n        /* \"#utility.yul\":10584:10602   */\n      tag_817\n      tag_725\n      jump\t// in\n    tag_817:\n      pop\n        /* \"#utility.yul\":10618:10627   */\n      div\n      swap1\n        /* \"#utility.yul\":10513:10633   */\n      jump\t// out\n        /* \"#utility.yul\":10638:11445   */\n    tag_700:\n        /* \"#utility.yul\":10756:10762   */\n      0x00\n        /* \"#utility.yul\":10764:10770   */\n      dup1\n        /* \"#utility.yul\":10772:10778   */\n      0x00\n        /* \"#utility.yul\":10780:10786   */\n      dup1\n        /* \"#utility.yul\":10788:10794   */\n      0x00\n        /* \"#utility.yul\":10796:10802   */\n      dup1\n        /* \"#utility.yul\":10804:10810   */\n      0x00\n        /* \"#utility.yul\":10857:10860   */\n      0xe0\n        /* \"#utility.yul\":10845:10854   */\n      dup9\n        /* \"#utility.yul\":10836:10843   */\n      dup11\n        /* \"#utility.yul\":10832:10855   */\n      sub\n        /* \"#utility.yul\":10828:10861   */\n      slt\n        /* \"#utility.yul\":10825:10878   */\n      iszero\n      tag_819\n      jumpi\n        /* \"#utility.yul\":10874:10875   */\n      0x00\n        /* \"#utility.yul\":10871:10872   */\n      dup1\n        /* \"#utility.yul\":10864:10876   */\n      revert\n        /* \"#utility.yul\":10825:10878   */\n    tag_819:\n        /* \"#utility.yul\":10897:10936   */\n      tag_820\n        /* \"#utility.yul\":10926:10935   */\n      dup9\n        /* \"#utility.yul\":10897:10936   */\n      tag_727\n      jump\t// in\n    tag_820:\n        /* \"#utility.yul\":10887:10936   */\n      swap7\n      pop\n        /* \"#utility.yul\":10976:10978   */\n      0x20\n        /* \"#utility.yul\":10965:10974   */\n      dup9\n        /* \"#utility.yul\":10961:10979   */\n      add\n        /* \"#utility.yul\":10955:10980   */\n      mload\n        /* \"#utility.yul\":10945:10980   */\n      swap6\n      pop\n        /* \"#utility.yul\":11020:11022   */\n      0x40\n        /* \"#utility.yul\":11009:11018   */\n      dup9\n        /* \"#utility.yul\":11005:11023   */\n      add\n        /* \"#utility.yul\":10999:11024   */\n      mload\n        /* \"#utility.yul\":10989:11024   */\n      swap5\n      pop\n        /* \"#utility.yul\":11064:11066   */\n      0x60\n        /* \"#utility.yul\":11053:11062   */\n      dup9\n        /* \"#utility.yul\":11049:11067   */\n      add\n        /* \"#utility.yul\":11043:11068   */\n      mload\n        /* \"#utility.yul\":11033:11068   */\n      swap4\n      pop\n        /* \"#utility.yul\":11111:11114   */\n      0x80\n        /* \"#utility.yul\":11100:11109   */\n      dup9\n        /* \"#utility.yul\":11096:11115   */\n      add\n        /* \"#utility.yul\":11090:11116   */\n      mload\n        /* \"#utility.yul\":11125:11156   */\n      tag_821\n        /* \"#utility.yul\":11150:11155   */\n      dup2\n        /* \"#utility.yul\":11125:11156   */\n      tag_721\n      jump\t// in\n    tag_821:\n        /* \"#utility.yul\":11225:11228   */\n      0xa0\n        /* \"#utility.yul\":11210:11229   */\n      dup10\n      add\n        /* \"#utility.yul\":11204:11230   */\n      mload\n        /* \"#utility.yul\":11175:11180   */\n      swap1\n      swap4\n      pop\n        /* \"#utility.yul\":11274:11278   */\n      0xff\n        /* \"#utility.yul\":11261:11279   */\n      dup2\n      and\n        /* \"#utility.yul\":11249:11280   */\n      dup2\n      eq\n        /* \"#utility.yul\":11239:11298   */\n      tag_822\n      jumpi\n        /* \"#utility.yul\":11294:11295   */\n      0x00\n        /* \"#utility.yul\":11291:11292   */\n      dup1\n        /* \"#utility.yul\":11284:11296   */\n      revert\n        /* \"#utility.yul\":11239:11298   */\n    tag_822:\n        /* \"#utility.yul\":11369:11372   */\n      0xc0\n        /* \"#utility.yul\":11354:11373   */\n      dup10\n      add\n        /* \"#utility.yul\":11348:11374   */\n      mload\n        /* \"#utility.yul\":11317:11324   */\n      swap1\n      swap3\n      pop\n        /* \"#utility.yul\":11383:11413   */\n      tag_823\n        /* \"#utility.yul\":11348:11374   */\n      dup2\n        /* \"#utility.yul\":11383:11413   */\n      tag_723\n      jump\t// in\n    tag_823:\n        /* \"#utility.yul\":11432:11439   */\n      dup1\n        /* \"#utility.yul\":11422:11439   */\n      swap2\n      pop\n      pop\n        /* \"#utility.yul\":10638:11445   */\n      swap3\n      swap6\n      swap9\n      swap2\n      swap5\n      swap8\n      pop\n      swap3\n      swap6\n      pop\n      jump\t// out\n    stop\n    data_c8669cf8eaf883002b9f48e28846a8d408c9b58ea6613bace374265e43c9bc43 9b779b17422d0df92223018b32b4d1fa46e071723d6817e2486d003becc55f00\n    data_d1b12de380b5f3a30ba38a23a69e5703e0569d4a1fc4ac869b5f2bb883f9bcc1 4142434445464748494a4b4c4d4e4f505152535455565758595a30313233343536373839\n\n    auxdata: 0xa26469706673582212206ee116820d26f05968a33e5142d79890bfc31d5957c05d0e8c7e7f47627276a564736f6c63430008180033\n}\n",
				"bytecode": {
					"linkReferences": {},
					"object": "60806040523480156200001157600080fd5b5060405162002deb38038062002deb8339810160408190526200003491620001c7565b33806200005b57604051631e4fbdf760e01b81526000600482015260240160405180910390fd5b62000066816200015a565b5060017f9b779b17422d0df92223018b32b4d1fa46e071723d6817e2486d003becc55f00556001600160a01b038316620000b35760405163d92e233d60e01b815260040160405180910390fd5b6001600160a01b038216620000db5760405163d92e233d60e01b815260040160405180910390fd5b6001600160a01b038116620001035760405163d92e233d60e01b815260040160405180910390fd5b600180546001600160a01b039485166001600160a01b03199182161790915560028054938516938216939093179092556003805491909316908216178255600580549091163317905560105560c860115562000211565b600080546001600160a01b038381166001600160a01b0319831681178455604051919092169283917f8be0079c531659141344cd1fd0a4f28419497f9722a3daafe3b4186f6b6457e09190a35050565b80516001600160a01b0381168114620001c257600080fd5b919050565b600080600060608486031215620001dd57600080fd5b620001e884620001aa565b9250620001f860208501620001aa565b91506200020860408501620001aa565b90509250925092565b612bca80620002216000396000f3fe6080604052600436106103815760003560e01c80638a19c8bc116101d1578063c4887f1511610102578063da090755116100a0578063f13afb901161006f578063f13afb90146109e8578063f2fde38b14610a08578063f82a23d114610a28578063f887ea4014610a5557600080fd5b8063da09075514610973578063dd898b2f14610993578063e9755b59146109b3578063ebd2fe41146109c857600080fd5b8063d38970bc116100dc578063d38970bc14610903578063d57f952514610919578063d6194c001461092e578063d65ab5f21461095e57600080fd5b8063c4887f15146108a6578063c74b817d146108d3578063cc16fe5b146108ed57600080fd5b8063ac6507831161016f578063b63ff8a311610149578063b63ff8a314610823578063b7bc5fb61461085c578063c0d7865514610871578063c33b75861461089157600080fd5b8063ac650783146107cb578063b2721164146107e0578063b303feeb146107f657600080fd5b806399b465cb116101ab57806399b465cb146107785780639c737e8f1461078e578063a1a016a314610796578063ab221a76146107ab57600080fd5b80638a19c8bc146107245780638da5cb5b1461073a57806392eaa9d91461075857600080fd5b806341d67d06116102b6578063677bd9ff1161025457806379eedbdd1161022357806379eedbdd146106765780637f35d49f146106a65780637f79ba59146106bc578063873f6f9e146106e957600080fd5b8063677bd9ff14610616578063715018a61461063657806376d9ff2c1461064b578063770435911461066057600080fd5b80635e123ce4116102905780635e123ce4146105b15780635f303f1c146105cb57806363d5ab8d146105eb5780636641ea081461060157600080fd5b806341d67d0614610566578063456990c71461057c57806346a662bf1461059c57600080fd5b80631a3b8e8c11610323578063293c2958116102fd578063293c2958146104dd5780632ee0c463146105085780633deb6cae146105325780634168632d1461054757600080fd5b80631a3b8e8c1461047a5780631ad41d141461049a578063231e832d146104ba57600080fd5b80630a8506ca1161035f5780630a8506ca1461041a5780630b7a567b1461042f5780630f67e7d51461044457806317ebf6ae1461047257600080fd5b806302e28c701461038657806303e3cd6a146103c057806307f19eba146103f8575b600080fd5b34801561039257600080fd5b506103a66103a1366004612670565b610a75565b6040516103b79594939291906126ce565b60405180910390f35b3480156103cc57600080fd5b506103e06103db36600461270c565b610b22565b6040516001600160a01b0390911681526020016103b7565b34801561040457600080fd5b50610418610413366004612743565b610b5a565b005b34801561042657600080fd5b50610418610bd3565b34801561043b57600080fd5b50610418610bea565b34801561045057600080fd5b50610459610cff565b6040516001600160d01b031990911681526020016103b7565b610418610e59565b34801561048657600080fd5b506001546103e0906001600160a01b031681565b3480156104a657600080fd5b506104186104b5366004612670565b610f2a565b3480156104c657600080fd5b506104cf610f8f565b6040519081526020016103b7565b3480156104e957600080fd5b506104f2610f9f565b6040516103b79a99989796959493929190612792565b34801561051457600080fd5b506018546105229060ff1681565b60405190151581526020016103b7565b34801561053e57600080fd5b506104cf600f81565b34801561055357600080fd5b5060185461052290610100900460ff1681565b34801561057257600080fd5b506104cf60115481565b34801561058857600080fd5b50610418610597366004612670565b611082565b3480156105a857600080fd5b506104186110e2565b3480156105bd57600080fd5b50600d546105229060ff1681565b3480156105d757600080fd5b506104186105e6366004612743565b611285565b3480156105f757600080fd5b506104cf60065481565b34801561060d57600080fd5b506104cf6112d6565b34801561062257600080fd5b50610418610631366004612670565b6112ef565b34801561064257600080fd5b506104186115d3565b34801561065757600080fd5b506104186115e5565b34801561066c57600080fd5b506104cf60105481565b34801561068257600080fd5b50610459610691366004612670565b60126020526000908152604090205460d01b81565b3480156106b257600080fd5b506104cf610e0181565b3480156106c857600080fd5b506104cf6106d7366004612670565b60136020526000908152604090205481565b3480156106f557600080fd5b5061052261070436600461281e565b601760209081526000928352604080842090915290825290205460ff1681565b34801561073057600080fd5b506104cf600a5481565b34801561074657600080fd5b506000546001600160a01b03166103e0565b34801561076457600080fd5b506004546103e0906001600160a01b031681565b34801561078457600080fd5b506104cf600b5481565b6104186115fa565b3480156107a257600080fd5b506104cf611602565b3480156107b757600080fd5b506005546103e0906001600160a01b031681565b3480156107d757600080fd5b506104cf600281565b3480156107ec57600080fd5b506104cf600e5481565b34801561080257600080fd5b506104cf610811366004612670565b60166020526000908152604090205481565b34801561082f57600080fd5b5061084361083e366004612670565b611632565b6040516001600160f81b031990911681526020016103b7565b34801561086857600080fd5b506104cf600681565b34801561087d57600080fd5b5061041861088c366004612743565b61169f565b34801561089d57600080fd5b506105226116f0565b3480156108b257600080fd5b506104cf6108c1366004612670565b60076020526000908152604090205481565b3480156108df57600080fd5b506009546105229060ff1681565b3480156108f957600080fd5b506104cf600c5481565b34801561090f57600080fd5b506104cf600f5481565b34801561092557600080fd5b506104186116ff565b34801561093a57600080fd5b50610522610949366004612670565b60086020526000908152604090205460ff1681565b34801561096a57600080fd5b50610418611718565b34801561097f57600080fd5b506002546103e0906001600160a01b031681565b34801561099f57600080fd5b506104186109ae366004612743565b6118b7565b3480156109bf57600080fd5b50610418611908565b3480156109d457600080fd5b506104186109e336600461285c565b61191c565b3480156109f457600080fd5b50610418610a03366004612743565b611937565b348015610a1457600080fd5b50610418610a23366004612743565b611961565b348015610a3457600080fd5b506104cf610a43366004612670565b60156020526000908152604090205481565b348015610a6157600080fd5b506003546103e0906001600160a01b031681565b600081815260126020908152604080832054601383528184205460148452828520805484518187028101870190955280855260d09390931b959194606094929384939291830182828015610af257602002820191906000526020600020905b81546001600160a01b03168152600190910190602001808311610ad4575b50505060009889525050601560209081526040808920546016909252909720549597949690959094909350915050565b60146020528160005260406000208181548110610b3e57600080fd5b6000918252602090912001546001600160a01b03169150829050565b610b6261199c565b6001600160a01b038116610b895760405163d92e233d60e01b815260040160405180910390fd5b600580546001600160a01b0319166001600160a01b0383169081179091556040517f1f53e003aaf46af23aeb50e85f438d6f0c33618ce44e3545f1ec030c79b1772990600090a250565b610bdb61199c565b6018805460ff19166001179055565b610bf26119c9565b6003546001600160a01b03163314610c1d57604051639165520160e01b815260040160405180910390fd5b600d5460ff16610c4057604051633a5f7b5760e01b815260040160405180910390fd5b610c486119e5565b15610c665760405163717824fb60e01b815260040160405180910390fd5b60068054906000610c768361288f565b9091555050600b546000908152600760205260408120805491610c988361288f565b9190505550600a547f494d93a08dca016bff87fc5e35de704731b23d47eb35da9499be2ddb7536da22600654600b54604051610cde929190918252602082015260400190565b60405180910390a2610cfd6001600080516020612b5183398151915255565b565b60408051600680825281830190925260009182919060208201818036833701905050905060015b60068111610e49576000610d3b6001836128be565b9050600b54821015610dc757604051806060016040528060248152602001612b7160249139600083815260076020526040902054610d7b906024906128ed565b81518110610d8b57610d8b612901565b602001015160f81c60f81b838260ff1681518110610dab57610dab612901565b60200101906001600160f81b031916908160001a905350610e36565b600b548203610e0457604051806060016040528060248152602001612b7160249139600083815260076020526040902054610d7b906024906128ed565b600060f81b838260ff1681518110610e1e57610e1e612901565b60200101906001600160f81b031916908160001a9053505b5080610e418161288f565b915050610d26565b50610e5381612917565b91505090565b34600003610e7a57604051631f2a200560e01b815260040160405180910390fd5b34600e6000828254610e8c919061294e565b909155505060015460408051630d0e30db60e41b815290516001600160a01b039092169163d0e30db0913491600480830192600092919082900301818588803b158015610ed857600080fd5b505af1158015610eec573d6000803e3d6000fd5b50506040513481523393507ff0d496561fe25891ca8568b6877b038238629d8dbe5777373589bece931dc172925060200190505b60405180910390a2565b610f3261199c565b80600003610f53576040516340250f0160e11b815260040160405180910390fd5b60108190556040518181527f1e64ff98418e31d486498b471741cc3ff92302fa146e6e124e3025186cfab465906020015b60405180910390a150565b610f9c600f610e0161294e565b81565b600080600080600080600080610fb3612652565b610fbb612652565b600a549950600b549850600c5497506006549650610fd7610cff565b9550600e549450600f549350610feb6119e5565b925060005b6006811015611075576007600061100883600161294e565b81526020019081526020016000205483826006811061102957611029612901565b60200201526008600061103d83600161294e565b815260208101919091526040016000205460ff1682826006811061106357611063612901565b91151560209092020152600101610ff0565b5090919293949596979899565b61108a61199c565b6103e88111156110ad57604051631f2a200560e01b815260040160405180910390fd5b60118190556040518181527f21b2cfef155acf409755ec06f4f701c8d13a5b6339fe8d1ee89afb57318f708490602001610f84565b6110ea6119c9565b6005546001600160a01b03163314611115576040516305b9433360e01b815260040160405180910390fd5b600d5460ff1661113857604051633a5f7b5760e01b815260040160405180910390fd5b601854610100900460ff161561116157604051634c211ccd60e01b815260040160405180910390fd5b6000600c544261117191906128be565b9050610e018110156111a657604051632c690a3760e11b815260048101829052610e0160248201526044015b60405180910390fd5b6006600b54101561124957600b80546000908152600860205260408120805460ff19166001179055815491906111db8361288f565b909155505042600c819055600b805460009081526007602052604080822091909155600a549154905191927fe9a2985393fa4bb459d73d85249df3b5923e70fb93b7b9c307e72359ab1675879261123c929190918252602082015260400190565b60405180910390a261126d565b600b546000908152600860205260409020805460ff1916600117905561126d611a13565b50610cfd6001600080516020612b5183398151915255565b61128d61199c565b6001600160a01b0381166112b45760405163d92e233d60e01b815260040160405180910390fd5b600180546001600160a01b0319166001600160a01b0392909216919091179055565b60066112e5600f610e0161294e565b610f9c9190612961565b6112f76119c9565b600d5460ff1661131a57604051633a5f7b5760e01b815260040160405180910390fd5b60008181526012602052604090205460d01b6001600160d01b0319166113565760405163668fee6f60e11b81526004810182905260240161119d565b600081815260176020908152604080832033845290915290205460ff161561139a5760405163732750ed60e11b81523360048201526024810182905260440161119d565b6113a560028261294e565b6113b090600161294e565b600a5411156113d557604051635524932960e01b81526004810182905260240161119d565b60008181526014602090815260408083208054825181850281018501909352808352849383018282801561143257602002820191906000526020600020905b81546001600160a01b03168152600190910190602001808311611414575b5050505050905060005b815181101561148857336001600160a01b031682828151811061146157611461612901565b60200260200101516001600160a01b0316036114805760019250611488565b60010161143c565b50816114b05760405163efbeaf3360e01b81523360048201526024810184905260440161119d565b600083815260156020526040812054908190036114e057604051631f2a200560e01b815260040160405180910390fd5b60008481526017602090815260408083203384529091528120805460ff19166001179055600f80548392906115169084906128be565b9091555050600154604051636203b43b60e11b8152336004820152602481018390526001600160a01b039091169063c407687690604401600060405180830381600087803b15801561156757600080fd5b505af115801561157b573d6000803e3d6000fd5b50506040518381528692503391507f7472e24de4628e34b41a2aa1688ed4b46a9145b2de1cf93d74902473ccc1740d9060200160405180910390a35050506115d06001600080516020612b5183398151915255565b50565b6115db61199c565b610cfd6000611cee565b6115ed61199c565b6018805461ff0019169055565b610e5961199c565b600080600c544261161391906128be565b9050610e01811061162657600091505090565b610e5381610e016128be565b6000600b5482111561164657506000919050565b604051806060016040528060248152602001612b716024913960008381526007602052604090205461167a906024906128ed565b8151811061168a5761168a612901565b01602001516001600160f81b03191692915050565b6116a761199c565b6001600160a01b0381166116ce5760405163d92e233d60e01b815260040160405180910390fd5b600380546001600160a01b0319166001600160a01b0392909216919091179055565b60006116fa6119e5565b905090565b61170761199c565b6018805461ff001916610100179055565b61172061199c565b600d5460ff16156117445760405163ba26162b60e01b815260040160405180910390fd5b600d805460ff19166001908117909155600a819055600b81905542600c555b600681116117a057600081815260076020908152604080832083905560089091529020805460ff19169055806117988161288f565b915050611763565b50600254600a5460405163077923c560e31b81526001600160a01b0390921691633bc91e28916117d69160040190815260200190565b600060405180830381600087803b1580156117f057600080fd5b505af1158015611804573d6000803e3d6000fd5b50505050611813600a54611d3e565b6040514281527f50ad08f58a27f2851d7e3a1b3a6a46b290f2ce677e99642d30ff639721e777909060200160405180910390a1600a546040514281527f278844837bcf8364a705384bf3a2812901f54155bae86dea81dd52aa5b9ec0e39060200160405180910390a2600a54600b54604080519182524260208301527fe9a2985393fa4bb459d73d85249df3b5923e70fb93b7b9c307e72359ab1675879101610f20565b6118bf61199c565b6001600160a01b0381166118e65760405163d92e233d60e01b815260040160405180910390fd5b600280546001600160a01b0319166001600160a01b0392909216919091179055565b61191061199c565b6018805460ff19169055565b61192461199c565b6009805460ff1916911515919091179055565b61193f61199c565b600480546001600160a01b0319166001600160a01b0392909216919091179055565b61196961199c565b6001600160a01b03811661199357604051631e4fbdf760e01b81526000600482015260240161119d565b6115d081611cee565b6000546001600160a01b03163314610cfd5760405163118cdaa760e01b815233600482015260240161119d565b6119d1611e23565b6002600080516020612b5183398151915255565b600d5460009060ff166119f85750600090565b6000600c5442611a0891906128be565b610e01111592915050565b600a546000611a20611e53565b600083815260126020908152604091829020805465ffffffffffff191660d085901c17905560065482519081526001600160d01b031984169181019190915291925083917fd9518e0c64df7f54fe347e6e390672d87bc2350a9df1b275e2de0f2655ca9a84910160405180910390a2600080611a9c8484611f1a565b91509150611aab848383612259565b611ab4846123c9565b6002546040516322a5642760e11b8152600481018690526000916001600160a01b03169063454ac84e90602401600060405180830381865afa158015611afe573d6000803e3d6000fd5b505050506040513d6000823e601f3d908101601f19168201604052611b269190810190612988565b5160008681526013602090815260408083205460168352928190205481516001600160d01b03198a1681529283019390935281018590526060810191909152608081018290524260a082015290915085907fcb3e0bd9fc5c5ca893ab7edf22c314b2852d2cf6e36e091941d0709caeb4145c9060c00160405180910390a2600a8054906000611bb48361288f565b90915550506001600b81905542600c555b60068111611c0257600081815260076020908152604080832083905560089091529020805460ff1916905580611bfa8161288f565b915050611bc5565b50600254600a5460405163077923c560e31b81526001600160a01b0390921691633bc91e2891611c389160040190815260200190565b600060405180830381600087803b158015611c5257600080fd5b505af1158015611c66573d6000803e3d6000fd5b50505050611c75600a54611d3e565b600a546040514281527f278844837bcf8364a705384bf3a2812901f54155bae86dea81dd52aa5b9ec0e39060200160405180910390a2600a5460408051600181524260208201527fe9a2985393fa4bb459d73d85249df3b5923e70fb93b7b9c307e72359ab167587910160405180910390a25050505050565b600080546001600160a01b038381166001600160a01b0319831681178455604051919092169283917f8be0079c531659141344cd1fd0a4f28419497f9722a3daafe3b4186f6b6457e09190a35050565b6002546040516322a5642760e11b8152600481018390526000916001600160a01b03169063454ac84e90602401600060405180830381865afa158015611d88573d6000803e3d6000fd5b505050506040513d6000823e601f3d908101601f19168201604052611db09190810190612988565b805190915015611e1f5760025460405163099866c360e11b81526001600160a01b0390911690631330cd8690611dec9085908590600401612a4d565b600060405180830381600087803b158015611e0657600080fd5b505af1158015611e1a573d6000803e3d6000fd5b505050505b5050565b600080516020612b5183398151915254600203610cfd57604051633ee5aeb560e01b815260040160405180910390fd5b60408051600680825281830190925260009182919060208201818036833701905050905060015b60068111610e4957604051806060016040528060248152602001612b7160249139600082815260076020526040902054611eb6906024906128ed565b81518110611ec657611ec6612901565b01602001516001600160f81b03191682611ee16001846128be565b81518110611ef157611ef1612901565b60200101906001600160f81b031916908160001a90535080611f128161288f565b915050611e7a565b600254604051639fd1162760e01b8152600481018490526001600160d01b03198316602482015260609160009182916001600160a01b031690639fd1162790604401600060405180830381865afa158015611f79573d6000803e3d6000fd5b505050506040513d6000823e601f3d908101601f19168201604052611fa19190810190612988565b90506000815167ffffffffffffffff811115611fbf57611fbf6128a8565b604051908082528060200260200182016040528015611fe8578160200160208202803683370190505b50905060005b82518110156121b257600083828151811061200b5761200b612901565b602090810291909101015160025460405163a96de4f560e01b81526001600160a01b038084166004830152602482018c90529293506000928392169063a96de4f5906044016040805180830381865afa15801561206c573d6000803e3d6000fd5b505050506040513d601f19601f820116820180604052508101906120909190612a86565b91509150816120a1575050506121aa565b6001600160d01b0319818116908a16146120bd575050506121aa565b60025460405163c106aee360e01b81526001600160a01b038581166004830152602482018d9052600092839291169063c106aee3906044016040805180830381865afa158015612111573d6000803e3d6000fd5b505050506040513d601f19601f820116820180604052508101906121359190612a86565b91509150816121485750505050506121aa565b6001600160d01b0319818116908c16146121665750505050506121aa565b84878a6121728161288f565b9b508151811061218457612184612901565b60200260200101906001600160a01b031690816001600160a01b03168152505050505050505b600101611fee565b508267ffffffffffffffff8111156121cc576121cc6128a8565b6040519080825280602002602001820160405280156121f5578160200160208202803683370190505b50935060005b8381101561224f5781818151811061221557612215612901565b602002602001015185828151811061222f5761222f612901565b6001600160a01b03909216602092830291909101909101526001016121fb565b5050509250929050565b600e546011546000908190158015906122725750600083115b156122dd5760006127106011548561228a9190612961565b6122949190612abb565b90506122a081856128be565b93507f85fcfc84baa0423652490bdd8531f642a3376cb202145025b549fb449516e5a8816040516122d391815260200190565b60405180910390a1505b50816000841561230c576122f18585612abb565b92506122fd8584612961565b905061230981856128be565b91505b60005b8581101561237e576000888152601460205260409020875188908390811061233957612339612901565b60209081029190910181015182546001808201855560009485529290932090920180546001600160a01b0319166001600160a01b03909316929092179091550161230f565b5060008781526013602090815260408083208790556015825280832086905560169091528120839055600f80548392906123b990849061294e565b909155505050600e555050505050565b6002546040516322a5642760e11b8152600481018390526000916001600160a01b03169063454ac84e90602401600060405180830381865afa158015612413573d6000803e3d6000fd5b505050506040513d6000823e601f3d908101601f1916820160405261243b9190810190612988565b905060005b815181101561264d5760025482516000916001600160a01b03169063b8a740e09085908590811061247357612473612901565b6020026020010151866040518363ffffffff1660e01b81526004016124ad9291906001600160a01b03929092168252602082015260400190565b60e060405180830381865afa1580156124ca573d6000803e3d6000fd5b505050506040513d601f19601f820116820180604052508101906124ee9190612acf565b5050505092505050600a548110156126445761250b60028261294e565b600a5411156125ae5760025483516001600160a01b0390911690637a03ce4f9085908590811061253d5761253d612901565b6020026020010151866040518363ffffffff1660e01b81526004016125779291906001600160a01b03929092168252602082015260400190565b600060405180830381600087803b15801561259157600080fd5b505af11580156125a5573d6000803e3d6000fd5b50505050612644565b60025483516001600160a01b03909116906347f43ef2908590859081106125d7576125d7612901565b6020026020010151866040518363ffffffff1660e01b81526004016126119291906001600160a01b03929092168252602082015260400190565b600060405180830381600087803b15801561262b57600080fd5b505af115801561263f573d6000803e3d6000fd5b505050505b50600101612440565b505050565b6040518060c001604052806006906020820280368337509192915050565b60006020828403121561268257600080fd5b5035919050565b60008151808452602080850194506020840160005b838110156126c35781516001600160a01b03168752958201959082019060010161269e565b509495945050505050565b65ffffffffffff60d01b8616815284602082015260a0604082015260006126f860a0830186612689565b606083019490945250608001529392505050565b6000806040838503121561271f57600080fd5b50508035926020909101359150565b6001600160a01b03811681146115d057600080fd5b60006020828403121561275557600080fd5b81356127608161272e565b9392505050565b8060005b600681101561278c578151151584526020938401939091019060010161276b565b50505050565b6000610280820190508b825260208b60208401528a604084015289606084015265ffffffffffff60d01b891660808401528760a08401528660c084015285151560e084015261010083018560005b60068110156127fd578151835291830191908301906001016127e0565b5050505061280f6101c0830184612767565b9b9a5050505050505050505050565b6000806040838503121561283157600080fd5b8235915060208301356128438161272e565b809150509250929050565b80151581146115d057600080fd5b60006020828403121561286e57600080fd5b81356127608161284e565b634e487b7160e01b600052601160045260246000fd5b6000600182016128a1576128a1612879565b5060010190565b634e487b7160e01b600052604160045260246000fd5b818103818111156128d1576128d1612879565b92915050565b634e487b7160e01b600052601260045260246000fd5b6000826128fc576128fc6128d7565b500690565b634e487b7160e01b600052603260045260246000fd5b805160208201516001600160d01b031980821692919060068310156129465780818460060360031b1b83161693505b505050919050565b808201808211156128d1576128d1612879565b80820281158282048414176128d1576128d1612879565b80516129838161272e565b919050565b6000602080838503121561299b57600080fd5b825167ffffffffffffffff808211156129b357600080fd5b818501915085601f8301126129c757600080fd5b8151818111156129d9576129d96128a8565b8060051b604051601f19603f830116810181811085821117156129fe576129fe6128a8565b604052918252848201925083810185019188831115612a1c57600080fd5b938501935b82851015612a4157612a3285612978565b84529385019392850192612a21565b98975050505050505050565b828152604060208201526000612a666040830184612689565b949350505050565b80516001600160d01b03198116811461298357600080fd5b60008060408385031215612a9957600080fd5b8251612aa48161284e565b9150612ab260208401612a6e565b90509250929050565b600082612aca57612aca6128d7565b500490565b600080600080600080600060e0888a031215612aea57600080fd5b612af388612a6e565b96506020880151955060408801519450606088015193506080880151612b188161272e565b60a089015190935060ff81168114612b2f57600080fd5b60c0890151909250612b408161284e565b809150509295989194975092955056fe9b779b17422d0df92223018b32b4d1fa46e071723d6817e2486d003becc55f004142434445464748494a4b4c4d4e4f505152535455565758595a30313233343536373839a26469706673582212206ee116820d26f05968a33e5142d79890bfc31d5957c05d0e8c7e7f47627276a564736f6c63430008180033",
					"opcodes": "PUSH1 0x80 PUSH1 0x40 MSTORE CALLVALUE DUP1 ISZERO PUSH3 0x11 JUMPI PUSH1 0x0 DUP1 REVERT JUMPDEST POP PUSH1 0x40 MLOAD PUSH3 0x2DEB CODESIZE SUB DUP1 PUSH3 0x2DEB DUP4 CODECOPY DUP2 ADD PUSH1 0x40 DUP2 SWAP1 MSTORE PUSH3 0x34 SWAP2 PUSH3 0x1C7 JUMP JUMPDEST CALLER DUP1 PUSH3 0x5B JUMPI PUSH1 0x40 MLOAD PUSH4 0x1E4FBDF7 PUSH1 0xE0 SHL DUP2 MSTORE PUSH1 0x0 PUSH1 0x4 DUP3 ADD MSTORE PUSH1 0x24 ADD PUSH1 0x40 MLOAD DUP1 SWAP2 SUB SWAP1 REVERT JUMPDEST PUSH3 0x66 DUP2 PUSH3 0x15A JUMP JUMPDEST POP PUSH1 0x1 PUSH32 0x9B779B17422D0DF92223018B32B4D1FA46E071723D6817E2486D003BECC55F00 SSTORE PUSH1 0x1 PUSH1 0x1 PUSH1 0xA0 SHL SUB DUP4 AND PUSH3 0xB3 JUMPI PUSH1 0x40 MLOAD PUSH4 0xD92E233D PUSH1 0xE0 SHL DUP2 MSTORE PUSH1 0x4 ADD PUSH1 0x40 MLOAD DUP1 SWAP2 SUB SWAP1 REVERT JUMPDEST PUSH1 0x1 PUSH1 0x1 PUSH1 0xA0 SHL SUB DUP3 AND PUSH3 0xDB JUMPI PUSH1 0x40 MLOAD PUSH4 0xD92E233D PUSH1 0xE0 SHL DUP2 MSTORE PUSH1 0x4 ADD PUSH1 0x40 MLOAD DUP1 SWAP2 SUB SWAP1 REVERT JUMPDEST PUSH1 0x1 PUSH1 0x1 PUSH1 0xA0 SHL SUB DUP2 AND PUSH3 0x103 JUMPI PUSH1 0x40 MLOAD PUSH4 0xD92E233D PUSH1 0xE0 SHL DUP2 MSTORE PUSH1 0x4 ADD PUSH1 0x40 MLOAD DUP1 SWAP2 SUB SWAP1 REVERT JUMPDEST PUSH1 0x1 DUP1 SLOAD PUSH1 0x1 PUSH1 0x1 PUSH1 0xA0 SHL SUB SWAP5 DUP6 AND PUSH1 0x1 PUSH1 0x1 PUSH1 0xA0 SHL SUB NOT SWAP2 DUP3 AND OR SWAP1 SWAP2 SSTORE PUSH1 0x2 DUP1 SLOAD SWAP4 DUP6 AND SWAP4 DUP3 AND SWAP4 SWAP1 SWAP4 OR SWAP1 SWAP3 SSTORE PUSH1 0x3 DUP1 SLOAD SWAP2 SWAP1 SWAP4 AND SWAP1 DUP3 AND OR DUP3 SSTORE PUSH1 0x5 DUP1 SLOAD SWAP1 SWAP2 AND CALLER OR SWAP1 SSTORE PUSH1 0x10 SSTORE PUSH1 0xC8 PUSH1 0x11 SSTORE PUSH3 0x211 JUMP JUMPDEST PUSH1 0x0 DUP1 SLOAD PUSH1 0x1 PUSH1 0x1 PUSH1 0xA0 SHL SUB DUP4 DUP2 AND PUSH1 0x1 PUSH1 0x1 PUSH1 0xA0 SHL SUB NOT DUP4 AND DUP2 OR DUP5 SSTORE PUSH1 0x40 MLOAD SWAP2 SWAP1 SWAP3 AND SWAP3 DUP4 SWAP2 PUSH32 0x8BE0079C531659141344CD1FD0A4F28419497F9722A3DAAFE3B4186F6B6457E0 SWAP2 SWAP1 LOG3 POP POP JUMP JUMPDEST DUP1 MLOAD PUSH1 0x1 PUSH1 0x1 PUSH1 0xA0 SHL SUB DUP2 AND DUP2 EQ PUSH3 0x1C2 JUMPI PUSH1 0x0 DUP1 REVERT JUMPDEST SWAP2 SWAP1 POP JUMP JUMPDEST PUSH1 0x0 DUP1 PUSH1 0x0 PUSH1 0x60 DUP5 DUP7 SUB SLT ISZERO PUSH3 0x1DD JUMPI PUSH1 0x0 DUP1 REVERT JUMPDEST PUSH3 0x1E8 DUP5 PUSH3 0x1AA JUMP JUMPDEST SWAP3 POP PUSH3 0x1F8 PUSH1 0x20 DUP6 ADD PUSH3 0x1AA JUMP JUMPDEST SWAP2 POP PUSH3 0x208 PUSH1 0x40 DUP6 ADD PUSH3 0x1AA JUMP JUMPDEST SWAP1 POP SWAP3 POP SWAP3 POP SWAP3 JUMP JUMPDEST PUSH2 0x2BCA DUP1 PUSH3 0x221 PUSH1 0x0 CODECOPY PUSH1 0x0 RETURN INVALID PUSH1 0x80 PUSH1 0x40 MSTORE PUSH1 0x4 CALLDATASIZE LT PUSH2 0x381 JUMPI PUSH1 0x0 CALLDATALOAD PUSH1 0xE0 SHR DUP1 PUSH4 0x8A19C8BC GT PUSH2 0x1D1 JUMPI DUP1 PUSH4 0xC4887F15 GT PUSH2 0x102 JUMPI DUP1 PUSH4 0xDA090755 GT PUSH2 0xA0 JUMPI DUP1 PUSH4 0xF13AFB90 GT PUSH2 0x6F JUMPI DUP1 PUSH4 0xF13AFB90 EQ PUSH2 0x9E8 JUMPI DUP1 PUSH4 0xF2FDE38B EQ PUSH2 0xA08 JUMPI DUP1 PUSH4 0xF82A23D1 EQ PUSH2 0xA28 JUMPI DUP1 PUSH4 0xF887EA40 EQ PUSH2 0xA55 JUMPI PUSH1 0x0 DUP1 REVERT JUMPDEST DUP1 PUSH4 0xDA090755 EQ PUSH2 0x973 JUMPI DUP1 PUSH4 0xDD898B2F EQ PUSH2 0x993 JUMPI DUP1 PUSH4 0xE9755B59 EQ PUSH2 0x9B3 JUMPI DUP1 PUSH4 0xEBD2FE41 EQ PUSH2 0x9C8 JUMPI PUSH1 0x0 DUP1 REVERT JUMPDEST DUP1 PUSH4 0xD38970BC GT PUSH2 0xDC JUMPI DUP1 PUSH4 0xD38970BC EQ PUSH2 0x903 JUMPI DUP1 PUSH4 0xD57F9525 EQ PUSH2 0x919 JUMPI DUP1 PUSH4 0xD6194C00 EQ PUSH2 0x92E JUMPI DUP1 PUSH4 0xD65AB5F2 EQ PUSH2 0x95E JUMPI PUSH1 0x0 DUP1 REVERT JUMPDEST DUP1 PUSH4 0xC4887F15 EQ PUSH2 0x8A6 JUMPI DUP1 PUSH4 0xC74B817D EQ PUSH2 0x8D3 JUMPI DUP1 PUSH4 0xCC16FE5B EQ PUSH2 0x8ED JUMPI PUSH1 0x0 DUP1 REVERT JUMPDEST DUP1 PUSH4 0xAC650783 GT PUSH2 0x16F JUMPI DUP1 PUSH4 0xB63FF8A3 GT PUSH2 0x149 JUMPI DUP1 PUSH4 0xB63FF8A3 EQ PUSH2 0x823 JUMPI DUP1 PUSH4 0xB7BC5FB6 EQ PUSH2 0x85C JUMPI DUP1 PUSH4 0xC0D78655 EQ PUSH2 0x871 JUMPI DUP1 PUSH4 0xC33B7586 EQ PUSH2 0x891 JUMPI PUSH1 0x0 DUP1 REVERT JUMPDEST DUP1 PUSH4 0xAC650783 EQ PUSH2 0x7CB JUMPI DUP1 PUSH4 0xB2721164 EQ PUSH2 0x7E0 JUMPI DUP1 PUSH4 0xB303FEEB EQ PUSH2 0x7F6 JUMPI PUSH1 0x0 DUP1 REVERT JUMPDEST DUP1 PUSH4 0x99B465CB GT PUSH2 0x1AB JUMPI DUP1 PUSH4 0x99B465CB EQ PUSH2 0x778 JUMPI DUP1 PUSH4 0x9C737E8F EQ PUSH2 0x78E JUMPI DUP1 PUSH4 0xA1A016A3 EQ PUSH2 0x796 JUMPI DUP1 PUSH4 0xAB221A76 EQ PUSH2 0x7AB JUMPI PUSH1 0x0 DUP1 REVERT JUMPDEST DUP1 PUSH4 0x8A19C8BC EQ PUSH2 0x724 JUMPI DUP1 PUSH4 0x8DA5CB5B EQ PUSH2 0x73A JUMPI DUP1 PUSH4 0x92EAA9D9 EQ PUSH2 0x758 JUMPI PUSH1 0x0 DUP1 REVERT JUMPDEST DUP1 PUSH4 0x41D67D06 GT PUSH2 0x2B6 JUMPI DUP1 PUSH4 0x677BD9FF GT PUSH2 0x254 JUMPI DUP1 PUSH4 0x79EEDBDD GT PUSH2 0x223 JUMPI DUP1 PUSH4 0x79EEDBDD EQ PUSH2 0x676 JUMPI DUP1 PUSH4 0x7F35D49F EQ PUSH2 0x6A6 JUMPI DUP1 PUSH4 0x7F79BA59 EQ PUSH2 0x6BC JUMPI DUP1 PUSH4 0x873F6F9E EQ PUSH2 0x6E9 JUMPI PUSH1 0x0 DUP1 REVERT JUMPDEST DUP1 PUSH4 0x677BD9FF EQ PUSH2 0x616 JUMPI DUP1 PUSH4 0x715018A6 EQ PUSH2 0x636 JUMPI DUP1 PUSH4 0x76D9FF2C EQ PUSH2 0x64B JUMPI DUP1 PUSH4 0x77043591 EQ PUSH2 0x660 JUMPI PUSH1 0x0 DUP1 REVERT JUMPDEST DUP1 PUSH4 0x5E123CE4 GT PUSH2 0x290 JUMPI DUP1 PUSH4 0x5E123CE4 EQ PUSH2 0x5B1 JUMPI DUP1 PUSH4 0x5F303F1C EQ PUSH2 0x5CB JUMPI DUP1 PUSH4 0x63D5AB8D EQ PUSH2 0x5EB JUMPI DUP1 PUSH4 0x6641EA08 EQ PUSH2 0x601 JUMPI PUSH1 0x0 DUP1 REVERT JUMPDEST DUP1 PUSH4 0x41D67D06 EQ PUSH2 0x566 JUMPI DUP1 PUSH4 0x456990C7 EQ PUSH2 0x57C JUMPI DUP1 PUSH4 0x46A662BF EQ PUSH2 0x59C JUMPI PUSH1 0x0 DUP1 REVERT JUMPDEST DUP1 PUSH4 0x1A3B8E8C GT PUSH2 0x323 JUMPI DUP1 PUSH4 0x293C2958 GT PUSH2 0x2FD JUMPI DUP1 PUSH4 0x293C2958 EQ PUSH2 0x4DD JUMPI DUP1 PUSH4 0x2EE0C463 EQ PUSH2 0x508 JUMPI DUP1 PUSH4 0x3DEB6CAE EQ PUSH2 0x532 JUMPI DUP1 PUSH4 0x4168632D EQ PUSH2 0x547 JUMPI PUSH1 0x0 DUP1 REVERT JUMPDEST DUP1 PUSH4 0x1A3B8E8C EQ PUSH2 0x47A JUMPI DUP1 PUSH4 0x1AD41D14 EQ PUSH2 0x49A JUMPI DUP1 PUSH4 0x231E832D EQ PUSH2 0x4BA JUMPI PUSH1 0x0 DUP1 REVERT JUMPDEST DUP1 PUSH4 0xA8506CA GT PUSH2 0x35F JUMPI DUP1 PUSH4 0xA8506CA EQ PUSH2 0x41A JUMPI DUP1 PUSH4 0xB7A567B EQ PUSH2 0x42F JUMPI DUP1 PUSH4 0xF67E7D5 EQ PUSH2 0x444 JUMPI DUP1 PUSH4 0x17EBF6AE EQ PUSH2 0x472 JUMPI PUSH1 0x0 DUP1 REVERT JUMPDEST DUP1 PUSH4 0x2E28C70 EQ PUSH2 0x386 JUMPI DUP1 PUSH4 0x3E3CD6A EQ PUSH2 0x3C0 JUMPI DUP1 PUSH4 0x7F19EBA EQ PUSH2 0x3F8 JUMPI JUMPDEST PUSH1 0x0 DUP1 REVERT JUMPDEST CALLVALUE DUP1 ISZERO PUSH2 0x392 JUMPI PUSH1 0x0 DUP1 REVERT JUMPDEST POP PUSH2 0x3A6 PUSH2 0x3A1 CALLDATASIZE PUSH1 0x4 PUSH2 0x2670 JUMP JUMPDEST PUSH2 0xA75 JUMP JUMPDEST PUSH1 0x40 MLOAD PUSH2 0x3B7 SWAP6 SWAP5 SWAP4 SWAP3 SWAP2 SWAP1 PUSH2 0x26CE JUMP JUMPDEST PUSH1 0x40 MLOAD DUP1 SWAP2 SUB SWAP1 RETURN JUMPDEST CALLVALUE DUP1 ISZERO PUSH2 0x3CC JUMPI PUSH1 0x0 DUP1 REVERT JUMPDEST POP PUSH2 0x3E0 PUSH2 0x3DB CALLDATASIZE PUSH1 0x4 PUSH2 0x270C JUMP JUMPDEST PUSH2 0xB22 JUMP JUMPDEST PUSH1 0x40 MLOAD PUSH1 0x1 PUSH1 0x1 PUSH1 0xA0 SHL SUB SWAP1 SWAP2 AND DUP2 MSTORE PUSH1 0x20 ADD PUSH2 0x3B7 JUMP JUMPDEST CALLVALUE DUP1 ISZERO PUSH2 0x404 JUMPI PUSH1 0x0 DUP1 REVERT JUMPDEST POP PUSH2 0x418 PUSH2 0x413 CALLDATASIZE PUSH1 0x4 PUSH2 0x2743 JUMP JUMPDEST PUSH2 0xB5A JUMP JUMPDEST STOP JUMPDEST CALLVALUE DUP1 ISZERO PUSH2 0x426 JUMPI PUSH1 0x0 DUP1 REVERT JUMPDEST POP PUSH2 0x418 PUSH2 0xBD3 JUMP JUMPDEST CALLVALUE DUP1 ISZERO PUSH2 0x43B JUMPI PUSH1 0x0 DUP1 REVERT JUMPDEST POP PUSH2 0x418 PUSH2 0xBEA JUMP JUMPDEST CALLVALUE DUP1 ISZERO PUSH2 0x450 JUMPI PUSH1 0x0 DUP1 REVERT JUMPDEST POP PUSH2 0x459 PUSH2 0xCFF JUMP JUMPDEST PUSH1 0x40 MLOAD PUSH1 0x1 PUSH1 0x1 PUSH1 0xD0 SHL SUB NOT SWAP1 SWAP2 AND DUP2 MSTORE PUSH1 0x20 ADD PUSH2 0x3B7 JUMP JUMPDEST PUSH2 0x418 PUSH2 0xE59 JUMP JUMPDEST CALLVALUE DUP1 ISZERO PUSH2 0x486 JUMPI PUSH1 0x0 DUP1 REVERT JUMPDEST POP PUSH1 0x1 SLOAD PUSH2 0x3E0 SWAP1 PUSH1 0x1 PUSH1 0x1 PUSH1 0xA0 SHL SUB AND DUP2 JUMP JUMPDEST CALLVALUE DUP1 ISZERO PUSH2 0x4A6 JUMPI PUSH1 0x0 DUP1 REVERT JUMPDEST POP PUSH2 0x418 PUSH2 0x4B5 CALLDATASIZE PUSH1 0x4 PUSH2 0x2670 JUMP JUMPDEST PUSH2 0xF2A JUMP JUMPDEST CALLVALUE DUP1 ISZERO PUSH2 0x4C6 JUMPI PUSH1 0x0 DUP1 REVERT JUMPDEST POP PUSH2 0x4CF PUSH2 0xF8F JUMP JUMPDEST PUSH1 0x40 MLOAD SWAP1 DUP2 MSTORE PUSH1 0x20 ADD PUSH2 0x3B7 JUMP JUMPDEST CALLVALUE DUP1 ISZERO PUSH2 0x4E9 JUMPI PUSH1 0x0 DUP1 REVERT JUMPDEST POP PUSH2 0x4F2 PUSH2 0xF9F JUMP JUMPDEST PUSH1 0x40 MLOAD PUSH2 0x3B7 SWAP11 SWAP10 SWAP9 SWAP8 SWAP7 SWAP6 SWAP5 SWAP4 SWAP3 SWAP2 SWAP1 PUSH2 0x2792 JUMP JUMPDEST CALLVALUE DUP1 ISZERO PUSH2 0x514 JUMPI PUSH1 0x0 DUP1 REVERT JUMPDEST POP PUSH1 0x18 SLOAD PUSH2 0x522 SWAP1 PUSH1 0xFF AND DUP2 JUMP JUMPDEST PUSH1 0x40 MLOAD SWAP1 ISZERO ISZERO DUP2 MSTORE PUSH1 0x20 ADD PUSH2 0x3B7 JUMP JUMPDEST CALLVALUE DUP1 ISZERO PUSH2 0x53E JUMPI PUSH1 0x0 DUP1 REVERT JUMPDEST POP PUSH2 0x4CF PUSH1 0xF DUP2 JUMP JUMPDEST CALLVALUE DUP1 ISZERO PUSH2 0x553 JUMPI PUSH1 0x0 DUP1 REVERT JUMPDEST POP PUSH1 0x18 SLOAD PUSH2 0x522 SWAP1 PUSH2 0x100 SWAP1 DIV PUSH1 0xFF AND DUP2 JUMP JUMPDEST CALLVALUE DUP1 ISZERO PUSH2 0x572 JUMPI PUSH1 0x0 DUP1 REVERT JUMPDEST POP PUSH2 0x4CF PUSH1 0x11 SLOAD DUP2 JUMP JUMPDEST CALLVALUE DUP1 ISZERO PUSH2 0x588 JUMPI PUSH1 0x0 DUP1 REVERT JUMPDEST POP PUSH2 0x418 PUSH2 0x597 CALLDATASIZE PUSH1 0x4 PUSH2 0x2670 JUMP JUMPDEST PUSH2 0x1082 JUMP JUMPDEST CALLVALUE DUP1 ISZERO PUSH2 0x5A8 JUMPI PUSH1 0x0 DUP1 REVERT JUMPDEST POP PUSH2 0x418 PUSH2 0x10E2 JUMP JUMPDEST CALLVALUE DUP1 ISZERO PUSH2 0x5BD JUMPI PUSH1 0x0 DUP1 REVERT JUMPDEST POP PUSH1 0xD SLOAD PUSH2 0x522 SWAP1 PUSH1 0xFF AND DUP2 JUMP JUMPDEST CALLVALUE DUP1 ISZERO PUSH2 0x5D7 JUMPI PUSH1 0x0 DUP1 REVERT JUMPDEST POP PUSH2 0x418 PUSH2 0x5E6 CALLDATASIZE PUSH1 0x4 PUSH2 0x2743 JUMP JUMPDEST PUSH2 0x1285 JUMP JUMPDEST CALLVALUE DUP1 ISZERO PUSH2 0x5F7 JUMPI PUSH1 0x0 DUP1 REVERT JUMPDEST POP PUSH2 0x4CF PUSH1 0x6 SLOAD DUP2 JUMP JUMPDEST CALLVALUE DUP1 ISZERO PUSH2 0x60D JUMPI PUSH1 0x0 DUP1 REVERT JUMPDEST POP PUSH2 0x4CF PUSH2 0x12D6 JUMP JUMPDEST CALLVALUE DUP1 ISZERO PUSH2 0x622 JUMPI PUSH1 0x0 DUP1 REVERT JUMPDEST POP PUSH2 0x418 PUSH2 0x631 CALLDATASIZE PUSH1 0x4 PUSH2 0x2670 JUMP JUMPDEST PUSH2 0x12EF JUMP JUMPDEST CALLVALUE DUP1 ISZERO PUSH2 0x642 JUMPI PUSH1 0x0 DUP1 REVERT JUMPDEST POP PUSH2 0x418 PUSH2 0x15D3 JUMP JUMPDEST CALLVALUE DUP1 ISZERO PUSH2 0x657 JUMPI PUSH1 0x0 DUP1 REVERT JUMPDEST POP PUSH2 0x418 PUSH2 0x15E5 JUMP JUMPDEST CALLVALUE DUP1 ISZERO PUSH2 0x66C JUMPI PUSH1 0x0 DUP1 REVERT JUMPDEST POP PUSH2 0x4CF PUSH1 0x10 SLOAD DUP2 JUMP JUMPDEST CALLVALUE DUP1 ISZERO PUSH2 0x682 JUMPI PUSH1 0x0 DUP1 REVERT JUMPDEST POP PUSH2 0x459 PUSH2 0x691 CALLDATASIZE PUSH1 0x4 PUSH2 0x2670 JUMP JUMPDEST PUSH1 0x12 PUSH1 0x20 MSTORE PUSH1 0x0 SWAP1 DUP2 MSTORE PUSH1 0x40 SWAP1 KECCAK256 SLOAD PUSH1 0xD0 SHL DUP2 JUMP JUMPDEST CALLVALUE DUP1 ISZERO PUSH2 0x6B2 JUMPI PUSH1 0x0 DUP1 REVERT JUMPDEST POP PUSH2 0x4CF PUSH2 0xE01 DUP2 JUMP JUMPDEST CALLVALUE DUP1 ISZERO PUSH2 0x6C8 JUMPI PUSH1 0x0 DUP1 REVERT JUMPDEST POP PUSH2 0x4CF PUSH2 0x6D7 CALLDATASIZE PUSH1 0x4 PUSH2 0x2670 JUMP JUMPDEST PUSH1 0x13 PUSH1 0x20 MSTORE PUSH1 0x0 SWAP1 DUP2 MSTORE PUSH1 0x40 SWAP1 KECCAK256 SLOAD DUP2 JUMP JUMPDEST CALLVALUE DUP1 ISZERO PUSH2 0x6F5 JUMPI PUSH1 0x0 DUP1 REVERT JUMPDEST POP PUSH2 0x522 PUSH2 0x704 CALLDATASIZE PUSH1 0x4 PUSH2 0x281E JUMP JUMPDEST PUSH1 0x17 PUSH1 0x20 SWAP1 DUP2 MSTORE PUSH1 0x0 SWAP3 DUP4 MSTORE PUSH1 0x40 DUP1 DUP5 KECCAK256 SWAP1 SWAP2 MSTORE SWAP1 DUP3 MSTORE SWAP1 KECCAK256 SLOAD PUSH1 0xFF AND DUP2 JUMP JUMPDEST CALLVALUE DUP1 ISZERO PUSH2 0x730 JUMPI PUSH1 0x0 DUP1 REVERT JUMPDEST POP PUSH2 0x4CF PUSH1 0xA SLOAD DUP2 JUMP JUMPDEST CALLVALUE DUP1 ISZERO PUSH2 0x746 JUMPI PUSH1 0x0 DUP1 REVERT JUMPDEST POP PUSH1 0x0 SLOAD PUSH1 0x1 PUSH1 0x1 PUSH1 0xA0 SHL SUB AND PUSH2 0x3E0 JUMP JUMPDEST CALLVALUE DUP1 ISZERO PUSH2 0x764 JUMPI PUSH1 0x0 DUP1 REVERT JUMPDEST POP PUSH1 0x4 SLOAD PUSH2 0x3E0 SWAP1 PUSH1 0x1 PUSH1 0x1 PUSH1 0xA0 SHL SUB AND DUP2 JUMP JUMPDEST CALLVALUE DUP1 ISZERO PUSH2 0x784 JUMPI PUSH1 0x0 DUP1 REVERT JUMPDEST POP PUSH2 0x4CF PUSH1 0xB SLOAD DUP2 JUMP JUMPDEST PUSH2 0x418 PUSH2 0x15FA JUMP JUMPDEST CALLVALUE DUP1 ISZERO PUSH2 0x7A2 JUMPI PUSH1 0x0 DUP1 REVERT JUMPDEST POP PUSH2 0x4CF PUSH2 0x1602 JUMP JUMPDEST CALLVALUE DUP1 ISZERO PUSH2 0x7B7 JUMPI PUSH1 0x0 DUP1 REVERT JUMPDEST POP PUSH1 0x5 SLOAD PUSH2 0x3E0 SWAP1 PUSH1 0x1 PUSH1 0x1 PUSH1 0xA0 SHL SUB AND DUP2 JUMP JUMPDEST CALLVALUE DUP1 ISZERO PUSH2 0x7D7 JUMPI PUSH1 0x0 DUP1 REVERT JUMPDEST POP PUSH2 0x4CF PUSH1 0x2 DUP2 JUMP JUMPDEST CALLVALUE DUP1 ISZERO PUSH2 0x7EC JUMPI PUSH1 0x0 DUP1 REVERT JUMPDEST POP PUSH2 0x4CF PUSH1 0xE SLOAD DUP2 JUMP JUMPDEST CALLVALUE DUP1 ISZERO PUSH2 0x802 JUMPI PUSH1 0x0 DUP1 REVERT JUMPDEST POP PUSH2 0x4CF PUSH2 0x811 CALLDATASIZE PUSH1 0x4 PUSH2 0x2670 JUMP JUMPDEST PUSH1 0x16 PUSH1 0x20 MSTORE PUSH1 0x0 SWAP1 DUP2 MSTORE PUSH1 0x40 SWAP1 KECCAK256 SLOAD DUP2 JUMP JUMPDEST CALLVALUE DUP1 ISZERO PUSH2 0x82F JUMPI PUSH1 0x0 DUP1 REVERT JUMPDEST POP PUSH2 0x843 PUSH2 0x83E CALLDATASIZE PUSH1 0x4 PUSH2 0x2670 JUMP JUMPDEST PUSH2 0x1632 JUMP JUMPDEST PUSH1 0x40 MLOAD PUSH1 0x1 PUSH1 0x1 PUSH1 0xF8 SHL SUB NOT SWAP1 SWAP2 AND DUP2 MSTORE PUSH1 0x20 ADD PUSH2 0x3B7 JUMP JUMPDEST CALLVALUE DUP1 ISZERO PUSH2 0x868 JUMPI PUSH1 0x0 DUP1 REVERT JUMPDEST POP PUSH2 0x4CF PUSH1 0x6 DUP2 JUMP JUMPDEST CALLVALUE DUP1 ISZERO PUSH2 0x87D JUMPI PUSH1 0x0 DUP1 REVERT JUMPDEST POP PUSH2 0x418 PUSH2 0x88C CALLDATASIZE PUSH1 0x4 PUSH2 0x2743 JUMP JUMPDEST PUSH2 0x169F JUMP JUMPDEST CALLVALUE DUP1 ISZERO PUSH2 0x89D JUMPI PUSH1 0x0 DUP1 REVERT JUMPDEST POP PUSH2 0x522 PUSH2 0x16F0 JUMP JUMPDEST CALLVALUE DUP1 ISZERO PUSH2 0x8B2 JUMPI PUSH1 0x0 DUP1 REVERT JUMPDEST POP PUSH2 0x4CF PUSH2 0x8C1 CALLDATASIZE PUSH1 0x4 PUSH2 0x2670 JUMP JUMPDEST PUSH1 0x7 PUSH1 0x20 MSTORE PUSH1 0x0 SWAP1 DUP2 MSTORE PUSH1 0x40 SWAP1 KECCAK256 SLOAD DUP2 JUMP JUMPDEST CALLVALUE DUP1 ISZERO PUSH2 0x8DF JUMPI PUSH1 0x0 DUP1 REVERT JUMPDEST POP PUSH1 0x9 SLOAD PUSH2 0x522 SWAP1 PUSH1 0xFF AND DUP2 JUMP JUMPDEST CALLVALUE DUP1 ISZERO PUSH2 0x8F9 JUMPI PUSH1 0x0 DUP1 REVERT JUMPDEST POP PUSH2 0x4CF PUSH1 0xC SLOAD DUP2 JUMP JUMPDEST CALLVALUE DUP1 ISZERO PUSH2 0x90F JUMPI PUSH1 0x0 DUP1 REVERT JUMPDEST POP PUSH2 0x4CF PUSH1 0xF SLOAD DUP2 JUMP JUMPDEST CALLVALUE DUP1 ISZERO PUSH2 0x925 JUMPI PUSH1 0x0 DUP1 REVERT JUMPDEST POP PUSH2 0x418 PUSH2 0x16FF JUMP JUMPDEST CALLVALUE DUP1 ISZERO PUSH2 0x93A JUMPI PUSH1 0x0 DUP1 REVERT JUMPDEST POP PUSH2 0x522 PUSH2 0x949 CALLDATASIZE PUSH1 0x4 PUSH2 0x2670 JUMP JUMPDEST PUSH1 0x8 PUSH1 0x20 MSTORE PUSH1 0x0 SWAP1 DUP2 MSTORE PUSH1 0x40 SWAP1 KECCAK256 SLOAD PUSH1 0xFF AND DUP2 JUMP JUMPDEST CALLVALUE DUP1 ISZERO PUSH2 0x96A JUMPI PUSH1 0x0 DUP1 REVERT JUMPDEST POP PUSH2 0x418 PUSH2 0x1718 JUMP JUMPDEST CALLVALUE DUP1 ISZERO PUSH2 0x97F JUMPI PUSH1 0x0 DUP1 REVERT JUMPDEST POP PUSH1 0x2 SLOAD PUSH2 0x3E0 SWAP1 PUSH1 0x1 PUSH1 0x1 PUSH1 0xA0 SHL SUB AND DUP2 JUMP JUMPDEST CALLVALUE DUP1 ISZERO PUSH2 0x99F JUMPI PUSH1 0x0 DUP1 REVERT JUMPDEST POP PUSH2 0x418 PUSH2 0x9AE CALLDATASIZE PUSH1 0x4 PUSH2 0x2743 JUMP JUMPDEST PUSH2 0x18B7 JUMP JUMPDEST CALLVALUE DUP1 ISZERO PUSH2 0x9BF JUMPI PUSH1 0x0 DUP1 REVERT JUMPDEST POP PUSH2 0x418 PUSH2 0x1908 JUMP JUMPDEST CALLVALUE DUP1 ISZERO PUSH2 0x9D4 JUMPI PUSH1 0x0 DUP1 REVERT JUMPDEST POP PUSH2 0x418 PUSH2 0x9E3 CALLDATASIZE PUSH1 0x4 PUSH2 0x285C JUMP JUMPDEST PUSH2 0x191C JUMP JUMPDEST CALLVALUE DUP1 ISZERO PUSH2 0x9F4 JUMPI PUSH1 0x0 DUP1 REVERT JUMPDEST POP PUSH2 0x418 PUSH2 0xA03 CALLDATASIZE PUSH1 0x4 PUSH2 0x2743 JUMP JUMPDEST PUSH2 0x1937 JUMP JUMPDEST CALLVALUE DUP1 ISZERO PUSH2 0xA14 JUMPI PUSH1 0x0 DUP1 REVERT JUMPDEST POP PUSH2 0x418 PUSH2 0xA23 CALLDATASIZE PUSH1 0x4 PUSH2 0x2743 JUMP JUMPDEST PUSH2 0x1961 JUMP JUMPDEST CALLVALUE DUP1 ISZERO PUSH2 0xA34 JUMPI PUSH1 0x0 DUP1 REVERT JUMPDEST POP PUSH2 0x4CF PUSH2 0xA43 CALLDATASIZE PUSH1 0x4 PUSH2 0x2670 JUMP JUMPDEST PUSH1 0x15 PUSH1 0x20 MSTORE PUSH1 0x0 SWAP1 DUP2 MSTORE PUSH1 0x40 SWAP1 KECCAK256 SLOAD DUP2 JUMP JUMPDEST CALLVALUE DUP1 ISZERO PUSH2 0xA61 JUMPI PUSH1 0x0 DUP1 REVERT JUMPDEST POP PUSH1 0x3 SLOAD PUSH2 0x3E0 SWAP1 PUSH1 0x1 PUSH1 0x1 PUSH1 0xA0 SHL SUB AND DUP2 JUMP JUMPDEST PUSH1 0x0 DUP2 DUP2 MSTORE PUSH1 0x12 PUSH1 0x20 SWAP1 DUP2 MSTORE PUSH1 0x40 DUP1 DUP4 KECCAK256 SLOAD PUSH1 0x13 DUP4 MSTORE DUP2 DUP5 KECCAK256 SLOAD PUSH1 0x14 DUP5 MSTORE DUP3 DUP6 KECCAK256 DUP1 SLOAD DUP5 MLOAD DUP2 DUP8 MUL DUP2 ADD DUP8 ADD SWAP1 SWAP6 MSTORE DUP1 DUP6 MSTORE PUSH1 0xD0 SWAP4 SWAP1 SWAP4 SHL SWAP6 SWAP2 SWAP5 PUSH1 0x60 SWAP5 SWAP3 SWAP4 DUP5 SWAP4 SWAP3 SWAP2 DUP4 ADD DUP3 DUP3 DUP1 ISZERO PUSH2 0xAF2 JUMPI PUSH1 0x20 MUL DUP3 ADD SWAP2 SWAP1 PUSH1 0x0 MSTORE PUSH1 0x20 PUSH1 0x0 KECCAK256 SWAP1 JUMPDEST DUP2 SLOAD PUSH1 0x1 PUSH1 0x1 PUSH1 0xA0 SHL SUB AND DUP2 MSTORE PUSH1 0x1 SWAP1 SWAP2 ADD SWAP1 PUSH1 0x20 ADD DUP1 DUP4 GT PUSH2 0xAD4 JUMPI JUMPDEST POP POP POP PUSH1 0x0 SWAP9 DUP10 MSTORE POP POP PUSH1 0x15 PUSH1 0x20 SWAP1 DUP2 MSTORE PUSH1 0x40 DUP1 DUP10 KECCAK256 SLOAD PUSH1 0x16 SWAP1 SWAP3 MSTORE SWAP1 SWAP8 KECCAK256 SLOAD SWAP6 SWAP8 SWAP5 SWAP7 SWAP1 SWAP6 SWAP1 SWAP5 SWAP1 SWAP4 POP SWAP2 POP POP JUMP JUMPDEST PUSH1 0x14 PUSH1 0x20 MSTORE DUP2 PUSH1 0x0 MSTORE PUSH1 0x40 PUSH1 0x0 KECCAK256 DUP2 DUP2 SLOAD DUP2 LT PUSH2 0xB3E JUMPI PUSH1 0x0 DUP1 REVERT JUMPDEST PUSH1 0x0 SWAP2 DUP3 MSTORE PUSH1 0x20 SWAP1 SWAP2 KECCAK256 ADD SLOAD PUSH1 0x1 PUSH1 0x1 PUSH1 0xA0 SHL SUB AND SWAP2 POP DUP3 SWAP1 POP JUMP JUMPDEST PUSH2 0xB62 PUSH2 0x199C JUMP JUMPDEST PUSH1 0x1 PUSH1 0x1 PUSH1 0xA0 SHL SUB DUP2 AND PUSH2 0xB89 JUMPI PUSH1 0x40 MLOAD PUSH4 0xD92E233D PUSH1 0xE0 SHL DUP2 MSTORE PUSH1 0x4 ADD PUSH1 0x40 MLOAD DUP1 SWAP2 SUB SWAP1 REVERT JUMPDEST PUSH1 0x5 DUP1 SLOAD PUSH1 0x1 PUSH1 0x1 PUSH1 0xA0 SHL SUB NOT AND PUSH1 0x1 PUSH1 0x1 PUSH1 0xA0 SHL SUB DUP4 AND SWAP1 DUP2 OR SWAP1 SWAP2 SSTORE PUSH1 0x40 MLOAD PUSH32 0x1F53E003AAF46AF23AEB50E85F438D6F0C33618CE44E3545F1EC030C79B17729 SWAP1 PUSH1 0x0 SWAP1 LOG2 POP JUMP JUMPDEST PUSH2 0xBDB PUSH2 0x199C JUMP JUMPDEST PUSH1 0x18 DUP1 SLOAD PUSH1 0xFF NOT AND PUSH1 0x1 OR SWAP1 SSTORE JUMP JUMPDEST PUSH2 0xBF2 PUSH2 0x19C9 JUMP JUMPDEST PUSH1 0x3 SLOAD PUSH1 0x1 PUSH1 0x1 PUSH1 0xA0 SHL SUB AND CALLER EQ PUSH2 0xC1D JUMPI PUSH1 0x40 MLOAD PUSH4 0x91655201 PUSH1 0xE0 SHL DUP2 MSTORE PUSH1 0x4 ADD PUSH1 0x40 MLOAD DUP1 SWAP2 SUB SWAP1 REVERT JUMPDEST PUSH1 0xD SLOAD PUSH1 0xFF AND PUSH2 0xC40 JUMPI PUSH1 0x40 MLOAD PUSH4 0x3A5F7B57 PUSH1 0xE0 SHL DUP2 MSTORE PUSH1 0x4 ADD PUSH1 0x40 MLOAD DUP1 SWAP2 SUB SWAP1 REVERT JUMPDEST PUSH2 0xC48 PUSH2 0x19E5 JUMP JUMPDEST ISZERO PUSH2 0xC66 JUMPI PUSH1 0x40 MLOAD PUSH4 0x717824FB PUSH1 0xE0 SHL DUP2 MSTORE PUSH1 0x4 ADD PUSH1 0x40 MLOAD DUP1 SWAP2 SUB SWAP1 REVERT JUMPDEST PUSH1 0x6 DUP1 SLOAD SWAP1 PUSH1 0x0 PUSH2 0xC76 DUP4 PUSH2 0x288F JUMP JUMPDEST SWAP1 SWAP2 SSTORE POP POP PUSH1 0xB SLOAD PUSH1 0x0 SWAP1 DUP2 MSTORE PUSH1 0x7 PUSH1 0x20 MSTORE PUSH1 0x40 DUP2 KECCAK256 DUP1 SLOAD SWAP2 PUSH2 0xC98 DUP4 PUSH2 0x288F JUMP JUMPDEST SWAP2 SWAP1 POP SSTORE POP PUSH1 0xA SLOAD PUSH32 0x494D93A08DCA016BFF87FC5E35DE704731B23D47EB35DA9499BE2DDB7536DA22 PUSH1 0x6 SLOAD PUSH1 0xB SLOAD PUSH1 0x40 MLOAD PUSH2 0xCDE SWAP3 SWAP2 SWAP1 SWAP2 DUP3 MSTORE PUSH1 0x20 DUP3 ADD MSTORE PUSH1 0x40 ADD SWAP1 JUMP JUMPDEST PUSH1 0x40 MLOAD DUP1 SWAP2 SUB SWAP1 LOG2 PUSH2 0xCFD PUSH1 0x1 PUSH1 0x0 DUP1 MLOAD PUSH1 0x20 PUSH2 0x2B51 DUP4 CODECOPY DUP2 MLOAD SWAP2 MSTORE SSTORE JUMP JUMPDEST JUMP JUMPDEST PUSH1 0x40 DUP1 MLOAD PUSH1 0x6 DUP1 DUP3 MSTORE DUP2 DUP4 ADD SWAP1 SWAP3 MSTORE PUSH1 0x0 SWAP2 DUP3 SWAP2 SWAP1 PUSH1 0x20 DUP3 ADD DUP2 DUP1 CALLDATASIZE DUP4 CALLDATACOPY ADD SWAP1 POP POP SWAP1 POP PUSH1 0x1 JUMPDEST PUSH1 0x6 DUP2 GT PUSH2 0xE49 JUMPI PUSH1 0x0 PUSH2 0xD3B PUSH1 0x1 DUP4 PUSH2 0x28BE JUMP JUMPDEST SWAP1 POP PUSH1 0xB SLOAD DUP3 LT ISZERO PUSH2 0xDC7 JUMPI PUSH1 0x40 MLOAD DUP1 PUSH1 0x60 ADD PUSH1 0x40 MSTORE DUP1 PUSH1 0x24 DUP2 MSTORE PUSH1 0x20 ADD PUSH2 0x2B71 PUSH1 0x24 SWAP2 CODECOPY PUSH1 0x0 DUP4 DUP2 MSTORE PUSH1 0x7 PUSH1 0x20 MSTORE PUSH1 0x40 SWAP1 KECCAK256 SLOAD PUSH2 0xD7B SWAP1 PUSH1 0x24 SWAP1 PUSH2 0x28ED JUMP JUMPDEST DUP2 MLOAD DUP2 LT PUSH2 0xD8B JUMPI PUSH2 0xD8B PUSH2 0x2901 JUMP JUMPDEST PUSH1 0x20 ADD ADD MLOAD PUSH1 0xF8 SHR PUSH1 0xF8 SHL DUP4 DUP3 PUSH1 0xFF AND DUP2 MLOAD DUP2 LT PUSH2 0xDAB JUMPI PUSH2 0xDAB PUSH2 0x2901 JUMP JUMPDEST PUSH1 0x20 ADD ADD SWAP1 PUSH1 0x1 PUSH1 0x1 PUSH1 0xF8 SHL SUB NOT AND SWAP1 DUP2 PUSH1 0x0 BYTE SWAP1 MSTORE8 POP PUSH2 0xE36 JUMP JUMPDEST PUSH1 0xB SLOAD DUP3 SUB PUSH2 0xE04 JUMPI PUSH1 0x40 MLOAD DUP1 PUSH1 0x60 ADD PUSH1 0x40 MSTORE DUP1 PUSH1 0x24 DUP2 MSTORE PUSH1 0x20 ADD PUSH2 0x2B71 PUSH1 0x24 SWAP2 CODECOPY PUSH1 0x0 DUP4 DUP2 MSTORE PUSH1 0x7 PUSH1 0x20 MSTORE PUSH1 0x40 SWAP1 KECCAK256 SLOAD PUSH2 0xD7B SWAP1 PUSH1 0x24 SWAP1 PUSH2 0x28ED JUMP JUMPDEST PUSH1 0x0 PUSH1 0xF8 SHL DUP4 DUP3 PUSH1 0xFF AND DUP2 MLOAD DUP2 LT PUSH2 0xE1E JUMPI PUSH2 0xE1E PUSH2 0x2901 JUMP JUMPDEST PUSH1 0x20 ADD ADD SWAP1 PUSH1 0x1 PUSH1 0x1 PUSH1 0xF8 SHL SUB NOT AND SWAP1 DUP2 PUSH1 0x0 BYTE SWAP1 MSTORE8 POP JUMPDEST POP DUP1 PUSH2 0xE41 DUP2 PUSH2 0x288F JUMP JUMPDEST SWAP2 POP POP PUSH2 0xD26 JUMP JUMPDEST POP PUSH2 0xE53 DUP2 PUSH2 0x2917 JUMP JUMPDEST SWAP2 POP POP SWAP1 JUMP JUMPDEST CALLVALUE PUSH1 0x0 SUB PUSH2 0xE7A JUMPI PUSH1 0x40 MLOAD PUSH4 0x1F2A2005 PUSH1 0xE0 SHL DUP2 MSTORE PUSH1 0x4 ADD PUSH1 0x40 MLOAD DUP1 SWAP2 SUB SWAP1 REVERT JUMPDEST CALLVALUE PUSH1 0xE PUSH1 0x0 DUP3 DUP3 SLOAD PUSH2 0xE8C SWAP2 SWAP1 PUSH2 0x294E JUMP JUMPDEST SWAP1 SWAP2 SSTORE POP POP PUSH1 0x1 SLOAD PUSH1 0x40 DUP1 MLOAD PUSH4 0xD0E30DB PUSH1 0xE4 SHL DUP2 MSTORE SWAP1 MLOAD PUSH1 0x1 PUSH1 0x1 PUSH1 0xA0 SHL SUB SWAP1 SWAP3 AND SWAP2 PUSH4 0xD0E30DB0 SWAP2 CALLVALUE SWAP2 PUSH1 0x4 DUP1 DUP4 ADD SWAP3 PUSH1 0x0 SWAP3 SWAP2 SWAP1 DUP3 SWAP1 SUB ADD DUP2 DUP6 DUP9 DUP1 EXTCODESIZE ISZERO DUP1 ISZERO PUSH2 0xED8 JUMPI PUSH1 0x0 DUP1 REVERT JUMPDEST POP GAS CALL ISZERO DUP1 ISZERO PUSH2 0xEEC JUMPI RETURNDATASIZE PUSH1 0x0 DUP1 RETURNDATACOPY RETURNDATASIZE PUSH1 0x0 REVERT JUMPDEST POP POP PUSH1 0x40 MLOAD CALLVALUE DUP2 MSTORE CALLER SWAP4 POP PUSH32 0xF0D496561FE25891CA8568B6877B038238629D8DBE5777373589BECE931DC172 SWAP3 POP PUSH1 0x20 ADD SWAP1 POP JUMPDEST PUSH1 0x40 MLOAD DUP1 SWAP2 SUB SWAP1 LOG2 JUMP JUMPDEST PUSH2 0xF32 PUSH2 0x199C JUMP JUMPDEST DUP1 PUSH1 0x0 SUB PUSH2 0xF53 JUMPI PUSH1 0x40 MLOAD PUSH4 0x40250F01 PUSH1 0xE1 SHL DUP2 MSTORE PUSH1 0x4 ADD PUSH1 0x40 MLOAD DUP1 SWAP2 SUB SWAP1 REVERT JUMPDEST PUSH1 0x10 DUP2 SWAP1 SSTORE PUSH1 0x40 MLOAD DUP2 DUP2 MSTORE PUSH32 0x1E64FF98418E31D486498B471741CC3FF92302FA146E6E124E3025186CFAB465 SWAP1 PUSH1 0x20 ADD JUMPDEST PUSH1 0x40 MLOAD DUP1 SWAP2 SUB SWAP1 LOG1 POP JUMP JUMPDEST PUSH2 0xF9C PUSH1 0xF PUSH2 0xE01 PUSH2 0x294E JUMP JUMPDEST DUP2 JUMP JUMPDEST PUSH1 0x0 DUP1 PUSH1 0x0 DUP1 PUSH1 0x0 DUP1 PUSH1 0x0 DUP1 PUSH2 0xFB3 PUSH2 0x2652 JUMP JUMPDEST PUSH2 0xFBB PUSH2 0x2652 JUMP JUMPDEST PUSH1 0xA SLOAD SWAP10 POP PUSH1 0xB SLOAD SWAP9 POP PUSH1 0xC SLOAD SWAP8 POP PUSH1 0x6 SLOAD SWAP7 POP PUSH2 0xFD7 PUSH2 0xCFF JUMP JUMPDEST SWAP6 POP PUSH1 0xE SLOAD SWAP5 POP PUSH1 0xF SLOAD SWAP4 POP PUSH2 0xFEB PUSH2 0x19E5 JUMP JUMPDEST SWAP3 POP PUSH1 0x0 JUMPDEST PUSH1 0x6 DUP2 LT ISZERO PUSH2 0x1075 JUMPI PUSH1 0x7 PUSH1 0x0 PUSH2 0x1008 DUP4 PUSH1 0x1 PUSH2 0x294E JUMP JUMPDEST DUP2 MSTORE PUSH1 0x20 ADD SWAP1 DUP2 MSTORE PUSH1 0x20 ADD PUSH1 0x0 KECCAK256 SLOAD DUP4 DUP3 PUSH1 0x6 DUP2 LT PUSH2 0x1029 JUMPI PUSH2 0x1029 PUSH2 0x2901 JUMP JUMPDEST PUSH1 0x20 MUL ADD MSTORE PUSH1 0x8 PUSH1 0x0 PUSH2 0x103D DUP4 PUSH1 0x1 PUSH2 0x294E JUMP JUMPDEST DUP2 MSTORE PUSH1 0x20 DUP2 ADD SWAP2 SWAP1 SWAP2 MSTORE PUSH1 0x40 ADD PUSH1 0x0 KECCAK256 SLOAD PUSH1 0xFF AND DUP3 DUP3 PUSH1 0x6 DUP2 LT PUSH2 0x1063 JUMPI PUSH2 0x1063 PUSH2 0x2901 JUMP JUMPDEST SWAP2 ISZERO ISZERO PUSH1 0x20 SWAP1 SWAP3 MUL ADD MSTORE PUSH1 0x1 ADD PUSH2 0xFF0 JUMP JUMPDEST POP SWAP1 SWAP2 SWAP3 SWAP4 SWAP5 SWAP6 SWAP7 SWAP8 SWAP9 SWAP10 JUMP JUMPDEST PUSH2 0x108A PUSH2 0x199C JUMP JUMPDEST PUSH2 0x3E8 DUP2 GT ISZERO PUSH2 0x10AD JUMPI PUSH1 0x40 MLOAD PUSH4 0x1F2A2005 PUSH1 0xE0 SHL DUP2 MSTORE PUSH1 0x4 ADD PUSH1 0x40 MLOAD DUP1 SWAP2 SUB SWAP1 REVERT JUMPDEST PUSH1 0x11 DUP2 SWAP1 SSTORE PUSH1 0x40 MLOAD DUP2 DUP2 MSTORE PUSH32 0x21B2CFEF155ACF409755EC06F4F701C8D13A5B6339FE8D1EE89AFB57318F7084 SWAP1 PUSH1 0x20 ADD PUSH2 0xF84 JUMP JUMPDEST PUSH2 0x10EA PUSH2 0x19C9 JUMP JUMPDEST PUSH1 0x5 SLOAD PUSH1 0x1 PUSH1 0x1 PUSH1 0xA0 SHL SUB AND CALLER EQ PUSH2 0x1115 JUMPI PUSH1 0x40 MLOAD PUSH4 0x5B94333 PUSH1 0xE0 SHL DUP2 MSTORE PUSH1 0x4 ADD PUSH1 0x40 MLOAD DUP1 SWAP2 SUB SWAP1 REVERT JUMPDEST PUSH1 0xD SLOAD PUSH1 0xFF AND PUSH2 0x1138 JUMPI PUSH1 0x40 MLOAD PUSH4 0x3A5F7B57 PUSH1 0xE0 SHL DUP2 MSTORE PUSH1 0x4 ADD PUSH1 0x40 MLOAD DUP1 SWAP2 SUB SWAP1 REVERT JUMPDEST PUSH1 0x18 SLOAD PUSH2 0x100 SWAP1 DIV PUSH1 0xFF AND ISZERO PUSH2 0x1161 JUMPI PUSH1 0x40 MLOAD PUSH4 0x4C211CCD PUSH1 0xE0 SHL DUP2 MSTORE PUSH1 0x4 ADD PUSH1 0x40 MLOAD DUP1 SWAP2 SUB SWAP1 REVERT JUMPDEST PUSH1 0x0 PUSH1 0xC SLOAD TIMESTAMP PUSH2 0x1171 SWAP2 SWAP1 PUSH2 0x28BE JUMP JUMPDEST SWAP1 POP PUSH2 0xE01 DUP2 LT ISZERO PUSH2 0x11A6 JUMPI PUSH1 0x40 MLOAD PUSH4 0x2C690A37 PUSH1 0xE1 SHL DUP2 MSTORE PUSH1 0x4 DUP2 ADD DUP3 SWAP1 MSTORE PUSH2 0xE01 PUSH1 0x24 DUP3 ADD MSTORE PUSH1 0x44 ADD JUMPDEST PUSH1 0x40 MLOAD DUP1 SWAP2 SUB SWAP1 REVERT JUMPDEST PUSH1 0x6 PUSH1 0xB SLOAD LT ISZERO PUSH2 0x1249 JUMPI PUSH1 0xB DUP1 SLOAD PUSH1 0x0 SWAP1 DUP2 MSTORE PUSH1 0x8 PUSH1 0x20 MSTORE PUSH1 0x40 DUP2 KECCAK256 DUP1 SLOAD PUSH1 0xFF NOT AND PUSH1 0x1 OR SWAP1 SSTORE DUP2 SLOAD SWAP2 SWAP1 PUSH2 0x11DB DUP4 PUSH2 0x288F JUMP JUMPDEST SWAP1 SWAP2 SSTORE POP POP TIMESTAMP PUSH1 0xC DUP2 SWAP1 SSTORE PUSH1 0xB DUP1 SLOAD PUSH1 0x0 SWAP1 DUP2 MSTORE PUSH1 0x7 PUSH1 0x20 MSTORE PUSH1 0x40 DUP1 DUP3 KECCAK256 SWAP2 SWAP1 SWAP2 SSTORE PUSH1 0xA SLOAD SWAP2 SLOAD SWAP1 MLOAD SWAP2 SWAP3 PUSH32 0xE9A2985393FA4BB459D73D85249DF3B5923E70FB93B7B9C307E72359AB167587 SWAP3 PUSH2 0x123C SWAP3 SWAP2 SWAP1 SWAP2 DUP3 MSTORE PUSH1 0x20 DUP3 ADD MSTORE PUSH1 0x40 ADD SWAP1 JUMP JUMPDEST PUSH1 0x40 MLOAD DUP1 SWAP2 SUB SWAP1 LOG2 PUSH2 0x126D JUMP JUMPDEST PUSH1 0xB SLOAD PUSH1 0x0 SWAP1 DUP2 MSTORE PUSH1 0x8 PUSH1 0x20 MSTORE PUSH1 0x40 SWAP1 KECCAK256 DUP1 SLOAD PUSH1 0xFF NOT AND PUSH1 0x1 OR SWAP1 SSTORE PUSH2 0x126D PUSH2 0x1A13 JUMP JUMPDEST POP PUSH2 0xCFD PUSH1 0x1 PUSH1 0x0 DUP1 MLOAD PUSH1 0x20 PUSH2 0x2B51 DUP4 CODECOPY DUP2 MLOAD SWAP2 MSTORE SSTORE JUMP JUMPDEST PUSH2 0x128D PUSH2 0x199C JUMP JUMPDEST PUSH1 0x1 PUSH1 0x1 PUSH1 0xA0 SHL SUB DUP2 AND PUSH2 0x12B4 JUMPI PUSH1 0x40 MLOAD PUSH4 0xD92E233D PUSH1 0xE0 SHL DUP2 MSTORE PUSH1 0x4 ADD PUSH1 0x40 MLOAD DUP1 SWAP2 SUB SWAP1 REVERT JUMPDEST PUSH1 0x1 DUP1 SLOAD PUSH1 0x1 PUSH1 0x1 PUSH1 0xA0 SHL SUB NOT AND PUSH1 0x1 PUSH1 0x1 PUSH1 0xA0 SHL SUB SWAP3 SWAP1 SWAP3 AND SWAP2 SWAP1 SWAP2 OR SWAP1 SSTORE JUMP JUMPDEST PUSH1 0x6 PUSH2 0x12E5 PUSH1 0xF PUSH2 0xE01 PUSH2 0x294E JUMP JUMPDEST PUSH2 0xF9C SWAP2 SWAP1 PUSH2 0x2961 JUMP JUMPDEST PUSH2 0x12F7 PUSH2 0x19C9 JUMP JUMPDEST PUSH1 0xD SLOAD PUSH1 0xFF AND PUSH2 0x131A JUMPI PUSH1 0x40 MLOAD PUSH4 0x3A5F7B57 PUSH1 0xE0 SHL DUP2 MSTORE PUSH1 0x4 ADD PUSH1 0x40 MLOAD DUP1 SWAP2 SUB SWAP1 REVERT JUMPDEST PUSH1 0x0 DUP2 DUP2 MSTORE PUSH1 0x12 PUSH1 0x20 MSTORE PUSH1 0x40 SWAP1 KECCAK256 SLOAD PUSH1 0xD0 SHL PUSH1 0x1 PUSH1 0x1 PUSH1 0xD0 SHL SUB NOT AND PUSH2 0x1356 JUMPI PUSH1 0x40 MLOAD PUSH4 0x668FEE6F PUSH1 0xE1 SHL DUP2 MSTORE PUSH1 0x4 DUP2 ADD DUP3 SWAP1 MSTORE PUSH1 0x24 ADD PUSH2 0x119D JUMP JUMPDEST PUSH1 0x0 DUP2 DUP2 MSTORE PUSH1 0x17 PUSH1 0x20 SWAP1 DUP2 MSTORE PUSH1 0x40 DUP1 DUP4 KECCAK256 CALLER DUP5 MSTORE SWAP1 SWAP2 MSTORE SWAP1 KECCAK256 SLOAD PUSH1 0xFF AND ISZERO PUSH2 0x139A JUMPI PUSH1 0x40 MLOAD PUSH4 0x732750ED PUSH1 0xE1 SHL DUP2 MSTORE CALLER PUSH1 0x4 DUP3 ADD MSTORE PUSH1 0x24 DUP2 ADD DUP3 SWAP1 MSTORE PUSH1 0x44 ADD PUSH2 0x119D JUMP JUMPDEST PUSH2 0x13A5 PUSH1 0x2 DUP3 PUSH2 0x294E JUMP JUMPDEST PUSH2 0x13B0 SWAP1 PUSH1 0x1 PUSH2 0x294E JUMP JUMPDEST PUSH1 0xA SLOAD GT ISZERO PUSH2 0x13D5 JUMPI PUSH1 0x40 MLOAD PUSH4 0x55249329 PUSH1 0xE0 SHL DUP2 MSTORE PUSH1 0x4 DUP2 ADD DUP3 SWAP1 MSTORE PUSH1 0x24 ADD PUSH2 0x119D JUMP JUMPDEST PUSH1 0x0 DUP2 DUP2 MSTORE PUSH1 0x14 PUSH1 0x20 SWAP1 DUP2 MSTORE PUSH1 0x40 DUP1 DUP4 KECCAK256 DUP1 SLOAD DUP3 MLOAD DUP2 DUP6 MUL DUP2 ADD DUP6 ADD SWAP1 SWAP4 MSTORE DUP1 DUP4 MSTORE DUP5 SWAP4 DUP4 ADD DUP3 DUP3 DUP1 ISZERO PUSH2 0x1432 JUMPI PUSH1 0x20 MUL DUP3 ADD SWAP2 SWAP1 PUSH1 0x0 MSTORE PUSH1 0x20 PUSH1 0x0 KECCAK256 SWAP1 JUMPDEST DUP2 SLOAD PUSH1 0x1 PUSH1 0x1 PUSH1 0xA0 SHL SUB AND DUP2 MSTORE PUSH1 0x1 SWAP1 SWAP2 ADD SWAP1 PUSH1 0x20 ADD DUP1 DUP4 GT PUSH2 0x1414 JUMPI JUMPDEST POP POP POP POP POP SWAP1 POP PUSH1 0x0 JUMPDEST DUP2 MLOAD DUP2 LT ISZERO PUSH2 0x1488 JUMPI CALLER PUSH1 0x1 PUSH1 0x1 PUSH1 0xA0 SHL SUB AND DUP3 DUP3 DUP2 MLOAD DUP2 LT PUSH2 0x1461 JUMPI PUSH2 0x1461 PUSH2 0x2901 JUMP JUMPDEST PUSH1 0x20 MUL PUSH1 0x20 ADD ADD MLOAD PUSH1 0x1 PUSH1 0x1 PUSH1 0xA0 SHL SUB AND SUB PUSH2 0x1480 JUMPI PUSH1 0x1 SWAP3 POP PUSH2 0x1488 JUMP JUMPDEST PUSH1 0x1 ADD PUSH2 0x143C JUMP JUMPDEST POP DUP2 PUSH2 0x14B0 JUMPI PUSH1 0x40 MLOAD PUSH4 0xEFBEAF33 PUSH1 0xE0 SHL DUP2 MSTORE CALLER PUSH1 0x4 DUP3 ADD MSTORE PUSH1 0x24 DUP2 ADD DUP5 SWAP1 MSTORE PUSH1 0x44 ADD PUSH2 0x119D JUMP JUMPDEST PUSH1 0x0 DUP4 DUP2 MSTORE PUSH1 0x15 PUSH1 0x20 MSTORE PUSH1 0x40 DUP2 KECCAK256 SLOAD SWAP1 DUP2 SWAP1 SUB PUSH2 0x14E0 JUMPI PUSH1 0x40 MLOAD PUSH4 0x1F2A2005 PUSH1 0xE0 SHL DUP2 MSTORE PUSH1 0x4 ADD PUSH1 0x40 MLOAD DUP1 SWAP2 SUB SWAP1 REVERT JUMPDEST PUSH1 0x0 DUP5 DUP2 MSTORE PUSH1 0x17 PUSH1 0x20 SWAP1 DUP2 MSTORE PUSH1 0x40 DUP1 DUP4 KECCAK256 CALLER DUP5 MSTORE SWAP1 SWAP2 MSTORE DUP2 KECCAK256 DUP1 SLOAD PUSH1 0xFF NOT AND PUSH1 0x1 OR SWAP1 SSTORE PUSH1 0xF DUP1 SLOAD DUP4 SWAP3 SWAP1 PUSH2 0x1516 SWAP1 DUP5 SWAP1 PUSH2 0x28BE JUMP JUMPDEST SWAP1 SWAP2 SSTORE POP POP PUSH1 0x1 SLOAD PUSH1 0x40 MLOAD PUSH4 0x6203B43B PUSH1 0xE1 SHL DUP2 MSTORE CALLER PUSH1 0x4 DUP3 ADD MSTORE PUSH1 0x24 DUP2 ADD DUP4 SWAP1 MSTORE PUSH1 0x1 PUSH1 0x1 PUSH1 0xA0 SHL SUB SWAP1 SWAP2 AND SWAP1 PUSH4 0xC4076876 SWAP1 PUSH1 0x44 ADD PUSH1 0x0 PUSH1 0x40 MLOAD DUP1 DUP4 SUB DUP2 PUSH1 0x0 DUP8 DUP1 EXTCODESIZE ISZERO DUP1 ISZERO PUSH2 0x1567 JUMPI PUSH1 0x0 DUP1 REVERT JUMPDEST POP GAS CALL ISZERO DUP1 ISZERO PUSH2 0x157B JUMPI RETURNDATASIZE PUSH1 0x0 DUP1 RETURNDATACOPY RETURNDATASIZE PUSH1 0x0 REVERT JUMPDEST POP POP PUSH1 0x40 MLOAD DUP4 DUP2 MSTORE DUP7 SWAP3 POP CALLER SWAP2 POP PUSH32 0x7472E24DE4628E34B41A2AA1688ED4B46A9145B2DE1CF93D74902473CCC1740D SWAP1 PUSH1 0x20 ADD PUSH1 0x40 MLOAD DUP1 SWAP2 SUB SWAP1 LOG3 POP POP POP PUSH2 0x15D0 PUSH1 0x1 PUSH1 0x0 DUP1 MLOAD PUSH1 0x20 PUSH2 0x2B51 DUP4 CODECOPY DUP2 MLOAD SWAP2 MSTORE SSTORE JUMP JUMPDEST POP JUMP JUMPDEST PUSH2 0x15DB PUSH2 0x199C JUMP JUMPDEST PUSH2 0xCFD PUSH1 0x0 PUSH2 0x1CEE JUMP JUMPDEST PUSH2 0x15ED PUSH2 0x199C JUMP JUMPDEST PUSH1 0x18 DUP1 SLOAD PUSH2 0xFF00 NOT AND SWAP1 SSTORE JUMP JUMPDEST PUSH2 0xE59 PUSH2 0x199C JUMP JUMPDEST PUSH1 0x0 DUP1 PUSH1 0xC SLOAD TIMESTAMP PUSH2 0x1613 SWAP2 SWAP1 PUSH2 0x28BE JUMP JUMPDEST SWAP1 POP PUSH2 0xE01 DUP2 LT PUSH2 0x1626 JUMPI PUSH1 0x0 SWAP2 POP POP SWAP1 JUMP JUMPDEST PUSH2 0xE53 DUP2 PUSH2 0xE01 PUSH2 0x28BE JUMP JUMPDEST PUSH1 0x0 PUSH1 0xB SLOAD DUP3 GT ISZERO PUSH2 0x1646 JUMPI POP PUSH1 0x0 SWAP2 SWAP1 POP JUMP JUMPDEST PUSH1 0x40 MLOAD DUP1 PUSH1 0x60 ADD PUSH1 0x40 MSTORE DUP1 PUSH1 0x24 DUP2 MSTORE PUSH1 0x20 ADD PUSH2 0x2B71 PUSH1 0x24 SWAP2 CODECOPY PUSH1 0x0 DUP4 DUP2 MSTORE PUSH1 0x7 PUSH1 0x20 MSTORE PUSH1 0x40 SWAP1 KECCAK256 SLOAD PUSH2 0x167A SWAP1 PUSH1 0x24 SWAP1 PUSH2 0x28ED JUMP JUMPDEST DUP2 MLOAD DUP2 LT PUSH2 0x168A JUMPI PUSH2 0x168A PUSH2 0x2901 JUMP JUMPDEST ADD PUSH1 0x20 ADD MLOAD PUSH1 0x1 PUSH1 0x1 PUSH1 0xF8 SHL SUB NOT AND SWAP3 SWAP2 POP POP JUMP JUMPDEST PUSH2 0x16A7 PUSH2 0x199C JUMP JUMPDEST PUSH1 0x1 PUSH1 0x1 PUSH1 0xA0 SHL SUB DUP2 AND PUSH2 0x16CE JUMPI PUSH1 0x40 MLOAD PUSH4 0xD92E233D PUSH1 0xE0 SHL DUP2 MSTORE PUSH1 0x4 ADD PUSH1 0x40 MLOAD DUP1 SWAP2 SUB SWAP1 REVERT JUMPDEST PUSH1 0x3 DUP1 SLOAD PUSH1 0x1 PUSH1 0x1 PUSH1 0xA0 SHL SUB NOT AND PUSH1 0x1 PUSH1 0x1 PUSH1 0xA0 SHL SUB SWAP3 SWAP1 SWAP3 AND SWAP2 SWAP1 SWAP2 OR SWAP1 SSTORE JUMP JUMPDEST PUSH1 0x0 PUSH2 0x16FA PUSH2 0x19E5 JUMP JUMPDEST SWAP1 POP SWAP1 JUMP JUMPDEST PUSH2 0x1707 PUSH2 0x199C JUMP JUMPDEST PUSH1 0x18 DUP1 SLOAD PUSH2 0xFF00 NOT AND PUSH2 0x100 OR SWAP1 SSTORE JUMP JUMPDEST PUSH2 0x1720 PUSH2 0x199C JUMP JUMPDEST PUSH1 0xD SLOAD PUSH1 0xFF AND ISZERO PUSH2 0x1744 JUMPI PUSH1 0x40 MLOAD PUSH4 0xBA26162B PUSH1 0xE0 SHL DUP2 MSTORE PUSH1 0x4 ADD PUSH1 0x40 MLOAD DUP1 SWAP2 SUB SWAP1 REVERT JUMPDEST PUSH1 0xD DUP1 SLOAD PUSH1 0xFF NOT AND PUSH1 0x1 SWAP1 DUP2 OR SWAP1 SWAP2 SSTORE PUSH1 0xA DUP2 SWAP1 SSTORE PUSH1 0xB DUP2 SWAP1 SSTORE TIMESTAMP PUSH1 0xC SSTORE JUMPDEST PUSH1 0x6 DUP2 GT PUSH2 0x17A0 JUMPI PUSH1 0x0 DUP2 DUP2 MSTORE PUSH1 0x7 PUSH1 0x20 SWAP1 DUP2 MSTORE PUSH1 0x40 DUP1 DUP4 KECCAK256 DUP4 SWAP1 SSTORE PUSH1 0x8 SWAP1 SWAP2 MSTORE SWAP1 KECCAK256 DUP1 SLOAD PUSH1 0xFF NOT AND SWAP1 SSTORE DUP1 PUSH2 0x1798 DUP2 PUSH2 0x288F JUMP JUMPDEST SWAP2 POP POP PUSH2 0x1763 JUMP JUMPDEST POP PUSH1 0x2 SLOAD PUSH1 0xA SLOAD PUSH1 0x40 MLOAD PUSH4 0x77923C5 PUSH1 0xE3 SHL DUP2 MSTORE PUSH1 0x1 PUSH1 0x1 PUSH1 0xA0 SHL SUB SWAP1 SWAP3 AND SWAP2 PUSH4 0x3BC91E28 SWAP2 PUSH2 0x17D6 SWAP2 PUSH1 0x4 ADD SWAP1 DUP2 MSTORE PUSH1 0x20 ADD SWAP1 JUMP JUMPDEST PUSH1 0x0 PUSH1 0x40 MLOAD DUP1 DUP4 SUB DUP2 PUSH1 0x0 DUP8 DUP1 EXTCODESIZE ISZERO DUP1 ISZERO PUSH2 0x17F0 JUMPI PUSH1 0x0 DUP1 REVERT JUMPDEST POP GAS CALL ISZERO DUP1 ISZERO PUSH2 0x1804 JUMPI RETURNDATASIZE PUSH1 0x0 DUP1 RETURNDATACOPY RETURNDATASIZE PUSH1 0x0 REVERT JUMPDEST POP POP POP POP PUSH2 0x1813 PUSH1 0xA SLOAD PUSH2 0x1D3E JUMP JUMPDEST PUSH1 0x40 MLOAD TIMESTAMP DUP2 MSTORE PUSH32 0x50AD08F58A27F2851D7E3A1B3A6A46B290F2CE677E99642D30FF639721E77790 SWAP1 PUSH1 0x20 ADD PUSH1 0x40 MLOAD DUP1 SWAP2 SUB SWAP1 LOG1 PUSH1 0xA SLOAD PUSH1 0x40 MLOAD TIMESTAMP DUP2 MSTORE PUSH32 0x278844837BCF8364A705384BF3A2812901F54155BAE86DEA81DD52AA5B9EC0E3 SWAP1 PUSH1 0x20 ADD PUSH1 0x40 MLOAD DUP1 SWAP2 SUB SWAP1 LOG2 PUSH1 0xA SLOAD PUSH1 0xB SLOAD PUSH1 0x40 DUP1 MLOAD SWAP2 DUP3 MSTORE TIMESTAMP PUSH1 0x20 DUP4 ADD MSTORE PUSH32 0xE9A2985393FA4BB459D73D85249DF3B5923E70FB93B7B9C307E72359AB167587 SWAP2 ADD PUSH2 0xF20 JUMP JUMPDEST PUSH2 0x18BF PUSH2 0x199C JUMP JUMPDEST PUSH1 0x1 PUSH1 0x1 PUSH1 0xA0 SHL SUB DUP2 AND PUSH2 0x18E6 JUMPI PUSH1 0x40 MLOAD PUSH4 0xD92E233D PUSH1 0xE0 SHL DUP2 MSTORE PUSH1 0x4 ADD PUSH1 0x40 MLOAD DUP1 SWAP2 SUB SWAP1 REVERT JUMPDEST PUSH1 0x2 DUP1 SLOAD PUSH1 0x1 PUSH1 0x1 PUSH1 0xA0 SHL SUB NOT AND PUSH1 0x1 PUSH1 0x1 PUSH1 0xA0 SHL SUB SWAP3 SWAP1 SWAP3 AND SWAP2 SWAP1 SWAP2 OR SWAP1 SSTORE JUMP JUMPDEST PUSH2 0x1910 PUSH2 0x199C JUMP JUMPDEST PUSH1 0x18 DUP1 SLOAD PUSH1 0xFF NOT AND SWAP1 SSTORE JUMP JUMPDEST PUSH2 0x1924 PUSH2 0x199C JUMP JUMPDEST PUSH1 0x9 DUP1 SLOAD PUSH1 0xFF NOT AND SWAP2 ISZERO ISZERO SWAP2 SWAP1 SWAP2 OR SWAP1 SSTORE JUMP JUMPDEST PUSH2 0x193F PUSH2 0x199C JUMP JUMPDEST PUSH1 0x4 DUP1 SLOAD PUSH1 0x1 PUSH1 0x1 PUSH1 0xA0 SHL SUB NOT AND PUSH1 0x1 PUSH1 0x1 PUSH1 0xA0 SHL SUB SWAP3 SWAP1 SWAP3 AND SWAP2 SWAP1 SWAP2 OR SWAP1 SSTORE JUMP JUMPDEST PUSH2 0x1969 PUSH2 0x199C JUMP JUMPDEST PUSH1 0x1 PUSH1 0x1 PUSH1 0xA0 SHL SUB DUP2 AND PUSH2 0x1993 JUMPI PUSH1 0x40 MLOAD PUSH4 0x1E4FBDF7 PUSH1 0xE0 SHL DUP2 MSTORE PUSH1 0x0 PUSH1 0x4 DUP3 ADD MSTORE PUSH1 0x24 ADD PUSH2 0x119D JUMP JUMPDEST PUSH2 0x15D0 DUP2 PUSH2 0x1CEE JUMP JUMPDEST PUSH1 0x0 SLOAD PUSH1 0x1 PUSH1 0x1 PUSH1 0xA0 SHL SUB AND CALLER EQ PUSH2 0xCFD JUMPI PUSH1 0x40 MLOAD PUSH4 0x118CDAA7 PUSH1 0xE0 SHL DUP2 MSTORE CALLER PUSH1 0x4 DUP3 ADD MSTORE PUSH1 0x24 ADD PUSH2 0x119D JUMP JUMPDEST PUSH2 0x19D1 PUSH2 0x1E23 JUMP JUMPDEST PUSH1 0x2 PUSH1 0x0 DUP1 MLOAD PUSH1 0x20 PUSH2 0x2B51 DUP4 CODECOPY DUP2 MLOAD SWAP2 MSTORE SSTORE JUMP JUMPDEST PUSH1 0xD SLOAD PUSH1 0x0 SWAP1 PUSH1 0xFF AND PUSH2 0x19F8 JUMPI POP PUSH1 0x0 SWAP1 JUMP JUMPDEST PUSH1 0x0 PUSH1 0xC SLOAD TIMESTAMP PUSH2 0x1A08 SWAP2 SWAP1 PUSH2 0x28BE JUMP JUMPDEST PUSH2 0xE01 GT ISZERO SWAP3 SWAP2 POP POP JUMP JUMPDEST PUSH1 0xA SLOAD PUSH1 0x0 PUSH2 0x1A20 PUSH2 0x1E53 JUMP JUMPDEST PUSH1 0x0 DUP4 DUP2 MSTORE PUSH1 0x12 PUSH1 0x20 SWAP1 DUP2 MSTORE PUSH1 0x40 SWAP2 DUP3 SWAP1 KECCAK256 DUP1 SLOAD PUSH6 0xFFFFFFFFFFFF NOT AND PUSH1 0xD0 DUP6 SWAP1 SHR OR SWAP1 SSTORE PUSH1 0x6 SLOAD DUP3 MLOAD SWAP1 DUP2 MSTORE PUSH1 0x1 PUSH1 0x1 PUSH1 0xD0 SHL SUB NOT DUP5 AND SWAP2 DUP2 ADD SWAP2 SWAP1 SWAP2 MSTORE SWAP2 SWAP3 POP DUP4 SWAP2 PUSH32 0xD9518E0C64DF7F54FE347E6E390672D87BC2350A9DF1B275E2DE0F2655CA9A84 SWAP2 ADD PUSH1 0x40 MLOAD DUP1 SWAP2 SUB SWAP1 LOG2 PUSH1 0x0 DUP1 PUSH2 0x1A9C DUP5 DUP5 PUSH2 0x1F1A JUMP JUMPDEST SWAP2 POP SWAP2 POP PUSH2 0x1AAB DUP5 DUP4 DUP4 PUSH2 0x2259 JUMP JUMPDEST PUSH2 0x1AB4 DUP5 PUSH2 0x23C9 JUMP JUMPDEST PUSH1 0x2 SLOAD PUSH1 0x40 MLOAD PUSH4 0x22A56427 PUSH1 0xE1 SHL DUP2 MSTORE PUSH1 0x4 DUP2 ADD DUP7 SWAP1 MSTORE PUSH1 0x0 SWAP2 PUSH1 0x1 PUSH1 0x1 PUSH1 0xA0 SHL SUB AND SWAP1 PUSH4 0x454AC84E SWAP1 PUSH1 0x24 ADD PUSH1 0x0 PUSH1 0x40 MLOAD DUP1 DUP4 SUB DUP2 DUP7 GAS STATICCALL ISZERO DUP1 ISZERO PUSH2 0x1AFE JUMPI RETURNDATASIZE PUSH1 0x0 DUP1 RETURNDATACOPY RETURNDATASIZE PUSH1 0x0 REVERT JUMPDEST POP POP POP POP PUSH1 0x40 MLOAD RETURNDATASIZE PUSH1 0x0 DUP3 RETURNDATACOPY PUSH1 0x1F RETURNDATASIZE SWAP1 DUP2 ADD PUSH1 0x1F NOT AND DUP3 ADD PUSH1 0x40 MSTORE PUSH2 0x1B26 SWAP2 SWAP1 DUP2 ADD SWAP1 PUSH2 0x2988 JUMP JUMPDEST MLOAD PUSH1 0x0 DUP7 DUP2 MSTORE PUSH1 0x13 PUSH1 0x20 SWAP1 DUP2 MSTORE PUSH1 0x40 DUP1 DUP4 KECCAK256 SLOAD PUSH1 0x16 DUP4 MSTORE SWAP3 DUP2 SWAP1 KECCAK256 SLOAD DUP2 MLOAD PUSH1 0x1 PUSH1 0x1 PUSH1 0xD0 SHL SUB NOT DUP11 AND DUP2 MSTORE SWAP3 DUP4 ADD SWAP4 SWAP1 SWAP4 MSTORE DUP2 ADD DUP6 SWAP1 MSTORE PUSH1 0x60 DUP2 ADD SWAP2 SWAP1 SWAP2 MSTORE PUSH1 0x80 DUP2 ADD DUP3 SWAP1 MSTORE TIMESTAMP PUSH1 0xA0 DUP3 ADD MSTORE SWAP1 SWAP2 POP DUP6 SWAP1 PUSH32 0xCB3E0BD9FC5C5CA893AB7EDF22C314B2852D2CF6E36E091941D0709CAEB4145C SWAP1 PUSH1 0xC0 ADD PUSH1 0x40 MLOAD DUP1 SWAP2 SUB SWAP1 LOG2 PUSH1 0xA DUP1 SLOAD SWAP1 PUSH1 0x0 PUSH2 0x1BB4 DUP4 PUSH2 0x288F JUMP JUMPDEST SWAP1 SWAP2 SSTORE POP POP PUSH1 0x1 PUSH1 0xB DUP2 SWAP1 SSTORE TIMESTAMP PUSH1 0xC SSTORE JUMPDEST PUSH1 0x6 DUP2 GT PUSH2 0x1C02 JUMPI PUSH1 0x0 DUP2 DUP2 MSTORE PUSH1 0x7 PUSH1 0x20 SWAP1 DUP2 MSTORE PUSH1 0x40 DUP1 DUP4 KECCAK256 DUP4 SWAP1 SSTORE PUSH1 0x8 SWAP1 SWAP2 MSTORE SWAP1 KECCAK256 DUP1 SLOAD PUSH1 0xFF NOT AND SWAP1 SSTORE DUP1 PUSH2 0x1BFA DUP2 PUSH2 0x288F JUMP JUMPDEST SWAP2 POP POP PUSH2 0x1BC5 JUMP JUMPDEST POP PUSH1 0x2 SLOAD PUSH1 0xA SLOAD PUSH1 0x40 MLOAD PUSH4 0x77923C5 PUSH1 0xE3 SHL DUP2 MSTORE PUSH1 0x1 PUSH1 0x1 PUSH1 0xA0 SHL SUB SWAP1 SWAP3 AND SWAP2 PUSH4 0x3BC91E28 SWAP2 PUSH2 0x1C38 SWAP2 PUSH1 0x4 ADD SWAP1 DUP2 MSTORE PUSH1 0x20 ADD SWAP1 JUMP JUMPDEST PUSH1 0x0 PUSH1 0x40 MLOAD DUP1 DUP4 SUB DUP2 PUSH1 0x0 DUP8 DUP1 EXTCODESIZE ISZERO DUP1 ISZERO PUSH2 0x1C52 JUMPI PUSH1 0x0 DUP1 REVERT JUMPDEST POP GAS CALL ISZERO DUP1 ISZERO PUSH2 0x1C66 JUMPI RETURNDATASIZE PUSH1 0x0 DUP1 RETURNDATACOPY RETURNDATASIZE PUSH1 0x0 REVERT JUMPDEST POP POP POP POP PUSH2 0x1C75 PUSH1 0xA SLOAD PUSH2 0x1D3E JUMP JUMPDEST PUSH1 0xA SLOAD PUSH1 0x40 MLOAD TIMESTAMP DUP2 MSTORE PUSH32 0x278844837BCF8364A705384BF3A2812901F54155BAE86DEA81DD52AA5B9EC0E3 SWAP1 PUSH1 0x20 ADD PUSH1 0x40 MLOAD DUP1 SWAP2 SUB SWAP1 LOG2 PUSH1 0xA SLOAD PUSH1 0x40 DUP1 MLOAD PUSH1 0x1 DUP2 MSTORE TIMESTAMP PUSH1 0x20 DUP3 ADD MSTORE PUSH32 0xE9A2985393FA4BB459D73D85249DF3B5923E70FB93B7B9C307E72359AB167587 SWAP2 ADD PUSH1 0x40 MLOAD DUP1 SWAP2 SUB SWAP1 LOG2 POP POP POP POP POP JUMP JUMPDEST PUSH1 0x0 DUP1 SLOAD PUSH1 0x1 PUSH1 0x1 PUSH1 0xA0 SHL SUB DUP4 DUP2 AND PUSH1 0x1 PUSH1 0x1 PUSH1 0xA0 SHL SUB NOT DUP4 AND DUP2 OR DUP5 SSTORE PUSH1 0x40 MLOAD SWAP2 SWAP1 SWAP3 AND SWAP3 DUP4 SWAP2 PUSH32 0x8BE0079C531659141344CD1FD0A4F28419497F9722A3DAAFE3B4186F6B6457E0 SWAP2 SWAP1 LOG3 POP POP JUMP JUMPDEST PUSH1 0x2 SLOAD PUSH1 0x40 MLOAD PUSH4 0x22A56427 PUSH1 0xE1 SHL DUP2 MSTORE PUSH1 0x4 DUP2 ADD DUP4 SWAP1 MSTORE PUSH1 0x0 SWAP2 PUSH1 0x1 PUSH1 0x1 PUSH1 0xA0 SHL SUB AND SWAP1 PUSH4 0x454AC84E SWAP1 PUSH1 0x24 ADD PUSH1 0x0 PUSH1 0x40 MLOAD DUP1 DUP4 SUB DUP2 DUP7 GAS STATICCALL ISZERO DUP1 ISZERO PUSH2 0x1D88 JUMPI RETURNDATASIZE PUSH1 0x0 DUP1 RETURNDATACOPY RETURNDATASIZE PUSH1 0x0 REVERT JUMPDEST POP POP POP POP PUSH1 0x40 MLOAD RETURNDATASIZE PUSH1 0x0 DUP3 RETURNDATACOPY PUSH1 0x1F RETURNDATASIZE SWAP1 DUP2 ADD PUSH1 0x1F NOT AND DUP3 ADD PUSH1 0x40 MSTORE PUSH2 0x1DB0 SWAP2 SWAP1 DUP2 ADD SWAP1 PUSH2 0x2988 JUMP JUMPDEST DUP1 MLOAD SWAP1 SWAP2 POP ISZERO PUSH2 0x1E1F JUMPI PUSH1 0x2 SLOAD PUSH1 0x40 MLOAD PUSH4 0x99866C3 PUSH1 0xE1 SHL DUP2 MSTORE PUSH1 0x1 PUSH1 0x1 PUSH1 0xA0 SHL SUB SWAP1 SWAP2 AND SWAP1 PUSH4 0x1330CD86 SWAP1 PUSH2 0x1DEC SWAP1 DUP6 SWAP1 DUP6 SWAP1 PUSH1 0x4 ADD PUSH2 0x2A4D JUMP JUMPDEST PUSH1 0x0 PUSH1 0x40 MLOAD DUP1 DUP4 SUB DUP2 PUSH1 0x0 DUP8 DUP1 EXTCODESIZE ISZERO DUP1 ISZERO PUSH2 0x1E06 JUMPI PUSH1 0x0 DUP1 REVERT JUMPDEST POP GAS CALL ISZERO DUP1 ISZERO PUSH2 0x1E1A JUMPI RETURNDATASIZE PUSH1 0x0 DUP1 RETURNDATACOPY RETURNDATASIZE PUSH1 0x0 REVERT JUMPDEST POP POP POP POP JUMPDEST POP POP JUMP JUMPDEST PUSH1 0x0 DUP1 MLOAD PUSH1 0x20 PUSH2 0x2B51 DUP4 CODECOPY DUP2 MLOAD SWAP2 MSTORE SLOAD PUSH1 0x2 SUB PUSH2 0xCFD JUMPI PUSH1 0x40 MLOAD PUSH4 0x3EE5AEB5 PUSH1 0xE0 SHL DUP2 MSTORE PUSH1 0x4 ADD PUSH1 0x40 MLOAD DUP1 SWAP2 SUB SWAP1 REVERT JUMPDEST PUSH1 0x40 DUP1 MLOAD PUSH1 0x6 DUP1 DUP3 MSTORE DUP2 DUP4 ADD SWAP1 SWAP3 MSTORE PUSH1 0x0 SWAP2 DUP3 SWAP2 SWAP1 PUSH1 0x20 DUP3 ADD DUP2 DUP1 CALLDATASIZE DUP4 CALLDATACOPY ADD SWAP1 POP POP SWAP1 POP PUSH1 0x1 JUMPDEST PUSH1 0x6 DUP2 GT PUSH2 0xE49 JUMPI PUSH1 0x40 MLOAD DUP1 PUSH1 0x60 ADD PUSH1 0x40 MSTORE DUP1 PUSH1 0x24 DUP2 MSTORE PUSH1 0x20 ADD PUSH2 0x2B71 PUSH1 0x24 SWAP2 CODECOPY PUSH1 0x0 DUP3 DUP2 MSTORE PUSH1 0x7 PUSH1 0x20 MSTORE PUSH1 0x40 SWAP1 KECCAK256 SLOAD PUSH2 0x1EB6 SWAP1 PUSH1 0x24 SWAP1 PUSH2 0x28ED JUMP JUMPDEST DUP2 MLOAD DUP2 LT PUSH2 0x1EC6 JUMPI PUSH2 0x1EC6 PUSH2 0x2901 JUMP JUMPDEST ADD PUSH1 0x20 ADD MLOAD PUSH1 0x1 PUSH1 0x1 PUSH1 0xF8 SHL SUB NOT AND DUP3 PUSH2 0x1EE1 PUSH1 0x1 DUP5 PUSH2 0x28BE JUMP JUMPDEST DUP2 MLOAD DUP2 LT PUSH2 0x1EF1 JUMPI PUSH2 0x1EF1 PUSH2 0x2901 JUMP JUMPDEST PUSH1 0x20 ADD ADD SWAP1 PUSH1 0x1 PUSH1 0x1 PUSH1 0xF8 SHL SUB NOT AND SWAP1 DUP2 PUSH1 0x0 BYTE SWAP1 MSTORE8 POP DUP1 PUSH2 0x1F12 DUP2 PUSH2 0x288F JUMP JUMPDEST SWAP2 POP POP PUSH2 0x1E7A JUMP JUMPDEST PUSH1 0x2 SLOAD PUSH1 0x40 MLOAD PUSH4 0x9FD11627 PUSH1 0xE0 SHL DUP2 MSTORE PUSH1 0x4 DUP2 ADD DUP5 SWAP1 MSTORE PUSH1 0x1 PUSH1 0x1 PUSH1 0xD0 SHL SUB NOT DUP4 AND PUSH1 0x24 DUP3 ADD MSTORE PUSH1 0x60 SWAP2 PUSH1 0x0 SWAP2 DUP3 SWAP2 PUSH1 0x1 PUSH1 0x1 PUSH1 0xA0 SHL SUB AND SWAP1 PUSH4 0x9FD11627 SWAP1 PUSH1 0x44 ADD PUSH1 0x0 PUSH1 0x40 MLOAD DUP1 DUP4 SUB DUP2 DUP7 GAS STATICCALL ISZERO DUP1 ISZERO PUSH2 0x1F79 JUMPI RETURNDATASIZE PUSH1 0x0 DUP1 RETURNDATACOPY RETURNDATASIZE PUSH1 0x0 REVERT JUMPDEST POP POP POP POP PUSH1 0x40 MLOAD RETURNDATASIZE PUSH1 0x0 DUP3 RETURNDATACOPY PUSH1 0x1F RETURNDATASIZE SWAP1 DUP2 ADD PUSH1 0x1F NOT AND DUP3 ADD PUSH1 0x40 MSTORE PUSH2 0x1FA1 SWAP2 SWAP1 DUP2 ADD SWAP1 PUSH2 0x2988 JUMP JUMPDEST SWAP1 POP PUSH1 0x0 DUP2 MLOAD PUSH8 0xFFFFFFFFFFFFFFFF DUP2 GT ISZERO PUSH2 0x1FBF JUMPI PUSH2 0x1FBF PUSH2 0x28A8 JUMP JUMPDEST PUSH1 0x40 MLOAD SWAP1 DUP1 DUP3 MSTORE DUP1 PUSH1 0x20 MUL PUSH1 0x20 ADD DUP3 ADD PUSH1 0x40 MSTORE DUP1 ISZERO PUSH2 0x1FE8 JUMPI DUP2 PUSH1 0x20 ADD PUSH1 0x20 DUP3 MUL DUP1 CALLDATASIZE DUP4 CALLDATACOPY ADD SWAP1 POP JUMPDEST POP SWAP1 POP PUSH1 0x0 JUMPDEST DUP3 MLOAD DUP2 LT ISZERO PUSH2 0x21B2 JUMPI PUSH1 0x0 DUP4 DUP3 DUP2 MLOAD DUP2 LT PUSH2 0x200B JUMPI PUSH2 0x200B PUSH2 0x2901 JUMP JUMPDEST PUSH1 0x20 SWAP1 DUP2 MUL SWAP2 SWAP1 SWAP2 ADD ADD MLOAD PUSH1 0x2 SLOAD PUSH1 0x40 MLOAD PUSH4 0xA96DE4F5 PUSH1 0xE0 SHL DUP2 MSTORE PUSH1 0x1 PUSH1 0x1 PUSH1 0xA0 SHL SUB DUP1 DUP5 AND PUSH1 0x4 DUP4 ADD MSTORE PUSH1 0x24 DUP3 ADD DUP13 SWAP1 MSTORE SWAP3 SWAP4 POP PUSH1 0x0 SWAP3 DUP4 SWAP3 AND SWAP1 PUSH4 0xA96DE4F5 SWAP1 PUSH1 0x44 ADD PUSH1 0x40 DUP1 MLOAD DUP1 DUP4 SUB DUP2 DUP7 GAS STATICCALL ISZERO DUP1 ISZERO PUSH2 0x206C JUMPI RETURNDATASIZE PUSH1 0x0 DUP1 RETURNDATACOPY RETURNDATASIZE PUSH1 0x0 REVERT JUMPDEST POP POP POP POP PUSH1 0x40 MLOAD RETURNDATASIZE PUSH1 0x1F NOT PUSH1 0x1F DUP3 ADD AND DUP3 ADD DUP1 PUSH1 0x40 MSTORE POP DUP2 ADD SWAP1 PUSH2 0x2090 SWAP2 SWAP1 PUSH2 0x2A86 JUMP JUMPDEST SWAP2 POP SWAP2 POP DUP2 PUSH2 0x20A1 JUMPI POP POP POP PUSH2 0x21AA JUMP JUMPDEST PUSH1 0x1 PUSH1 0x1 PUSH1 0xD0 SHL SUB NOT DUP2 DUP2 AND SWAP1 DUP11 AND EQ PUSH2 0x20BD JUMPI POP POP POP PUSH2 0x21AA JUMP JUMPDEST PUSH1 0x2 SLOAD PUSH1 0x40 MLOAD PUSH4 0xC106AEE3 PUSH1 0xE0 SHL DUP2 MSTORE PUSH1 0x1 PUSH1 0x1 PUSH1 0xA0 SHL SUB DUP6 DUP2 AND PUSH1 0x4 DUP4 ADD MSTORE PUSH1 0x24 DUP3 ADD DUP14 SWAP1 MSTORE PUSH1 0x0 SWAP3 DUP4 SWAP3 SWAP2 AND SWAP1 PUSH4 0xC106AEE3 SWAP1 PUSH1 0x44 ADD PUSH1 0x40 DUP1 MLOAD DUP1 DUP4 SUB DUP2 DUP7 GAS STATICCALL ISZERO DUP1 ISZERO PUSH2 0x2111 JUMPI RETURNDATASIZE PUSH1 0x0 DUP1 RETURNDATACOPY RETURNDATASIZE PUSH1 0x0 REVERT JUMPDEST POP POP POP POP PUSH1 0x40 MLOAD RETURNDATASIZE PUSH1 0x1F NOT PUSH1 0x1F DUP3 ADD AND DUP3 ADD DUP1 PUSH1 0x40 MSTORE POP DUP2 ADD SWAP1 PUSH2 0x2135 SWAP2 SWAP1 PUSH2 0x2A86 JUMP JUMPDEST SWAP2 POP SWAP2 POP DUP2 PUSH2 0x2148 JUMPI POP POP POP POP POP PUSH2 0x21AA JUMP JUMPDEST PUSH1 0x1 PUSH1 0x1 PUSH1 0xD0 SHL SUB NOT DUP2 DUP2 AND SWAP1 DUP13 AND EQ PUSH2 0x2166 JUMPI POP POP POP POP POP PUSH2 0x21AA JUMP JUMPDEST DUP5 DUP8 DUP11 PUSH2 0x2172 DUP2 PUSH2 0x288F JUMP JUMPDEST SWAP12 POP DUP2 MLOAD DUP2 LT PUSH2 0x2184 JUMPI PUSH2 0x2184 PUSH2 0x2901 JUMP JUMPDEST PUSH1 0x20 MUL PUSH1 0x20 ADD ADD SWAP1 PUSH1 0x1 PUSH1 0x1 PUSH1 0xA0 SHL SUB AND SWAP1 DUP2 PUSH1 0x1 PUSH1 0x1 PUSH1 0xA0 SHL SUB AND DUP2 MSTORE POP POP POP POP POP POP POP JUMPDEST PUSH1 0x1 ADD PUSH2 0x1FEE JUMP JUMPDEST POP DUP3 PUSH8 0xFFFFFFFFFFFFFFFF DUP2 GT ISZERO PUSH2 0x21CC JUMPI PUSH2 0x21CC PUSH2 0x28A8 JUMP JUMPDEST PUSH1 0x40 MLOAD SWAP1 DUP1 DUP3 MSTORE DUP1 PUSH1 0x20 MUL PUSH1 0x20 ADD DUP3 ADD PUSH1 0x40 MSTORE DUP1 ISZERO PUSH2 0x21F5 JUMPI DUP2 PUSH1 0x20 ADD PUSH1 0x20 DUP3 MUL DUP1 CALLDATASIZE DUP4 CALLDATACOPY ADD SWAP1 POP JUMPDEST POP SWAP4 POP PUSH1 0x0 JUMPDEST DUP4 DUP2 LT ISZERO PUSH2 0x224F JUMPI DUP2 DUP2 DUP2 MLOAD DUP2 LT PUSH2 0x2215 JUMPI PUSH2 0x2215 PUSH2 0x2901 JUMP JUMPDEST PUSH1 0x20 MUL PUSH1 0x20 ADD ADD MLOAD DUP6 DUP3 DUP2 MLOAD DUP2 LT PUSH2 0x222F JUMPI PUSH2 0x222F PUSH2 0x2901 JUMP JUMPDEST PUSH1 0x1 PUSH1 0x1 PUSH1 0xA0 SHL SUB SWAP1 SWAP3 AND PUSH1 0x20 SWAP3 DUP4 MUL SWAP2 SWAP1 SWAP2 ADD SWAP1 SWAP2 ADD MSTORE PUSH1 0x1 ADD PUSH2 0x21FB JUMP JUMPDEST POP POP POP SWAP3 POP SWAP3 SWAP1 POP JUMP JUMPDEST PUSH1 0xE SLOAD PUSH1 0x11 SLOAD PUSH1 0x0 SWAP1 DUP2 SWAP1 ISZERO DUP1 ISZERO SWAP1 PUSH2 0x2272 JUMPI POP PUSH1 0x0 DUP4 GT JUMPDEST ISZERO PUSH2 0x22DD JUMPI PUSH1 0x0 PUSH2 0x2710 PUSH1 0x11 SLOAD DUP6 PUSH2 0x228A SWAP2 SWAP1 PUSH2 0x2961 JUMP JUMPDEST PUSH2 0x2294 SWAP2 SWAP1 PUSH2 0x2ABB JUMP JUMPDEST SWAP1 POP PUSH2 0x22A0 DUP2 DUP6 PUSH2 0x28BE JUMP JUMPDEST SWAP4 POP PUSH32 0x85FCFC84BAA0423652490BDD8531F642A3376CB202145025B549FB449516E5A8 DUP2 PUSH1 0x40 MLOAD PUSH2 0x22D3 SWAP2 DUP2 MSTORE PUSH1 0x20 ADD SWAP1 JUMP JUMPDEST PUSH1 0x40 MLOAD DUP1 SWAP2 SUB SWAP1 LOG1 POP JUMPDEST POP DUP2 PUSH1 0x0 DUP5 ISZERO PUSH2 0x230C JUMPI PUSH2 0x22F1 DUP6 DUP6 PUSH2 0x2ABB JUMP JUMPDEST SWAP3 POP PUSH2 0x22FD DUP6 DUP5 PUSH2 0x2961 JUMP JUMPDEST SWAP1 POP PUSH2 0x2309 DUP2 DUP6 PUSH2 0x28BE JUMP JUMPDEST SWAP2 POP JUMPDEST PUSH1 0x0 JUMPDEST DUP6 DUP2 LT ISZERO PUSH2 0x237E JUMPI PUSH1 0x0 DUP9 DUP2 MSTORE PUSH1 0x14 PUSH1 0x20 MSTORE PUSH1 0x40 SWAP1 KECCAK256 DUP8 MLOAD DUP9 SWAP1 DUP4 SWAP1 DUP2 LT PUSH2 0x2339 JUMPI PUSH2 0x2339 PUSH2 0x2901 JUMP JUMPDEST PUSH1 0x20 SWAP1 DUP2 MUL SWAP2 SWAP1 SWAP2 ADD DUP2 ADD MLOAD DUP3 SLOAD PUSH1 0x1 DUP1 DUP3 ADD DUP6 SSTORE PUSH1 0x0 SWAP5 DUP6 MSTORE SWAP3 SWAP1 SWAP4 KECCAK256 SWAP1 SWAP3 ADD DUP1 SLOAD PUSH1 0x1 PUSH1 0x1 PUSH1 0xA0 SHL SUB NOT AND PUSH1 0x1 PUSH1 0x1 PUSH1 0xA0 SHL SUB SWAP1 SWAP4 AND SWAP3 SWAP1 SWAP3 OR SWAP1 SWAP2 SSTORE ADD PUSH2 0x230F JUMP JUMPDEST POP PUSH1 0x0 DUP8 DUP2 MSTORE PUSH1 0x13 PUSH1 0x20 SWAP1 DUP2 MSTORE PUSH1 0x40 DUP1 DUP4 KECCAK256 DUP8 SWAP1 SSTORE PUSH1 0x15 DUP3 MSTORE DUP1 DUP4 KECCAK256 DUP7 SWAP1 SSTORE PUSH1 0x16 SWAP1 SWAP2 MSTORE DUP2 KECCAK256 DUP4 SWAP1 SSTORE PUSH1 0xF DUP1 SLOAD DUP4 SWAP3 SWAP1 PUSH2 0x23B9 SWAP1 DUP5 SWAP1 PUSH2 0x294E JUMP JUMPDEST SWAP1 SWAP2 SSTORE POP POP POP PUSH1 0xE SSTORE POP POP POP POP POP JUMP JUMPDEST PUSH1 0x2 SLOAD PUSH1 0x40 MLOAD PUSH4 0x22A56427 PUSH1 0xE1 SHL DUP2 MSTORE PUSH1 0x4 DUP2 ADD DUP4 SWAP1 MSTORE PUSH1 0x0 SWAP2 PUSH1 0x1 PUSH1 0x1 PUSH1 0xA0 SHL SUB AND SWAP1 PUSH4 0x454AC84E SWAP1 PUSH1 0x24 ADD PUSH1 0x0 PUSH1 0x40 MLOAD DUP1 DUP4 SUB DUP2 DUP7 GAS STATICCALL ISZERO DUP1 ISZERO PUSH2 0x2413 JUMPI RETURNDATASIZE PUSH1 0x0 DUP1 RETURNDATACOPY RETURNDATASIZE PUSH1 0x0 REVERT JUMPDEST POP POP POP POP PUSH1 0x40 MLOAD RETURNDATASIZE PUSH1 0x0 DUP3 RETURNDATACOPY PUSH1 0x1F RETURNDATASIZE SWAP1 DUP2 ADD PUSH1 0x1F NOT AND DUP3 ADD PUSH1 0x40 MSTORE PUSH2 0x243B SWAP2 SWAP1 DUP2 ADD SWAP1 PUSH2 0x2988 JUMP JUMPDEST SWAP1 POP PUSH1 0x0 JUMPDEST DUP2 MLOAD DUP2 LT ISZERO PUSH2 0x264D JUMPI PUSH1 0x2 SLOAD DUP3 MLOAD PUSH1 0x0 SWAP2 PUSH1 0x1 PUSH1 0x1 PUSH1 0xA0 SHL SUB AND SWAP1 PUSH4 0xB8A740E0 SWAP1 DUP6 SWAP1 DUP6 SWAP1 DUP2 LT PUSH2 0x2473 JUMPI PUSH2 0x2473 PUSH2 0x2901 JUMP JUMPDEST PUSH1 0x20 MUL PUSH1 0x20 ADD ADD MLOAD DUP7 PUSH1 0x40 MLOAD DUP4 PUSH4 0xFFFFFFFF AND PUSH1 0xE0 SHL DUP2 MSTORE PUSH1 0x4 ADD PUSH2 0x24AD SWAP3 SWAP2 SWAP1 PUSH1 0x1 PUSH1 0x1 PUSH1 0xA0 SHL SUB SWAP3 SWAP1 SWAP3 AND DUP3 MSTORE PUSH1 0x20 DUP3 ADD MSTORE PUSH1 0x40 ADD SWAP1 JUMP JUMPDEST PUSH1 0xE0 PUSH1 0x40 MLOAD DUP1 DUP4 SUB DUP2 DUP7 GAS STATICCALL ISZERO DUP1 ISZERO PUSH2 0x24CA JUMPI RETURNDATASIZE PUSH1 0x0 DUP1 RETURNDATACOPY RETURNDATASIZE PUSH1 0x0 REVERT JUMPDEST POP POP POP POP PUSH1 0x40 MLOAD RETURNDATASIZE PUSH1 0x1F NOT PUSH1 0x1F DUP3 ADD AND DUP3 ADD DUP1 PUSH1 0x40 MSTORE POP DUP2 ADD SWAP1 PUSH2 0x24EE SWAP2 SWAP1 PUSH2 0x2ACF JUMP JUMPDEST POP POP POP POP SWAP3 POP POP POP PUSH1 0xA SLOAD DUP2 LT ISZERO PUSH2 0x2644 JUMPI PUSH2 0x250B PUSH1 0x2 DUP3 PUSH2 0x294E JUMP JUMPDEST PUSH1 0xA SLOAD GT ISZERO PUSH2 0x25AE JUMPI PUSH1 0x2 SLOAD DUP4 MLOAD PUSH1 0x1 PUSH1 0x1 PUSH1 0xA0 SHL SUB SWAP1 SWAP2 AND SWAP1 PUSH4 0x7A03CE4F SWAP1 DUP6 SWAP1 DUP6 SWAP1 DUP2 LT PUSH2 0x253D JUMPI PUSH2 0x253D PUSH2 0x2901 JUMP JUMPDEST PUSH1 0x20 MUL PUSH1 0x20 ADD ADD MLOAD DUP7 PUSH1 0x40 MLOAD DUP4 PUSH4 0xFFFFFFFF AND PUSH1 0xE0 SHL DUP2 MSTORE PUSH1 0x4 ADD PUSH2 0x2577 SWAP3 SWAP2 SWAP1 PUSH1 0x1 PUSH1 0x1 PUSH1 0xA0 SHL SUB SWAP3 SWAP1 SWAP3 AND DUP3 MSTORE PUSH1 0x20 DUP3 ADD MSTORE PUSH1 0x40 ADD SWAP1 JUMP JUMPDEST PUSH1 0x0 PUSH1 0x40 MLOAD DUP1 DUP4 SUB DUP2 PUSH1 0x0 DUP8 DUP1 EXTCODESIZE ISZERO DUP1 ISZERO PUSH2 0x2591 JUMPI PUSH1 0x0 DUP1 REVERT JUMPDEST POP GAS CALL ISZERO DUP1 ISZERO PUSH2 0x25A5 JUMPI RETURNDATASIZE PUSH1 0x0 DUP1 RETURNDATACOPY RETURNDATASIZE PUSH1 0x0 REVERT JUMPDEST POP POP POP POP PUSH2 0x2644 JUMP JUMPDEST PUSH1 0x2 SLOAD DUP4 MLOAD PUSH1 0x1 PUSH1 0x1 PUSH1 0xA0 SHL SUB SWAP1 SWAP2 AND SWAP1 PUSH4 0x47F43EF2 SWAP1 DUP6 SWAP1 DUP6 SWAP1 DUP2 LT PUSH2 0x25D7 JUMPI PUSH2 0x25D7 PUSH2 0x2901 JUMP JUMPDEST PUSH1 0x20 MUL PUSH1 0x20 ADD ADD MLOAD DUP7 PUSH1 0x40 MLOAD DUP4 PUSH4 0xFFFFFFFF AND PUSH1 0xE0 SHL DUP2 MSTORE PUSH1 0x4 ADD PUSH2 0x2611 SWAP3 SWAP2 SWAP1 PUSH1 0x1 PUSH1 0x1 PUSH1 0xA0 SHL SUB SWAP3 SWAP1 SWAP3 AND DUP3 MSTORE PUSH1 0x20 DUP3 ADD MSTORE PUSH1 0x40 ADD SWAP1 JUMP JUMPDEST PUSH1 0x0 PUSH1 0x40 MLOAD DUP1 DUP4 SUB DUP2 PUSH1 0x0 DUP8 DUP1 EXTCODESIZE ISZERO DUP1 ISZERO PUSH2 0x262B JUMPI PUSH1 0x0 DUP1 REVERT JUMPDEST POP GAS CALL ISZERO DUP1 ISZERO PUSH2 0x263F JUMPI RETURNDATASIZE PUSH1 0x0 DUP1 RETURNDATACOPY RETURNDATASIZE PUSH1 0x0 REVERT JUMPDEST POP POP POP POP JUMPDEST POP PUSH1 0x1 ADD PUSH2 0x2440 JUMP JUMPDEST POP POP POP JUMP JUMPDEST PUSH1 0x40 MLOAD DUP1 PUSH1 0xC0 ADD PUSH1 0x40 MSTORE DUP1 PUSH1 0x6 SWAP1 PUSH1 0x20 DUP3 MUL DUP1 CALLDATASIZE DUP4 CALLDATACOPY POP SWAP2 SWAP3 SWAP2 POP POP JUMP JUMPDEST PUSH1 0x0 PUSH1 0x20 DUP3 DUP5 SUB SLT ISZERO PUSH2 0x2682 JUMPI PUSH1 0x0 DUP1 REVERT JUMPDEST POP CALLDATALOAD SWAP2 SWAP1 POP JUMP JUMPDEST PUSH1 0x0 DUP2 MLOAD DUP1 DUP5 MSTORE PUSH1 0x20 DUP1 DUP6 ADD SWAP5 POP PUSH1 0x20 DUP5 ADD PUSH1 0x0 JUMPDEST DUP4 DUP2 LT ISZERO PUSH2 0x26C3 JUMPI DUP2 MLOAD PUSH1 0x1 PUSH1 0x1 PUSH1 0xA0 SHL SUB AND DUP8 MSTORE SWAP6 DUP3 ADD SWAP6 SWAP1 DUP3 ADD SWAP1 PUSH1 0x1 ADD PUSH2 0x269E JUMP JUMPDEST POP SWAP5 SWAP6 SWAP5 POP POP POP POP POP JUMP JUMPDEST PUSH6 0xFFFFFFFFFFFF PUSH1 0xD0 SHL DUP7 AND DUP2 MSTORE DUP5 PUSH1 0x20 DUP3 ADD MSTORE PUSH1 0xA0 PUSH1 0x40 DUP3 ADD MSTORE PUSH1 0x0 PUSH2 0x26F8 PUSH1 0xA0 DUP4 ADD DUP7 PUSH2 0x2689 JUMP JUMPDEST PUSH1 0x60 DUP4 ADD SWAP5 SWAP1 SWAP5 MSTORE POP PUSH1 0x80 ADD MSTORE SWAP4 SWAP3 POP POP POP JUMP JUMPDEST PUSH1 0x0 DUP1 PUSH1 0x40 DUP4 DUP6 SUB SLT ISZERO PUSH2 0x271F JUMPI PUSH1 0x0 DUP1 REVERT JUMPDEST POP POP DUP1 CALLDATALOAD SWAP3 PUSH1 0x20 SWAP1 SWAP2 ADD CALLDATALOAD SWAP2 POP JUMP JUMPDEST PUSH1 0x1 PUSH1 0x1 PUSH1 0xA0 SHL SUB DUP2 AND DUP2 EQ PUSH2 0x15D0 JUMPI PUSH1 0x0 DUP1 REVERT JUMPDEST PUSH1 0x0 PUSH1 0x20 DUP3 DUP5 SUB SLT ISZERO PUSH2 0x2755 JUMPI PUSH1 0x0 DUP1 REVERT JUMPDEST DUP2 CALLDATALOAD PUSH2 0x2760 DUP2 PUSH2 0x272E JUMP JUMPDEST SWAP4 SWAP3 POP POP POP JUMP JUMPDEST DUP1 PUSH1 0x0 JUMPDEST PUSH1 0x6 DUP2 LT ISZERO PUSH2 0x278C JUMPI DUP2 MLOAD ISZERO ISZERO DUP5 MSTORE PUSH1 0x20 SWAP4 DUP5 ADD SWAP4 SWAP1 SWAP2 ADD SWAP1 PUSH1 0x1 ADD PUSH2 0x276B JUMP JUMPDEST POP POP POP POP JUMP JUMPDEST PUSH1 0x0 PUSH2 0x280 DUP3 ADD SWAP1 POP DUP12 DUP3 MSTORE PUSH1 0x20 DUP12 PUSH1 0x20 DUP5 ADD MSTORE DUP11 PUSH1 0x40 DUP5 ADD MSTORE DUP10 PUSH1 0x60 DUP5 ADD MSTORE PUSH6 0xFFFFFFFFFFFF PUSH1 0xD0 SHL DUP10 AND PUSH1 0x80 DUP5 ADD MSTORE DUP8 PUSH1 0xA0 DUP5 ADD MSTORE DUP7 PUSH1 0xC0 DUP5 ADD MSTORE DUP6 ISZERO ISZERO PUSH1 0xE0 DUP5 ADD MSTORE PUSH2 0x100 DUP4 ADD DUP6 PUSH1 0x0 JUMPDEST PUSH1 0x6 DUP2 LT ISZERO PUSH2 0x27FD JUMPI DUP2 MLOAD DUP4 MSTORE SWAP2 DUP4 ADD SWAP2 SWAP1 DUP4 ADD SWAP1 PUSH1 0x1 ADD PUSH2 0x27E0 JUMP JUMPDEST POP POP POP POP PUSH2 0x280F PUSH2 0x1C0 DUP4 ADD DUP5 PUSH2 0x2767 JUMP JUMPDEST SWAP12 SWAP11 POP POP POP POP POP POP POP POP POP POP POP JUMP JUMPDEST PUSH1 0x0 DUP1 PUSH1 0x40 DUP4 DUP6 SUB SLT ISZERO PUSH2 0x2831 JUMPI PUSH1 0x0 DUP1 REVERT JUMPDEST DUP3 CALLDATALOAD SWAP2 POP PUSH1 0x20 DUP4 ADD CALLDATALOAD PUSH2 0x2843 DUP2 PUSH2 0x272E JUMP JUMPDEST DUP1 SWAP2 POP POP SWAP3 POP SWAP3 SWAP1 POP JUMP JUMPDEST DUP1 ISZERO ISZERO DUP2 EQ PUSH2 0x15D0 JUMPI PUSH1 0x0 DUP1 REVERT JUMPDEST PUSH1 0x0 PUSH1 0x20 DUP3 DUP5 SUB SLT ISZERO PUSH2 0x286E JUMPI PUSH1 0x0 DUP1 REVERT JUMPDEST DUP2 CALLDATALOAD PUSH2 0x2760 DUP2 PUSH2 0x284E JUMP JUMPDEST PUSH4 0x4E487B71 PUSH1 0xE0 SHL PUSH1 0x0 MSTORE PUSH1 0x11 PUSH1 0x4 MSTORE PUSH1 0x24 PUSH1 0x0 REVERT JUMPDEST PUSH1 0x0 PUSH1 0x1 DUP3 ADD PUSH2 0x28A1 JUMPI PUSH2 0x28A1 PUSH2 0x2879 JUMP JUMPDEST POP PUSH1 0x1 ADD SWAP1 JUMP JUMPDEST PUSH4 0x4E487B71 PUSH1 0xE0 SHL PUSH1 0x0 MSTORE PUSH1 0x41 PUSH1 0x4 MSTORE PUSH1 0x24 PUSH1 0x0 REVERT JUMPDEST DUP2 DUP2 SUB DUP2 DUP2 GT ISZERO PUSH2 0x28D1 JUMPI PUSH2 0x28D1 PUSH2 0x2879 JUMP JUMPDEST SWAP3 SWAP2 POP POP JUMP JUMPDEST PUSH4 0x4E487B71 PUSH1 0xE0 SHL PUSH1 0x0 MSTORE PUSH1 0x12 PUSH1 0x4 MSTORE PUSH1 0x24 PUSH1 0x0 REVERT JUMPDEST PUSH1 0x0 DUP3 PUSH2 0x28FC JUMPI PUSH2 0x28FC PUSH2 0x28D7 JUMP JUMPDEST POP MOD SWAP1 JUMP JUMPDEST PUSH4 0x4E487B71 PUSH1 0xE0 SHL PUSH1 0x0 MSTORE PUSH1 0x32 PUSH1 0x4 MSTORE PUSH1 0x24 PUSH1 0x0 REVERT JUMPDEST DUP1 MLOAD PUSH1 0x20 DUP3 ADD MLOAD PUSH1 0x1 PUSH1 0x1 PUSH1 0xD0 SHL SUB NOT DUP1 DUP3 AND SWAP3 SWAP2 SWAP1 PUSH1 0x6 DUP4 LT ISZERO PUSH2 0x2946 JUMPI DUP1 DUP2 DUP5 PUSH1 0x6 SUB PUSH1 0x3 SHL SHL DUP4 AND AND SWAP4 POP JUMPDEST POP POP POP SWAP2 SWAP1 POP JUMP JUMPDEST DUP1 DUP3 ADD DUP1 DUP3 GT ISZERO PUSH2 0x28D1 JUMPI PUSH2 0x28D1 PUSH2 0x2879 JUMP JUMPDEST DUP1 DUP3 MUL DUP2 ISZERO DUP3 DUP3 DIV DUP5 EQ OR PUSH2 0x28D1 JUMPI PUSH2 0x28D1 PUSH2 0x2879 JUMP JUMPDEST DUP1 MLOAD PUSH2 0x2983 DUP2 PUSH2 0x272E JUMP JUMPDEST SWAP2 SWAP1 POP JUMP JUMPDEST PUSH1 0x0 PUSH1 0x20 DUP1 DUP4 DUP6 SUB SLT ISZERO PUSH2 0x299B JUMPI PUSH1 0x0 DUP1 REVERT JUMPDEST DUP3 MLOAD PUSH8 0xFFFFFFFFFFFFFFFF DUP1 DUP3 GT ISZERO PUSH2 0x29B3 JUMPI PUSH1 0x0 DUP1 REVERT JUMPDEST DUP2 DUP6 ADD SWAP2 POP DUP6 PUSH1 0x1F DUP4 ADD SLT PUSH2 0x29C7 JUMPI PUSH1 0x0 DUP1 REVERT JUMPDEST DUP2 MLOAD DUP2 DUP2 GT ISZERO PUSH2 0x29D9 JUMPI PUSH2 0x29D9 PUSH2 0x28A8 JUMP JUMPDEST DUP1 PUSH1 0x5 SHL PUSH1 0x40 MLOAD PUSH1 0x1F NOT PUSH1 0x3F DUP4 ADD AND DUP2 ADD DUP2 DUP2 LT DUP6 DUP3 GT OR ISZERO PUSH2 0x29FE JUMPI PUSH2 0x29FE PUSH2 0x28A8 JUMP JUMPDEST PUSH1 0x40 MSTORE SWAP2 DUP3 MSTORE DUP5 DUP3 ADD SWAP3 POP DUP4 DUP2 ADD DUP6 ADD SWAP2 DUP9 DUP4 GT ISZERO PUSH2 0x2A1C JUMPI PUSH1 0x0 DUP1 REVERT JUMPDEST SWAP4 DUP6 ADD SWAP4 JUMPDEST DUP3 DUP6 LT ISZERO PUSH2 0x2A41 JUMPI PUSH2 0x2A32 DUP6 PUSH2 0x2978 JUMP JUMPDEST DUP5 MSTORE SWAP4 DUP6 ADD SWAP4 SWAP3 DUP6 ADD SWAP3 PUSH2 0x2A21 JUMP JUMPDEST SWAP9 SWAP8 POP POP POP POP POP POP POP POP JUMP JUMPDEST DUP3 DUP2 MSTORE PUSH1 0x40 PUSH1 0x20 DUP3 ADD MSTORE PUSH1 0x0 PUSH2 0x2A66 PUSH1 0x40 DUP4 ADD DUP5 PUSH2 0x2689 JUMP JUMPDEST SWAP5 SWAP4 POP POP POP POP JUMP JUMPDEST DUP1 MLOAD PUSH1 0x1 PUSH1 0x1 PUSH1 0xD0 SHL SUB NOT DUP2 AND DUP2 EQ PUSH2 0x2983 JUMPI PUSH1 0x0 DUP1 REVERT JUMPDEST PUSH1 0x0 DUP1 PUSH1 0x40 DUP4 DUP6 SUB SLT ISZERO PUSH2 0x2A99 JUMPI PUSH1 0x0 DUP1 REVERT JUMPDEST DUP3 MLOAD PUSH2 0x2AA4 DUP2 PUSH2 0x284E JUMP JUMPDEST SWAP2 POP PUSH2 0x2AB2 PUSH1 0x20 DUP5 ADD PUSH2 0x2A6E JUMP JUMPDEST SWAP1 POP SWAP3 POP SWAP3 SWAP1 POP JUMP JUMPDEST PUSH1 0x0 DUP3 PUSH2 0x2ACA JUMPI PUSH2 0x2ACA PUSH2 0x28D7 JUMP JUMPDEST POP DIV SWAP1 JUMP JUMPDEST PUSH1 0x0 DUP1 PUSH1 0x0 DUP1 PUSH1 0x0 DUP1 PUSH1 0x0 PUSH1 0xE0 DUP9 DUP11 SUB SLT ISZERO PUSH2 0x2AEA JUMPI PUSH1 0x0 DUP1 REVERT JUMPDEST PUSH2 0x2AF3 DUP9 PUSH2 0x2A6E JUMP JUMPDEST SWAP7 POP PUSH1 0x20 DUP9 ADD MLOAD SWAP6 POP PUSH1 0x40 DUP9 ADD MLOAD SWAP5 POP PUSH1 0x60 DUP9 ADD MLOAD SWAP4 POP PUSH1 0x80 DUP9 ADD MLOAD PUSH2 0x2B18 DUP2 PUSH2 0x272E JUMP JUMPDEST PUSH1 0xA0 DUP10 ADD MLOAD SWAP1 SWAP4 POP PUSH1 0xFF DUP2 AND DUP2 EQ PUSH2 0x2B2F JUMPI PUSH1 0x0 DUP1 REVERT JUMPDEST PUSH1 0xC0 DUP10 ADD MLOAD SWAP1 SWAP3 POP PUSH2 0x2B40 DUP2 PUSH2 0x284E JUMP JUMPDEST DUP1 SWAP2 POP POP SWAP3 SWAP6 SWAP9 SWAP2 SWAP5 SWAP8 POP SWAP3 SWAP6 POP JUMP INVALID SWAP12 PUSH24 0x9B17422D0DF92223018B32B4D1FA46E071723D6817E2486D STOP EXTCODESIZE 0xEC 0xC5 PUSH0 STOP COINBASE TIMESTAMP NUMBER DIFFICULTY GASLIMIT CHAINID SELFBALANCE BASEFEE BLOBHASH BLOBBASEFEE 0x4B 0x4C 0x4D 0x4E 0x4F POP MLOAD MSTORE MSTORE8 SLOAD SSTORE JUMP JUMPI PC MSIZE GAS ADDRESS BALANCE ORIGIN CALLER CALLVALUE CALLDATALOAD CALLDATASIZE CALLDATACOPY CODESIZE CODECOPY LOG2 PUSH5 0x6970667358 0x22 SLT KECCAK256 PUSH15 0xE116820D26F05968A33E5142D79890 0xBF 0xC3 SAR MSIZE JUMPI 0xC0 TSTORE 0xE DUP13 PUSH31 0x7F47627276A564736F6C634300081800330000000000000000000000000000 "
				},
				"gasEstimates": {
					"creation": {
						"codeDepositCost": "2242000",
						"executionCost": "infinite",
						"totalCost": "infinite"
					},
					"external": {
						"CLAIM_WINDOW_ROUNDS()": "263",
						"INTERACTION_WINDOW()": "284",
						"ROUND_DURATION()": "infinite",
						"SEGMENTS_PER_ROUND()": "284",
						"SEGMENT_DURATION()": "392",
						"SETTLEMENT_WINDOW()": "307",
						"addToPot()": "infinite",
						"claimWinnings(uint256)": "infinite",
						"currentAccumulatedRewards()": "2385",
						"currentRound()": "2364",
						"currentSegment()": "2363",
						"eligibleRegistry()": "2450",
						"entriesPaused()": "2400",
						"fundPot()": "infinite",
						"gameRegistry()": "2404",
						"gameStarted()": "2378",
						"gameUnclaimed_winningsPool()": "2362",
						"getCurrentWindow()": "infinite",
						"getRoundResult(uint256)": "infinite",
						"getRoundState()": "infinite",
						"getSegmentDigit(uint256)": "infinite",
						"hasClaimed(uint256,address)": "2761",
						"isSettlementWindow()": "4706",
						"nudgeScroll()": "infinite",
						"owner()": "2422",
						"pauseEntries()": "26601",
						"pauseSettlement()": "26621",
						"positionCounter()": "2407",
						"prizeEscrow()": "2406",
						"protocolCutBps()": "2364",
						"renounceOwnership()": "infinite",
						"roundPerWinnerAmount(uint256)": "2548",
						"roundPotAmount(uint256)": "2549",
						"roundRemainder(uint256)": "2550",
						"roundWinners(uint256,uint256)": "4797",
						"roundWinningString(uint256)": "2535",
						"router()": "2469",
						"segmentDigitCounter(uint256)": "2506",
						"segmentDigitLocked(uint256)": "2561",
						"segmentStartTime()": "2407",
						"setEligibleRegistry(address)": "26795",
						"setGameRegistry(address)": "26853",
						"setPrizeEscrow(address)": "26854",
						"setProtocolCutBps(uint256)": "25682",
						"setRouter(address)": "26875",
						"setSettler(address)": "28017",
						"setShuffleEnabled(bool)": "26820",
						"setWinnersPerRound(uint256)": "25668",
						"settleSegment()": "infinite",
						"settlementPaused()": "2455",
						"settler()": "2471",
						"shuffleEnabled()": "2400",
						"startGame()": "infinite",
						"timeRemainingInSegment()": "infinite",
						"transferOwnership(address)": "infinite",
						"unpauseEntries()": "26637",
						"unpauseSettlement()": "26638",
						"winnersPerRound()": "2429"
					},
					"internal": {
						"_activateRoundEntries(uint256)": "infinite",
						"_buildWinningString()": "infinite",
						"_distributePotAndRecord(uint256,address[] memory,uint256)": "infinite",
						"_findVerifiedWinners(uint256,bytes6)": "infinite",
						"_isInSettlementWindow()": "4344",
						"_processExpiredEntries(uint256)": "infinite",
						"_settleRound()": "infinite"
					}
				},
				"methodIdentifiers": {
					"CLAIM_WINDOW_ROUNDS()": "ac650783",
					"INTERACTION_WINDOW()": "7f35d49f",
					"ROUND_DURATION()": "6641ea08",
					"SEGMENTS_PER_ROUND()": "b7bc5fb6",
					"SEGMENT_DURATION()": "231e832d",
					"SETTLEMENT_WINDOW()": "3deb6cae",
					"addToPot()": "17ebf6ae",
					"claimWinnings(uint256)": "677bd9ff",
					"currentAccumulatedRewards()": "b2721164",
					"currentRound()": "8a19c8bc",
					"currentSegment()": "99b465cb",
					"eligibleRegistry()": "92eaa9d9",
					"entriesPaused()": "2ee0c463",
					"fundPot()": "9c737e8f",
					"gameRegistry()": "da090755",
					"gameStarted()": "5e123ce4",
					"gameUnclaimed_winningsPool()": "d38970bc",
					"getCurrentWindow()": "0f67e7d5",
					"getRoundResult(uint256)": "02e28c70",
					"getRoundState()": "293c2958",
					"getSegmentDigit(uint256)": "b63ff8a3",
					"hasClaimed(uint256,address)": "873f6f9e",
					"isSettlementWindow()": "c33b7586",
					"nudgeScroll()": "0b7a567b",
					"owner()": "8da5cb5b",
					"pauseEntries()": "0a8506ca",
					"pauseSettlement()": "d57f9525",
					"positionCounter()": "63d5ab8d",
					"prizeEscrow()": "1a3b8e8c",
					"protocolCutBps()": "41d67d06",
					"renounceOwnership()": "715018a6",
					"roundPerWinnerAmount(uint256)": "f82a23d1",
					"roundPotAmount(uint256)": "7f79ba59",
					"roundRemainder(uint256)": "b303feeb",
					"roundWinners(uint256,uint256)": "03e3cd6a",
					"roundWinningString(uint256)": "79eedbdd",
					"router()": "f887ea40",
					"segmentDigitCounter(uint256)": "c4887f15",
					"segmentDigitLocked(uint256)": "d6194c00",
					"segmentStartTime()": "cc16fe5b",
					"setEligibleRegistry(address)": "f13afb90",
					"setGameRegistry(address)": "dd898b2f",
					"setPrizeEscrow(address)": "5f303f1c",
					"setProtocolCutBps(uint256)": "456990c7",
					"setRouter(address)": "c0d78655",
					"setSettler(address)": "07f19eba",
					"setShuffleEnabled(bool)": "ebd2fe41",
					"setWinnersPerRound(uint256)": "1ad41d14",
					"settleSegment()": "46a662bf",
					"settlementPaused()": "4168632d",
					"settler()": "ab221a76",
					"shuffleEnabled()": "c74b817d",
					"startGame()": "d65ab5f2",
					"timeRemainingInSegment()": "a1a016a3",
					"transferOwnership(address)": "f2fde38b",
					"unpauseEntries()": "e9755b59",
					"unpauseSettlement()": "76d9ff2c",
					"winnersPerRound()": "77043591"
				}
			},
			"storageLayout": {
				"storage": [
					{
						"astId": 1949,
						"contract": "/contracts/TimbPrize.sol:TimbPrize",
						"label": "_owner",
						"offset": 0,
						"slot": "0",
						"type": "t_address"
					},
					{
						"astId": 164,
						"contract": "/contracts/TimbPrize.sol:TimbPrize",
						"label": "prizeEscrow",
						"offset": 0,
						"slot": "1",
						"type": "t_address"
					},
					{
						"astId": 167,
						"contract": "/contracts/TimbPrize.sol:TimbPrize",
						"label": "gameRegistry",
						"offset": 0,
						"slot": "2",
						"type": "t_address"
					},
					{
						"astId": 170,
						"contract": "/contracts/TimbPrize.sol:TimbPrize",
						"label": "router",
						"offset": 0,
						"slot": "3",
						"type": "t_address"
					},
					{
						"astId": 173,
						"contract": "/contracts/TimbPrize.sol:TimbPrize",
						"label": "eligibleRegistry",
						"offset": 0,
						"slot": "4",
						"type": "t_address"
					},
					{
						"astId": 176,
						"contract": "/contracts/TimbPrize.sol:TimbPrize",
						"label": "settler",
						"offset": 0,
						"slot": "5",
						"type": "t_address"
					},
					{
						"astId": 179,
						"contract": "/contracts/TimbPrize.sol:TimbPrize",
						"label": "positionCounter",
						"offset": 0,
						"slot": "6",
						"type": "t_uint256"
					},
					{
						"astId": 184,
						"contract": "/contracts/TimbPrize.sol:TimbPrize",
						"label": "segmentDigitCounter",
						"offset": 0,
						"slot": "7",
						"type": "t_mapping(t_uint256,t_uint256)"
					},
					{
						"astId": 189,
						"contract": "/contracts/TimbPrize.sol:TimbPrize",
						"label": "segmentDigitLocked",
						"offset": 0,
						"slot": "8",
						"type": "t_mapping(t_uint256,t_bool)"
					},
					{
						"astId": 192,
						"contract": "/contracts/TimbPrize.sol:TimbPrize",
						"label": "shuffleEnabled",
						"offset": 0,
						"slot": "9",
						"type": "t_bool"
					},
					{
						"astId": 195,
						"contract": "/contracts/TimbPrize.sol:TimbPrize",
						"label": "currentRound",
						"offset": 0,
						"slot": "10",
						"type": "t_uint256"
					},
					{
						"astId": 198,
						"contract": "/contracts/TimbPrize.sol:TimbPrize",
						"label": "currentSegment",
						"offset": 0,
						"slot": "11",
						"type": "t_uint256"
					},
					{
						"astId": 201,
						"contract": "/contracts/TimbPrize.sol:TimbPrize",
						"label": "segmentStartTime",
						"offset": 0,
						"slot": "12",
						"type": "t_uint256"
					},
					{
						"astId": 204,
						"contract": "/contracts/TimbPrize.sol:TimbPrize",
						"label": "gameStarted",
						"offset": 0,
						"slot": "13",
						"type": "t_bool"
					},
					{
						"astId": 207,
						"contract": "/contracts/TimbPrize.sol:TimbPrize",
						"label": "currentAccumulatedRewards",
						"offset": 0,
						"slot": "14",
						"type": "t_uint256"
					},
					{
						"astId": 210,
						"contract": "/contracts/TimbPrize.sol:TimbPrize",
						"label": "gameUnclaimed_winningsPool",
						"offset": 0,
						"slot": "15",
						"type": "t_uint256"
					},
					{
						"astId": 213,
						"contract": "/contracts/TimbPrize.sol:TimbPrize",
						"label": "winnersPerRound",
						"offset": 0,
						"slot": "16",
						"type": "t_uint256"
					},
					{
						"astId": 216,
						"contract": "/contracts/TimbPrize.sol:TimbPrize",
						"label": "protocolCutBps",
						"offset": 0,
						"slot": "17",
						"type": "t_uint256"
					},
					{
						"astId": 221,
						"contract": "/contracts/TimbPrize.sol:TimbPrize",
						"label": "roundWinningString",
						"offset": 0,
						"slot": "18",
						"type": "t_mapping(t_uint256,t_bytes6)"
					},
					{
						"astId": 226,
						"contract": "/contracts/TimbPrize.sol:TimbPrize",
						"label": "roundPotAmount",
						"offset": 0,
						"slot": "19",
						"type": "t_mapping(t_uint256,t_uint256)"
					},
					{
						"astId": 232,
						"contract": "/contracts/TimbPrize.sol:TimbPrize",
						"label": "roundWinners",
						"offset": 0,
						"slot": "20",
						"type": "t_mapping(t_uint256,t_array(t_address)dyn_storage)"
					},
					{
						"astId": 237,
						"contract": "/contracts/TimbPrize.sol:TimbPrize",
						"label": "roundPerWinnerAmount",
						"offset": 0,
						"slot": "21",
						"type": "t_mapping(t_uint256,t_uint256)"
					},
					{
						"astId": 242,
						"contract": "/contracts/TimbPrize.sol:TimbPrize",
						"label": "roundRemainder",
						"offset": 0,
						"slot": "22",
						"type": "t_mapping(t_uint256,t_uint256)"
					},
					{
						"astId": 249,
						"contract": "/contracts/TimbPrize.sol:TimbPrize",
						"label": "hasClaimed",
						"offset": 0,
						"slot": "23",
						"type": "t_mapping(t_uint256,t_mapping(t_address,t_bool))"
					},
					{
						"astId": 252,
						"contract": "/contracts/TimbPrize.sol:TimbPrize",
						"label": "entriesPaused",
						"offset": 0,
						"slot": "24",
						"type": "t_bool"
					},
					{
						"astId": 254,
						"contract": "/contracts/TimbPrize.sol:TimbPrize",
						"label": "settlementPaused",
						"offset": 1,
						"slot": "24",
						"type": "t_bool"
					}
				],
				"types": {
					"t_address": {
						"encoding": "inplace",
						"label": "address",
						"numberOfBytes": "20"
					},
					"t_array(t_address)dyn_storage": {
						"base": "t_address",
						"encoding": "dynamic_array",
						"label": "address[]",
						"numberOfBytes": "32"
					},
					"t_bool": {
						"encoding": "inplace",
						"label": "bool",
						"numberOfBytes": "1"
					},
					"t_bytes6": {
						"encoding": "inplace",
						"label": "bytes6",
						"numberOfBytes": "6"
					},
					"t_mapping(t_address,t_bool)": {
						"encoding": "mapping",
						"key": "t_address",
						"label": "mapping(address => bool)",
						"numberOfBytes": "32",
						"value": "t_bool"
					},
					"t_mapping(t_uint256,t_array(t_address)dyn_storage)": {
						"encoding": "mapping",
						"key": "t_uint256",
						"label": "mapping(uint256 => address[])",
						"numberOfBytes": "32",
						"value": "t_array(t_address)dyn_storage"
					},
					"t_mapping(t_uint256,t_bool)": {
						"encoding": "mapping",
						"key": "t_uint256",
						"label": "mapping(uint256 => bool)",
						"numberOfBytes": "32",
						"value": "t_bool"
					},
					"t_mapping(t_uint256,t_bytes6)": {
						"encoding": "mapping",
						"key": "t_uint256",
						"label": "mapping(uint256 => bytes6)",
						"numberOfBytes": "32",
						"value": "t_bytes6"
					},
					"t_mapping(t_uint256,t_mapping(t_address,t_bool))": {
						"encoding": "mapping",
						"key": "t_uint256",
						"label": "mapping(uint256 => mapping(address => bool))",
						"numberOfBytes": "32",
						"value": "t_mapping(t_address,t_bool)"
					},
					"t_mapping(t_uint256,t_uint256)": {
						"encoding": "mapping",
						"key": "t_uint256",
						"label": "mapping(uint256 => uint256)",
						"numberOfBytes": "32",
						"value": "t_uint256"
					},
					"t_uint256": {
						"encoding": "inplace",
						"label": "uint256",
						"numberOfBytes": "32"
					}
				}
			},
			"userdoc": {
				"kind": "user",
				"methods": {
					"CLAIM_WINDOW_ROUNDS()": {
						"notice": "Claim window: 2 rounds after lastEligibleRound."
					},
					"INTERACTION_WINDOW()": {
						"notice": "Segment interaction window: 59 min 45 sec."
					},
					"ROUND_DURATION()": {
						"notice": "Full round duration (6 hours)."
					},
					"SEGMENTS_PER_ROUND()": {
						"notice": "Segments per round."
					},
					"SEGMENT_DURATION()": {
						"notice": "Full segment duration."
					},
					"SETTLEMENT_WINDOW()": {
						"notice": "Settlement window: 15 seconds."
					},
					"currentAccumulatedRewards()": {
						"notice": "Current accumulated rewards (live prize pot, in ETH wei)."
					},
					"currentRound()": {
						"notice": "Current round number (starts at 0, first game round = 1)."
					},
					"currentSegment()": {
						"notice": "Current segment within the round (1–6)."
					},
					"eligibleRegistry()": {
						"notice": "EligibleTokenRegistry — token eligibility check."
					},
					"entriesPaused()": {
						"notice": "Per-function pause flags."
					},
					"gameRegistry()": {
						"notice": "GameRegistry — entry storage and verification."
					},
					"gameStarted()": {
						"notice": "Whether the game has been started."
					},
					"gameUnclaimed_winningsPool()": {
						"notice": "Undistributed winnings documented for winners pending claim."
					},
					"getCurrentWindow()": {
						"notice": "Returns the current 6-char display."
					},
					"getRoundState()": {
						"notice": "Full live state for frontend. Includes per-segment digit counters         and lock status so the UI can display locked vs live vs pending digits."
					},
					"getSegmentDigit(uint256)": {
						"notice": "Returns the locked digit for a specific segment."
					},
					"hasClaimed(uint256,address)": {
						"notice": "Whether a winner has claimed for a round."
					},
					"nudgeScroll()": {
						"notice": "Nudge the active digit +1."
					},
					"positionCounter()": {
						"notice": "Scroll position counter — increments +1 per eligible swap."
					},
					"prizeEscrow()": {
						"notice": "PrizeEscrow — holds all prize ETH."
					},
					"protocolCutBps()": {
						"notice": "Owner-set protocol cut % from round settlement (basis points)."
					},
					"roundPerWinnerAmount(uint256)": {
						"notice": "Per-winner payout amount per round."
					},
					"roundPotAmount(uint256)": {
						"notice": "Frozen pot for each round (post-protocol-cut)."
					},
					"roundRemainder(uint256)": {
						"notice": "Remainder (r) for each round."
					},
					"roundWinners(uint256,uint256)": {
						"notice": "Winners documented per round."
					},
					"roundWinningString(uint256)": {
						"notice": "Frozen winning string for each round."
					},
					"router()": {
						"notice": "TimbSwapRouter — authorised to call nudgeScroll()."
					},
					"segmentDigitCounter(uint256)": {
						"notice": "Per-segment digit nudge counters. Index = segment number (1-6)."
					},
					"segmentDigitLocked(uint256)": {
						"notice": "Whether each segment's digit is locked (settled)."
					},
					"segmentStartTime()": {
						"notice": "Timestamp when the current segment started."
					},
					"settler()": {
						"notice": "Settler address — authorised to call settleSegment()."
					},
					"shuffleEnabled()": {
						"notice": "Shuffle enabled — if true, alphabet reseeded each round."
					},
					"winnersPerRound()": {
						"notice": "Number of winners per round (owner-configurable)."
					}
				},
				"notice": "Prize game round logic, scroll mechanic, settlement, and payouts. Architecture:   - Perpetual self-continuing rounds (6 hours each).   - 6 segments per round: 59:45 interaction + 0:15 settlement.   - positionCounter increments +1 per eligible swap (via nudgeScroll).   - Winning string = 6-char window in 36-char alphabet at freeze point.   - Freeze: keccak256(blockhash(block.number-1) + counter + roundNumber).   - Winners: exact 6-char match, equal split, remainder (r) snowballs.   - Prize ETH held in PrizeEscrow, paid on winner claim.   - Dual-layer verification at settlement via GameRegistry. Prize pool accounting (balance sheet):   currentAccumulatedRewards — live building pot   gameUnclaimed_winningsPool — documented winners pending claim   Entry escrow in GameRegistry — completely separate, never touched here Security:   - ReentrancyGuard on claimWinnings(), nudgeScroll(), settleSegment().   - Settler address (owner initially) is the only caller for settlement.   - Settlement reverts if called before segment timer expires.   - nudgeScroll() blocked during 0:15 settlement window.   - Winner claim verified via dual-layer GameRegistry check.   - ETH never held here — all prize ETH in PrizeEscrow.   - Per-function pause (entries, settlement pausable independently). Deployment:   1. Deploy PrizeEscrow → Deploy TimbPrize(escrow, registry, router)   2. registry.setTimbPrize(address(this))   3. router.setTimbPrize(address(this))   4. setEligibleRegistry(address)   5. Fund PrizeEscrow with initial ETH   6. startGame() — begins round #1",
				"version": 1
			}
		}
	}
}