{
	"contracts/TimbGovernance.sol": {
		"TimbGovernance": {
			"abi": [
				{
					"inputs": [
						{
							"internalType": "address",
							"name": "_timbsToken",
							"type": "address"
						},
						{
							"internalType": "uint256",
							"name": "_proposalThreshold",
							"type": "uint256"
						},
						{
							"internalType": "uint256",
							"name": "_quorumBps",
							"type": "uint256"
						},
						{
							"internalType": "uint256",
							"name": "_votingPeriod",
							"type": "uint256"
						},
						{
							"internalType": "uint256",
							"name": "_votingDelay",
							"type": "uint256"
						}
					],
					"stateMutability": "nonpayable",
					"type": "constructor"
				},
				{
					"inputs": [],
					"name": "AlreadyExecuted",
					"type": "error"
				},
				{
					"inputs": [],
					"name": "AlreadyVoted",
					"type": "error"
				},
				{
					"inputs": [],
					"name": "BelowThreshold",
					"type": "error"
				},
				{
					"inputs": [],
					"name": "ExecutionWindowExpired",
					"type": "error"
				},
				{
					"inputs": [],
					"name": "InsufficientVotingPower",
					"type": "error"
				},
				{
					"inputs": [],
					"name": "InvalidBps",
					"type": "error"
				},
				{
					"inputs": [],
					"name": "InvalidPeriod",
					"type": "error"
				},
				{
					"inputs": [
						{
							"internalType": "address",
							"name": "owner",
							"type": "address"
						}
					],
					"name": "OwnableInvalidOwner",
					"type": "error"
				},
				{
					"inputs": [
						{
							"internalType": "address",
							"name": "account",
							"type": "address"
						}
					],
					"name": "OwnableUnauthorizedAccount",
					"type": "error"
				},
				{
					"inputs": [],
					"name": "ProposalNotFound",
					"type": "error"
				},
				{
					"inputs": [],
					"name": "ProposalNotPassed",
					"type": "error"
				},
				{
					"inputs": [],
					"name": "ReentrancyGuardReentrantCall",
					"type": "error"
				},
				{
					"inputs": [
						{
							"internalType": "uint256",
							"name": "endedAt",
							"type": "uint256"
						}
					],
					"name": "VotingEnded",
					"type": "error"
				},
				{
					"inputs": [
						{
							"internalType": "uint256",
							"name": "startsAt",
							"type": "uint256"
						}
					],
					"name": "VotingNotStarted",
					"type": "error"
				},
				{
					"inputs": [
						{
							"internalType": "uint256",
							"name": "lockedUntil",
							"type": "uint256"
						}
					],
					"name": "VotingPowerLocked",
					"type": "error"
				},
				{
					"inputs": [],
					"name": "ZeroAddress",
					"type": "error"
				},
				{
					"inputs": [],
					"name": "ZeroAmount",
					"type": "error"
				},
				{
					"anonymous": false,
					"inputs": [
						{
							"indexed": true,
							"internalType": "address",
							"name": "previousOwner",
							"type": "address"
						},
						{
							"indexed": true,
							"internalType": "address",
							"name": "newOwner",
							"type": "address"
						}
					],
					"name": "OwnershipTransferred",
					"type": "event"
				},
				{
					"anonymous": false,
					"inputs": [
						{
							"indexed": true,
							"internalType": "uint256",
							"name": "id",
							"type": "uint256"
						},
						{
							"indexed": true,
							"internalType": "address",
							"name": "proposer",
							"type": "address"
						},
						{
							"indexed": false,
							"internalType": "string",
							"name": "title",
							"type": "string"
						},
						{
							"indexed": false,
							"internalType": "uint256",
							"name": "votingStartsAt",
							"type": "uint256"
						},
						{
							"indexed": false,
							"internalType": "uint256",
							"name": "votingEndsAt",
							"type": "uint256"
						}
					],
					"name": "ProposalCreated",
					"type": "event"
				},
				{
					"anonymous": false,
					"inputs": [
						{
							"indexed": true,
							"internalType": "uint256",
							"name": "id",
							"type": "uint256"
						},
						{
							"indexed": true,
							"internalType": "address",
							"name": "executor",
							"type": "address"
						}
					],
					"name": "ProposalExecuted",
					"type": "event"
				},
				{
					"anonymous": false,
					"inputs": [
						{
							"indexed": true,
							"internalType": "uint256",
							"name": "id",
							"type": "uint256"
						},
						{
							"indexed": false,
							"internalType": "enum TimbGovernance.ProposalStatus",
							"name": "status",
							"type": "uint8"
						}
					],
					"name": "ProposalStatusUpdated",
					"type": "event"
				},
				{
					"anonymous": false,
					"inputs": [
						{
							"indexed": true,
							"internalType": "address",
							"name": "voter",
							"type": "address"
						},
						{
							"indexed": true,
							"internalType": "uint256",
							"name": "proposalId",
							"type": "uint256"
						},
						{
							"indexed": false,
							"internalType": "bool",
							"name": "support",
							"type": "bool"
						},
						{
							"indexed": false,
							"internalType": "uint256",
							"name": "votingPower",
							"type": "uint256"
						}
					],
					"name": "VoteCast",
					"type": "event"
				},
				{
					"anonymous": false,
					"inputs": [
						{
							"indexed": true,
							"internalType": "address",
							"name": "voter",
							"type": "address"
						},
						{
							"indexed": false,
							"internalType": "uint256",
							"name": "amount",
							"type": "uint256"
						}
					],
					"name": "VotingPowerDeposited",
					"type": "event"
				},
				{
					"anonymous": false,
					"inputs": [
						{
							"indexed": true,
							"internalType": "address",
							"name": "voter",
							"type": "address"
						},
						{
							"indexed": false,
							"internalType": "uint256",
							"name": "amount",
							"type": "uint256"
						}
					],
					"name": "VotingPowerWithdrawn",
					"type": "event"
				},
				{
					"inputs": [],
					"name": "EXECUTION_WINDOW",
					"outputs": [
						{
							"internalType": "uint256",
							"name": "",
							"type": "uint256"
						}
					],
					"stateMutability": "view",
					"type": "function"
				},
				{
					"inputs": [],
					"name": "MAX_VOTING_PERIOD",
					"outputs": [
						{
							"internalType": "uint256",
							"name": "",
							"type": "uint256"
						}
					],
					"stateMutability": "view",
					"type": "function"
				},
				{
					"inputs": [],
					"name": "MIN_VOTING_PERIOD",
					"outputs": [
						{
							"internalType": "uint256",
							"name": "",
							"type": "uint256"
						}
					],
					"stateMutability": "view",
					"type": "function"
				},
				{
					"inputs": [
						{
							"internalType": "uint256",
							"name": "proposalId",
							"type": "uint256"
						},
						{
							"internalType": "bool",
							"name": "support",
							"type": "bool"
						}
					],
					"name": "castVote",
					"outputs": [],
					"stateMutability": "nonpayable",
					"type": "function"
				},
				{
					"inputs": [
						{
							"internalType": "string",
							"name": "title",
							"type": "string"
						},
						{
							"internalType": "string",
							"name": "description",
							"type": "string"
						}
					],
					"name": "createProposal",
					"outputs": [
						{
							"internalType": "uint256",
							"name": "proposalId",
							"type": "uint256"
						}
					],
					"stateMutability": "nonpayable",
					"type": "function"
				},
				{
					"inputs": [
						{
							"internalType": "uint256",
							"name": "amount",
							"type": "uint256"
						}
					],
					"name": "depositVotingPower",
					"outputs": [],
					"stateMutability": "nonpayable",
					"type": "function"
				},
				{
					"inputs": [
						{
							"internalType": "uint256",
							"name": "proposalId",
							"type": "uint256"
						}
					],
					"name": "executeProposal",
					"outputs": [],
					"stateMutability": "nonpayable",
					"type": "function"
				},
				{
					"inputs": [
						{
							"internalType": "uint256",
							"name": "proposalId",
							"type": "uint256"
						}
					],
					"name": "getProposal",
					"outputs": [
						{
							"components": [
								{
									"internalType": "uint256",
									"name": "id",
									"type": "uint256"
								},
								{
									"internalType": "string",
									"name": "title",
									"type": "string"
								},
								{
									"internalType": "string",
									"name": "description",
									"type": "string"
								},
								{
									"internalType": "address",
									"name": "proposer",
									"type": "address"
								},
								{
									"internalType": "uint256",
									"name": "createdAt",
									"type": "uint256"
								},
								{
									"internalType": "uint256",
									"name": "votingStartsAt",
									"type": "uint256"
								},
								{
									"internalType": "uint256",
									"name": "votingEndsAt",
									"type": "uint256"
								},
								{
									"internalType": "uint256",
									"name": "executionDeadline",
									"type": "uint256"
								},
								{
									"internalType": "uint256",
									"name": "forVotes",
									"type": "uint256"
								},
								{
									"internalType": "uint256",
									"name": "againstVotes",
									"type": "uint256"
								},
								{
									"internalType": "uint256",
									"name": "totalVotingPower",
									"type": "uint256"
								},
								{
									"internalType": "enum TimbGovernance.ProposalStatus",
									"name": "status",
									"type": "uint8"
								},
								{
									"internalType": "bool",
									"name": "executed",
									"type": "bool"
								}
							],
							"internalType": "struct TimbGovernance.Proposal",
							"name": "p",
							"type": "tuple"
						},
						{
							"internalType": "enum TimbGovernance.ProposalStatus",
							"name": "liveStatus",
							"type": "uint8"
						}
					],
					"stateMutability": "view",
					"type": "function"
				},
				{
					"inputs": [
						{
							"internalType": "address",
							"name": "voter",
							"type": "address"
						}
					],
					"name": "getVotingPower",
					"outputs": [
						{
							"internalType": "uint256",
							"name": "",
							"type": "uint256"
						}
					],
					"stateMutability": "view",
					"type": "function"
				},
				{
					"inputs": [
						{
							"internalType": "address",
							"name": "",
							"type": "address"
						},
						{
							"internalType": "uint256",
							"name": "",
							"type": "uint256"
						}
					],
					"name": "hasVoted",
					"outputs": [
						{
							"internalType": "bool",
							"name": "",
							"type": "bool"
						}
					],
					"stateMutability": "view",
					"type": "function"
				},
				{
					"inputs": [],
					"name": "owner",
					"outputs": [
						{
							"internalType": "address",
							"name": "",
							"type": "address"
						}
					],
					"stateMutability": "view",
					"type": "function"
				},
				{
					"inputs": [],
					"name": "proposalCount",
					"outputs": [
						{
							"internalType": "uint256",
							"name": "",
							"type": "uint256"
						}
					],
					"stateMutability": "view",
					"type": "function"
				},
				{
					"inputs": [],
					"name": "proposalThreshold",
					"outputs": [
						{
							"internalType": "uint256",
							"name": "",
							"type": "uint256"
						}
					],
					"stateMutability": "view",
					"type": "function"
				},
				{
					"inputs": [
						{
							"internalType": "uint256",
							"name": "",
							"type": "uint256"
						}
					],
					"name": "proposals",
					"outputs": [
						{
							"internalType": "uint256",
							"name": "id",
							"type": "uint256"
						},
						{
							"internalType": "string",
							"name": "title",
							"type": "string"
						},
						{
							"internalType": "string",
							"name": "description",
							"type": "string"
						},
						{
							"internalType": "address",
							"name": "proposer",
							"type": "address"
						},
						{
							"internalType": "uint256",
							"name": "createdAt",
							"type": "uint256"
						},
						{
							"internalType": "uint256",
							"name": "votingStartsAt",
							"type": "uint256"
						},
						{
							"internalType": "uint256",
							"name": "votingEndsAt",
							"type": "uint256"
						},
						{
							"internalType": "uint256",
							"name": "executionDeadline",
							"type": "uint256"
						},
						{
							"internalType": "uint256",
							"name": "forVotes",
							"type": "uint256"
						},
						{
							"internalType": "uint256",
							"name": "againstVotes",
							"type": "uint256"
						},
						{
							"internalType": "uint256",
							"name": "totalVotingPower",
							"type": "uint256"
						},
						{
							"internalType": "enum TimbGovernance.ProposalStatus",
							"name": "status",
							"type": "uint8"
						},
						{
							"internalType": "bool",
							"name": "executed",
							"type": "bool"
						}
					],
					"stateMutability": "view",
					"type": "function"
				},
				{
					"inputs": [],
					"name": "quorumBps",
					"outputs": [
						{
							"internalType": "uint256",
							"name": "",
							"type": "uint256"
						}
					],
					"stateMutability": "view",
					"type": "function"
				},
				{
					"inputs": [
						{
							"internalType": "uint256",
							"name": "proposalId",
							"type": "uint256"
						}
					],
					"name": "quorumReached",
					"outputs": [
						{
							"internalType": "bool",
							"name": "",
							"type": "bool"
						}
					],
					"stateMutability": "view",
					"type": "function"
				},
				{
					"inputs": [],
					"name": "renounceOwnership",
					"outputs": [],
					"stateMutability": "nonpayable",
					"type": "function"
				},
				{
					"inputs": [
						{
							"internalType": "uint256",
							"name": "proposalId",
							"type": "uint256"
						}
					],
					"name": "resolveProposal",
					"outputs": [],
					"stateMutability": "nonpayable",
					"type": "function"
				},
				{
					"inputs": [
						{
							"internalType": "uint256",
							"name": "_threshold",
							"type": "uint256"
						}
					],
					"name": "setProposalThreshold",
					"outputs": [],
					"stateMutability": "nonpayable",
					"type": "function"
				},
				{
					"inputs": [
						{
							"internalType": "uint256",
							"name": "_bps",
							"type": "uint256"
						}
					],
					"name": "setQuorumBps",
					"outputs": [],
					"stateMutability": "nonpayable",
					"type": "function"
				},
				{
					"inputs": [
						{
							"internalType": "uint256",
							"name": "_delay",
							"type": "uint256"
						}
					],
					"name": "setVotingDelay",
					"outputs": [],
					"stateMutability": "nonpayable",
					"type": "function"
				},
				{
					"inputs": [
						{
							"internalType": "uint256",
							"name": "_period",
							"type": "uint256"
						}
					],
					"name": "setVotingPeriod",
					"outputs": [],
					"stateMutability": "nonpayable",
					"type": "function"
				},
				{
					"inputs": [],
					"name": "timbsToken",
					"outputs": [
						{
							"internalType": "contract IERC20",
							"name": "",
							"type": "address"
						}
					],
					"stateMutability": "view",
					"type": "function"
				},
				{
					"inputs": [],
					"name": "totalVotingPower",
					"outputs": [
						{
							"internalType": "uint256",
							"name": "",
							"type": "uint256"
						}
					],
					"stateMutability": "view",
					"type": "function"
				},
				{
					"inputs": [
						{
							"internalType": "address",
							"name": "newOwner",
							"type": "address"
						}
					],
					"name": "transferOwnership",
					"outputs": [],
					"stateMutability": "nonpayable",
					"type": "function"
				},
				{
					"inputs": [
						{
							"internalType": "address",
							"name": "",
							"type": "address"
						},
						{
							"internalType": "uint256",
							"name": "",
							"type": "uint256"
						}
					],
					"name": "voterParticipation",
					"outputs": [
						{
							"internalType": "uint256",
							"name": "",
							"type": "uint256"
						}
					],
					"stateMutability": "view",
					"type": "function"
				},
				{
					"inputs": [],
					"name": "votingDelay",
					"outputs": [
						{
							"internalType": "uint256",
							"name": "",
							"type": "uint256"
						}
					],
					"stateMutability": "view",
					"type": "function"
				},
				{
					"inputs": [],
					"name": "votingPeriod",
					"outputs": [
						{
							"internalType": "uint256",
							"name": "",
							"type": "uint256"
						}
					],
					"stateMutability": "view",
					"type": "function"
				},
				{
					"inputs": [
						{
							"internalType": "address",
							"name": "",
							"type": "address"
						}
					],
					"name": "votingPowerDeposited",
					"outputs": [
						{
							"internalType": "uint256",
							"name": "",
							"type": "uint256"
						}
					],
					"stateMutability": "view",
					"type": "function"
				},
				{
					"inputs": [
						{
							"internalType": "uint256",
							"name": "amount",
							"type": "uint256"
						}
					],
					"name": "withdrawVotingPower",
					"outputs": [],
					"stateMutability": "nonpayable",
					"type": "function"
				}
			],
			"devdoc": {
				"errors": {
					"OwnableInvalidOwner(address)": [
						{
							"details": "The owner is not a valid owner account. (eg. `address(0)`)"
						}
					],
					"OwnableUnauthorizedAccount(address)": [
						{
							"details": "The caller account is not authorized to perform an operation."
						}
					],
					"ReentrancyGuardReentrantCall()": [
						{
							"details": "Unauthorized reentrant call."
						}
					]
				},
				"kind": "dev",
				"methods": {
					"owner()": {
						"details": "Returns the address of the current owner."
					},
					"renounceOwnership()": {
						"details": "Leaves the contract without owner. It will not be possible to call `onlyOwner` functions. Can only be called by the current owner. NOTE: Renouncing ownership will leave the contract without an owner, thereby disabling any functionality that is only available to the owner."
					},
					"transferOwnership(address)": {
						"details": "Transfers ownership of the contract to a new account (`newOwner`). Can only be called by the current owner."
					}
				},
				"version": 1
			},
			"evm": {
				"assembly": "    /* \"contracts/TimbGovernance.sol\":228:10672  contract TimbGovernance is Ownable, ReentrancyGuard {... */\n  mstore(0x40, 0xa0)\n    /* \"contracts/TimbGovernance.sol\":2590:3242  constructor(... */\n  callvalue\n  dup1\n  iszero\n  tag_1\n  jumpi\n  0x00\n  dup1\n  revert\ntag_1:\n  pop\n  mload(0x40)\n  sub(codesize, bytecodeSize)\n  dup1\n  bytecodeSize\n  dup4\n  codecopy\n  dup2\n  add\n  0x40\n  dup2\n  swap1\n  mstore\n  tag_2\n  swap2\n  tag_3\n  jump\t// in\ntag_2:\n    /* \"contracts/TimbGovernance.sol\":2770:2780  msg.sender */\n  caller\n  dup1\n    /* \"@openzeppelin/contracts/access/Ownable.sol\":1269:1364  if (initialOwner == address(0)) {... */\n  tag_8\n  jumpi\n    /* \"@openzeppelin/contracts/access/Ownable.sol\":1322:1353  OwnableInvalidOwner(address(0)) */\n  mload(0x40)\n  shl(0xe0, 0x1e4fbdf7)\n  dup2\n  mstore\n    /* \"@openzeppelin/contracts/access/Ownable.sol\":1350:1351  0 */\n  0x00\n    /* \"@openzeppelin/contracts/access/Ownable.sol\":1322:1353  OwnableInvalidOwner(address(0)) */\n  0x04\n  dup3\n  add\n    /* \"#utility.yul\":701:752   */\n  mstore\n    /* \"#utility.yul\":674:692   */\n  0x24\n  add\n    /* \"@openzeppelin/contracts/access/Ownable.sol\":1322:1353  OwnableInvalidOwner(address(0)) */\n  mload(0x40)\n  dup1\n  swap2\n  sub\n  swap1\n  revert\n    /* \"@openzeppelin/contracts/access/Ownable.sol\":1269:1364  if (initialOwner == address(0)) {... */\ntag_8:\n    /* \"@openzeppelin/contracts/access/Ownable.sol\":1373:1405  _transferOwnership(initialOwner) */\n  tag_11\n    /* \"@openzeppelin/contracts/access/Ownable.sol\":1392:1404  initialOwner */\n  dup2\n    /* \"@openzeppelin/contracts/access/Ownable.sol\":1373:1391  _transferOwnership */\n  tag_12\n    /* \"@openzeppelin/contracts/access/Ownable.sol\":1373:1405  _transferOwnership(initialOwner) */\n  jump\t// in\ntag_11:\n  pop\n    /* \"@openzeppelin/contracts/utils/ReentrancyGuard.sol\":2365:2366  1 */\n  0x01\n    /* \"@openzeppelin/contracts/utils/ReentrancyGuard.sol\":1505:1571  0x9b779b17422d0df92223018b32b4d1fa46e071723d6817e2486d003becc55f00 */\n  0x9b779b17422d0df92223018b32b4d1fa46e071723d6817e2486d003becc55f00\n    /* \"@openzeppelin/contracts/utils/ReentrancyGuard.sol\":2539:2605  _reentrancyGuardStorageSlot().getUint256Slot().value = NOT_ENTERED */\n  sstore\n  sub(shl(0xa0, 0x01), 0x01)\n    /* \"contracts/TimbGovernance.sol\":2796:2821  _timbsToken == address(0) */\n  dup6\n  and\n    /* \"contracts/TimbGovernance.sol\":2792:2843  if (_timbsToken == address(0)) revert ZeroAddress() */\n  tag_19\n  jumpi\n    /* \"contracts/TimbGovernance.sol\":2830:2843  ZeroAddress() */\n  mload(0x40)\n  shl(0xe0, 0xd92e233d)\n  dup2\n  mstore\n  0x04\n  add\n  mload(0x40)\n  dup1\n  swap2\n  sub\n  swap1\n  revert\n    /* \"contracts/TimbGovernance.sol\":2792:2843  if (_timbsToken == address(0)) revert ZeroAddress() */\ntag_19:\n    /* \"contracts/TimbGovernance.sol\":912:918  1 days */\n  0x015180\n    /* \"contracts/TimbGovernance.sol\":2857:2870  _votingPeriod */\n  dup3\n    /* \"contracts/TimbGovernance.sol\":2857:2890  _votingPeriod < MIN_VOTING_PERIOD */\n  lt\n    /* \"contracts/TimbGovernance.sol\":2857:2927  _votingPeriod < MIN_VOTING_PERIOD || _votingPeriod > MAX_VOTING_PERIOD */\n  dup1\n  tag_20\n  jumpi\n  pop\n    /* \"contracts/TimbGovernance.sol\":855:862  30 days */\n  0x278d00\n    /* \"contracts/TimbGovernance.sol\":2894:2907  _votingPeriod */\n  dup3\n    /* \"contracts/TimbGovernance.sol\":2894:2927  _votingPeriod > MAX_VOTING_PERIOD */\n  gt\n    /* \"contracts/TimbGovernance.sol\":2857:2927  _votingPeriod < MIN_VOTING_PERIOD || _votingPeriod > MAX_VOTING_PERIOD */\ntag_20:\n    /* \"contracts/TimbGovernance.sol\":2853:2976  if (_votingPeriod < MIN_VOTING_PERIOD || _votingPeriod > MAX_VOTING_PERIOD) {... */\n  iszero\n  tag_21\n  jumpi\n    /* \"contracts/TimbGovernance.sol\":2950:2965  InvalidPeriod() */\n  mload(0x40)\n  shl(0xe3, 0x02e8f359)\n  dup2\n  mstore\n  0x04\n  add\n  mload(0x40)\n  dup1\n  swap2\n  sub\n  swap1\n  revert\n    /* \"contracts/TimbGovernance.sol\":2853:2976  if (_votingPeriod < MIN_VOTING_PERIOD || _votingPeriod > MAX_VOTING_PERIOD) {... */\ntag_21:\n    /* \"contracts/TimbGovernance.sol\":1022:1028  10_000 */\n  0x2710\n    /* \"contracts/TimbGovernance.sol\":2989:2999  _quorumBps */\n  dup4\n    /* \"contracts/TimbGovernance.sol\":2989:3017  _quorumBps > BPS_DENOMINATOR */\n  gt\n    /* \"contracts/TimbGovernance.sol\":2985:3038  if (_quorumBps > BPS_DENOMINATOR) revert InvalidBps() */\n  iszero\n  tag_22\n  jumpi\n    /* \"contracts/TimbGovernance.sol\":3026:3038  InvalidBps() */\n  mload(0x40)\n  shl(0xe0, 0xc6cc5d7f)\n  dup2\n  mstore\n  0x04\n  add\n  mload(0x40)\n  dup1\n  swap2\n  sub\n  swap1\n  revert\n    /* \"contracts/TimbGovernance.sol\":2985:3038  if (_quorumBps > BPS_DENOMINATOR) revert InvalidBps() */\ntag_22:\n  sub(shl(0xa0, 0x01), 0x01)\n    /* \"contracts/TimbGovernance.sol\":3049:3081  timbsToken = IERC20(_timbsToken) */\n  swap1\n  swap5\n  and\n  0x80\n  mstore\n    /* \"contracts/TimbGovernance.sol\":3091:3108  proposalThreshold */\n  0x01\n    /* \"contracts/TimbGovernance.sol\":3091:3129  proposalThreshold = _proposalThreshold */\n  swap3\n  swap1\n  swap3\n  sstore\n    /* \"contracts/TimbGovernance.sol\":3139:3148  quorumBps */\n  0x02\n    /* \"contracts/TimbGovernance.sol\":3139:3161  quorumBps = _quorumBps */\n  sstore\n    /* \"contracts/TimbGovernance.sol\":3171:3183  votingPeriod */\n  0x03\n    /* \"contracts/TimbGovernance.sol\":3171:3199  votingPeriod = _votingPeriod */\n  sstore\n    /* \"contracts/TimbGovernance.sol\":3209:3220  votingDelay */\n  0x04\n    /* \"contracts/TimbGovernance.sol\":3209:3235  votingDelay = _votingDelay */\n  sstore\n    /* \"contracts/TimbGovernance.sol\":228:10672  contract TimbGovernance is Ownable, ReentrancyGuard {... */\n  jump(tag_27)\n    /* \"@openzeppelin/contracts/access/Ownable.sol\":2912:3099  function _transferOwnership(address newOwner) internal virtual {... */\ntag_12:\n    /* \"@openzeppelin/contracts/access/Ownable.sol\":2985:3001  address oldOwner */\n  0x00\n    /* \"@openzeppelin/contracts/access/Ownable.sol\":3004:3010  _owner */\n  dup1\n  sload\n  sub(shl(0xa0, 0x01), 0x01)\n    /* \"@openzeppelin/contracts/access/Ownable.sol\":3020:3037  _owner = newOwner */\n  dup4\n  dup2\n  and\n  not(sub(shl(0xa0, 0x01), 0x01))\n  dup4\n  and\n  dup2\n  or\n  dup5\n  sstore\n    /* \"@openzeppelin/contracts/access/Ownable.sol\":3052:3092  OwnershipTransferred(oldOwner, newOwner) */\n  mload(0x40)\n    /* \"@openzeppelin/contracts/access/Ownable.sol\":3004:3010  _owner */\n  swap2\n  swap1\n  swap3\n  and\n  swap3\n  dup4\n  swap2\n    /* \"@openzeppelin/contracts/access/Ownable.sol\":3052:3092  OwnershipTransferred(oldOwner, newOwner) */\n  0x8be0079c531659141344cd1fd0a4f28419497f9722a3daafe3b4186f6b6457e0\n  swap2\n    /* \"@openzeppelin/contracts/access/Ownable.sol\":2985:3001  address oldOwner */\n  swap1\n    /* \"@openzeppelin/contracts/access/Ownable.sol\":3052:3092  OwnershipTransferred(oldOwner, newOwner) */\n  log3\n    /* \"@openzeppelin/contracts/access/Ownable.sol\":2975:3099  {... */\n  pop\n    /* \"@openzeppelin/contracts/access/Ownable.sol\":2912:3099  function _transferOwnership(address newOwner) internal virtual {... */\n  pop\n  jump\t// out\n    /* \"#utility.yul\":14:550   */\ntag_3:\n    /* \"#utility.yul\":120:126   */\n  0x00\n    /* \"#utility.yul\":128:134   */\n  dup1\n    /* \"#utility.yul\":136:142   */\n  0x00\n    /* \"#utility.yul\":144:150   */\n  dup1\n    /* \"#utility.yul\":152:158   */\n  0x00\n    /* \"#utility.yul\":205:208   */\n  0xa0\n    /* \"#utility.yul\":193:202   */\n  dup7\n    /* \"#utility.yul\":184:191   */\n  dup9\n    /* \"#utility.yul\":180:203   */\n  sub\n    /* \"#utility.yul\":176:209   */\n  slt\n    /* \"#utility.yul\":173:226   */\n  iszero\n  tag_29\n  jumpi\n    /* \"#utility.yul\":222:223   */\n  0x00\n    /* \"#utility.yul\":219:220   */\n  dup1\n    /* \"#utility.yul\":212:224   */\n  revert\n    /* \"#utility.yul\":173:226   */\ntag_29:\n    /* \"#utility.yul\":248:264   */\n  dup6\n  mload\n  sub(shl(0xa0, 0x01), 0x01)\n    /* \"#utility.yul\":293:324   */\n  dup2\n  and\n    /* \"#utility.yul\":283:325   */\n  dup2\n  eq\n    /* \"#utility.yul\":273:343   */\n  tag_30\n  jumpi\n    /* \"#utility.yul\":339:340   */\n  0x00\n    /* \"#utility.yul\":336:337   */\n  dup1\n    /* \"#utility.yul\":329:341   */\n  revert\n    /* \"#utility.yul\":273:343   */\ntag_30:\n    /* \"#utility.yul\":407:409   */\n  0x20\n    /* \"#utility.yul\":392:410   */\n  dup8\n  add\n    /* \"#utility.yul\":386:411   */\n  mload\n    /* \"#utility.yul\":451:453   */\n  0x40\n    /* \"#utility.yul\":436:454   */\n  dup9\n  add\n    /* \"#utility.yul\":430:455   */\n  mload\n    /* \"#utility.yul\":495:497   */\n  0x60\n    /* \"#utility.yul\":480:498   */\n  dup10\n  add\n    /* \"#utility.yul\":474:499   */\n  mload\n    /* \"#utility.yul\":539:542   */\n  0x80\n    /* \"#utility.yul\":524:543   */\n  swap1\n  swap10\n  add\n    /* \"#utility.yul\":518:544   */\n  mload\n    /* \"#utility.yul\":362:367   */\n  swap3\n  swap11\n    /* \"#utility.yul\":386:411   */\n  swap2\n  swap10\n  pop\n    /* \"#utility.yul\":430:455   */\n  swap8\n    /* \"#utility.yul\":474:499   */\n  swap7\n  pop\n    /* \"#utility.yul\":518:544   */\n  swap1\n  swap5\n  pop\n    /* \"#utility.yul\":14:550   */\n  swap3\n  pop\n  pop\n  pop\n  jump\t// out\n    /* \"#utility.yul\":555:758   */\ntag_27:\n    /* \"contracts/TimbGovernance.sol\":228:10672  contract TimbGovernance is Ownable, ReentrancyGuard {... */\n  mload(0x80)\n  codecopy(0x00, dataOffset(sub_0), dataSize(sub_0))\n  0x00\n  assignImmutable(\"0x5a93a2dc92091af230683d15d3257a435cf66aed689fda6017f4307513f6d5be\")\n  return(0x00, dataSize(sub_0))\nstop\n\nsub_0: assembly {\n        /* \"contracts/TimbGovernance.sol\":228:10672  contract TimbGovernance is Ownable, ReentrancyGuard {... */\n      mstore(0x40, 0x80)\n      callvalue\n      dup1\n      iszero\n      tag_1\n      jumpi\n      0x00\n      dup1\n      revert\n    tag_1:\n      pop\n      jumpi(tag_2, lt(calldatasize, 0x04))\n      shr(0xe0, calldataload(0x00))\n      dup1\n      0x8da5cb5b\n      gt\n      tag_33\n      jumpi\n      dup1\n      0xc7f758a8\n      gt\n      tag_34\n      jumpi\n      dup1\n      0xda35c664\n      gt\n      tag_35\n      jumpi\n      dup1\n      0xda35c664\n      eq\n      tag_29\n      jumpi\n      dup1\n      0xea0217cf\n      eq\n      tag_30\n      jumpi\n      dup1\n      0xece40cc1\n      eq\n      tag_31\n      jumpi\n      dup1\n      0xf2fde38b\n      eq\n      tag_32\n      jumpi\n      0x00\n      dup1\n      revert\n    tag_35:\n      dup1\n      0xc7f758a8\n      eq\n      tag_25\n      jumpi\n      dup1\n      0xcd01abdf\n      eq\n      tag_26\n      jumpi\n      dup1\n      0xcd2ddd0c\n      eq\n      tag_27\n      jumpi\n      dup1\n      0xd4a8dd98\n      eq\n      tag_28\n      jumpi\n      0x00\n      dup1\n      revert\n    tag_34:\n      dup1\n      0xa89a452d\n      gt\n      tag_36\n      jumpi\n      dup1\n      0xa89a452d\n      eq\n      tag_21\n      jumpi\n      dup1\n      0xb34aa3a9\n      eq\n      tag_22\n      jumpi\n      dup1\n      0xb58131b0\n      eq\n      tag_23\n      jumpi\n      dup1\n      0xbb4d4436\n      eq\n      tag_24\n      jumpi\n      0x00\n      dup1\n      revert\n    tag_36:\n      dup1\n      0x8da5cb5b\n      eq\n      tag_18\n      jumpi\n      dup1\n      0xa64e024a\n      eq\n      tag_19\n      jumpi\n      dup1\n      0xa815ca52\n      eq\n      tag_20\n      jumpi\n      0x00\n      dup1\n      revert\n    tag_33:\n      dup1\n      0x3932abb1\n      gt\n      tag_37\n      jumpi\n      dup1\n      0x65e481e2\n      gt\n      tag_38\n      jumpi\n      dup1\n      0x65e481e2\n      eq\n      tag_14\n      jumpi\n      dup1\n      0x671b3793\n      eq\n      tag_15\n      jumpi\n      dup1\n      0x70b0f660\n      eq\n      tag_16\n      jumpi\n      dup1\n      0x715018a6\n      eq\n      tag_17\n      jumpi\n      0x00\n      dup1\n      revert\n    tag_38:\n      dup1\n      0x3932abb1\n      eq\n      tag_10\n      jumpi\n      dup1\n      0x3e65164a\n      eq\n      tag_11\n      jumpi\n      dup1\n      0x41d5ce4a\n      eq\n      tag_12\n      jumpi\n      dup1\n      0x42545825\n      eq\n      tag_13\n      jumpi\n      0x00\n      dup1\n      revert\n    tag_37:\n      dup1\n      0x0d61b519\n      gt\n      tag_39\n      jumpi\n      dup1\n      0x0d61b519\n      eq\n      tag_6\n      jumpi\n      dup1\n      0x0e31648f\n      eq\n      tag_7\n      jumpi\n      dup1\n      0x15373e3d\n      eq\n      tag_8\n      jumpi\n      dup1\n      0x215809ca\n      eq\n      tag_9\n      jumpi\n      0x00\n      dup1\n      revert\n    tag_39:\n      dup1\n      0x62804e\n      eq\n      tag_3\n      jumpi\n      dup1\n      0x013cf08b\n      eq\n      tag_4\n      jumpi\n      dup1\n      0x02a251a3\n      eq\n      tag_5\n      jumpi\n    tag_2:\n      0x00\n      dup1\n      revert\n        /* \"contracts/TimbGovernance.sol\":6854:7443  function resolveProposal(uint256 proposalId) external {... */\n    tag_3:\n      tag_40\n      tag_41\n      calldatasize\n      0x04\n      tag_42\n      jump\t// in\n    tag_41:\n      tag_43\n      jump\t// in\n    tag_40:\n      stop\n        /* \"contracts/TimbGovernance.sol\":1243:1288  mapping(uint256 => Proposal) public proposals */\n    tag_4:\n      tag_44\n      tag_45\n      calldatasize\n      0x04\n      tag_42\n      jump\t// in\n    tag_45:\n      tag_46\n      jump\t// in\n    tag_44:\n      mload(0x40)\n      tag_47\n      swap14\n      swap13\n      swap12\n      swap11\n      swap10\n      swap9\n      swap8\n      swap7\n      swap6\n      swap5\n      swap4\n      swap3\n      swap2\n      swap1\n      tag_48\n      jump\t// in\n    tag_47:\n      mload(0x40)\n      dup1\n      swap2\n      sub\n      swap1\n      return\n        /* \"contracts/TimbGovernance.sol\":1143:1170  uint256 public votingPeriod */\n    tag_5:\n      tag_49\n      sload(0x03)\n      dup2\n      jump\n    tag_49:\n      mload(0x40)\n        /* \"#utility.yul\":2619:2644   */\n      swap1\n      dup2\n      mstore\n        /* \"#utility.yul\":2607:2609   */\n      0x20\n        /* \"#utility.yul\":2592:2610   */\n      add\n        /* \"contracts/TimbGovernance.sol\":1143:1170  uint256 public votingPeriod */\n      tag_47\n        /* \"#utility.yul\":2473:2650   */\n      jump\n        /* \"contracts/TimbGovernance.sol\":7449:8244  function executeProposal(uint256 proposalId) external nonReentrant onlyOwner {... */\n    tag_6:\n      tag_40\n      tag_54\n      calldatasize\n      0x04\n      tag_42\n      jump\t// in\n    tag_54:\n      tag_55\n      jump\t// in\n        /* \"contracts/TimbGovernance.sol\":1035:1069  IERC20 public immutable timbsToken */\n    tag_7:\n      tag_56\n      immutable(\"0x5a93a2dc92091af230683d15d3257a435cf66aed689fda6017f4307513f6d5be\")\n      dup2\n      jump\n    tag_56:\n      mload(0x40)\n      sub(shl(0xa0, 0x01), 0x01)\n        /* \"#utility.yul\":2833:2865   */\n      swap1\n      swap2\n      and\n        /* \"#utility.yul\":2815:2866   */\n      dup2\n      mstore\n        /* \"#utility.yul\":2803:2805   */\n      0x20\n        /* \"#utility.yul\":2788:2806   */\n      add\n        /* \"contracts/TimbGovernance.sol\":1035:1069  IERC20 public immutable timbsToken */\n      tag_47\n        /* \"#utility.yul\":2655:2872   */\n      jump\n        /* \"contracts/TimbGovernance.sol\":5872:6848  function castVote(uint256 proposalId, bool support) external nonReentrant {... */\n    tag_8:\n      tag_40\n      tag_61\n      calldatasize\n      0x04\n      tag_62\n      jump\t// in\n    tag_61:\n      tag_63\n      jump\t// in\n        /* \"contracts/TimbGovernance.sol\":868:918  uint256 public constant MIN_VOTING_PERIOD = 1 days */\n    tag_9:\n      tag_49\n        /* \"contracts/TimbGovernance.sol\":912:918  1 days */\n      0x015180\n        /* \"contracts/TimbGovernance.sol\":868:918  uint256 public constant MIN_VOTING_PERIOD = 1 days */\n      dup2\n      jump\n        /* \"contracts/TimbGovernance.sol\":1176:1202  uint256 public votingDelay */\n    tag_10:\n      tag_49\n      sload(0x04)\n      dup2\n      jump\n        /* \"contracts/TimbGovernance.sol\":924:973  uint256 public constant EXECUTION_WINDOW = 7 days */\n    tag_11:\n      tag_49\n        /* \"contracts/TimbGovernance.sol\":967:973  7 days */\n      0x093a80\n        /* \"contracts/TimbGovernance.sol\":924:973  uint256 public constant EXECUTION_WINDOW = 7 days */\n      dup2\n      jump\n        /* \"contracts/TimbGovernance.sol\":1458:1513  mapping(address => uint256[]) public voterParticipation */\n    tag_12:\n      tag_49\n      tag_74\n      calldatasize\n      0x04\n      tag_75\n      jump\t// in\n    tag_74:\n      tag_76\n      jump\t// in\n        /* \"contracts/TimbGovernance.sol\":1392:1452  mapping(address => mapping(uint256 => bool)) public hasVoted */\n    tag_13:\n      tag_78\n      tag_79\n      calldatasize\n      0x04\n      tag_75\n      jump\t// in\n    tag_79:\n      0x09\n      0x20\n      swap1\n      dup2\n      mstore\n      0x00\n      swap3\n      dup4\n      mstore\n      0x40\n      dup1\n      dup5\n      keccak256\n      swap1\n      swap2\n      mstore\n      swap1\n      dup3\n      mstore\n      swap1\n      keccak256\n      sload\n      0xff\n      and\n      dup2\n      jump\n    tag_78:\n      mload(0x40)\n        /* \"#utility.yul\":3916:3930   */\n      swap1\n      iszero\n        /* \"#utility.yul\":3909:3931   */\n      iszero\n        /* \"#utility.yul\":3891:3932   */\n      dup2\n      mstore\n        /* \"#utility.yul\":3879:3881   */\n      0x20\n        /* \"#utility.yul\":3864:3882   */\n      add\n        /* \"contracts/TimbGovernance.sol\":1392:1452  mapping(address => mapping(uint256 => bool)) public hasVoted */\n      tag_47\n        /* \"#utility.yul\":3751:3938   */\n      jump\n        /* \"contracts/TimbGovernance.sol\":4821:5866  function createProposal(... */\n    tag_14:\n      tag_49\n      tag_84\n      calldatasize\n      0x04\n      tag_85\n      jump\t// in\n    tag_84:\n      tag_86\n      jump\t// in\n        /* \"contracts/TimbGovernance.sol\":1355:1386  uint256 public totalVotingPower */\n    tag_15:\n      tag_49\n      sload(0x08)\n      dup2\n      jump\n        /* \"contracts/TimbGovernance.sol\":9823:9919  function setVotingDelay(uint256 _delay) external onlyOwner {... */\n    tag_16:\n      tag_40\n      tag_92\n      calldatasize\n      0x04\n      tag_42\n      jump\t// in\n    tag_92:\n      tag_93\n      jump\t// in\n        /* \"@openzeppelin/contracts/access/Ownable.sol\":2293:2394  function renounceOwnership() public virtual onlyOwner {... */\n    tag_17:\n      tag_40\n      tag_95\n      jump\t// in\n        /* \"@openzeppelin/contracts/access/Ownable.sol\":1638:1723  function owner() public view virtual returns (address) {... */\n    tag_18:\n        /* \"@openzeppelin/contracts/access/Ownable.sol\":1684:1691  address */\n      0x00\n        /* \"@openzeppelin/contracts/access/Ownable.sol\":1710:1716  _owner */\n      sload\n      sub(shl(0xa0, 0x01), 0x01)\n      and\n        /* \"@openzeppelin/contracts/access/Ownable.sol\":1638:1723  function owner() public view virtual returns (address) {... */\n      jump(tag_56)\n        /* \"contracts/TimbGovernance.sol\":811:862  uint256 public constant MAX_VOTING_PERIOD = 30 days */\n    tag_19:\n      tag_49\n        /* \"contracts/TimbGovernance.sol\":855:862  30 days */\n      0x278d00\n        /* \"contracts/TimbGovernance.sol\":811:862  uint256 public constant MAX_VOTING_PERIOD = 30 days */\n      dup2\n      jump\n        /* \"contracts/TimbGovernance.sol\":9470:9615  function setQuorumBps(uint256 _bps) external onlyOwner {... */\n    tag_20:\n      tag_40\n      tag_104\n      calldatasize\n      0x04\n      tag_42\n      jump\t// in\n    tag_104:\n      tag_105\n      jump\t// in\n        /* \"contracts/TimbGovernance.sol\":3584:4274  function withdrawVotingPower(uint256 amount) external nonReentrant {... */\n    tag_21:\n      tag_40\n      tag_107\n      calldatasize\n      0x04\n      tag_42\n      jump\t// in\n    tag_107:\n      tag_108\n      jump\t// in\n        /* \"contracts/TimbGovernance.sol\":3248:3578  function depositVotingPower(uint256 amount) external nonReentrant {... */\n    tag_22:\n      tag_40\n      tag_110\n      calldatasize\n      0x04\n      tag_42\n      jump\t// in\n    tag_110:\n      tag_111\n      jump\t// in\n        /* \"contracts/TimbGovernance.sol\":1075:1107  uint256 public proposalThreshold */\n    tag_23:\n      tag_49\n      sload(0x01)\n      dup2\n      jump\n        /* \"contracts/TimbGovernance.sol\":10186:10308  function getVotingPower(address voter) external view returns (uint256) {... */\n    tag_24:\n      tag_49\n      tag_116\n      calldatasize\n      0x04\n      tag_117\n      jump\t// in\n    tag_116:\n      sub(shl(0xa0, 0x01), 0x01)\n        /* \"contracts/TimbGovernance.sol\":10274:10301  votingPowerDeposited[voter] */\n      and\n        /* \"contracts/TimbGovernance.sol\":10248:10255  uint256 */\n      0x00\n        /* \"contracts/TimbGovernance.sol\":10274:10301  votingPowerDeposited[voter] */\n      swap1\n      dup2\n      mstore\n        /* \"contracts/TimbGovernance.sol\":10274:10294  votingPowerDeposited */\n      0x07\n        /* \"contracts/TimbGovernance.sol\":10274:10301  votingPowerDeposited[voter] */\n      0x20\n      mstore\n      0x40\n      swap1\n      keccak256\n      sload\n      swap1\n        /* \"contracts/TimbGovernance.sol\":10186:10308  function getVotingPower(address voter) external view returns (uint256) {... */\n      jump\n        /* \"contracts/TimbGovernance.sol\":9925:10180  function getProposal(uint256 proposalId)... */\n    tag_25:\n      tag_120\n      tag_121\n      calldatasize\n      0x04\n      tag_42\n      jump\t// in\n    tag_121:\n      tag_122\n      jump\t// in\n    tag_120:\n      mload(0x40)\n      tag_47\n      swap3\n      swap2\n      swap1\n      tag_124\n      jump\t// in\n        /* \"contracts/TimbGovernance.sol\":1294:1349  mapping(address => uint256) public votingPowerDeposited */\n    tag_26:\n      tag_49\n      tag_126\n      calldatasize\n      0x04\n      tag_117\n      jump\t// in\n    tag_126:\n      mstore(0x20, 0x07)\n      0x00\n      swap1\n      dup2\n      mstore\n      0x40\n      swap1\n      keccak256\n      sload\n      dup2\n      jump\n        /* \"contracts/TimbGovernance.sol\":1113:1137  uint256 public quorumBps */\n    tag_27:\n      tag_49\n      sload(0x02)\n      dup2\n      jump\n        /* \"contracts/TimbGovernance.sol\":10314:10670  function quorumReached(uint256 proposalId) external view returns (bool) {... */\n    tag_28:\n      tag_78\n      tag_133\n      calldatasize\n      0x04\n      tag_42\n      jump\t// in\n    tag_133:\n      tag_134\n      jump\t// in\n        /* \"contracts/TimbGovernance.sol\":1208:1236  uint256 public proposalCount */\n    tag_29:\n      tag_49\n      sload(0x05)\n      dup2\n      jump\n        /* \"contracts/TimbGovernance.sol\":9621:9817  function setVotingPeriod(uint256 _period) external onlyOwner {... */\n    tag_30:\n      tag_40\n      tag_140\n      calldatasize\n      0x04\n      tag_42\n      jump\t// in\n    tag_140:\n      tag_141\n      jump\t// in\n        /* \"contracts/TimbGovernance.sol\":9348:9464  function setProposalThreshold(uint256 _threshold) external onlyOwner {... */\n    tag_31:\n      tag_40\n      tag_143\n      calldatasize\n      0x04\n      tag_42\n      jump\t// in\n    tag_143:\n      tag_144\n      jump\t// in\n        /* \"@openzeppelin/contracts/access/Ownable.sol\":2543:2758  function transferOwnership(address newOwner) public virtual onlyOwner {... */\n    tag_32:\n      tag_40\n      tag_146\n      calldatasize\n      0x04\n      tag_117\n      jump\t// in\n    tag_146:\n      tag_147\n      jump\t// in\n        /* \"contracts/TimbGovernance.sol\":6854:7443  function resolveProposal(uint256 proposalId) external {... */\n    tag_43:\n        /* \"contracts/TimbGovernance.sol\":6918:6936  Proposal storage p */\n      0x00\n        /* \"contracts/TimbGovernance.sol\":6939:6960  proposals[proposalId] */\n      dup2\n      dup2\n      mstore\n        /* \"contracts/TimbGovernance.sol\":6939:6948  proposals */\n      0x06\n        /* \"contracts/TimbGovernance.sol\":6939:6960  proposals[proposalId] */\n      0x20\n      mstore\n      0x40\n      dup2\n      keccak256\n        /* \"contracts/TimbGovernance.sol\":6974:6978  p.id */\n      dup1\n      sload\n        /* \"contracts/TimbGovernance.sol\":6939:6960  proposals[proposalId] */\n      swap1\n      swap2\n        /* \"contracts/TimbGovernance.sol\":6974:6983  p.id == 0 */\n      sub\n        /* \"contracts/TimbGovernance.sol\":6970:7010  if (p.id == 0) revert ProposalNotFound() */\n      tag_149\n      jumpi\n        /* \"contracts/TimbGovernance.sol\":6992:7010  ProposalNotFound() */\n      mload(0x40)\n      shl(0xe0, 0x635e8737)\n      dup2\n      mstore\n      0x04\n      add\n      mload(0x40)\n      dup1\n      swap2\n      sub\n      swap1\n      revert\n        /* \"contracts/TimbGovernance.sol\":6970:7010  if (p.id == 0) revert ProposalNotFound() */\n    tag_149:\n        /* \"contracts/TimbGovernance.sol\":7043:7044  p */\n      dup1\n        /* \"contracts/TimbGovernance.sol\":7043:7057  p.votingEndsAt */\n      0x06\n      add\n      sload\n        /* \"contracts/TimbGovernance.sol\":7024:7039  block.timestamp */\n      timestamp\n        /* \"contracts/TimbGovernance.sol\":7024:7057  block.timestamp <= p.votingEndsAt */\n      gt\n        /* \"contracts/TimbGovernance.sol\":7020:7093  if (block.timestamp <= p.votingEndsAt) revert VotingEnded(p.votingEndsAt) */\n      tag_150\n      jumpi\n        /* \"contracts/TimbGovernance.sol\":7078:7079  p */\n      dup1\n        /* \"contracts/TimbGovernance.sol\":7078:7092  p.votingEndsAt */\n      0x06\n      add\n      sload\n        /* \"contracts/TimbGovernance.sol\":7066:7093  VotingEnded(p.votingEndsAt) */\n      mload(0x40)\n      shl(0xe0, 0x81eb7415)\n      dup2\n      mstore\n      0x04\n      add\n      tag_151\n      swap2\n        /* \"#utility.yul\":2619:2644   */\n      dup2\n      mstore\n        /* \"#utility.yul\":2607:2609   */\n      0x20\n        /* \"#utility.yul\":2592:2610   */\n      add\n      swap1\n        /* \"#utility.yul\":2473:2650   */\n      jump\n        /* \"contracts/TimbGovernance.sol\":7066:7093  VotingEnded(p.votingEndsAt) */\n    tag_151:\n      mload(0x40)\n      dup1\n      swap2\n      sub\n      swap1\n      revert\n        /* \"contracts/TimbGovernance.sol\":7020:7093  if (block.timestamp <= p.votingEndsAt) revert VotingEnded(p.votingEndsAt) */\n    tag_150:\n        /* \"contracts/TimbGovernance.sol\":7135:7143  p.status */\n      0x0b\n      dup2\n      add\n      sload\n      0xff\n      and\n        /* \"contracts/TimbGovernance.sol\":7174:7197  ProposalStatus.Executed */\n      0x04\n        /* \"contracts/TimbGovernance.sol\":7157:7170  currentStatus */\n      dup2\n        /* \"contracts/TimbGovernance.sol\":7157:7197  currentStatus == ProposalStatus.Executed */\n      0x05\n      dup2\n      gt\n      iszero\n      tag_156\n      jumpi\n      tag_156\n      tag_154\n      jump\t// in\n    tag_156:\n      eq\n        /* \"contracts/TimbGovernance.sol\":7157:7251  currentStatus == ProposalStatus.Executed ||... */\n      dup1\n      tag_157\n      jumpi\n      pop\n        /* \"contracts/TimbGovernance.sol\":7230:7251  ProposalStatus.Failed */\n      0x03\n        /* \"contracts/TimbGovernance.sol\":7213:7226  currentStatus */\n      dup2\n        /* \"contracts/TimbGovernance.sol\":7213:7251  currentStatus == ProposalStatus.Failed */\n      0x05\n      dup2\n      gt\n      iszero\n      tag_161\n      jumpi\n      tag_161\n      tag_154\n      jump\t// in\n    tag_161:\n      eq\n        /* \"contracts/TimbGovernance.sol\":7157:7251  currentStatus == ProposalStatus.Executed ||... */\n    tag_157:\n        /* \"contracts/TimbGovernance.sol\":7157:7306  currentStatus == ProposalStatus.Executed ||... */\n      dup1\n      tag_162\n      jumpi\n      pop\n        /* \"contracts/TimbGovernance.sol\":7284:7306  ProposalStatus.Expired */\n      0x05\n        /* \"contracts/TimbGovernance.sol\":7267:7280  currentStatus */\n      dup2\n        /* \"contracts/TimbGovernance.sol\":7267:7306  currentStatus == ProposalStatus.Expired */\n      0x05\n      dup2\n      gt\n      iszero\n      tag_166\n      jumpi\n      tag_166\n      tag_154\n      jump\t// in\n    tag_166:\n      eq\n        /* \"contracts/TimbGovernance.sol\":7157:7306  currentStatus == ProposalStatus.Executed ||... */\n    tag_162:\n        /* \"contracts/TimbGovernance.sol\":7153:7339  if (currentStatus == ProposalStatus.Executed ||... */\n      iszero\n      tag_167\n      jumpi\n        /* \"contracts/TimbGovernance.sol\":7322:7329  return; */\n      pop\n      pop\n        /* \"contracts/TimbGovernance.sol\":6854:7443  function resolveProposal(uint256 proposalId) external {... */\n      pop\n      jump\t// out\n        /* \"contracts/TimbGovernance.sol\":7153:7339  if (currentStatus == ProposalStatus.Executed ||... */\n    tag_167:\n        /* \"contracts/TimbGovernance.sol\":7360:7378  _computeOutcome(p) */\n      tag_168\n        /* \"contracts/TimbGovernance.sol\":7376:7377  p */\n      dup3\n        /* \"contracts/TimbGovernance.sol\":7360:7378  _computeOutcome(p) */\n      mload(0x40)\n      dup1\n      0x01a0\n      add\n      0x40\n      mstore\n      swap1\n      dup2\n      0x00\n      dup3\n      add\n      sload\n      dup2\n      mstore\n      0x20\n      add\n      0x01\n      dup3\n      add\n      dup1\n      sload\n      tag_169\n      swap1\n      tag_170\n      jump\t// in\n    tag_169:\n      dup1\n      0x1f\n      add\n      0x20\n      dup1\n      swap2\n      div\n      mul\n      0x20\n      add\n      mload(0x40)\n      swap1\n      dup2\n      add\n      0x40\n      mstore\n      dup1\n      swap3\n      swap2\n      swap1\n      dup2\n      dup2\n      mstore\n      0x20\n      add\n      dup3\n      dup1\n      sload\n      tag_171\n      swap1\n      tag_170\n      jump\t// in\n    tag_171:\n      dup1\n      iszero\n      tag_172\n      jumpi\n      dup1\n      0x1f\n      lt\n      tag_173\n      jumpi\n      0x0100\n      dup1\n      dup4\n      sload\n      div\n      mul\n      dup4\n      mstore\n      swap2\n      0x20\n      add\n      swap2\n      jump(tag_172)\n    tag_173:\n      dup3\n      add\n      swap2\n      swap1\n      0x00\n      mstore\n      keccak256(0x00, 0x20)\n      swap1\n    tag_174:\n      dup2\n      sload\n      dup2\n      mstore\n      swap1\n      0x01\n      add\n      swap1\n      0x20\n      add\n      dup1\n      dup4\n      gt\n      tag_174\n      jumpi\n      dup3\n      swap1\n      sub\n      0x1f\n      and\n      dup3\n      add\n      swap2\n    tag_172:\n      pop\n      pop\n      pop\n      pop\n      pop\n      dup2\n      mstore\n      0x20\n      add\n      0x02\n      dup3\n      add\n      dup1\n      sload\n      tag_175\n      swap1\n      tag_170\n      jump\t// in\n    tag_175:\n      dup1\n      0x1f\n      add\n      0x20\n      dup1\n      swap2\n      div\n      mul\n      0x20\n      add\n      mload(0x40)\n      swap1\n      dup2\n      add\n      0x40\n      mstore\n      dup1\n      swap3\n      swap2\n      swap1\n      dup2\n      dup2\n      mstore\n      0x20\n      add\n      dup3\n      dup1\n      sload\n      tag_176\n      swap1\n      tag_170\n      jump\t// in\n    tag_176:\n      dup1\n      iszero\n      tag_177\n      jumpi\n      dup1\n      0x1f\n      lt\n      tag_178\n      jumpi\n      0x0100\n      dup1\n      dup4\n      sload\n      div\n      mul\n      dup4\n      mstore\n      swap2\n      0x20\n      add\n      swap2\n      jump(tag_177)\n    tag_178:\n      dup3\n      add\n      swap2\n      swap1\n      0x00\n      mstore\n      keccak256(0x00, 0x20)\n      swap1\n    tag_179:\n      dup2\n      sload\n      dup2\n      mstore\n      swap1\n      0x01\n      add\n      swap1\n      0x20\n      add\n      dup1\n      dup4\n      gt\n      tag_179\n      jumpi\n      dup3\n      swap1\n      sub\n      0x1f\n      and\n      dup3\n      add\n      swap2\n    tag_177:\n      pop\n      pop\n      pop\n      swap2\n      dup4\n      mstore\n      pop\n      pop\n      0x03\n      dup3\n      add\n      sload\n      sub(shl(0xa0, 0x01), 0x01)\n      and\n      0x20\n      dup3\n      add\n      mstore\n      0x04\n      dup3\n      add\n      sload\n      0x40\n      dup3\n      add\n      mstore\n      0x05\n      dup1\n      dup4\n      add\n      sload\n      0x60\n      dup4\n      add\n      mstore\n      0x06\n      dup4\n      add\n      sload\n      0x80\n      dup4\n      add\n      mstore\n      0x07\n      dup4\n      add\n      sload\n      0xa0\n      dup4\n      add\n      mstore\n      0x08\n      dup4\n      add\n      sload\n      0xc0\n      dup4\n      add\n      mstore\n      0x09\n      dup4\n      add\n      sload\n      0xe0\n      dup4\n      add\n      mstore\n      0x0a\n      dup4\n      add\n      sload\n      0x0100\n      dup4\n      add\n      mstore\n      0x0b\n      dup4\n      add\n      sload\n      0x0120\n      swap1\n      swap3\n      add\n      swap2\n      0xff\n      and\n      swap1\n      dup2\n      gt\n      iszero\n      tag_181\n      jumpi\n      tag_181\n      tag_154\n      jump\t// in\n    tag_181:\n      0x05\n      dup2\n      gt\n      iszero\n      tag_183\n      jumpi\n      tag_183\n      tag_154\n      jump\t// in\n    tag_183:\n      dup2\n      mstore\n      0x0b\n      swap2\n      swap1\n      swap2\n      add\n      sload\n      0x0100\n      swap1\n      div\n      0xff\n      and\n      iszero\n      iszero\n      0x20\n      swap1\n      swap2\n      add\n      mstore\n        /* \"contracts/TimbGovernance.sol\":7360:7375  _computeOutcome */\n      tag_184\n        /* \"contracts/TimbGovernance.sol\":7360:7378  _computeOutcome(p) */\n      jump\t// in\n    tag_168:\n        /* \"contracts/TimbGovernance.sol\":7349:7357  p.status */\n      0x0b\n      dup4\n      add\n        /* \"contracts/TimbGovernance.sol\":7349:7378  p.status = _computeOutcome(p) */\n      dup1\n      sload\n      not(0xff)\n      and\n      0x01\n      dup4\n      0x05\n      dup2\n      gt\n      iszero\n      tag_186\n      jumpi\n      tag_186\n      tag_154\n      jump\t// in\n    tag_186:\n      mul\n      or\n      swap1\n      sstore\n      pop\n        /* \"contracts/TimbGovernance.sol\":7427:7435  p.status */\n      0x0b\n      dup3\n      add\n      sload\n        /* \"contracts/TimbGovernance.sol\":7393:7436  ProposalStatusUpdated(proposalId, p.status) */\n      mload(0x40)\n        /* \"contracts/TimbGovernance.sol\":7415:7425  proposalId */\n      dup5\n      swap2\n      0x00\n      dup1\n      mload\n      0x20\n      data_9dc46509c52525a6339f399907f61b3180b3a05702a403d62c3da3ccaed2ae11\n      dup4\n      codecopy\n      dup2\n      mload\n      swap2\n      mstore\n        /* \"contracts/TimbGovernance.sol\":7393:7436  ProposalStatusUpdated(proposalId, p.status) */\n      swap2\n      tag_187\n      swap2\n        /* \"contracts/TimbGovernance.sol\":7427:7435  p.status */\n      0xff\n      and\n      swap1\n        /* \"contracts/TimbGovernance.sol\":7393:7436  ProposalStatusUpdated(proposalId, p.status) */\n      tag_188\n      jump\t// in\n    tag_187:\n      mload(0x40)\n      dup1\n      swap2\n      sub\n      swap1\n      log2\n        /* \"contracts/TimbGovernance.sol\":6908:7443  {... */\n      pop\n      pop\n        /* \"contracts/TimbGovernance.sol\":6854:7443  function resolveProposal(uint256 proposalId) external {... */\n      pop\n      jump\t// out\n        /* \"contracts/TimbGovernance.sol\":1243:1288  mapping(uint256 => Proposal) public proposals */\n    tag_46:\n      mstore(0x20, 0x06)\n      0x00\n      swap1\n      dup2\n      mstore\n      0x40\n      swap1\n      keccak256\n      dup1\n      sload\n      0x01\n      dup3\n      add\n      dup1\n      sload\n      swap2\n      swap3\n      swap2\n      tag_189\n      swap1\n      tag_170\n      jump\t// in\n    tag_189:\n      dup1\n      0x1f\n      add\n      0x20\n      dup1\n      swap2\n      div\n      mul\n      0x20\n      add\n      mload(0x40)\n      swap1\n      dup2\n      add\n      0x40\n      mstore\n      dup1\n      swap3\n      swap2\n      swap1\n      dup2\n      dup2\n      mstore\n      0x20\n      add\n      dup3\n      dup1\n      sload\n      tag_190\n      swap1\n      tag_170\n      jump\t// in\n    tag_190:\n      dup1\n      iszero\n      tag_191\n      jumpi\n      dup1\n      0x1f\n      lt\n      tag_192\n      jumpi\n      0x0100\n      dup1\n      dup4\n      sload\n      div\n      mul\n      dup4\n      mstore\n      swap2\n      0x20\n      add\n      swap2\n      jump(tag_191)\n    tag_192:\n      dup3\n      add\n      swap2\n      swap1\n      0x00\n      mstore\n      keccak256(0x00, 0x20)\n      swap1\n    tag_193:\n      dup2\n      sload\n      dup2\n      mstore\n      swap1\n      0x01\n      add\n      swap1\n      0x20\n      add\n      dup1\n      dup4\n      gt\n      tag_193\n      jumpi\n      dup3\n      swap1\n      sub\n      0x1f\n      and\n      dup3\n      add\n      swap2\n    tag_191:\n      pop\n      pop\n      pop\n      pop\n      pop\n      swap1\n      dup1\n      0x02\n      add\n      dup1\n      sload\n      tag_194\n      swap1\n      tag_170\n      jump\t// in\n    tag_194:\n      dup1\n      0x1f\n      add\n      0x20\n      dup1\n      swap2\n      div\n      mul\n      0x20\n      add\n      mload(0x40)\n      swap1\n      dup2\n      add\n      0x40\n      mstore\n      dup1\n      swap3\n      swap2\n      swap1\n      dup2\n      dup2\n      mstore\n      0x20\n      add\n      dup3\n      dup1\n      sload\n      tag_195\n      swap1\n      tag_170\n      jump\t// in\n    tag_195:\n      dup1\n      iszero\n      tag_196\n      jumpi\n      dup1\n      0x1f\n      lt\n      tag_197\n      jumpi\n      0x0100\n      dup1\n      dup4\n      sload\n      div\n      mul\n      dup4\n      mstore\n      swap2\n      0x20\n      add\n      swap2\n      jump(tag_196)\n    tag_197:\n      dup3\n      add\n      swap2\n      swap1\n      0x00\n      mstore\n      keccak256(0x00, 0x20)\n      swap1\n    tag_198:\n      dup2\n      sload\n      dup2\n      mstore\n      swap1\n      0x01\n      add\n      swap1\n      0x20\n      add\n      dup1\n      dup4\n      gt\n      tag_198\n      jumpi\n      dup3\n      swap1\n      sub\n      0x1f\n      and\n      dup3\n      add\n      swap2\n    tag_196:\n      pop\n      pop\n      pop\n      0x03\n      dup5\n      add\n      sload\n      0x04\n      dup6\n      add\n      sload\n      0x05\n      dup7\n      add\n      sload\n      0x06\n      dup8\n      add\n      sload\n      0x07\n      dup9\n      add\n      sload\n      0x08\n      dup10\n      add\n      sload\n      0x09\n      dup11\n      add\n      sload\n      0x0a\n      dup12\n      add\n      sload\n      0x0b\n      swap1\n      swap12\n      add\n      sload\n      swap10\n      swap11\n      sub(shl(0xa0, 0x01), 0x01)\n      swap1\n      swap8\n      and\n      swap10\n      swap6\n      swap9\n      pop\n      swap4\n      swap7\n      pop\n      swap2\n      swap5\n      swap1\n      swap4\n      swap2\n      swap3\n      swap2\n      0xff\n      dup1\n      dup3\n      and\n      swap2\n      0x0100\n      swap1\n      div\n      and\n      dup14\n      jump\t// out\n        /* \"contracts/TimbGovernance.sol\":7449:8244  function executeProposal(uint256 proposalId) external nonReentrant onlyOwner {... */\n    tag_55:\n        /* \"@openzeppelin/contracts/utils/ReentrancyGuard.sol\":3023:3044  _nonReentrantBefore() */\n      tag_200\n        /* \"@openzeppelin/contracts/utils/ReentrancyGuard.sol\":3023:3042  _nonReentrantBefore */\n      tag_201\n        /* \"@openzeppelin/contracts/utils/ReentrancyGuard.sol\":3023:3044  _nonReentrantBefore() */\n      jump\t// in\n    tag_200:\n        /* \"@openzeppelin/contracts/access/Ownable.sol\":1531:1544  _checkOwner() */\n      tag_203\n        /* \"@openzeppelin/contracts/access/Ownable.sol\":1531:1542  _checkOwner */\n      tag_204\n        /* \"@openzeppelin/contracts/access/Ownable.sol\":1531:1544  _checkOwner() */\n      jump\t// in\n    tag_203:\n        /* \"contracts/TimbGovernance.sol\":7536:7554  Proposal storage p */\n      0x00\n        /* \"contracts/TimbGovernance.sol\":7557:7578  proposals[proposalId] */\n      dup2\n      dup2\n      mstore\n        /* \"contracts/TimbGovernance.sol\":7557:7566  proposals */\n      0x06\n        /* \"contracts/TimbGovernance.sol\":7557:7578  proposals[proposalId] */\n      0x20\n      mstore\n      0x40\n      dup2\n      keccak256\n        /* \"contracts/TimbGovernance.sol\":7592:7596  p.id */\n      dup1\n      sload\n        /* \"contracts/TimbGovernance.sol\":7557:7578  proposals[proposalId] */\n      swap1\n      swap2\n        /* \"contracts/TimbGovernance.sol\":7592:7601  p.id == 0 */\n      sub\n        /* \"contracts/TimbGovernance.sol\":7588:7628  if (p.id == 0) revert ProposalNotFound() */\n      tag_206\n      jumpi\n        /* \"contracts/TimbGovernance.sol\":7610:7628  ProposalNotFound() */\n      mload(0x40)\n      shl(0xe0, 0x635e8737)\n      dup2\n      mstore\n      0x04\n      add\n      mload(0x40)\n      dup1\n      swap2\n      sub\n      swap1\n      revert\n        /* \"contracts/TimbGovernance.sol\":7588:7628  if (p.id == 0) revert ProposalNotFound() */\n    tag_206:\n        /* \"contracts/TimbGovernance.sol\":7642:7652  p.executed */\n      0x0b\n      dup2\n      add\n      sload\n      0x0100\n      swap1\n      div\n      0xff\n      and\n        /* \"contracts/TimbGovernance.sol\":7638:7678  if (p.executed) revert AlreadyExecuted() */\n      iszero\n      tag_207\n      jumpi\n        /* \"contracts/TimbGovernance.sol\":7661:7678  AlreadyExecuted() */\n      mload(0x40)\n      shl(0xe0, 0x0dc10197)\n      dup2\n      mstore\n      0x04\n      add\n      mload(0x40)\n      dup1\n      swap2\n      sub\n      swap1\n      revert\n        /* \"contracts/TimbGovernance.sol\":7638:7678  if (p.executed) revert AlreadyExecuted() */\n    tag_207:\n        /* \"contracts/TimbGovernance.sol\":7689:7711  ProposalStatus current */\n      0x00\n        /* \"contracts/TimbGovernance.sol\":7714:7732  _resolvedStatus(p) */\n      tag_208\n        /* \"contracts/TimbGovernance.sol\":7730:7731  p */\n      dup3\n        /* \"contracts/TimbGovernance.sol\":7714:7732  _resolvedStatus(p) */\n      mload(0x40)\n      dup1\n      0x01a0\n      add\n      0x40\n      mstore\n      swap1\n      dup2\n      0x00\n      dup3\n      add\n      sload\n      dup2\n      mstore\n      0x20\n      add\n      0x01\n      dup3\n      add\n      dup1\n      sload\n      tag_209\n      swap1\n      tag_170\n      jump\t// in\n    tag_209:\n      dup1\n      0x1f\n      add\n      0x20\n      dup1\n      swap2\n      div\n      mul\n      0x20\n      add\n      mload(0x40)\n      swap1\n      dup2\n      add\n      0x40\n      mstore\n      dup1\n      swap3\n      swap2\n      swap1\n      dup2\n      dup2\n      mstore\n      0x20\n      add\n      dup3\n      dup1\n      sload\n      tag_210\n      swap1\n      tag_170\n      jump\t// in\n    tag_210:\n      dup1\n      iszero\n      tag_211\n      jumpi\n      dup1\n      0x1f\n      lt\n      tag_212\n      jumpi\n      0x0100\n      dup1\n      dup4\n      sload\n      div\n      mul\n      dup4\n      mstore\n      swap2\n      0x20\n      add\n      swap2\n      jump(tag_211)\n    tag_212:\n      dup3\n      add\n      swap2\n      swap1\n      0x00\n      mstore\n      keccak256(0x00, 0x20)\n      swap1\n    tag_213:\n      dup2\n      sload\n      dup2\n      mstore\n      swap1\n      0x01\n      add\n      swap1\n      0x20\n      add\n      dup1\n      dup4\n      gt\n      tag_213\n      jumpi\n      dup3\n      swap1\n      sub\n      0x1f\n      and\n      dup3\n      add\n      swap2\n    tag_211:\n      pop\n      pop\n      pop\n      pop\n      pop\n      dup2\n      mstore\n      0x20\n      add\n      0x02\n      dup3\n      add\n      dup1\n      sload\n      tag_214\n      swap1\n      tag_170\n      jump\t// in\n    tag_214:\n      dup1\n      0x1f\n      add\n      0x20\n      dup1\n      swap2\n      div\n      mul\n      0x20\n      add\n      mload(0x40)\n      swap1\n      dup2\n      add\n      0x40\n      mstore\n      dup1\n      swap3\n      swap2\n      swap1\n      dup2\n      dup2\n      mstore\n      0x20\n      add\n      dup3\n      dup1\n      sload\n      tag_215\n      swap1\n      tag_170\n      jump\t// in\n    tag_215:\n      dup1\n      iszero\n      tag_216\n      jumpi\n      dup1\n      0x1f\n      lt\n      tag_217\n      jumpi\n      0x0100\n      dup1\n      dup4\n      sload\n      div\n      mul\n      dup4\n      mstore\n      swap2\n      0x20\n      add\n      swap2\n      jump(tag_216)\n    tag_217:\n      dup3\n      add\n      swap2\n      swap1\n      0x00\n      mstore\n      keccak256(0x00, 0x20)\n      swap1\n    tag_218:\n      dup2\n      sload\n      dup2\n      mstore\n      swap1\n      0x01\n      add\n      swap1\n      0x20\n      add\n      dup1\n      dup4\n      gt\n      tag_218\n      jumpi\n      dup3\n      swap1\n      sub\n      0x1f\n      and\n      dup3\n      add\n      swap2\n    tag_216:\n      pop\n      pop\n      pop\n      swap2\n      dup4\n      mstore\n      pop\n      pop\n      0x03\n      dup3\n      add\n      sload\n      sub(shl(0xa0, 0x01), 0x01)\n      and\n      0x20\n      dup3\n      add\n      mstore\n      0x04\n      dup3\n      add\n      sload\n      0x40\n      dup3\n      add\n      mstore\n      0x05\n      dup1\n      dup4\n      add\n      sload\n      0x60\n      dup4\n      add\n      mstore\n      0x06\n      dup4\n      add\n      sload\n      0x80\n      dup4\n      add\n      mstore\n      0x07\n      dup4\n      add\n      sload\n      0xa0\n      dup4\n      add\n      mstore\n      0x08\n      dup4\n      add\n      sload\n      0xc0\n      dup4\n      add\n      mstore\n      0x09\n      dup4\n      add\n      sload\n      0xe0\n      dup4\n      add\n      mstore\n      0x0a\n      dup4\n      add\n      sload\n      0x0100\n      dup4\n      add\n      mstore\n      0x0b\n      dup4\n      add\n      sload\n      0x0120\n      swap1\n      swap3\n      add\n      swap2\n      0xff\n      and\n      swap1\n      dup2\n      gt\n      iszero\n      tag_220\n      jumpi\n      tag_220\n      tag_154\n      jump\t// in\n    tag_220:\n      0x05\n      dup2\n      gt\n      iszero\n      tag_222\n      jumpi\n      tag_222\n      tag_154\n      jump\t// in\n    tag_222:\n      dup2\n      mstore\n      0x0b\n      swap2\n      swap1\n      swap2\n      add\n      sload\n      0x0100\n      swap1\n      div\n      0xff\n      and\n      iszero\n      iszero\n      0x20\n      swap1\n      swap2\n      add\n      mstore\n        /* \"contracts/TimbGovernance.sol\":7714:7729  _resolvedStatus */\n      tag_223\n        /* \"contracts/TimbGovernance.sol\":7714:7732  _resolvedStatus(p) */\n      jump\t// in\n    tag_208:\n        /* \"contracts/TimbGovernance.sol\":7689:7732  ProposalStatus current = _resolvedStatus(p) */\n      swap1\n      pop\n        /* \"contracts/TimbGovernance.sol\":7757:7778  ProposalStatus.Passed */\n      0x02\n        /* \"contracts/TimbGovernance.sol\":7746:7753  current */\n      dup2\n        /* \"contracts/TimbGovernance.sol\":7746:7778  current != ProposalStatus.Passed */\n      0x05\n      dup2\n      gt\n      iszero\n      tag_227\n      jumpi\n      tag_227\n      tag_154\n      jump\t// in\n    tag_227:\n      eq\n        /* \"contracts/TimbGovernance.sol\":7742:7806  if (current != ProposalStatus.Passed) revert ProposalNotPassed() */\n      tag_228\n      jumpi\n        /* \"contracts/TimbGovernance.sol\":7787:7806  ProposalNotPassed() */\n      mload(0x40)\n      shl(0xe0, 0xc8c93ba3)\n      dup2\n      mstore\n      0x04\n      add\n      mload(0x40)\n      dup1\n      swap2\n      sub\n      swap1\n      revert\n        /* \"contracts/TimbGovernance.sol\":7742:7806  if (current != ProposalStatus.Passed) revert ProposalNotPassed() */\n    tag_228:\n        /* \"contracts/TimbGovernance.sol\":7838:7839  p */\n      dup2\n        /* \"contracts/TimbGovernance.sol\":7838:7857  p.executionDeadline */\n      0x07\n      add\n      sload\n        /* \"contracts/TimbGovernance.sol\":7820:7835  block.timestamp */\n      timestamp\n        /* \"contracts/TimbGovernance.sol\":7820:7857  block.timestamp > p.executionDeadline */\n      gt\n        /* \"contracts/TimbGovernance.sol\":7816:8038  if (block.timestamp > p.executionDeadline) {... */\n      iszero\n      tag_229\n      jumpi\n        /* \"contracts/TimbGovernance.sol\":7873:7881  p.status */\n      0x0b\n      dup3\n      add\n        /* \"contracts/TimbGovernance.sol\":7873:7906  p.status = ProposalStatus.Expired */\n      dup1\n      sload\n      not(0xff)\n      and\n        /* \"contracts/TimbGovernance.sol\":7884:7906  ProposalStatus.Expired */\n      0x05\n        /* \"contracts/TimbGovernance.sol\":7873:7906  p.status = ProposalStatus.Expired */\n      swap1\n      dup2\n      or\n      swap1\n      swap2\n      sstore\n        /* \"contracts/TimbGovernance.sol\":7925:7982  ProposalStatusUpdated(proposalId, ProposalStatus.Expired) */\n      mload(0x40)\n        /* \"contracts/TimbGovernance.sol\":7947:7957  proposalId */\n      dup5\n      swap2\n      0x00\n      dup1\n      mload\n      0x20\n      data_9dc46509c52525a6339f399907f61b3180b3a05702a403d62c3da3ccaed2ae11\n      dup4\n      codecopy\n      dup2\n      mload\n      swap2\n      mstore\n        /* \"contracts/TimbGovernance.sol\":7925:7982  ProposalStatusUpdated(proposalId, ProposalStatus.Expired) */\n      swap2\n      tag_232\n      swap2\n        /* \"contracts/TimbGovernance.sol\":7884:7906  ProposalStatus.Expired */\n      swap1\n        /* \"contracts/TimbGovernance.sol\":7925:7982  ProposalStatusUpdated(proposalId, ProposalStatus.Expired) */\n      tag_188\n      jump\t// in\n    tag_232:\n      mload(0x40)\n      dup1\n      swap2\n      sub\n      swap1\n      log2\n        /* \"contracts/TimbGovernance.sol\":8003:8027  ExecutionWindowExpired() */\n      mload(0x40)\n      shl(0xe0, 0x3c09dd11)\n      dup2\n      mstore\n      0x04\n      add\n      mload(0x40)\n      dup1\n      swap2\n      sub\n      swap1\n      revert\n        /* \"contracts/TimbGovernance.sol\":7816:8038  if (block.timestamp > p.executionDeadline) {... */\n    tag_229:\n        /* \"contracts/TimbGovernance.sol\":8048:8058  p.executed */\n      0x0b\n      dup3\n      add\n        /* \"contracts/TimbGovernance.sol\":8048:8065  p.executed = true */\n      dup1\n      sload\n      not(0xffff)\n        /* \"contracts/TimbGovernance.sol\":8075:8109  p.status = ProposalStatus.Executed */\n      and\n      0x0104\n      or\n      swap1\n      sstore\n        /* \"contracts/TimbGovernance.sol\":8124:8164  ProposalExecuted(proposalId, msg.sender) */\n      mload(0x40)\n        /* \"contracts/TimbGovernance.sol\":8153:8163  msg.sender */\n      caller\n      swap1\n        /* \"contracts/TimbGovernance.sol\":8141:8151  proposalId */\n      dup5\n      swap1\n        /* \"contracts/TimbGovernance.sol\":8124:8164  ProposalExecuted(proposalId, msg.sender) */\n      0x9c85b616f29fca57a17eafe71cf9ff82ffef41766e2cf01ea7f8f7878dd3ec24\n      swap1\n      0x00\n      swap1\n      log3\n        /* \"contracts/TimbGovernance.sol\":8201:8211  proposalId */\n      dup3\n      0x00\n      dup1\n      mload\n      0x20\n      data_9dc46509c52525a6339f399907f61b3180b3a05702a403d62c3da3ccaed2ae11\n      dup4\n      codecopy\n      dup2\n      mload\n      swap2\n      mstore\n        /* \"contracts/TimbGovernance.sol\":8213:8236  ProposalStatus.Executed */\n      0x04\n        /* \"contracts/TimbGovernance.sol\":8179:8237  ProposalStatusUpdated(proposalId, ProposalStatus.Executed) */\n      mload(0x40)\n      tag_235\n      swap2\n      swap1\n      tag_188\n      jump\t// in\n    tag_235:\n      mload(0x40)\n      dup1\n      swap2\n      sub\n      swap1\n      log2\n        /* \"contracts/TimbGovernance.sol\":7526:8244  {... */\n      pop\n      pop\n        /* \"@openzeppelin/contracts/utils/ReentrancyGuard.sol\":3065:3085  _nonReentrantAfter() */\n      tag_236\n        /* \"@openzeppelin/contracts/utils/ReentrancyGuard.sol\":2365:2366  1 */\n      0x01\n      0x00\n      dup1\n      mload\n      0x20\n      data_c8669cf8eaf883002b9f48e28846a8d408c9b58ea6613bace374265e43c9bc43\n      dup4\n      codecopy\n      dup2\n      mload\n      swap2\n      mstore\n        /* \"@openzeppelin/contracts/utils/ReentrancyGuard.sol\":3972:4034  _reentrancyGuardStorageSlot().getUint256Slot().value = ENTERED */\n      sstore\n        /* \"@openzeppelin/contracts/utils/ReentrancyGuard.sol\":3749:4041  function _nonReentrantBefore() private {... */\n      jump\n        /* \"@openzeppelin/contracts/utils/ReentrancyGuard.sol\":3065:3085  _nonReentrantAfter() */\n    tag_236:\n        /* \"contracts/TimbGovernance.sol\":7449:8244  function executeProposal(uint256 proposalId) external nonReentrant onlyOwner {... */\n      pop\n      jump\t// out\n        /* \"contracts/TimbGovernance.sol\":5872:6848  function castVote(uint256 proposalId, bool support) external nonReentrant {... */\n    tag_63:\n        /* \"@openzeppelin/contracts/utils/ReentrancyGuard.sol\":3023:3044  _nonReentrantBefore() */\n      tag_239\n        /* \"@openzeppelin/contracts/utils/ReentrancyGuard.sol\":3023:3042  _nonReentrantBefore */\n      tag_201\n        /* \"@openzeppelin/contracts/utils/ReentrancyGuard.sol\":3023:3044  _nonReentrantBefore() */\n      jump\t// in\n    tag_239:\n        /* \"contracts/TimbGovernance.sol\":5956:5974  Proposal storage p */\n      0x00\n        /* \"contracts/TimbGovernance.sol\":5977:5998  proposals[proposalId] */\n      dup3\n      dup2\n      mstore\n        /* \"contracts/TimbGovernance.sol\":5977:5986  proposals */\n      0x06\n        /* \"contracts/TimbGovernance.sol\":5977:5998  proposals[proposalId] */\n      0x20\n      mstore\n      0x40\n      dup2\n      keccak256\n        /* \"contracts/TimbGovernance.sol\":6012:6016  p.id */\n      dup1\n      sload\n        /* \"contracts/TimbGovernance.sol\":5977:5998  proposals[proposalId] */\n      swap1\n      swap2\n        /* \"contracts/TimbGovernance.sol\":6012:6021  p.id == 0 */\n      sub\n        /* \"contracts/TimbGovernance.sol\":6008:6048  if (p.id == 0) revert ProposalNotFound() */\n      tag_241\n      jumpi\n        /* \"contracts/TimbGovernance.sol\":6030:6048  ProposalNotFound() */\n      mload(0x40)\n      shl(0xe0, 0x635e8737)\n      dup2\n      mstore\n      0x04\n      add\n      mload(0x40)\n      dup1\n      swap2\n      sub\n      swap1\n      revert\n        /* \"contracts/TimbGovernance.sol\":6008:6048  if (p.id == 0) revert ProposalNotFound() */\n    tag_241:\n        /* \"contracts/TimbGovernance.sol\":6080:6081  p */\n      dup1\n        /* \"contracts/TimbGovernance.sol\":6080:6096  p.votingStartsAt */\n      0x05\n      add\n      sload\n        /* \"contracts/TimbGovernance.sol\":6062:6077  block.timestamp */\n      timestamp\n        /* \"contracts/TimbGovernance.sol\":6062:6096  block.timestamp < p.votingStartsAt */\n      lt\n        /* \"contracts/TimbGovernance.sol\":6058:6139  if (block.timestamp < p.votingStartsAt) revert VotingNotStarted(p.votingStartsAt) */\n      iszero\n      tag_242\n      jumpi\n        /* \"contracts/TimbGovernance.sol\":6122:6123  p */\n      dup1\n        /* \"contracts/TimbGovernance.sol\":6122:6138  p.votingStartsAt */\n      0x05\n      add\n      sload\n        /* \"contracts/TimbGovernance.sol\":6105:6139  VotingNotStarted(p.votingStartsAt) */\n      mload(0x40)\n      shl(0xe0, 0xbc2e28fb)\n      dup2\n      mstore\n      0x04\n      add\n      tag_151\n      swap2\n        /* \"#utility.yul\":2619:2644   */\n      dup2\n      mstore\n        /* \"#utility.yul\":2607:2609   */\n      0x20\n        /* \"#utility.yul\":2592:2610   */\n      add\n      swap1\n        /* \"#utility.yul\":2473:2650   */\n      jump\n        /* \"contracts/TimbGovernance.sol\":6058:6139  if (block.timestamp < p.votingStartsAt) revert VotingNotStarted(p.votingStartsAt) */\n    tag_242:\n        /* \"contracts/TimbGovernance.sol\":6171:6172  p */\n      dup1\n        /* \"contracts/TimbGovernance.sol\":6171:6185  p.votingEndsAt */\n      0x06\n      add\n      sload\n        /* \"contracts/TimbGovernance.sol\":6153:6168  block.timestamp */\n      timestamp\n        /* \"contracts/TimbGovernance.sol\":6153:6185  block.timestamp > p.votingEndsAt */\n      gt\n        /* \"contracts/TimbGovernance.sol\":6149:6221  if (block.timestamp > p.votingEndsAt) revert VotingEnded(p.votingEndsAt) */\n      iszero\n      tag_244\n      jumpi\n        /* \"contracts/TimbGovernance.sol\":6206:6207  p */\n      dup1\n        /* \"contracts/TimbGovernance.sol\":6206:6220  p.votingEndsAt */\n      0x06\n      add\n      sload\n        /* \"contracts/TimbGovernance.sol\":6194:6221  VotingEnded(p.votingEndsAt) */\n      mload(0x40)\n      shl(0xe0, 0x81eb7415)\n      dup2\n      mstore\n      0x04\n      add\n      tag_151\n      swap2\n        /* \"#utility.yul\":2619:2644   */\n      dup2\n      mstore\n        /* \"#utility.yul\":2607:2609   */\n      0x20\n        /* \"#utility.yul\":2592:2610   */\n      add\n      swap1\n        /* \"#utility.yul\":2473:2650   */\n      jump\n        /* \"contracts/TimbGovernance.sol\":6149:6221  if (block.timestamp > p.votingEndsAt) revert VotingEnded(p.votingEndsAt) */\n    tag_244:\n        /* \"contracts/TimbGovernance.sol\":6244:6254  msg.sender */\n      caller\n        /* \"contracts/TimbGovernance.sol\":6235:6255  hasVoted[msg.sender] */\n      0x00\n      swap1\n      dup2\n      mstore\n        /* \"contracts/TimbGovernance.sol\":6235:6243  hasVoted */\n      0x09\n        /* \"contracts/TimbGovernance.sol\":6235:6255  hasVoted[msg.sender] */\n      0x20\n      swap1\n      dup2\n      mstore\n      0x40\n      dup1\n      dup4\n      keccak256\n        /* \"contracts/TimbGovernance.sol\":6235:6267  hasVoted[msg.sender][proposalId] */\n      dup7\n      dup5\n      mstore\n      swap1\n      swap2\n      mstore\n      swap1\n      keccak256\n      sload\n      0xff\n      and\n        /* \"contracts/TimbGovernance.sol\":6231:6290  if (hasVoted[msg.sender][proposalId]) revert AlreadyVoted() */\n      iszero\n      tag_246\n      jumpi\n        /* \"contracts/TimbGovernance.sol\":6276:6290  AlreadyVoted() */\n      mload(0x40)\n      shl(0xe0, 0x7c9a1cf9)\n      dup2\n      mstore\n      0x04\n      add\n      mload(0x40)\n      dup1\n      swap2\n      sub\n      swap1\n      revert\n        /* \"contracts/TimbGovernance.sol\":6231:6290  if (hasVoted[msg.sender][proposalId]) revert AlreadyVoted() */\n    tag_246:\n        /* \"contracts/TimbGovernance.sol\":6338:6348  msg.sender */\n      caller\n        /* \"contracts/TimbGovernance.sol\":6301:6314  uint256 power */\n      0x00\n        /* \"contracts/TimbGovernance.sol\":6317:6349  votingPowerDeposited[msg.sender] */\n      swap1\n      dup2\n      mstore\n        /* \"contracts/TimbGovernance.sol\":6317:6337  votingPowerDeposited */\n      0x07\n        /* \"contracts/TimbGovernance.sol\":6317:6349  votingPowerDeposited[msg.sender] */\n      0x20\n      mstore\n      0x40\n      dup2\n      keccak256\n      sload\n      swap1\n        /* \"contracts/TimbGovernance.sol\":6363:6373  power == 0 */\n      dup2\n      swap1\n      sub\n        /* \"contracts/TimbGovernance.sol\":6359:6407  if (power == 0) revert InsufficientVotingPower() */\n      tag_247\n      jumpi\n        /* \"contracts/TimbGovernance.sol\":6382:6407  InsufficientVotingPower() */\n      mload(0x40)\n      shl(0xe0, 0xcabeb655)\n      dup2\n      mstore\n      0x04\n      add\n      mload(0x40)\n      dup1\n      swap2\n      sub\n      swap1\n      revert\n        /* \"contracts/TimbGovernance.sol\":6359:6407  if (power == 0) revert InsufficientVotingPower() */\n    tag_247:\n        /* \"contracts/TimbGovernance.sol\":6422:6429  support */\n      dup3\n        /* \"contracts/TimbGovernance.sol\":6418:6488  if (support) p.forVotes += power;... */\n      iszero\n      tag_248\n      jumpi\n        /* \"contracts/TimbGovernance.sol\":6445:6450  power */\n      dup1\n        /* \"contracts/TimbGovernance.sol\":6431:6432  p */\n      dup3\n        /* \"contracts/TimbGovernance.sol\":6431:6441  p.forVotes */\n      0x08\n      add\n      0x00\n        /* \"contracts/TimbGovernance.sol\":6431:6450  p.forVotes += power */\n      dup3\n      dup3\n      sload\n      tag_249\n      swap2\n      swap1\n      tag_250\n      jump\t// in\n    tag_249:\n      swap1\n      swap2\n      sstore\n      pop\n        /* \"contracts/TimbGovernance.sol\":6418:6488  if (support) p.forVotes += power;... */\n      tag_251\n      swap1\n      pop\n      jump\n    tag_248:\n        /* \"contracts/TimbGovernance.sol\":6483:6488  power */\n      dup1\n        /* \"contracts/TimbGovernance.sol\":6465:6466  p */\n      dup3\n        /* \"contracts/TimbGovernance.sol\":6465:6479  p.againstVotes */\n      0x09\n      add\n      0x00\n        /* \"contracts/TimbGovernance.sol\":6465:6488  p.againstVotes += power */\n      dup3\n      dup3\n      sload\n      tag_252\n      swap2\n      swap1\n      tag_250\n      jump\t// in\n    tag_252:\n      swap1\n      swap2\n      sstore\n      pop\n      pop\n        /* \"contracts/TimbGovernance.sol\":6418:6488  if (support) p.forVotes += power;... */\n    tag_251:\n        /* \"contracts/TimbGovernance.sol\":6508:6518  msg.sender */\n      caller\n        /* \"contracts/TimbGovernance.sol\":6499:6519  hasVoted[msg.sender] */\n      0x00\n      dup2\n      dup2\n      mstore\n        /* \"contracts/TimbGovernance.sol\":6499:6507  hasVoted */\n      0x09\n        /* \"contracts/TimbGovernance.sol\":6499:6519  hasVoted[msg.sender] */\n      0x20\n      swap1\n      dup2\n      mstore\n      0x40\n      dup1\n      dup4\n      keccak256\n        /* \"contracts/TimbGovernance.sol\":6499:6531  hasVoted[msg.sender][proposalId] */\n      dup9\n      dup5\n      mstore\n      dup3\n      mstore\n      dup1\n      dup4\n      keccak256\n        /* \"contracts/TimbGovernance.sol\":6499:6538  hasVoted[msg.sender][proposalId] = true */\n      dup1\n      sload\n      not(0xff)\n      and\n        /* \"contracts/TimbGovernance.sol\":6534:6538  true */\n      0x01\n        /* \"contracts/TimbGovernance.sol\":6499:6538  hasVoted[msg.sender][proposalId] = true */\n      swap1\n      dup2\n      or\n      swap1\n      swap2\n      sstore\n        /* \"contracts/TimbGovernance.sol\":6548:6578  voterParticipation[msg.sender] */\n      swap4\n      dup4\n      mstore\n        /* \"contracts/TimbGovernance.sol\":6548:6566  voterParticipation */\n      0x0a\n        /* \"contracts/TimbGovernance.sol\":6548:6578  voterParticipation[msg.sender] */\n      dup3\n      mstore\n      dup3\n      keccak256\n        /* \"contracts/TimbGovernance.sol\":6548:6595  voterParticipation[msg.sender].push(proposalId) */\n      dup1\n      sload\n      swap4\n      dup5\n      add\n      dup2\n      sstore\n      dup3\n      mstore\n      dup2\n      keccak256\n      swap1\n      swap2\n      add\n      dup6\n      swap1\n      sstore\n        /* \"contracts/TimbGovernance.sol\":6610:6618  p.status */\n      0x0b\n      dup4\n      add\n      sload\n      0xff\n      and\n        /* \"contracts/TimbGovernance.sol\":6610:6644  p.status == ProposalStatus.Pending */\n      0x05\n      dup2\n      gt\n      iszero\n      tag_257\n      jumpi\n      tag_257\n      tag_154\n      jump\t// in\n    tag_257:\n      sub\n        /* \"contracts/TimbGovernance.sol\":6606:6778  if (p.status == ProposalStatus.Pending) {... */\n      tag_258\n      jumpi\n        /* \"contracts/TimbGovernance.sol\":6660:6668  p.status */\n      0x0b\n      dup3\n      add\n        /* \"contracts/TimbGovernance.sol\":6660:6692  p.status = ProposalStatus.Active */\n      dup1\n      sload\n      not(0xff)\n      and\n        /* \"contracts/TimbGovernance.sol\":6671:6692  ProposalStatus.Active */\n      0x01\n        /* \"contracts/TimbGovernance.sol\":6660:6692  p.status = ProposalStatus.Active */\n      swap1\n      dup2\n      or\n      swap1\n      swap2\n      sstore\n        /* \"contracts/TimbGovernance.sol\":6711:6767  ProposalStatusUpdated(proposalId, ProposalStatus.Active) */\n      mload(0x40)\n        /* \"contracts/TimbGovernance.sol\":6733:6743  proposalId */\n      dup6\n      swap2\n      0x00\n      dup1\n      mload\n      0x20\n      data_9dc46509c52525a6339f399907f61b3180b3a05702a403d62c3da3ccaed2ae11\n      dup4\n      codecopy\n      dup2\n      mload\n      swap2\n      mstore\n        /* \"contracts/TimbGovernance.sol\":6711:6767  ProposalStatusUpdated(proposalId, ProposalStatus.Active) */\n      swap2\n      tag_261\n      swap2\n        /* \"contracts/TimbGovernance.sol\":6671:6692  ProposalStatus.Active */\n      swap1\n        /* \"contracts/TimbGovernance.sol\":6711:6767  ProposalStatusUpdated(proposalId, ProposalStatus.Active) */\n      tag_188\n      jump\t// in\n    tag_261:\n      mload(0x40)\n      dup1\n      swap2\n      sub\n      swap1\n      log2\n        /* \"contracts/TimbGovernance.sol\":6606:6778  if (p.status == ProposalStatus.Pending) {... */\n    tag_258:\n        /* \"contracts/TimbGovernance.sol\":6793:6841  VoteCast(msg.sender, proposalId, support, power) */\n      0x40\n      dup1\n      mload\n        /* \"#utility.yul\":8243:8257   */\n      dup5\n      iszero\n        /* \"#utility.yul\":8236:8258   */\n      iszero\n        /* \"#utility.yul\":8218:8259   */\n      dup2\n      mstore\n        /* \"#utility.yul\":8290:8292   */\n      0x20\n        /* \"#utility.yul\":8275:8293   */\n      dup2\n      add\n        /* \"#utility.yul\":8268:8302   */\n      dup4\n      swap1\n      mstore\n        /* \"contracts/TimbGovernance.sol\":6814:6824  proposalId */\n      dup6\n      swap2\n        /* \"contracts/TimbGovernance.sol\":6802:6812  msg.sender */\n      caller\n      swap2\n        /* \"contracts/TimbGovernance.sol\":6793:6841  VoteCast(msg.sender, proposalId, support, power) */\n      0x877856338e13f63d0c36822ff0ef736b80934cd90574a3a5bc9262c39d217c46\n      swap2\n        /* \"#utility.yul\":8191:8209   */\n      add\n        /* \"contracts/TimbGovernance.sol\":6793:6841  VoteCast(msg.sender, proposalId, support, power) */\n      mload(0x40)\n      dup1\n      swap2\n      sub\n      swap1\n      log3\n        /* \"contracts/TimbGovernance.sol\":5946:6848  {... */\n      pop\n      pop\n        /* \"@openzeppelin/contracts/utils/ReentrancyGuard.sol\":3065:3085  _nonReentrantAfter() */\n      tag_264\n        /* \"@openzeppelin/contracts/utils/ReentrancyGuard.sol\":2365:2366  1 */\n      0x01\n      0x00\n      dup1\n      mload\n      0x20\n      data_c8669cf8eaf883002b9f48e28846a8d408c9b58ea6613bace374265e43c9bc43\n      dup4\n      codecopy\n      dup2\n      mload\n      swap2\n      mstore\n        /* \"@openzeppelin/contracts/utils/ReentrancyGuard.sol\":3972:4034  _reentrancyGuardStorageSlot().getUint256Slot().value = ENTERED */\n      sstore\n        /* \"@openzeppelin/contracts/utils/ReentrancyGuard.sol\":3749:4041  function _nonReentrantBefore() private {... */\n      jump\n        /* \"@openzeppelin/contracts/utils/ReentrancyGuard.sol\":3065:3085  _nonReentrantAfter() */\n    tag_264:\n        /* \"contracts/TimbGovernance.sol\":5872:6848  function castVote(uint256 proposalId, bool support) external nonReentrant {... */\n      pop\n      pop\n      jump\t// out\n        /* \"contracts/TimbGovernance.sol\":1458:1513  mapping(address => uint256[]) public voterParticipation */\n    tag_76:\n      mstore(0x20, 0x0a)\n      dup2\n      0x00\n      mstore\n      keccak256(0x00, 0x40)\n      dup2\n      dup2\n      sload\n      dup2\n      lt\n      tag_265\n      jumpi\n      0x00\n      dup1\n      revert\n    tag_265:\n      swap1\n      0x00\n      mstore\n      keccak256(0x00, 0x20)\n      add\n      0x00\n      swap2\n      pop\n      swap2\n      pop\n      pop\n      sload\n      dup2\n      jump\t// out\n        /* \"contracts/TimbGovernance.sol\":4821:5866  function createProposal(... */\n    tag_86:\n        /* \"contracts/TimbGovernance.sol\":4947:4965  uint256 proposalId */\n      0x00\n        /* \"@openzeppelin/contracts/access/Ownable.sol\":1531:1544  _checkOwner() */\n      tag_268\n        /* \"@openzeppelin/contracts/access/Ownable.sol\":1531:1542  _checkOwner */\n      tag_204\n        /* \"@openzeppelin/contracts/access/Ownable.sol\":1531:1544  _checkOwner() */\n      jump\t// in\n    tag_268:\n        /* \"contracts/TimbGovernance.sol\":5016:5033  proposalThreshold */\n      sload(0x01)\n        /* \"contracts/TimbGovernance.sol\":4981:5013  timbsToken.balanceOf(msg.sender) */\n      mload(0x40)\n      shl(0xe0, 0x70a08231)\n      dup2\n      mstore\n        /* \"contracts/TimbGovernance.sol\":5002:5012  msg.sender */\n      caller\n        /* \"contracts/TimbGovernance.sol\":4981:5013  timbsToken.balanceOf(msg.sender) */\n      0x04\n      dup3\n      add\n        /* \"#utility.yul\":2815:2866   */\n      mstore\n        /* \"contracts/TimbGovernance.sol\":4981:4991  timbsToken */\n      immutable(\"0x5a93a2dc92091af230683d15d3257a435cf66aed689fda6017f4307513f6d5be\")\n      sub(shl(0xa0, 0x01), 0x01)\n        /* \"contracts/TimbGovernance.sol\":4981:5001  timbsToken.balanceOf */\n      and\n      swap1\n      0x70a08231\n      swap1\n        /* \"#utility.yul\":2788:2806   */\n      0x24\n      add\n        /* \"contracts/TimbGovernance.sol\":4981:5013  timbsToken.balanceOf(msg.sender) */\n      0x20\n      mload(0x40)\n      dup1\n      dup4\n      sub\n      dup2\n      dup7\n      gas\n      staticcall\n      iszero\n      dup1\n      iszero\n      tag_272\n      jumpi\n      returndatasize\n      0x00\n      dup1\n      returndatacopy\n      revert(0x00, returndatasize)\n    tag_272:\n      pop\n      pop\n      pop\n      pop\n      mload(0x40)\n      returndatasize\n      not(0x1f)\n      0x1f\n      dup3\n      add\n      and\n      dup3\n      add\n      dup1\n      0x40\n      mstore\n      pop\n      dup2\n      add\n      swap1\n      tag_273\n      swap2\n      swap1\n      tag_274\n      jump\t// in\n    tag_273:\n        /* \"contracts/TimbGovernance.sol\":4981:5033  timbsToken.balanceOf(msg.sender) < proposalThreshold */\n      lt\n        /* \"contracts/TimbGovernance.sol\":4977:5058  if (timbsToken.balanceOf(msg.sender) < proposalThreshold) revert BelowThreshold() */\n      iszero\n      tag_275\n      jumpi\n        /* \"contracts/TimbGovernance.sol\":5042:5058  BelowThreshold() */\n      mload(0x40)\n      shl(0xe9, 0x5713a1)\n      dup2\n      mstore\n      0x04\n      add\n      mload(0x40)\n      dup1\n      swap2\n      sub\n      swap1\n      revert\n        /* \"contracts/TimbGovernance.sol\":4977:5058  if (timbsToken.balanceOf(msg.sender) < proposalThreshold) revert BelowThreshold() */\n    tag_275:\n        /* \"contracts/TimbGovernance.sol\":5084:5097  proposalCount */\n      0x05\n      0x00\n        /* \"contracts/TimbGovernance.sol\":5082:5097  ++proposalCount */\n      dup2\n      sload\n      tag_276\n      swap1\n      tag_277\n      jump\t// in\n    tag_276:\n      swap2\n      swap1\n      pop\n      dup2\n      swap1\n      sstore\n        /* \"contracts/TimbGovernance.sol\":5069:5097  proposalId = ++proposalCount */\n      swap1\n      pop\n        /* \"contracts/TimbGovernance.sol\":5107:5129  uint256 votingStartsAt */\n      0x00\n        /* \"contracts/TimbGovernance.sol\":5150:5161  votingDelay */\n      sload(0x04)\n        /* \"contracts/TimbGovernance.sol\":5132:5147  block.timestamp */\n      timestamp\n        /* \"contracts/TimbGovernance.sol\":5132:5161  block.timestamp + votingDelay */\n      tag_278\n      swap2\n      swap1\n      tag_250\n      jump\t// in\n    tag_278:\n        /* \"contracts/TimbGovernance.sol\":5107:5161  uint256 votingStartsAt = block.timestamp + votingDelay */\n      swap1\n      pop\n        /* \"contracts/TimbGovernance.sol\":5171:5191  uint256 votingEndsAt */\n      0x00\n        /* \"contracts/TimbGovernance.sol\":5211:5223  votingPeriod */\n      sload(0x03)\n        /* \"contracts/TimbGovernance.sol\":5194:5208  votingStartsAt */\n      dup3\n        /* \"contracts/TimbGovernance.sol\":5194:5223  votingStartsAt + votingPeriod */\n      tag_279\n      swap2\n      swap1\n      tag_250\n      jump\t// in\n    tag_279:\n        /* \"contracts/TimbGovernance.sol\":5171:5223  uint256 votingEndsAt = votingStartsAt + votingPeriod */\n      swap1\n      pop\n        /* \"contracts/TimbGovernance.sol\":5258:5767  Proposal({... */\n      mload(0x40)\n      dup1\n      0x01a0\n      add\n      0x40\n      mstore\n      dup1\n        /* \"contracts/TimbGovernance.sol\":5285:5295  proposalId */\n      dup5\n        /* \"contracts/TimbGovernance.sol\":5258:5767  Proposal({... */\n      dup2\n      mstore\n      0x20\n      add\n        /* \"contracts/TimbGovernance.sol\":5316:5321  title */\n      dup9\n      dup9\n        /* \"contracts/TimbGovernance.sol\":5258:5767  Proposal({... */\n      dup1\n      dup1\n      0x1f\n      add\n      0x20\n      dup1\n      swap2\n      div\n      mul\n      0x20\n      add\n      mload(0x40)\n      swap1\n      dup2\n      add\n      0x40\n      mstore\n      dup1\n      swap4\n      swap3\n      swap2\n      swap1\n      dup2\n      dup2\n      mstore\n      0x20\n      add\n      dup4\n      dup4\n      dup1\n      dup3\n      dup5\n      calldatacopy\n      0x00\n      swap3\n      add\n      swap2\n      swap1\n      swap2\n      mstore\n      pop\n      pop\n      pop\n      swap1\n      dup3\n      mstore\n      pop\n      0x40\n      dup1\n      mload\n      0x20\n      0x1f\n      dup10\n      add\n      dup2\n      swap1\n      div\n      dup2\n      mul\n      dup3\n      add\n      dup2\n      add\n      swap1\n      swap3\n      mstore\n      dup8\n      dup2\n      mstore\n      swap2\n      dup2\n      add\n      swap2\n      swap1\n        /* \"contracts/TimbGovernance.sol\":5348:5359  description */\n      dup9\n      swap1\n      dup9\n      swap1\n      dup2\n      swap1\n        /* \"contracts/TimbGovernance.sol\":5258:5767  Proposal({... */\n      dup5\n      add\n        /* \"contracts/TimbGovernance.sol\":5348:5359  description */\n      dup4\n      dup3\n      dup1\n      dup3\n        /* \"contracts/TimbGovernance.sol\":5258:5767  Proposal({... */\n      dup5\n      calldatacopy\n      0x00\n      swap3\n      add\n      swap2\n      swap1\n      swap2\n      mstore\n      pop\n      pop\n      pop\n      swap1\n      dup3\n      mstore\n      pop\n        /* \"contracts/TimbGovernance.sol\":5383:5393  msg.sender */\n      caller\n        /* \"contracts/TimbGovernance.sol\":5258:5767  Proposal({... */\n      0x20\n      dup3\n      add\n      mstore\n        /* \"contracts/TimbGovernance.sol\":5418:5433  block.timestamp */\n      timestamp\n        /* \"contracts/TimbGovernance.sol\":5258:5767  Proposal({... */\n      0x40\n      dup3\n      add\n      mstore\n      0x60\n      dup2\n      add\n      dup5\n      swap1\n      mstore\n      0x80\n      dup2\n      add\n      dup4\n      swap1\n      mstore\n      0xa0\n      add\n        /* \"contracts/TimbGovernance.sol\":5550:5581  votingEndsAt + EXECUTION_WINDOW */\n      tag_280\n        /* \"contracts/TimbGovernance.sol\":967:973  7 days */\n      0x093a80\n        /* \"contracts/TimbGovernance.sol\":5505:5517  votingEndsAt */\n      dup5\n        /* \"contracts/TimbGovernance.sol\":5550:5581  votingEndsAt + EXECUTION_WINDOW */\n      tag_250\n      jump\t// in\n    tag_280:\n        /* \"contracts/TimbGovernance.sol\":5258:5767  Proposal({... */\n      dup2\n      mstore\n      0x20\n      add\n        /* \"contracts/TimbGovernance.sol\":5605:5606  0 */\n      0x00\n        /* \"contracts/TimbGovernance.sol\":5258:5767  Proposal({... */\n      dup2\n      mstore\n      0x20\n      add\n        /* \"contracts/TimbGovernance.sol\":5634:5635  0 */\n      0x00\n        /* \"contracts/TimbGovernance.sol\":5258:5767  Proposal({... */\n      dup2\n      mstore\n      0x20\n      add\n        /* \"contracts/TimbGovernance.sol\":5667:5683  totalVotingPower */\n      sload(0x08)\n        /* \"contracts/TimbGovernance.sol\":5258:5767  Proposal({... */\n      dup2\n      mstore\n      0x20\n      add\n        /* \"contracts/TimbGovernance.sol\":5705:5727  ProposalStatus.Pending */\n      0x00\n        /* \"contracts/TimbGovernance.sol\":5258:5767  Proposal({... */\n      0x05\n      dup2\n      gt\n      iszero\n      tag_282\n      jumpi\n      tag_282\n      tag_154\n      jump\t// in\n    tag_282:\n      dup2\n      mstore\n        /* \"contracts/TimbGovernance.sol\":5751:5756  false */\n      0x00\n        /* \"contracts/TimbGovernance.sol\":5258:5767  Proposal({... */\n      0x20\n      swap2\n      dup3\n      add\n      dup2\n      swap1\n      mstore\n        /* \"contracts/TimbGovernance.sol\":5234:5255  proposals[proposalId] */\n      dup6\n      dup2\n      mstore\n        /* \"contracts/TimbGovernance.sol\":5234:5243  proposals */\n      0x06\n        /* \"contracts/TimbGovernance.sol\":5234:5255  proposals[proposalId] */\n      dup3\n      mstore\n      0x40\n      swap1\n      keccak256\n        /* \"contracts/TimbGovernance.sol\":5234:5767  proposals[proposalId] = Proposal({... */\n      dup3\n      mload\n      dup2\n      sstore\n      swap1\n      dup3\n      add\n      mload\n        /* \"contracts/TimbGovernance.sol\":5258:5767  Proposal({... */\n      0x01\n        /* \"contracts/TimbGovernance.sol\":5234:5767  proposals[proposalId] = Proposal({... */\n      dup3\n      add\n      swap1\n      tag_283\n      swap1\n      dup3\n      tag_284\n      jump\t// in\n    tag_283:\n      pop\n      0x40\n      dup3\n      add\n      mload\n      0x02\n      dup3\n      add\n      swap1\n      tag_285\n      swap1\n      dup3\n      tag_284\n      jump\t// in\n    tag_285:\n      pop\n      0x60\n      dup3\n      add\n      mload\n      dup2\n      0x03\n      add\n      exp(0x0100, 0x00)\n      dup2\n      sload\n      dup2\n      sub(shl(0xa0, 0x01), 0x01)\n      mul\n      not\n      and\n      swap1\n      dup4\n      sub(shl(0xa0, 0x01), 0x01)\n      and\n      mul\n      or\n      swap1\n      sstore\n      pop\n      0x80\n      dup3\n      add\n      mload\n      dup2\n      0x04\n      add\n      sstore\n      0xa0\n      dup3\n      add\n      mload\n      dup2\n      0x05\n      add\n      sstore\n      0xc0\n      dup3\n      add\n      mload\n      dup2\n      0x06\n      add\n      sstore\n      0xe0\n      dup3\n      add\n      mload\n      dup2\n      0x07\n      add\n      sstore\n      0x0100\n      dup3\n      add\n      mload\n      dup2\n      0x08\n      add\n      sstore\n      0x0120\n      dup3\n      add\n      mload\n      dup2\n      0x09\n      add\n      sstore\n      0x0140\n      dup3\n      add\n      mload\n      dup2\n      0x0a\n      add\n      sstore\n      0x0160\n      dup3\n      add\n      mload\n      dup2\n      0x0b\n      add\n      exp(0x0100, 0x00)\n      dup2\n      sload\n      dup2\n      0xff\n      mul\n      not\n      and\n      swap1\n      dup4\n      0x05\n      dup2\n      gt\n      iszero\n      tag_287\n      jumpi\n      tag_287\n      tag_154\n      jump\t// in\n    tag_287:\n      mul\n      or\n      swap1\n      sstore\n      pop\n      0x0180\n      swap2\n      swap1\n      swap2\n      add\n      mload\n      0x0b\n      swap1\n      swap2\n      add\n      dup1\n      sload\n      swap2\n      iszero\n      iszero\n      0x0100\n      mul\n      not(0xff00)\n      swap1\n      swap3\n      and\n      swap2\n      swap1\n      swap2\n      or\n      swap1\n      sstore\n        /* \"contracts/TimbGovernance.sol\":5783:5859  ProposalCreated(proposalId, msg.sender, title, votingStartsAt, votingEndsAt) */\n      mload(0x40)\n        /* \"contracts/TimbGovernance.sol\":5811:5821  msg.sender */\n      caller\n      swap1\n        /* \"contracts/TimbGovernance.sol\":5799:5809  proposalId */\n      dup5\n      swap1\n        /* \"contracts/TimbGovernance.sol\":5783:5859  ProposalCreated(proposalId, msg.sender, title, votingStartsAt, votingEndsAt) */\n      0x6c98a8c940418b35614f0cd02412d5c9606faff474cbb6cdd6640ba5d1a9f06b\n      swap1\n      tag_288\n      swap1\n        /* \"contracts/TimbGovernance.sol\":5823:5828  title */\n      dup12\n      swap1\n      dup12\n      swap1\n        /* \"contracts/TimbGovernance.sol\":5830:5844  votingStartsAt */\n      dup9\n      swap1\n        /* \"contracts/TimbGovernance.sol\":5846:5858  votingEndsAt */\n      dup9\n      swap1\n        /* \"contracts/TimbGovernance.sol\":5783:5859  ProposalCreated(proposalId, msg.sender, title, votingStartsAt, votingEndsAt) */\n      tag_289\n      jump\t// in\n    tag_288:\n      mload(0x40)\n      dup1\n      swap2\n      sub\n      swap1\n      log3\n        /* \"contracts/TimbGovernance.sol\":4967:5866  {... */\n      pop\n      pop\n        /* \"contracts/TimbGovernance.sol\":4821:5866  function createProposal(... */\n      swap5\n      swap4\n      pop\n      pop\n      pop\n      pop\n      jump\t// out\n        /* \"contracts/TimbGovernance.sol\":9823:9919  function setVotingDelay(uint256 _delay) external onlyOwner {... */\n    tag_93:\n        /* \"@openzeppelin/contracts/access/Ownable.sol\":1531:1544  _checkOwner() */\n      tag_291\n        /* \"@openzeppelin/contracts/access/Ownable.sol\":1531:1542  _checkOwner */\n      tag_204\n        /* \"@openzeppelin/contracts/access/Ownable.sol\":1531:1544  _checkOwner() */\n      jump\t// in\n    tag_291:\n        /* \"contracts/TimbGovernance.sol\":9892:9903  votingDelay */\n      0x04\n        /* \"contracts/TimbGovernance.sol\":9892:9912  votingDelay = _delay */\n      sstore\n        /* \"contracts/TimbGovernance.sol\":9823:9919  function setVotingDelay(uint256 _delay) external onlyOwner {... */\n      jump\t// out\n        /* \"@openzeppelin/contracts/access/Ownable.sol\":2293:2394  function renounceOwnership() public virtual onlyOwner {... */\n    tag_95:\n        /* \"@openzeppelin/contracts/access/Ownable.sol\":1531:1544  _checkOwner() */\n      tag_294\n        /* \"@openzeppelin/contracts/access/Ownable.sol\":1531:1542  _checkOwner */\n      tag_204\n        /* \"@openzeppelin/contracts/access/Ownable.sol\":1531:1544  _checkOwner() */\n      jump\t// in\n    tag_294:\n        /* \"@openzeppelin/contracts/access/Ownable.sol\":2357:2387  _transferOwnership(address(0)) */\n      tag_296\n        /* \"@openzeppelin/contracts/access/Ownable.sol\":2384:2385  0 */\n      0x00\n        /* \"@openzeppelin/contracts/access/Ownable.sol\":2357:2375  _transferOwnership */\n      tag_297\n        /* \"@openzeppelin/contracts/access/Ownable.sol\":2357:2387  _transferOwnership(address(0)) */\n      jump\t// in\n    tag_296:\n        /* \"@openzeppelin/contracts/access/Ownable.sol\":2293:2394  function renounceOwnership() public virtual onlyOwner {... */\n      jump\t// out\n        /* \"contracts/TimbGovernance.sol\":9470:9615  function setQuorumBps(uint256 _bps) external onlyOwner {... */\n    tag_105:\n        /* \"@openzeppelin/contracts/access/Ownable.sol\":1531:1544  _checkOwner() */\n      tag_300\n        /* \"@openzeppelin/contracts/access/Ownable.sol\":1531:1542  _checkOwner */\n      tag_204\n        /* \"@openzeppelin/contracts/access/Ownable.sol\":1531:1544  _checkOwner() */\n      jump\t// in\n    tag_300:\n        /* \"contracts/TimbGovernance.sol\":1022:1028  10_000 */\n      0x2710\n        /* \"contracts/TimbGovernance.sol\":9539:9543  _bps */\n      dup2\n        /* \"contracts/TimbGovernance.sol\":9539:9561  _bps > BPS_DENOMINATOR */\n      gt\n        /* \"contracts/TimbGovernance.sol\":9535:9582  if (_bps > BPS_DENOMINATOR) revert InvalidBps() */\n      iszero\n      tag_302\n      jumpi\n        /* \"contracts/TimbGovernance.sol\":9570:9582  InvalidBps() */\n      mload(0x40)\n      shl(0xe0, 0xc6cc5d7f)\n      dup2\n      mstore\n      0x04\n      add\n      mload(0x40)\n      dup1\n      swap2\n      sub\n      swap1\n      revert\n        /* \"contracts/TimbGovernance.sol\":9535:9582  if (_bps > BPS_DENOMINATOR) revert InvalidBps() */\n    tag_302:\n        /* \"contracts/TimbGovernance.sol\":9592:9601  quorumBps */\n      0x02\n        /* \"contracts/TimbGovernance.sol\":9592:9608  quorumBps = _bps */\n      sstore\n        /* \"contracts/TimbGovernance.sol\":9470:9615  function setQuorumBps(uint256 _bps) external onlyOwner {... */\n      jump\t// out\n        /* \"contracts/TimbGovernance.sol\":3584:4274  function withdrawVotingPower(uint256 amount) external nonReentrant {... */\n    tag_108:\n        /* \"@openzeppelin/contracts/utils/ReentrancyGuard.sol\":3023:3044  _nonReentrantBefore() */\n      tag_304\n        /* \"@openzeppelin/contracts/utils/ReentrancyGuard.sol\":3023:3042  _nonReentrantBefore */\n      tag_201\n        /* \"@openzeppelin/contracts/utils/ReentrancyGuard.sol\":3023:3044  _nonReentrantBefore() */\n      jump\t// in\n    tag_304:\n        /* \"contracts/TimbGovernance.sol\":3665:3671  amount */\n      dup1\n        /* \"contracts/TimbGovernance.sol\":3675:3676  0 */\n      0x00\n        /* \"contracts/TimbGovernance.sol\":3665:3676  amount == 0 */\n      sub\n        /* \"contracts/TimbGovernance.sol\":3661:3697  if (amount == 0) revert ZeroAmount() */\n      tag_306\n      jumpi\n        /* \"contracts/TimbGovernance.sol\":3685:3697  ZeroAmount() */\n      mload(0x40)\n      shl(0xe0, 0x1f2a2005)\n      dup2\n      mstore\n      0x04\n      add\n      mload(0x40)\n      dup1\n      swap2\n      sub\n      swap1\n      revert\n        /* \"contracts/TimbGovernance.sol\":3661:3697  if (amount == 0) revert ZeroAmount() */\n    tag_306:\n        /* \"contracts/TimbGovernance.sol\":3723:3733  msg.sender */\n      caller\n        /* \"contracts/TimbGovernance.sol\":3707:3720  address voter */\n      0x00\n        /* \"contracts/TimbGovernance.sol\":3756:3783  votingPowerDeposited[voter] */\n      dup2\n      dup2\n      mstore\n        /* \"contracts/TimbGovernance.sol\":3756:3776  votingPowerDeposited */\n      0x07\n        /* \"contracts/TimbGovernance.sol\":3756:3783  votingPowerDeposited[voter] */\n      0x20\n      mstore\n      0x40\n      swap1\n      keccak256\n      sload\n        /* \"contracts/TimbGovernance.sol\":3747:3783  amount > votingPowerDeposited[voter] */\n      dup3\n      gt\n        /* \"contracts/TimbGovernance.sol\":3743:3817  if (amount > votingPowerDeposited[voter]) revert InsufficientVotingPower() */\n      iszero\n      tag_307\n      jumpi\n        /* \"contracts/TimbGovernance.sol\":3792:3817  InsufficientVotingPower() */\n      mload(0x40)\n      shl(0xe0, 0xcabeb655)\n      dup2\n      mstore\n      0x04\n      add\n      mload(0x40)\n      dup1\n      swap2\n      sub\n      swap1\n      revert\n        /* \"contracts/TimbGovernance.sol\":3743:3817  if (amount > votingPowerDeposited[voter]) revert InsufficientVotingPower() */\n    tag_307:\n      sub(shl(0xa0, 0x01), 0x01)\n        /* \"contracts/TimbGovernance.sol\":3861:3886  voterParticipation[voter] */\n      dup2\n      and\n        /* \"contracts/TimbGovernance.sol\":3828:3858  uint256[] storage participated */\n      0x00\n        /* \"contracts/TimbGovernance.sol\":3861:3886  voterParticipation[voter] */\n      swap1\n      dup2\n      mstore\n        /* \"contracts/TimbGovernance.sol\":3861:3879  voterParticipation */\n      0x0a\n        /* \"contracts/TimbGovernance.sol\":3861:3886  voterParticipation[voter] */\n      0x20\n      mstore\n      0x40\n      dup2\n      keccak256\n      swap1\n        /* \"contracts/TimbGovernance.sol\":3896:4090  for (uint256 i = 0; i < participated.length; i++) {... */\n    tag_308:\n        /* \"contracts/TimbGovernance.sol\":3920:3939  participated.length */\n      dup2\n      sload\n        /* \"contracts/TimbGovernance.sol\":3916:3939  i < participated.length */\n      dup2\n      lt\n        /* \"contracts/TimbGovernance.sol\":3896:4090  for (uint256 i = 0; i < participated.length; i++) {... */\n      iszero\n      tag_309\n      jumpi\n        /* \"contracts/TimbGovernance.sol\":3960:3978  Proposal storage p */\n      0x00\n        /* \"contracts/TimbGovernance.sol\":3981:3990  proposals */\n      0x06\n        /* \"contracts/TimbGovernance.sol\":3981:4007  proposals[participated[i]] */\n      0x00\n        /* \"contracts/TimbGovernance.sol\":3991:4003  participated */\n      dup5\n        /* \"contracts/TimbGovernance.sol\":4004:4005  i */\n      dup5\n        /* \"contracts/TimbGovernance.sol\":3991:4006  participated[i] */\n      dup2\n      sload\n      dup2\n      lt\n      tag_312\n      jumpi\n      tag_312\n      tag_313\n      jump\t// in\n    tag_312:\n      swap1\n      0x00\n      mstore\n      keccak256(0x00, 0x20)\n      add\n      sload\n        /* \"contracts/TimbGovernance.sol\":3981:4007  proposals[participated[i]] */\n      dup2\n      mstore\n      0x20\n      add\n      swap1\n      dup2\n      mstore\n      0x20\n      add\n      0x00\n      keccak256\n        /* \"contracts/TimbGovernance.sol\":3960:4007  Proposal storage p = proposals[participated[i]] */\n      swap1\n      pop\n        /* \"contracts/TimbGovernance.sol\":4025:4037  _isLocked(p) */\n      tag_315\n        /* \"contracts/TimbGovernance.sol\":4035:4036  p */\n      dup2\n        /* \"contracts/TimbGovernance.sol\":4025:4034  _isLocked */\n      tag_316\n        /* \"contracts/TimbGovernance.sol\":4025:4037  _isLocked(p) */\n      jump\t// in\n    tag_315:\n        /* \"contracts/TimbGovernance.sol\":4021:4079  if (_isLocked(p)) revert VotingPowerLocked(p.votingEndsAt) */\n      iszero\n      tag_317\n      jumpi\n        /* \"contracts/TimbGovernance.sol\":4064:4065  p */\n      dup1\n        /* \"contracts/TimbGovernance.sol\":4064:4078  p.votingEndsAt */\n      0x06\n      add\n      sload\n        /* \"contracts/TimbGovernance.sol\":4046:4079  VotingPowerLocked(p.votingEndsAt) */\n      mload(0x40)\n      shl(0xe0, 0x8f0b6549)\n      dup2\n      mstore\n      0x04\n      add\n      tag_151\n      swap2\n        /* \"#utility.yul\":2619:2644   */\n      dup2\n      mstore\n        /* \"#utility.yul\":2607:2609   */\n      0x20\n        /* \"#utility.yul\":2592:2610   */\n      add\n      swap1\n        /* \"#utility.yul\":2473:2650   */\n      jump\n        /* \"contracts/TimbGovernance.sol\":4021:4079  if (_isLocked(p)) revert VotingPowerLocked(p.votingEndsAt) */\n    tag_317:\n      pop\n        /* \"contracts/TimbGovernance.sol\":3941:3944  i++ */\n      0x01\n      add\n        /* \"contracts/TimbGovernance.sol\":3896:4090  for (uint256 i = 0; i < participated.length; i++) {... */\n      jump(tag_308)\n    tag_309:\n      pop\n      sub(shl(0xa0, 0x01), 0x01)\n        /* \"contracts/TimbGovernance.sol\":4100:4127  votingPowerDeposited[voter] */\n      dup3\n      and\n      0x00\n      swap1\n      dup2\n      mstore\n        /* \"contracts/TimbGovernance.sol\":4100:4120  votingPowerDeposited */\n      0x07\n        /* \"contracts/TimbGovernance.sol\":4100:4127  votingPowerDeposited[voter] */\n      0x20\n      mstore\n      0x40\n      dup2\n      keccak256\n        /* \"contracts/TimbGovernance.sol\":4100:4137  votingPowerDeposited[voter] -= amount */\n      dup1\n      sload\n        /* \"contracts/TimbGovernance.sol\":4131:4137  amount */\n      dup6\n      swap3\n        /* \"contracts/TimbGovernance.sol\":4100:4127  votingPowerDeposited[voter] */\n      swap1\n        /* \"contracts/TimbGovernance.sol\":4100:4137  votingPowerDeposited[voter] -= amount */\n      tag_319\n      swap1\n        /* \"contracts/TimbGovernance.sol\":4131:4137  amount */\n      dup5\n      swap1\n        /* \"contracts/TimbGovernance.sol\":4100:4137  votingPowerDeposited[voter] -= amount */\n      tag_320\n      jump\t// in\n    tag_319:\n      swap3\n      pop\n      pop\n      dup2\n      swap1\n      sstore\n      pop\n        /* \"contracts/TimbGovernance.sol\":4167:4173  amount */\n      dup3\n        /* \"contracts/TimbGovernance.sol\":4147:4163  totalVotingPower */\n      0x08\n      0x00\n        /* \"contracts/TimbGovernance.sol\":4147:4173  totalVotingPower -= amount */\n      dup3\n      dup3\n      sload\n      tag_321\n      swap2\n      swap1\n      tag_320\n      jump\t// in\n    tag_321:\n      swap1\n      swap2\n      sstore\n      pop\n      pop\n        /* \"contracts/TimbGovernance.sol\":4183:4217  timbsToken.transfer(voter, amount) */\n      mload(0x40)\n      shl(0xe0, 0xa9059cbb)\n      dup2\n      mstore\n      sub(shl(0xa0, 0x01), 0x01)\n        /* \"#utility.yul\":11968:12000   */\n      dup4\n      dup2\n      and\n        /* \"contracts/TimbGovernance.sol\":4183:4217  timbsToken.transfer(voter, amount) */\n      0x04\n      dup4\n      add\n        /* \"#utility.yul\":11950:12001   */\n      mstore\n        /* \"#utility.yul\":12017:12035   */\n      0x24\n      dup3\n      add\n        /* \"#utility.yul\":12010:12044   */\n      dup6\n      swap1\n      mstore\n        /* \"contracts/TimbGovernance.sol\":4183:4193  timbsToken */\n      immutable(\"0x5a93a2dc92091af230683d15d3257a435cf66aed689fda6017f4307513f6d5be\")\n        /* \"contracts/TimbGovernance.sol\":4183:4202  timbsToken.transfer */\n      and\n      swap1\n      0xa9059cbb\n      swap1\n        /* \"#utility.yul\":11923:11941   */\n      0x44\n      add\n        /* \"contracts/TimbGovernance.sol\":4183:4217  timbsToken.transfer(voter, amount) */\n      0x20\n      mload(0x40)\n      dup1\n      dup4\n      sub\n      dup2\n      0x00\n      dup8\n      gas\n      call\n      iszero\n      dup1\n      iszero\n      tag_325\n      jumpi\n      returndatasize\n      0x00\n      dup1\n      returndatacopy\n      revert(0x00, returndatasize)\n    tag_325:\n      pop\n      pop\n      pop\n      pop\n      mload(0x40)\n      returndatasize\n      not(0x1f)\n      0x1f\n      dup3\n      add\n      and\n      dup3\n      add\n      dup1\n      0x40\n      mstore\n      pop\n      dup2\n      add\n      swap1\n      tag_326\n      swap2\n      swap1\n      tag_327\n      jump\t// in\n    tag_326:\n      pop\n        /* \"contracts/TimbGovernance.sol\":4253:4258  voter */\n      dup2\n      sub(shl(0xa0, 0x01), 0x01)\n        /* \"contracts/TimbGovernance.sol\":4232:4267  VotingPowerWithdrawn(voter, amount) */\n      and\n      0xdefd0bf5dc03b8d2b38cde1df73c28c35f2ee89f828f110ed9c50f67a800e527\n        /* \"contracts/TimbGovernance.sol\":4260:4266  amount */\n      dup5\n        /* \"contracts/TimbGovernance.sol\":4232:4267  VotingPowerWithdrawn(voter, amount) */\n      mload(0x40)\n      tag_235\n      swap2\n        /* \"#utility.yul\":2619:2644   */\n      dup2\n      mstore\n        /* \"#utility.yul\":2607:2609   */\n      0x20\n        /* \"#utility.yul\":2592:2610   */\n      add\n      swap1\n        /* \"#utility.yul\":2473:2650   */\n      jump\n        /* \"contracts/TimbGovernance.sol\":3248:3578  function depositVotingPower(uint256 amount) external nonReentrant {... */\n    tag_111:\n        /* \"@openzeppelin/contracts/utils/ReentrancyGuard.sol\":3023:3044  _nonReentrantBefore() */\n      tag_331\n        /* \"@openzeppelin/contracts/utils/ReentrancyGuard.sol\":3023:3042  _nonReentrantBefore */\n      tag_201\n        /* \"@openzeppelin/contracts/utils/ReentrancyGuard.sol\":3023:3044  _nonReentrantBefore() */\n      jump\t// in\n    tag_331:\n        /* \"contracts/TimbGovernance.sol\":3328:3334  amount */\n      dup1\n        /* \"contracts/TimbGovernance.sol\":3338:3339  0 */\n      0x00\n        /* \"contracts/TimbGovernance.sol\":3328:3339  amount == 0 */\n      sub\n        /* \"contracts/TimbGovernance.sol\":3324:3360  if (amount == 0) revert ZeroAmount() */\n      tag_333\n      jumpi\n        /* \"contracts/TimbGovernance.sol\":3348:3360  ZeroAmount() */\n      mload(0x40)\n      shl(0xe0, 0x1f2a2005)\n      dup2\n      mstore\n      0x04\n      add\n      mload(0x40)\n      dup1\n      swap2\n      sub\n      swap1\n      revert\n        /* \"contracts/TimbGovernance.sol\":3324:3360  if (amount == 0) revert ZeroAmount() */\n    tag_333:\n        /* \"contracts/TimbGovernance.sol\":3370:3428  timbsToken.transferFrom(msg.sender, address(this), amount) */\n      mload(0x40)\n      shl(0xe0, 0x23b872dd)\n      dup2\n      mstore\n        /* \"contracts/TimbGovernance.sol\":3394:3404  msg.sender */\n      caller\n        /* \"contracts/TimbGovernance.sol\":3370:3428  timbsToken.transferFrom(msg.sender, address(this), amount) */\n      0x04\n      dup3\n      add\n        /* \"#utility.yul\":12545:12579   */\n      mstore\n        /* \"contracts/TimbGovernance.sol\":3414:3418  this */\n      address\n        /* \"#utility.yul\":12595:12613   */\n      0x24\n      dup3\n      add\n        /* \"#utility.yul\":12588:12631   */\n      mstore\n        /* \"#utility.yul\":12647:12665   */\n      0x44\n      dup2\n      add\n        /* \"#utility.yul\":12640:12674   */\n      dup3\n      swap1\n      mstore\n        /* \"contracts/TimbGovernance.sol\":3370:3380  timbsToken */\n      immutable(\"0x5a93a2dc92091af230683d15d3257a435cf66aed689fda6017f4307513f6d5be\")\n      sub(shl(0xa0, 0x01), 0x01)\n        /* \"contracts/TimbGovernance.sol\":3370:3393  timbsToken.transferFrom */\n      and\n      swap1\n      0x23b872dd\n      swap1\n        /* \"#utility.yul\":12480:12498   */\n      0x64\n      add\n        /* \"contracts/TimbGovernance.sol\":3370:3428  timbsToken.transferFrom(msg.sender, address(this), amount) */\n      0x20\n      mload(0x40)\n      dup1\n      dup4\n      sub\n      dup2\n      0x00\n      dup8\n      gas\n      call\n      iszero\n      dup1\n      iszero\n      tag_337\n      jumpi\n      returndatasize\n      0x00\n      dup1\n      returndatacopy\n      revert(0x00, returndatasize)\n    tag_337:\n      pop\n      pop\n      pop\n      pop\n      mload(0x40)\n      returndatasize\n      not(0x1f)\n      0x1f\n      dup3\n      add\n      and\n      dup3\n      add\n      dup1\n      0x40\n      mstore\n      pop\n      dup2\n      add\n      swap1\n      tag_338\n      swap2\n      swap1\n      tag_327\n      jump\t// in\n    tag_338:\n      pop\n        /* \"contracts/TimbGovernance.sol\":3459:3469  msg.sender */\n      caller\n        /* \"contracts/TimbGovernance.sol\":3438:3470  votingPowerDeposited[msg.sender] */\n      0x00\n      swap1\n      dup2\n      mstore\n        /* \"contracts/TimbGovernance.sol\":3438:3458  votingPowerDeposited */\n      0x07\n        /* \"contracts/TimbGovernance.sol\":3438:3470  votingPowerDeposited[msg.sender] */\n      0x20\n      mstore\n      0x40\n      dup2\n      keccak256\n        /* \"contracts/TimbGovernance.sol\":3438:3480  votingPowerDeposited[msg.sender] += amount */\n      dup1\n      sload\n        /* \"contracts/TimbGovernance.sol\":3474:3480  amount */\n      dup4\n      swap3\n        /* \"contracts/TimbGovernance.sol\":3438:3470  votingPowerDeposited[msg.sender] */\n      swap1\n        /* \"contracts/TimbGovernance.sol\":3438:3480  votingPowerDeposited[msg.sender] += amount */\n      tag_339\n      swap1\n        /* \"contracts/TimbGovernance.sol\":3474:3480  amount */\n      dup5\n      swap1\n        /* \"contracts/TimbGovernance.sol\":3438:3480  votingPowerDeposited[msg.sender] += amount */\n      tag_250\n      jump\t// in\n    tag_339:\n      swap3\n      pop\n      pop\n      dup2\n      swap1\n      sstore\n      pop\n        /* \"contracts/TimbGovernance.sol\":3510:3516  amount */\n      dup1\n        /* \"contracts/TimbGovernance.sol\":3490:3506  totalVotingPower */\n      0x08\n      0x00\n        /* \"contracts/TimbGovernance.sol\":3490:3516  totalVotingPower += amount */\n      dup3\n      dup3\n      sload\n      tag_340\n      swap2\n      swap1\n      tag_250\n      jump\t// in\n    tag_340:\n      swap1\n      swap2\n      sstore\n      pop\n      pop\n        /* \"contracts/TimbGovernance.sol\":3531:3571  VotingPowerDeposited(msg.sender, amount) */\n      mload(0x40)\n        /* \"#utility.yul\":2619:2644   */\n      dup2\n      dup2\n      mstore\n        /* \"contracts/TimbGovernance.sol\":3552:3562  msg.sender */\n      caller\n      swap1\n        /* \"contracts/TimbGovernance.sol\":3531:3571  VotingPowerDeposited(msg.sender, amount) */\n      0xb17583f19c82654a9992a9e782dd7419a0581acdcc5383f28e9b419137ae716d\n      swap1\n        /* \"#utility.yul\":2607:2609   */\n      0x20\n        /* \"#utility.yul\":2592:2610   */\n      add\n        /* \"contracts/TimbGovernance.sol\":3531:3571  VotingPowerDeposited(msg.sender, amount) */\n      mload(0x40)\n      dup1\n      swap2\n      sub\n      swap1\n      log2\n        /* \"@openzeppelin/contracts/utils/ReentrancyGuard.sol\":3065:3085  _nonReentrantAfter() */\n      tag_236\n        /* \"@openzeppelin/contracts/utils/ReentrancyGuard.sol\":2365:2366  1 */\n      0x01\n      0x00\n      dup1\n      mload\n      0x20\n      data_c8669cf8eaf883002b9f48e28846a8d408c9b58ea6613bace374265e43c9bc43\n      dup4\n      codecopy\n      dup2\n      mload\n      swap2\n      mstore\n        /* \"@openzeppelin/contracts/utils/ReentrancyGuard.sol\":3972:4034  _reentrancyGuardStorageSlot().getUint256Slot().value = ENTERED */\n      sstore\n        /* \"@openzeppelin/contracts/utils/ReentrancyGuard.sol\":3749:4041  function _nonReentrantBefore() private {... */\n      jump\n        /* \"contracts/TimbGovernance.sol\":9925:10180  function getProposal(uint256 proposalId)... */\n    tag_122:\n        /* \"contracts/TimbGovernance.sol\":9997:10014  Proposal memory p */\n      tag_344\n      tag_345\n      jump\t// in\n    tag_344:\n        /* \"contracts/TimbGovernance.sol\":10016:10041  ProposalStatus liveStatus */\n      0x00\n        /* \"contracts/TimbGovernance.sol\":10061:10070  proposals */\n      0x06\n        /* \"contracts/TimbGovernance.sol\":10061:10082  proposals[proposalId] */\n      0x00\n        /* \"contracts/TimbGovernance.sol\":10071:10081  proposalId */\n      dup5\n        /* \"contracts/TimbGovernance.sol\":10061:10082  proposals[proposalId] */\n      dup2\n      mstore\n      0x20\n      add\n      swap1\n      dup2\n      mstore\n      0x20\n      add\n      0x00\n      keccak256\n        /* \"contracts/TimbGovernance.sol\":10057:10082  p = proposals[proposalId] */\n      mload(0x40)\n      dup1\n      0x01a0\n      add\n      0x40\n      mstore\n      swap1\n      dup2\n      0x00\n      dup3\n      add\n      sload\n      dup2\n      mstore\n      0x20\n      add\n      0x01\n      dup3\n      add\n      dup1\n      sload\n      tag_347\n      swap1\n      tag_170\n      jump\t// in\n    tag_347:\n      dup1\n      0x1f\n      add\n      0x20\n      dup1\n      swap2\n      div\n      mul\n      0x20\n      add\n      mload(0x40)\n      swap1\n      dup2\n      add\n      0x40\n      mstore\n      dup1\n      swap3\n      swap2\n      swap1\n      dup2\n      dup2\n      mstore\n      0x20\n      add\n      dup3\n      dup1\n      sload\n      tag_348\n      swap1\n      tag_170\n      jump\t// in\n    tag_348:\n      dup1\n      iszero\n      tag_349\n      jumpi\n      dup1\n      0x1f\n      lt\n      tag_350\n      jumpi\n      0x0100\n      dup1\n      dup4\n      sload\n      div\n      mul\n      dup4\n      mstore\n      swap2\n      0x20\n      add\n      swap2\n      jump(tag_349)\n    tag_350:\n      dup3\n      add\n      swap2\n      swap1\n      0x00\n      mstore\n      keccak256(0x00, 0x20)\n      swap1\n    tag_351:\n      dup2\n      sload\n      dup2\n      mstore\n      swap1\n      0x01\n      add\n      swap1\n      0x20\n      add\n      dup1\n      dup4\n      gt\n      tag_351\n      jumpi\n      dup3\n      swap1\n      sub\n      0x1f\n      and\n      dup3\n      add\n      swap2\n    tag_349:\n      pop\n      pop\n      pop\n      pop\n      pop\n      dup2\n      mstore\n      0x20\n      add\n      0x02\n      dup3\n      add\n      dup1\n      sload\n      tag_352\n      swap1\n      tag_170\n      jump\t// in\n    tag_352:\n      dup1\n      0x1f\n      add\n      0x20\n      dup1\n      swap2\n      div\n      mul\n      0x20\n      add\n      mload(0x40)\n      swap1\n      dup2\n      add\n      0x40\n      mstore\n      dup1\n      swap3\n      swap2\n      swap1\n      dup2\n      dup2\n      mstore\n      0x20\n      add\n      dup3\n      dup1\n      sload\n      tag_353\n      swap1\n      tag_170\n      jump\t// in\n    tag_353:\n      dup1\n      iszero\n      tag_354\n      jumpi\n      dup1\n      0x1f\n      lt\n      tag_355\n      jumpi\n      0x0100\n      dup1\n      dup4\n      sload\n      div\n      mul\n      dup4\n      mstore\n      swap2\n      0x20\n      add\n      swap2\n      jump(tag_354)\n    tag_355:\n      dup3\n      add\n      swap2\n      swap1\n      0x00\n      mstore\n      keccak256(0x00, 0x20)\n      swap1\n    tag_356:\n      dup2\n      sload\n      dup2\n      mstore\n      swap1\n      0x01\n      add\n      swap1\n      0x20\n      add\n      dup1\n      dup4\n      gt\n      tag_356\n      jumpi\n      dup3\n      swap1\n      sub\n      0x1f\n      and\n      dup3\n      add\n      swap2\n    tag_354:\n      pop\n      pop\n      pop\n      swap2\n      dup4\n      mstore\n      pop\n      pop\n      0x03\n      dup3\n      add\n      sload\n      sub(shl(0xa0, 0x01), 0x01)\n      and\n      0x20\n      dup3\n      add\n      mstore\n      0x04\n      dup3\n      add\n      sload\n      0x40\n      dup3\n      add\n      mstore\n      0x05\n      dup1\n      dup4\n      add\n      sload\n      0x60\n      dup4\n      add\n      mstore\n      0x06\n      dup4\n      add\n      sload\n      0x80\n      dup4\n      add\n      mstore\n      0x07\n      dup4\n      add\n      sload\n      0xa0\n      dup4\n      add\n      mstore\n      0x08\n      dup4\n      add\n      sload\n      0xc0\n      dup4\n      add\n      mstore\n      0x09\n      dup4\n      add\n      sload\n      0xe0\n      dup4\n      add\n      mstore\n      0x0a\n      dup4\n      add\n      sload\n      0x0100\n      dup4\n      add\n      mstore\n      0x0b\n      dup4\n      add\n      sload\n      0x0120\n      swap1\n      swap3\n      add\n      swap2\n      0xff\n      and\n      swap1\n      dup2\n      gt\n      iszero\n      tag_358\n      jumpi\n      tag_358\n      tag_154\n      jump\t// in\n    tag_358:\n      0x05\n      dup2\n      gt\n      iszero\n      tag_360\n      jumpi\n      tag_360\n      tag_154\n      jump\t// in\n    tag_360:\n      dup2\n      mstore\n      0x0b\n      swap2\n      swap1\n      swap2\n      add\n      sload\n      0x0100\n      swap1\n      div\n      0xff\n      and\n      iszero\n      iszero\n      0x20\n      swap1\n      swap2\n      add\n      mstore\n        /* \"contracts/TimbGovernance.sol\":10096:10100  p.id */\n      dup1\n      mload\n      swap1\n      swap3\n      pop\n      0x00\n        /* \"contracts/TimbGovernance.sol\":10096:10105  p.id == 0 */\n      sub\n        /* \"contracts/TimbGovernance.sol\":10092:10132  if (p.id == 0) revert ProposalNotFound() */\n      tag_361\n      jumpi\n        /* \"contracts/TimbGovernance.sol\":10114:10132  ProposalNotFound() */\n      mload(0x40)\n      shl(0xe0, 0x635e8737)\n      dup2\n      mstore\n      0x04\n      add\n      mload(0x40)\n      dup1\n      swap2\n      sub\n      swap1\n      revert\n        /* \"contracts/TimbGovernance.sol\":10092:10132  if (p.id == 0) revert ProposalNotFound() */\n    tag_361:\n        /* \"contracts/TimbGovernance.sol\":10155:10173  _resolvedStatus(p) */\n      tag_362\n        /* \"contracts/TimbGovernance.sol\":10171:10172  p */\n      dup3\n        /* \"contracts/TimbGovernance.sol\":10155:10170  _resolvedStatus */\n      tag_223\n        /* \"contracts/TimbGovernance.sol\":10155:10173  _resolvedStatus(p) */\n      jump\t// in\n    tag_362:\n        /* \"contracts/TimbGovernance.sol\":10142:10173  liveStatus = _resolvedStatus(p) */\n      swap1\n      pop\n        /* \"contracts/TimbGovernance.sol\":9925:10180  function getProposal(uint256 proposalId)... */\n      swap2\n      pop\n      swap2\n      jump\t// out\n        /* \"contracts/TimbGovernance.sol\":10314:10670  function quorumReached(uint256 proposalId) external view returns (bool) {... */\n    tag_134:\n        /* \"contracts/TimbGovernance.sol\":10380:10384  bool */\n      0x00\n        /* \"contracts/TimbGovernance.sol\":10417:10438  proposals[proposalId] */\n      dup2\n      dup2\n      mstore\n        /* \"contracts/TimbGovernance.sol\":10417:10426  proposals */\n      0x06\n        /* \"contracts/TimbGovernance.sol\":10417:10438  proposals[proposalId] */\n      0x20\n      mstore\n      0x40\n      dup2\n      keccak256\n        /* \"contracts/TimbGovernance.sol\":10452:10456  p.id */\n      dup1\n      sload\n        /* \"contracts/TimbGovernance.sol\":10452:10461  p.id == 0 */\n      dup3\n      sub\n        /* \"contracts/TimbGovernance.sol\":10448:10475  if (p.id == 0) return false */\n      tag_364\n      jumpi\n      pop\n        /* \"contracts/TimbGovernance.sol\":10470:10475  false */\n      0x00\n      swap3\n        /* \"contracts/TimbGovernance.sol\":10314:10670  function quorumReached(uint256 proposalId) external view returns (bool) {... */\n      swap2\n      pop\n      pop\n      jump\t// out\n        /* \"contracts/TimbGovernance.sol\":10448:10475  if (p.id == 0) return false */\n    tag_364:\n        /* \"contracts/TimbGovernance.sol\":10485:10503  uint256 totalVotes */\n      0x00\n        /* \"contracts/TimbGovernance.sol\":10519:10520  p */\n      dup2\n        /* \"contracts/TimbGovernance.sol\":10519:10533  p.againstVotes */\n      0x09\n      add\n      sload\n        /* \"contracts/TimbGovernance.sol\":10506:10507  p */\n      dup3\n        /* \"contracts/TimbGovernance.sol\":10506:10516  p.forVotes */\n      0x08\n      add\n      sload\n        /* \"contracts/TimbGovernance.sol\":10506:10533  p.forVotes + p.againstVotes */\n      tag_365\n      swap2\n      swap1\n      tag_250\n      jump\t// in\n    tag_365:\n        /* \"contracts/TimbGovernance.sol\":10485:10533  uint256 totalVotes = p.forVotes + p.againstVotes */\n      swap1\n      pop\n        /* \"contracts/TimbGovernance.sol\":10543:10565  uint256 quorumRequired */\n      0x00\n        /* \"contracts/TimbGovernance.sol\":1022:1028  10_000 */\n      0x2710\n        /* \"contracts/TimbGovernance.sol\":10590:10599  quorumBps */\n      sload(0x02)\n        /* \"contracts/TimbGovernance.sol\":10569:10570  p */\n      dup5\n        /* \"contracts/TimbGovernance.sol\":10569:10587  p.totalVotingPower */\n      0x0a\n      add\n      sload\n        /* \"contracts/TimbGovernance.sol\":10569:10599  p.totalVotingPower * quorumBps */\n      tag_366\n      swap2\n      swap1\n      tag_367\n      jump\t// in\n    tag_366:\n        /* \"contracts/TimbGovernance.sol\":10568:10618  (p.totalVotingPower * quorumBps) / BPS_DENOMINATOR */\n      tag_368\n      swap2\n      swap1\n      tag_369\n      jump\t// in\n    tag_368:\n        /* \"contracts/TimbGovernance.sol\":10635:10663  totalVotes >= quorumRequired */\n      swap1\n      swap2\n      lt\n      iszero\n      swap5\n        /* \"contracts/TimbGovernance.sol\":10314:10670  function quorumReached(uint256 proposalId) external view returns (bool) {... */\n      swap4\n      pop\n      pop\n      pop\n      pop\n      jump\t// out\n        /* \"contracts/TimbGovernance.sol\":9621:9817  function setVotingPeriod(uint256 _period) external onlyOwner {... */\n    tag_141:\n        /* \"@openzeppelin/contracts/access/Ownable.sol\":1531:1544  _checkOwner() */\n      tag_371\n        /* \"@openzeppelin/contracts/access/Ownable.sol\":1531:1542  _checkOwner */\n      tag_204\n        /* \"@openzeppelin/contracts/access/Ownable.sol\":1531:1544  _checkOwner() */\n      jump\t// in\n    tag_371:\n        /* \"contracts/TimbGovernance.sol\":912:918  1 days */\n      0x015180\n        /* \"contracts/TimbGovernance.sol\":9696:9703  _period */\n      dup2\n        /* \"contracts/TimbGovernance.sol\":9696:9723  _period < MIN_VOTING_PERIOD */\n      lt\n        /* \"contracts/TimbGovernance.sol\":9696:9754  _period < MIN_VOTING_PERIOD || _period > MAX_VOTING_PERIOD */\n      dup1\n      tag_373\n      jumpi\n      pop\n        /* \"contracts/TimbGovernance.sol\":855:862  30 days */\n      0x278d00\n        /* \"contracts/TimbGovernance.sol\":9727:9734  _period */\n      dup2\n        /* \"contracts/TimbGovernance.sol\":9727:9754  _period > MAX_VOTING_PERIOD */\n      gt\n        /* \"contracts/TimbGovernance.sol\":9696:9754  _period < MIN_VOTING_PERIOD || _period > MAX_VOTING_PERIOD */\n    tag_373:\n        /* \"contracts/TimbGovernance.sol\":9692:9778  if (_period < MIN_VOTING_PERIOD || _period > MAX_VOTING_PERIOD) revert InvalidPeriod() */\n      iszero\n      tag_374\n      jumpi\n        /* \"contracts/TimbGovernance.sol\":9763:9778  InvalidPeriod() */\n      mload(0x40)\n      shl(0xe3, 0x02e8f359)\n      dup2\n      mstore\n      0x04\n      add\n      mload(0x40)\n      dup1\n      swap2\n      sub\n      swap1\n      revert\n        /* \"contracts/TimbGovernance.sol\":9692:9778  if (_period < MIN_VOTING_PERIOD || _period > MAX_VOTING_PERIOD) revert InvalidPeriod() */\n    tag_374:\n        /* \"contracts/TimbGovernance.sol\":9788:9800  votingPeriod */\n      0x03\n        /* \"contracts/TimbGovernance.sol\":9788:9810  votingPeriod = _period */\n      sstore\n        /* \"contracts/TimbGovernance.sol\":9621:9817  function setVotingPeriod(uint256 _period) external onlyOwner {... */\n      jump\t// out\n        /* \"contracts/TimbGovernance.sol\":9348:9464  function setProposalThreshold(uint256 _threshold) external onlyOwner {... */\n    tag_144:\n        /* \"@openzeppelin/contracts/access/Ownable.sol\":1531:1544  _checkOwner() */\n      tag_376\n        /* \"@openzeppelin/contracts/access/Ownable.sol\":1531:1542  _checkOwner */\n      tag_204\n        /* \"@openzeppelin/contracts/access/Ownable.sol\":1531:1544  _checkOwner() */\n      jump\t// in\n    tag_376:\n        /* \"contracts/TimbGovernance.sol\":9427:9444  proposalThreshold */\n      0x01\n        /* \"contracts/TimbGovernance.sol\":9427:9457  proposalThreshold = _threshold */\n      sstore\n        /* \"contracts/TimbGovernance.sol\":9348:9464  function setProposalThreshold(uint256 _threshold) external onlyOwner {... */\n      jump\t// out\n        /* \"@openzeppelin/contracts/access/Ownable.sol\":2543:2758  function transferOwnership(address newOwner) public virtual onlyOwner {... */\n    tag_147:\n        /* \"@openzeppelin/contracts/access/Ownable.sol\":1531:1544  _checkOwner() */\n      tag_379\n        /* \"@openzeppelin/contracts/access/Ownable.sol\":1531:1542  _checkOwner */\n      tag_204\n        /* \"@openzeppelin/contracts/access/Ownable.sol\":1531:1544  _checkOwner() */\n      jump\t// in\n    tag_379:\n      sub(shl(0xa0, 0x01), 0x01)\n        /* \"@openzeppelin/contracts/access/Ownable.sol\":2627:2649  newOwner == address(0) */\n      dup2\n      and\n        /* \"@openzeppelin/contracts/access/Ownable.sol\":2623:2714  if (newOwner == address(0)) {... */\n      tag_381\n      jumpi\n        /* \"@openzeppelin/contracts/access/Ownable.sol\":2672:2703  OwnableInvalidOwner(address(0)) */\n      mload(0x40)\n      shl(0xe0, 0x1e4fbdf7)\n      dup2\n      mstore\n        /* \"@openzeppelin/contracts/access/Ownable.sol\":2700:2701  0 */\n      0x00\n        /* \"@openzeppelin/contracts/access/Ownable.sol\":2672:2703  OwnableInvalidOwner(address(0)) */\n      0x04\n      dup3\n      add\n        /* \"#utility.yul\":2815:2866   */\n      mstore\n        /* \"#utility.yul\":2788:2806   */\n      0x24\n      add\n        /* \"@openzeppelin/contracts/access/Ownable.sol\":2672:2703  OwnableInvalidOwner(address(0)) */\n      tag_151\n        /* \"#utility.yul\":2655:2872   */\n      jump\n        /* \"@openzeppelin/contracts/access/Ownable.sol\":2623:2714  if (newOwner == address(0)) {... */\n    tag_381:\n        /* \"@openzeppelin/contracts/access/Ownable.sol\":2723:2751  _transferOwnership(newOwner) */\n      tag_236\n        /* \"@openzeppelin/contracts/access/Ownable.sol\":2742:2750  newOwner */\n      dup2\n        /* \"@openzeppelin/contracts/access/Ownable.sol\":2723:2741  _transferOwnership */\n      tag_297\n        /* \"@openzeppelin/contracts/access/Ownable.sol\":2723:2751  _transferOwnership(newOwner) */\n      jump\t// in\n        /* \"contracts/TimbGovernance.sol\":8250:8696  function _computeOutcome(Proposal memory p) internal view returns (ProposalStatus) {... */\n    tag_184:\n        /* \"contracts/TimbGovernance.sol\":8317:8331  ProposalStatus */\n      0x00\n        /* \"contracts/TimbGovernance.sol\":8343:8361  uint256 totalVotes */\n      dup1\n        /* \"contracts/TimbGovernance.sol\":8377:8378  p */\n      dup3\n        /* \"contracts/TimbGovernance.sol\":8377:8391  p.againstVotes */\n      0x0120\n      add\n      mload\n        /* \"contracts/TimbGovernance.sol\":8364:8365  p */\n      dup4\n        /* \"contracts/TimbGovernance.sol\":8364:8374  p.forVotes */\n      0x0100\n      add\n      mload\n        /* \"contracts/TimbGovernance.sol\":8364:8391  p.forVotes + p.againstVotes */\n      tag_385\n      swap2\n      swap1\n      tag_250\n      jump\t// in\n    tag_385:\n        /* \"contracts/TimbGovernance.sol\":8343:8391  uint256 totalVotes = p.forVotes + p.againstVotes */\n      swap1\n      pop\n        /* \"contracts/TimbGovernance.sol\":8401:8423  uint256 quorumRequired */\n      0x00\n        /* \"contracts/TimbGovernance.sol\":1022:1028  10_000 */\n      0x2710\n        /* \"contracts/TimbGovernance.sol\":8448:8457  quorumBps */\n      sload(0x02)\n        /* \"contracts/TimbGovernance.sol\":8427:8428  p */\n      dup6\n        /* \"contracts/TimbGovernance.sol\":8427:8445  p.totalVotingPower */\n      0x0140\n      add\n      mload\n        /* \"contracts/TimbGovernance.sol\":8427:8457  p.totalVotingPower * quorumBps */\n      tag_386\n      swap2\n      swap1\n      tag_367\n      jump\t// in\n    tag_386:\n        /* \"contracts/TimbGovernance.sol\":8426:8476  (p.totalVotingPower * quorumBps) / BPS_DENOMINATOR */\n      tag_387\n      swap2\n      swap1\n      tag_369\n      jump\t// in\n    tag_387:\n        /* \"contracts/TimbGovernance.sol\":8401:8476  uint256 quorumRequired = (p.totalVotingPower * quorumBps) / BPS_DENOMINATOR */\n      swap1\n      pop\n        /* \"contracts/TimbGovernance.sol\":8511:8512  0 */\n      0x00\n        /* \"contracts/TimbGovernance.sol\":8490:8491  p */\n      dup5\n        /* \"contracts/TimbGovernance.sol\":8490:8508  p.totalVotingPower */\n      0x0140\n      add\n      mload\n        /* \"contracts/TimbGovernance.sol\":8490:8512  p.totalVotingPower > 0 */\n      gt\n        /* \"contracts/TimbGovernance.sol\":8490:8543  p.totalVotingPower > 0 && totalVotes < quorumRequired */\n      dup1\n      iszero\n      tag_388\n      jumpi\n      pop\n        /* \"contracts/TimbGovernance.sol\":8529:8543  quorumRequired */\n      dup1\n        /* \"contracts/TimbGovernance.sol\":8516:8526  totalVotes */\n      dup3\n        /* \"contracts/TimbGovernance.sol\":8516:8543  totalVotes < quorumRequired */\n      lt\n        /* \"contracts/TimbGovernance.sol\":8490:8543  p.totalVotingPower > 0 && totalVotes < quorumRequired */\n    tag_388:\n        /* \"contracts/TimbGovernance.sol\":8486:8598  if (p.totalVotingPower > 0 && totalVotes < quorumRequired) {... */\n      iszero\n      tag_389\n      jumpi\n      pop\n        /* \"contracts/TimbGovernance.sol\":8566:8587  ProposalStatus.Failed */\n      0x03\n      swap4\n        /* \"contracts/TimbGovernance.sol\":8250:8696  function _computeOutcome(Proposal memory p) internal view returns (ProposalStatus) {... */\n      swap3\n      pop\n      pop\n      pop\n      jump\t// out\n        /* \"contracts/TimbGovernance.sol\":8486:8598  if (p.totalVotingPower > 0 && totalVotes < quorumRequired) {... */\n    tag_389:\n        /* \"contracts/TimbGovernance.sol\":8627:8628  p */\n      dup4\n        /* \"contracts/TimbGovernance.sol\":8627:8641  p.againstVotes */\n      0x0120\n      add\n      mload\n        /* \"contracts/TimbGovernance.sol\":8614:8615  p */\n      dup5\n        /* \"contracts/TimbGovernance.sol\":8614:8624  p.forVotes */\n      0x0100\n      add\n      mload\n        /* \"contracts/TimbGovernance.sol\":8614:8641  p.forVotes > p.againstVotes */\n      gt\n        /* \"contracts/TimbGovernance.sol\":8614:8689  p.forVotes > p.againstVotes ? ProposalStatus.Passed : ProposalStatus.Failed */\n      tag_390\n      jumpi\n        /* \"contracts/TimbGovernance.sol\":8668:8689  ProposalStatus.Failed */\n      0x03\n        /* \"contracts/TimbGovernance.sol\":8614:8689  p.forVotes > p.againstVotes ? ProposalStatus.Passed : ProposalStatus.Failed */\n      jump(tag_391)\n    tag_390:\n        /* \"contracts/TimbGovernance.sol\":8644:8665  ProposalStatus.Passed */\n      0x02\n        /* \"contracts/TimbGovernance.sol\":8614:8689  p.forVotes > p.againstVotes ? ProposalStatus.Passed : ProposalStatus.Failed */\n    tag_391:\n        /* \"contracts/TimbGovernance.sol\":8607:8689  return p.forVotes > p.againstVotes ? ProposalStatus.Passed : ProposalStatus.Failed */\n      swap5\n        /* \"contracts/TimbGovernance.sol\":8250:8696  function _computeOutcome(Proposal memory p) internal view returns (ProposalStatus) {... */\n      swap4\n      pop\n      pop\n      pop\n      pop\n      jump\t// out\n        /* \"@openzeppelin/contracts/utils/ReentrancyGuard.sol\":3749:4041  function _nonReentrantBefore() private {... */\n    tag_201:\n        /* \"@openzeppelin/contracts/utils/ReentrancyGuard.sol\":3872:3897  _nonReentrantBeforeView() */\n      tag_393\n        /* \"@openzeppelin/contracts/utils/ReentrancyGuard.sol\":3872:3895  _nonReentrantBeforeView */\n      tag_394\n        /* \"@openzeppelin/contracts/utils/ReentrancyGuard.sol\":3872:3897  _nonReentrantBeforeView() */\n      jump\t// in\n    tag_393:\n        /* \"@openzeppelin/contracts/utils/ReentrancyGuard.sol\":2407:2408  2 */\n      0x02\n      0x00\n      dup1\n      mload\n      0x20\n      data_c8669cf8eaf883002b9f48e28846a8d408c9b58ea6613bace374265e43c9bc43\n      dup4\n      codecopy\n      dup2\n      mload\n      swap2\n      mstore\n        /* \"@openzeppelin/contracts/utils/ReentrancyGuard.sol\":3972:4034  _reentrancyGuardStorageSlot().getUint256Slot().value = ENTERED */\n      sstore\n        /* \"@openzeppelin/contracts/utils/ReentrancyGuard.sol\":3749:4041  function _nonReentrantBefore() private {... */\n      jump\t// out\n        /* \"@openzeppelin/contracts/access/Ownable.sol\":1796:1958  function _checkOwner() internal view virtual {... */\n    tag_204:\n        /* \"@openzeppelin/contracts/access/Ownable.sol\":1684:1691  address */\n      0x00\n        /* \"@openzeppelin/contracts/access/Ownable.sol\":1710:1716  _owner */\n      sload\n      sub(shl(0xa0, 0x01), 0x01)\n      and\n        /* \"@openzeppelin/contracts/utils/Context.sol\":735:745  msg.sender */\n      caller\n        /* \"@openzeppelin/contracts/access/Ownable.sol\":1855:1878  owner() != _msgSender() */\n      eq\n        /* \"@openzeppelin/contracts/access/Ownable.sol\":1851:1952  if (owner() != _msgSender()) {... */\n      tag_296\n      jumpi\n        /* \"@openzeppelin/contracts/access/Ownable.sol\":1901:1941  OwnableUnauthorizedAccount(_msgSender()) */\n      mload(0x40)\n      shl(0xe0, 0x118cdaa7)\n      dup2\n      mstore\n        /* \"@openzeppelin/contracts/utils/Context.sol\":735:745  msg.sender */\n      caller\n        /* \"@openzeppelin/contracts/access/Ownable.sol\":1901:1941  OwnableUnauthorizedAccount(_msgSender()) */\n      0x04\n      dup3\n      add\n        /* \"#utility.yul\":2815:2866   */\n      mstore\n        /* \"#utility.yul\":2788:2806   */\n      0x24\n      add\n        /* \"@openzeppelin/contracts/access/Ownable.sol\":1901:1941  OwnableUnauthorizedAccount(_msgSender()) */\n      tag_151\n        /* \"#utility.yul\":2655:2872   */\n      jump\n        /* \"contracts/TimbGovernance.sol\":8702:9342  function _resolvedStatus(Proposal memory p) internal view returns (ProposalStatus) {... */\n    tag_223:\n        /* \"contracts/TimbGovernance.sol\":8826:8834  p.status */\n      0x0160\n      dup2\n      add\n      mload\n        /* \"contracts/TimbGovernance.sol\":8769:8783  ProposalStatus */\n      0x00\n      swap1\n        /* \"contracts/TimbGovernance.sol\":8865:8888  ProposalStatus.Executed */\n      0x04\n        /* \"contracts/TimbGovernance.sol\":8848:8861  currentStatus */\n      dup2\n        /* \"contracts/TimbGovernance.sol\":8848:8888  currentStatus == ProposalStatus.Executed */\n      0x05\n      dup2\n      gt\n      iszero\n      tag_410\n      jumpi\n      tag_410\n      tag_154\n      jump\t// in\n    tag_410:\n      eq\n        /* \"contracts/TimbGovernance.sol\":8848:8942  currentStatus == ProposalStatus.Executed ||... */\n      dup1\n      tag_411\n      jumpi\n      pop\n        /* \"contracts/TimbGovernance.sol\":8921:8942  ProposalStatus.Failed */\n      0x03\n        /* \"contracts/TimbGovernance.sol\":8904:8917  currentStatus */\n      dup2\n        /* \"contracts/TimbGovernance.sol\":8904:8942  currentStatus == ProposalStatus.Failed */\n      0x05\n      dup2\n      gt\n      iszero\n      tag_415\n      jumpi\n      tag_415\n      tag_154\n      jump\t// in\n    tag_415:\n      eq\n        /* \"contracts/TimbGovernance.sol\":8848:8942  currentStatus == ProposalStatus.Executed ||... */\n    tag_411:\n        /* \"contracts/TimbGovernance.sol\":8848:8997  currentStatus == ProposalStatus.Executed ||... */\n      dup1\n      tag_416\n      jumpi\n      pop\n        /* \"contracts/TimbGovernance.sol\":8975:8997  ProposalStatus.Expired */\n      0x05\n        /* \"contracts/TimbGovernance.sol\":8958:8971  currentStatus */\n      dup2\n        /* \"contracts/TimbGovernance.sol\":8958:8997  currentStatus == ProposalStatus.Expired */\n      0x05\n      dup2\n      gt\n      iszero\n      tag_420\n      jumpi\n      tag_420\n      tag_154\n      jump\t// in\n    tag_420:\n      eq\n        /* \"contracts/TimbGovernance.sol\":8848:8997  currentStatus == ProposalStatus.Executed ||... */\n    tag_416:\n        /* \"contracts/TimbGovernance.sol\":8844:9044  if (currentStatus == ProposalStatus.Executed ||... */\n      iszero\n      tag_421\n      jumpi\n        /* \"contracts/TimbGovernance.sol\":9020:9033  currentStatus */\n      swap3\n        /* \"contracts/TimbGovernance.sol\":8702:9342  function _resolvedStatus(Proposal memory p) internal view returns (ProposalStatus) {... */\n      swap2\n      pop\n      pop\n      jump\t// out\n        /* \"contracts/TimbGovernance.sol\":8844:9044  if (currentStatus == ProposalStatus.Executed ||... */\n    tag_421:\n        /* \"contracts/TimbGovernance.sol\":9076:9077  p */\n      dup3\n        /* \"contracts/TimbGovernance.sol\":9076:9090  p.votingEndsAt */\n      0xc0\n      add\n      mload\n        /* \"contracts/TimbGovernance.sol\":9057:9072  block.timestamp */\n      timestamp\n        /* \"contracts/TimbGovernance.sol\":9057:9090  block.timestamp <= p.votingEndsAt */\n      gt\n        /* \"contracts/TimbGovernance.sol\":9053:9112  if (block.timestamp <= p.votingEndsAt) return currentStatus */\n      tag_422\n      jumpi\n        /* \"contracts/TimbGovernance.sol\":9099:9112  currentStatus */\n      swap3\n        /* \"contracts/TimbGovernance.sol\":8702:9342  function _resolvedStatus(Proposal memory p) internal view returns (ProposalStatus) {... */\n      swap2\n      pop\n      pop\n      jump\t// out\n        /* \"contracts/TimbGovernance.sol\":9053:9112  if (block.timestamp <= p.votingEndsAt) return currentStatus */\n    tag_422:\n        /* \"contracts/TimbGovernance.sol\":9123:9146  ProposalStatus computed */\n      0x00\n        /* \"contracts/TimbGovernance.sol\":9149:9167  _computeOutcome(p) */\n      tag_423\n        /* \"contracts/TimbGovernance.sol\":9165:9166  p */\n      dup5\n        /* \"contracts/TimbGovernance.sol\":9149:9164  _computeOutcome */\n      tag_184\n        /* \"contracts/TimbGovernance.sol\":9149:9167  _computeOutcome(p) */\n      jump\t// in\n    tag_423:\n        /* \"contracts/TimbGovernance.sol\":9123:9167  ProposalStatus computed = _computeOutcome(p) */\n      swap1\n      pop\n        /* \"contracts/TimbGovernance.sol\":9193:9214  ProposalStatus.Passed */\n      0x02\n        /* \"contracts/TimbGovernance.sol\":9181:9189  computed */\n      dup2\n        /* \"contracts/TimbGovernance.sol\":9181:9214  computed == ProposalStatus.Passed */\n      0x05\n      dup2\n      gt\n      iszero\n      tag_427\n      jumpi\n      tag_427\n      tag_154\n      jump\t// in\n    tag_427:\n      eq\n        /* \"contracts/TimbGovernance.sol\":9181:9255  computed == ProposalStatus.Passed && block.timestamp > p.executionDeadline */\n      dup1\n      iszero\n      tag_428\n      jumpi\n      pop\n        /* \"contracts/TimbGovernance.sol\":9236:9237  p */\n      dup4\n        /* \"contracts/TimbGovernance.sol\":9236:9255  p.executionDeadline */\n      0xe0\n      add\n      mload\n        /* \"contracts/TimbGovernance.sol\":9218:9233  block.timestamp */\n      timestamp\n        /* \"contracts/TimbGovernance.sol\":9218:9255  block.timestamp > p.executionDeadline */\n      gt\n        /* \"contracts/TimbGovernance.sol\":9181:9255  computed == ProposalStatus.Passed && block.timestamp > p.executionDeadline */\n    tag_428:\n        /* \"contracts/TimbGovernance.sol\":9177:9311  if (computed == ProposalStatus.Passed && block.timestamp > p.executionDeadline) {... */\n      iszero\n      tag_429\n      jumpi\n      pop\n        /* \"contracts/TimbGovernance.sol\":9278:9300  ProposalStatus.Expired */\n      0x05\n      swap4\n        /* \"contracts/TimbGovernance.sol\":8702:9342  function _resolvedStatus(Proposal memory p) internal view returns (ProposalStatus) {... */\n      swap3\n      pop\n      pop\n      pop\n      jump\t// out\n        /* \"contracts/TimbGovernance.sol\":9177:9311  if (computed == ProposalStatus.Passed && block.timestamp > p.executionDeadline) {... */\n    tag_429:\n        /* \"contracts/TimbGovernance.sol\":9327:9335  computed */\n      swap4\n        /* \"contracts/TimbGovernance.sol\":8702:9342  function _resolvedStatus(Proposal memory p) internal view returns (ProposalStatus) {... */\n      swap3\n      pop\n      pop\n      pop\n      jump\t// out\n        /* \"@openzeppelin/contracts/access/Ownable.sol\":2912:3099  function _transferOwnership(address newOwner) internal virtual {... */\n    tag_297:\n        /* \"@openzeppelin/contracts/access/Ownable.sol\":2985:3001  address oldOwner */\n      0x00\n        /* \"@openzeppelin/contracts/access/Ownable.sol\":3004:3010  _owner */\n      dup1\n      sload\n      sub(shl(0xa0, 0x01), 0x01)\n        /* \"@openzeppelin/contracts/access/Ownable.sol\":3020:3037  _owner = newOwner */\n      dup4\n      dup2\n      and\n      not(sub(shl(0xa0, 0x01), 0x01))\n      dup4\n      and\n      dup2\n      or\n      dup5\n      sstore\n        /* \"@openzeppelin/contracts/access/Ownable.sol\":3052:3092  OwnershipTransferred(oldOwner, newOwner) */\n      mload(0x40)\n        /* \"@openzeppelin/contracts/access/Ownable.sol\":3004:3010  _owner */\n      swap2\n      swap1\n      swap3\n      and\n      swap3\n      dup4\n      swap2\n        /* \"@openzeppelin/contracts/access/Ownable.sol\":3052:3092  OwnershipTransferred(oldOwner, newOwner) */\n      0x8be0079c531659141344cd1fd0a4f28419497f9722a3daafe3b4186f6b6457e0\n      swap2\n        /* \"@openzeppelin/contracts/access/Ownable.sol\":2985:3001  address oldOwner */\n      swap1\n        /* \"@openzeppelin/contracts/access/Ownable.sol\":3052:3092  OwnershipTransferred(oldOwner, newOwner) */\n      log3\n        /* \"@openzeppelin/contracts/access/Ownable.sol\":2975:3099  {... */\n      pop\n        /* \"@openzeppelin/contracts/access/Ownable.sol\":2912:3099  function _transferOwnership(address newOwner) internal virtual {... */\n      pop\n      jump\t// out\n        /* \"contracts/TimbGovernance.sol\":4280:4815  function _isLocked(Proposal storage p) internal view returns (bool) {... */\n    tag_316:\n        /* \"contracts/TimbGovernance.sol\":4377:4385  p.status */\n      0x0b\n      dup2\n      add\n      sload\n        /* \"contracts/TimbGovernance.sol\":4342:4346  bool */\n      0x00\n      swap1\n        /* \"contracts/TimbGovernance.sol\":4377:4385  p.status */\n      0xff\n      and\n        /* \"contracts/TimbGovernance.sol\":4404:4427  ProposalStatus.Executed */\n      0x04\n        /* \"contracts/TimbGovernance.sol\":4399:4400  s */\n      dup2\n        /* \"contracts/TimbGovernance.sol\":4399:4427  s == ProposalStatus.Executed */\n      0x05\n      dup2\n      gt\n      iszero\n      tag_438\n      jumpi\n      tag_438\n      tag_154\n      jump\t// in\n    tag_438:\n      eq\n        /* \"contracts/TimbGovernance.sol\":4399:4457  s == ProposalStatus.Executed || s == ProposalStatus.Failed */\n      dup1\n      tag_439\n      jumpi\n      pop\n        /* \"contracts/TimbGovernance.sol\":4436:4457  ProposalStatus.Failed */\n      0x03\n        /* \"contracts/TimbGovernance.sol\":4431:4432  s */\n      dup2\n        /* \"contracts/TimbGovernance.sol\":4431:4457  s == ProposalStatus.Failed */\n      0x05\n      dup2\n      gt\n      iszero\n      tag_443\n      jumpi\n      tag_443\n      tag_154\n      jump\t// in\n    tag_443:\n      eq\n        /* \"contracts/TimbGovernance.sol\":4399:4457  s == ProposalStatus.Executed || s == ProposalStatus.Failed */\n    tag_439:\n        /* \"contracts/TimbGovernance.sol\":4399:4488  s == ProposalStatus.Executed || s == ProposalStatus.Failed || s == ProposalStatus.Expired */\n      dup1\n      tag_444\n      jumpi\n      pop\n        /* \"contracts/TimbGovernance.sol\":4466:4488  ProposalStatus.Expired */\n      0x05\n        /* \"contracts/TimbGovernance.sol\":4461:4462  s */\n      dup2\n        /* \"contracts/TimbGovernance.sol\":4461:4488  s == ProposalStatus.Expired */\n      0x05\n      dup2\n      gt\n      iszero\n      tag_448\n      jumpi\n      tag_448\n      tag_154\n      jump\t// in\n    tag_448:\n      eq\n        /* \"contracts/TimbGovernance.sol\":4399:4488  s == ProposalStatus.Executed || s == ProposalStatus.Failed || s == ProposalStatus.Expired */\n    tag_444:\n        /* \"contracts/TimbGovernance.sol\":4395:4527  if (s == ProposalStatus.Executed || s == ProposalStatus.Failed || s == ProposalStatus.Expired) {... */\n      iszero\n      tag_449\n      jumpi\n      pop\n        /* \"contracts/TimbGovernance.sol\":4511:4516  false */\n      0x00\n      swap3\n        /* \"contracts/TimbGovernance.sol\":4280:4815  function _isLocked(Proposal storage p) internal view returns (bool) {... */\n      swap2\n      pop\n      pop\n      jump\t// out\n        /* \"contracts/TimbGovernance.sol\":4395:4527  if (s == ProposalStatus.Executed || s == ProposalStatus.Failed || s == ProposalStatus.Expired) {... */\n    tag_449:\n        /* \"contracts/TimbGovernance.sol\":4559:4560  p */\n      dup3\n        /* \"contracts/TimbGovernance.sol\":4559:4573  p.votingEndsAt */\n      0x06\n      add\n      sload\n        /* \"contracts/TimbGovernance.sol\":4540:4555  block.timestamp */\n      timestamp\n        /* \"contracts/TimbGovernance.sol\":4540:4573  block.timestamp <= p.votingEndsAt */\n      gt\n        /* \"contracts/TimbGovernance.sol\":4536:4608  if (block.timestamp <= p.votingEndsAt) return s == ProposalStatus.Active */\n      tag_450\n      jumpi\n        /* \"contracts/TimbGovernance.sol\":4587:4608  ProposalStatus.Active */\n      0x01\n        /* \"contracts/TimbGovernance.sol\":4582:4608  s == ProposalStatus.Active */\n    tag_452:\n        /* \"contracts/TimbGovernance.sol\":4582:4583  s */\n      dup2\n        /* \"contracts/TimbGovernance.sol\":4582:4608  s == ProposalStatus.Active */\n      0x05\n      dup2\n      gt\n      iszero\n      tag_454\n      jumpi\n      tag_454\n      tag_154\n      jump\t// in\n    tag_454:\n      eq\n      swap4\n        /* \"contracts/TimbGovernance.sol\":4280:4815  function _isLocked(Proposal storage p) internal view returns (bool) {... */\n      swap3\n      pop\n      pop\n      pop\n      jump\t// out\n        /* \"contracts/TimbGovernance.sol\":4536:4608  if (block.timestamp <= p.votingEndsAt) return s == ProposalStatus.Active */\n    tag_450:\n        /* \"contracts/TimbGovernance.sol\":4622:4640  _computeOutcome(p) */\n      tag_455\n        /* \"contracts/TimbGovernance.sol\":4638:4639  p */\n      dup4\n        /* \"contracts/TimbGovernance.sol\":4622:4640  _computeOutcome(p) */\n      mload(0x40)\n      dup1\n      0x01a0\n      add\n      0x40\n      mstore\n      swap1\n      dup2\n      0x00\n      dup3\n      add\n      sload\n      dup2\n      mstore\n      0x20\n      add\n      0x01\n      dup3\n      add\n      dup1\n      sload\n      tag_169\n      swap1\n      tag_170\n      jump\t// in\n    tag_455:\n        /* \"contracts/TimbGovernance.sol\":4618:4640  s = _computeOutcome(p) */\n      swap1\n      pop\n        /* \"contracts/TimbGovernance.sol\":4659:4680  ProposalStatus.Passed */\n      0x02\n        /* \"contracts/TimbGovernance.sol\":4654:4655  s */\n      dup2\n        /* \"contracts/TimbGovernance.sol\":4654:4680  s == ProposalStatus.Passed */\n      0x05\n      dup2\n      gt\n      iszero\n      tag_473\n      jumpi\n      tag_473\n      tag_154\n      jump\t// in\n    tag_473:\n      eq\n        /* \"contracts/TimbGovernance.sol\":4654:4721  s == ProposalStatus.Passed && block.timestamp > p.executionDeadline */\n      dup1\n      iszero\n      tag_474\n      jumpi\n      pop\n        /* \"contracts/TimbGovernance.sol\":4702:4703  p */\n      dup3\n        /* \"contracts/TimbGovernance.sol\":4702:4721  p.executionDeadline */\n      0x07\n      add\n      sload\n        /* \"contracts/TimbGovernance.sol\":4684:4699  block.timestamp */\n      timestamp\n        /* \"contracts/TimbGovernance.sol\":4684:4721  block.timestamp > p.executionDeadline */\n      gt\n        /* \"contracts/TimbGovernance.sol\":4654:4721  s == ProposalStatus.Passed && block.timestamp > p.executionDeadline */\n    tag_474:\n        /* \"contracts/TimbGovernance.sol\":4650:4735  if (s == ProposalStatus.Passed && block.timestamp > p.executionDeadline) return false */\n      iszero\n      tag_475\n      jumpi\n      pop\n        /* \"contracts/TimbGovernance.sol\":4730:4735  false */\n      0x00\n      swap3\n        /* \"contracts/TimbGovernance.sol\":4280:4815  function _isLocked(Proposal storage p) internal view returns (bool) {... */\n      swap2\n      pop\n      pop\n      jump\t// out\n        /* \"contracts/TimbGovernance.sol\":4650:4735  if (s == ProposalStatus.Passed && block.timestamp > p.executionDeadline) return false */\n    tag_475:\n        /* \"contracts/TimbGovernance.sol\":4757:4778  ProposalStatus.Active */\n      0x01\n        /* \"contracts/TimbGovernance.sol\":4752:4753  s */\n      dup2\n        /* \"contracts/TimbGovernance.sol\":4752:4778  s == ProposalStatus.Active */\n      0x05\n      dup2\n      gt\n      iszero\n      tag_479\n      jumpi\n      tag_479\n      tag_154\n      jump\t// in\n    tag_479:\n      eq\n        /* \"contracts/TimbGovernance.sol\":4752:4808  s == ProposalStatus.Active || s == ProposalStatus.Passed */\n      dup1\n      tag_429\n      jumpi\n      pop\n        /* \"contracts/TimbGovernance.sol\":4787:4808  ProposalStatus.Passed */\n      0x02\n        /* \"contracts/TimbGovernance.sol\":4782:4808  s == ProposalStatus.Passed */\n      jump(tag_452)\n        /* \"@openzeppelin/contracts/utils/ReentrancyGuard.sol\":3586:3743  function _nonReentrantBeforeView() private view {... */\n    tag_394:\n      0x00\n      dup1\n      mload\n      0x20\n      data_c8669cf8eaf883002b9f48e28846a8d408c9b58ea6613bace374265e43c9bc43\n      dup4\n      codecopy\n      dup2\n      mload\n      swap2\n      mstore\n        /* \"@openzeppelin/contracts/utils/ReentrancyGuard.sol\":4560:4612  _reentrancyGuardStorageSlot().getUint256Slot().value */\n      sload\n        /* \"@openzeppelin/contracts/utils/ReentrancyGuard.sol\":2407:2408  2 */\n      0x02\n        /* \"@openzeppelin/contracts/utils/ReentrancyGuard.sol\":4560:4623  _reentrancyGuardStorageSlot().getUint256Slot().value == ENTERED */\n      sub\n        /* \"@openzeppelin/contracts/utils/ReentrancyGuard.sol\":3644:3737  if (_reentrancyGuardEntered()) {... */\n      tag_296\n      jumpi\n        /* \"@openzeppelin/contracts/utils/ReentrancyGuard.sol\":3696:3726  ReentrancyGuardReentrantCall() */\n      mload(0x40)\n      shl(0xe0, 0x3ee5aeb5)\n      dup2\n      mstore\n      0x04\n      add\n      mload(0x40)\n      dup1\n      swap2\n      sub\n      swap1\n      revert\n    tag_345:\n      mload(0x40)\n      dup1\n      0x01a0\n      add\n      0x40\n      mstore\n      dup1\n      0x00\n      dup2\n      mstore\n      0x20\n      add\n      0x60\n      dup2\n      mstore\n      0x20\n      add\n      0x60\n      dup2\n      mstore\n      0x20\n      add\n      and(sub(shl(0xa0, 0x01), 0x01), 0x00)\n      dup2\n      mstore\n      0x20\n      add\n      0x00\n      dup2\n      mstore\n      0x20\n      add\n      0x00\n      dup2\n      mstore\n      0x20\n      add\n      0x00\n      dup2\n      mstore\n      0x20\n      add\n      0x00\n      dup2\n      mstore\n      0x20\n      add\n      0x00\n      dup2\n      mstore\n      0x20\n      add\n      0x00\n      dup2\n      mstore\n      0x20\n      add\n      0x00\n      dup2\n      mstore\n      0x20\n      add\n      0x00\n      0x05\n      dup2\n      gt\n      iszero\n      tag_496\n      jumpi\n      tag_496\n      tag_154\n      jump\t// in\n    tag_496:\n      dup2\n      mstore\n      0x00\n      0x20\n      swap1\n      swap2\n      add\n      mstore\n      swap1\n      jump\t// out\n        /* \"#utility.yul\":14:194   */\n    tag_42:\n        /* \"#utility.yul\":73:79   */\n      0x00\n        /* \"#utility.yul\":126:128   */\n      0x20\n        /* \"#utility.yul\":114:123   */\n      dup3\n        /* \"#utility.yul\":105:112   */\n      dup5\n        /* \"#utility.yul\":101:124   */\n      sub\n        /* \"#utility.yul\":97:129   */\n      slt\n        /* \"#utility.yul\":94:146   */\n      iszero\n      tag_511\n      jumpi\n        /* \"#utility.yul\":142:143   */\n      0x00\n        /* \"#utility.yul\":139:140   */\n      dup1\n        /* \"#utility.yul\":132:144   */\n      revert\n        /* \"#utility.yul\":94:146   */\n    tag_511:\n      pop\n        /* \"#utility.yul\":165:188   */\n      calldataload\n      swap2\n        /* \"#utility.yul\":14:194   */\n      swap1\n      pop\n      jump\t// out\n        /* \"#utility.yul\":199:622   */\n    tag_497:\n        /* \"#utility.yul\":241:244   */\n      0x00\n        /* \"#utility.yul\":279:284   */\n      dup2\n        /* \"#utility.yul\":273:285   */\n      mload\n        /* \"#utility.yul\":306:312   */\n      dup1\n        /* \"#utility.yul\":301:304   */\n      dup5\n        /* \"#utility.yul\":294:313   */\n      mstore\n        /* \"#utility.yul\":331:332   */\n      0x00\n        /* \"#utility.yul\":341:503   */\n    tag_513:\n        /* \"#utility.yul\":355:361   */\n      dup2\n        /* \"#utility.yul\":352:353   */\n      dup2\n        /* \"#utility.yul\":349:362   */\n      lt\n        /* \"#utility.yul\":341:503   */\n      iszero\n      tag_515\n      jumpi\n        /* \"#utility.yul\":417:421   */\n      0x20\n        /* \"#utility.yul\":473:486   */\n      dup2\n      dup6\n      add\n        /* \"#utility.yul\":469:491   */\n      dup2\n      add\n        /* \"#utility.yul\":463:492   */\n      mload\n        /* \"#utility.yul\":445:456   */\n      dup7\n      dup4\n      add\n        /* \"#utility.yul\":441:461   */\n      dup3\n      add\n        /* \"#utility.yul\":434:493   */\n      mstore\n        /* \"#utility.yul\":370:382   */\n      add\n        /* \"#utility.yul\":341:503   */\n      jump(tag_513)\n    tag_515:\n        /* \"#utility.yul\":345:348   */\n      pop\n        /* \"#utility.yul\":548:549   */\n      0x00\n        /* \"#utility.yul\":541:545   */\n      0x20\n        /* \"#utility.yul\":532:538   */\n      dup3\n        /* \"#utility.yul\":527:530   */\n      dup7\n        /* \"#utility.yul\":523:539   */\n      add\n        /* \"#utility.yul\":519:546   */\n      add\n        /* \"#utility.yul\":512:550   */\n      mstore\n        /* \"#utility.yul\":611:615   */\n      0x20\n        /* \"#utility.yul\":604:606   */\n      0x1f\n        /* \"#utility.yul\":600:607   */\n      not\n        /* \"#utility.yul\":595:597   */\n      0x1f\n        /* \"#utility.yul\":587:593   */\n      dup4\n        /* \"#utility.yul\":583:598   */\n      add\n        /* \"#utility.yul\":579:608   */\n      and\n        /* \"#utility.yul\":574:577   */\n      dup6\n        /* \"#utility.yul\":570:609   */\n      add\n        /* \"#utility.yul\":566:616   */\n      add\n        /* \"#utility.yul\":559:616   */\n      swap2\n      pop\n      pop\n        /* \"#utility.yul\":199:622   */\n      swap3\n      swap2\n      pop\n      pop\n      jump\t// out\n        /* \"#utility.yul\":736:863   */\n    tag_154:\n        /* \"#utility.yul\":797:807   */\n      0x4e487b71\n        /* \"#utility.yul\":792:795   */\n      0xe0\n        /* \"#utility.yul\":788:808   */\n      shl\n        /* \"#utility.yul\":785:786   */\n      0x00\n        /* \"#utility.yul\":778:809   */\n      mstore\n        /* \"#utility.yul\":828:832   */\n      0x21\n        /* \"#utility.yul\":825:826   */\n      0x04\n        /* \"#utility.yul\":818:833   */\n      mstore\n        /* \"#utility.yul\":852:856   */\n      0x24\n        /* \"#utility.yul\":849:850   */\n      0x00\n        /* \"#utility.yul\":842:857   */\n      revert\n        /* \"#utility.yul\":868:1110   */\n    tag_499:\n        /* \"#utility.yul\":954:955   */\n      0x06\n        /* \"#utility.yul\":947:952   */\n      dup2\n        /* \"#utility.yul\":944:956   */\n      lt\n        /* \"#utility.yul\":934:1077   */\n      tag_519\n      jumpi\n        /* \"#utility.yul\":999:1009   */\n      0x4e487b71\n        /* \"#utility.yul\":994:997   */\n      0xe0\n        /* \"#utility.yul\":990:1010   */\n      shl\n        /* \"#utility.yul\":987:988   */\n      0x00\n        /* \"#utility.yul\":980:1011   */\n      mstore\n        /* \"#utility.yul\":1034:1038   */\n      0x21\n        /* \"#utility.yul\":1031:1032   */\n      0x04\n        /* \"#utility.yul\":1024:1039   */\n      mstore\n        /* \"#utility.yul\":1062:1066   */\n      0x24\n        /* \"#utility.yul\":1059:1060   */\n      0x00\n        /* \"#utility.yul\":1052:1067   */\n      revert\n        /* \"#utility.yul\":934:1077   */\n    tag_519:\n        /* \"#utility.yul\":1086:1104   */\n      swap1\n      mstore\n        /* \"#utility.yul\":868:1110   */\n      jump\t// out\n        /* \"#utility.yul\":1211:2468   */\n    tag_48:\n        /* \"#utility.yul\":1729:1735   */\n      dup14\n        /* \"#utility.yul\":1718:1727   */\n      dup2\n        /* \"#utility.yul\":1711:1736   */\n      mstore\n        /* \"#utility.yul\":1772:1775   */\n      0x01a0\n        /* \"#utility.yul\":1767:1769   */\n      0x20\n        /* \"#utility.yul\":1756:1765   */\n      dup3\n        /* \"#utility.yul\":1752:1770   */\n      add\n        /* \"#utility.yul\":1745:1776   */\n      mstore\n        /* \"#utility.yul\":1692:1696   */\n      0x00\n        /* \"#utility.yul\":1799:1845   */\n      tag_522\n        /* \"#utility.yul\":1840:1843   */\n      0x01a0\n        /* \"#utility.yul\":1829:1838   */\n      dup4\n        /* \"#utility.yul\":1825:1844   */\n      add\n        /* \"#utility.yul\":1817:1823   */\n      dup16\n        /* \"#utility.yul\":1799:1845   */\n      tag_497\n      jump\t// in\n    tag_522:\n        /* \"#utility.yul\":1893:1902   */\n      dup3\n        /* \"#utility.yul\":1885:1891   */\n      dup2\n        /* \"#utility.yul\":1881:1903   */\n      sub\n        /* \"#utility.yul\":1876:1878   */\n      0x40\n        /* \"#utility.yul\":1865:1874   */\n      dup5\n        /* \"#utility.yul\":1861:1879   */\n      add\n        /* \"#utility.yul\":1854:1904   */\n      mstore\n        /* \"#utility.yul\":1921:1954   */\n      tag_523\n        /* \"#utility.yul\":1947:1953   */\n      dup2\n        /* \"#utility.yul\":1939:1945   */\n      dup16\n        /* \"#utility.yul\":1921:1954   */\n      tag_497\n      jump\t// in\n    tag_523:\n        /* \"#utility.yul\":1913:1954   */\n      swap2\n      pop\n      pop\n        /* \"#utility.yul\":2019:2020   */\n      0x01\n        /* \"#utility.yul\":2015:2016   */\n      dup1\n        /* \"#utility.yul\":2010:2013   */\n      0xa0\n        /* \"#utility.yul\":2006:2017   */\n      shl\n        /* \"#utility.yul\":2002:2021   */\n      sub\n        /* \"#utility.yul\":1994:2000   */\n      dup13\n        /* \"#utility.yul\":1990:2022   */\n      and\n        /* \"#utility.yul\":1985:1987   */\n      0x60\n        /* \"#utility.yul\":1974:1983   */\n      dup4\n        /* \"#utility.yul\":1970:1988   */\n      add\n        /* \"#utility.yul\":1963:2023   */\n      mstore\n        /* \"#utility.yul\":2060:2066   */\n      dup11\n        /* \"#utility.yul\":2054:2057   */\n      0x80\n        /* \"#utility.yul\":2043:2052   */\n      dup4\n        /* \"#utility.yul\":2039:2058   */\n      add\n        /* \"#utility.yul\":2032:2067   */\n      mstore\n        /* \"#utility.yul\":2104:2110   */\n      dup10\n        /* \"#utility.yul\":2098:2101   */\n      0xa0\n        /* \"#utility.yul\":2087:2096   */\n      dup4\n        /* \"#utility.yul\":2083:2102   */\n      add\n        /* \"#utility.yul\":2076:2111   */\n      mstore\n        /* \"#utility.yul\":2148:2154   */\n      dup9\n        /* \"#utility.yul\":2142:2145   */\n      0xc0\n        /* \"#utility.yul\":2131:2140   */\n      dup4\n        /* \"#utility.yul\":2127:2146   */\n      add\n        /* \"#utility.yul\":2120:2155   */\n      mstore\n        /* \"#utility.yul\":2192:2198   */\n      dup8\n        /* \"#utility.yul\":2186:2189   */\n      0xe0\n        /* \"#utility.yul\":2175:2184   */\n      dup4\n        /* \"#utility.yul\":2171:2190   */\n      add\n        /* \"#utility.yul\":2164:2199   */\n      mstore\n        /* \"#utility.yul\":2236:2242   */\n      dup7\n        /* \"#utility.yul\":2230:2233   */\n      0x0100\n        /* \"#utility.yul\":2219:2228   */\n      dup4\n        /* \"#utility.yul\":2215:2234   */\n      add\n        /* \"#utility.yul\":2208:2243   */\n      mstore\n        /* \"#utility.yul\":2280:2286   */\n      dup6\n        /* \"#utility.yul\":2274:2277   */\n      0x0120\n        /* \"#utility.yul\":2263:2272   */\n      dup4\n        /* \"#utility.yul\":2259:2278   */\n      add\n        /* \"#utility.yul\":2252:2287   */\n      mstore\n        /* \"#utility.yul\":2324:2331   */\n      dup5\n        /* \"#utility.yul\":2318:2321   */\n      0x0140\n        /* \"#utility.yul\":2307:2316   */\n      dup4\n        /* \"#utility.yul\":2303:2322   */\n      add\n        /* \"#utility.yul\":2296:2332   */\n      mstore\n        /* \"#utility.yul\":2341:2401   */\n      tag_524\n        /* \"#utility.yul\":2396:2399   */\n      0x0160\n        /* \"#utility.yul\":2385:2394   */\n      dup4\n        /* \"#utility.yul\":2381:2400   */\n      add\n        /* \"#utility.yul\":2372:2379   */\n      dup6\n        /* \"#utility.yul\":2341:2401   */\n      tag_499\n      jump\t// in\n    tag_524:\n        /* \"#utility.yul\":2452:2459   */\n      dup3\n        /* \"#utility.yul\":2445:2460   */\n      iszero\n        /* \"#utility.yul\":2438:2461   */\n      iszero\n        /* \"#utility.yul\":2432:2435   */\n      0x0180\n        /* \"#utility.yul\":2421:2430   */\n      dup4\n        /* \"#utility.yul\":2417:2436   */\n      add\n        /* \"#utility.yul\":2410:2462   */\n      mstore\n        /* \"#utility.yul\":1211:2468   */\n      swap15\n      swap14\n      pop\n      pop\n      pop\n      pop\n      pop\n      pop\n      pop\n      pop\n      pop\n      pop\n      pop\n      pop\n      pop\n      pop\n      jump\t// out\n        /* \"#utility.yul\":2877:2995   */\n    tag_501:\n        /* \"#utility.yul\":2963:2968   */\n      dup1\n        /* \"#utility.yul\":2956:2969   */\n      iszero\n        /* \"#utility.yul\":2949:2970   */\n      iszero\n        /* \"#utility.yul\":2942:2947   */\n      dup2\n        /* \"#utility.yul\":2939:2971   */\n      eq\n        /* \"#utility.yul\":2929:2989   */\n      tag_236\n      jumpi\n        /* \"#utility.yul\":2985:2986   */\n      0x00\n        /* \"#utility.yul\":2982:2983   */\n      dup1\n        /* \"#utility.yul\":2975:2987   */\n      revert\n        /* \"#utility.yul\":3000:3309   */\n    tag_62:\n        /* \"#utility.yul\":3065:3071   */\n      0x00\n        /* \"#utility.yul\":3073:3079   */\n      dup1\n        /* \"#utility.yul\":3126:3128   */\n      0x40\n        /* \"#utility.yul\":3114:3123   */\n      dup4\n        /* \"#utility.yul\":3105:3112   */\n      dup6\n        /* \"#utility.yul\":3101:3124   */\n      sub\n        /* \"#utility.yul\":3097:3129   */\n      slt\n        /* \"#utility.yul\":3094:3146   */\n      iszero\n      tag_530\n      jumpi\n        /* \"#utility.yul\":3142:3143   */\n      0x00\n        /* \"#utility.yul\":3139:3140   */\n      dup1\n        /* \"#utility.yul\":3132:3144   */\n      revert\n        /* \"#utility.yul\":3094:3146   */\n    tag_530:\n        /* \"#utility.yul\":3178:3187   */\n      dup3\n        /* \"#utility.yul\":3165:3188   */\n      calldataload\n        /* \"#utility.yul\":3155:3188   */\n      swap2\n      pop\n        /* \"#utility.yul\":3238:3240   */\n      0x20\n        /* \"#utility.yul\":3227:3236   */\n      dup4\n        /* \"#utility.yul\":3223:3241   */\n      add\n        /* \"#utility.yul\":3210:3242   */\n      calldataload\n        /* \"#utility.yul\":3251:3279   */\n      tag_531\n        /* \"#utility.yul\":3273:3278   */\n      dup2\n        /* \"#utility.yul\":3251:3279   */\n      tag_501\n      jump\t// in\n    tag_531:\n        /* \"#utility.yul\":3298:3303   */\n      dup1\n        /* \"#utility.yul\":3288:3303   */\n      swap2\n      pop\n      pop\n        /* \"#utility.yul\":3000:3309   */\n      swap3\n      pop\n      swap3\n      swap1\n      pop\n      jump\t// out\n        /* \"#utility.yul\":3314:3487   */\n    tag_502:\n        /* \"#utility.yul\":3382:3402   */\n      dup1\n      calldataload\n      sub(shl(0xa0, 0x01), 0x01)\n        /* \"#utility.yul\":3431:3462   */\n      dup2\n      and\n        /* \"#utility.yul\":3421:3463   */\n      dup2\n      eq\n        /* \"#utility.yul\":3411:3481   */\n      tag_533\n      jumpi\n        /* \"#utility.yul\":3477:3478   */\n      0x00\n        /* \"#utility.yul\":3474:3475   */\n      dup1\n        /* \"#utility.yul\":3467:3479   */\n      revert\n        /* \"#utility.yul\":3411:3481   */\n    tag_533:\n        /* \"#utility.yul\":3314:3487   */\n      swap2\n      swap1\n      pop\n      jump\t// out\n        /* \"#utility.yul\":3492:3746   */\n    tag_75:\n        /* \"#utility.yul\":3560:3566   */\n      0x00\n        /* \"#utility.yul\":3568:3574   */\n      dup1\n        /* \"#utility.yul\":3621:3623   */\n      0x40\n        /* \"#utility.yul\":3609:3618   */\n      dup4\n        /* \"#utility.yul\":3600:3607   */\n      dup6\n        /* \"#utility.yul\":3596:3619   */\n      sub\n        /* \"#utility.yul\":3592:3624   */\n      slt\n        /* \"#utility.yul\":3589:3641   */\n      iszero\n      tag_535\n      jumpi\n        /* \"#utility.yul\":3637:3638   */\n      0x00\n        /* \"#utility.yul\":3634:3635   */\n      dup1\n        /* \"#utility.yul\":3627:3639   */\n      revert\n        /* \"#utility.yul\":3589:3641   */\n    tag_535:\n        /* \"#utility.yul\":3660:3689   */\n      tag_536\n        /* \"#utility.yul\":3679:3688   */\n      dup4\n        /* \"#utility.yul\":3660:3689   */\n      tag_502\n      jump\t// in\n    tag_536:\n        /* \"#utility.yul\":3650:3689   */\n      swap5\n        /* \"#utility.yul\":3736:3738   */\n      0x20\n        /* \"#utility.yul\":3721:3739   */\n      swap4\n      swap1\n      swap4\n      add\n        /* \"#utility.yul\":3708:3740   */\n      calldataload\n      swap4\n      pop\n      pop\n      pop\n        /* \"#utility.yul\":3492:3746   */\n      jump\t// out\n        /* \"#utility.yul\":3943:4291   */\n    tag_503:\n        /* \"#utility.yul\":3995:4003   */\n      0x00\n        /* \"#utility.yul\":4005:4011   */\n      dup1\n        /* \"#utility.yul\":4059:4062   */\n      dup4\n        /* \"#utility.yul\":4052:4056   */\n      0x1f\n        /* \"#utility.yul\":4044:4050   */\n      dup5\n        /* \"#utility.yul\":4040:4057   */\n      add\n        /* \"#utility.yul\":4036:4063   */\n      slt\n        /* \"#utility.yul\":4026:4081   */\n      tag_539\n      jumpi\n        /* \"#utility.yul\":4077:4078   */\n      0x00\n        /* \"#utility.yul\":4074:4075   */\n      dup1\n        /* \"#utility.yul\":4067:4079   */\n      revert\n        /* \"#utility.yul\":4026:4081   */\n    tag_539:\n      pop\n        /* \"#utility.yul\":4100:4120   */\n      dup2\n      calldataload\n        /* \"#utility.yul\":4143:4161   */\n      0xffffffffffffffff\n        /* \"#utility.yul\":4132:4162   */\n      dup2\n      gt\n        /* \"#utility.yul\":4129:4179   */\n      iszero\n      tag_540\n      jumpi\n        /* \"#utility.yul\":4175:4176   */\n      0x00\n        /* \"#utility.yul\":4172:4173   */\n      dup1\n        /* \"#utility.yul\":4165:4177   */\n      revert\n        /* \"#utility.yul\":4129:4179   */\n    tag_540:\n        /* \"#utility.yul\":4212:4216   */\n      0x20\n        /* \"#utility.yul\":4204:4210   */\n      dup4\n        /* \"#utility.yul\":4200:4217   */\n      add\n        /* \"#utility.yul\":4188:4217   */\n      swap2\n      pop\n        /* \"#utility.yul\":4264:4267   */\n      dup4\n        /* \"#utility.yul\":4257:4261   */\n      0x20\n        /* \"#utility.yul\":4248:4254   */\n      dup3\n        /* \"#utility.yul\":4240:4246   */\n      dup6\n        /* \"#utility.yul\":4236:4255   */\n      add\n        /* \"#utility.yul\":4232:4262   */\n      add\n        /* \"#utility.yul\":4229:4268   */\n      gt\n        /* \"#utility.yul\":4226:4285   */\n      iszero\n      tag_541\n      jumpi\n        /* \"#utility.yul\":4281:4282   */\n      0x00\n        /* \"#utility.yul\":4278:4279   */\n      dup1\n        /* \"#utility.yul\":4271:4283   */\n      revert\n        /* \"#utility.yul\":4226:4285   */\n    tag_541:\n        /* \"#utility.yul\":3943:4291   */\n      swap3\n      pop\n      swap3\n      swap1\n      pop\n      jump\t// out\n        /* \"#utility.yul\":4296:5017   */\n    tag_85:\n        /* \"#utility.yul\":4388:4394   */\n      0x00\n        /* \"#utility.yul\":4396:4402   */\n      dup1\n        /* \"#utility.yul\":4404:4410   */\n      0x00\n        /* \"#utility.yul\":4412:4418   */\n      dup1\n        /* \"#utility.yul\":4465:4467   */\n      0x40\n        /* \"#utility.yul\":4453:4462   */\n      dup6\n        /* \"#utility.yul\":4444:4451   */\n      dup8\n        /* \"#utility.yul\":4440:4463   */\n      sub\n        /* \"#utility.yul\":4436:4468   */\n      slt\n        /* \"#utility.yul\":4433:4485   */\n      iszero\n      tag_543\n      jumpi\n        /* \"#utility.yul\":4481:4482   */\n      0x00\n        /* \"#utility.yul\":4478:4479   */\n      dup1\n        /* \"#utility.yul\":4471:4483   */\n      revert\n        /* \"#utility.yul\":4433:4485   */\n    tag_543:\n        /* \"#utility.yul\":4521:4530   */\n      dup5\n        /* \"#utility.yul\":4508:4531   */\n      calldataload\n        /* \"#utility.yul\":4550:4568   */\n      0xffffffffffffffff\n        /* \"#utility.yul\":4591:4593   */\n      dup1\n        /* \"#utility.yul\":4583:4589   */\n      dup3\n        /* \"#utility.yul\":4580:4594   */\n      gt\n        /* \"#utility.yul\":4577:4611   */\n      iszero\n      tag_544\n      jumpi\n        /* \"#utility.yul\":4607:4608   */\n      0x00\n        /* \"#utility.yul\":4604:4605   */\n      dup1\n        /* \"#utility.yul\":4597:4609   */\n      revert\n        /* \"#utility.yul\":4577:4611   */\n    tag_544:\n        /* \"#utility.yul\":4646:4705   */\n      tag_545\n        /* \"#utility.yul\":4697:4704   */\n      dup9\n        /* \"#utility.yul\":4688:4694   */\n      dup4\n        /* \"#utility.yul\":4677:4686   */\n      dup10\n        /* \"#utility.yul\":4673:4695   */\n      add\n        /* \"#utility.yul\":4646:4705   */\n      tag_503\n      jump\t// in\n    tag_545:\n        /* \"#utility.yul\":4724:4732   */\n      swap1\n      swap7\n      pop\n        /* \"#utility.yul\":4620:4705   */\n      swap5\n      pop\n        /* \"#utility.yul\":4812:4814   */\n      0x20\n        /* \"#utility.yul\":4797:4815   */\n      dup8\n      add\n        /* \"#utility.yul\":4784:4816   */\n      calldataload\n      swap2\n      pop\n        /* \"#utility.yul\":4828:4844   */\n      dup1\n      dup3\n      gt\n        /* \"#utility.yul\":4825:4861   */\n      iszero\n      tag_546\n      jumpi\n        /* \"#utility.yul\":4857:4858   */\n      0x00\n        /* \"#utility.yul\":4854:4855   */\n      dup1\n        /* \"#utility.yul\":4847:4859   */\n      revert\n        /* \"#utility.yul\":4825:4861   */\n    tag_546:\n      pop\n        /* \"#utility.yul\":4896:4957   */\n      tag_547\n        /* \"#utility.yul\":4949:4956   */\n      dup8\n        /* \"#utility.yul\":4938:4946   */\n      dup3\n        /* \"#utility.yul\":4927:4936   */\n      dup9\n        /* \"#utility.yul\":4923:4947   */\n      add\n        /* \"#utility.yul\":4896:4957   */\n      tag_503\n      jump\t// in\n    tag_547:\n        /* \"#utility.yul\":4296:5017   */\n      swap6\n      swap9\n      swap5\n      swap8\n      pop\n        /* \"#utility.yul\":4976:4984   */\n      swap6\n      pop\n      pop\n      pop\n      pop\n        /* \"#utility.yul\":4296:5017   */\n      jump\t// out\n        /* \"#utility.yul\":5230:5416   */\n    tag_117:\n        /* \"#utility.yul\":5289:5295   */\n      0x00\n        /* \"#utility.yul\":5342:5344   */\n      0x20\n        /* \"#utility.yul\":5330:5339   */\n      dup3\n        /* \"#utility.yul\":5321:5328   */\n      dup5\n        /* \"#utility.yul\":5317:5340   */\n      sub\n        /* \"#utility.yul\":5313:5345   */\n      slt\n        /* \"#utility.yul\":5310:5362   */\n      iszero\n      tag_550\n      jumpi\n        /* \"#utility.yul\":5358:5359   */\n      0x00\n        /* \"#utility.yul\":5355:5356   */\n      dup1\n        /* \"#utility.yul\":5348:5360   */\n      revert\n        /* \"#utility.yul\":5310:5362   */\n    tag_550:\n        /* \"#utility.yul\":5381:5410   */\n      tag_429\n        /* \"#utility.yul\":5400:5409   */\n      dup3\n        /* \"#utility.yul\":5381:5410   */\n      tag_502\n      jump\t// in\n        /* \"#utility.yul\":5421:7176   */\n    tag_124:\n        /* \"#utility.yul\":5644:5646   */\n      0x40\n        /* \"#utility.yul\":5633:5642   */\n      dup2\n        /* \"#utility.yul\":5626:5647   */\n      mstore\n        /* \"#utility.yul\":5689:5695   */\n      dup3\n        /* \"#utility.yul\":5683:5696   */\n      mload\n        /* \"#utility.yul\":5678:5680   */\n      0x40\n        /* \"#utility.yul\":5667:5676   */\n      dup3\n        /* \"#utility.yul\":5663:5681   */\n      add\n        /* \"#utility.yul\":5656:5697   */\n      mstore\n        /* \"#utility.yul\":5607:5611   */\n      0x00\n        /* \"#utility.yul\":5744:5748   */\n      0x20\n        /* \"#utility.yul\":5736:5742   */\n      dup5\n        /* \"#utility.yul\":5732:5749   */\n      add\n        /* \"#utility.yul\":5726:5750   */\n      mload\n        /* \"#utility.yul\":5769:5775   */\n      0x01a0\n        /* \"#utility.yul\":5811:5813   */\n      dup1\n        /* \"#utility.yul\":5806:5808   */\n      0x60\n        /* \"#utility.yul\":5795:5804   */\n      dup6\n        /* \"#utility.yul\":5791:5809   */\n      add\n        /* \"#utility.yul\":5784:5814   */\n      mstore\n        /* \"#utility.yul\":5837:5889   */\n      tag_553\n        /* \"#utility.yul\":5884:5887   */\n      0x01e0\n        /* \"#utility.yul\":5873:5882   */\n      dup6\n        /* \"#utility.yul\":5869:5888   */\n      add\n        /* \"#utility.yul\":5855:5867   */\n      dup4\n        /* \"#utility.yul\":5837:5889   */\n      tag_497\n      jump\t// in\n    tag_553:\n        /* \"#utility.yul\":5823:5889   */\n      swap2\n      pop\n        /* \"#utility.yul\":5938:5940   */\n      0x40\n        /* \"#utility.yul\":5930:5936   */\n      dup7\n        /* \"#utility.yul\":5926:5941   */\n      add\n        /* \"#utility.yul\":5920:5942   */\n      mload\n        /* \"#utility.yul\":6011:6013   */\n      0x3f\n        /* \"#utility.yul\":6007:6014   */\n      not\n        /* \"#utility.yul\":5995:6004   */\n      dup6\n        /* \"#utility.yul\":5987:5993   */\n      dup5\n        /* \"#utility.yul\":5983:6005   */\n      sub\n        /* \"#utility.yul\":5979:6015   */\n      add\n        /* \"#utility.yul\":5973:5976   */\n      0x80\n        /* \"#utility.yul\":5962:5971   */\n      dup7\n        /* \"#utility.yul\":5958:5977   */\n      add\n        /* \"#utility.yul\":5951:6016   */\n      mstore\n        /* \"#utility.yul\":6039:6080   */\n      tag_554\n        /* \"#utility.yul\":6073:6079   */\n      dup4\n        /* \"#utility.yul\":6057:6071   */\n      dup3\n        /* \"#utility.yul\":6039:6080   */\n      tag_497\n      jump\t// in\n    tag_554:\n        /* \"#utility.yul\":6025:6080   */\n      swap3\n      pop\n      pop\n        /* \"#utility.yul\":6129:6131   */\n      0x60\n        /* \"#utility.yul\":6121:6127   */\n      dup7\n        /* \"#utility.yul\":6117:6132   */\n      add\n        /* \"#utility.yul\":6111:6133   */\n      mload\n        /* \"#utility.yul\":6142:6197   */\n      tag_555\n        /* \"#utility.yul\":6192:6195   */\n      0xa0\n        /* \"#utility.yul\":6181:6190   */\n      dup7\n        /* \"#utility.yul\":6177:6196   */\n      add\n        /* \"#utility.yul\":6161:6175   */\n      dup3\n      sub(shl(0xa0, 0x01), 0x01)\n        /* \"#utility.yul\":693:724   */\n      and\n        /* \"#utility.yul\":681:725   */\n      swap1\n      mstore\n        /* \"#utility.yul\":627:731   */\n      jump\n        /* \"#utility.yul\":6142:6197   */\n    tag_555:\n      pop\n        /* \"#utility.yul\":6252:6255   */\n      0x80\n        /* \"#utility.yul\":6244:6250   */\n      dup7\n        /* \"#utility.yul\":6240:6256   */\n      add\n        /* \"#utility.yul\":6234:6257   */\n      mload\n        /* \"#utility.yul\":6228:6231   */\n      0xc0\n        /* \"#utility.yul\":6217:6226   */\n      dup6\n        /* \"#utility.yul\":6213:6232   */\n      add\n        /* \"#utility.yul\":6206:6258   */\n      mstore\n        /* \"#utility.yul\":6313:6316   */\n      0xa0\n        /* \"#utility.yul\":6305:6311   */\n      dup7\n        /* \"#utility.yul\":6301:6317   */\n      add\n        /* \"#utility.yul\":6295:6318   */\n      mload\n        /* \"#utility.yul\":6289:6292   */\n      0xe0\n        /* \"#utility.yul\":6278:6287   */\n      dup6\n        /* \"#utility.yul\":6274:6293   */\n      add\n        /* \"#utility.yul\":6267:6319   */\n      mstore\n        /* \"#utility.yul\":6356:6359   */\n      0xc0\n        /* \"#utility.yul\":6348:6354   */\n      dup7\n        /* \"#utility.yul\":6344:6360   */\n      add\n        /* \"#utility.yul\":6338:6361   */\n      mload\n        /* \"#utility.yul\":6380:6383   */\n      0x0100\n        /* \"#utility.yul\":6419:6421   */\n      dup2\n        /* \"#utility.yul\":6414:6416   */\n      dup2\n        /* \"#utility.yul\":6403:6412   */\n      dup8\n        /* \"#utility.yul\":6399:6417   */\n      add\n        /* \"#utility.yul\":6392:6422   */\n      mstore\n        /* \"#utility.yul\":6459:6462   */\n      0xe0\n        /* \"#utility.yul\":6451:6457   */\n      dup9\n        /* \"#utility.yul\":6447:6463   */\n      add\n        /* \"#utility.yul\":6441:6464   */\n      mload\n        /* \"#utility.yul\":6431:6464   */\n      swap2\n      pop\n        /* \"#utility.yul\":6483:6486   */\n      0x0120\n        /* \"#utility.yul\":6522:6524   */\n      dup3\n        /* \"#utility.yul\":6517:6519   */\n      dup2\n        /* \"#utility.yul\":6506:6515   */\n      dup9\n        /* \"#utility.yul\":6502:6520   */\n      add\n        /* \"#utility.yul\":6495:6525   */\n      mstore\n        /* \"#utility.yul\":6562:6564   */\n      dup2\n        /* \"#utility.yul\":6554:6560   */\n      dup10\n        /* \"#utility.yul\":6550:6565   */\n      add\n        /* \"#utility.yul\":6544:6566   */\n      mload\n        /* \"#utility.yul\":6534:6566   */\n      swap3\n      pop\n        /* \"#utility.yul\":6585:6588   */\n      0x0140\n        /* \"#utility.yul\":6575:6588   */\n      swap2\n      pop\n        /* \"#utility.yul\":6624:6626   */\n      dup3\n        /* \"#utility.yul\":6619:6621   */\n      dup3\n        /* \"#utility.yul\":6608:6617   */\n      dup9\n        /* \"#utility.yul\":6604:6622   */\n      add\n        /* \"#utility.yul\":6597:6627   */\n      mstore\n        /* \"#utility.yul\":6664:6666   */\n      dup1\n        /* \"#utility.yul\":6656:6662   */\n      dup10\n        /* \"#utility.yul\":6652:6667   */\n      add\n        /* \"#utility.yul\":6646:6668   */\n      mload\n        /* \"#utility.yul\":6636:6668   */\n      swap3\n      pop\n      pop\n        /* \"#utility.yul\":6687:6690   */\n      0x0160\n        /* \"#utility.yul\":6726:6728   */\n      dup3\n        /* \"#utility.yul\":6721:6723   */\n      dup2\n        /* \"#utility.yul\":6710:6719   */\n      dup9\n        /* \"#utility.yul\":6706:6724   */\n      add\n        /* \"#utility.yul\":6699:6729   */\n      mstore\n        /* \"#utility.yul\":6767:6769   */\n      dup2\n        /* \"#utility.yul\":6759:6765   */\n      dup10\n        /* \"#utility.yul\":6755:6770   */\n      add\n        /* \"#utility.yul\":6749:6771   */\n      mload\n        /* \"#utility.yul\":6738:6771   */\n      swap3\n      pop\n        /* \"#utility.yul\":6791:6794   */\n      0x0180\n        /* \"#utility.yul\":6780:6794   */\n      swap2\n      pop\n        /* \"#utility.yul\":6831:6834   */\n      dup3\n        /* \"#utility.yul\":6825:6828   */\n      dup3\n        /* \"#utility.yul\":6814:6823   */\n      dup9\n        /* \"#utility.yul\":6810:6829   */\n      add\n        /* \"#utility.yul\":6803:6835   */\n      mstore\n        /* \"#utility.yul\":6884:6886   */\n      dup1\n        /* \"#utility.yul\":6876:6882   */\n      dup10\n        /* \"#utility.yul\":6872:6887   */\n      add\n        /* \"#utility.yul\":6866:6888   */\n      mload\n        /* \"#utility.yul\":6844:6888   */\n      swap3\n      pop\n      pop\n        /* \"#utility.yul\":6897:6963   */\n      tag_556\n        /* \"#utility.yul\":6959:6961   */\n      dup4\n        /* \"#utility.yul\":6948:6957   */\n      dup8\n        /* \"#utility.yul\":6944:6962   */\n      add\n        /* \"#utility.yul\":6928:6942   */\n      dup4\n        /* \"#utility.yul\":6897:6963   */\n      tag_499\n      jump\t// in\n    tag_556:\n        /* \"#utility.yul\":7000:7016   */\n      dup8\n      add\n        /* \"#utility.yul\":6994:7017   */\n      mload\n        /* \"#utility.yul\":1185:1198   */\n      dup1\n      iszero\n        /* \"#utility.yul\":1178:1199   */\n      iszero\n        /* \"#utility.yul\":7073:7076   */\n      0x01c0\n        /* \"#utility.yul\":7058:7077   */\n      dup8\n      add\n        /* \"#utility.yul\":1166:1200   */\n      mstore\n        /* \"#utility.yul\":6994:7017   */\n      swap2\n      pop\n        /* \"#utility.yul\":7026:7078   */\n      tag_557\n      swap1\n      pop\n        /* \"#utility.yul\":1115:1206   */\n      jump\n        /* \"#utility.yul\":7026:7078   */\n    tag_557:\n      pop\n        /* \"#utility.yul\":7095:7101   */\n      swap1\n      pop\n        /* \"#utility.yul\":7110:7170   */\n      tag_429\n        /* \"#utility.yul\":7164:7168   */\n      0x20\n        /* \"#utility.yul\":7149:7169   */\n      dup4\n      add\n        /* \"#utility.yul\":7141:7147   */\n      dup5\n        /* \"#utility.yul\":7110:7170   */\n      tag_499\n      jump\t// in\n        /* \"#utility.yul\":7181:7561   */\n    tag_170:\n        /* \"#utility.yul\":7260:7261   */\n      0x01\n        /* \"#utility.yul\":7256:7268   */\n      dup2\n      dup2\n      shr\n      swap1\n        /* \"#utility.yul\":7303:7315   */\n      dup3\n      and\n      dup1\n        /* \"#utility.yul\":7324:7385   */\n      tag_560\n      jumpi\n        /* \"#utility.yul\":7378:7382   */\n      0x7f\n        /* \"#utility.yul\":7370:7376   */\n      dup3\n        /* \"#utility.yul\":7366:7383   */\n      and\n        /* \"#utility.yul\":7356:7383   */\n      swap2\n      pop\n        /* \"#utility.yul\":7324:7385   */\n    tag_560:\n        /* \"#utility.yul\":7431:7433   */\n      0x20\n        /* \"#utility.yul\":7423:7429   */\n      dup3\n        /* \"#utility.yul\":7420:7434   */\n      lt\n        /* \"#utility.yul\":7400:7418   */\n      dup2\n        /* \"#utility.yul\":7397:7435   */\n      sub\n        /* \"#utility.yul\":7394:7555   */\n      tag_561\n      jumpi\n        /* \"#utility.yul\":7477:7487   */\n      0x4e487b71\n        /* \"#utility.yul\":7472:7475   */\n      0xe0\n        /* \"#utility.yul\":7468:7488   */\n      shl\n        /* \"#utility.yul\":7465:7466   */\n      0x00\n        /* \"#utility.yul\":7458:7489   */\n      mstore\n        /* \"#utility.yul\":7512:7516   */\n      0x22\n        /* \"#utility.yul\":7509:7510   */\n      0x04\n        /* \"#utility.yul\":7502:7517   */\n      mstore\n        /* \"#utility.yul\":7540:7544   */\n      0x24\n        /* \"#utility.yul\":7537:7538   */\n      0x00\n        /* \"#utility.yul\":7530:7545   */\n      revert\n        /* \"#utility.yul\":7394:7555   */\n    tag_561:\n      pop\n        /* \"#utility.yul\":7181:7561   */\n      swap2\n      swap1\n      pop\n      jump\t// out\n        /* \"#utility.yul\":7566:7783   */\n    tag_188:\n        /* \"#utility.yul\":7716:7718   */\n      0x20\n        /* \"#utility.yul\":7701:7719   */\n      dup2\n      add\n        /* \"#utility.yul\":7728:7777   */\n      tag_563\n        /* \"#utility.yul\":7705:7714   */\n      dup3\n        /* \"#utility.yul\":7759:7765   */\n      dup5\n        /* \"#utility.yul\":7728:7777   */\n      tag_499\n      jump\t// in\n    tag_563:\n        /* \"#utility.yul\":7566:7783   */\n      swap3\n      swap2\n      pop\n      pop\n      jump\t// out\n        /* \"#utility.yul\":7788:7915   */\n    tag_504:\n        /* \"#utility.yul\":7849:7859   */\n      0x4e487b71\n        /* \"#utility.yul\":7844:7847   */\n      0xe0\n        /* \"#utility.yul\":7840:7860   */\n      shl\n        /* \"#utility.yul\":7837:7838   */\n      0x00\n        /* \"#utility.yul\":7830:7861   */\n      mstore\n        /* \"#utility.yul\":7880:7884   */\n      0x11\n        /* \"#utility.yul\":7877:7878   */\n      0x04\n        /* \"#utility.yul\":7870:7885   */\n      mstore\n        /* \"#utility.yul\":7904:7908   */\n      0x24\n        /* \"#utility.yul\":7901:7902   */\n      0x00\n        /* \"#utility.yul\":7894:7909   */\n      revert\n        /* \"#utility.yul\":7920:8045   */\n    tag_250:\n        /* \"#utility.yul\":7985:7994   */\n      dup1\n      dup3\n      add\n        /* \"#utility.yul\":8006:8016   */\n      dup1\n      dup3\n      gt\n        /* \"#utility.yul\":8003:8039   */\n      iszero\n      tag_563\n      jumpi\n        /* \"#utility.yul\":8019:8037   */\n      tag_563\n      tag_504\n      jump\t// in\n        /* \"#utility.yul\":8313:8497   */\n    tag_274:\n        /* \"#utility.yul\":8383:8389   */\n      0x00\n        /* \"#utility.yul\":8436:8438   */\n      0x20\n        /* \"#utility.yul\":8424:8433   */\n      dup3\n        /* \"#utility.yul\":8415:8422   */\n      dup5\n        /* \"#utility.yul\":8411:8434   */\n      sub\n        /* \"#utility.yul\":8407:8439   */\n      slt\n        /* \"#utility.yul\":8404:8456   */\n      iszero\n      tag_570\n      jumpi\n        /* \"#utility.yul\":8452:8453   */\n      0x00\n        /* \"#utility.yul\":8449:8450   */\n      dup1\n        /* \"#utility.yul\":8442:8454   */\n      revert\n        /* \"#utility.yul\":8404:8456   */\n    tag_570:\n      pop\n        /* \"#utility.yul\":8475:8491   */\n      mload\n      swap2\n        /* \"#utility.yul\":8313:8497   */\n      swap1\n      pop\n      jump\t// out\n        /* \"#utility.yul\":8502:8637   */\n    tag_277:\n        /* \"#utility.yul\":8541:8544   */\n      0x00\n        /* \"#utility.yul\":8562:8579   */\n      0x01\n      dup3\n      add\n        /* \"#utility.yul\":8559:8602   */\n      tag_573\n      jumpi\n        /* \"#utility.yul\":8582:8600   */\n      tag_573\n      tag_504\n      jump\t// in\n    tag_573:\n      pop\n        /* \"#utility.yul\":8629:8630   */\n      0x01\n        /* \"#utility.yul\":8618:8631   */\n      add\n      swap1\n        /* \"#utility.yul\":8502:8637   */\n      jump\t// out\n        /* \"#utility.yul\":8642:8769   */\n    tag_505:\n        /* \"#utility.yul\":8703:8713   */\n      0x4e487b71\n        /* \"#utility.yul\":8698:8701   */\n      0xe0\n        /* \"#utility.yul\":8694:8714   */\n      shl\n        /* \"#utility.yul\":8691:8692   */\n      0x00\n        /* \"#utility.yul\":8684:8715   */\n      mstore\n        /* \"#utility.yul\":8734:8738   */\n      0x41\n        /* \"#utility.yul\":8731:8732   */\n      0x04\n        /* \"#utility.yul\":8724:8739   */\n      mstore\n        /* \"#utility.yul\":8758:8762   */\n      0x24\n        /* \"#utility.yul\":8755:8756   */\n      0x00\n        /* \"#utility.yul\":8748:8763   */\n      revert\n        /* \"#utility.yul\":8900:9443   */\n    tag_507:\n        /* \"#utility.yul\":9002:9004   */\n      0x1f\n        /* \"#utility.yul\":8997:9000   */\n      dup3\n        /* \"#utility.yul\":8994:9005   */\n      gt\n        /* \"#utility.yul\":8991:9437   */\n      iszero\n      tag_577\n      jumpi\n        /* \"#utility.yul\":9038:9039   */\n      0x00\n        /* \"#utility.yul\":9062:9067   */\n      dup2\n        /* \"#utility.yul\":9059:9060   */\n      0x00\n        /* \"#utility.yul\":9052:9068   */\n      mstore\n        /* \"#utility.yul\":9106:9110   */\n      0x20\n        /* \"#utility.yul\":9103:9104   */\n      0x00\n        /* \"#utility.yul\":9093:9111   */\n      keccak256\n        /* \"#utility.yul\":9176:9178   */\n      0x1f\n        /* \"#utility.yul\":9164:9174   */\n      dup6\n        /* \"#utility.yul\":9160:9179   */\n      add\n        /* \"#utility.yul\":9157:9158   */\n      0x05\n        /* \"#utility.yul\":9153:9180   */\n      shr\n        /* \"#utility.yul\":9147:9151   */\n      dup2\n        /* \"#utility.yul\":9143:9181   */\n      add\n        /* \"#utility.yul\":9212:9216   */\n      0x20\n        /* \"#utility.yul\":9200:9210   */\n      dup7\n        /* \"#utility.yul\":9197:9217   */\n      lt\n        /* \"#utility.yul\":9194:9241   */\n      iszero\n      tag_578\n      jumpi\n      pop\n        /* \"#utility.yul\":9235:9239   */\n      dup1\n        /* \"#utility.yul\":9194:9241   */\n    tag_578:\n        /* \"#utility.yul\":9290:9292   */\n      0x1f\n        /* \"#utility.yul\":9285:9288   */\n      dup6\n        /* \"#utility.yul\":9281:9293   */\n      add\n        /* \"#utility.yul\":9278:9279   */\n      0x05\n        /* \"#utility.yul\":9274:9294   */\n      shr\n        /* \"#utility.yul\":9268:9272   */\n      dup3\n        /* \"#utility.yul\":9264:9295   */\n      add\n        /* \"#utility.yul\":9254:9295   */\n      swap2\n      pop\n        /* \"#utility.yul\":9345:9427   */\n    tag_579:\n        /* \"#utility.yul\":9363:9365   */\n      dup2\n        /* \"#utility.yul\":9356:9361   */\n      dup2\n        /* \"#utility.yul\":9353:9366   */\n      lt\n        /* \"#utility.yul\":9345:9427   */\n      iszero\n      tag_581\n      jumpi\n        /* \"#utility.yul\":9408:9425   */\n      dup3\n      dup2\n      sstore\n        /* \"#utility.yul\":9389:9390   */\n      0x01\n        /* \"#utility.yul\":9378:9391   */\n      add\n        /* \"#utility.yul\":9345:9427   */\n      jump(tag_579)\n    tag_581:\n        /* \"#utility.yul\":9349:9352   */\n      pop\n      pop\n      pop\n        /* \"#utility.yul\":8991:9437   */\n    tag_577:\n        /* \"#utility.yul\":8900:9443   */\n      pop\n      pop\n      pop\n      jump\t// out\n        /* \"#utility.yul\":9619:10964   */\n    tag_284:\n        /* \"#utility.yul\":9745:9748   */\n      dup2\n        /* \"#utility.yul\":9739:9749   */\n      mload\n        /* \"#utility.yul\":9772:9790   */\n      0xffffffffffffffff\n        /* \"#utility.yul\":9764:9770   */\n      dup2\n        /* \"#utility.yul\":9761:9791   */\n      gt\n        /* \"#utility.yul\":9758:9814   */\n      iszero\n      tag_585\n      jumpi\n        /* \"#utility.yul\":9794:9812   */\n      tag_585\n      tag_505\n      jump\t// in\n    tag_585:\n        /* \"#utility.yul\":9823:9920   */\n      tag_586\n        /* \"#utility.yul\":9913:9919   */\n      dup2\n        /* \"#utility.yul\":9873:9911   */\n      tag_587\n        /* \"#utility.yul\":9905:9909   */\n      dup5\n        /* \"#utility.yul\":9899:9910   */\n      sload\n        /* \"#utility.yul\":9873:9911   */\n      tag_170\n      jump\t// in\n    tag_587:\n        /* \"#utility.yul\":9867:9871   */\n      dup5\n        /* \"#utility.yul\":9823:9920   */\n      tag_507\n      jump\t// in\n    tag_586:\n        /* \"#utility.yul\":9975:9979   */\n      0x20\n      dup1\n        /* \"#utility.yul\":10032:10034   */\n      0x1f\n        /* \"#utility.yul\":10021:10035   */\n      dup4\n      gt\n        /* \"#utility.yul\":10049:10050   */\n      0x01\n        /* \"#utility.yul\":10044:10707   */\n      dup2\n      eq\n      tag_589\n      jumpi\n        /* \"#utility.yul\":10751:10752   */\n      0x00\n        /* \"#utility.yul\":10768:10774   */\n      dup5\n        /* \"#utility.yul\":10765:10854   */\n      iszero\n      tag_590\n      jumpi\n      pop\n        /* \"#utility.yul\":10820:10839   */\n      dup6\n      dup4\n      add\n        /* \"#utility.yul\":10814:10840   */\n      mload\n        /* \"#utility.yul\":10765:10854   */\n    tag_590:\n      not(0x00)\n        /* \"#utility.yul\":9576:9577   */\n      0x03\n        /* \"#utility.yul\":9572:9583   */\n      dup7\n      swap1\n      shl\n        /* \"#utility.yul\":9568:9592   */\n      shr\n        /* \"#utility.yul\":9564:9593   */\n      not\n        /* \"#utility.yul\":9554:9594   */\n      and\n        /* \"#utility.yul\":9600:9601   */\n      0x01\n        /* \"#utility.yul\":9596:9607   */\n      dup6\n      swap1\n      shl\n        /* \"#utility.yul\":9551:9608   */\n      or\n        /* \"#utility.yul\":10867:10948   */\n      dup6\n      sstore\n        /* \"#utility.yul\":10014:10958   */\n      jump(tag_581)\n        /* \"#utility.yul\":10044:10707   */\n    tag_589:\n        /* \"#utility.yul\":8847:8848   */\n      0x00\n        /* \"#utility.yul\":8840:8854   */\n      dup6\n      dup2\n      mstore\n        /* \"#utility.yul\":8884:8888   */\n      0x20\n        /* \"#utility.yul\":8871:8889   */\n      dup2\n      keccak256\n      not(0x1f)\n        /* \"#utility.yul\":10080:10100   */\n      dup7\n      and\n      swap2\n        /* \"#utility.yul\":10198:10434   */\n    tag_593:\n        /* \"#utility.yul\":10212:10219   */\n      dup3\n        /* \"#utility.yul\":10209:10210   */\n      dup2\n        /* \"#utility.yul\":10206:10220   */\n      lt\n        /* \"#utility.yul\":10198:10434   */\n      iszero\n      tag_595\n      jumpi\n        /* \"#utility.yul\":10301:10320   */\n      dup9\n      dup7\n      add\n        /* \"#utility.yul\":10295:10321   */\n      mload\n        /* \"#utility.yul\":10280:10322   */\n      dup3\n      sstore\n        /* \"#utility.yul\":10393:10420   */\n      swap5\n      dup5\n      add\n      swap5\n        /* \"#utility.yul\":10361:10362   */\n      0x01\n        /* \"#utility.yul\":10349:10363   */\n      swap1\n      swap2\n      add\n      swap1\n        /* \"#utility.yul\":10228:10247   */\n      dup5\n      add\n        /* \"#utility.yul\":10198:10434   */\n      jump(tag_593)\n    tag_595:\n        /* \"#utility.yul\":10202:10205   */\n      pop\n        /* \"#utility.yul\":10462:10468   */\n      dup6\n        /* \"#utility.yul\":10453:10460   */\n      dup3\n        /* \"#utility.yul\":10450:10469   */\n      lt\n        /* \"#utility.yul\":10447:10648   */\n      iszero\n      tag_596\n      jumpi\n        /* \"#utility.yul\":10523:10542   */\n      dup8\n      dup6\n      add\n        /* \"#utility.yul\":10517:10543   */\n      mload\n      not(0x00)\n        /* \"#utility.yul\":10606:10607   */\n      0x03\n        /* \"#utility.yul\":10602:10616   */\n      dup9\n      swap1\n      shl\n        /* \"#utility.yul\":10618:10621   */\n      0xf8\n        /* \"#utility.yul\":10598:10622   */\n      and\n        /* \"#utility.yul\":10594:10631   */\n      shr\n        /* \"#utility.yul\":10590:10632   */\n      not\n        /* \"#utility.yul\":10575:10633   */\n      and\n        /* \"#utility.yul\":10560:10634   */\n      dup2\n      sstore\n        /* \"#utility.yul\":10447:10648   */\n    tag_596:\n      pop\n      pop\n      pop\n      pop\n      pop\n        /* \"#utility.yul\":10694:10695   */\n      0x01\n        /* \"#utility.yul\":10678:10692   */\n      swap1\n      dup2\n      shl\n        /* \"#utility.yul\":10674:10696   */\n      add\n        /* \"#utility.yul\":10661:10697   */\n      swap1\n      sstore\n      pop\n        /* \"#utility.yul\":9619:10964   */\n      jump\t// out\n        /* \"#utility.yul\":10969:11506   */\n    tag_289:\n        /* \"#utility.yul\":11184:11186   */\n      0x60\n        /* \"#utility.yul\":11173:11182   */\n      dup2\n        /* \"#utility.yul\":11166:11187   */\n      mstore\n        /* \"#utility.yul\":11223:11229   */\n      dup4\n        /* \"#utility.yul\":11218:11220   */\n      0x60\n        /* \"#utility.yul\":11207:11216   */\n      dup3\n        /* \"#utility.yul\":11203:11221   */\n      add\n        /* \"#utility.yul\":11196:11230   */\n      mstore\n        /* \"#utility.yul\":11281:11287   */\n      dup4\n        /* \"#utility.yul\":11273:11279   */\n      dup6\n        /* \"#utility.yul\":11267:11270   */\n      0x80\n        /* \"#utility.yul\":11256:11265   */\n      dup4\n        /* \"#utility.yul\":11252:11271   */\n      add\n        /* \"#utility.yul\":11239:11288   */\n      calldatacopy\n        /* \"#utility.yul\":11338:11339   */\n      0x00\n        /* \"#utility.yul\":11332:11335   */\n      0x80\n        /* \"#utility.yul\":11323:11329   */\n      dup6\n        /* \"#utility.yul\":11312:11321   */\n      dup4\n        /* \"#utility.yul\":11308:11330   */\n      add\n        /* \"#utility.yul\":11304:11336   */\n      add\n        /* \"#utility.yul\":11297:11340   */\n      mstore\n        /* \"#utility.yul\":11147:11151   */\n      0x00\n        /* \"#utility.yul\":11408:11411   */\n      0x80\n        /* \"#utility.yul\":11401:11403   */\n      0x1f\n        /* \"#utility.yul\":11397:11404   */\n      not\n        /* \"#utility.yul\":11392:11394   */\n      0x1f\n        /* \"#utility.yul\":11384:11390   */\n      dup8\n        /* \"#utility.yul\":11380:11395   */\n      add\n        /* \"#utility.yul\":11376:11405   */\n      and\n        /* \"#utility.yul\":11365:11374   */\n      dup4\n        /* \"#utility.yul\":11361:11406   */\n      add\n        /* \"#utility.yul\":11357:11412   */\n      add\n        /* \"#utility.yul\":11349:11412   */\n      swap1\n      pop\n        /* \"#utility.yul\":11450:11456   */\n      dup4\n        /* \"#utility.yul\":11443:11447   */\n      0x20\n        /* \"#utility.yul\":11432:11441   */\n      dup4\n        /* \"#utility.yul\":11428:11448   */\n      add\n        /* \"#utility.yul\":11421:11457   */\n      mstore\n        /* \"#utility.yul\":11493:11499   */\n      dup3\n        /* \"#utility.yul\":11488:11490   */\n      0x40\n        /* \"#utility.yul\":11477:11486   */\n      dup4\n        /* \"#utility.yul\":11473:11491   */\n      add\n        /* \"#utility.yul\":11466:11500   */\n      mstore\n        /* \"#utility.yul\":10969:11506   */\n      swap6\n      swap5\n      pop\n      pop\n      pop\n      pop\n      pop\n      jump\t// out\n        /* \"#utility.yul\":11511:11638   */\n    tag_313:\n        /* \"#utility.yul\":11572:11582   */\n      0x4e487b71\n        /* \"#utility.yul\":11567:11570   */\n      0xe0\n        /* \"#utility.yul\":11563:11583   */\n      shl\n        /* \"#utility.yul\":11560:11561   */\n      0x00\n        /* \"#utility.yul\":11553:11584   */\n      mstore\n        /* \"#utility.yul\":11603:11607   */\n      0x32\n        /* \"#utility.yul\":11600:11601   */\n      0x04\n        /* \"#utility.yul\":11593:11608   */\n      mstore\n        /* \"#utility.yul\":11627:11631   */\n      0x24\n        /* \"#utility.yul\":11624:11625   */\n      0x00\n        /* \"#utility.yul\":11617:11632   */\n      revert\n        /* \"#utility.yul\":11643:11771   */\n    tag_320:\n        /* \"#utility.yul\":11710:11719   */\n      dup2\n      dup2\n      sub\n        /* \"#utility.yul\":11731:11742   */\n      dup2\n      dup2\n      gt\n        /* \"#utility.yul\":11728:11765   */\n      iszero\n      tag_563\n      jumpi\n        /* \"#utility.yul\":11745:11763   */\n      tag_563\n      tag_504\n      jump\t// in\n        /* \"#utility.yul\":12055:12300   */\n    tag_327:\n        /* \"#utility.yul\":12122:12128   */\n      0x00\n        /* \"#utility.yul\":12175:12177   */\n      0x20\n        /* \"#utility.yul\":12163:12172   */\n      dup3\n        /* \"#utility.yul\":12154:12161   */\n      dup5\n        /* \"#utility.yul\":12150:12173   */\n      sub\n        /* \"#utility.yul\":12146:12178   */\n      slt\n        /* \"#utility.yul\":12143:12195   */\n      iszero\n      tag_604\n      jumpi\n        /* \"#utility.yul\":12191:12192   */\n      0x00\n        /* \"#utility.yul\":12188:12189   */\n      dup1\n        /* \"#utility.yul\":12181:12193   */\n      revert\n        /* \"#utility.yul\":12143:12195   */\n    tag_604:\n        /* \"#utility.yul\":12223:12232   */\n      dup2\n        /* \"#utility.yul\":12217:12233   */\n      mload\n        /* \"#utility.yul\":12242:12270   */\n      tag_429\n        /* \"#utility.yul\":12264:12269   */\n      dup2\n        /* \"#utility.yul\":12242:12270   */\n      tag_501\n      jump\t// in\n        /* \"#utility.yul\":12685:12853   */\n    tag_367:\n        /* \"#utility.yul\":12758:12767   */\n      dup1\n      dup3\n      mul\n        /* \"#utility.yul\":12789:12798   */\n      dup2\n      iszero\n        /* \"#utility.yul\":12806:12821   */\n      dup3\n      dup3\n      div\n        /* \"#utility.yul\":12800:12822   */\n      dup5\n      eq\n        /* \"#utility.yul\":12786:12823   */\n      or\n        /* \"#utility.yul\":12776:12847   */\n      tag_563\n      jumpi\n        /* \"#utility.yul\":12827:12845   */\n      tag_563\n      tag_504\n      jump\t// in\n        /* \"#utility.yul\":12858:13075   */\n    tag_369:\n        /* \"#utility.yul\":12898:12899   */\n      0x00\n        /* \"#utility.yul\":12924:12925   */\n      dup3\n        /* \"#utility.yul\":12914:13046   */\n      tag_611\n      jumpi\n        /* \"#utility.yul\":12968:12978   */\n      0x4e487b71\n        /* \"#utility.yul\":12963:12966   */\n      0xe0\n        /* \"#utility.yul\":12959:12979   */\n      shl\n        /* \"#utility.yul\":12956:12957   */\n      0x00\n        /* \"#utility.yul\":12949:12980   */\n      mstore\n        /* \"#utility.yul\":13003:13007   */\n      0x12\n        /* \"#utility.yul\":13000:13001   */\n      0x04\n        /* \"#utility.yul\":12993:13008   */\n      mstore\n        /* \"#utility.yul\":13031:13035   */\n      0x24\n        /* \"#utility.yul\":13028:13029   */\n      0x00\n        /* \"#utility.yul\":13021:13036   */\n      revert\n        /* \"#utility.yul\":12914:13046   */\n    tag_611:\n      pop\n        /* \"#utility.yul\":13060:13069   */\n      div\n      swap1\n        /* \"#utility.yul\":12858:13075   */\n      jump\t// out\n    stop\n    data_9dc46509c52525a6339f399907f61b3180b3a05702a403d62c3da3ccaed2ae11 3646af1e723ad3312b3882e1313a9a027ac60be336dd8582ed727e1dd4cf9e78\n    data_c8669cf8eaf883002b9f48e28846a8d408c9b58ea6613bace374265e43c9bc43 9b779b17422d0df92223018b32b4d1fa46e071723d6817e2486d003becc55f00\n\n    auxdata: 0xa264697066735822122055d6c03a559abdb3f9e7e602c9d8c228f871456a245456025949f729ca10370464736f6c63430008180033\n}\n",
				"bytecode": {
					"linkReferences": {},
					"object": "60a06040523480156200001157600080fd5b50604051620024af380380620024af83398101604081905262000034916200017d565b33806200005b57604051631e4fbdf760e01b81526000600482015260240160405180910390fd5b62000066816200012d565b5060017f9b779b17422d0df92223018b32b4d1fa46e071723d6817e2486d003becc55f00556001600160a01b038516620000b35760405163d92e233d60e01b815260040160405180910390fd5b62015180821080620000c7575062278d0082115b15620000e6576040516302e8f35960e31b815260040160405180910390fd5b6127108311156200010a5760405163c6cc5d7f60e01b815260040160405180910390fd5b6001600160a01b03909416608052600192909255600255600355600455620001d4565b600080546001600160a01b038381166001600160a01b0319831681178455604051919092169283917f8be0079c531659141344cd1fd0a4f28419497f9722a3daafe3b4186f6b6457e09190a35050565b600080600080600060a086880312156200019657600080fd5b85516001600160a01b0381168114620001ae57600080fd5b602087015160408801516060890151608090990151929a91995097965090945092505050565b6080516122aa620002056000396000818161025701528181610ee001528181611388015261147c01526122aa6000f3fe608060405234801561001057600080fd5b50600436106101d95760003560e01c80638da5cb5b11610104578063c7f758a8116100a2578063da35c66411610071578063da35c6641461042c578063ea0217cf14610435578063ece40cc114610448578063f2fde38b1461045b57600080fd5b8063c7f758a8146103cf578063cd01abdf146103f0578063cd2ddd0c14610410578063d4a8dd981461041957600080fd5b8063a89a452d116100de578063a89a452d14610377578063b34aa3a91461038a578063b58131b01461039d578063bb4d4436146103a657600080fd5b80638da5cb5b14610349578063a64e024a1461035a578063a815ca521461036457600080fd5b80633932abb11161017c57806365e481e21161014b57806365e481e214610312578063671b37931461032557806370b0f6601461032e578063715018a61461034157600080fd5b80633932abb1146102ae5780633e65164a146102b757806341d5ce4a146102c157806342545825146102d457600080fd5b80630d61b519116101b85780630d61b5191461023f5780630e31648f1461025257806315373e3d14610291578063215809ca146102a457600080fd5b806262804e146101de578063013cf08b146101f357806302a251a314610228575b600080fd5b6101f16101ec366004611c2b565b61046e565b005b610206610201366004611c2b565b61076f565b60405161021f9d9c9b9a99989796959493929190611cc2565b60405180910390f35b61023160035481565b60405190815260200161021f565b6101f161024d366004611c2b565b6108f3565b6102797f000000000000000000000000000000000000000000000000000000000000000081565b6040516001600160a01b03909116815260200161021f565b6101f161029f366004611d64565b610c59565b6102316201518081565b61023160045481565b61023162093a8081565b6102316102cf366004611db0565b610e8d565b6103026102e2366004611db0565b600960209081526000928352604080842090915290825290205460ff1681565b604051901515815260200161021f565b610231610320366004611e23565b610ebe565b61023160085481565b6101f161033c366004611c2b565b6111e3565b6101f16111f0565b6000546001600160a01b0316610279565b61023162278d0081565b6101f1610372366004611c2b565b611204565b6101f1610385366004611c2b565b611234565b6101f1610398366004611c2b565b611431565b61023160015481565b6102316103b4366004611e8f565b6001600160a01b031660009081526007602052604090205490565b6103e26103dd366004611c2b565b61157b565b60405161021f929190611eaa565b6102316103fe366004611e8f565b60076020526000908152604090205481565b61023160025481565b610302610427366004611c2b565b6117aa565b61023160055481565b6101f1610443366004611c2b565b61180e565b6101f1610456366004611c2b565b61184c565b6101f1610469366004611e8f565b611859565b6000818152600660205260408120805490910361049e5760405163635e873760e01b815260040160405180910390fd5b806006015442116104d35780600601546040516381eb741560e01b81526004016104ca91815260200190565b60405180910390fd5b600b81015460ff1660048160058111156104ef576104ef611c8a565b148061050c5750600381600581111561050a5761050a611c8a565b145b806105285750600581600581111561052657610526611c8a565b145b1561053257505050565b61071882604051806101a00160405290816000820154815260200160018201805461055c90611fa5565b80601f016020809104026020016040519081016040528092919081815260200182805461058890611fa5565b80156105d55780601f106105aa576101008083540402835291602001916105d5565b820191906000526020600020905b8154815290600101906020018083116105b857829003601f168201915b505050505081526020016002820180546105ee90611fa5565b80601f016020809104026020016040519081016040528092919081815260200182805461061a90611fa5565b80156106675780601f1061063c57610100808354040283529160200191610667565b820191906000526020600020905b81548152906001019060200180831161064a57829003601f168201915b505050918352505060038201546001600160a01b0316602082015260048201546040820152600580830154606083015260068301546080830152600783015460a0830152600883015460c0830152600983015460e0830152600a830154610100830152600b8301546101209092019160ff16908111156106e9576106e9611c8a565b60058111156106fa576106fa611c8a565b8152600b9190910154610100900460ff161515602090910152611894565b600b8301805460ff1916600183600581111561073657610736611c8a565b0217905550600b8201546040518491600080516020612235833981519152916107629160ff1690611fdf565b60405180910390a2505050565b6006602052600090815260409020805460018201805491929161079190611fa5565b80601f01602080910402602001604051908101604052809291908181526020018280546107bd90611fa5565b801561080a5780601f106107df5761010080835404028352916020019161080a565b820191906000526020600020905b8154815290600101906020018083116107ed57829003601f168201915b50505050509080600201805461081f90611fa5565b80601f016020809104026020016040519081016040528092919081815260200182805461084b90611fa5565b80156108985780601f1061086d57610100808354040283529160200191610898565b820191906000526020600020905b81548152906001019060200180831161087b57829003601f168201915b50505060038401546004850154600586015460068701546007880154600889015460098a0154600a8b0154600b909b0154999a6001600160a01b03909716999598509396509194909391929160ff808216916101009004168d565b6108fb611919565b610903611935565b600081815260066020526040812080549091036109335760405163635e873760e01b815260040160405180910390fd5b600b810154610100900460ff161561095e57604051630dc1019760e01b815260040160405180910390fd5b6000610b4682604051806101a00160405290816000820154815260200160018201805461098a90611fa5565b80601f01602080910402602001604051908101604052809291908181526020018280546109b690611fa5565b8015610a035780601f106109d857610100808354040283529160200191610a03565b820191906000526020600020905b8154815290600101906020018083116109e657829003601f168201915b50505050508152602001600282018054610a1c90611fa5565b80601f0160208091040260200160405190810160405280929190818152602001828054610a4890611fa5565b8015610a955780601f10610a6a57610100808354040283529160200191610a95565b820191906000526020600020905b815481529060010190602001808311610a7857829003601f168201915b505050918352505060038201546001600160a01b0316602082015260048201546040820152600580830154606083015260068301546080830152600783015460a0830152600883015460c0830152600983015460e0830152600a830154610100830152600b8301546101209092019160ff1690811115610b1757610b17611c8a565b6005811115610b2857610b28611c8a565b8152600b9190910154610100900460ff161515602090910152611962565b90506002816005811115610b5c57610b5c611c8a565b14610b7a5760405163c8c93ba360e01b815260040160405180910390fd5b8160070154421115610bd857600b8201805460ff19166005908117909155604051849160008051602061223583398151915291610bb79190611fdf565b60405180910390a2604051633c09dd1160e01b815260040160405180910390fd5b600b8201805461ffff1916610104179055604051339084907f9c85b616f29fca57a17eafe71cf9ff82ffef41766e2cf01ea7f8f7878dd3ec2490600090a3826000805160206122358339815191526004604051610c359190611fdf565b60405180910390a25050610c56600160008051602061225583398151915255565b50565b610c61611919565b60008281526006602052604081208054909103610c915760405163635e873760e01b815260040160405180910390fd5b8060050154421015610cbe57806005015460405163bc2e28fb60e01b81526004016104ca91815260200190565b8060060154421115610ceb5780600601546040516381eb741560e01b81526004016104ca91815260200190565b33600090815260096020908152604080832086845290915290205460ff1615610d2757604051637c9a1cf960e01b815260040160405180910390fd5b3360009081526007602052604081205490819003610d585760405163cabeb65560e01b815260040160405180910390fd5b8215610d7d5780826008016000828254610d729190612009565b90915550610d979050565b80826009016000828254610d919190612009565b90915550505b3360008181526009602090815260408083208884528252808320805460ff19166001908117909155938352600a825282208054938401815582528120909101859055600b83015460ff166005811115610df257610df2611c8a565b03610e3157600b8201805460ff19166001908117909155604051859160008051602061223583398151915291610e289190611fdf565b60405180910390a25b60408051841515815260208101839052859133917f877856338e13f63d0c36822ff0ef736b80934cd90574a3a5bc9262c39d217c46910160405180910390a35050610e89600160008051602061225583398151915255565b5050565b600a6020528160005260406000208181548110610ea957600080fd5b90600052602060002001600091509150505481565b6000610ec8611935565b6001546040516370a0823160e01b81523360048201527f00000000000000000000000000000000000000000000000000000000000000006001600160a01b0316906370a0823190602401602060405180830381865afa158015610f2f573d6000803e3d6000fd5b505050506040513d601f19601f82011682018060405250810190610f53919061201c565b1015610f7157604051625713a160e91b815260040160405180910390fd5b600560008154610f8090612035565b9190508190559050600060045442610f989190612009565b9050600060035482610faa9190612009565b9050604051806101a0016040528084815260200188888080601f016020809104026020016040519081016040528093929190818152602001838380828437600092019190915250505090825250604080516020601f890181900481028201810190925287815291810191908890889081908401838280828437600092019190915250505090825250336020820152426040820152606081018490526080810183905260a00161105c62093a8084612009565b8152602001600081526020016000815260200160085481526020016000600581111561108a5761108a611c8a565b8152600060209182018190528581526006825260409020825181559082015160018201906110b890826120b5565b50604082015160028201906110cd90826120b5565b5060608201518160030160006101000a8154816001600160a01b0302191690836001600160a01b031602179055506080820151816004015560a0820151816005015560c0820151816006015560e082015181600701556101008201518160080155610120820151816009015561014082015181600a015561016082015181600b0160006101000a81548160ff0219169083600581111561116f5761116f611c8a565b02179055506101809190910151600b90910180549115156101000261ff0019909216919091179055604051339084907f6c98a8c940418b35614f0cd02412d5c9606faff474cbb6cdd6640ba5d1a9f06b906111d1908b908b9088908890612175565b60405180910390a35050949350505050565b6111eb611935565b600455565b6111f8611935565b6112026000611a1b565b565b61120c611935565b61271081111561122f5760405163c6cc5d7f60e01b815260040160405180910390fd5b600255565b61123c611919565b8060000361125d57604051631f2a200560e01b815260040160405180910390fd5b3360008181526007602052604090205482111561128d5760405163cabeb65560e01b815260040160405180910390fd5b6001600160a01b0381166000908152600a60205260408120905b815481101561131b576000600660008484815481106112c8576112c86121b5565b9060005260206000200154815260200190815260200160002090506112ec81611a6b565b15611312578060060154604051638f0b654960e01b81526004016104ca91815260200190565b506001016112a7565b506001600160a01b038216600090815260076020526040812080548592906113449084906121cb565b92505081905550826008600082825461135d91906121cb565b909155505060405163a9059cbb60e01b81526001600160a01b038381166004830152602482018590527f0000000000000000000000000000000000000000000000000000000000000000169063a9059cbb906044016020604051808303816000875af11580156113d1573d6000803e3d6000fd5b505050506040513d601f19601f820116820180604052508101906113f591906121de565b50816001600160a01b03167fdefd0bf5dc03b8d2b38cde1df73c28c35f2ee89f828f110ed9c50f67a800e52784604051610c3591815260200190565b611439611919565b8060000361145a57604051631f2a200560e01b815260040160405180910390fd5b6040516323b872dd60e01b8152336004820152306024820152604481018290527f00000000000000000000000000000000000000000000000000000000000000006001600160a01b0316906323b872dd906064016020604051808303816000875af11580156114cd573d6000803e3d6000fd5b505050506040513d601f19601f820116820180604052508101906114f191906121de565b503360009081526007602052604081208054839290611511908490612009565b92505081905550806008600082825461152a9190612009565b909155505060405181815233907fb17583f19c82654a9992a9e782dd7419a0581acdcc5383f28e9b419137ae716d9060200160405180910390a2610c56600160008051602061225583398151915255565b611583611ba9565b600060066000848152602001908152602001600020604051806101a0016040529081600082015481526020016001820180546115be90611fa5565b80601f01602080910402602001604051908101604052809291908181526020018280546115ea90611fa5565b80156116375780601f1061160c57610100808354040283529160200191611637565b820191906000526020600020905b81548152906001019060200180831161161a57829003601f168201915b5050505050815260200160028201805461165090611fa5565b80601f016020809104026020016040519081016040528092919081815260200182805461167c90611fa5565b80156116c95780601f1061169e576101008083540402835291602001916116c9565b820191906000526020600020905b8154815290600101906020018083116116ac57829003601f168201915b505050918352505060038201546001600160a01b0316602082015260048201546040820152600580830154606083015260068301546080830152600783015460a0830152600883015460c0830152600983015460e0830152600a830154610100830152600b8301546101209092019160ff169081111561174b5761174b611c8a565b600581111561175c5761175c611c8a565b8152600b9190910154610100900460ff161515602090910152805190925060000361179a5760405163635e873760e01b815260040160405180910390fd5b6117a382611962565b9050915091565b6000818152600660205260408120805482036117c95750600092915050565b6000816009015482600801546117df9190612009565b9050600061271060025484600a01546117f891906121fb565b6118029190612212565b90911015949350505050565b611816611935565b62015180811080611829575062278d0081115b15611847576040516302e8f35960e31b815260040160405180910390fd5b600355565b611854611935565b600155565b611861611935565b6001600160a01b03811661188b57604051631e4fbdf760e01b8152600060048201526024016104ca565b610c5681611a1b565b6000808261012001518361010001516118ad9190612009565b905060006127106002548561014001516118c791906121fb565b6118d19190612212565b905060008461014001511180156118e757508082105b156118f6575060039392505050565b8361012001518461010001511161190e576003611911565b60025b949350505050565b611921611b79565b600260008051602061225583398151915255565b6000546001600160a01b031633146112025760405163118cdaa760e01b81523360048201526024016104ca565b610160810151600090600481600581111561197f5761197f611c8a565b148061199c5750600381600581111561199a5761199a611c8a565b145b806119b8575060058160058111156119b6576119b6611c8a565b145b156119c35792915050565b8260c0015142116119d45792915050565b60006119df84611894565b905060028160058111156119f5576119f5611c8a565b148015611a0557508360e0015142115b15611a14575060059392505050565b9392505050565b600080546001600160a01b038381166001600160a01b0319831681178455604051919092169283917f8be0079c531659141344cd1fd0a4f28419497f9722a3daafe3b4186f6b6457e09190a35050565b600b81015460009060ff166004816005811115611a8a57611a8a611c8a565b1480611aa757506003816005811115611aa557611aa5611c8a565b145b80611ac357506005816005811115611ac157611ac1611c8a565b145b15611ad15750600092915050565b82600601544211611af95760015b816005811115611af157611af1611c8a565b149392505050565b611b2383604051806101a00160405290816000820154815260200160018201805461055c90611fa5565b90506002816005811115611b3957611b39611c8a565b148015611b495750826007015442115b15611b575750600092915050565b6001816005811115611b6b57611b6b611c8a565b1480611a1457506002611adf565b6000805160206122558339815191525460020361120257604051633ee5aeb560e01b815260040160405180910390fd5b604051806101a0016040528060008152602001606081526020016060815260200160006001600160a01b031681526020016000815260200160008152602001600081526020016000815260200160008152602001600081526020016000815260200160006005811115611c1e57611c1e611c8a565b8152600060209091015290565b600060208284031215611c3d57600080fd5b5035919050565b6000815180845260005b81811015611c6a57602081850181015186830182015201611c4e565b506000602082860101526020601f19601f83011685010191505092915050565b634e487b7160e01b600052602160045260246000fd5b60068110611cbe57634e487b7160e01b600052602160045260246000fd5b9052565b8d81526101a060208201526000611cdd6101a083018f611c44565b8281036040840152611cef818f611c44565b91505060018060a01b038c1660608301528a60808301528960a08301528860c08301528760e0830152866101008301528561012083015284610140830152611d3b610160830185611ca0565b8215156101808301529e9d5050505050505050505050505050565b8015158114610c5657600080fd5b60008060408385031215611d7757600080fd5b823591506020830135611d8981611d56565b809150509250929050565b80356001600160a01b0381168114611dab57600080fd5b919050565b60008060408385031215611dc357600080fd5b611dcc83611d94565b946020939093013593505050565b60008083601f840112611dec57600080fd5b50813567ffffffffffffffff811115611e0457600080fd5b602083019150836020828501011115611e1c57600080fd5b9250929050565b60008060008060408587031215611e3957600080fd5b843567ffffffffffffffff80821115611e5157600080fd5b611e5d88838901611dda565b90965094506020870135915080821115611e7657600080fd5b50611e8387828801611dda565b95989497509550505050565b600060208284031215611ea157600080fd5b611a1482611d94565b6040815282516040820152600060208401516101a0806060850152611ed36101e0850183611c44565b91506040860151603f19858403016080860152611ef08382611c44565b9250506060860151611f0d60a08601826001600160a01b03169052565b50608086015160c085015260a086015160e085015260c0860151610100818187015260e088015191506101208281880152818901519250610140915082828801528089015192505061016082818801528189015192506101809150828288015280890151925050611f8083870183611ca0565b8701518015156101c08701529150611f959050565b509050611a146020830184611ca0565b600181811c90821680611fb957607f821691505b602082108103611fd957634e487b7160e01b600052602260045260246000fd5b50919050565b60208101611fed8284611ca0565b92915050565b634e487b7160e01b600052601160045260246000fd5b80820180821115611fed57611fed611ff3565b60006020828403121561202e57600080fd5b5051919050565b60006001820161204757612047611ff3565b5060010190565b634e487b7160e01b600052604160045260246000fd5b601f8211156120b0576000816000526020600020601f850160051c8101602086101561208d5750805b601f850160051c820191505b818110156120ac57828155600101612099565b5050505b505050565b815167ffffffffffffffff8111156120cf576120cf61204e565b6120e3816120dd8454611fa5565b84612064565b602080601f83116001811461211857600084156121005750858301515b600019600386901b1c1916600185901b1785556120ac565b600085815260208120601f198616915b8281101561214757888601518255948401946001909101908401612128565b50858210156121655787850151600019600388901b60f8161c191681555b5050505050600190811b01905550565b606081528360608201528385608083013760006080858301015260006080601f19601f870116830101905083602083015282604083015295945050505050565b634e487b7160e01b600052603260045260246000fd5b81810381811115611fed57611fed611ff3565b6000602082840312156121f057600080fd5b8151611a1481611d56565b8082028115828204841417611fed57611fed611ff3565b60008261222f57634e487b7160e01b600052601260045260246000fd5b50049056fe3646af1e723ad3312b3882e1313a9a027ac60be336dd8582ed727e1dd4cf9e789b779b17422d0df92223018b32b4d1fa46e071723d6817e2486d003becc55f00a264697066735822122055d6c03a559abdb3f9e7e602c9d8c228f871456a245456025949f729ca10370464736f6c63430008180033",
					"opcodes": "PUSH1 0xA0 PUSH1 0x40 MSTORE CALLVALUE DUP1 ISZERO PUSH3 0x11 JUMPI PUSH1 0x0 DUP1 REVERT JUMPDEST POP PUSH1 0x40 MLOAD PUSH3 0x24AF CODESIZE SUB DUP1 PUSH3 0x24AF DUP4 CODECOPY DUP2 ADD PUSH1 0x40 DUP2 SWAP1 MSTORE PUSH3 0x34 SWAP2 PUSH3 0x17D JUMP JUMPDEST CALLER DUP1 PUSH3 0x5B JUMPI PUSH1 0x40 MLOAD PUSH4 0x1E4FBDF7 PUSH1 0xE0 SHL DUP2 MSTORE PUSH1 0x0 PUSH1 0x4 DUP3 ADD MSTORE PUSH1 0x24 ADD PUSH1 0x40 MLOAD DUP1 SWAP2 SUB SWAP1 REVERT JUMPDEST PUSH3 0x66 DUP2 PUSH3 0x12D JUMP JUMPDEST POP PUSH1 0x1 PUSH32 0x9B779B17422D0DF92223018B32B4D1FA46E071723D6817E2486D003BECC55F00 SSTORE PUSH1 0x1 PUSH1 0x1 PUSH1 0xA0 SHL SUB DUP6 AND PUSH3 0xB3 JUMPI PUSH1 0x40 MLOAD PUSH4 0xD92E233D PUSH1 0xE0 SHL DUP2 MSTORE PUSH1 0x4 ADD PUSH1 0x40 MLOAD DUP1 SWAP2 SUB SWAP1 REVERT JUMPDEST PUSH3 0x15180 DUP3 LT DUP1 PUSH3 0xC7 JUMPI POP PUSH3 0x278D00 DUP3 GT JUMPDEST ISZERO PUSH3 0xE6 JUMPI PUSH1 0x40 MLOAD PUSH4 0x2E8F359 PUSH1 0xE3 SHL DUP2 MSTORE PUSH1 0x4 ADD PUSH1 0x40 MLOAD DUP1 SWAP2 SUB SWAP1 REVERT JUMPDEST PUSH2 0x2710 DUP4 GT ISZERO PUSH3 0x10A JUMPI PUSH1 0x40 MLOAD PUSH4 0xC6CC5D7F PUSH1 0xE0 SHL DUP2 MSTORE PUSH1 0x4 ADD PUSH1 0x40 MLOAD DUP1 SWAP2 SUB SWAP1 REVERT JUMPDEST PUSH1 0x1 PUSH1 0x1 PUSH1 0xA0 SHL SUB SWAP1 SWAP5 AND PUSH1 0x80 MSTORE PUSH1 0x1 SWAP3 SWAP1 SWAP3 SSTORE PUSH1 0x2 SSTORE PUSH1 0x3 SSTORE PUSH1 0x4 SSTORE PUSH3 0x1D4 JUMP JUMPDEST PUSH1 0x0 DUP1 SLOAD PUSH1 0x1 PUSH1 0x1 PUSH1 0xA0 SHL SUB DUP4 DUP2 AND PUSH1 0x1 PUSH1 0x1 PUSH1 0xA0 SHL SUB NOT DUP4 AND DUP2 OR DUP5 SSTORE PUSH1 0x40 MLOAD SWAP2 SWAP1 SWAP3 AND SWAP3 DUP4 SWAP2 PUSH32 0x8BE0079C531659141344CD1FD0A4F28419497F9722A3DAAFE3B4186F6B6457E0 SWAP2 SWAP1 LOG3 POP POP JUMP JUMPDEST PUSH1 0x0 DUP1 PUSH1 0x0 DUP1 PUSH1 0x0 PUSH1 0xA0 DUP7 DUP9 SUB SLT ISZERO PUSH3 0x196 JUMPI PUSH1 0x0 DUP1 REVERT JUMPDEST DUP6 MLOAD PUSH1 0x1 PUSH1 0x1 PUSH1 0xA0 SHL SUB DUP2 AND DUP2 EQ PUSH3 0x1AE JUMPI PUSH1 0x0 DUP1 REVERT JUMPDEST PUSH1 0x20 DUP8 ADD MLOAD PUSH1 0x40 DUP9 ADD MLOAD PUSH1 0x60 DUP10 ADD MLOAD PUSH1 0x80 SWAP1 SWAP10 ADD MLOAD SWAP3 SWAP11 SWAP2 SWAP10 POP SWAP8 SWAP7 POP SWAP1 SWAP5 POP SWAP3 POP POP POP JUMP JUMPDEST PUSH1 0x80 MLOAD PUSH2 0x22AA PUSH3 0x205 PUSH1 0x0 CODECOPY PUSH1 0x0 DUP2 DUP2 PUSH2 0x257 ADD MSTORE DUP2 DUP2 PUSH2 0xEE0 ADD MSTORE DUP2 DUP2 PUSH2 0x1388 ADD MSTORE PUSH2 0x147C ADD MSTORE PUSH2 0x22AA PUSH1 0x0 RETURN INVALID PUSH1 0x80 PUSH1 0x40 MSTORE CALLVALUE DUP1 ISZERO PUSH2 0x10 JUMPI PUSH1 0x0 DUP1 REVERT JUMPDEST POP PUSH1 0x4 CALLDATASIZE LT PUSH2 0x1D9 JUMPI PUSH1 0x0 CALLDATALOAD PUSH1 0xE0 SHR DUP1 PUSH4 0x8DA5CB5B GT PUSH2 0x104 JUMPI DUP1 PUSH4 0xC7F758A8 GT PUSH2 0xA2 JUMPI DUP1 PUSH4 0xDA35C664 GT PUSH2 0x71 JUMPI DUP1 PUSH4 0xDA35C664 EQ PUSH2 0x42C JUMPI DUP1 PUSH4 0xEA0217CF EQ PUSH2 0x435 JUMPI DUP1 PUSH4 0xECE40CC1 EQ PUSH2 0x448 JUMPI DUP1 PUSH4 0xF2FDE38B EQ PUSH2 0x45B JUMPI PUSH1 0x0 DUP1 REVERT JUMPDEST DUP1 PUSH4 0xC7F758A8 EQ PUSH2 0x3CF JUMPI DUP1 PUSH4 0xCD01ABDF EQ PUSH2 0x3F0 JUMPI DUP1 PUSH4 0xCD2DDD0C EQ PUSH2 0x410 JUMPI DUP1 PUSH4 0xD4A8DD98 EQ PUSH2 0x419 JUMPI PUSH1 0x0 DUP1 REVERT JUMPDEST DUP1 PUSH4 0xA89A452D GT PUSH2 0xDE JUMPI DUP1 PUSH4 0xA89A452D EQ PUSH2 0x377 JUMPI DUP1 PUSH4 0xB34AA3A9 EQ PUSH2 0x38A JUMPI DUP1 PUSH4 0xB58131B0 EQ PUSH2 0x39D JUMPI DUP1 PUSH4 0xBB4D4436 EQ PUSH2 0x3A6 JUMPI PUSH1 0x0 DUP1 REVERT JUMPDEST DUP1 PUSH4 0x8DA5CB5B EQ PUSH2 0x349 JUMPI DUP1 PUSH4 0xA64E024A EQ PUSH2 0x35A JUMPI DUP1 PUSH4 0xA815CA52 EQ PUSH2 0x364 JUMPI PUSH1 0x0 DUP1 REVERT JUMPDEST DUP1 PUSH4 0x3932ABB1 GT PUSH2 0x17C JUMPI DUP1 PUSH4 0x65E481E2 GT PUSH2 0x14B JUMPI DUP1 PUSH4 0x65E481E2 EQ PUSH2 0x312 JUMPI DUP1 PUSH4 0x671B3793 EQ PUSH2 0x325 JUMPI DUP1 PUSH4 0x70B0F660 EQ PUSH2 0x32E JUMPI DUP1 PUSH4 0x715018A6 EQ PUSH2 0x341 JUMPI PUSH1 0x0 DUP1 REVERT JUMPDEST DUP1 PUSH4 0x3932ABB1 EQ PUSH2 0x2AE JUMPI DUP1 PUSH4 0x3E65164A EQ PUSH2 0x2B7 JUMPI DUP1 PUSH4 0x41D5CE4A EQ PUSH2 0x2C1 JUMPI DUP1 PUSH4 0x42545825 EQ PUSH2 0x2D4 JUMPI PUSH1 0x0 DUP1 REVERT JUMPDEST DUP1 PUSH4 0xD61B519 GT PUSH2 0x1B8 JUMPI DUP1 PUSH4 0xD61B519 EQ PUSH2 0x23F JUMPI DUP1 PUSH4 0xE31648F EQ PUSH2 0x252 JUMPI DUP1 PUSH4 0x15373E3D EQ PUSH2 0x291 JUMPI DUP1 PUSH4 0x215809CA EQ PUSH2 0x2A4 JUMPI PUSH1 0x0 DUP1 REVERT JUMPDEST DUP1 PUSH3 0x62804E EQ PUSH2 0x1DE JUMPI DUP1 PUSH4 0x13CF08B EQ PUSH2 0x1F3 JUMPI DUP1 PUSH4 0x2A251A3 EQ PUSH2 0x228 JUMPI JUMPDEST PUSH1 0x0 DUP1 REVERT JUMPDEST PUSH2 0x1F1 PUSH2 0x1EC CALLDATASIZE PUSH1 0x4 PUSH2 0x1C2B JUMP JUMPDEST PUSH2 0x46E JUMP JUMPDEST STOP JUMPDEST PUSH2 0x206 PUSH2 0x201 CALLDATASIZE PUSH1 0x4 PUSH2 0x1C2B JUMP JUMPDEST PUSH2 0x76F JUMP JUMPDEST PUSH1 0x40 MLOAD PUSH2 0x21F SWAP14 SWAP13 SWAP12 SWAP11 SWAP10 SWAP9 SWAP8 SWAP7 SWAP6 SWAP5 SWAP4 SWAP3 SWAP2 SWAP1 PUSH2 0x1CC2 JUMP JUMPDEST PUSH1 0x40 MLOAD DUP1 SWAP2 SUB SWAP1 RETURN JUMPDEST PUSH2 0x231 PUSH1 0x3 SLOAD DUP2 JUMP JUMPDEST PUSH1 0x40 MLOAD SWAP1 DUP2 MSTORE PUSH1 0x20 ADD PUSH2 0x21F JUMP JUMPDEST PUSH2 0x1F1 PUSH2 0x24D CALLDATASIZE PUSH1 0x4 PUSH2 0x1C2B JUMP JUMPDEST PUSH2 0x8F3 JUMP JUMPDEST PUSH2 0x279 PUSH32 0x0 DUP2 JUMP JUMPDEST PUSH1 0x40 MLOAD PUSH1 0x1 PUSH1 0x1 PUSH1 0xA0 SHL SUB SWAP1 SWAP2 AND DUP2 MSTORE PUSH1 0x20 ADD PUSH2 0x21F JUMP JUMPDEST PUSH2 0x1F1 PUSH2 0x29F CALLDATASIZE PUSH1 0x4 PUSH2 0x1D64 JUMP JUMPDEST PUSH2 0xC59 JUMP JUMPDEST PUSH2 0x231 PUSH3 0x15180 DUP2 JUMP JUMPDEST PUSH2 0x231 PUSH1 0x4 SLOAD DUP2 JUMP JUMPDEST PUSH2 0x231 PUSH3 0x93A80 DUP2 JUMP JUMPDEST PUSH2 0x231 PUSH2 0x2CF CALLDATASIZE PUSH1 0x4 PUSH2 0x1DB0 JUMP JUMPDEST PUSH2 0xE8D JUMP JUMPDEST PUSH2 0x302 PUSH2 0x2E2 CALLDATASIZE PUSH1 0x4 PUSH2 0x1DB0 JUMP JUMPDEST PUSH1 0x9 PUSH1 0x20 SWAP1 DUP2 MSTORE PUSH1 0x0 SWAP3 DUP4 MSTORE PUSH1 0x40 DUP1 DUP5 KECCAK256 SWAP1 SWAP2 MSTORE SWAP1 DUP3 MSTORE SWAP1 KECCAK256 SLOAD PUSH1 0xFF AND DUP2 JUMP JUMPDEST PUSH1 0x40 MLOAD SWAP1 ISZERO ISZERO DUP2 MSTORE PUSH1 0x20 ADD PUSH2 0x21F JUMP JUMPDEST PUSH2 0x231 PUSH2 0x320 CALLDATASIZE PUSH1 0x4 PUSH2 0x1E23 JUMP JUMPDEST PUSH2 0xEBE JUMP JUMPDEST PUSH2 0x231 PUSH1 0x8 SLOAD DUP2 JUMP JUMPDEST PUSH2 0x1F1 PUSH2 0x33C CALLDATASIZE PUSH1 0x4 PUSH2 0x1C2B JUMP JUMPDEST PUSH2 0x11E3 JUMP JUMPDEST PUSH2 0x1F1 PUSH2 0x11F0 JUMP JUMPDEST PUSH1 0x0 SLOAD PUSH1 0x1 PUSH1 0x1 PUSH1 0xA0 SHL SUB AND PUSH2 0x279 JUMP JUMPDEST PUSH2 0x231 PUSH3 0x278D00 DUP2 JUMP JUMPDEST PUSH2 0x1F1 PUSH2 0x372 CALLDATASIZE PUSH1 0x4 PUSH2 0x1C2B JUMP JUMPDEST PUSH2 0x1204 JUMP JUMPDEST PUSH2 0x1F1 PUSH2 0x385 CALLDATASIZE PUSH1 0x4 PUSH2 0x1C2B JUMP JUMPDEST PUSH2 0x1234 JUMP JUMPDEST PUSH2 0x1F1 PUSH2 0x398 CALLDATASIZE PUSH1 0x4 PUSH2 0x1C2B JUMP JUMPDEST PUSH2 0x1431 JUMP JUMPDEST PUSH2 0x231 PUSH1 0x1 SLOAD DUP2 JUMP JUMPDEST PUSH2 0x231 PUSH2 0x3B4 CALLDATASIZE PUSH1 0x4 PUSH2 0x1E8F JUMP JUMPDEST PUSH1 0x1 PUSH1 0x1 PUSH1 0xA0 SHL SUB AND PUSH1 0x0 SWAP1 DUP2 MSTORE PUSH1 0x7 PUSH1 0x20 MSTORE PUSH1 0x40 SWAP1 KECCAK256 SLOAD SWAP1 JUMP JUMPDEST PUSH2 0x3E2 PUSH2 0x3DD CALLDATASIZE PUSH1 0x4 PUSH2 0x1C2B JUMP JUMPDEST PUSH2 0x157B JUMP JUMPDEST PUSH1 0x40 MLOAD PUSH2 0x21F SWAP3 SWAP2 SWAP1 PUSH2 0x1EAA JUMP JUMPDEST PUSH2 0x231 PUSH2 0x3FE CALLDATASIZE PUSH1 0x4 PUSH2 0x1E8F JUMP JUMPDEST PUSH1 0x7 PUSH1 0x20 MSTORE PUSH1 0x0 SWAP1 DUP2 MSTORE PUSH1 0x40 SWAP1 KECCAK256 SLOAD DUP2 JUMP JUMPDEST PUSH2 0x231 PUSH1 0x2 SLOAD DUP2 JUMP JUMPDEST PUSH2 0x302 PUSH2 0x427 CALLDATASIZE PUSH1 0x4 PUSH2 0x1C2B JUMP JUMPDEST PUSH2 0x17AA JUMP JUMPDEST PUSH2 0x231 PUSH1 0x5 SLOAD DUP2 JUMP JUMPDEST PUSH2 0x1F1 PUSH2 0x443 CALLDATASIZE PUSH1 0x4 PUSH2 0x1C2B JUMP JUMPDEST PUSH2 0x180E JUMP JUMPDEST PUSH2 0x1F1 PUSH2 0x456 CALLDATASIZE PUSH1 0x4 PUSH2 0x1C2B JUMP JUMPDEST PUSH2 0x184C JUMP JUMPDEST PUSH2 0x1F1 PUSH2 0x469 CALLDATASIZE PUSH1 0x4 PUSH2 0x1E8F JUMP JUMPDEST PUSH2 0x1859 JUMP JUMPDEST PUSH1 0x0 DUP2 DUP2 MSTORE PUSH1 0x6 PUSH1 0x20 MSTORE PUSH1 0x40 DUP2 KECCAK256 DUP1 SLOAD SWAP1 SWAP2 SUB PUSH2 0x49E JUMPI PUSH1 0x40 MLOAD PUSH4 0x635E8737 PUSH1 0xE0 SHL DUP2 MSTORE PUSH1 0x4 ADD PUSH1 0x40 MLOAD DUP1 SWAP2 SUB SWAP1 REVERT JUMPDEST DUP1 PUSH1 0x6 ADD SLOAD TIMESTAMP GT PUSH2 0x4D3 JUMPI DUP1 PUSH1 0x6 ADD SLOAD PUSH1 0x40 MLOAD PUSH4 0x81EB7415 PUSH1 0xE0 SHL DUP2 MSTORE PUSH1 0x4 ADD PUSH2 0x4CA SWAP2 DUP2 MSTORE PUSH1 0x20 ADD SWAP1 JUMP JUMPDEST PUSH1 0x40 MLOAD DUP1 SWAP2 SUB SWAP1 REVERT JUMPDEST PUSH1 0xB DUP2 ADD SLOAD PUSH1 0xFF AND PUSH1 0x4 DUP2 PUSH1 0x5 DUP2 GT ISZERO PUSH2 0x4EF JUMPI PUSH2 0x4EF PUSH2 0x1C8A JUMP JUMPDEST EQ DUP1 PUSH2 0x50C JUMPI POP PUSH1 0x3 DUP2 PUSH1 0x5 DUP2 GT ISZERO PUSH2 0x50A JUMPI PUSH2 0x50A PUSH2 0x1C8A JUMP JUMPDEST EQ JUMPDEST DUP1 PUSH2 0x528 JUMPI POP PUSH1 0x5 DUP2 PUSH1 0x5 DUP2 GT ISZERO PUSH2 0x526 JUMPI PUSH2 0x526 PUSH2 0x1C8A JUMP JUMPDEST EQ JUMPDEST ISZERO PUSH2 0x532 JUMPI POP POP POP JUMP JUMPDEST PUSH2 0x718 DUP3 PUSH1 0x40 MLOAD DUP1 PUSH2 0x1A0 ADD PUSH1 0x40 MSTORE SWAP1 DUP2 PUSH1 0x0 DUP3 ADD SLOAD DUP2 MSTORE PUSH1 0x20 ADD PUSH1 0x1 DUP3 ADD DUP1 SLOAD PUSH2 0x55C SWAP1 PUSH2 0x1FA5 JUMP JUMPDEST DUP1 PUSH1 0x1F ADD PUSH1 0x20 DUP1 SWAP2 DIV MUL PUSH1 0x20 ADD PUSH1 0x40 MLOAD SWAP1 DUP2 ADD PUSH1 0x40 MSTORE DUP1 SWAP3 SWAP2 SWAP1 DUP2 DUP2 MSTORE PUSH1 0x20 ADD DUP3 DUP1 SLOAD PUSH2 0x588 SWAP1 PUSH2 0x1FA5 JUMP JUMPDEST DUP1 ISZERO PUSH2 0x5D5 JUMPI DUP1 PUSH1 0x1F LT PUSH2 0x5AA JUMPI PUSH2 0x100 DUP1 DUP4 SLOAD DIV MUL DUP4 MSTORE SWAP2 PUSH1 0x20 ADD SWAP2 PUSH2 0x5D5 JUMP JUMPDEST DUP3 ADD SWAP2 SWAP1 PUSH1 0x0 MSTORE PUSH1 0x20 PUSH1 0x0 KECCAK256 SWAP1 JUMPDEST DUP2 SLOAD DUP2 MSTORE SWAP1 PUSH1 0x1 ADD SWAP1 PUSH1 0x20 ADD DUP1 DUP4 GT PUSH2 0x5B8 JUMPI DUP3 SWAP1 SUB PUSH1 0x1F AND DUP3 ADD SWAP2 JUMPDEST POP POP POP POP POP DUP2 MSTORE PUSH1 0x20 ADD PUSH1 0x2 DUP3 ADD DUP1 SLOAD PUSH2 0x5EE SWAP1 PUSH2 0x1FA5 JUMP JUMPDEST DUP1 PUSH1 0x1F ADD PUSH1 0x20 DUP1 SWAP2 DIV MUL PUSH1 0x20 ADD PUSH1 0x40 MLOAD SWAP1 DUP2 ADD PUSH1 0x40 MSTORE DUP1 SWAP3 SWAP2 SWAP1 DUP2 DUP2 MSTORE PUSH1 0x20 ADD DUP3 DUP1 SLOAD PUSH2 0x61A SWAP1 PUSH2 0x1FA5 JUMP JUMPDEST DUP1 ISZERO PUSH2 0x667 JUMPI DUP1 PUSH1 0x1F LT PUSH2 0x63C JUMPI PUSH2 0x100 DUP1 DUP4 SLOAD DIV MUL DUP4 MSTORE SWAP2 PUSH1 0x20 ADD SWAP2 PUSH2 0x667 JUMP JUMPDEST DUP3 ADD SWAP2 SWAP1 PUSH1 0x0 MSTORE PUSH1 0x20 PUSH1 0x0 KECCAK256 SWAP1 JUMPDEST DUP2 SLOAD DUP2 MSTORE SWAP1 PUSH1 0x1 ADD SWAP1 PUSH1 0x20 ADD DUP1 DUP4 GT PUSH2 0x64A JUMPI DUP3 SWAP1 SUB PUSH1 0x1F AND DUP3 ADD SWAP2 JUMPDEST POP POP POP SWAP2 DUP4 MSTORE POP POP PUSH1 0x3 DUP3 ADD SLOAD PUSH1 0x1 PUSH1 0x1 PUSH1 0xA0 SHL SUB AND PUSH1 0x20 DUP3 ADD MSTORE PUSH1 0x4 DUP3 ADD SLOAD PUSH1 0x40 DUP3 ADD MSTORE PUSH1 0x5 DUP1 DUP4 ADD SLOAD PUSH1 0x60 DUP4 ADD MSTORE PUSH1 0x6 DUP4 ADD SLOAD PUSH1 0x80 DUP4 ADD MSTORE PUSH1 0x7 DUP4 ADD SLOAD PUSH1 0xA0 DUP4 ADD MSTORE PUSH1 0x8 DUP4 ADD SLOAD PUSH1 0xC0 DUP4 ADD MSTORE PUSH1 0x9 DUP4 ADD SLOAD PUSH1 0xE0 DUP4 ADD MSTORE PUSH1 0xA DUP4 ADD SLOAD PUSH2 0x100 DUP4 ADD MSTORE PUSH1 0xB DUP4 ADD SLOAD PUSH2 0x120 SWAP1 SWAP3 ADD SWAP2 PUSH1 0xFF AND SWAP1 DUP2 GT ISZERO PUSH2 0x6E9 JUMPI PUSH2 0x6E9 PUSH2 0x1C8A JUMP JUMPDEST PUSH1 0x5 DUP2 GT ISZERO PUSH2 0x6FA JUMPI PUSH2 0x6FA PUSH2 0x1C8A JUMP JUMPDEST DUP2 MSTORE PUSH1 0xB SWAP2 SWAP1 SWAP2 ADD SLOAD PUSH2 0x100 SWAP1 DIV PUSH1 0xFF AND ISZERO ISZERO PUSH1 0x20 SWAP1 SWAP2 ADD MSTORE PUSH2 0x1894 JUMP JUMPDEST PUSH1 0xB DUP4 ADD DUP1 SLOAD PUSH1 0xFF NOT AND PUSH1 0x1 DUP4 PUSH1 0x5 DUP2 GT ISZERO PUSH2 0x736 JUMPI PUSH2 0x736 PUSH2 0x1C8A JUMP JUMPDEST MUL OR SWAP1 SSTORE POP PUSH1 0xB DUP3 ADD SLOAD PUSH1 0x40 MLOAD DUP5 SWAP2 PUSH1 0x0 DUP1 MLOAD PUSH1 0x20 PUSH2 0x2235 DUP4 CODECOPY DUP2 MLOAD SWAP2 MSTORE SWAP2 PUSH2 0x762 SWAP2 PUSH1 0xFF AND SWAP1 PUSH2 0x1FDF JUMP JUMPDEST PUSH1 0x40 MLOAD DUP1 SWAP2 SUB SWAP1 LOG2 POP POP POP JUMP JUMPDEST PUSH1 0x6 PUSH1 0x20 MSTORE PUSH1 0x0 SWAP1 DUP2 MSTORE PUSH1 0x40 SWAP1 KECCAK256 DUP1 SLOAD PUSH1 0x1 DUP3 ADD DUP1 SLOAD SWAP2 SWAP3 SWAP2 PUSH2 0x791 SWAP1 PUSH2 0x1FA5 JUMP JUMPDEST DUP1 PUSH1 0x1F ADD PUSH1 0x20 DUP1 SWAP2 DIV MUL PUSH1 0x20 ADD PUSH1 0x40 MLOAD SWAP1 DUP2 ADD PUSH1 0x40 MSTORE DUP1 SWAP3 SWAP2 SWAP1 DUP2 DUP2 MSTORE PUSH1 0x20 ADD DUP3 DUP1 SLOAD PUSH2 0x7BD SWAP1 PUSH2 0x1FA5 JUMP JUMPDEST DUP1 ISZERO PUSH2 0x80A JUMPI DUP1 PUSH1 0x1F LT PUSH2 0x7DF JUMPI PUSH2 0x100 DUP1 DUP4 SLOAD DIV MUL DUP4 MSTORE SWAP2 PUSH1 0x20 ADD SWAP2 PUSH2 0x80A JUMP JUMPDEST DUP3 ADD SWAP2 SWAP1 PUSH1 0x0 MSTORE PUSH1 0x20 PUSH1 0x0 KECCAK256 SWAP1 JUMPDEST DUP2 SLOAD DUP2 MSTORE SWAP1 PUSH1 0x1 ADD SWAP1 PUSH1 0x20 ADD DUP1 DUP4 GT PUSH2 0x7ED JUMPI DUP3 SWAP1 SUB PUSH1 0x1F AND DUP3 ADD SWAP2 JUMPDEST POP POP POP POP POP SWAP1 DUP1 PUSH1 0x2 ADD DUP1 SLOAD PUSH2 0x81F SWAP1 PUSH2 0x1FA5 JUMP JUMPDEST DUP1 PUSH1 0x1F ADD PUSH1 0x20 DUP1 SWAP2 DIV MUL PUSH1 0x20 ADD PUSH1 0x40 MLOAD SWAP1 DUP2 ADD PUSH1 0x40 MSTORE DUP1 SWAP3 SWAP2 SWAP1 DUP2 DUP2 MSTORE PUSH1 0x20 ADD DUP3 DUP1 SLOAD PUSH2 0x84B SWAP1 PUSH2 0x1FA5 JUMP JUMPDEST DUP1 ISZERO PUSH2 0x898 JUMPI DUP1 PUSH1 0x1F LT PUSH2 0x86D JUMPI PUSH2 0x100 DUP1 DUP4 SLOAD DIV MUL DUP4 MSTORE SWAP2 PUSH1 0x20 ADD SWAP2 PUSH2 0x898 JUMP JUMPDEST DUP3 ADD SWAP2 SWAP1 PUSH1 0x0 MSTORE PUSH1 0x20 PUSH1 0x0 KECCAK256 SWAP1 JUMPDEST DUP2 SLOAD DUP2 MSTORE SWAP1 PUSH1 0x1 ADD SWAP1 PUSH1 0x20 ADD DUP1 DUP4 GT PUSH2 0x87B JUMPI DUP3 SWAP1 SUB PUSH1 0x1F AND DUP3 ADD SWAP2 JUMPDEST POP POP POP PUSH1 0x3 DUP5 ADD SLOAD PUSH1 0x4 DUP6 ADD SLOAD PUSH1 0x5 DUP7 ADD SLOAD PUSH1 0x6 DUP8 ADD SLOAD PUSH1 0x7 DUP9 ADD SLOAD PUSH1 0x8 DUP10 ADD SLOAD PUSH1 0x9 DUP11 ADD SLOAD PUSH1 0xA DUP12 ADD SLOAD PUSH1 0xB SWAP1 SWAP12 ADD SLOAD SWAP10 SWAP11 PUSH1 0x1 PUSH1 0x1 PUSH1 0xA0 SHL SUB SWAP1 SWAP8 AND SWAP10 SWAP6 SWAP9 POP SWAP4 SWAP7 POP SWAP2 SWAP5 SWAP1 SWAP4 SWAP2 SWAP3 SWAP2 PUSH1 0xFF DUP1 DUP3 AND SWAP2 PUSH2 0x100 SWAP1 DIV AND DUP14 JUMP JUMPDEST PUSH2 0x8FB PUSH2 0x1919 JUMP JUMPDEST PUSH2 0x903 PUSH2 0x1935 JUMP JUMPDEST PUSH1 0x0 DUP2 DUP2 MSTORE PUSH1 0x6 PUSH1 0x20 MSTORE PUSH1 0x40 DUP2 KECCAK256 DUP1 SLOAD SWAP1 SWAP2 SUB PUSH2 0x933 JUMPI PUSH1 0x40 MLOAD PUSH4 0x635E8737 PUSH1 0xE0 SHL DUP2 MSTORE PUSH1 0x4 ADD PUSH1 0x40 MLOAD DUP1 SWAP2 SUB SWAP1 REVERT JUMPDEST PUSH1 0xB DUP2 ADD SLOAD PUSH2 0x100 SWAP1 DIV PUSH1 0xFF AND ISZERO PUSH2 0x95E JUMPI PUSH1 0x40 MLOAD PUSH4 0xDC10197 PUSH1 0xE0 SHL DUP2 MSTORE PUSH1 0x4 ADD PUSH1 0x40 MLOAD DUP1 SWAP2 SUB SWAP1 REVERT JUMPDEST PUSH1 0x0 PUSH2 0xB46 DUP3 PUSH1 0x40 MLOAD DUP1 PUSH2 0x1A0 ADD PUSH1 0x40 MSTORE SWAP1 DUP2 PUSH1 0x0 DUP3 ADD SLOAD DUP2 MSTORE PUSH1 0x20 ADD PUSH1 0x1 DUP3 ADD DUP1 SLOAD PUSH2 0x98A SWAP1 PUSH2 0x1FA5 JUMP JUMPDEST DUP1 PUSH1 0x1F ADD PUSH1 0x20 DUP1 SWAP2 DIV MUL PUSH1 0x20 ADD PUSH1 0x40 MLOAD SWAP1 DUP2 ADD PUSH1 0x40 MSTORE DUP1 SWAP3 SWAP2 SWAP1 DUP2 DUP2 MSTORE PUSH1 0x20 ADD DUP3 DUP1 SLOAD PUSH2 0x9B6 SWAP1 PUSH2 0x1FA5 JUMP JUMPDEST DUP1 ISZERO PUSH2 0xA03 JUMPI DUP1 PUSH1 0x1F LT PUSH2 0x9D8 JUMPI PUSH2 0x100 DUP1 DUP4 SLOAD DIV MUL DUP4 MSTORE SWAP2 PUSH1 0x20 ADD SWAP2 PUSH2 0xA03 JUMP JUMPDEST DUP3 ADD SWAP2 SWAP1 PUSH1 0x0 MSTORE PUSH1 0x20 PUSH1 0x0 KECCAK256 SWAP1 JUMPDEST DUP2 SLOAD DUP2 MSTORE SWAP1 PUSH1 0x1 ADD SWAP1 PUSH1 0x20 ADD DUP1 DUP4 GT PUSH2 0x9E6 JUMPI DUP3 SWAP1 SUB PUSH1 0x1F AND DUP3 ADD SWAP2 JUMPDEST POP POP POP POP POP DUP2 MSTORE PUSH1 0x20 ADD PUSH1 0x2 DUP3 ADD DUP1 SLOAD PUSH2 0xA1C SWAP1 PUSH2 0x1FA5 JUMP JUMPDEST DUP1 PUSH1 0x1F ADD PUSH1 0x20 DUP1 SWAP2 DIV MUL PUSH1 0x20 ADD PUSH1 0x40 MLOAD SWAP1 DUP2 ADD PUSH1 0x40 MSTORE DUP1 SWAP3 SWAP2 SWAP1 DUP2 DUP2 MSTORE PUSH1 0x20 ADD DUP3 DUP1 SLOAD PUSH2 0xA48 SWAP1 PUSH2 0x1FA5 JUMP JUMPDEST DUP1 ISZERO PUSH2 0xA95 JUMPI DUP1 PUSH1 0x1F LT PUSH2 0xA6A JUMPI PUSH2 0x100 DUP1 DUP4 SLOAD DIV MUL DUP4 MSTORE SWAP2 PUSH1 0x20 ADD SWAP2 PUSH2 0xA95 JUMP JUMPDEST DUP3 ADD SWAP2 SWAP1 PUSH1 0x0 MSTORE PUSH1 0x20 PUSH1 0x0 KECCAK256 SWAP1 JUMPDEST DUP2 SLOAD DUP2 MSTORE SWAP1 PUSH1 0x1 ADD SWAP1 PUSH1 0x20 ADD DUP1 DUP4 GT PUSH2 0xA78 JUMPI DUP3 SWAP1 SUB PUSH1 0x1F AND DUP3 ADD SWAP2 JUMPDEST POP POP POP SWAP2 DUP4 MSTORE POP POP PUSH1 0x3 DUP3 ADD SLOAD PUSH1 0x1 PUSH1 0x1 PUSH1 0xA0 SHL SUB AND PUSH1 0x20 DUP3 ADD MSTORE PUSH1 0x4 DUP3 ADD SLOAD PUSH1 0x40 DUP3 ADD MSTORE PUSH1 0x5 DUP1 DUP4 ADD SLOAD PUSH1 0x60 DUP4 ADD MSTORE PUSH1 0x6 DUP4 ADD SLOAD PUSH1 0x80 DUP4 ADD MSTORE PUSH1 0x7 DUP4 ADD SLOAD PUSH1 0xA0 DUP4 ADD MSTORE PUSH1 0x8 DUP4 ADD SLOAD PUSH1 0xC0 DUP4 ADD MSTORE PUSH1 0x9 DUP4 ADD SLOAD PUSH1 0xE0 DUP4 ADD MSTORE PUSH1 0xA DUP4 ADD SLOAD PUSH2 0x100 DUP4 ADD MSTORE PUSH1 0xB DUP4 ADD SLOAD PUSH2 0x120 SWAP1 SWAP3 ADD SWAP2 PUSH1 0xFF AND SWAP1 DUP2 GT ISZERO PUSH2 0xB17 JUMPI PUSH2 0xB17 PUSH2 0x1C8A JUMP JUMPDEST PUSH1 0x5 DUP2 GT ISZERO PUSH2 0xB28 JUMPI PUSH2 0xB28 PUSH2 0x1C8A JUMP JUMPDEST DUP2 MSTORE PUSH1 0xB SWAP2 SWAP1 SWAP2 ADD SLOAD PUSH2 0x100 SWAP1 DIV PUSH1 0xFF AND ISZERO ISZERO PUSH1 0x20 SWAP1 SWAP2 ADD MSTORE PUSH2 0x1962 JUMP JUMPDEST SWAP1 POP PUSH1 0x2 DUP2 PUSH1 0x5 DUP2 GT ISZERO PUSH2 0xB5C JUMPI PUSH2 0xB5C PUSH2 0x1C8A JUMP JUMPDEST EQ PUSH2 0xB7A JUMPI PUSH1 0x40 MLOAD PUSH4 0xC8C93BA3 PUSH1 0xE0 SHL DUP2 MSTORE PUSH1 0x4 ADD PUSH1 0x40 MLOAD DUP1 SWAP2 SUB SWAP1 REVERT JUMPDEST DUP2 PUSH1 0x7 ADD SLOAD TIMESTAMP GT ISZERO PUSH2 0xBD8 JUMPI PUSH1 0xB DUP3 ADD DUP1 SLOAD PUSH1 0xFF NOT AND PUSH1 0x5 SWAP1 DUP2 OR SWAP1 SWAP2 SSTORE PUSH1 0x40 MLOAD DUP5 SWAP2 PUSH1 0x0 DUP1 MLOAD PUSH1 0x20 PUSH2 0x2235 DUP4 CODECOPY DUP2 MLOAD SWAP2 MSTORE SWAP2 PUSH2 0xBB7 SWAP2 SWAP1 PUSH2 0x1FDF JUMP JUMPDEST PUSH1 0x40 MLOAD DUP1 SWAP2 SUB SWAP1 LOG2 PUSH1 0x40 MLOAD PUSH4 0x3C09DD11 PUSH1 0xE0 SHL DUP2 MSTORE PUSH1 0x4 ADD PUSH1 0x40 MLOAD DUP1 SWAP2 SUB SWAP1 REVERT JUMPDEST PUSH1 0xB DUP3 ADD DUP1 SLOAD PUSH2 0xFFFF NOT AND PUSH2 0x104 OR SWAP1 SSTORE PUSH1 0x40 MLOAD CALLER SWAP1 DUP5 SWAP1 PUSH32 0x9C85B616F29FCA57A17EAFE71CF9FF82FFEF41766E2CF01EA7F8F7878DD3EC24 SWAP1 PUSH1 0x0 SWAP1 LOG3 DUP3 PUSH1 0x0 DUP1 MLOAD PUSH1 0x20 PUSH2 0x2235 DUP4 CODECOPY DUP2 MLOAD SWAP2 MSTORE PUSH1 0x4 PUSH1 0x40 MLOAD PUSH2 0xC35 SWAP2 SWAP1 PUSH2 0x1FDF JUMP JUMPDEST PUSH1 0x40 MLOAD DUP1 SWAP2 SUB SWAP1 LOG2 POP POP PUSH2 0xC56 PUSH1 0x1 PUSH1 0x0 DUP1 MLOAD PUSH1 0x20 PUSH2 0x2255 DUP4 CODECOPY DUP2 MLOAD SWAP2 MSTORE SSTORE JUMP JUMPDEST POP JUMP JUMPDEST PUSH2 0xC61 PUSH2 0x1919 JUMP JUMPDEST PUSH1 0x0 DUP3 DUP2 MSTORE PUSH1 0x6 PUSH1 0x20 MSTORE PUSH1 0x40 DUP2 KECCAK256 DUP1 SLOAD SWAP1 SWAP2 SUB PUSH2 0xC91 JUMPI PUSH1 0x40 MLOAD PUSH4 0x635E8737 PUSH1 0xE0 SHL DUP2 MSTORE PUSH1 0x4 ADD PUSH1 0x40 MLOAD DUP1 SWAP2 SUB SWAP1 REVERT JUMPDEST DUP1 PUSH1 0x5 ADD SLOAD TIMESTAMP LT ISZERO PUSH2 0xCBE JUMPI DUP1 PUSH1 0x5 ADD SLOAD PUSH1 0x40 MLOAD PUSH4 0xBC2E28FB PUSH1 0xE0 SHL DUP2 MSTORE PUSH1 0x4 ADD PUSH2 0x4CA SWAP2 DUP2 MSTORE PUSH1 0x20 ADD SWAP1 JUMP JUMPDEST DUP1 PUSH1 0x6 ADD SLOAD TIMESTAMP GT ISZERO PUSH2 0xCEB JUMPI DUP1 PUSH1 0x6 ADD SLOAD PUSH1 0x40 MLOAD PUSH4 0x81EB7415 PUSH1 0xE0 SHL DUP2 MSTORE PUSH1 0x4 ADD PUSH2 0x4CA SWAP2 DUP2 MSTORE PUSH1 0x20 ADD SWAP1 JUMP JUMPDEST CALLER PUSH1 0x0 SWAP1 DUP2 MSTORE PUSH1 0x9 PUSH1 0x20 SWAP1 DUP2 MSTORE PUSH1 0x40 DUP1 DUP4 KECCAK256 DUP7 DUP5 MSTORE SWAP1 SWAP2 MSTORE SWAP1 KECCAK256 SLOAD PUSH1 0xFF AND ISZERO PUSH2 0xD27 JUMPI PUSH1 0x40 MLOAD PUSH4 0x7C9A1CF9 PUSH1 0xE0 SHL DUP2 MSTORE PUSH1 0x4 ADD PUSH1 0x40 MLOAD DUP1 SWAP2 SUB SWAP1 REVERT JUMPDEST CALLER PUSH1 0x0 SWAP1 DUP2 MSTORE PUSH1 0x7 PUSH1 0x20 MSTORE PUSH1 0x40 DUP2 KECCAK256 SLOAD SWAP1 DUP2 SWAP1 SUB PUSH2 0xD58 JUMPI PUSH1 0x40 MLOAD PUSH4 0xCABEB655 PUSH1 0xE0 SHL DUP2 MSTORE PUSH1 0x4 ADD PUSH1 0x40 MLOAD DUP1 SWAP2 SUB SWAP1 REVERT JUMPDEST DUP3 ISZERO PUSH2 0xD7D JUMPI DUP1 DUP3 PUSH1 0x8 ADD PUSH1 0x0 DUP3 DUP3 SLOAD PUSH2 0xD72 SWAP2 SWAP1 PUSH2 0x2009 JUMP JUMPDEST SWAP1 SWAP2 SSTORE POP PUSH2 0xD97 SWAP1 POP JUMP JUMPDEST DUP1 DUP3 PUSH1 0x9 ADD PUSH1 0x0 DUP3 DUP3 SLOAD PUSH2 0xD91 SWAP2 SWAP1 PUSH2 0x2009 JUMP JUMPDEST SWAP1 SWAP2 SSTORE POP POP JUMPDEST CALLER PUSH1 0x0 DUP2 DUP2 MSTORE PUSH1 0x9 PUSH1 0x20 SWAP1 DUP2 MSTORE PUSH1 0x40 DUP1 DUP4 KECCAK256 DUP9 DUP5 MSTORE DUP3 MSTORE DUP1 DUP4 KECCAK256 DUP1 SLOAD PUSH1 0xFF NOT AND PUSH1 0x1 SWAP1 DUP2 OR SWAP1 SWAP2 SSTORE SWAP4 DUP4 MSTORE PUSH1 0xA DUP3 MSTORE DUP3 KECCAK256 DUP1 SLOAD SWAP4 DUP5 ADD DUP2 SSTORE DUP3 MSTORE DUP2 KECCAK256 SWAP1 SWAP2 ADD DUP6 SWAP1 SSTORE PUSH1 0xB DUP4 ADD SLOAD PUSH1 0xFF AND PUSH1 0x5 DUP2 GT ISZERO PUSH2 0xDF2 JUMPI PUSH2 0xDF2 PUSH2 0x1C8A JUMP JUMPDEST SUB PUSH2 0xE31 JUMPI PUSH1 0xB DUP3 ADD DUP1 SLOAD PUSH1 0xFF NOT AND PUSH1 0x1 SWAP1 DUP2 OR SWAP1 SWAP2 SSTORE PUSH1 0x40 MLOAD DUP6 SWAP2 PUSH1 0x0 DUP1 MLOAD PUSH1 0x20 PUSH2 0x2235 DUP4 CODECOPY DUP2 MLOAD SWAP2 MSTORE SWAP2 PUSH2 0xE28 SWAP2 SWAP1 PUSH2 0x1FDF JUMP JUMPDEST PUSH1 0x40 MLOAD DUP1 SWAP2 SUB SWAP1 LOG2 JUMPDEST PUSH1 0x40 DUP1 MLOAD DUP5 ISZERO ISZERO DUP2 MSTORE PUSH1 0x20 DUP2 ADD DUP4 SWAP1 MSTORE DUP6 SWAP2 CALLER SWAP2 PUSH32 0x877856338E13F63D0C36822FF0EF736B80934CD90574A3A5BC9262C39D217C46 SWAP2 ADD PUSH1 0x40 MLOAD DUP1 SWAP2 SUB SWAP1 LOG3 POP POP PUSH2 0xE89 PUSH1 0x1 PUSH1 0x0 DUP1 MLOAD PUSH1 0x20 PUSH2 0x2255 DUP4 CODECOPY DUP2 MLOAD SWAP2 MSTORE SSTORE JUMP JUMPDEST POP POP JUMP JUMPDEST PUSH1 0xA PUSH1 0x20 MSTORE DUP2 PUSH1 0x0 MSTORE PUSH1 0x40 PUSH1 0x0 KECCAK256 DUP2 DUP2 SLOAD DUP2 LT PUSH2 0xEA9 JUMPI PUSH1 0x0 DUP1 REVERT JUMPDEST SWAP1 PUSH1 0x0 MSTORE PUSH1 0x20 PUSH1 0x0 KECCAK256 ADD PUSH1 0x0 SWAP2 POP SWAP2 POP POP SLOAD DUP2 JUMP JUMPDEST PUSH1 0x0 PUSH2 0xEC8 PUSH2 0x1935 JUMP JUMPDEST PUSH1 0x1 SLOAD PUSH1 0x40 MLOAD PUSH4 0x70A08231 PUSH1 0xE0 SHL DUP2 MSTORE CALLER PUSH1 0x4 DUP3 ADD MSTORE PUSH32 0x0 PUSH1 0x1 PUSH1 0x1 PUSH1 0xA0 SHL SUB AND SWAP1 PUSH4 0x70A08231 SWAP1 PUSH1 0x24 ADD PUSH1 0x20 PUSH1 0x40 MLOAD DUP1 DUP4 SUB DUP2 DUP7 GAS STATICCALL ISZERO DUP1 ISZERO PUSH2 0xF2F JUMPI RETURNDATASIZE PUSH1 0x0 DUP1 RETURNDATACOPY RETURNDATASIZE PUSH1 0x0 REVERT JUMPDEST POP POP POP POP PUSH1 0x40 MLOAD RETURNDATASIZE PUSH1 0x1F NOT PUSH1 0x1F DUP3 ADD AND DUP3 ADD DUP1 PUSH1 0x40 MSTORE POP DUP2 ADD SWAP1 PUSH2 0xF53 SWAP2 SWAP1 PUSH2 0x201C JUMP JUMPDEST LT ISZERO PUSH2 0xF71 JUMPI PUSH1 0x40 MLOAD PUSH3 0x5713A1 PUSH1 0xE9 SHL DUP2 MSTORE PUSH1 0x4 ADD PUSH1 0x40 MLOAD DUP1 SWAP2 SUB SWAP1 REVERT JUMPDEST PUSH1 0x5 PUSH1 0x0 DUP2 SLOAD PUSH2 0xF80 SWAP1 PUSH2 0x2035 JUMP JUMPDEST SWAP2 SWAP1 POP DUP2 SWAP1 SSTORE SWAP1 POP PUSH1 0x0 PUSH1 0x4 SLOAD TIMESTAMP PUSH2 0xF98 SWAP2 SWAP1 PUSH2 0x2009 JUMP JUMPDEST SWAP1 POP PUSH1 0x0 PUSH1 0x3 SLOAD DUP3 PUSH2 0xFAA SWAP2 SWAP1 PUSH2 0x2009 JUMP JUMPDEST SWAP1 POP PUSH1 0x40 MLOAD DUP1 PUSH2 0x1A0 ADD PUSH1 0x40 MSTORE DUP1 DUP5 DUP2 MSTORE PUSH1 0x20 ADD DUP9 DUP9 DUP1 DUP1 PUSH1 0x1F ADD PUSH1 0x20 DUP1 SWAP2 DIV MUL PUSH1 0x20 ADD PUSH1 0x40 MLOAD SWAP1 DUP2 ADD PUSH1 0x40 MSTORE DUP1 SWAP4 SWAP3 SWAP2 SWAP1 DUP2 DUP2 MSTORE PUSH1 0x20 ADD DUP4 DUP4 DUP1 DUP3 DUP5 CALLDATACOPY PUSH1 0x0 SWAP3 ADD SWAP2 SWAP1 SWAP2 MSTORE POP POP POP SWAP1 DUP3 MSTORE POP PUSH1 0x40 DUP1 MLOAD PUSH1 0x20 PUSH1 0x1F DUP10 ADD DUP2 SWAP1 DIV DUP2 MUL DUP3 ADD DUP2 ADD SWAP1 SWAP3 MSTORE DUP8 DUP2 MSTORE SWAP2 DUP2 ADD SWAP2 SWAP1 DUP9 SWAP1 DUP9 SWAP1 DUP2 SWAP1 DUP5 ADD DUP4 DUP3 DUP1 DUP3 DUP5 CALLDATACOPY PUSH1 0x0 SWAP3 ADD SWAP2 SWAP1 SWAP2 MSTORE POP POP POP SWAP1 DUP3 MSTORE POP CALLER PUSH1 0x20 DUP3 ADD MSTORE TIMESTAMP PUSH1 0x40 DUP3 ADD MSTORE PUSH1 0x60 DUP2 ADD DUP5 SWAP1 MSTORE PUSH1 0x80 DUP2 ADD DUP4 SWAP1 MSTORE PUSH1 0xA0 ADD PUSH2 0x105C PUSH3 0x93A80 DUP5 PUSH2 0x2009 JUMP JUMPDEST DUP2 MSTORE PUSH1 0x20 ADD PUSH1 0x0 DUP2 MSTORE PUSH1 0x20 ADD PUSH1 0x0 DUP2 MSTORE PUSH1 0x20 ADD PUSH1 0x8 SLOAD DUP2 MSTORE PUSH1 0x20 ADD PUSH1 0x0 PUSH1 0x5 DUP2 GT ISZERO PUSH2 0x108A JUMPI PUSH2 0x108A PUSH2 0x1C8A JUMP JUMPDEST DUP2 MSTORE PUSH1 0x0 PUSH1 0x20 SWAP2 DUP3 ADD DUP2 SWAP1 MSTORE DUP6 DUP2 MSTORE PUSH1 0x6 DUP3 MSTORE PUSH1 0x40 SWAP1 KECCAK256 DUP3 MLOAD DUP2 SSTORE SWAP1 DUP3 ADD MLOAD PUSH1 0x1 DUP3 ADD SWAP1 PUSH2 0x10B8 SWAP1 DUP3 PUSH2 0x20B5 JUMP JUMPDEST POP PUSH1 0x40 DUP3 ADD MLOAD PUSH1 0x2 DUP3 ADD SWAP1 PUSH2 0x10CD SWAP1 DUP3 PUSH2 0x20B5 JUMP JUMPDEST POP PUSH1 0x60 DUP3 ADD MLOAD DUP2 PUSH1 0x3 ADD PUSH1 0x0 PUSH2 0x100 EXP DUP2 SLOAD DUP2 PUSH1 0x1 PUSH1 0x1 PUSH1 0xA0 SHL SUB MUL NOT AND SWAP1 DUP4 PUSH1 0x1 PUSH1 0x1 PUSH1 0xA0 SHL SUB AND MUL OR SWAP1 SSTORE POP PUSH1 0x80 DUP3 ADD MLOAD DUP2 PUSH1 0x4 ADD SSTORE PUSH1 0xA0 DUP3 ADD MLOAD DUP2 PUSH1 0x5 ADD SSTORE PUSH1 0xC0 DUP3 ADD MLOAD DUP2 PUSH1 0x6 ADD SSTORE PUSH1 0xE0 DUP3 ADD MLOAD DUP2 PUSH1 0x7 ADD SSTORE PUSH2 0x100 DUP3 ADD MLOAD DUP2 PUSH1 0x8 ADD SSTORE PUSH2 0x120 DUP3 ADD MLOAD DUP2 PUSH1 0x9 ADD SSTORE PUSH2 0x140 DUP3 ADD MLOAD DUP2 PUSH1 0xA ADD SSTORE PUSH2 0x160 DUP3 ADD MLOAD DUP2 PUSH1 0xB ADD PUSH1 0x0 PUSH2 0x100 EXP DUP2 SLOAD DUP2 PUSH1 0xFF MUL NOT AND SWAP1 DUP4 PUSH1 0x5 DUP2 GT ISZERO PUSH2 0x116F JUMPI PUSH2 0x116F PUSH2 0x1C8A JUMP JUMPDEST MUL OR SWAP1 SSTORE POP PUSH2 0x180 SWAP2 SWAP1 SWAP2 ADD MLOAD PUSH1 0xB SWAP1 SWAP2 ADD DUP1 SLOAD SWAP2 ISZERO ISZERO PUSH2 0x100 MUL PUSH2 0xFF00 NOT SWAP1 SWAP3 AND SWAP2 SWAP1 SWAP2 OR SWAP1 SSTORE PUSH1 0x40 MLOAD CALLER SWAP1 DUP5 SWAP1 PUSH32 0x6C98A8C940418B35614F0CD02412D5C9606FAFF474CBB6CDD6640BA5D1A9F06B SWAP1 PUSH2 0x11D1 SWAP1 DUP12 SWAP1 DUP12 SWAP1 DUP9 SWAP1 DUP9 SWAP1 PUSH2 0x2175 JUMP JUMPDEST PUSH1 0x40 MLOAD DUP1 SWAP2 SUB SWAP1 LOG3 POP POP SWAP5 SWAP4 POP POP POP POP JUMP JUMPDEST PUSH2 0x11EB PUSH2 0x1935 JUMP JUMPDEST PUSH1 0x4 SSTORE JUMP JUMPDEST PUSH2 0x11F8 PUSH2 0x1935 JUMP JUMPDEST PUSH2 0x1202 PUSH1 0x0 PUSH2 0x1A1B JUMP JUMPDEST JUMP JUMPDEST PUSH2 0x120C PUSH2 0x1935 JUMP JUMPDEST PUSH2 0x2710 DUP2 GT ISZERO PUSH2 0x122F JUMPI PUSH1 0x40 MLOAD PUSH4 0xC6CC5D7F PUSH1 0xE0 SHL DUP2 MSTORE PUSH1 0x4 ADD PUSH1 0x40 MLOAD DUP1 SWAP2 SUB SWAP1 REVERT JUMPDEST PUSH1 0x2 SSTORE JUMP JUMPDEST PUSH2 0x123C PUSH2 0x1919 JUMP JUMPDEST DUP1 PUSH1 0x0 SUB PUSH2 0x125D JUMPI PUSH1 0x40 MLOAD PUSH4 0x1F2A2005 PUSH1 0xE0 SHL DUP2 MSTORE PUSH1 0x4 ADD PUSH1 0x40 MLOAD DUP1 SWAP2 SUB SWAP1 REVERT JUMPDEST CALLER PUSH1 0x0 DUP2 DUP2 MSTORE PUSH1 0x7 PUSH1 0x20 MSTORE PUSH1 0x40 SWAP1 KECCAK256 SLOAD DUP3 GT ISZERO PUSH2 0x128D JUMPI PUSH1 0x40 MLOAD PUSH4 0xCABEB655 PUSH1 0xE0 SHL DUP2 MSTORE PUSH1 0x4 ADD PUSH1 0x40 MLOAD DUP1 SWAP2 SUB SWAP1 REVERT JUMPDEST PUSH1 0x1 PUSH1 0x1 PUSH1 0xA0 SHL SUB DUP2 AND PUSH1 0x0 SWAP1 DUP2 MSTORE PUSH1 0xA PUSH1 0x20 MSTORE PUSH1 0x40 DUP2 KECCAK256 SWAP1 JUMPDEST DUP2 SLOAD DUP2 LT ISZERO PUSH2 0x131B JUMPI PUSH1 0x0 PUSH1 0x6 PUSH1 0x0 DUP5 DUP5 DUP2 SLOAD DUP2 LT PUSH2 0x12C8 JUMPI PUSH2 0x12C8 PUSH2 0x21B5 JUMP JUMPDEST SWAP1 PUSH1 0x0 MSTORE PUSH1 0x20 PUSH1 0x0 KECCAK256 ADD SLOAD DUP2 MSTORE PUSH1 0x20 ADD SWAP1 DUP2 MSTORE PUSH1 0x20 ADD PUSH1 0x0 KECCAK256 SWAP1 POP PUSH2 0x12EC DUP2 PUSH2 0x1A6B JUMP JUMPDEST ISZERO PUSH2 0x1312 JUMPI DUP1 PUSH1 0x6 ADD SLOAD PUSH1 0x40 MLOAD PUSH4 0x8F0B6549 PUSH1 0xE0 SHL DUP2 MSTORE PUSH1 0x4 ADD PUSH2 0x4CA SWAP2 DUP2 MSTORE PUSH1 0x20 ADD SWAP1 JUMP JUMPDEST POP PUSH1 0x1 ADD PUSH2 0x12A7 JUMP JUMPDEST POP PUSH1 0x1 PUSH1 0x1 PUSH1 0xA0 SHL SUB DUP3 AND PUSH1 0x0 SWAP1 DUP2 MSTORE PUSH1 0x7 PUSH1 0x20 MSTORE PUSH1 0x40 DUP2 KECCAK256 DUP1 SLOAD DUP6 SWAP3 SWAP1 PUSH2 0x1344 SWAP1 DUP5 SWAP1 PUSH2 0x21CB JUMP JUMPDEST SWAP3 POP POP DUP2 SWAP1 SSTORE POP DUP3 PUSH1 0x8 PUSH1 0x0 DUP3 DUP3 SLOAD PUSH2 0x135D SWAP2 SWAP1 PUSH2 0x21CB JUMP JUMPDEST SWAP1 SWAP2 SSTORE POP POP PUSH1 0x40 MLOAD PUSH4 0xA9059CBB PUSH1 0xE0 SHL DUP2 MSTORE PUSH1 0x1 PUSH1 0x1 PUSH1 0xA0 SHL SUB DUP4 DUP2 AND PUSH1 0x4 DUP4 ADD MSTORE PUSH1 0x24 DUP3 ADD DUP6 SWAP1 MSTORE PUSH32 0x0 AND SWAP1 PUSH4 0xA9059CBB SWAP1 PUSH1 0x44 ADD PUSH1 0x20 PUSH1 0x40 MLOAD DUP1 DUP4 SUB DUP2 PUSH1 0x0 DUP8 GAS CALL ISZERO DUP1 ISZERO PUSH2 0x13D1 JUMPI RETURNDATASIZE PUSH1 0x0 DUP1 RETURNDATACOPY RETURNDATASIZE PUSH1 0x0 REVERT JUMPDEST POP POP POP POP PUSH1 0x40 MLOAD RETURNDATASIZE PUSH1 0x1F NOT PUSH1 0x1F DUP3 ADD AND DUP3 ADD DUP1 PUSH1 0x40 MSTORE POP DUP2 ADD SWAP1 PUSH2 0x13F5 SWAP2 SWAP1 PUSH2 0x21DE JUMP JUMPDEST POP DUP2 PUSH1 0x1 PUSH1 0x1 PUSH1 0xA0 SHL SUB AND PUSH32 0xDEFD0BF5DC03B8D2B38CDE1DF73C28C35F2EE89F828F110ED9C50F67A800E527 DUP5 PUSH1 0x40 MLOAD PUSH2 0xC35 SWAP2 DUP2 MSTORE PUSH1 0x20 ADD SWAP1 JUMP JUMPDEST PUSH2 0x1439 PUSH2 0x1919 JUMP JUMPDEST DUP1 PUSH1 0x0 SUB PUSH2 0x145A JUMPI PUSH1 0x40 MLOAD PUSH4 0x1F2A2005 PUSH1 0xE0 SHL DUP2 MSTORE PUSH1 0x4 ADD PUSH1 0x40 MLOAD DUP1 SWAP2 SUB SWAP1 REVERT JUMPDEST PUSH1 0x40 MLOAD PUSH4 0x23B872DD PUSH1 0xE0 SHL DUP2 MSTORE CALLER PUSH1 0x4 DUP3 ADD MSTORE ADDRESS PUSH1 0x24 DUP3 ADD MSTORE PUSH1 0x44 DUP2 ADD DUP3 SWAP1 MSTORE PUSH32 0x0 PUSH1 0x1 PUSH1 0x1 PUSH1 0xA0 SHL SUB AND SWAP1 PUSH4 0x23B872DD SWAP1 PUSH1 0x64 ADD PUSH1 0x20 PUSH1 0x40 MLOAD DUP1 DUP4 SUB DUP2 PUSH1 0x0 DUP8 GAS CALL ISZERO DUP1 ISZERO PUSH2 0x14CD JUMPI RETURNDATASIZE PUSH1 0x0 DUP1 RETURNDATACOPY RETURNDATASIZE PUSH1 0x0 REVERT JUMPDEST POP POP POP POP PUSH1 0x40 MLOAD RETURNDATASIZE PUSH1 0x1F NOT PUSH1 0x1F DUP3 ADD AND DUP3 ADD DUP1 PUSH1 0x40 MSTORE POP DUP2 ADD SWAP1 PUSH2 0x14F1 SWAP2 SWAP1 PUSH2 0x21DE JUMP JUMPDEST POP CALLER PUSH1 0x0 SWAP1 DUP2 MSTORE PUSH1 0x7 PUSH1 0x20 MSTORE PUSH1 0x40 DUP2 KECCAK256 DUP1 SLOAD DUP4 SWAP3 SWAP1 PUSH2 0x1511 SWAP1 DUP5 SWAP1 PUSH2 0x2009 JUMP JUMPDEST SWAP3 POP POP DUP2 SWAP1 SSTORE POP DUP1 PUSH1 0x8 PUSH1 0x0 DUP3 DUP3 SLOAD PUSH2 0x152A SWAP2 SWAP1 PUSH2 0x2009 JUMP JUMPDEST SWAP1 SWAP2 SSTORE POP POP PUSH1 0x40 MLOAD DUP2 DUP2 MSTORE CALLER SWAP1 PUSH32 0xB17583F19C82654A9992A9E782DD7419A0581ACDCC5383F28E9B419137AE716D SWAP1 PUSH1 0x20 ADD PUSH1 0x40 MLOAD DUP1 SWAP2 SUB SWAP1 LOG2 PUSH2 0xC56 PUSH1 0x1 PUSH1 0x0 DUP1 MLOAD PUSH1 0x20 PUSH2 0x2255 DUP4 CODECOPY DUP2 MLOAD SWAP2 MSTORE SSTORE JUMP JUMPDEST PUSH2 0x1583 PUSH2 0x1BA9 JUMP JUMPDEST PUSH1 0x0 PUSH1 0x6 PUSH1 0x0 DUP5 DUP2 MSTORE PUSH1 0x20 ADD SWAP1 DUP2 MSTORE PUSH1 0x20 ADD PUSH1 0x0 KECCAK256 PUSH1 0x40 MLOAD DUP1 PUSH2 0x1A0 ADD PUSH1 0x40 MSTORE SWAP1 DUP2 PUSH1 0x0 DUP3 ADD SLOAD DUP2 MSTORE PUSH1 0x20 ADD PUSH1 0x1 DUP3 ADD DUP1 SLOAD PUSH2 0x15BE SWAP1 PUSH2 0x1FA5 JUMP JUMPDEST DUP1 PUSH1 0x1F ADD PUSH1 0x20 DUP1 SWAP2 DIV MUL PUSH1 0x20 ADD PUSH1 0x40 MLOAD SWAP1 DUP2 ADD PUSH1 0x40 MSTORE DUP1 SWAP3 SWAP2 SWAP1 DUP2 DUP2 MSTORE PUSH1 0x20 ADD DUP3 DUP1 SLOAD PUSH2 0x15EA SWAP1 PUSH2 0x1FA5 JUMP JUMPDEST DUP1 ISZERO PUSH2 0x1637 JUMPI DUP1 PUSH1 0x1F LT PUSH2 0x160C JUMPI PUSH2 0x100 DUP1 DUP4 SLOAD DIV MUL DUP4 MSTORE SWAP2 PUSH1 0x20 ADD SWAP2 PUSH2 0x1637 JUMP JUMPDEST DUP3 ADD SWAP2 SWAP1 PUSH1 0x0 MSTORE PUSH1 0x20 PUSH1 0x0 KECCAK256 SWAP1 JUMPDEST DUP2 SLOAD DUP2 MSTORE SWAP1 PUSH1 0x1 ADD SWAP1 PUSH1 0x20 ADD DUP1 DUP4 GT PUSH2 0x161A JUMPI DUP3 SWAP1 SUB PUSH1 0x1F AND DUP3 ADD SWAP2 JUMPDEST POP POP POP POP POP DUP2 MSTORE PUSH1 0x20 ADD PUSH1 0x2 DUP3 ADD DUP1 SLOAD PUSH2 0x1650 SWAP1 PUSH2 0x1FA5 JUMP JUMPDEST DUP1 PUSH1 0x1F ADD PUSH1 0x20 DUP1 SWAP2 DIV MUL PUSH1 0x20 ADD PUSH1 0x40 MLOAD SWAP1 DUP2 ADD PUSH1 0x40 MSTORE DUP1 SWAP3 SWAP2 SWAP1 DUP2 DUP2 MSTORE PUSH1 0x20 ADD DUP3 DUP1 SLOAD PUSH2 0x167C SWAP1 PUSH2 0x1FA5 JUMP JUMPDEST DUP1 ISZERO PUSH2 0x16C9 JUMPI DUP1 PUSH1 0x1F LT PUSH2 0x169E JUMPI PUSH2 0x100 DUP1 DUP4 SLOAD DIV MUL DUP4 MSTORE SWAP2 PUSH1 0x20 ADD SWAP2 PUSH2 0x16C9 JUMP JUMPDEST DUP3 ADD SWAP2 SWAP1 PUSH1 0x0 MSTORE PUSH1 0x20 PUSH1 0x0 KECCAK256 SWAP1 JUMPDEST DUP2 SLOAD DUP2 MSTORE SWAP1 PUSH1 0x1 ADD SWAP1 PUSH1 0x20 ADD DUP1 DUP4 GT PUSH2 0x16AC JUMPI DUP3 SWAP1 SUB PUSH1 0x1F AND DUP3 ADD SWAP2 JUMPDEST POP POP POP SWAP2 DUP4 MSTORE POP POP PUSH1 0x3 DUP3 ADD SLOAD PUSH1 0x1 PUSH1 0x1 PUSH1 0xA0 SHL SUB AND PUSH1 0x20 DUP3 ADD MSTORE PUSH1 0x4 DUP3 ADD SLOAD PUSH1 0x40 DUP3 ADD MSTORE PUSH1 0x5 DUP1 DUP4 ADD SLOAD PUSH1 0x60 DUP4 ADD MSTORE PUSH1 0x6 DUP4 ADD SLOAD PUSH1 0x80 DUP4 ADD MSTORE PUSH1 0x7 DUP4 ADD SLOAD PUSH1 0xA0 DUP4 ADD MSTORE PUSH1 0x8 DUP4 ADD SLOAD PUSH1 0xC0 DUP4 ADD MSTORE PUSH1 0x9 DUP4 ADD SLOAD PUSH1 0xE0 DUP4 ADD MSTORE PUSH1 0xA DUP4 ADD SLOAD PUSH2 0x100 DUP4 ADD MSTORE PUSH1 0xB DUP4 ADD SLOAD PUSH2 0x120 SWAP1 SWAP3 ADD SWAP2 PUSH1 0xFF AND SWAP1 DUP2 GT ISZERO PUSH2 0x174B JUMPI PUSH2 0x174B PUSH2 0x1C8A JUMP JUMPDEST PUSH1 0x5 DUP2 GT ISZERO PUSH2 0x175C JUMPI PUSH2 0x175C PUSH2 0x1C8A JUMP JUMPDEST DUP2 MSTORE PUSH1 0xB SWAP2 SWAP1 SWAP2 ADD SLOAD PUSH2 0x100 SWAP1 DIV PUSH1 0xFF AND ISZERO ISZERO PUSH1 0x20 SWAP1 SWAP2 ADD MSTORE DUP1 MLOAD SWAP1 SWAP3 POP PUSH1 0x0 SUB PUSH2 0x179A JUMPI PUSH1 0x40 MLOAD PUSH4 0x635E8737 PUSH1 0xE0 SHL DUP2 MSTORE PUSH1 0x4 ADD PUSH1 0x40 MLOAD DUP1 SWAP2 SUB SWAP1 REVERT JUMPDEST PUSH2 0x17A3 DUP3 PUSH2 0x1962 JUMP JUMPDEST SWAP1 POP SWAP2 POP SWAP2 JUMP JUMPDEST PUSH1 0x0 DUP2 DUP2 MSTORE PUSH1 0x6 PUSH1 0x20 MSTORE PUSH1 0x40 DUP2 KECCAK256 DUP1 SLOAD DUP3 SUB PUSH2 0x17C9 JUMPI POP PUSH1 0x0 SWAP3 SWAP2 POP POP JUMP JUMPDEST PUSH1 0x0 DUP2 PUSH1 0x9 ADD SLOAD DUP3 PUSH1 0x8 ADD SLOAD PUSH2 0x17DF SWAP2 SWAP1 PUSH2 0x2009 JUMP JUMPDEST SWAP1 POP PUSH1 0x0 PUSH2 0x2710 PUSH1 0x2 SLOAD DUP5 PUSH1 0xA ADD SLOAD PUSH2 0x17F8 SWAP2 SWAP1 PUSH2 0x21FB JUMP JUMPDEST PUSH2 0x1802 SWAP2 SWAP1 PUSH2 0x2212 JUMP JUMPDEST SWAP1 SWAP2 LT ISZERO SWAP5 SWAP4 POP POP POP POP JUMP JUMPDEST PUSH2 0x1816 PUSH2 0x1935 JUMP JUMPDEST PUSH3 0x15180 DUP2 LT DUP1 PUSH2 0x1829 JUMPI POP PUSH3 0x278D00 DUP2 GT JUMPDEST ISZERO PUSH2 0x1847 JUMPI PUSH1 0x40 MLOAD PUSH4 0x2E8F359 PUSH1 0xE3 SHL DUP2 MSTORE PUSH1 0x4 ADD PUSH1 0x40 MLOAD DUP1 SWAP2 SUB SWAP1 REVERT JUMPDEST PUSH1 0x3 SSTORE JUMP JUMPDEST PUSH2 0x1854 PUSH2 0x1935 JUMP JUMPDEST PUSH1 0x1 SSTORE JUMP JUMPDEST PUSH2 0x1861 PUSH2 0x1935 JUMP JUMPDEST PUSH1 0x1 PUSH1 0x1 PUSH1 0xA0 SHL SUB DUP2 AND PUSH2 0x188B JUMPI PUSH1 0x40 MLOAD PUSH4 0x1E4FBDF7 PUSH1 0xE0 SHL DUP2 MSTORE PUSH1 0x0 PUSH1 0x4 DUP3 ADD MSTORE PUSH1 0x24 ADD PUSH2 0x4CA JUMP JUMPDEST PUSH2 0xC56 DUP2 PUSH2 0x1A1B JUMP JUMPDEST PUSH1 0x0 DUP1 DUP3 PUSH2 0x120 ADD MLOAD DUP4 PUSH2 0x100 ADD MLOAD PUSH2 0x18AD SWAP2 SWAP1 PUSH2 0x2009 JUMP JUMPDEST SWAP1 POP PUSH1 0x0 PUSH2 0x2710 PUSH1 0x2 SLOAD DUP6 PUSH2 0x140 ADD MLOAD PUSH2 0x18C7 SWAP2 SWAP1 PUSH2 0x21FB JUMP JUMPDEST PUSH2 0x18D1 SWAP2 SWAP1 PUSH2 0x2212 JUMP JUMPDEST SWAP1 POP PUSH1 0x0 DUP5 PUSH2 0x140 ADD MLOAD GT DUP1 ISZERO PUSH2 0x18E7 JUMPI POP DUP1 DUP3 LT JUMPDEST ISZERO PUSH2 0x18F6 JUMPI POP PUSH1 0x3 SWAP4 SWAP3 POP POP POP JUMP JUMPDEST DUP4 PUSH2 0x120 ADD MLOAD DUP5 PUSH2 0x100 ADD MLOAD GT PUSH2 0x190E JUMPI PUSH1 0x3 PUSH2 0x1911 JUMP JUMPDEST PUSH1 0x2 JUMPDEST SWAP5 SWAP4 POP POP POP POP JUMP JUMPDEST PUSH2 0x1921 PUSH2 0x1B79 JUMP JUMPDEST PUSH1 0x2 PUSH1 0x0 DUP1 MLOAD PUSH1 0x20 PUSH2 0x2255 DUP4 CODECOPY DUP2 MLOAD SWAP2 MSTORE SSTORE JUMP JUMPDEST PUSH1 0x0 SLOAD PUSH1 0x1 PUSH1 0x1 PUSH1 0xA0 SHL SUB AND CALLER EQ PUSH2 0x1202 JUMPI PUSH1 0x40 MLOAD PUSH4 0x118CDAA7 PUSH1 0xE0 SHL DUP2 MSTORE CALLER PUSH1 0x4 DUP3 ADD MSTORE PUSH1 0x24 ADD PUSH2 0x4CA JUMP JUMPDEST PUSH2 0x160 DUP2 ADD MLOAD PUSH1 0x0 SWAP1 PUSH1 0x4 DUP2 PUSH1 0x5 DUP2 GT ISZERO PUSH2 0x197F JUMPI PUSH2 0x197F PUSH2 0x1C8A JUMP JUMPDEST EQ DUP1 PUSH2 0x199C JUMPI POP PUSH1 0x3 DUP2 PUSH1 0x5 DUP2 GT ISZERO PUSH2 0x199A JUMPI PUSH2 0x199A PUSH2 0x1C8A JUMP JUMPDEST EQ JUMPDEST DUP1 PUSH2 0x19B8 JUMPI POP PUSH1 0x5 DUP2 PUSH1 0x5 DUP2 GT ISZERO PUSH2 0x19B6 JUMPI PUSH2 0x19B6 PUSH2 0x1C8A JUMP JUMPDEST EQ JUMPDEST ISZERO PUSH2 0x19C3 JUMPI SWAP3 SWAP2 POP POP JUMP JUMPDEST DUP3 PUSH1 0xC0 ADD MLOAD TIMESTAMP GT PUSH2 0x19D4 JUMPI SWAP3 SWAP2 POP POP JUMP JUMPDEST PUSH1 0x0 PUSH2 0x19DF DUP5 PUSH2 0x1894 JUMP JUMPDEST SWAP1 POP PUSH1 0x2 DUP2 PUSH1 0x5 DUP2 GT ISZERO PUSH2 0x19F5 JUMPI PUSH2 0x19F5 PUSH2 0x1C8A JUMP JUMPDEST EQ DUP1 ISZERO PUSH2 0x1A05 JUMPI POP DUP4 PUSH1 0xE0 ADD MLOAD TIMESTAMP GT JUMPDEST ISZERO PUSH2 0x1A14 JUMPI POP PUSH1 0x5 SWAP4 SWAP3 POP POP POP JUMP JUMPDEST SWAP4 SWAP3 POP POP POP JUMP JUMPDEST PUSH1 0x0 DUP1 SLOAD PUSH1 0x1 PUSH1 0x1 PUSH1 0xA0 SHL SUB DUP4 DUP2 AND PUSH1 0x1 PUSH1 0x1 PUSH1 0xA0 SHL SUB NOT DUP4 AND DUP2 OR DUP5 SSTORE PUSH1 0x40 MLOAD SWAP2 SWAP1 SWAP3 AND SWAP3 DUP4 SWAP2 PUSH32 0x8BE0079C531659141344CD1FD0A4F28419497F9722A3DAAFE3B4186F6B6457E0 SWAP2 SWAP1 LOG3 POP POP JUMP JUMPDEST PUSH1 0xB DUP2 ADD SLOAD PUSH1 0x0 SWAP1 PUSH1 0xFF AND PUSH1 0x4 DUP2 PUSH1 0x5 DUP2 GT ISZERO PUSH2 0x1A8A JUMPI PUSH2 0x1A8A PUSH2 0x1C8A JUMP JUMPDEST EQ DUP1 PUSH2 0x1AA7 JUMPI POP PUSH1 0x3 DUP2 PUSH1 0x5 DUP2 GT ISZERO PUSH2 0x1AA5 JUMPI PUSH2 0x1AA5 PUSH2 0x1C8A JUMP JUMPDEST EQ JUMPDEST DUP1 PUSH2 0x1AC3 JUMPI POP PUSH1 0x5 DUP2 PUSH1 0x5 DUP2 GT ISZERO PUSH2 0x1AC1 JUMPI PUSH2 0x1AC1 PUSH2 0x1C8A JUMP JUMPDEST EQ JUMPDEST ISZERO PUSH2 0x1AD1 JUMPI POP PUSH1 0x0 SWAP3 SWAP2 POP POP JUMP JUMPDEST DUP3 PUSH1 0x6 ADD SLOAD TIMESTAMP GT PUSH2 0x1AF9 JUMPI PUSH1 0x1 JUMPDEST DUP2 PUSH1 0x5 DUP2 GT ISZERO PUSH2 0x1AF1 JUMPI PUSH2 0x1AF1 PUSH2 0x1C8A JUMP JUMPDEST EQ SWAP4 SWAP3 POP POP POP JUMP JUMPDEST PUSH2 0x1B23 DUP4 PUSH1 0x40 MLOAD DUP1 PUSH2 0x1A0 ADD PUSH1 0x40 MSTORE SWAP1 DUP2 PUSH1 0x0 DUP3 ADD SLOAD DUP2 MSTORE PUSH1 0x20 ADD PUSH1 0x1 DUP3 ADD DUP1 SLOAD PUSH2 0x55C SWAP1 PUSH2 0x1FA5 JUMP JUMPDEST SWAP1 POP PUSH1 0x2 DUP2 PUSH1 0x5 DUP2 GT ISZERO PUSH2 0x1B39 JUMPI PUSH2 0x1B39 PUSH2 0x1C8A JUMP JUMPDEST EQ DUP1 ISZERO PUSH2 0x1B49 JUMPI POP DUP3 PUSH1 0x7 ADD SLOAD TIMESTAMP GT JUMPDEST ISZERO PUSH2 0x1B57 JUMPI POP PUSH1 0x0 SWAP3 SWAP2 POP POP JUMP JUMPDEST PUSH1 0x1 DUP2 PUSH1 0x5 DUP2 GT ISZERO PUSH2 0x1B6B JUMPI PUSH2 0x1B6B PUSH2 0x1C8A JUMP JUMPDEST EQ DUP1 PUSH2 0x1A14 JUMPI POP PUSH1 0x2 PUSH2 0x1ADF JUMP JUMPDEST PUSH1 0x0 DUP1 MLOAD PUSH1 0x20 PUSH2 0x2255 DUP4 CODECOPY DUP2 MLOAD SWAP2 MSTORE SLOAD PUSH1 0x2 SUB PUSH2 0x1202 JUMPI PUSH1 0x40 MLOAD PUSH4 0x3EE5AEB5 PUSH1 0xE0 SHL DUP2 MSTORE PUSH1 0x4 ADD PUSH1 0x40 MLOAD DUP1 SWAP2 SUB SWAP1 REVERT JUMPDEST PUSH1 0x40 MLOAD DUP1 PUSH2 0x1A0 ADD PUSH1 0x40 MSTORE DUP1 PUSH1 0x0 DUP2 MSTORE PUSH1 0x20 ADD PUSH1 0x60 DUP2 MSTORE PUSH1 0x20 ADD PUSH1 0x60 DUP2 MSTORE PUSH1 0x20 ADD PUSH1 0x0 PUSH1 0x1 PUSH1 0x1 PUSH1 0xA0 SHL SUB AND DUP2 MSTORE PUSH1 0x20 ADD PUSH1 0x0 DUP2 MSTORE PUSH1 0x20 ADD PUSH1 0x0 DUP2 MSTORE PUSH1 0x20 ADD PUSH1 0x0 DUP2 MSTORE PUSH1 0x20 ADD PUSH1 0x0 DUP2 MSTORE PUSH1 0x20 ADD PUSH1 0x0 DUP2 MSTORE PUSH1 0x20 ADD PUSH1 0x0 DUP2 MSTORE PUSH1 0x20 ADD PUSH1 0x0 DUP2 MSTORE PUSH1 0x20 ADD PUSH1 0x0 PUSH1 0x5 DUP2 GT ISZERO PUSH2 0x1C1E JUMPI PUSH2 0x1C1E PUSH2 0x1C8A JUMP JUMPDEST DUP2 MSTORE PUSH1 0x0 PUSH1 0x20 SWAP1 SWAP2 ADD MSTORE SWAP1 JUMP JUMPDEST PUSH1 0x0 PUSH1 0x20 DUP3 DUP5 SUB SLT ISZERO PUSH2 0x1C3D JUMPI PUSH1 0x0 DUP1 REVERT JUMPDEST POP CALLDATALOAD SWAP2 SWAP1 POP JUMP JUMPDEST PUSH1 0x0 DUP2 MLOAD DUP1 DUP5 MSTORE PUSH1 0x0 JUMPDEST DUP2 DUP2 LT ISZERO PUSH2 0x1C6A JUMPI PUSH1 0x20 DUP2 DUP6 ADD DUP2 ADD MLOAD DUP7 DUP4 ADD DUP3 ADD MSTORE ADD PUSH2 0x1C4E JUMP JUMPDEST POP PUSH1 0x0 PUSH1 0x20 DUP3 DUP7 ADD ADD MSTORE PUSH1 0x20 PUSH1 0x1F NOT PUSH1 0x1F DUP4 ADD AND DUP6 ADD ADD SWAP2 POP POP SWAP3 SWAP2 POP POP JUMP JUMPDEST PUSH4 0x4E487B71 PUSH1 0xE0 SHL PUSH1 0x0 MSTORE PUSH1 0x21 PUSH1 0x4 MSTORE PUSH1 0x24 PUSH1 0x0 REVERT JUMPDEST PUSH1 0x6 DUP2 LT PUSH2 0x1CBE JUMPI PUSH4 0x4E487B71 PUSH1 0xE0 SHL PUSH1 0x0 MSTORE PUSH1 0x21 PUSH1 0x4 MSTORE PUSH1 0x24 PUSH1 0x0 REVERT JUMPDEST SWAP1 MSTORE JUMP JUMPDEST DUP14 DUP2 MSTORE PUSH2 0x1A0 PUSH1 0x20 DUP3 ADD MSTORE PUSH1 0x0 PUSH2 0x1CDD PUSH2 0x1A0 DUP4 ADD DUP16 PUSH2 0x1C44 JUMP JUMPDEST DUP3 DUP2 SUB PUSH1 0x40 DUP5 ADD MSTORE PUSH2 0x1CEF DUP2 DUP16 PUSH2 0x1C44 JUMP JUMPDEST SWAP2 POP POP PUSH1 0x1 DUP1 PUSH1 0xA0 SHL SUB DUP13 AND PUSH1 0x60 DUP4 ADD MSTORE DUP11 PUSH1 0x80 DUP4 ADD MSTORE DUP10 PUSH1 0xA0 DUP4 ADD MSTORE DUP9 PUSH1 0xC0 DUP4 ADD MSTORE DUP8 PUSH1 0xE0 DUP4 ADD MSTORE DUP7 PUSH2 0x100 DUP4 ADD MSTORE DUP6 PUSH2 0x120 DUP4 ADD MSTORE DUP5 PUSH2 0x140 DUP4 ADD MSTORE PUSH2 0x1D3B PUSH2 0x160 DUP4 ADD DUP6 PUSH2 0x1CA0 JUMP JUMPDEST DUP3 ISZERO ISZERO PUSH2 0x180 DUP4 ADD MSTORE SWAP15 SWAP14 POP POP POP POP POP POP POP POP POP POP POP POP POP POP JUMP JUMPDEST DUP1 ISZERO ISZERO DUP2 EQ PUSH2 0xC56 JUMPI PUSH1 0x0 DUP1 REVERT JUMPDEST PUSH1 0x0 DUP1 PUSH1 0x40 DUP4 DUP6 SUB SLT ISZERO PUSH2 0x1D77 JUMPI PUSH1 0x0 DUP1 REVERT JUMPDEST DUP3 CALLDATALOAD SWAP2 POP PUSH1 0x20 DUP4 ADD CALLDATALOAD PUSH2 0x1D89 DUP2 PUSH2 0x1D56 JUMP JUMPDEST DUP1 SWAP2 POP POP SWAP3 POP SWAP3 SWAP1 POP JUMP JUMPDEST DUP1 CALLDATALOAD PUSH1 0x1 PUSH1 0x1 PUSH1 0xA0 SHL SUB DUP2 AND DUP2 EQ PUSH2 0x1DAB JUMPI PUSH1 0x0 DUP1 REVERT JUMPDEST SWAP2 SWAP1 POP JUMP JUMPDEST PUSH1 0x0 DUP1 PUSH1 0x40 DUP4 DUP6 SUB SLT ISZERO PUSH2 0x1DC3 JUMPI PUSH1 0x0 DUP1 REVERT JUMPDEST PUSH2 0x1DCC DUP4 PUSH2 0x1D94 JUMP JUMPDEST SWAP5 PUSH1 0x20 SWAP4 SWAP1 SWAP4 ADD CALLDATALOAD SWAP4 POP POP POP JUMP JUMPDEST PUSH1 0x0 DUP1 DUP4 PUSH1 0x1F DUP5 ADD SLT PUSH2 0x1DEC JUMPI PUSH1 0x0 DUP1 REVERT JUMPDEST POP DUP2 CALLDATALOAD PUSH8 0xFFFFFFFFFFFFFFFF DUP2 GT ISZERO PUSH2 0x1E04 JUMPI PUSH1 0x0 DUP1 REVERT JUMPDEST PUSH1 0x20 DUP4 ADD SWAP2 POP DUP4 PUSH1 0x20 DUP3 DUP6 ADD ADD GT ISZERO PUSH2 0x1E1C JUMPI PUSH1 0x0 DUP1 REVERT JUMPDEST SWAP3 POP SWAP3 SWAP1 POP JUMP JUMPDEST PUSH1 0x0 DUP1 PUSH1 0x0 DUP1 PUSH1 0x40 DUP6 DUP8 SUB SLT ISZERO PUSH2 0x1E39 JUMPI PUSH1 0x0 DUP1 REVERT JUMPDEST DUP5 CALLDATALOAD PUSH8 0xFFFFFFFFFFFFFFFF DUP1 DUP3 GT ISZERO PUSH2 0x1E51 JUMPI PUSH1 0x0 DUP1 REVERT JUMPDEST PUSH2 0x1E5D DUP9 DUP4 DUP10 ADD PUSH2 0x1DDA JUMP JUMPDEST SWAP1 SWAP7 POP SWAP5 POP PUSH1 0x20 DUP8 ADD CALLDATALOAD SWAP2 POP DUP1 DUP3 GT ISZERO PUSH2 0x1E76 JUMPI PUSH1 0x0 DUP1 REVERT JUMPDEST POP PUSH2 0x1E83 DUP8 DUP3 DUP9 ADD PUSH2 0x1DDA JUMP JUMPDEST SWAP6 SWAP9 SWAP5 SWAP8 POP SWAP6 POP POP POP POP JUMP JUMPDEST PUSH1 0x0 PUSH1 0x20 DUP3 DUP5 SUB SLT ISZERO PUSH2 0x1EA1 JUMPI PUSH1 0x0 DUP1 REVERT JUMPDEST PUSH2 0x1A14 DUP3 PUSH2 0x1D94 JUMP JUMPDEST PUSH1 0x40 DUP2 MSTORE DUP3 MLOAD PUSH1 0x40 DUP3 ADD MSTORE PUSH1 0x0 PUSH1 0x20 DUP5 ADD MLOAD PUSH2 0x1A0 DUP1 PUSH1 0x60 DUP6 ADD MSTORE PUSH2 0x1ED3 PUSH2 0x1E0 DUP6 ADD DUP4 PUSH2 0x1C44 JUMP JUMPDEST SWAP2 POP PUSH1 0x40 DUP7 ADD MLOAD PUSH1 0x3F NOT DUP6 DUP5 SUB ADD PUSH1 0x80 DUP7 ADD MSTORE PUSH2 0x1EF0 DUP4 DUP3 PUSH2 0x1C44 JUMP JUMPDEST SWAP3 POP POP PUSH1 0x60 DUP7 ADD MLOAD PUSH2 0x1F0D PUSH1 0xA0 DUP7 ADD DUP3 PUSH1 0x1 PUSH1 0x1 PUSH1 0xA0 SHL SUB AND SWAP1 MSTORE JUMP JUMPDEST POP PUSH1 0x80 DUP7 ADD MLOAD PUSH1 0xC0 DUP6 ADD MSTORE PUSH1 0xA0 DUP7 ADD MLOAD PUSH1 0xE0 DUP6 ADD MSTORE PUSH1 0xC0 DUP7 ADD MLOAD PUSH2 0x100 DUP2 DUP2 DUP8 ADD MSTORE PUSH1 0xE0 DUP9 ADD MLOAD SWAP2 POP PUSH2 0x120 DUP3 DUP2 DUP9 ADD MSTORE DUP2 DUP10 ADD MLOAD SWAP3 POP PUSH2 0x140 SWAP2 POP DUP3 DUP3 DUP9 ADD MSTORE DUP1 DUP10 ADD MLOAD SWAP3 POP POP PUSH2 0x160 DUP3 DUP2 DUP9 ADD MSTORE DUP2 DUP10 ADD MLOAD SWAP3 POP PUSH2 0x180 SWAP2 POP DUP3 DUP3 DUP9 ADD MSTORE DUP1 DUP10 ADD MLOAD SWAP3 POP POP PUSH2 0x1F80 DUP4 DUP8 ADD DUP4 PUSH2 0x1CA0 JUMP JUMPDEST DUP8 ADD MLOAD DUP1 ISZERO ISZERO PUSH2 0x1C0 DUP8 ADD MSTORE SWAP2 POP PUSH2 0x1F95 SWAP1 POP JUMP JUMPDEST POP SWAP1 POP PUSH2 0x1A14 PUSH1 0x20 DUP4 ADD DUP5 PUSH2 0x1CA0 JUMP JUMPDEST PUSH1 0x1 DUP2 DUP2 SHR SWAP1 DUP3 AND DUP1 PUSH2 0x1FB9 JUMPI PUSH1 0x7F DUP3 AND SWAP2 POP JUMPDEST PUSH1 0x20 DUP3 LT DUP2 SUB PUSH2 0x1FD9 JUMPI PUSH4 0x4E487B71 PUSH1 0xE0 SHL PUSH1 0x0 MSTORE PUSH1 0x22 PUSH1 0x4 MSTORE PUSH1 0x24 PUSH1 0x0 REVERT JUMPDEST POP SWAP2 SWAP1 POP JUMP JUMPDEST PUSH1 0x20 DUP2 ADD PUSH2 0x1FED DUP3 DUP5 PUSH2 0x1CA0 JUMP JUMPDEST SWAP3 SWAP2 POP POP JUMP JUMPDEST PUSH4 0x4E487B71 PUSH1 0xE0 SHL PUSH1 0x0 MSTORE PUSH1 0x11 PUSH1 0x4 MSTORE PUSH1 0x24 PUSH1 0x0 REVERT JUMPDEST DUP1 DUP3 ADD DUP1 DUP3 GT ISZERO PUSH2 0x1FED JUMPI PUSH2 0x1FED PUSH2 0x1FF3 JUMP JUMPDEST PUSH1 0x0 PUSH1 0x20 DUP3 DUP5 SUB SLT ISZERO PUSH2 0x202E JUMPI PUSH1 0x0 DUP1 REVERT JUMPDEST POP MLOAD SWAP2 SWAP1 POP JUMP JUMPDEST PUSH1 0x0 PUSH1 0x1 DUP3 ADD PUSH2 0x2047 JUMPI PUSH2 0x2047 PUSH2 0x1FF3 JUMP JUMPDEST POP PUSH1 0x1 ADD SWAP1 JUMP JUMPDEST PUSH4 0x4E487B71 PUSH1 0xE0 SHL PUSH1 0x0 MSTORE PUSH1 0x41 PUSH1 0x4 MSTORE PUSH1 0x24 PUSH1 0x0 REVERT JUMPDEST PUSH1 0x1F DUP3 GT ISZERO PUSH2 0x20B0 JUMPI PUSH1 0x0 DUP2 PUSH1 0x0 MSTORE PUSH1 0x20 PUSH1 0x0 KECCAK256 PUSH1 0x1F DUP6 ADD PUSH1 0x5 SHR DUP2 ADD PUSH1 0x20 DUP7 LT ISZERO PUSH2 0x208D JUMPI POP DUP1 JUMPDEST PUSH1 0x1F DUP6 ADD PUSH1 0x5 SHR DUP3 ADD SWAP2 POP JUMPDEST DUP2 DUP2 LT ISZERO PUSH2 0x20AC JUMPI DUP3 DUP2 SSTORE PUSH1 0x1 ADD PUSH2 0x2099 JUMP JUMPDEST POP POP POP JUMPDEST POP POP POP JUMP JUMPDEST DUP2 MLOAD PUSH8 0xFFFFFFFFFFFFFFFF DUP2 GT ISZERO PUSH2 0x20CF JUMPI PUSH2 0x20CF PUSH2 0x204E JUMP JUMPDEST PUSH2 0x20E3 DUP2 PUSH2 0x20DD DUP5 SLOAD PUSH2 0x1FA5 JUMP JUMPDEST DUP5 PUSH2 0x2064 JUMP JUMPDEST PUSH1 0x20 DUP1 PUSH1 0x1F DUP4 GT PUSH1 0x1 DUP2 EQ PUSH2 0x2118 JUMPI PUSH1 0x0 DUP5 ISZERO PUSH2 0x2100 JUMPI POP DUP6 DUP4 ADD MLOAD JUMPDEST PUSH1 0x0 NOT PUSH1 0x3 DUP7 SWAP1 SHL SHR NOT AND PUSH1 0x1 DUP6 SWAP1 SHL OR DUP6 SSTORE PUSH2 0x20AC JUMP JUMPDEST PUSH1 0x0 DUP6 DUP2 MSTORE PUSH1 0x20 DUP2 KECCAK256 PUSH1 0x1F NOT DUP7 AND SWAP2 JUMPDEST DUP3 DUP2 LT ISZERO PUSH2 0x2147 JUMPI DUP9 DUP7 ADD MLOAD DUP3 SSTORE SWAP5 DUP5 ADD SWAP5 PUSH1 0x1 SWAP1 SWAP2 ADD SWAP1 DUP5 ADD PUSH2 0x2128 JUMP JUMPDEST POP DUP6 DUP3 LT ISZERO PUSH2 0x2165 JUMPI DUP8 DUP6 ADD MLOAD PUSH1 0x0 NOT PUSH1 0x3 DUP9 SWAP1 SHL PUSH1 0xF8 AND SHR NOT AND DUP2 SSTORE JUMPDEST POP POP POP POP POP PUSH1 0x1 SWAP1 DUP2 SHL ADD SWAP1 SSTORE POP JUMP JUMPDEST PUSH1 0x60 DUP2 MSTORE DUP4 PUSH1 0x60 DUP3 ADD MSTORE DUP4 DUP6 PUSH1 0x80 DUP4 ADD CALLDATACOPY PUSH1 0x0 PUSH1 0x80 DUP6 DUP4 ADD ADD MSTORE PUSH1 0x0 PUSH1 0x80 PUSH1 0x1F NOT PUSH1 0x1F DUP8 ADD AND DUP4 ADD ADD SWAP1 POP DUP4 PUSH1 0x20 DUP4 ADD MSTORE DUP3 PUSH1 0x40 DUP4 ADD MSTORE SWAP6 SWAP5 POP POP POP POP POP JUMP JUMPDEST PUSH4 0x4E487B71 PUSH1 0xE0 SHL PUSH1 0x0 MSTORE PUSH1 0x32 PUSH1 0x4 MSTORE PUSH1 0x24 PUSH1 0x0 REVERT JUMPDEST DUP2 DUP2 SUB DUP2 DUP2 GT ISZERO PUSH2 0x1FED JUMPI PUSH2 0x1FED PUSH2 0x1FF3 JUMP JUMPDEST PUSH1 0x0 PUSH1 0x20 DUP3 DUP5 SUB SLT ISZERO PUSH2 0x21F0 JUMPI PUSH1 0x0 DUP1 REVERT JUMPDEST DUP2 MLOAD PUSH2 0x1A14 DUP2 PUSH2 0x1D56 JUMP JUMPDEST DUP1 DUP3 MUL DUP2 ISZERO DUP3 DUP3 DIV DUP5 EQ OR PUSH2 0x1FED JUMPI PUSH2 0x1FED PUSH2 0x1FF3 JUMP JUMPDEST PUSH1 0x0 DUP3 PUSH2 0x222F JUMPI PUSH4 0x4E487B71 PUSH1 0xE0 SHL PUSH1 0x0 MSTORE PUSH1 0x12 PUSH1 0x4 MSTORE PUSH1 0x24 PUSH1 0x0 REVERT JUMPDEST POP DIV SWAP1 JUMP INVALID CALLDATASIZE CHAINID 0xAF 0x1E PUSH19 0x3AD3312B3882E1313A9A027AC60BE336DD8582 0xED PUSH19 0x7E1DD4CF9E789B779B17422D0DF92223018B32 0xB4 0xD1 STATICCALL CHAINID 0xE0 PUSH18 0x723D6817E2486D003BECC55F00A264697066 PUSH20 0x5822122055D6C03A559ABDB3F9E7E602C9D8C228 0xF8 PUSH18 0x456A245456025949F729CA10370464736F6C PUSH4 0x43000818 STOP CALLER "
				},
				"gasEstimates": {
					"creation": {
						"codeDepositCost": "1774800",
						"executionCost": "infinite",
						"totalCost": "infinite"
					},
					"external": {
						"EXECUTION_WINDOW()": "263",
						"MAX_VOTING_PERIOD()": "263",
						"MIN_VOTING_PERIOD()": "307",
						"castVote(uint256,bool)": "infinite",
						"createProposal(string,string)": "infinite",
						"depositVotingPower(uint256)": "infinite",
						"executeProposal(uint256)": "infinite",
						"getProposal(uint256)": "infinite",
						"getVotingPower(address)": "2648",
						"hasVoted(address,uint256)": "2736",
						"owner()": "2377",
						"proposalCount()": "2339",
						"proposalThreshold()": "2384",
						"proposals(uint256)": "infinite",
						"quorumBps()": "2384",
						"quorumReached(uint256)": "infinite",
						"renounceOwnership()": "infinite",
						"resolveProposal(uint256)": "infinite",
						"setProposalThreshold(uint256)": "24576",
						"setQuorumBps(uint256)": "24604",
						"setVotingDelay(uint256)": "24577",
						"setVotingPeriod(uint256)": "24608",
						"timbsToken()": "infinite",
						"totalVotingPower()": "2362",
						"transferOwnership(address)": "28443",
						"voterParticipation(address,uint256)": "4834",
						"votingDelay()": "2341",
						"votingPeriod()": "2386",
						"votingPowerDeposited(address)": "2586",
						"withdrawVotingPower(uint256)": "infinite"
					},
					"internal": {
						"_computeOutcome(struct TimbGovernance.Proposal memory)": "infinite",
						"_isLocked(struct TimbGovernance.Proposal storage pointer)": "infinite",
						"_resolvedStatus(struct TimbGovernance.Proposal memory)": "infinite"
					}
				},
				"methodIdentifiers": {
					"EXECUTION_WINDOW()": "3e65164a",
					"MAX_VOTING_PERIOD()": "a64e024a",
					"MIN_VOTING_PERIOD()": "215809ca",
					"castVote(uint256,bool)": "15373e3d",
					"createProposal(string,string)": "65e481e2",
					"depositVotingPower(uint256)": "b34aa3a9",
					"executeProposal(uint256)": "0d61b519",
					"getProposal(uint256)": "c7f758a8",
					"getVotingPower(address)": "bb4d4436",
					"hasVoted(address,uint256)": "42545825",
					"owner()": "8da5cb5b",
					"proposalCount()": "da35c664",
					"proposalThreshold()": "b58131b0",
					"proposals(uint256)": "013cf08b",
					"quorumBps()": "cd2ddd0c",
					"quorumReached(uint256)": "d4a8dd98",
					"renounceOwnership()": "715018a6",
					"resolveProposal(uint256)": "0062804e",
					"setProposalThreshold(uint256)": "ece40cc1",
					"setQuorumBps(uint256)": "a815ca52",
					"setVotingDelay(uint256)": "70b0f660",
					"setVotingPeriod(uint256)": "ea0217cf",
					"timbsToken()": "0e31648f",
					"totalVotingPower()": "671b3793",
					"transferOwnership(address)": "f2fde38b",
					"voterParticipation(address,uint256)": "41d5ce4a",
					"votingDelay()": "3932abb1",
					"votingPeriod()": "02a251a3",
					"votingPowerDeposited(address)": "cd01abdf",
					"withdrawVotingPower(uint256)": "a89a452d"
				}
			},
			"storageLayout": {
				"storage": [
					{
						"astId": 8,
						"contract": "contracts/TimbGovernance.sol:TimbGovernance",
						"label": "_owner",
						"offset": 0,
						"slot": "0",
						"type": "t_address"
					},
					{
						"astId": 553,
						"contract": "contracts/TimbGovernance.sol:TimbGovernance",
						"label": "proposalThreshold",
						"offset": 0,
						"slot": "1",
						"type": "t_uint256"
					},
					{
						"astId": 555,
						"contract": "contracts/TimbGovernance.sol:TimbGovernance",
						"label": "quorumBps",
						"offset": 0,
						"slot": "2",
						"type": "t_uint256"
					},
					{
						"astId": 557,
						"contract": "contracts/TimbGovernance.sol:TimbGovernance",
						"label": "votingPeriod",
						"offset": 0,
						"slot": "3",
						"type": "t_uint256"
					},
					{
						"astId": 559,
						"contract": "contracts/TimbGovernance.sol:TimbGovernance",
						"label": "votingDelay",
						"offset": 0,
						"slot": "4",
						"type": "t_uint256"
					},
					{
						"astId": 561,
						"contract": "contracts/TimbGovernance.sol:TimbGovernance",
						"label": "proposalCount",
						"offset": 0,
						"slot": "5",
						"type": "t_uint256"
					},
					{
						"astId": 566,
						"contract": "contracts/TimbGovernance.sol:TimbGovernance",
						"label": "proposals",
						"offset": 0,
						"slot": "6",
						"type": "t_mapping(t_uint256,t_struct(Proposal)536_storage)"
					},
					{
						"astId": 570,
						"contract": "contracts/TimbGovernance.sol:TimbGovernance",
						"label": "votingPowerDeposited",
						"offset": 0,
						"slot": "7",
						"type": "t_mapping(t_address,t_uint256)"
					},
					{
						"astId": 572,
						"contract": "contracts/TimbGovernance.sol:TimbGovernance",
						"label": "totalVotingPower",
						"offset": 0,
						"slot": "8",
						"type": "t_uint256"
					},
					{
						"astId": 578,
						"contract": "contracts/TimbGovernance.sol:TimbGovernance",
						"label": "hasVoted",
						"offset": 0,
						"slot": "9",
						"type": "t_mapping(t_address,t_mapping(t_uint256,t_bool))"
					},
					{
						"astId": 583,
						"contract": "contracts/TimbGovernance.sol:TimbGovernance",
						"label": "voterParticipation",
						"offset": 0,
						"slot": "10",
						"type": "t_mapping(t_address,t_array(t_uint256)dyn_storage)"
					}
				],
				"types": {
					"t_address": {
						"encoding": "inplace",
						"label": "address",
						"numberOfBytes": "20"
					},
					"t_array(t_uint256)dyn_storage": {
						"base": "t_uint256",
						"encoding": "dynamic_array",
						"label": "uint256[]",
						"numberOfBytes": "32"
					},
					"t_bool": {
						"encoding": "inplace",
						"label": "bool",
						"numberOfBytes": "1"
					},
					"t_enum(ProposalStatus)508": {
						"encoding": "inplace",
						"label": "enum TimbGovernance.ProposalStatus",
						"numberOfBytes": "1"
					},
					"t_mapping(t_address,t_array(t_uint256)dyn_storage)": {
						"encoding": "mapping",
						"key": "t_address",
						"label": "mapping(address => uint256[])",
						"numberOfBytes": "32",
						"value": "t_array(t_uint256)dyn_storage"
					},
					"t_mapping(t_address,t_mapping(t_uint256,t_bool))": {
						"encoding": "mapping",
						"key": "t_address",
						"label": "mapping(address => mapping(uint256 => bool))",
						"numberOfBytes": "32",
						"value": "t_mapping(t_uint256,t_bool)"
					},
					"t_mapping(t_address,t_uint256)": {
						"encoding": "mapping",
						"key": "t_address",
						"label": "mapping(address => uint256)",
						"numberOfBytes": "32",
						"value": "t_uint256"
					},
					"t_mapping(t_uint256,t_bool)": {
						"encoding": "mapping",
						"key": "t_uint256",
						"label": "mapping(uint256 => bool)",
						"numberOfBytes": "32",
						"value": "t_bool"
					},
					"t_mapping(t_uint256,t_struct(Proposal)536_storage)": {
						"encoding": "mapping",
						"key": "t_uint256",
						"label": "mapping(uint256 => struct TimbGovernance.Proposal)",
						"numberOfBytes": "32",
						"value": "t_struct(Proposal)536_storage"
					},
					"t_string_storage": {
						"encoding": "bytes",
						"label": "string",
						"numberOfBytes": "32"
					},
					"t_struct(Proposal)536_storage": {
						"encoding": "inplace",
						"label": "struct TimbGovernance.Proposal",
						"members": [
							{
								"astId": 510,
								"contract": "contracts/TimbGovernance.sol:TimbGovernance",
								"label": "id",
								"offset": 0,
								"slot": "0",
								"type": "t_uint256"
							},
							{
								"astId": 512,
								"contract": "contracts/TimbGovernance.sol:TimbGovernance",
								"label": "title",
								"offset": 0,
								"slot": "1",
								"type": "t_string_storage"
							},
							{
								"astId": 514,
								"contract": "contracts/TimbGovernance.sol:TimbGovernance",
								"label": "description",
								"offset": 0,
								"slot": "2",
								"type": "t_string_storage"
							},
							{
								"astId": 516,
								"contract": "contracts/TimbGovernance.sol:TimbGovernance",
								"label": "proposer",
								"offset": 0,
								"slot": "3",
								"type": "t_address"
							},
							{
								"astId": 518,
								"contract": "contracts/TimbGovernance.sol:TimbGovernance",
								"label": "createdAt",
								"offset": 0,
								"slot": "4",
								"type": "t_uint256"
							},
							{
								"astId": 520,
								"contract": "contracts/TimbGovernance.sol:TimbGovernance",
								"label": "votingStartsAt",
								"offset": 0,
								"slot": "5",
								"type": "t_uint256"
							},
							{
								"astId": 522,
								"contract": "contracts/TimbGovernance.sol:TimbGovernance",
								"label": "votingEndsAt",
								"offset": 0,
								"slot": "6",
								"type": "t_uint256"
							},
							{
								"astId": 524,
								"contract": "contracts/TimbGovernance.sol:TimbGovernance",
								"label": "executionDeadline",
								"offset": 0,
								"slot": "7",
								"type": "t_uint256"
							},
							{
								"astId": 526,
								"contract": "contracts/TimbGovernance.sol:TimbGovernance",
								"label": "forVotes",
								"offset": 0,
								"slot": "8",
								"type": "t_uint256"
							},
							{
								"astId": 528,
								"contract": "contracts/TimbGovernance.sol:TimbGovernance",
								"label": "againstVotes",
								"offset": 0,
								"slot": "9",
								"type": "t_uint256"
							},
							{
								"astId": 530,
								"contract": "contracts/TimbGovernance.sol:TimbGovernance",
								"label": "totalVotingPower",
								"offset": 0,
								"slot": "10",
								"type": "t_uint256"
							},
							{
								"astId": 533,
								"contract": "contracts/TimbGovernance.sol:TimbGovernance",
								"label": "status",
								"offset": 0,
								"slot": "11",
								"type": "t_enum(ProposalStatus)508"
							},
							{
								"astId": 535,
								"contract": "contracts/TimbGovernance.sol:TimbGovernance",
								"label": "executed",
								"offset": 1,
								"slot": "11",
								"type": "t_bool"
							}
						],
						"numberOfBytes": "384"
					},
					"t_uint256": {
						"encoding": "inplace",
						"label": "uint256",
						"numberOfBytes": "32"
					}
				}
			},
			"userdoc": {
				"kind": "user",
				"methods": {},
				"version": 1
			}
		}
	}
}