{
	"contracts/TIMBSToken.sol": {
		"TIMBSToken": {
			"abi": [
				{
					"inputs": [
						{
							"internalType": "address",
							"name": "_treasury",
							"type": "address"
						},
						{
							"internalType": "uint256",
							"name": "initialSupply",
							"type": "uint256"
						},
						{
							"internalType": "uint256",
							"name": "_entryCostTIMBS",
							"type": "uint256"
						}
					],
					"stateMutability": "nonpayable",
					"type": "constructor"
				},
				{
					"inputs": [
						{
							"internalType": "address",
							"name": "spender",
							"type": "address"
						},
						{
							"internalType": "uint256",
							"name": "allowance",
							"type": "uint256"
						},
						{
							"internalType": "uint256",
							"name": "needed",
							"type": "uint256"
						}
					],
					"name": "ERC20InsufficientAllowance",
					"type": "error"
				},
				{
					"inputs": [
						{
							"internalType": "address",
							"name": "sender",
							"type": "address"
						},
						{
							"internalType": "uint256",
							"name": "balance",
							"type": "uint256"
						},
						{
							"internalType": "uint256",
							"name": "needed",
							"type": "uint256"
						}
					],
					"name": "ERC20InsufficientBalance",
					"type": "error"
				},
				{
					"inputs": [
						{
							"internalType": "address",
							"name": "approver",
							"type": "address"
						}
					],
					"name": "ERC20InvalidApprover",
					"type": "error"
				},
				{
					"inputs": [
						{
							"internalType": "address",
							"name": "receiver",
							"type": "address"
						}
					],
					"name": "ERC20InvalidReceiver",
					"type": "error"
				},
				{
					"inputs": [
						{
							"internalType": "address",
							"name": "sender",
							"type": "address"
						}
					],
					"name": "ERC20InvalidSender",
					"type": "error"
				},
				{
					"inputs": [
						{
							"internalType": "address",
							"name": "spender",
							"type": "address"
						}
					],
					"name": "ERC20InvalidSpender",
					"type": "error"
				},
				{
					"inputs": [
						{
							"internalType": "uint256",
							"name": "requested",
							"type": "uint256"
						},
						{
							"internalType": "uint256",
							"name": "available",
							"type": "uint256"
						}
					],
					"name": "ExceedsHardCap",
					"type": "error"
				},
				{
					"inputs": [
						{
							"internalType": "uint256",
							"name": "amount",
							"type": "uint256"
						},
						{
							"internalType": "uint256",
							"name": "max",
							"type": "uint256"
						}
					],
					"name": "ExceedsMaxTransfer",
					"type": "error"
				},
				{
					"inputs": [],
					"name": "NotAuthorizedMinter",
					"type": "error"
				},
				{
					"inputs": [
						{
							"internalType": "address",
							"name": "owner",
							"type": "address"
						}
					],
					"name": "OwnableInvalidOwner",
					"type": "error"
				},
				{
					"inputs": [
						{
							"internalType": "address",
							"name": "account",
							"type": "address"
						}
					],
					"name": "OwnableUnauthorizedAccount",
					"type": "error"
				},
				{
					"inputs": [],
					"name": "ReentrancyGuardReentrantCall",
					"type": "error"
				},
				{
					"inputs": [],
					"name": "TransferPaused",
					"type": "error"
				},
				{
					"inputs": [],
					"name": "ZeroAddress",
					"type": "error"
				},
				{
					"inputs": [],
					"name": "ZeroAmount",
					"type": "error"
				},
				{
					"anonymous": false,
					"inputs": [
						{
							"indexed": true,
							"internalType": "address",
							"name": "owner",
							"type": "address"
						},
						{
							"indexed": true,
							"internalType": "address",
							"name": "spender",
							"type": "address"
						},
						{
							"indexed": false,
							"internalType": "uint256",
							"name": "value",
							"type": "uint256"
						}
					],
					"name": "Approval",
					"type": "event"
				},
				{
					"anonymous": false,
					"inputs": [
						{
							"indexed": false,
							"internalType": "uint256",
							"name": "ratePerDay",
							"type": "uint256"
						}
					],
					"name": "EmissionRateSet",
					"type": "event"
				},
				{
					"anonymous": false,
					"inputs": [
						{
							"indexed": true,
							"internalType": "address",
							"name": "recipient",
							"type": "address"
						},
						{
							"indexed": false,
							"internalType": "uint256",
							"name": "amount",
							"type": "uint256"
						}
					],
					"name": "EmissionsMinted",
					"type": "event"
				},
				{
					"anonymous": false,
					"inputs": [
						{
							"indexed": false,
							"internalType": "uint256",
							"name": "oldCost",
							"type": "uint256"
						},
						{
							"indexed": false,
							"internalType": "uint256",
							"name": "newCost",
							"type": "uint256"
						}
					],
					"name": "EntryCostUpdated",
					"type": "event"
				},
				{
					"anonymous": false,
					"inputs": [
						{
							"indexed": true,
							"internalType": "address",
							"name": "farmPool",
							"type": "address"
						}
					],
					"name": "FarmPoolSet",
					"type": "event"
				},
				{
					"anonymous": false,
					"inputs": [
						{
							"indexed": false,
							"internalType": "uint256",
							"name": "amount",
							"type": "uint256"
						}
					],
					"name": "MaxTransferAmountSet",
					"type": "event"
				},
				{
					"anonymous": false,
					"inputs": [
						{
							"indexed": true,
							"internalType": "address",
							"name": "previousOwner",
							"type": "address"
						},
						{
							"indexed": true,
							"internalType": "address",
							"name": "newOwner",
							"type": "address"
						}
					],
					"name": "OwnershipTransferred",
					"type": "event"
				},
				{
					"anonymous": false,
					"inputs": [
						{
							"indexed": true,
							"internalType": "address",
							"name": "by",
							"type": "address"
						}
					],
					"name": "Paused",
					"type": "event"
				},
				{
					"anonymous": false,
					"inputs": [
						{
							"indexed": true,
							"internalType": "address",
							"name": "stakingPool",
							"type": "address"
						}
					],
					"name": "StakingPoolSet",
					"type": "event"
				},
				{
					"anonymous": false,
					"inputs": [
						{
							"indexed": true,
							"internalType": "address",
							"name": "from",
							"type": "address"
						},
						{
							"indexed": true,
							"internalType": "address",
							"name": "to",
							"type": "address"
						},
						{
							"indexed": false,
							"internalType": "uint256",
							"name": "value",
							"type": "uint256"
						}
					],
					"name": "Transfer",
					"type": "event"
				},
				{
					"anonymous": false,
					"inputs": [
						{
							"indexed": true,
							"internalType": "address",
							"name": "account",
							"type": "address"
						},
						{
							"indexed": false,
							"internalType": "bool",
							"name": "exempt",
							"type": "bool"
						}
					],
					"name": "TransferWhitelistUpdated",
					"type": "event"
				},
				{
					"anonymous": false,
					"inputs": [
						{
							"indexed": true,
							"internalType": "address",
							"name": "oldTreasury",
							"type": "address"
						},
						{
							"indexed": true,
							"internalType": "address",
							"name": "newTreasury",
							"type": "address"
						}
					],
					"name": "TreasuryUpdated",
					"type": "event"
				},
				{
					"anonymous": false,
					"inputs": [
						{
							"indexed": true,
							"internalType": "address",
							"name": "by",
							"type": "address"
						}
					],
					"name": "Unpaused",
					"type": "event"
				},
				{
					"inputs": [],
					"name": "HARD_CAP",
					"outputs": [
						{
							"internalType": "uint256",
							"name": "",
							"type": "uint256"
						}
					],
					"stateMutability": "view",
					"type": "function"
				},
				{
					"inputs": [
						{
							"internalType": "address",
							"name": "owner",
							"type": "address"
						},
						{
							"internalType": "address",
							"name": "spender",
							"type": "address"
						}
					],
					"name": "allowance",
					"outputs": [
						{
							"internalType": "uint256",
							"name": "",
							"type": "uint256"
						}
					],
					"stateMutability": "view",
					"type": "function"
				},
				{
					"inputs": [
						{
							"internalType": "address",
							"name": "spender",
							"type": "address"
						},
						{
							"internalType": "uint256",
							"name": "value",
							"type": "uint256"
						}
					],
					"name": "approve",
					"outputs": [
						{
							"internalType": "bool",
							"name": "",
							"type": "bool"
						}
					],
					"stateMutability": "nonpayable",
					"type": "function"
				},
				{
					"inputs": [
						{
							"internalType": "address",
							"name": "account",
							"type": "address"
						}
					],
					"name": "balanceOf",
					"outputs": [
						{
							"internalType": "uint256",
							"name": "",
							"type": "uint256"
						}
					],
					"stateMutability": "view",
					"type": "function"
				},
				{
					"inputs": [
						{
							"internalType": "uint256",
							"name": "value",
							"type": "uint256"
						}
					],
					"name": "burn",
					"outputs": [],
					"stateMutability": "nonpayable",
					"type": "function"
				},
				{
					"inputs": [
						{
							"internalType": "address",
							"name": "account",
							"type": "address"
						},
						{
							"internalType": "uint256",
							"name": "value",
							"type": "uint256"
						}
					],
					"name": "burnFrom",
					"outputs": [],
					"stateMutability": "nonpayable",
					"type": "function"
				},
				{
					"inputs": [],
					"name": "decimals",
					"outputs": [
						{
							"internalType": "uint8",
							"name": "",
							"type": "uint8"
						}
					],
					"stateMutability": "view",
					"type": "function"
				},
				{
					"inputs": [],
					"name": "emissionRatePerDay",
					"outputs": [
						{
							"internalType": "uint256",
							"name": "",
							"type": "uint256"
						}
					],
					"stateMutability": "view",
					"type": "function"
				},
				{
					"inputs": [],
					"name": "entryCostETH",
					"outputs": [
						{
							"internalType": "uint256",
							"name": "",
							"type": "uint256"
						}
					],
					"stateMutability": "pure",
					"type": "function"
				},
				{
					"inputs": [],
					"name": "entryCostTIMBS",
					"outputs": [
						{
							"internalType": "uint256",
							"name": "",
							"type": "uint256"
						}
					],
					"stateMutability": "view",
					"type": "function"
				},
				{
					"inputs": [],
					"name": "farmPool",
					"outputs": [
						{
							"internalType": "address",
							"name": "",
							"type": "address"
						}
					],
					"stateMutability": "view",
					"type": "function"
				},
				{
					"inputs": [],
					"name": "maxTransferAmount",
					"outputs": [
						{
							"internalType": "uint256",
							"name": "",
							"type": "uint256"
						}
					],
					"stateMutability": "view",
					"type": "function"
				},
				{
					"inputs": [
						{
							"internalType": "address",
							"name": "recipient",
							"type": "address"
						},
						{
							"internalType": "uint256",
							"name": "amount",
							"type": "uint256"
						}
					],
					"name": "mintEmissions",
					"outputs": [],
					"stateMutability": "nonpayable",
					"type": "function"
				},
				{
					"inputs": [],
					"name": "name",
					"outputs": [
						{
							"internalType": "string",
							"name": "",
							"type": "string"
						}
					],
					"stateMutability": "view",
					"type": "function"
				},
				{
					"inputs": [],
					"name": "owner",
					"outputs": [
						{
							"internalType": "address",
							"name": "",
							"type": "address"
						}
					],
					"stateMutability": "view",
					"type": "function"
				},
				{
					"inputs": [],
					"name": "pause",
					"outputs": [],
					"stateMutability": "nonpayable",
					"type": "function"
				},
				{
					"inputs": [],
					"name": "paused",
					"outputs": [
						{
							"internalType": "bool",
							"name": "",
							"type": "bool"
						}
					],
					"stateMutability": "view",
					"type": "function"
				},
				{
					"inputs": [],
					"name": "remainingEmissionsCapacity",
					"outputs": [
						{
							"internalType": "uint256",
							"name": "",
							"type": "uint256"
						}
					],
					"stateMutability": "view",
					"type": "function"
				},
				{
					"inputs": [],
					"name": "renounceOwnership",
					"outputs": [],
					"stateMutability": "nonpayable",
					"type": "function"
				},
				{
					"inputs": [
						{
							"internalType": "uint256",
							"name": "_ratePerDay",
							"type": "uint256"
						}
					],
					"name": "setEmissionRate",
					"outputs": [],
					"stateMutability": "nonpayable",
					"type": "function"
				},
				{
					"inputs": [
						{
							"internalType": "uint256",
							"name": "_cost",
							"type": "uint256"
						}
					],
					"name": "setEntryCostTIMBS",
					"outputs": [],
					"stateMutability": "nonpayable",
					"type": "function"
				},
				{
					"inputs": [
						{
							"internalType": "address",
							"name": "_farmPool",
							"type": "address"
						}
					],
					"name": "setFarmPool",
					"outputs": [],
					"stateMutability": "nonpayable",
					"type": "function"
				},
				{
					"inputs": [
						{
							"internalType": "uint256",
							"name": "_max",
							"type": "uint256"
						}
					],
					"name": "setMaxTransferAmount",
					"outputs": [],
					"stateMutability": "nonpayable",
					"type": "function"
				},
				{
					"inputs": [
						{
							"internalType": "address",
							"name": "_stakingPool",
							"type": "address"
						}
					],
					"name": "setStakingPool",
					"outputs": [],
					"stateMutability": "nonpayable",
					"type": "function"
				},
				{
					"inputs": [
						{
							"internalType": "address",
							"name": "_account",
							"type": "address"
						},
						{
							"internalType": "bool",
							"name": "_exempt",
							"type": "bool"
						}
					],
					"name": "setTransferWhitelist",
					"outputs": [],
					"stateMutability": "nonpayable",
					"type": "function"
				},
				{
					"inputs": [
						{
							"internalType": "address",
							"name": "_treasury",
							"type": "address"
						}
					],
					"name": "setTreasury",
					"outputs": [],
					"stateMutability": "nonpayable",
					"type": "function"
				},
				{
					"inputs": [],
					"name": "stakingPool",
					"outputs": [
						{
							"internalType": "address",
							"name": "",
							"type": "address"
						}
					],
					"stateMutability": "view",
					"type": "function"
				},
				{
					"inputs": [],
					"name": "symbol",
					"outputs": [
						{
							"internalType": "string",
							"name": "",
							"type": "string"
						}
					],
					"stateMutability": "view",
					"type": "function"
				},
				{
					"inputs": [],
					"name": "totalSupply",
					"outputs": [
						{
							"internalType": "uint256",
							"name": "",
							"type": "uint256"
						}
					],
					"stateMutability": "view",
					"type": "function"
				},
				{
					"inputs": [
						{
							"internalType": "address",
							"name": "to",
							"type": "address"
						},
						{
							"internalType": "uint256",
							"name": "value",
							"type": "uint256"
						}
					],
					"name": "transfer",
					"outputs": [
						{
							"internalType": "bool",
							"name": "",
							"type": "bool"
						}
					],
					"stateMutability": "nonpayable",
					"type": "function"
				},
				{
					"inputs": [
						{
							"internalType": "address",
							"name": "from",
							"type": "address"
						},
						{
							"internalType": "address",
							"name": "to",
							"type": "address"
						},
						{
							"internalType": "uint256",
							"name": "value",
							"type": "uint256"
						}
					],
					"name": "transferFrom",
					"outputs": [
						{
							"internalType": "bool",
							"name": "",
							"type": "bool"
						}
					],
					"stateMutability": "nonpayable",
					"type": "function"
				},
				{
					"inputs": [
						{
							"internalType": "address",
							"name": "newOwner",
							"type": "address"
						}
					],
					"name": "transferOwnership",
					"outputs": [],
					"stateMutability": "nonpayable",
					"type": "function"
				},
				{
					"inputs": [
						{
							"internalType": "address",
							"name": "",
							"type": "address"
						}
					],
					"name": "transferWhitelist",
					"outputs": [
						{
							"internalType": "bool",
							"name": "",
							"type": "bool"
						}
					],
					"stateMutability": "view",
					"type": "function"
				},
				{
					"inputs": [],
					"name": "treasury",
					"outputs": [
						{
							"internalType": "address",
							"name": "",
							"type": "address"
						}
					],
					"stateMutability": "view",
					"type": "function"
				},
				{
					"inputs": [],
					"name": "unpause",
					"outputs": [],
					"stateMutability": "nonpayable",
					"type": "function"
				}
			],
			"devdoc": {
				"errors": {
					"ERC20InsufficientAllowance(address,uint256,uint256)": [
						{
							"details": "Indicates a failure with the `spender`’s `allowance`. Used in transfers.",
							"params": {
								"allowance": "Amount of tokens a `spender` is allowed to operate with.",
								"needed": "Minimum amount required to perform a transfer.",
								"spender": "Address that may be allowed to operate on tokens without being their owner."
							}
						}
					],
					"ERC20InsufficientBalance(address,uint256,uint256)": [
						{
							"details": "Indicates an error related to the current `balance` of a `sender`. Used in transfers.",
							"params": {
								"balance": "Current balance for the interacting account.",
								"needed": "Minimum amount required to perform a transfer.",
								"sender": "Address whose tokens are being transferred."
							}
						}
					],
					"ERC20InvalidApprover(address)": [
						{
							"details": "Indicates a failure with the `approver` of a token to be approved. Used in approvals.",
							"params": {
								"approver": "Address initiating an approval operation."
							}
						}
					],
					"ERC20InvalidReceiver(address)": [
						{
							"details": "Indicates a failure with the token `receiver`. Used in transfers.",
							"params": {
								"receiver": "Address to which tokens are being transferred."
							}
						}
					],
					"ERC20InvalidSender(address)": [
						{
							"details": "Indicates a failure with the token `sender`. Used in transfers.",
							"params": {
								"sender": "Address whose tokens are being transferred."
							}
						}
					],
					"ERC20InvalidSpender(address)": [
						{
							"details": "Indicates a failure with the `spender` to be approved. Used in approvals.",
							"params": {
								"spender": "Address that may be allowed to operate on tokens without being their owner."
							}
						}
					],
					"OwnableInvalidOwner(address)": [
						{
							"details": "The owner is not a valid owner account. (eg. `address(0)`)"
						}
					],
					"OwnableUnauthorizedAccount(address)": [
						{
							"details": "The caller account is not authorized to perform an operation."
						}
					],
					"ReentrancyGuardReentrantCall()": [
						{
							"details": "Unauthorized reentrant call."
						}
					]
				},
				"events": {
					"Approval(address,address,uint256)": {
						"details": "Emitted when the allowance of a `spender` for an `owner` is set by a call to {approve}. `value` is the new allowance."
					},
					"Transfer(address,address,uint256)": {
						"details": "Emitted when `value` tokens are moved from one account (`from`) to another (`to`). Note that `value` may be zero."
					}
				},
				"kind": "dev",
				"methods": {
					"allowance(address,address)": {
						"details": "Returns the remaining number of tokens that `spender` will be allowed to spend on behalf of `owner` through {transferFrom}. This is zero by default. This value changes when {approve} or {transferFrom} are called."
					},
					"approve(address,uint256)": {
						"details": "See {IERC20-approve}. NOTE: If `value` is the maximum `uint256`, the allowance is not updated on `transferFrom`. This is semantically equivalent to an infinite approval. Requirements: - `spender` cannot be the zero address."
					},
					"balanceOf(address)": {
						"details": "Returns the value of tokens owned by `account`."
					},
					"burn(uint256)": {
						"details": "Destroys a `value` amount of tokens from the caller. See {ERC20-_burn}."
					},
					"burnFrom(address,uint256)": {
						"details": "Destroys a `value` amount of tokens from `account`, deducting from the caller's allowance. See {ERC20-_burn} and {ERC20-allowance}. Requirements: - the caller must have allowance for ``accounts``'s tokens of at least `value`."
					},
					"constructor": {
						"params": {
							"_entryCostTIMBS": "Initial prize game entry cost in TIMBS (18 decimals).",
							"_treasury": "Address that receives the full initial supply.",
							"initialSupply": "Amount of TIMBS (in wei) minted at deploy. Must be <= HARD_CAP."
						}
					},
					"decimals()": {
						"details": "Returns the number of decimals used to get its user representation. For example, if `decimals` equals `2`, a balance of `505` tokens should be displayed to a user as `5.05` (`505 / 10 ** 2`). Tokens usually opt for a value of 18, imitating the relationship between Ether and Wei. This is the default value returned by this function, unless it's overridden. NOTE: This information is only used for _display_ purposes: it in no way affects any of the arithmetic of the contract, including {IERC20-balanceOf} and {IERC20-transfer}."
					},
					"entryCostETH()": {
						"details": "Placeholder — live implementation reads from TimbSwapPair.      Returns 0 until pair is deployed and has liquidity."
					},
					"mintEmissions(address,uint256)": {
						"details": "Only callable by stakingPool, farmPool, or owner.      Total supply after mint must not exceed HARD_CAP.",
						"params": {
							"amount": "Amount in wei.",
							"recipient": "Address to receive minted TIMBS (pool contract)."
						}
					},
					"name()": {
						"details": "Returns the name of the token."
					},
					"owner()": {
						"details": "Returns the address of the current owner."
					},
					"renounceOwnership()": {
						"details": "Leaves the contract without owner. It will not be possible to call `onlyOwner` functions. Can only be called by the current owner. NOTE: Renouncing ownership will leave the contract without an owner, thereby disabling any functionality that is only available to the owner."
					},
					"setEmissionRate(uint256)": {
						"details": "Informational for UI and used by staking/farm contracts to      calculate per-second rates. Does not auto-distribute."
					},
					"setEntryCostTIMBS(uint256)": {
						"details": "Callable by owner (governance-executed in hybrid model)."
					},
					"setTreasury(address)": {
						"details": "Removes whitelist from old treasury, adds to new."
					},
					"symbol()": {
						"details": "Returns the symbol of the token, usually a shorter version of the name."
					},
					"totalSupply()": {
						"details": "Returns the value of tokens in existence."
					},
					"transfer(address,uint256)": {
						"details": "See {IERC20-transfer}. Requirements: - `to` cannot be the zero address. - the caller must have a balance of at least `value`."
					},
					"transferFrom(address,address,uint256)": {
						"details": "See {IERC20-transferFrom}. Skips emitting an {Approval} event indicating an allowance update. This is not required by the ERC. See {xref-ERC20-_approve-address-address-uint256-bool-}[_approve]. NOTE: Does not update the allowance if the current allowance is the maximum `uint256`. Requirements: - `from` and `to` cannot be the zero address. - `from` must have a balance of at least `value`. - the caller must have allowance for ``from``'s tokens of at least `value`."
					},
					"transferOwnership(address)": {
						"details": "Transfers ownership of the contract to a new account (`newOwner`). Can only be called by the current owner."
					}
				},
				"title": "TIMBSToken",
				"version": 1
			},
			"evm": {
				"assembly": "    /* \"contracts/TIMBSToken.sol\":1432:12053  contract TIMBSToken is ERC20, ERC20Burnable, Ownable, ReentrancyGuard {... */\n  mstore(0x40, 0x80)\n    /* \"contracts/TIMBSToken.sol\":5273:6011  constructor(... */\n  callvalue\n  dup1\n  iszero\n  tag_1\n  jumpi\n  0x00\n  dup1\n  revert\ntag_1:\n  pop\n  mload(0x40)\n  sub(codesize, bytecodeSize)\n  dup1\n  bytecodeSize\n  dup4\n  codecopy\n  dup2\n  dup2\n  add\n  0x40\n  mstore\n  dup2\n  add\n  swap1\n  tag_2\n  swap2\n  swap1\n  tag_3\n  jump\t// in\ntag_2:\n    /* \"contracts/TIMBSToken.sol\":5423:5433  msg.sender */\n  caller\n    /* \"@openzeppelin/contracts/token/ERC20/ERC20.sol\":1582:1695  constructor(string memory name_, string memory symbol_) {... */\n  mload(0x40)\n  dup1\n  0x40\n  add\n  0x40\n  mstore\n  dup1\n  0x0e\n  dup2\n  mstore\n  0x20\n  add\n  0x54696d625377617020546f6b656e000000000000000000000000000000000000\n  dup2\n  mstore\n  pop\n  mload(0x40)\n  dup1\n  0x40\n  add\n  0x40\n  mstore\n  dup1\n  0x05\n  dup2\n  mstore\n  0x20\n  add\n  0x54494d4253000000000000000000000000000000000000000000000000000000\n  dup2\n  mstore\n  pop\n    /* \"@openzeppelin/contracts/token/ERC20/ERC20.sol\":1656:1661  name_ */\n  dup2\n    /* \"@openzeppelin/contracts/token/ERC20/ERC20.sol\":1648:1653  _name */\n  0x03\n    /* \"@openzeppelin/contracts/token/ERC20/ERC20.sol\":1648:1661  _name = name_ */\n  swap1\n  dup2\n  tag_9\n  swap2\n  swap1\n  tag_10\n  jump\t// in\ntag_9:\n  pop\n    /* \"@openzeppelin/contracts/token/ERC20/ERC20.sol\":1681:1688  symbol_ */\n  dup1\n    /* \"@openzeppelin/contracts/token/ERC20/ERC20.sol\":1671:1678  _symbol */\n  0x04\n    /* \"@openzeppelin/contracts/token/ERC20/ERC20.sol\":1671:1688  _symbol = symbol_ */\n  swap1\n  dup2\n  tag_11\n  swap2\n  swap1\n  tag_10\n  jump\t// in\ntag_11:\n  pop\n    /* \"@openzeppelin/contracts/token/ERC20/ERC20.sol\":1582:1695  constructor(string memory name_, string memory symbol_) {... */\n  pop\n  pop\n    /* \"@openzeppelin/contracts/access/Ownable.sol\":1297:1298  0 */\n  0x00\n    /* \"@openzeppelin/contracts/access/Ownable.sol\":1273:1299  initialOwner == address(0) */\n  0xffffffffffffffffffffffffffffffffffffffff\n  and\n    /* \"@openzeppelin/contracts/access/Ownable.sol\":1273:1285  initialOwner */\n  dup2\n    /* \"@openzeppelin/contracts/access/Ownable.sol\":1273:1299  initialOwner == address(0) */\n  0xffffffffffffffffffffffffffffffffffffffff\n  and\n  sub\n    /* \"@openzeppelin/contracts/access/Ownable.sol\":1269:1364  if (initialOwner == address(0)) {... */\n  tag_13\n  jumpi\n    /* \"@openzeppelin/contracts/access/Ownable.sol\":1350:1351  0 */\n  0x00\n    /* \"@openzeppelin/contracts/access/Ownable.sol\":1322:1353  OwnableInvalidOwner(address(0)) */\n  mload(0x40)\n  0x1e4fbdf700000000000000000000000000000000000000000000000000000000\n  dup2\n  mstore\n  0x04\n  add\n  tag_14\n  swap2\n  swap1\n  tag_15\n  jump\t// in\ntag_14:\n  mload(0x40)\n  dup1\n  swap2\n  sub\n  swap1\n  revert\n    /* \"@openzeppelin/contracts/access/Ownable.sol\":1269:1364  if (initialOwner == address(0)) {... */\ntag_13:\n    /* \"@openzeppelin/contracts/access/Ownable.sol\":1373:1405  _transferOwnership(initialOwner) */\n  tag_16\n    /* \"@openzeppelin/contracts/access/Ownable.sol\":1392:1404  initialOwner */\n  dup2\n    /* \"@openzeppelin/contracts/access/Ownable.sol\":1373:1391  _transferOwnership */\n  shl(0x20, tag_17)\n    /* \"@openzeppelin/contracts/access/Ownable.sol\":1373:1405  _transferOwnership(initialOwner) */\n  0x20\n  shr\n  jump\t// in\ntag_16:\n    /* \"@openzeppelin/contracts/access/Ownable.sol\":1225:1412  constructor(address initialOwner) {... */\n  pop\n    /* \"@openzeppelin/contracts/utils/ReentrancyGuard.sol\":2365:2366  1 */\n  0x01\n    /* \"@openzeppelin/contracts/utils/ReentrancyGuard.sol\":2539:2585  _reentrancyGuardStorageSlot().getUint256Slot() */\n  tag_19\n    /* \"@openzeppelin/contracts/utils/ReentrancyGuard.sol\":2539:2568  _reentrancyGuardStorageSlot() */\n  tag_20\n    /* \"@openzeppelin/contracts/utils/ReentrancyGuard.sol\":2539:2566  _reentrancyGuardStorageSlot */\n  shl(0x20, tag_21)\n    /* \"@openzeppelin/contracts/utils/ReentrancyGuard.sol\":2539:2568  _reentrancyGuardStorageSlot() */\n  0x20\n  shr\n  jump\t// in\ntag_20:\n    /* \"@openzeppelin/contracts/utils/ReentrancyGuard.sol\":2539:2583  _reentrancyGuardStorageSlot().getUint256Slot */\n  shl(0x20, tag_22)\n    /* \"@openzeppelin/contracts/utils/ReentrancyGuard.sol\":2539:2585  _reentrancyGuardStorageSlot().getUint256Slot() */\n  0x20\n  shr\n  jump\t// in\ntag_19:\n    /* \"@openzeppelin/contracts/utils/ReentrancyGuard.sol\":2539:2591  _reentrancyGuardStorageSlot().getUint256Slot().value */\n  0x00\n  add\n    /* \"@openzeppelin/contracts/utils/ReentrancyGuard.sol\":2539:2605  _reentrancyGuardStorageSlot().getUint256Slot().value = NOT_ENTERED */\n  dup2\n  swap1\n  sstore\n  pop\n    /* \"contracts/TIMBSToken.sol\":5470:5471  0 */\n  0x00\n    /* \"contracts/TIMBSToken.sol\":5449:5472  _treasury == address(0) */\n  0xffffffffffffffffffffffffffffffffffffffff\n  and\n    /* \"contracts/TIMBSToken.sol\":5449:5458  _treasury */\n  dup4\n    /* \"contracts/TIMBSToken.sol\":5449:5472  _treasury == address(0) */\n  0xffffffffffffffffffffffffffffffffffffffff\n  and\n  sub\n    /* \"contracts/TIMBSToken.sol\":5445:5494  if (_treasury == address(0)) revert ZeroAddress() */\n  tag_24\n  jumpi\n    /* \"contracts/TIMBSToken.sol\":5481:5494  ZeroAddress() */\n  mload(0x40)\n  0xd92e233d00000000000000000000000000000000000000000000000000000000\n  dup2\n  mstore\n  0x04\n  add\n  mload(0x40)\n  dup1\n  swap2\n  sub\n  swap1\n  revert\n    /* \"contracts/TIMBSToken.sol\":5445:5494  if (_treasury == address(0)) revert ZeroAddress() */\ntag_24:\n    /* \"contracts/TIMBSToken.sol\":5525:5526  0 */\n  0x00\n    /* \"contracts/TIMBSToken.sol\":5508:5521  initialSupply */\n  dup3\n    /* \"contracts/TIMBSToken.sol\":5508:5526  initialSupply == 0 */\n  sub\n    /* \"contracts/TIMBSToken.sol\":5504:5547  if (initialSupply == 0) revert ZeroAmount() */\n  tag_25\n  jumpi\n    /* \"contracts/TIMBSToken.sol\":5535:5547  ZeroAmount() */\n  mload(0x40)\n  0x1f2a200500000000000000000000000000000000000000000000000000000000\n  dup2\n  mstore\n  0x04\n  add\n  mload(0x40)\n  dup1\n  swap2\n  sub\n  swap1\n  revert\n    /* \"contracts/TIMBSToken.sol\":5504:5547  if (initialSupply == 0) revert ZeroAmount() */\ntag_25:\n    /* \"contracts/TIMBSToken.sol\":1834:1852  100_000_000 * 1e18 */\n  0x52b7d2dcc80cd2e4000000\n    /* \"contracts/TIMBSToken.sol\":5561:5574  initialSupply */\n  dup3\n    /* \"contracts/TIMBSToken.sol\":5561:5585  initialSupply > HARD_CAP */\n  gt\n    /* \"contracts/TIMBSToken.sol\":5557:5633  if (initialSupply > HARD_CAP) revert ExceedsHardCap(initialSupply, HARD_CAP) */\n  iszero\n  tag_26\n  jumpi\n    /* \"contracts/TIMBSToken.sol\":5609:5622  initialSupply */\n  dup2\n    /* \"contracts/TIMBSToken.sol\":1834:1852  100_000_000 * 1e18 */\n  0x52b7d2dcc80cd2e4000000\n    /* \"contracts/TIMBSToken.sol\":5594:5633  ExceedsHardCap(initialSupply, HARD_CAP) */\n  mload(0x40)\n  0x7333416e00000000000000000000000000000000000000000000000000000000\n  dup2\n  mstore\n  0x04\n  add\n  tag_27\n  swap3\n  swap2\n  swap1\n  tag_28\n  jump\t// in\ntag_27:\n  mload(0x40)\n  dup1\n  swap2\n  sub\n  swap1\n  revert\n    /* \"contracts/TIMBSToken.sol\":5557:5633  if (initialSupply > HARD_CAP) revert ExceedsHardCap(initialSupply, HARD_CAP) */\ntag_26:\n    /* \"contracts/TIMBSToken.sol\":5655:5664  _treasury */\n  dup3\n    /* \"contracts/TIMBSToken.sol\":5644:5652  treasury */\n  0x06\n  0x00\n    /* \"contracts/TIMBSToken.sol\":5644:5664  treasury = _treasury */\n  0x0100\n  exp\n  dup2\n  sload\n  dup2\n  0xffffffffffffffffffffffffffffffffffffffff\n  mul\n  not\n  and\n  swap1\n  dup4\n  0xffffffffffffffffffffffffffffffffffffffff\n  and\n  mul\n  or\n  swap1\n  sstore\n  pop\n    /* \"contracts/TIMBSToken.sol\":5691:5706  _entryCostTIMBS */\n  dup1\n    /* \"contracts/TIMBSToken.sol\":5674:5688  entryCostTIMBS */\n  0x0a\n    /* \"contracts/TIMBSToken.sol\":5674:5706  entryCostTIMBS = _entryCostTIMBS */\n  dup2\n  swap1\n  sstore\n  pop\n    /* \"contracts/TIMBSToken.sol\":5807:5811  true */\n  0x01\n    /* \"contracts/TIMBSToken.sol\":5776:5793  transferWhitelist */\n  0x0c\n    /* \"contracts/TIMBSToken.sol\":5776:5804  transferWhitelist[_treasury] */\n  0x00\n    /* \"contracts/TIMBSToken.sol\":5794:5803  _treasury */\n  dup6\n    /* \"contracts/TIMBSToken.sol\":5776:5804  transferWhitelist[_treasury] */\n  0xffffffffffffffffffffffffffffffffffffffff\n  and\n  0xffffffffffffffffffffffffffffffffffffffff\n  and\n  dup2\n  mstore\n  0x20\n  add\n  swap1\n  dup2\n  mstore\n  0x20\n  add\n  0x00\n  keccak256\n  0x00\n    /* \"contracts/TIMBSToken.sol\":5776:5811  transferWhitelist[_treasury] = true */\n  0x0100\n  exp\n  dup2\n  sload\n  dup2\n  0xff\n  mul\n  not\n  and\n  swap1\n  dup4\n  iszero\n  iszero\n  mul\n  or\n  swap1\n  sstore\n  pop\n    /* \"contracts/TIMBSToken.sol\":5853:5857  true */\n  0x01\n    /* \"contracts/TIMBSToken.sol\":5821:5838  transferWhitelist */\n  0x0c\n    /* \"contracts/TIMBSToken.sol\":5821:5850  transferWhitelist[msg.sender] */\n  0x00\n    /* \"contracts/TIMBSToken.sol\":5839:5849  msg.sender */\n  caller\n    /* \"contracts/TIMBSToken.sol\":5821:5850  transferWhitelist[msg.sender] */\n  0xffffffffffffffffffffffffffffffffffffffff\n  and\n  0xffffffffffffffffffffffffffffffffffffffff\n  and\n  dup2\n  mstore\n  0x20\n  add\n  swap1\n  dup2\n  mstore\n  0x20\n  add\n  0x00\n  keccak256\n  0x00\n    /* \"contracts/TIMBSToken.sol\":5821:5857  transferWhitelist[msg.sender] = true */\n  0x0100\n  exp\n  dup2\n  sload\n  dup2\n  0xff\n  mul\n  not\n  and\n  swap1\n  dup4\n  iszero\n  iszero\n  mul\n  or\n  swap1\n  sstore\n  pop\n    /* \"contracts/TIMBSToken.sol\":5868:5899  _mint(_treasury, initialSupply) */\n  tag_29\n    /* \"contracts/TIMBSToken.sol\":5874:5883  _treasury */\n  dup4\n    /* \"contracts/TIMBSToken.sol\":5885:5898  initialSupply */\n  dup4\n    /* \"contracts/TIMBSToken.sol\":5868:5873  _mint */\n  shl(0x20, tag_30)\n    /* \"contracts/TIMBSToken.sol\":5868:5899  _mint(_treasury, initialSupply) */\n  0x20\n  shr\n  jump\t// in\ntag_29:\n    /* \"contracts/TIMBSToken.sol\":5943:5952  _treasury */\n  dup3\n    /* \"contracts/TIMBSToken.sol\":5915:5953  TreasuryUpdated(address(0), _treasury) */\n  0xffffffffffffffffffffffffffffffffffffffff\n  and\n    /* \"contracts/TIMBSToken.sol\":5939:5940  0 */\n  0x00\n    /* \"contracts/TIMBSToken.sol\":5915:5953  TreasuryUpdated(address(0), _treasury) */\n  0xffffffffffffffffffffffffffffffffffffffff\n  and\n  0x4ab5be82436d353e61ca18726e984e561f5c1cc7c6d38b29d2553c790434705a\n  mload(0x40)\n  mload(0x40)\n  dup1\n  swap2\n  sub\n  swap1\n  log3\n    /* \"contracts/TIMBSToken.sol\":5968:6004  EntryCostUpdated(0, _entryCostTIMBS) */\n  0x5299e127ac8bdc64fd0e551dd406ba1e1fbaebc96d458ce9b1a5e69caecdf376\n    /* \"contracts/TIMBSToken.sol\":5985:5986  0 */\n  0x00\n    /* \"contracts/TIMBSToken.sol\":5988:6003  _entryCostTIMBS */\n  dup3\n    /* \"contracts/TIMBSToken.sol\":5968:6004  EntryCostUpdated(0, _entryCostTIMBS) */\n  mload(0x40)\n  tag_31\n  swap3\n  swap2\n  swap1\n  tag_32\n  jump\t// in\ntag_31:\n  mload(0x40)\n  dup1\n  swap2\n  sub\n  swap1\n  log1\n    /* \"contracts/TIMBSToken.sol\":5273:6011  constructor(... */\n  pop\n  pop\n  pop\n    /* \"contracts/TIMBSToken.sol\":1432:12053  contract TIMBSToken is ERC20, ERC20Burnable, Ownable, ReentrancyGuard {... */\n  jump(tag_33)\n    /* \"@openzeppelin/contracts/access/Ownable.sol\":2912:3099  function _transferOwnership(address newOwner) internal virtual {... */\ntag_17:\n    /* \"@openzeppelin/contracts/access/Ownable.sol\":2985:3001  address oldOwner */\n  0x00\n    /* \"@openzeppelin/contracts/access/Ownable.sol\":3004:3010  _owner */\n  0x05\n  0x00\n  swap1\n  sload\n  swap1\n  0x0100\n  exp\n  swap1\n  div\n  0xffffffffffffffffffffffffffffffffffffffff\n  and\n    /* \"@openzeppelin/contracts/access/Ownable.sol\":2985:3010  address oldOwner = _owner */\n  swap1\n  pop\n    /* \"@openzeppelin/contracts/access/Ownable.sol\":3029:3037  newOwner */\n  dup2\n    /* \"@openzeppelin/contracts/access/Ownable.sol\":3020:3026  _owner */\n  0x05\n  0x00\n    /* \"@openzeppelin/contracts/access/Ownable.sol\":3020:3037  _owner = newOwner */\n  0x0100\n  exp\n  dup2\n  sload\n  dup2\n  0xffffffffffffffffffffffffffffffffffffffff\n  mul\n  not\n  and\n  swap1\n  dup4\n  0xffffffffffffffffffffffffffffffffffffffff\n  and\n  mul\n  or\n  swap1\n  sstore\n  pop\n    /* \"@openzeppelin/contracts/access/Ownable.sol\":3083:3091  newOwner */\n  dup2\n    /* \"@openzeppelin/contracts/access/Ownable.sol\":3052:3092  OwnershipTransferred(oldOwner, newOwner) */\n  0xffffffffffffffffffffffffffffffffffffffff\n  and\n    /* \"@openzeppelin/contracts/access/Ownable.sol\":3073:3081  oldOwner */\n  dup2\n    /* \"@openzeppelin/contracts/access/Ownable.sol\":3052:3092  OwnershipTransferred(oldOwner, newOwner) */\n  0xffffffffffffffffffffffffffffffffffffffff\n  and\n  0x8be0079c531659141344cd1fd0a4f28419497f9722a3daafe3b4186f6b6457e0\n  mload(0x40)\n  mload(0x40)\n  dup1\n  swap2\n  sub\n  swap1\n  log3\n    /* \"@openzeppelin/contracts/access/Ownable.sol\":2975:3099  {... */\n  pop\n    /* \"@openzeppelin/contracts/access/Ownable.sol\":2912:3099  function _transferOwnership(address newOwner) internal virtual {... */\n  pop\n  jump\t// out\n    /* \"@openzeppelin/contracts/utils/ReentrancyGuard.sol\":4636:4763  function _reentrancyGuardStorageSlot() internal pure virtual returns (bytes32) {... */\ntag_21:\n    /* \"@openzeppelin/contracts/utils/ReentrancyGuard.sol\":4706:4713  bytes32 */\n  0x00\n    /* \"@openzeppelin/contracts/utils/ReentrancyGuard.sol\":1505:1571  0x9b779b17422d0df92223018b32b4d1fa46e071723d6817e2486d003becc55f00 */\n  0x9b779b17422d0df92223018b32b4d1fa46e071723d6817e2486d003becc55f00\n    /* \"@openzeppelin/contracts/utils/ReentrancyGuard.sol\":4732:4756  REENTRANCY_GUARD_STORAGE */\n  0x00\n  shl\n    /* \"@openzeppelin/contracts/utils/ReentrancyGuard.sol\":4725:4756  return REENTRANCY_GUARD_STORAGE */\n  swap1\n  pop\n    /* \"@openzeppelin/contracts/utils/ReentrancyGuard.sol\":4636:4763  function _reentrancyGuardStorageSlot() internal pure virtual returns (bytes32) {... */\n  swap1\n  jump\t// out\n    /* \"@openzeppelin/contracts/utils/StorageSlot.sol\":2679:2842  function getUint256Slot(bytes32 slot) internal pure returns (Uint256Slot storage r) {... */\ntag_22:\n    /* \"@openzeppelin/contracts/utils/StorageSlot.sol\":2740:2761  Uint256Slot storage r */\n  0x00\n    /* \"@openzeppelin/contracts/utils/StorageSlot.sol\":2822:2826  slot */\n  dup2\n    /* \"@openzeppelin/contracts/utils/StorageSlot.sol\":2812:2826  r.slot := slot */\n  swap1\n  pop\n    /* \"@openzeppelin/contracts/utils/StorageSlot.sol\":2679:2842  function getUint256Slot(bytes32 slot) internal pure returns (Uint256Slot storage r) {... */\n  swap2\n  swap1\n  pop\n  jump\t// out\n    /* \"@openzeppelin/contracts/token/ERC20/ERC20.sol\":7362:7570  function _mint(address account, uint256 value) internal {... */\ntag_30:\n    /* \"@openzeppelin/contracts/token/ERC20/ERC20.sol\":7451:7452  0 */\n  0x00\n    /* \"@openzeppelin/contracts/token/ERC20/ERC20.sol\":7432:7453  account == address(0) */\n  0xffffffffffffffffffffffffffffffffffffffff\n  and\n    /* \"@openzeppelin/contracts/token/ERC20/ERC20.sol\":7432:7439  account */\n  dup3\n    /* \"@openzeppelin/contracts/token/ERC20/ERC20.sol\":7432:7453  account == address(0) */\n  0xffffffffffffffffffffffffffffffffffffffff\n  and\n  sub\n    /* \"@openzeppelin/contracts/token/ERC20/ERC20.sol\":7428:7519  if (account == address(0)) {... */\n  tag_38\n  jumpi\n    /* \"@openzeppelin/contracts/token/ERC20/ERC20.sol\":7505:7506  0 */\n  0x00\n    /* \"@openzeppelin/contracts/token/ERC20/ERC20.sol\":7476:7508  ERC20InvalidReceiver(address(0)) */\n  mload(0x40)\n  0xec442f0500000000000000000000000000000000000000000000000000000000\n  dup2\n  mstore\n  0x04\n  add\n  tag_39\n  swap2\n  swap1\n  tag_15\n  jump\t// in\ntag_39:\n  mload(0x40)\n  dup1\n  swap2\n  sub\n  swap1\n  revert\n    /* \"@openzeppelin/contracts/token/ERC20/ERC20.sol\":7428:7519  if (account == address(0)) {... */\ntag_38:\n    /* \"@openzeppelin/contracts/token/ERC20/ERC20.sol\":7528:7563  _update(address(0), account, value) */\n  tag_40\n    /* \"@openzeppelin/contracts/token/ERC20/ERC20.sol\":7544:7545  0 */\n  0x00\n    /* \"@openzeppelin/contracts/token/ERC20/ERC20.sol\":7548:7555  account */\n  dup4\n    /* \"@openzeppelin/contracts/token/ERC20/ERC20.sol\":7557:7562  value */\n  dup4\n    /* \"@openzeppelin/contracts/token/ERC20/ERC20.sol\":7528:7535  _update */\n  shl(0x20, tag_41)\n    /* \"@openzeppelin/contracts/token/ERC20/ERC20.sol\":7528:7563  _update(address(0), account, value) */\n  0x20\n  shr\n  jump\t// in\ntag_40:\n    /* \"@openzeppelin/contracts/token/ERC20/ERC20.sol\":7362:7570  function _mint(address account, uint256 value) internal {... */\n  pop\n  pop\n  jump\t// out\n    /* \"contracts/TIMBSToken.sol\":11445:12051  function _update(... */\ntag_41:\n    /* \"contracts/TIMBSToken.sol\":4561:4567  paused */\n  0x0d\n  0x00\n  swap1\n  sload\n  swap1\n  0x0100\n  exp\n  swap1\n  div\n  0xff\n  and\n    /* \"contracts/TIMBSToken.sol\":4557:4592  if (paused) revert TransferPaused() */\n  iszero\n  tag_43\n  jumpi\n    /* \"contracts/TIMBSToken.sol\":4576:4592  TransferPaused() */\n  mload(0x40)\n  0xcd1fda9f00000000000000000000000000000000000000000000000000000000\n  dup2\n  mstore\n  0x04\n  add\n  mload(0x40)\n  dup1\n  swap2\n  sub\n  swap1\n  revert\n    /* \"contracts/TIMBSToken.sol\":4557:4592  if (paused) revert TransferPaused() */\ntag_43:\n    /* \"contracts/TIMBSToken.sol\":11659:11660  0 */\n  0x00\n    /* \"contracts/TIMBSToken.sol\":11643:11661  from != address(0) */\n  0xffffffffffffffffffffffffffffffffffffffff\n  and\n    /* \"contracts/TIMBSToken.sol\":11643:11647  from */\n  dup4\n    /* \"contracts/TIMBSToken.sol\":11643:11661  from != address(0) */\n  0xffffffffffffffffffffffffffffffffffffffff\n  and\n  eq\n  iszero\n    /* \"contracts/TIMBSToken.sol\":11643:11681  from != address(0) && to != address(0) */\n  dup1\n  iszero\n  tag_45\n  jumpi\n  pop\n    /* \"contracts/TIMBSToken.sol\":11679:11680  0 */\n  0x00\n    /* \"contracts/TIMBSToken.sol\":11665:11681  to != address(0) */\n  0xffffffffffffffffffffffffffffffffffffffff\n  and\n    /* \"contracts/TIMBSToken.sol\":11665:11667  to */\n  dup3\n    /* \"contracts/TIMBSToken.sol\":11665:11681  to != address(0) */\n  0xffffffffffffffffffffffffffffffffffffffff\n  and\n  eq\n  iszero\n    /* \"contracts/TIMBSToken.sol\":11643:11681  from != address(0) && to != address(0) */\ntag_45:\n    /* \"contracts/TIMBSToken.sol\":11639:12005  if (from != address(0) && to != address(0)) {... */\n  iszero\n  tag_46\n  jumpi\n    /* \"contracts/TIMBSToken.sol\":11738:11739  0 */\n  0x00\n    /* \"contracts/TIMBSToken.sol\":11718:11735  maxTransferAmount */\n  sload(0x0b)\n    /* \"contracts/TIMBSToken.sol\":11718:11739  maxTransferAmount > 0 */\n  gt\n    /* \"contracts/TIMBSToken.sol\":11718:11783  maxTransferAmount > 0 &&... */\n  dup1\n  iszero\n  tag_47\n  jumpi\n  pop\n    /* \"contracts/TIMBSToken.sol\":11760:11777  transferWhitelist */\n  0x0c\n    /* \"contracts/TIMBSToken.sol\":11760:11783  transferWhitelist[from] */\n  0x00\n    /* \"contracts/TIMBSToken.sol\":11778:11782  from */\n  dup5\n    /* \"contracts/TIMBSToken.sol\":11760:11783  transferWhitelist[from] */\n  0xffffffffffffffffffffffffffffffffffffffff\n  and\n  0xffffffffffffffffffffffffffffffffffffffff\n  and\n  dup2\n  mstore\n  0x20\n  add\n  swap1\n  dup2\n  mstore\n  0x20\n  add\n  0x00\n  keccak256\n  0x00\n  swap1\n  sload\n  swap1\n  0x0100\n  exp\n  swap1\n  div\n  0xff\n  and\n    /* \"contracts/TIMBSToken.sol\":11759:11783  !transferWhitelist[from] */\n  iszero\n    /* \"contracts/TIMBSToken.sol\":11718:11783  maxTransferAmount > 0 &&... */\ntag_47:\n    /* \"contracts/TIMBSToken.sol\":11718:11825  maxTransferAmount > 0 &&... */\n  dup1\n  iszero\n  tag_48\n  jumpi\n  pop\n    /* \"contracts/TIMBSToken.sol\":11804:11821  transferWhitelist */\n  0x0c\n    /* \"contracts/TIMBSToken.sol\":11804:11825  transferWhitelist[to] */\n  0x00\n    /* \"contracts/TIMBSToken.sol\":11822:11824  to */\n  dup4\n    /* \"contracts/TIMBSToken.sol\":11804:11825  transferWhitelist[to] */\n  0xffffffffffffffffffffffffffffffffffffffff\n  and\n  0xffffffffffffffffffffffffffffffffffffffff\n  and\n  dup2\n  mstore\n  0x20\n  add\n  swap1\n  dup2\n  mstore\n  0x20\n  add\n  0x00\n  keccak256\n  0x00\n  swap1\n  sload\n  swap1\n  0x0100\n  exp\n  swap1\n  div\n  0xff\n  and\n    /* \"contracts/TIMBSToken.sol\":11803:11825  !transferWhitelist[to] */\n  iszero\n    /* \"contracts/TIMBSToken.sol\":11718:11825  maxTransferAmount > 0 &&... */\ntag_48:\n    /* \"contracts/TIMBSToken.sol\":11697:11995  if (... */\n  iszero\n  tag_49\n  jumpi\n    /* \"contracts/TIMBSToken.sol\":11870:11887  maxTransferAmount */\n  sload(0x0b)\n    /* \"contracts/TIMBSToken.sol\":11862:11867  value */\n  dup2\n    /* \"contracts/TIMBSToken.sol\":11862:11887  value > maxTransferAmount */\n  gt\n    /* \"contracts/TIMBSToken.sol\":11858:11981  if (value > maxTransferAmount) {... */\n  iszero\n  tag_50\n  jumpi\n    /* \"contracts/TIMBSToken.sol\":11937:11942  value */\n  dup1\n    /* \"contracts/TIMBSToken.sol\":11944:11961  maxTransferAmount */\n  sload(0x0b)\n    /* \"contracts/TIMBSToken.sol\":11918:11962  ExceedsMaxTransfer(value, maxTransferAmount) */\n  mload(0x40)\n  0x8112e4e200000000000000000000000000000000000000000000000000000000\n  dup2\n  mstore\n  0x04\n  add\n  tag_51\n  swap3\n  swap2\n  swap1\n  tag_28\n  jump\t// in\ntag_51:\n  mload(0x40)\n  dup1\n  swap2\n  sub\n  swap1\n  revert\n    /* \"contracts/TIMBSToken.sol\":11858:11981  if (value > maxTransferAmount) {... */\ntag_50:\n    /* \"contracts/TIMBSToken.sol\":11697:11995  if (... */\ntag_49:\n    /* \"contracts/TIMBSToken.sol\":11639:12005  if (from != address(0) && to != address(0)) {... */\ntag_46:\n    /* \"contracts/TIMBSToken.sol\":12014:12044  super._update(from, to, value) */\n  tag_52\n    /* \"contracts/TIMBSToken.sol\":12028:12032  from */\n  dup4\n    /* \"contracts/TIMBSToken.sol\":12034:12036  to */\n  dup4\n    /* \"contracts/TIMBSToken.sol\":12038:12043  value */\n  dup4\n    /* \"contracts/TIMBSToken.sol\":12014:12027  super._update */\n  shl(0x20, tag_53)\n    /* \"contracts/TIMBSToken.sol\":12014:12044  super._update(from, to, value) */\n  0x20\n  shr\n  jump\t// in\ntag_52:\n    /* \"contracts/TIMBSToken.sol\":11445:12051  function _update(... */\n  pop\n  pop\n  pop\n  jump\t// out\n    /* \"@openzeppelin/contracts/token/ERC20/ERC20.sol\":5912:7019  function _update(address from, address to, uint256 value) internal virtual {... */\ntag_53:\n    /* \"@openzeppelin/contracts/token/ERC20/ERC20.sol\":6017:6018  0 */\n  0x00\n    /* \"@openzeppelin/contracts/token/ERC20/ERC20.sol\":6001:6019  from == address(0) */\n  0xffffffffffffffffffffffffffffffffffffffff\n  and\n    /* \"@openzeppelin/contracts/token/ERC20/ERC20.sol\":6001:6005  from */\n  dup4\n    /* \"@openzeppelin/contracts/token/ERC20/ERC20.sol\":6001:6019  from == address(0) */\n  0xffffffffffffffffffffffffffffffffffffffff\n  and\n  sub\n    /* \"@openzeppelin/contracts/token/ERC20/ERC20.sol\":5997:6537  if (from == address(0)) {... */\n  tag_55\n  jumpi\n    /* \"@openzeppelin/contracts/token/ERC20/ERC20.sol\":6153:6158  value */\n  dup1\n    /* \"@openzeppelin/contracts/token/ERC20/ERC20.sol\":6137:6149  _totalSupply */\n  0x02\n  0x00\n    /* \"@openzeppelin/contracts/token/ERC20/ERC20.sol\":6137:6158  _totalSupply += value */\n  dup3\n  dup3\n  sload\n  tag_56\n  swap2\n  swap1\n  tag_57\n  jump\t// in\ntag_56:\n  swap3\n  pop\n  pop\n  dup2\n  swap1\n  sstore\n  pop\n    /* \"@openzeppelin/contracts/token/ERC20/ERC20.sol\":5997:6537  if (from == address(0)) {... */\n  jump(tag_58)\ntag_55:\n    /* \"@openzeppelin/contracts/token/ERC20/ERC20.sol\":6189:6208  uint256 fromBalance */\n  0x00\n    /* \"@openzeppelin/contracts/token/ERC20/ERC20.sol\":6211:6220  _balances */\n  dup1\n    /* \"@openzeppelin/contracts/token/ERC20/ERC20.sol\":6211:6226  _balances[from] */\n  0x00\n    /* \"@openzeppelin/contracts/token/ERC20/ERC20.sol\":6221:6225  from */\n  dup6\n    /* \"@openzeppelin/contracts/token/ERC20/ERC20.sol\":6211:6226  _balances[from] */\n  0xffffffffffffffffffffffffffffffffffffffff\n  and\n  0xffffffffffffffffffffffffffffffffffffffff\n  and\n  dup2\n  mstore\n  0x20\n  add\n  swap1\n  dup2\n  mstore\n  0x20\n  add\n  0x00\n  keccak256\n  sload\n    /* \"@openzeppelin/contracts/token/ERC20/ERC20.sol\":6189:6226  uint256 fromBalance = _balances[from] */\n  swap1\n  pop\n    /* \"@openzeppelin/contracts/token/ERC20/ERC20.sol\":6258:6263  value */\n  dup2\n    /* \"@openzeppelin/contracts/token/ERC20/ERC20.sol\":6244:6255  fromBalance */\n  dup2\n    /* \"@openzeppelin/contracts/token/ERC20/ERC20.sol\":6244:6263  fromBalance < value */\n  lt\n    /* \"@openzeppelin/contracts/token/ERC20/ERC20.sol\":6240:6355  if (fromBalance < value) {... */\n  iszero\n  tag_59\n  jumpi\n    /* \"@openzeppelin/contracts/token/ERC20/ERC20.sol\":6315:6319  from */\n  dup4\n    /* \"@openzeppelin/contracts/token/ERC20/ERC20.sol\":6321:6332  fromBalance */\n  dup2\n    /* \"@openzeppelin/contracts/token/ERC20/ERC20.sol\":6334:6339  value */\n  dup4\n    /* \"@openzeppelin/contracts/token/ERC20/ERC20.sol\":6290:6340  ERC20InsufficientBalance(from, fromBalance, value) */\n  mload(0x40)\n  0xe450d38c00000000000000000000000000000000000000000000000000000000\n  dup2\n  mstore\n  0x04\n  add\n  tag_60\n  swap4\n  swap3\n  swap2\n  swap1\n  tag_61\n  jump\t// in\ntag_60:\n  mload(0x40)\n  dup1\n  swap2\n  sub\n  swap1\n  revert\n    /* \"@openzeppelin/contracts/token/ERC20/ERC20.sol\":6240:6355  if (fromBalance < value) {... */\ntag_59:\n    /* \"@openzeppelin/contracts/token/ERC20/ERC20.sol\":6507:6512  value */\n  dup2\n    /* \"@openzeppelin/contracts/token/ERC20/ERC20.sol\":6493:6504  fromBalance */\n  dup2\n    /* \"@openzeppelin/contracts/token/ERC20/ERC20.sol\":6493:6512  fromBalance - value */\n  sub\n    /* \"@openzeppelin/contracts/token/ERC20/ERC20.sol\":6475:6484  _balances */\n  0x00\n    /* \"@openzeppelin/contracts/token/ERC20/ERC20.sol\":6475:6490  _balances[from] */\n  dup1\n    /* \"@openzeppelin/contracts/token/ERC20/ERC20.sol\":6485:6489  from */\n  dup7\n    /* \"@openzeppelin/contracts/token/ERC20/ERC20.sol\":6475:6490  _balances[from] */\n  0xffffffffffffffffffffffffffffffffffffffff\n  and\n  0xffffffffffffffffffffffffffffffffffffffff\n  and\n  dup2\n  mstore\n  0x20\n  add\n  swap1\n  dup2\n  mstore\n  0x20\n  add\n  0x00\n  keccak256\n    /* \"@openzeppelin/contracts/token/ERC20/ERC20.sol\":6475:6512  _balances[from] = fromBalance - value */\n  dup2\n  swap1\n  sstore\n  pop\n    /* \"@openzeppelin/contracts/token/ERC20/ERC20.sol\":6175:6537  {... */\n  pop\n    /* \"@openzeppelin/contracts/token/ERC20/ERC20.sol\":5997:6537  if (from == address(0)) {... */\ntag_58:\n    /* \"@openzeppelin/contracts/token/ERC20/ERC20.sol\":6565:6566  0 */\n  0x00\n    /* \"@openzeppelin/contracts/token/ERC20/ERC20.sol\":6551:6567  to == address(0) */\n  0xffffffffffffffffffffffffffffffffffffffff\n  and\n    /* \"@openzeppelin/contracts/token/ERC20/ERC20.sol\":6551:6553  to */\n  dup3\n    /* \"@openzeppelin/contracts/token/ERC20/ERC20.sol\":6551:6567  to == address(0) */\n  0xffffffffffffffffffffffffffffffffffffffff\n  and\n  sub\n    /* \"@openzeppelin/contracts/token/ERC20/ERC20.sol\":6547:6972  if (to == address(0)) {... */\n  tag_62\n  jumpi\n    /* \"@openzeppelin/contracts/token/ERC20/ERC20.sol\":6730:6735  value */\n  dup1\n    /* \"@openzeppelin/contracts/token/ERC20/ERC20.sol\":6714:6726  _totalSupply */\n  0x02\n  0x00\n    /* \"@openzeppelin/contracts/token/ERC20/ERC20.sol\":6714:6735  _totalSupply -= value */\n  dup3\n  dup3\n  sload\n  sub\n  swap3\n  pop\n  pop\n  dup2\n  swap1\n  sstore\n  pop\n    /* \"@openzeppelin/contracts/token/ERC20/ERC20.sol\":6547:6972  if (to == address(0)) {... */\n  jump(tag_63)\ntag_62:\n    /* \"@openzeppelin/contracts/token/ERC20/ERC20.sol\":6942:6947  value */\n  dup1\n    /* \"@openzeppelin/contracts/token/ERC20/ERC20.sol\":6925:6934  _balances */\n  0x00\n    /* \"@openzeppelin/contracts/token/ERC20/ERC20.sol\":6925:6938  _balances[to] */\n  dup1\n    /* \"@openzeppelin/contracts/token/ERC20/ERC20.sol\":6935:6937  to */\n  dup5\n    /* \"@openzeppelin/contracts/token/ERC20/ERC20.sol\":6925:6938  _balances[to] */\n  0xffffffffffffffffffffffffffffffffffffffff\n  and\n  0xffffffffffffffffffffffffffffffffffffffff\n  and\n  dup2\n  mstore\n  0x20\n  add\n  swap1\n  dup2\n  mstore\n  0x20\n  add\n  0x00\n  keccak256\n  0x00\n    /* \"@openzeppelin/contracts/token/ERC20/ERC20.sol\":6925:6947  _balances[to] += value */\n  dup3\n  dup3\n  sload\n  add\n  swap3\n  pop\n  pop\n  dup2\n  swap1\n  sstore\n  pop\n    /* \"@openzeppelin/contracts/token/ERC20/ERC20.sol\":6547:6972  if (to == address(0)) {... */\ntag_63:\n    /* \"@openzeppelin/contracts/token/ERC20/ERC20.sol\":7002:7004  to */\n  dup2\n    /* \"@openzeppelin/contracts/token/ERC20/ERC20.sol\":6987:7012  Transfer(from, to, value) */\n  0xffffffffffffffffffffffffffffffffffffffff\n  and\n    /* \"@openzeppelin/contracts/token/ERC20/ERC20.sol\":6996:7000  from */\n  dup4\n    /* \"@openzeppelin/contracts/token/ERC20/ERC20.sol\":6987:7012  Transfer(from, to, value) */\n  0xffffffffffffffffffffffffffffffffffffffff\n  and\n  0xddf252ad1be2c89b69c2b068fc378daa952ba7f163c4a11628f55a4df523b3ef\n    /* \"@openzeppelin/contracts/token/ERC20/ERC20.sol\":7006:7011  value */\n  dup4\n    /* \"@openzeppelin/contracts/token/ERC20/ERC20.sol\":6987:7012  Transfer(from, to, value) */\n  mload(0x40)\n  tag_64\n  swap2\n  swap1\n  tag_65\n  jump\t// in\ntag_64:\n  mload(0x40)\n  dup1\n  swap2\n  sub\n  swap1\n  log3\n    /* \"@openzeppelin/contracts/token/ERC20/ERC20.sol\":5912:7019  function _update(address from, address to, uint256 value) internal virtual {... */\n  pop\n  pop\n  pop\n  jump\t// out\n    /* \"#utility.yul\":88:205   */\ntag_67:\n    /* \"#utility.yul\":197:198   */\n  0x00\n    /* \"#utility.yul\":194:195   */\n  dup1\n    /* \"#utility.yul\":187:199   */\n  revert\n    /* \"#utility.yul\":334:460   */\ntag_69:\n    /* \"#utility.yul\":371:378   */\n  0x00\n    /* \"#utility.yul\":411:453   */\n  0xffffffffffffffffffffffffffffffffffffffff\n    /* \"#utility.yul\":404:409   */\n  dup3\n    /* \"#utility.yul\":400:454   */\n  and\n    /* \"#utility.yul\":389:454   */\n  swap1\n  pop\n    /* \"#utility.yul\":334:460   */\n  swap2\n  swap1\n  pop\n  jump\t// out\n    /* \"#utility.yul\":466:562   */\ntag_70:\n    /* \"#utility.yul\":503:510   */\n  0x00\n    /* \"#utility.yul\":532:556   */\n  tag_107\n    /* \"#utility.yul\":550:555   */\n  dup3\n    /* \"#utility.yul\":532:556   */\n  tag_69\n  jump\t// in\ntag_107:\n    /* \"#utility.yul\":521:556   */\n  swap1\n  pop\n    /* \"#utility.yul\":466:562   */\n  swap2\n  swap1\n  pop\n  jump\t// out\n    /* \"#utility.yul\":568:690   */\ntag_71:\n    /* \"#utility.yul\":641:665   */\n  tag_109\n    /* \"#utility.yul\":659:664   */\n  dup2\n    /* \"#utility.yul\":641:665   */\n  tag_70\n  jump\t// in\ntag_109:\n    /* \"#utility.yul\":634:639   */\n  dup2\n    /* \"#utility.yul\":631:666   */\n  eq\n    /* \"#utility.yul\":621:684   */\n  tag_110\n  jumpi\n    /* \"#utility.yul\":680:681   */\n  0x00\n    /* \"#utility.yul\":677:678   */\n  dup1\n    /* \"#utility.yul\":670:682   */\n  revert\n    /* \"#utility.yul\":621:684   */\ntag_110:\n    /* \"#utility.yul\":568:690   */\n  pop\n  jump\t// out\n    /* \"#utility.yul\":696:839   */\ntag_72:\n    /* \"#utility.yul\":753:758   */\n  0x00\n    /* \"#utility.yul\":784:790   */\n  dup2\n    /* \"#utility.yul\":778:791   */\n  mload\n    /* \"#utility.yul\":769:791   */\n  swap1\n  pop\n    /* \"#utility.yul\":800:833   */\n  tag_112\n    /* \"#utility.yul\":827:832   */\n  dup2\n    /* \"#utility.yul\":800:833   */\n  tag_71\n  jump\t// in\ntag_112:\n    /* \"#utility.yul\":696:839   */\n  swap3\n  swap2\n  pop\n  pop\n  jump\t// out\n    /* \"#utility.yul\":845:922   */\ntag_73:\n    /* \"#utility.yul\":882:889   */\n  0x00\n    /* \"#utility.yul\":911:916   */\n  dup2\n    /* \"#utility.yul\":900:916   */\n  swap1\n  pop\n    /* \"#utility.yul\":845:922   */\n  swap2\n  swap1\n  pop\n  jump\t// out\n    /* \"#utility.yul\":928:1050   */\ntag_74:\n    /* \"#utility.yul\":1001:1025   */\n  tag_115\n    /* \"#utility.yul\":1019:1024   */\n  dup2\n    /* \"#utility.yul\":1001:1025   */\n  tag_73\n  jump\t// in\ntag_115:\n    /* \"#utility.yul\":994:999   */\n  dup2\n    /* \"#utility.yul\":991:1026   */\n  eq\n    /* \"#utility.yul\":981:1044   */\n  tag_116\n  jumpi\n    /* \"#utility.yul\":1040:1041   */\n  0x00\n    /* \"#utility.yul\":1037:1038   */\n  dup1\n    /* \"#utility.yul\":1030:1042   */\n  revert\n    /* \"#utility.yul\":981:1044   */\ntag_116:\n    /* \"#utility.yul\":928:1050   */\n  pop\n  jump\t// out\n    /* \"#utility.yul\":1056:1199   */\ntag_75:\n    /* \"#utility.yul\":1113:1118   */\n  0x00\n    /* \"#utility.yul\":1144:1150   */\n  dup2\n    /* \"#utility.yul\":1138:1151   */\n  mload\n    /* \"#utility.yul\":1129:1151   */\n  swap1\n  pop\n    /* \"#utility.yul\":1160:1193   */\n  tag_118\n    /* \"#utility.yul\":1187:1192   */\n  dup2\n    /* \"#utility.yul\":1160:1193   */\n  tag_74\n  jump\t// in\ntag_118:\n    /* \"#utility.yul\":1056:1199   */\n  swap3\n  swap2\n  pop\n  pop\n  jump\t// out\n    /* \"#utility.yul\":1205:1868   */\ntag_3:\n    /* \"#utility.yul\":1293:1299   */\n  0x00\n    /* \"#utility.yul\":1301:1307   */\n  dup1\n    /* \"#utility.yul\":1309:1315   */\n  0x00\n    /* \"#utility.yul\":1358:1360   */\n  0x60\n    /* \"#utility.yul\":1346:1355   */\n  dup5\n    /* \"#utility.yul\":1337:1344   */\n  dup7\n    /* \"#utility.yul\":1333:1356   */\n  sub\n    /* \"#utility.yul\":1329:1361   */\n  slt\n    /* \"#utility.yul\":1326:1445   */\n  iszero\n  tag_120\n  jumpi\n    /* \"#utility.yul\":1364:1443   */\n  tag_121\n  tag_67\n  jump\t// in\ntag_121:\n    /* \"#utility.yul\":1326:1445   */\ntag_120:\n    /* \"#utility.yul\":1484:1485   */\n  0x00\n    /* \"#utility.yul\":1509:1573   */\n  tag_122\n    /* \"#utility.yul\":1565:1572   */\n  dup7\n    /* \"#utility.yul\":1556:1562   */\n  dup3\n    /* \"#utility.yul\":1545:1554   */\n  dup8\n    /* \"#utility.yul\":1541:1563   */\n  add\n    /* \"#utility.yul\":1509:1573   */\n  tag_72\n  jump\t// in\ntag_122:\n    /* \"#utility.yul\":1499:1573   */\n  swap4\n  pop\n    /* \"#utility.yul\":1455:1583   */\n  pop\n    /* \"#utility.yul\":1622:1624   */\n  0x20\n    /* \"#utility.yul\":1648:1712   */\n  tag_123\n    /* \"#utility.yul\":1704:1711   */\n  dup7\n    /* \"#utility.yul\":1695:1701   */\n  dup3\n    /* \"#utility.yul\":1684:1693   */\n  dup8\n    /* \"#utility.yul\":1680:1702   */\n  add\n    /* \"#utility.yul\":1648:1712   */\n  tag_75\n  jump\t// in\ntag_123:\n    /* \"#utility.yul\":1638:1712   */\n  swap3\n  pop\n    /* \"#utility.yul\":1593:1722   */\n  pop\n    /* \"#utility.yul\":1761:1763   */\n  0x40\n    /* \"#utility.yul\":1787:1851   */\n  tag_124\n    /* \"#utility.yul\":1843:1850   */\n  dup7\n    /* \"#utility.yul\":1834:1840   */\n  dup3\n    /* \"#utility.yul\":1823:1832   */\n  dup8\n    /* \"#utility.yul\":1819:1841   */\n  add\n    /* \"#utility.yul\":1787:1851   */\n  tag_75\n  jump\t// in\ntag_124:\n    /* \"#utility.yul\":1777:1851   */\n  swap2\n  pop\n    /* \"#utility.yul\":1732:1861   */\n  pop\n    /* \"#utility.yul\":1205:1868   */\n  swap3\n  pop\n  swap3\n  pop\n  swap3\n  jump\t// out\n    /* \"#utility.yul\":1874:1973   */\ntag_76:\n    /* \"#utility.yul\":1926:1932   */\n  0x00\n    /* \"#utility.yul\":1960:1965   */\n  dup2\n    /* \"#utility.yul\":1954:1966   */\n  mload\n    /* \"#utility.yul\":1944:1966   */\n  swap1\n  pop\n    /* \"#utility.yul\":1874:1973   */\n  swap2\n  swap1\n  pop\n  jump\t// out\n    /* \"#utility.yul\":1979:2159   */\ntag_77:\n    /* \"#utility.yul\":2027:2104   */\n  0x4e487b7100000000000000000000000000000000000000000000000000000000\n    /* \"#utility.yul\":2024:2025   */\n  0x00\n    /* \"#utility.yul\":2017:2105   */\n  mstore\n    /* \"#utility.yul\":2124:2128   */\n  0x41\n    /* \"#utility.yul\":2121:2122   */\n  0x04\n    /* \"#utility.yul\":2114:2129   */\n  mstore\n    /* \"#utility.yul\":2148:2152   */\n  0x24\n    /* \"#utility.yul\":2145:2146   */\n  0x00\n    /* \"#utility.yul\":2138:2153   */\n  revert\n    /* \"#utility.yul\":2165:2345   */\ntag_78:\n    /* \"#utility.yul\":2213:2290   */\n  0x4e487b7100000000000000000000000000000000000000000000000000000000\n    /* \"#utility.yul\":2210:2211   */\n  0x00\n    /* \"#utility.yul\":2203:2291   */\n  mstore\n    /* \"#utility.yul\":2310:2314   */\n  0x22\n    /* \"#utility.yul\":2307:2308   */\n  0x04\n    /* \"#utility.yul\":2300:2315   */\n  mstore\n    /* \"#utility.yul\":2334:2338   */\n  0x24\n    /* \"#utility.yul\":2331:2332   */\n  0x00\n    /* \"#utility.yul\":2324:2339   */\n  revert\n    /* \"#utility.yul\":2351:2671   */\ntag_79:\n    /* \"#utility.yul\":2395:2401   */\n  0x00\n    /* \"#utility.yul\":2432:2433   */\n  0x02\n    /* \"#utility.yul\":2426:2430   */\n  dup3\n    /* \"#utility.yul\":2422:2434   */\n  div\n    /* \"#utility.yul\":2412:2434   */\n  swap1\n  pop\n    /* \"#utility.yul\":2479:2480   */\n  0x01\n    /* \"#utility.yul\":2473:2477   */\n  dup3\n    /* \"#utility.yul\":2469:2481   */\n  and\n    /* \"#utility.yul\":2500:2518   */\n  dup1\n    /* \"#utility.yul\":2490:2571   */\n  tag_129\n  jumpi\n    /* \"#utility.yul\":2556:2560   */\n  0x7f\n    /* \"#utility.yul\":2548:2554   */\n  dup3\n    /* \"#utility.yul\":2544:2561   */\n  and\n    /* \"#utility.yul\":2534:2561   */\n  swap2\n  pop\n    /* \"#utility.yul\":2490:2571   */\ntag_129:\n    /* \"#utility.yul\":2618:2620   */\n  0x20\n    /* \"#utility.yul\":2610:2616   */\n  dup3\n    /* \"#utility.yul\":2607:2621   */\n  lt\n    /* \"#utility.yul\":2587:2605   */\n  dup2\n    /* \"#utility.yul\":2584:2622   */\n  sub\n    /* \"#utility.yul\":2581:2665   */\n  tag_130\n  jumpi\n    /* \"#utility.yul\":2637:2655   */\n  tag_131\n  tag_78\n  jump\t// in\ntag_131:\n    /* \"#utility.yul\":2581:2665   */\ntag_130:\n    /* \"#utility.yul\":2402:2671   */\n  pop\n    /* \"#utility.yul\":2351:2671   */\n  swap2\n  swap1\n  pop\n  jump\t// out\n    /* \"#utility.yul\":2677:2818   */\ntag_80:\n    /* \"#utility.yul\":2726:2730   */\n  0x00\n    /* \"#utility.yul\":2749:2752   */\n  dup2\n    /* \"#utility.yul\":2741:2752   */\n  swap1\n  pop\n    /* \"#utility.yul\":2772:2775   */\n  dup2\n    /* \"#utility.yul\":2769:2770   */\n  0x00\n    /* \"#utility.yul\":2762:2776   */\n  mstore\n    /* \"#utility.yul\":2806:2810   */\n  0x20\n    /* \"#utility.yul\":2803:2804   */\n  0x00\n    /* \"#utility.yul\":2793:2811   */\n  keccak256\n    /* \"#utility.yul\":2785:2811   */\n  swap1\n  pop\n    /* \"#utility.yul\":2677:2818   */\n  swap2\n  swap1\n  pop\n  jump\t// out\n    /* \"#utility.yul\":2824:2917   */\ntag_81:\n    /* \"#utility.yul\":2861:2867   */\n  0x00\n    /* \"#utility.yul\":2908:2910   */\n  0x20\n    /* \"#utility.yul\":2903:2905   */\n  0x1f\n    /* \"#utility.yul\":2896:2901   */\n  dup4\n    /* \"#utility.yul\":2892:2906   */\n  add\n    /* \"#utility.yul\":2888:2911   */\n  div\n    /* \"#utility.yul\":2878:2911   */\n  swap1\n  pop\n    /* \"#utility.yul\":2824:2917   */\n  swap2\n  swap1\n  pop\n  jump\t// out\n    /* \"#utility.yul\":2923:3030   */\ntag_82:\n    /* \"#utility.yul\":2967:2975   */\n  0x00\n    /* \"#utility.yul\":3017:3022   */\n  dup3\n    /* \"#utility.yul\":3011:3015   */\n  dup3\n    /* \"#utility.yul\":3007:3023   */\n  shl\n    /* \"#utility.yul\":2986:3023   */\n  swap1\n  pop\n    /* \"#utility.yul\":2923:3030   */\n  swap3\n  swap2\n  pop\n  pop\n  jump\t// out\n    /* \"#utility.yul\":3036:3429   */\ntag_83:\n    /* \"#utility.yul\":3105:3111   */\n  0x00\n    /* \"#utility.yul\":3155:3156   */\n  0x08\n    /* \"#utility.yul\":3143:3153   */\n  dup4\n    /* \"#utility.yul\":3139:3157   */\n  mul\n    /* \"#utility.yul\":3178:3275   */\n  tag_136\n    /* \"#utility.yul\":3208:3274   */\n  0xffffffffffffffffffffffffffffffffffffffffffffffffffffffffffffffff\n    /* \"#utility.yul\":3197:3206   */\n  dup3\n    /* \"#utility.yul\":3178:3275   */\n  tag_82\n  jump\t// in\ntag_136:\n    /* \"#utility.yul\":3296:3335   */\n  tag_137\n    /* \"#utility.yul\":3326:3334   */\n  dup7\n    /* \"#utility.yul\":3315:3324   */\n  dup4\n    /* \"#utility.yul\":3296:3335   */\n  tag_82\n  jump\t// in\ntag_137:\n    /* \"#utility.yul\":3284:3335   */\n  swap6\n  pop\n    /* \"#utility.yul\":3368:3372   */\n  dup1\n    /* \"#utility.yul\":3364:3373   */\n  not\n    /* \"#utility.yul\":3357:3362   */\n  dup5\n    /* \"#utility.yul\":3353:3374   */\n  and\n    /* \"#utility.yul\":3344:3374   */\n  swap4\n  pop\n    /* \"#utility.yul\":3417:3421   */\n  dup1\n    /* \"#utility.yul\":3407:3415   */\n  dup7\n    /* \"#utility.yul\":3403:3422   */\n  and\n    /* \"#utility.yul\":3396:3401   */\n  dup5\n    /* \"#utility.yul\":3393:3423   */\n  or\n    /* \"#utility.yul\":3383:3423   */\n  swap3\n  pop\n    /* \"#utility.yul\":3112:3429   */\n  pop\n  pop\n    /* \"#utility.yul\":3036:3429   */\n  swap4\n  swap3\n  pop\n  pop\n  pop\n  jump\t// out\n    /* \"#utility.yul\":3435:3495   */\ntag_84:\n    /* \"#utility.yul\":3463:3466   */\n  0x00\n    /* \"#utility.yul\":3484:3489   */\n  dup2\n    /* \"#utility.yul\":3477:3489   */\n  swap1\n  pop\n    /* \"#utility.yul\":3435:3495   */\n  swap2\n  swap1\n  pop\n  jump\t// out\n    /* \"#utility.yul\":3501:3643   */\ntag_85:\n    /* \"#utility.yul\":3551:3560   */\n  0x00\n    /* \"#utility.yul\":3584:3637   */\n  tag_140\n    /* \"#utility.yul\":3602:3636   */\n  tag_141\n    /* \"#utility.yul\":3611:3635   */\n  tag_142\n    /* \"#utility.yul\":3629:3634   */\n  dup5\n    /* \"#utility.yul\":3611:3635   */\n  tag_73\n  jump\t// in\ntag_142:\n    /* \"#utility.yul\":3602:3636   */\n  tag_84\n  jump\t// in\ntag_141:\n    /* \"#utility.yul\":3584:3637   */\n  tag_73\n  jump\t// in\ntag_140:\n    /* \"#utility.yul\":3571:3637   */\n  swap1\n  pop\n    /* \"#utility.yul\":3501:3643   */\n  swap2\n  swap1\n  pop\n  jump\t// out\n    /* \"#utility.yul\":3649:3724   */\ntag_86:\n    /* \"#utility.yul\":3692:3695   */\n  0x00\n    /* \"#utility.yul\":3713:3718   */\n  dup2\n    /* \"#utility.yul\":3706:3718   */\n  swap1\n  pop\n    /* \"#utility.yul\":3649:3724   */\n  swap2\n  swap1\n  pop\n  jump\t// out\n    /* \"#utility.yul\":3730:3999   */\ntag_87:\n    /* \"#utility.yul\":3840:3879   */\n  tag_145\n    /* \"#utility.yul\":3871:3878   */\n  dup4\n    /* \"#utility.yul\":3840:3879   */\n  tag_85\n  jump\t// in\ntag_145:\n    /* \"#utility.yul\":3901:3992   */\n  tag_146\n    /* \"#utility.yul\":3950:3991   */\n  tag_147\n    /* \"#utility.yul\":3974:3990   */\n  dup3\n    /* \"#utility.yul\":3950:3991   */\n  tag_86\n  jump\t// in\ntag_147:\n    /* \"#utility.yul\":3942:3948   */\n  dup5\n    /* \"#utility.yul\":3935:3939   */\n  dup5\n    /* \"#utility.yul\":3929:3940   */\n  sload\n    /* \"#utility.yul\":3901:3992   */\n  tag_83\n  jump\t// in\ntag_146:\n    /* \"#utility.yul\":3895:3899   */\n  dup3\n    /* \"#utility.yul\":3888:3993   */\n  sstore\n    /* \"#utility.yul\":3806:3999   */\n  pop\n    /* \"#utility.yul\":3730:3999   */\n  pop\n  pop\n  pop\n  jump\t// out\n    /* \"#utility.yul\":4005:4078   */\ntag_88:\n    /* \"#utility.yul\":4050:4053   */\n  0x00\n    /* \"#utility.yul\":4005:4078   */\n  swap1\n  jump\t// out\n    /* \"#utility.yul\":4084:4273   */\ntag_89:\n    /* \"#utility.yul\":4161:4193   */\n  tag_150\n  tag_88\n  jump\t// in\ntag_150:\n    /* \"#utility.yul\":4202:4267   */\n  tag_151\n    /* \"#utility.yul\":4260:4266   */\n  dup2\n    /* \"#utility.yul\":4252:4258   */\n  dup5\n    /* \"#utility.yul\":4246:4250   */\n  dup5\n    /* \"#utility.yul\":4202:4267   */\n  tag_87\n  jump\t// in\ntag_151:\n    /* \"#utility.yul\":4137:4273   */\n  pop\n    /* \"#utility.yul\":4084:4273   */\n  pop\n  pop\n  jump\t// out\n    /* \"#utility.yul\":4279:4465   */\ntag_90:\n    /* \"#utility.yul\":4339:4459   */\ntag_153:\n    /* \"#utility.yul\":4356:4359   */\n  dup2\n    /* \"#utility.yul\":4349:4354   */\n  dup2\n    /* \"#utility.yul\":4346:4360   */\n  lt\n    /* \"#utility.yul\":4339:4459   */\n  iszero\n  tag_155\n  jumpi\n    /* \"#utility.yul\":4410:4449   */\n  tag_156\n    /* \"#utility.yul\":4447:4448   */\n  0x00\n    /* \"#utility.yul\":4440:4445   */\n  dup3\n    /* \"#utility.yul\":4410:4449   */\n  tag_89\n  jump\t// in\ntag_156:\n    /* \"#utility.yul\":4383:4384   */\n  0x01\n    /* \"#utility.yul\":4376:4381   */\n  dup2\n    /* \"#utility.yul\":4372:4385   */\n  add\n    /* \"#utility.yul\":4363:4385   */\n  swap1\n  pop\n    /* \"#utility.yul\":4339:4459   */\n  jump(tag_153)\ntag_155:\n    /* \"#utility.yul\":4279:4465   */\n  pop\n  pop\n  jump\t// out\n    /* \"#utility.yul\":4471:5014   */\ntag_91:\n    /* \"#utility.yul\":4572:4574   */\n  0x1f\n    /* \"#utility.yul\":4567:4570   */\n  dup3\n    /* \"#utility.yul\":4564:4575   */\n  gt\n    /* \"#utility.yul\":4561:5007   */\n  iszero\n  tag_158\n  jumpi\n    /* \"#utility.yul\":4606:4644   */\n  tag_159\n    /* \"#utility.yul\":4638:4643   */\n  dup2\n    /* \"#utility.yul\":4606:4644   */\n  tag_80\n  jump\t// in\ntag_159:\n    /* \"#utility.yul\":4690:4719   */\n  tag_160\n    /* \"#utility.yul\":4708:4718   */\n  dup5\n    /* \"#utility.yul\":4690:4719   */\n  tag_81\n  jump\t// in\ntag_160:\n    /* \"#utility.yul\":4680:4688   */\n  dup2\n    /* \"#utility.yul\":4676:4720   */\n  add\n    /* \"#utility.yul\":4873:4875   */\n  0x20\n    /* \"#utility.yul\":4861:4871   */\n  dup6\n    /* \"#utility.yul\":4858:4876   */\n  lt\n    /* \"#utility.yul\":4855:4904   */\n  iszero\n  tag_161\n  jumpi\n    /* \"#utility.yul\":4894:4902   */\n  dup2\n    /* \"#utility.yul\":4879:4902   */\n  swap1\n  pop\n    /* \"#utility.yul\":4855:4904   */\ntag_161:\n    /* \"#utility.yul\":4917:4997   */\n  tag_162\n    /* \"#utility.yul\":4973:4995   */\n  tag_163\n    /* \"#utility.yul\":4991:4994   */\n  dup6\n    /* \"#utility.yul\":4973:4995   */\n  tag_81\n  jump\t// in\ntag_163:\n    /* \"#utility.yul\":4963:4971   */\n  dup4\n    /* \"#utility.yul\":4959:4996   */\n  add\n    /* \"#utility.yul\":4946:4957   */\n  dup3\n    /* \"#utility.yul\":4917:4997   */\n  tag_90\n  jump\t// in\ntag_162:\n    /* \"#utility.yul\":4576:5007   */\n  pop\n  pop\n    /* \"#utility.yul\":4561:5007   */\ntag_158:\n    /* \"#utility.yul\":4471:5014   */\n  pop\n  pop\n  pop\n  jump\t// out\n    /* \"#utility.yul\":5020:5137   */\ntag_92:\n    /* \"#utility.yul\":5074:5082   */\n  0x00\n    /* \"#utility.yul\":5124:5129   */\n  dup3\n    /* \"#utility.yul\":5118:5122   */\n  dup3\n    /* \"#utility.yul\":5114:5130   */\n  shr\n    /* \"#utility.yul\":5093:5130   */\n  swap1\n  pop\n    /* \"#utility.yul\":5020:5137   */\n  swap3\n  swap2\n  pop\n  pop\n  jump\t// out\n    /* \"#utility.yul\":5143:5312   */\ntag_93:\n    /* \"#utility.yul\":5187:5193   */\n  0x00\n    /* \"#utility.yul\":5220:5271   */\n  tag_166\n    /* \"#utility.yul\":5268:5269   */\n  0x00\n    /* \"#utility.yul\":5264:5270   */\n  not\n    /* \"#utility.yul\":5256:5261   */\n  dup5\n    /* \"#utility.yul\":5253:5254   */\n  0x08\n    /* \"#utility.yul\":5249:5262   */\n  mul\n    /* \"#utility.yul\":5220:5271   */\n  tag_92\n  jump\t// in\ntag_166:\n    /* \"#utility.yul\":5216:5272   */\n  not\n    /* \"#utility.yul\":5301:5305   */\n  dup1\n    /* \"#utility.yul\":5295:5299   */\n  dup4\n    /* \"#utility.yul\":5291:5306   */\n  and\n    /* \"#utility.yul\":5281:5306   */\n  swap2\n  pop\n    /* \"#utility.yul\":5194:5312   */\n  pop\n    /* \"#utility.yul\":5143:5312   */\n  swap3\n  swap2\n  pop\n  pop\n  jump\t// out\n    /* \"#utility.yul\":5317:5612   */\ntag_94:\n    /* \"#utility.yul\":5393:5397   */\n  0x00\n    /* \"#utility.yul\":5539:5568   */\n  tag_168\n    /* \"#utility.yul\":5564:5567   */\n  dup4\n    /* \"#utility.yul\":5558:5562   */\n  dup4\n    /* \"#utility.yul\":5539:5568   */\n  tag_93\n  jump\t// in\ntag_168:\n    /* \"#utility.yul\":5531:5568   */\n  swap2\n  pop\n    /* \"#utility.yul\":5601:5604   */\n  dup3\n    /* \"#utility.yul\":5598:5599   */\n  0x02\n    /* \"#utility.yul\":5594:5605   */\n  mul\n    /* \"#utility.yul\":5588:5592   */\n  dup3\n    /* \"#utility.yul\":5585:5606   */\n  or\n    /* \"#utility.yul\":5577:5606   */\n  swap1\n  pop\n    /* \"#utility.yul\":5317:5612   */\n  swap3\n  swap2\n  pop\n  pop\n  jump\t// out\n    /* \"#utility.yul\":5617:7012   */\ntag_10:\n    /* \"#utility.yul\":5734:5771   */\n  tag_170\n    /* \"#utility.yul\":5767:5770   */\n  dup3\n    /* \"#utility.yul\":5734:5771   */\n  tag_76\n  jump\t// in\ntag_170:\n    /* \"#utility.yul\":5836:5854   */\n  0xffffffffffffffff\n    /* \"#utility.yul\":5828:5834   */\n  dup2\n    /* \"#utility.yul\":5825:5855   */\n  gt\n    /* \"#utility.yul\":5822:5878   */\n  iszero\n  tag_171\n  jumpi\n    /* \"#utility.yul\":5858:5876   */\n  tag_172\n  tag_77\n  jump\t// in\ntag_172:\n    /* \"#utility.yul\":5822:5878   */\ntag_171:\n    /* \"#utility.yul\":5902:5940   */\n  tag_173\n    /* \"#utility.yul\":5934:5938   */\n  dup3\n    /* \"#utility.yul\":5928:5939   */\n  sload\n    /* \"#utility.yul\":5902:5940   */\n  tag_79\n  jump\t// in\ntag_173:\n    /* \"#utility.yul\":5987:6054   */\n  tag_174\n    /* \"#utility.yul\":6047:6053   */\n  dup3\n    /* \"#utility.yul\":6039:6045   */\n  dup3\n    /* \"#utility.yul\":6033:6037   */\n  dup6\n    /* \"#utility.yul\":5987:6054   */\n  tag_91\n  jump\t// in\ntag_174:\n    /* \"#utility.yul\":6081:6082   */\n  0x00\n    /* \"#utility.yul\":6105:6109   */\n  0x20\n    /* \"#utility.yul\":6092:6109   */\n  swap1\n  pop\n    /* \"#utility.yul\":6137:6139   */\n  0x1f\n    /* \"#utility.yul\":6129:6135   */\n  dup4\n    /* \"#utility.yul\":6126:6140   */\n  gt\n    /* \"#utility.yul\":6154:6155   */\n  0x01\n    /* \"#utility.yul\":6149:6767   */\n  dup2\n  eq\n  tag_176\n  jumpi\n    /* \"#utility.yul\":6811:6812   */\n  0x00\n    /* \"#utility.yul\":6828:6834   */\n  dup5\n    /* \"#utility.yul\":6825:6902   */\n  iszero\n  tag_177\n  jumpi\n    /* \"#utility.yul\":6877:6886   */\n  dup3\n    /* \"#utility.yul\":6872:6875   */\n  dup8\n    /* \"#utility.yul\":6868:6887   */\n  add\n    /* \"#utility.yul\":6862:6888   */\n  mload\n    /* \"#utility.yul\":6853:6888   */\n  swap1\n  pop\n    /* \"#utility.yul\":6825:6902   */\ntag_177:\n    /* \"#utility.yul\":6928:6995   */\n  tag_178\n    /* \"#utility.yul\":6988:6994   */\n  dup6\n    /* \"#utility.yul\":6981:6986   */\n  dup3\n    /* \"#utility.yul\":6928:6995   */\n  tag_94\n  jump\t// in\ntag_178:\n    /* \"#utility.yul\":6922:6926   */\n  dup7\n    /* \"#utility.yul\":6915:6996   */\n  sstore\n    /* \"#utility.yul\":6784:7006   */\n  pop\n    /* \"#utility.yul\":6119:7006   */\n  jump(tag_175)\n    /* \"#utility.yul\":6149:6767   */\ntag_176:\n    /* \"#utility.yul\":6201:6205   */\n  0x1f\n    /* \"#utility.yul\":6197:6206   */\n  not\n    /* \"#utility.yul\":6189:6195   */\n  dup5\n    /* \"#utility.yul\":6185:6207   */\n  and\n    /* \"#utility.yul\":6235:6272   */\n  tag_179\n    /* \"#utility.yul\":6267:6271   */\n  dup7\n    /* \"#utility.yul\":6235:6272   */\n  tag_80\n  jump\t// in\ntag_179:\n    /* \"#utility.yul\":6294:6295   */\n  0x00\n    /* \"#utility.yul\":6308:6516   */\ntag_180:\n    /* \"#utility.yul\":6322:6329   */\n  dup3\n    /* \"#utility.yul\":6319:6320   */\n  dup2\n    /* \"#utility.yul\":6316:6330   */\n  lt\n    /* \"#utility.yul\":6308:6516   */\n  iszero\n  tag_182\n  jumpi\n    /* \"#utility.yul\":6401:6410   */\n  dup5\n    /* \"#utility.yul\":6396:6399   */\n  dup10\n    /* \"#utility.yul\":6392:6411   */\n  add\n    /* \"#utility.yul\":6386:6412   */\n  mload\n    /* \"#utility.yul\":6378:6384   */\n  dup3\n    /* \"#utility.yul\":6371:6413   */\n  sstore\n    /* \"#utility.yul\":6452:6453   */\n  0x01\n    /* \"#utility.yul\":6444:6450   */\n  dup3\n    /* \"#utility.yul\":6440:6454   */\n  add\n    /* \"#utility.yul\":6430:6454   */\n  swap2\n  pop\n    /* \"#utility.yul\":6499:6501   */\n  0x20\n    /* \"#utility.yul\":6488:6497   */\n  dup6\n    /* \"#utility.yul\":6484:6502   */\n  add\n    /* \"#utility.yul\":6471:6502   */\n  swap5\n  pop\n    /* \"#utility.yul\":6345:6349   */\n  0x20\n    /* \"#utility.yul\":6342:6343   */\n  dup2\n    /* \"#utility.yul\":6338:6350   */\n  add\n    /* \"#utility.yul\":6333:6350   */\n  swap1\n  pop\n    /* \"#utility.yul\":6308:6516   */\n  jump(tag_180)\ntag_182:\n    /* \"#utility.yul\":6544:6550   */\n  dup7\n    /* \"#utility.yul\":6535:6542   */\n  dup4\n    /* \"#utility.yul\":6532:6551   */\n  lt\n    /* \"#utility.yul\":6529:6708   */\n  iszero\n  tag_183\n  jumpi\n    /* \"#utility.yul\":6602:6611   */\n  dup5\n    /* \"#utility.yul\":6597:6600   */\n  dup10\n    /* \"#utility.yul\":6593:6612   */\n  add\n    /* \"#utility.yul\":6587:6613   */\n  mload\n    /* \"#utility.yul\":6645:6693   */\n  tag_184\n    /* \"#utility.yul\":6687:6691   */\n  0x1f\n    /* \"#utility.yul\":6679:6685   */\n  dup10\n    /* \"#utility.yul\":6675:6692   */\n  and\n    /* \"#utility.yul\":6664:6673   */\n  dup3\n    /* \"#utility.yul\":6645:6693   */\n  tag_93\n  jump\t// in\ntag_184:\n    /* \"#utility.yul\":6637:6643   */\n  dup4\n    /* \"#utility.yul\":6630:6694   */\n  sstore\n    /* \"#utility.yul\":6552:6708   */\n  pop\n    /* \"#utility.yul\":6529:6708   */\ntag_183:\n    /* \"#utility.yul\":6754:6755   */\n  0x01\n    /* \"#utility.yul\":6750:6751   */\n  0x02\n    /* \"#utility.yul\":6742:6748   */\n  dup9\n    /* \"#utility.yul\":6738:6752   */\n  mul\n    /* \"#utility.yul\":6734:6756   */\n  add\n    /* \"#utility.yul\":6728:6732   */\n  dup9\n    /* \"#utility.yul\":6721:6757   */\n  sstore\n    /* \"#utility.yul\":6156:6767   */\n  pop\n  pop\n  pop\n    /* \"#utility.yul\":6119:7006   */\ntag_175:\n  pop\n    /* \"#utility.yul\":5709:7012   */\n  pop\n  pop\n  pop\n    /* \"#utility.yul\":5617:7012   */\n  pop\n  pop\n  jump\t// out\n    /* \"#utility.yul\":7018:7136   */\ntag_95:\n    /* \"#utility.yul\":7105:7129   */\n  tag_186\n    /* \"#utility.yul\":7123:7128   */\n  dup2\n    /* \"#utility.yul\":7105:7129   */\n  tag_70\n  jump\t// in\ntag_186:\n    /* \"#utility.yul\":7100:7103   */\n  dup3\n    /* \"#utility.yul\":7093:7130   */\n  mstore\n    /* \"#utility.yul\":7018:7136   */\n  pop\n  pop\n  jump\t// out\n    /* \"#utility.yul\":7142:7364   */\ntag_15:\n    /* \"#utility.yul\":7235:7239   */\n  0x00\n    /* \"#utility.yul\":7273:7275   */\n  0x20\n    /* \"#utility.yul\":7262:7271   */\n  dup3\n    /* \"#utility.yul\":7258:7276   */\n  add\n    /* \"#utility.yul\":7250:7276   */\n  swap1\n  pop\n    /* \"#utility.yul\":7286:7357   */\n  tag_188\n    /* \"#utility.yul\":7354:7355   */\n  0x00\n    /* \"#utility.yul\":7343:7352   */\n  dup4\n    /* \"#utility.yul\":7339:7356   */\n  add\n    /* \"#utility.yul\":7330:7336   */\n  dup5\n    /* \"#utility.yul\":7286:7357   */\n  tag_95\n  jump\t// in\ntag_188:\n    /* \"#utility.yul\":7142:7364   */\n  swap3\n  swap2\n  pop\n  pop\n  jump\t// out\n    /* \"#utility.yul\":7370:7488   */\ntag_96:\n    /* \"#utility.yul\":7457:7481   */\n  tag_190\n    /* \"#utility.yul\":7475:7480   */\n  dup2\n    /* \"#utility.yul\":7457:7481   */\n  tag_73\n  jump\t// in\ntag_190:\n    /* \"#utility.yul\":7452:7455   */\n  dup3\n    /* \"#utility.yul\":7445:7482   */\n  mstore\n    /* \"#utility.yul\":7370:7488   */\n  pop\n  pop\n  jump\t// out\n    /* \"#utility.yul\":7494:7826   */\ntag_28:\n    /* \"#utility.yul\":7615:7619   */\n  0x00\n    /* \"#utility.yul\":7653:7655   */\n  0x40\n    /* \"#utility.yul\":7642:7651   */\n  dup3\n    /* \"#utility.yul\":7638:7656   */\n  add\n    /* \"#utility.yul\":7630:7656   */\n  swap1\n  pop\n    /* \"#utility.yul\":7666:7737   */\n  tag_192\n    /* \"#utility.yul\":7734:7735   */\n  0x00\n    /* \"#utility.yul\":7723:7732   */\n  dup4\n    /* \"#utility.yul\":7719:7736   */\n  add\n    /* \"#utility.yul\":7710:7716   */\n  dup6\n    /* \"#utility.yul\":7666:7737   */\n  tag_96\n  jump\t// in\ntag_192:\n    /* \"#utility.yul\":7747:7819   */\n  tag_193\n    /* \"#utility.yul\":7815:7817   */\n  0x20\n    /* \"#utility.yul\":7804:7813   */\n  dup4\n    /* \"#utility.yul\":7800:7818   */\n  add\n    /* \"#utility.yul\":7791:7797   */\n  dup5\n    /* \"#utility.yul\":7747:7819   */\n  tag_96\n  jump\t// in\ntag_193:\n    /* \"#utility.yul\":7494:7826   */\n  swap4\n  swap3\n  pop\n  pop\n  pop\n  jump\t// out\n    /* \"#utility.yul\":7832:7917   */\ntag_97:\n    /* \"#utility.yul\":7877:7884   */\n  0x00\n    /* \"#utility.yul\":7906:7911   */\n  dup2\n    /* \"#utility.yul\":7895:7911   */\n  swap1\n  pop\n    /* \"#utility.yul\":7832:7917   */\n  swap2\n  swap1\n  pop\n  jump\t// out\n    /* \"#utility.yul\":7923:8081   */\ntag_98:\n    /* \"#utility.yul\":7981:7990   */\n  0x00\n    /* \"#utility.yul\":8014:8075   */\n  tag_196\n    /* \"#utility.yul\":8032:8074   */\n  tag_197\n    /* \"#utility.yul\":8041:8073   */\n  tag_198\n    /* \"#utility.yul\":8067:8072   */\n  dup5\n    /* \"#utility.yul\":8041:8073   */\n  tag_97\n  jump\t// in\ntag_198:\n    /* \"#utility.yul\":8032:8074   */\n  tag_84\n  jump\t// in\ntag_197:\n    /* \"#utility.yul\":8014:8075   */\n  tag_73\n  jump\t// in\ntag_196:\n    /* \"#utility.yul\":8001:8075   */\n  swap1\n  pop\n    /* \"#utility.yul\":7923:8081   */\n  swap2\n  swap1\n  pop\n  jump\t// out\n    /* \"#utility.yul\":8087:8234   */\ntag_99:\n    /* \"#utility.yul\":8182:8227   */\n  tag_200\n    /* \"#utility.yul\":8221:8226   */\n  dup2\n    /* \"#utility.yul\":8182:8227   */\n  tag_98\n  jump\t// in\ntag_200:\n    /* \"#utility.yul\":8177:8180   */\n  dup3\n    /* \"#utility.yul\":8170:8228   */\n  mstore\n    /* \"#utility.yul\":8087:8234   */\n  pop\n  pop\n  jump\t// out\n    /* \"#utility.yul\":8240:8588   */\ntag_32:\n    /* \"#utility.yul\":8369:8373   */\n  0x00\n    /* \"#utility.yul\":8407:8409   */\n  0x40\n    /* \"#utility.yul\":8396:8405   */\n  dup3\n    /* \"#utility.yul\":8392:8410   */\n  add\n    /* \"#utility.yul\":8384:8410   */\n  swap1\n  pop\n    /* \"#utility.yul\":8420:8499   */\n  tag_202\n    /* \"#utility.yul\":8496:8497   */\n  0x00\n    /* \"#utility.yul\":8485:8494   */\n  dup4\n    /* \"#utility.yul\":8481:8498   */\n  add\n    /* \"#utility.yul\":8472:8478   */\n  dup6\n    /* \"#utility.yul\":8420:8499   */\n  tag_99\n  jump\t// in\ntag_202:\n    /* \"#utility.yul\":8509:8581   */\n  tag_203\n    /* \"#utility.yul\":8577:8579   */\n  0x20\n    /* \"#utility.yul\":8566:8575   */\n  dup4\n    /* \"#utility.yul\":8562:8580   */\n  add\n    /* \"#utility.yul\":8553:8559   */\n  dup5\n    /* \"#utility.yul\":8509:8581   */\n  tag_96\n  jump\t// in\ntag_203:\n    /* \"#utility.yul\":8240:8588   */\n  swap4\n  swap3\n  pop\n  pop\n  pop\n  jump\t// out\n    /* \"#utility.yul\":8594:8774   */\ntag_100:\n    /* \"#utility.yul\":8642:8719   */\n  0x4e487b7100000000000000000000000000000000000000000000000000000000\n    /* \"#utility.yul\":8639:8640   */\n  0x00\n    /* \"#utility.yul\":8632:8720   */\n  mstore\n    /* \"#utility.yul\":8739:8743   */\n  0x11\n    /* \"#utility.yul\":8736:8737   */\n  0x04\n    /* \"#utility.yul\":8729:8744   */\n  mstore\n    /* \"#utility.yul\":8763:8767   */\n  0x24\n    /* \"#utility.yul\":8760:8761   */\n  0x00\n    /* \"#utility.yul\":8753:8768   */\n  revert\n    /* \"#utility.yul\":8780:8971   */\ntag_57:\n    /* \"#utility.yul\":8820:8823   */\n  0x00\n    /* \"#utility.yul\":8839:8859   */\n  tag_206\n    /* \"#utility.yul\":8857:8858   */\n  dup3\n    /* \"#utility.yul\":8839:8859   */\n  tag_73\n  jump\t// in\ntag_206:\n    /* \"#utility.yul\":8834:8859   */\n  swap2\n  pop\n    /* \"#utility.yul\":8873:8893   */\n  tag_207\n    /* \"#utility.yul\":8891:8892   */\n  dup4\n    /* \"#utility.yul\":8873:8893   */\n  tag_73\n  jump\t// in\ntag_207:\n    /* \"#utility.yul\":8868:8893   */\n  swap3\n  pop\n    /* \"#utility.yul\":8916:8917   */\n  dup3\n    /* \"#utility.yul\":8913:8914   */\n  dup3\n    /* \"#utility.yul\":8909:8918   */\n  add\n    /* \"#utility.yul\":8902:8918   */\n  swap1\n  pop\n    /* \"#utility.yul\":8937:8940   */\n  dup1\n    /* \"#utility.yul\":8934:8935   */\n  dup3\n    /* \"#utility.yul\":8931:8941   */\n  gt\n    /* \"#utility.yul\":8928:8964   */\n  iszero\n  tag_208\n  jumpi\n    /* \"#utility.yul\":8944:8962   */\n  tag_209\n  tag_100\n  jump\t// in\ntag_209:\n    /* \"#utility.yul\":8928:8964   */\ntag_208:\n    /* \"#utility.yul\":8780:8971   */\n  swap3\n  swap2\n  pop\n  pop\n  jump\t// out\n    /* \"#utility.yul\":8977:9419   */\ntag_61:\n    /* \"#utility.yul\":9126:9130   */\n  0x00\n    /* \"#utility.yul\":9164:9166   */\n  0x60\n    /* \"#utility.yul\":9153:9162   */\n  dup3\n    /* \"#utility.yul\":9149:9167   */\n  add\n    /* \"#utility.yul\":9141:9167   */\n  swap1\n  pop\n    /* \"#utility.yul\":9177:9248   */\n  tag_211\n    /* \"#utility.yul\":9245:9246   */\n  0x00\n    /* \"#utility.yul\":9234:9243   */\n  dup4\n    /* \"#utility.yul\":9230:9247   */\n  add\n    /* \"#utility.yul\":9221:9227   */\n  dup7\n    /* \"#utility.yul\":9177:9248   */\n  tag_95\n  jump\t// in\ntag_211:\n    /* \"#utility.yul\":9258:9330   */\n  tag_212\n    /* \"#utility.yul\":9326:9328   */\n  0x20\n    /* \"#utility.yul\":9315:9324   */\n  dup4\n    /* \"#utility.yul\":9311:9329   */\n  add\n    /* \"#utility.yul\":9302:9308   */\n  dup6\n    /* \"#utility.yul\":9258:9330   */\n  tag_96\n  jump\t// in\ntag_212:\n    /* \"#utility.yul\":9340:9412   */\n  tag_213\n    /* \"#utility.yul\":9408:9410   */\n  0x40\n    /* \"#utility.yul\":9397:9406   */\n  dup4\n    /* \"#utility.yul\":9393:9411   */\n  add\n    /* \"#utility.yul\":9384:9390   */\n  dup5\n    /* \"#utility.yul\":9340:9412   */\n  tag_96\n  jump\t// in\ntag_213:\n    /* \"#utility.yul\":8977:9419   */\n  swap5\n  swap4\n  pop\n  pop\n  pop\n  pop\n  jump\t// out\n    /* \"#utility.yul\":9425:9647   */\ntag_65:\n    /* \"#utility.yul\":9518:9522   */\n  0x00\n    /* \"#utility.yul\":9556:9558   */\n  0x20\n    /* \"#utility.yul\":9545:9554   */\n  dup3\n    /* \"#utility.yul\":9541:9559   */\n  add\n    /* \"#utility.yul\":9533:9559   */\n  swap1\n  pop\n    /* \"#utility.yul\":9569:9640   */\n  tag_215\n    /* \"#utility.yul\":9637:9638   */\n  0x00\n    /* \"#utility.yul\":9626:9635   */\n  dup4\n    /* \"#utility.yul\":9622:9639   */\n  add\n    /* \"#utility.yul\":9613:9619   */\n  dup5\n    /* \"#utility.yul\":9569:9640   */\n  tag_96\n  jump\t// in\ntag_215:\n    /* \"#utility.yul\":9425:9647   */\n  swap3\n  swap2\n  pop\n  pop\n  jump\t// out\n    /* \"contracts/TIMBSToken.sol\":1432:12053  contract TIMBSToken is ERC20, ERC20Burnable, Ownable, ReentrancyGuard {... */\ntag_33:\n  dataSize(sub_0)\n  dup1\n  dataOffset(sub_0)\n  0x00\n  codecopy\n  0x00\n  return\nstop\n\nsub_0: assembly {\n        /* \"contracts/TIMBSToken.sol\":1432:12053  contract TIMBSToken is ERC20, ERC20Burnable, Ownable, ReentrancyGuard {... */\n      mstore(0x40, 0x80)\n      callvalue\n      dup1\n      iszero\n      tag_1\n      jumpi\n      0x00\n      dup1\n      revert\n    tag_1:\n      pop\n      jumpi(tag_2, lt(calldatasize, 0x04))\n      shr(0xe0, calldataload(0x00))\n      dup1\n      0x715018a6\n      gt\n      tag_38\n      jumpi\n      dup1\n      0xa1bdb15e\n      gt\n      tag_39\n      jumpi\n      dup1\n      0xd89a6fa6\n      gt\n      tag_40\n      jumpi\n      dup1\n      0xd89a6fa6\n      eq\n      tag_33\n      jumpi\n      dup1\n      0xdd62ed3e\n      eq\n      tag_34\n      jumpi\n      dup1\n      0xe4a34dce\n      eq\n      tag_35\n      jumpi\n      dup1\n      0xf0f44260\n      eq\n      tag_36\n      jumpi\n      dup1\n      0xf2fde38b\n      eq\n      tag_37\n      jumpi\n      jump(tag_2)\n    tag_40:\n      dup1\n      0xa1bdb15e\n      eq\n      tag_29\n      jumpi\n      dup1\n      0xa9059cbb\n      eq\n      tag_30\n      jumpi\n      dup1\n      0xa9e75723\n      eq\n      tag_31\n      jumpi\n      dup1\n      0xae11c4bc\n      eq\n      tag_32\n      jumpi\n      jump(tag_2)\n    tag_39:\n      dup1\n      0x83d5d801\n      gt\n      tag_41\n      jumpi\n      dup1\n      0x83d5d801\n      eq\n      tag_24\n      jumpi\n      dup1\n      0x8456cb59\n      eq\n      tag_25\n      jumpi\n      dup1\n      0x8bf55409\n      eq\n      tag_26\n      jumpi\n      dup1\n      0x8da5cb5b\n      eq\n      tag_27\n      jumpi\n      dup1\n      0x95d89b41\n      eq\n      tag_28\n      jumpi\n      jump(tag_2)\n    tag_41:\n      dup1\n      0x715018a6\n      eq\n      tag_20\n      jumpi\n      dup1\n      0x79cc6790\n      eq\n      tag_21\n      jumpi\n      dup1\n      0x7c562a94\n      eq\n      tag_22\n      jumpi\n      dup1\n      0x7ffbe241\n      eq\n      tag_23\n      jumpi\n      jump(tag_2)\n    tag_38:\n      dup1\n      0x313ce567\n      gt\n      tag_42\n      jumpi\n      dup1\n      0x42966c68\n      gt\n      tag_43\n      jumpi\n      dup1\n      0x42966c68\n      eq\n      tag_15\n      jumpi\n      dup1\n      0x45c952cb\n      eq\n      tag_16\n      jumpi\n      dup1\n      0x5c975abb\n      eq\n      tag_17\n      jumpi\n      dup1\n      0x61d027b3\n      eq\n      tag_18\n      jumpi\n      dup1\n      0x70a08231\n      eq\n      tag_19\n      jumpi\n      jump(tag_2)\n    tag_43:\n      dup1\n      0x313ce567\n      eq\n      tag_11\n      jumpi\n      dup1\n      0x3a03171c\n      eq\n      tag_12\n      jumpi\n      dup1\n      0x3f4ba83a\n      eq\n      tag_13\n      jumpi\n      dup1\n      0x4214e0af\n      eq\n      tag_14\n      jumpi\n      jump(tag_2)\n    tag_42:\n      dup1\n      0x21d66353\n      gt\n      tag_44\n      jumpi\n      dup1\n      0x21d66353\n      eq\n      tag_7\n      jumpi\n      dup1\n      0x23b872dd\n      eq\n      tag_8\n      jumpi\n      dup1\n      0x296ed9f4\n      eq\n      tag_9\n      jumpi\n      dup1\n      0x3028f63a\n      eq\n      tag_10\n      jumpi\n      jump(tag_2)\n    tag_44:\n      dup1\n      0x06fdde03\n      eq\n      tag_3\n      jumpi\n      dup1\n      0x095ea7b3\n      eq\n      tag_4\n      jumpi\n      dup1\n      0x0c56ae3b\n      eq\n      tag_5\n      jumpi\n      dup1\n      0x18160ddd\n      eq\n      tag_6\n      jumpi\n    tag_2:\n      0x00\n      dup1\n      revert\n        /* \"@openzeppelin/contracts/token/ERC20/ERC20.sol\":1760:1849  function name() public view virtual returns (string memory) {... */\n    tag_3:\n      tag_45\n      tag_46\n      jump\t// in\n    tag_45:\n      mload(0x40)\n      tag_47\n      swap2\n      swap1\n      tag_48\n      jump\t// in\n    tag_47:\n      mload(0x40)\n      dup1\n      swap2\n      sub\n      swap1\n      return\n        /* \"@openzeppelin/contracts/token/ERC20/ERC20.sol\":3902:4088  function approve(address spender, uint256 value) public virtual returns (bool) {... */\n    tag_4:\n      tag_49\n      0x04\n      dup1\n      calldatasize\n      sub\n      dup2\n      add\n      swap1\n      tag_50\n      swap2\n      swap1\n      tag_51\n      jump\t// in\n    tag_50:\n      tag_52\n      jump\t// in\n    tag_49:\n      mload(0x40)\n      tag_53\n      swap2\n      swap1\n      tag_54\n      jump\t// in\n    tag_53:\n      mload(0x40)\n      dup1\n      swap2\n      sub\n      swap1\n      return\n        /* \"contracts/TIMBSToken.sol\":2285:2311  address public stakingPool */\n    tag_5:\n      tag_55\n      tag_56\n      jump\t// in\n    tag_55:\n      mload(0x40)\n      tag_57\n      swap2\n      swap1\n      tag_58\n      jump\t// in\n    tag_57:\n      mload(0x40)\n      dup1\n      swap2\n      sub\n      swap1\n      return\n        /* \"@openzeppelin/contracts/token/ERC20/ERC20.sol\":2803:2900  function totalSupply() public view virtual returns (uint256) {... */\n    tag_6:\n      tag_59\n      tag_60\n      jump\t// in\n    tag_59:\n      mload(0x40)\n      tag_61\n      swap2\n      swap1\n      tag_62\n      jump\t// in\n    tag_61:\n      mload(0x40)\n      dup1\n      swap2\n      sub\n      swap1\n      return\n        /* \"contracts/TIMBSToken.sol\":8166:8365  function setEntryCostTIMBS(uint256 _cost) external onlyOwner {... */\n    tag_7:\n      tag_63\n      0x04\n      dup1\n      calldatasize\n      sub\n      dup2\n      add\n      swap1\n      tag_64\n      swap2\n      swap1\n      tag_65\n      jump\t// in\n    tag_64:\n      tag_66\n      jump\t// in\n    tag_63:\n      stop\n        /* \"@openzeppelin/contracts/token/ERC20/ERC20.sol\":4680:4924  function transferFrom(address from, address to, uint256 value) public virtual returns (bool) {... */\n    tag_8:\n      tag_67\n      0x04\n      dup1\n      calldatasize\n      sub\n      dup2\n      add\n      swap1\n      tag_68\n      swap2\n      swap1\n      tag_69\n      jump\t// in\n    tag_68:\n      tag_70\n      jump\t// in\n    tag_67:\n      mload(0x40)\n      tag_71\n      swap2\n      swap1\n      tag_54\n      jump\t// in\n    tag_71:\n      mload(0x40)\n      dup1\n      swap2\n      sub\n      swap1\n      return\n        /* \"contracts/TIMBSToken.sol\":9815:10259  function mintEmissions(address recipient, uint256 amount)... */\n    tag_9:\n      tag_72\n      0x04\n      dup1\n      calldatasize\n      sub\n      dup2\n      add\n      swap1\n      tag_73\n      swap2\n      swap1\n      tag_51\n      jump\t// in\n    tag_73:\n      tag_74\n      jump\t// in\n    tag_72:\n      stop\n        /* \"contracts/TIMBSToken.sol\":6732:7121  function setStakingPool(address _stakingPool) external onlyOwner {... */\n    tag_10:\n      tag_75\n      0x04\n      dup1\n      calldatasize\n      sub\n      dup2\n      add\n      swap1\n      tag_76\n      swap2\n      swap1\n      tag_77\n      jump\t// in\n    tag_76:\n      tag_78\n      jump\t// in\n    tag_75:\n      stop\n        /* \"@openzeppelin/contracts/token/ERC20/ERC20.sol\":2688:2770  function decimals() public view virtual returns (uint8) {... */\n    tag_11:\n      tag_79\n      tag_80\n      jump\t// in\n    tag_79:\n      mload(0x40)\n      tag_81\n      swap2\n      swap1\n      tag_82\n      jump\t// in\n    tag_81:\n      mload(0x40)\n      dup1\n      swap2\n      sub\n      swap1\n      return\n        /* \"contracts/TIMBSToken.sol\":1799:1852  uint256 public constant HARD_CAP = 100_000_000 * 1e18 */\n    tag_12:\n      tag_83\n      tag_84\n      jump\t// in\n    tag_83:\n      mload(0x40)\n      tag_85\n      swap2\n      swap1\n      tag_62\n      jump\t// in\n    tag_85:\n      mload(0x40)\n      dup1\n      swap2\n      sub\n      swap1\n      return\n        /* \"contracts/TIMBSToken.sol\":9203:9307  function unpause() external onlyOwner {... */\n    tag_13:\n      tag_86\n      tag_87\n      jump\t// in\n    tag_86:\n      stop\n        /* \"contracts/TIMBSToken.sol\":2518:2551  uint256 public emissionRatePerDay */\n    tag_14:\n      tag_88\n      tag_89\n      jump\t// in\n    tag_88:\n      mload(0x40)\n      tag_90\n      swap2\n      swap1\n      tag_62\n      jump\t// in\n    tag_90:\n      mload(0x40)\n      dup1\n      swap2\n      sub\n      swap1\n      return\n        /* \"@openzeppelin/contracts/token/ERC20/extensions/ERC20Burnable.sol\":618:705  function burn(uint256 value) public virtual {... */\n    tag_15:\n      tag_91\n      0x04\n      dup1\n      calldatasize\n      sub\n      dup2\n      add\n      swap1\n      tag_92\n      swap2\n      swap1\n      tag_65\n      jump\t// in\n    tag_92:\n      tag_93\n      jump\t// in\n    tag_91:\n      stop\n        /* \"contracts/TIMBSToken.sol\":2699:2728  uint256 public entryCostTIMBS */\n    tag_16:\n      tag_94\n      tag_95\n      jump\t// in\n    tag_94:\n      mload(0x40)\n      tag_96\n      swap2\n      swap1\n      tag_62\n      jump\t// in\n    tag_96:\n      mload(0x40)\n      dup1\n      swap2\n      sub\n      swap1\n      return\n        /* \"contracts/TIMBSToken.sol\":3064:3082  bool public paused */\n    tag_17:\n      tag_97\n      tag_98\n      jump\t// in\n    tag_97:\n      mload(0x40)\n      tag_99\n      swap2\n      swap1\n      tag_54\n      jump\t// in\n    tag_99:\n      mload(0x40)\n      dup1\n      swap2\n      sub\n      swap1\n      return\n        /* \"contracts/TIMBSToken.sol\":2177:2200  address public treasury */\n    tag_18:\n      tag_100\n      tag_101\n      jump\t// in\n    tag_100:\n      mload(0x40)\n      tag_102\n      swap2\n      swap1\n      tag_58\n      jump\t// in\n    tag_102:\n      mload(0x40)\n      dup1\n      swap2\n      sub\n      swap1\n      return\n        /* \"@openzeppelin/contracts/token/ERC20/ERC20.sol\":2933:3049  function balanceOf(address account) public view virtual returns (uint256) {... */\n    tag_19:\n      tag_103\n      0x04\n      dup1\n      calldatasize\n      sub\n      dup2\n      add\n      swap1\n      tag_104\n      swap2\n      swap1\n      tag_77\n      jump\t// in\n    tag_104:\n      tag_105\n      jump\t// in\n    tag_103:\n      mload(0x40)\n      tag_106\n      swap2\n      swap1\n      tag_62\n      jump\t// in\n    tag_106:\n      mload(0x40)\n      dup1\n      swap2\n      sub\n      swap1\n      return\n        /* \"@openzeppelin/contracts/access/Ownable.sol\":2293:2394  function renounceOwnership() public virtual onlyOwner {... */\n    tag_20:\n      tag_107\n      tag_108\n      jump\t// in\n    tag_107:\n      stop\n        /* \"@openzeppelin/contracts/token/ERC20/extensions/ERC20Burnable.sol\":1021:1179  function burnFrom(address account, uint256 value) public virtual {... */\n    tag_21:\n      tag_109\n      0x04\n      dup1\n      calldatasize\n      sub\n      dup2\n      add\n      swap1\n      tag_110\n      swap2\n      swap1\n      tag_51\n      jump\t// in\n    tag_110:\n      tag_111\n      jump\t// in\n    tag_109:\n      stop\n        /* \"contracts/TIMBSToken.sol\":7228:7538  function setFarmPool(address _farmPool) external onlyOwner {... */\n    tag_22:\n      tag_112\n      0x04\n      dup1\n      calldatasize\n      sub\n      dup2\n      add\n      swap1\n      tag_113\n      swap2\n      swap1\n      tag_77\n      jump\t// in\n    tag_113:\n      tag_114\n      jump\t// in\n    tag_112:\n      stop\n        /* \"contracts/TIMBSToken.sol\":2937:2986  mapping(address => bool) public transferWhitelist */\n    tag_23:\n      tag_115\n      0x04\n      dup1\n      calldatasize\n      sub\n      dup2\n      add\n      swap1\n      tag_116\n      swap2\n      swap1\n      tag_77\n      jump\t// in\n    tag_116:\n      tag_117\n      jump\t// in\n    tag_115:\n      mload(0x40)\n      tag_118\n      swap2\n      swap1\n      tag_54\n      jump\t// in\n    tag_118:\n      mload(0x40)\n      dup1\n      swap2\n      sub\n      swap1\n      return\n        /* \"contracts/TIMBSToken.sol\":10917:11075  function entryCostETH() external pure returns (uint256) {... */\n    tag_24:\n      tag_119\n      tag_120\n      jump\t// in\n    tag_119:\n      mload(0x40)\n      tag_121\n      swap2\n      swap1\n      tag_62\n      jump\t// in\n    tag_121:\n      mload(0x40)\n      dup1\n      swap2\n      sub\n      swap1\n      return\n        /* \"contracts/TIMBSToken.sol\":9042:9141  function pause() external onlyOwner {... */\n    tag_25:\n      tag_122\n      tag_123\n      jump\t// in\n    tag_122:\n      stop\n        /* \"contracts/TIMBSToken.sol\":8471:8616  function setMaxTransferAmount(uint256 _max) external onlyOwner {... */\n    tag_26:\n      tag_124\n      0x04\n      dup1\n      calldatasize\n      sub\n      dup2\n      add\n      swap1\n      tag_125\n      swap2\n      swap1\n      tag_65\n      jump\t// in\n    tag_125:\n      tag_126\n      jump\t// in\n    tag_124:\n      stop\n        /* \"@openzeppelin/contracts/access/Ownable.sol\":1638:1723  function owner() public view virtual returns (address) {... */\n    tag_27:\n      tag_127\n      tag_128\n      jump\t// in\n    tag_127:\n      mload(0x40)\n      tag_129\n      swap2\n      swap1\n      tag_58\n      jump\t// in\n    tag_129:\n      mload(0x40)\n      dup1\n      swap2\n      sub\n      swap1\n      return\n        /* \"@openzeppelin/contracts/token/ERC20/ERC20.sol\":1962:2055  function symbol() public view virtual returns (string memory) {... */\n    tag_28:\n      tag_130\n      tag_131\n      jump\t// in\n    tag_130:\n      mload(0x40)\n      tag_132\n      swap2\n      swap1\n      tag_48\n      jump\t// in\n    tag_132:\n      mload(0x40)\n      dup1\n      swap2\n      sub\n      swap1\n      return\n        /* \"contracts/TIMBSToken.sol\":7766:7923  function setEmissionRate(uint256 _ratePerDay) external onlyOwner {... */\n    tag_29:\n      tag_133\n      0x04\n      dup1\n      calldatasize\n      sub\n      dup2\n      add\n      swap1\n      tag_134\n      swap2\n      swap1\n      tag_65\n      jump\t// in\n    tag_134:\n      tag_135\n      jump\t// in\n    tag_133:\n      stop\n        /* \"@openzeppelin/contracts/token/ERC20/ERC20.sol\":3244:3422  function transfer(address to, uint256 value) public virtual returns (bool) {... */\n    tag_30:\n      tag_136\n      0x04\n      dup1\n      calldatasize\n      sub\n      dup2\n      add\n      swap1\n      tag_137\n      swap2\n      swap1\n      tag_51\n      jump\t// in\n    tag_137:\n      tag_138\n      jump\t// in\n    tag_136:\n      mload(0x40)\n      tag_139\n      swap2\n      swap1\n      tag_54\n      jump\t// in\n    tag_139:\n      mload(0x40)\n      dup1\n      swap2\n      sub\n      swap1\n      return\n        /* \"contracts/TIMBSToken.sol\":2817:2849  uint256 public maxTransferAmount */\n    tag_31:\n      tag_140\n      tag_141\n      jump\t// in\n    tag_140:\n      mload(0x40)\n      tag_142\n      swap2\n      swap1\n      tag_62\n      jump\t// in\n    tag_142:\n      mload(0x40)\n      dup1\n      swap2\n      sub\n      swap1\n      return\n        /* \"contracts/TIMBSToken.sol\":10557:10675  function remainingEmissionsCapacity() external view returns (uint256) {... */\n    tag_32:\n      tag_143\n      tag_144\n      jump\t// in\n    tag_143:\n      mload(0x40)\n      tag_145\n      swap2\n      swap1\n      tag_62\n      jump\t// in\n    tag_145:\n      mload(0x40)\n      dup1\n      swap2\n      sub\n      swap1\n      return\n        /* \"contracts/TIMBSToken.sol\":2398:2421  address public farmPool */\n    tag_33:\n      tag_146\n      tag_147\n      jump\t// in\n    tag_146:\n      mload(0x40)\n      tag_148\n      swap2\n      swap1\n      tag_58\n      jump\t// in\n    tag_148:\n      mload(0x40)\n      dup1\n      swap2\n      sub\n      swap1\n      return\n        /* \"@openzeppelin/contracts/token/ERC20/ERC20.sol\":3455:3595  function allowance(address owner, address spender) public view virtual returns (uint256) {... */\n    tag_34:\n      tag_149\n      0x04\n      dup1\n      calldatasize\n      sub\n      dup2\n      add\n      swap1\n      tag_150\n      swap2\n      swap1\n      tag_151\n      jump\t// in\n    tag_150:\n      tag_152\n      jump\t// in\n    tag_149:\n      mload(0x40)\n      tag_153\n      swap2\n      swap1\n      tag_62\n      jump\t// in\n    tag_153:\n      mload(0x40)\n      dup1\n      swap2\n      sub\n      swap1\n      return\n        /* \"contracts/TIMBSToken.sol\":8707:8958  function setTransferWhitelist(address _account, bool _exempt) external onlyOwner {... */\n    tag_35:\n      tag_154\n      0x04\n      dup1\n      calldatasize\n      sub\n      dup2\n      add\n      swap1\n      tag_155\n      swap2\n      swap1\n      tag_156\n      jump\t// in\n    tag_155:\n      tag_157\n      jump\t// in\n    tag_154:\n      stop\n        /* \"contracts/TIMBSToken.sol\":6329:6625  function setTreasury(address _treasury) external onlyOwner {... */\n    tag_36:\n      tag_158\n      0x04\n      dup1\n      calldatasize\n      sub\n      dup2\n      add\n      swap1\n      tag_159\n      swap2\n      swap1\n      tag_77\n      jump\t// in\n    tag_159:\n      tag_160\n      jump\t// in\n    tag_158:\n      stop\n        /* \"@openzeppelin/contracts/access/Ownable.sol\":2543:2758  function transferOwnership(address newOwner) public virtual onlyOwner {... */\n    tag_37:\n      tag_161\n      0x04\n      dup1\n      calldatasize\n      sub\n      dup2\n      add\n      swap1\n      tag_162\n      swap2\n      swap1\n      tag_77\n      jump\t// in\n    tag_162:\n      tag_163\n      jump\t// in\n    tag_161:\n      stop\n        /* \"@openzeppelin/contracts/token/ERC20/ERC20.sol\":1760:1849  function name() public view virtual returns (string memory) {... */\n    tag_46:\n        /* \"@openzeppelin/contracts/token/ERC20/ERC20.sol\":1805:1818  string memory */\n      0x60\n        /* \"@openzeppelin/contracts/token/ERC20/ERC20.sol\":1837:1842  _name */\n      0x03\n        /* \"@openzeppelin/contracts/token/ERC20/ERC20.sol\":1830:1842  return _name */\n      dup1\n      sload\n      tag_165\n      swap1\n      tag_166\n      jump\t// in\n    tag_165:\n      dup1\n      0x1f\n      add\n      0x20\n      dup1\n      swap2\n      div\n      mul\n      0x20\n      add\n      mload(0x40)\n      swap1\n      dup2\n      add\n      0x40\n      mstore\n      dup1\n      swap3\n      swap2\n      swap1\n      dup2\n      dup2\n      mstore\n      0x20\n      add\n      dup3\n      dup1\n      sload\n      tag_167\n      swap1\n      tag_166\n      jump\t// in\n    tag_167:\n      dup1\n      iszero\n      tag_168\n      jumpi\n      dup1\n      0x1f\n      lt\n      tag_169\n      jumpi\n      0x0100\n      dup1\n      dup4\n      sload\n      div\n      mul\n      dup4\n      mstore\n      swap2\n      0x20\n      add\n      swap2\n      jump(tag_168)\n    tag_169:\n      dup3\n      add\n      swap2\n      swap1\n      0x00\n      mstore\n      keccak256(0x00, 0x20)\n      swap1\n    tag_170:\n      dup2\n      sload\n      dup2\n      mstore\n      swap1\n      0x01\n      add\n      swap1\n      0x20\n      add\n      dup1\n      dup4\n      gt\n      tag_170\n      jumpi\n      dup3\n      swap1\n      sub\n      0x1f\n      and\n      dup3\n      add\n      swap2\n    tag_168:\n      pop\n      pop\n      pop\n      pop\n      pop\n      swap1\n      pop\n        /* \"@openzeppelin/contracts/token/ERC20/ERC20.sol\":1760:1849  function name() public view virtual returns (string memory) {... */\n      swap1\n      jump\t// out\n        /* \"@openzeppelin/contracts/token/ERC20/ERC20.sol\":3902:4088  function approve(address spender, uint256 value) public virtual returns (bool) {... */\n    tag_52:\n        /* \"@openzeppelin/contracts/token/ERC20/ERC20.sol\":3975:3979  bool */\n      0x00\n        /* \"@openzeppelin/contracts/token/ERC20/ERC20.sol\":3991:4004  address owner */\n      dup1\n        /* \"@openzeppelin/contracts/token/ERC20/ERC20.sol\":4007:4019  _msgSender() */\n      tag_172\n        /* \"@openzeppelin/contracts/token/ERC20/ERC20.sol\":4007:4017  _msgSender */\n      tag_173\n        /* \"@openzeppelin/contracts/token/ERC20/ERC20.sol\":4007:4019  _msgSender() */\n      jump\t// in\n    tag_172:\n        /* \"@openzeppelin/contracts/token/ERC20/ERC20.sol\":3991:4019  address owner = _msgSender() */\n      swap1\n      pop\n        /* \"@openzeppelin/contracts/token/ERC20/ERC20.sol\":4029:4060  _approve(owner, spender, value) */\n      tag_174\n        /* \"@openzeppelin/contracts/token/ERC20/ERC20.sol\":4038:4043  owner */\n      dup2\n        /* \"@openzeppelin/contracts/token/ERC20/ERC20.sol\":4045:4052  spender */\n      dup6\n        /* \"@openzeppelin/contracts/token/ERC20/ERC20.sol\":4054:4059  value */\n      dup6\n        /* \"@openzeppelin/contracts/token/ERC20/ERC20.sol\":4029:4037  _approve */\n      tag_175\n        /* \"@openzeppelin/contracts/token/ERC20/ERC20.sol\":4029:4060  _approve(owner, spender, value) */\n      jump\t// in\n    tag_174:\n        /* \"@openzeppelin/contracts/token/ERC20/ERC20.sol\":4077:4081  true */\n      0x01\n        /* \"@openzeppelin/contracts/token/ERC20/ERC20.sol\":4070:4081  return true */\n      swap2\n      pop\n      pop\n        /* \"@openzeppelin/contracts/token/ERC20/ERC20.sol\":3902:4088  function approve(address spender, uint256 value) public virtual returns (bool) {... */\n      swap3\n      swap2\n      pop\n      pop\n      jump\t// out\n        /* \"contracts/TIMBSToken.sol\":2285:2311  address public stakingPool */\n    tag_56:\n      0x07\n      0x00\n      swap1\n      sload\n      swap1\n      0x0100\n      exp\n      swap1\n      div\n      0xffffffffffffffffffffffffffffffffffffffff\n      and\n      dup2\n      jump\t// out\n        /* \"@openzeppelin/contracts/token/ERC20/ERC20.sol\":2803:2900  function totalSupply() public view virtual returns (uint256) {... */\n    tag_60:\n        /* \"@openzeppelin/contracts/token/ERC20/ERC20.sol\":2855:2862  uint256 */\n      0x00\n        /* \"@openzeppelin/contracts/token/ERC20/ERC20.sol\":2881:2893  _totalSupply */\n      sload(0x02)\n        /* \"@openzeppelin/contracts/token/ERC20/ERC20.sol\":2874:2893  return _totalSupply */\n      swap1\n      pop\n        /* \"@openzeppelin/contracts/token/ERC20/ERC20.sol\":2803:2900  function totalSupply() public view virtual returns (uint256) {... */\n      swap1\n      jump\t// out\n        /* \"contracts/TIMBSToken.sol\":8166:8365  function setEntryCostTIMBS(uint256 _cost) external onlyOwner {... */\n    tag_66:\n        /* \"@openzeppelin/contracts/access/Ownable.sol\":1531:1544  _checkOwner() */\n      tag_178\n        /* \"@openzeppelin/contracts/access/Ownable.sol\":1531:1542  _checkOwner */\n      tag_179\n        /* \"@openzeppelin/contracts/access/Ownable.sol\":1531:1544  _checkOwner() */\n      jump\t// in\n    tag_178:\n        /* \"contracts/TIMBSToken.sol\":8250:8251  0 */\n      0x00\n        /* \"contracts/TIMBSToken.sol\":8241:8246  _cost */\n      dup2\n        /* \"contracts/TIMBSToken.sol\":8241:8251  _cost == 0 */\n      sub\n        /* \"contracts/TIMBSToken.sol\":8237:8272  if (_cost == 0) revert ZeroAmount() */\n      tag_181\n      jumpi\n        /* \"contracts/TIMBSToken.sol\":8260:8272  ZeroAmount() */\n      mload(0x40)\n      0x1f2a200500000000000000000000000000000000000000000000000000000000\n      dup2\n      mstore\n      0x04\n      add\n      mload(0x40)\n      dup1\n      swap2\n      sub\n      swap1\n      revert\n        /* \"contracts/TIMBSToken.sol\":8237:8272  if (_cost == 0) revert ZeroAmount() */\n    tag_181:\n        /* \"contracts/TIMBSToken.sol\":8287:8326  EntryCostUpdated(entryCostTIMBS, _cost) */\n      0x5299e127ac8bdc64fd0e551dd406ba1e1fbaebc96d458ce9b1a5e69caecdf376\n        /* \"contracts/TIMBSToken.sol\":8304:8318  entryCostTIMBS */\n      sload(0x0a)\n        /* \"contracts/TIMBSToken.sol\":8320:8325  _cost */\n      dup3\n        /* \"contracts/TIMBSToken.sol\":8287:8326  EntryCostUpdated(entryCostTIMBS, _cost) */\n      mload(0x40)\n      tag_182\n      swap3\n      swap2\n      swap1\n      tag_183\n      jump\t// in\n    tag_182:\n      mload(0x40)\n      dup1\n      swap2\n      sub\n      swap1\n      log1\n        /* \"contracts/TIMBSToken.sol\":8353:8358  _cost */\n      dup1\n        /* \"contracts/TIMBSToken.sol\":8336:8350  entryCostTIMBS */\n      0x0a\n        /* \"contracts/TIMBSToken.sol\":8336:8358  entryCostTIMBS = _cost */\n      dup2\n      swap1\n      sstore\n      pop\n        /* \"contracts/TIMBSToken.sol\":8166:8365  function setEntryCostTIMBS(uint256 _cost) external onlyOwner {... */\n      pop\n      jump\t// out\n        /* \"@openzeppelin/contracts/token/ERC20/ERC20.sol\":4680:4924  function transferFrom(address from, address to, uint256 value) public virtual returns (bool) {... */\n    tag_70:\n        /* \"@openzeppelin/contracts/token/ERC20/ERC20.sol\":4767:4771  bool */\n      0x00\n        /* \"@openzeppelin/contracts/token/ERC20/ERC20.sol\":4783:4798  address spender */\n      dup1\n        /* \"@openzeppelin/contracts/token/ERC20/ERC20.sol\":4801:4813  _msgSender() */\n      tag_185\n        /* \"@openzeppelin/contracts/token/ERC20/ERC20.sol\":4801:4811  _msgSender */\n      tag_173\n        /* \"@openzeppelin/contracts/token/ERC20/ERC20.sol\":4801:4813  _msgSender() */\n      jump\t// in\n    tag_185:\n        /* \"@openzeppelin/contracts/token/ERC20/ERC20.sol\":4783:4813  address spender = _msgSender() */\n      swap1\n      pop\n        /* \"@openzeppelin/contracts/token/ERC20/ERC20.sol\":4823:4860  _spendAllowance(from, spender, value) */\n      tag_186\n        /* \"@openzeppelin/contracts/token/ERC20/ERC20.sol\":4839:4843  from */\n      dup6\n        /* \"@openzeppelin/contracts/token/ERC20/ERC20.sol\":4845:4852  spender */\n      dup3\n        /* \"@openzeppelin/contracts/token/ERC20/ERC20.sol\":4854:4859  value */\n      dup6\n        /* \"@openzeppelin/contracts/token/ERC20/ERC20.sol\":4823:4838  _spendAllowance */\n      tag_187\n        /* \"@openzeppelin/contracts/token/ERC20/ERC20.sol\":4823:4860  _spendAllowance(from, spender, value) */\n      jump\t// in\n    tag_186:\n        /* \"@openzeppelin/contracts/token/ERC20/ERC20.sol\":4870:4896  _transfer(from, to, value) */\n      tag_188\n        /* \"@openzeppelin/contracts/token/ERC20/ERC20.sol\":4880:4884  from */\n      dup6\n        /* \"@openzeppelin/contracts/token/ERC20/ERC20.sol\":4886:4888  to */\n      dup6\n        /* \"@openzeppelin/contracts/token/ERC20/ERC20.sol\":4890:4895  value */\n      dup6\n        /* \"@openzeppelin/contracts/token/ERC20/ERC20.sol\":4870:4879  _transfer */\n      tag_189\n        /* \"@openzeppelin/contracts/token/ERC20/ERC20.sol\":4870:4896  _transfer(from, to, value) */\n      jump\t// in\n    tag_188:\n        /* \"@openzeppelin/contracts/token/ERC20/ERC20.sol\":4913:4917  true */\n      0x01\n        /* \"@openzeppelin/contracts/token/ERC20/ERC20.sol\":4906:4917  return true */\n      swap2\n      pop\n      pop\n        /* \"@openzeppelin/contracts/token/ERC20/ERC20.sol\":4680:4924  function transferFrom(address from, address to, uint256 value) public virtual returns (bool) {... */\n      swap4\n      swap3\n      pop\n      pop\n      pop\n      jump\t// out\n        /* \"contracts/TIMBSToken.sol\":9815:10259  function mintEmissions(address recipient, uint256 amount)... */\n    tag_74:\n        /* \"@openzeppelin/contracts/utils/ReentrancyGuard.sol\":3023:3044  _nonReentrantBefore() */\n      tag_191\n        /* \"@openzeppelin/contracts/utils/ReentrancyGuard.sol\":3023:3042  _nonReentrantBefore */\n      tag_192\n        /* \"@openzeppelin/contracts/utils/ReentrancyGuard.sol\":3023:3044  _nonReentrantBefore() */\n      jump\t// in\n    tag_191:\n        /* \"contracts/TIMBSToken.sol\":4666:4677  stakingPool */\n      0x07\n      0x00\n      swap1\n      sload\n      swap1\n      0x0100\n      exp\n      swap1\n      div\n      0xffffffffffffffffffffffffffffffffffffffff\n      and\n        /* \"contracts/TIMBSToken.sol\":4652:4677  msg.sender != stakingPool */\n      0xffffffffffffffffffffffffffffffffffffffff\n      and\n        /* \"contracts/TIMBSToken.sol\":4652:4662  msg.sender */\n      caller\n        /* \"contracts/TIMBSToken.sol\":4652:4677  msg.sender != stakingPool */\n      0xffffffffffffffffffffffffffffffffffffffff\n      and\n      eq\n      iszero\n        /* \"contracts/TIMBSToken.sol\":4652:4703  msg.sender != stakingPool && msg.sender != farmPool */\n      dup1\n      iszero\n      tag_194\n      jumpi\n      pop\n        /* \"contracts/TIMBSToken.sol\":4695:4703  farmPool */\n      0x08\n      0x00\n      swap1\n      sload\n      swap1\n      0x0100\n      exp\n      swap1\n      div\n      0xffffffffffffffffffffffffffffffffffffffff\n      and\n        /* \"contracts/TIMBSToken.sol\":4681:4703  msg.sender != farmPool */\n      0xffffffffffffffffffffffffffffffffffffffff\n      and\n        /* \"contracts/TIMBSToken.sol\":4681:4691  msg.sender */\n      caller\n        /* \"contracts/TIMBSToken.sol\":4681:4703  msg.sender != farmPool */\n      0xffffffffffffffffffffffffffffffffffffffff\n      and\n      eq\n      iszero\n        /* \"contracts/TIMBSToken.sol\":4652:4703  msg.sender != stakingPool && msg.sender != farmPool */\n    tag_194:\n        /* \"contracts/TIMBSToken.sol\":4652:4728  msg.sender != stakingPool && msg.sender != farmPool && msg.sender != owner() */\n      dup1\n      iszero\n      tag_195\n      jumpi\n      pop\n        /* \"contracts/TIMBSToken.sol\":4721:4728  owner() */\n      tag_196\n        /* \"contracts/TIMBSToken.sol\":4721:4726  owner */\n      tag_128\n        /* \"contracts/TIMBSToken.sol\":4721:4728  owner() */\n      jump\t// in\n    tag_196:\n        /* \"contracts/TIMBSToken.sol\":4707:4728  msg.sender != owner() */\n      0xffffffffffffffffffffffffffffffffffffffff\n      and\n        /* \"contracts/TIMBSToken.sol\":4707:4717  msg.sender */\n      caller\n        /* \"contracts/TIMBSToken.sol\":4707:4728  msg.sender != owner() */\n      0xffffffffffffffffffffffffffffffffffffffff\n      and\n      eq\n      iszero\n        /* \"contracts/TIMBSToken.sol\":4652:4728  msg.sender != stakingPool && msg.sender != farmPool && msg.sender != owner() */\n    tag_195:\n        /* \"contracts/TIMBSToken.sol\":4648:4783  if (msg.sender != stakingPool && msg.sender != farmPool && msg.sender != owner()) {... */\n      iszero\n      tag_197\n      jumpi\n        /* \"contracts/TIMBSToken.sol\":4751:4772  NotAuthorizedMinter() */\n      mload(0x40)\n      0xcd2e8e8000000000000000000000000000000000000000000000000000000000\n      dup2\n      mstore\n      0x04\n      add\n      mload(0x40)\n      dup1\n      swap2\n      sub\n      swap1\n      revert\n        /* \"contracts/TIMBSToken.sol\":4648:4783  if (msg.sender != stakingPool && msg.sender != farmPool && msg.sender != owner()) {... */\n    tag_197:\n        /* \"contracts/TIMBSToken.sol\":9969:9970  0 */\n      0x00\n        /* \"contracts/TIMBSToken.sol\":9948:9971  recipient == address(0) */\n      0xffffffffffffffffffffffffffffffffffffffff\n      and\n        /* \"contracts/TIMBSToken.sol\":9948:9957  recipient */\n      dup3\n        /* \"contracts/TIMBSToken.sol\":9948:9971  recipient == address(0) */\n      0xffffffffffffffffffffffffffffffffffffffff\n      and\n      sub\n        /* \"contracts/TIMBSToken.sol\":9944:9993  if (recipient == address(0)) revert ZeroAddress() */\n      tag_199\n      jumpi\n        /* \"contracts/TIMBSToken.sol\":9980:9993  ZeroAddress() */\n      mload(0x40)\n      0xd92e233d00000000000000000000000000000000000000000000000000000000\n      dup2\n      mstore\n      0x04\n      add\n      mload(0x40)\n      dup1\n      swap2\n      sub\n      swap1\n      revert\n        /* \"contracts/TIMBSToken.sol\":9944:9993  if (recipient == address(0)) revert ZeroAddress() */\n    tag_199:\n        /* \"contracts/TIMBSToken.sol\":10017:10018  0 */\n      0x00\n        /* \"contracts/TIMBSToken.sol\":10007:10013  amount */\n      dup2\n        /* \"contracts/TIMBSToken.sol\":10007:10018  amount == 0 */\n      sub\n        /* \"contracts/TIMBSToken.sol\":10003:10039  if (amount == 0) revert ZeroAmount() */\n      tag_200\n      jumpi\n        /* \"contracts/TIMBSToken.sol\":10027:10039  ZeroAmount() */\n      mload(0x40)\n      0x1f2a200500000000000000000000000000000000000000000000000000000000\n      dup2\n      mstore\n      0x04\n      add\n      mload(0x40)\n      dup1\n      swap2\n      sub\n      swap1\n      revert\n        /* \"contracts/TIMBSToken.sol\":10003:10039  if (amount == 0) revert ZeroAmount() */\n    tag_200:\n        /* \"contracts/TIMBSToken.sol\":10050:10067  uint256 available */\n      0x00\n        /* \"contracts/TIMBSToken.sol\":10081:10094  totalSupply() */\n      tag_201\n        /* \"contracts/TIMBSToken.sol\":10081:10092  totalSupply */\n      tag_60\n        /* \"contracts/TIMBSToken.sol\":10081:10094  totalSupply() */\n      jump\t// in\n    tag_201:\n        /* \"contracts/TIMBSToken.sol\":1834:1852  100_000_000 * 1e18 */\n      0x52b7d2dcc80cd2e4000000\n        /* \"contracts/TIMBSToken.sol\":10070:10094  HARD_CAP - totalSupply() */\n      tag_202\n      swap2\n      swap1\n      tag_203\n      jump\t// in\n    tag_202:\n        /* \"contracts/TIMBSToken.sol\":10050:10094  uint256 available = HARD_CAP - totalSupply() */\n      swap1\n      pop\n        /* \"contracts/TIMBSToken.sol\":10117:10126  available */\n      dup1\n        /* \"contracts/TIMBSToken.sol\":10108:10114  amount */\n      dup3\n        /* \"contracts/TIMBSToken.sol\":10108:10126  amount > available */\n      gt\n        /* \"contracts/TIMBSToken.sol\":10104:10168  if (amount > available) revert ExceedsHardCap(amount, available) */\n      iszero\n      tag_204\n      jumpi\n        /* \"contracts/TIMBSToken.sol\":10150:10156  amount */\n      dup2\n        /* \"contracts/TIMBSToken.sol\":10158:10167  available */\n      dup2\n        /* \"contracts/TIMBSToken.sol\":10135:10168  ExceedsHardCap(amount, available) */\n      mload(0x40)\n      0x7333416e00000000000000000000000000000000000000000000000000000000\n      dup2\n      mstore\n      0x04\n      add\n      tag_205\n      swap3\n      swap2\n      swap1\n      tag_183\n      jump\t// in\n    tag_205:\n      mload(0x40)\n      dup1\n      swap2\n      sub\n      swap1\n      revert\n        /* \"contracts/TIMBSToken.sol\":10104:10168  if (amount > available) revert ExceedsHardCap(amount, available) */\n    tag_204:\n        /* \"contracts/TIMBSToken.sol\":10179:10203  _mint(recipient, amount) */\n      tag_206\n        /* \"contracts/TIMBSToken.sol\":10185:10194  recipient */\n      dup4\n        /* \"contracts/TIMBSToken.sol\":10196:10202  amount */\n      dup4\n        /* \"contracts/TIMBSToken.sol\":10179:10184  _mint */\n      tag_207\n        /* \"contracts/TIMBSToken.sol\":10179:10203  _mint(recipient, amount) */\n      jump\t// in\n    tag_206:\n        /* \"contracts/TIMBSToken.sol\":10234:10243  recipient */\n      dup3\n        /* \"contracts/TIMBSToken.sol\":10218:10252  EmissionsMinted(recipient, amount) */\n      0xffffffffffffffffffffffffffffffffffffffff\n      and\n      0x64e4bb1bd66f16486c6ff3bf1e7ee4919e2e2dc7b134e2ed9fbd814a9949fe6b\n        /* \"contracts/TIMBSToken.sol\":10245:10251  amount */\n      dup4\n        /* \"contracts/TIMBSToken.sol\":10218:10252  EmissionsMinted(recipient, amount) */\n      mload(0x40)\n      tag_208\n      swap2\n      swap1\n      tag_62\n      jump\t// in\n    tag_208:\n      mload(0x40)\n      dup1\n      swap2\n      sub\n      swap1\n      log2\n        /* \"contracts/TIMBSToken.sol\":9934:10259  {... */\n      pop\n        /* \"@openzeppelin/contracts/utils/ReentrancyGuard.sol\":3065:3085  _nonReentrantAfter() */\n      tag_209\n        /* \"@openzeppelin/contracts/utils/ReentrancyGuard.sol\":3065:3083  _nonReentrantAfter */\n      tag_210\n        /* \"@openzeppelin/contracts/utils/ReentrancyGuard.sol\":3065:3085  _nonReentrantAfter() */\n      jump\t// in\n    tag_209:\n        /* \"contracts/TIMBSToken.sol\":9815:10259  function mintEmissions(address recipient, uint256 amount)... */\n      pop\n      pop\n      jump\t// out\n        /* \"contracts/TIMBSToken.sol\":6732:7121  function setStakingPool(address _stakingPool) external onlyOwner {... */\n    tag_78:\n        /* \"@openzeppelin/contracts/access/Ownable.sol\":1531:1544  _checkOwner() */\n      tag_212\n        /* \"@openzeppelin/contracts/access/Ownable.sol\":1531:1542  _checkOwner */\n      tag_179\n        /* \"@openzeppelin/contracts/access/Ownable.sol\":1531:1544  _checkOwner() */\n      jump\t// in\n    tag_212:\n        /* \"contracts/TIMBSToken.sol\":6835:6836  0 */\n      0x00\n        /* \"contracts/TIMBSToken.sol\":6811:6837  _stakingPool == address(0) */\n      0xffffffffffffffffffffffffffffffffffffffff\n      and\n        /* \"contracts/TIMBSToken.sol\":6811:6823  _stakingPool */\n      dup2\n        /* \"contracts/TIMBSToken.sol\":6811:6837  _stakingPool == address(0) */\n      0xffffffffffffffffffffffffffffffffffffffff\n      and\n      sub\n        /* \"contracts/TIMBSToken.sol\":6807:6859  if (_stakingPool == address(0)) revert ZeroAddress() */\n      tag_214\n      jumpi\n        /* \"contracts/TIMBSToken.sol\":6846:6859  ZeroAddress() */\n      mload(0x40)\n      0xd92e233d00000000000000000000000000000000000000000000000000000000\n      dup2\n      mstore\n      0x04\n      add\n      mload(0x40)\n      dup1\n      swap2\n      sub\n      swap1\n      revert\n        /* \"contracts/TIMBSToken.sol\":6807:6859  if (_stakingPool == address(0)) revert ZeroAddress() */\n    tag_214:\n        /* \"contracts/TIMBSToken.sol\":6945:6946  0 */\n      0x00\n        /* \"contracts/TIMBSToken.sol\":6922:6947  stakingPool != address(0) */\n      0xffffffffffffffffffffffffffffffffffffffff\n      and\n        /* \"contracts/TIMBSToken.sol\":6922:6933  stakingPool */\n      0x07\n      0x00\n      swap1\n      sload\n      swap1\n      0x0100\n      exp\n      swap1\n      div\n      0xffffffffffffffffffffffffffffffffffffffff\n      and\n        /* \"contracts/TIMBSToken.sol\":6922:6947  stakingPool != address(0) */\n      0xffffffffffffffffffffffffffffffffffffffff\n      and\n      eq\n        /* \"contracts/TIMBSToken.sol\":6918:6987  if (stakingPool != address(0)) transferWhitelist[stakingPool] = false */\n      tag_215\n      jumpi\n        /* \"contracts/TIMBSToken.sol\":6982:6987  false */\n      0x00\n        /* \"contracts/TIMBSToken.sol\":6949:6966  transferWhitelist */\n      0x0c\n        /* \"contracts/TIMBSToken.sol\":6949:6979  transferWhitelist[stakingPool] */\n      0x00\n        /* \"contracts/TIMBSToken.sol\":6967:6978  stakingPool */\n      0x07\n      0x00\n      swap1\n      sload\n      swap1\n      0x0100\n      exp\n      swap1\n      div\n      0xffffffffffffffffffffffffffffffffffffffff\n      and\n        /* \"contracts/TIMBSToken.sol\":6949:6979  transferWhitelist[stakingPool] */\n      0xffffffffffffffffffffffffffffffffffffffff\n      and\n      0xffffffffffffffffffffffffffffffffffffffff\n      and\n      dup2\n      mstore\n      0x20\n      add\n      swap1\n      dup2\n      mstore\n      0x20\n      add\n      0x00\n      keccak256\n      0x00\n        /* \"contracts/TIMBSToken.sol\":6949:6987  transferWhitelist[stakingPool] = false */\n      0x0100\n      exp\n      dup2\n      sload\n      dup2\n      0xff\n      mul\n      not\n      and\n      swap1\n      dup4\n      iszero\n      iszero\n      mul\n      or\n      swap1\n      sstore\n      pop\n        /* \"contracts/TIMBSToken.sol\":6918:6987  if (stakingPool != address(0)) transferWhitelist[stakingPool] = false */\n    tag_215:\n        /* \"contracts/TIMBSToken.sol\":7011:7023  _stakingPool */\n      dup1\n        /* \"contracts/TIMBSToken.sol\":6997:7008  stakingPool */\n      0x07\n      0x00\n        /* \"contracts/TIMBSToken.sol\":6997:7023  stakingPool = _stakingPool */\n      0x0100\n      exp\n      dup2\n      sload\n      dup2\n      0xffffffffffffffffffffffffffffffffffffffff\n      mul\n      not\n      and\n      swap1\n      dup4\n      0xffffffffffffffffffffffffffffffffffffffff\n      and\n      mul\n      or\n      swap1\n      sstore\n      pop\n        /* \"contracts/TIMBSToken.sol\":7067:7071  true */\n      0x01\n        /* \"contracts/TIMBSToken.sol\":7033:7050  transferWhitelist */\n      0x0c\n        /* \"contracts/TIMBSToken.sol\":7033:7064  transferWhitelist[_stakingPool] */\n      0x00\n        /* \"contracts/TIMBSToken.sol\":7051:7063  _stakingPool */\n      dup4\n        /* \"contracts/TIMBSToken.sol\":7033:7064  transferWhitelist[_stakingPool] */\n      0xffffffffffffffffffffffffffffffffffffffff\n      and\n      0xffffffffffffffffffffffffffffffffffffffff\n      and\n      dup2\n      mstore\n      0x20\n      add\n      swap1\n      dup2\n      mstore\n      0x20\n      add\n      0x00\n      keccak256\n      0x00\n        /* \"contracts/TIMBSToken.sol\":7033:7071  transferWhitelist[_stakingPool] = true */\n      0x0100\n      exp\n      dup2\n      sload\n      dup2\n      0xff\n      mul\n      not\n      and\n      swap1\n      dup4\n      iszero\n      iszero\n      mul\n      or\n      swap1\n      sstore\n      pop\n        /* \"contracts/TIMBSToken.sol\":7101:7113  _stakingPool */\n      dup1\n        /* \"contracts/TIMBSToken.sol\":7086:7114  StakingPoolSet(_stakingPool) */\n      0xffffffffffffffffffffffffffffffffffffffff\n      and\n      0x6fca2e06bb34845f84427e65445730e7e00faf72ad37f6485b24de98f103bb06\n      mload(0x40)\n      mload(0x40)\n      dup1\n      swap2\n      sub\n      swap1\n      log2\n        /* \"contracts/TIMBSToken.sol\":6732:7121  function setStakingPool(address _stakingPool) external onlyOwner {... */\n      pop\n      jump\t// out\n        /* \"@openzeppelin/contracts/token/ERC20/ERC20.sol\":2688:2770  function decimals() public view virtual returns (uint8) {... */\n    tag_80:\n        /* \"@openzeppelin/contracts/token/ERC20/ERC20.sol\":2737:2742  uint8 */\n      0x00\n        /* \"@openzeppelin/contracts/token/ERC20/ERC20.sol\":2761:2763  18 */\n      0x12\n        /* \"@openzeppelin/contracts/token/ERC20/ERC20.sol\":2754:2763  return 18 */\n      swap1\n      pop\n        /* \"@openzeppelin/contracts/token/ERC20/ERC20.sol\":2688:2770  function decimals() public view virtual returns (uint8) {... */\n      swap1\n      jump\t// out\n        /* \"contracts/TIMBSToken.sol\":1799:1852  uint256 public constant HARD_CAP = 100_000_000 * 1e18 */\n    tag_84:\n        /* \"contracts/TIMBSToken.sol\":1834:1852  100_000_000 * 1e18 */\n      0x52b7d2dcc80cd2e4000000\n        /* \"contracts/TIMBSToken.sol\":1799:1852  uint256 public constant HARD_CAP = 100_000_000 * 1e18 */\n      dup2\n      jump\t// out\n        /* \"contracts/TIMBSToken.sol\":9203:9307  function unpause() external onlyOwner {... */\n    tag_87:\n        /* \"@openzeppelin/contracts/access/Ownable.sol\":1531:1544  _checkOwner() */\n      tag_218\n        /* \"@openzeppelin/contracts/access/Ownable.sol\":1531:1542  _checkOwner */\n      tag_179\n        /* \"@openzeppelin/contracts/access/Ownable.sol\":1531:1544  _checkOwner() */\n      jump\t// in\n    tag_218:\n        /* \"contracts/TIMBSToken.sol\":9260:9265  false */\n      0x00\n        /* \"contracts/TIMBSToken.sol\":9251:9257  paused */\n      0x0d\n      0x00\n        /* \"contracts/TIMBSToken.sol\":9251:9265  paused = false */\n      0x0100\n      exp\n      dup2\n      sload\n      dup2\n      0xff\n      mul\n      not\n      and\n      swap1\n      dup4\n      iszero\n      iszero\n      mul\n      or\n      swap1\n      sstore\n      pop\n        /* \"contracts/TIMBSToken.sol\":9289:9299  msg.sender */\n      caller\n        /* \"contracts/TIMBSToken.sol\":9280:9300  Unpaused(msg.sender) */\n      0xffffffffffffffffffffffffffffffffffffffff\n      and\n      0x5db9ee0a495bf2e6ff9c91a7834c1ba4fdd244a5e8aa4e537bd38aeae4b073aa\n      mload(0x40)\n      mload(0x40)\n      dup1\n      swap2\n      sub\n      swap1\n      log2\n        /* \"contracts/TIMBSToken.sol\":9203:9307  function unpause() external onlyOwner {... */\n      jump\t// out\n        /* \"contracts/TIMBSToken.sol\":2518:2551  uint256 public emissionRatePerDay */\n    tag_89:\n      sload(0x09)\n      dup2\n      jump\t// out\n        /* \"@openzeppelin/contracts/token/ERC20/extensions/ERC20Burnable.sol\":618:705  function burn(uint256 value) public virtual {... */\n    tag_93:\n        /* \"@openzeppelin/contracts/token/ERC20/extensions/ERC20Burnable.sol\":672:698  _burn(_msgSender(), value) */\n      tag_221\n        /* \"@openzeppelin/contracts/token/ERC20/extensions/ERC20Burnable.sol\":678:690  _msgSender() */\n      tag_222\n        /* \"@openzeppelin/contracts/token/ERC20/extensions/ERC20Burnable.sol\":678:688  _msgSender */\n      tag_173\n        /* \"@openzeppelin/contracts/token/ERC20/extensions/ERC20Burnable.sol\":678:690  _msgSender() */\n      jump\t// in\n    tag_222:\n        /* \"@openzeppelin/contracts/token/ERC20/extensions/ERC20Burnable.sol\":692:697  value */\n      dup3\n        /* \"@openzeppelin/contracts/token/ERC20/extensions/ERC20Burnable.sol\":672:677  _burn */\n      tag_223\n        /* \"@openzeppelin/contracts/token/ERC20/extensions/ERC20Burnable.sol\":672:698  _burn(_msgSender(), value) */\n      jump\t// in\n    tag_221:\n        /* \"@openzeppelin/contracts/token/ERC20/extensions/ERC20Burnable.sol\":618:705  function burn(uint256 value) public virtual {... */\n      pop\n      jump\t// out\n        /* \"contracts/TIMBSToken.sol\":2699:2728  uint256 public entryCostTIMBS */\n    tag_95:\n      sload(0x0a)\n      dup2\n      jump\t// out\n        /* \"contracts/TIMBSToken.sol\":3064:3082  bool public paused */\n    tag_98:\n      0x0d\n      0x00\n      swap1\n      sload\n      swap1\n      0x0100\n      exp\n      swap1\n      div\n      0xff\n      and\n      dup2\n      jump\t// out\n        /* \"contracts/TIMBSToken.sol\":2177:2200  address public treasury */\n    tag_101:\n      0x06\n      0x00\n      swap1\n      sload\n      swap1\n      0x0100\n      exp\n      swap1\n      div\n      0xffffffffffffffffffffffffffffffffffffffff\n      and\n      dup2\n      jump\t// out\n        /* \"@openzeppelin/contracts/token/ERC20/ERC20.sol\":2933:3049  function balanceOf(address account) public view virtual returns (uint256) {... */\n    tag_105:\n        /* \"@openzeppelin/contracts/token/ERC20/ERC20.sol\":2998:3005  uint256 */\n      0x00\n        /* \"@openzeppelin/contracts/token/ERC20/ERC20.sol\":3024:3033  _balances */\n      dup1\n        /* \"@openzeppelin/contracts/token/ERC20/ERC20.sol\":3024:3042  _balances[account] */\n      0x00\n        /* \"@openzeppelin/contracts/token/ERC20/ERC20.sol\":3034:3041  account */\n      dup4\n        /* \"@openzeppelin/contracts/token/ERC20/ERC20.sol\":3024:3042  _balances[account] */\n      0xffffffffffffffffffffffffffffffffffffffff\n      and\n      0xffffffffffffffffffffffffffffffffffffffff\n      and\n      dup2\n      mstore\n      0x20\n      add\n      swap1\n      dup2\n      mstore\n      0x20\n      add\n      0x00\n      keccak256\n      sload\n        /* \"@openzeppelin/contracts/token/ERC20/ERC20.sol\":3017:3042  return _balances[account] */\n      swap1\n      pop\n        /* \"@openzeppelin/contracts/token/ERC20/ERC20.sol\":2933:3049  function balanceOf(address account) public view virtual returns (uint256) {... */\n      swap2\n      swap1\n      pop\n      jump\t// out\n        /* \"@openzeppelin/contracts/access/Ownable.sol\":2293:2394  function renounceOwnership() public virtual onlyOwner {... */\n    tag_108:\n        /* \"@openzeppelin/contracts/access/Ownable.sol\":1531:1544  _checkOwner() */\n      tag_226\n        /* \"@openzeppelin/contracts/access/Ownable.sol\":1531:1542  _checkOwner */\n      tag_179\n        /* \"@openzeppelin/contracts/access/Ownable.sol\":1531:1544  _checkOwner() */\n      jump\t// in\n    tag_226:\n        /* \"@openzeppelin/contracts/access/Ownable.sol\":2357:2387  _transferOwnership(address(0)) */\n      tag_228\n        /* \"@openzeppelin/contracts/access/Ownable.sol\":2384:2385  0 */\n      0x00\n        /* \"@openzeppelin/contracts/access/Ownable.sol\":2357:2375  _transferOwnership */\n      tag_229\n        /* \"@openzeppelin/contracts/access/Ownable.sol\":2357:2387  _transferOwnership(address(0)) */\n      jump\t// in\n    tag_228:\n        /* \"@openzeppelin/contracts/access/Ownable.sol\":2293:2394  function renounceOwnership() public virtual onlyOwner {... */\n      jump\t// out\n        /* \"@openzeppelin/contracts/token/ERC20/extensions/ERC20Burnable.sol\":1021:1179  function burnFrom(address account, uint256 value) public virtual {... */\n    tag_111:\n        /* \"@openzeppelin/contracts/token/ERC20/extensions/ERC20Burnable.sol\":1096:1141  _spendAllowance(account, _msgSender(), value) */\n      tag_231\n        /* \"@openzeppelin/contracts/token/ERC20/extensions/ERC20Burnable.sol\":1112:1119  account */\n      dup3\n        /* \"@openzeppelin/contracts/token/ERC20/extensions/ERC20Burnable.sol\":1121:1133  _msgSender() */\n      tag_232\n        /* \"@openzeppelin/contracts/token/ERC20/extensions/ERC20Burnable.sol\":1121:1131  _msgSender */\n      tag_173\n        /* \"@openzeppelin/contracts/token/ERC20/extensions/ERC20Burnable.sol\":1121:1133  _msgSender() */\n      jump\t// in\n    tag_232:\n        /* \"@openzeppelin/contracts/token/ERC20/extensions/ERC20Burnable.sol\":1135:1140  value */\n      dup4\n        /* \"@openzeppelin/contracts/token/ERC20/extensions/ERC20Burnable.sol\":1096:1111  _spendAllowance */\n      tag_187\n        /* \"@openzeppelin/contracts/token/ERC20/extensions/ERC20Burnable.sol\":1096:1141  _spendAllowance(account, _msgSender(), value) */\n      jump\t// in\n    tag_231:\n        /* \"@openzeppelin/contracts/token/ERC20/extensions/ERC20Burnable.sol\":1151:1172  _burn(account, value) */\n      tag_233\n        /* \"@openzeppelin/contracts/token/ERC20/extensions/ERC20Burnable.sol\":1157:1164  account */\n      dup3\n        /* \"@openzeppelin/contracts/token/ERC20/extensions/ERC20Burnable.sol\":1166:1171  value */\n      dup3\n        /* \"@openzeppelin/contracts/token/ERC20/extensions/ERC20Burnable.sol\":1151:1156  _burn */\n      tag_223\n        /* \"@openzeppelin/contracts/token/ERC20/extensions/ERC20Burnable.sol\":1151:1172  _burn(account, value) */\n      jump\t// in\n    tag_233:\n        /* \"@openzeppelin/contracts/token/ERC20/extensions/ERC20Burnable.sol\":1021:1179  function burnFrom(address account, uint256 value) public virtual {... */\n      pop\n      pop\n      jump\t// out\n        /* \"contracts/TIMBSToken.sol\":7228:7538  function setFarmPool(address _farmPool) external onlyOwner {... */\n    tag_114:\n        /* \"@openzeppelin/contracts/access/Ownable.sol\":1531:1544  _checkOwner() */\n      tag_235\n        /* \"@openzeppelin/contracts/access/Ownable.sol\":1531:1542  _checkOwner */\n      tag_179\n        /* \"@openzeppelin/contracts/access/Ownable.sol\":1531:1544  _checkOwner() */\n      jump\t// in\n    tag_235:\n        /* \"contracts/TIMBSToken.sol\":7322:7323  0 */\n      0x00\n        /* \"contracts/TIMBSToken.sol\":7301:7324  _farmPool == address(0) */\n      0xffffffffffffffffffffffffffffffffffffffff\n      and\n        /* \"contracts/TIMBSToken.sol\":7301:7310  _farmPool */\n      dup2\n        /* \"contracts/TIMBSToken.sol\":7301:7324  _farmPool == address(0) */\n      0xffffffffffffffffffffffffffffffffffffffff\n      and\n      sub\n        /* \"contracts/TIMBSToken.sol\":7297:7346  if (_farmPool == address(0)) revert ZeroAddress() */\n      tag_237\n      jumpi\n        /* \"contracts/TIMBSToken.sol\":7333:7346  ZeroAddress() */\n      mload(0x40)\n      0xd92e233d00000000000000000000000000000000000000000000000000000000\n      dup2\n      mstore\n      0x04\n      add\n      mload(0x40)\n      dup1\n      swap2\n      sub\n      swap1\n      revert\n        /* \"contracts/TIMBSToken.sol\":7297:7346  if (_farmPool == address(0)) revert ZeroAddress() */\n    tag_237:\n        /* \"contracts/TIMBSToken.sol\":7380:7381  0 */\n      0x00\n        /* \"contracts/TIMBSToken.sol\":7360:7382  farmPool != address(0) */\n      0xffffffffffffffffffffffffffffffffffffffff\n      and\n        /* \"contracts/TIMBSToken.sol\":7360:7368  farmPool */\n      0x08\n      0x00\n      swap1\n      sload\n      swap1\n      0x0100\n      exp\n      swap1\n      div\n      0xffffffffffffffffffffffffffffffffffffffff\n      and\n        /* \"contracts/TIMBSToken.sol\":7360:7382  farmPool != address(0) */\n      0xffffffffffffffffffffffffffffffffffffffff\n      and\n      eq\n        /* \"contracts/TIMBSToken.sol\":7356:7419  if (farmPool != address(0)) transferWhitelist[farmPool] = false */\n      tag_238\n      jumpi\n        /* \"contracts/TIMBSToken.sol\":7414:7419  false */\n      0x00\n        /* \"contracts/TIMBSToken.sol\":7384:7401  transferWhitelist */\n      0x0c\n        /* \"contracts/TIMBSToken.sol\":7384:7411  transferWhitelist[farmPool] */\n      0x00\n        /* \"contracts/TIMBSToken.sol\":7402:7410  farmPool */\n      0x08\n      0x00\n      swap1\n      sload\n      swap1\n      0x0100\n      exp\n      swap1\n      div\n      0xffffffffffffffffffffffffffffffffffffffff\n      and\n        /* \"contracts/TIMBSToken.sol\":7384:7411  transferWhitelist[farmPool] */\n      0xffffffffffffffffffffffffffffffffffffffff\n      and\n      0xffffffffffffffffffffffffffffffffffffffff\n      and\n      dup2\n      mstore\n      0x20\n      add\n      swap1\n      dup2\n      mstore\n      0x20\n      add\n      0x00\n      keccak256\n      0x00\n        /* \"contracts/TIMBSToken.sol\":7384:7419  transferWhitelist[farmPool] = false */\n      0x0100\n      exp\n      dup2\n      sload\n      dup2\n      0xff\n      mul\n      not\n      and\n      swap1\n      dup4\n      iszero\n      iszero\n      mul\n      or\n      swap1\n      sstore\n      pop\n        /* \"contracts/TIMBSToken.sol\":7356:7419  if (farmPool != address(0)) transferWhitelist[farmPool] = false */\n    tag_238:\n        /* \"contracts/TIMBSToken.sol\":7440:7449  _farmPool */\n      dup1\n        /* \"contracts/TIMBSToken.sol\":7429:7437  farmPool */\n      0x08\n      0x00\n        /* \"contracts/TIMBSToken.sol\":7429:7449  farmPool = _farmPool */\n      0x0100\n      exp\n      dup2\n      sload\n      dup2\n      0xffffffffffffffffffffffffffffffffffffffff\n      mul\n      not\n      and\n      swap1\n      dup4\n      0xffffffffffffffffffffffffffffffffffffffff\n      and\n      mul\n      or\n      swap1\n      sstore\n      pop\n        /* \"contracts/TIMBSToken.sol\":7490:7494  true */\n      0x01\n        /* \"contracts/TIMBSToken.sol\":7459:7476  transferWhitelist */\n      0x0c\n        /* \"contracts/TIMBSToken.sol\":7459:7487  transferWhitelist[_farmPool] */\n      0x00\n        /* \"contracts/TIMBSToken.sol\":7477:7486  _farmPool */\n      dup4\n        /* \"contracts/TIMBSToken.sol\":7459:7487  transferWhitelist[_farmPool] */\n      0xffffffffffffffffffffffffffffffffffffffff\n      and\n      0xffffffffffffffffffffffffffffffffffffffff\n      and\n      dup2\n      mstore\n      0x20\n      add\n      swap1\n      dup2\n      mstore\n      0x20\n      add\n      0x00\n      keccak256\n      0x00\n        /* \"contracts/TIMBSToken.sol\":7459:7494  transferWhitelist[_farmPool] = true */\n      0x0100\n      exp\n      dup2\n      sload\n      dup2\n      0xff\n      mul\n      not\n      and\n      swap1\n      dup4\n      iszero\n      iszero\n      mul\n      or\n      swap1\n      sstore\n      pop\n        /* \"contracts/TIMBSToken.sol\":7521:7530  _farmPool */\n      dup1\n        /* \"contracts/TIMBSToken.sol\":7509:7531  FarmPoolSet(_farmPool) */\n      0xffffffffffffffffffffffffffffffffffffffff\n      and\n      0x0984594d51cb2b9061c64322cc955dc1cf1e8bf0f73512ba8221e4db196be16a\n      mload(0x40)\n      mload(0x40)\n      dup1\n      swap2\n      sub\n      swap1\n      log2\n        /* \"contracts/TIMBSToken.sol\":7228:7538  function setFarmPool(address _farmPool) external onlyOwner {... */\n      pop\n      jump\t// out\n        /* \"contracts/TIMBSToken.sol\":2937:2986  mapping(address => bool) public transferWhitelist */\n    tag_117:\n      mstore(0x20, 0x0c)\n      dup1\n      0x00\n      mstore\n      keccak256(0x00, 0x40)\n      0x00\n      swap2\n      pop\n      sload\n      swap1\n      0x0100\n      exp\n      swap1\n      div\n      0xff\n      and\n      dup2\n      jump\t// out\n        /* \"contracts/TIMBSToken.sol\":10917:11075  function entryCostETH() external pure returns (uint256) {... */\n    tag_120:\n        /* \"contracts/TIMBSToken.sol\":10964:10971  uint256 */\n      0x00\n        /* \"contracts/TIMBSToken.sol\":10917:11075  function entryCostETH() external pure returns (uint256) {... */\n      swap1\n      jump\t// out\n        /* \"contracts/TIMBSToken.sol\":9042:9141  function pause() external onlyOwner {... */\n    tag_123:\n        /* \"@openzeppelin/contracts/access/Ownable.sol\":1531:1544  _checkOwner() */\n      tag_241\n        /* \"@openzeppelin/contracts/access/Ownable.sol\":1531:1542  _checkOwner */\n      tag_179\n        /* \"@openzeppelin/contracts/access/Ownable.sol\":1531:1544  _checkOwner() */\n      jump\t// in\n    tag_241:\n        /* \"contracts/TIMBSToken.sol\":9097:9101  true */\n      0x01\n        /* \"contracts/TIMBSToken.sol\":9088:9094  paused */\n      0x0d\n      0x00\n        /* \"contracts/TIMBSToken.sol\":9088:9101  paused = true */\n      0x0100\n      exp\n      dup2\n      sload\n      dup2\n      0xff\n      mul\n      not\n      and\n      swap1\n      dup4\n      iszero\n      iszero\n      mul\n      or\n      swap1\n      sstore\n      pop\n        /* \"contracts/TIMBSToken.sol\":9123:9133  msg.sender */\n      caller\n        /* \"contracts/TIMBSToken.sol\":9116:9134  Paused(msg.sender) */\n      0xffffffffffffffffffffffffffffffffffffffff\n      and\n      0x62e78cea01bee320cd4e420270b5ea74000d11b0c9f74754ebdbfc544b05a258\n      mload(0x40)\n      mload(0x40)\n      dup1\n      swap2\n      sub\n      swap1\n      log2\n        /* \"contracts/TIMBSToken.sol\":9042:9141  function pause() external onlyOwner {... */\n      jump\t// out\n        /* \"contracts/TIMBSToken.sol\":8471:8616  function setMaxTransferAmount(uint256 _max) external onlyOwner {... */\n    tag_126:\n        /* \"@openzeppelin/contracts/access/Ownable.sol\":1531:1544  _checkOwner() */\n      tag_244\n        /* \"@openzeppelin/contracts/access/Ownable.sol\":1531:1542  _checkOwner */\n      tag_179\n        /* \"@openzeppelin/contracts/access/Ownable.sol\":1531:1544  _checkOwner() */\n      jump\t// in\n    tag_244:\n        /* \"contracts/TIMBSToken.sol\":8564:8568  _max */\n      dup1\n        /* \"contracts/TIMBSToken.sol\":8544:8561  maxTransferAmount */\n      0x0b\n        /* \"contracts/TIMBSToken.sol\":8544:8568  maxTransferAmount = _max */\n      dup2\n      swap1\n      sstore\n      pop\n        /* \"contracts/TIMBSToken.sol\":8583:8609  MaxTransferAmountSet(_max) */\n      0xd82d7466dbfb0b68291841d1adf74df365a848cd534d11e8c6b238ec9fb5ebe6\n        /* \"contracts/TIMBSToken.sol\":8604:8608  _max */\n      dup2\n        /* \"contracts/TIMBSToken.sol\":8583:8609  MaxTransferAmountSet(_max) */\n      mload(0x40)\n      tag_246\n      swap2\n      swap1\n      tag_62\n      jump\t// in\n    tag_246:\n      mload(0x40)\n      dup1\n      swap2\n      sub\n      swap1\n      log1\n        /* \"contracts/TIMBSToken.sol\":8471:8616  function setMaxTransferAmount(uint256 _max) external onlyOwner {... */\n      pop\n      jump\t// out\n        /* \"@openzeppelin/contracts/access/Ownable.sol\":1638:1723  function owner() public view virtual returns (address) {... */\n    tag_128:\n        /* \"@openzeppelin/contracts/access/Ownable.sol\":1684:1691  address */\n      0x00\n        /* \"@openzeppelin/contracts/access/Ownable.sol\":1710:1716  _owner */\n      0x05\n      0x00\n      swap1\n      sload\n      swap1\n      0x0100\n      exp\n      swap1\n      div\n      0xffffffffffffffffffffffffffffffffffffffff\n      and\n        /* \"@openzeppelin/contracts/access/Ownable.sol\":1703:1716  return _owner */\n      swap1\n      pop\n        /* \"@openzeppelin/contracts/access/Ownable.sol\":1638:1723  function owner() public view virtual returns (address) {... */\n      swap1\n      jump\t// out\n        /* \"@openzeppelin/contracts/token/ERC20/ERC20.sol\":1962:2055  function symbol() public view virtual returns (string memory) {... */\n    tag_131:\n        /* \"@openzeppelin/contracts/token/ERC20/ERC20.sol\":2009:2022  string memory */\n      0x60\n        /* \"@openzeppelin/contracts/token/ERC20/ERC20.sol\":2041:2048  _symbol */\n      0x04\n        /* \"@openzeppelin/contracts/token/ERC20/ERC20.sol\":2034:2048  return _symbol */\n      dup1\n      sload\n      tag_249\n      swap1\n      tag_166\n      jump\t// in\n    tag_249:\n      dup1\n      0x1f\n      add\n      0x20\n      dup1\n      swap2\n      div\n      mul\n      0x20\n      add\n      mload(0x40)\n      swap1\n      dup2\n      add\n      0x40\n      mstore\n      dup1\n      swap3\n      swap2\n      swap1\n      dup2\n      dup2\n      mstore\n      0x20\n      add\n      dup3\n      dup1\n      sload\n      tag_250\n      swap1\n      tag_166\n      jump\t// in\n    tag_250:\n      dup1\n      iszero\n      tag_251\n      jumpi\n      dup1\n      0x1f\n      lt\n      tag_252\n      jumpi\n      0x0100\n      dup1\n      dup4\n      sload\n      div\n      mul\n      dup4\n      mstore\n      swap2\n      0x20\n      add\n      swap2\n      jump(tag_251)\n    tag_252:\n      dup3\n      add\n      swap2\n      swap1\n      0x00\n      mstore\n      keccak256(0x00, 0x20)\n      swap1\n    tag_253:\n      dup2\n      sload\n      dup2\n      mstore\n      swap1\n      0x01\n      add\n      swap1\n      0x20\n      add\n      dup1\n      dup4\n      gt\n      tag_253\n      jumpi\n      dup3\n      swap1\n      sub\n      0x1f\n      and\n      dup3\n      add\n      swap2\n    tag_251:\n      pop\n      pop\n      pop\n      pop\n      pop\n      swap1\n      pop\n        /* \"@openzeppelin/contracts/token/ERC20/ERC20.sol\":1962:2055  function symbol() public view virtual returns (string memory) {... */\n      swap1\n      jump\t// out\n        /* \"contracts/TIMBSToken.sol\":7766:7923  function setEmissionRate(uint256 _ratePerDay) external onlyOwner {... */\n    tag_135:\n        /* \"@openzeppelin/contracts/access/Ownable.sol\":1531:1544  _checkOwner() */\n      tag_255\n        /* \"@openzeppelin/contracts/access/Ownable.sol\":1531:1542  _checkOwner */\n      tag_179\n        /* \"@openzeppelin/contracts/access/Ownable.sol\":1531:1544  _checkOwner() */\n      jump\t// in\n    tag_255:\n        /* \"contracts/TIMBSToken.sol\":7862:7873  _ratePerDay */\n      dup1\n        /* \"contracts/TIMBSToken.sol\":7841:7859  emissionRatePerDay */\n      0x09\n        /* \"contracts/TIMBSToken.sol\":7841:7873  emissionRatePerDay = _ratePerDay */\n      dup2\n      swap1\n      sstore\n      pop\n        /* \"contracts/TIMBSToken.sol\":7888:7916  EmissionRateSet(_ratePerDay) */\n      0x010a8b7cb1faab491acf8e175333e56c4bf4ad24ae1927dc38925ac085085f71\n        /* \"contracts/TIMBSToken.sol\":7904:7915  _ratePerDay */\n      dup2\n        /* \"contracts/TIMBSToken.sol\":7888:7916  EmissionRateSet(_ratePerDay) */\n      mload(0x40)\n      tag_257\n      swap2\n      swap1\n      tag_62\n      jump\t// in\n    tag_257:\n      mload(0x40)\n      dup1\n      swap2\n      sub\n      swap1\n      log1\n        /* \"contracts/TIMBSToken.sol\":7766:7923  function setEmissionRate(uint256 _ratePerDay) external onlyOwner {... */\n      pop\n      jump\t// out\n        /* \"@openzeppelin/contracts/token/ERC20/ERC20.sol\":3244:3422  function transfer(address to, uint256 value) public virtual returns (bool) {... */\n    tag_138:\n        /* \"@openzeppelin/contracts/token/ERC20/ERC20.sol\":3313:3317  bool */\n      0x00\n        /* \"@openzeppelin/contracts/token/ERC20/ERC20.sol\":3329:3342  address owner */\n      dup1\n        /* \"@openzeppelin/contracts/token/ERC20/ERC20.sol\":3345:3357  _msgSender() */\n      tag_259\n        /* \"@openzeppelin/contracts/token/ERC20/ERC20.sol\":3345:3355  _msgSender */\n      tag_173\n        /* \"@openzeppelin/contracts/token/ERC20/ERC20.sol\":3345:3357  _msgSender() */\n      jump\t// in\n    tag_259:\n        /* \"@openzeppelin/contracts/token/ERC20/ERC20.sol\":3329:3357  address owner = _msgSender() */\n      swap1\n      pop\n        /* \"@openzeppelin/contracts/token/ERC20/ERC20.sol\":3367:3394  _transfer(owner, to, value) */\n      tag_260\n        /* \"@openzeppelin/contracts/token/ERC20/ERC20.sol\":3377:3382  owner */\n      dup2\n        /* \"@openzeppelin/contracts/token/ERC20/ERC20.sol\":3384:3386  to */\n      dup6\n        /* \"@openzeppelin/contracts/token/ERC20/ERC20.sol\":3388:3393  value */\n      dup6\n        /* \"@openzeppelin/contracts/token/ERC20/ERC20.sol\":3367:3376  _transfer */\n      tag_189\n        /* \"@openzeppelin/contracts/token/ERC20/ERC20.sol\":3367:3394  _transfer(owner, to, value) */\n      jump\t// in\n    tag_260:\n        /* \"@openzeppelin/contracts/token/ERC20/ERC20.sol\":3411:3415  true */\n      0x01\n        /* \"@openzeppelin/contracts/token/ERC20/ERC20.sol\":3404:3415  return true */\n      swap2\n      pop\n      pop\n        /* \"@openzeppelin/contracts/token/ERC20/ERC20.sol\":3244:3422  function transfer(address to, uint256 value) public virtual returns (bool) {... */\n      swap3\n      swap2\n      pop\n      pop\n      jump\t// out\n        /* \"contracts/TIMBSToken.sol\":2817:2849  uint256 public maxTransferAmount */\n    tag_141:\n      sload(0x0b)\n      dup2\n      jump\t// out\n        /* \"contracts/TIMBSToken.sol\":10557:10675  function remainingEmissionsCapacity() external view returns (uint256) {... */\n    tag_144:\n        /* \"contracts/TIMBSToken.sol\":10618:10625  uint256 */\n      0x00\n        /* \"contracts/TIMBSToken.sol\":10655:10668  totalSupply() */\n      tag_262\n        /* \"contracts/TIMBSToken.sol\":10655:10666  totalSupply */\n      tag_60\n        /* \"contracts/TIMBSToken.sol\":10655:10668  totalSupply() */\n      jump\t// in\n    tag_262:\n        /* \"contracts/TIMBSToken.sol\":1834:1852  100_000_000 * 1e18 */\n      0x52b7d2dcc80cd2e4000000\n        /* \"contracts/TIMBSToken.sol\":10644:10668  HARD_CAP - totalSupply() */\n      tag_263\n      swap2\n      swap1\n      tag_203\n      jump\t// in\n    tag_263:\n        /* \"contracts/TIMBSToken.sol\":10637:10668  return HARD_CAP - totalSupply() */\n      swap1\n      pop\n        /* \"contracts/TIMBSToken.sol\":10557:10675  function remainingEmissionsCapacity() external view returns (uint256) {... */\n      swap1\n      jump\t// out\n        /* \"contracts/TIMBSToken.sol\":2398:2421  address public farmPool */\n    tag_147:\n      0x08\n      0x00\n      swap1\n      sload\n      swap1\n      0x0100\n      exp\n      swap1\n      div\n      0xffffffffffffffffffffffffffffffffffffffff\n      and\n      dup2\n      jump\t// out\n        /* \"@openzeppelin/contracts/token/ERC20/ERC20.sol\":3455:3595  function allowance(address owner, address spender) public view virtual returns (uint256) {... */\n    tag_152:\n        /* \"@openzeppelin/contracts/token/ERC20/ERC20.sol\":3535:3542  uint256 */\n      0x00\n        /* \"@openzeppelin/contracts/token/ERC20/ERC20.sol\":3561:3572  _allowances */\n      0x01\n        /* \"@openzeppelin/contracts/token/ERC20/ERC20.sol\":3561:3579  _allowances[owner] */\n      0x00\n        /* \"@openzeppelin/contracts/token/ERC20/ERC20.sol\":3573:3578  owner */\n      dup5\n        /* \"@openzeppelin/contracts/token/ERC20/ERC20.sol\":3561:3579  _allowances[owner] */\n      0xffffffffffffffffffffffffffffffffffffffff\n      and\n      0xffffffffffffffffffffffffffffffffffffffff\n      and\n      dup2\n      mstore\n      0x20\n      add\n      swap1\n      dup2\n      mstore\n      0x20\n      add\n      0x00\n      keccak256\n        /* \"@openzeppelin/contracts/token/ERC20/ERC20.sol\":3561:3588  _allowances[owner][spender] */\n      0x00\n        /* \"@openzeppelin/contracts/token/ERC20/ERC20.sol\":3580:3587  spender */\n      dup4\n        /* \"@openzeppelin/contracts/token/ERC20/ERC20.sol\":3561:3588  _allowances[owner][spender] */\n      0xffffffffffffffffffffffffffffffffffffffff\n      and\n      0xffffffffffffffffffffffffffffffffffffffff\n      and\n      dup2\n      mstore\n      0x20\n      add\n      swap1\n      dup2\n      mstore\n      0x20\n      add\n      0x00\n      keccak256\n      sload\n        /* \"@openzeppelin/contracts/token/ERC20/ERC20.sol\":3554:3588  return _allowances[owner][spender] */\n      swap1\n      pop\n        /* \"@openzeppelin/contracts/token/ERC20/ERC20.sol\":3455:3595  function allowance(address owner, address spender) public view virtual returns (uint256) {... */\n      swap3\n      swap2\n      pop\n      pop\n      jump\t// out\n        /* \"contracts/TIMBSToken.sol\":8707:8958  function setTransferWhitelist(address _account, bool _exempt) external onlyOwner {... */\n    tag_157:\n        /* \"@openzeppelin/contracts/access/Ownable.sol\":1531:1544  _checkOwner() */\n      tag_266\n        /* \"@openzeppelin/contracts/access/Ownable.sol\":1531:1542  _checkOwner */\n      tag_179\n        /* \"@openzeppelin/contracts/access/Ownable.sol\":1531:1544  _checkOwner() */\n      jump\t// in\n    tag_266:\n        /* \"contracts/TIMBSToken.sol\":8822:8823  0 */\n      0x00\n        /* \"contracts/TIMBSToken.sol\":8802:8824  _account == address(0) */\n      0xffffffffffffffffffffffffffffffffffffffff\n      and\n        /* \"contracts/TIMBSToken.sol\":8802:8810  _account */\n      dup3\n        /* \"contracts/TIMBSToken.sol\":8802:8824  _account == address(0) */\n      0xffffffffffffffffffffffffffffffffffffffff\n      and\n      sub\n        /* \"contracts/TIMBSToken.sol\":8798:8846  if (_account == address(0)) revert ZeroAddress() */\n      tag_268\n      jumpi\n        /* \"contracts/TIMBSToken.sol\":8833:8846  ZeroAddress() */\n      mload(0x40)\n      0xd92e233d00000000000000000000000000000000000000000000000000000000\n      dup2\n      mstore\n      0x04\n      add\n      mload(0x40)\n      dup1\n      swap2\n      sub\n      swap1\n      revert\n        /* \"contracts/TIMBSToken.sol\":8798:8846  if (_account == address(0)) revert ZeroAddress() */\n    tag_268:\n        /* \"contracts/TIMBSToken.sol\":8886:8893  _exempt */\n      dup1\n        /* \"contracts/TIMBSToken.sol\":8856:8873  transferWhitelist */\n      0x0c\n        /* \"contracts/TIMBSToken.sol\":8856:8883  transferWhitelist[_account] */\n      0x00\n        /* \"contracts/TIMBSToken.sol\":8874:8882  _account */\n      dup5\n        /* \"contracts/TIMBSToken.sol\":8856:8883  transferWhitelist[_account] */\n      0xffffffffffffffffffffffffffffffffffffffff\n      and\n      0xffffffffffffffffffffffffffffffffffffffff\n      and\n      dup2\n      mstore\n      0x20\n      add\n      swap1\n      dup2\n      mstore\n      0x20\n      add\n      0x00\n      keccak256\n      0x00\n        /* \"contracts/TIMBSToken.sol\":8856:8893  transferWhitelist[_account] = _exempt */\n      0x0100\n      exp\n      dup2\n      sload\n      dup2\n      0xff\n      mul\n      not\n      and\n      swap1\n      dup4\n      iszero\n      iszero\n      mul\n      or\n      swap1\n      sstore\n      pop\n        /* \"contracts/TIMBSToken.sol\":8933:8941  _account */\n      dup2\n        /* \"contracts/TIMBSToken.sol\":8908:8951  TransferWhitelistUpdated(_account, _exempt) */\n      0xffffffffffffffffffffffffffffffffffffffff\n      and\n      0xe3b4918d2544570f4fd920ce69294772100c0d60360c88d94c56fadbbef76cb1\n        /* \"contracts/TIMBSToken.sol\":8943:8950  _exempt */\n      dup3\n        /* \"contracts/TIMBSToken.sol\":8908:8951  TransferWhitelistUpdated(_account, _exempt) */\n      mload(0x40)\n      tag_269\n      swap2\n      swap1\n      tag_54\n      jump\t// in\n    tag_269:\n      mload(0x40)\n      dup1\n      swap2\n      sub\n      swap1\n      log2\n        /* \"contracts/TIMBSToken.sol\":8707:8958  function setTransferWhitelist(address _account, bool _exempt) external onlyOwner {... */\n      pop\n      pop\n      jump\t// out\n        /* \"contracts/TIMBSToken.sol\":6329:6625  function setTreasury(address _treasury) external onlyOwner {... */\n    tag_160:\n        /* \"@openzeppelin/contracts/access/Ownable.sol\":1531:1544  _checkOwner() */\n      tag_271\n        /* \"@openzeppelin/contracts/access/Ownable.sol\":1531:1542  _checkOwner */\n      tag_179\n        /* \"@openzeppelin/contracts/access/Ownable.sol\":1531:1544  _checkOwner() */\n      jump\t// in\n    tag_271:\n        /* \"contracts/TIMBSToken.sol\":6423:6424  0 */\n      0x00\n        /* \"contracts/TIMBSToken.sol\":6402:6425  _treasury == address(0) */\n      0xffffffffffffffffffffffffffffffffffffffff\n      and\n        /* \"contracts/TIMBSToken.sol\":6402:6411  _treasury */\n      dup2\n        /* \"contracts/TIMBSToken.sol\":6402:6425  _treasury == address(0) */\n      0xffffffffffffffffffffffffffffffffffffffff\n      and\n      sub\n        /* \"contracts/TIMBSToken.sol\":6398:6447  if (_treasury == address(0)) revert ZeroAddress() */\n      tag_273\n      jumpi\n        /* \"contracts/TIMBSToken.sol\":6434:6447  ZeroAddress() */\n      mload(0x40)\n      0xd92e233d00000000000000000000000000000000000000000000000000000000\n      dup2\n      mstore\n      0x04\n      add\n      mload(0x40)\n      dup1\n      swap2\n      sub\n      swap1\n      revert\n        /* \"contracts/TIMBSToken.sol\":6398:6447  if (_treasury == address(0)) revert ZeroAddress() */\n    tag_273:\n        /* \"contracts/TIMBSToken.sol\":6487:6492  false */\n      0x00\n        /* \"contracts/TIMBSToken.sol\":6457:6474  transferWhitelist */\n      0x0c\n        /* \"contracts/TIMBSToken.sol\":6457:6484  transferWhitelist[treasury] */\n      0x00\n        /* \"contracts/TIMBSToken.sol\":6475:6483  treasury */\n      0x06\n      0x00\n      swap1\n      sload\n      swap1\n      0x0100\n      exp\n      swap1\n      div\n      0xffffffffffffffffffffffffffffffffffffffff\n      and\n        /* \"contracts/TIMBSToken.sol\":6457:6484  transferWhitelist[treasury] */\n      0xffffffffffffffffffffffffffffffffffffffff\n      and\n      0xffffffffffffffffffffffffffffffffffffffff\n      and\n      dup2\n      mstore\n      0x20\n      add\n      swap1\n      dup2\n      mstore\n      0x20\n      add\n      0x00\n      keccak256\n      0x00\n        /* \"contracts/TIMBSToken.sol\":6457:6492  transferWhitelist[treasury] = false */\n      0x0100\n      exp\n      dup2\n      sload\n      dup2\n      0xff\n      mul\n      not\n      and\n      swap1\n      dup4\n      iszero\n      iszero\n      mul\n      or\n      swap1\n      sstore\n      pop\n        /* \"contracts/TIMBSToken.sol\":6533:6542  _treasury */\n      dup1\n        /* \"contracts/TIMBSToken.sol\":6507:6543  TreasuryUpdated(treasury, _treasury) */\n      0xffffffffffffffffffffffffffffffffffffffff\n      and\n        /* \"contracts/TIMBSToken.sol\":6523:6531  treasury */\n      0x06\n      0x00\n      swap1\n      sload\n      swap1\n      0x0100\n      exp\n      swap1\n      div\n      0xffffffffffffffffffffffffffffffffffffffff\n      and\n        /* \"contracts/TIMBSToken.sol\":6507:6543  TreasuryUpdated(treasury, _treasury) */\n      0xffffffffffffffffffffffffffffffffffffffff\n      and\n      0x4ab5be82436d353e61ca18726e984e561f5c1cc7c6d38b29d2553c790434705a\n      mload(0x40)\n      mload(0x40)\n      dup1\n      swap2\n      sub\n      swap1\n      log3\n        /* \"contracts/TIMBSToken.sol\":6564:6573  _treasury */\n      dup1\n        /* \"contracts/TIMBSToken.sol\":6553:6561  treasury */\n      0x06\n      0x00\n        /* \"contracts/TIMBSToken.sol\":6553:6573  treasury = _treasury */\n      0x0100\n      exp\n      dup2\n      sload\n      dup2\n      0xffffffffffffffffffffffffffffffffffffffff\n      mul\n      not\n      and\n      swap1\n      dup4\n      0xffffffffffffffffffffffffffffffffffffffff\n      and\n      mul\n      or\n      swap1\n      sstore\n      pop\n        /* \"contracts/TIMBSToken.sol\":6614:6618  true */\n      0x01\n        /* \"contracts/TIMBSToken.sol\":6583:6600  transferWhitelist */\n      0x0c\n        /* \"contracts/TIMBSToken.sol\":6583:6611  transferWhitelist[_treasury] */\n      0x00\n        /* \"contracts/TIMBSToken.sol\":6601:6610  _treasury */\n      dup4\n        /* \"contracts/TIMBSToken.sol\":6583:6611  transferWhitelist[_treasury] */\n      0xffffffffffffffffffffffffffffffffffffffff\n      and\n      0xffffffffffffffffffffffffffffffffffffffff\n      and\n      dup2\n      mstore\n      0x20\n      add\n      swap1\n      dup2\n      mstore\n      0x20\n      add\n      0x00\n      keccak256\n      0x00\n        /* \"contracts/TIMBSToken.sol\":6583:6618  transferWhitelist[_treasury] = true */\n      0x0100\n      exp\n      dup2\n      sload\n      dup2\n      0xff\n      mul\n      not\n      and\n      swap1\n      dup4\n      iszero\n      iszero\n      mul\n      or\n      swap1\n      sstore\n      pop\n        /* \"contracts/TIMBSToken.sol\":6329:6625  function setTreasury(address _treasury) external onlyOwner {... */\n      pop\n      jump\t// out\n        /* \"@openzeppelin/contracts/access/Ownable.sol\":2543:2758  function transferOwnership(address newOwner) public virtual onlyOwner {... */\n    tag_163:\n        /* \"@openzeppelin/contracts/access/Ownable.sol\":1531:1544  _checkOwner() */\n      tag_275\n        /* \"@openzeppelin/contracts/access/Ownable.sol\":1531:1542  _checkOwner */\n      tag_179\n        /* \"@openzeppelin/contracts/access/Ownable.sol\":1531:1544  _checkOwner() */\n      jump\t// in\n    tag_275:\n        /* \"@openzeppelin/contracts/access/Ownable.sol\":2647:2648  0 */\n      0x00\n        /* \"@openzeppelin/contracts/access/Ownable.sol\":2627:2649  newOwner == address(0) */\n      0xffffffffffffffffffffffffffffffffffffffff\n      and\n        /* \"@openzeppelin/contracts/access/Ownable.sol\":2627:2635  newOwner */\n      dup2\n        /* \"@openzeppelin/contracts/access/Ownable.sol\":2627:2649  newOwner == address(0) */\n      0xffffffffffffffffffffffffffffffffffffffff\n      and\n      sub\n        /* \"@openzeppelin/contracts/access/Ownable.sol\":2623:2714  if (newOwner == address(0)) {... */\n      tag_277\n      jumpi\n        /* \"@openzeppelin/contracts/access/Ownable.sol\":2700:2701  0 */\n      0x00\n        /* \"@openzeppelin/contracts/access/Ownable.sol\":2672:2703  OwnableInvalidOwner(address(0)) */\n      mload(0x40)\n      0x1e4fbdf700000000000000000000000000000000000000000000000000000000\n      dup2\n      mstore\n      0x04\n      add\n      tag_278\n      swap2\n      swap1\n      tag_58\n      jump\t// in\n    tag_278:\n      mload(0x40)\n      dup1\n      swap2\n      sub\n      swap1\n      revert\n        /* \"@openzeppelin/contracts/access/Ownable.sol\":2623:2714  if (newOwner == address(0)) {... */\n    tag_277:\n        /* \"@openzeppelin/contracts/access/Ownable.sol\":2723:2751  _transferOwnership(newOwner) */\n      tag_279\n        /* \"@openzeppelin/contracts/access/Ownable.sol\":2742:2750  newOwner */\n      dup2\n        /* \"@openzeppelin/contracts/access/Ownable.sol\":2723:2741  _transferOwnership */\n      tag_229\n        /* \"@openzeppelin/contracts/access/Ownable.sol\":2723:2751  _transferOwnership(newOwner) */\n      jump\t// in\n    tag_279:\n        /* \"@openzeppelin/contracts/access/Ownable.sol\":2543:2758  function transferOwnership(address newOwner) public virtual onlyOwner {... */\n      pop\n      jump\t// out\n        /* \"@openzeppelin/contracts/utils/Context.sol\":656:752  function _msgSender() internal view virtual returns (address) {... */\n    tag_173:\n        /* \"@openzeppelin/contracts/utils/Context.sol\":709:716  address */\n      0x00\n        /* \"@openzeppelin/contracts/utils/Context.sol\":735:745  msg.sender */\n      caller\n        /* \"@openzeppelin/contracts/utils/Context.sol\":728:745  return msg.sender */\n      swap1\n      pop\n        /* \"@openzeppelin/contracts/utils/Context.sol\":656:752  function _msgSender() internal view virtual returns (address) {... */\n      swap1\n      jump\t// out\n        /* \"@openzeppelin/contracts/token/ERC20/ERC20.sol\":8630:8758  function _approve(address owner, address spender, uint256 value) internal {... */\n    tag_175:\n        /* \"@openzeppelin/contracts/token/ERC20/ERC20.sol\":8714:8751  _approve(owner, spender, value, true) */\n      tag_282\n        /* \"@openzeppelin/contracts/token/ERC20/ERC20.sol\":8723:8728  owner */\n      dup4\n        /* \"@openzeppelin/contracts/token/ERC20/ERC20.sol\":8730:8737  spender */\n      dup4\n        /* \"@openzeppelin/contracts/token/ERC20/ERC20.sol\":8739:8744  value */\n      dup4\n        /* \"@openzeppelin/contracts/token/ERC20/ERC20.sol\":8746:8750  true */\n      0x01\n        /* \"@openzeppelin/contracts/token/ERC20/ERC20.sol\":8714:8722  _approve */\n      tag_283\n        /* \"@openzeppelin/contracts/token/ERC20/ERC20.sol\":8714:8751  _approve(owner, spender, value, true) */\n      jump\t// in\n    tag_282:\n        /* \"@openzeppelin/contracts/token/ERC20/ERC20.sol\":8630:8758  function _approve(address owner, address spender, uint256 value) internal {... */\n      pop\n      pop\n      pop\n      jump\t// out\n        /* \"@openzeppelin/contracts/access/Ownable.sol\":1796:1958  function _checkOwner() internal view virtual {... */\n    tag_179:\n        /* \"@openzeppelin/contracts/access/Ownable.sol\":1866:1878  _msgSender() */\n      tag_285\n        /* \"@openzeppelin/contracts/access/Ownable.sol\":1866:1876  _msgSender */\n      tag_173\n        /* \"@openzeppelin/contracts/access/Ownable.sol\":1866:1878  _msgSender() */\n      jump\t// in\n    tag_285:\n        /* \"@openzeppelin/contracts/access/Ownable.sol\":1855:1878  owner() != _msgSender() */\n      0xffffffffffffffffffffffffffffffffffffffff\n      and\n        /* \"@openzeppelin/contracts/access/Ownable.sol\":1855:1862  owner() */\n      tag_286\n        /* \"@openzeppelin/contracts/access/Ownable.sol\":1855:1860  owner */\n      tag_128\n        /* \"@openzeppelin/contracts/access/Ownable.sol\":1855:1862  owner() */\n      jump\t// in\n    tag_286:\n        /* \"@openzeppelin/contracts/access/Ownable.sol\":1855:1878  owner() != _msgSender() */\n      0xffffffffffffffffffffffffffffffffffffffff\n      and\n      eq\n        /* \"@openzeppelin/contracts/access/Ownable.sol\":1851:1952  if (owner() != _msgSender()) {... */\n      tag_287\n      jumpi\n        /* \"@openzeppelin/contracts/access/Ownable.sol\":1928:1940  _msgSender() */\n      tag_288\n        /* \"@openzeppelin/contracts/access/Ownable.sol\":1928:1938  _msgSender */\n      tag_173\n        /* \"@openzeppelin/contracts/access/Ownable.sol\":1928:1940  _msgSender() */\n      jump\t// in\n    tag_288:\n        /* \"@openzeppelin/contracts/access/Ownable.sol\":1901:1941  OwnableUnauthorizedAccount(_msgSender()) */\n      mload(0x40)\n      0x118cdaa700000000000000000000000000000000000000000000000000000000\n      dup2\n      mstore\n      0x04\n      add\n      tag_289\n      swap2\n      swap1\n      tag_58\n      jump\t// in\n    tag_289:\n      mload(0x40)\n      dup1\n      swap2\n      sub\n      swap1\n      revert\n        /* \"@openzeppelin/contracts/access/Ownable.sol\":1851:1952  if (owner() != _msgSender()) {... */\n    tag_287:\n        /* \"@openzeppelin/contracts/access/Ownable.sol\":1796:1958  function _checkOwner() internal view virtual {... */\n      jump\t// out\n        /* \"@openzeppelin/contracts/token/ERC20/ERC20.sol\":10321:10797  function _spendAllowance(address owner, address spender, uint256 value) internal virtual {... */\n    tag_187:\n        /* \"@openzeppelin/contracts/token/ERC20/ERC20.sol\":10420:10444  uint256 currentAllowance */\n      0x00\n        /* \"@openzeppelin/contracts/token/ERC20/ERC20.sol\":10447:10472  allowance(owner, spender) */\n      tag_291\n        /* \"@openzeppelin/contracts/token/ERC20/ERC20.sol\":10457:10462  owner */\n      dup5\n        /* \"@openzeppelin/contracts/token/ERC20/ERC20.sol\":10464:10471  spender */\n      dup5\n        /* \"@openzeppelin/contracts/token/ERC20/ERC20.sol\":10447:10456  allowance */\n      tag_152\n        /* \"@openzeppelin/contracts/token/ERC20/ERC20.sol\":10447:10472  allowance(owner, spender) */\n      jump\t// in\n    tag_291:\n        /* \"@openzeppelin/contracts/token/ERC20/ERC20.sol\":10420:10472  uint256 currentAllowance = allowance(owner, spender) */\n      swap1\n      pop\n        /* \"@openzeppelin/contracts/token/ERC20/ERC20.sol\":10505:10522  type(uint256).max */\n      0xffffffffffffffffffffffffffffffffffffffffffffffffffffffffffffffff\n        /* \"@openzeppelin/contracts/token/ERC20/ERC20.sol\":10486:10502  currentAllowance */\n      dup2\n        /* \"@openzeppelin/contracts/token/ERC20/ERC20.sol\":10486:10522  currentAllowance < type(uint256).max */\n      lt\n        /* \"@openzeppelin/contracts/token/ERC20/ERC20.sol\":10482:10791  if (currentAllowance < type(uint256).max) {... */\n      iszero\n      tag_292\n      jumpi\n        /* \"@openzeppelin/contracts/token/ERC20/ERC20.sol\":10561:10566  value */\n      dup2\n        /* \"@openzeppelin/contracts/token/ERC20/ERC20.sol\":10542:10558  currentAllowance */\n      dup2\n        /* \"@openzeppelin/contracts/token/ERC20/ERC20.sol\":10542:10566  currentAllowance < value */\n      lt\n        /* \"@openzeppelin/contracts/token/ERC20/ERC20.sol\":10538:10668  if (currentAllowance < value) {... */\n      iszero\n      tag_293\n      jumpi\n        /* \"@openzeppelin/contracts/token/ERC20/ERC20.sol\":10620:10627  spender */\n      dup3\n        /* \"@openzeppelin/contracts/token/ERC20/ERC20.sol\":10629:10645  currentAllowance */\n      dup2\n        /* \"@openzeppelin/contracts/token/ERC20/ERC20.sol\":10647:10652  value */\n      dup4\n        /* \"@openzeppelin/contracts/token/ERC20/ERC20.sol\":10593:10653  ERC20InsufficientAllowance(spender, currentAllowance, value) */\n      mload(0x40)\n      0xfb8f41b200000000000000000000000000000000000000000000000000000000\n      dup2\n      mstore\n      0x04\n      add\n      tag_294\n      swap4\n      swap3\n      swap2\n      swap1\n      tag_295\n      jump\t// in\n    tag_294:\n      mload(0x40)\n      dup1\n      swap2\n      sub\n      swap1\n      revert\n        /* \"@openzeppelin/contracts/token/ERC20/ERC20.sol\":10538:10668  if (currentAllowance < value) {... */\n    tag_293:\n        /* \"@openzeppelin/contracts/token/ERC20/ERC20.sol\":10709:10766  _approve(owner, spender, currentAllowance - value, false) */\n      tag_296\n        /* \"@openzeppelin/contracts/token/ERC20/ERC20.sol\":10718:10723  owner */\n      dup5\n        /* \"@openzeppelin/contracts/token/ERC20/ERC20.sol\":10725:10732  spender */\n      dup5\n        /* \"@openzeppelin/contracts/token/ERC20/ERC20.sol\":10753:10758  value */\n      dup5\n        /* \"@openzeppelin/contracts/token/ERC20/ERC20.sol\":10734:10750  currentAllowance */\n      dup5\n        /* \"@openzeppelin/contracts/token/ERC20/ERC20.sol\":10734:10758  currentAllowance - value */\n      sub\n        /* \"@openzeppelin/contracts/token/ERC20/ERC20.sol\":10760:10765  false */\n      0x00\n        /* \"@openzeppelin/contracts/token/ERC20/ERC20.sol\":10709:10717  _approve */\n      tag_283\n        /* \"@openzeppelin/contracts/token/ERC20/ERC20.sol\":10709:10766  _approve(owner, spender, currentAllowance - value, false) */\n      jump\t// in\n    tag_296:\n        /* \"@openzeppelin/contracts/token/ERC20/ERC20.sol\":10482:10791  if (currentAllowance < type(uint256).max) {... */\n    tag_292:\n        /* \"@openzeppelin/contracts/token/ERC20/ERC20.sol\":10410:10797  {... */\n      pop\n        /* \"@openzeppelin/contracts/token/ERC20/ERC20.sol\":10321:10797  function _spendAllowance(address owner, address spender, uint256 value) internal virtual {... */\n      pop\n      pop\n      pop\n      jump\t// out\n        /* \"@openzeppelin/contracts/token/ERC20/ERC20.sol\":5297:5597  function _transfer(address from, address to, uint256 value) internal {... */\n    tag_189:\n        /* \"@openzeppelin/contracts/token/ERC20/ERC20.sol\":5396:5397  0 */\n      0x00\n        /* \"@openzeppelin/contracts/token/ERC20/ERC20.sol\":5380:5398  from == address(0) */\n      0xffffffffffffffffffffffffffffffffffffffff\n      and\n        /* \"@openzeppelin/contracts/token/ERC20/ERC20.sol\":5380:5384  from */\n      dup4\n        /* \"@openzeppelin/contracts/token/ERC20/ERC20.sol\":5380:5398  from == address(0) */\n      0xffffffffffffffffffffffffffffffffffffffff\n      and\n      sub\n        /* \"@openzeppelin/contracts/token/ERC20/ERC20.sol\":5376:5462  if (from == address(0)) {... */\n      tag_298\n      jumpi\n        /* \"@openzeppelin/contracts/token/ERC20/ERC20.sol\":5448:5449  0 */\n      0x00\n        /* \"@openzeppelin/contracts/token/ERC20/ERC20.sol\":5421:5451  ERC20InvalidSender(address(0)) */\n      mload(0x40)\n      0x96c6fd1e00000000000000000000000000000000000000000000000000000000\n      dup2\n      mstore\n      0x04\n      add\n      tag_299\n      swap2\n      swap1\n      tag_58\n      jump\t// in\n    tag_299:\n      mload(0x40)\n      dup1\n      swap2\n      sub\n      swap1\n      revert\n        /* \"@openzeppelin/contracts/token/ERC20/ERC20.sol\":5376:5462  if (from == address(0)) {... */\n    tag_298:\n        /* \"@openzeppelin/contracts/token/ERC20/ERC20.sol\":5489:5490  0 */\n      0x00\n        /* \"@openzeppelin/contracts/token/ERC20/ERC20.sol\":5475:5491  to == address(0) */\n      0xffffffffffffffffffffffffffffffffffffffff\n      and\n        /* \"@openzeppelin/contracts/token/ERC20/ERC20.sol\":5475:5477  to */\n      dup3\n        /* \"@openzeppelin/contracts/token/ERC20/ERC20.sol\":5475:5491  to == address(0) */\n      0xffffffffffffffffffffffffffffffffffffffff\n      and\n      sub\n        /* \"@openzeppelin/contracts/token/ERC20/ERC20.sol\":5471:5557  if (to == address(0)) {... */\n      tag_300\n      jumpi\n        /* \"@openzeppelin/contracts/token/ERC20/ERC20.sol\":5543:5544  0 */\n      0x00\n        /* \"@openzeppelin/contracts/token/ERC20/ERC20.sol\":5514:5546  ERC20InvalidReceiver(address(0)) */\n      mload(0x40)\n      0xec442f0500000000000000000000000000000000000000000000000000000000\n      dup2\n      mstore\n      0x04\n      add\n      tag_301\n      swap2\n      swap1\n      tag_58\n      jump\t// in\n    tag_301:\n      mload(0x40)\n      dup1\n      swap2\n      sub\n      swap1\n      revert\n        /* \"@openzeppelin/contracts/token/ERC20/ERC20.sol\":5471:5557  if (to == address(0)) {... */\n    tag_300:\n        /* \"@openzeppelin/contracts/token/ERC20/ERC20.sol\":5566:5590  _update(from, to, value) */\n      tag_302\n        /* \"@openzeppelin/contracts/token/ERC20/ERC20.sol\":5574:5578  from */\n      dup4\n        /* \"@openzeppelin/contracts/token/ERC20/ERC20.sol\":5580:5582  to */\n      dup4\n        /* \"@openzeppelin/contracts/token/ERC20/ERC20.sol\":5584:5589  value */\n      dup4\n        /* \"@openzeppelin/contracts/token/ERC20/ERC20.sol\":5566:5573  _update */\n      tag_303\n        /* \"@openzeppelin/contracts/token/ERC20/ERC20.sol\":5566:5590  _update(from, to, value) */\n      jump\t// in\n    tag_302:\n        /* \"@openzeppelin/contracts/token/ERC20/ERC20.sol\":5297:5597  function _transfer(address from, address to, uint256 value) internal {... */\n      pop\n      pop\n      pop\n      jump\t// out\n        /* \"@openzeppelin/contracts/utils/ReentrancyGuard.sol\":3749:4041  function _nonReentrantBefore() private {... */\n    tag_192:\n        /* \"@openzeppelin/contracts/utils/ReentrancyGuard.sol\":3872:3897  _nonReentrantBeforeView() */\n      tag_305\n        /* \"@openzeppelin/contracts/utils/ReentrancyGuard.sol\":3872:3895  _nonReentrantBeforeView */\n      tag_306\n        /* \"@openzeppelin/contracts/utils/ReentrancyGuard.sol\":3872:3897  _nonReentrantBeforeView() */\n      jump\t// in\n    tag_305:\n        /* \"@openzeppelin/contracts/utils/ReentrancyGuard.sol\":2407:2408  2 */\n      0x02\n        /* \"@openzeppelin/contracts/utils/ReentrancyGuard.sol\":3972:4018  _reentrancyGuardStorageSlot().getUint256Slot() */\n      tag_307\n        /* \"@openzeppelin/contracts/utils/ReentrancyGuard.sol\":3972:4001  _reentrancyGuardStorageSlot() */\n      tag_308\n        /* \"@openzeppelin/contracts/utils/ReentrancyGuard.sol\":3972:3999  _reentrancyGuardStorageSlot */\n      tag_309\n        /* \"@openzeppelin/contracts/utils/ReentrancyGuard.sol\":3972:4001  _reentrancyGuardStorageSlot() */\n      jump\t// in\n    tag_308:\n        /* \"@openzeppelin/contracts/utils/ReentrancyGuard.sol\":3972:4016  _reentrancyGuardStorageSlot().getUint256Slot */\n      tag_310\n        /* \"@openzeppelin/contracts/utils/ReentrancyGuard.sol\":3972:4018  _reentrancyGuardStorageSlot().getUint256Slot() */\n      jump\t// in\n    tag_307:\n        /* \"@openzeppelin/contracts/utils/ReentrancyGuard.sol\":3972:4024  _reentrancyGuardStorageSlot().getUint256Slot().value */\n      0x00\n      add\n        /* \"@openzeppelin/contracts/utils/ReentrancyGuard.sol\":3972:4034  _reentrancyGuardStorageSlot().getUint256Slot().value = ENTERED */\n      dup2\n      swap1\n      sstore\n      pop\n        /* \"@openzeppelin/contracts/utils/ReentrancyGuard.sol\":3749:4041  function _nonReentrantBefore() private {... */\n      jump\t// out\n        /* \"@openzeppelin/contracts/token/ERC20/ERC20.sol\":7362:7570  function _mint(address account, uint256 value) internal {... */\n    tag_207:\n        /* \"@openzeppelin/contracts/token/ERC20/ERC20.sol\":7451:7452  0 */\n      0x00\n        /* \"@openzeppelin/contracts/token/ERC20/ERC20.sol\":7432:7453  account == address(0) */\n      0xffffffffffffffffffffffffffffffffffffffff\n      and\n        /* \"@openzeppelin/contracts/token/ERC20/ERC20.sol\":7432:7439  account */\n      dup3\n        /* \"@openzeppelin/contracts/token/ERC20/ERC20.sol\":7432:7453  account == address(0) */\n      0xffffffffffffffffffffffffffffffffffffffff\n      and\n      sub\n        /* \"@openzeppelin/contracts/token/ERC20/ERC20.sol\":7428:7519  if (account == address(0)) {... */\n      tag_312\n      jumpi\n        /* \"@openzeppelin/contracts/token/ERC20/ERC20.sol\":7505:7506  0 */\n      0x00\n        /* \"@openzeppelin/contracts/token/ERC20/ERC20.sol\":7476:7508  ERC20InvalidReceiver(address(0)) */\n      mload(0x40)\n      0xec442f0500000000000000000000000000000000000000000000000000000000\n      dup2\n      mstore\n      0x04\n      add\n      tag_313\n      swap2\n      swap1\n      tag_58\n      jump\t// in\n    tag_313:\n      mload(0x40)\n      dup1\n      swap2\n      sub\n      swap1\n      revert\n        /* \"@openzeppelin/contracts/token/ERC20/ERC20.sol\":7428:7519  if (account == address(0)) {... */\n    tag_312:\n        /* \"@openzeppelin/contracts/token/ERC20/ERC20.sol\":7528:7563  _update(address(0), account, value) */\n      tag_314\n        /* \"@openzeppelin/contracts/token/ERC20/ERC20.sol\":7544:7545  0 */\n      0x00\n        /* \"@openzeppelin/contracts/token/ERC20/ERC20.sol\":7548:7555  account */\n      dup4\n        /* \"@openzeppelin/contracts/token/ERC20/ERC20.sol\":7557:7562  value */\n      dup4\n        /* \"@openzeppelin/contracts/token/ERC20/ERC20.sol\":7528:7535  _update */\n      tag_303\n        /* \"@openzeppelin/contracts/token/ERC20/ERC20.sol\":7528:7563  _update(address(0), account, value) */\n      jump\t// in\n    tag_314:\n        /* \"@openzeppelin/contracts/token/ERC20/ERC20.sol\":7362:7570  function _mint(address account, uint256 value) internal {... */\n      pop\n      pop\n      jump\t// out\n        /* \"@openzeppelin/contracts/utils/ReentrancyGuard.sol\":4047:4300  function _nonReentrantAfter() private {... */\n    tag_210:\n        /* \"@openzeppelin/contracts/utils/ReentrancyGuard.sol\":2365:2366  1 */\n      0x01\n        /* \"@openzeppelin/contracts/utils/ReentrancyGuard.sol\":4227:4273  _reentrancyGuardStorageSlot().getUint256Slot() */\n      tag_316\n        /* \"@openzeppelin/contracts/utils/ReentrancyGuard.sol\":4227:4256  _reentrancyGuardStorageSlot() */\n      tag_317\n        /* \"@openzeppelin/contracts/utils/ReentrancyGuard.sol\":4227:4254  _reentrancyGuardStorageSlot */\n      tag_309\n        /* \"@openzeppelin/contracts/utils/ReentrancyGuard.sol\":4227:4256  _reentrancyGuardStorageSlot() */\n      jump\t// in\n    tag_317:\n        /* \"@openzeppelin/contracts/utils/ReentrancyGuard.sol\":4227:4271  _reentrancyGuardStorageSlot().getUint256Slot */\n      tag_310\n        /* \"@openzeppelin/contracts/utils/ReentrancyGuard.sol\":4227:4273  _reentrancyGuardStorageSlot().getUint256Slot() */\n      jump\t// in\n    tag_316:\n        /* \"@openzeppelin/contracts/utils/ReentrancyGuard.sol\":4227:4279  _reentrancyGuardStorageSlot().getUint256Slot().value */\n      0x00\n      add\n        /* \"@openzeppelin/contracts/utils/ReentrancyGuard.sol\":4227:4293  _reentrancyGuardStorageSlot().getUint256Slot().value = NOT_ENTERED */\n      dup2\n      swap1\n      sstore\n      pop\n        /* \"@openzeppelin/contracts/utils/ReentrancyGuard.sol\":4047:4300  function _nonReentrantAfter() private {... */\n      jump\t// out\n        /* \"@openzeppelin/contracts/token/ERC20/ERC20.sol\":7888:8094  function _burn(address account, uint256 value) internal {... */\n    tag_223:\n        /* \"@openzeppelin/contracts/token/ERC20/ERC20.sol\":7977:7978  0 */\n      0x00\n        /* \"@openzeppelin/contracts/token/ERC20/ERC20.sol\":7958:7979  account == address(0) */\n      0xffffffffffffffffffffffffffffffffffffffff\n      and\n        /* \"@openzeppelin/contracts/token/ERC20/ERC20.sol\":7958:7965  account */\n      dup3\n        /* \"@openzeppelin/contracts/token/ERC20/ERC20.sol\":7958:7979  account == address(0) */\n      0xffffffffffffffffffffffffffffffffffffffff\n      and\n      sub\n        /* \"@openzeppelin/contracts/token/ERC20/ERC20.sol\":7954:8043  if (account == address(0)) {... */\n      tag_319\n      jumpi\n        /* \"@openzeppelin/contracts/token/ERC20/ERC20.sol\":8029:8030  0 */\n      0x00\n        /* \"@openzeppelin/contracts/token/ERC20/ERC20.sol\":8002:8032  ERC20InvalidSender(address(0)) */\n      mload(0x40)\n      0x96c6fd1e00000000000000000000000000000000000000000000000000000000\n      dup2\n      mstore\n      0x04\n      add\n      tag_320\n      swap2\n      swap1\n      tag_58\n      jump\t// in\n    tag_320:\n      mload(0x40)\n      dup1\n      swap2\n      sub\n      swap1\n      revert\n        /* \"@openzeppelin/contracts/token/ERC20/ERC20.sol\":7954:8043  if (account == address(0)) {... */\n    tag_319:\n        /* \"@openzeppelin/contracts/token/ERC20/ERC20.sol\":8052:8087  _update(account, address(0), value) */\n      tag_321\n        /* \"@openzeppelin/contracts/token/ERC20/ERC20.sol\":8060:8067  account */\n      dup3\n        /* \"@openzeppelin/contracts/token/ERC20/ERC20.sol\":8077:8078  0 */\n      0x00\n        /* \"@openzeppelin/contracts/token/ERC20/ERC20.sol\":8081:8086  value */\n      dup4\n        /* \"@openzeppelin/contracts/token/ERC20/ERC20.sol\":8052:8059  _update */\n      tag_303\n        /* \"@openzeppelin/contracts/token/ERC20/ERC20.sol\":8052:8087  _update(account, address(0), value) */\n      jump\t// in\n    tag_321:\n        /* \"@openzeppelin/contracts/token/ERC20/ERC20.sol\":7888:8094  function _burn(address account, uint256 value) internal {... */\n      pop\n      pop\n      jump\t// out\n        /* \"@openzeppelin/contracts/access/Ownable.sol\":2912:3099  function _transferOwnership(address newOwner) internal virtual {... */\n    tag_229:\n        /* \"@openzeppelin/contracts/access/Ownable.sol\":2985:3001  address oldOwner */\n      0x00\n        /* \"@openzeppelin/contracts/access/Ownable.sol\":3004:3010  _owner */\n      0x05\n      0x00\n      swap1\n      sload\n      swap1\n      0x0100\n      exp\n      swap1\n      div\n      0xffffffffffffffffffffffffffffffffffffffff\n      and\n        /* \"@openzeppelin/contracts/access/Ownable.sol\":2985:3010  address oldOwner = _owner */\n      swap1\n      pop\n        /* \"@openzeppelin/contracts/access/Ownable.sol\":3029:3037  newOwner */\n      dup2\n        /* \"@openzeppelin/contracts/access/Ownable.sol\":3020:3026  _owner */\n      0x05\n      0x00\n        /* \"@openzeppelin/contracts/access/Ownable.sol\":3020:3037  _owner = newOwner */\n      0x0100\n      exp\n      dup2\n      sload\n      dup2\n      0xffffffffffffffffffffffffffffffffffffffff\n      mul\n      not\n      and\n      swap1\n      dup4\n      0xffffffffffffffffffffffffffffffffffffffff\n      and\n      mul\n      or\n      swap1\n      sstore\n      pop\n        /* \"@openzeppelin/contracts/access/Ownable.sol\":3083:3091  newOwner */\n      dup2\n        /* \"@openzeppelin/contracts/access/Ownable.sol\":3052:3092  OwnershipTransferred(oldOwner, newOwner) */\n      0xffffffffffffffffffffffffffffffffffffffff\n      and\n        /* \"@openzeppelin/contracts/access/Ownable.sol\":3073:3081  oldOwner */\n      dup2\n        /* \"@openzeppelin/contracts/access/Ownable.sol\":3052:3092  OwnershipTransferred(oldOwner, newOwner) */\n      0xffffffffffffffffffffffffffffffffffffffff\n      and\n      0x8be0079c531659141344cd1fd0a4f28419497f9722a3daafe3b4186f6b6457e0\n      mload(0x40)\n      mload(0x40)\n      dup1\n      swap2\n      sub\n      swap1\n      log3\n        /* \"@openzeppelin/contracts/access/Ownable.sol\":2975:3099  {... */\n      pop\n        /* \"@openzeppelin/contracts/access/Ownable.sol\":2912:3099  function _transferOwnership(address newOwner) internal virtual {... */\n      pop\n      jump\t// out\n        /* \"@openzeppelin/contracts/token/ERC20/ERC20.sol\":9607:10039  function _approve(address owner, address spender, uint256 value, bool emitEvent) internal virtual {... */\n    tag_283:\n        /* \"@openzeppelin/contracts/token/ERC20/ERC20.sol\":9736:9737  0 */\n      0x00\n        /* \"@openzeppelin/contracts/token/ERC20/ERC20.sol\":9719:9738  owner == address(0) */\n      0xffffffffffffffffffffffffffffffffffffffff\n      and\n        /* \"@openzeppelin/contracts/token/ERC20/ERC20.sol\":9719:9724  owner */\n      dup5\n        /* \"@openzeppelin/contracts/token/ERC20/ERC20.sol\":9719:9738  owner == address(0) */\n      0xffffffffffffffffffffffffffffffffffffffff\n      and\n      sub\n        /* \"@openzeppelin/contracts/token/ERC20/ERC20.sol\":9715:9804  if (owner == address(0)) {... */\n      tag_324\n      jumpi\n        /* \"@openzeppelin/contracts/token/ERC20/ERC20.sol\":9790:9791  0 */\n      0x00\n        /* \"@openzeppelin/contracts/token/ERC20/ERC20.sol\":9761:9793  ERC20InvalidApprover(address(0)) */\n      mload(0x40)\n      0xe602df0500000000000000000000000000000000000000000000000000000000\n      dup2\n      mstore\n      0x04\n      add\n      tag_325\n      swap2\n      swap1\n      tag_58\n      jump\t// in\n    tag_325:\n      mload(0x40)\n      dup1\n      swap2\n      sub\n      swap1\n      revert\n        /* \"@openzeppelin/contracts/token/ERC20/ERC20.sol\":9715:9804  if (owner == address(0)) {... */\n    tag_324:\n        /* \"@openzeppelin/contracts/token/ERC20/ERC20.sol\":9836:9837  0 */\n      0x00\n        /* \"@openzeppelin/contracts/token/ERC20/ERC20.sol\":9817:9838  spender == address(0) */\n      0xffffffffffffffffffffffffffffffffffffffff\n      and\n        /* \"@openzeppelin/contracts/token/ERC20/ERC20.sol\":9817:9824  spender */\n      dup4\n        /* \"@openzeppelin/contracts/token/ERC20/ERC20.sol\":9817:9838  spender == address(0) */\n      0xffffffffffffffffffffffffffffffffffffffff\n      and\n      sub\n        /* \"@openzeppelin/contracts/token/ERC20/ERC20.sol\":9813:9903  if (spender == address(0)) {... */\n      tag_326\n      jumpi\n        /* \"@openzeppelin/contracts/token/ERC20/ERC20.sol\":9889:9890  0 */\n      0x00\n        /* \"@openzeppelin/contracts/token/ERC20/ERC20.sol\":9861:9892  ERC20InvalidSpender(address(0)) */\n      mload(0x40)\n      0x94280d6200000000000000000000000000000000000000000000000000000000\n      dup2\n      mstore\n      0x04\n      add\n      tag_327\n      swap2\n      swap1\n      tag_58\n      jump\t// in\n    tag_327:\n      mload(0x40)\n      dup1\n      swap2\n      sub\n      swap1\n      revert\n        /* \"@openzeppelin/contracts/token/ERC20/ERC20.sol\":9813:9903  if (spender == address(0)) {... */\n    tag_326:\n        /* \"@openzeppelin/contracts/token/ERC20/ERC20.sol\":9942:9947  value */\n      dup2\n        /* \"@openzeppelin/contracts/token/ERC20/ERC20.sol\":9912:9923  _allowances */\n      0x01\n        /* \"@openzeppelin/contracts/token/ERC20/ERC20.sol\":9912:9930  _allowances[owner] */\n      0x00\n        /* \"@openzeppelin/contracts/token/ERC20/ERC20.sol\":9924:9929  owner */\n      dup7\n        /* \"@openzeppelin/contracts/token/ERC20/ERC20.sol\":9912:9930  _allowances[owner] */\n      0xffffffffffffffffffffffffffffffffffffffff\n      and\n      0xffffffffffffffffffffffffffffffffffffffff\n      and\n      dup2\n      mstore\n      0x20\n      add\n      swap1\n      dup2\n      mstore\n      0x20\n      add\n      0x00\n      keccak256\n        /* \"@openzeppelin/contracts/token/ERC20/ERC20.sol\":9912:9939  _allowances[owner][spender] */\n      0x00\n        /* \"@openzeppelin/contracts/token/ERC20/ERC20.sol\":9931:9938  spender */\n      dup6\n        /* \"@openzeppelin/contracts/token/ERC20/ERC20.sol\":9912:9939  _allowances[owner][spender] */\n      0xffffffffffffffffffffffffffffffffffffffff\n      and\n      0xffffffffffffffffffffffffffffffffffffffff\n      and\n      dup2\n      mstore\n      0x20\n      add\n      swap1\n      dup2\n      mstore\n      0x20\n      add\n      0x00\n      keccak256\n        /* \"@openzeppelin/contracts/token/ERC20/ERC20.sol\":9912:9947  _allowances[owner][spender] = value */\n      dup2\n      swap1\n      sstore\n      pop\n        /* \"@openzeppelin/contracts/token/ERC20/ERC20.sol\":9961:9970  emitEvent */\n      dup1\n        /* \"@openzeppelin/contracts/token/ERC20/ERC20.sol\":9957:10033  if (emitEvent) {... */\n      iszero\n      tag_328\n      jumpi\n        /* \"@openzeppelin/contracts/token/ERC20/ERC20.sol\":10007:10014  spender */\n      dup3\n        /* \"@openzeppelin/contracts/token/ERC20/ERC20.sol\":9991:10022  Approval(owner, spender, value) */\n      0xffffffffffffffffffffffffffffffffffffffff\n      and\n        /* \"@openzeppelin/contracts/token/ERC20/ERC20.sol\":10000:10005  owner */\n      dup5\n        /* \"@openzeppelin/contracts/token/ERC20/ERC20.sol\":9991:10022  Approval(owner, spender, value) */\n      0xffffffffffffffffffffffffffffffffffffffff\n      and\n      0x8c5be1e5ebec7d5bd14f71427d1e84f3dd0314c0f7b2291e5b200ac8c7c3b925\n        /* \"@openzeppelin/contracts/token/ERC20/ERC20.sol\":10016:10021  value */\n      dup5\n        /* \"@openzeppelin/contracts/token/ERC20/ERC20.sol\":9991:10022  Approval(owner, spender, value) */\n      mload(0x40)\n      tag_329\n      swap2\n      swap1\n      tag_62\n      jump\t// in\n    tag_329:\n      mload(0x40)\n      dup1\n      swap2\n      sub\n      swap1\n      log3\n        /* \"@openzeppelin/contracts/token/ERC20/ERC20.sol\":9957:10033  if (emitEvent) {... */\n    tag_328:\n        /* \"@openzeppelin/contracts/token/ERC20/ERC20.sol\":9607:10039  function _approve(address owner, address spender, uint256 value, bool emitEvent) internal virtual {... */\n      pop\n      pop\n      pop\n      pop\n      jump\t// out\n        /* \"contracts/TIMBSToken.sol\":11445:12051  function _update(... */\n    tag_303:\n        /* \"contracts/TIMBSToken.sol\":4561:4567  paused */\n      0x0d\n      0x00\n      swap1\n      sload\n      swap1\n      0x0100\n      exp\n      swap1\n      div\n      0xff\n      and\n        /* \"contracts/TIMBSToken.sol\":4557:4592  if (paused) revert TransferPaused() */\n      iszero\n      tag_331\n      jumpi\n        /* \"contracts/TIMBSToken.sol\":4576:4592  TransferPaused() */\n      mload(0x40)\n      0xcd1fda9f00000000000000000000000000000000000000000000000000000000\n      dup2\n      mstore\n      0x04\n      add\n      mload(0x40)\n      dup1\n      swap2\n      sub\n      swap1\n      revert\n        /* \"contracts/TIMBSToken.sol\":4557:4592  if (paused) revert TransferPaused() */\n    tag_331:\n        /* \"contracts/TIMBSToken.sol\":11659:11660  0 */\n      0x00\n        /* \"contracts/TIMBSToken.sol\":11643:11661  from != address(0) */\n      0xffffffffffffffffffffffffffffffffffffffff\n      and\n        /* \"contracts/TIMBSToken.sol\":11643:11647  from */\n      dup4\n        /* \"contracts/TIMBSToken.sol\":11643:11661  from != address(0) */\n      0xffffffffffffffffffffffffffffffffffffffff\n      and\n      eq\n      iszero\n        /* \"contracts/TIMBSToken.sol\":11643:11681  from != address(0) && to != address(0) */\n      dup1\n      iszero\n      tag_333\n      jumpi\n      pop\n        /* \"contracts/TIMBSToken.sol\":11679:11680  0 */\n      0x00\n        /* \"contracts/TIMBSToken.sol\":11665:11681  to != address(0) */\n      0xffffffffffffffffffffffffffffffffffffffff\n      and\n        /* \"contracts/TIMBSToken.sol\":11665:11667  to */\n      dup3\n        /* \"contracts/TIMBSToken.sol\":11665:11681  to != address(0) */\n      0xffffffffffffffffffffffffffffffffffffffff\n      and\n      eq\n      iszero\n        /* \"contracts/TIMBSToken.sol\":11643:11681  from != address(0) && to != address(0) */\n    tag_333:\n        /* \"contracts/TIMBSToken.sol\":11639:12005  if (from != address(0) && to != address(0)) {... */\n      iszero\n      tag_334\n      jumpi\n        /* \"contracts/TIMBSToken.sol\":11738:11739  0 */\n      0x00\n        /* \"contracts/TIMBSToken.sol\":11718:11735  maxTransferAmount */\n      sload(0x0b)\n        /* \"contracts/TIMBSToken.sol\":11718:11739  maxTransferAmount > 0 */\n      gt\n        /* \"contracts/TIMBSToken.sol\":11718:11783  maxTransferAmount > 0 &&... */\n      dup1\n      iszero\n      tag_335\n      jumpi\n      pop\n        /* \"contracts/TIMBSToken.sol\":11760:11777  transferWhitelist */\n      0x0c\n        /* \"contracts/TIMBSToken.sol\":11760:11783  transferWhitelist[from] */\n      0x00\n        /* \"contracts/TIMBSToken.sol\":11778:11782  from */\n      dup5\n        /* \"contracts/TIMBSToken.sol\":11760:11783  transferWhitelist[from] */\n      0xffffffffffffffffffffffffffffffffffffffff\n      and\n      0xffffffffffffffffffffffffffffffffffffffff\n      and\n      dup2\n      mstore\n      0x20\n      add\n      swap1\n      dup2\n      mstore\n      0x20\n      add\n      0x00\n      keccak256\n      0x00\n      swap1\n      sload\n      swap1\n      0x0100\n      exp\n      swap1\n      div\n      0xff\n      and\n        /* \"contracts/TIMBSToken.sol\":11759:11783  !transferWhitelist[from] */\n      iszero\n        /* \"contracts/TIMBSToken.sol\":11718:11783  maxTransferAmount > 0 &&... */\n    tag_335:\n        /* \"contracts/TIMBSToken.sol\":11718:11825  maxTransferAmount > 0 &&... */\n      dup1\n      iszero\n      tag_336\n      jumpi\n      pop\n        /* \"contracts/TIMBSToken.sol\":11804:11821  transferWhitelist */\n      0x0c\n        /* \"contracts/TIMBSToken.sol\":11804:11825  transferWhitelist[to] */\n      0x00\n        /* \"contracts/TIMBSToken.sol\":11822:11824  to */\n      dup4\n        /* \"contracts/TIMBSToken.sol\":11804:11825  transferWhitelist[to] */\n      0xffffffffffffffffffffffffffffffffffffffff\n      and\n      0xffffffffffffffffffffffffffffffffffffffff\n      and\n      dup2\n      mstore\n      0x20\n      add\n      swap1\n      dup2\n      mstore\n      0x20\n      add\n      0x00\n      keccak256\n      0x00\n      swap1\n      sload\n      swap1\n      0x0100\n      exp\n      swap1\n      div\n      0xff\n      and\n        /* \"contracts/TIMBSToken.sol\":11803:11825  !transferWhitelist[to] */\n      iszero\n        /* \"contracts/TIMBSToken.sol\":11718:11825  maxTransferAmount > 0 &&... */\n    tag_336:\n        /* \"contracts/TIMBSToken.sol\":11697:11995  if (... */\n      iszero\n      tag_337\n      jumpi\n        /* \"contracts/TIMBSToken.sol\":11870:11887  maxTransferAmount */\n      sload(0x0b)\n        /* \"contracts/TIMBSToken.sol\":11862:11867  value */\n      dup2\n        /* \"contracts/TIMBSToken.sol\":11862:11887  value > maxTransferAmount */\n      gt\n        /* \"contracts/TIMBSToken.sol\":11858:11981  if (value > maxTransferAmount) {... */\n      iszero\n      tag_338\n      jumpi\n        /* \"contracts/TIMBSToken.sol\":11937:11942  value */\n      dup1\n        /* \"contracts/TIMBSToken.sol\":11944:11961  maxTransferAmount */\n      sload(0x0b)\n        /* \"contracts/TIMBSToken.sol\":11918:11962  ExceedsMaxTransfer(value, maxTransferAmount) */\n      mload(0x40)\n      0x8112e4e200000000000000000000000000000000000000000000000000000000\n      dup2\n      mstore\n      0x04\n      add\n      tag_339\n      swap3\n      swap2\n      swap1\n      tag_183\n      jump\t// in\n    tag_339:\n      mload(0x40)\n      dup1\n      swap2\n      sub\n      swap1\n      revert\n        /* \"contracts/TIMBSToken.sol\":11858:11981  if (value > maxTransferAmount) {... */\n    tag_338:\n        /* \"contracts/TIMBSToken.sol\":11697:11995  if (... */\n    tag_337:\n        /* \"contracts/TIMBSToken.sol\":11639:12005  if (from != address(0) && to != address(0)) {... */\n    tag_334:\n        /* \"contracts/TIMBSToken.sol\":12014:12044  super._update(from, to, value) */\n      tag_340\n        /* \"contracts/TIMBSToken.sol\":12028:12032  from */\n      dup4\n        /* \"contracts/TIMBSToken.sol\":12034:12036  to */\n      dup4\n        /* \"contracts/TIMBSToken.sol\":12038:12043  value */\n      dup4\n        /* \"contracts/TIMBSToken.sol\":12014:12027  super._update */\n      tag_341\n        /* \"contracts/TIMBSToken.sol\":12014:12044  super._update(from, to, value) */\n      jump\t// in\n    tag_340:\n        /* \"contracts/TIMBSToken.sol\":11445:12051  function _update(... */\n      pop\n      pop\n      pop\n      jump\t// out\n        /* \"@openzeppelin/contracts/utils/ReentrancyGuard.sol\":3586:3743  function _nonReentrantBeforeView() private view {... */\n    tag_306:\n        /* \"@openzeppelin/contracts/utils/ReentrancyGuard.sol\":3648:3673  _reentrancyGuardEntered() */\n      tag_343\n        /* \"@openzeppelin/contracts/utils/ReentrancyGuard.sol\":3648:3671  _reentrancyGuardEntered */\n      tag_344\n        /* \"@openzeppelin/contracts/utils/ReentrancyGuard.sol\":3648:3673  _reentrancyGuardEntered() */\n      jump\t// in\n    tag_343:\n        /* \"@openzeppelin/contracts/utils/ReentrancyGuard.sol\":3644:3737  if (_reentrancyGuardEntered()) {... */\n      iszero\n      tag_345\n      jumpi\n        /* \"@openzeppelin/contracts/utils/ReentrancyGuard.sol\":3696:3726  ReentrancyGuardReentrantCall() */\n      mload(0x40)\n      0x3ee5aeb500000000000000000000000000000000000000000000000000000000\n      dup2\n      mstore\n      0x04\n      add\n      mload(0x40)\n      dup1\n      swap2\n      sub\n      swap1\n      revert\n        /* \"@openzeppelin/contracts/utils/ReentrancyGuard.sol\":3644:3737  if (_reentrancyGuardEntered()) {... */\n    tag_345:\n        /* \"@openzeppelin/contracts/utils/ReentrancyGuard.sol\":3586:3743  function _nonReentrantBeforeView() private view {... */\n      jump\t// out\n        /* \"@openzeppelin/contracts/utils/ReentrancyGuard.sol\":4636:4763  function _reentrancyGuardStorageSlot() internal pure virtual returns (bytes32) {... */\n    tag_309:\n        /* \"@openzeppelin/contracts/utils/ReentrancyGuard.sol\":4706:4713  bytes32 */\n      0x00\n        /* \"@openzeppelin/contracts/utils/ReentrancyGuard.sol\":1505:1571  0x9b779b17422d0df92223018b32b4d1fa46e071723d6817e2486d003becc55f00 */\n      0x9b779b17422d0df92223018b32b4d1fa46e071723d6817e2486d003becc55f00\n        /* \"@openzeppelin/contracts/utils/ReentrancyGuard.sol\":4732:4756  REENTRANCY_GUARD_STORAGE */\n      0x00\n      shl\n        /* \"@openzeppelin/contracts/utils/ReentrancyGuard.sol\":4725:4756  return REENTRANCY_GUARD_STORAGE */\n      swap1\n      pop\n        /* \"@openzeppelin/contracts/utils/ReentrancyGuard.sol\":4636:4763  function _reentrancyGuardStorageSlot() internal pure virtual returns (bytes32) {... */\n      swap1\n      jump\t// out\n        /* \"@openzeppelin/contracts/utils/StorageSlot.sol\":2679:2842  function getUint256Slot(bytes32 slot) internal pure returns (Uint256Slot storage r) {... */\n    tag_310:\n        /* \"@openzeppelin/contracts/utils/StorageSlot.sol\":2740:2761  Uint256Slot storage r */\n      0x00\n        /* \"@openzeppelin/contracts/utils/StorageSlot.sol\":2822:2826  slot */\n      dup2\n        /* \"@openzeppelin/contracts/utils/StorageSlot.sol\":2812:2826  r.slot := slot */\n      swap1\n      pop\n        /* \"@openzeppelin/contracts/utils/StorageSlot.sol\":2679:2842  function getUint256Slot(bytes32 slot) internal pure returns (Uint256Slot storage r) {... */\n      swap2\n      swap1\n      pop\n      jump\t// out\n        /* \"@openzeppelin/contracts/token/ERC20/ERC20.sol\":5912:7019  function _update(address from, address to, uint256 value) internal virtual {... */\n    tag_341:\n        /* \"@openzeppelin/contracts/token/ERC20/ERC20.sol\":6017:6018  0 */\n      0x00\n        /* \"@openzeppelin/contracts/token/ERC20/ERC20.sol\":6001:6019  from == address(0) */\n      0xffffffffffffffffffffffffffffffffffffffff\n      and\n        /* \"@openzeppelin/contracts/token/ERC20/ERC20.sol\":6001:6005  from */\n      dup4\n        /* \"@openzeppelin/contracts/token/ERC20/ERC20.sol\":6001:6019  from == address(0) */\n      0xffffffffffffffffffffffffffffffffffffffff\n      and\n      sub\n        /* \"@openzeppelin/contracts/token/ERC20/ERC20.sol\":5997:6537  if (from == address(0)) {... */\n      tag_349\n      jumpi\n        /* \"@openzeppelin/contracts/token/ERC20/ERC20.sol\":6153:6158  value */\n      dup1\n        /* \"@openzeppelin/contracts/token/ERC20/ERC20.sol\":6137:6149  _totalSupply */\n      0x02\n      0x00\n        /* \"@openzeppelin/contracts/token/ERC20/ERC20.sol\":6137:6158  _totalSupply += value */\n      dup3\n      dup3\n      sload\n      tag_350\n      swap2\n      swap1\n      tag_351\n      jump\t// in\n    tag_350:\n      swap3\n      pop\n      pop\n      dup2\n      swap1\n      sstore\n      pop\n        /* \"@openzeppelin/contracts/token/ERC20/ERC20.sol\":5997:6537  if (from == address(0)) {... */\n      jump(tag_352)\n    tag_349:\n        /* \"@openzeppelin/contracts/token/ERC20/ERC20.sol\":6189:6208  uint256 fromBalance */\n      0x00\n        /* \"@openzeppelin/contracts/token/ERC20/ERC20.sol\":6211:6220  _balances */\n      dup1\n        /* \"@openzeppelin/contracts/token/ERC20/ERC20.sol\":6211:6226  _balances[from] */\n      0x00\n        /* \"@openzeppelin/contracts/token/ERC20/ERC20.sol\":6221:6225  from */\n      dup6\n        /* \"@openzeppelin/contracts/token/ERC20/ERC20.sol\":6211:6226  _balances[from] */\n      0xffffffffffffffffffffffffffffffffffffffff\n      and\n      0xffffffffffffffffffffffffffffffffffffffff\n      and\n      dup2\n      mstore\n      0x20\n      add\n      swap1\n      dup2\n      mstore\n      0x20\n      add\n      0x00\n      keccak256\n      sload\n        /* \"@openzeppelin/contracts/token/ERC20/ERC20.sol\":6189:6226  uint256 fromBalance = _balances[from] */\n      swap1\n      pop\n        /* \"@openzeppelin/contracts/token/ERC20/ERC20.sol\":6258:6263  value */\n      dup2\n        /* \"@openzeppelin/contracts/token/ERC20/ERC20.sol\":6244:6255  fromBalance */\n      dup2\n        /* \"@openzeppelin/contracts/token/ERC20/ERC20.sol\":6244:6263  fromBalance < value */\n      lt\n        /* \"@openzeppelin/contracts/token/ERC20/ERC20.sol\":6240:6355  if (fromBalance < value) {... */\n      iszero\n      tag_353\n      jumpi\n        /* \"@openzeppelin/contracts/token/ERC20/ERC20.sol\":6315:6319  from */\n      dup4\n        /* \"@openzeppelin/contracts/token/ERC20/ERC20.sol\":6321:6332  fromBalance */\n      dup2\n        /* \"@openzeppelin/contracts/token/ERC20/ERC20.sol\":6334:6339  value */\n      dup4\n        /* \"@openzeppelin/contracts/token/ERC20/ERC20.sol\":6290:6340  ERC20InsufficientBalance(from, fromBalance, value) */\n      mload(0x40)\n      0xe450d38c00000000000000000000000000000000000000000000000000000000\n      dup2\n      mstore\n      0x04\n      add\n      tag_354\n      swap4\n      swap3\n      swap2\n      swap1\n      tag_295\n      jump\t// in\n    tag_354:\n      mload(0x40)\n      dup1\n      swap2\n      sub\n      swap1\n      revert\n        /* \"@openzeppelin/contracts/token/ERC20/ERC20.sol\":6240:6355  if (fromBalance < value) {... */\n    tag_353:\n        /* \"@openzeppelin/contracts/token/ERC20/ERC20.sol\":6507:6512  value */\n      dup2\n        /* \"@openzeppelin/contracts/token/ERC20/ERC20.sol\":6493:6504  fromBalance */\n      dup2\n        /* \"@openzeppelin/contracts/token/ERC20/ERC20.sol\":6493:6512  fromBalance - value */\n      sub\n        /* \"@openzeppelin/contracts/token/ERC20/ERC20.sol\":6475:6484  _balances */\n      0x00\n        /* \"@openzeppelin/contracts/token/ERC20/ERC20.sol\":6475:6490  _balances[from] */\n      dup1\n        /* \"@openzeppelin/contracts/token/ERC20/ERC20.sol\":6485:6489  from */\n      dup7\n        /* \"@openzeppelin/contracts/token/ERC20/ERC20.sol\":6475:6490  _balances[from] */\n      0xffffffffffffffffffffffffffffffffffffffff\n      and\n      0xffffffffffffffffffffffffffffffffffffffff\n      and\n      dup2\n      mstore\n      0x20\n      add\n      swap1\n      dup2\n      mstore\n      0x20\n      add\n      0x00\n      keccak256\n        /* \"@openzeppelin/contracts/token/ERC20/ERC20.sol\":6475:6512  _balances[from] = fromBalance - value */\n      dup2\n      swap1\n      sstore\n      pop\n        /* \"@openzeppelin/contracts/token/ERC20/ERC20.sol\":6175:6537  {... */\n      pop\n        /* \"@openzeppelin/contracts/token/ERC20/ERC20.sol\":5997:6537  if (from == address(0)) {... */\n    tag_352:\n        /* \"@openzeppelin/contracts/token/ERC20/ERC20.sol\":6565:6566  0 */\n      0x00\n        /* \"@openzeppelin/contracts/token/ERC20/ERC20.sol\":6551:6567  to == address(0) */\n      0xffffffffffffffffffffffffffffffffffffffff\n      and\n        /* \"@openzeppelin/contracts/token/ERC20/ERC20.sol\":6551:6553  to */\n      dup3\n        /* \"@openzeppelin/contracts/token/ERC20/ERC20.sol\":6551:6567  to == address(0) */\n      0xffffffffffffffffffffffffffffffffffffffff\n      and\n      sub\n        /* \"@openzeppelin/contracts/token/ERC20/ERC20.sol\":6547:6972  if (to == address(0)) {... */\n      tag_355\n      jumpi\n        /* \"@openzeppelin/contracts/token/ERC20/ERC20.sol\":6730:6735  value */\n      dup1\n        /* \"@openzeppelin/contracts/token/ERC20/ERC20.sol\":6714:6726  _totalSupply */\n      0x02\n      0x00\n        /* \"@openzeppelin/contracts/token/ERC20/ERC20.sol\":6714:6735  _totalSupply -= value */\n      dup3\n      dup3\n      sload\n      sub\n      swap3\n      pop\n      pop\n      dup2\n      swap1\n      sstore\n      pop\n        /* \"@openzeppelin/contracts/token/ERC20/ERC20.sol\":6547:6972  if (to == address(0)) {... */\n      jump(tag_356)\n    tag_355:\n        /* \"@openzeppelin/contracts/token/ERC20/ERC20.sol\":6942:6947  value */\n      dup1\n        /* \"@openzeppelin/contracts/token/ERC20/ERC20.sol\":6925:6934  _balances */\n      0x00\n        /* \"@openzeppelin/contracts/token/ERC20/ERC20.sol\":6925:6938  _balances[to] */\n      dup1\n        /* \"@openzeppelin/contracts/token/ERC20/ERC20.sol\":6935:6937  to */\n      dup5\n        /* \"@openzeppelin/contracts/token/ERC20/ERC20.sol\":6925:6938  _balances[to] */\n      0xffffffffffffffffffffffffffffffffffffffff\n      and\n      0xffffffffffffffffffffffffffffffffffffffff\n      and\n      dup2\n      mstore\n      0x20\n      add\n      swap1\n      dup2\n      mstore\n      0x20\n      add\n      0x00\n      keccak256\n      0x00\n        /* \"@openzeppelin/contracts/token/ERC20/ERC20.sol\":6925:6947  _balances[to] += value */\n      dup3\n      dup3\n      sload\n      add\n      swap3\n      pop\n      pop\n      dup2\n      swap1\n      sstore\n      pop\n        /* \"@openzeppelin/contracts/token/ERC20/ERC20.sol\":6547:6972  if (to == address(0)) {... */\n    tag_356:\n        /* \"@openzeppelin/contracts/token/ERC20/ERC20.sol\":7002:7004  to */\n      dup2\n        /* \"@openzeppelin/contracts/token/ERC20/ERC20.sol\":6987:7012  Transfer(from, to, value) */\n      0xffffffffffffffffffffffffffffffffffffffff\n      and\n        /* \"@openzeppelin/contracts/token/ERC20/ERC20.sol\":6996:7000  from */\n      dup4\n        /* \"@openzeppelin/contracts/token/ERC20/ERC20.sol\":6987:7012  Transfer(from, to, value) */\n      0xffffffffffffffffffffffffffffffffffffffff\n      and\n      0xddf252ad1be2c89b69c2b068fc378daa952ba7f163c4a11628f55a4df523b3ef\n        /* \"@openzeppelin/contracts/token/ERC20/ERC20.sol\":7006:7011  value */\n      dup4\n        /* \"@openzeppelin/contracts/token/ERC20/ERC20.sol\":6987:7012  Transfer(from, to, value) */\n      mload(0x40)\n      tag_357\n      swap2\n      swap1\n      tag_62\n      jump\t// in\n    tag_357:\n      mload(0x40)\n      dup1\n      swap2\n      sub\n      swap1\n      log3\n        /* \"@openzeppelin/contracts/token/ERC20/ERC20.sol\":5912:7019  function _update(address from, address to, uint256 value) internal virtual {... */\n      pop\n      pop\n      pop\n      jump\t// out\n        /* \"@openzeppelin/contracts/utils/ReentrancyGuard.sol\":4479:4630  function _reentrancyGuardEntered() internal view returns (bool) {... */\n    tag_344:\n        /* \"@openzeppelin/contracts/utils/ReentrancyGuard.sol\":4537:4541  bool */\n      0x00\n        /* \"@openzeppelin/contracts/utils/ReentrancyGuard.sol\":2407:2408  2 */\n      0x02\n        /* \"@openzeppelin/contracts/utils/ReentrancyGuard.sol\":4560:4606  _reentrancyGuardStorageSlot().getUint256Slot() */\n      tag_359\n        /* \"@openzeppelin/contracts/utils/ReentrancyGuard.sol\":4560:4589  _reentrancyGuardStorageSlot() */\n      tag_360\n        /* \"@openzeppelin/contracts/utils/ReentrancyGuard.sol\":4560:4587  _reentrancyGuardStorageSlot */\n      tag_309\n        /* \"@openzeppelin/contracts/utils/ReentrancyGuard.sol\":4560:4589  _reentrancyGuardStorageSlot() */\n      jump\t// in\n    tag_360:\n        /* \"@openzeppelin/contracts/utils/ReentrancyGuard.sol\":4560:4604  _reentrancyGuardStorageSlot().getUint256Slot */\n      tag_310\n        /* \"@openzeppelin/contracts/utils/ReentrancyGuard.sol\":4560:4606  _reentrancyGuardStorageSlot().getUint256Slot() */\n      jump\t// in\n    tag_359:\n        /* \"@openzeppelin/contracts/utils/ReentrancyGuard.sol\":4560:4612  _reentrancyGuardStorageSlot().getUint256Slot().value */\n      0x00\n      add\n      sload\n        /* \"@openzeppelin/contracts/utils/ReentrancyGuard.sol\":4560:4623  _reentrancyGuardStorageSlot().getUint256Slot().value == ENTERED */\n      eq\n        /* \"@openzeppelin/contracts/utils/ReentrancyGuard.sol\":4553:4623  return _reentrancyGuardStorageSlot().getUint256Slot().value == ENTERED */\n      swap1\n      pop\n        /* \"@openzeppelin/contracts/utils/ReentrancyGuard.sol\":4479:4630  function _reentrancyGuardEntered() internal view returns (bool) {... */\n      swap1\n      jump\t// out\n        /* \"#utility.yul\":7:106   */\n    tag_361:\n        /* \"#utility.yul\":59:65   */\n      0x00\n        /* \"#utility.yul\":93:98   */\n      dup2\n        /* \"#utility.yul\":87:99   */\n      mload\n        /* \"#utility.yul\":77:99   */\n      swap1\n      pop\n        /* \"#utility.yul\":7:106   */\n      swap2\n      swap1\n      pop\n      jump\t// out\n        /* \"#utility.yul\":112:281   */\n    tag_362:\n        /* \"#utility.yul\":196:207   */\n      0x00\n        /* \"#utility.yul\":230:236   */\n      dup3\n        /* \"#utility.yul\":225:228   */\n      dup3\n        /* \"#utility.yul\":218:237   */\n      mstore\n        /* \"#utility.yul\":270:274   */\n      0x20\n        /* \"#utility.yul\":265:268   */\n      dup3\n        /* \"#utility.yul\":261:275   */\n      add\n        /* \"#utility.yul\":246:275   */\n      swap1\n      pop\n        /* \"#utility.yul\":112:281   */\n      swap3\n      swap2\n      pop\n      pop\n      jump\t// out\n        /* \"#utility.yul\":287:533   */\n    tag_363:\n        /* \"#utility.yul\":368:369   */\n      0x00\n        /* \"#utility.yul\":378:491   */\n    tag_390:\n        /* \"#utility.yul\":392:398   */\n      dup4\n        /* \"#utility.yul\":389:390   */\n      dup2\n        /* \"#utility.yul\":386:399   */\n      lt\n        /* \"#utility.yul\":378:491   */\n      iszero\n      tag_392\n      jumpi\n        /* \"#utility.yul\":477:478   */\n      dup1\n        /* \"#utility.yul\":472:475   */\n      dup3\n        /* \"#utility.yul\":468:479   */\n      add\n        /* \"#utility.yul\":462:480   */\n      mload\n        /* \"#utility.yul\":458:459   */\n      dup2\n        /* \"#utility.yul\":453:456   */\n      dup5\n        /* \"#utility.yul\":449:460   */\n      add\n        /* \"#utility.yul\":442:481   */\n      mstore\n        /* \"#utility.yul\":414:416   */\n      0x20\n        /* \"#utility.yul\":411:412   */\n      dup2\n        /* \"#utility.yul\":407:417   */\n      add\n        /* \"#utility.yul\":402:417   */\n      swap1\n      pop\n        /* \"#utility.yul\":378:491   */\n      jump(tag_390)\n    tag_392:\n        /* \"#utility.yul\":525:526   */\n      0x00\n        /* \"#utility.yul\":516:522   */\n      dup5\n        /* \"#utility.yul\":511:514   */\n      dup5\n        /* \"#utility.yul\":507:523   */\n      add\n        /* \"#utility.yul\":500:527   */\n      mstore\n        /* \"#utility.yul\":349:533   */\n      pop\n        /* \"#utility.yul\":287:533   */\n      pop\n      pop\n      pop\n      jump\t// out\n        /* \"#utility.yul\":539:641   */\n    tag_364:\n        /* \"#utility.yul\":580:586   */\n      0x00\n        /* \"#utility.yul\":631:633   */\n      0x1f\n        /* \"#utility.yul\":627:634   */\n      not\n        /* \"#utility.yul\":622:624   */\n      0x1f\n        /* \"#utility.yul\":615:620   */\n      dup4\n        /* \"#utility.yul\":611:625   */\n      add\n        /* \"#utility.yul\":607:635   */\n      and\n        /* \"#utility.yul\":597:635   */\n      swap1\n      pop\n        /* \"#utility.yul\":539:641   */\n      swap2\n      swap1\n      pop\n      jump\t// out\n        /* \"#utility.yul\":647:1024   */\n    tag_365:\n        /* \"#utility.yul\":735:738   */\n      0x00\n        /* \"#utility.yul\":763:802   */\n      tag_395\n        /* \"#utility.yul\":796:801   */\n      dup3\n        /* \"#utility.yul\":763:802   */\n      tag_361\n      jump\t// in\n    tag_395:\n        /* \"#utility.yul\":818:889   */\n      tag_396\n        /* \"#utility.yul\":882:888   */\n      dup2\n        /* \"#utility.yul\":877:880   */\n      dup6\n        /* \"#utility.yul\":818:889   */\n      tag_362\n      jump\t// in\n    tag_396:\n        /* \"#utility.yul\":811:889   */\n      swap4\n      pop\n        /* \"#utility.yul\":898:963   */\n      tag_397\n        /* \"#utility.yul\":956:962   */\n      dup2\n        /* \"#utility.yul\":951:954   */\n      dup6\n        /* \"#utility.yul\":944:948   */\n      0x20\n        /* \"#utility.yul\":937:942   */\n      dup7\n        /* \"#utility.yul\":933:949   */\n      add\n        /* \"#utility.yul\":898:963   */\n      tag_363\n      jump\t// in\n    tag_397:\n        /* \"#utility.yul\":988:1017   */\n      tag_398\n        /* \"#utility.yul\":1010:1016   */\n      dup2\n        /* \"#utility.yul\":988:1017   */\n      tag_364\n      jump\t// in\n    tag_398:\n        /* \"#utility.yul\":983:986   */\n      dup5\n        /* \"#utility.yul\":979:1018   */\n      add\n        /* \"#utility.yul\":972:1018   */\n      swap2\n      pop\n        /* \"#utility.yul\":739:1024   */\n      pop\n        /* \"#utility.yul\":647:1024   */\n      swap3\n      swap2\n      pop\n      pop\n      jump\t// out\n        /* \"#utility.yul\":1030:1343   */\n    tag_48:\n        /* \"#utility.yul\":1143:1147   */\n      0x00\n        /* \"#utility.yul\":1181:1183   */\n      0x20\n        /* \"#utility.yul\":1170:1179   */\n      dup3\n        /* \"#utility.yul\":1166:1184   */\n      add\n        /* \"#utility.yul\":1158:1184   */\n      swap1\n      pop\n        /* \"#utility.yul\":1230:1239   */\n      dup2\n        /* \"#utility.yul\":1224:1228   */\n      dup2\n        /* \"#utility.yul\":1220:1240   */\n      sub\n        /* \"#utility.yul\":1216:1217   */\n      0x00\n        /* \"#utility.yul\":1205:1214   */\n      dup4\n        /* \"#utility.yul\":1201:1218   */\n      add\n        /* \"#utility.yul\":1194:1241   */\n      mstore\n        /* \"#utility.yul\":1258:1336   */\n      tag_400\n        /* \"#utility.yul\":1331:1335   */\n      dup2\n        /* \"#utility.yul\":1322:1328   */\n      dup5\n        /* \"#utility.yul\":1258:1336   */\n      tag_365\n      jump\t// in\n    tag_400:\n        /* \"#utility.yul\":1250:1336   */\n      swap1\n      pop\n        /* \"#utility.yul\":1030:1343   */\n      swap3\n      swap2\n      pop\n      pop\n      jump\t// out\n        /* \"#utility.yul\":1430:1547   */\n    tag_367:\n        /* \"#utility.yul\":1539:1540   */\n      0x00\n        /* \"#utility.yul\":1536:1537   */\n      dup1\n        /* \"#utility.yul\":1529:1541   */\n      revert\n        /* \"#utility.yul\":1676:1802   */\n    tag_369:\n        /* \"#utility.yul\":1713:1720   */\n      0x00\n        /* \"#utility.yul\":1753:1795   */\n      0xffffffffffffffffffffffffffffffffffffffff\n        /* \"#utility.yul\":1746:1751   */\n      dup3\n        /* \"#utility.yul\":1742:1796   */\n      and\n        /* \"#utility.yul\":1731:1796   */\n      swap1\n      pop\n        /* \"#utility.yul\":1676:1802   */\n      swap2\n      swap1\n      pop\n      jump\t// out\n        /* \"#utility.yul\":1808:1904   */\n    tag_370:\n        /* \"#utility.yul\":1845:1852   */\n      0x00\n        /* \"#utility.yul\":1874:1898   */\n      tag_406\n        /* \"#utility.yul\":1892:1897   */\n      dup3\n        /* \"#utility.yul\":1874:1898   */\n      tag_369\n      jump\t// in\n    tag_406:\n        /* \"#utility.yul\":1863:1898   */\n      swap1\n      pop\n        /* \"#utility.yul\":1808:1904   */\n      swap2\n      swap1\n      pop\n      jump\t// out\n        /* \"#utility.yul\":1910:2032   */\n    tag_371:\n        /* \"#utility.yul\":1983:2007   */\n      tag_408\n        /* \"#utility.yul\":2001:2006   */\n      dup2\n        /* \"#utility.yul\":1983:2007   */\n      tag_370\n      jump\t// in\n    tag_408:\n        /* \"#utility.yul\":1976:1981   */\n      dup2\n        /* \"#utility.yul\":1973:2008   */\n      eq\n        /* \"#utility.yul\":1963:2026   */\n      tag_409\n      jumpi\n        /* \"#utility.yul\":2022:2023   */\n      0x00\n        /* \"#utility.yul\":2019:2020   */\n      dup1\n        /* \"#utility.yul\":2012:2024   */\n      revert\n        /* \"#utility.yul\":1963:2026   */\n    tag_409:\n        /* \"#utility.yul\":1910:2032   */\n      pop\n      jump\t// out\n        /* \"#utility.yul\":2038:2177   */\n    tag_372:\n        /* \"#utility.yul\":2084:2089   */\n      0x00\n        /* \"#utility.yul\":2122:2128   */\n      dup2\n        /* \"#utility.yul\":2109:2129   */\n      calldataload\n        /* \"#utility.yul\":2100:2129   */\n      swap1\n      pop\n        /* \"#utility.yul\":2138:2171   */\n      tag_411\n        /* \"#utility.yul\":2165:2170   */\n      dup2\n        /* \"#utility.yul\":2138:2171   */\n      tag_371\n      jump\t// in\n    tag_411:\n        /* \"#utility.yul\":2038:2177   */\n      swap3\n      swap2\n      pop\n      pop\n      jump\t// out\n        /* \"#utility.yul\":2183:2260   */\n    tag_373:\n        /* \"#utility.yul\":2220:2227   */\n      0x00\n        /* \"#utility.yul\":2249:2254   */\n      dup2\n        /* \"#utility.yul\":2238:2254   */\n      swap1\n      pop\n        /* \"#utility.yul\":2183:2260   */\n      swap2\n      swap1\n      pop\n      jump\t// out\n        /* \"#utility.yul\":2266:2388   */\n    tag_374:\n        /* \"#utility.yul\":2339:2363   */\n      tag_414\n        /* \"#utility.yul\":2357:2362   */\n      dup2\n        /* \"#utility.yul\":2339:2363   */\n      tag_373\n      jump\t// in\n    tag_414:\n        /* \"#utility.yul\":2332:2337   */\n      dup2\n        /* \"#utility.yul\":2329:2364   */\n      eq\n        /* \"#utility.yul\":2319:2382   */\n      tag_415\n      jumpi\n        /* \"#utility.yul\":2378:2379   */\n      0x00\n        /* \"#utility.yul\":2375:2376   */\n      dup1\n        /* \"#utility.yul\":2368:2380   */\n      revert\n        /* \"#utility.yul\":2319:2382   */\n    tag_415:\n        /* \"#utility.yul\":2266:2388   */\n      pop\n      jump\t// out\n        /* \"#utility.yul\":2394:2533   */\n    tag_375:\n        /* \"#utility.yul\":2440:2445   */\n      0x00\n        /* \"#utility.yul\":2478:2484   */\n      dup2\n        /* \"#utility.yul\":2465:2485   */\n      calldataload\n        /* \"#utility.yul\":2456:2485   */\n      swap1\n      pop\n        /* \"#utility.yul\":2494:2527   */\n      tag_417\n        /* \"#utility.yul\":2521:2526   */\n      dup2\n        /* \"#utility.yul\":2494:2527   */\n      tag_374\n      jump\t// in\n    tag_417:\n        /* \"#utility.yul\":2394:2533   */\n      swap3\n      swap2\n      pop\n      pop\n      jump\t// out\n        /* \"#utility.yul\":2539:3013   */\n    tag_51:\n        /* \"#utility.yul\":2607:2613   */\n      0x00\n        /* \"#utility.yul\":2615:2621   */\n      dup1\n        /* \"#utility.yul\":2664:2666   */\n      0x40\n        /* \"#utility.yul\":2652:2661   */\n      dup4\n        /* \"#utility.yul\":2643:2650   */\n      dup6\n        /* \"#utility.yul\":2639:2662   */\n      sub\n        /* \"#utility.yul\":2635:2667   */\n      slt\n        /* \"#utility.yul\":2632:2751   */\n      iszero\n      tag_419\n      jumpi\n        /* \"#utility.yul\":2670:2749   */\n      tag_420\n      tag_367\n      jump\t// in\n    tag_420:\n        /* \"#utility.yul\":2632:2751   */\n    tag_419:\n        /* \"#utility.yul\":2790:2791   */\n      0x00\n        /* \"#utility.yul\":2815:2868   */\n      tag_421\n        /* \"#utility.yul\":2860:2867   */\n      dup6\n        /* \"#utility.yul\":2851:2857   */\n      dup3\n        /* \"#utility.yul\":2840:2849   */\n      dup7\n        /* \"#utility.yul\":2836:2858   */\n      add\n        /* \"#utility.yul\":2815:2868   */\n      tag_372\n      jump\t// in\n    tag_421:\n        /* \"#utility.yul\":2805:2868   */\n      swap3\n      pop\n        /* \"#utility.yul\":2761:2878   */\n      pop\n        /* \"#utility.yul\":2917:2919   */\n      0x20\n        /* \"#utility.yul\":2943:2996   */\n      tag_422\n        /* \"#utility.yul\":2988:2995   */\n      dup6\n        /* \"#utility.yul\":2979:2985   */\n      dup3\n        /* \"#utility.yul\":2968:2977   */\n      dup7\n        /* \"#utility.yul\":2964:2986   */\n      add\n        /* \"#utility.yul\":2943:2996   */\n      tag_375\n      jump\t// in\n    tag_422:\n        /* \"#utility.yul\":2933:2996   */\n      swap2\n      pop\n        /* \"#utility.yul\":2888:3006   */\n      pop\n        /* \"#utility.yul\":2539:3013   */\n      swap3\n      pop\n      swap3\n      swap1\n      pop\n      jump\t// out\n        /* \"#utility.yul\":3019:3109   */\n    tag_376:\n        /* \"#utility.yul\":3053:3060   */\n      0x00\n        /* \"#utility.yul\":3096:3101   */\n      dup2\n        /* \"#utility.yul\":3089:3102   */\n      iszero\n        /* \"#utility.yul\":3082:3103   */\n      iszero\n        /* \"#utility.yul\":3071:3103   */\n      swap1\n      pop\n        /* \"#utility.yul\":3019:3109   */\n      swap2\n      swap1\n      pop\n      jump\t// out\n        /* \"#utility.yul\":3115:3224   */\n    tag_377:\n        /* \"#utility.yul\":3196:3217   */\n      tag_425\n        /* \"#utility.yul\":3211:3216   */\n      dup2\n        /* \"#utility.yul\":3196:3217   */\n      tag_376\n      jump\t// in\n    tag_425:\n        /* \"#utility.yul\":3191:3194   */\n      dup3\n        /* \"#utility.yul\":3184:3218   */\n      mstore\n        /* \"#utility.yul\":3115:3224   */\n      pop\n      pop\n      jump\t// out\n        /* \"#utility.yul\":3230:3440   */\n    tag_54:\n        /* \"#utility.yul\":3317:3321   */\n      0x00\n        /* \"#utility.yul\":3355:3357   */\n      0x20\n        /* \"#utility.yul\":3344:3353   */\n      dup3\n        /* \"#utility.yul\":3340:3358   */\n      add\n        /* \"#utility.yul\":3332:3358   */\n      swap1\n      pop\n        /* \"#utility.yul\":3368:3433   */\n      tag_427\n        /* \"#utility.yul\":3430:3431   */\n      0x00\n        /* \"#utility.yul\":3419:3428   */\n      dup4\n        /* \"#utility.yul\":3415:3432   */\n      add\n        /* \"#utility.yul\":3406:3412   */\n      dup5\n        /* \"#utility.yul\":3368:3433   */\n      tag_377\n      jump\t// in\n    tag_427:\n        /* \"#utility.yul\":3230:3440   */\n      swap3\n      swap2\n      pop\n      pop\n      jump\t// out\n        /* \"#utility.yul\":3446:3564   */\n    tag_378:\n        /* \"#utility.yul\":3533:3557   */\n      tag_429\n        /* \"#utility.yul\":3551:3556   */\n      dup2\n        /* \"#utility.yul\":3533:3557   */\n      tag_370\n      jump\t// in\n    tag_429:\n        /* \"#utility.yul\":3528:3531   */\n      dup3\n        /* \"#utility.yul\":3521:3558   */\n      mstore\n        /* \"#utility.yul\":3446:3564   */\n      pop\n      pop\n      jump\t// out\n        /* \"#utility.yul\":3570:3792   */\n    tag_58:\n        /* \"#utility.yul\":3663:3667   */\n      0x00\n        /* \"#utility.yul\":3701:3703   */\n      0x20\n        /* \"#utility.yul\":3690:3699   */\n      dup3\n        /* \"#utility.yul\":3686:3704   */\n      add\n        /* \"#utility.yul\":3678:3704   */\n      swap1\n      pop\n        /* \"#utility.yul\":3714:3785   */\n      tag_431\n        /* \"#utility.yul\":3782:3783   */\n      0x00\n        /* \"#utility.yul\":3771:3780   */\n      dup4\n        /* \"#utility.yul\":3767:3784   */\n      add\n        /* \"#utility.yul\":3758:3764   */\n      dup5\n        /* \"#utility.yul\":3714:3785   */\n      tag_378\n      jump\t// in\n    tag_431:\n        /* \"#utility.yul\":3570:3792   */\n      swap3\n      swap2\n      pop\n      pop\n      jump\t// out\n        /* \"#utility.yul\":3798:3916   */\n    tag_379:\n        /* \"#utility.yul\":3885:3909   */\n      tag_433\n        /* \"#utility.yul\":3903:3908   */\n      dup2\n        /* \"#utility.yul\":3885:3909   */\n      tag_373\n      jump\t// in\n    tag_433:\n        /* \"#utility.yul\":3880:3883   */\n      dup3\n        /* \"#utility.yul\":3873:3910   */\n      mstore\n        /* \"#utility.yul\":3798:3916   */\n      pop\n      pop\n      jump\t// out\n        /* \"#utility.yul\":3922:4144   */\n    tag_62:\n        /* \"#utility.yul\":4015:4019   */\n      0x00\n        /* \"#utility.yul\":4053:4055   */\n      0x20\n        /* \"#utility.yul\":4042:4051   */\n      dup3\n        /* \"#utility.yul\":4038:4056   */\n      add\n        /* \"#utility.yul\":4030:4056   */\n      swap1\n      pop\n        /* \"#utility.yul\":4066:4137   */\n      tag_435\n        /* \"#utility.yul\":4134:4135   */\n      0x00\n        /* \"#utility.yul\":4123:4132   */\n      dup4\n        /* \"#utility.yul\":4119:4136   */\n      add\n        /* \"#utility.yul\":4110:4116   */\n      dup5\n        /* \"#utility.yul\":4066:4137   */\n      tag_379\n      jump\t// in\n    tag_435:\n        /* \"#utility.yul\":3922:4144   */\n      swap3\n      swap2\n      pop\n      pop\n      jump\t// out\n        /* \"#utility.yul\":4150:4479   */\n    tag_65:\n        /* \"#utility.yul\":4209:4215   */\n      0x00\n        /* \"#utility.yul\":4258:4260   */\n      0x20\n        /* \"#utility.yul\":4246:4255   */\n      dup3\n        /* \"#utility.yul\":4237:4244   */\n      dup5\n        /* \"#utility.yul\":4233:4256   */\n      sub\n        /* \"#utility.yul\":4229:4261   */\n      slt\n        /* \"#utility.yul\":4226:4345   */\n      iszero\n      tag_437\n      jumpi\n        /* \"#utility.yul\":4264:4343   */\n      tag_438\n      tag_367\n      jump\t// in\n    tag_438:\n        /* \"#utility.yul\":4226:4345   */\n    tag_437:\n        /* \"#utility.yul\":4384:4385   */\n      0x00\n        /* \"#utility.yul\":4409:4462   */\n      tag_439\n        /* \"#utility.yul\":4454:4461   */\n      dup5\n        /* \"#utility.yul\":4445:4451   */\n      dup3\n        /* \"#utility.yul\":4434:4443   */\n      dup6\n        /* \"#utility.yul\":4430:4452   */\n      add\n        /* \"#utility.yul\":4409:4462   */\n      tag_375\n      jump\t// in\n    tag_439:\n        /* \"#utility.yul\":4399:4462   */\n      swap2\n      pop\n        /* \"#utility.yul\":4355:4472   */\n      pop\n        /* \"#utility.yul\":4150:4479   */\n      swap3\n      swap2\n      pop\n      pop\n      jump\t// out\n        /* \"#utility.yul\":4485:5104   */\n    tag_69:\n        /* \"#utility.yul\":4562:4568   */\n      0x00\n        /* \"#utility.yul\":4570:4576   */\n      dup1\n        /* \"#utility.yul\":4578:4584   */\n      0x00\n        /* \"#utility.yul\":4627:4629   */\n      0x60\n        /* \"#utility.yul\":4615:4624   */\n      dup5\n        /* \"#utility.yul\":4606:4613   */\n      dup7\n        /* \"#utility.yul\":4602:4625   */\n      sub\n        /* \"#utility.yul\":4598:4630   */\n      slt\n        /* \"#utility.yul\":4595:4714   */\n      iszero\n      tag_441\n      jumpi\n        /* \"#utility.yul\":4633:4712   */\n      tag_442\n      tag_367\n      jump\t// in\n    tag_442:\n        /* \"#utility.yul\":4595:4714   */\n    tag_441:\n        /* \"#utility.yul\":4753:4754   */\n      0x00\n        /* \"#utility.yul\":4778:4831   */\n      tag_443\n        /* \"#utility.yul\":4823:4830   */\n      dup7\n        /* \"#utility.yul\":4814:4820   */\n      dup3\n        /* \"#utility.yul\":4803:4812   */\n      dup8\n        /* \"#utility.yul\":4799:4821   */\n      add\n        /* \"#utility.yul\":4778:4831   */\n      tag_372\n      jump\t// in\n    tag_443:\n        /* \"#utility.yul\":4768:4831   */\n      swap4\n      pop\n        /* \"#utility.yul\":4724:4841   */\n      pop\n        /* \"#utility.yul\":4880:4882   */\n      0x20\n        /* \"#utility.yul\":4906:4959   */\n      tag_444\n        /* \"#utility.yul\":4951:4958   */\n      dup7\n        /* \"#utility.yul\":4942:4948   */\n      dup3\n        /* \"#utility.yul\":4931:4940   */\n      dup8\n        /* \"#utility.yul\":4927:4949   */\n      add\n        /* \"#utility.yul\":4906:4959   */\n      tag_372\n      jump\t// in\n    tag_444:\n        /* \"#utility.yul\":4896:4959   */\n      swap3\n      pop\n        /* \"#utility.yul\":4851:4969   */\n      pop\n        /* \"#utility.yul\":5008:5010   */\n      0x40\n        /* \"#utility.yul\":5034:5087   */\n      tag_445\n        /* \"#utility.yul\":5079:5086   */\n      dup7\n        /* \"#utility.yul\":5070:5076   */\n      dup3\n        /* \"#utility.yul\":5059:5068   */\n      dup8\n        /* \"#utility.yul\":5055:5077   */\n      add\n        /* \"#utility.yul\":5034:5087   */\n      tag_375\n      jump\t// in\n    tag_445:\n        /* \"#utility.yul\":5024:5087   */\n      swap2\n      pop\n        /* \"#utility.yul\":4979:5097   */\n      pop\n        /* \"#utility.yul\":4485:5104   */\n      swap3\n      pop\n      swap3\n      pop\n      swap3\n      jump\t// out\n        /* \"#utility.yul\":5110:5439   */\n    tag_77:\n        /* \"#utility.yul\":5169:5175   */\n      0x00\n        /* \"#utility.yul\":5218:5220   */\n      0x20\n        /* \"#utility.yul\":5206:5215   */\n      dup3\n        /* \"#utility.yul\":5197:5204   */\n      dup5\n        /* \"#utility.yul\":5193:5216   */\n      sub\n        /* \"#utility.yul\":5189:5221   */\n      slt\n        /* \"#utility.yul\":5186:5305   */\n      iszero\n      tag_447\n      jumpi\n        /* \"#utility.yul\":5224:5303   */\n      tag_448\n      tag_367\n      jump\t// in\n    tag_448:\n        /* \"#utility.yul\":5186:5305   */\n    tag_447:\n        /* \"#utility.yul\":5344:5345   */\n      0x00\n        /* \"#utility.yul\":5369:5422   */\n      tag_449\n        /* \"#utility.yul\":5414:5421   */\n      dup5\n        /* \"#utility.yul\":5405:5411   */\n      dup3\n        /* \"#utility.yul\":5394:5403   */\n      dup6\n        /* \"#utility.yul\":5390:5412   */\n      add\n        /* \"#utility.yul\":5369:5422   */\n      tag_372\n      jump\t// in\n    tag_449:\n        /* \"#utility.yul\":5359:5422   */\n      swap2\n      pop\n        /* \"#utility.yul\":5315:5432   */\n      pop\n        /* \"#utility.yul\":5110:5439   */\n      swap3\n      swap2\n      pop\n      pop\n      jump\t// out\n        /* \"#utility.yul\":5445:5531   */\n    tag_380:\n        /* \"#utility.yul\":5480:5487   */\n      0x00\n        /* \"#utility.yul\":5520:5524   */\n      0xff\n        /* \"#utility.yul\":5513:5518   */\n      dup3\n        /* \"#utility.yul\":5509:5525   */\n      and\n        /* \"#utility.yul\":5498:5525   */\n      swap1\n      pop\n        /* \"#utility.yul\":5445:5531   */\n      swap2\n      swap1\n      pop\n      jump\t// out\n        /* \"#utility.yul\":5537:5649   */\n    tag_381:\n        /* \"#utility.yul\":5620:5642   */\n      tag_452\n        /* \"#utility.yul\":5636:5641   */\n      dup2\n        /* \"#utility.yul\":5620:5642   */\n      tag_380\n      jump\t// in\n    tag_452:\n        /* \"#utility.yul\":5615:5618   */\n      dup3\n        /* \"#utility.yul\":5608:5643   */\n      mstore\n        /* \"#utility.yul\":5537:5649   */\n      pop\n      pop\n      jump\t// out\n        /* \"#utility.yul\":5655:5869   */\n    tag_82:\n        /* \"#utility.yul\":5744:5748   */\n      0x00\n        /* \"#utility.yul\":5782:5784   */\n      0x20\n        /* \"#utility.yul\":5771:5780   */\n      dup3\n        /* \"#utility.yul\":5767:5785   */\n      add\n        /* \"#utility.yul\":5759:5785   */\n      swap1\n      pop\n        /* \"#utility.yul\":5795:5862   */\n      tag_454\n        /* \"#utility.yul\":5859:5860   */\n      0x00\n        /* \"#utility.yul\":5848:5857   */\n      dup4\n        /* \"#utility.yul\":5844:5861   */\n      add\n        /* \"#utility.yul\":5835:5841   */\n      dup5\n        /* \"#utility.yul\":5795:5862   */\n      tag_381\n      jump\t// in\n    tag_454:\n        /* \"#utility.yul\":5655:5869   */\n      swap3\n      swap2\n      pop\n      pop\n      jump\t// out\n        /* \"#utility.yul\":5875:6349   */\n    tag_151:\n        /* \"#utility.yul\":5943:5949   */\n      0x00\n        /* \"#utility.yul\":5951:5957   */\n      dup1\n        /* \"#utility.yul\":6000:6002   */\n      0x40\n        /* \"#utility.yul\":5988:5997   */\n      dup4\n        /* \"#utility.yul\":5979:5986   */\n      dup6\n        /* \"#utility.yul\":5975:5998   */\n      sub\n        /* \"#utility.yul\":5971:6003   */\n      slt\n        /* \"#utility.yul\":5968:6087   */\n      iszero\n      tag_456\n      jumpi\n        /* \"#utility.yul\":6006:6085   */\n      tag_457\n      tag_367\n      jump\t// in\n    tag_457:\n        /* \"#utility.yul\":5968:6087   */\n    tag_456:\n        /* \"#utility.yul\":6126:6127   */\n      0x00\n        /* \"#utility.yul\":6151:6204   */\n      tag_458\n        /* \"#utility.yul\":6196:6203   */\n      dup6\n        /* \"#utility.yul\":6187:6193   */\n      dup3\n        /* \"#utility.yul\":6176:6185   */\n      dup7\n        /* \"#utility.yul\":6172:6194   */\n      add\n        /* \"#utility.yul\":6151:6204   */\n      tag_372\n      jump\t// in\n    tag_458:\n        /* \"#utility.yul\":6141:6204   */\n      swap3\n      pop\n        /* \"#utility.yul\":6097:6214   */\n      pop\n        /* \"#utility.yul\":6253:6255   */\n      0x20\n        /* \"#utility.yul\":6279:6332   */\n      tag_459\n        /* \"#utility.yul\":6324:6331   */\n      dup6\n        /* \"#utility.yul\":6315:6321   */\n      dup3\n        /* \"#utility.yul\":6304:6313   */\n      dup7\n        /* \"#utility.yul\":6300:6322   */\n      add\n        /* \"#utility.yul\":6279:6332   */\n      tag_372\n      jump\t// in\n    tag_459:\n        /* \"#utility.yul\":6269:6332   */\n      swap2\n      pop\n        /* \"#utility.yul\":6224:6342   */\n      pop\n        /* \"#utility.yul\":5875:6349   */\n      swap3\n      pop\n      swap3\n      swap1\n      pop\n      jump\t// out\n        /* \"#utility.yul\":6355:6471   */\n    tag_382:\n        /* \"#utility.yul\":6425:6446   */\n      tag_461\n        /* \"#utility.yul\":6440:6445   */\n      dup2\n        /* \"#utility.yul\":6425:6446   */\n      tag_376\n      jump\t// in\n    tag_461:\n        /* \"#utility.yul\":6418:6423   */\n      dup2\n        /* \"#utility.yul\":6415:6447   */\n      eq\n        /* \"#utility.yul\":6405:6465   */\n      tag_462\n      jumpi\n        /* \"#utility.yul\":6461:6462   */\n      0x00\n        /* \"#utility.yul\":6458:6459   */\n      dup1\n        /* \"#utility.yul\":6451:6463   */\n      revert\n        /* \"#utility.yul\":6405:6465   */\n    tag_462:\n        /* \"#utility.yul\":6355:6471   */\n      pop\n      jump\t// out\n        /* \"#utility.yul\":6477:6610   */\n    tag_383:\n        /* \"#utility.yul\":6520:6525   */\n      0x00\n        /* \"#utility.yul\":6558:6564   */\n      dup2\n        /* \"#utility.yul\":6545:6565   */\n      calldataload\n        /* \"#utility.yul\":6536:6565   */\n      swap1\n      pop\n        /* \"#utility.yul\":6574:6604   */\n      tag_464\n        /* \"#utility.yul\":6598:6603   */\n      dup2\n        /* \"#utility.yul\":6574:6604   */\n      tag_382\n      jump\t// in\n    tag_464:\n        /* \"#utility.yul\":6477:6610   */\n      swap3\n      swap2\n      pop\n      pop\n      jump\t// out\n        /* \"#utility.yul\":6616:7084   */\n    tag_156:\n        /* \"#utility.yul\":6681:6687   */\n      0x00\n        /* \"#utility.yul\":6689:6695   */\n      dup1\n        /* \"#utility.yul\":6738:6740   */\n      0x40\n        /* \"#utility.yul\":6726:6735   */\n      dup4\n        /* \"#utility.yul\":6717:6724   */\n      dup6\n        /* \"#utility.yul\":6713:6736   */\n      sub\n        /* \"#utility.yul\":6709:6741   */\n      slt\n        /* \"#utility.yul\":6706:6825   */\n      iszero\n      tag_466\n      jumpi\n        /* \"#utility.yul\":6744:6823   */\n      tag_467\n      tag_367\n      jump\t// in\n    tag_467:\n        /* \"#utility.yul\":6706:6825   */\n    tag_466:\n        /* \"#utility.yul\":6864:6865   */\n      0x00\n        /* \"#utility.yul\":6889:6942   */\n      tag_468\n        /* \"#utility.yul\":6934:6941   */\n      dup6\n        /* \"#utility.yul\":6925:6931   */\n      dup3\n        /* \"#utility.yul\":6914:6923   */\n      dup7\n        /* \"#utility.yul\":6910:6932   */\n      add\n        /* \"#utility.yul\":6889:6942   */\n      tag_372\n      jump\t// in\n    tag_468:\n        /* \"#utility.yul\":6879:6942   */\n      swap3\n      pop\n        /* \"#utility.yul\":6835:6952   */\n      pop\n        /* \"#utility.yul\":6991:6993   */\n      0x20\n        /* \"#utility.yul\":7017:7067   */\n      tag_469\n        /* \"#utility.yul\":7059:7066   */\n      dup6\n        /* \"#utility.yul\":7050:7056   */\n      dup3\n        /* \"#utility.yul\":7039:7048   */\n      dup7\n        /* \"#utility.yul\":7035:7057   */\n      add\n        /* \"#utility.yul\":7017:7067   */\n      tag_383\n      jump\t// in\n    tag_469:\n        /* \"#utility.yul\":7007:7067   */\n      swap2\n      pop\n        /* \"#utility.yul\":6962:7077   */\n      pop\n        /* \"#utility.yul\":6616:7084   */\n      swap3\n      pop\n      swap3\n      swap1\n      pop\n      jump\t// out\n        /* \"#utility.yul\":7090:7270   */\n    tag_384:\n        /* \"#utility.yul\":7138:7215   */\n      0x4e487b7100000000000000000000000000000000000000000000000000000000\n        /* \"#utility.yul\":7135:7136   */\n      0x00\n        /* \"#utility.yul\":7128:7216   */\n      mstore\n        /* \"#utility.yul\":7235:7239   */\n      0x22\n        /* \"#utility.yul\":7232:7233   */\n      0x04\n        /* \"#utility.yul\":7225:7240   */\n      mstore\n        /* \"#utility.yul\":7259:7263   */\n      0x24\n        /* \"#utility.yul\":7256:7257   */\n      0x00\n        /* \"#utility.yul\":7249:7264   */\n      revert\n        /* \"#utility.yul\":7276:7596   */\n    tag_166:\n        /* \"#utility.yul\":7320:7326   */\n      0x00\n        /* \"#utility.yul\":7357:7358   */\n      0x02\n        /* \"#utility.yul\":7351:7355   */\n      dup3\n        /* \"#utility.yul\":7347:7359   */\n      div\n        /* \"#utility.yul\":7337:7359   */\n      swap1\n      pop\n        /* \"#utility.yul\":7404:7405   */\n      0x01\n        /* \"#utility.yul\":7398:7402   */\n      dup3\n        /* \"#utility.yul\":7394:7406   */\n      and\n        /* \"#utility.yul\":7425:7443   */\n      dup1\n        /* \"#utility.yul\":7415:7496   */\n      tag_472\n      jumpi\n        /* \"#utility.yul\":7481:7485   */\n      0x7f\n        /* \"#utility.yul\":7473:7479   */\n      dup3\n        /* \"#utility.yul\":7469:7486   */\n      and\n        /* \"#utility.yul\":7459:7486   */\n      swap2\n      pop\n        /* \"#utility.yul\":7415:7496   */\n    tag_472:\n        /* \"#utility.yul\":7543:7545   */\n      0x20\n        /* \"#utility.yul\":7535:7541   */\n      dup3\n        /* \"#utility.yul\":7532:7546   */\n      lt\n        /* \"#utility.yul\":7512:7530   */\n      dup2\n        /* \"#utility.yul\":7509:7547   */\n      sub\n        /* \"#utility.yul\":7506:7590   */\n      tag_473\n      jumpi\n        /* \"#utility.yul\":7562:7580   */\n      tag_474\n      tag_384\n      jump\t// in\n    tag_474:\n        /* \"#utility.yul\":7506:7590   */\n    tag_473:\n        /* \"#utility.yul\":7327:7596   */\n      pop\n        /* \"#utility.yul\":7276:7596   */\n      swap2\n      swap1\n      pop\n      jump\t// out\n        /* \"#utility.yul\":7602:7934   */\n    tag_183:\n        /* \"#utility.yul\":7723:7727   */\n      0x00\n        /* \"#utility.yul\":7761:7763   */\n      0x40\n        /* \"#utility.yul\":7750:7759   */\n      dup3\n        /* \"#utility.yul\":7746:7764   */\n      add\n        /* \"#utility.yul\":7738:7764   */\n      swap1\n      pop\n        /* \"#utility.yul\":7774:7845   */\n      tag_476\n        /* \"#utility.yul\":7842:7843   */\n      0x00\n        /* \"#utility.yul\":7831:7840   */\n      dup4\n        /* \"#utility.yul\":7827:7844   */\n      add\n        /* \"#utility.yul\":7818:7824   */\n      dup6\n        /* \"#utility.yul\":7774:7845   */\n      tag_379\n      jump\t// in\n    tag_476:\n        /* \"#utility.yul\":7855:7927   */\n      tag_477\n        /* \"#utility.yul\":7923:7925   */\n      0x20\n        /* \"#utility.yul\":7912:7921   */\n      dup4\n        /* \"#utility.yul\":7908:7926   */\n      add\n        /* \"#utility.yul\":7899:7905   */\n      dup5\n        /* \"#utility.yul\":7855:7927   */\n      tag_379\n      jump\t// in\n    tag_477:\n        /* \"#utility.yul\":7602:7934   */\n      swap4\n      swap3\n      pop\n      pop\n      pop\n      jump\t// out\n        /* \"#utility.yul\":7940:8120   */\n    tag_385:\n        /* \"#utility.yul\":7988:8065   */\n      0x4e487b7100000000000000000000000000000000000000000000000000000000\n        /* \"#utility.yul\":7985:7986   */\n      0x00\n        /* \"#utility.yul\":7978:8066   */\n      mstore\n        /* \"#utility.yul\":8085:8089   */\n      0x11\n        /* \"#utility.yul\":8082:8083   */\n      0x04\n        /* \"#utility.yul\":8075:8090   */\n      mstore\n        /* \"#utility.yul\":8109:8113   */\n      0x24\n        /* \"#utility.yul\":8106:8107   */\n      0x00\n        /* \"#utility.yul\":8099:8114   */\n      revert\n        /* \"#utility.yul\":8126:8320   */\n    tag_203:\n        /* \"#utility.yul\":8166:8170   */\n      0x00\n        /* \"#utility.yul\":8186:8206   */\n      tag_480\n        /* \"#utility.yul\":8204:8205   */\n      dup3\n        /* \"#utility.yul\":8186:8206   */\n      tag_373\n      jump\t// in\n    tag_480:\n        /* \"#utility.yul\":8181:8206   */\n      swap2\n      pop\n        /* \"#utility.yul\":8220:8240   */\n      tag_481\n        /* \"#utility.yul\":8238:8239   */\n      dup4\n        /* \"#utility.yul\":8220:8240   */\n      tag_373\n      jump\t// in\n    tag_481:\n        /* \"#utility.yul\":8215:8240   */\n      swap3\n      pop\n        /* \"#utility.yul\":8264:8265   */\n      dup3\n        /* \"#utility.yul\":8261:8262   */\n      dup3\n        /* \"#utility.yul\":8257:8266   */\n      sub\n        /* \"#utility.yul\":8249:8266   */\n      swap1\n      pop\n        /* \"#utility.yul\":8288:8289   */\n      dup2\n        /* \"#utility.yul\":8282:8286   */\n      dup2\n        /* \"#utility.yul\":8279:8290   */\n      gt\n        /* \"#utility.yul\":8276:8313   */\n      iszero\n      tag_482\n      jumpi\n        /* \"#utility.yul\":8293:8311   */\n      tag_483\n      tag_385\n      jump\t// in\n    tag_483:\n        /* \"#utility.yul\":8276:8313   */\n    tag_482:\n        /* \"#utility.yul\":8126:8320   */\n      swap3\n      swap2\n      pop\n      pop\n      jump\t// out\n        /* \"#utility.yul\":8326:8768   */\n    tag_295:\n        /* \"#utility.yul\":8475:8479   */\n      0x00\n        /* \"#utility.yul\":8513:8515   */\n      0x60\n        /* \"#utility.yul\":8502:8511   */\n      dup3\n        /* \"#utility.yul\":8498:8516   */\n      add\n        /* \"#utility.yul\":8490:8516   */\n      swap1\n      pop\n        /* \"#utility.yul\":8526:8597   */\n      tag_485\n        /* \"#utility.yul\":8594:8595   */\n      0x00\n        /* \"#utility.yul\":8583:8592   */\n      dup4\n        /* \"#utility.yul\":8579:8596   */\n      add\n        /* \"#utility.yul\":8570:8576   */\n      dup7\n        /* \"#utility.yul\":8526:8597   */\n      tag_378\n      jump\t// in\n    tag_485:\n        /* \"#utility.yul\":8607:8679   */\n      tag_486\n        /* \"#utility.yul\":8675:8677   */\n      0x20\n        /* \"#utility.yul\":8664:8673   */\n      dup4\n        /* \"#utility.yul\":8660:8678   */\n      add\n        /* \"#utility.yul\":8651:8657   */\n      dup6\n        /* \"#utility.yul\":8607:8679   */\n      tag_379\n      jump\t// in\n    tag_486:\n        /* \"#utility.yul\":8689:8761   */\n      tag_487\n        /* \"#utility.yul\":8757:8759   */\n      0x40\n        /* \"#utility.yul\":8746:8755   */\n      dup4\n        /* \"#utility.yul\":8742:8760   */\n      add\n        /* \"#utility.yul\":8733:8739   */\n      dup5\n        /* \"#utility.yul\":8689:8761   */\n      tag_379\n      jump\t// in\n    tag_487:\n        /* \"#utility.yul\":8326:8768   */\n      swap5\n      swap4\n      pop\n      pop\n      pop\n      pop\n      jump\t// out\n        /* \"#utility.yul\":8774:8965   */\n    tag_351:\n        /* \"#utility.yul\":8814:8817   */\n      0x00\n        /* \"#utility.yul\":8833:8853   */\n      tag_489\n        /* \"#utility.yul\":8851:8852   */\n      dup3\n        /* \"#utility.yul\":8833:8853   */\n      tag_373\n      jump\t// in\n    tag_489:\n        /* \"#utility.yul\":8828:8853   */\n      swap2\n      pop\n        /* \"#utility.yul\":8867:8887   */\n      tag_490\n        /* \"#utility.yul\":8885:8886   */\n      dup4\n        /* \"#utility.yul\":8867:8887   */\n      tag_373\n      jump\t// in\n    tag_490:\n        /* \"#utility.yul\":8862:8887   */\n      swap3\n      pop\n        /* \"#utility.yul\":8910:8911   */\n      dup3\n        /* \"#utility.yul\":8907:8908   */\n      dup3\n        /* \"#utility.yul\":8903:8912   */\n      add\n        /* \"#utility.yul\":8896:8912   */\n      swap1\n      pop\n        /* \"#utility.yul\":8931:8934   */\n      dup1\n        /* \"#utility.yul\":8928:8929   */\n      dup3\n        /* \"#utility.yul\":8925:8935   */\n      gt\n        /* \"#utility.yul\":8922:8958   */\n      iszero\n      tag_491\n      jumpi\n        /* \"#utility.yul\":8938:8956   */\n      tag_492\n      tag_385\n      jump\t// in\n    tag_492:\n        /* \"#utility.yul\":8922:8958   */\n    tag_491:\n        /* \"#utility.yul\":8774:8965   */\n      swap3\n      swap2\n      pop\n      pop\n      jump\t// out\n\n    auxdata: 0xa26469706673582212208c0a142dbaccc94d3be7214cd62468d8159d7fe58c7e5b5945d08eb07d4eb6ac64736f6c63430008180033\n}\n",
				"bytecode": {
					"linkReferences": {},
					"object": "608060405234801562000010575f80fd5b50604051620034e3380380620034e3833981810160405281019062000036919062000a28565b336040518060400160405280600e81526020017f54696d625377617020546f6b656e0000000000000000000000000000000000008152506040518060400160405280600581526020017f54494d42530000000000000000000000000000000000000000000000000000008152508160039081620000b4919062000cdc565b508060049081620000c6919062000cdc565b5050505f73ffffffffffffffffffffffffffffffffffffffff168173ffffffffffffffffffffffffffffffffffffffff16036200013c575f6040517f1e4fbdf700000000000000000000000000000000000000000000000000000000815260040162000133919062000dd1565b60405180910390fd5b6200014d816200041760201b60201c565b5060016200017062000164620004da60201b60201c565b6200050360201b60201c565b5f01819055505f73ffffffffffffffffffffffffffffffffffffffff168373ffffffffffffffffffffffffffffffffffffffff1603620001dc576040517fd92e233d00000000000000000000000000000000000000000000000000000000815260040160405180910390fd5b5f820362000216576040517f1f2a200500000000000000000000000000000000000000000000000000000000815260040160405180910390fd5b6a52b7d2dcc80cd2e40000008211156200027657816a52b7d2dcc80cd2e40000006040517f7333416e0000000000000000000000000000000000000000000000000000000081526004016200026d92919062000dfd565b60405180910390fd5b8260065f6101000a81548173ffffffffffffffffffffffffffffffffffffffff021916908373ffffffffffffffffffffffffffffffffffffffff16021790555080600a819055506001600c5f8573ffffffffffffffffffffffffffffffffffffffff1673ffffffffffffffffffffffffffffffffffffffff1681526020019081526020015f205f6101000a81548160ff0219169083151502179055506001600c5f3373ffffffffffffffffffffffffffffffffffffffff1673ffffffffffffffffffffffffffffffffffffffff1681526020019081526020015f205f6101000a81548160ff0219169083151502179055506200037983836200050c60201b60201c565b8273ffffffffffffffffffffffffffffffffffffffff165f73ffffffffffffffffffffffffffffffffffffffff167f4ab5be82436d353e61ca18726e984e561f5c1cc7c6d38b29d2553c790434705a60405160405180910390a37f5299e127ac8bdc64fd0e551dd406ba1e1fbaebc96d458ce9b1a5e69caecdf3765f826040516200040692919062000e69565b60405180910390a150505062000f51565b5f60055f9054906101000a900473ffffffffffffffffffffffffffffffffffffffff1690508160055f6101000a81548173ffffffffffffffffffffffffffffffffffffffff021916908373ffffffffffffffffffffffffffffffffffffffff1602179055508173ffffffffffffffffffffffffffffffffffffffff168173ffffffffffffffffffffffffffffffffffffffff167f8be0079c531659141344cd1fd0a4f28419497f9722a3daafe3b4186f6b6457e060405160405180910390a35050565b5f7f9b779b17422d0df92223018b32b4d1fa46e071723d6817e2486d003becc55f005f1b905090565b5f819050919050565b5f73ffffffffffffffffffffffffffffffffffffffff168273ffffffffffffffffffffffffffffffffffffffff16036200057f575f6040517fec442f0500000000000000000000000000000000000000000000000000000000815260040162000576919062000dd1565b60405180910390fd5b620005925f83836200059660201b60201c565b5050565b600d5f9054906101000a900460ff1615620005dd576040517fcd1fda9f00000000000000000000000000000000000000000000000000000000815260040160405180910390fd5b5f73ffffffffffffffffffffffffffffffffffffffff168373ffffffffffffffffffffffffffffffffffffffff16141580156200064657505f73ffffffffffffffffffffffffffffffffffffffff168273ffffffffffffffffffffffffffffffffffffffff1614155b156200074f575f600b54118015620006a55750600c5f8473ffffffffffffffffffffffffffffffffffffffff1673ffffffffffffffffffffffffffffffffffffffff1681526020019081526020015f205f9054906101000a900460ff16155b8015620006f95750600c5f8373ffffffffffffffffffffffffffffffffffffffff1673ffffffffffffffffffffffffffffffffffffffff1681526020019081526020015f205f9054906101000a900460ff16155b156200074e57600b548111156200074d5780600b546040517f8112e4e20000000000000000000000000000000000000000000000000000000081526004016200074492919062000dfd565b60405180910390fd5b5b5b620007628383836200076760201b60201c565b505050565b5f73ffffffffffffffffffffffffffffffffffffffff168373ffffffffffffffffffffffffffffffffffffffff1603620007bb578060025f828254620007ae919062000ec1565b925050819055506200088c565b5f805f8573ffffffffffffffffffffffffffffffffffffffff1673ffffffffffffffffffffffffffffffffffffffff1681526020019081526020015f205490508181101562000847578381836040517fe450d38c0000000000000000000000000000000000000000000000000000000081526004016200083e9392919062000efb565b60405180910390fd5b8181035f808673ffffffffffffffffffffffffffffffffffffffff1673ffffffffffffffffffffffffffffffffffffffff1681526020019081526020015f2081905550505b5f73ffffffffffffffffffffffffffffffffffffffff168273ffffffffffffffffffffffffffffffffffffffff1603620008d5578060025f82825403925050819055506200091f565b805f808473ffffffffffffffffffffffffffffffffffffffff1673ffffffffffffffffffffffffffffffffffffffff1681526020019081526020015f205f82825401925050819055505b8173ffffffffffffffffffffffffffffffffffffffff168373ffffffffffffffffffffffffffffffffffffffff167fddf252ad1be2c89b69c2b068fc378daa952ba7f163c4a11628f55a4df523b3ef836040516200097e919062000f36565b60405180910390a3505050565b5f80fd5b5f73ffffffffffffffffffffffffffffffffffffffff82169050919050565b5f620009ba826200098f565b9050919050565b620009cc81620009ae565b8114620009d7575f80fd5b50565b5f81519050620009ea81620009c1565b92915050565b5f819050919050565b62000a0481620009f0565b811462000a0f575f80fd5b50565b5f8151905062000a2281620009f9565b92915050565b5f805f6060848603121562000a425762000a416200098b565b5b5f62000a5186828701620009da565b935050602062000a648682870162000a12565b925050604062000a778682870162000a12565b9150509250925092565b5f81519050919050565b7f4e487b71000000000000000000000000000000000000000000000000000000005f52604160045260245ffd5b7f4e487b71000000000000000000000000000000000000000000000000000000005f52602260045260245ffd5b5f600282049050600182168062000afd57607f821691505b60208210810362000b135762000b1262000ab8565b5b50919050565b5f819050815f5260205f209050919050565b5f6020601f8301049050919050565b5f82821b905092915050565b5f6008830262000b777fffffffffffffffffffffffffffffffffffffffffffffffffffffffffffffffff8262000b3a565b62000b83868362000b3a565b95508019841693508086168417925050509392505050565b5f819050919050565b5f62000bc462000bbe62000bb884620009f0565b62000b9b565b620009f0565b9050919050565b5f819050919050565b62000bdf8362000ba4565b62000bf762000bee8262000bcb565b84845462000b46565b825550505050565b5f90565b62000c0d62000bff565b62000c1a81848462000bd4565b505050565b5b8181101562000c415762000c355f8262000c03565b60018101905062000c20565b5050565b601f82111562000c905762000c5a8162000b19565b62000c658462000b2b565b8101602085101562000c75578190505b62000c8d62000c848562000b2b565b83018262000c1f565b50505b505050565b5f82821c905092915050565b5f62000cb25f198460080262000c95565b1980831691505092915050565b5f62000ccc838362000ca1565b9150826002028217905092915050565b62000ce78262000a81565b67ffffffffffffffff81111562000d035762000d0262000a8b565b5b62000d0f825462000ae5565b62000d1c82828562000c45565b5f60209050601f83116001811462000d52575f841562000d3d578287015190505b62000d49858262000cbf565b86555062000db8565b601f19841662000d628662000b19565b5f5b8281101562000d8b5784890151825560018201915060208501945060208101905062000d64565b8683101562000dab578489015162000da7601f89168262000ca1565b8355505b6001600288020188555050505b505050505050565b62000dcb81620009ae565b82525050565b5f60208201905062000de65f83018462000dc0565b92915050565b62000df781620009f0565b82525050565b5f60408201905062000e125f83018562000dec565b62000e21602083018462000dec565b9392505050565b5f819050919050565b5f62000e5162000e4b62000e458462000e28565b62000b9b565b620009f0565b9050919050565b62000e638162000e31565b82525050565b5f60408201905062000e7e5f83018562000e58565b62000e8d602083018462000dec565b9392505050565b7f4e487b71000000000000000000000000000000000000000000000000000000005f52601160045260245ffd5b5f62000ecd82620009f0565b915062000eda83620009f0565b925082820190508082111562000ef55762000ef462000e94565b5b92915050565b5f60608201905062000f105f83018662000dc0565b62000f1f602083018562000dec565b62000f2e604083018462000dec565b949350505050565b5f60208201905062000f4b5f83018462000dec565b92915050565b6125848062000f5f5f395ff3fe608060405234801561000f575f80fd5b506004361061020f575f3560e01c8063715018a611610123578063a1bdb15e116100ab578063d89a6fa61161007a578063d89a6fa6146105a5578063dd62ed3e146105c3578063e4a34dce146105f3578063f0f442601461060f578063f2fde38b1461062b5761020f565b8063a1bdb15e1461051d578063a9059cbb14610539578063a9e7572314610569578063ae11c4bc146105875761020f565b806383d5d801116100f257806383d5d8011461049d5780638456cb59146104bb5780638bf55409146104c55780638da5cb5b146104e157806395d89b41146104ff5761020f565b8063715018a61461042b57806379cc6790146104355780637c562a94146104515780637ffbe2411461046d5761020f565b8063313ce567116101a657806342966c681161017557806342966c681461038557806345c952cb146103a15780635c975abb146103bf57806361d027b3146103dd57806370a08231146103fb5761020f565b8063313ce567146103215780633a03171c1461033f5780633f4ba83a1461035d5780634214e0af146103675761020f565b806321d66353116101e257806321d663531461029d57806323b872dd146102b9578063296ed9f4146102e95780633028f63a146103055761020f565b806306fdde0314610213578063095ea7b3146102315780630c56ae3b1461026157806318160ddd1461027f575b5f80fd5b61021b610647565b6040516102289190612110565b60405180910390f35b61024b600480360381019061024691906121c1565b6106d7565b6040516102589190612219565b60405180910390f35b6102696106f9565b6040516102769190612241565b60405180910390f35b61028761071e565b6040516102949190612269565b60405180910390f35b6102b760048036038101906102b29190612282565b610727565b005b6102d360048036038101906102ce91906122ad565b6107ad565b6040516102e09190612219565b60405180910390f35b61030360048036038101906102fe91906121c1565b6107db565b005b61031f600480360381019061031a91906122fd565b610a6e565b005b610329610c80565b6040516103369190612343565b60405180910390f35b610347610c88565b6040516103549190612269565b60405180910390f35b610365610c97565b005b61036f610cfd565b60405161037c9190612269565b60405180910390f35b61039f600480360381019061039a9190612282565b610d03565b005b6103a9610d17565b6040516103b69190612269565b60405180910390f35b6103c7610d1d565b6040516103d49190612219565b60405180910390f35b6103e5610d2f565b6040516103f29190612241565b60405180910390f35b610415600480360381019061041091906122fd565b610d54565b6040516104229190612269565b60405180910390f35b610433610d99565b005b61044f600480360381019061044a91906121c1565b610dac565b005b61046b600480360381019061046691906122fd565b610dcc565b005b610487600480360381019061048291906122fd565b610fde565b6040516104949190612219565b60405180910390f35b6104a5610ffb565b6040516104b29190612269565b60405180910390f35b6104c3610fff565b005b6104df60048036038101906104da9190612282565b611066565b005b6104e96110af565b6040516104f69190612241565b60405180910390f35b6105076110d7565b6040516105149190612110565b60405180910390f35b61053760048036038101906105329190612282565b611167565b005b610553600480360381019061054e91906121c1565b6111b0565b6040516105609190612219565b60405180910390f35b6105716111d2565b60405161057e9190612269565b60405180910390f35b61058f6111d8565b60405161059c9190612269565b60405180910390f35b6105ad6111fc565b6040516105ba9190612241565b60405180910390f35b6105dd60048036038101906105d8919061235c565b611221565b6040516105ea9190612269565b60405180910390f35b61060d600480360381019061060891906123c4565b6112a3565b005b610629600480360381019061062491906122fd565b6113b6565b005b610645600480360381019061064091906122fd565b6115ab565b005b6060600380546106569061242f565b80601f01602080910402602001604051908101604052809291908181526020018280546106829061242f565b80156106cd5780601f106106a4576101008083540402835291602001916106cd565b820191905f5260205f20905b8154815290600101906020018083116106b057829003601f168201915b5050505050905090565b5f806106e161162f565b90506106ee818585611636565b600191505092915050565b60075f9054906101000a900473ffffffffffffffffffffffffffffffffffffffff1681565b5f600254905090565b61072f611648565b5f8103610768576040517f1f2a200500000000000000000000000000000000000000000000000000000000815260040160405180910390fd5b7f5299e127ac8bdc64fd0e551dd406ba1e1fbaebc96d458ce9b1a5e69caecdf376600a548260405161079b92919061245f565b60405180910390a180600a8190555050565b5f806107b761162f565b90506107c48582856116cf565b6107cf858585611762565b60019150509392505050565b6107e3611852565b60075f9054906101000a900473ffffffffffffffffffffffffffffffffffffffff1673ffffffffffffffffffffffffffffffffffffffff163373ffffffffffffffffffffffffffffffffffffffff161415801561088d575060085f9054906101000a900473ffffffffffffffffffffffffffffffffffffffff1673ffffffffffffffffffffffffffffffffffffffff163373ffffffffffffffffffffffffffffffffffffffff1614155b80156108cc575061089c6110af565b73ffffffffffffffffffffffffffffffffffffffff163373ffffffffffffffffffffffffffffffffffffffff1614155b15610903576040517fcd2e8e8000000000000000000000000000000000000000000000000000000000815260040160405180910390fd5b5f73ffffffffffffffffffffffffffffffffffffffff168273ffffffffffffffffffffffffffffffffffffffff1603610968576040517fd92e233d00000000000000000000000000000000000000000000000000000000815260040160405180910390fd5b5f81036109a1576040517f1f2a200500000000000000000000000000000000000000000000000000000000815260040160405180910390fd5b5f6109aa61071e565b6a52b7d2dcc80cd2e40000006109c091906124b3565b905080821115610a095781816040517f7333416e000000000000000000000000000000000000000000000000000000008152600401610a0092919061245f565b60405180910390fd5b610a138383611874565b8273ffffffffffffffffffffffffffffffffffffffff167f64e4bb1bd66f16486c6ff3bf1e7ee4919e2e2dc7b134e2ed9fbd814a9949fe6b83604051610a599190612269565b60405180910390a250610a6a6118f3565b5050565b610a76611648565b5f73ffffffffffffffffffffffffffffffffffffffff168173ffffffffffffffffffffffffffffffffffffffff1603610adb576040517fd92e233d00000000000000000000000000000000000000000000000000000000815260040160405180910390fd5b5f73ffffffffffffffffffffffffffffffffffffffff1660075f9054906101000a900473ffffffffffffffffffffffffffffffffffffffff1673ffffffffffffffffffffffffffffffffffffffff1614610ba5575f600c5f60075f9054906101000a900473ffffffffffffffffffffffffffffffffffffffff1673ffffffffffffffffffffffffffffffffffffffff1673ffffffffffffffffffffffffffffffffffffffff1681526020019081526020015f205f6101000a81548160ff0219169083151502179055505b8060075f6101000a81548173ffffffffffffffffffffffffffffffffffffffff021916908373ffffffffffffffffffffffffffffffffffffffff1602179055506001600c5f8373ffffffffffffffffffffffffffffffffffffffff1673ffffffffffffffffffffffffffffffffffffffff1681526020019081526020015f205f6101000a81548160ff0219169083151502179055508073ffffffffffffffffffffffffffffffffffffffff167f6fca2e06bb34845f84427e65445730e7e00faf72ad37f6485b24de98f103bb0660405160405180910390a250565b5f6012905090565b6a52b7d2dcc80cd2e400000081565b610c9f611648565b5f600d5f6101000a81548160ff0219169083151502179055503373ffffffffffffffffffffffffffffffffffffffff167f5db9ee0a495bf2e6ff9c91a7834c1ba4fdd244a5e8aa4e537bd38aeae4b073aa60405160405180910390a2565b60095481565b610d14610d0e61162f565b8261190d565b50565b600a5481565b600d5f9054906101000a900460ff1681565b60065f9054906101000a900473ffffffffffffffffffffffffffffffffffffffff1681565b5f805f8373ffffffffffffffffffffffffffffffffffffffff1673ffffffffffffffffffffffffffffffffffffffff1681526020019081526020015f20549050919050565b610da1611648565b610daa5f61198c565b565b610dbe82610db861162f565b836116cf565b610dc8828261190d565b5050565b610dd4611648565b5f73ffffffffffffffffffffffffffffffffffffffff168173ffffffffffffffffffffffffffffffffffffffff1603610e39576040517fd92e233d00000000000000000000000000000000000000000000000000000000815260040160405180910390fd5b5f73ffffffffffffffffffffffffffffffffffffffff1660085f9054906101000a900473ffffffffffffffffffffffffffffffffffffffff1673ffffffffffffffffffffffffffffffffffffffff1614610f03575f600c5f60085f9054906101000a900473ffffffffffffffffffffffffffffffffffffffff1673ffffffffffffffffffffffffffffffffffffffff1673ffffffffffffffffffffffffffffffffffffffff1681526020019081526020015f205f6101000a81548160ff0219169083151502179055505b8060085f6101000a81548173ffffffffffffffffffffffffffffffffffffffff021916908373ffffffffffffffffffffffffffffffffffffffff1602179055506001600c5f8373ffffffffffffffffffffffffffffffffffffffff1673ffffffffffffffffffffffffffffffffffffffff1681526020019081526020015f205f6101000a81548160ff0219169083151502179055508073ffffffffffffffffffffffffffffffffffffffff167f0984594d51cb2b9061c64322cc955dc1cf1e8bf0f73512ba8221e4db196be16a60405160405180910390a250565b600c602052805f5260405f205f915054906101000a900460ff1681565b5f90565b611007611648565b6001600d5f6101000a81548160ff0219169083151502179055503373ffffffffffffffffffffffffffffffffffffffff167f62e78cea01bee320cd4e420270b5ea74000d11b0c9f74754ebdbfc544b05a25860405160405180910390a2565b61106e611648565b80600b819055507fd82d7466dbfb0b68291841d1adf74df365a848cd534d11e8c6b238ec9fb5ebe6816040516110a49190612269565b60405180910390a150565b5f60055f9054906101000a900473ffffffffffffffffffffffffffffffffffffffff16905090565b6060600480546110e69061242f565b80601f01602080910402602001604051908101604052809291908181526020018280546111129061242f565b801561115d5780601f106111345761010080835404028352916020019161115d565b820191905f5260205f20905b81548152906001019060200180831161114057829003601f168201915b5050505050905090565b61116f611648565b806009819055507f010a8b7cb1faab491acf8e175333e56c4bf4ad24ae1927dc38925ac085085f71816040516111a59190612269565b60405180910390a150565b5f806111ba61162f565b90506111c7818585611762565b600191505092915050565b600b5481565b5f6111e161071e565b6a52b7d2dcc80cd2e40000006111f791906124b3565b905090565b60085f9054906101000a900473ffffffffffffffffffffffffffffffffffffffff1681565b5f60015f8473ffffffffffffffffffffffffffffffffffffffff1673ffffffffffffffffffffffffffffffffffffffff1681526020019081526020015f205f8373ffffffffffffffffffffffffffffffffffffffff1673ffffffffffffffffffffffffffffffffffffffff1681526020019081526020015f2054905092915050565b6112ab611648565b5f73ffffffffffffffffffffffffffffffffffffffff168273ffffffffffffffffffffffffffffffffffffffff1603611310576040517fd92e233d00000000000000000000000000000000000000000000000000000000815260040160405180910390fd5b80600c5f8473ffffffffffffffffffffffffffffffffffffffff1673ffffffffffffffffffffffffffffffffffffffff1681526020019081526020015f205f6101000a81548160ff0219169083151502179055508173ffffffffffffffffffffffffffffffffffffffff167fe3b4918d2544570f4fd920ce69294772100c0d60360c88d94c56fadbbef76cb1826040516113aa9190612219565b60405180910390a25050565b6113be611648565b5f73ffffffffffffffffffffffffffffffffffffffff168173ffffffffffffffffffffffffffffffffffffffff1603611423576040517fd92e233d00000000000000000000000000000000000000000000000000000000815260040160405180910390fd5b5f600c5f60065f9054906101000a900473ffffffffffffffffffffffffffffffffffffffff1673ffffffffffffffffffffffffffffffffffffffff1673ffffffffffffffffffffffffffffffffffffffff1681526020019081526020015f205f6101000a81548160ff0219169083151502179055508073ffffffffffffffffffffffffffffffffffffffff1660065f9054906101000a900473ffffffffffffffffffffffffffffffffffffffff1673ffffffffffffffffffffffffffffffffffffffff167f4ab5be82436d353e61ca18726e984e561f5c1cc7c6d38b29d2553c790434705a60405160405180910390a38060065f6101000a81548173ffffffffffffffffffffffffffffffffffffffff021916908373ffffffffffffffffffffffffffffffffffffffff1602179055506001600c5f8373ffffffffffffffffffffffffffffffffffffffff1673ffffffffffffffffffffffffffffffffffffffff1681526020019081526020015f205f6101000a81548160ff02191690831515021790555050565b6115b3611648565b5f73ffffffffffffffffffffffffffffffffffffffff168173ffffffffffffffffffffffffffffffffffffffff1603611623575f6040517f1e4fbdf700000000000000000000000000000000000000000000000000000000815260040161161a9190612241565b60405180910390fd5b61162c8161198c565b50565b5f33905090565b6116438383836001611a4f565b505050565b61165061162f565b73ffffffffffffffffffffffffffffffffffffffff1661166e6110af565b73ffffffffffffffffffffffffffffffffffffffff16146116cd5761169161162f565b6040517f118cdaa70000000000000000000000000000000000000000000000000000000081526004016116c49190612241565b60405180910390fd5b565b5f6116da8484611221565b90507fffffffffffffffffffffffffffffffffffffffffffffffffffffffffffffffff81101561175c578181101561174d578281836040517ffb8f41b2000000000000000000000000000000000000000000000000000000008152600401611744939291906124e6565b60405180910390fd5b61175b84848484035f611a4f565b5b50505050565b5f73ffffffffffffffffffffffffffffffffffffffff168373ffffffffffffffffffffffffffffffffffffffff16036117d2575f6040517f96c6fd1e0000000000000000000000000000000000000000000000000000000081526004016117c99190612241565b60405180910390fd5b5f73ffffffffffffffffffffffffffffffffffffffff168273ffffffffffffffffffffffffffffffffffffffff1603611842575f6040517fec442f050000000000000000000000000000000000000000000000000000000081526004016118399190612241565b60405180910390fd5b61184d838383611c1e565b505050565b61185a611dde565b600261186c611867611e1f565b611e48565b5f0181905550565b5f73ffffffffffffffffffffffffffffffffffffffff168273ffffffffffffffffffffffffffffffffffffffff16036118e4575f6040517fec442f050000000000000000000000000000000000000000000000000000000081526004016118db9190612241565b60405180910390fd5b6118ef5f8383611c1e565b5050565b6001611905611900611e1f565b611e48565b5f0181905550565b5f73ffffffffffffffffffffffffffffffffffffffff168273ffffffffffffffffffffffffffffffffffffffff160361197d575f6040517f96c6fd1e0000000000000000000000000000000000000000000000000000000081526004016119749190612241565b60405180910390fd5b611988825f83611c1e565b5050565b5f60055f9054906101000a900473ffffffffffffffffffffffffffffffffffffffff1690508160055f6101000a81548173ffffffffffffffffffffffffffffffffffffffff021916908373ffffffffffffffffffffffffffffffffffffffff1602179055508173ffffffffffffffffffffffffffffffffffffffff168173ffffffffffffffffffffffffffffffffffffffff167f8be0079c531659141344cd1fd0a4f28419497f9722a3daafe3b4186f6b6457e060405160405180910390a35050565b5f73ffffffffffffffffffffffffffffffffffffffff168473ffffffffffffffffffffffffffffffffffffffff1603611abf575f6040517fe602df05000000000000000000000000000000000000000000000000000000008152600401611ab69190612241565b60405180910390fd5b5f73ffffffffffffffffffffffffffffffffffffffff168373ffffffffffffffffffffffffffffffffffffffff1603611b2f575f6040517f94280d62000000000000000000000000000000000000000000000000000000008152600401611b269190612241565b60405180910390fd5b8160015f8673ffffffffffffffffffffffffffffffffffffffff1673ffffffffffffffffffffffffffffffffffffffff1681526020019081526020015f205f8573ffffffffffffffffffffffffffffffffffffffff1673ffffffffffffffffffffffffffffffffffffffff1681526020019081526020015f20819055508015611c18578273ffffffffffffffffffffffffffffffffffffffff168473ffffffffffffffffffffffffffffffffffffffff167f8c5be1e5ebec7d5bd14f71427d1e84f3dd0314c0f7b2291e5b200ac8c7c3b92584604051611c0f9190612269565b60405180910390a35b50505050565b600d5f9054906101000a900460ff1615611c64576040517fcd1fda9f00000000000000000000000000000000000000000000000000000000815260040160405180910390fd5b5f73ffffffffffffffffffffffffffffffffffffffff168373ffffffffffffffffffffffffffffffffffffffff1614158015611ccc57505f73ffffffffffffffffffffffffffffffffffffffff168273ffffffffffffffffffffffffffffffffffffffff1614155b15611dce575f600b54118015611d295750600c5f8473ffffffffffffffffffffffffffffffffffffffff1673ffffffffffffffffffffffffffffffffffffffff1681526020019081526020015f205f9054906101000a900460ff16155b8015611d7c5750600c5f8373ffffffffffffffffffffffffffffffffffffffff1673ffffffffffffffffffffffffffffffffffffffff1681526020019081526020015f205f9054906101000a900460ff16155b15611dcd57600b54811115611dcc5780600b546040517f8112e4e2000000000000000000000000000000000000000000000000000000008152600401611dc392919061245f565b60405180910390fd5b5b5b611dd9838383611e51565b505050565b611de661206a565b15611e1d576040517f3ee5aeb500000000000000000000000000000000000000000000000000000000815260040160405180910390fd5b565b5f7f9b779b17422d0df92223018b32b4d1fa46e071723d6817e2486d003becc55f005f1b905090565b5f819050919050565b5f73ffffffffffffffffffffffffffffffffffffffff168373ffffffffffffffffffffffffffffffffffffffff1603611ea1578060025f828254611e95919061251b565b92505081905550611f6f565b5f805f8573ffffffffffffffffffffffffffffffffffffffff1673ffffffffffffffffffffffffffffffffffffffff1681526020019081526020015f2054905081811015611f2a578381836040517fe450d38c000000000000000000000000000000000000000000000000000000008152600401611f21939291906124e6565b60405180910390fd5b8181035f808673ffffffffffffffffffffffffffffffffffffffff1673ffffffffffffffffffffffffffffffffffffffff1681526020019081526020015f2081905550505b5f73ffffffffffffffffffffffffffffffffffffffff168273ffffffffffffffffffffffffffffffffffffffff1603611fb6578060025f8282540392505081905550612000565b805f808473ffffffffffffffffffffffffffffffffffffffff1673ffffffffffffffffffffffffffffffffffffffff1681526020019081526020015f205f82825401925050819055505b8173ffffffffffffffffffffffffffffffffffffffff168373ffffffffffffffffffffffffffffffffffffffff167fddf252ad1be2c89b69c2b068fc378daa952ba7f163c4a11628f55a4df523b3ef8360405161205d9190612269565b60405180910390a3505050565b5f600261207d612078611e1f565b611e48565b5f015414905090565b5f81519050919050565b5f82825260208201905092915050565b5f5b838110156120bd5780820151818401526020810190506120a2565b5f8484015250505050565b5f601f19601f8301169050919050565b5f6120e282612086565b6120ec8185612090565b93506120fc8185602086016120a0565b612105816120c8565b840191505092915050565b5f6020820190508181035f83015261212881846120d8565b905092915050565b5f80fd5b5f73ffffffffffffffffffffffffffffffffffffffff82169050919050565b5f61215d82612134565b9050919050565b61216d81612153565b8114612177575f80fd5b50565b5f8135905061218881612164565b92915050565b5f819050919050565b6121a08161218e565b81146121aa575f80fd5b50565b5f813590506121bb81612197565b92915050565b5f80604083850312156121d7576121d6612130565b5b5f6121e48582860161217a565b92505060206121f5858286016121ad565b9150509250929050565b5f8115159050919050565b612213816121ff565b82525050565b5f60208201905061222c5f83018461220a565b92915050565b61223b81612153565b82525050565b5f6020820190506122545f830184612232565b92915050565b6122638161218e565b82525050565b5f60208201905061227c5f83018461225a565b92915050565b5f6020828403121561229757612296612130565b5b5f6122a4848285016121ad565b91505092915050565b5f805f606084860312156122c4576122c3612130565b5b5f6122d18682870161217a565b93505060206122e28682870161217a565b92505060406122f3868287016121ad565b9150509250925092565b5f6020828403121561231257612311612130565b5b5f61231f8482850161217a565b91505092915050565b5f60ff82169050919050565b61233d81612328565b82525050565b5f6020820190506123565f830184612334565b92915050565b5f806040838503121561237257612371612130565b5b5f61237f8582860161217a565b92505060206123908582860161217a565b9150509250929050565b6123a3816121ff565b81146123ad575f80fd5b50565b5f813590506123be8161239a565b92915050565b5f80604083850312156123da576123d9612130565b5b5f6123e78582860161217a565b92505060206123f8858286016123b0565b9150509250929050565b7f4e487b71000000000000000000000000000000000000000000000000000000005f52602260045260245ffd5b5f600282049050600182168061244657607f821691505b60208210810361245957612458612402565b5b50919050565b5f6040820190506124725f83018561225a565b61247f602083018461225a565b9392505050565b7f4e487b71000000000000000000000000000000000000000000000000000000005f52601160045260245ffd5b5f6124bd8261218e565b91506124c88361218e565b92508282039050818111156124e0576124df612486565b5b92915050565b5f6060820190506124f95f830186612232565b612506602083018561225a565b612513604083018461225a565b949350505050565b5f6125258261218e565b91506125308361218e565b925082820190508082111561254857612547612486565b5b9291505056fea26469706673582212208c0a142dbaccc94d3be7214cd62468d8159d7fe58c7e5b5945d08eb07d4eb6ac64736f6c63430008180033",
					"opcodes": "PUSH1 0x80 PUSH1 0x40 MSTORE CALLVALUE DUP1 ISZERO PUSH3 0x10 JUMPI PUSH0 DUP1 REVERT JUMPDEST POP PUSH1 0x40 MLOAD PUSH3 0x34E3 CODESIZE SUB DUP1 PUSH3 0x34E3 DUP4 CODECOPY DUP2 DUP2 ADD PUSH1 0x40 MSTORE DUP2 ADD SWAP1 PUSH3 0x36 SWAP2 SWAP1 PUSH3 0xA28 JUMP JUMPDEST CALLER PUSH1 0x40 MLOAD DUP1 PUSH1 0x40 ADD PUSH1 0x40 MSTORE DUP1 PUSH1 0xE DUP2 MSTORE PUSH1 0x20 ADD PUSH32 0x54696D625377617020546F6B656E000000000000000000000000000000000000 DUP2 MSTORE POP PUSH1 0x40 MLOAD DUP1 PUSH1 0x40 ADD PUSH1 0x40 MSTORE DUP1 PUSH1 0x5 DUP2 MSTORE PUSH1 0x20 ADD PUSH32 0x54494D4253000000000000000000000000000000000000000000000000000000 DUP2 MSTORE POP DUP2 PUSH1 0x3 SWAP1 DUP2 PUSH3 0xB4 SWAP2 SWAP1 PUSH3 0xCDC JUMP JUMPDEST POP DUP1 PUSH1 0x4 SWAP1 DUP2 PUSH3 0xC6 SWAP2 SWAP1 PUSH3 0xCDC JUMP JUMPDEST POP POP POP PUSH0 PUSH20 0xFFFFFFFFFFFFFFFFFFFFFFFFFFFFFFFFFFFFFFFF AND DUP2 PUSH20 0xFFFFFFFFFFFFFFFFFFFFFFFFFFFFFFFFFFFFFFFF AND SUB PUSH3 0x13C JUMPI PUSH0 PUSH1 0x40 MLOAD PUSH32 0x1E4FBDF700000000000000000000000000000000000000000000000000000000 DUP2 MSTORE PUSH1 0x4 ADD PUSH3 0x133 SWAP2 SWAP1 PUSH3 0xDD1 JUMP JUMPDEST PUSH1 0x40 MLOAD DUP1 SWAP2 SUB SWAP1 REVERT JUMPDEST PUSH3 0x14D DUP2 PUSH3 0x417 PUSH1 0x20 SHL PUSH1 0x20 SHR JUMP JUMPDEST POP PUSH1 0x1 PUSH3 0x170 PUSH3 0x164 PUSH3 0x4DA PUSH1 0x20 SHL PUSH1 0x20 SHR JUMP JUMPDEST PUSH3 0x503 PUSH1 0x20 SHL PUSH1 0x20 SHR JUMP JUMPDEST PUSH0 ADD DUP2 SWAP1 SSTORE POP PUSH0 PUSH20 0xFFFFFFFFFFFFFFFFFFFFFFFFFFFFFFFFFFFFFFFF AND DUP4 PUSH20 0xFFFFFFFFFFFFFFFFFFFFFFFFFFFFFFFFFFFFFFFF AND SUB PUSH3 0x1DC JUMPI PUSH1 0x40 MLOAD PUSH32 0xD92E233D00000000000000000000000000000000000000000000000000000000 DUP2 MSTORE PUSH1 0x4 ADD PUSH1 0x40 MLOAD DUP1 SWAP2 SUB SWAP1 REVERT JUMPDEST PUSH0 DUP3 SUB PUSH3 0x216 JUMPI PUSH1 0x40 MLOAD PUSH32 0x1F2A200500000000000000000000000000000000000000000000000000000000 DUP2 MSTORE PUSH1 0x4 ADD PUSH1 0x40 MLOAD DUP1 SWAP2 SUB SWAP1 REVERT JUMPDEST PUSH11 0x52B7D2DCC80CD2E4000000 DUP3 GT ISZERO PUSH3 0x276 JUMPI DUP2 PUSH11 0x52B7D2DCC80CD2E4000000 PUSH1 0x40 MLOAD PUSH32 0x7333416E00000000000000000000000000000000000000000000000000000000 DUP2 MSTORE PUSH1 0x4 ADD PUSH3 0x26D SWAP3 SWAP2 SWAP1 PUSH3 0xDFD JUMP JUMPDEST PUSH1 0x40 MLOAD DUP1 SWAP2 SUB SWAP1 REVERT JUMPDEST DUP3 PUSH1 0x6 PUSH0 PUSH2 0x100 EXP DUP2 SLOAD DUP2 PUSH20 0xFFFFFFFFFFFFFFFFFFFFFFFFFFFFFFFFFFFFFFFF MUL NOT AND SWAP1 DUP4 PUSH20 0xFFFFFFFFFFFFFFFFFFFFFFFFFFFFFFFFFFFFFFFF AND MUL OR SWAP1 SSTORE POP DUP1 PUSH1 0xA DUP2 SWAP1 SSTORE POP PUSH1 0x1 PUSH1 0xC PUSH0 DUP6 PUSH20 0xFFFFFFFFFFFFFFFFFFFFFFFFFFFFFFFFFFFFFFFF AND PUSH20 0xFFFFFFFFFFFFFFFFFFFFFFFFFFFFFFFFFFFFFFFF AND DUP2 MSTORE PUSH1 0x20 ADD SWAP1 DUP2 MSTORE PUSH1 0x20 ADD PUSH0 KECCAK256 PUSH0 PUSH2 0x100 EXP DUP2 SLOAD DUP2 PUSH1 0xFF MUL NOT AND SWAP1 DUP4 ISZERO ISZERO MUL OR SWAP1 SSTORE POP PUSH1 0x1 PUSH1 0xC PUSH0 CALLER PUSH20 0xFFFFFFFFFFFFFFFFFFFFFFFFFFFFFFFFFFFFFFFF AND PUSH20 0xFFFFFFFFFFFFFFFFFFFFFFFFFFFFFFFFFFFFFFFF AND DUP2 MSTORE PUSH1 0x20 ADD SWAP1 DUP2 MSTORE PUSH1 0x20 ADD PUSH0 KECCAK256 PUSH0 PUSH2 0x100 EXP DUP2 SLOAD DUP2 PUSH1 0xFF MUL NOT AND SWAP1 DUP4 ISZERO ISZERO MUL OR SWAP1 SSTORE POP PUSH3 0x379 DUP4 DUP4 PUSH3 0x50C PUSH1 0x20 SHL PUSH1 0x20 SHR JUMP JUMPDEST DUP3 PUSH20 0xFFFFFFFFFFFFFFFFFFFFFFFFFFFFFFFFFFFFFFFF AND PUSH0 PUSH20 0xFFFFFFFFFFFFFFFFFFFFFFFFFFFFFFFFFFFFFFFF AND PUSH32 0x4AB5BE82436D353E61CA18726E984E561F5C1CC7C6D38B29D2553C790434705A PUSH1 0x40 MLOAD PUSH1 0x40 MLOAD DUP1 SWAP2 SUB SWAP1 LOG3 PUSH32 0x5299E127AC8BDC64FD0E551DD406BA1E1FBAEBC96D458CE9B1A5E69CAECDF376 PUSH0 DUP3 PUSH1 0x40 MLOAD PUSH3 0x406 SWAP3 SWAP2 SWAP1 PUSH3 0xE69 JUMP JUMPDEST PUSH1 0x40 MLOAD DUP1 SWAP2 SUB SWAP1 LOG1 POP POP POP PUSH3 0xF51 JUMP JUMPDEST PUSH0 PUSH1 0x5 PUSH0 SWAP1 SLOAD SWAP1 PUSH2 0x100 EXP SWAP1 DIV PUSH20 0xFFFFFFFFFFFFFFFFFFFFFFFFFFFFFFFFFFFFFFFF AND SWAP1 POP DUP2 PUSH1 0x5 PUSH0 PUSH2 0x100 EXP DUP2 SLOAD DUP2 PUSH20 0xFFFFFFFFFFFFFFFFFFFFFFFFFFFFFFFFFFFFFFFF MUL NOT AND SWAP1 DUP4 PUSH20 0xFFFFFFFFFFFFFFFFFFFFFFFFFFFFFFFFFFFFFFFF AND MUL OR SWAP1 SSTORE POP DUP2 PUSH20 0xFFFFFFFFFFFFFFFFFFFFFFFFFFFFFFFFFFFFFFFF AND DUP2 PUSH20 0xFFFFFFFFFFFFFFFFFFFFFFFFFFFFFFFFFFFFFFFF AND PUSH32 0x8BE0079C531659141344CD1FD0A4F28419497F9722A3DAAFE3B4186F6B6457E0 PUSH1 0x40 MLOAD PUSH1 0x40 MLOAD DUP1 SWAP2 SUB SWAP1 LOG3 POP POP JUMP JUMPDEST PUSH0 PUSH32 0x9B779B17422D0DF92223018B32B4D1FA46E071723D6817E2486D003BECC55F00 PUSH0 SHL SWAP1 POP SWAP1 JUMP JUMPDEST PUSH0 DUP2 SWAP1 POP SWAP2 SWAP1 POP JUMP JUMPDEST PUSH0 PUSH20 0xFFFFFFFFFFFFFFFFFFFFFFFFFFFFFFFFFFFFFFFF AND DUP3 PUSH20 0xFFFFFFFFFFFFFFFFFFFFFFFFFFFFFFFFFFFFFFFF AND SUB PUSH3 0x57F JUMPI PUSH0 PUSH1 0x40 MLOAD PUSH32 0xEC442F0500000000000000000000000000000000000000000000000000000000 DUP2 MSTORE PUSH1 0x4 ADD PUSH3 0x576 SWAP2 SWAP1 PUSH3 0xDD1 JUMP JUMPDEST PUSH1 0x40 MLOAD DUP1 SWAP2 SUB SWAP1 REVERT JUMPDEST PUSH3 0x592 PUSH0 DUP4 DUP4 PUSH3 0x596 PUSH1 0x20 SHL PUSH1 0x20 SHR JUMP JUMPDEST POP POP JUMP JUMPDEST PUSH1 0xD PUSH0 SWAP1 SLOAD SWAP1 PUSH2 0x100 EXP SWAP1 DIV PUSH1 0xFF AND ISZERO PUSH3 0x5DD JUMPI PUSH1 0x40 MLOAD PUSH32 0xCD1FDA9F00000000000000000000000000000000000000000000000000000000 DUP2 MSTORE PUSH1 0x4 ADD PUSH1 0x40 MLOAD DUP1 SWAP2 SUB SWAP1 REVERT JUMPDEST PUSH0 PUSH20 0xFFFFFFFFFFFFFFFFFFFFFFFFFFFFFFFFFFFFFFFF AND DUP4 PUSH20 0xFFFFFFFFFFFFFFFFFFFFFFFFFFFFFFFFFFFFFFFF AND EQ ISZERO DUP1 ISZERO PUSH3 0x646 JUMPI POP PUSH0 PUSH20 0xFFFFFFFFFFFFFFFFFFFFFFFFFFFFFFFFFFFFFFFF AND DUP3 PUSH20 0xFFFFFFFFFFFFFFFFFFFFFFFFFFFFFFFFFFFFFFFF AND EQ ISZERO JUMPDEST ISZERO PUSH3 0x74F JUMPI PUSH0 PUSH1 0xB SLOAD GT DUP1 ISZERO PUSH3 0x6A5 JUMPI POP PUSH1 0xC PUSH0 DUP5 PUSH20 0xFFFFFFFFFFFFFFFFFFFFFFFFFFFFFFFFFFFFFFFF AND PUSH20 0xFFFFFFFFFFFFFFFFFFFFFFFFFFFFFFFFFFFFFFFF AND DUP2 MSTORE PUSH1 0x20 ADD SWAP1 DUP2 MSTORE PUSH1 0x20 ADD PUSH0 KECCAK256 PUSH0 SWAP1 SLOAD SWAP1 PUSH2 0x100 EXP SWAP1 DIV PUSH1 0xFF AND ISZERO JUMPDEST DUP1 ISZERO PUSH3 0x6F9 JUMPI POP PUSH1 0xC PUSH0 DUP4 PUSH20 0xFFFFFFFFFFFFFFFFFFFFFFFFFFFFFFFFFFFFFFFF AND PUSH20 0xFFFFFFFFFFFFFFFFFFFFFFFFFFFFFFFFFFFFFFFF AND DUP2 MSTORE PUSH1 0x20 ADD SWAP1 DUP2 MSTORE PUSH1 0x20 ADD PUSH0 KECCAK256 PUSH0 SWAP1 SLOAD SWAP1 PUSH2 0x100 EXP SWAP1 DIV PUSH1 0xFF AND ISZERO JUMPDEST ISZERO PUSH3 0x74E JUMPI PUSH1 0xB SLOAD DUP2 GT ISZERO PUSH3 0x74D JUMPI DUP1 PUSH1 0xB SLOAD PUSH1 0x40 MLOAD PUSH32 0x8112E4E200000000000000000000000000000000000000000000000000000000 DUP2 MSTORE PUSH1 0x4 ADD PUSH3 0x744 SWAP3 SWAP2 SWAP1 PUSH3 0xDFD JUMP JUMPDEST PUSH1 0x40 MLOAD DUP1 SWAP2 SUB SWAP1 REVERT JUMPDEST JUMPDEST JUMPDEST PUSH3 0x762 DUP4 DUP4 DUP4 PUSH3 0x767 PUSH1 0x20 SHL PUSH1 0x20 SHR JUMP JUMPDEST POP POP POP JUMP JUMPDEST PUSH0 PUSH20 0xFFFFFFFFFFFFFFFFFFFFFFFFFFFFFFFFFFFFFFFF AND DUP4 PUSH20 0xFFFFFFFFFFFFFFFFFFFFFFFFFFFFFFFFFFFFFFFF AND SUB PUSH3 0x7BB JUMPI DUP1 PUSH1 0x2 PUSH0 DUP3 DUP3 SLOAD PUSH3 0x7AE SWAP2 SWAP1 PUSH3 0xEC1 JUMP JUMPDEST SWAP3 POP POP DUP2 SWAP1 SSTORE POP PUSH3 0x88C JUMP JUMPDEST PUSH0 DUP1 PUSH0 DUP6 PUSH20 0xFFFFFFFFFFFFFFFFFFFFFFFFFFFFFFFFFFFFFFFF AND PUSH20 0xFFFFFFFFFFFFFFFFFFFFFFFFFFFFFFFFFFFFFFFF AND DUP2 MSTORE PUSH1 0x20 ADD SWAP1 DUP2 MSTORE PUSH1 0x20 ADD PUSH0 KECCAK256 SLOAD SWAP1 POP DUP2 DUP2 LT ISZERO PUSH3 0x847 JUMPI DUP4 DUP2 DUP4 PUSH1 0x40 MLOAD PUSH32 0xE450D38C00000000000000000000000000000000000000000000000000000000 DUP2 MSTORE PUSH1 0x4 ADD PUSH3 0x83E SWAP4 SWAP3 SWAP2 SWAP1 PUSH3 0xEFB JUMP JUMPDEST PUSH1 0x40 MLOAD DUP1 SWAP2 SUB SWAP1 REVERT JUMPDEST DUP2 DUP2 SUB PUSH0 DUP1 DUP7 PUSH20 0xFFFFFFFFFFFFFFFFFFFFFFFFFFFFFFFFFFFFFFFF AND PUSH20 0xFFFFFFFFFFFFFFFFFFFFFFFFFFFFFFFFFFFFFFFF AND DUP2 MSTORE PUSH1 0x20 ADD SWAP1 DUP2 MSTORE PUSH1 0x20 ADD PUSH0 KECCAK256 DUP2 SWAP1 SSTORE POP POP JUMPDEST PUSH0 PUSH20 0xFFFFFFFFFFFFFFFFFFFFFFFFFFFFFFFFFFFFFFFF AND DUP3 PUSH20 0xFFFFFFFFFFFFFFFFFFFFFFFFFFFFFFFFFFFFFFFF AND SUB PUSH3 0x8D5 JUMPI DUP1 PUSH1 0x2 PUSH0 DUP3 DUP3 SLOAD SUB SWAP3 POP POP DUP2 SWAP1 SSTORE POP PUSH3 0x91F JUMP JUMPDEST DUP1 PUSH0 DUP1 DUP5 PUSH20 0xFFFFFFFFFFFFFFFFFFFFFFFFFFFFFFFFFFFFFFFF AND PUSH20 0xFFFFFFFFFFFFFFFFFFFFFFFFFFFFFFFFFFFFFFFF AND DUP2 MSTORE PUSH1 0x20 ADD SWAP1 DUP2 MSTORE PUSH1 0x20 ADD PUSH0 KECCAK256 PUSH0 DUP3 DUP3 SLOAD ADD SWAP3 POP POP DUP2 SWAP1 SSTORE POP JUMPDEST DUP2 PUSH20 0xFFFFFFFFFFFFFFFFFFFFFFFFFFFFFFFFFFFFFFFF AND DUP4 PUSH20 0xFFFFFFFFFFFFFFFFFFFFFFFFFFFFFFFFFFFFFFFF AND PUSH32 0xDDF252AD1BE2C89B69C2B068FC378DAA952BA7F163C4A11628F55A4DF523B3EF DUP4 PUSH1 0x40 MLOAD PUSH3 0x97E SWAP2 SWAP1 PUSH3 0xF36 JUMP JUMPDEST PUSH1 0x40 MLOAD DUP1 SWAP2 SUB SWAP1 LOG3 POP POP POP JUMP JUMPDEST PUSH0 DUP1 REVERT JUMPDEST PUSH0 PUSH20 0xFFFFFFFFFFFFFFFFFFFFFFFFFFFFFFFFFFFFFFFF DUP3 AND SWAP1 POP SWAP2 SWAP1 POP JUMP JUMPDEST PUSH0 PUSH3 0x9BA DUP3 PUSH3 0x98F JUMP JUMPDEST SWAP1 POP SWAP2 SWAP1 POP JUMP JUMPDEST PUSH3 0x9CC DUP2 PUSH3 0x9AE JUMP JUMPDEST DUP2 EQ PUSH3 0x9D7 JUMPI PUSH0 DUP1 REVERT JUMPDEST POP JUMP JUMPDEST PUSH0 DUP2 MLOAD SWAP1 POP PUSH3 0x9EA DUP2 PUSH3 0x9C1 JUMP JUMPDEST SWAP3 SWAP2 POP POP JUMP JUMPDEST PUSH0 DUP2 SWAP1 POP SWAP2 SWAP1 POP JUMP JUMPDEST PUSH3 0xA04 DUP2 PUSH3 0x9F0 JUMP JUMPDEST DUP2 EQ PUSH3 0xA0F JUMPI PUSH0 DUP1 REVERT JUMPDEST POP JUMP JUMPDEST PUSH0 DUP2 MLOAD SWAP1 POP PUSH3 0xA22 DUP2 PUSH3 0x9F9 JUMP JUMPDEST SWAP3 SWAP2 POP POP JUMP JUMPDEST PUSH0 DUP1 PUSH0 PUSH1 0x60 DUP5 DUP7 SUB SLT ISZERO PUSH3 0xA42 JUMPI PUSH3 0xA41 PUSH3 0x98B JUMP JUMPDEST JUMPDEST PUSH0 PUSH3 0xA51 DUP7 DUP3 DUP8 ADD PUSH3 0x9DA JUMP JUMPDEST SWAP4 POP POP PUSH1 0x20 PUSH3 0xA64 DUP7 DUP3 DUP8 ADD PUSH3 0xA12 JUMP JUMPDEST SWAP3 POP POP PUSH1 0x40 PUSH3 0xA77 DUP7 DUP3 DUP8 ADD PUSH3 0xA12 JUMP JUMPDEST SWAP2 POP POP SWAP3 POP SWAP3 POP SWAP3 JUMP JUMPDEST PUSH0 DUP2 MLOAD SWAP1 POP SWAP2 SWAP1 POP JUMP JUMPDEST PUSH32 0x4E487B7100000000000000000000000000000000000000000000000000000000 PUSH0 MSTORE PUSH1 0x41 PUSH1 0x4 MSTORE PUSH1 0x24 PUSH0 REVERT JUMPDEST PUSH32 0x4E487B7100000000000000000000000000000000000000000000000000000000 PUSH0 MSTORE PUSH1 0x22 PUSH1 0x4 MSTORE PUSH1 0x24 PUSH0 REVERT JUMPDEST PUSH0 PUSH1 0x2 DUP3 DIV SWAP1 POP PUSH1 0x1 DUP3 AND DUP1 PUSH3 0xAFD JUMPI PUSH1 0x7F DUP3 AND SWAP2 POP JUMPDEST PUSH1 0x20 DUP3 LT DUP2 SUB PUSH3 0xB13 JUMPI PUSH3 0xB12 PUSH3 0xAB8 JUMP JUMPDEST JUMPDEST POP SWAP2 SWAP1 POP JUMP JUMPDEST PUSH0 DUP2 SWAP1 POP DUP2 PUSH0 MSTORE PUSH1 0x20 PUSH0 KECCAK256 SWAP1 POP SWAP2 SWAP1 POP JUMP JUMPDEST PUSH0 PUSH1 0x20 PUSH1 0x1F DUP4 ADD DIV SWAP1 POP SWAP2 SWAP1 POP JUMP JUMPDEST PUSH0 DUP3 DUP3 SHL SWAP1 POP SWAP3 SWAP2 POP POP JUMP JUMPDEST PUSH0 PUSH1 0x8 DUP4 MUL PUSH3 0xB77 PUSH32 0xFFFFFFFFFFFFFFFFFFFFFFFFFFFFFFFFFFFFFFFFFFFFFFFFFFFFFFFFFFFFFFFF DUP3 PUSH3 0xB3A JUMP JUMPDEST PUSH3 0xB83 DUP7 DUP4 PUSH3 0xB3A JUMP JUMPDEST SWAP6 POP DUP1 NOT DUP5 AND SWAP4 POP DUP1 DUP7 AND DUP5 OR SWAP3 POP POP POP SWAP4 SWAP3 POP POP POP JUMP JUMPDEST PUSH0 DUP2 SWAP1 POP SWAP2 SWAP1 POP JUMP JUMPDEST PUSH0 PUSH3 0xBC4 PUSH3 0xBBE PUSH3 0xBB8 DUP5 PUSH3 0x9F0 JUMP JUMPDEST PUSH3 0xB9B JUMP JUMPDEST PUSH3 0x9F0 JUMP JUMPDEST SWAP1 POP SWAP2 SWAP1 POP JUMP JUMPDEST PUSH0 DUP2 SWAP1 POP SWAP2 SWAP1 POP JUMP JUMPDEST PUSH3 0xBDF DUP4 PUSH3 0xBA4 JUMP JUMPDEST PUSH3 0xBF7 PUSH3 0xBEE DUP3 PUSH3 0xBCB JUMP JUMPDEST DUP5 DUP5 SLOAD PUSH3 0xB46 JUMP JUMPDEST DUP3 SSTORE POP POP POP POP JUMP JUMPDEST PUSH0 SWAP1 JUMP JUMPDEST PUSH3 0xC0D PUSH3 0xBFF JUMP JUMPDEST PUSH3 0xC1A DUP2 DUP5 DUP5 PUSH3 0xBD4 JUMP JUMPDEST POP POP POP JUMP JUMPDEST JUMPDEST DUP2 DUP2 LT ISZERO PUSH3 0xC41 JUMPI PUSH3 0xC35 PUSH0 DUP3 PUSH3 0xC03 JUMP JUMPDEST PUSH1 0x1 DUP2 ADD SWAP1 POP PUSH3 0xC20 JUMP JUMPDEST POP POP JUMP JUMPDEST PUSH1 0x1F DUP3 GT ISZERO PUSH3 0xC90 JUMPI PUSH3 0xC5A DUP2 PUSH3 0xB19 JUMP JUMPDEST PUSH3 0xC65 DUP5 PUSH3 0xB2B JUMP JUMPDEST DUP2 ADD PUSH1 0x20 DUP6 LT ISZERO PUSH3 0xC75 JUMPI DUP2 SWAP1 POP JUMPDEST PUSH3 0xC8D PUSH3 0xC84 DUP6 PUSH3 0xB2B JUMP JUMPDEST DUP4 ADD DUP3 PUSH3 0xC1F JUMP JUMPDEST POP POP JUMPDEST POP POP POP JUMP JUMPDEST PUSH0 DUP3 DUP3 SHR SWAP1 POP SWAP3 SWAP2 POP POP JUMP JUMPDEST PUSH0 PUSH3 0xCB2 PUSH0 NOT DUP5 PUSH1 0x8 MUL PUSH3 0xC95 JUMP JUMPDEST NOT DUP1 DUP4 AND SWAP2 POP POP SWAP3 SWAP2 POP POP JUMP JUMPDEST PUSH0 PUSH3 0xCCC DUP4 DUP4 PUSH3 0xCA1 JUMP JUMPDEST SWAP2 POP DUP3 PUSH1 0x2 MUL DUP3 OR SWAP1 POP SWAP3 SWAP2 POP POP JUMP JUMPDEST PUSH3 0xCE7 DUP3 PUSH3 0xA81 JUMP JUMPDEST PUSH8 0xFFFFFFFFFFFFFFFF DUP2 GT ISZERO PUSH3 0xD03 JUMPI PUSH3 0xD02 PUSH3 0xA8B JUMP JUMPDEST JUMPDEST PUSH3 0xD0F DUP3 SLOAD PUSH3 0xAE5 JUMP JUMPDEST PUSH3 0xD1C DUP3 DUP3 DUP6 PUSH3 0xC45 JUMP JUMPDEST PUSH0 PUSH1 0x20 SWAP1 POP PUSH1 0x1F DUP4 GT PUSH1 0x1 DUP2 EQ PUSH3 0xD52 JUMPI PUSH0 DUP5 ISZERO PUSH3 0xD3D JUMPI DUP3 DUP8 ADD MLOAD SWAP1 POP JUMPDEST PUSH3 0xD49 DUP6 DUP3 PUSH3 0xCBF JUMP JUMPDEST DUP7 SSTORE POP PUSH3 0xDB8 JUMP JUMPDEST PUSH1 0x1F NOT DUP5 AND PUSH3 0xD62 DUP7 PUSH3 0xB19 JUMP JUMPDEST PUSH0 JUMPDEST DUP3 DUP2 LT ISZERO PUSH3 0xD8B JUMPI DUP5 DUP10 ADD MLOAD DUP3 SSTORE PUSH1 0x1 DUP3 ADD SWAP2 POP PUSH1 0x20 DUP6 ADD SWAP5 POP PUSH1 0x20 DUP2 ADD SWAP1 POP PUSH3 0xD64 JUMP JUMPDEST DUP7 DUP4 LT ISZERO PUSH3 0xDAB JUMPI DUP5 DUP10 ADD MLOAD PUSH3 0xDA7 PUSH1 0x1F DUP10 AND DUP3 PUSH3 0xCA1 JUMP JUMPDEST DUP4 SSTORE POP JUMPDEST PUSH1 0x1 PUSH1 0x2 DUP9 MUL ADD DUP9 SSTORE POP POP POP JUMPDEST POP POP POP POP POP POP JUMP JUMPDEST PUSH3 0xDCB DUP2 PUSH3 0x9AE JUMP JUMPDEST DUP3 MSTORE POP POP JUMP JUMPDEST PUSH0 PUSH1 0x20 DUP3 ADD SWAP1 POP PUSH3 0xDE6 PUSH0 DUP4 ADD DUP5 PUSH3 0xDC0 JUMP JUMPDEST SWAP3 SWAP2 POP POP JUMP JUMPDEST PUSH3 0xDF7 DUP2 PUSH3 0x9F0 JUMP JUMPDEST DUP3 MSTORE POP POP JUMP JUMPDEST PUSH0 PUSH1 0x40 DUP3 ADD SWAP1 POP PUSH3 0xE12 PUSH0 DUP4 ADD DUP6 PUSH3 0xDEC JUMP JUMPDEST PUSH3 0xE21 PUSH1 0x20 DUP4 ADD DUP5 PUSH3 0xDEC JUMP JUMPDEST SWAP4 SWAP3 POP POP POP JUMP JUMPDEST PUSH0 DUP2 SWAP1 POP SWAP2 SWAP1 POP JUMP JUMPDEST PUSH0 PUSH3 0xE51 PUSH3 0xE4B PUSH3 0xE45 DUP5 PUSH3 0xE28 JUMP JUMPDEST PUSH3 0xB9B JUMP JUMPDEST PUSH3 0x9F0 JUMP JUMPDEST SWAP1 POP SWAP2 SWAP1 POP JUMP JUMPDEST PUSH3 0xE63 DUP2 PUSH3 0xE31 JUMP JUMPDEST DUP3 MSTORE POP POP JUMP JUMPDEST PUSH0 PUSH1 0x40 DUP3 ADD SWAP1 POP PUSH3 0xE7E PUSH0 DUP4 ADD DUP6 PUSH3 0xE58 JUMP JUMPDEST PUSH3 0xE8D PUSH1 0x20 DUP4 ADD DUP5 PUSH3 0xDEC JUMP JUMPDEST SWAP4 SWAP3 POP POP POP JUMP JUMPDEST PUSH32 0x4E487B7100000000000000000000000000000000000000000000000000000000 PUSH0 MSTORE PUSH1 0x11 PUSH1 0x4 MSTORE PUSH1 0x24 PUSH0 REVERT JUMPDEST PUSH0 PUSH3 0xECD DUP3 PUSH3 0x9F0 JUMP JUMPDEST SWAP2 POP PUSH3 0xEDA DUP4 PUSH3 0x9F0 JUMP JUMPDEST SWAP3 POP DUP3 DUP3 ADD SWAP1 POP DUP1 DUP3 GT ISZERO PUSH3 0xEF5 JUMPI PUSH3 0xEF4 PUSH3 0xE94 JUMP JUMPDEST JUMPDEST SWAP3 SWAP2 POP POP JUMP JUMPDEST PUSH0 PUSH1 0x60 DUP3 ADD SWAP1 POP PUSH3 0xF10 PUSH0 DUP4 ADD DUP7 PUSH3 0xDC0 JUMP JUMPDEST PUSH3 0xF1F PUSH1 0x20 DUP4 ADD DUP6 PUSH3 0xDEC JUMP JUMPDEST PUSH3 0xF2E PUSH1 0x40 DUP4 ADD DUP5 PUSH3 0xDEC JUMP JUMPDEST SWAP5 SWAP4 POP POP POP POP JUMP JUMPDEST PUSH0 PUSH1 0x20 DUP3 ADD SWAP1 POP PUSH3 0xF4B PUSH0 DUP4 ADD DUP5 PUSH3 0xDEC JUMP JUMPDEST SWAP3 SWAP2 POP POP JUMP JUMPDEST PUSH2 0x2584 DUP1 PUSH3 0xF5F PUSH0 CODECOPY PUSH0 RETURN INVALID PUSH1 0x80 PUSH1 0x40 MSTORE CALLVALUE DUP1 ISZERO PUSH2 0xF JUMPI PUSH0 DUP1 REVERT JUMPDEST POP PUSH1 0x4 CALLDATASIZE LT PUSH2 0x20F JUMPI PUSH0 CALLDATALOAD PUSH1 0xE0 SHR DUP1 PUSH4 0x715018A6 GT PUSH2 0x123 JUMPI DUP1 PUSH4 0xA1BDB15E GT PUSH2 0xAB JUMPI DUP1 PUSH4 0xD89A6FA6 GT PUSH2 0x7A JUMPI DUP1 PUSH4 0xD89A6FA6 EQ PUSH2 0x5A5 JUMPI DUP1 PUSH4 0xDD62ED3E EQ PUSH2 0x5C3 JUMPI DUP1 PUSH4 0xE4A34DCE EQ PUSH2 0x5F3 JUMPI DUP1 PUSH4 0xF0F44260 EQ PUSH2 0x60F JUMPI DUP1 PUSH4 0xF2FDE38B EQ PUSH2 0x62B JUMPI PUSH2 0x20F JUMP JUMPDEST DUP1 PUSH4 0xA1BDB15E EQ PUSH2 0x51D JUMPI DUP1 PUSH4 0xA9059CBB EQ PUSH2 0x539 JUMPI DUP1 PUSH4 0xA9E75723 EQ PUSH2 0x569 JUMPI DUP1 PUSH4 0xAE11C4BC EQ PUSH2 0x587 JUMPI PUSH2 0x20F JUMP JUMPDEST DUP1 PUSH4 0x83D5D801 GT PUSH2 0xF2 JUMPI DUP1 PUSH4 0x83D5D801 EQ PUSH2 0x49D JUMPI DUP1 PUSH4 0x8456CB59 EQ PUSH2 0x4BB JUMPI DUP1 PUSH4 0x8BF55409 EQ PUSH2 0x4C5 JUMPI DUP1 PUSH4 0x8DA5CB5B EQ PUSH2 0x4E1 JUMPI DUP1 PUSH4 0x95D89B41 EQ PUSH2 0x4FF JUMPI PUSH2 0x20F JUMP JUMPDEST DUP1 PUSH4 0x715018A6 EQ PUSH2 0x42B JUMPI DUP1 PUSH4 0x79CC6790 EQ PUSH2 0x435 JUMPI DUP1 PUSH4 0x7C562A94 EQ PUSH2 0x451 JUMPI DUP1 PUSH4 0x7FFBE241 EQ PUSH2 0x46D JUMPI PUSH2 0x20F JUMP JUMPDEST DUP1 PUSH4 0x313CE567 GT PUSH2 0x1A6 JUMPI DUP1 PUSH4 0x42966C68 GT PUSH2 0x175 JUMPI DUP1 PUSH4 0x42966C68 EQ PUSH2 0x385 JUMPI DUP1 PUSH4 0x45C952CB EQ PUSH2 0x3A1 JUMPI DUP1 PUSH4 0x5C975ABB EQ PUSH2 0x3BF JUMPI DUP1 PUSH4 0x61D027B3 EQ PUSH2 0x3DD JUMPI DUP1 PUSH4 0x70A08231 EQ PUSH2 0x3FB JUMPI PUSH2 0x20F JUMP JUMPDEST DUP1 PUSH4 0x313CE567 EQ PUSH2 0x321 JUMPI DUP1 PUSH4 0x3A03171C EQ PUSH2 0x33F JUMPI DUP1 PUSH4 0x3F4BA83A EQ PUSH2 0x35D JUMPI DUP1 PUSH4 0x4214E0AF EQ PUSH2 0x367 JUMPI PUSH2 0x20F JUMP JUMPDEST DUP1 PUSH4 0x21D66353 GT PUSH2 0x1E2 JUMPI DUP1 PUSH4 0x21D66353 EQ PUSH2 0x29D JUMPI DUP1 PUSH4 0x23B872DD EQ PUSH2 0x2B9 JUMPI DUP1 PUSH4 0x296ED9F4 EQ PUSH2 0x2E9 JUMPI DUP1 PUSH4 0x3028F63A EQ PUSH2 0x305 JUMPI PUSH2 0x20F JUMP JUMPDEST DUP1 PUSH4 0x6FDDE03 EQ PUSH2 0x213 JUMPI DUP1 PUSH4 0x95EA7B3 EQ PUSH2 0x231 JUMPI DUP1 PUSH4 0xC56AE3B EQ PUSH2 0x261 JUMPI DUP1 PUSH4 0x18160DDD EQ PUSH2 0x27F JUMPI JUMPDEST PUSH0 DUP1 REVERT JUMPDEST PUSH2 0x21B PUSH2 0x647 JUMP JUMPDEST PUSH1 0x40 MLOAD PUSH2 0x228 SWAP2 SWAP1 PUSH2 0x2110 JUMP JUMPDEST PUSH1 0x40 MLOAD DUP1 SWAP2 SUB SWAP1 RETURN JUMPDEST PUSH2 0x24B PUSH1 0x4 DUP1 CALLDATASIZE SUB DUP2 ADD SWAP1 PUSH2 0x246 SWAP2 SWAP1 PUSH2 0x21C1 JUMP JUMPDEST PUSH2 0x6D7 JUMP JUMPDEST PUSH1 0x40 MLOAD PUSH2 0x258 SWAP2 SWAP1 PUSH2 0x2219 JUMP JUMPDEST PUSH1 0x40 MLOAD DUP1 SWAP2 SUB SWAP1 RETURN JUMPDEST PUSH2 0x269 PUSH2 0x6F9 JUMP JUMPDEST PUSH1 0x40 MLOAD PUSH2 0x276 SWAP2 SWAP1 PUSH2 0x2241 JUMP JUMPDEST PUSH1 0x40 MLOAD DUP1 SWAP2 SUB SWAP1 RETURN JUMPDEST PUSH2 0x287 PUSH2 0x71E JUMP JUMPDEST PUSH1 0x40 MLOAD PUSH2 0x294 SWAP2 SWAP1 PUSH2 0x2269 JUMP JUMPDEST PUSH1 0x40 MLOAD DUP1 SWAP2 SUB SWAP1 RETURN JUMPDEST PUSH2 0x2B7 PUSH1 0x4 DUP1 CALLDATASIZE SUB DUP2 ADD SWAP1 PUSH2 0x2B2 SWAP2 SWAP1 PUSH2 0x2282 JUMP JUMPDEST PUSH2 0x727 JUMP JUMPDEST STOP JUMPDEST PUSH2 0x2D3 PUSH1 0x4 DUP1 CALLDATASIZE SUB DUP2 ADD SWAP1 PUSH2 0x2CE SWAP2 SWAP1 PUSH2 0x22AD JUMP JUMPDEST PUSH2 0x7AD JUMP JUMPDEST PUSH1 0x40 MLOAD PUSH2 0x2E0 SWAP2 SWAP1 PUSH2 0x2219 JUMP JUMPDEST PUSH1 0x40 MLOAD DUP1 SWAP2 SUB SWAP1 RETURN JUMPDEST PUSH2 0x303 PUSH1 0x4 DUP1 CALLDATASIZE SUB DUP2 ADD SWAP1 PUSH2 0x2FE SWAP2 SWAP1 PUSH2 0x21C1 JUMP JUMPDEST PUSH2 0x7DB JUMP JUMPDEST STOP JUMPDEST PUSH2 0x31F PUSH1 0x4 DUP1 CALLDATASIZE SUB DUP2 ADD SWAP1 PUSH2 0x31A SWAP2 SWAP1 PUSH2 0x22FD JUMP JUMPDEST PUSH2 0xA6E JUMP JUMPDEST STOP JUMPDEST PUSH2 0x329 PUSH2 0xC80 JUMP JUMPDEST PUSH1 0x40 MLOAD PUSH2 0x336 SWAP2 SWAP1 PUSH2 0x2343 JUMP JUMPDEST PUSH1 0x40 MLOAD DUP1 SWAP2 SUB SWAP1 RETURN JUMPDEST PUSH2 0x347 PUSH2 0xC88 JUMP JUMPDEST PUSH1 0x40 MLOAD PUSH2 0x354 SWAP2 SWAP1 PUSH2 0x2269 JUMP JUMPDEST PUSH1 0x40 MLOAD DUP1 SWAP2 SUB SWAP1 RETURN JUMPDEST PUSH2 0x365 PUSH2 0xC97 JUMP JUMPDEST STOP JUMPDEST PUSH2 0x36F PUSH2 0xCFD JUMP JUMPDEST PUSH1 0x40 MLOAD PUSH2 0x37C SWAP2 SWAP1 PUSH2 0x2269 JUMP JUMPDEST PUSH1 0x40 MLOAD DUP1 SWAP2 SUB SWAP1 RETURN JUMPDEST PUSH2 0x39F PUSH1 0x4 DUP1 CALLDATASIZE SUB DUP2 ADD SWAP1 PUSH2 0x39A SWAP2 SWAP1 PUSH2 0x2282 JUMP JUMPDEST PUSH2 0xD03 JUMP JUMPDEST STOP JUMPDEST PUSH2 0x3A9 PUSH2 0xD17 JUMP JUMPDEST PUSH1 0x40 MLOAD PUSH2 0x3B6 SWAP2 SWAP1 PUSH2 0x2269 JUMP JUMPDEST PUSH1 0x40 MLOAD DUP1 SWAP2 SUB SWAP1 RETURN JUMPDEST PUSH2 0x3C7 PUSH2 0xD1D JUMP JUMPDEST PUSH1 0x40 MLOAD PUSH2 0x3D4 SWAP2 SWAP1 PUSH2 0x2219 JUMP JUMPDEST PUSH1 0x40 MLOAD DUP1 SWAP2 SUB SWAP1 RETURN JUMPDEST PUSH2 0x3E5 PUSH2 0xD2F JUMP JUMPDEST PUSH1 0x40 MLOAD PUSH2 0x3F2 SWAP2 SWAP1 PUSH2 0x2241 JUMP JUMPDEST PUSH1 0x40 MLOAD DUP1 SWAP2 SUB SWAP1 RETURN JUMPDEST PUSH2 0x415 PUSH1 0x4 DUP1 CALLDATASIZE SUB DUP2 ADD SWAP1 PUSH2 0x410 SWAP2 SWAP1 PUSH2 0x22FD JUMP JUMPDEST PUSH2 0xD54 JUMP JUMPDEST PUSH1 0x40 MLOAD PUSH2 0x422 SWAP2 SWAP1 PUSH2 0x2269 JUMP JUMPDEST PUSH1 0x40 MLOAD DUP1 SWAP2 SUB SWAP1 RETURN JUMPDEST PUSH2 0x433 PUSH2 0xD99 JUMP JUMPDEST STOP JUMPDEST PUSH2 0x44F PUSH1 0x4 DUP1 CALLDATASIZE SUB DUP2 ADD SWAP1 PUSH2 0x44A SWAP2 SWAP1 PUSH2 0x21C1 JUMP JUMPDEST PUSH2 0xDAC JUMP JUMPDEST STOP JUMPDEST PUSH2 0x46B PUSH1 0x4 DUP1 CALLDATASIZE SUB DUP2 ADD SWAP1 PUSH2 0x466 SWAP2 SWAP1 PUSH2 0x22FD JUMP JUMPDEST PUSH2 0xDCC JUMP JUMPDEST STOP JUMPDEST PUSH2 0x487 PUSH1 0x4 DUP1 CALLDATASIZE SUB DUP2 ADD SWAP1 PUSH2 0x482 SWAP2 SWAP1 PUSH2 0x22FD JUMP JUMPDEST PUSH2 0xFDE JUMP JUMPDEST PUSH1 0x40 MLOAD PUSH2 0x494 SWAP2 SWAP1 PUSH2 0x2219 JUMP JUMPDEST PUSH1 0x40 MLOAD DUP1 SWAP2 SUB SWAP1 RETURN JUMPDEST PUSH2 0x4A5 PUSH2 0xFFB JUMP JUMPDEST PUSH1 0x40 MLOAD PUSH2 0x4B2 SWAP2 SWAP1 PUSH2 0x2269 JUMP JUMPDEST PUSH1 0x40 MLOAD DUP1 SWAP2 SUB SWAP1 RETURN JUMPDEST PUSH2 0x4C3 PUSH2 0xFFF JUMP JUMPDEST STOP JUMPDEST PUSH2 0x4DF PUSH1 0x4 DUP1 CALLDATASIZE SUB DUP2 ADD SWAP1 PUSH2 0x4DA SWAP2 SWAP1 PUSH2 0x2282 JUMP JUMPDEST PUSH2 0x1066 JUMP JUMPDEST STOP JUMPDEST PUSH2 0x4E9 PUSH2 0x10AF JUMP JUMPDEST PUSH1 0x40 MLOAD PUSH2 0x4F6 SWAP2 SWAP1 PUSH2 0x2241 JUMP JUMPDEST PUSH1 0x40 MLOAD DUP1 SWAP2 SUB SWAP1 RETURN JUMPDEST PUSH2 0x507 PUSH2 0x10D7 JUMP JUMPDEST PUSH1 0x40 MLOAD PUSH2 0x514 SWAP2 SWAP1 PUSH2 0x2110 JUMP JUMPDEST PUSH1 0x40 MLOAD DUP1 SWAP2 SUB SWAP1 RETURN JUMPDEST PUSH2 0x537 PUSH1 0x4 DUP1 CALLDATASIZE SUB DUP2 ADD SWAP1 PUSH2 0x532 SWAP2 SWAP1 PUSH2 0x2282 JUMP JUMPDEST PUSH2 0x1167 JUMP JUMPDEST STOP JUMPDEST PUSH2 0x553 PUSH1 0x4 DUP1 CALLDATASIZE SUB DUP2 ADD SWAP1 PUSH2 0x54E SWAP2 SWAP1 PUSH2 0x21C1 JUMP JUMPDEST PUSH2 0x11B0 JUMP JUMPDEST PUSH1 0x40 MLOAD PUSH2 0x560 SWAP2 SWAP1 PUSH2 0x2219 JUMP JUMPDEST PUSH1 0x40 MLOAD DUP1 SWAP2 SUB SWAP1 RETURN JUMPDEST PUSH2 0x571 PUSH2 0x11D2 JUMP JUMPDEST PUSH1 0x40 MLOAD PUSH2 0x57E SWAP2 SWAP1 PUSH2 0x2269 JUMP JUMPDEST PUSH1 0x40 MLOAD DUP1 SWAP2 SUB SWAP1 RETURN JUMPDEST PUSH2 0x58F PUSH2 0x11D8 JUMP JUMPDEST PUSH1 0x40 MLOAD PUSH2 0x59C SWAP2 SWAP1 PUSH2 0x2269 JUMP JUMPDEST PUSH1 0x40 MLOAD DUP1 SWAP2 SUB SWAP1 RETURN JUMPDEST PUSH2 0x5AD PUSH2 0x11FC JUMP JUMPDEST PUSH1 0x40 MLOAD PUSH2 0x5BA SWAP2 SWAP1 PUSH2 0x2241 JUMP JUMPDEST PUSH1 0x40 MLOAD DUP1 SWAP2 SUB SWAP1 RETURN JUMPDEST PUSH2 0x5DD PUSH1 0x4 DUP1 CALLDATASIZE SUB DUP2 ADD SWAP1 PUSH2 0x5D8 SWAP2 SWAP1 PUSH2 0x235C JUMP JUMPDEST PUSH2 0x1221 JUMP JUMPDEST PUSH1 0x40 MLOAD PUSH2 0x5EA SWAP2 SWAP1 PUSH2 0x2269 JUMP JUMPDEST PUSH1 0x40 MLOAD DUP1 SWAP2 SUB SWAP1 RETURN JUMPDEST PUSH2 0x60D PUSH1 0x4 DUP1 CALLDATASIZE SUB DUP2 ADD SWAP1 PUSH2 0x608 SWAP2 SWAP1 PUSH2 0x23C4 JUMP JUMPDEST PUSH2 0x12A3 JUMP JUMPDEST STOP JUMPDEST PUSH2 0x629 PUSH1 0x4 DUP1 CALLDATASIZE SUB DUP2 ADD SWAP1 PUSH2 0x624 SWAP2 SWAP1 PUSH2 0x22FD JUMP JUMPDEST PUSH2 0x13B6 JUMP JUMPDEST STOP JUMPDEST PUSH2 0x645 PUSH1 0x4 DUP1 CALLDATASIZE SUB DUP2 ADD SWAP1 PUSH2 0x640 SWAP2 SWAP1 PUSH2 0x22FD JUMP JUMPDEST PUSH2 0x15AB JUMP JUMPDEST STOP JUMPDEST PUSH1 0x60 PUSH1 0x3 DUP1 SLOAD PUSH2 0x656 SWAP1 PUSH2 0x242F JUMP JUMPDEST DUP1 PUSH1 0x1F ADD PUSH1 0x20 DUP1 SWAP2 DIV MUL PUSH1 0x20 ADD PUSH1 0x40 MLOAD SWAP1 DUP2 ADD PUSH1 0x40 MSTORE DUP1 SWAP3 SWAP2 SWAP1 DUP2 DUP2 MSTORE PUSH1 0x20 ADD DUP3 DUP1 SLOAD PUSH2 0x682 SWAP1 PUSH2 0x242F JUMP JUMPDEST DUP1 ISZERO PUSH2 0x6CD JUMPI DUP1 PUSH1 0x1F LT PUSH2 0x6A4 JUMPI PUSH2 0x100 DUP1 DUP4 SLOAD DIV MUL DUP4 MSTORE SWAP2 PUSH1 0x20 ADD SWAP2 PUSH2 0x6CD JUMP JUMPDEST DUP3 ADD SWAP2 SWAP1 PUSH0 MSTORE PUSH1 0x20 PUSH0 KECCAK256 SWAP1 JUMPDEST DUP2 SLOAD DUP2 MSTORE SWAP1 PUSH1 0x1 ADD SWAP1 PUSH1 0x20 ADD DUP1 DUP4 GT PUSH2 0x6B0 JUMPI DUP3 SWAP1 SUB PUSH1 0x1F AND DUP3 ADD SWAP2 JUMPDEST POP POP POP POP POP SWAP1 POP SWAP1 JUMP JUMPDEST PUSH0 DUP1 PUSH2 0x6E1 PUSH2 0x162F JUMP JUMPDEST SWAP1 POP PUSH2 0x6EE DUP2 DUP6 DUP6 PUSH2 0x1636 JUMP JUMPDEST PUSH1 0x1 SWAP2 POP POP SWAP3 SWAP2 POP POP JUMP JUMPDEST PUSH1 0x7 PUSH0 SWAP1 SLOAD SWAP1 PUSH2 0x100 EXP SWAP1 DIV PUSH20 0xFFFFFFFFFFFFFFFFFFFFFFFFFFFFFFFFFFFFFFFF AND DUP2 JUMP JUMPDEST PUSH0 PUSH1 0x2 SLOAD SWAP1 POP SWAP1 JUMP JUMPDEST PUSH2 0x72F PUSH2 0x1648 JUMP JUMPDEST PUSH0 DUP2 SUB PUSH2 0x768 JUMPI PUSH1 0x40 MLOAD PUSH32 0x1F2A200500000000000000000000000000000000000000000000000000000000 DUP2 MSTORE PUSH1 0x4 ADD PUSH1 0x40 MLOAD DUP1 SWAP2 SUB SWAP1 REVERT JUMPDEST PUSH32 0x5299E127AC8BDC64FD0E551DD406BA1E1FBAEBC96D458CE9B1A5E69CAECDF376 PUSH1 0xA SLOAD DUP3 PUSH1 0x40 MLOAD PUSH2 0x79B SWAP3 SWAP2 SWAP1 PUSH2 0x245F JUMP JUMPDEST PUSH1 0x40 MLOAD DUP1 SWAP2 SUB SWAP1 LOG1 DUP1 PUSH1 0xA DUP2 SWAP1 SSTORE POP POP JUMP JUMPDEST PUSH0 DUP1 PUSH2 0x7B7 PUSH2 0x162F JUMP JUMPDEST SWAP1 POP PUSH2 0x7C4 DUP6 DUP3 DUP6 PUSH2 0x16CF JUMP JUMPDEST PUSH2 0x7CF DUP6 DUP6 DUP6 PUSH2 0x1762 JUMP JUMPDEST PUSH1 0x1 SWAP2 POP POP SWAP4 SWAP3 POP POP POP JUMP JUMPDEST PUSH2 0x7E3 PUSH2 0x1852 JUMP JUMPDEST PUSH1 0x7 PUSH0 SWAP1 SLOAD SWAP1 PUSH2 0x100 EXP SWAP1 DIV PUSH20 0xFFFFFFFFFFFFFFFFFFFFFFFFFFFFFFFFFFFFFFFF AND PUSH20 0xFFFFFFFFFFFFFFFFFFFFFFFFFFFFFFFFFFFFFFFF AND CALLER PUSH20 0xFFFFFFFFFFFFFFFFFFFFFFFFFFFFFFFFFFFFFFFF AND EQ ISZERO DUP1 ISZERO PUSH2 0x88D JUMPI POP PUSH1 0x8 PUSH0 SWAP1 SLOAD SWAP1 PUSH2 0x100 EXP SWAP1 DIV PUSH20 0xFFFFFFFFFFFFFFFFFFFFFFFFFFFFFFFFFFFFFFFF AND PUSH20 0xFFFFFFFFFFFFFFFFFFFFFFFFFFFFFFFFFFFFFFFF AND CALLER PUSH20 0xFFFFFFFFFFFFFFFFFFFFFFFFFFFFFFFFFFFFFFFF AND EQ ISZERO JUMPDEST DUP1 ISZERO PUSH2 0x8CC JUMPI POP PUSH2 0x89C PUSH2 0x10AF JUMP JUMPDEST PUSH20 0xFFFFFFFFFFFFFFFFFFFFFFFFFFFFFFFFFFFFFFFF AND CALLER PUSH20 0xFFFFFFFFFFFFFFFFFFFFFFFFFFFFFFFFFFFFFFFF AND EQ ISZERO JUMPDEST ISZERO PUSH2 0x903 JUMPI PUSH1 0x40 MLOAD PUSH32 0xCD2E8E8000000000000000000000000000000000000000000000000000000000 DUP2 MSTORE PUSH1 0x4 ADD PUSH1 0x40 MLOAD DUP1 SWAP2 SUB SWAP1 REVERT JUMPDEST PUSH0 PUSH20 0xFFFFFFFFFFFFFFFFFFFFFFFFFFFFFFFFFFFFFFFF AND DUP3 PUSH20 0xFFFFFFFFFFFFFFFFFFFFFFFFFFFFFFFFFFFFFFFF AND SUB PUSH2 0x968 JUMPI PUSH1 0x40 MLOAD PUSH32 0xD92E233D00000000000000000000000000000000000000000000000000000000 DUP2 MSTORE PUSH1 0x4 ADD PUSH1 0x40 MLOAD DUP1 SWAP2 SUB SWAP1 REVERT JUMPDEST PUSH0 DUP2 SUB PUSH2 0x9A1 JUMPI PUSH1 0x40 MLOAD PUSH32 0x1F2A200500000000000000000000000000000000000000000000000000000000 DUP2 MSTORE PUSH1 0x4 ADD PUSH1 0x40 MLOAD DUP1 SWAP2 SUB SWAP1 REVERT JUMPDEST PUSH0 PUSH2 0x9AA PUSH2 0x71E JUMP JUMPDEST PUSH11 0x52B7D2DCC80CD2E4000000 PUSH2 0x9C0 SWAP2 SWAP1 PUSH2 0x24B3 JUMP JUMPDEST SWAP1 POP DUP1 DUP3 GT ISZERO PUSH2 0xA09 JUMPI DUP2 DUP2 PUSH1 0x40 MLOAD PUSH32 0x7333416E00000000000000000000000000000000000000000000000000000000 DUP2 MSTORE PUSH1 0x4 ADD PUSH2 0xA00 SWAP3 SWAP2 SWAP1 PUSH2 0x245F JUMP JUMPDEST PUSH1 0x40 MLOAD DUP1 SWAP2 SUB SWAP1 REVERT JUMPDEST PUSH2 0xA13 DUP4 DUP4 PUSH2 0x1874 JUMP JUMPDEST DUP3 PUSH20 0xFFFFFFFFFFFFFFFFFFFFFFFFFFFFFFFFFFFFFFFF AND PUSH32 0x64E4BB1BD66F16486C6FF3BF1E7EE4919E2E2DC7B134E2ED9FBD814A9949FE6B DUP4 PUSH1 0x40 MLOAD PUSH2 0xA59 SWAP2 SWAP1 PUSH2 0x2269 JUMP JUMPDEST PUSH1 0x40 MLOAD DUP1 SWAP2 SUB SWAP1 LOG2 POP PUSH2 0xA6A PUSH2 0x18F3 JUMP JUMPDEST POP POP JUMP JUMPDEST PUSH2 0xA76 PUSH2 0x1648 JUMP JUMPDEST PUSH0 PUSH20 0xFFFFFFFFFFFFFFFFFFFFFFFFFFFFFFFFFFFFFFFF AND DUP2 PUSH20 0xFFFFFFFFFFFFFFFFFFFFFFFFFFFFFFFFFFFFFFFF AND SUB PUSH2 0xADB JUMPI PUSH1 0x40 MLOAD PUSH32 0xD92E233D00000000000000000000000000000000000000000000000000000000 DUP2 MSTORE PUSH1 0x4 ADD PUSH1 0x40 MLOAD DUP1 SWAP2 SUB SWAP1 REVERT JUMPDEST PUSH0 PUSH20 0xFFFFFFFFFFFFFFFFFFFFFFFFFFFFFFFFFFFFFFFF AND PUSH1 0x7 PUSH0 SWAP1 SLOAD SWAP1 PUSH2 0x100 EXP SWAP1 DIV PUSH20 0xFFFFFFFFFFFFFFFFFFFFFFFFFFFFFFFFFFFFFFFF AND PUSH20 0xFFFFFFFFFFFFFFFFFFFFFFFFFFFFFFFFFFFFFFFF AND EQ PUSH2 0xBA5 JUMPI PUSH0 PUSH1 0xC PUSH0 PUSH1 0x7 PUSH0 SWAP1 SLOAD SWAP1 PUSH2 0x100 EXP SWAP1 DIV PUSH20 0xFFFFFFFFFFFFFFFFFFFFFFFFFFFFFFFFFFFFFFFF AND PUSH20 0xFFFFFFFFFFFFFFFFFFFFFFFFFFFFFFFFFFFFFFFF AND PUSH20 0xFFFFFFFFFFFFFFFFFFFFFFFFFFFFFFFFFFFFFFFF AND DUP2 MSTORE PUSH1 0x20 ADD SWAP1 DUP2 MSTORE PUSH1 0x20 ADD PUSH0 KECCAK256 PUSH0 PUSH2 0x100 EXP DUP2 SLOAD DUP2 PUSH1 0xFF MUL NOT AND SWAP1 DUP4 ISZERO ISZERO MUL OR SWAP1 SSTORE POP JUMPDEST DUP1 PUSH1 0x7 PUSH0 PUSH2 0x100 EXP DUP2 SLOAD DUP2 PUSH20 0xFFFFFFFFFFFFFFFFFFFFFFFFFFFFFFFFFFFFFFFF MUL NOT AND SWAP1 DUP4 PUSH20 0xFFFFFFFFFFFFFFFFFFFFFFFFFFFFFFFFFFFFFFFF AND MUL OR SWAP1 SSTORE POP PUSH1 0x1 PUSH1 0xC PUSH0 DUP4 PUSH20 0xFFFFFFFFFFFFFFFFFFFFFFFFFFFFFFFFFFFFFFFF AND PUSH20 0xFFFFFFFFFFFFFFFFFFFFFFFFFFFFFFFFFFFFFFFF AND DUP2 MSTORE PUSH1 0x20 ADD SWAP1 DUP2 MSTORE PUSH1 0x20 ADD PUSH0 KECCAK256 PUSH0 PUSH2 0x100 EXP DUP2 SLOAD DUP2 PUSH1 0xFF MUL NOT AND SWAP1 DUP4 ISZERO ISZERO MUL OR SWAP1 SSTORE POP DUP1 PUSH20 0xFFFFFFFFFFFFFFFFFFFFFFFFFFFFFFFFFFFFFFFF AND PUSH32 0x6FCA2E06BB34845F84427E65445730E7E00FAF72AD37F6485B24DE98F103BB06 PUSH1 0x40 MLOAD PUSH1 0x40 MLOAD DUP1 SWAP2 SUB SWAP1 LOG2 POP JUMP JUMPDEST PUSH0 PUSH1 0x12 SWAP1 POP SWAP1 JUMP JUMPDEST PUSH11 0x52B7D2DCC80CD2E4000000 DUP2 JUMP JUMPDEST PUSH2 0xC9F PUSH2 0x1648 JUMP JUMPDEST PUSH0 PUSH1 0xD PUSH0 PUSH2 0x100 EXP DUP2 SLOAD DUP2 PUSH1 0xFF MUL NOT AND SWAP1 DUP4 ISZERO ISZERO MUL OR SWAP1 SSTORE POP CALLER PUSH20 0xFFFFFFFFFFFFFFFFFFFFFFFFFFFFFFFFFFFFFFFF AND PUSH32 0x5DB9EE0A495BF2E6FF9C91A7834C1BA4FDD244A5E8AA4E537BD38AEAE4B073AA PUSH1 0x40 MLOAD PUSH1 0x40 MLOAD DUP1 SWAP2 SUB SWAP1 LOG2 JUMP JUMPDEST PUSH1 0x9 SLOAD DUP2 JUMP JUMPDEST PUSH2 0xD14 PUSH2 0xD0E PUSH2 0x162F JUMP JUMPDEST DUP3 PUSH2 0x190D JUMP JUMPDEST POP JUMP JUMPDEST PUSH1 0xA SLOAD DUP2 JUMP JUMPDEST PUSH1 0xD PUSH0 SWAP1 SLOAD SWAP1 PUSH2 0x100 EXP SWAP1 DIV PUSH1 0xFF AND DUP2 JUMP JUMPDEST PUSH1 0x6 PUSH0 SWAP1 SLOAD SWAP1 PUSH2 0x100 EXP SWAP1 DIV PUSH20 0xFFFFFFFFFFFFFFFFFFFFFFFFFFFFFFFFFFFFFFFF AND DUP2 JUMP JUMPDEST PUSH0 DUP1 PUSH0 DUP4 PUSH20 0xFFFFFFFFFFFFFFFFFFFFFFFFFFFFFFFFFFFFFFFF AND PUSH20 0xFFFFFFFFFFFFFFFFFFFFFFFFFFFFFFFFFFFFFFFF AND DUP2 MSTORE PUSH1 0x20 ADD SWAP1 DUP2 MSTORE PUSH1 0x20 ADD PUSH0 KECCAK256 SLOAD SWAP1 POP SWAP2 SWAP1 POP JUMP JUMPDEST PUSH2 0xDA1 PUSH2 0x1648 JUMP JUMPDEST PUSH2 0xDAA PUSH0 PUSH2 0x198C JUMP JUMPDEST JUMP JUMPDEST PUSH2 0xDBE DUP3 PUSH2 0xDB8 PUSH2 0x162F JUMP JUMPDEST DUP4 PUSH2 0x16CF JUMP JUMPDEST PUSH2 0xDC8 DUP3 DUP3 PUSH2 0x190D JUMP JUMPDEST POP POP JUMP JUMPDEST PUSH2 0xDD4 PUSH2 0x1648 JUMP JUMPDEST PUSH0 PUSH20 0xFFFFFFFFFFFFFFFFFFFFFFFFFFFFFFFFFFFFFFFF AND DUP2 PUSH20 0xFFFFFFFFFFFFFFFFFFFFFFFFFFFFFFFFFFFFFFFF AND SUB PUSH2 0xE39 JUMPI PUSH1 0x40 MLOAD PUSH32 0xD92E233D00000000000000000000000000000000000000000000000000000000 DUP2 MSTORE PUSH1 0x4 ADD PUSH1 0x40 MLOAD DUP1 SWAP2 SUB SWAP1 REVERT JUMPDEST PUSH0 PUSH20 0xFFFFFFFFFFFFFFFFFFFFFFFFFFFFFFFFFFFFFFFF AND PUSH1 0x8 PUSH0 SWAP1 SLOAD SWAP1 PUSH2 0x100 EXP SWAP1 DIV PUSH20 0xFFFFFFFFFFFFFFFFFFFFFFFFFFFFFFFFFFFFFFFF AND PUSH20 0xFFFFFFFFFFFFFFFFFFFFFFFFFFFFFFFFFFFFFFFF AND EQ PUSH2 0xF03 JUMPI PUSH0 PUSH1 0xC PUSH0 PUSH1 0x8 PUSH0 SWAP1 SLOAD SWAP1 PUSH2 0x100 EXP SWAP1 DIV PUSH20 0xFFFFFFFFFFFFFFFFFFFFFFFFFFFFFFFFFFFFFFFF AND PUSH20 0xFFFFFFFFFFFFFFFFFFFFFFFFFFFFFFFFFFFFFFFF AND PUSH20 0xFFFFFFFFFFFFFFFFFFFFFFFFFFFFFFFFFFFFFFFF AND DUP2 MSTORE PUSH1 0x20 ADD SWAP1 DUP2 MSTORE PUSH1 0x20 ADD PUSH0 KECCAK256 PUSH0 PUSH2 0x100 EXP DUP2 SLOAD DUP2 PUSH1 0xFF MUL NOT AND SWAP1 DUP4 ISZERO ISZERO MUL OR SWAP1 SSTORE POP JUMPDEST DUP1 PUSH1 0x8 PUSH0 PUSH2 0x100 EXP DUP2 SLOAD DUP2 PUSH20 0xFFFFFFFFFFFFFFFFFFFFFFFFFFFFFFFFFFFFFFFF MUL NOT AND SWAP1 DUP4 PUSH20 0xFFFFFFFFFFFFFFFFFFFFFFFFFFFFFFFFFFFFFFFF AND MUL OR SWAP1 SSTORE POP PUSH1 0x1 PUSH1 0xC PUSH0 DUP4 PUSH20 0xFFFFFFFFFFFFFFFFFFFFFFFFFFFFFFFFFFFFFFFF AND PUSH20 0xFFFFFFFFFFFFFFFFFFFFFFFFFFFFFFFFFFFFFFFF AND DUP2 MSTORE PUSH1 0x20 ADD SWAP1 DUP2 MSTORE PUSH1 0x20 ADD PUSH0 KECCAK256 PUSH0 PUSH2 0x100 EXP DUP2 SLOAD DUP2 PUSH1 0xFF MUL NOT AND SWAP1 DUP4 ISZERO ISZERO MUL OR SWAP1 SSTORE POP DUP1 PUSH20 0xFFFFFFFFFFFFFFFFFFFFFFFFFFFFFFFFFFFFFFFF AND PUSH32 0x984594D51CB2B9061C64322CC955DC1CF1E8BF0F73512BA8221E4DB196BE16A PUSH1 0x40 MLOAD PUSH1 0x40 MLOAD DUP1 SWAP2 SUB SWAP1 LOG2 POP JUMP JUMPDEST PUSH1 0xC PUSH1 0x20 MSTORE DUP1 PUSH0 MSTORE PUSH1 0x40 PUSH0 KECCAK256 PUSH0 SWAP2 POP SLOAD SWAP1 PUSH2 0x100 EXP SWAP1 DIV PUSH1 0xFF AND DUP2 JUMP JUMPDEST PUSH0 SWAP1 JUMP JUMPDEST PUSH2 0x1007 PUSH2 0x1648 JUMP JUMPDEST PUSH1 0x1 PUSH1 0xD PUSH0 PUSH2 0x100 EXP DUP2 SLOAD DUP2 PUSH1 0xFF MUL NOT AND SWAP1 DUP4 ISZERO ISZERO MUL OR SWAP1 SSTORE POP CALLER PUSH20 0xFFFFFFFFFFFFFFFFFFFFFFFFFFFFFFFFFFFFFFFF AND PUSH32 0x62E78CEA01BEE320CD4E420270B5EA74000D11B0C9F74754EBDBFC544B05A258 PUSH1 0x40 MLOAD PUSH1 0x40 MLOAD DUP1 SWAP2 SUB SWAP1 LOG2 JUMP JUMPDEST PUSH2 0x106E PUSH2 0x1648 JUMP JUMPDEST DUP1 PUSH1 0xB DUP2 SWAP1 SSTORE POP PUSH32 0xD82D7466DBFB0B68291841D1ADF74DF365A848CD534D11E8C6B238EC9FB5EBE6 DUP2 PUSH1 0x40 MLOAD PUSH2 0x10A4 SWAP2 SWAP1 PUSH2 0x2269 JUMP JUMPDEST PUSH1 0x40 MLOAD DUP1 SWAP2 SUB SWAP1 LOG1 POP JUMP JUMPDEST PUSH0 PUSH1 0x5 PUSH0 SWAP1 SLOAD SWAP1 PUSH2 0x100 EXP SWAP1 DIV PUSH20 0xFFFFFFFFFFFFFFFFFFFFFFFFFFFFFFFFFFFFFFFF AND SWAP1 POP SWAP1 JUMP JUMPDEST PUSH1 0x60 PUSH1 0x4 DUP1 SLOAD PUSH2 0x10E6 SWAP1 PUSH2 0x242F JUMP JUMPDEST DUP1 PUSH1 0x1F ADD PUSH1 0x20 DUP1 SWAP2 DIV MUL PUSH1 0x20 ADD PUSH1 0x40 MLOAD SWAP1 DUP2 ADD PUSH1 0x40 MSTORE DUP1 SWAP3 SWAP2 SWAP1 DUP2 DUP2 MSTORE PUSH1 0x20 ADD DUP3 DUP1 SLOAD PUSH2 0x1112 SWAP1 PUSH2 0x242F JUMP JUMPDEST DUP1 ISZERO PUSH2 0x115D JUMPI DUP1 PUSH1 0x1F LT PUSH2 0x1134 JUMPI PUSH2 0x100 DUP1 DUP4 SLOAD DIV MUL DUP4 MSTORE SWAP2 PUSH1 0x20 ADD SWAP2 PUSH2 0x115D JUMP JUMPDEST DUP3 ADD SWAP2 SWAP1 PUSH0 MSTORE PUSH1 0x20 PUSH0 KECCAK256 SWAP1 JUMPDEST DUP2 SLOAD DUP2 MSTORE SWAP1 PUSH1 0x1 ADD SWAP1 PUSH1 0x20 ADD DUP1 DUP4 GT PUSH2 0x1140 JUMPI DUP3 SWAP1 SUB PUSH1 0x1F AND DUP3 ADD SWAP2 JUMPDEST POP POP POP POP POP SWAP1 POP SWAP1 JUMP JUMPDEST PUSH2 0x116F PUSH2 0x1648 JUMP JUMPDEST DUP1 PUSH1 0x9 DUP2 SWAP1 SSTORE POP PUSH32 0x10A8B7CB1FAAB491ACF8E175333E56C4BF4AD24AE1927DC38925AC085085F71 DUP2 PUSH1 0x40 MLOAD PUSH2 0x11A5 SWAP2 SWAP1 PUSH2 0x2269 JUMP JUMPDEST PUSH1 0x40 MLOAD DUP1 SWAP2 SUB SWAP1 LOG1 POP JUMP JUMPDEST PUSH0 DUP1 PUSH2 0x11BA PUSH2 0x162F JUMP JUMPDEST SWAP1 POP PUSH2 0x11C7 DUP2 DUP6 DUP6 PUSH2 0x1762 JUMP JUMPDEST PUSH1 0x1 SWAP2 POP POP SWAP3 SWAP2 POP POP JUMP JUMPDEST PUSH1 0xB SLOAD DUP2 JUMP JUMPDEST PUSH0 PUSH2 0x11E1 PUSH2 0x71E JUMP JUMPDEST PUSH11 0x52B7D2DCC80CD2E4000000 PUSH2 0x11F7 SWAP2 SWAP1 PUSH2 0x24B3 JUMP JUMPDEST SWAP1 POP SWAP1 JUMP JUMPDEST PUSH1 0x8 PUSH0 SWAP1 SLOAD SWAP1 PUSH2 0x100 EXP SWAP1 DIV PUSH20 0xFFFFFFFFFFFFFFFFFFFFFFFFFFFFFFFFFFFFFFFF AND DUP2 JUMP JUMPDEST PUSH0 PUSH1 0x1 PUSH0 DUP5 PUSH20 0xFFFFFFFFFFFFFFFFFFFFFFFFFFFFFFFFFFFFFFFF AND PUSH20 0xFFFFFFFFFFFFFFFFFFFFFFFFFFFFFFFFFFFFFFFF AND DUP2 MSTORE PUSH1 0x20 ADD SWAP1 DUP2 MSTORE PUSH1 0x20 ADD PUSH0 KECCAK256 PUSH0 DUP4 PUSH20 0xFFFFFFFFFFFFFFFFFFFFFFFFFFFFFFFFFFFFFFFF AND PUSH20 0xFFFFFFFFFFFFFFFFFFFFFFFFFFFFFFFFFFFFFFFF AND DUP2 MSTORE PUSH1 0x20 ADD SWAP1 DUP2 MSTORE PUSH1 0x20 ADD PUSH0 KECCAK256 SLOAD SWAP1 POP SWAP3 SWAP2 POP POP JUMP JUMPDEST PUSH2 0x12AB PUSH2 0x1648 JUMP JUMPDEST PUSH0 PUSH20 0xFFFFFFFFFFFFFFFFFFFFFFFFFFFFFFFFFFFFFFFF AND DUP3 PUSH20 0xFFFFFFFFFFFFFFFFFFFFFFFFFFFFFFFFFFFFFFFF AND SUB PUSH2 0x1310 JUMPI PUSH1 0x40 MLOAD PUSH32 0xD92E233D00000000000000000000000000000000000000000000000000000000 DUP2 MSTORE PUSH1 0x4 ADD PUSH1 0x40 MLOAD DUP1 SWAP2 SUB SWAP1 REVERT JUMPDEST DUP1 PUSH1 0xC PUSH0 DUP5 PUSH20 0xFFFFFFFFFFFFFFFFFFFFFFFFFFFFFFFFFFFFFFFF AND PUSH20 0xFFFFFFFFFFFFFFFFFFFFFFFFFFFFFFFFFFFFFFFF AND DUP2 MSTORE PUSH1 0x20 ADD SWAP1 DUP2 MSTORE PUSH1 0x20 ADD PUSH0 KECCAK256 PUSH0 PUSH2 0x100 EXP DUP2 SLOAD DUP2 PUSH1 0xFF MUL NOT AND SWAP1 DUP4 ISZERO ISZERO MUL OR SWAP1 SSTORE POP DUP2 PUSH20 0xFFFFFFFFFFFFFFFFFFFFFFFFFFFFFFFFFFFFFFFF AND PUSH32 0xE3B4918D2544570F4FD920CE69294772100C0D60360C88D94C56FADBBEF76CB1 DUP3 PUSH1 0x40 MLOAD PUSH2 0x13AA SWAP2 SWAP1 PUSH2 0x2219 JUMP JUMPDEST PUSH1 0x40 MLOAD DUP1 SWAP2 SUB SWAP1 LOG2 POP POP JUMP JUMPDEST PUSH2 0x13BE PUSH2 0x1648 JUMP JUMPDEST PUSH0 PUSH20 0xFFFFFFFFFFFFFFFFFFFFFFFFFFFFFFFFFFFFFFFF AND DUP2 PUSH20 0xFFFFFFFFFFFFFFFFFFFFFFFFFFFFFFFFFFFFFFFF AND SUB PUSH2 0x1423 JUMPI PUSH1 0x40 MLOAD PUSH32 0xD92E233D00000000000000000000000000000000000000000000000000000000 DUP2 MSTORE PUSH1 0x4 ADD PUSH1 0x40 MLOAD DUP1 SWAP2 SUB SWAP1 REVERT JUMPDEST PUSH0 PUSH1 0xC PUSH0 PUSH1 0x6 PUSH0 SWAP1 SLOAD SWAP1 PUSH2 0x100 EXP SWAP1 DIV PUSH20 0xFFFFFFFFFFFFFFFFFFFFFFFFFFFFFFFFFFFFFFFF AND PUSH20 0xFFFFFFFFFFFFFFFFFFFFFFFFFFFFFFFFFFFFFFFF AND PUSH20 0xFFFFFFFFFFFFFFFFFFFFFFFFFFFFFFFFFFFFFFFF AND DUP2 MSTORE PUSH1 0x20 ADD SWAP1 DUP2 MSTORE PUSH1 0x20 ADD PUSH0 KECCAK256 PUSH0 PUSH2 0x100 EXP DUP2 SLOAD DUP2 PUSH1 0xFF MUL NOT AND SWAP1 DUP4 ISZERO ISZERO MUL OR SWAP1 SSTORE POP DUP1 PUSH20 0xFFFFFFFFFFFFFFFFFFFFFFFFFFFFFFFFFFFFFFFF AND PUSH1 0x6 PUSH0 SWAP1 SLOAD SWAP1 PUSH2 0x100 EXP SWAP1 DIV PUSH20 0xFFFFFFFFFFFFFFFFFFFFFFFFFFFFFFFFFFFFFFFF AND PUSH20 0xFFFFFFFFFFFFFFFFFFFFFFFFFFFFFFFFFFFFFFFF AND PUSH32 0x4AB5BE82436D353E61CA18726E984E561F5C1CC7C6D38B29D2553C790434705A PUSH1 0x40 MLOAD PUSH1 0x40 MLOAD DUP1 SWAP2 SUB SWAP1 LOG3 DUP1 PUSH1 0x6 PUSH0 PUSH2 0x100 EXP DUP2 SLOAD DUP2 PUSH20 0xFFFFFFFFFFFFFFFFFFFFFFFFFFFFFFFFFFFFFFFF MUL NOT AND SWAP1 DUP4 PUSH20 0xFFFFFFFFFFFFFFFFFFFFFFFFFFFFFFFFFFFFFFFF AND MUL OR SWAP1 SSTORE POP PUSH1 0x1 PUSH1 0xC PUSH0 DUP4 PUSH20 0xFFFFFFFFFFFFFFFFFFFFFFFFFFFFFFFFFFFFFFFF AND PUSH20 0xFFFFFFFFFFFFFFFFFFFFFFFFFFFFFFFFFFFFFFFF AND DUP2 MSTORE PUSH1 0x20 ADD SWAP1 DUP2 MSTORE PUSH1 0x20 ADD PUSH0 KECCAK256 PUSH0 PUSH2 0x100 EXP DUP2 SLOAD DUP2 PUSH1 0xFF MUL NOT AND SWAP1 DUP4 ISZERO ISZERO MUL OR SWAP1 SSTORE POP POP JUMP JUMPDEST PUSH2 0x15B3 PUSH2 0x1648 JUMP JUMPDEST PUSH0 PUSH20 0xFFFFFFFFFFFFFFFFFFFFFFFFFFFFFFFFFFFFFFFF AND DUP2 PUSH20 0xFFFFFFFFFFFFFFFFFFFFFFFFFFFFFFFFFFFFFFFF AND SUB PUSH2 0x1623 JUMPI PUSH0 PUSH1 0x40 MLOAD PUSH32 0x1E4FBDF700000000000000000000000000000000000000000000000000000000 DUP2 MSTORE PUSH1 0x4 ADD PUSH2 0x161A SWAP2 SWAP1 PUSH2 0x2241 JUMP JUMPDEST PUSH1 0x40 MLOAD DUP1 SWAP2 SUB SWAP1 REVERT JUMPDEST PUSH2 0x162C DUP2 PUSH2 0x198C JUMP JUMPDEST POP JUMP JUMPDEST PUSH0 CALLER SWAP1 POP SWAP1 JUMP JUMPDEST PUSH2 0x1643 DUP4 DUP4 DUP4 PUSH1 0x1 PUSH2 0x1A4F JUMP JUMPDEST POP POP POP JUMP JUMPDEST PUSH2 0x1650 PUSH2 0x162F JUMP JUMPDEST PUSH20 0xFFFFFFFFFFFFFFFFFFFFFFFFFFFFFFFFFFFFFFFF AND PUSH2 0x166E PUSH2 0x10AF JUMP JUMPDEST PUSH20 0xFFFFFFFFFFFFFFFFFFFFFFFFFFFFFFFFFFFFFFFF AND EQ PUSH2 0x16CD JUMPI PUSH2 0x1691 PUSH2 0x162F JUMP JUMPDEST PUSH1 0x40 MLOAD PUSH32 0x118CDAA700000000000000000000000000000000000000000000000000000000 DUP2 MSTORE PUSH1 0x4 ADD PUSH2 0x16C4 SWAP2 SWAP1 PUSH2 0x2241 JUMP JUMPDEST PUSH1 0x40 MLOAD DUP1 SWAP2 SUB SWAP1 REVERT JUMPDEST JUMP JUMPDEST PUSH0 PUSH2 0x16DA DUP5 DUP5 PUSH2 0x1221 JUMP JUMPDEST SWAP1 POP PUSH32 0xFFFFFFFFFFFFFFFFFFFFFFFFFFFFFFFFFFFFFFFFFFFFFFFFFFFFFFFFFFFFFFFF DUP2 LT ISZERO PUSH2 0x175C JUMPI DUP2 DUP2 LT ISZERO PUSH2 0x174D JUMPI DUP3 DUP2 DUP4 PUSH1 0x40 MLOAD PUSH32 0xFB8F41B200000000000000000000000000000000000000000000000000000000 DUP2 MSTORE PUSH1 0x4 ADD PUSH2 0x1744 SWAP4 SWAP3 SWAP2 SWAP1 PUSH2 0x24E6 JUMP JUMPDEST PUSH1 0x40 MLOAD DUP1 SWAP2 SUB SWAP1 REVERT JUMPDEST PUSH2 0x175B DUP5 DUP5 DUP5 DUP5 SUB PUSH0 PUSH2 0x1A4F JUMP JUMPDEST JUMPDEST POP POP POP POP JUMP JUMPDEST PUSH0 PUSH20 0xFFFFFFFFFFFFFFFFFFFFFFFFFFFFFFFFFFFFFFFF AND DUP4 PUSH20 0xFFFFFFFFFFFFFFFFFFFFFFFFFFFFFFFFFFFFFFFF AND SUB PUSH2 0x17D2 JUMPI PUSH0 PUSH1 0x40 MLOAD PUSH32 0x96C6FD1E00000000000000000000000000000000000000000000000000000000 DUP2 MSTORE PUSH1 0x4 ADD PUSH2 0x17C9 SWAP2 SWAP1 PUSH2 0x2241 JUMP JUMPDEST PUSH1 0x40 MLOAD DUP1 SWAP2 SUB SWAP1 REVERT JUMPDEST PUSH0 PUSH20 0xFFFFFFFFFFFFFFFFFFFFFFFFFFFFFFFFFFFFFFFF AND DUP3 PUSH20 0xFFFFFFFFFFFFFFFFFFFFFFFFFFFFFFFFFFFFFFFF AND SUB PUSH2 0x1842 JUMPI PUSH0 PUSH1 0x40 MLOAD PUSH32 0xEC442F0500000000000000000000000000000000000000000000000000000000 DUP2 MSTORE PUSH1 0x4 ADD PUSH2 0x1839 SWAP2 SWAP1 PUSH2 0x2241 JUMP JUMPDEST PUSH1 0x40 MLOAD DUP1 SWAP2 SUB SWAP1 REVERT JUMPDEST PUSH2 0x184D DUP4 DUP4 DUP4 PUSH2 0x1C1E JUMP JUMPDEST POP POP POP JUMP JUMPDEST PUSH2 0x185A PUSH2 0x1DDE JUMP JUMPDEST PUSH1 0x2 PUSH2 0x186C PUSH2 0x1867 PUSH2 0x1E1F JUMP JUMPDEST PUSH2 0x1E48 JUMP JUMPDEST PUSH0 ADD DUP2 SWAP1 SSTORE POP JUMP JUMPDEST PUSH0 PUSH20 0xFFFFFFFFFFFFFFFFFFFFFFFFFFFFFFFFFFFFFFFF AND DUP3 PUSH20 0xFFFFFFFFFFFFFFFFFFFFFFFFFFFFFFFFFFFFFFFF AND SUB PUSH2 0x18E4 JUMPI PUSH0 PUSH1 0x40 MLOAD PUSH32 0xEC442F0500000000000000000000000000000000000000000000000000000000 DUP2 MSTORE PUSH1 0x4 ADD PUSH2 0x18DB SWAP2 SWAP1 PUSH2 0x2241 JUMP JUMPDEST PUSH1 0x40 MLOAD DUP1 SWAP2 SUB SWAP1 REVERT JUMPDEST PUSH2 0x18EF PUSH0 DUP4 DUP4 PUSH2 0x1C1E JUMP JUMPDEST POP POP JUMP JUMPDEST PUSH1 0x1 PUSH2 0x1905 PUSH2 0x1900 PUSH2 0x1E1F JUMP JUMPDEST PUSH2 0x1E48 JUMP JUMPDEST PUSH0 ADD DUP2 SWAP1 SSTORE POP JUMP JUMPDEST PUSH0 PUSH20 0xFFFFFFFFFFFFFFFFFFFFFFFFFFFFFFFFFFFFFFFF AND DUP3 PUSH20 0xFFFFFFFFFFFFFFFFFFFFFFFFFFFFFFFFFFFFFFFF AND SUB PUSH2 0x197D JUMPI PUSH0 PUSH1 0x40 MLOAD PUSH32 0x96C6FD1E00000000000000000000000000000000000000000000000000000000 DUP2 MSTORE PUSH1 0x4 ADD PUSH2 0x1974 SWAP2 SWAP1 PUSH2 0x2241 JUMP JUMPDEST PUSH1 0x40 MLOAD DUP1 SWAP2 SUB SWAP1 REVERT JUMPDEST PUSH2 0x1988 DUP3 PUSH0 DUP4 PUSH2 0x1C1E JUMP JUMPDEST POP POP JUMP JUMPDEST PUSH0 PUSH1 0x5 PUSH0 SWAP1 SLOAD SWAP1 PUSH2 0x100 EXP SWAP1 DIV PUSH20 0xFFFFFFFFFFFFFFFFFFFFFFFFFFFFFFFFFFFFFFFF AND SWAP1 POP DUP2 PUSH1 0x5 PUSH0 PUSH2 0x100 EXP DUP2 SLOAD DUP2 PUSH20 0xFFFFFFFFFFFFFFFFFFFFFFFFFFFFFFFFFFFFFFFF MUL NOT AND SWAP1 DUP4 PUSH20 0xFFFFFFFFFFFFFFFFFFFFFFFFFFFFFFFFFFFFFFFF AND MUL OR SWAP1 SSTORE POP DUP2 PUSH20 0xFFFFFFFFFFFFFFFFFFFFFFFFFFFFFFFFFFFFFFFF AND DUP2 PUSH20 0xFFFFFFFFFFFFFFFFFFFFFFFFFFFFFFFFFFFFFFFF AND PUSH32 0x8BE0079C531659141344CD1FD0A4F28419497F9722A3DAAFE3B4186F6B6457E0 PUSH1 0x40 MLOAD PUSH1 0x40 MLOAD DUP1 SWAP2 SUB SWAP1 LOG3 POP POP JUMP JUMPDEST PUSH0 PUSH20 0xFFFFFFFFFFFFFFFFFFFFFFFFFFFFFFFFFFFFFFFF AND DUP5 PUSH20 0xFFFFFFFFFFFFFFFFFFFFFFFFFFFFFFFFFFFFFFFF AND SUB PUSH2 0x1ABF JUMPI PUSH0 PUSH1 0x40 MLOAD PUSH32 0xE602DF0500000000000000000000000000000000000000000000000000000000 DUP2 MSTORE PUSH1 0x4 ADD PUSH2 0x1AB6 SWAP2 SWAP1 PUSH2 0x2241 JUMP JUMPDEST PUSH1 0x40 MLOAD DUP1 SWAP2 SUB SWAP1 REVERT JUMPDEST PUSH0 PUSH20 0xFFFFFFFFFFFFFFFFFFFFFFFFFFFFFFFFFFFFFFFF AND DUP4 PUSH20 0xFFFFFFFFFFFFFFFFFFFFFFFFFFFFFFFFFFFFFFFF AND SUB PUSH2 0x1B2F JUMPI PUSH0 PUSH1 0x40 MLOAD PUSH32 0x94280D6200000000000000000000000000000000000000000000000000000000 DUP2 MSTORE PUSH1 0x4 ADD PUSH2 0x1B26 SWAP2 SWAP1 PUSH2 0x2241 JUMP JUMPDEST PUSH1 0x40 MLOAD DUP1 SWAP2 SUB SWAP1 REVERT JUMPDEST DUP2 PUSH1 0x1 PUSH0 DUP7 PUSH20 0xFFFFFFFFFFFFFFFFFFFFFFFFFFFFFFFFFFFFFFFF AND PUSH20 0xFFFFFFFFFFFFFFFFFFFFFFFFFFFFFFFFFFFFFFFF AND DUP2 MSTORE PUSH1 0x20 ADD SWAP1 DUP2 MSTORE PUSH1 0x20 ADD PUSH0 KECCAK256 PUSH0 DUP6 PUSH20 0xFFFFFFFFFFFFFFFFFFFFFFFFFFFFFFFFFFFFFFFF AND PUSH20 0xFFFFFFFFFFFFFFFFFFFFFFFFFFFFFFFFFFFFFFFF AND DUP2 MSTORE PUSH1 0x20 ADD SWAP1 DUP2 MSTORE PUSH1 0x20 ADD PUSH0 KECCAK256 DUP2 SWAP1 SSTORE POP DUP1 ISZERO PUSH2 0x1C18 JUMPI DUP3 PUSH20 0xFFFFFFFFFFFFFFFFFFFFFFFFFFFFFFFFFFFFFFFF AND DUP5 PUSH20 0xFFFFFFFFFFFFFFFFFFFFFFFFFFFFFFFFFFFFFFFF AND PUSH32 0x8C5BE1E5EBEC7D5BD14F71427D1E84F3DD0314C0F7B2291E5B200AC8C7C3B925 DUP5 PUSH1 0x40 MLOAD PUSH2 0x1C0F SWAP2 SWAP1 PUSH2 0x2269 JUMP JUMPDEST PUSH1 0x40 MLOAD DUP1 SWAP2 SUB SWAP1 LOG3 JUMPDEST POP POP POP POP JUMP JUMPDEST PUSH1 0xD PUSH0 SWAP1 SLOAD SWAP1 PUSH2 0x100 EXP SWAP1 DIV PUSH1 0xFF AND ISZERO PUSH2 0x1C64 JUMPI PUSH1 0x40 MLOAD PUSH32 0xCD1FDA9F00000000000000000000000000000000000000000000000000000000 DUP2 MSTORE PUSH1 0x4 ADD PUSH1 0x40 MLOAD DUP1 SWAP2 SUB SWAP1 REVERT JUMPDEST PUSH0 PUSH20 0xFFFFFFFFFFFFFFFFFFFFFFFFFFFFFFFFFFFFFFFF AND DUP4 PUSH20 0xFFFFFFFFFFFFFFFFFFFFFFFFFFFFFFFFFFFFFFFF AND EQ ISZERO DUP1 ISZERO PUSH2 0x1CCC JUMPI POP PUSH0 PUSH20 0xFFFFFFFFFFFFFFFFFFFFFFFFFFFFFFFFFFFFFFFF AND DUP3 PUSH20 0xFFFFFFFFFFFFFFFFFFFFFFFFFFFFFFFFFFFFFFFF AND EQ ISZERO JUMPDEST ISZERO PUSH2 0x1DCE JUMPI PUSH0 PUSH1 0xB SLOAD GT DUP1 ISZERO PUSH2 0x1D29 JUMPI POP PUSH1 0xC PUSH0 DUP5 PUSH20 0xFFFFFFFFFFFFFFFFFFFFFFFFFFFFFFFFFFFFFFFF AND PUSH20 0xFFFFFFFFFFFFFFFFFFFFFFFFFFFFFFFFFFFFFFFF AND DUP2 MSTORE PUSH1 0x20 ADD SWAP1 DUP2 MSTORE PUSH1 0x20 ADD PUSH0 KECCAK256 PUSH0 SWAP1 SLOAD SWAP1 PUSH2 0x100 EXP SWAP1 DIV PUSH1 0xFF AND ISZERO JUMPDEST DUP1 ISZERO PUSH2 0x1D7C JUMPI POP PUSH1 0xC PUSH0 DUP4 PUSH20 0xFFFFFFFFFFFFFFFFFFFFFFFFFFFFFFFFFFFFFFFF AND PUSH20 0xFFFFFFFFFFFFFFFFFFFFFFFFFFFFFFFFFFFFFFFF AND DUP2 MSTORE PUSH1 0x20 ADD SWAP1 DUP2 MSTORE PUSH1 0x20 ADD PUSH0 KECCAK256 PUSH0 SWAP1 SLOAD SWAP1 PUSH2 0x100 EXP SWAP1 DIV PUSH1 0xFF AND ISZERO JUMPDEST ISZERO PUSH2 0x1DCD JUMPI PUSH1 0xB SLOAD DUP2 GT ISZERO PUSH2 0x1DCC JUMPI DUP1 PUSH1 0xB SLOAD PUSH1 0x40 MLOAD PUSH32 0x8112E4E200000000000000000000000000000000000000000000000000000000 DUP2 MSTORE PUSH1 0x4 ADD PUSH2 0x1DC3 SWAP3 SWAP2 SWAP1 PUSH2 0x245F JUMP JUMPDEST PUSH1 0x40 MLOAD DUP1 SWAP2 SUB SWAP1 REVERT JUMPDEST JUMPDEST JUMPDEST PUSH2 0x1DD9 DUP4 DUP4 DUP4 PUSH2 0x1E51 JUMP JUMPDEST POP POP POP JUMP JUMPDEST PUSH2 0x1DE6 PUSH2 0x206A JUMP JUMPDEST ISZERO PUSH2 0x1E1D JUMPI PUSH1 0x40 MLOAD PUSH32 0x3EE5AEB500000000000000000000000000000000000000000000000000000000 DUP2 MSTORE PUSH1 0x4 ADD PUSH1 0x40 MLOAD DUP1 SWAP2 SUB SWAP1 REVERT JUMPDEST JUMP JUMPDEST PUSH0 PUSH32 0x9B779B17422D0DF92223018B32B4D1FA46E071723D6817E2486D003BECC55F00 PUSH0 SHL SWAP1 POP SWAP1 JUMP JUMPDEST PUSH0 DUP2 SWAP1 POP SWAP2 SWAP1 POP JUMP JUMPDEST PUSH0 PUSH20 0xFFFFFFFFFFFFFFFFFFFFFFFFFFFFFFFFFFFFFFFF AND DUP4 PUSH20 0xFFFFFFFFFFFFFFFFFFFFFFFFFFFFFFFFFFFFFFFF AND SUB PUSH2 0x1EA1 JUMPI DUP1 PUSH1 0x2 PUSH0 DUP3 DUP3 SLOAD PUSH2 0x1E95 SWAP2 SWAP1 PUSH2 0x251B JUMP JUMPDEST SWAP3 POP POP DUP2 SWAP1 SSTORE POP PUSH2 0x1F6F JUMP JUMPDEST PUSH0 DUP1 PUSH0 DUP6 PUSH20 0xFFFFFFFFFFFFFFFFFFFFFFFFFFFFFFFFFFFFFFFF AND PUSH20 0xFFFFFFFFFFFFFFFFFFFFFFFFFFFFFFFFFFFFFFFF AND DUP2 MSTORE PUSH1 0x20 ADD SWAP1 DUP2 MSTORE PUSH1 0x20 ADD PUSH0 KECCAK256 SLOAD SWAP1 POP DUP2 DUP2 LT ISZERO PUSH2 0x1F2A JUMPI DUP4 DUP2 DUP4 PUSH1 0x40 MLOAD PUSH32 0xE450D38C00000000000000000000000000000000000000000000000000000000 DUP2 MSTORE PUSH1 0x4 ADD PUSH2 0x1F21 SWAP4 SWAP3 SWAP2 SWAP1 PUSH2 0x24E6 JUMP JUMPDEST PUSH1 0x40 MLOAD DUP1 SWAP2 SUB SWAP1 REVERT JUMPDEST DUP2 DUP2 SUB PUSH0 DUP1 DUP7 PUSH20 0xFFFFFFFFFFFFFFFFFFFFFFFFFFFFFFFFFFFFFFFF AND PUSH20 0xFFFFFFFFFFFFFFFFFFFFFFFFFFFFFFFFFFFFFFFF AND DUP2 MSTORE PUSH1 0x20 ADD SWAP1 DUP2 MSTORE PUSH1 0x20 ADD PUSH0 KECCAK256 DUP2 SWAP1 SSTORE POP POP JUMPDEST PUSH0 PUSH20 0xFFFFFFFFFFFFFFFFFFFFFFFFFFFFFFFFFFFFFFFF AND DUP3 PUSH20 0xFFFFFFFFFFFFFFFFFFFFFFFFFFFFFFFFFFFFFFFF AND SUB PUSH2 0x1FB6 JUMPI DUP1 PUSH1 0x2 PUSH0 DUP3 DUP3 SLOAD SUB SWAP3 POP POP DUP2 SWAP1 SSTORE POP PUSH2 0x2000 JUMP JUMPDEST DUP1 PUSH0 DUP1 DUP5 PUSH20 0xFFFFFFFFFFFFFFFFFFFFFFFFFFFFFFFFFFFFFFFF AND PUSH20 0xFFFFFFFFFFFFFFFFFFFFFFFFFFFFFFFFFFFFFFFF AND DUP2 MSTORE PUSH1 0x20 ADD SWAP1 DUP2 MSTORE PUSH1 0x20 ADD PUSH0 KECCAK256 PUSH0 DUP3 DUP3 SLOAD ADD SWAP3 POP POP DUP2 SWAP1 SSTORE POP JUMPDEST DUP2 PUSH20 0xFFFFFFFFFFFFFFFFFFFFFFFFFFFFFFFFFFFFFFFF AND DUP4 PUSH20 0xFFFFFFFFFFFFFFFFFFFFFFFFFFFFFFFFFFFFFFFF AND PUSH32 0xDDF252AD1BE2C89B69C2B068FC378DAA952BA7F163C4A11628F55A4DF523B3EF DUP4 PUSH1 0x40 MLOAD PUSH2 0x205D SWAP2 SWAP1 PUSH2 0x2269 JUMP JUMPDEST PUSH1 0x40 MLOAD DUP1 SWAP2 SUB SWAP1 LOG3 POP POP POP JUMP JUMPDEST PUSH0 PUSH1 0x2 PUSH2 0x207D PUSH2 0x2078 PUSH2 0x1E1F JUMP JUMPDEST PUSH2 0x1E48 JUMP JUMPDEST PUSH0 ADD SLOAD EQ SWAP1 POP SWAP1 JUMP JUMPDEST PUSH0 DUP2 MLOAD SWAP1 POP SWAP2 SWAP1 POP JUMP JUMPDEST PUSH0 DUP3 DUP3 MSTORE PUSH1 0x20 DUP3 ADD SWAP1 POP SWAP3 SWAP2 POP POP JUMP JUMPDEST PUSH0 JUMPDEST DUP4 DUP2 LT ISZERO PUSH2 0x20BD JUMPI DUP1 DUP3 ADD MLOAD DUP2 DUP5 ADD MSTORE PUSH1 0x20 DUP2 ADD SWAP1 POP PUSH2 0x20A2 JUMP JUMPDEST PUSH0 DUP5 DUP5 ADD MSTORE POP POP POP POP JUMP JUMPDEST PUSH0 PUSH1 0x1F NOT PUSH1 0x1F DUP4 ADD AND SWAP1 POP SWAP2 SWAP1 POP JUMP JUMPDEST PUSH0 PUSH2 0x20E2 DUP3 PUSH2 0x2086 JUMP JUMPDEST PUSH2 0x20EC DUP2 DUP6 PUSH2 0x2090 JUMP JUMPDEST SWAP4 POP PUSH2 0x20FC DUP2 DUP6 PUSH1 0x20 DUP7 ADD PUSH2 0x20A0 JUMP JUMPDEST PUSH2 0x2105 DUP2 PUSH2 0x20C8 JUMP JUMPDEST DUP5 ADD SWAP2 POP POP SWAP3 SWAP2 POP POP JUMP JUMPDEST PUSH0 PUSH1 0x20 DUP3 ADD SWAP1 POP DUP2 DUP2 SUB PUSH0 DUP4 ADD MSTORE PUSH2 0x2128 DUP2 DUP5 PUSH2 0x20D8 JUMP JUMPDEST SWAP1 POP SWAP3 SWAP2 POP POP JUMP JUMPDEST PUSH0 DUP1 REVERT JUMPDEST PUSH0 PUSH20 0xFFFFFFFFFFFFFFFFFFFFFFFFFFFFFFFFFFFFFFFF DUP3 AND SWAP1 POP SWAP2 SWAP1 POP JUMP JUMPDEST PUSH0 PUSH2 0x215D DUP3 PUSH2 0x2134 JUMP JUMPDEST SWAP1 POP SWAP2 SWAP1 POP JUMP JUMPDEST PUSH2 0x216D DUP2 PUSH2 0x2153 JUMP JUMPDEST DUP2 EQ PUSH2 0x2177 JUMPI PUSH0 DUP1 REVERT JUMPDEST POP JUMP JUMPDEST PUSH0 DUP2 CALLDATALOAD SWAP1 POP PUSH2 0x2188 DUP2 PUSH2 0x2164 JUMP JUMPDEST SWAP3 SWAP2 POP POP JUMP JUMPDEST PUSH0 DUP2 SWAP1 POP SWAP2 SWAP1 POP JUMP JUMPDEST PUSH2 0x21A0 DUP2 PUSH2 0x218E JUMP JUMPDEST DUP2 EQ PUSH2 0x21AA JUMPI PUSH0 DUP1 REVERT JUMPDEST POP JUMP JUMPDEST PUSH0 DUP2 CALLDATALOAD SWAP1 POP PUSH2 0x21BB DUP2 PUSH2 0x2197 JUMP JUMPDEST SWAP3 SWAP2 POP POP JUMP JUMPDEST PUSH0 DUP1 PUSH1 0x40 DUP4 DUP6 SUB SLT ISZERO PUSH2 0x21D7 JUMPI PUSH2 0x21D6 PUSH2 0x2130 JUMP JUMPDEST JUMPDEST PUSH0 PUSH2 0x21E4 DUP6 DUP3 DUP7 ADD PUSH2 0x217A JUMP JUMPDEST SWAP3 POP POP PUSH1 0x20 PUSH2 0x21F5 DUP6 DUP3 DUP7 ADD PUSH2 0x21AD JUMP JUMPDEST SWAP2 POP POP SWAP3 POP SWAP3 SWAP1 POP JUMP JUMPDEST PUSH0 DUP2 ISZERO ISZERO SWAP1 POP SWAP2 SWAP1 POP JUMP JUMPDEST PUSH2 0x2213 DUP2 PUSH2 0x21FF JUMP JUMPDEST DUP3 MSTORE POP POP JUMP JUMPDEST PUSH0 PUSH1 0x20 DUP3 ADD SWAP1 POP PUSH2 0x222C PUSH0 DUP4 ADD DUP5 PUSH2 0x220A JUMP JUMPDEST SWAP3 SWAP2 POP POP JUMP JUMPDEST PUSH2 0x223B DUP2 PUSH2 0x2153 JUMP JUMPDEST DUP3 MSTORE POP POP JUMP JUMPDEST PUSH0 PUSH1 0x20 DUP3 ADD SWAP1 POP PUSH2 0x2254 PUSH0 DUP4 ADD DUP5 PUSH2 0x2232 JUMP JUMPDEST SWAP3 SWAP2 POP POP JUMP JUMPDEST PUSH2 0x2263 DUP2 PUSH2 0x218E JUMP JUMPDEST DUP3 MSTORE POP POP JUMP JUMPDEST PUSH0 PUSH1 0x20 DUP3 ADD SWAP1 POP PUSH2 0x227C PUSH0 DUP4 ADD DUP5 PUSH2 0x225A JUMP JUMPDEST SWAP3 SWAP2 POP POP JUMP JUMPDEST PUSH0 PUSH1 0x20 DUP3 DUP5 SUB SLT ISZERO PUSH2 0x2297 JUMPI PUSH2 0x2296 PUSH2 0x2130 JUMP JUMPDEST JUMPDEST PUSH0 PUSH2 0x22A4 DUP5 DUP3 DUP6 ADD PUSH2 0x21AD JUMP JUMPDEST SWAP2 POP POP SWAP3 SWAP2 POP POP JUMP JUMPDEST PUSH0 DUP1 PUSH0 PUSH1 0x60 DUP5 DUP7 SUB SLT ISZERO PUSH2 0x22C4 JUMPI PUSH2 0x22C3 PUSH2 0x2130 JUMP JUMPDEST JUMPDEST PUSH0 PUSH2 0x22D1 DUP7 DUP3 DUP8 ADD PUSH2 0x217A JUMP JUMPDEST SWAP4 POP POP PUSH1 0x20 PUSH2 0x22E2 DUP7 DUP3 DUP8 ADD PUSH2 0x217A JUMP JUMPDEST SWAP3 POP POP PUSH1 0x40 PUSH2 0x22F3 DUP7 DUP3 DUP8 ADD PUSH2 0x21AD JUMP JUMPDEST SWAP2 POP POP SWAP3 POP SWAP3 POP SWAP3 JUMP JUMPDEST PUSH0 PUSH1 0x20 DUP3 DUP5 SUB SLT ISZERO PUSH2 0x2312 JUMPI PUSH2 0x2311 PUSH2 0x2130 JUMP JUMPDEST JUMPDEST PUSH0 PUSH2 0x231F DUP5 DUP3 DUP6 ADD PUSH2 0x217A JUMP JUMPDEST SWAP2 POP POP SWAP3 SWAP2 POP POP JUMP JUMPDEST PUSH0 PUSH1 0xFF DUP3 AND SWAP1 POP SWAP2 SWAP1 POP JUMP JUMPDEST PUSH2 0x233D DUP2 PUSH2 0x2328 JUMP JUMPDEST DUP3 MSTORE POP POP JUMP JUMPDEST PUSH0 PUSH1 0x20 DUP3 ADD SWAP1 POP PUSH2 0x2356 PUSH0 DUP4 ADD DUP5 PUSH2 0x2334 JUMP JUMPDEST SWAP3 SWAP2 POP POP JUMP JUMPDEST PUSH0 DUP1 PUSH1 0x40 DUP4 DUP6 SUB SLT ISZERO PUSH2 0x2372 JUMPI PUSH2 0x2371 PUSH2 0x2130 JUMP JUMPDEST JUMPDEST PUSH0 PUSH2 0x237F DUP6 DUP3 DUP7 ADD PUSH2 0x217A JUMP JUMPDEST SWAP3 POP POP PUSH1 0x20 PUSH2 0x2390 DUP6 DUP3 DUP7 ADD PUSH2 0x217A JUMP JUMPDEST SWAP2 POP POP SWAP3 POP SWAP3 SWAP1 POP JUMP JUMPDEST PUSH2 0x23A3 DUP2 PUSH2 0x21FF JUMP JUMPDEST DUP2 EQ PUSH2 0x23AD JUMPI PUSH0 DUP1 REVERT JUMPDEST POP JUMP JUMPDEST PUSH0 DUP2 CALLDATALOAD SWAP1 POP PUSH2 0x23BE DUP2 PUSH2 0x239A JUMP JUMPDEST SWAP3 SWAP2 POP POP JUMP JUMPDEST PUSH0 DUP1 PUSH1 0x40 DUP4 DUP6 SUB SLT ISZERO PUSH2 0x23DA JUMPI PUSH2 0x23D9 PUSH2 0x2130 JUMP JUMPDEST JUMPDEST PUSH0 PUSH2 0x23E7 DUP6 DUP3 DUP7 ADD PUSH2 0x217A JUMP JUMPDEST SWAP3 POP POP PUSH1 0x20 PUSH2 0x23F8 DUP6 DUP3 DUP7 ADD PUSH2 0x23B0 JUMP JUMPDEST SWAP2 POP POP SWAP3 POP SWAP3 SWAP1 POP JUMP JUMPDEST PUSH32 0x4E487B7100000000000000000000000000000000000000000000000000000000 PUSH0 MSTORE PUSH1 0x22 PUSH1 0x4 MSTORE PUSH1 0x24 PUSH0 REVERT JUMPDEST PUSH0 PUSH1 0x2 DUP3 DIV SWAP1 POP PUSH1 0x1 DUP3 AND DUP1 PUSH2 0x2446 JUMPI PUSH1 0x7F DUP3 AND SWAP2 POP JUMPDEST PUSH1 0x20 DUP3 LT DUP2 SUB PUSH2 0x2459 JUMPI PUSH2 0x2458 PUSH2 0x2402 JUMP JUMPDEST JUMPDEST POP SWAP2 SWAP1 POP JUMP JUMPDEST PUSH0 PUSH1 0x40 DUP3 ADD SWAP1 POP PUSH2 0x2472 PUSH0 DUP4 ADD DUP6 PUSH2 0x225A JUMP JUMPDEST PUSH2 0x247F PUSH1 0x20 DUP4 ADD DUP5 PUSH2 0x225A JUMP JUMPDEST SWAP4 SWAP3 POP POP POP JUMP JUMPDEST PUSH32 0x4E487B7100000000000000000000000000000000000000000000000000000000 PUSH0 MSTORE PUSH1 0x11 PUSH1 0x4 MSTORE PUSH1 0x24 PUSH0 REVERT JUMPDEST PUSH0 PUSH2 0x24BD DUP3 PUSH2 0x218E JUMP JUMPDEST SWAP2 POP PUSH2 0x24C8 DUP4 PUSH2 0x218E JUMP JUMPDEST SWAP3 POP DUP3 DUP3 SUB SWAP1 POP DUP2 DUP2 GT ISZERO PUSH2 0x24E0 JUMPI PUSH2 0x24DF PUSH2 0x2486 JUMP JUMPDEST JUMPDEST SWAP3 SWAP2 POP POP JUMP JUMPDEST PUSH0 PUSH1 0x60 DUP3 ADD SWAP1 POP PUSH2 0x24F9 PUSH0 DUP4 ADD DUP7 PUSH2 0x2232 JUMP JUMPDEST PUSH2 0x2506 PUSH1 0x20 DUP4 ADD DUP6 PUSH2 0x225A JUMP JUMPDEST PUSH2 0x2513 PUSH1 0x40 DUP4 ADD DUP5 PUSH2 0x225A JUMP JUMPDEST SWAP5 SWAP4 POP POP POP POP JUMP JUMPDEST PUSH0 PUSH2 0x2525 DUP3 PUSH2 0x218E JUMP JUMPDEST SWAP2 POP PUSH2 0x2530 DUP4 PUSH2 0x218E JUMP JUMPDEST SWAP3 POP DUP3 DUP3 ADD SWAP1 POP DUP1 DUP3 GT ISZERO PUSH2 0x2548 JUMPI PUSH2 0x2547 PUSH2 0x2486 JUMP JUMPDEST JUMPDEST SWAP3 SWAP2 POP POP JUMP INVALID LOG2 PUSH5 0x6970667358 0x22 SLT KECCAK256 DUP13 EXP EQ 0x2D 0xBA 0xCC 0xC9 0x4D EXTCODESIZE 0xE7 0x21 0x4C 0xD6 0x24 PUSH9 0xD8159D7FE58C7E5B59 GASLIMIT 0xD0 DUP15 0xB0 PUSH30 0x4EB6AC64736F6C6343000818003300000000000000000000000000000000 "
				},
				"gasEstimates": {
					"creation": {
						"codeDepositCost": "1920800",
						"executionCost": "infinite",
						"totalCost": "infinite"
					},
					"external": {
						"HARD_CAP()": "393",
						"allowance(address,address)": "infinite",
						"approve(address,uint256)": "infinite",
						"balanceOf(address)": "2962",
						"burn(uint256)": "infinite",
						"burnFrom(address,uint256)": "infinite",
						"decimals()": "384",
						"emissionRatePerDay()": "2537",
						"entryCostETH()": "369",
						"entryCostTIMBS()": "2492",
						"farmPool()": "2552",
						"maxTransferAmount()": "2514",
						"mintEmissions(address,uint256)": "infinite",
						"name()": "infinite",
						"owner()": "2626",
						"pause()": "infinite",
						"paused()": "2555",
						"remainingEmissionsCapacity()": "infinite",
						"renounceOwnership()": "infinite",
						"setEmissionRate(uint256)": "infinite",
						"setEntryCostTIMBS(uint256)": "infinite",
						"setFarmPool(address)": "infinite",
						"setMaxTransferAmount(uint256)": "infinite",
						"setStakingPool(address)": "infinite",
						"setTransferWhitelist(address,bool)": "infinite",
						"setTreasury(address)": "infinite",
						"stakingPool()": "2599",
						"symbol()": "infinite",
						"totalSupply()": "2545",
						"transfer(address,uint256)": "infinite",
						"transferFrom(address,address,uint256)": "infinite",
						"transferOwnership(address)": "infinite",
						"transferWhitelist(address)": "2945",
						"treasury()": "2619",
						"unpause()": "infinite"
					},
					"internal": {
						"_update(address,address,uint256)": "infinite"
					}
				},
				"methodIdentifiers": {
					"HARD_CAP()": "3a03171c",
					"allowance(address,address)": "dd62ed3e",
					"approve(address,uint256)": "095ea7b3",
					"balanceOf(address)": "70a08231",
					"burn(uint256)": "42966c68",
					"burnFrom(address,uint256)": "79cc6790",
					"decimals()": "313ce567",
					"emissionRatePerDay()": "4214e0af",
					"entryCostETH()": "83d5d801",
					"entryCostTIMBS()": "45c952cb",
					"farmPool()": "d89a6fa6",
					"maxTransferAmount()": "a9e75723",
					"mintEmissions(address,uint256)": "296ed9f4",
					"name()": "06fdde03",
					"owner()": "8da5cb5b",
					"pause()": "8456cb59",
					"paused()": "5c975abb",
					"remainingEmissionsCapacity()": "ae11c4bc",
					"renounceOwnership()": "715018a6",
					"setEmissionRate(uint256)": "a1bdb15e",
					"setEntryCostTIMBS(uint256)": "21d66353",
					"setFarmPool(address)": "7c562a94",
					"setMaxTransferAmount(uint256)": "8bf55409",
					"setStakingPool(address)": "3028f63a",
					"setTransferWhitelist(address,bool)": "e4a34dce",
					"setTreasury(address)": "f0f44260",
					"stakingPool()": "0c56ae3b",
					"symbol()": "95d89b41",
					"totalSupply()": "18160ddd",
					"transfer(address,uint256)": "a9059cbb",
					"transferFrom(address,address,uint256)": "23b872dd",
					"transferOwnership(address)": "f2fde38b",
					"transferWhitelist(address)": "7ffbe241",
					"treasury()": "61d027b3",
					"unpause()": "3f4ba83a"
				}
			},
			"storageLayout": {
				"storage": [
					{
						"astId": 307,
						"contract": "contracts/TIMBSToken.sol:TIMBSToken",
						"label": "_balances",
						"offset": 0,
						"slot": "0",
						"type": "t_mapping(t_address,t_uint256)"
					},
					{
						"astId": 313,
						"contract": "contracts/TIMBSToken.sol:TIMBSToken",
						"label": "_allowances",
						"offset": 0,
						"slot": "1",
						"type": "t_mapping(t_address,t_mapping(t_address,t_uint256))"
					},
					{
						"astId": 315,
						"contract": "contracts/TIMBSToken.sol:TIMBSToken",
						"label": "_totalSupply",
						"offset": 0,
						"slot": "2",
						"type": "t_uint256"
					},
					{
						"astId": 317,
						"contract": "contracts/TIMBSToken.sol:TIMBSToken",
						"label": "_name",
						"offset": 0,
						"slot": "3",
						"type": "t_string_storage"
					},
					{
						"astId": 319,
						"contract": "contracts/TIMBSToken.sol:TIMBSToken",
						"label": "_symbol",
						"offset": 0,
						"slot": "4",
						"type": "t_string_storage"
					},
					{
						"astId": 8,
						"contract": "contracts/TIMBSToken.sol:TIMBSToken",
						"label": "_owner",
						"offset": 0,
						"slot": "5",
						"type": "t_address"
					},
					{
						"astId": 1240,
						"contract": "contracts/TIMBSToken.sol:TIMBSToken",
						"label": "treasury",
						"offset": 0,
						"slot": "6",
						"type": "t_address"
					},
					{
						"astId": 1243,
						"contract": "contracts/TIMBSToken.sol:TIMBSToken",
						"label": "stakingPool",
						"offset": 0,
						"slot": "7",
						"type": "t_address"
					},
					{
						"astId": 1246,
						"contract": "contracts/TIMBSToken.sol:TIMBSToken",
						"label": "farmPool",
						"offset": 0,
						"slot": "8",
						"type": "t_address"
					},
					{
						"astId": 1249,
						"contract": "contracts/TIMBSToken.sol:TIMBSToken",
						"label": "emissionRatePerDay",
						"offset": 0,
						"slot": "9",
						"type": "t_uint256"
					},
					{
						"astId": 1252,
						"contract": "contracts/TIMBSToken.sol:TIMBSToken",
						"label": "entryCostTIMBS",
						"offset": 0,
						"slot": "10",
						"type": "t_uint256"
					},
					{
						"astId": 1255,
						"contract": "contracts/TIMBSToken.sol:TIMBSToken",
						"label": "maxTransferAmount",
						"offset": 0,
						"slot": "11",
						"type": "t_uint256"
					},
					{
						"astId": 1260,
						"contract": "contracts/TIMBSToken.sol:TIMBSToken",
						"label": "transferWhitelist",
						"offset": 0,
						"slot": "12",
						"type": "t_mapping(t_address,t_bool)"
					},
					{
						"astId": 1263,
						"contract": "contracts/TIMBSToken.sol:TIMBSToken",
						"label": "paused",
						"offset": 0,
						"slot": "13",
						"type": "t_bool"
					}
				],
				"types": {
					"t_address": {
						"encoding": "inplace",
						"label": "address",
						"numberOfBytes": "20"
					},
					"t_bool": {
						"encoding": "inplace",
						"label": "bool",
						"numberOfBytes": "1"
					},
					"t_mapping(t_address,t_bool)": {
						"encoding": "mapping",
						"key": "t_address",
						"label": "mapping(address => bool)",
						"numberOfBytes": "32",
						"value": "t_bool"
					},
					"t_mapping(t_address,t_mapping(t_address,t_uint256))": {
						"encoding": "mapping",
						"key": "t_address",
						"label": "mapping(address => mapping(address => uint256))",
						"numberOfBytes": "32",
						"value": "t_mapping(t_address,t_uint256)"
					},
					"t_mapping(t_address,t_uint256)": {
						"encoding": "mapping",
						"key": "t_address",
						"label": "mapping(address => uint256)",
						"numberOfBytes": "32",
						"value": "t_uint256"
					},
					"t_string_storage": {
						"encoding": "bytes",
						"label": "string",
						"numberOfBytes": "32"
					},
					"t_uint256": {
						"encoding": "inplace",
						"label": "uint256",
						"numberOfBytes": "32"
					}
				}
			},
			"userdoc": {
				"kind": "user",
				"methods": {
					"HARD_CAP()": {
						"notice": "Absolute hard cap on total supply (initial + all future emissions)."
					},
					"emissionRatePerDay()": {
						"notice": "Owner-set emission rate in TIMBS per day (informational + used by pools)."
					},
					"entryCostETH()": {
						"notice": "ETH equivalent of entry cost derived from the TIMBS/ETH pool price."
					},
					"entryCostTIMBS()": {
						"notice": "Prize game entry cost in TIMBS. Governance-changeable. All ETH/additional-round costs derive from this single value."
					},
					"farmPool()": {
						"notice": "Farm (LP) pool contract — authorised to call mintEmissions()."
					},
					"maxTransferAmount()": {
						"notice": "Max TIMBS transferable in a single tx (anti-whale). 0 = disabled."
					},
					"mintEmissions(address,uint256)": {
						"notice": "Mint emissions to a staking or farm pool."
					},
					"pause()": {
						"notice": "Pause all token transfers. Emergency use only."
					},
					"paused()": {
						"notice": "Emergency pause flag — owner can halt all transfers."
					},
					"remainingEmissionsCapacity()": {
						"notice": "Remaining emissions capacity before hitting the hard cap."
					},
					"setEmissionRate(uint256)": {
						"notice": "Set the protocol-wide emission rate in TIMBS per day."
					},
					"setEntryCostTIMBS(uint256)": {
						"notice": "Update prize game entry cost. Single governance parameter —         ETH equivalent and additional-round costs derive from this."
					},
					"setFarmPool(address)": {
						"notice": "Register the LP farm pool contract as an authorised emissions minter."
					},
					"setMaxTransferAmount(uint256)": {
						"notice": "Set max TIMBS per single transfer (anti-whale). Set to 0 to disable."
					},
					"setStakingPool(address)": {
						"notice": "Register the staking pool contract as an authorised emissions minter."
					},
					"setTransferWhitelist(address,bool)": {
						"notice": "Exempt or un-exempt an address from the transfer cap."
					},
					"setTreasury(address)": {
						"notice": "Set or update the treasury address."
					},
					"stakingPool()": {
						"notice": "Staking pool contract — authorised to call mintEmissions()."
					},
					"transferWhitelist(address)": {
						"notice": "Addresses exempt from maxTransferAmount (pools, treasury, etc.)."
					},
					"treasury()": {
						"notice": "Treasury address — receives initial mint, controls distribution."
					},
					"unpause()": {
						"notice": "Unpause token transfers."
					}
				},
				"notice": "Native ERC-20 token for the TimbSwap protocol. Supply model:   - Fixed initial supply minted entirely to the treasury at deploy.   - Owner can mint additional supply for emissions (staking/farm rewards).   - Emissions cap enforced: total supply can never exceed HARD_CAP.   - Owner can burn from treasury allocation via ERC20Burnable. Access:   - Minter role: owner only (treasury / emissions controller).   - Emission rate: owner-set (TIMBS per day, used by staking/farm contracts).   - Governance can update entryCostTIMBS — single param, cascades to all     prize entry cost derivatives. Security (defi-security skill):   - ReentrancyGuard on mint path.   - Whitelist for addresses exempt from per-tx transfer cap.   - Per-tx transfer cap owner-configurable (anti-whale).   - Owner can pause transfers in emergency. Deployment:   - Deploy with treasury address and initial supply.   - Call setStakingPool(), setFarmPool() after those contracts are deployed.   - setEmissionRate() to activate staking/farm emissions.",
				"version": 1
			}
		}
	}
}