{
	"/contracts/TIMBSToken.sol": {
		"TIMBSToken": {
			"abi": [
				{
					"inputs": [
						{
							"internalType": "address",
							"name": "_treasury",
							"type": "address"
						},
						{
							"internalType": "uint256",
							"name": "initialSupply",
							"type": "uint256"
						},
						{
							"internalType": "uint256",
							"name": "_entryCostTIMBS",
							"type": "uint256"
						}
					],
					"stateMutability": "nonpayable",
					"type": "constructor"
				},
				{
					"inputs": [
						{
							"internalType": "address",
							"name": "spender",
							"type": "address"
						},
						{
							"internalType": "uint256",
							"name": "allowance",
							"type": "uint256"
						},
						{
							"internalType": "uint256",
							"name": "needed",
							"type": "uint256"
						}
					],
					"name": "ERC20InsufficientAllowance",
					"type": "error"
				},
				{
					"inputs": [
						{
							"internalType": "address",
							"name": "sender",
							"type": "address"
						},
						{
							"internalType": "uint256",
							"name": "balance",
							"type": "uint256"
						},
						{
							"internalType": "uint256",
							"name": "needed",
							"type": "uint256"
						}
					],
					"name": "ERC20InsufficientBalance",
					"type": "error"
				},
				{
					"inputs": [
						{
							"internalType": "address",
							"name": "approver",
							"type": "address"
						}
					],
					"name": "ERC20InvalidApprover",
					"type": "error"
				},
				{
					"inputs": [
						{
							"internalType": "address",
							"name": "receiver",
							"type": "address"
						}
					],
					"name": "ERC20InvalidReceiver",
					"type": "error"
				},
				{
					"inputs": [
						{
							"internalType": "address",
							"name": "sender",
							"type": "address"
						}
					],
					"name": "ERC20InvalidSender",
					"type": "error"
				},
				{
					"inputs": [
						{
							"internalType": "address",
							"name": "spender",
							"type": "address"
						}
					],
					"name": "ERC20InvalidSpender",
					"type": "error"
				},
				{
					"inputs": [
						{
							"internalType": "uint256",
							"name": "requested",
							"type": "uint256"
						},
						{
							"internalType": "uint256",
							"name": "available",
							"type": "uint256"
						}
					],
					"name": "ExceedsHardCap",
					"type": "error"
				},
				{
					"inputs": [
						{
							"internalType": "uint256",
							"name": "amount",
							"type": "uint256"
						},
						{
							"internalType": "uint256",
							"name": "max",
							"type": "uint256"
						}
					],
					"name": "ExceedsMaxTransfer",
					"type": "error"
				},
				{
					"inputs": [],
					"name": "NotAuthorizedMinter",
					"type": "error"
				},
				{
					"inputs": [
						{
							"internalType": "address",
							"name": "owner",
							"type": "address"
						}
					],
					"name": "OwnableInvalidOwner",
					"type": "error"
				},
				{
					"inputs": [
						{
							"internalType": "address",
							"name": "account",
							"type": "address"
						}
					],
					"name": "OwnableUnauthorizedAccount",
					"type": "error"
				},
				{
					"inputs": [],
					"name": "ReentrancyGuardReentrantCall",
					"type": "error"
				},
				{
					"inputs": [],
					"name": "TransferPaused",
					"type": "error"
				},
				{
					"inputs": [],
					"name": "ZeroAddress",
					"type": "error"
				},
				{
					"inputs": [],
					"name": "ZeroAmount",
					"type": "error"
				},
				{
					"anonymous": false,
					"inputs": [
						{
							"indexed": true,
							"internalType": "address",
							"name": "owner",
							"type": "address"
						},
						{
							"indexed": true,
							"internalType": "address",
							"name": "spender",
							"type": "address"
						},
						{
							"indexed": false,
							"internalType": "uint256",
							"name": "value",
							"type": "uint256"
						}
					],
					"name": "Approval",
					"type": "event"
				},
				{
					"anonymous": false,
					"inputs": [
						{
							"indexed": false,
							"internalType": "uint256",
							"name": "ratePerDay",
							"type": "uint256"
						}
					],
					"name": "EmissionRateSet",
					"type": "event"
				},
				{
					"anonymous": false,
					"inputs": [
						{
							"indexed": true,
							"internalType": "address",
							"name": "recipient",
							"type": "address"
						},
						{
							"indexed": false,
							"internalType": "uint256",
							"name": "amount",
							"type": "uint256"
						}
					],
					"name": "EmissionsMinted",
					"type": "event"
				},
				{
					"anonymous": false,
					"inputs": [
						{
							"indexed": false,
							"internalType": "uint256",
							"name": "oldCost",
							"type": "uint256"
						},
						{
							"indexed": false,
							"internalType": "uint256",
							"name": "newCost",
							"type": "uint256"
						}
					],
					"name": "EntryCostUpdated",
					"type": "event"
				},
				{
					"anonymous": false,
					"inputs": [
						{
							"indexed": true,
							"internalType": "address",
							"name": "farmPool",
							"type": "address"
						}
					],
					"name": "FarmPoolSet",
					"type": "event"
				},
				{
					"anonymous": false,
					"inputs": [
						{
							"indexed": false,
							"internalType": "uint256",
							"name": "amount",
							"type": "uint256"
						}
					],
					"name": "MaxTransferAmountSet",
					"type": "event"
				},
				{
					"anonymous": false,
					"inputs": [
						{
							"indexed": true,
							"internalType": "address",
							"name": "previousOwner",
							"type": "address"
						},
						{
							"indexed": true,
							"internalType": "address",
							"name": "newOwner",
							"type": "address"
						}
					],
					"name": "OwnershipTransferred",
					"type": "event"
				},
				{
					"anonymous": false,
					"inputs": [
						{
							"indexed": true,
							"internalType": "address",
							"name": "by",
							"type": "address"
						}
					],
					"name": "Paused",
					"type": "event"
				},
				{
					"anonymous": false,
					"inputs": [
						{
							"indexed": true,
							"internalType": "address",
							"name": "stakingPool",
							"type": "address"
						}
					],
					"name": "StakingPoolSet",
					"type": "event"
				},
				{
					"anonymous": false,
					"inputs": [
						{
							"indexed": true,
							"internalType": "address",
							"name": "from",
							"type": "address"
						},
						{
							"indexed": true,
							"internalType": "address",
							"name": "to",
							"type": "address"
						},
						{
							"indexed": false,
							"internalType": "uint256",
							"name": "value",
							"type": "uint256"
						}
					],
					"name": "Transfer",
					"type": "event"
				},
				{
					"anonymous": false,
					"inputs": [
						{
							"indexed": true,
							"internalType": "address",
							"name": "account",
							"type": "address"
						},
						{
							"indexed": false,
							"internalType": "bool",
							"name": "exempt",
							"type": "bool"
						}
					],
					"name": "TransferWhitelistUpdated",
					"type": "event"
				},
				{
					"anonymous": false,
					"inputs": [
						{
							"indexed": true,
							"internalType": "address",
							"name": "oldTreasury",
							"type": "address"
						},
						{
							"indexed": true,
							"internalType": "address",
							"name": "newTreasury",
							"type": "address"
						}
					],
					"name": "TreasuryUpdated",
					"type": "event"
				},
				{
					"anonymous": false,
					"inputs": [
						{
							"indexed": true,
							"internalType": "address",
							"name": "by",
							"type": "address"
						}
					],
					"name": "Unpaused",
					"type": "event"
				},
				{
					"inputs": [],
					"name": "HARD_CAP",
					"outputs": [
						{
							"internalType": "uint256",
							"name": "",
							"type": "uint256"
						}
					],
					"stateMutability": "view",
					"type": "function"
				},
				{
					"inputs": [
						{
							"internalType": "address",
							"name": "owner",
							"type": "address"
						},
						{
							"internalType": "address",
							"name": "spender",
							"type": "address"
						}
					],
					"name": "allowance",
					"outputs": [
						{
							"internalType": "uint256",
							"name": "",
							"type": "uint256"
						}
					],
					"stateMutability": "view",
					"type": "function"
				},
				{
					"inputs": [
						{
							"internalType": "address",
							"name": "spender",
							"type": "address"
						},
						{
							"internalType": "uint256",
							"name": "value",
							"type": "uint256"
						}
					],
					"name": "approve",
					"outputs": [
						{
							"internalType": "bool",
							"name": "",
							"type": "bool"
						}
					],
					"stateMutability": "nonpayable",
					"type": "function"
				},
				{
					"inputs": [
						{
							"internalType": "address",
							"name": "account",
							"type": "address"
						}
					],
					"name": "balanceOf",
					"outputs": [
						{
							"internalType": "uint256",
							"name": "",
							"type": "uint256"
						}
					],
					"stateMutability": "view",
					"type": "function"
				},
				{
					"inputs": [
						{
							"internalType": "uint256",
							"name": "value",
							"type": "uint256"
						}
					],
					"name": "burn",
					"outputs": [],
					"stateMutability": "nonpayable",
					"type": "function"
				},
				{
					"inputs": [
						{
							"internalType": "address",
							"name": "account",
							"type": "address"
						},
						{
							"internalType": "uint256",
							"name": "value",
							"type": "uint256"
						}
					],
					"name": "burnFrom",
					"outputs": [],
					"stateMutability": "nonpayable",
					"type": "function"
				},
				{
					"inputs": [],
					"name": "decimals",
					"outputs": [
						{
							"internalType": "uint8",
							"name": "",
							"type": "uint8"
						}
					],
					"stateMutability": "view",
					"type": "function"
				},
				{
					"inputs": [],
					"name": "emissionRatePerDay",
					"outputs": [
						{
							"internalType": "uint256",
							"name": "",
							"type": "uint256"
						}
					],
					"stateMutability": "view",
					"type": "function"
				},
				{
					"inputs": [],
					"name": "entryCostETH",
					"outputs": [
						{
							"internalType": "uint256",
							"name": "",
							"type": "uint256"
						}
					],
					"stateMutability": "pure",
					"type": "function"
				},
				{
					"inputs": [],
					"name": "entryCostTIMBS",
					"outputs": [
						{
							"internalType": "uint256",
							"name": "",
							"type": "uint256"
						}
					],
					"stateMutability": "view",
					"type": "function"
				},
				{
					"inputs": [],
					"name": "farmPool",
					"outputs": [
						{
							"internalType": "address",
							"name": "",
							"type": "address"
						}
					],
					"stateMutability": "view",
					"type": "function"
				},
				{
					"inputs": [],
					"name": "maxTransferAmount",
					"outputs": [
						{
							"internalType": "uint256",
							"name": "",
							"type": "uint256"
						}
					],
					"stateMutability": "view",
					"type": "function"
				},
				{
					"inputs": [
						{
							"internalType": "address",
							"name": "recipient",
							"type": "address"
						},
						{
							"internalType": "uint256",
							"name": "amount",
							"type": "uint256"
						}
					],
					"name": "mintEmissions",
					"outputs": [],
					"stateMutability": "nonpayable",
					"type": "function"
				},
				{
					"inputs": [],
					"name": "name",
					"outputs": [
						{
							"internalType": "string",
							"name": "",
							"type": "string"
						}
					],
					"stateMutability": "view",
					"type": "function"
				},
				{
					"inputs": [],
					"name": "owner",
					"outputs": [
						{
							"internalType": "address",
							"name": "",
							"type": "address"
						}
					],
					"stateMutability": "view",
					"type": "function"
				},
				{
					"inputs": [],
					"name": "pause",
					"outputs": [],
					"stateMutability": "nonpayable",
					"type": "function"
				},
				{
					"inputs": [],
					"name": "paused",
					"outputs": [
						{
							"internalType": "bool",
							"name": "",
							"type": "bool"
						}
					],
					"stateMutability": "view",
					"type": "function"
				},
				{
					"inputs": [],
					"name": "remainingEmissionsCapacity",
					"outputs": [
						{
							"internalType": "uint256",
							"name": "",
							"type": "uint256"
						}
					],
					"stateMutability": "view",
					"type": "function"
				},
				{
					"inputs": [],
					"name": "renounceOwnership",
					"outputs": [],
					"stateMutability": "nonpayable",
					"type": "function"
				},
				{
					"inputs": [
						{
							"internalType": "uint256",
							"name": "_ratePerDay",
							"type": "uint256"
						}
					],
					"name": "setEmissionRate",
					"outputs": [],
					"stateMutability": "nonpayable",
					"type": "function"
				},
				{
					"inputs": [
						{
							"internalType": "uint256",
							"name": "_cost",
							"type": "uint256"
						}
					],
					"name": "setEntryCostTIMBS",
					"outputs": [],
					"stateMutability": "nonpayable",
					"type": "function"
				},
				{
					"inputs": [
						{
							"internalType": "address",
							"name": "_farmPool",
							"type": "address"
						}
					],
					"name": "setFarmPool",
					"outputs": [],
					"stateMutability": "nonpayable",
					"type": "function"
				},
				{
					"inputs": [
						{
							"internalType": "uint256",
							"name": "_max",
							"type": "uint256"
						}
					],
					"name": "setMaxTransferAmount",
					"outputs": [],
					"stateMutability": "nonpayable",
					"type": "function"
				},
				{
					"inputs": [
						{
							"internalType": "address",
							"name": "_stakingPool",
							"type": "address"
						}
					],
					"name": "setStakingPool",
					"outputs": [],
					"stateMutability": "nonpayable",
					"type": "function"
				},
				{
					"inputs": [
						{
							"internalType": "address",
							"name": "_account",
							"type": "address"
						},
						{
							"internalType": "bool",
							"name": "_exempt",
							"type": "bool"
						}
					],
					"name": "setTransferWhitelist",
					"outputs": [],
					"stateMutability": "nonpayable",
					"type": "function"
				},
				{
					"inputs": [
						{
							"internalType": "address",
							"name": "_treasury",
							"type": "address"
						}
					],
					"name": "setTreasury",
					"outputs": [],
					"stateMutability": "nonpayable",
					"type": "function"
				},
				{
					"inputs": [],
					"name": "stakingPool",
					"outputs": [
						{
							"internalType": "address",
							"name": "",
							"type": "address"
						}
					],
					"stateMutability": "view",
					"type": "function"
				},
				{
					"inputs": [],
					"name": "symbol",
					"outputs": [
						{
							"internalType": "string",
							"name": "",
							"type": "string"
						}
					],
					"stateMutability": "view",
					"type": "function"
				},
				{
					"inputs": [],
					"name": "totalSupply",
					"outputs": [
						{
							"internalType": "uint256",
							"name": "",
							"type": "uint256"
						}
					],
					"stateMutability": "view",
					"type": "function"
				},
				{
					"inputs": [
						{
							"internalType": "address",
							"name": "to",
							"type": "address"
						},
						{
							"internalType": "uint256",
							"name": "value",
							"type": "uint256"
						}
					],
					"name": "transfer",
					"outputs": [
						{
							"internalType": "bool",
							"name": "",
							"type": "bool"
						}
					],
					"stateMutability": "nonpayable",
					"type": "function"
				},
				{
					"inputs": [
						{
							"internalType": "address",
							"name": "from",
							"type": "address"
						},
						{
							"internalType": "address",
							"name": "to",
							"type": "address"
						},
						{
							"internalType": "uint256",
							"name": "value",
							"type": "uint256"
						}
					],
					"name": "transferFrom",
					"outputs": [
						{
							"internalType": "bool",
							"name": "",
							"type": "bool"
						}
					],
					"stateMutability": "nonpayable",
					"type": "function"
				},
				{
					"inputs": [
						{
							"internalType": "address",
							"name": "newOwner",
							"type": "address"
						}
					],
					"name": "transferOwnership",
					"outputs": [],
					"stateMutability": "nonpayable",
					"type": "function"
				},
				{
					"inputs": [
						{
							"internalType": "address",
							"name": "",
							"type": "address"
						}
					],
					"name": "transferWhitelist",
					"outputs": [
						{
							"internalType": "bool",
							"name": "",
							"type": "bool"
						}
					],
					"stateMutability": "view",
					"type": "function"
				},
				{
					"inputs": [],
					"name": "treasury",
					"outputs": [
						{
							"internalType": "address",
							"name": "",
							"type": "address"
						}
					],
					"stateMutability": "view",
					"type": "function"
				},
				{
					"inputs": [],
					"name": "unpause",
					"outputs": [],
					"stateMutability": "nonpayable",
					"type": "function"
				}
			],
			"devdoc": {
				"errors": {
					"ERC20InsufficientAllowance(address,uint256,uint256)": [
						{
							"details": "Indicates a failure with the `spender`’s `allowance`. Used in transfers.",
							"params": {
								"allowance": "Amount of tokens a `spender` is allowed to operate with.",
								"needed": "Minimum amount required to perform a transfer.",
								"spender": "Address that may be allowed to operate on tokens without being their owner."
							}
						}
					],
					"ERC20InsufficientBalance(address,uint256,uint256)": [
						{
							"details": "Indicates an error related to the current `balance` of a `sender`. Used in transfers.",
							"params": {
								"balance": "Current balance for the interacting account.",
								"needed": "Minimum amount required to perform a transfer.",
								"sender": "Address whose tokens are being transferred."
							}
						}
					],
					"ERC20InvalidApprover(address)": [
						{
							"details": "Indicates a failure with the `approver` of a token to be approved. Used in approvals.",
							"params": {
								"approver": "Address initiating an approval operation."
							}
						}
					],
					"ERC20InvalidReceiver(address)": [
						{
							"details": "Indicates a failure with the token `receiver`. Used in transfers.",
							"params": {
								"receiver": "Address to which tokens are being transferred."
							}
						}
					],
					"ERC20InvalidSender(address)": [
						{
							"details": "Indicates a failure with the token `sender`. Used in transfers.",
							"params": {
								"sender": "Address whose tokens are being transferred."
							}
						}
					],
					"ERC20InvalidSpender(address)": [
						{
							"details": "Indicates a failure with the `spender` to be approved. Used in approvals.",
							"params": {
								"spender": "Address that may be allowed to operate on tokens without being their owner."
							}
						}
					],
					"OwnableInvalidOwner(address)": [
						{
							"details": "The owner is not a valid owner account. (eg. `address(0)`)"
						}
					],
					"OwnableUnauthorizedAccount(address)": [
						{
							"details": "The caller account is not authorized to perform an operation."
						}
					],
					"ReentrancyGuardReentrantCall()": [
						{
							"details": "Unauthorized reentrant call."
						}
					]
				},
				"events": {
					"Approval(address,address,uint256)": {
						"details": "Emitted when the allowance of a `spender` for an `owner` is set by a call to {approve}. `value` is the new allowance."
					},
					"Transfer(address,address,uint256)": {
						"details": "Emitted when `value` tokens are moved from one account (`from`) to another (`to`). Note that `value` may be zero."
					}
				},
				"kind": "dev",
				"methods": {
					"allowance(address,address)": {
						"details": "Returns the remaining number of tokens that `spender` will be allowed to spend on behalf of `owner` through {transferFrom}. This is zero by default. This value changes when {approve} or {transferFrom} are called."
					},
					"approve(address,uint256)": {
						"details": "See {IERC20-approve}. NOTE: If `value` is the maximum `uint256`, the allowance is not updated on `transferFrom`. This is semantically equivalent to an infinite approval. Requirements: - `spender` cannot be the zero address."
					},
					"balanceOf(address)": {
						"details": "Returns the value of tokens owned by `account`."
					},
					"burn(uint256)": {
						"details": "Destroys a `value` amount of tokens from the caller. See {ERC20-_burn}."
					},
					"burnFrom(address,uint256)": {
						"details": "Destroys a `value` amount of tokens from `account`, deducting from the caller's allowance. See {ERC20-_burn} and {ERC20-allowance}. Requirements: - the caller must have allowance for ``accounts``'s tokens of at least `value`."
					},
					"constructor": {
						"params": {
							"_entryCostTIMBS": "Initial prize game entry cost in TIMBS (18 decimals).",
							"_treasury": "Address that receives the full initial supply.",
							"initialSupply": "Amount of TIMBS (in wei) minted at deploy. Must be <= HARD_CAP."
						}
					},
					"decimals()": {
						"details": "Returns the number of decimals used to get its user representation. For example, if `decimals` equals `2`, a balance of `505` tokens should be displayed to a user as `5.05` (`505 / 10 ** 2`). Tokens usually opt for a value of 18, imitating the relationship between Ether and Wei. This is the default value returned by this function, unless it's overridden. NOTE: This information is only used for _display_ purposes: it in no way affects any of the arithmetic of the contract, including {IERC20-balanceOf} and {IERC20-transfer}."
					},
					"entryCostETH()": {
						"details": "Placeholder — live implementation reads from TimbSwapPair.      Returns 0 until pair is deployed and has liquidity."
					},
					"mintEmissions(address,uint256)": {
						"details": "Only callable by stakingPool, farmPool, or owner.      Total supply after mint must not exceed HARD_CAP.",
						"params": {
							"amount": "Amount in wei.",
							"recipient": "Address to receive minted TIMBS (pool contract)."
						}
					},
					"name()": {
						"details": "Returns the name of the token."
					},
					"owner()": {
						"details": "Returns the address of the current owner."
					},
					"renounceOwnership()": {
						"details": "Leaves the contract without owner. It will not be possible to call `onlyOwner` functions. Can only be called by the current owner. NOTE: Renouncing ownership will leave the contract without an owner, thereby disabling any functionality that is only available to the owner."
					},
					"setEmissionRate(uint256)": {
						"details": "Informational for UI and used by staking/farm contracts to      calculate per-second rates. Does not auto-distribute."
					},
					"setEntryCostTIMBS(uint256)": {
						"details": "Callable by owner (governance-executed in hybrid model)."
					},
					"setTreasury(address)": {
						"details": "Removes whitelist from old treasury, adds to new."
					},
					"symbol()": {
						"details": "Returns the symbol of the token, usually a shorter version of the name."
					},
					"totalSupply()": {
						"details": "Returns the value of tokens in existence."
					},
					"transfer(address,uint256)": {
						"details": "See {IERC20-transfer}. Requirements: - `to` cannot be the zero address. - the caller must have a balance of at least `value`."
					},
					"transferFrom(address,address,uint256)": {
						"details": "See {IERC20-transferFrom}. Skips emitting an {Approval} event indicating an allowance update. This is not required by the ERC. See {xref-ERC20-_approve-address-address-uint256-bool-}[_approve]. NOTE: Does not update the allowance if the current allowance is the maximum `uint256`. Requirements: - `from` and `to` cannot be the zero address. - `from` must have a balance of at least `value`. - the caller must have allowance for ``from``'s tokens of at least `value`."
					},
					"transferOwnership(address)": {
						"details": "Transfers ownership of the contract to a new account (`newOwner`). Can only be called by the current owner."
					}
				},
				"title": "TIMBSToken",
				"version": 1
			},
			"evm": {
				"assembly": "    /* \"/contracts/TIMBSToken.sol\":1432:12053  contract TIMBSToken is ERC20, ERC20Burnable, Ownable, ReentrancyGuard {... */\n  mstore(0x40, 0x80)\n    /* \"/contracts/TIMBSToken.sol\":5273:6011  constructor(... */\n  callvalue\n  dup1\n  iszero\n  tag_1\n  jumpi\n  0x00\n  dup1\n  revert\ntag_1:\n  pop\n  mload(0x40)\n  sub(codesize, bytecodeSize)\n  dup1\n  bytecodeSize\n  dup4\n  codecopy\n  dup2\n  add\n  0x40\n  dup2\n  swap1\n  mstore\n  tag_2\n  swap2\n  tag_3\n  jump\t// in\ntag_2:\n    /* \"/contracts/TIMBSToken.sol\":5423:5433  msg.sender */\n  caller\n    /* \"@openzeppelin/contracts/token/ERC20/ERC20.sol\":1582:1695  constructor(string memory name_, string memory symbol_) {... */\n  mload(0x40)\n  dup1\n  0x40\n  add\n  0x40\n  mstore\n  dup1\n  0x0e\n  dup2\n  mstore\n  0x20\n  add\n  shl(0x91, 0x2a34b6b129bbb0b8102a37b5b2b7)\n  dup2\n  mstore\n  pop\n  mload(0x40)\n  dup1\n  0x40\n  add\n  0x40\n  mstore\n  dup1\n  0x05\n  dup2\n  mstore\n  0x20\n  add\n  shl(0xd8, 0x54494d4253)\n  dup2\n  mstore\n  pop\n    /* \"@openzeppelin/contracts/token/ERC20/ERC20.sol\":1656:1661  name_ */\n  dup2\n    /* \"@openzeppelin/contracts/token/ERC20/ERC20.sol\":1648:1653  _name */\n  0x03\n    /* \"@openzeppelin/contracts/token/ERC20/ERC20.sol\":1648:1661  _name = name_ */\n  swap1\n  dup2\n  tag_9\n  swap2\n  swap1\n  tag_10\n  jump\t// in\ntag_9:\n  pop\n    /* \"@openzeppelin/contracts/token/ERC20/ERC20.sol\":1671:1678  _symbol */\n  0x04\n    /* \"@openzeppelin/contracts/token/ERC20/ERC20.sol\":1671:1688  _symbol = symbol_ */\n  tag_11\n    /* \"@openzeppelin/contracts/token/ERC20/ERC20.sol\":1681:1688  symbol_ */\n  dup3\n    /* \"@openzeppelin/contracts/token/ERC20/ERC20.sol\":1671:1678  _symbol */\n  dup3\n    /* \"@openzeppelin/contracts/token/ERC20/ERC20.sol\":1671:1688  _symbol = symbol_ */\n  tag_10\n  jump\t// in\ntag_11:\n  pop\n  pop\n  pop\n  sub(shl(0xa0, 0x01), 0x01)\n    /* \"@openzeppelin/contracts/access/Ownable.sol\":1273:1299  initialOwner == address(0) */\n  dup2\n  and\n    /* \"@openzeppelin/contracts/access/Ownable.sol\":1269:1364  if (initialOwner == address(0)) {... */\n  tag_13\n  jumpi\n    /* \"@openzeppelin/contracts/access/Ownable.sol\":1322:1353  OwnableInvalidOwner(address(0)) */\n  mload(0x40)\n  shl(0xe0, 0x1e4fbdf7)\n  dup2\n  mstore\n    /* \"@openzeppelin/contracts/access/Ownable.sol\":1350:1351  0 */\n  0x00\n    /* \"@openzeppelin/contracts/access/Ownable.sol\":1322:1353  OwnableInvalidOwner(address(0)) */\n  0x04\n  dup3\n  add\n    /* \"#utility.yul\":3298:3349   */\n  mstore\n    /* \"#utility.yul\":3271:3289   */\n  0x24\n  add\n    /* \"@openzeppelin/contracts/access/Ownable.sol\":1322:1353  OwnableInvalidOwner(address(0)) */\ntag_14:\n  mload(0x40)\n  dup1\n  swap2\n  sub\n  swap1\n  revert\n    /* \"@openzeppelin/contracts/access/Ownable.sol\":1269:1364  if (initialOwner == address(0)) {... */\ntag_13:\n    /* \"@openzeppelin/contracts/access/Ownable.sol\":1373:1405  _transferOwnership(initialOwner) */\n  tag_16\n    /* \"@openzeppelin/contracts/access/Ownable.sol\":1392:1404  initialOwner */\n  dup2\n    /* \"@openzeppelin/contracts/access/Ownable.sol\":1373:1391  _transferOwnership */\n  tag_17\n    /* \"@openzeppelin/contracts/access/Ownable.sol\":1373:1405  _transferOwnership(initialOwner) */\n  jump\t// in\ntag_16:\n  pop\n    /* \"@openzeppelin/contracts/utils/ReentrancyGuard.sol\":2365:2366  1 */\n  0x01\n    /* \"@openzeppelin/contracts/utils/ReentrancyGuard.sol\":1505:1571  0x9b779b17422d0df92223018b32b4d1fa46e071723d6817e2486d003becc55f00 */\n  0x9b779b17422d0df92223018b32b4d1fa46e071723d6817e2486d003becc55f00\n    /* \"@openzeppelin/contracts/utils/ReentrancyGuard.sol\":2539:2605  _reentrancyGuardStorageSlot().getUint256Slot().value = NOT_ENTERED */\n  sstore\n  sub(shl(0xa0, 0x01), 0x01)\n    /* \"/contracts/TIMBSToken.sol\":5449:5472  _treasury == address(0) */\n  dup4\n  and\n    /* \"/contracts/TIMBSToken.sol\":5445:5494  if (_treasury == address(0)) revert ZeroAddress() */\n  tag_24\n  jumpi\n    /* \"/contracts/TIMBSToken.sol\":5481:5494  ZeroAddress() */\n  mload(0x40)\n  shl(0xe0, 0xd92e233d)\n  dup2\n  mstore\n  0x04\n  add\n  mload(0x40)\n  dup1\n  swap2\n  sub\n  swap1\n  revert\n    /* \"/contracts/TIMBSToken.sol\":5445:5494  if (_treasury == address(0)) revert ZeroAddress() */\ntag_24:\n    /* \"/contracts/TIMBSToken.sol\":5508:5521  initialSupply */\n  dup2\n    /* \"/contracts/TIMBSToken.sol\":5525:5526  0 */\n  0x00\n    /* \"/contracts/TIMBSToken.sol\":5508:5526  initialSupply == 0 */\n  sub\n    /* \"/contracts/TIMBSToken.sol\":5504:5547  if (initialSupply == 0) revert ZeroAmount() */\n  tag_25\n  jumpi\n    /* \"/contracts/TIMBSToken.sol\":5535:5547  ZeroAmount() */\n  mload(0x40)\n  shl(0xe0, 0x1f2a2005)\n  dup2\n  mstore\n  0x04\n  add\n  mload(0x40)\n  dup1\n  swap2\n  sub\n  swap1\n  revert\n    /* \"/contracts/TIMBSToken.sol\":5504:5547  if (initialSupply == 0) revert ZeroAmount() */\ntag_25:\n    /* \"/contracts/TIMBSToken.sol\":1834:1852  100_000_000 * 1e18 */\n  0x52b7d2dcc80cd2e4000000\n    /* \"/contracts/TIMBSToken.sol\":5561:5574  initialSupply */\n  dup3\n    /* \"/contracts/TIMBSToken.sol\":5561:5585  initialSupply > HARD_CAP */\n  gt\n    /* \"/contracts/TIMBSToken.sol\":5557:5633  if (initialSupply > HARD_CAP) revert ExceedsHardCap(initialSupply, HARD_CAP) */\n  iszero\n  tag_26\n  jumpi\n    /* \"/contracts/TIMBSToken.sol\":5594:5633  ExceedsHardCap(initialSupply, HARD_CAP) */\n  mload(0x40)\n  shl(0xe1, 0x3999a0b7)\n  dup2\n  mstore\n  0x04\n  dup2\n  add\n    /* \"#utility.yul\":3534:3559   */\n  dup4\n  swap1\n  mstore\n    /* \"/contracts/TIMBSToken.sol\":1834:1852  100_000_000 * 1e18 */\n  0x52b7d2dcc80cd2e4000000\n    /* \"#utility.yul\":3575:3593   */\n  0x24\n  dup3\n  add\n    /* \"#utility.yul\":3568:3602   */\n  mstore\n    /* \"#utility.yul\":3507:3525   */\n  0x44\n  add\n    /* \"/contracts/TIMBSToken.sol\":5594:5633  ExceedsHardCap(initialSupply, HARD_CAP) */\n  tag_14\n    /* \"#utility.yul\":3360:3608   */\n  jump\n    /* \"/contracts/TIMBSToken.sol\":5557:5633  if (initialSupply > HARD_CAP) revert ExceedsHardCap(initialSupply, HARD_CAP) */\ntag_26:\n    /* \"/contracts/TIMBSToken.sol\":5644:5652  treasury */\n  0x06\n    /* \"/contracts/TIMBSToken.sol\":5644:5664  treasury = _treasury */\n  dup1\n  sload\n  not(sub(shl(0xa0, 0x01), 0x01))\n  and\n  sub(shl(0xa0, 0x01), 0x01)\n  dup6\n  and\n  swap1\n  dup2\n  or\n  swap1\n  swap2\n  sstore\n    /* \"/contracts/TIMBSToken.sol\":5674:5688  entryCostTIMBS */\n  0x0a\n    /* \"/contracts/TIMBSToken.sol\":5674:5706  entryCostTIMBS = _entryCostTIMBS */\n  dup3\n  swap1\n  sstore\n  0x00\n    /* \"/contracts/TIMBSToken.sol\":5776:5804  transferWhitelist[_treasury] */\n  swap1\n  dup2\n  mstore\n    /* \"/contracts/TIMBSToken.sol\":5776:5793  transferWhitelist */\n  0x0c\n    /* \"/contracts/TIMBSToken.sol\":5776:5804  transferWhitelist[_treasury] */\n  0x20\n  mstore\n  0x40\n  dup1\n  dup3\n  keccak256\n    /* \"/contracts/TIMBSToken.sol\":5776:5811  transferWhitelist[_treasury] = true */\n  dup1\n  sload\n  not(0xff)\n  swap1\n  dup2\n  and\n  0x01\n  swap1\n  dup2\n  or\n  swap1\n  swap3\n  sstore\n    /* \"/contracts/TIMBSToken.sol\":5839:5849  msg.sender */\n  caller\n    /* \"/contracts/TIMBSToken.sol\":5821:5850  transferWhitelist[msg.sender] */\n  dup5\n  mstore\n  swap2\n  swap1\n  swap3\n  keccak256\n    /* \"/contracts/TIMBSToken.sol\":5821:5857  transferWhitelist[msg.sender] = true */\n  dup1\n  sload\n  swap1\n  swap2\n  and\n  swap1\n  swap2\n  or\n  swap1\n  sstore\n    /* \"/contracts/TIMBSToken.sol\":5868:5899  _mint(_treasury, initialSupply) */\n  tag_29\n    /* \"/contracts/TIMBSToken.sol\":5644:5664  treasury = _treasury */\n  dup4\n    /* \"/contracts/TIMBSToken.sol\":5885:5898  initialSupply */\n  dup4\n    /* \"/contracts/TIMBSToken.sol\":5868:5873  _mint */\n  tag_30\n    /* \"/contracts/TIMBSToken.sol\":5868:5899  _mint(_treasury, initialSupply) */\n  jump\t// in\ntag_29:\n    /* \"/contracts/TIMBSToken.sol\":5915:5953  TreasuryUpdated(address(0), _treasury) */\n  mload(0x40)\n  sub(shl(0xa0, 0x01), 0x01)\n  dup5\n  and\n  swap1\n    /* \"/contracts/TIMBSToken.sol\":5939:5940  0 */\n  0x00\n  swap1\n    /* \"/contracts/TIMBSToken.sol\":5915:5953  TreasuryUpdated(address(0), _treasury) */\n  0x4ab5be82436d353e61ca18726e984e561f5c1cc7c6d38b29d2553c790434705a\n  swap1\n    /* \"/contracts/TIMBSToken.sol\":5939:5940  0 */\n  dup3\n  swap1\n    /* \"/contracts/TIMBSToken.sol\":5915:5953  TreasuryUpdated(address(0), _treasury) */\n  log3\n    /* \"/contracts/TIMBSToken.sol\":5968:6004  EntryCostUpdated(0, _entryCostTIMBS) */\n  0x40\n  dup1\n  mload\n    /* \"/contracts/TIMBSToken.sol\":5985:5986  0 */\n  0x00\n    /* \"#utility.yul\":3534:3559   */\n  dup2\n  mstore\n    /* \"#utility.yul\":3590:3592   */\n  0x20\n    /* \"#utility.yul\":3575:3593   */\n  dup2\n  add\n    /* \"#utility.yul\":3568:3602   */\n  dup4\n  swap1\n  mstore\n    /* \"/contracts/TIMBSToken.sol\":5968:6004  EntryCostUpdated(0, _entryCostTIMBS) */\n  0x5299e127ac8bdc64fd0e551dd406ba1e1fbaebc96d458ce9b1a5e69caecdf376\n  swap2\n    /* \"#utility.yul\":3507:3525   */\n  add\n    /* \"/contracts/TIMBSToken.sol\":5968:6004  EntryCostUpdated(0, _entryCostTIMBS) */\n  mload(0x40)\n  dup1\n  swap2\n  sub\n  swap1\n  log1\n    /* \"/contracts/TIMBSToken.sol\":5273:6011  constructor(... */\n  pop\n  pop\n  pop\n    /* \"/contracts/TIMBSToken.sol\":1432:12053  contract TIMBSToken is ERC20, ERC20Burnable, Ownable, ReentrancyGuard {... */\n  jump(tag_71)\n    /* \"@openzeppelin/contracts/access/Ownable.sol\":2912:3099  function _transferOwnership(address newOwner) internal virtual {... */\ntag_17:\n    /* \"@openzeppelin/contracts/access/Ownable.sol\":3004:3010  _owner */\n  0x05\n  dup1\n  sload\n  sub(shl(0xa0, 0x01), 0x01)\n    /* \"@openzeppelin/contracts/access/Ownable.sol\":3020:3037  _owner = newOwner */\n  dup4\n  dup2\n  and\n  not(sub(shl(0xa0, 0x01), 0x01))\n  dup4\n  and\n  dup2\n  or\n  swap1\n  swap4\n  sstore\n    /* \"@openzeppelin/contracts/access/Ownable.sol\":3052:3092  OwnershipTransferred(oldOwner, newOwner) */\n  mload(0x40)\n    /* \"@openzeppelin/contracts/access/Ownable.sol\":3004:3010  _owner */\n  swap2\n  and\n  swap2\n    /* \"@openzeppelin/contracts/access/Ownable.sol\":3020:3037  _owner = newOwner */\n  swap1\n    /* \"@openzeppelin/contracts/access/Ownable.sol\":3004:3010  _owner */\n  dup3\n  swap1\n    /* \"@openzeppelin/contracts/access/Ownable.sol\":3052:3092  OwnershipTransferred(oldOwner, newOwner) */\n  0x8be0079c531659141344cd1fd0a4f28419497f9722a3daafe3b4186f6b6457e0\n  swap1\n    /* \"@openzeppelin/contracts/access/Ownable.sol\":2985:3001  address oldOwner */\n  0x00\n  swap1\n    /* \"@openzeppelin/contracts/access/Ownable.sol\":3052:3092  OwnershipTransferred(oldOwner, newOwner) */\n  log3\n    /* \"@openzeppelin/contracts/access/Ownable.sol\":2975:3099  {... */\n  pop\n    /* \"@openzeppelin/contracts/access/Ownable.sol\":2912:3099  function _transferOwnership(address newOwner) internal virtual {... */\n  pop\n  jump\t// out\n    /* \"@openzeppelin/contracts/token/ERC20/ERC20.sol\":7362:7570  function _mint(address account, uint256 value) internal {... */\ntag_30:\n  sub(shl(0xa0, 0x01), 0x01)\n    /* \"@openzeppelin/contracts/token/ERC20/ERC20.sol\":7432:7453  account == address(0) */\n  dup3\n  and\n    /* \"@openzeppelin/contracts/token/ERC20/ERC20.sol\":7428:7519  if (account == address(0)) {... */\n  tag_38\n  jumpi\n    /* \"@openzeppelin/contracts/token/ERC20/ERC20.sol\":7476:7508  ERC20InvalidReceiver(address(0)) */\n  mload(0x40)\n  shl(0xe0, 0xec442f05)\n  dup2\n  mstore\n    /* \"@openzeppelin/contracts/token/ERC20/ERC20.sol\":7505:7506  0 */\n  0x00\n    /* \"@openzeppelin/contracts/token/ERC20/ERC20.sol\":7476:7508  ERC20InvalidReceiver(address(0)) */\n  0x04\n  dup3\n  add\n    /* \"#utility.yul\":3298:3349   */\n  mstore\n    /* \"#utility.yul\":3271:3289   */\n  0x24\n  add\n    /* \"@openzeppelin/contracts/token/ERC20/ERC20.sol\":7476:7508  ERC20InvalidReceiver(address(0)) */\n  tag_14\n    /* \"#utility.yul\":3152:3355   */\n  jump\n    /* \"@openzeppelin/contracts/token/ERC20/ERC20.sol\":7428:7519  if (account == address(0)) {... */\ntag_38:\n    /* \"@openzeppelin/contracts/token/ERC20/ERC20.sol\":7528:7563  _update(address(0), account, value) */\n  tag_40\n    /* \"@openzeppelin/contracts/token/ERC20/ERC20.sol\":7544:7545  0 */\n  0x00\n    /* \"@openzeppelin/contracts/token/ERC20/ERC20.sol\":7548:7555  account */\n  dup4\n    /* \"@openzeppelin/contracts/token/ERC20/ERC20.sol\":7557:7562  value */\n  dup4\n    /* \"@openzeppelin/contracts/token/ERC20/ERC20.sol\":7528:7535  _update */\n  tag_41\n    /* \"@openzeppelin/contracts/token/ERC20/ERC20.sol\":7528:7563  _update(address(0), account, value) */\n  jump\t// in\ntag_40:\n    /* \"@openzeppelin/contracts/token/ERC20/ERC20.sol\":7362:7570  function _mint(address account, uint256 value) internal {... */\n  pop\n  pop\n  jump\t// out\n    /* \"/contracts/TIMBSToken.sol\":11445:12051  function _update(... */\ntag_41:\n    /* \"/contracts/TIMBSToken.sol\":4561:4567  paused */\n  and(0xff, sload(0x0d))\n    /* \"/contracts/TIMBSToken.sol\":4557:4592  if (paused) revert TransferPaused() */\n  iszero\n  tag_43\n  jumpi\n    /* \"/contracts/TIMBSToken.sol\":4576:4592  TransferPaused() */\n  mload(0x40)\n  shl(0xe0, 0xcd1fda9f)\n  dup2\n  mstore\n  0x04\n  add\n  mload(0x40)\n  dup1\n  swap2\n  sub\n  swap1\n  revert\n    /* \"/contracts/TIMBSToken.sol\":4557:4592  if (paused) revert TransferPaused() */\ntag_43:\n  sub(shl(0xa0, 0x01), 0x01)\n    /* \"/contracts/TIMBSToken.sol\":11643:11661  from != address(0) */\n  dup4\n  and\n  iszero\n  dup1\n  iszero\n  swap1\n    /* \"/contracts/TIMBSToken.sol\":11643:11681  from != address(0) && to != address(0) */\n  tag_45\n  jumpi\n  pop\n  sub(shl(0xa0, 0x01), 0x01)\n    /* \"/contracts/TIMBSToken.sol\":11665:11681  to != address(0) */\n  dup3\n  and\n  iszero\n  iszero\n    /* \"/contracts/TIMBSToken.sol\":11643:11681  from != address(0) && to != address(0) */\ntag_45:\n    /* \"/contracts/TIMBSToken.sol\":11639:12005  if (from != address(0) && to != address(0)) {... */\n  iszero\n  tag_50\n  jumpi\n    /* \"/contracts/TIMBSToken.sol\":11738:11739  0 */\n  0x00\n    /* \"/contracts/TIMBSToken.sol\":11718:11735  maxTransferAmount */\n  sload(0x0b)\n    /* \"/contracts/TIMBSToken.sol\":11718:11739  maxTransferAmount > 0 */\n  gt\n    /* \"/contracts/TIMBSToken.sol\":11718:11783  maxTransferAmount > 0 &&... */\n  dup1\n  iszero\n  tag_47\n  jumpi\n  pop\n  sub(shl(0xa0, 0x01), 0x01)\n    /* \"/contracts/TIMBSToken.sol\":11760:11783  transferWhitelist[from] */\n  dup4\n  and\n  0x00\n  swap1\n  dup2\n  mstore\n    /* \"/contracts/TIMBSToken.sol\":11760:11777  transferWhitelist */\n  0x0c\n    /* \"/contracts/TIMBSToken.sol\":11760:11783  transferWhitelist[from] */\n  0x20\n  mstore\n  0x40\n  swap1\n  keccak256\n  sload\n  0xff\n  and\n    /* \"/contracts/TIMBSToken.sol\":11759:11783  !transferWhitelist[from] */\n  iszero\n    /* \"/contracts/TIMBSToken.sol\":11718:11783  maxTransferAmount > 0 &&... */\ntag_47:\n    /* \"/contracts/TIMBSToken.sol\":11718:11825  maxTransferAmount > 0 &&... */\n  dup1\n  iszero\n  tag_48\n  jumpi\n  pop\n  sub(shl(0xa0, 0x01), 0x01)\n    /* \"/contracts/TIMBSToken.sol\":11804:11825  transferWhitelist[to] */\n  dup3\n  and\n  0x00\n  swap1\n  dup2\n  mstore\n    /* \"/contracts/TIMBSToken.sol\":11804:11821  transferWhitelist */\n  0x0c\n    /* \"/contracts/TIMBSToken.sol\":11804:11825  transferWhitelist[to] */\n  0x20\n  mstore\n  0x40\n  swap1\n  keccak256\n  sload\n  0xff\n  and\n    /* \"/contracts/TIMBSToken.sol\":11803:11825  !transferWhitelist[to] */\n  iszero\n    /* \"/contracts/TIMBSToken.sol\":11718:11825  maxTransferAmount > 0 &&... */\ntag_48:\n    /* \"/contracts/TIMBSToken.sol\":11697:11995  if (... */\n  iszero\n  tag_50\n  jumpi\n    /* \"/contracts/TIMBSToken.sol\":11870:11887  maxTransferAmount */\n  sload(0x0b)\n    /* \"/contracts/TIMBSToken.sol\":11862:11867  value */\n  dup2\n    /* \"/contracts/TIMBSToken.sol\":11862:11887  value > maxTransferAmount */\n  gt\n    /* \"/contracts/TIMBSToken.sol\":11858:11981  if (value > maxTransferAmount) {... */\n  iszero\n  tag_50\n  jumpi\n    /* \"/contracts/TIMBSToken.sol\":11944:11961  maxTransferAmount */\n  sload(0x0b)\n    /* \"/contracts/TIMBSToken.sol\":11918:11962  ExceedsMaxTransfer(value, maxTransferAmount) */\n  mload(0x40)\n  shl(0xe1, 0x40897271)\n  dup2\n  mstore\n  tag_14\n  swap2\n    /* \"/contracts/TIMBSToken.sol\":11937:11942  value */\n  dup4\n  swap2\n    /* \"/contracts/TIMBSToken.sol\":11918:11962  ExceedsMaxTransfer(value, maxTransferAmount) */\n  0x04\n  add\n    /* \"#utility.yul\":3534:3559   */\n  swap2\n  dup3\n  mstore\n    /* \"#utility.yul\":3590:3592   */\n  0x20\n    /* \"#utility.yul\":3575:3593   */\n  dup3\n  add\n    /* \"#utility.yul\":3568:3602   */\n  mstore\n    /* \"#utility.yul\":3522:3524   */\n  0x40\n    /* \"#utility.yul\":3507:3525   */\n  add\n  swap1\n    /* \"#utility.yul\":3360:3608   */\n  jump\n    /* \"/contracts/TIMBSToken.sol\":11858:11981  if (value > maxTransferAmount) {... */\ntag_50:\n    /* \"/contracts/TIMBSToken.sol\":12014:12044  super._update(from, to, value) */\n  tag_52\n    /* \"/contracts/TIMBSToken.sol\":12028:12032  from */\n  dup4\n    /* \"/contracts/TIMBSToken.sol\":12034:12036  to */\n  dup4\n    /* \"/contracts/TIMBSToken.sol\":12038:12043  value */\n  dup4\n    /* \"/contracts/TIMBSToken.sol\":12014:12027  super._update */\n  tag_53\n    /* \"/contracts/TIMBSToken.sol\":12014:12044  super._update(from, to, value) */\n  jump\t// in\ntag_52:\n    /* \"/contracts/TIMBSToken.sol\":11445:12051  function _update(... */\n  pop\n  pop\n  pop\n  jump\t// out\n    /* \"@openzeppelin/contracts/token/ERC20/ERC20.sol\":5912:7019  function _update(address from, address to, uint256 value) internal virtual {... */\ntag_53:\n  sub(shl(0xa0, 0x01), 0x01)\n    /* \"@openzeppelin/contracts/token/ERC20/ERC20.sol\":6001:6019  from == address(0) */\n  dup4\n  and\n    /* \"@openzeppelin/contracts/token/ERC20/ERC20.sol\":5997:6537  if (from == address(0)) {... */\n  tag_55\n  jumpi\n    /* \"@openzeppelin/contracts/token/ERC20/ERC20.sol\":6153:6158  value */\n  dup1\n    /* \"@openzeppelin/contracts/token/ERC20/ERC20.sol\":6137:6149  _totalSupply */\n  0x02\n  0x00\n    /* \"@openzeppelin/contracts/token/ERC20/ERC20.sol\":6137:6158  _totalSupply += value */\n  dup3\n  dup3\n  sload\n  tag_56\n  swap2\n  swap1\n  tag_57\n  jump\t// in\ntag_56:\n  swap1\n  swap2\n  sstore\n  pop\n    /* \"@openzeppelin/contracts/token/ERC20/ERC20.sol\":5997:6537  if (from == address(0)) {... */\n  tag_58\n  swap1\n  pop\n  jump\ntag_55:\n  sub(shl(0xa0, 0x01), 0x01)\n    /* \"@openzeppelin/contracts/token/ERC20/ERC20.sol\":6211:6226  _balances[from] */\n  dup4\n  and\n    /* \"@openzeppelin/contracts/token/ERC20/ERC20.sol\":6189:6208  uint256 fromBalance */\n  0x00\n    /* \"@openzeppelin/contracts/token/ERC20/ERC20.sol\":6211:6226  _balances[from] */\n  swap1\n  dup2\n  mstore\n  0x20\n  dup2\n  swap1\n  mstore\n  0x40\n  swap1\n  keccak256\n  sload\n    /* \"@openzeppelin/contracts/token/ERC20/ERC20.sol\":6244:6263  fromBalance < value */\n  dup2\n  dup2\n  lt\n    /* \"@openzeppelin/contracts/token/ERC20/ERC20.sol\":6240:6355  if (fromBalance < value) {... */\n  iszero\n  tag_59\n  jumpi\n    /* \"@openzeppelin/contracts/token/ERC20/ERC20.sol\":6290:6340  ERC20InsufficientBalance(from, fromBalance, value) */\n  mload(0x40)\n  shl(0xe2, 0x391434e3)\n  dup2\n  mstore\n  sub(shl(0xa0, 0x01), 0x01)\n    /* \"#utility.yul\":4321:4353   */\n  dup6\n  and\n    /* \"@openzeppelin/contracts/token/ERC20/ERC20.sol\":6290:6340  ERC20InsufficientBalance(from, fromBalance, value) */\n  0x04\n  dup3\n  add\n    /* \"#utility.yul\":4303:4354   */\n  mstore\n    /* \"#utility.yul\":4370:4388   */\n  0x24\n  dup2\n  add\n    /* \"#utility.yul\":4363:4397   */\n  dup3\n  swap1\n  mstore\n    /* \"#utility.yul\":4413:4431   */\n  0x44\n  dup2\n  add\n    /* \"#utility.yul\":4406:4440   */\n  dup4\n  swap1\n  mstore\n    /* \"#utility.yul\":4276:4294   */\n  0x64\n  add\n    /* \"@openzeppelin/contracts/token/ERC20/ERC20.sol\":6290:6340  ERC20InsufficientBalance(from, fromBalance, value) */\n  tag_14\n    /* \"#utility.yul\":4101:4446   */\n  jump\n    /* \"@openzeppelin/contracts/token/ERC20/ERC20.sol\":6240:6355  if (fromBalance < value) {... */\ntag_59:\n  sub(shl(0xa0, 0x01), 0x01)\n    /* \"@openzeppelin/contracts/token/ERC20/ERC20.sol\":6475:6490  _balances[from] */\n  dup5\n  and\n    /* \"@openzeppelin/contracts/token/ERC20/ERC20.sol\":6475:6484  _balances */\n  0x00\n    /* \"@openzeppelin/contracts/token/ERC20/ERC20.sol\":6475:6490  _balances[from] */\n  swap1\n  dup2\n  mstore\n  0x20\n  dup2\n  swap1\n  mstore\n  0x40\n  swap1\n  keccak256\n    /* \"@openzeppelin/contracts/token/ERC20/ERC20.sol\":6493:6512  fromBalance - value */\n  swap1\n  dup3\n  swap1\n  sub\n    /* \"@openzeppelin/contracts/token/ERC20/ERC20.sol\":6475:6512  _balances[from] = fromBalance - value */\n  swap1\n  sstore\n    /* \"@openzeppelin/contracts/token/ERC20/ERC20.sol\":5997:6537  if (from == address(0)) {... */\ntag_58:\n  sub(shl(0xa0, 0x01), 0x01)\n    /* \"@openzeppelin/contracts/token/ERC20/ERC20.sol\":6551:6567  to == address(0) */\n  dup3\n  and\n    /* \"@openzeppelin/contracts/token/ERC20/ERC20.sol\":6547:6972  if (to == address(0)) {... */\n  tag_62\n  jumpi\n    /* \"@openzeppelin/contracts/token/ERC20/ERC20.sol\":6714:6726  _totalSupply */\n  0x02\n    /* \"@openzeppelin/contracts/token/ERC20/ERC20.sol\":6714:6735  _totalSupply -= value */\n  dup1\n  sload\n  dup3\n  swap1\n  sub\n  swap1\n  sstore\n    /* \"@openzeppelin/contracts/token/ERC20/ERC20.sol\":6547:6972  if (to == address(0)) {... */\n  jump(tag_63)\ntag_62:\n  sub(shl(0xa0, 0x01), 0x01)\n    /* \"@openzeppelin/contracts/token/ERC20/ERC20.sol\":6925:6938  _balances[to] */\n  dup3\n  and\n    /* \"@openzeppelin/contracts/token/ERC20/ERC20.sol\":6925:6934  _balances */\n  0x00\n    /* \"@openzeppelin/contracts/token/ERC20/ERC20.sol\":6925:6938  _balances[to] */\n  swap1\n  dup2\n  mstore\n  0x20\n  dup2\n  swap1\n  mstore\n  0x40\n  swap1\n  keccak256\n    /* \"@openzeppelin/contracts/token/ERC20/ERC20.sol\":6925:6947  _balances[to] += value */\n  dup1\n  sload\n  dup3\n  add\n  swap1\n  sstore\n    /* \"@openzeppelin/contracts/token/ERC20/ERC20.sol\":6547:6972  if (to == address(0)) {... */\ntag_63:\n    /* \"@openzeppelin/contracts/token/ERC20/ERC20.sol\":7002:7004  to */\n  dup2\n  sub(shl(0xa0, 0x01), 0x01)\n    /* \"@openzeppelin/contracts/token/ERC20/ERC20.sol\":6987:7012  Transfer(from, to, value) */\n  and\n    /* \"@openzeppelin/contracts/token/ERC20/ERC20.sol\":6996:7000  from */\n  dup4\n  sub(shl(0xa0, 0x01), 0x01)\n    /* \"@openzeppelin/contracts/token/ERC20/ERC20.sol\":6987:7012  Transfer(from, to, value) */\n  and\n  0xddf252ad1be2c89b69c2b068fc378daa952ba7f163c4a11628f55a4df523b3ef\n    /* \"@openzeppelin/contracts/token/ERC20/ERC20.sol\":7006:7011  value */\n  dup4\n    /* \"@openzeppelin/contracts/token/ERC20/ERC20.sol\":6987:7012  Transfer(from, to, value) */\n  mload(0x40)\n  tag_64\n  swap2\n    /* \"#utility.yul\":4597:4622   */\n  dup2\n  mstore\n    /* \"#utility.yul\":4585:4587   */\n  0x20\n    /* \"#utility.yul\":4570:4588   */\n  add\n  swap1\n    /* \"#utility.yul\":4451:4628   */\n  jump\n    /* \"@openzeppelin/contracts/token/ERC20/ERC20.sol\":6987:7012  Transfer(from, to, value) */\ntag_64:\n  mload(0x40)\n  dup1\n  swap2\n  sub\n  swap1\n  log3\n    /* \"@openzeppelin/contracts/token/ERC20/ERC20.sol\":5912:7019  function _update(address from, address to, uint256 value) internal virtual {... */\n  pop\n  pop\n  pop\n  jump\t// out\n    /* \"#utility.yul\":14:426   */\ntag_3:\n    /* \"#utility.yul\":102:108   */\n  0x00\n    /* \"#utility.yul\":110:116   */\n  dup1\n    /* \"#utility.yul\":118:124   */\n  0x00\n    /* \"#utility.yul\":171:173   */\n  0x60\n    /* \"#utility.yul\":159:168   */\n  dup5\n    /* \"#utility.yul\":150:157   */\n  dup7\n    /* \"#utility.yul\":146:169   */\n  sub\n    /* \"#utility.yul\":142:174   */\n  slt\n    /* \"#utility.yul\":139:191   */\n  iszero\n  tag_73\n  jumpi\n    /* \"#utility.yul\":187:188   */\n  0x00\n    /* \"#utility.yul\":184:185   */\n  dup1\n    /* \"#utility.yul\":177:189   */\n  revert\n    /* \"#utility.yul\":139:191   */\ntag_73:\n    /* \"#utility.yul\":213:229   */\n  dup4\n  mload\n  sub(shl(0xa0, 0x01), 0x01)\n    /* \"#utility.yul\":258:289   */\n  dup2\n  and\n    /* \"#utility.yul\":248:290   */\n  dup2\n  eq\n    /* \"#utility.yul\":238:308   */\n  tag_74\n  jumpi\n    /* \"#utility.yul\":304:305   */\n  0x00\n    /* \"#utility.yul\":301:302   */\n  dup1\n    /* \"#utility.yul\":294:306   */\n  revert\n    /* \"#utility.yul\":238:308   */\ntag_74:\n    /* \"#utility.yul\":372:374   */\n  0x20\n    /* \"#utility.yul\":357:375   */\n  dup6\n  add\n    /* \"#utility.yul\":351:376   */\n  mload\n    /* \"#utility.yul\":416:418   */\n  0x40\n    /* \"#utility.yul\":401:419   */\n  swap1\n  swap6\n  add\n    /* \"#utility.yul\":395:420   */\n  mload\n    /* \"#utility.yul\":327:332   */\n  swap1\n  swap7\n    /* \"#utility.yul\":351:376   */\n  swap5\n  swap6\n  pop\n    /* \"#utility.yul\":395:420   */\n  swap4\n    /* \"#utility.yul\":14:426   */\n  swap3\n  pop\n  pop\n  pop\n  jump\t// out\n    /* \"#utility.yul\":431:558   */\ntag_66:\n    /* \"#utility.yul\":492:502   */\n  0x4e487b71\n    /* \"#utility.yul\":487:490   */\n  0xe0\n    /* \"#utility.yul\":483:503   */\n  shl\n    /* \"#utility.yul\":480:481   */\n  0x00\n    /* \"#utility.yul\":473:504   */\n  mstore\n    /* \"#utility.yul\":523:527   */\n  0x41\n    /* \"#utility.yul\":520:521   */\n  0x04\n    /* \"#utility.yul\":513:528   */\n  mstore\n    /* \"#utility.yul\":547:551   */\n  0x24\n    /* \"#utility.yul\":544:545   */\n  0x00\n    /* \"#utility.yul\":537:552   */\n  revert\n    /* \"#utility.yul\":563:943   */\ntag_67:\n    /* \"#utility.yul\":642:643   */\n  0x01\n    /* \"#utility.yul\":638:650   */\n  dup2\n  dup2\n  shr\n  swap1\n    /* \"#utility.yul\":685:697   */\n  dup3\n  and\n  dup1\n    /* \"#utility.yul\":706:767   */\n  tag_77\n  jumpi\n    /* \"#utility.yul\":760:764   */\n  0x7f\n    /* \"#utility.yul\":752:758   */\n  dup3\n    /* \"#utility.yul\":748:765   */\n  and\n    /* \"#utility.yul\":738:765   */\n  swap2\n  pop\n    /* \"#utility.yul\":706:767   */\ntag_77:\n    /* \"#utility.yul\":813:815   */\n  0x20\n    /* \"#utility.yul\":805:811   */\n  dup3\n    /* \"#utility.yul\":802:816   */\n  lt\n    /* \"#utility.yul\":782:800   */\n  dup2\n    /* \"#utility.yul\":779:817   */\n  sub\n    /* \"#utility.yul\":776:937   */\n  tag_78\n  jumpi\n    /* \"#utility.yul\":859:869   */\n  0x4e487b71\n    /* \"#utility.yul\":854:857   */\n  0xe0\n    /* \"#utility.yul\":850:870   */\n  shl\n    /* \"#utility.yul\":847:848   */\n  0x00\n    /* \"#utility.yul\":840:871   */\n  mstore\n    /* \"#utility.yul\":894:898   */\n  0x22\n    /* \"#utility.yul\":891:892   */\n  0x04\n    /* \"#utility.yul\":884:899   */\n  mstore\n    /* \"#utility.yul\":922:926   */\n  0x24\n    /* \"#utility.yul\":919:920   */\n  0x00\n    /* \"#utility.yul\":912:927   */\n  revert\n    /* \"#utility.yul\":776:937   */\ntag_78:\n  pop\n    /* \"#utility.yul\":563:943   */\n  swap2\n  swap1\n  pop\n  jump\t// out\n    /* \"#utility.yul\":1074:1619   */\ntag_69:\n    /* \"#utility.yul\":1176:1178   */\n  0x1f\n    /* \"#utility.yul\":1171:1174   */\n  dup3\n    /* \"#utility.yul\":1168:1179   */\n  gt\n    /* \"#utility.yul\":1165:1613   */\n  iszero\n  tag_52\n  jumpi\n    /* \"#utility.yul\":1212:1213   */\n  0x00\n    /* \"#utility.yul\":1237:1242   */\n  dup2\n    /* \"#utility.yul\":1233:1235   */\n  dup2\n    /* \"#utility.yul\":1226:1243   */\n  mstore\n    /* \"#utility.yul\":1282:1286   */\n  0x20\n    /* \"#utility.yul\":1278:1280   */\n  dup2\n    /* \"#utility.yul\":1268:1287   */\n  keccak256\n    /* \"#utility.yul\":1352:1354   */\n  0x1f\n    /* \"#utility.yul\":1340:1350   */\n  dup6\n    /* \"#utility.yul\":1336:1355   */\n  add\n    /* \"#utility.yul\":1333:1334   */\n  0x05\n    /* \"#utility.yul\":1329:1356   */\n  shr\n    /* \"#utility.yul\":1323:1327   */\n  dup2\n    /* \"#utility.yul\":1319:1357   */\n  add\n    /* \"#utility.yul\":1388:1392   */\n  0x20\n    /* \"#utility.yul\":1376:1386   */\n  dup7\n    /* \"#utility.yul\":1373:1393   */\n  lt\n    /* \"#utility.yul\":1370:1417   */\n  iszero\n  tag_82\n  jumpi\n  pop\n    /* \"#utility.yul\":1411:1415   */\n  dup1\n    /* \"#utility.yul\":1370:1417   */\ntag_82:\n    /* \"#utility.yul\":1466:1468   */\n  0x1f\n    /* \"#utility.yul\":1461:1464   */\n  dup6\n    /* \"#utility.yul\":1457:1469   */\n  add\n    /* \"#utility.yul\":1454:1455   */\n  0x05\n    /* \"#utility.yul\":1450:1470   */\n  shr\n    /* \"#utility.yul\":1444:1448   */\n  dup3\n    /* \"#utility.yul\":1440:1471   */\n  add\n    /* \"#utility.yul\":1430:1471   */\n  swap2\n  pop\n    /* \"#utility.yul\":1521:1603   */\ntag_83:\n    /* \"#utility.yul\":1539:1541   */\n  dup2\n    /* \"#utility.yul\":1532:1537   */\n  dup2\n    /* \"#utility.yul\":1529:1542   */\n  lt\n    /* \"#utility.yul\":1521:1603   */\n  iszero\n  tag_85\n  jumpi\n    /* \"#utility.yul\":1584:1601   */\n  dup3\n  dup2\n  sstore\n    /* \"#utility.yul\":1565:1566   */\n  0x01\n    /* \"#utility.yul\":1554:1567   */\n  add\n    /* \"#utility.yul\":1521:1603   */\n  jump(tag_83)\ntag_85:\n    /* \"#utility.yul\":1525:1528   */\n  pop\n  pop\n  pop\n    /* \"#utility.yul\":1074:1619   */\n  pop\n  pop\n  pop\n  jump\t// out\n    /* \"#utility.yul\":1795:3147   */\ntag_10:\n    /* \"#utility.yul\":1915:1925   */\n  dup2\n  mload\n  sub(shl(0x40, 0x01), 0x01)\n    /* \"#utility.yul\":1937:1967   */\n  dup2\n  gt\n    /* \"#utility.yul\":1934:1990   */\n  iszero\n  tag_89\n  jumpi\n    /* \"#utility.yul\":1970:1988   */\n  tag_89\n  tag_66\n  jump\t// in\ntag_89:\n    /* \"#utility.yul\":1999:2096   */\n  tag_90\n    /* \"#utility.yul\":2089:2095   */\n  dup2\n    /* \"#utility.yul\":2049:2087   */\n  tag_91\n    /* \"#utility.yul\":2081:2085   */\n  dup5\n    /* \"#utility.yul\":2075:2086   */\n  sload\n    /* \"#utility.yul\":2049:2087   */\n  tag_67\n  jump\t// in\ntag_91:\n    /* \"#utility.yul\":2043:2047   */\n  dup5\n    /* \"#utility.yul\":1999:2096   */\n  tag_69\n  jump\t// in\ntag_90:\n    /* \"#utility.yul\":2151:2155   */\n  0x20\n  dup1\n    /* \"#utility.yul\":2215:2217   */\n  0x1f\n    /* \"#utility.yul\":2204:2218   */\n  dup4\n  gt\n    /* \"#utility.yul\":2232:2233   */\n  0x01\n    /* \"#utility.yul\":2227:2890   */\n  dup2\n  eq\n  tag_93\n  jumpi\n    /* \"#utility.yul\":2934:2935   */\n  0x00\n    /* \"#utility.yul\":2951:2957   */\n  dup5\n    /* \"#utility.yul\":2948:3037   */\n  iszero\n  tag_94\n  jumpi\n  pop\n    /* \"#utility.yul\":3003:3022   */\n  dup6\n  dup4\n  add\n    /* \"#utility.yul\":2997:3023   */\n  mload\n    /* \"#utility.yul\":2948:3037   */\ntag_94:\n  not(0x00)\n    /* \"#utility.yul\":1752:1753   */\n  0x03\n    /* \"#utility.yul\":1748:1759   */\n  dup7\n  swap1\n  shl\n    /* \"#utility.yul\":1744:1768   */\n  shr\n    /* \"#utility.yul\":1740:1769   */\n  not\n    /* \"#utility.yul\":1730:1770   */\n  and\n    /* \"#utility.yul\":1776:1777   */\n  0x01\n    /* \"#utility.yul\":1772:1783   */\n  dup6\n  swap1\n  shl\n    /* \"#utility.yul\":1727:1784   */\n  or\n    /* \"#utility.yul\":3050:3131   */\n  dup6\n  sstore\n    /* \"#utility.yul\":2197:3141   */\n  jump(tag_85)\n    /* \"#utility.yul\":2227:2890   */\ntag_93:\n    /* \"#utility.yul\":1021:1022   */\n  0x00\n    /* \"#utility.yul\":1014:1028   */\n  dup6\n  dup2\n  mstore\n    /* \"#utility.yul\":1058:1062   */\n  0x20\n    /* \"#utility.yul\":1045:1063   */\n  dup2\n  keccak256\n  not(0x1f)\n    /* \"#utility.yul\":2263:2283   */\n  dup7\n  and\n  swap2\n    /* \"#utility.yul\":2381:2617   */\ntag_97:\n    /* \"#utility.yul\":2395:2402   */\n  dup3\n    /* \"#utility.yul\":2392:2393   */\n  dup2\n    /* \"#utility.yul\":2389:2403   */\n  lt\n    /* \"#utility.yul\":2381:2617   */\n  iszero\n  tag_99\n  jumpi\n    /* \"#utility.yul\":2484:2503   */\n  dup9\n  dup7\n  add\n    /* \"#utility.yul\":2478:2504   */\n  mload\n    /* \"#utility.yul\":2463:2505   */\n  dup3\n  sstore\n    /* \"#utility.yul\":2576:2603   */\n  swap5\n  dup5\n  add\n  swap5\n    /* \"#utility.yul\":2544:2545   */\n  0x01\n    /* \"#utility.yul\":2532:2546   */\n  swap1\n  swap2\n  add\n  swap1\n    /* \"#utility.yul\":2411:2430   */\n  dup5\n  add\n    /* \"#utility.yul\":2381:2617   */\n  jump(tag_97)\ntag_99:\n    /* \"#utility.yul\":2385:2388   */\n  pop\n    /* \"#utility.yul\":2645:2651   */\n  dup6\n    /* \"#utility.yul\":2636:2643   */\n  dup3\n    /* \"#utility.yul\":2633:2652   */\n  lt\n    /* \"#utility.yul\":2630:2831   */\n  iszero\n  tag_100\n  jumpi\n    /* \"#utility.yul\":2706:2725   */\n  dup8\n  dup6\n  add\n    /* \"#utility.yul\":2700:2726   */\n  mload\n  not(0x00)\n    /* \"#utility.yul\":2789:2790   */\n  0x03\n    /* \"#utility.yul\":2785:2799   */\n  dup9\n  swap1\n  shl\n    /* \"#utility.yul\":2801:2804   */\n  0xf8\n    /* \"#utility.yul\":2781:2805   */\n  and\n    /* \"#utility.yul\":2777:2814   */\n  shr\n    /* \"#utility.yul\":2773:2815   */\n  not\n    /* \"#utility.yul\":2758:2816   */\n  and\n    /* \"#utility.yul\":2743:2817   */\n  dup2\n  sstore\n    /* \"#utility.yul\":2630:2831   */\ntag_100:\n  pop\n  pop\n  pop\n  pop\n  pop\n    /* \"#utility.yul\":2877:2878   */\n  0x01\n    /* \"#utility.yul\":2861:2875   */\n  swap1\n  dup2\n  shl\n    /* \"#utility.yul\":2857:2879   */\n  add\n    /* \"#utility.yul\":2844:2880   */\n  swap1\n  sstore\n  pop\n    /* \"#utility.yul\":1795:3147   */\n  jump\t// out\n    /* \"#utility.yul\":3874:4096   */\ntag_57:\n    /* \"#utility.yul\":3939:3948   */\n  dup1\n  dup3\n  add\n    /* \"#utility.yul\":3960:3970   */\n  dup1\n  dup3\n  gt\n    /* \"#utility.yul\":3957:4090   */\n  iszero\n  tag_105\n  jumpi\n    /* \"#utility.yul\":4012:4022   */\n  0x4e487b71\n    /* \"#utility.yul\":4007:4010   */\n  0xe0\n    /* \"#utility.yul\":4003:4023   */\n  shl\n    /* \"#utility.yul\":4000:4001   */\n  0x00\n    /* \"#utility.yul\":3993:4024   */\n  mstore\n    /* \"#utility.yul\":4047:4051   */\n  0x11\n    /* \"#utility.yul\":4044:4045   */\n  0x04\n    /* \"#utility.yul\":4037:4052   */\n  mstore\n    /* \"#utility.yul\":4075:4079   */\n  0x24\n    /* \"#utility.yul\":4072:4073   */\n  0x00\n    /* \"#utility.yul\":4065:4080   */\n  revert\n    /* \"#utility.yul\":3957:4090   */\ntag_105:\n    /* \"#utility.yul\":3874:4096   */\n  swap3\n  swap2\n  pop\n  pop\n  jump\t// out\n    /* \"#utility.yul\":4451:4628   */\ntag_71:\n    /* \"/contracts/TIMBSToken.sol\":1432:12053  contract TIMBSToken is ERC20, ERC20Burnable, Ownable, ReentrancyGuard {... */\n  dataSize(sub_0)\n  dup1\n  dataOffset(sub_0)\n  0x00\n  codecopy\n  0x00\n  return\nstop\n\nsub_0: assembly {\n        /* \"/contracts/TIMBSToken.sol\":1432:12053  contract TIMBSToken is ERC20, ERC20Burnable, Ownable, ReentrancyGuard {... */\n      mstore(0x40, 0x80)\n      callvalue\n      dup1\n      iszero\n      tag_1\n      jumpi\n      0x00\n      dup1\n      revert\n    tag_1:\n      pop\n      jumpi(tag_2, lt(calldatasize, 0x04))\n      shr(0xe0, calldataload(0x00))\n      dup1\n      0x715018a6\n      gt\n      tag_38\n      jumpi\n      dup1\n      0xa1bdb15e\n      gt\n      tag_39\n      jumpi\n      dup1\n      0xd89a6fa6\n      gt\n      tag_40\n      jumpi\n      dup1\n      0xd89a6fa6\n      eq\n      tag_33\n      jumpi\n      dup1\n      0xdd62ed3e\n      eq\n      tag_34\n      jumpi\n      dup1\n      0xe4a34dce\n      eq\n      tag_35\n      jumpi\n      dup1\n      0xf0f44260\n      eq\n      tag_36\n      jumpi\n      dup1\n      0xf2fde38b\n      eq\n      tag_37\n      jumpi\n      0x00\n      dup1\n      revert\n    tag_40:\n      dup1\n      0xa1bdb15e\n      eq\n      tag_29\n      jumpi\n      dup1\n      0xa9059cbb\n      eq\n      tag_30\n      jumpi\n      dup1\n      0xa9e75723\n      eq\n      tag_31\n      jumpi\n      dup1\n      0xae11c4bc\n      eq\n      tag_32\n      jumpi\n      0x00\n      dup1\n      revert\n    tag_39:\n      dup1\n      0x83d5d801\n      gt\n      tag_41\n      jumpi\n      dup1\n      0x83d5d801\n      eq\n      tag_24\n      jumpi\n      dup1\n      0x8456cb59\n      eq\n      tag_25\n      jumpi\n      dup1\n      0x8bf55409\n      eq\n      tag_26\n      jumpi\n      dup1\n      0x8da5cb5b\n      eq\n      tag_27\n      jumpi\n      dup1\n      0x95d89b41\n      eq\n      tag_28\n      jumpi\n      0x00\n      dup1\n      revert\n    tag_41:\n      dup1\n      0x715018a6\n      eq\n      tag_20\n      jumpi\n      dup1\n      0x79cc6790\n      eq\n      tag_21\n      jumpi\n      dup1\n      0x7c562a94\n      eq\n      tag_22\n      jumpi\n      dup1\n      0x7ffbe241\n      eq\n      tag_23\n      jumpi\n      0x00\n      dup1\n      revert\n    tag_38:\n      dup1\n      0x313ce567\n      gt\n      tag_42\n      jumpi\n      dup1\n      0x42966c68\n      gt\n      tag_43\n      jumpi\n      dup1\n      0x42966c68\n      eq\n      tag_15\n      jumpi\n      dup1\n      0x45c952cb\n      eq\n      tag_16\n      jumpi\n      dup1\n      0x5c975abb\n      eq\n      tag_17\n      jumpi\n      dup1\n      0x61d027b3\n      eq\n      tag_18\n      jumpi\n      dup1\n      0x70a08231\n      eq\n      tag_19\n      jumpi\n      0x00\n      dup1\n      revert\n    tag_43:\n      dup1\n      0x313ce567\n      eq\n      tag_11\n      jumpi\n      dup1\n      0x3a03171c\n      eq\n      tag_12\n      jumpi\n      dup1\n      0x3f4ba83a\n      eq\n      tag_13\n      jumpi\n      dup1\n      0x4214e0af\n      eq\n      tag_14\n      jumpi\n      0x00\n      dup1\n      revert\n    tag_42:\n      dup1\n      0x21d66353\n      gt\n      tag_44\n      jumpi\n      dup1\n      0x21d66353\n      eq\n      tag_7\n      jumpi\n      dup1\n      0x23b872dd\n      eq\n      tag_8\n      jumpi\n      dup1\n      0x296ed9f4\n      eq\n      tag_9\n      jumpi\n      dup1\n      0x3028f63a\n      eq\n      tag_10\n      jumpi\n      0x00\n      dup1\n      revert\n    tag_44:\n      dup1\n      0x06fdde03\n      eq\n      tag_3\n      jumpi\n      dup1\n      0x095ea7b3\n      eq\n      tag_4\n      jumpi\n      dup1\n      0x0c56ae3b\n      eq\n      tag_5\n      jumpi\n      dup1\n      0x18160ddd\n      eq\n      tag_6\n      jumpi\n    tag_2:\n      0x00\n      dup1\n      revert\n        /* \"@openzeppelin/contracts/token/ERC20/ERC20.sol\":1760:1849  function name() public view virtual returns (string memory) {... */\n    tag_3:\n      tag_45\n      tag_46\n      jump\t// in\n    tag_45:\n      mload(0x40)\n      tag_47\n      swap2\n      swap1\n      tag_48\n      jump\t// in\n    tag_47:\n      mload(0x40)\n      dup1\n      swap2\n      sub\n      swap1\n      return\n        /* \"@openzeppelin/contracts/token/ERC20/ERC20.sol\":3902:4088  function approve(address spender, uint256 value) public virtual returns (bool) {... */\n    tag_4:\n      tag_49\n      tag_50\n      calldatasize\n      0x04\n      tag_51\n      jump\t// in\n    tag_50:\n      tag_52\n      jump\t// in\n    tag_49:\n      mload(0x40)\n        /* \"#utility.yul\":1169:1183   */\n      swap1\n      iszero\n        /* \"#utility.yul\":1162:1184   */\n      iszero\n        /* \"#utility.yul\":1144:1185   */\n      dup2\n      mstore\n        /* \"#utility.yul\":1132:1134   */\n      0x20\n        /* \"#utility.yul\":1117:1135   */\n      add\n        /* \"@openzeppelin/contracts/token/ERC20/ERC20.sol\":3902:4088  function approve(address spender, uint256 value) public virtual returns (bool) {... */\n      tag_47\n        /* \"#utility.yul\":1004:1191   */\n      jump\n        /* \"/contracts/TIMBSToken.sol\":2285:2311  address public stakingPool */\n    tag_5:\n      sload(0x07)\n      tag_55\n      swap1\n      sub(shl(0xa0, 0x01), 0x01)\n      and\n      dup2\n      jump\n    tag_55:\n      mload(0x40)\n      sub(shl(0xa0, 0x01), 0x01)\n        /* \"#utility.yul\":1360:1392   */\n      swap1\n      swap2\n      and\n        /* \"#utility.yul\":1342:1393   */\n      dup2\n      mstore\n        /* \"#utility.yul\":1330:1332   */\n      0x20\n        /* \"#utility.yul\":1315:1333   */\n      add\n        /* \"/contracts/TIMBSToken.sol\":2285:2311  address public stakingPool */\n      tag_47\n        /* \"#utility.yul\":1196:1399   */\n      jump\n        /* \"@openzeppelin/contracts/token/ERC20/ERC20.sol\":2803:2900  function totalSupply() public view virtual returns (uint256) {... */\n    tag_6:\n        /* \"@openzeppelin/contracts/token/ERC20/ERC20.sol\":2881:2893  _totalSupply */\n      sload(0x02)\n        /* \"@openzeppelin/contracts/token/ERC20/ERC20.sol\":2803:2900  function totalSupply() public view virtual returns (uint256) {... */\n    tag_59:\n      mload(0x40)\n        /* \"#utility.yul\":1550:1575   */\n      swap1\n      dup2\n      mstore\n        /* \"#utility.yul\":1538:1540   */\n      0x20\n        /* \"#utility.yul\":1523:1541   */\n      add\n        /* \"@openzeppelin/contracts/token/ERC20/ERC20.sol\":2803:2900  function totalSupply() public view virtual returns (uint256) {... */\n      tag_47\n        /* \"#utility.yul\":1404:1581   */\n      jump\n        /* \"/contracts/TIMBSToken.sol\":8166:8365  function setEntryCostTIMBS(uint256 _cost) external onlyOwner {... */\n    tag_7:\n      tag_63\n      tag_64\n      calldatasize\n      0x04\n      tag_65\n      jump\t// in\n    tag_64:\n      tag_66\n      jump\t// in\n    tag_63:\n      stop\n        /* \"@openzeppelin/contracts/token/ERC20/ERC20.sol\":4680:4924  function transferFrom(address from, address to, uint256 value) public virtual returns (bool) {... */\n    tag_8:\n      tag_49\n      tag_68\n      calldatasize\n      0x04\n      tag_69\n      jump\t// in\n    tag_68:\n      tag_70\n      jump\t// in\n        /* \"/contracts/TIMBSToken.sol\":9815:10259  function mintEmissions(address recipient, uint256 amount)... */\n    tag_9:\n      tag_63\n      tag_73\n      calldatasize\n      0x04\n      tag_51\n      jump\t// in\n    tag_73:\n      tag_74\n      jump\t// in\n        /* \"/contracts/TIMBSToken.sol\":6732:7121  function setStakingPool(address _stakingPool) external onlyOwner {... */\n    tag_10:\n      tag_63\n      tag_76\n      calldatasize\n      0x04\n      tag_77\n      jump\t// in\n    tag_76:\n      tag_78\n      jump\t// in\n        /* \"@openzeppelin/contracts/token/ERC20/ERC20.sol\":2688:2770  function decimals() public view virtual returns (uint8) {... */\n    tag_11:\n      mload(0x40)\n        /* \"@openzeppelin/contracts/token/ERC20/ERC20.sol\":2761:2763  18 */\n      0x12\n        /* \"#utility.yul\":2437:2473   */\n      dup2\n      mstore\n        /* \"#utility.yul\":2425:2427   */\n      0x20\n        /* \"#utility.yul\":2410:2428   */\n      add\n        /* \"@openzeppelin/contracts/token/ERC20/ERC20.sol\":2688:2770  function decimals() public view virtual returns (uint8) {... */\n      tag_47\n        /* \"#utility.yul\":2295:2479   */\n      jump\n        /* \"/contracts/TIMBSToken.sol\":1799:1852  uint256 public constant HARD_CAP = 100_000_000 * 1e18 */\n    tag_12:\n      tag_59\n        /* \"/contracts/TIMBSToken.sol\":1834:1852  100_000_000 * 1e18 */\n      0x52b7d2dcc80cd2e4000000\n        /* \"/contracts/TIMBSToken.sol\":1799:1852  uint256 public constant HARD_CAP = 100_000_000 * 1e18 */\n      dup2\n      jump\n        /* \"/contracts/TIMBSToken.sol\":9203:9307  function unpause() external onlyOwner {... */\n    tag_13:\n      tag_63\n      tag_87\n      jump\t// in\n        /* \"/contracts/TIMBSToken.sol\":2518:2551  uint256 public emissionRatePerDay */\n    tag_14:\n      tag_59\n      sload(0x09)\n      dup2\n      jump\n        /* \"@openzeppelin/contracts/token/ERC20/extensions/ERC20Burnable.sol\":618:705  function burn(uint256 value) public virtual {... */\n    tag_15:\n      tag_63\n      tag_92\n      calldatasize\n      0x04\n      tag_65\n      jump\t// in\n    tag_92:\n      tag_93\n      jump\t// in\n        /* \"/contracts/TIMBSToken.sol\":2699:2728  uint256 public entryCostTIMBS */\n    tag_16:\n      tag_59\n      sload(0x0a)\n      dup2\n      jump\n        /* \"/contracts/TIMBSToken.sol\":3064:3082  bool public paused */\n    tag_17:\n      sload(0x0d)\n      tag_49\n      swap1\n      0xff\n      and\n      dup2\n      jump\n        /* \"/contracts/TIMBSToken.sol\":2177:2200  address public treasury */\n    tag_18:\n      sload(0x06)\n      tag_55\n      swap1\n      sub(shl(0xa0, 0x01), 0x01)\n      and\n      dup2\n      jump\n        /* \"@openzeppelin/contracts/token/ERC20/ERC20.sol\":2933:3049  function balanceOf(address account) public view virtual returns (uint256) {... */\n    tag_19:\n      tag_59\n      tag_104\n      calldatasize\n      0x04\n      tag_77\n      jump\t// in\n    tag_104:\n      sub(shl(0xa0, 0x01), 0x01)\n        /* \"@openzeppelin/contracts/token/ERC20/ERC20.sol\":3024:3042  _balances[account] */\n      and\n        /* \"@openzeppelin/contracts/token/ERC20/ERC20.sol\":2998:3005  uint256 */\n      0x00\n        /* \"@openzeppelin/contracts/token/ERC20/ERC20.sol\":3024:3042  _balances[account] */\n      swap1\n      dup2\n      mstore\n      0x20\n      dup2\n      swap1\n      mstore\n      0x40\n      swap1\n      keccak256\n      sload\n      swap1\n        /* \"@openzeppelin/contracts/token/ERC20/ERC20.sol\":2933:3049  function balanceOf(address account) public view virtual returns (uint256) {... */\n      jump\n        /* \"@openzeppelin/contracts/access/Ownable.sol\":2293:2394  function renounceOwnership() public virtual onlyOwner {... */\n    tag_20:\n      tag_63\n      tag_108\n      jump\t// in\n        /* \"@openzeppelin/contracts/token/ERC20/extensions/ERC20Burnable.sol\":1021:1179  function burnFrom(address account, uint256 value) public virtual {... */\n    tag_21:\n      tag_63\n      tag_110\n      calldatasize\n      0x04\n      tag_51\n      jump\t// in\n    tag_110:\n      tag_111\n      jump\t// in\n        /* \"/contracts/TIMBSToken.sol\":7228:7538  function setFarmPool(address _farmPool) external onlyOwner {... */\n    tag_22:\n      tag_63\n      tag_113\n      calldatasize\n      0x04\n      tag_77\n      jump\t// in\n    tag_113:\n      tag_114\n      jump\t// in\n        /* \"/contracts/TIMBSToken.sol\":2937:2986  mapping(address => bool) public transferWhitelist */\n    tag_23:\n      tag_49\n      tag_116\n      calldatasize\n      0x04\n      tag_77\n      jump\t// in\n    tag_116:\n      mstore(0x20, 0x0c)\n      0x00\n      swap1\n      dup2\n      mstore\n      0x40\n      swap1\n      keccak256\n      sload\n      0xff\n      and\n      dup2\n      jump\n        /* \"/contracts/TIMBSToken.sol\":10917:11075  function entryCostETH() external pure returns (uint256) {... */\n    tag_24:\n        /* \"/contracts/TIMBSToken.sol\":10964:10971  uint256 */\n      0x00\n        /* \"/contracts/TIMBSToken.sol\":10917:11075  function entryCostETH() external pure returns (uint256) {... */\n      jump(tag_59)\n        /* \"/contracts/TIMBSToken.sol\":9042:9141  function pause() external onlyOwner {... */\n    tag_25:\n      tag_63\n      tag_123\n      jump\t// in\n        /* \"/contracts/TIMBSToken.sol\":8471:8616  function setMaxTransferAmount(uint256 _max) external onlyOwner {... */\n    tag_26:\n      tag_63\n      tag_125\n      calldatasize\n      0x04\n      tag_65\n      jump\t// in\n    tag_125:\n      tag_126\n      jump\t// in\n        /* \"@openzeppelin/contracts/access/Ownable.sol\":1638:1723  function owner() public view virtual returns (address) {... */\n    tag_27:\n        /* \"@openzeppelin/contracts/access/Ownable.sol\":1710:1716  _owner */\n      and(sub(shl(0xa0, 0x01), 0x01), sload(0x05))\n        /* \"@openzeppelin/contracts/access/Ownable.sol\":1638:1723  function owner() public view virtual returns (address) {... */\n      jump(tag_55)\n        /* \"@openzeppelin/contracts/token/ERC20/ERC20.sol\":1962:2055  function symbol() public view virtual returns (string memory) {... */\n    tag_28:\n      tag_45\n      tag_131\n      jump\t// in\n        /* \"/contracts/TIMBSToken.sol\":7766:7923  function setEmissionRate(uint256 _ratePerDay) external onlyOwner {... */\n    tag_29:\n      tag_63\n      tag_134\n      calldatasize\n      0x04\n      tag_65\n      jump\t// in\n    tag_134:\n      tag_135\n      jump\t// in\n        /* \"@openzeppelin/contracts/token/ERC20/ERC20.sol\":3244:3422  function transfer(address to, uint256 value) public virtual returns (bool) {... */\n    tag_30:\n      tag_49\n      tag_137\n      calldatasize\n      0x04\n      tag_51\n      jump\t// in\n    tag_137:\n      tag_138\n      jump\t// in\n        /* \"/contracts/TIMBSToken.sol\":2817:2849  uint256 public maxTransferAmount */\n    tag_31:\n      tag_59\n      sload(0x0b)\n      dup2\n      jump\n        /* \"/contracts/TIMBSToken.sol\":10557:10675  function remainingEmissionsCapacity() external view returns (uint256) {... */\n    tag_32:\n      tag_59\n      tag_144\n      jump\t// in\n        /* \"/contracts/TIMBSToken.sol\":2398:2421  address public farmPool */\n    tag_33:\n      sload(0x08)\n      tag_55\n      swap1\n      sub(shl(0xa0, 0x01), 0x01)\n      and\n      dup2\n      jump\n        /* \"@openzeppelin/contracts/token/ERC20/ERC20.sol\":3455:3595  function allowance(address owner, address spender) public view virtual returns (uint256) {... */\n    tag_34:\n      tag_59\n      tag_150\n      calldatasize\n      0x04\n      tag_151\n      jump\t// in\n    tag_150:\n      sub(shl(0xa0, 0x01), 0x01)\n        /* \"@openzeppelin/contracts/token/ERC20/ERC20.sol\":3561:3579  _allowances[owner] */\n      swap2\n      dup3\n      and\n        /* \"@openzeppelin/contracts/token/ERC20/ERC20.sol\":3535:3542  uint256 */\n      0x00\n        /* \"@openzeppelin/contracts/token/ERC20/ERC20.sol\":3561:3579  _allowances[owner] */\n      swap1\n      dup2\n      mstore\n        /* \"@openzeppelin/contracts/token/ERC20/ERC20.sol\":3561:3572  _allowances */\n      0x01\n        /* \"@openzeppelin/contracts/token/ERC20/ERC20.sol\":3561:3579  _allowances[owner] */\n      0x20\n      swap1\n      dup2\n      mstore\n      0x40\n      dup1\n      dup4\n      keccak256\n        /* \"@openzeppelin/contracts/token/ERC20/ERC20.sol\":3561:3588  _allowances[owner][spender] */\n      swap4\n      swap1\n      swap5\n      and\n      dup3\n      mstore\n      swap2\n      swap1\n      swap2\n      mstore\n      keccak256\n      sload\n      swap1\n        /* \"@openzeppelin/contracts/token/ERC20/ERC20.sol\":3455:3595  function allowance(address owner, address spender) public view virtual returns (uint256) {... */\n      jump\n        /* \"/contracts/TIMBSToken.sol\":8707:8958  function setTransferWhitelist(address _account, bool _exempt) external onlyOwner {... */\n    tag_35:\n      tag_63\n      tag_155\n      calldatasize\n      0x04\n      tag_156\n      jump\t// in\n    tag_155:\n      tag_157\n      jump\t// in\n        /* \"/contracts/TIMBSToken.sol\":6329:6625  function setTreasury(address _treasury) external onlyOwner {... */\n    tag_36:\n      tag_63\n      tag_159\n      calldatasize\n      0x04\n      tag_77\n      jump\t// in\n    tag_159:\n      tag_160\n      jump\t// in\n        /* \"@openzeppelin/contracts/access/Ownable.sol\":2543:2758  function transferOwnership(address newOwner) public virtual onlyOwner {... */\n    tag_37:\n      tag_63\n      tag_162\n      calldatasize\n      0x04\n      tag_77\n      jump\t// in\n    tag_162:\n      tag_163\n      jump\t// in\n        /* \"@openzeppelin/contracts/token/ERC20/ERC20.sol\":1760:1849  function name() public view virtual returns (string memory) {... */\n    tag_46:\n        /* \"@openzeppelin/contracts/token/ERC20/ERC20.sol\":1805:1818  string memory */\n      0x60\n        /* \"@openzeppelin/contracts/token/ERC20/ERC20.sol\":1837:1842  _name */\n      0x03\n        /* \"@openzeppelin/contracts/token/ERC20/ERC20.sol\":1830:1842  return _name */\n      dup1\n      sload\n      tag_165\n      swap1\n      tag_166\n      jump\t// in\n    tag_165:\n      dup1\n      0x1f\n      add\n      0x20\n      dup1\n      swap2\n      div\n      mul\n      0x20\n      add\n      mload(0x40)\n      swap1\n      dup2\n      add\n      0x40\n      mstore\n      dup1\n      swap3\n      swap2\n      swap1\n      dup2\n      dup2\n      mstore\n      0x20\n      add\n      dup3\n      dup1\n      sload\n      tag_167\n      swap1\n      tag_166\n      jump\t// in\n    tag_167:\n      dup1\n      iszero\n      tag_168\n      jumpi\n      dup1\n      0x1f\n      lt\n      tag_169\n      jumpi\n      0x0100\n      dup1\n      dup4\n      sload\n      div\n      mul\n      dup4\n      mstore\n      swap2\n      0x20\n      add\n      swap2\n      jump(tag_168)\n    tag_169:\n      dup3\n      add\n      swap2\n      swap1\n      0x00\n      mstore\n      keccak256(0x00, 0x20)\n      swap1\n    tag_170:\n      dup2\n      sload\n      dup2\n      mstore\n      swap1\n      0x01\n      add\n      swap1\n      0x20\n      add\n      dup1\n      dup4\n      gt\n      tag_170\n      jumpi\n      dup3\n      swap1\n      sub\n      0x1f\n      and\n      dup3\n      add\n      swap2\n    tag_168:\n      pop\n      pop\n      pop\n      pop\n      pop\n      swap1\n      pop\n        /* \"@openzeppelin/contracts/token/ERC20/ERC20.sol\":1760:1849  function name() public view virtual returns (string memory) {... */\n      swap1\n      jump\t// out\n        /* \"@openzeppelin/contracts/token/ERC20/ERC20.sol\":3902:4088  function approve(address spender, uint256 value) public virtual returns (bool) {... */\n    tag_52:\n        /* \"@openzeppelin/contracts/token/ERC20/ERC20.sol\":3975:3979  bool */\n      0x00\n        /* \"@openzeppelin/contracts/utils/Context.sol\":735:745  msg.sender */\n      caller\n        /* \"@openzeppelin/contracts/token/ERC20/ERC20.sol\":4029:4060  _approve(owner, spender, value) */\n      tag_174\n        /* \"@openzeppelin/contracts/utils/Context.sol\":735:745  msg.sender */\n      dup2\n        /* \"@openzeppelin/contracts/token/ERC20/ERC20.sol\":4045:4052  spender */\n      dup6\n        /* \"@openzeppelin/contracts/token/ERC20/ERC20.sol\":4054:4059  value */\n      dup6\n        /* \"@openzeppelin/contracts/token/ERC20/ERC20.sol\":4029:4037  _approve */\n      tag_175\n        /* \"@openzeppelin/contracts/token/ERC20/ERC20.sol\":4029:4060  _approve(owner, spender, value) */\n      jump\t// in\n    tag_174:\n        /* \"@openzeppelin/contracts/token/ERC20/ERC20.sol\":4077:4081  true */\n      0x01\n        /* \"@openzeppelin/contracts/token/ERC20/ERC20.sol\":4070:4081  return true */\n      swap2\n      pop\n      pop\n        /* \"@openzeppelin/contracts/token/ERC20/ERC20.sol\":3902:4088  function approve(address spender, uint256 value) public virtual returns (bool) {... */\n    tag_171:\n      swap3\n      swap2\n      pop\n      pop\n      jump\t// out\n        /* \"/contracts/TIMBSToken.sol\":8166:8365  function setEntryCostTIMBS(uint256 _cost) external onlyOwner {... */\n    tag_66:\n        /* \"@openzeppelin/contracts/access/Ownable.sol\":1531:1544  _checkOwner() */\n      tag_178\n        /* \"@openzeppelin/contracts/access/Ownable.sol\":1531:1542  _checkOwner */\n      tag_179\n        /* \"@openzeppelin/contracts/access/Ownable.sol\":1531:1544  _checkOwner() */\n      jump\t// in\n    tag_178:\n        /* \"/contracts/TIMBSToken.sol\":8241:8246  _cost */\n      dup1\n        /* \"/contracts/TIMBSToken.sol\":8250:8251  0 */\n      0x00\n        /* \"/contracts/TIMBSToken.sol\":8241:8251  _cost == 0 */\n      sub\n        /* \"/contracts/TIMBSToken.sol\":8237:8272  if (_cost == 0) revert ZeroAmount() */\n      tag_181\n      jumpi\n        /* \"/contracts/TIMBSToken.sol\":8260:8272  ZeroAmount() */\n      mload(0x40)\n      shl(0xe0, 0x1f2a2005)\n      dup2\n      mstore\n      0x04\n      add\n      mload(0x40)\n      dup1\n      swap2\n      sub\n      swap1\n      revert\n        /* \"/contracts/TIMBSToken.sol\":8237:8272  if (_cost == 0) revert ZeroAmount() */\n    tag_181:\n        /* \"/contracts/TIMBSToken.sol\":8304:8318  entryCostTIMBS */\n      sload(0x0a)\n        /* \"/contracts/TIMBSToken.sol\":8287:8326  EntryCostUpdated(entryCostTIMBS, _cost) */\n      0x40\n      dup1\n      mload\n        /* \"#utility.yul\":3660:3685   */\n      swap2\n      dup3\n      mstore\n        /* \"#utility.yul\":3716:3718   */\n      0x20\n        /* \"#utility.yul\":3701:3719   */\n      dup3\n      add\n        /* \"#utility.yul\":3694:3728   */\n      dup4\n      swap1\n      mstore\n        /* \"/contracts/TIMBSToken.sol\":8287:8326  EntryCostUpdated(entryCostTIMBS, _cost) */\n      0x5299e127ac8bdc64fd0e551dd406ba1e1fbaebc96d458ce9b1a5e69caecdf376\n      swap2\n        /* \"#utility.yul\":3633:3651   */\n      add\n        /* \"/contracts/TIMBSToken.sol\":8287:8326  EntryCostUpdated(entryCostTIMBS, _cost) */\n      mload(0x40)\n      dup1\n      swap2\n      sub\n      swap1\n      log1\n        /* \"/contracts/TIMBSToken.sol\":8336:8350  entryCostTIMBS */\n      0x0a\n        /* \"/contracts/TIMBSToken.sol\":8336:8358  entryCostTIMBS = _cost */\n      sstore\n        /* \"/contracts/TIMBSToken.sol\":8166:8365  function setEntryCostTIMBS(uint256 _cost) external onlyOwner {... */\n      jump\t// out\n        /* \"@openzeppelin/contracts/token/ERC20/ERC20.sol\":4680:4924  function transferFrom(address from, address to, uint256 value) public virtual returns (bool) {... */\n    tag_70:\n        /* \"@openzeppelin/contracts/token/ERC20/ERC20.sol\":4767:4771  bool */\n      0x00\n        /* \"@openzeppelin/contracts/utils/Context.sol\":735:745  msg.sender */\n      caller\n        /* \"@openzeppelin/contracts/token/ERC20/ERC20.sol\":4823:4860  _spendAllowance(from, spender, value) */\n      tag_186\n        /* \"@openzeppelin/contracts/token/ERC20/ERC20.sol\":4839:4843  from */\n      dup6\n        /* \"@openzeppelin/contracts/utils/Context.sol\":735:745  msg.sender */\n      dup3\n        /* \"@openzeppelin/contracts/token/ERC20/ERC20.sol\":4854:4859  value */\n      dup6\n        /* \"@openzeppelin/contracts/token/ERC20/ERC20.sol\":4823:4838  _spendAllowance */\n      tag_187\n        /* \"@openzeppelin/contracts/token/ERC20/ERC20.sol\":4823:4860  _spendAllowance(from, spender, value) */\n      jump\t// in\n    tag_186:\n        /* \"@openzeppelin/contracts/token/ERC20/ERC20.sol\":4870:4896  _transfer(from, to, value) */\n      tag_188\n        /* \"@openzeppelin/contracts/token/ERC20/ERC20.sol\":4880:4884  from */\n      dup6\n        /* \"@openzeppelin/contracts/token/ERC20/ERC20.sol\":4886:4888  to */\n      dup6\n        /* \"@openzeppelin/contracts/token/ERC20/ERC20.sol\":4890:4895  value */\n      dup6\n        /* \"@openzeppelin/contracts/token/ERC20/ERC20.sol\":4870:4879  _transfer */\n      tag_189\n        /* \"@openzeppelin/contracts/token/ERC20/ERC20.sol\":4870:4896  _transfer(from, to, value) */\n      jump\t// in\n    tag_188:\n      pop\n        /* \"@openzeppelin/contracts/token/ERC20/ERC20.sol\":4913:4917  true */\n      0x01\n      swap5\n        /* \"@openzeppelin/contracts/token/ERC20/ERC20.sol\":4680:4924  function transferFrom(address from, address to, uint256 value) public virtual returns (bool) {... */\n      swap4\n      pop\n      pop\n      pop\n      pop\n      jump\t// out\n        /* \"/contracts/TIMBSToken.sol\":9815:10259  function mintEmissions(address recipient, uint256 amount)... */\n    tag_74:\n        /* \"@openzeppelin/contracts/utils/ReentrancyGuard.sol\":3023:3044  _nonReentrantBefore() */\n      tag_191\n        /* \"@openzeppelin/contracts/utils/ReentrancyGuard.sol\":3023:3042  _nonReentrantBefore */\n      tag_192\n        /* \"@openzeppelin/contracts/utils/ReentrancyGuard.sol\":3023:3044  _nonReentrantBefore() */\n      jump\t// in\n    tag_191:\n        /* \"/contracts/TIMBSToken.sol\":4666:4677  stakingPool */\n      and(sub(shl(0xa0, 0x01), 0x01), sload(0x07))\n        /* \"/contracts/TIMBSToken.sol\":4652:4662  msg.sender */\n      caller\n        /* \"/contracts/TIMBSToken.sol\":4652:4677  msg.sender != stakingPool */\n      eq\n      dup1\n      iszero\n      swap1\n        /* \"/contracts/TIMBSToken.sol\":4652:4703  msg.sender != stakingPool && msg.sender != farmPool */\n      tag_194\n      jumpi\n      pop\n        /* \"/contracts/TIMBSToken.sol\":4695:4703  farmPool */\n      and(sub(shl(0xa0, 0x01), 0x01), sload(0x08))\n        /* \"/contracts/TIMBSToken.sol\":4681:4691  msg.sender */\n      caller\n        /* \"/contracts/TIMBSToken.sol\":4681:4703  msg.sender != farmPool */\n      eq\n      iszero\n        /* \"/contracts/TIMBSToken.sol\":4652:4703  msg.sender != stakingPool && msg.sender != farmPool */\n    tag_194:\n        /* \"/contracts/TIMBSToken.sol\":4652:4728  msg.sender != stakingPool && msg.sender != farmPool && msg.sender != owner() */\n      dup1\n      iszero\n      tag_195\n      jumpi\n      pop\n        /* \"@openzeppelin/contracts/access/Ownable.sol\":1710:1716  _owner */\n      and(sub(shl(0xa0, 0x01), 0x01), sload(0x05))\n        /* \"/contracts/TIMBSToken.sol\":4707:4717  msg.sender */\n      caller\n        /* \"/contracts/TIMBSToken.sol\":4707:4728  msg.sender != owner() */\n      eq\n      iszero\n        /* \"/contracts/TIMBSToken.sol\":4652:4728  msg.sender != stakingPool && msg.sender != farmPool && msg.sender != owner() */\n    tag_195:\n        /* \"/contracts/TIMBSToken.sol\":4648:4783  if (msg.sender != stakingPool && msg.sender != farmPool && msg.sender != owner()) {... */\n      iszero\n      tag_197\n      jumpi\n        /* \"/contracts/TIMBSToken.sol\":4751:4772  NotAuthorizedMinter() */\n      mload(0x40)\n      shl(0xe7, 0x019a5d1d)\n      dup2\n      mstore\n      0x04\n      add\n      mload(0x40)\n      dup1\n      swap2\n      sub\n      swap1\n      revert\n        /* \"/contracts/TIMBSToken.sol\":4648:4783  if (msg.sender != stakingPool && msg.sender != farmPool && msg.sender != owner()) {... */\n    tag_197:\n      sub(shl(0xa0, 0x01), 0x01)\n        /* \"/contracts/TIMBSToken.sol\":9948:9971  recipient == address(0) */\n      dup3\n      and\n        /* \"/contracts/TIMBSToken.sol\":9944:9993  if (recipient == address(0)) revert ZeroAddress() */\n      tag_199\n      jumpi\n        /* \"/contracts/TIMBSToken.sol\":9980:9993  ZeroAddress() */\n      mload(0x40)\n      shl(0xe0, 0xd92e233d)\n      dup2\n      mstore\n      0x04\n      add\n      mload(0x40)\n      dup1\n      swap2\n      sub\n      swap1\n      revert\n        /* \"/contracts/TIMBSToken.sol\":9944:9993  if (recipient == address(0)) revert ZeroAddress() */\n    tag_199:\n        /* \"/contracts/TIMBSToken.sol\":10007:10013  amount */\n      dup1\n        /* \"/contracts/TIMBSToken.sol\":10017:10018  0 */\n      0x00\n        /* \"/contracts/TIMBSToken.sol\":10007:10018  amount == 0 */\n      sub\n        /* \"/contracts/TIMBSToken.sol\":10003:10039  if (amount == 0) revert ZeroAmount() */\n      tag_200\n      jumpi\n        /* \"/contracts/TIMBSToken.sol\":10027:10039  ZeroAmount() */\n      mload(0x40)\n      shl(0xe0, 0x1f2a2005)\n      dup2\n      mstore\n      0x04\n      add\n      mload(0x40)\n      dup1\n      swap2\n      sub\n      swap1\n      revert\n        /* \"/contracts/TIMBSToken.sol\":10003:10039  if (amount == 0) revert ZeroAmount() */\n    tag_200:\n        /* \"/contracts/TIMBSToken.sol\":10050:10067  uint256 available */\n      0x00\n        /* \"/contracts/TIMBSToken.sol\":10081:10094  totalSupply() */\n      tag_201\n        /* \"@openzeppelin/contracts/token/ERC20/ERC20.sol\":2881:2893  _totalSupply */\n      sload(0x02)\n      swap1\n        /* \"@openzeppelin/contracts/token/ERC20/ERC20.sol\":2803:2900  function totalSupply() public view virtual returns (uint256) {... */\n      jump\n        /* \"/contracts/TIMBSToken.sol\":10081:10094  totalSupply() */\n    tag_201:\n        /* \"/contracts/TIMBSToken.sol\":10070:10094  HARD_CAP - totalSupply() */\n      tag_202\n      swap1\n        /* \"/contracts/TIMBSToken.sol\":1834:1852  100_000_000 * 1e18 */\n      0x52b7d2dcc80cd2e4000000\n        /* \"/contracts/TIMBSToken.sol\":10070:10094  HARD_CAP - totalSupply() */\n      tag_203\n      jump\t// in\n    tag_202:\n        /* \"/contracts/TIMBSToken.sol\":10050:10094  uint256 available = HARD_CAP - totalSupply() */\n      swap1\n      pop\n        /* \"/contracts/TIMBSToken.sol\":10117:10126  available */\n      dup1\n        /* \"/contracts/TIMBSToken.sol\":10108:10114  amount */\n      dup3\n        /* \"/contracts/TIMBSToken.sol\":10108:10126  amount > available */\n      gt\n        /* \"/contracts/TIMBSToken.sol\":10104:10168  if (amount > available) revert ExceedsHardCap(amount, available) */\n      iszero\n      tag_204\n      jumpi\n        /* \"/contracts/TIMBSToken.sol\":10135:10168  ExceedsHardCap(amount, available) */\n      mload(0x40)\n      shl(0xe1, 0x3999a0b7)\n      dup2\n      mstore\n      0x04\n      dup2\n      add\n        /* \"#utility.yul\":3660:3685   */\n      dup4\n      swap1\n      mstore\n        /* \"#utility.yul\":3701:3719   */\n      0x24\n      dup2\n      add\n        /* \"#utility.yul\":3694:3728   */\n      dup3\n      swap1\n      mstore\n        /* \"#utility.yul\":3633:3651   */\n      0x44\n      add\n        /* \"/contracts/TIMBSToken.sol\":10135:10168  ExceedsHardCap(amount, available) */\n    tag_205:\n      mload(0x40)\n      dup1\n      swap2\n      sub\n      swap1\n      revert\n        /* \"/contracts/TIMBSToken.sol\":10104:10168  if (amount > available) revert ExceedsHardCap(amount, available) */\n    tag_204:\n        /* \"/contracts/TIMBSToken.sol\":10179:10203  _mint(recipient, amount) */\n      tag_206\n        /* \"/contracts/TIMBSToken.sol\":10185:10194  recipient */\n      dup4\n        /* \"/contracts/TIMBSToken.sol\":10196:10202  amount */\n      dup4\n        /* \"/contracts/TIMBSToken.sol\":10179:10184  _mint */\n      tag_207\n        /* \"/contracts/TIMBSToken.sol\":10179:10203  _mint(recipient, amount) */\n      jump\t// in\n    tag_206:\n        /* \"/contracts/TIMBSToken.sol\":10234:10243  recipient */\n      dup3\n      sub(shl(0xa0, 0x01), 0x01)\n        /* \"/contracts/TIMBSToken.sol\":10218:10252  EmissionsMinted(recipient, amount) */\n      and\n      0x64e4bb1bd66f16486c6ff3bf1e7ee4919e2e2dc7b134e2ed9fbd814a9949fe6b\n        /* \"/contracts/TIMBSToken.sol\":10245:10251  amount */\n      dup4\n        /* \"/contracts/TIMBSToken.sol\":10218:10252  EmissionsMinted(recipient, amount) */\n      mload(0x40)\n      tag_208\n      swap2\n        /* \"#utility.yul\":1550:1575   */\n      dup2\n      mstore\n        /* \"#utility.yul\":1538:1540   */\n      0x20\n        /* \"#utility.yul\":1523:1541   */\n      add\n      swap1\n        /* \"#utility.yul\":1404:1581   */\n      jump\n        /* \"/contracts/TIMBSToken.sol\":10218:10252  EmissionsMinted(recipient, amount) */\n    tag_208:\n      mload(0x40)\n      dup1\n      swap2\n      sub\n      swap1\n      log2\n        /* \"/contracts/TIMBSToken.sol\":9934:10259  {... */\n      pop\n        /* \"@openzeppelin/contracts/utils/ReentrancyGuard.sol\":3065:3085  _nonReentrantAfter() */\n      tag_209\n        /* \"@openzeppelin/contracts/utils/ReentrancyGuard.sol\":2365:2366  1 */\n      0x01\n        /* \"@openzeppelin/contracts/utils/ReentrancyGuard.sol\":1505:1571  0x9b779b17422d0df92223018b32b4d1fa46e071723d6817e2486d003becc55f00 */\n      0x9b779b17422d0df92223018b32b4d1fa46e071723d6817e2486d003becc55f00\n        /* \"@openzeppelin/contracts/utils/ReentrancyGuard.sol\":3972:4034  _reentrancyGuardStorageSlot().getUint256Slot().value = ENTERED */\n      sstore\n        /* \"@openzeppelin/contracts/utils/ReentrancyGuard.sol\":3749:4041  function _nonReentrantBefore() private {... */\n      jump\n        /* \"@openzeppelin/contracts/utils/ReentrancyGuard.sol\":3065:3085  _nonReentrantAfter() */\n    tag_209:\n        /* \"/contracts/TIMBSToken.sol\":9815:10259  function mintEmissions(address recipient, uint256 amount)... */\n      pop\n      pop\n      jump\t// out\n        /* \"/contracts/TIMBSToken.sol\":6732:7121  function setStakingPool(address _stakingPool) external onlyOwner {... */\n    tag_78:\n        /* \"@openzeppelin/contracts/access/Ownable.sol\":1531:1544  _checkOwner() */\n      tag_212\n        /* \"@openzeppelin/contracts/access/Ownable.sol\":1531:1542  _checkOwner */\n      tag_179\n        /* \"@openzeppelin/contracts/access/Ownable.sol\":1531:1544  _checkOwner() */\n      jump\t// in\n    tag_212:\n      sub(shl(0xa0, 0x01), 0x01)\n        /* \"/contracts/TIMBSToken.sol\":6811:6837  _stakingPool == address(0) */\n      dup2\n      and\n        /* \"/contracts/TIMBSToken.sol\":6807:6859  if (_stakingPool == address(0)) revert ZeroAddress() */\n      tag_214\n      jumpi\n        /* \"/contracts/TIMBSToken.sol\":6846:6859  ZeroAddress() */\n      mload(0x40)\n      shl(0xe0, 0xd92e233d)\n      dup2\n      mstore\n      0x04\n      add\n      mload(0x40)\n      dup1\n      swap2\n      sub\n      swap1\n      revert\n        /* \"/contracts/TIMBSToken.sol\":6807:6859  if (_stakingPool == address(0)) revert ZeroAddress() */\n    tag_214:\n        /* \"/contracts/TIMBSToken.sol\":6922:6933  stakingPool */\n      and(sub(shl(0xa0, 0x01), 0x01), sload(0x07))\n        /* \"/contracts/TIMBSToken.sol\":6922:6947  stakingPool != address(0) */\n      iszero\n        /* \"/contracts/TIMBSToken.sol\":6918:6987  if (stakingPool != address(0)) transferWhitelist[stakingPool] = false */\n      tag_215\n      jumpi\n        /* \"/contracts/TIMBSToken.sol\":6967:6978  stakingPool */\n      and(sub(shl(0xa0, 0x01), 0x01), sload(0x07))\n        /* \"/contracts/TIMBSToken.sol\":6982:6987  false */\n      0x00\n        /* \"/contracts/TIMBSToken.sol\":6949:6979  transferWhitelist[stakingPool] */\n      swap1\n      dup2\n      mstore\n        /* \"/contracts/TIMBSToken.sol\":6949:6966  transferWhitelist */\n      0x0c\n        /* \"/contracts/TIMBSToken.sol\":6949:6979  transferWhitelist[stakingPool] */\n      0x20\n      mstore\n      0x40\n      swap1\n      keccak256\n        /* \"/contracts/TIMBSToken.sol\":6949:6987  transferWhitelist[stakingPool] = false */\n      dup1\n      sload\n      not(0xff)\n      and\n      swap1\n      sstore\n        /* \"/contracts/TIMBSToken.sol\":6918:6987  if (stakingPool != address(0)) transferWhitelist[stakingPool] = false */\n    tag_215:\n        /* \"/contracts/TIMBSToken.sol\":6997:7008  stakingPool */\n      0x07\n        /* \"/contracts/TIMBSToken.sol\":6997:7023  stakingPool = _stakingPool */\n      dup1\n      sload\n      not(sub(shl(0xa0, 0x01), 0x01))\n      and\n      sub(shl(0xa0, 0x01), 0x01)\n      dup4\n      and\n      swap1\n      dup2\n      or\n      swap1\n      swap2\n      sstore\n      0x00\n        /* \"/contracts/TIMBSToken.sol\":7033:7064  transferWhitelist[_stakingPool] */\n      dup2\n      dup2\n      mstore\n        /* \"/contracts/TIMBSToken.sol\":7033:7050  transferWhitelist */\n      0x0c\n        /* \"/contracts/TIMBSToken.sol\":7033:7064  transferWhitelist[_stakingPool] */\n      0x20\n      mstore\n      0x40\n      dup1\n      dup3\n      keccak256\n        /* \"/contracts/TIMBSToken.sol\":7033:7071  transferWhitelist[_stakingPool] = true */\n      dup1\n      sload\n      not(0xff)\n      and\n      0x01\n      or\n      swap1\n      sstore\n        /* \"/contracts/TIMBSToken.sol\":7086:7114  StakingPoolSet(_stakingPool) */\n      mload\n      0x6fca2e06bb34845f84427e65445730e7e00faf72ad37f6485b24de98f103bb06\n      swap2\n      swap1\n      log2\n        /* \"/contracts/TIMBSToken.sol\":6732:7121  function setStakingPool(address _stakingPool) external onlyOwner {... */\n      pop\n      jump\t// out\n        /* \"/contracts/TIMBSToken.sol\":9203:9307  function unpause() external onlyOwner {... */\n    tag_87:\n        /* \"@openzeppelin/contracts/access/Ownable.sol\":1531:1544  _checkOwner() */\n      tag_218\n        /* \"@openzeppelin/contracts/access/Ownable.sol\":1531:1542  _checkOwner */\n      tag_179\n        /* \"@openzeppelin/contracts/access/Ownable.sol\":1531:1544  _checkOwner() */\n      jump\t// in\n    tag_218:\n        /* \"/contracts/TIMBSToken.sol\":9251:9257  paused */\n      0x0d\n        /* \"/contracts/TIMBSToken.sol\":9251:9265  paused = false */\n      dup1\n      sload\n      not(0xff)\n      and\n      swap1\n      sstore\n        /* \"/contracts/TIMBSToken.sol\":9280:9300  Unpaused(msg.sender) */\n      mload(0x40)\n        /* \"/contracts/TIMBSToken.sol\":9289:9299  msg.sender */\n      caller\n      swap1\n        /* \"/contracts/TIMBSToken.sol\":9280:9300  Unpaused(msg.sender) */\n      0x5db9ee0a495bf2e6ff9c91a7834c1ba4fdd244a5e8aa4e537bd38aeae4b073aa\n      swap1\n        /* \"/contracts/TIMBSToken.sol\":9260:9265  false */\n      0x00\n      swap1\n        /* \"/contracts/TIMBSToken.sol\":9280:9300  Unpaused(msg.sender) */\n      log2\n        /* \"/contracts/TIMBSToken.sol\":9203:9307  function unpause() external onlyOwner {... */\n      jump\t// out\n        /* \"@openzeppelin/contracts/token/ERC20/extensions/ERC20Burnable.sol\":618:705  function burn(uint256 value) public virtual {... */\n    tag_93:\n        /* \"@openzeppelin/contracts/token/ERC20/extensions/ERC20Burnable.sol\":672:698  _burn(_msgSender(), value) */\n      tag_221\n        /* \"@openzeppelin/contracts/utils/Context.sol\":735:745  msg.sender */\n      caller\n        /* \"@openzeppelin/contracts/token/ERC20/extensions/ERC20Burnable.sol\":692:697  value */\n      dup3\n        /* \"@openzeppelin/contracts/token/ERC20/extensions/ERC20Burnable.sol\":672:677  _burn */\n      tag_223\n        /* \"@openzeppelin/contracts/token/ERC20/extensions/ERC20Burnable.sol\":672:698  _burn(_msgSender(), value) */\n      jump\t// in\n    tag_221:\n        /* \"@openzeppelin/contracts/token/ERC20/extensions/ERC20Burnable.sol\":618:705  function burn(uint256 value) public virtual {... */\n      pop\n      jump\t// out\n        /* \"@openzeppelin/contracts/access/Ownable.sol\":2293:2394  function renounceOwnership() public virtual onlyOwner {... */\n    tag_108:\n        /* \"@openzeppelin/contracts/access/Ownable.sol\":1531:1544  _checkOwner() */\n      tag_226\n        /* \"@openzeppelin/contracts/access/Ownable.sol\":1531:1542  _checkOwner */\n      tag_179\n        /* \"@openzeppelin/contracts/access/Ownable.sol\":1531:1544  _checkOwner() */\n      jump\t// in\n    tag_226:\n        /* \"@openzeppelin/contracts/access/Ownable.sol\":2357:2387  _transferOwnership(address(0)) */\n      tag_228\n        /* \"@openzeppelin/contracts/access/Ownable.sol\":2384:2385  0 */\n      0x00\n        /* \"@openzeppelin/contracts/access/Ownable.sol\":2357:2375  _transferOwnership */\n      tag_229\n        /* \"@openzeppelin/contracts/access/Ownable.sol\":2357:2387  _transferOwnership(address(0)) */\n      jump\t// in\n    tag_228:\n        /* \"@openzeppelin/contracts/access/Ownable.sol\":2293:2394  function renounceOwnership() public virtual onlyOwner {... */\n      jump\t// out\n        /* \"@openzeppelin/contracts/token/ERC20/extensions/ERC20Burnable.sol\":1021:1179  function burnFrom(address account, uint256 value) public virtual {... */\n    tag_111:\n        /* \"@openzeppelin/contracts/token/ERC20/extensions/ERC20Burnable.sol\":1096:1141  _spendAllowance(account, _msgSender(), value) */\n      tag_231\n        /* \"@openzeppelin/contracts/token/ERC20/extensions/ERC20Burnable.sol\":1112:1119  account */\n      dup3\n        /* \"@openzeppelin/contracts/utils/Context.sol\":735:745  msg.sender */\n      caller\n        /* \"@openzeppelin/contracts/token/ERC20/extensions/ERC20Burnable.sol\":1135:1140  value */\n      dup4\n        /* \"@openzeppelin/contracts/token/ERC20/extensions/ERC20Burnable.sol\":1096:1111  _spendAllowance */\n      tag_187\n        /* \"@openzeppelin/contracts/token/ERC20/extensions/ERC20Burnable.sol\":1096:1141  _spendAllowance(account, _msgSender(), value) */\n      jump\t// in\n    tag_231:\n        /* \"@openzeppelin/contracts/token/ERC20/extensions/ERC20Burnable.sol\":1151:1172  _burn(account, value) */\n      tag_209\n        /* \"@openzeppelin/contracts/token/ERC20/extensions/ERC20Burnable.sol\":1157:1164  account */\n      dup3\n        /* \"@openzeppelin/contracts/token/ERC20/extensions/ERC20Burnable.sol\":1166:1171  value */\n      dup3\n        /* \"@openzeppelin/contracts/token/ERC20/extensions/ERC20Burnable.sol\":1151:1156  _burn */\n      tag_223\n        /* \"@openzeppelin/contracts/token/ERC20/extensions/ERC20Burnable.sol\":1151:1172  _burn(account, value) */\n      jump\t// in\n        /* \"/contracts/TIMBSToken.sol\":7228:7538  function setFarmPool(address _farmPool) external onlyOwner {... */\n    tag_114:\n        /* \"@openzeppelin/contracts/access/Ownable.sol\":1531:1544  _checkOwner() */\n      tag_235\n        /* \"@openzeppelin/contracts/access/Ownable.sol\":1531:1542  _checkOwner */\n      tag_179\n        /* \"@openzeppelin/contracts/access/Ownable.sol\":1531:1544  _checkOwner() */\n      jump\t// in\n    tag_235:\n      sub(shl(0xa0, 0x01), 0x01)\n        /* \"/contracts/TIMBSToken.sol\":7301:7324  _farmPool == address(0) */\n      dup2\n      and\n        /* \"/contracts/TIMBSToken.sol\":7297:7346  if (_farmPool == address(0)) revert ZeroAddress() */\n      tag_237\n      jumpi\n        /* \"/contracts/TIMBSToken.sol\":7333:7346  ZeroAddress() */\n      mload(0x40)\n      shl(0xe0, 0xd92e233d)\n      dup2\n      mstore\n      0x04\n      add\n      mload(0x40)\n      dup1\n      swap2\n      sub\n      swap1\n      revert\n        /* \"/contracts/TIMBSToken.sol\":7297:7346  if (_farmPool == address(0)) revert ZeroAddress() */\n    tag_237:\n        /* \"/contracts/TIMBSToken.sol\":7360:7368  farmPool */\n      and(sub(shl(0xa0, 0x01), 0x01), sload(0x08))\n        /* \"/contracts/TIMBSToken.sol\":7360:7382  farmPool != address(0) */\n      iszero\n        /* \"/contracts/TIMBSToken.sol\":7356:7419  if (farmPool != address(0)) transferWhitelist[farmPool] = false */\n      tag_238\n      jumpi\n        /* \"/contracts/TIMBSToken.sol\":7402:7410  farmPool */\n      and(sub(shl(0xa0, 0x01), 0x01), sload(0x08))\n        /* \"/contracts/TIMBSToken.sol\":7414:7419  false */\n      0x00\n        /* \"/contracts/TIMBSToken.sol\":7384:7411  transferWhitelist[farmPool] */\n      swap1\n      dup2\n      mstore\n        /* \"/contracts/TIMBSToken.sol\":7384:7401  transferWhitelist */\n      0x0c\n        /* \"/contracts/TIMBSToken.sol\":7384:7411  transferWhitelist[farmPool] */\n      0x20\n      mstore\n      0x40\n      swap1\n      keccak256\n        /* \"/contracts/TIMBSToken.sol\":7384:7419  transferWhitelist[farmPool] = false */\n      dup1\n      sload\n      not(0xff)\n      and\n      swap1\n      sstore\n        /* \"/contracts/TIMBSToken.sol\":7356:7419  if (farmPool != address(0)) transferWhitelist[farmPool] = false */\n    tag_238:\n        /* \"/contracts/TIMBSToken.sol\":7429:7437  farmPool */\n      0x08\n        /* \"/contracts/TIMBSToken.sol\":7429:7449  farmPool = _farmPool */\n      dup1\n      sload\n      not(sub(shl(0xa0, 0x01), 0x01))\n      and\n      sub(shl(0xa0, 0x01), 0x01)\n      dup4\n      and\n      swap1\n      dup2\n      or\n      swap1\n      swap2\n      sstore\n      0x00\n        /* \"/contracts/TIMBSToken.sol\":7459:7487  transferWhitelist[_farmPool] */\n      dup2\n      dup2\n      mstore\n        /* \"/contracts/TIMBSToken.sol\":7459:7476  transferWhitelist */\n      0x0c\n        /* \"/contracts/TIMBSToken.sol\":7459:7487  transferWhitelist[_farmPool] */\n      0x20\n      mstore\n      0x40\n      dup1\n      dup3\n      keccak256\n        /* \"/contracts/TIMBSToken.sol\":7459:7494  transferWhitelist[_farmPool] = true */\n      dup1\n      sload\n      not(0xff)\n      and\n      0x01\n      or\n      swap1\n      sstore\n        /* \"/contracts/TIMBSToken.sol\":7509:7531  FarmPoolSet(_farmPool) */\n      mload\n      0x0984594d51cb2b9061c64322cc955dc1cf1e8bf0f73512ba8221e4db196be16a\n      swap2\n      swap1\n      log2\n        /* \"/contracts/TIMBSToken.sol\":7228:7538  function setFarmPool(address _farmPool) external onlyOwner {... */\n      pop\n      jump\t// out\n        /* \"/contracts/TIMBSToken.sol\":9042:9141  function pause() external onlyOwner {... */\n    tag_123:\n        /* \"@openzeppelin/contracts/access/Ownable.sol\":1531:1544  _checkOwner() */\n      tag_241\n        /* \"@openzeppelin/contracts/access/Ownable.sol\":1531:1542  _checkOwner */\n      tag_179\n        /* \"@openzeppelin/contracts/access/Ownable.sol\":1531:1544  _checkOwner() */\n      jump\t// in\n    tag_241:\n        /* \"/contracts/TIMBSToken.sol\":9088:9094  paused */\n      0x0d\n        /* \"/contracts/TIMBSToken.sol\":9088:9101  paused = true */\n      dup1\n      sload\n      not(0xff)\n      and\n        /* \"/contracts/TIMBSToken.sol\":9097:9101  true */\n      0x01\n        /* \"/contracts/TIMBSToken.sol\":9088:9101  paused = true */\n      or\n      swap1\n      sstore\n        /* \"/contracts/TIMBSToken.sol\":9116:9134  Paused(msg.sender) */\n      mload(0x40)\n        /* \"/contracts/TIMBSToken.sol\":9123:9133  msg.sender */\n      caller\n      swap1\n        /* \"/contracts/TIMBSToken.sol\":9116:9134  Paused(msg.sender) */\n      0x62e78cea01bee320cd4e420270b5ea74000d11b0c9f74754ebdbfc544b05a258\n      swap1\n        /* \"/contracts/TIMBSToken.sol\":9088:9094  paused */\n      0x00\n      swap1\n        /* \"/contracts/TIMBSToken.sol\":9116:9134  Paused(msg.sender) */\n      log2\n        /* \"/contracts/TIMBSToken.sol\":9042:9141  function pause() external onlyOwner {... */\n      jump\t// out\n        /* \"/contracts/TIMBSToken.sol\":8471:8616  function setMaxTransferAmount(uint256 _max) external onlyOwner {... */\n    tag_126:\n        /* \"@openzeppelin/contracts/access/Ownable.sol\":1531:1544  _checkOwner() */\n      tag_244\n        /* \"@openzeppelin/contracts/access/Ownable.sol\":1531:1542  _checkOwner */\n      tag_179\n        /* \"@openzeppelin/contracts/access/Ownable.sol\":1531:1544  _checkOwner() */\n      jump\t// in\n    tag_244:\n        /* \"/contracts/TIMBSToken.sol\":8544:8561  maxTransferAmount */\n      0x0b\n        /* \"/contracts/TIMBSToken.sol\":8544:8568  maxTransferAmount = _max */\n      dup2\n      swap1\n      sstore\n        /* \"/contracts/TIMBSToken.sol\":8583:8609  MaxTransferAmountSet(_max) */\n      mload(0x40)\n        /* \"#utility.yul\":1550:1575   */\n      dup2\n      dup2\n      mstore\n        /* \"/contracts/TIMBSToken.sol\":8583:8609  MaxTransferAmountSet(_max) */\n      0xd82d7466dbfb0b68291841d1adf74df365a848cd534d11e8c6b238ec9fb5ebe6\n      swap1\n        /* \"#utility.yul\":1538:1540   */\n      0x20\n        /* \"#utility.yul\":1523:1541   */\n      add\n        /* \"/contracts/TIMBSToken.sol\":8583:8609  MaxTransferAmountSet(_max) */\n    tag_246:\n      mload(0x40)\n      dup1\n      swap2\n      sub\n      swap1\n      log1\n        /* \"/contracts/TIMBSToken.sol\":8471:8616  function setMaxTransferAmount(uint256 _max) external onlyOwner {... */\n      pop\n      jump\t// out\n        /* \"@openzeppelin/contracts/token/ERC20/ERC20.sol\":1962:2055  function symbol() public view virtual returns (string memory) {... */\n    tag_131:\n        /* \"@openzeppelin/contracts/token/ERC20/ERC20.sol\":2009:2022  string memory */\n      0x60\n        /* \"@openzeppelin/contracts/token/ERC20/ERC20.sol\":2041:2048  _symbol */\n      0x04\n        /* \"@openzeppelin/contracts/token/ERC20/ERC20.sol\":2034:2048  return _symbol */\n      dup1\n      sload\n      tag_165\n      swap1\n      tag_166\n      jump\t// in\n        /* \"/contracts/TIMBSToken.sol\":7766:7923  function setEmissionRate(uint256 _ratePerDay) external onlyOwner {... */\n    tag_135:\n        /* \"@openzeppelin/contracts/access/Ownable.sol\":1531:1544  _checkOwner() */\n      tag_255\n        /* \"@openzeppelin/contracts/access/Ownable.sol\":1531:1542  _checkOwner */\n      tag_179\n        /* \"@openzeppelin/contracts/access/Ownable.sol\":1531:1544  _checkOwner() */\n      jump\t// in\n    tag_255:\n        /* \"/contracts/TIMBSToken.sol\":7841:7859  emissionRatePerDay */\n      0x09\n        /* \"/contracts/TIMBSToken.sol\":7841:7873  emissionRatePerDay = _ratePerDay */\n      dup2\n      swap1\n      sstore\n        /* \"/contracts/TIMBSToken.sol\":7888:7916  EmissionRateSet(_ratePerDay) */\n      mload(0x40)\n        /* \"#utility.yul\":1550:1575   */\n      dup2\n      dup2\n      mstore\n        /* \"/contracts/TIMBSToken.sol\":7888:7916  EmissionRateSet(_ratePerDay) */\n      0x010a8b7cb1faab491acf8e175333e56c4bf4ad24ae1927dc38925ac085085f71\n      swap1\n        /* \"#utility.yul\":1538:1540   */\n      0x20\n        /* \"#utility.yul\":1523:1541   */\n      add\n        /* \"/contracts/TIMBSToken.sol\":7888:7916  EmissionRateSet(_ratePerDay) */\n      tag_246\n        /* \"#utility.yul\":1404:1581   */\n      jump\n        /* \"@openzeppelin/contracts/token/ERC20/ERC20.sol\":3244:3422  function transfer(address to, uint256 value) public virtual returns (bool) {... */\n    tag_138:\n        /* \"@openzeppelin/contracts/token/ERC20/ERC20.sol\":3313:3317  bool */\n      0x00\n        /* \"@openzeppelin/contracts/utils/Context.sol\":735:745  msg.sender */\n      caller\n        /* \"@openzeppelin/contracts/token/ERC20/ERC20.sol\":3367:3394  _transfer(owner, to, value) */\n      tag_174\n        /* \"@openzeppelin/contracts/utils/Context.sol\":735:745  msg.sender */\n      dup2\n        /* \"@openzeppelin/contracts/token/ERC20/ERC20.sol\":3384:3386  to */\n      dup6\n        /* \"@openzeppelin/contracts/token/ERC20/ERC20.sol\":3388:3393  value */\n      dup6\n        /* \"@openzeppelin/contracts/token/ERC20/ERC20.sol\":3367:3376  _transfer */\n      tag_189\n        /* \"@openzeppelin/contracts/token/ERC20/ERC20.sol\":3367:3394  _transfer(owner, to, value) */\n      jump\t// in\n        /* \"/contracts/TIMBSToken.sol\":10557:10675  function remainingEmissionsCapacity() external view returns (uint256) {... */\n    tag_144:\n        /* \"/contracts/TIMBSToken.sol\":10618:10625  uint256 */\n      0x00\n        /* \"/contracts/TIMBSToken.sol\":10655:10668  totalSupply() */\n      tag_262\n        /* \"@openzeppelin/contracts/token/ERC20/ERC20.sol\":2881:2893  _totalSupply */\n      sload(0x02)\n      swap1\n        /* \"@openzeppelin/contracts/token/ERC20/ERC20.sol\":2803:2900  function totalSupply() public view virtual returns (uint256) {... */\n      jump\n        /* \"/contracts/TIMBSToken.sol\":10655:10668  totalSupply() */\n    tag_262:\n        /* \"/contracts/TIMBSToken.sol\":10644:10668  HARD_CAP - totalSupply() */\n      tag_263\n      swap1\n        /* \"/contracts/TIMBSToken.sol\":1834:1852  100_000_000 * 1e18 */\n      0x52b7d2dcc80cd2e4000000\n        /* \"/contracts/TIMBSToken.sol\":10644:10668  HARD_CAP - totalSupply() */\n      tag_203\n      jump\t// in\n    tag_263:\n        /* \"/contracts/TIMBSToken.sol\":10637:10668  return HARD_CAP - totalSupply() */\n      swap1\n      pop\n        /* \"/contracts/TIMBSToken.sol\":10557:10675  function remainingEmissionsCapacity() external view returns (uint256) {... */\n      swap1\n      jump\t// out\n        /* \"/contracts/TIMBSToken.sol\":8707:8958  function setTransferWhitelist(address _account, bool _exempt) external onlyOwner {... */\n    tag_157:\n        /* \"@openzeppelin/contracts/access/Ownable.sol\":1531:1544  _checkOwner() */\n      tag_266\n        /* \"@openzeppelin/contracts/access/Ownable.sol\":1531:1542  _checkOwner */\n      tag_179\n        /* \"@openzeppelin/contracts/access/Ownable.sol\":1531:1544  _checkOwner() */\n      jump\t// in\n    tag_266:\n      sub(shl(0xa0, 0x01), 0x01)\n        /* \"/contracts/TIMBSToken.sol\":8802:8824  _account == address(0) */\n      dup3\n      and\n        /* \"/contracts/TIMBSToken.sol\":8798:8846  if (_account == address(0)) revert ZeroAddress() */\n      tag_268\n      jumpi\n        /* \"/contracts/TIMBSToken.sol\":8833:8846  ZeroAddress() */\n      mload(0x40)\n      shl(0xe0, 0xd92e233d)\n      dup2\n      mstore\n      0x04\n      add\n      mload(0x40)\n      dup1\n      swap2\n      sub\n      swap1\n      revert\n        /* \"/contracts/TIMBSToken.sol\":8798:8846  if (_account == address(0)) revert ZeroAddress() */\n    tag_268:\n      sub(shl(0xa0, 0x01), 0x01)\n        /* \"/contracts/TIMBSToken.sol\":8856:8883  transferWhitelist[_account] */\n      dup3\n      and\n      0x00\n      dup2\n      dup2\n      mstore\n        /* \"/contracts/TIMBSToken.sol\":8856:8873  transferWhitelist */\n      0x0c\n        /* \"/contracts/TIMBSToken.sol\":8856:8883  transferWhitelist[_account] */\n      0x20\n      swap1\n      dup2\n      mstore\n      0x40\n      swap2\n      dup3\n      swap1\n      keccak256\n        /* \"/contracts/TIMBSToken.sol\":8856:8893  transferWhitelist[_account] = _exempt */\n      dup1\n      sload\n      not(0xff)\n      and\n      dup6\n      iszero\n      iszero\n      swap1\n      dup2\n      or\n      swap1\n      swap2\n      sstore\n        /* \"/contracts/TIMBSToken.sol\":8908:8951  TransferWhitelistUpdated(_account, _exempt) */\n      swap2\n      mload\n        /* \"#utility.yul\":1144:1185   */\n      swap2\n      dup3\n      mstore\n        /* \"/contracts/TIMBSToken.sol\":8908:8951  TransferWhitelistUpdated(_account, _exempt) */\n      0xe3b4918d2544570f4fd920ce69294772100c0d60360c88d94c56fadbbef76cb1\n      swap2\n        /* \"#utility.yul\":1117:1135   */\n      add\n        /* \"/contracts/TIMBSToken.sol\":8908:8951  TransferWhitelistUpdated(_account, _exempt) */\n      mload(0x40)\n      dup1\n      swap2\n      sub\n      swap1\n      log2\n        /* \"/contracts/TIMBSToken.sol\":8707:8958  function setTransferWhitelist(address _account, bool _exempt) external onlyOwner {... */\n      pop\n      pop\n      jump\t// out\n        /* \"/contracts/TIMBSToken.sol\":6329:6625  function setTreasury(address _treasury) external onlyOwner {... */\n    tag_160:\n        /* \"@openzeppelin/contracts/access/Ownable.sol\":1531:1544  _checkOwner() */\n      tag_271\n        /* \"@openzeppelin/contracts/access/Ownable.sol\":1531:1542  _checkOwner */\n      tag_179\n        /* \"@openzeppelin/contracts/access/Ownable.sol\":1531:1544  _checkOwner() */\n      jump\t// in\n    tag_271:\n      sub(shl(0xa0, 0x01), 0x01)\n        /* \"/contracts/TIMBSToken.sol\":6402:6425  _treasury == address(0) */\n      dup2\n      and\n        /* \"/contracts/TIMBSToken.sol\":6398:6447  if (_treasury == address(0)) revert ZeroAddress() */\n      tag_273\n      jumpi\n        /* \"/contracts/TIMBSToken.sol\":6434:6447  ZeroAddress() */\n      mload(0x40)\n      shl(0xe0, 0xd92e233d)\n      dup2\n      mstore\n      0x04\n      add\n      mload(0x40)\n      dup1\n      swap2\n      sub\n      swap1\n      revert\n        /* \"/contracts/TIMBSToken.sol\":6398:6447  if (_treasury == address(0)) revert ZeroAddress() */\n    tag_273:\n        /* \"/contracts/TIMBSToken.sol\":6475:6483  treasury */\n      0x06\n      dup1\n      sload\n      sub(shl(0xa0, 0x01), 0x01)\n      swap1\n      dup2\n      and\n        /* \"/contracts/TIMBSToken.sol\":6487:6492  false */\n      0x00\n        /* \"/contracts/TIMBSToken.sol\":6457:6484  transferWhitelist[treasury] */\n      swap1\n      dup2\n      mstore\n        /* \"/contracts/TIMBSToken.sol\":6457:6474  transferWhitelist */\n      0x0c\n        /* \"/contracts/TIMBSToken.sol\":6457:6484  transferWhitelist[treasury] */\n      0x20\n      mstore\n      0x40\n      dup1\n      dup3\n      keccak256\n        /* \"/contracts/TIMBSToken.sol\":6457:6492  transferWhitelist[treasury] = false */\n      dup1\n      sload\n      not(0xff)\n      and\n      swap1\n      sstore\n        /* \"/contracts/TIMBSToken.sol\":6523:6531  treasury */\n      swap3\n      sload\n        /* \"/contracts/TIMBSToken.sol\":6507:6543  TreasuryUpdated(treasury, _treasury) */\n      swap3\n      mload\n      dup5\n      dup4\n      and\n      swap4\n        /* \"/contracts/TIMBSToken.sol\":6523:6531  treasury */\n      swap1\n      swap3\n      and\n      swap2\n        /* \"/contracts/TIMBSToken.sol\":6507:6543  TreasuryUpdated(treasury, _treasury) */\n      0x4ab5be82436d353e61ca18726e984e561f5c1cc7c6d38b29d2553c790434705a\n      swap2\n        /* \"/contracts/TIMBSToken.sol\":6487:6492  false */\n      swap1\n        /* \"/contracts/TIMBSToken.sol\":6507:6543  TreasuryUpdated(treasury, _treasury) */\n      log3\n        /* \"/contracts/TIMBSToken.sol\":6553:6561  treasury */\n      0x06\n        /* \"/contracts/TIMBSToken.sol\":6553:6573  treasury = _treasury */\n      dup1\n      sload\n      sub(shl(0xa0, 0x01), 0x01)\n      swap1\n      swap3\n      and\n      not(sub(shl(0xa0, 0x01), 0x01))\n      swap1\n      swap3\n      and\n      dup3\n      or\n      swap1\n      sstore\n        /* \"/contracts/TIMBSToken.sol\":6553:6561  treasury */\n      0x00\n        /* \"/contracts/TIMBSToken.sol\":6583:6611  transferWhitelist[_treasury] */\n      swap1\n      dup2\n      mstore\n        /* \"/contracts/TIMBSToken.sol\":6583:6600  transferWhitelist */\n      0x0c\n        /* \"/contracts/TIMBSToken.sol\":6583:6611  transferWhitelist[_treasury] */\n      0x20\n      mstore\n      0x40\n      swap1\n      keccak256\n        /* \"/contracts/TIMBSToken.sol\":6583:6618  transferWhitelist[_treasury] = true */\n      dup1\n      sload\n      not(0xff)\n      and\n        /* \"/contracts/TIMBSToken.sol\":6553:6573  treasury = _treasury */\n      0x01\n        /* \"/contracts/TIMBSToken.sol\":6583:6618  transferWhitelist[_treasury] = true */\n      or\n      swap1\n      sstore\n        /* \"/contracts/TIMBSToken.sol\":6329:6625  function setTreasury(address _treasury) external onlyOwner {... */\n      jump\t// out\n        /* \"@openzeppelin/contracts/access/Ownable.sol\":2543:2758  function transferOwnership(address newOwner) public virtual onlyOwner {... */\n    tag_163:\n        /* \"@openzeppelin/contracts/access/Ownable.sol\":1531:1544  _checkOwner() */\n      tag_275\n        /* \"@openzeppelin/contracts/access/Ownable.sol\":1531:1542  _checkOwner */\n      tag_179\n        /* \"@openzeppelin/contracts/access/Ownable.sol\":1531:1544  _checkOwner() */\n      jump\t// in\n    tag_275:\n      sub(shl(0xa0, 0x01), 0x01)\n        /* \"@openzeppelin/contracts/access/Ownable.sol\":2627:2649  newOwner == address(0) */\n      dup2\n      and\n        /* \"@openzeppelin/contracts/access/Ownable.sol\":2623:2714  if (newOwner == address(0)) {... */\n      tag_277\n      jumpi\n        /* \"@openzeppelin/contracts/access/Ownable.sol\":2672:2703  OwnableInvalidOwner(address(0)) */\n      mload(0x40)\n      shl(0xe0, 0x1e4fbdf7)\n      dup2\n      mstore\n        /* \"@openzeppelin/contracts/access/Ownable.sol\":2700:2701  0 */\n      0x00\n        /* \"@openzeppelin/contracts/access/Ownable.sol\":2672:2703  OwnableInvalidOwner(address(0)) */\n      0x04\n      dup3\n      add\n        /* \"#utility.yul\":1342:1393   */\n      mstore\n        /* \"#utility.yul\":1315:1333   */\n      0x24\n      add\n        /* \"@openzeppelin/contracts/access/Ownable.sol\":2672:2703  OwnableInvalidOwner(address(0)) */\n      tag_205\n        /* \"#utility.yul\":1196:1399   */\n      jump\n        /* \"@openzeppelin/contracts/access/Ownable.sol\":2623:2714  if (newOwner == address(0)) {... */\n    tag_277:\n        /* \"@openzeppelin/contracts/access/Ownable.sol\":2723:2751  _transferOwnership(newOwner) */\n      tag_221\n        /* \"@openzeppelin/contracts/access/Ownable.sol\":2742:2750  newOwner */\n      dup2\n        /* \"@openzeppelin/contracts/access/Ownable.sol\":2723:2741  _transferOwnership */\n      tag_229\n        /* \"@openzeppelin/contracts/access/Ownable.sol\":2723:2751  _transferOwnership(newOwner) */\n      jump\t// in\n        /* \"@openzeppelin/contracts/token/ERC20/ERC20.sol\":8630:8758  function _approve(address owner, address spender, uint256 value) internal {... */\n    tag_175:\n        /* \"@openzeppelin/contracts/token/ERC20/ERC20.sol\":8714:8751  _approve(owner, spender, value, true) */\n      tag_282\n        /* \"@openzeppelin/contracts/token/ERC20/ERC20.sol\":8723:8728  owner */\n      dup4\n        /* \"@openzeppelin/contracts/token/ERC20/ERC20.sol\":8730:8737  spender */\n      dup4\n        /* \"@openzeppelin/contracts/token/ERC20/ERC20.sol\":8739:8744  value */\n      dup4\n        /* \"@openzeppelin/contracts/token/ERC20/ERC20.sol\":8746:8750  true */\n      0x01\n        /* \"@openzeppelin/contracts/token/ERC20/ERC20.sol\":8714:8722  _approve */\n      tag_283\n        /* \"@openzeppelin/contracts/token/ERC20/ERC20.sol\":8714:8751  _approve(owner, spender, value, true) */\n      jump\t// in\n    tag_282:\n        /* \"@openzeppelin/contracts/token/ERC20/ERC20.sol\":8630:8758  function _approve(address owner, address spender, uint256 value) internal {... */\n      pop\n      pop\n      pop\n      jump\t// out\n        /* \"@openzeppelin/contracts/access/Ownable.sol\":1796:1958  function _checkOwner() internal view virtual {... */\n    tag_179:\n        /* \"@openzeppelin/contracts/access/Ownable.sol\":1710:1716  _owner */\n      and(sub(shl(0xa0, 0x01), 0x01), sload(0x05))\n        /* \"@openzeppelin/contracts/utils/Context.sol\":735:745  msg.sender */\n      caller\n        /* \"@openzeppelin/contracts/access/Ownable.sol\":1855:1878  owner() != _msgSender() */\n      eq\n        /* \"@openzeppelin/contracts/access/Ownable.sol\":1851:1952  if (owner() != _msgSender()) {... */\n      tag_228\n      jumpi\n        /* \"@openzeppelin/contracts/access/Ownable.sol\":1901:1941  OwnableUnauthorizedAccount(_msgSender()) */\n      mload(0x40)\n      shl(0xe0, 0x118cdaa7)\n      dup2\n      mstore\n        /* \"@openzeppelin/contracts/utils/Context.sol\":735:745  msg.sender */\n      caller\n        /* \"@openzeppelin/contracts/access/Ownable.sol\":1901:1941  OwnableUnauthorizedAccount(_msgSender()) */\n      0x04\n      dup3\n      add\n        /* \"#utility.yul\":1342:1393   */\n      mstore\n        /* \"#utility.yul\":1315:1333   */\n      0x24\n      add\n        /* \"@openzeppelin/contracts/access/Ownable.sol\":1901:1941  OwnableUnauthorizedAccount(_msgSender()) */\n      tag_205\n        /* \"#utility.yul\":1196:1399   */\n      jump\n        /* \"@openzeppelin/contracts/token/ERC20/ERC20.sol\":10321:10797  function _spendAllowance(address owner, address spender, uint256 value) internal virtual {... */\n    tag_187:\n      sub(shl(0xa0, 0x01), 0x01)\n        /* \"@openzeppelin/contracts/token/ERC20/ERC20.sol\":3561:3579  _allowances[owner] */\n      dup4\n      dup2\n      and\n        /* \"@openzeppelin/contracts/token/ERC20/ERC20.sol\":10420:10444  uint256 currentAllowance */\n      0x00\n        /* \"@openzeppelin/contracts/token/ERC20/ERC20.sol\":3561:3579  _allowances[owner] */\n      swap1\n      dup2\n      mstore\n        /* \"@openzeppelin/contracts/token/ERC20/ERC20.sol\":3561:3572  _allowances */\n      0x01\n        /* \"@openzeppelin/contracts/token/ERC20/ERC20.sol\":3561:3579  _allowances[owner] */\n      0x20\n      swap1\n      dup2\n      mstore\n      0x40\n      dup1\n      dup4\n      keccak256\n        /* \"@openzeppelin/contracts/token/ERC20/ERC20.sol\":3561:3588  _allowances[owner][spender] */\n      swap4\n      dup7\n      and\n      dup4\n      mstore\n      swap3\n      swap1\n      mstore\n      keccak256\n      sload\n      not(0x00)\n        /* \"@openzeppelin/contracts/token/ERC20/ERC20.sol\":10486:10522  currentAllowance < type(uint256).max */\n      dup2\n      lt\n        /* \"@openzeppelin/contracts/token/ERC20/ERC20.sol\":10482:10791  if (currentAllowance < type(uint256).max) {... */\n      iszero\n      tag_296\n      jumpi\n        /* \"@openzeppelin/contracts/token/ERC20/ERC20.sol\":10561:10566  value */\n      dup2\n        /* \"@openzeppelin/contracts/token/ERC20/ERC20.sol\":10542:10558  currentAllowance */\n      dup2\n        /* \"@openzeppelin/contracts/token/ERC20/ERC20.sol\":10542:10566  currentAllowance < value */\n      lt\n        /* \"@openzeppelin/contracts/token/ERC20/ERC20.sol\":10538:10668  if (currentAllowance < value) {... */\n      iszero\n      tag_293\n      jumpi\n        /* \"@openzeppelin/contracts/token/ERC20/ERC20.sol\":10593:10653  ERC20InsufficientAllowance(spender, currentAllowance, value) */\n      mload(0x40)\n      shl(0xe1, 0x7dc7a0d9)\n      dup2\n      mstore\n      sub(shl(0xa0, 0x01), 0x01)\n        /* \"#utility.yul\":4224:4256   */\n      dup5\n      and\n        /* \"@openzeppelin/contracts/token/ERC20/ERC20.sol\":10593:10653  ERC20InsufficientAllowance(spender, currentAllowance, value) */\n      0x04\n      dup3\n      add\n        /* \"#utility.yul\":4206:4257   */\n      mstore\n        /* \"#utility.yul\":4273:4291   */\n      0x24\n      dup2\n      add\n        /* \"#utility.yul\":4266:4300   */\n      dup3\n      swap1\n      mstore\n        /* \"#utility.yul\":4316:4334   */\n      0x44\n      dup2\n      add\n        /* \"#utility.yul\":4309:4343   */\n      dup4\n      swap1\n      mstore\n        /* \"#utility.yul\":4179:4197   */\n      0x64\n      add\n        /* \"@openzeppelin/contracts/token/ERC20/ERC20.sol\":10593:10653  ERC20InsufficientAllowance(spender, currentAllowance, value) */\n      tag_205\n        /* \"#utility.yul\":4004:4349   */\n      jump\n        /* \"@openzeppelin/contracts/token/ERC20/ERC20.sol\":10538:10668  if (currentAllowance < value) {... */\n    tag_293:\n        /* \"@openzeppelin/contracts/token/ERC20/ERC20.sol\":10709:10766  _approve(owner, spender, currentAllowance - value, false) */\n      tag_296\n        /* \"@openzeppelin/contracts/token/ERC20/ERC20.sol\":10718:10723  owner */\n      dup5\n        /* \"@openzeppelin/contracts/token/ERC20/ERC20.sol\":10725:10732  spender */\n      dup5\n        /* \"@openzeppelin/contracts/token/ERC20/ERC20.sol\":10753:10758  value */\n      dup5\n        /* \"@openzeppelin/contracts/token/ERC20/ERC20.sol\":10734:10750  currentAllowance */\n      dup5\n        /* \"@openzeppelin/contracts/token/ERC20/ERC20.sol\":10734:10758  currentAllowance - value */\n      sub\n        /* \"@openzeppelin/contracts/token/ERC20/ERC20.sol\":10760:10765  false */\n      0x00\n        /* \"@openzeppelin/contracts/token/ERC20/ERC20.sol\":10709:10717  _approve */\n      tag_283\n        /* \"@openzeppelin/contracts/token/ERC20/ERC20.sol\":10709:10766  _approve(owner, spender, currentAllowance - value, false) */\n      jump\t// in\n    tag_296:\n        /* \"@openzeppelin/contracts/token/ERC20/ERC20.sol\":10410:10797  {... */\n      pop\n        /* \"@openzeppelin/contracts/token/ERC20/ERC20.sol\":10321:10797  function _spendAllowance(address owner, address spender, uint256 value) internal virtual {... */\n      pop\n      pop\n      pop\n      jump\t// out\n        /* \"@openzeppelin/contracts/token/ERC20/ERC20.sol\":5297:5597  function _transfer(address from, address to, uint256 value) internal {... */\n    tag_189:\n      sub(shl(0xa0, 0x01), 0x01)\n        /* \"@openzeppelin/contracts/token/ERC20/ERC20.sol\":5380:5398  from == address(0) */\n      dup4\n      and\n        /* \"@openzeppelin/contracts/token/ERC20/ERC20.sol\":5376:5462  if (from == address(0)) {... */\n      tag_298\n      jumpi\n        /* \"@openzeppelin/contracts/token/ERC20/ERC20.sol\":5421:5451  ERC20InvalidSender(address(0)) */\n      mload(0x40)\n      shl(0xe1, 0x4b637e8f)\n      dup2\n      mstore\n        /* \"@openzeppelin/contracts/token/ERC20/ERC20.sol\":5448:5449  0 */\n      0x00\n        /* \"@openzeppelin/contracts/token/ERC20/ERC20.sol\":5421:5451  ERC20InvalidSender(address(0)) */\n      0x04\n      dup3\n      add\n        /* \"#utility.yul\":1342:1393   */\n      mstore\n        /* \"#utility.yul\":1315:1333   */\n      0x24\n      add\n        /* \"@openzeppelin/contracts/token/ERC20/ERC20.sol\":5421:5451  ERC20InvalidSender(address(0)) */\n      tag_205\n        /* \"#utility.yul\":1196:1399   */\n      jump\n        /* \"@openzeppelin/contracts/token/ERC20/ERC20.sol\":5376:5462  if (from == address(0)) {... */\n    tag_298:\n      sub(shl(0xa0, 0x01), 0x01)\n        /* \"@openzeppelin/contracts/token/ERC20/ERC20.sol\":5475:5491  to == address(0) */\n      dup3\n      and\n        /* \"@openzeppelin/contracts/token/ERC20/ERC20.sol\":5471:5557  if (to == address(0)) {... */\n      tag_300\n      jumpi\n        /* \"@openzeppelin/contracts/token/ERC20/ERC20.sol\":5514:5546  ERC20InvalidReceiver(address(0)) */\n      mload(0x40)\n      shl(0xe0, 0xec442f05)\n      dup2\n      mstore\n        /* \"@openzeppelin/contracts/token/ERC20/ERC20.sol\":5543:5544  0 */\n      0x00\n        /* \"@openzeppelin/contracts/token/ERC20/ERC20.sol\":5514:5546  ERC20InvalidReceiver(address(0)) */\n      0x04\n      dup3\n      add\n        /* \"#utility.yul\":1342:1393   */\n      mstore\n        /* \"#utility.yul\":1315:1333   */\n      0x24\n      add\n        /* \"@openzeppelin/contracts/token/ERC20/ERC20.sol\":5514:5546  ERC20InvalidReceiver(address(0)) */\n      tag_205\n        /* \"#utility.yul\":1196:1399   */\n      jump\n        /* \"@openzeppelin/contracts/token/ERC20/ERC20.sol\":5471:5557  if (to == address(0)) {... */\n    tag_300:\n        /* \"@openzeppelin/contracts/token/ERC20/ERC20.sol\":5566:5590  _update(from, to, value) */\n      tag_282\n        /* \"@openzeppelin/contracts/token/ERC20/ERC20.sol\":5574:5578  from */\n      dup4\n        /* \"@openzeppelin/contracts/token/ERC20/ERC20.sol\":5580:5582  to */\n      dup4\n        /* \"@openzeppelin/contracts/token/ERC20/ERC20.sol\":5584:5589  value */\n      dup4\n        /* \"@openzeppelin/contracts/token/ERC20/ERC20.sol\":5566:5573  _update */\n      tag_303\n        /* \"@openzeppelin/contracts/token/ERC20/ERC20.sol\":5566:5590  _update(from, to, value) */\n      jump\t// in\n        /* \"@openzeppelin/contracts/utils/ReentrancyGuard.sol\":3749:4041  function _nonReentrantBefore() private {... */\n    tag_192:\n        /* \"@openzeppelin/contracts/utils/ReentrancyGuard.sol\":3872:3897  _nonReentrantBeforeView() */\n      tag_305\n        /* \"@openzeppelin/contracts/utils/ReentrancyGuard.sol\":3872:3895  _nonReentrantBeforeView */\n      tag_306\n        /* \"@openzeppelin/contracts/utils/ReentrancyGuard.sol\":3872:3897  _nonReentrantBeforeView() */\n      jump\t// in\n    tag_305:\n        /* \"@openzeppelin/contracts/utils/ReentrancyGuard.sol\":2407:2408  2 */\n      0x02\n        /* \"@openzeppelin/contracts/utils/ReentrancyGuard.sol\":1505:1571  0x9b779b17422d0df92223018b32b4d1fa46e071723d6817e2486d003becc55f00 */\n      0x9b779b17422d0df92223018b32b4d1fa46e071723d6817e2486d003becc55f00\n        /* \"@openzeppelin/contracts/utils/ReentrancyGuard.sol\":3972:4034  _reentrancyGuardStorageSlot().getUint256Slot().value = ENTERED */\n      sstore\n        /* \"@openzeppelin/contracts/utils/ReentrancyGuard.sol\":3749:4041  function _nonReentrantBefore() private {... */\n      jump\t// out\n        /* \"@openzeppelin/contracts/token/ERC20/ERC20.sol\":7362:7570  function _mint(address account, uint256 value) internal {... */\n    tag_207:\n      sub(shl(0xa0, 0x01), 0x01)\n        /* \"@openzeppelin/contracts/token/ERC20/ERC20.sol\":7432:7453  account == address(0) */\n      dup3\n      and\n        /* \"@openzeppelin/contracts/token/ERC20/ERC20.sol\":7428:7519  if (account == address(0)) {... */\n      tag_312\n      jumpi\n        /* \"@openzeppelin/contracts/token/ERC20/ERC20.sol\":7476:7508  ERC20InvalidReceiver(address(0)) */\n      mload(0x40)\n      shl(0xe0, 0xec442f05)\n      dup2\n      mstore\n        /* \"@openzeppelin/contracts/token/ERC20/ERC20.sol\":7505:7506  0 */\n      0x00\n        /* \"@openzeppelin/contracts/token/ERC20/ERC20.sol\":7476:7508  ERC20InvalidReceiver(address(0)) */\n      0x04\n      dup3\n      add\n        /* \"#utility.yul\":1342:1393   */\n      mstore\n        /* \"#utility.yul\":1315:1333   */\n      0x24\n      add\n        /* \"@openzeppelin/contracts/token/ERC20/ERC20.sol\":7476:7508  ERC20InvalidReceiver(address(0)) */\n      tag_205\n        /* \"#utility.yul\":1196:1399   */\n      jump\n        /* \"@openzeppelin/contracts/token/ERC20/ERC20.sol\":7428:7519  if (account == address(0)) {... */\n    tag_312:\n        /* \"@openzeppelin/contracts/token/ERC20/ERC20.sol\":7528:7563  _update(address(0), account, value) */\n      tag_209\n        /* \"@openzeppelin/contracts/token/ERC20/ERC20.sol\":7544:7545  0 */\n      0x00\n        /* \"@openzeppelin/contracts/token/ERC20/ERC20.sol\":7548:7555  account */\n      dup4\n        /* \"@openzeppelin/contracts/token/ERC20/ERC20.sol\":7557:7562  value */\n      dup4\n        /* \"@openzeppelin/contracts/token/ERC20/ERC20.sol\":7528:7535  _update */\n      tag_303\n        /* \"@openzeppelin/contracts/token/ERC20/ERC20.sol\":7528:7563  _update(address(0), account, value) */\n      jump\t// in\n        /* \"@openzeppelin/contracts/token/ERC20/ERC20.sol\":7888:8094  function _burn(address account, uint256 value) internal {... */\n    tag_223:\n      sub(shl(0xa0, 0x01), 0x01)\n        /* \"@openzeppelin/contracts/token/ERC20/ERC20.sol\":7958:7979  account == address(0) */\n      dup3\n      and\n        /* \"@openzeppelin/contracts/token/ERC20/ERC20.sol\":7954:8043  if (account == address(0)) {... */\n      tag_319\n      jumpi\n        /* \"@openzeppelin/contracts/token/ERC20/ERC20.sol\":8002:8032  ERC20InvalidSender(address(0)) */\n      mload(0x40)\n      shl(0xe1, 0x4b637e8f)\n      dup2\n      mstore\n        /* \"@openzeppelin/contracts/token/ERC20/ERC20.sol\":8029:8030  0 */\n      0x00\n        /* \"@openzeppelin/contracts/token/ERC20/ERC20.sol\":8002:8032  ERC20InvalidSender(address(0)) */\n      0x04\n      dup3\n      add\n        /* \"#utility.yul\":1342:1393   */\n      mstore\n        /* \"#utility.yul\":1315:1333   */\n      0x24\n      add\n        /* \"@openzeppelin/contracts/token/ERC20/ERC20.sol\":8002:8032  ERC20InvalidSender(address(0)) */\n      tag_205\n        /* \"#utility.yul\":1196:1399   */\n      jump\n        /* \"@openzeppelin/contracts/token/ERC20/ERC20.sol\":7954:8043  if (account == address(0)) {... */\n    tag_319:\n        /* \"@openzeppelin/contracts/token/ERC20/ERC20.sol\":8052:8087  _update(account, address(0), value) */\n      tag_209\n        /* \"@openzeppelin/contracts/token/ERC20/ERC20.sol\":8060:8067  account */\n      dup3\n        /* \"@openzeppelin/contracts/token/ERC20/ERC20.sol\":8077:8078  0 */\n      0x00\n        /* \"@openzeppelin/contracts/token/ERC20/ERC20.sol\":8081:8086  value */\n      dup4\n        /* \"@openzeppelin/contracts/token/ERC20/ERC20.sol\":8052:8059  _update */\n      tag_303\n        /* \"@openzeppelin/contracts/token/ERC20/ERC20.sol\":8052:8087  _update(account, address(0), value) */\n      jump\t// in\n        /* \"@openzeppelin/contracts/access/Ownable.sol\":2912:3099  function _transferOwnership(address newOwner) internal virtual {... */\n    tag_229:\n        /* \"@openzeppelin/contracts/access/Ownable.sol\":3004:3010  _owner */\n      0x05\n      dup1\n      sload\n      sub(shl(0xa0, 0x01), 0x01)\n        /* \"@openzeppelin/contracts/access/Ownable.sol\":3020:3037  _owner = newOwner */\n      dup4\n      dup2\n      and\n      not(sub(shl(0xa0, 0x01), 0x01))\n      dup4\n      and\n      dup2\n      or\n      swap1\n      swap4\n      sstore\n        /* \"@openzeppelin/contracts/access/Ownable.sol\":3052:3092  OwnershipTransferred(oldOwner, newOwner) */\n      mload(0x40)\n        /* \"@openzeppelin/contracts/access/Ownable.sol\":3004:3010  _owner */\n      swap2\n      and\n      swap2\n        /* \"@openzeppelin/contracts/access/Ownable.sol\":3020:3037  _owner = newOwner */\n      swap1\n        /* \"@openzeppelin/contracts/access/Ownable.sol\":3004:3010  _owner */\n      dup3\n      swap1\n        /* \"@openzeppelin/contracts/access/Ownable.sol\":3052:3092  OwnershipTransferred(oldOwner, newOwner) */\n      0x8be0079c531659141344cd1fd0a4f28419497f9722a3daafe3b4186f6b6457e0\n      swap1\n        /* \"@openzeppelin/contracts/access/Ownable.sol\":2985:3001  address oldOwner */\n      0x00\n      swap1\n        /* \"@openzeppelin/contracts/access/Ownable.sol\":3052:3092  OwnershipTransferred(oldOwner, newOwner) */\n      log3\n        /* \"@openzeppelin/contracts/access/Ownable.sol\":2975:3099  {... */\n      pop\n        /* \"@openzeppelin/contracts/access/Ownable.sol\":2912:3099  function _transferOwnership(address newOwner) internal virtual {... */\n      pop\n      jump\t// out\n        /* \"@openzeppelin/contracts/token/ERC20/ERC20.sol\":9607:10039  function _approve(address owner, address spender, uint256 value, bool emitEvent) internal virtual {... */\n    tag_283:\n      sub(shl(0xa0, 0x01), 0x01)\n        /* \"@openzeppelin/contracts/token/ERC20/ERC20.sol\":9719:9738  owner == address(0) */\n      dup5\n      and\n        /* \"@openzeppelin/contracts/token/ERC20/ERC20.sol\":9715:9804  if (owner == address(0)) {... */\n      tag_324\n      jumpi\n        /* \"@openzeppelin/contracts/token/ERC20/ERC20.sol\":9761:9793  ERC20InvalidApprover(address(0)) */\n      mload(0x40)\n      shl(0xe0, 0xe602df05)\n      dup2\n      mstore\n        /* \"@openzeppelin/contracts/token/ERC20/ERC20.sol\":9790:9791  0 */\n      0x00\n        /* \"@openzeppelin/contracts/token/ERC20/ERC20.sol\":9761:9793  ERC20InvalidApprover(address(0)) */\n      0x04\n      dup3\n      add\n        /* \"#utility.yul\":1342:1393   */\n      mstore\n        /* \"#utility.yul\":1315:1333   */\n      0x24\n      add\n        /* \"@openzeppelin/contracts/token/ERC20/ERC20.sol\":9761:9793  ERC20InvalidApprover(address(0)) */\n      tag_205\n        /* \"#utility.yul\":1196:1399   */\n      jump\n        /* \"@openzeppelin/contracts/token/ERC20/ERC20.sol\":9715:9804  if (owner == address(0)) {... */\n    tag_324:\n      sub(shl(0xa0, 0x01), 0x01)\n        /* \"@openzeppelin/contracts/token/ERC20/ERC20.sol\":9817:9838  spender == address(0) */\n      dup4\n      and\n        /* \"@openzeppelin/contracts/token/ERC20/ERC20.sol\":9813:9903  if (spender == address(0)) {... */\n      tag_326\n      jumpi\n        /* \"@openzeppelin/contracts/token/ERC20/ERC20.sol\":9861:9892  ERC20InvalidSpender(address(0)) */\n      mload(0x40)\n      shl(0xe1, 0x4a1406b1)\n      dup2\n      mstore\n        /* \"@openzeppelin/contracts/token/ERC20/ERC20.sol\":9889:9890  0 */\n      0x00\n        /* \"@openzeppelin/contracts/token/ERC20/ERC20.sol\":9861:9892  ERC20InvalidSpender(address(0)) */\n      0x04\n      dup3\n      add\n        /* \"#utility.yul\":1342:1393   */\n      mstore\n        /* \"#utility.yul\":1315:1333   */\n      0x24\n      add\n        /* \"@openzeppelin/contracts/token/ERC20/ERC20.sol\":9861:9892  ERC20InvalidSpender(address(0)) */\n      tag_205\n        /* \"#utility.yul\":1196:1399   */\n      jump\n        /* \"@openzeppelin/contracts/token/ERC20/ERC20.sol\":9813:9903  if (spender == address(0)) {... */\n    tag_326:\n      sub(shl(0xa0, 0x01), 0x01)\n        /* \"@openzeppelin/contracts/token/ERC20/ERC20.sol\":9912:9930  _allowances[owner] */\n      dup1\n      dup6\n      and\n      0x00\n      swap1\n      dup2\n      mstore\n        /* \"@openzeppelin/contracts/token/ERC20/ERC20.sol\":9912:9923  _allowances */\n      0x01\n        /* \"@openzeppelin/contracts/token/ERC20/ERC20.sol\":9912:9930  _allowances[owner] */\n      0x20\n      swap1\n      dup2\n      mstore\n      0x40\n      dup1\n      dup4\n      keccak256\n        /* \"@openzeppelin/contracts/token/ERC20/ERC20.sol\":9912:9939  _allowances[owner][spender] */\n      swap4\n      dup8\n      and\n      dup4\n      mstore\n      swap3\n      swap1\n      mstore\n      keccak256\n        /* \"@openzeppelin/contracts/token/ERC20/ERC20.sol\":9912:9947  _allowances[owner][spender] = value */\n      dup3\n      swap1\n      sstore\n        /* \"@openzeppelin/contracts/token/ERC20/ERC20.sol\":9957:10033  if (emitEvent) {... */\n      dup1\n      iszero\n      tag_296\n      jumpi\n        /* \"@openzeppelin/contracts/token/ERC20/ERC20.sol\":10007:10014  spender */\n      dup3\n      sub(shl(0xa0, 0x01), 0x01)\n        /* \"@openzeppelin/contracts/token/ERC20/ERC20.sol\":9991:10022  Approval(owner, spender, value) */\n      and\n        /* \"@openzeppelin/contracts/token/ERC20/ERC20.sol\":10000:10005  owner */\n      dup5\n      sub(shl(0xa0, 0x01), 0x01)\n        /* \"@openzeppelin/contracts/token/ERC20/ERC20.sol\":9991:10022  Approval(owner, spender, value) */\n      and\n      0x8c5be1e5ebec7d5bd14f71427d1e84f3dd0314c0f7b2291e5b200ac8c7c3b925\n        /* \"@openzeppelin/contracts/token/ERC20/ERC20.sol\":10016:10021  value */\n      dup5\n        /* \"@openzeppelin/contracts/token/ERC20/ERC20.sol\":9991:10022  Approval(owner, spender, value) */\n      mload(0x40)\n      tag_329\n      swap2\n        /* \"#utility.yul\":1550:1575   */\n      dup2\n      mstore\n        /* \"#utility.yul\":1538:1540   */\n      0x20\n        /* \"#utility.yul\":1523:1541   */\n      add\n      swap1\n        /* \"#utility.yul\":1404:1581   */\n      jump\n        /* \"@openzeppelin/contracts/token/ERC20/ERC20.sol\":9991:10022  Approval(owner, spender, value) */\n    tag_329:\n      mload(0x40)\n      dup1\n      swap2\n      sub\n      swap1\n      log3\n        /* \"@openzeppelin/contracts/token/ERC20/ERC20.sol\":9607:10039  function _approve(address owner, address spender, uint256 value, bool emitEvent) internal virtual {... */\n      pop\n      pop\n      pop\n      pop\n      jump\t// out\n        /* \"/contracts/TIMBSToken.sol\":11445:12051  function _update(... */\n    tag_303:\n        /* \"/contracts/TIMBSToken.sol\":4561:4567  paused */\n      and(0xff, sload(0x0d))\n        /* \"/contracts/TIMBSToken.sol\":4557:4592  if (paused) revert TransferPaused() */\n      iszero\n      tag_331\n      jumpi\n        /* \"/contracts/TIMBSToken.sol\":4576:4592  TransferPaused() */\n      mload(0x40)\n      shl(0xe0, 0xcd1fda9f)\n      dup2\n      mstore\n      0x04\n      add\n      mload(0x40)\n      dup1\n      swap2\n      sub\n      swap1\n      revert\n        /* \"/contracts/TIMBSToken.sol\":4557:4592  if (paused) revert TransferPaused() */\n    tag_331:\n      sub(shl(0xa0, 0x01), 0x01)\n        /* \"/contracts/TIMBSToken.sol\":11643:11661  from != address(0) */\n      dup4\n      and\n      iszero\n      dup1\n      iszero\n      swap1\n        /* \"/contracts/TIMBSToken.sol\":11643:11681  from != address(0) && to != address(0) */\n      tag_333\n      jumpi\n      pop\n      sub(shl(0xa0, 0x01), 0x01)\n        /* \"/contracts/TIMBSToken.sol\":11665:11681  to != address(0) */\n      dup3\n      and\n      iszero\n      iszero\n        /* \"/contracts/TIMBSToken.sol\":11643:11681  from != address(0) && to != address(0) */\n    tag_333:\n        /* \"/contracts/TIMBSToken.sol\":11639:12005  if (from != address(0) && to != address(0)) {... */\n      iszero\n      tag_338\n      jumpi\n        /* \"/contracts/TIMBSToken.sol\":11738:11739  0 */\n      0x00\n        /* \"/contracts/TIMBSToken.sol\":11718:11735  maxTransferAmount */\n      sload(0x0b)\n        /* \"/contracts/TIMBSToken.sol\":11718:11739  maxTransferAmount > 0 */\n      gt\n        /* \"/contracts/TIMBSToken.sol\":11718:11783  maxTransferAmount > 0 &&... */\n      dup1\n      iszero\n      tag_335\n      jumpi\n      pop\n      sub(shl(0xa0, 0x01), 0x01)\n        /* \"/contracts/TIMBSToken.sol\":11760:11783  transferWhitelist[from] */\n      dup4\n      and\n      0x00\n      swap1\n      dup2\n      mstore\n        /* \"/contracts/TIMBSToken.sol\":11760:11777  transferWhitelist */\n      0x0c\n        /* \"/contracts/TIMBSToken.sol\":11760:11783  transferWhitelist[from] */\n      0x20\n      mstore\n      0x40\n      swap1\n      keccak256\n      sload\n      0xff\n      and\n        /* \"/contracts/TIMBSToken.sol\":11759:11783  !transferWhitelist[from] */\n      iszero\n        /* \"/contracts/TIMBSToken.sol\":11718:11783  maxTransferAmount > 0 &&... */\n    tag_335:\n        /* \"/contracts/TIMBSToken.sol\":11718:11825  maxTransferAmount > 0 &&... */\n      dup1\n      iszero\n      tag_336\n      jumpi\n      pop\n      sub(shl(0xa0, 0x01), 0x01)\n        /* \"/contracts/TIMBSToken.sol\":11804:11825  transferWhitelist[to] */\n      dup3\n      and\n      0x00\n      swap1\n      dup2\n      mstore\n        /* \"/contracts/TIMBSToken.sol\":11804:11821  transferWhitelist */\n      0x0c\n        /* \"/contracts/TIMBSToken.sol\":11804:11825  transferWhitelist[to] */\n      0x20\n      mstore\n      0x40\n      swap1\n      keccak256\n      sload\n      0xff\n      and\n        /* \"/contracts/TIMBSToken.sol\":11803:11825  !transferWhitelist[to] */\n      iszero\n        /* \"/contracts/TIMBSToken.sol\":11718:11825  maxTransferAmount > 0 &&... */\n    tag_336:\n        /* \"/contracts/TIMBSToken.sol\":11697:11995  if (... */\n      iszero\n      tag_338\n      jumpi\n        /* \"/contracts/TIMBSToken.sol\":11870:11887  maxTransferAmount */\n      sload(0x0b)\n        /* \"/contracts/TIMBSToken.sol\":11862:11867  value */\n      dup2\n        /* \"/contracts/TIMBSToken.sol\":11862:11887  value > maxTransferAmount */\n      gt\n        /* \"/contracts/TIMBSToken.sol\":11858:11981  if (value > maxTransferAmount) {... */\n      iszero\n      tag_338\n      jumpi\n        /* \"/contracts/TIMBSToken.sol\":11944:11961  maxTransferAmount */\n      sload(0x0b)\n        /* \"/contracts/TIMBSToken.sol\":11918:11962  ExceedsMaxTransfer(value, maxTransferAmount) */\n      mload(0x40)\n      shl(0xe1, 0x40897271)\n      dup2\n      mstore\n      tag_205\n      swap2\n        /* \"/contracts/TIMBSToken.sol\":11937:11942  value */\n      dup4\n      swap2\n        /* \"/contracts/TIMBSToken.sol\":11918:11962  ExceedsMaxTransfer(value, maxTransferAmount) */\n      0x04\n      add\n        /* \"#utility.yul\":3660:3685   */\n      swap2\n      dup3\n      mstore\n        /* \"#utility.yul\":3716:3718   */\n      0x20\n        /* \"#utility.yul\":3701:3719   */\n      dup3\n      add\n        /* \"#utility.yul\":3694:3728   */\n      mstore\n        /* \"#utility.yul\":3648:3650   */\n      0x40\n        /* \"#utility.yul\":3633:3651   */\n      add\n      swap1\n        /* \"#utility.yul\":3486:3734   */\n      jump\n        /* \"/contracts/TIMBSToken.sol\":11858:11981  if (value > maxTransferAmount) {... */\n    tag_338:\n        /* \"/contracts/TIMBSToken.sol\":12014:12044  super._update(from, to, value) */\n      tag_282\n        /* \"/contracts/TIMBSToken.sol\":12028:12032  from */\n      dup4\n        /* \"/contracts/TIMBSToken.sol\":12034:12036  to */\n      dup4\n        /* \"/contracts/TIMBSToken.sol\":12038:12043  value */\n      dup4\n        /* \"/contracts/TIMBSToken.sol\":12014:12027  super._update */\n      tag_341\n        /* \"/contracts/TIMBSToken.sol\":12014:12044  super._update(from, to, value) */\n      jump\t// in\n        /* \"@openzeppelin/contracts/utils/ReentrancyGuard.sol\":3586:3743  function _nonReentrantBeforeView() private view {... */\n    tag_306:\n        /* \"@openzeppelin/contracts/utils/ReentrancyGuard.sol\":1505:1571  0x9b779b17422d0df92223018b32b4d1fa46e071723d6817e2486d003becc55f00 */\n      0x9b779b17422d0df92223018b32b4d1fa46e071723d6817e2486d003becc55f00\n        /* \"@openzeppelin/contracts/utils/ReentrancyGuard.sol\":4560:4612  _reentrancyGuardStorageSlot().getUint256Slot().value */\n      sload\n        /* \"@openzeppelin/contracts/utils/ReentrancyGuard.sol\":2407:2408  2 */\n      0x02\n        /* \"@openzeppelin/contracts/utils/ReentrancyGuard.sol\":4560:4623  _reentrancyGuardStorageSlot().getUint256Slot().value == ENTERED */\n      sub\n        /* \"@openzeppelin/contracts/utils/ReentrancyGuard.sol\":3644:3737  if (_reentrancyGuardEntered()) {... */\n      tag_228\n      jumpi\n        /* \"@openzeppelin/contracts/utils/ReentrancyGuard.sol\":3696:3726  ReentrancyGuardReentrantCall() */\n      mload(0x40)\n      shl(0xe0, 0x3ee5aeb5)\n      dup2\n      mstore\n      0x04\n      add\n      mload(0x40)\n      dup1\n      swap2\n      sub\n      swap1\n      revert\n        /* \"@openzeppelin/contracts/token/ERC20/ERC20.sol\":5912:7019  function _update(address from, address to, uint256 value) internal virtual {... */\n    tag_341:\n      sub(shl(0xa0, 0x01), 0x01)\n        /* \"@openzeppelin/contracts/token/ERC20/ERC20.sol\":6001:6019  from == address(0) */\n      dup4\n      and\n        /* \"@openzeppelin/contracts/token/ERC20/ERC20.sol\":5997:6537  if (from == address(0)) {... */\n      tag_349\n      jumpi\n        /* \"@openzeppelin/contracts/token/ERC20/ERC20.sol\":6153:6158  value */\n      dup1\n        /* \"@openzeppelin/contracts/token/ERC20/ERC20.sol\":6137:6149  _totalSupply */\n      0x02\n      0x00\n        /* \"@openzeppelin/contracts/token/ERC20/ERC20.sol\":6137:6158  _totalSupply += value */\n      dup3\n      dup3\n      sload\n      tag_350\n      swap2\n      swap1\n      tag_351\n      jump\t// in\n    tag_350:\n      swap1\n      swap2\n      sstore\n      pop\n        /* \"@openzeppelin/contracts/token/ERC20/ERC20.sol\":5997:6537  if (from == address(0)) {... */\n      tag_352\n      swap1\n      pop\n      jump\n    tag_349:\n      sub(shl(0xa0, 0x01), 0x01)\n        /* \"@openzeppelin/contracts/token/ERC20/ERC20.sol\":6211:6226  _balances[from] */\n      dup4\n      and\n        /* \"@openzeppelin/contracts/token/ERC20/ERC20.sol\":6189:6208  uint256 fromBalance */\n      0x00\n        /* \"@openzeppelin/contracts/token/ERC20/ERC20.sol\":6211:6226  _balances[from] */\n      swap1\n      dup2\n      mstore\n      0x20\n      dup2\n      swap1\n      mstore\n      0x40\n      swap1\n      keccak256\n      sload\n        /* \"@openzeppelin/contracts/token/ERC20/ERC20.sol\":6244:6263  fromBalance < value */\n      dup2\n      dup2\n      lt\n        /* \"@openzeppelin/contracts/token/ERC20/ERC20.sol\":6240:6355  if (fromBalance < value) {... */\n      iszero\n      tag_353\n      jumpi\n        /* \"@openzeppelin/contracts/token/ERC20/ERC20.sol\":6290:6340  ERC20InsufficientBalance(from, fromBalance, value) */\n      mload(0x40)\n      shl(0xe2, 0x391434e3)\n      dup2\n      mstore\n      sub(shl(0xa0, 0x01), 0x01)\n        /* \"#utility.yul\":4224:4256   */\n      dup6\n      and\n        /* \"@openzeppelin/contracts/token/ERC20/ERC20.sol\":6290:6340  ERC20InsufficientBalance(from, fromBalance, value) */\n      0x04\n      dup3\n      add\n        /* \"#utility.yul\":4206:4257   */\n      mstore\n        /* \"#utility.yul\":4273:4291   */\n      0x24\n      dup2\n      add\n        /* \"#utility.yul\":4266:4300   */\n      dup3\n      swap1\n      mstore\n        /* \"#utility.yul\":4316:4334   */\n      0x44\n      dup2\n      add\n        /* \"#utility.yul\":4309:4343   */\n      dup4\n      swap1\n      mstore\n        /* \"#utility.yul\":4179:4197   */\n      0x64\n      add\n        /* \"@openzeppelin/contracts/token/ERC20/ERC20.sol\":6290:6340  ERC20InsufficientBalance(from, fromBalance, value) */\n      tag_205\n        /* \"#utility.yul\":4004:4349   */\n      jump\n        /* \"@openzeppelin/contracts/token/ERC20/ERC20.sol\":6240:6355  if (fromBalance < value) {... */\n    tag_353:\n      sub(shl(0xa0, 0x01), 0x01)\n        /* \"@openzeppelin/contracts/token/ERC20/ERC20.sol\":6475:6490  _balances[from] */\n      dup5\n      and\n        /* \"@openzeppelin/contracts/token/ERC20/ERC20.sol\":6475:6484  _balances */\n      0x00\n        /* \"@openzeppelin/contracts/token/ERC20/ERC20.sol\":6475:6490  _balances[from] */\n      swap1\n      dup2\n      mstore\n      0x20\n      dup2\n      swap1\n      mstore\n      0x40\n      swap1\n      keccak256\n        /* \"@openzeppelin/contracts/token/ERC20/ERC20.sol\":6493:6512  fromBalance - value */\n      swap1\n      dup3\n      swap1\n      sub\n        /* \"@openzeppelin/contracts/token/ERC20/ERC20.sol\":6475:6512  _balances[from] = fromBalance - value */\n      swap1\n      sstore\n        /* \"@openzeppelin/contracts/token/ERC20/ERC20.sol\":5997:6537  if (from == address(0)) {... */\n    tag_352:\n      sub(shl(0xa0, 0x01), 0x01)\n        /* \"@openzeppelin/contracts/token/ERC20/ERC20.sol\":6551:6567  to == address(0) */\n      dup3\n      and\n        /* \"@openzeppelin/contracts/token/ERC20/ERC20.sol\":6547:6972  if (to == address(0)) {... */\n      tag_355\n      jumpi\n        /* \"@openzeppelin/contracts/token/ERC20/ERC20.sol\":6714:6726  _totalSupply */\n      0x02\n        /* \"@openzeppelin/contracts/token/ERC20/ERC20.sol\":6714:6735  _totalSupply -= value */\n      dup1\n      sload\n      dup3\n      swap1\n      sub\n      swap1\n      sstore\n        /* \"@openzeppelin/contracts/token/ERC20/ERC20.sol\":6547:6972  if (to == address(0)) {... */\n      jump(tag_356)\n    tag_355:\n      sub(shl(0xa0, 0x01), 0x01)\n        /* \"@openzeppelin/contracts/token/ERC20/ERC20.sol\":6925:6938  _balances[to] */\n      dup3\n      and\n        /* \"@openzeppelin/contracts/token/ERC20/ERC20.sol\":6925:6934  _balances */\n      0x00\n        /* \"@openzeppelin/contracts/token/ERC20/ERC20.sol\":6925:6938  _balances[to] */\n      swap1\n      dup2\n      mstore\n      0x20\n      dup2\n      swap1\n      mstore\n      0x40\n      swap1\n      keccak256\n        /* \"@openzeppelin/contracts/token/ERC20/ERC20.sol\":6925:6947  _balances[to] += value */\n      dup1\n      sload\n      dup3\n      add\n      swap1\n      sstore\n        /* \"@openzeppelin/contracts/token/ERC20/ERC20.sol\":6547:6972  if (to == address(0)) {... */\n    tag_356:\n        /* \"@openzeppelin/contracts/token/ERC20/ERC20.sol\":7002:7004  to */\n      dup2\n      sub(shl(0xa0, 0x01), 0x01)\n        /* \"@openzeppelin/contracts/token/ERC20/ERC20.sol\":6987:7012  Transfer(from, to, value) */\n      and\n        /* \"@openzeppelin/contracts/token/ERC20/ERC20.sol\":6996:7000  from */\n      dup4\n      sub(shl(0xa0, 0x01), 0x01)\n        /* \"@openzeppelin/contracts/token/ERC20/ERC20.sol\":6987:7012  Transfer(from, to, value) */\n      and\n      0xddf252ad1be2c89b69c2b068fc378daa952ba7f163c4a11628f55a4df523b3ef\n        /* \"@openzeppelin/contracts/token/ERC20/ERC20.sol\":7006:7011  value */\n      dup4\n        /* \"@openzeppelin/contracts/token/ERC20/ERC20.sol\":6987:7012  Transfer(from, to, value) */\n      mload(0x40)\n      tag_357\n      swap2\n        /* \"#utility.yul\":1550:1575   */\n      dup2\n      mstore\n        /* \"#utility.yul\":1538:1540   */\n      0x20\n        /* \"#utility.yul\":1523:1541   */\n      add\n      swap1\n        /* \"#utility.yul\":1404:1581   */\n      jump\n        /* \"@openzeppelin/contracts/token/ERC20/ERC20.sol\":6987:7012  Transfer(from, to, value) */\n    tag_357:\n      mload(0x40)\n      dup1\n      swap2\n      sub\n      swap1\n      log3\n        /* \"@openzeppelin/contracts/token/ERC20/ERC20.sol\":5912:7019  function _update(address from, address to, uint256 value) internal virtual {... */\n      pop\n      pop\n      pop\n      jump\t// out\n        /* \"#utility.yul\":14:562   */\n    tag_48:\n        /* \"#utility.yul\":126:130   */\n      0x00\n        /* \"#utility.yul\":155:157   */\n      0x20\n        /* \"#utility.yul\":184:186   */\n      dup1\n        /* \"#utility.yul\":173:182   */\n      dup4\n        /* \"#utility.yul\":166:187   */\n      mstore\n        /* \"#utility.yul\":216:222   */\n      dup4\n        /* \"#utility.yul\":210:223   */\n      mload\n        /* \"#utility.yul\":259:265   */\n      dup1\n        /* \"#utility.yul\":254:256   */\n      dup3\n        /* \"#utility.yul\":243:252   */\n      dup6\n        /* \"#utility.yul\":239:257   */\n      add\n        /* \"#utility.yul\":232:266   */\n      mstore\n        /* \"#utility.yul\":284:285   */\n      0x00\n        /* \"#utility.yul\":294:434   */\n    tag_365:\n        /* \"#utility.yul\":308:314   */\n      dup2\n        /* \"#utility.yul\":305:306   */\n      dup2\n        /* \"#utility.yul\":302:315   */\n      lt\n        /* \"#utility.yul\":294:434   */\n      iszero\n      tag_367\n      jumpi\n        /* \"#utility.yul\":403:417   */\n      dup6\n      dup2\n      add\n        /* \"#utility.yul\":399:422   */\n      dup4\n      add\n        /* \"#utility.yul\":393:423   */\n      mload\n        /* \"#utility.yul\":369:386   */\n      dup6\n      dup3\n      add\n        /* \"#utility.yul\":388:390   */\n      0x40\n        /* \"#utility.yul\":365:391   */\n      add\n        /* \"#utility.yul\":358:424   */\n      mstore\n        /* \"#utility.yul\":323:333   */\n      dup3\n      add\n        /* \"#utility.yul\":294:434   */\n      jump(tag_365)\n    tag_367:\n        /* \"#utility.yul\":298:301   */\n      pop\n        /* \"#utility.yul\":483:484   */\n      0x00\n        /* \"#utility.yul\":478:480   */\n      0x40\n        /* \"#utility.yul\":469:475   */\n      dup3\n        /* \"#utility.yul\":458:467   */\n      dup7\n        /* \"#utility.yul\":454:476   */\n      add\n        /* \"#utility.yul\":450:481   */\n      add\n        /* \"#utility.yul\":443:485   */\n      mstore\n        /* \"#utility.yul\":553:555   */\n      0x40\n        /* \"#utility.yul\":546:548   */\n      0x1f\n        /* \"#utility.yul\":542:549   */\n      not\n        /* \"#utility.yul\":537:539   */\n      0x1f\n        /* \"#utility.yul\":529:535   */\n      dup4\n        /* \"#utility.yul\":525:540   */\n      add\n        /* \"#utility.yul\":521:550   */\n      and\n        /* \"#utility.yul\":510:519   */\n      dup6\n        /* \"#utility.yul\":506:551   */\n      add\n        /* \"#utility.yul\":502:556   */\n      add\n        /* \"#utility.yul\":494:556   */\n      swap3\n      pop\n      pop\n      pop\n        /* \"#utility.yul\":14:562   */\n      swap3\n      swap2\n      pop\n      pop\n      jump\t// out\n        /* \"#utility.yul\":567:740   */\n    tag_361:\n        /* \"#utility.yul\":635:655   */\n      dup1\n      calldataload\n      sub(shl(0xa0, 0x01), 0x01)\n        /* \"#utility.yul\":684:715   */\n      dup2\n      and\n        /* \"#utility.yul\":674:716   */\n      dup2\n      eq\n        /* \"#utility.yul\":664:734   */\n      tag_369\n      jumpi\n        /* \"#utility.yul\":730:731   */\n      0x00\n        /* \"#utility.yul\":727:728   */\n      dup1\n        /* \"#utility.yul\":720:732   */\n      revert\n        /* \"#utility.yul\":664:734   */\n    tag_369:\n        /* \"#utility.yul\":567:740   */\n      swap2\n      swap1\n      pop\n      jump\t// out\n        /* \"#utility.yul\":745:999   */\n    tag_51:\n        /* \"#utility.yul\":813:819   */\n      0x00\n        /* \"#utility.yul\":821:827   */\n      dup1\n        /* \"#utility.yul\":874:876   */\n      0x40\n        /* \"#utility.yul\":862:871   */\n      dup4\n        /* \"#utility.yul\":853:860   */\n      dup6\n        /* \"#utility.yul\":849:872   */\n      sub\n        /* \"#utility.yul\":845:877   */\n      slt\n        /* \"#utility.yul\":842:894   */\n      iszero\n      tag_371\n      jumpi\n        /* \"#utility.yul\":890:891   */\n      0x00\n        /* \"#utility.yul\":887:888   */\n      dup1\n        /* \"#utility.yul\":880:892   */\n      revert\n        /* \"#utility.yul\":842:894   */\n    tag_371:\n        /* \"#utility.yul\":913:942   */\n      tag_372\n        /* \"#utility.yul\":932:941   */\n      dup4\n        /* \"#utility.yul\":913:942   */\n      tag_361\n      jump\t// in\n    tag_372:\n        /* \"#utility.yul\":903:942   */\n      swap5\n        /* \"#utility.yul\":989:991   */\n      0x20\n        /* \"#utility.yul\":974:992   */\n      swap4\n      swap1\n      swap4\n      add\n        /* \"#utility.yul\":961:993   */\n      calldataload\n      swap4\n      pop\n      pop\n      pop\n        /* \"#utility.yul\":745:999   */\n      jump\t// out\n        /* \"#utility.yul\":1586:1766   */\n    tag_65:\n        /* \"#utility.yul\":1645:1651   */\n      0x00\n        /* \"#utility.yul\":1698:1700   */\n      0x20\n        /* \"#utility.yul\":1686:1695   */\n      dup3\n        /* \"#utility.yul\":1677:1684   */\n      dup5\n        /* \"#utility.yul\":1673:1696   */\n      sub\n        /* \"#utility.yul\":1669:1701   */\n      slt\n        /* \"#utility.yul\":1666:1718   */\n      iszero\n      tag_377\n      jumpi\n        /* \"#utility.yul\":1714:1715   */\n      0x00\n        /* \"#utility.yul\":1711:1712   */\n      dup1\n        /* \"#utility.yul\":1704:1716   */\n      revert\n        /* \"#utility.yul\":1666:1718   */\n    tag_377:\n      pop\n        /* \"#utility.yul\":1737:1760   */\n      calldataload\n      swap2\n        /* \"#utility.yul\":1586:1766   */\n      swap1\n      pop\n      jump\t// out\n        /* \"#utility.yul\":1771:2099   */\n    tag_69:\n        /* \"#utility.yul\":1848:1854   */\n      0x00\n        /* \"#utility.yul\":1856:1862   */\n      dup1\n        /* \"#utility.yul\":1864:1870   */\n      0x00\n        /* \"#utility.yul\":1917:1919   */\n      0x60\n        /* \"#utility.yul\":1905:1914   */\n      dup5\n        /* \"#utility.yul\":1896:1903   */\n      dup7\n        /* \"#utility.yul\":1892:1915   */\n      sub\n        /* \"#utility.yul\":1888:1920   */\n      slt\n        /* \"#utility.yul\":1885:1937   */\n      iszero\n      tag_379\n      jumpi\n        /* \"#utility.yul\":1933:1934   */\n      0x00\n        /* \"#utility.yul\":1930:1931   */\n      dup1\n        /* \"#utility.yul\":1923:1935   */\n      revert\n        /* \"#utility.yul\":1885:1937   */\n    tag_379:\n        /* \"#utility.yul\":1956:1985   */\n      tag_380\n        /* \"#utility.yul\":1975:1984   */\n      dup5\n        /* \"#utility.yul\":1956:1985   */\n      tag_361\n      jump\t// in\n    tag_380:\n        /* \"#utility.yul\":1946:1985   */\n      swap3\n      pop\n        /* \"#utility.yul\":2004:2042   */\n      tag_381\n        /* \"#utility.yul\":2038:2040   */\n      0x20\n        /* \"#utility.yul\":2027:2036   */\n      dup6\n        /* \"#utility.yul\":2023:2041   */\n      add\n        /* \"#utility.yul\":2004:2042   */\n      tag_361\n      jump\t// in\n    tag_381:\n        /* \"#utility.yul\":1994:2042   */\n      swap2\n      pop\n        /* \"#utility.yul\":2089:2091   */\n      0x40\n        /* \"#utility.yul\":2078:2087   */\n      dup5\n        /* \"#utility.yul\":2074:2092   */\n      add\n        /* \"#utility.yul\":2061:2093   */\n      calldataload\n        /* \"#utility.yul\":2051:2093   */\n      swap1\n      pop\n        /* \"#utility.yul\":1771:2099   */\n      swap3\n      pop\n      swap3\n      pop\n      swap3\n      jump\t// out\n        /* \"#utility.yul\":2104:2290   */\n    tag_77:\n        /* \"#utility.yul\":2163:2169   */\n      0x00\n        /* \"#utility.yul\":2216:2218   */\n      0x20\n        /* \"#utility.yul\":2204:2213   */\n      dup3\n        /* \"#utility.yul\":2195:2202   */\n      dup5\n        /* \"#utility.yul\":2191:2214   */\n      sub\n        /* \"#utility.yul\":2187:2219   */\n      slt\n        /* \"#utility.yul\":2184:2236   */\n      iszero\n      tag_383\n      jumpi\n        /* \"#utility.yul\":2232:2233   */\n      0x00\n        /* \"#utility.yul\":2229:2230   */\n      dup1\n        /* \"#utility.yul\":2222:2234   */\n      revert\n        /* \"#utility.yul\":2184:2236   */\n    tag_383:\n        /* \"#utility.yul\":2255:2284   */\n      tag_384\n        /* \"#utility.yul\":2274:2283   */\n      dup3\n        /* \"#utility.yul\":2255:2284   */\n      tag_361\n      jump\t// in\n    tag_384:\n        /* \"#utility.yul\":2245:2284   */\n      swap4\n        /* \"#utility.yul\":2104:2290   */\n      swap3\n      pop\n      pop\n      pop\n      jump\t// out\n        /* \"#utility.yul\":2484:2744   */\n    tag_151:\n        /* \"#utility.yul\":2552:2558   */\n      0x00\n        /* \"#utility.yul\":2560:2566   */\n      dup1\n        /* \"#utility.yul\":2613:2615   */\n      0x40\n        /* \"#utility.yul\":2601:2610   */\n      dup4\n        /* \"#utility.yul\":2592:2599   */\n      dup6\n        /* \"#utility.yul\":2588:2611   */\n      sub\n        /* \"#utility.yul\":2584:2616   */\n      slt\n        /* \"#utility.yul\":2581:2633   */\n      iszero\n      tag_387\n      jumpi\n        /* \"#utility.yul\":2629:2630   */\n      0x00\n        /* \"#utility.yul\":2626:2627   */\n      dup1\n        /* \"#utility.yul\":2619:2631   */\n      revert\n        /* \"#utility.yul\":2581:2633   */\n    tag_387:\n        /* \"#utility.yul\":2652:2681   */\n      tag_388\n        /* \"#utility.yul\":2671:2680   */\n      dup4\n        /* \"#utility.yul\":2652:2681   */\n      tag_361\n      jump\t// in\n    tag_388:\n        /* \"#utility.yul\":2642:2681   */\n      swap2\n      pop\n        /* \"#utility.yul\":2700:2738   */\n      tag_389\n        /* \"#utility.yul\":2734:2736   */\n      0x20\n        /* \"#utility.yul\":2723:2732   */\n      dup5\n        /* \"#utility.yul\":2719:2737   */\n      add\n        /* \"#utility.yul\":2700:2738   */\n      tag_361\n      jump\t// in\n    tag_389:\n        /* \"#utility.yul\":2690:2738   */\n      swap1\n      pop\n        /* \"#utility.yul\":2484:2744   */\n      swap3\n      pop\n      swap3\n      swap1\n      pop\n      jump\t// out\n        /* \"#utility.yul\":2749:3096   */\n    tag_156:\n        /* \"#utility.yul\":2814:2820   */\n      0x00\n        /* \"#utility.yul\":2822:2828   */\n      dup1\n        /* \"#utility.yul\":2875:2877   */\n      0x40\n        /* \"#utility.yul\":2863:2872   */\n      dup4\n        /* \"#utility.yul\":2854:2861   */\n      dup6\n        /* \"#utility.yul\":2850:2873   */\n      sub\n        /* \"#utility.yul\":2846:2878   */\n      slt\n        /* \"#utility.yul\":2843:2895   */\n      iszero\n      tag_391\n      jumpi\n        /* \"#utility.yul\":2891:2892   */\n      0x00\n        /* \"#utility.yul\":2888:2889   */\n      dup1\n        /* \"#utility.yul\":2881:2893   */\n      revert\n        /* \"#utility.yul\":2843:2895   */\n    tag_391:\n        /* \"#utility.yul\":2914:2943   */\n      tag_392\n        /* \"#utility.yul\":2933:2942   */\n      dup4\n        /* \"#utility.yul\":2914:2943   */\n      tag_361\n      jump\t// in\n    tag_392:\n        /* \"#utility.yul\":2904:2943   */\n      swap2\n      pop\n        /* \"#utility.yul\":2993:2995   */\n      0x20\n        /* \"#utility.yul\":2982:2991   */\n      dup4\n        /* \"#utility.yul\":2978:2996   */\n      add\n        /* \"#utility.yul\":2965:2997   */\n      calldataload\n        /* \"#utility.yul\":3040:3045   */\n      dup1\n        /* \"#utility.yul\":3033:3046   */\n      iszero\n        /* \"#utility.yul\":3026:3047   */\n      iszero\n        /* \"#utility.yul\":3019:3024   */\n      dup2\n        /* \"#utility.yul\":3016:3048   */\n      eq\n        /* \"#utility.yul\":3006:3066   */\n      tag_393\n      jumpi\n        /* \"#utility.yul\":3062:3063   */\n      0x00\n        /* \"#utility.yul\":3059:3060   */\n      dup1\n        /* \"#utility.yul\":3052:3064   */\n      revert\n        /* \"#utility.yul\":3006:3066   */\n    tag_393:\n        /* \"#utility.yul\":3085:3090   */\n      dup1\n        /* \"#utility.yul\":3075:3090   */\n      swap2\n      pop\n      pop\n        /* \"#utility.yul\":2749:3096   */\n      swap3\n      pop\n      swap3\n      swap1\n      pop\n      jump\t// out\n        /* \"#utility.yul\":3101:3481   */\n    tag_166:\n        /* \"#utility.yul\":3180:3181   */\n      0x01\n        /* \"#utility.yul\":3176:3188   */\n      dup2\n      dup2\n      shr\n      swap1\n        /* \"#utility.yul\":3223:3235   */\n      dup3\n      and\n      dup1\n        /* \"#utility.yul\":3244:3305   */\n      tag_395\n      jumpi\n        /* \"#utility.yul\":3298:3302   */\n      0x7f\n        /* \"#utility.yul\":3290:3296   */\n      dup3\n        /* \"#utility.yul\":3286:3303   */\n      and\n        /* \"#utility.yul\":3276:3303   */\n      swap2\n      pop\n        /* \"#utility.yul\":3244:3305   */\n    tag_395:\n        /* \"#utility.yul\":3351:3353   */\n      0x20\n        /* \"#utility.yul\":3343:3349   */\n      dup3\n        /* \"#utility.yul\":3340:3354   */\n      lt\n        /* \"#utility.yul\":3320:3338   */\n      dup2\n        /* \"#utility.yul\":3317:3355   */\n      sub\n        /* \"#utility.yul\":3314:3475   */\n      tag_396\n      jumpi\n        /* \"#utility.yul\":3397:3407   */\n      0x4e487b71\n        /* \"#utility.yul\":3392:3395   */\n      0xe0\n        /* \"#utility.yul\":3388:3408   */\n      shl\n        /* \"#utility.yul\":3385:3386   */\n      0x00\n        /* \"#utility.yul\":3378:3409   */\n      mstore\n        /* \"#utility.yul\":3432:3436   */\n      0x22\n        /* \"#utility.yul\":3429:3430   */\n      0x04\n        /* \"#utility.yul\":3422:3437   */\n      mstore\n        /* \"#utility.yul\":3460:3464   */\n      0x24\n        /* \"#utility.yul\":3457:3458   */\n      0x00\n        /* \"#utility.yul\":3450:3465   */\n      revert\n        /* \"#utility.yul\":3314:3475   */\n    tag_396:\n      pop\n        /* \"#utility.yul\":3101:3481   */\n      swap2\n      swap1\n      pop\n      jump\t// out\n        /* \"#utility.yul\":3739:3866   */\n    tag_362:\n        /* \"#utility.yul\":3800:3810   */\n      0x4e487b71\n        /* \"#utility.yul\":3795:3798   */\n      0xe0\n        /* \"#utility.yul\":3791:3811   */\n      shl\n        /* \"#utility.yul\":3788:3789   */\n      0x00\n        /* \"#utility.yul\":3781:3812   */\n      mstore\n        /* \"#utility.yul\":3831:3835   */\n      0x11\n        /* \"#utility.yul\":3828:3829   */\n      0x04\n        /* \"#utility.yul\":3821:3836   */\n      mstore\n        /* \"#utility.yul\":3855:3859   */\n      0x24\n        /* \"#utility.yul\":3852:3853   */\n      0x00\n        /* \"#utility.yul\":3845:3860   */\n      revert\n        /* \"#utility.yul\":3871:3999   */\n    tag_203:\n        /* \"#utility.yul\":3938:3947   */\n      dup2\n      dup2\n      sub\n        /* \"#utility.yul\":3959:3970   */\n      dup2\n      dup2\n      gt\n        /* \"#utility.yul\":3956:3993   */\n      iszero\n      tag_171\n      jumpi\n        /* \"#utility.yul\":3973:3991   */\n      tag_171\n      tag_362\n      jump\t// in\n        /* \"#utility.yul\":4354:4479   */\n    tag_351:\n        /* \"#utility.yul\":4419:4428   */\n      dup1\n      dup3\n      add\n        /* \"#utility.yul\":4440:4450   */\n      dup1\n      dup3\n      gt\n        /* \"#utility.yul\":4437:4473   */\n      iszero\n      tag_171\n      jumpi\n        /* \"#utility.yul\":4453:4471   */\n      tag_171\n      tag_362\n      jump\t// in\n\n    auxdata: 0xa26469706673582212203924a0937706c265a2ecc0ba1acfff29a29101ad5b082149a6fce74ab0ab452e64736f6c63430008140033\n}\n",
				"bytecode": {
					"linkReferences": {},
					"object": "60806040523480156200001157600080fd5b5060405162001a3f38038062001a3f83398101604081905262000034916200050d565b336040518060400160405280600e81526020016d2a34b6b129bbb0b8102a37b5b2b760911b8152506040518060400160405280600581526020016454494d425360d81b81525081600390816200008b9190620005f6565b5060046200009a8282620005f6565b5050506001600160a01b038116620000cd57604051631e4fbdf760e01b8152600060048201526024015b60405180910390fd5b620000d88162000261565b5060017f9b779b17422d0df92223018b32b4d1fa46e071723d6817e2486d003becc55f00556001600160a01b038316620001255760405163d92e233d60e01b815260040160405180910390fd5b816000036200014757604051631f2a200560e01b815260040160405180910390fd5b6a52b7d2dcc80cd2e40000008211156200018957604051633999a0b760e11b8152600481018390526a52b7d2dcc80cd2e40000006024820152604401620000c4565b600680546001600160a01b0319166001600160a01b038516908117909155600a8290556000908152600c6020526040808220805460ff1990811660019081179092553384529190922080549091169091179055620001e88383620002b3565b6040516001600160a01b038416906000907f4ab5be82436d353e61ca18726e984e561f5c1cc7c6d38b29d2553c790434705a908290a36040805160008152602081018390527f5299e127ac8bdc64fd0e551dd406ba1e1fbaebc96d458ce9b1a5e69caecdf376910160405180910390a1505050620006ea565b600580546001600160a01b038381166001600160a01b0319831681179093556040519116919082907f8be0079c531659141344cd1fd0a4f28419497f9722a3daafe3b4186f6b6457e090600090a35050565b6001600160a01b038216620002df5760405163ec442f0560e01b815260006004820152602401620000c4565b620002ed60008383620002f1565b5050565b600d5460ff1615620003165760405163cd1fda9f60e01b815260040160405180910390fd5b6001600160a01b038316158015906200033757506001600160a01b03821615155b15620003c8576000600b541180156200036957506001600160a01b0383166000908152600c602052604090205460ff16155b80156200038f57506001600160a01b0382166000908152600c602052604090205460ff16155b15620003c857600b54811115620003c857600b54604051634089727160e11b8152620000c4918391600401918252602082015260400190565b620003d5838383620003da565b505050565b6001600160a01b03831662000409578060026000828254620003fd9190620006c2565b909155506200047d9050565b6001600160a01b038316600090815260208190526040902054818110156200045e5760405163391434e360e21b81526001600160a01b03851660048201526024810182905260448101839052606401620000c4565b6001600160a01b03841660009081526020819052604090209082900390555b6001600160a01b0382166200049b57600280548290039055620004ba565b6001600160a01b03821660009081526020819052604090208054820190555b816001600160a01b0316836001600160a01b03167fddf252ad1be2c89b69c2b068fc378daa952ba7f163c4a11628f55a4df523b3ef836040516200050091815260200190565b60405180910390a3505050565b6000806000606084860312156200052357600080fd5b83516001600160a01b03811681146200053b57600080fd5b602085015160409095015190969495509392505050565b634e487b7160e01b600052604160045260246000fd5b600181811c908216806200057d57607f821691505b6020821081036200059e57634e487b7160e01b600052602260045260246000fd5b50919050565b601f821115620003d557600081815260208120601f850160051c81016020861015620005cd5750805b601f850160051c820191505b81811015620005ee57828155600101620005d9565b505050505050565b81516001600160401b0381111562000612576200061262000552565b6200062a8162000623845462000568565b84620005a4565b602080601f831160018114620006625760008415620006495750858301515b600019600386901b1c1916600185901b178555620005ee565b600085815260208120601f198616915b82811015620006935788860151825594840194600190910190840162000672565b5085821015620006b25787850151600019600388901b60f8161c191681555b5050505050600190811b01905550565b80820180821115620006e457634e487b7160e01b600052601160045260246000fd5b92915050565b61134580620006fa6000396000f3fe608060405234801561001057600080fd5b50600436106102115760003560e01c8063715018a611610125578063a1bdb15e116100ad578063d89a6fa61161007c578063d89a6fa61461043c578063dd62ed3e1461044f578063e4a34dce14610488578063f0f442601461049b578063f2fde38b146104ae57600080fd5b8063a1bdb15e14610405578063a9059cbb14610418578063a9e757231461042b578063ae11c4bc1461043457600080fd5b806383d5d801116100f457806383d5d801146103ca5780638456cb59146103d15780638bf55409146103d95780638da5cb5b146103ec57806395d89b41146103fd57600080fd5b8063715018a61461037957806379cc6790146103815780637c562a94146103945780637ffbe241146103a757600080fd5b8063313ce567116101a857806342966c681161017757806342966c681461031457806345c952cb146103275780635c975abb1461033057806361d027b31461033d57806370a082311461035057600080fd5b8063313ce567146102e25780633a03171c146102f15780633f4ba83a146103035780634214e0af1461030b57600080fd5b806321d66353116101e457806321d663531461029457806323b872dd146102a9578063296ed9f4146102bc5780633028f63a146102cf57600080fd5b806306fdde0314610216578063095ea7b3146102345780630c56ae3b1461025757806318160ddd14610282575b600080fd5b61021e6104c1565b60405161022b919061111f565b60405180910390f35b610247610242366004611189565b610553565b604051901515815260200161022b565b60075461026a906001600160a01b031681565b6040516001600160a01b03909116815260200161022b565b6002545b60405190815260200161022b565b6102a76102a23660046111b3565b61056d565b005b6102476102b73660046111cc565b6105d7565b6102a76102ca366004611189565b6105fb565b6102a76102dd366004611208565b610773565b6040516012815260200161022b565b6102866a52b7d2dcc80cd2e400000081565b6102a7610836565b61028660095481565b6102a76103223660046111b3565b610875565b610286600a5481565b600d546102479060ff1681565b60065461026a906001600160a01b031681565b61028661035e366004611208565b6001600160a01b031660009081526020819052604090205490565b6102a7610882565b6102a761038f366004611189565b610896565b6102a76103a2366004611208565b6108ab565b6102476103b5366004611208565b600c6020526000908152604090205460ff1681565b6000610286565b6102a761096e565b6102a76103e73660046111b3565b6109b0565b6005546001600160a01b031661026a565b61021e6109f4565b6102a76104133660046111b3565b610a03565b610247610426366004611189565b610a40565b610286600b5481565b610286610a4e565b60085461026a906001600160a01b031681565b61028661045d36600461122a565b6001600160a01b03918216600090815260016020908152604080832093909416825291909152205490565b6102a761049636600461125d565b610a73565b6102a76104a9366004611208565b610b01565b6102a76104bc366004611208565b610bc0565b6060600380546104d090611299565b80601f01602080910402602001604051908101604052809291908181526020018280546104fc90611299565b80156105495780601f1061051e57610100808354040283529160200191610549565b820191906000526020600020905b81548152906001019060200180831161052c57829003601f168201915b5050505050905090565b600033610561818585610bfb565b60019150505b92915050565b610575610c0d565b8060000361059657604051631f2a200560e01b815260040160405180910390fd5b600a5460408051918252602082018390527f5299e127ac8bdc64fd0e551dd406ba1e1fbaebc96d458ce9b1a5e69caecdf376910160405180910390a1600a55565b6000336105e5858285610c3a565b6105f0858585610cb9565b506001949350505050565b610603610d18565b6007546001600160a01b0316331480159061062957506008546001600160a01b03163314155b801561064057506005546001600160a01b03163314155b1561065e5760405163019a5d1d60e71b815260040160405180910390fd5b6001600160a01b0382166106855760405163d92e233d60e01b815260040160405180910390fd5b806000036106a657604051631f2a200560e01b815260040160405180910390fd5b60006106b160025490565b6106c6906a52b7d2dcc80cd2e40000006112e9565b9050808211156106f857604051633999a0b760e11b815260048101839052602481018290526044015b60405180910390fd5b6107028383610d46565b826001600160a01b03167f64e4bb1bd66f16486c6ff3bf1e7ee4919e2e2dc7b134e2ed9fbd814a9949fe6b8360405161073d91815260200190565b60405180910390a25061076f60017f9b779b17422d0df92223018b32b4d1fa46e071723d6817e2486d003becc55f0055565b5050565b61077b610c0d565b6001600160a01b0381166107a25760405163d92e233d60e01b815260040160405180910390fd5b6007546001600160a01b0316156107d6576007546001600160a01b03166000908152600c60205260409020805460ff191690555b600780546001600160a01b0319166001600160a01b0383169081179091556000818152600c6020526040808220805460ff19166001179055517f6fca2e06bb34845f84427e65445730e7e00faf72ad37f6485b24de98f103bb069190a250565b61083e610c0d565b600d805460ff1916905560405133907f5db9ee0a495bf2e6ff9c91a7834c1ba4fdd244a5e8aa4e537bd38aeae4b073aa90600090a2565b61087f3382610d7c565b50565b61088a610c0d565b6108946000610db2565b565b6108a1823383610c3a565b61076f8282610d7c565b6108b3610c0d565b6001600160a01b0381166108da5760405163d92e233d60e01b815260040160405180910390fd5b6008546001600160a01b03161561090e576008546001600160a01b03166000908152600c60205260409020805460ff191690555b600880546001600160a01b0319166001600160a01b0383169081179091556000818152600c6020526040808220805460ff19166001179055517f0984594d51cb2b9061c64322cc955dc1cf1e8bf0f73512ba8221e4db196be16a9190a250565b610976610c0d565b600d805460ff1916600117905560405133907f62e78cea01bee320cd4e420270b5ea74000d11b0c9f74754ebdbfc544b05a25890600090a2565b6109b8610c0d565b600b8190556040518181527fd82d7466dbfb0b68291841d1adf74df365a848cd534d11e8c6b238ec9fb5ebe6906020015b60405180910390a150565b6060600480546104d090611299565b610a0b610c0d565b60098190556040518181527f010a8b7cb1faab491acf8e175333e56c4bf4ad24ae1927dc38925ac085085f71906020016109e9565b600033610561818585610cb9565b6000610a5960025490565b610a6e906a52b7d2dcc80cd2e40000006112e9565b905090565b610a7b610c0d565b6001600160a01b038216610aa25760405163d92e233d60e01b815260040160405180910390fd5b6001600160a01b0382166000818152600c6020908152604091829020805460ff191685151590811790915591519182527fe3b4918d2544570f4fd920ce69294772100c0d60360c88d94c56fadbbef76cb1910160405180910390a25050565b610b09610c0d565b6001600160a01b038116610b305760405163d92e233d60e01b815260040160405180910390fd5b600680546001600160a01b039081166000908152600c6020526040808220805460ff191690559254925184831693909216917f4ab5be82436d353e61ca18726e984e561f5c1cc7c6d38b29d2553c790434705a9190a3600680546001600160a01b039092166001600160a01b0319909216821790556000908152600c60205260409020805460ff19166001179055565b610bc8610c0d565b6001600160a01b038116610bf257604051631e4fbdf760e01b8152600060048201526024016106ef565b61087f81610db2565b610c088383836001610e04565b505050565b6005546001600160a01b031633146108945760405163118cdaa760e01b81523360048201526024016106ef565b6001600160a01b03838116600090815260016020908152604080832093861683529290522054600019811015610cb35781811015610ca457604051637dc7a0d960e11b81526001600160a01b038416600482015260248101829052604481018390526064016106ef565b610cb384848484036000610e04565b50505050565b6001600160a01b038316610ce357604051634b637e8f60e11b8152600060048201526024016106ef565b6001600160a01b038216610d0d5760405163ec442f0560e01b8152600060048201526024016106ef565b610c08838383610ed9565b610d20610fb3565b60027f9b779b17422d0df92223018b32b4d1fa46e071723d6817e2486d003becc55f0055565b6001600160a01b038216610d705760405163ec442f0560e01b8152600060048201526024016106ef565b61076f60008383610ed9565b6001600160a01b038216610da657604051634b637e8f60e11b8152600060048201526024016106ef565b61076f82600083610ed9565b600580546001600160a01b038381166001600160a01b0319831681179093556040519116919082907f8be0079c531659141344cd1fd0a4f28419497f9722a3daafe3b4186f6b6457e090600090a35050565b6001600160a01b038416610e2e5760405163e602df0560e01b8152600060048201526024016106ef565b6001600160a01b038316610e5857604051634a1406b160e11b8152600060048201526024016106ef565b6001600160a01b0380851660009081526001602090815260408083209387168352929052208290558015610cb357826001600160a01b0316846001600160a01b03167f8c5be1e5ebec7d5bd14f71427d1e84f3dd0314c0f7b2291e5b200ac8c7c3b92584604051610ecb91815260200190565b60405180910390a350505050565b600d5460ff1615610efd5760405163cd1fda9f60e01b815260040160405180910390fd5b6001600160a01b03831615801590610f1d57506001600160a01b03821615155b15610fa8576000600b54118015610f4d57506001600160a01b0383166000908152600c602052604090205460ff16155b8015610f7257506001600160a01b0382166000908152600c602052604090205460ff16155b15610fa857600b54811115610fa857600b54604051634089727160e11b81526106ef918391600401918252602082015260400190565b610c08838383610ff5565b7f9b779b17422d0df92223018b32b4d1fa46e071723d6817e2486d003becc55f005460020361089457604051633ee5aeb560e01b815260040160405180910390fd5b6001600160a01b03831661102057806002600082825461101591906112fc565b909155506110929050565b6001600160a01b038316600090815260208190526040902054818110156110735760405163391434e360e21b81526001600160a01b038516600482015260248101829052604481018390526064016106ef565b6001600160a01b03841660009081526020819052604090209082900390555b6001600160a01b0382166110ae576002805482900390556110cd565b6001600160a01b03821660009081526020819052604090208054820190555b816001600160a01b0316836001600160a01b03167fddf252ad1be2c89b69c2b068fc378daa952ba7f163c4a11628f55a4df523b3ef8360405161111291815260200190565b60405180910390a3505050565b600060208083528351808285015260005b8181101561114c57858101830151858201604001528201611130565b506000604082860101526040601f19601f8301168501019250505092915050565b80356001600160a01b038116811461118457600080fd5b919050565b6000806040838503121561119c57600080fd5b6111a58361116d565b946020939093013593505050565b6000602082840312156111c557600080fd5b5035919050565b6000806000606084860312156111e157600080fd5b6111ea8461116d565b92506111f86020850161116d565b9150604084013590509250925092565b60006020828403121561121a57600080fd5b6112238261116d565b9392505050565b6000806040838503121561123d57600080fd5b6112468361116d565b91506112546020840161116d565b90509250929050565b6000806040838503121561127057600080fd5b6112798361116d565b91506020830135801515811461128e57600080fd5b809150509250929050565b600181811c908216806112ad57607f821691505b6020821081036112cd57634e487b7160e01b600052602260045260246000fd5b50919050565b634e487b7160e01b600052601160045260246000fd5b81810381811115610567576105676112d3565b80820180821115610567576105676112d356fea26469706673582212203924a0937706c265a2ecc0ba1acfff29a29101ad5b082149a6fce74ab0ab452e64736f6c63430008140033",
					"opcodes": "PUSH1 0x80 PUSH1 0x40 MSTORE CALLVALUE DUP1 ISZERO PUSH3 0x11 JUMPI PUSH1 0x0 DUP1 REVERT JUMPDEST POP PUSH1 0x40 MLOAD PUSH3 0x1A3F CODESIZE SUB DUP1 PUSH3 0x1A3F DUP4 CODECOPY DUP2 ADD PUSH1 0x40 DUP2 SWAP1 MSTORE PUSH3 0x34 SWAP2 PUSH3 0x50D JUMP JUMPDEST CALLER PUSH1 0x40 MLOAD DUP1 PUSH1 0x40 ADD PUSH1 0x40 MSTORE DUP1 PUSH1 0xE DUP2 MSTORE PUSH1 0x20 ADD PUSH14 0x2A34B6B129BBB0B8102A37B5B2B7 PUSH1 0x91 SHL DUP2 MSTORE POP PUSH1 0x40 MLOAD DUP1 PUSH1 0x40 ADD PUSH1 0x40 MSTORE DUP1 PUSH1 0x5 DUP2 MSTORE PUSH1 0x20 ADD PUSH5 0x54494D4253 PUSH1 0xD8 SHL DUP2 MSTORE POP DUP2 PUSH1 0x3 SWAP1 DUP2 PUSH3 0x8B SWAP2 SWAP1 PUSH3 0x5F6 JUMP JUMPDEST POP PUSH1 0x4 PUSH3 0x9A DUP3 DUP3 PUSH3 0x5F6 JUMP JUMPDEST POP POP POP PUSH1 0x1 PUSH1 0x1 PUSH1 0xA0 SHL SUB DUP2 AND PUSH3 0xCD JUMPI PUSH1 0x40 MLOAD PUSH4 0x1E4FBDF7 PUSH1 0xE0 SHL DUP2 MSTORE PUSH1 0x0 PUSH1 0x4 DUP3 ADD MSTORE PUSH1 0x24 ADD JUMPDEST PUSH1 0x40 MLOAD DUP1 SWAP2 SUB SWAP1 REVERT JUMPDEST PUSH3 0xD8 DUP2 PUSH3 0x261 JUMP JUMPDEST POP PUSH1 0x1 PUSH32 0x9B779B17422D0DF92223018B32B4D1FA46E071723D6817E2486D003BECC55F00 SSTORE PUSH1 0x1 PUSH1 0x1 PUSH1 0xA0 SHL SUB DUP4 AND PUSH3 0x125 JUMPI PUSH1 0x40 MLOAD PUSH4 0xD92E233D PUSH1 0xE0 SHL DUP2 MSTORE PUSH1 0x4 ADD PUSH1 0x40 MLOAD DUP1 SWAP2 SUB SWAP1 REVERT JUMPDEST DUP2 PUSH1 0x0 SUB PUSH3 0x147 JUMPI PUSH1 0x40 MLOAD PUSH4 0x1F2A2005 PUSH1 0xE0 SHL DUP2 MSTORE PUSH1 0x4 ADD PUSH1 0x40 MLOAD DUP1 SWAP2 SUB SWAP1 REVERT JUMPDEST PUSH11 0x52B7D2DCC80CD2E4000000 DUP3 GT ISZERO PUSH3 0x189 JUMPI PUSH1 0x40 MLOAD PUSH4 0x3999A0B7 PUSH1 0xE1 SHL DUP2 MSTORE PUSH1 0x4 DUP2 ADD DUP4 SWAP1 MSTORE PUSH11 0x52B7D2DCC80CD2E4000000 PUSH1 0x24 DUP3 ADD MSTORE PUSH1 0x44 ADD PUSH3 0xC4 JUMP JUMPDEST PUSH1 0x6 DUP1 SLOAD PUSH1 0x1 PUSH1 0x1 PUSH1 0xA0 SHL SUB NOT AND PUSH1 0x1 PUSH1 0x1 PUSH1 0xA0 SHL SUB DUP6 AND SWAP1 DUP2 OR SWAP1 SWAP2 SSTORE PUSH1 0xA DUP3 SWAP1 SSTORE PUSH1 0x0 SWAP1 DUP2 MSTORE PUSH1 0xC PUSH1 0x20 MSTORE PUSH1 0x40 DUP1 DUP3 KECCAK256 DUP1 SLOAD PUSH1 0xFF NOT SWAP1 DUP2 AND PUSH1 0x1 SWAP1 DUP2 OR SWAP1 SWAP3 SSTORE CALLER DUP5 MSTORE SWAP2 SWAP1 SWAP3 KECCAK256 DUP1 SLOAD SWAP1 SWAP2 AND SWAP1 SWAP2 OR SWAP1 SSTORE PUSH3 0x1E8 DUP4 DUP4 PUSH3 0x2B3 JUMP JUMPDEST PUSH1 0x40 MLOAD PUSH1 0x1 PUSH1 0x1 PUSH1 0xA0 SHL SUB DUP5 AND SWAP1 PUSH1 0x0 SWAP1 PUSH32 0x4AB5BE82436D353E61CA18726E984E561F5C1CC7C6D38B29D2553C790434705A SWAP1 DUP3 SWAP1 LOG3 PUSH1 0x40 DUP1 MLOAD PUSH1 0x0 DUP2 MSTORE PUSH1 0x20 DUP2 ADD DUP4 SWAP1 MSTORE PUSH32 0x5299E127AC8BDC64FD0E551DD406BA1E1FBAEBC96D458CE9B1A5E69CAECDF376 SWAP2 ADD PUSH1 0x40 MLOAD DUP1 SWAP2 SUB SWAP1 LOG1 POP POP POP PUSH3 0x6EA JUMP JUMPDEST PUSH1 0x5 DUP1 SLOAD PUSH1 0x1 PUSH1 0x1 PUSH1 0xA0 SHL SUB DUP4 DUP2 AND PUSH1 0x1 PUSH1 0x1 PUSH1 0xA0 SHL SUB NOT DUP4 AND DUP2 OR SWAP1 SWAP4 SSTORE PUSH1 0x40 MLOAD SWAP2 AND SWAP2 SWAP1 DUP3 SWAP1 PUSH32 0x8BE0079C531659141344CD1FD0A4F28419497F9722A3DAAFE3B4186F6B6457E0 SWAP1 PUSH1 0x0 SWAP1 LOG3 POP POP JUMP JUMPDEST PUSH1 0x1 PUSH1 0x1 PUSH1 0xA0 SHL SUB DUP3 AND PUSH3 0x2DF JUMPI PUSH1 0x40 MLOAD PUSH4 0xEC442F05 PUSH1 0xE0 SHL DUP2 MSTORE PUSH1 0x0 PUSH1 0x4 DUP3 ADD MSTORE PUSH1 0x24 ADD PUSH3 0xC4 JUMP JUMPDEST PUSH3 0x2ED PUSH1 0x0 DUP4 DUP4 PUSH3 0x2F1 JUMP JUMPDEST POP POP JUMP JUMPDEST PUSH1 0xD SLOAD PUSH1 0xFF AND ISZERO PUSH3 0x316 JUMPI PUSH1 0x40 MLOAD PUSH4 0xCD1FDA9F PUSH1 0xE0 SHL DUP2 MSTORE PUSH1 0x4 ADD PUSH1 0x40 MLOAD DUP1 SWAP2 SUB SWAP1 REVERT JUMPDEST PUSH1 0x1 PUSH1 0x1 PUSH1 0xA0 SHL SUB DUP4 AND ISZERO DUP1 ISZERO SWAP1 PUSH3 0x337 JUMPI POP PUSH1 0x1 PUSH1 0x1 PUSH1 0xA0 SHL SUB DUP3 AND ISZERO ISZERO JUMPDEST ISZERO PUSH3 0x3C8 JUMPI PUSH1 0x0 PUSH1 0xB SLOAD GT DUP1 ISZERO PUSH3 0x369 JUMPI POP PUSH1 0x1 PUSH1 0x1 PUSH1 0xA0 SHL SUB DUP4 AND PUSH1 0x0 SWAP1 DUP2 MSTORE PUSH1 0xC PUSH1 0x20 MSTORE PUSH1 0x40 SWAP1 KECCAK256 SLOAD PUSH1 0xFF AND ISZERO JUMPDEST DUP1 ISZERO PUSH3 0x38F JUMPI POP PUSH1 0x1 PUSH1 0x1 PUSH1 0xA0 SHL SUB DUP3 AND PUSH1 0x0 SWAP1 DUP2 MSTORE PUSH1 0xC PUSH1 0x20 MSTORE PUSH1 0x40 SWAP1 KECCAK256 SLOAD PUSH1 0xFF AND ISZERO JUMPDEST ISZERO PUSH3 0x3C8 JUMPI PUSH1 0xB SLOAD DUP2 GT ISZERO PUSH3 0x3C8 JUMPI PUSH1 0xB SLOAD PUSH1 0x40 MLOAD PUSH4 0x40897271 PUSH1 0xE1 SHL DUP2 MSTORE PUSH3 0xC4 SWAP2 DUP4 SWAP2 PUSH1 0x4 ADD SWAP2 DUP3 MSTORE PUSH1 0x20 DUP3 ADD MSTORE PUSH1 0x40 ADD SWAP1 JUMP JUMPDEST PUSH3 0x3D5 DUP4 DUP4 DUP4 PUSH3 0x3DA JUMP JUMPDEST POP POP POP JUMP JUMPDEST PUSH1 0x1 PUSH1 0x1 PUSH1 0xA0 SHL SUB DUP4 AND PUSH3 0x409 JUMPI DUP1 PUSH1 0x2 PUSH1 0x0 DUP3 DUP3 SLOAD PUSH3 0x3FD SWAP2 SWAP1 PUSH3 0x6C2 JUMP JUMPDEST SWAP1 SWAP2 SSTORE POP PUSH3 0x47D SWAP1 POP JUMP JUMPDEST PUSH1 0x1 PUSH1 0x1 PUSH1 0xA0 SHL SUB DUP4 AND PUSH1 0x0 SWAP1 DUP2 MSTORE PUSH1 0x20 DUP2 SWAP1 MSTORE PUSH1 0x40 SWAP1 KECCAK256 SLOAD DUP2 DUP2 LT ISZERO PUSH3 0x45E JUMPI PUSH1 0x40 MLOAD PUSH4 0x391434E3 PUSH1 0xE2 SHL DUP2 MSTORE PUSH1 0x1 PUSH1 0x1 PUSH1 0xA0 SHL SUB DUP6 AND PUSH1 0x4 DUP3 ADD MSTORE PUSH1 0x24 DUP2 ADD DUP3 SWAP1 MSTORE PUSH1 0x44 DUP2 ADD DUP4 SWAP1 MSTORE PUSH1 0x64 ADD PUSH3 0xC4 JUMP JUMPDEST PUSH1 0x1 PUSH1 0x1 PUSH1 0xA0 SHL SUB DUP5 AND PUSH1 0x0 SWAP1 DUP2 MSTORE PUSH1 0x20 DUP2 SWAP1 MSTORE PUSH1 0x40 SWAP1 KECCAK256 SWAP1 DUP3 SWAP1 SUB SWAP1 SSTORE JUMPDEST PUSH1 0x1 PUSH1 0x1 PUSH1 0xA0 SHL SUB DUP3 AND PUSH3 0x49B JUMPI PUSH1 0x2 DUP1 SLOAD DUP3 SWAP1 SUB SWAP1 SSTORE PUSH3 0x4BA JUMP JUMPDEST PUSH1 0x1 PUSH1 0x1 PUSH1 0xA0 SHL SUB DUP3 AND PUSH1 0x0 SWAP1 DUP2 MSTORE PUSH1 0x20 DUP2 SWAP1 MSTORE PUSH1 0x40 SWAP1 KECCAK256 DUP1 SLOAD DUP3 ADD SWAP1 SSTORE JUMPDEST DUP2 PUSH1 0x1 PUSH1 0x1 PUSH1 0xA0 SHL SUB AND DUP4 PUSH1 0x1 PUSH1 0x1 PUSH1 0xA0 SHL SUB AND PUSH32 0xDDF252AD1BE2C89B69C2B068FC378DAA952BA7F163C4A11628F55A4DF523B3EF DUP4 PUSH1 0x40 MLOAD PUSH3 0x500 SWAP2 DUP2 MSTORE PUSH1 0x20 ADD SWAP1 JUMP JUMPDEST PUSH1 0x40 MLOAD DUP1 SWAP2 SUB SWAP1 LOG3 POP POP POP JUMP JUMPDEST PUSH1 0x0 DUP1 PUSH1 0x0 PUSH1 0x60 DUP5 DUP7 SUB SLT ISZERO PUSH3 0x523 JUMPI PUSH1 0x0 DUP1 REVERT JUMPDEST DUP4 MLOAD PUSH1 0x1 PUSH1 0x1 PUSH1 0xA0 SHL SUB DUP2 AND DUP2 EQ PUSH3 0x53B JUMPI PUSH1 0x0 DUP1 REVERT JUMPDEST PUSH1 0x20 DUP6 ADD MLOAD PUSH1 0x40 SWAP1 SWAP6 ADD MLOAD SWAP1 SWAP7 SWAP5 SWAP6 POP SWAP4 SWAP3 POP POP POP JUMP JUMPDEST PUSH4 0x4E487B71 PUSH1 0xE0 SHL PUSH1 0x0 MSTORE PUSH1 0x41 PUSH1 0x4 MSTORE PUSH1 0x24 PUSH1 0x0 REVERT JUMPDEST PUSH1 0x1 DUP2 DUP2 SHR SWAP1 DUP3 AND DUP1 PUSH3 0x57D JUMPI PUSH1 0x7F DUP3 AND SWAP2 POP JUMPDEST PUSH1 0x20 DUP3 LT DUP2 SUB PUSH3 0x59E JUMPI PUSH4 0x4E487B71 PUSH1 0xE0 SHL PUSH1 0x0 MSTORE PUSH1 0x22 PUSH1 0x4 MSTORE PUSH1 0x24 PUSH1 0x0 REVERT JUMPDEST POP SWAP2 SWAP1 POP JUMP JUMPDEST PUSH1 0x1F DUP3 GT ISZERO PUSH3 0x3D5 JUMPI PUSH1 0x0 DUP2 DUP2 MSTORE PUSH1 0x20 DUP2 KECCAK256 PUSH1 0x1F DUP6 ADD PUSH1 0x5 SHR DUP2 ADD PUSH1 0x20 DUP7 LT ISZERO PUSH3 0x5CD JUMPI POP DUP1 JUMPDEST PUSH1 0x1F DUP6 ADD PUSH1 0x5 SHR DUP3 ADD SWAP2 POP JUMPDEST DUP2 DUP2 LT ISZERO PUSH3 0x5EE JUMPI DUP3 DUP2 SSTORE PUSH1 0x1 ADD PUSH3 0x5D9 JUMP JUMPDEST POP POP POP POP POP POP JUMP JUMPDEST DUP2 MLOAD PUSH1 0x1 PUSH1 0x1 PUSH1 0x40 SHL SUB DUP2 GT ISZERO PUSH3 0x612 JUMPI PUSH3 0x612 PUSH3 0x552 JUMP JUMPDEST PUSH3 0x62A DUP2 PUSH3 0x623 DUP5 SLOAD PUSH3 0x568 JUMP JUMPDEST DUP5 PUSH3 0x5A4 JUMP JUMPDEST PUSH1 0x20 DUP1 PUSH1 0x1F DUP4 GT PUSH1 0x1 DUP2 EQ PUSH3 0x662 JUMPI PUSH1 0x0 DUP5 ISZERO PUSH3 0x649 JUMPI POP DUP6 DUP4 ADD MLOAD JUMPDEST PUSH1 0x0 NOT PUSH1 0x3 DUP7 SWAP1 SHL SHR NOT AND PUSH1 0x1 DUP6 SWAP1 SHL OR DUP6 SSTORE PUSH3 0x5EE JUMP JUMPDEST PUSH1 0x0 DUP6 DUP2 MSTORE PUSH1 0x20 DUP2 KECCAK256 PUSH1 0x1F NOT DUP7 AND SWAP2 JUMPDEST DUP3 DUP2 LT ISZERO PUSH3 0x693 JUMPI DUP9 DUP7 ADD MLOAD DUP3 SSTORE SWAP5 DUP5 ADD SWAP5 PUSH1 0x1 SWAP1 SWAP2 ADD SWAP1 DUP5 ADD PUSH3 0x672 JUMP JUMPDEST POP DUP6 DUP3 LT ISZERO PUSH3 0x6B2 JUMPI DUP8 DUP6 ADD MLOAD PUSH1 0x0 NOT PUSH1 0x3 DUP9 SWAP1 SHL PUSH1 0xF8 AND SHR NOT AND DUP2 SSTORE JUMPDEST POP POP POP POP POP PUSH1 0x1 SWAP1 DUP2 SHL ADD SWAP1 SSTORE POP JUMP JUMPDEST DUP1 DUP3 ADD DUP1 DUP3 GT ISZERO PUSH3 0x6E4 JUMPI PUSH4 0x4E487B71 PUSH1 0xE0 SHL PUSH1 0x0 MSTORE PUSH1 0x11 PUSH1 0x4 MSTORE PUSH1 0x24 PUSH1 0x0 REVERT JUMPDEST SWAP3 SWAP2 POP POP JUMP JUMPDEST PUSH2 0x1345 DUP1 PUSH3 0x6FA PUSH1 0x0 CODECOPY PUSH1 0x0 RETURN INVALID PUSH1 0x80 PUSH1 0x40 MSTORE CALLVALUE DUP1 ISZERO PUSH2 0x10 JUMPI PUSH1 0x0 DUP1 REVERT JUMPDEST POP PUSH1 0x4 CALLDATASIZE LT PUSH2 0x211 JUMPI PUSH1 0x0 CALLDATALOAD PUSH1 0xE0 SHR DUP1 PUSH4 0x715018A6 GT PUSH2 0x125 JUMPI DUP1 PUSH4 0xA1BDB15E GT PUSH2 0xAD JUMPI DUP1 PUSH4 0xD89A6FA6 GT PUSH2 0x7C JUMPI DUP1 PUSH4 0xD89A6FA6 EQ PUSH2 0x43C JUMPI DUP1 PUSH4 0xDD62ED3E EQ PUSH2 0x44F JUMPI DUP1 PUSH4 0xE4A34DCE EQ PUSH2 0x488 JUMPI DUP1 PUSH4 0xF0F44260 EQ PUSH2 0x49B JUMPI DUP1 PUSH4 0xF2FDE38B EQ PUSH2 0x4AE JUMPI PUSH1 0x0 DUP1 REVERT JUMPDEST DUP1 PUSH4 0xA1BDB15E EQ PUSH2 0x405 JUMPI DUP1 PUSH4 0xA9059CBB EQ PUSH2 0x418 JUMPI DUP1 PUSH4 0xA9E75723 EQ PUSH2 0x42B JUMPI DUP1 PUSH4 0xAE11C4BC EQ PUSH2 0x434 JUMPI PUSH1 0x0 DUP1 REVERT JUMPDEST DUP1 PUSH4 0x83D5D801 GT PUSH2 0xF4 JUMPI DUP1 PUSH4 0x83D5D801 EQ PUSH2 0x3CA JUMPI DUP1 PUSH4 0x8456CB59 EQ PUSH2 0x3D1 JUMPI DUP1 PUSH4 0x8BF55409 EQ PUSH2 0x3D9 JUMPI DUP1 PUSH4 0x8DA5CB5B EQ PUSH2 0x3EC JUMPI DUP1 PUSH4 0x95D89B41 EQ PUSH2 0x3FD JUMPI PUSH1 0x0 DUP1 REVERT JUMPDEST DUP1 PUSH4 0x715018A6 EQ PUSH2 0x379 JUMPI DUP1 PUSH4 0x79CC6790 EQ PUSH2 0x381 JUMPI DUP1 PUSH4 0x7C562A94 EQ PUSH2 0x394 JUMPI DUP1 PUSH4 0x7FFBE241 EQ PUSH2 0x3A7 JUMPI PUSH1 0x0 DUP1 REVERT JUMPDEST DUP1 PUSH4 0x313CE567 GT PUSH2 0x1A8 JUMPI DUP1 PUSH4 0x42966C68 GT PUSH2 0x177 JUMPI DUP1 PUSH4 0x42966C68 EQ PUSH2 0x314 JUMPI DUP1 PUSH4 0x45C952CB EQ PUSH2 0x327 JUMPI DUP1 PUSH4 0x5C975ABB EQ PUSH2 0x330 JUMPI DUP1 PUSH4 0x61D027B3 EQ PUSH2 0x33D JUMPI DUP1 PUSH4 0x70A08231 EQ PUSH2 0x350 JUMPI PUSH1 0x0 DUP1 REVERT JUMPDEST DUP1 PUSH4 0x313CE567 EQ PUSH2 0x2E2 JUMPI DUP1 PUSH4 0x3A03171C EQ PUSH2 0x2F1 JUMPI DUP1 PUSH4 0x3F4BA83A EQ PUSH2 0x303 JUMPI DUP1 PUSH4 0x4214E0AF EQ PUSH2 0x30B JUMPI PUSH1 0x0 DUP1 REVERT JUMPDEST DUP1 PUSH4 0x21D66353 GT PUSH2 0x1E4 JUMPI DUP1 PUSH4 0x21D66353 EQ PUSH2 0x294 JUMPI DUP1 PUSH4 0x23B872DD EQ PUSH2 0x2A9 JUMPI DUP1 PUSH4 0x296ED9F4 EQ PUSH2 0x2BC JUMPI DUP1 PUSH4 0x3028F63A EQ PUSH2 0x2CF JUMPI PUSH1 0x0 DUP1 REVERT JUMPDEST DUP1 PUSH4 0x6FDDE03 EQ PUSH2 0x216 JUMPI DUP1 PUSH4 0x95EA7B3 EQ PUSH2 0x234 JUMPI DUP1 PUSH4 0xC56AE3B EQ PUSH2 0x257 JUMPI DUP1 PUSH4 0x18160DDD EQ PUSH2 0x282 JUMPI JUMPDEST PUSH1 0x0 DUP1 REVERT JUMPDEST PUSH2 0x21E PUSH2 0x4C1 JUMP JUMPDEST PUSH1 0x40 MLOAD PUSH2 0x22B SWAP2 SWAP1 PUSH2 0x111F JUMP JUMPDEST PUSH1 0x40 MLOAD DUP1 SWAP2 SUB SWAP1 RETURN JUMPDEST PUSH2 0x247 PUSH2 0x242 CALLDATASIZE PUSH1 0x4 PUSH2 0x1189 JUMP JUMPDEST PUSH2 0x553 JUMP JUMPDEST PUSH1 0x40 MLOAD SWAP1 ISZERO ISZERO DUP2 MSTORE PUSH1 0x20 ADD PUSH2 0x22B JUMP JUMPDEST PUSH1 0x7 SLOAD PUSH2 0x26A SWAP1 PUSH1 0x1 PUSH1 0x1 PUSH1 0xA0 SHL SUB AND DUP2 JUMP JUMPDEST PUSH1 0x40 MLOAD PUSH1 0x1 PUSH1 0x1 PUSH1 0xA0 SHL SUB SWAP1 SWAP2 AND DUP2 MSTORE PUSH1 0x20 ADD PUSH2 0x22B JUMP JUMPDEST PUSH1 0x2 SLOAD JUMPDEST PUSH1 0x40 MLOAD SWAP1 DUP2 MSTORE PUSH1 0x20 ADD PUSH2 0x22B JUMP JUMPDEST PUSH2 0x2A7 PUSH2 0x2A2 CALLDATASIZE PUSH1 0x4 PUSH2 0x11B3 JUMP JUMPDEST PUSH2 0x56D JUMP JUMPDEST STOP JUMPDEST PUSH2 0x247 PUSH2 0x2B7 CALLDATASIZE PUSH1 0x4 PUSH2 0x11CC JUMP JUMPDEST PUSH2 0x5D7 JUMP JUMPDEST PUSH2 0x2A7 PUSH2 0x2CA CALLDATASIZE PUSH1 0x4 PUSH2 0x1189 JUMP JUMPDEST PUSH2 0x5FB JUMP JUMPDEST PUSH2 0x2A7 PUSH2 0x2DD CALLDATASIZE PUSH1 0x4 PUSH2 0x1208 JUMP JUMPDEST PUSH2 0x773 JUMP JUMPDEST PUSH1 0x40 MLOAD PUSH1 0x12 DUP2 MSTORE PUSH1 0x20 ADD PUSH2 0x22B JUMP JUMPDEST PUSH2 0x286 PUSH11 0x52B7D2DCC80CD2E4000000 DUP2 JUMP JUMPDEST PUSH2 0x2A7 PUSH2 0x836 JUMP JUMPDEST PUSH2 0x286 PUSH1 0x9 SLOAD DUP2 JUMP JUMPDEST PUSH2 0x2A7 PUSH2 0x322 CALLDATASIZE PUSH1 0x4 PUSH2 0x11B3 JUMP JUMPDEST PUSH2 0x875 JUMP JUMPDEST PUSH2 0x286 PUSH1 0xA SLOAD DUP2 JUMP JUMPDEST PUSH1 0xD SLOAD PUSH2 0x247 SWAP1 PUSH1 0xFF AND DUP2 JUMP JUMPDEST PUSH1 0x6 SLOAD PUSH2 0x26A SWAP1 PUSH1 0x1 PUSH1 0x1 PUSH1 0xA0 SHL SUB AND DUP2 JUMP JUMPDEST PUSH2 0x286 PUSH2 0x35E CALLDATASIZE PUSH1 0x4 PUSH2 0x1208 JUMP JUMPDEST PUSH1 0x1 PUSH1 0x1 PUSH1 0xA0 SHL SUB AND PUSH1 0x0 SWAP1 DUP2 MSTORE PUSH1 0x20 DUP2 SWAP1 MSTORE PUSH1 0x40 SWAP1 KECCAK256 SLOAD SWAP1 JUMP JUMPDEST PUSH2 0x2A7 PUSH2 0x882 JUMP JUMPDEST PUSH2 0x2A7 PUSH2 0x38F CALLDATASIZE PUSH1 0x4 PUSH2 0x1189 JUMP JUMPDEST PUSH2 0x896 JUMP JUMPDEST PUSH2 0x2A7 PUSH2 0x3A2 CALLDATASIZE PUSH1 0x4 PUSH2 0x1208 JUMP JUMPDEST PUSH2 0x8AB JUMP JUMPDEST PUSH2 0x247 PUSH2 0x3B5 CALLDATASIZE PUSH1 0x4 PUSH2 0x1208 JUMP JUMPDEST PUSH1 0xC PUSH1 0x20 MSTORE PUSH1 0x0 SWAP1 DUP2 MSTORE PUSH1 0x40 SWAP1 KECCAK256 SLOAD PUSH1 0xFF AND DUP2 JUMP JUMPDEST PUSH1 0x0 PUSH2 0x286 JUMP JUMPDEST PUSH2 0x2A7 PUSH2 0x96E JUMP JUMPDEST PUSH2 0x2A7 PUSH2 0x3E7 CALLDATASIZE PUSH1 0x4 PUSH2 0x11B3 JUMP JUMPDEST PUSH2 0x9B0 JUMP JUMPDEST PUSH1 0x5 SLOAD PUSH1 0x1 PUSH1 0x1 PUSH1 0xA0 SHL SUB AND PUSH2 0x26A JUMP JUMPDEST PUSH2 0x21E PUSH2 0x9F4 JUMP JUMPDEST PUSH2 0x2A7 PUSH2 0x413 CALLDATASIZE PUSH1 0x4 PUSH2 0x11B3 JUMP JUMPDEST PUSH2 0xA03 JUMP JUMPDEST PUSH2 0x247 PUSH2 0x426 CALLDATASIZE PUSH1 0x4 PUSH2 0x1189 JUMP JUMPDEST PUSH2 0xA40 JUMP JUMPDEST PUSH2 0x286 PUSH1 0xB SLOAD DUP2 JUMP JUMPDEST PUSH2 0x286 PUSH2 0xA4E JUMP JUMPDEST PUSH1 0x8 SLOAD PUSH2 0x26A SWAP1 PUSH1 0x1 PUSH1 0x1 PUSH1 0xA0 SHL SUB AND DUP2 JUMP JUMPDEST PUSH2 0x286 PUSH2 0x45D CALLDATASIZE PUSH1 0x4 PUSH2 0x122A JUMP JUMPDEST PUSH1 0x1 PUSH1 0x1 PUSH1 0xA0 SHL SUB SWAP2 DUP3 AND PUSH1 0x0 SWAP1 DUP2 MSTORE PUSH1 0x1 PUSH1 0x20 SWAP1 DUP2 MSTORE PUSH1 0x40 DUP1 DUP4 KECCAK256 SWAP4 SWAP1 SWAP5 AND DUP3 MSTORE SWAP2 SWAP1 SWAP2 MSTORE KECCAK256 SLOAD SWAP1 JUMP JUMPDEST PUSH2 0x2A7 PUSH2 0x496 CALLDATASIZE PUSH1 0x4 PUSH2 0x125D JUMP JUMPDEST PUSH2 0xA73 JUMP JUMPDEST PUSH2 0x2A7 PUSH2 0x4A9 CALLDATASIZE PUSH1 0x4 PUSH2 0x1208 JUMP JUMPDEST PUSH2 0xB01 JUMP JUMPDEST PUSH2 0x2A7 PUSH2 0x4BC CALLDATASIZE PUSH1 0x4 PUSH2 0x1208 JUMP JUMPDEST PUSH2 0xBC0 JUMP JUMPDEST PUSH1 0x60 PUSH1 0x3 DUP1 SLOAD PUSH2 0x4D0 SWAP1 PUSH2 0x1299 JUMP JUMPDEST DUP1 PUSH1 0x1F ADD PUSH1 0x20 DUP1 SWAP2 DIV MUL PUSH1 0x20 ADD PUSH1 0x40 MLOAD SWAP1 DUP2 ADD PUSH1 0x40 MSTORE DUP1 SWAP3 SWAP2 SWAP1 DUP2 DUP2 MSTORE PUSH1 0x20 ADD DUP3 DUP1 SLOAD PUSH2 0x4FC SWAP1 PUSH2 0x1299 JUMP JUMPDEST DUP1 ISZERO PUSH2 0x549 JUMPI DUP1 PUSH1 0x1F LT PUSH2 0x51E JUMPI PUSH2 0x100 DUP1 DUP4 SLOAD DIV MUL DUP4 MSTORE SWAP2 PUSH1 0x20 ADD SWAP2 PUSH2 0x549 JUMP JUMPDEST DUP3 ADD SWAP2 SWAP1 PUSH1 0x0 MSTORE PUSH1 0x20 PUSH1 0x0 KECCAK256 SWAP1 JUMPDEST DUP2 SLOAD DUP2 MSTORE SWAP1 PUSH1 0x1 ADD SWAP1 PUSH1 0x20 ADD DUP1 DUP4 GT PUSH2 0x52C JUMPI DUP3 SWAP1 SUB PUSH1 0x1F AND DUP3 ADD SWAP2 JUMPDEST POP POP POP POP POP SWAP1 POP SWAP1 JUMP JUMPDEST PUSH1 0x0 CALLER PUSH2 0x561 DUP2 DUP6 DUP6 PUSH2 0xBFB JUMP JUMPDEST PUSH1 0x1 SWAP2 POP POP JUMPDEST SWAP3 SWAP2 POP POP JUMP JUMPDEST PUSH2 0x575 PUSH2 0xC0D JUMP JUMPDEST DUP1 PUSH1 0x0 SUB PUSH2 0x596 JUMPI PUSH1 0x40 MLOAD PUSH4 0x1F2A2005 PUSH1 0xE0 SHL DUP2 MSTORE PUSH1 0x4 ADD PUSH1 0x40 MLOAD DUP1 SWAP2 SUB SWAP1 REVERT JUMPDEST PUSH1 0xA SLOAD PUSH1 0x40 DUP1 MLOAD SWAP2 DUP3 MSTORE PUSH1 0x20 DUP3 ADD DUP4 SWAP1 MSTORE PUSH32 0x5299E127AC8BDC64FD0E551DD406BA1E1FBAEBC96D458CE9B1A5E69CAECDF376 SWAP2 ADD PUSH1 0x40 MLOAD DUP1 SWAP2 SUB SWAP1 LOG1 PUSH1 0xA SSTORE JUMP JUMPDEST PUSH1 0x0 CALLER PUSH2 0x5E5 DUP6 DUP3 DUP6 PUSH2 0xC3A JUMP JUMPDEST PUSH2 0x5F0 DUP6 DUP6 DUP6 PUSH2 0xCB9 JUMP JUMPDEST POP PUSH1 0x1 SWAP5 SWAP4 POP POP POP POP JUMP JUMPDEST PUSH2 0x603 PUSH2 0xD18 JUMP JUMPDEST PUSH1 0x7 SLOAD PUSH1 0x1 PUSH1 0x1 PUSH1 0xA0 SHL SUB AND CALLER EQ DUP1 ISZERO SWAP1 PUSH2 0x629 JUMPI POP PUSH1 0x8 SLOAD PUSH1 0x1 PUSH1 0x1 PUSH1 0xA0 SHL SUB AND CALLER EQ ISZERO JUMPDEST DUP1 ISZERO PUSH2 0x640 JUMPI POP PUSH1 0x5 SLOAD PUSH1 0x1 PUSH1 0x1 PUSH1 0xA0 SHL SUB AND CALLER EQ ISZERO JUMPDEST ISZERO PUSH2 0x65E JUMPI PUSH1 0x40 MLOAD PUSH4 0x19A5D1D PUSH1 0xE7 SHL DUP2 MSTORE PUSH1 0x4 ADD PUSH1 0x40 MLOAD DUP1 SWAP2 SUB SWAP1 REVERT JUMPDEST PUSH1 0x1 PUSH1 0x1 PUSH1 0xA0 SHL SUB DUP3 AND PUSH2 0x685 JUMPI PUSH1 0x40 MLOAD PUSH4 0xD92E233D PUSH1 0xE0 SHL DUP2 MSTORE PUSH1 0x4 ADD PUSH1 0x40 MLOAD DUP1 SWAP2 SUB SWAP1 REVERT JUMPDEST DUP1 PUSH1 0x0 SUB PUSH2 0x6A6 JUMPI PUSH1 0x40 MLOAD PUSH4 0x1F2A2005 PUSH1 0xE0 SHL DUP2 MSTORE PUSH1 0x4 ADD PUSH1 0x40 MLOAD DUP1 SWAP2 SUB SWAP1 REVERT JUMPDEST PUSH1 0x0 PUSH2 0x6B1 PUSH1 0x2 SLOAD SWAP1 JUMP JUMPDEST PUSH2 0x6C6 SWAP1 PUSH11 0x52B7D2DCC80CD2E4000000 PUSH2 0x12E9 JUMP JUMPDEST SWAP1 POP DUP1 DUP3 GT ISZERO PUSH2 0x6F8 JUMPI PUSH1 0x40 MLOAD PUSH4 0x3999A0B7 PUSH1 0xE1 SHL DUP2 MSTORE PUSH1 0x4 DUP2 ADD DUP4 SWAP1 MSTORE PUSH1 0x24 DUP2 ADD DUP3 SWAP1 MSTORE PUSH1 0x44 ADD JUMPDEST PUSH1 0x40 MLOAD DUP1 SWAP2 SUB SWAP1 REVERT JUMPDEST PUSH2 0x702 DUP4 DUP4 PUSH2 0xD46 JUMP JUMPDEST DUP3 PUSH1 0x1 PUSH1 0x1 PUSH1 0xA0 SHL SUB AND PUSH32 0x64E4BB1BD66F16486C6FF3BF1E7EE4919E2E2DC7B134E2ED9FBD814A9949FE6B DUP4 PUSH1 0x40 MLOAD PUSH2 0x73D SWAP2 DUP2 MSTORE PUSH1 0x20 ADD SWAP1 JUMP JUMPDEST PUSH1 0x40 MLOAD DUP1 SWAP2 SUB SWAP1 LOG2 POP PUSH2 0x76F PUSH1 0x1 PUSH32 0x9B779B17422D0DF92223018B32B4D1FA46E071723D6817E2486D003BECC55F00 SSTORE JUMP JUMPDEST POP POP JUMP JUMPDEST PUSH2 0x77B PUSH2 0xC0D JUMP JUMPDEST PUSH1 0x1 PUSH1 0x1 PUSH1 0xA0 SHL SUB DUP2 AND PUSH2 0x7A2 JUMPI PUSH1 0x40 MLOAD PUSH4 0xD92E233D PUSH1 0xE0 SHL DUP2 MSTORE PUSH1 0x4 ADD PUSH1 0x40 MLOAD DUP1 SWAP2 SUB SWAP1 REVERT JUMPDEST PUSH1 0x7 SLOAD PUSH1 0x1 PUSH1 0x1 PUSH1 0xA0 SHL SUB AND ISZERO PUSH2 0x7D6 JUMPI PUSH1 0x7 SLOAD PUSH1 0x1 PUSH1 0x1 PUSH1 0xA0 SHL SUB AND PUSH1 0x0 SWAP1 DUP2 MSTORE PUSH1 0xC PUSH1 0x20 MSTORE PUSH1 0x40 SWAP1 KECCAK256 DUP1 SLOAD PUSH1 0xFF NOT AND SWAP1 SSTORE JUMPDEST PUSH1 0x7 DUP1 SLOAD PUSH1 0x1 PUSH1 0x1 PUSH1 0xA0 SHL SUB NOT AND PUSH1 0x1 PUSH1 0x1 PUSH1 0xA0 SHL SUB DUP4 AND SWAP1 DUP2 OR SWAP1 SWAP2 SSTORE PUSH1 0x0 DUP2 DUP2 MSTORE PUSH1 0xC PUSH1 0x20 MSTORE PUSH1 0x40 DUP1 DUP3 KECCAK256 DUP1 SLOAD PUSH1 0xFF NOT AND PUSH1 0x1 OR SWAP1 SSTORE MLOAD PUSH32 0x6FCA2E06BB34845F84427E65445730E7E00FAF72AD37F6485B24DE98F103BB06 SWAP2 SWAP1 LOG2 POP JUMP JUMPDEST PUSH2 0x83E PUSH2 0xC0D JUMP JUMPDEST PUSH1 0xD DUP1 SLOAD PUSH1 0xFF NOT AND SWAP1 SSTORE PUSH1 0x40 MLOAD CALLER SWAP1 PUSH32 0x5DB9EE0A495BF2E6FF9C91A7834C1BA4FDD244A5E8AA4E537BD38AEAE4B073AA SWAP1 PUSH1 0x0 SWAP1 LOG2 JUMP JUMPDEST PUSH2 0x87F CALLER DUP3 PUSH2 0xD7C JUMP JUMPDEST POP JUMP JUMPDEST PUSH2 0x88A PUSH2 0xC0D JUMP JUMPDEST PUSH2 0x894 PUSH1 0x0 PUSH2 0xDB2 JUMP JUMPDEST JUMP JUMPDEST PUSH2 0x8A1 DUP3 CALLER DUP4 PUSH2 0xC3A JUMP JUMPDEST PUSH2 0x76F DUP3 DUP3 PUSH2 0xD7C JUMP JUMPDEST PUSH2 0x8B3 PUSH2 0xC0D JUMP JUMPDEST PUSH1 0x1 PUSH1 0x1 PUSH1 0xA0 SHL SUB DUP2 AND PUSH2 0x8DA JUMPI PUSH1 0x40 MLOAD PUSH4 0xD92E233D PUSH1 0xE0 SHL DUP2 MSTORE PUSH1 0x4 ADD PUSH1 0x40 MLOAD DUP1 SWAP2 SUB SWAP1 REVERT JUMPDEST PUSH1 0x8 SLOAD PUSH1 0x1 PUSH1 0x1 PUSH1 0xA0 SHL SUB AND ISZERO PUSH2 0x90E JUMPI PUSH1 0x8 SLOAD PUSH1 0x1 PUSH1 0x1 PUSH1 0xA0 SHL SUB AND PUSH1 0x0 SWAP1 DUP2 MSTORE PUSH1 0xC PUSH1 0x20 MSTORE PUSH1 0x40 SWAP1 KECCAK256 DUP1 SLOAD PUSH1 0xFF NOT AND SWAP1 SSTORE JUMPDEST PUSH1 0x8 DUP1 SLOAD PUSH1 0x1 PUSH1 0x1 PUSH1 0xA0 SHL SUB NOT AND PUSH1 0x1 PUSH1 0x1 PUSH1 0xA0 SHL SUB DUP4 AND SWAP1 DUP2 OR SWAP1 SWAP2 SSTORE PUSH1 0x0 DUP2 DUP2 MSTORE PUSH1 0xC PUSH1 0x20 MSTORE PUSH1 0x40 DUP1 DUP3 KECCAK256 DUP1 SLOAD PUSH1 0xFF NOT AND PUSH1 0x1 OR SWAP1 SSTORE MLOAD PUSH32 0x984594D51CB2B9061C64322CC955DC1CF1E8BF0F73512BA8221E4DB196BE16A SWAP2 SWAP1 LOG2 POP JUMP JUMPDEST PUSH2 0x976 PUSH2 0xC0D JUMP JUMPDEST PUSH1 0xD DUP1 SLOAD PUSH1 0xFF NOT AND PUSH1 0x1 OR SWAP1 SSTORE PUSH1 0x40 MLOAD CALLER SWAP1 PUSH32 0x62E78CEA01BEE320CD4E420270B5EA74000D11B0C9F74754EBDBFC544B05A258 SWAP1 PUSH1 0x0 SWAP1 LOG2 JUMP JUMPDEST PUSH2 0x9B8 PUSH2 0xC0D JUMP JUMPDEST PUSH1 0xB DUP2 SWAP1 SSTORE PUSH1 0x40 MLOAD DUP2 DUP2 MSTORE PUSH32 0xD82D7466DBFB0B68291841D1ADF74DF365A848CD534D11E8C6B238EC9FB5EBE6 SWAP1 PUSH1 0x20 ADD JUMPDEST PUSH1 0x40 MLOAD DUP1 SWAP2 SUB SWAP1 LOG1 POP JUMP JUMPDEST PUSH1 0x60 PUSH1 0x4 DUP1 SLOAD PUSH2 0x4D0 SWAP1 PUSH2 0x1299 JUMP JUMPDEST PUSH2 0xA0B PUSH2 0xC0D JUMP JUMPDEST PUSH1 0x9 DUP2 SWAP1 SSTORE PUSH1 0x40 MLOAD DUP2 DUP2 MSTORE PUSH32 0x10A8B7CB1FAAB491ACF8E175333E56C4BF4AD24AE1927DC38925AC085085F71 SWAP1 PUSH1 0x20 ADD PUSH2 0x9E9 JUMP JUMPDEST PUSH1 0x0 CALLER PUSH2 0x561 DUP2 DUP6 DUP6 PUSH2 0xCB9 JUMP JUMPDEST PUSH1 0x0 PUSH2 0xA59 PUSH1 0x2 SLOAD SWAP1 JUMP JUMPDEST PUSH2 0xA6E SWAP1 PUSH11 0x52B7D2DCC80CD2E4000000 PUSH2 0x12E9 JUMP JUMPDEST SWAP1 POP SWAP1 JUMP JUMPDEST PUSH2 0xA7B PUSH2 0xC0D JUMP JUMPDEST PUSH1 0x1 PUSH1 0x1 PUSH1 0xA0 SHL SUB DUP3 AND PUSH2 0xAA2 JUMPI PUSH1 0x40 MLOAD PUSH4 0xD92E233D PUSH1 0xE0 SHL DUP2 MSTORE PUSH1 0x4 ADD PUSH1 0x40 MLOAD DUP1 SWAP2 SUB SWAP1 REVERT JUMPDEST PUSH1 0x1 PUSH1 0x1 PUSH1 0xA0 SHL SUB DUP3 AND PUSH1 0x0 DUP2 DUP2 MSTORE PUSH1 0xC PUSH1 0x20 SWAP1 DUP2 MSTORE PUSH1 0x40 SWAP2 DUP3 SWAP1 KECCAK256 DUP1 SLOAD PUSH1 0xFF NOT AND DUP6 ISZERO ISZERO SWAP1 DUP2 OR SWAP1 SWAP2 SSTORE SWAP2 MLOAD SWAP2 DUP3 MSTORE PUSH32 0xE3B4918D2544570F4FD920CE69294772100C0D60360C88D94C56FADBBEF76CB1 SWAP2 ADD PUSH1 0x40 MLOAD DUP1 SWAP2 SUB SWAP1 LOG2 POP POP JUMP JUMPDEST PUSH2 0xB09 PUSH2 0xC0D JUMP JUMPDEST PUSH1 0x1 PUSH1 0x1 PUSH1 0xA0 SHL SUB DUP2 AND PUSH2 0xB30 JUMPI PUSH1 0x40 MLOAD PUSH4 0xD92E233D PUSH1 0xE0 SHL DUP2 MSTORE PUSH1 0x4 ADD PUSH1 0x40 MLOAD DUP1 SWAP2 SUB SWAP1 REVERT JUMPDEST PUSH1 0x6 DUP1 SLOAD PUSH1 0x1 PUSH1 0x1 PUSH1 0xA0 SHL SUB SWAP1 DUP2 AND PUSH1 0x0 SWAP1 DUP2 MSTORE PUSH1 0xC PUSH1 0x20 MSTORE PUSH1 0x40 DUP1 DUP3 KECCAK256 DUP1 SLOAD PUSH1 0xFF NOT AND SWAP1 SSTORE SWAP3 SLOAD SWAP3 MLOAD DUP5 DUP4 AND SWAP4 SWAP1 SWAP3 AND SWAP2 PUSH32 0x4AB5BE82436D353E61CA18726E984E561F5C1CC7C6D38B29D2553C790434705A SWAP2 SWAP1 LOG3 PUSH1 0x6 DUP1 SLOAD PUSH1 0x1 PUSH1 0x1 PUSH1 0xA0 SHL SUB SWAP1 SWAP3 AND PUSH1 0x1 PUSH1 0x1 PUSH1 0xA0 SHL SUB NOT SWAP1 SWAP3 AND DUP3 OR SWAP1 SSTORE PUSH1 0x0 SWAP1 DUP2 MSTORE PUSH1 0xC PUSH1 0x20 MSTORE PUSH1 0x40 SWAP1 KECCAK256 DUP1 SLOAD PUSH1 0xFF NOT AND PUSH1 0x1 OR SWAP1 SSTORE JUMP JUMPDEST PUSH2 0xBC8 PUSH2 0xC0D JUMP JUMPDEST PUSH1 0x1 PUSH1 0x1 PUSH1 0xA0 SHL SUB DUP2 AND PUSH2 0xBF2 JUMPI PUSH1 0x40 MLOAD PUSH4 0x1E4FBDF7 PUSH1 0xE0 SHL DUP2 MSTORE PUSH1 0x0 PUSH1 0x4 DUP3 ADD MSTORE PUSH1 0x24 ADD PUSH2 0x6EF JUMP JUMPDEST PUSH2 0x87F DUP2 PUSH2 0xDB2 JUMP JUMPDEST PUSH2 0xC08 DUP4 DUP4 DUP4 PUSH1 0x1 PUSH2 0xE04 JUMP JUMPDEST POP POP POP JUMP JUMPDEST PUSH1 0x5 SLOAD PUSH1 0x1 PUSH1 0x1 PUSH1 0xA0 SHL SUB AND CALLER EQ PUSH2 0x894 JUMPI PUSH1 0x40 MLOAD PUSH4 0x118CDAA7 PUSH1 0xE0 SHL DUP2 MSTORE CALLER PUSH1 0x4 DUP3 ADD MSTORE PUSH1 0x24 ADD PUSH2 0x6EF JUMP JUMPDEST PUSH1 0x1 PUSH1 0x1 PUSH1 0xA0 SHL SUB DUP4 DUP2 AND PUSH1 0x0 SWAP1 DUP2 MSTORE PUSH1 0x1 PUSH1 0x20 SWAP1 DUP2 MSTORE PUSH1 0x40 DUP1 DUP4 KECCAK256 SWAP4 DUP7 AND DUP4 MSTORE SWAP3 SWAP1 MSTORE KECCAK256 SLOAD PUSH1 0x0 NOT DUP2 LT ISZERO PUSH2 0xCB3 JUMPI DUP2 DUP2 LT ISZERO PUSH2 0xCA4 JUMPI PUSH1 0x40 MLOAD PUSH4 0x7DC7A0D9 PUSH1 0xE1 SHL DUP2 MSTORE PUSH1 0x1 PUSH1 0x1 PUSH1 0xA0 SHL SUB DUP5 AND PUSH1 0x4 DUP3 ADD MSTORE PUSH1 0x24 DUP2 ADD DUP3 SWAP1 MSTORE PUSH1 0x44 DUP2 ADD DUP4 SWAP1 MSTORE PUSH1 0x64 ADD PUSH2 0x6EF JUMP JUMPDEST PUSH2 0xCB3 DUP5 DUP5 DUP5 DUP5 SUB PUSH1 0x0 PUSH2 0xE04 JUMP JUMPDEST POP POP POP POP JUMP JUMPDEST PUSH1 0x1 PUSH1 0x1 PUSH1 0xA0 SHL SUB DUP4 AND PUSH2 0xCE3 JUMPI PUSH1 0x40 MLOAD PUSH4 0x4B637E8F PUSH1 0xE1 SHL DUP2 MSTORE PUSH1 0x0 PUSH1 0x4 DUP3 ADD MSTORE PUSH1 0x24 ADD PUSH2 0x6EF JUMP JUMPDEST PUSH1 0x1 PUSH1 0x1 PUSH1 0xA0 SHL SUB DUP3 AND PUSH2 0xD0D JUMPI PUSH1 0x40 MLOAD PUSH4 0xEC442F05 PUSH1 0xE0 SHL DUP2 MSTORE PUSH1 0x0 PUSH1 0x4 DUP3 ADD MSTORE PUSH1 0x24 ADD PUSH2 0x6EF JUMP JUMPDEST PUSH2 0xC08 DUP4 DUP4 DUP4 PUSH2 0xED9 JUMP JUMPDEST PUSH2 0xD20 PUSH2 0xFB3 JUMP JUMPDEST PUSH1 0x2 PUSH32 0x9B779B17422D0DF92223018B32B4D1FA46E071723D6817E2486D003BECC55F00 SSTORE JUMP JUMPDEST PUSH1 0x1 PUSH1 0x1 PUSH1 0xA0 SHL SUB DUP3 AND PUSH2 0xD70 JUMPI PUSH1 0x40 MLOAD PUSH4 0xEC442F05 PUSH1 0xE0 SHL DUP2 MSTORE PUSH1 0x0 PUSH1 0x4 DUP3 ADD MSTORE PUSH1 0x24 ADD PUSH2 0x6EF JUMP JUMPDEST PUSH2 0x76F PUSH1 0x0 DUP4 DUP4 PUSH2 0xED9 JUMP JUMPDEST PUSH1 0x1 PUSH1 0x1 PUSH1 0xA0 SHL SUB DUP3 AND PUSH2 0xDA6 JUMPI PUSH1 0x40 MLOAD PUSH4 0x4B637E8F PUSH1 0xE1 SHL DUP2 MSTORE PUSH1 0x0 PUSH1 0x4 DUP3 ADD MSTORE PUSH1 0x24 ADD PUSH2 0x6EF JUMP JUMPDEST PUSH2 0x76F DUP3 PUSH1 0x0 DUP4 PUSH2 0xED9 JUMP JUMPDEST PUSH1 0x5 DUP1 SLOAD PUSH1 0x1 PUSH1 0x1 PUSH1 0xA0 SHL SUB DUP4 DUP2 AND PUSH1 0x1 PUSH1 0x1 PUSH1 0xA0 SHL SUB NOT DUP4 AND DUP2 OR SWAP1 SWAP4 SSTORE PUSH1 0x40 MLOAD SWAP2 AND SWAP2 SWAP1 DUP3 SWAP1 PUSH32 0x8BE0079C531659141344CD1FD0A4F28419497F9722A3DAAFE3B4186F6B6457E0 SWAP1 PUSH1 0x0 SWAP1 LOG3 POP POP JUMP JUMPDEST PUSH1 0x1 PUSH1 0x1 PUSH1 0xA0 SHL SUB DUP5 AND PUSH2 0xE2E JUMPI PUSH1 0x40 MLOAD PUSH4 0xE602DF05 PUSH1 0xE0 SHL DUP2 MSTORE PUSH1 0x0 PUSH1 0x4 DUP3 ADD MSTORE PUSH1 0x24 ADD PUSH2 0x6EF JUMP JUMPDEST PUSH1 0x1 PUSH1 0x1 PUSH1 0xA0 SHL SUB DUP4 AND PUSH2 0xE58 JUMPI PUSH1 0x40 MLOAD PUSH4 0x4A1406B1 PUSH1 0xE1 SHL DUP2 MSTORE PUSH1 0x0 PUSH1 0x4 DUP3 ADD MSTORE PUSH1 0x24 ADD PUSH2 0x6EF JUMP JUMPDEST PUSH1 0x1 PUSH1 0x1 PUSH1 0xA0 SHL SUB DUP1 DUP6 AND PUSH1 0x0 SWAP1 DUP2 MSTORE PUSH1 0x1 PUSH1 0x20 SWAP1 DUP2 MSTORE PUSH1 0x40 DUP1 DUP4 KECCAK256 SWAP4 DUP8 AND DUP4 MSTORE SWAP3 SWAP1 MSTORE KECCAK256 DUP3 SWAP1 SSTORE DUP1 ISZERO PUSH2 0xCB3 JUMPI DUP3 PUSH1 0x1 PUSH1 0x1 PUSH1 0xA0 SHL SUB AND DUP5 PUSH1 0x1 PUSH1 0x1 PUSH1 0xA0 SHL SUB AND PUSH32 0x8C5BE1E5EBEC7D5BD14F71427D1E84F3DD0314C0F7B2291E5B200AC8C7C3B925 DUP5 PUSH1 0x40 MLOAD PUSH2 0xECB SWAP2 DUP2 MSTORE PUSH1 0x20 ADD SWAP1 JUMP JUMPDEST PUSH1 0x40 MLOAD DUP1 SWAP2 SUB SWAP1 LOG3 POP POP POP POP JUMP JUMPDEST PUSH1 0xD SLOAD PUSH1 0xFF AND ISZERO PUSH2 0xEFD JUMPI PUSH1 0x40 MLOAD PUSH4 0xCD1FDA9F PUSH1 0xE0 SHL DUP2 MSTORE PUSH1 0x4 ADD PUSH1 0x40 MLOAD DUP1 SWAP2 SUB SWAP1 REVERT JUMPDEST PUSH1 0x1 PUSH1 0x1 PUSH1 0xA0 SHL SUB DUP4 AND ISZERO DUP1 ISZERO SWAP1 PUSH2 0xF1D JUMPI POP PUSH1 0x1 PUSH1 0x1 PUSH1 0xA0 SHL SUB DUP3 AND ISZERO ISZERO JUMPDEST ISZERO PUSH2 0xFA8 JUMPI PUSH1 0x0 PUSH1 0xB SLOAD GT DUP1 ISZERO PUSH2 0xF4D JUMPI POP PUSH1 0x1 PUSH1 0x1 PUSH1 0xA0 SHL SUB DUP4 AND PUSH1 0x0 SWAP1 DUP2 MSTORE PUSH1 0xC PUSH1 0x20 MSTORE PUSH1 0x40 SWAP1 KECCAK256 SLOAD PUSH1 0xFF AND ISZERO JUMPDEST DUP1 ISZERO PUSH2 0xF72 JUMPI POP PUSH1 0x1 PUSH1 0x1 PUSH1 0xA0 SHL SUB DUP3 AND PUSH1 0x0 SWAP1 DUP2 MSTORE PUSH1 0xC PUSH1 0x20 MSTORE PUSH1 0x40 SWAP1 KECCAK256 SLOAD PUSH1 0xFF AND ISZERO JUMPDEST ISZERO PUSH2 0xFA8 JUMPI PUSH1 0xB SLOAD DUP2 GT ISZERO PUSH2 0xFA8 JUMPI PUSH1 0xB SLOAD PUSH1 0x40 MLOAD PUSH4 0x40897271 PUSH1 0xE1 SHL DUP2 MSTORE PUSH2 0x6EF SWAP2 DUP4 SWAP2 PUSH1 0x4 ADD SWAP2 DUP3 MSTORE PUSH1 0x20 DUP3 ADD MSTORE PUSH1 0x40 ADD SWAP1 JUMP JUMPDEST PUSH2 0xC08 DUP4 DUP4 DUP4 PUSH2 0xFF5 JUMP JUMPDEST PUSH32 0x9B779B17422D0DF92223018B32B4D1FA46E071723D6817E2486D003BECC55F00 SLOAD PUSH1 0x2 SUB PUSH2 0x894 JUMPI PUSH1 0x40 MLOAD PUSH4 0x3EE5AEB5 PUSH1 0xE0 SHL DUP2 MSTORE PUSH1 0x4 ADD PUSH1 0x40 MLOAD DUP1 SWAP2 SUB SWAP1 REVERT JUMPDEST PUSH1 0x1 PUSH1 0x1 PUSH1 0xA0 SHL SUB DUP4 AND PUSH2 0x1020 JUMPI DUP1 PUSH1 0x2 PUSH1 0x0 DUP3 DUP3 SLOAD PUSH2 0x1015 SWAP2 SWAP1 PUSH2 0x12FC JUMP JUMPDEST SWAP1 SWAP2 SSTORE POP PUSH2 0x1092 SWAP1 POP JUMP JUMPDEST PUSH1 0x1 PUSH1 0x1 PUSH1 0xA0 SHL SUB DUP4 AND PUSH1 0x0 SWAP1 DUP2 MSTORE PUSH1 0x20 DUP2 SWAP1 MSTORE PUSH1 0x40 SWAP1 KECCAK256 SLOAD DUP2 DUP2 LT ISZERO PUSH2 0x1073 JUMPI PUSH1 0x40 MLOAD PUSH4 0x391434E3 PUSH1 0xE2 SHL DUP2 MSTORE PUSH1 0x1 PUSH1 0x1 PUSH1 0xA0 SHL SUB DUP6 AND PUSH1 0x4 DUP3 ADD MSTORE PUSH1 0x24 DUP2 ADD DUP3 SWAP1 MSTORE PUSH1 0x44 DUP2 ADD DUP4 SWAP1 MSTORE PUSH1 0x64 ADD PUSH2 0x6EF JUMP JUMPDEST PUSH1 0x1 PUSH1 0x1 PUSH1 0xA0 SHL SUB DUP5 AND PUSH1 0x0 SWAP1 DUP2 MSTORE PUSH1 0x20 DUP2 SWAP1 MSTORE PUSH1 0x40 SWAP1 KECCAK256 SWAP1 DUP3 SWAP1 SUB SWAP1 SSTORE JUMPDEST PUSH1 0x1 PUSH1 0x1 PUSH1 0xA0 SHL SUB DUP3 AND PUSH2 0x10AE JUMPI PUSH1 0x2 DUP1 SLOAD DUP3 SWAP1 SUB SWAP1 SSTORE PUSH2 0x10CD JUMP JUMPDEST PUSH1 0x1 PUSH1 0x1 PUSH1 0xA0 SHL SUB DUP3 AND PUSH1 0x0 SWAP1 DUP2 MSTORE PUSH1 0x20 DUP2 SWAP1 MSTORE PUSH1 0x40 SWAP1 KECCAK256 DUP1 SLOAD DUP3 ADD SWAP1 SSTORE JUMPDEST DUP2 PUSH1 0x1 PUSH1 0x1 PUSH1 0xA0 SHL SUB AND DUP4 PUSH1 0x1 PUSH1 0x1 PUSH1 0xA0 SHL SUB AND PUSH32 0xDDF252AD1BE2C89B69C2B068FC378DAA952BA7F163C4A11628F55A4DF523B3EF DUP4 PUSH1 0x40 MLOAD PUSH2 0x1112 SWAP2 DUP2 MSTORE PUSH1 0x20 ADD SWAP1 JUMP JUMPDEST PUSH1 0x40 MLOAD DUP1 SWAP2 SUB SWAP1 LOG3 POP POP POP JUMP JUMPDEST PUSH1 0x0 PUSH1 0x20 DUP1 DUP4 MSTORE DUP4 MLOAD DUP1 DUP3 DUP6 ADD MSTORE PUSH1 0x0 JUMPDEST DUP2 DUP2 LT ISZERO PUSH2 0x114C JUMPI DUP6 DUP2 ADD DUP4 ADD MLOAD DUP6 DUP3 ADD PUSH1 0x40 ADD MSTORE DUP3 ADD PUSH2 0x1130 JUMP JUMPDEST POP PUSH1 0x0 PUSH1 0x40 DUP3 DUP7 ADD ADD MSTORE PUSH1 0x40 PUSH1 0x1F NOT PUSH1 0x1F DUP4 ADD AND DUP6 ADD ADD SWAP3 POP POP POP SWAP3 SWAP2 POP POP JUMP JUMPDEST DUP1 CALLDATALOAD PUSH1 0x1 PUSH1 0x1 PUSH1 0xA0 SHL SUB DUP2 AND DUP2 EQ PUSH2 0x1184 JUMPI PUSH1 0x0 DUP1 REVERT JUMPDEST SWAP2 SWAP1 POP JUMP JUMPDEST PUSH1 0x0 DUP1 PUSH1 0x40 DUP4 DUP6 SUB SLT ISZERO PUSH2 0x119C JUMPI PUSH1 0x0 DUP1 REVERT JUMPDEST PUSH2 0x11A5 DUP4 PUSH2 0x116D JUMP JUMPDEST SWAP5 PUSH1 0x20 SWAP4 SWAP1 SWAP4 ADD CALLDATALOAD SWAP4 POP POP POP JUMP JUMPDEST PUSH1 0x0 PUSH1 0x20 DUP3 DUP5 SUB SLT ISZERO PUSH2 0x11C5 JUMPI PUSH1 0x0 DUP1 REVERT JUMPDEST POP CALLDATALOAD SWAP2 SWAP1 POP JUMP JUMPDEST PUSH1 0x0 DUP1 PUSH1 0x0 PUSH1 0x60 DUP5 DUP7 SUB SLT ISZERO PUSH2 0x11E1 JUMPI PUSH1 0x0 DUP1 REVERT JUMPDEST PUSH2 0x11EA DUP5 PUSH2 0x116D JUMP JUMPDEST SWAP3 POP PUSH2 0x11F8 PUSH1 0x20 DUP6 ADD PUSH2 0x116D JUMP JUMPDEST SWAP2 POP PUSH1 0x40 DUP5 ADD CALLDATALOAD SWAP1 POP SWAP3 POP SWAP3 POP SWAP3 JUMP JUMPDEST PUSH1 0x0 PUSH1 0x20 DUP3 DUP5 SUB SLT ISZERO PUSH2 0x121A JUMPI PUSH1 0x0 DUP1 REVERT JUMPDEST PUSH2 0x1223 DUP3 PUSH2 0x116D JUMP JUMPDEST SWAP4 SWAP3 POP POP POP JUMP JUMPDEST PUSH1 0x0 DUP1 PUSH1 0x40 DUP4 DUP6 SUB SLT ISZERO PUSH2 0x123D JUMPI PUSH1 0x0 DUP1 REVERT JUMPDEST PUSH2 0x1246 DUP4 PUSH2 0x116D JUMP JUMPDEST SWAP2 POP PUSH2 0x1254 PUSH1 0x20 DUP5 ADD PUSH2 0x116D JUMP JUMPDEST SWAP1 POP SWAP3 POP SWAP3 SWAP1 POP JUMP JUMPDEST PUSH1 0x0 DUP1 PUSH1 0x40 DUP4 DUP6 SUB SLT ISZERO PUSH2 0x1270 JUMPI PUSH1 0x0 DUP1 REVERT JUMPDEST PUSH2 0x1279 DUP4 PUSH2 0x116D JUMP JUMPDEST SWAP2 POP PUSH1 0x20 DUP4 ADD CALLDATALOAD DUP1 ISZERO ISZERO DUP2 EQ PUSH2 0x128E JUMPI PUSH1 0x0 DUP1 REVERT JUMPDEST DUP1 SWAP2 POP POP SWAP3 POP SWAP3 SWAP1 POP JUMP JUMPDEST PUSH1 0x1 DUP2 DUP2 SHR SWAP1 DUP3 AND DUP1 PUSH2 0x12AD JUMPI PUSH1 0x7F DUP3 AND SWAP2 POP JUMPDEST PUSH1 0x20 DUP3 LT DUP2 SUB PUSH2 0x12CD JUMPI PUSH4 0x4E487B71 PUSH1 0xE0 SHL PUSH1 0x0 MSTORE PUSH1 0x22 PUSH1 0x4 MSTORE PUSH1 0x24 PUSH1 0x0 REVERT JUMPDEST POP SWAP2 SWAP1 POP JUMP JUMPDEST PUSH4 0x4E487B71 PUSH1 0xE0 SHL PUSH1 0x0 MSTORE PUSH1 0x11 PUSH1 0x4 MSTORE PUSH1 0x24 PUSH1 0x0 REVERT JUMPDEST DUP2 DUP2 SUB DUP2 DUP2 GT ISZERO PUSH2 0x567 JUMPI PUSH2 0x567 PUSH2 0x12D3 JUMP JUMPDEST DUP1 DUP3 ADD DUP1 DUP3 GT ISZERO PUSH2 0x567 JUMPI PUSH2 0x567 PUSH2 0x12D3 JUMP INVALID LOG2 PUSH5 0x6970667358 0x22 SLT KECCAK256 CODECOPY 0x24 LOG0 SWAP4 PUSH24 0x6C265A2ECC0BA1ACFFF29A29101AD5B082149A6FCE74AB0 0xAB GASLIMIT 0x2E PUSH5 0x736F6C6343 STOP ADDMOD EQ STOP CALLER "
				},
				"gasEstimates": {
					"creation": {
						"codeDepositCost": "986600",
						"executionCost": "infinite",
						"totalCost": "infinite"
					},
					"external": {
						"HARD_CAP()": "263",
						"allowance(address,address)": "infinite",
						"approve(address,uint256)": "24785",
						"balanceOf(address)": "2673",
						"burn(uint256)": "61887",
						"burnFrom(address,uint256)": "infinite",
						"decimals()": "223",
						"emissionRatePerDay()": "2407",
						"entryCostETH()": "237",
						"entryCostTIMBS()": "2362",
						"farmPool()": "2381",
						"maxTransferAmount()": "2384",
						"mintEmissions(address,uint256)": "infinite",
						"name()": "infinite",
						"owner()": "2442",
						"pause()": "27747",
						"paused()": "2399",
						"remainingEmissionsCapacity()": "2516",
						"renounceOwnership()": "infinite",
						"setEmissionRate(uint256)": "25610",
						"setEntryCostTIMBS(uint256)": "27994",
						"setFarmPool(address)": "80829",
						"setMaxTransferAmount(uint256)": "25643",
						"setStakingPool(address)": "80851",
						"setTransferWhitelist(address,bool)": "28420",
						"setTreasury(address)": "81226",
						"stakingPool()": "2428",
						"symbol()": "infinite",
						"totalSupply()": "2394",
						"transfer(address,uint256)": "infinite",
						"transferFrom(address,address,uint256)": "infinite",
						"transferOwnership(address)": "28468",
						"transferWhitelist(address)": "2643",
						"treasury()": "2448",
						"unpause()": "27764"
					},
					"internal": {
						"_update(address,address,uint256)": "infinite"
					}
				},
				"methodIdentifiers": {
					"HARD_CAP()": "3a03171c",
					"allowance(address,address)": "dd62ed3e",
					"approve(address,uint256)": "095ea7b3",
					"balanceOf(address)": "70a08231",
					"burn(uint256)": "42966c68",
					"burnFrom(address,uint256)": "79cc6790",
					"decimals()": "313ce567",
					"emissionRatePerDay()": "4214e0af",
					"entryCostETH()": "83d5d801",
					"entryCostTIMBS()": "45c952cb",
					"farmPool()": "d89a6fa6",
					"maxTransferAmount()": "a9e75723",
					"mintEmissions(address,uint256)": "296ed9f4",
					"name()": "06fdde03",
					"owner()": "8da5cb5b",
					"pause()": "8456cb59",
					"paused()": "5c975abb",
					"remainingEmissionsCapacity()": "ae11c4bc",
					"renounceOwnership()": "715018a6",
					"setEmissionRate(uint256)": "a1bdb15e",
					"setEntryCostTIMBS(uint256)": "21d66353",
					"setFarmPool(address)": "7c562a94",
					"setMaxTransferAmount(uint256)": "8bf55409",
					"setStakingPool(address)": "3028f63a",
					"setTransferWhitelist(address,bool)": "e4a34dce",
					"setTreasury(address)": "f0f44260",
					"stakingPool()": "0c56ae3b",
					"symbol()": "95d89b41",
					"totalSupply()": "18160ddd",
					"transfer(address,uint256)": "a9059cbb",
					"transferFrom(address,address,uint256)": "23b872dd",
					"transferOwnership(address)": "f2fde38b",
					"transferWhitelist(address)": "7ffbe241",
					"treasury()": "61d027b3",
					"unpause()": "3f4ba83a"
				}
			},
			"storageLayout": {
				"storage": [
					{
						"astId": 934,
						"contract": "/contracts/TIMBSToken.sol:TIMBSToken",
						"label": "_balances",
						"offset": 0,
						"slot": "0",
						"type": "t_mapping(t_address,t_uint256)"
					},
					{
						"astId": 940,
						"contract": "/contracts/TIMBSToken.sol:TIMBSToken",
						"label": "_allowances",
						"offset": 0,
						"slot": "1",
						"type": "t_mapping(t_address,t_mapping(t_address,t_uint256))"
					},
					{
						"astId": 942,
						"contract": "/contracts/TIMBSToken.sol:TIMBSToken",
						"label": "_totalSupply",
						"offset": 0,
						"slot": "2",
						"type": "t_uint256"
					},
					{
						"astId": 944,
						"contract": "/contracts/TIMBSToken.sol:TIMBSToken",
						"label": "_name",
						"offset": 0,
						"slot": "3",
						"type": "t_string_storage"
					},
					{
						"astId": 946,
						"contract": "/contracts/TIMBSToken.sol:TIMBSToken",
						"label": "_symbol",
						"offset": 0,
						"slot": "4",
						"type": "t_string_storage"
					},
					{
						"astId": 635,
						"contract": "/contracts/TIMBSToken.sol:TIMBSToken",
						"label": "_owner",
						"offset": 0,
						"slot": "5",
						"type": "t_address"
					},
					{
						"astId": 23,
						"contract": "/contracts/TIMBSToken.sol:TIMBSToken",
						"label": "treasury",
						"offset": 0,
						"slot": "6",
						"type": "t_address"
					},
					{
						"astId": 26,
						"contract": "/contracts/TIMBSToken.sol:TIMBSToken",
						"label": "stakingPool",
						"offset": 0,
						"slot": "7",
						"type": "t_address"
					},
					{
						"astId": 29,
						"contract": "/contracts/TIMBSToken.sol:TIMBSToken",
						"label": "farmPool",
						"offset": 0,
						"slot": "8",
						"type": "t_address"
					},
					{
						"astId": 32,
						"contract": "/contracts/TIMBSToken.sol:TIMBSToken",
						"label": "emissionRatePerDay",
						"offset": 0,
						"slot": "9",
						"type": "t_uint256"
					},
					{
						"astId": 35,
						"contract": "/contracts/TIMBSToken.sol:TIMBSToken",
						"label": "entryCostTIMBS",
						"offset": 0,
						"slot": "10",
						"type": "t_uint256"
					},
					{
						"astId": 38,
						"contract": "/contracts/TIMBSToken.sol:TIMBSToken",
						"label": "maxTransferAmount",
						"offset": 0,
						"slot": "11",
						"type": "t_uint256"
					},
					{
						"astId": 43,
						"contract": "/contracts/TIMBSToken.sol:TIMBSToken",
						"label": "transferWhitelist",
						"offset": 0,
						"slot": "12",
						"type": "t_mapping(t_address,t_bool)"
					},
					{
						"astId": 46,
						"contract": "/contracts/TIMBSToken.sol:TIMBSToken",
						"label": "paused",
						"offset": 0,
						"slot": "13",
						"type": "t_bool"
					}
				],
				"types": {
					"t_address": {
						"encoding": "inplace",
						"label": "address",
						"numberOfBytes": "20"
					},
					"t_bool": {
						"encoding": "inplace",
						"label": "bool",
						"numberOfBytes": "1"
					},
					"t_mapping(t_address,t_bool)": {
						"encoding": "mapping",
						"key": "t_address",
						"label": "mapping(address => bool)",
						"numberOfBytes": "32",
						"value": "t_bool"
					},
					"t_mapping(t_address,t_mapping(t_address,t_uint256))": {
						"encoding": "mapping",
						"key": "t_address",
						"label": "mapping(address => mapping(address => uint256))",
						"numberOfBytes": "32",
						"value": "t_mapping(t_address,t_uint256)"
					},
					"t_mapping(t_address,t_uint256)": {
						"encoding": "mapping",
						"key": "t_address",
						"label": "mapping(address => uint256)",
						"numberOfBytes": "32",
						"value": "t_uint256"
					},
					"t_string_storage": {
						"encoding": "bytes",
						"label": "string",
						"numberOfBytes": "32"
					},
					"t_uint256": {
						"encoding": "inplace",
						"label": "uint256",
						"numberOfBytes": "32"
					}
				}
			},
			"userdoc": {
				"kind": "user",
				"methods": {
					"HARD_CAP()": {
						"notice": "Absolute hard cap on total supply (initial + all future emissions)."
					},
					"emissionRatePerDay()": {
						"notice": "Owner-set emission rate in TIMBS per day (informational + used by pools)."
					},
					"entryCostETH()": {
						"notice": "ETH equivalent of entry cost derived from the TIMBS/ETH pool price."
					},
					"entryCostTIMBS()": {
						"notice": "Prize game entry cost in TIMBS. Governance-changeable. All ETH/additional-round costs derive from this single value."
					},
					"farmPool()": {
						"notice": "Farm (LP) pool contract — authorised to call mintEmissions()."
					},
					"maxTransferAmount()": {
						"notice": "Max TIMBS transferable in a single tx (anti-whale). 0 = disabled."
					},
					"mintEmissions(address,uint256)": {
						"notice": "Mint emissions to a staking or farm pool."
					},
					"pause()": {
						"notice": "Pause all token transfers. Emergency use only."
					},
					"paused()": {
						"notice": "Emergency pause flag — owner can halt all transfers."
					},
					"remainingEmissionsCapacity()": {
						"notice": "Remaining emissions capacity before hitting the hard cap."
					},
					"setEmissionRate(uint256)": {
						"notice": "Set the protocol-wide emission rate in TIMBS per day."
					},
					"setEntryCostTIMBS(uint256)": {
						"notice": "Update prize game entry cost. Single governance parameter —         ETH equivalent and additional-round costs derive from this."
					},
					"setFarmPool(address)": {
						"notice": "Register the LP farm pool contract as an authorised emissions minter."
					},
					"setMaxTransferAmount(uint256)": {
						"notice": "Set max TIMBS per single transfer (anti-whale). Set to 0 to disable."
					},
					"setStakingPool(address)": {
						"notice": "Register the staking pool contract as an authorised emissions minter."
					},
					"setTransferWhitelist(address,bool)": {
						"notice": "Exempt or un-exempt an address from the transfer cap."
					},
					"setTreasury(address)": {
						"notice": "Set or update the treasury address."
					},
					"stakingPool()": {
						"notice": "Staking pool contract — authorised to call mintEmissions()."
					},
					"transferWhitelist(address)": {
						"notice": "Addresses exempt from maxTransferAmount (pools, treasury, etc.)."
					},
					"treasury()": {
						"notice": "Treasury address — receives initial mint, controls distribution."
					},
					"unpause()": {
						"notice": "Unpause token transfers."
					}
				},
				"notice": "Native ERC-20 token for the TimbSwap protocol. Supply model:   - Fixed initial supply minted entirely to the treasury at deploy.   - Owner can mint additional supply for emissions (staking/farm rewards).   - Emissions cap enforced: total supply can never exceed HARD_CAP.   - Owner can burn from treasury allocation via ERC20Burnable. Access:   - Minter role: owner only (treasury / emissions controller).   - Emission rate: owner-set (TIMBS per day, used by staking/farm contracts).   - Governance can update entryCostTIMBS — single param, cascades to all     prize entry cost derivatives. Security (defi-security skill):   - ReentrancyGuard on mint path.   - Whitelist for addresses exempt from per-tx transfer cap.   - Per-tx transfer cap owner-configurable (anti-whale).   - Owner can pause transfers in emergency. Deployment:   - Deploy with treasury address and initial supply.   - Call setStakingPool(), setFarmPool() after those contracts are deployed.   - setEmissionRate() to activate staking/farm emissions.",
				"version": 1
			}
		}
	}
}