{
	"data": {
		"bytecode": {
			"linkReferences": {},
			"object": "60a060405234801562000010575f80fd5b5060405162004c9738038062004c978339818101604052810190620000369190620003c5565b335f73ffffffffffffffffffffffffffffffffffffffff168173ffffffffffffffffffffffffffffffffffffffff1603620000aa575f6040517f1e4fbdf7000000000000000000000000000000000000000000000000000000008152600401620000a191906200042f565b60405180910390fd5b620000bb816200026d60201b60201c565b506001620000de620000d26200032e60201b60201c565b6200035760201b60201c565b5f01819055505f73ffffffffffffffffffffffffffffffffffffffff168373ffffffffffffffffffffffffffffffffffffffff16036200014a576040517fd92e233d00000000000000000000000000000000000000000000000000000000815260040160405180910390fd5b5f73ffffffffffffffffffffffffffffffffffffffff168273ffffffffffffffffffffffffffffffffffffffff1603620001b0576040517fd92e233d00000000000000000000000000000000000000000000000000000000815260040160405180910390fd5b8273ffffffffffffffffffffffffffffffffffffffff1660808173ffffffffffffffffffffffffffffffffffffffff16815250508160015f6101000a81548173ffffffffffffffffffffffffffffffffffffffff021916908373ffffffffffffffffffffffffffffffffffffffff1602179055508060025f6101000a81548173ffffffffffffffffffffffffffffffffffffffff021916908373ffffffffffffffffffffffffffffffffffffffff1602179055505050506200044a565b5f805f9054906101000a900473ffffffffffffffffffffffffffffffffffffffff169050815f806101000a81548173ffffffffffffffffffffffffffffffffffffffff021916908373ffffffffffffffffffffffffffffffffffffffff1602179055508173ffffffffffffffffffffffffffffffffffffffff168173ffffffffffffffffffffffffffffffffffffffff167f8be0079c531659141344cd1fd0a4f28419497f9722a3daafe3b4186f6b6457e060405160405180910390a35050565b5f7f9b779b17422d0df92223018b32b4d1fa46e071723d6817e2486d003becc55f005f1b905090565b5f819050919050565b5f80fd5b5f73ffffffffffffffffffffffffffffffffffffffff82169050919050565b5f6200038f8262000364565b9050919050565b620003a18162000383565b8114620003ac575f80fd5b50565b5f81519050620003bf8162000396565b92915050565b5f805f60608486031215620003df57620003de62000360565b5b5f620003ee86828701620003af565b93505060206200040186828701620003af565b92505060406200041486828701620003af565b9150509250925092565b620004298162000383565b82525050565b5f602082019050620004445f8301846200041e565b92915050565b608051614811620004865f395f818161093c0152818161144b01528181611476015281816114fe015281816129df0152612bf201526148115ff3fe60806040526004361061021d575f3560e01c8063715018a6116101225780638da5cb5b116100aa578063b8a740e01161006e578063b8a740e0146107ce578063c106aee31461080a578063d6b7e9d914610847578063ecdd4f9f14610883578063f2fde38b146108bf57610224565b80638da5cb5b146106b35780639fd11627146106dd578063a4ce555d14610719578063a96de4f514610755578063b5740c9c1461079257610224565b806383d5d801116100f157806383d5d801146106055780638456cb591461062f57806387c3ac08146106455780638a19c8bc146106615780638d88f8d11461068b57610224565b8063715018a61461056357806374c47393146105795780637a03ce4f146105a15780638249a69c146105c957610224565b806342610993116101a55780634ce04501116101745780634ce045011461047b5780635364276d146104a557806353b65d40146104cf5780635b7baf64146105115780635c975abb1461053957610224565b806342610993146103d1578063454ac84e146103ed57806345c952cb1461042957806347f43ef21461045357610224565b80632768a49f116101ec5780632768a49f146102f257806327b238491461032e578063338f0856146103565780633bc91e28146103935780633f4ba83a146103bb57610224565b80630bd4c399146102285780630e31648f146102645780631330cd861461028e578063233507b9146102b657610224565b3661022457005b5f80fd5b348015610233575f80fd5b5061024e600480360381019061024991906139ee565b6108e7565b60405161025b9190613a7d565b60405180910390f35b34801561026f575f80fd5b5061027861093a565b6040516102859190613af1565b60405180910390f35b348015610299575f80fd5b506102b460048036038101906102af9190613b6b565b61095e565b005b3480156102c1575f80fd5b506102dc60048036038101906102d79190613bf2565b610b77565b6040516102e99190613cd4565b60405180910390f35b3480156102fd575f80fd5b5061031860048036038101906103139190613cf4565b610c0a565b6040516103259190613d41565b60405180910390f35b348015610339575f80fd5b50610354600480360381019061034f9190613bf2565b610c35565b005b348015610361575f80fd5b5061037c60048036038101906103779190613d5a565b610d28565b60405161038a929190613e29565b60405180910390f35b34801561039e575f80fd5b506103b960048036038101906103b49190613e57565b610f1e565b005b3480156103c6575f80fd5b506103cf610fe5565b005b6103eb60048036038101906103e69190613eac565b61104b565b005b3480156103f8575f80fd5b50610413600480360381019061040e9190613e57565b611ab2565b6040516104209190613fb3565b60405180910390f35b348015610434575f80fd5b5061043d611b4e565b60405161044a9190613d41565b60405180910390f35b34801561045e575f80fd5b5061047960048036038101906104749190613cf4565b611b54565b005b348015610486575f80fd5b5061048f611d04565b60405161049c9190613a7d565b60405180910390f35b3480156104b0575f80fd5b506104b9611d29565b6040516104c69190613a7d565b60405180910390f35b3480156104da575f80fd5b506104f560048036038101906104f09190613cf4565b611d4e565b6040516105089796959493929190614055565b60405180910390f35b34801561051c575f80fd5b5061053760048036038101906105329190613e57565b611ddc565b005b348015610544575f80fd5b5061054d6121c7565b60405161055a91906140c2565b60405180910390f35b34801561056e575f80fd5b506105776121d9565b005b348015610584575f80fd5b5061059f600480360381019061059a9190613bf2565b6121ec565b005b3480156105ac575f80fd5b506105c760048036038101906105c29190613cf4565b6122df565b005b3480156105d4575f80fd5b506105ef60048036038101906105ea9190613bf2565b6124cf565b6040516105fc919061423c565b60405180910390f35b348015610610575f80fd5b5061061961277b565b6040516106269190613d41565b60405180910390f35b34801561063a575f80fd5b50610643612781565b005b61065f600480360381019061065a919061425c565b6127e8565b005b34801561066c575f80fd5b50610675612ce9565b6040516106829190613d41565b60405180910390f35b348015610696575f80fd5b506106b160048036038101906106ac919061429a565b612cef565b005b3480156106be575f80fd5b506106c7612d86565b6040516106d49190613a7d565b60405180910390f35b3480156106e8575f80fd5b5061070360048036038101906106fe91906142d8565b612dad565b6040516107109190613fb3565b60405180910390f35b348015610724575f80fd5b5061073f600480360381019061073a9190613d5a565b612e93565b60405161074c9190613d41565b60405180910390f35b348015610760575f80fd5b5061077b60048036038101906107769190613cf4565b612f07565b604051610789929190614316565b60405180910390f35b34801561079d575f80fd5b506107b860048036038101906107b3919061433d565b612f9c565b6040516107c591906140c2565b60405180910390f35b3480156107d9575f80fd5b506107f460048036038101906107ef9190613cf4565b612fc6565b6040516108019190614407565b60405180910390f35b348015610815575f80fd5b50610830600480360381019061082b9190613cf4565b613145565b60405161083e929190614316565b60405180910390f35b348015610852575f80fd5b5061086d60048036038101906108689190613e57565b613284565b60405161087a9190613d41565b60405180910390f35b34801561088e575f80fd5b506108a960048036038101906108a4919061429a565b61329a565b6040516108b69190613a7d565b60405180910390f35b3480156108ca575f80fd5b506108e560048036038101906108e09190613bf2565b6132e2565b005b6008602052825f5260405f20602052815f5260405f20818154811061090a575f80fd5b905f5260205f20015f92509250509054906101000a900473ffffffffffffffffffffffffffffffffffffffff1681565b7f000000000000000000000000000000000000000000000000000000000000000081565b60025f9054906101000a900473ffffffffffffffffffffffffffffffffffffffff1673ffffffffffffffffffffffffffffffffffffffff163373ffffffffffffffffffffffffffffffffffffffff16146109e4576040517f3e94dce900000000000000000000000000000000000000000000000000000000815260040160405180910390fd5b5f5b82829050811015610b71575f60075f858585818110610a0857610a07614420565b5b9050602002016020810190610a1d9190613bf2565b73ffffffffffffffffffffffffffffffffffffffff1673ffffffffffffffffffffffffffffffffffffffff1681526020019081526020015f205f8681526020019081526020015f2090508060040160159054906101000a900460ff168015610ab957505f6004811115610a9357610a92613fe2565b5b8160040160149054906101000a900460ff166004811115610ab757610ab6613fe2565b5b145b15610b635760018160040160146101000a81548160ff02191690836004811115610ae657610ae5613fe2565b5b021790555084848484818110610aff57610afe614420565b5b9050602002016020810190610b149190613bf2565b73ffffffffffffffffffffffffffffffffffffffff167f1415547ac25cccddfd82d3b4bcad6c1a8383110d39e6799a32b6cc5f2987e9146001604051610b5a919061444d565b60405180910390a35b5080806001019150506109e6565b50505050565b606060095f8373ffffffffffffffffffffffffffffffffffffffff1673ffffffffffffffffffffffffffffffffffffffff1681526020019081526020015f20805480602002602001604051908101604052809291908181526020018280548015610bfe57602002820191905f5260205f20905b815481526020019060010190808311610bea575b50505050509050919050565b6009602052815f5260405f208181548110610c23575f80fd5b905f5260205f20015f91509150505481565b610c3d613366565b5f73ffffffffffffffffffffffffffffffffffffffff168173ffffffffffffffffffffffffffffffffffffffff1603610ca2576040517fd92e233d00000000000000000000000000000000000000000000000000000000815260040160405180910390fd5b8060025f6101000a81548173ffffffffffffffffffffffffffffffffffffffff021916908373ffffffffffffffffffffffffffffffffffffffff1602179055508073ffffffffffffffffffffffffffffffffffffffff167f89386b8711bad3ec737a1746dbcc52de03de68add300345f9acb944c28ae03f360405160405180910390a250565b5f60605f805b6006811015610f01575f858260068110610d4b57610d4a614420565b5b1a60f81b90505f604160f81b827effffffffffffffffffffffffffffffffffffffffffffffffffffffffffffff191610158015610dae5750605a60f81b827effffffffffffffffffffffffffffffffffffffffffffffffffffffffffffff191611155b90505f603060f81b837effffffffffffffffffffffffffffffffffffffffffffffffffffffffffffff191610158015610e0d5750603960f81b837effffffffffffffffffffffffffffffffffffffffffffffffffffffffffffff191611155b905081158015610e1b575080155b15610e48575f6040518060600160405280602581526020016147b760259139965096505050505050610f19565b5f82610e7257601a60308560f81c60ff16610e639190614493565b610e6d91906144c6565b610e86565b60418460f81c60ff16610e859190614493565b5b90505f816001901b90505f81881667ffffffffffffffff1614610eea575f6040518060400160405280601f81526020017f526570656174696e6720636861726163746572206e6f7420616c6c6f776564008152509850985050505050505050610f19565b808717965050505050508080600101915050610d2e565b50600160405180602001604052805f81525092509250505b915091565b60025f9054906101000a900473ffffffffffffffffffffffffffffffffffffffff1673ffffffffffffffffffffffffffffffffffffffff163373ffffffffffffffffffffffffffffffffffffffff1614610fa4576040517f3e94dce900000000000000000000000000000000000000000000000000000000815260040160405180910390fd5b806005819055507f04db6a5933824de781cbd9e4632fb41f1d4100b9e8e62949ed7361f323ac1dd581604051610fda9190613d41565b60405180910390a150565b610fed613366565b5f60065f6101000a81548160ff0219169083151502179055503373ffffffffffffffffffffffffffffffffffffffff167f5db9ee0a495bf2e6ff9c91a7834c1ba4fdd244a5e8aa4e537bd38aeae4b073aa60405160405180910390a2565b6110536133ed565b60065f9054906101000a900460ff1615611099576040517fab35696f00000000000000000000000000000000000000000000000000000000815260040160405180910390fd5b5f60016005546110a991906144c6565b905060075f3373ffffffffffffffffffffffffffffffffffffffff1673ffffffffffffffffffffffffffffffffffffffff1681526020019081526020015f205f8281526020019081526020015f2060040160159054906101000a900460ff161561125e576001600481111561112157611120613fe2565b5b60075f3373ffffffffffffffffffffffffffffffffffffffff1673ffffffffffffffffffffffffffffffffffffffff1681526020019081526020015f205f8381526020019081526020015f2060040160149054906101000a900460ff1660048111156111905761118f613fe2565b5b148061121b57505f60048111156111aa576111a9613fe2565b5b60075f3373ffffffffffffffffffffffffffffffffffffffff1673ffffffffffffffffffffffffffffffffffffffff1681526020019081526020015f205f8381526020019081526020015f2060040160149054906101000a900460ff16600481111561121957611218613fe2565b5b145b1561125d57806040517f9d50e1030000000000000000000000000000000000000000000000000000000081526004016112549190613d41565b60405180910390fd5b5b6112678461340f565b5f808415611392575f34148061127e575060045434105b156112c457346004546040517f0ee6446f0000000000000000000000000000000000000000000000000000000081526004016112bb9291906144f9565b60405180910390fd5b60045491505f905060045434111561138d575f3373ffffffffffffffffffffffffffffffffffffffff16600454346112fc9190614493565b6040516113089061454d565b5f6040518083038185875af1925050503d805f8114611342576040519150601f19603f3d011682016040523d82523d5f602084013e611347565b606091505b505090508061138b576040517f08c379a0000000000000000000000000000000000000000000000000000000008152600401611382906145ab565b60405180910390fd5b505b6114bc565b5f341115611444575f3373ffffffffffffffffffffffffffffffffffffffff16346040516113bf9061454d565b5f6040518083038185875af1925050503d805f81146113f9576040519150601f19603f3d011682016040523d82523d5f602084013e6113fe565b606091505b5050905080611442576040517f08c379a0000000000000000000000000000000000000000000000000000000008152600401611439906145ab565b60405180910390fd5b505b60035491507f000000000000000000000000000000000000000000000000000000000000000090506114bb33306003547f000000000000000000000000000000000000000000000000000000000000000073ffffffffffffffffffffffffffffffffffffffff166135f5909392919063ffffffff16565b5b5f600354856114cb91906145c9565b90505f811115611592576115433360015f9054906101000a900473ffffffffffffffffffffffffffffffffffffffff16837f000000000000000000000000000000000000000000000000000000000000000073ffffffffffffffffffffffffffffffffffffffff166135f5909392919063ffffffff16565b3373ffffffffffffffffffffffffffffffffffffffff167f41a209ee6a3eb8344a3f83b585bb4d93349bfbbd34dce09ea38d8023516f2da0826040516115899190613d41565b60405180910390a25b5f858561159f91906144c6565b90506040518060e001604052808979ffffffffffffffffffffffffffffffffffffffffffffffffffff1916815260200160055481526020018281526020018581526020018473ffffffffffffffffffffffffffffffffffffffff1681526020015f600481111561161257611611613fe2565b5b81526020016001151581525060075f3373ffffffffffffffffffffffffffffffffffffffff1673ffffffffffffffffffffffffffffffffffffffff1681526020019081526020015f205f8781526020019081526020015f205f820151815f015f6101000a81548165ffffffffffff021916908360d01c02179055506020820151816001015560408201518160020155606082015181600301556080820151816004015f6101000a81548173ffffffffffffffffffffffffffffffffffffffff021916908373ffffffffffffffffffffffffffffffffffffffff16021790555060a08201518160040160146101000a81548160ff0219169083600481111561171c5761171b613fe2565b5b021790555060c08201518160040160156101000a81548160ff021916908315150217905550905050600b5f8681526020019081526020015f205f3373ffffffffffffffffffffffffffffffffffffffff1673ffffffffffffffffffffffffffffffffffffffff1681526020019081526020015f205f9054906101000a900460ff166119925760085f8681526020019081526020015f205f8979ffffffffffffffffffffffffffffffffffffffffffffffffffff191679ffffffffffffffffffffffffffffffffffffffffffffffffffff191681526020019081526020015f2033908060018154018082558091505060019003905f5260205f20015f9091909190916101000a81548173ffffffffffffffffffffffffffffffffffffffff021916908373ffffffffffffffffffffffffffffffffffffffff160217905550600a5f8681526020019081526020015f2033908060018154018082558091505060019003905f5260205f20015f9091909190916101000a81548173ffffffffffffffffffffffffffffffffffffffff021916908373ffffffffffffffffffffffffffffffffffffffff1602179055506001600b5f8781526020019081526020015f205f3373ffffffffffffffffffffffffffffffffffffffff1673ffffffffffffffffffffffffffffffffffffffff1681526020019081526020015f205f6101000a81548160ff02191690831515021790555060095f3373ffffffffffffffffffffffffffffffffffffffff1673ffffffffffffffffffffffffffffffffffffffff1681526020019081526020015f2085908060018154018082558091505060019003905f5260205f20015f9091909190915055611a4b565b60085f8681526020019081526020015f205f8979ffffffffffffffffffffffffffffffffffffffffffffffffffff191679ffffffffffffffffffffffffffffffffffffffffffffffffffff191681526020019081526020015f2033908060018154018082558091505060019003905f5260205f20015f9091909190916101000a81548173ffffffffffffffffffffffffffffffffffffffff021916908373ffffffffffffffffffffffffffffffffffffffff1602179055505b843373ffffffffffffffffffffffffffffffffffffffff167fd87332d5905526492c72528b38ead8c7c478e7806af135f39be5df875e4f24bb8a878786604051611a98949392919061460a565b60405180910390a35050505050611aad61364a565b505050565b6060600a5f8381526020019081526020015f20805480602002602001604051908101604052809291908181526020018280548015611b4257602002820191905f5260205f20905b815f9054906101000a900473ffffffffffffffffffffffffffffffffffffffff1673ffffffffffffffffffffffffffffffffffffffff1681526020019060010190808311611af9575b50505050509050919050565b60035481565b60025f9054906101000a900473ffffffffffffffffffffffffffffffffffffffff1673ffffffffffffffffffffffffffffffffffffffff163373ffffffffffffffffffffffffffffffffffffffff1614611bda576040517f3e94dce900000000000000000000000000000000000000000000000000000000815260040160405180910390fd5b5f60075f8473ffffffffffffffffffffffffffffffffffffffff1673ffffffffffffffffffffffffffffffffffffffff1681526020019081526020015f205f8381526020019081526020015f2090508060040160159054906101000a900460ff168015611c7c575060016004811115611c5657611c55613fe2565b5b8160040160149054906101000a900460ff166004811115611c7a57611c79613fe2565b5b145b15611cff5760028160040160146101000a81548160ff02191690836004811115611ca957611ca8613fe2565b5b0217905550818373ffffffffffffffffffffffffffffffffffffffff167f1415547ac25cccddfd82d3b4bcad6c1a8383110d39e6799a32b6cc5f2987e9146002604051611cf6919061444d565b60405180910390a35b505050565b60015f9054906101000a900473ffffffffffffffffffffffffffffffffffffffff1681565b60025f9054906101000a900473ffffffffffffffffffffffffffffffffffffffff1681565b6007602052815f5260405f20602052805f5260405f205f9150915050805f015f9054906101000a900460d01b90806001015490806002015490806003015490806004015f9054906101000a900473ffffffffffffffffffffffffffffffffffffffff16908060040160149054906101000a900460ff16908060040160159054906101000a900460ff16905087565b611de46133ed565b5f60075f3373ffffffffffffffffffffffffffffffffffffffff1673ffffffffffffffffffffffffffffffffffffffff1681526020019081526020015f205f8381526020019081526020015f2090508060040160159054906101000a900460ff16611e885733826040517f9477d825000000000000000000000000000000000000000000000000000000008152600401611e7f92919061464d565b60405180910390fd5b60036004811115611e9c57611e9b613fe2565b5b8160040160149054906101000a900460ff166004811115611ec057611ebf613fe2565b5b1480611f005750600480811115611eda57611ed9613fe2565b5b8160040160149054906101000a900460ff166004811115611efe57611efd613fe2565b5b145b15611f37576040517fa85e6f1a00000000000000000000000000000000000000000000000000000000815260040160405180910390fd5b806002015460055411611f92578060040160149054906101000a900460ff166040517fdf9c18c0000000000000000000000000000000000000000000000000000000008152600401611f89919061444d565b60405180910390fd5b5f60028260020154611fa491906144c6565b9050806005541115611ff55781600201546005546040517f12e5cffe000000000000000000000000000000000000000000000000000000008152600401611fec9291906144f9565b60405180910390fd5b5f826003015490505f836004015f9054906101000a900473ffffffffffffffffffffffffffffffffffffffff16905060038460040160146101000a81548160ff0219169083600481111561204c5761204b613fe2565b5b02179055505f84600301819055505f73ffffffffffffffffffffffffffffffffffffffff168173ffffffffffffffffffffffffffffffffffffffff160361213b575f3373ffffffffffffffffffffffffffffffffffffffff16836040516120b29061454d565b5f6040518083038185875af1925050503d805f81146120ec576040519150601f19603f3d011682016040523d82523d5f602084013e6120f1565b606091505b5050905080612135576040517f08c379a000000000000000000000000000000000000000000000000000000000815260040161212c906145ab565b60405180910390fd5b50612167565b61216633838373ffffffffffffffffffffffffffffffffffffffff166136649092919063ffffffff16565b5b843373ffffffffffffffffffffffffffffffffffffffff167fad8270d9f16e19a32ba47f589e09c7c69d78067b4d2f59f4d7d95f4a37b792a184846040516121b0929190614674565b60405180910390a3505050506121c461364a565b50565b60065f9054906101000a900460ff1681565b6121e1613366565b6121ea5f6136b7565b565b6121f4613366565b5f73ffffffffffffffffffffffffffffffffffffffff168173ffffffffffffffffffffffffffffffffffffffff1603612259576040517fd92e233d00000000000000000000000000000000000000000000000000000000815260040160405180910390fd5b8060015f6101000a81548173ffffffffffffffffffffffffffffffffffffffff021916908373ffffffffffffffffffffffffffffffffffffffff1602179055508073ffffffffffffffffffffffffffffffffffffffff167f02b48ab5a397c976981a15213f5c994553b8fb01c27d3b77542c6095a483379d60405160405180910390a250565b60025f9054906101000a900473ffffffffffffffffffffffffffffffffffffffff1673ffffffffffffffffffffffffffffffffffffffff163373ffffffffffffffffffffffffffffffffffffffff1614612365576040517f3e94dce900000000000000000000000000000000000000000000000000000000815260040160405180910390fd5b5f60075f8473ffffffffffffffffffffffffffffffffffffffff1673ffffffffffffffffffffffffffffffffffffffff1681526020019081526020015f205f8381526020019081526020015f2090508060040160159054906101000a900460ff1680156124475750600260048111156123e1576123e0613fe2565b5b8160040160149054906101000a900460ff16600481111561240557612404613fe2565b5b14806124465750600160048111156124205761241f613fe2565b5b8160040160149054906101000a900460ff16600481111561244457612443613fe2565b5b145b5b156124ca5760048160040160146101000a81548160ff0219169083600481111561247457612473613fe2565b5b0217905550818373ffffffffffffffffffffffffffffffffffffffff167f1415547ac25cccddfd82d3b4bcad6c1a8383110d39e6799a32b6cc5f2987e91460046040516124c1919061444d565b60405180910390a35b505050565b60605f60095f8473ffffffffffffffffffffffffffffffffffffffff1673ffffffffffffffffffffffffffffffffffffffff1681526020019081526020015f2080548060200260200160405190810160405280929190818152602001828054801561255757602002820191905f5260205f20905b815481526020019060010190808311612543575b50505050509050805167ffffffffffffffff8111156125795761257861469b565b5b6040519080825280602002602001820160405280156125b257816020015b61259f6138e1565b8152602001906001900390816125975790505b5091505f5b81518110156127745760075f8573ffffffffffffffffffffffffffffffffffffffff1673ffffffffffffffffffffffffffffffffffffffff1681526020019081526020015f205f83838151811061261157612610614420565b5b602002602001015181526020019081526020015f206040518060e00160405290815f82015f9054906101000a900460d01b79ffffffffffffffffffffffffffffffffffffffffffffffffffff191679ffffffffffffffffffffffffffffffffffffffffffffffffffff19168152602001600182015481526020016002820154815260200160038201548152602001600482015f9054906101000a900473ffffffffffffffffffffffffffffffffffffffff1673ffffffffffffffffffffffffffffffffffffffff1673ffffffffffffffffffffffffffffffffffffffff1681526020016004820160149054906101000a900460ff16600481111561271857612717613fe2565b5b600481111561272a57612729613fe2565b5b81526020016004820160159054906101000a900460ff16151515158152505083828151811061275c5761275b614420565b5b602002602001018190525080806001019150506125b7565b5050919050565b60045481565b612789613366565b600160065f6101000a81548160ff0219169083151502179055503373ffffffffffffffffffffffffffffffffffffffff167f62e78cea01bee320cd4e420270b5ea74000d11b0c9f74754ebdbfc544b05a25860405160405180910390a2565b6127f06133ed565b60065f9054906101000a900460ff1615612836576040517fab35696f00000000000000000000000000000000000000000000000000000000815260040160405180910390fd5b5f600160055461284691906144c6565b90505f60075f3373ffffffffffffffffffffffffffffffffffffffff1673ffffffffffffffffffffffffffffffffffffffff1681526020019081526020015f205f8381526020019081526020015f2090508060040160159054906101000a900460ff166128ec5733826040517f9477d8250000000000000000000000000000000000000000000000000000000081526004016128e392919061464d565b60405180910390fd5b5f60048111156128ff576128fe613fe2565b5b8160040160149054906101000a900460ff16600481111561292357612922613fe2565b5b141580156129675750600160048111156129405761293f613fe2565b5b8160040160149054906101000a900460ff16600481111561296457612963613fe2565b5b14155b156129ba578060040160149054906101000a900460ff166040517f97b79d030000000000000000000000000000000000000000000000000000000081526004016129b1919061444d565b60405180910390fd5b6129c38461340f565b5f600354846129d291906145c9565b90505f811115612ac2575f7f000000000000000000000000000000000000000000000000000000000000000073ffffffffffffffffffffffffffffffffffffffff1663dd62ed3e33306040518363ffffffff1660e01b8152600401612a389291906146c8565b602060405180830381865afa158015612a53573d5f803e3d5ffd5b505050506040513d601f19601f82011682018060405250810190612a779190614703565b905081811015612ac05781816040517f2a1b2dd8000000000000000000000000000000000000000000000000000000008152600401612ab79291906144f9565b60405180910390fd5b505b5f825f015f9054906101000a900460d01b905085835f015f6101000a81548165ffffffffffff021916908360d01c02179055508484612b0191906144c6565b836002018190555060085f8581526020019081526020015f205f8779ffffffffffffffffffffffffffffffffffffffffffffffffffff191679ffffffffffffffffffffffffffffffffffffffffffffffffffff191681526020019081526020015f2033908060018154018082558091505060019003905f5260205f20015f9091909190916101000a81548173ffffffffffffffffffffffffffffffffffffffff021916908373ffffffffffffffffffffffffffffffffffffffff1602179055505f821115612c8657612c373360015f9054906101000a900473ffffffffffffffffffffffffffffffffffffffff16847f000000000000000000000000000000000000000000000000000000000000000073ffffffffffffffffffffffffffffffffffffffff166135f5909392919063ffffffff16565b3373ffffffffffffffffffffffffffffffffffffffff167f41a209ee6a3eb8344a3f83b585bb4d93349bfbbd34dce09ea38d8023516f2da083604051612c7d9190613d41565b60405180910390a25b833373ffffffffffffffffffffffffffffffffffffffff167fab313771997efca336c32b9e87cd8a060e3f223ab8b4e494e49c21e2342fb73c838986604051612cd19392919061472e565b60405180910390a350505050612ce561364a565b5050565b60055481565b612cf7613366565b5f821480612d0457505f81145b15612d3b576040517f1f2a200500000000000000000000000000000000000000000000000000000000815260040160405180910390fd5b81600381905550806004819055507f5299e127ac8bdc64fd0e551dd406ba1e1fbaebc96d458ce9b1a5e69caecdf3768282604051612d7a9291906144f9565b60405180910390a15050565b5f805f9054906101000a900473ffffffffffffffffffffffffffffffffffffffff16905090565b606060085f8481526020019081526020015f205f8379ffffffffffffffffffffffffffffffffffffffffffffffffffff191679ffffffffffffffffffffffffffffffffffffffffffffffffffff191681526020019081526020015f20805480602002602001604051908101604052809291908181526020018280548015612e8657602002820191905f5260205f20905b815f9054906101000a900473ffffffffffffffffffffffffffffffffffffffff1673ffffffffffffffffffffffffffffffffffffffff1681526020019060010190808311612e3d575b5050505050905092915050565b5f60085f6001600554612ea691906144c6565b81526020019081526020015f205f8379ffffffffffffffffffffffffffffffffffffffffffffffffffff191679ffffffffffffffffffffffffffffffffffffffffffffffffffff191681526020019081526020015f20805490509050919050565b5f805f60075f8673ffffffffffffffffffffffffffffffffffffffff1673ffffffffffffffffffffffffffffffffffffffff1681526020019081526020015f205f8581526020019081526020015f2090508060040160159054906101000a900460ff16612f7d575f8060d01b9250925050612f95565b6001815f015f9054906101000a900460d01b92509250505b9250929050565b600b602052815f5260405f20602052805f5260405f205f915091509054906101000a900460ff1681565b612fce6138e1565b60075f8473ffffffffffffffffffffffffffffffffffffffff1673ffffffffffffffffffffffffffffffffffffffff1681526020019081526020015f205f8381526020019081526020015f206040518060e00160405290815f82015f9054906101000a900460d01b79ffffffffffffffffffffffffffffffffffffffffffffffffffff191679ffffffffffffffffffffffffffffffffffffffffffffffffffff19168152602001600182015481526020016002820154815260200160038201548152602001600482015f9054906101000a900473ffffffffffffffffffffffffffffffffffffffff1673ffffffffffffffffffffffffffffffffffffffff1673ffffffffffffffffffffffffffffffffffffffff1681526020016004820160149054906101000a900460ff16600481111561310c5761310b613fe2565b5b600481111561311e5761311d613fe2565b5b81526020016004820160159054906101000a900460ff161515151581525050905092915050565b5f805f60075f8673ffffffffffffffffffffffffffffffffffffffff1673ffffffffffffffffffffffffffffffffffffffff1681526020019081526020015f205f8581526020019081526020015f2090508060040160159054906101000a900460ff166131bb575f8060d01b925092505061327d565b600160048111156131cf576131ce613fe2565b5b8160040160149054906101000a900460ff1660048111156131f3576131f2613fe2565b5b1415801561323657505f600481111561320f5761320e613fe2565b5b8160040160149054906101000a900460ff16600481111561323357613232613fe2565b5b14155b1561324a575f8060d01b925092505061327d565b8060020154841115613265575f8060d01b925092505061327d565b6001815f015f9054906101000a900460d01b92509250505b9250929050565b5f6003548261329391906145c9565b9050919050565b600a602052815f5260405f2081815481106132b3575f80fd5b905f5260205f20015f915091509054906101000a900473ffffffffffffffffffffffffffffffffffffffff1681565b6132ea613366565b5f73ffffffffffffffffffffffffffffffffffffffff168173ffffffffffffffffffffffffffffffffffffffff160361335a575f6040517f1e4fbdf70000000000000000000000000000000000000000000000000000000081526004016133519190613a7d565b60405180910390fd5b613363816136b7565b50565b61336e613778565b73ffffffffffffffffffffffffffffffffffffffff1661338c612d86565b73ffffffffffffffffffffffffffffffffffffffff16146133eb576133af613778565b6040517f118cdaa70000000000000000000000000000000000000000000000000000000081526004016133e29190613a7d565b60405180910390fd5b565b6133f561377f565b60026134076134026137c0565b6137e9565b5f0181905550565b5f805b60068110156135f0575f83826006811061342f5761342e614420565b5b1a60f81b90505f604160f81b827effffffffffffffffffffffffffffffffffffffffffffffffffffffffffffff1916101580156134925750605a60f81b827effffffffffffffffffffffffffffffffffffffffffffffffffffffffffffff191611155b90505f603060f81b837effffffffffffffffffffffffffffffffffffffffffffffffffffffffffffff1916101580156134f15750603960f81b837effffffffffffffffffffffffffffffffffffffffffffffffffffffffffffff191611155b9050811580156134ff575080155b1561354157826040517f3fd7c867000000000000000000000000000000000000000000000000000000008152600401613538919061479d565b60405180910390fd5b5f8261356b57601a60308560f81c60ff1661355c9190614493565b61356691906144c6565b61357f565b60418460f81c60ff1661357e9190614493565b5b90505f816001901b90505f81881667ffffffffffffffff16146135d957846040517f8cd88f690000000000000000000000000000000000000000000000000000000081526004016135d0919061479d565b60405180910390fd5b808717965050505050508080600101915050613412565b505050565b6136038484848460016137f2565b61364457836040517f5274afe700000000000000000000000000000000000000000000000000000000815260040161363b9190613a7d565b60405180910390fd5b50505050565b600161365c6136576137c0565b6137e9565b5f0181905550565b6136718383836001613863565b6136b257826040517f5274afe70000000000000000000000000000000000000000000000000000000081526004016136a99190613a7d565b60405180910390fd5b505050565b5f805f9054906101000a900473ffffffffffffffffffffffffffffffffffffffff169050815f806101000a81548173ffffffffffffffffffffffffffffffffffffffff021916908373ffffffffffffffffffffffffffffffffffffffff1602179055508173ffffffffffffffffffffffffffffffffffffffff168173ffffffffffffffffffffffffffffffffffffffff167f8be0079c531659141344cd1fd0a4f28419497f9722a3daafe3b4186f6b6457e060405160405180910390a35050565b5f33905090565b6137876138c5565b156137be576040517f3ee5aeb500000000000000000000000000000000000000000000000000000000815260040160405180910390fd5b565b5f7f9b779b17422d0df92223018b32b4d1fa46e071723d6817e2486d003becc55f005f1b905090565b5f819050919050565b5f806323b872dd60e01b9050604051815f525f1960601c87166004525f1960601c86166024528460445260205f60645f808c5af1925060015f51148316613850578383151615613844573d5f823e3d81fd5b5f883b113d1516831692505b806040525f606052505095945050505050565b5f8063a9059cbb60e01b9050604051815f525f1960601c86166004528460245260205f60445f808b5af1925060015f511483166138b75783831516156138ab573d5f823e3d81fd5b5f873b113d1516831692505b806040525050949350505050565b5f60026138d86138d36137c0565b6137e9565b5f015414905090565b6040518060e001604052805f79ffffffffffffffffffffffffffffffffffffffffffffffffffff191681526020015f81526020015f81526020015f81526020015f73ffffffffffffffffffffffffffffffffffffffff1681526020015f60048111156139505761394f613fe2565b5b81526020015f151581525090565b5f80fd5b5f80fd5b5f819050919050565b61397881613966565b8114613982575f80fd5b50565b5f813590506139938161396f565b92915050565b5f7fffffffffffff000000000000000000000000000000000000000000000000000082169050919050565b6139cd81613999565b81146139d7575f80fd5b50565b5f813590506139e8816139c4565b92915050565b5f805f60608486031215613a0557613a0461395e565b5b5f613a1286828701613985565b9350506020613a23868287016139da565b9250506040613a3486828701613985565b9150509250925092565b5f73ffffffffffffffffffffffffffffffffffffffff82169050919050565b5f613a6782613a3e565b9050919050565b613a7781613a5d565b82525050565b5f602082019050613a905f830184613a6e565b92915050565b5f819050919050565b5f613ab9613ab4613aaf84613a3e565b613a96565b613a3e565b9050919050565b5f613aca82613a9f565b9050919050565b5f613adb82613ac0565b9050919050565b613aeb81613ad1565b82525050565b5f602082019050613b045f830184613ae2565b92915050565b5f80fd5b5f80fd5b5f80fd5b5f8083601f840112613b2b57613b2a613b0a565b5b8235905067ffffffffffffffff811115613b4857613b47613b0e565b5b602083019150836020820283011115613b6457613b63613b12565b5b9250929050565b5f805f60408486031215613b8257613b8161395e565b5b5f613b8f86828701613985565b935050602084013567ffffffffffffffff811115613bb057613baf613962565b5b613bbc86828701613b16565b92509250509250925092565b613bd181613a5d565b8114613bdb575f80fd5b50565b5f81359050613bec81613bc8565b92915050565b5f60208284031215613c0757613c0661395e565b5b5f613c1484828501613bde565b91505092915050565b5f81519050919050565b5f82825260208201905092915050565b5f819050602082019050919050565b613c4f81613966565b82525050565b5f613c608383613c46565b60208301905092915050565b5f602082019050919050565b5f613c8282613c1d565b613c8c8185613c27565b9350613c9783613c37565b805f5b83811015613cc7578151613cae8882613c55565b9750613cb983613c6c565b925050600181019050613c9a565b5085935050505092915050565b5f6020820190508181035f830152613cec8184613c78565b905092915050565b5f8060408385031215613d0a57613d0961395e565b5b5f613d1785828601613bde565b9250506020613d2885828601613985565b9150509250929050565b613d3b81613966565b82525050565b5f602082019050613d545f830184613d32565b92915050565b5f60208284031215613d6f57613d6e61395e565b5b5f613d7c848285016139da565b91505092915050565b5f8115159050919050565b613d9981613d85565b82525050565b5f81519050919050565b5f82825260208201905092915050565b5f5b83811015613dd6578082015181840152602081019050613dbb565b5f8484015250505050565b5f601f19601f8301169050919050565b5f613dfb82613d9f565b613e058185613da9565b9350613e15818560208601613db9565b613e1e81613de1565b840191505092915050565b5f604082019050613e3c5f830185613d90565b8181036020830152613e4e8184613df1565b90509392505050565b5f60208284031215613e6c57613e6b61395e565b5b5f613e7984828501613985565b91505092915050565b613e8b81613d85565b8114613e95575f80fd5b50565b5f81359050613ea681613e82565b92915050565b5f805f60608486031215613ec357613ec261395e565b5b5f613ed0868287016139da565b9350506020613ee186828701613e98565b9250506040613ef286828701613985565b9150509250925092565b5f81519050919050565b5f82825260208201905092915050565b5f819050602082019050919050565b613f2e81613a5d565b82525050565b5f613f3f8383613f25565b60208301905092915050565b5f602082019050919050565b5f613f6182613efc565b613f6b8185613f06565b9350613f7683613f16565b805f5b83811015613fa6578151613f8d8882613f34565b9750613f9883613f4b565b925050600181019050613f79565b5085935050505092915050565b5f6020820190508181035f830152613fcb8184613f57565b905092915050565b613fdc81613999565b82525050565b7f4e487b71000000000000000000000000000000000000000000000000000000005f52602160045260245ffd5b600581106140205761401f613fe2565b5b50565b5f8190506140308261400f565b919050565b5f61403f82614023565b9050919050565b61404f81614035565b82525050565b5f60e0820190506140685f83018a613fd3565b6140756020830189613d32565b6140826040830188613d32565b61408f6060830187613d32565b61409c6080830186613a6e565b6140a960a0830185614046565b6140b660c0830184613d90565b98975050505050505050565b5f6020820190506140d55f830184613d90565b92915050565b5f81519050919050565b5f82825260208201905092915050565b5f819050602082019050919050565b61410d81613999565b82525050565b61411c81614035565b82525050565b61412b81613d85565b82525050565b60e082015f8201516141455f850182614104565b5060208201516141586020850182613c46565b50604082015161416b6040850182613c46565b50606082015161417e6060850182613c46565b5060808201516141916080850182613f25565b5060a08201516141a460a0850182614113565b5060c08201516141b760c0850182614122565b50505050565b5f6141c88383614131565b60e08301905092915050565b5f602082019050919050565b5f6141ea826140db565b6141f481856140e5565b93506141ff836140f5565b805f5b8381101561422f57815161421688826141bd565b9750614221836141d4565b925050600181019050614202565b5085935050505092915050565b5f6020820190508181035f83015261425481846141e0565b905092915050565b5f80604083850312156142725761427161395e565b5b5f61427f858286016139da565b925050602061429085828601613985565b9150509250929050565b5f80604083850312156142b0576142af61395e565b5b5f6142bd85828601613985565b92505060206142ce85828601613985565b9150509250929050565b5f80604083850312156142ee576142ed61395e565b5b5f6142fb85828601613985565b925050602061430c858286016139da565b9150509250929050565b5f6040820190506143295f830185613d90565b6143366020830184613fd3565b9392505050565b5f80604083850312156143535761435261395e565b5b5f61436085828601613985565b925050602061437185828601613bde565b9150509250929050565b60e082015f82015161438f5f850182614104565b5060208201516143a26020850182613c46565b5060408201516143b56040850182613c46565b5060608201516143c86060850182613c46565b5060808201516143db6080850182613f25565b5060a08201516143ee60a0850182614113565b5060c082015161440160c0850182614122565b50505050565b5f60e08201905061441a5f83018461437b565b92915050565b7f4e487b71000000000000000000000000000000000000000000000000000000005f52603260045260245ffd5b5f6020820190506144605f830184614046565b92915050565b7f4e487b71000000000000000000000000000000000000000000000000000000005f52601160045260245ffd5b5f61449d82613966565b91506144a883613966565b92508282039050818111156144c0576144bf614466565b5b92915050565b5f6144d082613966565b91506144db83613966565b92508282019050808211156144f3576144f2614466565b5b92915050565b5f60408201905061450c5f830185613d32565b6145196020830184613d32565b9392505050565b5f81905092915050565b50565b5f6145385f83614520565b91506145438261452a565b5f82019050919050565b5f6145578261452d565b9150819050919050565b7f45544820726566756e64206661696c65640000000000000000000000000000005f82015250565b5f614595601183613da9565b91506145a082614561565b602082019050919050565b5f6020820190508181035f8301526145c281614589565b9050919050565b5f6145d382613966565b91506145de83613966565b92508282026145ec81613966565b9150828204841483151761460357614602614466565b5b5092915050565b5f60808201905061461d5f830187613fd3565b61462a6020830186613d32565b6146376040830185613a6e565b6146446060830184613d32565b95945050505050565b5f6040820190506146605f830185613a6e565b61466d6020830184613d32565b9392505050565b5f6040820190506146875f830185613d32565b6146946020830184613a6e565b9392505050565b7f4e487b71000000000000000000000000000000000000000000000000000000005f52604160045260245ffd5b5f6040820190506146db5f830185613a6e565b6146e86020830184613a6e565b9392505050565b5f815190506146fd8161396f565b92915050565b5f602082840312156147185761471761395e565b5b5f614725848285016146ef565b91505092915050565b5f6060820190506147415f830186613fd3565b61474e6020830185613fd3565b61475b6040830184613d32565b949350505050565b5f7fff0000000000000000000000000000000000000000000000000000000000000082169050919050565b61479781614763565b82525050565b5f6020820190506147b05f83018461478e565b9291505056fe496e76616c6964206368617261637465723a206d75737420626520412d5a206f7220302d39a2646970667358221220834b0d7a63ccd850fc02818508ccec5abfa8872b06de7f5a5bc9da583086b54d64736f6c63430008180033",
			"opcodes": "PUSH1 0xA0 PUSH1 0x40 MSTORE CALLVALUE DUP1 ISZERO PUSH3 0x10 JUMPI PUSH0 DUP1 REVERT JUMPDEST POP PUSH1 0x40 MLOAD PUSH3 0x4C97 CODESIZE SUB DUP1 PUSH3 0x4C97 DUP4 CODECOPY DUP2 DUP2 ADD PUSH1 0x40 MSTORE DUP2 ADD SWAP1 PUSH3 0x36 SWAP2 SWAP1 PUSH3 0x3C5 JUMP JUMPDEST CALLER PUSH0 PUSH20 0xFFFFFFFFFFFFFFFFFFFFFFFFFFFFFFFFFFFFFFFF AND DUP2 PUSH20 0xFFFFFFFFFFFFFFFFFFFFFFFFFFFFFFFFFFFFFFFF AND SUB PUSH3 0xAA JUMPI PUSH0 PUSH1 0x40 MLOAD PUSH32 0x1E4FBDF700000000000000000000000000000000000000000000000000000000 DUP2 MSTORE PUSH1 0x4 ADD PUSH3 0xA1 SWAP2 SWAP1 PUSH3 0x42F JUMP JUMPDEST PUSH1 0x40 MLOAD DUP1 SWAP2 SUB SWAP1 REVERT JUMPDEST PUSH3 0xBB DUP2 PUSH3 0x26D PUSH1 0x20 SHL PUSH1 0x20 SHR JUMP JUMPDEST POP PUSH1 0x1 PUSH3 0xDE PUSH3 0xD2 PUSH3 0x32E PUSH1 0x20 SHL PUSH1 0x20 SHR JUMP JUMPDEST PUSH3 0x357 PUSH1 0x20 SHL PUSH1 0x20 SHR JUMP JUMPDEST PUSH0 ADD DUP2 SWAP1 SSTORE POP PUSH0 PUSH20 0xFFFFFFFFFFFFFFFFFFFFFFFFFFFFFFFFFFFFFFFF AND DUP4 PUSH20 0xFFFFFFFFFFFFFFFFFFFFFFFFFFFFFFFFFFFFFFFF AND SUB PUSH3 0x14A JUMPI PUSH1 0x40 MLOAD PUSH32 0xD92E233D00000000000000000000000000000000000000000000000000000000 DUP2 MSTORE PUSH1 0x4 ADD PUSH1 0x40 MLOAD DUP1 SWAP2 SUB SWAP1 REVERT JUMPDEST PUSH0 PUSH20 0xFFFFFFFFFFFFFFFFFFFFFFFFFFFFFFFFFFFFFFFF AND DUP3 PUSH20 0xFFFFFFFFFFFFFFFFFFFFFFFFFFFFFFFFFFFFFFFF AND SUB PUSH3 0x1B0 JUMPI PUSH1 0x40 MLOAD PUSH32 0xD92E233D00000000000000000000000000000000000000000000000000000000 DUP2 MSTORE PUSH1 0x4 ADD PUSH1 0x40 MLOAD DUP1 SWAP2 SUB SWAP1 REVERT JUMPDEST DUP3 PUSH20 0xFFFFFFFFFFFFFFFFFFFFFFFFFFFFFFFFFFFFFFFF AND PUSH1 0x80 DUP2 PUSH20 0xFFFFFFFFFFFFFFFFFFFFFFFFFFFFFFFFFFFFFFFF AND DUP2 MSTORE POP POP DUP2 PUSH1 0x1 PUSH0 PUSH2 0x100 EXP DUP2 SLOAD DUP2 PUSH20 0xFFFFFFFFFFFFFFFFFFFFFFFFFFFFFFFFFFFFFFFF MUL NOT AND SWAP1 DUP4 PUSH20 0xFFFFFFFFFFFFFFFFFFFFFFFFFFFFFFFFFFFFFFFF AND MUL OR SWAP1 SSTORE POP DUP1 PUSH1 0x2 PUSH0 PUSH2 0x100 EXP DUP2 SLOAD DUP2 PUSH20 0xFFFFFFFFFFFFFFFFFFFFFFFFFFFFFFFFFFFFFFFF MUL NOT AND SWAP1 DUP4 PUSH20 0xFFFFFFFFFFFFFFFFFFFFFFFFFFFFFFFFFFFFFFFF AND MUL OR SWAP1 SSTORE POP POP POP POP PUSH3 0x44A JUMP JUMPDEST PUSH0 DUP1 PUSH0 SWAP1 SLOAD SWAP1 PUSH2 0x100 EXP SWAP1 DIV PUSH20 0xFFFFFFFFFFFFFFFFFFFFFFFFFFFFFFFFFFFFFFFF AND SWAP1 POP DUP2 PUSH0 DUP1 PUSH2 0x100 EXP DUP2 SLOAD DUP2 PUSH20 0xFFFFFFFFFFFFFFFFFFFFFFFFFFFFFFFFFFFFFFFF MUL NOT AND SWAP1 DUP4 PUSH20 0xFFFFFFFFFFFFFFFFFFFFFFFFFFFFFFFFFFFFFFFF AND MUL OR SWAP1 SSTORE POP DUP2 PUSH20 0xFFFFFFFFFFFFFFFFFFFFFFFFFFFFFFFFFFFFFFFF AND DUP2 PUSH20 0xFFFFFFFFFFFFFFFFFFFFFFFFFFFFFFFFFFFFFFFF AND PUSH32 0x8BE0079C531659141344CD1FD0A4F28419497F9722A3DAAFE3B4186F6B6457E0 PUSH1 0x40 MLOAD PUSH1 0x40 MLOAD DUP1 SWAP2 SUB SWAP1 LOG3 POP POP JUMP JUMPDEST PUSH0 PUSH32 0x9B779B17422D0DF92223018B32B4D1FA46E071723D6817E2486D003BECC55F00 PUSH0 SHL SWAP1 POP SWAP1 JUMP JUMPDEST PUSH0 DUP2 SWAP1 POP SWAP2 SWAP1 POP JUMP JUMPDEST PUSH0 DUP1 REVERT JUMPDEST PUSH0 PUSH20 0xFFFFFFFFFFFFFFFFFFFFFFFFFFFFFFFFFFFFFFFF DUP3 AND SWAP1 POP SWAP2 SWAP1 POP JUMP JUMPDEST PUSH0 PUSH3 0x38F DUP3 PUSH3 0x364 JUMP JUMPDEST SWAP1 POP SWAP2 SWAP1 POP JUMP JUMPDEST PUSH3 0x3A1 DUP2 PUSH3 0x383 JUMP JUMPDEST DUP2 EQ PUSH3 0x3AC JUMPI PUSH0 DUP1 REVERT JUMPDEST POP JUMP JUMPDEST PUSH0 DUP2 MLOAD SWAP1 POP PUSH3 0x3BF DUP2 PUSH3 0x396 JUMP JUMPDEST SWAP3 SWAP2 POP POP JUMP JUMPDEST PUSH0 DUP1 PUSH0 PUSH1 0x60 DUP5 DUP7 SUB SLT ISZERO PUSH3 0x3DF JUMPI PUSH3 0x3DE PUSH3 0x360 JUMP JUMPDEST JUMPDEST PUSH0 PUSH3 0x3EE DUP7 DUP3 DUP8 ADD PUSH3 0x3AF JUMP JUMPDEST SWAP4 POP POP PUSH1 0x20 PUSH3 0x401 DUP7 DUP3 DUP8 ADD PUSH3 0x3AF JUMP JUMPDEST SWAP3 POP POP PUSH1 0x40 PUSH3 0x414 DUP7 DUP3 DUP8 ADD PUSH3 0x3AF JUMP JUMPDEST SWAP2 POP POP SWAP3 POP SWAP3 POP SWAP3 JUMP JUMPDEST PUSH3 0x429 DUP2 PUSH3 0x383 JUMP JUMPDEST DUP3 MSTORE POP POP JUMP JUMPDEST PUSH0 PUSH1 0x20 DUP3 ADD SWAP1 POP PUSH3 0x444 PUSH0 DUP4 ADD DUP5 PUSH3 0x41E JUMP JUMPDEST SWAP3 SWAP2 POP POP JUMP JUMPDEST PUSH1 0x80 MLOAD PUSH2 0x4811 PUSH3 0x486 PUSH0 CODECOPY PUSH0 DUP2 DUP2 PUSH2 0x93C ADD MSTORE DUP2 DUP2 PUSH2 0x144B ADD MSTORE DUP2 DUP2 PUSH2 0x1476 ADD MSTORE DUP2 DUP2 PUSH2 0x14FE ADD MSTORE DUP2 DUP2 PUSH2 0x29DF ADD MSTORE PUSH2 0x2BF2 ADD MSTORE PUSH2 0x4811 PUSH0 RETURN INVALID PUSH1 0x80 PUSH1 0x40 MSTORE PUSH1 0x4 CALLDATASIZE LT PUSH2 0x21D JUMPI PUSH0 CALLDATALOAD PUSH1 0xE0 SHR DUP1 PUSH4 0x715018A6 GT PUSH2 0x122 JUMPI DUP1 PUSH4 0x8DA5CB5B GT PUSH2 0xAA JUMPI DUP1 PUSH4 0xB8A740E0 GT PUSH2 0x6E JUMPI DUP1 PUSH4 0xB8A740E0 EQ PUSH2 0x7CE JUMPI DUP1 PUSH4 0xC106AEE3 EQ PUSH2 0x80A JUMPI DUP1 PUSH4 0xD6B7E9D9 EQ PUSH2 0x847 JUMPI DUP1 PUSH4 0xECDD4F9F EQ PUSH2 0x883 JUMPI DUP1 PUSH4 0xF2FDE38B EQ PUSH2 0x8BF JUMPI PUSH2 0x224 JUMP JUMPDEST DUP1 PUSH4 0x8DA5CB5B EQ PUSH2 0x6B3 JUMPI DUP1 PUSH4 0x9FD11627 EQ PUSH2 0x6DD JUMPI DUP1 PUSH4 0xA4CE555D EQ PUSH2 0x719 JUMPI DUP1 PUSH4 0xA96DE4F5 EQ PUSH2 0x755 JUMPI DUP1 PUSH4 0xB5740C9C EQ PUSH2 0x792 JUMPI PUSH2 0x224 JUMP JUMPDEST DUP1 PUSH4 0x83D5D801 GT PUSH2 0xF1 JUMPI DUP1 PUSH4 0x83D5D801 EQ PUSH2 0x605 JUMPI DUP1 PUSH4 0x8456CB59 EQ PUSH2 0x62F JUMPI DUP1 PUSH4 0x87C3AC08 EQ PUSH2 0x645 JUMPI DUP1 PUSH4 0x8A19C8BC EQ PUSH2 0x661 JUMPI DUP1 PUSH4 0x8D88F8D1 EQ PUSH2 0x68B JUMPI PUSH2 0x224 JUMP JUMPDEST DUP1 PUSH4 0x715018A6 EQ PUSH2 0x563 JUMPI DUP1 PUSH4 0x74C47393 EQ PUSH2 0x579 JUMPI DUP1 PUSH4 0x7A03CE4F EQ PUSH2 0x5A1 JUMPI DUP1 PUSH4 0x8249A69C EQ PUSH2 0x5C9 JUMPI PUSH2 0x224 JUMP JUMPDEST DUP1 PUSH4 0x42610993 GT PUSH2 0x1A5 JUMPI DUP1 PUSH4 0x4CE04501 GT PUSH2 0x174 JUMPI DUP1 PUSH4 0x4CE04501 EQ PUSH2 0x47B JUMPI DUP1 PUSH4 0x5364276D EQ PUSH2 0x4A5 JUMPI DUP1 PUSH4 0x53B65D40 EQ PUSH2 0x4CF JUMPI DUP1 PUSH4 0x5B7BAF64 EQ PUSH2 0x511 JUMPI DUP1 PUSH4 0x5C975ABB EQ PUSH2 0x539 JUMPI PUSH2 0x224 JUMP JUMPDEST DUP1 PUSH4 0x42610993 EQ PUSH2 0x3D1 JUMPI DUP1 PUSH4 0x454AC84E EQ PUSH2 0x3ED JUMPI DUP1 PUSH4 0x45C952CB EQ PUSH2 0x429 JUMPI DUP1 PUSH4 0x47F43EF2 EQ PUSH2 0x453 JUMPI PUSH2 0x224 JUMP JUMPDEST DUP1 PUSH4 0x2768A49F GT PUSH2 0x1EC JUMPI DUP1 PUSH4 0x2768A49F EQ PUSH2 0x2F2 JUMPI DUP1 PUSH4 0x27B23849 EQ PUSH2 0x32E JUMPI DUP1 PUSH4 0x338F0856 EQ PUSH2 0x356 JUMPI DUP1 PUSH4 0x3BC91E28 EQ PUSH2 0x393 JUMPI DUP1 PUSH4 0x3F4BA83A EQ PUSH2 0x3BB JUMPI PUSH2 0x224 JUMP JUMPDEST DUP1 PUSH4 0xBD4C399 EQ PUSH2 0x228 JUMPI DUP1 PUSH4 0xE31648F EQ PUSH2 0x264 JUMPI DUP1 PUSH4 0x1330CD86 EQ PUSH2 0x28E JUMPI DUP1 PUSH4 0x233507B9 EQ PUSH2 0x2B6 JUMPI PUSH2 0x224 JUMP JUMPDEST CALLDATASIZE PUSH2 0x224 JUMPI STOP JUMPDEST PUSH0 DUP1 REVERT JUMPDEST CALLVALUE DUP1 ISZERO PUSH2 0x233 JUMPI PUSH0 DUP1 REVERT JUMPDEST POP PUSH2 0x24E PUSH1 0x4 DUP1 CALLDATASIZE SUB DUP2 ADD SWAP1 PUSH2 0x249 SWAP2 SWAP1 PUSH2 0x39EE JUMP JUMPDEST PUSH2 0x8E7 JUMP JUMPDEST PUSH1 0x40 MLOAD PUSH2 0x25B SWAP2 SWAP1 PUSH2 0x3A7D JUMP JUMPDEST PUSH1 0x40 MLOAD DUP1 SWAP2 SUB SWAP1 RETURN JUMPDEST CALLVALUE DUP1 ISZERO PUSH2 0x26F JUMPI PUSH0 DUP1 REVERT JUMPDEST POP PUSH2 0x278 PUSH2 0x93A JUMP JUMPDEST PUSH1 0x40 MLOAD PUSH2 0x285 SWAP2 SWAP1 PUSH2 0x3AF1 JUMP JUMPDEST PUSH1 0x40 MLOAD DUP1 SWAP2 SUB SWAP1 RETURN JUMPDEST CALLVALUE DUP1 ISZERO PUSH2 0x299 JUMPI PUSH0 DUP1 REVERT JUMPDEST POP PUSH2 0x2B4 PUSH1 0x4 DUP1 CALLDATASIZE SUB DUP2 ADD SWAP1 PUSH2 0x2AF SWAP2 SWAP1 PUSH2 0x3B6B JUMP JUMPDEST PUSH2 0x95E JUMP JUMPDEST STOP JUMPDEST CALLVALUE DUP1 ISZERO PUSH2 0x2C1 JUMPI PUSH0 DUP1 REVERT JUMPDEST POP PUSH2 0x2DC PUSH1 0x4 DUP1 CALLDATASIZE SUB DUP2 ADD SWAP1 PUSH2 0x2D7 SWAP2 SWAP1 PUSH2 0x3BF2 JUMP JUMPDEST PUSH2 0xB77 JUMP JUMPDEST PUSH1 0x40 MLOAD PUSH2 0x2E9 SWAP2 SWAP1 PUSH2 0x3CD4 JUMP JUMPDEST PUSH1 0x40 MLOAD DUP1 SWAP2 SUB SWAP1 RETURN JUMPDEST CALLVALUE DUP1 ISZERO PUSH2 0x2FD JUMPI PUSH0 DUP1 REVERT JUMPDEST POP PUSH2 0x318 PUSH1 0x4 DUP1 CALLDATASIZE SUB DUP2 ADD SWAP1 PUSH2 0x313 SWAP2 SWAP1 PUSH2 0x3CF4 JUMP JUMPDEST PUSH2 0xC0A JUMP JUMPDEST PUSH1 0x40 MLOAD PUSH2 0x325 SWAP2 SWAP1 PUSH2 0x3D41 JUMP JUMPDEST PUSH1 0x40 MLOAD DUP1 SWAP2 SUB SWAP1 RETURN JUMPDEST CALLVALUE DUP1 ISZERO PUSH2 0x339 JUMPI PUSH0 DUP1 REVERT JUMPDEST POP PUSH2 0x354 PUSH1 0x4 DUP1 CALLDATASIZE SUB DUP2 ADD SWAP1 PUSH2 0x34F SWAP2 SWAP1 PUSH2 0x3BF2 JUMP JUMPDEST PUSH2 0xC35 JUMP JUMPDEST STOP JUMPDEST CALLVALUE DUP1 ISZERO PUSH2 0x361 JUMPI PUSH0 DUP1 REVERT JUMPDEST POP PUSH2 0x37C PUSH1 0x4 DUP1 CALLDATASIZE SUB DUP2 ADD SWAP1 PUSH2 0x377 SWAP2 SWAP1 PUSH2 0x3D5A JUMP JUMPDEST PUSH2 0xD28 JUMP JUMPDEST PUSH1 0x40 MLOAD PUSH2 0x38A SWAP3 SWAP2 SWAP1 PUSH2 0x3E29 JUMP JUMPDEST PUSH1 0x40 MLOAD DUP1 SWAP2 SUB SWAP1 RETURN JUMPDEST CALLVALUE DUP1 ISZERO PUSH2 0x39E JUMPI PUSH0 DUP1 REVERT JUMPDEST POP PUSH2 0x3B9 PUSH1 0x4 DUP1 CALLDATASIZE SUB DUP2 ADD SWAP1 PUSH2 0x3B4 SWAP2 SWAP1 PUSH2 0x3E57 JUMP JUMPDEST PUSH2 0xF1E JUMP JUMPDEST STOP JUMPDEST CALLVALUE DUP1 ISZERO PUSH2 0x3C6 JUMPI PUSH0 DUP1 REVERT JUMPDEST POP PUSH2 0x3CF PUSH2 0xFE5 JUMP JUMPDEST STOP JUMPDEST PUSH2 0x3EB PUSH1 0x4 DUP1 CALLDATASIZE SUB DUP2 ADD SWAP1 PUSH2 0x3E6 SWAP2 SWAP1 PUSH2 0x3EAC JUMP JUMPDEST PUSH2 0x104B JUMP JUMPDEST STOP JUMPDEST CALLVALUE DUP1 ISZERO PUSH2 0x3F8 JUMPI PUSH0 DUP1 REVERT JUMPDEST POP PUSH2 0x413 PUSH1 0x4 DUP1 CALLDATASIZE SUB DUP2 ADD SWAP1 PUSH2 0x40E SWAP2 SWAP1 PUSH2 0x3E57 JUMP JUMPDEST PUSH2 0x1AB2 JUMP JUMPDEST PUSH1 0x40 MLOAD PUSH2 0x420 SWAP2 SWAP1 PUSH2 0x3FB3 JUMP JUMPDEST PUSH1 0x40 MLOAD DUP1 SWAP2 SUB SWAP1 RETURN JUMPDEST CALLVALUE DUP1 ISZERO PUSH2 0x434 JUMPI PUSH0 DUP1 REVERT JUMPDEST POP PUSH2 0x43D PUSH2 0x1B4E JUMP JUMPDEST PUSH1 0x40 MLOAD PUSH2 0x44A SWAP2 SWAP1 PUSH2 0x3D41 JUMP JUMPDEST PUSH1 0x40 MLOAD DUP1 SWAP2 SUB SWAP1 RETURN JUMPDEST CALLVALUE DUP1 ISZERO PUSH2 0x45E JUMPI PUSH0 DUP1 REVERT JUMPDEST POP PUSH2 0x479 PUSH1 0x4 DUP1 CALLDATASIZE SUB DUP2 ADD SWAP1 PUSH2 0x474 SWAP2 SWAP1 PUSH2 0x3CF4 JUMP JUMPDEST PUSH2 0x1B54 JUMP JUMPDEST STOP JUMPDEST CALLVALUE DUP1 ISZERO PUSH2 0x486 JUMPI PUSH0 DUP1 REVERT JUMPDEST POP PUSH2 0x48F PUSH2 0x1D04 JUMP JUMPDEST PUSH1 0x40 MLOAD PUSH2 0x49C SWAP2 SWAP1 PUSH2 0x3A7D JUMP JUMPDEST PUSH1 0x40 MLOAD DUP1 SWAP2 SUB SWAP1 RETURN JUMPDEST CALLVALUE DUP1 ISZERO PUSH2 0x4B0 JUMPI PUSH0 DUP1 REVERT JUMPDEST POP PUSH2 0x4B9 PUSH2 0x1D29 JUMP JUMPDEST PUSH1 0x40 MLOAD PUSH2 0x4C6 SWAP2 SWAP1 PUSH2 0x3A7D JUMP JUMPDEST PUSH1 0x40 MLOAD DUP1 SWAP2 SUB SWAP1 RETURN JUMPDEST CALLVALUE DUP1 ISZERO PUSH2 0x4DA JUMPI PUSH0 DUP1 REVERT JUMPDEST POP PUSH2 0x4F5 PUSH1 0x4 DUP1 CALLDATASIZE SUB DUP2 ADD SWAP1 PUSH2 0x4F0 SWAP2 SWAP1 PUSH2 0x3CF4 JUMP JUMPDEST PUSH2 0x1D4E JUMP JUMPDEST PUSH1 0x40 MLOAD PUSH2 0x508 SWAP8 SWAP7 SWAP6 SWAP5 SWAP4 SWAP3 SWAP2 SWAP1 PUSH2 0x4055 JUMP JUMPDEST PUSH1 0x40 MLOAD DUP1 SWAP2 SUB SWAP1 RETURN JUMPDEST CALLVALUE DUP1 ISZERO PUSH2 0x51C JUMPI PUSH0 DUP1 REVERT JUMPDEST POP PUSH2 0x537 PUSH1 0x4 DUP1 CALLDATASIZE SUB DUP2 ADD SWAP1 PUSH2 0x532 SWAP2 SWAP1 PUSH2 0x3E57 JUMP JUMPDEST PUSH2 0x1DDC JUMP JUMPDEST STOP JUMPDEST CALLVALUE DUP1 ISZERO PUSH2 0x544 JUMPI PUSH0 DUP1 REVERT JUMPDEST POP PUSH2 0x54D PUSH2 0x21C7 JUMP JUMPDEST PUSH1 0x40 MLOAD PUSH2 0x55A SWAP2 SWAP1 PUSH2 0x40C2 JUMP JUMPDEST PUSH1 0x40 MLOAD DUP1 SWAP2 SUB SWAP1 RETURN JUMPDEST CALLVALUE DUP1 ISZERO PUSH2 0x56E JUMPI PUSH0 DUP1 REVERT JUMPDEST POP PUSH2 0x577 PUSH2 0x21D9 JUMP JUMPDEST STOP JUMPDEST CALLVALUE DUP1 ISZERO PUSH2 0x584 JUMPI PUSH0 DUP1 REVERT JUMPDEST POP PUSH2 0x59F PUSH1 0x4 DUP1 CALLDATASIZE SUB DUP2 ADD SWAP1 PUSH2 0x59A SWAP2 SWAP1 PUSH2 0x3BF2 JUMP JUMPDEST PUSH2 0x21EC JUMP JUMPDEST STOP JUMPDEST CALLVALUE DUP1 ISZERO PUSH2 0x5AC JUMPI PUSH0 DUP1 REVERT JUMPDEST POP PUSH2 0x5C7 PUSH1 0x4 DUP1 CALLDATASIZE SUB DUP2 ADD SWAP1 PUSH2 0x5C2 SWAP2 SWAP1 PUSH2 0x3CF4 JUMP JUMPDEST PUSH2 0x22DF JUMP JUMPDEST STOP JUMPDEST CALLVALUE DUP1 ISZERO PUSH2 0x5D4 JUMPI PUSH0 DUP1 REVERT JUMPDEST POP PUSH2 0x5EF PUSH1 0x4 DUP1 CALLDATASIZE SUB DUP2 ADD SWAP1 PUSH2 0x5EA SWAP2 SWAP1 PUSH2 0x3BF2 JUMP JUMPDEST PUSH2 0x24CF JUMP JUMPDEST PUSH1 0x40 MLOAD PUSH2 0x5FC SWAP2 SWAP1 PUSH2 0x423C JUMP JUMPDEST PUSH1 0x40 MLOAD DUP1 SWAP2 SUB SWAP1 RETURN JUMPDEST CALLVALUE DUP1 ISZERO PUSH2 0x610 JUMPI PUSH0 DUP1 REVERT JUMPDEST POP PUSH2 0x619 PUSH2 0x277B JUMP JUMPDEST PUSH1 0x40 MLOAD PUSH2 0x626 SWAP2 SWAP1 PUSH2 0x3D41 JUMP JUMPDEST PUSH1 0x40 MLOAD DUP1 SWAP2 SUB SWAP1 RETURN JUMPDEST CALLVALUE DUP1 ISZERO PUSH2 0x63A JUMPI PUSH0 DUP1 REVERT JUMPDEST POP PUSH2 0x643 PUSH2 0x2781 JUMP JUMPDEST STOP JUMPDEST PUSH2 0x65F PUSH1 0x4 DUP1 CALLDATASIZE SUB DUP2 ADD SWAP1 PUSH2 0x65A SWAP2 SWAP1 PUSH2 0x425C JUMP JUMPDEST PUSH2 0x27E8 JUMP JUMPDEST STOP JUMPDEST CALLVALUE DUP1 ISZERO PUSH2 0x66C JUMPI PUSH0 DUP1 REVERT JUMPDEST POP PUSH2 0x675 PUSH2 0x2CE9 JUMP JUMPDEST PUSH1 0x40 MLOAD PUSH2 0x682 SWAP2 SWAP1 PUSH2 0x3D41 JUMP JUMPDEST PUSH1 0x40 MLOAD DUP1 SWAP2 SUB SWAP1 RETURN JUMPDEST CALLVALUE DUP1 ISZERO PUSH2 0x696 JUMPI PUSH0 DUP1 REVERT JUMPDEST POP PUSH2 0x6B1 PUSH1 0x4 DUP1 CALLDATASIZE SUB DUP2 ADD SWAP1 PUSH2 0x6AC SWAP2 SWAP1 PUSH2 0x429A JUMP JUMPDEST PUSH2 0x2CEF JUMP JUMPDEST STOP JUMPDEST CALLVALUE DUP1 ISZERO PUSH2 0x6BE JUMPI PUSH0 DUP1 REVERT JUMPDEST POP PUSH2 0x6C7 PUSH2 0x2D86 JUMP JUMPDEST PUSH1 0x40 MLOAD PUSH2 0x6D4 SWAP2 SWAP1 PUSH2 0x3A7D JUMP JUMPDEST PUSH1 0x40 MLOAD DUP1 SWAP2 SUB SWAP1 RETURN JUMPDEST CALLVALUE DUP1 ISZERO PUSH2 0x6E8 JUMPI PUSH0 DUP1 REVERT JUMPDEST POP PUSH2 0x703 PUSH1 0x4 DUP1 CALLDATASIZE SUB DUP2 ADD SWAP1 PUSH2 0x6FE SWAP2 SWAP1 PUSH2 0x42D8 JUMP JUMPDEST PUSH2 0x2DAD JUMP JUMPDEST PUSH1 0x40 MLOAD PUSH2 0x710 SWAP2 SWAP1 PUSH2 0x3FB3 JUMP JUMPDEST PUSH1 0x40 MLOAD DUP1 SWAP2 SUB SWAP1 RETURN JUMPDEST CALLVALUE DUP1 ISZERO PUSH2 0x724 JUMPI PUSH0 DUP1 REVERT JUMPDEST POP PUSH2 0x73F PUSH1 0x4 DUP1 CALLDATASIZE SUB DUP2 ADD SWAP1 PUSH2 0x73A SWAP2 SWAP1 PUSH2 0x3D5A JUMP JUMPDEST PUSH2 0x2E93 JUMP JUMPDEST PUSH1 0x40 MLOAD PUSH2 0x74C SWAP2 SWAP1 PUSH2 0x3D41 JUMP JUMPDEST PUSH1 0x40 MLOAD DUP1 SWAP2 SUB SWAP1 RETURN JUMPDEST CALLVALUE DUP1 ISZERO PUSH2 0x760 JUMPI PUSH0 DUP1 REVERT JUMPDEST POP PUSH2 0x77B PUSH1 0x4 DUP1 CALLDATASIZE SUB DUP2 ADD SWAP1 PUSH2 0x776 SWAP2 SWAP1 PUSH2 0x3CF4 JUMP JUMPDEST PUSH2 0x2F07 JUMP JUMPDEST PUSH1 0x40 MLOAD PUSH2 0x789 SWAP3 SWAP2 SWAP1 PUSH2 0x4316 JUMP JUMPDEST PUSH1 0x40 MLOAD DUP1 SWAP2 SUB SWAP1 RETURN JUMPDEST CALLVALUE DUP1 ISZERO PUSH2 0x79D JUMPI PUSH0 DUP1 REVERT JUMPDEST POP PUSH2 0x7B8 PUSH1 0x4 DUP1 CALLDATASIZE SUB DUP2 ADD SWAP1 PUSH2 0x7B3 SWAP2 SWAP1 PUSH2 0x433D JUMP JUMPDEST PUSH2 0x2F9C JUMP JUMPDEST PUSH1 0x40 MLOAD PUSH2 0x7C5 SWAP2 SWAP1 PUSH2 0x40C2 JUMP JUMPDEST PUSH1 0x40 MLOAD DUP1 SWAP2 SUB SWAP1 RETURN JUMPDEST CALLVALUE DUP1 ISZERO PUSH2 0x7D9 JUMPI PUSH0 DUP1 REVERT JUMPDEST POP PUSH2 0x7F4 PUSH1 0x4 DUP1 CALLDATASIZE SUB DUP2 ADD SWAP1 PUSH2 0x7EF SWAP2 SWAP1 PUSH2 0x3CF4 JUMP JUMPDEST PUSH2 0x2FC6 JUMP JUMPDEST PUSH1 0x40 MLOAD PUSH2 0x801 SWAP2 SWAP1 PUSH2 0x4407 JUMP JUMPDEST PUSH1 0x40 MLOAD DUP1 SWAP2 SUB SWAP1 RETURN JUMPDEST CALLVALUE DUP1 ISZERO PUSH2 0x815 JUMPI PUSH0 DUP1 REVERT JUMPDEST POP PUSH2 0x830 PUSH1 0x4 DUP1 CALLDATASIZE SUB DUP2 ADD SWAP1 PUSH2 0x82B SWAP2 SWAP1 PUSH2 0x3CF4 JUMP JUMPDEST PUSH2 0x3145 JUMP JUMPDEST PUSH1 0x40 MLOAD PUSH2 0x83E SWAP3 SWAP2 SWAP1 PUSH2 0x4316 JUMP JUMPDEST PUSH1 0x40 MLOAD DUP1 SWAP2 SUB SWAP1 RETURN JUMPDEST CALLVALUE DUP1 ISZERO PUSH2 0x852 JUMPI PUSH0 DUP1 REVERT JUMPDEST POP PUSH2 0x86D PUSH1 0x4 DUP1 CALLDATASIZE SUB DUP2 ADD SWAP1 PUSH2 0x868 SWAP2 SWAP1 PUSH2 0x3E57 JUMP JUMPDEST PUSH2 0x3284 JUMP JUMPDEST PUSH1 0x40 MLOAD PUSH2 0x87A SWAP2 SWAP1 PUSH2 0x3D41 JUMP JUMPDEST PUSH1 0x40 MLOAD DUP1 SWAP2 SUB SWAP1 RETURN JUMPDEST CALLVALUE DUP1 ISZERO PUSH2 0x88E JUMPI PUSH0 DUP1 REVERT JUMPDEST POP PUSH2 0x8A9 PUSH1 0x4 DUP1 CALLDATASIZE SUB DUP2 ADD SWAP1 PUSH2 0x8A4 SWAP2 SWAP1 PUSH2 0x429A JUMP JUMPDEST PUSH2 0x329A JUMP JUMPDEST PUSH1 0x40 MLOAD PUSH2 0x8B6 SWAP2 SWAP1 PUSH2 0x3A7D JUMP JUMPDEST PUSH1 0x40 MLOAD DUP1 SWAP2 SUB SWAP1 RETURN JUMPDEST CALLVALUE DUP1 ISZERO PUSH2 0x8CA JUMPI PUSH0 DUP1 REVERT JUMPDEST POP PUSH2 0x8E5 PUSH1 0x4 DUP1 CALLDATASIZE SUB DUP2 ADD SWAP1 PUSH2 0x8E0 SWAP2 SWAP1 PUSH2 0x3BF2 JUMP JUMPDEST PUSH2 0x32E2 JUMP JUMPDEST STOP JUMPDEST PUSH1 0x8 PUSH1 0x20 MSTORE DUP3 PUSH0 MSTORE PUSH1 0x40 PUSH0 KECCAK256 PUSH1 0x20 MSTORE DUP2 PUSH0 MSTORE PUSH1 0x40 PUSH0 KECCAK256 DUP2 DUP2 SLOAD DUP2 LT PUSH2 0x90A JUMPI PUSH0 DUP1 REVERT JUMPDEST SWAP1 PUSH0 MSTORE PUSH1 0x20 PUSH0 KECCAK256 ADD PUSH0 SWAP3 POP SWAP3 POP POP SWAP1 SLOAD SWAP1 PUSH2 0x100 EXP SWAP1 DIV PUSH20 0xFFFFFFFFFFFFFFFFFFFFFFFFFFFFFFFFFFFFFFFF AND DUP2 JUMP JUMPDEST PUSH32 0x0 DUP2 JUMP JUMPDEST PUSH1 0x2 PUSH0 SWAP1 SLOAD SWAP1 PUSH2 0x100 EXP SWAP1 DIV PUSH20 0xFFFFFFFFFFFFFFFFFFFFFFFFFFFFFFFFFFFFFFFF AND PUSH20 0xFFFFFFFFFFFFFFFFFFFFFFFFFFFFFFFFFFFFFFFF AND CALLER PUSH20 0xFFFFFFFFFFFFFFFFFFFFFFFFFFFFFFFFFFFFFFFF AND EQ PUSH2 0x9E4 JUMPI PUSH1 0x40 MLOAD PUSH32 0x3E94DCE900000000000000000000000000000000000000000000000000000000 DUP2 MSTORE PUSH1 0x4 ADD PUSH1 0x40 MLOAD DUP1 SWAP2 SUB SWAP1 REVERT JUMPDEST PUSH0 JUMPDEST DUP3 DUP3 SWAP1 POP DUP2 LT ISZERO PUSH2 0xB71 JUMPI PUSH0 PUSH1 0x7 PUSH0 DUP6 DUP6 DUP6 DUP2 DUP2 LT PUSH2 0xA08 JUMPI PUSH2 0xA07 PUSH2 0x4420 JUMP JUMPDEST JUMPDEST SWAP1 POP PUSH1 0x20 MUL ADD PUSH1 0x20 DUP2 ADD SWAP1 PUSH2 0xA1D SWAP2 SWAP1 PUSH2 0x3BF2 JUMP JUMPDEST PUSH20 0xFFFFFFFFFFFFFFFFFFFFFFFFFFFFFFFFFFFFFFFF AND PUSH20 0xFFFFFFFFFFFFFFFFFFFFFFFFFFFFFFFFFFFFFFFF AND DUP2 MSTORE PUSH1 0x20 ADD SWAP1 DUP2 MSTORE PUSH1 0x20 ADD PUSH0 KECCAK256 PUSH0 DUP7 DUP2 MSTORE PUSH1 0x20 ADD SWAP1 DUP2 MSTORE PUSH1 0x20 ADD PUSH0 KECCAK256 SWAP1 POP DUP1 PUSH1 0x4 ADD PUSH1 0x15 SWAP1 SLOAD SWAP1 PUSH2 0x100 EXP SWAP1 DIV PUSH1 0xFF AND DUP1 ISZERO PUSH2 0xAB9 JUMPI POP PUSH0 PUSH1 0x4 DUP2 GT ISZERO PUSH2 0xA93 JUMPI PUSH2 0xA92 PUSH2 0x3FE2 JUMP JUMPDEST JUMPDEST DUP2 PUSH1 0x4 ADD PUSH1 0x14 SWAP1 SLOAD SWAP1 PUSH2 0x100 EXP SWAP1 DIV PUSH1 0xFF AND PUSH1 0x4 DUP2 GT ISZERO PUSH2 0xAB7 JUMPI PUSH2 0xAB6 PUSH2 0x3FE2 JUMP JUMPDEST JUMPDEST EQ JUMPDEST ISZERO PUSH2 0xB63 JUMPI PUSH1 0x1 DUP2 PUSH1 0x4 ADD PUSH1 0x14 PUSH2 0x100 EXP DUP2 SLOAD DUP2 PUSH1 0xFF MUL NOT AND SWAP1 DUP4 PUSH1 0x4 DUP2 GT ISZERO PUSH2 0xAE6 JUMPI PUSH2 0xAE5 PUSH2 0x3FE2 JUMP JUMPDEST JUMPDEST MUL OR SWAP1 SSTORE POP DUP5 DUP5 DUP5 DUP5 DUP2 DUP2 LT PUSH2 0xAFF JUMPI PUSH2 0xAFE PUSH2 0x4420 JUMP JUMPDEST JUMPDEST SWAP1 POP PUSH1 0x20 MUL ADD PUSH1 0x20 DUP2 ADD SWAP1 PUSH2 0xB14 SWAP2 SWAP1 PUSH2 0x3BF2 JUMP JUMPDEST PUSH20 0xFFFFFFFFFFFFFFFFFFFFFFFFFFFFFFFFFFFFFFFF AND PUSH32 0x1415547AC25CCCDDFD82D3B4BCAD6C1A8383110D39E6799A32B6CC5F2987E914 PUSH1 0x1 PUSH1 0x40 MLOAD PUSH2 0xB5A SWAP2 SWAP1 PUSH2 0x444D JUMP JUMPDEST PUSH1 0x40 MLOAD DUP1 SWAP2 SUB SWAP1 LOG3 JUMPDEST POP DUP1 DUP1 PUSH1 0x1 ADD SWAP2 POP POP PUSH2 0x9E6 JUMP JUMPDEST POP POP POP POP JUMP JUMPDEST PUSH1 0x60 PUSH1 0x9 PUSH0 DUP4 PUSH20 0xFFFFFFFFFFFFFFFFFFFFFFFFFFFFFFFFFFFFFFFF AND PUSH20 0xFFFFFFFFFFFFFFFFFFFFFFFFFFFFFFFFFFFFFFFF AND DUP2 MSTORE PUSH1 0x20 ADD SWAP1 DUP2 MSTORE PUSH1 0x20 ADD PUSH0 KECCAK256 DUP1 SLOAD DUP1 PUSH1 0x20 MUL PUSH1 0x20 ADD PUSH1 0x40 MLOAD SWAP1 DUP2 ADD PUSH1 0x40 MSTORE DUP1 SWAP3 SWAP2 SWAP1 DUP2 DUP2 MSTORE PUSH1 0x20 ADD DUP3 DUP1 SLOAD DUP1 ISZERO PUSH2 0xBFE JUMPI PUSH1 0x20 MUL DUP3 ADD SWAP2 SWAP1 PUSH0 MSTORE PUSH1 0x20 PUSH0 KECCAK256 SWAP1 JUMPDEST DUP2 SLOAD DUP2 MSTORE PUSH1 0x20 ADD SWAP1 PUSH1 0x1 ADD SWAP1 DUP1 DUP4 GT PUSH2 0xBEA JUMPI JUMPDEST POP POP POP POP POP SWAP1 POP SWAP2 SWAP1 POP JUMP JUMPDEST PUSH1 0x9 PUSH1 0x20 MSTORE DUP2 PUSH0 MSTORE PUSH1 0x40 PUSH0 KECCAK256 DUP2 DUP2 SLOAD DUP2 LT PUSH2 0xC23 JUMPI PUSH0 DUP1 REVERT JUMPDEST SWAP1 PUSH0 MSTORE PUSH1 0x20 PUSH0 KECCAK256 ADD PUSH0 SWAP2 POP SWAP2 POP POP SLOAD DUP2 JUMP JUMPDEST PUSH2 0xC3D PUSH2 0x3366 JUMP JUMPDEST PUSH0 PUSH20 0xFFFFFFFFFFFFFFFFFFFFFFFFFFFFFFFFFFFFFFFF AND DUP2 PUSH20 0xFFFFFFFFFFFFFFFFFFFFFFFFFFFFFFFFFFFFFFFF AND SUB PUSH2 0xCA2 JUMPI PUSH1 0x40 MLOAD PUSH32 0xD92E233D00000000000000000000000000000000000000000000000000000000 DUP2 MSTORE PUSH1 0x4 ADD PUSH1 0x40 MLOAD DUP1 SWAP2 SUB SWAP1 REVERT JUMPDEST DUP1 PUSH1 0x2 PUSH0 PUSH2 0x100 EXP DUP2 SLOAD DUP2 PUSH20 0xFFFFFFFFFFFFFFFFFFFFFFFFFFFFFFFFFFFFFFFF MUL NOT AND SWAP1 DUP4 PUSH20 0xFFFFFFFFFFFFFFFFFFFFFFFFFFFFFFFFFFFFFFFF AND MUL OR SWAP1 SSTORE POP DUP1 PUSH20 0xFFFFFFFFFFFFFFFFFFFFFFFFFFFFFFFFFFFFFFFF AND PUSH32 0x89386B8711BAD3EC737A1746DBCC52DE03DE68ADD300345F9ACB944C28AE03F3 PUSH1 0x40 MLOAD PUSH1 0x40 MLOAD DUP1 SWAP2 SUB SWAP1 LOG2 POP JUMP JUMPDEST PUSH0 PUSH1 0x60 PUSH0 DUP1 JUMPDEST PUSH1 0x6 DUP2 LT ISZERO PUSH2 0xF01 JUMPI PUSH0 DUP6 DUP3 PUSH1 0x6 DUP2 LT PUSH2 0xD4B JUMPI PUSH2 0xD4A PUSH2 0x4420 JUMP JUMPDEST JUMPDEST BYTE PUSH1 0xF8 SHL SWAP1 POP PUSH0 PUSH1 0x41 PUSH1 0xF8 SHL DUP3 PUSH31 0xFFFFFFFFFFFFFFFFFFFFFFFFFFFFFFFFFFFFFFFFFFFFFFFFFFFFFFFFFFFFFF NOT AND LT ISZERO DUP1 ISZERO PUSH2 0xDAE JUMPI POP PUSH1 0x5A PUSH1 0xF8 SHL DUP3 PUSH31 0xFFFFFFFFFFFFFFFFFFFFFFFFFFFFFFFFFFFFFFFFFFFFFFFFFFFFFFFFFFFFFF NOT AND GT ISZERO JUMPDEST SWAP1 POP PUSH0 PUSH1 0x30 PUSH1 0xF8 SHL DUP4 PUSH31 0xFFFFFFFFFFFFFFFFFFFFFFFFFFFFFFFFFFFFFFFFFFFFFFFFFFFFFFFFFFFFFF NOT AND LT ISZERO DUP1 ISZERO PUSH2 0xE0D JUMPI POP PUSH1 0x39 PUSH1 0xF8 SHL DUP4 PUSH31 0xFFFFFFFFFFFFFFFFFFFFFFFFFFFFFFFFFFFFFFFFFFFFFFFFFFFFFFFFFFFFFF NOT AND GT ISZERO JUMPDEST SWAP1 POP DUP2 ISZERO DUP1 ISZERO PUSH2 0xE1B JUMPI POP DUP1 ISZERO JUMPDEST ISZERO PUSH2 0xE48 JUMPI PUSH0 PUSH1 0x40 MLOAD DUP1 PUSH1 0x60 ADD PUSH1 0x40 MSTORE DUP1 PUSH1 0x25 DUP2 MSTORE PUSH1 0x20 ADD PUSH2 0x47B7 PUSH1 0x25 SWAP2 CODECOPY SWAP7 POP SWAP7 POP POP POP POP POP POP PUSH2 0xF19 JUMP JUMPDEST PUSH0 DUP3 PUSH2 0xE72 JUMPI PUSH1 0x1A PUSH1 0x30 DUP6 PUSH1 0xF8 SHR PUSH1 0xFF AND PUSH2 0xE63 SWAP2 SWAP1 PUSH2 0x4493 JUMP JUMPDEST PUSH2 0xE6D SWAP2 SWAP1 PUSH2 0x44C6 JUMP JUMPDEST PUSH2 0xE86 JUMP JUMPDEST PUSH1 0x41 DUP5 PUSH1 0xF8 SHR PUSH1 0xFF AND PUSH2 0xE85 SWAP2 SWAP1 PUSH2 0x4493 JUMP JUMPDEST JUMPDEST SWAP1 POP PUSH0 DUP2 PUSH1 0x1 SWAP1 SHL SWAP1 POP PUSH0 DUP2 DUP9 AND PUSH8 0xFFFFFFFFFFFFFFFF AND EQ PUSH2 0xEEA JUMPI PUSH0 PUSH1 0x40 MLOAD DUP1 PUSH1 0x40 ADD PUSH1 0x40 MSTORE DUP1 PUSH1 0x1F DUP2 MSTORE PUSH1 0x20 ADD PUSH32 0x526570656174696E6720636861726163746572206E6F7420616C6C6F77656400 DUP2 MSTORE POP SWAP9 POP SWAP9 POP POP POP POP POP POP POP POP PUSH2 0xF19 JUMP JUMPDEST DUP1 DUP8 OR SWAP7 POP POP POP POP POP POP DUP1 DUP1 PUSH1 0x1 ADD SWAP2 POP POP PUSH2 0xD2E JUMP JUMPDEST POP PUSH1 0x1 PUSH1 0x40 MLOAD DUP1 PUSH1 0x20 ADD PUSH1 0x40 MSTORE DUP1 PUSH0 DUP2 MSTORE POP SWAP3 POP SWAP3 POP POP JUMPDEST SWAP2 POP SWAP2 JUMP JUMPDEST PUSH1 0x2 PUSH0 SWAP1 SLOAD SWAP1 PUSH2 0x100 EXP SWAP1 DIV PUSH20 0xFFFFFFFFFFFFFFFFFFFFFFFFFFFFFFFFFFFFFFFF AND PUSH20 0xFFFFFFFFFFFFFFFFFFFFFFFFFFFFFFFFFFFFFFFF AND CALLER PUSH20 0xFFFFFFFFFFFFFFFFFFFFFFFFFFFFFFFFFFFFFFFF AND EQ PUSH2 0xFA4 JUMPI PUSH1 0x40 MLOAD PUSH32 0x3E94DCE900000000000000000000000000000000000000000000000000000000 DUP2 MSTORE PUSH1 0x4 ADD PUSH1 0x40 MLOAD DUP1 SWAP2 SUB SWAP1 REVERT JUMPDEST DUP1 PUSH1 0x5 DUP2 SWAP1 SSTORE POP PUSH32 0x4DB6A5933824DE781CBD9E4632FB41F1D4100B9E8E62949ED7361F323AC1DD5 DUP2 PUSH1 0x40 MLOAD PUSH2 0xFDA SWAP2 SWAP1 PUSH2 0x3D41 JUMP JUMPDEST PUSH1 0x40 MLOAD DUP1 SWAP2 SUB SWAP1 LOG1 POP JUMP JUMPDEST PUSH2 0xFED PUSH2 0x3366 JUMP JUMPDEST PUSH0 PUSH1 0x6 PUSH0 PUSH2 0x100 EXP DUP2 SLOAD DUP2 PUSH1 0xFF MUL NOT AND SWAP1 DUP4 ISZERO ISZERO MUL OR SWAP1 SSTORE POP CALLER PUSH20 0xFFFFFFFFFFFFFFFFFFFFFFFFFFFFFFFFFFFFFFFF AND PUSH32 0x5DB9EE0A495BF2E6FF9C91A7834C1BA4FDD244A5E8AA4E537BD38AEAE4B073AA PUSH1 0x40 MLOAD PUSH1 0x40 MLOAD DUP1 SWAP2 SUB SWAP1 LOG2 JUMP JUMPDEST PUSH2 0x1053 PUSH2 0x33ED JUMP JUMPDEST PUSH1 0x6 PUSH0 SWAP1 SLOAD SWAP1 PUSH2 0x100 EXP SWAP1 DIV PUSH1 0xFF AND ISZERO PUSH2 0x1099 JUMPI PUSH1 0x40 MLOAD PUSH32 0xAB35696F00000000000000000000000000000000000000000000000000000000 DUP2 MSTORE PUSH1 0x4 ADD PUSH1 0x40 MLOAD DUP1 SWAP2 SUB SWAP1 REVERT JUMPDEST PUSH0 PUSH1 0x1 PUSH1 0x5 SLOAD PUSH2 0x10A9 SWAP2 SWAP1 PUSH2 0x44C6 JUMP JUMPDEST SWAP1 POP PUSH1 0x7 PUSH0 CALLER PUSH20 0xFFFFFFFFFFFFFFFFFFFFFFFFFFFFFFFFFFFFFFFF AND PUSH20 0xFFFFFFFFFFFFFFFFFFFFFFFFFFFFFFFFFFFFFFFF AND DUP2 MSTORE PUSH1 0x20 ADD SWAP1 DUP2 MSTORE PUSH1 0x20 ADD PUSH0 KECCAK256 PUSH0 DUP3 DUP2 MSTORE PUSH1 0x20 ADD SWAP1 DUP2 MSTORE PUSH1 0x20 ADD PUSH0 KECCAK256 PUSH1 0x4 ADD PUSH1 0x15 SWAP1 SLOAD SWAP1 PUSH2 0x100 EXP SWAP1 DIV PUSH1 0xFF AND ISZERO PUSH2 0x125E JUMPI PUSH1 0x1 PUSH1 0x4 DUP2 GT ISZERO PUSH2 0x1121 JUMPI PUSH2 0x1120 PUSH2 0x3FE2 JUMP JUMPDEST JUMPDEST PUSH1 0x7 PUSH0 CALLER PUSH20 0xFFFFFFFFFFFFFFFFFFFFFFFFFFFFFFFFFFFFFFFF AND PUSH20 0xFFFFFFFFFFFFFFFFFFFFFFFFFFFFFFFFFFFFFFFF AND DUP2 MSTORE PUSH1 0x20 ADD SWAP1 DUP2 MSTORE PUSH1 0x20 ADD PUSH0 KECCAK256 PUSH0 DUP4 DUP2 MSTORE PUSH1 0x20 ADD SWAP1 DUP2 MSTORE PUSH1 0x20 ADD PUSH0 KECCAK256 PUSH1 0x4 ADD PUSH1 0x14 SWAP1 SLOAD SWAP1 PUSH2 0x100 EXP SWAP1 DIV PUSH1 0xFF AND PUSH1 0x4 DUP2 GT ISZERO PUSH2 0x1190 JUMPI PUSH2 0x118F PUSH2 0x3FE2 JUMP JUMPDEST JUMPDEST EQ DUP1 PUSH2 0x121B JUMPI POP PUSH0 PUSH1 0x4 DUP2 GT ISZERO PUSH2 0x11AA JUMPI PUSH2 0x11A9 PUSH2 0x3FE2 JUMP JUMPDEST JUMPDEST PUSH1 0x7 PUSH0 CALLER PUSH20 0xFFFFFFFFFFFFFFFFFFFFFFFFFFFFFFFFFFFFFFFF AND PUSH20 0xFFFFFFFFFFFFFFFFFFFFFFFFFFFFFFFFFFFFFFFF AND DUP2 MSTORE PUSH1 0x20 ADD SWAP1 DUP2 MSTORE PUSH1 0x20 ADD PUSH0 KECCAK256 PUSH0 DUP4 DUP2 MSTORE PUSH1 0x20 ADD SWAP1 DUP2 MSTORE PUSH1 0x20 ADD PUSH0 KECCAK256 PUSH1 0x4 ADD PUSH1 0x14 SWAP1 SLOAD SWAP1 PUSH2 0x100 EXP SWAP1 DIV PUSH1 0xFF AND PUSH1 0x4 DUP2 GT ISZERO PUSH2 0x1219 JUMPI PUSH2 0x1218 PUSH2 0x3FE2 JUMP JUMPDEST JUMPDEST EQ JUMPDEST ISZERO PUSH2 0x125D JUMPI DUP1 PUSH1 0x40 MLOAD PUSH32 0x9D50E10300000000000000000000000000000000000000000000000000000000 DUP2 MSTORE PUSH1 0x4 ADD PUSH2 0x1254 SWAP2 SWAP1 PUSH2 0x3D41 JUMP JUMPDEST PUSH1 0x40 MLOAD DUP1 SWAP2 SUB SWAP1 REVERT JUMPDEST JUMPDEST PUSH2 0x1267 DUP5 PUSH2 0x340F JUMP JUMPDEST PUSH0 DUP1 DUP5 ISZERO PUSH2 0x1392 JUMPI PUSH0 CALLVALUE EQ DUP1 PUSH2 0x127E JUMPI POP PUSH1 0x4 SLOAD CALLVALUE LT JUMPDEST ISZERO PUSH2 0x12C4 JUMPI CALLVALUE PUSH1 0x4 SLOAD PUSH1 0x40 MLOAD PUSH32 0xEE6446F00000000000000000000000000000000000000000000000000000000 DUP2 MSTORE PUSH1 0x4 ADD PUSH2 0x12BB SWAP3 SWAP2 SWAP1 PUSH2 0x44F9 JUMP JUMPDEST PUSH1 0x40 MLOAD DUP1 SWAP2 SUB SWAP1 REVERT JUMPDEST PUSH1 0x4 SLOAD SWAP2 POP PUSH0 SWAP1 POP PUSH1 0x4 SLOAD CALLVALUE GT ISZERO PUSH2 0x138D JUMPI PUSH0 CALLER PUSH20 0xFFFFFFFFFFFFFFFFFFFFFFFFFFFFFFFFFFFFFFFF AND PUSH1 0x4 SLOAD CALLVALUE PUSH2 0x12FC SWAP2 SWAP1 PUSH2 0x4493 JUMP JUMPDEST PUSH1 0x40 MLOAD PUSH2 0x1308 SWAP1 PUSH2 0x454D JUMP JUMPDEST PUSH0 PUSH1 0x40 MLOAD DUP1 DUP4 SUB DUP2 DUP6 DUP8 GAS CALL SWAP3 POP POP POP RETURNDATASIZE DUP1 PUSH0 DUP2 EQ PUSH2 0x1342 JUMPI PUSH1 0x40 MLOAD SWAP2 POP PUSH1 0x1F NOT PUSH1 0x3F RETURNDATASIZE ADD AND DUP3 ADD PUSH1 0x40 MSTORE RETURNDATASIZE DUP3 MSTORE RETURNDATASIZE PUSH0 PUSH1 0x20 DUP5 ADD RETURNDATACOPY PUSH2 0x1347 JUMP JUMPDEST PUSH1 0x60 SWAP2 POP JUMPDEST POP POP SWAP1 POP DUP1 PUSH2 0x138B JUMPI PUSH1 0x40 MLOAD PUSH32 0x8C379A000000000000000000000000000000000000000000000000000000000 DUP2 MSTORE PUSH1 0x4 ADD PUSH2 0x1382 SWAP1 PUSH2 0x45AB JUMP JUMPDEST PUSH1 0x40 MLOAD DUP1 SWAP2 SUB SWAP1 REVERT JUMPDEST POP JUMPDEST PUSH2 0x14BC JUMP JUMPDEST PUSH0 CALLVALUE GT ISZERO PUSH2 0x1444 JUMPI PUSH0 CALLER PUSH20 0xFFFFFFFFFFFFFFFFFFFFFFFFFFFFFFFFFFFFFFFF AND CALLVALUE PUSH1 0x40 MLOAD PUSH2 0x13BF SWAP1 PUSH2 0x454D JUMP JUMPDEST PUSH0 PUSH1 0x40 MLOAD DUP1 DUP4 SUB DUP2 DUP6 DUP8 GAS CALL SWAP3 POP POP POP RETURNDATASIZE DUP1 PUSH0 DUP2 EQ PUSH2 0x13F9 JUMPI PUSH1 0x40 MLOAD SWAP2 POP PUSH1 0x1F NOT PUSH1 0x3F RETURNDATASIZE ADD AND DUP3 ADD PUSH1 0x40 MSTORE RETURNDATASIZE DUP3 MSTORE RETURNDATASIZE PUSH0 PUSH1 0x20 DUP5 ADD RETURNDATACOPY PUSH2 0x13FE JUMP JUMPDEST PUSH1 0x60 SWAP2 POP JUMPDEST POP POP SWAP1 POP DUP1 PUSH2 0x1442 JUMPI PUSH1 0x40 MLOAD PUSH32 0x8C379A000000000000000000000000000000000000000000000000000000000 DUP2 MSTORE PUSH1 0x4 ADD PUSH2 0x1439 SWAP1 PUSH2 0x45AB JUMP JUMPDEST PUSH1 0x40 MLOAD DUP1 SWAP2 SUB SWAP1 REVERT JUMPDEST POP JUMPDEST PUSH1 0x3 SLOAD SWAP2 POP PUSH32 0x0 SWAP1 POP PUSH2 0x14BB CALLER ADDRESS PUSH1 0x3 SLOAD PUSH32 0x0 PUSH20 0xFFFFFFFFFFFFFFFFFFFFFFFFFFFFFFFFFFFFFFFF AND PUSH2 0x35F5 SWAP1 SWAP4 SWAP3 SWAP2 SWAP1 PUSH4 0xFFFFFFFF AND JUMP JUMPDEST JUMPDEST PUSH0 PUSH1 0x3 SLOAD DUP6 PUSH2 0x14CB SWAP2 SWAP1 PUSH2 0x45C9 JUMP JUMPDEST SWAP1 POP PUSH0 DUP2 GT ISZERO PUSH2 0x1592 JUMPI PUSH2 0x1543 CALLER PUSH1 0x1 PUSH0 SWAP1 SLOAD SWAP1 PUSH2 0x100 EXP SWAP1 DIV PUSH20 0xFFFFFFFFFFFFFFFFFFFFFFFFFFFFFFFFFFFFFFFF AND DUP4 PUSH32 0x0 PUSH20 0xFFFFFFFFFFFFFFFFFFFFFFFFFFFFFFFFFFFFFFFF AND PUSH2 0x35F5 SWAP1 SWAP4 SWAP3 SWAP2 SWAP1 PUSH4 0xFFFFFFFF AND JUMP JUMPDEST CALLER PUSH20 0xFFFFFFFFFFFFFFFFFFFFFFFFFFFFFFFFFFFFFFFF AND PUSH32 0x41A209EE6A3EB8344A3F83B585BB4D93349BFBBD34DCE09EA38D8023516F2DA0 DUP3 PUSH1 0x40 MLOAD PUSH2 0x1589 SWAP2 SWAP1 PUSH2 0x3D41 JUMP JUMPDEST PUSH1 0x40 MLOAD DUP1 SWAP2 SUB SWAP1 LOG2 JUMPDEST PUSH0 DUP6 DUP6 PUSH2 0x159F SWAP2 SWAP1 PUSH2 0x44C6 JUMP JUMPDEST SWAP1 POP PUSH1 0x40 MLOAD DUP1 PUSH1 0xE0 ADD PUSH1 0x40 MSTORE DUP1 DUP10 PUSH26 0xFFFFFFFFFFFFFFFFFFFFFFFFFFFFFFFFFFFFFFFFFFFFFFFFFFFF NOT AND DUP2 MSTORE PUSH1 0x20 ADD PUSH1 0x5 SLOAD DUP2 MSTORE PUSH1 0x20 ADD DUP3 DUP2 MSTORE PUSH1 0x20 ADD DUP6 DUP2 MSTORE PUSH1 0x20 ADD DUP5 PUSH20 0xFFFFFFFFFFFFFFFFFFFFFFFFFFFFFFFFFFFFFFFF AND DUP2 MSTORE PUSH1 0x20 ADD PUSH0 PUSH1 0x4 DUP2 GT ISZERO PUSH2 0x1612 JUMPI PUSH2 0x1611 PUSH2 0x3FE2 JUMP JUMPDEST JUMPDEST DUP2 MSTORE PUSH1 0x20 ADD PUSH1 0x1 ISZERO ISZERO DUP2 MSTORE POP PUSH1 0x7 PUSH0 CALLER PUSH20 0xFFFFFFFFFFFFFFFFFFFFFFFFFFFFFFFFFFFFFFFF AND PUSH20 0xFFFFFFFFFFFFFFFFFFFFFFFFFFFFFFFFFFFFFFFF AND DUP2 MSTORE PUSH1 0x20 ADD SWAP1 DUP2 MSTORE PUSH1 0x20 ADD PUSH0 KECCAK256 PUSH0 DUP8 DUP2 MSTORE PUSH1 0x20 ADD SWAP1 DUP2 MSTORE PUSH1 0x20 ADD PUSH0 KECCAK256 PUSH0 DUP3 ADD MLOAD DUP2 PUSH0 ADD PUSH0 PUSH2 0x100 EXP DUP2 SLOAD DUP2 PUSH6 0xFFFFFFFFFFFF MUL NOT AND SWAP1 DUP4 PUSH1 0xD0 SHR MUL OR SWAP1 SSTORE POP PUSH1 0x20 DUP3 ADD MLOAD DUP2 PUSH1 0x1 ADD SSTORE PUSH1 0x40 DUP3 ADD MLOAD DUP2 PUSH1 0x2 ADD SSTORE PUSH1 0x60 DUP3 ADD MLOAD DUP2 PUSH1 0x3 ADD SSTORE PUSH1 0x80 DUP3 ADD MLOAD DUP2 PUSH1 0x4 ADD PUSH0 PUSH2 0x100 EXP DUP2 SLOAD DUP2 PUSH20 0xFFFFFFFFFFFFFFFFFFFFFFFFFFFFFFFFFFFFFFFF MUL NOT AND SWAP1 DUP4 PUSH20 0xFFFFFFFFFFFFFFFFFFFFFFFFFFFFFFFFFFFFFFFF AND MUL OR SWAP1 SSTORE POP PUSH1 0xA0 DUP3 ADD MLOAD DUP2 PUSH1 0x4 ADD PUSH1 0x14 PUSH2 0x100 EXP DUP2 SLOAD DUP2 PUSH1 0xFF MUL NOT AND SWAP1 DUP4 PUSH1 0x4 DUP2 GT ISZERO PUSH2 0x171C JUMPI PUSH2 0x171B PUSH2 0x3FE2 JUMP JUMPDEST JUMPDEST MUL OR SWAP1 SSTORE POP PUSH1 0xC0 DUP3 ADD MLOAD DUP2 PUSH1 0x4 ADD PUSH1 0x15 PUSH2 0x100 EXP DUP2 SLOAD DUP2 PUSH1 0xFF MUL NOT AND SWAP1 DUP4 ISZERO ISZERO MUL OR SWAP1 SSTORE POP SWAP1 POP POP PUSH1 0xB PUSH0 DUP7 DUP2 MSTORE PUSH1 0x20 ADD SWAP1 DUP2 MSTORE PUSH1 0x20 ADD PUSH0 KECCAK256 PUSH0 CALLER PUSH20 0xFFFFFFFFFFFFFFFFFFFFFFFFFFFFFFFFFFFFFFFF AND PUSH20 0xFFFFFFFFFFFFFFFFFFFFFFFFFFFFFFFFFFFFFFFF AND DUP2 MSTORE PUSH1 0x20 ADD SWAP1 DUP2 MSTORE PUSH1 0x20 ADD PUSH0 KECCAK256 PUSH0 SWAP1 SLOAD SWAP1 PUSH2 0x100 EXP SWAP1 DIV PUSH1 0xFF AND PUSH2 0x1992 JUMPI PUSH1 0x8 PUSH0 DUP7 DUP2 MSTORE PUSH1 0x20 ADD SWAP1 DUP2 MSTORE PUSH1 0x20 ADD PUSH0 KECCAK256 PUSH0 DUP10 PUSH26 0xFFFFFFFFFFFFFFFFFFFFFFFFFFFFFFFFFFFFFFFFFFFFFFFFFFFF NOT AND PUSH26 0xFFFFFFFFFFFFFFFFFFFFFFFFFFFFFFFFFFFFFFFFFFFFFFFFFFFF NOT AND DUP2 MSTORE PUSH1 0x20 ADD SWAP1 DUP2 MSTORE PUSH1 0x20 ADD PUSH0 KECCAK256 CALLER SWAP1 DUP1 PUSH1 0x1 DUP2 SLOAD ADD DUP1 DUP3 SSTORE DUP1 SWAP2 POP POP PUSH1 0x1 SWAP1 SUB SWAP1 PUSH0 MSTORE PUSH1 0x20 PUSH0 KECCAK256 ADD PUSH0 SWAP1 SWAP2 SWAP1 SWAP2 SWAP1 SWAP2 PUSH2 0x100 EXP DUP2 SLOAD DUP2 PUSH20 0xFFFFFFFFFFFFFFFFFFFFFFFFFFFFFFFFFFFFFFFF MUL NOT AND SWAP1 DUP4 PUSH20 0xFFFFFFFFFFFFFFFFFFFFFFFFFFFFFFFFFFFFFFFF AND MUL OR SWAP1 SSTORE POP PUSH1 0xA PUSH0 DUP7 DUP2 MSTORE PUSH1 0x20 ADD SWAP1 DUP2 MSTORE PUSH1 0x20 ADD PUSH0 KECCAK256 CALLER SWAP1 DUP1 PUSH1 0x1 DUP2 SLOAD ADD DUP1 DUP3 SSTORE DUP1 SWAP2 POP POP PUSH1 0x1 SWAP1 SUB SWAP1 PUSH0 MSTORE PUSH1 0x20 PUSH0 KECCAK256 ADD PUSH0 SWAP1 SWAP2 SWAP1 SWAP2 SWAP1 SWAP2 PUSH2 0x100 EXP DUP2 SLOAD DUP2 PUSH20 0xFFFFFFFFFFFFFFFFFFFFFFFFFFFFFFFFFFFFFFFF MUL NOT AND SWAP1 DUP4 PUSH20 0xFFFFFFFFFFFFFFFFFFFFFFFFFFFFFFFFFFFFFFFF AND MUL OR SWAP1 SSTORE POP PUSH1 0x1 PUSH1 0xB PUSH0 DUP8 DUP2 MSTORE PUSH1 0x20 ADD SWAP1 DUP2 MSTORE PUSH1 0x20 ADD PUSH0 KECCAK256 PUSH0 CALLER PUSH20 0xFFFFFFFFFFFFFFFFFFFFFFFFFFFFFFFFFFFFFFFF AND PUSH20 0xFFFFFFFFFFFFFFFFFFFFFFFFFFFFFFFFFFFFFFFF AND DUP2 MSTORE PUSH1 0x20 ADD SWAP1 DUP2 MSTORE PUSH1 0x20 ADD PUSH0 KECCAK256 PUSH0 PUSH2 0x100 EXP DUP2 SLOAD DUP2 PUSH1 0xFF MUL NOT AND SWAP1 DUP4 ISZERO ISZERO MUL OR SWAP1 SSTORE POP PUSH1 0x9 PUSH0 CALLER PUSH20 0xFFFFFFFFFFFFFFFFFFFFFFFFFFFFFFFFFFFFFFFF AND PUSH20 0xFFFFFFFFFFFFFFFFFFFFFFFFFFFFFFFFFFFFFFFF AND DUP2 MSTORE PUSH1 0x20 ADD SWAP1 DUP2 MSTORE PUSH1 0x20 ADD PUSH0 KECCAK256 DUP6 SWAP1 DUP1 PUSH1 0x1 DUP2 SLOAD ADD DUP1 DUP3 SSTORE DUP1 SWAP2 POP POP PUSH1 0x1 SWAP1 SUB SWAP1 PUSH0 MSTORE PUSH1 0x20 PUSH0 KECCAK256 ADD PUSH0 SWAP1 SWAP2 SWAP1 SWAP2 SWAP1 SWAP2 POP SSTORE PUSH2 0x1A4B JUMP JUMPDEST PUSH1 0x8 PUSH0 DUP7 DUP2 MSTORE PUSH1 0x20 ADD SWAP1 DUP2 MSTORE PUSH1 0x20 ADD PUSH0 KECCAK256 PUSH0 DUP10 PUSH26 0xFFFFFFFFFFFFFFFFFFFFFFFFFFFFFFFFFFFFFFFFFFFFFFFFFFFF NOT AND PUSH26 0xFFFFFFFFFFFFFFFFFFFFFFFFFFFFFFFFFFFFFFFFFFFFFFFFFFFF NOT AND DUP2 MSTORE PUSH1 0x20 ADD SWAP1 DUP2 MSTORE PUSH1 0x20 ADD PUSH0 KECCAK256 CALLER SWAP1 DUP1 PUSH1 0x1 DUP2 SLOAD ADD DUP1 DUP3 SSTORE DUP1 SWAP2 POP POP PUSH1 0x1 SWAP1 SUB SWAP1 PUSH0 MSTORE PUSH1 0x20 PUSH0 KECCAK256 ADD PUSH0 SWAP1 SWAP2 SWAP1 SWAP2 SWAP1 SWAP2 PUSH2 0x100 EXP DUP2 SLOAD DUP2 PUSH20 0xFFFFFFFFFFFFFFFFFFFFFFFFFFFFFFFFFFFFFFFF MUL NOT AND SWAP1 DUP4 PUSH20 0xFFFFFFFFFFFFFFFFFFFFFFFFFFFFFFFFFFFFFFFF AND MUL OR SWAP1 SSTORE POP JUMPDEST DUP5 CALLER PUSH20 0xFFFFFFFFFFFFFFFFFFFFFFFFFFFFFFFFFFFFFFFF AND PUSH32 0xD87332D5905526492C72528B38EAD8C7C478E7806AF135F39BE5DF875E4F24BB DUP11 DUP8 DUP8 DUP7 PUSH1 0x40 MLOAD PUSH2 0x1A98 SWAP5 SWAP4 SWAP3 SWAP2 SWAP1 PUSH2 0x460A JUMP JUMPDEST PUSH1 0x40 MLOAD DUP1 SWAP2 SUB SWAP1 LOG3 POP POP POP POP POP PUSH2 0x1AAD PUSH2 0x364A JUMP JUMPDEST POP POP POP JUMP JUMPDEST PUSH1 0x60 PUSH1 0xA PUSH0 DUP4 DUP2 MSTORE PUSH1 0x20 ADD SWAP1 DUP2 MSTORE PUSH1 0x20 ADD PUSH0 KECCAK256 DUP1 SLOAD DUP1 PUSH1 0x20 MUL PUSH1 0x20 ADD PUSH1 0x40 MLOAD SWAP1 DUP2 ADD PUSH1 0x40 MSTORE DUP1 SWAP3 SWAP2 SWAP1 DUP2 DUP2 MSTORE PUSH1 0x20 ADD DUP3 DUP1 SLOAD DUP1 ISZERO PUSH2 0x1B42 JUMPI PUSH1 0x20 MUL DUP3 ADD SWAP2 SWAP1 PUSH0 MSTORE PUSH1 0x20 PUSH0 KECCAK256 SWAP1 JUMPDEST DUP2 PUSH0 SWAP1 SLOAD SWAP1 PUSH2 0x100 EXP SWAP1 DIV PUSH20 0xFFFFFFFFFFFFFFFFFFFFFFFFFFFFFFFFFFFFFFFF AND PUSH20 0xFFFFFFFFFFFFFFFFFFFFFFFFFFFFFFFFFFFFFFFF AND DUP2 MSTORE PUSH1 0x20 ADD SWAP1 PUSH1 0x1 ADD SWAP1 DUP1 DUP4 GT PUSH2 0x1AF9 JUMPI JUMPDEST POP POP POP POP POP SWAP1 POP SWAP2 SWAP1 POP JUMP JUMPDEST PUSH1 0x3 SLOAD DUP2 JUMP JUMPDEST PUSH1 0x2 PUSH0 SWAP1 SLOAD SWAP1 PUSH2 0x100 EXP SWAP1 DIV PUSH20 0xFFFFFFFFFFFFFFFFFFFFFFFFFFFFFFFFFFFFFFFF AND PUSH20 0xFFFFFFFFFFFFFFFFFFFFFFFFFFFFFFFFFFFFFFFF AND CALLER PUSH20 0xFFFFFFFFFFFFFFFFFFFFFFFFFFFFFFFFFFFFFFFF AND EQ PUSH2 0x1BDA JUMPI PUSH1 0x40 MLOAD PUSH32 0x3E94DCE900000000000000000000000000000000000000000000000000000000 DUP2 MSTORE PUSH1 0x4 ADD PUSH1 0x40 MLOAD DUP1 SWAP2 SUB SWAP1 REVERT JUMPDEST PUSH0 PUSH1 0x7 PUSH0 DUP5 PUSH20 0xFFFFFFFFFFFFFFFFFFFFFFFFFFFFFFFFFFFFFFFF AND PUSH20 0xFFFFFFFFFFFFFFFFFFFFFFFFFFFFFFFFFFFFFFFF AND DUP2 MSTORE PUSH1 0x20 ADD SWAP1 DUP2 MSTORE PUSH1 0x20 ADD PUSH0 KECCAK256 PUSH0 DUP4 DUP2 MSTORE PUSH1 0x20 ADD SWAP1 DUP2 MSTORE PUSH1 0x20 ADD PUSH0 KECCAK256 SWAP1 POP DUP1 PUSH1 0x4 ADD PUSH1 0x15 SWAP1 SLOAD SWAP1 PUSH2 0x100 EXP SWAP1 DIV PUSH1 0xFF AND DUP1 ISZERO PUSH2 0x1C7C JUMPI POP PUSH1 0x1 PUSH1 0x4 DUP2 GT ISZERO PUSH2 0x1C56 JUMPI PUSH2 0x1C55 PUSH2 0x3FE2 JUMP JUMPDEST JUMPDEST DUP2 PUSH1 0x4 ADD PUSH1 0x14 SWAP1 SLOAD SWAP1 PUSH2 0x100 EXP SWAP1 DIV PUSH1 0xFF AND PUSH1 0x4 DUP2 GT ISZERO PUSH2 0x1C7A JUMPI PUSH2 0x1C79 PUSH2 0x3FE2 JUMP JUMPDEST JUMPDEST EQ JUMPDEST ISZERO PUSH2 0x1CFF JUMPI PUSH1 0x2 DUP2 PUSH1 0x4 ADD PUSH1 0x14 PUSH2 0x100 EXP DUP2 SLOAD DUP2 PUSH1 0xFF MUL NOT AND SWAP1 DUP4 PUSH1 0x4 DUP2 GT ISZERO PUSH2 0x1CA9 JUMPI PUSH2 0x1CA8 PUSH2 0x3FE2 JUMP JUMPDEST JUMPDEST MUL OR SWAP1 SSTORE POP DUP2 DUP4 PUSH20 0xFFFFFFFFFFFFFFFFFFFFFFFFFFFFFFFFFFFFFFFF AND PUSH32 0x1415547AC25CCCDDFD82D3B4BCAD6C1A8383110D39E6799A32B6CC5F2987E914 PUSH1 0x2 PUSH1 0x40 MLOAD PUSH2 0x1CF6 SWAP2 SWAP1 PUSH2 0x444D JUMP JUMPDEST PUSH1 0x40 MLOAD DUP1 SWAP2 SUB SWAP1 LOG3 JUMPDEST POP POP POP JUMP JUMPDEST PUSH1 0x1 PUSH0 SWAP1 SLOAD SWAP1 PUSH2 0x100 EXP SWAP1 DIV PUSH20 0xFFFFFFFFFFFFFFFFFFFFFFFFFFFFFFFFFFFFFFFF AND DUP2 JUMP JUMPDEST PUSH1 0x2 PUSH0 SWAP1 SLOAD SWAP1 PUSH2 0x100 EXP SWAP1 DIV PUSH20 0xFFFFFFFFFFFFFFFFFFFFFFFFFFFFFFFFFFFFFFFF AND DUP2 JUMP JUMPDEST PUSH1 0x7 PUSH1 0x20 MSTORE DUP2 PUSH0 MSTORE PUSH1 0x40 PUSH0 KECCAK256 PUSH1 0x20 MSTORE DUP1 PUSH0 MSTORE PUSH1 0x40 PUSH0 KECCAK256 PUSH0 SWAP2 POP SWAP2 POP POP DUP1 PUSH0 ADD PUSH0 SWAP1 SLOAD SWAP1 PUSH2 0x100 EXP SWAP1 DIV PUSH1 0xD0 SHL SWAP1 DUP1 PUSH1 0x1 ADD SLOAD SWAP1 DUP1 PUSH1 0x2 ADD SLOAD SWAP1 DUP1 PUSH1 0x3 ADD SLOAD SWAP1 DUP1 PUSH1 0x4 ADD PUSH0 SWAP1 SLOAD SWAP1 PUSH2 0x100 EXP SWAP1 DIV PUSH20 0xFFFFFFFFFFFFFFFFFFFFFFFFFFFFFFFFFFFFFFFF AND SWAP1 DUP1 PUSH1 0x4 ADD PUSH1 0x14 SWAP1 SLOAD SWAP1 PUSH2 0x100 EXP SWAP1 DIV PUSH1 0xFF AND SWAP1 DUP1 PUSH1 0x4 ADD PUSH1 0x15 SWAP1 SLOAD SWAP1 PUSH2 0x100 EXP SWAP1 DIV PUSH1 0xFF AND SWAP1 POP DUP8 JUMP JUMPDEST PUSH2 0x1DE4 PUSH2 0x33ED JUMP JUMPDEST PUSH0 PUSH1 0x7 PUSH0 CALLER PUSH20 0xFFFFFFFFFFFFFFFFFFFFFFFFFFFFFFFFFFFFFFFF AND PUSH20 0xFFFFFFFFFFFFFFFFFFFFFFFFFFFFFFFFFFFFFFFF AND DUP2 MSTORE PUSH1 0x20 ADD SWAP1 DUP2 MSTORE PUSH1 0x20 ADD PUSH0 KECCAK256 PUSH0 DUP4 DUP2 MSTORE PUSH1 0x20 ADD SWAP1 DUP2 MSTORE PUSH1 0x20 ADD PUSH0 KECCAK256 SWAP1 POP DUP1 PUSH1 0x4 ADD PUSH1 0x15 SWAP1 SLOAD SWAP1 PUSH2 0x100 EXP SWAP1 DIV PUSH1 0xFF AND PUSH2 0x1E88 JUMPI CALLER DUP3 PUSH1 0x40 MLOAD PUSH32 0x9477D82500000000000000000000000000000000000000000000000000000000 DUP2 MSTORE PUSH1 0x4 ADD PUSH2 0x1E7F SWAP3 SWAP2 SWAP1 PUSH2 0x464D JUMP JUMPDEST PUSH1 0x40 MLOAD DUP1 SWAP2 SUB SWAP1 REVERT JUMPDEST PUSH1 0x3 PUSH1 0x4 DUP2 GT ISZERO PUSH2 0x1E9C JUMPI PUSH2 0x1E9B PUSH2 0x3FE2 JUMP JUMPDEST JUMPDEST DUP2 PUSH1 0x4 ADD PUSH1 0x14 SWAP1 SLOAD SWAP1 PUSH2 0x100 EXP SWAP1 DIV PUSH1 0xFF AND PUSH1 0x4 DUP2 GT ISZERO PUSH2 0x1EC0 JUMPI PUSH2 0x1EBF PUSH2 0x3FE2 JUMP JUMPDEST JUMPDEST EQ DUP1 PUSH2 0x1F00 JUMPI POP PUSH1 0x4 DUP1 DUP2 GT ISZERO PUSH2 0x1EDA JUMPI PUSH2 0x1ED9 PUSH2 0x3FE2 JUMP JUMPDEST JUMPDEST DUP2 PUSH1 0x4 ADD PUSH1 0x14 SWAP1 SLOAD SWAP1 PUSH2 0x100 EXP SWAP1 DIV PUSH1 0xFF AND PUSH1 0x4 DUP2 GT ISZERO PUSH2 0x1EFE JUMPI PUSH2 0x1EFD PUSH2 0x3FE2 JUMP JUMPDEST JUMPDEST EQ JUMPDEST ISZERO PUSH2 0x1F37 JUMPI PUSH1 0x40 MLOAD PUSH32 0xA85E6F1A00000000000000000000000000000000000000000000000000000000 DUP2 MSTORE PUSH1 0x4 ADD PUSH1 0x40 MLOAD DUP1 SWAP2 SUB SWAP1 REVERT JUMPDEST DUP1 PUSH1 0x2 ADD SLOAD PUSH1 0x5 SLOAD GT PUSH2 0x1F92 JUMPI DUP1 PUSH1 0x4 ADD PUSH1 0x14 SWAP1 SLOAD SWAP1 PUSH2 0x100 EXP SWAP1 DIV PUSH1 0xFF AND PUSH1 0x40 MLOAD PUSH32 0xDF9C18C000000000000000000000000000000000000000000000000000000000 DUP2 MSTORE PUSH1 0x4 ADD PUSH2 0x1F89 SWAP2 SWAP1 PUSH2 0x444D JUMP JUMPDEST PUSH1 0x40 MLOAD DUP1 SWAP2 SUB SWAP1 REVERT JUMPDEST PUSH0 PUSH1 0x2 DUP3 PUSH1 0x2 ADD SLOAD PUSH2 0x1FA4 SWAP2 SWAP1 PUSH2 0x44C6 JUMP JUMPDEST SWAP1 POP DUP1 PUSH1 0x5 SLOAD GT ISZERO PUSH2 0x1FF5 JUMPI DUP2 PUSH1 0x2 ADD SLOAD PUSH1 0x5 SLOAD PUSH1 0x40 MLOAD PUSH32 0x12E5CFFE00000000000000000000000000000000000000000000000000000000 DUP2 MSTORE PUSH1 0x4 ADD PUSH2 0x1FEC SWAP3 SWAP2 SWAP1 PUSH2 0x44F9 JUMP JUMPDEST PUSH1 0x40 MLOAD DUP1 SWAP2 SUB SWAP1 REVERT JUMPDEST PUSH0 DUP3 PUSH1 0x3 ADD SLOAD SWAP1 POP PUSH0 DUP4 PUSH1 0x4 ADD PUSH0 SWAP1 SLOAD SWAP1 PUSH2 0x100 EXP SWAP1 DIV PUSH20 0xFFFFFFFFFFFFFFFFFFFFFFFFFFFFFFFFFFFFFFFF AND SWAP1 POP PUSH1 0x3 DUP5 PUSH1 0x4 ADD PUSH1 0x14 PUSH2 0x100 EXP DUP2 SLOAD DUP2 PUSH1 0xFF MUL NOT AND SWAP1 DUP4 PUSH1 0x4 DUP2 GT ISZERO PUSH2 0x204C JUMPI PUSH2 0x204B PUSH2 0x3FE2 JUMP JUMPDEST JUMPDEST MUL OR SWAP1 SSTORE POP PUSH0 DUP5 PUSH1 0x3 ADD DUP2 SWAP1 SSTORE POP PUSH0 PUSH20 0xFFFFFFFFFFFFFFFFFFFFFFFFFFFFFFFFFFFFFFFF AND DUP2 PUSH20 0xFFFFFFFFFFFFFFFFFFFFFFFFFFFFFFFFFFFFFFFF AND SUB PUSH2 0x213B JUMPI PUSH0 CALLER PUSH20 0xFFFFFFFFFFFFFFFFFFFFFFFFFFFFFFFFFFFFFFFF AND DUP4 PUSH1 0x40 MLOAD PUSH2 0x20B2 SWAP1 PUSH2 0x454D JUMP JUMPDEST PUSH0 PUSH1 0x40 MLOAD DUP1 DUP4 SUB DUP2 DUP6 DUP8 GAS CALL SWAP3 POP POP POP RETURNDATASIZE DUP1 PUSH0 DUP2 EQ PUSH2 0x20EC JUMPI PUSH1 0x40 MLOAD SWAP2 POP PUSH1 0x1F NOT PUSH1 0x3F RETURNDATASIZE ADD AND DUP3 ADD PUSH1 0x40 MSTORE RETURNDATASIZE DUP3 MSTORE RETURNDATASIZE PUSH0 PUSH1 0x20 DUP5 ADD RETURNDATACOPY PUSH2 0x20F1 JUMP JUMPDEST PUSH1 0x60 SWAP2 POP JUMPDEST POP POP SWAP1 POP DUP1 PUSH2 0x2135 JUMPI PUSH1 0x40 MLOAD PUSH32 0x8C379A000000000000000000000000000000000000000000000000000000000 DUP2 MSTORE PUSH1 0x4 ADD PUSH2 0x212C SWAP1 PUSH2 0x45AB JUMP JUMPDEST PUSH1 0x40 MLOAD DUP1 SWAP2 SUB SWAP1 REVERT JUMPDEST POP PUSH2 0x2167 JUMP JUMPDEST PUSH2 0x2166 CALLER DUP4 DUP4 PUSH20 0xFFFFFFFFFFFFFFFFFFFFFFFFFFFFFFFFFFFFFFFF AND PUSH2 0x3664 SWAP1 SWAP3 SWAP2 SWAP1 PUSH4 0xFFFFFFFF AND JUMP JUMPDEST JUMPDEST DUP5 CALLER PUSH20 0xFFFFFFFFFFFFFFFFFFFFFFFFFFFFFFFFFFFFFFFF AND PUSH32 0xAD8270D9F16E19A32BA47F589E09C7C69D78067B4D2F59F4D7D95F4A37B792A1 DUP5 DUP5 PUSH1 0x40 MLOAD PUSH2 0x21B0 SWAP3 SWAP2 SWAP1 PUSH2 0x4674 JUMP JUMPDEST PUSH1 0x40 MLOAD DUP1 SWAP2 SUB SWAP1 LOG3 POP POP POP POP PUSH2 0x21C4 PUSH2 0x364A JUMP JUMPDEST POP JUMP JUMPDEST PUSH1 0x6 PUSH0 SWAP1 SLOAD SWAP1 PUSH2 0x100 EXP SWAP1 DIV PUSH1 0xFF AND DUP2 JUMP JUMPDEST PUSH2 0x21E1 PUSH2 0x3366 JUMP JUMPDEST PUSH2 0x21EA PUSH0 PUSH2 0x36B7 JUMP JUMPDEST JUMP JUMPDEST PUSH2 0x21F4 PUSH2 0x3366 JUMP JUMPDEST PUSH0 PUSH20 0xFFFFFFFFFFFFFFFFFFFFFFFFFFFFFFFFFFFFFFFF AND DUP2 PUSH20 0xFFFFFFFFFFFFFFFFFFFFFFFFFFFFFFFFFFFFFFFF AND SUB PUSH2 0x2259 JUMPI PUSH1 0x40 MLOAD PUSH32 0xD92E233D00000000000000000000000000000000000000000000000000000000 DUP2 MSTORE PUSH1 0x4 ADD PUSH1 0x40 MLOAD DUP1 SWAP2 SUB SWAP1 REVERT JUMPDEST DUP1 PUSH1 0x1 PUSH0 PUSH2 0x100 EXP DUP2 SLOAD DUP2 PUSH20 0xFFFFFFFFFFFFFFFFFFFFFFFFFFFFFFFFFFFFFFFF MUL NOT AND SWAP1 DUP4 PUSH20 0xFFFFFFFFFFFFFFFFFFFFFFFFFFFFFFFFFFFFFFFF AND MUL OR SWAP1 SSTORE POP DUP1 PUSH20 0xFFFFFFFFFFFFFFFFFFFFFFFFFFFFFFFFFFFFFFFF AND PUSH32 0x2B48AB5A397C976981A15213F5C994553B8FB01C27D3B77542C6095A483379D PUSH1 0x40 MLOAD PUSH1 0x40 MLOAD DUP1 SWAP2 SUB SWAP1 LOG2 POP JUMP JUMPDEST PUSH1 0x2 PUSH0 SWAP1 SLOAD SWAP1 PUSH2 0x100 EXP SWAP1 DIV PUSH20 0xFFFFFFFFFFFFFFFFFFFFFFFFFFFFFFFFFFFFFFFF AND PUSH20 0xFFFFFFFFFFFFFFFFFFFFFFFFFFFFFFFFFFFFFFFF AND CALLER PUSH20 0xFFFFFFFFFFFFFFFFFFFFFFFFFFFFFFFFFFFFFFFF AND EQ PUSH2 0x2365 JUMPI PUSH1 0x40 MLOAD PUSH32 0x3E94DCE900000000000000000000000000000000000000000000000000000000 DUP2 MSTORE PUSH1 0x4 ADD PUSH1 0x40 MLOAD DUP1 SWAP2 SUB SWAP1 REVERT JUMPDEST PUSH0 PUSH1 0x7 PUSH0 DUP5 PUSH20 0xFFFFFFFFFFFFFFFFFFFFFFFFFFFFFFFFFFFFFFFF AND PUSH20 0xFFFFFFFFFFFFFFFFFFFFFFFFFFFFFFFFFFFFFFFF AND DUP2 MSTORE PUSH1 0x20 ADD SWAP1 DUP2 MSTORE PUSH1 0x20 ADD PUSH0 KECCAK256 PUSH0 DUP4 DUP2 MSTORE PUSH1 0x20 ADD SWAP1 DUP2 MSTORE PUSH1 0x20 ADD PUSH0 KECCAK256 SWAP1 POP DUP1 PUSH1 0x4 ADD PUSH1 0x15 SWAP1 SLOAD SWAP1 PUSH2 0x100 EXP SWAP1 DIV PUSH1 0xFF AND DUP1 ISZERO PUSH2 0x2447 JUMPI POP PUSH1 0x2 PUSH1 0x4 DUP2 GT ISZERO PUSH2 0x23E1 JUMPI PUSH2 0x23E0 PUSH2 0x3FE2 JUMP JUMPDEST JUMPDEST DUP2 PUSH1 0x4 ADD PUSH1 0x14 SWAP1 SLOAD SWAP1 PUSH2 0x100 EXP SWAP1 DIV PUSH1 0xFF AND PUSH1 0x4 DUP2 GT ISZERO PUSH2 0x2405 JUMPI PUSH2 0x2404 PUSH2 0x3FE2 JUMP JUMPDEST JUMPDEST EQ DUP1 PUSH2 0x2446 JUMPI POP PUSH1 0x1 PUSH1 0x4 DUP2 GT ISZERO PUSH2 0x2420 JUMPI PUSH2 0x241F PUSH2 0x3FE2 JUMP JUMPDEST JUMPDEST DUP2 PUSH1 0x4 ADD PUSH1 0x14 SWAP1 SLOAD SWAP1 PUSH2 0x100 EXP SWAP1 DIV PUSH1 0xFF AND PUSH1 0x4 DUP2 GT ISZERO PUSH2 0x2444 JUMPI PUSH2 0x2443 PUSH2 0x3FE2 JUMP JUMPDEST JUMPDEST EQ JUMPDEST JUMPDEST ISZERO PUSH2 0x24CA JUMPI PUSH1 0x4 DUP2 PUSH1 0x4 ADD PUSH1 0x14 PUSH2 0x100 EXP DUP2 SLOAD DUP2 PUSH1 0xFF MUL NOT AND SWAP1 DUP4 PUSH1 0x4 DUP2 GT ISZERO PUSH2 0x2474 JUMPI PUSH2 0x2473 PUSH2 0x3FE2 JUMP JUMPDEST JUMPDEST MUL OR SWAP1 SSTORE POP DUP2 DUP4 PUSH20 0xFFFFFFFFFFFFFFFFFFFFFFFFFFFFFFFFFFFFFFFF AND PUSH32 0x1415547AC25CCCDDFD82D3B4BCAD6C1A8383110D39E6799A32B6CC5F2987E914 PUSH1 0x4 PUSH1 0x40 MLOAD PUSH2 0x24C1 SWAP2 SWAP1 PUSH2 0x444D JUMP JUMPDEST PUSH1 0x40 MLOAD DUP1 SWAP2 SUB SWAP1 LOG3 JUMPDEST POP POP POP JUMP JUMPDEST PUSH1 0x60 PUSH0 PUSH1 0x9 PUSH0 DUP5 PUSH20 0xFFFFFFFFFFFFFFFFFFFFFFFFFFFFFFFFFFFFFFFF AND PUSH20 0xFFFFFFFFFFFFFFFFFFFFFFFFFFFFFFFFFFFFFFFF AND DUP2 MSTORE PUSH1 0x20 ADD SWAP1 DUP2 MSTORE PUSH1 0x20 ADD PUSH0 KECCAK256 DUP1 SLOAD DUP1 PUSH1 0x20 MUL PUSH1 0x20 ADD PUSH1 0x40 MLOAD SWAP1 DUP2 ADD PUSH1 0x40 MSTORE DUP1 SWAP3 SWAP2 SWAP1 DUP2 DUP2 MSTORE PUSH1 0x20 ADD DUP3 DUP1 SLOAD DUP1 ISZERO PUSH2 0x2557 JUMPI PUSH1 0x20 MUL DUP3 ADD SWAP2 SWAP1 PUSH0 MSTORE PUSH1 0x20 PUSH0 KECCAK256 SWAP1 JUMPDEST DUP2 SLOAD DUP2 MSTORE PUSH1 0x20 ADD SWAP1 PUSH1 0x1 ADD SWAP1 DUP1 DUP4 GT PUSH2 0x2543 JUMPI JUMPDEST POP POP POP POP POP SWAP1 POP DUP1 MLOAD PUSH8 0xFFFFFFFFFFFFFFFF DUP2 GT ISZERO PUSH2 0x2579 JUMPI PUSH2 0x2578 PUSH2 0x469B JUMP JUMPDEST JUMPDEST PUSH1 0x40 MLOAD SWAP1 DUP1 DUP3 MSTORE DUP1 PUSH1 0x20 MUL PUSH1 0x20 ADD DUP3 ADD PUSH1 0x40 MSTORE DUP1 ISZERO PUSH2 0x25B2 JUMPI DUP2 PUSH1 0x20 ADD JUMPDEST PUSH2 0x259F PUSH2 0x38E1 JUMP JUMPDEST DUP2 MSTORE PUSH1 0x20 ADD SWAP1 PUSH1 0x1 SWAP1 SUB SWAP1 DUP2 PUSH2 0x2597 JUMPI SWAP1 POP JUMPDEST POP SWAP2 POP PUSH0 JUMPDEST DUP2 MLOAD DUP2 LT ISZERO PUSH2 0x2774 JUMPI PUSH1 0x7 PUSH0 DUP6 PUSH20 0xFFFFFFFFFFFFFFFFFFFFFFFFFFFFFFFFFFFFFFFF AND PUSH20 0xFFFFFFFFFFFFFFFFFFFFFFFFFFFFFFFFFFFFFFFF AND DUP2 MSTORE PUSH1 0x20 ADD SWAP1 DUP2 MSTORE PUSH1 0x20 ADD PUSH0 KECCAK256 PUSH0 DUP4 DUP4 DUP2 MLOAD DUP2 LT PUSH2 0x2611 JUMPI PUSH2 0x2610 PUSH2 0x4420 JUMP JUMPDEST JUMPDEST PUSH1 0x20 MUL PUSH1 0x20 ADD ADD MLOAD DUP2 MSTORE PUSH1 0x20 ADD SWAP1 DUP2 MSTORE PUSH1 0x20 ADD PUSH0 KECCAK256 PUSH1 0x40 MLOAD DUP1 PUSH1 0xE0 ADD PUSH1 0x40 MSTORE SWAP1 DUP2 PUSH0 DUP3 ADD PUSH0 SWAP1 SLOAD SWAP1 PUSH2 0x100 EXP SWAP1 DIV PUSH1 0xD0 SHL PUSH26 0xFFFFFFFFFFFFFFFFFFFFFFFFFFFFFFFFFFFFFFFFFFFFFFFFFFFF NOT AND PUSH26 0xFFFFFFFFFFFFFFFFFFFFFFFFFFFFFFFFFFFFFFFFFFFFFFFFFFFF NOT AND DUP2 MSTORE PUSH1 0x20 ADD PUSH1 0x1 DUP3 ADD SLOAD DUP2 MSTORE PUSH1 0x20 ADD PUSH1 0x2 DUP3 ADD SLOAD DUP2 MSTORE PUSH1 0x20 ADD PUSH1 0x3 DUP3 ADD SLOAD DUP2 MSTORE PUSH1 0x20 ADD PUSH1 0x4 DUP3 ADD PUSH0 SWAP1 SLOAD SWAP1 PUSH2 0x100 EXP SWAP1 DIV PUSH20 0xFFFFFFFFFFFFFFFFFFFFFFFFFFFFFFFFFFFFFFFF AND PUSH20 0xFFFFFFFFFFFFFFFFFFFFFFFFFFFFFFFFFFFFFFFF AND PUSH20 0xFFFFFFFFFFFFFFFFFFFFFFFFFFFFFFFFFFFFFFFF AND DUP2 MSTORE PUSH1 0x20 ADD PUSH1 0x4 DUP3 ADD PUSH1 0x14 SWAP1 SLOAD SWAP1 PUSH2 0x100 EXP SWAP1 DIV PUSH1 0xFF AND PUSH1 0x4 DUP2 GT ISZERO PUSH2 0x2718 JUMPI PUSH2 0x2717 PUSH2 0x3FE2 JUMP JUMPDEST JUMPDEST PUSH1 0x4 DUP2 GT ISZERO PUSH2 0x272A JUMPI PUSH2 0x2729 PUSH2 0x3FE2 JUMP JUMPDEST JUMPDEST DUP2 MSTORE PUSH1 0x20 ADD PUSH1 0x4 DUP3 ADD PUSH1 0x15 SWAP1 SLOAD SWAP1 PUSH2 0x100 EXP SWAP1 DIV PUSH1 0xFF AND ISZERO ISZERO ISZERO ISZERO DUP2 MSTORE POP POP DUP4 DUP3 DUP2 MLOAD DUP2 LT PUSH2 0x275C JUMPI PUSH2 0x275B PUSH2 0x4420 JUMP JUMPDEST JUMPDEST PUSH1 0x20 MUL PUSH1 0x20 ADD ADD DUP2 SWAP1 MSTORE POP DUP1 DUP1 PUSH1 0x1 ADD SWAP2 POP POP PUSH2 0x25B7 JUMP JUMPDEST POP POP SWAP2 SWAP1 POP JUMP JUMPDEST PUSH1 0x4 SLOAD DUP2 JUMP JUMPDEST PUSH2 0x2789 PUSH2 0x3366 JUMP JUMPDEST PUSH1 0x1 PUSH1 0x6 PUSH0 PUSH2 0x100 EXP DUP2 SLOAD DUP2 PUSH1 0xFF MUL NOT AND SWAP1 DUP4 ISZERO ISZERO MUL OR SWAP1 SSTORE POP CALLER PUSH20 0xFFFFFFFFFFFFFFFFFFFFFFFFFFFFFFFFFFFFFFFF AND PUSH32 0x62E78CEA01BEE320CD4E420270B5EA74000D11B0C9F74754EBDBFC544B05A258 PUSH1 0x40 MLOAD PUSH1 0x40 MLOAD DUP1 SWAP2 SUB SWAP1 LOG2 JUMP JUMPDEST PUSH2 0x27F0 PUSH2 0x33ED JUMP JUMPDEST PUSH1 0x6 PUSH0 SWAP1 SLOAD SWAP1 PUSH2 0x100 EXP SWAP1 DIV PUSH1 0xFF AND ISZERO PUSH2 0x2836 JUMPI PUSH1 0x40 MLOAD PUSH32 0xAB35696F00000000000000000000000000000000000000000000000000000000 DUP2 MSTORE PUSH1 0x4 ADD PUSH1 0x40 MLOAD DUP1 SWAP2 SUB SWAP1 REVERT JUMPDEST PUSH0 PUSH1 0x1 PUSH1 0x5 SLOAD PUSH2 0x2846 SWAP2 SWAP1 PUSH2 0x44C6 JUMP JUMPDEST SWAP1 POP PUSH0 PUSH1 0x7 PUSH0 CALLER PUSH20 0xFFFFFFFFFFFFFFFFFFFFFFFFFFFFFFFFFFFFFFFF AND PUSH20 0xFFFFFFFFFFFFFFFFFFFFFFFFFFFFFFFFFFFFFFFF AND DUP2 MSTORE PUSH1 0x20 ADD SWAP1 DUP2 MSTORE PUSH1 0x20 ADD PUSH0 KECCAK256 PUSH0 DUP4 DUP2 MSTORE PUSH1 0x20 ADD SWAP1 DUP2 MSTORE PUSH1 0x20 ADD PUSH0 KECCAK256 SWAP1 POP DUP1 PUSH1 0x4 ADD PUSH1 0x15 SWAP1 SLOAD SWAP1 PUSH2 0x100 EXP SWAP1 DIV PUSH1 0xFF AND PUSH2 0x28EC JUMPI CALLER DUP3 PUSH1 0x40 MLOAD PUSH32 0x9477D82500000000000000000000000000000000000000000000000000000000 DUP2 MSTORE PUSH1 0x4 ADD PUSH2 0x28E3 SWAP3 SWAP2 SWAP1 PUSH2 0x464D JUMP JUMPDEST PUSH1 0x40 MLOAD DUP1 SWAP2 SUB SWAP1 REVERT JUMPDEST PUSH0 PUSH1 0x4 DUP2 GT ISZERO PUSH2 0x28FF JUMPI PUSH2 0x28FE PUSH2 0x3FE2 JUMP JUMPDEST JUMPDEST DUP2 PUSH1 0x4 ADD PUSH1 0x14 SWAP1 SLOAD SWAP1 PUSH2 0x100 EXP SWAP1 DIV PUSH1 0xFF AND PUSH1 0x4 DUP2 GT ISZERO PUSH2 0x2923 JUMPI PUSH2 0x2922 PUSH2 0x3FE2 JUMP JUMPDEST JUMPDEST EQ ISZERO DUP1 ISZERO PUSH2 0x2967 JUMPI POP PUSH1 0x1 PUSH1 0x4 DUP2 GT ISZERO PUSH2 0x2940 JUMPI PUSH2 0x293F PUSH2 0x3FE2 JUMP JUMPDEST JUMPDEST DUP2 PUSH1 0x4 ADD PUSH1 0x14 SWAP1 SLOAD SWAP1 PUSH2 0x100 EXP SWAP1 DIV PUSH1 0xFF AND PUSH1 0x4 DUP2 GT ISZERO PUSH2 0x2964 JUMPI PUSH2 0x2963 PUSH2 0x3FE2 JUMP JUMPDEST JUMPDEST EQ ISZERO JUMPDEST ISZERO PUSH2 0x29BA JUMPI DUP1 PUSH1 0x4 ADD PUSH1 0x14 SWAP1 SLOAD SWAP1 PUSH2 0x100 EXP SWAP1 DIV PUSH1 0xFF AND PUSH1 0x40 MLOAD PUSH32 0x97B79D0300000000000000000000000000000000000000000000000000000000 DUP2 MSTORE PUSH1 0x4 ADD PUSH2 0x29B1 SWAP2 SWAP1 PUSH2 0x444D JUMP JUMPDEST PUSH1 0x40 MLOAD DUP1 SWAP2 SUB SWAP1 REVERT JUMPDEST PUSH2 0x29C3 DUP5 PUSH2 0x340F JUMP JUMPDEST PUSH0 PUSH1 0x3 SLOAD DUP5 PUSH2 0x29D2 SWAP2 SWAP1 PUSH2 0x45C9 JUMP JUMPDEST SWAP1 POP PUSH0 DUP2 GT ISZERO PUSH2 0x2AC2 JUMPI PUSH0 PUSH32 0x0 PUSH20 0xFFFFFFFFFFFFFFFFFFFFFFFFFFFFFFFFFFFFFFFF AND PUSH4 0xDD62ED3E CALLER ADDRESS PUSH1 0x40 MLOAD DUP4 PUSH4 0xFFFFFFFF AND PUSH1 0xE0 SHL DUP2 MSTORE PUSH1 0x4 ADD PUSH2 0x2A38 SWAP3 SWAP2 SWAP1 PUSH2 0x46C8 JUMP JUMPDEST PUSH1 0x20 PUSH1 0x40 MLOAD DUP1 DUP4 SUB DUP2 DUP7 GAS STATICCALL ISZERO DUP1 ISZERO PUSH2 0x2A53 JUMPI RETURNDATASIZE PUSH0 DUP1 RETURNDATACOPY RETURNDATASIZE PUSH0 REVERT JUMPDEST POP POP POP POP PUSH1 0x40 MLOAD RETURNDATASIZE PUSH1 0x1F NOT PUSH1 0x1F DUP3 ADD AND DUP3 ADD DUP1 PUSH1 0x40 MSTORE POP DUP2 ADD SWAP1 PUSH2 0x2A77 SWAP2 SWAP1 PUSH2 0x4703 JUMP JUMPDEST SWAP1 POP DUP2 DUP2 LT ISZERO PUSH2 0x2AC0 JUMPI DUP2 DUP2 PUSH1 0x40 MLOAD PUSH32 0x2A1B2DD800000000000000000000000000000000000000000000000000000000 DUP2 MSTORE PUSH1 0x4 ADD PUSH2 0x2AB7 SWAP3 SWAP2 SWAP1 PUSH2 0x44F9 JUMP JUMPDEST PUSH1 0x40 MLOAD DUP1 SWAP2 SUB SWAP1 REVERT JUMPDEST POP JUMPDEST PUSH0 DUP3 PUSH0 ADD PUSH0 SWAP1 SLOAD SWAP1 PUSH2 0x100 EXP SWAP1 DIV PUSH1 0xD0 SHL SWAP1 POP DUP6 DUP4 PUSH0 ADD PUSH0 PUSH2 0x100 EXP DUP2 SLOAD DUP2 PUSH6 0xFFFFFFFFFFFF MUL NOT AND SWAP1 DUP4 PUSH1 0xD0 SHR MUL OR SWAP1 SSTORE POP DUP5 DUP5 PUSH2 0x2B01 SWAP2 SWAP1 PUSH2 0x44C6 JUMP JUMPDEST DUP4 PUSH1 0x2 ADD DUP2 SWAP1 SSTORE POP PUSH1 0x8 PUSH0 DUP6 DUP2 MSTORE PUSH1 0x20 ADD SWAP1 DUP2 MSTORE PUSH1 0x20 ADD PUSH0 KECCAK256 PUSH0 DUP8 PUSH26 0xFFFFFFFFFFFFFFFFFFFFFFFFFFFFFFFFFFFFFFFFFFFFFFFFFFFF NOT AND PUSH26 0xFFFFFFFFFFFFFFFFFFFFFFFFFFFFFFFFFFFFFFFFFFFFFFFFFFFF NOT AND DUP2 MSTORE PUSH1 0x20 ADD SWAP1 DUP2 MSTORE PUSH1 0x20 ADD PUSH0 KECCAK256 CALLER SWAP1 DUP1 PUSH1 0x1 DUP2 SLOAD ADD DUP1 DUP3 SSTORE DUP1 SWAP2 POP POP PUSH1 0x1 SWAP1 SUB SWAP1 PUSH0 MSTORE PUSH1 0x20 PUSH0 KECCAK256 ADD PUSH0 SWAP1 SWAP2 SWAP1 SWAP2 SWAP1 SWAP2 PUSH2 0x100 EXP DUP2 SLOAD DUP2 PUSH20 0xFFFFFFFFFFFFFFFFFFFFFFFFFFFFFFFFFFFFFFFF MUL NOT AND SWAP1 DUP4 PUSH20 0xFFFFFFFFFFFFFFFFFFFFFFFFFFFFFFFFFFFFFFFF AND MUL OR SWAP1 SSTORE POP PUSH0 DUP3 GT ISZERO PUSH2 0x2C86 JUMPI PUSH2 0x2C37 CALLER PUSH1 0x1 PUSH0 SWAP1 SLOAD SWAP1 PUSH2 0x100 EXP SWAP1 DIV PUSH20 0xFFFFFFFFFFFFFFFFFFFFFFFFFFFFFFFFFFFFFFFF AND DUP5 PUSH32 0x0 PUSH20 0xFFFFFFFFFFFFFFFFFFFFFFFFFFFFFFFFFFFFFFFF AND PUSH2 0x35F5 SWAP1 SWAP4 SWAP3 SWAP2 SWAP1 PUSH4 0xFFFFFFFF AND JUMP JUMPDEST CALLER PUSH20 0xFFFFFFFFFFFFFFFFFFFFFFFFFFFFFFFFFFFFFFFF AND PUSH32 0x41A209EE6A3EB8344A3F83B585BB4D93349BFBBD34DCE09EA38D8023516F2DA0 DUP4 PUSH1 0x40 MLOAD PUSH2 0x2C7D SWAP2 SWAP1 PUSH2 0x3D41 JUMP JUMPDEST PUSH1 0x40 MLOAD DUP1 SWAP2 SUB SWAP1 LOG2 JUMPDEST DUP4 CALLER PUSH20 0xFFFFFFFFFFFFFFFFFFFFFFFFFFFFFFFFFFFFFFFF AND PUSH32 0xAB313771997EFCA336C32B9E87CD8A060E3F223AB8B4E494E49C21E2342FB73C DUP4 DUP10 DUP7 PUSH1 0x40 MLOAD PUSH2 0x2CD1 SWAP4 SWAP3 SWAP2 SWAP1 PUSH2 0x472E JUMP JUMPDEST PUSH1 0x40 MLOAD DUP1 SWAP2 SUB SWAP1 LOG3 POP POP POP POP PUSH2 0x2CE5 PUSH2 0x364A JUMP JUMPDEST POP POP JUMP JUMPDEST PUSH1 0x5 SLOAD DUP2 JUMP JUMPDEST PUSH2 0x2CF7 PUSH2 0x3366 JUMP JUMPDEST PUSH0 DUP3 EQ DUP1 PUSH2 0x2D04 JUMPI POP PUSH0 DUP2 EQ JUMPDEST ISZERO PUSH2 0x2D3B JUMPI PUSH1 0x40 MLOAD PUSH32 0x1F2A200500000000000000000000000000000000000000000000000000000000 DUP2 MSTORE PUSH1 0x4 ADD PUSH1 0x40 MLOAD DUP1 SWAP2 SUB SWAP1 REVERT JUMPDEST DUP2 PUSH1 0x3 DUP2 SWAP1 SSTORE POP DUP1 PUSH1 0x4 DUP2 SWAP1 SSTORE POP PUSH32 0x5299E127AC8BDC64FD0E551DD406BA1E1FBAEBC96D458CE9B1A5E69CAECDF376 DUP3 DUP3 PUSH1 0x40 MLOAD PUSH2 0x2D7A SWAP3 SWAP2 SWAP1 PUSH2 0x44F9 JUMP JUMPDEST PUSH1 0x40 MLOAD DUP1 SWAP2 SUB SWAP1 LOG1 POP POP JUMP JUMPDEST PUSH0 DUP1 PUSH0 SWAP1 SLOAD SWAP1 PUSH2 0x100 EXP SWAP1 DIV PUSH20 0xFFFFFFFFFFFFFFFFFFFFFFFFFFFFFFFFFFFFFFFF AND SWAP1 POP SWAP1 JUMP JUMPDEST PUSH1 0x60 PUSH1 0x8 PUSH0 DUP5 DUP2 MSTORE PUSH1 0x20 ADD SWAP1 DUP2 MSTORE PUSH1 0x20 ADD PUSH0 KECCAK256 PUSH0 DUP4 PUSH26 0xFFFFFFFFFFFFFFFFFFFFFFFFFFFFFFFFFFFFFFFFFFFFFFFFFFFF NOT AND PUSH26 0xFFFFFFFFFFFFFFFFFFFFFFFFFFFFFFFFFFFFFFFFFFFFFFFFFFFF NOT AND DUP2 MSTORE PUSH1 0x20 ADD SWAP1 DUP2 MSTORE PUSH1 0x20 ADD PUSH0 KECCAK256 DUP1 SLOAD DUP1 PUSH1 0x20 MUL PUSH1 0x20 ADD PUSH1 0x40 MLOAD SWAP1 DUP2 ADD PUSH1 0x40 MSTORE DUP1 SWAP3 SWAP2 SWAP1 DUP2 DUP2 MSTORE PUSH1 0x20 ADD DUP3 DUP1 SLOAD DUP1 ISZERO PUSH2 0x2E86 JUMPI PUSH1 0x20 MUL DUP3 ADD SWAP2 SWAP1 PUSH0 MSTORE PUSH1 0x20 PUSH0 KECCAK256 SWAP1 JUMPDEST DUP2 PUSH0 SWAP1 SLOAD SWAP1 PUSH2 0x100 EXP SWAP1 DIV PUSH20 0xFFFFFFFFFFFFFFFFFFFFFFFFFFFFFFFFFFFFFFFF AND PUSH20 0xFFFFFFFFFFFFFFFFFFFFFFFFFFFFFFFFFFFFFFFF AND DUP2 MSTORE PUSH1 0x20 ADD SWAP1 PUSH1 0x1 ADD SWAP1 DUP1 DUP4 GT PUSH2 0x2E3D JUMPI JUMPDEST POP POP POP POP POP SWAP1 POP SWAP3 SWAP2 POP POP JUMP JUMPDEST PUSH0 PUSH1 0x8 PUSH0 PUSH1 0x1 PUSH1 0x5 SLOAD PUSH2 0x2EA6 SWAP2 SWAP1 PUSH2 0x44C6 JUMP JUMPDEST DUP2 MSTORE PUSH1 0x20 ADD SWAP1 DUP2 MSTORE PUSH1 0x20 ADD PUSH0 KECCAK256 PUSH0 DUP4 PUSH26 0xFFFFFFFFFFFFFFFFFFFFFFFFFFFFFFFFFFFFFFFFFFFFFFFFFFFF NOT AND PUSH26 0xFFFFFFFFFFFFFFFFFFFFFFFFFFFFFFFFFFFFFFFFFFFFFFFFFFFF NOT AND DUP2 MSTORE PUSH1 0x20 ADD SWAP1 DUP2 MSTORE PUSH1 0x20 ADD PUSH0 KECCAK256 DUP1 SLOAD SWAP1 POP SWAP1 POP SWAP2 SWAP1 POP JUMP JUMPDEST PUSH0 DUP1 PUSH0 PUSH1 0x7 PUSH0 DUP7 PUSH20 0xFFFFFFFFFFFFFFFFFFFFFFFFFFFFFFFFFFFFFFFF AND PUSH20 0xFFFFFFFFFFFFFFFFFFFFFFFFFFFFFFFFFFFFFFFF AND DUP2 MSTORE PUSH1 0x20 ADD SWAP1 DUP2 MSTORE PUSH1 0x20 ADD PUSH0 KECCAK256 PUSH0 DUP6 DUP2 MSTORE PUSH1 0x20 ADD SWAP1 DUP2 MSTORE PUSH1 0x20 ADD PUSH0 KECCAK256 SWAP1 POP DUP1 PUSH1 0x4 ADD PUSH1 0x15 SWAP1 SLOAD SWAP1 PUSH2 0x100 EXP SWAP1 DIV PUSH1 0xFF AND PUSH2 0x2F7D JUMPI PUSH0 DUP1 PUSH1 0xD0 SHL SWAP3 POP SWAP3 POP POP PUSH2 0x2F95 JUMP JUMPDEST PUSH1 0x1 DUP2 PUSH0 ADD PUSH0 SWAP1 SLOAD SWAP1 PUSH2 0x100 EXP SWAP1 DIV PUSH1 0xD0 SHL SWAP3 POP SWAP3 POP POP JUMPDEST SWAP3 POP SWAP3 SWAP1 POP JUMP JUMPDEST PUSH1 0xB PUSH1 0x20 MSTORE DUP2 PUSH0 MSTORE PUSH1 0x40 PUSH0 KECCAK256 PUSH1 0x20 MSTORE DUP1 PUSH0 MSTORE PUSH1 0x40 PUSH0 KECCAK256 PUSH0 SWAP2 POP SWAP2 POP SWAP1 SLOAD SWAP1 PUSH2 0x100 EXP SWAP1 DIV PUSH1 0xFF AND DUP2 JUMP JUMPDEST PUSH2 0x2FCE PUSH2 0x38E1 JUMP JUMPDEST PUSH1 0x7 PUSH0 DUP5 PUSH20 0xFFFFFFFFFFFFFFFFFFFFFFFFFFFFFFFFFFFFFFFF AND PUSH20 0xFFFFFFFFFFFFFFFFFFFFFFFFFFFFFFFFFFFFFFFF AND DUP2 MSTORE PUSH1 0x20 ADD SWAP1 DUP2 MSTORE PUSH1 0x20 ADD PUSH0 KECCAK256 PUSH0 DUP4 DUP2 MSTORE PUSH1 0x20 ADD SWAP1 DUP2 MSTORE PUSH1 0x20 ADD PUSH0 KECCAK256 PUSH1 0x40 MLOAD DUP1 PUSH1 0xE0 ADD PUSH1 0x40 MSTORE SWAP1 DUP2 PUSH0 DUP3 ADD PUSH0 SWAP1 SLOAD SWAP1 PUSH2 0x100 EXP SWAP1 DIV PUSH1 0xD0 SHL PUSH26 0xFFFFFFFFFFFFFFFFFFFFFFFFFFFFFFFFFFFFFFFFFFFFFFFFFFFF NOT AND PUSH26 0xFFFFFFFFFFFFFFFFFFFFFFFFFFFFFFFFFFFFFFFFFFFFFFFFFFFF NOT AND DUP2 MSTORE PUSH1 0x20 ADD PUSH1 0x1 DUP3 ADD SLOAD DUP2 MSTORE PUSH1 0x20 ADD PUSH1 0x2 DUP3 ADD SLOAD DUP2 MSTORE PUSH1 0x20 ADD PUSH1 0x3 DUP3 ADD SLOAD DUP2 MSTORE PUSH1 0x20 ADD PUSH1 0x4 DUP3 ADD PUSH0 SWAP1 SLOAD SWAP1 PUSH2 0x100 EXP SWAP1 DIV PUSH20 0xFFFFFFFFFFFFFFFFFFFFFFFFFFFFFFFFFFFFFFFF AND PUSH20 0xFFFFFFFFFFFFFFFFFFFFFFFFFFFFFFFFFFFFFFFF AND PUSH20 0xFFFFFFFFFFFFFFFFFFFFFFFFFFFFFFFFFFFFFFFF AND DUP2 MSTORE PUSH1 0x20 ADD PUSH1 0x4 DUP3 ADD PUSH1 0x14 SWAP1 SLOAD SWAP1 PUSH2 0x100 EXP SWAP1 DIV PUSH1 0xFF AND PUSH1 0x4 DUP2 GT ISZERO PUSH2 0x310C JUMPI PUSH2 0x310B PUSH2 0x3FE2 JUMP JUMPDEST JUMPDEST PUSH1 0x4 DUP2 GT ISZERO PUSH2 0x311E JUMPI PUSH2 0x311D PUSH2 0x3FE2 JUMP JUMPDEST JUMPDEST DUP2 MSTORE PUSH1 0x20 ADD PUSH1 0x4 DUP3 ADD PUSH1 0x15 SWAP1 SLOAD SWAP1 PUSH2 0x100 EXP SWAP1 DIV PUSH1 0xFF AND ISZERO ISZERO ISZERO ISZERO DUP2 MSTORE POP POP SWAP1 POP SWAP3 SWAP2 POP POP JUMP JUMPDEST PUSH0 DUP1 PUSH0 PUSH1 0x7 PUSH0 DUP7 PUSH20 0xFFFFFFFFFFFFFFFFFFFFFFFFFFFFFFFFFFFFFFFF AND PUSH20 0xFFFFFFFFFFFFFFFFFFFFFFFFFFFFFFFFFFFFFFFF AND DUP2 MSTORE PUSH1 0x20 ADD SWAP1 DUP2 MSTORE PUSH1 0x20 ADD PUSH0 KECCAK256 PUSH0 DUP6 DUP2 MSTORE PUSH1 0x20 ADD SWAP1 DUP2 MSTORE PUSH1 0x20 ADD PUSH0 KECCAK256 SWAP1 POP DUP1 PUSH1 0x4 ADD PUSH1 0x15 SWAP1 SLOAD SWAP1 PUSH2 0x100 EXP SWAP1 DIV PUSH1 0xFF AND PUSH2 0x31BB JUMPI PUSH0 DUP1 PUSH1 0xD0 SHL SWAP3 POP SWAP3 POP POP PUSH2 0x327D JUMP JUMPDEST PUSH1 0x1 PUSH1 0x4 DUP2 GT ISZERO PUSH2 0x31CF JUMPI PUSH2 0x31CE PUSH2 0x3FE2 JUMP JUMPDEST JUMPDEST DUP2 PUSH1 0x4 ADD PUSH1 0x14 SWAP1 SLOAD SWAP1 PUSH2 0x100 EXP SWAP1 DIV PUSH1 0xFF AND PUSH1 0x4 DUP2 GT ISZERO PUSH2 0x31F3 JUMPI PUSH2 0x31F2 PUSH2 0x3FE2 JUMP JUMPDEST JUMPDEST EQ ISZERO DUP1 ISZERO PUSH2 0x3236 JUMPI POP PUSH0 PUSH1 0x4 DUP2 GT ISZERO PUSH2 0x320F JUMPI PUSH2 0x320E PUSH2 0x3FE2 JUMP JUMPDEST JUMPDEST DUP2 PUSH1 0x4 ADD PUSH1 0x14 SWAP1 SLOAD SWAP1 PUSH2 0x100 EXP SWAP1 DIV PUSH1 0xFF AND PUSH1 0x4 DUP2 GT ISZERO PUSH2 0x3233 JUMPI PUSH2 0x3232 PUSH2 0x3FE2 JUMP JUMPDEST JUMPDEST EQ ISZERO JUMPDEST ISZERO PUSH2 0x324A JUMPI PUSH0 DUP1 PUSH1 0xD0 SHL SWAP3 POP SWAP3 POP POP PUSH2 0x327D JUMP JUMPDEST DUP1 PUSH1 0x2 ADD SLOAD DUP5 GT ISZERO PUSH2 0x3265 JUMPI PUSH0 DUP1 PUSH1 0xD0 SHL SWAP3 POP SWAP3 POP POP PUSH2 0x327D JUMP JUMPDEST PUSH1 0x1 DUP2 PUSH0 ADD PUSH0 SWAP1 SLOAD SWAP1 PUSH2 0x100 EXP SWAP1 DIV PUSH1 0xD0 SHL SWAP3 POP SWAP3 POP POP JUMPDEST SWAP3 POP SWAP3 SWAP1 POP JUMP JUMPDEST PUSH0 PUSH1 0x3 SLOAD DUP3 PUSH2 0x3293 SWAP2 SWAP1 PUSH2 0x45C9 JUMP JUMPDEST SWAP1 POP SWAP2 SWAP1 POP JUMP JUMPDEST PUSH1 0xA PUSH1 0x20 MSTORE DUP2 PUSH0 MSTORE PUSH1 0x40 PUSH0 KECCAK256 DUP2 DUP2 SLOAD DUP2 LT PUSH2 0x32B3 JUMPI PUSH0 DUP1 REVERT JUMPDEST SWAP1 PUSH0 MSTORE PUSH1 0x20 PUSH0 KECCAK256 ADD PUSH0 SWAP2 POP SWAP2 POP SWAP1 SLOAD SWAP1 PUSH2 0x100 EXP SWAP1 DIV PUSH20 0xFFFFFFFFFFFFFFFFFFFFFFFFFFFFFFFFFFFFFFFF AND DUP2 JUMP JUMPDEST PUSH2 0x32EA PUSH2 0x3366 JUMP JUMPDEST PUSH0 PUSH20 0xFFFFFFFFFFFFFFFFFFFFFFFFFFFFFFFFFFFFFFFF AND DUP2 PUSH20 0xFFFFFFFFFFFFFFFFFFFFFFFFFFFFFFFFFFFFFFFF AND SUB PUSH2 0x335A JUMPI PUSH0 PUSH1 0x40 MLOAD PUSH32 0x1E4FBDF700000000000000000000000000000000000000000000000000000000 DUP2 MSTORE PUSH1 0x4 ADD PUSH2 0x3351 SWAP2 SWAP1 PUSH2 0x3A7D JUMP JUMPDEST PUSH1 0x40 MLOAD DUP1 SWAP2 SUB SWAP1 REVERT JUMPDEST PUSH2 0x3363 DUP2 PUSH2 0x36B7 JUMP JUMPDEST POP JUMP JUMPDEST PUSH2 0x336E PUSH2 0x3778 JUMP JUMPDEST PUSH20 0xFFFFFFFFFFFFFFFFFFFFFFFFFFFFFFFFFFFFFFFF AND PUSH2 0x338C PUSH2 0x2D86 JUMP JUMPDEST PUSH20 0xFFFFFFFFFFFFFFFFFFFFFFFFFFFFFFFFFFFFFFFF AND EQ PUSH2 0x33EB JUMPI PUSH2 0x33AF PUSH2 0x3778 JUMP JUMPDEST PUSH1 0x40 MLOAD PUSH32 0x118CDAA700000000000000000000000000000000000000000000000000000000 DUP2 MSTORE PUSH1 0x4 ADD PUSH2 0x33E2 SWAP2 SWAP1 PUSH2 0x3A7D JUMP JUMPDEST PUSH1 0x40 MLOAD DUP1 SWAP2 SUB SWAP1 REVERT JUMPDEST JUMP JUMPDEST PUSH2 0x33F5 PUSH2 0x377F JUMP JUMPDEST PUSH1 0x2 PUSH2 0x3407 PUSH2 0x3402 PUSH2 0x37C0 JUMP JUMPDEST PUSH2 0x37E9 JUMP JUMPDEST PUSH0 ADD DUP2 SWAP1 SSTORE POP JUMP JUMPDEST PUSH0 DUP1 JUMPDEST PUSH1 0x6 DUP2 LT ISZERO PUSH2 0x35F0 JUMPI PUSH0 DUP4 DUP3 PUSH1 0x6 DUP2 LT PUSH2 0x342F JUMPI PUSH2 0x342E PUSH2 0x4420 JUMP JUMPDEST JUMPDEST BYTE PUSH1 0xF8 SHL SWAP1 POP PUSH0 PUSH1 0x41 PUSH1 0xF8 SHL DUP3 PUSH31 0xFFFFFFFFFFFFFFFFFFFFFFFFFFFFFFFFFFFFFFFFFFFFFFFFFFFFFFFFFFFFFF NOT AND LT ISZERO DUP1 ISZERO PUSH2 0x3492 JUMPI POP PUSH1 0x5A PUSH1 0xF8 SHL DUP3 PUSH31 0xFFFFFFFFFFFFFFFFFFFFFFFFFFFFFFFFFFFFFFFFFFFFFFFFFFFFFFFFFFFFFF NOT AND GT ISZERO JUMPDEST SWAP1 POP PUSH0 PUSH1 0x30 PUSH1 0xF8 SHL DUP4 PUSH31 0xFFFFFFFFFFFFFFFFFFFFFFFFFFFFFFFFFFFFFFFFFFFFFFFFFFFFFFFFFFFFFF NOT AND LT ISZERO DUP1 ISZERO PUSH2 0x34F1 JUMPI POP PUSH1 0x39 PUSH1 0xF8 SHL DUP4 PUSH31 0xFFFFFFFFFFFFFFFFFFFFFFFFFFFFFFFFFFFFFFFFFFFFFFFFFFFFFFFFFFFFFF NOT AND GT ISZERO JUMPDEST SWAP1 POP DUP2 ISZERO DUP1 ISZERO PUSH2 0x34FF JUMPI POP DUP1 ISZERO JUMPDEST ISZERO PUSH2 0x3541 JUMPI DUP3 PUSH1 0x40 MLOAD PUSH32 0x3FD7C86700000000000000000000000000000000000000000000000000000000 DUP2 MSTORE PUSH1 0x4 ADD PUSH2 0x3538 SWAP2 SWAP1 PUSH2 0x479D JUMP JUMPDEST PUSH1 0x40 MLOAD DUP1 SWAP2 SUB SWAP1 REVERT JUMPDEST PUSH0 DUP3 PUSH2 0x356B JUMPI PUSH1 0x1A PUSH1 0x30 DUP6 PUSH1 0xF8 SHR PUSH1 0xFF AND PUSH2 0x355C SWAP2 SWAP1 PUSH2 0x4493 JUMP JUMPDEST PUSH2 0x3566 SWAP2 SWAP1 PUSH2 0x44C6 JUMP JUMPDEST PUSH2 0x357F JUMP JUMPDEST PUSH1 0x41 DUP5 PUSH1 0xF8 SHR PUSH1 0xFF AND PUSH2 0x357E SWAP2 SWAP1 PUSH2 0x4493 JUMP JUMPDEST JUMPDEST SWAP1 POP PUSH0 DUP2 PUSH1 0x1 SWAP1 SHL SWAP1 POP PUSH0 DUP2 DUP9 AND PUSH8 0xFFFFFFFFFFFFFFFF AND EQ PUSH2 0x35D9 JUMPI DUP5 PUSH1 0x40 MLOAD PUSH32 0x8CD88F6900000000000000000000000000000000000000000000000000000000 DUP2 MSTORE PUSH1 0x4 ADD PUSH2 0x35D0 SWAP2 SWAP1 PUSH2 0x479D JUMP JUMPDEST PUSH1 0x40 MLOAD DUP1 SWAP2 SUB SWAP1 REVERT JUMPDEST DUP1 DUP8 OR SWAP7 POP POP POP POP POP POP DUP1 DUP1 PUSH1 0x1 ADD SWAP2 POP POP PUSH2 0x3412 JUMP JUMPDEST POP POP POP JUMP JUMPDEST PUSH2 0x3603 DUP5 DUP5 DUP5 DUP5 PUSH1 0x1 PUSH2 0x37F2 JUMP JUMPDEST PUSH2 0x3644 JUMPI DUP4 PUSH1 0x40 MLOAD PUSH32 0x5274AFE700000000000000000000000000000000000000000000000000000000 DUP2 MSTORE PUSH1 0x4 ADD PUSH2 0x363B SWAP2 SWAP1 PUSH2 0x3A7D JUMP JUMPDEST PUSH1 0x40 MLOAD DUP1 SWAP2 SUB SWAP1 REVERT JUMPDEST POP POP POP POP JUMP JUMPDEST PUSH1 0x1 PUSH2 0x365C PUSH2 0x3657 PUSH2 0x37C0 JUMP JUMPDEST PUSH2 0x37E9 JUMP JUMPDEST PUSH0 ADD DUP2 SWAP1 SSTORE POP JUMP JUMPDEST PUSH2 0x3671 DUP4 DUP4 DUP4 PUSH1 0x1 PUSH2 0x3863 JUMP JUMPDEST PUSH2 0x36B2 JUMPI DUP3 PUSH1 0x40 MLOAD PUSH32 0x5274AFE700000000000000000000000000000000000000000000000000000000 DUP2 MSTORE PUSH1 0x4 ADD PUSH2 0x36A9 SWAP2 SWAP1 PUSH2 0x3A7D JUMP JUMPDEST PUSH1 0x40 MLOAD DUP1 SWAP2 SUB SWAP1 REVERT JUMPDEST POP POP POP JUMP JUMPDEST PUSH0 DUP1 PUSH0 SWAP1 SLOAD SWAP1 PUSH2 0x100 EXP SWAP1 DIV PUSH20 0xFFFFFFFFFFFFFFFFFFFFFFFFFFFFFFFFFFFFFFFF AND SWAP1 POP DUP2 PUSH0 DUP1 PUSH2 0x100 EXP DUP2 SLOAD DUP2 PUSH20 0xFFFFFFFFFFFFFFFFFFFFFFFFFFFFFFFFFFFFFFFF MUL NOT AND SWAP1 DUP4 PUSH20 0xFFFFFFFFFFFFFFFFFFFFFFFFFFFFFFFFFFFFFFFF AND MUL OR SWAP1 SSTORE POP DUP2 PUSH20 0xFFFFFFFFFFFFFFFFFFFFFFFFFFFFFFFFFFFFFFFF AND DUP2 PUSH20 0xFFFFFFFFFFFFFFFFFFFFFFFFFFFFFFFFFFFFFFFF AND PUSH32 0x8BE0079C531659141344CD1FD0A4F28419497F9722A3DAAFE3B4186F6B6457E0 PUSH1 0x40 MLOAD PUSH1 0x40 MLOAD DUP1 SWAP2 SUB SWAP1 LOG3 POP POP JUMP JUMPDEST PUSH0 CALLER SWAP1 POP SWAP1 JUMP JUMPDEST PUSH2 0x3787 PUSH2 0x38C5 JUMP JUMPDEST ISZERO PUSH2 0x37BE JUMPI PUSH1 0x40 MLOAD PUSH32 0x3EE5AEB500000000000000000000000000000000000000000000000000000000 DUP2 MSTORE PUSH1 0x4 ADD PUSH1 0x40 MLOAD DUP1 SWAP2 SUB SWAP1 REVERT JUMPDEST JUMP JUMPDEST PUSH0 PUSH32 0x9B779B17422D0DF92223018B32B4D1FA46E071723D6817E2486D003BECC55F00 PUSH0 SHL SWAP1 POP SWAP1 JUMP JUMPDEST PUSH0 DUP2 SWAP1 POP SWAP2 SWAP1 POP JUMP JUMPDEST PUSH0 DUP1 PUSH4 0x23B872DD PUSH1 0xE0 SHL SWAP1 POP PUSH1 0x40 MLOAD DUP2 PUSH0 MSTORE PUSH0 NOT PUSH1 0x60 SHR DUP8 AND PUSH1 0x4 MSTORE PUSH0 NOT PUSH1 0x60 SHR DUP7 AND PUSH1 0x24 MSTORE DUP5 PUSH1 0x44 MSTORE PUSH1 0x20 PUSH0 PUSH1 0x64 PUSH0 DUP1 DUP13 GAS CALL SWAP3 POP PUSH1 0x1 PUSH0 MLOAD EQ DUP4 AND PUSH2 0x3850 JUMPI DUP4 DUP4 ISZERO AND ISZERO PUSH2 0x3844 JUMPI RETURNDATASIZE PUSH0 DUP3 RETURNDATACOPY RETURNDATASIZE DUP2 REVERT JUMPDEST PUSH0 DUP9 EXTCODESIZE GT RETURNDATASIZE ISZERO AND DUP4 AND SWAP3 POP JUMPDEST DUP1 PUSH1 0x40 MSTORE PUSH0 PUSH1 0x60 MSTORE POP POP SWAP6 SWAP5 POP POP POP POP POP JUMP JUMPDEST PUSH0 DUP1 PUSH4 0xA9059CBB PUSH1 0xE0 SHL SWAP1 POP PUSH1 0x40 MLOAD DUP2 PUSH0 MSTORE PUSH0 NOT PUSH1 0x60 SHR DUP7 AND PUSH1 0x4 MSTORE DUP5 PUSH1 0x24 MSTORE PUSH1 0x20 PUSH0 PUSH1 0x44 PUSH0 DUP1 DUP12 GAS CALL SWAP3 POP PUSH1 0x1 PUSH0 MLOAD EQ DUP4 AND PUSH2 0x38B7 JUMPI DUP4 DUP4 ISZERO AND ISZERO PUSH2 0x38AB JUMPI RETURNDATASIZE PUSH0 DUP3 RETURNDATACOPY RETURNDATASIZE DUP2 REVERT JUMPDEST PUSH0 DUP8 EXTCODESIZE GT RETURNDATASIZE ISZERO AND DUP4 AND SWAP3 POP JUMPDEST DUP1 PUSH1 0x40 MSTORE POP POP SWAP5 SWAP4 POP POP POP POP JUMP JUMPDEST PUSH0 PUSH1 0x2 PUSH2 0x38D8 PUSH2 0x38D3 PUSH2 0x37C0 JUMP JUMPDEST PUSH2 0x37E9 JUMP JUMPDEST PUSH0 ADD SLOAD EQ SWAP1 POP SWAP1 JUMP JUMPDEST PUSH1 0x40 MLOAD DUP1 PUSH1 0xE0 ADD PUSH1 0x40 MSTORE DUP1 PUSH0 PUSH26 0xFFFFFFFFFFFFFFFFFFFFFFFFFFFFFFFFFFFFFFFFFFFFFFFFFFFF NOT AND DUP2 MSTORE PUSH1 0x20 ADD PUSH0 DUP2 MSTORE PUSH1 0x20 ADD PUSH0 DUP2 MSTORE PUSH1 0x20 ADD PUSH0 DUP2 MSTORE PUSH1 0x20 ADD PUSH0 PUSH20 0xFFFFFFFFFFFFFFFFFFFFFFFFFFFFFFFFFFFFFFFF AND DUP2 MSTORE PUSH1 0x20 ADD PUSH0 PUSH1 0x4 DUP2 GT ISZERO PUSH2 0x3950 JUMPI PUSH2 0x394F PUSH2 0x3FE2 JUMP JUMPDEST JUMPDEST DUP2 MSTORE PUSH1 0x20 ADD PUSH0 ISZERO ISZERO DUP2 MSTORE POP SWAP1 JUMP JUMPDEST PUSH0 DUP1 REVERT JUMPDEST PUSH0 DUP1 REVERT JUMPDEST PUSH0 DUP2 SWAP1 POP SWAP2 SWAP1 POP JUMP JUMPDEST PUSH2 0x3978 DUP2 PUSH2 0x3966 JUMP JUMPDEST DUP2 EQ PUSH2 0x3982 JUMPI PUSH0 DUP1 REVERT JUMPDEST POP JUMP JUMPDEST PUSH0 DUP2 CALLDATALOAD SWAP1 POP PUSH2 0x3993 DUP2 PUSH2 0x396F JUMP JUMPDEST SWAP3 SWAP2 POP POP JUMP JUMPDEST PUSH0 PUSH32 0xFFFFFFFFFFFF0000000000000000000000000000000000000000000000000000 DUP3 AND SWAP1 POP SWAP2 SWAP1 POP JUMP JUMPDEST PUSH2 0x39CD DUP2 PUSH2 0x3999 JUMP JUMPDEST DUP2 EQ PUSH2 0x39D7 JUMPI PUSH0 DUP1 REVERT JUMPDEST POP JUMP JUMPDEST PUSH0 DUP2 CALLDATALOAD SWAP1 POP PUSH2 0x39E8 DUP2 PUSH2 0x39C4 JUMP JUMPDEST SWAP3 SWAP2 POP POP JUMP JUMPDEST PUSH0 DUP1 PUSH0 PUSH1 0x60 DUP5 DUP7 SUB SLT ISZERO PUSH2 0x3A05 JUMPI PUSH2 0x3A04 PUSH2 0x395E JUMP JUMPDEST JUMPDEST PUSH0 PUSH2 0x3A12 DUP7 DUP3 DUP8 ADD PUSH2 0x3985 JUMP JUMPDEST SWAP4 POP POP PUSH1 0x20 PUSH2 0x3A23 DUP7 DUP3 DUP8 ADD PUSH2 0x39DA JUMP JUMPDEST SWAP3 POP POP PUSH1 0x40 PUSH2 0x3A34 DUP7 DUP3 DUP8 ADD PUSH2 0x3985 JUMP JUMPDEST SWAP2 POP POP SWAP3 POP SWAP3 POP SWAP3 JUMP JUMPDEST PUSH0 PUSH20 0xFFFFFFFFFFFFFFFFFFFFFFFFFFFFFFFFFFFFFFFF DUP3 AND SWAP1 POP SWAP2 SWAP1 POP JUMP JUMPDEST PUSH0 PUSH2 0x3A67 DUP3 PUSH2 0x3A3E JUMP JUMPDEST SWAP1 POP SWAP2 SWAP1 POP JUMP JUMPDEST PUSH2 0x3A77 DUP2 PUSH2 0x3A5D JUMP JUMPDEST DUP3 MSTORE POP POP JUMP JUMPDEST PUSH0 PUSH1 0x20 DUP3 ADD SWAP1 POP PUSH2 0x3A90 PUSH0 DUP4 ADD DUP5 PUSH2 0x3A6E JUMP JUMPDEST SWAP3 SWAP2 POP POP JUMP JUMPDEST PUSH0 DUP2 SWAP1 POP SWAP2 SWAP1 POP JUMP JUMPDEST PUSH0 PUSH2 0x3AB9 PUSH2 0x3AB4 PUSH2 0x3AAF DUP5 PUSH2 0x3A3E JUMP JUMPDEST PUSH2 0x3A96 JUMP JUMPDEST PUSH2 0x3A3E JUMP JUMPDEST SWAP1 POP SWAP2 SWAP1 POP JUMP JUMPDEST PUSH0 PUSH2 0x3ACA DUP3 PUSH2 0x3A9F JUMP JUMPDEST SWAP1 POP SWAP2 SWAP1 POP JUMP JUMPDEST PUSH0 PUSH2 0x3ADB DUP3 PUSH2 0x3AC0 JUMP JUMPDEST SWAP1 POP SWAP2 SWAP1 POP JUMP JUMPDEST PUSH2 0x3AEB DUP2 PUSH2 0x3AD1 JUMP JUMPDEST DUP3 MSTORE POP POP JUMP JUMPDEST PUSH0 PUSH1 0x20 DUP3 ADD SWAP1 POP PUSH2 0x3B04 PUSH0 DUP4 ADD DUP5 PUSH2 0x3AE2 JUMP JUMPDEST SWAP3 SWAP2 POP POP JUMP JUMPDEST PUSH0 DUP1 REVERT JUMPDEST PUSH0 DUP1 REVERT JUMPDEST PUSH0 DUP1 REVERT JUMPDEST PUSH0 DUP1 DUP4 PUSH1 0x1F DUP5 ADD SLT PUSH2 0x3B2B JUMPI PUSH2 0x3B2A PUSH2 0x3B0A JUMP JUMPDEST JUMPDEST DUP3 CALLDATALOAD SWAP1 POP PUSH8 0xFFFFFFFFFFFFFFFF DUP2 GT ISZERO PUSH2 0x3B48 JUMPI PUSH2 0x3B47 PUSH2 0x3B0E JUMP JUMPDEST JUMPDEST PUSH1 0x20 DUP4 ADD SWAP2 POP DUP4 PUSH1 0x20 DUP3 MUL DUP4 ADD GT ISZERO PUSH2 0x3B64 JUMPI PUSH2 0x3B63 PUSH2 0x3B12 JUMP JUMPDEST JUMPDEST SWAP3 POP SWAP3 SWAP1 POP JUMP JUMPDEST PUSH0 DUP1 PUSH0 PUSH1 0x40 DUP5 DUP7 SUB SLT ISZERO PUSH2 0x3B82 JUMPI PUSH2 0x3B81 PUSH2 0x395E JUMP JUMPDEST JUMPDEST PUSH0 PUSH2 0x3B8F DUP7 DUP3 DUP8 ADD PUSH2 0x3985 JUMP JUMPDEST SWAP4 POP POP PUSH1 0x20 DUP5 ADD CALLDATALOAD PUSH8 0xFFFFFFFFFFFFFFFF DUP2 GT ISZERO PUSH2 0x3BB0 JUMPI PUSH2 0x3BAF PUSH2 0x3962 JUMP JUMPDEST JUMPDEST PUSH2 0x3BBC DUP7 DUP3 DUP8 ADD PUSH2 0x3B16 JUMP JUMPDEST SWAP3 POP SWAP3 POP POP SWAP3 POP SWAP3 POP SWAP3 JUMP JUMPDEST PUSH2 0x3BD1 DUP2 PUSH2 0x3A5D JUMP JUMPDEST DUP2 EQ PUSH2 0x3BDB JUMPI PUSH0 DUP1 REVERT JUMPDEST POP JUMP JUMPDEST PUSH0 DUP2 CALLDATALOAD SWAP1 POP PUSH2 0x3BEC DUP2 PUSH2 0x3BC8 JUMP JUMPDEST SWAP3 SWAP2 POP POP JUMP JUMPDEST PUSH0 PUSH1 0x20 DUP3 DUP5 SUB SLT ISZERO PUSH2 0x3C07 JUMPI PUSH2 0x3C06 PUSH2 0x395E JUMP JUMPDEST JUMPDEST PUSH0 PUSH2 0x3C14 DUP5 DUP3 DUP6 ADD PUSH2 0x3BDE JUMP JUMPDEST SWAP2 POP POP SWAP3 SWAP2 POP POP JUMP JUMPDEST PUSH0 DUP2 MLOAD SWAP1 POP SWAP2 SWAP1 POP JUMP JUMPDEST PUSH0 DUP3 DUP3 MSTORE PUSH1 0x20 DUP3 ADD SWAP1 POP SWAP3 SWAP2 POP POP JUMP JUMPDEST PUSH0 DUP2 SWAP1 POP PUSH1 0x20 DUP3 ADD SWAP1 POP SWAP2 SWAP1 POP JUMP JUMPDEST PUSH2 0x3C4F DUP2 PUSH2 0x3966 JUMP JUMPDEST DUP3 MSTORE POP POP JUMP JUMPDEST PUSH0 PUSH2 0x3C60 DUP4 DUP4 PUSH2 0x3C46 JUMP JUMPDEST PUSH1 0x20 DUP4 ADD SWAP1 POP SWAP3 SWAP2 POP POP JUMP JUMPDEST PUSH0 PUSH1 0x20 DUP3 ADD SWAP1 POP SWAP2 SWAP1 POP JUMP JUMPDEST PUSH0 PUSH2 0x3C82 DUP3 PUSH2 0x3C1D JUMP JUMPDEST PUSH2 0x3C8C DUP2 DUP6 PUSH2 0x3C27 JUMP JUMPDEST SWAP4 POP PUSH2 0x3C97 DUP4 PUSH2 0x3C37 JUMP JUMPDEST DUP1 PUSH0 JUMPDEST DUP4 DUP2 LT ISZERO PUSH2 0x3CC7 JUMPI DUP2 MLOAD PUSH2 0x3CAE DUP9 DUP3 PUSH2 0x3C55 JUMP JUMPDEST SWAP8 POP PUSH2 0x3CB9 DUP4 PUSH2 0x3C6C JUMP JUMPDEST SWAP3 POP POP PUSH1 0x1 DUP2 ADD SWAP1 POP PUSH2 0x3C9A JUMP JUMPDEST POP DUP6 SWAP4 POP POP POP POP SWAP3 SWAP2 POP POP JUMP JUMPDEST PUSH0 PUSH1 0x20 DUP3 ADD SWAP1 POP DUP2 DUP2 SUB PUSH0 DUP4 ADD MSTORE PUSH2 0x3CEC DUP2 DUP5 PUSH2 0x3C78 JUMP JUMPDEST SWAP1 POP SWAP3 SWAP2 POP POP JUMP JUMPDEST PUSH0 DUP1 PUSH1 0x40 DUP4 DUP6 SUB SLT ISZERO PUSH2 0x3D0A JUMPI PUSH2 0x3D09 PUSH2 0x395E JUMP JUMPDEST JUMPDEST PUSH0 PUSH2 0x3D17 DUP6 DUP3 DUP7 ADD PUSH2 0x3BDE JUMP JUMPDEST SWAP3 POP POP PUSH1 0x20 PUSH2 0x3D28 DUP6 DUP3 DUP7 ADD PUSH2 0x3985 JUMP JUMPDEST SWAP2 POP POP SWAP3 POP SWAP3 SWAP1 POP JUMP JUMPDEST PUSH2 0x3D3B DUP2 PUSH2 0x3966 JUMP JUMPDEST DUP3 MSTORE POP POP JUMP JUMPDEST PUSH0 PUSH1 0x20 DUP3 ADD SWAP1 POP PUSH2 0x3D54 PUSH0 DUP4 ADD DUP5 PUSH2 0x3D32 JUMP JUMPDEST SWAP3 SWAP2 POP POP JUMP JUMPDEST PUSH0 PUSH1 0x20 DUP3 DUP5 SUB SLT ISZERO PUSH2 0x3D6F JUMPI PUSH2 0x3D6E PUSH2 0x395E JUMP JUMPDEST JUMPDEST PUSH0 PUSH2 0x3D7C DUP5 DUP3 DUP6 ADD PUSH2 0x39DA JUMP JUMPDEST SWAP2 POP POP SWAP3 SWAP2 POP POP JUMP JUMPDEST PUSH0 DUP2 ISZERO ISZERO SWAP1 POP SWAP2 SWAP1 POP JUMP JUMPDEST PUSH2 0x3D99 DUP2 PUSH2 0x3D85 JUMP JUMPDEST DUP3 MSTORE POP POP JUMP JUMPDEST PUSH0 DUP2 MLOAD SWAP1 POP SWAP2 SWAP1 POP JUMP JUMPDEST PUSH0 DUP3 DUP3 MSTORE PUSH1 0x20 DUP3 ADD SWAP1 POP SWAP3 SWAP2 POP POP JUMP JUMPDEST PUSH0 JUMPDEST DUP4 DUP2 LT ISZERO PUSH2 0x3DD6 JUMPI DUP1 DUP3 ADD MLOAD DUP2 DUP5 ADD MSTORE PUSH1 0x20 DUP2 ADD SWAP1 POP PUSH2 0x3DBB JUMP JUMPDEST PUSH0 DUP5 DUP5 ADD MSTORE POP POP POP POP JUMP JUMPDEST PUSH0 PUSH1 0x1F NOT PUSH1 0x1F DUP4 ADD AND SWAP1 POP SWAP2 SWAP1 POP JUMP JUMPDEST PUSH0 PUSH2 0x3DFB DUP3 PUSH2 0x3D9F JUMP JUMPDEST PUSH2 0x3E05 DUP2 DUP6 PUSH2 0x3DA9 JUMP JUMPDEST SWAP4 POP PUSH2 0x3E15 DUP2 DUP6 PUSH1 0x20 DUP7 ADD PUSH2 0x3DB9 JUMP JUMPDEST PUSH2 0x3E1E DUP2 PUSH2 0x3DE1 JUMP JUMPDEST DUP5 ADD SWAP2 POP POP SWAP3 SWAP2 POP POP JUMP JUMPDEST PUSH0 PUSH1 0x40 DUP3 ADD SWAP1 POP PUSH2 0x3E3C PUSH0 DUP4 ADD DUP6 PUSH2 0x3D90 JUMP JUMPDEST DUP2 DUP2 SUB PUSH1 0x20 DUP4 ADD MSTORE PUSH2 0x3E4E DUP2 DUP5 PUSH2 0x3DF1 JUMP JUMPDEST SWAP1 POP SWAP4 SWAP3 POP POP POP JUMP JUMPDEST PUSH0 PUSH1 0x20 DUP3 DUP5 SUB SLT ISZERO PUSH2 0x3E6C JUMPI PUSH2 0x3E6B PUSH2 0x395E JUMP JUMPDEST JUMPDEST PUSH0 PUSH2 0x3E79 DUP5 DUP3 DUP6 ADD PUSH2 0x3985 JUMP JUMPDEST SWAP2 POP POP SWAP3 SWAP2 POP POP JUMP JUMPDEST PUSH2 0x3E8B DUP2 PUSH2 0x3D85 JUMP JUMPDEST DUP2 EQ PUSH2 0x3E95 JUMPI PUSH0 DUP1 REVERT JUMPDEST POP JUMP JUMPDEST PUSH0 DUP2 CALLDATALOAD SWAP1 POP PUSH2 0x3EA6 DUP2 PUSH2 0x3E82 JUMP JUMPDEST SWAP3 SWAP2 POP POP JUMP JUMPDEST PUSH0 DUP1 PUSH0 PUSH1 0x60 DUP5 DUP7 SUB SLT ISZERO PUSH2 0x3EC3 JUMPI PUSH2 0x3EC2 PUSH2 0x395E JUMP JUMPDEST JUMPDEST PUSH0 PUSH2 0x3ED0 DUP7 DUP3 DUP8 ADD PUSH2 0x39DA JUMP JUMPDEST SWAP4 POP POP PUSH1 0x20 PUSH2 0x3EE1 DUP7 DUP3 DUP8 ADD PUSH2 0x3E98 JUMP JUMPDEST SWAP3 POP POP PUSH1 0x40 PUSH2 0x3EF2 DUP7 DUP3 DUP8 ADD PUSH2 0x3985 JUMP JUMPDEST SWAP2 POP POP SWAP3 POP SWAP3 POP SWAP3 JUMP JUMPDEST PUSH0 DUP2 MLOAD SWAP1 POP SWAP2 SWAP1 POP JUMP JUMPDEST PUSH0 DUP3 DUP3 MSTORE PUSH1 0x20 DUP3 ADD SWAP1 POP SWAP3 SWAP2 POP POP JUMP JUMPDEST PUSH0 DUP2 SWAP1 POP PUSH1 0x20 DUP3 ADD SWAP1 POP SWAP2 SWAP1 POP JUMP JUMPDEST PUSH2 0x3F2E DUP2 PUSH2 0x3A5D JUMP JUMPDEST DUP3 MSTORE POP POP JUMP JUMPDEST PUSH0 PUSH2 0x3F3F DUP4 DUP4 PUSH2 0x3F25 JUMP JUMPDEST PUSH1 0x20 DUP4 ADD SWAP1 POP SWAP3 SWAP2 POP POP JUMP JUMPDEST PUSH0 PUSH1 0x20 DUP3 ADD SWAP1 POP SWAP2 SWAP1 POP JUMP JUMPDEST PUSH0 PUSH2 0x3F61 DUP3 PUSH2 0x3EFC JUMP JUMPDEST PUSH2 0x3F6B DUP2 DUP6 PUSH2 0x3F06 JUMP JUMPDEST SWAP4 POP PUSH2 0x3F76 DUP4 PUSH2 0x3F16 JUMP JUMPDEST DUP1 PUSH0 JUMPDEST DUP4 DUP2 LT ISZERO PUSH2 0x3FA6 JUMPI DUP2 MLOAD PUSH2 0x3F8D DUP9 DUP3 PUSH2 0x3F34 JUMP JUMPDEST SWAP8 POP PUSH2 0x3F98 DUP4 PUSH2 0x3F4B JUMP JUMPDEST SWAP3 POP POP PUSH1 0x1 DUP2 ADD SWAP1 POP PUSH2 0x3F79 JUMP JUMPDEST POP DUP6 SWAP4 POP POP POP POP SWAP3 SWAP2 POP POP JUMP JUMPDEST PUSH0 PUSH1 0x20 DUP3 ADD SWAP1 POP DUP2 DUP2 SUB PUSH0 DUP4 ADD MSTORE PUSH2 0x3FCB DUP2 DUP5 PUSH2 0x3F57 JUMP JUMPDEST SWAP1 POP SWAP3 SWAP2 POP POP JUMP JUMPDEST PUSH2 0x3FDC DUP2 PUSH2 0x3999 JUMP JUMPDEST DUP3 MSTORE POP POP JUMP JUMPDEST PUSH32 0x4E487B7100000000000000000000000000000000000000000000000000000000 PUSH0 MSTORE PUSH1 0x21 PUSH1 0x4 MSTORE PUSH1 0x24 PUSH0 REVERT JUMPDEST PUSH1 0x5 DUP2 LT PUSH2 0x4020 JUMPI PUSH2 0x401F PUSH2 0x3FE2 JUMP JUMPDEST JUMPDEST POP JUMP JUMPDEST PUSH0 DUP2 SWAP1 POP PUSH2 0x4030 DUP3 PUSH2 0x400F JUMP JUMPDEST SWAP2 SWAP1 POP JUMP JUMPDEST PUSH0 PUSH2 0x403F DUP3 PUSH2 0x4023 JUMP JUMPDEST SWAP1 POP SWAP2 SWAP1 POP JUMP JUMPDEST PUSH2 0x404F DUP2 PUSH2 0x4035 JUMP JUMPDEST DUP3 MSTORE POP POP JUMP JUMPDEST PUSH0 PUSH1 0xE0 DUP3 ADD SWAP1 POP PUSH2 0x4068 PUSH0 DUP4 ADD DUP11 PUSH2 0x3FD3 JUMP JUMPDEST PUSH2 0x4075 PUSH1 0x20 DUP4 ADD DUP10 PUSH2 0x3D32 JUMP JUMPDEST PUSH2 0x4082 PUSH1 0x40 DUP4 ADD DUP9 PUSH2 0x3D32 JUMP JUMPDEST PUSH2 0x408F PUSH1 0x60 DUP4 ADD DUP8 PUSH2 0x3D32 JUMP JUMPDEST PUSH2 0x409C PUSH1 0x80 DUP4 ADD DUP7 PUSH2 0x3A6E JUMP JUMPDEST PUSH2 0x40A9 PUSH1 0xA0 DUP4 ADD DUP6 PUSH2 0x4046 JUMP JUMPDEST PUSH2 0x40B6 PUSH1 0xC0 DUP4 ADD DUP5 PUSH2 0x3D90 JUMP JUMPDEST SWAP9 SWAP8 POP POP POP POP POP POP POP POP JUMP JUMPDEST PUSH0 PUSH1 0x20 DUP3 ADD SWAP1 POP PUSH2 0x40D5 PUSH0 DUP4 ADD DUP5 PUSH2 0x3D90 JUMP JUMPDEST SWAP3 SWAP2 POP POP JUMP JUMPDEST PUSH0 DUP2 MLOAD SWAP1 POP SWAP2 SWAP1 POP JUMP JUMPDEST PUSH0 DUP3 DUP3 MSTORE PUSH1 0x20 DUP3 ADD SWAP1 POP SWAP3 SWAP2 POP POP JUMP JUMPDEST PUSH0 DUP2 SWAP1 POP PUSH1 0x20 DUP3 ADD SWAP1 POP SWAP2 SWAP1 POP JUMP JUMPDEST PUSH2 0x410D DUP2 PUSH2 0x3999 JUMP JUMPDEST DUP3 MSTORE POP POP JUMP JUMPDEST PUSH2 0x411C DUP2 PUSH2 0x4035 JUMP JUMPDEST DUP3 MSTORE POP POP JUMP JUMPDEST PUSH2 0x412B DUP2 PUSH2 0x3D85 JUMP JUMPDEST DUP3 MSTORE POP POP JUMP JUMPDEST PUSH1 0xE0 DUP3 ADD PUSH0 DUP3 ADD MLOAD PUSH2 0x4145 PUSH0 DUP6 ADD DUP3 PUSH2 0x4104 JUMP JUMPDEST POP PUSH1 0x20 DUP3 ADD MLOAD PUSH2 0x4158 PUSH1 0x20 DUP6 ADD DUP3 PUSH2 0x3C46 JUMP JUMPDEST POP PUSH1 0x40 DUP3 ADD MLOAD PUSH2 0x416B PUSH1 0x40 DUP6 ADD DUP3 PUSH2 0x3C46 JUMP JUMPDEST POP PUSH1 0x60 DUP3 ADD MLOAD PUSH2 0x417E PUSH1 0x60 DUP6 ADD DUP3 PUSH2 0x3C46 JUMP JUMPDEST POP PUSH1 0x80 DUP3 ADD MLOAD PUSH2 0x4191 PUSH1 0x80 DUP6 ADD DUP3 PUSH2 0x3F25 JUMP JUMPDEST POP PUSH1 0xA0 DUP3 ADD MLOAD PUSH2 0x41A4 PUSH1 0xA0 DUP6 ADD DUP3 PUSH2 0x4113 JUMP JUMPDEST POP PUSH1 0xC0 DUP3 ADD MLOAD PUSH2 0x41B7 PUSH1 0xC0 DUP6 ADD DUP3 PUSH2 0x4122 JUMP JUMPDEST POP POP POP POP JUMP JUMPDEST PUSH0 PUSH2 0x41C8 DUP4 DUP4 PUSH2 0x4131 JUMP JUMPDEST PUSH1 0xE0 DUP4 ADD SWAP1 POP SWAP3 SWAP2 POP POP JUMP JUMPDEST PUSH0 PUSH1 0x20 DUP3 ADD SWAP1 POP SWAP2 SWAP1 POP JUMP JUMPDEST PUSH0 PUSH2 0x41EA DUP3 PUSH2 0x40DB JUMP JUMPDEST PUSH2 0x41F4 DUP2 DUP6 PUSH2 0x40E5 JUMP JUMPDEST SWAP4 POP PUSH2 0x41FF DUP4 PUSH2 0x40F5 JUMP JUMPDEST DUP1 PUSH0 JUMPDEST DUP4 DUP2 LT ISZERO PUSH2 0x422F JUMPI DUP2 MLOAD PUSH2 0x4216 DUP9 DUP3 PUSH2 0x41BD JUMP JUMPDEST SWAP8 POP PUSH2 0x4221 DUP4 PUSH2 0x41D4 JUMP JUMPDEST SWAP3 POP POP PUSH1 0x1 DUP2 ADD SWAP1 POP PUSH2 0x4202 JUMP JUMPDEST POP DUP6 SWAP4 POP POP POP POP SWAP3 SWAP2 POP POP JUMP JUMPDEST PUSH0 PUSH1 0x20 DUP3 ADD SWAP1 POP DUP2 DUP2 SUB PUSH0 DUP4 ADD MSTORE PUSH2 0x4254 DUP2 DUP5 PUSH2 0x41E0 JUMP JUMPDEST SWAP1 POP SWAP3 SWAP2 POP POP JUMP JUMPDEST PUSH0 DUP1 PUSH1 0x40 DUP4 DUP6 SUB SLT ISZERO PUSH2 0x4272 JUMPI PUSH2 0x4271 PUSH2 0x395E JUMP JUMPDEST JUMPDEST PUSH0 PUSH2 0x427F DUP6 DUP3 DUP7 ADD PUSH2 0x39DA JUMP JUMPDEST SWAP3 POP POP PUSH1 0x20 PUSH2 0x4290 DUP6 DUP3 DUP7 ADD PUSH2 0x3985 JUMP JUMPDEST SWAP2 POP POP SWAP3 POP SWAP3 SWAP1 POP JUMP JUMPDEST PUSH0 DUP1 PUSH1 0x40 DUP4 DUP6 SUB SLT ISZERO PUSH2 0x42B0 JUMPI PUSH2 0x42AF PUSH2 0x395E JUMP JUMPDEST JUMPDEST PUSH0 PUSH2 0x42BD DUP6 DUP3 DUP7 ADD PUSH2 0x3985 JUMP JUMPDEST SWAP3 POP POP PUSH1 0x20 PUSH2 0x42CE DUP6 DUP3 DUP7 ADD PUSH2 0x3985 JUMP JUMPDEST SWAP2 POP POP SWAP3 POP SWAP3 SWAP1 POP JUMP JUMPDEST PUSH0 DUP1 PUSH1 0x40 DUP4 DUP6 SUB SLT ISZERO PUSH2 0x42EE JUMPI PUSH2 0x42ED PUSH2 0x395E JUMP JUMPDEST JUMPDEST PUSH0 PUSH2 0x42FB DUP6 DUP3 DUP7 ADD PUSH2 0x3985 JUMP JUMPDEST SWAP3 POP POP PUSH1 0x20 PUSH2 0x430C DUP6 DUP3 DUP7 ADD PUSH2 0x39DA JUMP JUMPDEST SWAP2 POP POP SWAP3 POP SWAP3 SWAP1 POP JUMP JUMPDEST PUSH0 PUSH1 0x40 DUP3 ADD SWAP1 POP PUSH2 0x4329 PUSH0 DUP4 ADD DUP6 PUSH2 0x3D90 JUMP JUMPDEST PUSH2 0x4336 PUSH1 0x20 DUP4 ADD DUP5 PUSH2 0x3FD3 JUMP JUMPDEST SWAP4 SWAP3 POP POP POP JUMP JUMPDEST PUSH0 DUP1 PUSH1 0x40 DUP4 DUP6 SUB SLT ISZERO PUSH2 0x4353 JUMPI PUSH2 0x4352 PUSH2 0x395E JUMP JUMPDEST JUMPDEST PUSH0 PUSH2 0x4360 DUP6 DUP3 DUP7 ADD PUSH2 0x3985 JUMP JUMPDEST SWAP3 POP POP PUSH1 0x20 PUSH2 0x4371 DUP6 DUP3 DUP7 ADD PUSH2 0x3BDE JUMP JUMPDEST SWAP2 POP POP SWAP3 POP SWAP3 SWAP1 POP JUMP JUMPDEST PUSH1 0xE0 DUP3 ADD PUSH0 DUP3 ADD MLOAD PUSH2 0x438F PUSH0 DUP6 ADD DUP3 PUSH2 0x4104 JUMP JUMPDEST POP PUSH1 0x20 DUP3 ADD MLOAD PUSH2 0x43A2 PUSH1 0x20 DUP6 ADD DUP3 PUSH2 0x3C46 JUMP JUMPDEST POP PUSH1 0x40 DUP3 ADD MLOAD PUSH2 0x43B5 PUSH1 0x40 DUP6 ADD DUP3 PUSH2 0x3C46 JUMP JUMPDEST POP PUSH1 0x60 DUP3 ADD MLOAD PUSH2 0x43C8 PUSH1 0x60 DUP6 ADD DUP3 PUSH2 0x3C46 JUMP JUMPDEST POP PUSH1 0x80 DUP3 ADD MLOAD PUSH2 0x43DB PUSH1 0x80 DUP6 ADD DUP3 PUSH2 0x3F25 JUMP JUMPDEST POP PUSH1 0xA0 DUP3 ADD MLOAD PUSH2 0x43EE PUSH1 0xA0 DUP6 ADD DUP3 PUSH2 0x4113 JUMP JUMPDEST POP PUSH1 0xC0 DUP3 ADD MLOAD PUSH2 0x4401 PUSH1 0xC0 DUP6 ADD DUP3 PUSH2 0x4122 JUMP JUMPDEST POP POP POP POP JUMP JUMPDEST PUSH0 PUSH1 0xE0 DUP3 ADD SWAP1 POP PUSH2 0x441A PUSH0 DUP4 ADD DUP5 PUSH2 0x437B JUMP JUMPDEST SWAP3 SWAP2 POP POP JUMP JUMPDEST PUSH32 0x4E487B7100000000000000000000000000000000000000000000000000000000 PUSH0 MSTORE PUSH1 0x32 PUSH1 0x4 MSTORE PUSH1 0x24 PUSH0 REVERT JUMPDEST PUSH0 PUSH1 0x20 DUP3 ADD SWAP1 POP PUSH2 0x4460 PUSH0 DUP4 ADD DUP5 PUSH2 0x4046 JUMP JUMPDEST SWAP3 SWAP2 POP POP JUMP JUMPDEST PUSH32 0x4E487B7100000000000000000000000000000000000000000000000000000000 PUSH0 MSTORE PUSH1 0x11 PUSH1 0x4 MSTORE PUSH1 0x24 PUSH0 REVERT JUMPDEST PUSH0 PUSH2 0x449D DUP3 PUSH2 0x3966 JUMP JUMPDEST SWAP2 POP PUSH2 0x44A8 DUP4 PUSH2 0x3966 JUMP JUMPDEST SWAP3 POP DUP3 DUP3 SUB SWAP1 POP DUP2 DUP2 GT ISZERO PUSH2 0x44C0 JUMPI PUSH2 0x44BF PUSH2 0x4466 JUMP JUMPDEST JUMPDEST SWAP3 SWAP2 POP POP JUMP JUMPDEST PUSH0 PUSH2 0x44D0 DUP3 PUSH2 0x3966 JUMP JUMPDEST SWAP2 POP PUSH2 0x44DB DUP4 PUSH2 0x3966 JUMP JUMPDEST SWAP3 POP DUP3 DUP3 ADD SWAP1 POP DUP1 DUP3 GT ISZERO PUSH2 0x44F3 JUMPI PUSH2 0x44F2 PUSH2 0x4466 JUMP JUMPDEST JUMPDEST SWAP3 SWAP2 POP POP JUMP JUMPDEST PUSH0 PUSH1 0x40 DUP3 ADD SWAP1 POP PUSH2 0x450C PUSH0 DUP4 ADD DUP6 PUSH2 0x3D32 JUMP JUMPDEST PUSH2 0x4519 PUSH1 0x20 DUP4 ADD DUP5 PUSH2 0x3D32 JUMP JUMPDEST SWAP4 SWAP3 POP POP POP JUMP JUMPDEST PUSH0 DUP2 SWAP1 POP SWAP3 SWAP2 POP POP JUMP JUMPDEST POP JUMP JUMPDEST PUSH0 PUSH2 0x4538 PUSH0 DUP4 PUSH2 0x4520 JUMP JUMPDEST SWAP2 POP PUSH2 0x4543 DUP3 PUSH2 0x452A JUMP JUMPDEST PUSH0 DUP3 ADD SWAP1 POP SWAP2 SWAP1 POP JUMP JUMPDEST PUSH0 PUSH2 0x4557 DUP3 PUSH2 0x452D JUMP JUMPDEST SWAP2 POP DUP2 SWAP1 POP SWAP2 SWAP1 POP JUMP JUMPDEST PUSH32 0x45544820726566756E64206661696C6564000000000000000000000000000000 PUSH0 DUP3 ADD MSTORE POP JUMP JUMPDEST PUSH0 PUSH2 0x4595 PUSH1 0x11 DUP4 PUSH2 0x3DA9 JUMP JUMPDEST SWAP2 POP PUSH2 0x45A0 DUP3 PUSH2 0x4561 JUMP JUMPDEST PUSH1 0x20 DUP3 ADD SWAP1 POP SWAP2 SWAP1 POP JUMP JUMPDEST PUSH0 PUSH1 0x20 DUP3 ADD SWAP1 POP DUP2 DUP2 SUB PUSH0 DUP4 ADD MSTORE PUSH2 0x45C2 DUP2 PUSH2 0x4589 JUMP JUMPDEST SWAP1 POP SWAP2 SWAP1 POP JUMP JUMPDEST PUSH0 PUSH2 0x45D3 DUP3 PUSH2 0x3966 JUMP JUMPDEST SWAP2 POP PUSH2 0x45DE DUP4 PUSH2 0x3966 JUMP JUMPDEST SWAP3 POP DUP3 DUP3 MUL PUSH2 0x45EC DUP2 PUSH2 0x3966 JUMP JUMPDEST SWAP2 POP DUP3 DUP3 DIV DUP5 EQ DUP4 ISZERO OR PUSH2 0x4603 JUMPI PUSH2 0x4602 PUSH2 0x4466 JUMP JUMPDEST JUMPDEST POP SWAP3 SWAP2 POP POP JUMP JUMPDEST PUSH0 PUSH1 0x80 DUP3 ADD SWAP1 POP PUSH2 0x461D PUSH0 DUP4 ADD DUP8 PUSH2 0x3FD3 JUMP JUMPDEST PUSH2 0x462A PUSH1 0x20 DUP4 ADD DUP7 PUSH2 0x3D32 JUMP JUMPDEST PUSH2 0x4637 PUSH1 0x40 DUP4 ADD DUP6 PUSH2 0x3A6E JUMP JUMPDEST PUSH2 0x4644 PUSH1 0x60 DUP4 ADD DUP5 PUSH2 0x3D32 JUMP JUMPDEST SWAP6 SWAP5 POP POP POP POP POP JUMP JUMPDEST PUSH0 PUSH1 0x40 DUP3 ADD SWAP1 POP PUSH2 0x4660 PUSH0 DUP4 ADD DUP6 PUSH2 0x3A6E JUMP JUMPDEST PUSH2 0x466D PUSH1 0x20 DUP4 ADD DUP5 PUSH2 0x3D32 JUMP JUMPDEST SWAP4 SWAP3 POP POP POP JUMP JUMPDEST PUSH0 PUSH1 0x40 DUP3 ADD SWAP1 POP PUSH2 0x4687 PUSH0 DUP4 ADD DUP6 PUSH2 0x3D32 JUMP JUMPDEST PUSH2 0x4694 PUSH1 0x20 DUP4 ADD DUP5 PUSH2 0x3A6E JUMP JUMPDEST SWAP4 SWAP3 POP POP POP JUMP JUMPDEST PUSH32 0x4E487B7100000000000000000000000000000000000000000000000000000000 PUSH0 MSTORE PUSH1 0x41 PUSH1 0x4 MSTORE PUSH1 0x24 PUSH0 REVERT JUMPDEST PUSH0 PUSH1 0x40 DUP3 ADD SWAP1 POP PUSH2 0x46DB PUSH0 DUP4 ADD DUP6 PUSH2 0x3A6E JUMP JUMPDEST PUSH2 0x46E8 PUSH1 0x20 DUP4 ADD DUP5 PUSH2 0x3A6E JUMP JUMPDEST SWAP4 SWAP3 POP POP POP JUMP JUMPDEST PUSH0 DUP2 MLOAD SWAP1 POP PUSH2 0x46FD DUP2 PUSH2 0x396F JUMP JUMPDEST SWAP3 SWAP2 POP POP JUMP JUMPDEST PUSH0 PUSH1 0x20 DUP3 DUP5 SUB SLT ISZERO PUSH2 0x4718 JUMPI PUSH2 0x4717 PUSH2 0x395E JUMP JUMPDEST JUMPDEST PUSH0 PUSH2 0x4725 DUP5 DUP3 DUP6 ADD PUSH2 0x46EF JUMP JUMPDEST SWAP2 POP POP SWAP3 SWAP2 POP POP JUMP JUMPDEST PUSH0 PUSH1 0x60 DUP3 ADD SWAP1 POP PUSH2 0x4741 PUSH0 DUP4 ADD DUP7 PUSH2 0x3FD3 JUMP JUMPDEST PUSH2 0x474E PUSH1 0x20 DUP4 ADD DUP6 PUSH2 0x3FD3 JUMP JUMPDEST PUSH2 0x475B PUSH1 0x40 DUP4 ADD DUP5 PUSH2 0x3D32 JUMP JUMPDEST SWAP5 SWAP4 POP POP POP POP JUMP JUMPDEST PUSH0 PUSH32 0xFF00000000000000000000000000000000000000000000000000000000000000 DUP3 AND SWAP1 POP SWAP2 SWAP1 POP JUMP JUMPDEST PUSH2 0x4797 DUP2 PUSH2 0x4763 JUMP JUMPDEST DUP3 MSTORE POP POP JUMP JUMPDEST PUSH0 PUSH1 0x20 DUP3 ADD SWAP1 POP PUSH2 0x47B0 PUSH0 DUP4 ADD DUP5 PUSH2 0x478E JUMP JUMPDEST SWAP3 SWAP2 POP POP JUMP INVALID BLOBHASH PUSH15 0x76616C696420636861726163746572 GASPRICE KECCAK256 PUSH14 0x75737420626520412D5A206F7220 ADDRESS 0x2D CODECOPY LOG2 PUSH5 0x6970667358 0x22 SLT KECCAK256 DUP4 0x4B 0xD PUSH27 0x63CCD850FC02818508CCEC5ABFA8872B06DE7F5A5BC9DA583086B5 0x4D PUSH5 0x736F6C6343 STOP ADDMOD XOR STOP CALLER "
		},
		"gasEstimates": {
			"creation": {
				"codeDepositCost": "3689800",
				"executionCost": "infinite",
				"totalCost": "infinite"
			},
			"external": {
				"activateRoundEntries(uint256,address[])": "infinite",
				"additionalRoundCost(uint256)": "infinite",
				"claimRefund(uint256)": "infinite",
				"currentRound()": "2536",
				"entries(address,uint256)": "infinite",
				"entryCostETH()": "2470",
				"entryCostTIMBS()": "2515",
				"expireEntry(address,uint256)": "33951",
				"getEntry(address,uint256)": "infinite",
				"getIdenticalCount(bytes6)": "infinite",
				"getPlayerHistory(address)": "infinite",
				"getPlayerRounds(address)": "infinite",
				"getRoundEntrants(uint256)": "infinite",
				"getStringEntrants(uint256,bytes6)": "infinite",
				"hasEntryInRound(uint256,address)": "3204",
				"markInactive(address,uint256)": "36201",
				"owner()": "2560",
				"pause()": "infinite",
				"paused()": "2599",
				"playerRounds(address,uint256)": "infinite",
				"protocolSink()": "2553",
				"renounceOwnership()": "infinite",
				"replaceEntry(bytes6,uint256)": "infinite",
				"roundEntrants(uint256,uint256)": "infinite",
				"setCurrentRound(uint256)": "infinite",
				"setEntryCosts(uint256,uint256)": "infinite",
				"setProtocolSink(address)": "infinite",
				"setTimbPrize(address)": "infinite",
				"stringEntrants(uint256,bytes6,uint256)": "infinite",
				"submitEntry(bytes6,bool,uint256)": "infinite",
				"timbPrize()": "2575",
				"timbsToken()": "infinite",
				"transferOwnership(address)": "infinite",
				"unpause()": "infinite",
				"validateString(bytes6)": "infinite",
				"verifyEntryExisted(address,uint256)": "5574",
				"verifyEntryValid(address,uint256)": "12211"
			},
			"internal": {
				"_validateString(bytes6)": "infinite"
			}
		},
		"methodIdentifiers": {
			"activateRoundEntries(uint256,address[])": "1330cd86",
			"additionalRoundCost(uint256)": "d6b7e9d9",
			"claimRefund(uint256)": "5b7baf64",
			"currentRound()": "8a19c8bc",
			"entries(address,uint256)": "53b65d40",
			"entryCostETH()": "83d5d801",
			"entryCostTIMBS()": "45c952cb",
			"expireEntry(address,uint256)": "47f43ef2",
			"getEntry(address,uint256)": "b8a740e0",
			"getIdenticalCount(bytes6)": "a4ce555d",
			"getPlayerHistory(address)": "8249a69c",
			"getPlayerRounds(address)": "233507b9",
			"getRoundEntrants(uint256)": "454ac84e",
			"getStringEntrants(uint256,bytes6)": "9fd11627",
			"hasEntryInRound(uint256,address)": "b5740c9c",
			"markInactive(address,uint256)": "7a03ce4f",
			"owner()": "8da5cb5b",
			"pause()": "8456cb59",
			"paused()": "5c975abb",
			"playerRounds(address,uint256)": "2768a49f",
			"protocolSink()": "4ce04501",
			"renounceOwnership()": "715018a6",
			"replaceEntry(bytes6,uint256)": "87c3ac08",
			"roundEntrants(uint256,uint256)": "ecdd4f9f",
			"setCurrentRound(uint256)": "3bc91e28",
			"setEntryCosts(uint256,uint256)": "8d88f8d1",
			"setProtocolSink(address)": "74c47393",
			"setTimbPrize(address)": "27b23849",
			"stringEntrants(uint256,bytes6,uint256)": "0bd4c399",
			"submitEntry(bytes6,bool,uint256)": "42610993",
			"timbPrize()": "5364276d",
			"timbsToken()": "0e31648f",
			"transferOwnership(address)": "f2fde38b",
			"unpause()": "3f4ba83a",
			"validateString(bytes6)": "338f0856",
			"verifyEntryExisted(address,uint256)": "a96de4f5",
			"verifyEntryValid(address,uint256)": "c106aee3"
		}
	},
	"abi": [
		{
			"inputs": [
				{
					"internalType": "address",
					"name": "_timbsToken",
					"type": "address"
				},
				{
					"internalType": "address",
					"name": "_protocolSink",
					"type": "address"
				},
				{
					"internalType": "address",
					"name": "_timbPrize",
					"type": "address"
				}
			],
			"stateMutability": "nonpayable",
			"type": "constructor"
		},
		{
			"inputs": [
				{
					"internalType": "uint256",
					"name": "playRound",
					"type": "uint256"
				}
			],
			"name": "ActiveEntryExists",
			"type": "error"
		},
		{
			"inputs": [],
			"name": "AlreadyRefunded",
			"type": "error"
		},
		{
			"inputs": [
				{
					"internalType": "uint256",
					"name": "lastEligibleRound",
					"type": "uint256"
				},
				{
					"internalType": "uint256",
					"name": "currentRound",
					"type": "uint256"
				}
			],
			"name": "ClaimWindowClosed",
			"type": "error"
		},
		{
			"inputs": [],
			"name": "ContractPaused",
			"type": "error"
		},
		{
			"inputs": [
				{
					"internalType": "enum GameRegistry.EntryStatus",
					"name": "status",
					"type": "uint8"
				}
			],
			"name": "EntryNotActive",
			"type": "error"
		},
		{
			"inputs": [
				{
					"internalType": "enum GameRegistry.EntryStatus",
					"name": "status",
					"type": "uint8"
				}
			],
			"name": "EntryNotExpired",
			"type": "error"
		},
		{
			"inputs": [
				{
					"internalType": "uint256",
					"name": "required",
					"type": "uint256"
				},
				{
					"internalType": "uint256",
					"name": "available",
					"type": "uint256"
				}
			],
			"name": "InsufficientAllowance",
			"type": "error"
		},
		{
			"inputs": [
				{
					"internalType": "bytes1",
					"name": "char",
					"type": "bytes1"
				}
			],
			"name": "InvalidCharacter",
			"type": "error"
		},
		{
			"inputs": [
				{
					"internalType": "uint256",
					"name": "length",
					"type": "uint256"
				}
			],
			"name": "InvalidStringLength",
			"type": "error"
		},
		{
			"inputs": [
				{
					"internalType": "address",
					"name": "player",
					"type": "address"
				},
				{
					"internalType": "uint256",
					"name": "round",
					"type": "uint256"
				}
			],
			"name": "NoEntryFound",
			"type": "error"
		},
		{
			"inputs": [],
			"name": "NotTimbPrize",
			"type": "error"
		},
		{
			"inputs": [
				{
					"internalType": "address",
					"name": "owner",
					"type": "address"
				}
			],
			"name": "OwnableInvalidOwner",
			"type": "error"
		},
		{
			"inputs": [
				{
					"internalType": "address",
					"name": "account",
					"type": "address"
				}
			],
			"name": "OwnableUnauthorizedAccount",
			"type": "error"
		},
		{
			"inputs": [],
			"name": "ReentrancyGuardReentrantCall",
			"type": "error"
		},
		{
			"inputs": [
				{
					"internalType": "bytes1",
					"name": "char",
					"type": "bytes1"
				}
			],
			"name": "RepeatingCharacter",
			"type": "error"
		},
		{
			"inputs": [
				{
					"internalType": "address",
					"name": "token",
					"type": "address"
				}
			],
			"name": "SafeERC20FailedOperation",
			"type": "error"
		},
		{
			"inputs": [
				{
					"internalType": "uint256",
					"name": "sent",
					"type": "uint256"
				},
				{
					"internalType": "uint256",
					"name": "required",
					"type": "uint256"
				}
			],
			"name": "WrongEscrowAmount",
			"type": "error"
		},
		{
			"inputs": [],
			"name": "ZeroAddress",
			"type": "error"
		},
		{
			"inputs": [],
			"name": "ZeroAmount",
			"type": "error"
		},
		{
			"anonymous": false,
			"inputs": [
				{
					"indexed": true,
					"internalType": "address",
					"name": "player",
					"type": "address"
				},
				{
					"indexed": false,
					"internalType": "uint256",
					"name": "timbsAmount",
					"type": "uint256"
				}
			],
			"name": "AdditionalRoundSinked",
			"type": "event"
		},
		{
			"anonymous": false,
			"inputs": [
				{
					"indexed": false,
					"internalType": "uint256",
					"name": "round",
					"type": "uint256"
				}
			],
			"name": "CurrentRoundUpdated",
			"type": "event"
		},
		{
			"anonymous": false,
			"inputs": [
				{
					"indexed": false,
					"internalType": "uint256",
					"name": "timbsCost",
					"type": "uint256"
				},
				{
					"indexed": false,
					"internalType": "uint256",
					"name": "ethCost",
					"type": "uint256"
				}
			],
			"name": "EntryCostUpdated",
			"type": "event"
		},
		{
			"anonymous": false,
			"inputs": [
				{
					"indexed": true,
					"internalType": "address",
					"name": "player",
					"type": "address"
				},
				{
					"indexed": true,
					"internalType": "uint256",
					"name": "playRound",
					"type": "uint256"
				},
				{
					"indexed": false,
					"internalType": "bytes6",
					"name": "oldString",
					"type": "bytes6"
				},
				{
					"indexed": false,
					"internalType": "bytes6",
					"name": "newString",
					"type": "bytes6"
				},
				{
					"indexed": false,
					"internalType": "uint256",
					"name": "additionalTimbs",
					"type": "uint256"
				}
			],
			"name": "EntryReplaced",
			"type": "event"
		},
		{
			"anonymous": false,
			"inputs": [
				{
					"indexed": true,
					"internalType": "address",
					"name": "player",
					"type": "address"
				},
				{
					"indexed": true,
					"internalType": "uint256",
					"name": "round",
					"type": "uint256"
				},
				{
					"indexed": false,
					"internalType": "enum GameRegistry.EntryStatus",
					"name": "newStatus",
					"type": "uint8"
				}
			],
			"name": "EntryStatusUpdated",
			"type": "event"
		},
		{
			"anonymous": false,
			"inputs": [
				{
					"indexed": true,
					"internalType": "address",
					"name": "player",
					"type": "address"
				},
				{
					"indexed": true,
					"internalType": "uint256",
					"name": "playRound",
					"type": "uint256"
				},
				{
					"indexed": false,
					"internalType": "bytes6",
					"name": "string6",
					"type": "bytes6"
				},
				{
					"indexed": false,
					"internalType": "uint256",
					"name": "escrowAmount",
					"type": "uint256"
				},
				{
					"indexed": false,
					"internalType": "address",
					"name": "escrowToken",
					"type": "address"
				},
				{
					"indexed": false,
					"internalType": "uint256",
					"name": "lastEligibleRound",
					"type": "uint256"
				}
			],
			"name": "EntrySubmitted",
			"type": "event"
		},
		{
			"anonymous": false,
			"inputs": [
				{
					"indexed": true,
					"internalType": "address",
					"name": "player",
					"type": "address"
				},
				{
					"indexed": true,
					"internalType": "uint256",
					"name": "round",
					"type": "uint256"
				},
				{
					"indexed": false,
					"internalType": "uint256",
					"name": "amount",
					"type": "uint256"
				},
				{
					"indexed": false,
					"internalType": "address",
					"name": "token",
					"type": "address"
				}
			],
			"name": "EscrowRefunded",
			"type": "event"
		},
		{
			"anonymous": false,
			"inputs": [
				{
					"indexed": true,
					"internalType": "address",
					"name": "previousOwner",
					"type": "address"
				},
				{
					"indexed": true,
					"internalType": "address",
					"name": "newOwner",
					"type": "address"
				}
			],
			"name": "OwnershipTransferred",
			"type": "event"
		},
		{
			"anonymous": false,
			"inputs": [
				{
					"indexed": true,
					"internalType": "address",
					"name": "by",
					"type": "address"
				}
			],
			"name": "Paused",
			"type": "event"
		},
		{
			"anonymous": false,
			"inputs": [
				{
					"indexed": true,
					"internalType": "address",
					"name": "sink",
					"type": "address"
				}
			],
			"name": "ProtocolSinkSet",
			"type": "event"
		},
		{
			"anonymous": false,
			"inputs": [
				{
					"indexed": true,
					"internalType": "address",
					"name": "timbPrize",
					"type": "address"
				}
			],
			"name": "TimbPrizeSet",
			"type": "event"
		},
		{
			"anonymous": false,
			"inputs": [
				{
					"indexed": true,
					"internalType": "address",
					"name": "by",
					"type": "address"
				}
			],
			"name": "Unpaused",
			"type": "event"
		},
		{
			"inputs": [
				{
					"internalType": "uint256",
					"name": "round",
					"type": "uint256"
				},
				{
					"internalType": "address[]",
					"name": "players",
					"type": "address[]"
				}
			],
			"name": "activateRoundEntries",
			"outputs": [],
			"stateMutability": "nonpayable",
			"type": "function"
		},
		{
			"inputs": [
				{
					"internalType": "uint256",
					"name": "extraRounds",
					"type": "uint256"
				}
			],
			"name": "additionalRoundCost",
			"outputs": [
				{
					"internalType": "uint256",
					"name": "",
					"type": "uint256"
				}
			],
			"stateMutability": "view",
			"type": "function"
		},
		{
			"inputs": [
				{
					"internalType": "uint256",
					"name": "round",
					"type": "uint256"
				}
			],
			"name": "claimRefund",
			"outputs": [],
			"stateMutability": "nonpayable",
			"type": "function"
		},
		{
			"inputs": [],
			"name": "currentRound",
			"outputs": [
				{
					"internalType": "uint256",
					"name": "",
					"type": "uint256"
				}
			],
			"stateMutability": "view",
			"type": "function"
		},
		{
			"inputs": [
				{
					"internalType": "address",
					"name": "",
					"type": "address"
				},
				{
					"internalType": "uint256",
					"name": "",
					"type": "uint256"
				}
			],
			"name": "entries",
			"outputs": [
				{
					"internalType": "bytes6",
					"name": "string6",
					"type": "bytes6"
				},
				{
					"internalType": "uint256",
					"name": "entryRound",
					"type": "uint256"
				},
				{
					"internalType": "uint256",
					"name": "lastEligibleRound",
					"type": "uint256"
				},
				{
					"internalType": "uint256",
					"name": "escrowAmount",
					"type": "uint256"
				},
				{
					"internalType": "address",
					"name": "escrowToken",
					"type": "address"
				},
				{
					"internalType": "enum GameRegistry.EntryStatus",
					"name": "status",
					"type": "uint8"
				},
				{
					"internalType": "bool",
					"name": "exists",
					"type": "bool"
				}
			],
			"stateMutability": "view",
			"type": "function"
		},
		{
			"inputs": [],
			"name": "entryCostETH",
			"outputs": [
				{
					"internalType": "uint256",
					"name": "",
					"type": "uint256"
				}
			],
			"stateMutability": "view",
			"type": "function"
		},
		{
			"inputs": [],
			"name": "entryCostTIMBS",
			"outputs": [
				{
					"internalType": "uint256",
					"name": "",
					"type": "uint256"
				}
			],
			"stateMutability": "view",
			"type": "function"
		},
		{
			"inputs": [
				{
					"internalType": "address",
					"name": "player",
					"type": "address"
				},
				{
					"internalType": "uint256",
					"name": "round",
					"type": "uint256"
				}
			],
			"name": "expireEntry",
			"outputs": [],
			"stateMutability": "nonpayable",
			"type": "function"
		},
		{
			"inputs": [
				{
					"internalType": "address",
					"name": "player",
					"type": "address"
				},
				{
					"internalType": "uint256",
					"name": "round",
					"type": "uint256"
				}
			],
			"name": "getEntry",
			"outputs": [
				{
					"components": [
						{
							"internalType": "bytes6",
							"name": "string6",
							"type": "bytes6"
						},
						{
							"internalType": "uint256",
							"name": "entryRound",
							"type": "uint256"
						},
						{
							"internalType": "uint256",
							"name": "lastEligibleRound",
							"type": "uint256"
						},
						{
							"internalType": "uint256",
							"name": "escrowAmount",
							"type": "uint256"
						},
						{
							"internalType": "address",
							"name": "escrowToken",
							"type": "address"
						},
						{
							"internalType": "enum GameRegistry.EntryStatus",
							"name": "status",
							"type": "uint8"
						},
						{
							"internalType": "bool",
							"name": "exists",
							"type": "bool"
						}
					],
					"internalType": "struct GameRegistry.EntryData",
					"name": "",
					"type": "tuple"
				}
			],
			"stateMutability": "view",
			"type": "function"
		},
		{
			"inputs": [
				{
					"internalType": "bytes6",
					"name": "string6",
					"type": "bytes6"
				}
			],
			"name": "getIdenticalCount",
			"outputs": [
				{
					"internalType": "uint256",
					"name": "",
					"type": "uint256"
				}
			],
			"stateMutability": "view",
			"type": "function"
		},
		{
			"inputs": [
				{
					"internalType": "address",
					"name": "player",
					"type": "address"
				}
			],
			"name": "getPlayerHistory",
			"outputs": [
				{
					"components": [
						{
							"internalType": "bytes6",
							"name": "string6",
							"type": "bytes6"
						},
						{
							"internalType": "uint256",
							"name": "entryRound",
							"type": "uint256"
						},
						{
							"internalType": "uint256",
							"name": "lastEligibleRound",
							"type": "uint256"
						},
						{
							"internalType": "uint256",
							"name": "escrowAmount",
							"type": "uint256"
						},
						{
							"internalType": "address",
							"name": "escrowToken",
							"type": "address"
						},
						{
							"internalType": "enum GameRegistry.EntryStatus",
							"name": "status",
							"type": "uint8"
						},
						{
							"internalType": "bool",
							"name": "exists",
							"type": "bool"
						}
					],
					"internalType": "struct GameRegistry.EntryData[]",
					"name": "history",
					"type": "tuple[]"
				}
			],
			"stateMutability": "view",
			"type": "function"
		},
		{
			"inputs": [
				{
					"internalType": "address",
					"name": "player",
					"type": "address"
				}
			],
			"name": "getPlayerRounds",
			"outputs": [
				{
					"internalType": "uint256[]",
					"name": "",
					"type": "uint256[]"
				}
			],
			"stateMutability": "view",
			"type": "function"
		},
		{
			"inputs": [
				{
					"internalType": "uint256",
					"name": "round",
					"type": "uint256"
				}
			],
			"name": "getRoundEntrants",
			"outputs": [
				{
					"internalType": "address[]",
					"name": "",
					"type": "address[]"
				}
			],
			"stateMutability": "view",
			"type": "function"
		},
		{
			"inputs": [
				{
					"internalType": "uint256",
					"name": "round",
					"type": "uint256"
				},
				{
					"internalType": "bytes6",
					"name": "string6",
					"type": "bytes6"
				}
			],
			"name": "getStringEntrants",
			"outputs": [
				{
					"internalType": "address[]",
					"name": "",
					"type": "address[]"
				}
			],
			"stateMutability": "view",
			"type": "function"
		},
		{
			"inputs": [
				{
					"internalType": "uint256",
					"name": "",
					"type": "uint256"
				},
				{
					"internalType": "address",
					"name": "",
					"type": "address"
				}
			],
			"name": "hasEntryInRound",
			"outputs": [
				{
					"internalType": "bool",
					"name": "",
					"type": "bool"
				}
			],
			"stateMutability": "view",
			"type": "function"
		},
		{
			"inputs": [
				{
					"internalType": "address",
					"name": "player",
					"type": "address"
				},
				{
					"internalType": "uint256",
					"name": "round",
					"type": "uint256"
				}
			],
			"name": "markInactive",
			"outputs": [],
			"stateMutability": "nonpayable",
			"type": "function"
		},
		{
			"inputs": [],
			"name": "owner",
			"outputs": [
				{
					"internalType": "address",
					"name": "",
					"type": "address"
				}
			],
			"stateMutability": "view",
			"type": "function"
		},
		{
			"inputs": [],
			"name": "pause",
			"outputs": [],
			"stateMutability": "nonpayable",
			"type": "function"
		},
		{
			"inputs": [],
			"name": "paused",
			"outputs": [
				{
					"internalType": "bool",
					"name": "",
					"type": "bool"
				}
			],
			"stateMutability": "view",
			"type": "function"
		},
		{
			"inputs": [
				{
					"internalType": "address",
					"name": "",
					"type": "address"
				},
				{
					"internalType": "uint256",
					"name": "",
					"type": "uint256"
				}
			],
			"name": "playerRounds",
			"outputs": [
				{
					"internalType": "uint256",
					"name": "",
					"type": "uint256"
				}
			],
			"stateMutability": "view",
			"type": "function"
		},
		{
			"inputs": [],
			"name": "protocolSink",
			"outputs": [
				{
					"internalType": "address",
					"name": "",
					"type": "address"
				}
			],
			"stateMutability": "view",
			"type": "function"
		},
		{
			"inputs": [],
			"name": "renounceOwnership",
			"outputs": [],
			"stateMutability": "nonpayable",
			"type": "function"
		},
		{
			"inputs": [
				{
					"internalType": "bytes6",
					"name": "newString6",
					"type": "bytes6"
				},
				{
					"internalType": "uint256",
					"name": "extraRounds",
					"type": "uint256"
				}
			],
			"name": "replaceEntry",
			"outputs": [],
			"stateMutability": "payable",
			"type": "function"
		},
		{
			"inputs": [
				{
					"internalType": "uint256",
					"name": "",
					"type": "uint256"
				},
				{
					"internalType": "uint256",
					"name": "",
					"type": "uint256"
				}
			],
			"name": "roundEntrants",
			"outputs": [
				{
					"internalType": "address",
					"name": "",
					"type": "address"
				}
			],
			"stateMutability": "view",
			"type": "function"
		},
		{
			"inputs": [
				{
					"internalType": "uint256",
					"name": "round",
					"type": "uint256"
				}
			],
			"name": "setCurrentRound",
			"outputs": [],
			"stateMutability": "nonpayable",
			"type": "function"
		},
		{
			"inputs": [
				{
					"internalType": "uint256",
					"name": "_timbsCost",
					"type": "uint256"
				},
				{
					"internalType": "uint256",
					"name": "_ethCost",
					"type": "uint256"
				}
			],
			"name": "setEntryCosts",
			"outputs": [],
			"stateMutability": "nonpayable",
			"type": "function"
		},
		{
			"inputs": [
				{
					"internalType": "address",
					"name": "_sink",
					"type": "address"
				}
			],
			"name": "setProtocolSink",
			"outputs": [],
			"stateMutability": "nonpayable",
			"type": "function"
		},
		{
			"inputs": [
				{
					"internalType": "address",
					"name": "_timbPrize",
					"type": "address"
				}
			],
			"name": "setTimbPrize",
			"outputs": [],
			"stateMutability": "nonpayable",
			"type": "function"
		},
		{
			"inputs": [
				{
					"internalType": "uint256",
					"name": "",
					"type": "uint256"
				},
				{
					"internalType": "bytes6",
					"name": "",
					"type": "bytes6"
				},
				{
					"internalType": "uint256",
					"name": "",
					"type": "uint256"
				}
			],
			"name": "stringEntrants",
			"outputs": [
				{
					"internalType": "address",
					"name": "",
					"type": "address"
				}
			],
			"stateMutability": "view",
			"type": "function"
		},
		{
			"inputs": [
				{
					"internalType": "bytes6",
					"name": "string6",
					"type": "bytes6"
				},
				{
					"internalType": "bool",
					"name": "useETH",
					"type": "bool"
				},
				{
					"internalType": "uint256",
					"name": "extraRounds",
					"type": "uint256"
				}
			],
			"name": "submitEntry",
			"outputs": [],
			"stateMutability": "payable",
			"type": "function"
		},
		{
			"inputs": [],
			"name": "timbPrize",
			"outputs": [
				{
					"internalType": "address",
					"name": "",
					"type": "address"
				}
			],
			"stateMutability": "view",
			"type": "function"
		},
		{
			"inputs": [],
			"name": "timbsToken",
			"outputs": [
				{
					"internalType": "contract IERC20",
					"name": "",
					"type": "address"
				}
			],
			"stateMutability": "view",
			"type": "function"
		},
		{
			"inputs": [
				{
					"internalType": "address",
					"name": "newOwner",
					"type": "address"
				}
			],
			"name": "transferOwnership",
			"outputs": [],
			"stateMutability": "nonpayable",
			"type": "function"
		},
		{
			"inputs": [],
			"name": "unpause",
			"outputs": [],
			"stateMutability": "nonpayable",
			"type": "function"
		},
		{
			"inputs": [
				{
					"internalType": "bytes6",
					"name": "s",
					"type": "bytes6"
				}
			],
			"name": "validateString",
			"outputs": [
				{
					"internalType": "bool",
					"name": "valid",
					"type": "bool"
				},
				{
					"internalType": "string",
					"name": "reason",
					"type": "string"
				}
			],
			"stateMutability": "pure",
			"type": "function"
		},
		{
			"inputs": [
				{
					"internalType": "address",
					"name": "player",
					"type": "address"
				},
				{
					"internalType": "uint256",
					"name": "round",
					"type": "uint256"
				}
			],
			"name": "verifyEntryExisted",
			"outputs": [
				{
					"internalType": "bool",
					"name": "exists",
					"type": "bool"
				},
				{
					"internalType": "bytes6",
					"name": "string6",
					"type": "bytes6"
				}
			],
			"stateMutability": "view",
			"type": "function"
		},
		{
			"inputs": [
				{
					"internalType": "address",
					"name": "player",
					"type": "address"
				},
				{
					"internalType": "uint256",
					"name": "round",
					"type": "uint256"
				}
			],
			"name": "verifyEntryValid",
			"outputs": [
				{
					"internalType": "bool",
					"name": "valid",
					"type": "bool"
				},
				{
					"internalType": "bytes6",
					"name": "string6",
					"type": "bytes6"
				}
			],
			"stateMutability": "view",
			"type": "function"
		},
		{
			"stateMutability": "payable",
			"type": "receive"
		}
	]
}