{
	"data": {
		"bytecode": {
			"linkReferences": {},
			"object": "608060405234801561000f575f80fd5b50335f73ffffffffffffffffffffffffffffffffffffffff168173ffffffffffffffffffffffffffffffffffffffff1603610081575f6040517f1e4fbdf700000000000000000000000000000000000000000000000000000000815260040161007891906101ec565b60405180910390fd5b610090816100ba60201b60201c565b5060016100af6100a461017b60201b60201c565b6101a460201b60201c565b5f0181905550610205565b5f805f9054906101000a900473ffffffffffffffffffffffffffffffffffffffff169050815f806101000a81548173ffffffffffffffffffffffffffffffffffffffff021916908373ffffffffffffffffffffffffffffffffffffffff1602179055508173ffffffffffffffffffffffffffffffffffffffff168173ffffffffffffffffffffffffffffffffffffffff167f8be0079c531659141344cd1fd0a4f28419497f9722a3daafe3b4186f6b6457e060405160405180910390a35050565b5f7f9b779b17422d0df92223018b32b4d1fa46e071723d6817e2486d003becc55f005f1b905090565b5f819050919050565b5f73ffffffffffffffffffffffffffffffffffffffff82169050919050565b5f6101d6826101ad565b9050919050565b6101e6816101cc565b82525050565b5f6020820190506101ff5f8301846101dd565b92915050565b610d3f806102125f395ff3fe608060405260043610610089575f3560e01c80638da5cb5b116100585780638da5cb5b1461017b57806395ccea67146101a5578063b69ef8a8146101cd578063d0e30db0146101f7578063f2fde38b14610201576100e7565b806327b23849146100eb5780635364276d146101135780635f0653461461013d578063715018a614610165576100e7565b366100e7575f3411156100e5573373ffffffffffffffffffffffffffffffffffffffff167f2da466a7b24304f47e87fa2e1e5a81b9831ce54fec19055ce277ca2f39ba42c4346040516100dc9190610b1f565b60405180910390a25b005b5f80fd5b3480156100f6575f80fd5b50610111600480360381019061010c9190610b96565b610229565b005b34801561011e575f80fd5b5061012761031c565b6040516101349190610bd0565b60405180910390f35b348015610148575f80fd5b50610163600480360381019061015e9190610c13565b610341565b005b348015610170575f80fd5b506101796105b0565b005b348015610186575f80fd5b5061018f6105c3565b60405161019c9190610bd0565b60405180910390f35b3480156101b0575f80fd5b506101cb60048036038101906101c69190610c63565b6105ea565b005b3480156101d8575f80fd5b506101e16107d9565b6040516101ee9190610b1f565b60405180910390f35b6101ff6107e0565b005b34801561020c575f80fd5b5061022760048036038101906102229190610b96565b610869565b005b6102316108ed565b5f73ffffffffffffffffffffffffffffffffffffffff168173ffffffffffffffffffffffffffffffffffffffff1603610296576040517fd92e233d00000000000000000000000000000000000000000000000000000000815260040160405180910390fd5b8060015f6101000a81548173ffffffffffffffffffffffffffffffffffffffff021916908373ffffffffffffffffffffffffffffffffffffffff1602179055508073ffffffffffffffffffffffffffffffffffffffff167f89386b8711bad3ec737a1746dbcc52de03de68add300345f9acb944c28ae03f360405160405180910390a250565b60015f9054906101000a900473ffffffffffffffffffffffffffffffffffffffff1681565b610349610974565b60015f9054906101000a900473ffffffffffffffffffffffffffffffffffffffff1673ffffffffffffffffffffffffffffffffffffffff163373ffffffffffffffffffffffffffffffffffffffff16146103cf576040517f3e94dce900000000000000000000000000000000000000000000000000000000815260040160405180910390fd5b5f73ffffffffffffffffffffffffffffffffffffffff168373ffffffffffffffffffffffffffffffffffffffff1603610434576040517fd92e233d00000000000000000000000000000000000000000000000000000000815260040160405180910390fd5b5f820361046d576040517f1f2a200500000000000000000000000000000000000000000000000000000000815260040160405180910390fd5b478211156104b45781476040517fcf4791810000000000000000000000000000000000000000000000000000000081526004016104ab929190610ca1565b60405180910390fd5b5f8373ffffffffffffffffffffffffffffffffffffffff16836040516104d990610cf5565b5f6040518083038185875af1925050503d805f8114610513576040519150601f19603f3d011682016040523d82523d5f602084013e610518565b606091505b5050905080610553576040517f90b8ec1800000000000000000000000000000000000000000000000000000000815260040160405180910390fd5b818473ffffffffffffffffffffffffffffffffffffffff167f88f3705f0c4d3c5b1a1d29fe4fd3f87e889a5a0ce0a1e37989766b3248603fe98560405161059a9190610b1f565b60405180910390a3506105ab610996565b505050565b6105b86108ed565b6105c15f6109b0565b565b5f805f9054906101000a900473ffffffffffffffffffffffffffffffffffffffff16905090565b6105f2610974565b6105fa6108ed565b5f73ffffffffffffffffffffffffffffffffffffffff168273ffffffffffffffffffffffffffffffffffffffff160361065f576040517fd92e233d00000000000000000000000000000000000000000000000000000000815260040160405180910390fd5b5f8103610698576040517f1f2a200500000000000000000000000000000000000000000000000000000000815260040160405180910390fd5b478111156106df5780476040517fcf4791810000000000000000000000000000000000000000000000000000000081526004016106d6929190610ca1565b60405180910390fd5b5f8273ffffffffffffffffffffffffffffffffffffffff168260405161070490610cf5565b5f6040518083038185875af1925050503d805f811461073e576040519150601f19603f3d011682016040523d82523d5f602084013e610743565b606091505b505090508061077e576040517f90b8ec1800000000000000000000000000000000000000000000000000000000815260040160405180910390fd5b8273ffffffffffffffffffffffffffffffffffffffff167f2e39961a70a10f4d46383948095ac2752b3ee642a7c76aa827410aaff08c2e51836040516107c49190610b1f565b60405180910390a2506107d5610996565b5050565b5f47905090565b5f3403610819576040517f1f2a200500000000000000000000000000000000000000000000000000000000815260040160405180910390fd5b3373ffffffffffffffffffffffffffffffffffffffff167f2da466a7b24304f47e87fa2e1e5a81b9831ce54fec19055ce277ca2f39ba42c43460405161085f9190610b1f565b60405180910390a2565b6108716108ed565b5f73ffffffffffffffffffffffffffffffffffffffff168173ffffffffffffffffffffffffffffffffffffffff16036108e1575f6040517f1e4fbdf70000000000000000000000000000000000000000000000000000000081526004016108d89190610bd0565b60405180910390fd5b6108ea816109b0565b50565b6108f5610a71565b73ffffffffffffffffffffffffffffffffffffffff166109136105c3565b73ffffffffffffffffffffffffffffffffffffffff161461097257610936610a71565b6040517f118cdaa70000000000000000000000000000000000000000000000000000000081526004016109699190610bd0565b60405180910390fd5b565b61097c610a78565b600261098e610989610ab9565b610ae2565b5f0181905550565b60016109a86109a3610ab9565b610ae2565b5f0181905550565b5f805f9054906101000a900473ffffffffffffffffffffffffffffffffffffffff169050815f806101000a81548173ffffffffffffffffffffffffffffffffffffffff021916908373ffffffffffffffffffffffffffffffffffffffff1602179055508173ffffffffffffffffffffffffffffffffffffffff168173ffffffffffffffffffffffffffffffffffffffff167f8be0079c531659141344cd1fd0a4f28419497f9722a3daafe3b4186f6b6457e060405160405180910390a35050565b5f33905090565b610a80610aeb565b15610ab7576040517f3ee5aeb500000000000000000000000000000000000000000000000000000000815260040160405180910390fd5b565b5f7f9b779b17422d0df92223018b32b4d1fa46e071723d6817e2486d003becc55f005f1b905090565b5f819050919050565b5f6002610afe610af9610ab9565b610ae2565b5f015414905090565b5f819050919050565b610b1981610b07565b82525050565b5f602082019050610b325f830184610b10565b92915050565b5f80fd5b5f73ffffffffffffffffffffffffffffffffffffffff82169050919050565b5f610b6582610b3c565b9050919050565b610b7581610b5b565b8114610b7f575f80fd5b50565b5f81359050610b9081610b6c565b92915050565b5f60208284031215610bab57610baa610b38565b5b5f610bb884828501610b82565b91505092915050565b610bca81610b5b565b82525050565b5f602082019050610be35f830184610bc1565b92915050565b610bf281610b07565b8114610bfc575f80fd5b50565b5f81359050610c0d81610be9565b92915050565b5f805f60608486031215610c2a57610c29610b38565b5b5f610c3786828701610b82565b9350506020610c4886828701610bff565b9250506040610c5986828701610bff565b9150509250925092565b5f8060408385031215610c7957610c78610b38565b5b5f610c8685828601610b82565b9250506020610c9785828601610bff565b9150509250929050565b5f604082019050610cb45f830185610b10565b610cc16020830184610b10565b9392505050565b5f81905092915050565b50565b5f610ce05f83610cc8565b9150610ceb82610cd2565b5f82019050919050565b5f610cff82610cd5565b915081905091905056fea26469706673582212203add8c258fe823f1835ab3c981a6697c9ee4ce5447fa43ba51517165dd5f1bc864736f6c63430008180033",
			"opcodes": "PUSH1 0x80 PUSH1 0x40 MSTORE CALLVALUE DUP1 ISZERO PUSH2 0xF JUMPI PUSH0 DUP1 REVERT JUMPDEST POP CALLER PUSH0 PUSH20 0xFFFFFFFFFFFFFFFFFFFFFFFFFFFFFFFFFFFFFFFF AND DUP2 PUSH20 0xFFFFFFFFFFFFFFFFFFFFFFFFFFFFFFFFFFFFFFFF AND SUB PUSH2 0x81 JUMPI PUSH0 PUSH1 0x40 MLOAD PUSH32 0x1E4FBDF700000000000000000000000000000000000000000000000000000000 DUP2 MSTORE PUSH1 0x4 ADD PUSH2 0x78 SWAP2 SWAP1 PUSH2 0x1EC JUMP JUMPDEST PUSH1 0x40 MLOAD DUP1 SWAP2 SUB SWAP1 REVERT JUMPDEST PUSH2 0x90 DUP2 PUSH2 0xBA PUSH1 0x20 SHL PUSH1 0x20 SHR JUMP JUMPDEST POP PUSH1 0x1 PUSH2 0xAF PUSH2 0xA4 PUSH2 0x17B PUSH1 0x20 SHL PUSH1 0x20 SHR JUMP JUMPDEST PUSH2 0x1A4 PUSH1 0x20 SHL PUSH1 0x20 SHR JUMP JUMPDEST PUSH0 ADD DUP2 SWAP1 SSTORE POP PUSH2 0x205 JUMP JUMPDEST PUSH0 DUP1 PUSH0 SWAP1 SLOAD SWAP1 PUSH2 0x100 EXP SWAP1 DIV PUSH20 0xFFFFFFFFFFFFFFFFFFFFFFFFFFFFFFFFFFFFFFFF AND SWAP1 POP DUP2 PUSH0 DUP1 PUSH2 0x100 EXP DUP2 SLOAD DUP2 PUSH20 0xFFFFFFFFFFFFFFFFFFFFFFFFFFFFFFFFFFFFFFFF MUL NOT AND SWAP1 DUP4 PUSH20 0xFFFFFFFFFFFFFFFFFFFFFFFFFFFFFFFFFFFFFFFF AND MUL OR SWAP1 SSTORE POP DUP2 PUSH20 0xFFFFFFFFFFFFFFFFFFFFFFFFFFFFFFFFFFFFFFFF AND DUP2 PUSH20 0xFFFFFFFFFFFFFFFFFFFFFFFFFFFFFFFFFFFFFFFF AND PUSH32 0x8BE0079C531659141344CD1FD0A4F28419497F9722A3DAAFE3B4186F6B6457E0 PUSH1 0x40 MLOAD PUSH1 0x40 MLOAD DUP1 SWAP2 SUB SWAP1 LOG3 POP POP JUMP JUMPDEST PUSH0 PUSH32 0x9B779B17422D0DF92223018B32B4D1FA46E071723D6817E2486D003BECC55F00 PUSH0 SHL SWAP1 POP SWAP1 JUMP JUMPDEST PUSH0 DUP2 SWAP1 POP SWAP2 SWAP1 POP JUMP JUMPDEST PUSH0 PUSH20 0xFFFFFFFFFFFFFFFFFFFFFFFFFFFFFFFFFFFFFFFF DUP3 AND SWAP1 POP SWAP2 SWAP1 POP JUMP JUMPDEST PUSH0 PUSH2 0x1D6 DUP3 PUSH2 0x1AD JUMP JUMPDEST SWAP1 POP SWAP2 SWAP1 POP JUMP JUMPDEST PUSH2 0x1E6 DUP2 PUSH2 0x1CC JUMP JUMPDEST DUP3 MSTORE POP POP JUMP JUMPDEST PUSH0 PUSH1 0x20 DUP3 ADD SWAP1 POP PUSH2 0x1FF PUSH0 DUP4 ADD DUP5 PUSH2 0x1DD JUMP JUMPDEST SWAP3 SWAP2 POP POP JUMP JUMPDEST PUSH2 0xD3F DUP1 PUSH2 0x212 PUSH0 CODECOPY PUSH0 RETURN INVALID PUSH1 0x80 PUSH1 0x40 MSTORE PUSH1 0x4 CALLDATASIZE LT PUSH2 0x89 JUMPI PUSH0 CALLDATALOAD PUSH1 0xE0 SHR DUP1 PUSH4 0x8DA5CB5B GT PUSH2 0x58 JUMPI DUP1 PUSH4 0x8DA5CB5B EQ PUSH2 0x17B JUMPI DUP1 PUSH4 0x95CCEA67 EQ PUSH2 0x1A5 JUMPI DUP1 PUSH4 0xB69EF8A8 EQ PUSH2 0x1CD JUMPI DUP1 PUSH4 0xD0E30DB0 EQ PUSH2 0x1F7 JUMPI DUP1 PUSH4 0xF2FDE38B EQ PUSH2 0x201 JUMPI PUSH2 0xE7 JUMP JUMPDEST DUP1 PUSH4 0x27B23849 EQ PUSH2 0xEB JUMPI DUP1 PUSH4 0x5364276D EQ PUSH2 0x113 JUMPI DUP1 PUSH4 0x5F065346 EQ PUSH2 0x13D JUMPI DUP1 PUSH4 0x715018A6 EQ PUSH2 0x165 JUMPI PUSH2 0xE7 JUMP JUMPDEST CALLDATASIZE PUSH2 0xE7 JUMPI PUSH0 CALLVALUE GT ISZERO PUSH2 0xE5 JUMPI CALLER PUSH20 0xFFFFFFFFFFFFFFFFFFFFFFFFFFFFFFFFFFFFFFFF AND PUSH32 0x2DA466A7B24304F47E87FA2E1E5A81B9831CE54FEC19055CE277CA2F39BA42C4 CALLVALUE PUSH1 0x40 MLOAD PUSH2 0xDC SWAP2 SWAP1 PUSH2 0xB1F JUMP JUMPDEST PUSH1 0x40 MLOAD DUP1 SWAP2 SUB SWAP1 LOG2 JUMPDEST STOP JUMPDEST PUSH0 DUP1 REVERT JUMPDEST CALLVALUE DUP1 ISZERO PUSH2 0xF6 JUMPI PUSH0 DUP1 REVERT JUMPDEST POP PUSH2 0x111 PUSH1 0x4 DUP1 CALLDATASIZE SUB DUP2 ADD SWAP1 PUSH2 0x10C SWAP2 SWAP1 PUSH2 0xB96 JUMP JUMPDEST PUSH2 0x229 JUMP JUMPDEST STOP JUMPDEST CALLVALUE DUP1 ISZERO PUSH2 0x11E JUMPI PUSH0 DUP1 REVERT JUMPDEST POP PUSH2 0x127 PUSH2 0x31C JUMP JUMPDEST PUSH1 0x40 MLOAD PUSH2 0x134 SWAP2 SWAP1 PUSH2 0xBD0 JUMP JUMPDEST PUSH1 0x40 MLOAD DUP1 SWAP2 SUB SWAP1 RETURN JUMPDEST CALLVALUE DUP1 ISZERO PUSH2 0x148 JUMPI PUSH0 DUP1 REVERT JUMPDEST POP PUSH2 0x163 PUSH1 0x4 DUP1 CALLDATASIZE SUB DUP2 ADD SWAP1 PUSH2 0x15E SWAP2 SWAP1 PUSH2 0xC13 JUMP JUMPDEST PUSH2 0x341 JUMP JUMPDEST STOP JUMPDEST CALLVALUE DUP1 ISZERO PUSH2 0x170 JUMPI PUSH0 DUP1 REVERT JUMPDEST POP PUSH2 0x179 PUSH2 0x5B0 JUMP JUMPDEST STOP JUMPDEST CALLVALUE DUP1 ISZERO PUSH2 0x186 JUMPI PUSH0 DUP1 REVERT JUMPDEST POP PUSH2 0x18F PUSH2 0x5C3 JUMP JUMPDEST PUSH1 0x40 MLOAD PUSH2 0x19C SWAP2 SWAP1 PUSH2 0xBD0 JUMP JUMPDEST PUSH1 0x40 MLOAD DUP1 SWAP2 SUB SWAP1 RETURN JUMPDEST CALLVALUE DUP1 ISZERO PUSH2 0x1B0 JUMPI PUSH0 DUP1 REVERT JUMPDEST POP PUSH2 0x1CB PUSH1 0x4 DUP1 CALLDATASIZE SUB DUP2 ADD SWAP1 PUSH2 0x1C6 SWAP2 SWAP1 PUSH2 0xC63 JUMP JUMPDEST PUSH2 0x5EA JUMP JUMPDEST STOP JUMPDEST CALLVALUE DUP1 ISZERO PUSH2 0x1D8 JUMPI PUSH0 DUP1 REVERT JUMPDEST POP PUSH2 0x1E1 PUSH2 0x7D9 JUMP JUMPDEST PUSH1 0x40 MLOAD PUSH2 0x1EE SWAP2 SWAP1 PUSH2 0xB1F JUMP JUMPDEST PUSH1 0x40 MLOAD DUP1 SWAP2 SUB SWAP1 RETURN JUMPDEST PUSH2 0x1FF PUSH2 0x7E0 JUMP JUMPDEST STOP JUMPDEST CALLVALUE DUP1 ISZERO PUSH2 0x20C JUMPI PUSH0 DUP1 REVERT JUMPDEST POP PUSH2 0x227 PUSH1 0x4 DUP1 CALLDATASIZE SUB DUP2 ADD SWAP1 PUSH2 0x222 SWAP2 SWAP1 PUSH2 0xB96 JUMP JUMPDEST PUSH2 0x869 JUMP JUMPDEST STOP JUMPDEST PUSH2 0x231 PUSH2 0x8ED JUMP JUMPDEST PUSH0 PUSH20 0xFFFFFFFFFFFFFFFFFFFFFFFFFFFFFFFFFFFFFFFF AND DUP2 PUSH20 0xFFFFFFFFFFFFFFFFFFFFFFFFFFFFFFFFFFFFFFFF AND SUB PUSH2 0x296 JUMPI PUSH1 0x40 MLOAD PUSH32 0xD92E233D00000000000000000000000000000000000000000000000000000000 DUP2 MSTORE PUSH1 0x4 ADD PUSH1 0x40 MLOAD DUP1 SWAP2 SUB SWAP1 REVERT JUMPDEST DUP1 PUSH1 0x1 PUSH0 PUSH2 0x100 EXP DUP2 SLOAD DUP2 PUSH20 0xFFFFFFFFFFFFFFFFFFFFFFFFFFFFFFFFFFFFFFFF MUL NOT AND SWAP1 DUP4 PUSH20 0xFFFFFFFFFFFFFFFFFFFFFFFFFFFFFFFFFFFFFFFF AND MUL OR SWAP1 SSTORE POP DUP1 PUSH20 0xFFFFFFFFFFFFFFFFFFFFFFFFFFFFFFFFFFFFFFFF AND PUSH32 0x89386B8711BAD3EC737A1746DBCC52DE03DE68ADD300345F9ACB944C28AE03F3 PUSH1 0x40 MLOAD PUSH1 0x40 MLOAD DUP1 SWAP2 SUB SWAP1 LOG2 POP JUMP JUMPDEST PUSH1 0x1 PUSH0 SWAP1 SLOAD SWAP1 PUSH2 0x100 EXP SWAP1 DIV PUSH20 0xFFFFFFFFFFFFFFFFFFFFFFFFFFFFFFFFFFFFFFFF AND DUP2 JUMP JUMPDEST PUSH2 0x349 PUSH2 0x974 JUMP JUMPDEST PUSH1 0x1 PUSH0 SWAP1 SLOAD SWAP1 PUSH2 0x100 EXP SWAP1 DIV PUSH20 0xFFFFFFFFFFFFFFFFFFFFFFFFFFFFFFFFFFFFFFFF AND PUSH20 0xFFFFFFFFFFFFFFFFFFFFFFFFFFFFFFFFFFFFFFFF AND CALLER PUSH20 0xFFFFFFFFFFFFFFFFFFFFFFFFFFFFFFFFFFFFFFFF AND EQ PUSH2 0x3CF JUMPI PUSH1 0x40 MLOAD PUSH32 0x3E94DCE900000000000000000000000000000000000000000000000000000000 DUP2 MSTORE PUSH1 0x4 ADD PUSH1 0x40 MLOAD DUP1 SWAP2 SUB SWAP1 REVERT JUMPDEST PUSH0 PUSH20 0xFFFFFFFFFFFFFFFFFFFFFFFFFFFFFFFFFFFFFFFF AND DUP4 PUSH20 0xFFFFFFFFFFFFFFFFFFFFFFFFFFFFFFFFFFFFFFFF AND SUB PUSH2 0x434 JUMPI PUSH1 0x40 MLOAD PUSH32 0xD92E233D00000000000000000000000000000000000000000000000000000000 DUP2 MSTORE PUSH1 0x4 ADD PUSH1 0x40 MLOAD DUP1 SWAP2 SUB SWAP1 REVERT JUMPDEST PUSH0 DUP3 SUB PUSH2 0x46D JUMPI PUSH1 0x40 MLOAD PUSH32 0x1F2A200500000000000000000000000000000000000000000000000000000000 DUP2 MSTORE PUSH1 0x4 ADD PUSH1 0x40 MLOAD DUP1 SWAP2 SUB SWAP1 REVERT JUMPDEST SELFBALANCE DUP3 GT ISZERO PUSH2 0x4B4 JUMPI DUP2 SELFBALANCE PUSH1 0x40 MLOAD PUSH32 0xCF47918100000000000000000000000000000000000000000000000000000000 DUP2 MSTORE PUSH1 0x4 ADD PUSH2 0x4AB SWAP3 SWAP2 SWAP1 PUSH2 0xCA1 JUMP JUMPDEST PUSH1 0x40 MLOAD DUP1 SWAP2 SUB SWAP1 REVERT JUMPDEST PUSH0 DUP4 PUSH20 0xFFFFFFFFFFFFFFFFFFFFFFFFFFFFFFFFFFFFFFFF AND DUP4 PUSH1 0x40 MLOAD PUSH2 0x4D9 SWAP1 PUSH2 0xCF5 JUMP JUMPDEST PUSH0 PUSH1 0x40 MLOAD DUP1 DUP4 SUB DUP2 DUP6 DUP8 GAS CALL SWAP3 POP POP POP RETURNDATASIZE DUP1 PUSH0 DUP2 EQ PUSH2 0x513 JUMPI PUSH1 0x40 MLOAD SWAP2 POP PUSH1 0x1F NOT PUSH1 0x3F RETURNDATASIZE ADD AND DUP3 ADD PUSH1 0x40 MSTORE RETURNDATASIZE DUP3 MSTORE RETURNDATASIZE PUSH0 PUSH1 0x20 DUP5 ADD RETURNDATACOPY PUSH2 0x518 JUMP JUMPDEST PUSH1 0x60 SWAP2 POP JUMPDEST POP POP SWAP1 POP DUP1 PUSH2 0x553 JUMPI PUSH1 0x40 MLOAD PUSH32 0x90B8EC1800000000000000000000000000000000000000000000000000000000 DUP2 MSTORE PUSH1 0x4 ADD PUSH1 0x40 MLOAD DUP1 SWAP2 SUB SWAP1 REVERT JUMPDEST DUP2 DUP5 PUSH20 0xFFFFFFFFFFFFFFFFFFFFFFFFFFFFFFFFFFFFFFFF AND PUSH32 0x88F3705F0C4D3C5B1A1D29FE4FD3F87E889A5A0CE0A1E37989766B3248603FE9 DUP6 PUSH1 0x40 MLOAD PUSH2 0x59A SWAP2 SWAP1 PUSH2 0xB1F JUMP JUMPDEST PUSH1 0x40 MLOAD DUP1 SWAP2 SUB SWAP1 LOG3 POP PUSH2 0x5AB PUSH2 0x996 JUMP JUMPDEST POP POP POP JUMP JUMPDEST PUSH2 0x5B8 PUSH2 0x8ED JUMP JUMPDEST PUSH2 0x5C1 PUSH0 PUSH2 0x9B0 JUMP JUMPDEST JUMP JUMPDEST PUSH0 DUP1 PUSH0 SWAP1 SLOAD SWAP1 PUSH2 0x100 EXP SWAP1 DIV PUSH20 0xFFFFFFFFFFFFFFFFFFFFFFFFFFFFFFFFFFFFFFFF AND SWAP1 POP SWAP1 JUMP JUMPDEST PUSH2 0x5F2 PUSH2 0x974 JUMP JUMPDEST PUSH2 0x5FA PUSH2 0x8ED JUMP JUMPDEST PUSH0 PUSH20 0xFFFFFFFFFFFFFFFFFFFFFFFFFFFFFFFFFFFFFFFF AND DUP3 PUSH20 0xFFFFFFFFFFFFFFFFFFFFFFFFFFFFFFFFFFFFFFFF AND SUB PUSH2 0x65F JUMPI PUSH1 0x40 MLOAD PUSH32 0xD92E233D00000000000000000000000000000000000000000000000000000000 DUP2 MSTORE PUSH1 0x4 ADD PUSH1 0x40 MLOAD DUP1 SWAP2 SUB SWAP1 REVERT JUMPDEST PUSH0 DUP2 SUB PUSH2 0x698 JUMPI PUSH1 0x40 MLOAD PUSH32 0x1F2A200500000000000000000000000000000000000000000000000000000000 DUP2 MSTORE PUSH1 0x4 ADD PUSH1 0x40 MLOAD DUP1 SWAP2 SUB SWAP1 REVERT JUMPDEST SELFBALANCE DUP2 GT ISZERO PUSH2 0x6DF JUMPI DUP1 SELFBALANCE PUSH1 0x40 MLOAD PUSH32 0xCF47918100000000000000000000000000000000000000000000000000000000 DUP2 MSTORE PUSH1 0x4 ADD PUSH2 0x6D6 SWAP3 SWAP2 SWAP1 PUSH2 0xCA1 JUMP JUMPDEST PUSH1 0x40 MLOAD DUP1 SWAP2 SUB SWAP1 REVERT JUMPDEST PUSH0 DUP3 PUSH20 0xFFFFFFFFFFFFFFFFFFFFFFFFFFFFFFFFFFFFFFFF AND DUP3 PUSH1 0x40 MLOAD PUSH2 0x704 SWAP1 PUSH2 0xCF5 JUMP JUMPDEST PUSH0 PUSH1 0x40 MLOAD DUP1 DUP4 SUB DUP2 DUP6 DUP8 GAS CALL SWAP3 POP POP POP RETURNDATASIZE DUP1 PUSH0 DUP2 EQ PUSH2 0x73E JUMPI PUSH1 0x40 MLOAD SWAP2 POP PUSH1 0x1F NOT PUSH1 0x3F RETURNDATASIZE ADD AND DUP3 ADD PUSH1 0x40 MSTORE RETURNDATASIZE DUP3 MSTORE RETURNDATASIZE PUSH0 PUSH1 0x20 DUP5 ADD RETURNDATACOPY PUSH2 0x743 JUMP JUMPDEST PUSH1 0x60 SWAP2 POP JUMPDEST POP POP SWAP1 POP DUP1 PUSH2 0x77E JUMPI PUSH1 0x40 MLOAD PUSH32 0x90B8EC1800000000000000000000000000000000000000000000000000000000 DUP2 MSTORE PUSH1 0x4 ADD PUSH1 0x40 MLOAD DUP1 SWAP2 SUB SWAP1 REVERT JUMPDEST DUP3 PUSH20 0xFFFFFFFFFFFFFFFFFFFFFFFFFFFFFFFFFFFFFFFF AND PUSH32 0x2E39961A70A10F4D46383948095AC2752B3EE642A7C76AA827410AAFF08C2E51 DUP4 PUSH1 0x40 MLOAD PUSH2 0x7C4 SWAP2 SWAP1 PUSH2 0xB1F JUMP JUMPDEST PUSH1 0x40 MLOAD DUP1 SWAP2 SUB SWAP1 LOG2 POP PUSH2 0x7D5 PUSH2 0x996 JUMP JUMPDEST POP POP JUMP JUMPDEST PUSH0 SELFBALANCE SWAP1 POP SWAP1 JUMP JUMPDEST PUSH0 CALLVALUE SUB PUSH2 0x819 JUMPI PUSH1 0x40 MLOAD PUSH32 0x1F2A200500000000000000000000000000000000000000000000000000000000 DUP2 MSTORE PUSH1 0x4 ADD PUSH1 0x40 MLOAD DUP1 SWAP2 SUB SWAP1 REVERT JUMPDEST CALLER PUSH20 0xFFFFFFFFFFFFFFFFFFFFFFFFFFFFFFFFFFFFFFFF AND PUSH32 0x2DA466A7B24304F47E87FA2E1E5A81B9831CE54FEC19055CE277CA2F39BA42C4 CALLVALUE PUSH1 0x40 MLOAD PUSH2 0x85F SWAP2 SWAP1 PUSH2 0xB1F JUMP JUMPDEST PUSH1 0x40 MLOAD DUP1 SWAP2 SUB SWAP1 LOG2 JUMP JUMPDEST PUSH2 0x871 PUSH2 0x8ED JUMP JUMPDEST PUSH0 PUSH20 0xFFFFFFFFFFFFFFFFFFFFFFFFFFFFFFFFFFFFFFFF AND DUP2 PUSH20 0xFFFFFFFFFFFFFFFFFFFFFFFFFFFFFFFFFFFFFFFF AND SUB PUSH2 0x8E1 JUMPI PUSH0 PUSH1 0x40 MLOAD PUSH32 0x1E4FBDF700000000000000000000000000000000000000000000000000000000 DUP2 MSTORE PUSH1 0x4 ADD PUSH2 0x8D8 SWAP2 SWAP1 PUSH2 0xBD0 JUMP JUMPDEST PUSH1 0x40 MLOAD DUP1 SWAP2 SUB SWAP1 REVERT JUMPDEST PUSH2 0x8EA DUP2 PUSH2 0x9B0 JUMP JUMPDEST POP JUMP JUMPDEST PUSH2 0x8F5 PUSH2 0xA71 JUMP JUMPDEST PUSH20 0xFFFFFFFFFFFFFFFFFFFFFFFFFFFFFFFFFFFFFFFF AND PUSH2 0x913 PUSH2 0x5C3 JUMP JUMPDEST PUSH20 0xFFFFFFFFFFFFFFFFFFFFFFFFFFFFFFFFFFFFFFFF AND EQ PUSH2 0x972 JUMPI PUSH2 0x936 PUSH2 0xA71 JUMP JUMPDEST PUSH1 0x40 MLOAD PUSH32 0x118CDAA700000000000000000000000000000000000000000000000000000000 DUP2 MSTORE PUSH1 0x4 ADD PUSH2 0x969 SWAP2 SWAP1 PUSH2 0xBD0 JUMP JUMPDEST PUSH1 0x40 MLOAD DUP1 SWAP2 SUB SWAP1 REVERT JUMPDEST JUMP JUMPDEST PUSH2 0x97C PUSH2 0xA78 JUMP JUMPDEST PUSH1 0x2 PUSH2 0x98E PUSH2 0x989 PUSH2 0xAB9 JUMP JUMPDEST PUSH2 0xAE2 JUMP JUMPDEST PUSH0 ADD DUP2 SWAP1 SSTORE POP JUMP JUMPDEST PUSH1 0x1 PUSH2 0x9A8 PUSH2 0x9A3 PUSH2 0xAB9 JUMP JUMPDEST PUSH2 0xAE2 JUMP JUMPDEST PUSH0 ADD DUP2 SWAP1 SSTORE POP JUMP JUMPDEST PUSH0 DUP1 PUSH0 SWAP1 SLOAD SWAP1 PUSH2 0x100 EXP SWAP1 DIV PUSH20 0xFFFFFFFFFFFFFFFFFFFFFFFFFFFFFFFFFFFFFFFF AND SWAP1 POP DUP2 PUSH0 DUP1 PUSH2 0x100 EXP DUP2 SLOAD DUP2 PUSH20 0xFFFFFFFFFFFFFFFFFFFFFFFFFFFFFFFFFFFFFFFF MUL NOT AND SWAP1 DUP4 PUSH20 0xFFFFFFFFFFFFFFFFFFFFFFFFFFFFFFFFFFFFFFFF AND MUL OR SWAP1 SSTORE POP DUP2 PUSH20 0xFFFFFFFFFFFFFFFFFFFFFFFFFFFFFFFFFFFFFFFF AND DUP2 PUSH20 0xFFFFFFFFFFFFFFFFFFFFFFFFFFFFFFFFFFFFFFFF AND PUSH32 0x8BE0079C531659141344CD1FD0A4F28419497F9722A3DAAFE3B4186F6B6457E0 PUSH1 0x40 MLOAD PUSH1 0x40 MLOAD DUP1 SWAP2 SUB SWAP1 LOG3 POP POP JUMP JUMPDEST PUSH0 CALLER SWAP1 POP SWAP1 JUMP JUMPDEST PUSH2 0xA80 PUSH2 0xAEB JUMP JUMPDEST ISZERO PUSH2 0xAB7 JUMPI PUSH1 0x40 MLOAD PUSH32 0x3EE5AEB500000000000000000000000000000000000000000000000000000000 DUP2 MSTORE PUSH1 0x4 ADD PUSH1 0x40 MLOAD DUP1 SWAP2 SUB SWAP1 REVERT JUMPDEST JUMP JUMPDEST PUSH0 PUSH32 0x9B779B17422D0DF92223018B32B4D1FA46E071723D6817E2486D003BECC55F00 PUSH0 SHL SWAP1 POP SWAP1 JUMP JUMPDEST PUSH0 DUP2 SWAP1 POP SWAP2 SWAP1 POP JUMP JUMPDEST PUSH0 PUSH1 0x2 PUSH2 0xAFE PUSH2 0xAF9 PUSH2 0xAB9 JUMP JUMPDEST PUSH2 0xAE2 JUMP JUMPDEST PUSH0 ADD SLOAD EQ SWAP1 POP SWAP1 JUMP JUMPDEST PUSH0 DUP2 SWAP1 POP SWAP2 SWAP1 POP JUMP JUMPDEST PUSH2 0xB19 DUP2 PUSH2 0xB07 JUMP JUMPDEST DUP3 MSTORE POP POP JUMP JUMPDEST PUSH0 PUSH1 0x20 DUP3 ADD SWAP1 POP PUSH2 0xB32 PUSH0 DUP4 ADD DUP5 PUSH2 0xB10 JUMP JUMPDEST SWAP3 SWAP2 POP POP JUMP JUMPDEST PUSH0 DUP1 REVERT JUMPDEST PUSH0 PUSH20 0xFFFFFFFFFFFFFFFFFFFFFFFFFFFFFFFFFFFFFFFF DUP3 AND SWAP1 POP SWAP2 SWAP1 POP JUMP JUMPDEST PUSH0 PUSH2 0xB65 DUP3 PUSH2 0xB3C JUMP JUMPDEST SWAP1 POP SWAP2 SWAP1 POP JUMP JUMPDEST PUSH2 0xB75 DUP2 PUSH2 0xB5B JUMP JUMPDEST DUP2 EQ PUSH2 0xB7F JUMPI PUSH0 DUP1 REVERT JUMPDEST POP JUMP JUMPDEST PUSH0 DUP2 CALLDATALOAD SWAP1 POP PUSH2 0xB90 DUP2 PUSH2 0xB6C JUMP JUMPDEST SWAP3 SWAP2 POP POP JUMP JUMPDEST PUSH0 PUSH1 0x20 DUP3 DUP5 SUB SLT ISZERO PUSH2 0xBAB JUMPI PUSH2 0xBAA PUSH2 0xB38 JUMP JUMPDEST JUMPDEST PUSH0 PUSH2 0xBB8 DUP5 DUP3 DUP6 ADD PUSH2 0xB82 JUMP JUMPDEST SWAP2 POP POP SWAP3 SWAP2 POP POP JUMP JUMPDEST PUSH2 0xBCA DUP2 PUSH2 0xB5B JUMP JUMPDEST DUP3 MSTORE POP POP JUMP JUMPDEST PUSH0 PUSH1 0x20 DUP3 ADD SWAP1 POP PUSH2 0xBE3 PUSH0 DUP4 ADD DUP5 PUSH2 0xBC1 JUMP JUMPDEST SWAP3 SWAP2 POP POP JUMP JUMPDEST PUSH2 0xBF2 DUP2 PUSH2 0xB07 JUMP JUMPDEST DUP2 EQ PUSH2 0xBFC JUMPI PUSH0 DUP1 REVERT JUMPDEST POP JUMP JUMPDEST PUSH0 DUP2 CALLDATALOAD SWAP1 POP PUSH2 0xC0D DUP2 PUSH2 0xBE9 JUMP JUMPDEST SWAP3 SWAP2 POP POP JUMP JUMPDEST PUSH0 DUP1 PUSH0 PUSH1 0x60 DUP5 DUP7 SUB SLT ISZERO PUSH2 0xC2A JUMPI PUSH2 0xC29 PUSH2 0xB38 JUMP JUMPDEST JUMPDEST PUSH0 PUSH2 0xC37 DUP7 DUP3 DUP8 ADD PUSH2 0xB82 JUMP JUMPDEST SWAP4 POP POP PUSH1 0x20 PUSH2 0xC48 DUP7 DUP3 DUP8 ADD PUSH2 0xBFF JUMP JUMPDEST SWAP3 POP POP PUSH1 0x40 PUSH2 0xC59 DUP7 DUP3 DUP8 ADD PUSH2 0xBFF JUMP JUMPDEST SWAP2 POP POP SWAP3 POP SWAP3 POP SWAP3 JUMP JUMPDEST PUSH0 DUP1 PUSH1 0x40 DUP4 DUP6 SUB SLT ISZERO PUSH2 0xC79 JUMPI PUSH2 0xC78 PUSH2 0xB38 JUMP JUMPDEST JUMPDEST PUSH0 PUSH2 0xC86 DUP6 DUP3 DUP7 ADD PUSH2 0xB82 JUMP JUMPDEST SWAP3 POP POP PUSH1 0x20 PUSH2 0xC97 DUP6 DUP3 DUP7 ADD PUSH2 0xBFF JUMP JUMPDEST SWAP2 POP POP SWAP3 POP SWAP3 SWAP1 POP JUMP JUMPDEST PUSH0 PUSH1 0x40 DUP3 ADD SWAP1 POP PUSH2 0xCB4 PUSH0 DUP4 ADD DUP6 PUSH2 0xB10 JUMP JUMPDEST PUSH2 0xCC1 PUSH1 0x20 DUP4 ADD DUP5 PUSH2 0xB10 JUMP JUMPDEST SWAP4 SWAP3 POP POP POP JUMP JUMPDEST PUSH0 DUP2 SWAP1 POP SWAP3 SWAP2 POP POP JUMP JUMPDEST POP JUMP JUMPDEST PUSH0 PUSH2 0xCE0 PUSH0 DUP4 PUSH2 0xCC8 JUMP JUMPDEST SWAP2 POP PUSH2 0xCEB DUP3 PUSH2 0xCD2 JUMP JUMPDEST PUSH0 DUP3 ADD SWAP1 POP SWAP2 SWAP1 POP JUMP JUMPDEST PUSH0 PUSH2 0xCFF DUP3 PUSH2 0xCD5 JUMP JUMPDEST SWAP2 POP DUP2 SWAP1 POP SWAP2 SWAP1 POP JUMP INVALID LOG2 PUSH5 0x6970667358 0x22 SLT KECCAK256 GASPRICE 0xDD DUP13 0x25 DUP16 0xE8 0x23 CALL DUP4 GAS 0xB3 0xC9 DUP2 0xA6 PUSH10 0x7C9EE4CE5447FA43BA51 MLOAD PUSH18 0x65DD5F1BC864736F6C634300081800330000 "
		},
		"gasEstimates": {
			"creation": {
				"codeDepositCost": "678200",
				"executionCost": "infinite",
				"totalCost": "infinite"
			},
			"external": {
				"balance()": "378",
				"deposit()": "1776",
				"emergencyWithdraw(address,uint256)": "infinite",
				"owner()": "2515",
				"pay(address,uint256,uint256)": "infinite",
				"renounceOwnership()": "infinite",
				"setTimbPrize(address)": "infinite",
				"timbPrize()": "2531",
				"transferOwnership(address)": "infinite"
			}
		},
		"methodIdentifiers": {
			"balance()": "b69ef8a8",
			"deposit()": "d0e30db0",
			"emergencyWithdraw(address,uint256)": "95ccea67",
			"owner()": "8da5cb5b",
			"pay(address,uint256,uint256)": "5f065346",
			"renounceOwnership()": "715018a6",
			"setTimbPrize(address)": "27b23849",
			"timbPrize()": "5364276d",
			"transferOwnership(address)": "f2fde38b"
		}
	},
	"abi": [
		{
			"inputs": [],
			"stateMutability": "nonpayable",
			"type": "constructor"
		},
		{
			"inputs": [
				{
					"internalType": "uint256",
					"name": "requested",
					"type": "uint256"
				},
				{
					"internalType": "uint256",
					"name": "available",
					"type": "uint256"
				}
			],
			"name": "InsufficientBalance",
			"type": "error"
		},
		{
			"inputs": [],
			"name": "NotTimbPrize",
			"type": "error"
		},
		{
			"inputs": [
				{
					"internalType": "address",
					"name": "owner",
					"type": "address"
				}
			],
			"name": "OwnableInvalidOwner",
			"type": "error"
		},
		{
			"inputs": [
				{
					"internalType": "address",
					"name": "account",
					"type": "address"
				}
			],
			"name": "OwnableUnauthorizedAccount",
			"type": "error"
		},
		{
			"inputs": [],
			"name": "ReentrancyGuardReentrantCall",
			"type": "error"
		},
		{
			"inputs": [],
			"name": "TransferFailed",
			"type": "error"
		},
		{
			"inputs": [],
			"name": "ZeroAddress",
			"type": "error"
		},
		{
			"inputs": [],
			"name": "ZeroAmount",
			"type": "error"
		},
		{
			"anonymous": false,
			"inputs": [
				{
					"indexed": true,
					"internalType": "address",
					"name": "from",
					"type": "address"
				},
				{
					"indexed": false,
					"internalType": "uint256",
					"name": "amount",
					"type": "uint256"
				}
			],
			"name": "Deposited",
			"type": "event"
		},
		{
			"anonymous": false,
			"inputs": [
				{
					"indexed": true,
					"internalType": "address",
					"name": "to",
					"type": "address"
				},
				{
					"indexed": false,
					"internalType": "uint256",
					"name": "amount",
					"type": "uint256"
				}
			],
			"name": "EmergencyWithdrawn",
			"type": "event"
		},
		{
			"anonymous": false,
			"inputs": [
				{
					"indexed": true,
					"internalType": "address",
					"name": "previousOwner",
					"type": "address"
				},
				{
					"indexed": true,
					"internalType": "address",
					"name": "newOwner",
					"type": "address"
				}
			],
			"name": "OwnershipTransferred",
			"type": "event"
		},
		{
			"anonymous": false,
			"inputs": [
				{
					"indexed": true,
					"internalType": "address",
					"name": "timbPrize",
					"type": "address"
				}
			],
			"name": "TimbPrizeSet",
			"type": "event"
		},
		{
			"anonymous": false,
			"inputs": [
				{
					"indexed": true,
					"internalType": "address",
					"name": "winner",
					"type": "address"
				},
				{
					"indexed": false,
					"internalType": "uint256",
					"name": "amount",
					"type": "uint256"
				},
				{
					"indexed": true,
					"internalType": "uint256",
					"name": "round",
					"type": "uint256"
				}
			],
			"name": "WinnerPaid",
			"type": "event"
		},
		{
			"inputs": [],
			"name": "balance",
			"outputs": [
				{
					"internalType": "uint256",
					"name": "",
					"type": "uint256"
				}
			],
			"stateMutability": "view",
			"type": "function"
		},
		{
			"inputs": [],
			"name": "deposit",
			"outputs": [],
			"stateMutability": "payable",
			"type": "function"
		},
		{
			"inputs": [
				{
					"internalType": "address",
					"name": "to",
					"type": "address"
				},
				{
					"internalType": "uint256",
					"name": "amount",
					"type": "uint256"
				}
			],
			"name": "emergencyWithdraw",
			"outputs": [],
			"stateMutability": "nonpayable",
			"type": "function"
		},
		{
			"inputs": [],
			"name": "owner",
			"outputs": [
				{
					"internalType": "address",
					"name": "",
					"type": "address"
				}
			],
			"stateMutability": "view",
			"type": "function"
		},
		{
			"inputs": [
				{
					"internalType": "address",
					"name": "to",
					"type": "address"
				},
				{
					"internalType": "uint256",
					"name": "amount",
					"type": "uint256"
				},
				{
					"internalType": "uint256",
					"name": "round",
					"type": "uint256"
				}
			],
			"name": "pay",
			"outputs": [],
			"stateMutability": "nonpayable",
			"type": "function"
		},
		{
			"inputs": [],
			"name": "renounceOwnership",
			"outputs": [],
			"stateMutability": "nonpayable",
			"type": "function"
		},
		{
			"inputs": [
				{
					"internalType": "address",
					"name": "_timbPrize",
					"type": "address"
				}
			],
			"name": "setTimbPrize",
			"outputs": [],
			"stateMutability": "nonpayable",
			"type": "function"
		},
		{
			"inputs": [],
			"name": "timbPrize",
			"outputs": [
				{
					"internalType": "address",
					"name": "",
					"type": "address"
				}
			],
			"stateMutability": "view",
			"type": "function"
		},
		{
			"inputs": [
				{
					"internalType": "address",
					"name": "newOwner",
					"type": "address"
				}
			],
			"name": "transferOwnership",
			"outputs": [],
			"stateMutability": "nonpayable",
			"type": "function"
		},
		{
			"stateMutability": "payable",
			"type": "receive"
		}
	]
}