{
	"data": {
		"bytecode": {
			"linkReferences": {},
			"object": "60806040523480156200001157600080fd5b5060405162002deb38038062002deb8339810160408190526200003491620001c7565b33806200005b57604051631e4fbdf760e01b81526000600482015260240160405180910390fd5b62000066816200015a565b5060017f9b779b17422d0df92223018b32b4d1fa46e071723d6817e2486d003becc55f00556001600160a01b038316620000b35760405163d92e233d60e01b815260040160405180910390fd5b6001600160a01b038216620000db5760405163d92e233d60e01b815260040160405180910390fd5b6001600160a01b038116620001035760405163d92e233d60e01b815260040160405180910390fd5b600180546001600160a01b039485166001600160a01b03199182161790915560028054938516938216939093179092556003805491909316908216178255600580549091163317905560105560c860115562000211565b600080546001600160a01b038381166001600160a01b0319831681178455604051919092169283917f8be0079c531659141344cd1fd0a4f28419497f9722a3daafe3b4186f6b6457e09190a35050565b80516001600160a01b0381168114620001c257600080fd5b919050565b600080600060608486031215620001dd57600080fd5b620001e884620001aa565b9250620001f860208501620001aa565b91506200020860408501620001aa565b90509250925092565b612bca80620002216000396000f3fe6080604052600436106103815760003560e01c80638a19c8bc116101d1578063c4887f1511610102578063da090755116100a0578063f13afb901161006f578063f13afb90146109e8578063f2fde38b14610a08578063f82a23d114610a28578063f887ea4014610a5557600080fd5b8063da09075514610973578063dd898b2f14610993578063e9755b59146109b3578063ebd2fe41146109c857600080fd5b8063d38970bc116100dc578063d38970bc14610903578063d57f952514610919578063d6194c001461092e578063d65ab5f21461095e57600080fd5b8063c4887f15146108a6578063c74b817d146108d3578063cc16fe5b146108ed57600080fd5b8063ac6507831161016f578063b63ff8a311610149578063b63ff8a314610823578063b7bc5fb61461085c578063c0d7865514610871578063c33b75861461089157600080fd5b8063ac650783146107cb578063b2721164146107e0578063b303feeb146107f657600080fd5b806399b465cb116101ab57806399b465cb146107785780639c737e8f1461078e578063a1a016a314610796578063ab221a76146107ab57600080fd5b80638a19c8bc146107245780638da5cb5b1461073a57806392eaa9d91461075857600080fd5b806341d67d06116102b6578063677bd9ff1161025457806379eedbdd1161022357806379eedbdd146106765780637f35d49f146106a65780637f79ba59146106bc578063873f6f9e146106e957600080fd5b8063677bd9ff14610616578063715018a61461063657806376d9ff2c1461064b578063770435911461066057600080fd5b80635e123ce4116102905780635e123ce4146105b15780635f303f1c146105cb57806363d5ab8d146105eb5780636641ea081461060157600080fd5b806341d67d0614610566578063456990c71461057c57806346a662bf1461059c57600080fd5b80631a3b8e8c11610323578063293c2958116102fd578063293c2958146104dd5780632ee0c463146105085780633deb6cae146105325780634168632d1461054757600080fd5b80631a3b8e8c1461047a5780631ad41d141461049a578063231e832d146104ba57600080fd5b80630a8506ca1161035f5780630a8506ca1461041a5780630b7a567b1461042f5780630f67e7d51461044457806317ebf6ae1461047257600080fd5b806302e28c701461038657806303e3cd6a146103c057806307f19eba146103f8575b600080fd5b34801561039257600080fd5b506103a66103a1366004612670565b610a75565b6040516103b79594939291906126ce565b60405180910390f35b3480156103cc57600080fd5b506103e06103db36600461270c565b610b22565b6040516001600160a01b0390911681526020016103b7565b34801561040457600080fd5b50610418610413366004612743565b610b5a565b005b34801561042657600080fd5b50610418610bd3565b34801561043b57600080fd5b50610418610bea565b34801561045057600080fd5b50610459610cff565b6040516001600160d01b031990911681526020016103b7565b610418610e59565b34801561048657600080fd5b506001546103e0906001600160a01b031681565b3480156104a657600080fd5b506104186104b5366004612670565b610f2a565b3480156104c657600080fd5b506104cf610f8f565b6040519081526020016103b7565b3480156104e957600080fd5b506104f2610f9f565b6040516103b79a99989796959493929190612792565b34801561051457600080fd5b506018546105229060ff1681565b60405190151581526020016103b7565b34801561053e57600080fd5b506104cf600f81565b34801561055357600080fd5b5060185461052290610100900460ff1681565b34801561057257600080fd5b506104cf60115481565b34801561058857600080fd5b50610418610597366004612670565b611082565b3480156105a857600080fd5b506104186110e2565b3480156105bd57600080fd5b50600d546105229060ff1681565b3480156105d757600080fd5b506104186105e6366004612743565b611285565b3480156105f757600080fd5b506104cf60065481565b34801561060d57600080fd5b506104cf6112d6565b34801561062257600080fd5b50610418610631366004612670565b6112ef565b34801561064257600080fd5b506104186115d3565b34801561065757600080fd5b506104186115e5565b34801561066c57600080fd5b506104cf60105481565b34801561068257600080fd5b50610459610691366004612670565b60126020526000908152604090205460d01b81565b3480156106b257600080fd5b506104cf610e0181565b3480156106c857600080fd5b506104cf6106d7366004612670565b60136020526000908152604090205481565b3480156106f557600080fd5b5061052261070436600461281e565b601760209081526000928352604080842090915290825290205460ff1681565b34801561073057600080fd5b506104cf600a5481565b34801561074657600080fd5b506000546001600160a01b03166103e0565b34801561076457600080fd5b506004546103e0906001600160a01b031681565b34801561078457600080fd5b506104cf600b5481565b6104186115fa565b3480156107a257600080fd5b506104cf611602565b3480156107b757600080fd5b506005546103e0906001600160a01b031681565b3480156107d757600080fd5b506104cf600281565b3480156107ec57600080fd5b506104cf600e5481565b34801561080257600080fd5b506104cf610811366004612670565b60166020526000908152604090205481565b34801561082f57600080fd5b5061084361083e366004612670565b611632565b6040516001600160f81b031990911681526020016103b7565b34801561086857600080fd5b506104cf600681565b34801561087d57600080fd5b5061041861088c366004612743565b61169f565b34801561089d57600080fd5b506105226116f0565b3480156108b257600080fd5b506104cf6108c1366004612670565b60076020526000908152604090205481565b3480156108df57600080fd5b506009546105229060ff1681565b3480156108f957600080fd5b506104cf600c5481565b34801561090f57600080fd5b506104cf600f5481565b34801561092557600080fd5b506104186116ff565b34801561093a57600080fd5b50610522610949366004612670565b60086020526000908152604090205460ff1681565b34801561096a57600080fd5b50610418611718565b34801561097f57600080fd5b506002546103e0906001600160a01b031681565b34801561099f57600080fd5b506104186109ae366004612743565b6118b7565b3480156109bf57600080fd5b50610418611908565b3480156109d457600080fd5b506104186109e336600461285c565b61191c565b3480156109f457600080fd5b50610418610a03366004612743565b611937565b348015610a1457600080fd5b50610418610a23366004612743565b611961565b348015610a3457600080fd5b506104cf610a43366004612670565b60156020526000908152604090205481565b348015610a6157600080fd5b506003546103e0906001600160a01b031681565b600081815260126020908152604080832054601383528184205460148452828520805484518187028101870190955280855260d09390931b959194606094929384939291830182828015610af257602002820191906000526020600020905b81546001600160a01b03168152600190910190602001808311610ad4575b50505060009889525050601560209081526040808920546016909252909720549597949690959094909350915050565b60146020528160005260406000208181548110610b3e57600080fd5b6000918252602090912001546001600160a01b03169150829050565b610b6261199c565b6001600160a01b038116610b895760405163d92e233d60e01b815260040160405180910390fd5b600580546001600160a01b0319166001600160a01b0383169081179091556040517f1f53e003aaf46af23aeb50e85f438d6f0c33618ce44e3545f1ec030c79b1772990600090a250565b610bdb61199c565b6018805460ff19166001179055565b610bf26119c9565b6003546001600160a01b03163314610c1d57604051639165520160e01b815260040160405180910390fd5b600d5460ff16610c4057604051633a5f7b5760e01b815260040160405180910390fd5b610c486119e5565b15610c665760405163717824fb60e01b815260040160405180910390fd5b60068054906000610c768361288f565b9091555050600b546000908152600760205260408120805491610c988361288f565b9190505550600a547f494d93a08dca016bff87fc5e35de704731b23d47eb35da9499be2ddb7536da22600654600b54604051610cde929190918252602082015260400190565b60405180910390a2610cfd6001600080516020612b5183398151915255565b565b60408051600680825281830190925260009182919060208201818036833701905050905060015b60068111610e49576000610d3b6001836128be565b9050600b54821015610dc757604051806060016040528060248152602001612b7160249139600083815260076020526040902054610d7b906024906128ed565b81518110610d8b57610d8b612901565b602001015160f81c60f81b838260ff1681518110610dab57610dab612901565b60200101906001600160f81b031916908160001a905350610e36565b600b548203610e0457604051806060016040528060248152602001612b7160249139600083815260076020526040902054610d7b906024906128ed565b600060f81b838260ff1681518110610e1e57610e1e612901565b60200101906001600160f81b031916908160001a9053505b5080610e418161288f565b915050610d26565b50610e5381612917565b91505090565b34600003610e7a57604051631f2a200560e01b815260040160405180910390fd5b34600e6000828254610e8c919061294e565b909155505060015460408051630d0e30db60e41b815290516001600160a01b039092169163d0e30db0913491600480830192600092919082900301818588803b158015610ed857600080fd5b505af1158015610eec573d6000803e3d6000fd5b50506040513481523393507ff0d496561fe25891ca8568b6877b038238629d8dbe5777373589bece931dc172925060200190505b60405180910390a2565b610f3261199c565b80600003610f53576040516340250f0160e11b815260040160405180910390fd5b60108190556040518181527f1e64ff98418e31d486498b471741cc3ff92302fa146e6e124e3025186cfab465906020015b60405180910390a150565b610f9c600f610e0161294e565b81565b600080600080600080600080610fb3612652565b610fbb612652565b600a549950600b549850600c5497506006549650610fd7610cff565b9550600e549450600f549350610feb6119e5565b925060005b6006811015611075576007600061100883600161294e565b81526020019081526020016000205483826006811061102957611029612901565b60200201526008600061103d83600161294e565b815260208101919091526040016000205460ff1682826006811061106357611063612901565b91151560209092020152600101610ff0565b5090919293949596979899565b61108a61199c565b6103e88111156110ad57604051631f2a200560e01b815260040160405180910390fd5b60118190556040518181527f21b2cfef155acf409755ec06f4f701c8d13a5b6339fe8d1ee89afb57318f708490602001610f84565b6110ea6119c9565b6005546001600160a01b03163314611115576040516305b9433360e01b815260040160405180910390fd5b600d5460ff1661113857604051633a5f7b5760e01b815260040160405180910390fd5b601854610100900460ff161561116157604051634c211ccd60e01b815260040160405180910390fd5b6000600c544261117191906128be565b9050610e018110156111a657604051632c690a3760e11b815260048101829052610e0160248201526044015b60405180910390fd5b6006600b54101561124957600b80546000908152600860205260408120805460ff19166001179055815491906111db8361288f565b909155505042600c819055600b805460009081526007602052604080822091909155600a549154905191927fe9a2985393fa4bb459d73d85249df3b5923e70fb93b7b9c307e72359ab1675879261123c929190918252602082015260400190565b60405180910390a261126d565b600b546000908152600860205260409020805460ff1916600117905561126d611a13565b50610cfd6001600080516020612b5183398151915255565b61128d61199c565b6001600160a01b0381166112b45760405163d92e233d60e01b815260040160405180910390fd5b600180546001600160a01b0319166001600160a01b0392909216919091179055565b60066112e5600f610e0161294e565b610f9c9190612961565b6112f76119c9565b600d5460ff1661131a57604051633a5f7b5760e01b815260040160405180910390fd5b60008181526012602052604090205460d01b6001600160d01b0319166113565760405163668fee6f60e11b81526004810182905260240161119d565b600081815260176020908152604080832033845290915290205460ff161561139a5760405163732750ed60e11b81523360048201526024810182905260440161119d565b6113a560028261294e565b6113b090600161294e565b600a5411156113d557604051635524932960e01b81526004810182905260240161119d565b60008181526014602090815260408083208054825181850281018501909352808352849383018282801561143257602002820191906000526020600020905b81546001600160a01b03168152600190910190602001808311611414575b5050505050905060005b815181101561148857336001600160a01b031682828151811061146157611461612901565b60200260200101516001600160a01b0316036114805760019250611488565b60010161143c565b50816114b05760405163efbeaf3360e01b81523360048201526024810184905260440161119d565b600083815260156020526040812054908190036114e057604051631f2a200560e01b815260040160405180910390fd5b60008481526017602090815260408083203384529091528120805460ff19166001179055600f80548392906115169084906128be565b9091555050600154604051636203b43b60e11b8152336004820152602481018390526001600160a01b039091169063c407687690604401600060405180830381600087803b15801561156757600080fd5b505af115801561157b573d6000803e3d6000fd5b50506040518381528692503391507f7472e24de4628e34b41a2aa1688ed4b46a9145b2de1cf93d74902473ccc1740d9060200160405180910390a35050506115d06001600080516020612b5183398151915255565b50565b6115db61199c565b610cfd6000611cee565b6115ed61199c565b6018805461ff0019169055565b610e5961199c565b600080600c544261161391906128be565b9050610e01811061162657600091505090565b610e5381610e016128be565b6000600b5482111561164657506000919050565b604051806060016040528060248152602001612b716024913960008381526007602052604090205461167a906024906128ed565b8151811061168a5761168a612901565b01602001516001600160f81b03191692915050565b6116a761199c565b6001600160a01b0381166116ce5760405163d92e233d60e01b815260040160405180910390fd5b600380546001600160a01b0319166001600160a01b0392909216919091179055565b60006116fa6119e5565b905090565b61170761199c565b6018805461ff001916610100179055565b61172061199c565b600d5460ff16156117445760405163ba26162b60e01b815260040160405180910390fd5b600d805460ff19166001908117909155600a819055600b81905542600c555b600681116117a057600081815260076020908152604080832083905560089091529020805460ff19169055806117988161288f565b915050611763565b50600254600a5460405163077923c560e31b81526001600160a01b0390921691633bc91e28916117d69160040190815260200190565b600060405180830381600087803b1580156117f057600080fd5b505af1158015611804573d6000803e3d6000fd5b50505050611813600a54611d3e565b6040514281527f50ad08f58a27f2851d7e3a1b3a6a46b290f2ce677e99642d30ff639721e777909060200160405180910390a1600a546040514281527f278844837bcf8364a705384bf3a2812901f54155bae86dea81dd52aa5b9ec0e39060200160405180910390a2600a54600b54604080519182524260208301527fe9a2985393fa4bb459d73d85249df3b5923e70fb93b7b9c307e72359ab1675879101610f20565b6118bf61199c565b6001600160a01b0381166118e65760405163d92e233d60e01b815260040160405180910390fd5b600280546001600160a01b0319166001600160a01b0392909216919091179055565b61191061199c565b6018805460ff19169055565b61192461199c565b6009805460ff1916911515919091179055565b61193f61199c565b600480546001600160a01b0319166001600160a01b0392909216919091179055565b61196961199c565b6001600160a01b03811661199357604051631e4fbdf760e01b81526000600482015260240161119d565b6115d081611cee565b6000546001600160a01b03163314610cfd5760405163118cdaa760e01b815233600482015260240161119d565b6119d1611e23565b6002600080516020612b5183398151915255565b600d5460009060ff166119f85750600090565b6000600c5442611a0891906128be565b610e01111592915050565b600a546000611a20611e53565b600083815260126020908152604091829020805465ffffffffffff191660d085901c17905560065482519081526001600160d01b031984169181019190915291925083917fd9518e0c64df7f54fe347e6e390672d87bc2350a9df1b275e2de0f2655ca9a84910160405180910390a2600080611a9c8484611f1a565b91509150611aab848383612259565b611ab4846123c9565b6002546040516322a5642760e11b8152600481018690526000916001600160a01b03169063454ac84e90602401600060405180830381865afa158015611afe573d6000803e3d6000fd5b505050506040513d6000823e601f3d908101601f19168201604052611b269190810190612988565b5160008681526013602090815260408083205460168352928190205481516001600160d01b03198a1681529283019390935281018590526060810191909152608081018290524260a082015290915085907fcb3e0bd9fc5c5ca893ab7edf22c314b2852d2cf6e36e091941d0709caeb4145c9060c00160405180910390a2600a8054906000611bb48361288f565b90915550506001600b81905542600c555b60068111611c0257600081815260076020908152604080832083905560089091529020805460ff1916905580611bfa8161288f565b915050611bc5565b50600254600a5460405163077923c560e31b81526001600160a01b0390921691633bc91e2891611c389160040190815260200190565b600060405180830381600087803b158015611c5257600080fd5b505af1158015611c66573d6000803e3d6000fd5b50505050611c75600a54611d3e565b600a546040514281527f278844837bcf8364a705384bf3a2812901f54155bae86dea81dd52aa5b9ec0e39060200160405180910390a2600a5460408051600181524260208201527fe9a2985393fa4bb459d73d85249df3b5923e70fb93b7b9c307e72359ab167587910160405180910390a25050505050565b600080546001600160a01b038381166001600160a01b0319831681178455604051919092169283917f8be0079c531659141344cd1fd0a4f28419497f9722a3daafe3b4186f6b6457e09190a35050565b6002546040516322a5642760e11b8152600481018390526000916001600160a01b03169063454ac84e90602401600060405180830381865afa158015611d88573d6000803e3d6000fd5b505050506040513d6000823e601f3d908101601f19168201604052611db09190810190612988565b805190915015611e1f5760025460405163099866c360e11b81526001600160a01b0390911690631330cd8690611dec9085908590600401612a4d565b600060405180830381600087803b158015611e0657600080fd5b505af1158015611e1a573d6000803e3d6000fd5b505050505b5050565b600080516020612b5183398151915254600203610cfd57604051633ee5aeb560e01b815260040160405180910390fd5b60408051600680825281830190925260009182919060208201818036833701905050905060015b60068111610e4957604051806060016040528060248152602001612b7160249139600082815260076020526040902054611eb6906024906128ed565b81518110611ec657611ec6612901565b01602001516001600160f81b03191682611ee16001846128be565b81518110611ef157611ef1612901565b60200101906001600160f81b031916908160001a90535080611f128161288f565b915050611e7a565b600254604051639fd1162760e01b8152600481018490526001600160d01b03198316602482015260609160009182916001600160a01b031690639fd1162790604401600060405180830381865afa158015611f79573d6000803e3d6000fd5b505050506040513d6000823e601f3d908101601f19168201604052611fa19190810190612988565b90506000815167ffffffffffffffff811115611fbf57611fbf6128a8565b604051908082528060200260200182016040528015611fe8578160200160208202803683370190505b50905060005b82518110156121b257600083828151811061200b5761200b612901565b602090810291909101015160025460405163a96de4f560e01b81526001600160a01b038084166004830152602482018c90529293506000928392169063a96de4f5906044016040805180830381865afa15801561206c573d6000803e3d6000fd5b505050506040513d601f19601f820116820180604052508101906120909190612a86565b91509150816120a1575050506121aa565b6001600160d01b0319818116908a16146120bd575050506121aa565b60025460405163c106aee360e01b81526001600160a01b038581166004830152602482018d9052600092839291169063c106aee3906044016040805180830381865afa158015612111573d6000803e3d6000fd5b505050506040513d601f19601f820116820180604052508101906121359190612a86565b91509150816121485750505050506121aa565b6001600160d01b0319818116908c16146121665750505050506121aa565b84878a6121728161288f565b9b508151811061218457612184612901565b60200260200101906001600160a01b031690816001600160a01b03168152505050505050505b600101611fee565b508267ffffffffffffffff8111156121cc576121cc6128a8565b6040519080825280602002602001820160405280156121f5578160200160208202803683370190505b50935060005b8381101561224f5781818151811061221557612215612901565b602002602001015185828151811061222f5761222f612901565b6001600160a01b03909216602092830291909101909101526001016121fb565b5050509250929050565b600e546011546000908190158015906122725750600083115b156122dd5760006127106011548561228a9190612961565b6122949190612abb565b90506122a081856128be565b93507f85fcfc84baa0423652490bdd8531f642a3376cb202145025b549fb449516e5a8816040516122d391815260200190565b60405180910390a1505b50816000841561230c576122f18585612abb565b92506122fd8584612961565b905061230981856128be565b91505b60005b8581101561237e576000888152601460205260409020875188908390811061233957612339612901565b60209081029190910181015182546001808201855560009485529290932090920180546001600160a01b0319166001600160a01b03909316929092179091550161230f565b5060008781526013602090815260408083208790556015825280832086905560169091528120839055600f80548392906123b990849061294e565b909155505050600e555050505050565b6002546040516322a5642760e11b8152600481018390526000916001600160a01b03169063454ac84e90602401600060405180830381865afa158015612413573d6000803e3d6000fd5b505050506040513d6000823e601f3d908101601f1916820160405261243b9190810190612988565b905060005b815181101561264d5760025482516000916001600160a01b03169063b8a740e09085908590811061247357612473612901565b6020026020010151866040518363ffffffff1660e01b81526004016124ad9291906001600160a01b03929092168252602082015260400190565b60e060405180830381865afa1580156124ca573d6000803e3d6000fd5b505050506040513d601f19601f820116820180604052508101906124ee9190612acf565b5050505092505050600a548110156126445761250b60028261294e565b600a5411156125ae5760025483516001600160a01b0390911690637a03ce4f9085908590811061253d5761253d612901565b6020026020010151866040518363ffffffff1660e01b81526004016125779291906001600160a01b03929092168252602082015260400190565b600060405180830381600087803b15801561259157600080fd5b505af11580156125a5573d6000803e3d6000fd5b50505050612644565b60025483516001600160a01b03909116906347f43ef2908590859081106125d7576125d7612901565b6020026020010151866040518363ffffffff1660e01b81526004016126119291906001600160a01b03929092168252602082015260400190565b600060405180830381600087803b15801561262b57600080fd5b505af115801561263f573d6000803e3d6000fd5b505050505b50600101612440565b505050565b6040518060c001604052806006906020820280368337509192915050565b60006020828403121561268257600080fd5b5035919050565b60008151808452602080850194506020840160005b838110156126c35781516001600160a01b03168752958201959082019060010161269e565b509495945050505050565b65ffffffffffff60d01b8616815284602082015260a0604082015260006126f860a0830186612689565b606083019490945250608001529392505050565b6000806040838503121561271f57600080fd5b50508035926020909101359150565b6001600160a01b03811681146115d057600080fd5b60006020828403121561275557600080fd5b81356127608161272e565b9392505050565b8060005b600681101561278c578151151584526020938401939091019060010161276b565b50505050565b6000610280820190508b825260208b60208401528a604084015289606084015265ffffffffffff60d01b891660808401528760a08401528660c084015285151560e084015261010083018560005b60068110156127fd578151835291830191908301906001016127e0565b5050505061280f6101c0830184612767565b9b9a5050505050505050505050565b6000806040838503121561283157600080fd5b8235915060208301356128438161272e565b809150509250929050565b80151581146115d057600080fd5b60006020828403121561286e57600080fd5b81356127608161284e565b634e487b7160e01b600052601160045260246000fd5b6000600182016128a1576128a1612879565b5060010190565b634e487b7160e01b600052604160045260246000fd5b818103818111156128d1576128d1612879565b92915050565b634e487b7160e01b600052601260045260246000fd5b6000826128fc576128fc6128d7565b500690565b634e487b7160e01b600052603260045260246000fd5b805160208201516001600160d01b031980821692919060068310156129465780818460060360031b1b83161693505b505050919050565b808201808211156128d1576128d1612879565b80820281158282048414176128d1576128d1612879565b80516129838161272e565b919050565b6000602080838503121561299b57600080fd5b825167ffffffffffffffff808211156129b357600080fd5b818501915085601f8301126129c757600080fd5b8151818111156129d9576129d96128a8565b8060051b604051601f19603f830116810181811085821117156129fe576129fe6128a8565b604052918252848201925083810185019188831115612a1c57600080fd5b938501935b82851015612a4157612a3285612978565b84529385019392850192612a21565b98975050505050505050565b828152604060208201526000612a666040830184612689565b949350505050565b80516001600160d01b03198116811461298357600080fd5b60008060408385031215612a9957600080fd5b8251612aa48161284e565b9150612ab260208401612a6e565b90509250929050565b600082612aca57612aca6128d7565b500490565b600080600080600080600060e0888a031215612aea57600080fd5b612af388612a6e565b96506020880151955060408801519450606088015193506080880151612b188161272e565b60a089015190935060ff81168114612b2f57600080fd5b60c0890151909250612b408161284e565b809150509295989194975092955056fe9b779b17422d0df92223018b32b4d1fa46e071723d6817e2486d003becc55f004142434445464748494a4b4c4d4e4f505152535455565758595a30313233343536373839a264697066735822122064cfbb497b95b572bcd1cba0485cd70d455a7985440a879a08977f950810f84064736f6c63430008180033",
			"opcodes": "PUSH1 0x80 PUSH1 0x40 MSTORE CALLVALUE DUP1 ISZERO PUSH3 0x11 JUMPI PUSH1 0x0 DUP1 REVERT JUMPDEST POP PUSH1 0x40 MLOAD PUSH3 0x2DEB CODESIZE SUB DUP1 PUSH3 0x2DEB DUP4 CODECOPY DUP2 ADD PUSH1 0x40 DUP2 SWAP1 MSTORE PUSH3 0x34 SWAP2 PUSH3 0x1C7 JUMP JUMPDEST CALLER DUP1 PUSH3 0x5B JUMPI PUSH1 0x40 MLOAD PUSH4 0x1E4FBDF7 PUSH1 0xE0 SHL DUP2 MSTORE PUSH1 0x0 PUSH1 0x4 DUP3 ADD MSTORE PUSH1 0x24 ADD PUSH1 0x40 MLOAD DUP1 SWAP2 SUB SWAP1 REVERT JUMPDEST PUSH3 0x66 DUP2 PUSH3 0x15A JUMP JUMPDEST POP PUSH1 0x1 PUSH32 0x9B779B17422D0DF92223018B32B4D1FA46E071723D6817E2486D003BECC55F00 SSTORE PUSH1 0x1 PUSH1 0x1 PUSH1 0xA0 SHL SUB DUP4 AND PUSH3 0xB3 JUMPI PUSH1 0x40 MLOAD PUSH4 0xD92E233D PUSH1 0xE0 SHL DUP2 MSTORE PUSH1 0x4 ADD PUSH1 0x40 MLOAD DUP1 SWAP2 SUB SWAP1 REVERT JUMPDEST PUSH1 0x1 PUSH1 0x1 PUSH1 0xA0 SHL SUB DUP3 AND PUSH3 0xDB JUMPI PUSH1 0x40 MLOAD PUSH4 0xD92E233D PUSH1 0xE0 SHL DUP2 MSTORE PUSH1 0x4 ADD PUSH1 0x40 MLOAD DUP1 SWAP2 SUB SWAP1 REVERT JUMPDEST PUSH1 0x1 PUSH1 0x1 PUSH1 0xA0 SHL SUB DUP2 AND PUSH3 0x103 JUMPI PUSH1 0x40 MLOAD PUSH4 0xD92E233D PUSH1 0xE0 SHL DUP2 MSTORE PUSH1 0x4 ADD PUSH1 0x40 MLOAD DUP1 SWAP2 SUB SWAP1 REVERT JUMPDEST PUSH1 0x1 DUP1 SLOAD PUSH1 0x1 PUSH1 0x1 PUSH1 0xA0 SHL SUB SWAP5 DUP6 AND PUSH1 0x1 PUSH1 0x1 PUSH1 0xA0 SHL SUB NOT SWAP2 DUP3 AND OR SWAP1 SWAP2 SSTORE PUSH1 0x2 DUP1 SLOAD SWAP4 DUP6 AND SWAP4 DUP3 AND SWAP4 SWAP1 SWAP4 OR SWAP1 SWAP3 SSTORE PUSH1 0x3 DUP1 SLOAD SWAP2 SWAP1 SWAP4 AND SWAP1 DUP3 AND OR DUP3 SSTORE PUSH1 0x5 DUP1 SLOAD SWAP1 SWAP2 AND CALLER OR SWAP1 SSTORE PUSH1 0x10 SSTORE PUSH1 0xC8 PUSH1 0x11 SSTORE PUSH3 0x211 JUMP JUMPDEST PUSH1 0x0 DUP1 SLOAD PUSH1 0x1 PUSH1 0x1 PUSH1 0xA0 SHL SUB DUP4 DUP2 AND PUSH1 0x1 PUSH1 0x1 PUSH1 0xA0 SHL SUB NOT DUP4 AND DUP2 OR DUP5 SSTORE PUSH1 0x40 MLOAD SWAP2 SWAP1 SWAP3 AND SWAP3 DUP4 SWAP2 PUSH32 0x8BE0079C531659141344CD1FD0A4F28419497F9722A3DAAFE3B4186F6B6457E0 SWAP2 SWAP1 LOG3 POP POP JUMP JUMPDEST DUP1 MLOAD PUSH1 0x1 PUSH1 0x1 PUSH1 0xA0 SHL SUB DUP2 AND DUP2 EQ PUSH3 0x1C2 JUMPI PUSH1 0x0 DUP1 REVERT JUMPDEST SWAP2 SWAP1 POP JUMP JUMPDEST PUSH1 0x0 DUP1 PUSH1 0x0 PUSH1 0x60 DUP5 DUP7 SUB SLT ISZERO PUSH3 0x1DD JUMPI PUSH1 0x0 DUP1 REVERT JUMPDEST PUSH3 0x1E8 DUP5 PUSH3 0x1AA JUMP JUMPDEST SWAP3 POP PUSH3 0x1F8 PUSH1 0x20 DUP6 ADD PUSH3 0x1AA JUMP JUMPDEST SWAP2 POP PUSH3 0x208 PUSH1 0x40 DUP6 ADD PUSH3 0x1AA JUMP JUMPDEST SWAP1 POP SWAP3 POP SWAP3 POP SWAP3 JUMP JUMPDEST PUSH2 0x2BCA DUP1 PUSH3 0x221 PUSH1 0x0 CODECOPY PUSH1 0x0 RETURN INVALID PUSH1 0x80 PUSH1 0x40 MSTORE PUSH1 0x4 CALLDATASIZE LT PUSH2 0x381 JUMPI PUSH1 0x0 CALLDATALOAD PUSH1 0xE0 SHR DUP1 PUSH4 0x8A19C8BC GT PUSH2 0x1D1 JUMPI DUP1 PUSH4 0xC4887F15 GT PUSH2 0x102 JUMPI DUP1 PUSH4 0xDA090755 GT PUSH2 0xA0 JUMPI DUP1 PUSH4 0xF13AFB90 GT PUSH2 0x6F JUMPI DUP1 PUSH4 0xF13AFB90 EQ PUSH2 0x9E8 JUMPI DUP1 PUSH4 0xF2FDE38B EQ PUSH2 0xA08 JUMPI DUP1 PUSH4 0xF82A23D1 EQ PUSH2 0xA28 JUMPI DUP1 PUSH4 0xF887EA40 EQ PUSH2 0xA55 JUMPI PUSH1 0x0 DUP1 REVERT JUMPDEST DUP1 PUSH4 0xDA090755 EQ PUSH2 0x973 JUMPI DUP1 PUSH4 0xDD898B2F EQ PUSH2 0x993 JUMPI DUP1 PUSH4 0xE9755B59 EQ PUSH2 0x9B3 JUMPI DUP1 PUSH4 0xEBD2FE41 EQ PUSH2 0x9C8 JUMPI PUSH1 0x0 DUP1 REVERT JUMPDEST DUP1 PUSH4 0xD38970BC GT PUSH2 0xDC JUMPI DUP1 PUSH4 0xD38970BC EQ PUSH2 0x903 JUMPI DUP1 PUSH4 0xD57F9525 EQ PUSH2 0x919 JUMPI DUP1 PUSH4 0xD6194C00 EQ PUSH2 0x92E JUMPI DUP1 PUSH4 0xD65AB5F2 EQ PUSH2 0x95E JUMPI PUSH1 0x0 DUP1 REVERT JUMPDEST DUP1 PUSH4 0xC4887F15 EQ PUSH2 0x8A6 JUMPI DUP1 PUSH4 0xC74B817D EQ PUSH2 0x8D3 JUMPI DUP1 PUSH4 0xCC16FE5B EQ PUSH2 0x8ED JUMPI PUSH1 0x0 DUP1 REVERT JUMPDEST DUP1 PUSH4 0xAC650783 GT PUSH2 0x16F JUMPI DUP1 PUSH4 0xB63FF8A3 GT PUSH2 0x149 JUMPI DUP1 PUSH4 0xB63FF8A3 EQ PUSH2 0x823 JUMPI DUP1 PUSH4 0xB7BC5FB6 EQ PUSH2 0x85C JUMPI DUP1 PUSH4 0xC0D78655 EQ PUSH2 0x871 JUMPI DUP1 PUSH4 0xC33B7586 EQ PUSH2 0x891 JUMPI PUSH1 0x0 DUP1 REVERT JUMPDEST DUP1 PUSH4 0xAC650783 EQ PUSH2 0x7CB JUMPI DUP1 PUSH4 0xB2721164 EQ PUSH2 0x7E0 JUMPI DUP1 PUSH4 0xB303FEEB EQ PUSH2 0x7F6 JUMPI PUSH1 0x0 DUP1 REVERT JUMPDEST DUP1 PUSH4 0x99B465CB GT PUSH2 0x1AB JUMPI DUP1 PUSH4 0x99B465CB EQ PUSH2 0x778 JUMPI DUP1 PUSH4 0x9C737E8F EQ PUSH2 0x78E JUMPI DUP1 PUSH4 0xA1A016A3 EQ PUSH2 0x796 JUMPI DUP1 PUSH4 0xAB221A76 EQ PUSH2 0x7AB JUMPI PUSH1 0x0 DUP1 REVERT JUMPDEST DUP1 PUSH4 0x8A19C8BC EQ PUSH2 0x724 JUMPI DUP1 PUSH4 0x8DA5CB5B EQ PUSH2 0x73A JUMPI DUP1 PUSH4 0x92EAA9D9 EQ PUSH2 0x758 JUMPI PUSH1 0x0 DUP1 REVERT JUMPDEST DUP1 PUSH4 0x41D67D06 GT PUSH2 0x2B6 JUMPI DUP1 PUSH4 0x677BD9FF GT PUSH2 0x254 JUMPI DUP1 PUSH4 0x79EEDBDD GT PUSH2 0x223 JUMPI DUP1 PUSH4 0x79EEDBDD EQ PUSH2 0x676 JUMPI DUP1 PUSH4 0x7F35D49F EQ PUSH2 0x6A6 JUMPI DUP1 PUSH4 0x7F79BA59 EQ PUSH2 0x6BC JUMPI DUP1 PUSH4 0x873F6F9E EQ PUSH2 0x6E9 JUMPI PUSH1 0x0 DUP1 REVERT JUMPDEST DUP1 PUSH4 0x677BD9FF EQ PUSH2 0x616 JUMPI DUP1 PUSH4 0x715018A6 EQ PUSH2 0x636 JUMPI DUP1 PUSH4 0x76D9FF2C EQ PUSH2 0x64B JUMPI DUP1 PUSH4 0x77043591 EQ PUSH2 0x660 JUMPI PUSH1 0x0 DUP1 REVERT JUMPDEST DUP1 PUSH4 0x5E123CE4 GT PUSH2 0x290 JUMPI DUP1 PUSH4 0x5E123CE4 EQ PUSH2 0x5B1 JUMPI DUP1 PUSH4 0x5F303F1C EQ PUSH2 0x5CB JUMPI DUP1 PUSH4 0x63D5AB8D EQ PUSH2 0x5EB JUMPI DUP1 PUSH4 0x6641EA08 EQ PUSH2 0x601 JUMPI PUSH1 0x0 DUP1 REVERT JUMPDEST DUP1 PUSH4 0x41D67D06 EQ PUSH2 0x566 JUMPI DUP1 PUSH4 0x456990C7 EQ PUSH2 0x57C JUMPI DUP1 PUSH4 0x46A662BF EQ PUSH2 0x59C JUMPI PUSH1 0x0 DUP1 REVERT JUMPDEST DUP1 PUSH4 0x1A3B8E8C GT PUSH2 0x323 JUMPI DUP1 PUSH4 0x293C2958 GT PUSH2 0x2FD JUMPI DUP1 PUSH4 0x293C2958 EQ PUSH2 0x4DD JUMPI DUP1 PUSH4 0x2EE0C463 EQ PUSH2 0x508 JUMPI DUP1 PUSH4 0x3DEB6CAE EQ PUSH2 0x532 JUMPI DUP1 PUSH4 0x4168632D EQ PUSH2 0x547 JUMPI PUSH1 0x0 DUP1 REVERT JUMPDEST DUP1 PUSH4 0x1A3B8E8C EQ PUSH2 0x47A JUMPI DUP1 PUSH4 0x1AD41D14 EQ PUSH2 0x49A JUMPI DUP1 PUSH4 0x231E832D EQ PUSH2 0x4BA JUMPI PUSH1 0x0 DUP1 REVERT JUMPDEST DUP1 PUSH4 0xA8506CA GT PUSH2 0x35F JUMPI DUP1 PUSH4 0xA8506CA EQ PUSH2 0x41A JUMPI DUP1 PUSH4 0xB7A567B EQ PUSH2 0x42F JUMPI DUP1 PUSH4 0xF67E7D5 EQ PUSH2 0x444 JUMPI DUP1 PUSH4 0x17EBF6AE EQ PUSH2 0x472 JUMPI PUSH1 0x0 DUP1 REVERT JUMPDEST DUP1 PUSH4 0x2E28C70 EQ PUSH2 0x386 JUMPI DUP1 PUSH4 0x3E3CD6A EQ PUSH2 0x3C0 JUMPI DUP1 PUSH4 0x7F19EBA EQ PUSH2 0x3F8 JUMPI JUMPDEST PUSH1 0x0 DUP1 REVERT JUMPDEST CALLVALUE DUP1 ISZERO PUSH2 0x392 JUMPI PUSH1 0x0 DUP1 REVERT JUMPDEST POP PUSH2 0x3A6 PUSH2 0x3A1 CALLDATASIZE PUSH1 0x4 PUSH2 0x2670 JUMP JUMPDEST PUSH2 0xA75 JUMP JUMPDEST PUSH1 0x40 MLOAD PUSH2 0x3B7 SWAP6 SWAP5 SWAP4 SWAP3 SWAP2 SWAP1 PUSH2 0x26CE JUMP JUMPDEST PUSH1 0x40 MLOAD DUP1 SWAP2 SUB SWAP1 RETURN JUMPDEST CALLVALUE DUP1 ISZERO PUSH2 0x3CC JUMPI PUSH1 0x0 DUP1 REVERT JUMPDEST POP PUSH2 0x3E0 PUSH2 0x3DB CALLDATASIZE PUSH1 0x4 PUSH2 0x270C JUMP JUMPDEST PUSH2 0xB22 JUMP JUMPDEST PUSH1 0x40 MLOAD PUSH1 0x1 PUSH1 0x1 PUSH1 0xA0 SHL SUB SWAP1 SWAP2 AND DUP2 MSTORE PUSH1 0x20 ADD PUSH2 0x3B7 JUMP JUMPDEST CALLVALUE DUP1 ISZERO PUSH2 0x404 JUMPI PUSH1 0x0 DUP1 REVERT JUMPDEST POP PUSH2 0x418 PUSH2 0x413 CALLDATASIZE PUSH1 0x4 PUSH2 0x2743 JUMP JUMPDEST PUSH2 0xB5A JUMP JUMPDEST STOP JUMPDEST CALLVALUE DUP1 ISZERO PUSH2 0x426 JUMPI PUSH1 0x0 DUP1 REVERT JUMPDEST POP PUSH2 0x418 PUSH2 0xBD3 JUMP JUMPDEST CALLVALUE DUP1 ISZERO PUSH2 0x43B JUMPI PUSH1 0x0 DUP1 REVERT JUMPDEST POP PUSH2 0x418 PUSH2 0xBEA JUMP JUMPDEST CALLVALUE DUP1 ISZERO PUSH2 0x450 JUMPI PUSH1 0x0 DUP1 REVERT JUMPDEST POP PUSH2 0x459 PUSH2 0xCFF JUMP JUMPDEST PUSH1 0x40 MLOAD PUSH1 0x1 PUSH1 0x1 PUSH1 0xD0 SHL SUB NOT SWAP1 SWAP2 AND DUP2 MSTORE PUSH1 0x20 ADD PUSH2 0x3B7 JUMP JUMPDEST PUSH2 0x418 PUSH2 0xE59 JUMP JUMPDEST CALLVALUE DUP1 ISZERO PUSH2 0x486 JUMPI PUSH1 0x0 DUP1 REVERT JUMPDEST POP PUSH1 0x1 SLOAD PUSH2 0x3E0 SWAP1 PUSH1 0x1 PUSH1 0x1 PUSH1 0xA0 SHL SUB AND DUP2 JUMP JUMPDEST CALLVALUE DUP1 ISZERO PUSH2 0x4A6 JUMPI PUSH1 0x0 DUP1 REVERT JUMPDEST POP PUSH2 0x418 PUSH2 0x4B5 CALLDATASIZE PUSH1 0x4 PUSH2 0x2670 JUMP JUMPDEST PUSH2 0xF2A JUMP JUMPDEST CALLVALUE DUP1 ISZERO PUSH2 0x4C6 JUMPI PUSH1 0x0 DUP1 REVERT JUMPDEST POP PUSH2 0x4CF PUSH2 0xF8F JUMP JUMPDEST PUSH1 0x40 MLOAD SWAP1 DUP2 MSTORE PUSH1 0x20 ADD PUSH2 0x3B7 JUMP JUMPDEST CALLVALUE DUP1 ISZERO PUSH2 0x4E9 JUMPI PUSH1 0x0 DUP1 REVERT JUMPDEST POP PUSH2 0x4F2 PUSH2 0xF9F JUMP JUMPDEST PUSH1 0x40 MLOAD PUSH2 0x3B7 SWAP11 SWAP10 SWAP9 SWAP8 SWAP7 SWAP6 SWAP5 SWAP4 SWAP3 SWAP2 SWAP1 PUSH2 0x2792 JUMP JUMPDEST CALLVALUE DUP1 ISZERO PUSH2 0x514 JUMPI PUSH1 0x0 DUP1 REVERT JUMPDEST POP PUSH1 0x18 SLOAD PUSH2 0x522 SWAP1 PUSH1 0xFF AND DUP2 JUMP JUMPDEST PUSH1 0x40 MLOAD SWAP1 ISZERO ISZERO DUP2 MSTORE PUSH1 0x20 ADD PUSH2 0x3B7 JUMP JUMPDEST CALLVALUE DUP1 ISZERO PUSH2 0x53E JUMPI PUSH1 0x0 DUP1 REVERT JUMPDEST POP PUSH2 0x4CF PUSH1 0xF DUP2 JUMP JUMPDEST CALLVALUE DUP1 ISZERO PUSH2 0x553 JUMPI PUSH1 0x0 DUP1 REVERT JUMPDEST POP PUSH1 0x18 SLOAD PUSH2 0x522 SWAP1 PUSH2 0x100 SWAP1 DIV PUSH1 0xFF AND DUP2 JUMP JUMPDEST CALLVALUE DUP1 ISZERO PUSH2 0x572 JUMPI PUSH1 0x0 DUP1 REVERT JUMPDEST POP PUSH2 0x4CF PUSH1 0x11 SLOAD DUP2 JUMP JUMPDEST CALLVALUE DUP1 ISZERO PUSH2 0x588 JUMPI PUSH1 0x0 DUP1 REVERT JUMPDEST POP PUSH2 0x418 PUSH2 0x597 CALLDATASIZE PUSH1 0x4 PUSH2 0x2670 JUMP JUMPDEST PUSH2 0x1082 JUMP JUMPDEST CALLVALUE DUP1 ISZERO PUSH2 0x5A8 JUMPI PUSH1 0x0 DUP1 REVERT JUMPDEST POP PUSH2 0x418 PUSH2 0x10E2 JUMP JUMPDEST CALLVALUE DUP1 ISZERO PUSH2 0x5BD JUMPI PUSH1 0x0 DUP1 REVERT JUMPDEST POP PUSH1 0xD SLOAD PUSH2 0x522 SWAP1 PUSH1 0xFF AND DUP2 JUMP JUMPDEST CALLVALUE DUP1 ISZERO PUSH2 0x5D7 JUMPI PUSH1 0x0 DUP1 REVERT JUMPDEST POP PUSH2 0x418 PUSH2 0x5E6 CALLDATASIZE PUSH1 0x4 PUSH2 0x2743 JUMP JUMPDEST PUSH2 0x1285 JUMP JUMPDEST CALLVALUE DUP1 ISZERO PUSH2 0x5F7 JUMPI PUSH1 0x0 DUP1 REVERT JUMPDEST POP PUSH2 0x4CF PUSH1 0x6 SLOAD DUP2 JUMP JUMPDEST CALLVALUE DUP1 ISZERO PUSH2 0x60D JUMPI PUSH1 0x0 DUP1 REVERT JUMPDEST POP PUSH2 0x4CF PUSH2 0x12D6 JUMP JUMPDEST CALLVALUE DUP1 ISZERO PUSH2 0x622 JUMPI PUSH1 0x0 DUP1 REVERT JUMPDEST POP PUSH2 0x418 PUSH2 0x631 CALLDATASIZE PUSH1 0x4 PUSH2 0x2670 JUMP JUMPDEST PUSH2 0x12EF JUMP JUMPDEST CALLVALUE DUP1 ISZERO PUSH2 0x642 JUMPI PUSH1 0x0 DUP1 REVERT JUMPDEST POP PUSH2 0x418 PUSH2 0x15D3 JUMP JUMPDEST CALLVALUE DUP1 ISZERO PUSH2 0x657 JUMPI PUSH1 0x0 DUP1 REVERT JUMPDEST POP PUSH2 0x418 PUSH2 0x15E5 JUMP JUMPDEST CALLVALUE DUP1 ISZERO PUSH2 0x66C JUMPI PUSH1 0x0 DUP1 REVERT JUMPDEST POP PUSH2 0x4CF PUSH1 0x10 SLOAD DUP2 JUMP JUMPDEST CALLVALUE DUP1 ISZERO PUSH2 0x682 JUMPI PUSH1 0x0 DUP1 REVERT JUMPDEST POP PUSH2 0x459 PUSH2 0x691 CALLDATASIZE PUSH1 0x4 PUSH2 0x2670 JUMP JUMPDEST PUSH1 0x12 PUSH1 0x20 MSTORE PUSH1 0x0 SWAP1 DUP2 MSTORE PUSH1 0x40 SWAP1 KECCAK256 SLOAD PUSH1 0xD0 SHL DUP2 JUMP JUMPDEST CALLVALUE DUP1 ISZERO PUSH2 0x6B2 JUMPI PUSH1 0x0 DUP1 REVERT JUMPDEST POP PUSH2 0x4CF PUSH2 0xE01 DUP2 JUMP JUMPDEST CALLVALUE DUP1 ISZERO PUSH2 0x6C8 JUMPI PUSH1 0x0 DUP1 REVERT JUMPDEST POP PUSH2 0x4CF PUSH2 0x6D7 CALLDATASIZE PUSH1 0x4 PUSH2 0x2670 JUMP JUMPDEST PUSH1 0x13 PUSH1 0x20 MSTORE PUSH1 0x0 SWAP1 DUP2 MSTORE PUSH1 0x40 SWAP1 KECCAK256 SLOAD DUP2 JUMP JUMPDEST CALLVALUE DUP1 ISZERO PUSH2 0x6F5 JUMPI PUSH1 0x0 DUP1 REVERT JUMPDEST POP PUSH2 0x522 PUSH2 0x704 CALLDATASIZE PUSH1 0x4 PUSH2 0x281E JUMP JUMPDEST PUSH1 0x17 PUSH1 0x20 SWAP1 DUP2 MSTORE PUSH1 0x0 SWAP3 DUP4 MSTORE PUSH1 0x40 DUP1 DUP5 KECCAK256 SWAP1 SWAP2 MSTORE SWAP1 DUP3 MSTORE SWAP1 KECCAK256 SLOAD PUSH1 0xFF AND DUP2 JUMP JUMPDEST CALLVALUE DUP1 ISZERO PUSH2 0x730 JUMPI PUSH1 0x0 DUP1 REVERT JUMPDEST POP PUSH2 0x4CF PUSH1 0xA SLOAD DUP2 JUMP JUMPDEST CALLVALUE DUP1 ISZERO PUSH2 0x746 JUMPI PUSH1 0x0 DUP1 REVERT JUMPDEST POP PUSH1 0x0 SLOAD PUSH1 0x1 PUSH1 0x1 PUSH1 0xA0 SHL SUB AND PUSH2 0x3E0 JUMP JUMPDEST CALLVALUE DUP1 ISZERO PUSH2 0x764 JUMPI PUSH1 0x0 DUP1 REVERT JUMPDEST POP PUSH1 0x4 SLOAD PUSH2 0x3E0 SWAP1 PUSH1 0x1 PUSH1 0x1 PUSH1 0xA0 SHL SUB AND DUP2 JUMP JUMPDEST CALLVALUE DUP1 ISZERO PUSH2 0x784 JUMPI PUSH1 0x0 DUP1 REVERT JUMPDEST POP PUSH2 0x4CF PUSH1 0xB SLOAD DUP2 JUMP JUMPDEST PUSH2 0x418 PUSH2 0x15FA JUMP JUMPDEST CALLVALUE DUP1 ISZERO PUSH2 0x7A2 JUMPI PUSH1 0x0 DUP1 REVERT JUMPDEST POP PUSH2 0x4CF PUSH2 0x1602 JUMP JUMPDEST CALLVALUE DUP1 ISZERO PUSH2 0x7B7 JUMPI PUSH1 0x0 DUP1 REVERT JUMPDEST POP PUSH1 0x5 SLOAD PUSH2 0x3E0 SWAP1 PUSH1 0x1 PUSH1 0x1 PUSH1 0xA0 SHL SUB AND DUP2 JUMP JUMPDEST CALLVALUE DUP1 ISZERO PUSH2 0x7D7 JUMPI PUSH1 0x0 DUP1 REVERT JUMPDEST POP PUSH2 0x4CF PUSH1 0x2 DUP2 JUMP JUMPDEST CALLVALUE DUP1 ISZERO PUSH2 0x7EC JUMPI PUSH1 0x0 DUP1 REVERT JUMPDEST POP PUSH2 0x4CF PUSH1 0xE SLOAD DUP2 JUMP JUMPDEST CALLVALUE DUP1 ISZERO PUSH2 0x802 JUMPI PUSH1 0x0 DUP1 REVERT JUMPDEST POP PUSH2 0x4CF PUSH2 0x811 CALLDATASIZE PUSH1 0x4 PUSH2 0x2670 JUMP JUMPDEST PUSH1 0x16 PUSH1 0x20 MSTORE PUSH1 0x0 SWAP1 DUP2 MSTORE PUSH1 0x40 SWAP1 KECCAK256 SLOAD DUP2 JUMP JUMPDEST CALLVALUE DUP1 ISZERO PUSH2 0x82F JUMPI PUSH1 0x0 DUP1 REVERT JUMPDEST POP PUSH2 0x843 PUSH2 0x83E CALLDATASIZE PUSH1 0x4 PUSH2 0x2670 JUMP JUMPDEST PUSH2 0x1632 JUMP JUMPDEST PUSH1 0x40 MLOAD PUSH1 0x1 PUSH1 0x1 PUSH1 0xF8 SHL SUB NOT SWAP1 SWAP2 AND DUP2 MSTORE PUSH1 0x20 ADD PUSH2 0x3B7 JUMP JUMPDEST CALLVALUE DUP1 ISZERO PUSH2 0x868 JUMPI PUSH1 0x0 DUP1 REVERT JUMPDEST POP PUSH2 0x4CF PUSH1 0x6 DUP2 JUMP JUMPDEST CALLVALUE DUP1 ISZERO PUSH2 0x87D JUMPI PUSH1 0x0 DUP1 REVERT JUMPDEST POP PUSH2 0x418 PUSH2 0x88C CALLDATASIZE PUSH1 0x4 PUSH2 0x2743 JUMP JUMPDEST PUSH2 0x169F JUMP JUMPDEST CALLVALUE DUP1 ISZERO PUSH2 0x89D JUMPI PUSH1 0x0 DUP1 REVERT JUMPDEST POP PUSH2 0x522 PUSH2 0x16F0 JUMP JUMPDEST CALLVALUE DUP1 ISZERO PUSH2 0x8B2 JUMPI PUSH1 0x0 DUP1 REVERT JUMPDEST POP PUSH2 0x4CF PUSH2 0x8C1 CALLDATASIZE PUSH1 0x4 PUSH2 0x2670 JUMP JUMPDEST PUSH1 0x7 PUSH1 0x20 MSTORE PUSH1 0x0 SWAP1 DUP2 MSTORE PUSH1 0x40 SWAP1 KECCAK256 SLOAD DUP2 JUMP JUMPDEST CALLVALUE DUP1 ISZERO PUSH2 0x8DF JUMPI PUSH1 0x0 DUP1 REVERT JUMPDEST POP PUSH1 0x9 SLOAD PUSH2 0x522 SWAP1 PUSH1 0xFF AND DUP2 JUMP JUMPDEST CALLVALUE DUP1 ISZERO PUSH2 0x8F9 JUMPI PUSH1 0x0 DUP1 REVERT JUMPDEST POP PUSH2 0x4CF PUSH1 0xC SLOAD DUP2 JUMP JUMPDEST CALLVALUE DUP1 ISZERO PUSH2 0x90F JUMPI PUSH1 0x0 DUP1 REVERT JUMPDEST POP PUSH2 0x4CF PUSH1 0xF SLOAD DUP2 JUMP JUMPDEST CALLVALUE DUP1 ISZERO PUSH2 0x925 JUMPI PUSH1 0x0 DUP1 REVERT JUMPDEST POP PUSH2 0x418 PUSH2 0x16FF JUMP JUMPDEST CALLVALUE DUP1 ISZERO PUSH2 0x93A JUMPI PUSH1 0x0 DUP1 REVERT JUMPDEST POP PUSH2 0x522 PUSH2 0x949 CALLDATASIZE PUSH1 0x4 PUSH2 0x2670 JUMP JUMPDEST PUSH1 0x8 PUSH1 0x20 MSTORE PUSH1 0x0 SWAP1 DUP2 MSTORE PUSH1 0x40 SWAP1 KECCAK256 SLOAD PUSH1 0xFF AND DUP2 JUMP JUMPDEST CALLVALUE DUP1 ISZERO PUSH2 0x96A JUMPI PUSH1 0x0 DUP1 REVERT JUMPDEST POP PUSH2 0x418 PUSH2 0x1718 JUMP JUMPDEST CALLVALUE DUP1 ISZERO PUSH2 0x97F JUMPI PUSH1 0x0 DUP1 REVERT JUMPDEST POP PUSH1 0x2 SLOAD PUSH2 0x3E0 SWAP1 PUSH1 0x1 PUSH1 0x1 PUSH1 0xA0 SHL SUB AND DUP2 JUMP JUMPDEST CALLVALUE DUP1 ISZERO PUSH2 0x99F JUMPI PUSH1 0x0 DUP1 REVERT JUMPDEST POP PUSH2 0x418 PUSH2 0x9AE CALLDATASIZE PUSH1 0x4 PUSH2 0x2743 JUMP JUMPDEST PUSH2 0x18B7 JUMP JUMPDEST CALLVALUE DUP1 ISZERO PUSH2 0x9BF JUMPI PUSH1 0x0 DUP1 REVERT JUMPDEST POP PUSH2 0x418 PUSH2 0x1908 JUMP JUMPDEST CALLVALUE DUP1 ISZERO PUSH2 0x9D4 JUMPI PUSH1 0x0 DUP1 REVERT JUMPDEST POP PUSH2 0x418 PUSH2 0x9E3 CALLDATASIZE PUSH1 0x4 PUSH2 0x285C JUMP JUMPDEST PUSH2 0x191C JUMP JUMPDEST CALLVALUE DUP1 ISZERO PUSH2 0x9F4 JUMPI PUSH1 0x0 DUP1 REVERT JUMPDEST POP PUSH2 0x418 PUSH2 0xA03 CALLDATASIZE PUSH1 0x4 PUSH2 0x2743 JUMP JUMPDEST PUSH2 0x1937 JUMP JUMPDEST CALLVALUE DUP1 ISZERO PUSH2 0xA14 JUMPI PUSH1 0x0 DUP1 REVERT JUMPDEST POP PUSH2 0x418 PUSH2 0xA23 CALLDATASIZE PUSH1 0x4 PUSH2 0x2743 JUMP JUMPDEST PUSH2 0x1961 JUMP JUMPDEST CALLVALUE DUP1 ISZERO PUSH2 0xA34 JUMPI PUSH1 0x0 DUP1 REVERT JUMPDEST POP PUSH2 0x4CF PUSH2 0xA43 CALLDATASIZE PUSH1 0x4 PUSH2 0x2670 JUMP JUMPDEST PUSH1 0x15 PUSH1 0x20 MSTORE PUSH1 0x0 SWAP1 DUP2 MSTORE PUSH1 0x40 SWAP1 KECCAK256 SLOAD DUP2 JUMP JUMPDEST CALLVALUE DUP1 ISZERO PUSH2 0xA61 JUMPI PUSH1 0x0 DUP1 REVERT JUMPDEST POP PUSH1 0x3 SLOAD PUSH2 0x3E0 SWAP1 PUSH1 0x1 PUSH1 0x1 PUSH1 0xA0 SHL SUB AND DUP2 JUMP JUMPDEST PUSH1 0x0 DUP2 DUP2 MSTORE PUSH1 0x12 PUSH1 0x20 SWAP1 DUP2 MSTORE PUSH1 0x40 DUP1 DUP4 KECCAK256 SLOAD PUSH1 0x13 DUP4 MSTORE DUP2 DUP5 KECCAK256 SLOAD PUSH1 0x14 DUP5 MSTORE DUP3 DUP6 KECCAK256 DUP1 SLOAD DUP5 MLOAD DUP2 DUP8 MUL DUP2 ADD DUP8 ADD SWAP1 SWAP6 MSTORE DUP1 DUP6 MSTORE PUSH1 0xD0 SWAP4 SWAP1 SWAP4 SHL SWAP6 SWAP2 SWAP5 PUSH1 0x60 SWAP5 SWAP3 SWAP4 DUP5 SWAP4 SWAP3 SWAP2 DUP4 ADD DUP3 DUP3 DUP1 ISZERO PUSH2 0xAF2 JUMPI PUSH1 0x20 MUL DUP3 ADD SWAP2 SWAP1 PUSH1 0x0 MSTORE PUSH1 0x20 PUSH1 0x0 KECCAK256 SWAP1 JUMPDEST DUP2 SLOAD PUSH1 0x1 PUSH1 0x1 PUSH1 0xA0 SHL SUB AND DUP2 MSTORE PUSH1 0x1 SWAP1 SWAP2 ADD SWAP1 PUSH1 0x20 ADD DUP1 DUP4 GT PUSH2 0xAD4 JUMPI JUMPDEST POP POP POP PUSH1 0x0 SWAP9 DUP10 MSTORE POP POP PUSH1 0x15 PUSH1 0x20 SWAP1 DUP2 MSTORE PUSH1 0x40 DUP1 DUP10 KECCAK256 SLOAD PUSH1 0x16 SWAP1 SWAP3 MSTORE SWAP1 SWAP8 KECCAK256 SLOAD SWAP6 SWAP8 SWAP5 SWAP7 SWAP1 SWAP6 SWAP1 SWAP5 SWAP1 SWAP4 POP SWAP2 POP POP JUMP JUMPDEST PUSH1 0x14 PUSH1 0x20 MSTORE DUP2 PUSH1 0x0 MSTORE PUSH1 0x40 PUSH1 0x0 KECCAK256 DUP2 DUP2 SLOAD DUP2 LT PUSH2 0xB3E JUMPI PUSH1 0x0 DUP1 REVERT JUMPDEST PUSH1 0x0 SWAP2 DUP3 MSTORE PUSH1 0x20 SWAP1 SWAP2 KECCAK256 ADD SLOAD PUSH1 0x1 PUSH1 0x1 PUSH1 0xA0 SHL SUB AND SWAP2 POP DUP3 SWAP1 POP JUMP JUMPDEST PUSH2 0xB62 PUSH2 0x199C JUMP JUMPDEST PUSH1 0x1 PUSH1 0x1 PUSH1 0xA0 SHL SUB DUP2 AND PUSH2 0xB89 JUMPI PUSH1 0x40 MLOAD PUSH4 0xD92E233D PUSH1 0xE0 SHL DUP2 MSTORE PUSH1 0x4 ADD PUSH1 0x40 MLOAD DUP1 SWAP2 SUB SWAP1 REVERT JUMPDEST PUSH1 0x5 DUP1 SLOAD PUSH1 0x1 PUSH1 0x1 PUSH1 0xA0 SHL SUB NOT AND PUSH1 0x1 PUSH1 0x1 PUSH1 0xA0 SHL SUB DUP4 AND SWAP1 DUP2 OR SWAP1 SWAP2 SSTORE PUSH1 0x40 MLOAD PUSH32 0x1F53E003AAF46AF23AEB50E85F438D6F0C33618CE44E3545F1EC030C79B17729 SWAP1 PUSH1 0x0 SWAP1 LOG2 POP JUMP JUMPDEST PUSH2 0xBDB PUSH2 0x199C JUMP JUMPDEST PUSH1 0x18 DUP1 SLOAD PUSH1 0xFF NOT AND PUSH1 0x1 OR SWAP1 SSTORE JUMP JUMPDEST PUSH2 0xBF2 PUSH2 0x19C9 JUMP JUMPDEST PUSH1 0x3 SLOAD PUSH1 0x1 PUSH1 0x1 PUSH1 0xA0 SHL SUB AND CALLER EQ PUSH2 0xC1D JUMPI PUSH1 0x40 MLOAD PUSH4 0x91655201 PUSH1 0xE0 SHL DUP2 MSTORE PUSH1 0x4 ADD PUSH1 0x40 MLOAD DUP1 SWAP2 SUB SWAP1 REVERT JUMPDEST PUSH1 0xD SLOAD PUSH1 0xFF AND PUSH2 0xC40 JUMPI PUSH1 0x40 MLOAD PUSH4 0x3A5F7B57 PUSH1 0xE0 SHL DUP2 MSTORE PUSH1 0x4 ADD PUSH1 0x40 MLOAD DUP1 SWAP2 SUB SWAP1 REVERT JUMPDEST PUSH2 0xC48 PUSH2 0x19E5 JUMP JUMPDEST ISZERO PUSH2 0xC66 JUMPI PUSH1 0x40 MLOAD PUSH4 0x717824FB PUSH1 0xE0 SHL DUP2 MSTORE PUSH1 0x4 ADD PUSH1 0x40 MLOAD DUP1 SWAP2 SUB SWAP1 REVERT JUMPDEST PUSH1 0x6 DUP1 SLOAD SWAP1 PUSH1 0x0 PUSH2 0xC76 DUP4 PUSH2 0x288F JUMP JUMPDEST SWAP1 SWAP2 SSTORE POP POP PUSH1 0xB SLOAD PUSH1 0x0 SWAP1 DUP2 MSTORE PUSH1 0x7 PUSH1 0x20 MSTORE PUSH1 0x40 DUP2 KECCAK256 DUP1 SLOAD SWAP2 PUSH2 0xC98 DUP4 PUSH2 0x288F JUMP JUMPDEST SWAP2 SWAP1 POP SSTORE POP PUSH1 0xA SLOAD PUSH32 0x494D93A08DCA016BFF87FC5E35DE704731B23D47EB35DA9499BE2DDB7536DA22 PUSH1 0x6 SLOAD PUSH1 0xB SLOAD PUSH1 0x40 MLOAD PUSH2 0xCDE SWAP3 SWAP2 SWAP1 SWAP2 DUP3 MSTORE PUSH1 0x20 DUP3 ADD MSTORE PUSH1 0x40 ADD SWAP1 JUMP JUMPDEST PUSH1 0x40 MLOAD DUP1 SWAP2 SUB SWAP1 LOG2 PUSH2 0xCFD PUSH1 0x1 PUSH1 0x0 DUP1 MLOAD PUSH1 0x20 PUSH2 0x2B51 DUP4 CODECOPY DUP2 MLOAD SWAP2 MSTORE SSTORE JUMP JUMPDEST JUMP JUMPDEST PUSH1 0x40 DUP1 MLOAD PUSH1 0x6 DUP1 DUP3 MSTORE DUP2 DUP4 ADD SWAP1 SWAP3 MSTORE PUSH1 0x0 SWAP2 DUP3 SWAP2 SWAP1 PUSH1 0x20 DUP3 ADD DUP2 DUP1 CALLDATASIZE DUP4 CALLDATACOPY ADD SWAP1 POP POP SWAP1 POP PUSH1 0x1 JUMPDEST PUSH1 0x6 DUP2 GT PUSH2 0xE49 JUMPI PUSH1 0x0 PUSH2 0xD3B PUSH1 0x1 DUP4 PUSH2 0x28BE JUMP JUMPDEST SWAP1 POP PUSH1 0xB SLOAD DUP3 LT ISZERO PUSH2 0xDC7 JUMPI PUSH1 0x40 MLOAD DUP1 PUSH1 0x60 ADD PUSH1 0x40 MSTORE DUP1 PUSH1 0x24 DUP2 MSTORE PUSH1 0x20 ADD PUSH2 0x2B71 PUSH1 0x24 SWAP2 CODECOPY PUSH1 0x0 DUP4 DUP2 MSTORE PUSH1 0x7 PUSH1 0x20 MSTORE PUSH1 0x40 SWAP1 KECCAK256 SLOAD PUSH2 0xD7B SWAP1 PUSH1 0x24 SWAP1 PUSH2 0x28ED JUMP JUMPDEST DUP2 MLOAD DUP2 LT PUSH2 0xD8B JUMPI PUSH2 0xD8B PUSH2 0x2901 JUMP JUMPDEST PUSH1 0x20 ADD ADD MLOAD PUSH1 0xF8 SHR PUSH1 0xF8 SHL DUP4 DUP3 PUSH1 0xFF AND DUP2 MLOAD DUP2 LT PUSH2 0xDAB JUMPI PUSH2 0xDAB PUSH2 0x2901 JUMP JUMPDEST PUSH1 0x20 ADD ADD SWAP1 PUSH1 0x1 PUSH1 0x1 PUSH1 0xF8 SHL SUB NOT AND SWAP1 DUP2 PUSH1 0x0 BYTE SWAP1 MSTORE8 POP PUSH2 0xE36 JUMP JUMPDEST PUSH1 0xB SLOAD DUP3 SUB PUSH2 0xE04 JUMPI PUSH1 0x40 MLOAD DUP1 PUSH1 0x60 ADD PUSH1 0x40 MSTORE DUP1 PUSH1 0x24 DUP2 MSTORE PUSH1 0x20 ADD PUSH2 0x2B71 PUSH1 0x24 SWAP2 CODECOPY PUSH1 0x0 DUP4 DUP2 MSTORE PUSH1 0x7 PUSH1 0x20 MSTORE PUSH1 0x40 SWAP1 KECCAK256 SLOAD PUSH2 0xD7B SWAP1 PUSH1 0x24 SWAP1 PUSH2 0x28ED JUMP JUMPDEST PUSH1 0x0 PUSH1 0xF8 SHL DUP4 DUP3 PUSH1 0xFF AND DUP2 MLOAD DUP2 LT PUSH2 0xE1E JUMPI PUSH2 0xE1E PUSH2 0x2901 JUMP JUMPDEST PUSH1 0x20 ADD ADD SWAP1 PUSH1 0x1 PUSH1 0x1 PUSH1 0xF8 SHL SUB NOT AND SWAP1 DUP2 PUSH1 0x0 BYTE SWAP1 MSTORE8 POP JUMPDEST POP DUP1 PUSH2 0xE41 DUP2 PUSH2 0x288F JUMP JUMPDEST SWAP2 POP POP PUSH2 0xD26 JUMP JUMPDEST POP PUSH2 0xE53 DUP2 PUSH2 0x2917 JUMP JUMPDEST SWAP2 POP POP SWAP1 JUMP JUMPDEST CALLVALUE PUSH1 0x0 SUB PUSH2 0xE7A JUMPI PUSH1 0x40 MLOAD PUSH4 0x1F2A2005 PUSH1 0xE0 SHL DUP2 MSTORE PUSH1 0x4 ADD PUSH1 0x40 MLOAD DUP1 SWAP2 SUB SWAP1 REVERT JUMPDEST CALLVALUE PUSH1 0xE PUSH1 0x0 DUP3 DUP3 SLOAD PUSH2 0xE8C SWAP2 SWAP1 PUSH2 0x294E JUMP JUMPDEST SWAP1 SWAP2 SSTORE POP POP PUSH1 0x1 SLOAD PUSH1 0x40 DUP1 MLOAD PUSH4 0xD0E30DB PUSH1 0xE4 SHL DUP2 MSTORE SWAP1 MLOAD PUSH1 0x1 PUSH1 0x1 PUSH1 0xA0 SHL SUB SWAP1 SWAP3 AND SWAP2 PUSH4 0xD0E30DB0 SWAP2 CALLVALUE SWAP2 PUSH1 0x4 DUP1 DUP4 ADD SWAP3 PUSH1 0x0 SWAP3 SWAP2 SWAP1 DUP3 SWAP1 SUB ADD DUP2 DUP6 DUP9 DUP1 EXTCODESIZE ISZERO DUP1 ISZERO PUSH2 0xED8 JUMPI PUSH1 0x0 DUP1 REVERT JUMPDEST POP GAS CALL ISZERO DUP1 ISZERO PUSH2 0xEEC JUMPI RETURNDATASIZE PUSH1 0x0 DUP1 RETURNDATACOPY RETURNDATASIZE PUSH1 0x0 REVERT JUMPDEST POP POP PUSH1 0x40 MLOAD CALLVALUE DUP2 MSTORE CALLER SWAP4 POP PUSH32 0xF0D496561FE25891CA8568B6877B038238629D8DBE5777373589BECE931DC172 SWAP3 POP PUSH1 0x20 ADD SWAP1 POP JUMPDEST PUSH1 0x40 MLOAD DUP1 SWAP2 SUB SWAP1 LOG2 JUMP JUMPDEST PUSH2 0xF32 PUSH2 0x199C JUMP JUMPDEST DUP1 PUSH1 0x0 SUB PUSH2 0xF53 JUMPI PUSH1 0x40 MLOAD PUSH4 0x40250F01 PUSH1 0xE1 SHL DUP2 MSTORE PUSH1 0x4 ADD PUSH1 0x40 MLOAD DUP1 SWAP2 SUB SWAP1 REVERT JUMPDEST PUSH1 0x10 DUP2 SWAP1 SSTORE PUSH1 0x40 MLOAD DUP2 DUP2 MSTORE PUSH32 0x1E64FF98418E31D486498B471741CC3FF92302FA146E6E124E3025186CFAB465 SWAP1 PUSH1 0x20 ADD JUMPDEST PUSH1 0x40 MLOAD DUP1 SWAP2 SUB SWAP1 LOG1 POP JUMP JUMPDEST PUSH2 0xF9C PUSH1 0xF PUSH2 0xE01 PUSH2 0x294E JUMP JUMPDEST DUP2 JUMP JUMPDEST PUSH1 0x0 DUP1 PUSH1 0x0 DUP1 PUSH1 0x0 DUP1 PUSH1 0x0 DUP1 PUSH2 0xFB3 PUSH2 0x2652 JUMP JUMPDEST PUSH2 0xFBB PUSH2 0x2652 JUMP JUMPDEST PUSH1 0xA SLOAD SWAP10 POP PUSH1 0xB SLOAD SWAP9 POP PUSH1 0xC SLOAD SWAP8 POP PUSH1 0x6 SLOAD SWAP7 POP PUSH2 0xFD7 PUSH2 0xCFF JUMP JUMPDEST SWAP6 POP PUSH1 0xE SLOAD SWAP5 POP PUSH1 0xF SLOAD SWAP4 POP PUSH2 0xFEB PUSH2 0x19E5 JUMP JUMPDEST SWAP3 POP PUSH1 0x0 JUMPDEST PUSH1 0x6 DUP2 LT ISZERO PUSH2 0x1075 JUMPI PUSH1 0x7 PUSH1 0x0 PUSH2 0x1008 DUP4 PUSH1 0x1 PUSH2 0x294E JUMP JUMPDEST DUP2 MSTORE PUSH1 0x20 ADD SWAP1 DUP2 MSTORE PUSH1 0x20 ADD PUSH1 0x0 KECCAK256 SLOAD DUP4 DUP3 PUSH1 0x6 DUP2 LT PUSH2 0x1029 JUMPI PUSH2 0x1029 PUSH2 0x2901 JUMP JUMPDEST PUSH1 0x20 MUL ADD MSTORE PUSH1 0x8 PUSH1 0x0 PUSH2 0x103D DUP4 PUSH1 0x1 PUSH2 0x294E JUMP JUMPDEST DUP2 MSTORE PUSH1 0x20 DUP2 ADD SWAP2 SWAP1 SWAP2 MSTORE PUSH1 0x40 ADD PUSH1 0x0 KECCAK256 SLOAD PUSH1 0xFF AND DUP3 DUP3 PUSH1 0x6 DUP2 LT PUSH2 0x1063 JUMPI PUSH2 0x1063 PUSH2 0x2901 JUMP JUMPDEST SWAP2 ISZERO ISZERO PUSH1 0x20 SWAP1 SWAP3 MUL ADD MSTORE PUSH1 0x1 ADD PUSH2 0xFF0 JUMP JUMPDEST POP SWAP1 SWAP2 SWAP3 SWAP4 SWAP5 SWAP6 SWAP7 SWAP8 SWAP9 SWAP10 JUMP JUMPDEST PUSH2 0x108A PUSH2 0x199C JUMP JUMPDEST PUSH2 0x3E8 DUP2 GT ISZERO PUSH2 0x10AD JUMPI PUSH1 0x40 MLOAD PUSH4 0x1F2A2005 PUSH1 0xE0 SHL DUP2 MSTORE PUSH1 0x4 ADD PUSH1 0x40 MLOAD DUP1 SWAP2 SUB SWAP1 REVERT JUMPDEST PUSH1 0x11 DUP2 SWAP1 SSTORE PUSH1 0x40 MLOAD DUP2 DUP2 MSTORE PUSH32 0x21B2CFEF155ACF409755EC06F4F701C8D13A5B6339FE8D1EE89AFB57318F7084 SWAP1 PUSH1 0x20 ADD PUSH2 0xF84 JUMP JUMPDEST PUSH2 0x10EA PUSH2 0x19C9 JUMP JUMPDEST PUSH1 0x5 SLOAD PUSH1 0x1 PUSH1 0x1 PUSH1 0xA0 SHL SUB AND CALLER EQ PUSH2 0x1115 JUMPI PUSH1 0x40 MLOAD PUSH4 0x5B94333 PUSH1 0xE0 SHL DUP2 MSTORE PUSH1 0x4 ADD PUSH1 0x40 MLOAD DUP1 SWAP2 SUB SWAP1 REVERT JUMPDEST PUSH1 0xD SLOAD PUSH1 0xFF AND PUSH2 0x1138 JUMPI PUSH1 0x40 MLOAD PUSH4 0x3A5F7B57 PUSH1 0xE0 SHL DUP2 MSTORE PUSH1 0x4 ADD PUSH1 0x40 MLOAD DUP1 SWAP2 SUB SWAP1 REVERT JUMPDEST PUSH1 0x18 SLOAD PUSH2 0x100 SWAP1 DIV PUSH1 0xFF AND ISZERO PUSH2 0x1161 JUMPI PUSH1 0x40 MLOAD PUSH4 0x4C211CCD PUSH1 0xE0 SHL DUP2 MSTORE PUSH1 0x4 ADD PUSH1 0x40 MLOAD DUP1 SWAP2 SUB SWAP1 REVERT JUMPDEST PUSH1 0x0 PUSH1 0xC SLOAD TIMESTAMP PUSH2 0x1171 SWAP2 SWAP1 PUSH2 0x28BE JUMP JUMPDEST SWAP1 POP PUSH2 0xE01 DUP2 LT ISZERO PUSH2 0x11A6 JUMPI PUSH1 0x40 MLOAD PUSH4 0x2C690A37 PUSH1 0xE1 SHL DUP2 MSTORE PUSH1 0x4 DUP2 ADD DUP3 SWAP1 MSTORE PUSH2 0xE01 PUSH1 0x24 DUP3 ADD MSTORE PUSH1 0x44 ADD JUMPDEST PUSH1 0x40 MLOAD DUP1 SWAP2 SUB SWAP1 REVERT JUMPDEST PUSH1 0x6 PUSH1 0xB SLOAD LT ISZERO PUSH2 0x1249 JUMPI PUSH1 0xB DUP1 SLOAD PUSH1 0x0 SWAP1 DUP2 MSTORE PUSH1 0x8 PUSH1 0x20 MSTORE PUSH1 0x40 DUP2 KECCAK256 DUP1 SLOAD PUSH1 0xFF NOT AND PUSH1 0x1 OR SWAP1 SSTORE DUP2 SLOAD SWAP2 SWAP1 PUSH2 0x11DB DUP4 PUSH2 0x288F JUMP JUMPDEST SWAP1 SWAP2 SSTORE POP POP TIMESTAMP PUSH1 0xC DUP2 SWAP1 SSTORE PUSH1 0xB DUP1 SLOAD PUSH1 0x0 SWAP1 DUP2 MSTORE PUSH1 0x7 PUSH1 0x20 MSTORE PUSH1 0x40 DUP1 DUP3 KECCAK256 SWAP2 SWAP1 SWAP2 SSTORE PUSH1 0xA SLOAD SWAP2 SLOAD SWAP1 MLOAD SWAP2 SWAP3 PUSH32 0xE9A2985393FA4BB459D73D85249DF3B5923E70FB93B7B9C307E72359AB167587 SWAP3 PUSH2 0x123C SWAP3 SWAP2 SWAP1 SWAP2 DUP3 MSTORE PUSH1 0x20 DUP3 ADD MSTORE PUSH1 0x40 ADD SWAP1 JUMP JUMPDEST PUSH1 0x40 MLOAD DUP1 SWAP2 SUB SWAP1 LOG2 PUSH2 0x126D JUMP JUMPDEST PUSH1 0xB SLOAD PUSH1 0x0 SWAP1 DUP2 MSTORE PUSH1 0x8 PUSH1 0x20 MSTORE PUSH1 0x40 SWAP1 KECCAK256 DUP1 SLOAD PUSH1 0xFF NOT AND PUSH1 0x1 OR SWAP1 SSTORE PUSH2 0x126D PUSH2 0x1A13 JUMP JUMPDEST POP PUSH2 0xCFD PUSH1 0x1 PUSH1 0x0 DUP1 MLOAD PUSH1 0x20 PUSH2 0x2B51 DUP4 CODECOPY DUP2 MLOAD SWAP2 MSTORE SSTORE JUMP JUMPDEST PUSH2 0x128D PUSH2 0x199C JUMP JUMPDEST PUSH1 0x1 PUSH1 0x1 PUSH1 0xA0 SHL SUB DUP2 AND PUSH2 0x12B4 JUMPI PUSH1 0x40 MLOAD PUSH4 0xD92E233D PUSH1 0xE0 SHL DUP2 MSTORE PUSH1 0x4 ADD PUSH1 0x40 MLOAD DUP1 SWAP2 SUB SWAP1 REVERT JUMPDEST PUSH1 0x1 DUP1 SLOAD PUSH1 0x1 PUSH1 0x1 PUSH1 0xA0 SHL SUB NOT AND PUSH1 0x1 PUSH1 0x1 PUSH1 0xA0 SHL SUB SWAP3 SWAP1 SWAP3 AND SWAP2 SWAP1 SWAP2 OR SWAP1 SSTORE JUMP JUMPDEST PUSH1 0x6 PUSH2 0x12E5 PUSH1 0xF PUSH2 0xE01 PUSH2 0x294E JUMP JUMPDEST PUSH2 0xF9C SWAP2 SWAP1 PUSH2 0x2961 JUMP JUMPDEST PUSH2 0x12F7 PUSH2 0x19C9 JUMP JUMPDEST PUSH1 0xD SLOAD PUSH1 0xFF AND PUSH2 0x131A JUMPI PUSH1 0x40 MLOAD PUSH4 0x3A5F7B57 PUSH1 0xE0 SHL DUP2 MSTORE PUSH1 0x4 ADD PUSH1 0x40 MLOAD DUP1 SWAP2 SUB SWAP1 REVERT JUMPDEST PUSH1 0x0 DUP2 DUP2 MSTORE PUSH1 0x12 PUSH1 0x20 MSTORE PUSH1 0x40 SWAP1 KECCAK256 SLOAD PUSH1 0xD0 SHL PUSH1 0x1 PUSH1 0x1 PUSH1 0xD0 SHL SUB NOT AND PUSH2 0x1356 JUMPI PUSH1 0x40 MLOAD PUSH4 0x668FEE6F PUSH1 0xE1 SHL DUP2 MSTORE PUSH1 0x4 DUP2 ADD DUP3 SWAP1 MSTORE PUSH1 0x24 ADD PUSH2 0x119D JUMP JUMPDEST PUSH1 0x0 DUP2 DUP2 MSTORE PUSH1 0x17 PUSH1 0x20 SWAP1 DUP2 MSTORE PUSH1 0x40 DUP1 DUP4 KECCAK256 CALLER DUP5 MSTORE SWAP1 SWAP2 MSTORE SWAP1 KECCAK256 SLOAD PUSH1 0xFF AND ISZERO PUSH2 0x139A JUMPI PUSH1 0x40 MLOAD PUSH4 0x732750ED PUSH1 0xE1 SHL DUP2 MSTORE CALLER PUSH1 0x4 DUP3 ADD MSTORE PUSH1 0x24 DUP2 ADD DUP3 SWAP1 MSTORE PUSH1 0x44 ADD PUSH2 0x119D JUMP JUMPDEST PUSH2 0x13A5 PUSH1 0x2 DUP3 PUSH2 0x294E JUMP JUMPDEST PUSH2 0x13B0 SWAP1 PUSH1 0x1 PUSH2 0x294E JUMP JUMPDEST PUSH1 0xA SLOAD GT ISZERO PUSH2 0x13D5 JUMPI PUSH1 0x40 MLOAD PUSH4 0x55249329 PUSH1 0xE0 SHL DUP2 MSTORE PUSH1 0x4 DUP2 ADD DUP3 SWAP1 MSTORE PUSH1 0x24 ADD PUSH2 0x119D JUMP JUMPDEST PUSH1 0x0 DUP2 DUP2 MSTORE PUSH1 0x14 PUSH1 0x20 SWAP1 DUP2 MSTORE PUSH1 0x40 DUP1 DUP4 KECCAK256 DUP1 SLOAD DUP3 MLOAD DUP2 DUP6 MUL DUP2 ADD DUP6 ADD SWAP1 SWAP4 MSTORE DUP1 DUP4 MSTORE DUP5 SWAP4 DUP4 ADD DUP3 DUP3 DUP1 ISZERO PUSH2 0x1432 JUMPI PUSH1 0x20 MUL DUP3 ADD SWAP2 SWAP1 PUSH1 0x0 MSTORE PUSH1 0x20 PUSH1 0x0 KECCAK256 SWAP1 JUMPDEST DUP2 SLOAD PUSH1 0x1 PUSH1 0x1 PUSH1 0xA0 SHL SUB AND DUP2 MSTORE PUSH1 0x1 SWAP1 SWAP2 ADD SWAP1 PUSH1 0x20 ADD DUP1 DUP4 GT PUSH2 0x1414 JUMPI JUMPDEST POP POP POP POP POP SWAP1 POP PUSH1 0x0 JUMPDEST DUP2 MLOAD DUP2 LT ISZERO PUSH2 0x1488 JUMPI CALLER PUSH1 0x1 PUSH1 0x1 PUSH1 0xA0 SHL SUB AND DUP3 DUP3 DUP2 MLOAD DUP2 LT PUSH2 0x1461 JUMPI PUSH2 0x1461 PUSH2 0x2901 JUMP JUMPDEST PUSH1 0x20 MUL PUSH1 0x20 ADD ADD MLOAD PUSH1 0x1 PUSH1 0x1 PUSH1 0xA0 SHL SUB AND SUB PUSH2 0x1480 JUMPI PUSH1 0x1 SWAP3 POP PUSH2 0x1488 JUMP JUMPDEST PUSH1 0x1 ADD PUSH2 0x143C JUMP JUMPDEST POP DUP2 PUSH2 0x14B0 JUMPI PUSH1 0x40 MLOAD PUSH4 0xEFBEAF33 PUSH1 0xE0 SHL DUP2 MSTORE CALLER PUSH1 0x4 DUP3 ADD MSTORE PUSH1 0x24 DUP2 ADD DUP5 SWAP1 MSTORE PUSH1 0x44 ADD PUSH2 0x119D JUMP JUMPDEST PUSH1 0x0 DUP4 DUP2 MSTORE PUSH1 0x15 PUSH1 0x20 MSTORE PUSH1 0x40 DUP2 KECCAK256 SLOAD SWAP1 DUP2 SWAP1 SUB PUSH2 0x14E0 JUMPI PUSH1 0x40 MLOAD PUSH4 0x1F2A2005 PUSH1 0xE0 SHL DUP2 MSTORE PUSH1 0x4 ADD PUSH1 0x40 MLOAD DUP1 SWAP2 SUB SWAP1 REVERT JUMPDEST PUSH1 0x0 DUP5 DUP2 MSTORE PUSH1 0x17 PUSH1 0x20 SWAP1 DUP2 MSTORE PUSH1 0x40 DUP1 DUP4 KECCAK256 CALLER DUP5 MSTORE SWAP1 SWAP2 MSTORE DUP2 KECCAK256 DUP1 SLOAD PUSH1 0xFF NOT AND PUSH1 0x1 OR SWAP1 SSTORE PUSH1 0xF DUP1 SLOAD DUP4 SWAP3 SWAP1 PUSH2 0x1516 SWAP1 DUP5 SWAP1 PUSH2 0x28BE JUMP JUMPDEST SWAP1 SWAP2 SSTORE POP POP PUSH1 0x1 SLOAD PUSH1 0x40 MLOAD PUSH4 0x6203B43B PUSH1 0xE1 SHL DUP2 MSTORE CALLER PUSH1 0x4 DUP3 ADD MSTORE PUSH1 0x24 DUP2 ADD DUP4 SWAP1 MSTORE PUSH1 0x1 PUSH1 0x1 PUSH1 0xA0 SHL SUB SWAP1 SWAP2 AND SWAP1 PUSH4 0xC4076876 SWAP1 PUSH1 0x44 ADD PUSH1 0x0 PUSH1 0x40 MLOAD DUP1 DUP4 SUB DUP2 PUSH1 0x0 DUP8 DUP1 EXTCODESIZE ISZERO DUP1 ISZERO PUSH2 0x1567 JUMPI PUSH1 0x0 DUP1 REVERT JUMPDEST POP GAS CALL ISZERO DUP1 ISZERO PUSH2 0x157B JUMPI RETURNDATASIZE PUSH1 0x0 DUP1 RETURNDATACOPY RETURNDATASIZE PUSH1 0x0 REVERT JUMPDEST POP POP PUSH1 0x40 MLOAD DUP4 DUP2 MSTORE DUP7 SWAP3 POP CALLER SWAP2 POP PUSH32 0x7472E24DE4628E34B41A2AA1688ED4B46A9145B2DE1CF93D74902473CCC1740D SWAP1 PUSH1 0x20 ADD PUSH1 0x40 MLOAD DUP1 SWAP2 SUB SWAP1 LOG3 POP POP POP PUSH2 0x15D0 PUSH1 0x1 PUSH1 0x0 DUP1 MLOAD PUSH1 0x20 PUSH2 0x2B51 DUP4 CODECOPY DUP2 MLOAD SWAP2 MSTORE SSTORE JUMP JUMPDEST POP JUMP JUMPDEST PUSH2 0x15DB PUSH2 0x199C JUMP JUMPDEST PUSH2 0xCFD PUSH1 0x0 PUSH2 0x1CEE JUMP JUMPDEST PUSH2 0x15ED PUSH2 0x199C JUMP JUMPDEST PUSH1 0x18 DUP1 SLOAD PUSH2 0xFF00 NOT AND SWAP1 SSTORE JUMP JUMPDEST PUSH2 0xE59 PUSH2 0x199C JUMP JUMPDEST PUSH1 0x0 DUP1 PUSH1 0xC SLOAD TIMESTAMP PUSH2 0x1613 SWAP2 SWAP1 PUSH2 0x28BE JUMP JUMPDEST SWAP1 POP PUSH2 0xE01 DUP2 LT PUSH2 0x1626 JUMPI PUSH1 0x0 SWAP2 POP POP SWAP1 JUMP JUMPDEST PUSH2 0xE53 DUP2 PUSH2 0xE01 PUSH2 0x28BE JUMP JUMPDEST PUSH1 0x0 PUSH1 0xB SLOAD DUP3 GT ISZERO PUSH2 0x1646 JUMPI POP PUSH1 0x0 SWAP2 SWAP1 POP JUMP JUMPDEST PUSH1 0x40 MLOAD DUP1 PUSH1 0x60 ADD PUSH1 0x40 MSTORE DUP1 PUSH1 0x24 DUP2 MSTORE PUSH1 0x20 ADD PUSH2 0x2B71 PUSH1 0x24 SWAP2 CODECOPY PUSH1 0x0 DUP4 DUP2 MSTORE PUSH1 0x7 PUSH1 0x20 MSTORE PUSH1 0x40 SWAP1 KECCAK256 SLOAD PUSH2 0x167A SWAP1 PUSH1 0x24 SWAP1 PUSH2 0x28ED JUMP JUMPDEST DUP2 MLOAD DUP2 LT PUSH2 0x168A JUMPI PUSH2 0x168A PUSH2 0x2901 JUMP JUMPDEST ADD PUSH1 0x20 ADD MLOAD PUSH1 0x1 PUSH1 0x1 PUSH1 0xF8 SHL SUB NOT AND SWAP3 SWAP2 POP POP JUMP JUMPDEST PUSH2 0x16A7 PUSH2 0x199C JUMP JUMPDEST PUSH1 0x1 PUSH1 0x1 PUSH1 0xA0 SHL SUB DUP2 AND PUSH2 0x16CE JUMPI PUSH1 0x40 MLOAD PUSH4 0xD92E233D PUSH1 0xE0 SHL DUP2 MSTORE PUSH1 0x4 ADD PUSH1 0x40 MLOAD DUP1 SWAP2 SUB SWAP1 REVERT JUMPDEST PUSH1 0x3 DUP1 SLOAD PUSH1 0x1 PUSH1 0x1 PUSH1 0xA0 SHL SUB NOT AND PUSH1 0x1 PUSH1 0x1 PUSH1 0xA0 SHL SUB SWAP3 SWAP1 SWAP3 AND SWAP2 SWAP1 SWAP2 OR SWAP1 SSTORE JUMP JUMPDEST PUSH1 0x0 PUSH2 0x16FA PUSH2 0x19E5 JUMP JUMPDEST SWAP1 POP SWAP1 JUMP JUMPDEST PUSH2 0x1707 PUSH2 0x199C JUMP JUMPDEST PUSH1 0x18 DUP1 SLOAD PUSH2 0xFF00 NOT AND PUSH2 0x100 OR SWAP1 SSTORE JUMP JUMPDEST PUSH2 0x1720 PUSH2 0x199C JUMP JUMPDEST PUSH1 0xD SLOAD PUSH1 0xFF AND ISZERO PUSH2 0x1744 JUMPI PUSH1 0x40 MLOAD PUSH4 0xBA26162B PUSH1 0xE0 SHL DUP2 MSTORE PUSH1 0x4 ADD PUSH1 0x40 MLOAD DUP1 SWAP2 SUB SWAP1 REVERT JUMPDEST PUSH1 0xD DUP1 SLOAD PUSH1 0xFF NOT AND PUSH1 0x1 SWAP1 DUP2 OR SWAP1 SWAP2 SSTORE PUSH1 0xA DUP2 SWAP1 SSTORE PUSH1 0xB DUP2 SWAP1 SSTORE TIMESTAMP PUSH1 0xC SSTORE JUMPDEST PUSH1 0x6 DUP2 GT PUSH2 0x17A0 JUMPI PUSH1 0x0 DUP2 DUP2 MSTORE PUSH1 0x7 PUSH1 0x20 SWAP1 DUP2 MSTORE PUSH1 0x40 DUP1 DUP4 KECCAK256 DUP4 SWAP1 SSTORE PUSH1 0x8 SWAP1 SWAP2 MSTORE SWAP1 KECCAK256 DUP1 SLOAD PUSH1 0xFF NOT AND SWAP1 SSTORE DUP1 PUSH2 0x1798 DUP2 PUSH2 0x288F JUMP JUMPDEST SWAP2 POP POP PUSH2 0x1763 JUMP JUMPDEST POP PUSH1 0x2 SLOAD PUSH1 0xA SLOAD PUSH1 0x40 MLOAD PUSH4 0x77923C5 PUSH1 0xE3 SHL DUP2 MSTORE PUSH1 0x1 PUSH1 0x1 PUSH1 0xA0 SHL SUB SWAP1 SWAP3 AND SWAP2 PUSH4 0x3BC91E28 SWAP2 PUSH2 0x17D6 SWAP2 PUSH1 0x4 ADD SWAP1 DUP2 MSTORE PUSH1 0x20 ADD SWAP1 JUMP JUMPDEST PUSH1 0x0 PUSH1 0x40 MLOAD DUP1 DUP4 SUB DUP2 PUSH1 0x0 DUP8 DUP1 EXTCODESIZE ISZERO DUP1 ISZERO PUSH2 0x17F0 JUMPI PUSH1 0x0 DUP1 REVERT JUMPDEST POP GAS CALL ISZERO DUP1 ISZERO PUSH2 0x1804 JUMPI RETURNDATASIZE PUSH1 0x0 DUP1 RETURNDATACOPY RETURNDATASIZE PUSH1 0x0 REVERT JUMPDEST POP POP POP POP PUSH2 0x1813 PUSH1 0xA SLOAD PUSH2 0x1D3E JUMP JUMPDEST PUSH1 0x40 MLOAD TIMESTAMP DUP2 MSTORE PUSH32 0x50AD08F58A27F2851D7E3A1B3A6A46B290F2CE677E99642D30FF639721E77790 SWAP1 PUSH1 0x20 ADD PUSH1 0x40 MLOAD DUP1 SWAP2 SUB SWAP1 LOG1 PUSH1 0xA SLOAD PUSH1 0x40 MLOAD TIMESTAMP DUP2 MSTORE PUSH32 0x278844837BCF8364A705384BF3A2812901F54155BAE86DEA81DD52AA5B9EC0E3 SWAP1 PUSH1 0x20 ADD PUSH1 0x40 MLOAD DUP1 SWAP2 SUB SWAP1 LOG2 PUSH1 0xA SLOAD PUSH1 0xB SLOAD PUSH1 0x40 DUP1 MLOAD SWAP2 DUP3 MSTORE TIMESTAMP PUSH1 0x20 DUP4 ADD MSTORE PUSH32 0xE9A2985393FA4BB459D73D85249DF3B5923E70FB93B7B9C307E72359AB167587 SWAP2 ADD PUSH2 0xF20 JUMP JUMPDEST PUSH2 0x18BF PUSH2 0x199C JUMP JUMPDEST PUSH1 0x1 PUSH1 0x1 PUSH1 0xA0 SHL SUB DUP2 AND PUSH2 0x18E6 JUMPI PUSH1 0x40 MLOAD PUSH4 0xD92E233D PUSH1 0xE0 SHL DUP2 MSTORE PUSH1 0x4 ADD PUSH1 0x40 MLOAD DUP1 SWAP2 SUB SWAP1 REVERT JUMPDEST PUSH1 0x2 DUP1 SLOAD PUSH1 0x1 PUSH1 0x1 PUSH1 0xA0 SHL SUB NOT AND PUSH1 0x1 PUSH1 0x1 PUSH1 0xA0 SHL SUB SWAP3 SWAP1 SWAP3 AND SWAP2 SWAP1 SWAP2 OR SWAP1 SSTORE JUMP JUMPDEST PUSH2 0x1910 PUSH2 0x199C JUMP JUMPDEST PUSH1 0x18 DUP1 SLOAD PUSH1 0xFF NOT AND SWAP1 SSTORE JUMP JUMPDEST PUSH2 0x1924 PUSH2 0x199C JUMP JUMPDEST PUSH1 0x9 DUP1 SLOAD PUSH1 0xFF NOT AND SWAP2 ISZERO ISZERO SWAP2 SWAP1 SWAP2 OR SWAP1 SSTORE JUMP JUMPDEST PUSH2 0x193F PUSH2 0x199C JUMP JUMPDEST PUSH1 0x4 DUP1 SLOAD PUSH1 0x1 PUSH1 0x1 PUSH1 0xA0 SHL SUB NOT AND PUSH1 0x1 PUSH1 0x1 PUSH1 0xA0 SHL SUB SWAP3 SWAP1 SWAP3 AND SWAP2 SWAP1 SWAP2 OR SWAP1 SSTORE JUMP JUMPDEST PUSH2 0x1969 PUSH2 0x199C JUMP JUMPDEST PUSH1 0x1 PUSH1 0x1 PUSH1 0xA0 SHL SUB DUP2 AND PUSH2 0x1993 JUMPI PUSH1 0x40 MLOAD PUSH4 0x1E4FBDF7 PUSH1 0xE0 SHL DUP2 MSTORE PUSH1 0x0 PUSH1 0x4 DUP3 ADD MSTORE PUSH1 0x24 ADD PUSH2 0x119D JUMP JUMPDEST PUSH2 0x15D0 DUP2 PUSH2 0x1CEE JUMP JUMPDEST PUSH1 0x0 SLOAD PUSH1 0x1 PUSH1 0x1 PUSH1 0xA0 SHL SUB AND CALLER EQ PUSH2 0xCFD JUMPI PUSH1 0x40 MLOAD PUSH4 0x118CDAA7 PUSH1 0xE0 SHL DUP2 MSTORE CALLER PUSH1 0x4 DUP3 ADD MSTORE PUSH1 0x24 ADD PUSH2 0x119D JUMP JUMPDEST PUSH2 0x19D1 PUSH2 0x1E23 JUMP JUMPDEST PUSH1 0x2 PUSH1 0x0 DUP1 MLOAD PUSH1 0x20 PUSH2 0x2B51 DUP4 CODECOPY DUP2 MLOAD SWAP2 MSTORE SSTORE JUMP JUMPDEST PUSH1 0xD SLOAD PUSH1 0x0 SWAP1 PUSH1 0xFF AND PUSH2 0x19F8 JUMPI POP PUSH1 0x0 SWAP1 JUMP JUMPDEST PUSH1 0x0 PUSH1 0xC SLOAD TIMESTAMP PUSH2 0x1A08 SWAP2 SWAP1 PUSH2 0x28BE JUMP JUMPDEST PUSH2 0xE01 GT ISZERO SWAP3 SWAP2 POP POP JUMP JUMPDEST PUSH1 0xA SLOAD PUSH1 0x0 PUSH2 0x1A20 PUSH2 0x1E53 JUMP JUMPDEST PUSH1 0x0 DUP4 DUP2 MSTORE PUSH1 0x12 PUSH1 0x20 SWAP1 DUP2 MSTORE PUSH1 0x40 SWAP2 DUP3 SWAP1 KECCAK256 DUP1 SLOAD PUSH6 0xFFFFFFFFFFFF NOT AND PUSH1 0xD0 DUP6 SWAP1 SHR OR SWAP1 SSTORE PUSH1 0x6 SLOAD DUP3 MLOAD SWAP1 DUP2 MSTORE PUSH1 0x1 PUSH1 0x1 PUSH1 0xD0 SHL SUB NOT DUP5 AND SWAP2 DUP2 ADD SWAP2 SWAP1 SWAP2 MSTORE SWAP2 SWAP3 POP DUP4 SWAP2 PUSH32 0xD9518E0C64DF7F54FE347E6E390672D87BC2350A9DF1B275E2DE0F2655CA9A84 SWAP2 ADD PUSH1 0x40 MLOAD DUP1 SWAP2 SUB SWAP1 LOG2 PUSH1 0x0 DUP1 PUSH2 0x1A9C DUP5 DUP5 PUSH2 0x1F1A JUMP JUMPDEST SWAP2 POP SWAP2 POP PUSH2 0x1AAB DUP5 DUP4 DUP4 PUSH2 0x2259 JUMP JUMPDEST PUSH2 0x1AB4 DUP5 PUSH2 0x23C9 JUMP JUMPDEST PUSH1 0x2 SLOAD PUSH1 0x40 MLOAD PUSH4 0x22A56427 PUSH1 0xE1 SHL DUP2 MSTORE PUSH1 0x4 DUP2 ADD DUP7 SWAP1 MSTORE PUSH1 0x0 SWAP2 PUSH1 0x1 PUSH1 0x1 PUSH1 0xA0 SHL SUB AND SWAP1 PUSH4 0x454AC84E SWAP1 PUSH1 0x24 ADD PUSH1 0x0 PUSH1 0x40 MLOAD DUP1 DUP4 SUB DUP2 DUP7 GAS STATICCALL ISZERO DUP1 ISZERO PUSH2 0x1AFE JUMPI RETURNDATASIZE PUSH1 0x0 DUP1 RETURNDATACOPY RETURNDATASIZE PUSH1 0x0 REVERT JUMPDEST POP POP POP POP PUSH1 0x40 MLOAD RETURNDATASIZE PUSH1 0x0 DUP3 RETURNDATACOPY PUSH1 0x1F RETURNDATASIZE SWAP1 DUP2 ADD PUSH1 0x1F NOT AND DUP3 ADD PUSH1 0x40 MSTORE PUSH2 0x1B26 SWAP2 SWAP1 DUP2 ADD SWAP1 PUSH2 0x2988 JUMP JUMPDEST MLOAD PUSH1 0x0 DUP7 DUP2 MSTORE PUSH1 0x13 PUSH1 0x20 SWAP1 DUP2 MSTORE PUSH1 0x40 DUP1 DUP4 KECCAK256 SLOAD PUSH1 0x16 DUP4 MSTORE SWAP3 DUP2 SWAP1 KECCAK256 SLOAD DUP2 MLOAD PUSH1 0x1 PUSH1 0x1 PUSH1 0xD0 SHL SUB NOT DUP11 AND DUP2 MSTORE SWAP3 DUP4 ADD SWAP4 SWAP1 SWAP4 MSTORE DUP2 ADD DUP6 SWAP1 MSTORE PUSH1 0x60 DUP2 ADD SWAP2 SWAP1 SWAP2 MSTORE PUSH1 0x80 DUP2 ADD DUP3 SWAP1 MSTORE TIMESTAMP PUSH1 0xA0 DUP3 ADD MSTORE SWAP1 SWAP2 POP DUP6 SWAP1 PUSH32 0xCB3E0BD9FC5C5CA893AB7EDF22C314B2852D2CF6E36E091941D0709CAEB4145C SWAP1 PUSH1 0xC0 ADD PUSH1 0x40 MLOAD DUP1 SWAP2 SUB SWAP1 LOG2 PUSH1 0xA DUP1 SLOAD SWAP1 PUSH1 0x0 PUSH2 0x1BB4 DUP4 PUSH2 0x288F JUMP JUMPDEST SWAP1 SWAP2 SSTORE POP POP PUSH1 0x1 PUSH1 0xB DUP2 SWAP1 SSTORE TIMESTAMP PUSH1 0xC SSTORE JUMPDEST PUSH1 0x6 DUP2 GT PUSH2 0x1C02 JUMPI PUSH1 0x0 DUP2 DUP2 MSTORE PUSH1 0x7 PUSH1 0x20 SWAP1 DUP2 MSTORE PUSH1 0x40 DUP1 DUP4 KECCAK256 DUP4 SWAP1 SSTORE PUSH1 0x8 SWAP1 SWAP2 MSTORE SWAP1 KECCAK256 DUP1 SLOAD PUSH1 0xFF NOT AND SWAP1 SSTORE DUP1 PUSH2 0x1BFA DUP2 PUSH2 0x288F JUMP JUMPDEST SWAP2 POP POP PUSH2 0x1BC5 JUMP JUMPDEST POP PUSH1 0x2 SLOAD PUSH1 0xA SLOAD PUSH1 0x40 MLOAD PUSH4 0x77923C5 PUSH1 0xE3 SHL DUP2 MSTORE PUSH1 0x1 PUSH1 0x1 PUSH1 0xA0 SHL SUB SWAP1 SWAP3 AND SWAP2 PUSH4 0x3BC91E28 SWAP2 PUSH2 0x1C38 SWAP2 PUSH1 0x4 ADD SWAP1 DUP2 MSTORE PUSH1 0x20 ADD SWAP1 JUMP JUMPDEST PUSH1 0x0 PUSH1 0x40 MLOAD DUP1 DUP4 SUB DUP2 PUSH1 0x0 DUP8 DUP1 EXTCODESIZE ISZERO DUP1 ISZERO PUSH2 0x1C52 JUMPI PUSH1 0x0 DUP1 REVERT JUMPDEST POP GAS CALL ISZERO DUP1 ISZERO PUSH2 0x1C66 JUMPI RETURNDATASIZE PUSH1 0x0 DUP1 RETURNDATACOPY RETURNDATASIZE PUSH1 0x0 REVERT JUMPDEST POP POP POP POP PUSH2 0x1C75 PUSH1 0xA SLOAD PUSH2 0x1D3E JUMP JUMPDEST PUSH1 0xA SLOAD PUSH1 0x40 MLOAD TIMESTAMP DUP2 MSTORE PUSH32 0x278844837BCF8364A705384BF3A2812901F54155BAE86DEA81DD52AA5B9EC0E3 SWAP1 PUSH1 0x20 ADD PUSH1 0x40 MLOAD DUP1 SWAP2 SUB SWAP1 LOG2 PUSH1 0xA SLOAD PUSH1 0x40 DUP1 MLOAD PUSH1 0x1 DUP2 MSTORE TIMESTAMP PUSH1 0x20 DUP3 ADD MSTORE PUSH32 0xE9A2985393FA4BB459D73D85249DF3B5923E70FB93B7B9C307E72359AB167587 SWAP2 ADD PUSH1 0x40 MLOAD DUP1 SWAP2 SUB SWAP1 LOG2 POP POP POP POP POP JUMP JUMPDEST PUSH1 0x0 DUP1 SLOAD PUSH1 0x1 PUSH1 0x1 PUSH1 0xA0 SHL SUB DUP4 DUP2 AND PUSH1 0x1 PUSH1 0x1 PUSH1 0xA0 SHL SUB NOT DUP4 AND DUP2 OR DUP5 SSTORE PUSH1 0x40 MLOAD SWAP2 SWAP1 SWAP3 AND SWAP3 DUP4 SWAP2 PUSH32 0x8BE0079C531659141344CD1FD0A4F28419497F9722A3DAAFE3B4186F6B6457E0 SWAP2 SWAP1 LOG3 POP POP JUMP JUMPDEST PUSH1 0x2 SLOAD PUSH1 0x40 MLOAD PUSH4 0x22A56427 PUSH1 0xE1 SHL DUP2 MSTORE PUSH1 0x4 DUP2 ADD DUP4 SWAP1 MSTORE PUSH1 0x0 SWAP2 PUSH1 0x1 PUSH1 0x1 PUSH1 0xA0 SHL SUB AND SWAP1 PUSH4 0x454AC84E SWAP1 PUSH1 0x24 ADD PUSH1 0x0 PUSH1 0x40 MLOAD DUP1 DUP4 SUB DUP2 DUP7 GAS STATICCALL ISZERO DUP1 ISZERO PUSH2 0x1D88 JUMPI RETURNDATASIZE PUSH1 0x0 DUP1 RETURNDATACOPY RETURNDATASIZE PUSH1 0x0 REVERT JUMPDEST POP POP POP POP PUSH1 0x40 MLOAD RETURNDATASIZE PUSH1 0x0 DUP3 RETURNDATACOPY PUSH1 0x1F RETURNDATASIZE SWAP1 DUP2 ADD PUSH1 0x1F NOT AND DUP3 ADD PUSH1 0x40 MSTORE PUSH2 0x1DB0 SWAP2 SWAP1 DUP2 ADD SWAP1 PUSH2 0x2988 JUMP JUMPDEST DUP1 MLOAD SWAP1 SWAP2 POP ISZERO PUSH2 0x1E1F JUMPI PUSH1 0x2 SLOAD PUSH1 0x40 MLOAD PUSH4 0x99866C3 PUSH1 0xE1 SHL DUP2 MSTORE PUSH1 0x1 PUSH1 0x1 PUSH1 0xA0 SHL SUB SWAP1 SWAP2 AND SWAP1 PUSH4 0x1330CD86 SWAP1 PUSH2 0x1DEC SWAP1 DUP6 SWAP1 DUP6 SWAP1 PUSH1 0x4 ADD PUSH2 0x2A4D JUMP JUMPDEST PUSH1 0x0 PUSH1 0x40 MLOAD DUP1 DUP4 SUB DUP2 PUSH1 0x0 DUP8 DUP1 EXTCODESIZE ISZERO DUP1 ISZERO PUSH2 0x1E06 JUMPI PUSH1 0x0 DUP1 REVERT JUMPDEST POP GAS CALL ISZERO DUP1 ISZERO PUSH2 0x1E1A JUMPI RETURNDATASIZE PUSH1 0x0 DUP1 RETURNDATACOPY RETURNDATASIZE PUSH1 0x0 REVERT JUMPDEST POP POP POP POP JUMPDEST POP POP JUMP JUMPDEST PUSH1 0x0 DUP1 MLOAD PUSH1 0x20 PUSH2 0x2B51 DUP4 CODECOPY DUP2 MLOAD SWAP2 MSTORE SLOAD PUSH1 0x2 SUB PUSH2 0xCFD JUMPI PUSH1 0x40 MLOAD PUSH4 0x3EE5AEB5 PUSH1 0xE0 SHL DUP2 MSTORE PUSH1 0x4 ADD PUSH1 0x40 MLOAD DUP1 SWAP2 SUB SWAP1 REVERT JUMPDEST PUSH1 0x40 DUP1 MLOAD PUSH1 0x6 DUP1 DUP3 MSTORE DUP2 DUP4 ADD SWAP1 SWAP3 MSTORE PUSH1 0x0 SWAP2 DUP3 SWAP2 SWAP1 PUSH1 0x20 DUP3 ADD DUP2 DUP1 CALLDATASIZE DUP4 CALLDATACOPY ADD SWAP1 POP POP SWAP1 POP PUSH1 0x1 JUMPDEST PUSH1 0x6 DUP2 GT PUSH2 0xE49 JUMPI PUSH1 0x40 MLOAD DUP1 PUSH1 0x60 ADD PUSH1 0x40 MSTORE DUP1 PUSH1 0x24 DUP2 MSTORE PUSH1 0x20 ADD PUSH2 0x2B71 PUSH1 0x24 SWAP2 CODECOPY PUSH1 0x0 DUP3 DUP2 MSTORE PUSH1 0x7 PUSH1 0x20 MSTORE PUSH1 0x40 SWAP1 KECCAK256 SLOAD PUSH2 0x1EB6 SWAP1 PUSH1 0x24 SWAP1 PUSH2 0x28ED JUMP JUMPDEST DUP2 MLOAD DUP2 LT PUSH2 0x1EC6 JUMPI PUSH2 0x1EC6 PUSH2 0x2901 JUMP JUMPDEST ADD PUSH1 0x20 ADD MLOAD PUSH1 0x1 PUSH1 0x1 PUSH1 0xF8 SHL SUB NOT AND DUP3 PUSH2 0x1EE1 PUSH1 0x1 DUP5 PUSH2 0x28BE JUMP JUMPDEST DUP2 MLOAD DUP2 LT PUSH2 0x1EF1 JUMPI PUSH2 0x1EF1 PUSH2 0x2901 JUMP JUMPDEST PUSH1 0x20 ADD ADD SWAP1 PUSH1 0x1 PUSH1 0x1 PUSH1 0xF8 SHL SUB NOT AND SWAP1 DUP2 PUSH1 0x0 BYTE SWAP1 MSTORE8 POP DUP1 PUSH2 0x1F12 DUP2 PUSH2 0x288F JUMP JUMPDEST SWAP2 POP POP PUSH2 0x1E7A JUMP JUMPDEST PUSH1 0x2 SLOAD PUSH1 0x40 MLOAD PUSH4 0x9FD11627 PUSH1 0xE0 SHL DUP2 MSTORE PUSH1 0x4 DUP2 ADD DUP5 SWAP1 MSTORE PUSH1 0x1 PUSH1 0x1 PUSH1 0xD0 SHL SUB NOT DUP4 AND PUSH1 0x24 DUP3 ADD MSTORE PUSH1 0x60 SWAP2 PUSH1 0x0 SWAP2 DUP3 SWAP2 PUSH1 0x1 PUSH1 0x1 PUSH1 0xA0 SHL SUB AND SWAP1 PUSH4 0x9FD11627 SWAP1 PUSH1 0x44 ADD PUSH1 0x0 PUSH1 0x40 MLOAD DUP1 DUP4 SUB DUP2 DUP7 GAS STATICCALL ISZERO DUP1 ISZERO PUSH2 0x1F79 JUMPI RETURNDATASIZE PUSH1 0x0 DUP1 RETURNDATACOPY RETURNDATASIZE PUSH1 0x0 REVERT JUMPDEST POP POP POP POP PUSH1 0x40 MLOAD RETURNDATASIZE PUSH1 0x0 DUP3 RETURNDATACOPY PUSH1 0x1F RETURNDATASIZE SWAP1 DUP2 ADD PUSH1 0x1F NOT AND DUP3 ADD PUSH1 0x40 MSTORE PUSH2 0x1FA1 SWAP2 SWAP1 DUP2 ADD SWAP1 PUSH2 0x2988 JUMP JUMPDEST SWAP1 POP PUSH1 0x0 DUP2 MLOAD PUSH8 0xFFFFFFFFFFFFFFFF DUP2 GT ISZERO PUSH2 0x1FBF JUMPI PUSH2 0x1FBF PUSH2 0x28A8 JUMP JUMPDEST PUSH1 0x40 MLOAD SWAP1 DUP1 DUP3 MSTORE DUP1 PUSH1 0x20 MUL PUSH1 0x20 ADD DUP3 ADD PUSH1 0x40 MSTORE DUP1 ISZERO PUSH2 0x1FE8 JUMPI DUP2 PUSH1 0x20 ADD PUSH1 0x20 DUP3 MUL DUP1 CALLDATASIZE DUP4 CALLDATACOPY ADD SWAP1 POP JUMPDEST POP SWAP1 POP PUSH1 0x0 JUMPDEST DUP3 MLOAD DUP2 LT ISZERO PUSH2 0x21B2 JUMPI PUSH1 0x0 DUP4 DUP3 DUP2 MLOAD DUP2 LT PUSH2 0x200B JUMPI PUSH2 0x200B PUSH2 0x2901 JUMP JUMPDEST PUSH1 0x20 SWAP1 DUP2 MUL SWAP2 SWAP1 SWAP2 ADD ADD MLOAD PUSH1 0x2 SLOAD PUSH1 0x40 MLOAD PUSH4 0xA96DE4F5 PUSH1 0xE0 SHL DUP2 MSTORE PUSH1 0x1 PUSH1 0x1 PUSH1 0xA0 SHL SUB DUP1 DUP5 AND PUSH1 0x4 DUP4 ADD MSTORE PUSH1 0x24 DUP3 ADD DUP13 SWAP1 MSTORE SWAP3 SWAP4 POP PUSH1 0x0 SWAP3 DUP4 SWAP3 AND SWAP1 PUSH4 0xA96DE4F5 SWAP1 PUSH1 0x44 ADD PUSH1 0x40 DUP1 MLOAD DUP1 DUP4 SUB DUP2 DUP7 GAS STATICCALL ISZERO DUP1 ISZERO PUSH2 0x206C JUMPI RETURNDATASIZE PUSH1 0x0 DUP1 RETURNDATACOPY RETURNDATASIZE PUSH1 0x0 REVERT JUMPDEST POP POP POP POP PUSH1 0x40 MLOAD RETURNDATASIZE PUSH1 0x1F NOT PUSH1 0x1F DUP3 ADD AND DUP3 ADD DUP1 PUSH1 0x40 MSTORE POP DUP2 ADD SWAP1 PUSH2 0x2090 SWAP2 SWAP1 PUSH2 0x2A86 JUMP JUMPDEST SWAP2 POP SWAP2 POP DUP2 PUSH2 0x20A1 JUMPI POP POP POP PUSH2 0x21AA JUMP JUMPDEST PUSH1 0x1 PUSH1 0x1 PUSH1 0xD0 SHL SUB NOT DUP2 DUP2 AND SWAP1 DUP11 AND EQ PUSH2 0x20BD JUMPI POP POP POP PUSH2 0x21AA JUMP JUMPDEST PUSH1 0x2 SLOAD PUSH1 0x40 MLOAD PUSH4 0xC106AEE3 PUSH1 0xE0 SHL DUP2 MSTORE PUSH1 0x1 PUSH1 0x1 PUSH1 0xA0 SHL SUB DUP6 DUP2 AND PUSH1 0x4 DUP4 ADD MSTORE PUSH1 0x24 DUP3 ADD DUP14 SWAP1 MSTORE PUSH1 0x0 SWAP3 DUP4 SWAP3 SWAP2 AND SWAP1 PUSH4 0xC106AEE3 SWAP1 PUSH1 0x44 ADD PUSH1 0x40 DUP1 MLOAD DUP1 DUP4 SUB DUP2 DUP7 GAS STATICCALL ISZERO DUP1 ISZERO PUSH2 0x2111 JUMPI RETURNDATASIZE PUSH1 0x0 DUP1 RETURNDATACOPY RETURNDATASIZE PUSH1 0x0 REVERT JUMPDEST POP POP POP POP PUSH1 0x40 MLOAD RETURNDATASIZE PUSH1 0x1F NOT PUSH1 0x1F DUP3 ADD AND DUP3 ADD DUP1 PUSH1 0x40 MSTORE POP DUP2 ADD SWAP1 PUSH2 0x2135 SWAP2 SWAP1 PUSH2 0x2A86 JUMP JUMPDEST SWAP2 POP SWAP2 POP DUP2 PUSH2 0x2148 JUMPI POP POP POP POP POP PUSH2 0x21AA JUMP JUMPDEST PUSH1 0x1 PUSH1 0x1 PUSH1 0xD0 SHL SUB NOT DUP2 DUP2 AND SWAP1 DUP13 AND EQ PUSH2 0x2166 JUMPI POP POP POP POP POP PUSH2 0x21AA JUMP JUMPDEST DUP5 DUP8 DUP11 PUSH2 0x2172 DUP2 PUSH2 0x288F JUMP JUMPDEST SWAP12 POP DUP2 MLOAD DUP2 LT PUSH2 0x2184 JUMPI PUSH2 0x2184 PUSH2 0x2901 JUMP JUMPDEST PUSH1 0x20 MUL PUSH1 0x20 ADD ADD SWAP1 PUSH1 0x1 PUSH1 0x1 PUSH1 0xA0 SHL SUB AND SWAP1 DUP2 PUSH1 0x1 PUSH1 0x1 PUSH1 0xA0 SHL SUB AND DUP2 MSTORE POP POP POP POP POP POP POP JUMPDEST PUSH1 0x1 ADD PUSH2 0x1FEE JUMP JUMPDEST POP DUP3 PUSH8 0xFFFFFFFFFFFFFFFF DUP2 GT ISZERO PUSH2 0x21CC JUMPI PUSH2 0x21CC PUSH2 0x28A8 JUMP JUMPDEST PUSH1 0x40 MLOAD SWAP1 DUP1 DUP3 MSTORE DUP1 PUSH1 0x20 MUL PUSH1 0x20 ADD DUP3 ADD PUSH1 0x40 MSTORE DUP1 ISZERO PUSH2 0x21F5 JUMPI DUP2 PUSH1 0x20 ADD PUSH1 0x20 DUP3 MUL DUP1 CALLDATASIZE DUP4 CALLDATACOPY ADD SWAP1 POP JUMPDEST POP SWAP4 POP PUSH1 0x0 JUMPDEST DUP4 DUP2 LT ISZERO PUSH2 0x224F JUMPI DUP2 DUP2 DUP2 MLOAD DUP2 LT PUSH2 0x2215 JUMPI PUSH2 0x2215 PUSH2 0x2901 JUMP JUMPDEST PUSH1 0x20 MUL PUSH1 0x20 ADD ADD MLOAD DUP6 DUP3 DUP2 MLOAD DUP2 LT PUSH2 0x222F JUMPI PUSH2 0x222F PUSH2 0x2901 JUMP JUMPDEST PUSH1 0x1 PUSH1 0x1 PUSH1 0xA0 SHL SUB SWAP1 SWAP3 AND PUSH1 0x20 SWAP3 DUP4 MUL SWAP2 SWAP1 SWAP2 ADD SWAP1 SWAP2 ADD MSTORE PUSH1 0x1 ADD PUSH2 0x21FB JUMP JUMPDEST POP POP POP SWAP3 POP SWAP3 SWAP1 POP JUMP JUMPDEST PUSH1 0xE SLOAD PUSH1 0x11 SLOAD PUSH1 0x0 SWAP1 DUP2 SWAP1 ISZERO DUP1 ISZERO SWAP1 PUSH2 0x2272 JUMPI POP PUSH1 0x0 DUP4 GT JUMPDEST ISZERO PUSH2 0x22DD JUMPI PUSH1 0x0 PUSH2 0x2710 PUSH1 0x11 SLOAD DUP6 PUSH2 0x228A SWAP2 SWAP1 PUSH2 0x2961 JUMP JUMPDEST PUSH2 0x2294 SWAP2 SWAP1 PUSH2 0x2ABB JUMP JUMPDEST SWAP1 POP PUSH2 0x22A0 DUP2 DUP6 PUSH2 0x28BE JUMP JUMPDEST SWAP4 POP PUSH32 0x85FCFC84BAA0423652490BDD8531F642A3376CB202145025B549FB449516E5A8 DUP2 PUSH1 0x40 MLOAD PUSH2 0x22D3 SWAP2 DUP2 MSTORE PUSH1 0x20 ADD SWAP1 JUMP JUMPDEST PUSH1 0x40 MLOAD DUP1 SWAP2 SUB SWAP1 LOG1 POP JUMPDEST POP DUP2 PUSH1 0x0 DUP5 ISZERO PUSH2 0x230C JUMPI PUSH2 0x22F1 DUP6 DUP6 PUSH2 0x2ABB JUMP JUMPDEST SWAP3 POP PUSH2 0x22FD DUP6 DUP5 PUSH2 0x2961 JUMP JUMPDEST SWAP1 POP PUSH2 0x2309 DUP2 DUP6 PUSH2 0x28BE JUMP JUMPDEST SWAP2 POP JUMPDEST PUSH1 0x0 JUMPDEST DUP6 DUP2 LT ISZERO PUSH2 0x237E JUMPI PUSH1 0x0 DUP9 DUP2 MSTORE PUSH1 0x14 PUSH1 0x20 MSTORE PUSH1 0x40 SWAP1 KECCAK256 DUP8 MLOAD DUP9 SWAP1 DUP4 SWAP1 DUP2 LT PUSH2 0x2339 JUMPI PUSH2 0x2339 PUSH2 0x2901 JUMP JUMPDEST PUSH1 0x20 SWAP1 DUP2 MUL SWAP2 SWAP1 SWAP2 ADD DUP2 ADD MLOAD DUP3 SLOAD PUSH1 0x1 DUP1 DUP3 ADD DUP6 SSTORE PUSH1 0x0 SWAP5 DUP6 MSTORE SWAP3 SWAP1 SWAP4 KECCAK256 SWAP1 SWAP3 ADD DUP1 SLOAD PUSH1 0x1 PUSH1 0x1 PUSH1 0xA0 SHL SUB NOT AND PUSH1 0x1 PUSH1 0x1 PUSH1 0xA0 SHL SUB SWAP1 SWAP4 AND SWAP3 SWAP1 SWAP3 OR SWAP1 SWAP2 SSTORE ADD PUSH2 0x230F JUMP JUMPDEST POP PUSH1 0x0 DUP8 DUP2 MSTORE PUSH1 0x13 PUSH1 0x20 SWAP1 DUP2 MSTORE PUSH1 0x40 DUP1 DUP4 KECCAK256 DUP8 SWAP1 SSTORE PUSH1 0x15 DUP3 MSTORE DUP1 DUP4 KECCAK256 DUP7 SWAP1 SSTORE PUSH1 0x16 SWAP1 SWAP2 MSTORE DUP2 KECCAK256 DUP4 SWAP1 SSTORE PUSH1 0xF DUP1 SLOAD DUP4 SWAP3 SWAP1 PUSH2 0x23B9 SWAP1 DUP5 SWAP1 PUSH2 0x294E JUMP JUMPDEST SWAP1 SWAP2 SSTORE POP POP POP PUSH1 0xE SSTORE POP POP POP POP POP JUMP JUMPDEST PUSH1 0x2 SLOAD PUSH1 0x40 MLOAD PUSH4 0x22A56427 PUSH1 0xE1 SHL DUP2 MSTORE PUSH1 0x4 DUP2 ADD DUP4 SWAP1 MSTORE PUSH1 0x0 SWAP2 PUSH1 0x1 PUSH1 0x1 PUSH1 0xA0 SHL SUB AND SWAP1 PUSH4 0x454AC84E SWAP1 PUSH1 0x24 ADD PUSH1 0x0 PUSH1 0x40 MLOAD DUP1 DUP4 SUB DUP2 DUP7 GAS STATICCALL ISZERO DUP1 ISZERO PUSH2 0x2413 JUMPI RETURNDATASIZE PUSH1 0x0 DUP1 RETURNDATACOPY RETURNDATASIZE PUSH1 0x0 REVERT JUMPDEST POP POP POP POP PUSH1 0x40 MLOAD RETURNDATASIZE PUSH1 0x0 DUP3 RETURNDATACOPY PUSH1 0x1F RETURNDATASIZE SWAP1 DUP2 ADD PUSH1 0x1F NOT AND DUP3 ADD PUSH1 0x40 MSTORE PUSH2 0x243B SWAP2 SWAP1 DUP2 ADD SWAP1 PUSH2 0x2988 JUMP JUMPDEST SWAP1 POP PUSH1 0x0 JUMPDEST DUP2 MLOAD DUP2 LT ISZERO PUSH2 0x264D JUMPI PUSH1 0x2 SLOAD DUP3 MLOAD PUSH1 0x0 SWAP2 PUSH1 0x1 PUSH1 0x1 PUSH1 0xA0 SHL SUB AND SWAP1 PUSH4 0xB8A740E0 SWAP1 DUP6 SWAP1 DUP6 SWAP1 DUP2 LT PUSH2 0x2473 JUMPI PUSH2 0x2473 PUSH2 0x2901 JUMP JUMPDEST PUSH1 0x20 MUL PUSH1 0x20 ADD ADD MLOAD DUP7 PUSH1 0x40 MLOAD DUP4 PUSH4 0xFFFFFFFF AND PUSH1 0xE0 SHL DUP2 MSTORE PUSH1 0x4 ADD PUSH2 0x24AD SWAP3 SWAP2 SWAP1 PUSH1 0x1 PUSH1 0x1 PUSH1 0xA0 SHL SUB SWAP3 SWAP1 SWAP3 AND DUP3 MSTORE PUSH1 0x20 DUP3 ADD MSTORE PUSH1 0x40 ADD SWAP1 JUMP JUMPDEST PUSH1 0xE0 PUSH1 0x40 MLOAD DUP1 DUP4 SUB DUP2 DUP7 GAS STATICCALL ISZERO DUP1 ISZERO PUSH2 0x24CA JUMPI RETURNDATASIZE PUSH1 0x0 DUP1 RETURNDATACOPY RETURNDATASIZE PUSH1 0x0 REVERT JUMPDEST POP POP POP POP PUSH1 0x40 MLOAD RETURNDATASIZE PUSH1 0x1F NOT PUSH1 0x1F DUP3 ADD AND DUP3 ADD DUP1 PUSH1 0x40 MSTORE POP DUP2 ADD SWAP1 PUSH2 0x24EE SWAP2 SWAP1 PUSH2 0x2ACF JUMP JUMPDEST POP POP POP POP SWAP3 POP POP POP PUSH1 0xA SLOAD DUP2 LT ISZERO PUSH2 0x2644 JUMPI PUSH2 0x250B PUSH1 0x2 DUP3 PUSH2 0x294E JUMP JUMPDEST PUSH1 0xA SLOAD GT ISZERO PUSH2 0x25AE JUMPI PUSH1 0x2 SLOAD DUP4 MLOAD PUSH1 0x1 PUSH1 0x1 PUSH1 0xA0 SHL SUB SWAP1 SWAP2 AND SWAP1 PUSH4 0x7A03CE4F SWAP1 DUP6 SWAP1 DUP6 SWAP1 DUP2 LT PUSH2 0x253D JUMPI PUSH2 0x253D PUSH2 0x2901 JUMP JUMPDEST PUSH1 0x20 MUL PUSH1 0x20 ADD ADD MLOAD DUP7 PUSH1 0x40 MLOAD DUP4 PUSH4 0xFFFFFFFF AND PUSH1 0xE0 SHL DUP2 MSTORE PUSH1 0x4 ADD PUSH2 0x2577 SWAP3 SWAP2 SWAP1 PUSH1 0x1 PUSH1 0x1 PUSH1 0xA0 SHL SUB SWAP3 SWAP1 SWAP3 AND DUP3 MSTORE PUSH1 0x20 DUP3 ADD MSTORE PUSH1 0x40 ADD SWAP1 JUMP JUMPDEST PUSH1 0x0 PUSH1 0x40 MLOAD DUP1 DUP4 SUB DUP2 PUSH1 0x0 DUP8 DUP1 EXTCODESIZE ISZERO DUP1 ISZERO PUSH2 0x2591 JUMPI PUSH1 0x0 DUP1 REVERT JUMPDEST POP GAS CALL ISZERO DUP1 ISZERO PUSH2 0x25A5 JUMPI RETURNDATASIZE PUSH1 0x0 DUP1 RETURNDATACOPY RETURNDATASIZE PUSH1 0x0 REVERT JUMPDEST POP POP POP POP PUSH2 0x2644 JUMP JUMPDEST PUSH1 0x2 SLOAD DUP4 MLOAD PUSH1 0x1 PUSH1 0x1 PUSH1 0xA0 SHL SUB SWAP1 SWAP2 AND SWAP1 PUSH4 0x47F43EF2 SWAP1 DUP6 SWAP1 DUP6 SWAP1 DUP2 LT PUSH2 0x25D7 JUMPI PUSH2 0x25D7 PUSH2 0x2901 JUMP JUMPDEST PUSH1 0x20 MUL PUSH1 0x20 ADD ADD MLOAD DUP7 PUSH1 0x40 MLOAD DUP4 PUSH4 0xFFFFFFFF AND PUSH1 0xE0 SHL DUP2 MSTORE PUSH1 0x4 ADD PUSH2 0x2611 SWAP3 SWAP2 SWAP1 PUSH1 0x1 PUSH1 0x1 PUSH1 0xA0 SHL SUB SWAP3 SWAP1 SWAP3 AND DUP3 MSTORE PUSH1 0x20 DUP3 ADD MSTORE PUSH1 0x40 ADD SWAP1 JUMP JUMPDEST PUSH1 0x0 PUSH1 0x40 MLOAD DUP1 DUP4 SUB DUP2 PUSH1 0x0 DUP8 DUP1 EXTCODESIZE ISZERO DUP1 ISZERO PUSH2 0x262B JUMPI PUSH1 0x0 DUP1 REVERT JUMPDEST POP GAS CALL ISZERO DUP1 ISZERO PUSH2 0x263F JUMPI RETURNDATASIZE PUSH1 0x0 DUP1 RETURNDATACOPY RETURNDATASIZE PUSH1 0x0 REVERT JUMPDEST POP POP POP POP JUMPDEST POP PUSH1 0x1 ADD PUSH2 0x2440 JUMP JUMPDEST POP POP POP JUMP JUMPDEST PUSH1 0x40 MLOAD DUP1 PUSH1 0xC0 ADD PUSH1 0x40 MSTORE DUP1 PUSH1 0x6 SWAP1 PUSH1 0x20 DUP3 MUL DUP1 CALLDATASIZE DUP4 CALLDATACOPY POP SWAP2 SWAP3 SWAP2 POP POP JUMP JUMPDEST PUSH1 0x0 PUSH1 0x20 DUP3 DUP5 SUB SLT ISZERO PUSH2 0x2682 JUMPI PUSH1 0x0 DUP1 REVERT JUMPDEST POP CALLDATALOAD SWAP2 SWAP1 POP JUMP JUMPDEST PUSH1 0x0 DUP2 MLOAD DUP1 DUP5 MSTORE PUSH1 0x20 DUP1 DUP6 ADD SWAP5 POP PUSH1 0x20 DUP5 ADD PUSH1 0x0 JUMPDEST DUP4 DUP2 LT ISZERO PUSH2 0x26C3 JUMPI DUP2 MLOAD PUSH1 0x1 PUSH1 0x1 PUSH1 0xA0 SHL SUB AND DUP8 MSTORE SWAP6 DUP3 ADD SWAP6 SWAP1 DUP3 ADD SWAP1 PUSH1 0x1 ADD PUSH2 0x269E JUMP JUMPDEST POP SWAP5 SWAP6 SWAP5 POP POP POP POP POP JUMP JUMPDEST PUSH6 0xFFFFFFFFFFFF PUSH1 0xD0 SHL DUP7 AND DUP2 MSTORE DUP5 PUSH1 0x20 DUP3 ADD MSTORE PUSH1 0xA0 PUSH1 0x40 DUP3 ADD MSTORE PUSH1 0x0 PUSH2 0x26F8 PUSH1 0xA0 DUP4 ADD DUP7 PUSH2 0x2689 JUMP JUMPDEST PUSH1 0x60 DUP4 ADD SWAP5 SWAP1 SWAP5 MSTORE POP PUSH1 0x80 ADD MSTORE SWAP4 SWAP3 POP POP POP JUMP JUMPDEST PUSH1 0x0 DUP1 PUSH1 0x40 DUP4 DUP6 SUB SLT ISZERO PUSH2 0x271F JUMPI PUSH1 0x0 DUP1 REVERT JUMPDEST POP POP DUP1 CALLDATALOAD SWAP3 PUSH1 0x20 SWAP1 SWAP2 ADD CALLDATALOAD SWAP2 POP JUMP JUMPDEST PUSH1 0x1 PUSH1 0x1 PUSH1 0xA0 SHL SUB DUP2 AND DUP2 EQ PUSH2 0x15D0 JUMPI PUSH1 0x0 DUP1 REVERT JUMPDEST PUSH1 0x0 PUSH1 0x20 DUP3 DUP5 SUB SLT ISZERO PUSH2 0x2755 JUMPI PUSH1 0x0 DUP1 REVERT JUMPDEST DUP2 CALLDATALOAD PUSH2 0x2760 DUP2 PUSH2 0x272E JUMP JUMPDEST SWAP4 SWAP3 POP POP POP JUMP JUMPDEST DUP1 PUSH1 0x0 JUMPDEST PUSH1 0x6 DUP2 LT ISZERO PUSH2 0x278C JUMPI DUP2 MLOAD ISZERO ISZERO DUP5 MSTORE PUSH1 0x20 SWAP4 DUP5 ADD SWAP4 SWAP1 SWAP2 ADD SWAP1 PUSH1 0x1 ADD PUSH2 0x276B JUMP JUMPDEST POP POP POP POP JUMP JUMPDEST PUSH1 0x0 PUSH2 0x280 DUP3 ADD SWAP1 POP DUP12 DUP3 MSTORE PUSH1 0x20 DUP12 PUSH1 0x20 DUP5 ADD MSTORE DUP11 PUSH1 0x40 DUP5 ADD MSTORE DUP10 PUSH1 0x60 DUP5 ADD MSTORE PUSH6 0xFFFFFFFFFFFF PUSH1 0xD0 SHL DUP10 AND PUSH1 0x80 DUP5 ADD MSTORE DUP8 PUSH1 0xA0 DUP5 ADD MSTORE DUP7 PUSH1 0xC0 DUP5 ADD MSTORE DUP6 ISZERO ISZERO PUSH1 0xE0 DUP5 ADD MSTORE PUSH2 0x100 DUP4 ADD DUP6 PUSH1 0x0 JUMPDEST PUSH1 0x6 DUP2 LT ISZERO PUSH2 0x27FD JUMPI DUP2 MLOAD DUP4 MSTORE SWAP2 DUP4 ADD SWAP2 SWAP1 DUP4 ADD SWAP1 PUSH1 0x1 ADD PUSH2 0x27E0 JUMP JUMPDEST POP POP POP POP PUSH2 0x280F PUSH2 0x1C0 DUP4 ADD DUP5 PUSH2 0x2767 JUMP JUMPDEST SWAP12 SWAP11 POP POP POP POP POP POP POP POP POP POP POP JUMP JUMPDEST PUSH1 0x0 DUP1 PUSH1 0x40 DUP4 DUP6 SUB SLT ISZERO PUSH2 0x2831 JUMPI PUSH1 0x0 DUP1 REVERT JUMPDEST DUP3 CALLDATALOAD SWAP2 POP PUSH1 0x20 DUP4 ADD CALLDATALOAD PUSH2 0x2843 DUP2 PUSH2 0x272E JUMP JUMPDEST DUP1 SWAP2 POP POP SWAP3 POP SWAP3 SWAP1 POP JUMP JUMPDEST DUP1 ISZERO ISZERO DUP2 EQ PUSH2 0x15D0 JUMPI PUSH1 0x0 DUP1 REVERT JUMPDEST PUSH1 0x0 PUSH1 0x20 DUP3 DUP5 SUB SLT ISZERO PUSH2 0x286E JUMPI PUSH1 0x0 DUP1 REVERT JUMPDEST DUP2 CALLDATALOAD PUSH2 0x2760 DUP2 PUSH2 0x284E JUMP JUMPDEST PUSH4 0x4E487B71 PUSH1 0xE0 SHL PUSH1 0x0 MSTORE PUSH1 0x11 PUSH1 0x4 MSTORE PUSH1 0x24 PUSH1 0x0 REVERT JUMPDEST PUSH1 0x0 PUSH1 0x1 DUP3 ADD PUSH2 0x28A1 JUMPI PUSH2 0x28A1 PUSH2 0x2879 JUMP JUMPDEST POP PUSH1 0x1 ADD SWAP1 JUMP JUMPDEST PUSH4 0x4E487B71 PUSH1 0xE0 SHL PUSH1 0x0 MSTORE PUSH1 0x41 PUSH1 0x4 MSTORE PUSH1 0x24 PUSH1 0x0 REVERT JUMPDEST DUP2 DUP2 SUB DUP2 DUP2 GT ISZERO PUSH2 0x28D1 JUMPI PUSH2 0x28D1 PUSH2 0x2879 JUMP JUMPDEST SWAP3 SWAP2 POP POP JUMP JUMPDEST PUSH4 0x4E487B71 PUSH1 0xE0 SHL PUSH1 0x0 MSTORE PUSH1 0x12 PUSH1 0x4 MSTORE PUSH1 0x24 PUSH1 0x0 REVERT JUMPDEST PUSH1 0x0 DUP3 PUSH2 0x28FC JUMPI PUSH2 0x28FC PUSH2 0x28D7 JUMP JUMPDEST POP MOD SWAP1 JUMP JUMPDEST PUSH4 0x4E487B71 PUSH1 0xE0 SHL PUSH1 0x0 MSTORE PUSH1 0x32 PUSH1 0x4 MSTORE PUSH1 0x24 PUSH1 0x0 REVERT JUMPDEST DUP1 MLOAD PUSH1 0x20 DUP3 ADD MLOAD PUSH1 0x1 PUSH1 0x1 PUSH1 0xD0 SHL SUB NOT DUP1 DUP3 AND SWAP3 SWAP2 SWAP1 PUSH1 0x6 DUP4 LT ISZERO PUSH2 0x2946 JUMPI DUP1 DUP2 DUP5 PUSH1 0x6 SUB PUSH1 0x3 SHL SHL DUP4 AND AND SWAP4 POP JUMPDEST POP POP POP SWAP2 SWAP1 POP JUMP JUMPDEST DUP1 DUP3 ADD DUP1 DUP3 GT ISZERO PUSH2 0x28D1 JUMPI PUSH2 0x28D1 PUSH2 0x2879 JUMP JUMPDEST DUP1 DUP3 MUL DUP2 ISZERO DUP3 DUP3 DIV DUP5 EQ OR PUSH2 0x28D1 JUMPI PUSH2 0x28D1 PUSH2 0x2879 JUMP JUMPDEST DUP1 MLOAD PUSH2 0x2983 DUP2 PUSH2 0x272E JUMP JUMPDEST SWAP2 SWAP1 POP JUMP JUMPDEST PUSH1 0x0 PUSH1 0x20 DUP1 DUP4 DUP6 SUB SLT ISZERO PUSH2 0x299B JUMPI PUSH1 0x0 DUP1 REVERT JUMPDEST DUP3 MLOAD PUSH8 0xFFFFFFFFFFFFFFFF DUP1 DUP3 GT ISZERO PUSH2 0x29B3 JUMPI PUSH1 0x0 DUP1 REVERT JUMPDEST DUP2 DUP6 ADD SWAP2 POP DUP6 PUSH1 0x1F DUP4 ADD SLT PUSH2 0x29C7 JUMPI PUSH1 0x0 DUP1 REVERT JUMPDEST DUP2 MLOAD DUP2 DUP2 GT ISZERO PUSH2 0x29D9 JUMPI PUSH2 0x29D9 PUSH2 0x28A8 JUMP JUMPDEST DUP1 PUSH1 0x5 SHL PUSH1 0x40 MLOAD PUSH1 0x1F NOT PUSH1 0x3F DUP4 ADD AND DUP2 ADD DUP2 DUP2 LT DUP6 DUP3 GT OR ISZERO PUSH2 0x29FE JUMPI PUSH2 0x29FE PUSH2 0x28A8 JUMP JUMPDEST PUSH1 0x40 MSTORE SWAP2 DUP3 MSTORE DUP5 DUP3 ADD SWAP3 POP DUP4 DUP2 ADD DUP6 ADD SWAP2 DUP9 DUP4 GT ISZERO PUSH2 0x2A1C JUMPI PUSH1 0x0 DUP1 REVERT JUMPDEST SWAP4 DUP6 ADD SWAP4 JUMPDEST DUP3 DUP6 LT ISZERO PUSH2 0x2A41 JUMPI PUSH2 0x2A32 DUP6 PUSH2 0x2978 JUMP JUMPDEST DUP5 MSTORE SWAP4 DUP6 ADD SWAP4 SWAP3 DUP6 ADD SWAP3 PUSH2 0x2A21 JUMP JUMPDEST SWAP9 SWAP8 POP POP POP POP POP POP POP POP JUMP JUMPDEST DUP3 DUP2 MSTORE PUSH1 0x40 PUSH1 0x20 DUP3 ADD MSTORE PUSH1 0x0 PUSH2 0x2A66 PUSH1 0x40 DUP4 ADD DUP5 PUSH2 0x2689 JUMP JUMPDEST SWAP5 SWAP4 POP POP POP POP JUMP JUMPDEST DUP1 MLOAD PUSH1 0x1 PUSH1 0x1 PUSH1 0xD0 SHL SUB NOT DUP2 AND DUP2 EQ PUSH2 0x2983 JUMPI PUSH1 0x0 DUP1 REVERT JUMPDEST PUSH1 0x0 DUP1 PUSH1 0x40 DUP4 DUP6 SUB SLT ISZERO PUSH2 0x2A99 JUMPI PUSH1 0x0 DUP1 REVERT JUMPDEST DUP3 MLOAD PUSH2 0x2AA4 DUP2 PUSH2 0x284E JUMP JUMPDEST SWAP2 POP PUSH2 0x2AB2 PUSH1 0x20 DUP5 ADD PUSH2 0x2A6E JUMP JUMPDEST SWAP1 POP SWAP3 POP SWAP3 SWAP1 POP JUMP JUMPDEST PUSH1 0x0 DUP3 PUSH2 0x2ACA JUMPI PUSH2 0x2ACA PUSH2 0x28D7 JUMP JUMPDEST POP DIV SWAP1 JUMP JUMPDEST PUSH1 0x0 DUP1 PUSH1 0x0 DUP1 PUSH1 0x0 DUP1 PUSH1 0x0 PUSH1 0xE0 DUP9 DUP11 SUB SLT ISZERO PUSH2 0x2AEA JUMPI PUSH1 0x0 DUP1 REVERT JUMPDEST PUSH2 0x2AF3 DUP9 PUSH2 0x2A6E JUMP JUMPDEST SWAP7 POP PUSH1 0x20 DUP9 ADD MLOAD SWAP6 POP PUSH1 0x40 DUP9 ADD MLOAD SWAP5 POP PUSH1 0x60 DUP9 ADD MLOAD SWAP4 POP PUSH1 0x80 DUP9 ADD MLOAD PUSH2 0x2B18 DUP2 PUSH2 0x272E JUMP JUMPDEST PUSH1 0xA0 DUP10 ADD MLOAD SWAP1 SWAP4 POP PUSH1 0xFF DUP2 AND DUP2 EQ PUSH2 0x2B2F JUMPI PUSH1 0x0 DUP1 REVERT JUMPDEST PUSH1 0xC0 DUP10 ADD MLOAD SWAP1 SWAP3 POP PUSH2 0x2B40 DUP2 PUSH2 0x284E JUMP JUMPDEST DUP1 SWAP2 POP POP SWAP3 SWAP6 SWAP9 SWAP2 SWAP5 SWAP8 POP SWAP3 SWAP6 POP JUMP INVALID SWAP12 PUSH24 0x9B17422D0DF92223018B32B4D1FA46E071723D6817E2486D STOP EXTCODESIZE 0xEC 0xC5 PUSH0 STOP COINBASE TIMESTAMP NUMBER DIFFICULTY GASLIMIT CHAINID SELFBALANCE BASEFEE BLOBHASH BLOBBASEFEE 0x4B 0x4C 0x4D 0x4E 0x4F POP MLOAD MSTORE MSTORE8 SLOAD SSTORE JUMP JUMPI PC MSIZE GAS ADDRESS BALANCE ORIGIN CALLER CALLVALUE CALLDATALOAD CALLDATASIZE CALLDATACOPY CODESIZE CODECOPY LOG2 PUSH5 0x6970667358 0x22 SLT KECCAK256 PUSH5 0xCFBB497B95 0xB5 PUSH19 0xBCD1CBA0485CD70D455A7985440A879A08977F SWAP6 ADDMOD LT 0xF8 BLOCKHASH PUSH5 0x736F6C6343 STOP ADDMOD XOR STOP CALLER "
		},
		"gasEstimates": {
			"creation": {
				"codeDepositCost": "2242000",
				"executionCost": "infinite",
				"totalCost": "infinite"
			},
			"external": {
				"CLAIM_WINDOW_ROUNDS()": "263",
				"INTERACTION_WINDOW()": "284",
				"ROUND_DURATION()": "infinite",
				"SEGMENTS_PER_ROUND()": "284",
				"SEGMENT_DURATION()": "392",
				"SETTLEMENT_WINDOW()": "307",
				"addToPot()": "infinite",
				"claimWinnings(uint256)": "infinite",
				"currentAccumulatedRewards()": "2385",
				"currentRound()": "2364",
				"currentSegment()": "2363",
				"eligibleRegistry()": "2450",
				"entriesPaused()": "2400",
				"fundPot()": "infinite",
				"gameRegistry()": "2404",
				"gameStarted()": "2378",
				"gameUnclaimed_winningsPool()": "2362",
				"getCurrentWindow()": "infinite",
				"getRoundResult(uint256)": "infinite",
				"getRoundState()": "infinite",
				"getSegmentDigit(uint256)": "infinite",
				"hasClaimed(uint256,address)": "2761",
				"isSettlementWindow()": "4706",
				"nudgeScroll()": "infinite",
				"owner()": "2422",
				"pauseEntries()": "26601",
				"pauseSettlement()": "26621",
				"positionCounter()": "2407",
				"prizeEscrow()": "2406",
				"protocolCutBps()": "2364",
				"renounceOwnership()": "infinite",
				"roundPerWinnerAmount(uint256)": "2548",
				"roundPotAmount(uint256)": "2549",
				"roundRemainder(uint256)": "2550",
				"roundWinners(uint256,uint256)": "4797",
				"roundWinningString(uint256)": "2535",
				"router()": "2469",
				"segmentDigitCounter(uint256)": "2506",
				"segmentDigitLocked(uint256)": "2561",
				"segmentStartTime()": "2407",
				"setEligibleRegistry(address)": "26795",
				"setGameRegistry(address)": "26853",
				"setPrizeEscrow(address)": "26854",
				"setProtocolCutBps(uint256)": "25682",
				"setRouter(address)": "26875",
				"setSettler(address)": "28017",
				"setShuffleEnabled(bool)": "26820",
				"setWinnersPerRound(uint256)": "25668",
				"settleSegment()": "infinite",
				"settlementPaused()": "2455",
				"settler()": "2471",
				"shuffleEnabled()": "2400",
				"startGame()": "infinite",
				"timeRemainingInSegment()": "infinite",
				"transferOwnership(address)": "infinite",
				"unpauseEntries()": "26637",
				"unpauseSettlement()": "26638",
				"winnersPerRound()": "2429"
			},
			"internal": {
				"_activateRoundEntries(uint256)": "infinite",
				"_buildWinningString()": "infinite",
				"_distributePotAndRecord(uint256,address[] memory,uint256)": "infinite",
				"_findVerifiedWinners(uint256,bytes6)": "infinite",
				"_isInSettlementWindow()": "4344",
				"_processExpiredEntries(uint256)": "infinite",
				"_settleRound()": "infinite"
			}
		},
		"methodIdentifiers": {
			"CLAIM_WINDOW_ROUNDS()": "ac650783",
			"INTERACTION_WINDOW()": "7f35d49f",
			"ROUND_DURATION()": "6641ea08",
			"SEGMENTS_PER_ROUND()": "b7bc5fb6",
			"SEGMENT_DURATION()": "231e832d",
			"SETTLEMENT_WINDOW()": "3deb6cae",
			"addToPot()": "17ebf6ae",
			"claimWinnings(uint256)": "677bd9ff",
			"currentAccumulatedRewards()": "b2721164",
			"currentRound()": "8a19c8bc",
			"currentSegment()": "99b465cb",
			"eligibleRegistry()": "92eaa9d9",
			"entriesPaused()": "2ee0c463",
			"fundPot()": "9c737e8f",
			"gameRegistry()": "da090755",
			"gameStarted()": "5e123ce4",
			"gameUnclaimed_winningsPool()": "d38970bc",
			"getCurrentWindow()": "0f67e7d5",
			"getRoundResult(uint256)": "02e28c70",
			"getRoundState()": "293c2958",
			"getSegmentDigit(uint256)": "b63ff8a3",
			"hasClaimed(uint256,address)": "873f6f9e",
			"isSettlementWindow()": "c33b7586",
			"nudgeScroll()": "0b7a567b",
			"owner()": "8da5cb5b",
			"pauseEntries()": "0a8506ca",
			"pauseSettlement()": "d57f9525",
			"positionCounter()": "63d5ab8d",
			"prizeEscrow()": "1a3b8e8c",
			"protocolCutBps()": "41d67d06",
			"renounceOwnership()": "715018a6",
			"roundPerWinnerAmount(uint256)": "f82a23d1",
			"roundPotAmount(uint256)": "7f79ba59",
			"roundRemainder(uint256)": "b303feeb",
			"roundWinners(uint256,uint256)": "03e3cd6a",
			"roundWinningString(uint256)": "79eedbdd",
			"router()": "f887ea40",
			"segmentDigitCounter(uint256)": "c4887f15",
			"segmentDigitLocked(uint256)": "d6194c00",
			"segmentStartTime()": "cc16fe5b",
			"setEligibleRegistry(address)": "f13afb90",
			"setGameRegistry(address)": "dd898b2f",
			"setPrizeEscrow(address)": "5f303f1c",
			"setProtocolCutBps(uint256)": "456990c7",
			"setRouter(address)": "c0d78655",
			"setSettler(address)": "07f19eba",
			"setShuffleEnabled(bool)": "ebd2fe41",
			"setWinnersPerRound(uint256)": "1ad41d14",
			"settleSegment()": "46a662bf",
			"settlementPaused()": "4168632d",
			"settler()": "ab221a76",
			"shuffleEnabled()": "c74b817d",
			"startGame()": "d65ab5f2",
			"timeRemainingInSegment()": "a1a016a3",
			"transferOwnership(address)": "f2fde38b",
			"unpauseEntries()": "e9755b59",
			"unpauseSettlement()": "76d9ff2c",
			"winnersPerRound()": "77043591"
		}
	},
	"abi": [
		{
			"inputs": [
				{
					"internalType": "address",
					"name": "_prizeEscrow",
					"type": "address"
				},
				{
					"internalType": "address",
					"name": "_gameRegistry",
					"type": "address"
				},
				{
					"internalType": "address",
					"name": "_router",
					"type": "address"
				}
			],
			"stateMutability": "nonpayable",
			"type": "constructor"
		},
		{
			"inputs": [
				{
					"internalType": "address",
					"name": "winner",
					"type": "address"
				},
				{
					"internalType": "uint256",
					"name": "round",
					"type": "uint256"
				}
			],
			"name": "AlreadyClaimed",
			"type": "error"
		},
		{
			"inputs": [
				{
					"internalType": "uint256",
					"name": "round",
					"type": "uint256"
				}
			],
			"name": "ClaimWindowExpired",
			"type": "error"
		},
		{
			"inputs": [],
			"name": "EntriesPaused",
			"type": "error"
		},
		{
			"inputs": [],
			"name": "GameAlreadyStarted",
			"type": "error"
		},
		{
			"inputs": [],
			"name": "GameNotStarted",
			"type": "error"
		},
		{
			"inputs": [],
			"name": "InSettlementWindow",
			"type": "error"
		},
		{
			"inputs": [],
			"name": "InsufficientPotBalance",
			"type": "error"
		},
		{
			"inputs": [],
			"name": "InvalidWinnersCount",
			"type": "error"
		},
		{
			"inputs": [
				{
					"internalType": "address",
					"name": "caller",
					"type": "address"
				},
				{
					"internalType": "uint256",
					"name": "round",
					"type": "uint256"
				}
			],
			"name": "NotAWinner",
			"type": "error"
		},
		{
			"inputs": [],
			"name": "NotInSettlementWindow",
			"type": "error"
		},
		{
			"inputs": [],
			"name": "NotRouter",
			"type": "error"
		},
		{
			"inputs": [],
			"name": "NotSettler",
			"type": "error"
		},
		{
			"inputs": [
				{
					"internalType": "address",
					"name": "owner",
					"type": "address"
				}
			],
			"name": "OwnableInvalidOwner",
			"type": "error"
		},
		{
			"inputs": [
				{
					"internalType": "address",
					"name": "account",
					"type": "address"
				}
			],
			"name": "OwnableUnauthorizedAccount",
			"type": "error"
		},
		{
			"inputs": [],
			"name": "ReentrancyGuardReentrantCall",
			"type": "error"
		},
		{
			"inputs": [
				{
					"internalType": "uint256",
					"name": "round",
					"type": "uint256"
				}
			],
			"name": "RoundNotSettled",
			"type": "error"
		},
		{
			"inputs": [
				{
					"internalType": "uint256",
					"name": "elapsed",
					"type": "uint256"
				},
				{
					"internalType": "uint256",
					"name": "required",
					"type": "uint256"
				}
			],
			"name": "SegmentNotComplete",
			"type": "error"
		},
		{
			"inputs": [],
			"name": "SettlementPaused",
			"type": "error"
		},
		{
			"inputs": [],
			"name": "SettlingDigit",
			"type": "error"
		},
		{
			"inputs": [],
			"name": "ZeroAddress",
			"type": "error"
		},
		{
			"inputs": [],
			"name": "ZeroAmount",
			"type": "error"
		},
		{
			"anonymous": false,
			"inputs": [
				{
					"indexed": false,
					"internalType": "uint256",
					"name": "timestamp",
					"type": "uint256"
				}
			],
			"name": "GameStarted",
			"type": "event"
		},
		{
			"anonymous": false,
			"inputs": [
				{
					"indexed": true,
					"internalType": "address",
					"name": "previousOwner",
					"type": "address"
				},
				{
					"indexed": true,
					"internalType": "address",
					"name": "newOwner",
					"type": "address"
				}
			],
			"name": "OwnershipTransferred",
			"type": "event"
		},
		{
			"anonymous": false,
			"inputs": [
				{
					"indexed": true,
					"internalType": "uint256",
					"name": "round",
					"type": "uint256"
				},
				{
					"indexed": false,
					"internalType": "uint256",
					"name": "position",
					"type": "uint256"
				},
				{
					"indexed": false,
					"internalType": "bytes6",
					"name": "winningString",
					"type": "bytes6"
				}
			],
			"name": "PositionFrozen",
			"type": "event"
		},
		{
			"anonymous": false,
			"inputs": [
				{
					"indexed": false,
					"internalType": "uint256",
					"name": "amount",
					"type": "uint256"
				},
				{
					"indexed": true,
					"internalType": "address",
					"name": "from",
					"type": "address"
				}
			],
			"name": "PotFunded",
			"type": "event"
		},
		{
			"anonymous": false,
			"inputs": [
				{
					"indexed": false,
					"internalType": "uint256",
					"name": "bps",
					"type": "uint256"
				}
			],
			"name": "ProtocolCutSet",
			"type": "event"
		},
		{
			"anonymous": false,
			"inputs": [
				{
					"indexed": false,
					"internalType": "uint256",
					"name": "amount",
					"type": "uint256"
				}
			],
			"name": "ProtocolCutTaken",
			"type": "event"
		},
		{
			"anonymous": false,
			"inputs": [
				{
					"indexed": true,
					"internalType": "uint256",
					"name": "round",
					"type": "uint256"
				},
				{
					"indexed": false,
					"internalType": "bytes6",
					"name": "winningString",
					"type": "bytes6"
				},
				{
					"indexed": false,
					"internalType": "uint256",
					"name": "potAmount",
					"type": "uint256"
				},
				{
					"indexed": false,
					"internalType": "uint256",
					"name": "numWinners",
					"type": "uint256"
				},
				{
					"indexed": false,
					"internalType": "uint256",
					"name": "remainderR",
					"type": "uint256"
				},
				{
					"indexed": false,
					"internalType": "uint256",
					"name": "totalEntries",
					"type": "uint256"
				},
				{
					"indexed": false,
					"internalType": "uint256",
					"name": "timestamp",
					"type": "uint256"
				}
			],
			"name": "RoundSettled",
			"type": "event"
		},
		{
			"anonymous": false,
			"inputs": [
				{
					"indexed": true,
					"internalType": "uint256",
					"name": "round",
					"type": "uint256"
				},
				{
					"indexed": false,
					"internalType": "uint256",
					"name": "timestamp",
					"type": "uint256"
				}
			],
			"name": "RoundStarted",
			"type": "event"
		},
		{
			"anonymous": false,
			"inputs": [
				{
					"indexed": false,
					"internalType": "uint256",
					"name": "newPosition",
					"type": "uint256"
				},
				{
					"indexed": true,
					"internalType": "uint256",
					"name": "round",
					"type": "uint256"
				},
				{
					"indexed": false,
					"internalType": "uint256",
					"name": "segment",
					"type": "uint256"
				}
			],
			"name": "ScrollNudged",
			"type": "event"
		},
		{
			"anonymous": false,
			"inputs": [
				{
					"indexed": true,
					"internalType": "uint256",
					"name": "round",
					"type": "uint256"
				},
				{
					"indexed": false,
					"internalType": "uint256",
					"name": "segment",
					"type": "uint256"
				},
				{
					"indexed": false,
					"internalType": "uint256",
					"name": "timestamp",
					"type": "uint256"
				}
			],
			"name": "SegmentAdvanced",
			"type": "event"
		},
		{
			"anonymous": false,
			"inputs": [
				{
					"indexed": true,
					"internalType": "address",
					"name": "newSettler",
					"type": "address"
				}
			],
			"name": "SettlerUpdated",
			"type": "event"
		},
		{
			"anonymous": false,
			"inputs": [
				{
					"indexed": false,
					"internalType": "uint256",
					"name": "count",
					"type": "uint256"
				}
			],
			"name": "WinnersPerRoundSet",
			"type": "event"
		},
		{
			"anonymous": false,
			"inputs": [
				{
					"indexed": true,
					"internalType": "address",
					"name": "winner",
					"type": "address"
				},
				{
					"indexed": true,
					"internalType": "uint256",
					"name": "round",
					"type": "uint256"
				},
				{
					"indexed": false,
					"internalType": "uint256",
					"name": "amount",
					"type": "uint256"
				}
			],
			"name": "WinningsClaimed",
			"type": "event"
		},
		{
			"inputs": [],
			"name": "CLAIM_WINDOW_ROUNDS",
			"outputs": [
				{
					"internalType": "uint256",
					"name": "",
					"type": "uint256"
				}
			],
			"stateMutability": "view",
			"type": "function"
		},
		{
			"inputs": [],
			"name": "INTERACTION_WINDOW",
			"outputs": [
				{
					"internalType": "uint256",
					"name": "",
					"type": "uint256"
				}
			],
			"stateMutability": "view",
			"type": "function"
		},
		{
			"inputs": [],
			"name": "ROUND_DURATION",
			"outputs": [
				{
					"internalType": "uint256",
					"name": "",
					"type": "uint256"
				}
			],
			"stateMutability": "view",
			"type": "function"
		},
		{
			"inputs": [],
			"name": "SEGMENTS_PER_ROUND",
			"outputs": [
				{
					"internalType": "uint256",
					"name": "",
					"type": "uint256"
				}
			],
			"stateMutability": "view",
			"type": "function"
		},
		{
			"inputs": [],
			"name": "SEGMENT_DURATION",
			"outputs": [
				{
					"internalType": "uint256",
					"name": "",
					"type": "uint256"
				}
			],
			"stateMutability": "view",
			"type": "function"
		},
		{
			"inputs": [],
			"name": "SETTLEMENT_WINDOW",
			"outputs": [
				{
					"internalType": "uint256",
					"name": "",
					"type": "uint256"
				}
			],
			"stateMutability": "view",
			"type": "function"
		},
		{
			"inputs": [],
			"name": "addToPot",
			"outputs": [],
			"stateMutability": "payable",
			"type": "function"
		},
		{
			"inputs": [
				{
					"internalType": "uint256",
					"name": "round",
					"type": "uint256"
				}
			],
			"name": "claimWinnings",
			"outputs": [],
			"stateMutability": "nonpayable",
			"type": "function"
		},
		{
			"inputs": [],
			"name": "currentAccumulatedRewards",
			"outputs": [
				{
					"internalType": "uint256",
					"name": "",
					"type": "uint256"
				}
			],
			"stateMutability": "view",
			"type": "function"
		},
		{
			"inputs": [],
			"name": "currentRound",
			"outputs": [
				{
					"internalType": "uint256",
					"name": "",
					"type": "uint256"
				}
			],
			"stateMutability": "view",
			"type": "function"
		},
		{
			"inputs": [],
			"name": "currentSegment",
			"outputs": [
				{
					"internalType": "uint256",
					"name": "",
					"type": "uint256"
				}
			],
			"stateMutability": "view",
			"type": "function"
		},
		{
			"inputs": [],
			"name": "eligibleRegistry",
			"outputs": [
				{
					"internalType": "address",
					"name": "",
					"type": "address"
				}
			],
			"stateMutability": "view",
			"type": "function"
		},
		{
			"inputs": [],
			"name": "entriesPaused",
			"outputs": [
				{
					"internalType": "bool",
					"name": "",
					"type": "bool"
				}
			],
			"stateMutability": "view",
			"type": "function"
		},
		{
			"inputs": [],
			"name": "fundPot",
			"outputs": [],
			"stateMutability": "payable",
			"type": "function"
		},
		{
			"inputs": [],
			"name": "gameRegistry",
			"outputs": [
				{
					"internalType": "address",
					"name": "",
					"type": "address"
				}
			],
			"stateMutability": "view",
			"type": "function"
		},
		{
			"inputs": [],
			"name": "gameStarted",
			"outputs": [
				{
					"internalType": "bool",
					"name": "",
					"type": "bool"
				}
			],
			"stateMutability": "view",
			"type": "function"
		},
		{
			"inputs": [],
			"name": "gameUnclaimed_winningsPool",
			"outputs": [
				{
					"internalType": "uint256",
					"name": "",
					"type": "uint256"
				}
			],
			"stateMutability": "view",
			"type": "function"
		},
		{
			"inputs": [],
			"name": "getCurrentWindow",
			"outputs": [
				{
					"internalType": "bytes6",
					"name": "window",
					"type": "bytes6"
				}
			],
			"stateMutability": "view",
			"type": "function"
		},
		{
			"inputs": [
				{
					"internalType": "uint256",
					"name": "round",
					"type": "uint256"
				}
			],
			"name": "getRoundResult",
			"outputs": [
				{
					"internalType": "bytes6",
					"name": "winningString",
					"type": "bytes6"
				},
				{
					"internalType": "uint256",
					"name": "potAmount",
					"type": "uint256"
				},
				{
					"internalType": "address[]",
					"name": "winners",
					"type": "address[]"
				},
				{
					"internalType": "uint256",
					"name": "perWinner",
					"type": "uint256"
				},
				{
					"internalType": "uint256",
					"name": "remainder",
					"type": "uint256"
				}
			],
			"stateMutability": "view",
			"type": "function"
		},
		{
			"inputs": [],
			"name": "getRoundState",
			"outputs": [
				{
					"internalType": "uint256",
					"name": "round",
					"type": "uint256"
				},
				{
					"internalType": "uint256",
					"name": "segment",
					"type": "uint256"
				},
				{
					"internalType": "uint256",
					"name": "segmentStart",
					"type": "uint256"
				},
				{
					"internalType": "uint256",
					"name": "counter",
					"type": "uint256"
				},
				{
					"internalType": "bytes6",
					"name": "currentWindow",
					"type": "bytes6"
				},
				{
					"internalType": "uint256",
					"name": "pot",
					"type": "uint256"
				},
				{
					"internalType": "uint256",
					"name": "unclaimedPool",
					"type": "uint256"
				},
				{
					"internalType": "bool",
					"name": "inSettlement",
					"type": "bool"
				},
				{
					"internalType": "uint256[6]",
					"name": "digitCounters",
					"type": "uint256[6]"
				},
				{
					"internalType": "bool[6]",
					"name": "digitLocked",
					"type": "bool[6]"
				}
			],
			"stateMutability": "view",
			"type": "function"
		},
		{
			"inputs": [
				{
					"internalType": "uint256",
					"name": "segment",
					"type": "uint256"
				}
			],
			"name": "getSegmentDigit",
			"outputs": [
				{
					"internalType": "bytes1",
					"name": "",
					"type": "bytes1"
				}
			],
			"stateMutability": "view",
			"type": "function"
		},
		{
			"inputs": [
				{
					"internalType": "uint256",
					"name": "",
					"type": "uint256"
				},
				{
					"internalType": "address",
					"name": "",
					"type": "address"
				}
			],
			"name": "hasClaimed",
			"outputs": [
				{
					"internalType": "bool",
					"name": "",
					"type": "bool"
				}
			],
			"stateMutability": "view",
			"type": "function"
		},
		{
			"inputs": [],
			"name": "isSettlementWindow",
			"outputs": [
				{
					"internalType": "bool",
					"name": "",
					"type": "bool"
				}
			],
			"stateMutability": "view",
			"type": "function"
		},
		{
			"inputs": [],
			"name": "nudgeScroll",
			"outputs": [],
			"stateMutability": "nonpayable",
			"type": "function"
		},
		{
			"inputs": [],
			"name": "owner",
			"outputs": [
				{
					"internalType": "address",
					"name": "",
					"type": "address"
				}
			],
			"stateMutability": "view",
			"type": "function"
		},
		{
			"inputs": [],
			"name": "pauseEntries",
			"outputs": [],
			"stateMutability": "nonpayable",
			"type": "function"
		},
		{
			"inputs": [],
			"name": "pauseSettlement",
			"outputs": [],
			"stateMutability": "nonpayable",
			"type": "function"
		},
		{
			"inputs": [],
			"name": "positionCounter",
			"outputs": [
				{
					"internalType": "uint256",
					"name": "",
					"type": "uint256"
				}
			],
			"stateMutability": "view",
			"type": "function"
		},
		{
			"inputs": [],
			"name": "prizeEscrow",
			"outputs": [
				{
					"internalType": "address",
					"name": "",
					"type": "address"
				}
			],
			"stateMutability": "view",
			"type": "function"
		},
		{
			"inputs": [],
			"name": "protocolCutBps",
			"outputs": [
				{
					"internalType": "uint256",
					"name": "",
					"type": "uint256"
				}
			],
			"stateMutability": "view",
			"type": "function"
		},
		{
			"inputs": [],
			"name": "renounceOwnership",
			"outputs": [],
			"stateMutability": "nonpayable",
			"type": "function"
		},
		{
			"inputs": [
				{
					"internalType": "uint256",
					"name": "",
					"type": "uint256"
				}
			],
			"name": "roundPerWinnerAmount",
			"outputs": [
				{
					"internalType": "uint256",
					"name": "",
					"type": "uint256"
				}
			],
			"stateMutability": "view",
			"type": "function"
		},
		{
			"inputs": [
				{
					"internalType": "uint256",
					"name": "",
					"type": "uint256"
				}
			],
			"name": "roundPotAmount",
			"outputs": [
				{
					"internalType": "uint256",
					"name": "",
					"type": "uint256"
				}
			],
			"stateMutability": "view",
			"type": "function"
		},
		{
			"inputs": [
				{
					"internalType": "uint256",
					"name": "",
					"type": "uint256"
				}
			],
			"name": "roundRemainder",
			"outputs": [
				{
					"internalType": "uint256",
					"name": "",
					"type": "uint256"
				}
			],
			"stateMutability": "view",
			"type": "function"
		},
		{
			"inputs": [
				{
					"internalType": "uint256",
					"name": "",
					"type": "uint256"
				},
				{
					"internalType": "uint256",
					"name": "",
					"type": "uint256"
				}
			],
			"name": "roundWinners",
			"outputs": [
				{
					"internalType": "address",
					"name": "",
					"type": "address"
				}
			],
			"stateMutability": "view",
			"type": "function"
		},
		{
			"inputs": [
				{
					"internalType": "uint256",
					"name": "",
					"type": "uint256"
				}
			],
			"name": "roundWinningString",
			"outputs": [
				{
					"internalType": "bytes6",
					"name": "",
					"type": "bytes6"
				}
			],
			"stateMutability": "view",
			"type": "function"
		},
		{
			"inputs": [],
			"name": "router",
			"outputs": [
				{
					"internalType": "address",
					"name": "",
					"type": "address"
				}
			],
			"stateMutability": "view",
			"type": "function"
		},
		{
			"inputs": [
				{
					"internalType": "uint256",
					"name": "",
					"type": "uint256"
				}
			],
			"name": "segmentDigitCounter",
			"outputs": [
				{
					"internalType": "uint256",
					"name": "",
					"type": "uint256"
				}
			],
			"stateMutability": "view",
			"type": "function"
		},
		{
			"inputs": [
				{
					"internalType": "uint256",
					"name": "",
					"type": "uint256"
				}
			],
			"name": "segmentDigitLocked",
			"outputs": [
				{
					"internalType": "bool",
					"name": "",
					"type": "bool"
				}
			],
			"stateMutability": "view",
			"type": "function"
		},
		{
			"inputs": [],
			"name": "segmentStartTime",
			"outputs": [
				{
					"internalType": "uint256",
					"name": "",
					"type": "uint256"
				}
			],
			"stateMutability": "view",
			"type": "function"
		},
		{
			"inputs": [
				{
					"internalType": "address",
					"name": "_registry",
					"type": "address"
				}
			],
			"name": "setEligibleRegistry",
			"outputs": [],
			"stateMutability": "nonpayable",
			"type": "function"
		},
		{
			"inputs": [
				{
					"internalType": "address",
					"name": "_registry",
					"type": "address"
				}
			],
			"name": "setGameRegistry",
			"outputs": [],
			"stateMutability": "nonpayable",
			"type": "function"
		},
		{
			"inputs": [
				{
					"internalType": "address",
					"name": "_escrow",
					"type": "address"
				}
			],
			"name": "setPrizeEscrow",
			"outputs": [],
			"stateMutability": "nonpayable",
			"type": "function"
		},
		{
			"inputs": [
				{
					"internalType": "uint256",
					"name": "_bps",
					"type": "uint256"
				}
			],
			"name": "setProtocolCutBps",
			"outputs": [],
			"stateMutability": "nonpayable",
			"type": "function"
		},
		{
			"inputs": [
				{
					"internalType": "address",
					"name": "_router",
					"type": "address"
				}
			],
			"name": "setRouter",
			"outputs": [],
			"stateMutability": "nonpayable",
			"type": "function"
		},
		{
			"inputs": [
				{
					"internalType": "address",
					"name": "_settler",
					"type": "address"
				}
			],
			"name": "setSettler",
			"outputs": [],
			"stateMutability": "nonpayable",
			"type": "function"
		},
		{
			"inputs": [
				{
					"internalType": "bool",
					"name": "_enabled",
					"type": "bool"
				}
			],
			"name": "setShuffleEnabled",
			"outputs": [],
			"stateMutability": "nonpayable",
			"type": "function"
		},
		{
			"inputs": [
				{
					"internalType": "uint256",
					"name": "_count",
					"type": "uint256"
				}
			],
			"name": "setWinnersPerRound",
			"outputs": [],
			"stateMutability": "nonpayable",
			"type": "function"
		},
		{
			"inputs": [],
			"name": "settleSegment",
			"outputs": [],
			"stateMutability": "nonpayable",
			"type": "function"
		},
		{
			"inputs": [],
			"name": "settlementPaused",
			"outputs": [
				{
					"internalType": "bool",
					"name": "",
					"type": "bool"
				}
			],
			"stateMutability": "view",
			"type": "function"
		},
		{
			"inputs": [],
			"name": "settler",
			"outputs": [
				{
					"internalType": "address",
					"name": "",
					"type": "address"
				}
			],
			"stateMutability": "view",
			"type": "function"
		},
		{
			"inputs": [],
			"name": "shuffleEnabled",
			"outputs": [
				{
					"internalType": "bool",
					"name": "",
					"type": "bool"
				}
			],
			"stateMutability": "view",
			"type": "function"
		},
		{
			"inputs": [],
			"name": "startGame",
			"outputs": [],
			"stateMutability": "nonpayable",
			"type": "function"
		},
		{
			"inputs": [],
			"name": "timeRemainingInSegment",
			"outputs": [
				{
					"internalType": "uint256",
					"name": "",
					"type": "uint256"
				}
			],
			"stateMutability": "view",
			"type": "function"
		},
		{
			"inputs": [
				{
					"internalType": "address",
					"name": "newOwner",
					"type": "address"
				}
			],
			"name": "transferOwnership",
			"outputs": [],
			"stateMutability": "nonpayable",
			"type": "function"
		},
		{
			"inputs": [],
			"name": "unpauseEntries",
			"outputs": [],
			"stateMutability": "nonpayable",
			"type": "function"
		},
		{
			"inputs": [],
			"name": "unpauseSettlement",
			"outputs": [],
			"stateMutability": "nonpayable",
			"type": "function"
		},
		{
			"inputs": [],
			"name": "winnersPerRound",
			"outputs": [
				{
					"internalType": "uint256",
					"name": "",
					"type": "uint256"
				}
			],
			"stateMutability": "view",
			"type": "function"
		}
	]
}