{
	"data": {
		"bytecode": {
			"linkReferences": {},
			"object": "60a06040523480156200001157600080fd5b5060405162001a9f38038062001a9f833981016040819052620000349162000192565b33806200005b57604051631e4fbdf760e01b81526000600482015260240160405180910390fd5b620000668162000125565b5060017f9b779b17422d0df92223018b32b4d1fa46e071723d6817e2486d003becc55f00556001600160a01b038416620000b35760405163d92e233d60e01b815260040160405180910390fd5b6001600160a01b03938416608052600180549385166001600160a01b031994851617815560028054938616938516939093179092556003805491909416921691909117909155603260045562278d00600555336000908152600660205260409020805460ff19169091179055620001ef565b600080546001600160a01b038381166001600160a01b0319831681178455604051919092169283917f8be0079c531659141344cd1fd0a4f28419497f9722a3daafe3b4186f6b6457e09190a35050565b80516001600160a01b03811681146200018d57600080fd5b919050565b60008060008060808587031215620001a957600080fd5b620001b48562000175565b9350620001c46020860162000175565b9250620001d46040860162000175565b9150620001e46060860162000175565b905092959194509250565b6080516118636200023c6000396000818161022c015281816107fe015281816108bd01528181610c1101528181610e5a01528181610f420152818161100601526112d701526118636000f3fe6080604052600436106101bb5760003560e01c80638bdcf669116100ec578063b9e4355a1161008a578063e90900af11610064578063e90900af1461053b578063eb16402614610551578063f2fde38b14610571578063f60bb7201461059157600080fd5b8063b9e4355a146104cd578063c59d4847146104ed578063d61b44971461052657600080fd5b806397975c75116100c657806397975c75146104575780639fbaf3de146104775780639fe65f191461048d578063ad8944da146104ad57600080fd5b80638bdcf6691461040d5780638da5cb5b14610423578063926b71891461044157600080fd5b80633c3fc552116101595780635f303f1c116101335780635f303f1c14610398578063715018a6146103b857806385654e9a146103cd57806386507218146103ed57600080fd5b80633c3fc5521461034b5780634e6630b01461036f5780635a778c0f1461038257600080fd5b806323f49b921161019557806323f49b92146102cb5780632cb97183146102eb578063330ac98d1461030b57806334e908a71461032b57600080fd5b80630e31648f1461021a578063175ed4ba1461026b5780631a3b8e8c146102ab57600080fd5b366102155734156102135734600760008282546101d89190611628565b909155505060405134815233907f2ccfc58c2cef4ee590b5f16be0548cc54afc12e1c66a67b362b7d640fd16bb2d9060200160405180910390a25b005b600080fd5b34801561022657600080fd5b5061024e7f000000000000000000000000000000000000000000000000000000000000000081565b6040516001600160a01b0390911681526020015b60405180910390f35b34801561027757600080fd5b5061029b610286366004611656565b60066020526000908152604090205460ff1681565b6040519015158152602001610262565b3480156102b757600080fd5b5060025461024e906001600160a01b031681565b3480156102d757600080fd5b506102136102e6366004611656565b610599565b3480156102f757600080fd5b5061021361030636600461167a565b610612565b34801561031757600080fd5b506102136103263660046116a6565b61076b565b34801561033757600080fd5b5060015461024e906001600160a01b031681565b34801561035757600080fd5b50610361600a5481565b604051908152602001610262565b34801561037b57600080fd5b5047610361565b34801561038e57600080fd5b5061036160045481565b3480156103a457600080fd5b506102136103b3366004611656565b6109d2565b3480156103c457600080fd5b50610213610a4b565b3480156103d957600080fd5b506102136103e83660046116c8565b610a5f565b3480156103f957600080fd5b5060035461024e906001600160a01b031681565b34801561041957600080fd5b5061036160085481565b34801561042f57600080fd5b506000546001600160a01b031661024e565b34801561044d57600080fd5b5061036160055481565b34801561046357600080fd5b506102136104723660046116a6565b610a8d565b34801561048357600080fd5b5061036160075481565b34801561049957600080fd5b506102136104a8366004611656565b611150565b3480156104b957600080fd5b506102136104c83660046116e1565b6111c9565b3480156104d957600080fd5b506102136104e83660046116c8565b611257565b3480156104f957600080fd5b50600754600854600954600a54604080519485526020850193909352918301526060820152608001610262565b34801561053257600080fd5b506103616112bf565b34801561054757600080fd5b5061036160095481565b34801561055d57600080fd5b5061021361056c3660046116c8565b61134f565b34801561057d57600080fd5b5061021361058c366004611656565b61149f565b6102136114da565b6105a1611549565b6001600160a01b0381166105c85760405163d92e233d60e01b815260040160405180910390fd5b600380546001600160a01b0319166001600160a01b0383169081179091556040517fc4a4ea6abc08bd7f8df3db8a1c998f19b3e0c348176f93732cd54db1a4b5013690600090a250565b61061a611576565b610622611549565b6001600160a01b0382166106495760405163d92e233d60e01b815260040160405180910390fd5b8060000361066a57604051631f2a200560e01b815260040160405180910390fd5b478111156106985760405162fdf57560e51b8152600481018290524760248201526044015b60405180910390fd5b6000826001600160a01b03168260405160006040518083038185875af1925050503d80600081146106e5576040519150601f19603f3d011682016040523d82523d6000602084013e6106ea565b606091505b505090508061070c576040516312171d8360e31b815260040160405180910390fd5b826001600160a01b03167f6e67adc6f62cbac95e14fce70ecc9eaf0b0c4093237158f9a4e84fadb06dfe4c8360405161074791815260200190565b60405180910390a250610767600160008051602061180e83398151915255565b5050565b610773611576565b61077b611549565b8160000361079c57604051631f2a200560e01b815260040160405180910390fd5b806000036107bd57604051631f2a200560e01b815260040160405180910390fd5b6001546001600160a01b03166107e65760405163d92e233d60e01b815260040160405180910390fd5b6040516370a0823160e01b81523060048201526000907f00000000000000000000000000000000000000000000000000000000000000006001600160a01b0316906370a0823190602401602060405180830381865afa15801561084d573d6000803e3d6000fd5b505050506040513d601f19601f82011682018060405250810190610871919061171f565b90508083111561089457604051631f2a200560e01b815260040160405180910390fd5b60015460405163423f6cef60e01b81526001600160a01b039182166004820152602481018590527f00000000000000000000000000000000000000000000000000000000000000009091169063423f6cef90604401600060405180830381600087803b15801561090357600080fd5b505af1158015610917573d6000803e3d6000fd5b505060015460405163246132f960e01b815260048101879052602481018690526001600160a01b03909116925063246132f99150604401600060405180830381600087803b15801561096857600080fd5b505af115801561097c573d6000803e3d6000fd5b505060408051868152602081018690527f8b7aaffe68a47637f66b06784a531963146073858c3a5ef41fc98bc456d7b64a935001905060405180910390a150610767600160008051602061180e83398151915255565b6109da611549565b6001600160a01b038116610a015760405163d92e233d60e01b815260040160405180910390fd5b600280546001600160a01b0319166001600160a01b0383169081179091556040517f1176bb0c626865dd5bb6009a83ff7a7f968d1759188ec01b8befb5bbde338aa090600090a250565b610a53611549565b610a5d6000611592565b565b610a67611549565b80600003610a8857604051631f2a200560e01b815260040160405180910390fd5b600555565b610a95611576565b610a9d611549565b81600003610abe57604051631f2a200560e01b815260040160405180910390fd5b47821115610ae75760405162fdf57560e51b81526004810183905247602482015260440161068f565b6003546001600160a01b0316610b105760405163d92e233d60e01b815260040160405180910390fd5b600080600360009054906101000a90046001600160a01b03166001600160a01b0316630902f1ac6040518163ffffffff1660e01b8152600401606060405180830381865afa158015610b66573d6000803e3d6000fd5b505050506040513d601f19601f82011682018060405250810190610b8a9190611754565b50915091506000600360009054906101000a90046001600160a01b03166001600160a01b0316630dfe16816040518163ffffffff1660e01b8152600401602060405180830381865afa158015610be4573d6000803e3d6000fd5b505050506040513d601f19601f82011682018060405250810190610c0891906117a4565b905060008060007f00000000000000000000000000000000000000000000000000000000000000006001600160a01b0316846001600160a01b03161490508015610c6957846001600160701b03169250856001600160701b03169150610c82565b856001600160701b03169250846001600160701b031691505b6000610c90896103e56117c1565b9050600081610ca1866103e86117c1565b610cab9190611628565b610cb585846117c1565b610cbf91906117d8565b905088811015610cec576040516371c4efed60e01b815260048101829052602481018a905260440161068f565b6003546040516000916001600160a01b0316908c908381818185875af1925050503d8060008114610d39576040519150601f19603f3d011682016040523d82523d6000602084013e610d3e565b606091505b5050905080610d6057604051637f23919560e01b815260040160405180910390fd5b8315610dd6576003546040516336cd320560e11b815260048101849052600060248201523060448201526001600160a01b0390911690636d9a640a90606401600060405180830381600087803b158015610db957600080fd5b505af1158015610dcd573d6000803e3d6000fd5b50505050610e42565b6003546040516336cd320560e11b815260006004820152602481018490523060448201526001600160a01b0390911690636d9a640a90606401600060405180830381600087803b158015610e2957600080fd5b505af1158015610e3d573d6000803e3d6000fd5b505050505b6040516370a0823160e01b81523060048201526000907f00000000000000000000000000000000000000000000000000000000000000006001600160a01b0316906370a0823190602401602060405180830381865afa158015610ea9573d6000803e3d6000fd5b505050506040513d601f19601f82011682018060405250810190610ecd919061171f565b90508a811015610efa576040516371c4efed60e01b815260048101829052602481018c905260440161068f565b6000606460045483610f0c91906117c1565b610f1691906117d8565b90506000610f2482846117fa565b90508115610fbe57604051630852cd8d60e31b8152600481018390527f00000000000000000000000000000000000000000000000000000000000000006001600160a01b0316906342966c6890602401600060405180830381600087803b158015610f8e57600080fd5b505af1158015610fa2573d6000803e3d6000fd5b505050508160086000828254610fb89190611628565b90915550505b600081118015610fd857506001546001600160a01b031615155b156110e55760015460405163423f6cef60e01b81526001600160a01b039182166004820152602481018390527f00000000000000000000000000000000000000000000000000000000000000009091169063423f6cef90604401600060405180830381600087803b15801561104c57600080fd5b505af1158015611060573d6000803e3d6000fd5b505060015460055460405163246132f960e01b81526004810186905260248101919091526001600160a01b03909116925063246132f99150604401600060405180830381600087803b1580156110b557600080fd5b505af11580156110c9573d6000803e3d6000fd5b5050505080600960008282546110df9190611628565b90915550505b604080518f815260208101859052908101839052606081018290527f42659a4aa613c1e350c764f0ff2be36a175ac2a1e4b77b8e1467d1fed32becc89060800160405180910390a1505050505050505050505050610767600160008051602061180e83398151915255565b611158611549565b6001600160a01b03811661117f5760405163d92e233d60e01b815260040160405180910390fd5b600180546001600160a01b0319166001600160a01b0383169081179091556040517ff520447191196b125f76f7110397fdf32b1b9cefb7dec323bd3b998022ac233890600090a250565b6111d1611549565b6001600160a01b0382166111f85760405163d92e233d60e01b815260040160405180910390fd5b6001600160a01b038216600081815260066020908152604091829020805460ff191685151590811790915591519182527fbac4a6ee215c0287f7da3a73c4fa957dde930dc8190bba3f30d0104ae15ca9fd910160405180910390a25050565b61125f611549565b60648111156112845760405163046a85ef60e31b81526004810182905260240161068f565b60048190556040518181527fe85d9362d5330e5046ba20d38140f318950327f15b22123dae77dfff2f1dde719060200160405180910390a150565b6040516370a0823160e01b81523060048201526000907f00000000000000000000000000000000000000000000000000000000000000006001600160a01b0316906370a0823190602401602060405180830381865afa158015611326573d6000803e3d6000fd5b505050506040513d601f19601f8201168201806040525081019061134a919061171f565b905090565b611357611576565b61135f611549565b8060000361138057604051631f2a200560e01b815260040160405180910390fd5b6002546001600160a01b03166113a95760405163d92e233d60e01b815260040160405180910390fd5b478111156113d25760405162fdf57560e51b81526004810182905247602482015260440161068f565b600260009054906101000a90046001600160a01b03166001600160a01b031663d0e30db0826040518263ffffffff1660e01b81526004016000604051808303818588803b15801561142257600080fd5b505af1158015611436573d6000803e3d6000fd5b505050505080600a600082825461144d9190611628565b90915550506040518181527f065da79752e89c0debd87a1c71ae1d472add974dc19b2fc258f88b5598fcfa769060200160405180910390a161149c600160008051602061180e83398151915255565b50565b6114a7611549565b6001600160a01b0381166114d157604051631e4fbdf760e01b81526000600482015260240161068f565b61149c81611592565b346000036114fb57604051631f2a200560e01b815260040160405180910390fd5b346007600082825461150d9190611628565b909155505060405134815233907f2ccfc58c2cef4ee590b5f16be0548cc54afc12e1c66a67b362b7d640fd16bb2d9060200160405180910390a2565b6000546001600160a01b03163314610a5d5760405163118cdaa760e01b815233600482015260240161068f565b61157e6115e2565b600260008051602061180e83398151915255565b600080546001600160a01b038381166001600160a01b0319831681178455604051919092169283917f8be0079c531659141344cd1fd0a4f28419497f9722a3daafe3b4186f6b6457e09190a35050565b60008051602061180e83398151915254600203610a5d57604051633ee5aeb560e01b815260040160405180910390fd5b634e487b7160e01b600052601160045260246000fd5b8082018082111561163b5761163b611612565b92915050565b6001600160a01b038116811461149c57600080fd5b60006020828403121561166857600080fd5b813561167381611641565b9392505050565b6000806040838503121561168d57600080fd5b823561169881611641565b946020939093013593505050565b600080604083850312156116b957600080fd5b50508035926020909101359150565b6000602082840312156116da57600080fd5b5035919050565b600080604083850312156116f457600080fd5b82356116ff81611641565b91506020830135801515811461171457600080fd5b809150509250929050565b60006020828403121561173157600080fd5b5051919050565b80516001600160701b038116811461174f57600080fd5b919050565b60008060006060848603121561176957600080fd5b61177284611738565b925061178060208501611738565b9150604084015163ffffffff8116811461179957600080fd5b809150509250925092565b6000602082840312156117b657600080fd5b815161167381611641565b808202811582820484141761163b5761163b611612565b6000826117f557634e487b7160e01b600052601260045260246000fd5b500490565b8181038181111561163b5761163b61161256fe9b779b17422d0df92223018b32b4d1fa46e071723d6817e2486d003becc55f00a26469706673582212207e3a54fc26ef7ccb61d4f1dd0dd6598f6390fe0eff559229c6ef7212ffcf406a64736f6c63430008180033",
			"opcodes": "PUSH1 0xA0 PUSH1 0x40 MSTORE CALLVALUE DUP1 ISZERO PUSH3 0x11 JUMPI PUSH1 0x0 DUP1 REVERT JUMPDEST POP PUSH1 0x40 MLOAD PUSH3 0x1A9F CODESIZE SUB DUP1 PUSH3 0x1A9F DUP4 CODECOPY DUP2 ADD PUSH1 0x40 DUP2 SWAP1 MSTORE PUSH3 0x34 SWAP2 PUSH3 0x192 JUMP JUMPDEST CALLER DUP1 PUSH3 0x5B JUMPI PUSH1 0x40 MLOAD PUSH4 0x1E4FBDF7 PUSH1 0xE0 SHL DUP2 MSTORE PUSH1 0x0 PUSH1 0x4 DUP3 ADD MSTORE PUSH1 0x24 ADD PUSH1 0x40 MLOAD DUP1 SWAP2 SUB SWAP1 REVERT JUMPDEST PUSH3 0x66 DUP2 PUSH3 0x125 JUMP JUMPDEST POP PUSH1 0x1 PUSH32 0x9B779B17422D0DF92223018B32B4D1FA46E071723D6817E2486D003BECC55F00 SSTORE PUSH1 0x1 PUSH1 0x1 PUSH1 0xA0 SHL SUB DUP5 AND PUSH3 0xB3 JUMPI PUSH1 0x40 MLOAD PUSH4 0xD92E233D PUSH1 0xE0 SHL DUP2 MSTORE PUSH1 0x4 ADD PUSH1 0x40 MLOAD DUP1 SWAP2 SUB SWAP1 REVERT JUMPDEST PUSH1 0x1 PUSH1 0x1 PUSH1 0xA0 SHL SUB SWAP4 DUP5 AND PUSH1 0x80 MSTORE PUSH1 0x1 DUP1 SLOAD SWAP4 DUP6 AND PUSH1 0x1 PUSH1 0x1 PUSH1 0xA0 SHL SUB NOT SWAP5 DUP6 AND OR DUP2 SSTORE PUSH1 0x2 DUP1 SLOAD SWAP4 DUP7 AND SWAP4 DUP6 AND SWAP4 SWAP1 SWAP4 OR SWAP1 SWAP3 SSTORE PUSH1 0x3 DUP1 SLOAD SWAP2 SWAP1 SWAP5 AND SWAP3 AND SWAP2 SWAP1 SWAP2 OR SWAP1 SWAP2 SSTORE PUSH1 0x32 PUSH1 0x4 SSTORE PUSH3 0x278D00 PUSH1 0x5 SSTORE CALLER PUSH1 0x0 SWAP1 DUP2 MSTORE PUSH1 0x6 PUSH1 0x20 MSTORE PUSH1 0x40 SWAP1 KECCAK256 DUP1 SLOAD PUSH1 0xFF NOT AND SWAP1 SWAP2 OR SWAP1 SSTORE PUSH3 0x1EF JUMP JUMPDEST PUSH1 0x0 DUP1 SLOAD PUSH1 0x1 PUSH1 0x1 PUSH1 0xA0 SHL SUB DUP4 DUP2 AND PUSH1 0x1 PUSH1 0x1 PUSH1 0xA0 SHL SUB NOT DUP4 AND DUP2 OR DUP5 SSTORE PUSH1 0x40 MLOAD SWAP2 SWAP1 SWAP3 AND SWAP3 DUP4 SWAP2 PUSH32 0x8BE0079C531659141344CD1FD0A4F28419497F9722A3DAAFE3B4186F6B6457E0 SWAP2 SWAP1 LOG3 POP POP JUMP JUMPDEST DUP1 MLOAD PUSH1 0x1 PUSH1 0x1 PUSH1 0xA0 SHL SUB DUP2 AND DUP2 EQ PUSH3 0x18D JUMPI PUSH1 0x0 DUP1 REVERT JUMPDEST SWAP2 SWAP1 POP JUMP JUMPDEST PUSH1 0x0 DUP1 PUSH1 0x0 DUP1 PUSH1 0x80 DUP6 DUP8 SUB SLT ISZERO PUSH3 0x1A9 JUMPI PUSH1 0x0 DUP1 REVERT JUMPDEST PUSH3 0x1B4 DUP6 PUSH3 0x175 JUMP JUMPDEST SWAP4 POP PUSH3 0x1C4 PUSH1 0x20 DUP7 ADD PUSH3 0x175 JUMP JUMPDEST SWAP3 POP PUSH3 0x1D4 PUSH1 0x40 DUP7 ADD PUSH3 0x175 JUMP JUMPDEST SWAP2 POP PUSH3 0x1E4 PUSH1 0x60 DUP7 ADD PUSH3 0x175 JUMP JUMPDEST SWAP1 POP SWAP3 SWAP6 SWAP2 SWAP5 POP SWAP3 POP JUMP JUMPDEST PUSH1 0x80 MLOAD PUSH2 0x1863 PUSH3 0x23C PUSH1 0x0 CODECOPY PUSH1 0x0 DUP2 DUP2 PUSH2 0x22C ADD MSTORE DUP2 DUP2 PUSH2 0x7FE ADD MSTORE DUP2 DUP2 PUSH2 0x8BD ADD MSTORE DUP2 DUP2 PUSH2 0xC11 ADD MSTORE DUP2 DUP2 PUSH2 0xE5A ADD MSTORE DUP2 DUP2 PUSH2 0xF42 ADD MSTORE DUP2 DUP2 PUSH2 0x1006 ADD MSTORE PUSH2 0x12D7 ADD MSTORE PUSH2 0x1863 PUSH1 0x0 RETURN INVALID PUSH1 0x80 PUSH1 0x40 MSTORE PUSH1 0x4 CALLDATASIZE LT PUSH2 0x1BB JUMPI PUSH1 0x0 CALLDATALOAD PUSH1 0xE0 SHR DUP1 PUSH4 0x8BDCF669 GT PUSH2 0xEC JUMPI DUP1 PUSH4 0xB9E4355A GT PUSH2 0x8A JUMPI DUP1 PUSH4 0xE90900AF GT PUSH2 0x64 JUMPI DUP1 PUSH4 0xE90900AF EQ PUSH2 0x53B JUMPI DUP1 PUSH4 0xEB164026 EQ PUSH2 0x551 JUMPI DUP1 PUSH4 0xF2FDE38B EQ PUSH2 0x571 JUMPI DUP1 PUSH4 0xF60BB720 EQ PUSH2 0x591 JUMPI PUSH1 0x0 DUP1 REVERT JUMPDEST DUP1 PUSH4 0xB9E4355A EQ PUSH2 0x4CD JUMPI DUP1 PUSH4 0xC59D4847 EQ PUSH2 0x4ED JUMPI DUP1 PUSH4 0xD61B4497 EQ PUSH2 0x526 JUMPI PUSH1 0x0 DUP1 REVERT JUMPDEST DUP1 PUSH4 0x97975C75 GT PUSH2 0xC6 JUMPI DUP1 PUSH4 0x97975C75 EQ PUSH2 0x457 JUMPI DUP1 PUSH4 0x9FBAF3DE EQ PUSH2 0x477 JUMPI DUP1 PUSH4 0x9FE65F19 EQ PUSH2 0x48D JUMPI DUP1 PUSH4 0xAD8944DA EQ PUSH2 0x4AD JUMPI PUSH1 0x0 DUP1 REVERT JUMPDEST DUP1 PUSH4 0x8BDCF669 EQ PUSH2 0x40D JUMPI DUP1 PUSH4 0x8DA5CB5B EQ PUSH2 0x423 JUMPI DUP1 PUSH4 0x926B7189 EQ PUSH2 0x441 JUMPI PUSH1 0x0 DUP1 REVERT JUMPDEST DUP1 PUSH4 0x3C3FC552 GT PUSH2 0x159 JUMPI DUP1 PUSH4 0x5F303F1C GT PUSH2 0x133 JUMPI DUP1 PUSH4 0x5F303F1C EQ PUSH2 0x398 JUMPI DUP1 PUSH4 0x715018A6 EQ PUSH2 0x3B8 JUMPI DUP1 PUSH4 0x85654E9A EQ PUSH2 0x3CD JUMPI DUP1 PUSH4 0x86507218 EQ PUSH2 0x3ED JUMPI PUSH1 0x0 DUP1 REVERT JUMPDEST DUP1 PUSH4 0x3C3FC552 EQ PUSH2 0x34B JUMPI DUP1 PUSH4 0x4E6630B0 EQ PUSH2 0x36F JUMPI DUP1 PUSH4 0x5A778C0F EQ PUSH2 0x382 JUMPI PUSH1 0x0 DUP1 REVERT JUMPDEST DUP1 PUSH4 0x23F49B92 GT PUSH2 0x195 JUMPI DUP1 PUSH4 0x23F49B92 EQ PUSH2 0x2CB JUMPI DUP1 PUSH4 0x2CB97183 EQ PUSH2 0x2EB JUMPI DUP1 PUSH4 0x330AC98D EQ PUSH2 0x30B JUMPI DUP1 PUSH4 0x34E908A7 EQ PUSH2 0x32B JUMPI PUSH1 0x0 DUP1 REVERT JUMPDEST DUP1 PUSH4 0xE31648F EQ PUSH2 0x21A JUMPI DUP1 PUSH4 0x175ED4BA EQ PUSH2 0x26B JUMPI DUP1 PUSH4 0x1A3B8E8C EQ PUSH2 0x2AB JUMPI PUSH1 0x0 DUP1 REVERT JUMPDEST CALLDATASIZE PUSH2 0x215 JUMPI CALLVALUE ISZERO PUSH2 0x213 JUMPI CALLVALUE PUSH1 0x7 PUSH1 0x0 DUP3 DUP3 SLOAD PUSH2 0x1D8 SWAP2 SWAP1 PUSH2 0x1628 JUMP JUMPDEST SWAP1 SWAP2 SSTORE POP POP PUSH1 0x40 MLOAD CALLVALUE DUP2 MSTORE CALLER SWAP1 PUSH32 0x2CCFC58C2CEF4EE590B5F16BE0548CC54AFC12E1C66A67B362B7D640FD16BB2D SWAP1 PUSH1 0x20 ADD PUSH1 0x40 MLOAD DUP1 SWAP2 SUB SWAP1 LOG2 JUMPDEST STOP JUMPDEST PUSH1 0x0 DUP1 REVERT JUMPDEST CALLVALUE DUP1 ISZERO PUSH2 0x226 JUMPI PUSH1 0x0 DUP1 REVERT JUMPDEST POP PUSH2 0x24E PUSH32 0x0 DUP2 JUMP JUMPDEST PUSH1 0x40 MLOAD PUSH1 0x1 PUSH1 0x1 PUSH1 0xA0 SHL SUB SWAP1 SWAP2 AND DUP2 MSTORE PUSH1 0x20 ADD JUMPDEST PUSH1 0x40 MLOAD DUP1 SWAP2 SUB SWAP1 RETURN JUMPDEST CALLVALUE DUP1 ISZERO PUSH2 0x277 JUMPI PUSH1 0x0 DUP1 REVERT JUMPDEST POP PUSH2 0x29B PUSH2 0x286 CALLDATASIZE PUSH1 0x4 PUSH2 0x1656 JUMP JUMPDEST PUSH1 0x6 PUSH1 0x20 MSTORE PUSH1 0x0 SWAP1 DUP2 MSTORE PUSH1 0x40 SWAP1 KECCAK256 SLOAD PUSH1 0xFF AND DUP2 JUMP JUMPDEST PUSH1 0x40 MLOAD SWAP1 ISZERO ISZERO DUP2 MSTORE PUSH1 0x20 ADD PUSH2 0x262 JUMP JUMPDEST CALLVALUE DUP1 ISZERO PUSH2 0x2B7 JUMPI PUSH1 0x0 DUP1 REVERT JUMPDEST POP PUSH1 0x2 SLOAD PUSH2 0x24E SWAP1 PUSH1 0x1 PUSH1 0x1 PUSH1 0xA0 SHL SUB AND DUP2 JUMP JUMPDEST CALLVALUE DUP1 ISZERO PUSH2 0x2D7 JUMPI PUSH1 0x0 DUP1 REVERT JUMPDEST POP PUSH2 0x213 PUSH2 0x2E6 CALLDATASIZE PUSH1 0x4 PUSH2 0x1656 JUMP JUMPDEST PUSH2 0x599 JUMP JUMPDEST CALLVALUE DUP1 ISZERO PUSH2 0x2F7 JUMPI PUSH1 0x0 DUP1 REVERT JUMPDEST POP PUSH2 0x213 PUSH2 0x306 CALLDATASIZE PUSH1 0x4 PUSH2 0x167A JUMP JUMPDEST PUSH2 0x612 JUMP JUMPDEST CALLVALUE DUP1 ISZERO PUSH2 0x317 JUMPI PUSH1 0x0 DUP1 REVERT JUMPDEST POP PUSH2 0x213 PUSH2 0x326 CALLDATASIZE PUSH1 0x4 PUSH2 0x16A6 JUMP JUMPDEST PUSH2 0x76B JUMP JUMPDEST CALLVALUE DUP1 ISZERO PUSH2 0x337 JUMPI PUSH1 0x0 DUP1 REVERT JUMPDEST POP PUSH1 0x1 SLOAD PUSH2 0x24E SWAP1 PUSH1 0x1 PUSH1 0x1 PUSH1 0xA0 SHL SUB AND DUP2 JUMP JUMPDEST CALLVALUE DUP1 ISZERO PUSH2 0x357 JUMPI PUSH1 0x0 DUP1 REVERT JUMPDEST POP PUSH2 0x361 PUSH1 0xA SLOAD DUP2 JUMP JUMPDEST PUSH1 0x40 MLOAD SWAP1 DUP2 MSTORE PUSH1 0x20 ADD PUSH2 0x262 JUMP JUMPDEST CALLVALUE DUP1 ISZERO PUSH2 0x37B JUMPI PUSH1 0x0 DUP1 REVERT JUMPDEST POP SELFBALANCE PUSH2 0x361 JUMP JUMPDEST CALLVALUE DUP1 ISZERO PUSH2 0x38E JUMPI PUSH1 0x0 DUP1 REVERT JUMPDEST POP PUSH2 0x361 PUSH1 0x4 SLOAD DUP2 JUMP JUMPDEST CALLVALUE DUP1 ISZERO PUSH2 0x3A4 JUMPI PUSH1 0x0 DUP1 REVERT JUMPDEST POP PUSH2 0x213 PUSH2 0x3B3 CALLDATASIZE PUSH1 0x4 PUSH2 0x1656 JUMP JUMPDEST PUSH2 0x9D2 JUMP JUMPDEST CALLVALUE DUP1 ISZERO PUSH2 0x3C4 JUMPI PUSH1 0x0 DUP1 REVERT JUMPDEST POP PUSH2 0x213 PUSH2 0xA4B JUMP JUMPDEST CALLVALUE DUP1 ISZERO PUSH2 0x3D9 JUMPI PUSH1 0x0 DUP1 REVERT JUMPDEST POP PUSH2 0x213 PUSH2 0x3E8 CALLDATASIZE PUSH1 0x4 PUSH2 0x16C8 JUMP JUMPDEST PUSH2 0xA5F JUMP JUMPDEST CALLVALUE DUP1 ISZERO PUSH2 0x3F9 JUMPI PUSH1 0x0 DUP1 REVERT JUMPDEST POP PUSH1 0x3 SLOAD PUSH2 0x24E SWAP1 PUSH1 0x1 PUSH1 0x1 PUSH1 0xA0 SHL SUB AND DUP2 JUMP JUMPDEST CALLVALUE DUP1 ISZERO PUSH2 0x419 JUMPI PUSH1 0x0 DUP1 REVERT JUMPDEST POP PUSH2 0x361 PUSH1 0x8 SLOAD DUP2 JUMP JUMPDEST CALLVALUE DUP1 ISZERO PUSH2 0x42F JUMPI PUSH1 0x0 DUP1 REVERT JUMPDEST POP PUSH1 0x0 SLOAD PUSH1 0x1 PUSH1 0x1 PUSH1 0xA0 SHL SUB AND PUSH2 0x24E JUMP JUMPDEST CALLVALUE DUP1 ISZERO PUSH2 0x44D JUMPI PUSH1 0x0 DUP1 REVERT JUMPDEST POP PUSH2 0x361 PUSH1 0x5 SLOAD DUP2 JUMP JUMPDEST CALLVALUE DUP1 ISZERO PUSH2 0x463 JUMPI PUSH1 0x0 DUP1 REVERT JUMPDEST POP PUSH2 0x213 PUSH2 0x472 CALLDATASIZE PUSH1 0x4 PUSH2 0x16A6 JUMP JUMPDEST PUSH2 0xA8D JUMP JUMPDEST CALLVALUE DUP1 ISZERO PUSH2 0x483 JUMPI PUSH1 0x0 DUP1 REVERT JUMPDEST POP PUSH2 0x361 PUSH1 0x7 SLOAD DUP2 JUMP JUMPDEST CALLVALUE DUP1 ISZERO PUSH2 0x499 JUMPI PUSH1 0x0 DUP1 REVERT JUMPDEST POP PUSH2 0x213 PUSH2 0x4A8 CALLDATASIZE PUSH1 0x4 PUSH2 0x1656 JUMP JUMPDEST PUSH2 0x1150 JUMP JUMPDEST CALLVALUE DUP1 ISZERO PUSH2 0x4B9 JUMPI PUSH1 0x0 DUP1 REVERT JUMPDEST POP PUSH2 0x213 PUSH2 0x4C8 CALLDATASIZE PUSH1 0x4 PUSH2 0x16E1 JUMP JUMPDEST PUSH2 0x11C9 JUMP JUMPDEST CALLVALUE DUP1 ISZERO PUSH2 0x4D9 JUMPI PUSH1 0x0 DUP1 REVERT JUMPDEST POP PUSH2 0x213 PUSH2 0x4E8 CALLDATASIZE PUSH1 0x4 PUSH2 0x16C8 JUMP JUMPDEST PUSH2 0x1257 JUMP JUMPDEST CALLVALUE DUP1 ISZERO PUSH2 0x4F9 JUMPI PUSH1 0x0 DUP1 REVERT JUMPDEST POP PUSH1 0x7 SLOAD PUSH1 0x8 SLOAD PUSH1 0x9 SLOAD PUSH1 0xA SLOAD PUSH1 0x40 DUP1 MLOAD SWAP5 DUP6 MSTORE PUSH1 0x20 DUP6 ADD SWAP4 SWAP1 SWAP4 MSTORE SWAP2 DUP4 ADD MSTORE PUSH1 0x60 DUP3 ADD MSTORE PUSH1 0x80 ADD PUSH2 0x262 JUMP JUMPDEST CALLVALUE DUP1 ISZERO PUSH2 0x532 JUMPI PUSH1 0x0 DUP1 REVERT JUMPDEST POP PUSH2 0x361 PUSH2 0x12BF JUMP JUMPDEST CALLVALUE DUP1 ISZERO PUSH2 0x547 JUMPI PUSH1 0x0 DUP1 REVERT JUMPDEST POP PUSH2 0x361 PUSH1 0x9 SLOAD DUP2 JUMP JUMPDEST CALLVALUE DUP1 ISZERO PUSH2 0x55D JUMPI PUSH1 0x0 DUP1 REVERT JUMPDEST POP PUSH2 0x213 PUSH2 0x56C CALLDATASIZE PUSH1 0x4 PUSH2 0x16C8 JUMP JUMPDEST PUSH2 0x134F JUMP JUMPDEST CALLVALUE DUP1 ISZERO PUSH2 0x57D JUMPI PUSH1 0x0 DUP1 REVERT JUMPDEST POP PUSH2 0x213 PUSH2 0x58C CALLDATASIZE PUSH1 0x4 PUSH2 0x1656 JUMP JUMPDEST PUSH2 0x149F JUMP JUMPDEST PUSH2 0x213 PUSH2 0x14DA JUMP JUMPDEST PUSH2 0x5A1 PUSH2 0x1549 JUMP JUMPDEST PUSH1 0x1 PUSH1 0x1 PUSH1 0xA0 SHL SUB DUP2 AND PUSH2 0x5C8 JUMPI PUSH1 0x40 MLOAD PUSH4 0xD92E233D PUSH1 0xE0 SHL DUP2 MSTORE PUSH1 0x4 ADD PUSH1 0x40 MLOAD DUP1 SWAP2 SUB SWAP1 REVERT JUMPDEST PUSH1 0x3 DUP1 SLOAD PUSH1 0x1 PUSH1 0x1 PUSH1 0xA0 SHL SUB NOT AND PUSH1 0x1 PUSH1 0x1 PUSH1 0xA0 SHL SUB DUP4 AND SWAP1 DUP2 OR SWAP1 SWAP2 SSTORE PUSH1 0x40 MLOAD PUSH32 0xC4A4EA6ABC08BD7F8DF3DB8A1C998F19B3E0C348176F93732CD54DB1A4B50136 SWAP1 PUSH1 0x0 SWAP1 LOG2 POP JUMP JUMPDEST PUSH2 0x61A PUSH2 0x1576 JUMP JUMPDEST PUSH2 0x622 PUSH2 0x1549 JUMP JUMPDEST PUSH1 0x1 PUSH1 0x1 PUSH1 0xA0 SHL SUB DUP3 AND PUSH2 0x649 JUMPI PUSH1 0x40 MLOAD PUSH4 0xD92E233D PUSH1 0xE0 SHL DUP2 MSTORE PUSH1 0x4 ADD PUSH1 0x40 MLOAD DUP1 SWAP2 SUB SWAP1 REVERT JUMPDEST DUP1 PUSH1 0x0 SUB PUSH2 0x66A JUMPI PUSH1 0x40 MLOAD PUSH4 0x1F2A2005 PUSH1 0xE0 SHL DUP2 MSTORE PUSH1 0x4 ADD PUSH1 0x40 MLOAD DUP1 SWAP2 SUB SWAP1 REVERT JUMPDEST SELFBALANCE DUP2 GT ISZERO PUSH2 0x698 JUMPI PUSH1 0x40 MLOAD PUSH3 0xFDF575 PUSH1 0xE5 SHL DUP2 MSTORE PUSH1 0x4 DUP2 ADD DUP3 SWAP1 MSTORE SELFBALANCE PUSH1 0x24 DUP3 ADD MSTORE PUSH1 0x44 ADD JUMPDEST PUSH1 0x40 MLOAD DUP1 SWAP2 SUB SWAP1 REVERT JUMPDEST PUSH1 0x0 DUP3 PUSH1 0x1 PUSH1 0x1 PUSH1 0xA0 SHL SUB AND DUP3 PUSH1 0x40 MLOAD PUSH1 0x0 PUSH1 0x40 MLOAD DUP1 DUP4 SUB DUP2 DUP6 DUP8 GAS CALL SWAP3 POP POP POP RETURNDATASIZE DUP1 PUSH1 0x0 DUP2 EQ PUSH2 0x6E5 JUMPI PUSH1 0x40 MLOAD SWAP2 POP PUSH1 0x1F NOT PUSH1 0x3F RETURNDATASIZE ADD AND DUP3 ADD PUSH1 0x40 MSTORE RETURNDATASIZE DUP3 MSTORE RETURNDATASIZE PUSH1 0x0 PUSH1 0x20 DUP5 ADD RETURNDATACOPY PUSH2 0x6EA JUMP JUMPDEST PUSH1 0x60 SWAP2 POP JUMPDEST POP POP SWAP1 POP DUP1 PUSH2 0x70C JUMPI PUSH1 0x40 MLOAD PUSH4 0x12171D83 PUSH1 0xE3 SHL DUP2 MSTORE PUSH1 0x4 ADD PUSH1 0x40 MLOAD DUP1 SWAP2 SUB SWAP1 REVERT JUMPDEST DUP3 PUSH1 0x1 PUSH1 0x1 PUSH1 0xA0 SHL SUB AND PUSH32 0x6E67ADC6F62CBAC95E14FCE70ECC9EAF0B0C4093237158F9A4E84FADB06DFE4C DUP4 PUSH1 0x40 MLOAD PUSH2 0x747 SWAP2 DUP2 MSTORE PUSH1 0x20 ADD SWAP1 JUMP JUMPDEST PUSH1 0x40 MLOAD DUP1 SWAP2 SUB SWAP1 LOG2 POP PUSH2 0x767 PUSH1 0x1 PUSH1 0x0 DUP1 MLOAD PUSH1 0x20 PUSH2 0x180E DUP4 CODECOPY DUP2 MLOAD SWAP2 MSTORE SSTORE JUMP JUMPDEST POP POP JUMP JUMPDEST PUSH2 0x773 PUSH2 0x1576 JUMP JUMPDEST PUSH2 0x77B PUSH2 0x1549 JUMP JUMPDEST DUP2 PUSH1 0x0 SUB PUSH2 0x79C JUMPI PUSH1 0x40 MLOAD PUSH4 0x1F2A2005 PUSH1 0xE0 SHL DUP2 MSTORE PUSH1 0x4 ADD PUSH1 0x40 MLOAD DUP1 SWAP2 SUB SWAP1 REVERT JUMPDEST DUP1 PUSH1 0x0 SUB PUSH2 0x7BD JUMPI PUSH1 0x40 MLOAD PUSH4 0x1F2A2005 PUSH1 0xE0 SHL DUP2 MSTORE PUSH1 0x4 ADD PUSH1 0x40 MLOAD DUP1 SWAP2 SUB SWAP1 REVERT JUMPDEST PUSH1 0x1 SLOAD PUSH1 0x1 PUSH1 0x1 PUSH1 0xA0 SHL SUB AND PUSH2 0x7E6 JUMPI PUSH1 0x40 MLOAD PUSH4 0xD92E233D PUSH1 0xE0 SHL DUP2 MSTORE PUSH1 0x4 ADD PUSH1 0x40 MLOAD DUP1 SWAP2 SUB SWAP1 REVERT JUMPDEST PUSH1 0x40 MLOAD PUSH4 0x70A08231 PUSH1 0xE0 SHL DUP2 MSTORE ADDRESS PUSH1 0x4 DUP3 ADD MSTORE PUSH1 0x0 SWAP1 PUSH32 0x0 PUSH1 0x1 PUSH1 0x1 PUSH1 0xA0 SHL SUB AND SWAP1 PUSH4 0x70A08231 SWAP1 PUSH1 0x24 ADD PUSH1 0x20 PUSH1 0x40 MLOAD DUP1 DUP4 SUB DUP2 DUP7 GAS STATICCALL ISZERO DUP1 ISZERO PUSH2 0x84D JUMPI RETURNDATASIZE PUSH1 0x0 DUP1 RETURNDATACOPY RETURNDATASIZE PUSH1 0x0 REVERT JUMPDEST POP POP POP POP PUSH1 0x40 MLOAD RETURNDATASIZE PUSH1 0x1F NOT PUSH1 0x1F DUP3 ADD AND DUP3 ADD DUP1 PUSH1 0x40 MSTORE POP DUP2 ADD SWAP1 PUSH2 0x871 SWAP2 SWAP1 PUSH2 0x171F JUMP JUMPDEST SWAP1 POP DUP1 DUP4 GT ISZERO PUSH2 0x894 JUMPI PUSH1 0x40 MLOAD PUSH4 0x1F2A2005 PUSH1 0xE0 SHL DUP2 MSTORE PUSH1 0x4 ADD PUSH1 0x40 MLOAD DUP1 SWAP2 SUB SWAP1 REVERT JUMPDEST PUSH1 0x1 SLOAD PUSH1 0x40 MLOAD PUSH4 0x423F6CEF PUSH1 0xE0 SHL DUP2 MSTORE PUSH1 0x1 PUSH1 0x1 PUSH1 0xA0 SHL SUB SWAP2 DUP3 AND PUSH1 0x4 DUP3 ADD MSTORE PUSH1 0x24 DUP2 ADD DUP6 SWAP1 MSTORE PUSH32 0x0 SWAP1 SWAP2 AND SWAP1 PUSH4 0x423F6CEF SWAP1 PUSH1 0x44 ADD PUSH1 0x0 PUSH1 0x40 MLOAD DUP1 DUP4 SUB DUP2 PUSH1 0x0 DUP8 DUP1 EXTCODESIZE ISZERO DUP1 ISZERO PUSH2 0x903 JUMPI PUSH1 0x0 DUP1 REVERT JUMPDEST POP GAS CALL ISZERO DUP1 ISZERO PUSH2 0x917 JUMPI RETURNDATASIZE PUSH1 0x0 DUP1 RETURNDATACOPY RETURNDATASIZE PUSH1 0x0 REVERT JUMPDEST POP POP PUSH1 0x1 SLOAD PUSH1 0x40 MLOAD PUSH4 0x246132F9 PUSH1 0xE0 SHL DUP2 MSTORE PUSH1 0x4 DUP2 ADD DUP8 SWAP1 MSTORE PUSH1 0x24 DUP2 ADD DUP7 SWAP1 MSTORE PUSH1 0x1 PUSH1 0x1 PUSH1 0xA0 SHL SUB SWAP1 SWAP2 AND SWAP3 POP PUSH4 0x246132F9 SWAP2 POP PUSH1 0x44 ADD PUSH1 0x0 PUSH1 0x40 MLOAD DUP1 DUP4 SUB DUP2 PUSH1 0x0 DUP8 DUP1 EXTCODESIZE ISZERO DUP1 ISZERO PUSH2 0x968 JUMPI PUSH1 0x0 DUP1 REVERT JUMPDEST POP GAS CALL ISZERO DUP1 ISZERO PUSH2 0x97C JUMPI RETURNDATASIZE PUSH1 0x0 DUP1 RETURNDATACOPY RETURNDATASIZE PUSH1 0x0 REVERT JUMPDEST POP POP PUSH1 0x40 DUP1 MLOAD DUP7 DUP2 MSTORE PUSH1 0x20 DUP2 ADD DUP7 SWAP1 MSTORE PUSH32 0x8B7AAFFE68A47637F66B06784A531963146073858C3A5EF41FC98BC456D7B64A SWAP4 POP ADD SWAP1 POP PUSH1 0x40 MLOAD DUP1 SWAP2 SUB SWAP1 LOG1 POP PUSH2 0x767 PUSH1 0x1 PUSH1 0x0 DUP1 MLOAD PUSH1 0x20 PUSH2 0x180E DUP4 CODECOPY DUP2 MLOAD SWAP2 MSTORE SSTORE JUMP JUMPDEST PUSH2 0x9DA PUSH2 0x1549 JUMP JUMPDEST PUSH1 0x1 PUSH1 0x1 PUSH1 0xA0 SHL SUB DUP2 AND PUSH2 0xA01 JUMPI PUSH1 0x40 MLOAD PUSH4 0xD92E233D PUSH1 0xE0 SHL DUP2 MSTORE PUSH1 0x4 ADD PUSH1 0x40 MLOAD DUP1 SWAP2 SUB SWAP1 REVERT JUMPDEST PUSH1 0x2 DUP1 SLOAD PUSH1 0x1 PUSH1 0x1 PUSH1 0xA0 SHL SUB NOT AND PUSH1 0x1 PUSH1 0x1 PUSH1 0xA0 SHL SUB DUP4 AND SWAP1 DUP2 OR SWAP1 SWAP2 SSTORE PUSH1 0x40 MLOAD PUSH32 0x1176BB0C626865DD5BB6009A83FF7A7F968D1759188EC01B8BEFB5BBDE338AA0 SWAP1 PUSH1 0x0 SWAP1 LOG2 POP JUMP JUMPDEST PUSH2 0xA53 PUSH2 0x1549 JUMP JUMPDEST PUSH2 0xA5D PUSH1 0x0 PUSH2 0x1592 JUMP JUMPDEST JUMP JUMPDEST PUSH2 0xA67 PUSH2 0x1549 JUMP JUMPDEST DUP1 PUSH1 0x0 SUB PUSH2 0xA88 JUMPI PUSH1 0x40 MLOAD PUSH4 0x1F2A2005 PUSH1 0xE0 SHL DUP2 MSTORE PUSH1 0x4 ADD PUSH1 0x40 MLOAD DUP1 SWAP2 SUB SWAP1 REVERT JUMPDEST PUSH1 0x5 SSTORE JUMP JUMPDEST PUSH2 0xA95 PUSH2 0x1576 JUMP JUMPDEST PUSH2 0xA9D PUSH2 0x1549 JUMP JUMPDEST DUP2 PUSH1 0x0 SUB PUSH2 0xABE JUMPI PUSH1 0x40 MLOAD PUSH4 0x1F2A2005 PUSH1 0xE0 SHL DUP2 MSTORE PUSH1 0x4 ADD PUSH1 0x40 MLOAD DUP1 SWAP2 SUB SWAP1 REVERT JUMPDEST SELFBALANCE DUP3 GT ISZERO PUSH2 0xAE7 JUMPI PUSH1 0x40 MLOAD PUSH3 0xFDF575 PUSH1 0xE5 SHL DUP2 MSTORE PUSH1 0x4 DUP2 ADD DUP4 SWAP1 MSTORE SELFBALANCE PUSH1 0x24 DUP3 ADD MSTORE PUSH1 0x44 ADD PUSH2 0x68F JUMP JUMPDEST PUSH1 0x3 SLOAD PUSH1 0x1 PUSH1 0x1 PUSH1 0xA0 SHL SUB AND PUSH2 0xB10 JUMPI PUSH1 0x40 MLOAD PUSH4 0xD92E233D PUSH1 0xE0 SHL DUP2 MSTORE PUSH1 0x4 ADD PUSH1 0x40 MLOAD DUP1 SWAP2 SUB SWAP1 REVERT JUMPDEST PUSH1 0x0 DUP1 PUSH1 0x3 PUSH1 0x0 SWAP1 SLOAD SWAP1 PUSH2 0x100 EXP SWAP1 DIV PUSH1 0x1 PUSH1 0x1 PUSH1 0xA0 SHL SUB AND PUSH1 0x1 PUSH1 0x1 PUSH1 0xA0 SHL SUB AND PUSH4 0x902F1AC PUSH1 0x40 MLOAD DUP2 PUSH4 0xFFFFFFFF AND PUSH1 0xE0 SHL DUP2 MSTORE PUSH1 0x4 ADD PUSH1 0x60 PUSH1 0x40 MLOAD DUP1 DUP4 SUB DUP2 DUP7 GAS STATICCALL ISZERO DUP1 ISZERO PUSH2 0xB66 JUMPI RETURNDATASIZE PUSH1 0x0 DUP1 RETURNDATACOPY RETURNDATASIZE PUSH1 0x0 REVERT JUMPDEST POP POP POP POP PUSH1 0x40 MLOAD RETURNDATASIZE PUSH1 0x1F NOT PUSH1 0x1F DUP3 ADD AND DUP3 ADD DUP1 PUSH1 0x40 MSTORE POP DUP2 ADD SWAP1 PUSH2 0xB8A SWAP2 SWAP1 PUSH2 0x1754 JUMP JUMPDEST POP SWAP2 POP SWAP2 POP PUSH1 0x0 PUSH1 0x3 PUSH1 0x0 SWAP1 SLOAD SWAP1 PUSH2 0x100 EXP SWAP1 DIV PUSH1 0x1 PUSH1 0x1 PUSH1 0xA0 SHL SUB AND PUSH1 0x1 PUSH1 0x1 PUSH1 0xA0 SHL SUB AND PUSH4 0xDFE1681 PUSH1 0x40 MLOAD DUP2 PUSH4 0xFFFFFFFF AND PUSH1 0xE0 SHL DUP2 MSTORE PUSH1 0x4 ADD PUSH1 0x20 PUSH1 0x40 MLOAD DUP1 DUP4 SUB DUP2 DUP7 GAS STATICCALL ISZERO DUP1 ISZERO PUSH2 0xBE4 JUMPI RETURNDATASIZE PUSH1 0x0 DUP1 RETURNDATACOPY RETURNDATASIZE PUSH1 0x0 REVERT JUMPDEST POP POP POP POP PUSH1 0x40 MLOAD RETURNDATASIZE PUSH1 0x1F NOT PUSH1 0x1F DUP3 ADD AND DUP3 ADD DUP1 PUSH1 0x40 MSTORE POP DUP2 ADD SWAP1 PUSH2 0xC08 SWAP2 SWAP1 PUSH2 0x17A4 JUMP JUMPDEST SWAP1 POP PUSH1 0x0 DUP1 PUSH1 0x0 PUSH32 0x0 PUSH1 0x1 PUSH1 0x1 PUSH1 0xA0 SHL SUB AND DUP5 PUSH1 0x1 PUSH1 0x1 PUSH1 0xA0 SHL SUB AND EQ SWAP1 POP DUP1 ISZERO PUSH2 0xC69 JUMPI DUP5 PUSH1 0x1 PUSH1 0x1 PUSH1 0x70 SHL SUB AND SWAP3 POP DUP6 PUSH1 0x1 PUSH1 0x1 PUSH1 0x70 SHL SUB AND SWAP2 POP PUSH2 0xC82 JUMP JUMPDEST DUP6 PUSH1 0x1 PUSH1 0x1 PUSH1 0x70 SHL SUB AND SWAP3 POP DUP5 PUSH1 0x1 PUSH1 0x1 PUSH1 0x70 SHL SUB AND SWAP2 POP JUMPDEST PUSH1 0x0 PUSH2 0xC90 DUP10 PUSH2 0x3E5 PUSH2 0x17C1 JUMP JUMPDEST SWAP1 POP PUSH1 0x0 DUP2 PUSH2 0xCA1 DUP7 PUSH2 0x3E8 PUSH2 0x17C1 JUMP JUMPDEST PUSH2 0xCAB SWAP2 SWAP1 PUSH2 0x1628 JUMP JUMPDEST PUSH2 0xCB5 DUP6 DUP5 PUSH2 0x17C1 JUMP JUMPDEST PUSH2 0xCBF SWAP2 SWAP1 PUSH2 0x17D8 JUMP JUMPDEST SWAP1 POP DUP9 DUP2 LT ISZERO PUSH2 0xCEC JUMPI PUSH1 0x40 MLOAD PUSH4 0x71C4EFED PUSH1 0xE0 SHL DUP2 MSTORE PUSH1 0x4 DUP2 ADD DUP3 SWAP1 MSTORE PUSH1 0x24 DUP2 ADD DUP11 SWAP1 MSTORE PUSH1 0x44 ADD PUSH2 0x68F JUMP JUMPDEST PUSH1 0x3 SLOAD PUSH1 0x40 MLOAD PUSH1 0x0 SWAP2 PUSH1 0x1 PUSH1 0x1 PUSH1 0xA0 SHL SUB AND SWAP1 DUP13 SWAP1 DUP4 DUP2 DUP2 DUP2 DUP6 DUP8 GAS CALL SWAP3 POP POP POP RETURNDATASIZE DUP1 PUSH1 0x0 DUP2 EQ PUSH2 0xD39 JUMPI PUSH1 0x40 MLOAD SWAP2 POP PUSH1 0x1F NOT PUSH1 0x3F RETURNDATASIZE ADD AND DUP3 ADD PUSH1 0x40 MSTORE RETURNDATASIZE DUP3 MSTORE RETURNDATASIZE PUSH1 0x0 PUSH1 0x20 DUP5 ADD RETURNDATACOPY PUSH2 0xD3E JUMP JUMPDEST PUSH1 0x60 SWAP2 POP JUMPDEST POP POP SWAP1 POP DUP1 PUSH2 0xD60 JUMPI PUSH1 0x40 MLOAD PUSH4 0x7F239195 PUSH1 0xE0 SHL DUP2 MSTORE PUSH1 0x4 ADD PUSH1 0x40 MLOAD DUP1 SWAP2 SUB SWAP1 REVERT JUMPDEST DUP4 ISZERO PUSH2 0xDD6 JUMPI PUSH1 0x3 SLOAD PUSH1 0x40 MLOAD PUSH4 0x36CD3205 PUSH1 0xE1 SHL DUP2 MSTORE PUSH1 0x4 DUP2 ADD DUP5 SWAP1 MSTORE PUSH1 0x0 PUSH1 0x24 DUP3 ADD MSTORE ADDRESS PUSH1 0x44 DUP3 ADD MSTORE PUSH1 0x1 PUSH1 0x1 PUSH1 0xA0 SHL SUB SWAP1 SWAP2 AND SWAP1 PUSH4 0x6D9A640A SWAP1 PUSH1 0x64 ADD PUSH1 0x0 PUSH1 0x40 MLOAD DUP1 DUP4 SUB DUP2 PUSH1 0x0 DUP8 DUP1 EXTCODESIZE ISZERO DUP1 ISZERO PUSH2 0xDB9 JUMPI PUSH1 0x0 DUP1 REVERT JUMPDEST POP GAS CALL ISZERO DUP1 ISZERO PUSH2 0xDCD JUMPI RETURNDATASIZE PUSH1 0x0 DUP1 RETURNDATACOPY RETURNDATASIZE PUSH1 0x0 REVERT JUMPDEST POP POP POP POP PUSH2 0xE42 JUMP JUMPDEST PUSH1 0x3 SLOAD PUSH1 0x40 MLOAD PUSH4 0x36CD3205 PUSH1 0xE1 SHL DUP2 MSTORE PUSH1 0x0 PUSH1 0x4 DUP3 ADD MSTORE PUSH1 0x24 DUP2 ADD DUP5 SWAP1 MSTORE ADDRESS PUSH1 0x44 DUP3 ADD MSTORE PUSH1 0x1 PUSH1 0x1 PUSH1 0xA0 SHL SUB SWAP1 SWAP2 AND SWAP1 PUSH4 0x6D9A640A SWAP1 PUSH1 0x64 ADD PUSH1 0x0 PUSH1 0x40 MLOAD DUP1 DUP4 SUB DUP2 PUSH1 0x0 DUP8 DUP1 EXTCODESIZE ISZERO DUP1 ISZERO PUSH2 0xE29 JUMPI PUSH1 0x0 DUP1 REVERT JUMPDEST POP GAS CALL ISZERO DUP1 ISZERO PUSH2 0xE3D JUMPI RETURNDATASIZE PUSH1 0x0 DUP1 RETURNDATACOPY RETURNDATASIZE PUSH1 0x0 REVERT JUMPDEST POP POP POP POP JUMPDEST PUSH1 0x40 MLOAD PUSH4 0x70A08231 PUSH1 0xE0 SHL DUP2 MSTORE ADDRESS PUSH1 0x4 DUP3 ADD MSTORE PUSH1 0x0 SWAP1 PUSH32 0x0 PUSH1 0x1 PUSH1 0x1 PUSH1 0xA0 SHL SUB AND SWAP1 PUSH4 0x70A08231 SWAP1 PUSH1 0x24 ADD PUSH1 0x20 PUSH1 0x40 MLOAD DUP1 DUP4 SUB DUP2 DUP7 GAS STATICCALL ISZERO DUP1 ISZERO PUSH2 0xEA9 JUMPI RETURNDATASIZE PUSH1 0x0 DUP1 RETURNDATACOPY RETURNDATASIZE PUSH1 0x0 REVERT JUMPDEST POP POP POP POP PUSH1 0x40 MLOAD RETURNDATASIZE PUSH1 0x1F NOT PUSH1 0x1F DUP3 ADD AND DUP3 ADD DUP1 PUSH1 0x40 MSTORE POP DUP2 ADD SWAP1 PUSH2 0xECD SWAP2 SWAP1 PUSH2 0x171F JUMP JUMPDEST SWAP1 POP DUP11 DUP2 LT ISZERO PUSH2 0xEFA JUMPI PUSH1 0x40 MLOAD PUSH4 0x71C4EFED PUSH1 0xE0 SHL DUP2 MSTORE PUSH1 0x4 DUP2 ADD DUP3 SWAP1 MSTORE PUSH1 0x24 DUP2 ADD DUP13 SWAP1 MSTORE PUSH1 0x44 ADD PUSH2 0x68F JUMP JUMPDEST PUSH1 0x0 PUSH1 0x64 PUSH1 0x4 SLOAD DUP4 PUSH2 0xF0C SWAP2 SWAP1 PUSH2 0x17C1 JUMP JUMPDEST PUSH2 0xF16 SWAP2 SWAP1 PUSH2 0x17D8 JUMP JUMPDEST SWAP1 POP PUSH1 0x0 PUSH2 0xF24 DUP3 DUP5 PUSH2 0x17FA JUMP JUMPDEST SWAP1 POP DUP2 ISZERO PUSH2 0xFBE JUMPI PUSH1 0x40 MLOAD PUSH4 0x852CD8D PUSH1 0xE3 SHL DUP2 MSTORE PUSH1 0x4 DUP2 ADD DUP4 SWAP1 MSTORE PUSH32 0x0 PUSH1 0x1 PUSH1 0x1 PUSH1 0xA0 SHL SUB AND SWAP1 PUSH4 0x42966C68 SWAP1 PUSH1 0x24 ADD PUSH1 0x0 PUSH1 0x40 MLOAD DUP1 DUP4 SUB DUP2 PUSH1 0x0 DUP8 DUP1 EXTCODESIZE ISZERO DUP1 ISZERO PUSH2 0xF8E JUMPI PUSH1 0x0 DUP1 REVERT JUMPDEST POP GAS CALL ISZERO DUP1 ISZERO PUSH2 0xFA2 JUMPI RETURNDATASIZE PUSH1 0x0 DUP1 RETURNDATACOPY RETURNDATASIZE PUSH1 0x0 REVERT JUMPDEST POP POP POP POP DUP2 PUSH1 0x8 PUSH1 0x0 DUP3 DUP3 SLOAD PUSH2 0xFB8 SWAP2 SWAP1 PUSH2 0x1628 JUMP JUMPDEST SWAP1 SWAP2 SSTORE POP POP JUMPDEST PUSH1 0x0 DUP2 GT DUP1 ISZERO PUSH2 0xFD8 JUMPI POP PUSH1 0x1 SLOAD PUSH1 0x1 PUSH1 0x1 PUSH1 0xA0 SHL SUB AND ISZERO ISZERO JUMPDEST ISZERO PUSH2 0x10E5 JUMPI PUSH1 0x1 SLOAD PUSH1 0x40 MLOAD PUSH4 0x423F6CEF PUSH1 0xE0 SHL DUP2 MSTORE PUSH1 0x1 PUSH1 0x1 PUSH1 0xA0 SHL SUB SWAP2 DUP3 AND PUSH1 0x4 DUP3 ADD MSTORE PUSH1 0x24 DUP2 ADD DUP4 SWAP1 MSTORE PUSH32 0x0 SWAP1 SWAP2 AND SWAP1 PUSH4 0x423F6CEF SWAP1 PUSH1 0x44 ADD PUSH1 0x0 PUSH1 0x40 MLOAD DUP1 DUP4 SUB DUP2 PUSH1 0x0 DUP8 DUP1 EXTCODESIZE ISZERO DUP1 ISZERO PUSH2 0x104C JUMPI PUSH1 0x0 DUP1 REVERT JUMPDEST POP GAS CALL ISZERO DUP1 ISZERO PUSH2 0x1060 JUMPI RETURNDATASIZE PUSH1 0x0 DUP1 RETURNDATACOPY RETURNDATASIZE PUSH1 0x0 REVERT JUMPDEST POP POP PUSH1 0x1 SLOAD PUSH1 0x5 SLOAD PUSH1 0x40 MLOAD PUSH4 0x246132F9 PUSH1 0xE0 SHL DUP2 MSTORE PUSH1 0x4 DUP2 ADD DUP7 SWAP1 MSTORE PUSH1 0x24 DUP2 ADD SWAP2 SWAP1 SWAP2 MSTORE PUSH1 0x1 PUSH1 0x1 PUSH1 0xA0 SHL SUB SWAP1 SWAP2 AND SWAP3 POP PUSH4 0x246132F9 SWAP2 POP PUSH1 0x44 ADD PUSH1 0x0 PUSH1 0x40 MLOAD DUP1 DUP4 SUB DUP2 PUSH1 0x0 DUP8 DUP1 EXTCODESIZE ISZERO DUP1 ISZERO PUSH2 0x10B5 JUMPI PUSH1 0x0 DUP1 REVERT JUMPDEST POP GAS CALL ISZERO DUP1 ISZERO PUSH2 0x10C9 JUMPI RETURNDATASIZE PUSH1 0x0 DUP1 RETURNDATACOPY RETURNDATASIZE PUSH1 0x0 REVERT JUMPDEST POP POP POP POP DUP1 PUSH1 0x9 PUSH1 0x0 DUP3 DUP3 SLOAD PUSH2 0x10DF SWAP2 SWAP1 PUSH2 0x1628 JUMP JUMPDEST SWAP1 SWAP2 SSTORE POP POP JUMPDEST PUSH1 0x40 DUP1 MLOAD DUP16 DUP2 MSTORE PUSH1 0x20 DUP2 ADD DUP6 SWAP1 MSTORE SWAP1 DUP2 ADD DUP4 SWAP1 MSTORE PUSH1 0x60 DUP2 ADD DUP3 SWAP1 MSTORE PUSH32 0x42659A4AA613C1E350C764F0FF2BE36A175AC2A1E4B77B8E1467D1FED32BECC8 SWAP1 PUSH1 0x80 ADD PUSH1 0x40 MLOAD DUP1 SWAP2 SUB SWAP1 LOG1 POP POP POP POP POP POP POP POP POP POP POP POP PUSH2 0x767 PUSH1 0x1 PUSH1 0x0 DUP1 MLOAD PUSH1 0x20 PUSH2 0x180E DUP4 CODECOPY DUP2 MLOAD SWAP2 MSTORE SSTORE JUMP JUMPDEST PUSH2 0x1158 PUSH2 0x1549 JUMP JUMPDEST PUSH1 0x1 PUSH1 0x1 PUSH1 0xA0 SHL SUB DUP2 AND PUSH2 0x117F JUMPI PUSH1 0x40 MLOAD PUSH4 0xD92E233D PUSH1 0xE0 SHL DUP2 MSTORE PUSH1 0x4 ADD PUSH1 0x40 MLOAD DUP1 SWAP2 SUB SWAP1 REVERT JUMPDEST PUSH1 0x1 DUP1 SLOAD PUSH1 0x1 PUSH1 0x1 PUSH1 0xA0 SHL SUB NOT AND PUSH1 0x1 PUSH1 0x1 PUSH1 0xA0 SHL SUB DUP4 AND SWAP1 DUP2 OR SWAP1 SWAP2 SSTORE PUSH1 0x40 MLOAD PUSH32 0xF520447191196B125F76F7110397FDF32B1B9CEFB7DEC323BD3B998022AC2338 SWAP1 PUSH1 0x0 SWAP1 LOG2 POP JUMP JUMPDEST PUSH2 0x11D1 PUSH2 0x1549 JUMP JUMPDEST PUSH1 0x1 PUSH1 0x1 PUSH1 0xA0 SHL SUB DUP3 AND PUSH2 0x11F8 JUMPI PUSH1 0x40 MLOAD PUSH4 0xD92E233D PUSH1 0xE0 SHL DUP2 MSTORE PUSH1 0x4 ADD PUSH1 0x40 MLOAD DUP1 SWAP2 SUB SWAP1 REVERT JUMPDEST PUSH1 0x1 PUSH1 0x1 PUSH1 0xA0 SHL SUB DUP3 AND PUSH1 0x0 DUP2 DUP2 MSTORE PUSH1 0x6 PUSH1 0x20 SWAP1 DUP2 MSTORE PUSH1 0x40 SWAP2 DUP3 SWAP1 KECCAK256 DUP1 SLOAD PUSH1 0xFF NOT AND DUP6 ISZERO ISZERO SWAP1 DUP2 OR SWAP1 SWAP2 SSTORE SWAP2 MLOAD SWAP2 DUP3 MSTORE PUSH32 0xBAC4A6EE215C0287F7DA3A73C4FA957DDE930DC8190BBA3F30D0104AE15CA9FD SWAP2 ADD PUSH1 0x40 MLOAD DUP1 SWAP2 SUB SWAP1 LOG2 POP POP JUMP JUMPDEST PUSH2 0x125F PUSH2 0x1549 JUMP JUMPDEST PUSH1 0x64 DUP2 GT ISZERO PUSH2 0x1284 JUMPI PUSH1 0x40 MLOAD PUSH4 0x46A85EF PUSH1 0xE3 SHL DUP2 MSTORE PUSH1 0x4 DUP2 ADD DUP3 SWAP1 MSTORE PUSH1 0x24 ADD PUSH2 0x68F JUMP JUMPDEST PUSH1 0x4 DUP2 SWAP1 SSTORE PUSH1 0x40 MLOAD DUP2 DUP2 MSTORE PUSH32 0xE85D9362D5330E5046BA20D38140F318950327F15B22123DAE77DFFF2F1DDE71 SWAP1 PUSH1 0x20 ADD PUSH1 0x40 MLOAD DUP1 SWAP2 SUB SWAP1 LOG1 POP JUMP JUMPDEST PUSH1 0x40 MLOAD PUSH4 0x70A08231 PUSH1 0xE0 SHL DUP2 MSTORE ADDRESS PUSH1 0x4 DUP3 ADD MSTORE PUSH1 0x0 SWAP1 PUSH32 0x0 PUSH1 0x1 PUSH1 0x1 PUSH1 0xA0 SHL SUB AND SWAP1 PUSH4 0x70A08231 SWAP1 PUSH1 0x24 ADD PUSH1 0x20 PUSH1 0x40 MLOAD DUP1 DUP4 SUB DUP2 DUP7 GAS STATICCALL ISZERO DUP1 ISZERO PUSH2 0x1326 JUMPI RETURNDATASIZE PUSH1 0x0 DUP1 RETURNDATACOPY RETURNDATASIZE PUSH1 0x0 REVERT JUMPDEST POP POP POP POP PUSH1 0x40 MLOAD RETURNDATASIZE PUSH1 0x1F NOT PUSH1 0x1F DUP3 ADD AND DUP3 ADD DUP1 PUSH1 0x40 MSTORE POP DUP2 ADD SWAP1 PUSH2 0x134A SWAP2 SWAP1 PUSH2 0x171F JUMP JUMPDEST SWAP1 POP SWAP1 JUMP JUMPDEST PUSH2 0x1357 PUSH2 0x1576 JUMP JUMPDEST PUSH2 0x135F PUSH2 0x1549 JUMP JUMPDEST DUP1 PUSH1 0x0 SUB PUSH2 0x1380 JUMPI PUSH1 0x40 MLOAD PUSH4 0x1F2A2005 PUSH1 0xE0 SHL DUP2 MSTORE PUSH1 0x4 ADD PUSH1 0x40 MLOAD DUP1 SWAP2 SUB SWAP1 REVERT JUMPDEST PUSH1 0x2 SLOAD PUSH1 0x1 PUSH1 0x1 PUSH1 0xA0 SHL SUB AND PUSH2 0x13A9 JUMPI PUSH1 0x40 MLOAD PUSH4 0xD92E233D PUSH1 0xE0 SHL DUP2 MSTORE PUSH1 0x4 ADD PUSH1 0x40 MLOAD DUP1 SWAP2 SUB SWAP1 REVERT JUMPDEST SELFBALANCE DUP2 GT ISZERO PUSH2 0x13D2 JUMPI PUSH1 0x40 MLOAD PUSH3 0xFDF575 PUSH1 0xE5 SHL DUP2 MSTORE PUSH1 0x4 DUP2 ADD DUP3 SWAP1 MSTORE SELFBALANCE PUSH1 0x24 DUP3 ADD MSTORE PUSH1 0x44 ADD PUSH2 0x68F JUMP JUMPDEST PUSH1 0x2 PUSH1 0x0 SWAP1 SLOAD SWAP1 PUSH2 0x100 EXP SWAP1 DIV PUSH1 0x1 PUSH1 0x1 PUSH1 0xA0 SHL SUB AND PUSH1 0x1 PUSH1 0x1 PUSH1 0xA0 SHL SUB AND PUSH4 0xD0E30DB0 DUP3 PUSH1 0x40 MLOAD DUP3 PUSH4 0xFFFFFFFF AND PUSH1 0xE0 SHL DUP2 MSTORE PUSH1 0x4 ADD PUSH1 0x0 PUSH1 0x40 MLOAD DUP1 DUP4 SUB DUP2 DUP6 DUP9 DUP1 EXTCODESIZE ISZERO DUP1 ISZERO PUSH2 0x1422 JUMPI PUSH1 0x0 DUP1 REVERT JUMPDEST POP GAS CALL ISZERO DUP1 ISZERO PUSH2 0x1436 JUMPI RETURNDATASIZE PUSH1 0x0 DUP1 RETURNDATACOPY RETURNDATASIZE PUSH1 0x0 REVERT JUMPDEST POP POP POP POP POP DUP1 PUSH1 0xA PUSH1 0x0 DUP3 DUP3 SLOAD PUSH2 0x144D SWAP2 SWAP1 PUSH2 0x1628 JUMP JUMPDEST SWAP1 SWAP2 SSTORE POP POP PUSH1 0x40 MLOAD DUP2 DUP2 MSTORE PUSH32 0x65DA79752E89C0DEBD87A1C71AE1D472ADD974DC19B2FC258F88B5598FCFA76 SWAP1 PUSH1 0x20 ADD PUSH1 0x40 MLOAD DUP1 SWAP2 SUB SWAP1 LOG1 PUSH2 0x149C PUSH1 0x1 PUSH1 0x0 DUP1 MLOAD PUSH1 0x20 PUSH2 0x180E DUP4 CODECOPY DUP2 MLOAD SWAP2 MSTORE SSTORE JUMP JUMPDEST POP JUMP JUMPDEST PUSH2 0x14A7 PUSH2 0x1549 JUMP JUMPDEST PUSH1 0x1 PUSH1 0x1 PUSH1 0xA0 SHL SUB DUP2 AND PUSH2 0x14D1 JUMPI PUSH1 0x40 MLOAD PUSH4 0x1E4FBDF7 PUSH1 0xE0 SHL DUP2 MSTORE PUSH1 0x0 PUSH1 0x4 DUP3 ADD MSTORE PUSH1 0x24 ADD PUSH2 0x68F JUMP JUMPDEST PUSH2 0x149C DUP2 PUSH2 0x1592 JUMP JUMPDEST CALLVALUE PUSH1 0x0 SUB PUSH2 0x14FB JUMPI PUSH1 0x40 MLOAD PUSH4 0x1F2A2005 PUSH1 0xE0 SHL DUP2 MSTORE PUSH1 0x4 ADD PUSH1 0x40 MLOAD DUP1 SWAP2 SUB SWAP1 REVERT JUMPDEST CALLVALUE PUSH1 0x7 PUSH1 0x0 DUP3 DUP3 SLOAD PUSH2 0x150D SWAP2 SWAP1 PUSH2 0x1628 JUMP JUMPDEST SWAP1 SWAP2 SSTORE POP POP PUSH1 0x40 MLOAD CALLVALUE DUP2 MSTORE CALLER SWAP1 PUSH32 0x2CCFC58C2CEF4EE590B5F16BE0548CC54AFC12E1C66A67B362B7D640FD16BB2D SWAP1 PUSH1 0x20 ADD PUSH1 0x40 MLOAD DUP1 SWAP2 SUB SWAP1 LOG2 JUMP JUMPDEST PUSH1 0x0 SLOAD PUSH1 0x1 PUSH1 0x1 PUSH1 0xA0 SHL SUB AND CALLER EQ PUSH2 0xA5D JUMPI PUSH1 0x40 MLOAD PUSH4 0x118CDAA7 PUSH1 0xE0 SHL DUP2 MSTORE CALLER PUSH1 0x4 DUP3 ADD MSTORE PUSH1 0x24 ADD PUSH2 0x68F JUMP JUMPDEST PUSH2 0x157E PUSH2 0x15E2 JUMP JUMPDEST PUSH1 0x2 PUSH1 0x0 DUP1 MLOAD PUSH1 0x20 PUSH2 0x180E DUP4 CODECOPY DUP2 MLOAD SWAP2 MSTORE SSTORE JUMP JUMPDEST PUSH1 0x0 DUP1 SLOAD PUSH1 0x1 PUSH1 0x1 PUSH1 0xA0 SHL SUB DUP4 DUP2 AND PUSH1 0x1 PUSH1 0x1 PUSH1 0xA0 SHL SUB NOT DUP4 AND DUP2 OR DUP5 SSTORE PUSH1 0x40 MLOAD SWAP2 SWAP1 SWAP3 AND SWAP3 DUP4 SWAP2 PUSH32 0x8BE0079C531659141344CD1FD0A4F28419497F9722A3DAAFE3B4186F6B6457E0 SWAP2 SWAP1 LOG3 POP POP JUMP JUMPDEST PUSH1 0x0 DUP1 MLOAD PUSH1 0x20 PUSH2 0x180E DUP4 CODECOPY DUP2 MLOAD SWAP2 MSTORE SLOAD PUSH1 0x2 SUB PUSH2 0xA5D JUMPI PUSH1 0x40 MLOAD PUSH4 0x3EE5AEB5 PUSH1 0xE0 SHL DUP2 MSTORE PUSH1 0x4 ADD PUSH1 0x40 MLOAD DUP1 SWAP2 SUB SWAP1 REVERT JUMPDEST PUSH4 0x4E487B71 PUSH1 0xE0 SHL PUSH1 0x0 MSTORE PUSH1 0x11 PUSH1 0x4 MSTORE PUSH1 0x24 PUSH1 0x0 REVERT JUMPDEST DUP1 DUP3 ADD DUP1 DUP3 GT ISZERO PUSH2 0x163B JUMPI PUSH2 0x163B PUSH2 0x1612 JUMP JUMPDEST SWAP3 SWAP2 POP POP JUMP JUMPDEST PUSH1 0x1 PUSH1 0x1 PUSH1 0xA0 SHL SUB DUP2 AND DUP2 EQ PUSH2 0x149C JUMPI PUSH1 0x0 DUP1 REVERT JUMPDEST PUSH1 0x0 PUSH1 0x20 DUP3 DUP5 SUB SLT ISZERO PUSH2 0x1668 JUMPI PUSH1 0x0 DUP1 REVERT JUMPDEST DUP2 CALLDATALOAD PUSH2 0x1673 DUP2 PUSH2 0x1641 JUMP JUMPDEST SWAP4 SWAP3 POP POP POP JUMP JUMPDEST PUSH1 0x0 DUP1 PUSH1 0x40 DUP4 DUP6 SUB SLT ISZERO PUSH2 0x168D JUMPI PUSH1 0x0 DUP1 REVERT JUMPDEST DUP3 CALLDATALOAD PUSH2 0x1698 DUP2 PUSH2 0x1641 JUMP JUMPDEST SWAP5 PUSH1 0x20 SWAP4 SWAP1 SWAP4 ADD CALLDATALOAD SWAP4 POP POP POP JUMP JUMPDEST PUSH1 0x0 DUP1 PUSH1 0x40 DUP4 DUP6 SUB SLT ISZERO PUSH2 0x16B9 JUMPI PUSH1 0x0 DUP1 REVERT JUMPDEST POP POP DUP1 CALLDATALOAD SWAP3 PUSH1 0x20 SWAP1 SWAP2 ADD CALLDATALOAD SWAP2 POP JUMP JUMPDEST PUSH1 0x0 PUSH1 0x20 DUP3 DUP5 SUB SLT ISZERO PUSH2 0x16DA JUMPI PUSH1 0x0 DUP1 REVERT JUMPDEST POP CALLDATALOAD SWAP2 SWAP1 POP JUMP JUMPDEST PUSH1 0x0 DUP1 PUSH1 0x40 DUP4 DUP6 SUB SLT ISZERO PUSH2 0x16F4 JUMPI PUSH1 0x0 DUP1 REVERT JUMPDEST DUP3 CALLDATALOAD PUSH2 0x16FF DUP2 PUSH2 0x1641 JUMP JUMPDEST SWAP2 POP PUSH1 0x20 DUP4 ADD CALLDATALOAD DUP1 ISZERO ISZERO DUP2 EQ PUSH2 0x1714 JUMPI PUSH1 0x0 DUP1 REVERT JUMPDEST DUP1 SWAP2 POP POP SWAP3 POP SWAP3 SWAP1 POP JUMP JUMPDEST PUSH1 0x0 PUSH1 0x20 DUP3 DUP5 SUB SLT ISZERO PUSH2 0x1731 JUMPI PUSH1 0x0 DUP1 REVERT JUMPDEST POP MLOAD SWAP2 SWAP1 POP JUMP JUMPDEST DUP1 MLOAD PUSH1 0x1 PUSH1 0x1 PUSH1 0x70 SHL SUB DUP2 AND DUP2 EQ PUSH2 0x174F JUMPI PUSH1 0x0 DUP1 REVERT JUMPDEST SWAP2 SWAP1 POP JUMP JUMPDEST PUSH1 0x0 DUP1 PUSH1 0x0 PUSH1 0x60 DUP5 DUP7 SUB SLT ISZERO PUSH2 0x1769 JUMPI PUSH1 0x0 DUP1 REVERT JUMPDEST PUSH2 0x1772 DUP5 PUSH2 0x1738 JUMP JUMPDEST SWAP3 POP PUSH2 0x1780 PUSH1 0x20 DUP6 ADD PUSH2 0x1738 JUMP JUMPDEST SWAP2 POP PUSH1 0x40 DUP5 ADD MLOAD PUSH4 0xFFFFFFFF DUP2 AND DUP2 EQ PUSH2 0x1799 JUMPI PUSH1 0x0 DUP1 REVERT JUMPDEST DUP1 SWAP2 POP POP SWAP3 POP SWAP3 POP SWAP3 JUMP JUMPDEST PUSH1 0x0 PUSH1 0x20 DUP3 DUP5 SUB SLT ISZERO PUSH2 0x17B6 JUMPI PUSH1 0x0 DUP1 REVERT JUMPDEST DUP2 MLOAD PUSH2 0x1673 DUP2 PUSH2 0x1641 JUMP JUMPDEST DUP1 DUP3 MUL DUP2 ISZERO DUP3 DUP3 DIV DUP5 EQ OR PUSH2 0x163B JUMPI PUSH2 0x163B PUSH2 0x1612 JUMP JUMPDEST PUSH1 0x0 DUP3 PUSH2 0x17F5 JUMPI PUSH4 0x4E487B71 PUSH1 0xE0 SHL PUSH1 0x0 MSTORE PUSH1 0x12 PUSH1 0x4 MSTORE PUSH1 0x24 PUSH1 0x0 REVERT JUMPDEST POP DIV SWAP1 JUMP JUMPDEST DUP2 DUP2 SUB DUP2 DUP2 GT ISZERO PUSH2 0x163B JUMPI PUSH2 0x163B PUSH2 0x1612 JUMP INVALID SWAP12 PUSH24 0x9B17422D0DF92223018B32B4D1FA46E071723D6817E2486D STOP EXTCODESIZE 0xEC 0xC5 PUSH0 STOP LOG2 PUSH5 0x6970667358 0x22 SLT KECCAK256 PUSH31 0x3A54FC26EF7CCB61D4F1DD0DD6598F6390FE0EFF559229C6EF7212FFCF406A PUSH5 0x736F6C6343 STOP ADDMOD XOR STOP CALLER "
		},
		"gasEstimates": {
			"creation": {
				"codeDepositCost": "1248600",
				"executionCost": "infinite",
				"totalCost": "infinite"
			},
			"external": {
				"authorisedFeeSenders(address)": "2594",
				"buybackBurnRatio()": "2385",
				"distributeToPot(uint256)": "infinite",
				"distributeToStaking(uint256,uint256)": "infinite",
				"ethBalance()": "262",
				"executeBuyback(uint256,uint256)": "infinite",
				"getStats()": "8713",
				"owner()": "2388",
				"prizeEscrow()": "2417",
				"receiveFees()": "25987",
				"renounceOwnership()": "infinite",
				"setBuybackBurnRatio(uint256)": "25624",
				"setFeeSender(address,bool)": "28437",
				"setPrizeEscrow(address)": "27948",
				"setStakingDistributionPeriod(uint256)": "24600",
				"setTimbStaking(address)": "27992",
				"setTimbsEthPair(address)": "27949",
				"stakingDistributionPeriod()": "2385",
				"timbStaking()": "2438",
				"timbsBalance()": "infinite",
				"timbsEthPair()": "2437",
				"timbsToken()": "infinite",
				"totalFeesReceived()": "2362",
				"totalPotFunded()": "2341",
				"totalTimbsBurned()": "2341",
				"totalTimbsDistributed()": "2339",
				"transferOwnership(address)": "infinite",
				"withdrawOperational(address,uint256)": "infinite"
			}
		},
		"methodIdentifiers": {
			"authorisedFeeSenders(address)": "175ed4ba",
			"buybackBurnRatio()": "5a778c0f",
			"distributeToPot(uint256)": "eb164026",
			"distributeToStaking(uint256,uint256)": "330ac98d",
			"ethBalance()": "4e6630b0",
			"executeBuyback(uint256,uint256)": "97975c75",
			"getStats()": "c59d4847",
			"owner()": "8da5cb5b",
			"prizeEscrow()": "1a3b8e8c",
			"receiveFees()": "f60bb720",
			"renounceOwnership()": "715018a6",
			"setBuybackBurnRatio(uint256)": "b9e4355a",
			"setFeeSender(address,bool)": "ad8944da",
			"setPrizeEscrow(address)": "5f303f1c",
			"setStakingDistributionPeriod(uint256)": "85654e9a",
			"setTimbStaking(address)": "9fe65f19",
			"setTimbsEthPair(address)": "23f49b92",
			"stakingDistributionPeriod()": "926b7189",
			"timbStaking()": "34e908a7",
			"timbsBalance()": "d61b4497",
			"timbsEthPair()": "86507218",
			"timbsToken()": "0e31648f",
			"totalFeesReceived()": "9fbaf3de",
			"totalPotFunded()": "3c3fc552",
			"totalTimbsBurned()": "8bdcf669",
			"totalTimbsDistributed()": "e90900af",
			"transferOwnership(address)": "f2fde38b",
			"withdrawOperational(address,uint256)": "2cb97183"
		}
	},
	"abi": [
		{
			"inputs": [
				{
					"internalType": "address",
					"name": "_timbsToken",
					"type": "address"
				},
				{
					"internalType": "address",
					"name": "_timbStaking",
					"type": "address"
				},
				{
					"internalType": "address",
					"name": "_prizeEscrow",
					"type": "address"
				},
				{
					"internalType": "address",
					"name": "_timbsEthPair",
					"type": "address"
				}
			],
			"stateMutability": "nonpayable",
			"type": "constructor"
		},
		{
			"inputs": [],
			"name": "BuybackFailed",
			"type": "error"
		},
		{
			"inputs": [
				{
					"internalType": "uint256",
					"name": "requested",
					"type": "uint256"
				},
				{
					"internalType": "uint256",
					"name": "available",
					"type": "uint256"
				}
			],
			"name": "InsufficientETH",
			"type": "error"
		},
		{
			"inputs": [
				{
					"internalType": "uint256",
					"name": "ratio",
					"type": "uint256"
				}
			],
			"name": "InvalidRatio",
			"type": "error"
		},
		{
			"inputs": [],
			"name": "NotAuthorised",
			"type": "error"
		},
		{
			"inputs": [
				{
					"internalType": "address",
					"name": "owner",
					"type": "address"
				}
			],
			"name": "OwnableInvalidOwner",
			"type": "error"
		},
		{
			"inputs": [
				{
					"internalType": "address",
					"name": "account",
					"type": "address"
				}
			],
			"name": "OwnableUnauthorizedAccount",
			"type": "error"
		},
		{
			"inputs": [],
			"name": "ReentrancyGuardReentrantCall",
			"type": "error"
		},
		{
			"inputs": [
				{
					"internalType": "uint256",
					"name": "received",
					"type": "uint256"
				},
				{
					"internalType": "uint256",
					"name": "minimum",
					"type": "uint256"
				}
			],
			"name": "SlippageExceeded",
			"type": "error"
		},
		{
			"inputs": [],
			"name": "TransferFailed",
			"type": "error"
		},
		{
			"inputs": [],
			"name": "ZeroAddress",
			"type": "error"
		},
		{
			"inputs": [],
			"name": "ZeroAmount",
			"type": "error"
		},
		{
			"anonymous": false,
			"inputs": [
				{
					"indexed": false,
					"internalType": "uint256",
					"name": "ratio",
					"type": "uint256"
				}
			],
			"name": "BuybackBurnRatioSet",
			"type": "event"
		},
		{
			"anonymous": false,
			"inputs": [
				{
					"indexed": false,
					"internalType": "uint256",
					"name": "ethSpent",
					"type": "uint256"
				},
				{
					"indexed": false,
					"internalType": "uint256",
					"name": "timbsBought",
					"type": "uint256"
				},
				{
					"indexed": false,
					"internalType": "uint256",
					"name": "timbsBurned",
					"type": "uint256"
				},
				{
					"indexed": false,
					"internalType": "uint256",
					"name": "timbsToStaking",
					"type": "uint256"
				}
			],
			"name": "BuybackExecuted",
			"type": "event"
		},
		{
			"anonymous": false,
			"inputs": [
				{
					"indexed": true,
					"internalType": "address",
					"name": "sender",
					"type": "address"
				},
				{
					"indexed": false,
					"internalType": "bool",
					"name": "authorised",
					"type": "bool"
				}
			],
			"name": "FeeSenderSet",
			"type": "event"
		},
		{
			"anonymous": false,
			"inputs": [
				{
					"indexed": true,
					"internalType": "address",
					"name": "from",
					"type": "address"
				},
				{
					"indexed": false,
					"internalType": "uint256",
					"name": "amount",
					"type": "uint256"
				}
			],
			"name": "FeesReceived",
			"type": "event"
		},
		{
			"anonymous": false,
			"inputs": [
				{
					"indexed": true,
					"internalType": "address",
					"name": "to",
					"type": "address"
				},
				{
					"indexed": false,
					"internalType": "uint256",
					"name": "amount",
					"type": "uint256"
				}
			],
			"name": "OperationalWithdraw",
			"type": "event"
		},
		{
			"anonymous": false,
			"inputs": [
				{
					"indexed": true,
					"internalType": "address",
					"name": "previousOwner",
					"type": "address"
				},
				{
					"indexed": true,
					"internalType": "address",
					"name": "newOwner",
					"type": "address"
				}
			],
			"name": "OwnershipTransferred",
			"type": "event"
		},
		{
			"anonymous": false,
			"inputs": [
				{
					"indexed": true,
					"internalType": "address",
					"name": "pair",
					"type": "address"
				}
			],
			"name": "PairSet",
			"type": "event"
		},
		{
			"anonymous": false,
			"inputs": [
				{
					"indexed": false,
					"internalType": "uint256",
					"name": "amount",
					"type": "uint256"
				}
			],
			"name": "PotFunded",
			"type": "event"
		},
		{
			"anonymous": false,
			"inputs": [
				{
					"indexed": true,
					"internalType": "address",
					"name": "escrow",
					"type": "address"
				}
			],
			"name": "PrizeEscrowSet",
			"type": "event"
		},
		{
			"anonymous": false,
			"inputs": [
				{
					"indexed": false,
					"internalType": "uint256",
					"name": "timbsAmount",
					"type": "uint256"
				},
				{
					"indexed": false,
					"internalType": "uint256",
					"name": "duration",
					"type": "uint256"
				}
			],
			"name": "StakingFunded",
			"type": "event"
		},
		{
			"anonymous": false,
			"inputs": [
				{
					"indexed": true,
					"internalType": "address",
					"name": "staking",
					"type": "address"
				}
			],
			"name": "StakingSet",
			"type": "event"
		},
		{
			"inputs": [
				{
					"internalType": "address",
					"name": "",
					"type": "address"
				}
			],
			"name": "authorisedFeeSenders",
			"outputs": [
				{
					"internalType": "bool",
					"name": "",
					"type": "bool"
				}
			],
			"stateMutability": "view",
			"type": "function"
		},
		{
			"inputs": [],
			"name": "buybackBurnRatio",
			"outputs": [
				{
					"internalType": "uint256",
					"name": "",
					"type": "uint256"
				}
			],
			"stateMutability": "view",
			"type": "function"
		},
		{
			"inputs": [
				{
					"internalType": "uint256",
					"name": "amount",
					"type": "uint256"
				}
			],
			"name": "distributeToPot",
			"outputs": [],
			"stateMutability": "nonpayable",
			"type": "function"
		},
		{
			"inputs": [
				{
					"internalType": "uint256",
					"name": "timbsAmount",
					"type": "uint256"
				},
				{
					"internalType": "uint256",
					"name": "duration",
					"type": "uint256"
				}
			],
			"name": "distributeToStaking",
			"outputs": [],
			"stateMutability": "nonpayable",
			"type": "function"
		},
		{
			"inputs": [],
			"name": "ethBalance",
			"outputs": [
				{
					"internalType": "uint256",
					"name": "",
					"type": "uint256"
				}
			],
			"stateMutability": "view",
			"type": "function"
		},
		{
			"inputs": [
				{
					"internalType": "uint256",
					"name": "ethAmount",
					"type": "uint256"
				},
				{
					"internalType": "uint256",
					"name": "minTimbsOut",
					"type": "uint256"
				}
			],
			"name": "executeBuyback",
			"outputs": [],
			"stateMutability": "nonpayable",
			"type": "function"
		},
		{
			"inputs": [],
			"name": "getStats",
			"outputs": [
				{
					"internalType": "uint256",
					"name": "feesReceived",
					"type": "uint256"
				},
				{
					"internalType": "uint256",
					"name": "timbsBurned",
					"type": "uint256"
				},
				{
					"internalType": "uint256",
					"name": "timbsDistributed",
					"type": "uint256"
				},
				{
					"internalType": "uint256",
					"name": "potFunded",
					"type": "uint256"
				}
			],
			"stateMutability": "view",
			"type": "function"
		},
		{
			"inputs": [],
			"name": "owner",
			"outputs": [
				{
					"internalType": "address",
					"name": "",
					"type": "address"
				}
			],
			"stateMutability": "view",
			"type": "function"
		},
		{
			"inputs": [],
			"name": "prizeEscrow",
			"outputs": [
				{
					"internalType": "address",
					"name": "",
					"type": "address"
				}
			],
			"stateMutability": "view",
			"type": "function"
		},
		{
			"inputs": [],
			"name": "receiveFees",
			"outputs": [],
			"stateMutability": "payable",
			"type": "function"
		},
		{
			"inputs": [],
			"name": "renounceOwnership",
			"outputs": [],
			"stateMutability": "nonpayable",
			"type": "function"
		},
		{
			"inputs": [
				{
					"internalType": "uint256",
					"name": "_ratio",
					"type": "uint256"
				}
			],
			"name": "setBuybackBurnRatio",
			"outputs": [],
			"stateMutability": "nonpayable",
			"type": "function"
		},
		{
			"inputs": [
				{
					"internalType": "address",
					"name": "sender",
					"type": "address"
				},
				{
					"internalType": "bool",
					"name": "authorised",
					"type": "bool"
				}
			],
			"name": "setFeeSender",
			"outputs": [],
			"stateMutability": "nonpayable",
			"type": "function"
		},
		{
			"inputs": [
				{
					"internalType": "address",
					"name": "_escrow",
					"type": "address"
				}
			],
			"name": "setPrizeEscrow",
			"outputs": [],
			"stateMutability": "nonpayable",
			"type": "function"
		},
		{
			"inputs": [
				{
					"internalType": "uint256",
					"name": "_period",
					"type": "uint256"
				}
			],
			"name": "setStakingDistributionPeriod",
			"outputs": [],
			"stateMutability": "nonpayable",
			"type": "function"
		},
		{
			"inputs": [
				{
					"internalType": "address",
					"name": "_staking",
					"type": "address"
				}
			],
			"name": "setTimbStaking",
			"outputs": [],
			"stateMutability": "nonpayable",
			"type": "function"
		},
		{
			"inputs": [
				{
					"internalType": "address",
					"name": "_pair",
					"type": "address"
				}
			],
			"name": "setTimbsEthPair",
			"outputs": [],
			"stateMutability": "nonpayable",
			"type": "function"
		},
		{
			"inputs": [],
			"name": "stakingDistributionPeriod",
			"outputs": [
				{
					"internalType": "uint256",
					"name": "",
					"type": "uint256"
				}
			],
			"stateMutability": "view",
			"type": "function"
		},
		{
			"inputs": [],
			"name": "timbStaking",
			"outputs": [
				{
					"internalType": "address",
					"name": "",
					"type": "address"
				}
			],
			"stateMutability": "view",
			"type": "function"
		},
		{
			"inputs": [],
			"name": "timbsBalance",
			"outputs": [
				{
					"internalType": "uint256",
					"name": "",
					"type": "uint256"
				}
			],
			"stateMutability": "view",
			"type": "function"
		},
		{
			"inputs": [],
			"name": "timbsEthPair",
			"outputs": [
				{
					"internalType": "address",
					"name": "",
					"type": "address"
				}
			],
			"stateMutability": "view",
			"type": "function"
		},
		{
			"inputs": [],
			"name": "timbsToken",
			"outputs": [
				{
					"internalType": "contract ITimbsToken",
					"name": "",
					"type": "address"
				}
			],
			"stateMutability": "view",
			"type": "function"
		},
		{
			"inputs": [],
			"name": "totalFeesReceived",
			"outputs": [
				{
					"internalType": "uint256",
					"name": "",
					"type": "uint256"
				}
			],
			"stateMutability": "view",
			"type": "function"
		},
		{
			"inputs": [],
			"name": "totalPotFunded",
			"outputs": [
				{
					"internalType": "uint256",
					"name": "",
					"type": "uint256"
				}
			],
			"stateMutability": "view",
			"type": "function"
		},
		{
			"inputs": [],
			"name": "totalTimbsBurned",
			"outputs": [
				{
					"internalType": "uint256",
					"name": "",
					"type": "uint256"
				}
			],
			"stateMutability": "view",
			"type": "function"
		},
		{
			"inputs": [],
			"name": "totalTimbsDistributed",
			"outputs": [
				{
					"internalType": "uint256",
					"name": "",
					"type": "uint256"
				}
			],
			"stateMutability": "view",
			"type": "function"
		},
		{
			"inputs": [
				{
					"internalType": "address",
					"name": "newOwner",
					"type": "address"
				}
			],
			"name": "transferOwnership",
			"outputs": [],
			"stateMutability": "nonpayable",
			"type": "function"
		},
		{
			"inputs": [
				{
					"internalType": "address",
					"name": "to",
					"type": "address"
				},
				{
					"internalType": "uint256",
					"name": "amount",
					"type": "uint256"
				}
			],
			"name": "withdrawOperational",
			"outputs": [],
			"stateMutability": "nonpayable",
			"type": "function"
		},
		{
			"stateMutability": "payable",
			"type": "receive"
		}
	]
}