{
	"data": {
		"bytecode": {
			"linkReferences": {},
			"object": "60806040523480156200001157600080fd5b5060405162001a3f38038062001a3f83398101604081905262000034916200050d565b336040518060400160405280600e81526020016d2a34b6b129bbb0b8102a37b5b2b760911b8152506040518060400160405280600581526020016454494d425360d81b81525081600390816200008b9190620005f6565b5060046200009a8282620005f6565b5050506001600160a01b038116620000cd57604051631e4fbdf760e01b8152600060048201526024015b60405180910390fd5b620000d88162000261565b5060017f9b779b17422d0df92223018b32b4d1fa46e071723d6817e2486d003becc55f00556001600160a01b038316620001255760405163d92e233d60e01b815260040160405180910390fd5b816000036200014757604051631f2a200560e01b815260040160405180910390fd5b6a52b7d2dcc80cd2e40000008211156200018957604051633999a0b760e11b8152600481018390526a52b7d2dcc80cd2e40000006024820152604401620000c4565b600680546001600160a01b0319166001600160a01b038516908117909155600a8290556000908152600c6020526040808220805460ff1990811660019081179092553384529190922080549091169091179055620001e88383620002b3565b6040516001600160a01b038416906000907f4ab5be82436d353e61ca18726e984e561f5c1cc7c6d38b29d2553c790434705a908290a36040805160008152602081018390527f5299e127ac8bdc64fd0e551dd406ba1e1fbaebc96d458ce9b1a5e69caecdf376910160405180910390a1505050620006ea565b600580546001600160a01b038381166001600160a01b0319831681179093556040519116919082907f8be0079c531659141344cd1fd0a4f28419497f9722a3daafe3b4186f6b6457e090600090a35050565b6001600160a01b038216620002df5760405163ec442f0560e01b815260006004820152602401620000c4565b620002ed60008383620002f1565b5050565b600d5460ff1615620003165760405163cd1fda9f60e01b815260040160405180910390fd5b6001600160a01b038316158015906200033757506001600160a01b03821615155b15620003c8576000600b541180156200036957506001600160a01b0383166000908152600c602052604090205460ff16155b80156200038f57506001600160a01b0382166000908152600c602052604090205460ff16155b15620003c857600b54811115620003c857600b54604051634089727160e11b8152620000c4918391600401918252602082015260400190565b620003d5838383620003da565b505050565b6001600160a01b03831662000409578060026000828254620003fd9190620006c2565b909155506200047d9050565b6001600160a01b038316600090815260208190526040902054818110156200045e5760405163391434e360e21b81526001600160a01b03851660048201526024810182905260448101839052606401620000c4565b6001600160a01b03841660009081526020819052604090209082900390555b6001600160a01b0382166200049b57600280548290039055620004ba565b6001600160a01b03821660009081526020819052604090208054820190555b816001600160a01b0316836001600160a01b03167fddf252ad1be2c89b69c2b068fc378daa952ba7f163c4a11628f55a4df523b3ef836040516200050091815260200190565b60405180910390a3505050565b6000806000606084860312156200052357600080fd5b83516001600160a01b03811681146200053b57600080fd5b602085015160409095015190969495509392505050565b634e487b7160e01b600052604160045260246000fd5b600181811c908216806200057d57607f821691505b6020821081036200059e57634e487b7160e01b600052602260045260246000fd5b50919050565b601f821115620003d557600081815260208120601f850160051c81016020861015620005cd5750805b601f850160051c820191505b81811015620005ee57828155600101620005d9565b505050505050565b81516001600160401b0381111562000612576200061262000552565b6200062a8162000623845462000568565b84620005a4565b602080601f831160018114620006625760008415620006495750858301515b600019600386901b1c1916600185901b178555620005ee565b600085815260208120601f198616915b82811015620006935788860151825594840194600190910190840162000672565b5085821015620006b25787850151600019600388901b60f8161c191681555b5050505050600190811b01905550565b80820180821115620006e457634e487b7160e01b600052601160045260246000fd5b92915050565b61134580620006fa6000396000f3fe608060405234801561001057600080fd5b50600436106102115760003560e01c8063715018a611610125578063a1bdb15e116100ad578063d89a6fa61161007c578063d89a6fa61461043c578063dd62ed3e1461044f578063e4a34dce14610488578063f0f442601461049b578063f2fde38b146104ae57600080fd5b8063a1bdb15e14610405578063a9059cbb14610418578063a9e757231461042b578063ae11c4bc1461043457600080fd5b806383d5d801116100f457806383d5d801146103ca5780638456cb59146103d15780638bf55409146103d95780638da5cb5b146103ec57806395d89b41146103fd57600080fd5b8063715018a61461037957806379cc6790146103815780637c562a94146103945780637ffbe241146103a757600080fd5b8063313ce567116101a857806342966c681161017757806342966c681461031457806345c952cb146103275780635c975abb1461033057806361d027b31461033d57806370a082311461035057600080fd5b8063313ce567146102e25780633a03171c146102f15780633f4ba83a146103035780634214e0af1461030b57600080fd5b806321d66353116101e457806321d663531461029457806323b872dd146102a9578063296ed9f4146102bc5780633028f63a146102cf57600080fd5b806306fdde0314610216578063095ea7b3146102345780630c56ae3b1461025757806318160ddd14610282575b600080fd5b61021e6104c1565b60405161022b919061111f565b60405180910390f35b610247610242366004611189565b610553565b604051901515815260200161022b565b60075461026a906001600160a01b031681565b6040516001600160a01b03909116815260200161022b565b6002545b60405190815260200161022b565b6102a76102a23660046111b3565b61056d565b005b6102476102b73660046111cc565b6105d7565b6102a76102ca366004611189565b6105fb565b6102a76102dd366004611208565b610773565b6040516012815260200161022b565b6102866a52b7d2dcc80cd2e400000081565b6102a7610836565b61028660095481565b6102a76103223660046111b3565b610875565b610286600a5481565b600d546102479060ff1681565b60065461026a906001600160a01b031681565b61028661035e366004611208565b6001600160a01b031660009081526020819052604090205490565b6102a7610882565b6102a761038f366004611189565b610896565b6102a76103a2366004611208565b6108ab565b6102476103b5366004611208565b600c6020526000908152604090205460ff1681565b6000610286565b6102a761096e565b6102a76103e73660046111b3565b6109b0565b6005546001600160a01b031661026a565b61021e6109f4565b6102a76104133660046111b3565b610a03565b610247610426366004611189565b610a40565b610286600b5481565b610286610a4e565b60085461026a906001600160a01b031681565b61028661045d36600461122a565b6001600160a01b03918216600090815260016020908152604080832093909416825291909152205490565b6102a761049636600461125d565b610a73565b6102a76104a9366004611208565b610b01565b6102a76104bc366004611208565b610bc0565b6060600380546104d090611299565b80601f01602080910402602001604051908101604052809291908181526020018280546104fc90611299565b80156105495780601f1061051e57610100808354040283529160200191610549565b820191906000526020600020905b81548152906001019060200180831161052c57829003601f168201915b5050505050905090565b600033610561818585610bfb565b60019150505b92915050565b610575610c0d565b8060000361059657604051631f2a200560e01b815260040160405180910390fd5b600a5460408051918252602082018390527f5299e127ac8bdc64fd0e551dd406ba1e1fbaebc96d458ce9b1a5e69caecdf376910160405180910390a1600a55565b6000336105e5858285610c3a565b6105f0858585610cb9565b506001949350505050565b610603610d18565b6007546001600160a01b0316331480159061062957506008546001600160a01b03163314155b801561064057506005546001600160a01b03163314155b1561065e5760405163019a5d1d60e71b815260040160405180910390fd5b6001600160a01b0382166106855760405163d92e233d60e01b815260040160405180910390fd5b806000036106a657604051631f2a200560e01b815260040160405180910390fd5b60006106b160025490565b6106c6906a52b7d2dcc80cd2e40000006112e9565b9050808211156106f857604051633999a0b760e11b815260048101839052602481018290526044015b60405180910390fd5b6107028383610d46565b826001600160a01b03167f64e4bb1bd66f16486c6ff3bf1e7ee4919e2e2dc7b134e2ed9fbd814a9949fe6b8360405161073d91815260200190565b60405180910390a25061076f60017f9b779b17422d0df92223018b32b4d1fa46e071723d6817e2486d003becc55f0055565b5050565b61077b610c0d565b6001600160a01b0381166107a25760405163d92e233d60e01b815260040160405180910390fd5b6007546001600160a01b0316156107d6576007546001600160a01b03166000908152600c60205260409020805460ff191690555b600780546001600160a01b0319166001600160a01b0383169081179091556000818152600c6020526040808220805460ff19166001179055517f6fca2e06bb34845f84427e65445730e7e00faf72ad37f6485b24de98f103bb069190a250565b61083e610c0d565b600d805460ff1916905560405133907f5db9ee0a495bf2e6ff9c91a7834c1ba4fdd244a5e8aa4e537bd38aeae4b073aa90600090a2565b61087f3382610d7c565b50565b61088a610c0d565b6108946000610db2565b565b6108a1823383610c3a565b61076f8282610d7c565b6108b3610c0d565b6001600160a01b0381166108da5760405163d92e233d60e01b815260040160405180910390fd5b6008546001600160a01b03161561090e576008546001600160a01b03166000908152600c60205260409020805460ff191690555b600880546001600160a01b0319166001600160a01b0383169081179091556000818152600c6020526040808220805460ff19166001179055517f0984594d51cb2b9061c64322cc955dc1cf1e8bf0f73512ba8221e4db196be16a9190a250565b610976610c0d565b600d805460ff1916600117905560405133907f62e78cea01bee320cd4e420270b5ea74000d11b0c9f74754ebdbfc544b05a25890600090a2565b6109b8610c0d565b600b8190556040518181527fd82d7466dbfb0b68291841d1adf74df365a848cd534d11e8c6b238ec9fb5ebe6906020015b60405180910390a150565b6060600480546104d090611299565b610a0b610c0d565b60098190556040518181527f010a8b7cb1faab491acf8e175333e56c4bf4ad24ae1927dc38925ac085085f71906020016109e9565b600033610561818585610cb9565b6000610a5960025490565b610a6e906a52b7d2dcc80cd2e40000006112e9565b905090565b610a7b610c0d565b6001600160a01b038216610aa25760405163d92e233d60e01b815260040160405180910390fd5b6001600160a01b0382166000818152600c6020908152604091829020805460ff191685151590811790915591519182527fe3b4918d2544570f4fd920ce69294772100c0d60360c88d94c56fadbbef76cb1910160405180910390a25050565b610b09610c0d565b6001600160a01b038116610b305760405163d92e233d60e01b815260040160405180910390fd5b600680546001600160a01b039081166000908152600c6020526040808220805460ff191690559254925184831693909216917f4ab5be82436d353e61ca18726e984e561f5c1cc7c6d38b29d2553c790434705a9190a3600680546001600160a01b039092166001600160a01b0319909216821790556000908152600c60205260409020805460ff19166001179055565b610bc8610c0d565b6001600160a01b038116610bf257604051631e4fbdf760e01b8152600060048201526024016106ef565b61087f81610db2565b610c088383836001610e04565b505050565b6005546001600160a01b031633146108945760405163118cdaa760e01b81523360048201526024016106ef565b6001600160a01b03838116600090815260016020908152604080832093861683529290522054600019811015610cb35781811015610ca457604051637dc7a0d960e11b81526001600160a01b038416600482015260248101829052604481018390526064016106ef565b610cb384848484036000610e04565b50505050565b6001600160a01b038316610ce357604051634b637e8f60e11b8152600060048201526024016106ef565b6001600160a01b038216610d0d5760405163ec442f0560e01b8152600060048201526024016106ef565b610c08838383610ed9565b610d20610fb3565b60027f9b779b17422d0df92223018b32b4d1fa46e071723d6817e2486d003becc55f0055565b6001600160a01b038216610d705760405163ec442f0560e01b8152600060048201526024016106ef565b61076f60008383610ed9565b6001600160a01b038216610da657604051634b637e8f60e11b8152600060048201526024016106ef565b61076f82600083610ed9565b600580546001600160a01b038381166001600160a01b0319831681179093556040519116919082907f8be0079c531659141344cd1fd0a4f28419497f9722a3daafe3b4186f6b6457e090600090a35050565b6001600160a01b038416610e2e5760405163e602df0560e01b8152600060048201526024016106ef565b6001600160a01b038316610e5857604051634a1406b160e11b8152600060048201526024016106ef565b6001600160a01b0380851660009081526001602090815260408083209387168352929052208290558015610cb357826001600160a01b0316846001600160a01b03167f8c5be1e5ebec7d5bd14f71427d1e84f3dd0314c0f7b2291e5b200ac8c7c3b92584604051610ecb91815260200190565b60405180910390a350505050565b600d5460ff1615610efd5760405163cd1fda9f60e01b815260040160405180910390fd5b6001600160a01b03831615801590610f1d57506001600160a01b03821615155b15610fa8576000600b54118015610f4d57506001600160a01b0383166000908152600c602052604090205460ff16155b8015610f7257506001600160a01b0382166000908152600c602052604090205460ff16155b15610fa857600b54811115610fa857600b54604051634089727160e11b81526106ef918391600401918252602082015260400190565b610c08838383610ff5565b7f9b779b17422d0df92223018b32b4d1fa46e071723d6817e2486d003becc55f005460020361089457604051633ee5aeb560e01b815260040160405180910390fd5b6001600160a01b03831661102057806002600082825461101591906112fc565b909155506110929050565b6001600160a01b038316600090815260208190526040902054818110156110735760405163391434e360e21b81526001600160a01b038516600482015260248101829052604481018390526064016106ef565b6001600160a01b03841660009081526020819052604090209082900390555b6001600160a01b0382166110ae576002805482900390556110cd565b6001600160a01b03821660009081526020819052604090208054820190555b816001600160a01b0316836001600160a01b03167fddf252ad1be2c89b69c2b068fc378daa952ba7f163c4a11628f55a4df523b3ef8360405161111291815260200190565b60405180910390a3505050565b600060208083528351808285015260005b8181101561114c57858101830151858201604001528201611130565b506000604082860101526040601f19601f8301168501019250505092915050565b80356001600160a01b038116811461118457600080fd5b919050565b6000806040838503121561119c57600080fd5b6111a58361116d565b946020939093013593505050565b6000602082840312156111c557600080fd5b5035919050565b6000806000606084860312156111e157600080fd5b6111ea8461116d565b92506111f86020850161116d565b9150604084013590509250925092565b60006020828403121561121a57600080fd5b6112238261116d565b9392505050565b6000806040838503121561123d57600080fd5b6112468361116d565b91506112546020840161116d565b90509250929050565b6000806040838503121561127057600080fd5b6112798361116d565b91506020830135801515811461128e57600080fd5b809150509250929050565b600181811c908216806112ad57607f821691505b6020821081036112cd57634e487b7160e01b600052602260045260246000fd5b50919050565b634e487b7160e01b600052601160045260246000fd5b81810381811115610567576105676112d3565b80820180821115610567576105676112d356fea2646970667358221220b3a97159a0da77d5e9473f40e824fca2fb611a044ccc43ed5c4b40a03f3c9dbb64736f6c63430008140033",
			"opcodes": "PUSH1 0x80 PUSH1 0x40 MSTORE CALLVALUE DUP1 ISZERO PUSH3 0x11 JUMPI PUSH1 0x0 DUP1 REVERT JUMPDEST POP PUSH1 0x40 MLOAD PUSH3 0x1A3F CODESIZE SUB DUP1 PUSH3 0x1A3F DUP4 CODECOPY DUP2 ADD PUSH1 0x40 DUP2 SWAP1 MSTORE PUSH3 0x34 SWAP2 PUSH3 0x50D JUMP JUMPDEST CALLER PUSH1 0x40 MLOAD DUP1 PUSH1 0x40 ADD PUSH1 0x40 MSTORE DUP1 PUSH1 0xE DUP2 MSTORE PUSH1 0x20 ADD PUSH14 0x2A34B6B129BBB0B8102A37B5B2B7 PUSH1 0x91 SHL DUP2 MSTORE POP PUSH1 0x40 MLOAD DUP1 PUSH1 0x40 ADD PUSH1 0x40 MSTORE DUP1 PUSH1 0x5 DUP2 MSTORE PUSH1 0x20 ADD PUSH5 0x54494D4253 PUSH1 0xD8 SHL DUP2 MSTORE POP DUP2 PUSH1 0x3 SWAP1 DUP2 PUSH3 0x8B SWAP2 SWAP1 PUSH3 0x5F6 JUMP JUMPDEST POP PUSH1 0x4 PUSH3 0x9A DUP3 DUP3 PUSH3 0x5F6 JUMP JUMPDEST POP POP POP PUSH1 0x1 PUSH1 0x1 PUSH1 0xA0 SHL SUB DUP2 AND PUSH3 0xCD JUMPI PUSH1 0x40 MLOAD PUSH4 0x1E4FBDF7 PUSH1 0xE0 SHL DUP2 MSTORE PUSH1 0x0 PUSH1 0x4 DUP3 ADD MSTORE PUSH1 0x24 ADD JUMPDEST PUSH1 0x40 MLOAD DUP1 SWAP2 SUB SWAP1 REVERT JUMPDEST PUSH3 0xD8 DUP2 PUSH3 0x261 JUMP JUMPDEST POP PUSH1 0x1 PUSH32 0x9B779B17422D0DF92223018B32B4D1FA46E071723D6817E2486D003BECC55F00 SSTORE PUSH1 0x1 PUSH1 0x1 PUSH1 0xA0 SHL SUB DUP4 AND PUSH3 0x125 JUMPI PUSH1 0x40 MLOAD PUSH4 0xD92E233D PUSH1 0xE0 SHL DUP2 MSTORE PUSH1 0x4 ADD PUSH1 0x40 MLOAD DUP1 SWAP2 SUB SWAP1 REVERT JUMPDEST DUP2 PUSH1 0x0 SUB PUSH3 0x147 JUMPI PUSH1 0x40 MLOAD PUSH4 0x1F2A2005 PUSH1 0xE0 SHL DUP2 MSTORE PUSH1 0x4 ADD PUSH1 0x40 MLOAD DUP1 SWAP2 SUB SWAP1 REVERT JUMPDEST PUSH11 0x52B7D2DCC80CD2E4000000 DUP3 GT ISZERO PUSH3 0x189 JUMPI PUSH1 0x40 MLOAD PUSH4 0x3999A0B7 PUSH1 0xE1 SHL DUP2 MSTORE PUSH1 0x4 DUP2 ADD DUP4 SWAP1 MSTORE PUSH11 0x52B7D2DCC80CD2E4000000 PUSH1 0x24 DUP3 ADD MSTORE PUSH1 0x44 ADD PUSH3 0xC4 JUMP JUMPDEST PUSH1 0x6 DUP1 SLOAD PUSH1 0x1 PUSH1 0x1 PUSH1 0xA0 SHL SUB NOT AND PUSH1 0x1 PUSH1 0x1 PUSH1 0xA0 SHL SUB DUP6 AND SWAP1 DUP2 OR SWAP1 SWAP2 SSTORE PUSH1 0xA DUP3 SWAP1 SSTORE PUSH1 0x0 SWAP1 DUP2 MSTORE PUSH1 0xC PUSH1 0x20 MSTORE PUSH1 0x40 DUP1 DUP3 KECCAK256 DUP1 SLOAD PUSH1 0xFF NOT SWAP1 DUP2 AND PUSH1 0x1 SWAP1 DUP2 OR SWAP1 SWAP3 SSTORE CALLER DUP5 MSTORE SWAP2 SWAP1 SWAP3 KECCAK256 DUP1 SLOAD SWAP1 SWAP2 AND SWAP1 SWAP2 OR SWAP1 SSTORE PUSH3 0x1E8 DUP4 DUP4 PUSH3 0x2B3 JUMP JUMPDEST PUSH1 0x40 MLOAD PUSH1 0x1 PUSH1 0x1 PUSH1 0xA0 SHL SUB DUP5 AND SWAP1 PUSH1 0x0 SWAP1 PUSH32 0x4AB5BE82436D353E61CA18726E984E561F5C1CC7C6D38B29D2553C790434705A SWAP1 DUP3 SWAP1 LOG3 PUSH1 0x40 DUP1 MLOAD PUSH1 0x0 DUP2 MSTORE PUSH1 0x20 DUP2 ADD DUP4 SWAP1 MSTORE PUSH32 0x5299E127AC8BDC64FD0E551DD406BA1E1FBAEBC96D458CE9B1A5E69CAECDF376 SWAP2 ADD PUSH1 0x40 MLOAD DUP1 SWAP2 SUB SWAP1 LOG1 POP POP POP PUSH3 0x6EA JUMP JUMPDEST PUSH1 0x5 DUP1 SLOAD PUSH1 0x1 PUSH1 0x1 PUSH1 0xA0 SHL SUB DUP4 DUP2 AND PUSH1 0x1 PUSH1 0x1 PUSH1 0xA0 SHL SUB NOT DUP4 AND DUP2 OR SWAP1 SWAP4 SSTORE PUSH1 0x40 MLOAD SWAP2 AND SWAP2 SWAP1 DUP3 SWAP1 PUSH32 0x8BE0079C531659141344CD1FD0A4F28419497F9722A3DAAFE3B4186F6B6457E0 SWAP1 PUSH1 0x0 SWAP1 LOG3 POP POP JUMP JUMPDEST PUSH1 0x1 PUSH1 0x1 PUSH1 0xA0 SHL SUB DUP3 AND PUSH3 0x2DF JUMPI PUSH1 0x40 MLOAD PUSH4 0xEC442F05 PUSH1 0xE0 SHL DUP2 MSTORE PUSH1 0x0 PUSH1 0x4 DUP3 ADD MSTORE PUSH1 0x24 ADD PUSH3 0xC4 JUMP JUMPDEST PUSH3 0x2ED PUSH1 0x0 DUP4 DUP4 PUSH3 0x2F1 JUMP JUMPDEST POP POP JUMP JUMPDEST PUSH1 0xD SLOAD PUSH1 0xFF AND ISZERO PUSH3 0x316 JUMPI PUSH1 0x40 MLOAD PUSH4 0xCD1FDA9F PUSH1 0xE0 SHL DUP2 MSTORE PUSH1 0x4 ADD PUSH1 0x40 MLOAD DUP1 SWAP2 SUB SWAP1 REVERT JUMPDEST PUSH1 0x1 PUSH1 0x1 PUSH1 0xA0 SHL SUB DUP4 AND ISZERO DUP1 ISZERO SWAP1 PUSH3 0x337 JUMPI POP PUSH1 0x1 PUSH1 0x1 PUSH1 0xA0 SHL SUB DUP3 AND ISZERO ISZERO JUMPDEST ISZERO PUSH3 0x3C8 JUMPI PUSH1 0x0 PUSH1 0xB SLOAD GT DUP1 ISZERO PUSH3 0x369 JUMPI POP PUSH1 0x1 PUSH1 0x1 PUSH1 0xA0 SHL SUB DUP4 AND PUSH1 0x0 SWAP1 DUP2 MSTORE PUSH1 0xC PUSH1 0x20 MSTORE PUSH1 0x40 SWAP1 KECCAK256 SLOAD PUSH1 0xFF AND ISZERO JUMPDEST DUP1 ISZERO PUSH3 0x38F JUMPI POP PUSH1 0x1 PUSH1 0x1 PUSH1 0xA0 SHL SUB DUP3 AND PUSH1 0x0 SWAP1 DUP2 MSTORE PUSH1 0xC PUSH1 0x20 MSTORE PUSH1 0x40 SWAP1 KECCAK256 SLOAD PUSH1 0xFF AND ISZERO JUMPDEST ISZERO PUSH3 0x3C8 JUMPI PUSH1 0xB SLOAD DUP2 GT ISZERO PUSH3 0x3C8 JUMPI PUSH1 0xB SLOAD PUSH1 0x40 MLOAD PUSH4 0x40897271 PUSH1 0xE1 SHL DUP2 MSTORE PUSH3 0xC4 SWAP2 DUP4 SWAP2 PUSH1 0x4 ADD SWAP2 DUP3 MSTORE PUSH1 0x20 DUP3 ADD MSTORE PUSH1 0x40 ADD SWAP1 JUMP JUMPDEST PUSH3 0x3D5 DUP4 DUP4 DUP4 PUSH3 0x3DA JUMP JUMPDEST POP POP POP JUMP JUMPDEST PUSH1 0x1 PUSH1 0x1 PUSH1 0xA0 SHL SUB DUP4 AND PUSH3 0x409 JUMPI DUP1 PUSH1 0x2 PUSH1 0x0 DUP3 DUP3 SLOAD PUSH3 0x3FD SWAP2 SWAP1 PUSH3 0x6C2 JUMP JUMPDEST SWAP1 SWAP2 SSTORE POP PUSH3 0x47D SWAP1 POP JUMP JUMPDEST PUSH1 0x1 PUSH1 0x1 PUSH1 0xA0 SHL SUB DUP4 AND PUSH1 0x0 SWAP1 DUP2 MSTORE PUSH1 0x20 DUP2 SWAP1 MSTORE PUSH1 0x40 SWAP1 KECCAK256 SLOAD DUP2 DUP2 LT ISZERO PUSH3 0x45E JUMPI PUSH1 0x40 MLOAD PUSH4 0x391434E3 PUSH1 0xE2 SHL DUP2 MSTORE PUSH1 0x1 PUSH1 0x1 PUSH1 0xA0 SHL SUB DUP6 AND PUSH1 0x4 DUP3 ADD MSTORE PUSH1 0x24 DUP2 ADD DUP3 SWAP1 MSTORE PUSH1 0x44 DUP2 ADD DUP4 SWAP1 MSTORE PUSH1 0x64 ADD PUSH3 0xC4 JUMP JUMPDEST PUSH1 0x1 PUSH1 0x1 PUSH1 0xA0 SHL SUB DUP5 AND PUSH1 0x0 SWAP1 DUP2 MSTORE PUSH1 0x20 DUP2 SWAP1 MSTORE PUSH1 0x40 SWAP1 KECCAK256 SWAP1 DUP3 SWAP1 SUB SWAP1 SSTORE JUMPDEST PUSH1 0x1 PUSH1 0x1 PUSH1 0xA0 SHL SUB DUP3 AND PUSH3 0x49B JUMPI PUSH1 0x2 DUP1 SLOAD DUP3 SWAP1 SUB SWAP1 SSTORE PUSH3 0x4BA JUMP JUMPDEST PUSH1 0x1 PUSH1 0x1 PUSH1 0xA0 SHL SUB DUP3 AND PUSH1 0x0 SWAP1 DUP2 MSTORE PUSH1 0x20 DUP2 SWAP1 MSTORE PUSH1 0x40 SWAP1 KECCAK256 DUP1 SLOAD DUP3 ADD SWAP1 SSTORE JUMPDEST DUP2 PUSH1 0x1 PUSH1 0x1 PUSH1 0xA0 SHL SUB AND DUP4 PUSH1 0x1 PUSH1 0x1 PUSH1 0xA0 SHL SUB AND PUSH32 0xDDF252AD1BE2C89B69C2B068FC378DAA952BA7F163C4A11628F55A4DF523B3EF DUP4 PUSH1 0x40 MLOAD PUSH3 0x500 SWAP2 DUP2 MSTORE PUSH1 0x20 ADD SWAP1 JUMP JUMPDEST PUSH1 0x40 MLOAD DUP1 SWAP2 SUB SWAP1 LOG3 POP POP POP JUMP JUMPDEST PUSH1 0x0 DUP1 PUSH1 0x0 PUSH1 0x60 DUP5 DUP7 SUB SLT ISZERO PUSH3 0x523 JUMPI PUSH1 0x0 DUP1 REVERT JUMPDEST DUP4 MLOAD PUSH1 0x1 PUSH1 0x1 PUSH1 0xA0 SHL SUB DUP2 AND DUP2 EQ PUSH3 0x53B JUMPI PUSH1 0x0 DUP1 REVERT JUMPDEST PUSH1 0x20 DUP6 ADD MLOAD PUSH1 0x40 SWAP1 SWAP6 ADD MLOAD SWAP1 SWAP7 SWAP5 SWAP6 POP SWAP4 SWAP3 POP POP POP JUMP JUMPDEST PUSH4 0x4E487B71 PUSH1 0xE0 SHL PUSH1 0x0 MSTORE PUSH1 0x41 PUSH1 0x4 MSTORE PUSH1 0x24 PUSH1 0x0 REVERT JUMPDEST PUSH1 0x1 DUP2 DUP2 SHR SWAP1 DUP3 AND DUP1 PUSH3 0x57D JUMPI PUSH1 0x7F DUP3 AND SWAP2 POP JUMPDEST PUSH1 0x20 DUP3 LT DUP2 SUB PUSH3 0x59E JUMPI PUSH4 0x4E487B71 PUSH1 0xE0 SHL PUSH1 0x0 MSTORE PUSH1 0x22 PUSH1 0x4 MSTORE PUSH1 0x24 PUSH1 0x0 REVERT JUMPDEST POP SWAP2 SWAP1 POP JUMP JUMPDEST PUSH1 0x1F DUP3 GT ISZERO PUSH3 0x3D5 JUMPI PUSH1 0x0 DUP2 DUP2 MSTORE PUSH1 0x20 DUP2 KECCAK256 PUSH1 0x1F DUP6 ADD PUSH1 0x5 SHR DUP2 ADD PUSH1 0x20 DUP7 LT ISZERO PUSH3 0x5CD JUMPI POP DUP1 JUMPDEST PUSH1 0x1F DUP6 ADD PUSH1 0x5 SHR DUP3 ADD SWAP2 POP JUMPDEST DUP2 DUP2 LT ISZERO PUSH3 0x5EE JUMPI DUP3 DUP2 SSTORE PUSH1 0x1 ADD PUSH3 0x5D9 JUMP JUMPDEST POP POP POP POP POP POP JUMP JUMPDEST DUP2 MLOAD PUSH1 0x1 PUSH1 0x1 PUSH1 0x40 SHL SUB DUP2 GT ISZERO PUSH3 0x612 JUMPI PUSH3 0x612 PUSH3 0x552 JUMP JUMPDEST PUSH3 0x62A DUP2 PUSH3 0x623 DUP5 SLOAD PUSH3 0x568 JUMP JUMPDEST DUP5 PUSH3 0x5A4 JUMP JUMPDEST PUSH1 0x20 DUP1 PUSH1 0x1F DUP4 GT PUSH1 0x1 DUP2 EQ PUSH3 0x662 JUMPI PUSH1 0x0 DUP5 ISZERO PUSH3 0x649 JUMPI POP DUP6 DUP4 ADD MLOAD JUMPDEST PUSH1 0x0 NOT PUSH1 0x3 DUP7 SWAP1 SHL SHR NOT AND PUSH1 0x1 DUP6 SWAP1 SHL OR DUP6 SSTORE PUSH3 0x5EE JUMP JUMPDEST PUSH1 0x0 DUP6 DUP2 MSTORE PUSH1 0x20 DUP2 KECCAK256 PUSH1 0x1F NOT DUP7 AND SWAP2 JUMPDEST DUP3 DUP2 LT ISZERO PUSH3 0x693 JUMPI DUP9 DUP7 ADD MLOAD DUP3 SSTORE SWAP5 DUP5 ADD SWAP5 PUSH1 0x1 SWAP1 SWAP2 ADD SWAP1 DUP5 ADD PUSH3 0x672 JUMP JUMPDEST POP DUP6 DUP3 LT ISZERO PUSH3 0x6B2 JUMPI DUP8 DUP6 ADD MLOAD PUSH1 0x0 NOT PUSH1 0x3 DUP9 SWAP1 SHL PUSH1 0xF8 AND SHR NOT AND DUP2 SSTORE JUMPDEST POP POP POP POP POP PUSH1 0x1 SWAP1 DUP2 SHL ADD SWAP1 SSTORE POP JUMP JUMPDEST DUP1 DUP3 ADD DUP1 DUP3 GT ISZERO PUSH3 0x6E4 JUMPI PUSH4 0x4E487B71 PUSH1 0xE0 SHL PUSH1 0x0 MSTORE PUSH1 0x11 PUSH1 0x4 MSTORE PUSH1 0x24 PUSH1 0x0 REVERT JUMPDEST SWAP3 SWAP2 POP POP JUMP JUMPDEST PUSH2 0x1345 DUP1 PUSH3 0x6FA PUSH1 0x0 CODECOPY PUSH1 0x0 RETURN INVALID PUSH1 0x80 PUSH1 0x40 MSTORE CALLVALUE DUP1 ISZERO PUSH2 0x10 JUMPI PUSH1 0x0 DUP1 REVERT JUMPDEST POP PUSH1 0x4 CALLDATASIZE LT PUSH2 0x211 JUMPI PUSH1 0x0 CALLDATALOAD PUSH1 0xE0 SHR DUP1 PUSH4 0x715018A6 GT PUSH2 0x125 JUMPI DUP1 PUSH4 0xA1BDB15E GT PUSH2 0xAD JUMPI DUP1 PUSH4 0xD89A6FA6 GT PUSH2 0x7C JUMPI DUP1 PUSH4 0xD89A6FA6 EQ PUSH2 0x43C JUMPI DUP1 PUSH4 0xDD62ED3E EQ PUSH2 0x44F JUMPI DUP1 PUSH4 0xE4A34DCE EQ PUSH2 0x488 JUMPI DUP1 PUSH4 0xF0F44260 EQ PUSH2 0x49B JUMPI DUP1 PUSH4 0xF2FDE38B EQ PUSH2 0x4AE JUMPI PUSH1 0x0 DUP1 REVERT JUMPDEST DUP1 PUSH4 0xA1BDB15E EQ PUSH2 0x405 JUMPI DUP1 PUSH4 0xA9059CBB EQ PUSH2 0x418 JUMPI DUP1 PUSH4 0xA9E75723 EQ PUSH2 0x42B JUMPI DUP1 PUSH4 0xAE11C4BC EQ PUSH2 0x434 JUMPI PUSH1 0x0 DUP1 REVERT JUMPDEST DUP1 PUSH4 0x83D5D801 GT PUSH2 0xF4 JUMPI DUP1 PUSH4 0x83D5D801 EQ PUSH2 0x3CA JUMPI DUP1 PUSH4 0x8456CB59 EQ PUSH2 0x3D1 JUMPI DUP1 PUSH4 0x8BF55409 EQ PUSH2 0x3D9 JUMPI DUP1 PUSH4 0x8DA5CB5B EQ PUSH2 0x3EC JUMPI DUP1 PUSH4 0x95D89B41 EQ PUSH2 0x3FD JUMPI PUSH1 0x0 DUP1 REVERT JUMPDEST DUP1 PUSH4 0x715018A6 EQ PUSH2 0x379 JUMPI DUP1 PUSH4 0x79CC6790 EQ PUSH2 0x381 JUMPI DUP1 PUSH4 0x7C562A94 EQ PUSH2 0x394 JUMPI DUP1 PUSH4 0x7FFBE241 EQ PUSH2 0x3A7 JUMPI PUSH1 0x0 DUP1 REVERT JUMPDEST DUP1 PUSH4 0x313CE567 GT PUSH2 0x1A8 JUMPI DUP1 PUSH4 0x42966C68 GT PUSH2 0x177 JUMPI DUP1 PUSH4 0x42966C68 EQ PUSH2 0x314 JUMPI DUP1 PUSH4 0x45C952CB EQ PUSH2 0x327 JUMPI DUP1 PUSH4 0x5C975ABB EQ PUSH2 0x330 JUMPI DUP1 PUSH4 0x61D027B3 EQ PUSH2 0x33D JUMPI DUP1 PUSH4 0x70A08231 EQ PUSH2 0x350 JUMPI PUSH1 0x0 DUP1 REVERT JUMPDEST DUP1 PUSH4 0x313CE567 EQ PUSH2 0x2E2 JUMPI DUP1 PUSH4 0x3A03171C EQ PUSH2 0x2F1 JUMPI DUP1 PUSH4 0x3F4BA83A EQ PUSH2 0x303 JUMPI DUP1 PUSH4 0x4214E0AF EQ PUSH2 0x30B JUMPI PUSH1 0x0 DUP1 REVERT JUMPDEST DUP1 PUSH4 0x21D66353 GT PUSH2 0x1E4 JUMPI DUP1 PUSH4 0x21D66353 EQ PUSH2 0x294 JUMPI DUP1 PUSH4 0x23B872DD EQ PUSH2 0x2A9 JUMPI DUP1 PUSH4 0x296ED9F4 EQ PUSH2 0x2BC JUMPI DUP1 PUSH4 0x3028F63A EQ PUSH2 0x2CF JUMPI PUSH1 0x0 DUP1 REVERT JUMPDEST DUP1 PUSH4 0x6FDDE03 EQ PUSH2 0x216 JUMPI DUP1 PUSH4 0x95EA7B3 EQ PUSH2 0x234 JUMPI DUP1 PUSH4 0xC56AE3B EQ PUSH2 0x257 JUMPI DUP1 PUSH4 0x18160DDD EQ PUSH2 0x282 JUMPI JUMPDEST PUSH1 0x0 DUP1 REVERT JUMPDEST PUSH2 0x21E PUSH2 0x4C1 JUMP JUMPDEST PUSH1 0x40 MLOAD PUSH2 0x22B SWAP2 SWAP1 PUSH2 0x111F JUMP JUMPDEST PUSH1 0x40 MLOAD DUP1 SWAP2 SUB SWAP1 RETURN JUMPDEST PUSH2 0x247 PUSH2 0x242 CALLDATASIZE PUSH1 0x4 PUSH2 0x1189 JUMP JUMPDEST PUSH2 0x553 JUMP JUMPDEST PUSH1 0x40 MLOAD SWAP1 ISZERO ISZERO DUP2 MSTORE PUSH1 0x20 ADD PUSH2 0x22B JUMP JUMPDEST PUSH1 0x7 SLOAD PUSH2 0x26A SWAP1 PUSH1 0x1 PUSH1 0x1 PUSH1 0xA0 SHL SUB AND DUP2 JUMP JUMPDEST PUSH1 0x40 MLOAD PUSH1 0x1 PUSH1 0x1 PUSH1 0xA0 SHL SUB SWAP1 SWAP2 AND DUP2 MSTORE PUSH1 0x20 ADD PUSH2 0x22B JUMP JUMPDEST PUSH1 0x2 SLOAD JUMPDEST PUSH1 0x40 MLOAD SWAP1 DUP2 MSTORE PUSH1 0x20 ADD PUSH2 0x22B JUMP JUMPDEST PUSH2 0x2A7 PUSH2 0x2A2 CALLDATASIZE PUSH1 0x4 PUSH2 0x11B3 JUMP JUMPDEST PUSH2 0x56D JUMP JUMPDEST STOP JUMPDEST PUSH2 0x247 PUSH2 0x2B7 CALLDATASIZE PUSH1 0x4 PUSH2 0x11CC JUMP JUMPDEST PUSH2 0x5D7 JUMP JUMPDEST PUSH2 0x2A7 PUSH2 0x2CA CALLDATASIZE PUSH1 0x4 PUSH2 0x1189 JUMP JUMPDEST PUSH2 0x5FB JUMP JUMPDEST PUSH2 0x2A7 PUSH2 0x2DD CALLDATASIZE PUSH1 0x4 PUSH2 0x1208 JUMP JUMPDEST PUSH2 0x773 JUMP JUMPDEST PUSH1 0x40 MLOAD PUSH1 0x12 DUP2 MSTORE PUSH1 0x20 ADD PUSH2 0x22B JUMP JUMPDEST PUSH2 0x286 PUSH11 0x52B7D2DCC80CD2E4000000 DUP2 JUMP JUMPDEST PUSH2 0x2A7 PUSH2 0x836 JUMP JUMPDEST PUSH2 0x286 PUSH1 0x9 SLOAD DUP2 JUMP JUMPDEST PUSH2 0x2A7 PUSH2 0x322 CALLDATASIZE PUSH1 0x4 PUSH2 0x11B3 JUMP JUMPDEST PUSH2 0x875 JUMP JUMPDEST PUSH2 0x286 PUSH1 0xA SLOAD DUP2 JUMP JUMPDEST PUSH1 0xD SLOAD PUSH2 0x247 SWAP1 PUSH1 0xFF AND DUP2 JUMP JUMPDEST PUSH1 0x6 SLOAD PUSH2 0x26A SWAP1 PUSH1 0x1 PUSH1 0x1 PUSH1 0xA0 SHL SUB AND DUP2 JUMP JUMPDEST PUSH2 0x286 PUSH2 0x35E CALLDATASIZE PUSH1 0x4 PUSH2 0x1208 JUMP JUMPDEST PUSH1 0x1 PUSH1 0x1 PUSH1 0xA0 SHL SUB AND PUSH1 0x0 SWAP1 DUP2 MSTORE PUSH1 0x20 DUP2 SWAP1 MSTORE PUSH1 0x40 SWAP1 KECCAK256 SLOAD SWAP1 JUMP JUMPDEST PUSH2 0x2A7 PUSH2 0x882 JUMP JUMPDEST PUSH2 0x2A7 PUSH2 0x38F CALLDATASIZE PUSH1 0x4 PUSH2 0x1189 JUMP JUMPDEST PUSH2 0x896 JUMP JUMPDEST PUSH2 0x2A7 PUSH2 0x3A2 CALLDATASIZE PUSH1 0x4 PUSH2 0x1208 JUMP JUMPDEST PUSH2 0x8AB JUMP JUMPDEST PUSH2 0x247 PUSH2 0x3B5 CALLDATASIZE PUSH1 0x4 PUSH2 0x1208 JUMP JUMPDEST PUSH1 0xC PUSH1 0x20 MSTORE PUSH1 0x0 SWAP1 DUP2 MSTORE PUSH1 0x40 SWAP1 KECCAK256 SLOAD PUSH1 0xFF AND DUP2 JUMP JUMPDEST PUSH1 0x0 PUSH2 0x286 JUMP JUMPDEST PUSH2 0x2A7 PUSH2 0x96E JUMP JUMPDEST PUSH2 0x2A7 PUSH2 0x3E7 CALLDATASIZE PUSH1 0x4 PUSH2 0x11B3 JUMP JUMPDEST PUSH2 0x9B0 JUMP JUMPDEST PUSH1 0x5 SLOAD PUSH1 0x1 PUSH1 0x1 PUSH1 0xA0 SHL SUB AND PUSH2 0x26A JUMP JUMPDEST PUSH2 0x21E PUSH2 0x9F4 JUMP JUMPDEST PUSH2 0x2A7 PUSH2 0x413 CALLDATASIZE PUSH1 0x4 PUSH2 0x11B3 JUMP JUMPDEST PUSH2 0xA03 JUMP JUMPDEST PUSH2 0x247 PUSH2 0x426 CALLDATASIZE PUSH1 0x4 PUSH2 0x1189 JUMP JUMPDEST PUSH2 0xA40 JUMP JUMPDEST PUSH2 0x286 PUSH1 0xB SLOAD DUP2 JUMP JUMPDEST PUSH2 0x286 PUSH2 0xA4E JUMP JUMPDEST PUSH1 0x8 SLOAD PUSH2 0x26A SWAP1 PUSH1 0x1 PUSH1 0x1 PUSH1 0xA0 SHL SUB AND DUP2 JUMP JUMPDEST PUSH2 0x286 PUSH2 0x45D CALLDATASIZE PUSH1 0x4 PUSH2 0x122A JUMP JUMPDEST PUSH1 0x1 PUSH1 0x1 PUSH1 0xA0 SHL SUB SWAP2 DUP3 AND PUSH1 0x0 SWAP1 DUP2 MSTORE PUSH1 0x1 PUSH1 0x20 SWAP1 DUP2 MSTORE PUSH1 0x40 DUP1 DUP4 KECCAK256 SWAP4 SWAP1 SWAP5 AND DUP3 MSTORE SWAP2 SWAP1 SWAP2 MSTORE KECCAK256 SLOAD SWAP1 JUMP JUMPDEST PUSH2 0x2A7 PUSH2 0x496 CALLDATASIZE PUSH1 0x4 PUSH2 0x125D JUMP JUMPDEST PUSH2 0xA73 JUMP JUMPDEST PUSH2 0x2A7 PUSH2 0x4A9 CALLDATASIZE PUSH1 0x4 PUSH2 0x1208 JUMP JUMPDEST PUSH2 0xB01 JUMP JUMPDEST PUSH2 0x2A7 PUSH2 0x4BC CALLDATASIZE PUSH1 0x4 PUSH2 0x1208 JUMP JUMPDEST PUSH2 0xBC0 JUMP JUMPDEST PUSH1 0x60 PUSH1 0x3 DUP1 SLOAD PUSH2 0x4D0 SWAP1 PUSH2 0x1299 JUMP JUMPDEST DUP1 PUSH1 0x1F ADD PUSH1 0x20 DUP1 SWAP2 DIV MUL PUSH1 0x20 ADD PUSH1 0x40 MLOAD SWAP1 DUP2 ADD PUSH1 0x40 MSTORE DUP1 SWAP3 SWAP2 SWAP1 DUP2 DUP2 MSTORE PUSH1 0x20 ADD DUP3 DUP1 SLOAD PUSH2 0x4FC SWAP1 PUSH2 0x1299 JUMP JUMPDEST DUP1 ISZERO PUSH2 0x549 JUMPI DUP1 PUSH1 0x1F LT PUSH2 0x51E JUMPI PUSH2 0x100 DUP1 DUP4 SLOAD DIV MUL DUP4 MSTORE SWAP2 PUSH1 0x20 ADD SWAP2 PUSH2 0x549 JUMP JUMPDEST DUP3 ADD SWAP2 SWAP1 PUSH1 0x0 MSTORE PUSH1 0x20 PUSH1 0x0 KECCAK256 SWAP1 JUMPDEST DUP2 SLOAD DUP2 MSTORE SWAP1 PUSH1 0x1 ADD SWAP1 PUSH1 0x20 ADD DUP1 DUP4 GT PUSH2 0x52C JUMPI DUP3 SWAP1 SUB PUSH1 0x1F AND DUP3 ADD SWAP2 JUMPDEST POP POP POP POP POP SWAP1 POP SWAP1 JUMP JUMPDEST PUSH1 0x0 CALLER PUSH2 0x561 DUP2 DUP6 DUP6 PUSH2 0xBFB JUMP JUMPDEST PUSH1 0x1 SWAP2 POP POP JUMPDEST SWAP3 SWAP2 POP POP JUMP JUMPDEST PUSH2 0x575 PUSH2 0xC0D JUMP JUMPDEST DUP1 PUSH1 0x0 SUB PUSH2 0x596 JUMPI PUSH1 0x40 MLOAD PUSH4 0x1F2A2005 PUSH1 0xE0 SHL DUP2 MSTORE PUSH1 0x4 ADD PUSH1 0x40 MLOAD DUP1 SWAP2 SUB SWAP1 REVERT JUMPDEST PUSH1 0xA SLOAD PUSH1 0x40 DUP1 MLOAD SWAP2 DUP3 MSTORE PUSH1 0x20 DUP3 ADD DUP4 SWAP1 MSTORE PUSH32 0x5299E127AC8BDC64FD0E551DD406BA1E1FBAEBC96D458CE9B1A5E69CAECDF376 SWAP2 ADD PUSH1 0x40 MLOAD DUP1 SWAP2 SUB SWAP1 LOG1 PUSH1 0xA SSTORE JUMP JUMPDEST PUSH1 0x0 CALLER PUSH2 0x5E5 DUP6 DUP3 DUP6 PUSH2 0xC3A JUMP JUMPDEST PUSH2 0x5F0 DUP6 DUP6 DUP6 PUSH2 0xCB9 JUMP JUMPDEST POP PUSH1 0x1 SWAP5 SWAP4 POP POP POP POP JUMP JUMPDEST PUSH2 0x603 PUSH2 0xD18 JUMP JUMPDEST PUSH1 0x7 SLOAD PUSH1 0x1 PUSH1 0x1 PUSH1 0xA0 SHL SUB AND CALLER EQ DUP1 ISZERO SWAP1 PUSH2 0x629 JUMPI POP PUSH1 0x8 SLOAD PUSH1 0x1 PUSH1 0x1 PUSH1 0xA0 SHL SUB AND CALLER EQ ISZERO JUMPDEST DUP1 ISZERO PUSH2 0x640 JUMPI POP PUSH1 0x5 SLOAD PUSH1 0x1 PUSH1 0x1 PUSH1 0xA0 SHL SUB AND CALLER EQ ISZERO JUMPDEST ISZERO PUSH2 0x65E JUMPI PUSH1 0x40 MLOAD PUSH4 0x19A5D1D PUSH1 0xE7 SHL DUP2 MSTORE PUSH1 0x4 ADD PUSH1 0x40 MLOAD DUP1 SWAP2 SUB SWAP1 REVERT JUMPDEST PUSH1 0x1 PUSH1 0x1 PUSH1 0xA0 SHL SUB DUP3 AND PUSH2 0x685 JUMPI PUSH1 0x40 MLOAD PUSH4 0xD92E233D PUSH1 0xE0 SHL DUP2 MSTORE PUSH1 0x4 ADD PUSH1 0x40 MLOAD DUP1 SWAP2 SUB SWAP1 REVERT JUMPDEST DUP1 PUSH1 0x0 SUB PUSH2 0x6A6 JUMPI PUSH1 0x40 MLOAD PUSH4 0x1F2A2005 PUSH1 0xE0 SHL DUP2 MSTORE PUSH1 0x4 ADD PUSH1 0x40 MLOAD DUP1 SWAP2 SUB SWAP1 REVERT JUMPDEST PUSH1 0x0 PUSH2 0x6B1 PUSH1 0x2 SLOAD SWAP1 JUMP JUMPDEST PUSH2 0x6C6 SWAP1 PUSH11 0x52B7D2DCC80CD2E4000000 PUSH2 0x12E9 JUMP JUMPDEST SWAP1 POP DUP1 DUP3 GT ISZERO PUSH2 0x6F8 JUMPI PUSH1 0x40 MLOAD PUSH4 0x3999A0B7 PUSH1 0xE1 SHL DUP2 MSTORE PUSH1 0x4 DUP2 ADD DUP4 SWAP1 MSTORE PUSH1 0x24 DUP2 ADD DUP3 SWAP1 MSTORE PUSH1 0x44 ADD JUMPDEST PUSH1 0x40 MLOAD DUP1 SWAP2 SUB SWAP1 REVERT JUMPDEST PUSH2 0x702 DUP4 DUP4 PUSH2 0xD46 JUMP JUMPDEST DUP3 PUSH1 0x1 PUSH1 0x1 PUSH1 0xA0 SHL SUB AND PUSH32 0x64E4BB1BD66F16486C6FF3BF1E7EE4919E2E2DC7B134E2ED9FBD814A9949FE6B DUP4 PUSH1 0x40 MLOAD PUSH2 0x73D SWAP2 DUP2 MSTORE PUSH1 0x20 ADD SWAP1 JUMP JUMPDEST PUSH1 0x40 MLOAD DUP1 SWAP2 SUB SWAP1 LOG2 POP PUSH2 0x76F PUSH1 0x1 PUSH32 0x9B779B17422D0DF92223018B32B4D1FA46E071723D6817E2486D003BECC55F00 SSTORE JUMP JUMPDEST POP POP JUMP JUMPDEST PUSH2 0x77B PUSH2 0xC0D JUMP JUMPDEST PUSH1 0x1 PUSH1 0x1 PUSH1 0xA0 SHL SUB DUP2 AND PUSH2 0x7A2 JUMPI PUSH1 0x40 MLOAD PUSH4 0xD92E233D PUSH1 0xE0 SHL DUP2 MSTORE PUSH1 0x4 ADD PUSH1 0x40 MLOAD DUP1 SWAP2 SUB SWAP1 REVERT JUMPDEST PUSH1 0x7 SLOAD PUSH1 0x1 PUSH1 0x1 PUSH1 0xA0 SHL SUB AND ISZERO PUSH2 0x7D6 JUMPI PUSH1 0x7 SLOAD PUSH1 0x1 PUSH1 0x1 PUSH1 0xA0 SHL SUB AND PUSH1 0x0 SWAP1 DUP2 MSTORE PUSH1 0xC PUSH1 0x20 MSTORE PUSH1 0x40 SWAP1 KECCAK256 DUP1 SLOAD PUSH1 0xFF NOT AND SWAP1 SSTORE JUMPDEST PUSH1 0x7 DUP1 SLOAD PUSH1 0x1 PUSH1 0x1 PUSH1 0xA0 SHL SUB NOT AND PUSH1 0x1 PUSH1 0x1 PUSH1 0xA0 SHL SUB DUP4 AND SWAP1 DUP2 OR SWAP1 SWAP2 SSTORE PUSH1 0x0 DUP2 DUP2 MSTORE PUSH1 0xC PUSH1 0x20 MSTORE PUSH1 0x40 DUP1 DUP3 KECCAK256 DUP1 SLOAD PUSH1 0xFF NOT AND PUSH1 0x1 OR SWAP1 SSTORE MLOAD PUSH32 0x6FCA2E06BB34845F84427E65445730E7E00FAF72AD37F6485B24DE98F103BB06 SWAP2 SWAP1 LOG2 POP JUMP JUMPDEST PUSH2 0x83E PUSH2 0xC0D JUMP JUMPDEST PUSH1 0xD DUP1 SLOAD PUSH1 0xFF NOT AND SWAP1 SSTORE PUSH1 0x40 MLOAD CALLER SWAP1 PUSH32 0x5DB9EE0A495BF2E6FF9C91A7834C1BA4FDD244A5E8AA4E537BD38AEAE4B073AA SWAP1 PUSH1 0x0 SWAP1 LOG2 JUMP JUMPDEST PUSH2 0x87F CALLER DUP3 PUSH2 0xD7C JUMP JUMPDEST POP JUMP JUMPDEST PUSH2 0x88A PUSH2 0xC0D JUMP JUMPDEST PUSH2 0x894 PUSH1 0x0 PUSH2 0xDB2 JUMP JUMPDEST JUMP JUMPDEST PUSH2 0x8A1 DUP3 CALLER DUP4 PUSH2 0xC3A JUMP JUMPDEST PUSH2 0x76F DUP3 DUP3 PUSH2 0xD7C JUMP JUMPDEST PUSH2 0x8B3 PUSH2 0xC0D JUMP JUMPDEST PUSH1 0x1 PUSH1 0x1 PUSH1 0xA0 SHL SUB DUP2 AND PUSH2 0x8DA JUMPI PUSH1 0x40 MLOAD PUSH4 0xD92E233D PUSH1 0xE0 SHL DUP2 MSTORE PUSH1 0x4 ADD PUSH1 0x40 MLOAD DUP1 SWAP2 SUB SWAP1 REVERT JUMPDEST PUSH1 0x8 SLOAD PUSH1 0x1 PUSH1 0x1 PUSH1 0xA0 SHL SUB AND ISZERO PUSH2 0x90E JUMPI PUSH1 0x8 SLOAD PUSH1 0x1 PUSH1 0x1 PUSH1 0xA0 SHL SUB AND PUSH1 0x0 SWAP1 DUP2 MSTORE PUSH1 0xC PUSH1 0x20 MSTORE PUSH1 0x40 SWAP1 KECCAK256 DUP1 SLOAD PUSH1 0xFF NOT AND SWAP1 SSTORE JUMPDEST PUSH1 0x8 DUP1 SLOAD PUSH1 0x1 PUSH1 0x1 PUSH1 0xA0 SHL SUB NOT AND PUSH1 0x1 PUSH1 0x1 PUSH1 0xA0 SHL SUB DUP4 AND SWAP1 DUP2 OR SWAP1 SWAP2 SSTORE PUSH1 0x0 DUP2 DUP2 MSTORE PUSH1 0xC PUSH1 0x20 MSTORE PUSH1 0x40 DUP1 DUP3 KECCAK256 DUP1 SLOAD PUSH1 0xFF NOT AND PUSH1 0x1 OR SWAP1 SSTORE MLOAD PUSH32 0x984594D51CB2B9061C64322CC955DC1CF1E8BF0F73512BA8221E4DB196BE16A SWAP2 SWAP1 LOG2 POP JUMP JUMPDEST PUSH2 0x976 PUSH2 0xC0D JUMP JUMPDEST PUSH1 0xD DUP1 SLOAD PUSH1 0xFF NOT AND PUSH1 0x1 OR SWAP1 SSTORE PUSH1 0x40 MLOAD CALLER SWAP1 PUSH32 0x62E78CEA01BEE320CD4E420270B5EA74000D11B0C9F74754EBDBFC544B05A258 SWAP1 PUSH1 0x0 SWAP1 LOG2 JUMP JUMPDEST PUSH2 0x9B8 PUSH2 0xC0D JUMP JUMPDEST PUSH1 0xB DUP2 SWAP1 SSTORE PUSH1 0x40 MLOAD DUP2 DUP2 MSTORE PUSH32 0xD82D7466DBFB0B68291841D1ADF74DF365A848CD534D11E8C6B238EC9FB5EBE6 SWAP1 PUSH1 0x20 ADD JUMPDEST PUSH1 0x40 MLOAD DUP1 SWAP2 SUB SWAP1 LOG1 POP JUMP JUMPDEST PUSH1 0x60 PUSH1 0x4 DUP1 SLOAD PUSH2 0x4D0 SWAP1 PUSH2 0x1299 JUMP JUMPDEST PUSH2 0xA0B PUSH2 0xC0D JUMP JUMPDEST PUSH1 0x9 DUP2 SWAP1 SSTORE PUSH1 0x40 MLOAD DUP2 DUP2 MSTORE PUSH32 0x10A8B7CB1FAAB491ACF8E175333E56C4BF4AD24AE1927DC38925AC085085F71 SWAP1 PUSH1 0x20 ADD PUSH2 0x9E9 JUMP JUMPDEST PUSH1 0x0 CALLER PUSH2 0x561 DUP2 DUP6 DUP6 PUSH2 0xCB9 JUMP JUMPDEST PUSH1 0x0 PUSH2 0xA59 PUSH1 0x2 SLOAD SWAP1 JUMP JUMPDEST PUSH2 0xA6E SWAP1 PUSH11 0x52B7D2DCC80CD2E4000000 PUSH2 0x12E9 JUMP JUMPDEST SWAP1 POP SWAP1 JUMP JUMPDEST PUSH2 0xA7B PUSH2 0xC0D JUMP JUMPDEST PUSH1 0x1 PUSH1 0x1 PUSH1 0xA0 SHL SUB DUP3 AND PUSH2 0xAA2 JUMPI PUSH1 0x40 MLOAD PUSH4 0xD92E233D PUSH1 0xE0 SHL DUP2 MSTORE PUSH1 0x4 ADD PUSH1 0x40 MLOAD DUP1 SWAP2 SUB SWAP1 REVERT JUMPDEST PUSH1 0x1 PUSH1 0x1 PUSH1 0xA0 SHL SUB DUP3 AND PUSH1 0x0 DUP2 DUP2 MSTORE PUSH1 0xC PUSH1 0x20 SWAP1 DUP2 MSTORE PUSH1 0x40 SWAP2 DUP3 SWAP1 KECCAK256 DUP1 SLOAD PUSH1 0xFF NOT AND DUP6 ISZERO ISZERO SWAP1 DUP2 OR SWAP1 SWAP2 SSTORE SWAP2 MLOAD SWAP2 DUP3 MSTORE PUSH32 0xE3B4918D2544570F4FD920CE69294772100C0D60360C88D94C56FADBBEF76CB1 SWAP2 ADD PUSH1 0x40 MLOAD DUP1 SWAP2 SUB SWAP1 LOG2 POP POP JUMP JUMPDEST PUSH2 0xB09 PUSH2 0xC0D JUMP JUMPDEST PUSH1 0x1 PUSH1 0x1 PUSH1 0xA0 SHL SUB DUP2 AND PUSH2 0xB30 JUMPI PUSH1 0x40 MLOAD PUSH4 0xD92E233D PUSH1 0xE0 SHL DUP2 MSTORE PUSH1 0x4 ADD PUSH1 0x40 MLOAD DUP1 SWAP2 SUB SWAP1 REVERT JUMPDEST PUSH1 0x6 DUP1 SLOAD PUSH1 0x1 PUSH1 0x1 PUSH1 0xA0 SHL SUB SWAP1 DUP2 AND PUSH1 0x0 SWAP1 DUP2 MSTORE PUSH1 0xC PUSH1 0x20 MSTORE PUSH1 0x40 DUP1 DUP3 KECCAK256 DUP1 SLOAD PUSH1 0xFF NOT AND SWAP1 SSTORE SWAP3 SLOAD SWAP3 MLOAD DUP5 DUP4 AND SWAP4 SWAP1 SWAP3 AND SWAP2 PUSH32 0x4AB5BE82436D353E61CA18726E984E561F5C1CC7C6D38B29D2553C790434705A SWAP2 SWAP1 LOG3 PUSH1 0x6 DUP1 SLOAD PUSH1 0x1 PUSH1 0x1 PUSH1 0xA0 SHL SUB SWAP1 SWAP3 AND PUSH1 0x1 PUSH1 0x1 PUSH1 0xA0 SHL SUB NOT SWAP1 SWAP3 AND DUP3 OR SWAP1 SSTORE PUSH1 0x0 SWAP1 DUP2 MSTORE PUSH1 0xC PUSH1 0x20 MSTORE PUSH1 0x40 SWAP1 KECCAK256 DUP1 SLOAD PUSH1 0xFF NOT AND PUSH1 0x1 OR SWAP1 SSTORE JUMP JUMPDEST PUSH2 0xBC8 PUSH2 0xC0D JUMP JUMPDEST PUSH1 0x1 PUSH1 0x1 PUSH1 0xA0 SHL SUB DUP2 AND PUSH2 0xBF2 JUMPI PUSH1 0x40 MLOAD PUSH4 0x1E4FBDF7 PUSH1 0xE0 SHL DUP2 MSTORE PUSH1 0x0 PUSH1 0x4 DUP3 ADD MSTORE PUSH1 0x24 ADD PUSH2 0x6EF JUMP JUMPDEST PUSH2 0x87F DUP2 PUSH2 0xDB2 JUMP JUMPDEST PUSH2 0xC08 DUP4 DUP4 DUP4 PUSH1 0x1 PUSH2 0xE04 JUMP JUMPDEST POP POP POP JUMP JUMPDEST PUSH1 0x5 SLOAD PUSH1 0x1 PUSH1 0x1 PUSH1 0xA0 SHL SUB AND CALLER EQ PUSH2 0x894 JUMPI PUSH1 0x40 MLOAD PUSH4 0x118CDAA7 PUSH1 0xE0 SHL DUP2 MSTORE CALLER PUSH1 0x4 DUP3 ADD MSTORE PUSH1 0x24 ADD PUSH2 0x6EF JUMP JUMPDEST PUSH1 0x1 PUSH1 0x1 PUSH1 0xA0 SHL SUB DUP4 DUP2 AND PUSH1 0x0 SWAP1 DUP2 MSTORE PUSH1 0x1 PUSH1 0x20 SWAP1 DUP2 MSTORE PUSH1 0x40 DUP1 DUP4 KECCAK256 SWAP4 DUP7 AND DUP4 MSTORE SWAP3 SWAP1 MSTORE KECCAK256 SLOAD PUSH1 0x0 NOT DUP2 LT ISZERO PUSH2 0xCB3 JUMPI DUP2 DUP2 LT ISZERO PUSH2 0xCA4 JUMPI PUSH1 0x40 MLOAD PUSH4 0x7DC7A0D9 PUSH1 0xE1 SHL DUP2 MSTORE PUSH1 0x1 PUSH1 0x1 PUSH1 0xA0 SHL SUB DUP5 AND PUSH1 0x4 DUP3 ADD MSTORE PUSH1 0x24 DUP2 ADD DUP3 SWAP1 MSTORE PUSH1 0x44 DUP2 ADD DUP4 SWAP1 MSTORE PUSH1 0x64 ADD PUSH2 0x6EF JUMP JUMPDEST PUSH2 0xCB3 DUP5 DUP5 DUP5 DUP5 SUB PUSH1 0x0 PUSH2 0xE04 JUMP JUMPDEST POP POP POP POP JUMP JUMPDEST PUSH1 0x1 PUSH1 0x1 PUSH1 0xA0 SHL SUB DUP4 AND PUSH2 0xCE3 JUMPI PUSH1 0x40 MLOAD PUSH4 0x4B637E8F PUSH1 0xE1 SHL DUP2 MSTORE PUSH1 0x0 PUSH1 0x4 DUP3 ADD MSTORE PUSH1 0x24 ADD PUSH2 0x6EF JUMP JUMPDEST PUSH1 0x1 PUSH1 0x1 PUSH1 0xA0 SHL SUB DUP3 AND PUSH2 0xD0D JUMPI PUSH1 0x40 MLOAD PUSH4 0xEC442F05 PUSH1 0xE0 SHL DUP2 MSTORE PUSH1 0x0 PUSH1 0x4 DUP3 ADD MSTORE PUSH1 0x24 ADD PUSH2 0x6EF JUMP JUMPDEST PUSH2 0xC08 DUP4 DUP4 DUP4 PUSH2 0xED9 JUMP JUMPDEST PUSH2 0xD20 PUSH2 0xFB3 JUMP JUMPDEST PUSH1 0x2 PUSH32 0x9B779B17422D0DF92223018B32B4D1FA46E071723D6817E2486D003BECC55F00 SSTORE JUMP JUMPDEST PUSH1 0x1 PUSH1 0x1 PUSH1 0xA0 SHL SUB DUP3 AND PUSH2 0xD70 JUMPI PUSH1 0x40 MLOAD PUSH4 0xEC442F05 PUSH1 0xE0 SHL DUP2 MSTORE PUSH1 0x0 PUSH1 0x4 DUP3 ADD MSTORE PUSH1 0x24 ADD PUSH2 0x6EF JUMP JUMPDEST PUSH2 0x76F PUSH1 0x0 DUP4 DUP4 PUSH2 0xED9 JUMP JUMPDEST PUSH1 0x1 PUSH1 0x1 PUSH1 0xA0 SHL SUB DUP3 AND PUSH2 0xDA6 JUMPI PUSH1 0x40 MLOAD PUSH4 0x4B637E8F PUSH1 0xE1 SHL DUP2 MSTORE PUSH1 0x0 PUSH1 0x4 DUP3 ADD MSTORE PUSH1 0x24 ADD PUSH2 0x6EF JUMP JUMPDEST PUSH2 0x76F DUP3 PUSH1 0x0 DUP4 PUSH2 0xED9 JUMP JUMPDEST PUSH1 0x5 DUP1 SLOAD PUSH1 0x1 PUSH1 0x1 PUSH1 0xA0 SHL SUB DUP4 DUP2 AND PUSH1 0x1 PUSH1 0x1 PUSH1 0xA0 SHL SUB NOT DUP4 AND DUP2 OR SWAP1 SWAP4 SSTORE PUSH1 0x40 MLOAD SWAP2 AND SWAP2 SWAP1 DUP3 SWAP1 PUSH32 0x8BE0079C531659141344CD1FD0A4F28419497F9722A3DAAFE3B4186F6B6457E0 SWAP1 PUSH1 0x0 SWAP1 LOG3 POP POP JUMP JUMPDEST PUSH1 0x1 PUSH1 0x1 PUSH1 0xA0 SHL SUB DUP5 AND PUSH2 0xE2E JUMPI PUSH1 0x40 MLOAD PUSH4 0xE602DF05 PUSH1 0xE0 SHL DUP2 MSTORE PUSH1 0x0 PUSH1 0x4 DUP3 ADD MSTORE PUSH1 0x24 ADD PUSH2 0x6EF JUMP JUMPDEST PUSH1 0x1 PUSH1 0x1 PUSH1 0xA0 SHL SUB DUP4 AND PUSH2 0xE58 JUMPI PUSH1 0x40 MLOAD PUSH4 0x4A1406B1 PUSH1 0xE1 SHL DUP2 MSTORE PUSH1 0x0 PUSH1 0x4 DUP3 ADD MSTORE PUSH1 0x24 ADD PUSH2 0x6EF JUMP JUMPDEST PUSH1 0x1 PUSH1 0x1 PUSH1 0xA0 SHL SUB DUP1 DUP6 AND PUSH1 0x0 SWAP1 DUP2 MSTORE PUSH1 0x1 PUSH1 0x20 SWAP1 DUP2 MSTORE PUSH1 0x40 DUP1 DUP4 KECCAK256 SWAP4 DUP8 AND DUP4 MSTORE SWAP3 SWAP1 MSTORE KECCAK256 DUP3 SWAP1 SSTORE DUP1 ISZERO PUSH2 0xCB3 JUMPI DUP3 PUSH1 0x1 PUSH1 0x1 PUSH1 0xA0 SHL SUB AND DUP5 PUSH1 0x1 PUSH1 0x1 PUSH1 0xA0 SHL SUB AND PUSH32 0x8C5BE1E5EBEC7D5BD14F71427D1E84F3DD0314C0F7B2291E5B200AC8C7C3B925 DUP5 PUSH1 0x40 MLOAD PUSH2 0xECB SWAP2 DUP2 MSTORE PUSH1 0x20 ADD SWAP1 JUMP JUMPDEST PUSH1 0x40 MLOAD DUP1 SWAP2 SUB SWAP1 LOG3 POP POP POP POP JUMP JUMPDEST PUSH1 0xD SLOAD PUSH1 0xFF AND ISZERO PUSH2 0xEFD JUMPI PUSH1 0x40 MLOAD PUSH4 0xCD1FDA9F PUSH1 0xE0 SHL DUP2 MSTORE PUSH1 0x4 ADD PUSH1 0x40 MLOAD DUP1 SWAP2 SUB SWAP1 REVERT JUMPDEST PUSH1 0x1 PUSH1 0x1 PUSH1 0xA0 SHL SUB DUP4 AND ISZERO DUP1 ISZERO SWAP1 PUSH2 0xF1D JUMPI POP PUSH1 0x1 PUSH1 0x1 PUSH1 0xA0 SHL SUB DUP3 AND ISZERO ISZERO JUMPDEST ISZERO PUSH2 0xFA8 JUMPI PUSH1 0x0 PUSH1 0xB SLOAD GT DUP1 ISZERO PUSH2 0xF4D JUMPI POP PUSH1 0x1 PUSH1 0x1 PUSH1 0xA0 SHL SUB DUP4 AND PUSH1 0x0 SWAP1 DUP2 MSTORE PUSH1 0xC PUSH1 0x20 MSTORE PUSH1 0x40 SWAP1 KECCAK256 SLOAD PUSH1 0xFF AND ISZERO JUMPDEST DUP1 ISZERO PUSH2 0xF72 JUMPI POP PUSH1 0x1 PUSH1 0x1 PUSH1 0xA0 SHL SUB DUP3 AND PUSH1 0x0 SWAP1 DUP2 MSTORE PUSH1 0xC PUSH1 0x20 MSTORE PUSH1 0x40 SWAP1 KECCAK256 SLOAD PUSH1 0xFF AND ISZERO JUMPDEST ISZERO PUSH2 0xFA8 JUMPI PUSH1 0xB SLOAD DUP2 GT ISZERO PUSH2 0xFA8 JUMPI PUSH1 0xB SLOAD PUSH1 0x40 MLOAD PUSH4 0x40897271 PUSH1 0xE1 SHL DUP2 MSTORE PUSH2 0x6EF SWAP2 DUP4 SWAP2 PUSH1 0x4 ADD SWAP2 DUP3 MSTORE PUSH1 0x20 DUP3 ADD MSTORE PUSH1 0x40 ADD SWAP1 JUMP JUMPDEST PUSH2 0xC08 DUP4 DUP4 DUP4 PUSH2 0xFF5 JUMP JUMPDEST PUSH32 0x9B779B17422D0DF92223018B32B4D1FA46E071723D6817E2486D003BECC55F00 SLOAD PUSH1 0x2 SUB PUSH2 0x894 JUMPI PUSH1 0x40 MLOAD PUSH4 0x3EE5AEB5 PUSH1 0xE0 SHL DUP2 MSTORE PUSH1 0x4 ADD PUSH1 0x40 MLOAD DUP1 SWAP2 SUB SWAP1 REVERT JUMPDEST PUSH1 0x1 PUSH1 0x1 PUSH1 0xA0 SHL SUB DUP4 AND PUSH2 0x1020 JUMPI DUP1 PUSH1 0x2 PUSH1 0x0 DUP3 DUP3 SLOAD PUSH2 0x1015 SWAP2 SWAP1 PUSH2 0x12FC JUMP JUMPDEST SWAP1 SWAP2 SSTORE POP PUSH2 0x1092 SWAP1 POP JUMP JUMPDEST PUSH1 0x1 PUSH1 0x1 PUSH1 0xA0 SHL SUB DUP4 AND PUSH1 0x0 SWAP1 DUP2 MSTORE PUSH1 0x20 DUP2 SWAP1 MSTORE PUSH1 0x40 SWAP1 KECCAK256 SLOAD DUP2 DUP2 LT ISZERO PUSH2 0x1073 JUMPI PUSH1 0x40 MLOAD PUSH4 0x391434E3 PUSH1 0xE2 SHL DUP2 MSTORE PUSH1 0x1 PUSH1 0x1 PUSH1 0xA0 SHL SUB DUP6 AND PUSH1 0x4 DUP3 ADD MSTORE PUSH1 0x24 DUP2 ADD DUP3 SWAP1 MSTORE PUSH1 0x44 DUP2 ADD DUP4 SWAP1 MSTORE PUSH1 0x64 ADD PUSH2 0x6EF JUMP JUMPDEST PUSH1 0x1 PUSH1 0x1 PUSH1 0xA0 SHL SUB DUP5 AND PUSH1 0x0 SWAP1 DUP2 MSTORE PUSH1 0x20 DUP2 SWAP1 MSTORE PUSH1 0x40 SWAP1 KECCAK256 SWAP1 DUP3 SWAP1 SUB SWAP1 SSTORE JUMPDEST PUSH1 0x1 PUSH1 0x1 PUSH1 0xA0 SHL SUB DUP3 AND PUSH2 0x10AE JUMPI PUSH1 0x2 DUP1 SLOAD DUP3 SWAP1 SUB SWAP1 SSTORE PUSH2 0x10CD JUMP JUMPDEST PUSH1 0x1 PUSH1 0x1 PUSH1 0xA0 SHL SUB DUP3 AND PUSH1 0x0 SWAP1 DUP2 MSTORE PUSH1 0x20 DUP2 SWAP1 MSTORE PUSH1 0x40 SWAP1 KECCAK256 DUP1 SLOAD DUP3 ADD SWAP1 SSTORE JUMPDEST DUP2 PUSH1 0x1 PUSH1 0x1 PUSH1 0xA0 SHL SUB AND DUP4 PUSH1 0x1 PUSH1 0x1 PUSH1 0xA0 SHL SUB AND PUSH32 0xDDF252AD1BE2C89B69C2B068FC378DAA952BA7F163C4A11628F55A4DF523B3EF DUP4 PUSH1 0x40 MLOAD PUSH2 0x1112 SWAP2 DUP2 MSTORE PUSH1 0x20 ADD SWAP1 JUMP JUMPDEST PUSH1 0x40 MLOAD DUP1 SWAP2 SUB SWAP1 LOG3 POP POP POP JUMP JUMPDEST PUSH1 0x0 PUSH1 0x20 DUP1 DUP4 MSTORE DUP4 MLOAD DUP1 DUP3 DUP6 ADD MSTORE PUSH1 0x0 JUMPDEST DUP2 DUP2 LT ISZERO PUSH2 0x114C JUMPI DUP6 DUP2 ADD DUP4 ADD MLOAD DUP6 DUP3 ADD PUSH1 0x40 ADD MSTORE DUP3 ADD PUSH2 0x1130 JUMP JUMPDEST POP PUSH1 0x0 PUSH1 0x40 DUP3 DUP7 ADD ADD MSTORE PUSH1 0x40 PUSH1 0x1F NOT PUSH1 0x1F DUP4 ADD AND DUP6 ADD ADD SWAP3 POP POP POP SWAP3 SWAP2 POP POP JUMP JUMPDEST DUP1 CALLDATALOAD PUSH1 0x1 PUSH1 0x1 PUSH1 0xA0 SHL SUB DUP2 AND DUP2 EQ PUSH2 0x1184 JUMPI PUSH1 0x0 DUP1 REVERT JUMPDEST SWAP2 SWAP1 POP JUMP JUMPDEST PUSH1 0x0 DUP1 PUSH1 0x40 DUP4 DUP6 SUB SLT ISZERO PUSH2 0x119C JUMPI PUSH1 0x0 DUP1 REVERT JUMPDEST PUSH2 0x11A5 DUP4 PUSH2 0x116D JUMP JUMPDEST SWAP5 PUSH1 0x20 SWAP4 SWAP1 SWAP4 ADD CALLDATALOAD SWAP4 POP POP POP JUMP JUMPDEST PUSH1 0x0 PUSH1 0x20 DUP3 DUP5 SUB SLT ISZERO PUSH2 0x11C5 JUMPI PUSH1 0x0 DUP1 REVERT JUMPDEST POP CALLDATALOAD SWAP2 SWAP1 POP JUMP JUMPDEST PUSH1 0x0 DUP1 PUSH1 0x0 PUSH1 0x60 DUP5 DUP7 SUB SLT ISZERO PUSH2 0x11E1 JUMPI PUSH1 0x0 DUP1 REVERT JUMPDEST PUSH2 0x11EA DUP5 PUSH2 0x116D JUMP JUMPDEST SWAP3 POP PUSH2 0x11F8 PUSH1 0x20 DUP6 ADD PUSH2 0x116D JUMP JUMPDEST SWAP2 POP PUSH1 0x40 DUP5 ADD CALLDATALOAD SWAP1 POP SWAP3 POP SWAP3 POP SWAP3 JUMP JUMPDEST PUSH1 0x0 PUSH1 0x20 DUP3 DUP5 SUB SLT ISZERO PUSH2 0x121A JUMPI PUSH1 0x0 DUP1 REVERT JUMPDEST PUSH2 0x1223 DUP3 PUSH2 0x116D JUMP JUMPDEST SWAP4 SWAP3 POP POP POP JUMP JUMPDEST PUSH1 0x0 DUP1 PUSH1 0x40 DUP4 DUP6 SUB SLT ISZERO PUSH2 0x123D JUMPI PUSH1 0x0 DUP1 REVERT JUMPDEST PUSH2 0x1246 DUP4 PUSH2 0x116D JUMP JUMPDEST SWAP2 POP PUSH2 0x1254 PUSH1 0x20 DUP5 ADD PUSH2 0x116D JUMP JUMPDEST SWAP1 POP SWAP3 POP SWAP3 SWAP1 POP JUMP JUMPDEST PUSH1 0x0 DUP1 PUSH1 0x40 DUP4 DUP6 SUB SLT ISZERO PUSH2 0x1270 JUMPI PUSH1 0x0 DUP1 REVERT JUMPDEST PUSH2 0x1279 DUP4 PUSH2 0x116D JUMP JUMPDEST SWAP2 POP PUSH1 0x20 DUP4 ADD CALLDATALOAD DUP1 ISZERO ISZERO DUP2 EQ PUSH2 0x128E JUMPI PUSH1 0x0 DUP1 REVERT JUMPDEST DUP1 SWAP2 POP POP SWAP3 POP SWAP3 SWAP1 POP JUMP JUMPDEST PUSH1 0x1 DUP2 DUP2 SHR SWAP1 DUP3 AND DUP1 PUSH2 0x12AD JUMPI PUSH1 0x7F DUP3 AND SWAP2 POP JUMPDEST PUSH1 0x20 DUP3 LT DUP2 SUB PUSH2 0x12CD JUMPI PUSH4 0x4E487B71 PUSH1 0xE0 SHL PUSH1 0x0 MSTORE PUSH1 0x22 PUSH1 0x4 MSTORE PUSH1 0x24 PUSH1 0x0 REVERT JUMPDEST POP SWAP2 SWAP1 POP JUMP JUMPDEST PUSH4 0x4E487B71 PUSH1 0xE0 SHL PUSH1 0x0 MSTORE PUSH1 0x11 PUSH1 0x4 MSTORE PUSH1 0x24 PUSH1 0x0 REVERT JUMPDEST DUP2 DUP2 SUB DUP2 DUP2 GT ISZERO PUSH2 0x567 JUMPI PUSH2 0x567 PUSH2 0x12D3 JUMP JUMPDEST DUP1 DUP3 ADD DUP1 DUP3 GT ISZERO PUSH2 0x567 JUMPI PUSH2 0x567 PUSH2 0x12D3 JUMP INVALID LOG2 PUSH5 0x6970667358 0x22 SLT KECCAK256 0xB3 0xA9 PUSH18 0x59A0DA77D5E9473F40E824FCA2FB611A044C 0xCC NUMBER 0xED 0x5C 0x4B BLOCKHASH LOG0 EXTCODEHASH EXTCODECOPY SWAP14 0xBB PUSH5 0x736F6C6343 STOP ADDMOD EQ STOP CALLER "
		},
		"gasEstimates": {
			"creation": {
				"codeDepositCost": "986600",
				"executionCost": "infinite",
				"totalCost": "infinite"
			},
			"external": {
				"HARD_CAP()": "263",
				"allowance(address,address)": "infinite",
				"approve(address,uint256)": "24785",
				"balanceOf(address)": "2673",
				"burn(uint256)": "61887",
				"burnFrom(address,uint256)": "infinite",
				"decimals()": "223",
				"emissionRatePerDay()": "2407",
				"entryCostETH()": "237",
				"entryCostTIMBS()": "2362",
				"farmPool()": "2381",
				"maxTransferAmount()": "2384",
				"mintEmissions(address,uint256)": "infinite",
				"name()": "infinite",
				"owner()": "2442",
				"pause()": "27747",
				"paused()": "2399",
				"remainingEmissionsCapacity()": "2516",
				"renounceOwnership()": "infinite",
				"setEmissionRate(uint256)": "25610",
				"setEntryCostTIMBS(uint256)": "27994",
				"setFarmPool(address)": "80829",
				"setMaxTransferAmount(uint256)": "25643",
				"setStakingPool(address)": "80851",
				"setTransferWhitelist(address,bool)": "28420",
				"setTreasury(address)": "81226",
				"stakingPool()": "2428",
				"symbol()": "infinite",
				"totalSupply()": "2394",
				"transfer(address,uint256)": "infinite",
				"transferFrom(address,address,uint256)": "infinite",
				"transferOwnership(address)": "28468",
				"transferWhitelist(address)": "2643",
				"treasury()": "2448",
				"unpause()": "27764"
			},
			"internal": {
				"_update(address,address,uint256)": "infinite"
			}
		},
		"methodIdentifiers": {
			"HARD_CAP()": "3a03171c",
			"allowance(address,address)": "dd62ed3e",
			"approve(address,uint256)": "095ea7b3",
			"balanceOf(address)": "70a08231",
			"burn(uint256)": "42966c68",
			"burnFrom(address,uint256)": "79cc6790",
			"decimals()": "313ce567",
			"emissionRatePerDay()": "4214e0af",
			"entryCostETH()": "83d5d801",
			"entryCostTIMBS()": "45c952cb",
			"farmPool()": "d89a6fa6",
			"maxTransferAmount()": "a9e75723",
			"mintEmissions(address,uint256)": "296ed9f4",
			"name()": "06fdde03",
			"owner()": "8da5cb5b",
			"pause()": "8456cb59",
			"paused()": "5c975abb",
			"remainingEmissionsCapacity()": "ae11c4bc",
			"renounceOwnership()": "715018a6",
			"setEmissionRate(uint256)": "a1bdb15e",
			"setEntryCostTIMBS(uint256)": "21d66353",
			"setFarmPool(address)": "7c562a94",
			"setMaxTransferAmount(uint256)": "8bf55409",
			"setStakingPool(address)": "3028f63a",
			"setTransferWhitelist(address,bool)": "e4a34dce",
			"setTreasury(address)": "f0f44260",
			"stakingPool()": "0c56ae3b",
			"symbol()": "95d89b41",
			"totalSupply()": "18160ddd",
			"transfer(address,uint256)": "a9059cbb",
			"transferFrom(address,address,uint256)": "23b872dd",
			"transferOwnership(address)": "f2fde38b",
			"transferWhitelist(address)": "7ffbe241",
			"treasury()": "61d027b3",
			"unpause()": "3f4ba83a"
		}
	},
	"abi": [
		{
			"inputs": [
				{
					"internalType": "address",
					"name": "_treasury",
					"type": "address"
				},
				{
					"internalType": "uint256",
					"name": "initialSupply",
					"type": "uint256"
				},
				{
					"internalType": "uint256",
					"name": "_entryCostTIMBS",
					"type": "uint256"
				}
			],
			"stateMutability": "nonpayable",
			"type": "constructor"
		},
		{
			"inputs": [
				{
					"internalType": "address",
					"name": "spender",
					"type": "address"
				},
				{
					"internalType": "uint256",
					"name": "allowance",
					"type": "uint256"
				},
				{
					"internalType": "uint256",
					"name": "needed",
					"type": "uint256"
				}
			],
			"name": "ERC20InsufficientAllowance",
			"type": "error"
		},
		{
			"inputs": [
				{
					"internalType": "address",
					"name": "sender",
					"type": "address"
				},
				{
					"internalType": "uint256",
					"name": "balance",
					"type": "uint256"
				},
				{
					"internalType": "uint256",
					"name": "needed",
					"type": "uint256"
				}
			],
			"name": "ERC20InsufficientBalance",
			"type": "error"
		},
		{
			"inputs": [
				{
					"internalType": "address",
					"name": "approver",
					"type": "address"
				}
			],
			"name": "ERC20InvalidApprover",
			"type": "error"
		},
		{
			"inputs": [
				{
					"internalType": "address",
					"name": "receiver",
					"type": "address"
				}
			],
			"name": "ERC20InvalidReceiver",
			"type": "error"
		},
		{
			"inputs": [
				{
					"internalType": "address",
					"name": "sender",
					"type": "address"
				}
			],
			"name": "ERC20InvalidSender",
			"type": "error"
		},
		{
			"inputs": [
				{
					"internalType": "address",
					"name": "spender",
					"type": "address"
				}
			],
			"name": "ERC20InvalidSpender",
			"type": "error"
		},
		{
			"inputs": [
				{
					"internalType": "uint256",
					"name": "requested",
					"type": "uint256"
				},
				{
					"internalType": "uint256",
					"name": "available",
					"type": "uint256"
				}
			],
			"name": "ExceedsHardCap",
			"type": "error"
		},
		{
			"inputs": [
				{
					"internalType": "uint256",
					"name": "amount",
					"type": "uint256"
				},
				{
					"internalType": "uint256",
					"name": "max",
					"type": "uint256"
				}
			],
			"name": "ExceedsMaxTransfer",
			"type": "error"
		},
		{
			"inputs": [],
			"name": "NotAuthorizedMinter",
			"type": "error"
		},
		{
			"inputs": [
				{
					"internalType": "address",
					"name": "owner",
					"type": "address"
				}
			],
			"name": "OwnableInvalidOwner",
			"type": "error"
		},
		{
			"inputs": [
				{
					"internalType": "address",
					"name": "account",
					"type": "address"
				}
			],
			"name": "OwnableUnauthorizedAccount",
			"type": "error"
		},
		{
			"inputs": [],
			"name": "ReentrancyGuardReentrantCall",
			"type": "error"
		},
		{
			"inputs": [],
			"name": "TransferPaused",
			"type": "error"
		},
		{
			"inputs": [],
			"name": "ZeroAddress",
			"type": "error"
		},
		{
			"inputs": [],
			"name": "ZeroAmount",
			"type": "error"
		},
		{
			"anonymous": false,
			"inputs": [
				{
					"indexed": true,
					"internalType": "address",
					"name": "owner",
					"type": "address"
				},
				{
					"indexed": true,
					"internalType": "address",
					"name": "spender",
					"type": "address"
				},
				{
					"indexed": false,
					"internalType": "uint256",
					"name": "value",
					"type": "uint256"
				}
			],
			"name": "Approval",
			"type": "event"
		},
		{
			"anonymous": false,
			"inputs": [
				{
					"indexed": false,
					"internalType": "uint256",
					"name": "ratePerDay",
					"type": "uint256"
				}
			],
			"name": "EmissionRateSet",
			"type": "event"
		},
		{
			"anonymous": false,
			"inputs": [
				{
					"indexed": true,
					"internalType": "address",
					"name": "recipient",
					"type": "address"
				},
				{
					"indexed": false,
					"internalType": "uint256",
					"name": "amount",
					"type": "uint256"
				}
			],
			"name": "EmissionsMinted",
			"type": "event"
		},
		{
			"anonymous": false,
			"inputs": [
				{
					"indexed": false,
					"internalType": "uint256",
					"name": "oldCost",
					"type": "uint256"
				},
				{
					"indexed": false,
					"internalType": "uint256",
					"name": "newCost",
					"type": "uint256"
				}
			],
			"name": "EntryCostUpdated",
			"type": "event"
		},
		{
			"anonymous": false,
			"inputs": [
				{
					"indexed": true,
					"internalType": "address",
					"name": "farmPool",
					"type": "address"
				}
			],
			"name": "FarmPoolSet",
			"type": "event"
		},
		{
			"anonymous": false,
			"inputs": [
				{
					"indexed": false,
					"internalType": "uint256",
					"name": "amount",
					"type": "uint256"
				}
			],
			"name": "MaxTransferAmountSet",
			"type": "event"
		},
		{
			"anonymous": false,
			"inputs": [
				{
					"indexed": true,
					"internalType": "address",
					"name": "previousOwner",
					"type": "address"
				},
				{
					"indexed": true,
					"internalType": "address",
					"name": "newOwner",
					"type": "address"
				}
			],
			"name": "OwnershipTransferred",
			"type": "event"
		},
		{
			"anonymous": false,
			"inputs": [
				{
					"indexed": true,
					"internalType": "address",
					"name": "by",
					"type": "address"
				}
			],
			"name": "Paused",
			"type": "event"
		},
		{
			"anonymous": false,
			"inputs": [
				{
					"indexed": true,
					"internalType": "address",
					"name": "stakingPool",
					"type": "address"
				}
			],
			"name": "StakingPoolSet",
			"type": "event"
		},
		{
			"anonymous": false,
			"inputs": [
				{
					"indexed": true,
					"internalType": "address",
					"name": "from",
					"type": "address"
				},
				{
					"indexed": true,
					"internalType": "address",
					"name": "to",
					"type": "address"
				},
				{
					"indexed": false,
					"internalType": "uint256",
					"name": "value",
					"type": "uint256"
				}
			],
			"name": "Transfer",
			"type": "event"
		},
		{
			"anonymous": false,
			"inputs": [
				{
					"indexed": true,
					"internalType": "address",
					"name": "account",
					"type": "address"
				},
				{
					"indexed": false,
					"internalType": "bool",
					"name": "exempt",
					"type": "bool"
				}
			],
			"name": "TransferWhitelistUpdated",
			"type": "event"
		},
		{
			"anonymous": false,
			"inputs": [
				{
					"indexed": true,
					"internalType": "address",
					"name": "oldTreasury",
					"type": "address"
				},
				{
					"indexed": true,
					"internalType": "address",
					"name": "newTreasury",
					"type": "address"
				}
			],
			"name": "TreasuryUpdated",
			"type": "event"
		},
		{
			"anonymous": false,
			"inputs": [
				{
					"indexed": true,
					"internalType": "address",
					"name": "by",
					"type": "address"
				}
			],
			"name": "Unpaused",
			"type": "event"
		},
		{
			"inputs": [],
			"name": "HARD_CAP",
			"outputs": [
				{
					"internalType": "uint256",
					"name": "",
					"type": "uint256"
				}
			],
			"stateMutability": "view",
			"type": "function"
		},
		{
			"inputs": [
				{
					"internalType": "address",
					"name": "owner",
					"type": "address"
				},
				{
					"internalType": "address",
					"name": "spender",
					"type": "address"
				}
			],
			"name": "allowance",
			"outputs": [
				{
					"internalType": "uint256",
					"name": "",
					"type": "uint256"
				}
			],
			"stateMutability": "view",
			"type": "function"
		},
		{
			"inputs": [
				{
					"internalType": "address",
					"name": "spender",
					"type": "address"
				},
				{
					"internalType": "uint256",
					"name": "value",
					"type": "uint256"
				}
			],
			"name": "approve",
			"outputs": [
				{
					"internalType": "bool",
					"name": "",
					"type": "bool"
				}
			],
			"stateMutability": "nonpayable",
			"type": "function"
		},
		{
			"inputs": [
				{
					"internalType": "address",
					"name": "account",
					"type": "address"
				}
			],
			"name": "balanceOf",
			"outputs": [
				{
					"internalType": "uint256",
					"name": "",
					"type": "uint256"
				}
			],
			"stateMutability": "view",
			"type": "function"
		},
		{
			"inputs": [
				{
					"internalType": "uint256",
					"name": "value",
					"type": "uint256"
				}
			],
			"name": "burn",
			"outputs": [],
			"stateMutability": "nonpayable",
			"type": "function"
		},
		{
			"inputs": [
				{
					"internalType": "address",
					"name": "account",
					"type": "address"
				},
				{
					"internalType": "uint256",
					"name": "value",
					"type": "uint256"
				}
			],
			"name": "burnFrom",
			"outputs": [],
			"stateMutability": "nonpayable",
			"type": "function"
		},
		{
			"inputs": [],
			"name": "decimals",
			"outputs": [
				{
					"internalType": "uint8",
					"name": "",
					"type": "uint8"
				}
			],
			"stateMutability": "view",
			"type": "function"
		},
		{
			"inputs": [],
			"name": "emissionRatePerDay",
			"outputs": [
				{
					"internalType": "uint256",
					"name": "",
					"type": "uint256"
				}
			],
			"stateMutability": "view",
			"type": "function"
		},
		{
			"inputs": [],
			"name": "entryCostETH",
			"outputs": [
				{
					"internalType": "uint256",
					"name": "",
					"type": "uint256"
				}
			],
			"stateMutability": "pure",
			"type": "function"
		},
		{
			"inputs": [],
			"name": "entryCostTIMBS",
			"outputs": [
				{
					"internalType": "uint256",
					"name": "",
					"type": "uint256"
				}
			],
			"stateMutability": "view",
			"type": "function"
		},
		{
			"inputs": [],
			"name": "farmPool",
			"outputs": [
				{
					"internalType": "address",
					"name": "",
					"type": "address"
				}
			],
			"stateMutability": "view",
			"type": "function"
		},
		{
			"inputs": [],
			"name": "maxTransferAmount",
			"outputs": [
				{
					"internalType": "uint256",
					"name": "",
					"type": "uint256"
				}
			],
			"stateMutability": "view",
			"type": "function"
		},
		{
			"inputs": [
				{
					"internalType": "address",
					"name": "recipient",
					"type": "address"
				},
				{
					"internalType": "uint256",
					"name": "amount",
					"type": "uint256"
				}
			],
			"name": "mintEmissions",
			"outputs": [],
			"stateMutability": "nonpayable",
			"type": "function"
		},
		{
			"inputs": [],
			"name": "name",
			"outputs": [
				{
					"internalType": "string",
					"name": "",
					"type": "string"
				}
			],
			"stateMutability": "view",
			"type": "function"
		},
		{
			"inputs": [],
			"name": "owner",
			"outputs": [
				{
					"internalType": "address",
					"name": "",
					"type": "address"
				}
			],
			"stateMutability": "view",
			"type": "function"
		},
		{
			"inputs": [],
			"name": "pause",
			"outputs": [],
			"stateMutability": "nonpayable",
			"type": "function"
		},
		{
			"inputs": [],
			"name": "paused",
			"outputs": [
				{
					"internalType": "bool",
					"name": "",
					"type": "bool"
				}
			],
			"stateMutability": "view",
			"type": "function"
		},
		{
			"inputs": [],
			"name": "remainingEmissionsCapacity",
			"outputs": [
				{
					"internalType": "uint256",
					"name": "",
					"type": "uint256"
				}
			],
			"stateMutability": "view",
			"type": "function"
		},
		{
			"inputs": [],
			"name": "renounceOwnership",
			"outputs": [],
			"stateMutability": "nonpayable",
			"type": "function"
		},
		{
			"inputs": [
				{
					"internalType": "uint256",
					"name": "_ratePerDay",
					"type": "uint256"
				}
			],
			"name": "setEmissionRate",
			"outputs": [],
			"stateMutability": "nonpayable",
			"type": "function"
		},
		{
			"inputs": [
				{
					"internalType": "uint256",
					"name": "_cost",
					"type": "uint256"
				}
			],
			"name": "setEntryCostTIMBS",
			"outputs": [],
			"stateMutability": "nonpayable",
			"type": "function"
		},
		{
			"inputs": [
				{
					"internalType": "address",
					"name": "_farmPool",
					"type": "address"
				}
			],
			"name": "setFarmPool",
			"outputs": [],
			"stateMutability": "nonpayable",
			"type": "function"
		},
		{
			"inputs": [
				{
					"internalType": "uint256",
					"name": "_max",
					"type": "uint256"
				}
			],
			"name": "setMaxTransferAmount",
			"outputs": [],
			"stateMutability": "nonpayable",
			"type": "function"
		},
		{
			"inputs": [
				{
					"internalType": "address",
					"name": "_stakingPool",
					"type": "address"
				}
			],
			"name": "setStakingPool",
			"outputs": [],
			"stateMutability": "nonpayable",
			"type": "function"
		},
		{
			"inputs": [
				{
					"internalType": "address",
					"name": "_account",
					"type": "address"
				},
				{
					"internalType": "bool",
					"name": "_exempt",
					"type": "bool"
				}
			],
			"name": "setTransferWhitelist",
			"outputs": [],
			"stateMutability": "nonpayable",
			"type": "function"
		},
		{
			"inputs": [
				{
					"internalType": "address",
					"name": "_treasury",
					"type": "address"
				}
			],
			"name": "setTreasury",
			"outputs": [],
			"stateMutability": "nonpayable",
			"type": "function"
		},
		{
			"inputs": [],
			"name": "stakingPool",
			"outputs": [
				{
					"internalType": "address",
					"name": "",
					"type": "address"
				}
			],
			"stateMutability": "view",
			"type": "function"
		},
		{
			"inputs": [],
			"name": "symbol",
			"outputs": [
				{
					"internalType": "string",
					"name": "",
					"type": "string"
				}
			],
			"stateMutability": "view",
			"type": "function"
		},
		{
			"inputs": [],
			"name": "totalSupply",
			"outputs": [
				{
					"internalType": "uint256",
					"name": "",
					"type": "uint256"
				}
			],
			"stateMutability": "view",
			"type": "function"
		},
		{
			"inputs": [
				{
					"internalType": "address",
					"name": "to",
					"type": "address"
				},
				{
					"internalType": "uint256",
					"name": "value",
					"type": "uint256"
				}
			],
			"name": "transfer",
			"outputs": [
				{
					"internalType": "bool",
					"name": "",
					"type": "bool"
				}
			],
			"stateMutability": "nonpayable",
			"type": "function"
		},
		{
			"inputs": [
				{
					"internalType": "address",
					"name": "from",
					"type": "address"
				},
				{
					"internalType": "address",
					"name": "to",
					"type": "address"
				},
				{
					"internalType": "uint256",
					"name": "value",
					"type": "uint256"
				}
			],
			"name": "transferFrom",
			"outputs": [
				{
					"internalType": "bool",
					"name": "",
					"type": "bool"
				}
			],
			"stateMutability": "nonpayable",
			"type": "function"
		},
		{
			"inputs": [
				{
					"internalType": "address",
					"name": "newOwner",
					"type": "address"
				}
			],
			"name": "transferOwnership",
			"outputs": [],
			"stateMutability": "nonpayable",
			"type": "function"
		},
		{
			"inputs": [
				{
					"internalType": "address",
					"name": "",
					"type": "address"
				}
			],
			"name": "transferWhitelist",
			"outputs": [
				{
					"internalType": "bool",
					"name": "",
					"type": "bool"
				}
			],
			"stateMutability": "view",
			"type": "function"
		},
		{
			"inputs": [],
			"name": "treasury",
			"outputs": [
				{
					"internalType": "address",
					"name": "",
					"type": "address"
				}
			],
			"stateMutability": "view",
			"type": "function"
		},
		{
			"inputs": [],
			"name": "unpause",
			"outputs": [],
			"stateMutability": "nonpayable",
			"type": "function"
		}
	]
}