{
	"data": {
		"bytecode": {
			"linkReferences": {},
			"object": "608060405234801562000010575f80fd5b506040516200450d3803806200450d833981810160405281019062000036919062000487565b335f73ffffffffffffffffffffffffffffffffffffffff168173ffffffffffffffffffffffffffffffffffffffff1603620000aa575f6040517f1e4fbdf7000000000000000000000000000000000000000000000000000000008152600401620000a19190620004f1565b60405180910390fd5b620000bb816200032f60201b60201c565b506001620000de620000d2620003f060201b60201c565b6200041960201b60201c565b5f01819055505f73ffffffffffffffffffffffffffffffffffffffff168373ffffffffffffffffffffffffffffffffffffffff16036200014a576040517fd92e233d00000000000000000000000000000000000000000000000000000000815260040160405180910390fd5b5f73ffffffffffffffffffffffffffffffffffffffff168273ffffffffffffffffffffffffffffffffffffffff1603620001b0576040517fd92e233d00000000000000000000000000000000000000000000000000000000815260040160405180910390fd5b5f73ffffffffffffffffffffffffffffffffffffffff168173ffffffffffffffffffffffffffffffffffffffff160362000216576040517fd92e233d00000000000000000000000000000000000000000000000000000000815260040160405180910390fd5b8260015f6101000a81548173ffffffffffffffffffffffffffffffffffffffff021916908373ffffffffffffffffffffffffffffffffffffffff1602179055508160025f6101000a81548173ffffffffffffffffffffffffffffffffffffffff021916908373ffffffffffffffffffffffffffffffffffffffff1602179055508060035f6101000a81548173ffffffffffffffffffffffffffffffffffffffff021916908373ffffffffffffffffffffffffffffffffffffffff1602179055503360055f6101000a81548173ffffffffffffffffffffffffffffffffffffffff021916908373ffffffffffffffffffffffffffffffffffffffff1602179055506003600e8190555060c8600f819055505050506200050c565b5f805f9054906101000a900473ffffffffffffffffffffffffffffffffffffffff169050815f806101000a81548173ffffffffffffffffffffffffffffffffffffffff021916908373ffffffffffffffffffffffffffffffffffffffff1602179055508173ffffffffffffffffffffffffffffffffffffffff168173ffffffffffffffffffffffffffffffffffffffff167f8be0079c531659141344cd1fd0a4f28419497f9722a3daafe3b4186f6b6457e060405160405180910390a35050565b5f7f9b779b17422d0df92223018b32b4d1fa46e071723d6817e2486d003becc55f005f1b905090565b5f819050919050565b5f80fd5b5f73ffffffffffffffffffffffffffffffffffffffff82169050919050565b5f620004518262000426565b9050919050565b620004638162000445565b81146200046e575f80fd5b50565b5f81519050620004818162000458565b92915050565b5f805f60608486031215620004a157620004a062000422565b5b5f620004b08682870162000471565b9350506020620004c38682870162000471565b9250506040620004d68682870162000471565b9150509250925092565b620004eb8162000445565b82525050565b5f602082019050620005065f830184620004e0565b92915050565b613ff3806200051a5f395ff3fe60806040526004361061036a575f3560e01c8063873f6f9e116101c5578063c33b7586116100f6578063dd898b2f11610094578063f13afb901161006e578063f13afb9014610b8f578063f2fde38b14610bb7578063f82a23d114610bdf578063f887ea4014610c1b5761036a565b8063dd898b2f14610b29578063e9755b5914610b51578063ebd2fe4114610b675761036a565b8063d38970bc116100d0578063d38970bc14610aa9578063d57f952514610ad3578063d65ab5f214610ae9578063da09075514610aff5761036a565b8063c33b758614610a2b578063c74b817d14610a55578063cc16fe5b14610a7f5761036a565b8063a1a016a311610163578063b27211641161013d578063b272116414610973578063b303feeb1461099d578063b7bc5fb6146109d9578063c0d7865514610a035761036a565b8063a1a016a3146108f5578063ab221a761461091f578063ac650783146109495761036a565b80638e6a134b1161019f5780638e6a134b1461085b57806392eaa9d91461089757806399b465cb146108c15780639c737e8f146108eb5761036a565b8063873f6f9e146107cb5780638a19c8bc146108075780638da5cb5b146108315761036a565b806341d67d061161029f578063677bd9ff1161023d578063770435911161021757806377043591146106ff57806379eedbdd146107295780637f35d49f146107655780637f79ba591461078f5761036a565b8063677bd9ff146106ab578063715018a6146106d357806376d9ff2c146106e95761036a565b80635e123ce4116102795780635e123ce4146106055780635f303f1c1461062f57806363d5ab8d146106575780636641ea08146106815761036a565b806341d67d061461059d578063456990c7146105c757806346a662bf146105ef5761036a565b80631a3b8e8c1161030c578063293c2958116102e6578063293c2958146104ee5780632ee0c4631461051f5780633deb6cae146105495780634168632d146105735761036a565b80631a3b8e8c146104725780631ad41d141461049c578063231e832d146104c45761036a565b80630a8506ca116103485780630a8506ca146104125780630b7a567b146104285780630f67e7d51461043e57806317ebf6ae146104685761036a565b806302e28c701461036e57806303e3cd6a146103ae57806307f19eba146103ea575b5f80fd5b348015610379575f80fd5b50610394600480360381019061038f9190613445565b610c45565b6040516103a59594939291906135a0565b60405180910390f35b3480156103b9575f80fd5b506103d460048036038101906103cf91906135f8565b610d45565b6040516103e19190613645565b60405180910390f35b3480156103f5575f80fd5b50610410600480360381019061040b9190613688565b610d8d565b005b34801561041d575f80fd5b50610426610e80565b005b348015610433575f80fd5b5061043c610ea4565b005b348015610449575f80fd5b50610452611017565b60405161045f91906136b3565b60405180910390f35b610470611122565b005b34801561047d575f80fd5b50610486611241565b6040516104939190613645565b60405180910390f35b3480156104a7575f80fd5b506104c260048036038101906104bd9190613445565b611266565b005b3480156104cf575f80fd5b506104d86112e8565b6040516104e591906136cc565b60405180910390f35b3480156104f9575f80fd5b506105026112fa565b6040516105169897969594939291906136ff565b60405180910390f35b34801561052a575f80fd5b5061053361133e565b604051610540919061377b565b60405180910390f35b348015610554575f80fd5b5061055d611350565b60405161056a91906136cc565b60405180910390f35b34801561057e575f80fd5b50610587611355565b604051610594919061377b565b60405180910390f35b3480156105a8575f80fd5b506105b1611368565b6040516105be91906136cc565b60405180910390f35b3480156105d2575f80fd5b506105ed60048036038101906105e89190613445565b61136e565b005b3480156105fa575f80fd5b506106036113f3565b005b348015610610575f80fd5b506106196115e9565b604051610626919061377b565b60405180910390f35b34801561063a575f80fd5b5061065560048036038101906106509190613688565b6115fb565b005b348015610662575f80fd5b5061066b6116ab565b60405161067891906136cc565b60405180910390f35b34801561068c575f80fd5b506106956116b1565b6040516106a291906136cc565b60405180910390f35b3480156106b6575f80fd5b506106d160048036038101906106cc9190613445565b6116cf565b005b3480156106de575f80fd5b506106e7611bb0565b005b3480156106f4575f80fd5b506106fd611bc3565b005b34801561070a575f80fd5b50610713611be7565b60405161072091906136cc565b60405180910390f35b348015610734575f80fd5b5061074f600480360381019061074a9190613445565b611bed565b60405161075c91906136b3565b60405180910390f35b348015610770575f80fd5b50610779611c0a565b60405161078691906136cc565b60405180910390f35b34801561079a575f80fd5b506107b560048036038101906107b09190613445565b611c10565b6040516107c291906136cc565b60405180910390f35b3480156107d6575f80fd5b506107f160048036038101906107ec9190613794565b611c25565b6040516107fe919061377b565b60405180910390f35b348015610812575f80fd5b5061081b611c4f565b60405161082891906136cc565b60405180910390f35b34801561083c575f80fd5b50610845611c55565b6040516108529190613645565b60405180910390f35b348015610866575f80fd5b50610881600480360381019061087c9190613445565b611c7c565b60405161088e91906136b3565b60405180910390f35b3480156108a2575f80fd5b506108ab611d87565b6040516108b89190613645565b60405180910390f35b3480156108cc575f80fd5b506108d5611dac565b6040516108e291906136cc565b60405180910390f35b6108f3611db2565b005b348015610900575f80fd5b50610909611ed9565b60405161091691906136cc565b60405180910390f35b34801561092a575f80fd5b50610933611f12565b6040516109409190613645565b60405180910390f35b348015610954575f80fd5b5061095d611f37565b60405161096a91906136cc565b60405180910390f35b34801561097e575f80fd5b50610987611f3c565b60405161099491906136cc565b60405180910390f35b3480156109a8575f80fd5b506109c360048036038101906109be9190613445565b611f42565b6040516109d091906136cc565b60405180910390f35b3480156109e4575f80fd5b506109ed611f57565b6040516109fa91906136cc565b60405180910390f35b348015610a0e575f80fd5b50610a296004803603810190610a249190613688565b611f5c565b005b348015610a36575f80fd5b50610a3f61200c565b604051610a4c919061377b565b60405180910390f35b348015610a60575f80fd5b50610a6961201a565b604051610a76919061377b565b60405180910390f35b348015610a8a575f80fd5b50610a9361202c565b604051610aa091906136cc565b60405180910390f35b348015610ab4575f80fd5b50610abd612032565b604051610aca91906136cc565b60405180910390f35b348015610ade575f80fd5b50610ae7612038565b005b348015610af4575f80fd5b50610afd61205d565b005b348015610b0a575f80fd5b50610b13612221565b604051610b209190613645565b60405180910390f35b348015610b34575f80fd5b50610b4f6004803603810190610b4a9190613688565b612246565b005b348015610b5c575f80fd5b50610b656122f6565b005b348015610b72575f80fd5b50610b8d6004803603810190610b8891906137fc565b612319565b005b348015610b9a575f80fd5b50610bb56004803603810190610bb09190613688565b61233d565b005b348015610bc2575f80fd5b50610bdd6004803603810190610bd89190613688565b612388565b005b348015610bea575f80fd5b50610c056004803603810190610c009190613445565b61240c565b604051610c1291906136cc565b60405180910390f35b348015610c26575f80fd5b50610c2f612421565b604051610c3c9190613645565b60405180910390f35b5f8060605f8060105f8781526020019081526020015f205f9054906101000a900460d01b945060115f8781526020019081526020015f2054935060125f8781526020019081526020015f20805480602002602001604051908101604052809291908181526020018280548015610d0d57602002820191905f5260205f20905b815f9054906101000a900473ffffffffffffffffffffffffffffffffffffffff1673ffffffffffffffffffffffffffffffffffffffff1681526020019060010190808311610cc4575b5050505050925060135f8781526020019081526020015f2054915060145f8781526020019081526020015f2054905091939590929450565b6012602052815f5260405f208181548110610d5e575f80fd5b905f5260205f20015f915091509054906101000a900473ffffffffffffffffffffffffffffffffffffffff1681565b610d95612446565b5f73ffffffffffffffffffffffffffffffffffffffff168173ffffffffffffffffffffffffffffffffffffffff1603610dfa576040517fd92e233d00000000000000000000000000000000000000000000000000000000815260040160405180910390fd5b8060055f6101000a81548173ffffffffffffffffffffffffffffffffffffffff021916908373ffffffffffffffffffffffffffffffffffffffff1602179055508073ffffffffffffffffffffffffffffffffffffffff167f1f53e003aaf46af23aeb50e85f438d6f0c33618ce44e3545f1ec030c79b1772960405160405180910390a250565b610e88612446565b600160165f6101000a81548160ff021916908315150217905550565b610eac6124cd565b60035f9054906101000a900473ffffffffffffffffffffffffffffffffffffffff1673ffffffffffffffffffffffffffffffffffffffff163373ffffffffffffffffffffffffffffffffffffffff1614610f32576040517f9165520100000000000000000000000000000000000000000000000000000000815260040160405180910390fd5b600b5f9054906101000a900460ff16610f77576040517f3a5f7b5700000000000000000000000000000000000000000000000000000000815260040160405180910390fd5b610f7f6124ef565b15610fb6576040517f717824fb00000000000000000000000000000000000000000000000000000000815260040160405180910390fd5b60065f815480929190610fc890613854565b91905055506008547f494d93a08dca016bff87fc5e35de704731b23d47eb35da9499be2ddb7536da2260065460095460405161100592919061389b565b60405180910390a2611015612529565b565b5f80600667ffffffffffffffff811115611034576110336138c2565b5b6040519080825280601f01601f1916602001820160405280156110665781602001600182028036833780820191505090505b5090505f5b600681101561111157604051806060016040528060248152602001613f9a6024913960248260065461109d91906138ef565b6110a7919061394f565b815181106110b8576110b761397f565b5b602001015160f81c60f81b8282815181106110d6576110d561397f565b5b60200101907effffffffffffffffffffffffffffffffffffffffffffffffffffffffffffff191690815f1a905350808060010191505061106b565b508061111c906139e5565b91505090565b5f340361115b576040517f1f2a200500000000000000000000000000000000000000000000000000000000815260040160405180910390fd5b34600c5f82825461116c91906138ef565b9250508190555060015f9054906101000a900473ffffffffffffffffffffffffffffffffffffffff1673ffffffffffffffffffffffffffffffffffffffff1663d0e30db0346040518263ffffffff1660e01b81526004015f604051808303818588803b1580156111da575f80fd5b505af11580156111ec573d5f803e3d5ffd5b50505050503373ffffffffffffffffffffffffffffffffffffffff167ff0d496561fe25891ca8568b6877b038238629d8dbe5777373589bece931dc1723460405161123791906136cc565b60405180910390a2565b60015f9054906101000a900473ffffffffffffffffffffffffffffffffffffffff1681565b61126e612446565b5f81036112a7576040517f804a1e0200000000000000000000000000000000000000000000000000000000815260040160405180910390fd5b80600e819055507f1e64ff98418e31d486498b471741cc3ff92302fa146e6e124e3025186cfab465816040516112dd91906136cc565b60405180910390a150565b600f610e016112f791906138ef565b81565b5f805f805f805f8060085497506009549650600a549550600654945061131e611017565b9350600c549250600d5491506113326124ef565b90509091929394959697565b60165f9054906101000a900460ff1681565b600f81565b601660019054906101000a900460ff1681565b600f5481565b611376612446565b6103e88111156113b2576040517f1f2a200500000000000000000000000000000000000000000000000000000000815260040160405180910390fd5b80600f819055507f21b2cfef155acf409755ec06f4f701c8d13a5b6339fe8d1ee89afb57318f7084816040516113e891906136cc565b60405180910390a150565b6113fb6124cd565b60055f9054906101000a900473ffffffffffffffffffffffffffffffffffffffff1673ffffffffffffffffffffffffffffffffffffffff163373ffffffffffffffffffffffffffffffffffffffff1614611481576040517f05b9433300000000000000000000000000000000000000000000000000000000815260040160405180910390fd5b600b5f9054906101000a900460ff166114c6576040517f3a5f7b5700000000000000000000000000000000000000000000000000000000815260040160405180910390fd5b601660019054906101000a900460ff161561150d576040517f4c211ccd00000000000000000000000000000000000000000000000000000000815260040160405180910390fd5b5f600a544261151c9190613a4b565b9050610e018110156115695780610e016040517f58d2146e00000000000000000000000000000000000000000000000000000000815260040161156092919061389b565b60405180910390fd5b600660095410156115d55760095f81548092919061158690613854565b919050555042600a819055506008547fe9a2985393fa4bb459d73d85249df3b5923e70fb93b7b9c307e72359ab167587600954426040516115c892919061389b565b60405180910390a26115de565b6115dd612543565b5b506115e7612529565b565b600b5f9054906101000a900460ff1681565b611603612446565b5f73ffffffffffffffffffffffffffffffffffffffff168173ffffffffffffffffffffffffffffffffffffffff1603611668576040517fd92e233d00000000000000000000000000000000000000000000000000000000815260040160405180910390fd5b8060015f6101000a81548173ffffffffffffffffffffffffffffffffffffffff021916908373ffffffffffffffffffffffffffffffffffffffff16021790555050565b60065481565b6006600f610e016116c291906138ef565b6116cc9190613a7e565b81565b6116d76124cd565b600b5f9054906101000a900460ff1661171c576040517f3a5f7b5700000000000000000000000000000000000000000000000000000000815260040160405180910390fd5b5f60d01b79ffffffffffffffffffffffffffffffffffffffffffffffffffff191660105f8381526020019081526020015f205f9054906101000a900460d01b79ffffffffffffffffffffffffffffffffffffffffffffffffffff1916036117ba57806040517fcd1fdcde0000000000000000000000000000000000000000000000000000000081526004016117b191906136cc565b60405180910390fd5b60155f8281526020019081526020015f205f3373ffffffffffffffffffffffffffffffffffffffff1673ffffffffffffffffffffffffffffffffffffffff1681526020019081526020015f205f9054906101000a900460ff16156118575733816040517fe64ea1da00000000000000000000000000000000000000000000000000000000815260040161184e929190613abf565b60405180910390fd5b600160028261186691906138ef565b61187091906138ef565b60085411156118b657806040517f552493290000000000000000000000000000000000000000000000000000000081526004016118ad91906136cc565b60405180910390fd5b5f8060125f8481526020019081526020015f2080548060200260200160405190810160405280929190818152602001828054801561194657602002820191905f5260205f20905b815f9054906101000a900473ffffffffffffffffffffffffffffffffffffffff1673ffffffffffffffffffffffffffffffffffffffff16815260200190600101908083116118fd575b505050505090505f5b81518110156119bb573373ffffffffffffffffffffffffffffffffffffffff168282815181106119825761198161397f565b5b602002602001015173ffffffffffffffffffffffffffffffffffffffff16036119ae57600192506119bb565b808060010191505061194f565b5081611a005733836040517fefbeaf330000000000000000000000000000000000000000000000000000000081526004016119f7929190613abf565b60405180910390fd5b5f60135f8581526020019081526020015f205490505f8103611a4e576040517f1f2a200500000000000000000000000000000000000000000000000000000000815260040160405180910390fd5b600160155f8681526020019081526020015f205f3373ffffffffffffffffffffffffffffffffffffffff1673ffffffffffffffffffffffffffffffffffffffff1681526020019081526020015f205f6101000a81548160ff02191690831515021790555080600d5f828254611ac39190613a4b565b9250508190555060015f9054906101000a900473ffffffffffffffffffffffffffffffffffffffff1673ffffffffffffffffffffffffffffffffffffffff1663c407687633836040518363ffffffff1660e01b8152600401611b26929190613abf565b5f604051808303815f87803b158015611b3d575f80fd5b505af1158015611b4f573d5f803e3d5ffd5b50505050833373ffffffffffffffffffffffffffffffffffffffff167f7472e24de4628e34b41a2aa1688ed4b46a9145b2de1cf93d74902473ccc1740d83604051611b9a91906136cc565b60405180910390a3505050611bad612529565b50565b611bb8612446565b611bc15f61279f565b565b611bcb612446565b5f601660016101000a81548160ff021916908315150217905550565b600e5481565b6010602052805f5260405f205f915054906101000a900460d01b81565b610e0181565b6011602052805f5260405f205f915090505481565b6015602052815f5260405f20602052805f5260405f205f915091509054906101000a900460ff1681565b60085481565b5f805f9054906101000a900473ffffffffffffffffffffffffffffffffffffffff16905090565b5f80600667ffffffffffffffff811115611c9957611c986138c2565b5b6040519080825280601f01601f191660200182016040528015611ccb5781602001600182028036833780820191505090505b5090505f5b6006811015611d7457604051806060016040528060248152602001613f9a6024913960248286611d0091906138ef565b611d0a919061394f565b81518110611d1b57611d1a61397f565b5b602001015160f81c60f81b828281518110611d3957611d3861397f565b5b60200101907effffffffffffffffffffffffffffffffffffffffffffffffffffffffffffff191690815f1a9053508080600101915050611cd0565b5080611d7f906139e5565b915050919050565b60045f9054906101000a900473ffffffffffffffffffffffffffffffffffffffff1681565b60095481565b611dba612446565b5f3403611df3576040517f1f2a200500000000000000000000000000000000000000000000000000000000815260040160405180910390fd5b34600c5f828254611e0491906138ef565b9250508190555060015f9054906101000a900473ffffffffffffffffffffffffffffffffffffffff1673ffffffffffffffffffffffffffffffffffffffff1663d0e30db0346040518263ffffffff1660e01b81526004015f604051808303818588803b158015611e72575f80fd5b505af1158015611e84573d5f803e3d5ffd5b50505050503373ffffffffffffffffffffffffffffffffffffffff167ff0d496561fe25891ca8568b6877b038238629d8dbe5777373589bece931dc17234604051611ecf91906136cc565b60405180910390a2565b5f80600a5442611ee99190613a4b565b9050610e018110611efd575f915050611f0f565b80610e01611f0b9190613a4b565b9150505b90565b60055f9054906101000a900473ffffffffffffffffffffffffffffffffffffffff1681565b600281565b600c5481565b6014602052805f5260405f205f915090505481565b600681565b611f64612446565b5f73ffffffffffffffffffffffffffffffffffffffff168173ffffffffffffffffffffffffffffffffffffffff1603611fc9576040517fd92e233d00000000000000000000000000000000000000000000000000000000815260040160405180910390fd5b8060035f6101000a81548173ffffffffffffffffffffffffffffffffffffffff021916908373ffffffffffffffffffffffffffffffffffffffff16021790555050565b5f6120156124ef565b905090565b60075f9054906101000a900460ff1681565b600a5481565b600d5481565b612040612446565b6001601660016101000a81548160ff021916908315150217905550565b612065612446565b600b5f9054906101000a900460ff16156120ab576040517fba26162b00000000000000000000000000000000000000000000000000000000815260040160405180910390fd5b6001600b5f6101000a81548160ff0219169083151502179055506001600881905550600160098190555042600a8190555060025f9054906101000a900473ffffffffffffffffffffffffffffffffffffffff1673ffffffffffffffffffffffffffffffffffffffff16633bc91e286008546040518263ffffffff1660e01b815260040161213891906136cc565b5f604051808303815f87803b15801561214f575f80fd5b505af1158015612161573d5f803e3d5ffd5b50505050612170600854612860565b7f50ad08f58a27f2851d7e3a1b3a6a46b290f2ce677e99642d30ff639721e777904260405161219f91906136cc565b60405180910390a16008547f278844837bcf8364a705384bf3a2812901f54155bae86dea81dd52aa5b9ec0e3426040516121d991906136cc565b60405180910390a26008547fe9a2985393fa4bb459d73d85249df3b5923e70fb93b7b9c307e72359ab1675876009544260405161221792919061389b565b60405180910390a2565b60025f9054906101000a900473ffffffffffffffffffffffffffffffffffffffff1681565b61224e612446565b5f73ffffffffffffffffffffffffffffffffffffffff168173ffffffffffffffffffffffffffffffffffffffff16036122b3576040517fd92e233d00000000000000000000000000000000000000000000000000000000815260040160405180910390fd5b8060025f6101000a81548173ffffffffffffffffffffffffffffffffffffffff021916908373ffffffffffffffffffffffffffffffffffffffff16021790555050565b6122fe612446565b5f60165f6101000a81548160ff021916908315150217905550565b612321612446565b8060075f6101000a81548160ff02191690831515021790555050565b612345612446565b8060045f6101000a81548173ffffffffffffffffffffffffffffffffffffffff021916908373ffffffffffffffffffffffffffffffffffffffff16021790555050565b612390612446565b5f73ffffffffffffffffffffffffffffffffffffffff168173ffffffffffffffffffffffffffffffffffffffff1603612400575f6040517f1e4fbdf70000000000000000000000000000000000000000000000000000000081526004016123f79190613645565b60405180910390fd5b6124098161279f565b50565b6013602052805f5260405f205f915090505481565b60035f9054906101000a900473ffffffffffffffffffffffffffffffffffffffff1681565b61244e612996565b73ffffffffffffffffffffffffffffffffffffffff1661246c611c55565b73ffffffffffffffffffffffffffffffffffffffff16146124cb5761248f612996565b6040517f118cdaa70000000000000000000000000000000000000000000000000000000081526004016124c29190613645565b60405180910390fd5b565b6124d561299d565b60026124e76124e26129de565b612a07565b5f0181905550565b5f600b5f9054906101000a900460ff1661250b575f9050612526565b5f600a544261251a9190613a4b565b9050610e018110159150505b90565b600161253b6125366129de565b612a07565b5f0181905550565b5f60085490505f61255382612a10565b90505f806125618484612aec565b915091505f805f612573878686612f38565b925092509250612582876130fd565b5f60025f9054906101000a900473ffffffffffffffffffffffffffffffffffffffff1673ffffffffffffffffffffffffffffffffffffffff1663454ac84e896040518263ffffffff1660e01b81526004016125dd91906136cc565b5f60405180830381865afa1580156125f7573d5f803e3d5ffd5b505050506040513d5f823e3d601f19601f8201168201806040525081019061261f9190613c1d565b519050877fcb3e0bd9fc5c5ca893ab7edf22c314b2852d2cf6e36e091941d0709caeb4145c88868886864260405161265c96959493929190613c64565b60405180910390a260085f81548092919061267690613854565b9190505550600160098190555042600a8190555060025f9054906101000a900473ffffffffffffffffffffffffffffffffffffffff1673ffffffffffffffffffffffffffffffffffffffff16633bc91e286008546040518263ffffffff1660e01b81526004016126e691906136cc565b5f604051808303815f87803b1580156126fd575f80fd5b505af115801561270f573d5f803e3d5ffd5b5050505061271e600854612860565b6008547f278844837bcf8364a705384bf3a2812901f54155bae86dea81dd52aa5b9ec0e34260405161275091906136cc565b60405180910390a26008547fe9a2985393fa4bb459d73d85249df3b5923e70fb93b7b9c307e72359ab16758760014260405161278d929190613d05565b60405180910390a25050505050505050565b5f805f9054906101000a900473ffffffffffffffffffffffffffffffffffffffff169050815f806101000a81548173ffffffffffffffffffffffffffffffffffffffff021916908373ffffffffffffffffffffffffffffffffffffffff1602179055508173ffffffffffffffffffffffffffffffffffffffff168173ffffffffffffffffffffffffffffffffffffffff167f8be0079c531659141344cd1fd0a4f28419497f9722a3daafe3b4186f6b6457e060405160405180910390a35050565b5f60025f9054906101000a900473ffffffffffffffffffffffffffffffffffffffff1673ffffffffffffffffffffffffffffffffffffffff1663454ac84e836040518263ffffffff1660e01b81526004016128bb91906136cc565b5f60405180830381865afa1580156128d5573d5f803e3d5ffd5b505050506040513d5f823e3d601f19601f820116820180604052508101906128fd9190613c1d565b90505f815111156129925760025f9054906101000a900473ffffffffffffffffffffffffffffffffffffffff1673ffffffffffffffffffffffffffffffffffffffff16631330cd8683836040518363ffffffff1660e01b8152600401612964929190613d2c565b5f604051808303815f87803b15801561297b575f80fd5b505af115801561298d573d5f803e3d5ffd5b505050505b5050565b5f33905090565b6129a56133e5565b156129dc576040517f3ee5aeb500000000000000000000000000000000000000000000000000000000815260040160405180910390fd5b565b5f7f9b779b17422d0df92223018b32b4d1fa46e071723d6817e2486d003becc55f005f1b905090565b5f819050919050565b5f80600143612a1f9190613a4b565b4060065484604051602001612a3693929190613da3565b604051602081830303815290604052805190602001205f1c90505f600382612a5e919061394f565b90505f81600654612a6f91906138ef565b9050612a7a81611c7c565b93508360105f8781526020019081526020015f205f6101000a81548165ffffffffffff021916908360d01c0217905550847fd9518e0c64df7f54fe347e6e390672d87bc2350a9df1b275e2de0f2655ca9a848286604051612adc929190613ddf565b60405180910390a2505050919050565b60605f8060025f9054906101000a900473ffffffffffffffffffffffffffffffffffffffff1673ffffffffffffffffffffffffffffffffffffffff16639fd1162786866040518363ffffffff1660e01b8152600401612b4c929190613ddf565b5f60405180830381865afa158015612b66573d5f803e3d5ffd5b505050506040513d5f823e3d601f19601f82011682018060405250810190612b8e9190613c1d565b90505f815167ffffffffffffffff811115612bac57612bab6138c2565b5b604051908082528060200260200182016040528015612bda5781602001602082028036833780820191505090505b5090505f5b8251811015612e63575f838281518110612bfc57612bfb61397f565b5b602002602001015190505f8060025f9054906101000a900473ffffffffffffffffffffffffffffffffffffffff1673ffffffffffffffffffffffffffffffffffffffff1663a96de4f5848c6040518363ffffffff1660e01b8152600401612c64929190613abf565b6040805180830381865afa158015612c7e573d5f803e3d5ffd5b505050506040513d601f19601f82011682018060405250810190612ca29190613e44565b9150915081612cb357505050612e56565b8879ffffffffffffffffffffffffffffffffffffffffffffffffffff19168179ffffffffffffffffffffffffffffffffffffffffffffffffffff191614612cfc57505050612e56565b5f8060025f9054906101000a900473ffffffffffffffffffffffffffffffffffffffff1673ffffffffffffffffffffffffffffffffffffffff1663c106aee3868e6040518363ffffffff1660e01b8152600401612d5a929190613abf565b6040805180830381865afa158015612d74573d5f803e3d5ffd5b505050506040513d601f19601f82011682018060405250810190612d989190613e44565b9150915081612dab575050505050612e56565b8a79ffffffffffffffffffffffffffffffffffffffffffffffffffff19168179ffffffffffffffffffffffffffffffffffffffffffffffffffff191614612df6575050505050612e56565b84878a80612e0390613854565b9b5081518110612e1657612e1561397f565b5b602002602001019073ffffffffffffffffffffffffffffffffffffffff16908173ffffffffffffffffffffffffffffffffffffffff168152505050505050505b8080600101915050612bdf565b508267ffffffffffffffff811115612e7e57612e7d6138c2565b5b604051908082528060200260200182016040528015612eac5781602001602082028036833780820191505090505b5093505f5b83811015612f2e57818181518110612ecc57612ecb61397f565b5b6020026020010151858281518110612ee757612ee661397f565b5b602002602001019073ffffffffffffffffffffffffffffffffffffffff16908173ffffffffffffffffffffffffffffffffffffffff16815250508080600101915050612eb1565b5050509250929050565b5f805f600c5492505f600f54118015612f5057505f83115b15612fba575f612710600f5485612f679190613a7e565b612f719190613e82565b90508084612f7f9190613a4b565b93507f85fcfc84baa0423652490bdd8531f642a3376cb202145025b549fb449516e5a881604051612fb091906136cc565b60405180910390a1505b5f8391505f851115612ff1578484612fd29190613e82565b92508483612fe09190613a7e565b90508084612fee9190613a4b565b91505b5f5b858110156130915760125f8981526020019081526020015f2087828151811061301f5761301e61397f565b5b6020026020010151908060018154018082558091505060019003905f5260205f20015f9091909190916101000a81548173ffffffffffffffffffffffffffffffffffffffff021916908373ffffffffffffffffffffffffffffffffffffffff1602179055508080600101915050612ff3565b508360115f8981526020019081526020015f20819055508260135f8981526020019081526020015f20819055508160145f8981526020019081526020015f208190555080600d5f8282546130e591906138ef565b9250508190555081600c819055505093509350939050565b5f60025f9054906101000a900473ffffffffffffffffffffffffffffffffffffffff1673ffffffffffffffffffffffffffffffffffffffff1663454ac84e836040518263ffffffff1660e01b815260040161315891906136cc565b5f60405180830381865afa158015613172573d5f803e3d5ffd5b505050506040513d5f823e3d601f19601f8201168201806040525081019061319a9190613c1d565b90505f5b81518110156133e0575f60025f9054906101000a900473ffffffffffffffffffffffffffffffffffffffff1673ffffffffffffffffffffffffffffffffffffffff1663b8a740e08484815181106131f8576131f761397f565b5b6020026020010151866040518363ffffffff1660e01b815260040161321e929190613abf565b60e060405180830381865afa158015613239573d5f803e3d5ffd5b505050506040513d601f19601f8201168201806040525081019061325d9190613efc565b50505050925050506008548110156133d25760028161327c91906138ef565b600854111561332d5760025f9054906101000a900473ffffffffffffffffffffffffffffffffffffffff1673ffffffffffffffffffffffffffffffffffffffff16637a03ce4f8484815181106132d5576132d461397f565b5b6020026020010151866040518363ffffffff1660e01b81526004016132fb929190613abf565b5f604051808303815f87803b158015613312575f80fd5b505af1158015613324573d5f803e3d5ffd5b505050506133d1565b60025f9054906101000a900473ffffffffffffffffffffffffffffffffffffffff1673ffffffffffffffffffffffffffffffffffffffff166347f43ef284848151811061337d5761337c61397f565b5b6020026020010151866040518363ffffffff1660e01b81526004016133a3929190613abf565b5f604051808303815f87803b1580156133ba575f80fd5b505af11580156133cc573d5f803e3d5ffd5b505050505b5b50808060010191505061319e565b505050565b5f60026133f86133f36129de565b612a07565b5f015414905090565b5f604051905090565b5f80fd5b5f80fd5b5f819050919050565b61342481613412565b811461342e575f80fd5b50565b5f8135905061343f8161341b565b92915050565b5f6020828403121561345a5761345961340a565b5b5f61346784828501613431565b91505092915050565b5f7fffffffffffff000000000000000000000000000000000000000000000000000082169050919050565b6134a481613470565b82525050565b6134b381613412565b82525050565b5f81519050919050565b5f82825260208201905092915050565b5f819050602082019050919050565b5f73ffffffffffffffffffffffffffffffffffffffff82169050919050565b5f61350b826134e2565b9050919050565b61351b81613501565b82525050565b5f61352c8383613512565b60208301905092915050565b5f602082019050919050565b5f61354e826134b9565b61355881856134c3565b9350613563836134d3565b805f5b8381101561359357815161357a8882613521565b975061358583613538565b925050600181019050613566565b5085935050505092915050565b5f60a0820190506135b35f83018861349b565b6135c060208301876134aa565b81810360408301526135d28186613544565b90506135e160608301856134aa565b6135ee60808301846134aa565b9695505050505050565b5f806040838503121561360e5761360d61340a565b5b5f61361b85828601613431565b925050602061362c85828601613431565b9150509250929050565b61363f81613501565b82525050565b5f6020820190506136585f830184613636565b92915050565b61366781613501565b8114613671575f80fd5b50565b5f813590506136828161365e565b92915050565b5f6020828403121561369d5761369c61340a565b5b5f6136aa84828501613674565b91505092915050565b5f6020820190506136c65f83018461349b565b92915050565b5f6020820190506136df5f8301846134aa565b92915050565b5f8115159050919050565b6136f9816136e5565b82525050565b5f610100820190506137135f83018b6134aa565b613720602083018a6134aa565b61372d60408301896134aa565b61373a60608301886134aa565b613747608083018761349b565b61375460a08301866134aa565b61376160c08301856134aa565b61376e60e08301846136f0565b9998505050505050505050565b5f60208201905061378e5f8301846136f0565b92915050565b5f80604083850312156137aa576137a961340a565b5b5f6137b785828601613431565b92505060206137c885828601613674565b9150509250929050565b6137db816136e5565b81146137e5575f80fd5b50565b5f813590506137f6816137d2565b92915050565b5f602082840312156138115761381061340a565b5b5f61381e848285016137e8565b91505092915050565b7f4e487b71000000000000000000000000000000000000000000000000000000005f52601160045260245ffd5b5f61385e82613412565b91507fffffffffffffffffffffffffffffffffffffffffffffffffffffffffffffffff82036138905761388f613827565b5b600182019050919050565b5f6040820190506138ae5f8301856134aa565b6138bb60208301846134aa565b9392505050565b7f4e487b71000000000000000000000000000000000000000000000000000000005f52604160045260245ffd5b5f6138f982613412565b915061390483613412565b925082820190508082111561391c5761391b613827565b5b92915050565b7f4e487b71000000000000000000000000000000000000000000000000000000005f52601260045260245ffd5b5f61395982613412565b915061396483613412565b92508261397457613973613922565b5b828206905092915050565b7f4e487b71000000000000000000000000000000000000000000000000000000005f52603260045260245ffd5b5f81519050919050565b5f819050602082019050919050565b5f6139d08251613470565b80915050919050565b5f82821b905092915050565b5f6139ef826139ac565b826139f9846139b6565b9050613a04816139c5565b92506006821015613a4457613a3f7fffffffffffff0000000000000000000000000000000000000000000000000000836006036008026139d9565b831692505b5050919050565b5f613a5582613412565b9150613a6083613412565b9250828203905081811115613a7857613a77613827565b5b92915050565b5f613a8882613412565b9150613a9383613412565b9250828202613aa181613412565b91508282048414831517613ab857613ab7613827565b5b5092915050565b5f604082019050613ad25f830185613636565b613adf60208301846134aa565b9392505050565b5f80fd5b5f601f19601f8301169050919050565b613b0382613aea565b810181811067ffffffffffffffff82111715613b2257613b216138c2565b5b80604052505050565b5f613b34613401565b9050613b408282613afa565b919050565b5f67ffffffffffffffff821115613b5f57613b5e6138c2565b5b602082029050602081019050919050565b5f80fd5b5f81519050613b828161365e565b92915050565b5f613b9a613b9584613b45565b613b2b565b90508083825260208201905060208402830185811115613bbd57613bbc613b70565b5b835b81811015613be65780613bd28882613b74565b845260208401935050602081019050613bbf565b5050509392505050565b5f82601f830112613c0457613c03613ae6565b5b8151613c14848260208601613b88565b91505092915050565b5f60208284031215613c3257613c3161340a565b5b5f82015167ffffffffffffffff811115613c4f57613c4e61340e565b5b613c5b84828501613bf0565b91505092915050565b5f60c082019050613c775f83018961349b565b613c8460208301886134aa565b613c9160408301876134aa565b613c9e60608301866134aa565b613cab60808301856134aa565b613cb860a08301846134aa565b979650505050505050565b5f819050919050565b5f819050919050565b5f613cef613cea613ce584613cc3565b613ccc565b613412565b9050919050565b613cff81613cd5565b82525050565b5f604082019050613d185f830185613cf6565b613d2560208301846134aa565b9392505050565b5f604082019050613d3f5f8301856134aa565b8181036020830152613d518184613544565b90509392505050565b5f819050919050565b5f819050919050565b613d7d613d7882613d5a565b613d63565b82525050565b5f819050919050565b613d9d613d9882613412565b613d83565b82525050565b5f613dae8286613d6c565b602082019150613dbe8285613d8c565b602082019150613dce8284613d8c565b602082019150819050949350505050565b5f604082019050613df25f8301856134aa565b613dff602083018461349b565b9392505050565b5f81519050613e14816137d2565b92915050565b613e2381613470565b8114613e2d575f80fd5b50565b5f81519050613e3e81613e1a565b92915050565b5f8060408385031215613e5a57613e5961340a565b5b5f613e6785828601613e06565b9250506020613e7885828601613e30565b9150509250929050565b5f613e8c82613412565b9150613e9783613412565b925082613ea757613ea6613922565b5b828204905092915050565b5f81519050613ec08161341b565b92915050565b5f60ff82169050919050565b613edb81613ec6565b8114613ee5575f80fd5b50565b5f81519050613ef681613ed2565b92915050565b5f805f805f805f60e0888a031215613f1757613f1661340a565b5b5f613f248a828b01613e30565b9750506020613f358a828b01613eb2565b9650506040613f468a828b01613eb2565b9550506060613f578a828b01613eb2565b9450506080613f688a828b01613b74565b93505060a0613f798a828b01613ee8565b92505060c0613f8a8a828b01613e06565b9150509295989194975092955056fe4142434445464748494a4b4c4d4e4f505152535455565758595a30313233343536373839a26469706673582212201113c57a0faccb6494665372421b31883502531a9d6ebffc4fc2ce8d81ad8b1a64736f6c63430008180033",
			"opcodes": "PUSH1 0x80 PUSH1 0x40 MSTORE CALLVALUE DUP1 ISZERO PUSH3 0x10 JUMPI PUSH0 DUP1 REVERT JUMPDEST POP PUSH1 0x40 MLOAD PUSH3 0x450D CODESIZE SUB DUP1 PUSH3 0x450D DUP4 CODECOPY DUP2 DUP2 ADD PUSH1 0x40 MSTORE DUP2 ADD SWAP1 PUSH3 0x36 SWAP2 SWAP1 PUSH3 0x487 JUMP JUMPDEST CALLER PUSH0 PUSH20 0xFFFFFFFFFFFFFFFFFFFFFFFFFFFFFFFFFFFFFFFF AND DUP2 PUSH20 0xFFFFFFFFFFFFFFFFFFFFFFFFFFFFFFFFFFFFFFFF AND SUB PUSH3 0xAA JUMPI PUSH0 PUSH1 0x40 MLOAD PUSH32 0x1E4FBDF700000000000000000000000000000000000000000000000000000000 DUP2 MSTORE PUSH1 0x4 ADD PUSH3 0xA1 SWAP2 SWAP1 PUSH3 0x4F1 JUMP JUMPDEST PUSH1 0x40 MLOAD DUP1 SWAP2 SUB SWAP1 REVERT JUMPDEST PUSH3 0xBB DUP2 PUSH3 0x32F PUSH1 0x20 SHL PUSH1 0x20 SHR JUMP JUMPDEST POP PUSH1 0x1 PUSH3 0xDE PUSH3 0xD2 PUSH3 0x3F0 PUSH1 0x20 SHL PUSH1 0x20 SHR JUMP JUMPDEST PUSH3 0x419 PUSH1 0x20 SHL PUSH1 0x20 SHR JUMP JUMPDEST PUSH0 ADD DUP2 SWAP1 SSTORE POP PUSH0 PUSH20 0xFFFFFFFFFFFFFFFFFFFFFFFFFFFFFFFFFFFFFFFF AND DUP4 PUSH20 0xFFFFFFFFFFFFFFFFFFFFFFFFFFFFFFFFFFFFFFFF AND SUB PUSH3 0x14A JUMPI PUSH1 0x40 MLOAD PUSH32 0xD92E233D00000000000000000000000000000000000000000000000000000000 DUP2 MSTORE PUSH1 0x4 ADD PUSH1 0x40 MLOAD DUP1 SWAP2 SUB SWAP1 REVERT JUMPDEST PUSH0 PUSH20 0xFFFFFFFFFFFFFFFFFFFFFFFFFFFFFFFFFFFFFFFF AND DUP3 PUSH20 0xFFFFFFFFFFFFFFFFFFFFFFFFFFFFFFFFFFFFFFFF AND SUB PUSH3 0x1B0 JUMPI PUSH1 0x40 MLOAD PUSH32 0xD92E233D00000000000000000000000000000000000000000000000000000000 DUP2 MSTORE PUSH1 0x4 ADD PUSH1 0x40 MLOAD DUP1 SWAP2 SUB SWAP1 REVERT JUMPDEST PUSH0 PUSH20 0xFFFFFFFFFFFFFFFFFFFFFFFFFFFFFFFFFFFFFFFF AND DUP2 PUSH20 0xFFFFFFFFFFFFFFFFFFFFFFFFFFFFFFFFFFFFFFFF AND SUB PUSH3 0x216 JUMPI PUSH1 0x40 MLOAD PUSH32 0xD92E233D00000000000000000000000000000000000000000000000000000000 DUP2 MSTORE PUSH1 0x4 ADD PUSH1 0x40 MLOAD DUP1 SWAP2 SUB SWAP1 REVERT JUMPDEST DUP3 PUSH1 0x1 PUSH0 PUSH2 0x100 EXP DUP2 SLOAD DUP2 PUSH20 0xFFFFFFFFFFFFFFFFFFFFFFFFFFFFFFFFFFFFFFFF MUL NOT AND SWAP1 DUP4 PUSH20 0xFFFFFFFFFFFFFFFFFFFFFFFFFFFFFFFFFFFFFFFF AND MUL OR SWAP1 SSTORE POP DUP2 PUSH1 0x2 PUSH0 PUSH2 0x100 EXP DUP2 SLOAD DUP2 PUSH20 0xFFFFFFFFFFFFFFFFFFFFFFFFFFFFFFFFFFFFFFFF MUL NOT AND SWAP1 DUP4 PUSH20 0xFFFFFFFFFFFFFFFFFFFFFFFFFFFFFFFFFFFFFFFF AND MUL OR SWAP1 SSTORE POP DUP1 PUSH1 0x3 PUSH0 PUSH2 0x100 EXP DUP2 SLOAD DUP2 PUSH20 0xFFFFFFFFFFFFFFFFFFFFFFFFFFFFFFFFFFFFFFFF MUL NOT AND SWAP1 DUP4 PUSH20 0xFFFFFFFFFFFFFFFFFFFFFFFFFFFFFFFFFFFFFFFF AND MUL OR SWAP1 SSTORE POP CALLER PUSH1 0x5 PUSH0 PUSH2 0x100 EXP DUP2 SLOAD DUP2 PUSH20 0xFFFFFFFFFFFFFFFFFFFFFFFFFFFFFFFFFFFFFFFF MUL NOT AND SWAP1 DUP4 PUSH20 0xFFFFFFFFFFFFFFFFFFFFFFFFFFFFFFFFFFFFFFFF AND MUL OR SWAP1 SSTORE POP PUSH1 0x3 PUSH1 0xE DUP2 SWAP1 SSTORE POP PUSH1 0xC8 PUSH1 0xF DUP2 SWAP1 SSTORE POP POP POP POP PUSH3 0x50C JUMP JUMPDEST PUSH0 DUP1 PUSH0 SWAP1 SLOAD SWAP1 PUSH2 0x100 EXP SWAP1 DIV PUSH20 0xFFFFFFFFFFFFFFFFFFFFFFFFFFFFFFFFFFFFFFFF AND SWAP1 POP DUP2 PUSH0 DUP1 PUSH2 0x100 EXP DUP2 SLOAD DUP2 PUSH20 0xFFFFFFFFFFFFFFFFFFFFFFFFFFFFFFFFFFFFFFFF MUL NOT AND SWAP1 DUP4 PUSH20 0xFFFFFFFFFFFFFFFFFFFFFFFFFFFFFFFFFFFFFFFF AND MUL OR SWAP1 SSTORE POP DUP2 PUSH20 0xFFFFFFFFFFFFFFFFFFFFFFFFFFFFFFFFFFFFFFFF AND DUP2 PUSH20 0xFFFFFFFFFFFFFFFFFFFFFFFFFFFFFFFFFFFFFFFF AND PUSH32 0x8BE0079C531659141344CD1FD0A4F28419497F9722A3DAAFE3B4186F6B6457E0 PUSH1 0x40 MLOAD PUSH1 0x40 MLOAD DUP1 SWAP2 SUB SWAP1 LOG3 POP POP JUMP JUMPDEST PUSH0 PUSH32 0x9B779B17422D0DF92223018B32B4D1FA46E071723D6817E2486D003BECC55F00 PUSH0 SHL SWAP1 POP SWAP1 JUMP JUMPDEST PUSH0 DUP2 SWAP1 POP SWAP2 SWAP1 POP JUMP JUMPDEST PUSH0 DUP1 REVERT JUMPDEST PUSH0 PUSH20 0xFFFFFFFFFFFFFFFFFFFFFFFFFFFFFFFFFFFFFFFF DUP3 AND SWAP1 POP SWAP2 SWAP1 POP JUMP JUMPDEST PUSH0 PUSH3 0x451 DUP3 PUSH3 0x426 JUMP JUMPDEST SWAP1 POP SWAP2 SWAP1 POP JUMP JUMPDEST PUSH3 0x463 DUP2 PUSH3 0x445 JUMP JUMPDEST DUP2 EQ PUSH3 0x46E JUMPI PUSH0 DUP1 REVERT JUMPDEST POP JUMP JUMPDEST PUSH0 DUP2 MLOAD SWAP1 POP PUSH3 0x481 DUP2 PUSH3 0x458 JUMP JUMPDEST SWAP3 SWAP2 POP POP JUMP JUMPDEST PUSH0 DUP1 PUSH0 PUSH1 0x60 DUP5 DUP7 SUB SLT ISZERO PUSH3 0x4A1 JUMPI PUSH3 0x4A0 PUSH3 0x422 JUMP JUMPDEST JUMPDEST PUSH0 PUSH3 0x4B0 DUP7 DUP3 DUP8 ADD PUSH3 0x471 JUMP JUMPDEST SWAP4 POP POP PUSH1 0x20 PUSH3 0x4C3 DUP7 DUP3 DUP8 ADD PUSH3 0x471 JUMP JUMPDEST SWAP3 POP POP PUSH1 0x40 PUSH3 0x4D6 DUP7 DUP3 DUP8 ADD PUSH3 0x471 JUMP JUMPDEST SWAP2 POP POP SWAP3 POP SWAP3 POP SWAP3 JUMP JUMPDEST PUSH3 0x4EB DUP2 PUSH3 0x445 JUMP JUMPDEST DUP3 MSTORE POP POP JUMP JUMPDEST PUSH0 PUSH1 0x20 DUP3 ADD SWAP1 POP PUSH3 0x506 PUSH0 DUP4 ADD DUP5 PUSH3 0x4E0 JUMP JUMPDEST SWAP3 SWAP2 POP POP JUMP JUMPDEST PUSH2 0x3FF3 DUP1 PUSH3 0x51A PUSH0 CODECOPY PUSH0 RETURN INVALID PUSH1 0x80 PUSH1 0x40 MSTORE PUSH1 0x4 CALLDATASIZE LT PUSH2 0x36A JUMPI PUSH0 CALLDATALOAD PUSH1 0xE0 SHR DUP1 PUSH4 0x873F6F9E GT PUSH2 0x1C5 JUMPI DUP1 PUSH4 0xC33B7586 GT PUSH2 0xF6 JUMPI DUP1 PUSH4 0xDD898B2F GT PUSH2 0x94 JUMPI DUP1 PUSH4 0xF13AFB90 GT PUSH2 0x6E JUMPI DUP1 PUSH4 0xF13AFB90 EQ PUSH2 0xB8F JUMPI DUP1 PUSH4 0xF2FDE38B EQ PUSH2 0xBB7 JUMPI DUP1 PUSH4 0xF82A23D1 EQ PUSH2 0xBDF JUMPI DUP1 PUSH4 0xF887EA40 EQ PUSH2 0xC1B JUMPI PUSH2 0x36A JUMP JUMPDEST DUP1 PUSH4 0xDD898B2F EQ PUSH2 0xB29 JUMPI DUP1 PUSH4 0xE9755B59 EQ PUSH2 0xB51 JUMPI DUP1 PUSH4 0xEBD2FE41 EQ PUSH2 0xB67 JUMPI PUSH2 0x36A JUMP JUMPDEST DUP1 PUSH4 0xD38970BC GT PUSH2 0xD0 JUMPI DUP1 PUSH4 0xD38970BC EQ PUSH2 0xAA9 JUMPI DUP1 PUSH4 0xD57F9525 EQ PUSH2 0xAD3 JUMPI DUP1 PUSH4 0xD65AB5F2 EQ PUSH2 0xAE9 JUMPI DUP1 PUSH4 0xDA090755 EQ PUSH2 0xAFF JUMPI PUSH2 0x36A JUMP JUMPDEST DUP1 PUSH4 0xC33B7586 EQ PUSH2 0xA2B JUMPI DUP1 PUSH4 0xC74B817D EQ PUSH2 0xA55 JUMPI DUP1 PUSH4 0xCC16FE5B EQ PUSH2 0xA7F JUMPI PUSH2 0x36A JUMP JUMPDEST DUP1 PUSH4 0xA1A016A3 GT PUSH2 0x163 JUMPI DUP1 PUSH4 0xB2721164 GT PUSH2 0x13D JUMPI DUP1 PUSH4 0xB2721164 EQ PUSH2 0x973 JUMPI DUP1 PUSH4 0xB303FEEB EQ PUSH2 0x99D JUMPI DUP1 PUSH4 0xB7BC5FB6 EQ PUSH2 0x9D9 JUMPI DUP1 PUSH4 0xC0D78655 EQ PUSH2 0xA03 JUMPI PUSH2 0x36A JUMP JUMPDEST DUP1 PUSH4 0xA1A016A3 EQ PUSH2 0x8F5 JUMPI DUP1 PUSH4 0xAB221A76 EQ PUSH2 0x91F JUMPI DUP1 PUSH4 0xAC650783 EQ PUSH2 0x949 JUMPI PUSH2 0x36A JUMP JUMPDEST DUP1 PUSH4 0x8E6A134B GT PUSH2 0x19F JUMPI DUP1 PUSH4 0x8E6A134B EQ PUSH2 0x85B JUMPI DUP1 PUSH4 0x92EAA9D9 EQ PUSH2 0x897 JUMPI DUP1 PUSH4 0x99B465CB EQ PUSH2 0x8C1 JUMPI DUP1 PUSH4 0x9C737E8F EQ PUSH2 0x8EB JUMPI PUSH2 0x36A JUMP JUMPDEST DUP1 PUSH4 0x873F6F9E EQ PUSH2 0x7CB JUMPI DUP1 PUSH4 0x8A19C8BC EQ PUSH2 0x807 JUMPI DUP1 PUSH4 0x8DA5CB5B EQ PUSH2 0x831 JUMPI PUSH2 0x36A JUMP JUMPDEST DUP1 PUSH4 0x41D67D06 GT PUSH2 0x29F JUMPI DUP1 PUSH4 0x677BD9FF GT PUSH2 0x23D JUMPI DUP1 PUSH4 0x77043591 GT PUSH2 0x217 JUMPI DUP1 PUSH4 0x77043591 EQ PUSH2 0x6FF JUMPI DUP1 PUSH4 0x79EEDBDD EQ PUSH2 0x729 JUMPI DUP1 PUSH4 0x7F35D49F EQ PUSH2 0x765 JUMPI DUP1 PUSH4 0x7F79BA59 EQ PUSH2 0x78F JUMPI PUSH2 0x36A JUMP JUMPDEST DUP1 PUSH4 0x677BD9FF EQ PUSH2 0x6AB JUMPI DUP1 PUSH4 0x715018A6 EQ PUSH2 0x6D3 JUMPI DUP1 PUSH4 0x76D9FF2C EQ PUSH2 0x6E9 JUMPI PUSH2 0x36A JUMP JUMPDEST DUP1 PUSH4 0x5E123CE4 GT PUSH2 0x279 JUMPI DUP1 PUSH4 0x5E123CE4 EQ PUSH2 0x605 JUMPI DUP1 PUSH4 0x5F303F1C EQ PUSH2 0x62F JUMPI DUP1 PUSH4 0x63D5AB8D EQ PUSH2 0x657 JUMPI DUP1 PUSH4 0x6641EA08 EQ PUSH2 0x681 JUMPI PUSH2 0x36A JUMP JUMPDEST DUP1 PUSH4 0x41D67D06 EQ PUSH2 0x59D JUMPI DUP1 PUSH4 0x456990C7 EQ PUSH2 0x5C7 JUMPI DUP1 PUSH4 0x46A662BF EQ PUSH2 0x5EF JUMPI PUSH2 0x36A JUMP JUMPDEST DUP1 PUSH4 0x1A3B8E8C GT PUSH2 0x30C JUMPI DUP1 PUSH4 0x293C2958 GT PUSH2 0x2E6 JUMPI DUP1 PUSH4 0x293C2958 EQ PUSH2 0x4EE JUMPI DUP1 PUSH4 0x2EE0C463 EQ PUSH2 0x51F JUMPI DUP1 PUSH4 0x3DEB6CAE EQ PUSH2 0x549 JUMPI DUP1 PUSH4 0x4168632D EQ PUSH2 0x573 JUMPI PUSH2 0x36A JUMP JUMPDEST DUP1 PUSH4 0x1A3B8E8C EQ PUSH2 0x472 JUMPI DUP1 PUSH4 0x1AD41D14 EQ PUSH2 0x49C JUMPI DUP1 PUSH4 0x231E832D EQ PUSH2 0x4C4 JUMPI PUSH2 0x36A JUMP JUMPDEST DUP1 PUSH4 0xA8506CA GT PUSH2 0x348 JUMPI DUP1 PUSH4 0xA8506CA EQ PUSH2 0x412 JUMPI DUP1 PUSH4 0xB7A567B EQ PUSH2 0x428 JUMPI DUP1 PUSH4 0xF67E7D5 EQ PUSH2 0x43E JUMPI DUP1 PUSH4 0x17EBF6AE EQ PUSH2 0x468 JUMPI PUSH2 0x36A JUMP JUMPDEST DUP1 PUSH4 0x2E28C70 EQ PUSH2 0x36E JUMPI DUP1 PUSH4 0x3E3CD6A EQ PUSH2 0x3AE JUMPI DUP1 PUSH4 0x7F19EBA EQ PUSH2 0x3EA JUMPI JUMPDEST PUSH0 DUP1 REVERT JUMPDEST CALLVALUE DUP1 ISZERO PUSH2 0x379 JUMPI PUSH0 DUP1 REVERT JUMPDEST POP PUSH2 0x394 PUSH1 0x4 DUP1 CALLDATASIZE SUB DUP2 ADD SWAP1 PUSH2 0x38F SWAP2 SWAP1 PUSH2 0x3445 JUMP JUMPDEST PUSH2 0xC45 JUMP JUMPDEST PUSH1 0x40 MLOAD PUSH2 0x3A5 SWAP6 SWAP5 SWAP4 SWAP3 SWAP2 SWAP1 PUSH2 0x35A0 JUMP JUMPDEST PUSH1 0x40 MLOAD DUP1 SWAP2 SUB SWAP1 RETURN JUMPDEST CALLVALUE DUP1 ISZERO PUSH2 0x3B9 JUMPI PUSH0 DUP1 REVERT JUMPDEST POP PUSH2 0x3D4 PUSH1 0x4 DUP1 CALLDATASIZE SUB DUP2 ADD SWAP1 PUSH2 0x3CF SWAP2 SWAP1 PUSH2 0x35F8 JUMP JUMPDEST PUSH2 0xD45 JUMP JUMPDEST PUSH1 0x40 MLOAD PUSH2 0x3E1 SWAP2 SWAP1 PUSH2 0x3645 JUMP JUMPDEST PUSH1 0x40 MLOAD DUP1 SWAP2 SUB SWAP1 RETURN JUMPDEST CALLVALUE DUP1 ISZERO PUSH2 0x3F5 JUMPI PUSH0 DUP1 REVERT JUMPDEST POP PUSH2 0x410 PUSH1 0x4 DUP1 CALLDATASIZE SUB DUP2 ADD SWAP1 PUSH2 0x40B SWAP2 SWAP1 PUSH2 0x3688 JUMP JUMPDEST PUSH2 0xD8D JUMP JUMPDEST STOP JUMPDEST CALLVALUE DUP1 ISZERO PUSH2 0x41D JUMPI PUSH0 DUP1 REVERT JUMPDEST POP PUSH2 0x426 PUSH2 0xE80 JUMP JUMPDEST STOP JUMPDEST CALLVALUE DUP1 ISZERO PUSH2 0x433 JUMPI PUSH0 DUP1 REVERT JUMPDEST POP PUSH2 0x43C PUSH2 0xEA4 JUMP JUMPDEST STOP JUMPDEST CALLVALUE DUP1 ISZERO PUSH2 0x449 JUMPI PUSH0 DUP1 REVERT JUMPDEST POP PUSH2 0x452 PUSH2 0x1017 JUMP JUMPDEST PUSH1 0x40 MLOAD PUSH2 0x45F SWAP2 SWAP1 PUSH2 0x36B3 JUMP JUMPDEST PUSH1 0x40 MLOAD DUP1 SWAP2 SUB SWAP1 RETURN JUMPDEST PUSH2 0x470 PUSH2 0x1122 JUMP JUMPDEST STOP JUMPDEST CALLVALUE DUP1 ISZERO PUSH2 0x47D JUMPI PUSH0 DUP1 REVERT JUMPDEST POP PUSH2 0x486 PUSH2 0x1241 JUMP JUMPDEST PUSH1 0x40 MLOAD PUSH2 0x493 SWAP2 SWAP1 PUSH2 0x3645 JUMP JUMPDEST PUSH1 0x40 MLOAD DUP1 SWAP2 SUB SWAP1 RETURN JUMPDEST CALLVALUE DUP1 ISZERO PUSH2 0x4A7 JUMPI PUSH0 DUP1 REVERT JUMPDEST POP PUSH2 0x4C2 PUSH1 0x4 DUP1 CALLDATASIZE SUB DUP2 ADD SWAP1 PUSH2 0x4BD SWAP2 SWAP1 PUSH2 0x3445 JUMP JUMPDEST PUSH2 0x1266 JUMP JUMPDEST STOP JUMPDEST CALLVALUE DUP1 ISZERO PUSH2 0x4CF JUMPI PUSH0 DUP1 REVERT JUMPDEST POP PUSH2 0x4D8 PUSH2 0x12E8 JUMP JUMPDEST PUSH1 0x40 MLOAD PUSH2 0x4E5 SWAP2 SWAP1 PUSH2 0x36CC JUMP JUMPDEST PUSH1 0x40 MLOAD DUP1 SWAP2 SUB SWAP1 RETURN JUMPDEST CALLVALUE DUP1 ISZERO PUSH2 0x4F9 JUMPI PUSH0 DUP1 REVERT JUMPDEST POP PUSH2 0x502 PUSH2 0x12FA JUMP JUMPDEST PUSH1 0x40 MLOAD PUSH2 0x516 SWAP9 SWAP8 SWAP7 SWAP6 SWAP5 SWAP4 SWAP3 SWAP2 SWAP1 PUSH2 0x36FF JUMP JUMPDEST PUSH1 0x40 MLOAD DUP1 SWAP2 SUB SWAP1 RETURN JUMPDEST CALLVALUE DUP1 ISZERO PUSH2 0x52A JUMPI PUSH0 DUP1 REVERT JUMPDEST POP PUSH2 0x533 PUSH2 0x133E JUMP JUMPDEST PUSH1 0x40 MLOAD PUSH2 0x540 SWAP2 SWAP1 PUSH2 0x377B JUMP JUMPDEST PUSH1 0x40 MLOAD DUP1 SWAP2 SUB SWAP1 RETURN JUMPDEST CALLVALUE DUP1 ISZERO PUSH2 0x554 JUMPI PUSH0 DUP1 REVERT JUMPDEST POP PUSH2 0x55D PUSH2 0x1350 JUMP JUMPDEST PUSH1 0x40 MLOAD PUSH2 0x56A SWAP2 SWAP1 PUSH2 0x36CC JUMP JUMPDEST PUSH1 0x40 MLOAD DUP1 SWAP2 SUB SWAP1 RETURN JUMPDEST CALLVALUE DUP1 ISZERO PUSH2 0x57E JUMPI PUSH0 DUP1 REVERT JUMPDEST POP PUSH2 0x587 PUSH2 0x1355 JUMP JUMPDEST PUSH1 0x40 MLOAD PUSH2 0x594 SWAP2 SWAP1 PUSH2 0x377B JUMP JUMPDEST PUSH1 0x40 MLOAD DUP1 SWAP2 SUB SWAP1 RETURN JUMPDEST CALLVALUE DUP1 ISZERO PUSH2 0x5A8 JUMPI PUSH0 DUP1 REVERT JUMPDEST POP PUSH2 0x5B1 PUSH2 0x1368 JUMP JUMPDEST PUSH1 0x40 MLOAD PUSH2 0x5BE SWAP2 SWAP1 PUSH2 0x36CC JUMP JUMPDEST PUSH1 0x40 MLOAD DUP1 SWAP2 SUB SWAP1 RETURN JUMPDEST CALLVALUE DUP1 ISZERO PUSH2 0x5D2 JUMPI PUSH0 DUP1 REVERT JUMPDEST POP PUSH2 0x5ED PUSH1 0x4 DUP1 CALLDATASIZE SUB DUP2 ADD SWAP1 PUSH2 0x5E8 SWAP2 SWAP1 PUSH2 0x3445 JUMP JUMPDEST PUSH2 0x136E JUMP JUMPDEST STOP JUMPDEST CALLVALUE DUP1 ISZERO PUSH2 0x5FA JUMPI PUSH0 DUP1 REVERT JUMPDEST POP PUSH2 0x603 PUSH2 0x13F3 JUMP JUMPDEST STOP JUMPDEST CALLVALUE DUP1 ISZERO PUSH2 0x610 JUMPI PUSH0 DUP1 REVERT JUMPDEST POP PUSH2 0x619 PUSH2 0x15E9 JUMP JUMPDEST PUSH1 0x40 MLOAD PUSH2 0x626 SWAP2 SWAP1 PUSH2 0x377B JUMP JUMPDEST PUSH1 0x40 MLOAD DUP1 SWAP2 SUB SWAP1 RETURN JUMPDEST CALLVALUE DUP1 ISZERO PUSH2 0x63A JUMPI PUSH0 DUP1 REVERT JUMPDEST POP PUSH2 0x655 PUSH1 0x4 DUP1 CALLDATASIZE SUB DUP2 ADD SWAP1 PUSH2 0x650 SWAP2 SWAP1 PUSH2 0x3688 JUMP JUMPDEST PUSH2 0x15FB JUMP JUMPDEST STOP JUMPDEST CALLVALUE DUP1 ISZERO PUSH2 0x662 JUMPI PUSH0 DUP1 REVERT JUMPDEST POP PUSH2 0x66B PUSH2 0x16AB JUMP JUMPDEST PUSH1 0x40 MLOAD PUSH2 0x678 SWAP2 SWAP1 PUSH2 0x36CC JUMP JUMPDEST PUSH1 0x40 MLOAD DUP1 SWAP2 SUB SWAP1 RETURN JUMPDEST CALLVALUE DUP1 ISZERO PUSH2 0x68C JUMPI PUSH0 DUP1 REVERT JUMPDEST POP PUSH2 0x695 PUSH2 0x16B1 JUMP JUMPDEST PUSH1 0x40 MLOAD PUSH2 0x6A2 SWAP2 SWAP1 PUSH2 0x36CC JUMP JUMPDEST PUSH1 0x40 MLOAD DUP1 SWAP2 SUB SWAP1 RETURN JUMPDEST CALLVALUE DUP1 ISZERO PUSH2 0x6B6 JUMPI PUSH0 DUP1 REVERT JUMPDEST POP PUSH2 0x6D1 PUSH1 0x4 DUP1 CALLDATASIZE SUB DUP2 ADD SWAP1 PUSH2 0x6CC SWAP2 SWAP1 PUSH2 0x3445 JUMP JUMPDEST PUSH2 0x16CF JUMP JUMPDEST STOP JUMPDEST CALLVALUE DUP1 ISZERO PUSH2 0x6DE JUMPI PUSH0 DUP1 REVERT JUMPDEST POP PUSH2 0x6E7 PUSH2 0x1BB0 JUMP JUMPDEST STOP JUMPDEST CALLVALUE DUP1 ISZERO PUSH2 0x6F4 JUMPI PUSH0 DUP1 REVERT JUMPDEST POP PUSH2 0x6FD PUSH2 0x1BC3 JUMP JUMPDEST STOP JUMPDEST CALLVALUE DUP1 ISZERO PUSH2 0x70A JUMPI PUSH0 DUP1 REVERT JUMPDEST POP PUSH2 0x713 PUSH2 0x1BE7 JUMP JUMPDEST PUSH1 0x40 MLOAD PUSH2 0x720 SWAP2 SWAP1 PUSH2 0x36CC JUMP JUMPDEST PUSH1 0x40 MLOAD DUP1 SWAP2 SUB SWAP1 RETURN JUMPDEST CALLVALUE DUP1 ISZERO PUSH2 0x734 JUMPI PUSH0 DUP1 REVERT JUMPDEST POP PUSH2 0x74F PUSH1 0x4 DUP1 CALLDATASIZE SUB DUP2 ADD SWAP1 PUSH2 0x74A SWAP2 SWAP1 PUSH2 0x3445 JUMP JUMPDEST PUSH2 0x1BED JUMP JUMPDEST PUSH1 0x40 MLOAD PUSH2 0x75C SWAP2 SWAP1 PUSH2 0x36B3 JUMP JUMPDEST PUSH1 0x40 MLOAD DUP1 SWAP2 SUB SWAP1 RETURN JUMPDEST CALLVALUE DUP1 ISZERO PUSH2 0x770 JUMPI PUSH0 DUP1 REVERT JUMPDEST POP PUSH2 0x779 PUSH2 0x1C0A JUMP JUMPDEST PUSH1 0x40 MLOAD PUSH2 0x786 SWAP2 SWAP1 PUSH2 0x36CC JUMP JUMPDEST PUSH1 0x40 MLOAD DUP1 SWAP2 SUB SWAP1 RETURN JUMPDEST CALLVALUE DUP1 ISZERO PUSH2 0x79A JUMPI PUSH0 DUP1 REVERT JUMPDEST POP PUSH2 0x7B5 PUSH1 0x4 DUP1 CALLDATASIZE SUB DUP2 ADD SWAP1 PUSH2 0x7B0 SWAP2 SWAP1 PUSH2 0x3445 JUMP JUMPDEST PUSH2 0x1C10 JUMP JUMPDEST PUSH1 0x40 MLOAD PUSH2 0x7C2 SWAP2 SWAP1 PUSH2 0x36CC JUMP JUMPDEST PUSH1 0x40 MLOAD DUP1 SWAP2 SUB SWAP1 RETURN JUMPDEST CALLVALUE DUP1 ISZERO PUSH2 0x7D6 JUMPI PUSH0 DUP1 REVERT JUMPDEST POP PUSH2 0x7F1 PUSH1 0x4 DUP1 CALLDATASIZE SUB DUP2 ADD SWAP1 PUSH2 0x7EC SWAP2 SWAP1 PUSH2 0x3794 JUMP JUMPDEST PUSH2 0x1C25 JUMP JUMPDEST PUSH1 0x40 MLOAD PUSH2 0x7FE SWAP2 SWAP1 PUSH2 0x377B JUMP JUMPDEST PUSH1 0x40 MLOAD DUP1 SWAP2 SUB SWAP1 RETURN JUMPDEST CALLVALUE DUP1 ISZERO PUSH2 0x812 JUMPI PUSH0 DUP1 REVERT JUMPDEST POP PUSH2 0x81B PUSH2 0x1C4F JUMP JUMPDEST PUSH1 0x40 MLOAD PUSH2 0x828 SWAP2 SWAP1 PUSH2 0x36CC JUMP JUMPDEST PUSH1 0x40 MLOAD DUP1 SWAP2 SUB SWAP1 RETURN JUMPDEST CALLVALUE DUP1 ISZERO PUSH2 0x83C JUMPI PUSH0 DUP1 REVERT JUMPDEST POP PUSH2 0x845 PUSH2 0x1C55 JUMP JUMPDEST PUSH1 0x40 MLOAD PUSH2 0x852 SWAP2 SWAP1 PUSH2 0x3645 JUMP JUMPDEST PUSH1 0x40 MLOAD DUP1 SWAP2 SUB SWAP1 RETURN JUMPDEST CALLVALUE DUP1 ISZERO PUSH2 0x866 JUMPI PUSH0 DUP1 REVERT JUMPDEST POP PUSH2 0x881 PUSH1 0x4 DUP1 CALLDATASIZE SUB DUP2 ADD SWAP1 PUSH2 0x87C SWAP2 SWAP1 PUSH2 0x3445 JUMP JUMPDEST PUSH2 0x1C7C JUMP JUMPDEST PUSH1 0x40 MLOAD PUSH2 0x88E SWAP2 SWAP1 PUSH2 0x36B3 JUMP JUMPDEST PUSH1 0x40 MLOAD DUP1 SWAP2 SUB SWAP1 RETURN JUMPDEST CALLVALUE DUP1 ISZERO PUSH2 0x8A2 JUMPI PUSH0 DUP1 REVERT JUMPDEST POP PUSH2 0x8AB PUSH2 0x1D87 JUMP JUMPDEST PUSH1 0x40 MLOAD PUSH2 0x8B8 SWAP2 SWAP1 PUSH2 0x3645 JUMP JUMPDEST PUSH1 0x40 MLOAD DUP1 SWAP2 SUB SWAP1 RETURN JUMPDEST CALLVALUE DUP1 ISZERO PUSH2 0x8CC JUMPI PUSH0 DUP1 REVERT JUMPDEST POP PUSH2 0x8D5 PUSH2 0x1DAC JUMP JUMPDEST PUSH1 0x40 MLOAD PUSH2 0x8E2 SWAP2 SWAP1 PUSH2 0x36CC JUMP JUMPDEST PUSH1 0x40 MLOAD DUP1 SWAP2 SUB SWAP1 RETURN JUMPDEST PUSH2 0x8F3 PUSH2 0x1DB2 JUMP JUMPDEST STOP JUMPDEST CALLVALUE DUP1 ISZERO PUSH2 0x900 JUMPI PUSH0 DUP1 REVERT JUMPDEST POP PUSH2 0x909 PUSH2 0x1ED9 JUMP JUMPDEST PUSH1 0x40 MLOAD PUSH2 0x916 SWAP2 SWAP1 PUSH2 0x36CC JUMP JUMPDEST PUSH1 0x40 MLOAD DUP1 SWAP2 SUB SWAP1 RETURN JUMPDEST CALLVALUE DUP1 ISZERO PUSH2 0x92A JUMPI PUSH0 DUP1 REVERT JUMPDEST POP PUSH2 0x933 PUSH2 0x1F12 JUMP JUMPDEST PUSH1 0x40 MLOAD PUSH2 0x940 SWAP2 SWAP1 PUSH2 0x3645 JUMP JUMPDEST PUSH1 0x40 MLOAD DUP1 SWAP2 SUB SWAP1 RETURN JUMPDEST CALLVALUE DUP1 ISZERO PUSH2 0x954 JUMPI PUSH0 DUP1 REVERT JUMPDEST POP PUSH2 0x95D PUSH2 0x1F37 JUMP JUMPDEST PUSH1 0x40 MLOAD PUSH2 0x96A SWAP2 SWAP1 PUSH2 0x36CC JUMP JUMPDEST PUSH1 0x40 MLOAD DUP1 SWAP2 SUB SWAP1 RETURN JUMPDEST CALLVALUE DUP1 ISZERO PUSH2 0x97E JUMPI PUSH0 DUP1 REVERT JUMPDEST POP PUSH2 0x987 PUSH2 0x1F3C JUMP JUMPDEST PUSH1 0x40 MLOAD PUSH2 0x994 SWAP2 SWAP1 PUSH2 0x36CC JUMP JUMPDEST PUSH1 0x40 MLOAD DUP1 SWAP2 SUB SWAP1 RETURN JUMPDEST CALLVALUE DUP1 ISZERO PUSH2 0x9A8 JUMPI PUSH0 DUP1 REVERT JUMPDEST POP PUSH2 0x9C3 PUSH1 0x4 DUP1 CALLDATASIZE SUB DUP2 ADD SWAP1 PUSH2 0x9BE SWAP2 SWAP1 PUSH2 0x3445 JUMP JUMPDEST PUSH2 0x1F42 JUMP JUMPDEST PUSH1 0x40 MLOAD PUSH2 0x9D0 SWAP2 SWAP1 PUSH2 0x36CC JUMP JUMPDEST PUSH1 0x40 MLOAD DUP1 SWAP2 SUB SWAP1 RETURN JUMPDEST CALLVALUE DUP1 ISZERO PUSH2 0x9E4 JUMPI PUSH0 DUP1 REVERT JUMPDEST POP PUSH2 0x9ED PUSH2 0x1F57 JUMP JUMPDEST PUSH1 0x40 MLOAD PUSH2 0x9FA SWAP2 SWAP1 PUSH2 0x36CC JUMP JUMPDEST PUSH1 0x40 MLOAD DUP1 SWAP2 SUB SWAP1 RETURN JUMPDEST CALLVALUE DUP1 ISZERO PUSH2 0xA0E JUMPI PUSH0 DUP1 REVERT JUMPDEST POP PUSH2 0xA29 PUSH1 0x4 DUP1 CALLDATASIZE SUB DUP2 ADD SWAP1 PUSH2 0xA24 SWAP2 SWAP1 PUSH2 0x3688 JUMP JUMPDEST PUSH2 0x1F5C JUMP JUMPDEST STOP JUMPDEST CALLVALUE DUP1 ISZERO PUSH2 0xA36 JUMPI PUSH0 DUP1 REVERT JUMPDEST POP PUSH2 0xA3F PUSH2 0x200C JUMP JUMPDEST PUSH1 0x40 MLOAD PUSH2 0xA4C SWAP2 SWAP1 PUSH2 0x377B JUMP JUMPDEST PUSH1 0x40 MLOAD DUP1 SWAP2 SUB SWAP1 RETURN JUMPDEST CALLVALUE DUP1 ISZERO PUSH2 0xA60 JUMPI PUSH0 DUP1 REVERT JUMPDEST POP PUSH2 0xA69 PUSH2 0x201A JUMP JUMPDEST PUSH1 0x40 MLOAD PUSH2 0xA76 SWAP2 SWAP1 PUSH2 0x377B JUMP JUMPDEST PUSH1 0x40 MLOAD DUP1 SWAP2 SUB SWAP1 RETURN JUMPDEST CALLVALUE DUP1 ISZERO PUSH2 0xA8A JUMPI PUSH0 DUP1 REVERT JUMPDEST POP PUSH2 0xA93 PUSH2 0x202C JUMP JUMPDEST PUSH1 0x40 MLOAD PUSH2 0xAA0 SWAP2 SWAP1 PUSH2 0x36CC JUMP JUMPDEST PUSH1 0x40 MLOAD DUP1 SWAP2 SUB SWAP1 RETURN JUMPDEST CALLVALUE DUP1 ISZERO PUSH2 0xAB4 JUMPI PUSH0 DUP1 REVERT JUMPDEST POP PUSH2 0xABD PUSH2 0x2032 JUMP JUMPDEST PUSH1 0x40 MLOAD PUSH2 0xACA SWAP2 SWAP1 PUSH2 0x36CC JUMP JUMPDEST PUSH1 0x40 MLOAD DUP1 SWAP2 SUB SWAP1 RETURN JUMPDEST CALLVALUE DUP1 ISZERO PUSH2 0xADE JUMPI PUSH0 DUP1 REVERT JUMPDEST POP PUSH2 0xAE7 PUSH2 0x2038 JUMP JUMPDEST STOP JUMPDEST CALLVALUE DUP1 ISZERO PUSH2 0xAF4 JUMPI PUSH0 DUP1 REVERT JUMPDEST POP PUSH2 0xAFD PUSH2 0x205D JUMP JUMPDEST STOP JUMPDEST CALLVALUE DUP1 ISZERO PUSH2 0xB0A JUMPI PUSH0 DUP1 REVERT JUMPDEST POP PUSH2 0xB13 PUSH2 0x2221 JUMP JUMPDEST PUSH1 0x40 MLOAD PUSH2 0xB20 SWAP2 SWAP1 PUSH2 0x3645 JUMP JUMPDEST PUSH1 0x40 MLOAD DUP1 SWAP2 SUB SWAP1 RETURN JUMPDEST CALLVALUE DUP1 ISZERO PUSH2 0xB34 JUMPI PUSH0 DUP1 REVERT JUMPDEST POP PUSH2 0xB4F PUSH1 0x4 DUP1 CALLDATASIZE SUB DUP2 ADD SWAP1 PUSH2 0xB4A SWAP2 SWAP1 PUSH2 0x3688 JUMP JUMPDEST PUSH2 0x2246 JUMP JUMPDEST STOP JUMPDEST CALLVALUE DUP1 ISZERO PUSH2 0xB5C JUMPI PUSH0 DUP1 REVERT JUMPDEST POP PUSH2 0xB65 PUSH2 0x22F6 JUMP JUMPDEST STOP JUMPDEST CALLVALUE DUP1 ISZERO PUSH2 0xB72 JUMPI PUSH0 DUP1 REVERT JUMPDEST POP PUSH2 0xB8D PUSH1 0x4 DUP1 CALLDATASIZE SUB DUP2 ADD SWAP1 PUSH2 0xB88 SWAP2 SWAP1 PUSH2 0x37FC JUMP JUMPDEST PUSH2 0x2319 JUMP JUMPDEST STOP JUMPDEST CALLVALUE DUP1 ISZERO PUSH2 0xB9A JUMPI PUSH0 DUP1 REVERT JUMPDEST POP PUSH2 0xBB5 PUSH1 0x4 DUP1 CALLDATASIZE SUB DUP2 ADD SWAP1 PUSH2 0xBB0 SWAP2 SWAP1 PUSH2 0x3688 JUMP JUMPDEST PUSH2 0x233D JUMP JUMPDEST STOP JUMPDEST CALLVALUE DUP1 ISZERO PUSH2 0xBC2 JUMPI PUSH0 DUP1 REVERT JUMPDEST POP PUSH2 0xBDD PUSH1 0x4 DUP1 CALLDATASIZE SUB DUP2 ADD SWAP1 PUSH2 0xBD8 SWAP2 SWAP1 PUSH2 0x3688 JUMP JUMPDEST PUSH2 0x2388 JUMP JUMPDEST STOP JUMPDEST CALLVALUE DUP1 ISZERO PUSH2 0xBEA JUMPI PUSH0 DUP1 REVERT JUMPDEST POP PUSH2 0xC05 PUSH1 0x4 DUP1 CALLDATASIZE SUB DUP2 ADD SWAP1 PUSH2 0xC00 SWAP2 SWAP1 PUSH2 0x3445 JUMP JUMPDEST PUSH2 0x240C JUMP JUMPDEST PUSH1 0x40 MLOAD PUSH2 0xC12 SWAP2 SWAP1 PUSH2 0x36CC JUMP JUMPDEST PUSH1 0x40 MLOAD DUP1 SWAP2 SUB SWAP1 RETURN JUMPDEST CALLVALUE DUP1 ISZERO PUSH2 0xC26 JUMPI PUSH0 DUP1 REVERT JUMPDEST POP PUSH2 0xC2F PUSH2 0x2421 JUMP JUMPDEST PUSH1 0x40 MLOAD PUSH2 0xC3C SWAP2 SWAP1 PUSH2 0x3645 JUMP JUMPDEST PUSH1 0x40 MLOAD DUP1 SWAP2 SUB SWAP1 RETURN JUMPDEST PUSH0 DUP1 PUSH1 0x60 PUSH0 DUP1 PUSH1 0x10 PUSH0 DUP8 DUP2 MSTORE PUSH1 0x20 ADD SWAP1 DUP2 MSTORE PUSH1 0x20 ADD PUSH0 KECCAK256 PUSH0 SWAP1 SLOAD SWAP1 PUSH2 0x100 EXP SWAP1 DIV PUSH1 0xD0 SHL SWAP5 POP PUSH1 0x11 PUSH0 DUP8 DUP2 MSTORE PUSH1 0x20 ADD SWAP1 DUP2 MSTORE PUSH1 0x20 ADD PUSH0 KECCAK256 SLOAD SWAP4 POP PUSH1 0x12 PUSH0 DUP8 DUP2 MSTORE PUSH1 0x20 ADD SWAP1 DUP2 MSTORE PUSH1 0x20 ADD PUSH0 KECCAK256 DUP1 SLOAD DUP1 PUSH1 0x20 MUL PUSH1 0x20 ADD PUSH1 0x40 MLOAD SWAP1 DUP2 ADD PUSH1 0x40 MSTORE DUP1 SWAP3 SWAP2 SWAP1 DUP2 DUP2 MSTORE PUSH1 0x20 ADD DUP3 DUP1 SLOAD DUP1 ISZERO PUSH2 0xD0D JUMPI PUSH1 0x20 MUL DUP3 ADD SWAP2 SWAP1 PUSH0 MSTORE PUSH1 0x20 PUSH0 KECCAK256 SWAP1 JUMPDEST DUP2 PUSH0 SWAP1 SLOAD SWAP1 PUSH2 0x100 EXP SWAP1 DIV PUSH20 0xFFFFFFFFFFFFFFFFFFFFFFFFFFFFFFFFFFFFFFFF AND PUSH20 0xFFFFFFFFFFFFFFFFFFFFFFFFFFFFFFFFFFFFFFFF AND DUP2 MSTORE PUSH1 0x20 ADD SWAP1 PUSH1 0x1 ADD SWAP1 DUP1 DUP4 GT PUSH2 0xCC4 JUMPI JUMPDEST POP POP POP POP POP SWAP3 POP PUSH1 0x13 PUSH0 DUP8 DUP2 MSTORE PUSH1 0x20 ADD SWAP1 DUP2 MSTORE PUSH1 0x20 ADD PUSH0 KECCAK256 SLOAD SWAP2 POP PUSH1 0x14 PUSH0 DUP8 DUP2 MSTORE PUSH1 0x20 ADD SWAP1 DUP2 MSTORE PUSH1 0x20 ADD PUSH0 KECCAK256 SLOAD SWAP1 POP SWAP2 SWAP4 SWAP6 SWAP1 SWAP3 SWAP5 POP JUMP JUMPDEST PUSH1 0x12 PUSH1 0x20 MSTORE DUP2 PUSH0 MSTORE PUSH1 0x40 PUSH0 KECCAK256 DUP2 DUP2 SLOAD DUP2 LT PUSH2 0xD5E JUMPI PUSH0 DUP1 REVERT JUMPDEST SWAP1 PUSH0 MSTORE PUSH1 0x20 PUSH0 KECCAK256 ADD PUSH0 SWAP2 POP SWAP2 POP SWAP1 SLOAD SWAP1 PUSH2 0x100 EXP SWAP1 DIV PUSH20 0xFFFFFFFFFFFFFFFFFFFFFFFFFFFFFFFFFFFFFFFF AND DUP2 JUMP JUMPDEST PUSH2 0xD95 PUSH2 0x2446 JUMP JUMPDEST PUSH0 PUSH20 0xFFFFFFFFFFFFFFFFFFFFFFFFFFFFFFFFFFFFFFFF AND DUP2 PUSH20 0xFFFFFFFFFFFFFFFFFFFFFFFFFFFFFFFFFFFFFFFF AND SUB PUSH2 0xDFA JUMPI PUSH1 0x40 MLOAD PUSH32 0xD92E233D00000000000000000000000000000000000000000000000000000000 DUP2 MSTORE PUSH1 0x4 ADD PUSH1 0x40 MLOAD DUP1 SWAP2 SUB SWAP1 REVERT JUMPDEST DUP1 PUSH1 0x5 PUSH0 PUSH2 0x100 EXP DUP2 SLOAD DUP2 PUSH20 0xFFFFFFFFFFFFFFFFFFFFFFFFFFFFFFFFFFFFFFFF MUL NOT AND SWAP1 DUP4 PUSH20 0xFFFFFFFFFFFFFFFFFFFFFFFFFFFFFFFFFFFFFFFF AND MUL OR SWAP1 SSTORE POP DUP1 PUSH20 0xFFFFFFFFFFFFFFFFFFFFFFFFFFFFFFFFFFFFFFFF AND PUSH32 0x1F53E003AAF46AF23AEB50E85F438D6F0C33618CE44E3545F1EC030C79B17729 PUSH1 0x40 MLOAD PUSH1 0x40 MLOAD DUP1 SWAP2 SUB SWAP1 LOG2 POP JUMP JUMPDEST PUSH2 0xE88 PUSH2 0x2446 JUMP JUMPDEST PUSH1 0x1 PUSH1 0x16 PUSH0 PUSH2 0x100 EXP DUP2 SLOAD DUP2 PUSH1 0xFF MUL NOT AND SWAP1 DUP4 ISZERO ISZERO MUL OR SWAP1 SSTORE POP JUMP JUMPDEST PUSH2 0xEAC PUSH2 0x24CD JUMP JUMPDEST PUSH1 0x3 PUSH0 SWAP1 SLOAD SWAP1 PUSH2 0x100 EXP SWAP1 DIV PUSH20 0xFFFFFFFFFFFFFFFFFFFFFFFFFFFFFFFFFFFFFFFF AND PUSH20 0xFFFFFFFFFFFFFFFFFFFFFFFFFFFFFFFFFFFFFFFF AND CALLER PUSH20 0xFFFFFFFFFFFFFFFFFFFFFFFFFFFFFFFFFFFFFFFF AND EQ PUSH2 0xF32 JUMPI PUSH1 0x40 MLOAD PUSH32 0x9165520100000000000000000000000000000000000000000000000000000000 DUP2 MSTORE PUSH1 0x4 ADD PUSH1 0x40 MLOAD DUP1 SWAP2 SUB SWAP1 REVERT JUMPDEST PUSH1 0xB PUSH0 SWAP1 SLOAD SWAP1 PUSH2 0x100 EXP SWAP1 DIV PUSH1 0xFF AND PUSH2 0xF77 JUMPI PUSH1 0x40 MLOAD PUSH32 0x3A5F7B5700000000000000000000000000000000000000000000000000000000 DUP2 MSTORE PUSH1 0x4 ADD PUSH1 0x40 MLOAD DUP1 SWAP2 SUB SWAP1 REVERT JUMPDEST PUSH2 0xF7F PUSH2 0x24EF JUMP JUMPDEST ISZERO PUSH2 0xFB6 JUMPI PUSH1 0x40 MLOAD PUSH32 0x717824FB00000000000000000000000000000000000000000000000000000000 DUP2 MSTORE PUSH1 0x4 ADD PUSH1 0x40 MLOAD DUP1 SWAP2 SUB SWAP1 REVERT JUMPDEST PUSH1 0x6 PUSH0 DUP2 SLOAD DUP1 SWAP3 SWAP2 SWAP1 PUSH2 0xFC8 SWAP1 PUSH2 0x3854 JUMP JUMPDEST SWAP2 SWAP1 POP SSTORE POP PUSH1 0x8 SLOAD PUSH32 0x494D93A08DCA016BFF87FC5E35DE704731B23D47EB35DA9499BE2DDB7536DA22 PUSH1 0x6 SLOAD PUSH1 0x9 SLOAD PUSH1 0x40 MLOAD PUSH2 0x1005 SWAP3 SWAP2 SWAP1 PUSH2 0x389B JUMP JUMPDEST PUSH1 0x40 MLOAD DUP1 SWAP2 SUB SWAP1 LOG2 PUSH2 0x1015 PUSH2 0x2529 JUMP JUMPDEST JUMP JUMPDEST PUSH0 DUP1 PUSH1 0x6 PUSH8 0xFFFFFFFFFFFFFFFF DUP2 GT ISZERO PUSH2 0x1034 JUMPI PUSH2 0x1033 PUSH2 0x38C2 JUMP JUMPDEST JUMPDEST PUSH1 0x40 MLOAD SWAP1 DUP1 DUP3 MSTORE DUP1 PUSH1 0x1F ADD PUSH1 0x1F NOT AND PUSH1 0x20 ADD DUP3 ADD PUSH1 0x40 MSTORE DUP1 ISZERO PUSH2 0x1066 JUMPI DUP2 PUSH1 0x20 ADD PUSH1 0x1 DUP3 MUL DUP1 CALLDATASIZE DUP4 CALLDATACOPY DUP1 DUP3 ADD SWAP2 POP POP SWAP1 POP JUMPDEST POP SWAP1 POP PUSH0 JUMPDEST PUSH1 0x6 DUP2 LT ISZERO PUSH2 0x1111 JUMPI PUSH1 0x40 MLOAD DUP1 PUSH1 0x60 ADD PUSH1 0x40 MSTORE DUP1 PUSH1 0x24 DUP2 MSTORE PUSH1 0x20 ADD PUSH2 0x3F9A PUSH1 0x24 SWAP2 CODECOPY PUSH1 0x24 DUP3 PUSH1 0x6 SLOAD PUSH2 0x109D SWAP2 SWAP1 PUSH2 0x38EF JUMP JUMPDEST PUSH2 0x10A7 SWAP2 SWAP1 PUSH2 0x394F JUMP JUMPDEST DUP2 MLOAD DUP2 LT PUSH2 0x10B8 JUMPI PUSH2 0x10B7 PUSH2 0x397F JUMP JUMPDEST JUMPDEST PUSH1 0x20 ADD ADD MLOAD PUSH1 0xF8 SHR PUSH1 0xF8 SHL DUP3 DUP3 DUP2 MLOAD DUP2 LT PUSH2 0x10D6 JUMPI PUSH2 0x10D5 PUSH2 0x397F JUMP JUMPDEST JUMPDEST PUSH1 0x20 ADD ADD SWAP1 PUSH31 0xFFFFFFFFFFFFFFFFFFFFFFFFFFFFFFFFFFFFFFFFFFFFFFFFFFFFFFFFFFFFFF NOT AND SWAP1 DUP2 PUSH0 BYTE SWAP1 MSTORE8 POP DUP1 DUP1 PUSH1 0x1 ADD SWAP2 POP POP PUSH2 0x106B JUMP JUMPDEST POP DUP1 PUSH2 0x111C SWAP1 PUSH2 0x39E5 JUMP JUMPDEST SWAP2 POP POP SWAP1 JUMP JUMPDEST PUSH0 CALLVALUE SUB PUSH2 0x115B JUMPI PUSH1 0x40 MLOAD PUSH32 0x1F2A200500000000000000000000000000000000000000000000000000000000 DUP2 MSTORE PUSH1 0x4 ADD PUSH1 0x40 MLOAD DUP1 SWAP2 SUB SWAP1 REVERT JUMPDEST CALLVALUE PUSH1 0xC PUSH0 DUP3 DUP3 SLOAD PUSH2 0x116C SWAP2 SWAP1 PUSH2 0x38EF JUMP JUMPDEST SWAP3 POP POP DUP2 SWAP1 SSTORE POP PUSH1 0x1 PUSH0 SWAP1 SLOAD SWAP1 PUSH2 0x100 EXP SWAP1 DIV PUSH20 0xFFFFFFFFFFFFFFFFFFFFFFFFFFFFFFFFFFFFFFFF AND PUSH20 0xFFFFFFFFFFFFFFFFFFFFFFFFFFFFFFFFFFFFFFFF AND PUSH4 0xD0E30DB0 CALLVALUE PUSH1 0x40 MLOAD DUP3 PUSH4 0xFFFFFFFF AND PUSH1 0xE0 SHL DUP2 MSTORE PUSH1 0x4 ADD PUSH0 PUSH1 0x40 MLOAD DUP1 DUP4 SUB DUP2 DUP6 DUP9 DUP1 EXTCODESIZE ISZERO DUP1 ISZERO PUSH2 0x11DA JUMPI PUSH0 DUP1 REVERT JUMPDEST POP GAS CALL ISZERO DUP1 ISZERO PUSH2 0x11EC JUMPI RETURNDATASIZE PUSH0 DUP1 RETURNDATACOPY RETURNDATASIZE PUSH0 REVERT JUMPDEST POP POP POP POP POP CALLER PUSH20 0xFFFFFFFFFFFFFFFFFFFFFFFFFFFFFFFFFFFFFFFF AND PUSH32 0xF0D496561FE25891CA8568B6877B038238629D8DBE5777373589BECE931DC172 CALLVALUE PUSH1 0x40 MLOAD PUSH2 0x1237 SWAP2 SWAP1 PUSH2 0x36CC JUMP JUMPDEST PUSH1 0x40 MLOAD DUP1 SWAP2 SUB SWAP1 LOG2 JUMP JUMPDEST PUSH1 0x1 PUSH0 SWAP1 SLOAD SWAP1 PUSH2 0x100 EXP SWAP1 DIV PUSH20 0xFFFFFFFFFFFFFFFFFFFFFFFFFFFFFFFFFFFFFFFF AND DUP2 JUMP JUMPDEST PUSH2 0x126E PUSH2 0x2446 JUMP JUMPDEST PUSH0 DUP2 SUB PUSH2 0x12A7 JUMPI PUSH1 0x40 MLOAD PUSH32 0x804A1E0200000000000000000000000000000000000000000000000000000000 DUP2 MSTORE PUSH1 0x4 ADD PUSH1 0x40 MLOAD DUP1 SWAP2 SUB SWAP1 REVERT JUMPDEST DUP1 PUSH1 0xE DUP2 SWAP1 SSTORE POP PUSH32 0x1E64FF98418E31D486498B471741CC3FF92302FA146E6E124E3025186CFAB465 DUP2 PUSH1 0x40 MLOAD PUSH2 0x12DD SWAP2 SWAP1 PUSH2 0x36CC JUMP JUMPDEST PUSH1 0x40 MLOAD DUP1 SWAP2 SUB SWAP1 LOG1 POP JUMP JUMPDEST PUSH1 0xF PUSH2 0xE01 PUSH2 0x12F7 SWAP2 SWAP1 PUSH2 0x38EF JUMP JUMPDEST DUP2 JUMP JUMPDEST PUSH0 DUP1 PUSH0 DUP1 PUSH0 DUP1 PUSH0 DUP1 PUSH1 0x8 SLOAD SWAP8 POP PUSH1 0x9 SLOAD SWAP7 POP PUSH1 0xA SLOAD SWAP6 POP PUSH1 0x6 SLOAD SWAP5 POP PUSH2 0x131E PUSH2 0x1017 JUMP JUMPDEST SWAP4 POP PUSH1 0xC SLOAD SWAP3 POP PUSH1 0xD SLOAD SWAP2 POP PUSH2 0x1332 PUSH2 0x24EF JUMP JUMPDEST SWAP1 POP SWAP1 SWAP2 SWAP3 SWAP4 SWAP5 SWAP6 SWAP7 SWAP8 JUMP JUMPDEST PUSH1 0x16 PUSH0 SWAP1 SLOAD SWAP1 PUSH2 0x100 EXP SWAP1 DIV PUSH1 0xFF AND DUP2 JUMP JUMPDEST PUSH1 0xF DUP2 JUMP JUMPDEST PUSH1 0x16 PUSH1 0x1 SWAP1 SLOAD SWAP1 PUSH2 0x100 EXP SWAP1 DIV PUSH1 0xFF AND DUP2 JUMP JUMPDEST PUSH1 0xF SLOAD DUP2 JUMP JUMPDEST PUSH2 0x1376 PUSH2 0x2446 JUMP JUMPDEST PUSH2 0x3E8 DUP2 GT ISZERO PUSH2 0x13B2 JUMPI PUSH1 0x40 MLOAD PUSH32 0x1F2A200500000000000000000000000000000000000000000000000000000000 DUP2 MSTORE PUSH1 0x4 ADD PUSH1 0x40 MLOAD DUP1 SWAP2 SUB SWAP1 REVERT JUMPDEST DUP1 PUSH1 0xF DUP2 SWAP1 SSTORE POP PUSH32 0x21B2CFEF155ACF409755EC06F4F701C8D13A5B6339FE8D1EE89AFB57318F7084 DUP2 PUSH1 0x40 MLOAD PUSH2 0x13E8 SWAP2 SWAP1 PUSH2 0x36CC JUMP JUMPDEST PUSH1 0x40 MLOAD DUP1 SWAP2 SUB SWAP1 LOG1 POP JUMP JUMPDEST PUSH2 0x13FB PUSH2 0x24CD JUMP JUMPDEST PUSH1 0x5 PUSH0 SWAP1 SLOAD SWAP1 PUSH2 0x100 EXP SWAP1 DIV PUSH20 0xFFFFFFFFFFFFFFFFFFFFFFFFFFFFFFFFFFFFFFFF AND PUSH20 0xFFFFFFFFFFFFFFFFFFFFFFFFFFFFFFFFFFFFFFFF AND CALLER PUSH20 0xFFFFFFFFFFFFFFFFFFFFFFFFFFFFFFFFFFFFFFFF AND EQ PUSH2 0x1481 JUMPI PUSH1 0x40 MLOAD PUSH32 0x5B9433300000000000000000000000000000000000000000000000000000000 DUP2 MSTORE PUSH1 0x4 ADD PUSH1 0x40 MLOAD DUP1 SWAP2 SUB SWAP1 REVERT JUMPDEST PUSH1 0xB PUSH0 SWAP1 SLOAD SWAP1 PUSH2 0x100 EXP SWAP1 DIV PUSH1 0xFF AND PUSH2 0x14C6 JUMPI PUSH1 0x40 MLOAD PUSH32 0x3A5F7B5700000000000000000000000000000000000000000000000000000000 DUP2 MSTORE PUSH1 0x4 ADD PUSH1 0x40 MLOAD DUP1 SWAP2 SUB SWAP1 REVERT JUMPDEST PUSH1 0x16 PUSH1 0x1 SWAP1 SLOAD SWAP1 PUSH2 0x100 EXP SWAP1 DIV PUSH1 0xFF AND ISZERO PUSH2 0x150D JUMPI PUSH1 0x40 MLOAD PUSH32 0x4C211CCD00000000000000000000000000000000000000000000000000000000 DUP2 MSTORE PUSH1 0x4 ADD PUSH1 0x40 MLOAD DUP1 SWAP2 SUB SWAP1 REVERT JUMPDEST PUSH0 PUSH1 0xA SLOAD TIMESTAMP PUSH2 0x151C SWAP2 SWAP1 PUSH2 0x3A4B JUMP JUMPDEST SWAP1 POP PUSH2 0xE01 DUP2 LT ISZERO PUSH2 0x1569 JUMPI DUP1 PUSH2 0xE01 PUSH1 0x40 MLOAD PUSH32 0x58D2146E00000000000000000000000000000000000000000000000000000000 DUP2 MSTORE PUSH1 0x4 ADD PUSH2 0x1560 SWAP3 SWAP2 SWAP1 PUSH2 0x389B JUMP JUMPDEST PUSH1 0x40 MLOAD DUP1 SWAP2 SUB SWAP1 REVERT JUMPDEST PUSH1 0x6 PUSH1 0x9 SLOAD LT ISZERO PUSH2 0x15D5 JUMPI PUSH1 0x9 PUSH0 DUP2 SLOAD DUP1 SWAP3 SWAP2 SWAP1 PUSH2 0x1586 SWAP1 PUSH2 0x3854 JUMP JUMPDEST SWAP2 SWAP1 POP SSTORE POP TIMESTAMP PUSH1 0xA DUP2 SWAP1 SSTORE POP PUSH1 0x8 SLOAD PUSH32 0xE9A2985393FA4BB459D73D85249DF3B5923E70FB93B7B9C307E72359AB167587 PUSH1 0x9 SLOAD TIMESTAMP PUSH1 0x40 MLOAD PUSH2 0x15C8 SWAP3 SWAP2 SWAP1 PUSH2 0x389B JUMP JUMPDEST PUSH1 0x40 MLOAD DUP1 SWAP2 SUB SWAP1 LOG2 PUSH2 0x15DE JUMP JUMPDEST PUSH2 0x15DD PUSH2 0x2543 JUMP JUMPDEST JUMPDEST POP PUSH2 0x15E7 PUSH2 0x2529 JUMP JUMPDEST JUMP JUMPDEST PUSH1 0xB PUSH0 SWAP1 SLOAD SWAP1 PUSH2 0x100 EXP SWAP1 DIV PUSH1 0xFF AND DUP2 JUMP JUMPDEST PUSH2 0x1603 PUSH2 0x2446 JUMP JUMPDEST PUSH0 PUSH20 0xFFFFFFFFFFFFFFFFFFFFFFFFFFFFFFFFFFFFFFFF AND DUP2 PUSH20 0xFFFFFFFFFFFFFFFFFFFFFFFFFFFFFFFFFFFFFFFF AND SUB PUSH2 0x1668 JUMPI PUSH1 0x40 MLOAD PUSH32 0xD92E233D00000000000000000000000000000000000000000000000000000000 DUP2 MSTORE PUSH1 0x4 ADD PUSH1 0x40 MLOAD DUP1 SWAP2 SUB SWAP1 REVERT JUMPDEST DUP1 PUSH1 0x1 PUSH0 PUSH2 0x100 EXP DUP2 SLOAD DUP2 PUSH20 0xFFFFFFFFFFFFFFFFFFFFFFFFFFFFFFFFFFFFFFFF MUL NOT AND SWAP1 DUP4 PUSH20 0xFFFFFFFFFFFFFFFFFFFFFFFFFFFFFFFFFFFFFFFF AND MUL OR SWAP1 SSTORE POP POP JUMP JUMPDEST PUSH1 0x6 SLOAD DUP2 JUMP JUMPDEST PUSH1 0x6 PUSH1 0xF PUSH2 0xE01 PUSH2 0x16C2 SWAP2 SWAP1 PUSH2 0x38EF JUMP JUMPDEST PUSH2 0x16CC SWAP2 SWAP1 PUSH2 0x3A7E JUMP JUMPDEST DUP2 JUMP JUMPDEST PUSH2 0x16D7 PUSH2 0x24CD JUMP JUMPDEST PUSH1 0xB PUSH0 SWAP1 SLOAD SWAP1 PUSH2 0x100 EXP SWAP1 DIV PUSH1 0xFF AND PUSH2 0x171C JUMPI PUSH1 0x40 MLOAD PUSH32 0x3A5F7B5700000000000000000000000000000000000000000000000000000000 DUP2 MSTORE PUSH1 0x4 ADD PUSH1 0x40 MLOAD DUP1 SWAP2 SUB SWAP1 REVERT JUMPDEST PUSH0 PUSH1 0xD0 SHL PUSH26 0xFFFFFFFFFFFFFFFFFFFFFFFFFFFFFFFFFFFFFFFFFFFFFFFFFFFF NOT AND PUSH1 0x10 PUSH0 DUP4 DUP2 MSTORE PUSH1 0x20 ADD SWAP1 DUP2 MSTORE PUSH1 0x20 ADD PUSH0 KECCAK256 PUSH0 SWAP1 SLOAD SWAP1 PUSH2 0x100 EXP SWAP1 DIV PUSH1 0xD0 SHL PUSH26 0xFFFFFFFFFFFFFFFFFFFFFFFFFFFFFFFFFFFFFFFFFFFFFFFFFFFF NOT AND SUB PUSH2 0x17BA JUMPI DUP1 PUSH1 0x40 MLOAD PUSH32 0xCD1FDCDE00000000000000000000000000000000000000000000000000000000 DUP2 MSTORE PUSH1 0x4 ADD PUSH2 0x17B1 SWAP2 SWAP1 PUSH2 0x36CC JUMP JUMPDEST PUSH1 0x40 MLOAD DUP1 SWAP2 SUB SWAP1 REVERT JUMPDEST PUSH1 0x15 PUSH0 DUP3 DUP2 MSTORE PUSH1 0x20 ADD SWAP1 DUP2 MSTORE PUSH1 0x20 ADD PUSH0 KECCAK256 PUSH0 CALLER PUSH20 0xFFFFFFFFFFFFFFFFFFFFFFFFFFFFFFFFFFFFFFFF AND PUSH20 0xFFFFFFFFFFFFFFFFFFFFFFFFFFFFFFFFFFFFFFFF AND DUP2 MSTORE PUSH1 0x20 ADD SWAP1 DUP2 MSTORE PUSH1 0x20 ADD PUSH0 KECCAK256 PUSH0 SWAP1 SLOAD SWAP1 PUSH2 0x100 EXP SWAP1 DIV PUSH1 0xFF AND ISZERO PUSH2 0x1857 JUMPI CALLER DUP2 PUSH1 0x40 MLOAD PUSH32 0xE64EA1DA00000000000000000000000000000000000000000000000000000000 DUP2 MSTORE PUSH1 0x4 ADD PUSH2 0x184E SWAP3 SWAP2 SWAP1 PUSH2 0x3ABF JUMP JUMPDEST PUSH1 0x40 MLOAD DUP1 SWAP2 SUB SWAP1 REVERT JUMPDEST PUSH1 0x1 PUSH1 0x2 DUP3 PUSH2 0x1866 SWAP2 SWAP1 PUSH2 0x38EF JUMP JUMPDEST PUSH2 0x1870 SWAP2 SWAP1 PUSH2 0x38EF JUMP JUMPDEST PUSH1 0x8 SLOAD GT ISZERO PUSH2 0x18B6 JUMPI DUP1 PUSH1 0x40 MLOAD PUSH32 0x5524932900000000000000000000000000000000000000000000000000000000 DUP2 MSTORE PUSH1 0x4 ADD PUSH2 0x18AD SWAP2 SWAP1 PUSH2 0x36CC JUMP JUMPDEST PUSH1 0x40 MLOAD DUP1 SWAP2 SUB SWAP1 REVERT JUMPDEST PUSH0 DUP1 PUSH1 0x12 PUSH0 DUP5 DUP2 MSTORE PUSH1 0x20 ADD SWAP1 DUP2 MSTORE PUSH1 0x20 ADD PUSH0 KECCAK256 DUP1 SLOAD DUP1 PUSH1 0x20 MUL PUSH1 0x20 ADD PUSH1 0x40 MLOAD SWAP1 DUP2 ADD PUSH1 0x40 MSTORE DUP1 SWAP3 SWAP2 SWAP1 DUP2 DUP2 MSTORE PUSH1 0x20 ADD DUP3 DUP1 SLOAD DUP1 ISZERO PUSH2 0x1946 JUMPI PUSH1 0x20 MUL DUP3 ADD SWAP2 SWAP1 PUSH0 MSTORE PUSH1 0x20 PUSH0 KECCAK256 SWAP1 JUMPDEST DUP2 PUSH0 SWAP1 SLOAD SWAP1 PUSH2 0x100 EXP SWAP1 DIV PUSH20 0xFFFFFFFFFFFFFFFFFFFFFFFFFFFFFFFFFFFFFFFF AND PUSH20 0xFFFFFFFFFFFFFFFFFFFFFFFFFFFFFFFFFFFFFFFF AND DUP2 MSTORE PUSH1 0x20 ADD SWAP1 PUSH1 0x1 ADD SWAP1 DUP1 DUP4 GT PUSH2 0x18FD JUMPI JUMPDEST POP POP POP POP POP SWAP1 POP PUSH0 JUMPDEST DUP2 MLOAD DUP2 LT ISZERO PUSH2 0x19BB JUMPI CALLER PUSH20 0xFFFFFFFFFFFFFFFFFFFFFFFFFFFFFFFFFFFFFFFF AND DUP3 DUP3 DUP2 MLOAD DUP2 LT PUSH2 0x1982 JUMPI PUSH2 0x1981 PUSH2 0x397F JUMP JUMPDEST JUMPDEST PUSH1 0x20 MUL PUSH1 0x20 ADD ADD MLOAD PUSH20 0xFFFFFFFFFFFFFFFFFFFFFFFFFFFFFFFFFFFFFFFF AND SUB PUSH2 0x19AE JUMPI PUSH1 0x1 SWAP3 POP PUSH2 0x19BB JUMP JUMPDEST DUP1 DUP1 PUSH1 0x1 ADD SWAP2 POP POP PUSH2 0x194F JUMP JUMPDEST POP DUP2 PUSH2 0x1A00 JUMPI CALLER DUP4 PUSH1 0x40 MLOAD PUSH32 0xEFBEAF3300000000000000000000000000000000000000000000000000000000 DUP2 MSTORE PUSH1 0x4 ADD PUSH2 0x19F7 SWAP3 SWAP2 SWAP1 PUSH2 0x3ABF JUMP JUMPDEST PUSH1 0x40 MLOAD DUP1 SWAP2 SUB SWAP1 REVERT JUMPDEST PUSH0 PUSH1 0x13 PUSH0 DUP6 DUP2 MSTORE PUSH1 0x20 ADD SWAP1 DUP2 MSTORE PUSH1 0x20 ADD PUSH0 KECCAK256 SLOAD SWAP1 POP PUSH0 DUP2 SUB PUSH2 0x1A4E JUMPI PUSH1 0x40 MLOAD PUSH32 0x1F2A200500000000000000000000000000000000000000000000000000000000 DUP2 MSTORE PUSH1 0x4 ADD PUSH1 0x40 MLOAD DUP1 SWAP2 SUB SWAP1 REVERT JUMPDEST PUSH1 0x1 PUSH1 0x15 PUSH0 DUP7 DUP2 MSTORE PUSH1 0x20 ADD SWAP1 DUP2 MSTORE PUSH1 0x20 ADD PUSH0 KECCAK256 PUSH0 CALLER PUSH20 0xFFFFFFFFFFFFFFFFFFFFFFFFFFFFFFFFFFFFFFFF AND PUSH20 0xFFFFFFFFFFFFFFFFFFFFFFFFFFFFFFFFFFFFFFFF AND DUP2 MSTORE PUSH1 0x20 ADD SWAP1 DUP2 MSTORE PUSH1 0x20 ADD PUSH0 KECCAK256 PUSH0 PUSH2 0x100 EXP DUP2 SLOAD DUP2 PUSH1 0xFF MUL NOT AND SWAP1 DUP4 ISZERO ISZERO MUL OR SWAP1 SSTORE POP DUP1 PUSH1 0xD PUSH0 DUP3 DUP3 SLOAD PUSH2 0x1AC3 SWAP2 SWAP1 PUSH2 0x3A4B JUMP JUMPDEST SWAP3 POP POP DUP2 SWAP1 SSTORE POP PUSH1 0x1 PUSH0 SWAP1 SLOAD SWAP1 PUSH2 0x100 EXP SWAP1 DIV PUSH20 0xFFFFFFFFFFFFFFFFFFFFFFFFFFFFFFFFFFFFFFFF AND PUSH20 0xFFFFFFFFFFFFFFFFFFFFFFFFFFFFFFFFFFFFFFFF AND PUSH4 0xC4076876 CALLER DUP4 PUSH1 0x40 MLOAD DUP4 PUSH4 0xFFFFFFFF AND PUSH1 0xE0 SHL DUP2 MSTORE PUSH1 0x4 ADD PUSH2 0x1B26 SWAP3 SWAP2 SWAP1 PUSH2 0x3ABF JUMP JUMPDEST PUSH0 PUSH1 0x40 MLOAD DUP1 DUP4 SUB DUP2 PUSH0 DUP8 DUP1 EXTCODESIZE ISZERO DUP1 ISZERO PUSH2 0x1B3D JUMPI PUSH0 DUP1 REVERT JUMPDEST POP GAS CALL ISZERO DUP1 ISZERO PUSH2 0x1B4F JUMPI RETURNDATASIZE PUSH0 DUP1 RETURNDATACOPY RETURNDATASIZE PUSH0 REVERT JUMPDEST POP POP POP POP DUP4 CALLER PUSH20 0xFFFFFFFFFFFFFFFFFFFFFFFFFFFFFFFFFFFFFFFF AND PUSH32 0x7472E24DE4628E34B41A2AA1688ED4B46A9145B2DE1CF93D74902473CCC1740D DUP4 PUSH1 0x40 MLOAD PUSH2 0x1B9A SWAP2 SWAP1 PUSH2 0x36CC JUMP JUMPDEST PUSH1 0x40 MLOAD DUP1 SWAP2 SUB SWAP1 LOG3 POP POP POP PUSH2 0x1BAD PUSH2 0x2529 JUMP JUMPDEST POP JUMP JUMPDEST PUSH2 0x1BB8 PUSH2 0x2446 JUMP JUMPDEST PUSH2 0x1BC1 PUSH0 PUSH2 0x279F JUMP JUMPDEST JUMP JUMPDEST PUSH2 0x1BCB PUSH2 0x2446 JUMP JUMPDEST PUSH0 PUSH1 0x16 PUSH1 0x1 PUSH2 0x100 EXP DUP2 SLOAD DUP2 PUSH1 0xFF MUL NOT AND SWAP1 DUP4 ISZERO ISZERO MUL OR SWAP1 SSTORE POP JUMP JUMPDEST PUSH1 0xE SLOAD DUP2 JUMP JUMPDEST PUSH1 0x10 PUSH1 0x20 MSTORE DUP1 PUSH0 MSTORE PUSH1 0x40 PUSH0 KECCAK256 PUSH0 SWAP2 POP SLOAD SWAP1 PUSH2 0x100 EXP SWAP1 DIV PUSH1 0xD0 SHL DUP2 JUMP JUMPDEST PUSH2 0xE01 DUP2 JUMP JUMPDEST PUSH1 0x11 PUSH1 0x20 MSTORE DUP1 PUSH0 MSTORE PUSH1 0x40 PUSH0 KECCAK256 PUSH0 SWAP2 POP SWAP1 POP SLOAD DUP2 JUMP JUMPDEST PUSH1 0x15 PUSH1 0x20 MSTORE DUP2 PUSH0 MSTORE PUSH1 0x40 PUSH0 KECCAK256 PUSH1 0x20 MSTORE DUP1 PUSH0 MSTORE PUSH1 0x40 PUSH0 KECCAK256 PUSH0 SWAP2 POP SWAP2 POP SWAP1 SLOAD SWAP1 PUSH2 0x100 EXP SWAP1 DIV PUSH1 0xFF AND DUP2 JUMP JUMPDEST PUSH1 0x8 SLOAD DUP2 JUMP JUMPDEST PUSH0 DUP1 PUSH0 SWAP1 SLOAD SWAP1 PUSH2 0x100 EXP SWAP1 DIV PUSH20 0xFFFFFFFFFFFFFFFFFFFFFFFFFFFFFFFFFFFFFFFF AND SWAP1 POP SWAP1 JUMP JUMPDEST PUSH0 DUP1 PUSH1 0x6 PUSH8 0xFFFFFFFFFFFFFFFF DUP2 GT ISZERO PUSH2 0x1C99 JUMPI PUSH2 0x1C98 PUSH2 0x38C2 JUMP JUMPDEST JUMPDEST PUSH1 0x40 MLOAD SWAP1 DUP1 DUP3 MSTORE DUP1 PUSH1 0x1F ADD PUSH1 0x1F NOT AND PUSH1 0x20 ADD DUP3 ADD PUSH1 0x40 MSTORE DUP1 ISZERO PUSH2 0x1CCB JUMPI DUP2 PUSH1 0x20 ADD PUSH1 0x1 DUP3 MUL DUP1 CALLDATASIZE DUP4 CALLDATACOPY DUP1 DUP3 ADD SWAP2 POP POP SWAP1 POP JUMPDEST POP SWAP1 POP PUSH0 JUMPDEST PUSH1 0x6 DUP2 LT ISZERO PUSH2 0x1D74 JUMPI PUSH1 0x40 MLOAD DUP1 PUSH1 0x60 ADD PUSH1 0x40 MSTORE DUP1 PUSH1 0x24 DUP2 MSTORE PUSH1 0x20 ADD PUSH2 0x3F9A PUSH1 0x24 SWAP2 CODECOPY PUSH1 0x24 DUP3 DUP7 PUSH2 0x1D00 SWAP2 SWAP1 PUSH2 0x38EF JUMP JUMPDEST PUSH2 0x1D0A SWAP2 SWAP1 PUSH2 0x394F JUMP JUMPDEST DUP2 MLOAD DUP2 LT PUSH2 0x1D1B JUMPI PUSH2 0x1D1A PUSH2 0x397F JUMP JUMPDEST JUMPDEST PUSH1 0x20 ADD ADD MLOAD PUSH1 0xF8 SHR PUSH1 0xF8 SHL DUP3 DUP3 DUP2 MLOAD DUP2 LT PUSH2 0x1D39 JUMPI PUSH2 0x1D38 PUSH2 0x397F JUMP JUMPDEST JUMPDEST PUSH1 0x20 ADD ADD SWAP1 PUSH31 0xFFFFFFFFFFFFFFFFFFFFFFFFFFFFFFFFFFFFFFFFFFFFFFFFFFFFFFFFFFFFFF NOT AND SWAP1 DUP2 PUSH0 BYTE SWAP1 MSTORE8 POP DUP1 DUP1 PUSH1 0x1 ADD SWAP2 POP POP PUSH2 0x1CD0 JUMP JUMPDEST POP DUP1 PUSH2 0x1D7F SWAP1 PUSH2 0x39E5 JUMP JUMPDEST SWAP2 POP POP SWAP2 SWAP1 POP JUMP JUMPDEST PUSH1 0x4 PUSH0 SWAP1 SLOAD SWAP1 PUSH2 0x100 EXP SWAP1 DIV PUSH20 0xFFFFFFFFFFFFFFFFFFFFFFFFFFFFFFFFFFFFFFFF AND DUP2 JUMP JUMPDEST PUSH1 0x9 SLOAD DUP2 JUMP JUMPDEST PUSH2 0x1DBA PUSH2 0x2446 JUMP JUMPDEST PUSH0 CALLVALUE SUB PUSH2 0x1DF3 JUMPI PUSH1 0x40 MLOAD PUSH32 0x1F2A200500000000000000000000000000000000000000000000000000000000 DUP2 MSTORE PUSH1 0x4 ADD PUSH1 0x40 MLOAD DUP1 SWAP2 SUB SWAP1 REVERT JUMPDEST CALLVALUE PUSH1 0xC PUSH0 DUP3 DUP3 SLOAD PUSH2 0x1E04 SWAP2 SWAP1 PUSH2 0x38EF JUMP JUMPDEST SWAP3 POP POP DUP2 SWAP1 SSTORE POP PUSH1 0x1 PUSH0 SWAP1 SLOAD SWAP1 PUSH2 0x100 EXP SWAP1 DIV PUSH20 0xFFFFFFFFFFFFFFFFFFFFFFFFFFFFFFFFFFFFFFFF AND PUSH20 0xFFFFFFFFFFFFFFFFFFFFFFFFFFFFFFFFFFFFFFFF AND PUSH4 0xD0E30DB0 CALLVALUE PUSH1 0x40 MLOAD DUP3 PUSH4 0xFFFFFFFF AND PUSH1 0xE0 SHL DUP2 MSTORE PUSH1 0x4 ADD PUSH0 PUSH1 0x40 MLOAD DUP1 DUP4 SUB DUP2 DUP6 DUP9 DUP1 EXTCODESIZE ISZERO DUP1 ISZERO PUSH2 0x1E72 JUMPI PUSH0 DUP1 REVERT JUMPDEST POP GAS CALL ISZERO DUP1 ISZERO PUSH2 0x1E84 JUMPI RETURNDATASIZE PUSH0 DUP1 RETURNDATACOPY RETURNDATASIZE PUSH0 REVERT JUMPDEST POP POP POP POP POP CALLER PUSH20 0xFFFFFFFFFFFFFFFFFFFFFFFFFFFFFFFFFFFFFFFF AND PUSH32 0xF0D496561FE25891CA8568B6877B038238629D8DBE5777373589BECE931DC172 CALLVALUE PUSH1 0x40 MLOAD PUSH2 0x1ECF SWAP2 SWAP1 PUSH2 0x36CC JUMP JUMPDEST PUSH1 0x40 MLOAD DUP1 SWAP2 SUB SWAP1 LOG2 JUMP JUMPDEST PUSH0 DUP1 PUSH1 0xA SLOAD TIMESTAMP PUSH2 0x1EE9 SWAP2 SWAP1 PUSH2 0x3A4B JUMP JUMPDEST SWAP1 POP PUSH2 0xE01 DUP2 LT PUSH2 0x1EFD JUMPI PUSH0 SWAP2 POP POP PUSH2 0x1F0F JUMP JUMPDEST DUP1 PUSH2 0xE01 PUSH2 0x1F0B SWAP2 SWAP1 PUSH2 0x3A4B JUMP JUMPDEST SWAP2 POP POP JUMPDEST SWAP1 JUMP JUMPDEST PUSH1 0x5 PUSH0 SWAP1 SLOAD SWAP1 PUSH2 0x100 EXP SWAP1 DIV PUSH20 0xFFFFFFFFFFFFFFFFFFFFFFFFFFFFFFFFFFFFFFFF AND DUP2 JUMP JUMPDEST PUSH1 0x2 DUP2 JUMP JUMPDEST PUSH1 0xC SLOAD DUP2 JUMP JUMPDEST PUSH1 0x14 PUSH1 0x20 MSTORE DUP1 PUSH0 MSTORE PUSH1 0x40 PUSH0 KECCAK256 PUSH0 SWAP2 POP SWAP1 POP SLOAD DUP2 JUMP JUMPDEST PUSH1 0x6 DUP2 JUMP JUMPDEST PUSH2 0x1F64 PUSH2 0x2446 JUMP JUMPDEST PUSH0 PUSH20 0xFFFFFFFFFFFFFFFFFFFFFFFFFFFFFFFFFFFFFFFF AND DUP2 PUSH20 0xFFFFFFFFFFFFFFFFFFFFFFFFFFFFFFFFFFFFFFFF AND SUB PUSH2 0x1FC9 JUMPI PUSH1 0x40 MLOAD PUSH32 0xD92E233D00000000000000000000000000000000000000000000000000000000 DUP2 MSTORE PUSH1 0x4 ADD PUSH1 0x40 MLOAD DUP1 SWAP2 SUB SWAP1 REVERT JUMPDEST DUP1 PUSH1 0x3 PUSH0 PUSH2 0x100 EXP DUP2 SLOAD DUP2 PUSH20 0xFFFFFFFFFFFFFFFFFFFFFFFFFFFFFFFFFFFFFFFF MUL NOT AND SWAP1 DUP4 PUSH20 0xFFFFFFFFFFFFFFFFFFFFFFFFFFFFFFFFFFFFFFFF AND MUL OR SWAP1 SSTORE POP POP JUMP JUMPDEST PUSH0 PUSH2 0x2015 PUSH2 0x24EF JUMP JUMPDEST SWAP1 POP SWAP1 JUMP JUMPDEST PUSH1 0x7 PUSH0 SWAP1 SLOAD SWAP1 PUSH2 0x100 EXP SWAP1 DIV PUSH1 0xFF AND DUP2 JUMP JUMPDEST PUSH1 0xA SLOAD DUP2 JUMP JUMPDEST PUSH1 0xD SLOAD DUP2 JUMP JUMPDEST PUSH2 0x2040 PUSH2 0x2446 JUMP JUMPDEST PUSH1 0x1 PUSH1 0x16 PUSH1 0x1 PUSH2 0x100 EXP DUP2 SLOAD DUP2 PUSH1 0xFF MUL NOT AND SWAP1 DUP4 ISZERO ISZERO MUL OR SWAP1 SSTORE POP JUMP JUMPDEST PUSH2 0x2065 PUSH2 0x2446 JUMP JUMPDEST PUSH1 0xB PUSH0 SWAP1 SLOAD SWAP1 PUSH2 0x100 EXP SWAP1 DIV PUSH1 0xFF AND ISZERO PUSH2 0x20AB JUMPI PUSH1 0x40 MLOAD PUSH32 0xBA26162B00000000000000000000000000000000000000000000000000000000 DUP2 MSTORE PUSH1 0x4 ADD PUSH1 0x40 MLOAD DUP1 SWAP2 SUB SWAP1 REVERT JUMPDEST PUSH1 0x1 PUSH1 0xB PUSH0 PUSH2 0x100 EXP DUP2 SLOAD DUP2 PUSH1 0xFF MUL NOT AND SWAP1 DUP4 ISZERO ISZERO MUL OR SWAP1 SSTORE POP PUSH1 0x1 PUSH1 0x8 DUP2 SWAP1 SSTORE POP PUSH1 0x1 PUSH1 0x9 DUP2 SWAP1 SSTORE POP TIMESTAMP PUSH1 0xA DUP2 SWAP1 SSTORE POP PUSH1 0x2 PUSH0 SWAP1 SLOAD SWAP1 PUSH2 0x100 EXP SWAP1 DIV PUSH20 0xFFFFFFFFFFFFFFFFFFFFFFFFFFFFFFFFFFFFFFFF AND PUSH20 0xFFFFFFFFFFFFFFFFFFFFFFFFFFFFFFFFFFFFFFFF AND PUSH4 0x3BC91E28 PUSH1 0x8 SLOAD PUSH1 0x40 MLOAD DUP3 PUSH4 0xFFFFFFFF AND PUSH1 0xE0 SHL DUP2 MSTORE PUSH1 0x4 ADD PUSH2 0x2138 SWAP2 SWAP1 PUSH2 0x36CC JUMP JUMPDEST PUSH0 PUSH1 0x40 MLOAD DUP1 DUP4 SUB DUP2 PUSH0 DUP8 DUP1 EXTCODESIZE ISZERO DUP1 ISZERO PUSH2 0x214F JUMPI PUSH0 DUP1 REVERT JUMPDEST POP GAS CALL ISZERO DUP1 ISZERO PUSH2 0x2161 JUMPI RETURNDATASIZE PUSH0 DUP1 RETURNDATACOPY RETURNDATASIZE PUSH0 REVERT JUMPDEST POP POP POP POP PUSH2 0x2170 PUSH1 0x8 SLOAD PUSH2 0x2860 JUMP JUMPDEST PUSH32 0x50AD08F58A27F2851D7E3A1B3A6A46B290F2CE677E99642D30FF639721E77790 TIMESTAMP PUSH1 0x40 MLOAD PUSH2 0x219F SWAP2 SWAP1 PUSH2 0x36CC JUMP JUMPDEST PUSH1 0x40 MLOAD DUP1 SWAP2 SUB SWAP1 LOG1 PUSH1 0x8 SLOAD PUSH32 0x278844837BCF8364A705384BF3A2812901F54155BAE86DEA81DD52AA5B9EC0E3 TIMESTAMP PUSH1 0x40 MLOAD PUSH2 0x21D9 SWAP2 SWAP1 PUSH2 0x36CC JUMP JUMPDEST PUSH1 0x40 MLOAD DUP1 SWAP2 SUB SWAP1 LOG2 PUSH1 0x8 SLOAD PUSH32 0xE9A2985393FA4BB459D73D85249DF3B5923E70FB93B7B9C307E72359AB167587 PUSH1 0x9 SLOAD TIMESTAMP PUSH1 0x40 MLOAD PUSH2 0x2217 SWAP3 SWAP2 SWAP1 PUSH2 0x389B JUMP JUMPDEST PUSH1 0x40 MLOAD DUP1 SWAP2 SUB SWAP1 LOG2 JUMP JUMPDEST PUSH1 0x2 PUSH0 SWAP1 SLOAD SWAP1 PUSH2 0x100 EXP SWAP1 DIV PUSH20 0xFFFFFFFFFFFFFFFFFFFFFFFFFFFFFFFFFFFFFFFF AND DUP2 JUMP JUMPDEST PUSH2 0x224E PUSH2 0x2446 JUMP JUMPDEST PUSH0 PUSH20 0xFFFFFFFFFFFFFFFFFFFFFFFFFFFFFFFFFFFFFFFF AND DUP2 PUSH20 0xFFFFFFFFFFFFFFFFFFFFFFFFFFFFFFFFFFFFFFFF AND SUB PUSH2 0x22B3 JUMPI PUSH1 0x40 MLOAD PUSH32 0xD92E233D00000000000000000000000000000000000000000000000000000000 DUP2 MSTORE PUSH1 0x4 ADD PUSH1 0x40 MLOAD DUP1 SWAP2 SUB SWAP1 REVERT JUMPDEST DUP1 PUSH1 0x2 PUSH0 PUSH2 0x100 EXP DUP2 SLOAD DUP2 PUSH20 0xFFFFFFFFFFFFFFFFFFFFFFFFFFFFFFFFFFFFFFFF MUL NOT AND SWAP1 DUP4 PUSH20 0xFFFFFFFFFFFFFFFFFFFFFFFFFFFFFFFFFFFFFFFF AND MUL OR SWAP1 SSTORE POP POP JUMP JUMPDEST PUSH2 0x22FE PUSH2 0x2446 JUMP JUMPDEST PUSH0 PUSH1 0x16 PUSH0 PUSH2 0x100 EXP DUP2 SLOAD DUP2 PUSH1 0xFF MUL NOT AND SWAP1 DUP4 ISZERO ISZERO MUL OR SWAP1 SSTORE POP JUMP JUMPDEST PUSH2 0x2321 PUSH2 0x2446 JUMP JUMPDEST DUP1 PUSH1 0x7 PUSH0 PUSH2 0x100 EXP DUP2 SLOAD DUP2 PUSH1 0xFF MUL NOT AND SWAP1 DUP4 ISZERO ISZERO MUL OR SWAP1 SSTORE POP POP JUMP JUMPDEST PUSH2 0x2345 PUSH2 0x2446 JUMP JUMPDEST DUP1 PUSH1 0x4 PUSH0 PUSH2 0x100 EXP DUP2 SLOAD DUP2 PUSH20 0xFFFFFFFFFFFFFFFFFFFFFFFFFFFFFFFFFFFFFFFF MUL NOT AND SWAP1 DUP4 PUSH20 0xFFFFFFFFFFFFFFFFFFFFFFFFFFFFFFFFFFFFFFFF AND MUL OR SWAP1 SSTORE POP POP JUMP JUMPDEST PUSH2 0x2390 PUSH2 0x2446 JUMP JUMPDEST PUSH0 PUSH20 0xFFFFFFFFFFFFFFFFFFFFFFFFFFFFFFFFFFFFFFFF AND DUP2 PUSH20 0xFFFFFFFFFFFFFFFFFFFFFFFFFFFFFFFFFFFFFFFF AND SUB PUSH2 0x2400 JUMPI PUSH0 PUSH1 0x40 MLOAD PUSH32 0x1E4FBDF700000000000000000000000000000000000000000000000000000000 DUP2 MSTORE PUSH1 0x4 ADD PUSH2 0x23F7 SWAP2 SWAP1 PUSH2 0x3645 JUMP JUMPDEST PUSH1 0x40 MLOAD DUP1 SWAP2 SUB SWAP1 REVERT JUMPDEST PUSH2 0x2409 DUP2 PUSH2 0x279F JUMP JUMPDEST POP JUMP JUMPDEST PUSH1 0x13 PUSH1 0x20 MSTORE DUP1 PUSH0 MSTORE PUSH1 0x40 PUSH0 KECCAK256 PUSH0 SWAP2 POP SWAP1 POP SLOAD DUP2 JUMP JUMPDEST PUSH1 0x3 PUSH0 SWAP1 SLOAD SWAP1 PUSH2 0x100 EXP SWAP1 DIV PUSH20 0xFFFFFFFFFFFFFFFFFFFFFFFFFFFFFFFFFFFFFFFF AND DUP2 JUMP JUMPDEST PUSH2 0x244E PUSH2 0x2996 JUMP JUMPDEST PUSH20 0xFFFFFFFFFFFFFFFFFFFFFFFFFFFFFFFFFFFFFFFF AND PUSH2 0x246C PUSH2 0x1C55 JUMP JUMPDEST PUSH20 0xFFFFFFFFFFFFFFFFFFFFFFFFFFFFFFFFFFFFFFFF AND EQ PUSH2 0x24CB JUMPI PUSH2 0x248F PUSH2 0x2996 JUMP JUMPDEST PUSH1 0x40 MLOAD PUSH32 0x118CDAA700000000000000000000000000000000000000000000000000000000 DUP2 MSTORE PUSH1 0x4 ADD PUSH2 0x24C2 SWAP2 SWAP1 PUSH2 0x3645 JUMP JUMPDEST PUSH1 0x40 MLOAD DUP1 SWAP2 SUB SWAP1 REVERT JUMPDEST JUMP JUMPDEST PUSH2 0x24D5 PUSH2 0x299D JUMP JUMPDEST PUSH1 0x2 PUSH2 0x24E7 PUSH2 0x24E2 PUSH2 0x29DE JUMP JUMPDEST PUSH2 0x2A07 JUMP JUMPDEST PUSH0 ADD DUP2 SWAP1 SSTORE POP JUMP JUMPDEST PUSH0 PUSH1 0xB PUSH0 SWAP1 SLOAD SWAP1 PUSH2 0x100 EXP SWAP1 DIV PUSH1 0xFF AND PUSH2 0x250B JUMPI PUSH0 SWAP1 POP PUSH2 0x2526 JUMP JUMPDEST PUSH0 PUSH1 0xA SLOAD TIMESTAMP PUSH2 0x251A SWAP2 SWAP1 PUSH2 0x3A4B JUMP JUMPDEST SWAP1 POP PUSH2 0xE01 DUP2 LT ISZERO SWAP2 POP POP JUMPDEST SWAP1 JUMP JUMPDEST PUSH1 0x1 PUSH2 0x253B PUSH2 0x2536 PUSH2 0x29DE JUMP JUMPDEST PUSH2 0x2A07 JUMP JUMPDEST PUSH0 ADD DUP2 SWAP1 SSTORE POP JUMP JUMPDEST PUSH0 PUSH1 0x8 SLOAD SWAP1 POP PUSH0 PUSH2 0x2553 DUP3 PUSH2 0x2A10 JUMP JUMPDEST SWAP1 POP PUSH0 DUP1 PUSH2 0x2561 DUP5 DUP5 PUSH2 0x2AEC JUMP JUMPDEST SWAP2 POP SWAP2 POP PUSH0 DUP1 PUSH0 PUSH2 0x2573 DUP8 DUP7 DUP7 PUSH2 0x2F38 JUMP JUMPDEST SWAP3 POP SWAP3 POP SWAP3 POP PUSH2 0x2582 DUP8 PUSH2 0x30FD JUMP JUMPDEST PUSH0 PUSH1 0x2 PUSH0 SWAP1 SLOAD SWAP1 PUSH2 0x100 EXP SWAP1 DIV PUSH20 0xFFFFFFFFFFFFFFFFFFFFFFFFFFFFFFFFFFFFFFFF AND PUSH20 0xFFFFFFFFFFFFFFFFFFFFFFFFFFFFFFFFFFFFFFFF AND PUSH4 0x454AC84E DUP10 PUSH1 0x40 MLOAD DUP3 PUSH4 0xFFFFFFFF AND PUSH1 0xE0 SHL DUP2 MSTORE PUSH1 0x4 ADD PUSH2 0x25DD SWAP2 SWAP1 PUSH2 0x36CC JUMP JUMPDEST PUSH0 PUSH1 0x40 MLOAD DUP1 DUP4 SUB DUP2 DUP7 GAS STATICCALL ISZERO DUP1 ISZERO PUSH2 0x25F7 JUMPI RETURNDATASIZE PUSH0 DUP1 RETURNDATACOPY RETURNDATASIZE PUSH0 REVERT JUMPDEST POP POP POP POP PUSH1 0x40 MLOAD RETURNDATASIZE PUSH0 DUP3 RETURNDATACOPY RETURNDATASIZE PUSH1 0x1F NOT PUSH1 0x1F DUP3 ADD AND DUP3 ADD DUP1 PUSH1 0x40 MSTORE POP DUP2 ADD SWAP1 PUSH2 0x261F SWAP2 SWAP1 PUSH2 0x3C1D JUMP JUMPDEST MLOAD SWAP1 POP DUP8 PUSH32 0xCB3E0BD9FC5C5CA893AB7EDF22C314B2852D2CF6E36E091941D0709CAEB4145C DUP9 DUP7 DUP9 DUP7 DUP7 TIMESTAMP PUSH1 0x40 MLOAD PUSH2 0x265C SWAP7 SWAP6 SWAP5 SWAP4 SWAP3 SWAP2 SWAP1 PUSH2 0x3C64 JUMP JUMPDEST PUSH1 0x40 MLOAD DUP1 SWAP2 SUB SWAP1 LOG2 PUSH1 0x8 PUSH0 DUP2 SLOAD DUP1 SWAP3 SWAP2 SWAP1 PUSH2 0x2676 SWAP1 PUSH2 0x3854 JUMP JUMPDEST SWAP2 SWAP1 POP SSTORE POP PUSH1 0x1 PUSH1 0x9 DUP2 SWAP1 SSTORE POP TIMESTAMP PUSH1 0xA DUP2 SWAP1 SSTORE POP PUSH1 0x2 PUSH0 SWAP1 SLOAD SWAP1 PUSH2 0x100 EXP SWAP1 DIV PUSH20 0xFFFFFFFFFFFFFFFFFFFFFFFFFFFFFFFFFFFFFFFF AND PUSH20 0xFFFFFFFFFFFFFFFFFFFFFFFFFFFFFFFFFFFFFFFF AND PUSH4 0x3BC91E28 PUSH1 0x8 SLOAD PUSH1 0x40 MLOAD DUP3 PUSH4 0xFFFFFFFF AND PUSH1 0xE0 SHL DUP2 MSTORE PUSH1 0x4 ADD PUSH2 0x26E6 SWAP2 SWAP1 PUSH2 0x36CC JUMP JUMPDEST PUSH0 PUSH1 0x40 MLOAD DUP1 DUP4 SUB DUP2 PUSH0 DUP8 DUP1 EXTCODESIZE ISZERO DUP1 ISZERO PUSH2 0x26FD JUMPI PUSH0 DUP1 REVERT JUMPDEST POP GAS CALL ISZERO DUP1 ISZERO PUSH2 0x270F JUMPI RETURNDATASIZE PUSH0 DUP1 RETURNDATACOPY RETURNDATASIZE PUSH0 REVERT JUMPDEST POP POP POP POP PUSH2 0x271E PUSH1 0x8 SLOAD PUSH2 0x2860 JUMP JUMPDEST PUSH1 0x8 SLOAD PUSH32 0x278844837BCF8364A705384BF3A2812901F54155BAE86DEA81DD52AA5B9EC0E3 TIMESTAMP PUSH1 0x40 MLOAD PUSH2 0x2750 SWAP2 SWAP1 PUSH2 0x36CC JUMP JUMPDEST PUSH1 0x40 MLOAD DUP1 SWAP2 SUB SWAP1 LOG2 PUSH1 0x8 SLOAD PUSH32 0xE9A2985393FA4BB459D73D85249DF3B5923E70FB93B7B9C307E72359AB167587 PUSH1 0x1 TIMESTAMP PUSH1 0x40 MLOAD PUSH2 0x278D SWAP3 SWAP2 SWAP1 PUSH2 0x3D05 JUMP JUMPDEST PUSH1 0x40 MLOAD DUP1 SWAP2 SUB SWAP1 LOG2 POP POP POP POP POP POP POP POP JUMP JUMPDEST PUSH0 DUP1 PUSH0 SWAP1 SLOAD SWAP1 PUSH2 0x100 EXP SWAP1 DIV PUSH20 0xFFFFFFFFFFFFFFFFFFFFFFFFFFFFFFFFFFFFFFFF AND SWAP1 POP DUP2 PUSH0 DUP1 PUSH2 0x100 EXP DUP2 SLOAD DUP2 PUSH20 0xFFFFFFFFFFFFFFFFFFFFFFFFFFFFFFFFFFFFFFFF MUL NOT AND SWAP1 DUP4 PUSH20 0xFFFFFFFFFFFFFFFFFFFFFFFFFFFFFFFFFFFFFFFF AND MUL OR SWAP1 SSTORE POP DUP2 PUSH20 0xFFFFFFFFFFFFFFFFFFFFFFFFFFFFFFFFFFFFFFFF AND DUP2 PUSH20 0xFFFFFFFFFFFFFFFFFFFFFFFFFFFFFFFFFFFFFFFF AND PUSH32 0x8BE0079C531659141344CD1FD0A4F28419497F9722A3DAAFE3B4186F6B6457E0 PUSH1 0x40 MLOAD PUSH1 0x40 MLOAD DUP1 SWAP2 SUB SWAP1 LOG3 POP POP JUMP JUMPDEST PUSH0 PUSH1 0x2 PUSH0 SWAP1 SLOAD SWAP1 PUSH2 0x100 EXP SWAP1 DIV PUSH20 0xFFFFFFFFFFFFFFFFFFFFFFFFFFFFFFFFFFFFFFFF AND PUSH20 0xFFFFFFFFFFFFFFFFFFFFFFFFFFFFFFFFFFFFFFFF AND PUSH4 0x454AC84E DUP4 PUSH1 0x40 MLOAD DUP3 PUSH4 0xFFFFFFFF AND PUSH1 0xE0 SHL DUP2 MSTORE PUSH1 0x4 ADD PUSH2 0x28BB SWAP2 SWAP1 PUSH2 0x36CC JUMP JUMPDEST PUSH0 PUSH1 0x40 MLOAD DUP1 DUP4 SUB DUP2 DUP7 GAS STATICCALL ISZERO DUP1 ISZERO PUSH2 0x28D5 JUMPI RETURNDATASIZE PUSH0 DUP1 RETURNDATACOPY RETURNDATASIZE PUSH0 REVERT JUMPDEST POP POP POP POP PUSH1 0x40 MLOAD RETURNDATASIZE PUSH0 DUP3 RETURNDATACOPY RETURNDATASIZE PUSH1 0x1F NOT PUSH1 0x1F DUP3 ADD AND DUP3 ADD DUP1 PUSH1 0x40 MSTORE POP DUP2 ADD SWAP1 PUSH2 0x28FD SWAP2 SWAP1 PUSH2 0x3C1D JUMP JUMPDEST SWAP1 POP PUSH0 DUP2 MLOAD GT ISZERO PUSH2 0x2992 JUMPI PUSH1 0x2 PUSH0 SWAP1 SLOAD SWAP1 PUSH2 0x100 EXP SWAP1 DIV PUSH20 0xFFFFFFFFFFFFFFFFFFFFFFFFFFFFFFFFFFFFFFFF AND PUSH20 0xFFFFFFFFFFFFFFFFFFFFFFFFFFFFFFFFFFFFFFFF AND PUSH4 0x1330CD86 DUP4 DUP4 PUSH1 0x40 MLOAD DUP4 PUSH4 0xFFFFFFFF AND PUSH1 0xE0 SHL DUP2 MSTORE PUSH1 0x4 ADD PUSH2 0x2964 SWAP3 SWAP2 SWAP1 PUSH2 0x3D2C JUMP JUMPDEST PUSH0 PUSH1 0x40 MLOAD DUP1 DUP4 SUB DUP2 PUSH0 DUP8 DUP1 EXTCODESIZE ISZERO DUP1 ISZERO PUSH2 0x297B JUMPI PUSH0 DUP1 REVERT JUMPDEST POP GAS CALL ISZERO DUP1 ISZERO PUSH2 0x298D JUMPI RETURNDATASIZE PUSH0 DUP1 RETURNDATACOPY RETURNDATASIZE PUSH0 REVERT JUMPDEST POP POP POP POP JUMPDEST POP POP JUMP JUMPDEST PUSH0 CALLER SWAP1 POP SWAP1 JUMP JUMPDEST PUSH2 0x29A5 PUSH2 0x33E5 JUMP JUMPDEST ISZERO PUSH2 0x29DC JUMPI PUSH1 0x40 MLOAD PUSH32 0x3EE5AEB500000000000000000000000000000000000000000000000000000000 DUP2 MSTORE PUSH1 0x4 ADD PUSH1 0x40 MLOAD DUP1 SWAP2 SUB SWAP1 REVERT JUMPDEST JUMP JUMPDEST PUSH0 PUSH32 0x9B779B17422D0DF92223018B32B4D1FA46E071723D6817E2486D003BECC55F00 PUSH0 SHL SWAP1 POP SWAP1 JUMP JUMPDEST PUSH0 DUP2 SWAP1 POP SWAP2 SWAP1 POP JUMP JUMPDEST PUSH0 DUP1 PUSH1 0x1 NUMBER PUSH2 0x2A1F SWAP2 SWAP1 PUSH2 0x3A4B JUMP JUMPDEST BLOCKHASH PUSH1 0x6 SLOAD DUP5 PUSH1 0x40 MLOAD PUSH1 0x20 ADD PUSH2 0x2A36 SWAP4 SWAP3 SWAP2 SWAP1 PUSH2 0x3DA3 JUMP JUMPDEST PUSH1 0x40 MLOAD PUSH1 0x20 DUP2 DUP4 SUB SUB DUP2 MSTORE SWAP1 PUSH1 0x40 MSTORE DUP1 MLOAD SWAP1 PUSH1 0x20 ADD KECCAK256 PUSH0 SHR SWAP1 POP PUSH0 PUSH1 0x3 DUP3 PUSH2 0x2A5E SWAP2 SWAP1 PUSH2 0x394F JUMP JUMPDEST SWAP1 POP PUSH0 DUP2 PUSH1 0x6 SLOAD PUSH2 0x2A6F SWAP2 SWAP1 PUSH2 0x38EF JUMP JUMPDEST SWAP1 POP PUSH2 0x2A7A DUP2 PUSH2 0x1C7C JUMP JUMPDEST SWAP4 POP DUP4 PUSH1 0x10 PUSH0 DUP8 DUP2 MSTORE PUSH1 0x20 ADD SWAP1 DUP2 MSTORE PUSH1 0x20 ADD PUSH0 KECCAK256 PUSH0 PUSH2 0x100 EXP DUP2 SLOAD DUP2 PUSH6 0xFFFFFFFFFFFF MUL NOT AND SWAP1 DUP4 PUSH1 0xD0 SHR MUL OR SWAP1 SSTORE POP DUP5 PUSH32 0xD9518E0C64DF7F54FE347E6E390672D87BC2350A9DF1B275E2DE0F2655CA9A84 DUP3 DUP7 PUSH1 0x40 MLOAD PUSH2 0x2ADC SWAP3 SWAP2 SWAP1 PUSH2 0x3DDF JUMP JUMPDEST PUSH1 0x40 MLOAD DUP1 SWAP2 SUB SWAP1 LOG2 POP POP POP SWAP2 SWAP1 POP JUMP JUMPDEST PUSH1 0x60 PUSH0 DUP1 PUSH1 0x2 PUSH0 SWAP1 SLOAD SWAP1 PUSH2 0x100 EXP SWAP1 DIV PUSH20 0xFFFFFFFFFFFFFFFFFFFFFFFFFFFFFFFFFFFFFFFF AND PUSH20 0xFFFFFFFFFFFFFFFFFFFFFFFFFFFFFFFFFFFFFFFF AND PUSH4 0x9FD11627 DUP7 DUP7 PUSH1 0x40 MLOAD DUP4 PUSH4 0xFFFFFFFF AND PUSH1 0xE0 SHL DUP2 MSTORE PUSH1 0x4 ADD PUSH2 0x2B4C SWAP3 SWAP2 SWAP1 PUSH2 0x3DDF JUMP JUMPDEST PUSH0 PUSH1 0x40 MLOAD DUP1 DUP4 SUB DUP2 DUP7 GAS STATICCALL ISZERO DUP1 ISZERO PUSH2 0x2B66 JUMPI RETURNDATASIZE PUSH0 DUP1 RETURNDATACOPY RETURNDATASIZE PUSH0 REVERT JUMPDEST POP POP POP POP PUSH1 0x40 MLOAD RETURNDATASIZE PUSH0 DUP3 RETURNDATACOPY RETURNDATASIZE PUSH1 0x1F NOT PUSH1 0x1F DUP3 ADD AND DUP3 ADD DUP1 PUSH1 0x40 MSTORE POP DUP2 ADD SWAP1 PUSH2 0x2B8E SWAP2 SWAP1 PUSH2 0x3C1D JUMP JUMPDEST SWAP1 POP PUSH0 DUP2 MLOAD PUSH8 0xFFFFFFFFFFFFFFFF DUP2 GT ISZERO PUSH2 0x2BAC JUMPI PUSH2 0x2BAB PUSH2 0x38C2 JUMP JUMPDEST JUMPDEST PUSH1 0x40 MLOAD SWAP1 DUP1 DUP3 MSTORE DUP1 PUSH1 0x20 MUL PUSH1 0x20 ADD DUP3 ADD PUSH1 0x40 MSTORE DUP1 ISZERO PUSH2 0x2BDA JUMPI DUP2 PUSH1 0x20 ADD PUSH1 0x20 DUP3 MUL DUP1 CALLDATASIZE DUP4 CALLDATACOPY DUP1 DUP3 ADD SWAP2 POP POP SWAP1 POP JUMPDEST POP SWAP1 POP PUSH0 JUMPDEST DUP3 MLOAD DUP2 LT ISZERO PUSH2 0x2E63 JUMPI PUSH0 DUP4 DUP3 DUP2 MLOAD DUP2 LT PUSH2 0x2BFC JUMPI PUSH2 0x2BFB PUSH2 0x397F JUMP JUMPDEST JUMPDEST PUSH1 0x20 MUL PUSH1 0x20 ADD ADD MLOAD SWAP1 POP PUSH0 DUP1 PUSH1 0x2 PUSH0 SWAP1 SLOAD SWAP1 PUSH2 0x100 EXP SWAP1 DIV PUSH20 0xFFFFFFFFFFFFFFFFFFFFFFFFFFFFFFFFFFFFFFFF AND PUSH20 0xFFFFFFFFFFFFFFFFFFFFFFFFFFFFFFFFFFFFFFFF AND PUSH4 0xA96DE4F5 DUP5 DUP13 PUSH1 0x40 MLOAD DUP4 PUSH4 0xFFFFFFFF AND PUSH1 0xE0 SHL DUP2 MSTORE PUSH1 0x4 ADD PUSH2 0x2C64 SWAP3 SWAP2 SWAP1 PUSH2 0x3ABF JUMP JUMPDEST PUSH1 0x40 DUP1 MLOAD DUP1 DUP4 SUB DUP2 DUP7 GAS STATICCALL ISZERO DUP1 ISZERO PUSH2 0x2C7E JUMPI RETURNDATASIZE PUSH0 DUP1 RETURNDATACOPY RETURNDATASIZE PUSH0 REVERT JUMPDEST POP POP POP POP PUSH1 0x40 MLOAD RETURNDATASIZE PUSH1 0x1F NOT PUSH1 0x1F DUP3 ADD AND DUP3 ADD DUP1 PUSH1 0x40 MSTORE POP DUP2 ADD SWAP1 PUSH2 0x2CA2 SWAP2 SWAP1 PUSH2 0x3E44 JUMP JUMPDEST SWAP2 POP SWAP2 POP DUP2 PUSH2 0x2CB3 JUMPI POP POP POP PUSH2 0x2E56 JUMP JUMPDEST DUP9 PUSH26 0xFFFFFFFFFFFFFFFFFFFFFFFFFFFFFFFFFFFFFFFFFFFFFFFFFFFF NOT AND DUP2 PUSH26 0xFFFFFFFFFFFFFFFFFFFFFFFFFFFFFFFFFFFFFFFFFFFFFFFFFFFF NOT AND EQ PUSH2 0x2CFC JUMPI POP POP POP PUSH2 0x2E56 JUMP JUMPDEST PUSH0 DUP1 PUSH1 0x2 PUSH0 SWAP1 SLOAD SWAP1 PUSH2 0x100 EXP SWAP1 DIV PUSH20 0xFFFFFFFFFFFFFFFFFFFFFFFFFFFFFFFFFFFFFFFF AND PUSH20 0xFFFFFFFFFFFFFFFFFFFFFFFFFFFFFFFFFFFFFFFF AND PUSH4 0xC106AEE3 DUP7 DUP15 PUSH1 0x40 MLOAD DUP4 PUSH4 0xFFFFFFFF AND PUSH1 0xE0 SHL DUP2 MSTORE PUSH1 0x4 ADD PUSH2 0x2D5A SWAP3 SWAP2 SWAP1 PUSH2 0x3ABF JUMP JUMPDEST PUSH1 0x40 DUP1 MLOAD DUP1 DUP4 SUB DUP2 DUP7 GAS STATICCALL ISZERO DUP1 ISZERO PUSH2 0x2D74 JUMPI RETURNDATASIZE PUSH0 DUP1 RETURNDATACOPY RETURNDATASIZE PUSH0 REVERT JUMPDEST POP POP POP POP PUSH1 0x40 MLOAD RETURNDATASIZE PUSH1 0x1F NOT PUSH1 0x1F DUP3 ADD AND DUP3 ADD DUP1 PUSH1 0x40 MSTORE POP DUP2 ADD SWAP1 PUSH2 0x2D98 SWAP2 SWAP1 PUSH2 0x3E44 JUMP JUMPDEST SWAP2 POP SWAP2 POP DUP2 PUSH2 0x2DAB JUMPI POP POP POP POP POP PUSH2 0x2E56 JUMP JUMPDEST DUP11 PUSH26 0xFFFFFFFFFFFFFFFFFFFFFFFFFFFFFFFFFFFFFFFFFFFFFFFFFFFF NOT AND DUP2 PUSH26 0xFFFFFFFFFFFFFFFFFFFFFFFFFFFFFFFFFFFFFFFFFFFFFFFFFFFF NOT AND EQ PUSH2 0x2DF6 JUMPI POP POP POP POP POP PUSH2 0x2E56 JUMP JUMPDEST DUP5 DUP8 DUP11 DUP1 PUSH2 0x2E03 SWAP1 PUSH2 0x3854 JUMP JUMPDEST SWAP12 POP DUP2 MLOAD DUP2 LT PUSH2 0x2E16 JUMPI PUSH2 0x2E15 PUSH2 0x397F JUMP JUMPDEST JUMPDEST PUSH1 0x20 MUL PUSH1 0x20 ADD ADD SWAP1 PUSH20 0xFFFFFFFFFFFFFFFFFFFFFFFFFFFFFFFFFFFFFFFF AND SWAP1 DUP2 PUSH20 0xFFFFFFFFFFFFFFFFFFFFFFFFFFFFFFFFFFFFFFFF AND DUP2 MSTORE POP POP POP POP POP POP POP JUMPDEST DUP1 DUP1 PUSH1 0x1 ADD SWAP2 POP POP PUSH2 0x2BDF JUMP JUMPDEST POP DUP3 PUSH8 0xFFFFFFFFFFFFFFFF DUP2 GT ISZERO PUSH2 0x2E7E JUMPI PUSH2 0x2E7D PUSH2 0x38C2 JUMP JUMPDEST JUMPDEST PUSH1 0x40 MLOAD SWAP1 DUP1 DUP3 MSTORE DUP1 PUSH1 0x20 MUL PUSH1 0x20 ADD DUP3 ADD PUSH1 0x40 MSTORE DUP1 ISZERO PUSH2 0x2EAC JUMPI DUP2 PUSH1 0x20 ADD PUSH1 0x20 DUP3 MUL DUP1 CALLDATASIZE DUP4 CALLDATACOPY DUP1 DUP3 ADD SWAP2 POP POP SWAP1 POP JUMPDEST POP SWAP4 POP PUSH0 JUMPDEST DUP4 DUP2 LT ISZERO PUSH2 0x2F2E JUMPI DUP2 DUP2 DUP2 MLOAD DUP2 LT PUSH2 0x2ECC JUMPI PUSH2 0x2ECB PUSH2 0x397F JUMP JUMPDEST JUMPDEST PUSH1 0x20 MUL PUSH1 0x20 ADD ADD MLOAD DUP6 DUP3 DUP2 MLOAD DUP2 LT PUSH2 0x2EE7 JUMPI PUSH2 0x2EE6 PUSH2 0x397F JUMP JUMPDEST JUMPDEST PUSH1 0x20 MUL PUSH1 0x20 ADD ADD SWAP1 PUSH20 0xFFFFFFFFFFFFFFFFFFFFFFFFFFFFFFFFFFFFFFFF AND SWAP1 DUP2 PUSH20 0xFFFFFFFFFFFFFFFFFFFFFFFFFFFFFFFFFFFFFFFF AND DUP2 MSTORE POP POP DUP1 DUP1 PUSH1 0x1 ADD SWAP2 POP POP PUSH2 0x2EB1 JUMP JUMPDEST POP POP POP SWAP3 POP SWAP3 SWAP1 POP JUMP JUMPDEST PUSH0 DUP1 PUSH0 PUSH1 0xC SLOAD SWAP3 POP PUSH0 PUSH1 0xF SLOAD GT DUP1 ISZERO PUSH2 0x2F50 JUMPI POP PUSH0 DUP4 GT JUMPDEST ISZERO PUSH2 0x2FBA JUMPI PUSH0 PUSH2 0x2710 PUSH1 0xF SLOAD DUP6 PUSH2 0x2F67 SWAP2 SWAP1 PUSH2 0x3A7E JUMP JUMPDEST PUSH2 0x2F71 SWAP2 SWAP1 PUSH2 0x3E82 JUMP JUMPDEST SWAP1 POP DUP1 DUP5 PUSH2 0x2F7F SWAP2 SWAP1 PUSH2 0x3A4B JUMP JUMPDEST SWAP4 POP PUSH32 0x85FCFC84BAA0423652490BDD8531F642A3376CB202145025B549FB449516E5A8 DUP2 PUSH1 0x40 MLOAD PUSH2 0x2FB0 SWAP2 SWAP1 PUSH2 0x36CC JUMP JUMPDEST PUSH1 0x40 MLOAD DUP1 SWAP2 SUB SWAP1 LOG1 POP JUMPDEST PUSH0 DUP4 SWAP2 POP PUSH0 DUP6 GT ISZERO PUSH2 0x2FF1 JUMPI DUP5 DUP5 PUSH2 0x2FD2 SWAP2 SWAP1 PUSH2 0x3E82 JUMP JUMPDEST SWAP3 POP DUP5 DUP4 PUSH2 0x2FE0 SWAP2 SWAP1 PUSH2 0x3A7E JUMP JUMPDEST SWAP1 POP DUP1 DUP5 PUSH2 0x2FEE SWAP2 SWAP1 PUSH2 0x3A4B JUMP JUMPDEST SWAP2 POP JUMPDEST PUSH0 JUMPDEST DUP6 DUP2 LT ISZERO PUSH2 0x3091 JUMPI PUSH1 0x12 PUSH0 DUP10 DUP2 MSTORE PUSH1 0x20 ADD SWAP1 DUP2 MSTORE PUSH1 0x20 ADD PUSH0 KECCAK256 DUP8 DUP3 DUP2 MLOAD DUP2 LT PUSH2 0x301F JUMPI PUSH2 0x301E PUSH2 0x397F JUMP JUMPDEST JUMPDEST PUSH1 0x20 MUL PUSH1 0x20 ADD ADD MLOAD SWAP1 DUP1 PUSH1 0x1 DUP2 SLOAD ADD DUP1 DUP3 SSTORE DUP1 SWAP2 POP POP PUSH1 0x1 SWAP1 SUB SWAP1 PUSH0 MSTORE PUSH1 0x20 PUSH0 KECCAK256 ADD PUSH0 SWAP1 SWAP2 SWAP1 SWAP2 SWAP1 SWAP2 PUSH2 0x100 EXP DUP2 SLOAD DUP2 PUSH20 0xFFFFFFFFFFFFFFFFFFFFFFFFFFFFFFFFFFFFFFFF MUL NOT AND SWAP1 DUP4 PUSH20 0xFFFFFFFFFFFFFFFFFFFFFFFFFFFFFFFFFFFFFFFF AND MUL OR SWAP1 SSTORE POP DUP1 DUP1 PUSH1 0x1 ADD SWAP2 POP POP PUSH2 0x2FF3 JUMP JUMPDEST POP DUP4 PUSH1 0x11 PUSH0 DUP10 DUP2 MSTORE PUSH1 0x20 ADD SWAP1 DUP2 MSTORE PUSH1 0x20 ADD PUSH0 KECCAK256 DUP2 SWAP1 SSTORE POP DUP3 PUSH1 0x13 PUSH0 DUP10 DUP2 MSTORE PUSH1 0x20 ADD SWAP1 DUP2 MSTORE PUSH1 0x20 ADD PUSH0 KECCAK256 DUP2 SWAP1 SSTORE POP DUP2 PUSH1 0x14 PUSH0 DUP10 DUP2 MSTORE PUSH1 0x20 ADD SWAP1 DUP2 MSTORE PUSH1 0x20 ADD PUSH0 KECCAK256 DUP2 SWAP1 SSTORE POP DUP1 PUSH1 0xD PUSH0 DUP3 DUP3 SLOAD PUSH2 0x30E5 SWAP2 SWAP1 PUSH2 0x38EF JUMP JUMPDEST SWAP3 POP POP DUP2 SWAP1 SSTORE POP DUP2 PUSH1 0xC DUP2 SWAP1 SSTORE POP POP SWAP4 POP SWAP4 POP SWAP4 SWAP1 POP JUMP JUMPDEST PUSH0 PUSH1 0x2 PUSH0 SWAP1 SLOAD SWAP1 PUSH2 0x100 EXP SWAP1 DIV PUSH20 0xFFFFFFFFFFFFFFFFFFFFFFFFFFFFFFFFFFFFFFFF AND PUSH20 0xFFFFFFFFFFFFFFFFFFFFFFFFFFFFFFFFFFFFFFFF AND PUSH4 0x454AC84E DUP4 PUSH1 0x40 MLOAD DUP3 PUSH4 0xFFFFFFFF AND PUSH1 0xE0 SHL DUP2 MSTORE PUSH1 0x4 ADD PUSH2 0x3158 SWAP2 SWAP1 PUSH2 0x36CC JUMP JUMPDEST PUSH0 PUSH1 0x40 MLOAD DUP1 DUP4 SUB DUP2 DUP7 GAS STATICCALL ISZERO DUP1 ISZERO PUSH2 0x3172 JUMPI RETURNDATASIZE PUSH0 DUP1 RETURNDATACOPY RETURNDATASIZE PUSH0 REVERT JUMPDEST POP POP POP POP PUSH1 0x40 MLOAD RETURNDATASIZE PUSH0 DUP3 RETURNDATACOPY RETURNDATASIZE PUSH1 0x1F NOT PUSH1 0x1F DUP3 ADD AND DUP3 ADD DUP1 PUSH1 0x40 MSTORE POP DUP2 ADD SWAP1 PUSH2 0x319A SWAP2 SWAP1 PUSH2 0x3C1D JUMP JUMPDEST SWAP1 POP PUSH0 JUMPDEST DUP2 MLOAD DUP2 LT ISZERO PUSH2 0x33E0 JUMPI PUSH0 PUSH1 0x2 PUSH0 SWAP1 SLOAD SWAP1 PUSH2 0x100 EXP SWAP1 DIV PUSH20 0xFFFFFFFFFFFFFFFFFFFFFFFFFFFFFFFFFFFFFFFF AND PUSH20 0xFFFFFFFFFFFFFFFFFFFFFFFFFFFFFFFFFFFFFFFF AND PUSH4 0xB8A740E0 DUP5 DUP5 DUP2 MLOAD DUP2 LT PUSH2 0x31F8 JUMPI PUSH2 0x31F7 PUSH2 0x397F JUMP JUMPDEST JUMPDEST PUSH1 0x20 MUL PUSH1 0x20 ADD ADD MLOAD DUP7 PUSH1 0x40 MLOAD DUP4 PUSH4 0xFFFFFFFF AND PUSH1 0xE0 SHL DUP2 MSTORE PUSH1 0x4 ADD PUSH2 0x321E SWAP3 SWAP2 SWAP1 PUSH2 0x3ABF JUMP JUMPDEST PUSH1 0xE0 PUSH1 0x40 MLOAD DUP1 DUP4 SUB DUP2 DUP7 GAS STATICCALL ISZERO DUP1 ISZERO PUSH2 0x3239 JUMPI RETURNDATASIZE PUSH0 DUP1 RETURNDATACOPY RETURNDATASIZE PUSH0 REVERT JUMPDEST POP POP POP POP PUSH1 0x40 MLOAD RETURNDATASIZE PUSH1 0x1F NOT PUSH1 0x1F DUP3 ADD AND DUP3 ADD DUP1 PUSH1 0x40 MSTORE POP DUP2 ADD SWAP1 PUSH2 0x325D SWAP2 SWAP1 PUSH2 0x3EFC JUMP JUMPDEST POP POP POP POP SWAP3 POP POP POP PUSH1 0x8 SLOAD DUP2 LT ISZERO PUSH2 0x33D2 JUMPI PUSH1 0x2 DUP2 PUSH2 0x327C SWAP2 SWAP1 PUSH2 0x38EF JUMP JUMPDEST PUSH1 0x8 SLOAD GT ISZERO PUSH2 0x332D JUMPI PUSH1 0x2 PUSH0 SWAP1 SLOAD SWAP1 PUSH2 0x100 EXP SWAP1 DIV PUSH20 0xFFFFFFFFFFFFFFFFFFFFFFFFFFFFFFFFFFFFFFFF AND PUSH20 0xFFFFFFFFFFFFFFFFFFFFFFFFFFFFFFFFFFFFFFFF AND PUSH4 0x7A03CE4F DUP5 DUP5 DUP2 MLOAD DUP2 LT PUSH2 0x32D5 JUMPI PUSH2 0x32D4 PUSH2 0x397F JUMP JUMPDEST JUMPDEST PUSH1 0x20 MUL PUSH1 0x20 ADD ADD MLOAD DUP7 PUSH1 0x40 MLOAD DUP4 PUSH4 0xFFFFFFFF AND PUSH1 0xE0 SHL DUP2 MSTORE PUSH1 0x4 ADD PUSH2 0x32FB SWAP3 SWAP2 SWAP1 PUSH2 0x3ABF JUMP JUMPDEST PUSH0 PUSH1 0x40 MLOAD DUP1 DUP4 SUB DUP2 PUSH0 DUP8 DUP1 EXTCODESIZE ISZERO DUP1 ISZERO PUSH2 0x3312 JUMPI PUSH0 DUP1 REVERT JUMPDEST POP GAS CALL ISZERO DUP1 ISZERO PUSH2 0x3324 JUMPI RETURNDATASIZE PUSH0 DUP1 RETURNDATACOPY RETURNDATASIZE PUSH0 REVERT JUMPDEST POP POP POP POP PUSH2 0x33D1 JUMP JUMPDEST PUSH1 0x2 PUSH0 SWAP1 SLOAD SWAP1 PUSH2 0x100 EXP SWAP1 DIV PUSH20 0xFFFFFFFFFFFFFFFFFFFFFFFFFFFFFFFFFFFFFFFF AND PUSH20 0xFFFFFFFFFFFFFFFFFFFFFFFFFFFFFFFFFFFFFFFF AND PUSH4 0x47F43EF2 DUP5 DUP5 DUP2 MLOAD DUP2 LT PUSH2 0x337D JUMPI PUSH2 0x337C PUSH2 0x397F JUMP JUMPDEST JUMPDEST PUSH1 0x20 MUL PUSH1 0x20 ADD ADD MLOAD DUP7 PUSH1 0x40 MLOAD DUP4 PUSH4 0xFFFFFFFF AND PUSH1 0xE0 SHL DUP2 MSTORE PUSH1 0x4 ADD PUSH2 0x33A3 SWAP3 SWAP2 SWAP1 PUSH2 0x3ABF JUMP JUMPDEST PUSH0 PUSH1 0x40 MLOAD DUP1 DUP4 SUB DUP2 PUSH0 DUP8 DUP1 EXTCODESIZE ISZERO DUP1 ISZERO PUSH2 0x33BA JUMPI PUSH0 DUP1 REVERT JUMPDEST POP GAS CALL ISZERO DUP1 ISZERO PUSH2 0x33CC JUMPI RETURNDATASIZE PUSH0 DUP1 RETURNDATACOPY RETURNDATASIZE PUSH0 REVERT JUMPDEST POP POP POP POP JUMPDEST JUMPDEST POP DUP1 DUP1 PUSH1 0x1 ADD SWAP2 POP POP PUSH2 0x319E JUMP JUMPDEST POP POP POP JUMP JUMPDEST PUSH0 PUSH1 0x2 PUSH2 0x33F8 PUSH2 0x33F3 PUSH2 0x29DE JUMP JUMPDEST PUSH2 0x2A07 JUMP JUMPDEST PUSH0 ADD SLOAD EQ SWAP1 POP SWAP1 JUMP JUMPDEST PUSH0 PUSH1 0x40 MLOAD SWAP1 POP SWAP1 JUMP JUMPDEST PUSH0 DUP1 REVERT JUMPDEST PUSH0 DUP1 REVERT JUMPDEST PUSH0 DUP2 SWAP1 POP SWAP2 SWAP1 POP JUMP JUMPDEST PUSH2 0x3424 DUP2 PUSH2 0x3412 JUMP JUMPDEST DUP2 EQ PUSH2 0x342E JUMPI PUSH0 DUP1 REVERT JUMPDEST POP JUMP JUMPDEST PUSH0 DUP2 CALLDATALOAD SWAP1 POP PUSH2 0x343F DUP2 PUSH2 0x341B JUMP JUMPDEST SWAP3 SWAP2 POP POP JUMP JUMPDEST PUSH0 PUSH1 0x20 DUP3 DUP5 SUB SLT ISZERO PUSH2 0x345A JUMPI PUSH2 0x3459 PUSH2 0x340A JUMP JUMPDEST JUMPDEST PUSH0 PUSH2 0x3467 DUP5 DUP3 DUP6 ADD PUSH2 0x3431 JUMP JUMPDEST SWAP2 POP POP SWAP3 SWAP2 POP POP JUMP JUMPDEST PUSH0 PUSH32 0xFFFFFFFFFFFF0000000000000000000000000000000000000000000000000000 DUP3 AND SWAP1 POP SWAP2 SWAP1 POP JUMP JUMPDEST PUSH2 0x34A4 DUP2 PUSH2 0x3470 JUMP JUMPDEST DUP3 MSTORE POP POP JUMP JUMPDEST PUSH2 0x34B3 DUP2 PUSH2 0x3412 JUMP JUMPDEST DUP3 MSTORE POP POP JUMP JUMPDEST PUSH0 DUP2 MLOAD SWAP1 POP SWAP2 SWAP1 POP JUMP JUMPDEST PUSH0 DUP3 DUP3 MSTORE PUSH1 0x20 DUP3 ADD SWAP1 POP SWAP3 SWAP2 POP POP JUMP JUMPDEST PUSH0 DUP2 SWAP1 POP PUSH1 0x20 DUP3 ADD SWAP1 POP SWAP2 SWAP1 POP JUMP JUMPDEST PUSH0 PUSH20 0xFFFFFFFFFFFFFFFFFFFFFFFFFFFFFFFFFFFFFFFF DUP3 AND SWAP1 POP SWAP2 SWAP1 POP JUMP JUMPDEST PUSH0 PUSH2 0x350B DUP3 PUSH2 0x34E2 JUMP JUMPDEST SWAP1 POP SWAP2 SWAP1 POP JUMP JUMPDEST PUSH2 0x351B DUP2 PUSH2 0x3501 JUMP JUMPDEST DUP3 MSTORE POP POP JUMP JUMPDEST PUSH0 PUSH2 0x352C DUP4 DUP4 PUSH2 0x3512 JUMP JUMPDEST PUSH1 0x20 DUP4 ADD SWAP1 POP SWAP3 SWAP2 POP POP JUMP JUMPDEST PUSH0 PUSH1 0x20 DUP3 ADD SWAP1 POP SWAP2 SWAP1 POP JUMP JUMPDEST PUSH0 PUSH2 0x354E DUP3 PUSH2 0x34B9 JUMP JUMPDEST PUSH2 0x3558 DUP2 DUP6 PUSH2 0x34C3 JUMP JUMPDEST SWAP4 POP PUSH2 0x3563 DUP4 PUSH2 0x34D3 JUMP JUMPDEST DUP1 PUSH0 JUMPDEST DUP4 DUP2 LT ISZERO PUSH2 0x3593 JUMPI DUP2 MLOAD PUSH2 0x357A DUP9 DUP3 PUSH2 0x3521 JUMP JUMPDEST SWAP8 POP PUSH2 0x3585 DUP4 PUSH2 0x3538 JUMP JUMPDEST SWAP3 POP POP PUSH1 0x1 DUP2 ADD SWAP1 POP PUSH2 0x3566 JUMP JUMPDEST POP DUP6 SWAP4 POP POP POP POP SWAP3 SWAP2 POP POP JUMP JUMPDEST PUSH0 PUSH1 0xA0 DUP3 ADD SWAP1 POP PUSH2 0x35B3 PUSH0 DUP4 ADD DUP9 PUSH2 0x349B JUMP JUMPDEST PUSH2 0x35C0 PUSH1 0x20 DUP4 ADD DUP8 PUSH2 0x34AA JUMP JUMPDEST DUP2 DUP2 SUB PUSH1 0x40 DUP4 ADD MSTORE PUSH2 0x35D2 DUP2 DUP7 PUSH2 0x3544 JUMP JUMPDEST SWAP1 POP PUSH2 0x35E1 PUSH1 0x60 DUP4 ADD DUP6 PUSH2 0x34AA JUMP JUMPDEST PUSH2 0x35EE PUSH1 0x80 DUP4 ADD DUP5 PUSH2 0x34AA JUMP JUMPDEST SWAP7 SWAP6 POP POP POP POP POP POP JUMP JUMPDEST PUSH0 DUP1 PUSH1 0x40 DUP4 DUP6 SUB SLT ISZERO PUSH2 0x360E JUMPI PUSH2 0x360D PUSH2 0x340A JUMP JUMPDEST JUMPDEST PUSH0 PUSH2 0x361B DUP6 DUP3 DUP7 ADD PUSH2 0x3431 JUMP JUMPDEST SWAP3 POP POP PUSH1 0x20 PUSH2 0x362C DUP6 DUP3 DUP7 ADD PUSH2 0x3431 JUMP JUMPDEST SWAP2 POP POP SWAP3 POP SWAP3 SWAP1 POP JUMP JUMPDEST PUSH2 0x363F DUP2 PUSH2 0x3501 JUMP JUMPDEST DUP3 MSTORE POP POP JUMP JUMPDEST PUSH0 PUSH1 0x20 DUP3 ADD SWAP1 POP PUSH2 0x3658 PUSH0 DUP4 ADD DUP5 PUSH2 0x3636 JUMP JUMPDEST SWAP3 SWAP2 POP POP JUMP JUMPDEST PUSH2 0x3667 DUP2 PUSH2 0x3501 JUMP JUMPDEST DUP2 EQ PUSH2 0x3671 JUMPI PUSH0 DUP1 REVERT JUMPDEST POP JUMP JUMPDEST PUSH0 DUP2 CALLDATALOAD SWAP1 POP PUSH2 0x3682 DUP2 PUSH2 0x365E JUMP JUMPDEST SWAP3 SWAP2 POP POP JUMP JUMPDEST PUSH0 PUSH1 0x20 DUP3 DUP5 SUB SLT ISZERO PUSH2 0x369D JUMPI PUSH2 0x369C PUSH2 0x340A JUMP JUMPDEST JUMPDEST PUSH0 PUSH2 0x36AA DUP5 DUP3 DUP6 ADD PUSH2 0x3674 JUMP JUMPDEST SWAP2 POP POP SWAP3 SWAP2 POP POP JUMP JUMPDEST PUSH0 PUSH1 0x20 DUP3 ADD SWAP1 POP PUSH2 0x36C6 PUSH0 DUP4 ADD DUP5 PUSH2 0x349B JUMP JUMPDEST SWAP3 SWAP2 POP POP JUMP JUMPDEST PUSH0 PUSH1 0x20 DUP3 ADD SWAP1 POP PUSH2 0x36DF PUSH0 DUP4 ADD DUP5 PUSH2 0x34AA JUMP JUMPDEST SWAP3 SWAP2 POP POP JUMP JUMPDEST PUSH0 DUP2 ISZERO ISZERO SWAP1 POP SWAP2 SWAP1 POP JUMP JUMPDEST PUSH2 0x36F9 DUP2 PUSH2 0x36E5 JUMP JUMPDEST DUP3 MSTORE POP POP JUMP JUMPDEST PUSH0 PUSH2 0x100 DUP3 ADD SWAP1 POP PUSH2 0x3713 PUSH0 DUP4 ADD DUP12 PUSH2 0x34AA JUMP JUMPDEST PUSH2 0x3720 PUSH1 0x20 DUP4 ADD DUP11 PUSH2 0x34AA JUMP JUMPDEST PUSH2 0x372D PUSH1 0x40 DUP4 ADD DUP10 PUSH2 0x34AA JUMP JUMPDEST PUSH2 0x373A PUSH1 0x60 DUP4 ADD DUP9 PUSH2 0x34AA JUMP JUMPDEST PUSH2 0x3747 PUSH1 0x80 DUP4 ADD DUP8 PUSH2 0x349B JUMP JUMPDEST PUSH2 0x3754 PUSH1 0xA0 DUP4 ADD DUP7 PUSH2 0x34AA JUMP JUMPDEST PUSH2 0x3761 PUSH1 0xC0 DUP4 ADD DUP6 PUSH2 0x34AA JUMP JUMPDEST PUSH2 0x376E PUSH1 0xE0 DUP4 ADD DUP5 PUSH2 0x36F0 JUMP JUMPDEST SWAP10 SWAP9 POP POP POP POP POP POP POP POP POP JUMP JUMPDEST PUSH0 PUSH1 0x20 DUP3 ADD SWAP1 POP PUSH2 0x378E PUSH0 DUP4 ADD DUP5 PUSH2 0x36F0 JUMP JUMPDEST SWAP3 SWAP2 POP POP JUMP JUMPDEST PUSH0 DUP1 PUSH1 0x40 DUP4 DUP6 SUB SLT ISZERO PUSH2 0x37AA JUMPI PUSH2 0x37A9 PUSH2 0x340A JUMP JUMPDEST JUMPDEST PUSH0 PUSH2 0x37B7 DUP6 DUP3 DUP7 ADD PUSH2 0x3431 JUMP JUMPDEST SWAP3 POP POP PUSH1 0x20 PUSH2 0x37C8 DUP6 DUP3 DUP7 ADD PUSH2 0x3674 JUMP JUMPDEST SWAP2 POP POP SWAP3 POP SWAP3 SWAP1 POP JUMP JUMPDEST PUSH2 0x37DB DUP2 PUSH2 0x36E5 JUMP JUMPDEST DUP2 EQ PUSH2 0x37E5 JUMPI PUSH0 DUP1 REVERT JUMPDEST POP JUMP JUMPDEST PUSH0 DUP2 CALLDATALOAD SWAP1 POP PUSH2 0x37F6 DUP2 PUSH2 0x37D2 JUMP JUMPDEST SWAP3 SWAP2 POP POP JUMP JUMPDEST PUSH0 PUSH1 0x20 DUP3 DUP5 SUB SLT ISZERO PUSH2 0x3811 JUMPI PUSH2 0x3810 PUSH2 0x340A JUMP JUMPDEST JUMPDEST PUSH0 PUSH2 0x381E DUP5 DUP3 DUP6 ADD PUSH2 0x37E8 JUMP JUMPDEST SWAP2 POP POP SWAP3 SWAP2 POP POP JUMP JUMPDEST PUSH32 0x4E487B7100000000000000000000000000000000000000000000000000000000 PUSH0 MSTORE PUSH1 0x11 PUSH1 0x4 MSTORE PUSH1 0x24 PUSH0 REVERT JUMPDEST PUSH0 PUSH2 0x385E DUP3 PUSH2 0x3412 JUMP JUMPDEST SWAP2 POP PUSH32 0xFFFFFFFFFFFFFFFFFFFFFFFFFFFFFFFFFFFFFFFFFFFFFFFFFFFFFFFFFFFFFFFF DUP3 SUB PUSH2 0x3890 JUMPI PUSH2 0x388F PUSH2 0x3827 JUMP JUMPDEST JUMPDEST PUSH1 0x1 DUP3 ADD SWAP1 POP SWAP2 SWAP1 POP JUMP JUMPDEST PUSH0 PUSH1 0x40 DUP3 ADD SWAP1 POP PUSH2 0x38AE PUSH0 DUP4 ADD DUP6 PUSH2 0x34AA JUMP JUMPDEST PUSH2 0x38BB PUSH1 0x20 DUP4 ADD DUP5 PUSH2 0x34AA JUMP JUMPDEST SWAP4 SWAP3 POP POP POP JUMP JUMPDEST PUSH32 0x4E487B7100000000000000000000000000000000000000000000000000000000 PUSH0 MSTORE PUSH1 0x41 PUSH1 0x4 MSTORE PUSH1 0x24 PUSH0 REVERT JUMPDEST PUSH0 PUSH2 0x38F9 DUP3 PUSH2 0x3412 JUMP JUMPDEST SWAP2 POP PUSH2 0x3904 DUP4 PUSH2 0x3412 JUMP JUMPDEST SWAP3 POP DUP3 DUP3 ADD SWAP1 POP DUP1 DUP3 GT ISZERO PUSH2 0x391C JUMPI PUSH2 0x391B PUSH2 0x3827 JUMP JUMPDEST JUMPDEST SWAP3 SWAP2 POP POP JUMP JUMPDEST PUSH32 0x4E487B7100000000000000000000000000000000000000000000000000000000 PUSH0 MSTORE PUSH1 0x12 PUSH1 0x4 MSTORE PUSH1 0x24 PUSH0 REVERT JUMPDEST PUSH0 PUSH2 0x3959 DUP3 PUSH2 0x3412 JUMP JUMPDEST SWAP2 POP PUSH2 0x3964 DUP4 PUSH2 0x3412 JUMP JUMPDEST SWAP3 POP DUP3 PUSH2 0x3974 JUMPI PUSH2 0x3973 PUSH2 0x3922 JUMP JUMPDEST JUMPDEST DUP3 DUP3 MOD SWAP1 POP SWAP3 SWAP2 POP POP JUMP JUMPDEST PUSH32 0x4E487B7100000000000000000000000000000000000000000000000000000000 PUSH0 MSTORE PUSH1 0x32 PUSH1 0x4 MSTORE PUSH1 0x24 PUSH0 REVERT JUMPDEST PUSH0 DUP2 MLOAD SWAP1 POP SWAP2 SWAP1 POP JUMP JUMPDEST PUSH0 DUP2 SWAP1 POP PUSH1 0x20 DUP3 ADD SWAP1 POP SWAP2 SWAP1 POP JUMP JUMPDEST PUSH0 PUSH2 0x39D0 DUP3 MLOAD PUSH2 0x3470 JUMP JUMPDEST DUP1 SWAP2 POP POP SWAP2 SWAP1 POP JUMP JUMPDEST PUSH0 DUP3 DUP3 SHL SWAP1 POP SWAP3 SWAP2 POP POP JUMP JUMPDEST PUSH0 PUSH2 0x39EF DUP3 PUSH2 0x39AC JUMP JUMPDEST DUP3 PUSH2 0x39F9 DUP5 PUSH2 0x39B6 JUMP JUMPDEST SWAP1 POP PUSH2 0x3A04 DUP2 PUSH2 0x39C5 JUMP JUMPDEST SWAP3 POP PUSH1 0x6 DUP3 LT ISZERO PUSH2 0x3A44 JUMPI PUSH2 0x3A3F PUSH32 0xFFFFFFFFFFFF0000000000000000000000000000000000000000000000000000 DUP4 PUSH1 0x6 SUB PUSH1 0x8 MUL PUSH2 0x39D9 JUMP JUMPDEST DUP4 AND SWAP3 POP JUMPDEST POP POP SWAP2 SWAP1 POP JUMP JUMPDEST PUSH0 PUSH2 0x3A55 DUP3 PUSH2 0x3412 JUMP JUMPDEST SWAP2 POP PUSH2 0x3A60 DUP4 PUSH2 0x3412 JUMP JUMPDEST SWAP3 POP DUP3 DUP3 SUB SWAP1 POP DUP2 DUP2 GT ISZERO PUSH2 0x3A78 JUMPI PUSH2 0x3A77 PUSH2 0x3827 JUMP JUMPDEST JUMPDEST SWAP3 SWAP2 POP POP JUMP JUMPDEST PUSH0 PUSH2 0x3A88 DUP3 PUSH2 0x3412 JUMP JUMPDEST SWAP2 POP PUSH2 0x3A93 DUP4 PUSH2 0x3412 JUMP JUMPDEST SWAP3 POP DUP3 DUP3 MUL PUSH2 0x3AA1 DUP2 PUSH2 0x3412 JUMP JUMPDEST SWAP2 POP DUP3 DUP3 DIV DUP5 EQ DUP4 ISZERO OR PUSH2 0x3AB8 JUMPI PUSH2 0x3AB7 PUSH2 0x3827 JUMP JUMPDEST JUMPDEST POP SWAP3 SWAP2 POP POP JUMP JUMPDEST PUSH0 PUSH1 0x40 DUP3 ADD SWAP1 POP PUSH2 0x3AD2 PUSH0 DUP4 ADD DUP6 PUSH2 0x3636 JUMP JUMPDEST PUSH2 0x3ADF PUSH1 0x20 DUP4 ADD DUP5 PUSH2 0x34AA JUMP JUMPDEST SWAP4 SWAP3 POP POP POP JUMP JUMPDEST PUSH0 DUP1 REVERT JUMPDEST PUSH0 PUSH1 0x1F NOT PUSH1 0x1F DUP4 ADD AND SWAP1 POP SWAP2 SWAP1 POP JUMP JUMPDEST PUSH2 0x3B03 DUP3 PUSH2 0x3AEA JUMP JUMPDEST DUP2 ADD DUP2 DUP2 LT PUSH8 0xFFFFFFFFFFFFFFFF DUP3 GT OR ISZERO PUSH2 0x3B22 JUMPI PUSH2 0x3B21 PUSH2 0x38C2 JUMP JUMPDEST JUMPDEST DUP1 PUSH1 0x40 MSTORE POP POP POP JUMP JUMPDEST PUSH0 PUSH2 0x3B34 PUSH2 0x3401 JUMP JUMPDEST SWAP1 POP PUSH2 0x3B40 DUP3 DUP3 PUSH2 0x3AFA JUMP JUMPDEST SWAP2 SWAP1 POP JUMP JUMPDEST PUSH0 PUSH8 0xFFFFFFFFFFFFFFFF DUP3 GT ISZERO PUSH2 0x3B5F JUMPI PUSH2 0x3B5E PUSH2 0x38C2 JUMP JUMPDEST JUMPDEST PUSH1 0x20 DUP3 MUL SWAP1 POP PUSH1 0x20 DUP2 ADD SWAP1 POP SWAP2 SWAP1 POP JUMP JUMPDEST PUSH0 DUP1 REVERT JUMPDEST PUSH0 DUP2 MLOAD SWAP1 POP PUSH2 0x3B82 DUP2 PUSH2 0x365E JUMP JUMPDEST SWAP3 SWAP2 POP POP JUMP JUMPDEST PUSH0 PUSH2 0x3B9A PUSH2 0x3B95 DUP5 PUSH2 0x3B45 JUMP JUMPDEST PUSH2 0x3B2B JUMP JUMPDEST SWAP1 POP DUP1 DUP4 DUP3 MSTORE PUSH1 0x20 DUP3 ADD SWAP1 POP PUSH1 0x20 DUP5 MUL DUP4 ADD DUP6 DUP2 GT ISZERO PUSH2 0x3BBD JUMPI PUSH2 0x3BBC PUSH2 0x3B70 JUMP JUMPDEST JUMPDEST DUP4 JUMPDEST DUP2 DUP2 LT ISZERO PUSH2 0x3BE6 JUMPI DUP1 PUSH2 0x3BD2 DUP9 DUP3 PUSH2 0x3B74 JUMP JUMPDEST DUP5 MSTORE PUSH1 0x20 DUP5 ADD SWAP4 POP POP PUSH1 0x20 DUP2 ADD SWAP1 POP PUSH2 0x3BBF JUMP JUMPDEST POP POP POP SWAP4 SWAP3 POP POP POP JUMP JUMPDEST PUSH0 DUP3 PUSH1 0x1F DUP4 ADD SLT PUSH2 0x3C04 JUMPI PUSH2 0x3C03 PUSH2 0x3AE6 JUMP JUMPDEST JUMPDEST DUP2 MLOAD PUSH2 0x3C14 DUP5 DUP3 PUSH1 0x20 DUP7 ADD PUSH2 0x3B88 JUMP JUMPDEST SWAP2 POP POP SWAP3 SWAP2 POP POP JUMP JUMPDEST PUSH0 PUSH1 0x20 DUP3 DUP5 SUB SLT ISZERO PUSH2 0x3C32 JUMPI PUSH2 0x3C31 PUSH2 0x340A JUMP JUMPDEST JUMPDEST PUSH0 DUP3 ADD MLOAD PUSH8 0xFFFFFFFFFFFFFFFF DUP2 GT ISZERO PUSH2 0x3C4F JUMPI PUSH2 0x3C4E PUSH2 0x340E JUMP JUMPDEST JUMPDEST PUSH2 0x3C5B DUP5 DUP3 DUP6 ADD PUSH2 0x3BF0 JUMP JUMPDEST SWAP2 POP POP SWAP3 SWAP2 POP POP JUMP JUMPDEST PUSH0 PUSH1 0xC0 DUP3 ADD SWAP1 POP PUSH2 0x3C77 PUSH0 DUP4 ADD DUP10 PUSH2 0x349B JUMP JUMPDEST PUSH2 0x3C84 PUSH1 0x20 DUP4 ADD DUP9 PUSH2 0x34AA JUMP JUMPDEST PUSH2 0x3C91 PUSH1 0x40 DUP4 ADD DUP8 PUSH2 0x34AA JUMP JUMPDEST PUSH2 0x3C9E PUSH1 0x60 DUP4 ADD DUP7 PUSH2 0x34AA JUMP JUMPDEST PUSH2 0x3CAB PUSH1 0x80 DUP4 ADD DUP6 PUSH2 0x34AA JUMP JUMPDEST PUSH2 0x3CB8 PUSH1 0xA0 DUP4 ADD DUP5 PUSH2 0x34AA JUMP JUMPDEST SWAP8 SWAP7 POP POP POP POP POP POP POP JUMP JUMPDEST PUSH0 DUP2 SWAP1 POP SWAP2 SWAP1 POP JUMP JUMPDEST PUSH0 DUP2 SWAP1 POP SWAP2 SWAP1 POP JUMP JUMPDEST PUSH0 PUSH2 0x3CEF PUSH2 0x3CEA PUSH2 0x3CE5 DUP5 PUSH2 0x3CC3 JUMP JUMPDEST PUSH2 0x3CCC JUMP JUMPDEST PUSH2 0x3412 JUMP JUMPDEST SWAP1 POP SWAP2 SWAP1 POP JUMP JUMPDEST PUSH2 0x3CFF DUP2 PUSH2 0x3CD5 JUMP JUMPDEST DUP3 MSTORE POP POP JUMP JUMPDEST PUSH0 PUSH1 0x40 DUP3 ADD SWAP1 POP PUSH2 0x3D18 PUSH0 DUP4 ADD DUP6 PUSH2 0x3CF6 JUMP JUMPDEST PUSH2 0x3D25 PUSH1 0x20 DUP4 ADD DUP5 PUSH2 0x34AA JUMP JUMPDEST SWAP4 SWAP3 POP POP POP JUMP JUMPDEST PUSH0 PUSH1 0x40 DUP3 ADD SWAP1 POP PUSH2 0x3D3F PUSH0 DUP4 ADD DUP6 PUSH2 0x34AA JUMP JUMPDEST DUP2 DUP2 SUB PUSH1 0x20 DUP4 ADD MSTORE PUSH2 0x3D51 DUP2 DUP5 PUSH2 0x3544 JUMP JUMPDEST SWAP1 POP SWAP4 SWAP3 POP POP POP JUMP JUMPDEST PUSH0 DUP2 SWAP1 POP SWAP2 SWAP1 POP JUMP JUMPDEST PUSH0 DUP2 SWAP1 POP SWAP2 SWAP1 POP JUMP JUMPDEST PUSH2 0x3D7D PUSH2 0x3D78 DUP3 PUSH2 0x3D5A JUMP JUMPDEST PUSH2 0x3D63 JUMP JUMPDEST DUP3 MSTORE POP POP JUMP JUMPDEST PUSH0 DUP2 SWAP1 POP SWAP2 SWAP1 POP JUMP JUMPDEST PUSH2 0x3D9D PUSH2 0x3D98 DUP3 PUSH2 0x3412 JUMP JUMPDEST PUSH2 0x3D83 JUMP JUMPDEST DUP3 MSTORE POP POP JUMP JUMPDEST PUSH0 PUSH2 0x3DAE DUP3 DUP7 PUSH2 0x3D6C JUMP JUMPDEST PUSH1 0x20 DUP3 ADD SWAP2 POP PUSH2 0x3DBE DUP3 DUP6 PUSH2 0x3D8C JUMP JUMPDEST PUSH1 0x20 DUP3 ADD SWAP2 POP PUSH2 0x3DCE DUP3 DUP5 PUSH2 0x3D8C JUMP JUMPDEST PUSH1 0x20 DUP3 ADD SWAP2 POP DUP2 SWAP1 POP SWAP5 SWAP4 POP POP POP POP JUMP JUMPDEST PUSH0 PUSH1 0x40 DUP3 ADD SWAP1 POP PUSH2 0x3DF2 PUSH0 DUP4 ADD DUP6 PUSH2 0x34AA JUMP JUMPDEST PUSH2 0x3DFF PUSH1 0x20 DUP4 ADD DUP5 PUSH2 0x349B JUMP JUMPDEST SWAP4 SWAP3 POP POP POP JUMP JUMPDEST PUSH0 DUP2 MLOAD SWAP1 POP PUSH2 0x3E14 DUP2 PUSH2 0x37D2 JUMP JUMPDEST SWAP3 SWAP2 POP POP JUMP JUMPDEST PUSH2 0x3E23 DUP2 PUSH2 0x3470 JUMP JUMPDEST DUP2 EQ PUSH2 0x3E2D JUMPI PUSH0 DUP1 REVERT JUMPDEST POP JUMP JUMPDEST PUSH0 DUP2 MLOAD SWAP1 POP PUSH2 0x3E3E DUP2 PUSH2 0x3E1A JUMP JUMPDEST SWAP3 SWAP2 POP POP JUMP JUMPDEST PUSH0 DUP1 PUSH1 0x40 DUP4 DUP6 SUB SLT ISZERO PUSH2 0x3E5A JUMPI PUSH2 0x3E59 PUSH2 0x340A JUMP JUMPDEST JUMPDEST PUSH0 PUSH2 0x3E67 DUP6 DUP3 DUP7 ADD PUSH2 0x3E06 JUMP JUMPDEST SWAP3 POP POP PUSH1 0x20 PUSH2 0x3E78 DUP6 DUP3 DUP7 ADD PUSH2 0x3E30 JUMP JUMPDEST SWAP2 POP POP SWAP3 POP SWAP3 SWAP1 POP JUMP JUMPDEST PUSH0 PUSH2 0x3E8C DUP3 PUSH2 0x3412 JUMP JUMPDEST SWAP2 POP PUSH2 0x3E97 DUP4 PUSH2 0x3412 JUMP JUMPDEST SWAP3 POP DUP3 PUSH2 0x3EA7 JUMPI PUSH2 0x3EA6 PUSH2 0x3922 JUMP JUMPDEST JUMPDEST DUP3 DUP3 DIV SWAP1 POP SWAP3 SWAP2 POP POP JUMP JUMPDEST PUSH0 DUP2 MLOAD SWAP1 POP PUSH2 0x3EC0 DUP2 PUSH2 0x341B JUMP JUMPDEST SWAP3 SWAP2 POP POP JUMP JUMPDEST PUSH0 PUSH1 0xFF DUP3 AND SWAP1 POP SWAP2 SWAP1 POP JUMP JUMPDEST PUSH2 0x3EDB DUP2 PUSH2 0x3EC6 JUMP JUMPDEST DUP2 EQ PUSH2 0x3EE5 JUMPI PUSH0 DUP1 REVERT JUMPDEST POP JUMP JUMPDEST PUSH0 DUP2 MLOAD SWAP1 POP PUSH2 0x3EF6 DUP2 PUSH2 0x3ED2 JUMP JUMPDEST SWAP3 SWAP2 POP POP JUMP JUMPDEST PUSH0 DUP1 PUSH0 DUP1 PUSH0 DUP1 PUSH0 PUSH1 0xE0 DUP9 DUP11 SUB SLT ISZERO PUSH2 0x3F17 JUMPI PUSH2 0x3F16 PUSH2 0x340A JUMP JUMPDEST JUMPDEST PUSH0 PUSH2 0x3F24 DUP11 DUP3 DUP12 ADD PUSH2 0x3E30 JUMP JUMPDEST SWAP8 POP POP PUSH1 0x20 PUSH2 0x3F35 DUP11 DUP3 DUP12 ADD PUSH2 0x3EB2 JUMP JUMPDEST SWAP7 POP POP PUSH1 0x40 PUSH2 0x3F46 DUP11 DUP3 DUP12 ADD PUSH2 0x3EB2 JUMP JUMPDEST SWAP6 POP POP PUSH1 0x60 PUSH2 0x3F57 DUP11 DUP3 DUP12 ADD PUSH2 0x3EB2 JUMP JUMPDEST SWAP5 POP POP PUSH1 0x80 PUSH2 0x3F68 DUP11 DUP3 DUP12 ADD PUSH2 0x3B74 JUMP JUMPDEST SWAP4 POP POP PUSH1 0xA0 PUSH2 0x3F79 DUP11 DUP3 DUP12 ADD PUSH2 0x3EE8 JUMP JUMPDEST SWAP3 POP POP PUSH1 0xC0 PUSH2 0x3F8A DUP11 DUP3 DUP12 ADD PUSH2 0x3E06 JUMP JUMPDEST SWAP2 POP POP SWAP3 SWAP6 SWAP9 SWAP2 SWAP5 SWAP8 POP SWAP3 SWAP6 POP JUMP INVALID COINBASE TIMESTAMP NUMBER PREVRANDAO GASLIMIT CHAINID SELFBALANCE BASEFEE BLOBHASH BLOBBASEFEE 0x4B 0x4C 0x4D 0x4E 0x4F POP MLOAD MSTORE MSTORE8 SLOAD SSTORE JUMP JUMPI PC MSIZE GAS ADDRESS BALANCE ORIGIN CALLER CALLVALUE CALLDATALOAD CALLDATASIZE CALLDATACOPY CODESIZE CODECOPY LOG2 PUSH5 0x6970667358 0x22 SLT KECCAK256 GT SGT 0xC5 PUSH27 0xFACCB6494665372421B31883502531A9D6EBFFC4FC2CE8D81AD8B BYTE PUSH5 0x736F6C6343 STOP ADDMOD XOR STOP CALLER "
		},
		"gasEstimates": {
			"creation": {
				"codeDepositCost": "3274200",
				"executionCost": "infinite",
				"totalCost": "infinite"
			},
			"external": {
				"CLAIM_WINDOW_ROUNDS()": "437",
				"INTERACTION_WINDOW()": "436",
				"ROUND_DURATION()": "infinite",
				"SEGMENTS_PER_ROUND()": "436",
				"SEGMENT_DURATION()": "infinite",
				"SETTLEMENT_WINDOW()": "437",
				"addToPot()": "infinite",
				"claimWinnings(uint256)": "infinite",
				"currentAccumulatedRewards()": "2492",
				"currentRound()": "2516",
				"currentSegment()": "2537",
				"eligibleRegistry()": "2598",
				"entriesPaused()": "2556",
				"fundPot()": "infinite",
				"gameRegistry()": "2641",
				"gameStarted()": "2534",
				"gameUnclaimed_winningsPool()": "2492",
				"getCurrentWindow()": "infinite",
				"getRoundResult(uint256)": "infinite",
				"getRoundState()": "infinite",
				"getWindowAt(uint256)": "infinite",
				"hasClaimed(uint256,address)": "3140",
				"isSettlementWindow()": "infinite",
				"nudgeScroll()": "infinite",
				"owner()": "2628",
				"pauseEntries()": "infinite",
				"pauseSettlement()": "infinite",
				"positionCounter()": "2537",
				"prizeEscrow()": "2577",
				"protocolCutBps()": "2494",
				"renounceOwnership()": "infinite",
				"roundPerWinnerAmount(uint256)": "infinite",
				"roundPotAmount(uint256)": "infinite",
				"roundRemainder(uint256)": "infinite",
				"roundWinners(uint256,uint256)": "infinite",
				"roundWinningString(uint256)": "2874",
				"router()": "2640",
				"segmentStartTime()": "2537",
				"setEligibleRegistry(address)": "infinite",
				"setGameRegistry(address)": "infinite",
				"setPrizeEscrow(address)": "infinite",
				"setProtocolCutBps(uint256)": "infinite",
				"setRouter(address)": "infinite",
				"setSettler(address)": "infinite",
				"setShuffleEnabled(bool)": "infinite",
				"setWinnersPerRound(uint256)": "infinite",
				"settleSegment()": "infinite",
				"settlementPaused()": "2651",
				"settler()": "2598",
				"shuffleEnabled()": "2556",
				"startGame()": "infinite",
				"timeRemainingInSegment()": "infinite",
				"transferOwnership(address)": "infinite",
				"unpauseEntries()": "infinite",
				"unpauseSettlement()": "infinite",
				"winnersPerRound()": "2492"
			},
			"internal": {
				"_activateRoundEntries(uint256)": "infinite",
				"_distributePotAndRecord(uint256,address[] memory,uint256)": "infinite",
				"_findVerifiedWinners(uint256,bytes6)": "infinite",
				"_freezeWinningString(uint256)": "infinite",
				"_isInSettlementWindow()": "infinite",
				"_processExpiredEntries(uint256)": "infinite",
				"_settleRound()": "infinite"
			}
		},
		"methodIdentifiers": {
			"CLAIM_WINDOW_ROUNDS()": "ac650783",
			"INTERACTION_WINDOW()": "7f35d49f",
			"ROUND_DURATION()": "6641ea08",
			"SEGMENTS_PER_ROUND()": "b7bc5fb6",
			"SEGMENT_DURATION()": "231e832d",
			"SETTLEMENT_WINDOW()": "3deb6cae",
			"addToPot()": "17ebf6ae",
			"claimWinnings(uint256)": "677bd9ff",
			"currentAccumulatedRewards()": "b2721164",
			"currentRound()": "8a19c8bc",
			"currentSegment()": "99b465cb",
			"eligibleRegistry()": "92eaa9d9",
			"entriesPaused()": "2ee0c463",
			"fundPot()": "9c737e8f",
			"gameRegistry()": "da090755",
			"gameStarted()": "5e123ce4",
			"gameUnclaimed_winningsPool()": "d38970bc",
			"getCurrentWindow()": "0f67e7d5",
			"getRoundResult(uint256)": "02e28c70",
			"getRoundState()": "293c2958",
			"getWindowAt(uint256)": "8e6a134b",
			"hasClaimed(uint256,address)": "873f6f9e",
			"isSettlementWindow()": "c33b7586",
			"nudgeScroll()": "0b7a567b",
			"owner()": "8da5cb5b",
			"pauseEntries()": "0a8506ca",
			"pauseSettlement()": "d57f9525",
			"positionCounter()": "63d5ab8d",
			"prizeEscrow()": "1a3b8e8c",
			"protocolCutBps()": "41d67d06",
			"renounceOwnership()": "715018a6",
			"roundPerWinnerAmount(uint256)": "f82a23d1",
			"roundPotAmount(uint256)": "7f79ba59",
			"roundRemainder(uint256)": "b303feeb",
			"roundWinners(uint256,uint256)": "03e3cd6a",
			"roundWinningString(uint256)": "79eedbdd",
			"router()": "f887ea40",
			"segmentStartTime()": "cc16fe5b",
			"setEligibleRegistry(address)": "f13afb90",
			"setGameRegistry(address)": "dd898b2f",
			"setPrizeEscrow(address)": "5f303f1c",
			"setProtocolCutBps(uint256)": "456990c7",
			"setRouter(address)": "c0d78655",
			"setSettler(address)": "07f19eba",
			"setShuffleEnabled(bool)": "ebd2fe41",
			"setWinnersPerRound(uint256)": "1ad41d14",
			"settleSegment()": "46a662bf",
			"settlementPaused()": "4168632d",
			"settler()": "ab221a76",
			"shuffleEnabled()": "c74b817d",
			"startGame()": "d65ab5f2",
			"timeRemainingInSegment()": "a1a016a3",
			"transferOwnership(address)": "f2fde38b",
			"unpauseEntries()": "e9755b59",
			"unpauseSettlement()": "76d9ff2c",
			"winnersPerRound()": "77043591"
		}
	},
	"abi": [
		{
			"inputs": [
				{
					"internalType": "address",
					"name": "_prizeEscrow",
					"type": "address"
				},
				{
					"internalType": "address",
					"name": "_gameRegistry",
					"type": "address"
				},
				{
					"internalType": "address",
					"name": "_router",
					"type": "address"
				}
			],
			"stateMutability": "nonpayable",
			"type": "constructor"
		},
		{
			"inputs": [
				{
					"internalType": "address",
					"name": "winner",
					"type": "address"
				},
				{
					"internalType": "uint256",
					"name": "round",
					"type": "uint256"
				}
			],
			"name": "AlreadyClaimed",
			"type": "error"
		},
		{
			"inputs": [
				{
					"internalType": "uint256",
					"name": "round",
					"type": "uint256"
				}
			],
			"name": "ClaimWindowExpired",
			"type": "error"
		},
		{
			"inputs": [],
			"name": "EntriesPaused",
			"type": "error"
		},
		{
			"inputs": [],
			"name": "GameAlreadyStarted",
			"type": "error"
		},
		{
			"inputs": [],
			"name": "GameNotStarted",
			"type": "error"
		},
		{
			"inputs": [],
			"name": "InSettlementWindow",
			"type": "error"
		},
		{
			"inputs": [],
			"name": "InsufficientPotBalance",
			"type": "error"
		},
		{
			"inputs": [],
			"name": "InvalidWinnersCount",
			"type": "error"
		},
		{
			"inputs": [
				{
					"internalType": "address",
					"name": "caller",
					"type": "address"
				},
				{
					"internalType": "uint256",
					"name": "round",
					"type": "uint256"
				}
			],
			"name": "NotAWinner",
			"type": "error"
		},
		{
			"inputs": [],
			"name": "NotInSettlementWindow",
			"type": "error"
		},
		{
			"inputs": [],
			"name": "NotRouter",
			"type": "error"
		},
		{
			"inputs": [],
			"name": "NotSettler",
			"type": "error"
		},
		{
			"inputs": [
				{
					"internalType": "address",
					"name": "owner",
					"type": "address"
				}
			],
			"name": "OwnableInvalidOwner",
			"type": "error"
		},
		{
			"inputs": [
				{
					"internalType": "address",
					"name": "account",
					"type": "address"
				}
			],
			"name": "OwnableUnauthorizedAccount",
			"type": "error"
		},
		{
			"inputs": [],
			"name": "ReentrancyGuardReentrantCall",
			"type": "error"
		},
		{
			"inputs": [
				{
					"internalType": "uint256",
					"name": "round",
					"type": "uint256"
				}
			],
			"name": "RoundNotSettled",
			"type": "error"
		},
		{
			"inputs": [
				{
					"internalType": "uint256",
					"name": "elapsed",
					"type": "uint256"
				},
				{
					"internalType": "uint256",
					"name": "required",
					"type": "uint256"
				}
			],
			"name": "SegmentNotComplete",
			"type": "error"
		},
		{
			"inputs": [],
			"name": "SettlementPaused",
			"type": "error"
		},
		{
			"inputs": [],
			"name": "ZeroAddress",
			"type": "error"
		},
		{
			"inputs": [],
			"name": "ZeroAmount",
			"type": "error"
		},
		{
			"anonymous": false,
			"inputs": [
				{
					"indexed": false,
					"internalType": "uint256",
					"name": "timestamp",
					"type": "uint256"
				}
			],
			"name": "GameStarted",
			"type": "event"
		},
		{
			"anonymous": false,
			"inputs": [
				{
					"indexed": true,
					"internalType": "address",
					"name": "previousOwner",
					"type": "address"
				},
				{
					"indexed": true,
					"internalType": "address",
					"name": "newOwner",
					"type": "address"
				}
			],
			"name": "OwnershipTransferred",
			"type": "event"
		},
		{
			"anonymous": false,
			"inputs": [
				{
					"indexed": true,
					"internalType": "uint256",
					"name": "round",
					"type": "uint256"
				},
				{
					"indexed": false,
					"internalType": "uint256",
					"name": "position",
					"type": "uint256"
				},
				{
					"indexed": false,
					"internalType": "bytes6",
					"name": "winningString",
					"type": "bytes6"
				}
			],
			"name": "PositionFrozen",
			"type": "event"
		},
		{
			"anonymous": false,
			"inputs": [
				{
					"indexed": false,
					"internalType": "uint256",
					"name": "amount",
					"type": "uint256"
				},
				{
					"indexed": true,
					"internalType": "address",
					"name": "from",
					"type": "address"
				}
			],
			"name": "PotFunded",
			"type": "event"
		},
		{
			"anonymous": false,
			"inputs": [
				{
					"indexed": false,
					"internalType": "uint256",
					"name": "bps",
					"type": "uint256"
				}
			],
			"name": "ProtocolCutSet",
			"type": "event"
		},
		{
			"anonymous": false,
			"inputs": [
				{
					"indexed": false,
					"internalType": "uint256",
					"name": "amount",
					"type": "uint256"
				}
			],
			"name": "ProtocolCutTaken",
			"type": "event"
		},
		{
			"anonymous": false,
			"inputs": [
				{
					"indexed": true,
					"internalType": "uint256",
					"name": "round",
					"type": "uint256"
				},
				{
					"indexed": false,
					"internalType": "bytes6",
					"name": "winningString",
					"type": "bytes6"
				},
				{
					"indexed": false,
					"internalType": "uint256",
					"name": "potAmount",
					"type": "uint256"
				},
				{
					"indexed": false,
					"internalType": "uint256",
					"name": "numWinners",
					"type": "uint256"
				},
				{
					"indexed": false,
					"internalType": "uint256",
					"name": "remainderR",
					"type": "uint256"
				},
				{
					"indexed": false,
					"internalType": "uint256",
					"name": "totalEntries",
					"type": "uint256"
				},
				{
					"indexed": false,
					"internalType": "uint256",
					"name": "timestamp",
					"type": "uint256"
				}
			],
			"name": "RoundSettled",
			"type": "event"
		},
		{
			"anonymous": false,
			"inputs": [
				{
					"indexed": true,
					"internalType": "uint256",
					"name": "round",
					"type": "uint256"
				},
				{
					"indexed": false,
					"internalType": "uint256",
					"name": "timestamp",
					"type": "uint256"
				}
			],
			"name": "RoundStarted",
			"type": "event"
		},
		{
			"anonymous": false,
			"inputs": [
				{
					"indexed": false,
					"internalType": "uint256",
					"name": "newPosition",
					"type": "uint256"
				},
				{
					"indexed": true,
					"internalType": "uint256",
					"name": "round",
					"type": "uint256"
				},
				{
					"indexed": false,
					"internalType": "uint256",
					"name": "segment",
					"type": "uint256"
				}
			],
			"name": "ScrollNudged",
			"type": "event"
		},
		{
			"anonymous": false,
			"inputs": [
				{
					"indexed": true,
					"internalType": "uint256",
					"name": "round",
					"type": "uint256"
				},
				{
					"indexed": false,
					"internalType": "uint256",
					"name": "segment",
					"type": "uint256"
				},
				{
					"indexed": false,
					"internalType": "uint256",
					"name": "timestamp",
					"type": "uint256"
				}
			],
			"name": "SegmentAdvanced",
			"type": "event"
		},
		{
			"anonymous": false,
			"inputs": [
				{
					"indexed": true,
					"internalType": "address",
					"name": "newSettler",
					"type": "address"
				}
			],
			"name": "SettlerUpdated",
			"type": "event"
		},
		{
			"anonymous": false,
			"inputs": [
				{
					"indexed": false,
					"internalType": "uint256",
					"name": "count",
					"type": "uint256"
				}
			],
			"name": "WinnersPerRoundSet",
			"type": "event"
		},
		{
			"anonymous": false,
			"inputs": [
				{
					"indexed": true,
					"internalType": "address",
					"name": "winner",
					"type": "address"
				},
				{
					"indexed": true,
					"internalType": "uint256",
					"name": "round",
					"type": "uint256"
				},
				{
					"indexed": false,
					"internalType": "uint256",
					"name": "amount",
					"type": "uint256"
				}
			],
			"name": "WinningsClaimed",
			"type": "event"
		},
		{
			"inputs": [],
			"name": "CLAIM_WINDOW_ROUNDS",
			"outputs": [
				{
					"internalType": "uint256",
					"name": "",
					"type": "uint256"
				}
			],
			"stateMutability": "view",
			"type": "function"
		},
		{
			"inputs": [],
			"name": "INTERACTION_WINDOW",
			"outputs": [
				{
					"internalType": "uint256",
					"name": "",
					"type": "uint256"
				}
			],
			"stateMutability": "view",
			"type": "function"
		},
		{
			"inputs": [],
			"name": "ROUND_DURATION",
			"outputs": [
				{
					"internalType": "uint256",
					"name": "",
					"type": "uint256"
				}
			],
			"stateMutability": "view",
			"type": "function"
		},
		{
			"inputs": [],
			"name": "SEGMENTS_PER_ROUND",
			"outputs": [
				{
					"internalType": "uint256",
					"name": "",
					"type": "uint256"
				}
			],
			"stateMutability": "view",
			"type": "function"
		},
		{
			"inputs": [],
			"name": "SEGMENT_DURATION",
			"outputs": [
				{
					"internalType": "uint256",
					"name": "",
					"type": "uint256"
				}
			],
			"stateMutability": "view",
			"type": "function"
		},
		{
			"inputs": [],
			"name": "SETTLEMENT_WINDOW",
			"outputs": [
				{
					"internalType": "uint256",
					"name": "",
					"type": "uint256"
				}
			],
			"stateMutability": "view",
			"type": "function"
		},
		{
			"inputs": [],
			"name": "addToPot",
			"outputs": [],
			"stateMutability": "payable",
			"type": "function"
		},
		{
			"inputs": [
				{
					"internalType": "uint256",
					"name": "round",
					"type": "uint256"
				}
			],
			"name": "claimWinnings",
			"outputs": [],
			"stateMutability": "nonpayable",
			"type": "function"
		},
		{
			"inputs": [],
			"name": "currentAccumulatedRewards",
			"outputs": [
				{
					"internalType": "uint256",
					"name": "",
					"type": "uint256"
				}
			],
			"stateMutability": "view",
			"type": "function"
		},
		{
			"inputs": [],
			"name": "currentRound",
			"outputs": [
				{
					"internalType": "uint256",
					"name": "",
					"type": "uint256"
				}
			],
			"stateMutability": "view",
			"type": "function"
		},
		{
			"inputs": [],
			"name": "currentSegment",
			"outputs": [
				{
					"internalType": "uint256",
					"name": "",
					"type": "uint256"
				}
			],
			"stateMutability": "view",
			"type": "function"
		},
		{
			"inputs": [],
			"name": "eligibleRegistry",
			"outputs": [
				{
					"internalType": "address",
					"name": "",
					"type": "address"
				}
			],
			"stateMutability": "view",
			"type": "function"
		},
		{
			"inputs": [],
			"name": "entriesPaused",
			"outputs": [
				{
					"internalType": "bool",
					"name": "",
					"type": "bool"
				}
			],
			"stateMutability": "view",
			"type": "function"
		},
		{
			"inputs": [],
			"name": "fundPot",
			"outputs": [],
			"stateMutability": "payable",
			"type": "function"
		},
		{
			"inputs": [],
			"name": "gameRegistry",
			"outputs": [
				{
					"internalType": "address",
					"name": "",
					"type": "address"
				}
			],
			"stateMutability": "view",
			"type": "function"
		},
		{
			"inputs": [],
			"name": "gameStarted",
			"outputs": [
				{
					"internalType": "bool",
					"name": "",
					"type": "bool"
				}
			],
			"stateMutability": "view",
			"type": "function"
		},
		{
			"inputs": [],
			"name": "gameUnclaimed_winningsPool",
			"outputs": [
				{
					"internalType": "uint256",
					"name": "",
					"type": "uint256"
				}
			],
			"stateMutability": "view",
			"type": "function"
		},
		{
			"inputs": [],
			"name": "getCurrentWindow",
			"outputs": [
				{
					"internalType": "bytes6",
					"name": "window",
					"type": "bytes6"
				}
			],
			"stateMutability": "view",
			"type": "function"
		},
		{
			"inputs": [
				{
					"internalType": "uint256",
					"name": "round",
					"type": "uint256"
				}
			],
			"name": "getRoundResult",
			"outputs": [
				{
					"internalType": "bytes6",
					"name": "winningString",
					"type": "bytes6"
				},
				{
					"internalType": "uint256",
					"name": "potAmount",
					"type": "uint256"
				},
				{
					"internalType": "address[]",
					"name": "winners",
					"type": "address[]"
				},
				{
					"internalType": "uint256",
					"name": "perWinner",
					"type": "uint256"
				},
				{
					"internalType": "uint256",
					"name": "remainder",
					"type": "uint256"
				}
			],
			"stateMutability": "view",
			"type": "function"
		},
		{
			"inputs": [],
			"name": "getRoundState",
			"outputs": [
				{
					"internalType": "uint256",
					"name": "round",
					"type": "uint256"
				},
				{
					"internalType": "uint256",
					"name": "segment",
					"type": "uint256"
				},
				{
					"internalType": "uint256",
					"name": "segmentStart",
					"type": "uint256"
				},
				{
					"internalType": "uint256",
					"name": "counter",
					"type": "uint256"
				},
				{
					"internalType": "bytes6",
					"name": "currentWindow",
					"type": "bytes6"
				},
				{
					"internalType": "uint256",
					"name": "pot",
					"type": "uint256"
				},
				{
					"internalType": "uint256",
					"name": "unclaimedPool",
					"type": "uint256"
				},
				{
					"internalType": "bool",
					"name": "inSettlement",
					"type": "bool"
				}
			],
			"stateMutability": "view",
			"type": "function"
		},
		{
			"inputs": [
				{
					"internalType": "uint256",
					"name": "counter",
					"type": "uint256"
				}
			],
			"name": "getWindowAt",
			"outputs": [
				{
					"internalType": "bytes6",
					"name": "window",
					"type": "bytes6"
				}
			],
			"stateMutability": "pure",
			"type": "function"
		},
		{
			"inputs": [
				{
					"internalType": "uint256",
					"name": "",
					"type": "uint256"
				},
				{
					"internalType": "address",
					"name": "",
					"type": "address"
				}
			],
			"name": "hasClaimed",
			"outputs": [
				{
					"internalType": "bool",
					"name": "",
					"type": "bool"
				}
			],
			"stateMutability": "view",
			"type": "function"
		},
		{
			"inputs": [],
			"name": "isSettlementWindow",
			"outputs": [
				{
					"internalType": "bool",
					"name": "",
					"type": "bool"
				}
			],
			"stateMutability": "view",
			"type": "function"
		},
		{
			"inputs": [],
			"name": "nudgeScroll",
			"outputs": [],
			"stateMutability": "nonpayable",
			"type": "function"
		},
		{
			"inputs": [],
			"name": "owner",
			"outputs": [
				{
					"internalType": "address",
					"name": "",
					"type": "address"
				}
			],
			"stateMutability": "view",
			"type": "function"
		},
		{
			"inputs": [],
			"name": "pauseEntries",
			"outputs": [],
			"stateMutability": "nonpayable",
			"type": "function"
		},
		{
			"inputs": [],
			"name": "pauseSettlement",
			"outputs": [],
			"stateMutability": "nonpayable",
			"type": "function"
		},
		{
			"inputs": [],
			"name": "positionCounter",
			"outputs": [
				{
					"internalType": "uint256",
					"name": "",
					"type": "uint256"
				}
			],
			"stateMutability": "view",
			"type": "function"
		},
		{
			"inputs": [],
			"name": "prizeEscrow",
			"outputs": [
				{
					"internalType": "address",
					"name": "",
					"type": "address"
				}
			],
			"stateMutability": "view",
			"type": "function"
		},
		{
			"inputs": [],
			"name": "protocolCutBps",
			"outputs": [
				{
					"internalType": "uint256",
					"name": "",
					"type": "uint256"
				}
			],
			"stateMutability": "view",
			"type": "function"
		},
		{
			"inputs": [],
			"name": "renounceOwnership",
			"outputs": [],
			"stateMutability": "nonpayable",
			"type": "function"
		},
		{
			"inputs": [
				{
					"internalType": "uint256",
					"name": "",
					"type": "uint256"
				}
			],
			"name": "roundPerWinnerAmount",
			"outputs": [
				{
					"internalType": "uint256",
					"name": "",
					"type": "uint256"
				}
			],
			"stateMutability": "view",
			"type": "function"
		},
		{
			"inputs": [
				{
					"internalType": "uint256",
					"name": "",
					"type": "uint256"
				}
			],
			"name": "roundPotAmount",
			"outputs": [
				{
					"internalType": "uint256",
					"name": "",
					"type": "uint256"
				}
			],
			"stateMutability": "view",
			"type": "function"
		},
		{
			"inputs": [
				{
					"internalType": "uint256",
					"name": "",
					"type": "uint256"
				}
			],
			"name": "roundRemainder",
			"outputs": [
				{
					"internalType": "uint256",
					"name": "",
					"type": "uint256"
				}
			],
			"stateMutability": "view",
			"type": "function"
		},
		{
			"inputs": [
				{
					"internalType": "uint256",
					"name": "",
					"type": "uint256"
				},
				{
					"internalType": "uint256",
					"name": "",
					"type": "uint256"
				}
			],
			"name": "roundWinners",
			"outputs": [
				{
					"internalType": "address",
					"name": "",
					"type": "address"
				}
			],
			"stateMutability": "view",
			"type": "function"
		},
		{
			"inputs": [
				{
					"internalType": "uint256",
					"name": "",
					"type": "uint256"
				}
			],
			"name": "roundWinningString",
			"outputs": [
				{
					"internalType": "bytes6",
					"name": "",
					"type": "bytes6"
				}
			],
			"stateMutability": "view",
			"type": "function"
		},
		{
			"inputs": [],
			"name": "router",
			"outputs": [
				{
					"internalType": "address",
					"name": "",
					"type": "address"
				}
			],
			"stateMutability": "view",
			"type": "function"
		},
		{
			"inputs": [],
			"name": "segmentStartTime",
			"outputs": [
				{
					"internalType": "uint256",
					"name": "",
					"type": "uint256"
				}
			],
			"stateMutability": "view",
			"type": "function"
		},
		{
			"inputs": [
				{
					"internalType": "address",
					"name": "_registry",
					"type": "address"
				}
			],
			"name": "setEligibleRegistry",
			"outputs": [],
			"stateMutability": "nonpayable",
			"type": "function"
		},
		{
			"inputs": [
				{
					"internalType": "address",
					"name": "_registry",
					"type": "address"
				}
			],
			"name": "setGameRegistry",
			"outputs": [],
			"stateMutability": "nonpayable",
			"type": "function"
		},
		{
			"inputs": [
				{
					"internalType": "address",
					"name": "_escrow",
					"type": "address"
				}
			],
			"name": "setPrizeEscrow",
			"outputs": [],
			"stateMutability": "nonpayable",
			"type": "function"
		},
		{
			"inputs": [
				{
					"internalType": "uint256",
					"name": "_bps",
					"type": "uint256"
				}
			],
			"name": "setProtocolCutBps",
			"outputs": [],
			"stateMutability": "nonpayable",
			"type": "function"
		},
		{
			"inputs": [
				{
					"internalType": "address",
					"name": "_router",
					"type": "address"
				}
			],
			"name": "setRouter",
			"outputs": [],
			"stateMutability": "nonpayable",
			"type": "function"
		},
		{
			"inputs": [
				{
					"internalType": "address",
					"name": "_settler",
					"type": "address"
				}
			],
			"name": "setSettler",
			"outputs": [],
			"stateMutability": "nonpayable",
			"type": "function"
		},
		{
			"inputs": [
				{
					"internalType": "bool",
					"name": "_enabled",
					"type": "bool"
				}
			],
			"name": "setShuffleEnabled",
			"outputs": [],
			"stateMutability": "nonpayable",
			"type": "function"
		},
		{
			"inputs": [
				{
					"internalType": "uint256",
					"name": "_count",
					"type": "uint256"
				}
			],
			"name": "setWinnersPerRound",
			"outputs": [],
			"stateMutability": "nonpayable",
			"type": "function"
		},
		{
			"inputs": [],
			"name": "settleSegment",
			"outputs": [],
			"stateMutability": "nonpayable",
			"type": "function"
		},
		{
			"inputs": [],
			"name": "settlementPaused",
			"outputs": [
				{
					"internalType": "bool",
					"name": "",
					"type": "bool"
				}
			],
			"stateMutability": "view",
			"type": "function"
		},
		{
			"inputs": [],
			"name": "settler",
			"outputs": [
				{
					"internalType": "address",
					"name": "",
					"type": "address"
				}
			],
			"stateMutability": "view",
			"type": "function"
		},
		{
			"inputs": [],
			"name": "shuffleEnabled",
			"outputs": [
				{
					"internalType": "bool",
					"name": "",
					"type": "bool"
				}
			],
			"stateMutability": "view",
			"type": "function"
		},
		{
			"inputs": [],
			"name": "startGame",
			"outputs": [],
			"stateMutability": "nonpayable",
			"type": "function"
		},
		{
			"inputs": [],
			"name": "timeRemainingInSegment",
			"outputs": [
				{
					"internalType": "uint256",
					"name": "",
					"type": "uint256"
				}
			],
			"stateMutability": "view",
			"type": "function"
		},
		{
			"inputs": [
				{
					"internalType": "address",
					"name": "newOwner",
					"type": "address"
				}
			],
			"name": "transferOwnership",
			"outputs": [],
			"stateMutability": "nonpayable",
			"type": "function"
		},
		{
			"inputs": [],
			"name": "unpauseEntries",
			"outputs": [],
			"stateMutability": "nonpayable",
			"type": "function"
		},
		{
			"inputs": [],
			"name": "unpauseSettlement",
			"outputs": [],
			"stateMutability": "nonpayable",
			"type": "function"
		},
		{
			"inputs": [],
			"name": "winnersPerRound",
			"outputs": [
				{
					"internalType": "uint256",
					"name": "",
					"type": "uint256"
				}
			],
			"stateMutability": "view",
			"type": "function"
		}
	]
}