{
	"data": {
		"bytecode": {
			"linkReferences": {},
			"object": "60a06040523480156200001157600080fd5b50604051620015af380380620015af833981016040819052620000349162000190565b33806200005b57604051631e4fbdf760e01b81526000600482015260240160405180910390fd5b620000668162000123565b5060017f9b779b17422d0df92223018b32b4d1fa46e071723d6817e2486d003becc55f00556001600160a01b038416620000b35760405163d92e233d60e01b815260040160405180910390fd5b6001600160a01b038316620000db5760405163d92e233d60e01b815260040160405180910390fd5b6001600160a01b03938416608052600180549385166001600160a01b0319948516179055600280549285169284169290921790915560038054919093169116179055620001ed565b600080546001600160a01b038381166001600160a01b0319831681178455604051919092169283917f8be0079c531659141344cd1fd0a4f28419497f9722a3daafe3b4186f6b6457e09190a35050565b80516001600160a01b03811681146200018b57600080fd5b919050565b60008060008060808587031215620001a757600080fd5b620001b28562000173565b9350620001c26020860162000173565b9250620001d26040860162000173565b9150620001e26060860162000173565b905092959194509250565b608051611398620002176000396000818161025b01528181610585015261093001526113986000f3fe608060405234801561001057600080fd5b50600436106101375760003560e01c80638da5cb5b116100b8578063d52bb6f41161007c578063d52bb6f41461027d578063e1a45218146102a5578063e98f6797146102ae578063f0f44260146102c1578063f13afb90146102d4578063f2fde38b146102e757600080fd5b80638da5cb5b1461021757806392eaa9d914610228578063ad615dec1461023b578063be3782281461024e578063c45a01551461025657600080fd5b80635c975abb116100ff5780635c975abb146101bd57806361d027b3146101e1578063715018a6146101f45780638456cb59146101fc57806385f8c2591461020457600080fd5b8063054d50d41461013c57806327b23849146101625780633824659c146101775780633f4ba83a1461018a5780635364276d14610192575b600080fd5b61014f61014a366004611120565b6102fa565b6040519081526020015b60405180910390f35b610175610170366004611161565b61030f565b005b61014f610185366004611193565b610361565b61017561049f565b6003546101a5906001600160a01b031681565b6040516001600160a01b039091168152602001610159565b6003546101d190600160a01b900460ff1681565b6040519015158152602001610159565b6001546101a5906001600160a01b031681565b6101756104e1565b6101756104f5565b61014f610212366004611120565b61053d565b6000546001600160a01b03166101a5565b6002546101a5906001600160a01b031681565b61014f610249366004611120565b61054a565b61014f600581565b6101a57f000000000000000000000000000000000000000000000000000000000000000081565b61029061028b36600461120e565b610557565b60408051928352602083019190915201610159565b61014f61271081565b61014f6102bc366004611193565b610626565b6101756102cf366004611161565b610718565b6101756102e2366004611161565b6107a3565b6101756102f5366004611161565b6107f5565b6000610307848484610833565b949350505050565b6103176108ab565b600380546001600160a01b0319166001600160a01b0383169081179091556040517f89386b8711bad3ec737a1746dbcc52de03de68add300345f9acb944c28ae03f390600090a250565b600061036b6108d8565b600354600160a01b900460ff1615610396576040516307ab15ad60e51b815260040160405180910390fd5b82804211156103c057604051637c06dd7560e11b8152600481018290526024015b60405180910390fd5b886000036103e157604051631f2a200560e01b815260040160405180910390fd5b6001600160a01b0385166104085760405163d92e233d60e01b815260040160405180910390fd5b60008061041e6104188a8a610906565b8a6109df565b9150915061042d8b8383610833565b93508984101561045a5760405163d28d3eb560e01b815260048101859052602481018b90526044016103b7565b61046889898d878b8a610b01565b50505061049460017f9b779b17422d0df92223018b32b4d1fa46e071723d6817e2486d003becc55f0055565b979650505050505050565b6104a76108ab565b6003805460ff60a01b1916905560405133907f5db9ee0a495bf2e6ff9c91a7834c1ba4fdd244a5e8aa4e537bd38aeae4b073aa90600090a2565b6104e96108ab565b6104f36000610bac565b565b6104fd6108ab565b6003805460ff60a01b1916600160a01b17905560405133907f62e78cea01bee320cd4e420270b5ea74000d11b0c9f74754ebdbfc544b05a25890600090a2565b6000610307848484610bfc565b6000610307848484610c71565b60405163b4f69a2f60e01b81526001600160a01b0383811660048301528281166024830152600091829182917f00000000000000000000000000000000000000000000000000000000000000009091169063b4f69a2f90604401602060405180830381865afa1580156105ce573d6000803e3d6000fd5b505050506040513d601f19601f820116820180604052508101906105f29190611247565b90506001600160a01b03811661060f57600080925092505061061f565b61061981866109df565b92509250505b9250929050565b60006106306108d8565b600354600160a01b900460ff161561065b576040516307ab15ad60e51b815260040160405180910390fd5b828042111561068057604051637c06dd7560e11b8152600481018290526024016103b7565b886000036106a157604051631f2a200560e01b815260040160405180910390fd5b6001600160a01b0385166106c85760405163d92e233d60e01b815260040160405180910390fd5b6000806106d86104188a8a610906565b915091506106e78b8383610bfc565b93508984111561070a5760405163e1b0da4f60e01b815260040160405180910390fd5b6104688989868e8b8a610b01565b6107206108ab565b6001600160a01b0381166107475760405163d92e233d60e01b815260040160405180910390fd5b6001546040516001600160a01b038084169216907f4ab5be82436d353e61ca18726e984e561f5c1cc7c6d38b29d2553c790434705a90600090a3600180546001600160a01b0319166001600160a01b0392909216919091179055565b6107ab6108ab565b600280546001600160a01b0319166001600160a01b0383169081179091556040517f34b668b6f49e81b64bdb88c7de7501c0a197d9b12c46848ef3bcd5915284321090600090a250565b6107fd6108ab565b6001600160a01b03811661082757604051631e4fbdf760e01b8152600060048201526024016103b7565b61083081610bac565b50565b6000831580610840575082155b80610849575081155b1561086757604051631f2a200560e01b815260040160405180910390fd5b6000610875856103e561127a565b905080610884856103e861127a565b61088e9190611291565b610898848361127a565b6108a291906112a4565b95945050505050565b6000546001600160a01b031633146104f35760405163118cdaa760e01b81523360048201526024016103b7565b6108e0610cba565b60027f9b779b17422d0df92223018b32b4d1fa46e071723d6817e2486d003becc55f0055565b60405163b4f69a2f60e01b81526001600160a01b03838116600483015282811660248301526000917f00000000000000000000000000000000000000000000000000000000000000009091169063b4f69a2f90604401602060405180830381865afa158015610979573d6000803e3d6000fd5b505050506040513d601f19601f8201168201806040525081019061099d9190611247565b90506001600160a01b0381166109d95760405163136c5c7560e21b81526001600160a01b038085166004830152831660248201526044016103b7565b92915050565b600080600080856001600160a01b0316630902f1ac6040518163ffffffff1660e01b8152600401606060405180830381865afa158015610a23573d6000803e3d6000fd5b505050506040513d601f19601f82011682018060405250810190610a4791906112e2565b5091509150856001600160a01b0316630dfe16816040518163ffffffff1660e01b8152600401602060405180830381865afa158015610a8a573d6000803e3d6000fd5b505050506040513d601f19601f82011682018060405250810190610aae9190611247565b6001600160a01b0316856001600160a01b031614610adf57806001600160701b0316826001600160701b0316610af4565b816001600160701b0316816001600160701b03165b9097909650945050505050565b6000610b0d8787610906565b9050610b246001600160a01b038816338388610cfc565b610b2e8786610d38565b610b3a81888686610dd9565b610b448783610ee0565b604080513381526001600160a01b038981166020830152888116828401526060820188905260808201879052851660a082015290517f300b4a9ac356114be2eaffe0f530cd615f14560df4b634adc11142d1358e89769181900360c00190a150505050505050565b600080546001600160a01b038381166001600160a01b0319831681178455604051919092169283917f8be0079c531659141344cd1fd0a4f28419497f9722a3daafe3b4186f6b6457e09190a35050565b6000831580610c09575082155b80610c12575081155b15610c3057604051631f2a200560e01b815260040160405180910390fd5b610c3a8483611332565b610c46906103e561127a565b610c50858561127a565b610c5c906103e861127a565b610c6691906112a4565b610307906001611291565b6000831580610c7e575082155b80610c87575081155b15610ca557604051631f2a200560e01b815260040160405180910390fd5b82610cb0838661127a565b61030791906112a4565b7f9b779b17422d0df92223018b32b4d1fa46e071723d6817e2486d003becc55f00546002036104f357604051633ee5aeb560e01b815260040160405180910390fd5b610d0a8484848460016110ae565b610d3257604051635274afe760e01b81526001600160a01b03851660048201526024016103b7565b50505050565b6000612710610d4860058461127a565b610d5291906112a4565b9050600081118015610d6e57506001546001600160a01b031615155b15610dd457600154610d8f906001600160a01b038581169133911684610cfc565b6001546040518281526001600160a01b038581169216907f493fdd1f2099b9854729d46428ce244dbb655e5209e74967fd51b0f0e9fe4e1e9060200160405180910390a35b505050565b6000836001600160a01b0316856001600160a01b0316630dfe16816040518163ffffffff1660e01b8152600401602060405180830381865afa158015610e23573d6000803e3d6000fd5b505050506040513d601f19601f82011682018060405250810190610e479190611247565b6001600160a01b031614905060008082610e6357846000610e67565b6000855b6040516336cd320560e11b815260048101839052602481018290526001600160a01b03878116604483015292945090925090881690636d9a640a90606401600060405180830381600087803b158015610ebf57600080fd5b505af1158015610ed3573d6000803e3d6000fd5b5050505050505050505050565b80610ee9575050565b6003546001600160a01b0316610efd575050565b6002546001600160a01b0316610f11575050565b6002546040516366e305fd60e01b81526001600160a01b038481166004830152909116906366e305fd90602401602060405180830381865afa925050508015610f77575060408051601f3d908101601f19168201909252610f7491810190611345565b60015b610f7f575050565b80610f8957505050565b50600360009054906101000a90046001600160a01b03166001600160a01b031663c33b75866040518163ffffffff1660e01b8152600401602060405180830381865afa925050508015610ff9575060408051601f3d908101601f19168201909252610ff691810190611345565b60015b611001575050565b801561100c57505050565b50600360009054906101000a90046001600160a01b03166001600160a01b0316630b7a567b6040518163ffffffff1660e01b8152600401600060405180830381600087803b15801561105d57600080fd5b505af192505050801561106e575060015b156110aa576040516001600160a01b0383169033907fc991fdc6f1d37402cf43cd51be704037ef268e0e50a068c178918a86b191923890600090a35b5050565b6040516323b872dd60e01b60008181526001600160a01b038781166004528616602452604485905291602083606481808c5af19250600160005114831661110e578383151615611101573d6000823e3d81fd5b6000883b113d1516831692505b60405250600060605295945050505050565b60008060006060848603121561113557600080fd5b505081359360208301359350604090920135919050565b6001600160a01b038116811461083057600080fd5b60006020828403121561117357600080fd5b813561117e8161114c565b9392505050565b801515811461083057600080fd5b600080600080600080600060e0888a0312156111ae57600080fd5b873596506020880135955060408801356111c78161114c565b945060608801356111d78161114c565b935060808801356111e78161114c565b925060a0880135915060c08801356111fe81611185565b8091505092959891949750929550565b6000806040838503121561122157600080fd5b823561122c8161114c565b9150602083013561123c8161114c565b809150509250929050565b60006020828403121561125957600080fd5b815161117e8161114c565b634e487b7160e01b600052601160045260246000fd5b80820281158282048414176109d9576109d9611264565b808201808211156109d9576109d9611264565b6000826112c157634e487b7160e01b600052601260045260246000fd5b500490565b80516001600160701b03811681146112dd57600080fd5b919050565b6000806000606084860312156112f757600080fd5b611300846112c6565b925061130e602085016112c6565b9150604084015163ffffffff8116811461132757600080fd5b809150509250925092565b818103818111156109d9576109d9611264565b60006020828403121561135757600080fd5b815161117e8161118556fea2646970667358221220a922ed00dcee6b0cf9b2d2d8d13f1baa8f8f48fee0c4b4850ddd63ff422779c864736f6c63430008180033",
			"opcodes": "PUSH1 0xA0 PUSH1 0x40 MSTORE CALLVALUE DUP1 ISZERO PUSH3 0x11 JUMPI PUSH1 0x0 DUP1 REVERT JUMPDEST POP PUSH1 0x40 MLOAD PUSH3 0x15AF CODESIZE SUB DUP1 PUSH3 0x15AF DUP4 CODECOPY DUP2 ADD PUSH1 0x40 DUP2 SWAP1 MSTORE PUSH3 0x34 SWAP2 PUSH3 0x190 JUMP JUMPDEST CALLER DUP1 PUSH3 0x5B JUMPI PUSH1 0x40 MLOAD PUSH4 0x1E4FBDF7 PUSH1 0xE0 SHL DUP2 MSTORE PUSH1 0x0 PUSH1 0x4 DUP3 ADD MSTORE PUSH1 0x24 ADD PUSH1 0x40 MLOAD DUP1 SWAP2 SUB SWAP1 REVERT JUMPDEST PUSH3 0x66 DUP2 PUSH3 0x123 JUMP JUMPDEST POP PUSH1 0x1 PUSH32 0x9B779B17422D0DF92223018B32B4D1FA46E071723D6817E2486D003BECC55F00 SSTORE PUSH1 0x1 PUSH1 0x1 PUSH1 0xA0 SHL SUB DUP5 AND PUSH3 0xB3 JUMPI PUSH1 0x40 MLOAD PUSH4 0xD92E233D PUSH1 0xE0 SHL DUP2 MSTORE PUSH1 0x4 ADD PUSH1 0x40 MLOAD DUP1 SWAP2 SUB SWAP1 REVERT JUMPDEST PUSH1 0x1 PUSH1 0x1 PUSH1 0xA0 SHL SUB DUP4 AND PUSH3 0xDB JUMPI PUSH1 0x40 MLOAD PUSH4 0xD92E233D PUSH1 0xE0 SHL DUP2 MSTORE PUSH1 0x4 ADD PUSH1 0x40 MLOAD DUP1 SWAP2 SUB SWAP1 REVERT JUMPDEST PUSH1 0x1 PUSH1 0x1 PUSH1 0xA0 SHL SUB SWAP4 DUP5 AND PUSH1 0x80 MSTORE PUSH1 0x1 DUP1 SLOAD SWAP4 DUP6 AND PUSH1 0x1 PUSH1 0x1 PUSH1 0xA0 SHL SUB NOT SWAP5 DUP6 AND OR SWAP1 SSTORE PUSH1 0x2 DUP1 SLOAD SWAP3 DUP6 AND SWAP3 DUP5 AND SWAP3 SWAP1 SWAP3 OR SWAP1 SWAP2 SSTORE PUSH1 0x3 DUP1 SLOAD SWAP2 SWAP1 SWAP4 AND SWAP2 AND OR SWAP1 SSTORE PUSH3 0x1ED JUMP JUMPDEST PUSH1 0x0 DUP1 SLOAD PUSH1 0x1 PUSH1 0x1 PUSH1 0xA0 SHL SUB DUP4 DUP2 AND PUSH1 0x1 PUSH1 0x1 PUSH1 0xA0 SHL SUB NOT DUP4 AND DUP2 OR DUP5 SSTORE PUSH1 0x40 MLOAD SWAP2 SWAP1 SWAP3 AND SWAP3 DUP4 SWAP2 PUSH32 0x8BE0079C531659141344CD1FD0A4F28419497F9722A3DAAFE3B4186F6B6457E0 SWAP2 SWAP1 LOG3 POP POP JUMP JUMPDEST DUP1 MLOAD PUSH1 0x1 PUSH1 0x1 PUSH1 0xA0 SHL SUB DUP2 AND DUP2 EQ PUSH3 0x18B JUMPI PUSH1 0x0 DUP1 REVERT JUMPDEST SWAP2 SWAP1 POP JUMP JUMPDEST PUSH1 0x0 DUP1 PUSH1 0x0 DUP1 PUSH1 0x80 DUP6 DUP8 SUB SLT ISZERO PUSH3 0x1A7 JUMPI PUSH1 0x0 DUP1 REVERT JUMPDEST PUSH3 0x1B2 DUP6 PUSH3 0x173 JUMP JUMPDEST SWAP4 POP PUSH3 0x1C2 PUSH1 0x20 DUP7 ADD PUSH3 0x173 JUMP JUMPDEST SWAP3 POP PUSH3 0x1D2 PUSH1 0x40 DUP7 ADD PUSH3 0x173 JUMP JUMPDEST SWAP2 POP PUSH3 0x1E2 PUSH1 0x60 DUP7 ADD PUSH3 0x173 JUMP JUMPDEST SWAP1 POP SWAP3 SWAP6 SWAP2 SWAP5 POP SWAP3 POP JUMP JUMPDEST PUSH1 0x80 MLOAD PUSH2 0x1398 PUSH3 0x217 PUSH1 0x0 CODECOPY PUSH1 0x0 DUP2 DUP2 PUSH2 0x25B ADD MSTORE DUP2 DUP2 PUSH2 0x585 ADD MSTORE PUSH2 0x930 ADD MSTORE PUSH2 0x1398 PUSH1 0x0 RETURN INVALID PUSH1 0x80 PUSH1 0x40 MSTORE CALLVALUE DUP1 ISZERO PUSH2 0x10 JUMPI PUSH1 0x0 DUP1 REVERT JUMPDEST POP PUSH1 0x4 CALLDATASIZE LT PUSH2 0x137 JUMPI PUSH1 0x0 CALLDATALOAD PUSH1 0xE0 SHR DUP1 PUSH4 0x8DA5CB5B GT PUSH2 0xB8 JUMPI DUP1 PUSH4 0xD52BB6F4 GT PUSH2 0x7C JUMPI DUP1 PUSH4 0xD52BB6F4 EQ PUSH2 0x27D JUMPI DUP1 PUSH4 0xE1A45218 EQ PUSH2 0x2A5 JUMPI DUP1 PUSH4 0xE98F6797 EQ PUSH2 0x2AE JUMPI DUP1 PUSH4 0xF0F44260 EQ PUSH2 0x2C1 JUMPI DUP1 PUSH4 0xF13AFB90 EQ PUSH2 0x2D4 JUMPI DUP1 PUSH4 0xF2FDE38B EQ PUSH2 0x2E7 JUMPI PUSH1 0x0 DUP1 REVERT JUMPDEST DUP1 PUSH4 0x8DA5CB5B EQ PUSH2 0x217 JUMPI DUP1 PUSH4 0x92EAA9D9 EQ PUSH2 0x228 JUMPI DUP1 PUSH4 0xAD615DEC EQ PUSH2 0x23B JUMPI DUP1 PUSH4 0xBE378228 EQ PUSH2 0x24E JUMPI DUP1 PUSH4 0xC45A0155 EQ PUSH2 0x256 JUMPI PUSH1 0x0 DUP1 REVERT JUMPDEST DUP1 PUSH4 0x5C975ABB GT PUSH2 0xFF JUMPI DUP1 PUSH4 0x5C975ABB EQ PUSH2 0x1BD JUMPI DUP1 PUSH4 0x61D027B3 EQ PUSH2 0x1E1 JUMPI DUP1 PUSH4 0x715018A6 EQ PUSH2 0x1F4 JUMPI DUP1 PUSH4 0x8456CB59 EQ PUSH2 0x1FC JUMPI DUP1 PUSH4 0x85F8C259 EQ PUSH2 0x204 JUMPI PUSH1 0x0 DUP1 REVERT JUMPDEST DUP1 PUSH4 0x54D50D4 EQ PUSH2 0x13C JUMPI DUP1 PUSH4 0x27B23849 EQ PUSH2 0x162 JUMPI DUP1 PUSH4 0x3824659C EQ PUSH2 0x177 JUMPI DUP1 PUSH4 0x3F4BA83A EQ PUSH2 0x18A JUMPI DUP1 PUSH4 0x5364276D EQ PUSH2 0x192 JUMPI JUMPDEST PUSH1 0x0 DUP1 REVERT JUMPDEST PUSH2 0x14F PUSH2 0x14A CALLDATASIZE PUSH1 0x4 PUSH2 0x1120 JUMP JUMPDEST PUSH2 0x2FA JUMP JUMPDEST PUSH1 0x40 MLOAD SWAP1 DUP2 MSTORE PUSH1 0x20 ADD JUMPDEST PUSH1 0x40 MLOAD DUP1 SWAP2 SUB SWAP1 RETURN JUMPDEST PUSH2 0x175 PUSH2 0x170 CALLDATASIZE PUSH1 0x4 PUSH2 0x1161 JUMP JUMPDEST PUSH2 0x30F JUMP JUMPDEST STOP JUMPDEST PUSH2 0x14F PUSH2 0x185 CALLDATASIZE PUSH1 0x4 PUSH2 0x1193 JUMP JUMPDEST PUSH2 0x361 JUMP JUMPDEST PUSH2 0x175 PUSH2 0x49F JUMP JUMPDEST PUSH1 0x3 SLOAD PUSH2 0x1A5 SWAP1 PUSH1 0x1 PUSH1 0x1 PUSH1 0xA0 SHL SUB AND DUP2 JUMP JUMPDEST PUSH1 0x40 MLOAD PUSH1 0x1 PUSH1 0x1 PUSH1 0xA0 SHL SUB SWAP1 SWAP2 AND DUP2 MSTORE PUSH1 0x20 ADD PUSH2 0x159 JUMP JUMPDEST PUSH1 0x3 SLOAD PUSH2 0x1D1 SWAP1 PUSH1 0x1 PUSH1 0xA0 SHL SWAP1 DIV PUSH1 0xFF AND DUP2 JUMP JUMPDEST PUSH1 0x40 MLOAD SWAP1 ISZERO ISZERO DUP2 MSTORE PUSH1 0x20 ADD PUSH2 0x159 JUMP JUMPDEST PUSH1 0x1 SLOAD PUSH2 0x1A5 SWAP1 PUSH1 0x1 PUSH1 0x1 PUSH1 0xA0 SHL SUB AND DUP2 JUMP JUMPDEST PUSH2 0x175 PUSH2 0x4E1 JUMP JUMPDEST PUSH2 0x175 PUSH2 0x4F5 JUMP JUMPDEST PUSH2 0x14F PUSH2 0x212 CALLDATASIZE PUSH1 0x4 PUSH2 0x1120 JUMP JUMPDEST PUSH2 0x53D JUMP JUMPDEST PUSH1 0x0 SLOAD PUSH1 0x1 PUSH1 0x1 PUSH1 0xA0 SHL SUB AND PUSH2 0x1A5 JUMP JUMPDEST PUSH1 0x2 SLOAD PUSH2 0x1A5 SWAP1 PUSH1 0x1 PUSH1 0x1 PUSH1 0xA0 SHL SUB AND DUP2 JUMP JUMPDEST PUSH2 0x14F PUSH2 0x249 CALLDATASIZE PUSH1 0x4 PUSH2 0x1120 JUMP JUMPDEST PUSH2 0x54A JUMP JUMPDEST PUSH2 0x14F PUSH1 0x5 DUP2 JUMP JUMPDEST PUSH2 0x1A5 PUSH32 0x0 DUP2 JUMP JUMPDEST PUSH2 0x290 PUSH2 0x28B CALLDATASIZE PUSH1 0x4 PUSH2 0x120E JUMP JUMPDEST PUSH2 0x557 JUMP JUMPDEST PUSH1 0x40 DUP1 MLOAD SWAP3 DUP4 MSTORE PUSH1 0x20 DUP4 ADD SWAP2 SWAP1 SWAP2 MSTORE ADD PUSH2 0x159 JUMP JUMPDEST PUSH2 0x14F PUSH2 0x2710 DUP2 JUMP JUMPDEST PUSH2 0x14F PUSH2 0x2BC CALLDATASIZE PUSH1 0x4 PUSH2 0x1193 JUMP JUMPDEST PUSH2 0x626 JUMP JUMPDEST PUSH2 0x175 PUSH2 0x2CF CALLDATASIZE PUSH1 0x4 PUSH2 0x1161 JUMP JUMPDEST PUSH2 0x718 JUMP JUMPDEST PUSH2 0x175 PUSH2 0x2E2 CALLDATASIZE PUSH1 0x4 PUSH2 0x1161 JUMP JUMPDEST PUSH2 0x7A3 JUMP JUMPDEST PUSH2 0x175 PUSH2 0x2F5 CALLDATASIZE PUSH1 0x4 PUSH2 0x1161 JUMP JUMPDEST PUSH2 0x7F5 JUMP JUMPDEST PUSH1 0x0 PUSH2 0x307 DUP5 DUP5 DUP5 PUSH2 0x833 JUMP JUMPDEST SWAP5 SWAP4 POP POP POP POP JUMP JUMPDEST PUSH2 0x317 PUSH2 0x8AB JUMP JUMPDEST PUSH1 0x3 DUP1 SLOAD PUSH1 0x1 PUSH1 0x1 PUSH1 0xA0 SHL SUB NOT AND PUSH1 0x1 PUSH1 0x1 PUSH1 0xA0 SHL SUB DUP4 AND SWAP1 DUP2 OR SWAP1 SWAP2 SSTORE PUSH1 0x40 MLOAD PUSH32 0x89386B8711BAD3EC737A1746DBCC52DE03DE68ADD300345F9ACB944C28AE03F3 SWAP1 PUSH1 0x0 SWAP1 LOG2 POP JUMP JUMPDEST PUSH1 0x0 PUSH2 0x36B PUSH2 0x8D8 JUMP JUMPDEST PUSH1 0x3 SLOAD PUSH1 0x1 PUSH1 0xA0 SHL SWAP1 DIV PUSH1 0xFF AND ISZERO PUSH2 0x396 JUMPI PUSH1 0x40 MLOAD PUSH4 0x7AB15AD PUSH1 0xE5 SHL DUP2 MSTORE PUSH1 0x4 ADD PUSH1 0x40 MLOAD DUP1 SWAP2 SUB SWAP1 REVERT JUMPDEST DUP3 DUP1 TIMESTAMP GT ISZERO PUSH2 0x3C0 JUMPI PUSH1 0x40 MLOAD PUSH4 0x7C06DD75 PUSH1 0xE1 SHL DUP2 MSTORE PUSH1 0x4 DUP2 ADD DUP3 SWAP1 MSTORE PUSH1 0x24 ADD JUMPDEST PUSH1 0x40 MLOAD DUP1 SWAP2 SUB SWAP1 REVERT JUMPDEST DUP9 PUSH1 0x0 SUB PUSH2 0x3E1 JUMPI PUSH1 0x40 MLOAD PUSH4 0x1F2A2005 PUSH1 0xE0 SHL DUP2 MSTORE PUSH1 0x4 ADD PUSH1 0x40 MLOAD DUP1 SWAP2 SUB SWAP1 REVERT JUMPDEST PUSH1 0x1 PUSH1 0x1 PUSH1 0xA0 SHL SUB DUP6 AND PUSH2 0x408 JUMPI PUSH1 0x40 MLOAD PUSH4 0xD92E233D PUSH1 0xE0 SHL DUP2 MSTORE PUSH1 0x4 ADD PUSH1 0x40 MLOAD DUP1 SWAP2 SUB SWAP1 REVERT JUMPDEST PUSH1 0x0 DUP1 PUSH2 0x41E PUSH2 0x418 DUP11 DUP11 PUSH2 0x906 JUMP JUMPDEST DUP11 PUSH2 0x9DF JUMP JUMPDEST SWAP2 POP SWAP2 POP PUSH2 0x42D DUP12 DUP4 DUP4 PUSH2 0x833 JUMP JUMPDEST SWAP4 POP DUP10 DUP5 LT ISZERO PUSH2 0x45A JUMPI PUSH1 0x40 MLOAD PUSH4 0xD28D3EB5 PUSH1 0xE0 SHL DUP2 MSTORE PUSH1 0x4 DUP2 ADD DUP6 SWAP1 MSTORE PUSH1 0x24 DUP2 ADD DUP12 SWAP1 MSTORE PUSH1 0x44 ADD PUSH2 0x3B7 JUMP JUMPDEST PUSH2 0x468 DUP10 DUP10 DUP14 DUP8 DUP12 DUP11 PUSH2 0xB01 JUMP JUMPDEST POP POP POP PUSH2 0x494 PUSH1 0x1 PUSH32 0x9B779B17422D0DF92223018B32B4D1FA46E071723D6817E2486D003BECC55F00 SSTORE JUMP JUMPDEST SWAP8 SWAP7 POP POP POP POP POP POP POP JUMP JUMPDEST PUSH2 0x4A7 PUSH2 0x8AB JUMP JUMPDEST PUSH1 0x3 DUP1 SLOAD PUSH1 0xFF PUSH1 0xA0 SHL NOT AND SWAP1 SSTORE PUSH1 0x40 MLOAD CALLER SWAP1 PUSH32 0x5DB9EE0A495BF2E6FF9C91A7834C1BA4FDD244A5E8AA4E537BD38AEAE4B073AA SWAP1 PUSH1 0x0 SWAP1 LOG2 JUMP JUMPDEST PUSH2 0x4E9 PUSH2 0x8AB JUMP JUMPDEST PUSH2 0x4F3 PUSH1 0x0 PUSH2 0xBAC JUMP JUMPDEST JUMP JUMPDEST PUSH2 0x4FD PUSH2 0x8AB JUMP JUMPDEST PUSH1 0x3 DUP1 SLOAD PUSH1 0xFF PUSH1 0xA0 SHL NOT AND PUSH1 0x1 PUSH1 0xA0 SHL OR SWAP1 SSTORE PUSH1 0x40 MLOAD CALLER SWAP1 PUSH32 0x62E78CEA01BEE320CD4E420270B5EA74000D11B0C9F74754EBDBFC544B05A258 SWAP1 PUSH1 0x0 SWAP1 LOG2 JUMP JUMPDEST PUSH1 0x0 PUSH2 0x307 DUP5 DUP5 DUP5 PUSH2 0xBFC JUMP JUMPDEST PUSH1 0x0 PUSH2 0x307 DUP5 DUP5 DUP5 PUSH2 0xC71 JUMP JUMPDEST PUSH1 0x40 MLOAD PUSH4 0xB4F69A2F PUSH1 0xE0 SHL DUP2 MSTORE PUSH1 0x1 PUSH1 0x1 PUSH1 0xA0 SHL SUB DUP4 DUP2 AND PUSH1 0x4 DUP4 ADD MSTORE DUP3 DUP2 AND PUSH1 0x24 DUP4 ADD MSTORE PUSH1 0x0 SWAP2 DUP3 SWAP2 DUP3 SWAP2 PUSH32 0x0 SWAP1 SWAP2 AND SWAP1 PUSH4 0xB4F69A2F SWAP1 PUSH1 0x44 ADD PUSH1 0x20 PUSH1 0x40 MLOAD DUP1 DUP4 SUB DUP2 DUP7 GAS STATICCALL ISZERO DUP1 ISZERO PUSH2 0x5CE JUMPI RETURNDATASIZE PUSH1 0x0 DUP1 RETURNDATACOPY RETURNDATASIZE PUSH1 0x0 REVERT JUMPDEST POP POP POP POP PUSH1 0x40 MLOAD RETURNDATASIZE PUSH1 0x1F NOT PUSH1 0x1F DUP3 ADD AND DUP3 ADD DUP1 PUSH1 0x40 MSTORE POP DUP2 ADD SWAP1 PUSH2 0x5F2 SWAP2 SWAP1 PUSH2 0x1247 JUMP JUMPDEST SWAP1 POP PUSH1 0x1 PUSH1 0x1 PUSH1 0xA0 SHL SUB DUP2 AND PUSH2 0x60F JUMPI PUSH1 0x0 DUP1 SWAP3 POP SWAP3 POP POP PUSH2 0x61F JUMP JUMPDEST PUSH2 0x619 DUP2 DUP7 PUSH2 0x9DF JUMP JUMPDEST SWAP3 POP SWAP3 POP POP JUMPDEST SWAP3 POP SWAP3 SWAP1 POP JUMP JUMPDEST PUSH1 0x0 PUSH2 0x630 PUSH2 0x8D8 JUMP JUMPDEST PUSH1 0x3 SLOAD PUSH1 0x1 PUSH1 0xA0 SHL SWAP1 DIV PUSH1 0xFF AND ISZERO PUSH2 0x65B JUMPI PUSH1 0x40 MLOAD PUSH4 0x7AB15AD PUSH1 0xE5 SHL DUP2 MSTORE PUSH1 0x4 ADD PUSH1 0x40 MLOAD DUP1 SWAP2 SUB SWAP1 REVERT JUMPDEST DUP3 DUP1 TIMESTAMP GT ISZERO PUSH2 0x680 JUMPI PUSH1 0x40 MLOAD PUSH4 0x7C06DD75 PUSH1 0xE1 SHL DUP2 MSTORE PUSH1 0x4 DUP2 ADD DUP3 SWAP1 MSTORE PUSH1 0x24 ADD PUSH2 0x3B7 JUMP JUMPDEST DUP9 PUSH1 0x0 SUB PUSH2 0x6A1 JUMPI PUSH1 0x40 MLOAD PUSH4 0x1F2A2005 PUSH1 0xE0 SHL DUP2 MSTORE PUSH1 0x4 ADD PUSH1 0x40 MLOAD DUP1 SWAP2 SUB SWAP1 REVERT JUMPDEST PUSH1 0x1 PUSH1 0x1 PUSH1 0xA0 SHL SUB DUP6 AND PUSH2 0x6C8 JUMPI PUSH1 0x40 MLOAD PUSH4 0xD92E233D PUSH1 0xE0 SHL DUP2 MSTORE PUSH1 0x4 ADD PUSH1 0x40 MLOAD DUP1 SWAP2 SUB SWAP1 REVERT JUMPDEST PUSH1 0x0 DUP1 PUSH2 0x6D8 PUSH2 0x418 DUP11 DUP11 PUSH2 0x906 JUMP JUMPDEST SWAP2 POP SWAP2 POP PUSH2 0x6E7 DUP12 DUP4 DUP4 PUSH2 0xBFC JUMP JUMPDEST SWAP4 POP DUP10 DUP5 GT ISZERO PUSH2 0x70A JUMPI PUSH1 0x40 MLOAD PUSH4 0xE1B0DA4F PUSH1 0xE0 SHL DUP2 MSTORE PUSH1 0x4 ADD PUSH1 0x40 MLOAD DUP1 SWAP2 SUB SWAP1 REVERT JUMPDEST PUSH2 0x468 DUP10 DUP10 DUP7 DUP15 DUP12 DUP11 PUSH2 0xB01 JUMP JUMPDEST PUSH2 0x720 PUSH2 0x8AB JUMP JUMPDEST PUSH1 0x1 PUSH1 0x1 PUSH1 0xA0 SHL SUB DUP2 AND PUSH2 0x747 JUMPI PUSH1 0x40 MLOAD PUSH4 0xD92E233D PUSH1 0xE0 SHL DUP2 MSTORE PUSH1 0x4 ADD PUSH1 0x40 MLOAD DUP1 SWAP2 SUB SWAP1 REVERT JUMPDEST PUSH1 0x1 SLOAD PUSH1 0x40 MLOAD PUSH1 0x1 PUSH1 0x1 PUSH1 0xA0 SHL SUB DUP1 DUP5 AND SWAP3 AND SWAP1 PUSH32 0x4AB5BE82436D353E61CA18726E984E561F5C1CC7C6D38B29D2553C790434705A SWAP1 PUSH1 0x0 SWAP1 LOG3 PUSH1 0x1 DUP1 SLOAD PUSH1 0x1 PUSH1 0x1 PUSH1 0xA0 SHL SUB NOT AND PUSH1 0x1 PUSH1 0x1 PUSH1 0xA0 SHL SUB SWAP3 SWAP1 SWAP3 AND SWAP2 SWAP1 SWAP2 OR SWAP1 SSTORE JUMP JUMPDEST PUSH2 0x7AB PUSH2 0x8AB JUMP JUMPDEST PUSH1 0x2 DUP1 SLOAD PUSH1 0x1 PUSH1 0x1 PUSH1 0xA0 SHL SUB NOT AND PUSH1 0x1 PUSH1 0x1 PUSH1 0xA0 SHL SUB DUP4 AND SWAP1 DUP2 OR SWAP1 SWAP2 SSTORE PUSH1 0x40 MLOAD PUSH32 0x34B668B6F49E81B64BDB88C7DE7501C0A197D9B12C46848EF3BCD59152843210 SWAP1 PUSH1 0x0 SWAP1 LOG2 POP JUMP JUMPDEST PUSH2 0x7FD PUSH2 0x8AB JUMP JUMPDEST PUSH1 0x1 PUSH1 0x1 PUSH1 0xA0 SHL SUB DUP2 AND PUSH2 0x827 JUMPI PUSH1 0x40 MLOAD PUSH4 0x1E4FBDF7 PUSH1 0xE0 SHL DUP2 MSTORE PUSH1 0x0 PUSH1 0x4 DUP3 ADD MSTORE PUSH1 0x24 ADD PUSH2 0x3B7 JUMP JUMPDEST PUSH2 0x830 DUP2 PUSH2 0xBAC JUMP JUMPDEST POP JUMP JUMPDEST PUSH1 0x0 DUP4 ISZERO DUP1 PUSH2 0x840 JUMPI POP DUP3 ISZERO JUMPDEST DUP1 PUSH2 0x849 JUMPI POP DUP2 ISZERO JUMPDEST ISZERO PUSH2 0x867 JUMPI PUSH1 0x40 MLOAD PUSH4 0x1F2A2005 PUSH1 0xE0 SHL DUP2 MSTORE PUSH1 0x4 ADD PUSH1 0x40 MLOAD DUP1 SWAP2 SUB SWAP1 REVERT JUMPDEST PUSH1 0x0 PUSH2 0x875 DUP6 PUSH2 0x3E5 PUSH2 0x127A JUMP JUMPDEST SWAP1 POP DUP1 PUSH2 0x884 DUP6 PUSH2 0x3E8 PUSH2 0x127A JUMP JUMPDEST PUSH2 0x88E SWAP2 SWAP1 PUSH2 0x1291 JUMP JUMPDEST PUSH2 0x898 DUP5 DUP4 PUSH2 0x127A JUMP JUMPDEST PUSH2 0x8A2 SWAP2 SWAP1 PUSH2 0x12A4 JUMP JUMPDEST SWAP6 SWAP5 POP POP POP POP POP JUMP JUMPDEST PUSH1 0x0 SLOAD PUSH1 0x1 PUSH1 0x1 PUSH1 0xA0 SHL SUB AND CALLER EQ PUSH2 0x4F3 JUMPI PUSH1 0x40 MLOAD PUSH4 0x118CDAA7 PUSH1 0xE0 SHL DUP2 MSTORE CALLER PUSH1 0x4 DUP3 ADD MSTORE PUSH1 0x24 ADD PUSH2 0x3B7 JUMP JUMPDEST PUSH2 0x8E0 PUSH2 0xCBA JUMP JUMPDEST PUSH1 0x2 PUSH32 0x9B779B17422D0DF92223018B32B4D1FA46E071723D6817E2486D003BECC55F00 SSTORE JUMP JUMPDEST PUSH1 0x40 MLOAD PUSH4 0xB4F69A2F PUSH1 0xE0 SHL DUP2 MSTORE PUSH1 0x1 PUSH1 0x1 PUSH1 0xA0 SHL SUB DUP4 DUP2 AND PUSH1 0x4 DUP4 ADD MSTORE DUP3 DUP2 AND PUSH1 0x24 DUP4 ADD MSTORE PUSH1 0x0 SWAP2 PUSH32 0x0 SWAP1 SWAP2 AND SWAP1 PUSH4 0xB4F69A2F SWAP1 PUSH1 0x44 ADD PUSH1 0x20 PUSH1 0x40 MLOAD DUP1 DUP4 SUB DUP2 DUP7 GAS STATICCALL ISZERO DUP1 ISZERO PUSH2 0x979 JUMPI RETURNDATASIZE PUSH1 0x0 DUP1 RETURNDATACOPY RETURNDATASIZE PUSH1 0x0 REVERT JUMPDEST POP POP POP POP PUSH1 0x40 MLOAD RETURNDATASIZE PUSH1 0x1F NOT PUSH1 0x1F DUP3 ADD AND DUP3 ADD DUP1 PUSH1 0x40 MSTORE POP DUP2 ADD SWAP1 PUSH2 0x99D SWAP2 SWAP1 PUSH2 0x1247 JUMP JUMPDEST SWAP1 POP PUSH1 0x1 PUSH1 0x1 PUSH1 0xA0 SHL SUB DUP2 AND PUSH2 0x9D9 JUMPI PUSH1 0x40 MLOAD PUSH4 0x136C5C75 PUSH1 0xE2 SHL DUP2 MSTORE PUSH1 0x1 PUSH1 0x1 PUSH1 0xA0 SHL SUB DUP1 DUP6 AND PUSH1 0x4 DUP4 ADD MSTORE DUP4 AND PUSH1 0x24 DUP3 ADD MSTORE PUSH1 0x44 ADD PUSH2 0x3B7 JUMP JUMPDEST SWAP3 SWAP2 POP POP JUMP JUMPDEST PUSH1 0x0 DUP1 PUSH1 0x0 DUP1 DUP6 PUSH1 0x1 PUSH1 0x1 PUSH1 0xA0 SHL SUB AND PUSH4 0x902F1AC PUSH1 0x40 MLOAD DUP2 PUSH4 0xFFFFFFFF AND PUSH1 0xE0 SHL DUP2 MSTORE PUSH1 0x4 ADD PUSH1 0x60 PUSH1 0x40 MLOAD DUP1 DUP4 SUB DUP2 DUP7 GAS STATICCALL ISZERO DUP1 ISZERO PUSH2 0xA23 JUMPI RETURNDATASIZE PUSH1 0x0 DUP1 RETURNDATACOPY RETURNDATASIZE PUSH1 0x0 REVERT JUMPDEST POP POP POP POP PUSH1 0x40 MLOAD RETURNDATASIZE PUSH1 0x1F NOT PUSH1 0x1F DUP3 ADD AND DUP3 ADD DUP1 PUSH1 0x40 MSTORE POP DUP2 ADD SWAP1 PUSH2 0xA47 SWAP2 SWAP1 PUSH2 0x12E2 JUMP JUMPDEST POP SWAP2 POP SWAP2 POP DUP6 PUSH1 0x1 PUSH1 0x1 PUSH1 0xA0 SHL SUB AND PUSH4 0xDFE1681 PUSH1 0x40 MLOAD DUP2 PUSH4 0xFFFFFFFF AND PUSH1 0xE0 SHL DUP2 MSTORE PUSH1 0x4 ADD PUSH1 0x20 PUSH1 0x40 MLOAD DUP1 DUP4 SUB DUP2 DUP7 GAS STATICCALL ISZERO DUP1 ISZERO PUSH2 0xA8A JUMPI RETURNDATASIZE PUSH1 0x0 DUP1 RETURNDATACOPY RETURNDATASIZE PUSH1 0x0 REVERT JUMPDEST POP POP POP POP PUSH1 0x40 MLOAD RETURNDATASIZE PUSH1 0x1F NOT PUSH1 0x1F DUP3 ADD AND DUP3 ADD DUP1 PUSH1 0x40 MSTORE POP DUP2 ADD SWAP1 PUSH2 0xAAE SWAP2 SWAP1 PUSH2 0x1247 JUMP JUMPDEST PUSH1 0x1 PUSH1 0x1 PUSH1 0xA0 SHL SUB AND DUP6 PUSH1 0x1 PUSH1 0x1 PUSH1 0xA0 SHL SUB AND EQ PUSH2 0xADF JUMPI DUP1 PUSH1 0x1 PUSH1 0x1 PUSH1 0x70 SHL SUB AND DUP3 PUSH1 0x1 PUSH1 0x1 PUSH1 0x70 SHL SUB AND PUSH2 0xAF4 JUMP JUMPDEST DUP2 PUSH1 0x1 PUSH1 0x1 PUSH1 0x70 SHL SUB AND DUP2 PUSH1 0x1 PUSH1 0x1 PUSH1 0x70 SHL SUB AND JUMPDEST SWAP1 SWAP8 SWAP1 SWAP7 POP SWAP5 POP POP POP POP POP JUMP JUMPDEST PUSH1 0x0 PUSH2 0xB0D DUP8 DUP8 PUSH2 0x906 JUMP JUMPDEST SWAP1 POP PUSH2 0xB24 PUSH1 0x1 PUSH1 0x1 PUSH1 0xA0 SHL SUB DUP9 AND CALLER DUP4 DUP9 PUSH2 0xCFC JUMP JUMPDEST PUSH2 0xB2E DUP8 DUP7 PUSH2 0xD38 JUMP JUMPDEST PUSH2 0xB3A DUP2 DUP9 DUP7 DUP7 PUSH2 0xDD9 JUMP JUMPDEST PUSH2 0xB44 DUP8 DUP4 PUSH2 0xEE0 JUMP JUMPDEST PUSH1 0x40 DUP1 MLOAD CALLER DUP2 MSTORE PUSH1 0x1 PUSH1 0x1 PUSH1 0xA0 SHL SUB DUP10 DUP2 AND PUSH1 0x20 DUP4 ADD MSTORE DUP9 DUP2 AND DUP3 DUP5 ADD MSTORE PUSH1 0x60 DUP3 ADD DUP9 SWAP1 MSTORE PUSH1 0x80 DUP3 ADD DUP8 SWAP1 MSTORE DUP6 AND PUSH1 0xA0 DUP3 ADD MSTORE SWAP1 MLOAD PUSH32 0x300B4A9AC356114BE2EAFFE0F530CD615F14560DF4B634ADC11142D1358E8976 SWAP2 DUP2 SWAP1 SUB PUSH1 0xC0 ADD SWAP1 LOG1 POP POP POP POP POP POP POP JUMP JUMPDEST PUSH1 0x0 DUP1 SLOAD PUSH1 0x1 PUSH1 0x1 PUSH1 0xA0 SHL SUB DUP4 DUP2 AND PUSH1 0x1 PUSH1 0x1 PUSH1 0xA0 SHL SUB NOT DUP4 AND DUP2 OR DUP5 SSTORE PUSH1 0x40 MLOAD SWAP2 SWAP1 SWAP3 AND SWAP3 DUP4 SWAP2 PUSH32 0x8BE0079C531659141344CD1FD0A4F28419497F9722A3DAAFE3B4186F6B6457E0 SWAP2 SWAP1 LOG3 POP POP JUMP JUMPDEST PUSH1 0x0 DUP4 ISZERO DUP1 PUSH2 0xC09 JUMPI POP DUP3 ISZERO JUMPDEST DUP1 PUSH2 0xC12 JUMPI POP DUP2 ISZERO JUMPDEST ISZERO PUSH2 0xC30 JUMPI PUSH1 0x40 MLOAD PUSH4 0x1F2A2005 PUSH1 0xE0 SHL DUP2 MSTORE PUSH1 0x4 ADD PUSH1 0x40 MLOAD DUP1 SWAP2 SUB SWAP1 REVERT JUMPDEST PUSH2 0xC3A DUP5 DUP4 PUSH2 0x1332 JUMP JUMPDEST PUSH2 0xC46 SWAP1 PUSH2 0x3E5 PUSH2 0x127A JUMP JUMPDEST PUSH2 0xC50 DUP6 DUP6 PUSH2 0x127A JUMP JUMPDEST PUSH2 0xC5C SWAP1 PUSH2 0x3E8 PUSH2 0x127A JUMP JUMPDEST PUSH2 0xC66 SWAP2 SWAP1 PUSH2 0x12A4 JUMP JUMPDEST PUSH2 0x307 SWAP1 PUSH1 0x1 PUSH2 0x1291 JUMP JUMPDEST PUSH1 0x0 DUP4 ISZERO DUP1 PUSH2 0xC7E JUMPI POP DUP3 ISZERO JUMPDEST DUP1 PUSH2 0xC87 JUMPI POP DUP2 ISZERO JUMPDEST ISZERO PUSH2 0xCA5 JUMPI PUSH1 0x40 MLOAD PUSH4 0x1F2A2005 PUSH1 0xE0 SHL DUP2 MSTORE PUSH1 0x4 ADD PUSH1 0x40 MLOAD DUP1 SWAP2 SUB SWAP1 REVERT JUMPDEST DUP3 PUSH2 0xCB0 DUP4 DUP7 PUSH2 0x127A JUMP JUMPDEST PUSH2 0x307 SWAP2 SWAP1 PUSH2 0x12A4 JUMP JUMPDEST PUSH32 0x9B779B17422D0DF92223018B32B4D1FA46E071723D6817E2486D003BECC55F00 SLOAD PUSH1 0x2 SUB PUSH2 0x4F3 JUMPI PUSH1 0x40 MLOAD PUSH4 0x3EE5AEB5 PUSH1 0xE0 SHL DUP2 MSTORE PUSH1 0x4 ADD PUSH1 0x40 MLOAD DUP1 SWAP2 SUB SWAP1 REVERT JUMPDEST PUSH2 0xD0A DUP5 DUP5 DUP5 DUP5 PUSH1 0x1 PUSH2 0x10AE JUMP JUMPDEST PUSH2 0xD32 JUMPI PUSH1 0x40 MLOAD PUSH4 0x5274AFE7 PUSH1 0xE0 SHL DUP2 MSTORE PUSH1 0x1 PUSH1 0x1 PUSH1 0xA0 SHL SUB DUP6 AND PUSH1 0x4 DUP3 ADD MSTORE PUSH1 0x24 ADD PUSH2 0x3B7 JUMP JUMPDEST POP POP POP POP JUMP JUMPDEST PUSH1 0x0 PUSH2 0x2710 PUSH2 0xD48 PUSH1 0x5 DUP5 PUSH2 0x127A JUMP JUMPDEST PUSH2 0xD52 SWAP2 SWAP1 PUSH2 0x12A4 JUMP JUMPDEST SWAP1 POP PUSH1 0x0 DUP2 GT DUP1 ISZERO PUSH2 0xD6E JUMPI POP PUSH1 0x1 SLOAD PUSH1 0x1 PUSH1 0x1 PUSH1 0xA0 SHL SUB AND ISZERO ISZERO JUMPDEST ISZERO PUSH2 0xDD4 JUMPI PUSH1 0x1 SLOAD PUSH2 0xD8F SWAP1 PUSH1 0x1 PUSH1 0x1 PUSH1 0xA0 SHL SUB DUP6 DUP2 AND SWAP2 CALLER SWAP2 AND DUP5 PUSH2 0xCFC JUMP JUMPDEST PUSH1 0x1 SLOAD PUSH1 0x40 MLOAD DUP3 DUP2 MSTORE PUSH1 0x1 PUSH1 0x1 PUSH1 0xA0 SHL SUB DUP6 DUP2 AND SWAP3 AND SWAP1 PUSH32 0x493FDD1F2099B9854729D46428CE244DBB655E5209E74967FD51B0F0E9FE4E1E SWAP1 PUSH1 0x20 ADD PUSH1 0x40 MLOAD DUP1 SWAP2 SUB SWAP1 LOG3 JUMPDEST POP POP POP JUMP JUMPDEST PUSH1 0x0 DUP4 PUSH1 0x1 PUSH1 0x1 PUSH1 0xA0 SHL SUB AND DUP6 PUSH1 0x1 PUSH1 0x1 PUSH1 0xA0 SHL SUB AND PUSH4 0xDFE1681 PUSH1 0x40 MLOAD DUP2 PUSH4 0xFFFFFFFF AND PUSH1 0xE0 SHL DUP2 MSTORE PUSH1 0x4 ADD PUSH1 0x20 PUSH1 0x40 MLOAD DUP1 DUP4 SUB DUP2 DUP7 GAS STATICCALL ISZERO DUP1 ISZERO PUSH2 0xE23 JUMPI RETURNDATASIZE PUSH1 0x0 DUP1 RETURNDATACOPY RETURNDATASIZE PUSH1 0x0 REVERT JUMPDEST POP POP POP POP PUSH1 0x40 MLOAD RETURNDATASIZE PUSH1 0x1F NOT PUSH1 0x1F DUP3 ADD AND DUP3 ADD DUP1 PUSH1 0x40 MSTORE POP DUP2 ADD SWAP1 PUSH2 0xE47 SWAP2 SWAP1 PUSH2 0x1247 JUMP JUMPDEST PUSH1 0x1 PUSH1 0x1 PUSH1 0xA0 SHL SUB AND EQ SWAP1 POP PUSH1 0x0 DUP1 DUP3 PUSH2 0xE63 JUMPI DUP5 PUSH1 0x0 PUSH2 0xE67 JUMP JUMPDEST PUSH1 0x0 DUP6 JUMPDEST PUSH1 0x40 MLOAD PUSH4 0x36CD3205 PUSH1 0xE1 SHL DUP2 MSTORE PUSH1 0x4 DUP2 ADD DUP4 SWAP1 MSTORE PUSH1 0x24 DUP2 ADD DUP3 SWAP1 MSTORE PUSH1 0x1 PUSH1 0x1 PUSH1 0xA0 SHL SUB DUP8 DUP2 AND PUSH1 0x44 DUP4 ADD MSTORE SWAP3 SWAP5 POP SWAP1 SWAP3 POP SWAP1 DUP9 AND SWAP1 PUSH4 0x6D9A640A SWAP1 PUSH1 0x64 ADD PUSH1 0x0 PUSH1 0x40 MLOAD DUP1 DUP4 SUB DUP2 PUSH1 0x0 DUP8 DUP1 EXTCODESIZE ISZERO DUP1 ISZERO PUSH2 0xEBF JUMPI PUSH1 0x0 DUP1 REVERT JUMPDEST POP GAS CALL ISZERO DUP1 ISZERO PUSH2 0xED3 JUMPI RETURNDATASIZE PUSH1 0x0 DUP1 RETURNDATACOPY RETURNDATASIZE PUSH1 0x0 REVERT JUMPDEST POP POP POP POP POP POP POP POP POP POP POP JUMP JUMPDEST DUP1 PUSH2 0xEE9 JUMPI POP POP JUMP JUMPDEST PUSH1 0x3 SLOAD PUSH1 0x1 PUSH1 0x1 PUSH1 0xA0 SHL SUB AND PUSH2 0xEFD JUMPI POP POP JUMP JUMPDEST PUSH1 0x2 SLOAD PUSH1 0x1 PUSH1 0x1 PUSH1 0xA0 SHL SUB AND PUSH2 0xF11 JUMPI POP POP JUMP JUMPDEST PUSH1 0x2 SLOAD PUSH1 0x40 MLOAD PUSH4 0x66E305FD PUSH1 0xE0 SHL DUP2 MSTORE PUSH1 0x1 PUSH1 0x1 PUSH1 0xA0 SHL SUB DUP5 DUP2 AND PUSH1 0x4 DUP4 ADD MSTORE SWAP1 SWAP2 AND SWAP1 PUSH4 0x66E305FD SWAP1 PUSH1 0x24 ADD PUSH1 0x20 PUSH1 0x40 MLOAD DUP1 DUP4 SUB DUP2 DUP7 GAS STATICCALL SWAP3 POP POP POP DUP1 ISZERO PUSH2 0xF77 JUMPI POP PUSH1 0x40 DUP1 MLOAD PUSH1 0x1F RETURNDATASIZE SWAP1 DUP2 ADD PUSH1 0x1F NOT AND DUP3 ADD SWAP1 SWAP3 MSTORE PUSH2 0xF74 SWAP2 DUP2 ADD SWAP1 PUSH2 0x1345 JUMP JUMPDEST PUSH1 0x1 JUMPDEST PUSH2 0xF7F JUMPI POP POP JUMP JUMPDEST DUP1 PUSH2 0xF89 JUMPI POP POP POP JUMP JUMPDEST POP PUSH1 0x3 PUSH1 0x0 SWAP1 SLOAD SWAP1 PUSH2 0x100 EXP SWAP1 DIV PUSH1 0x1 PUSH1 0x1 PUSH1 0xA0 SHL SUB AND PUSH1 0x1 PUSH1 0x1 PUSH1 0xA0 SHL SUB AND PUSH4 0xC33B7586 PUSH1 0x40 MLOAD DUP2 PUSH4 0xFFFFFFFF AND PUSH1 0xE0 SHL DUP2 MSTORE PUSH1 0x4 ADD PUSH1 0x20 PUSH1 0x40 MLOAD DUP1 DUP4 SUB DUP2 DUP7 GAS STATICCALL SWAP3 POP POP POP DUP1 ISZERO PUSH2 0xFF9 JUMPI POP PUSH1 0x40 DUP1 MLOAD PUSH1 0x1F RETURNDATASIZE SWAP1 DUP2 ADD PUSH1 0x1F NOT AND DUP3 ADD SWAP1 SWAP3 MSTORE PUSH2 0xFF6 SWAP2 DUP2 ADD SWAP1 PUSH2 0x1345 JUMP JUMPDEST PUSH1 0x1 JUMPDEST PUSH2 0x1001 JUMPI POP POP JUMP JUMPDEST DUP1 ISZERO PUSH2 0x100C JUMPI POP POP POP JUMP JUMPDEST POP PUSH1 0x3 PUSH1 0x0 SWAP1 SLOAD SWAP1 PUSH2 0x100 EXP SWAP1 DIV PUSH1 0x1 PUSH1 0x1 PUSH1 0xA0 SHL SUB AND PUSH1 0x1 PUSH1 0x1 PUSH1 0xA0 SHL SUB AND PUSH4 0xB7A567B PUSH1 0x40 MLOAD DUP2 PUSH4 0xFFFFFFFF AND PUSH1 0xE0 SHL DUP2 MSTORE PUSH1 0x4 ADD PUSH1 0x0 PUSH1 0x40 MLOAD DUP1 DUP4 SUB DUP2 PUSH1 0x0 DUP8 DUP1 EXTCODESIZE ISZERO DUP1 ISZERO PUSH2 0x105D JUMPI PUSH1 0x0 DUP1 REVERT JUMPDEST POP GAS CALL SWAP3 POP POP POP DUP1 ISZERO PUSH2 0x106E JUMPI POP PUSH1 0x1 JUMPDEST ISZERO PUSH2 0x10AA JUMPI PUSH1 0x40 MLOAD PUSH1 0x1 PUSH1 0x1 PUSH1 0xA0 SHL SUB DUP4 AND SWAP1 CALLER SWAP1 PUSH32 0xC991FDC6F1D37402CF43CD51BE704037EF268E0E50A068C178918A86B1919238 SWAP1 PUSH1 0x0 SWAP1 LOG3 JUMPDEST POP POP JUMP JUMPDEST PUSH1 0x40 MLOAD PUSH4 0x23B872DD PUSH1 0xE0 SHL PUSH1 0x0 DUP2 DUP2 MSTORE PUSH1 0x1 PUSH1 0x1 PUSH1 0xA0 SHL SUB DUP8 DUP2 AND PUSH1 0x4 MSTORE DUP7 AND PUSH1 0x24 MSTORE PUSH1 0x44 DUP6 SWAP1 MSTORE SWAP2 PUSH1 0x20 DUP4 PUSH1 0x64 DUP2 DUP1 DUP13 GAS CALL SWAP3 POP PUSH1 0x1 PUSH1 0x0 MLOAD EQ DUP4 AND PUSH2 0x110E JUMPI DUP4 DUP4 ISZERO AND ISZERO PUSH2 0x1101 JUMPI RETURNDATASIZE PUSH1 0x0 DUP3 RETURNDATACOPY RETURNDATASIZE DUP2 REVERT JUMPDEST PUSH1 0x0 DUP9 EXTCODESIZE GT RETURNDATASIZE ISZERO AND DUP4 AND SWAP3 POP JUMPDEST PUSH1 0x40 MSTORE POP PUSH1 0x0 PUSH1 0x60 MSTORE SWAP6 SWAP5 POP POP POP POP POP JUMP JUMPDEST PUSH1 0x0 DUP1 PUSH1 0x0 PUSH1 0x60 DUP5 DUP7 SUB SLT ISZERO PUSH2 0x1135 JUMPI PUSH1 0x0 DUP1 REVERT JUMPDEST POP POP DUP2 CALLDATALOAD SWAP4 PUSH1 0x20 DUP4 ADD CALLDATALOAD SWAP4 POP PUSH1 0x40 SWAP1 SWAP3 ADD CALLDATALOAD SWAP2 SWAP1 POP JUMP JUMPDEST PUSH1 0x1 PUSH1 0x1 PUSH1 0xA0 SHL SUB DUP2 AND DUP2 EQ PUSH2 0x830 JUMPI PUSH1 0x0 DUP1 REVERT JUMPDEST PUSH1 0x0 PUSH1 0x20 DUP3 DUP5 SUB SLT ISZERO PUSH2 0x1173 JUMPI PUSH1 0x0 DUP1 REVERT JUMPDEST DUP2 CALLDATALOAD PUSH2 0x117E DUP2 PUSH2 0x114C JUMP JUMPDEST SWAP4 SWAP3 POP POP POP JUMP JUMPDEST DUP1 ISZERO ISZERO DUP2 EQ PUSH2 0x830 JUMPI PUSH1 0x0 DUP1 REVERT JUMPDEST PUSH1 0x0 DUP1 PUSH1 0x0 DUP1 PUSH1 0x0 DUP1 PUSH1 0x0 PUSH1 0xE0 DUP9 DUP11 SUB SLT ISZERO PUSH2 0x11AE JUMPI PUSH1 0x0 DUP1 REVERT JUMPDEST DUP8 CALLDATALOAD SWAP7 POP PUSH1 0x20 DUP9 ADD CALLDATALOAD SWAP6 POP PUSH1 0x40 DUP9 ADD CALLDATALOAD PUSH2 0x11C7 DUP2 PUSH2 0x114C JUMP JUMPDEST SWAP5 POP PUSH1 0x60 DUP9 ADD CALLDATALOAD PUSH2 0x11D7 DUP2 PUSH2 0x114C JUMP JUMPDEST SWAP4 POP PUSH1 0x80 DUP9 ADD CALLDATALOAD PUSH2 0x11E7 DUP2 PUSH2 0x114C JUMP JUMPDEST SWAP3 POP PUSH1 0xA0 DUP9 ADD CALLDATALOAD SWAP2 POP PUSH1 0xC0 DUP9 ADD CALLDATALOAD PUSH2 0x11FE DUP2 PUSH2 0x1185 JUMP JUMPDEST DUP1 SWAP2 POP POP SWAP3 SWAP6 SWAP9 SWAP2 SWAP5 SWAP8 POP SWAP3 SWAP6 POP JUMP JUMPDEST PUSH1 0x0 DUP1 PUSH1 0x40 DUP4 DUP6 SUB SLT ISZERO PUSH2 0x1221 JUMPI PUSH1 0x0 DUP1 REVERT JUMPDEST DUP3 CALLDATALOAD PUSH2 0x122C DUP2 PUSH2 0x114C JUMP JUMPDEST SWAP2 POP PUSH1 0x20 DUP4 ADD CALLDATALOAD PUSH2 0x123C DUP2 PUSH2 0x114C JUMP JUMPDEST DUP1 SWAP2 POP POP SWAP3 POP SWAP3 SWAP1 POP JUMP JUMPDEST PUSH1 0x0 PUSH1 0x20 DUP3 DUP5 SUB SLT ISZERO PUSH2 0x1259 JUMPI PUSH1 0x0 DUP1 REVERT JUMPDEST DUP2 MLOAD PUSH2 0x117E DUP2 PUSH2 0x114C JUMP JUMPDEST PUSH4 0x4E487B71 PUSH1 0xE0 SHL PUSH1 0x0 MSTORE PUSH1 0x11 PUSH1 0x4 MSTORE PUSH1 0x24 PUSH1 0x0 REVERT JUMPDEST DUP1 DUP3 MUL DUP2 ISZERO DUP3 DUP3 DIV DUP5 EQ OR PUSH2 0x9D9 JUMPI PUSH2 0x9D9 PUSH2 0x1264 JUMP JUMPDEST DUP1 DUP3 ADD DUP1 DUP3 GT ISZERO PUSH2 0x9D9 JUMPI PUSH2 0x9D9 PUSH2 0x1264 JUMP JUMPDEST PUSH1 0x0 DUP3 PUSH2 0x12C1 JUMPI PUSH4 0x4E487B71 PUSH1 0xE0 SHL PUSH1 0x0 MSTORE PUSH1 0x12 PUSH1 0x4 MSTORE PUSH1 0x24 PUSH1 0x0 REVERT JUMPDEST POP DIV SWAP1 JUMP JUMPDEST DUP1 MLOAD PUSH1 0x1 PUSH1 0x1 PUSH1 0x70 SHL SUB DUP2 AND DUP2 EQ PUSH2 0x12DD JUMPI PUSH1 0x0 DUP1 REVERT JUMPDEST SWAP2 SWAP1 POP JUMP JUMPDEST PUSH1 0x0 DUP1 PUSH1 0x0 PUSH1 0x60 DUP5 DUP7 SUB SLT ISZERO PUSH2 0x12F7 JUMPI PUSH1 0x0 DUP1 REVERT JUMPDEST PUSH2 0x1300 DUP5 PUSH2 0x12C6 JUMP JUMPDEST SWAP3 POP PUSH2 0x130E PUSH1 0x20 DUP6 ADD PUSH2 0x12C6 JUMP JUMPDEST SWAP2 POP PUSH1 0x40 DUP5 ADD MLOAD PUSH4 0xFFFFFFFF DUP2 AND DUP2 EQ PUSH2 0x1327 JUMPI PUSH1 0x0 DUP1 REVERT JUMPDEST DUP1 SWAP2 POP POP SWAP3 POP SWAP3 POP SWAP3 JUMP JUMPDEST DUP2 DUP2 SUB DUP2 DUP2 GT ISZERO PUSH2 0x9D9 JUMPI PUSH2 0x9D9 PUSH2 0x1264 JUMP JUMPDEST PUSH1 0x0 PUSH1 0x20 DUP3 DUP5 SUB SLT ISZERO PUSH2 0x1357 JUMPI PUSH1 0x0 DUP1 REVERT JUMPDEST DUP2 MLOAD PUSH2 0x117E DUP2 PUSH2 0x1185 JUMP INVALID LOG2 PUSH5 0x6970667358 0x22 SLT KECCAK256 0xA9 0x22 0xED STOP 0xDC 0xEE PUSH12 0xCF9B2D2D8D13F1BAA8F8F48 INVALID 0xE0 0xC4 0xB4 DUP6 0xD 0xDD PUSH4 0xFF422779 0xC8 PUSH5 0x736F6C6343 STOP ADDMOD XOR STOP CALLER "
		},
		"gasEstimates": {
			"creation": {
				"codeDepositCost": "1003200",
				"executionCost": "infinite",
				"totalCost": "infinite"
			},
			"external": {
				"BPS_DENOMINATOR()": "228",
				"PROTOCOL_FEE_BPS()": "273",
				"eligibleRegistry()": "2382",
				"factory()": "infinite",
				"getAmountIn(uint256,uint256,uint256)": "infinite",
				"getAmountOut(uint256,uint256,uint256)": "infinite",
				"getReserves(address,address)": "infinite",
				"owner()": "2354",
				"pause()": "27781",
				"paused()": "2350",
				"quote(uint256,uint256,uint256)": "infinite",
				"renounceOwnership()": "infinite",
				"setEligibleRegistry(address)": "27978",
				"setTimbPrize(address)": "27914",
				"setTreasury(address)": "30506",
				"swapExactTokensForTokens(uint256,uint256,address,address,address,uint256,bool)": "infinite",
				"swapTokensForExactTokens(uint256,uint256,address,address,address,uint256,bool)": "infinite",
				"timbPrize()": "2449",
				"transferOwnership(address)": "infinite",
				"treasury()": "2382",
				"unpause()": "27770"
			},
			"internal": {
				"_collectProtocolFee(address,uint256)": "infinite",
				"_executeSwap(address,address,uint256,uint256,address,bool)": "infinite",
				"_getAmountIn(uint256,uint256,uint256)": "infinite",
				"_getAmountOut(uint256,uint256,uint256)": "infinite",
				"_getPair(address,address)": "infinite",
				"_getReserves(address,address)": "infinite",
				"_maybeNudge(address,bool)": "infinite",
				"_quote(uint256,uint256,uint256)": "infinite",
				"_swapOnPair(address,address,uint256,address)": "infinite"
			}
		},
		"methodIdentifiers": {
			"BPS_DENOMINATOR()": "e1a45218",
			"PROTOCOL_FEE_BPS()": "be378228",
			"eligibleRegistry()": "92eaa9d9",
			"factory()": "c45a0155",
			"getAmountIn(uint256,uint256,uint256)": "85f8c259",
			"getAmountOut(uint256,uint256,uint256)": "054d50d4",
			"getReserves(address,address)": "d52bb6f4",
			"owner()": "8da5cb5b",
			"pause()": "8456cb59",
			"paused()": "5c975abb",
			"quote(uint256,uint256,uint256)": "ad615dec",
			"renounceOwnership()": "715018a6",
			"setEligibleRegistry(address)": "f13afb90",
			"setTimbPrize(address)": "27b23849",
			"setTreasury(address)": "f0f44260",
			"swapExactTokensForTokens(uint256,uint256,address,address,address,uint256,bool)": "3824659c",
			"swapTokensForExactTokens(uint256,uint256,address,address,address,uint256,bool)": "e98f6797",
			"timbPrize()": "5364276d",
			"transferOwnership(address)": "f2fde38b",
			"treasury()": "61d027b3",
			"unpause()": "3f4ba83a"
		}
	},
	"abi": [
		{
			"inputs": [
				{
					"internalType": "address",
					"name": "_factory",
					"type": "address"
				},
				{
					"internalType": "address",
					"name": "_treasury",
					"type": "address"
				},
				{
					"internalType": "address",
					"name": "_eligibleRegistry",
					"type": "address"
				},
				{
					"internalType": "address",
					"name": "_timbPrize",
					"type": "address"
				}
			],
			"stateMutability": "nonpayable",
			"type": "constructor"
		},
		{
			"inputs": [],
			"name": "ExcessiveInputAmount",
			"type": "error"
		},
		{
			"inputs": [
				{
					"internalType": "uint256",
					"name": "deadline",
					"type": "uint256"
				}
			],
			"name": "Expired",
			"type": "error"
		},
		{
			"inputs": [
				{
					"internalType": "uint256",
					"name": "amountA",
					"type": "uint256"
				},
				{
					"internalType": "uint256",
					"name": "amountAMin",
					"type": "uint256"
				}
			],
			"name": "InsufficientAAmount",
			"type": "error"
		},
		{
			"inputs": [
				{
					"internalType": "uint256",
					"name": "amountB",
					"type": "uint256"
				},
				{
					"internalType": "uint256",
					"name": "amountBMin",
					"type": "uint256"
				}
			],
			"name": "InsufficientBAmount",
			"type": "error"
		},
		{
			"inputs": [
				{
					"internalType": "uint256",
					"name": "amountOut",
					"type": "uint256"
				},
				{
					"internalType": "uint256",
					"name": "amountOutMin",
					"type": "uint256"
				}
			],
			"name": "InsufficientOutputAmount",
			"type": "error"
		},
		{
			"inputs": [
				{
					"internalType": "address",
					"name": "owner",
					"type": "address"
				}
			],
			"name": "OwnableInvalidOwner",
			"type": "error"
		},
		{
			"inputs": [
				{
					"internalType": "address",
					"name": "account",
					"type": "address"
				}
			],
			"name": "OwnableUnauthorizedAccount",
			"type": "error"
		},
		{
			"inputs": [
				{
					"internalType": "address",
					"name": "tokenA",
					"type": "address"
				},
				{
					"internalType": "address",
					"name": "tokenB",
					"type": "address"
				}
			],
			"name": "PairNotFound",
			"type": "error"
		},
		{
			"inputs": [],
			"name": "ReentrancyGuardReentrantCall",
			"type": "error"
		},
		{
			"inputs": [],
			"name": "RouterPaused",
			"type": "error"
		},
		{
			"inputs": [
				{
					"internalType": "address",
					"name": "token",
					"type": "address"
				}
			],
			"name": "SafeERC20FailedOperation",
			"type": "error"
		},
		{
			"inputs": [],
			"name": "ZeroAddress",
			"type": "error"
		},
		{
			"inputs": [],
			"name": "ZeroAmount",
			"type": "error"
		},
		{
			"anonymous": false,
			"inputs": [
				{
					"indexed": true,
					"internalType": "address",
					"name": "registry",
					"type": "address"
				}
			],
			"name": "EligibleRegistrySet",
			"type": "event"
		},
		{
			"anonymous": false,
			"inputs": [
				{
					"indexed": true,
					"internalType": "address",
					"name": "pair",
					"type": "address"
				},
				{
					"indexed": true,
					"internalType": "address",
					"name": "provider",
					"type": "address"
				},
				{
					"indexed": false,
					"internalType": "uint256",
					"name": "amountA",
					"type": "uint256"
				},
				{
					"indexed": false,
					"internalType": "uint256",
					"name": "amountB",
					"type": "uint256"
				},
				{
					"indexed": false,
					"internalType": "uint256",
					"name": "liquidity",
					"type": "uint256"
				}
			],
			"name": "LiquidityAdded",
			"type": "event"
		},
		{
			"anonymous": false,
			"inputs": [
				{
					"indexed": true,
					"internalType": "address",
					"name": "pair",
					"type": "address"
				},
				{
					"indexed": true,
					"internalType": "address",
					"name": "provider",
					"type": "address"
				},
				{
					"indexed": false,
					"internalType": "uint256",
					"name": "amountA",
					"type": "uint256"
				},
				{
					"indexed": false,
					"internalType": "uint256",
					"name": "amountB",
					"type": "uint256"
				},
				{
					"indexed": false,
					"internalType": "uint256",
					"name": "liquidity",
					"type": "uint256"
				}
			],
			"name": "LiquidityRemoved",
			"type": "event"
		},
		{
			"anonymous": false,
			"inputs": [
				{
					"indexed": true,
					"internalType": "address",
					"name": "previousOwner",
					"type": "address"
				},
				{
					"indexed": true,
					"internalType": "address",
					"name": "newOwner",
					"type": "address"
				}
			],
			"name": "OwnershipTransferred",
			"type": "event"
		},
		{
			"anonymous": false,
			"inputs": [
				{
					"indexed": true,
					"internalType": "address",
					"name": "by",
					"type": "address"
				}
			],
			"name": "Paused",
			"type": "event"
		},
		{
			"anonymous": false,
			"inputs": [
				{
					"indexed": true,
					"internalType": "address",
					"name": "treasury",
					"type": "address"
				},
				{
					"indexed": true,
					"internalType": "address",
					"name": "token",
					"type": "address"
				},
				{
					"indexed": false,
					"internalType": "uint256",
					"name": "amount",
					"type": "uint256"
				}
			],
			"name": "ProtocolFeeSent",
			"type": "event"
		},
		{
			"anonymous": false,
			"inputs": [
				{
					"indexed": true,
					"internalType": "address",
					"name": "swapper",
					"type": "address"
				},
				{
					"indexed": true,
					"internalType": "address",
					"name": "tokenIn",
					"type": "address"
				}
			],
			"name": "ScrollNudged",
			"type": "event"
		},
		{
			"anonymous": false,
			"inputs": [
				{
					"indexed": false,
					"internalType": "address",
					"name": "sender",
					"type": "address"
				},
				{
					"indexed": false,
					"internalType": "address",
					"name": "tokenIn",
					"type": "address"
				},
				{
					"indexed": false,
					"internalType": "address",
					"name": "tokenOut",
					"type": "address"
				},
				{
					"indexed": false,
					"internalType": "uint256",
					"name": "amountIn",
					"type": "uint256"
				},
				{
					"indexed": false,
					"internalType": "uint256",
					"name": "amountOut",
					"type": "uint256"
				},
				{
					"indexed": false,
					"internalType": "address",
					"name": "to",
					"type": "address"
				}
			],
			"name": "SwapExecuted",
			"type": "event"
		},
		{
			"anonymous": false,
			"inputs": [
				{
					"indexed": true,
					"internalType": "address",
					"name": "timbPrize",
					"type": "address"
				}
			],
			"name": "TimbPrizeSet",
			"type": "event"
		},
		{
			"anonymous": false,
			"inputs": [
				{
					"indexed": true,
					"internalType": "address",
					"name": "oldTreasury",
					"type": "address"
				},
				{
					"indexed": true,
					"internalType": "address",
					"name": "newTreasury",
					"type": "address"
				}
			],
			"name": "TreasuryUpdated",
			"type": "event"
		},
		{
			"anonymous": false,
			"inputs": [
				{
					"indexed": true,
					"internalType": "address",
					"name": "by",
					"type": "address"
				}
			],
			"name": "Unpaused",
			"type": "event"
		},
		{
			"inputs": [],
			"name": "BPS_DENOMINATOR",
			"outputs": [
				{
					"internalType": "uint256",
					"name": "",
					"type": "uint256"
				}
			],
			"stateMutability": "view",
			"type": "function"
		},
		{
			"inputs": [],
			"name": "PROTOCOL_FEE_BPS",
			"outputs": [
				{
					"internalType": "uint256",
					"name": "",
					"type": "uint256"
				}
			],
			"stateMutability": "view",
			"type": "function"
		},
		{
			"inputs": [],
			"name": "eligibleRegistry",
			"outputs": [
				{
					"internalType": "address",
					"name": "",
					"type": "address"
				}
			],
			"stateMutability": "view",
			"type": "function"
		},
		{
			"inputs": [],
			"name": "factory",
			"outputs": [
				{
					"internalType": "address",
					"name": "",
					"type": "address"
				}
			],
			"stateMutability": "view",
			"type": "function"
		},
		{
			"inputs": [
				{
					"internalType": "uint256",
					"name": "amountOut",
					"type": "uint256"
				},
				{
					"internalType": "uint256",
					"name": "reserveIn",
					"type": "uint256"
				},
				{
					"internalType": "uint256",
					"name": "reserveOut",
					"type": "uint256"
				}
			],
			"name": "getAmountIn",
			"outputs": [
				{
					"internalType": "uint256",
					"name": "",
					"type": "uint256"
				}
			],
			"stateMutability": "pure",
			"type": "function"
		},
		{
			"inputs": [
				{
					"internalType": "uint256",
					"name": "amountIn",
					"type": "uint256"
				},
				{
					"internalType": "uint256",
					"name": "reserveIn",
					"type": "uint256"
				},
				{
					"internalType": "uint256",
					"name": "reserveOut",
					"type": "uint256"
				}
			],
			"name": "getAmountOut",
			"outputs": [
				{
					"internalType": "uint256",
					"name": "",
					"type": "uint256"
				}
			],
			"stateMutability": "pure",
			"type": "function"
		},
		{
			"inputs": [
				{
					"internalType": "address",
					"name": "tokenA",
					"type": "address"
				},
				{
					"internalType": "address",
					"name": "tokenB",
					"type": "address"
				}
			],
			"name": "getReserves",
			"outputs": [
				{
					"internalType": "uint256",
					"name": "reserveA",
					"type": "uint256"
				},
				{
					"internalType": "uint256",
					"name": "reserveB",
					"type": "uint256"
				}
			],
			"stateMutability": "view",
			"type": "function"
		},
		{
			"inputs": [],
			"name": "owner",
			"outputs": [
				{
					"internalType": "address",
					"name": "",
					"type": "address"
				}
			],
			"stateMutability": "view",
			"type": "function"
		},
		{
			"inputs": [],
			"name": "pause",
			"outputs": [],
			"stateMutability": "nonpayable",
			"type": "function"
		},
		{
			"inputs": [],
			"name": "paused",
			"outputs": [
				{
					"internalType": "bool",
					"name": "",
					"type": "bool"
				}
			],
			"stateMutability": "view",
			"type": "function"
		},
		{
			"inputs": [
				{
					"internalType": "uint256",
					"name": "amountA",
					"type": "uint256"
				},
				{
					"internalType": "uint256",
					"name": "reserveA",
					"type": "uint256"
				},
				{
					"internalType": "uint256",
					"name": "reserveB",
					"type": "uint256"
				}
			],
			"name": "quote",
			"outputs": [
				{
					"internalType": "uint256",
					"name": "",
					"type": "uint256"
				}
			],
			"stateMutability": "pure",
			"type": "function"
		},
		{
			"inputs": [],
			"name": "renounceOwnership",
			"outputs": [],
			"stateMutability": "nonpayable",
			"type": "function"
		},
		{
			"inputs": [
				{
					"internalType": "address",
					"name": "_r",
					"type": "address"
				}
			],
			"name": "setEligibleRegistry",
			"outputs": [],
			"stateMutability": "nonpayable",
			"type": "function"
		},
		{
			"inputs": [
				{
					"internalType": "address",
					"name": "_p",
					"type": "address"
				}
			],
			"name": "setTimbPrize",
			"outputs": [],
			"stateMutability": "nonpayable",
			"type": "function"
		},
		{
			"inputs": [
				{
					"internalType": "address",
					"name": "_treasury",
					"type": "address"
				}
			],
			"name": "setTreasury",
			"outputs": [],
			"stateMutability": "nonpayable",
			"type": "function"
		},
		{
			"inputs": [
				{
					"internalType": "uint256",
					"name": "amountIn",
					"type": "uint256"
				},
				{
					"internalType": "uint256",
					"name": "amountOutMin",
					"type": "uint256"
				},
				{
					"internalType": "address",
					"name": "tokenIn",
					"type": "address"
				},
				{
					"internalType": "address",
					"name": "tokenOut",
					"type": "address"
				},
				{
					"internalType": "address",
					"name": "to",
					"type": "address"
				},
				{
					"internalType": "uint256",
					"name": "deadline",
					"type": "uint256"
				},
				{
					"internalType": "bool",
					"name": "influencePrize",
					"type": "bool"
				}
			],
			"name": "swapExactTokensForTokens",
			"outputs": [
				{
					"internalType": "uint256",
					"name": "amountOut",
					"type": "uint256"
				}
			],
			"stateMutability": "nonpayable",
			"type": "function"
		},
		{
			"inputs": [
				{
					"internalType": "uint256",
					"name": "amountOut",
					"type": "uint256"
				},
				{
					"internalType": "uint256",
					"name": "amountInMax",
					"type": "uint256"
				},
				{
					"internalType": "address",
					"name": "tokenIn",
					"type": "address"
				},
				{
					"internalType": "address",
					"name": "tokenOut",
					"type": "address"
				},
				{
					"internalType": "address",
					"name": "to",
					"type": "address"
				},
				{
					"internalType": "uint256",
					"name": "deadline",
					"type": "uint256"
				},
				{
					"internalType": "bool",
					"name": "influencePrize",
					"type": "bool"
				}
			],
			"name": "swapTokensForExactTokens",
			"outputs": [
				{
					"internalType": "uint256",
					"name": "amountIn",
					"type": "uint256"
				}
			],
			"stateMutability": "nonpayable",
			"type": "function"
		},
		{
			"inputs": [],
			"name": "timbPrize",
			"outputs": [
				{
					"internalType": "address",
					"name": "",
					"type": "address"
				}
			],
			"stateMutability": "view",
			"type": "function"
		},
		{
			"inputs": [
				{
					"internalType": "address",
					"name": "newOwner",
					"type": "address"
				}
			],
			"name": "transferOwnership",
			"outputs": [],
			"stateMutability": "nonpayable",
			"type": "function"
		},
		{
			"inputs": [],
			"name": "treasury",
			"outputs": [
				{
					"internalType": "address",
					"name": "",
					"type": "address"
				}
			],
			"stateMutability": "view",
			"type": "function"
		},
		{
			"inputs": [],
			"name": "unpause",
			"outputs": [],
			"stateMutability": "nonpayable",
			"type": "function"
		}
	]
}