{
	"data": {
		"bytecode": {
			"linkReferences": {},
			"object": "60a06040523480156200001157600080fd5b50604051620019c5380380620019c5833981016040819052620000349162000134565b33806200005b57604051631e4fbdf760e01b81526000600482015260240160405180910390fd5b6200006681620000e4565b5060017f9b779b17422d0df92223018b32b4d1fa46e071723d6817e2486d003becc55f00556001600160a01b038216620000b35760405163d92e233d60e01b815260040160405180910390fd5b6001600160a01b03909116608052600255336000908152600a60205260409020805460ff1916600117905562000170565b600080546001600160a01b038381166001600160a01b0319831681178455604051919092169283917f8be0079c531659141344cd1fd0a4f28419497f9722a3daafe3b4186f6b6457e09190a35050565b600080604083850312156200014857600080fd5b82516001600160a01b03811681146200016057600080fd5b6020939093015192949293505050565b6080516117ec620001d9600039600081816102140152818161059a0152818161085f015281816109b301528181610a6b01528181610be901528181610c4401528181610ea101528181610fe301528181611137015281816111be015261125201526117ec6000f3fe608060405234801561001057600080fd5b50600436106101e45760003560e01c8063817b1cd21161010f578063cd3daf9d116100a2578063e9fad8ee11610071578063e9fad8ee146103ea578063ebe2b12b146103f2578063f0f44260146103fb578063f2fde38b1461040e57600080fd5b8063cd3daf9d146103ae578063d15166ff146103b6578063db2e21bc146103d9578063df136d65146103e157600080fd5b80638da5cb5b116100de5780638da5cb5b1461036e5780639e447fc61461037f578063a694fc3a14610392578063c8f33c91146103a557600080fd5b8063817b1cd21461032a5780638456cb59146103335780638980f11f1461033b5780638b8763471461034e57600080fd5b80633f4ba83a11610187578063602172671161015657806360217267146102e757806361d027b314610307578063715018a61461031a57806380faa57d1461032257600080fd5b80633f4ba83a146102b15780635a5cd45e146102b95780635c975abb146102c15780635d773b2c146102de57600080fd5b8063255a4f73116101c3578063255a4f73146102635780632e17de781461027657806331d7a26214610289578063372500ab146102a957600080fd5b80628cc262146101e95780630e31648f1461020f578063246132f91461024e575b600080fd5b6101fc6101f7366004611645565b610421565b6040519081526020015b60405180910390f35b6102367f000000000000000000000000000000000000000000000000000000000000000081565b6040516001600160a01b039091168152602001610206565b61026161025c366004611667565b61049e565b005b610261610271366004611689565b610689565b6102616102843660046116c5565b610717565b6101fc610297366004611645565b60096020526000908152604090205481565b6102616108d7565b610261610aeb565b6101fc610b2a565b600b546102ce9060ff1681565b6040519015158152602001610206565b6101fc60025481565b6101fc6102f5366004611645565b60076020526000908152604090205481565b600154610236906001600160a01b031681565b610261610b72565b6101fc610b84565b6101fc60065481565b610261610b9d565b6102616103493660046116de565b610bdf565b6101fc61035c366004611645565b60086020526000908152604090205481565b6000546001600160a01b0316610236565b61026161038d3660046116c5565b610d0e565b6102616103a03660046116c5565b610dae565b6101fc60045481565b6101fc610efb565b6102ce6103c4366004611645565b600a6020526000908152604090205460ff1681565b610261610f5c565b6101fc60055481565b610261611057565b6101fc60035481565b610261610409366004611645565b6112d3565b61026161041c366004611645565b6113d7565b6001600160a01b0381166000908152600960209081526040808320546008909252822054670de0b6b3a764000090610457610efb565b610461919061171e565b6001600160a01b0385166000908152600760205260409020546104849190611731565b61048e9190611748565b610498919061176a565b92915050565b6104a6611412565b60006104b0610efb565b6005556104bb610b84565b6004556001600160a01b03811615610502576104d681610421565b6001600160a01b0382166000908152600960209081526040808320939093556005546008909152919020555b336000908152600a602052604090205460ff1615801561052d57506000546001600160a01b03163314155b1561054b57604051631648fd0160e01b815260040160405180910390fd5b8260000361056c57604051631f2a200560e01b815260040160405180910390fd5b8160000361058d57604051631f2a200560e01b815260040160405180910390fd5b6105c26001600160a01b037f00000000000000000000000000000000000000000000000000000000000000001633308661142e565b600354421015610610576000426003546105dc919061171e565b90506000600254826105ee9190611731565b9050836105fb828761176a565b6106059190611748565b6002555061061e9050565b61061a8284611748565b6002555b42600481905561062f90839061176a565b600355604080518481526020810184905233917f8a888ea653a580e40660778ee0c0dabd23a81e8e2c8dcfb938e40982a157d819910160405180910390a250610685600160008051602061179783398151915255565b5050565b61069161146a565b6001600160a01b0382166106b85760405163d92e233d60e01b815260040160405180910390fd5b6001600160a01b0382166000818152600a6020908152604091829020805460ff191685151590811790915591519182527fb33ca1dabfb28a2e1bd06b332c396b1a3d538278691341a5503bbad53f919197910160405180910390a25050565b61071f611412565b600b5460ff16156107435760405163ab35696f60e01b815260040160405180910390fd5b3361074c610efb565b600555610757610b84565b6004556001600160a01b0381161561079e5761077281610421565b6001600160a01b0382166000908152600960209081526040808320939093556005546008909152919020555b816000036107bf57604051631f2a200560e01b815260040160405180910390fd5b336000908152600760205260409020548211156108145733600090815260076020526040908190205490516322df051360e11b815261080b918491600401918252602082015260400190565b60405180910390fd5b336000908152600760205260408120805484929061083390849061171e565b92505081905550816006600082825461084c919061171e565b9091555061088690506001600160a01b037f0000000000000000000000000000000000000000000000000000000000000000163384611497565b60405182815233907f0f5bb82176feb1b5e747e28471aa92156a04d9f3ab9f45f28e2d704232b93f75906020015b60405180910390a2506108d4600160008051602061179783398151915255565b50565b6108df611412565b600b5460ff16156109035760405163ab35696f60e01b815260040160405180910390fd5b3361090c610efb565b600555610917610b84565b6004556001600160a01b0381161561095e5761093281610421565b6001600160a01b0382166000908152600960209081526040808320939093556005546008909152919020555b336000908152600960205260408120549081900361098f57604051635b8f50bf60e11b815260040160405180910390fd5b6006546040516370a0823160e01b8152306004820152600091906001600160a01b037f000000000000000000000000000000000000000000000000000000000000000016906370a0823190602401602060405180830381865afa1580156109fa573d6000803e3d6000fd5b505050506040513d601f19601f82011682018060405250810190610a1e919061177d565b610a28919061171e565b905080821115610a55576040516365ac9d4360e01b8152600481018390526024810182905260440161080b565b33600081815260096020526040812055610a9a907f00000000000000000000000000000000000000000000000000000000000000006001600160a01b03169084611497565b60405182815233907ffc30cddea38e2bf4d6ea7d3f9ed3b6ad7f176419f4963bd81318067a4aee73fe9060200160405180910390a2505050610ae9600160008051602061179783398151915255565b565b610af361146a565b600b805460ff1916905560405133907f5db9ee0a495bf2e6ff9c91a7834c1ba4fdd244a5e8aa4e537bd38aeae4b073aa90600090a2565b6000600654600003610b3c5750600090565b60006002546301e13380610b509190611731565b600654909150610b6282612710611731565b610b6c9190611748565b91505090565b610b7a61146a565b610ae960006114d1565b60006003544210610b96575060035490565b425b905090565b610ba561146a565b600b805460ff1916600117905560405133907f62e78cea01bee320cd4e420270b5ea74000d11b0c9f74754ebdbfc544b05a25890600090a2565b610be761146a565b7f00000000000000000000000000000000000000000000000000000000000000006001600160a01b0316826001600160a01b031603610ce8576006546040516370a0823160e01b8152306004820152600091906001600160a01b037f000000000000000000000000000000000000000000000000000000000000000016906370a0823190602401602060405180830381865afa158015610c8b573d6000803e3d6000fd5b505050506040513d601f19601f82011682018060405250810190610caf919061177d565b610cb9919061171e565b905080821115610ce6576040516365ac9d4360e01b8152600481018390526024810182905260440161080b565b505b610685610cfd6000546001600160a01b031690565b6001600160a01b0384169083611497565b610d1661146a565b6000610d20610efb565b600555610d2b610b84565b6004556001600160a01b03811615610d7257610d4681610421565b6001600160a01b0382166000908152600960209081526040808320939093556005546008909152919020555b60028290556040518281527f8cbfafc8e0d9c5c81401c4b9c6e7d201198adc7eb8f8f1556c195ecd4c0a0e7b9060200160405180910390a15050565b610db6611412565b600b5460ff1615610dda5760405163ab35696f60e01b815260040160405180910390fd5b33610de3610efb565b600555610dee610b84565b6004556001600160a01b03811615610e3557610e0981610421565b6001600160a01b0382166000908152600960209081526040808320939093556005546008909152919020555b81600003610e5657604051631f2a200560e01b815260040160405180910390fd5b3360009081526007602052604081208054849290610e7590849061176a565b925050819055508160066000828254610e8e919061176a565b90915550610ec990506001600160a01b037f00000000000000000000000000000000000000000000000000000000000000001633308561142e565b60405182815233907f9e71bc8eea02a63969f509818f2dafb9254532904319f9dbda79b67bd34a5f3d906020016108b4565b6000600654600003610f0e575060055490565b600654600254600454610f1f610b84565b610f29919061171e565b610f339190611731565b610f4590670de0b6b3a7640000611731565b610f4f9190611748565b600554610b98919061176a565b610f64611412565b3360009081526007602052604081205490819003610f9557604051631f2a200560e01b815260040160405180910390fd5b336000908152600760209081526040808320839055600982528083208390556008909152812081905560068054839290610fd090849061171e565b9091555061100a90506001600160a01b037f0000000000000000000000000000000000000000000000000000000000000000163383611497565b60405181815233907f5fafa99d0643513820be26656b45130b01e1c03062e1266bf36f88cbd3bd96959060200160405180910390a250610ae9600160008051602061179783398151915255565b61105f611412565b600b5460ff16156110835760405163ab35696f60e01b815260040160405180910390fd5b3361108c610efb565b600555611097610b84565b6004556001600160a01b038116156110de576110b281610421565b6001600160a01b0382166000908152600960209081526040808320939093556005546008909152919020555b336000908152600760209081526040808320546009909252909120548115611194573360009081526007602052604081208190556006805484929061112490849061171e565b9091555061115e90506001600160a01b037f0000000000000000000000000000000000000000000000000000000000000000163384611497565b60405182815233907f0f5bb82176feb1b5e747e28471aa92156a04d9f3ab9f45f28e2d704232b93f759060200160405180910390a25b80156112b9576006546040516370a0823160e01b8152306004820152600091906001600160a01b037f000000000000000000000000000000000000000000000000000000000000000016906370a0823190602401602060405180830381865afa158015611205573d6000803e3d6000fd5b505050506040513d601f19601f82011682018060405250810190611229919061177d565b611233919061171e565b90508082116112b75733600081815260096020526040812055611281907f00000000000000000000000000000000000000000000000000000000000000006001600160a01b03169084611497565b60405182815233907ffc30cddea38e2bf4d6ea7d3f9ed3b6ad7f176419f4963bd81318067a4aee73fe9060200160405180910390a25b505b505050610ae9600160008051602061179783398151915255565b6112db61146a565b6001600160a01b0381166113025760405163d92e233d60e01b815260040160405180910390fd5b6001546001600160a01b031615611336576001546001600160a01b03166000908152600a60205260409020805460ff191690555b600180546001600160a01b0319166001600160a01b03831690811782556000818152600a6020526040808220805460ff1916909417909355915190917f3c864541ef71378c6229510ed90f376565ee42d9c5e0904a984a9e863e6db44f91a2604051600181526001600160a01b038216907fb33ca1dabfb28a2e1bd06b332c396b1a3d538278691341a5503bbad53f9191979060200160405180910390a250565b6113df61146a565b6001600160a01b03811661140957604051631e4fbdf760e01b81526000600482015260240161080b565b6108d4816114d1565b61141a611521565b600260008051602061179783398151915255565b61143c848484846001611551565b61146457604051635274afe760e01b81526001600160a01b038516600482015260240161080b565b50505050565b6000546001600160a01b03163314610ae95760405163118cdaa760e01b815233600482015260240161080b565b6114a483838360016115c3565b6114cc57604051635274afe760e01b81526001600160a01b038416600482015260240161080b565b505050565b600080546001600160a01b038381166001600160a01b0319831681178455604051919092169283917f8be0079c531659141344cd1fd0a4f28419497f9722a3daafe3b4186f6b6457e09190a35050565b60008051602061179783398151915254600203610ae957604051633ee5aeb560e01b815260040160405180910390fd5b6040516323b872dd60e01b60008181526001600160a01b038781166004528616602452604485905291602083606481808c5af1925060016000511483166115b15783831516156115a4573d6000823e3d81fd5b6000883b113d1516831692505b60405250600060605295945050505050565b60405163a9059cbb60e01b60008181526001600160a01b038616600452602485905291602083604481808b5af19250600160005114831661161d578383151615611610573d6000823e3d81fd5b6000873b113d1516831692505b60405250949350505050565b80356001600160a01b038116811461164057600080fd5b919050565b60006020828403121561165757600080fd5b61166082611629565b9392505050565b6000806040838503121561167a57600080fd5b50508035926020909101359150565b6000806040838503121561169c57600080fd5b6116a583611629565b9150602083013580151581146116ba57600080fd5b809150509250929050565b6000602082840312156116d757600080fd5b5035919050565b600080604083850312156116f157600080fd5b6116fa83611629565b946020939093013593505050565b634e487b7160e01b600052601160045260246000fd5b8181038181111561049857610498611708565b808202811582820484141761049857610498611708565b60008261176557634e487b7160e01b600052601260045260246000fd5b500490565b8082018082111561049857610498611708565b60006020828403121561178f57600080fd5b505191905056fe9b779b17422d0df92223018b32b4d1fa46e071723d6817e2486d003becc55f00a26469706673582212203e71eaa7a126caf334207ccd952b942f2d0c3dcdc49a36deb47a1e81b3e9ed5764736f6c63430008140033",
			"opcodes": "PUSH1 0xA0 PUSH1 0x40 MSTORE CALLVALUE DUP1 ISZERO PUSH3 0x11 JUMPI PUSH1 0x0 DUP1 REVERT JUMPDEST POP PUSH1 0x40 MLOAD PUSH3 0x19C5 CODESIZE SUB DUP1 PUSH3 0x19C5 DUP4 CODECOPY DUP2 ADD PUSH1 0x40 DUP2 SWAP1 MSTORE PUSH3 0x34 SWAP2 PUSH3 0x134 JUMP JUMPDEST CALLER DUP1 PUSH3 0x5B JUMPI PUSH1 0x40 MLOAD PUSH4 0x1E4FBDF7 PUSH1 0xE0 SHL DUP2 MSTORE PUSH1 0x0 PUSH1 0x4 DUP3 ADD MSTORE PUSH1 0x24 ADD PUSH1 0x40 MLOAD DUP1 SWAP2 SUB SWAP1 REVERT JUMPDEST PUSH3 0x66 DUP2 PUSH3 0xE4 JUMP JUMPDEST POP PUSH1 0x1 PUSH32 0x9B779B17422D0DF92223018B32B4D1FA46E071723D6817E2486D003BECC55F00 SSTORE PUSH1 0x1 PUSH1 0x1 PUSH1 0xA0 SHL SUB DUP3 AND PUSH3 0xB3 JUMPI PUSH1 0x40 MLOAD PUSH4 0xD92E233D PUSH1 0xE0 SHL DUP2 MSTORE PUSH1 0x4 ADD PUSH1 0x40 MLOAD DUP1 SWAP2 SUB SWAP1 REVERT JUMPDEST PUSH1 0x1 PUSH1 0x1 PUSH1 0xA0 SHL SUB SWAP1 SWAP2 AND PUSH1 0x80 MSTORE PUSH1 0x2 SSTORE CALLER PUSH1 0x0 SWAP1 DUP2 MSTORE PUSH1 0xA PUSH1 0x20 MSTORE PUSH1 0x40 SWAP1 KECCAK256 DUP1 SLOAD PUSH1 0xFF NOT AND PUSH1 0x1 OR SWAP1 SSTORE PUSH3 0x170 JUMP JUMPDEST PUSH1 0x0 DUP1 SLOAD PUSH1 0x1 PUSH1 0x1 PUSH1 0xA0 SHL SUB DUP4 DUP2 AND PUSH1 0x1 PUSH1 0x1 PUSH1 0xA0 SHL SUB NOT DUP4 AND DUP2 OR DUP5 SSTORE PUSH1 0x40 MLOAD SWAP2 SWAP1 SWAP3 AND SWAP3 DUP4 SWAP2 PUSH32 0x8BE0079C531659141344CD1FD0A4F28419497F9722A3DAAFE3B4186F6B6457E0 SWAP2 SWAP1 LOG3 POP POP JUMP JUMPDEST PUSH1 0x0 DUP1 PUSH1 0x40 DUP4 DUP6 SUB SLT ISZERO PUSH3 0x148 JUMPI PUSH1 0x0 DUP1 REVERT JUMPDEST DUP3 MLOAD PUSH1 0x1 PUSH1 0x1 PUSH1 0xA0 SHL SUB DUP2 AND DUP2 EQ PUSH3 0x160 JUMPI PUSH1 0x0 DUP1 REVERT JUMPDEST PUSH1 0x20 SWAP4 SWAP1 SWAP4 ADD MLOAD SWAP3 SWAP5 SWAP3 SWAP4 POP POP POP JUMP JUMPDEST PUSH1 0x80 MLOAD PUSH2 0x17EC PUSH3 0x1D9 PUSH1 0x0 CODECOPY PUSH1 0x0 DUP2 DUP2 PUSH2 0x214 ADD MSTORE DUP2 DUP2 PUSH2 0x59A ADD MSTORE DUP2 DUP2 PUSH2 0x85F ADD MSTORE DUP2 DUP2 PUSH2 0x9B3 ADD MSTORE DUP2 DUP2 PUSH2 0xA6B ADD MSTORE DUP2 DUP2 PUSH2 0xBE9 ADD MSTORE DUP2 DUP2 PUSH2 0xC44 ADD MSTORE DUP2 DUP2 PUSH2 0xEA1 ADD MSTORE DUP2 DUP2 PUSH2 0xFE3 ADD MSTORE DUP2 DUP2 PUSH2 0x1137 ADD MSTORE DUP2 DUP2 PUSH2 0x11BE ADD MSTORE PUSH2 0x1252 ADD MSTORE PUSH2 0x17EC PUSH1 0x0 RETURN INVALID PUSH1 0x80 PUSH1 0x40 MSTORE CALLVALUE DUP1 ISZERO PUSH2 0x10 JUMPI PUSH1 0x0 DUP1 REVERT JUMPDEST POP PUSH1 0x4 CALLDATASIZE LT PUSH2 0x1E4 JUMPI PUSH1 0x0 CALLDATALOAD PUSH1 0xE0 SHR DUP1 PUSH4 0x817B1CD2 GT PUSH2 0x10F JUMPI DUP1 PUSH4 0xCD3DAF9D GT PUSH2 0xA2 JUMPI DUP1 PUSH4 0xE9FAD8EE GT PUSH2 0x71 JUMPI DUP1 PUSH4 0xE9FAD8EE EQ PUSH2 0x3EA JUMPI DUP1 PUSH4 0xEBE2B12B EQ PUSH2 0x3F2 JUMPI DUP1 PUSH4 0xF0F44260 EQ PUSH2 0x3FB JUMPI DUP1 PUSH4 0xF2FDE38B EQ PUSH2 0x40E JUMPI PUSH1 0x0 DUP1 REVERT JUMPDEST DUP1 PUSH4 0xCD3DAF9D EQ PUSH2 0x3AE JUMPI DUP1 PUSH4 0xD15166FF EQ PUSH2 0x3B6 JUMPI DUP1 PUSH4 0xDB2E21BC EQ PUSH2 0x3D9 JUMPI DUP1 PUSH4 0xDF136D65 EQ PUSH2 0x3E1 JUMPI PUSH1 0x0 DUP1 REVERT JUMPDEST DUP1 PUSH4 0x8DA5CB5B GT PUSH2 0xDE JUMPI DUP1 PUSH4 0x8DA5CB5B EQ PUSH2 0x36E JUMPI DUP1 PUSH4 0x9E447FC6 EQ PUSH2 0x37F JUMPI DUP1 PUSH4 0xA694FC3A EQ PUSH2 0x392 JUMPI DUP1 PUSH4 0xC8F33C91 EQ PUSH2 0x3A5 JUMPI PUSH1 0x0 DUP1 REVERT JUMPDEST DUP1 PUSH4 0x817B1CD2 EQ PUSH2 0x32A JUMPI DUP1 PUSH4 0x8456CB59 EQ PUSH2 0x333 JUMPI DUP1 PUSH4 0x8980F11F EQ PUSH2 0x33B JUMPI DUP1 PUSH4 0x8B876347 EQ PUSH2 0x34E JUMPI PUSH1 0x0 DUP1 REVERT JUMPDEST DUP1 PUSH4 0x3F4BA83A GT PUSH2 0x187 JUMPI DUP1 PUSH4 0x60217267 GT PUSH2 0x156 JUMPI DUP1 PUSH4 0x60217267 EQ PUSH2 0x2E7 JUMPI DUP1 PUSH4 0x61D027B3 EQ PUSH2 0x307 JUMPI DUP1 PUSH4 0x715018A6 EQ PUSH2 0x31A JUMPI DUP1 PUSH4 0x80FAA57D EQ PUSH2 0x322 JUMPI PUSH1 0x0 DUP1 REVERT JUMPDEST DUP1 PUSH4 0x3F4BA83A EQ PUSH2 0x2B1 JUMPI DUP1 PUSH4 0x5A5CD45E EQ PUSH2 0x2B9 JUMPI DUP1 PUSH4 0x5C975ABB EQ PUSH2 0x2C1 JUMPI DUP1 PUSH4 0x5D773B2C EQ PUSH2 0x2DE JUMPI PUSH1 0x0 DUP1 REVERT JUMPDEST DUP1 PUSH4 0x255A4F73 GT PUSH2 0x1C3 JUMPI DUP1 PUSH4 0x255A4F73 EQ PUSH2 0x263 JUMPI DUP1 PUSH4 0x2E17DE78 EQ PUSH2 0x276 JUMPI DUP1 PUSH4 0x31D7A262 EQ PUSH2 0x289 JUMPI DUP1 PUSH4 0x372500AB EQ PUSH2 0x2A9 JUMPI PUSH1 0x0 DUP1 REVERT JUMPDEST DUP1 PUSH3 0x8CC262 EQ PUSH2 0x1E9 JUMPI DUP1 PUSH4 0xE31648F EQ PUSH2 0x20F JUMPI DUP1 PUSH4 0x246132F9 EQ PUSH2 0x24E JUMPI JUMPDEST PUSH1 0x0 DUP1 REVERT JUMPDEST PUSH2 0x1FC PUSH2 0x1F7 CALLDATASIZE PUSH1 0x4 PUSH2 0x1645 JUMP JUMPDEST PUSH2 0x421 JUMP JUMPDEST PUSH1 0x40 MLOAD SWAP1 DUP2 MSTORE PUSH1 0x20 ADD JUMPDEST PUSH1 0x40 MLOAD DUP1 SWAP2 SUB SWAP1 RETURN JUMPDEST PUSH2 0x236 PUSH32 0x0 DUP2 JUMP JUMPDEST PUSH1 0x40 MLOAD PUSH1 0x1 PUSH1 0x1 PUSH1 0xA0 SHL SUB SWAP1 SWAP2 AND DUP2 MSTORE PUSH1 0x20 ADD PUSH2 0x206 JUMP JUMPDEST PUSH2 0x261 PUSH2 0x25C CALLDATASIZE PUSH1 0x4 PUSH2 0x1667 JUMP JUMPDEST PUSH2 0x49E JUMP JUMPDEST STOP JUMPDEST PUSH2 0x261 PUSH2 0x271 CALLDATASIZE PUSH1 0x4 PUSH2 0x1689 JUMP JUMPDEST PUSH2 0x689 JUMP JUMPDEST PUSH2 0x261 PUSH2 0x284 CALLDATASIZE PUSH1 0x4 PUSH2 0x16C5 JUMP JUMPDEST PUSH2 0x717 JUMP JUMPDEST PUSH2 0x1FC PUSH2 0x297 CALLDATASIZE PUSH1 0x4 PUSH2 0x1645 JUMP JUMPDEST PUSH1 0x9 PUSH1 0x20 MSTORE PUSH1 0x0 SWAP1 DUP2 MSTORE PUSH1 0x40 SWAP1 KECCAK256 SLOAD DUP2 JUMP JUMPDEST PUSH2 0x261 PUSH2 0x8D7 JUMP JUMPDEST PUSH2 0x261 PUSH2 0xAEB JUMP JUMPDEST PUSH2 0x1FC PUSH2 0xB2A JUMP JUMPDEST PUSH1 0xB SLOAD PUSH2 0x2CE SWAP1 PUSH1 0xFF AND DUP2 JUMP JUMPDEST PUSH1 0x40 MLOAD SWAP1 ISZERO ISZERO DUP2 MSTORE PUSH1 0x20 ADD PUSH2 0x206 JUMP JUMPDEST PUSH2 0x1FC PUSH1 0x2 SLOAD DUP2 JUMP JUMPDEST PUSH2 0x1FC PUSH2 0x2F5 CALLDATASIZE PUSH1 0x4 PUSH2 0x1645 JUMP JUMPDEST PUSH1 0x7 PUSH1 0x20 MSTORE PUSH1 0x0 SWAP1 DUP2 MSTORE PUSH1 0x40 SWAP1 KECCAK256 SLOAD DUP2 JUMP JUMPDEST PUSH1 0x1 SLOAD PUSH2 0x236 SWAP1 PUSH1 0x1 PUSH1 0x1 PUSH1 0xA0 SHL SUB AND DUP2 JUMP JUMPDEST PUSH2 0x261 PUSH2 0xB72 JUMP JUMPDEST PUSH2 0x1FC PUSH2 0xB84 JUMP JUMPDEST PUSH2 0x1FC PUSH1 0x6 SLOAD DUP2 JUMP JUMPDEST PUSH2 0x261 PUSH2 0xB9D JUMP JUMPDEST PUSH2 0x261 PUSH2 0x349 CALLDATASIZE PUSH1 0x4 PUSH2 0x16DE JUMP JUMPDEST PUSH2 0xBDF JUMP JUMPDEST PUSH2 0x1FC PUSH2 0x35C CALLDATASIZE PUSH1 0x4 PUSH2 0x1645 JUMP JUMPDEST PUSH1 0x8 PUSH1 0x20 MSTORE PUSH1 0x0 SWAP1 DUP2 MSTORE PUSH1 0x40 SWAP1 KECCAK256 SLOAD DUP2 JUMP JUMPDEST PUSH1 0x0 SLOAD PUSH1 0x1 PUSH1 0x1 PUSH1 0xA0 SHL SUB AND PUSH2 0x236 JUMP JUMPDEST PUSH2 0x261 PUSH2 0x38D CALLDATASIZE PUSH1 0x4 PUSH2 0x16C5 JUMP JUMPDEST PUSH2 0xD0E JUMP JUMPDEST PUSH2 0x261 PUSH2 0x3A0 CALLDATASIZE PUSH1 0x4 PUSH2 0x16C5 JUMP JUMPDEST PUSH2 0xDAE JUMP JUMPDEST PUSH2 0x1FC PUSH1 0x4 SLOAD DUP2 JUMP JUMPDEST PUSH2 0x1FC PUSH2 0xEFB JUMP JUMPDEST PUSH2 0x2CE PUSH2 0x3C4 CALLDATASIZE PUSH1 0x4 PUSH2 0x1645 JUMP JUMPDEST PUSH1 0xA PUSH1 0x20 MSTORE PUSH1 0x0 SWAP1 DUP2 MSTORE PUSH1 0x40 SWAP1 KECCAK256 SLOAD PUSH1 0xFF AND DUP2 JUMP JUMPDEST PUSH2 0x261 PUSH2 0xF5C JUMP JUMPDEST PUSH2 0x1FC PUSH1 0x5 SLOAD DUP2 JUMP JUMPDEST PUSH2 0x261 PUSH2 0x1057 JUMP JUMPDEST PUSH2 0x1FC PUSH1 0x3 SLOAD DUP2 JUMP JUMPDEST PUSH2 0x261 PUSH2 0x409 CALLDATASIZE PUSH1 0x4 PUSH2 0x1645 JUMP JUMPDEST PUSH2 0x12D3 JUMP JUMPDEST PUSH2 0x261 PUSH2 0x41C CALLDATASIZE PUSH1 0x4 PUSH2 0x1645 JUMP JUMPDEST PUSH2 0x13D7 JUMP JUMPDEST PUSH1 0x1 PUSH1 0x1 PUSH1 0xA0 SHL SUB DUP2 AND PUSH1 0x0 SWAP1 DUP2 MSTORE PUSH1 0x9 PUSH1 0x20 SWAP1 DUP2 MSTORE PUSH1 0x40 DUP1 DUP4 KECCAK256 SLOAD PUSH1 0x8 SWAP1 SWAP3 MSTORE DUP3 KECCAK256 SLOAD PUSH8 0xDE0B6B3A7640000 SWAP1 PUSH2 0x457 PUSH2 0xEFB JUMP JUMPDEST PUSH2 0x461 SWAP2 SWAP1 PUSH2 0x171E JUMP JUMPDEST PUSH1 0x1 PUSH1 0x1 PUSH1 0xA0 SHL SUB DUP6 AND PUSH1 0x0 SWAP1 DUP2 MSTORE PUSH1 0x7 PUSH1 0x20 MSTORE PUSH1 0x40 SWAP1 KECCAK256 SLOAD PUSH2 0x484 SWAP2 SWAP1 PUSH2 0x1731 JUMP JUMPDEST PUSH2 0x48E SWAP2 SWAP1 PUSH2 0x1748 JUMP JUMPDEST PUSH2 0x498 SWAP2 SWAP1 PUSH2 0x176A JUMP JUMPDEST SWAP3 SWAP2 POP POP JUMP JUMPDEST PUSH2 0x4A6 PUSH2 0x1412 JUMP JUMPDEST PUSH1 0x0 PUSH2 0x4B0 PUSH2 0xEFB JUMP JUMPDEST PUSH1 0x5 SSTORE PUSH2 0x4BB PUSH2 0xB84 JUMP JUMPDEST PUSH1 0x4 SSTORE PUSH1 0x1 PUSH1 0x1 PUSH1 0xA0 SHL SUB DUP2 AND ISZERO PUSH2 0x502 JUMPI PUSH2 0x4D6 DUP2 PUSH2 0x421 JUMP JUMPDEST PUSH1 0x1 PUSH1 0x1 PUSH1 0xA0 SHL SUB DUP3 AND PUSH1 0x0 SWAP1 DUP2 MSTORE PUSH1 0x9 PUSH1 0x20 SWAP1 DUP2 MSTORE PUSH1 0x40 DUP1 DUP4 KECCAK256 SWAP4 SWAP1 SWAP4 SSTORE PUSH1 0x5 SLOAD PUSH1 0x8 SWAP1 SWAP2 MSTORE SWAP2 SWAP1 KECCAK256 SSTORE JUMPDEST CALLER PUSH1 0x0 SWAP1 DUP2 MSTORE PUSH1 0xA PUSH1 0x20 MSTORE PUSH1 0x40 SWAP1 KECCAK256 SLOAD PUSH1 0xFF AND ISZERO DUP1 ISZERO PUSH2 0x52D JUMPI POP PUSH1 0x0 SLOAD PUSH1 0x1 PUSH1 0x1 PUSH1 0xA0 SHL SUB AND CALLER EQ ISZERO JUMPDEST ISZERO PUSH2 0x54B JUMPI PUSH1 0x40 MLOAD PUSH4 0x1648FD01 PUSH1 0xE0 SHL DUP2 MSTORE PUSH1 0x4 ADD PUSH1 0x40 MLOAD DUP1 SWAP2 SUB SWAP1 REVERT JUMPDEST DUP3 PUSH1 0x0 SUB PUSH2 0x56C JUMPI PUSH1 0x40 MLOAD PUSH4 0x1F2A2005 PUSH1 0xE0 SHL DUP2 MSTORE PUSH1 0x4 ADD PUSH1 0x40 MLOAD DUP1 SWAP2 SUB SWAP1 REVERT JUMPDEST DUP2 PUSH1 0x0 SUB PUSH2 0x58D JUMPI PUSH1 0x40 MLOAD PUSH4 0x1F2A2005 PUSH1 0xE0 SHL DUP2 MSTORE PUSH1 0x4 ADD PUSH1 0x40 MLOAD DUP1 SWAP2 SUB SWAP1 REVERT JUMPDEST PUSH2 0x5C2 PUSH1 0x1 PUSH1 0x1 PUSH1 0xA0 SHL SUB PUSH32 0x0 AND CALLER ADDRESS DUP7 PUSH2 0x142E JUMP JUMPDEST PUSH1 0x3 SLOAD TIMESTAMP LT ISZERO PUSH2 0x610 JUMPI PUSH1 0x0 TIMESTAMP PUSH1 0x3 SLOAD PUSH2 0x5DC SWAP2 SWAP1 PUSH2 0x171E JUMP JUMPDEST SWAP1 POP PUSH1 0x0 PUSH1 0x2 SLOAD DUP3 PUSH2 0x5EE SWAP2 SWAP1 PUSH2 0x1731 JUMP JUMPDEST SWAP1 POP DUP4 PUSH2 0x5FB DUP3 DUP8 PUSH2 0x176A JUMP JUMPDEST PUSH2 0x605 SWAP2 SWAP1 PUSH2 0x1748 JUMP JUMPDEST PUSH1 0x2 SSTORE POP PUSH2 0x61E SWAP1 POP JUMP JUMPDEST PUSH2 0x61A DUP3 DUP5 PUSH2 0x1748 JUMP JUMPDEST PUSH1 0x2 SSTORE JUMPDEST TIMESTAMP PUSH1 0x4 DUP2 SWAP1 SSTORE PUSH2 0x62F SWAP1 DUP4 SWAP1 PUSH2 0x176A JUMP JUMPDEST PUSH1 0x3 SSTORE PUSH1 0x40 DUP1 MLOAD DUP5 DUP2 MSTORE PUSH1 0x20 DUP2 ADD DUP5 SWAP1 MSTORE CALLER SWAP2 PUSH32 0x8A888EA653A580E40660778EE0C0DABD23A81E8E2C8DCFB938E40982A157D819 SWAP2 ADD PUSH1 0x40 MLOAD DUP1 SWAP2 SUB SWAP1 LOG2 POP PUSH2 0x685 PUSH1 0x1 PUSH1 0x0 DUP1 MLOAD PUSH1 0x20 PUSH2 0x1797 DUP4 CODECOPY DUP2 MLOAD SWAP2 MSTORE SSTORE JUMP JUMPDEST POP POP JUMP JUMPDEST PUSH2 0x691 PUSH2 0x146A JUMP JUMPDEST PUSH1 0x1 PUSH1 0x1 PUSH1 0xA0 SHL SUB DUP3 AND PUSH2 0x6B8 JUMPI PUSH1 0x40 MLOAD PUSH4 0xD92E233D PUSH1 0xE0 SHL DUP2 MSTORE PUSH1 0x4 ADD PUSH1 0x40 MLOAD DUP1 SWAP2 SUB SWAP1 REVERT JUMPDEST PUSH1 0x1 PUSH1 0x1 PUSH1 0xA0 SHL SUB DUP3 AND PUSH1 0x0 DUP2 DUP2 MSTORE PUSH1 0xA PUSH1 0x20 SWAP1 DUP2 MSTORE PUSH1 0x40 SWAP2 DUP3 SWAP1 KECCAK256 DUP1 SLOAD PUSH1 0xFF NOT AND DUP6 ISZERO ISZERO SWAP1 DUP2 OR SWAP1 SWAP2 SSTORE SWAP2 MLOAD SWAP2 DUP3 MSTORE PUSH32 0xB33CA1DABFB28A2E1BD06B332C396B1A3D538278691341A5503BBAD53F919197 SWAP2 ADD PUSH1 0x40 MLOAD DUP1 SWAP2 SUB SWAP1 LOG2 POP POP JUMP JUMPDEST PUSH2 0x71F PUSH2 0x1412 JUMP JUMPDEST PUSH1 0xB SLOAD PUSH1 0xFF AND ISZERO PUSH2 0x743 JUMPI PUSH1 0x40 MLOAD PUSH4 0xAB35696F PUSH1 0xE0 SHL DUP2 MSTORE PUSH1 0x4 ADD PUSH1 0x40 MLOAD DUP1 SWAP2 SUB SWAP1 REVERT JUMPDEST CALLER PUSH2 0x74C PUSH2 0xEFB JUMP JUMPDEST PUSH1 0x5 SSTORE PUSH2 0x757 PUSH2 0xB84 JUMP JUMPDEST PUSH1 0x4 SSTORE PUSH1 0x1 PUSH1 0x1 PUSH1 0xA0 SHL SUB DUP2 AND ISZERO PUSH2 0x79E JUMPI PUSH2 0x772 DUP2 PUSH2 0x421 JUMP JUMPDEST PUSH1 0x1 PUSH1 0x1 PUSH1 0xA0 SHL SUB DUP3 AND PUSH1 0x0 SWAP1 DUP2 MSTORE PUSH1 0x9 PUSH1 0x20 SWAP1 DUP2 MSTORE PUSH1 0x40 DUP1 DUP4 KECCAK256 SWAP4 SWAP1 SWAP4 SSTORE PUSH1 0x5 SLOAD PUSH1 0x8 SWAP1 SWAP2 MSTORE SWAP2 SWAP1 KECCAK256 SSTORE JUMPDEST DUP2 PUSH1 0x0 SUB PUSH2 0x7BF JUMPI PUSH1 0x40 MLOAD PUSH4 0x1F2A2005 PUSH1 0xE0 SHL DUP2 MSTORE PUSH1 0x4 ADD PUSH1 0x40 MLOAD DUP1 SWAP2 SUB SWAP1 REVERT JUMPDEST CALLER PUSH1 0x0 SWAP1 DUP2 MSTORE PUSH1 0x7 PUSH1 0x20 MSTORE PUSH1 0x40 SWAP1 KECCAK256 SLOAD DUP3 GT ISZERO PUSH2 0x814 JUMPI CALLER PUSH1 0x0 SWAP1 DUP2 MSTORE PUSH1 0x7 PUSH1 0x20 MSTORE PUSH1 0x40 SWAP1 DUP2 SWAP1 KECCAK256 SLOAD SWAP1 MLOAD PUSH4 0x22DF0513 PUSH1 0xE1 SHL DUP2 MSTORE PUSH2 0x80B SWAP2 DUP5 SWAP2 PUSH1 0x4 ADD SWAP2 DUP3 MSTORE PUSH1 0x20 DUP3 ADD MSTORE PUSH1 0x40 ADD SWAP1 JUMP JUMPDEST PUSH1 0x40 MLOAD DUP1 SWAP2 SUB SWAP1 REVERT JUMPDEST CALLER PUSH1 0x0 SWAP1 DUP2 MSTORE PUSH1 0x7 PUSH1 0x20 MSTORE PUSH1 0x40 DUP2 KECCAK256 DUP1 SLOAD DUP5 SWAP3 SWAP1 PUSH2 0x833 SWAP1 DUP5 SWAP1 PUSH2 0x171E JUMP JUMPDEST SWAP3 POP POP DUP2 SWAP1 SSTORE POP DUP2 PUSH1 0x6 PUSH1 0x0 DUP3 DUP3 SLOAD PUSH2 0x84C SWAP2 SWAP1 PUSH2 0x171E JUMP JUMPDEST SWAP1 SWAP2 SSTORE POP PUSH2 0x886 SWAP1 POP PUSH1 0x1 PUSH1 0x1 PUSH1 0xA0 SHL SUB PUSH32 0x0 AND CALLER DUP5 PUSH2 0x1497 JUMP JUMPDEST PUSH1 0x40 MLOAD DUP3 DUP2 MSTORE CALLER SWAP1 PUSH32 0xF5BB82176FEB1B5E747E28471AA92156A04D9F3AB9F45F28E2D704232B93F75 SWAP1 PUSH1 0x20 ADD JUMPDEST PUSH1 0x40 MLOAD DUP1 SWAP2 SUB SWAP1 LOG2 POP PUSH2 0x8D4 PUSH1 0x1 PUSH1 0x0 DUP1 MLOAD PUSH1 0x20 PUSH2 0x1797 DUP4 CODECOPY DUP2 MLOAD SWAP2 MSTORE SSTORE JUMP JUMPDEST POP JUMP JUMPDEST PUSH2 0x8DF PUSH2 0x1412 JUMP JUMPDEST PUSH1 0xB SLOAD PUSH1 0xFF AND ISZERO PUSH2 0x903 JUMPI PUSH1 0x40 MLOAD PUSH4 0xAB35696F PUSH1 0xE0 SHL DUP2 MSTORE PUSH1 0x4 ADD PUSH1 0x40 MLOAD DUP1 SWAP2 SUB SWAP1 REVERT JUMPDEST CALLER PUSH2 0x90C PUSH2 0xEFB JUMP JUMPDEST PUSH1 0x5 SSTORE PUSH2 0x917 PUSH2 0xB84 JUMP JUMPDEST PUSH1 0x4 SSTORE PUSH1 0x1 PUSH1 0x1 PUSH1 0xA0 SHL SUB DUP2 AND ISZERO PUSH2 0x95E JUMPI PUSH2 0x932 DUP2 PUSH2 0x421 JUMP JUMPDEST PUSH1 0x1 PUSH1 0x1 PUSH1 0xA0 SHL SUB DUP3 AND PUSH1 0x0 SWAP1 DUP2 MSTORE PUSH1 0x9 PUSH1 0x20 SWAP1 DUP2 MSTORE PUSH1 0x40 DUP1 DUP4 KECCAK256 SWAP4 SWAP1 SWAP4 SSTORE PUSH1 0x5 SLOAD PUSH1 0x8 SWAP1 SWAP2 MSTORE SWAP2 SWAP1 KECCAK256 SSTORE JUMPDEST CALLER PUSH1 0x0 SWAP1 DUP2 MSTORE PUSH1 0x9 PUSH1 0x20 MSTORE PUSH1 0x40 DUP2 KECCAK256 SLOAD SWAP1 DUP2 SWAP1 SUB PUSH2 0x98F JUMPI PUSH1 0x40 MLOAD PUSH4 0x5B8F50BF PUSH1 0xE1 SHL DUP2 MSTORE PUSH1 0x4 ADD PUSH1 0x40 MLOAD DUP1 SWAP2 SUB SWAP1 REVERT JUMPDEST PUSH1 0x6 SLOAD PUSH1 0x40 MLOAD PUSH4 0x70A08231 PUSH1 0xE0 SHL DUP2 MSTORE ADDRESS PUSH1 0x4 DUP3 ADD MSTORE PUSH1 0x0 SWAP2 SWAP1 PUSH1 0x1 PUSH1 0x1 PUSH1 0xA0 SHL SUB PUSH32 0x0 AND SWAP1 PUSH4 0x70A08231 SWAP1 PUSH1 0x24 ADD PUSH1 0x20 PUSH1 0x40 MLOAD DUP1 DUP4 SUB DUP2 DUP7 GAS STATICCALL ISZERO DUP1 ISZERO PUSH2 0x9FA JUMPI RETURNDATASIZE PUSH1 0x0 DUP1 RETURNDATACOPY RETURNDATASIZE PUSH1 0x0 REVERT JUMPDEST POP POP POP POP PUSH1 0x40 MLOAD RETURNDATASIZE PUSH1 0x1F NOT PUSH1 0x1F DUP3 ADD AND DUP3 ADD DUP1 PUSH1 0x40 MSTORE POP DUP2 ADD SWAP1 PUSH2 0xA1E SWAP2 SWAP1 PUSH2 0x177D JUMP JUMPDEST PUSH2 0xA28 SWAP2 SWAP1 PUSH2 0x171E JUMP JUMPDEST SWAP1 POP DUP1 DUP3 GT ISZERO PUSH2 0xA55 JUMPI PUSH1 0x40 MLOAD PUSH4 0x65AC9D43 PUSH1 0xE0 SHL DUP2 MSTORE PUSH1 0x4 DUP2 ADD DUP4 SWAP1 MSTORE PUSH1 0x24 DUP2 ADD DUP3 SWAP1 MSTORE PUSH1 0x44 ADD PUSH2 0x80B JUMP JUMPDEST CALLER PUSH1 0x0 DUP2 DUP2 MSTORE PUSH1 0x9 PUSH1 0x20 MSTORE PUSH1 0x40 DUP2 KECCAK256 SSTORE PUSH2 0xA9A SWAP1 PUSH32 0x0 PUSH1 0x1 PUSH1 0x1 PUSH1 0xA0 SHL SUB AND SWAP1 DUP5 PUSH2 0x1497 JUMP JUMPDEST PUSH1 0x40 MLOAD DUP3 DUP2 MSTORE CALLER SWAP1 PUSH32 0xFC30CDDEA38E2BF4D6EA7D3F9ED3B6AD7F176419F4963BD81318067A4AEE73FE SWAP1 PUSH1 0x20 ADD PUSH1 0x40 MLOAD DUP1 SWAP2 SUB SWAP1 LOG2 POP POP POP PUSH2 0xAE9 PUSH1 0x1 PUSH1 0x0 DUP1 MLOAD PUSH1 0x20 PUSH2 0x1797 DUP4 CODECOPY DUP2 MLOAD SWAP2 MSTORE SSTORE JUMP JUMPDEST JUMP JUMPDEST PUSH2 0xAF3 PUSH2 0x146A JUMP JUMPDEST PUSH1 0xB DUP1 SLOAD PUSH1 0xFF NOT AND SWAP1 SSTORE PUSH1 0x40 MLOAD CALLER SWAP1 PUSH32 0x5DB9EE0A495BF2E6FF9C91A7834C1BA4FDD244A5E8AA4E537BD38AEAE4B073AA SWAP1 PUSH1 0x0 SWAP1 LOG2 JUMP JUMPDEST PUSH1 0x0 PUSH1 0x6 SLOAD PUSH1 0x0 SUB PUSH2 0xB3C JUMPI POP PUSH1 0x0 SWAP1 JUMP JUMPDEST PUSH1 0x0 PUSH1 0x2 SLOAD PUSH4 0x1E13380 PUSH2 0xB50 SWAP2 SWAP1 PUSH2 0x1731 JUMP JUMPDEST PUSH1 0x6 SLOAD SWAP1 SWAP2 POP PUSH2 0xB62 DUP3 PUSH2 0x2710 PUSH2 0x1731 JUMP JUMPDEST PUSH2 0xB6C SWAP2 SWAP1 PUSH2 0x1748 JUMP JUMPDEST SWAP2 POP POP SWAP1 JUMP JUMPDEST PUSH2 0xB7A PUSH2 0x146A JUMP JUMPDEST PUSH2 0xAE9 PUSH1 0x0 PUSH2 0x14D1 JUMP JUMPDEST PUSH1 0x0 PUSH1 0x3 SLOAD TIMESTAMP LT PUSH2 0xB96 JUMPI POP PUSH1 0x3 SLOAD SWAP1 JUMP JUMPDEST TIMESTAMP JUMPDEST SWAP1 POP SWAP1 JUMP JUMPDEST PUSH2 0xBA5 PUSH2 0x146A JUMP JUMPDEST PUSH1 0xB DUP1 SLOAD PUSH1 0xFF NOT AND PUSH1 0x1 OR SWAP1 SSTORE PUSH1 0x40 MLOAD CALLER SWAP1 PUSH32 0x62E78CEA01BEE320CD4E420270B5EA74000D11B0C9F74754EBDBFC544B05A258 SWAP1 PUSH1 0x0 SWAP1 LOG2 JUMP JUMPDEST PUSH2 0xBE7 PUSH2 0x146A JUMP JUMPDEST PUSH32 0x0 PUSH1 0x1 PUSH1 0x1 PUSH1 0xA0 SHL SUB AND DUP3 PUSH1 0x1 PUSH1 0x1 PUSH1 0xA0 SHL SUB AND SUB PUSH2 0xCE8 JUMPI PUSH1 0x6 SLOAD PUSH1 0x40 MLOAD PUSH4 0x70A08231 PUSH1 0xE0 SHL DUP2 MSTORE ADDRESS PUSH1 0x4 DUP3 ADD MSTORE PUSH1 0x0 SWAP2 SWAP1 PUSH1 0x1 PUSH1 0x1 PUSH1 0xA0 SHL SUB PUSH32 0x0 AND SWAP1 PUSH4 0x70A08231 SWAP1 PUSH1 0x24 ADD PUSH1 0x20 PUSH1 0x40 MLOAD DUP1 DUP4 SUB DUP2 DUP7 GAS STATICCALL ISZERO DUP1 ISZERO PUSH2 0xC8B JUMPI RETURNDATASIZE PUSH1 0x0 DUP1 RETURNDATACOPY RETURNDATASIZE PUSH1 0x0 REVERT JUMPDEST POP POP POP POP PUSH1 0x40 MLOAD RETURNDATASIZE PUSH1 0x1F NOT PUSH1 0x1F DUP3 ADD AND DUP3 ADD DUP1 PUSH1 0x40 MSTORE POP DUP2 ADD SWAP1 PUSH2 0xCAF SWAP2 SWAP1 PUSH2 0x177D JUMP JUMPDEST PUSH2 0xCB9 SWAP2 SWAP1 PUSH2 0x171E JUMP JUMPDEST SWAP1 POP DUP1 DUP3 GT ISZERO PUSH2 0xCE6 JUMPI PUSH1 0x40 MLOAD PUSH4 0x65AC9D43 PUSH1 0xE0 SHL DUP2 MSTORE PUSH1 0x4 DUP2 ADD DUP4 SWAP1 MSTORE PUSH1 0x24 DUP2 ADD DUP3 SWAP1 MSTORE PUSH1 0x44 ADD PUSH2 0x80B JUMP JUMPDEST POP JUMPDEST PUSH2 0x685 PUSH2 0xCFD PUSH1 0x0 SLOAD PUSH1 0x1 PUSH1 0x1 PUSH1 0xA0 SHL SUB AND SWAP1 JUMP JUMPDEST PUSH1 0x1 PUSH1 0x1 PUSH1 0xA0 SHL SUB DUP5 AND SWAP1 DUP4 PUSH2 0x1497 JUMP JUMPDEST PUSH2 0xD16 PUSH2 0x146A JUMP JUMPDEST PUSH1 0x0 PUSH2 0xD20 PUSH2 0xEFB JUMP JUMPDEST PUSH1 0x5 SSTORE PUSH2 0xD2B PUSH2 0xB84 JUMP JUMPDEST PUSH1 0x4 SSTORE PUSH1 0x1 PUSH1 0x1 PUSH1 0xA0 SHL SUB DUP2 AND ISZERO PUSH2 0xD72 JUMPI PUSH2 0xD46 DUP2 PUSH2 0x421 JUMP JUMPDEST PUSH1 0x1 PUSH1 0x1 PUSH1 0xA0 SHL SUB DUP3 AND PUSH1 0x0 SWAP1 DUP2 MSTORE PUSH1 0x9 PUSH1 0x20 SWAP1 DUP2 MSTORE PUSH1 0x40 DUP1 DUP4 KECCAK256 SWAP4 SWAP1 SWAP4 SSTORE PUSH1 0x5 SLOAD PUSH1 0x8 SWAP1 SWAP2 MSTORE SWAP2 SWAP1 KECCAK256 SSTORE JUMPDEST PUSH1 0x2 DUP3 SWAP1 SSTORE PUSH1 0x40 MLOAD DUP3 DUP2 MSTORE PUSH32 0x8CBFAFC8E0D9C5C81401C4B9C6E7D201198ADC7EB8F8F1556C195ECD4C0A0E7B SWAP1 PUSH1 0x20 ADD PUSH1 0x40 MLOAD DUP1 SWAP2 SUB SWAP1 LOG1 POP POP JUMP JUMPDEST PUSH2 0xDB6 PUSH2 0x1412 JUMP JUMPDEST PUSH1 0xB SLOAD PUSH1 0xFF AND ISZERO PUSH2 0xDDA JUMPI PUSH1 0x40 MLOAD PUSH4 0xAB35696F PUSH1 0xE0 SHL DUP2 MSTORE PUSH1 0x4 ADD PUSH1 0x40 MLOAD DUP1 SWAP2 SUB SWAP1 REVERT JUMPDEST CALLER PUSH2 0xDE3 PUSH2 0xEFB JUMP JUMPDEST PUSH1 0x5 SSTORE PUSH2 0xDEE PUSH2 0xB84 JUMP JUMPDEST PUSH1 0x4 SSTORE PUSH1 0x1 PUSH1 0x1 PUSH1 0xA0 SHL SUB DUP2 AND ISZERO PUSH2 0xE35 JUMPI PUSH2 0xE09 DUP2 PUSH2 0x421 JUMP JUMPDEST PUSH1 0x1 PUSH1 0x1 PUSH1 0xA0 SHL SUB DUP3 AND PUSH1 0x0 SWAP1 DUP2 MSTORE PUSH1 0x9 PUSH1 0x20 SWAP1 DUP2 MSTORE PUSH1 0x40 DUP1 DUP4 KECCAK256 SWAP4 SWAP1 SWAP4 SSTORE PUSH1 0x5 SLOAD PUSH1 0x8 SWAP1 SWAP2 MSTORE SWAP2 SWAP1 KECCAK256 SSTORE JUMPDEST DUP2 PUSH1 0x0 SUB PUSH2 0xE56 JUMPI PUSH1 0x40 MLOAD PUSH4 0x1F2A2005 PUSH1 0xE0 SHL DUP2 MSTORE PUSH1 0x4 ADD PUSH1 0x40 MLOAD DUP1 SWAP2 SUB SWAP1 REVERT JUMPDEST CALLER PUSH1 0x0 SWAP1 DUP2 MSTORE PUSH1 0x7 PUSH1 0x20 MSTORE PUSH1 0x40 DUP2 KECCAK256 DUP1 SLOAD DUP5 SWAP3 SWAP1 PUSH2 0xE75 SWAP1 DUP5 SWAP1 PUSH2 0x176A JUMP JUMPDEST SWAP3 POP POP DUP2 SWAP1 SSTORE POP DUP2 PUSH1 0x6 PUSH1 0x0 DUP3 DUP3 SLOAD PUSH2 0xE8E SWAP2 SWAP1 PUSH2 0x176A JUMP JUMPDEST SWAP1 SWAP2 SSTORE POP PUSH2 0xEC9 SWAP1 POP PUSH1 0x1 PUSH1 0x1 PUSH1 0xA0 SHL SUB PUSH32 0x0 AND CALLER ADDRESS DUP6 PUSH2 0x142E JUMP JUMPDEST PUSH1 0x40 MLOAD DUP3 DUP2 MSTORE CALLER SWAP1 PUSH32 0x9E71BC8EEA02A63969F509818F2DAFB9254532904319F9DBDA79B67BD34A5F3D SWAP1 PUSH1 0x20 ADD PUSH2 0x8B4 JUMP JUMPDEST PUSH1 0x0 PUSH1 0x6 SLOAD PUSH1 0x0 SUB PUSH2 0xF0E JUMPI POP PUSH1 0x5 SLOAD SWAP1 JUMP JUMPDEST PUSH1 0x6 SLOAD PUSH1 0x2 SLOAD PUSH1 0x4 SLOAD PUSH2 0xF1F PUSH2 0xB84 JUMP JUMPDEST PUSH2 0xF29 SWAP2 SWAP1 PUSH2 0x171E JUMP JUMPDEST PUSH2 0xF33 SWAP2 SWAP1 PUSH2 0x1731 JUMP JUMPDEST PUSH2 0xF45 SWAP1 PUSH8 0xDE0B6B3A7640000 PUSH2 0x1731 JUMP JUMPDEST PUSH2 0xF4F SWAP2 SWAP1 PUSH2 0x1748 JUMP JUMPDEST PUSH1 0x5 SLOAD PUSH2 0xB98 SWAP2 SWAP1 PUSH2 0x176A JUMP JUMPDEST PUSH2 0xF64 PUSH2 0x1412 JUMP JUMPDEST CALLER PUSH1 0x0 SWAP1 DUP2 MSTORE PUSH1 0x7 PUSH1 0x20 MSTORE PUSH1 0x40 DUP2 KECCAK256 SLOAD SWAP1 DUP2 SWAP1 SUB PUSH2 0xF95 JUMPI PUSH1 0x40 MLOAD PUSH4 0x1F2A2005 PUSH1 0xE0 SHL DUP2 MSTORE PUSH1 0x4 ADD PUSH1 0x40 MLOAD DUP1 SWAP2 SUB SWAP1 REVERT JUMPDEST CALLER PUSH1 0x0 SWAP1 DUP2 MSTORE PUSH1 0x7 PUSH1 0x20 SWAP1 DUP2 MSTORE PUSH1 0x40 DUP1 DUP4 KECCAK256 DUP4 SWAP1 SSTORE PUSH1 0x9 DUP3 MSTORE DUP1 DUP4 KECCAK256 DUP4 SWAP1 SSTORE PUSH1 0x8 SWAP1 SWAP2 MSTORE DUP2 KECCAK256 DUP2 SWAP1 SSTORE PUSH1 0x6 DUP1 SLOAD DUP4 SWAP3 SWAP1 PUSH2 0xFD0 SWAP1 DUP5 SWAP1 PUSH2 0x171E JUMP JUMPDEST SWAP1 SWAP2 SSTORE POP PUSH2 0x100A SWAP1 POP PUSH1 0x1 PUSH1 0x1 PUSH1 0xA0 SHL SUB PUSH32 0x0 AND CALLER DUP4 PUSH2 0x1497 JUMP JUMPDEST PUSH1 0x40 MLOAD DUP2 DUP2 MSTORE CALLER SWAP1 PUSH32 0x5FAFA99D0643513820BE26656B45130B01E1C03062E1266BF36F88CBD3BD9695 SWAP1 PUSH1 0x20 ADD PUSH1 0x40 MLOAD DUP1 SWAP2 SUB SWAP1 LOG2 POP PUSH2 0xAE9 PUSH1 0x1 PUSH1 0x0 DUP1 MLOAD PUSH1 0x20 PUSH2 0x1797 DUP4 CODECOPY DUP2 MLOAD SWAP2 MSTORE SSTORE JUMP JUMPDEST PUSH2 0x105F PUSH2 0x1412 JUMP JUMPDEST PUSH1 0xB SLOAD PUSH1 0xFF AND ISZERO PUSH2 0x1083 JUMPI PUSH1 0x40 MLOAD PUSH4 0xAB35696F PUSH1 0xE0 SHL DUP2 MSTORE PUSH1 0x4 ADD PUSH1 0x40 MLOAD DUP1 SWAP2 SUB SWAP1 REVERT JUMPDEST CALLER PUSH2 0x108C PUSH2 0xEFB JUMP JUMPDEST PUSH1 0x5 SSTORE PUSH2 0x1097 PUSH2 0xB84 JUMP JUMPDEST PUSH1 0x4 SSTORE PUSH1 0x1 PUSH1 0x1 PUSH1 0xA0 SHL SUB DUP2 AND ISZERO PUSH2 0x10DE JUMPI PUSH2 0x10B2 DUP2 PUSH2 0x421 JUMP JUMPDEST PUSH1 0x1 PUSH1 0x1 PUSH1 0xA0 SHL SUB DUP3 AND PUSH1 0x0 SWAP1 DUP2 MSTORE PUSH1 0x9 PUSH1 0x20 SWAP1 DUP2 MSTORE PUSH1 0x40 DUP1 DUP4 KECCAK256 SWAP4 SWAP1 SWAP4 SSTORE PUSH1 0x5 SLOAD PUSH1 0x8 SWAP1 SWAP2 MSTORE SWAP2 SWAP1 KECCAK256 SSTORE JUMPDEST CALLER PUSH1 0x0 SWAP1 DUP2 MSTORE PUSH1 0x7 PUSH1 0x20 SWAP1 DUP2 MSTORE PUSH1 0x40 DUP1 DUP4 KECCAK256 SLOAD PUSH1 0x9 SWAP1 SWAP3 MSTORE SWAP1 SWAP2 KECCAK256 SLOAD DUP2 ISZERO PUSH2 0x1194 JUMPI CALLER PUSH1 0x0 SWAP1 DUP2 MSTORE PUSH1 0x7 PUSH1 0x20 MSTORE PUSH1 0x40 DUP2 KECCAK256 DUP2 SWAP1 SSTORE PUSH1 0x6 DUP1 SLOAD DUP5 SWAP3 SWAP1 PUSH2 0x1124 SWAP1 DUP5 SWAP1 PUSH2 0x171E JUMP JUMPDEST SWAP1 SWAP2 SSTORE POP PUSH2 0x115E SWAP1 POP PUSH1 0x1 PUSH1 0x1 PUSH1 0xA0 SHL SUB PUSH32 0x0 AND CALLER DUP5 PUSH2 0x1497 JUMP JUMPDEST PUSH1 0x40 MLOAD DUP3 DUP2 MSTORE CALLER SWAP1 PUSH32 0xF5BB82176FEB1B5E747E28471AA92156A04D9F3AB9F45F28E2D704232B93F75 SWAP1 PUSH1 0x20 ADD PUSH1 0x40 MLOAD DUP1 SWAP2 SUB SWAP1 LOG2 JUMPDEST DUP1 ISZERO PUSH2 0x12B9 JUMPI PUSH1 0x6 SLOAD PUSH1 0x40 MLOAD PUSH4 0x70A08231 PUSH1 0xE0 SHL DUP2 MSTORE ADDRESS PUSH1 0x4 DUP3 ADD MSTORE PUSH1 0x0 SWAP2 SWAP1 PUSH1 0x1 PUSH1 0x1 PUSH1 0xA0 SHL SUB PUSH32 0x0 AND SWAP1 PUSH4 0x70A08231 SWAP1 PUSH1 0x24 ADD PUSH1 0x20 PUSH1 0x40 MLOAD DUP1 DUP4 SUB DUP2 DUP7 GAS STATICCALL ISZERO DUP1 ISZERO PUSH2 0x1205 JUMPI RETURNDATASIZE PUSH1 0x0 DUP1 RETURNDATACOPY RETURNDATASIZE PUSH1 0x0 REVERT JUMPDEST POP POP POP POP PUSH1 0x40 MLOAD RETURNDATASIZE PUSH1 0x1F NOT PUSH1 0x1F DUP3 ADD AND DUP3 ADD DUP1 PUSH1 0x40 MSTORE POP DUP2 ADD SWAP1 PUSH2 0x1229 SWAP2 SWAP1 PUSH2 0x177D JUMP JUMPDEST PUSH2 0x1233 SWAP2 SWAP1 PUSH2 0x171E JUMP JUMPDEST SWAP1 POP DUP1 DUP3 GT PUSH2 0x12B7 JUMPI CALLER PUSH1 0x0 DUP2 DUP2 MSTORE PUSH1 0x9 PUSH1 0x20 MSTORE PUSH1 0x40 DUP2 KECCAK256 SSTORE PUSH2 0x1281 SWAP1 PUSH32 0x0 PUSH1 0x1 PUSH1 0x1 PUSH1 0xA0 SHL SUB AND SWAP1 DUP5 PUSH2 0x1497 JUMP JUMPDEST PUSH1 0x40 MLOAD DUP3 DUP2 MSTORE CALLER SWAP1 PUSH32 0xFC30CDDEA38E2BF4D6EA7D3F9ED3B6AD7F176419F4963BD81318067A4AEE73FE SWAP1 PUSH1 0x20 ADD PUSH1 0x40 MLOAD DUP1 SWAP2 SUB SWAP1 LOG2 JUMPDEST POP JUMPDEST POP POP POP PUSH2 0xAE9 PUSH1 0x1 PUSH1 0x0 DUP1 MLOAD PUSH1 0x20 PUSH2 0x1797 DUP4 CODECOPY DUP2 MLOAD SWAP2 MSTORE SSTORE JUMP JUMPDEST PUSH2 0x12DB PUSH2 0x146A JUMP JUMPDEST PUSH1 0x1 PUSH1 0x1 PUSH1 0xA0 SHL SUB DUP2 AND PUSH2 0x1302 JUMPI PUSH1 0x40 MLOAD PUSH4 0xD92E233D PUSH1 0xE0 SHL DUP2 MSTORE PUSH1 0x4 ADD PUSH1 0x40 MLOAD DUP1 SWAP2 SUB SWAP1 REVERT JUMPDEST PUSH1 0x1 SLOAD PUSH1 0x1 PUSH1 0x1 PUSH1 0xA0 SHL SUB AND ISZERO PUSH2 0x1336 JUMPI PUSH1 0x1 SLOAD PUSH1 0x1 PUSH1 0x1 PUSH1 0xA0 SHL SUB AND PUSH1 0x0 SWAP1 DUP2 MSTORE PUSH1 0xA PUSH1 0x20 MSTORE PUSH1 0x40 SWAP1 KECCAK256 DUP1 SLOAD PUSH1 0xFF NOT AND SWAP1 SSTORE JUMPDEST PUSH1 0x1 DUP1 SLOAD PUSH1 0x1 PUSH1 0x1 PUSH1 0xA0 SHL SUB NOT AND PUSH1 0x1 PUSH1 0x1 PUSH1 0xA0 SHL SUB DUP4 AND SWAP1 DUP2 OR DUP3 SSTORE PUSH1 0x0 DUP2 DUP2 MSTORE PUSH1 0xA PUSH1 0x20 MSTORE PUSH1 0x40 DUP1 DUP3 KECCAK256 DUP1 SLOAD PUSH1 0xFF NOT AND SWAP1 SWAP5 OR SWAP1 SWAP4 SSTORE SWAP2 MLOAD SWAP1 SWAP2 PUSH32 0x3C864541EF71378C6229510ED90F376565EE42D9C5E0904A984A9E863E6DB44F SWAP2 LOG2 PUSH1 0x40 MLOAD PUSH1 0x1 DUP2 MSTORE PUSH1 0x1 PUSH1 0x1 PUSH1 0xA0 SHL SUB DUP3 AND SWAP1 PUSH32 0xB33CA1DABFB28A2E1BD06B332C396B1A3D538278691341A5503BBAD53F919197 SWAP1 PUSH1 0x20 ADD PUSH1 0x40 MLOAD DUP1 SWAP2 SUB SWAP1 LOG2 POP JUMP JUMPDEST PUSH2 0x13DF PUSH2 0x146A JUMP JUMPDEST PUSH1 0x1 PUSH1 0x1 PUSH1 0xA0 SHL SUB DUP2 AND PUSH2 0x1409 JUMPI PUSH1 0x40 MLOAD PUSH4 0x1E4FBDF7 PUSH1 0xE0 SHL DUP2 MSTORE PUSH1 0x0 PUSH1 0x4 DUP3 ADD MSTORE PUSH1 0x24 ADD PUSH2 0x80B JUMP JUMPDEST PUSH2 0x8D4 DUP2 PUSH2 0x14D1 JUMP JUMPDEST PUSH2 0x141A PUSH2 0x1521 JUMP JUMPDEST PUSH1 0x2 PUSH1 0x0 DUP1 MLOAD PUSH1 0x20 PUSH2 0x1797 DUP4 CODECOPY DUP2 MLOAD SWAP2 MSTORE SSTORE JUMP JUMPDEST PUSH2 0x143C DUP5 DUP5 DUP5 DUP5 PUSH1 0x1 PUSH2 0x1551 JUMP JUMPDEST PUSH2 0x1464 JUMPI PUSH1 0x40 MLOAD PUSH4 0x5274AFE7 PUSH1 0xE0 SHL DUP2 MSTORE PUSH1 0x1 PUSH1 0x1 PUSH1 0xA0 SHL SUB DUP6 AND PUSH1 0x4 DUP3 ADD MSTORE PUSH1 0x24 ADD PUSH2 0x80B JUMP JUMPDEST POP POP POP POP JUMP JUMPDEST PUSH1 0x0 SLOAD PUSH1 0x1 PUSH1 0x1 PUSH1 0xA0 SHL SUB AND CALLER EQ PUSH2 0xAE9 JUMPI PUSH1 0x40 MLOAD PUSH4 0x118CDAA7 PUSH1 0xE0 SHL DUP2 MSTORE CALLER PUSH1 0x4 DUP3 ADD MSTORE PUSH1 0x24 ADD PUSH2 0x80B JUMP JUMPDEST PUSH2 0x14A4 DUP4 DUP4 DUP4 PUSH1 0x1 PUSH2 0x15C3 JUMP JUMPDEST PUSH2 0x14CC JUMPI PUSH1 0x40 MLOAD PUSH4 0x5274AFE7 PUSH1 0xE0 SHL DUP2 MSTORE PUSH1 0x1 PUSH1 0x1 PUSH1 0xA0 SHL SUB DUP5 AND PUSH1 0x4 DUP3 ADD MSTORE PUSH1 0x24 ADD PUSH2 0x80B JUMP JUMPDEST POP POP POP JUMP JUMPDEST PUSH1 0x0 DUP1 SLOAD PUSH1 0x1 PUSH1 0x1 PUSH1 0xA0 SHL SUB DUP4 DUP2 AND PUSH1 0x1 PUSH1 0x1 PUSH1 0xA0 SHL SUB NOT DUP4 AND DUP2 OR DUP5 SSTORE PUSH1 0x40 MLOAD SWAP2 SWAP1 SWAP3 AND SWAP3 DUP4 SWAP2 PUSH32 0x8BE0079C531659141344CD1FD0A4F28419497F9722A3DAAFE3B4186F6B6457E0 SWAP2 SWAP1 LOG3 POP POP JUMP JUMPDEST PUSH1 0x0 DUP1 MLOAD PUSH1 0x20 PUSH2 0x1797 DUP4 CODECOPY DUP2 MLOAD SWAP2 MSTORE SLOAD PUSH1 0x2 SUB PUSH2 0xAE9 JUMPI PUSH1 0x40 MLOAD PUSH4 0x3EE5AEB5 PUSH1 0xE0 SHL DUP2 MSTORE PUSH1 0x4 ADD PUSH1 0x40 MLOAD DUP1 SWAP2 SUB SWAP1 REVERT JUMPDEST PUSH1 0x40 MLOAD PUSH4 0x23B872DD PUSH1 0xE0 SHL PUSH1 0x0 DUP2 DUP2 MSTORE PUSH1 0x1 PUSH1 0x1 PUSH1 0xA0 SHL SUB DUP8 DUP2 AND PUSH1 0x4 MSTORE DUP7 AND PUSH1 0x24 MSTORE PUSH1 0x44 DUP6 SWAP1 MSTORE SWAP2 PUSH1 0x20 DUP4 PUSH1 0x64 DUP2 DUP1 DUP13 GAS CALL SWAP3 POP PUSH1 0x1 PUSH1 0x0 MLOAD EQ DUP4 AND PUSH2 0x15B1 JUMPI DUP4 DUP4 ISZERO AND ISZERO PUSH2 0x15A4 JUMPI RETURNDATASIZE PUSH1 0x0 DUP3 RETURNDATACOPY RETURNDATASIZE DUP2 REVERT JUMPDEST PUSH1 0x0 DUP9 EXTCODESIZE GT RETURNDATASIZE ISZERO AND DUP4 AND SWAP3 POP JUMPDEST PUSH1 0x40 MSTORE POP PUSH1 0x0 PUSH1 0x60 MSTORE SWAP6 SWAP5 POP POP POP POP POP JUMP JUMPDEST PUSH1 0x40 MLOAD PUSH4 0xA9059CBB PUSH1 0xE0 SHL PUSH1 0x0 DUP2 DUP2 MSTORE PUSH1 0x1 PUSH1 0x1 PUSH1 0xA0 SHL SUB DUP7 AND PUSH1 0x4 MSTORE PUSH1 0x24 DUP6 SWAP1 MSTORE SWAP2 PUSH1 0x20 DUP4 PUSH1 0x44 DUP2 DUP1 DUP12 GAS CALL SWAP3 POP PUSH1 0x1 PUSH1 0x0 MLOAD EQ DUP4 AND PUSH2 0x161D JUMPI DUP4 DUP4 ISZERO AND ISZERO PUSH2 0x1610 JUMPI RETURNDATASIZE PUSH1 0x0 DUP3 RETURNDATACOPY RETURNDATASIZE DUP2 REVERT JUMPDEST PUSH1 0x0 DUP8 EXTCODESIZE GT RETURNDATASIZE ISZERO AND DUP4 AND SWAP3 POP JUMPDEST PUSH1 0x40 MSTORE POP SWAP5 SWAP4 POP POP POP POP JUMP JUMPDEST DUP1 CALLDATALOAD PUSH1 0x1 PUSH1 0x1 PUSH1 0xA0 SHL SUB DUP2 AND DUP2 EQ PUSH2 0x1640 JUMPI PUSH1 0x0 DUP1 REVERT JUMPDEST SWAP2 SWAP1 POP JUMP JUMPDEST PUSH1 0x0 PUSH1 0x20 DUP3 DUP5 SUB SLT ISZERO PUSH2 0x1657 JUMPI PUSH1 0x0 DUP1 REVERT JUMPDEST PUSH2 0x1660 DUP3 PUSH2 0x1629 JUMP JUMPDEST SWAP4 SWAP3 POP POP POP JUMP JUMPDEST PUSH1 0x0 DUP1 PUSH1 0x40 DUP4 DUP6 SUB SLT ISZERO PUSH2 0x167A JUMPI PUSH1 0x0 DUP1 REVERT JUMPDEST POP POP DUP1 CALLDATALOAD SWAP3 PUSH1 0x20 SWAP1 SWAP2 ADD CALLDATALOAD SWAP2 POP JUMP JUMPDEST PUSH1 0x0 DUP1 PUSH1 0x40 DUP4 DUP6 SUB SLT ISZERO PUSH2 0x169C JUMPI PUSH1 0x0 DUP1 REVERT JUMPDEST PUSH2 0x16A5 DUP4 PUSH2 0x1629 JUMP JUMPDEST SWAP2 POP PUSH1 0x20 DUP4 ADD CALLDATALOAD DUP1 ISZERO ISZERO DUP2 EQ PUSH2 0x16BA JUMPI PUSH1 0x0 DUP1 REVERT JUMPDEST DUP1 SWAP2 POP POP SWAP3 POP SWAP3 SWAP1 POP JUMP JUMPDEST PUSH1 0x0 PUSH1 0x20 DUP3 DUP5 SUB SLT ISZERO PUSH2 0x16D7 JUMPI PUSH1 0x0 DUP1 REVERT JUMPDEST POP CALLDATALOAD SWAP2 SWAP1 POP JUMP JUMPDEST PUSH1 0x0 DUP1 PUSH1 0x40 DUP4 DUP6 SUB SLT ISZERO PUSH2 0x16F1 JUMPI PUSH1 0x0 DUP1 REVERT JUMPDEST PUSH2 0x16FA DUP4 PUSH2 0x1629 JUMP JUMPDEST SWAP5 PUSH1 0x20 SWAP4 SWAP1 SWAP4 ADD CALLDATALOAD SWAP4 POP POP POP JUMP JUMPDEST PUSH4 0x4E487B71 PUSH1 0xE0 SHL PUSH1 0x0 MSTORE PUSH1 0x11 PUSH1 0x4 MSTORE PUSH1 0x24 PUSH1 0x0 REVERT JUMPDEST DUP2 DUP2 SUB DUP2 DUP2 GT ISZERO PUSH2 0x498 JUMPI PUSH2 0x498 PUSH2 0x1708 JUMP JUMPDEST DUP1 DUP3 MUL DUP2 ISZERO DUP3 DUP3 DIV DUP5 EQ OR PUSH2 0x498 JUMPI PUSH2 0x498 PUSH2 0x1708 JUMP JUMPDEST PUSH1 0x0 DUP3 PUSH2 0x1765 JUMPI PUSH4 0x4E487B71 PUSH1 0xE0 SHL PUSH1 0x0 MSTORE PUSH1 0x12 PUSH1 0x4 MSTORE PUSH1 0x24 PUSH1 0x0 REVERT JUMPDEST POP DIV SWAP1 JUMP JUMPDEST DUP1 DUP3 ADD DUP1 DUP3 GT ISZERO PUSH2 0x498 JUMPI PUSH2 0x498 PUSH2 0x1708 JUMP JUMPDEST PUSH1 0x0 PUSH1 0x20 DUP3 DUP5 SUB SLT ISZERO PUSH2 0x178F JUMPI PUSH1 0x0 DUP1 REVERT JUMPDEST POP MLOAD SWAP2 SWAP1 POP JUMP INVALID SWAP12 PUSH24 0x9B17422D0DF92223018B32B4D1FA46E071723D6817E2486D STOP EXTCODESIZE 0xEC 0xC5 PUSH0 STOP LOG2 PUSH5 0x6970667358 0x22 SLT KECCAK256 RETURNDATACOPY PUSH18 0xEAA7A126CAF334207CCD952B942F2D0C3DCD 0xC4 SWAP11 CALLDATASIZE 0xDE 0xB4 PUSH27 0x1E81B3E9ED5764736F6C6343000814003300000000000000000000 "
		},
		"gasEstimates": {
			"creation": {
				"codeDepositCost": "1224800",
				"executionCost": "infinite",
				"totalCost": "infinite"
			},
			"external": {
				"claimRewards()": "infinite",
				"earned(address)": "infinite",
				"emergencyWithdraw()": "infinite",
				"estimatedAPR()": "infinite",
				"exit()": "infinite",
				"lastTimeRewardApplicable()": "4533",
				"lastUpdateTime()": "2395",
				"notifyRewardAmount(uint256,uint256)": "infinite",
				"owner()": "2376",
				"pause()": "27748",
				"paused()": "2400",
				"pendingRewards(address)": "2598",
				"periodFinish()": "2350",
				"recoverERC20(address,uint256)": "infinite",
				"renounceOwnership()": "infinite",
				"rewardNotifiers(address)": "2598",
				"rewardPerToken()": "infinite",
				"rewardPerTokenStored()": "2395",
				"rewardRatePerSecond()": "2396",
				"setRewardNotifier(address,bool)": "28378",
				"setRewardRate(uint256)": "78382",
				"setTreasury(address)": "82292",
				"stake(uint256)": "infinite",
				"stakedBalance(address)": "2553",
				"timbsToken()": "infinite",
				"totalStaked()": "2330",
				"transferOwnership(address)": "28443",
				"treasury()": "2404",
				"unpause()": "27720",
				"unstake(uint256)": "infinite",
				"userRewardPerTokenPaid(address)": "2620"
			}
		},
		"methodIdentifiers": {
			"claimRewards()": "372500ab",
			"earned(address)": "008cc262",
			"emergencyWithdraw()": "db2e21bc",
			"estimatedAPR()": "5a5cd45e",
			"exit()": "e9fad8ee",
			"lastTimeRewardApplicable()": "80faa57d",
			"lastUpdateTime()": "c8f33c91",
			"notifyRewardAmount(uint256,uint256)": "246132f9",
			"owner()": "8da5cb5b",
			"pause()": "8456cb59",
			"paused()": "5c975abb",
			"pendingRewards(address)": "31d7a262",
			"periodFinish()": "ebe2b12b",
			"recoverERC20(address,uint256)": "8980f11f",
			"renounceOwnership()": "715018a6",
			"rewardNotifiers(address)": "d15166ff",
			"rewardPerToken()": "cd3daf9d",
			"rewardPerTokenStored()": "df136d65",
			"rewardRatePerSecond()": "5d773b2c",
			"setRewardNotifier(address,bool)": "255a4f73",
			"setRewardRate(uint256)": "9e447fc6",
			"setTreasury(address)": "f0f44260",
			"stake(uint256)": "a694fc3a",
			"stakedBalance(address)": "60217267",
			"timbsToken()": "0e31648f",
			"totalStaked()": "817b1cd2",
			"transferOwnership(address)": "f2fde38b",
			"treasury()": "61d027b3",
			"unpause()": "3f4ba83a",
			"unstake(uint256)": "2e17de78",
			"userRewardPerTokenPaid(address)": "8b876347"
		}
	},
	"abi": [
		{
			"inputs": [
				{
					"internalType": "address",
					"name": "_timbsToken",
					"type": "address"
				},
				{
					"internalType": "uint256",
					"name": "_rewardRatePerSecond",
					"type": "uint256"
				}
			],
			"stateMutability": "nonpayable",
			"type": "constructor"
		},
		{
			"inputs": [],
			"name": "ContractPaused",
			"type": "error"
		},
		{
			"inputs": [
				{
					"internalType": "uint256",
					"name": "required",
					"type": "uint256"
				},
				{
					"internalType": "uint256",
					"name": "available",
					"type": "uint256"
				}
			],
			"name": "InsufficientRewardBalance",
			"type": "error"
		},
		{
			"inputs": [
				{
					"internalType": "uint256",
					"name": "requested",
					"type": "uint256"
				},
				{
					"internalType": "uint256",
					"name": "available",
					"type": "uint256"
				}
			],
			"name": "InsufficientStake",
			"type": "error"
		},
		{
			"inputs": [],
			"name": "NoPendingRewards",
			"type": "error"
		},
		{
			"inputs": [],
			"name": "NotAuthorised",
			"type": "error"
		},
		{
			"inputs": [
				{
					"internalType": "address",
					"name": "owner",
					"type": "address"
				}
			],
			"name": "OwnableInvalidOwner",
			"type": "error"
		},
		{
			"inputs": [
				{
					"internalType": "address",
					"name": "account",
					"type": "address"
				}
			],
			"name": "OwnableUnauthorizedAccount",
			"type": "error"
		},
		{
			"inputs": [],
			"name": "ReentrancyGuardReentrantCall",
			"type": "error"
		},
		{
			"inputs": [
				{
					"internalType": "address",
					"name": "token",
					"type": "address"
				}
			],
			"name": "SafeERC20FailedOperation",
			"type": "error"
		},
		{
			"inputs": [],
			"name": "ZeroAddress",
			"type": "error"
		},
		{
			"inputs": [],
			"name": "ZeroAmount",
			"type": "error"
		},
		{
			"anonymous": false,
			"inputs": [
				{
					"indexed": true,
					"internalType": "address",
					"name": "user",
					"type": "address"
				},
				{
					"indexed": false,
					"internalType": "uint256",
					"name": "amount",
					"type": "uint256"
				}
			],
			"name": "EmergencyWithdraw",
			"type": "event"
		},
		{
			"anonymous": false,
			"inputs": [
				{
					"indexed": true,
					"internalType": "address",
					"name": "previousOwner",
					"type": "address"
				},
				{
					"indexed": true,
					"internalType": "address",
					"name": "newOwner",
					"type": "address"
				}
			],
			"name": "OwnershipTransferred",
			"type": "event"
		},
		{
			"anonymous": false,
			"inputs": [
				{
					"indexed": true,
					"internalType": "address",
					"name": "by",
					"type": "address"
				}
			],
			"name": "Paused",
			"type": "event"
		},
		{
			"anonymous": false,
			"inputs": [
				{
					"indexed": true,
					"internalType": "address",
					"name": "notifier",
					"type": "address"
				},
				{
					"indexed": false,
					"internalType": "uint256",
					"name": "amount",
					"type": "uint256"
				},
				{
					"indexed": false,
					"internalType": "uint256",
					"name": "duration",
					"type": "uint256"
				}
			],
			"name": "RewardNotified",
			"type": "event"
		},
		{
			"anonymous": false,
			"inputs": [
				{
					"indexed": true,
					"internalType": "address",
					"name": "notifier",
					"type": "address"
				},
				{
					"indexed": false,
					"internalType": "bool",
					"name": "authorised",
					"type": "bool"
				}
			],
			"name": "RewardNotifierSet",
			"type": "event"
		},
		{
			"anonymous": false,
			"inputs": [
				{
					"indexed": false,
					"internalType": "uint256",
					"name": "newRatePerSecond",
					"type": "uint256"
				}
			],
			"name": "RewardRateSet",
			"type": "event"
		},
		{
			"anonymous": false,
			"inputs": [
				{
					"indexed": true,
					"internalType": "address",
					"name": "user",
					"type": "address"
				},
				{
					"indexed": false,
					"internalType": "uint256",
					"name": "amount",
					"type": "uint256"
				}
			],
			"name": "RewardsClaimed",
			"type": "event"
		},
		{
			"anonymous": false,
			"inputs": [
				{
					"indexed": true,
					"internalType": "address",
					"name": "user",
					"type": "address"
				},
				{
					"indexed": false,
					"internalType": "uint256",
					"name": "amount",
					"type": "uint256"
				}
			],
			"name": "Staked",
			"type": "event"
		},
		{
			"anonymous": false,
			"inputs": [
				{
					"indexed": true,
					"internalType": "address",
					"name": "treasury",
					"type": "address"
				}
			],
			"name": "TreasurySet",
			"type": "event"
		},
		{
			"anonymous": false,
			"inputs": [
				{
					"indexed": true,
					"internalType": "address",
					"name": "by",
					"type": "address"
				}
			],
			"name": "Unpaused",
			"type": "event"
		},
		{
			"anonymous": false,
			"inputs": [
				{
					"indexed": true,
					"internalType": "address",
					"name": "user",
					"type": "address"
				},
				{
					"indexed": false,
					"internalType": "uint256",
					"name": "amount",
					"type": "uint256"
				}
			],
			"name": "Unstaked",
			"type": "event"
		},
		{
			"inputs": [],
			"name": "claimRewards",
			"outputs": [],
			"stateMutability": "nonpayable",
			"type": "function"
		},
		{
			"inputs": [
				{
					"internalType": "address",
					"name": "account",
					"type": "address"
				}
			],
			"name": "earned",
			"outputs": [
				{
					"internalType": "uint256",
					"name": "",
					"type": "uint256"
				}
			],
			"stateMutability": "view",
			"type": "function"
		},
		{
			"inputs": [],
			"name": "emergencyWithdraw",
			"outputs": [],
			"stateMutability": "nonpayable",
			"type": "function"
		},
		{
			"inputs": [],
			"name": "estimatedAPR",
			"outputs": [
				{
					"internalType": "uint256",
					"name": "aprBps",
					"type": "uint256"
				}
			],
			"stateMutability": "view",
			"type": "function"
		},
		{
			"inputs": [],
			"name": "exit",
			"outputs": [],
			"stateMutability": "nonpayable",
			"type": "function"
		},
		{
			"inputs": [],
			"name": "lastTimeRewardApplicable",
			"outputs": [
				{
					"internalType": "uint256",
					"name": "",
					"type": "uint256"
				}
			],
			"stateMutability": "view",
			"type": "function"
		},
		{
			"inputs": [],
			"name": "lastUpdateTime",
			"outputs": [
				{
					"internalType": "uint256",
					"name": "",
					"type": "uint256"
				}
			],
			"stateMutability": "view",
			"type": "function"
		},
		{
			"inputs": [
				{
					"internalType": "uint256",
					"name": "amount",
					"type": "uint256"
				},
				{
					"internalType": "uint256",
					"name": "duration",
					"type": "uint256"
				}
			],
			"name": "notifyRewardAmount",
			"outputs": [],
			"stateMutability": "nonpayable",
			"type": "function"
		},
		{
			"inputs": [],
			"name": "owner",
			"outputs": [
				{
					"internalType": "address",
					"name": "",
					"type": "address"
				}
			],
			"stateMutability": "view",
			"type": "function"
		},
		{
			"inputs": [],
			"name": "pause",
			"outputs": [],
			"stateMutability": "nonpayable",
			"type": "function"
		},
		{
			"inputs": [],
			"name": "paused",
			"outputs": [
				{
					"internalType": "bool",
					"name": "",
					"type": "bool"
				}
			],
			"stateMutability": "view",
			"type": "function"
		},
		{
			"inputs": [
				{
					"internalType": "address",
					"name": "",
					"type": "address"
				}
			],
			"name": "pendingRewards",
			"outputs": [
				{
					"internalType": "uint256",
					"name": "",
					"type": "uint256"
				}
			],
			"stateMutability": "view",
			"type": "function"
		},
		{
			"inputs": [],
			"name": "periodFinish",
			"outputs": [
				{
					"internalType": "uint256",
					"name": "",
					"type": "uint256"
				}
			],
			"stateMutability": "view",
			"type": "function"
		},
		{
			"inputs": [
				{
					"internalType": "address",
					"name": "token",
					"type": "address"
				},
				{
					"internalType": "uint256",
					"name": "amount",
					"type": "uint256"
				}
			],
			"name": "recoverERC20",
			"outputs": [],
			"stateMutability": "nonpayable",
			"type": "function"
		},
		{
			"inputs": [],
			"name": "renounceOwnership",
			"outputs": [],
			"stateMutability": "nonpayable",
			"type": "function"
		},
		{
			"inputs": [
				{
					"internalType": "address",
					"name": "",
					"type": "address"
				}
			],
			"name": "rewardNotifiers",
			"outputs": [
				{
					"internalType": "bool",
					"name": "",
					"type": "bool"
				}
			],
			"stateMutability": "view",
			"type": "function"
		},
		{
			"inputs": [],
			"name": "rewardPerToken",
			"outputs": [
				{
					"internalType": "uint256",
					"name": "",
					"type": "uint256"
				}
			],
			"stateMutability": "view",
			"type": "function"
		},
		{
			"inputs": [],
			"name": "rewardPerTokenStored",
			"outputs": [
				{
					"internalType": "uint256",
					"name": "",
					"type": "uint256"
				}
			],
			"stateMutability": "view",
			"type": "function"
		},
		{
			"inputs": [],
			"name": "rewardRatePerSecond",
			"outputs": [
				{
					"internalType": "uint256",
					"name": "",
					"type": "uint256"
				}
			],
			"stateMutability": "view",
			"type": "function"
		},
		{
			"inputs": [
				{
					"internalType": "address",
					"name": "notifier",
					"type": "address"
				},
				{
					"internalType": "bool",
					"name": "authorised",
					"type": "bool"
				}
			],
			"name": "setRewardNotifier",
			"outputs": [],
			"stateMutability": "nonpayable",
			"type": "function"
		},
		{
			"inputs": [
				{
					"internalType": "uint256",
					"name": "_ratePerSecond",
					"type": "uint256"
				}
			],
			"name": "setRewardRate",
			"outputs": [],
			"stateMutability": "nonpayable",
			"type": "function"
		},
		{
			"inputs": [
				{
					"internalType": "address",
					"name": "_treasury",
					"type": "address"
				}
			],
			"name": "setTreasury",
			"outputs": [],
			"stateMutability": "nonpayable",
			"type": "function"
		},
		{
			"inputs": [
				{
					"internalType": "uint256",
					"name": "amount",
					"type": "uint256"
				}
			],
			"name": "stake",
			"outputs": [],
			"stateMutability": "nonpayable",
			"type": "function"
		},
		{
			"inputs": [
				{
					"internalType": "address",
					"name": "",
					"type": "address"
				}
			],
			"name": "stakedBalance",
			"outputs": [
				{
					"internalType": "uint256",
					"name": "",
					"type": "uint256"
				}
			],
			"stateMutability": "view",
			"type": "function"
		},
		{
			"inputs": [],
			"name": "timbsToken",
			"outputs": [
				{
					"internalType": "contract IERC20",
					"name": "",
					"type": "address"
				}
			],
			"stateMutability": "view",
			"type": "function"
		},
		{
			"inputs": [],
			"name": "totalStaked",
			"outputs": [
				{
					"internalType": "uint256",
					"name": "",
					"type": "uint256"
				}
			],
			"stateMutability": "view",
			"type": "function"
		},
		{
			"inputs": [
				{
					"internalType": "address",
					"name": "newOwner",
					"type": "address"
				}
			],
			"name": "transferOwnership",
			"outputs": [],
			"stateMutability": "nonpayable",
			"type": "function"
		},
		{
			"inputs": [],
			"name": "treasury",
			"outputs": [
				{
					"internalType": "address",
					"name": "",
					"type": "address"
				}
			],
			"stateMutability": "view",
			"type": "function"
		},
		{
			"inputs": [],
			"name": "unpause",
			"outputs": [],
			"stateMutability": "nonpayable",
			"type": "function"
		},
		{
			"inputs": [
				{
					"internalType": "uint256",
					"name": "amount",
					"type": "uint256"
				}
			],
			"name": "unstake",
			"outputs": [],
			"stateMutability": "nonpayable",
			"type": "function"
		},
		{
			"inputs": [
				{
					"internalType": "address",
					"name": "",
					"type": "address"
				}
			],
			"name": "userRewardPerTokenPaid",
			"outputs": [
				{
					"internalType": "uint256",
					"name": "",
					"type": "uint256"
				}
			],
			"stateMutability": "view",
			"type": "function"
		}
	]
}