{
	"data": {
		"bytecode": {
			"linkReferences": {},
			"object": "608060405234801561001057600080fd5b5060405161357938038061357983398101604081905261002f91610149565b338061005557604051631e4fbdf760e01b81526000600482015260240160405180910390fd5b61005e816100f9565b5060017f9b779b17422d0df92223018b32b4d1fa46e071723d6817e2486d003becc55f00556001600160a01b0381166100aa5760405163d92e233d60e01b815260040160405180910390fd5b600180546001600160a01b0319166001600160a01b0383169081179091556040516000907f8f93286d6f131e956d1aa672d3ecdc817f24efc20b223b0de5d591f454edc347908290a350610179565b600080546001600160a01b038381166001600160a01b0319831681178455604051919092169283917f8be0079c531659141344cd1fd0a4f28419497f9722a3daafe3b4186f6b6457e09190a35050565b60006020828403121561015b57600080fd5b81516001600160a01b038116811461017257600080fd5b9392505050565b6133f1806101886000396000f3fe60806040523480156200001157600080fd5b5060043610620001e95760003560e01c8063a2092a32116200010d578063c0d7865511620000a3578063e6a43905116200007a578063e6a43905146200048c578063f2fde38b14620004c3578063f46901ed14620004da578063f887ea4014620004f157600080fd5b8063c0d786551462000438578063c49823b2146200044f578063c9c65396146200047557600080fd5b8063ae416e2711620000e4578063ae416e2714620003d5578063b4f69a2f1462000401578063ba5d27d11462000418578063be378228146200042f57600080fd5b8063a2092a32146200039e578063a525821014620003b5578063a97ead8314620003be57600080fd5b80635fbbc0d211620001835780637b3fa96d116200015a5780637b3fa96d14620002fa5780638456cb59146200032057806385cfef96146200032a5780638da5cb5b146200038c57600080fd5b80635fbbc0d214620002be5780636f28507c14620002e7578063715018a614620002f057600080fd5b80633f4ba83a11620001c45780633f4ba83a146200024a57806355974c4b1462000256578063574f2ba314620002965780635c975abb14620002a957600080fd5b8063017e7e5814620001ee5780630e31648f146200021f5780631e3dd18b1462000233575b600080fd5b60015462000202906001600160a01b031681565b6040516001600160a01b0390911681526020015b60405180910390f35b60035462000202906001600160a01b031681565b620002026200024436600462000d9e565b62000505565b6200025462000530565b005b620002856200026736600462000dd5565b6001600160a01b031660009081526006602052604090205460ff1690565b604051901515815260200162000216565b6005545b60405190815260200162000216565b6003546200028590600160a01b900460ff1681565b60408051601e815260196020820152600591810191909152612710606082015260800162000216565b6200029a601e81565b6200025462000574565b620002856200030b36600462000dd5565b60076020526000908152604090205460ff1681565b620002546200058c565b6200036c6200033b36600462000dd5565b6001600160a01b0390811660009081526007602090815260408083205460089092529091205460ff90911692911690565b6040805192151583526001600160a01b0390911660208301520162000216565b6000546001600160a01b031662000202565b62000254620003af36600462000dd5565b620005d6565b6200029a601981565b62000254620003cf36600462000e0b565b62000652565b62000202620003e636600462000dd5565b6008602052600090815260409020546001600160a01b031681565b620002026200041236600462000e55565b6200075b565b620002546200042936600462000e8d565b620007b7565b6200029a600581565b620002546200044936600462000dd5565b62000848565b620002856200046036600462000dd5565b60066020526000908152604090205460ff1681565b620002026200048636600462000e55565b620008c4565b620002026200049d36600462000e55565b60046020908152600092835260408084209091529082529020546001600160a01b031681565b62000254620004d436600462000dd5565b62000bcc565b62000254620004eb36600462000dd5565b62000c10565b60025462000202906001600160a01b031681565b600581815481106200051657600080fd5b6000918252602090912001546001600160a01b0316905081565b6200053a62000c9e565b6003805460ff60a01b1916905560405133907f5db9ee0a495bf2e6ff9c91a7834c1ba4fdd244a5e8aa4e537bd38aeae4b073aa90600090a2565b6200057e62000c9e565b6200058a600062000ccd565b565b6200059662000c9e565b6003805460ff60a01b1916600160a01b17905560405133907f62e78cea01bee320cd4e420270b5ea74000d11b0c9f74754ebdbfc544b05a25890600090a2565b620005e062000c9e565b6001600160a01b038116620006085760405163d92e233d60e01b815260040160405180910390fd5b600380546001600160a01b0319166001600160a01b0383169081179091556040517fa90daac379131812d11a08b83166a4f607749a36c47f239451c1f35b185b46a290600090a250565b6200065c62000c9e565b6001600160a01b038316620006845760405163d92e233d60e01b815260040160405180910390fd5b8080156200069957506001600160a01b038216155b15620006b85760405163d92e233d60e01b815260040160405180910390fd5b6001600160a01b0383166000908152600760205260409020805460ff191682151517905580620006ea576000620006ec565b815b6001600160a01b0384811660008181526008602090815260409182902080546001600160a01b031916958516959095179094555184151581529185169290917f261b3ada3e776c76fef449b1ff19e4a768d4d8351061b04cdbf332d5bfa2c4be910160405180910390a3505050565b6000806000836001600160a01b0316856001600160a01b0316106200078257838562000785565b84845b6001600160a01b0391821660009081526004602090815260408083209385168352929052205416925050505b92915050565b620007c162000c9e565b6001600160a01b038216620007e95760405163d92e233d60e01b815260040160405180910390fd5b6001600160a01b038216600081815260066020908152604091829020805460ff191685151590811790915591519182527f27cb2e738bd9aec3e5a96db124fda6677c365fcc053f5789638bf9054f0f1dab910160405180910390a25050565b6200085262000c9e565b6001600160a01b0381166200087a5760405163d92e233d60e01b815260040160405180910390fd5b600280546001600160a01b0319166001600160a01b0383169081179091556040517fc6b438e6a8a59579ce6a4406cbd203b740e0d47b458aae6596339bcd40c40d1590600090a250565b6000620008d062000d1d565b600354600160a01b900460ff1615620008fc576040516355768c9960e11b815260040160405180910390fd5b816001600160a01b0316836001600160a01b0316036200092f57604051630bd969eb60e41b815260040160405180910390fd5b6001600160a01b038316620009575760405163d92e233d60e01b815260040160405180910390fd5b6001600160a01b0382166200097f5760405163d92e233d60e01b815260040160405180910390fd5b600080836001600160a01b0316856001600160a01b031610620009a4578385620009a7565b84845b6001600160a01b0380831660009081526004602090815260408083208486168452909152902054929450909250161562000a28576001600160a01b038281166000908152600460208181526040808420868616855290915291829020549151633a55c9ad60e01b815291909216918101919091526024015b60405180910390fd5b6040516bffffffffffffffffffffffff19606084811b8216602084015283901b16603482015260009060480160405160208183030381529060405280519060200120905080838360405162000a7d9062000d90565b6001600160a01b039283168152911660208201526040018190604051809103906000f590508015801562000ab5573d6000803e3d6000fd5b506001600160a01b03808516600081815260046020818152604080842089871680865290835281852080549789166001600160a01b03199889168117909155938352818520868652909252832080548616831790556005805460018181018355948290527f036b6384b5eca791c62761152d0c79bb0604c104a5fb6f4eb0703f3154bb3db001805490961690921790945554939750919290917f0d3648bd0f6ba80134a33ba9275ac585d9d315f0ad8355cddefde31afa28d0e991889162000b7d9162000ebc565b604080516001600160a01b03909316835260208301919091520160405180910390a3505050620007b160017f9b779b17422d0df92223018b32b4d1fa46e071723d6817e2486d003becc55f0055565b62000bd662000c9e565b6001600160a01b03811662000c0257604051631e4fbdf760e01b81526000600482015260240162000a1f565b62000c0d8162000ccd565b50565b62000c1a62000c9e565b6001600160a01b03811662000c425760405163d92e233d60e01b815260040160405180910390fd5b6001546040516001600160a01b038084169216907f8f93286d6f131e956d1aa672d3ecdc817f24efc20b223b0de5d591f454edc34790600090a3600180546001600160a01b0319166001600160a01b0392909216919091179055565b6000546001600160a01b031633146200058a5760405163118cdaa760e01b815233600482015260240162000a1f565b600080546001600160a01b038381166001600160a01b0319831681178455604051919092169283917f8be0079c531659141344cd1fd0a4f28419497f9722a3daafe3b4186f6b6457e09190a35050565b62000d2762000d4d565b60027f9b779b17422d0df92223018b32b4d1fa46e071723d6817e2486d003becc55f0055565b7f9b779b17422d0df92223018b32b4d1fa46e071723d6817e2486d003becc55f00546002036200058a57604051633ee5aeb560e01b815260040160405180910390fd5b6124dd8062000edf83390190565b60006020828403121562000db157600080fd5b5035919050565b80356001600160a01b038116811462000dd057600080fd5b919050565b60006020828403121562000de857600080fd5b62000df38262000db8565b9392505050565b8035801515811462000dd057600080fd5b60008060006060848603121562000e2157600080fd5b62000e2c8462000db8565b925062000e3c6020850162000db8565b915062000e4c6040850162000dfa565b90509250925092565b6000806040838503121562000e6957600080fd5b62000e748362000db8565b915062000e846020840162000db8565b90509250929050565b6000806040838503121562000ea157600080fd5b62000eac8362000db8565b915062000e846020840162000dfa565b81810381811115620007b157634e487b7160e01b600052601160045260246000fdfe60e06040523480156200001157600080fd5b50604051620024dd380380620024dd833981016040819052620000349162000156565b604051806040016040528060118152602001702a34b6b129bbb0b8102628102a37b5b2b760791b81525060405180604001604052806008815260200167054494d42532d4c560c41b815250816003908162000090919062000235565b5060046200009f828262000235565b5050506001620000bb620000b86200011560201b60201c565b90565b556001600160a01b0382161580620000da57506001600160a01b038116155b15620000f95760405163d92e233d60e01b815260040160405180910390fd5b336080526001600160a01b0391821660a0521660c05262000301565b7f9b779b17422d0df92223018b32b4d1fa46e071723d6817e2486d003becc55f0090565b80516001600160a01b03811681146200015157600080fd5b919050565b600080604083850312156200016a57600080fd5b620001758362000139565b9150620001856020840162000139565b90509250929050565b634e487b7160e01b600052604160045260246000fd5b600181811c90821680620001b957607f821691505b602082108103620001da57634e487b7160e01b600052602260045260246000fd5b50919050565b601f82111562000230576000816000526020600020601f850160051c810160208610156200020b5750805b601f850160051c820191505b818110156200022c5782815560010162000217565b5050505b505050565b81516001600160401b038111156200025157620002516200018e565b6200026981620002628454620001a4565b84620001e0565b602080601f831160018114620002a15760008415620002885750858301515b600019600386901b1c1916600185901b1785556200022c565b600085815260208120601f198616915b82811015620002d257888601518255948401946001909101908401620002b1565b5085821015620002f15787850151600019600388901b60f8161c191681555b5050505050600190811b01905550565b60805160a05160c0516120fd620003e060003960008181610326015281816104f1015281816106120152818161089f0152818161099801528181610a6d01528181610d1001528181610e2c01528181610f650152818161102c015281816112930152818161131a01526114040152600081816101c1015281816104b601528181610584015281816108640152818161095e015281816109d701528181610cd501528181610d9e01528181610f3101528181610fa1015281816111b50152818161123c015261137c0152600081816102ff0152611d1501526120fd6000f3fe608060405234801561001057600080fd5b50600436106101425760003560e01c806370a08231116100b8578063ba9a7a561161007c578063ba9a7a56146102de578063bc25cf77146102e7578063c45a0155146102fa578063d21220a714610321578063dd62ed3e14610348578063fff6cae91461038157600080fd5b806370a08231146102695780637464fc3d1461029257806389afcb441461029b57806395d89b41146102c3578063a9059cbb146102cb57600080fd5b806323b872dd1161010a57806323b872dd1461020d578063313ce567146102205780635909c0d51461022f5780635a3d5493146102385780636a627842146102415780636d9a640a1461025457600080fd5b806306fdde03146101475780630902f1ac14610165578063095ea7b3146101995780630dfe1681146101bc57806318160ddd146101fb575b600080fd5b61014f610389565b60405161015c9190611e46565b60405180910390f35b61016d61041b565b604080516001600160701b03948516815293909216602084015263ffffffff169082015260600161015c565b6101ac6101a7366004611e8e565b610445565b604051901515815260200161015c565b6101e37f000000000000000000000000000000000000000000000000000000000000000081565b6040516001600160a01b03909116815260200161015c565b6002545b60405190815260200161015c565b6101ac61021b366004611eba565b61045f565b6040516012815260200161015c565b6101ff60065481565b6101ff60075481565b6101ff61024f366004611efb565b610483565b610267610262366004611f18565b610809565b005b6101ff610277366004611efb565b6001600160a01b031660009081526020819052604090205490565b6101ff60085481565b6102ae6102a9366004611efb565b610ca1565b6040805192835260208301919091520161015c565b61014f61113f565b6101ac6102d9366004611e8e565b61114e565b6101ff6103e881565b6102676102f5366004611efb565b61115c565b6101e37f000000000000000000000000000000000000000000000000000000000000000081565b6101e37f000000000000000000000000000000000000000000000000000000000000000081565b6101ff610356366004611f51565b6001600160a01b03918216600090815260016020908152604080832093909416825291909152205490565b61026761135b565b60606003805461039890611f8a565b80601f01602080910402602001604051908101604052809291908181526020018280546103c490611f8a565b80156104115780601f106103e657610100808354040283529160200191610411565b820191906000526020600020905b8154815290600101906020018083116103f457829003601f168201915b5050505050905090565b6005546001600160701b0380821692600160701b830490911691600160e01b900463ffffffff1690565b6000336104538185856114ac565b60019150505b92915050565b60003361046d8582856114b9565b610478858585611538565b506001949350505050565b600061048d611597565b6001600160a01b0382166104b45760405163d92e233d60e01b815260040160405180910390fd5b7f00000000000000000000000000000000000000000000000000000000000000006001600160a01b0316826001600160a01b0316148061052557507f00000000000000000000000000000000000000000000000000000000000000006001600160a01b0316826001600160a01b0316145b15610553576040516332cd059160e11b81526001600160a01b03831660048201526024015b60405180910390fd5b60008061055e61041b565b506040516370a0823160e01b815230600482015291935091506000906001600160a01b037f000000000000000000000000000000000000000000000000000000000000000016906370a0823190602401602060405180830381865afa1580156105cb573d6000803e3d6000fd5b505050506040513d601f19601f820116820180604052508101906105ef9190611fc4565b6040516370a0823160e01b81523060048201529091506000906001600160a01b037f000000000000000000000000000000000000000000000000000000000000000016906370a0823190602401602060405180830381865afa158015610659573d6000803e3d6000fd5b505050506040513d601f19601f8201168201806040525081019061067d9190611fc4565b905060006106946001600160701b03861684611ff3565b905060006106ab6001600160701b03861684611ff3565b905060006106b987876115b3565b905060006106c660025490565b905080600003610703576103e86106e56106e08587612006565b6116c7565b6106ef9190611ff3565b98506106fe60016103e8611820565b61074a565b6107476001600160701b03891661071a8387612006565b6107249190612033565b6001600160701b0389166107388487612006565b6107429190612033565b61185a565b98505b8860000361076b57604051633489be7560e21b815260040160405180910390fd5b6107758a8a611820565b61078186868a8a61186d565b81156107aa576005546107a6906001600160701b03600160701b820481169116612006565b6008555b604080518581526020810185905233917f4c209b5fc8ad50758f13e2e1088ba56a560dff690a1c6fef26394f4c03821c4f910160405180910390a2505050505050505061080460016000805160206120a883398151915255565b919050565b610811611597565b8215801561081d575081155b1561083b576040516342301c2360e01b815260040160405180910390fd5b6001600160a01b0381166108625760405163d92e233d60e01b815260040160405180910390fd5b7f00000000000000000000000000000000000000000000000000000000000000006001600160a01b0316816001600160a01b031614806108d357507f00000000000000000000000000000000000000000000000000000000000000006001600160a01b0316816001600160a01b0316145b156108fc576040516332cd059160e11b81526001600160a01b038216600482015260240161054a565b60008061090761041b565b5091509150816001600160701b03168510158061092d5750806001600160701b03168410155b1561094b5760405163bb55fd2760e01b815260040160405180910390fd5b8415610985576109856001600160a01b037f0000000000000000000000000000000000000000000000000000000000000000168487611a41565b83156109bf576109bf6001600160a01b037f0000000000000000000000000000000000000000000000000000000000000000168486611a41565b6040516370a0823160e01b81523060048201526000907f00000000000000000000000000000000000000000000000000000000000000006001600160a01b0316906370a0823190602401602060405180830381865afa158015610a26573d6000803e3d6000fd5b505050506040513d601f19601f82011682018060405250810190610a4a9190611fc4565b6040516370a0823160e01b81523060048201529091506000906001600160a01b037f000000000000000000000000000000000000000000000000000000000000000016906370a0823190602401602060405180830381865afa158015610ab4573d6000803e3d6000fd5b505050506040513d601f19601f82011682018060405250810190610ad89190611fc4565b90506000610aef886001600160701b038716611ff3565b8311610afc576000610b19565b610b0f886001600160701b038716611ff3565b610b199084611ff3565b90506000610b30886001600160701b038716611ff3565b8311610b3d576000610b5a565b610b50886001600160701b038716611ff3565b610b5a9084611ff3565b905081158015610b68575080155b15610b865760405163098fb56160e01b815260040160405180910390fd5b6000610b93836003612006565b610b9f866103e8612006565b610ba99190611ff3565b90506000610bb8836003612006565b610bc4866103e8612006565b610bce9190611ff3565b9050610be66001600160701b03808916908a16612006565b610bf390620f4240612006565b610bfd8284612006565b1015610c1c57604051630a64faad60e31b815260040160405180910390fd5b610c2886868a8a61186d565b60408051858152602081018590529081018c9052606081018b90526001600160a01b038a169033907fd78ad95fa46c994b6551d0da85fc275fe613ce37657fb8d5e3d130840159d8229060800160405180910390a35050505050505050610c9c60016000805160206120a883398151915255565b505050565b600080610cac611597565b6001600160a01b038316610cd35760405163d92e233d60e01b815260040160405180910390fd5b7f00000000000000000000000000000000000000000000000000000000000000006001600160a01b0316836001600160a01b03161480610d4457507f00000000000000000000000000000000000000000000000000000000000000006001600160a01b0316836001600160a01b0316145b15610d6d576040516332cd059160e11b81526001600160a01b038416600482015260240161054a565b600080610d7861041b565b506040516370a0823160e01b815230600482015291935091506000906001600160a01b037f000000000000000000000000000000000000000000000000000000000000000016906370a0823190602401602060405180830381865afa158015610de5573d6000803e3d6000fd5b505050506040513d601f19601f82011682018060405250810190610e099190611fc4565b6040516370a0823160e01b81523060048201529091506000906001600160a01b037f000000000000000000000000000000000000000000000000000000000000000016906370a0823190602401602060405180830381865afa158015610e73573d6000803e3d6000fd5b505050506040513d601f19601f82011682018060405250810190610e979190611fc4565b30600090815260208190526040812054919250610eb486866115b3565b90506000610ec160025490565b905080610ece8685612006565b610ed89190612033565b985080610ee58585612006565b610eef9190612033565b9750881580610efc575087155b15610f1a5760405163749383ad60e01b815260040160405180910390fd5b610f243084611a76565b610f586001600160a01b037f0000000000000000000000000000000000000000000000000000000000000000168b8b611a41565b610f8c6001600160a01b037f0000000000000000000000000000000000000000000000000000000000000000168b8a611a41565b6040516370a0823160e01b81523060048201527f00000000000000000000000000000000000000000000000000000000000000006001600160a01b0316906370a0823190602401602060405180830381865afa158015610ff0573d6000803e3d6000fd5b505050506040513d601f19601f820116820180604052508101906110149190611fc4565b6040516370a0823160e01b81523060048201529095507f00000000000000000000000000000000000000000000000000000000000000006001600160a01b0316906370a0823190602401602060405180830381865afa15801561107b573d6000803e3d6000fd5b505050506040513d601f19601f8201168201806040525081019061109f9190611fc4565b93506110ad8585898961186d565b81156110d6576005546110d2906001600160701b03600160701b820481169116612006565b6008555b604080518a8152602081018a90526001600160a01b038c169133917fdccd412f0b1252819cb1fd330b93224ca42612892bb3f4f789976e6d81936496910160405180910390a35050505050505061113a60016000805160206120a883398151915255565b915091565b60606004805461039890611f8a565b600033610453818585611538565b611164611597565b6001600160a01b03811661118b5760405163d92e233d60e01b815260040160405180910390fd5b6005546040516370a0823160e01b81523060048201526112639183916001600160701b03909116907f00000000000000000000000000000000000000000000000000000000000000006001600160a01b0316906370a0823190602401602060405180830381865afa158015611204573d6000803e3d6000fd5b505050506040513d601f19601f820116820180604052508101906112289190611fc4565b6112329190611ff3565b6001600160a01b037f0000000000000000000000000000000000000000000000000000000000000000169190611a41565b6005546040516370a0823160e01b8152306004820152611341918391600160701b9091046001600160701b0316907f00000000000000000000000000000000000000000000000000000000000000006001600160a01b0316906370a0823190602401602060405180830381865afa1580156112e2573d6000803e3d6000fd5b505050506040513d601f19601f820116820180604052508101906113069190611fc4565b6113109190611ff3565b6001600160a01b037f0000000000000000000000000000000000000000000000000000000000000000169190611a41565b61135860016000805160206120a883398151915255565b50565b611363611597565b6040516370a0823160e01b8152306004820152611493907f00000000000000000000000000000000000000000000000000000000000000006001600160a01b0316906370a0823190602401602060405180830381865afa1580156113cb573d6000803e3d6000fd5b505050506040513d601f19601f820116820180604052508101906113ef9190611fc4565b6040516370a0823160e01b81523060048201527f00000000000000000000000000000000000000000000000000000000000000006001600160a01b0316906370a0823190602401602060405180830381865afa158015611453573d6000803e3d6000fd5b505050506040513d601f19601f820116820180604052508101906114779190611fc4565b6005546001600160701b0380821691600160701b90041661186d565b6114aa60016000805160206120a883398151915255565b565b610c9c8383836001611aac565b6001600160a01b03838116600090815260016020908152604080832093861683529290522054600019811015611532578181101561152357604051637dc7a0d960e11b81526001600160a01b0384166004820152602481018290526044810183905260640161054a565b61153284848484036000611aac565b50505050565b6001600160a01b03831661156257604051634b637e8f60e11b81526000600482015260240161054a565b6001600160a01b03821661158c5760405163ec442f0560e01b81526000600482015260240161054a565b610c9c838383611b81565b61159f611cab565b60026000805160206120a883398151915255565b6000806115be611cdb565b6008546001600160a01b0382161580159450919250906116b35780156116ae5760006115f96106e06001600160701b03808816908916612006565b90506000611606836116c7565b9050808211156116ab57600061161c8284611ff3565b6002546116299190612006565b9050600082611639856005612006565b6116439190612047565b905060006116518284612033565b905080156116a7576116638782611820565b866001600160a01b03167f9f01c68c1df72199426e5dc03e009238218bf665f0fd62dc1a25b82c882d581b8260405161169e91815260200190565b60405180910390a25b5050505b50505b6116bf565b80156116bf5760006008555b505092915050565b6000600182116116d5575090565b816001600160801b82106116ee5760809190911c9060401b5b6801000000000000000082106117095760409190911c9060201b5b64010000000082106117205760209190911c9060101b5b6201000082106117355760109190911c9060081b5b61010082106117495760089190911c9060041b5b6010821061175c5760049190911c9060021b5b600482106117685760011b5b600302600190811c908185816117805761178061201d565b048201901c905060018185816117985761179861201d565b048201901c905060018185816117b0576117b061201d565b048201901c905060018185816117c8576117c861201d565b048201901c905060018185816117e0576117e061201d565b048201901c905060018185816117f8576117f861201d565b048201901c90506118178185816118115761181161201d565b04821190565b90039392505050565b6001600160a01b03821661184a5760405163ec442f0560e01b81526000600482015260240161054a565b61185660008383611b81565b5050565b60008282188284100282185b9392505050565b6001600160701b0384118061188857506001600160701b0383115b156118a657604051631a93c68960e11b815260040160405180910390fd5b60006118b76401000000004261205a565b60055490915063ffffffff600160e01b90910481168203908116158015906118e757506001600160701b03841615155b80156118fb57506001600160701b03831615155b156119a95763ffffffff81166001600160701b0385166dffffffffffffffffffffffffffff60701b607086901b16816119365761193661201d565b046001600160e01b0316026006600082825401925050819055508063ffffffff16836001600160701b03166070866001600160701b03166001600160e01b0316901b6001600160e01b03168161198e5761198e61201d565b046001600160e01b0316026007600082825401925050819055505b6005805463ffffffff8416600160e01b026001600160e01b036001600160701b03898116600160701b9081026001600160e01b03199095168c83161794909417918216831794859055604080519382169282169290921783529290930490911660208201527f1c411e9a96e071241c2f21f7726b17ae89e3cab4c78be50e062b03a9fffbbad1910160405180910390a1505050505050565b611a4e8383836001611dbc565b610c9c57604051635274afe760e01b81526001600160a01b038416600482015260240161054a565b6001600160a01b038216611aa057604051634b637e8f60e11b81526000600482015260240161054a565b61185682600083611b81565b6001600160a01b038416611ad65760405163e602df0560e01b81526000600482015260240161054a565b6001600160a01b038316611b0057604051634a1406b160e11b81526000600482015260240161054a565b6001600160a01b038085166000908152600160209081526040808320938716835292905220829055801561153257826001600160a01b0316846001600160a01b03167f8c5be1e5ebec7d5bd14f71427d1e84f3dd0314c0f7b2291e5b200ac8c7c3b92584604051611b7391815260200190565b60405180910390a350505050565b6001600160a01b038316611bac578060026000828254611ba19190612047565b90915550611c1e9050565b6001600160a01b03831660009081526020819052604090205481811015611bff5760405163391434e360e21b81526001600160a01b0385166004820152602481018290526044810183905260640161054a565b6001600160a01b03841660009081526020819052604090209082900390555b6001600160a01b038216611c3a57600280548290039055611c59565b6001600160a01b03821660009081526020819052604090208054820190555b816001600160a01b0316836001600160a01b03167fddf252ad1be2c89b69c2b068fc378daa952ba7f163c4a11628f55a4df523b3ef83604051611c9e91815260200190565b60405180910390a3505050565b6000805160206120a8833981519152546002036114aa57604051633ee5aeb560e01b815260040160405180910390fd5b60408051600481526024810182526020810180516001600160e01b0316622fcfcb60e31b1790529051600091829182916001600160a01b037f00000000000000000000000000000000000000000000000000000000000000001691611d40919061206e565b600060405180830381855afa9150503d8060008114611d7b576040519150601f19603f3d011682016040523d82523d6000602084013e611d80565b606091505b5091509150811580611d93575060208151105b15611da15760009250505090565b80806020019051810190611db5919061208a565b9250505090565b60405163a9059cbb60e01b60008181526001600160a01b038616600452602485905291602083604481808b5af192506001600051148316611e16578383151615611e09573d6000823e3d81fd5b6000873b113d1516831692505b60405250949350505050565b60005b83811015611e3d578181015183820152602001611e25565b50506000910152565b6020815260008251806020840152611e65816040850160208701611e22565b601f01601f19169190910160400192915050565b6001600160a01b038116811461135857600080fd5b60008060408385031215611ea157600080fd5b8235611eac81611e79565b946020939093013593505050565b600080600060608486031215611ecf57600080fd5b8335611eda81611e79565b92506020840135611eea81611e79565b929592945050506040919091013590565b600060208284031215611f0d57600080fd5b813561186681611e79565b600080600060608486031215611f2d57600080fd5b83359250602084013591506040840135611f4681611e79565b809150509250925092565b60008060408385031215611f6457600080fd5b8235611f6f81611e79565b91506020830135611f7f81611e79565b809150509250929050565b600181811c90821680611f9e57607f821691505b602082108103611fbe57634e487b7160e01b600052602260045260246000fd5b50919050565b600060208284031215611fd657600080fd5b5051919050565b634e487b7160e01b600052601160045260246000fd5b8181038181111561045957610459611fdd565b808202811582820484141761045957610459611fdd565b634e487b7160e01b600052601260045260246000fd5b6000826120425761204261201d565b500490565b8082018082111561045957610459611fdd565b6000826120695761206961201d565b500690565b60008251612080818460208701611e22565b9190910192915050565b60006020828403121561209c57600080fd5b815161186681611e7956fe9b779b17422d0df92223018b32b4d1fa46e071723d6817e2486d003becc55f00a2646970667358221220be857e1450cbe0011fe56d7007d82d99b42bd2237536cf9af5846c261292562f64736f6c63430008180033a2646970667358221220801643b46662308016843a00fb6d17f777fb190699f2c4f78010624b6ac6d6ec64736f6c63430008180033",
			"opcodes": "PUSH1 0x80 PUSH1 0x40 MSTORE CALLVALUE DUP1 ISZERO PUSH2 0x10 JUMPI PUSH1 0x0 DUP1 REVERT JUMPDEST POP PUSH1 0x40 MLOAD PUSH2 0x3579 CODESIZE SUB DUP1 PUSH2 0x3579 DUP4 CODECOPY DUP2 ADD PUSH1 0x40 DUP2 SWAP1 MSTORE PUSH2 0x2F SWAP2 PUSH2 0x149 JUMP JUMPDEST CALLER DUP1 PUSH2 0x55 JUMPI PUSH1 0x40 MLOAD PUSH4 0x1E4FBDF7 PUSH1 0xE0 SHL DUP2 MSTORE PUSH1 0x0 PUSH1 0x4 DUP3 ADD MSTORE PUSH1 0x24 ADD PUSH1 0x40 MLOAD DUP1 SWAP2 SUB SWAP1 REVERT JUMPDEST PUSH2 0x5E DUP2 PUSH2 0xF9 JUMP JUMPDEST POP PUSH1 0x1 PUSH32 0x9B779B17422D0DF92223018B32B4D1FA46E071723D6817E2486D003BECC55F00 SSTORE PUSH1 0x1 PUSH1 0x1 PUSH1 0xA0 SHL SUB DUP2 AND PUSH2 0xAA JUMPI PUSH1 0x40 MLOAD PUSH4 0xD92E233D PUSH1 0xE0 SHL DUP2 MSTORE PUSH1 0x4 ADD PUSH1 0x40 MLOAD DUP1 SWAP2 SUB SWAP1 REVERT JUMPDEST PUSH1 0x1 DUP1 SLOAD PUSH1 0x1 PUSH1 0x1 PUSH1 0xA0 SHL SUB NOT AND PUSH1 0x1 PUSH1 0x1 PUSH1 0xA0 SHL SUB DUP4 AND SWAP1 DUP2 OR SWAP1 SWAP2 SSTORE PUSH1 0x40 MLOAD PUSH1 0x0 SWAP1 PUSH32 0x8F93286D6F131E956D1AA672D3ECDC817F24EFC20B223B0DE5D591F454EDC347 SWAP1 DUP3 SWAP1 LOG3 POP PUSH2 0x179 JUMP JUMPDEST PUSH1 0x0 DUP1 SLOAD PUSH1 0x1 PUSH1 0x1 PUSH1 0xA0 SHL SUB DUP4 DUP2 AND PUSH1 0x1 PUSH1 0x1 PUSH1 0xA0 SHL SUB NOT DUP4 AND DUP2 OR DUP5 SSTORE PUSH1 0x40 MLOAD SWAP2 SWAP1 SWAP3 AND SWAP3 DUP4 SWAP2 PUSH32 0x8BE0079C531659141344CD1FD0A4F28419497F9722A3DAAFE3B4186F6B6457E0 SWAP2 SWAP1 LOG3 POP POP JUMP JUMPDEST PUSH1 0x0 PUSH1 0x20 DUP3 DUP5 SUB SLT ISZERO PUSH2 0x15B JUMPI PUSH1 0x0 DUP1 REVERT JUMPDEST DUP2 MLOAD PUSH1 0x1 PUSH1 0x1 PUSH1 0xA0 SHL SUB DUP2 AND DUP2 EQ PUSH2 0x172 JUMPI PUSH1 0x0 DUP1 REVERT JUMPDEST SWAP4 SWAP3 POP POP POP JUMP JUMPDEST PUSH2 0x33F1 DUP1 PUSH2 0x188 PUSH1 0x0 CODECOPY PUSH1 0x0 RETURN INVALID PUSH1 0x80 PUSH1 0x40 MSTORE CALLVALUE DUP1 ISZERO PUSH3 0x11 JUMPI PUSH1 0x0 DUP1 REVERT JUMPDEST POP PUSH1 0x4 CALLDATASIZE LT PUSH3 0x1E9 JUMPI PUSH1 0x0 CALLDATALOAD PUSH1 0xE0 SHR DUP1 PUSH4 0xA2092A32 GT PUSH3 0x10D JUMPI DUP1 PUSH4 0xC0D78655 GT PUSH3 0xA3 JUMPI DUP1 PUSH4 0xE6A43905 GT PUSH3 0x7A JUMPI DUP1 PUSH4 0xE6A43905 EQ PUSH3 0x48C JUMPI DUP1 PUSH4 0xF2FDE38B EQ PUSH3 0x4C3 JUMPI DUP1 PUSH4 0xF46901ED EQ PUSH3 0x4DA JUMPI DUP1 PUSH4 0xF887EA40 EQ PUSH3 0x4F1 JUMPI PUSH1 0x0 DUP1 REVERT JUMPDEST DUP1 PUSH4 0xC0D78655 EQ PUSH3 0x438 JUMPI DUP1 PUSH4 0xC49823B2 EQ PUSH3 0x44F JUMPI DUP1 PUSH4 0xC9C65396 EQ PUSH3 0x475 JUMPI PUSH1 0x0 DUP1 REVERT JUMPDEST DUP1 PUSH4 0xAE416E27 GT PUSH3 0xE4 JUMPI DUP1 PUSH4 0xAE416E27 EQ PUSH3 0x3D5 JUMPI DUP1 PUSH4 0xB4F69A2F EQ PUSH3 0x401 JUMPI DUP1 PUSH4 0xBA5D27D1 EQ PUSH3 0x418 JUMPI DUP1 PUSH4 0xBE378228 EQ PUSH3 0x42F JUMPI PUSH1 0x0 DUP1 REVERT JUMPDEST DUP1 PUSH4 0xA2092A32 EQ PUSH3 0x39E JUMPI DUP1 PUSH4 0xA5258210 EQ PUSH3 0x3B5 JUMPI DUP1 PUSH4 0xA97EAD83 EQ PUSH3 0x3BE JUMPI PUSH1 0x0 DUP1 REVERT JUMPDEST DUP1 PUSH4 0x5FBBC0D2 GT PUSH3 0x183 JUMPI DUP1 PUSH4 0x7B3FA96D GT PUSH3 0x15A JUMPI DUP1 PUSH4 0x7B3FA96D EQ PUSH3 0x2FA JUMPI DUP1 PUSH4 0x8456CB59 EQ PUSH3 0x320 JUMPI DUP1 PUSH4 0x85CFEF96 EQ PUSH3 0x32A JUMPI DUP1 PUSH4 0x8DA5CB5B EQ PUSH3 0x38C JUMPI PUSH1 0x0 DUP1 REVERT JUMPDEST DUP1 PUSH4 0x5FBBC0D2 EQ PUSH3 0x2BE JUMPI DUP1 PUSH4 0x6F28507C EQ PUSH3 0x2E7 JUMPI DUP1 PUSH4 0x715018A6 EQ PUSH3 0x2F0 JUMPI PUSH1 0x0 DUP1 REVERT JUMPDEST DUP1 PUSH4 0x3F4BA83A GT PUSH3 0x1C4 JUMPI DUP1 PUSH4 0x3F4BA83A EQ PUSH3 0x24A JUMPI DUP1 PUSH4 0x55974C4B EQ PUSH3 0x256 JUMPI DUP1 PUSH4 0x574F2BA3 EQ PUSH3 0x296 JUMPI DUP1 PUSH4 0x5C975ABB EQ PUSH3 0x2A9 JUMPI PUSH1 0x0 DUP1 REVERT JUMPDEST DUP1 PUSH4 0x17E7E58 EQ PUSH3 0x1EE JUMPI DUP1 PUSH4 0xE31648F EQ PUSH3 0x21F JUMPI DUP1 PUSH4 0x1E3DD18B EQ PUSH3 0x233 JUMPI JUMPDEST PUSH1 0x0 DUP1 REVERT JUMPDEST PUSH1 0x1 SLOAD PUSH3 0x202 SWAP1 PUSH1 0x1 PUSH1 0x1 PUSH1 0xA0 SHL SUB AND DUP2 JUMP JUMPDEST PUSH1 0x40 MLOAD PUSH1 0x1 PUSH1 0x1 PUSH1 0xA0 SHL SUB SWAP1 SWAP2 AND DUP2 MSTORE PUSH1 0x20 ADD JUMPDEST PUSH1 0x40 MLOAD DUP1 SWAP2 SUB SWAP1 RETURN JUMPDEST PUSH1 0x3 SLOAD PUSH3 0x202 SWAP1 PUSH1 0x1 PUSH1 0x1 PUSH1 0xA0 SHL SUB AND DUP2 JUMP JUMPDEST PUSH3 0x202 PUSH3 0x244 CALLDATASIZE PUSH1 0x4 PUSH3 0xD9E JUMP JUMPDEST PUSH3 0x505 JUMP JUMPDEST PUSH3 0x254 PUSH3 0x530 JUMP JUMPDEST STOP JUMPDEST PUSH3 0x285 PUSH3 0x267 CALLDATASIZE PUSH1 0x4 PUSH3 0xDD5 JUMP JUMPDEST PUSH1 0x1 PUSH1 0x1 PUSH1 0xA0 SHL SUB AND PUSH1 0x0 SWAP1 DUP2 MSTORE PUSH1 0x6 PUSH1 0x20 MSTORE PUSH1 0x40 SWAP1 KECCAK256 SLOAD PUSH1 0xFF AND SWAP1 JUMP JUMPDEST PUSH1 0x40 MLOAD SWAP1 ISZERO ISZERO DUP2 MSTORE PUSH1 0x20 ADD PUSH3 0x216 JUMP JUMPDEST PUSH1 0x5 SLOAD JUMPDEST PUSH1 0x40 MLOAD SWAP1 DUP2 MSTORE PUSH1 0x20 ADD PUSH3 0x216 JUMP JUMPDEST PUSH1 0x3 SLOAD PUSH3 0x285 SWAP1 PUSH1 0x1 PUSH1 0xA0 SHL SWAP1 DIV PUSH1 0xFF AND DUP2 JUMP JUMPDEST PUSH1 0x40 DUP1 MLOAD PUSH1 0x1E DUP2 MSTORE PUSH1 0x19 PUSH1 0x20 DUP3 ADD MSTORE PUSH1 0x5 SWAP2 DUP2 ADD SWAP2 SWAP1 SWAP2 MSTORE PUSH2 0x2710 PUSH1 0x60 DUP3 ADD MSTORE PUSH1 0x80 ADD PUSH3 0x216 JUMP JUMPDEST PUSH3 0x29A PUSH1 0x1E DUP2 JUMP JUMPDEST PUSH3 0x254 PUSH3 0x574 JUMP JUMPDEST PUSH3 0x285 PUSH3 0x30B CALLDATASIZE PUSH1 0x4 PUSH3 0xDD5 JUMP JUMPDEST PUSH1 0x7 PUSH1 0x20 MSTORE PUSH1 0x0 SWAP1 DUP2 MSTORE PUSH1 0x40 SWAP1 KECCAK256 SLOAD PUSH1 0xFF AND DUP2 JUMP JUMPDEST PUSH3 0x254 PUSH3 0x58C JUMP JUMPDEST PUSH3 0x36C PUSH3 0x33B CALLDATASIZE PUSH1 0x4 PUSH3 0xDD5 JUMP JUMPDEST PUSH1 0x1 PUSH1 0x1 PUSH1 0xA0 SHL SUB SWAP1 DUP2 AND PUSH1 0x0 SWAP1 DUP2 MSTORE PUSH1 0x7 PUSH1 0x20 SWAP1 DUP2 MSTORE PUSH1 0x40 DUP1 DUP4 KECCAK256 SLOAD PUSH1 0x8 SWAP1 SWAP3 MSTORE SWAP1 SWAP2 KECCAK256 SLOAD PUSH1 0xFF SWAP1 SWAP2 AND SWAP3 SWAP2 AND SWAP1 JUMP JUMPDEST PUSH1 0x40 DUP1 MLOAD SWAP3 ISZERO ISZERO DUP4 MSTORE PUSH1 0x1 PUSH1 0x1 PUSH1 0xA0 SHL SUB SWAP1 SWAP2 AND PUSH1 0x20 DUP4 ADD MSTORE ADD PUSH3 0x216 JUMP JUMPDEST PUSH1 0x0 SLOAD PUSH1 0x1 PUSH1 0x1 PUSH1 0xA0 SHL SUB AND PUSH3 0x202 JUMP JUMPDEST PUSH3 0x254 PUSH3 0x3AF CALLDATASIZE PUSH1 0x4 PUSH3 0xDD5 JUMP JUMPDEST PUSH3 0x5D6 JUMP JUMPDEST PUSH3 0x29A PUSH1 0x19 DUP2 JUMP JUMPDEST PUSH3 0x254 PUSH3 0x3CF CALLDATASIZE PUSH1 0x4 PUSH3 0xE0B JUMP JUMPDEST PUSH3 0x652 JUMP JUMPDEST PUSH3 0x202 PUSH3 0x3E6 CALLDATASIZE PUSH1 0x4 PUSH3 0xDD5 JUMP JUMPDEST PUSH1 0x8 PUSH1 0x20 MSTORE PUSH1 0x0 SWAP1 DUP2 MSTORE PUSH1 0x40 SWAP1 KECCAK256 SLOAD PUSH1 0x1 PUSH1 0x1 PUSH1 0xA0 SHL SUB AND DUP2 JUMP JUMPDEST PUSH3 0x202 PUSH3 0x412 CALLDATASIZE PUSH1 0x4 PUSH3 0xE55 JUMP JUMPDEST PUSH3 0x75B JUMP JUMPDEST PUSH3 0x254 PUSH3 0x429 CALLDATASIZE PUSH1 0x4 PUSH3 0xE8D JUMP JUMPDEST PUSH3 0x7B7 JUMP JUMPDEST PUSH3 0x29A PUSH1 0x5 DUP2 JUMP JUMPDEST PUSH3 0x254 PUSH3 0x449 CALLDATASIZE PUSH1 0x4 PUSH3 0xDD5 JUMP JUMPDEST PUSH3 0x848 JUMP JUMPDEST PUSH3 0x285 PUSH3 0x460 CALLDATASIZE PUSH1 0x4 PUSH3 0xDD5 JUMP JUMPDEST PUSH1 0x6 PUSH1 0x20 MSTORE PUSH1 0x0 SWAP1 DUP2 MSTORE PUSH1 0x40 SWAP1 KECCAK256 SLOAD PUSH1 0xFF AND DUP2 JUMP JUMPDEST PUSH3 0x202 PUSH3 0x486 CALLDATASIZE PUSH1 0x4 PUSH3 0xE55 JUMP JUMPDEST PUSH3 0x8C4 JUMP JUMPDEST PUSH3 0x202 PUSH3 0x49D CALLDATASIZE PUSH1 0x4 PUSH3 0xE55 JUMP JUMPDEST PUSH1 0x4 PUSH1 0x20 SWAP1 DUP2 MSTORE PUSH1 0x0 SWAP3 DUP4 MSTORE PUSH1 0x40 DUP1 DUP5 KECCAK256 SWAP1 SWAP2 MSTORE SWAP1 DUP3 MSTORE SWAP1 KECCAK256 SLOAD PUSH1 0x1 PUSH1 0x1 PUSH1 0xA0 SHL SUB AND DUP2 JUMP JUMPDEST PUSH3 0x254 PUSH3 0x4D4 CALLDATASIZE PUSH1 0x4 PUSH3 0xDD5 JUMP JUMPDEST PUSH3 0xBCC JUMP JUMPDEST PUSH3 0x254 PUSH3 0x4EB CALLDATASIZE PUSH1 0x4 PUSH3 0xDD5 JUMP JUMPDEST PUSH3 0xC10 JUMP JUMPDEST PUSH1 0x2 SLOAD PUSH3 0x202 SWAP1 PUSH1 0x1 PUSH1 0x1 PUSH1 0xA0 SHL SUB AND DUP2 JUMP JUMPDEST PUSH1 0x5 DUP2 DUP2 SLOAD DUP2 LT PUSH3 0x516 JUMPI PUSH1 0x0 DUP1 REVERT JUMPDEST PUSH1 0x0 SWAP2 DUP3 MSTORE PUSH1 0x20 SWAP1 SWAP2 KECCAK256 ADD SLOAD PUSH1 0x1 PUSH1 0x1 PUSH1 0xA0 SHL SUB AND SWAP1 POP DUP2 JUMP JUMPDEST PUSH3 0x53A PUSH3 0xC9E JUMP JUMPDEST PUSH1 0x3 DUP1 SLOAD PUSH1 0xFF PUSH1 0xA0 SHL NOT AND SWAP1 SSTORE PUSH1 0x40 MLOAD CALLER SWAP1 PUSH32 0x5DB9EE0A495BF2E6FF9C91A7834C1BA4FDD244A5E8AA4E537BD38AEAE4B073AA SWAP1 PUSH1 0x0 SWAP1 LOG2 JUMP JUMPDEST PUSH3 0x57E PUSH3 0xC9E JUMP JUMPDEST PUSH3 0x58A PUSH1 0x0 PUSH3 0xCCD JUMP JUMPDEST JUMP JUMPDEST PUSH3 0x596 PUSH3 0xC9E JUMP JUMPDEST PUSH1 0x3 DUP1 SLOAD PUSH1 0xFF PUSH1 0xA0 SHL NOT AND PUSH1 0x1 PUSH1 0xA0 SHL OR SWAP1 SSTORE PUSH1 0x40 MLOAD CALLER SWAP1 PUSH32 0x62E78CEA01BEE320CD4E420270B5EA74000D11B0C9F74754EBDBFC544B05A258 SWAP1 PUSH1 0x0 SWAP1 LOG2 JUMP JUMPDEST PUSH3 0x5E0 PUSH3 0xC9E JUMP JUMPDEST PUSH1 0x1 PUSH1 0x1 PUSH1 0xA0 SHL SUB DUP2 AND PUSH3 0x608 JUMPI PUSH1 0x40 MLOAD PUSH4 0xD92E233D PUSH1 0xE0 SHL DUP2 MSTORE PUSH1 0x4 ADD PUSH1 0x40 MLOAD DUP1 SWAP2 SUB SWAP1 REVERT JUMPDEST PUSH1 0x3 DUP1 SLOAD PUSH1 0x1 PUSH1 0x1 PUSH1 0xA0 SHL SUB NOT AND PUSH1 0x1 PUSH1 0x1 PUSH1 0xA0 SHL SUB DUP4 AND SWAP1 DUP2 OR SWAP1 SWAP2 SSTORE PUSH1 0x40 MLOAD PUSH32 0xA90DAAC379131812D11A08B83166A4F607749A36C47F239451C1F35B185B46A2 SWAP1 PUSH1 0x0 SWAP1 LOG2 POP JUMP JUMPDEST PUSH3 0x65C PUSH3 0xC9E JUMP JUMPDEST PUSH1 0x1 PUSH1 0x1 PUSH1 0xA0 SHL SUB DUP4 AND PUSH3 0x684 JUMPI PUSH1 0x40 MLOAD PUSH4 0xD92E233D PUSH1 0xE0 SHL DUP2 MSTORE PUSH1 0x4 ADD PUSH1 0x40 MLOAD DUP1 SWAP2 SUB SWAP1 REVERT JUMPDEST DUP1 DUP1 ISZERO PUSH3 0x699 JUMPI POP PUSH1 0x1 PUSH1 0x1 PUSH1 0xA0 SHL SUB DUP3 AND ISZERO JUMPDEST ISZERO PUSH3 0x6B8 JUMPI PUSH1 0x40 MLOAD PUSH4 0xD92E233D PUSH1 0xE0 SHL DUP2 MSTORE PUSH1 0x4 ADD PUSH1 0x40 MLOAD DUP1 SWAP2 SUB SWAP1 REVERT JUMPDEST PUSH1 0x1 PUSH1 0x1 PUSH1 0xA0 SHL SUB DUP4 AND PUSH1 0x0 SWAP1 DUP2 MSTORE PUSH1 0x7 PUSH1 0x20 MSTORE PUSH1 0x40 SWAP1 KECCAK256 DUP1 SLOAD PUSH1 0xFF NOT AND DUP3 ISZERO ISZERO OR SWAP1 SSTORE DUP1 PUSH3 0x6EA JUMPI PUSH1 0x0 PUSH3 0x6EC JUMP JUMPDEST DUP2 JUMPDEST PUSH1 0x1 PUSH1 0x1 PUSH1 0xA0 SHL SUB DUP5 DUP2 AND PUSH1 0x0 DUP2 DUP2 MSTORE PUSH1 0x8 PUSH1 0x20 SWAP1 DUP2 MSTORE PUSH1 0x40 SWAP2 DUP3 SWAP1 KECCAK256 DUP1 SLOAD PUSH1 0x1 PUSH1 0x1 PUSH1 0xA0 SHL SUB NOT AND SWAP6 DUP6 AND SWAP6 SWAP1 SWAP6 OR SWAP1 SWAP5 SSTORE MLOAD DUP5 ISZERO ISZERO DUP2 MSTORE SWAP2 DUP6 AND SWAP3 SWAP1 SWAP2 PUSH32 0x261B3ADA3E776C76FEF449B1FF19E4A768D4D8351061B04CDBF332D5BFA2C4BE SWAP2 ADD PUSH1 0x40 MLOAD DUP1 SWAP2 SUB SWAP1 LOG3 POP POP POP JUMP JUMPDEST PUSH1 0x0 DUP1 PUSH1 0x0 DUP4 PUSH1 0x1 PUSH1 0x1 PUSH1 0xA0 SHL SUB AND DUP6 PUSH1 0x1 PUSH1 0x1 PUSH1 0xA0 SHL SUB AND LT PUSH3 0x782 JUMPI DUP4 DUP6 PUSH3 0x785 JUMP JUMPDEST DUP5 DUP5 JUMPDEST PUSH1 0x1 PUSH1 0x1 PUSH1 0xA0 SHL SUB SWAP2 DUP3 AND PUSH1 0x0 SWAP1 DUP2 MSTORE PUSH1 0x4 PUSH1 0x20 SWAP1 DUP2 MSTORE PUSH1 0x40 DUP1 DUP4 KECCAK256 SWAP4 DUP6 AND DUP4 MSTORE SWAP3 SWAP1 MSTORE KECCAK256 SLOAD AND SWAP3 POP POP POP JUMPDEST SWAP3 SWAP2 POP POP JUMP JUMPDEST PUSH3 0x7C1 PUSH3 0xC9E JUMP JUMPDEST PUSH1 0x1 PUSH1 0x1 PUSH1 0xA0 SHL SUB DUP3 AND PUSH3 0x7E9 JUMPI PUSH1 0x40 MLOAD PUSH4 0xD92E233D PUSH1 0xE0 SHL DUP2 MSTORE PUSH1 0x4 ADD PUSH1 0x40 MLOAD DUP1 SWAP2 SUB SWAP1 REVERT JUMPDEST PUSH1 0x1 PUSH1 0x1 PUSH1 0xA0 SHL SUB DUP3 AND PUSH1 0x0 DUP2 DUP2 MSTORE PUSH1 0x6 PUSH1 0x20 SWAP1 DUP2 MSTORE PUSH1 0x40 SWAP2 DUP3 SWAP1 KECCAK256 DUP1 SLOAD PUSH1 0xFF NOT AND DUP6 ISZERO ISZERO SWAP1 DUP2 OR SWAP1 SWAP2 SSTORE SWAP2 MLOAD SWAP2 DUP3 MSTORE PUSH32 0x27CB2E738BD9AEC3E5A96DB124FDA6677C365FCC053F5789638BF9054F0F1DAB SWAP2 ADD PUSH1 0x40 MLOAD DUP1 SWAP2 SUB SWAP1 LOG2 POP POP JUMP JUMPDEST PUSH3 0x852 PUSH3 0xC9E JUMP JUMPDEST PUSH1 0x1 PUSH1 0x1 PUSH1 0xA0 SHL SUB DUP2 AND PUSH3 0x87A JUMPI PUSH1 0x40 MLOAD PUSH4 0xD92E233D PUSH1 0xE0 SHL DUP2 MSTORE PUSH1 0x4 ADD PUSH1 0x40 MLOAD DUP1 SWAP2 SUB SWAP1 REVERT JUMPDEST PUSH1 0x2 DUP1 SLOAD PUSH1 0x1 PUSH1 0x1 PUSH1 0xA0 SHL SUB NOT AND PUSH1 0x1 PUSH1 0x1 PUSH1 0xA0 SHL SUB DUP4 AND SWAP1 DUP2 OR SWAP1 SWAP2 SSTORE PUSH1 0x40 MLOAD PUSH32 0xC6B438E6A8A59579CE6A4406CBD203B740E0D47B458AAE6596339BCD40C40D15 SWAP1 PUSH1 0x0 SWAP1 LOG2 POP JUMP JUMPDEST PUSH1 0x0 PUSH3 0x8D0 PUSH3 0xD1D JUMP JUMPDEST PUSH1 0x3 SLOAD PUSH1 0x1 PUSH1 0xA0 SHL SWAP1 DIV PUSH1 0xFF AND ISZERO PUSH3 0x8FC JUMPI PUSH1 0x40 MLOAD PUSH4 0x55768C99 PUSH1 0xE1 SHL DUP2 MSTORE PUSH1 0x4 ADD PUSH1 0x40 MLOAD DUP1 SWAP2 SUB SWAP1 REVERT JUMPDEST DUP2 PUSH1 0x1 PUSH1 0x1 PUSH1 0xA0 SHL SUB AND DUP4 PUSH1 0x1 PUSH1 0x1 PUSH1 0xA0 SHL SUB AND SUB PUSH3 0x92F JUMPI PUSH1 0x40 MLOAD PUSH4 0xBD969EB PUSH1 0xE4 SHL DUP2 MSTORE PUSH1 0x4 ADD PUSH1 0x40 MLOAD DUP1 SWAP2 SUB SWAP1 REVERT JUMPDEST PUSH1 0x1 PUSH1 0x1 PUSH1 0xA0 SHL SUB DUP4 AND PUSH3 0x957 JUMPI PUSH1 0x40 MLOAD PUSH4 0xD92E233D PUSH1 0xE0 SHL DUP2 MSTORE PUSH1 0x4 ADD PUSH1 0x40 MLOAD DUP1 SWAP2 SUB SWAP1 REVERT JUMPDEST PUSH1 0x1 PUSH1 0x1 PUSH1 0xA0 SHL SUB DUP3 AND PUSH3 0x97F JUMPI PUSH1 0x40 MLOAD PUSH4 0xD92E233D PUSH1 0xE0 SHL DUP2 MSTORE PUSH1 0x4 ADD PUSH1 0x40 MLOAD DUP1 SWAP2 SUB SWAP1 REVERT JUMPDEST PUSH1 0x0 DUP1 DUP4 PUSH1 0x1 PUSH1 0x1 PUSH1 0xA0 SHL SUB AND DUP6 PUSH1 0x1 PUSH1 0x1 PUSH1 0xA0 SHL SUB AND LT PUSH3 0x9A4 JUMPI DUP4 DUP6 PUSH3 0x9A7 JUMP JUMPDEST DUP5 DUP5 JUMPDEST PUSH1 0x1 PUSH1 0x1 PUSH1 0xA0 SHL SUB DUP1 DUP4 AND PUSH1 0x0 SWAP1 DUP2 MSTORE PUSH1 0x4 PUSH1 0x20 SWAP1 DUP2 MSTORE PUSH1 0x40 DUP1 DUP4 KECCAK256 DUP5 DUP7 AND DUP5 MSTORE SWAP1 SWAP2 MSTORE SWAP1 KECCAK256 SLOAD SWAP3 SWAP5 POP SWAP1 SWAP3 POP AND ISZERO PUSH3 0xA28 JUMPI PUSH1 0x1 PUSH1 0x1 PUSH1 0xA0 SHL SUB DUP3 DUP2 AND PUSH1 0x0 SWAP1 DUP2 MSTORE PUSH1 0x4 PUSH1 0x20 DUP2 DUP2 MSTORE PUSH1 0x40 DUP1 DUP5 KECCAK256 DUP7 DUP7 AND DUP6 MSTORE SWAP1 SWAP2 MSTORE SWAP2 DUP3 SWAP1 KECCAK256 SLOAD SWAP2 MLOAD PUSH4 0x3A55C9AD PUSH1 0xE0 SHL DUP2 MSTORE SWAP2 SWAP1 SWAP3 AND SWAP2 DUP2 ADD SWAP2 SWAP1 SWAP2 MSTORE PUSH1 0x24 ADD JUMPDEST PUSH1 0x40 MLOAD DUP1 SWAP2 SUB SWAP1 REVERT JUMPDEST PUSH1 0x40 MLOAD PUSH12 0xFFFFFFFFFFFFFFFFFFFFFFFF NOT PUSH1 0x60 DUP5 DUP2 SHL DUP3 AND PUSH1 0x20 DUP5 ADD MSTORE DUP4 SWAP1 SHL AND PUSH1 0x34 DUP3 ADD MSTORE PUSH1 0x0 SWAP1 PUSH1 0x48 ADD PUSH1 0x40 MLOAD PUSH1 0x20 DUP2 DUP4 SUB SUB DUP2 MSTORE SWAP1 PUSH1 0x40 MSTORE DUP1 MLOAD SWAP1 PUSH1 0x20 ADD KECCAK256 SWAP1 POP DUP1 DUP4 DUP4 PUSH1 0x40 MLOAD PUSH3 0xA7D SWAP1 PUSH3 0xD90 JUMP JUMPDEST PUSH1 0x1 PUSH1 0x1 PUSH1 0xA0 SHL SUB SWAP3 DUP4 AND DUP2 MSTORE SWAP2 AND PUSH1 0x20 DUP3 ADD MSTORE PUSH1 0x40 ADD DUP2 SWAP1 PUSH1 0x40 MLOAD DUP1 SWAP2 SUB SWAP1 PUSH1 0x0 CREATE2 SWAP1 POP DUP1 ISZERO DUP1 ISZERO PUSH3 0xAB5 JUMPI RETURNDATASIZE PUSH1 0x0 DUP1 RETURNDATACOPY RETURNDATASIZE PUSH1 0x0 REVERT JUMPDEST POP PUSH1 0x1 PUSH1 0x1 PUSH1 0xA0 SHL SUB DUP1 DUP6 AND PUSH1 0x0 DUP2 DUP2 MSTORE PUSH1 0x4 PUSH1 0x20 DUP2 DUP2 MSTORE PUSH1 0x40 DUP1 DUP5 KECCAK256 DUP10 DUP8 AND DUP1 DUP7 MSTORE SWAP1 DUP4 MSTORE DUP2 DUP6 KECCAK256 DUP1 SLOAD SWAP8 DUP10 AND PUSH1 0x1 PUSH1 0x1 PUSH1 0xA0 SHL SUB NOT SWAP9 DUP10 AND DUP2 OR SWAP1 SWAP2 SSTORE SWAP4 DUP4 MSTORE DUP2 DUP6 KECCAK256 DUP7 DUP7 MSTORE SWAP1 SWAP3 MSTORE DUP4 KECCAK256 DUP1 SLOAD DUP7 AND DUP4 OR SWAP1 SSTORE PUSH1 0x5 DUP1 SLOAD PUSH1 0x1 DUP2 DUP2 ADD DUP4 SSTORE SWAP5 DUP3 SWAP1 MSTORE PUSH32 0x36B6384B5ECA791C62761152D0C79BB0604C104A5FB6F4EB0703F3154BB3DB0 ADD DUP1 SLOAD SWAP1 SWAP7 AND SWAP1 SWAP3 OR SWAP1 SWAP5 SSTORE SLOAD SWAP4 SWAP8 POP SWAP2 SWAP3 SWAP1 SWAP2 PUSH32 0xD3648BD0F6BA80134A33BA9275AC585D9D315F0AD8355CDDEFDE31AFA28D0E9 SWAP2 DUP9 SWAP2 PUSH3 0xB7D SWAP2 PUSH3 0xEBC JUMP JUMPDEST PUSH1 0x40 DUP1 MLOAD PUSH1 0x1 PUSH1 0x1 PUSH1 0xA0 SHL SUB SWAP1 SWAP4 AND DUP4 MSTORE PUSH1 0x20 DUP4 ADD SWAP2 SWAP1 SWAP2 MSTORE ADD PUSH1 0x40 MLOAD DUP1 SWAP2 SUB SWAP1 LOG3 POP POP POP PUSH3 0x7B1 PUSH1 0x1 PUSH32 0x9B779B17422D0DF92223018B32B4D1FA46E071723D6817E2486D003BECC55F00 SSTORE JUMP JUMPDEST PUSH3 0xBD6 PUSH3 0xC9E JUMP JUMPDEST PUSH1 0x1 PUSH1 0x1 PUSH1 0xA0 SHL SUB DUP2 AND PUSH3 0xC02 JUMPI PUSH1 0x40 MLOAD PUSH4 0x1E4FBDF7 PUSH1 0xE0 SHL DUP2 MSTORE PUSH1 0x0 PUSH1 0x4 DUP3 ADD MSTORE PUSH1 0x24 ADD PUSH3 0xA1F JUMP JUMPDEST PUSH3 0xC0D DUP2 PUSH3 0xCCD JUMP JUMPDEST POP JUMP JUMPDEST PUSH3 0xC1A PUSH3 0xC9E JUMP JUMPDEST PUSH1 0x1 PUSH1 0x1 PUSH1 0xA0 SHL SUB DUP2 AND PUSH3 0xC42 JUMPI PUSH1 0x40 MLOAD PUSH4 0xD92E233D PUSH1 0xE0 SHL DUP2 MSTORE PUSH1 0x4 ADD PUSH1 0x40 MLOAD DUP1 SWAP2 SUB SWAP1 REVERT JUMPDEST PUSH1 0x1 SLOAD PUSH1 0x40 MLOAD PUSH1 0x1 PUSH1 0x1 PUSH1 0xA0 SHL SUB DUP1 DUP5 AND SWAP3 AND SWAP1 PUSH32 0x8F93286D6F131E956D1AA672D3ECDC817F24EFC20B223B0DE5D591F454EDC347 SWAP1 PUSH1 0x0 SWAP1 LOG3 PUSH1 0x1 DUP1 SLOAD PUSH1 0x1 PUSH1 0x1 PUSH1 0xA0 SHL SUB NOT AND PUSH1 0x1 PUSH1 0x1 PUSH1 0xA0 SHL SUB SWAP3 SWAP1 SWAP3 AND SWAP2 SWAP1 SWAP2 OR SWAP1 SSTORE JUMP JUMPDEST PUSH1 0x0 SLOAD PUSH1 0x1 PUSH1 0x1 PUSH1 0xA0 SHL SUB AND CALLER EQ PUSH3 0x58A JUMPI PUSH1 0x40 MLOAD PUSH4 0x118CDAA7 PUSH1 0xE0 SHL DUP2 MSTORE CALLER PUSH1 0x4 DUP3 ADD MSTORE PUSH1 0x24 ADD PUSH3 0xA1F JUMP JUMPDEST PUSH1 0x0 DUP1 SLOAD PUSH1 0x1 PUSH1 0x1 PUSH1 0xA0 SHL SUB DUP4 DUP2 AND PUSH1 0x1 PUSH1 0x1 PUSH1 0xA0 SHL SUB NOT DUP4 AND DUP2 OR DUP5 SSTORE PUSH1 0x40 MLOAD SWAP2 SWAP1 SWAP3 AND SWAP3 DUP4 SWAP2 PUSH32 0x8BE0079C531659141344CD1FD0A4F28419497F9722A3DAAFE3B4186F6B6457E0 SWAP2 SWAP1 LOG3 POP POP JUMP JUMPDEST PUSH3 0xD27 PUSH3 0xD4D JUMP JUMPDEST PUSH1 0x2 PUSH32 0x9B779B17422D0DF92223018B32B4D1FA46E071723D6817E2486D003BECC55F00 SSTORE JUMP JUMPDEST PUSH32 0x9B779B17422D0DF92223018B32B4D1FA46E071723D6817E2486D003BECC55F00 SLOAD PUSH1 0x2 SUB PUSH3 0x58A JUMPI PUSH1 0x40 MLOAD PUSH4 0x3EE5AEB5 PUSH1 0xE0 SHL DUP2 MSTORE PUSH1 0x4 ADD PUSH1 0x40 MLOAD DUP1 SWAP2 SUB SWAP1 REVERT JUMPDEST PUSH2 0x24DD DUP1 PUSH3 0xEDF DUP4 CODECOPY ADD SWAP1 JUMP JUMPDEST PUSH1 0x0 PUSH1 0x20 DUP3 DUP5 SUB SLT ISZERO PUSH3 0xDB1 JUMPI PUSH1 0x0 DUP1 REVERT JUMPDEST POP CALLDATALOAD SWAP2 SWAP1 POP JUMP JUMPDEST DUP1 CALLDATALOAD PUSH1 0x1 PUSH1 0x1 PUSH1 0xA0 SHL SUB DUP2 AND DUP2 EQ PUSH3 0xDD0 JUMPI PUSH1 0x0 DUP1 REVERT JUMPDEST SWAP2 SWAP1 POP JUMP JUMPDEST PUSH1 0x0 PUSH1 0x20 DUP3 DUP5 SUB SLT ISZERO PUSH3 0xDE8 JUMPI PUSH1 0x0 DUP1 REVERT JUMPDEST PUSH3 0xDF3 DUP3 PUSH3 0xDB8 JUMP JUMPDEST SWAP4 SWAP3 POP POP POP JUMP JUMPDEST DUP1 CALLDATALOAD DUP1 ISZERO ISZERO DUP2 EQ PUSH3 0xDD0 JUMPI PUSH1 0x0 DUP1 REVERT JUMPDEST PUSH1 0x0 DUP1 PUSH1 0x0 PUSH1 0x60 DUP5 DUP7 SUB SLT ISZERO PUSH3 0xE21 JUMPI PUSH1 0x0 DUP1 REVERT JUMPDEST PUSH3 0xE2C DUP5 PUSH3 0xDB8 JUMP JUMPDEST SWAP3 POP PUSH3 0xE3C PUSH1 0x20 DUP6 ADD PUSH3 0xDB8 JUMP JUMPDEST SWAP2 POP PUSH3 0xE4C PUSH1 0x40 DUP6 ADD PUSH3 0xDFA JUMP JUMPDEST SWAP1 POP SWAP3 POP SWAP3 POP SWAP3 JUMP JUMPDEST PUSH1 0x0 DUP1 PUSH1 0x40 DUP4 DUP6 SUB SLT ISZERO PUSH3 0xE69 JUMPI PUSH1 0x0 DUP1 REVERT JUMPDEST PUSH3 0xE74 DUP4 PUSH3 0xDB8 JUMP JUMPDEST SWAP2 POP PUSH3 0xE84 PUSH1 0x20 DUP5 ADD PUSH3 0xDB8 JUMP JUMPDEST SWAP1 POP SWAP3 POP SWAP3 SWAP1 POP JUMP JUMPDEST PUSH1 0x0 DUP1 PUSH1 0x40 DUP4 DUP6 SUB SLT ISZERO PUSH3 0xEA1 JUMPI PUSH1 0x0 DUP1 REVERT JUMPDEST PUSH3 0xEAC DUP4 PUSH3 0xDB8 JUMP JUMPDEST SWAP2 POP PUSH3 0xE84 PUSH1 0x20 DUP5 ADD PUSH3 0xDFA JUMP JUMPDEST DUP2 DUP2 SUB DUP2 DUP2 GT ISZERO PUSH3 0x7B1 JUMPI PUSH4 0x4E487B71 PUSH1 0xE0 SHL PUSH1 0x0 MSTORE PUSH1 0x11 PUSH1 0x4 MSTORE PUSH1 0x24 PUSH1 0x0 REVERT INVALID PUSH1 0xE0 PUSH1 0x40 MSTORE CALLVALUE DUP1 ISZERO PUSH3 0x11 JUMPI PUSH1 0x0 DUP1 REVERT JUMPDEST POP PUSH1 0x40 MLOAD PUSH3 0x24DD CODESIZE SUB DUP1 PUSH3 0x24DD DUP4 CODECOPY DUP2 ADD PUSH1 0x40 DUP2 SWAP1 MSTORE PUSH3 0x34 SWAP2 PUSH3 0x156 JUMP JUMPDEST PUSH1 0x40 MLOAD DUP1 PUSH1 0x40 ADD PUSH1 0x40 MSTORE DUP1 PUSH1 0x11 DUP2 MSTORE PUSH1 0x20 ADD PUSH17 0x2A34B6B129BBB0B8102628102A37B5B2B7 PUSH1 0x79 SHL DUP2 MSTORE POP PUSH1 0x40 MLOAD DUP1 PUSH1 0x40 ADD PUSH1 0x40 MSTORE DUP1 PUSH1 0x8 DUP2 MSTORE PUSH1 0x20 ADD PUSH8 0x54494D42532D4C5 PUSH1 0xC4 SHL DUP2 MSTORE POP DUP2 PUSH1 0x3 SWAP1 DUP2 PUSH3 0x90 SWAP2 SWAP1 PUSH3 0x235 JUMP JUMPDEST POP PUSH1 0x4 PUSH3 0x9F DUP3 DUP3 PUSH3 0x235 JUMP JUMPDEST POP POP POP PUSH1 0x1 PUSH3 0xBB PUSH3 0xB8 PUSH3 0x115 PUSH1 0x20 SHL PUSH1 0x20 SHR JUMP JUMPDEST SWAP1 JUMP JUMPDEST SSTORE PUSH1 0x1 PUSH1 0x1 PUSH1 0xA0 SHL SUB DUP3 AND ISZERO DUP1 PUSH3 0xDA JUMPI POP PUSH1 0x1 PUSH1 0x1 PUSH1 0xA0 SHL SUB DUP2 AND ISZERO JUMPDEST ISZERO PUSH3 0xF9 JUMPI PUSH1 0x40 MLOAD PUSH4 0xD92E233D PUSH1 0xE0 SHL DUP2 MSTORE PUSH1 0x4 ADD PUSH1 0x40 MLOAD DUP1 SWAP2 SUB SWAP1 REVERT JUMPDEST CALLER PUSH1 0x80 MSTORE PUSH1 0x1 PUSH1 0x1 PUSH1 0xA0 SHL SUB SWAP2 DUP3 AND PUSH1 0xA0 MSTORE AND PUSH1 0xC0 MSTORE PUSH3 0x301 JUMP JUMPDEST PUSH32 0x9B779B17422D0DF92223018B32B4D1FA46E071723D6817E2486D003BECC55F00 SWAP1 JUMP JUMPDEST DUP1 MLOAD PUSH1 0x1 PUSH1 0x1 PUSH1 0xA0 SHL SUB DUP2 AND DUP2 EQ PUSH3 0x151 JUMPI PUSH1 0x0 DUP1 REVERT JUMPDEST SWAP2 SWAP1 POP JUMP JUMPDEST PUSH1 0x0 DUP1 PUSH1 0x40 DUP4 DUP6 SUB SLT ISZERO PUSH3 0x16A JUMPI PUSH1 0x0 DUP1 REVERT JUMPDEST PUSH3 0x175 DUP4 PUSH3 0x139 JUMP JUMPDEST SWAP2 POP PUSH3 0x185 PUSH1 0x20 DUP5 ADD PUSH3 0x139 JUMP JUMPDEST SWAP1 POP SWAP3 POP SWAP3 SWAP1 POP JUMP JUMPDEST PUSH4 0x4E487B71 PUSH1 0xE0 SHL PUSH1 0x0 MSTORE PUSH1 0x41 PUSH1 0x4 MSTORE PUSH1 0x24 PUSH1 0x0 REVERT JUMPDEST PUSH1 0x1 DUP2 DUP2 SHR SWAP1 DUP3 AND DUP1 PUSH3 0x1B9 JUMPI PUSH1 0x7F DUP3 AND SWAP2 POP JUMPDEST PUSH1 0x20 DUP3 LT DUP2 SUB PUSH3 0x1DA JUMPI PUSH4 0x4E487B71 PUSH1 0xE0 SHL PUSH1 0x0 MSTORE PUSH1 0x22 PUSH1 0x4 MSTORE PUSH1 0x24 PUSH1 0x0 REVERT JUMPDEST POP SWAP2 SWAP1 POP JUMP JUMPDEST PUSH1 0x1F DUP3 GT ISZERO PUSH3 0x230 JUMPI PUSH1 0x0 DUP2 PUSH1 0x0 MSTORE PUSH1 0x20 PUSH1 0x0 KECCAK256 PUSH1 0x1F DUP6 ADD PUSH1 0x5 SHR DUP2 ADD PUSH1 0x20 DUP7 LT ISZERO PUSH3 0x20B JUMPI POP DUP1 JUMPDEST PUSH1 0x1F DUP6 ADD PUSH1 0x5 SHR DUP3 ADD SWAP2 POP JUMPDEST DUP2 DUP2 LT ISZERO PUSH3 0x22C JUMPI DUP3 DUP2 SSTORE PUSH1 0x1 ADD PUSH3 0x217 JUMP JUMPDEST POP POP POP JUMPDEST POP POP POP JUMP JUMPDEST DUP2 MLOAD PUSH1 0x1 PUSH1 0x1 PUSH1 0x40 SHL SUB DUP2 GT ISZERO PUSH3 0x251 JUMPI PUSH3 0x251 PUSH3 0x18E JUMP JUMPDEST PUSH3 0x269 DUP2 PUSH3 0x262 DUP5 SLOAD PUSH3 0x1A4 JUMP JUMPDEST DUP5 PUSH3 0x1E0 JUMP JUMPDEST PUSH1 0x20 DUP1 PUSH1 0x1F DUP4 GT PUSH1 0x1 DUP2 EQ PUSH3 0x2A1 JUMPI PUSH1 0x0 DUP5 ISZERO PUSH3 0x288 JUMPI POP DUP6 DUP4 ADD MLOAD JUMPDEST PUSH1 0x0 NOT PUSH1 0x3 DUP7 SWAP1 SHL SHR NOT AND PUSH1 0x1 DUP6 SWAP1 SHL OR DUP6 SSTORE PUSH3 0x22C JUMP JUMPDEST PUSH1 0x0 DUP6 DUP2 MSTORE PUSH1 0x20 DUP2 KECCAK256 PUSH1 0x1F NOT DUP7 AND SWAP2 JUMPDEST DUP3 DUP2 LT ISZERO PUSH3 0x2D2 JUMPI DUP9 DUP7 ADD MLOAD DUP3 SSTORE SWAP5 DUP5 ADD SWAP5 PUSH1 0x1 SWAP1 SWAP2 ADD SWAP1 DUP5 ADD PUSH3 0x2B1 JUMP JUMPDEST POP DUP6 DUP3 LT ISZERO PUSH3 0x2F1 JUMPI DUP8 DUP6 ADD MLOAD PUSH1 0x0 NOT PUSH1 0x3 DUP9 SWAP1 SHL PUSH1 0xF8 AND SHR NOT AND DUP2 SSTORE JUMPDEST POP POP POP POP POP PUSH1 0x1 SWAP1 DUP2 SHL ADD SWAP1 SSTORE POP JUMP JUMPDEST PUSH1 0x80 MLOAD PUSH1 0xA0 MLOAD PUSH1 0xC0 MLOAD PUSH2 0x20FD PUSH3 0x3E0 PUSH1 0x0 CODECOPY PUSH1 0x0 DUP2 DUP2 PUSH2 0x326 ADD MSTORE DUP2 DUP2 PUSH2 0x4F1 ADD MSTORE DUP2 DUP2 PUSH2 0x612 ADD MSTORE DUP2 DUP2 PUSH2 0x89F ADD MSTORE DUP2 DUP2 PUSH2 0x998 ADD MSTORE DUP2 DUP2 PUSH2 0xA6D ADD MSTORE DUP2 DUP2 PUSH2 0xD10 ADD MSTORE DUP2 DUP2 PUSH2 0xE2C ADD MSTORE DUP2 DUP2 PUSH2 0xF65 ADD MSTORE DUP2 DUP2 PUSH2 0x102C ADD MSTORE DUP2 DUP2 PUSH2 0x1293 ADD MSTORE DUP2 DUP2 PUSH2 0x131A ADD MSTORE PUSH2 0x1404 ADD MSTORE PUSH1 0x0 DUP2 DUP2 PUSH2 0x1C1 ADD MSTORE DUP2 DUP2 PUSH2 0x4B6 ADD MSTORE DUP2 DUP2 PUSH2 0x584 ADD MSTORE DUP2 DUP2 PUSH2 0x864 ADD MSTORE DUP2 DUP2 PUSH2 0x95E ADD MSTORE DUP2 DUP2 PUSH2 0x9D7 ADD MSTORE DUP2 DUP2 PUSH2 0xCD5 ADD MSTORE DUP2 DUP2 PUSH2 0xD9E ADD MSTORE DUP2 DUP2 PUSH2 0xF31 ADD MSTORE DUP2 DUP2 PUSH2 0xFA1 ADD MSTORE DUP2 DUP2 PUSH2 0x11B5 ADD MSTORE DUP2 DUP2 PUSH2 0x123C ADD MSTORE PUSH2 0x137C ADD MSTORE PUSH1 0x0 DUP2 DUP2 PUSH2 0x2FF ADD MSTORE PUSH2 0x1D15 ADD MSTORE PUSH2 0x20FD PUSH1 0x0 RETURN INVALID PUSH1 0x80 PUSH1 0x40 MSTORE CALLVALUE DUP1 ISZERO PUSH2 0x10 JUMPI PUSH1 0x0 DUP1 REVERT JUMPDEST POP PUSH1 0x4 CALLDATASIZE LT PUSH2 0x142 JUMPI PUSH1 0x0 CALLDATALOAD PUSH1 0xE0 SHR DUP1 PUSH4 0x70A08231 GT PUSH2 0xB8 JUMPI DUP1 PUSH4 0xBA9A7A56 GT PUSH2 0x7C JUMPI DUP1 PUSH4 0xBA9A7A56 EQ PUSH2 0x2DE JUMPI DUP1 PUSH4 0xBC25CF77 EQ PUSH2 0x2E7 JUMPI DUP1 PUSH4 0xC45A0155 EQ PUSH2 0x2FA JUMPI DUP1 PUSH4 0xD21220A7 EQ PUSH2 0x321 JUMPI DUP1 PUSH4 0xDD62ED3E EQ PUSH2 0x348 JUMPI DUP1 PUSH4 0xFFF6CAE9 EQ PUSH2 0x381 JUMPI PUSH1 0x0 DUP1 REVERT JUMPDEST DUP1 PUSH4 0x70A08231 EQ PUSH2 0x269 JUMPI DUP1 PUSH4 0x7464FC3D EQ PUSH2 0x292 JUMPI DUP1 PUSH4 0x89AFCB44 EQ PUSH2 0x29B JUMPI DUP1 PUSH4 0x95D89B41 EQ PUSH2 0x2C3 JUMPI DUP1 PUSH4 0xA9059CBB EQ PUSH2 0x2CB JUMPI PUSH1 0x0 DUP1 REVERT JUMPDEST DUP1 PUSH4 0x23B872DD GT PUSH2 0x10A JUMPI DUP1 PUSH4 0x23B872DD EQ PUSH2 0x20D JUMPI DUP1 PUSH4 0x313CE567 EQ PUSH2 0x220 JUMPI DUP1 PUSH4 0x5909C0D5 EQ PUSH2 0x22F JUMPI DUP1 PUSH4 0x5A3D5493 EQ PUSH2 0x238 JUMPI DUP1 PUSH4 0x6A627842 EQ PUSH2 0x241 JUMPI DUP1 PUSH4 0x6D9A640A EQ PUSH2 0x254 JUMPI PUSH1 0x0 DUP1 REVERT JUMPDEST DUP1 PUSH4 0x6FDDE03 EQ PUSH2 0x147 JUMPI DUP1 PUSH4 0x902F1AC EQ PUSH2 0x165 JUMPI DUP1 PUSH4 0x95EA7B3 EQ PUSH2 0x199 JUMPI DUP1 PUSH4 0xDFE1681 EQ PUSH2 0x1BC JUMPI DUP1 PUSH4 0x18160DDD EQ PUSH2 0x1FB JUMPI JUMPDEST PUSH1 0x0 DUP1 REVERT JUMPDEST PUSH2 0x14F PUSH2 0x389 JUMP JUMPDEST PUSH1 0x40 MLOAD PUSH2 0x15C SWAP2 SWAP1 PUSH2 0x1E46 JUMP JUMPDEST PUSH1 0x40 MLOAD DUP1 SWAP2 SUB SWAP1 RETURN JUMPDEST PUSH2 0x16D PUSH2 0x41B JUMP JUMPDEST PUSH1 0x40 DUP1 MLOAD PUSH1 0x1 PUSH1 0x1 PUSH1 0x70 SHL SUB SWAP5 DUP6 AND DUP2 MSTORE SWAP4 SWAP1 SWAP3 AND PUSH1 0x20 DUP5 ADD MSTORE PUSH4 0xFFFFFFFF AND SWAP1 DUP3 ADD MSTORE PUSH1 0x60 ADD PUSH2 0x15C JUMP JUMPDEST PUSH2 0x1AC PUSH2 0x1A7 CALLDATASIZE PUSH1 0x4 PUSH2 0x1E8E JUMP JUMPDEST PUSH2 0x445 JUMP JUMPDEST PUSH1 0x40 MLOAD SWAP1 ISZERO ISZERO DUP2 MSTORE PUSH1 0x20 ADD PUSH2 0x15C JUMP JUMPDEST PUSH2 0x1E3 PUSH32 0x0 DUP2 JUMP JUMPDEST PUSH1 0x40 MLOAD PUSH1 0x1 PUSH1 0x1 PUSH1 0xA0 SHL SUB SWAP1 SWAP2 AND DUP2 MSTORE PUSH1 0x20 ADD PUSH2 0x15C JUMP JUMPDEST PUSH1 0x2 SLOAD JUMPDEST PUSH1 0x40 MLOAD SWAP1 DUP2 MSTORE PUSH1 0x20 ADD PUSH2 0x15C JUMP JUMPDEST PUSH2 0x1AC PUSH2 0x21B CALLDATASIZE PUSH1 0x4 PUSH2 0x1EBA JUMP JUMPDEST PUSH2 0x45F JUMP JUMPDEST PUSH1 0x40 MLOAD PUSH1 0x12 DUP2 MSTORE PUSH1 0x20 ADD PUSH2 0x15C JUMP JUMPDEST PUSH2 0x1FF PUSH1 0x6 SLOAD DUP2 JUMP JUMPDEST PUSH2 0x1FF PUSH1 0x7 SLOAD DUP2 JUMP JUMPDEST PUSH2 0x1FF PUSH2 0x24F CALLDATASIZE PUSH1 0x4 PUSH2 0x1EFB JUMP JUMPDEST PUSH2 0x483 JUMP JUMPDEST PUSH2 0x267 PUSH2 0x262 CALLDATASIZE PUSH1 0x4 PUSH2 0x1F18 JUMP JUMPDEST PUSH2 0x809 JUMP JUMPDEST STOP JUMPDEST PUSH2 0x1FF PUSH2 0x277 CALLDATASIZE PUSH1 0x4 PUSH2 0x1EFB JUMP JUMPDEST PUSH1 0x1 PUSH1 0x1 PUSH1 0xA0 SHL SUB AND PUSH1 0x0 SWAP1 DUP2 MSTORE PUSH1 0x20 DUP2 SWAP1 MSTORE PUSH1 0x40 SWAP1 KECCAK256 SLOAD SWAP1 JUMP JUMPDEST PUSH2 0x1FF PUSH1 0x8 SLOAD DUP2 JUMP JUMPDEST PUSH2 0x2AE PUSH2 0x2A9 CALLDATASIZE PUSH1 0x4 PUSH2 0x1EFB JUMP JUMPDEST PUSH2 0xCA1 JUMP JUMPDEST PUSH1 0x40 DUP1 MLOAD SWAP3 DUP4 MSTORE PUSH1 0x20 DUP4 ADD SWAP2 SWAP1 SWAP2 MSTORE ADD PUSH2 0x15C JUMP JUMPDEST PUSH2 0x14F PUSH2 0x113F JUMP JUMPDEST PUSH2 0x1AC PUSH2 0x2D9 CALLDATASIZE PUSH1 0x4 PUSH2 0x1E8E JUMP JUMPDEST PUSH2 0x114E JUMP JUMPDEST PUSH2 0x1FF PUSH2 0x3E8 DUP2 JUMP JUMPDEST PUSH2 0x267 PUSH2 0x2F5 CALLDATASIZE PUSH1 0x4 PUSH2 0x1EFB JUMP JUMPDEST PUSH2 0x115C JUMP JUMPDEST PUSH2 0x1E3 PUSH32 0x0 DUP2 JUMP JUMPDEST PUSH2 0x1E3 PUSH32 0x0 DUP2 JUMP JUMPDEST PUSH2 0x1FF PUSH2 0x356 CALLDATASIZE PUSH1 0x4 PUSH2 0x1F51 JUMP JUMPDEST PUSH1 0x1 PUSH1 0x1 PUSH1 0xA0 SHL SUB SWAP2 DUP3 AND PUSH1 0x0 SWAP1 DUP2 MSTORE PUSH1 0x1 PUSH1 0x20 SWAP1 DUP2 MSTORE PUSH1 0x40 DUP1 DUP4 KECCAK256 SWAP4 SWAP1 SWAP5 AND DUP3 MSTORE SWAP2 SWAP1 SWAP2 MSTORE KECCAK256 SLOAD SWAP1 JUMP JUMPDEST PUSH2 0x267 PUSH2 0x135B JUMP JUMPDEST PUSH1 0x60 PUSH1 0x3 DUP1 SLOAD PUSH2 0x398 SWAP1 PUSH2 0x1F8A JUMP JUMPDEST DUP1 PUSH1 0x1F ADD PUSH1 0x20 DUP1 SWAP2 DIV MUL PUSH1 0x20 ADD PUSH1 0x40 MLOAD SWAP1 DUP2 ADD PUSH1 0x40 MSTORE DUP1 SWAP3 SWAP2 SWAP1 DUP2 DUP2 MSTORE PUSH1 0x20 ADD DUP3 DUP1 SLOAD PUSH2 0x3C4 SWAP1 PUSH2 0x1F8A JUMP JUMPDEST DUP1 ISZERO PUSH2 0x411 JUMPI DUP1 PUSH1 0x1F LT PUSH2 0x3E6 JUMPI PUSH2 0x100 DUP1 DUP4 SLOAD DIV MUL DUP4 MSTORE SWAP2 PUSH1 0x20 ADD SWAP2 PUSH2 0x411 JUMP JUMPDEST DUP3 ADD SWAP2 SWAP1 PUSH1 0x0 MSTORE PUSH1 0x20 PUSH1 0x0 KECCAK256 SWAP1 JUMPDEST DUP2 SLOAD DUP2 MSTORE SWAP1 PUSH1 0x1 ADD SWAP1 PUSH1 0x20 ADD DUP1 DUP4 GT PUSH2 0x3F4 JUMPI DUP3 SWAP1 SUB PUSH1 0x1F AND DUP3 ADD SWAP2 JUMPDEST POP POP POP POP POP SWAP1 POP SWAP1 JUMP JUMPDEST PUSH1 0x5 SLOAD PUSH1 0x1 PUSH1 0x1 PUSH1 0x70 SHL SUB DUP1 DUP3 AND SWAP3 PUSH1 0x1 PUSH1 0x70 SHL DUP4 DIV SWAP1 SWAP2 AND SWAP2 PUSH1 0x1 PUSH1 0xE0 SHL SWAP1 DIV PUSH4 0xFFFFFFFF AND SWAP1 JUMP JUMPDEST PUSH1 0x0 CALLER PUSH2 0x453 DUP2 DUP6 DUP6 PUSH2 0x14AC JUMP JUMPDEST PUSH1 0x1 SWAP2 POP POP JUMPDEST SWAP3 SWAP2 POP POP JUMP JUMPDEST PUSH1 0x0 CALLER PUSH2 0x46D DUP6 DUP3 DUP6 PUSH2 0x14B9 JUMP JUMPDEST PUSH2 0x478 DUP6 DUP6 DUP6 PUSH2 0x1538 JUMP JUMPDEST POP PUSH1 0x1 SWAP5 SWAP4 POP POP POP POP JUMP JUMPDEST PUSH1 0x0 PUSH2 0x48D PUSH2 0x1597 JUMP JUMPDEST PUSH1 0x1 PUSH1 0x1 PUSH1 0xA0 SHL SUB DUP3 AND PUSH2 0x4B4 JUMPI PUSH1 0x40 MLOAD PUSH4 0xD92E233D PUSH1 0xE0 SHL DUP2 MSTORE PUSH1 0x4 ADD PUSH1 0x40 MLOAD DUP1 SWAP2 SUB SWAP1 REVERT JUMPDEST PUSH32 0x0 PUSH1 0x1 PUSH1 0x1 PUSH1 0xA0 SHL SUB AND DUP3 PUSH1 0x1 PUSH1 0x1 PUSH1 0xA0 SHL SUB AND EQ DUP1 PUSH2 0x525 JUMPI POP PUSH32 0x0 PUSH1 0x1 PUSH1 0x1 PUSH1 0xA0 SHL SUB AND DUP3 PUSH1 0x1 PUSH1 0x1 PUSH1 0xA0 SHL SUB AND EQ JUMPDEST ISZERO PUSH2 0x553 JUMPI PUSH1 0x40 MLOAD PUSH4 0x32CD0591 PUSH1 0xE1 SHL DUP2 MSTORE PUSH1 0x1 PUSH1 0x1 PUSH1 0xA0 SHL SUB DUP4 AND PUSH1 0x4 DUP3 ADD MSTORE PUSH1 0x24 ADD JUMPDEST PUSH1 0x40 MLOAD DUP1 SWAP2 SUB SWAP1 REVERT JUMPDEST PUSH1 0x0 DUP1 PUSH2 0x55E PUSH2 0x41B JUMP JUMPDEST POP PUSH1 0x40 MLOAD PUSH4 0x70A08231 PUSH1 0xE0 SHL DUP2 MSTORE ADDRESS PUSH1 0x4 DUP3 ADD MSTORE SWAP2 SWAP4 POP SWAP2 POP PUSH1 0x0 SWAP1 PUSH1 0x1 PUSH1 0x1 PUSH1 0xA0 SHL SUB PUSH32 0x0 AND SWAP1 PUSH4 0x70A08231 SWAP1 PUSH1 0x24 ADD PUSH1 0x20 PUSH1 0x40 MLOAD DUP1 DUP4 SUB DUP2 DUP7 GAS STATICCALL ISZERO DUP1 ISZERO PUSH2 0x5CB JUMPI RETURNDATASIZE PUSH1 0x0 DUP1 RETURNDATACOPY RETURNDATASIZE PUSH1 0x0 REVERT JUMPDEST POP POP POP POP PUSH1 0x40 MLOAD RETURNDATASIZE PUSH1 0x1F NOT PUSH1 0x1F DUP3 ADD AND DUP3 ADD DUP1 PUSH1 0x40 MSTORE POP DUP2 ADD SWAP1 PUSH2 0x5EF SWAP2 SWAP1 PUSH2 0x1FC4 JUMP JUMPDEST PUSH1 0x40 MLOAD PUSH4 0x70A08231 PUSH1 0xE0 SHL DUP2 MSTORE ADDRESS PUSH1 0x4 DUP3 ADD MSTORE SWAP1 SWAP2 POP PUSH1 0x0 SWAP1 PUSH1 0x1 PUSH1 0x1 PUSH1 0xA0 SHL SUB PUSH32 0x0 AND SWAP1 PUSH4 0x70A08231 SWAP1 PUSH1 0x24 ADD PUSH1 0x20 PUSH1 0x40 MLOAD DUP1 DUP4 SUB DUP2 DUP7 GAS STATICCALL ISZERO DUP1 ISZERO PUSH2 0x659 JUMPI RETURNDATASIZE PUSH1 0x0 DUP1 RETURNDATACOPY RETURNDATASIZE PUSH1 0x0 REVERT JUMPDEST POP POP POP POP PUSH1 0x40 MLOAD RETURNDATASIZE PUSH1 0x1F NOT PUSH1 0x1F DUP3 ADD AND DUP3 ADD DUP1 PUSH1 0x40 MSTORE POP DUP2 ADD SWAP1 PUSH2 0x67D SWAP2 SWAP1 PUSH2 0x1FC4 JUMP JUMPDEST SWAP1 POP PUSH1 0x0 PUSH2 0x694 PUSH1 0x1 PUSH1 0x1 PUSH1 0x70 SHL SUB DUP7 AND DUP5 PUSH2 0x1FF3 JUMP JUMPDEST SWAP1 POP PUSH1 0x0 PUSH2 0x6AB PUSH1 0x1 PUSH1 0x1 PUSH1 0x70 SHL SUB DUP7 AND DUP5 PUSH2 0x1FF3 JUMP JUMPDEST SWAP1 POP PUSH1 0x0 PUSH2 0x6B9 DUP8 DUP8 PUSH2 0x15B3 JUMP JUMPDEST SWAP1 POP PUSH1 0x0 PUSH2 0x6C6 PUSH1 0x2 SLOAD SWAP1 JUMP JUMPDEST SWAP1 POP DUP1 PUSH1 0x0 SUB PUSH2 0x703 JUMPI PUSH2 0x3E8 PUSH2 0x6E5 PUSH2 0x6E0 DUP6 DUP8 PUSH2 0x2006 JUMP JUMPDEST PUSH2 0x16C7 JUMP JUMPDEST PUSH2 0x6EF SWAP2 SWAP1 PUSH2 0x1FF3 JUMP JUMPDEST SWAP9 POP PUSH2 0x6FE PUSH1 0x1 PUSH2 0x3E8 PUSH2 0x1820 JUMP JUMPDEST PUSH2 0x74A JUMP JUMPDEST PUSH2 0x747 PUSH1 0x1 PUSH1 0x1 PUSH1 0x70 SHL SUB DUP10 AND PUSH2 0x71A DUP4 DUP8 PUSH2 0x2006 JUMP JUMPDEST PUSH2 0x724 SWAP2 SWAP1 PUSH2 0x2033 JUMP JUMPDEST PUSH1 0x1 PUSH1 0x1 PUSH1 0x70 SHL SUB DUP10 AND PUSH2 0x738 DUP5 DUP8 PUSH2 0x2006 JUMP JUMPDEST PUSH2 0x742 SWAP2 SWAP1 PUSH2 0x2033 JUMP JUMPDEST PUSH2 0x185A JUMP JUMPDEST SWAP9 POP JUMPDEST DUP9 PUSH1 0x0 SUB PUSH2 0x76B JUMPI PUSH1 0x40 MLOAD PUSH4 0x3489BE75 PUSH1 0xE2 SHL DUP2 MSTORE PUSH1 0x4 ADD PUSH1 0x40 MLOAD DUP1 SWAP2 SUB SWAP1 REVERT JUMPDEST PUSH2 0x775 DUP11 DUP11 PUSH2 0x1820 JUMP JUMPDEST PUSH2 0x781 DUP7 DUP7 DUP11 DUP11 PUSH2 0x186D JUMP JUMPDEST DUP2 ISZERO PUSH2 0x7AA JUMPI PUSH1 0x5 SLOAD PUSH2 0x7A6 SWAP1 PUSH1 0x1 PUSH1 0x1 PUSH1 0x70 SHL SUB PUSH1 0x1 PUSH1 0x70 SHL DUP3 DIV DUP2 AND SWAP2 AND PUSH2 0x2006 JUMP JUMPDEST PUSH1 0x8 SSTORE JUMPDEST PUSH1 0x40 DUP1 MLOAD DUP6 DUP2 MSTORE PUSH1 0x20 DUP2 ADD DUP6 SWAP1 MSTORE CALLER SWAP2 PUSH32 0x4C209B5FC8AD50758F13E2E1088BA56A560DFF690A1C6FEF26394F4C03821C4F SWAP2 ADD PUSH1 0x40 MLOAD DUP1 SWAP2 SUB SWAP1 LOG2 POP POP POP POP POP POP POP POP PUSH2 0x804 PUSH1 0x1 PUSH1 0x0 DUP1 MLOAD PUSH1 0x20 PUSH2 0x20A8 DUP4 CODECOPY DUP2 MLOAD SWAP2 MSTORE SSTORE JUMP JUMPDEST SWAP2 SWAP1 POP JUMP JUMPDEST PUSH2 0x811 PUSH2 0x1597 JUMP JUMPDEST DUP3 ISZERO DUP1 ISZERO PUSH2 0x81D JUMPI POP DUP2 ISZERO JUMPDEST ISZERO PUSH2 0x83B JUMPI PUSH1 0x40 MLOAD PUSH4 0x42301C23 PUSH1 0xE0 SHL DUP2 MSTORE PUSH1 0x4 ADD PUSH1 0x40 MLOAD DUP1 SWAP2 SUB SWAP1 REVERT JUMPDEST PUSH1 0x1 PUSH1 0x1 PUSH1 0xA0 SHL SUB DUP2 AND PUSH2 0x862 JUMPI PUSH1 0x40 MLOAD PUSH4 0xD92E233D PUSH1 0xE0 SHL DUP2 MSTORE PUSH1 0x4 ADD PUSH1 0x40 MLOAD DUP1 SWAP2 SUB SWAP1 REVERT JUMPDEST PUSH32 0x0 PUSH1 0x1 PUSH1 0x1 PUSH1 0xA0 SHL SUB AND DUP2 PUSH1 0x1 PUSH1 0x1 PUSH1 0xA0 SHL SUB AND EQ DUP1 PUSH2 0x8D3 JUMPI POP PUSH32 0x0 PUSH1 0x1 PUSH1 0x1 PUSH1 0xA0 SHL SUB AND DUP2 PUSH1 0x1 PUSH1 0x1 PUSH1 0xA0 SHL SUB AND EQ JUMPDEST ISZERO PUSH2 0x8FC JUMPI PUSH1 0x40 MLOAD PUSH4 0x32CD0591 PUSH1 0xE1 SHL DUP2 MSTORE PUSH1 0x1 PUSH1 0x1 PUSH1 0xA0 SHL SUB DUP3 AND PUSH1 0x4 DUP3 ADD MSTORE PUSH1 0x24 ADD PUSH2 0x54A JUMP JUMPDEST PUSH1 0x0 DUP1 PUSH2 0x907 PUSH2 0x41B JUMP JUMPDEST POP SWAP2 POP SWAP2 POP DUP2 PUSH1 0x1 PUSH1 0x1 PUSH1 0x70 SHL SUB AND DUP6 LT ISZERO DUP1 PUSH2 0x92D JUMPI POP DUP1 PUSH1 0x1 PUSH1 0x1 PUSH1 0x70 SHL SUB AND DUP5 LT ISZERO JUMPDEST ISZERO PUSH2 0x94B JUMPI PUSH1 0x40 MLOAD PUSH4 0xBB55FD27 PUSH1 0xE0 SHL DUP2 MSTORE PUSH1 0x4 ADD PUSH1 0x40 MLOAD DUP1 SWAP2 SUB SWAP1 REVERT JUMPDEST DUP5 ISZERO PUSH2 0x985 JUMPI PUSH2 0x985 PUSH1 0x1 PUSH1 0x1 PUSH1 0xA0 SHL SUB PUSH32 0x0 AND DUP5 DUP8 PUSH2 0x1A41 JUMP JUMPDEST DUP4 ISZERO PUSH2 0x9BF JUMPI PUSH2 0x9BF PUSH1 0x1 PUSH1 0x1 PUSH1 0xA0 SHL SUB PUSH32 0x0 AND DUP5 DUP7 PUSH2 0x1A41 JUMP JUMPDEST PUSH1 0x40 MLOAD PUSH4 0x70A08231 PUSH1 0xE0 SHL DUP2 MSTORE ADDRESS PUSH1 0x4 DUP3 ADD MSTORE PUSH1 0x0 SWAP1 PUSH32 0x0 PUSH1 0x1 PUSH1 0x1 PUSH1 0xA0 SHL SUB AND SWAP1 PUSH4 0x70A08231 SWAP1 PUSH1 0x24 ADD PUSH1 0x20 PUSH1 0x40 MLOAD DUP1 DUP4 SUB DUP2 DUP7 GAS STATICCALL ISZERO DUP1 ISZERO PUSH2 0xA26 JUMPI RETURNDATASIZE PUSH1 0x0 DUP1 RETURNDATACOPY RETURNDATASIZE PUSH1 0x0 REVERT JUMPDEST POP POP POP POP PUSH1 0x40 MLOAD RETURNDATASIZE PUSH1 0x1F NOT PUSH1 0x1F DUP3 ADD AND DUP3 ADD DUP1 PUSH1 0x40 MSTORE POP DUP2 ADD SWAP1 PUSH2 0xA4A SWAP2 SWAP1 PUSH2 0x1FC4 JUMP JUMPDEST PUSH1 0x40 MLOAD PUSH4 0x70A08231 PUSH1 0xE0 SHL DUP2 MSTORE ADDRESS PUSH1 0x4 DUP3 ADD MSTORE SWAP1 SWAP2 POP PUSH1 0x0 SWAP1 PUSH1 0x1 PUSH1 0x1 PUSH1 0xA0 SHL SUB PUSH32 0x0 AND SWAP1 PUSH4 0x70A08231 SWAP1 PUSH1 0x24 ADD PUSH1 0x20 PUSH1 0x40 MLOAD DUP1 DUP4 SUB DUP2 DUP7 GAS STATICCALL ISZERO DUP1 ISZERO PUSH2 0xAB4 JUMPI RETURNDATASIZE PUSH1 0x0 DUP1 RETURNDATACOPY RETURNDATASIZE PUSH1 0x0 REVERT JUMPDEST POP POP POP POP PUSH1 0x40 MLOAD RETURNDATASIZE PUSH1 0x1F NOT PUSH1 0x1F DUP3 ADD AND DUP3 ADD DUP1 PUSH1 0x40 MSTORE POP DUP2 ADD SWAP1 PUSH2 0xAD8 SWAP2 SWAP1 PUSH2 0x1FC4 JUMP JUMPDEST SWAP1 POP PUSH1 0x0 PUSH2 0xAEF DUP9 PUSH1 0x1 PUSH1 0x1 PUSH1 0x70 SHL SUB DUP8 AND PUSH2 0x1FF3 JUMP JUMPDEST DUP4 GT PUSH2 0xAFC JUMPI PUSH1 0x0 PUSH2 0xB19 JUMP JUMPDEST PUSH2 0xB0F DUP9 PUSH1 0x1 PUSH1 0x1 PUSH1 0x70 SHL SUB DUP8 AND PUSH2 0x1FF3 JUMP JUMPDEST PUSH2 0xB19 SWAP1 DUP5 PUSH2 0x1FF3 JUMP JUMPDEST SWAP1 POP PUSH1 0x0 PUSH2 0xB30 DUP9 PUSH1 0x1 PUSH1 0x1 PUSH1 0x70 SHL SUB DUP8 AND PUSH2 0x1FF3 JUMP JUMPDEST DUP4 GT PUSH2 0xB3D JUMPI PUSH1 0x0 PUSH2 0xB5A JUMP JUMPDEST PUSH2 0xB50 DUP9 PUSH1 0x1 PUSH1 0x1 PUSH1 0x70 SHL SUB DUP8 AND PUSH2 0x1FF3 JUMP JUMPDEST PUSH2 0xB5A SWAP1 DUP5 PUSH2 0x1FF3 JUMP JUMPDEST SWAP1 POP DUP2 ISZERO DUP1 ISZERO PUSH2 0xB68 JUMPI POP DUP1 ISZERO JUMPDEST ISZERO PUSH2 0xB86 JUMPI PUSH1 0x40 MLOAD PUSH4 0x98FB561 PUSH1 0xE0 SHL DUP2 MSTORE PUSH1 0x4 ADD PUSH1 0x40 MLOAD DUP1 SWAP2 SUB SWAP1 REVERT JUMPDEST PUSH1 0x0 PUSH2 0xB93 DUP4 PUSH1 0x3 PUSH2 0x2006 JUMP JUMPDEST PUSH2 0xB9F DUP7 PUSH2 0x3E8 PUSH2 0x2006 JUMP JUMPDEST PUSH2 0xBA9 SWAP2 SWAP1 PUSH2 0x1FF3 JUMP JUMPDEST SWAP1 POP PUSH1 0x0 PUSH2 0xBB8 DUP4 PUSH1 0x3 PUSH2 0x2006 JUMP JUMPDEST PUSH2 0xBC4 DUP7 PUSH2 0x3E8 PUSH2 0x2006 JUMP JUMPDEST PUSH2 0xBCE SWAP2 SWAP1 PUSH2 0x1FF3 JUMP JUMPDEST SWAP1 POP PUSH2 0xBE6 PUSH1 0x1 PUSH1 0x1 PUSH1 0x70 SHL SUB DUP1 DUP10 AND SWAP1 DUP11 AND PUSH2 0x2006 JUMP JUMPDEST PUSH2 0xBF3 SWAP1 PUSH3 0xF4240 PUSH2 0x2006 JUMP JUMPDEST PUSH2 0xBFD DUP3 DUP5 PUSH2 0x2006 JUMP JUMPDEST LT ISZERO PUSH2 0xC1C JUMPI PUSH1 0x40 MLOAD PUSH4 0xA64FAAD PUSH1 0xE3 SHL DUP2 MSTORE PUSH1 0x4 ADD PUSH1 0x40 MLOAD DUP1 SWAP2 SUB SWAP1 REVERT JUMPDEST PUSH2 0xC28 DUP7 DUP7 DUP11 DUP11 PUSH2 0x186D JUMP JUMPDEST PUSH1 0x40 DUP1 MLOAD DUP6 DUP2 MSTORE PUSH1 0x20 DUP2 ADD DUP6 SWAP1 MSTORE SWAP1 DUP2 ADD DUP13 SWAP1 MSTORE PUSH1 0x60 DUP2 ADD DUP12 SWAP1 MSTORE PUSH1 0x1 PUSH1 0x1 PUSH1 0xA0 SHL SUB DUP11 AND SWAP1 CALLER SWAP1 PUSH32 0xD78AD95FA46C994B6551D0DA85FC275FE613CE37657FB8D5E3D130840159D822 SWAP1 PUSH1 0x80 ADD PUSH1 0x40 MLOAD DUP1 SWAP2 SUB SWAP1 LOG3 POP POP POP POP POP POP POP POP PUSH2 0xC9C PUSH1 0x1 PUSH1 0x0 DUP1 MLOAD PUSH1 0x20 PUSH2 0x20A8 DUP4 CODECOPY DUP2 MLOAD SWAP2 MSTORE SSTORE JUMP JUMPDEST POP POP POP JUMP JUMPDEST PUSH1 0x0 DUP1 PUSH2 0xCAC PUSH2 0x1597 JUMP JUMPDEST PUSH1 0x1 PUSH1 0x1 PUSH1 0xA0 SHL SUB DUP4 AND PUSH2 0xCD3 JUMPI PUSH1 0x40 MLOAD PUSH4 0xD92E233D PUSH1 0xE0 SHL DUP2 MSTORE PUSH1 0x4 ADD PUSH1 0x40 MLOAD DUP1 SWAP2 SUB SWAP1 REVERT JUMPDEST PUSH32 0x0 PUSH1 0x1 PUSH1 0x1 PUSH1 0xA0 SHL SUB AND DUP4 PUSH1 0x1 PUSH1 0x1 PUSH1 0xA0 SHL SUB AND EQ DUP1 PUSH2 0xD44 JUMPI POP PUSH32 0x0 PUSH1 0x1 PUSH1 0x1 PUSH1 0xA0 SHL SUB AND DUP4 PUSH1 0x1 PUSH1 0x1 PUSH1 0xA0 SHL SUB AND EQ JUMPDEST ISZERO PUSH2 0xD6D JUMPI PUSH1 0x40 MLOAD PUSH4 0x32CD0591 PUSH1 0xE1 SHL DUP2 MSTORE PUSH1 0x1 PUSH1 0x1 PUSH1 0xA0 SHL SUB DUP5 AND PUSH1 0x4 DUP3 ADD MSTORE PUSH1 0x24 ADD PUSH2 0x54A JUMP JUMPDEST PUSH1 0x0 DUP1 PUSH2 0xD78 PUSH2 0x41B JUMP JUMPDEST POP PUSH1 0x40 MLOAD PUSH4 0x70A08231 PUSH1 0xE0 SHL DUP2 MSTORE ADDRESS PUSH1 0x4 DUP3 ADD MSTORE SWAP2 SWAP4 POP SWAP2 POP PUSH1 0x0 SWAP1 PUSH1 0x1 PUSH1 0x1 PUSH1 0xA0 SHL SUB PUSH32 0x0 AND SWAP1 PUSH4 0x70A08231 SWAP1 PUSH1 0x24 ADD PUSH1 0x20 PUSH1 0x40 MLOAD DUP1 DUP4 SUB DUP2 DUP7 GAS STATICCALL ISZERO DUP1 ISZERO PUSH2 0xDE5 JUMPI RETURNDATASIZE PUSH1 0x0 DUP1 RETURNDATACOPY RETURNDATASIZE PUSH1 0x0 REVERT JUMPDEST POP POP POP POP PUSH1 0x40 MLOAD RETURNDATASIZE PUSH1 0x1F NOT PUSH1 0x1F DUP3 ADD AND DUP3 ADD DUP1 PUSH1 0x40 MSTORE POP DUP2 ADD SWAP1 PUSH2 0xE09 SWAP2 SWAP1 PUSH2 0x1FC4 JUMP JUMPDEST PUSH1 0x40 MLOAD PUSH4 0x70A08231 PUSH1 0xE0 SHL DUP2 MSTORE ADDRESS PUSH1 0x4 DUP3 ADD MSTORE SWAP1 SWAP2 POP PUSH1 0x0 SWAP1 PUSH1 0x1 PUSH1 0x1 PUSH1 0xA0 SHL SUB PUSH32 0x0 AND SWAP1 PUSH4 0x70A08231 SWAP1 PUSH1 0x24 ADD PUSH1 0x20 PUSH1 0x40 MLOAD DUP1 DUP4 SUB DUP2 DUP7 GAS STATICCALL ISZERO DUP1 ISZERO PUSH2 0xE73 JUMPI RETURNDATASIZE PUSH1 0x0 DUP1 RETURNDATACOPY RETURNDATASIZE PUSH1 0x0 REVERT JUMPDEST POP POP POP POP PUSH1 0x40 MLOAD RETURNDATASIZE PUSH1 0x1F NOT PUSH1 0x1F DUP3 ADD AND DUP3 ADD DUP1 PUSH1 0x40 MSTORE POP DUP2 ADD SWAP1 PUSH2 0xE97 SWAP2 SWAP1 PUSH2 0x1FC4 JUMP JUMPDEST ADDRESS PUSH1 0x0 SWAP1 DUP2 MSTORE PUSH1 0x20 DUP2 SWAP1 MSTORE PUSH1 0x40 DUP2 KECCAK256 SLOAD SWAP2 SWAP3 POP PUSH2 0xEB4 DUP7 DUP7 PUSH2 0x15B3 JUMP JUMPDEST SWAP1 POP PUSH1 0x0 PUSH2 0xEC1 PUSH1 0x2 SLOAD SWAP1 JUMP JUMPDEST SWAP1 POP DUP1 PUSH2 0xECE DUP7 DUP6 PUSH2 0x2006 JUMP JUMPDEST PUSH2 0xED8 SWAP2 SWAP1 PUSH2 0x2033 JUMP JUMPDEST SWAP9 POP DUP1 PUSH2 0xEE5 DUP6 DUP6 PUSH2 0x2006 JUMP JUMPDEST PUSH2 0xEEF SWAP2 SWAP1 PUSH2 0x2033 JUMP JUMPDEST SWAP8 POP DUP9 ISZERO DUP1 PUSH2 0xEFC JUMPI POP DUP8 ISZERO JUMPDEST ISZERO PUSH2 0xF1A JUMPI PUSH1 0x40 MLOAD PUSH4 0x749383AD PUSH1 0xE0 SHL DUP2 MSTORE PUSH1 0x4 ADD PUSH1 0x40 MLOAD DUP1 SWAP2 SUB SWAP1 REVERT JUMPDEST PUSH2 0xF24 ADDRESS DUP5 PUSH2 0x1A76 JUMP JUMPDEST PUSH2 0xF58 PUSH1 0x1 PUSH1 0x1 PUSH1 0xA0 SHL SUB PUSH32 0x0 AND DUP12 DUP12 PUSH2 0x1A41 JUMP JUMPDEST PUSH2 0xF8C PUSH1 0x1 PUSH1 0x1 PUSH1 0xA0 SHL SUB PUSH32 0x0 AND DUP12 DUP11 PUSH2 0x1A41 JUMP JUMPDEST PUSH1 0x40 MLOAD PUSH4 0x70A08231 PUSH1 0xE0 SHL DUP2 MSTORE ADDRESS PUSH1 0x4 DUP3 ADD MSTORE PUSH32 0x0 PUSH1 0x1 PUSH1 0x1 PUSH1 0xA0 SHL SUB AND SWAP1 PUSH4 0x70A08231 SWAP1 PUSH1 0x24 ADD PUSH1 0x20 PUSH1 0x40 MLOAD DUP1 DUP4 SUB DUP2 DUP7 GAS STATICCALL ISZERO DUP1 ISZERO PUSH2 0xFF0 JUMPI RETURNDATASIZE PUSH1 0x0 DUP1 RETURNDATACOPY RETURNDATASIZE PUSH1 0x0 REVERT JUMPDEST POP POP POP POP PUSH1 0x40 MLOAD RETURNDATASIZE PUSH1 0x1F NOT PUSH1 0x1F DUP3 ADD AND DUP3 ADD DUP1 PUSH1 0x40 MSTORE POP DUP2 ADD SWAP1 PUSH2 0x1014 SWAP2 SWAP1 PUSH2 0x1FC4 JUMP JUMPDEST PUSH1 0x40 MLOAD PUSH4 0x70A08231 PUSH1 0xE0 SHL DUP2 MSTORE ADDRESS PUSH1 0x4 DUP3 ADD MSTORE SWAP1 SWAP6 POP PUSH32 0x0 PUSH1 0x1 PUSH1 0x1 PUSH1 0xA0 SHL SUB AND SWAP1 PUSH4 0x70A08231 SWAP1 PUSH1 0x24 ADD PUSH1 0x20 PUSH1 0x40 MLOAD DUP1 DUP4 SUB DUP2 DUP7 GAS STATICCALL ISZERO DUP1 ISZERO PUSH2 0x107B JUMPI RETURNDATASIZE PUSH1 0x0 DUP1 RETURNDATACOPY RETURNDATASIZE PUSH1 0x0 REVERT JUMPDEST POP POP POP POP PUSH1 0x40 MLOAD RETURNDATASIZE PUSH1 0x1F NOT PUSH1 0x1F DUP3 ADD AND DUP3 ADD DUP1 PUSH1 0x40 MSTORE POP DUP2 ADD SWAP1 PUSH2 0x109F SWAP2 SWAP1 PUSH2 0x1FC4 JUMP JUMPDEST SWAP4 POP PUSH2 0x10AD DUP6 DUP6 DUP10 DUP10 PUSH2 0x186D JUMP JUMPDEST DUP2 ISZERO PUSH2 0x10D6 JUMPI PUSH1 0x5 SLOAD PUSH2 0x10D2 SWAP1 PUSH1 0x1 PUSH1 0x1 PUSH1 0x70 SHL SUB PUSH1 0x1 PUSH1 0x70 SHL DUP3 DIV DUP2 AND SWAP2 AND PUSH2 0x2006 JUMP JUMPDEST PUSH1 0x8 SSTORE JUMPDEST PUSH1 0x40 DUP1 MLOAD DUP11 DUP2 MSTORE PUSH1 0x20 DUP2 ADD DUP11 SWAP1 MSTORE PUSH1 0x1 PUSH1 0x1 PUSH1 0xA0 SHL SUB DUP13 AND SWAP2 CALLER SWAP2 PUSH32 0xDCCD412F0B1252819CB1FD330B93224CA42612892BB3F4F789976E6D81936496 SWAP2 ADD PUSH1 0x40 MLOAD DUP1 SWAP2 SUB SWAP1 LOG3 POP POP POP POP POP POP POP PUSH2 0x113A PUSH1 0x1 PUSH1 0x0 DUP1 MLOAD PUSH1 0x20 PUSH2 0x20A8 DUP4 CODECOPY DUP2 MLOAD SWAP2 MSTORE SSTORE JUMP JUMPDEST SWAP2 POP SWAP2 JUMP JUMPDEST PUSH1 0x60 PUSH1 0x4 DUP1 SLOAD PUSH2 0x398 SWAP1 PUSH2 0x1F8A JUMP JUMPDEST PUSH1 0x0 CALLER PUSH2 0x453 DUP2 DUP6 DUP6 PUSH2 0x1538 JUMP JUMPDEST PUSH2 0x1164 PUSH2 0x1597 JUMP JUMPDEST PUSH1 0x1 PUSH1 0x1 PUSH1 0xA0 SHL SUB DUP2 AND PUSH2 0x118B JUMPI PUSH1 0x40 MLOAD PUSH4 0xD92E233D PUSH1 0xE0 SHL DUP2 MSTORE PUSH1 0x4 ADD PUSH1 0x40 MLOAD DUP1 SWAP2 SUB SWAP1 REVERT JUMPDEST PUSH1 0x5 SLOAD PUSH1 0x40 MLOAD PUSH4 0x70A08231 PUSH1 0xE0 SHL DUP2 MSTORE ADDRESS PUSH1 0x4 DUP3 ADD MSTORE PUSH2 0x1263 SWAP2 DUP4 SWAP2 PUSH1 0x1 PUSH1 0x1 PUSH1 0x70 SHL SUB SWAP1 SWAP2 AND SWAP1 PUSH32 0x0 PUSH1 0x1 PUSH1 0x1 PUSH1 0xA0 SHL SUB AND SWAP1 PUSH4 0x70A08231 SWAP1 PUSH1 0x24 ADD PUSH1 0x20 PUSH1 0x40 MLOAD DUP1 DUP4 SUB DUP2 DUP7 GAS STATICCALL ISZERO DUP1 ISZERO PUSH2 0x1204 JUMPI RETURNDATASIZE PUSH1 0x0 DUP1 RETURNDATACOPY RETURNDATASIZE PUSH1 0x0 REVERT JUMPDEST POP POP POP POP PUSH1 0x40 MLOAD RETURNDATASIZE PUSH1 0x1F NOT PUSH1 0x1F DUP3 ADD AND DUP3 ADD DUP1 PUSH1 0x40 MSTORE POP DUP2 ADD SWAP1 PUSH2 0x1228 SWAP2 SWAP1 PUSH2 0x1FC4 JUMP JUMPDEST PUSH2 0x1232 SWAP2 SWAP1 PUSH2 0x1FF3 JUMP JUMPDEST PUSH1 0x1 PUSH1 0x1 PUSH1 0xA0 SHL SUB PUSH32 0x0 AND SWAP2 SWAP1 PUSH2 0x1A41 JUMP JUMPDEST PUSH1 0x5 SLOAD PUSH1 0x40 MLOAD PUSH4 0x70A08231 PUSH1 0xE0 SHL DUP2 MSTORE ADDRESS PUSH1 0x4 DUP3 ADD MSTORE PUSH2 0x1341 SWAP2 DUP4 SWAP2 PUSH1 0x1 PUSH1 0x70 SHL SWAP1 SWAP2 DIV PUSH1 0x1 PUSH1 0x1 PUSH1 0x70 SHL SUB AND SWAP1 PUSH32 0x0 PUSH1 0x1 PUSH1 0x1 PUSH1 0xA0 SHL SUB AND SWAP1 PUSH4 0x70A08231 SWAP1 PUSH1 0x24 ADD PUSH1 0x20 PUSH1 0x40 MLOAD DUP1 DUP4 SUB DUP2 DUP7 GAS STATICCALL ISZERO DUP1 ISZERO PUSH2 0x12E2 JUMPI RETURNDATASIZE PUSH1 0x0 DUP1 RETURNDATACOPY RETURNDATASIZE PUSH1 0x0 REVERT JUMPDEST POP POP POP POP PUSH1 0x40 MLOAD RETURNDATASIZE PUSH1 0x1F NOT PUSH1 0x1F DUP3 ADD AND DUP3 ADD DUP1 PUSH1 0x40 MSTORE POP DUP2 ADD SWAP1 PUSH2 0x1306 SWAP2 SWAP1 PUSH2 0x1FC4 JUMP JUMPDEST PUSH2 0x1310 SWAP2 SWAP1 PUSH2 0x1FF3 JUMP JUMPDEST PUSH1 0x1 PUSH1 0x1 PUSH1 0xA0 SHL SUB PUSH32 0x0 AND SWAP2 SWAP1 PUSH2 0x1A41 JUMP JUMPDEST PUSH2 0x1358 PUSH1 0x1 PUSH1 0x0 DUP1 MLOAD PUSH1 0x20 PUSH2 0x20A8 DUP4 CODECOPY DUP2 MLOAD SWAP2 MSTORE SSTORE JUMP JUMPDEST POP JUMP JUMPDEST PUSH2 0x1363 PUSH2 0x1597 JUMP JUMPDEST PUSH1 0x40 MLOAD PUSH4 0x70A08231 PUSH1 0xE0 SHL DUP2 MSTORE ADDRESS PUSH1 0x4 DUP3 ADD MSTORE PUSH2 0x1493 SWAP1 PUSH32 0x0 PUSH1 0x1 PUSH1 0x1 PUSH1 0xA0 SHL SUB AND SWAP1 PUSH4 0x70A08231 SWAP1 PUSH1 0x24 ADD PUSH1 0x20 PUSH1 0x40 MLOAD DUP1 DUP4 SUB DUP2 DUP7 GAS STATICCALL ISZERO DUP1 ISZERO PUSH2 0x13CB JUMPI RETURNDATASIZE PUSH1 0x0 DUP1 RETURNDATACOPY RETURNDATASIZE PUSH1 0x0 REVERT JUMPDEST POP POP POP POP PUSH1 0x40 MLOAD RETURNDATASIZE PUSH1 0x1F NOT PUSH1 0x1F DUP3 ADD AND DUP3 ADD DUP1 PUSH1 0x40 MSTORE POP DUP2 ADD SWAP1 PUSH2 0x13EF SWAP2 SWAP1 PUSH2 0x1FC4 JUMP JUMPDEST PUSH1 0x40 MLOAD PUSH4 0x70A08231 PUSH1 0xE0 SHL DUP2 MSTORE ADDRESS PUSH1 0x4 DUP3 ADD MSTORE PUSH32 0x0 PUSH1 0x1 PUSH1 0x1 PUSH1 0xA0 SHL SUB AND SWAP1 PUSH4 0x70A08231 SWAP1 PUSH1 0x24 ADD PUSH1 0x20 PUSH1 0x40 MLOAD DUP1 DUP4 SUB DUP2 DUP7 GAS STATICCALL ISZERO DUP1 ISZERO PUSH2 0x1453 JUMPI RETURNDATASIZE PUSH1 0x0 DUP1 RETURNDATACOPY RETURNDATASIZE PUSH1 0x0 REVERT JUMPDEST POP POP POP POP PUSH1 0x40 MLOAD RETURNDATASIZE PUSH1 0x1F NOT PUSH1 0x1F DUP3 ADD AND DUP3 ADD DUP1 PUSH1 0x40 MSTORE POP DUP2 ADD SWAP1 PUSH2 0x1477 SWAP2 SWAP1 PUSH2 0x1FC4 JUMP JUMPDEST PUSH1 0x5 SLOAD PUSH1 0x1 PUSH1 0x1 PUSH1 0x70 SHL SUB DUP1 DUP3 AND SWAP2 PUSH1 0x1 PUSH1 0x70 SHL SWAP1 DIV AND PUSH2 0x186D JUMP JUMPDEST PUSH2 0x14AA PUSH1 0x1 PUSH1 0x0 DUP1 MLOAD PUSH1 0x20 PUSH2 0x20A8 DUP4 CODECOPY DUP2 MLOAD SWAP2 MSTORE SSTORE JUMP JUMPDEST JUMP JUMPDEST PUSH2 0xC9C DUP4 DUP4 DUP4 PUSH1 0x1 PUSH2 0x1AAC JUMP JUMPDEST PUSH1 0x1 PUSH1 0x1 PUSH1 0xA0 SHL SUB DUP4 DUP2 AND PUSH1 0x0 SWAP1 DUP2 MSTORE PUSH1 0x1 PUSH1 0x20 SWAP1 DUP2 MSTORE PUSH1 0x40 DUP1 DUP4 KECCAK256 SWAP4 DUP7 AND DUP4 MSTORE SWAP3 SWAP1 MSTORE KECCAK256 SLOAD PUSH1 0x0 NOT DUP2 LT ISZERO PUSH2 0x1532 JUMPI DUP2 DUP2 LT ISZERO PUSH2 0x1523 JUMPI PUSH1 0x40 MLOAD PUSH4 0x7DC7A0D9 PUSH1 0xE1 SHL DUP2 MSTORE PUSH1 0x1 PUSH1 0x1 PUSH1 0xA0 SHL SUB DUP5 AND PUSH1 0x4 DUP3 ADD MSTORE PUSH1 0x24 DUP2 ADD DUP3 SWAP1 MSTORE PUSH1 0x44 DUP2 ADD DUP4 SWAP1 MSTORE PUSH1 0x64 ADD PUSH2 0x54A JUMP JUMPDEST PUSH2 0x1532 DUP5 DUP5 DUP5 DUP5 SUB PUSH1 0x0 PUSH2 0x1AAC JUMP JUMPDEST POP POP POP POP JUMP JUMPDEST PUSH1 0x1 PUSH1 0x1 PUSH1 0xA0 SHL SUB DUP4 AND PUSH2 0x1562 JUMPI PUSH1 0x40 MLOAD PUSH4 0x4B637E8F PUSH1 0xE1 SHL DUP2 MSTORE PUSH1 0x0 PUSH1 0x4 DUP3 ADD MSTORE PUSH1 0x24 ADD PUSH2 0x54A JUMP JUMPDEST PUSH1 0x1 PUSH1 0x1 PUSH1 0xA0 SHL SUB DUP3 AND PUSH2 0x158C JUMPI PUSH1 0x40 MLOAD PUSH4 0xEC442F05 PUSH1 0xE0 SHL DUP2 MSTORE PUSH1 0x0 PUSH1 0x4 DUP3 ADD MSTORE PUSH1 0x24 ADD PUSH2 0x54A JUMP JUMPDEST PUSH2 0xC9C DUP4 DUP4 DUP4 PUSH2 0x1B81 JUMP JUMPDEST PUSH2 0x159F PUSH2 0x1CAB JUMP JUMPDEST PUSH1 0x2 PUSH1 0x0 DUP1 MLOAD PUSH1 0x20 PUSH2 0x20A8 DUP4 CODECOPY DUP2 MLOAD SWAP2 MSTORE SSTORE JUMP JUMPDEST PUSH1 0x0 DUP1 PUSH2 0x15BE PUSH2 0x1CDB JUMP JUMPDEST PUSH1 0x8 SLOAD PUSH1 0x1 PUSH1 0x1 PUSH1 0xA0 SHL SUB DUP3 AND ISZERO DUP1 ISZERO SWAP5 POP SWAP2 SWAP3 POP SWAP1 PUSH2 0x16B3 JUMPI DUP1 ISZERO PUSH2 0x16AE JUMPI PUSH1 0x0 PUSH2 0x15F9 PUSH2 0x6E0 PUSH1 0x1 PUSH1 0x1 PUSH1 0x70 SHL SUB DUP1 DUP9 AND SWAP1 DUP10 AND PUSH2 0x2006 JUMP JUMPDEST SWAP1 POP PUSH1 0x0 PUSH2 0x1606 DUP4 PUSH2 0x16C7 JUMP JUMPDEST SWAP1 POP DUP1 DUP3 GT ISZERO PUSH2 0x16AB JUMPI PUSH1 0x0 PUSH2 0x161C DUP3 DUP5 PUSH2 0x1FF3 JUMP JUMPDEST PUSH1 0x2 SLOAD PUSH2 0x1629 SWAP2 SWAP1 PUSH2 0x2006 JUMP JUMPDEST SWAP1 POP PUSH1 0x0 DUP3 PUSH2 0x1639 DUP6 PUSH1 0x5 PUSH2 0x2006 JUMP JUMPDEST PUSH2 0x1643 SWAP2 SWAP1 PUSH2 0x2047 JUMP JUMPDEST SWAP1 POP PUSH1 0x0 PUSH2 0x1651 DUP3 DUP5 PUSH2 0x2033 JUMP JUMPDEST SWAP1 POP DUP1 ISZERO PUSH2 0x16A7 JUMPI PUSH2 0x1663 DUP8 DUP3 PUSH2 0x1820 JUMP JUMPDEST DUP7 PUSH1 0x1 PUSH1 0x1 PUSH1 0xA0 SHL SUB AND PUSH32 0x9F01C68C1DF72199426E5DC03E009238218BF665F0FD62DC1A25B82C882D581B DUP3 PUSH1 0x40 MLOAD PUSH2 0x169E SWAP2 DUP2 MSTORE PUSH1 0x20 ADD SWAP1 JUMP JUMPDEST PUSH1 0x40 MLOAD DUP1 SWAP2 SUB SWAP1 LOG2 JUMPDEST POP POP POP JUMPDEST POP POP JUMPDEST PUSH2 0x16BF JUMP JUMPDEST DUP1 ISZERO PUSH2 0x16BF JUMPI PUSH1 0x0 PUSH1 0x8 SSTORE JUMPDEST POP POP SWAP3 SWAP2 POP POP JUMP JUMPDEST PUSH1 0x0 PUSH1 0x1 DUP3 GT PUSH2 0x16D5 JUMPI POP SWAP1 JUMP JUMPDEST DUP2 PUSH1 0x1 PUSH1 0x1 PUSH1 0x80 SHL DUP3 LT PUSH2 0x16EE JUMPI PUSH1 0x80 SWAP2 SWAP1 SWAP2 SHR SWAP1 PUSH1 0x40 SHL JUMPDEST PUSH9 0x10000000000000000 DUP3 LT PUSH2 0x1709 JUMPI PUSH1 0x40 SWAP2 SWAP1 SWAP2 SHR SWAP1 PUSH1 0x20 SHL JUMPDEST PUSH5 0x100000000 DUP3 LT PUSH2 0x1720 JUMPI PUSH1 0x20 SWAP2 SWAP1 SWAP2 SHR SWAP1 PUSH1 0x10 SHL JUMPDEST PUSH3 0x10000 DUP3 LT PUSH2 0x1735 JUMPI PUSH1 0x10 SWAP2 SWAP1 SWAP2 SHR SWAP1 PUSH1 0x8 SHL JUMPDEST PUSH2 0x100 DUP3 LT PUSH2 0x1749 JUMPI PUSH1 0x8 SWAP2 SWAP1 SWAP2 SHR SWAP1 PUSH1 0x4 SHL JUMPDEST PUSH1 0x10 DUP3 LT PUSH2 0x175C JUMPI PUSH1 0x4 SWAP2 SWAP1 SWAP2 SHR SWAP1 PUSH1 0x2 SHL JUMPDEST PUSH1 0x4 DUP3 LT PUSH2 0x1768 JUMPI PUSH1 0x1 SHL JUMPDEST PUSH1 0x3 MUL PUSH1 0x1 SWAP1 DUP2 SHR SWAP1 DUP2 DUP6 DUP2 PUSH2 0x1780 JUMPI PUSH2 0x1780 PUSH2 0x201D JUMP JUMPDEST DIV DUP3 ADD SWAP1 SHR SWAP1 POP PUSH1 0x1 DUP2 DUP6 DUP2 PUSH2 0x1798 JUMPI PUSH2 0x1798 PUSH2 0x201D JUMP JUMPDEST DIV DUP3 ADD SWAP1 SHR SWAP1 POP PUSH1 0x1 DUP2 DUP6 DUP2 PUSH2 0x17B0 JUMPI PUSH2 0x17B0 PUSH2 0x201D JUMP JUMPDEST DIV DUP3 ADD SWAP1 SHR SWAP1 POP PUSH1 0x1 DUP2 DUP6 DUP2 PUSH2 0x17C8 JUMPI PUSH2 0x17C8 PUSH2 0x201D JUMP JUMPDEST DIV DUP3 ADD SWAP1 SHR SWAP1 POP PUSH1 0x1 DUP2 DUP6 DUP2 PUSH2 0x17E0 JUMPI PUSH2 0x17E0 PUSH2 0x201D JUMP JUMPDEST DIV DUP3 ADD SWAP1 SHR SWAP1 POP PUSH1 0x1 DUP2 DUP6 DUP2 PUSH2 0x17F8 JUMPI PUSH2 0x17F8 PUSH2 0x201D JUMP JUMPDEST DIV DUP3 ADD SWAP1 SHR SWAP1 POP PUSH2 0x1817 DUP2 DUP6 DUP2 PUSH2 0x1811 JUMPI PUSH2 0x1811 PUSH2 0x201D JUMP JUMPDEST DIV DUP3 GT SWAP1 JUMP JUMPDEST SWAP1 SUB SWAP4 SWAP3 POP POP POP JUMP JUMPDEST PUSH1 0x1 PUSH1 0x1 PUSH1 0xA0 SHL SUB DUP3 AND PUSH2 0x184A JUMPI PUSH1 0x40 MLOAD PUSH4 0xEC442F05 PUSH1 0xE0 SHL DUP2 MSTORE PUSH1 0x0 PUSH1 0x4 DUP3 ADD MSTORE PUSH1 0x24 ADD PUSH2 0x54A JUMP JUMPDEST PUSH2 0x1856 PUSH1 0x0 DUP4 DUP4 PUSH2 0x1B81 JUMP JUMPDEST POP POP JUMP JUMPDEST PUSH1 0x0 DUP3 DUP3 XOR DUP3 DUP5 LT MUL DUP3 XOR JUMPDEST SWAP4 SWAP3 POP POP POP JUMP JUMPDEST PUSH1 0x1 PUSH1 0x1 PUSH1 0x70 SHL SUB DUP5 GT DUP1 PUSH2 0x1888 JUMPI POP PUSH1 0x1 PUSH1 0x1 PUSH1 0x70 SHL SUB DUP4 GT JUMPDEST ISZERO PUSH2 0x18A6 JUMPI PUSH1 0x40 MLOAD PUSH4 0x1A93C689 PUSH1 0xE1 SHL DUP2 MSTORE PUSH1 0x4 ADD PUSH1 0x40 MLOAD DUP1 SWAP2 SUB SWAP1 REVERT JUMPDEST PUSH1 0x0 PUSH2 0x18B7 PUSH5 0x100000000 TIMESTAMP PUSH2 0x205A JUMP JUMPDEST PUSH1 0x5 SLOAD SWAP1 SWAP2 POP PUSH4 0xFFFFFFFF PUSH1 0x1 PUSH1 0xE0 SHL SWAP1 SWAP2 DIV DUP2 AND DUP3 SUB SWAP1 DUP2 AND ISZERO DUP1 ISZERO SWAP1 PUSH2 0x18E7 JUMPI POP PUSH1 0x1 PUSH1 0x1 PUSH1 0x70 SHL SUB DUP5 AND ISZERO ISZERO JUMPDEST DUP1 ISZERO PUSH2 0x18FB JUMPI POP PUSH1 0x1 PUSH1 0x1 PUSH1 0x70 SHL SUB DUP4 AND ISZERO ISZERO JUMPDEST ISZERO PUSH2 0x19A9 JUMPI PUSH4 0xFFFFFFFF DUP2 AND PUSH1 0x1 PUSH1 0x1 PUSH1 0x70 SHL SUB DUP6 AND PUSH14 0xFFFFFFFFFFFFFFFFFFFFFFFFFFFF PUSH1 0x70 SHL PUSH1 0x70 DUP7 SWAP1 SHL AND DUP2 PUSH2 0x1936 JUMPI PUSH2 0x1936 PUSH2 0x201D JUMP JUMPDEST DIV PUSH1 0x1 PUSH1 0x1 PUSH1 0xE0 SHL SUB AND MUL PUSH1 0x6 PUSH1 0x0 DUP3 DUP3 SLOAD ADD SWAP3 POP POP DUP2 SWAP1 SSTORE POP DUP1 PUSH4 0xFFFFFFFF AND DUP4 PUSH1 0x1 PUSH1 0x1 PUSH1 0x70 SHL SUB AND PUSH1 0x70 DUP7 PUSH1 0x1 PUSH1 0x1 PUSH1 0x70 SHL SUB AND PUSH1 0x1 PUSH1 0x1 PUSH1 0xE0 SHL SUB AND SWAP1 SHL PUSH1 0x1 PUSH1 0x1 PUSH1 0xE0 SHL SUB AND DUP2 PUSH2 0x198E JUMPI PUSH2 0x198E PUSH2 0x201D JUMP JUMPDEST DIV PUSH1 0x1 PUSH1 0x1 PUSH1 0xE0 SHL SUB AND MUL PUSH1 0x7 PUSH1 0x0 DUP3 DUP3 SLOAD ADD SWAP3 POP POP DUP2 SWAP1 SSTORE POP JUMPDEST PUSH1 0x5 DUP1 SLOAD PUSH4 0xFFFFFFFF DUP5 AND PUSH1 0x1 PUSH1 0xE0 SHL MUL PUSH1 0x1 PUSH1 0x1 PUSH1 0xE0 SHL SUB PUSH1 0x1 PUSH1 0x1 PUSH1 0x70 SHL SUB DUP10 DUP2 AND PUSH1 0x1 PUSH1 0x70 SHL SWAP1 DUP2 MUL PUSH1 0x1 PUSH1 0x1 PUSH1 0xE0 SHL SUB NOT SWAP1 SWAP6 AND DUP13 DUP4 AND OR SWAP5 SWAP1 SWAP5 OR SWAP2 DUP3 AND DUP4 OR SWAP5 DUP6 SWAP1 SSTORE PUSH1 0x40 DUP1 MLOAD SWAP4 DUP3 AND SWAP3 DUP3 AND SWAP3 SWAP1 SWAP3 OR DUP4 MSTORE SWAP3 SWAP1 SWAP4 DIV SWAP1 SWAP2 AND PUSH1 0x20 DUP3 ADD MSTORE PUSH32 0x1C411E9A96E071241C2F21F7726B17AE89E3CAB4C78BE50E062B03A9FFFBBAD1 SWAP2 ADD PUSH1 0x40 MLOAD DUP1 SWAP2 SUB SWAP1 LOG1 POP POP POP POP POP POP JUMP JUMPDEST PUSH2 0x1A4E DUP4 DUP4 DUP4 PUSH1 0x1 PUSH2 0x1DBC JUMP JUMPDEST PUSH2 0xC9C JUMPI PUSH1 0x40 MLOAD PUSH4 0x5274AFE7 PUSH1 0xE0 SHL DUP2 MSTORE PUSH1 0x1 PUSH1 0x1 PUSH1 0xA0 SHL SUB DUP5 AND PUSH1 0x4 DUP3 ADD MSTORE PUSH1 0x24 ADD PUSH2 0x54A JUMP JUMPDEST PUSH1 0x1 PUSH1 0x1 PUSH1 0xA0 SHL SUB DUP3 AND PUSH2 0x1AA0 JUMPI PUSH1 0x40 MLOAD PUSH4 0x4B637E8F PUSH1 0xE1 SHL DUP2 MSTORE PUSH1 0x0 PUSH1 0x4 DUP3 ADD MSTORE PUSH1 0x24 ADD PUSH2 0x54A JUMP JUMPDEST PUSH2 0x1856 DUP3 PUSH1 0x0 DUP4 PUSH2 0x1B81 JUMP JUMPDEST PUSH1 0x1 PUSH1 0x1 PUSH1 0xA0 SHL SUB DUP5 AND PUSH2 0x1AD6 JUMPI PUSH1 0x40 MLOAD PUSH4 0xE602DF05 PUSH1 0xE0 SHL DUP2 MSTORE PUSH1 0x0 PUSH1 0x4 DUP3 ADD MSTORE PUSH1 0x24 ADD PUSH2 0x54A JUMP JUMPDEST PUSH1 0x1 PUSH1 0x1 PUSH1 0xA0 SHL SUB DUP4 AND PUSH2 0x1B00 JUMPI PUSH1 0x40 MLOAD PUSH4 0x4A1406B1 PUSH1 0xE1 SHL DUP2 MSTORE PUSH1 0x0 PUSH1 0x4 DUP3 ADD MSTORE PUSH1 0x24 ADD PUSH2 0x54A JUMP JUMPDEST PUSH1 0x1 PUSH1 0x1 PUSH1 0xA0 SHL SUB DUP1 DUP6 AND PUSH1 0x0 SWAP1 DUP2 MSTORE PUSH1 0x1 PUSH1 0x20 SWAP1 DUP2 MSTORE PUSH1 0x40 DUP1 DUP4 KECCAK256 SWAP4 DUP8 AND DUP4 MSTORE SWAP3 SWAP1 MSTORE KECCAK256 DUP3 SWAP1 SSTORE DUP1 ISZERO PUSH2 0x1532 JUMPI DUP3 PUSH1 0x1 PUSH1 0x1 PUSH1 0xA0 SHL SUB AND DUP5 PUSH1 0x1 PUSH1 0x1 PUSH1 0xA0 SHL SUB AND PUSH32 0x8C5BE1E5EBEC7D5BD14F71427D1E84F3DD0314C0F7B2291E5B200AC8C7C3B925 DUP5 PUSH1 0x40 MLOAD PUSH2 0x1B73 SWAP2 DUP2 MSTORE PUSH1 0x20 ADD SWAP1 JUMP JUMPDEST PUSH1 0x40 MLOAD DUP1 SWAP2 SUB SWAP1 LOG3 POP POP POP POP JUMP JUMPDEST PUSH1 0x1 PUSH1 0x1 PUSH1 0xA0 SHL SUB DUP4 AND PUSH2 0x1BAC JUMPI DUP1 PUSH1 0x2 PUSH1 0x0 DUP3 DUP3 SLOAD PUSH2 0x1BA1 SWAP2 SWAP1 PUSH2 0x2047 JUMP JUMPDEST SWAP1 SWAP2 SSTORE POP PUSH2 0x1C1E SWAP1 POP JUMP JUMPDEST PUSH1 0x1 PUSH1 0x1 PUSH1 0xA0 SHL SUB DUP4 AND PUSH1 0x0 SWAP1 DUP2 MSTORE PUSH1 0x20 DUP2 SWAP1 MSTORE PUSH1 0x40 SWAP1 KECCAK256 SLOAD DUP2 DUP2 LT ISZERO PUSH2 0x1BFF JUMPI PUSH1 0x40 MLOAD PUSH4 0x391434E3 PUSH1 0xE2 SHL DUP2 MSTORE PUSH1 0x1 PUSH1 0x1 PUSH1 0xA0 SHL SUB DUP6 AND PUSH1 0x4 DUP3 ADD MSTORE PUSH1 0x24 DUP2 ADD DUP3 SWAP1 MSTORE PUSH1 0x44 DUP2 ADD DUP4 SWAP1 MSTORE PUSH1 0x64 ADD PUSH2 0x54A JUMP JUMPDEST PUSH1 0x1 PUSH1 0x1 PUSH1 0xA0 SHL SUB DUP5 AND PUSH1 0x0 SWAP1 DUP2 MSTORE PUSH1 0x20 DUP2 SWAP1 MSTORE PUSH1 0x40 SWAP1 KECCAK256 SWAP1 DUP3 SWAP1 SUB SWAP1 SSTORE JUMPDEST PUSH1 0x1 PUSH1 0x1 PUSH1 0xA0 SHL SUB DUP3 AND PUSH2 0x1C3A JUMPI PUSH1 0x2 DUP1 SLOAD DUP3 SWAP1 SUB SWAP1 SSTORE PUSH2 0x1C59 JUMP JUMPDEST PUSH1 0x1 PUSH1 0x1 PUSH1 0xA0 SHL SUB DUP3 AND PUSH1 0x0 SWAP1 DUP2 MSTORE PUSH1 0x20 DUP2 SWAP1 MSTORE PUSH1 0x40 SWAP1 KECCAK256 DUP1 SLOAD DUP3 ADD SWAP1 SSTORE JUMPDEST DUP2 PUSH1 0x1 PUSH1 0x1 PUSH1 0xA0 SHL SUB AND DUP4 PUSH1 0x1 PUSH1 0x1 PUSH1 0xA0 SHL SUB AND PUSH32 0xDDF252AD1BE2C89B69C2B068FC378DAA952BA7F163C4A11628F55A4DF523B3EF DUP4 PUSH1 0x40 MLOAD PUSH2 0x1C9E SWAP2 DUP2 MSTORE PUSH1 0x20 ADD SWAP1 JUMP JUMPDEST PUSH1 0x40 MLOAD DUP1 SWAP2 SUB SWAP1 LOG3 POP POP POP JUMP JUMPDEST PUSH1 0x0 DUP1 MLOAD PUSH1 0x20 PUSH2 0x20A8 DUP4 CODECOPY DUP2 MLOAD SWAP2 MSTORE SLOAD PUSH1 0x2 SUB PUSH2 0x14AA JUMPI PUSH1 0x40 MLOAD PUSH4 0x3EE5AEB5 PUSH1 0xE0 SHL DUP2 MSTORE PUSH1 0x4 ADD PUSH1 0x40 MLOAD DUP1 SWAP2 SUB SWAP1 REVERT JUMPDEST PUSH1 0x40 DUP1 MLOAD PUSH1 0x4 DUP2 MSTORE PUSH1 0x24 DUP2 ADD DUP3 MSTORE PUSH1 0x20 DUP2 ADD DUP1 MLOAD PUSH1 0x1 PUSH1 0x1 PUSH1 0xE0 SHL SUB AND PUSH3 0x2FCFCB PUSH1 0xE3 SHL OR SWAP1 MSTORE SWAP1 MLOAD PUSH1 0x0 SWAP2 DUP3 SWAP2 DUP3 SWAP2 PUSH1 0x1 PUSH1 0x1 PUSH1 0xA0 SHL SUB PUSH32 0x0 AND SWAP2 PUSH2 0x1D40 SWAP2 SWAP1 PUSH2 0x206E JUMP JUMPDEST PUSH1 0x0 PUSH1 0x40 MLOAD DUP1 DUP4 SUB DUP2 DUP6 GAS STATICCALL SWAP2 POP POP RETURNDATASIZE DUP1 PUSH1 0x0 DUP2 EQ PUSH2 0x1D7B JUMPI PUSH1 0x40 MLOAD SWAP2 POP PUSH1 0x1F NOT PUSH1 0x3F RETURNDATASIZE ADD AND DUP3 ADD PUSH1 0x40 MSTORE RETURNDATASIZE DUP3 MSTORE RETURNDATASIZE PUSH1 0x0 PUSH1 0x20 DUP5 ADD RETURNDATACOPY PUSH2 0x1D80 JUMP JUMPDEST PUSH1 0x60 SWAP2 POP JUMPDEST POP SWAP2 POP SWAP2 POP DUP2 ISZERO DUP1 PUSH2 0x1D93 JUMPI POP PUSH1 0x20 DUP2 MLOAD LT JUMPDEST ISZERO PUSH2 0x1DA1 JUMPI PUSH1 0x0 SWAP3 POP POP POP SWAP1 JUMP JUMPDEST DUP1 DUP1 PUSH1 0x20 ADD SWAP1 MLOAD DUP2 ADD SWAP1 PUSH2 0x1DB5 SWAP2 SWAP1 PUSH2 0x208A JUMP JUMPDEST SWAP3 POP POP POP SWAP1 JUMP JUMPDEST PUSH1 0x40 MLOAD PUSH4 0xA9059CBB PUSH1 0xE0 SHL PUSH1 0x0 DUP2 DUP2 MSTORE PUSH1 0x1 PUSH1 0x1 PUSH1 0xA0 SHL SUB DUP7 AND PUSH1 0x4 MSTORE PUSH1 0x24 DUP6 SWAP1 MSTORE SWAP2 PUSH1 0x20 DUP4 PUSH1 0x44 DUP2 DUP1 DUP12 GAS CALL SWAP3 POP PUSH1 0x1 PUSH1 0x0 MLOAD EQ DUP4 AND PUSH2 0x1E16 JUMPI DUP4 DUP4 ISZERO AND ISZERO PUSH2 0x1E09 JUMPI RETURNDATASIZE PUSH1 0x0 DUP3 RETURNDATACOPY RETURNDATASIZE DUP2 REVERT JUMPDEST PUSH1 0x0 DUP8 EXTCODESIZE GT RETURNDATASIZE ISZERO AND DUP4 AND SWAP3 POP JUMPDEST PUSH1 0x40 MSTORE POP SWAP5 SWAP4 POP POP POP POP JUMP JUMPDEST PUSH1 0x0 JUMPDEST DUP4 DUP2 LT ISZERO PUSH2 0x1E3D JUMPI DUP2 DUP2 ADD MLOAD DUP4 DUP3 ADD MSTORE PUSH1 0x20 ADD PUSH2 0x1E25 JUMP JUMPDEST POP POP PUSH1 0x0 SWAP2 ADD MSTORE JUMP JUMPDEST PUSH1 0x20 DUP2 MSTORE PUSH1 0x0 DUP3 MLOAD DUP1 PUSH1 0x20 DUP5 ADD MSTORE PUSH2 0x1E65 DUP2 PUSH1 0x40 DUP6 ADD PUSH1 0x20 DUP8 ADD PUSH2 0x1E22 JUMP JUMPDEST PUSH1 0x1F ADD PUSH1 0x1F NOT AND SWAP2 SWAP1 SWAP2 ADD PUSH1 0x40 ADD SWAP3 SWAP2 POP POP JUMP JUMPDEST PUSH1 0x1 PUSH1 0x1 PUSH1 0xA0 SHL SUB DUP2 AND DUP2 EQ PUSH2 0x1358 JUMPI PUSH1 0x0 DUP1 REVERT JUMPDEST PUSH1 0x0 DUP1 PUSH1 0x40 DUP4 DUP6 SUB SLT ISZERO PUSH2 0x1EA1 JUMPI PUSH1 0x0 DUP1 REVERT JUMPDEST DUP3 CALLDATALOAD PUSH2 0x1EAC DUP2 PUSH2 0x1E79 JUMP JUMPDEST SWAP5 PUSH1 0x20 SWAP4 SWAP1 SWAP4 ADD CALLDATALOAD SWAP4 POP POP POP JUMP JUMPDEST PUSH1 0x0 DUP1 PUSH1 0x0 PUSH1 0x60 DUP5 DUP7 SUB SLT ISZERO PUSH2 0x1ECF JUMPI PUSH1 0x0 DUP1 REVERT JUMPDEST DUP4 CALLDATALOAD PUSH2 0x1EDA DUP2 PUSH2 0x1E79 JUMP JUMPDEST SWAP3 POP PUSH1 0x20 DUP5 ADD CALLDATALOAD PUSH2 0x1EEA DUP2 PUSH2 0x1E79 JUMP JUMPDEST SWAP3 SWAP6 SWAP3 SWAP5 POP POP POP PUSH1 0x40 SWAP2 SWAP1 SWAP2 ADD CALLDATALOAD SWAP1 JUMP JUMPDEST PUSH1 0x0 PUSH1 0x20 DUP3 DUP5 SUB SLT ISZERO PUSH2 0x1F0D JUMPI PUSH1 0x0 DUP1 REVERT JUMPDEST DUP2 CALLDATALOAD PUSH2 0x1866 DUP2 PUSH2 0x1E79 JUMP JUMPDEST PUSH1 0x0 DUP1 PUSH1 0x0 PUSH1 0x60 DUP5 DUP7 SUB SLT ISZERO PUSH2 0x1F2D JUMPI PUSH1 0x0 DUP1 REVERT JUMPDEST DUP4 CALLDATALOAD SWAP3 POP PUSH1 0x20 DUP5 ADD CALLDATALOAD SWAP2 POP PUSH1 0x40 DUP5 ADD CALLDATALOAD PUSH2 0x1F46 DUP2 PUSH2 0x1E79 JUMP JUMPDEST DUP1 SWAP2 POP POP SWAP3 POP SWAP3 POP SWAP3 JUMP JUMPDEST PUSH1 0x0 DUP1 PUSH1 0x40 DUP4 DUP6 SUB SLT ISZERO PUSH2 0x1F64 JUMPI PUSH1 0x0 DUP1 REVERT JUMPDEST DUP3 CALLDATALOAD PUSH2 0x1F6F DUP2 PUSH2 0x1E79 JUMP JUMPDEST SWAP2 POP PUSH1 0x20 DUP4 ADD CALLDATALOAD PUSH2 0x1F7F DUP2 PUSH2 0x1E79 JUMP JUMPDEST DUP1 SWAP2 POP POP SWAP3 POP SWAP3 SWAP1 POP JUMP JUMPDEST PUSH1 0x1 DUP2 DUP2 SHR SWAP1 DUP3 AND DUP1 PUSH2 0x1F9E JUMPI PUSH1 0x7F DUP3 AND SWAP2 POP JUMPDEST PUSH1 0x20 DUP3 LT DUP2 SUB PUSH2 0x1FBE JUMPI PUSH4 0x4E487B71 PUSH1 0xE0 SHL PUSH1 0x0 MSTORE PUSH1 0x22 PUSH1 0x4 MSTORE PUSH1 0x24 PUSH1 0x0 REVERT JUMPDEST POP SWAP2 SWAP1 POP JUMP JUMPDEST PUSH1 0x0 PUSH1 0x20 DUP3 DUP5 SUB SLT ISZERO PUSH2 0x1FD6 JUMPI PUSH1 0x0 DUP1 REVERT JUMPDEST POP MLOAD SWAP2 SWAP1 POP JUMP JUMPDEST PUSH4 0x4E487B71 PUSH1 0xE0 SHL PUSH1 0x0 MSTORE PUSH1 0x11 PUSH1 0x4 MSTORE PUSH1 0x24 PUSH1 0x0 REVERT JUMPDEST DUP2 DUP2 SUB DUP2 DUP2 GT ISZERO PUSH2 0x459 JUMPI PUSH2 0x459 PUSH2 0x1FDD JUMP JUMPDEST DUP1 DUP3 MUL DUP2 ISZERO DUP3 DUP3 DIV DUP5 EQ OR PUSH2 0x459 JUMPI PUSH2 0x459 PUSH2 0x1FDD JUMP JUMPDEST PUSH4 0x4E487B71 PUSH1 0xE0 SHL PUSH1 0x0 MSTORE PUSH1 0x12 PUSH1 0x4 MSTORE PUSH1 0x24 PUSH1 0x0 REVERT JUMPDEST PUSH1 0x0 DUP3 PUSH2 0x2042 JUMPI PUSH2 0x2042 PUSH2 0x201D JUMP JUMPDEST POP DIV SWAP1 JUMP JUMPDEST DUP1 DUP3 ADD DUP1 DUP3 GT ISZERO PUSH2 0x459 JUMPI PUSH2 0x459 PUSH2 0x1FDD JUMP JUMPDEST PUSH1 0x0 DUP3 PUSH2 0x2069 JUMPI PUSH2 0x2069 PUSH2 0x201D JUMP JUMPDEST POP MOD SWAP1 JUMP JUMPDEST PUSH1 0x0 DUP3 MLOAD PUSH2 0x2080 DUP2 DUP5 PUSH1 0x20 DUP8 ADD PUSH2 0x1E22 JUMP JUMPDEST SWAP2 SWAP1 SWAP2 ADD SWAP3 SWAP2 POP POP JUMP JUMPDEST PUSH1 0x0 PUSH1 0x20 DUP3 DUP5 SUB SLT ISZERO PUSH2 0x209C JUMPI PUSH1 0x0 DUP1 REVERT JUMPDEST DUP2 MLOAD PUSH2 0x1866 DUP2 PUSH2 0x1E79 JUMP INVALID SWAP12 PUSH24 0x9B17422D0DF92223018B32B4D1FA46E071723D6817E2486D STOP EXTCODESIZE 0xEC 0xC5 PUSH0 STOP LOG2 PUSH5 0x6970667358 0x22 SLT KECCAK256 0xBE DUP6 PUSH31 0x1450CBE0011FE56D7007D82D99B42BD2237536CF9AF5846C261292562F6473 PUSH16 0x6C63430008180033A264697066735822 SLT KECCAK256 DUP1 AND NUMBER 0xB4 PUSH7 0x62308016843A00 0xFB PUSH14 0x17F777FB190699F2C4F78010624B PUSH11 0xC6D6EC64736F6C63430008 XOR STOP CALLER "
		},
		"gasEstimates": {
			"creation": {
				"codeDepositCost": "2659400",
				"executionCost": "infinite",
				"totalCost": "infinite"
			},
			"external": {
				"LP_FEE_BPS()": "263",
				"PROTOCOL_FEE_BPS()": "306",
				"TOTAL_FEE_BPS()": "263",
				"allPairs(uint256)": "4694",
				"allPairsLength()": "2371",
				"createPair(address,address)": "infinite",
				"emissionsWhitelist(address)": "2598",
				"feeTo()": "2373",
				"getFeeConfig()": "289",
				"getPair(address,address)": "infinite",
				"getPairAddress(address,address)": "infinite",
				"getPartnerConfig(address)": "4867",
				"isPairEmissionsEligible(address)": "2617",
				"isPartnerPool(address)": "2576",
				"owner()": "2431",
				"partnerDestination(address)": "2592",
				"pause()": "27759",
				"paused()": "2439",
				"renounceOwnership()": "infinite",
				"router()": "2436",
				"setEmissionsWhitelist(address,bool)": "infinite",
				"setFeeTo(address)": "30512",
				"setPartnerPool(address,address,bool)": "infinite",
				"setRouter(address)": "27954",
				"setTimbsToken(address)": "27955",
				"timbsToken()": "2395",
				"transferOwnership(address)": "28399",
				"unpause()": "27726"
			}
		},
		"methodIdentifiers": {
			"LP_FEE_BPS()": "a5258210",
			"PROTOCOL_FEE_BPS()": "be378228",
			"TOTAL_FEE_BPS()": "6f28507c",
			"allPairs(uint256)": "1e3dd18b",
			"allPairsLength()": "574f2ba3",
			"createPair(address,address)": "c9c65396",
			"emissionsWhitelist(address)": "c49823b2",
			"feeTo()": "017e7e58",
			"getFeeConfig()": "5fbbc0d2",
			"getPair(address,address)": "e6a43905",
			"getPairAddress(address,address)": "b4f69a2f",
			"getPartnerConfig(address)": "85cfef96",
			"isPairEmissionsEligible(address)": "55974c4b",
			"isPartnerPool(address)": "7b3fa96d",
			"owner()": "8da5cb5b",
			"partnerDestination(address)": "ae416e27",
			"pause()": "8456cb59",
			"paused()": "5c975abb",
			"renounceOwnership()": "715018a6",
			"router()": "f887ea40",
			"setEmissionsWhitelist(address,bool)": "ba5d27d1",
			"setFeeTo(address)": "f46901ed",
			"setPartnerPool(address,address,bool)": "a97ead83",
			"setRouter(address)": "c0d78655",
			"setTimbsToken(address)": "a2092a32",
			"timbsToken()": "0e31648f",
			"transferOwnership(address)": "f2fde38b",
			"unpause()": "3f4ba83a"
		}
	},
	"abi": [
		{
			"inputs": [
				{
					"internalType": "address",
					"name": "_feeTo",
					"type": "address"
				}
			],
			"stateMutability": "nonpayable",
			"type": "constructor"
		},
		{
			"inputs": [],
			"name": "IdenticalAddresses",
			"type": "error"
		},
		{
			"inputs": [],
			"name": "NotRouter",
			"type": "error"
		},
		{
			"inputs": [
				{
					"internalType": "address",
					"name": "owner",
					"type": "address"
				}
			],
			"name": "OwnableInvalidOwner",
			"type": "error"
		},
		{
			"inputs": [
				{
					"internalType": "address",
					"name": "account",
					"type": "address"
				}
			],
			"name": "OwnableUnauthorizedAccount",
			"type": "error"
		},
		{
			"inputs": [],
			"name": "PairCreationPaused",
			"type": "error"
		},
		{
			"inputs": [
				{
					"internalType": "address",
					"name": "pair",
					"type": "address"
				}
			],
			"name": "PairExists",
			"type": "error"
		},
		{
			"inputs": [],
			"name": "ReentrancyGuardReentrantCall",
			"type": "error"
		},
		{
			"inputs": [],
			"name": "ZeroAddress",
			"type": "error"
		},
		{
			"anonymous": false,
			"inputs": [
				{
					"indexed": true,
					"internalType": "address",
					"name": "pair",
					"type": "address"
				},
				{
					"indexed": false,
					"internalType": "bool",
					"name": "whitelisted",
					"type": "bool"
				}
			],
			"name": "EmissionsWhitelistUpdated",
			"type": "event"
		},
		{
			"anonymous": false,
			"inputs": [
				{
					"indexed": true,
					"internalType": "address",
					"name": "oldFeeTo",
					"type": "address"
				},
				{
					"indexed": true,
					"internalType": "address",
					"name": "newFeeTo",
					"type": "address"
				}
			],
			"name": "FeeToUpdated",
			"type": "event"
		},
		{
			"anonymous": false,
			"inputs": [
				{
					"indexed": true,
					"internalType": "address",
					"name": "previousOwner",
					"type": "address"
				},
				{
					"indexed": true,
					"internalType": "address",
					"name": "newOwner",
					"type": "address"
				}
			],
			"name": "OwnershipTransferred",
			"type": "event"
		},
		{
			"anonymous": false,
			"inputs": [
				{
					"indexed": true,
					"internalType": "address",
					"name": "token0",
					"type": "address"
				},
				{
					"indexed": true,
					"internalType": "address",
					"name": "token1",
					"type": "address"
				},
				{
					"indexed": false,
					"internalType": "address",
					"name": "pair",
					"type": "address"
				},
				{
					"indexed": false,
					"internalType": "uint256",
					"name": "index",
					"type": "uint256"
				}
			],
			"name": "PairCreated",
			"type": "event"
		},
		{
			"anonymous": false,
			"inputs": [
				{
					"indexed": true,
					"internalType": "address",
					"name": "pair",
					"type": "address"
				},
				{
					"indexed": true,
					"internalType": "address",
					"name": "destination",
					"type": "address"
				},
				{
					"indexed": false,
					"internalType": "bool",
					"name": "active",
					"type": "bool"
				}
			],
			"name": "PartnerPoolSet",
			"type": "event"
		},
		{
			"anonymous": false,
			"inputs": [
				{
					"indexed": true,
					"internalType": "address",
					"name": "by",
					"type": "address"
				}
			],
			"name": "Paused",
			"type": "event"
		},
		{
			"anonymous": false,
			"inputs": [
				{
					"indexed": true,
					"internalType": "address",
					"name": "router",
					"type": "address"
				}
			],
			"name": "RouterSet",
			"type": "event"
		},
		{
			"anonymous": false,
			"inputs": [
				{
					"indexed": true,
					"internalType": "address",
					"name": "timbsToken",
					"type": "address"
				}
			],
			"name": "TimbsTokenSet",
			"type": "event"
		},
		{
			"anonymous": false,
			"inputs": [
				{
					"indexed": true,
					"internalType": "address",
					"name": "by",
					"type": "address"
				}
			],
			"name": "Unpaused",
			"type": "event"
		},
		{
			"inputs": [],
			"name": "LP_FEE_BPS",
			"outputs": [
				{
					"internalType": "uint256",
					"name": "",
					"type": "uint256"
				}
			],
			"stateMutability": "view",
			"type": "function"
		},
		{
			"inputs": [],
			"name": "PROTOCOL_FEE_BPS",
			"outputs": [
				{
					"internalType": "uint256",
					"name": "",
					"type": "uint256"
				}
			],
			"stateMutability": "view",
			"type": "function"
		},
		{
			"inputs": [],
			"name": "TOTAL_FEE_BPS",
			"outputs": [
				{
					"internalType": "uint256",
					"name": "",
					"type": "uint256"
				}
			],
			"stateMutability": "view",
			"type": "function"
		},
		{
			"inputs": [
				{
					"internalType": "uint256",
					"name": "",
					"type": "uint256"
				}
			],
			"name": "allPairs",
			"outputs": [
				{
					"internalType": "address",
					"name": "",
					"type": "address"
				}
			],
			"stateMutability": "view",
			"type": "function"
		},
		{
			"inputs": [],
			"name": "allPairsLength",
			"outputs": [
				{
					"internalType": "uint256",
					"name": "",
					"type": "uint256"
				}
			],
			"stateMutability": "view",
			"type": "function"
		},
		{
			"inputs": [
				{
					"internalType": "address",
					"name": "tokenA",
					"type": "address"
				},
				{
					"internalType": "address",
					"name": "tokenB",
					"type": "address"
				}
			],
			"name": "createPair",
			"outputs": [
				{
					"internalType": "address",
					"name": "pair",
					"type": "address"
				}
			],
			"stateMutability": "nonpayable",
			"type": "function"
		},
		{
			"inputs": [
				{
					"internalType": "address",
					"name": "",
					"type": "address"
				}
			],
			"name": "emissionsWhitelist",
			"outputs": [
				{
					"internalType": "bool",
					"name": "",
					"type": "bool"
				}
			],
			"stateMutability": "view",
			"type": "function"
		},
		{
			"inputs": [],
			"name": "feeTo",
			"outputs": [
				{
					"internalType": "address",
					"name": "",
					"type": "address"
				}
			],
			"stateMutability": "view",
			"type": "function"
		},
		{
			"inputs": [],
			"name": "getFeeConfig",
			"outputs": [
				{
					"internalType": "uint256",
					"name": "",
					"type": "uint256"
				},
				{
					"internalType": "uint256",
					"name": "",
					"type": "uint256"
				},
				{
					"internalType": "uint256",
					"name": "",
					"type": "uint256"
				},
				{
					"internalType": "uint256",
					"name": "",
					"type": "uint256"
				}
			],
			"stateMutability": "pure",
			"type": "function"
		},
		{
			"inputs": [
				{
					"internalType": "address",
					"name": "",
					"type": "address"
				},
				{
					"internalType": "address",
					"name": "",
					"type": "address"
				}
			],
			"name": "getPair",
			"outputs": [
				{
					"internalType": "address",
					"name": "",
					"type": "address"
				}
			],
			"stateMutability": "view",
			"type": "function"
		},
		{
			"inputs": [
				{
					"internalType": "address",
					"name": "tokenA",
					"type": "address"
				},
				{
					"internalType": "address",
					"name": "tokenB",
					"type": "address"
				}
			],
			"name": "getPairAddress",
			"outputs": [
				{
					"internalType": "address",
					"name": "",
					"type": "address"
				}
			],
			"stateMutability": "view",
			"type": "function"
		},
		{
			"inputs": [
				{
					"internalType": "address",
					"name": "pair",
					"type": "address"
				}
			],
			"name": "getPartnerConfig",
			"outputs": [
				{
					"internalType": "bool",
					"name": "active",
					"type": "bool"
				},
				{
					"internalType": "address",
					"name": "destination",
					"type": "address"
				}
			],
			"stateMutability": "view",
			"type": "function"
		},
		{
			"inputs": [
				{
					"internalType": "address",
					"name": "pair",
					"type": "address"
				}
			],
			"name": "isPairEmissionsEligible",
			"outputs": [
				{
					"internalType": "bool",
					"name": "",
					"type": "bool"
				}
			],
			"stateMutability": "view",
			"type": "function"
		},
		{
			"inputs": [
				{
					"internalType": "address",
					"name": "",
					"type": "address"
				}
			],
			"name": "isPartnerPool",
			"outputs": [
				{
					"internalType": "bool",
					"name": "",
					"type": "bool"
				}
			],
			"stateMutability": "view",
			"type": "function"
		},
		{
			"inputs": [],
			"name": "owner",
			"outputs": [
				{
					"internalType": "address",
					"name": "",
					"type": "address"
				}
			],
			"stateMutability": "view",
			"type": "function"
		},
		{
			"inputs": [
				{
					"internalType": "address",
					"name": "",
					"type": "address"
				}
			],
			"name": "partnerDestination",
			"outputs": [
				{
					"internalType": "address",
					"name": "",
					"type": "address"
				}
			],
			"stateMutability": "view",
			"type": "function"
		},
		{
			"inputs": [],
			"name": "pause",
			"outputs": [],
			"stateMutability": "nonpayable",
			"type": "function"
		},
		{
			"inputs": [],
			"name": "paused",
			"outputs": [
				{
					"internalType": "bool",
					"name": "",
					"type": "bool"
				}
			],
			"stateMutability": "view",
			"type": "function"
		},
		{
			"inputs": [],
			"name": "renounceOwnership",
			"outputs": [],
			"stateMutability": "nonpayable",
			"type": "function"
		},
		{
			"inputs": [],
			"name": "router",
			"outputs": [
				{
					"internalType": "address",
					"name": "",
					"type": "address"
				}
			],
			"stateMutability": "view",
			"type": "function"
		},
		{
			"inputs": [
				{
					"internalType": "address",
					"name": "pair",
					"type": "address"
				},
				{
					"internalType": "bool",
					"name": "whitelisted",
					"type": "bool"
				}
			],
			"name": "setEmissionsWhitelist",
			"outputs": [],
			"stateMutability": "nonpayable",
			"type": "function"
		},
		{
			"inputs": [
				{
					"internalType": "address",
					"name": "_feeTo",
					"type": "address"
				}
			],
			"name": "setFeeTo",
			"outputs": [],
			"stateMutability": "nonpayable",
			"type": "function"
		},
		{
			"inputs": [
				{
					"internalType": "address",
					"name": "pair",
					"type": "address"
				},
				{
					"internalType": "address",
					"name": "destination",
					"type": "address"
				},
				{
					"internalType": "bool",
					"name": "active",
					"type": "bool"
				}
			],
			"name": "setPartnerPool",
			"outputs": [],
			"stateMutability": "nonpayable",
			"type": "function"
		},
		{
			"inputs": [
				{
					"internalType": "address",
					"name": "_router",
					"type": "address"
				}
			],
			"name": "setRouter",
			"outputs": [],
			"stateMutability": "nonpayable",
			"type": "function"
		},
		{
			"inputs": [
				{
					"internalType": "address",
					"name": "_timbsToken",
					"type": "address"
				}
			],
			"name": "setTimbsToken",
			"outputs": [],
			"stateMutability": "nonpayable",
			"type": "function"
		},
		{
			"inputs": [],
			"name": "timbsToken",
			"outputs": [
				{
					"internalType": "address",
					"name": "",
					"type": "address"
				}
			],
			"stateMutability": "view",
			"type": "function"
		},
		{
			"inputs": [
				{
					"internalType": "address",
					"name": "newOwner",
					"type": "address"
				}
			],
			"name": "transferOwnership",
			"outputs": [],
			"stateMutability": "nonpayable",
			"type": "function"
		},
		{
			"inputs": [],
			"name": "unpause",
			"outputs": [],
			"stateMutability": "nonpayable",
			"type": "function"
		}
	]
}