{
	"data": {
		"bytecode": {
			"linkReferences": {},
			"object": "60a060405234801562000010575f80fd5b50604051620024f8380380620024f8833981810160405281019062000036919062000406565b335f73ffffffffffffffffffffffffffffffffffffffff168173ffffffffffffffffffffffffffffffffffffffff1603620000aa575f6040517f1e4fbdf7000000000000000000000000000000000000000000000000000000008152600401620000a1919062000486565b60405180910390fd5b620000bb81620002ae60201b60201c565b506001620000de620000d26200036f60201b60201c565b6200039860201b60201c565b5f01819055505f73ffffffffffffffffffffffffffffffffffffffff168473ffffffffffffffffffffffffffffffffffffffff16036200014a576040517fd92e233d00000000000000000000000000000000000000000000000000000000815260040160405180910390fd5b5f73ffffffffffffffffffffffffffffffffffffffff168373ffffffffffffffffffffffffffffffffffffffff1603620001b0576040517fd92e233d00000000000000000000000000000000000000000000000000000000815260040160405180910390fd5b8373ffffffffffffffffffffffffffffffffffffffff1660808173ffffffffffffffffffffffffffffffffffffffff16815250508260015f6101000a81548173ffffffffffffffffffffffffffffffffffffffff021916908373ffffffffffffffffffffffffffffffffffffffff1602179055508160025f6101000a81548173ffffffffffffffffffffffffffffffffffffffff021916908373ffffffffffffffffffffffffffffffffffffffff1602179055508060035f6101000a81548173ffffffffffffffffffffffffffffffffffffffff021916908373ffffffffffffffffffffffffffffffffffffffff16021790555050505050620004a1565b5f805f9054906101000a900473ffffffffffffffffffffffffffffffffffffffff169050815f806101000a81548173ffffffffffffffffffffffffffffffffffffffff021916908373ffffffffffffffffffffffffffffffffffffffff1602179055508173ffffffffffffffffffffffffffffffffffffffff168173ffffffffffffffffffffffffffffffffffffffff167f8be0079c531659141344cd1fd0a4f28419497f9722a3daafe3b4186f6b6457e060405160405180910390a35050565b5f7f9b779b17422d0df92223018b32b4d1fa46e071723d6817e2486d003becc55f005f1b905090565b5f819050919050565b5f80fd5b5f73ffffffffffffffffffffffffffffffffffffffff82169050919050565b5f620003d082620003a5565b9050919050565b620003e281620003c4565b8114620003ed575f80fd5b50565b5f815190506200040081620003d7565b92915050565b5f805f8060808587031215620004215762000420620003a1565b5b5f6200043087828801620003f0565b94505060206200044387828801620003f0565b93505060406200045687828801620003f0565b92505060606200046987828801620003f0565b91505092959194509250565b6200048081620003c4565b82525050565b5f6020820190506200049b5f83018462000475565b92915050565b608051612030620004c85f395f81816107fc015281816108230152610e5301526120305ff3fe608060405234801561000f575f80fd5b5060043610610135575f3560e01c80638da5cb5b116100b6578063d52bb6f41161007a578063d52bb6f414610305578063e1a4521814610336578063e98f679714610354578063f0f4426014610384578063f13afb90146103a0578063f2fde38b146103bc57610135565b80638da5cb5b1461025d57806392eaa9d91461027b578063ad615dec14610299578063be378228146102c9578063c45a0155146102e757610135565b80635c975abb116100fd5780635c975abb146101dd57806361d027b3146101fb578063715018a6146102195780638456cb591461022357806385f8c2591461022d57610135565b8063054d50d41461013957806327b23849146101695780633824659c146101855780633f4ba83a146101b55780635364276d146101bf575b5f80fd5b610153600480360381019061014e9190611a40565b6103d8565b6040516101609190611a9f565b60405180910390f35b610183600480360381019061017e9190611b12565b6103ed565b005b61019f600480360381019061019a9190611b72565b61047b565b6040516101ac9190611a9f565b60405180910390f35b6101bd610640565b005b6101c76106a7565b6040516101d49190611c1e565b60405180910390f35b6101e56106cc565b6040516101f29190611c46565b60405180910390f35b6102036106df565b6040516102109190611c1e565b60405180910390f35b610221610704565b005b61022b610717565b005b61024760048036038101906102429190611a40565b61077f565b6040516102549190611a9f565b60405180910390f35b610265610794565b6040516102729190611c1e565b60405180910390f35b6102836107bb565b6040516102909190611c1e565b60405180910390f35b6102b360048036038101906102ae9190611a40565b6107e0565b6040516102c09190611a9f565b60405180910390f35b6102d16107f5565b6040516102de9190611a9f565b60405180910390f35b6102ef6107fa565b6040516102fc9190611c1e565b60405180910390f35b61031f600480360381019061031a9190611c5f565b61081e565b60405161032d929190611c9d565b60405180910390f35b61033e610913565b60405161034b9190611a9f565b60405180910390f35b61036e60048036038101906103699190611b72565b610919565b60405161037b9190611a9f565b60405180910390f35b61039e60048036038101906103999190611b12565b610ad1565b005b6103ba60048036038101906103b59190611b12565b610bfc565b005b6103d660048036038101906103d19190611b12565b610c8a565b005b5f6103e4848484610d0e565b90509392505050565b6103f5610da7565b8060035f6101000a81548173ffffffffffffffffffffffffffffffffffffffff021916908373ffffffffffffffffffffffffffffffffffffffff1602179055508073ffffffffffffffffffffffffffffffffffffffff167f89386b8711bad3ec737a1746dbcc52de03de68add300345f9acb944c28ae03f360405160405180910390a250565b5f610484610e2e565b600360149054906101000a900460ff16156104cb576040517ff562b5a000000000000000000000000000000000000000000000000000000000815260040160405180910390fd5b828042111561051157806040517ff80dbaea0000000000000000000000000000000000000000000000000000000081526004016105089190611a9f565b60405180910390fd5b5f890361054a576040517f1f2a200500000000000000000000000000000000000000000000000000000000815260040160405180910390fd5b5f73ffffffffffffffffffffffffffffffffffffffff168573ffffffffffffffffffffffffffffffffffffffff16036105af576040517fd92e233d00000000000000000000000000000000000000000000000000000000815260040160405180910390fd5b5f806105c46105be8a8a610e50565b8a610f65565b915091506105d38b8383610d0e565b93508984101561061c57838a6040517fd28d3eb5000000000000000000000000000000000000000000000000000000008152600401610613929190611c9d565b60405180910390fd5b61062a89898d878b8a6110d5565b505050610635611179565b979650505050505050565b610648610da7565b5f600360146101000a81548160ff0219169083151502179055503373ffffffffffffffffffffffffffffffffffffffff167f5db9ee0a495bf2e6ff9c91a7834c1ba4fdd244a5e8aa4e537bd38aeae4b073aa60405160405180910390a2565b60035f9054906101000a900473ffffffffffffffffffffffffffffffffffffffff1681565b600360149054906101000a900460ff1681565b60015f9054906101000a900473ffffffffffffffffffffffffffffffffffffffff1681565b61070c610da7565b6107155f611193565b565b61071f610da7565b6001600360146101000a81548160ff0219169083151502179055503373ffffffffffffffffffffffffffffffffffffffff167f62e78cea01bee320cd4e420270b5ea74000d11b0c9f74754ebdbfc544b05a25860405160405180910390a2565b5f61078b848484611254565b90509392505050565b5f805f9054906101000a900473ffffffffffffffffffffffffffffffffffffffff16905090565b60025f9054906101000a900473ffffffffffffffffffffffffffffffffffffffff1681565b5f6107ec8484846112f4565b90509392505050565b600581565b7f000000000000000000000000000000000000000000000000000000000000000081565b5f805f7f000000000000000000000000000000000000000000000000000000000000000073ffffffffffffffffffffffffffffffffffffffff1663b4f69a2f86866040518363ffffffff1660e01b815260040161087c929190611cc4565b602060405180830381865afa158015610897573d5f803e3d5ffd5b505050506040513d601f19601f820116820180604052508101906108bb9190611cff565b90505f73ffffffffffffffffffffffffffffffffffffffff168173ffffffffffffffffffffffffffffffffffffffff16036108fc575f80925092505061090c565b6109068186610f65565b92509250505b9250929050565b61271081565b5f610922610e2e565b600360149054906101000a900460ff1615610969576040517ff562b5a000000000000000000000000000000000000000000000000000000000815260040160405180910390fd5b82804211156109af57806040517ff80dbaea0000000000000000000000000000000000000000000000000000000081526004016109a69190611a9f565b60405180910390fd5b5f89036109e8576040517f1f2a200500000000000000000000000000000000000000000000000000000000815260040160405180910390fd5b5f73ffffffffffffffffffffffffffffffffffffffff168573ffffffffffffffffffffffffffffffffffffffff1603610a4d576040517fd92e233d00000000000000000000000000000000000000000000000000000000815260040160405180910390fd5b5f80610a62610a5c8a8a610e50565b8a610f65565b91509150610a718b8383611254565b935089841115610aad576040517fe1b0da4f00000000000000000000000000000000000000000000000000000000815260040160405180910390fd5b610abb8989868e8b8a6110d5565b505050610ac6611179565b979650505050505050565b610ad9610da7565b5f73ffffffffffffffffffffffffffffffffffffffff168173ffffffffffffffffffffffffffffffffffffffff1603610b3e576040517fd92e233d00000000000000000000000000000000000000000000000000000000815260040160405180910390fd5b8073ffffffffffffffffffffffffffffffffffffffff1660015f9054906101000a900473ffffffffffffffffffffffffffffffffffffffff1673ffffffffffffffffffffffffffffffffffffffff167f4ab5be82436d353e61ca18726e984e561f5c1cc7c6d38b29d2553c790434705a60405160405180910390a38060015f6101000a81548173ffffffffffffffffffffffffffffffffffffffff021916908373ffffffffffffffffffffffffffffffffffffffff16021790555050565b610c04610da7565b8060025f6101000a81548173ffffffffffffffffffffffffffffffffffffffff021916908373ffffffffffffffffffffffffffffffffffffffff1602179055508073ffffffffffffffffffffffffffffffffffffffff167f34b668b6f49e81b64bdb88c7de7501c0a197d9b12c46848ef3bcd5915284321060405160405180910390a250565b610c92610da7565b5f73ffffffffffffffffffffffffffffffffffffffff168173ffffffffffffffffffffffffffffffffffffffff1603610d02575f6040517f1e4fbdf7000000000000000000000000000000000000000000000000000000008152600401610cf99190611c1e565b60405180910390fd5b610d0b81611193565b50565b5f80841480610d1c57505f83145b80610d2657505f82145b15610d5d576040517f1f2a200500000000000000000000000000000000000000000000000000000000815260040160405180910390fd5b5f6103e585610d6c9190611d57565b9050806103e885610d7d9190611d57565b610d879190611d98565b8382610d939190611d57565b610d9d9190611df8565b9150509392505050565b610daf611363565b73ffffffffffffffffffffffffffffffffffffffff16610dcd610794565b73ffffffffffffffffffffffffffffffffffffffff1614610e2c57610df0611363565b6040517f118cdaa7000000000000000000000000000000000000000000000000000000008152600401610e239190611c1e565b60405180910390fd5b565b610e3661136a565b6002610e48610e436113ab565b6113d4565b5f0181905550565b5f7f000000000000000000000000000000000000000000000000000000000000000073ffffffffffffffffffffffffffffffffffffffff1663b4f69a2f84846040518363ffffffff1660e01b8152600401610eac929190611cc4565b602060405180830381865afa158015610ec7573d5f803e3d5ffd5b505050506040513d601f19601f82011682018060405250810190610eeb9190611cff565b90505f73ffffffffffffffffffffffffffffffffffffffff168173ffffffffffffffffffffffffffffffffffffffff1603610f5f5782826040517f4db171d4000000000000000000000000000000000000000000000000000000008152600401610f56929190611cc4565b60405180910390fd5b92915050565b5f805f808573ffffffffffffffffffffffffffffffffffffffff16630902f1ac6040518163ffffffff1660e01b8152600401606060405180830381865afa158015610fb2573d5f803e3d5ffd5b505050506040513d601f19601f82011682018060405250810190610fd69190611ea4565b50915091508573ffffffffffffffffffffffffffffffffffffffff16630dfe16816040518163ffffffff1660e01b8152600401602060405180830381865afa158015611024573d5f803e3d5ffd5b505050506040513d601f19601f820116820180604052508101906110489190611cff565b73ffffffffffffffffffffffffffffffffffffffff168573ffffffffffffffffffffffffffffffffffffffff16146110a157806dffffffffffffffffffffffffffff16826dffffffffffffffffffffffffffff166110c4565b816dffffffffffffffffffffffffffff16816dffffffffffffffffffffffffffff165b809450819550505050509250929050565b5f6110e08787610e50565b905061110f3382878a73ffffffffffffffffffffffffffffffffffffffff166113dd909392919063ffffffff16565b6111198786611432565b6111258188868661158a565b61112f87836116b0565b7f300b4a9ac356114be2eaffe0f530cd615f14560df4b634adc11142d1358e897633888888888860405161116896959493929190611ef4565b60405180910390a150505050505050565b600161118b6111866113ab565b6113d4565b5f0181905550565b5f805f9054906101000a900473ffffffffffffffffffffffffffffffffffffffff169050815f806101000a81548173ffffffffffffffffffffffffffffffffffffffff021916908373ffffffffffffffffffffffffffffffffffffffff1602179055508173ffffffffffffffffffffffffffffffffffffffff168173ffffffffffffffffffffffffffffffffffffffff167f8be0079c531659141344cd1fd0a4f28419497f9722a3daafe3b4186f6b6457e060405160405180910390a35050565b5f8084148061126257505f83145b8061126c57505f82145b156112a3576040517f1f2a200500000000000000000000000000000000000000000000000000000000815260040160405180910390fd5b60016103e585846112b49190611f53565b6112be9190611d57565b6103e886866112cd9190611d57565b6112d79190611d57565b6112e19190611df8565b6112eb9190611d98565b90509392505050565b5f8084148061130257505f83145b8061130c57505f82145b15611343576040517f1f2a200500000000000000000000000000000000000000000000000000000000815260040160405180910390fd5b8282856113509190611d57565b61135a9190611df8565b90509392505050565b5f33905090565b61137261197c565b156113a9576040517f3ee5aeb500000000000000000000000000000000000000000000000000000000815260040160405180910390fd5b565b5f7f9b779b17422d0df92223018b32b4d1fa46e071723d6817e2486d003becc55f005f1b905090565b5f819050919050565b6113eb848484846001611998565b61142c57836040517f5274afe70000000000000000000000000000000000000000000000000000000081526004016114239190611c1e565b60405180910390fd5b50505050565b5f6127106005836114439190611d57565b61144d9190611df8565b90505f811180156114ab57505f73ffffffffffffffffffffffffffffffffffffffff1660015f9054906101000a900473ffffffffffffffffffffffffffffffffffffffff1673ffffffffffffffffffffffffffffffffffffffff1614155b15611585576114fe3360015f9054906101000a900473ffffffffffffffffffffffffffffffffffffffff16838673ffffffffffffffffffffffffffffffffffffffff166113dd909392919063ffffffff16565b8273ffffffffffffffffffffffffffffffffffffffff1660015f9054906101000a900473ffffffffffffffffffffffffffffffffffffffff1673ffffffffffffffffffffffffffffffffffffffff167f493fdd1f2099b9854729d46428ce244dbb655e5209e74967fd51b0f0e9fe4e1e8360405161157c9190611a9f565b60405180910390a35b505050565b5f8373ffffffffffffffffffffffffffffffffffffffff168573ffffffffffffffffffffffffffffffffffffffff16630dfe16816040518163ffffffff1660e01b8152600401602060405180830381865afa1580156115eb573d5f803e3d5ffd5b505050506040513d601f19601f8201168201806040525081019061160f9190611cff565b73ffffffffffffffffffffffffffffffffffffffff161490505f808261163657845f611639565b5f855b915091508673ffffffffffffffffffffffffffffffffffffffff16636d9a640a8383876040518463ffffffff1660e01b815260040161167a93929190611f86565b5f604051808303815f87803b158015611691575f80fd5b505af11580156116a3573d5f803e3d5ffd5b5050505050505050505050565b8015611978575f73ffffffffffffffffffffffffffffffffffffffff1660035f9054906101000a900473ffffffffffffffffffffffffffffffffffffffff1673ffffffffffffffffffffffffffffffffffffffff160315611978575f73ffffffffffffffffffffffffffffffffffffffff1660025f9054906101000a900473ffffffffffffffffffffffffffffffffffffffff1673ffffffffffffffffffffffffffffffffffffffff1603156119785760025f9054906101000a900473ffffffffffffffffffffffffffffffffffffffff1673ffffffffffffffffffffffffffffffffffffffff166366e305fd836040518263ffffffff1660e01b81526004016117ba9190611c1e565b602060405180830381865afa9250505080156117f457506040513d601f19601f820116820180604052508101906117f19190611fcf565b60015b1561197857806118045750611978565b5060035f9054906101000a900473ffffffffffffffffffffffffffffffffffffffff1673ffffffffffffffffffffffffffffffffffffffff1663c33b75866040518163ffffffff1660e01b8152600401602060405180830381865afa92505050801561188e57506040513d601f19601f8201168201806040525081019061188b9190611fcf565b60015b1561197857801561189f5750611978565b5060035f9054906101000a900473ffffffffffffffffffffffffffffffffffffffff1673ffffffffffffffffffffffffffffffffffffffff16630b7a567b6040518163ffffffff1660e01b81526004015f604051808303815f87803b158015611906575f80fd5b505af1925050508015611917575060015b15611977578173ffffffffffffffffffffffffffffffffffffffff163373ffffffffffffffffffffffffffffffffffffffff167fc991fdc6f1d37402cf43cd51be704037ef268e0e50a068c178918a86b191923860405160405180910390a35b5b5050565b5f600261198f61198a6113ab565b6113d4565b5f015414905090565b5f806323b872dd60e01b9050604051815f525f1960601c87166004525f1960601c86166024528460445260205f60645f808c5af1925060015f511483166119f65783831516156119ea573d5f823e3d81fd5b5f883b113d1516831692505b806040525f606052505095945050505050565b5f80fd5b5f819050919050565b611a1f81611a0d565b8114611a29575f80fd5b50565b5f81359050611a3a81611a16565b92915050565b5f805f60608486031215611a5757611a56611a09565b5b5f611a6486828701611a2c565b9350506020611a7586828701611a2c565b9250506040611a8686828701611a2c565b9150509250925092565b611a9981611a0d565b82525050565b5f602082019050611ab25f830184611a90565b92915050565b5f73ffffffffffffffffffffffffffffffffffffffff82169050919050565b5f611ae182611ab8565b9050919050565b611af181611ad7565b8114611afb575f80fd5b50565b5f81359050611b0c81611ae8565b92915050565b5f60208284031215611b2757611b26611a09565b5b5f611b3484828501611afe565b91505092915050565b5f8115159050919050565b611b5181611b3d565b8114611b5b575f80fd5b50565b5f81359050611b6c81611b48565b92915050565b5f805f805f805f60e0888a031215611b8d57611b8c611a09565b5b5f611b9a8a828b01611a2c565b9750506020611bab8a828b01611a2c565b9650506040611bbc8a828b01611afe565b9550506060611bcd8a828b01611afe565b9450506080611bde8a828b01611afe565b93505060a0611bef8a828b01611a2c565b92505060c0611c008a828b01611b5e565b91505092959891949750929550565b611c1881611ad7565b82525050565b5f602082019050611c315f830184611c0f565b92915050565b611c4081611b3d565b82525050565b5f602082019050611c595f830184611c37565b92915050565b5f8060408385031215611c7557611c74611a09565b5b5f611c8285828601611afe565b9250506020611c9385828601611afe565b9150509250929050565b5f604082019050611cb05f830185611a90565b611cbd6020830184611a90565b9392505050565b5f604082019050611cd75f830185611c0f565b611ce46020830184611c0f565b9392505050565b5f81519050611cf981611ae8565b92915050565b5f60208284031215611d1457611d13611a09565b5b5f611d2184828501611ceb565b91505092915050565b7f4e487b71000000000000000000000000000000000000000000000000000000005f52601160045260245ffd5b5f611d6182611a0d565b9150611d6c83611a0d565b9250828202611d7a81611a0d565b91508282048414831517611d9157611d90611d2a565b5b5092915050565b5f611da282611a0d565b9150611dad83611a0d565b9250828201905080821115611dc557611dc4611d2a565b5b92915050565b7f4e487b71000000000000000000000000000000000000000000000000000000005f52601260045260245ffd5b5f611e0282611a0d565b9150611e0d83611a0d565b925082611e1d57611e1c611dcb565b5b828204905092915050565b5f6dffffffffffffffffffffffffffff82169050919050565b611e4a81611e28565b8114611e54575f80fd5b50565b5f81519050611e6581611e41565b92915050565b5f63ffffffff82169050919050565b611e8381611e6b565b8114611e8d575f80fd5b50565b5f81519050611e9e81611e7a565b92915050565b5f805f60608486031215611ebb57611eba611a09565b5b5f611ec886828701611e57565b9350506020611ed986828701611e57565b9250506040611eea86828701611e90565b9150509250925092565b5f60c082019050611f075f830189611c0f565b611f146020830188611c0f565b611f216040830187611c0f565b611f2e6060830186611a90565b611f3b6080830185611a90565b611f4860a0830184611c0f565b979650505050505050565b5f611f5d82611a0d565b9150611f6883611a0d565b9250828203905081811115611f8057611f7f611d2a565b5b92915050565b5f606082019050611f995f830186611a90565b611fa66020830185611a90565b611fb36040830184611c0f565b949350505050565b5f81519050611fc981611b48565b92915050565b5f60208284031215611fe457611fe3611a09565b5b5f611ff184828501611fbb565b9150509291505056fea26469706673582212201cab473ae6c87aaf63ac92edac6899ecfdacbcf227295546cc6188638b3325d464736f6c63430008180033",
			"opcodes": "PUSH1 0xA0 PUSH1 0x40 MSTORE CALLVALUE DUP1 ISZERO PUSH3 0x10 JUMPI PUSH0 DUP1 REVERT JUMPDEST POP PUSH1 0x40 MLOAD PUSH3 0x24F8 CODESIZE SUB DUP1 PUSH3 0x24F8 DUP4 CODECOPY DUP2 DUP2 ADD PUSH1 0x40 MSTORE DUP2 ADD SWAP1 PUSH3 0x36 SWAP2 SWAP1 PUSH3 0x406 JUMP JUMPDEST CALLER PUSH0 PUSH20 0xFFFFFFFFFFFFFFFFFFFFFFFFFFFFFFFFFFFFFFFF AND DUP2 PUSH20 0xFFFFFFFFFFFFFFFFFFFFFFFFFFFFFFFFFFFFFFFF AND SUB PUSH3 0xAA JUMPI PUSH0 PUSH1 0x40 MLOAD PUSH32 0x1E4FBDF700000000000000000000000000000000000000000000000000000000 DUP2 MSTORE PUSH1 0x4 ADD PUSH3 0xA1 SWAP2 SWAP1 PUSH3 0x486 JUMP JUMPDEST PUSH1 0x40 MLOAD DUP1 SWAP2 SUB SWAP1 REVERT JUMPDEST PUSH3 0xBB DUP2 PUSH3 0x2AE PUSH1 0x20 SHL PUSH1 0x20 SHR JUMP JUMPDEST POP PUSH1 0x1 PUSH3 0xDE PUSH3 0xD2 PUSH3 0x36F PUSH1 0x20 SHL PUSH1 0x20 SHR JUMP JUMPDEST PUSH3 0x398 PUSH1 0x20 SHL PUSH1 0x20 SHR JUMP JUMPDEST PUSH0 ADD DUP2 SWAP1 SSTORE POP PUSH0 PUSH20 0xFFFFFFFFFFFFFFFFFFFFFFFFFFFFFFFFFFFFFFFF AND DUP5 PUSH20 0xFFFFFFFFFFFFFFFFFFFFFFFFFFFFFFFFFFFFFFFF AND SUB PUSH3 0x14A JUMPI PUSH1 0x40 MLOAD PUSH32 0xD92E233D00000000000000000000000000000000000000000000000000000000 DUP2 MSTORE PUSH1 0x4 ADD PUSH1 0x40 MLOAD DUP1 SWAP2 SUB SWAP1 REVERT JUMPDEST PUSH0 PUSH20 0xFFFFFFFFFFFFFFFFFFFFFFFFFFFFFFFFFFFFFFFF AND DUP4 PUSH20 0xFFFFFFFFFFFFFFFFFFFFFFFFFFFFFFFFFFFFFFFF AND SUB PUSH3 0x1B0 JUMPI PUSH1 0x40 MLOAD PUSH32 0xD92E233D00000000000000000000000000000000000000000000000000000000 DUP2 MSTORE PUSH1 0x4 ADD PUSH1 0x40 MLOAD DUP1 SWAP2 SUB SWAP1 REVERT JUMPDEST DUP4 PUSH20 0xFFFFFFFFFFFFFFFFFFFFFFFFFFFFFFFFFFFFFFFF AND PUSH1 0x80 DUP2 PUSH20 0xFFFFFFFFFFFFFFFFFFFFFFFFFFFFFFFFFFFFFFFF AND DUP2 MSTORE POP POP DUP3 PUSH1 0x1 PUSH0 PUSH2 0x100 EXP DUP2 SLOAD DUP2 PUSH20 0xFFFFFFFFFFFFFFFFFFFFFFFFFFFFFFFFFFFFFFFF MUL NOT AND SWAP1 DUP4 PUSH20 0xFFFFFFFFFFFFFFFFFFFFFFFFFFFFFFFFFFFFFFFF AND MUL OR SWAP1 SSTORE POP DUP2 PUSH1 0x2 PUSH0 PUSH2 0x100 EXP DUP2 SLOAD DUP2 PUSH20 0xFFFFFFFFFFFFFFFFFFFFFFFFFFFFFFFFFFFFFFFF MUL NOT AND SWAP1 DUP4 PUSH20 0xFFFFFFFFFFFFFFFFFFFFFFFFFFFFFFFFFFFFFFFF AND MUL OR SWAP1 SSTORE POP DUP1 PUSH1 0x3 PUSH0 PUSH2 0x100 EXP DUP2 SLOAD DUP2 PUSH20 0xFFFFFFFFFFFFFFFFFFFFFFFFFFFFFFFFFFFFFFFF MUL NOT AND SWAP1 DUP4 PUSH20 0xFFFFFFFFFFFFFFFFFFFFFFFFFFFFFFFFFFFFFFFF AND MUL OR SWAP1 SSTORE POP POP POP POP POP PUSH3 0x4A1 JUMP JUMPDEST PUSH0 DUP1 PUSH0 SWAP1 SLOAD SWAP1 PUSH2 0x100 EXP SWAP1 DIV PUSH20 0xFFFFFFFFFFFFFFFFFFFFFFFFFFFFFFFFFFFFFFFF AND SWAP1 POP DUP2 PUSH0 DUP1 PUSH2 0x100 EXP DUP2 SLOAD DUP2 PUSH20 0xFFFFFFFFFFFFFFFFFFFFFFFFFFFFFFFFFFFFFFFF MUL NOT AND SWAP1 DUP4 PUSH20 0xFFFFFFFFFFFFFFFFFFFFFFFFFFFFFFFFFFFFFFFF AND MUL OR SWAP1 SSTORE POP DUP2 PUSH20 0xFFFFFFFFFFFFFFFFFFFFFFFFFFFFFFFFFFFFFFFF AND DUP2 PUSH20 0xFFFFFFFFFFFFFFFFFFFFFFFFFFFFFFFFFFFFFFFF AND PUSH32 0x8BE0079C531659141344CD1FD0A4F28419497F9722A3DAAFE3B4186F6B6457E0 PUSH1 0x40 MLOAD PUSH1 0x40 MLOAD DUP1 SWAP2 SUB SWAP1 LOG3 POP POP JUMP JUMPDEST PUSH0 PUSH32 0x9B779B17422D0DF92223018B32B4D1FA46E071723D6817E2486D003BECC55F00 PUSH0 SHL SWAP1 POP SWAP1 JUMP JUMPDEST PUSH0 DUP2 SWAP1 POP SWAP2 SWAP1 POP JUMP JUMPDEST PUSH0 DUP1 REVERT JUMPDEST PUSH0 PUSH20 0xFFFFFFFFFFFFFFFFFFFFFFFFFFFFFFFFFFFFFFFF DUP3 AND SWAP1 POP SWAP2 SWAP1 POP JUMP JUMPDEST PUSH0 PUSH3 0x3D0 DUP3 PUSH3 0x3A5 JUMP JUMPDEST SWAP1 POP SWAP2 SWAP1 POP JUMP JUMPDEST PUSH3 0x3E2 DUP2 PUSH3 0x3C4 JUMP JUMPDEST DUP2 EQ PUSH3 0x3ED JUMPI PUSH0 DUP1 REVERT JUMPDEST POP JUMP JUMPDEST PUSH0 DUP2 MLOAD SWAP1 POP PUSH3 0x400 DUP2 PUSH3 0x3D7 JUMP JUMPDEST SWAP3 SWAP2 POP POP JUMP JUMPDEST PUSH0 DUP1 PUSH0 DUP1 PUSH1 0x80 DUP6 DUP8 SUB SLT ISZERO PUSH3 0x421 JUMPI PUSH3 0x420 PUSH3 0x3A1 JUMP JUMPDEST JUMPDEST PUSH0 PUSH3 0x430 DUP8 DUP3 DUP9 ADD PUSH3 0x3F0 JUMP JUMPDEST SWAP5 POP POP PUSH1 0x20 PUSH3 0x443 DUP8 DUP3 DUP9 ADD PUSH3 0x3F0 JUMP JUMPDEST SWAP4 POP POP PUSH1 0x40 PUSH3 0x456 DUP8 DUP3 DUP9 ADD PUSH3 0x3F0 JUMP JUMPDEST SWAP3 POP POP PUSH1 0x60 PUSH3 0x469 DUP8 DUP3 DUP9 ADD PUSH3 0x3F0 JUMP JUMPDEST SWAP2 POP POP SWAP3 SWAP6 SWAP2 SWAP5 POP SWAP3 POP JUMP JUMPDEST PUSH3 0x480 DUP2 PUSH3 0x3C4 JUMP JUMPDEST DUP3 MSTORE POP POP JUMP JUMPDEST PUSH0 PUSH1 0x20 DUP3 ADD SWAP1 POP PUSH3 0x49B PUSH0 DUP4 ADD DUP5 PUSH3 0x475 JUMP JUMPDEST SWAP3 SWAP2 POP POP JUMP JUMPDEST PUSH1 0x80 MLOAD PUSH2 0x2030 PUSH3 0x4C8 PUSH0 CODECOPY PUSH0 DUP2 DUP2 PUSH2 0x7FC ADD MSTORE DUP2 DUP2 PUSH2 0x823 ADD MSTORE PUSH2 0xE53 ADD MSTORE PUSH2 0x2030 PUSH0 RETURN INVALID PUSH1 0x80 PUSH1 0x40 MSTORE CALLVALUE DUP1 ISZERO PUSH2 0xF JUMPI PUSH0 DUP1 REVERT JUMPDEST POP PUSH1 0x4 CALLDATASIZE LT PUSH2 0x135 JUMPI PUSH0 CALLDATALOAD PUSH1 0xE0 SHR DUP1 PUSH4 0x8DA5CB5B GT PUSH2 0xB6 JUMPI DUP1 PUSH4 0xD52BB6F4 GT PUSH2 0x7A JUMPI DUP1 PUSH4 0xD52BB6F4 EQ PUSH2 0x305 JUMPI DUP1 PUSH4 0xE1A45218 EQ PUSH2 0x336 JUMPI DUP1 PUSH4 0xE98F6797 EQ PUSH2 0x354 JUMPI DUP1 PUSH4 0xF0F44260 EQ PUSH2 0x384 JUMPI DUP1 PUSH4 0xF13AFB90 EQ PUSH2 0x3A0 JUMPI DUP1 PUSH4 0xF2FDE38B EQ PUSH2 0x3BC JUMPI PUSH2 0x135 JUMP JUMPDEST DUP1 PUSH4 0x8DA5CB5B EQ PUSH2 0x25D JUMPI DUP1 PUSH4 0x92EAA9D9 EQ PUSH2 0x27B JUMPI DUP1 PUSH4 0xAD615DEC EQ PUSH2 0x299 JUMPI DUP1 PUSH4 0xBE378228 EQ PUSH2 0x2C9 JUMPI DUP1 PUSH4 0xC45A0155 EQ PUSH2 0x2E7 JUMPI PUSH2 0x135 JUMP JUMPDEST DUP1 PUSH4 0x5C975ABB GT PUSH2 0xFD JUMPI DUP1 PUSH4 0x5C975ABB EQ PUSH2 0x1DD JUMPI DUP1 PUSH4 0x61D027B3 EQ PUSH2 0x1FB JUMPI DUP1 PUSH4 0x715018A6 EQ PUSH2 0x219 JUMPI DUP1 PUSH4 0x8456CB59 EQ PUSH2 0x223 JUMPI DUP1 PUSH4 0x85F8C259 EQ PUSH2 0x22D JUMPI PUSH2 0x135 JUMP JUMPDEST DUP1 PUSH4 0x54D50D4 EQ PUSH2 0x139 JUMPI DUP1 PUSH4 0x27B23849 EQ PUSH2 0x169 JUMPI DUP1 PUSH4 0x3824659C EQ PUSH2 0x185 JUMPI DUP1 PUSH4 0x3F4BA83A EQ PUSH2 0x1B5 JUMPI DUP1 PUSH4 0x5364276D EQ PUSH2 0x1BF JUMPI JUMPDEST PUSH0 DUP1 REVERT JUMPDEST PUSH2 0x153 PUSH1 0x4 DUP1 CALLDATASIZE SUB DUP2 ADD SWAP1 PUSH2 0x14E SWAP2 SWAP1 PUSH2 0x1A40 JUMP JUMPDEST PUSH2 0x3D8 JUMP JUMPDEST PUSH1 0x40 MLOAD PUSH2 0x160 SWAP2 SWAP1 PUSH2 0x1A9F JUMP JUMPDEST PUSH1 0x40 MLOAD DUP1 SWAP2 SUB SWAP1 RETURN JUMPDEST PUSH2 0x183 PUSH1 0x4 DUP1 CALLDATASIZE SUB DUP2 ADD SWAP1 PUSH2 0x17E SWAP2 SWAP1 PUSH2 0x1B12 JUMP JUMPDEST PUSH2 0x3ED JUMP JUMPDEST STOP JUMPDEST PUSH2 0x19F PUSH1 0x4 DUP1 CALLDATASIZE SUB DUP2 ADD SWAP1 PUSH2 0x19A SWAP2 SWAP1 PUSH2 0x1B72 JUMP JUMPDEST PUSH2 0x47B JUMP JUMPDEST PUSH1 0x40 MLOAD PUSH2 0x1AC SWAP2 SWAP1 PUSH2 0x1A9F JUMP JUMPDEST PUSH1 0x40 MLOAD DUP1 SWAP2 SUB SWAP1 RETURN JUMPDEST PUSH2 0x1BD PUSH2 0x640 JUMP JUMPDEST STOP JUMPDEST PUSH2 0x1C7 PUSH2 0x6A7 JUMP JUMPDEST PUSH1 0x40 MLOAD PUSH2 0x1D4 SWAP2 SWAP1 PUSH2 0x1C1E JUMP JUMPDEST PUSH1 0x40 MLOAD DUP1 SWAP2 SUB SWAP1 RETURN JUMPDEST PUSH2 0x1E5 PUSH2 0x6CC JUMP JUMPDEST PUSH1 0x40 MLOAD PUSH2 0x1F2 SWAP2 SWAP1 PUSH2 0x1C46 JUMP JUMPDEST PUSH1 0x40 MLOAD DUP1 SWAP2 SUB SWAP1 RETURN JUMPDEST PUSH2 0x203 PUSH2 0x6DF JUMP JUMPDEST PUSH1 0x40 MLOAD PUSH2 0x210 SWAP2 SWAP1 PUSH2 0x1C1E JUMP JUMPDEST PUSH1 0x40 MLOAD DUP1 SWAP2 SUB SWAP1 RETURN JUMPDEST PUSH2 0x221 PUSH2 0x704 JUMP JUMPDEST STOP JUMPDEST PUSH2 0x22B PUSH2 0x717 JUMP JUMPDEST STOP JUMPDEST PUSH2 0x247 PUSH1 0x4 DUP1 CALLDATASIZE SUB DUP2 ADD SWAP1 PUSH2 0x242 SWAP2 SWAP1 PUSH2 0x1A40 JUMP JUMPDEST PUSH2 0x77F JUMP JUMPDEST PUSH1 0x40 MLOAD PUSH2 0x254 SWAP2 SWAP1 PUSH2 0x1A9F JUMP JUMPDEST PUSH1 0x40 MLOAD DUP1 SWAP2 SUB SWAP1 RETURN JUMPDEST PUSH2 0x265 PUSH2 0x794 JUMP JUMPDEST PUSH1 0x40 MLOAD PUSH2 0x272 SWAP2 SWAP1 PUSH2 0x1C1E JUMP JUMPDEST PUSH1 0x40 MLOAD DUP1 SWAP2 SUB SWAP1 RETURN JUMPDEST PUSH2 0x283 PUSH2 0x7BB JUMP JUMPDEST PUSH1 0x40 MLOAD PUSH2 0x290 SWAP2 SWAP1 PUSH2 0x1C1E JUMP JUMPDEST PUSH1 0x40 MLOAD DUP1 SWAP2 SUB SWAP1 RETURN JUMPDEST PUSH2 0x2B3 PUSH1 0x4 DUP1 CALLDATASIZE SUB DUP2 ADD SWAP1 PUSH2 0x2AE SWAP2 SWAP1 PUSH2 0x1A40 JUMP JUMPDEST PUSH2 0x7E0 JUMP JUMPDEST PUSH1 0x40 MLOAD PUSH2 0x2C0 SWAP2 SWAP1 PUSH2 0x1A9F JUMP JUMPDEST PUSH1 0x40 MLOAD DUP1 SWAP2 SUB SWAP1 RETURN JUMPDEST PUSH2 0x2D1 PUSH2 0x7F5 JUMP JUMPDEST PUSH1 0x40 MLOAD PUSH2 0x2DE SWAP2 SWAP1 PUSH2 0x1A9F JUMP JUMPDEST PUSH1 0x40 MLOAD DUP1 SWAP2 SUB SWAP1 RETURN JUMPDEST PUSH2 0x2EF PUSH2 0x7FA JUMP JUMPDEST PUSH1 0x40 MLOAD PUSH2 0x2FC SWAP2 SWAP1 PUSH2 0x1C1E JUMP JUMPDEST PUSH1 0x40 MLOAD DUP1 SWAP2 SUB SWAP1 RETURN JUMPDEST PUSH2 0x31F PUSH1 0x4 DUP1 CALLDATASIZE SUB DUP2 ADD SWAP1 PUSH2 0x31A SWAP2 SWAP1 PUSH2 0x1C5F JUMP JUMPDEST PUSH2 0x81E JUMP JUMPDEST PUSH1 0x40 MLOAD PUSH2 0x32D SWAP3 SWAP2 SWAP1 PUSH2 0x1C9D JUMP JUMPDEST PUSH1 0x40 MLOAD DUP1 SWAP2 SUB SWAP1 RETURN JUMPDEST PUSH2 0x33E PUSH2 0x913 JUMP JUMPDEST PUSH1 0x40 MLOAD PUSH2 0x34B SWAP2 SWAP1 PUSH2 0x1A9F JUMP JUMPDEST PUSH1 0x40 MLOAD DUP1 SWAP2 SUB SWAP1 RETURN JUMPDEST PUSH2 0x36E PUSH1 0x4 DUP1 CALLDATASIZE SUB DUP2 ADD SWAP1 PUSH2 0x369 SWAP2 SWAP1 PUSH2 0x1B72 JUMP JUMPDEST PUSH2 0x919 JUMP JUMPDEST PUSH1 0x40 MLOAD PUSH2 0x37B SWAP2 SWAP1 PUSH2 0x1A9F JUMP JUMPDEST PUSH1 0x40 MLOAD DUP1 SWAP2 SUB SWAP1 RETURN JUMPDEST PUSH2 0x39E PUSH1 0x4 DUP1 CALLDATASIZE SUB DUP2 ADD SWAP1 PUSH2 0x399 SWAP2 SWAP1 PUSH2 0x1B12 JUMP JUMPDEST PUSH2 0xAD1 JUMP JUMPDEST STOP JUMPDEST PUSH2 0x3BA PUSH1 0x4 DUP1 CALLDATASIZE SUB DUP2 ADD SWAP1 PUSH2 0x3B5 SWAP2 SWAP1 PUSH2 0x1B12 JUMP JUMPDEST PUSH2 0xBFC JUMP JUMPDEST STOP JUMPDEST PUSH2 0x3D6 PUSH1 0x4 DUP1 CALLDATASIZE SUB DUP2 ADD SWAP1 PUSH2 0x3D1 SWAP2 SWAP1 PUSH2 0x1B12 JUMP JUMPDEST PUSH2 0xC8A JUMP JUMPDEST STOP JUMPDEST PUSH0 PUSH2 0x3E4 DUP5 DUP5 DUP5 PUSH2 0xD0E JUMP JUMPDEST SWAP1 POP SWAP4 SWAP3 POP POP POP JUMP JUMPDEST PUSH2 0x3F5 PUSH2 0xDA7 JUMP JUMPDEST DUP1 PUSH1 0x3 PUSH0 PUSH2 0x100 EXP DUP2 SLOAD DUP2 PUSH20 0xFFFFFFFFFFFFFFFFFFFFFFFFFFFFFFFFFFFFFFFF MUL NOT AND SWAP1 DUP4 PUSH20 0xFFFFFFFFFFFFFFFFFFFFFFFFFFFFFFFFFFFFFFFF AND MUL OR SWAP1 SSTORE POP DUP1 PUSH20 0xFFFFFFFFFFFFFFFFFFFFFFFFFFFFFFFFFFFFFFFF AND PUSH32 0x89386B8711BAD3EC737A1746DBCC52DE03DE68ADD300345F9ACB944C28AE03F3 PUSH1 0x40 MLOAD PUSH1 0x40 MLOAD DUP1 SWAP2 SUB SWAP1 LOG2 POP JUMP JUMPDEST PUSH0 PUSH2 0x484 PUSH2 0xE2E JUMP JUMPDEST PUSH1 0x3 PUSH1 0x14 SWAP1 SLOAD SWAP1 PUSH2 0x100 EXP SWAP1 DIV PUSH1 0xFF AND ISZERO PUSH2 0x4CB JUMPI PUSH1 0x40 MLOAD PUSH32 0xF562B5A000000000000000000000000000000000000000000000000000000000 DUP2 MSTORE PUSH1 0x4 ADD PUSH1 0x40 MLOAD DUP1 SWAP2 SUB SWAP1 REVERT JUMPDEST DUP3 DUP1 TIMESTAMP GT ISZERO PUSH2 0x511 JUMPI DUP1 PUSH1 0x40 MLOAD PUSH32 0xF80DBAEA00000000000000000000000000000000000000000000000000000000 DUP2 MSTORE PUSH1 0x4 ADD PUSH2 0x508 SWAP2 SWAP1 PUSH2 0x1A9F JUMP JUMPDEST PUSH1 0x40 MLOAD DUP1 SWAP2 SUB SWAP1 REVERT JUMPDEST PUSH0 DUP10 SUB PUSH2 0x54A JUMPI PUSH1 0x40 MLOAD PUSH32 0x1F2A200500000000000000000000000000000000000000000000000000000000 DUP2 MSTORE PUSH1 0x4 ADD PUSH1 0x40 MLOAD DUP1 SWAP2 SUB SWAP1 REVERT JUMPDEST PUSH0 PUSH20 0xFFFFFFFFFFFFFFFFFFFFFFFFFFFFFFFFFFFFFFFF AND DUP6 PUSH20 0xFFFFFFFFFFFFFFFFFFFFFFFFFFFFFFFFFFFFFFFF AND SUB PUSH2 0x5AF JUMPI PUSH1 0x40 MLOAD PUSH32 0xD92E233D00000000000000000000000000000000000000000000000000000000 DUP2 MSTORE PUSH1 0x4 ADD PUSH1 0x40 MLOAD DUP1 SWAP2 SUB SWAP1 REVERT JUMPDEST PUSH0 DUP1 PUSH2 0x5C4 PUSH2 0x5BE DUP11 DUP11 PUSH2 0xE50 JUMP JUMPDEST DUP11 PUSH2 0xF65 JUMP JUMPDEST SWAP2 POP SWAP2 POP PUSH2 0x5D3 DUP12 DUP4 DUP4 PUSH2 0xD0E JUMP JUMPDEST SWAP4 POP DUP10 DUP5 LT ISZERO PUSH2 0x61C JUMPI DUP4 DUP11 PUSH1 0x40 MLOAD PUSH32 0xD28D3EB500000000000000000000000000000000000000000000000000000000 DUP2 MSTORE PUSH1 0x4 ADD PUSH2 0x613 SWAP3 SWAP2 SWAP1 PUSH2 0x1C9D JUMP JUMPDEST PUSH1 0x40 MLOAD DUP1 SWAP2 SUB SWAP1 REVERT JUMPDEST PUSH2 0x62A DUP10 DUP10 DUP14 DUP8 DUP12 DUP11 PUSH2 0x10D5 JUMP JUMPDEST POP POP POP PUSH2 0x635 PUSH2 0x1179 JUMP JUMPDEST SWAP8 SWAP7 POP POP POP POP POP POP POP JUMP JUMPDEST PUSH2 0x648 PUSH2 0xDA7 JUMP JUMPDEST PUSH0 PUSH1 0x3 PUSH1 0x14 PUSH2 0x100 EXP DUP2 SLOAD DUP2 PUSH1 0xFF MUL NOT AND SWAP1 DUP4 ISZERO ISZERO MUL OR SWAP1 SSTORE POP CALLER PUSH20 0xFFFFFFFFFFFFFFFFFFFFFFFFFFFFFFFFFFFFFFFF AND PUSH32 0x5DB9EE0A495BF2E6FF9C91A7834C1BA4FDD244A5E8AA4E537BD38AEAE4B073AA PUSH1 0x40 MLOAD PUSH1 0x40 MLOAD DUP1 SWAP2 SUB SWAP1 LOG2 JUMP JUMPDEST PUSH1 0x3 PUSH0 SWAP1 SLOAD SWAP1 PUSH2 0x100 EXP SWAP1 DIV PUSH20 0xFFFFFFFFFFFFFFFFFFFFFFFFFFFFFFFFFFFFFFFF AND DUP2 JUMP JUMPDEST PUSH1 0x3 PUSH1 0x14 SWAP1 SLOAD SWAP1 PUSH2 0x100 EXP SWAP1 DIV PUSH1 0xFF AND DUP2 JUMP JUMPDEST PUSH1 0x1 PUSH0 SWAP1 SLOAD SWAP1 PUSH2 0x100 EXP SWAP1 DIV PUSH20 0xFFFFFFFFFFFFFFFFFFFFFFFFFFFFFFFFFFFFFFFF AND DUP2 JUMP JUMPDEST PUSH2 0x70C PUSH2 0xDA7 JUMP JUMPDEST PUSH2 0x715 PUSH0 PUSH2 0x1193 JUMP JUMPDEST JUMP JUMPDEST PUSH2 0x71F PUSH2 0xDA7 JUMP JUMPDEST PUSH1 0x1 PUSH1 0x3 PUSH1 0x14 PUSH2 0x100 EXP DUP2 SLOAD DUP2 PUSH1 0xFF MUL NOT AND SWAP1 DUP4 ISZERO ISZERO MUL OR SWAP1 SSTORE POP CALLER PUSH20 0xFFFFFFFFFFFFFFFFFFFFFFFFFFFFFFFFFFFFFFFF AND PUSH32 0x62E78CEA01BEE320CD4E420270B5EA74000D11B0C9F74754EBDBFC544B05A258 PUSH1 0x40 MLOAD PUSH1 0x40 MLOAD DUP1 SWAP2 SUB SWAP1 LOG2 JUMP JUMPDEST PUSH0 PUSH2 0x78B DUP5 DUP5 DUP5 PUSH2 0x1254 JUMP JUMPDEST SWAP1 POP SWAP4 SWAP3 POP POP POP JUMP JUMPDEST PUSH0 DUP1 PUSH0 SWAP1 SLOAD SWAP1 PUSH2 0x100 EXP SWAP1 DIV PUSH20 0xFFFFFFFFFFFFFFFFFFFFFFFFFFFFFFFFFFFFFFFF AND SWAP1 POP SWAP1 JUMP JUMPDEST PUSH1 0x2 PUSH0 SWAP1 SLOAD SWAP1 PUSH2 0x100 EXP SWAP1 DIV PUSH20 0xFFFFFFFFFFFFFFFFFFFFFFFFFFFFFFFFFFFFFFFF AND DUP2 JUMP JUMPDEST PUSH0 PUSH2 0x7EC DUP5 DUP5 DUP5 PUSH2 0x12F4 JUMP JUMPDEST SWAP1 POP SWAP4 SWAP3 POP POP POP JUMP JUMPDEST PUSH1 0x5 DUP2 JUMP JUMPDEST PUSH32 0x0 DUP2 JUMP JUMPDEST PUSH0 DUP1 PUSH0 PUSH32 0x0 PUSH20 0xFFFFFFFFFFFFFFFFFFFFFFFFFFFFFFFFFFFFFFFF AND PUSH4 0xB4F69A2F DUP7 DUP7 PUSH1 0x40 MLOAD DUP4 PUSH4 0xFFFFFFFF AND PUSH1 0xE0 SHL DUP2 MSTORE PUSH1 0x4 ADD PUSH2 0x87C SWAP3 SWAP2 SWAP1 PUSH2 0x1CC4 JUMP JUMPDEST PUSH1 0x20 PUSH1 0x40 MLOAD DUP1 DUP4 SUB DUP2 DUP7 GAS STATICCALL ISZERO DUP1 ISZERO PUSH2 0x897 JUMPI RETURNDATASIZE PUSH0 DUP1 RETURNDATACOPY RETURNDATASIZE PUSH0 REVERT JUMPDEST POP POP POP POP PUSH1 0x40 MLOAD RETURNDATASIZE PUSH1 0x1F NOT PUSH1 0x1F DUP3 ADD AND DUP3 ADD DUP1 PUSH1 0x40 MSTORE POP DUP2 ADD SWAP1 PUSH2 0x8BB SWAP2 SWAP1 PUSH2 0x1CFF JUMP JUMPDEST SWAP1 POP PUSH0 PUSH20 0xFFFFFFFFFFFFFFFFFFFFFFFFFFFFFFFFFFFFFFFF AND DUP2 PUSH20 0xFFFFFFFFFFFFFFFFFFFFFFFFFFFFFFFFFFFFFFFF AND SUB PUSH2 0x8FC JUMPI PUSH0 DUP1 SWAP3 POP SWAP3 POP POP PUSH2 0x90C JUMP JUMPDEST PUSH2 0x906 DUP2 DUP7 PUSH2 0xF65 JUMP JUMPDEST SWAP3 POP SWAP3 POP POP JUMPDEST SWAP3 POP SWAP3 SWAP1 POP JUMP JUMPDEST PUSH2 0x2710 DUP2 JUMP JUMPDEST PUSH0 PUSH2 0x922 PUSH2 0xE2E JUMP JUMPDEST PUSH1 0x3 PUSH1 0x14 SWAP1 SLOAD SWAP1 PUSH2 0x100 EXP SWAP1 DIV PUSH1 0xFF AND ISZERO PUSH2 0x969 JUMPI PUSH1 0x40 MLOAD PUSH32 0xF562B5A000000000000000000000000000000000000000000000000000000000 DUP2 MSTORE PUSH1 0x4 ADD PUSH1 0x40 MLOAD DUP1 SWAP2 SUB SWAP1 REVERT JUMPDEST DUP3 DUP1 TIMESTAMP GT ISZERO PUSH2 0x9AF JUMPI DUP1 PUSH1 0x40 MLOAD PUSH32 0xF80DBAEA00000000000000000000000000000000000000000000000000000000 DUP2 MSTORE PUSH1 0x4 ADD PUSH2 0x9A6 SWAP2 SWAP1 PUSH2 0x1A9F JUMP JUMPDEST PUSH1 0x40 MLOAD DUP1 SWAP2 SUB SWAP1 REVERT JUMPDEST PUSH0 DUP10 SUB PUSH2 0x9E8 JUMPI PUSH1 0x40 MLOAD PUSH32 0x1F2A200500000000000000000000000000000000000000000000000000000000 DUP2 MSTORE PUSH1 0x4 ADD PUSH1 0x40 MLOAD DUP1 SWAP2 SUB SWAP1 REVERT JUMPDEST PUSH0 PUSH20 0xFFFFFFFFFFFFFFFFFFFFFFFFFFFFFFFFFFFFFFFF AND DUP6 PUSH20 0xFFFFFFFFFFFFFFFFFFFFFFFFFFFFFFFFFFFFFFFF AND SUB PUSH2 0xA4D JUMPI PUSH1 0x40 MLOAD PUSH32 0xD92E233D00000000000000000000000000000000000000000000000000000000 DUP2 MSTORE PUSH1 0x4 ADD PUSH1 0x40 MLOAD DUP1 SWAP2 SUB SWAP1 REVERT JUMPDEST PUSH0 DUP1 PUSH2 0xA62 PUSH2 0xA5C DUP11 DUP11 PUSH2 0xE50 JUMP JUMPDEST DUP11 PUSH2 0xF65 JUMP JUMPDEST SWAP2 POP SWAP2 POP PUSH2 0xA71 DUP12 DUP4 DUP4 PUSH2 0x1254 JUMP JUMPDEST SWAP4 POP DUP10 DUP5 GT ISZERO PUSH2 0xAAD JUMPI PUSH1 0x40 MLOAD PUSH32 0xE1B0DA4F00000000000000000000000000000000000000000000000000000000 DUP2 MSTORE PUSH1 0x4 ADD PUSH1 0x40 MLOAD DUP1 SWAP2 SUB SWAP1 REVERT JUMPDEST PUSH2 0xABB DUP10 DUP10 DUP7 DUP15 DUP12 DUP11 PUSH2 0x10D5 JUMP JUMPDEST POP POP POP PUSH2 0xAC6 PUSH2 0x1179 JUMP JUMPDEST SWAP8 SWAP7 POP POP POP POP POP POP POP JUMP JUMPDEST PUSH2 0xAD9 PUSH2 0xDA7 JUMP JUMPDEST PUSH0 PUSH20 0xFFFFFFFFFFFFFFFFFFFFFFFFFFFFFFFFFFFFFFFF AND DUP2 PUSH20 0xFFFFFFFFFFFFFFFFFFFFFFFFFFFFFFFFFFFFFFFF AND SUB PUSH2 0xB3E JUMPI PUSH1 0x40 MLOAD PUSH32 0xD92E233D00000000000000000000000000000000000000000000000000000000 DUP2 MSTORE PUSH1 0x4 ADD PUSH1 0x40 MLOAD DUP1 SWAP2 SUB SWAP1 REVERT JUMPDEST DUP1 PUSH20 0xFFFFFFFFFFFFFFFFFFFFFFFFFFFFFFFFFFFFFFFF AND PUSH1 0x1 PUSH0 SWAP1 SLOAD SWAP1 PUSH2 0x100 EXP SWAP1 DIV PUSH20 0xFFFFFFFFFFFFFFFFFFFFFFFFFFFFFFFFFFFFFFFF AND PUSH20 0xFFFFFFFFFFFFFFFFFFFFFFFFFFFFFFFFFFFFFFFF AND PUSH32 0x4AB5BE82436D353E61CA18726E984E561F5C1CC7C6D38B29D2553C790434705A PUSH1 0x40 MLOAD PUSH1 0x40 MLOAD DUP1 SWAP2 SUB SWAP1 LOG3 DUP1 PUSH1 0x1 PUSH0 PUSH2 0x100 EXP DUP2 SLOAD DUP2 PUSH20 0xFFFFFFFFFFFFFFFFFFFFFFFFFFFFFFFFFFFFFFFF MUL NOT AND SWAP1 DUP4 PUSH20 0xFFFFFFFFFFFFFFFFFFFFFFFFFFFFFFFFFFFFFFFF AND MUL OR SWAP1 SSTORE POP POP JUMP JUMPDEST PUSH2 0xC04 PUSH2 0xDA7 JUMP JUMPDEST DUP1 PUSH1 0x2 PUSH0 PUSH2 0x100 EXP DUP2 SLOAD DUP2 PUSH20 0xFFFFFFFFFFFFFFFFFFFFFFFFFFFFFFFFFFFFFFFF MUL NOT AND SWAP1 DUP4 PUSH20 0xFFFFFFFFFFFFFFFFFFFFFFFFFFFFFFFFFFFFFFFF AND MUL OR SWAP1 SSTORE POP DUP1 PUSH20 0xFFFFFFFFFFFFFFFFFFFFFFFFFFFFFFFFFFFFFFFF AND PUSH32 0x34B668B6F49E81B64BDB88C7DE7501C0A197D9B12C46848EF3BCD59152843210 PUSH1 0x40 MLOAD PUSH1 0x40 MLOAD DUP1 SWAP2 SUB SWAP1 LOG2 POP JUMP JUMPDEST PUSH2 0xC92 PUSH2 0xDA7 JUMP JUMPDEST PUSH0 PUSH20 0xFFFFFFFFFFFFFFFFFFFFFFFFFFFFFFFFFFFFFFFF AND DUP2 PUSH20 0xFFFFFFFFFFFFFFFFFFFFFFFFFFFFFFFFFFFFFFFF AND SUB PUSH2 0xD02 JUMPI PUSH0 PUSH1 0x40 MLOAD PUSH32 0x1E4FBDF700000000000000000000000000000000000000000000000000000000 DUP2 MSTORE PUSH1 0x4 ADD PUSH2 0xCF9 SWAP2 SWAP1 PUSH2 0x1C1E JUMP JUMPDEST PUSH1 0x40 MLOAD DUP1 SWAP2 SUB SWAP1 REVERT JUMPDEST PUSH2 0xD0B DUP2 PUSH2 0x1193 JUMP JUMPDEST POP JUMP JUMPDEST PUSH0 DUP1 DUP5 EQ DUP1 PUSH2 0xD1C JUMPI POP PUSH0 DUP4 EQ JUMPDEST DUP1 PUSH2 0xD26 JUMPI POP PUSH0 DUP3 EQ JUMPDEST ISZERO PUSH2 0xD5D JUMPI PUSH1 0x40 MLOAD PUSH32 0x1F2A200500000000000000000000000000000000000000000000000000000000 DUP2 MSTORE PUSH1 0x4 ADD PUSH1 0x40 MLOAD DUP1 SWAP2 SUB SWAP1 REVERT JUMPDEST PUSH0 PUSH2 0x3E5 DUP6 PUSH2 0xD6C SWAP2 SWAP1 PUSH2 0x1D57 JUMP JUMPDEST SWAP1 POP DUP1 PUSH2 0x3E8 DUP6 PUSH2 0xD7D SWAP2 SWAP1 PUSH2 0x1D57 JUMP JUMPDEST PUSH2 0xD87 SWAP2 SWAP1 PUSH2 0x1D98 JUMP JUMPDEST DUP4 DUP3 PUSH2 0xD93 SWAP2 SWAP1 PUSH2 0x1D57 JUMP JUMPDEST PUSH2 0xD9D SWAP2 SWAP1 PUSH2 0x1DF8 JUMP JUMPDEST SWAP2 POP POP SWAP4 SWAP3 POP POP POP JUMP JUMPDEST PUSH2 0xDAF PUSH2 0x1363 JUMP JUMPDEST PUSH20 0xFFFFFFFFFFFFFFFFFFFFFFFFFFFFFFFFFFFFFFFF AND PUSH2 0xDCD PUSH2 0x794 JUMP JUMPDEST PUSH20 0xFFFFFFFFFFFFFFFFFFFFFFFFFFFFFFFFFFFFFFFF AND EQ PUSH2 0xE2C JUMPI PUSH2 0xDF0 PUSH2 0x1363 JUMP JUMPDEST PUSH1 0x40 MLOAD PUSH32 0x118CDAA700000000000000000000000000000000000000000000000000000000 DUP2 MSTORE PUSH1 0x4 ADD PUSH2 0xE23 SWAP2 SWAP1 PUSH2 0x1C1E JUMP JUMPDEST PUSH1 0x40 MLOAD DUP1 SWAP2 SUB SWAP1 REVERT JUMPDEST JUMP JUMPDEST PUSH2 0xE36 PUSH2 0x136A JUMP JUMPDEST PUSH1 0x2 PUSH2 0xE48 PUSH2 0xE43 PUSH2 0x13AB JUMP JUMPDEST PUSH2 0x13D4 JUMP JUMPDEST PUSH0 ADD DUP2 SWAP1 SSTORE POP JUMP JUMPDEST PUSH0 PUSH32 0x0 PUSH20 0xFFFFFFFFFFFFFFFFFFFFFFFFFFFFFFFFFFFFFFFF AND PUSH4 0xB4F69A2F DUP5 DUP5 PUSH1 0x40 MLOAD DUP4 PUSH4 0xFFFFFFFF AND PUSH1 0xE0 SHL DUP2 MSTORE PUSH1 0x4 ADD PUSH2 0xEAC SWAP3 SWAP2 SWAP1 PUSH2 0x1CC4 JUMP JUMPDEST PUSH1 0x20 PUSH1 0x40 MLOAD DUP1 DUP4 SUB DUP2 DUP7 GAS STATICCALL ISZERO DUP1 ISZERO PUSH2 0xEC7 JUMPI RETURNDATASIZE PUSH0 DUP1 RETURNDATACOPY RETURNDATASIZE PUSH0 REVERT JUMPDEST POP POP POP POP PUSH1 0x40 MLOAD RETURNDATASIZE PUSH1 0x1F NOT PUSH1 0x1F DUP3 ADD AND DUP3 ADD DUP1 PUSH1 0x40 MSTORE POP DUP2 ADD SWAP1 PUSH2 0xEEB SWAP2 SWAP1 PUSH2 0x1CFF JUMP JUMPDEST SWAP1 POP PUSH0 PUSH20 0xFFFFFFFFFFFFFFFFFFFFFFFFFFFFFFFFFFFFFFFF AND DUP2 PUSH20 0xFFFFFFFFFFFFFFFFFFFFFFFFFFFFFFFFFFFFFFFF AND SUB PUSH2 0xF5F JUMPI DUP3 DUP3 PUSH1 0x40 MLOAD PUSH32 0x4DB171D400000000000000000000000000000000000000000000000000000000 DUP2 MSTORE PUSH1 0x4 ADD PUSH2 0xF56 SWAP3 SWAP2 SWAP1 PUSH2 0x1CC4 JUMP JUMPDEST PUSH1 0x40 MLOAD DUP1 SWAP2 SUB SWAP1 REVERT JUMPDEST SWAP3 SWAP2 POP POP JUMP JUMPDEST PUSH0 DUP1 PUSH0 DUP1 DUP6 PUSH20 0xFFFFFFFFFFFFFFFFFFFFFFFFFFFFFFFFFFFFFFFF AND PUSH4 0x902F1AC PUSH1 0x40 MLOAD DUP2 PUSH4 0xFFFFFFFF AND PUSH1 0xE0 SHL DUP2 MSTORE PUSH1 0x4 ADD PUSH1 0x60 PUSH1 0x40 MLOAD DUP1 DUP4 SUB DUP2 DUP7 GAS STATICCALL ISZERO DUP1 ISZERO PUSH2 0xFB2 JUMPI RETURNDATASIZE PUSH0 DUP1 RETURNDATACOPY RETURNDATASIZE PUSH0 REVERT JUMPDEST POP POP POP POP PUSH1 0x40 MLOAD RETURNDATASIZE PUSH1 0x1F NOT PUSH1 0x1F DUP3 ADD AND DUP3 ADD DUP1 PUSH1 0x40 MSTORE POP DUP2 ADD SWAP1 PUSH2 0xFD6 SWAP2 SWAP1 PUSH2 0x1EA4 JUMP JUMPDEST POP SWAP2 POP SWAP2 POP DUP6 PUSH20 0xFFFFFFFFFFFFFFFFFFFFFFFFFFFFFFFFFFFFFFFF AND PUSH4 0xDFE1681 PUSH1 0x40 MLOAD DUP2 PUSH4 0xFFFFFFFF AND PUSH1 0xE0 SHL DUP2 MSTORE PUSH1 0x4 ADD PUSH1 0x20 PUSH1 0x40 MLOAD DUP1 DUP4 SUB DUP2 DUP7 GAS STATICCALL ISZERO DUP1 ISZERO PUSH2 0x1024 JUMPI RETURNDATASIZE PUSH0 DUP1 RETURNDATACOPY RETURNDATASIZE PUSH0 REVERT JUMPDEST POP POP POP POP PUSH1 0x40 MLOAD RETURNDATASIZE PUSH1 0x1F NOT PUSH1 0x1F DUP3 ADD AND DUP3 ADD DUP1 PUSH1 0x40 MSTORE POP DUP2 ADD SWAP1 PUSH2 0x1048 SWAP2 SWAP1 PUSH2 0x1CFF JUMP JUMPDEST PUSH20 0xFFFFFFFFFFFFFFFFFFFFFFFFFFFFFFFFFFFFFFFF AND DUP6 PUSH20 0xFFFFFFFFFFFFFFFFFFFFFFFFFFFFFFFFFFFFFFFF AND EQ PUSH2 0x10A1 JUMPI DUP1 PUSH14 0xFFFFFFFFFFFFFFFFFFFFFFFFFFFF AND DUP3 PUSH14 0xFFFFFFFFFFFFFFFFFFFFFFFFFFFF AND PUSH2 0x10C4 JUMP JUMPDEST DUP2 PUSH14 0xFFFFFFFFFFFFFFFFFFFFFFFFFFFF AND DUP2 PUSH14 0xFFFFFFFFFFFFFFFFFFFFFFFFFFFF AND JUMPDEST DUP1 SWAP5 POP DUP2 SWAP6 POP POP POP POP POP SWAP3 POP SWAP3 SWAP1 POP JUMP JUMPDEST PUSH0 PUSH2 0x10E0 DUP8 DUP8 PUSH2 0xE50 JUMP JUMPDEST SWAP1 POP PUSH2 0x110F CALLER DUP3 DUP8 DUP11 PUSH20 0xFFFFFFFFFFFFFFFFFFFFFFFFFFFFFFFFFFFFFFFF AND PUSH2 0x13DD SWAP1 SWAP4 SWAP3 SWAP2 SWAP1 PUSH4 0xFFFFFFFF AND JUMP JUMPDEST PUSH2 0x1119 DUP8 DUP7 PUSH2 0x1432 JUMP JUMPDEST PUSH2 0x1125 DUP2 DUP9 DUP7 DUP7 PUSH2 0x158A JUMP JUMPDEST PUSH2 0x112F DUP8 DUP4 PUSH2 0x16B0 JUMP JUMPDEST PUSH32 0x300B4A9AC356114BE2EAFFE0F530CD615F14560DF4B634ADC11142D1358E8976 CALLER DUP9 DUP9 DUP9 DUP9 DUP9 PUSH1 0x40 MLOAD PUSH2 0x1168 SWAP7 SWAP6 SWAP5 SWAP4 SWAP3 SWAP2 SWAP1 PUSH2 0x1EF4 JUMP JUMPDEST PUSH1 0x40 MLOAD DUP1 SWAP2 SUB SWAP1 LOG1 POP POP POP POP POP POP POP JUMP JUMPDEST PUSH1 0x1 PUSH2 0x118B PUSH2 0x1186 PUSH2 0x13AB JUMP JUMPDEST PUSH2 0x13D4 JUMP JUMPDEST PUSH0 ADD DUP2 SWAP1 SSTORE POP JUMP JUMPDEST PUSH0 DUP1 PUSH0 SWAP1 SLOAD SWAP1 PUSH2 0x100 EXP SWAP1 DIV PUSH20 0xFFFFFFFFFFFFFFFFFFFFFFFFFFFFFFFFFFFFFFFF AND SWAP1 POP DUP2 PUSH0 DUP1 PUSH2 0x100 EXP DUP2 SLOAD DUP2 PUSH20 0xFFFFFFFFFFFFFFFFFFFFFFFFFFFFFFFFFFFFFFFF MUL NOT AND SWAP1 DUP4 PUSH20 0xFFFFFFFFFFFFFFFFFFFFFFFFFFFFFFFFFFFFFFFF AND MUL OR SWAP1 SSTORE POP DUP2 PUSH20 0xFFFFFFFFFFFFFFFFFFFFFFFFFFFFFFFFFFFFFFFF AND DUP2 PUSH20 0xFFFFFFFFFFFFFFFFFFFFFFFFFFFFFFFFFFFFFFFF AND PUSH32 0x8BE0079C531659141344CD1FD0A4F28419497F9722A3DAAFE3B4186F6B6457E0 PUSH1 0x40 MLOAD PUSH1 0x40 MLOAD DUP1 SWAP2 SUB SWAP1 LOG3 POP POP JUMP JUMPDEST PUSH0 DUP1 DUP5 EQ DUP1 PUSH2 0x1262 JUMPI POP PUSH0 DUP4 EQ JUMPDEST DUP1 PUSH2 0x126C JUMPI POP PUSH0 DUP3 EQ JUMPDEST ISZERO PUSH2 0x12A3 JUMPI PUSH1 0x40 MLOAD PUSH32 0x1F2A200500000000000000000000000000000000000000000000000000000000 DUP2 MSTORE PUSH1 0x4 ADD PUSH1 0x40 MLOAD DUP1 SWAP2 SUB SWAP1 REVERT JUMPDEST PUSH1 0x1 PUSH2 0x3E5 DUP6 DUP5 PUSH2 0x12B4 SWAP2 SWAP1 PUSH2 0x1F53 JUMP JUMPDEST PUSH2 0x12BE SWAP2 SWAP1 PUSH2 0x1D57 JUMP JUMPDEST PUSH2 0x3E8 DUP7 DUP7 PUSH2 0x12CD SWAP2 SWAP1 PUSH2 0x1D57 JUMP JUMPDEST PUSH2 0x12D7 SWAP2 SWAP1 PUSH2 0x1D57 JUMP JUMPDEST PUSH2 0x12E1 SWAP2 SWAP1 PUSH2 0x1DF8 JUMP JUMPDEST PUSH2 0x12EB SWAP2 SWAP1 PUSH2 0x1D98 JUMP JUMPDEST SWAP1 POP SWAP4 SWAP3 POP POP POP JUMP JUMPDEST PUSH0 DUP1 DUP5 EQ DUP1 PUSH2 0x1302 JUMPI POP PUSH0 DUP4 EQ JUMPDEST DUP1 PUSH2 0x130C JUMPI POP PUSH0 DUP3 EQ JUMPDEST ISZERO PUSH2 0x1343 JUMPI PUSH1 0x40 MLOAD PUSH32 0x1F2A200500000000000000000000000000000000000000000000000000000000 DUP2 MSTORE PUSH1 0x4 ADD PUSH1 0x40 MLOAD DUP1 SWAP2 SUB SWAP1 REVERT JUMPDEST DUP3 DUP3 DUP6 PUSH2 0x1350 SWAP2 SWAP1 PUSH2 0x1D57 JUMP JUMPDEST PUSH2 0x135A SWAP2 SWAP1 PUSH2 0x1DF8 JUMP JUMPDEST SWAP1 POP SWAP4 SWAP3 POP POP POP JUMP JUMPDEST PUSH0 CALLER SWAP1 POP SWAP1 JUMP JUMPDEST PUSH2 0x1372 PUSH2 0x197C JUMP JUMPDEST ISZERO PUSH2 0x13A9 JUMPI PUSH1 0x40 MLOAD PUSH32 0x3EE5AEB500000000000000000000000000000000000000000000000000000000 DUP2 MSTORE PUSH1 0x4 ADD PUSH1 0x40 MLOAD DUP1 SWAP2 SUB SWAP1 REVERT JUMPDEST JUMP JUMPDEST PUSH0 PUSH32 0x9B779B17422D0DF92223018B32B4D1FA46E071723D6817E2486D003BECC55F00 PUSH0 SHL SWAP1 POP SWAP1 JUMP JUMPDEST PUSH0 DUP2 SWAP1 POP SWAP2 SWAP1 POP JUMP JUMPDEST PUSH2 0x13EB DUP5 DUP5 DUP5 DUP5 PUSH1 0x1 PUSH2 0x1998 JUMP JUMPDEST PUSH2 0x142C JUMPI DUP4 PUSH1 0x40 MLOAD PUSH32 0x5274AFE700000000000000000000000000000000000000000000000000000000 DUP2 MSTORE PUSH1 0x4 ADD PUSH2 0x1423 SWAP2 SWAP1 PUSH2 0x1C1E JUMP JUMPDEST PUSH1 0x40 MLOAD DUP1 SWAP2 SUB SWAP1 REVERT JUMPDEST POP POP POP POP JUMP JUMPDEST PUSH0 PUSH2 0x2710 PUSH1 0x5 DUP4 PUSH2 0x1443 SWAP2 SWAP1 PUSH2 0x1D57 JUMP JUMPDEST PUSH2 0x144D SWAP2 SWAP1 PUSH2 0x1DF8 JUMP JUMPDEST SWAP1 POP PUSH0 DUP2 GT DUP1 ISZERO PUSH2 0x14AB JUMPI POP PUSH0 PUSH20 0xFFFFFFFFFFFFFFFFFFFFFFFFFFFFFFFFFFFFFFFF AND PUSH1 0x1 PUSH0 SWAP1 SLOAD SWAP1 PUSH2 0x100 EXP SWAP1 DIV PUSH20 0xFFFFFFFFFFFFFFFFFFFFFFFFFFFFFFFFFFFFFFFF AND PUSH20 0xFFFFFFFFFFFFFFFFFFFFFFFFFFFFFFFFFFFFFFFF AND EQ ISZERO JUMPDEST ISZERO PUSH2 0x1585 JUMPI PUSH2 0x14FE CALLER PUSH1 0x1 PUSH0 SWAP1 SLOAD SWAP1 PUSH2 0x100 EXP SWAP1 DIV PUSH20 0xFFFFFFFFFFFFFFFFFFFFFFFFFFFFFFFFFFFFFFFF AND DUP4 DUP7 PUSH20 0xFFFFFFFFFFFFFFFFFFFFFFFFFFFFFFFFFFFFFFFF AND PUSH2 0x13DD SWAP1 SWAP4 SWAP3 SWAP2 SWAP1 PUSH4 0xFFFFFFFF AND JUMP JUMPDEST DUP3 PUSH20 0xFFFFFFFFFFFFFFFFFFFFFFFFFFFFFFFFFFFFFFFF AND PUSH1 0x1 PUSH0 SWAP1 SLOAD SWAP1 PUSH2 0x100 EXP SWAP1 DIV PUSH20 0xFFFFFFFFFFFFFFFFFFFFFFFFFFFFFFFFFFFFFFFF AND PUSH20 0xFFFFFFFFFFFFFFFFFFFFFFFFFFFFFFFFFFFFFFFF AND PUSH32 0x493FDD1F2099B9854729D46428CE244DBB655E5209E74967FD51B0F0E9FE4E1E DUP4 PUSH1 0x40 MLOAD PUSH2 0x157C SWAP2 SWAP1 PUSH2 0x1A9F JUMP JUMPDEST PUSH1 0x40 MLOAD DUP1 SWAP2 SUB SWAP1 LOG3 JUMPDEST POP POP POP JUMP JUMPDEST PUSH0 DUP4 PUSH20 0xFFFFFFFFFFFFFFFFFFFFFFFFFFFFFFFFFFFFFFFF AND DUP6 PUSH20 0xFFFFFFFFFFFFFFFFFFFFFFFFFFFFFFFFFFFFFFFF AND PUSH4 0xDFE1681 PUSH1 0x40 MLOAD DUP2 PUSH4 0xFFFFFFFF AND PUSH1 0xE0 SHL DUP2 MSTORE PUSH1 0x4 ADD PUSH1 0x20 PUSH1 0x40 MLOAD DUP1 DUP4 SUB DUP2 DUP7 GAS STATICCALL ISZERO DUP1 ISZERO PUSH2 0x15EB JUMPI RETURNDATASIZE PUSH0 DUP1 RETURNDATACOPY RETURNDATASIZE PUSH0 REVERT JUMPDEST POP POP POP POP PUSH1 0x40 MLOAD RETURNDATASIZE PUSH1 0x1F NOT PUSH1 0x1F DUP3 ADD AND DUP3 ADD DUP1 PUSH1 0x40 MSTORE POP DUP2 ADD SWAP1 PUSH2 0x160F SWAP2 SWAP1 PUSH2 0x1CFF JUMP JUMPDEST PUSH20 0xFFFFFFFFFFFFFFFFFFFFFFFFFFFFFFFFFFFFFFFF AND EQ SWAP1 POP PUSH0 DUP1 DUP3 PUSH2 0x1636 JUMPI DUP5 PUSH0 PUSH2 0x1639 JUMP JUMPDEST PUSH0 DUP6 JUMPDEST SWAP2 POP SWAP2 POP DUP7 PUSH20 0xFFFFFFFFFFFFFFFFFFFFFFFFFFFFFFFFFFFFFFFF AND PUSH4 0x6D9A640A DUP4 DUP4 DUP8 PUSH1 0x40 MLOAD DUP5 PUSH4 0xFFFFFFFF AND PUSH1 0xE0 SHL DUP2 MSTORE PUSH1 0x4 ADD PUSH2 0x167A SWAP4 SWAP3 SWAP2 SWAP1 PUSH2 0x1F86 JUMP JUMPDEST PUSH0 PUSH1 0x40 MLOAD DUP1 DUP4 SUB DUP2 PUSH0 DUP8 DUP1 EXTCODESIZE ISZERO DUP1 ISZERO PUSH2 0x1691 JUMPI PUSH0 DUP1 REVERT JUMPDEST POP GAS CALL ISZERO DUP1 ISZERO PUSH2 0x16A3 JUMPI RETURNDATASIZE PUSH0 DUP1 RETURNDATACOPY RETURNDATASIZE PUSH0 REVERT JUMPDEST POP POP POP POP POP POP POP POP POP POP POP JUMP JUMPDEST DUP1 ISZERO PUSH2 0x1978 JUMPI PUSH0 PUSH20 0xFFFFFFFFFFFFFFFFFFFFFFFFFFFFFFFFFFFFFFFF AND PUSH1 0x3 PUSH0 SWAP1 SLOAD SWAP1 PUSH2 0x100 EXP SWAP1 DIV PUSH20 0xFFFFFFFFFFFFFFFFFFFFFFFFFFFFFFFFFFFFFFFF AND PUSH20 0xFFFFFFFFFFFFFFFFFFFFFFFFFFFFFFFFFFFFFFFF AND SUB ISZERO PUSH2 0x1978 JUMPI PUSH0 PUSH20 0xFFFFFFFFFFFFFFFFFFFFFFFFFFFFFFFFFFFFFFFF AND PUSH1 0x2 PUSH0 SWAP1 SLOAD SWAP1 PUSH2 0x100 EXP SWAP1 DIV PUSH20 0xFFFFFFFFFFFFFFFFFFFFFFFFFFFFFFFFFFFFFFFF AND PUSH20 0xFFFFFFFFFFFFFFFFFFFFFFFFFFFFFFFFFFFFFFFF AND SUB ISZERO PUSH2 0x1978 JUMPI PUSH1 0x2 PUSH0 SWAP1 SLOAD SWAP1 PUSH2 0x100 EXP SWAP1 DIV PUSH20 0xFFFFFFFFFFFFFFFFFFFFFFFFFFFFFFFFFFFFFFFF AND PUSH20 0xFFFFFFFFFFFFFFFFFFFFFFFFFFFFFFFFFFFFFFFF AND PUSH4 0x66E305FD DUP4 PUSH1 0x40 MLOAD DUP3 PUSH4 0xFFFFFFFF AND PUSH1 0xE0 SHL DUP2 MSTORE PUSH1 0x4 ADD PUSH2 0x17BA SWAP2 SWAP1 PUSH2 0x1C1E JUMP JUMPDEST PUSH1 0x20 PUSH1 0x40 MLOAD DUP1 DUP4 SUB DUP2 DUP7 GAS STATICCALL SWAP3 POP POP POP DUP1 ISZERO PUSH2 0x17F4 JUMPI POP PUSH1 0x40 MLOAD RETURNDATASIZE PUSH1 0x1F NOT PUSH1 0x1F DUP3 ADD AND DUP3 ADD DUP1 PUSH1 0x40 MSTORE POP DUP2 ADD SWAP1 PUSH2 0x17F1 SWAP2 SWAP1 PUSH2 0x1FCF JUMP JUMPDEST PUSH1 0x1 JUMPDEST ISZERO PUSH2 0x1978 JUMPI DUP1 PUSH2 0x1804 JUMPI POP PUSH2 0x1978 JUMP JUMPDEST POP PUSH1 0x3 PUSH0 SWAP1 SLOAD SWAP1 PUSH2 0x100 EXP SWAP1 DIV PUSH20 0xFFFFFFFFFFFFFFFFFFFFFFFFFFFFFFFFFFFFFFFF AND PUSH20 0xFFFFFFFFFFFFFFFFFFFFFFFFFFFFFFFFFFFFFFFF AND PUSH4 0xC33B7586 PUSH1 0x40 MLOAD DUP2 PUSH4 0xFFFFFFFF AND PUSH1 0xE0 SHL DUP2 MSTORE PUSH1 0x4 ADD PUSH1 0x20 PUSH1 0x40 MLOAD DUP1 DUP4 SUB DUP2 DUP7 GAS STATICCALL SWAP3 POP POP POP DUP1 ISZERO PUSH2 0x188E JUMPI POP PUSH1 0x40 MLOAD RETURNDATASIZE PUSH1 0x1F NOT PUSH1 0x1F DUP3 ADD AND DUP3 ADD DUP1 PUSH1 0x40 MSTORE POP DUP2 ADD SWAP1 PUSH2 0x188B SWAP2 SWAP1 PUSH2 0x1FCF JUMP JUMPDEST PUSH1 0x1 JUMPDEST ISZERO PUSH2 0x1978 JUMPI DUP1 ISZERO PUSH2 0x189F JUMPI POP PUSH2 0x1978 JUMP JUMPDEST POP PUSH1 0x3 PUSH0 SWAP1 SLOAD SWAP1 PUSH2 0x100 EXP SWAP1 DIV PUSH20 0xFFFFFFFFFFFFFFFFFFFFFFFFFFFFFFFFFFFFFFFF AND PUSH20 0xFFFFFFFFFFFFFFFFFFFFFFFFFFFFFFFFFFFFFFFF AND PUSH4 0xB7A567B PUSH1 0x40 MLOAD DUP2 PUSH4 0xFFFFFFFF AND PUSH1 0xE0 SHL DUP2 MSTORE PUSH1 0x4 ADD PUSH0 PUSH1 0x40 MLOAD DUP1 DUP4 SUB DUP2 PUSH0 DUP8 DUP1 EXTCODESIZE ISZERO DUP1 ISZERO PUSH2 0x1906 JUMPI PUSH0 DUP1 REVERT JUMPDEST POP GAS CALL SWAP3 POP POP POP DUP1 ISZERO PUSH2 0x1917 JUMPI POP PUSH1 0x1 JUMPDEST ISZERO PUSH2 0x1977 JUMPI DUP2 PUSH20 0xFFFFFFFFFFFFFFFFFFFFFFFFFFFFFFFFFFFFFFFF AND CALLER PUSH20 0xFFFFFFFFFFFFFFFFFFFFFFFFFFFFFFFFFFFFFFFF AND PUSH32 0xC991FDC6F1D37402CF43CD51BE704037EF268E0E50A068C178918A86B1919238 PUSH1 0x40 MLOAD PUSH1 0x40 MLOAD DUP1 SWAP2 SUB SWAP1 LOG3 JUMPDEST JUMPDEST POP POP JUMP JUMPDEST PUSH0 PUSH1 0x2 PUSH2 0x198F PUSH2 0x198A PUSH2 0x13AB JUMP JUMPDEST PUSH2 0x13D4 JUMP JUMPDEST PUSH0 ADD SLOAD EQ SWAP1 POP SWAP1 JUMP JUMPDEST PUSH0 DUP1 PUSH4 0x23B872DD PUSH1 0xE0 SHL SWAP1 POP PUSH1 0x40 MLOAD DUP2 PUSH0 MSTORE PUSH0 NOT PUSH1 0x60 SHR DUP8 AND PUSH1 0x4 MSTORE PUSH0 NOT PUSH1 0x60 SHR DUP7 AND PUSH1 0x24 MSTORE DUP5 PUSH1 0x44 MSTORE PUSH1 0x20 PUSH0 PUSH1 0x64 PUSH0 DUP1 DUP13 GAS CALL SWAP3 POP PUSH1 0x1 PUSH0 MLOAD EQ DUP4 AND PUSH2 0x19F6 JUMPI DUP4 DUP4 ISZERO AND ISZERO PUSH2 0x19EA JUMPI RETURNDATASIZE PUSH0 DUP3 RETURNDATACOPY RETURNDATASIZE DUP2 REVERT JUMPDEST PUSH0 DUP9 EXTCODESIZE GT RETURNDATASIZE ISZERO AND DUP4 AND SWAP3 POP JUMPDEST DUP1 PUSH1 0x40 MSTORE PUSH0 PUSH1 0x60 MSTORE POP POP SWAP6 SWAP5 POP POP POP POP POP JUMP JUMPDEST PUSH0 DUP1 REVERT JUMPDEST PUSH0 DUP2 SWAP1 POP SWAP2 SWAP1 POP JUMP JUMPDEST PUSH2 0x1A1F DUP2 PUSH2 0x1A0D JUMP JUMPDEST DUP2 EQ PUSH2 0x1A29 JUMPI PUSH0 DUP1 REVERT JUMPDEST POP JUMP JUMPDEST PUSH0 DUP2 CALLDATALOAD SWAP1 POP PUSH2 0x1A3A DUP2 PUSH2 0x1A16 JUMP JUMPDEST SWAP3 SWAP2 POP POP JUMP JUMPDEST PUSH0 DUP1 PUSH0 PUSH1 0x60 DUP5 DUP7 SUB SLT ISZERO PUSH2 0x1A57 JUMPI PUSH2 0x1A56 PUSH2 0x1A09 JUMP JUMPDEST JUMPDEST PUSH0 PUSH2 0x1A64 DUP7 DUP3 DUP8 ADD PUSH2 0x1A2C JUMP JUMPDEST SWAP4 POP POP PUSH1 0x20 PUSH2 0x1A75 DUP7 DUP3 DUP8 ADD PUSH2 0x1A2C JUMP JUMPDEST SWAP3 POP POP PUSH1 0x40 PUSH2 0x1A86 DUP7 DUP3 DUP8 ADD PUSH2 0x1A2C JUMP JUMPDEST SWAP2 POP POP SWAP3 POP SWAP3 POP SWAP3 JUMP JUMPDEST PUSH2 0x1A99 DUP2 PUSH2 0x1A0D JUMP JUMPDEST DUP3 MSTORE POP POP JUMP JUMPDEST PUSH0 PUSH1 0x20 DUP3 ADD SWAP1 POP PUSH2 0x1AB2 PUSH0 DUP4 ADD DUP5 PUSH2 0x1A90 JUMP JUMPDEST SWAP3 SWAP2 POP POP JUMP JUMPDEST PUSH0 PUSH20 0xFFFFFFFFFFFFFFFFFFFFFFFFFFFFFFFFFFFFFFFF DUP3 AND SWAP1 POP SWAP2 SWAP1 POP JUMP JUMPDEST PUSH0 PUSH2 0x1AE1 DUP3 PUSH2 0x1AB8 JUMP JUMPDEST SWAP1 POP SWAP2 SWAP1 POP JUMP JUMPDEST PUSH2 0x1AF1 DUP2 PUSH2 0x1AD7 JUMP JUMPDEST DUP2 EQ PUSH2 0x1AFB JUMPI PUSH0 DUP1 REVERT JUMPDEST POP JUMP JUMPDEST PUSH0 DUP2 CALLDATALOAD SWAP1 POP PUSH2 0x1B0C DUP2 PUSH2 0x1AE8 JUMP JUMPDEST SWAP3 SWAP2 POP POP JUMP JUMPDEST PUSH0 PUSH1 0x20 DUP3 DUP5 SUB SLT ISZERO PUSH2 0x1B27 JUMPI PUSH2 0x1B26 PUSH2 0x1A09 JUMP JUMPDEST JUMPDEST PUSH0 PUSH2 0x1B34 DUP5 DUP3 DUP6 ADD PUSH2 0x1AFE JUMP JUMPDEST SWAP2 POP POP SWAP3 SWAP2 POP POP JUMP JUMPDEST PUSH0 DUP2 ISZERO ISZERO SWAP1 POP SWAP2 SWAP1 POP JUMP JUMPDEST PUSH2 0x1B51 DUP2 PUSH2 0x1B3D JUMP JUMPDEST DUP2 EQ PUSH2 0x1B5B JUMPI PUSH0 DUP1 REVERT JUMPDEST POP JUMP JUMPDEST PUSH0 DUP2 CALLDATALOAD SWAP1 POP PUSH2 0x1B6C DUP2 PUSH2 0x1B48 JUMP JUMPDEST SWAP3 SWAP2 POP POP JUMP JUMPDEST PUSH0 DUP1 PUSH0 DUP1 PUSH0 DUP1 PUSH0 PUSH1 0xE0 DUP9 DUP11 SUB SLT ISZERO PUSH2 0x1B8D JUMPI PUSH2 0x1B8C PUSH2 0x1A09 JUMP JUMPDEST JUMPDEST PUSH0 PUSH2 0x1B9A DUP11 DUP3 DUP12 ADD PUSH2 0x1A2C JUMP JUMPDEST SWAP8 POP POP PUSH1 0x20 PUSH2 0x1BAB DUP11 DUP3 DUP12 ADD PUSH2 0x1A2C JUMP JUMPDEST SWAP7 POP POP PUSH1 0x40 PUSH2 0x1BBC DUP11 DUP3 DUP12 ADD PUSH2 0x1AFE JUMP JUMPDEST SWAP6 POP POP PUSH1 0x60 PUSH2 0x1BCD DUP11 DUP3 DUP12 ADD PUSH2 0x1AFE JUMP JUMPDEST SWAP5 POP POP PUSH1 0x80 PUSH2 0x1BDE DUP11 DUP3 DUP12 ADD PUSH2 0x1AFE JUMP JUMPDEST SWAP4 POP POP PUSH1 0xA0 PUSH2 0x1BEF DUP11 DUP3 DUP12 ADD PUSH2 0x1A2C JUMP JUMPDEST SWAP3 POP POP PUSH1 0xC0 PUSH2 0x1C00 DUP11 DUP3 DUP12 ADD PUSH2 0x1B5E JUMP JUMPDEST SWAP2 POP POP SWAP3 SWAP6 SWAP9 SWAP2 SWAP5 SWAP8 POP SWAP3 SWAP6 POP JUMP JUMPDEST PUSH2 0x1C18 DUP2 PUSH2 0x1AD7 JUMP JUMPDEST DUP3 MSTORE POP POP JUMP JUMPDEST PUSH0 PUSH1 0x20 DUP3 ADD SWAP1 POP PUSH2 0x1C31 PUSH0 DUP4 ADD DUP5 PUSH2 0x1C0F JUMP JUMPDEST SWAP3 SWAP2 POP POP JUMP JUMPDEST PUSH2 0x1C40 DUP2 PUSH2 0x1B3D JUMP JUMPDEST DUP3 MSTORE POP POP JUMP JUMPDEST PUSH0 PUSH1 0x20 DUP3 ADD SWAP1 POP PUSH2 0x1C59 PUSH0 DUP4 ADD DUP5 PUSH2 0x1C37 JUMP JUMPDEST SWAP3 SWAP2 POP POP JUMP JUMPDEST PUSH0 DUP1 PUSH1 0x40 DUP4 DUP6 SUB SLT ISZERO PUSH2 0x1C75 JUMPI PUSH2 0x1C74 PUSH2 0x1A09 JUMP JUMPDEST JUMPDEST PUSH0 PUSH2 0x1C82 DUP6 DUP3 DUP7 ADD PUSH2 0x1AFE JUMP JUMPDEST SWAP3 POP POP PUSH1 0x20 PUSH2 0x1C93 DUP6 DUP3 DUP7 ADD PUSH2 0x1AFE JUMP JUMPDEST SWAP2 POP POP SWAP3 POP SWAP3 SWAP1 POP JUMP JUMPDEST PUSH0 PUSH1 0x40 DUP3 ADD SWAP1 POP PUSH2 0x1CB0 PUSH0 DUP4 ADD DUP6 PUSH2 0x1A90 JUMP JUMPDEST PUSH2 0x1CBD PUSH1 0x20 DUP4 ADD DUP5 PUSH2 0x1A90 JUMP JUMPDEST SWAP4 SWAP3 POP POP POP JUMP JUMPDEST PUSH0 PUSH1 0x40 DUP3 ADD SWAP1 POP PUSH2 0x1CD7 PUSH0 DUP4 ADD DUP6 PUSH2 0x1C0F JUMP JUMPDEST PUSH2 0x1CE4 PUSH1 0x20 DUP4 ADD DUP5 PUSH2 0x1C0F JUMP JUMPDEST SWAP4 SWAP3 POP POP POP JUMP JUMPDEST PUSH0 DUP2 MLOAD SWAP1 POP PUSH2 0x1CF9 DUP2 PUSH2 0x1AE8 JUMP JUMPDEST SWAP3 SWAP2 POP POP JUMP JUMPDEST PUSH0 PUSH1 0x20 DUP3 DUP5 SUB SLT ISZERO PUSH2 0x1D14 JUMPI PUSH2 0x1D13 PUSH2 0x1A09 JUMP JUMPDEST JUMPDEST PUSH0 PUSH2 0x1D21 DUP5 DUP3 DUP6 ADD PUSH2 0x1CEB JUMP JUMPDEST SWAP2 POP POP SWAP3 SWAP2 POP POP JUMP JUMPDEST PUSH32 0x4E487B7100000000000000000000000000000000000000000000000000000000 PUSH0 MSTORE PUSH1 0x11 PUSH1 0x4 MSTORE PUSH1 0x24 PUSH0 REVERT JUMPDEST PUSH0 PUSH2 0x1D61 DUP3 PUSH2 0x1A0D JUMP JUMPDEST SWAP2 POP PUSH2 0x1D6C DUP4 PUSH2 0x1A0D JUMP JUMPDEST SWAP3 POP DUP3 DUP3 MUL PUSH2 0x1D7A DUP2 PUSH2 0x1A0D JUMP JUMPDEST SWAP2 POP DUP3 DUP3 DIV DUP5 EQ DUP4 ISZERO OR PUSH2 0x1D91 JUMPI PUSH2 0x1D90 PUSH2 0x1D2A JUMP JUMPDEST JUMPDEST POP SWAP3 SWAP2 POP POP JUMP JUMPDEST PUSH0 PUSH2 0x1DA2 DUP3 PUSH2 0x1A0D JUMP JUMPDEST SWAP2 POP PUSH2 0x1DAD DUP4 PUSH2 0x1A0D JUMP JUMPDEST SWAP3 POP DUP3 DUP3 ADD SWAP1 POP DUP1 DUP3 GT ISZERO PUSH2 0x1DC5 JUMPI PUSH2 0x1DC4 PUSH2 0x1D2A JUMP JUMPDEST JUMPDEST SWAP3 SWAP2 POP POP JUMP JUMPDEST PUSH32 0x4E487B7100000000000000000000000000000000000000000000000000000000 PUSH0 MSTORE PUSH1 0x12 PUSH1 0x4 MSTORE PUSH1 0x24 PUSH0 REVERT JUMPDEST PUSH0 PUSH2 0x1E02 DUP3 PUSH2 0x1A0D JUMP JUMPDEST SWAP2 POP PUSH2 0x1E0D DUP4 PUSH2 0x1A0D JUMP JUMPDEST SWAP3 POP DUP3 PUSH2 0x1E1D JUMPI PUSH2 0x1E1C PUSH2 0x1DCB JUMP JUMPDEST JUMPDEST DUP3 DUP3 DIV SWAP1 POP SWAP3 SWAP2 POP POP JUMP JUMPDEST PUSH0 PUSH14 0xFFFFFFFFFFFFFFFFFFFFFFFFFFFF DUP3 AND SWAP1 POP SWAP2 SWAP1 POP JUMP JUMPDEST PUSH2 0x1E4A DUP2 PUSH2 0x1E28 JUMP JUMPDEST DUP2 EQ PUSH2 0x1E54 JUMPI PUSH0 DUP1 REVERT JUMPDEST POP JUMP JUMPDEST PUSH0 DUP2 MLOAD SWAP1 POP PUSH2 0x1E65 DUP2 PUSH2 0x1E41 JUMP JUMPDEST SWAP3 SWAP2 POP POP JUMP JUMPDEST PUSH0 PUSH4 0xFFFFFFFF DUP3 AND SWAP1 POP SWAP2 SWAP1 POP JUMP JUMPDEST PUSH2 0x1E83 DUP2 PUSH2 0x1E6B JUMP JUMPDEST DUP2 EQ PUSH2 0x1E8D JUMPI PUSH0 DUP1 REVERT JUMPDEST POP JUMP JUMPDEST PUSH0 DUP2 MLOAD SWAP1 POP PUSH2 0x1E9E DUP2 PUSH2 0x1E7A JUMP JUMPDEST SWAP3 SWAP2 POP POP JUMP JUMPDEST PUSH0 DUP1 PUSH0 PUSH1 0x60 DUP5 DUP7 SUB SLT ISZERO PUSH2 0x1EBB JUMPI PUSH2 0x1EBA PUSH2 0x1A09 JUMP JUMPDEST JUMPDEST PUSH0 PUSH2 0x1EC8 DUP7 DUP3 DUP8 ADD PUSH2 0x1E57 JUMP JUMPDEST SWAP4 POP POP PUSH1 0x20 PUSH2 0x1ED9 DUP7 DUP3 DUP8 ADD PUSH2 0x1E57 JUMP JUMPDEST SWAP3 POP POP PUSH1 0x40 PUSH2 0x1EEA DUP7 DUP3 DUP8 ADD PUSH2 0x1E90 JUMP JUMPDEST SWAP2 POP POP SWAP3 POP SWAP3 POP SWAP3 JUMP JUMPDEST PUSH0 PUSH1 0xC0 DUP3 ADD SWAP1 POP PUSH2 0x1F07 PUSH0 DUP4 ADD DUP10 PUSH2 0x1C0F JUMP JUMPDEST PUSH2 0x1F14 PUSH1 0x20 DUP4 ADD DUP9 PUSH2 0x1C0F JUMP JUMPDEST PUSH2 0x1F21 PUSH1 0x40 DUP4 ADD DUP8 PUSH2 0x1C0F JUMP JUMPDEST PUSH2 0x1F2E PUSH1 0x60 DUP4 ADD DUP7 PUSH2 0x1A90 JUMP JUMPDEST PUSH2 0x1F3B PUSH1 0x80 DUP4 ADD DUP6 PUSH2 0x1A90 JUMP JUMPDEST PUSH2 0x1F48 PUSH1 0xA0 DUP4 ADD DUP5 PUSH2 0x1C0F JUMP JUMPDEST SWAP8 SWAP7 POP POP POP POP POP POP POP JUMP JUMPDEST PUSH0 PUSH2 0x1F5D DUP3 PUSH2 0x1A0D JUMP JUMPDEST SWAP2 POP PUSH2 0x1F68 DUP4 PUSH2 0x1A0D JUMP JUMPDEST SWAP3 POP DUP3 DUP3 SUB SWAP1 POP DUP2 DUP2 GT ISZERO PUSH2 0x1F80 JUMPI PUSH2 0x1F7F PUSH2 0x1D2A JUMP JUMPDEST JUMPDEST SWAP3 SWAP2 POP POP JUMP JUMPDEST PUSH0 PUSH1 0x60 DUP3 ADD SWAP1 POP PUSH2 0x1F99 PUSH0 DUP4 ADD DUP7 PUSH2 0x1A90 JUMP JUMPDEST PUSH2 0x1FA6 PUSH1 0x20 DUP4 ADD DUP6 PUSH2 0x1A90 JUMP JUMPDEST PUSH2 0x1FB3 PUSH1 0x40 DUP4 ADD DUP5 PUSH2 0x1C0F JUMP JUMPDEST SWAP5 SWAP4 POP POP POP POP JUMP JUMPDEST PUSH0 DUP2 MLOAD SWAP1 POP PUSH2 0x1FC9 DUP2 PUSH2 0x1B48 JUMP JUMPDEST SWAP3 SWAP2 POP POP JUMP JUMPDEST PUSH0 PUSH1 0x20 DUP3 DUP5 SUB SLT ISZERO PUSH2 0x1FE4 JUMPI PUSH2 0x1FE3 PUSH2 0x1A09 JUMP JUMPDEST JUMPDEST PUSH0 PUSH2 0x1FF1 DUP5 DUP3 DUP6 ADD PUSH2 0x1FBB JUMP JUMPDEST SWAP2 POP POP SWAP3 SWAP2 POP POP JUMP INVALID LOG2 PUSH5 0x6970667358 0x22 SLT KECCAK256 SHR 0xAB SELFBALANCE GASPRICE 0xE6 0xC8 PUSH27 0xAF63AC92EDAC6899ECFDACBCF227295546CC6188638B3325D46473 PUSH16 0x6C634300081800330000000000000000 "
		},
		"gasEstimates": {
			"creation": {
				"codeDepositCost": "1648000",
				"executionCost": "infinite",
				"totalCost": "infinite"
			},
			"external": {
				"BPS_DENOMINATOR()": "369",
				"PROTOCOL_FEE_BPS()": "414",
				"eligibleRegistry()": "2553",
				"factory()": "infinite",
				"getAmountIn(uint256,uint256,uint256)": "infinite",
				"getAmountOut(uint256,uint256,uint256)": "infinite",
				"getReserves(address,address)": "infinite",
				"owner()": "2538",
				"pause()": "infinite",
				"paused()": "2540",
				"quote(uint256,uint256,uint256)": "infinite",
				"renounceOwnership()": "infinite",
				"setEligibleRegistry(address)": "infinite",
				"setTimbPrize(address)": "infinite",
				"setTreasury(address)": "infinite",
				"swapExactTokensForTokens(uint256,uint256,address,address,address,uint256,bool)": "infinite",
				"swapTokensForExactTokens(uint256,uint256,address,address,address,uint256,bool)": "infinite",
				"timbPrize()": "2620",
				"transferOwnership(address)": "infinite",
				"treasury()": "2553",
				"unpause()": "infinite"
			},
			"internal": {
				"_collectProtocolFee(address,uint256)": "infinite",
				"_executeSwap(address,address,uint256,uint256,address,bool)": "infinite",
				"_getAmountIn(uint256,uint256,uint256)": "infinite",
				"_getAmountOut(uint256,uint256,uint256)": "infinite",
				"_getPair(address,address)": "infinite",
				"_getReserves(address,address)": "infinite",
				"_maybeNudge(address,bool)": "infinite",
				"_quote(uint256,uint256,uint256)": "infinite",
				"_swapOnPair(address,address,uint256,address)": "infinite"
			}
		},
		"methodIdentifiers": {
			"BPS_DENOMINATOR()": "e1a45218",
			"PROTOCOL_FEE_BPS()": "be378228",
			"eligibleRegistry()": "92eaa9d9",
			"factory()": "c45a0155",
			"getAmountIn(uint256,uint256,uint256)": "85f8c259",
			"getAmountOut(uint256,uint256,uint256)": "054d50d4",
			"getReserves(address,address)": "d52bb6f4",
			"owner()": "8da5cb5b",
			"pause()": "8456cb59",
			"paused()": "5c975abb",
			"quote(uint256,uint256,uint256)": "ad615dec",
			"renounceOwnership()": "715018a6",
			"setEligibleRegistry(address)": "f13afb90",
			"setTimbPrize(address)": "27b23849",
			"setTreasury(address)": "f0f44260",
			"swapExactTokensForTokens(uint256,uint256,address,address,address,uint256,bool)": "3824659c",
			"swapTokensForExactTokens(uint256,uint256,address,address,address,uint256,bool)": "e98f6797",
			"timbPrize()": "5364276d",
			"transferOwnership(address)": "f2fde38b",
			"treasury()": "61d027b3",
			"unpause()": "3f4ba83a"
		}
	},
	"abi": [
		{
			"inputs": [
				{
					"internalType": "address",
					"name": "_factory",
					"type": "address"
				},
				{
					"internalType": "address",
					"name": "_treasury",
					"type": "address"
				},
				{
					"internalType": "address",
					"name": "_eligibleRegistry",
					"type": "address"
				},
				{
					"internalType": "address",
					"name": "_timbPrize",
					"type": "address"
				}
			],
			"stateMutability": "nonpayable",
			"type": "constructor"
		},
		{
			"inputs": [],
			"name": "ExcessiveInputAmount",
			"type": "error"
		},
		{
			"inputs": [
				{
					"internalType": "uint256",
					"name": "deadline",
					"type": "uint256"
				}
			],
			"name": "Expired",
			"type": "error"
		},
		{
			"inputs": [
				{
					"internalType": "uint256",
					"name": "amountA",
					"type": "uint256"
				},
				{
					"internalType": "uint256",
					"name": "amountAMin",
					"type": "uint256"
				}
			],
			"name": "InsufficientAAmount",
			"type": "error"
		},
		{
			"inputs": [
				{
					"internalType": "uint256",
					"name": "amountB",
					"type": "uint256"
				},
				{
					"internalType": "uint256",
					"name": "amountBMin",
					"type": "uint256"
				}
			],
			"name": "InsufficientBAmount",
			"type": "error"
		},
		{
			"inputs": [
				{
					"internalType": "uint256",
					"name": "amountOut",
					"type": "uint256"
				},
				{
					"internalType": "uint256",
					"name": "amountOutMin",
					"type": "uint256"
				}
			],
			"name": "InsufficientOutputAmount",
			"type": "error"
		},
		{
			"inputs": [
				{
					"internalType": "address",
					"name": "owner",
					"type": "address"
				}
			],
			"name": "OwnableInvalidOwner",
			"type": "error"
		},
		{
			"inputs": [
				{
					"internalType": "address",
					"name": "account",
					"type": "address"
				}
			],
			"name": "OwnableUnauthorizedAccount",
			"type": "error"
		},
		{
			"inputs": [
				{
					"internalType": "address",
					"name": "tokenA",
					"type": "address"
				},
				{
					"internalType": "address",
					"name": "tokenB",
					"type": "address"
				}
			],
			"name": "PairNotFound",
			"type": "error"
		},
		{
			"inputs": [],
			"name": "ReentrancyGuardReentrantCall",
			"type": "error"
		},
		{
			"inputs": [],
			"name": "RouterPaused",
			"type": "error"
		},
		{
			"inputs": [
				{
					"internalType": "address",
					"name": "token",
					"type": "address"
				}
			],
			"name": "SafeERC20FailedOperation",
			"type": "error"
		},
		{
			"inputs": [],
			"name": "ZeroAddress",
			"type": "error"
		},
		{
			"inputs": [],
			"name": "ZeroAmount",
			"type": "error"
		},
		{
			"anonymous": false,
			"inputs": [
				{
					"indexed": true,
					"internalType": "address",
					"name": "registry",
					"type": "address"
				}
			],
			"name": "EligibleRegistrySet",
			"type": "event"
		},
		{
			"anonymous": false,
			"inputs": [
				{
					"indexed": true,
					"internalType": "address",
					"name": "pair",
					"type": "address"
				},
				{
					"indexed": true,
					"internalType": "address",
					"name": "provider",
					"type": "address"
				},
				{
					"indexed": false,
					"internalType": "uint256",
					"name": "amountA",
					"type": "uint256"
				},
				{
					"indexed": false,
					"internalType": "uint256",
					"name": "amountB",
					"type": "uint256"
				},
				{
					"indexed": false,
					"internalType": "uint256",
					"name": "liquidity",
					"type": "uint256"
				}
			],
			"name": "LiquidityAdded",
			"type": "event"
		},
		{
			"anonymous": false,
			"inputs": [
				{
					"indexed": true,
					"internalType": "address",
					"name": "pair",
					"type": "address"
				},
				{
					"indexed": true,
					"internalType": "address",
					"name": "provider",
					"type": "address"
				},
				{
					"indexed": false,
					"internalType": "uint256",
					"name": "amountA",
					"type": "uint256"
				},
				{
					"indexed": false,
					"internalType": "uint256",
					"name": "amountB",
					"type": "uint256"
				},
				{
					"indexed": false,
					"internalType": "uint256",
					"name": "liquidity",
					"type": "uint256"
				}
			],
			"name": "LiquidityRemoved",
			"type": "event"
		},
		{
			"anonymous": false,
			"inputs": [
				{
					"indexed": true,
					"internalType": "address",
					"name": "previousOwner",
					"type": "address"
				},
				{
					"indexed": true,
					"internalType": "address",
					"name": "newOwner",
					"type": "address"
				}
			],
			"name": "OwnershipTransferred",
			"type": "event"
		},
		{
			"anonymous": false,
			"inputs": [
				{
					"indexed": true,
					"internalType": "address",
					"name": "by",
					"type": "address"
				}
			],
			"name": "Paused",
			"type": "event"
		},
		{
			"anonymous": false,
			"inputs": [
				{
					"indexed": true,
					"internalType": "address",
					"name": "treasury",
					"type": "address"
				},
				{
					"indexed": true,
					"internalType": "address",
					"name": "token",
					"type": "address"
				},
				{
					"indexed": false,
					"internalType": "uint256",
					"name": "amount",
					"type": "uint256"
				}
			],
			"name": "ProtocolFeeSent",
			"type": "event"
		},
		{
			"anonymous": false,
			"inputs": [
				{
					"indexed": true,
					"internalType": "address",
					"name": "swapper",
					"type": "address"
				},
				{
					"indexed": true,
					"internalType": "address",
					"name": "tokenIn",
					"type": "address"
				}
			],
			"name": "ScrollNudged",
			"type": "event"
		},
		{
			"anonymous": false,
			"inputs": [
				{
					"indexed": false,
					"internalType": "address",
					"name": "sender",
					"type": "address"
				},
				{
					"indexed": false,
					"internalType": "address",
					"name": "tokenIn",
					"type": "address"
				},
				{
					"indexed": false,
					"internalType": "address",
					"name": "tokenOut",
					"type": "address"
				},
				{
					"indexed": false,
					"internalType": "uint256",
					"name": "amountIn",
					"type": "uint256"
				},
				{
					"indexed": false,
					"internalType": "uint256",
					"name": "amountOut",
					"type": "uint256"
				},
				{
					"indexed": false,
					"internalType": "address",
					"name": "to",
					"type": "address"
				}
			],
			"name": "SwapExecuted",
			"type": "event"
		},
		{
			"anonymous": false,
			"inputs": [
				{
					"indexed": true,
					"internalType": "address",
					"name": "timbPrize",
					"type": "address"
				}
			],
			"name": "TimbPrizeSet",
			"type": "event"
		},
		{
			"anonymous": false,
			"inputs": [
				{
					"indexed": true,
					"internalType": "address",
					"name": "oldTreasury",
					"type": "address"
				},
				{
					"indexed": true,
					"internalType": "address",
					"name": "newTreasury",
					"type": "address"
				}
			],
			"name": "TreasuryUpdated",
			"type": "event"
		},
		{
			"anonymous": false,
			"inputs": [
				{
					"indexed": true,
					"internalType": "address",
					"name": "by",
					"type": "address"
				}
			],
			"name": "Unpaused",
			"type": "event"
		},
		{
			"inputs": [],
			"name": "BPS_DENOMINATOR",
			"outputs": [
				{
					"internalType": "uint256",
					"name": "",
					"type": "uint256"
				}
			],
			"stateMutability": "view",
			"type": "function"
		},
		{
			"inputs": [],
			"name": "PROTOCOL_FEE_BPS",
			"outputs": [
				{
					"internalType": "uint256",
					"name": "",
					"type": "uint256"
				}
			],
			"stateMutability": "view",
			"type": "function"
		},
		{
			"inputs": [],
			"name": "eligibleRegistry",
			"outputs": [
				{
					"internalType": "address",
					"name": "",
					"type": "address"
				}
			],
			"stateMutability": "view",
			"type": "function"
		},
		{
			"inputs": [],
			"name": "factory",
			"outputs": [
				{
					"internalType": "address",
					"name": "",
					"type": "address"
				}
			],
			"stateMutability": "view",
			"type": "function"
		},
		{
			"inputs": [
				{
					"internalType": "uint256",
					"name": "amountOut",
					"type": "uint256"
				},
				{
					"internalType": "uint256",
					"name": "reserveIn",
					"type": "uint256"
				},
				{
					"internalType": "uint256",
					"name": "reserveOut",
					"type": "uint256"
				}
			],
			"name": "getAmountIn",
			"outputs": [
				{
					"internalType": "uint256",
					"name": "",
					"type": "uint256"
				}
			],
			"stateMutability": "pure",
			"type": "function"
		},
		{
			"inputs": [
				{
					"internalType": "uint256",
					"name": "amountIn",
					"type": "uint256"
				},
				{
					"internalType": "uint256",
					"name": "reserveIn",
					"type": "uint256"
				},
				{
					"internalType": "uint256",
					"name": "reserveOut",
					"type": "uint256"
				}
			],
			"name": "getAmountOut",
			"outputs": [
				{
					"internalType": "uint256",
					"name": "",
					"type": "uint256"
				}
			],
			"stateMutability": "pure",
			"type": "function"
		},
		{
			"inputs": [
				{
					"internalType": "address",
					"name": "tokenA",
					"type": "address"
				},
				{
					"internalType": "address",
					"name": "tokenB",
					"type": "address"
				}
			],
			"name": "getReserves",
			"outputs": [
				{
					"internalType": "uint256",
					"name": "reserveA",
					"type": "uint256"
				},
				{
					"internalType": "uint256",
					"name": "reserveB",
					"type": "uint256"
				}
			],
			"stateMutability": "view",
			"type": "function"
		},
		{
			"inputs": [],
			"name": "owner",
			"outputs": [
				{
					"internalType": "address",
					"name": "",
					"type": "address"
				}
			],
			"stateMutability": "view",
			"type": "function"
		},
		{
			"inputs": [],
			"name": "pause",
			"outputs": [],
			"stateMutability": "nonpayable",
			"type": "function"
		},
		{
			"inputs": [],
			"name": "paused",
			"outputs": [
				{
					"internalType": "bool",
					"name": "",
					"type": "bool"
				}
			],
			"stateMutability": "view",
			"type": "function"
		},
		{
			"inputs": [
				{
					"internalType": "uint256",
					"name": "amountA",
					"type": "uint256"
				},
				{
					"internalType": "uint256",
					"name": "reserveA",
					"type": "uint256"
				},
				{
					"internalType": "uint256",
					"name": "reserveB",
					"type": "uint256"
				}
			],
			"name": "quote",
			"outputs": [
				{
					"internalType": "uint256",
					"name": "",
					"type": "uint256"
				}
			],
			"stateMutability": "pure",
			"type": "function"
		},
		{
			"inputs": [],
			"name": "renounceOwnership",
			"outputs": [],
			"stateMutability": "nonpayable",
			"type": "function"
		},
		{
			"inputs": [
				{
					"internalType": "address",
					"name": "_r",
					"type": "address"
				}
			],
			"name": "setEligibleRegistry",
			"outputs": [],
			"stateMutability": "nonpayable",
			"type": "function"
		},
		{
			"inputs": [
				{
					"internalType": "address",
					"name": "_p",
					"type": "address"
				}
			],
			"name": "setTimbPrize",
			"outputs": [],
			"stateMutability": "nonpayable",
			"type": "function"
		},
		{
			"inputs": [
				{
					"internalType": "address",
					"name": "_treasury",
					"type": "address"
				}
			],
			"name": "setTreasury",
			"outputs": [],
			"stateMutability": "nonpayable",
			"type": "function"
		},
		{
			"inputs": [
				{
					"internalType": "uint256",
					"name": "amountIn",
					"type": "uint256"
				},
				{
					"internalType": "uint256",
					"name": "amountOutMin",
					"type": "uint256"
				},
				{
					"internalType": "address",
					"name": "tokenIn",
					"type": "address"
				},
				{
					"internalType": "address",
					"name": "tokenOut",
					"type": "address"
				},
				{
					"internalType": "address",
					"name": "to",
					"type": "address"
				},
				{
					"internalType": "uint256",
					"name": "deadline",
					"type": "uint256"
				},
				{
					"internalType": "bool",
					"name": "influencePrize",
					"type": "bool"
				}
			],
			"name": "swapExactTokensForTokens",
			"outputs": [
				{
					"internalType": "uint256",
					"name": "amountOut",
					"type": "uint256"
				}
			],
			"stateMutability": "nonpayable",
			"type": "function"
		},
		{
			"inputs": [
				{
					"internalType": "uint256",
					"name": "amountOut",
					"type": "uint256"
				},
				{
					"internalType": "uint256",
					"name": "amountInMax",
					"type": "uint256"
				},
				{
					"internalType": "address",
					"name": "tokenIn",
					"type": "address"
				},
				{
					"internalType": "address",
					"name": "tokenOut",
					"type": "address"
				},
				{
					"internalType": "address",
					"name": "to",
					"type": "address"
				},
				{
					"internalType": "uint256",
					"name": "deadline",
					"type": "uint256"
				},
				{
					"internalType": "bool",
					"name": "influencePrize",
					"type": "bool"
				}
			],
			"name": "swapTokensForExactTokens",
			"outputs": [
				{
					"internalType": "uint256",
					"name": "amountIn",
					"type": "uint256"
				}
			],
			"stateMutability": "nonpayable",
			"type": "function"
		},
		{
			"inputs": [],
			"name": "timbPrize",
			"outputs": [
				{
					"internalType": "address",
					"name": "",
					"type": "address"
				}
			],
			"stateMutability": "view",
			"type": "function"
		},
		{
			"inputs": [
				{
					"internalType": "address",
					"name": "newOwner",
					"type": "address"
				}
			],
			"name": "transferOwnership",
			"outputs": [],
			"stateMutability": "nonpayable",
			"type": "function"
		},
		{
			"inputs": [],
			"name": "treasury",
			"outputs": [
				{
					"internalType": "address",
					"name": "",
					"type": "address"
				}
			],
			"stateMutability": "view",
			"type": "function"
		},
		{
			"inputs": [],
			"name": "unpause",
			"outputs": [],
			"stateMutability": "nonpayable",
			"type": "function"
		}
	]
}